{
  "address": "0x083dACe671Eb9D21e0314ceec565d95194191c9a",
  "abi": [
    {
      "inputs": [
        {
          "internalType": "address",
          "name": "forwarder",
          "type": "address"
        }
      ],
      "name": "isTrustedForwarder",
      "outputs": [
        {
          "internalType": "bool",
          "name": "",
          "type": "bool"
        }
      ],
      "stateMutability": "view",
      "type": "function"
    },
    {
      "inputs": [],
      "name": "trustedForwarder",
      "outputs": [
        {
          "internalType": "address",
          "name": "",
          "type": "address"
        }
      ],
      "stateMutability": "view",
      "type": "function"
    }
  ],
  "transactionHash": "0x93b4b526421ade30cb79ee28f67fea6644da182f68ca0ab9ad36e08e9ae76009",
  "args": [],
  "numDeployments": 2,
  "solcInputHash": "bc8cb60709e10f57cad37209b5990650",
  "bytecode": "0x608060405234801561001057600080fd5b50610158806100206000396000f3fe608060405234801561001057600080fd5b50600436106100365760003560e01c8063572b6c051461003b5780637da0a8771461009e575b600080fd5b6100896100493660046100e5565b7fdb1d5e345c4903e9a32b6674ecc8b1deaddbbb2551474fb34c9d34becbe7f4205473ffffffffffffffffffffffffffffffffffffffff90811691161490565b60405190151581526020015b60405180910390f35b7fdb1d5e345c4903e9a32b6674ecc8b1deaddbbb2551474fb34c9d34becbe7f4205460405173ffffffffffffffffffffffffffffffffffffffff9091168152602001610095565b6000602082840312156100f757600080fd5b813573ffffffffffffffffffffffffffffffffffffffff8116811461011b57600080fd5b939250505056fea264697066735822122009fb7418942c8f3c86a55d72104e5feed7c9dbfdf94587d92eda99ba4ab6152464736f6c634300080f0033",
  "devdoc": {
    "custom:category": "Meta Transactions",
    "custom:provides-interfaces": "IERC2771Context",
    "custom:type": "eip-2535-facet",
    "kind": "dev",
    "methods": {},
    "title": "ERC2771 Context",
    "version": 1
  },
  "userdoc": {
    "kind": "user",
    "methods": {},
    "notice": "Provides view functions about configured trusted forwarder according to EIP-2771.",
    "version": 1
  },
  "storageLayout": {
    "storage": [],
    "types": null
  }
}