{
  "address": "0x4FA397DFF5529909713bC7a45fd4fC598F30c599",
  "abi": [
    {
      "inputs": [],
      "name": "name",
      "outputs": [
        {
          "internalType": "string",
          "name": "",
          "type": "string"
        }
      ],
      "stateMutability": "view",
      "type": "function"
    },
    {
      "inputs": [],
      "name": "symbol",
      "outputs": [
        {
          "internalType": "string",
          "name": "",
          "type": "string"
        }
      ],
      "stateMutability": "view",
      "type": "function"
    },
    {
      "inputs": [
        {
          "internalType": "uint256",
          "name": "tokenId",
          "type": "uint256"
        }
      ],
      "name": "tokenURI",
      "outputs": [
        {
          "internalType": "string",
          "name": "",
          "type": "string"
        }
      ],
      "stateMutability": "view",
      "type": "function"
    }
  ],
  "transactionHash": "0x34622467d5b09449838a78a0b06f791214cb4f69debb5abb6ac90c6e273257a8",
  "args": [],
  "numDeployments": 2,
  "solcInputHash": "3e978968784236f46d062ea1c097f0f0",
  "bytecode": "0x608060405234801561001057600080fd5b506107a3806100206000396000f3fe608060405234801561001057600080fd5b50600436106100415760003560e01c806306fdde031461004657806395d89b4114610064578063c87b56dd1461006c575b600080fd5b61004e61007f565b60405161005b9190610558565b60405180910390f35b61004e610130565b61004e61007a36600461058b565b610161565b60607f70612f47e27b43eb7f87867b7b8f899a5e08503dcccf1bf322c9eef06483a1fc80546100ad906105a4565b80601f01602080910402602001604051908101604052809291908181526020018280546100d9906105a4565b80156101265780601f106100fb57610100808354040283529160200191610126565b820191906000526020600020905b81548152906001019060200180831161010957829003601f168201915b5050505050905090565b60607f70612f47e27b43eb7f87867b7b8f899a5e08503dcccf1bf322c9eef06483a1fc60010180546100ad906105a4565b60008181527f021fe373f7e014154d4f551c37c047b9ed9093c774291911030896b9b2dfef666020526040812080546060927f021fe373f7e014154d4f551c37c047b9ed9093c774291911030896b9b2dfef5f9290916101c0906105a4565b80601f01602080910402602001604051908101604052809291908181526020018280546101ec906105a4565b80156102395780601f1061020e57610100808354040283529160200191610239565b820191906000526020600020905b81548152906001019060200180831161021c57829003601f168201915b505050505090506000826000018054610251906105a4565b80601f016020809104026020016040519081016040528092919081815260200182805461027d906105a4565b80156102ca5780601f1061029f576101008083540402835291602001916102ca565b820191906000526020600020905b8154815290600101906020018083116102ad57829003601f168201915b505050505090506000825111156102e357509392505050565b60008360020180546102f4906105a4565b905011156103935782600201805461030b906105a4565b80601f0160208091040260200160405190810160405280929190818152602001828054610337906105a4565b80156103845780601f1061035957610100808354040283529160200191610384565b820191906000526020600020905b81548152906001019060200180831161036757829003601f168201915b50505050509350505050919050565b8051156103d357806103a4866103eb565b846004016040516020016103ba939291906105de565b6040516020818303038152906040529350505050919050565b50506040805160208101909152600081529392505050565b60608160000361042e57505060408051808201909152600181527f3000000000000000000000000000000000000000000000000000000000000000602082015290565b8160005b81156104585780610442816106bb565b91506104519050600a836106ea565b9150610432565b60008167ffffffffffffffff811115610473576104736106fe565b6040519080825280601f01601f19166020018201604052801561049d576020820181803683370190505b5090505b8415610520576104b2600183610714565b91506104bf600a8661072b565b6104ca90603061073f565b60f81b8183815181106104df576104df610757565b60200101907effffffffffffffffffffffffffffffffffffffffffffffffffffffffffffff1916908160001a905350610519600a866106ea565b94506104a1565b949350505050565b60005b8381101561054357818101518382015260200161052b565b83811115610552576000848401525b50505050565b6020815260008251806020840152610577816040850160208701610528565b601f01601f19169190910160400192915050565b60006020828403121561059d57600080fd5b5035919050565b600181811c908216806105b857607f821691505b6020821081036105d857634e487b7160e01b600052602260045260246000fd5b50919050565b6000845160206105f18285838a01610528565b8551918401916106048184848a01610528565b8554920191600090600181811c908083168061062157607f831692505b858310810361063e57634e487b7160e01b85526022600452602485fd5b808015610652576001811461066757610694565b60ff1985168852831515840288019550610694565b60008b81526020902060005b8581101561068c5781548a820152908401908801610673565b505083880195505b50939b9a5050505050505050505050565b634e487b7160e01b600052601160045260246000fd5b6000600182016106cd576106cd6106a5565b5060010190565b634e487b7160e01b600052601260045260246000fd5b6000826106f9576106f96106d4565b500490565b634e487b7160e01b600052604160045260246000fd5b600082821015610726576107266106a5565b500390565b60008261073a5761073a6106d4565b500690565b60008219821115610752576107526106a5565b500190565b634e487b7160e01b600052603260045260246000fdfea2646970667358221220d818887609ffcd1c9c4b53d86ca2ad68c3c2d50cac92af9d5016ecfe742a665164736f6c634300080f0033",
  "devdoc": {
    "custom:category": "NFTs",
    "custom:peer-dependencies": "IERC721",
    "custom:provides-interfaces": "IERC721Metadata",
    "custom:type": "eip-2535-facet",
    "details": "See https://eips.ethereum.org/EIPS/eip-721",
    "kind": "dev",
    "methods": {},
    "title": "ERC721 - Metadata",
    "version": 1
  },
  "userdoc": {
    "kind": "user",
    "methods": {
      "name()": {
        "notice": "A descriptive name for a collection of NFTs in this contract"
      },
      "symbol()": {
        "notice": "An abbreviated name for NFTs in this contract"
      },
      "tokenURI(uint256)": {
        "notice": "inheritdoc IERC721Metadata"
      }
    },
    "notice": "Provides metadata for ERC721 tokens according to standard.",
    "version": 1
  },
  "storageLayout": {
    "storage": [],
    "types": null
  }
}