{
  "address": "0x73fb9dDfA54EC7d0fecC22c88B8e9E98a2C1bF78",
  "abi": [
    {
      "anonymous": false,
      "inputs": [
        {
          "indexed": true,
          "internalType": "address",
          "name": "previousOwner",
          "type": "address"
        },
        {
          "indexed": true,
          "internalType": "address",
          "name": "newOwner",
          "type": "address"
        }
      ],
      "name": "OwnershipTransferred",
      "type": "event"
    },
    {
      "inputs": [
        {
          "internalType": "uint256",
          "name": "tierId",
          "type": "uint256"
        },
        {
          "internalType": "uint256",
          "name": "tokenId",
          "type": "uint256"
        }
      ],
      "name": "configureTierTokenId",
      "outputs": [],
      "stateMutability": "nonpayable",
      "type": "function"
    },
    {
      "inputs": [
        {
          "internalType": "uint256[]",
          "name": "tierIds",
          "type": "uint256[]"
        },
        {
          "internalType": "uint256[]",
          "name": "tokenIds",
          "type": "uint256[]"
        }
      ],
      "name": "configureTierTokenId",
      "outputs": [],
      "stateMutability": "nonpayable",
      "type": "function"
    }
  ],
  "transactionHash": "0x2a55015208d56745a6c2c135846571aee653d1b95d044e3714be36cbc2c7b757",
  "args": [],
  "numDeployments": 4,
  "solcInputHash": "122ec88a1aa759edbf87eeaa6489f1ff",
  "bytecode": "0x608060405234801561001057600080fd5b5061041f806100206000396000f3fe608060405234801561001057600080fd5b50600436106100365760003560e01c8063bbc2d43d1461003b578063cd07091c14610050575b600080fd5b61004e6100493660046102d2565b610063565b005b61004e61005e366004610340565b61011f565b7fc0ea367cb0174dd5521cd2372c76f8c13e6c1f832c71f1d6e0cbc185c9cc8ed45473ffffffffffffffffffffffffffffffffffffffff1633146100ee5760405162461bcd60e51b815260206004820152601d60248201527f4f776e61626c653a2073656e646572206d757374206265206f776e657200000060448201526064015b60405180910390fd5b60009182527f46f908971db3fbea57e8a21b2e54575e0e567ff2f950ead3c0dc83f15ec67154602052604090912055565b7fc0ea367cb0174dd5521cd2372c76f8c13e6c1f832c71f1d6e0cbc185c9cc8ed45473ffffffffffffffffffffffffffffffffffffffff1633146101a55760405162461bcd60e51b815260206004820152601d60248201527f4f776e61626c653a2073656e646572206d757374206265206f776e657200000060448201526064016100e5565b8281146102405760405162461bcd60e51b815260206004820152604360248201527f4552433131353554696572656453616c65734f776e61626c653a20746965724960448201527f647320616e6420746f6b656e496473206d7573742062652073616d65206c656e60648201527f6774680000000000000000000000000000000000000000000000000000000000608482015260a4016100e5565b60005b838110156102cb5782828281811061025d5761025d6103ac565b9050602002013561028b7f46f908971db3fbea57e8a21b2e54575e0e567ff2f950ead3c0dc83f15ec6715490565b600087878581811061029f5761029f6103ac565b9050602002013581526020019081526020016000208190555080806102c3906103c2565b915050610243565b5050505050565b600080604083850312156102e557600080fd5b50508035926020909101359150565b60008083601f84011261030657600080fd5b50813567ffffffffffffffff81111561031e57600080fd5b6020830191508360208260051b850101111561033957600080fd5b9250929050565b6000806000806040858703121561035657600080fd5b843567ffffffffffffffff8082111561036e57600080fd5b61037a888389016102f4565b9096509450602087013591508082111561039357600080fd5b506103a0878288016102f4565b95989497509550505050565b634e487b7160e01b600052603260045260246000fd5b6000600182016103e257634e487b7160e01b600052601160045260246000fd5b506001019056fea2646970667358221220d3ca763758d0b21b81c8e7afec94207345b71fc6fc05627f79d187dda605d07564736f6c634300080f0033",
  "devdoc": {
    "custom:category": "NFTs",
    "custom:peer-dependencies": "eip165:0x79f33254",
    "custom:provides-interfaces": "0x76c5dd21",
    "custom:type": "eip-2535-facet",
    "kind": "dev",
    "methods": {},
    "title": "ERC1155 - Tiered Sales - Admin - Ownable",
    "version": 1
  },
  "userdoc": {
    "kind": "user",
    "methods": {},
    "notice": "Used to manage which ERC1155 token is related to which the sales tier.",
    "version": 1
  },
  "storageLayout": {
    "storage": [],
    "types": null
  }
}