{
  "address": "0xC446f39eBce2CCB5Fec13cDbD98E4F6ddEE12198",
  "abi": [
    {
      "inputs": [],
      "name": "SenderIsNotSelf",
      "type": "error"
    },
    {
      "anonymous": false,
      "inputs": [
        {
          "indexed": true,
          "internalType": "address",
          "name": "account",
          "type": "address"
        },
        {
          "indexed": true,
          "internalType": "address",
          "name": "operator",
          "type": "address"
        },
        {
          "indexed": false,
          "internalType": "bool",
          "name": "approved",
          "type": "bool"
        }
      ],
      "name": "ApprovalForAll",
      "type": "event"
    },
    {
      "anonymous": false,
      "inputs": [
        {
          "indexed": true,
          "internalType": "address",
          "name": "operator",
          "type": "address"
        },
        {
          "indexed": true,
          "internalType": "address",
          "name": "from",
          "type": "address"
        },
        {
          "indexed": true,
          "internalType": "address",
          "name": "to",
          "type": "address"
        },
        {
          "indexed": false,
          "internalType": "uint256[]",
          "name": "ids",
          "type": "uint256[]"
        },
        {
          "indexed": false,
          "internalType": "uint256[]",
          "name": "values",
          "type": "uint256[]"
        }
      ],
      "name": "TransferBatch",
      "type": "event"
    },
    {
      "anonymous": false,
      "inputs": [
        {
          "indexed": true,
          "internalType": "address",
          "name": "operator",
          "type": "address"
        },
        {
          "indexed": true,
          "internalType": "address",
          "name": "from",
          "type": "address"
        },
        {
          "indexed": true,
          "internalType": "address",
          "name": "to",
          "type": "address"
        },
        {
          "indexed": false,
          "internalType": "uint256",
          "name": "id",
          "type": "uint256"
        },
        {
          "indexed": false,
          "internalType": "uint256",
          "name": "value",
          "type": "uint256"
        }
      ],
      "name": "TransferSingle",
      "type": "event"
    },
    {
      "inputs": [
        {
          "internalType": "address",
          "name": "account",
          "type": "address"
        },
        {
          "internalType": "uint256",
          "name": "id",
          "type": "uint256"
        }
      ],
      "name": "balanceOf",
      "outputs": [
        {
          "internalType": "uint256",
          "name": "",
          "type": "uint256"
        }
      ],
      "stateMutability": "view",
      "type": "function"
    },
    {
      "inputs": [
        {
          "internalType": "address[]",
          "name": "accounts",
          "type": "address[]"
        },
        {
          "internalType": "uint256[]",
          "name": "ids",
          "type": "uint256[]"
        }
      ],
      "name": "balanceOfBatch",
      "outputs": [
        {
          "internalType": "uint256[]",
          "name": "",
          "type": "uint256[]"
        }
      ],
      "stateMutability": "view",
      "type": "function"
    },
    {
      "inputs": [
        {
          "internalType": "address",
          "name": "account",
          "type": "address"
        },
        {
          "internalType": "uint256",
          "name": "id",
          "type": "uint256"
        },
        {
          "internalType": "uint256",
          "name": "value",
          "type": "uint256"
        }
      ],
      "name": "burn",
      "outputs": [],
      "stateMutability": "nonpayable",
      "type": "function"
    },
    {
      "inputs": [
        {
          "internalType": "address",
          "name": "account",
          "type": "address"
        },
        {
          "internalType": "uint256[]",
          "name": "ids",
          "type": "uint256[]"
        },
        {
          "internalType": "uint256[]",
          "name": "values",
          "type": "uint256[]"
        }
      ],
      "name": "burnBatch",
      "outputs": [],
      "stateMutability": "nonpayable",
      "type": "function"
    },
    {
      "inputs": [
        {
          "internalType": "address",
          "name": "account",
          "type": "address"
        },
        {
          "internalType": "uint256[]",
          "name": "ids",
          "type": "uint256[]"
        },
        {
          "internalType": "uint256[]",
          "name": "values",
          "type": "uint256[]"
        }
      ],
      "name": "burnBatchByFacet",
      "outputs": [],
      "stateMutability": "nonpayable",
      "type": "function"
    },
    {
      "inputs": [
        {
          "internalType": "address",
          "name": "account",
          "type": "address"
        },
        {
          "internalType": "uint256",
          "name": "id",
          "type": "uint256"
        },
        {
          "internalType": "uint256",
          "name": "amount",
          "type": "uint256"
        }
      ],
      "name": "burnByFacet",
      "outputs": [],
      "stateMutability": "nonpayable",
      "type": "function"
    },
    {
      "inputs": [
        {
          "internalType": "uint256",
          "name": "id",
          "type": "uint256"
        }
      ],
      "name": "exists",
      "outputs": [
        {
          "internalType": "bool",
          "name": "",
          "type": "bool"
        }
      ],
      "stateMutability": "view",
      "type": "function"
    },
    {
      "inputs": [
        {
          "internalType": "address",
          "name": "account",
          "type": "address"
        },
        {
          "internalType": "address",
          "name": "operator",
          "type": "address"
        }
      ],
      "name": "isApprovedForAll",
      "outputs": [
        {
          "internalType": "bool",
          "name": "",
          "type": "bool"
        }
      ],
      "stateMutability": "view",
      "type": "function"
    },
    {
      "inputs": [
        {
          "internalType": "address",
          "name": "account",
          "type": "address"
        },
        {
          "internalType": "uint256",
          "name": "id",
          "type": "uint256"
        },
        {
          "internalType": "uint256",
          "name": "amount",
          "type": "uint256"
        }
      ],
      "name": "lockByFacet",
      "outputs": [],
      "stateMutability": "nonpayable",
      "type": "function"
    },
    {
      "inputs": [
        {
          "internalType": "address",
          "name": "account",
          "type": "address"
        },
        {
          "internalType": "uint256[]",
          "name": "ticketTokenIds",
          "type": "uint256[]"
        }
      ],
      "name": "locked",
      "outputs": [
        {
          "internalType": "uint256[]",
          "name": "",
          "type": "uint256[]"
        }
      ],
      "stateMutability": "view",
      "type": "function"
    },
    {
      "inputs": [
        {
          "internalType": "address",
          "name": "account",
          "type": "address"
        },
        {
          "internalType": "uint256",
          "name": "tokenId",
          "type": "uint256"
        }
      ],
      "name": "locked",
      "outputs": [
        {
          "internalType": "uint256",
          "name": "",
          "type": "uint256"
        }
      ],
      "stateMutability": "view",
      "type": "function"
    },
    {
      "inputs": [
        {
          "internalType": "uint256",
          "name": "id",
          "type": "uint256"
        }
      ],
      "name": "maxSupply",
      "outputs": [
        {
          "internalType": "uint256",
          "name": "",
          "type": "uint256"
        }
      ],
      "stateMutability": "view",
      "type": "function"
    },
    {
      "inputs": [
        {
          "internalType": "address",
          "name": "to",
          "type": "address"
        },
        {
          "internalType": "uint256",
          "name": "id",
          "type": "uint256"
        },
        {
          "internalType": "uint256",
          "name": "amount",
          "type": "uint256"
        },
        {
          "internalType": "bytes",
          "name": "data",
          "type": "bytes"
        }
      ],
      "name": "mintByFacet",
      "outputs": [],
      "stateMutability": "nonpayable",
      "type": "function"
    },
    {
      "inputs": [
        {
          "internalType": "address",
          "name": "from",
          "type": "address"
        },
        {
          "internalType": "address",
          "name": "to",
          "type": "address"
        },
        {
          "internalType": "uint256[]",
          "name": "ids",
          "type": "uint256[]"
        },
        {
          "internalType": "uint256[]",
          "name": "amounts",
          "type": "uint256[]"
        },
        {
          "internalType": "bytes",
          "name": "data",
          "type": "bytes"
        }
      ],
      "name": "safeBatchTransferFrom",
      "outputs": [],
      "stateMutability": "nonpayable",
      "type": "function"
    },
    {
      "inputs": [
        {
          "internalType": "address",
          "name": "from",
          "type": "address"
        },
        {
          "internalType": "address",
          "name": "to",
          "type": "address"
        },
        {
          "internalType": "uint256",
          "name": "id",
          "type": "uint256"
        },
        {
          "internalType": "uint256",
          "name": "amount",
          "type": "uint256"
        },
        {
          "internalType": "bytes",
          "name": "data",
          "type": "bytes"
        }
      ],
      "name": "safeTransferFrom",
      "outputs": [],
      "stateMutability": "nonpayable",
      "type": "function"
    },
    {
      "inputs": [
        {
          "internalType": "address",
          "name": "operator",
          "type": "address"
        },
        {
          "internalType": "bool",
          "name": "status",
          "type": "bool"
        }
      ],
      "name": "setApprovalForAll",
      "outputs": [],
      "stateMutability": "nonpayable",
      "type": "function"
    },
    {
      "inputs": [
        {
          "internalType": "uint256",
          "name": "id",
          "type": "uint256"
        }
      ],
      "name": "totalSupply",
      "outputs": [
        {
          "internalType": "uint256",
          "name": "",
          "type": "uint256"
        }
      ],
      "stateMutability": "view",
      "type": "function"
    },
    {
      "inputs": [
        {
          "internalType": "address",
          "name": "account",
          "type": "address"
        },
        {
          "internalType": "uint256",
          "name": "id",
          "type": "uint256"
        },
        {
          "internalType": "uint256",
          "name": "amount",
          "type": "uint256"
        }
      ],
      "name": "unlockByFacet",
      "outputs": [],
      "stateMutability": "nonpayable",
      "type": "function"
    }
  ],
  "transactionHash": "0xc8c9580b57f84c44290d9de99412252af3382ac409756b31d2d5db3f8607eada",
  "args": [],
  "numDeployments": 1,
  "solcInputHash": "968778057bae2b74fe160d8d4ca2c423",
  "bytecode": "0x608060405234801561001057600080fd5b50612500806100206000396000f3fe608060405234801561001057600080fd5b50600436106101355760003560e01c8063983da156116100b2578063bd85b03911610081578063e985e9c511610066578063e985e9c514610289578063f242432a146102e4578063f5298aca146102f757600080fd5b8063bd85b03914610263578063bf7bab731461027657600080fd5b8063983da15614610217578063a22cb4651461022a578063a91a988a1461023d578063b164884b1461025057600080fd5b80634e1273f4116101095780636708a990116100ee5780636708a990146101de5780636b20c454146101f1578063869f75941461020457600080fd5b80634e1273f41461019b5780634f558e79146101bb57600080fd5b8062fdd58e1461013a5780630ad2bbac146101605780632eb2c2d61461017557806348f2f53614610188575b600080fd5b61014d610148366004611c7b565b61030a565b6040519081526020015b60405180910390f35b61017361016e366004611d7d565b61031d565b005b610173610183366004611e65565b61034d565b610173610196366004611f0f565b610436565b6101ae6101a9366004611f42565b610461565b6040516101579190612048565b6101ce6101c936600461205b565b610688565b6040519015158152602001610157565b6101736101ec366004611f0f565b6106bf565b6101736101ff366004611d7d565b6106ea565b61014d61021236600461205b565b6107e8565b610173610225366004611f0f565b61081b565b610173610238366004612085565b610846565b6101ae61024b3660046120bc565b610966565b61017361025e366004612142565b610a4d565b61014d61027136600461205b565b610a7f565b61014d610284366004611c7b565b610ab2565b6101ce6102973660046121a3565b6001600160a01b0391821660009081527ff9ecf3cb86ac553c70621e3e662b4036163ca34fffb329385fafa0e130cfc1a86020908152604080832093909416825291909152205460ff1690565b6101736102f23660046121d6565b610afa565b610173610305366004611f0f565b610bd6565b60006103168383610cd4565b9392505050565b30331461033d576040516328be0e2160e21b815260040160405180910390fd5b610348838383610d99565b505050565b6000610357611017565b9050806001600160a01b0316866001600160a01b031614806103bd57506001600160a01b0380871660009081527ff9ecf3cb86ac553c70621e3e662b4036163ca34fffb329385fafa0e130cfc1a8602090815260408083209385168352929052205460ff165b6104205760405162461bcd60e51b815260206004820152602960248201527f455243313135353a2063616c6c6572206973206e6f74206f776e6572206e6f7260448201526808185c1c1c9bdd995960ba1b60648201526084015b60405180910390fd5b61042e818787878787611026565b505050505050565b303314610456576040516328be0e2160e21b815260040160405180910390fd5b610348838383611042565b606081518351146104da5760405162461bcd60e51b815260206004820152602960248201527f455243313135353a206163636f756e747320616e6420696473206c656e67746860448201527f206d69736d6174636800000000000000000000000000000000000000000000006064820152608401610417565b82517ff9ecf3cb86ac553c70621e3e662b4036163ca34fffb329385fafa0e130cfc1a79060009067ffffffffffffffff81111561051957610519611ca5565b604051908082528060200260200182016040528015610542578160200160208202803683370190505b50905060005b855181101561067f5760006001600160a01b031686828151811061056e5761056e61223b565b60200260200101516001600160a01b0316036105f25760405162461bcd60e51b815260206004820152603160248201527f455243313135353a2062617463682062616c616e636520717565727920666f7260448201527f20746865207a65726f20616464726573730000000000000000000000000000006064820152608401610417565b8260008683815181106106075761060761223b565b6020026020010151815260200190815260200160002060008783815181106106315761063161223b565b60200260200101516001600160a01b03166001600160a01b031681526020019081526020016000205482828151811061066c5761066c61223b565b6020908102919091010152600101610548565b50949350505050565b60008181527f7056dcda885936c7a9d7c6385902b4ab5fb09024caea98652b7189a5f7a28ea5602052604081205415155b92915050565b3033146106df576040516328be0e2160e21b815260040160405180910390fd5b6103488383836111d6565b6106f2611017565b6001600160a01b0316836001600160a01b0316148061078a57503063e985e9c58461071b611017565b6040516001600160e01b031960e085901b1681526001600160a01b03928316600482015291166024820152604401602060405180830381865afa158015610766573d6000803e3d6000fd5b505050506040513d601f19601f8201168201806040525081019061078a9190612251565b61033d5760405162461bcd60e51b815260206004820152602960248201527f455243313135353a2063616c6c6572206973206e6f74206f776e6572206e6f7260448201526808185c1c1c9bdd995960ba1b6064820152608401610417565b60008181527f7056dcda885936c7a9d7c6385902b4ab5fb09024caea98652b7189a5f7a28ea660205260408120546106b9565b30331461083b576040516328be0e2160e21b815260040160405180910390fd5b610348838383611293565b6000610850611017565b9050826001600160a01b0316816001600160a01b0316036108d95760405162461bcd60e51b815260206004820152602960248201527f455243313135353a2073657474696e6720617070726f76616c2073746174757360448201527f20666f722073656c6600000000000000000000000000000000000000000000006064820152608401610417565b6001600160a01b0381811660008181527ff9ecf3cb86ac553c70621e3e662b4036163ca34fffb329385fafa0e130cfc1a86020908152604080832094881680845294825291829020805460ff1916871515908117909155825190815291517f17307eab39ab6107e8899845ad3d59bd9653f200f220920489ca2b5937696c319281900390910190a3505050565b606060008267ffffffffffffffff81111561098357610983611ca5565b6040519080825280602002602001820160405280156109ac578160200160208202803683370190505b50905060005b8381101561067f57610a1e868686848181106109d0576109d061223b565b905060200201356001600160a01b039190911660009081527f349768cb3869818ef8452552d8520ac7355b35c10a0ff9320e2975b28752782060209081526040808320938352929052205490565b828281518110610a3057610a3061223b565b602090810291909101015280610a4581612284565b9150506109b2565b303314610a6d576040516328be0e2160e21b815260040160405180910390fd5b610a798484848461135a565b50505050565b60008181527f7056dcda885936c7a9d7c6385902b4ab5fb09024caea98652b7189a5f7a28ea560205260408120546106b9565b6001600160a01b03821660009081527f349768cb3869818ef8452552d8520ac7355b35c10a0ff9320e2975b28752782060209081526040808320848452909152812054610316565b6000610b04611017565b9050806001600160a01b0316866001600160a01b03161480610b6a57506001600160a01b0380871660009081527ff9ecf3cb86ac553c70621e3e662b4036163ca34fffb329385fafa0e130cfc1a8602090815260408083209385168352929052205460ff165b610bc85760405162461bcd60e51b815260206004820152602960248201527f455243313135353a2063616c6c6572206973206e6f74206f776e6572206e6f7260448201526808185c1c1c9bdd995960ba1b6064820152608401610417565b61042e8187878787876114a0565b610bde611017565b6001600160a01b0316836001600160a01b03161480610c7657503063e985e9c584610c07611017565b6040516001600160e01b031960e085901b1681526001600160a01b03928316600482015291166024820152604401602060405180830381865afa158015610c52573d6000803e3d6000fd5b505050506040513d601f19601f82011682018060405250810190610c769190612251565b6104565760405162461bcd60e51b815260206004820152602960248201527f455243313135353a2063616c6c6572206973206e6f74206f776e6572206e6f7260448201526808185c1c1c9bdd995960ba1b6064820152608401610417565b60006001600160a01b038316610d525760405162461bcd60e51b815260206004820152602b60248201527f455243313135353a2062616c616e636520717565727920666f7220746865207a60448201527f65726f20616464726573730000000000000000000000000000000000000000006064820152608401610417565b7ff9ecf3cb86ac553c70621e3e662b4036163ca34fffb329385fafa0e130cfc1a76000928352602090815260408084206001600160a01b0395909516845293905250205490565b6001600160a01b038316610dfb5760405162461bcd60e51b815260206004820152602360248201527f455243313135353a206275726e2066726f6d20746865207a65726f206164647260448201526265737360e81b6064820152608401610417565b8051825114610e5d5760405162461bcd60e51b815260206004820152602860248201527f455243313135353a2069647320616e6420616d6f756e7473206c656e677468206044820152670dad2e6dac2e8c6d60c31b6064820152608401610417565b6000610e67611017565b9050610e87818560008686604051806020016040528060008152506114bc565b7ff9ecf3cb86ac553c70621e3e662b4036163ca34fffb329385fafa0e130cfc1a760005b8451811015610fb7576000858281518110610ec857610ec861223b565b60200260200101519050848281518110610ee457610ee461223b565b602090810291909101810151600083815285835260408082206001600160a01b038c16835290935291909120541015610f6b5760405162461bcd60e51b8152602060048201526024808201527f455243313135353a206275726e20616d6f756e7420657863656564732062616c604482015263616e636560e01b6064820152608401610417565b848281518110610f7d57610f7d61223b565b602090810291909101810151600092835284825260408084206001600160a01b038b16855290925291208054919091039055600101610eab565b5060006001600160a01b0316856001600160a01b0316836001600160a01b03167f4a39dc06d4c0dbc64b70af90fd698a233a518aa5d07e595d983b8c0526c8f7fb878760405161100892919061229d565b60405180910390a45050505050565b60006110216114c1565b905090565b6110348686868686866114cb565b61042e868686868686611758565b6001600160a01b0383166110a45760405162461bcd60e51b815260206004820152602360248201527f455243313135353a206275726e2066726f6d20746865207a65726f206164647260448201526265737360e81b6064820152608401610417565b60006110ae611017565b90506110de818560006110c087611906565b6110c987611906565b604051806020016040528060008152506114bc565b60008381527ff9ecf3cb86ac553c70621e3e662b4036163ca34fffb329385fafa0e130cfc1a7602090815260408083206001600160a01b0388168452918290529091205483111561117d5760405162461bcd60e51b8152602060048201526024808201527f455243313135353a206275726e20616d6f756e7420657863656564732062616c604482015263616e636560e01b6064820152608401610417565b6001600160a01b0385811660008181526020848152604080832080548990039055805189815291820188905291938616917fc3d58168c5ae7397731d063d5bbf3d657854427343f4c083240f7aacaa2d0f629101611008565b6001600160a01b03831660009081527f349768cb3869818ef8452552d8520ac7355b35c10a0ff9320e2975b28752782060209081526040808320858452918290529091205482111561126a5760405162461bcd60e51b815260206004820152601160248201527f4e4f545f454e4f5547485f4c4f434b45440000000000000000000000000000006044820152606401610417565b600083815260208290526040812080548492906112889084906122cb565b909155505050505050565b6001600160a01b03831660009081527f349768cb3869818ef8452552d8520ac7355b35c10a0ff9320e2975b28752782060209081526040808320858452918290529091205482906112e48686610cd4565b6112ee91906122cb565b101561133c5760405162461bcd60e51b815260206004820152601260248201527f4e4f545f454e4f5547485f42414c414e434500000000000000000000000000006044820152606401610417565b600083815260208290526040812080548492906112889084906122e2565b6000611364611017565b90506001600160a01b0385166113e25760405162461bcd60e51b815260206004820152602160248201527f455243313135353a206d696e7420746f20746865207a65726f2061646472657360448201527f73000000000000000000000000000000000000000000000000000000000000006064820152608401610417565b611401816000876113f288611906565b6113fb88611906565b876114bc565b60008481527ff9ecf3cb86ac553c70621e3e662b4036163ca34fffb329385fafa0e130cfc1a7602090815260408083206001600160a01b0389168452909152812080548592906114529084906122e2565b909155505060408051858152602081018590526001600160a01b0380881692600092918516917fc3d58168c5ae7397731d063d5bbf3d657854427343f4c083240f7aacaa2d0f629101611008565b6114ae868686868686611951565b61042e868686868686611b1a565b61042e565b6000611021611c16565b6001600160a01b03841661152f5760405162461bcd60e51b815260206004820152602560248201527f455243313135353a207472616e7366657220746f20746865207a65726f206164604482015264647265737360d81b6064820152608401610417565b81518351146115915760405162461bcd60e51b815260206004820152602860248201527f455243313135353a2069647320616e6420616d6f756e7473206c656e677468206044820152670dad2e6dac2e8c6d60c31b6064820152608401610417565b61159f8686868686866114bc565b7ff9ecf3cb86ac553c70621e3e662b4036163ca34fffb329385fafa0e130cfc1a760005b84518110156116f75760008582815181106115e0576115e061223b565b6020026020010151905060008583815181106115fe576115fe61223b565b602090810291909101810151600084815286835260408082206001600160a01b038e1683529093529190912054909150818110156116a45760405162461bcd60e51b815260206004820152602b60248201527f455243313135353a20696e73756666696369656e742062616c616e636573206660448201527f6f72207472616e736665720000000000000000000000000000000000000000006064820152608401610417565b6000838152602086815260408083206001600160a01b038e811685529252808320938590039093558a1681529081208054600195909501948392906116ea9084906122e2565b909155506115c392505050565b50846001600160a01b0316866001600160a01b0316886001600160a01b03167f4a39dc06d4c0dbc64b70af90fd698a233a518aa5d07e595d983b8c0526c8f7fb878760405161174792919061229d565b60405180910390a450505050505050565b6001600160a01b0384163b1561042e5760405163bc197c8160e01b81526001600160a01b0385169063bc197c819061179c9089908990889088908890600401612347565b6020604051808303816000875af19250505080156117d7575060408051601f3d908101601f191682019092526117d4918101906123a5565b60015b61188c576117e36123cf565b806308c379a00361181c57506117f76123ea565b80611802575061181e565b8060405162461bcd60e51b81526004016104179190612474565b505b60405162461bcd60e51b815260206004820152603460248201527f455243313135353a207472616e7366657220746f206e6f6e204552433131353560448201527f526563656976657220696d706c656d656e7465720000000000000000000000006064820152608401610417565b6001600160e01b0319811663bc197c8160e01b146118fd5760405162461bcd60e51b815260206004820152602860248201527f455243313135353a204552433131353552656365697665722072656a656374656044820152676420746f6b656e7360c01b6064820152608401610417565b50505050505050565b604080516001808252818301909252606091600091906020808301908036833701905050905082816000815181106119405761194061223b565b602090810291909101015292915050565b6001600160a01b0384166119b55760405162461bcd60e51b815260206004820152602560248201527f455243313135353a207472616e7366657220746f20746865207a65726f206164604482015264647265737360d81b6064820152608401610417565b6119d38686866119c487611906565b6119cd87611906565b866114bc565b60008381527ff9ecf3cb86ac553c70621e3e662b4036163ca34fffb329385fafa0e130cfc1a7602081815260408084206001600160a01b038a1685529091529091205483811015611a8c5760405162461bcd60e51b815260206004820152602b60248201527f455243313135353a20696e73756666696369656e742062616c616e636573206660448201527f6f72207472616e736665720000000000000000000000000000000000000000006064820152608401610417565b6000858152602083815260408083206001600160a01b038b81168552925280832093879003909355871681529081208054859290611acb9084906122e2565b909155505060408051858152602081018590526001600160a01b038088169289821692918b16917fc3d58168c5ae7397731d063d5bbf3d657854427343f4c083240f7aacaa2d0f629101611747565b6001600160a01b0384163b1561042e5760405163f23a6e6160e01b81526001600160a01b0385169063f23a6e6190611b5e9089908990889088908890600401612487565b6020604051808303816000875af1925050508015611b99575060408051601f3d908101601f19168201909252611b96918101906123a5565b60015b611ba5576117e36123cf565b6001600160e01b0319811663f23a6e6160e01b146118fd5760405162461bcd60e51b815260206004820152602860248201527f455243313135353a204552433131353552656365697665722072656a656374656044820152676420746f6b656e7360c01b6064820152608401610417565b7fdb1d5e345c4903e9a32b6674ecc8b1deaddbbb2551474fb34c9d34becbe7f420546000906001600160a01b03163303611c57575060131936013560601c90565b503390565b90565b80356001600160a01b0381168114611c7657600080fd5b919050565b60008060408385031215611c8e57600080fd5b611c9783611c5f565b946020939093013593505050565b634e487b7160e01b600052604160045260246000fd5b601f8201601f1916810167ffffffffffffffff81118282101715611ce157611ce1611ca5565b6040525050565b600067ffffffffffffffff821115611d0257611d02611ca5565b5060051b60200190565b600082601f830112611d1d57600080fd5b81356020611d2a82611ce8565b604051611d378282611cbb565b83815260059390931b8501820192828101915086841115611d5757600080fd5b8286015b84811015611d725780358352918301918301611d5b565b509695505050505050565b600080600060608486031215611d9257600080fd5b611d9b84611c5f565b9250602084013567ffffffffffffffff80821115611db857600080fd5b611dc487838801611d0c565b93506040860135915080821115611dda57600080fd5b50611de786828701611d0c565b9150509250925092565b600082601f830112611e0257600080fd5b813567ffffffffffffffff811115611e1c57611e1c611ca5565b604051611e33601f8301601f191660200182611cbb565b818152846020838601011115611e4857600080fd5b816020850160208301376000918101602001919091529392505050565b600080600080600060a08688031215611e7d57600080fd5b611e8686611c5f565b9450611e9460208701611c5f565b9350604086013567ffffffffffffffff80821115611eb157600080fd5b611ebd89838a01611d0c565b94506060880135915080821115611ed357600080fd5b611edf89838a01611d0c565b93506080880135915080821115611ef557600080fd5b50611f0288828901611df1565b9150509295509295909350565b600080600060608486031215611f2457600080fd5b611f2d84611c5f565b95602085013595506040909401359392505050565b60008060408385031215611f5557600080fd5b823567ffffffffffffffff80821115611f6d57600080fd5b818501915085601f830112611f8157600080fd5b81356020611f8e82611ce8565b604051611f9b8282611cbb565b83815260059390931b8501820192828101915089841115611fbb57600080fd5b948201945b83861015611fe057611fd186611c5f565b82529482019490820190611fc0565b96505086013592505080821115611ff657600080fd5b5061200385828601611d0c565b9150509250929050565b600081518084526020808501945080840160005b8381101561203d57815187529582019590820190600101612021565b509495945050505050565b602081526000610316602083018461200d565b60006020828403121561206d57600080fd5b5035919050565b801515811461208257600080fd5b50565b6000806040838503121561209857600080fd5b6120a183611c5f565b915060208301356120b181612074565b809150509250929050565b6000806000604084860312156120d157600080fd5b6120da84611c5f565b9250602084013567ffffffffffffffff808211156120f757600080fd5b818601915086601f83011261210b57600080fd5b81358181111561211a57600080fd5b8760208260051b850101111561212f57600080fd5b6020830194508093505050509250925092565b6000806000806080858703121561215857600080fd5b61216185611c5f565b93506020850135925060408501359150606085013567ffffffffffffffff81111561218b57600080fd5b61219787828801611df1565b91505092959194509250565b600080604083850312156121b657600080fd5b6121bf83611c5f565b91506121cd60208401611c5f565b90509250929050565b600080600080600060a086880312156121ee57600080fd5b6121f786611c5f565b945061220560208701611c5f565b93506040860135925060608601359150608086013567ffffffffffffffff81111561222f57600080fd5b611f0288828901611df1565b634e487b7160e01b600052603260045260246000fd5b60006020828403121561226357600080fd5b815161031681612074565b634e487b7160e01b600052601160045260246000fd5b6000600182016122965761229661226e565b5060010190565b6040815260006122b0604083018561200d565b82810360208401526122c2818561200d565b95945050505050565b6000828210156122dd576122dd61226e565b500390565b600082198211156122f5576122f561226e565b500190565b6000815180845260005b8181101561232057602081850181015186830182015201612304565b81811115612332576000602083870101525b50601f01601f19169290920160200192915050565b60006001600160a01b03808816835280871660208401525060a0604083015261237360a083018661200d565b8281036060840152612385818661200d565b9050828103608084015261239981856122fa565b98975050505050505050565b6000602082840312156123b757600080fd5b81516001600160e01b03198116811461031657600080fd5b600060033d1115611c5c5760046000803e5060005160e01c90565b600060443d10156123f85790565b6040516003193d81016004833e81513d67ffffffffffffffff816024840111818411171561242857505050505090565b82850191508151818111156124405750505050505090565b843d870101602082850101111561245a5750505050505090565b61246960208286010187611cbb565b509095945050505050565b60208152600061031660208301846122fa565b60006001600160a01b03808816835280871660208401525084604083015283606083015260a060808301526124bf60a08301846122fa565b97965050505050505056fea26469706673582212204f558072f72570576e76c2889682da172f81f0acbe7dab66757fe3bf2897a14064736f6c634300080f0033",
  "devdoc": {
    "kind": "dev",
    "methods": {
      "balanceOf(address,uint256)": {
        "params": {
          "account": "address to query",
          "id": "token to query"
        },
        "returns": {
          "_0": "token balance"
        }
      },
      "balanceOfBatch(address[],uint256[])": {
        "params": {
          "accounts": "addresss to query",
          "ids": "tokens to query"
        },
        "returns": {
          "_0": "token balances"
        }
      },
      "exists(uint256)": {
        "details": "Indicates whether any token exist with a given id, or not."
      },
      "isApprovedForAll(address,address)": {
        "params": {
          "account": "address to query for approval granted",
          "operator": "address to query for approval received"
        },
        "returns": {
          "_0": "whether operator is approved to spend tokens held by account"
        }
      },
      "lockByFacet(address,uint256,uint256)": {
        "details": "Locks `amount` of tokens of `account`, of token type `id`. Requirements: - the caller must be diamond itself (other facets)."
      },
      "maxSupply(uint256)": {
        "details": "Maximum amount of tokens possible to exist for a given id."
      },
      "mintByFacet(address,uint256,uint256,bytes)": {
        "details": "Creates `amount` new tokens for `to`, of token type `id`. See {ERC1155-_mint}. Requirements: - the caller must be diamond itself (other facets)."
      },
      "safeBatchTransferFrom(address,address,uint256[],uint256[],bytes)": {
        "params": {
          "amounts": "list of quantities of tokens to transfer",
          "data": "data payload",
          "from": "sender of tokens",
          "ids": "list of token IDs",
          "to": "receiver of tokens"
        }
      },
      "safeTransferFrom(address,address,uint256,uint256,bytes)": {
        "params": {
          "amount": "quantity of tokens to transfer",
          "data": "data payload",
          "from": "sender of tokens",
          "id": "token ID",
          "to": "receiver of tokens"
        }
      },
      "setApprovalForAll(address,bool)": {
        "params": {
          "operator": "address whose approval status to update",
          "status": "whether operator should be considered approved"
        }
      },
      "totalSupply(uint256)": {
        "details": "Total amount of tokens in with a given id."
      },
      "unlockByFacet(address,uint256,uint256)": {
        "details": "Un-locks `amount` of tokens of `account`, of token type `id`. Requirements: - the caller must be diamond itself (other facets)."
      }
    },
    "version": 1
  },
  "userdoc": {
    "errors": {
      "SenderIsNotSelf()": [
        {
          "notice": "The caller must be the current contract itself."
        }
      ]
    },
    "kind": "user",
    "methods": {
      "balanceOf(address,uint256)": {
        "notice": "query the balance of given token held by given address"
      },
      "balanceOfBatch(address[],uint256[])": {
        "notice": "query the balances of given tokens held by given addresses"
      },
      "isApprovedForAll(address,address)": {
        "notice": "query approval status of given operator with respect to given address"
      },
      "safeBatchTransferFrom(address,address,uint256[],uint256[],bytes)": {
        "notice": "transfer batch of tokens between given addresses, checking for ERC1155Receiver implementation if applicable"
      },
      "safeTransferFrom(address,address,uint256,uint256,bytes)": {
        "notice": "transfer tokens between given addresses, checking for ERC1155Receiver implementation if applicable"
      },
      "setApprovalForAll(address,bool)": {
        "notice": "grant approval to or revoke approval from given operator to spend held tokens"
      }
    },
    "version": 1
  },
  "storageLayout": {
    "storage": [],
    "types": null
  }
}