{
  "address": "0xc456cdA6dE7e99B321f4dAF260319888a3D42cBe",
  "abi": [
    {
      "anonymous": false,
      "inputs": [
        {
          "indexed": false,
          "internalType": "string",
          "name": "value",
          "type": "string"
        },
        {
          "indexed": true,
          "internalType": "uint256",
          "name": "tokenId",
          "type": "uint256"
        }
      ],
      "name": "URI",
      "type": "event"
    },
    {
      "inputs": [],
      "name": "baseURI",
      "outputs": [
        {
          "internalType": "string",
          "name": "",
          "type": "string"
        }
      ],
      "stateMutability": "view",
      "type": "function"
    },
    {
      "inputs": [],
      "name": "baseURILocked",
      "outputs": [
        {
          "internalType": "bool",
          "name": "",
          "type": "bool"
        }
      ],
      "stateMutability": "view",
      "type": "function"
    },
    {
      "inputs": [],
      "name": "fallbackURI",
      "outputs": [
        {
          "internalType": "string",
          "name": "",
          "type": "string"
        }
      ],
      "stateMutability": "view",
      "type": "function"
    },
    {
      "inputs": [],
      "name": "fallbackURILocked",
      "outputs": [
        {
          "internalType": "bool",
          "name": "",
          "type": "bool"
        }
      ],
      "stateMutability": "view",
      "type": "function"
    },
    {
      "inputs": [],
      "name": "lastLockedTokenId",
      "outputs": [
        {
          "internalType": "uint256",
          "name": "",
          "type": "uint256"
        }
      ],
      "stateMutability": "view",
      "type": "function"
    },
    {
      "inputs": [
        {
          "internalType": "uint256",
          "name": "tokenId",
          "type": "uint256"
        }
      ],
      "name": "uri",
      "outputs": [
        {
          "internalType": "string",
          "name": "",
          "type": "string"
        }
      ],
      "stateMutability": "view",
      "type": "function"
    }
  ],
  "transactionHash": "0x4a3965f1b0eb1e4c643ebb2c60b3ede81ff3faf17055d05e36b4fac06208156a",
  "args": [],
  "numDeployments": 3,
  "solcInputHash": "c7a657095279b7f55fee4ffa475f3823",
  "bytecode": "0x608060405234801561001057600080fd5b506107f2806100206000396000f3fe608060405234801561001057600080fd5b50600436106100725760003560e01c80635d148e5c116100505780635d148e5c146100df5780636b95c504146101095780636c0360eb1461013957600080fd5b8063067f0848146100775780630c7d9752146100b75780630e89341c146100cc575b600080fd5b7f7df186493127afbe76aac5b5b4ed702314d47975d114f419dbfeec69750bceed54610100900460ff165b60405190151581526020015b60405180910390f35b6100bf610141565b6040516100ae9190610564565b6100bf6100da366004610597565b6101f5565b7f7df186493127afbe76aac5b5b4ed702314d47975d114f419dbfeec69750bceed5460ff166100a2565b7f7df186493127afbe76aac5b5b4ed702314d47975d114f419dbfeec69750bceee546040519081526020016100ae565b6100bf6103c9565b60607f7df186493127afbe76aac5b5b4ed702314d47975d114f419dbfeec69750bceeb6001018054610172906105b0565b80601f016020809104026020016040519081016040528092919081815260200182805461019e906105b0565b80156101eb5780601f106101c0576101008083540402835291602001916101eb565b820191906000526020600020905b8154815290600101906020018083116101ce57829003601f168201915b5050505050905090565b60008181527f7df186493127afbe76aac5b5b4ed702314d47975d114f419dbfeec69750bceef6020526040812080546060927f7df186493127afbe76aac5b5b4ed702314d47975d114f419dbfeec69750bceeb929091610254906105b0565b80601f0160208091040260200160405190810160405280929190818152602001828054610280906105b0565b80156102cd5780601f106102a2576101008083540402835291602001916102cd565b820191906000526020600020905b8154815290600101906020018083116102b057829003601f168201915b5050505050905060008260000180546102e5906105b0565b80601f0160208091040260200160405190810160405280929190818152602001828054610311906105b0565b801561035e5780601f106103335761010080835404028352916020019161035e565b820191906000526020600020905b81548152906001019060200180831161034157829003601f168201915b50505050509050805160000361037657509392505050565b8151156103a9578082604051602001610390929190610606565b6040516020818303038152906040529350505050919050565b80836001016103b7876103f7565b60405160200161039093929190610635565b60607f7df186493127afbe76aac5b5b4ed702314d47975d114f419dbfeec69750bceeb8054610172906105b0565b60608160000361043a57505060408051808201909152600181527f3000000000000000000000000000000000000000000000000000000000000000602082015290565b8160005b8115610464578061044e8161070a565b915061045d9050600a83610739565b915061043e565b60008167ffffffffffffffff81111561047f5761047f61074d565b6040519080825280601f01601f1916602001820160405280156104a9576020820181803683370190505b5090505b841561052c576104be600183610763565b91506104cb600a8661077a565b6104d690603061078e565b60f81b8183815181106104eb576104eb6107a6565b60200101907effffffffffffffffffffffffffffffffffffffffffffffffffffffffffffff1916908160001a905350610525600a86610739565b94506104ad565b949350505050565b60005b8381101561054f578181015183820152602001610537565b8381111561055e576000848401525b50505050565b6020815260008251806020840152610583816040850160208701610534565b601f01601f19169190910160400192915050565b6000602082840312156105a957600080fd5b5035919050565b600181811c908216806105c457607f821691505b6020821081036105e457634e487b7160e01b600052602260045260246000fd5b50919050565b600081516105fc818560208601610534565b9290920192915050565b60008351610618818460208801610534565b83519083019061062c818360208801610534565b01949350505050565b6000845160206106488285838a01610534565b855491840191600090600181811c908083168061066657607f831692505b858310810361068357634e487b7160e01b85526022600452602485fd5b80801561069757600181146106ac576106d9565b60ff19851688528315158402880195506106d9565b60008c81526020902060005b858110156106d15781548a8201529084019088016106b8565b505083880195505b50505050506106e881876105ea565b98975050505050505050565b634e487b7160e01b600052601160045260246000fd5b60006001820161071c5761071c6106f4565b5060010190565b634e487b7160e01b600052601260045260246000fd5b60008261074857610748610723565b500490565b634e487b7160e01b600052604160045260246000fd5b600082821015610775576107756106f4565b500390565b60008261078957610789610723565b500690565b600082198211156107a1576107a16106f4565b500190565b634e487b7160e01b600052603260045260246000fdfea26469706673582212209ee1bb0c04bf83afc2f197bc6deecb16a4cbdf735e3cc1a87487526cfc72438f64736f6c634300080f0033",
  "devdoc": {
    "custom:category": "NFTs",
    "custom:peer-dependencies": "0xd9b67a26",
    "custom:provides-interfaces": "0x0e89341c 0x5080b4a9",
    "custom:type": "eip-2535-facet",
    "details": "See https://eips.ethereum.org/EIPS/eip-1155#metadata-extensions",
    "kind": "dev",
    "methods": {},
    "title": "ERC1155 - Metadata",
    "version": 1
  },
  "userdoc": {
    "kind": "user",
    "methods": {
      "uri(uint256)": {
        "notice": "inheritdoc IERC1155Metadata"
      }
    },
    "notice": "Provides metadata for ERC1155 tokens according to standard. This extension supports base URI, per-token URI, and a fallback URI. You can also freeze URIs until a certain token ID.",
    "version": 1
  },
  "storageLayout": {
    "storage": [],
    "types": null
  }
}