{
  "address": "0xD781b8126F857A2073D5d0DD3D2903253DAA46bD",
  "abi": [
    {
      "inputs": [],
      "name": "SenderIsNotSelf",
      "type": "error"
    },
    {
      "anonymous": false,
      "inputs": [
        {
          "indexed": true,
          "internalType": "address",
          "name": "account",
          "type": "address"
        },
        {
          "indexed": true,
          "internalType": "address",
          "name": "operator",
          "type": "address"
        },
        {
          "indexed": false,
          "internalType": "bool",
          "name": "approved",
          "type": "bool"
        }
      ],
      "name": "ApprovalForAll",
      "type": "event"
    },
    {
      "anonymous": false,
      "inputs": [
        {
          "indexed": true,
          "internalType": "address",
          "name": "operator",
          "type": "address"
        },
        {
          "indexed": true,
          "internalType": "address",
          "name": "from",
          "type": "address"
        },
        {
          "indexed": true,
          "internalType": "address",
          "name": "to",
          "type": "address"
        },
        {
          "indexed": false,
          "internalType": "uint256[]",
          "name": "ids",
          "type": "uint256[]"
        },
        {
          "indexed": false,
          "internalType": "uint256[]",
          "name": "values",
          "type": "uint256[]"
        }
      ],
      "name": "TransferBatch",
      "type": "event"
    },
    {
      "anonymous": false,
      "inputs": [
        {
          "indexed": true,
          "internalType": "address",
          "name": "operator",
          "type": "address"
        },
        {
          "indexed": true,
          "internalType": "address",
          "name": "from",
          "type": "address"
        },
        {
          "indexed": true,
          "internalType": "address",
          "name": "to",
          "type": "address"
        },
        {
          "indexed": false,
          "internalType": "uint256",
          "name": "id",
          "type": "uint256"
        },
        {
          "indexed": false,
          "internalType": "uint256",
          "name": "value",
          "type": "uint256"
        }
      ],
      "name": "TransferSingle",
      "type": "event"
    },
    {
      "inputs": [
        {
          "internalType": "address",
          "name": "account",
          "type": "address"
        },
        {
          "internalType": "uint256",
          "name": "id",
          "type": "uint256"
        }
      ],
      "name": "balanceOf",
      "outputs": [
        {
          "internalType": "uint256",
          "name": "",
          "type": "uint256"
        }
      ],
      "stateMutability": "view",
      "type": "function"
    },
    {
      "inputs": [
        {
          "internalType": "address[]",
          "name": "accounts",
          "type": "address[]"
        },
        {
          "internalType": "uint256[]",
          "name": "ids",
          "type": "uint256[]"
        }
      ],
      "name": "balanceOfBatch",
      "outputs": [
        {
          "internalType": "uint256[]",
          "name": "",
          "type": "uint256[]"
        }
      ],
      "stateMutability": "view",
      "type": "function"
    },
    {
      "inputs": [
        {
          "internalType": "address",
          "name": "account",
          "type": "address"
        },
        {
          "internalType": "uint256",
          "name": "id",
          "type": "uint256"
        },
        {
          "internalType": "uint256",
          "name": "value",
          "type": "uint256"
        }
      ],
      "name": "burn",
      "outputs": [],
      "stateMutability": "nonpayable",
      "type": "function"
    },
    {
      "inputs": [
        {
          "internalType": "address",
          "name": "account",
          "type": "address"
        },
        {
          "internalType": "uint256[]",
          "name": "ids",
          "type": "uint256[]"
        },
        {
          "internalType": "uint256[]",
          "name": "values",
          "type": "uint256[]"
        }
      ],
      "name": "burnBatch",
      "outputs": [],
      "stateMutability": "nonpayable",
      "type": "function"
    },
    {
      "inputs": [
        {
          "internalType": "address",
          "name": "account",
          "type": "address"
        },
        {
          "internalType": "uint256[]",
          "name": "ids",
          "type": "uint256[]"
        },
        {
          "internalType": "uint256[]",
          "name": "values",
          "type": "uint256[]"
        }
      ],
      "name": "burnBatchByFacet",
      "outputs": [],
      "stateMutability": "nonpayable",
      "type": "function"
    },
    {
      "inputs": [
        {
          "internalType": "address",
          "name": "account",
          "type": "address"
        },
        {
          "internalType": "uint256",
          "name": "id",
          "type": "uint256"
        },
        {
          "internalType": "uint256",
          "name": "amount",
          "type": "uint256"
        }
      ],
      "name": "burnByFacet",
      "outputs": [],
      "stateMutability": "nonpayable",
      "type": "function"
    },
    {
      "inputs": [],
      "name": "burnablePausedUntil",
      "outputs": [
        {
          "internalType": "uint256",
          "name": "",
          "type": "uint256"
        }
      ],
      "stateMutability": "view",
      "type": "function"
    },
    {
      "inputs": [
        {
          "internalType": "uint256",
          "name": "id",
          "type": "uint256"
        }
      ],
      "name": "exists",
      "outputs": [
        {
          "internalType": "bool",
          "name": "",
          "type": "bool"
        }
      ],
      "stateMutability": "view",
      "type": "function"
    },
    {
      "inputs": [
        {
          "internalType": "address",
          "name": "account",
          "type": "address"
        },
        {
          "internalType": "address",
          "name": "operator",
          "type": "address"
        }
      ],
      "name": "isApprovedForAll",
      "outputs": [
        {
          "internalType": "bool",
          "name": "",
          "type": "bool"
        }
      ],
      "stateMutability": "view",
      "type": "function"
    },
    {
      "inputs": [
        {
          "internalType": "address",
          "name": "account",
          "type": "address"
        },
        {
          "internalType": "uint256",
          "name": "id",
          "type": "uint256"
        },
        {
          "internalType": "uint256",
          "name": "amount",
          "type": "uint256"
        }
      ],
      "name": "lockByFacet",
      "outputs": [],
      "stateMutability": "nonpayable",
      "type": "function"
    },
    {
      "inputs": [
        {
          "internalType": "address",
          "name": "account",
          "type": "address"
        },
        {
          "internalType": "uint256[]",
          "name": "ticketTokenIds",
          "type": "uint256[]"
        }
      ],
      "name": "locked",
      "outputs": [
        {
          "internalType": "uint256[]",
          "name": "",
          "type": "uint256[]"
        }
      ],
      "stateMutability": "view",
      "type": "function"
    },
    {
      "inputs": [
        {
          "internalType": "address",
          "name": "account",
          "type": "address"
        },
        {
          "internalType": "uint256",
          "name": "tokenId",
          "type": "uint256"
        }
      ],
      "name": "locked",
      "outputs": [
        {
          "internalType": "uint256",
          "name": "",
          "type": "uint256"
        }
      ],
      "stateMutability": "view",
      "type": "function"
    },
    {
      "inputs": [
        {
          "internalType": "uint256",
          "name": "id",
          "type": "uint256"
        }
      ],
      "name": "maxSupply",
      "outputs": [
        {
          "internalType": "uint256",
          "name": "",
          "type": "uint256"
        }
      ],
      "stateMutability": "view",
      "type": "function"
    },
    {
      "inputs": [
        {
          "internalType": "address",
          "name": "to",
          "type": "address"
        },
        {
          "internalType": "uint256",
          "name": "id",
          "type": "uint256"
        },
        {
          "internalType": "uint256",
          "name": "amount",
          "type": "uint256"
        },
        {
          "internalType": "bytes",
          "name": "data",
          "type": "bytes"
        }
      ],
      "name": "mintByFacet",
      "outputs": [],
      "stateMutability": "nonpayable",
      "type": "function"
    },
    {
      "inputs": [
        {
          "internalType": "address",
          "name": "from",
          "type": "address"
        },
        {
          "internalType": "address",
          "name": "to",
          "type": "address"
        },
        {
          "internalType": "uint256[]",
          "name": "ids",
          "type": "uint256[]"
        },
        {
          "internalType": "uint256[]",
          "name": "amounts",
          "type": "uint256[]"
        },
        {
          "internalType": "bytes",
          "name": "data",
          "type": "bytes"
        }
      ],
      "name": "safeBatchTransferFrom",
      "outputs": [],
      "stateMutability": "nonpayable",
      "type": "function"
    },
    {
      "inputs": [
        {
          "internalType": "address",
          "name": "from",
          "type": "address"
        },
        {
          "internalType": "address",
          "name": "to",
          "type": "address"
        },
        {
          "internalType": "uint256",
          "name": "id",
          "type": "uint256"
        },
        {
          "internalType": "uint256",
          "name": "amount",
          "type": "uint256"
        },
        {
          "internalType": "bytes",
          "name": "data",
          "type": "bytes"
        }
      ],
      "name": "safeTransferFrom",
      "outputs": [],
      "stateMutability": "nonpayable",
      "type": "function"
    },
    {
      "inputs": [
        {
          "internalType": "address",
          "name": "operator",
          "type": "address"
        },
        {
          "internalType": "bool",
          "name": "status",
          "type": "bool"
        }
      ],
      "name": "setApprovalForAll",
      "outputs": [],
      "stateMutability": "nonpayable",
      "type": "function"
    },
    {
      "inputs": [
        {
          "internalType": "uint256",
          "name": "id",
          "type": "uint256"
        }
      ],
      "name": "totalSupply",
      "outputs": [
        {
          "internalType": "uint256",
          "name": "",
          "type": "uint256"
        }
      ],
      "stateMutability": "view",
      "type": "function"
    },
    {
      "inputs": [
        {
          "internalType": "address",
          "name": "account",
          "type": "address"
        },
        {
          "internalType": "uint256",
          "name": "id",
          "type": "uint256"
        },
        {
          "internalType": "uint256",
          "name": "amount",
          "type": "uint256"
        }
      ],
      "name": "unlockByFacet",
      "outputs": [],
      "stateMutability": "nonpayable",
      "type": "function"
    }
  ],
  "transactionHash": "0x985157911d7fa3d0c0a0de315aa693d5833e9e75e52ec557a8c100b4e39b2114",
  "args": [],
  "numDeployments": 2,
  "solcInputHash": "c7a657095279b7f55fee4ffa475f3823",
  "bytecode": "0x608060405234801561001057600080fd5b50612542806100206000396000f3fe608060405234801561001057600080fd5b50600436106101505760003560e01c8063869f7594116100cd578063bd85b03911610081578063e985e9c511610066578063e985e9c5146102cb578063f242432a14610326578063f5298aca1461033957600080fd5b8063bd85b039146102a5578063bf7bab73146102b857600080fd5b8063a22cb465116100b2578063a22cb4651461026c578063a91a988a1461027f578063b164884b1461029257600080fd5b8063869f759414610246578063983da1561461025957600080fd5b806348f2f536116101245780634f558e79116101095780634f558e79146101fd5780636708a990146102205780636b20c4541461023357600080fd5b806348f2f536146101ca5780634e1273f4146101dd57600080fd5b8062fdd58e146101555780630ad2bbac1461017b57806314e35aa4146101905780632eb2c2d6146101b7575b600080fd5b610168610163366004611cbd565b61034c565b6040519081526020015b60405180910390f35b61018e610189366004611dbf565b61035f565b005b7f20cb9ad5a22f74f90c7fecbece6b6ab3beb2a63812efb8693c5ff39f2b73ee0f54610168565b61018e6101c5366004611ea7565b61038f565b61018e6101d8366004611f51565b610478565b6101f06101eb366004611f84565b6104a3565b604051610172919061208a565b61021061020b36600461209d565b6106ca565b6040519015158152602001610172565b61018e61022e366004611f51565b610701565b61018e610241366004611dbf565b61072c565b61016861025436600461209d565b61082a565b61018e610267366004611f51565b61085d565b61018e61027a3660046120c7565b610888565b6101f061028d3660046120fe565b6109a8565b61018e6102a0366004612184565b610a8f565b6101686102b336600461209d565b610ac1565b6101686102c6366004611cbd565b610af4565b6102106102d93660046121e5565b6001600160a01b0391821660009081527ff9ecf3cb86ac553c70621e3e662b4036163ca34fffb329385fafa0e130cfc1a86020908152604080832093909416825291909152205460ff1690565b61018e610334366004612218565b610b3c565b61018e610347366004611f51565b610c18565b60006103588383610d16565b9392505050565b30331461037f576040516328be0e2160e21b815260040160405180910390fd5b61038a838383610ddb565b505050565b6000610399611059565b9050806001600160a01b0316866001600160a01b031614806103ff57506001600160a01b0380871660009081527ff9ecf3cb86ac553c70621e3e662b4036163ca34fffb329385fafa0e130cfc1a8602090815260408083209385168352929052205460ff165b6104625760405162461bcd60e51b815260206004820152602960248201527f455243313135353a2063616c6c6572206973206e6f74206f776e6572206e6f7260448201526808185c1c1c9bdd995960ba1b60648201526084015b60405180910390fd5b610470818787878787611068565b505050505050565b303314610498576040516328be0e2160e21b815260040160405180910390fd5b61038a838383611084565b6060815183511461051c5760405162461bcd60e51b815260206004820152602960248201527f455243313135353a206163636f756e747320616e6420696473206c656e67746860448201527f206d69736d6174636800000000000000000000000000000000000000000000006064820152608401610459565b82517ff9ecf3cb86ac553c70621e3e662b4036163ca34fffb329385fafa0e130cfc1a79060009067ffffffffffffffff81111561055b5761055b611ce7565b604051908082528060200260200182016040528015610584578160200160208202803683370190505b50905060005b85518110156106c15760006001600160a01b03168682815181106105b0576105b061227d565b60200260200101516001600160a01b0316036106345760405162461bcd60e51b815260206004820152603160248201527f455243313135353a2062617463682062616c616e636520717565727920666f7260448201527f20746865207a65726f20616464726573730000000000000000000000000000006064820152608401610459565b8260008683815181106106495761064961227d565b6020026020010151815260200190815260200160002060008783815181106106735761067361227d565b60200260200101516001600160a01b03166001600160a01b03168152602001908152602001600020548282815181106106ae576106ae61227d565b602090810291909101015260010161058a565b50949350505050565b60008181527f7056dcda885936c7a9d7c6385902b4ab5fb09024caea98652b7189a5f7a28ea5602052604081205415155b92915050565b303314610721576040516328be0e2160e21b815260040160405180910390fd5b61038a838383611218565b610734611059565b6001600160a01b0316836001600160a01b031614806107cc57503063e985e9c58461075d611059565b6040516001600160e01b031960e085901b1681526001600160a01b03928316600482015291166024820152604401602060405180830381865afa1580156107a8573d6000803e3d6000fd5b505050506040513d601f19601f820116820180604052508101906107cc9190612293565b61037f5760405162461bcd60e51b815260206004820152602960248201527f455243313135353a2063616c6c6572206973206e6f74206f776e6572206e6f7260448201526808185c1c1c9bdd995960ba1b6064820152608401610459565b60008181527f7056dcda885936c7a9d7c6385902b4ab5fb09024caea98652b7189a5f7a28ea660205260408120546106fb565b30331461087d576040516328be0e2160e21b815260040160405180910390fd5b61038a8383836112d5565b6000610892611059565b9050826001600160a01b0316816001600160a01b03160361091b5760405162461bcd60e51b815260206004820152602960248201527f455243313135353a2073657474696e6720617070726f76616c2073746174757360448201527f20666f722073656c6600000000000000000000000000000000000000000000006064820152608401610459565b6001600160a01b0381811660008181527ff9ecf3cb86ac553c70621e3e662b4036163ca34fffb329385fafa0e130cfc1a86020908152604080832094881680845294825291829020805460ff1916871515908117909155825190815291517f17307eab39ab6107e8899845ad3d59bd9653f200f220920489ca2b5937696c319281900390910190a3505050565b606060008267ffffffffffffffff8111156109c5576109c5611ce7565b6040519080825280602002602001820160405280156109ee578160200160208202803683370190505b50905060005b838110156106c157610a6086868684818110610a1257610a1261227d565b905060200201356001600160a01b039190911660009081527f349768cb3869818ef8452552d8520ac7355b35c10a0ff9320e2975b28752782060209081526040808320938352929052205490565b828281518110610a7257610a7261227d565b602090810291909101015280610a87816122c6565b9150506109f4565b303314610aaf576040516328be0e2160e21b815260040160405180910390fd5b610abb8484848461139c565b50505050565b60008181527f7056dcda885936c7a9d7c6385902b4ab5fb09024caea98652b7189a5f7a28ea560205260408120546106fb565b6001600160a01b03821660009081527f349768cb3869818ef8452552d8520ac7355b35c10a0ff9320e2975b28752782060209081526040808320848452909152812054610358565b6000610b46611059565b9050806001600160a01b0316866001600160a01b03161480610bac57506001600160a01b0380871660009081527ff9ecf3cb86ac553c70621e3e662b4036163ca34fffb329385fafa0e130cfc1a8602090815260408083209385168352929052205460ff165b610c0a5760405162461bcd60e51b815260206004820152602960248201527f455243313135353a2063616c6c6572206973206e6f74206f776e6572206e6f7260448201526808185c1c1c9bdd995960ba1b6064820152608401610459565b6104708187878787876114e2565b610c20611059565b6001600160a01b0316836001600160a01b03161480610cb857503063e985e9c584610c49611059565b6040516001600160e01b031960e085901b1681526001600160a01b03928316600482015291166024820152604401602060405180830381865afa158015610c94573d6000803e3d6000fd5b505050506040513d601f19601f82011682018060405250810190610cb89190612293565b6104985760405162461bcd60e51b815260206004820152602960248201527f455243313135353a2063616c6c6572206973206e6f74206f776e6572206e6f7260448201526808185c1c1c9bdd995960ba1b6064820152608401610459565b60006001600160a01b038316610d945760405162461bcd60e51b815260206004820152602b60248201527f455243313135353a2062616c616e636520717565727920666f7220746865207a60448201527f65726f20616464726573730000000000000000000000000000000000000000006064820152608401610459565b7ff9ecf3cb86ac553c70621e3e662b4036163ca34fffb329385fafa0e130cfc1a76000928352602090815260408084206001600160a01b0395909516845293905250205490565b6001600160a01b038316610e3d5760405162461bcd60e51b815260206004820152602360248201527f455243313135353a206275726e2066726f6d20746865207a65726f206164647260448201526265737360e81b6064820152608401610459565b8051825114610e9f5760405162461bcd60e51b815260206004820152602860248201527f455243313135353a2069647320616e6420616d6f756e7473206c656e677468206044820152670dad2e6dac2e8c6d60c31b6064820152608401610459565b6000610ea9611059565b9050610ec9818560008686604051806020016040528060008152506114fe565b7ff9ecf3cb86ac553c70621e3e662b4036163ca34fffb329385fafa0e130cfc1a760005b8451811015610ff9576000858281518110610f0a57610f0a61227d565b60200260200101519050848281518110610f2657610f2661227d565b602090810291909101810151600083815285835260408082206001600160a01b038c16835290935291909120541015610fad5760405162461bcd60e51b8152602060048201526024808201527f455243313135353a206275726e20616d6f756e7420657863656564732062616c604482015263616e636560e01b6064820152608401610459565b848281518110610fbf57610fbf61227d565b602090810291909101810151600092835284825260408084206001600160a01b038b16855290925291208054919091039055600101610eed565b5060006001600160a01b0316856001600160a01b0316836001600160a01b03167f4a39dc06d4c0dbc64b70af90fd698a233a518aa5d07e595d983b8c0526c8f7fb878760405161104a9291906122df565b60405180910390a45050505050565b6000611063611503565b905090565b61107686868686868661150d565b61047086868686868661179a565b6001600160a01b0383166110e65760405162461bcd60e51b815260206004820152602360248201527f455243313135353a206275726e2066726f6d20746865207a65726f206164647260448201526265737360e81b6064820152608401610459565b60006110f0611059565b90506111208185600061110287611948565b61110b87611948565b604051806020016040528060008152506114fe565b60008381527ff9ecf3cb86ac553c70621e3e662b4036163ca34fffb329385fafa0e130cfc1a7602090815260408083206001600160a01b038816845291829052909120548311156111bf5760405162461bcd60e51b8152602060048201526024808201527f455243313135353a206275726e20616d6f756e7420657863656564732062616c604482015263616e636560e01b6064820152608401610459565b6001600160a01b0385811660008181526020848152604080832080548990039055805189815291820188905291938616917fc3d58168c5ae7397731d063d5bbf3d657854427343f4c083240f7aacaa2d0f62910161104a565b6001600160a01b03831660009081527f349768cb3869818ef8452552d8520ac7355b35c10a0ff9320e2975b2875278206020908152604080832085845291829052909120548211156112ac5760405162461bcd60e51b815260206004820152601160248201527f4e4f545f454e4f5547485f4c4f434b45440000000000000000000000000000006044820152606401610459565b600083815260208290526040812080548492906112ca90849061230d565b909155505050505050565b6001600160a01b03831660009081527f349768cb3869818ef8452552d8520ac7355b35c10a0ff9320e2975b28752782060209081526040808320858452918290529091205482906113268686610d16565b611330919061230d565b101561137e5760405162461bcd60e51b815260206004820152601260248201527f4e4f545f454e4f5547485f42414c414e434500000000000000000000000000006044820152606401610459565b600083815260208290526040812080548492906112ca908490612324565b60006113a6611059565b90506001600160a01b0385166114245760405162461bcd60e51b815260206004820152602160248201527f455243313135353a206d696e7420746f20746865207a65726f2061646472657360448201527f73000000000000000000000000000000000000000000000000000000000000006064820152608401610459565b6114438160008761143488611948565b61143d88611948565b876114fe565b60008481527ff9ecf3cb86ac553c70621e3e662b4036163ca34fffb329385fafa0e130cfc1a7602090815260408083206001600160a01b038916845290915281208054859290611494908490612324565b909155505060408051858152602081018590526001600160a01b0380881692600092918516917fc3d58168c5ae7397731d063d5bbf3d657854427343f4c083240f7aacaa2d0f62910161104a565b6114f0868686868686611993565b610470868686868686611b5c565b610470565b6000611063611c58565b6001600160a01b0384166115715760405162461bcd60e51b815260206004820152602560248201527f455243313135353a207472616e7366657220746f20746865207a65726f206164604482015264647265737360d81b6064820152608401610459565b81518351146115d35760405162461bcd60e51b815260206004820152602860248201527f455243313135353a2069647320616e6420616d6f756e7473206c656e677468206044820152670dad2e6dac2e8c6d60c31b6064820152608401610459565b6115e18686868686866114fe565b7ff9ecf3cb86ac553c70621e3e662b4036163ca34fffb329385fafa0e130cfc1a760005b84518110156117395760008582815181106116225761162261227d565b6020026020010151905060008583815181106116405761164061227d565b602090810291909101810151600084815286835260408082206001600160a01b038e1683529093529190912054909150818110156116e65760405162461bcd60e51b815260206004820152602b60248201527f455243313135353a20696e73756666696369656e742062616c616e636573206660448201527f6f72207472616e736665720000000000000000000000000000000000000000006064820152608401610459565b6000838152602086815260408083206001600160a01b038e811685529252808320938590039093558a16815290812080546001959095019483929061172c908490612324565b9091555061160592505050565b50846001600160a01b0316866001600160a01b0316886001600160a01b03167f4a39dc06d4c0dbc64b70af90fd698a233a518aa5d07e595d983b8c0526c8f7fb87876040516117899291906122df565b60405180910390a450505050505050565b6001600160a01b0384163b156104705760405163bc197c8160e01b81526001600160a01b0385169063bc197c81906117de9089908990889088908890600401612389565b6020604051808303816000875af1925050508015611819575060408051601f3d908101601f19168201909252611816918101906123e7565b60015b6118ce57611825612411565b806308c379a00361185e575061183961242c565b806118445750611860565b8060405162461bcd60e51b815260040161045991906124b6565b505b60405162461bcd60e51b815260206004820152603460248201527f455243313135353a207472616e7366657220746f206e6f6e204552433131353560448201527f526563656976657220696d706c656d656e7465720000000000000000000000006064820152608401610459565b6001600160e01b0319811663bc197c8160e01b1461193f5760405162461bcd60e51b815260206004820152602860248201527f455243313135353a204552433131353552656365697665722072656a656374656044820152676420746f6b656e7360c01b6064820152608401610459565b50505050505050565b604080516001808252818301909252606091600091906020808301908036833701905050905082816000815181106119825761198261227d565b602090810291909101015292915050565b6001600160a01b0384166119f75760405162461bcd60e51b815260206004820152602560248201527f455243313135353a207472616e7366657220746f20746865207a65726f206164604482015264647265737360d81b6064820152608401610459565b611a15868686611a0687611948565b611a0f87611948565b866114fe565b60008381527ff9ecf3cb86ac553c70621e3e662b4036163ca34fffb329385fafa0e130cfc1a7602081815260408084206001600160a01b038a1685529091529091205483811015611ace5760405162461bcd60e51b815260206004820152602b60248201527f455243313135353a20696e73756666696369656e742062616c616e636573206660448201527f6f72207472616e736665720000000000000000000000000000000000000000006064820152608401610459565b6000858152602083815260408083206001600160a01b038b81168552925280832093879003909355871681529081208054859290611b0d908490612324565b909155505060408051858152602081018590526001600160a01b038088169289821692918b16917fc3d58168c5ae7397731d063d5bbf3d657854427343f4c083240f7aacaa2d0f629101611789565b6001600160a01b0384163b156104705760405163f23a6e6160e01b81526001600160a01b0385169063f23a6e6190611ba090899089908890889088906004016124c9565b6020604051808303816000875af1925050508015611bdb575060408051601f3d908101601f19168201909252611bd8918101906123e7565b60015b611be757611825612411565b6001600160e01b0319811663f23a6e6160e01b1461193f5760405162461bcd60e51b815260206004820152602860248201527f455243313135353a204552433131353552656365697665722072656a656374656044820152676420746f6b656e7360c01b6064820152608401610459565b7fdb1d5e345c4903e9a32b6674ecc8b1deaddbbb2551474fb34c9d34becbe7f420546000906001600160a01b03163303611c99575060131936013560601c90565b503390565b90565b80356001600160a01b0381168114611cb857600080fd5b919050565b60008060408385031215611cd057600080fd5b611cd983611ca1565b946020939093013593505050565b634e487b7160e01b600052604160045260246000fd5b601f8201601f1916810167ffffffffffffffff81118282101715611d2357611d23611ce7565b6040525050565b600067ffffffffffffffff821115611d4457611d44611ce7565b5060051b60200190565b600082601f830112611d5f57600080fd5b81356020611d6c82611d2a565b604051611d798282611cfd565b83815260059390931b8501820192828101915086841115611d9957600080fd5b8286015b84811015611db45780358352918301918301611d9d565b509695505050505050565b600080600060608486031215611dd457600080fd5b611ddd84611ca1565b9250602084013567ffffffffffffffff80821115611dfa57600080fd5b611e0687838801611d4e565b93506040860135915080821115611e1c57600080fd5b50611e2986828701611d4e565b9150509250925092565b600082601f830112611e4457600080fd5b813567ffffffffffffffff811115611e5e57611e5e611ce7565b604051611e75601f8301601f191660200182611cfd565b818152846020838601011115611e8a57600080fd5b816020850160208301376000918101602001919091529392505050565b600080600080600060a08688031215611ebf57600080fd5b611ec886611ca1565b9450611ed660208701611ca1565b9350604086013567ffffffffffffffff80821115611ef357600080fd5b611eff89838a01611d4e565b94506060880135915080821115611f1557600080fd5b611f2189838a01611d4e565b93506080880135915080821115611f3757600080fd5b50611f4488828901611e33565b9150509295509295909350565b600080600060608486031215611f6657600080fd5b611f6f84611ca1565b95602085013595506040909401359392505050565b60008060408385031215611f9757600080fd5b823567ffffffffffffffff80821115611faf57600080fd5b818501915085601f830112611fc357600080fd5b81356020611fd082611d2a565b604051611fdd8282611cfd565b83815260059390931b8501820192828101915089841115611ffd57600080fd5b948201945b838610156120225761201386611ca1565b82529482019490820190612002565b9650508601359250508082111561203857600080fd5b5061204585828601611d4e565b9150509250929050565b600081518084526020808501945080840160005b8381101561207f57815187529582019590820190600101612063565b509495945050505050565b602081526000610358602083018461204f565b6000602082840312156120af57600080fd5b5035919050565b80151581146120c457600080fd5b50565b600080604083850312156120da57600080fd5b6120e383611ca1565b915060208301356120f3816120b6565b809150509250929050565b60008060006040848603121561211357600080fd5b61211c84611ca1565b9250602084013567ffffffffffffffff8082111561213957600080fd5b818601915086601f83011261214d57600080fd5b81358181111561215c57600080fd5b8760208260051b850101111561217157600080fd5b6020830194508093505050509250925092565b6000806000806080858703121561219a57600080fd5b6121a385611ca1565b93506020850135925060408501359150606085013567ffffffffffffffff8111156121cd57600080fd5b6121d987828801611e33565b91505092959194509250565b600080604083850312156121f857600080fd5b61220183611ca1565b915061220f60208401611ca1565b90509250929050565b600080600080600060a0868803121561223057600080fd5b61223986611ca1565b945061224760208701611ca1565b93506040860135925060608601359150608086013567ffffffffffffffff81111561227157600080fd5b611f4488828901611e33565b634e487b7160e01b600052603260045260246000fd5b6000602082840312156122a557600080fd5b8151610358816120b6565b634e487b7160e01b600052601160045260246000fd5b6000600182016122d8576122d86122b0565b5060010190565b6040815260006122f2604083018561204f565b8281036020840152612304818561204f565b95945050505050565b60008282101561231f5761231f6122b0565b500390565b60008219821115612337576123376122b0565b500190565b6000815180845260005b8181101561236257602081850181015186830182015201612346565b81811115612374576000602083870101525b50601f01601f19169290920160200192915050565b60006001600160a01b03808816835280871660208401525060a060408301526123b560a083018661204f565b82810360608401526123c7818661204f565b905082810360808401526123db818561233c565b98975050505050505050565b6000602082840312156123f957600080fd5b81516001600160e01b03198116811461035857600080fd5b600060033d1115611c9e5760046000803e5060005160e01c90565b600060443d101561243a5790565b6040516003193d81016004833e81513d67ffffffffffffffff816024840111818411171561246a57505050505090565b82850191508151818111156124825750505050505090565b843d870101602082850101111561249c5750505050505090565b6124ab60208286010187611cfd565b509095945050505050565b602081526000610358602083018461233c565b60006001600160a01b03808816835280871660208401525084604083015283606083015260a0608083015261250160a083018461233c565b97965050505050505056fea26469706673582212204f5cd4da44035af8b160964c564e469d695befca0a318d79d75c007bbdb73c9864736f6c634300080f0033",
  "devdoc": {
    "kind": "dev",
    "methods": {
      "balanceOf(address,uint256)": {
        "params": {
          "account": "address to query",
          "id": "token to query"
        },
        "returns": {
          "_0": "token balance"
        }
      },
      "balanceOfBatch(address[],uint256[])": {
        "params": {
          "accounts": "addresss to query",
          "ids": "tokens to query"
        },
        "returns": {
          "_0": "token balances"
        }
      },
      "exists(uint256)": {
        "details": "Indicates whether any token exist with a given id, or not."
      },
      "isApprovedForAll(address,address)": {
        "params": {
          "account": "address to query for approval granted",
          "operator": "address to query for approval received"
        },
        "returns": {
          "_0": "whether operator is approved to spend tokens held by account"
        }
      },
      "lockByFacet(address,uint256,uint256)": {
        "details": "Locks `amount` of tokens of `account`, of token type `id`. Requirements: - the caller must be diamond itself (other facets)."
      },
      "maxSupply(uint256)": {
        "details": "Maximum amount of tokens possible to exist for a given id."
      },
      "mintByFacet(address,uint256,uint256,bytes)": {
        "details": "Creates `amount` new tokens for `to`, of token type `id`. See {ERC1155-_mint}. Requirements: - the caller must be diamond itself (other facets)."
      },
      "safeBatchTransferFrom(address,address,uint256[],uint256[],bytes)": {
        "params": {
          "amounts": "list of quantities of tokens to transfer",
          "data": "data payload",
          "from": "sender of tokens",
          "ids": "list of token IDs",
          "to": "receiver of tokens"
        }
      },
      "safeTransferFrom(address,address,uint256,uint256,bytes)": {
        "params": {
          "amount": "quantity of tokens to transfer",
          "data": "data payload",
          "from": "sender of tokens",
          "id": "token ID",
          "to": "receiver of tokens"
        }
      },
      "setApprovalForAll(address,bool)": {
        "params": {
          "operator": "address whose approval status to update",
          "status": "whether operator should be considered approved"
        }
      },
      "totalSupply(uint256)": {
        "details": "Total amount of tokens in with a given id."
      },
      "unlockByFacet(address,uint256,uint256)": {
        "details": "Un-locks `amount` of tokens of `account`, of token type `id`. Requirements: - the caller must be diamond itself (other facets)."
      }
    },
    "version": 1
  },
  "userdoc": {
    "errors": {
      "SenderIsNotSelf()": [
        {
          "notice": "The caller must be the current contract itself."
        }
      ]
    },
    "kind": "user",
    "methods": {
      "balanceOf(address,uint256)": {
        "notice": "query the balance of given token held by given address"
      },
      "balanceOfBatch(address[],uint256[])": {
        "notice": "query the balances of given tokens held by given addresses"
      },
      "isApprovedForAll(address,address)": {
        "notice": "query approval status of given operator with respect to given address"
      },
      "safeBatchTransferFrom(address,address,uint256[],uint256[],bytes)": {
        "notice": "transfer batch of tokens between given addresses, checking for ERC1155Receiver implementation if applicable"
      },
      "safeTransferFrom(address,address,uint256,uint256,bytes)": {
        "notice": "transfer tokens between given addresses, checking for ERC1155Receiver implementation if applicable"
      },
      "setApprovalForAll(address,bool)": {
        "notice": "grant approval to or revoke approval from given operator to spend held tokens"
      }
    },
    "version": 1
  },
  "storageLayout": {
    "storage": [],
    "types": null
  }
}