{
  "address": "0x6BCbc974500905Bb6EaBFd34BE3c6B05ee7F2499",
  "abi": [
    {
      "anonymous": false,
      "inputs": [
        {
          "indexed": true,
          "internalType": "address",
          "name": "previousOwner",
          "type": "address"
        },
        {
          "indexed": true,
          "internalType": "address",
          "name": "newOwner",
          "type": "address"
        }
      ],
      "name": "OwnershipTransferred",
      "type": "event"
    },
    {
      "inputs": [
        {
          "internalType": "uint256",
          "name": "tierId",
          "type": "uint256"
        },
        {
          "internalType": "address",
          "name": "minter",
          "type": "address"
        },
        {
          "internalType": "uint256",
          "name": "maxAllowance",
          "type": "uint256"
        },
        {
          "internalType": "bytes32[]",
          "name": "proof",
          "type": "bytes32[]"
        }
      ],
      "name": "eligibleForTier",
      "outputs": [
        {
          "internalType": "uint256",
          "name": "maxMintable",
          "type": "uint256"
        }
      ],
      "stateMutability": "view",
      "type": "function"
    },
    {
      "inputs": [
        {
          "internalType": "uint256",
          "name": "tierId",
          "type": "uint256"
        },
        {
          "internalType": "uint256",
          "name": "count",
          "type": "uint256"
        },
        {
          "internalType": "uint256",
          "name": "maxAllowance",
          "type": "uint256"
        },
        {
          "internalType": "bytes32[]",
          "name": "proof",
          "type": "bytes32[]"
        }
      ],
      "name": "mintByTier",
      "outputs": [],
      "stateMutability": "payable",
      "type": "function"
    },
    {
      "inputs": [
        {
          "internalType": "uint256",
          "name": "tierId",
          "type": "uint256"
        },
        {
          "internalType": "address",
          "name": "minter",
          "type": "address"
        },
        {
          "internalType": "uint256",
          "name": "maxAllowance",
          "type": "uint256"
        },
        {
          "internalType": "bytes32[]",
          "name": "proof",
          "type": "bytes32[]"
        }
      ],
      "name": "onTierAllowlist",
      "outputs": [
        {
          "internalType": "bool",
          "name": "",
          "type": "bool"
        }
      ],
      "stateMutability": "view",
      "type": "function"
    },
    {
      "inputs": [
        {
          "internalType": "uint256",
          "name": "tierId",
          "type": "uint256"
        }
      ],
      "name": "remainingForTier",
      "outputs": [
        {
          "internalType": "uint256",
          "name": "",
          "type": "uint256"
        }
      ],
      "stateMutability": "view",
      "type": "function"
    },
    {
      "inputs": [],
      "name": "reservedMints",
      "outputs": [
        {
          "internalType": "uint256",
          "name": "",
          "type": "uint256"
        }
      ],
      "stateMutability": "view",
      "type": "function"
    },
    {
      "inputs": [
        {
          "internalType": "uint256",
          "name": "tierId",
          "type": "uint256"
        }
      ],
      "name": "tierMints",
      "outputs": [
        {
          "internalType": "uint256",
          "name": "",
          "type": "uint256"
        }
      ],
      "stateMutability": "view",
      "type": "function"
    },
    {
      "inputs": [
        {
          "internalType": "uint256",
          "name": "tierId",
          "type": "uint256"
        }
      ],
      "name": "tiers",
      "outputs": [
        {
          "components": [
            {
              "internalType": "uint256",
              "name": "start",
              "type": "uint256"
            },
            {
              "internalType": "uint256",
              "name": "end",
              "type": "uint256"
            },
            {
              "internalType": "address",
              "name": "currency",
              "type": "address"
            },
            {
              "internalType": "uint256",
              "name": "price",
              "type": "uint256"
            },
            {
              "internalType": "uint256",
              "name": "maxPerWallet",
              "type": "uint256"
            },
            {
              "internalType": "bytes32",
              "name": "merkleRoot",
              "type": "bytes32"
            },
            {
              "internalType": "uint256",
              "name": "reserved",
              "type": "uint256"
            },
            {
              "internalType": "uint256",
              "name": "maxAllocation",
              "type": "uint256"
            }
          ],
          "internalType": "struct ITieredSalesInternal.Tier",
          "name": "",
          "type": "tuple"
        }
      ],
      "stateMutability": "view",
      "type": "function"
    },
    {
      "inputs": [],
      "name": "totalReserved",
      "outputs": [
        {
          "internalType": "uint256",
          "name": "",
          "type": "uint256"
        }
      ],
      "stateMutability": "view",
      "type": "function"
    },
    {
      "inputs": [
        {
          "internalType": "uint256",
          "name": "tierId",
          "type": "uint256"
        },
        {
          "internalType": "address",
          "name": "wallet",
          "type": "address"
        }
      ],
      "name": "walletMintedByTier",
      "outputs": [
        {
          "internalType": "uint256",
          "name": "",
          "type": "uint256"
        }
      ],
      "stateMutability": "view",
      "type": "function"
    }
  ],
  "transactionHash": "0x6d8ed636edd7f61134f55879af036671bdf39b120f3d47c1c590c08a71ecc3c3",
  "args": [],
  "numDeployments": 3,
  "solcInputHash": "c7a657095279b7f55fee4ffa475f3823",
  "bytecode": "0x608060405234801561001057600080fd5b5060016000556111a6806100256000396000f3fe6080604052600436106100965760003560e01c80635897f8781161006957806368c7d37c1161004e57806368c7d37c14610253578063bd2c18f714610283578063c71b0e1c146102a357600080fd5b80635897f8781461021e5780635ea2c91b1461023e57600080fd5b8063039af9eb1461009b5780631123f2ef1461012e5780632cb9b2ac1461019e57806353367f08146101d2575b600080fd5b3480156100a757600080fd5b506100bb6100b6366004610f62565b6102d7565b604051610125919060006101008201905082518252602083015160208301526001600160a01b036040840151166040830152606083015160608301526080830151608083015260a083015160a083015260c083015160c083015260e083015160e083015292915050565b60405180910390f35b34801561013a57600080fd5b50610190610149366004610f97565b60009182527fb7471df0c7246ed3d4a380504edfbb03f5845b709c7716243791636e4ba46cbf602090815260408084206001600160a01b0393909316845291905290205490565b604051908152602001610125565b3480156101aa57600080fd5b507fb7471df0c7246ed3d4a380504edfbb03f5845b709c7716243791636e4ba46cbc54610190565b3480156101de57600080fd5b506101906101ed366004610f62565b60009081527fb7471df0c7246ed3d4a380504edfbb03f5845b709c7716243791636e4ba46cbe602052604090205490565b34801561022a57600080fd5b50610190610239366004610f62565b6103c1565b61025161024c36600461100f565b610438565b005b34801561025f57600080fd5b5061027361026e366004611070565b610575565b6040519015158152602001610125565b34801561028f57600080fd5b5061019061029e366004611070565b61058e565b3480156102af57600080fd5b507fb7471df0c7246ed3d4a380504edfbb03f5845b709c7716243791636e4ba46cbb54610190565b61032b604051806101000160405280600081526020016000815260200160006001600160a01b0316815260200160008152602001600081526020016000801916815260200160008152602001600081525090565b5060009081527fb7471df0c7246ed3d4a380504edfbb03f5845b709c7716243791636e4ba46cbd60209081526040918290208251610100810184528154815260018201549281019290925260028101546001600160a01b0316928201929092526003820154606082015260048201546080820152600582015460a0820152600682015460c082015260079091015460e082015290565b60007fb7471df0c7246ed3d4a380504edfbb03f5845b709c7716243791636e4ba46cbb816103ee846105c1565b600085815260038401602090815260408083205460028701909252822060070154929350909161041e91906110d1565b90508082101561043057509392505050565b949350505050565b60026000540361048f5760405162461bcd60e51b815260206004820152601f60248201527f5265656e7472616e637947756172643a207265656e7472616e742063616c6c0060448201526064015b60405180910390fd5b60026000556104a18585858585610680565b3063b164884b6104af6109df565b7f46f908971db3fbea57e8a21b2e54575e0e567ff2f950ead3c0dc83f15ec67154600089815260209190915260408082205490517fffffffff0000000000000000000000000000000000000000000000000000000060e086901b1681526001600160a01b03909316600484015260248301526044820188905260806064830152608482015260a401600060405180830381600087803b15801561055157600080fd5b505af1158015610565573d6000803e3d6000fd5b5050600160005550505050505050565b600061058486868686866109ee565b9695505050505050565b60006105848686868686610aaa565b7fb7471df0c7246ed3d4a380504edfbb03f5845b709c7716243791636e4ba46cbb90565b7fb7471df0c7246ed3d4a380504edfbb03f5845b709c7716243791636e4ba46cbc547fb7471df0c7246ed3d4a380504edfbb03f5845b709c7716243791636e4ba46cbb8054600092610612916110d1565b61061b84610d7c565b61062591906110d1565b60008481526002830160205260409020600601549092501561067a576000838152600382016020908152604080832054600285019092529091206006015461066d91906110d1565b61067790836110e8565b91505b50919050565b600061068a6109df565b9050600061069b8783878787610aaa565b90507fb7471df0c7246ed3d4a380504edfbb03f5845b709c7716243791636e4ba46cbb8187111561070e5760405162461bcd60e51b815260206004820152600b60248201527f455843454544535f4d41580000000000000000000000000000000000000000006044820152606401610486565b610717886105c1565b8711156107665760405162461bcd60e51b815260206004820152601260248201527f455843454544535f414c4c4f434154494f4e00000000000000000000000000006044820152606401610486565b6000888152600282016020908152604080832060070154600385019092529091205461079290896110e8565b11156107e05760405162461bcd60e51b815260206004820152601260248201527f455843454544535f414c4c4f434154494f4e00000000000000000000000000006044820152606401610486565b60008881526002808301602052604090912001546001600160a01b03166108755760008881526002820160205260409020600301543490610822908990611100565b11156108705760405162461bcd60e51b815260206004820152601360248201527f494e53554646494349454e545f414d4f554e54000000000000000000000000006044820152606401610486565b610944565b600088815260028083016020526040909120908101546003909101546001600160a01b03909116906323b872dd90859030906108b2908c90611100565b6040517fffffffff0000000000000000000000000000000000000000000000000000000060e086901b1681526001600160a01b03938416600482015292909116602483015260448201526064016020604051808303816000875af115801561091e573d6000803e3d6000fd5b505050506040513d601f19601f82011682018060405250810190610942919061111f565b505b600088815260048201602090815260408083206001600160a01b0387168452909152812080548992906109789084906110e8565b909155505060008881526003820160205260408120805489929061099d9084906110e8565b90915550506000888152600282016020526040902060060154156109d557868160010160008282546109cf91906110e8565b90915550505b5050505050505050565b60006109e9610e87565b905090565b6000610584838380806020026020016040519081016040528093929190818152602001838360200280828437600092019190915250610a30925061059d915050565b60008981526002919091016020526040902060050154610aa588886040517fffffffffffffffffffffffffffffffffffffffff000000000000000000000000606084901b1660208201526034810182905260009060540160405160208183030381529060405280519060200120905092915050565b610ecd565b60008581527fb7471df0c7246ed3d4a380504edfbb03f5845b709c7716243791636e4ba46cbd60205260408120600401547fb7471df0c7246ed3d4a380504edfbb03f5845b709c7716243791636e4ba46cbb90610b495760405162461bcd60e51b815260206004820152600a60248201527f4e4f545f455849535453000000000000000000000000000000000000000000006044820152606401610486565b6000878152600282016020526040902054421015610ba95760405162461bcd60e51b815260206004820152600b60248201527f4e4f545f535441525445440000000000000000000000000000000000000000006044820152606401610486565b6000878152600282016020526040902060010154421115610c0c5760405162461bcd60e51b815260206004820152600d60248201527f414c52454144595f454e444544000000000000000000000000000000000000006044820152606401610486565b60008781526004808301602090815260408084206001600160a01b038b1685528252808420548b8552600286019092529092200154610c4b91906110d1565b600088815260028301602052604090206005015490925015610d7257600087815260048201602090815260408083206001600160a01b038a1684529091529020548511610cda5760405162461bcd60e51b815260206004820152600f60248201527f4d415845445f414c4c4f57414e434500000000000000000000000000000000006044820152606401610486565b610ce787878787876109ee565b610d335760405162461bcd60e51b815260206004820152600f60248201527f4e4f545f414c4c4f574c495354454400000000000000000000000000000000006044820152606401610486565b600087815260048201602090815260408083206001600160a01b038a168452909152812054610d6290876110d1565b905080831115610d70578092505b505b5095945050505050565b7f744f4bd40000000000000000000000000000000000000000000000000000000060009081527fff923f4a67695a9cdd5da4b8580a5a20edf2183c42aa111dd7fc15dc7bed26406020527f35d3cc196fdbb37c639d9ccf02c0ac54b3a84c388495dbf9ab724144133fc6255460ff16610df85750600019919050565b60008281527f46f908971db3fbea57e8a21b2e54575e0e567ff2f950ead3c0dc83f15ec6715460209081526040808320548084527f7056dcda885936c7a9d7c6385902b4ab5fb09024caea98652b7189a5f7a28ea58352818420547f7056dcda885936c7a9d7c6385902b4ab5fb09024caea98652b7189a5f7a28ea690935290832054909291610430916110d1565b7fdb1d5e345c4903e9a32b6674ecc8b1deaddbbb2551474fb34c9d34becbe7f420546000906001600160a01b03163303610ec8575060131936013560601c90565b503390565b600082610eda8584610ee3565b14949350505050565b600081815b8451811015610f2857610f1482868381518110610f0757610f07611141565b6020026020010151610f30565b915080610f2081611157565b915050610ee8565b509392505050565b6000818310610f4c576000828152602084905260409020610f5b565b60008381526020839052604090205b9392505050565b600060208284031215610f7457600080fd5b5035919050565b80356001600160a01b0381168114610f9257600080fd5b919050565b60008060408385031215610faa57600080fd5b82359150610fba60208401610f7b565b90509250929050565b60008083601f840112610fd557600080fd5b50813567ffffffffffffffff811115610fed57600080fd5b6020830191508360208260051b850101111561100857600080fd5b9250929050565b60008060008060006080868803121561102757600080fd5b853594506020860135935060408601359250606086013567ffffffffffffffff81111561105357600080fd5b61105f88828901610fc3565b969995985093965092949392505050565b60008060008060006080868803121561108857600080fd5b8535945061109860208701610f7b565b935060408601359250606086013567ffffffffffffffff81111561105357600080fd5b634e487b7160e01b600052601160045260246000fd5b6000828210156110e3576110e36110bb565b500390565b600082198211156110fb576110fb6110bb565b500190565b600081600019048311821515161561111a5761111a6110bb565b500290565b60006020828403121561113157600080fd5b81518015158114610f5b57600080fd5b634e487b7160e01b600052603260045260246000fd5b600060018201611169576111696110bb565b506001019056fea2646970667358221220643d12134be06aeea749952964432e87fee0a9bfc01d710be951e7d07767585964736f6c634300080f0033",
  "devdoc": {
    "details": "Tiered Sales facet for ERC1155 with meta-transactions support via ERC2771",
    "kind": "dev",
    "methods": {},
    "version": 1
  },
  "userdoc": {
    "kind": "user",
    "methods": {},
    "version": 1
  },
  "storageLayout": {
    "storage": [
      {
        "astId": 326,
        "contract": "src/token/ERC1155/facets/sales/ERC1155TieredSalesERC2771.sol:ERC1155TieredSalesERC2771",
        "label": "_status",
        "offset": 0,
        "slot": "0",
        "type": "t_uint256"
      }
    ],
    "types": {
      "t_uint256": {
        "encoding": "inplace",
        "label": "uint256",
        "numberOfBytes": "32"
      }
    }
  }
}