{
  "address": "0x6d018457d731E1EFA8700a454a52e46c2Ce1451e",
  "abi": [
    {
      "anonymous": false,
      "inputs": [
        {
          "indexed": false,
          "internalType": "string",
          "name": "value",
          "type": "string"
        },
        {
          "indexed": true,
          "internalType": "uint256",
          "name": "tokenId",
          "type": "uint256"
        }
      ],
      "name": "URI",
      "type": "event"
    },
    {
      "inputs": [],
      "name": "baseURI",
      "outputs": [
        {
          "internalType": "string",
          "name": "",
          "type": "string"
        }
      ],
      "stateMutability": "view",
      "type": "function"
    },
    {
      "inputs": [],
      "name": "baseURILocked",
      "outputs": [
        {
          "internalType": "bool",
          "name": "",
          "type": "bool"
        }
      ],
      "stateMutability": "view",
      "type": "function"
    },
    {
      "inputs": [],
      "name": "fallbackURI",
      "outputs": [
        {
          "internalType": "string",
          "name": "",
          "type": "string"
        }
      ],
      "stateMutability": "view",
      "type": "function"
    },
    {
      "inputs": [],
      "name": "fallbackURILocked",
      "outputs": [
        {
          "internalType": "bool",
          "name": "",
          "type": "bool"
        }
      ],
      "stateMutability": "view",
      "type": "function"
    },
    {
      "inputs": [],
      "name": "lastLockedTokenId",
      "outputs": [
        {
          "internalType": "uint256",
          "name": "",
          "type": "uint256"
        }
      ],
      "stateMutability": "view",
      "type": "function"
    },
    {
      "inputs": [
        {
          "internalType": "uint256",
          "name": "tokenId",
          "type": "uint256"
        }
      ],
      "name": "uri",
      "outputs": [
        {
          "internalType": "string",
          "name": "",
          "type": "string"
        }
      ],
      "stateMutability": "view",
      "type": "function"
    },
    {
      "inputs": [
        {
          "internalType": "uint256[]",
          "name": "tokenIds",
          "type": "uint256[]"
        }
      ],
      "name": "uriBatch",
      "outputs": [
        {
          "internalType": "string[]",
          "name": "",
          "type": "string[]"
        }
      ],
      "stateMutability": "view",
      "type": "function"
    }
  ],
  "transactionHash": "0x1da39cbdfe3834ad40ad4e0d9001c459a0fc7cbd429ec593c43e66cfaf377055",
  "args": [],
  "numDeployments": 5,
  "solcInputHash": "a620b5788c19d57e396989fa51ca481a",
  "bytecode": "0x608060405234801561001057600080fd5b506109be806100206000396000f3fe608060405234801561001057600080fd5b506004361061007d5760003560e01c80635d148e5c1161005b5780635d148e5c146100ea5780636b95c504146101145780636c0360eb1461014457806396d7e2291461014c57600080fd5b8063067f0848146100825780630c7d9752146100c25780630e89341c146100d7575b600080fd5b7f7df186493127afbe76aac5b5b4ed702314d47975d114f419dbfeec69750bceed54610100900460ff165b60405190151581526020015b60405180910390f35b6100ca61016c565b6040516100b99190610672565b6100ca6100e536600461068c565b610220565b7f7df186493127afbe76aac5b5b4ed702314d47975d114f419dbfeec69750bceed5460ff166100ad565b7f7df186493127afbe76aac5b5b4ed702314d47975d114f419dbfeec69750bceee546040519081526020016100b9565b6100ca6103f4565b61015f61015a3660046106a5565b610422565b6040516100b9919061071a565b60607f7df186493127afbe76aac5b5b4ed702314d47975d114f419dbfeec69750bceeb600101805461019d9061077c565b80601f01602080910402602001604051908101604052809291908181526020018280546101c99061077c565b80156102165780601f106101eb57610100808354040283529160200191610216565b820191906000526020600020905b8154815290600101906020018083116101f957829003601f168201915b5050505050905090565b60008181527f7df186493127afbe76aac5b5b4ed702314d47975d114f419dbfeec69750bceef6020526040812080546060927f7df186493127afbe76aac5b5b4ed702314d47975d114f419dbfeec69750bceeb92909161027f9061077c565b80601f01602080910402602001604051908101604052809291908181526020018280546102ab9061077c565b80156102f85780601f106102cd576101008083540402835291602001916102f8565b820191906000526020600020905b8154815290600101906020018083116102db57829003601f168201915b5050505050905060008260000180546103109061077c565b80601f016020809104026020016040519081016040528092919081815260200182805461033c9061077c565b80156103895780601f1061035e57610100808354040283529160200191610389565b820191906000526020600020905b81548152906001019060200180831161036c57829003601f168201915b5050505050905080516000036103a157509392505050565b8151156103d45780826040516020016103bb9291906107d2565b6040516020818303038152906040529350505050919050565b80836001016103e2876104d9565b6040516020016103bb93929190610801565b60607f7df186493127afbe76aac5b5b4ed702314d47975d114f419dbfeec69750bceeb805461019d9061077c565b606060008267ffffffffffffffff81111561043f5761043f6108c0565b60405190808252806020026020018201604052801561047257816020015b606081526020019060019003908161045d5790505b50905060005b838110156104d1576104a1858583818110610495576104956108d6565b90506020020135610220565b8282815181106104b3576104b36108d6565b602002602001018190525080806104c990610902565b915050610478565b509392505050565b60608160000361051c57505060408051808201909152600181527f3000000000000000000000000000000000000000000000000000000000000000602082015290565b8160005b8115610546578061053081610902565b915061053f9050600a83610931565b9150610520565b60008167ffffffffffffffff811115610561576105616108c0565b6040519080825280601f01601f19166020018201604052801561058b576020820181803683370190505b5090505b841561060e576105a0600183610945565b91506105ad600a8661095c565b6105b8906030610970565b60f81b8183815181106105cd576105cd6108d6565b60200101907effffffffffffffffffffffffffffffffffffffffffffffffffffffffffffff1916908160001a905350610607600a86610931565b945061058f565b949350505050565b60005b83811015610631578181015183820152602001610619565b83811115610640576000848401525b50505050565b6000815180845261065e816020860160208601610616565b601f01601f19169290920160200192915050565b6020815260006106856020830184610646565b9392505050565b60006020828403121561069e57600080fd5b5035919050565b600080602083850312156106b857600080fd5b823567ffffffffffffffff808211156106d057600080fd5b818501915085601f8301126106e457600080fd5b8135818111156106f357600080fd5b8660208260051b850101111561070857600080fd5b60209290920196919550909350505050565b6000602080830181845280855180835260408601915060408160051b870101925083870160005b8281101561076f57603f1988860301845261075d858351610646565b94509285019290850190600101610741565b5092979650505050505050565b600181811c9082168061079057607f821691505b6020821081036107b057634e487b7160e01b600052602260045260246000fd5b50919050565b600081516107c8818560208601610616565b9290920192915050565b600083516107e4818460208801610616565b8351908301906107f8818360208801610616565b01949350505050565b6000845160206108148285838a01610616565b855491840191600090600181811c908083168061083257607f831692505b858310810361084f57634e487b7160e01b85526022600452602485fd5b8080156108635760018114610878576108a5565b60ff19851688528315158402880195506108a5565b60008c81526020902060005b8581101561089d5781548a820152908401908801610884565b505083880195505b50505050506108b481876107b6565b98975050505050505050565b634e487b7160e01b600052604160045260246000fd5b634e487b7160e01b600052603260045260246000fd5b634e487b7160e01b600052601160045260246000fd5b600060018201610914576109146108ec565b5060010190565b634e487b7160e01b600052601260045260246000fd5b6000826109405761094061091b565b500490565b600082821015610957576109576108ec565b500390565b60008261096b5761096b61091b565b500690565b60008219821115610983576109836108ec565b50019056fea26469706673582212208a939d158d4672c2d08775d2ffda6d80737cbed4c67e76dccecaac9483d8863164736f6c634300080f0033",
  "devdoc": {
    "custom:category": "NFTs",
    "custom:peer-dependencies": "eip165:0xd9b67a26",
    "custom:provides-interfaces": "0x0e89341c 0xc6575680",
    "custom:type": "eip-2535-facet",
    "details": "See https://eips.ethereum.org/EIPS/eip-1155#metadata-extensions",
    "kind": "dev",
    "methods": {},
    "title": "ERC1155 - Metadata",
    "version": 1
  },
  "userdoc": {
    "kind": "user",
    "methods": {
      "uri(uint256)": {
        "notice": "inheritdoc IERC1155Metadata"
      }
    },
    "notice": "Provides metadata for ERC1155 tokens according to standard. This extension supports base URI, per-token URI, and a fallback URI. You can also freeze URIs until a certain token ID.",
    "version": 1
  },
  "storageLayout": {
    "storage": [],
    "types": null
  }
}