{
  "address": "0x9329dc0e42c1f45661AAd2EeB1538c5dA9187448",
  "abi": [
    {
      "inputs": [
        {
          "components": [
            {
              "internalType": "string",
              "name": "name",
              "type": "string"
            },
            {
              "internalType": "string",
              "name": "symbol",
              "type": "string"
            },
            {
              "internalType": "string",
              "name": "contractURI",
              "type": "string"
            },
            {
              "internalType": "string",
              "name": "placeholderURI",
              "type": "string"
            },
            {
              "internalType": "uint256",
              "name": "maxSupply",
              "type": "uint256"
            },
            {
              "internalType": "uint256",
              "name": "preSalePrice",
              "type": "uint256"
            },
            {
              "internalType": "uint256",
              "name": "preSaleMaxMintPerWallet",
              "type": "uint256"
            },
            {
              "internalType": "uint256",
              "name": "publicSalePrice",
              "type": "uint256"
            },
            {
              "internalType": "uint256",
              "name": "publicSaleMaxMintPerTx",
              "type": "uint256"
            },
            {
              "internalType": "address",
              "name": "defaultRoyaltyAddress",
              "type": "address"
            },
            {
              "internalType": "uint16",
              "name": "defaultRoyaltyBps",
              "type": "uint16"
            },
            {
              "internalType": "address",
              "name": "proceedsRecipient",
              "type": "address"
            },
            {
              "internalType": "address",
              "name": "openSeaProxyRegistryAddress",
              "type": "address"
            },
            {
              "internalType": "address",
              "name": "openSeaExchangeAddress",
              "type": "address"
            },
            {
              "internalType": "address",
              "name": "trustedForwarder",
              "type": "address"
            }
          ],
          "internalType": "struct ERC721AFullFeaturedCollection.Config",
          "name": "config",
          "type": "tuple"
        }
      ],
      "stateMutability": "nonpayable",
      "type": "constructor"
    },
    {
      "inputs": [],
      "name": "ApprovalCallerNotOwnerNorApproved",
      "type": "error"
    },
    {
      "inputs": [],
      "name": "ApprovalQueryForNonexistentToken",
      "type": "error"
    },
    {
      "inputs": [],
      "name": "ApproveToCaller",
      "type": "error"
    },
    {
      "inputs": [],
      "name": "BalanceQueryForZeroAddress",
      "type": "error"
    },
    {
      "inputs": [],
      "name": "MintERC2309QuantityExceedsLimit",
      "type": "error"
    },
    {
      "inputs": [],
      "name": "MintToZeroAddress",
      "type": "error"
    },
    {
      "inputs": [],
      "name": "MintZeroQuantity",
      "type": "error"
    },
    {
      "inputs": [],
      "name": "OwnerQueryForNonexistentToken",
      "type": "error"
    },
    {
      "inputs": [],
      "name": "OwnershipNotInitializedForExtraData",
      "type": "error"
    },
    {
      "inputs": [],
      "name": "TransferCallerNotOwnerNorApproved",
      "type": "error"
    },
    {
      "inputs": [],
      "name": "TransferFromIncorrectOwner",
      "type": "error"
    },
    {
      "inputs": [],
      "name": "TransferToNonERC721ReceiverImplementer",
      "type": "error"
    },
    {
      "inputs": [],
      "name": "TransferToZeroAddress",
      "type": "error"
    },
    {
      "inputs": [],
      "name": "URIQueryForNonexistentToken",
      "type": "error"
    },
    {
      "anonymous": false,
      "inputs": [
        {
          "indexed": true,
          "internalType": "address",
          "name": "owner",
          "type": "address"
        },
        {
          "indexed": true,
          "internalType": "address",
          "name": "approved",
          "type": "address"
        },
        {
          "indexed": true,
          "internalType": "uint256",
          "name": "tokenId",
          "type": "uint256"
        }
      ],
      "name": "Approval",
      "type": "event"
    },
    {
      "anonymous": false,
      "inputs": [
        {
          "indexed": true,
          "internalType": "address",
          "name": "owner",
          "type": "address"
        },
        {
          "indexed": true,
          "internalType": "address",
          "name": "operator",
          "type": "address"
        },
        {
          "indexed": false,
          "internalType": "bool",
          "name": "approved",
          "type": "bool"
        }
      ],
      "name": "ApprovalForAll",
      "type": "event"
    },
    {
      "anonymous": false,
      "inputs": [
        {
          "indexed": true,
          "internalType": "uint256",
          "name": "fromTokenId",
          "type": "uint256"
        },
        {
          "indexed": false,
          "internalType": "uint256",
          "name": "toTokenId",
          "type": "uint256"
        },
        {
          "indexed": true,
          "internalType": "address",
          "name": "from",
          "type": "address"
        },
        {
          "indexed": true,
          "internalType": "address",
          "name": "to",
          "type": "address"
        }
      ],
      "name": "ConsecutiveTransfer",
      "type": "event"
    },
    {
      "anonymous": false,
      "inputs": [
        {
          "indexed": false,
          "internalType": "address",
          "name": "recipient",
          "type": "address"
        },
        {
          "indexed": false,
          "internalType": "uint16",
          "name": "bps",
          "type": "uint16"
        }
      ],
      "name": "DefaultRoyaltySet",
      "type": "event"
    },
    {
      "anonymous": false,
      "inputs": [
        {
          "indexed": false,
          "internalType": "uint8",
          "name": "version",
          "type": "uint8"
        }
      ],
      "name": "Initialized",
      "type": "event"
    },
    {
      "anonymous": false,
      "inputs": [
        {
          "indexed": true,
          "internalType": "address",
          "name": "previousOwner",
          "type": "address"
        },
        {
          "indexed": true,
          "internalType": "address",
          "name": "newOwner",
          "type": "address"
        }
      ],
      "name": "OwnershipTransferred",
      "type": "event"
    },
    {
      "anonymous": false,
      "inputs": [
        {
          "indexed": true,
          "internalType": "bytes32",
          "name": "role",
          "type": "bytes32"
        },
        {
          "indexed": true,
          "internalType": "bytes32",
          "name": "previousAdminRole",
          "type": "bytes32"
        },
        {
          "indexed": true,
          "internalType": "bytes32",
          "name": "newAdminRole",
          "type": "bytes32"
        }
      ],
      "name": "RoleAdminChanged",
      "type": "event"
    },
    {
      "anonymous": false,
      "inputs": [
        {
          "indexed": true,
          "internalType": "bytes32",
          "name": "role",
          "type": "bytes32"
        },
        {
          "indexed": true,
          "internalType": "address",
          "name": "account",
          "type": "address"
        },
        {
          "indexed": true,
          "internalType": "address",
          "name": "sender",
          "type": "address"
        }
      ],
      "name": "RoleGranted",
      "type": "event"
    },
    {
      "anonymous": false,
      "inputs": [
        {
          "indexed": true,
          "internalType": "bytes32",
          "name": "role",
          "type": "bytes32"
        },
        {
          "indexed": true,
          "internalType": "address",
          "name": "account",
          "type": "address"
        },
        {
          "indexed": true,
          "internalType": "address",
          "name": "sender",
          "type": "address"
        }
      ],
      "name": "RoleRevoked",
      "type": "event"
    },
    {
      "anonymous": false,
      "inputs": [
        {
          "indexed": false,
          "internalType": "uint256",
          "name": "tokenId",
          "type": "uint256"
        }
      ],
      "name": "TokenRoyaltyRemoved",
      "type": "event"
    },
    {
      "anonymous": false,
      "inputs": [
        {
          "indexed": false,
          "internalType": "uint256",
          "name": "tokenId",
          "type": "uint256"
        },
        {
          "indexed": false,
          "internalType": "address",
          "name": "recipient",
          "type": "address"
        },
        {
          "indexed": false,
          "internalType": "uint16",
          "name": "bps",
          "type": "uint16"
        }
      ],
      "name": "TokenRoyaltySet",
      "type": "event"
    },
    {
      "anonymous": false,
      "inputs": [
        {
          "indexed": true,
          "internalType": "address",
          "name": "from",
          "type": "address"
        },
        {
          "indexed": true,
          "internalType": "address",
          "name": "to",
          "type": "address"
        },
        {
          "indexed": true,
          "internalType": "uint256",
          "name": "tokenId",
          "type": "uint256"
        }
      ],
      "name": "Transfer",
      "type": "event"
    },
    {
      "inputs": [],
      "name": "DEFAULT_ADMIN_ROLE",
      "outputs": [
        {
          "internalType": "bytes32",
          "name": "",
          "type": "bytes32"
        }
      ],
      "stateMutability": "view",
      "type": "function"
    },
    {
      "inputs": [],
      "name": "MINTER_ROLE",
      "outputs": [
        {
          "internalType": "bytes32",
          "name": "",
          "type": "bytes32"
        }
      ],
      "stateMutability": "view",
      "type": "function"
    },
    {
      "inputs": [],
      "name": "_trustedForwarder",
      "outputs": [
        {
          "internalType": "address",
          "name": "",
          "type": "address"
        }
      ],
      "stateMutability": "view",
      "type": "function"
    },
    {
      "inputs": [
        {
          "internalType": "address",
          "name": "to",
          "type": "address"
        },
        {
          "internalType": "uint256",
          "name": "tokenId",
          "type": "uint256"
        }
      ],
      "name": "approve",
      "outputs": [],
      "stateMutability": "nonpayable",
      "type": "function"
    },
    {
      "inputs": [
        {
          "internalType": "address",
          "name": "owner",
          "type": "address"
        }
      ],
      "name": "balanceOf",
      "outputs": [
        {
          "internalType": "uint256",
          "name": "",
          "type": "uint256"
        }
      ],
      "stateMutability": "view",
      "type": "function"
    },
    {
      "inputs": [],
      "name": "baseTokenURI",
      "outputs": [
        {
          "internalType": "string",
          "name": "",
          "type": "string"
        }
      ],
      "stateMutability": "view",
      "type": "function"
    },
    {
      "inputs": [],
      "name": "baseURIFrozen",
      "outputs": [
        {
          "internalType": "bool",
          "name": "",
          "type": "bool"
        }
      ],
      "stateMutability": "view",
      "type": "function"
    },
    {
      "inputs": [],
      "name": "contractURI",
      "outputs": [
        {
          "internalType": "string",
          "name": "",
          "type": "string"
        }
      ],
      "stateMutability": "view",
      "type": "function"
    },
    {
      "inputs": [],
      "name": "defaultRoyalty",
      "outputs": [
        {
          "internalType": "address",
          "name": "recipient",
          "type": "address"
        },
        {
          "internalType": "uint16",
          "name": "bps",
          "type": "uint16"
        }
      ],
      "stateMutability": "view",
      "type": "function"
    },
    {
      "inputs": [],
      "name": "freezeBaseURI",
      "outputs": [],
      "stateMutability": "nonpayable",
      "type": "function"
    },
    {
      "inputs": [],
      "name": "freezeMaxSupply",
      "outputs": [],
      "stateMutability": "nonpayable",
      "type": "function"
    },
    {
      "inputs": [
        {
          "internalType": "uint256",
          "name": "tokenId",
          "type": "uint256"
        }
      ],
      "name": "getApproved",
      "outputs": [
        {
          "internalType": "address",
          "name": "",
          "type": "address"
        }
      ],
      "stateMutability": "view",
      "type": "function"
    },
    {
      "inputs": [],
      "name": "getInfo",
      "outputs": [
        {
          "internalType": "uint256",
          "name": "_maxSupply",
          "type": "uint256"
        },
        {
          "internalType": "uint256",
          "name": "_totalSupply",
          "type": "uint256"
        },
        {
          "internalType": "uint256",
          "name": "_senderBalance",
          "type": "uint256"
        },
        {
          "internalType": "uint256",
          "name": "_preSalePrice",
          "type": "uint256"
        },
        {
          "internalType": "uint256",
          "name": "_preSaleMaxMintPerWallet",
          "type": "uint256"
        },
        {
          "internalType": "uint256",
          "name": "_preSaleAlreadyClaimed",
          "type": "uint256"
        },
        {
          "internalType": "bool",
          "name": "_preSaleActive",
          "type": "bool"
        },
        {
          "internalType": "uint256",
          "name": "_publicSalePrice",
          "type": "uint256"
        },
        {
          "internalType": "uint256",
          "name": "_publicSaleMaxMintPerTx",
          "type": "uint256"
        },
        {
          "internalType": "bool",
          "name": "_publicSaleActive",
          "type": "bool"
        }
      ],
      "stateMutability": "view",
      "type": "function"
    },
    {
      "inputs": [
        {
          "internalType": "uint256",
          "name": "id",
          "type": "uint256"
        }
      ],
      "name": "getRaribleV2Royalties",
      "outputs": [
        {
          "components": [
            {
              "internalType": "address payable",
              "name": "account",
              "type": "address"
            },
            {
              "internalType": "uint96",
              "name": "value",
              "type": "uint96"
            }
          ],
          "internalType": "struct LibPart.Part[]",
          "name": "result",
          "type": "tuple[]"
        }
      ],
      "stateMutability": "view",
      "type": "function"
    },
    {
      "inputs": [
        {
          "internalType": "bytes32",
          "name": "role",
          "type": "bytes32"
        }
      ],
      "name": "getRoleAdmin",
      "outputs": [
        {
          "internalType": "bytes32",
          "name": "",
          "type": "bytes32"
        }
      ],
      "stateMutability": "view",
      "type": "function"
    },
    {
      "inputs": [],
      "name": "getTokenRoyaltiesCount",
      "outputs": [
        {
          "internalType": "uint256",
          "name": "",
          "type": "uint256"
        }
      ],
      "stateMutability": "view",
      "type": "function"
    },
    {
      "inputs": [
        {
          "internalType": "uint256",
          "name": "index",
          "type": "uint256"
        }
      ],
      "name": "getTokenRoyaltyByIndex",
      "outputs": [
        {
          "components": [
            {
              "internalType": "uint256",
              "name": "tokenId",
              "type": "uint256"
            },
            {
              "internalType": "address",
              "name": "recipient",
              "type": "address"
            },
            {
              "internalType": "uint16",
              "name": "bps",
              "type": "uint16"
            }
          ],
          "internalType": "struct IEIP2981RoyaltyOverride.TokenRoyaltyConfig",
          "name": "",
          "type": "tuple"
        }
      ],
      "stateMutability": "view",
      "type": "function"
    },
    {
      "inputs": [
        {
          "internalType": "bytes32",
          "name": "role",
          "type": "bytes32"
        },
        {
          "internalType": "address",
          "name": "account",
          "type": "address"
        }
      ],
      "name": "grantRole",
      "outputs": [],
      "stateMutability": "nonpayable",
      "type": "function"
    },
    {
      "inputs": [
        {
          "internalType": "bytes32",
          "name": "role",
          "type": "bytes32"
        },
        {
          "internalType": "address",
          "name": "account",
          "type": "address"
        }
      ],
      "name": "hasRole",
      "outputs": [
        {
          "internalType": "bool",
          "name": "",
          "type": "bool"
        }
      ],
      "stateMutability": "view",
      "type": "function"
    },
    {
      "inputs": [
        {
          "components": [
            {
              "internalType": "string",
              "name": "name",
              "type": "string"
            },
            {
              "internalType": "string",
              "name": "symbol",
              "type": "string"
            },
            {
              "internalType": "string",
              "name": "contractURI",
              "type": "string"
            },
            {
              "internalType": "string",
              "name": "placeholderURI",
              "type": "string"
            },
            {
              "internalType": "uint256",
              "name": "maxSupply",
              "type": "uint256"
            },
            {
              "internalType": "uint256",
              "name": "preSalePrice",
              "type": "uint256"
            },
            {
              "internalType": "uint256",
              "name": "preSaleMaxMintPerWallet",
              "type": "uint256"
            },
            {
              "internalType": "uint256",
              "name": "publicSalePrice",
              "type": "uint256"
            },
            {
              "internalType": "uint256",
              "name": "publicSaleMaxMintPerTx",
              "type": "uint256"
            },
            {
              "internalType": "address",
              "name": "defaultRoyaltyAddress",
              "type": "address"
            },
            {
              "internalType": "uint16",
              "name": "defaultRoyaltyBps",
              "type": "uint16"
            },
            {
              "internalType": "address",
              "name": "proceedsRecipient",
              "type": "address"
            },
            {
              "internalType": "address",
              "name": "openSeaProxyRegistryAddress",
              "type": "address"
            },
            {
              "internalType": "address",
              "name": "openSeaExchangeAddress",
              "type": "address"
            },
            {
              "internalType": "address",
              "name": "trustedForwarder",
              "type": "address"
            }
          ],
          "internalType": "struct ERC721AFullFeaturedCollection.Config",
          "name": "config",
          "type": "tuple"
        },
        {
          "internalType": "address",
          "name": "deployer",
          "type": "address"
        }
      ],
      "name": "initialize",
      "outputs": [],
      "stateMutability": "nonpayable",
      "type": "function"
    },
    {
      "inputs": [
        {
          "internalType": "address",
          "name": "owner",
          "type": "address"
        },
        {
          "internalType": "address",
          "name": "operator",
          "type": "address"
        }
      ],
      "name": "isApprovedForAll",
      "outputs": [
        {
          "internalType": "bool",
          "name": "",
          "type": "bool"
        }
      ],
      "stateMutability": "view",
      "type": "function"
    },
    {
      "inputs": [
        {
          "internalType": "address",
          "name": "forwarder",
          "type": "address"
        }
      ],
      "name": "isTrustedForwarder",
      "outputs": [
        {
          "internalType": "bool",
          "name": "",
          "type": "bool"
        }
      ],
      "stateMutability": "view",
      "type": "function"
    },
    {
      "inputs": [],
      "name": "lockProceedsRecipient",
      "outputs": [],
      "stateMutability": "nonpayable",
      "type": "function"
    },
    {
      "inputs": [],
      "name": "maxSupply",
      "outputs": [
        {
          "internalType": "uint256",
          "name": "",
          "type": "uint256"
        }
      ],
      "stateMutability": "view",
      "type": "function"
    },
    {
      "inputs": [],
      "name": "maxSupplyFrozen",
      "outputs": [
        {
          "internalType": "bool",
          "name": "",
          "type": "bool"
        }
      ],
      "stateMutability": "view",
      "type": "function"
    },
    {
      "inputs": [
        {
          "internalType": "address",
          "name": "to",
          "type": "address"
        },
        {
          "internalType": "uint256",
          "name": "count",
          "type": "uint256"
        }
      ],
      "name": "mintByOwner",
      "outputs": [],
      "stateMutability": "nonpayable",
      "type": "function"
    },
    {
      "inputs": [
        {
          "internalType": "address",
          "name": "to",
          "type": "address"
        },
        {
          "internalType": "uint256",
          "name": "count",
          "type": "uint256"
        }
      ],
      "name": "mintByRole",
      "outputs": [],
      "stateMutability": "nonpayable",
      "type": "function"
    },
    {
      "inputs": [
        {
          "internalType": "uint256",
          "name": "count",
          "type": "uint256"
        },
        {
          "internalType": "bytes32[]",
          "name": "proof",
          "type": "bytes32[]"
        }
      ],
      "name": "mintPreSale",
      "outputs": [],
      "stateMutability": "payable",
      "type": "function"
    },
    {
      "inputs": [
        {
          "internalType": "address",
          "name": "to",
          "type": "address"
        },
        {
          "internalType": "uint256",
          "name": "count",
          "type": "uint256"
        }
      ],
      "name": "mintPublicSale",
      "outputs": [],
      "stateMutability": "payable",
      "type": "function"
    },
    {
      "inputs": [],
      "name": "name",
      "outputs": [
        {
          "internalType": "string",
          "name": "",
          "type": "string"
        }
      ],
      "stateMutability": "view",
      "type": "function"
    },
    {
      "inputs": [
        {
          "internalType": "address",
          "name": "minter",
          "type": "address"
        },
        {
          "internalType": "bytes32[]",
          "name": "proof",
          "type": "bytes32[]"
        }
      ],
      "name": "onPreSaleAllowList",
      "outputs": [
        {
          "internalType": "bool",
          "name": "",
          "type": "bool"
        }
      ],
      "stateMutability": "view",
      "type": "function"
    },
    {
      "inputs": [],
      "name": "owner",
      "outputs": [
        {
          "internalType": "address",
          "name": "",
          "type": "address"
        }
      ],
      "stateMutability": "view",
      "type": "function"
    },
    {
      "inputs": [
        {
          "internalType": "uint256",
          "name": "tokenId",
          "type": "uint256"
        }
      ],
      "name": "ownerOf",
      "outputs": [
        {
          "internalType": "address",
          "name": "",
          "type": "address"
        }
      ],
      "stateMutability": "view",
      "type": "function"
    },
    {
      "inputs": [],
      "name": "placeholderURI",
      "outputs": [
        {
          "internalType": "string",
          "name": "",
          "type": "string"
        }
      ],
      "stateMutability": "view",
      "type": "function"
    },
    {
      "inputs": [],
      "name": "preSaleAllowlistMerkleRoot",
      "outputs": [
        {
          "internalType": "bytes32",
          "name": "",
          "type": "bytes32"
        }
      ],
      "stateMutability": "view",
      "type": "function"
    },
    {
      "inputs": [],
      "name": "preSaleMaxMintPerWallet",
      "outputs": [
        {
          "internalType": "uint256",
          "name": "",
          "type": "uint256"
        }
      ],
      "stateMutability": "view",
      "type": "function"
    },
    {
      "inputs": [],
      "name": "preSalePrice",
      "outputs": [
        {
          "internalType": "uint256",
          "name": "",
          "type": "uint256"
        }
      ],
      "stateMutability": "view",
      "type": "function"
    },
    {
      "inputs": [],
      "name": "preSaleStatus",
      "outputs": [
        {
          "internalType": "bool",
          "name": "",
          "type": "bool"
        }
      ],
      "stateMutability": "view",
      "type": "function"
    },
    {
      "inputs": [],
      "name": "proceedsRecipient",
      "outputs": [
        {
          "internalType": "address",
          "name": "",
          "type": "address"
        }
      ],
      "stateMutability": "view",
      "type": "function"
    },
    {
      "inputs": [],
      "name": "proceedsRecipientLocked",
      "outputs": [
        {
          "internalType": "bool",
          "name": "",
          "type": "bool"
        }
      ],
      "stateMutability": "view",
      "type": "function"
    },
    {
      "inputs": [],
      "name": "publicSaleMaxMintPerTx",
      "outputs": [
        {
          "internalType": "uint256",
          "name": "",
          "type": "uint256"
        }
      ],
      "stateMutability": "view",
      "type": "function"
    },
    {
      "inputs": [],
      "name": "publicSalePrice",
      "outputs": [
        {
          "internalType": "uint256",
          "name": "",
          "type": "uint256"
        }
      ],
      "stateMutability": "view",
      "type": "function"
    },
    {
      "inputs": [],
      "name": "publicSaleStatus",
      "outputs": [
        {
          "internalType": "bool",
          "name": "",
          "type": "bool"
        }
      ],
      "stateMutability": "view",
      "type": "function"
    },
    {
      "inputs": [],
      "name": "renounceOwnership",
      "outputs": [],
      "stateMutability": "nonpayable",
      "type": "function"
    },
    {
      "inputs": [
        {
          "internalType": "bytes32",
          "name": "role",
          "type": "bytes32"
        },
        {
          "internalType": "address",
          "name": "account",
          "type": "address"
        }
      ],
      "name": "renounceRole",
      "outputs": [],
      "stateMutability": "nonpayable",
      "type": "function"
    },
    {
      "inputs": [
        {
          "internalType": "bytes32",
          "name": "role",
          "type": "bytes32"
        },
        {
          "internalType": "address",
          "name": "account",
          "type": "address"
        }
      ],
      "name": "revokeRole",
      "outputs": [],
      "stateMutability": "nonpayable",
      "type": "function"
    },
    {
      "inputs": [
        {
          "internalType": "uint256",
          "name": "tokenId",
          "type": "uint256"
        },
        {
          "internalType": "uint256",
          "name": "value",
          "type": "uint256"
        }
      ],
      "name": "royaltyInfo",
      "outputs": [
        {
          "internalType": "address",
          "name": "",
          "type": "address"
        },
        {
          "internalType": "uint256",
          "name": "",
          "type": "uint256"
        }
      ],
      "stateMutability": "view",
      "type": "function"
    },
    {
      "inputs": [
        {
          "internalType": "address",
          "name": "from",
          "type": "address"
        },
        {
          "internalType": "address",
          "name": "to",
          "type": "address"
        },
        {
          "internalType": "uint256",
          "name": "tokenId",
          "type": "uint256"
        }
      ],
      "name": "safeTransferFrom",
      "outputs": [],
      "stateMutability": "nonpayable",
      "type": "function"
    },
    {
      "inputs": [
        {
          "internalType": "address",
          "name": "from",
          "type": "address"
        },
        {
          "internalType": "address",
          "name": "to",
          "type": "address"
        },
        {
          "internalType": "uint256",
          "name": "tokenId",
          "type": "uint256"
        },
        {
          "internalType": "bytes",
          "name": "_data",
          "type": "bytes"
        }
      ],
      "name": "safeTransferFrom",
      "outputs": [],
      "stateMutability": "nonpayable",
      "type": "function"
    },
    {
      "inputs": [
        {
          "internalType": "bytes32",
          "name": "newRoot",
          "type": "bytes32"
        }
      ],
      "name": "setAllowlistMerkleRoot",
      "outputs": [],
      "stateMutability": "nonpayable",
      "type": "function"
    },
    {
      "inputs": [
        {
          "internalType": "address",
          "name": "operator",
          "type": "address"
        },
        {
          "internalType": "bool",
          "name": "approved",
          "type": "bool"
        }
      ],
      "name": "setApprovalForAll",
      "outputs": [],
      "stateMutability": "nonpayable",
      "type": "function"
    },
    {
      "inputs": [
        {
          "internalType": "string",
          "name": "newValue",
          "type": "string"
        }
      ],
      "name": "setBaseURI",
      "outputs": [],
      "stateMutability": "nonpayable",
      "type": "function"
    },
    {
      "inputs": [
        {
          "internalType": "string",
          "name": "newValue",
          "type": "string"
        }
      ],
      "name": "setContractURI",
      "outputs": [],
      "stateMutability": "nonpayable",
      "type": "function"
    },
    {
      "inputs": [
        {
          "components": [
            {
              "internalType": "address",
              "name": "recipient",
              "type": "address"
            },
            {
              "internalType": "uint16",
              "name": "bps",
              "type": "uint16"
            }
          ],
          "internalType": "struct IEIP2981RoyaltyOverride.TokenRoyalty",
          "name": "royalty",
          "type": "tuple"
        }
      ],
      "name": "setDefaultRoyalty",
      "outputs": [],
      "stateMutability": "nonpayable",
      "type": "function"
    },
    {
      "inputs": [
        {
          "internalType": "uint256",
          "name": "newValue",
          "type": "uint256"
        }
      ],
      "name": "setMaxSupply",
      "outputs": [],
      "stateMutability": "nonpayable",
      "type": "function"
    },
    {
      "inputs": [
        {
          "internalType": "address",
          "name": "addr",
          "type": "address"
        }
      ],
      "name": "setOpenSeaExchangeAddress",
      "outputs": [],
      "stateMutability": "nonpayable",
      "type": "function"
    },
    {
      "inputs": [
        {
          "internalType": "address",
          "name": "addr",
          "type": "address"
        }
      ],
      "name": "setOpenSeaProxyRegistryAddress",
      "outputs": [],
      "stateMutability": "nonpayable",
      "type": "function"
    },
    {
      "inputs": [
        {
          "internalType": "string",
          "name": "newValue",
          "type": "string"
        }
      ],
      "name": "setPlaceholderURI",
      "outputs": [],
      "stateMutability": "nonpayable",
      "type": "function"
    },
    {
      "inputs": [
        {
          "internalType": "uint256",
          "name": "newValue",
          "type": "uint256"
        }
      ],
      "name": "setPreSaleMaxMintPerWallet",
      "outputs": [],
      "stateMutability": "nonpayable",
      "type": "function"
    },
    {
      "inputs": [
        {
          "internalType": "uint256",
          "name": "newValue",
          "type": "uint256"
        }
      ],
      "name": "setPreSalePrice",
      "outputs": [],
      "stateMutability": "nonpayable",
      "type": "function"
    },
    {
      "inputs": [
        {
          "internalType": "address",
          "name": "_proceedsRecipient",
          "type": "address"
        }
      ],
      "name": "setProceedsRecipient",
      "outputs": [],
      "stateMutability": "nonpayable",
      "type": "function"
    },
    {
      "inputs": [
        {
          "internalType": "uint256",
          "name": "newValue",
          "type": "uint256"
        }
      ],
      "name": "setPublicSaleMaxMintPerTx",
      "outputs": [],
      "stateMutability": "nonpayable",
      "type": "function"
    },
    {
      "inputs": [
        {
          "internalType": "uint256",
          "name": "newValue",
          "type": "uint256"
        }
      ],
      "name": "setPublicSalePrice",
      "outputs": [],
      "stateMutability": "nonpayable",
      "type": "function"
    },
    {
      "inputs": [
        {
          "components": [
            {
              "internalType": "uint256",
              "name": "tokenId",
              "type": "uint256"
            },
            {
              "internalType": "address",
              "name": "recipient",
              "type": "address"
            },
            {
              "internalType": "uint16",
              "name": "bps",
              "type": "uint16"
            }
          ],
          "internalType": "struct IEIP2981RoyaltyOverride.TokenRoyaltyConfig[]",
          "name": "royaltyConfigs",
          "type": "tuple[]"
        }
      ],
      "name": "setTokenRoyalties",
      "outputs": [],
      "stateMutability": "nonpayable",
      "type": "function"
    },
    {
      "inputs": [
        {
          "internalType": "address",
          "name": "trustedForwarder",
          "type": "address"
        }
      ],
      "name": "setTrustedForwarder",
      "outputs": [],
      "stateMutability": "nonpayable",
      "type": "function"
    },
    {
      "inputs": [
        {
          "internalType": "bytes4",
          "name": "interfaceId",
          "type": "bytes4"
        }
      ],
      "name": "supportsInterface",
      "outputs": [
        {
          "internalType": "bool",
          "name": "",
          "type": "bool"
        }
      ],
      "stateMutability": "view",
      "type": "function"
    },
    {
      "inputs": [],
      "name": "symbol",
      "outputs": [
        {
          "internalType": "string",
          "name": "",
          "type": "string"
        }
      ],
      "stateMutability": "view",
      "type": "function"
    },
    {
      "inputs": [
        {
          "internalType": "bool",
          "name": "isActive",
          "type": "bool"
        }
      ],
      "name": "togglePreSaleStatus",
      "outputs": [],
      "stateMutability": "nonpayable",
      "type": "function"
    },
    {
      "inputs": [
        {
          "internalType": "bool",
          "name": "isActive",
          "type": "bool"
        }
      ],
      "name": "togglePublicSaleStatus",
      "outputs": [],
      "stateMutability": "nonpayable",
      "type": "function"
    },
    {
      "inputs": [
        {
          "internalType": "uint256",
          "name": "_tokenId",
          "type": "uint256"
        }
      ],
      "name": "tokenURI",
      "outputs": [
        {
          "internalType": "string",
          "name": "",
          "type": "string"
        }
      ],
      "stateMutability": "view",
      "type": "function"
    },
    {
      "inputs": [],
      "name": "totalSupply",
      "outputs": [
        {
          "internalType": "uint256",
          "name": "",
          "type": "uint256"
        }
      ],
      "stateMutability": "view",
      "type": "function"
    },
    {
      "inputs": [
        {
          "internalType": "address",
          "name": "from",
          "type": "address"
        },
        {
          "internalType": "address",
          "name": "to",
          "type": "address"
        },
        {
          "internalType": "uint256",
          "name": "tokenId",
          "type": "uint256"
        }
      ],
      "name": "transferFrom",
      "outputs": [],
      "stateMutability": "nonpayable",
      "type": "function"
    },
    {
      "inputs": [
        {
          "internalType": "address",
          "name": "newOwner",
          "type": "address"
        }
      ],
      "name": "transferOwnership",
      "outputs": [],
      "stateMutability": "nonpayable",
      "type": "function"
    },
    {
      "inputs": [],
      "name": "withdraw",
      "outputs": [],
      "stateMutability": "nonpayable",
      "type": "function"
    }
  ],
  "transactionHash": "0x9bbc08650d94d3a08c76aa6c2a3f967ab185670759ebddeedec6ea3aca0cb13d",
  "args": [
    {
      "name": "Collection",
      "symbol": "COL",
      "contractURI": "ipfs://contractURI",
      "placeholderURI": "ipfs://placeholderURI",
      "maxSupply": 0,
      "preSalePrice": 0,
      "preSaleMaxMintPerWallet": 0,
      "publicSalePrice": 0,
      "publicSaleMaxMintPerTx": 10,
      "defaultRoyaltyAddress": "0x0000000000000000000000000000000000000000",
      "defaultRoyaltyBps": 0,
      "proceedsRecipient": "0x0000000000000000000000000000000000000000",
      "openSeaProxyRegistryAddress": "0x0000000000000000000000000000000000000000",
      "openSeaExchangeAddress": "0x0000000000000000000000000000000000000000",
      "trustedForwarder": "0x0000000000000000000000000000000000000000"
    }
  ],
  "numDeployments": 2,
  "solcInputHash": "75b6f3caca0ee30cab66da7e8668151e",
  "bytecode": "0x60806040523480156200001157600080fd5b506040516200579838038062005798833981016040819052620000349162000de1565b805160208201516200004f620000496200009a565b620000b6565b81516200006490600490602085019062000c06565b5080516200007a90600590602084019062000c06565b5060006002555050600160135562000093813362000111565b506200105c565b6000620000b16200027960201b620023c01760201c565b905090565b600080546001600160a01b038381166201000081810262010000600160b01b0319851617855560405193049190911692909183917f8be0079c531659141344cd1fd0a4f28419497f9722a3daafe3b4186f6b6457e091a35050565b60006200011f6001620002b2565b9050801562000138576000805461ff0019166101001790555b6200014560008362000364565b6200015082620000b6565b8251602084015160408501516200016992919062000374565b60608301516200017990620003ab565b60808301516200018990620003e3565b6200019362000418565b6200019e826200044e565b620001b88360a001518460c001516200048360201b60201c565b620001d38360e00151846101000151620004ca60201b60201c565b610160830151620001e49062000500565b620002008361012001518461014001516200053560201b60201c565b6200021c836101800151846101a001516200056b60201b60201c565b6101c08301516200022d90620005a1565b801562000274576000805461ff0019169055604051600181527f7f26b83ff96e1f2b6a682f133852f6798a09c465da95921460cefb38474024989060200160405180910390a15b505050565b600a546000906001600160a01b03163314156200029d575060131936013560601c90565b620000b1620005d660201b620023e21760201c565b60008054610100900460ff16156200031b578160ff166001148015620002eb5750620002e930620005da60201b620023e61760201c565b155b620003135760405162461bcd60e51b81526004016200030a9062000f86565b60405180910390fd5b506000919050565b60005460ff808416911610620003455760405162461bcd60e51b81526004016200030a9062000f86565b506000805460ff191660ff92909216919091179055600190565b919050565b620003708282620005e9565b5050565b600054610100900460ff166200039e5760405162461bcd60e51b81526004016200030a9062000fd4565b620002748383836200068f565b600054610100900460ff16620003d55760405162461bcd60e51b81526004016200030a9062000fd4565b620003e08162000731565b50565b600054610100900460ff166200040d5760405162461bcd60e51b81526004016200030a9062000fd4565b620003e08162000795565b600054610100900460ff16620004425760405162461bcd60e51b81526004016200030a9062000fd4565b6200044c620007fa565b565b600054610100900460ff16620004785760405162461bcd60e51b81526004016200030a9062000fd4565b620003e08162000836565b600054610100900460ff16620004ad5760405162461bcd60e51b81526004016200030a9062000fd4565b620004bf63209680f760e11b6200089e565b601491909155601555565b600054610100900460ff16620004f45760405162461bcd60e51b81526004016200030a9062000fd4565b62000370828262000922565b600054610100900460ff166200052a5760405162461bcd60e51b81526004016200030a9062000fd4565b620003e08162000969565b600054610100900460ff166200055f5760405162461bcd60e51b81526004016200030a9062000fd4565b620003708282620009cd565b600054610100900460ff16620005955760405162461bcd60e51b81526004016200030a9062000fd4565b62000370828262000a6a565b600054610100900460ff16620005cb5760405162461bcd60e51b81526004016200030a9062000fd4565b620003e08162000ad4565b3390565b6001600160a01b03163b151590565b6000828152601c602090815260408083206001600160a01b038516845290915290205460ff1662000370576000828152601c602090815260408083206001600160a01b03851684529091529020805460ff191660011790556200064b6200009a565b6001600160a01b0316816001600160a01b0316837f2f8788117e7eff1d82e926ec794901d17c78024a50270940304540a733656f0d60405160405180910390a45050565b600054610100900460ff16620006b95760405162461bcd60e51b81526004016200030a9062000fd4565b8251620006ce90600b90602086019062000c06565b508151620006e490600c90602085019062000c06565b508051620006fa90600d90602084019062000c06565b506200070d633d96f4ff60e11b6200089e565b6200071f6380ac58cd60e01b6200089e565b62000274635b5e139f60e01b6200089e565b600054610100900460ff166200075b5760405162461bcd60e51b81526004016200030a9062000fd4565b80516200077090600e90602084019062000c06565b506200078363e91f76a560e01b6200089e565b620003e0635b5e139f60e01b6200089e565b600054610100900460ff16620007bf5760405162461bcd60e51b81526004016200030a9062000fd4565b6011819055620007d66330f487b560e11b6200089e565b620007e86380ac58cd60e01b6200089e565b620003e063184371e560e31b6200089e565b600054610100900460ff16620008245760405162461bcd60e51b81526004016200030a9062000fd4565b6200044c631aa1577160e11b6200089e565b600054610100900460ff16620008605760405162461bcd60e51b81526004016200030a9062000fd4565b62000872631a056e7160e01b6200089e565b620003e07f9f2df0fed2c77648de5860a4cc508cd0818c85b8b8a1ab4ceeef8d981c8956a68262000364565b6001600160e01b03198082161415620008fa5760405162461bcd60e51b815260206004820152601c60248201527f4552433136353a20696e76616c696420696e746572666163652069640000000060448201526064016200030a565b6001600160e01b0319166000908152600160208190526040909120805460ff19169091179055565b600054610100900460ff166200094c5760405162461bcd60e51b81526004016200030a9062000fd4565b6200095e6317e0bac360e31b6200089e565b601991909155601a55565b600054610100900460ff16620009935760405162461bcd60e51b81526004016200030a9062000fd4565b620009a563e2b3173560e01b6200089e565b601b80546001600160a01b0390921661010002610100600160a81b0319909216919091179055565b600054610100900460ff16620009f75760405162461bcd60e51b81526004016200030a9062000fd4565b62000a09633a47bf5160e11b6200089e565b62000a1b63152a902d60e11b6200089e565b62000a2d63c69dbd8f60e01b6200089e565b62000a3f63656cb66560e11b6200089e565b604080518082019091526001600160a01b038316815261ffff82166020820152620002748162000b20565b600054610100900460ff1662000a945760405162461bcd60e51b81526004016200030a9062000fd4565b62000aa6638d29851f60e01b6200089e565b602180546001600160a01b039384166001600160a01b03199182161790915560228054929093169116179055565b600054610100900460ff1662000afe5760405162461bcd60e51b81526004016200030a9062000fd4565b600a80546001600160a01b0319166001600160a01b0392909216919091179055565b612710816020015161ffff161062000b695760405162461bcd60e51b815260206004820152600b60248201526a496e76616c69642062707360a81b60448201526064016200030a565b60408051808201825282516001600160a01b03168082526020808501805161ffff1691909301819052601d8054600160a01b9092026001600160b01b03199092169092171790558251905191517f2c5ea6e4103e78cb101e796fb2dace540362fc542cbff5145eaa24af7dd8fe419262000bfb92916001600160a01b0392909216825261ffff16602082015260400190565b60405180910390a150565b82805462000c14906200101f565b90600052602060002090601f01602090048101928262000c38576000855562000c83565b82601f1062000c5357805160ff191683800117855562000c83565b8280016001018555821562000c83579182015b8281111562000c8357825182559160200191906001019062000c66565b5062000c9192915062000c95565b5090565b5b8082111562000c91576000815560010162000c96565b634e487b7160e01b600052604160045260246000fd5b6040516101e081016001600160401b038111828210171562000ce85762000ce862000cac565b60405290565b604051601f8201601f191681016001600160401b038111828210171562000d195762000d1962000cac565b604052919050565b600082601f83011262000d3357600080fd5b81516001600160401b0381111562000d4f5762000d4f62000cac565b602062000d65601f8301601f1916820162000cee565b828152858284870101111562000d7a57600080fd5b60005b8381101562000d9a57858101830151828201840152820162000d7d565b8381111562000dac5760008385840101525b5095945050505050565b80516001600160a01b03811681146200035f57600080fd5b805161ffff811681146200035f57600080fd5b60006020828403121562000df457600080fd5b81516001600160401b038082111562000e0c57600080fd5b908301906101e0828603121562000e2257600080fd5b62000e2c62000cc2565b82518281111562000e3c57600080fd5b62000e4a8782860162000d21565b82525060208301518281111562000e6057600080fd5b62000e6e8782860162000d21565b60208301525060408301518281111562000e8757600080fd5b62000e958782860162000d21565b60408301525060608301518281111562000eae57600080fd5b62000ebc8782860162000d21565b6060830152506080830151608082015260a083015160a082015260c083015160c082015260e083015160e082015261010091508183015182820152610120915062000f0982840162000db6565b82820152610140915062000f1f82840162000dce565b82820152610160915062000f3582840162000db6565b82820152610180915062000f4b82840162000db6565b828201526101a0915062000f6182840162000db6565b828201526101c0915062000f7782840162000db6565b91810191909152949350505050565b6020808252602e908201527f496e697469616c697a61626c653a20636f6e747261637420697320616c72656160408201526d191e481a5b9a5d1a585b1a5e995960921b606082015260800190565b6020808252602b908201527f496e697469616c697a61626c653a20636f6e7472616374206973206e6f74206960408201526a6e697469616c697a696e6760a81b606082015260800190565b600181811c908216806200103457607f821691505b602082108114156200105657634e487b7160e01b600052602260045260246000fd5b50919050565b61472c806200106c6000396000f3fe6080604052600436106103415760003560e01c806301ffc9a7146103465780630653aca51461037b57806306fdde03146103ca578063081812fc146103ec57806308abf02614610419578063095ea7b31461043b578063167446071461045b57806318160ddd146104705780631a056e711461049357806323b872dd146104b3578063248a9ca3146104d35780632a55205a146104f35780632d8e85b0146105325780632f2ff15d1461055257806331db3832146105725780633542aee2146105875780633574a2dd146105a757806336568abe146105c75780633acf404d146105e75780633c0e8f2c146105fd5780633ccfd60b1461061d57806342842e0e14610632578063464bd6401461065257806348d925bb1461066c5780634972471c1461068c5780634f972f5f146106ad5780635136dcc7146106cd57806355f804b3146106ed57806356c022bb1461070d578063572b6c051461072d5780635a9b0b891461074d5780636352211e146107b05780636c079cfc146107d05780636f8b44b0146107f057806370a0823114610810578063715018a6146108305780637313cba9146108455780637885fdc71461085a578063791a2519146108955780637d7eee42146108b55780637e980342146108d55780638da5cb5b146108ea57806391d14854146108ff578063938e3d7b1461091f57806395d89b411461093f5780639b6860c8146109545780639e6b2c5b1461096a578063a217fddf1461097d578063a22cb46514610992578063a304ee76146109b2578063aaeaca48146109d7578063b27c6f2d146109ed578063b6c693e514610a03578063b88d4fde14610a1d578063c87b56dd14610a3d578063cad96cca14610a5d578063d539139314610a8a578063d547741f14610aac578063d547cfb714610acc578063d5abeb0114610ae1578063d79ff99d14610af7578063da74222814610b0a578063e3b9a7e514610b2a578063e757c17d14610b4a578063e7bc820814610b60578063e8a3d48514610b75578063e985e9c514610b8a578063ef60ceaf14610baa578063efa7f90c14610bca578063f2fde38b14610bea578063f384702f14610c0a578063f74bbf5914610c24578063f95df41414610c44578063fb565bfd14610c64575b600080fd5b34801561035257600080fd5b50610366610361366004613a10565b610c7e565b60405190151581526020015b60405180910390f35b34801561038757600080fd5b5061039b610396366004613a2d565b610c8f565b60408051825181526020808401516001600160a01b0316908201529181015161ffff1690820152606001610372565b3480156103d657600080fd5b506103df610d14565b6040516103729190613a9e565b3480156103f857600080fd5b5061040c610407366004613a2d565b610d23565b6040516103729190613ab1565b34801561042557600080fd5b50610439610434366004613ae5565b610d67565b005b34801561044757600080fd5b50610439610456366004613b02565b610dd1565b34801561046757600080fd5b50610439610e71565b34801561047c57600080fd5b50600354600254035b604051908152602001610372565b34801561049f57600080fd5b506104396104ae366004613b02565b610ebf565b3480156104bf57600080fd5b506104396104ce366004613b2e565b610f25565b3480156104df57600080fd5b506104856104ee366004613a2d565b6110a4565b3480156104ff57600080fd5b5061051361050e366004613b6f565b6110b9565b604080516001600160a01b039093168352602083019190915201610372565b34801561053e57600080fd5b5061043961054d366004613ba1565b61117e565b34801561055e57600080fd5b5061043961056d366004613bbc565b6111d0565b34801561057e57600080fd5b506104396111f1565b34801561059357600080fd5b506104396105a2366004613b02565b61126f565b3480156105b357600080fd5b506104396105c2366004613cc0565b6112ae565b3480156105d357600080fd5b506104396105e2366004613bbc565b611300565b3480156105f357600080fd5b5061048560165481565b34801561060957600080fd5b50610439610618366004613a2d565b61138a565b34801561062957600080fd5b506104396113ce565b34801561063e57600080fd5b5061043961064d366004613b2e565b611460565b34801561065e57600080fd5b506017546103669060ff1681565b34801561067857600080fd5b50610439610687366004613d06565b61147b565b34801561069857600080fd5b50601b5461036690600160a81b900460ff1681565b3480156106b957600080fd5b506104396106c8366004613ba1565b6115a8565b3480156106d957600080fd5b506104396106e8366004613e9f565b6115fa565b3480156106f957600080fd5b50610439610708366004613cc0565b611694565b34801561071957600080fd5b50600a5461040c906001600160a01b031681565b34801561073957600080fd5b50610366610748366004613ae5565b611709565b34801561075957600080fd5b5061076261171d565b604080519a8b5260208b0199909952978901969096526060880194909452608087019290925260a0860152151560c085015260e0840152610100830152151561012082015261014001610372565b3480156107bc57600080fd5b5061040c6107cb366004613a2d565b6118ac565b3480156107dc57600080fd5b506104396107eb366004613ae5565b6118b7565b3480156107fc57600080fd5b5061043961080b366004613a2d565b611918565b34801561081c57600080fd5b5061048561082b366004613ae5565b61197f565b34801561083c57600080fd5b506104396119cd565b34801561085157600080fd5b506103df611a18565b34801561086657600080fd5b50601d54610887906001600160a01b03811690600160a01b900461ffff1682565b604051610372929190613f13565b3480156108a157600080fd5b506104396108b0366004613a2d565b611aaa565b3480156108c157600080fd5b506104396108d0366004613a2d565b611aee565b3480156108e157600080fd5b50610485611b32565b3480156108f657600080fd5b5061040c611b3e565b34801561090b57600080fd5b5061036661091a366004613bbc565b611b53565b34801561092b57600080fd5b5061043961093a366004613cc0565b611b7e565b34801561094b57600080fd5b506103df611bd0565b34801561096057600080fd5b5061048560195481565b610439610978366004613f74565b611bda565b34801561098957600080fd5b50610485600081565b34801561099e57600080fd5b506104396109ad366004613fbf565b611db8565b3480156109be57600080fd5b50601b5461040c9061010090046001600160a01b031681565b3480156109e357600080fd5b5061048560155481565b3480156109f957600080fd5b50610485601a5481565b348015610a0f57600080fd5b50601b546103669060ff1681565b348015610a2957600080fd5b50610439610a38366004613feb565b611e4e565b348015610a4957600080fd5b506103df610a58366004613a2d565b611e98565b348015610a6957600080fd5b50610a7d610a78366004613a2d565b611ea3565b604051610372919061406a565b348015610a9657600080fd5b506104856000805160206146b783398151915281565b348015610ab857600080fd5b50610439610ac7366004613bbc565b611f5e565b348015610ad857600080fd5b506103df611f7a565b348015610aed57600080fd5b5061048560115481565b610439610b05366004613b02565b611f89565b348015610b1657600080fd5b50610439610b25366004613ae5565b612082565b348015610b3657600080fd5b50610366610b453660046140cb565b6120e3565b348015610b5657600080fd5b5061048560145481565b348015610b6c57600080fd5b50610439612131565b348015610b8157600080fd5b506103df61217f565b348015610b9657600080fd5b50610366610ba5366004614106565b61218e565b348015610bb657600080fd5b50610439610bc5366004614134565b6121a1565b348015610bd657600080fd5b50610439610be5366004613ae5565b6121fa565b348015610bf657600080fd5b50610439610c05366004613ae5565b61228b565b348015610c1657600080fd5b506012546103669060ff1681565b348015610c3057600080fd5b50610439610c3f366004613a2d565b612338565b348015610c5057600080fd5b50610439610c5f366004613a2d565b61237c565b348015610c7057600080fd5b506010546103669060ff1681565b6000610c89826123f5565b92915050565b6040805160608101825260008082526020820181905291810182905290610cb7601f84612431565b6000818152601e60209081526040918290208251808401845290546001600160a01b03808216835261ffff600160a01b90920482168385019081528551606081018752968752925116928501929092525116908201529392505050565b6060610d1e61243d565b905090565b6000610d2e8261244c565b610d4b576040516333d1c03960e21b815260040160405180910390fd5b506000908152600860205260409020546001600160a01b031690565b610d6f612474565b6001600160a01b0316610d80611b3e565b6001600160a01b031614610daf5760405162461bcd60e51b8152600401610da69061414c565b60405180910390fd5b602180546001600160a01b0319166001600160a01b0392909216919091179055565b6000610ddc826118ac565b9050336001600160a01b03821614610e1557610df8813361218e565b610e15576040516367d9dca160e11b815260040160405180910390fd5b60008281526008602052604080822080546001600160a01b0319166001600160a01b0387811691821790925591518593918516917f8c5be1e5ebec7d5bd14f71427d1e84f3dd0314c0f7b2291e5b200ac8c7c3b92591a4505050565b610e79612474565b6001600160a01b0316610e8a611b3e565b6001600160a01b031614610eb05760405162461bcd60e51b8152600401610da69061414c565b6012805460ff19166001179055565b610ed96000805160206146b783398151915261091a612474565b610f175760405162461bcd60e51b815260206004820152600f60248201526e4e4f545f4d494e5445525f524f4c4560881b6044820152606401610da6565b610f21828261247e565b5050565b6000610f30826124e6565b9050836001600160a01b0316816001600160a01b031614610f635760405162a1148160e81b815260040160405180910390fd5b60008281526008602052604090208054338082146001600160a01b03881690911417610fb057610f93863361218e565b610fb057604051632ce44b5f60e11b815260040160405180910390fd5b6001600160a01b038516610fd757604051633a954ecd60e21b815260040160405180910390fd5b8015610fe257600082555b6001600160a01b0386811660009081526007602052604080822080546000190190559187168152208054600101905561101f85600160e11b612547565b600085815260066020526040902055600160e11b831661106d576001840160008181526006602052604090205461106b57600254811461106b5760008181526006602052604090208490555b505b83856001600160a01b0316876001600160a01b03166000805160206146d783398151915260405160405180910390a4505050505050565b6000908152601c602052604090206001015490565b6000828152601e602052604081205481906001600160a01b03161561111e576000848152601e60205260409020546001600160a01b038116906127109061110b90600160a01b900461ffff1686614197565b61111591906141cc565b91509150611177565b601d546001600160a01b0316158015906111445750601d54600160a01b900461ffff1615155b1561117057601d546001600160a01b038116906127109061110b90600160a01b900461ffff1686614197565b5060009050805b9250929050565b611186612474565b6001600160a01b0316611197611b3e565b6001600160a01b0316146111bd5760405162461bcd60e51b8152600401610da69061414c565b601b805460ff1916911515919091179055565b6111d9826110a4565b6111e28161255c565b6111ec838361256d565b505050565b6111f9612474565b6001600160a01b031661120a611b3e565b6001600160a01b0316146112305760405162461bcd60e51b8152600401610da69061414c565b601b54600160a81b900460ff161561125a5760405162461bcd60e51b8152600401610da6906141e0565b601b805460ff60a81b1916600160a81b179055565b611277612474565b6001600160a01b0316611288611b3e565b6001600160a01b031614610f175760405162461bcd60e51b8152600401610da69061414c565b6112b6612474565b6001600160a01b03166112c7611b3e565b6001600160a01b0316146112ed5760405162461bcd60e51b8152600401610da69061414c565b8051610f2190600e906020840190613961565b611308612474565b6001600160a01b0316816001600160a01b0316146113805760405162461bcd60e51b815260206004820152602f60248201527f416363657373436f6e74726f6c3a2063616e206f6e6c792072656e6f756e636560448201526e103937b632b9903337b91039b2b63360891b6064820152608401610da6565b610f2182826125f4565b611392612474565b6001600160a01b03166113a3611b3e565b6001600160a01b0316146113c95760405162461bcd60e51b8152600401610da69061414c565b601a55565b601b5461010090046001600160a01b03166114215760405162461bcd60e51b8152602060048201526013602482015272115490cdcc8c4bd393d7d49150d25412515395606a1b6044820152606401610da6565b601b54604051479161010090046001600160a01b0316906108fc8315029083906000818181858888f19350505050158015610f21573d6000803e3d6000fd5b6111ec83838360405180602001604052806000815250611e4e565b60006114876001612679565b9050801561149f576000805461ff0019166101001790555b6114aa60008361270d565b6114b382612717565b6114ca836000015184602001518560400151612772565b6114d783606001516127a4565b6114e483608001516127d4565b6114ec612804565b6114f582612833565b6115078360a001518460c00151612863565b61151a8360e001518461010001516128a5565b6115288361016001516128d6565b61153c836101200151846101400151612906565b611550836101800151846101a00151612937565b61155e836101c00151612968565b80156111ec576000805461ff0019169055604051600181527f7f26b83ff96e1f2b6a682f133852f6798a09c465da95921460cefb38474024989060200160405180910390a1505050565b6115b0612474565b6001600160a01b03166115c1611b3e565b6001600160a01b0316146115e75760405162461bcd60e51b8152600401610da69061414c565b6017805460ff1916911515919091179055565b611602612474565b6001600160a01b0316611613611b3e565b6001600160a01b0316146116395760405162461bcd60e51b8152600401610da69061414c565b610f218282808060200260200160405190810160405280939291908181526020016000905b8282101561168a5761167b60608302860136819003810190614211565b8152602001906001019061165e565b5050505050612998565b61169c612474565b6001600160a01b03166116ad611b3e565b6001600160a01b0316146116d35760405162461bcd60e51b8152600401610da69061414c565b60105460ff16156116f65760405162461bcd60e51b8152600401610da690614277565b8051610f2190600f906020840190613961565b600a546001600160a01b0391821691161490565b60008080808080808080808080611732612474565b6001600160a01b0316146117bd57306370a0823161174e612474565b6040518263ffffffff1660e01b815260040161176a9190613ab1565b60206040518083038186803b15801561178257600080fd5b505afa158015611796573d6000803e3d6000fd5b505050506040513d601f19601f820116820180604052508101906117ba91906142a0565b90505b601154306001600160a01b03166318160ddd6040518163ffffffff1660e01b815260040160206040518083038186803b1580156117f957600080fd5b505afa15801561180d573d6000803e3d6000fd5b505050506040513d601f19601f8201168201806040525081019061183191906142a0565b8260145460155460186000611844612474565b6001600160a01b03166001600160a01b0316815260200190815260200160002054601760009054906101000a900460ff16601954601a54601b60009054906101000a900460ff169a509a509a509a509a509a509a509a509a509a505090919293949596979899565b6000610c89826124e6565b6118bf612474565b6001600160a01b03166118d0611b3e565b6001600160a01b0316146118f65760405162461bcd60e51b8152600401610da69061414c565b602280546001600160a01b0319166001600160a01b0392909216919091179055565b611920612474565b6001600160a01b0316611931611b3e565b6001600160a01b0316146119575760405162461bcd60e51b8152600401610da69061414c565b60125460ff161561197a5760405162461bcd60e51b8152600401610da690614277565b601155565b60006001600160a01b0382166119a8576040516323d3ad8160e21b815260040160405180910390fd5b506001600160a01b03166000908152600760205260409020546001600160401b031690565b6119d5612474565b6001600160a01b03166119e6611b3e565b6001600160a01b031614611a0c5760405162461bcd60e51b8152600401610da69061414c565b611a166000612717565b565b6060600e8054611a27906142b9565b80601f0160208091040260200160405190810160405280929190818152602001828054611a53906142b9565b8015611aa05780601f10611a7557610100808354040283529160200191611aa0565b820191906000526020600020905b815481529060010190602001808311611a8357829003601f168201915b5050505050905090565b611ab2612474565b6001600160a01b0316611ac3611b3e565b6001600160a01b031614611ae95760405162461bcd60e51b8152600401610da69061414c565b601955565b611af6612474565b6001600160a01b0316611b07611b3e565b6001600160a01b031614611b2d5760405162461bcd60e51b8152600401610da69061414c565b601455565b6000610d1e601f612b3f565b6000546201000090046001600160a01b031690565b6000918252601c602090815260408084206001600160a01b0393909316845291905290205460ff1690565b611b86612474565b6001600160a01b0316611b97611b3e565b6001600160a01b031614611bbd5760405162461bcd60e51b8152600401610da69061414c565b8051610f2190600d906020840190613961565b6060610d1e612b49565b60026013541415611bfd5760405162461bcd60e51b8152600401610da6906142ee565b600260135560175460ff16611c4a5760405162461bcd60e51b81526020600482015260136024820152725052455f53414c455f4e4f545f41435449564560681b6044820152606401610da6565b6000611c54612474565b9050611c9f838380806020026020016040519081016040528093929190818152602001838360200280828437600092019190915250506016549150611c9a905084612b58565b612b92565b611ce25760405162461bcd60e51b8152602060048201526014602482015273282922afa9a0a622afaba927a723afa82927a7a360611b6044820152606401610da6565b6015546001600160a01b038216600090815260186020526040902054611d09908690614325565b1115611d485760405162461bcd60e51b815260206004820152600e60248201526d14149157d4d0531157d31253525560921b6044820152606401610da6565b3484601454611d579190614197565b1115611d755760405162461bcd60e51b8152600401610da69061433d565b6001600160a01b03811660009081526018602052604081208054869290611d9d908490614325565b90915550611dad9050818561247e565b505060016013555050565b6001600160a01b038216331415611de25760405163b06307db60e01b815260040160405180910390fd5b3360008181526009602090815260408083206001600160a01b03871680855290835292819020805460ff191686151590811790915590519081529192917f17307eab39ab6107e8899845ad3d59bd9653f200f220920489ca2b5937696c31910160405180910390a35050565b611e59848484610f25565b6001600160a01b0383163b15611e9257611e7584848484612ba8565b611e92576040516368d2bf6b60e11b815260040160405180910390fd5b50505050565b6060610c8982612c9f565b604080516001808252818301909252606091816020015b6040805180820190915260008082526020820152815260200190600190039081611eba575050601d5481519192506001600160a01b0316908290600090611f0357611f0361436a565b60209081029190910101516001600160a01b03919091169052601d548151600160a01b90910461ffff16908290600090611f3f57611f3f61436a565b6020908102919091018101516001600160601b03909216910152919050565b611f67826110a4565b611f708161255c565b6111ec83836125f4565b6060600f8054611a27906142b9565b60026013541415611fac5760405162461bcd60e51b8152600401610da6906142ee565b6002601355601b5460ff16611ffc5760405162461bcd60e51b81526020600482015260166024820152755055424c49435f53414c455f4e4f545f41435449564560501b6044820152606401610da6565b601a548111156120425760405162461bcd60e51b8152602060048201526011602482015270141550931250d7d4d0531157d312535255607a1b6044820152606401610da6565b34816019546120519190614197565b111561206f5760405162461bcd60e51b8152600401610da69061433d565b612079828261247e565b50506001601355565b61208a612474565b6001600160a01b031661209b611b3e565b6001600160a01b0316146120c15760405162461bcd60e51b8152600401610da69061414c565b600a80546001600160a01b0319166001600160a01b0392909216919091179055565b6000612129838380806020026020016040519081016040528093929190818152602001838360200280828437600092019190915250506016549150611c9a905087612b58565b949350505050565b612139612474565b6001600160a01b031661214a611b3e565b6001600160a01b0316146121705760405162461bcd60e51b8152600401610da69061414c565b6010805460ff19166001179055565b6060600d8054611a27906142b9565b600061219a8383612d78565b9392505050565b6121a9612474565b6001600160a01b03166121ba611b3e565b6001600160a01b0316146121e05760405162461bcd60e51b8152600401610da69061414c565b6121f76121f236839003830183614380565b612e89565b50565b612202612474565b6001600160a01b0316612213611b3e565b6001600160a01b0316146122395760405162461bcd60e51b8152600401610da69061414c565b601b54600160a81b900460ff16156122635760405162461bcd60e51b8152600401610da6906141e0565b601b80546001600160a01b0390921661010002610100600160a81b0319909216919091179055565b612293612474565b6001600160a01b03166122a4611b3e565b6001600160a01b0316146122ca5760405162461bcd60e51b8152600401610da69061414c565b6001600160a01b03811661232f5760405162461bcd60e51b815260206004820152602660248201527f4f776e61626c653a206e6577206f776e657220697320746865207a65726f206160448201526564647265737360d01b6064820152608401610da6565b6121f781612717565b612340612474565b6001600160a01b0316612351611b3e565b6001600160a01b0316146123775760405162461bcd60e51b8152600401610da69061414c565b601555565b612384612474565b6001600160a01b0316612395611b3e565b6001600160a01b0316146123bb5760405162461bcd60e51b8152600401610da69061414c565b601655565b60006123cb33611709565b156123dd575060131936013560601c90565b503390565b3390565b6001600160a01b03163b151590565b60006301ffc9a760e01b6001600160e01b031983161480610c895750506001600160e01b03191660009081526001602052604090205460ff1690565b600061219a8383612f34565b6060600b8054611a27906142b9565b600060025482108015610c89575050600090815260066020526040902054600160e01b161590565b6000610d1e6123c0565b6011548161248f6003546002540390565b6124999190614325565b11156124dc5760405162461bcd60e51b8152602060048201526012602482015271455843454544535f4d41585f535550504c5960701b6044820152606401610da6565b610f218282612f5e565b60008160025481101561252e57600081815260066020526040902054600160e01b811661252c575b8061219a57506000190160008181526006602052604090205461250e565b505b604051636f96cda160e11b815260040160405180910390fd5b4260a01b176001600160a01b03919091161790565b6121f781612568612474565b612f78565b6125778282611b53565b610f21576000828152601c602090815260408083206001600160a01b03851684529091529020805460ff191660011790556125b0612474565b6001600160a01b0316816001600160a01b0316837f2f8788117e7eff1d82e926ec794901d17c78024a50270940304540a733656f0d60405160405180910390a45050565b6125fe8282611b53565b15610f21576000828152601c602090815260408083206001600160a01b03851684529091529020805460ff19169055612635612474565b6001600160a01b0316816001600160a01b0316837ff6391f5c32d9c69d2a47ea670b442974b53935d1edc7fd64eb21e047a839171b60405160405180910390a45050565b60008054610100900460ff16156126c7578160ff1660011480156126a357506126a1306123e6565b155b6126bf5760405162461bcd60e51b8152600401610da6906143dc565b506000919050565b60005460ff8084169116106126ee5760405162461bcd60e51b8152600401610da6906143dc565b506000805460ff191660ff92909216919091179055600190565b919050565b610f21828261256d565b600080546001600160a01b038381166201000081810262010000600160b01b0319851617855560405193049190911692909183917f8be0079c531659141344cd1fd0a4f28419497f9722a3daafe3b4186f6b6457e091a35050565b600054610100900460ff166127995760405162461bcd60e51b8152600401610da69061442a565b6111ec838383612fdc565b600054610100900460ff166127cb5760405162461bcd60e51b8152600401610da69061442a565b6121f78161306f565b600054610100900460ff166127fb5760405162461bcd60e51b8152600401610da69061442a565b6121f7816130ca565b600054610100900460ff1661282b5760405162461bcd60e51b8152600401610da69061442a565b611a16613126565b600054610100900460ff1661285a5760405162461bcd60e51b8152600401610da69061442a565b6121f78161315d565b600054610100900460ff1661288a5760405162461bcd60e51b8152600401610da69061442a565b61289a63209680f760e11b6131ac565b601491909155601555565b600054610100900460ff166128cc5760405162461bcd60e51b8152600401610da69061442a565b610f21828261322d565b600054610100900460ff166128fd5760405162461bcd60e51b8152600401610da69061442a565b6121f78161326f565b600054610100900460ff1661292d5760405162461bcd60e51b8152600401610da69061442a565b610f2182826132a6565b600054610100900460ff1661295e5760405162461bcd60e51b8152600401610da69061442a565b610f218282613336565b600054610100900460ff1661298f5760405162461bcd60e51b8152600401610da69061442a565b6121f78161339b565b60005b8151811015610f215760008282815181106129b8576129b861436a565b60200260200101519050612710816040015161ffff16106129eb5760405162461bcd60e51b8152600401610da690614475565b60208101516001600160a01b0316612a645780516000908152601e6020526040902080546001600160b01b03191690558051612a2990601f906133c2565b5080516040519081527fa2870857763bd9ae76c957f869f16b31c18dd3bb4c7b4d3a4496dc5c57c657f99060200160405180910390a1612b2c565b6040805180820182526020808401516001600160a01b0390811683528484015161ffff90811683850190815286516000908152601e90945294909220925183549451909216600160a01b026001600160b01b03199094169116179190911790558051612ad290601f906133ce565b50805160208083015160408085015181519485526001600160a01b039092169284019290925261ffff1682820152517f389b70fb0887f01e83784eb1c4c589f740eca53b00ed0f45e41db5d079719abb9181900360600190a15b5080612b378161449a565b91505061299b565b6000610c89825490565b6060600c8054611a27906142b9565b6040516001600160601b0319606083901b166020820152600090603401604051602081830303815290604052805190602001209050919050565b600082612b9f85846133da565b14949350505050565b604051630a85bd0160e11b81526000906001600160a01b0385169063150b7a0290612bdd9033908990889088906004016144b5565b602060405180830381600087803b158015612bf757600080fd5b505af1925050508015612c27575060408051601f3d908101601f19168201909252612c24918101906144f2565b60015b612c82573d808015612c55576040519150601f19603f3d011682016040523d82523d6000602084013e612c5a565b606091505b508051612c7a576040516368d2bf6b60e11b815260040160405180910390fd5b805181602001fd5b6001600160e01b031916630a85bd0160e11b149050949350505050565b60606000600f8054612cb0906142b9565b905011612d4757600e8054612cc4906142b9565b80601f0160208091040260200160405190810160405280929190818152602001828054612cf0906142b9565b8015612d3d5780601f10612d1257610100808354040283529160200191612d3d565b820191906000526020600020905b815481529060010190602001808311612d2057829003601f168201915b5050505050610c89565b600f612d528361344e565b604051602001612d6392919061452b565b60405160208183030381529060405292915050565b6021546000906001600160a01b031615612e2c5760215460405163c455279160e01b81526001600160a01b0391821691841690829063c455279190612dc1908890600401613ab1565b60206040518083038186803b158015612dd957600080fd5b505afa158015612ded573d6000803e3d6000fd5b505050506040513d601f19601f82011682018060405250810190612e1191906145d2565b6001600160a01b03161415612e2a576001915050610c89565b505b6022546001600160a01b031615612e5b576022546001600160a01b0383811691161415612e5b57506001610c89565b6001600160a01b0380841660009081526009602090815260408083209386168352929052205460ff1661219a565b612710816020015161ffff1610612eb25760405162461bcd60e51b8152600401610da690614475565b60408051808201825282516001600160a01b03168082526020808501805161ffff1691909301819052601d80546001600160b01b031916909217600160a01b9091021790558251905191517f2c5ea6e4103e78cb101e796fb2dace540362fc542cbff5145eaa24af7dd8fe4192612f299291613f13565b60405180910390a150565b6000826000018281548110612f4b57612f4b61436a565b9060005260206000200154905092915050565b610f2182826040518060200160405280600081525061354b565b612f828282611b53565b610f2157612f9a816001600160a01b031660146135b8565b612fa58360206135b8565b604051602001612fb69291906145ef565b60408051601f198184030181529082905262461bcd60e51b8252610da691600401613a9e565b600054610100900460ff166130035760405162461bcd60e51b8152600401610da69061442a565b825161301690600b906020860190613961565b50815161302a90600c906020850190613961565b50805161303e90600d906020840190613961565b5061304f633d96f4ff60e11b6131ac565b61305f6380ac58cd60e01b6131ac565b6111ec635b5e139f60e01b6131ac565b600054610100900460ff166130965760405162461bcd60e51b8152600401610da69061442a565b80516130a990600e906020840190613961565b506130ba63e91f76a560e01b6131ac565b6121f7635b5e139f60e01b6131ac565b600054610100900460ff166130f15760405162461bcd60e51b8152600401610da69061442a565b60118190556131066330f487b560e11b6131ac565b6131166380ac58cd60e01b6131ac565b6121f763184371e560e31b6131ac565b600054610100900460ff1661314d5760405162461bcd60e51b8152600401610da69061442a565b611a16631aa1577160e11b6131ac565b600054610100900460ff166131845760405162461bcd60e51b8152600401610da69061442a565b613194631a056e7160e01b6131ac565b6121f76000805160206146b78339815191528261270d565b6001600160e01b031980821614156132055760405162461bcd60e51b815260206004820152601c60248201527b115490cc4d8d4e881a5b9d985b1a59081a5b9d195c999858d9481a5960221b6044820152606401610da6565b6001600160e01b0319166000908152600160208190526040909120805460ff19169091179055565b600054610100900460ff166132545760405162461bcd60e51b8152600401610da69061442a565b6132646317e0bac360e31b6131ac565b601991909155601a55565b600054610100900460ff166132965760405162461bcd60e51b8152600401610da69061442a565b61226363e2b3173560e01b6131ac565b600054610100900460ff166132cd5760405162461bcd60e51b8152600401610da69061442a565b6132dd633a47bf5160e11b6131ac565b6132ed63152a902d60e11b6131ac565b6132fd63c69dbd8f60e01b6131ac565b61330d63656cb66560e11b6131ac565b604080518082019091526001600160a01b038316815261ffff821660208201526111ec81612e89565b600054610100900460ff1661335d5760405162461bcd60e51b8152600401610da69061442a565b61336d638d29851f60e01b6131ac565b602180546001600160a01b039384166001600160a01b03199182161790915560228054929093169116179055565b600054610100900460ff166120c15760405162461bcd60e51b8152600401610da69061442a565b600061219a8383613753565b600061219a8383613846565b600081815b84518110156134465760008582815181106133fc576133fc61436a565b602002602001015190508083116134225760008381526020829052604090209250613433565b600081815260208490526040902092505b508061343e8161449a565b9150506133df565b509392505050565b6060816134725750506040805180820190915260018152600360fc1b602082015290565b8160005b811561349c57806134868161449a565b91506134959050600a836141cc565b9150613476565b6000816001600160401b038111156134b6576134b6613bec565b6040519080825280601f01601f1916602001820160405280156134e0576020820181803683370190505b5090505b8415612129576134f560018361465e565b9150613502600a86614675565b61350d906030614325565b60f81b8183815181106135225761352261436a565b60200101906001600160f81b031916908160001a905350613544600a866141cc565b94506134e4565b6135558383613895565b6001600160a01b0383163b156111ec576002548281035b61357f6000868380600101945086612ba8565b61359c576040516368d2bf6b60e11b815260040160405180910390fd5b81811061356c5781600254146135b157600080fd5b5050505050565b606060006135c7836002614197565b6135d2906002614325565b6001600160401b038111156135e9576135e9613bec565b6040519080825280601f01601f191660200182016040528015613613576020820181803683370190505b509050600360fc1b8160008151811061362e5761362e61436a565b60200101906001600160f81b031916908160001a905350600f60fb1b8160018151811061365d5761365d61436a565b60200101906001600160f81b031916908160001a9053506000613681846002614197565b61368c906001614325565b90505b6001811115613704576f181899199a1a9b1b9c1cb0b131b232b360811b85600f16601081106136c0576136c061436a565b1a60f81b8282815181106136d6576136d661436a565b60200101906001600160f81b031916908160001a90535060049490941c936136fd81614689565b905061368f565b50831561219a5760405162461bcd60e51b815260206004820181905260248201527f537472696e67733a20686578206c656e67746820696e73756666696369656e746044820152606401610da6565b6000818152600183016020526040812054801561383c57600061377760018361465e565b855490915060009061378b9060019061465e565b90508181146137f05760008660000182815481106137ab576137ab61436a565b90600052602060002001549050808760000184815481106137ce576137ce61436a565b6000918252602080832090910192909255918252600188019052604090208390555b8554869080613801576138016146a0565b600190038181906000526020600020016000905590558560010160008681526020019081526020016000206000905560019350505050610c89565b6000915050610c89565b600081815260018301602052604081205461388d57508154600181810184556000848152602080822090930184905584548482528286019093526040902091909155610c89565b506000610c89565b6002546001600160a01b0383166138be57604051622e076360e81b815260040160405180910390fd5b816138dc5760405163b562e8dd60e01b815260040160405180910390fd5b6001600160a01b038316600090815260076020526040902080546001600160401b018402019055613913836001841460e11b612547565b600082815260066020526040902055808281015b6040516001830192906001600160a01b038716906000906000805160206146d7833981519152908290a48082106139275760025550505050565b82805461396d906142b9565b90600052602060002090601f01602090048101928261398f57600085556139d5565b82601f106139a857805160ff19168380011785556139d5565b828001600101855582156139d5579182015b828111156139d55782518255916020019190600101906139ba565b506139e19291506139e5565b5090565b5b808211156139e157600081556001016139e6565b6001600160e01b0319811681146121f757600080fd5b600060208284031215613a2257600080fd5b813561219a816139fa565b600060208284031215613a3f57600080fd5b5035919050565b60005b83811015613a61578181015183820152602001613a49565b83811115611e925750506000910152565b60008151808452613a8a816020860160208601613a46565b601f01601f19169290920160200192915050565b60208152600061219a6020830184613a72565b6001600160a01b0391909116815260200190565b6001600160a01b03811681146121f757600080fd5b803561270881613ac5565b600060208284031215613af757600080fd5b813561219a81613ac5565b60008060408385031215613b1557600080fd5b8235613b2081613ac5565b946020939093013593505050565b600080600060608486031215613b4357600080fd5b8335613b4e81613ac5565b92506020840135613b5e81613ac5565b929592945050506040919091013590565b60008060408385031215613b8257600080fd5b50508035926020909101359150565b8035801515811461270857600080fd5b600060208284031215613bb357600080fd5b61219a82613b91565b60008060408385031215613bcf57600080fd5b823591506020830135613be181613ac5565b809150509250929050565b634e487b7160e01b600052604160045260246000fd5b6040516101e081016001600160401b0381118282101715613c2557613c25613bec565b60405290565b60006001600160401b0380841115613c4557613c45613bec565b604051601f8501601f19908116603f01168101908282118183101715613c6d57613c6d613bec565b81604052809350858152868686011115613c8657600080fd5b858560208301376000602087830101525050509392505050565b600082601f830112613cb157600080fd5b61219a83833560208501613c2b565b600060208284031215613cd257600080fd5b81356001600160401b03811115613ce857600080fd5b61212984828501613ca0565b803561ffff8116811461270857600080fd5b60008060408385031215613d1957600080fd5b82356001600160401b0380821115613d3057600080fd5b908401906101e08287031215613d4557600080fd5b613d4d613c02565b823582811115613d5c57600080fd5b613d6888828601613ca0565b825250602083013582811115613d7d57600080fd5b613d8988828601613ca0565b602083015250604083013582811115613da157600080fd5b613dad88828601613ca0565b604083015250606083013582811115613dc557600080fd5b613dd188828601613ca0565b6060830152506080830135608082015260a083013560a082015260c083013560c082015260e083013560e0820152610100915081830135828201526101209150613e1c828401613ada565b828201526101409150613e30828401613cf4565b828201526101609150613e44828401613ada565b828201526101809150613e58828401613ada565b828201526101a09150613e6c828401613ada565b828201526101c09150613e80828401613ada565b82820152809450505050613e9660208401613ada565b90509250929050565b60008060208385031215613eb257600080fd5b82356001600160401b0380821115613ec957600080fd5b818501915085601f830112613edd57600080fd5b813581811115613eec57600080fd5b866020606083028501011115613f0157600080fd5b60209290920196919550909350505050565b6001600160a01b0392909216825261ffff16602082015260400190565b60008083601f840112613f4257600080fd5b5081356001600160401b03811115613f5957600080fd5b6020830191508360208260051b850101111561117757600080fd5b600080600060408486031215613f8957600080fd5b8335925060208401356001600160401b03811115613fa657600080fd5b613fb286828701613f30565b9497909650939450505050565b60008060408385031215613fd257600080fd5b8235613fdd81613ac5565b9150613e9660208401613b91565b6000806000806080858703121561400157600080fd5b843561400c81613ac5565b9350602085013561401c81613ac5565b92506040850135915060608501356001600160401b0381111561403e57600080fd5b8501601f8101871361404f57600080fd5b61405e87823560208401613c2b565b91505092959194509250565b602080825282518282018190526000919060409081850190868401855b828110156140be57815180516001600160a01b031685528601516001600160601b0316868501529284019290850190600101614087565b5091979650505050505050565b6000806000604084860312156140e057600080fd5b83356140eb81613ac5565b925060208401356001600160401b03811115613fa657600080fd5b6000806040838503121561411957600080fd5b823561412481613ac5565b91506020830135613be181613ac5565b60006040828403121561414657600080fd5b50919050565b6020808252818101527f4f776e61626c653a2063616c6c6572206973206e6f7420746865206f776e6572604082015260600190565b634e487b7160e01b600052601160045260246000fd5b60008160001904831182151516156141b1576141b1614181565b500290565b634e487b7160e01b600052601260045260246000fd5b6000826141db576141db6141b6565b500490565b602080825260179082015276115490cdcc8c4bd49150d2541251539517d313d0d2d151604a1b604082015260600190565b60006060828403121561422357600080fd5b604051606081016001600160401b038111828210171561424557614245613bec565b60405282358152602083013561425a81613ac5565b602082015261426b60408401613cf4565b60408201529392505050565b6020808252600f908201526e2120a9a2afaaa924afa32927ad22a760891b604082015260600190565b6000602082840312156142b257600080fd5b5051919050565b600181811c908216806142cd57607f821691505b6020821081141561414657634e487b7160e01b600052602260045260246000fd5b6020808252601f908201527f5265656e7472616e637947756172643a207265656e7472616e742063616c6c00604082015260600190565b6000821982111561433857614338614181565b500190565b602080825260139082015272125394d551919250d251539517d05353d55395606a1b604082015260600190565b634e487b7160e01b600052603260045260246000fd5b60006040828403121561439257600080fd5b604080519081016001600160401b03811182821017156143b4576143b4613bec565b60405282356143c281613ac5565b81526143d060208401613cf4565b60208201529392505050565b6020808252602e908201527f496e697469616c697a61626c653a20636f6e747261637420697320616c72656160408201526d191e481a5b9a5d1a585b1a5e995960921b606082015260800190565b6020808252602b908201527f496e697469616c697a61626c653a20636f6e7472616374206973206e6f74206960408201526a6e697469616c697a696e6760a81b606082015260800190565b6020808252600b908201526a496e76616c69642062707360a81b604082015260600190565b60006000198214156144ae576144ae614181565b5060010190565b6001600160a01b03858116825284166020820152604081018390526080606082018190526000906144e890830184613a72565b9695505050505050565b60006020828403121561450457600080fd5b815161219a816139fa565b60008151614521818560208601613a46565b9290920192915050565b600080845481600182811c91508083168061454757607f831692505b602080841082141561456757634e487b7160e01b86526022600452602486fd5b81801561457b576001811461458c576145b9565b60ff198616895284890196506145b9565b60008b81526020902060005b868110156145b15781548b820152908501908301614598565b505084890196505b5050505050506145c9818561450f565b95945050505050565b6000602082840312156145e457600080fd5b815161219a81613ac5565b76020b1b1b2b9b9a1b7b73a3937b61d1030b1b1b7bab73a1604d1b815260008351614621816017850160208801613a46565b7001034b99036b4b9b9b4b733903937b6329607d1b6017918401918201528351614652816028840160208801613a46565b01602801949350505050565b60008282101561467057614670614181565b500390565b600082614684576146846141b6565b500690565b60008161469857614698614181565b506000190190565b634e487b7160e01b600052603160045260246000fdfe9f2df0fed2c77648de5860a4cc508cd0818c85b8b8a1ab4ceeef8d981c8956a6ddf252ad1be2c89b69c2b068fc378daa952ba7f163c4a11628f55a4df523b3efa264697066735822122083718df94e7ba5ca8cf555d9c4fd250f1f8107ca31ed86db7cc08c1f7d06a30964736f6c63430008090033",
  "devdoc": {
    "kind": "dev",
    "methods": {
      "approve(address,uint256)": {
        "details": "See {IERC721-approve}."
      },
      "balanceOf(address)": {
        "details": "See {IERC721-balanceOf}."
      },
      "getApproved(uint256)": {
        "details": "See {IERC721-getApproved}."
      },
      "getRoleAdmin(bytes32)": {
        "details": "Returns the admin role that controls `role`. See {grantRole} and {revokeRole}. To change a role's admin, use {_setRoleAdmin}."
      },
      "getTokenRoyaltiesCount()": {
        "details": "See {IEIP2981RoyaltyOverride-getTokenRoyaltiesCount}."
      },
      "getTokenRoyaltyByIndex(uint256)": {
        "details": "See {IEIP2981RoyaltyOverride-getTokenRoyaltyByIndex}."
      },
      "grantRole(bytes32,address)": {
        "details": "Grants `role` to `account`. If `account` had not been already granted `role`, emits a {RoleGranted} event. Requirements: - the caller must have ``role``'s admin role."
      },
      "hasRole(bytes32,address)": {
        "details": "Returns `true` if `account` has been granted `role`."
      },
      "owner()": {
        "details": "Returns the address of the current owner."
      },
      "ownerOf(uint256)": {
        "details": "See {IERC721-ownerOf}."
      },
      "renounceOwnership()": {
        "details": "Leaves the contract without owner. It will not be possible to call `onlyOwner` functions anymore. Can only be called by the current owner. NOTE: Renouncing ownership will leave the contract without an owner, thereby removing any functionality that is only available to the owner."
      },
      "renounceRole(bytes32,address)": {
        "details": "Revokes `role` from the calling account. Roles are often managed via {grantRole} and {revokeRole}: this function's purpose is to provide a mechanism for accounts to lose their privileges if they are compromised (such as when a trusted device is misplaced). If the calling account had been revoked `role`, emits a {RoleRevoked} event. Requirements: - the caller must be `account`."
      },
      "revokeRole(bytes32,address)": {
        "details": "Revokes `role` from `account`. If `account` had been granted `role`, emits a {RoleRevoked} event. Requirements: - the caller must have ``role``'s admin role."
      },
      "royaltyInfo(uint256,uint256)": {
        "details": "See {IEIP2981RoyaltyOverride-royaltyInfo}."
      },
      "safeTransferFrom(address,address,uint256)": {
        "details": "See {IERC721-safeTransferFrom}."
      },
      "safeTransferFrom(address,address,uint256,bytes)": {
        "details": "See {IERC721-safeTransferFrom}."
      },
      "setApprovalForAll(address,bool)": {
        "details": "See {IERC721-setApprovalForAll}."
      },
      "totalSupply()": {
        "details": "Returns the total number of tokens in existence. Burned tokens will reduce the count. To get the total number of tokens minted, please see `_totalMinted`."
      },
      "transferFrom(address,address,uint256)": {
        "details": "Transfers `tokenId` from `from` to `to`. Requirements: - `to` cannot be the zero address. - `tokenId` token must be owned by `from`. Emits a {Transfer} event."
      },
      "transferOwnership(address)": {
        "details": "Transfers ownership of the contract to a new account (`newOwner`). Can only be called by the current owner."
      }
    },
    "version": 1
  },
  "userdoc": {
    "errors": {
      "ApprovalCallerNotOwnerNorApproved()": [
        {
          "notice": "The caller must own the token or be an approved operator."
        }
      ],
      "ApprovalQueryForNonexistentToken()": [
        {
          "notice": "The token does not exist."
        }
      ],
      "ApproveToCaller()": [
        {
          "notice": "The caller cannot approve to their own address."
        }
      ],
      "BalanceQueryForZeroAddress()": [
        {
          "notice": "Cannot query the balance for the zero address."
        }
      ],
      "MintERC2309QuantityExceedsLimit()": [
        {
          "notice": "The `quantity` minted with ERC2309 exceeds the safety limit."
        }
      ],
      "MintToZeroAddress()": [
        {
          "notice": "Cannot mint to the zero address."
        }
      ],
      "MintZeroQuantity()": [
        {
          "notice": "The quantity of tokens minted must be more than zero."
        }
      ],
      "OwnerQueryForNonexistentToken()": [
        {
          "notice": "The token does not exist."
        }
      ],
      "OwnershipNotInitializedForExtraData()": [
        {
          "notice": "The `extraData` cannot be set on an unintialized ownership slot."
        }
      ],
      "TransferCallerNotOwnerNorApproved()": [
        {
          "notice": "The caller must own the token or be an approved operator."
        }
      ],
      "TransferFromIncorrectOwner()": [
        {
          "notice": "The token must be owned by `from`."
        }
      ],
      "TransferToNonERC721ReceiverImplementer()": [
        {
          "notice": "Cannot safely transfer to a contract that does not implement the ERC721Receiver interface."
        }
      ],
      "TransferToZeroAddress()": [
        {
          "notice": "Cannot transfer to the zero address."
        }
      ],
      "URIQueryForNonexistentToken()": [
        {
          "notice": "The token does not exist."
        }
      ]
    },
    "kind": "user",
    "methods": {
      "isApprovedForAll(address,address)": {
        "notice": "Override isApprovedForAll to whitelist user's OpenSea proxy accounts to enable gas-less listings."
      }
    },
    "version": 1
  },
  "storageLayout": {
    "storage": [
      {
        "astId": 886,
        "contract": "contracts/collections/ERC721A/presets/ERC721AFullFeaturedCollection.sol:ERC721AFullFeaturedCollection",
        "label": "_initialized",
        "offset": 0,
        "slot": "0",
        "type": "t_uint8"
      },
      {
        "astId": 889,
        "contract": "contracts/collections/ERC721A/presets/ERC721AFullFeaturedCollection.sol:ERC721AFullFeaturedCollection",
        "label": "_initializing",
        "offset": 1,
        "slot": "0",
        "type": "t_bool"
      },
      {
        "astId": 782,
        "contract": "contracts/collections/ERC721A/presets/ERC721AFullFeaturedCollection.sol:ERC721AFullFeaturedCollection",
        "label": "_owner",
        "offset": 2,
        "slot": "0",
        "type": "t_address"
      },
      {
        "astId": 4693,
        "contract": "contracts/collections/ERC721A/presets/ERC721AFullFeaturedCollection.sol:ERC721AFullFeaturedCollection",
        "label": "_supportedInterfaces",
        "offset": 0,
        "slot": "1",
        "type": "t_mapping(t_bytes4,t_bool)"
      },
      {
        "astId": 15554,
        "contract": "contracts/collections/ERC721A/presets/ERC721AFullFeaturedCollection.sol:ERC721AFullFeaturedCollection",
        "label": "_currentIndex",
        "offset": 0,
        "slot": "2",
        "type": "t_uint256"
      },
      {
        "astId": 15556,
        "contract": "contracts/collections/ERC721A/presets/ERC721AFullFeaturedCollection.sol:ERC721AFullFeaturedCollection",
        "label": "_burnCounter",
        "offset": 0,
        "slot": "3",
        "type": "t_uint256"
      },
      {
        "astId": 15558,
        "contract": "contracts/collections/ERC721A/presets/ERC721AFullFeaturedCollection.sol:ERC721AFullFeaturedCollection",
        "label": "_name",
        "offset": 0,
        "slot": "4",
        "type": "t_string_storage"
      },
      {
        "astId": 15560,
        "contract": "contracts/collections/ERC721A/presets/ERC721AFullFeaturedCollection.sol:ERC721AFullFeaturedCollection",
        "label": "_symbol",
        "offset": 0,
        "slot": "5",
        "type": "t_string_storage"
      },
      {
        "astId": 15564,
        "contract": "contracts/collections/ERC721A/presets/ERC721AFullFeaturedCollection.sol:ERC721AFullFeaturedCollection",
        "label": "_packedOwnerships",
        "offset": 0,
        "slot": "6",
        "type": "t_mapping(t_uint256,t_uint256)"
      },
      {
        "astId": 15568,
        "contract": "contracts/collections/ERC721A/presets/ERC721AFullFeaturedCollection.sol:ERC721AFullFeaturedCollection",
        "label": "_packedAddressData",
        "offset": 0,
        "slot": "7",
        "type": "t_mapping(t_address,t_uint256)"
      },
      {
        "astId": 15572,
        "contract": "contracts/collections/ERC721A/presets/ERC721AFullFeaturedCollection.sol:ERC721AFullFeaturedCollection",
        "label": "_tokenApprovals",
        "offset": 0,
        "slot": "8",
        "type": "t_mapping(t_uint256,t_address)"
      },
      {
        "astId": 15578,
        "contract": "contracts/collections/ERC721A/presets/ERC721AFullFeaturedCollection.sol:ERC721AFullFeaturedCollection",
        "label": "_operatorApprovals",
        "offset": 0,
        "slot": "9",
        "type": "t_mapping(t_address,t_mapping(t_address,t_bool))"
      },
      {
        "astId": 11552,
        "contract": "contracts/collections/ERC721A/presets/ERC721AFullFeaturedCollection.sol:ERC721AFullFeaturedCollection",
        "label": "_trustedForwarder",
        "offset": 0,
        "slot": "10",
        "type": "t_address"
      },
      {
        "astId": 9134,
        "contract": "contracts/collections/ERC721A/presets/ERC721AFullFeaturedCollection.sol:ERC721AFullFeaturedCollection",
        "label": "_name",
        "offset": 0,
        "slot": "11",
        "type": "t_string_storage"
      },
      {
        "astId": 9136,
        "contract": "contracts/collections/ERC721A/presets/ERC721AFullFeaturedCollection.sol:ERC721AFullFeaturedCollection",
        "label": "_symbol",
        "offset": 0,
        "slot": "12",
        "type": "t_string_storage"
      },
      {
        "astId": 9138,
        "contract": "contracts/collections/ERC721A/presets/ERC721AFullFeaturedCollection.sol:ERC721AFullFeaturedCollection",
        "label": "_contractURI",
        "offset": 0,
        "slot": "13",
        "type": "t_string_storage"
      },
      {
        "astId": 10488,
        "contract": "contracts/collections/ERC721A/presets/ERC721AFullFeaturedCollection.sol:ERC721AFullFeaturedCollection",
        "label": "_placeholderURI",
        "offset": 0,
        "slot": "14",
        "type": "t_string_storage"
      },
      {
        "astId": 10490,
        "contract": "contracts/collections/ERC721A/presets/ERC721AFullFeaturedCollection.sol:ERC721AFullFeaturedCollection",
        "label": "_baseTokenURI",
        "offset": 0,
        "slot": "15",
        "type": "t_string_storage"
      },
      {
        "astId": 10492,
        "contract": "contracts/collections/ERC721A/presets/ERC721AFullFeaturedCollection.sol:ERC721AFullFeaturedCollection",
        "label": "baseURIFrozen",
        "offset": 0,
        "slot": "16",
        "type": "t_bool"
      },
      {
        "astId": 9346,
        "contract": "contracts/collections/ERC721A/presets/ERC721AFullFeaturedCollection.sol:ERC721AFullFeaturedCollection",
        "label": "maxSupply",
        "offset": 0,
        "slot": "17",
        "type": "t_uint256"
      },
      {
        "astId": 9348,
        "contract": "contracts/collections/ERC721A/presets/ERC721AFullFeaturedCollection.sol:ERC721AFullFeaturedCollection",
        "label": "maxSupplyFrozen",
        "offset": 0,
        "slot": "18",
        "type": "t_bool"
      },
      {
        "astId": 1124,
        "contract": "contracts/collections/ERC721A/presets/ERC721AFullFeaturedCollection.sol:ERC721AFullFeaturedCollection",
        "label": "_status",
        "offset": 0,
        "slot": "19",
        "type": "t_uint256"
      },
      {
        "astId": 10250,
        "contract": "contracts/collections/ERC721A/presets/ERC721AFullFeaturedCollection.sol:ERC721AFullFeaturedCollection",
        "label": "preSalePrice",
        "offset": 0,
        "slot": "20",
        "type": "t_uint256"
      },
      {
        "astId": 10252,
        "contract": "contracts/collections/ERC721A/presets/ERC721AFullFeaturedCollection.sol:ERC721AFullFeaturedCollection",
        "label": "preSaleMaxMintPerWallet",
        "offset": 0,
        "slot": "21",
        "type": "t_uint256"
      },
      {
        "astId": 10254,
        "contract": "contracts/collections/ERC721A/presets/ERC721AFullFeaturedCollection.sol:ERC721AFullFeaturedCollection",
        "label": "preSaleAllowlistMerkleRoot",
        "offset": 0,
        "slot": "22",
        "type": "t_bytes32"
      },
      {
        "astId": 10256,
        "contract": "contracts/collections/ERC721A/presets/ERC721AFullFeaturedCollection.sol:ERC721AFullFeaturedCollection",
        "label": "preSaleStatus",
        "offset": 0,
        "slot": "23",
        "type": "t_bool"
      },
      {
        "astId": 10260,
        "contract": "contracts/collections/ERC721A/presets/ERC721AFullFeaturedCollection.sol:ERC721AFullFeaturedCollection",
        "label": "preSaleAllowlistClaimed",
        "offset": 0,
        "slot": "24",
        "type": "t_mapping(t_address,t_uint256)"
      },
      {
        "astId": 10659,
        "contract": "contracts/collections/ERC721A/presets/ERC721AFullFeaturedCollection.sol:ERC721AFullFeaturedCollection",
        "label": "publicSalePrice",
        "offset": 0,
        "slot": "25",
        "type": "t_uint256"
      },
      {
        "astId": 10661,
        "contract": "contracts/collections/ERC721A/presets/ERC721AFullFeaturedCollection.sol:ERC721AFullFeaturedCollection",
        "label": "publicSaleMaxMintPerTx",
        "offset": 0,
        "slot": "26",
        "type": "t_uint256"
      },
      {
        "astId": 10663,
        "contract": "contracts/collections/ERC721A/presets/ERC721AFullFeaturedCollection.sol:ERC721AFullFeaturedCollection",
        "label": "publicSaleStatus",
        "offset": 0,
        "slot": "27",
        "type": "t_bool"
      },
      {
        "astId": 8003,
        "contract": "contracts/collections/ERC721A/presets/ERC721AFullFeaturedCollection.sol:ERC721AFullFeaturedCollection",
        "label": "proceedsRecipient",
        "offset": 1,
        "slot": "27",
        "type": "t_address"
      },
      {
        "astId": 8005,
        "contract": "contracts/collections/ERC721A/presets/ERC721AFullFeaturedCollection.sol:ERC721AFullFeaturedCollection",
        "label": "proceedsRecipientLocked",
        "offset": 21,
        "slot": "27",
        "type": "t_bool"
      },
      {
        "astId": 406,
        "contract": "contracts/collections/ERC721A/presets/ERC721AFullFeaturedCollection.sol:ERC721AFullFeaturedCollection",
        "label": "_roles",
        "offset": 0,
        "slot": "28",
        "type": "t_mapping(t_bytes32,t_struct(RoleData)401_storage)"
      },
      {
        "astId": 86,
        "contract": "contracts/collections/ERC721A/presets/ERC721AFullFeaturedCollection.sol:ERC721AFullFeaturedCollection",
        "label": "defaultRoyalty",
        "offset": 0,
        "slot": "29",
        "type": "t_struct(TokenRoyalty)28_storage"
      },
      {
        "astId": 91,
        "contract": "contracts/collections/ERC721A/presets/ERC721AFullFeaturedCollection.sol:ERC721AFullFeaturedCollection",
        "label": "_tokenRoyalties",
        "offset": 0,
        "slot": "30",
        "type": "t_mapping(t_uint256,t_struct(TokenRoyalty)28_storage)"
      },
      {
        "astId": 94,
        "contract": "contracts/collections/ERC721A/presets/ERC721AFullFeaturedCollection.sol:ERC721AFullFeaturedCollection",
        "label": "_tokensWithRoyalties",
        "offset": 0,
        "slot": "31",
        "type": "t_struct(UintSet)5526_storage"
      },
      {
        "astId": 9680,
        "contract": "contracts/collections/ERC721A/presets/ERC721AFullFeaturedCollection.sol:ERC721AFullFeaturedCollection",
        "label": "_openSeaProxyRegistryAddress",
        "offset": 0,
        "slot": "33",
        "type": "t_address"
      },
      {
        "astId": 9682,
        "contract": "contracts/collections/ERC721A/presets/ERC721AFullFeaturedCollection.sol:ERC721AFullFeaturedCollection",
        "label": "_openSeaExchangeAddress",
        "offset": 0,
        "slot": "34",
        "type": "t_address"
      }
    ],
    "types": {
      "t_address": {
        "encoding": "inplace",
        "label": "address",
        "numberOfBytes": "20"
      },
      "t_array(t_bytes32)dyn_storage": {
        "base": "t_bytes32",
        "encoding": "dynamic_array",
        "label": "bytes32[]",
        "numberOfBytes": "32"
      },
      "t_bool": {
        "encoding": "inplace",
        "label": "bool",
        "numberOfBytes": "1"
      },
      "t_bytes32": {
        "encoding": "inplace",
        "label": "bytes32",
        "numberOfBytes": "32"
      },
      "t_bytes4": {
        "encoding": "inplace",
        "label": "bytes4",
        "numberOfBytes": "4"
      },
      "t_mapping(t_address,t_bool)": {
        "encoding": "mapping",
        "key": "t_address",
        "label": "mapping(address => bool)",
        "numberOfBytes": "32",
        "value": "t_bool"
      },
      "t_mapping(t_address,t_mapping(t_address,t_bool))": {
        "encoding": "mapping",
        "key": "t_address",
        "label": "mapping(address => mapping(address => bool))",
        "numberOfBytes": "32",
        "value": "t_mapping(t_address,t_bool)"
      },
      "t_mapping(t_address,t_uint256)": {
        "encoding": "mapping",
        "key": "t_address",
        "label": "mapping(address => uint256)",
        "numberOfBytes": "32",
        "value": "t_uint256"
      },
      "t_mapping(t_bytes32,t_struct(RoleData)401_storage)": {
        "encoding": "mapping",
        "key": "t_bytes32",
        "label": "mapping(bytes32 => struct AccessControl.RoleData)",
        "numberOfBytes": "32",
        "value": "t_struct(RoleData)401_storage"
      },
      "t_mapping(t_bytes32,t_uint256)": {
        "encoding": "mapping",
        "key": "t_bytes32",
        "label": "mapping(bytes32 => uint256)",
        "numberOfBytes": "32",
        "value": "t_uint256"
      },
      "t_mapping(t_bytes4,t_bool)": {
        "encoding": "mapping",
        "key": "t_bytes4",
        "label": "mapping(bytes4 => bool)",
        "numberOfBytes": "32",
        "value": "t_bool"
      },
      "t_mapping(t_uint256,t_address)": {
        "encoding": "mapping",
        "key": "t_uint256",
        "label": "mapping(uint256 => address)",
        "numberOfBytes": "32",
        "value": "t_address"
      },
      "t_mapping(t_uint256,t_struct(TokenRoyalty)28_storage)": {
        "encoding": "mapping",
        "key": "t_uint256",
        "label": "mapping(uint256 => struct IEIP2981RoyaltyOverride.TokenRoyalty)",
        "numberOfBytes": "32",
        "value": "t_struct(TokenRoyalty)28_storage"
      },
      "t_mapping(t_uint256,t_uint256)": {
        "encoding": "mapping",
        "key": "t_uint256",
        "label": "mapping(uint256 => uint256)",
        "numberOfBytes": "32",
        "value": "t_uint256"
      },
      "t_string_storage": {
        "encoding": "bytes",
        "label": "string",
        "numberOfBytes": "32"
      },
      "t_struct(RoleData)401_storage": {
        "encoding": "inplace",
        "label": "struct AccessControl.RoleData",
        "members": [
          {
            "astId": 398,
            "contract": "contracts/collections/ERC721A/presets/ERC721AFullFeaturedCollection.sol:ERC721AFullFeaturedCollection",
            "label": "members",
            "offset": 0,
            "slot": "0",
            "type": "t_mapping(t_address,t_bool)"
          },
          {
            "astId": 400,
            "contract": "contracts/collections/ERC721A/presets/ERC721AFullFeaturedCollection.sol:ERC721AFullFeaturedCollection",
            "label": "adminRole",
            "offset": 0,
            "slot": "1",
            "type": "t_bytes32"
          }
        ],
        "numberOfBytes": "64"
      },
      "t_struct(Set)5068_storage": {
        "encoding": "inplace",
        "label": "struct EnumerableSet.Set",
        "members": [
          {
            "astId": 5063,
            "contract": "contracts/collections/ERC721A/presets/ERC721AFullFeaturedCollection.sol:ERC721AFullFeaturedCollection",
            "label": "_values",
            "offset": 0,
            "slot": "0",
            "type": "t_array(t_bytes32)dyn_storage"
          },
          {
            "astId": 5067,
            "contract": "contracts/collections/ERC721A/presets/ERC721AFullFeaturedCollection.sol:ERC721AFullFeaturedCollection",
            "label": "_indexes",
            "offset": 0,
            "slot": "1",
            "type": "t_mapping(t_bytes32,t_uint256)"
          }
        ],
        "numberOfBytes": "64"
      },
      "t_struct(TokenRoyalty)28_storage": {
        "encoding": "inplace",
        "label": "struct IEIP2981RoyaltyOverride.TokenRoyalty",
        "members": [
          {
            "astId": 25,
            "contract": "contracts/collections/ERC721A/presets/ERC721AFullFeaturedCollection.sol:ERC721AFullFeaturedCollection",
            "label": "recipient",
            "offset": 0,
            "slot": "0",
            "type": "t_address"
          },
          {
            "astId": 27,
            "contract": "contracts/collections/ERC721A/presets/ERC721AFullFeaturedCollection.sol:ERC721AFullFeaturedCollection",
            "label": "bps",
            "offset": 20,
            "slot": "0",
            "type": "t_uint16"
          }
        ],
        "numberOfBytes": "32"
      },
      "t_struct(UintSet)5526_storage": {
        "encoding": "inplace",
        "label": "struct EnumerableSet.UintSet",
        "members": [
          {
            "astId": 5525,
            "contract": "contracts/collections/ERC721A/presets/ERC721AFullFeaturedCollection.sol:ERC721AFullFeaturedCollection",
            "label": "_inner",
            "offset": 0,
            "slot": "0",
            "type": "t_struct(Set)5068_storage"
          }
        ],
        "numberOfBytes": "64"
      },
      "t_uint16": {
        "encoding": "inplace",
        "label": "uint16",
        "numberOfBytes": "2"
      },
      "t_uint256": {
        "encoding": "inplace",
        "label": "uint256",
        "numberOfBytes": "32"
      },
      "t_uint8": {
        "encoding": "inplace",
        "label": "uint8",
        "numberOfBytes": "1"
      }
    }
  }
}