{
  "address": "0xe0F561A9C77c04092593Ff88370D703F239B4f7f",
  "abi": [
    {
      "anonymous": false,
      "inputs": [
        {
          "indexed": true,
          "internalType": "address",
          "name": "deployer",
          "type": "address"
        },
        {
          "indexed": true,
          "internalType": "address",
          "name": "proxyAddress",
          "type": "address"
        }
      ],
      "name": "ProxyCreated",
      "type": "event"
    },
    {
      "inputs": [
        {
          "internalType": "address",
          "name": "implementation",
          "type": "address"
        },
        {
          "internalType": "bytes32",
          "name": "salt",
          "type": "bytes32"
        },
        {
          "internalType": "bytes",
          "name": "data",
          "type": "bytes"
        }
      ],
      "name": "cloneDeterministicSimple",
      "outputs": [
        {
          "internalType": "address",
          "name": "deployedProxy",
          "type": "address"
        }
      ],
      "stateMutability": "nonpayable",
      "type": "function"
    },
    {
      "inputs": [
        {
          "internalType": "address",
          "name": "implementation",
          "type": "address"
        },
        {
          "internalType": "bytes32",
          "name": "salt",
          "type": "bytes32"
        }
      ],
      "name": "predictDeterministicSimple",
      "outputs": [
        {
          "internalType": "address",
          "name": "deployedProxy",
          "type": "address"
        }
      ],
      "stateMutability": "view",
      "type": "function"
    }
  ],
  "transactionHash": "0xfba4de21016ff63fa2221ec381e56ff48e893f533843feb41114b19f2fb5b558",
  "args": [],
  "numDeployments": 2,
  "solcInputHash": "75b6f3caca0ee30cab66da7e8668151e",
  "bytecode": "0x608060405234801561001057600080fd5b5061042f806100206000396000f3fe608060405234801561001057600080fd5b50600436106100365760003560e01c806310db94b91461003b57806347791ece1461006a575b600080fd5b61004e61004936600461031c565b61007d565b6040516001600160a01b03909116815260200160405180910390f35b61004e610078366004610346565b6100bd565b60008033836040516020016100939291906103cc565b6040516020818303038152906040528051906020012090506100b584826101f7565b949350505050565b60008033856040516020016100d39291906103cc565b6040516020818303038152906040528051906020012090506100f58682610266565b915082156101b857600080836001600160a01b0316868660405161011a9291906103e9565b6000604051808303816000865af19150503d8060008114610157576040519150601f19603f3d011682016040523d82523d6000602084013e61015c565b606091505b5091509150816101b5578051156101765780518082602001fd5b60405162461bcd60e51b815260206004820152600f60248201526e4641494c45445f544f5f434c4f4e4560881b60448201526064015b60405180910390fd5b50505b6040516001600160a01b0383169033907f9678a1e87ca9f1a37dc659a97b39d812d98cd236947e1b53b3d0d6fd346acb6e90600090a350949350505050565b600061025d838330604051733d602d80600a3d3981f3363d3d373d3d3d363d7360601b8152606093841b60148201526f5af43d82803e903d91602b57fd5bf3ff60801b6028820152921b6038830152604c8201526037808220606c830152605591012090565b90505b92915050565b6000604051733d602d80600a3d3981f3363d3d373d3d3d363d7360601b81528360601b60148201526e5af43d82803e903d91602b57fd5bf360881b6028820152826037826000f59150506001600160a01b0381166102605760405162461bcd60e51b8152602060048201526017602482015276115490cc4c4d8dce8818dc99585d194c8819985a5b1959604a1b60448201526064016101ac565b80356001600160a01b038116811461031757600080fd5b919050565b6000806040838503121561032f57600080fd5b61033883610300565b946020939093013593505050565b6000806000806060858703121561035c57600080fd5b61036585610300565b93506020850135925060408501356001600160401b038082111561038857600080fd5b818701915087601f83011261039c57600080fd5b8135818111156103ab57600080fd5b8860208285010111156103bd57600080fd5b95989497505060200194505050565b60609290921b6001600160601b0319168252601482015260340190565b818382376000910190815291905056fea26469706673582212201181635a0bdb00c99817798a81dd06c1847a49061e1ca2ad9857c980c61de2ea64736f6c63430008090033",
  "devdoc": {
    "kind": "dev",
    "methods": {},
    "version": 1
  },
  "userdoc": {
    "kind": "user",
    "methods": {},
    "version": 1
  },
  "storageLayout": {
    "storage": [],
    "types": null
  }
}