{
  "address": "0xF8fA73a567812c638e3258144965c03680CD2D87",
  "abi": [
    {
      "inputs": [
        {
          "components": [
            {
              "internalType": "address",
              "name": "ticketToken",
              "type": "address"
            },
            {
              "internalType": "uint64",
              "name": "lockedUntilTimestamp",
              "type": "uint64"
            },
            {
              "internalType": "uint256[]",
              "name": "tokenIds",
              "type": "uint256[]"
            },
            {
              "internalType": "uint256[]",
              "name": "shares",
              "type": "uint256[]"
            }
          ],
          "internalType": "struct ERC721ShareInstantStream.Config",
          "name": "config",
          "type": "tuple"
        }
      ],
      "stateMutability": "nonpayable",
      "type": "constructor"
    },
    {
      "anonymous": false,
      "inputs": [
        {
          "indexed": false,
          "internalType": "address",
          "name": "operator",
          "type": "address"
        },
        {
          "indexed": false,
          "internalType": "address",
          "name": "beneficiary",
          "type": "address"
        },
        {
          "indexed": false,
          "internalType": "uint256",
          "name": "ticketTokenId",
          "type": "uint256"
        },
        {
          "indexed": false,
          "internalType": "address",
          "name": "claimToken",
          "type": "address"
        },
        {
          "indexed": false,
          "internalType": "uint256",
          "name": "releasedAmount",
          "type": "uint256"
        }
      ],
      "name": "Claim",
      "type": "event"
    },
    {
      "anonymous": false,
      "inputs": [
        {
          "indexed": false,
          "internalType": "address",
          "name": "operator",
          "type": "address"
        },
        {
          "indexed": false,
          "internalType": "address",
          "name": "beneficiary",
          "type": "address"
        },
        {
          "indexed": false,
          "internalType": "uint256[]",
          "name": "ticketTokenIds",
          "type": "uint256[]"
        },
        {
          "indexed": false,
          "internalType": "address",
          "name": "claimToken",
          "type": "address"
        },
        {
          "indexed": false,
          "internalType": "uint256",
          "name": "releasedAmount",
          "type": "uint256"
        }
      ],
      "name": "ClaimMany",
      "type": "event"
    },
    {
      "anonymous": false,
      "inputs": [
        {
          "indexed": false,
          "internalType": "uint8",
          "name": "version",
          "type": "uint8"
        }
      ],
      "name": "Initialized",
      "type": "event"
    },
    {
      "anonymous": false,
      "inputs": [
        {
          "indexed": true,
          "internalType": "address",
          "name": "previousOwner",
          "type": "address"
        },
        {
          "indexed": true,
          "internalType": "address",
          "name": "newOwner",
          "type": "address"
        }
      ],
      "name": "OwnershipTransferred",
      "type": "event"
    },
    {
      "anonymous": false,
      "inputs": [
        {
          "indexed": false,
          "internalType": "uint256",
          "name": "tokenId",
          "type": "uint256"
        },
        {
          "indexed": false,
          "internalType": "uint256",
          "name": "prevShares",
          "type": "uint256"
        },
        {
          "indexed": false,
          "internalType": "uint256",
          "name": "newShares",
          "type": "uint256"
        }
      ],
      "name": "SharesUpdated",
      "type": "event"
    },
    {
      "inputs": [
        {
          "internalType": "uint256",
          "name": "ticketTokenId",
          "type": "uint256"
        }
      ],
      "name": "claim",
      "outputs": [],
      "stateMutability": "nonpayable",
      "type": "function"
    },
    {
      "inputs": [
        {
          "internalType": "uint256[]",
          "name": "ticketTokenIds",
          "type": "uint256[]"
        }
      ],
      "name": "claim",
      "outputs": [],
      "stateMutability": "nonpayable",
      "type": "function"
    },
    {
      "inputs": [
        {
          "internalType": "uint256",
          "name": "ticketTokenId",
          "type": "uint256"
        },
        {
          "internalType": "address",
          "name": "claimToken",
          "type": "address"
        }
      ],
      "name": "claim",
      "outputs": [],
      "stateMutability": "nonpayable",
      "type": "function"
    },
    {
      "inputs": [
        {
          "internalType": "uint256[]",
          "name": "ticketTokenIds",
          "type": "uint256[]"
        },
        {
          "internalType": "address",
          "name": "claimToken",
          "type": "address"
        },
        {
          "internalType": "address",
          "name": "owner",
          "type": "address"
        }
      ],
      "name": "claim",
      "outputs": [],
      "stateMutability": "nonpayable",
      "type": "function"
    },
    {
      "inputs": [
        {
          "internalType": "uint256",
          "name": "",
          "type": "uint256"
        },
        {
          "internalType": "address",
          "name": "",
          "type": "address"
        }
      ],
      "name": "entitlements",
      "outputs": [
        {
          "internalType": "uint256",
          "name": "totalClaimed",
          "type": "uint256"
        },
        {
          "internalType": "uint256",
          "name": "lastClaimedAt",
          "type": "uint256"
        }
      ],
      "stateMutability": "view",
      "type": "function"
    },
    {
      "inputs": [
        {
          "internalType": "uint256[]",
          "name": "_tokenIds",
          "type": "uint256[]"
        }
      ],
      "name": "getSharesByTokens",
      "outputs": [
        {
          "internalType": "uint256[]",
          "name": "",
          "type": "uint256[]"
        }
      ],
      "stateMutability": "view",
      "type": "function"
    },
    {
      "inputs": [],
      "name": "hasERC721InstantReleaseExtension",
      "outputs": [
        {
          "internalType": "bool",
          "name": "",
          "type": "bool"
        }
      ],
      "stateMutability": "pure",
      "type": "function"
    },
    {
      "inputs": [],
      "name": "hasERC721ShareSplitExtension",
      "outputs": [
        {
          "internalType": "bool",
          "name": "",
          "type": "bool"
        }
      ],
      "stateMutability": "pure",
      "type": "function"
    },
    {
      "inputs": [
        {
          "components": [
            {
              "internalType": "address",
              "name": "ticketToken",
              "type": "address"
            },
            {
              "internalType": "uint64",
              "name": "lockedUntilTimestamp",
              "type": "uint64"
            },
            {
              "internalType": "uint256[]",
              "name": "tokenIds",
              "type": "uint256[]"
            },
            {
              "internalType": "uint256[]",
              "name": "shares",
              "type": "uint256[]"
            }
          ],
          "internalType": "struct ERC721ShareInstantStream.Config",
          "name": "config",
          "type": "tuple"
        },
        {
          "internalType": "address",
          "name": "deployer",
          "type": "address"
        }
      ],
      "name": "initialize",
      "outputs": [],
      "stateMutability": "nonpayable",
      "type": "function"
    },
    {
      "inputs": [
        {
          "internalType": "uint64",
          "name": "newValue",
          "type": "uint64"
        }
      ],
      "name": "lockUntil",
      "outputs": [],
      "stateMutability": "nonpayable",
      "type": "function"
    },
    {
      "inputs": [],
      "name": "lockedUntilTimestamp",
      "outputs": [
        {
          "internalType": "uint64",
          "name": "",
          "type": "uint64"
        }
      ],
      "stateMutability": "view",
      "type": "function"
    },
    {
      "inputs": [],
      "name": "name",
      "outputs": [
        {
          "internalType": "string",
          "name": "",
          "type": "string"
        }
      ],
      "stateMutability": "view",
      "type": "function"
    },
    {
      "inputs": [],
      "name": "owner",
      "outputs": [
        {
          "internalType": "address",
          "name": "",
          "type": "address"
        }
      ],
      "stateMutability": "view",
      "type": "function"
    },
    {
      "inputs": [],
      "name": "renounceOwnership",
      "outputs": [],
      "stateMutability": "nonpayable",
      "type": "function"
    },
    {
      "inputs": [
        {
          "internalType": "uint256[]",
          "name": "_tokenIds",
          "type": "uint256[]"
        },
        {
          "internalType": "uint256[]",
          "name": "_shares",
          "type": "uint256[]"
        }
      ],
      "name": "setSharesForTokens",
      "outputs": [],
      "stateMutability": "nonpayable",
      "type": "function"
    },
    {
      "inputs": [
        {
          "internalType": "uint256",
          "name": "",
          "type": "uint256"
        }
      ],
      "name": "shares",
      "outputs": [
        {
          "internalType": "uint256",
          "name": "",
          "type": "uint256"
        }
      ],
      "stateMutability": "view",
      "type": "function"
    },
    {
      "inputs": [
        {
          "internalType": "uint256[]",
          "name": "ticketTokenIds",
          "type": "uint256[]"
        },
        {
          "internalType": "address",
          "name": "claimToken",
          "type": "address"
        }
      ],
      "name": "streamClaimableAmount",
      "outputs": [
        {
          "internalType": "uint256",
          "name": "",
          "type": "uint256"
        }
      ],
      "stateMutability": "view",
      "type": "function"
    },
    {
      "inputs": [
        {
          "internalType": "uint256",
          "name": "ticketTokenId",
          "type": "uint256"
        }
      ],
      "name": "streamClaimableAmount",
      "outputs": [
        {
          "internalType": "uint256",
          "name": "",
          "type": "uint256"
        }
      ],
      "stateMutability": "view",
      "type": "function"
    },
    {
      "inputs": [
        {
          "internalType": "uint256",
          "name": "ticketTokenId",
          "type": "uint256"
        },
        {
          "internalType": "address",
          "name": "claimToken",
          "type": "address"
        }
      ],
      "name": "streamClaimableAmount",
      "outputs": [
        {
          "internalType": "uint256",
          "name": "",
          "type": "uint256"
        }
      ],
      "stateMutability": "view",
      "type": "function"
    },
    {
      "inputs": [
        {
          "internalType": "uint256[]",
          "name": "ticketTokenIds",
          "type": "uint256[]"
        },
        {
          "internalType": "address",
          "name": "claimToken",
          "type": "address"
        }
      ],
      "name": "streamTotalClaimed",
      "outputs": [
        {
          "internalType": "uint256",
          "name": "",
          "type": "uint256"
        }
      ],
      "stateMutability": "view",
      "type": "function"
    },
    {
      "inputs": [],
      "name": "streamTotalClaimed",
      "outputs": [
        {
          "internalType": "uint256",
          "name": "",
          "type": "uint256"
        }
      ],
      "stateMutability": "view",
      "type": "function"
    },
    {
      "inputs": [
        {
          "internalType": "uint256[]",
          "name": "ticketTokenIds",
          "type": "uint256[]"
        }
      ],
      "name": "streamTotalClaimed",
      "outputs": [
        {
          "internalType": "uint256",
          "name": "",
          "type": "uint256"
        }
      ],
      "stateMutability": "view",
      "type": "function"
    },
    {
      "inputs": [
        {
          "internalType": "uint256",
          "name": "ticketTokenId",
          "type": "uint256"
        },
        {
          "internalType": "address",
          "name": "claimToken",
          "type": "address"
        }
      ],
      "name": "streamTotalClaimed",
      "outputs": [
        {
          "internalType": "uint256",
          "name": "",
          "type": "uint256"
        }
      ],
      "stateMutability": "view",
      "type": "function"
    },
    {
      "inputs": [
        {
          "internalType": "address",
          "name": "claimToken",
          "type": "address"
        }
      ],
      "name": "streamTotalClaimed",
      "outputs": [
        {
          "internalType": "uint256",
          "name": "",
          "type": "uint256"
        }
      ],
      "stateMutability": "view",
      "type": "function"
    },
    {
      "inputs": [
        {
          "internalType": "uint256",
          "name": "ticketTokenId",
          "type": "uint256"
        }
      ],
      "name": "streamTotalClaimed",
      "outputs": [
        {
          "internalType": "uint256",
          "name": "",
          "type": "uint256"
        }
      ],
      "stateMutability": "view",
      "type": "function"
    },
    {
      "inputs": [],
      "name": "streamTotalSupply",
      "outputs": [
        {
          "internalType": "uint256",
          "name": "",
          "type": "uint256"
        }
      ],
      "stateMutability": "view",
      "type": "function"
    },
    {
      "inputs": [
        {
          "internalType": "address",
          "name": "claimToken",
          "type": "address"
        }
      ],
      "name": "streamTotalSupply",
      "outputs": [
        {
          "internalType": "uint256",
          "name": "",
          "type": "uint256"
        }
      ],
      "stateMutability": "view",
      "type": "function"
    },
    {
      "inputs": [
        {
          "internalType": "bytes4",
          "name": "interfaceId",
          "type": "bytes4"
        }
      ],
      "name": "supportsInterface",
      "outputs": [
        {
          "internalType": "bool",
          "name": "",
          "type": "bool"
        }
      ],
      "stateMutability": "view",
      "type": "function"
    },
    {
      "inputs": [],
      "name": "ticketToken",
      "outputs": [
        {
          "internalType": "address",
          "name": "",
          "type": "address"
        }
      ],
      "stateMutability": "view",
      "type": "function"
    },
    {
      "inputs": [],
      "name": "totalShares",
      "outputs": [
        {
          "internalType": "uint256",
          "name": "",
          "type": "uint256"
        }
      ],
      "stateMutability": "view",
      "type": "function"
    },
    {
      "inputs": [
        {
          "internalType": "address",
          "name": "newOwner",
          "type": "address"
        }
      ],
      "name": "transferOwnership",
      "outputs": [],
      "stateMutability": "nonpayable",
      "type": "function"
    },
    {
      "inputs": [],
      "name": "version",
      "outputs": [
        {
          "internalType": "string",
          "name": "",
          "type": "string"
        }
      ],
      "stateMutability": "view",
      "type": "function"
    },
    {
      "stateMutability": "payable",
      "type": "receive"
    }
  ],
  "transactionHash": "0x610f2cafef19a6239bb9b65e029ba8409fa5ad230c55d00c56b19eff15a1f05e",
  "args": [
    {
      "ticketToken": "0x0000000000000000000000000000000000000000",
      "lockedUntilTimestamp": 0,
      "tokenIds": [],
      "shares": []
    }
  ],
  "numDeployments": 1,
  "solcInputHash": "75b6f3caca0ee30cab66da7e8668151e",
  "bytecode": "0x60806040523480156200001157600080fd5b50604051620027bc380380620027bc833981016040819052620000349162000646565b6200003f3362000057565b6001600355620000508133620000a9565b5062000832565b600280546001600160a01b038381166001600160a01b0319831681179093556040519116919082907f8be0079c531659141344cd1fd0a4f28419497f9722a3daafe3b4186f6b6457e090600090a35050565b6000620000b760016200015f565b90508015620000d0576000805461ff0019166101001790555b620000db8262000057565b82516020840151620000ee91906200020c565b620000f862000246565b62000112836040015184606001516200027c60201b60201c565b80156200015a576000805461ff0019169055604051600181527f7f26b83ff96e1f2b6a682f133852f6798a09c465da95921460cefb3847402498906020015b60405180910390a15b505050565b60008054610100900460ff1615620001c8578160ff1660011480156200019857506200019630620002b260201b620012a31760201c565b155b620001c05760405162461bcd60e51b8152600401620001b7906200071a565b60405180910390fd5b506000919050565b60005460ff808416911610620001f25760405162461bcd60e51b8152600401620001b7906200071a565b506000805460ff191660ff92909216919091179055600190565b600054610100900460ff16620002365760405162461bcd60e51b8152600401620001b79062000768565b620002428282620002c1565b5050565b600054610100900460ff16620002705760405162461bcd60e51b8152600401620001b79062000768565b6200027a6200032b565b565b600054610100900460ff16620002a65760405162461bcd60e51b8152600401620001b79062000768565b62000242828262000367565b6001600160a01b03163b151590565b600054610100900460ff16620002eb5760405162461bcd60e51b8152600401620001b79062000768565b600480546001600160401b038316600160a01b026001600160e01b03199091166001600160a01b0385161717905562000242631ba050e960e21b620003fd565b600054610100900460ff16620003555760405162461bcd60e51b8152600401620001b79062000768565b6200027a631259990960e01b620003fd565b600054610100900460ff16620003915760405162461bcd60e51b8152600401620001b79062000768565b8151815114620003e45760405162461bcd60e51b815260206004820152601460248201527f53545245414d2f415247535f4d49534d415443480000000000000000000000006044820152606401620001b7565b620003f0828262000481565b620002426333c7a33f60e11b5b6001600160e01b03198082161415620004595760405162461bcd60e51b815260206004820152601c60248201527f4552433136353a20696e76616c696420696e74657266616365206964000000006044820152606401620001b7565b6001600160e01b0319166000908152600160208190526040909120805460ff19169091179055565b60005b81518110156200015a57620004d8838281518110620004a757620004a7620007b3565b6020026020010151838381518110620004c457620004c4620007b3565b6020026020010151620004ed60201b60201c565b80620004e481620007df565b91505062000484565b6000828152600860205260409020805490829055600754819062000513908490620007fd565b6200051f919062000818565b60075560408051848152602081018390529081018390527ff81b1f9d8b5d36a5a67d13006a8b091a9b63e2a38b331d315d99c6daefd2ddcc9060600162000151565b634e487b7160e01b600052604160045260246000fd5b604051608081016001600160401b03811182821017156200059c576200059c62000561565b60405290565b600082601f830112620005b457600080fd5b815160206001600160401b0380831115620005d357620005d362000561565b8260051b604051601f19603f83011681018181108482111715620005fb57620005fb62000561565b6040529384528581018301938381019250878511156200061a57600080fd5b83870191505b848210156200063b5781518352918301919083019062000620565b979650505050505050565b6000602082840312156200065957600080fd5b81516001600160401b03808211156200067157600080fd5b90830190608082860312156200068657600080fd5b6200069062000577565b82516001600160a01b0381168114620006a857600080fd5b815260208301518281168114620006be57600080fd5b6020820152604083015182811115620006d657600080fd5b620006e487828601620005a2565b604083015250606083015182811115620006fd57600080fd5b6200070b87828601620005a2565b60608301525095945050505050565b6020808252602e908201527f496e697469616c697a61626c653a20636f6e747261637420697320616c72656160408201526d191e481a5b9a5d1a585b1a5e995960921b606082015260800190565b6020808252602b908201527f496e697469616c697a61626c653a20636f6e7472616374206973206e6f74206960408201526a6e697469616c697a696e6760a81b606082015260800190565b634e487b7160e01b600052603260045260246000fd5b634e487b7160e01b600052601160045260246000fd5b6000600019821415620007f657620007f6620007c9565b5060010190565b60008219821115620008135762000813620007c9565b500190565b6000828210156200082d576200082d620007c9565b500390565b611f7a80620008426000396000f3fe6080604052600436106101775760003560e01c80630191c0af1461019057806301ffc9a7146101c357806306fdde03146101f357806312599909146102475780631c725fdc1461025b57806325289bad1461027b5780632890d033146102ba578063379607f5146102cf5780633a98ef39146102ef5780633b3f12e2146103055780633d2dded51461032557806340f379481461036257806354fd4d501461038f57806357a858fc146103be57806357dc48c8146103eb5780636ba4c1381461043f578063715018a61461045f578063790c0c731461047457806389c6b815146104945780638da5cb5b146104b45780638fc852b1146104d6578063968d9b2c146104f6578063a1cf649314610516578063a8b46d8714610247578063c088184914610559578063c91413a31461058f578063d5ed4d5a146105af578063ddd5e1b2146105cf578063f2fde38b146105ef578063f389b6e41461060f578063f4415ad61461062f578063f66e38c21461066757600080fd5b3661018b576000341161018957600080fd5b005b600080fd5b34801561019c57600080fd5b506101b06101ab366004611817565b610687565b6040519081526020015b60405180910390f35b3480156101cf57600080fd5b506101e36101de36600461186d565b6106dd565b60405190151581526020016101ba565b3480156101ff57600080fd5b5061023a6040518060400160405280601b81526020017a45524337323120536861726520496e7374616e742053747265616d60281b81525081565b6040516101ba9190611897565b34801561025357600080fd5b5060016101e3565b34801561026757600080fd5b50610189610276366004611903565b61071d565b34801561028757600080fd5b506004546102a290600160a01b90046001600160401b031681565b6040516001600160401b0390911681526020016101ba565b3480156102c657600080fd5b506101b06107dd565b3480156102db57600080fd5b506101896102ea36600461191e565b6107ee565b3480156102fb57600080fd5b506101b060075481565b34801561031157600080fd5b506101b0610320366004611817565b6107fc565b34801561033157600080fd5b506000805260066020527f54cdd369e4e8a8515e52ca72ec816c2101831ad1f18bf44102ed171459c9b4f8546101b0565b34801561036e57600080fd5b5061038261037d366004611937565b61087a565b6040516101ba9190611978565b34801561039b57600080fd5b5061023a60405180604001604052806003815260200162302e3160e81b81525081565b3480156103ca57600080fd5b506101b06103d936600461191e565b60086020526000908152604090205481565b3480156103f757600080fd5b5061042a6104063660046119bc565b60056020908152600092835260408084209091529082529020805460019091015482565b604080519283526020830191909152016101ba565b34801561044b57600080fd5b5061018961045a366004611937565b610931565b34801561046b57600080fd5b50610189610942565b34801561048057600080fd5b506101b061048f3660046119ec565b61097d565b3480156104a057600080fd5b506101b06104af366004611937565b610a50565b3480156104c057600080fd5b506104c9610a65565b6040516101ba9190611a09565b3480156104e257600080fd5b506101896104f1366004611af5565b610a74565b34801561050257600080fd5b506101b061051136600461191e565b610b27565b34801561052257600080fd5b506101b06105313660046119bc565b60009182526005602090815260408084206001600160a01b0393909316845291905290205490565b34801561056557600080fd5b506101b06105743660046119ec565b6001600160a01b031660009081526006602052604090205490565b34801561059b57600080fd5b506101896105aa366004611b58565b610b34565b3480156105bb57600080fd5b506004546104c9906001600160a01b031681565b3480156105db57600080fd5b506101896105ea3660046119bc565b610bd9565b3480156105fb57600080fd5b5061018961060a3660046119ec565b610e60565b34801561061b57600080fd5b5061018961062a366004611c1e565b610efd565b34801561063b57600080fd5b506101b061064a36600461191e565b600090815260056020908152604080832083805290915290205490565b34801561067357600080fd5b506101b06106823660046119bc565b61124f565b600080805b848110156106d4576106b68686838181106106a9576106a9611c85565b905060200201358561124f565b6106c09083611cb1565b9150806106cc81611cc9565b91505061068c565b50949350505050565b60006301ffc9a760e01b6001600160e01b03198316148061071757506001600160e01b0319821660009081526001602052604090205460ff165b92915050565b33610726610a65565b6001600160a01b0316146107555760405162461bcd60e51b815260040161074c90611ce4565b60405180910390fd5b6004546001600160401b03600160a01b9091048116908216116107b15760405162461bcd60e51b815260206004820152601460248201527314d5149150534bd0d0539393d517d49155d2539160621b604482015260640161074c565b600480546001600160401b03909216600160a01b02600160a01b600160e01b0319909216919091179055565b60006107e9600061097d565b905090565b6107f9816000610bd9565b50565b600080805b848110156106d4576005600087878481811061081f5761081f611c85565b9050602002013581526020019081526020016000206000856001600160a01b03166001600160a01b0316815260200190815260200160002060000154826108669190611cb1565b91508061087281611cc9565b915050610801565b60606000826001600160401b0381111561089657610896611a1d565b6040519080825280602002602001820160405280156108bf578160200160208202803683370190505b50905060005b815181101561092957600860008686848181106108e4576108e4611c85565b9050602002013581526020019081526020016000205482828151811061090c5761090c611c85565b60209081029190910101528061092181611cc9565b9150506108c5565b509392505050565b61093e8282600033610efd565b5050565b3361094b610a65565b6001600160a01b0316146109715760405162461bcd60e51b815260040161074c90611ce4565b61097b60006112b2565b565b60006001600160a01b0382166109b1576001600160a01b038216600090815260066020526040902054610717904790611cb1565b6040516370a0823160e01b81526001600160a01b038316906370a08231906109dd903090600401611a09565b60206040518083038186803b1580156109f557600080fd5b505afa158015610a09573d6000803e3d6000fd5b505050506040513d601f19601f82011682018060405250810190610a2d9190611d19565b6001600160a01b0383166000908152600660205260409020546107179190611cb1565b6000610a5e838360006107fc565b9392505050565b6002546001600160a01b031690565b33610a7d610a65565b6001600160a01b031614610aa35760405162461bcd60e51b815260040161074c90611ce4565b8151815114610ac45760405162461bcd60e51b815260040161074c90611d32565b60045442600160a01b9091046001600160401b031610610b1d5760405162461bcd60e51b815260206004820152601460248201527314d5149150534bd0d3d3919251d7d313d0d2d15160621b604482015260640161074c565b61093e8282611304565b600061071782600061124f565b6000610b40600161135e565b90508015610b58576000805461ff0019166101001790555b610b61826112b2565b610b73836000015184602001516113f2565b610b7b611423565b610b8d83604001518460600151611452565b8015610bd4576000805461ff0019169055604051600181527f7f26b83ff96e1f2b6a682f133852f6798a09c465da95921460cefb3847402498906020015b60405180910390a15b505050565b60026003541415610bfc5760405162461bcd60e51b815260040161074c90611d60565b6002600355600480546040516331a9108f60e11b81529182018490526000916001600160a01b0390911690636352211e9060240160206040518083038186803b158015610c4857600080fd5b505afa158015610c5c573d6000803e3d6000fd5b505050506040513d601f19601f82011682018060405250810190610c809190611d97565b90506000610c8e848461124f565b905060008111610cda5760405162461bcd60e51b815260206004820152601760248201527653545245414d2f4e4f5448494e475f544f5f434c41494d60481b604482015260640161074c565b60008481526005602090815260408083206001600160a01b038716845290915281208054839290610d0c908490611cb1565b909155505060008481526005602090815260408083206001600160a01b0387168452825280832042600190910155600690915281208054839290610d51908490611cb1565b90915550506001600160a01b038316610d7c57610d776001600160a01b03831682611483565b610dfe565b60405163a9059cbb60e01b81526001600160a01b0384169063a9059cbb90610daa9085908590600401611db4565b602060405180830381600087803b158015610dc457600080fd5b505af1158015610dd8573d6000803e3d6000fd5b505050506040513d601f19601f82011682018060405250810190610dfc9190611dcd565b505b604080513381526001600160a01b038481166020830152818301879052851660608201526080810183905290517fa2d3c4c1fc934d6d2d8f9e862df90c01ae4eb0e920cd8957d242ba26b8dc40789181900360a00190a1505060016003555050565b33610e69610a65565b6001600160a01b031614610e8f5760405162461bcd60e51b815260040161074c90611ce4565b6001600160a01b038116610ef45760405162461bcd60e51b815260206004820152602660248201527f4f776e61626c653a206e6577206f776e657220697320746865207a65726f206160448201526564647265737360d01b606482015260840161074c565b6107f9816112b2565b60026003541415610f205760405162461bcd60e51b815260040161074c90611d60565b60026003556000805b8481101561112c57610f46868683818110610bd457610bd4611c85565b6004546001600160a01b038085169116636352211e888885818110610f6d57610f6d611c85565b905060200201356040518263ffffffff1660e01b8152600401610f9291815260200190565b60206040518083038186803b158015610faa57600080fd5b505afa158015610fbe573d6000803e3d6000fd5b505050506040513d601f19601f82011682018060405250810190610fe29190611d97565b6001600160a01b03161461102f5760405162461bcd60e51b815260206004820152601460248201527329aa2922a0a697a727aa2fa7232a2fa7aba722a960611b604482015260640161074c565b600061105387878481811061104657611046611c85565b905060200201358661124f565b9050801561111957806005600089898681811061107257611072611c85565b9050602002013581526020019081526020016000206000876001600160a01b03166001600160a01b0316815260200190815260200160002060000160008282546110bc9190611cb1565b90915550429050600560008989868181106110d9576110d9611c85565b6020908102929092013583525081810192909252604090810160009081206001600160a01b038a1682529092529020600101556111168184611cb1565b92505b508061112481611cc9565b915050610f29565b506001600160a01b03831660009081526006602052604081208054839290611155908490611cb1565b90915550506001600160a01b0383166111805761117b6001600160a01b03831682611483565b611202565b60405163a9059cbb60e01b81526001600160a01b0384169063a9059cbb906111ae9085908590600401611db4565b602060405180830381600087803b1580156111c857600080fd5b505af11580156111dc573d6000803e3d6000fd5b505050506040513d601f19601f820116820180604052508101906112009190611dcd565b505b7fd84a5c424a4f777bcf4f645712b8e5ebfc550f42bde444fa822fe98ee1b132b133838787878660405161123b96959493929190611def565b60405180910390a150506001600355505050565b60008061126b6112646112618561097d565b90565b8585611599565b60008581526005602090815260408083206001600160a01b038816845290915290205490915061129b9082611e53565b949350505050565b6001600160a01b03163b151590565b600280546001600160a01b038381166001600160a01b0319831681179093556040519116919082907f8be0079c531659141344cd1fd0a4f28419497f9722a3daafe3b4186f6b6457e090600090a35050565b60005b8151811015610bd45761134c83828151811061132557611325611c85565b602002602001015183838151811061133f5761133f611c85565b60200260200101516115c2565b8061135681611cc9565b915050611307565b60008054610100900460ff16156113ac578160ff1660011480156113885750611386306112a3565b155b6113a45760405162461bcd60e51b815260040161074c90611e6a565b506000919050565b60005460ff8084169116106113d35760405162461bcd60e51b815260040161074c90611e6a565b506000805460ff191660ff92909216919091179055600190565b919050565b600054610100900460ff166114195760405162461bcd60e51b815260040161074c90611eb8565b61093e8282611631565b600054610100900460ff1661144a5760405162461bcd60e51b815260040161074c90611eb8565b61097b611696565b600054610100900460ff166114795760405162461bcd60e51b815260040161074c90611eb8565b61093e82826116cd565b804710156114d35760405162461bcd60e51b815260206004820152601d60248201527f416464726573733a20696e73756666696369656e742062616c616e6365000000604482015260640161074c565b6000826001600160a01b03168260405160006040518083038185875af1925050503d8060008114611520576040519150601f19603f3d011682016040523d82523d6000602084013e611525565b606091505b5050905080610bd45760405162461bcd60e51b815260206004820152603a60248201527f416464726573733a20756e61626c6520746f2073656e642076616c75652c20726044820152791958da5c1a595b9d081b585e481a185d99481c995d995c9d195960321b606482015260840161074c565b6007546000838152600860205260408120549091906115b89086611f03565b61129b9190611f22565b600082815260086020526040902080549082905560075481906115e6908490611cb1565b6115f09190611e53565b60075560408051848152602081018390529081018390527ff81b1f9d8b5d36a5a67d13006a8b091a9b63e2a38b331d315d99c6daefd2ddcc90606001610bcb565b600054610100900460ff166116585760405162461bcd60e51b815260040161074c90611eb8565b600480546001600160401b038316600160a01b026001600160e01b03199091166001600160a01b0385161717905561093e631ba050e960e21b61172b565b600054610100900460ff166116bd5760405162461bcd60e51b815260040161074c90611eb8565b61097b631259990960e01b61172b565b600054610100900460ff166116f45760405162461bcd60e51b815260040161074c90611eb8565b81518151146117155760405162461bcd60e51b815260040161074c90611d32565b61171f8282611304565b61093e6333c7a33f60e11b5b6001600160e01b031980821614156117845760405162461bcd60e51b815260206004820152601c60248201527b115490cc4d8d4e881a5b9d985b1a59081a5b9d195c999858d9481a5960221b604482015260640161074c565b6001600160e01b0319166000908152600160208190526040909120805460ff19169091179055565b60008083601f8401126117be57600080fd5b5081356001600160401b038111156117d557600080fd5b6020830191508360208260051b85010111156117f057600080fd5b9250929050565b6001600160a01b03811681146107f957600080fd5b80356113ed816117f7565b60008060006040848603121561182c57600080fd5b83356001600160401b0381111561184257600080fd5b61184e868287016117ac565b9094509250506020840135611862816117f7565b809150509250925092565b60006020828403121561187f57600080fd5b81356001600160e01b031981168114610a5e57600080fd5b600060208083528351808285015260005b818110156118c4578581018301518582016040015282016118a8565b818111156118d6576000604083870101525b50601f01601f1916929092016040019392505050565b80356001600160401b03811681146113ed57600080fd5b60006020828403121561191557600080fd5b610a5e826118ec565b60006020828403121561193057600080fd5b5035919050565b6000806020838503121561194a57600080fd5b82356001600160401b0381111561196057600080fd5b61196c858286016117ac565b90969095509350505050565b6020808252825182820181905260009190848201906040850190845b818110156119b057835183529284019291840191600101611994565b50909695505050505050565b600080604083850312156119cf57600080fd5b8235915060208301356119e1816117f7565b809150509250929050565b6000602082840312156119fe57600080fd5b8135610a5e816117f7565b6001600160a01b0391909116815260200190565b634e487b7160e01b600052604160045260246000fd5b604051608081016001600160401b0381118282101715611a5557611a55611a1d565b60405290565b600082601f830112611a6c57600080fd5b813560206001600160401b0380831115611a8857611a88611a1d565b8260051b604051601f19603f83011681018181108482111715611aad57611aad611a1d565b604052938452858101830193838101925087851115611acb57600080fd5b83870191505b84821015611aea57813583529183019190830190611ad1565b979650505050505050565b60008060408385031215611b0857600080fd5b82356001600160401b0380821115611b1f57600080fd5b611b2b86838701611a5b565b93506020850135915080821115611b4157600080fd5b50611b4e85828601611a5b565b9150509250929050565b60008060408385031215611b6b57600080fd5b82356001600160401b0380821115611b8257600080fd5b9084019060808287031215611b9657600080fd5b611b9e611a33565b8235611ba9816117f7565b8152611bb7602084016118ec565b6020820152604083013582811115611bce57600080fd5b611bda88828601611a5b565b604083015250606083013582811115611bf257600080fd5b611bfe88828601611a5b565b6060830152509350611c159150506020840161180c565b90509250929050565b60008060008060608587031215611c3457600080fd5b84356001600160401b03811115611c4a57600080fd5b611c56878288016117ac565b9095509350506020850135611c6a816117f7565b91506040850135611c7a816117f7565b939692955090935050565b634e487b7160e01b600052603260045260246000fd5b634e487b7160e01b600052601160045260246000fd5b60008219821115611cc457611cc4611c9b565b500190565b6000600019821415611cdd57611cdd611c9b565b5060010190565b6020808252818101527f4f776e61626c653a2063616c6c6572206973206e6f7420746865206f776e6572604082015260600190565b600060208284031215611d2b57600080fd5b5051919050565b6020808252601490820152730a6a8a48a829a5e82a48ea6be9a92a69a82a886960631b604082015260600190565b6020808252601f908201527f5265656e7472616e637947756172643a207265656e7472616e742063616c6c00604082015260600190565b600060208284031215611da957600080fd5b8151610a5e816117f7565b6001600160a01b03929092168252602082015260400190565b600060208284031215611ddf57600080fd5b81518015158114610a5e57600080fd5b6001600160a01b038781168252868116602083015260a06040830181905282018590526000906001600160fb1b03861115611e2957600080fd5b8560051b808860c0860137600090840160c001908152941660608301525060800152949350505050565b600082821015611e6557611e65611c9b565b500390565b6020808252602e908201527f496e697469616c697a61626c653a20636f6e747261637420697320616c72656160408201526d191e481a5b9a5d1a585b1a5e995960921b606082015260800190565b6020808252602b908201527f496e697469616c697a61626c653a20636f6e7472616374206973206e6f74206960408201526a6e697469616c697a696e6760a81b606082015260800190565b6000816000190483118215151615611f1d57611f1d611c9b565b500290565b600082611f3f57634e487b7160e01b600052601260045260246000fd5b50049056fea2646970667358221220e4a75b62b3bf058943eed07f93e348c94b79ea4c7597f6407e6cac471045f3f364736f6c63430008090033",
  "devdoc": {
    "kind": "dev",
    "methods": {
      "owner()": {
        "details": "Returns the address of the current owner."
      },
      "renounceOwnership()": {
        "details": "Leaves the contract without owner. It will not be possible to call `onlyOwner` functions anymore. Can only be called by the current owner. NOTE: Renouncing ownership will leave the contract without an owner, thereby removing any functionality that is only available to the owner."
      },
      "supportsInterface(bytes4)": {
        "details": "See {IERC165-supportsInterface}."
      },
      "transferOwnership(address)": {
        "details": "Transfers ownership of the contract to a new account (`newOwner`). Can only be called by the current owner."
      }
    },
    "version": 1
  },
  "userdoc": {
    "kind": "user",
    "methods": {},
    "version": 1
  },
  "storageLayout": {
    "storage": [
      {
        "astId": 886,
        "contract": "contracts/streams/ERC721/presets/ERC721ShareInstantStream.sol:ERC721ShareInstantStream",
        "label": "_initialized",
        "offset": 0,
        "slot": "0",
        "type": "t_uint8"
      },
      {
        "astId": 889,
        "contract": "contracts/streams/ERC721/presets/ERC721ShareInstantStream.sol:ERC721ShareInstantStream",
        "label": "_initializing",
        "offset": 1,
        "slot": "0",
        "type": "t_bool"
      },
      {
        "astId": 4693,
        "contract": "contracts/streams/ERC721/presets/ERC721ShareInstantStream.sol:ERC721ShareInstantStream",
        "label": "_supportedInterfaces",
        "offset": 0,
        "slot": "1",
        "type": "t_mapping(t_bytes4,t_bool)"
      },
      {
        "astId": 782,
        "contract": "contracts/streams/ERC721/presets/ERC721ShareInstantStream.sol:ERC721ShareInstantStream",
        "label": "_owner",
        "offset": 0,
        "slot": "2",
        "type": "t_address"
      },
      {
        "astId": 1124,
        "contract": "contracts/streams/ERC721/presets/ERC721ShareInstantStream.sol:ERC721ShareInstantStream",
        "label": "_status",
        "offset": 0,
        "slot": "3",
        "type": "t_uint256"
      },
      {
        "astId": 12601,
        "contract": "contracts/streams/ERC721/presets/ERC721ShareInstantStream.sol:ERC721ShareInstantStream",
        "label": "ticketToken",
        "offset": 0,
        "slot": "4",
        "type": "t_address"
      },
      {
        "astId": 12603,
        "contract": "contracts/streams/ERC721/presets/ERC721ShareInstantStream.sol:ERC721ShareInstantStream",
        "label": "lockedUntilTimestamp",
        "offset": 20,
        "slot": "4",
        "type": "t_uint64"
      },
      {
        "astId": 12610,
        "contract": "contracts/streams/ERC721/presets/ERC721ShareInstantStream.sol:ERC721ShareInstantStream",
        "label": "entitlements",
        "offset": 0,
        "slot": "5",
        "type": "t_mapping(t_uint256,t_mapping(t_address,t_struct(Entitlement)12599_storage))"
      },
      {
        "astId": 12614,
        "contract": "contracts/streams/ERC721/presets/ERC721ShareInstantStream.sol:ERC721ShareInstantStream",
        "label": "_streamTotalClaimed",
        "offset": 0,
        "slot": "6",
        "type": "t_mapping(t_address,t_uint256)"
      },
      {
        "astId": 13845,
        "contract": "contracts/streams/ERC721/presets/ERC721ShareInstantStream.sol:ERC721ShareInstantStream",
        "label": "totalShares",
        "offset": 0,
        "slot": "7",
        "type": "t_uint256"
      },
      {
        "astId": 13849,
        "contract": "contracts/streams/ERC721/presets/ERC721ShareInstantStream.sol:ERC721ShareInstantStream",
        "label": "shares",
        "offset": 0,
        "slot": "8",
        "type": "t_mapping(t_uint256,t_uint256)"
      }
    ],
    "types": {
      "t_address": {
        "encoding": "inplace",
        "label": "address",
        "numberOfBytes": "20"
      },
      "t_bool": {
        "encoding": "inplace",
        "label": "bool",
        "numberOfBytes": "1"
      },
      "t_bytes4": {
        "encoding": "inplace",
        "label": "bytes4",
        "numberOfBytes": "4"
      },
      "t_mapping(t_address,t_struct(Entitlement)12599_storage)": {
        "encoding": "mapping",
        "key": "t_address",
        "label": "mapping(address => struct ERC721MultiTokenStream.Entitlement)",
        "numberOfBytes": "32",
        "value": "t_struct(Entitlement)12599_storage"
      },
      "t_mapping(t_address,t_uint256)": {
        "encoding": "mapping",
        "key": "t_address",
        "label": "mapping(address => uint256)",
        "numberOfBytes": "32",
        "value": "t_uint256"
      },
      "t_mapping(t_bytes4,t_bool)": {
        "encoding": "mapping",
        "key": "t_bytes4",
        "label": "mapping(bytes4 => bool)",
        "numberOfBytes": "32",
        "value": "t_bool"
      },
      "t_mapping(t_uint256,t_mapping(t_address,t_struct(Entitlement)12599_storage))": {
        "encoding": "mapping",
        "key": "t_uint256",
        "label": "mapping(uint256 => mapping(address => struct ERC721MultiTokenStream.Entitlement))",
        "numberOfBytes": "32",
        "value": "t_mapping(t_address,t_struct(Entitlement)12599_storage)"
      },
      "t_mapping(t_uint256,t_uint256)": {
        "encoding": "mapping",
        "key": "t_uint256",
        "label": "mapping(uint256 => uint256)",
        "numberOfBytes": "32",
        "value": "t_uint256"
      },
      "t_struct(Entitlement)12599_storage": {
        "encoding": "inplace",
        "label": "struct ERC721MultiTokenStream.Entitlement",
        "members": [
          {
            "astId": 12596,
            "contract": "contracts/streams/ERC721/presets/ERC721ShareInstantStream.sol:ERC721ShareInstantStream",
            "label": "totalClaimed",
            "offset": 0,
            "slot": "0",
            "type": "t_uint256"
          },
          {
            "astId": 12598,
            "contract": "contracts/streams/ERC721/presets/ERC721ShareInstantStream.sol:ERC721ShareInstantStream",
            "label": "lastClaimedAt",
            "offset": 0,
            "slot": "1",
            "type": "t_uint256"
          }
        ],
        "numberOfBytes": "64"
      },
      "t_uint256": {
        "encoding": "inplace",
        "label": "uint256",
        "numberOfBytes": "32"
      },
      "t_uint64": {
        "encoding": "inplace",
        "label": "uint64",
        "numberOfBytes": "8"
      },
      "t_uint8": {
        "encoding": "inplace",
        "label": "uint8",
        "numberOfBytes": "1"
      }
    }
  }
}