{
  "address": "0x70492D215774d05f279b7C811399AEe2406d4c2D",
  "abi": [
    {
      "inputs": [
        {
          "components": [
            {
              "internalType": "address",
              "name": "ticketToken",
              "type": "address"
            },
            {
              "internalType": "uint64",
              "name": "lockedUntilTimestamp",
              "type": "uint64"
            },
            {
              "internalType": "uint256[]",
              "name": "tokenIds",
              "type": "uint256[]"
            },
            {
              "internalType": "uint256[]",
              "name": "shares",
              "type": "uint256[]"
            },
            {
              "internalType": "uint64",
              "name": "claimLockedUntil",
              "type": "uint64"
            }
          ],
          "internalType": "struct ERC721ShareInstantStream.Config",
          "name": "config",
          "type": "tuple"
        }
      ],
      "stateMutability": "nonpayable",
      "type": "constructor"
    },
    {
      "anonymous": false,
      "inputs": [
        {
          "indexed": false,
          "internalType": "address",
          "name": "operator",
          "type": "address"
        },
        {
          "indexed": false,
          "internalType": "address",
          "name": "beneficiary",
          "type": "address"
        },
        {
          "indexed": false,
          "internalType": "uint256",
          "name": "ticketTokenId",
          "type": "uint256"
        },
        {
          "indexed": false,
          "internalType": "address",
          "name": "claimToken",
          "type": "address"
        },
        {
          "indexed": false,
          "internalType": "uint256",
          "name": "releasedAmount",
          "type": "uint256"
        }
      ],
      "name": "Claim",
      "type": "event"
    },
    {
      "anonymous": false,
      "inputs": [
        {
          "indexed": false,
          "internalType": "address",
          "name": "operator",
          "type": "address"
        },
        {
          "indexed": false,
          "internalType": "address",
          "name": "beneficiary",
          "type": "address"
        },
        {
          "indexed": false,
          "internalType": "uint256[]",
          "name": "ticketTokenIds",
          "type": "uint256[]"
        },
        {
          "indexed": false,
          "internalType": "address",
          "name": "claimToken",
          "type": "address"
        },
        {
          "indexed": false,
          "internalType": "uint256",
          "name": "releasedAmount",
          "type": "uint256"
        }
      ],
      "name": "ClaimMany",
      "type": "event"
    },
    {
      "anonymous": false,
      "inputs": [],
      "name": "EmergencyPowerRevoked",
      "type": "event"
    },
    {
      "anonymous": false,
      "inputs": [
        {
          "indexed": false,
          "internalType": "address[]",
          "name": "claimTokens",
          "type": "address[]"
        }
      ],
      "name": "EmergencyWithdrawn",
      "type": "event"
    },
    {
      "anonymous": false,
      "inputs": [
        {
          "indexed": false,
          "internalType": "uint8",
          "name": "version",
          "type": "uint8"
        }
      ],
      "name": "Initialized",
      "type": "event"
    },
    {
      "anonymous": false,
      "inputs": [
        {
          "indexed": true,
          "internalType": "address",
          "name": "previousOwner",
          "type": "address"
        },
        {
          "indexed": true,
          "internalType": "address",
          "name": "newOwner",
          "type": "address"
        }
      ],
      "name": "OwnershipTransferred",
      "type": "event"
    },
    {
      "anonymous": false,
      "inputs": [
        {
          "indexed": false,
          "internalType": "uint256",
          "name": "tokenId",
          "type": "uint256"
        },
        {
          "indexed": false,
          "internalType": "uint256",
          "name": "prevShares",
          "type": "uint256"
        },
        {
          "indexed": false,
          "internalType": "uint256",
          "name": "newShares",
          "type": "uint256"
        }
      ],
      "name": "SharesUpdated",
      "type": "event"
    },
    {
      "inputs": [
        {
          "internalType": "uint256",
          "name": "ticketTokenId",
          "type": "uint256"
        }
      ],
      "name": "claim",
      "outputs": [],
      "stateMutability": "nonpayable",
      "type": "function"
    },
    {
      "inputs": [
        {
          "internalType": "uint256[]",
          "name": "ticketTokenIds",
          "type": "uint256[]"
        }
      ],
      "name": "claim",
      "outputs": [],
      "stateMutability": "nonpayable",
      "type": "function"
    },
    {
      "inputs": [
        {
          "internalType": "uint256",
          "name": "ticketTokenId",
          "type": "uint256"
        },
        {
          "internalType": "address",
          "name": "claimToken",
          "type": "address"
        }
      ],
      "name": "claim",
      "outputs": [],
      "stateMutability": "nonpayable",
      "type": "function"
    },
    {
      "inputs": [
        {
          "internalType": "uint256[]",
          "name": "ticketTokenIds",
          "type": "uint256[]"
        },
        {
          "internalType": "address",
          "name": "claimToken",
          "type": "address"
        },
        {
          "internalType": "address",
          "name": "owner",
          "type": "address"
        }
      ],
      "name": "claim",
      "outputs": [],
      "stateMutability": "nonpayable",
      "type": "function"
    },
    {
      "inputs": [],
      "name": "claimLockedUntil",
      "outputs": [
        {
          "internalType": "uint64",
          "name": "",
          "type": "uint64"
        }
      ],
      "stateMutability": "view",
      "type": "function"
    },
    {
      "inputs": [],
      "name": "emergencyPowerRevoked",
      "outputs": [
        {
          "internalType": "bool",
          "name": "",
          "type": "bool"
        }
      ],
      "stateMutability": "view",
      "type": "function"
    },
    {
      "inputs": [
        {
          "internalType": "address[]",
          "name": "claimTokens",
          "type": "address[]"
        }
      ],
      "name": "emergencyWithdraw",
      "outputs": [],
      "stateMutability": "nonpayable",
      "type": "function"
    },
    {
      "inputs": [
        {
          "internalType": "uint256",
          "name": "",
          "type": "uint256"
        },
        {
          "internalType": "address",
          "name": "",
          "type": "address"
        }
      ],
      "name": "entitlements",
      "outputs": [
        {
          "internalType": "uint256",
          "name": "totalClaimed",
          "type": "uint256"
        },
        {
          "internalType": "uint256",
          "name": "lastClaimedAt",
          "type": "uint256"
        }
      ],
      "stateMutability": "view",
      "type": "function"
    },
    {
      "inputs": [
        {
          "internalType": "uint256[]",
          "name": "_tokenIds",
          "type": "uint256[]"
        }
      ],
      "name": "getSharesByTokens",
      "outputs": [
        {
          "internalType": "uint256[]",
          "name": "",
          "type": "uint256[]"
        }
      ],
      "stateMutability": "view",
      "type": "function"
    },
    {
      "inputs": [],
      "name": "hasERC721InstantReleaseExtension",
      "outputs": [
        {
          "internalType": "bool",
          "name": "",
          "type": "bool"
        }
      ],
      "stateMutability": "pure",
      "type": "function"
    },
    {
      "inputs": [],
      "name": "hasERC721LockableClaimExtension",
      "outputs": [
        {
          "internalType": "bool",
          "name": "",
          "type": "bool"
        }
      ],
      "stateMutability": "pure",
      "type": "function"
    },
    {
      "inputs": [],
      "name": "hasERC721ShareSplitExtension",
      "outputs": [
        {
          "internalType": "bool",
          "name": "",
          "type": "bool"
        }
      ],
      "stateMutability": "pure",
      "type": "function"
    },
    {
      "inputs": [
        {
          "components": [
            {
              "internalType": "address",
              "name": "ticketToken",
              "type": "address"
            },
            {
              "internalType": "uint64",
              "name": "lockedUntilTimestamp",
              "type": "uint64"
            },
            {
              "internalType": "uint256[]",
              "name": "tokenIds",
              "type": "uint256[]"
            },
            {
              "internalType": "uint256[]",
              "name": "shares",
              "type": "uint256[]"
            },
            {
              "internalType": "uint64",
              "name": "claimLockedUntil",
              "type": "uint64"
            }
          ],
          "internalType": "struct ERC721ShareInstantStream.Config",
          "name": "config",
          "type": "tuple"
        },
        {
          "internalType": "address",
          "name": "deployer",
          "type": "address"
        }
      ],
      "name": "initialize",
      "outputs": [],
      "stateMutability": "nonpayable",
      "type": "function"
    },
    {
      "inputs": [
        {
          "internalType": "uint64",
          "name": "newValue",
          "type": "uint64"
        }
      ],
      "name": "lockUntil",
      "outputs": [],
      "stateMutability": "nonpayable",
      "type": "function"
    },
    {
      "inputs": [],
      "name": "lockedUntilTimestamp",
      "outputs": [
        {
          "internalType": "uint64",
          "name": "",
          "type": "uint64"
        }
      ],
      "stateMutability": "view",
      "type": "function"
    },
    {
      "inputs": [],
      "name": "name",
      "outputs": [
        {
          "internalType": "string",
          "name": "",
          "type": "string"
        }
      ],
      "stateMutability": "view",
      "type": "function"
    },
    {
      "inputs": [],
      "name": "owner",
      "outputs": [
        {
          "internalType": "address",
          "name": "",
          "type": "address"
        }
      ],
      "stateMutability": "view",
      "type": "function"
    },
    {
      "inputs": [],
      "name": "renounceOwnership",
      "outputs": [],
      "stateMutability": "nonpayable",
      "type": "function"
    },
    {
      "inputs": [],
      "name": "revokeEmergencyPower",
      "outputs": [],
      "stateMutability": "nonpayable",
      "type": "function"
    },
    {
      "inputs": [
        {
          "internalType": "uint64",
          "name": "newValue",
          "type": "uint64"
        }
      ],
      "name": "setClaimLockedUntil",
      "outputs": [],
      "stateMutability": "nonpayable",
      "type": "function"
    },
    {
      "inputs": [
        {
          "internalType": "uint256[]",
          "name": "_tokenIds",
          "type": "uint256[]"
        },
        {
          "internalType": "uint256[]",
          "name": "_shares",
          "type": "uint256[]"
        }
      ],
      "name": "setSharesForTokens",
      "outputs": [],
      "stateMutability": "nonpayable",
      "type": "function"
    },
    {
      "inputs": [
        {
          "internalType": "uint256",
          "name": "",
          "type": "uint256"
        }
      ],
      "name": "shares",
      "outputs": [
        {
          "internalType": "uint256",
          "name": "",
          "type": "uint256"
        }
      ],
      "stateMutability": "view",
      "type": "function"
    },
    {
      "inputs": [
        {
          "internalType": "uint256[]",
          "name": "ticketTokenIds",
          "type": "uint256[]"
        },
        {
          "internalType": "address",
          "name": "claimToken",
          "type": "address"
        }
      ],
      "name": "streamClaimableAmount",
      "outputs": [
        {
          "internalType": "uint256",
          "name": "",
          "type": "uint256"
        }
      ],
      "stateMutability": "view",
      "type": "function"
    },
    {
      "inputs": [
        {
          "internalType": "uint256",
          "name": "ticketTokenId",
          "type": "uint256"
        }
      ],
      "name": "streamClaimableAmount",
      "outputs": [
        {
          "internalType": "uint256",
          "name": "",
          "type": "uint256"
        }
      ],
      "stateMutability": "view",
      "type": "function"
    },
    {
      "inputs": [
        {
          "internalType": "uint256",
          "name": "ticketTokenId",
          "type": "uint256"
        },
        {
          "internalType": "address",
          "name": "claimToken",
          "type": "address"
        }
      ],
      "name": "streamClaimableAmount",
      "outputs": [
        {
          "internalType": "uint256",
          "name": "",
          "type": "uint256"
        }
      ],
      "stateMutability": "view",
      "type": "function"
    },
    {
      "inputs": [
        {
          "internalType": "uint256[]",
          "name": "ticketTokenIds",
          "type": "uint256[]"
        },
        {
          "internalType": "address",
          "name": "claimToken",
          "type": "address"
        }
      ],
      "name": "streamTotalClaimed",
      "outputs": [
        {
          "internalType": "uint256",
          "name": "",
          "type": "uint256"
        }
      ],
      "stateMutability": "view",
      "type": "function"
    },
    {
      "inputs": [],
      "name": "streamTotalClaimed",
      "outputs": [
        {
          "internalType": "uint256",
          "name": "",
          "type": "uint256"
        }
      ],
      "stateMutability": "view",
      "type": "function"
    },
    {
      "inputs": [
        {
          "internalType": "uint256[]",
          "name": "ticketTokenIds",
          "type": "uint256[]"
        }
      ],
      "name": "streamTotalClaimed",
      "outputs": [
        {
          "internalType": "uint256",
          "name": "",
          "type": "uint256"
        }
      ],
      "stateMutability": "view",
      "type": "function"
    },
    {
      "inputs": [
        {
          "internalType": "uint256",
          "name": "ticketTokenId",
          "type": "uint256"
        },
        {
          "internalType": "address",
          "name": "claimToken",
          "type": "address"
        }
      ],
      "name": "streamTotalClaimed",
      "outputs": [
        {
          "internalType": "uint256",
          "name": "",
          "type": "uint256"
        }
      ],
      "stateMutability": "view",
      "type": "function"
    },
    {
      "inputs": [
        {
          "internalType": "address",
          "name": "claimToken",
          "type": "address"
        }
      ],
      "name": "streamTotalClaimed",
      "outputs": [
        {
          "internalType": "uint256",
          "name": "",
          "type": "uint256"
        }
      ],
      "stateMutability": "view",
      "type": "function"
    },
    {
      "inputs": [
        {
          "internalType": "uint256",
          "name": "ticketTokenId",
          "type": "uint256"
        }
      ],
      "name": "streamTotalClaimed",
      "outputs": [
        {
          "internalType": "uint256",
          "name": "",
          "type": "uint256"
        }
      ],
      "stateMutability": "view",
      "type": "function"
    },
    {
      "inputs": [],
      "name": "streamTotalSupply",
      "outputs": [
        {
          "internalType": "uint256",
          "name": "",
          "type": "uint256"
        }
      ],
      "stateMutability": "view",
      "type": "function"
    },
    {
      "inputs": [
        {
          "internalType": "address",
          "name": "claimToken",
          "type": "address"
        }
      ],
      "name": "streamTotalSupply",
      "outputs": [
        {
          "internalType": "uint256",
          "name": "",
          "type": "uint256"
        }
      ],
      "stateMutability": "view",
      "type": "function"
    },
    {
      "inputs": [
        {
          "internalType": "bytes4",
          "name": "interfaceId",
          "type": "bytes4"
        }
      ],
      "name": "supportsInterface",
      "outputs": [
        {
          "internalType": "bool",
          "name": "",
          "type": "bool"
        }
      ],
      "stateMutability": "view",
      "type": "function"
    },
    {
      "inputs": [],
      "name": "ticketToken",
      "outputs": [
        {
          "internalType": "address",
          "name": "",
          "type": "address"
        }
      ],
      "stateMutability": "view",
      "type": "function"
    },
    {
      "inputs": [],
      "name": "totalShares",
      "outputs": [
        {
          "internalType": "uint256",
          "name": "",
          "type": "uint256"
        }
      ],
      "stateMutability": "view",
      "type": "function"
    },
    {
      "inputs": [
        {
          "internalType": "address",
          "name": "newOwner",
          "type": "address"
        }
      ],
      "name": "transferOwnership",
      "outputs": [],
      "stateMutability": "nonpayable",
      "type": "function"
    },
    {
      "inputs": [],
      "name": "version",
      "outputs": [
        {
          "internalType": "string",
          "name": "",
          "type": "string"
        }
      ],
      "stateMutability": "view",
      "type": "function"
    },
    {
      "stateMutability": "payable",
      "type": "receive"
    }
  ],
  "transactionHash": "0x899292bbe7a2f520ded102e2a110972121216b6b3633c9ba1510d8576bbd4f63",
  "args": [
    {
      "ticketToken": "0x0000000000000000000000000000000000000000",
      "lockedUntilTimestamp": 0,
      "tokenIds": [],
      "shares": [],
      "claimLockedUntil": 0
    }
  ],
  "numDeployments": 2,
  "solcInputHash": "6776f3fa3702d11593abc2583d662c65",
  "bytecode": "0x60806040523480156200001157600080fd5b5060405162002ea138038062002ea183398101604081905262000034916200077c565b6200003f3362000057565b6001600355620000508133620000a9565b5062000975565b600280546001600160a01b038381166001600160a01b0319831681179093556040519116919082907f8be0079c531659141344cd1fd0a4f28419497f9722a3daafe3b4186f6b6457e090600090a35050565b6000620000b7600162000179565b90508015620000d0576000805461ff0019166101001790555b620000db8262000057565b620000e56200022b565b82516020840151620000f8919062000261565b620001026200029b565b6200011c83604001518460600151620002cf60201b60201c565b60808301516200012c9062000305565b801562000174576000805461ff0019169055604051600181527f7f26b83ff96e1f2b6a682f133852f6798a09c465da95921460cefb3847402498906020015b60405180910390a15b505050565b60008054610100900460ff1615620001e2578160ff166001148015620001b25750620001b0306200033d60201b620016bd1760201c565b155b620001da5760405162461bcd60e51b8152600401620001d1906200085d565b60405180910390fd5b506000919050565b60005460ff8084169116106200020c5760405162461bcd60e51b8152600401620001d1906200085d565b506000805460ff191660ff92909216919091179055600190565b919050565b600054610100900460ff16620002555760405162461bcd60e51b8152600401620001d190620008ab565b6200025f6200034c565b565b600054610100900460ff166200028b5760405162461bcd60e51b8152600401620001d190620008ab565b62000297828262000388565b5050565b600054610100900460ff16620002c55760405162461bcd60e51b8152600401620001d190620008ab565b6200025f620003f2565b600054610100900460ff16620002f95760405162461bcd60e51b8152600401620001d190620008ab565b6200029782826200042e565b600054610100900460ff166200032f5760405162461bcd60e51b8152600401620001d190620008ab565b6200033a81620004c9565b50565b6001600160a01b03163b151590565b600054610100900460ff16620003765760405162461bcd60e51b8152600401620001d190620008ab565b6200025f6326bcdb3160e01b6200051b565b600054610100900460ff16620003b25760405162461bcd60e51b8152600401620001d190620008ab565b600480546001600160401b038316600160a01b026001600160e01b03199091166001600160a01b0385161717905562000297631ba050e960e21b6200051b565b600054610100900460ff166200041c5760405162461bcd60e51b8152600401620001d190620008ab565b6200025f631259990960e01b6200051b565b600054610100900460ff16620004585760405162461bcd60e51b8152600401620001d190620008ab565b8151815114620004ab5760405162461bcd60e51b815260206004820152601460248201527f53545245414d2f415247535f4d49534d415443480000000000000000000000006044820152606401620001d1565b620004b782826200059f565b620002976333c7a33f60e11b6200051b565b600054610100900460ff16620004f35760405162461bcd60e51b8152600401620001d190620008ab565b600980546001600160401b0319166001600160401b0383161790556200033a6317b2ef4360e31b5b6001600160e01b03198082161415620005775760405162461bcd60e51b815260206004820152601c60248201527f4552433136353a20696e76616c696420696e74657266616365206964000000006044820152606401620001d1565b6001600160e01b0319166000908152600160208190526040909120805460ff19169091179055565b60005b81518110156200017457620005f6838281518110620005c557620005c5620008f6565b6020026020010151838381518110620005e257620005e2620008f6565b60200260200101516200060b60201b60201c565b80620006028162000922565b915050620005a2565b600082815260086020526040902080549082905560075481906200063190849062000940565b6200063d91906200095b565b60075560408051848152602081018390529081018390527ff81b1f9d8b5d36a5a67d13006a8b091a9b63e2a38b331d315d99c6daefd2ddcc906060016200016b565b634e487b7160e01b600052604160045260246000fd5b60405160a081016001600160401b0381118282101715620006ba57620006ba6200067f565b60405290565b80516001600160401b03811681146200022657600080fd5b600082601f830112620006ea57600080fd5b815160206001600160401b03808311156200070957620007096200067f565b8260051b604051601f19603f830116810181811084821117156200073157620007316200067f565b6040529384528581018301938381019250878511156200075057600080fd5b83870191505b84821015620007715781518352918301919083019062000756565b979650505050505050565b6000602082840312156200078f57600080fd5b81516001600160401b0380821115620007a757600080fd5b9083019060a08286031215620007bc57600080fd5b620007c662000695565b82516001600160a01b0381168114620007de57600080fd5b8152620007ee60208401620006c0565b60208201526040830151828111156200080657600080fd5b6200081487828601620006d8565b6040830152506060830151828111156200082d57600080fd5b6200083b87828601620006d8565b6060830152506200084f60808401620006c0565b608082015295945050505050565b6020808252602e908201527f496e697469616c697a61626c653a20636f6e747261637420697320616c72656160408201526d191e481a5b9a5d1a585b1a5e995960921b606082015260800190565b6020808252602b908201527f496e697469616c697a61626c653a20636f6e7472616374206973206e6f74206960408201526a6e697469616c697a696e6760a81b606082015260800190565b634e487b7160e01b600052603260045260246000fd5b634e487b7160e01b600052601160045260246000fd5b60006000198214156200093957620009396200090c565b5060010190565b600082198211156200095657620009566200090c565b500190565b6000828210156200097057620009706200090c565b500390565b61251c80620009856000396000f3fe6080604052600436106101b95760003560e01c8063016b2798146101d25780630191c0af146101f257806301c1dfba1461022557806301ffc9a71461024557806306fdde031461027557806312599909146102c957806314427a96146102dd5780631c725fdc1461031557806325289bad14610335578063277d048b1461035c5780632890d033146103715780632c0e131314610386578063379607f5146103a65780633a98ef39146103c65780633b3f12e2146103dc5780633d2dded5146103fc57806340f37948146104395780634e6317831461046657806354fd4d501461048757806357a858fc146104b657806357dc48c8146104e35780636ba4c13814610537578063715018a614610557578063790c0c731461056c57806389c6b8151461058c5780638da5cb5b146105ac5780638fc852b1146105ce5780639199690b146102c9578063968d9b2c146105ee578063a1cf64931461060e578063a8b46d87146102c9578063c088184914610651578063d5ed4d5a14610687578063ddd5e1b2146106a7578063f2fde38b146106c7578063f389b6e4146106e7578063f4415ad614610707578063f66e38c21461073f57600080fd5b366101cd57600034116101cb57600080fd5b005b600080fd5b3480156101de57600080fd5b506101cb6101ed366004611e1e565b61075f565b3480156101fe57600080fd5b5061021261020d366004611f40565b610819565b6040519081526020015b60405180910390f35b34801561023157600080fd5b506101cb610240366004611f96565b61086f565b34801561025157600080fd5b50610265610260366004611fd7565b610ac3565b604051901515815260200161021c565b34801561028157600080fd5b506102bc6040518060400160405280601b81526020017a45524337323120536861726520496e7374616e742053747265616d60281b81525081565b60405161021c9190612001565b3480156102d557600080fd5b506001610265565b3480156102e957600080fd5b506009546102fd906001600160401b031681565b6040516001600160401b03909116815260200161021c565b34801561032157600080fd5b506101cb610330366004612056565b610b03565b34801561034157600080fd5b506004546102fd90600160a01b90046001600160401b031681565b34801561036857600080fd5b506101cb610bba565b34801561037d57600080fd5b50610212610c27565b34801561039257600080fd5b506101cb6103a1366004612056565b610c38565b3480156103b257600080fd5b506101cb6103c1366004612071565b610cbb565b3480156103d257600080fd5b5061021260075481565b3480156103e857600080fd5b506102126103f7366004611f40565b610cc9565b34801561040857600080fd5b506000805260066020527f54cdd369e4e8a8515e52ca72ec816c2101831ad1f18bf44102ed171459c9b4f854610212565b34801561044557600080fd5b50610459610454366004611f96565b610d47565b60405161021c919061208a565b34801561047257600080fd5b5060025461026590600160a01b900460ff1681565b34801561049357600080fd5b506102bc60405180604001604052806003815260200162302e3160e81b81525081565b3480156104c257600080fd5b506102126104d1366004612071565b60086020526000908152604090205481565b3480156104ef57600080fd5b506105226104fe3660046120ce565b60056020908152600092835260408084209091529082529020805460019091015482565b6040805192835260208301919091520161021c565b34801561054357600080fd5b506101cb610552366004611f96565b610dfe565b34801561056357600080fd5b506101cb610e0f565b34801561057857600080fd5b506102126105873660046120fe565b610e4a565b34801561059857600080fd5b506102126105a7366004611f96565b610f1d565b3480156105b857600080fd5b506105c1610f32565b60405161021c919061211b565b3480156105da57600080fd5b506101cb6105e936600461212f565b610f41565b3480156105fa57600080fd5b50610212610609366004612071565b610fcd565b34801561061a57600080fd5b506102126106293660046120ce565b60009182526005602090815260408084206001600160a01b0393909316845291905290205490565b34801561065d57600080fd5b5061021261066c3660046120fe565b6001600160a01b031660009081526006602052604090205490565b34801561069357600080fd5b506004546105c1906001600160a01b031681565b3480156106b357600080fd5b506101cb6106c23660046120ce565b610fda565b3480156106d357600080fd5b506101cb6106e23660046120fe565b61126c565b3480156106f357600080fd5b506101cb610702366004612192565b611309565b34801561071357600080fd5b50610212610722366004612071565b600090815260056020908152604080832083805290915290205490565b34801561074b57600080fd5b5061021261075a3660046120ce565b611669565b600061076b60016116cc565b90508015610783576000805461ff0019166101001790555b61078c82611760565b6107946117b2565b6107a6836000015184602001516117e1565b6107ae611812565b6107c083604001518460600151611841565b6107cd8360800151611872565b8015610814576000805461ff0019169055604051600181527f7f26b83ff96e1f2b6a682f133852f6798a09c465da95921460cefb3847402498906020015b60405180910390a15b505050565b600080805b848110156108665761084886868381811061083b5761083b6121f9565b9050602002013585611669565b6108529083612225565b91508061085e8161223d565b91505061081e565b50949350505050565b33610878610f32565b6001600160a01b0316146108a75760405162461bcd60e51b815260040161089e90612258565b60405180910390fd5b600254600160a01b900460ff16156108fb5760405162461bcd60e51b81526020600482015260176024820152761153515491d15390d657d413d5d15497d4915593d2d151604a1b604482015260640161089e565b6000610905610f32565b905060005b82811015610abd576000848483818110610926576109266121f9565b905060200201602081019061093b91906120fe565b6001600160a01b031614156109625761095d6001600160a01b038316476118a2565b610aab565b838382818110610974576109746121f9565b905060200201602081019061098991906120fe565b6001600160a01b031663a9059cbb838686858181106109aa576109aa6121f9565b90506020020160208101906109bf91906120fe565b6001600160a01b03166370a08231306040518263ffffffff1660e01b81526004016109ea919061211b565b60206040518083038186803b158015610a0257600080fd5b505afa158015610a16573d6000803e3d6000fd5b505050506040513d601f19601f82011682018060405250810190610a3a919061228d565b6040518363ffffffff1660e01b8152600401610a579291906122a6565b602060405180830381600087803b158015610a7157600080fd5b505af1158015610a85573d6000803e3d6000fd5b505050506040513d601f19601f82011682018060405250810190610aa991906122bf565b505b80610ab58161223d565b91505061090a565b50505050565b60006301ffc9a760e01b6001600160e01b031983161480610afd57506001600160e01b0319821660009081526001602052604090205460ff165b92915050565b33610b0c610f32565b6001600160a01b031614610b325760405162461bcd60e51b815260040161089e90612258565b6004546001600160401b03600160a01b909104811690821611610b8e5760405162461bcd60e51b815260206004820152601460248201527314d5149150534bd0d0539393d517d49155d2539160621b604482015260640161089e565b600480546001600160401b03909216600160a01b02600160a01b600160e01b0319909216919091179055565b33610bc3610f32565b6001600160a01b031614610be95760405162461bcd60e51b815260040161089e90612258565b6002805460ff60a01b1916600160a01b1790556040517f21fadcdbe90fc4e8062dd78003616bbe56d48e0f1bfc58eacd10b11bba16b79690600090a1565b6000610c336000610e4a565b905090565b33610c41610f32565b6001600160a01b031614610c675760405162461bcd60e51b815260040161089e90612258565b60045442600160a01b9091046001600160401b031610610c995760405162461bcd60e51b815260040161089e906122e1565b600980546001600160401b0319166001600160401b0392909216919091179055565b610cc6816000610fda565b50565b600080805b848110156108665760056000878784818110610cec57610cec6121f9565b9050602002013581526020019081526020016000206000856001600160a01b03166001600160a01b031681526020019081526020016000206000015482610d339190612225565b915080610d3f8161223d565b915050610cce565b60606000826001600160401b03811115610d6357610d63611d0f565b604051908082528060200260200182016040528015610d8c578160200160208202803683370190505b50905060005b8151811015610df65760086000868684818110610db157610db16121f9565b90506020020135815260200190815260200160002054828281518110610dd957610dd96121f9565b602090810291909101015280610dee8161223d565b915050610d92565b509392505050565b610e0b8282600033611309565b5050565b33610e18610f32565b6001600160a01b031614610e3e5760405162461bcd60e51b815260040161089e90612258565b610e486000611760565b565b60006001600160a01b038216610e7e576001600160a01b038216600090815260066020526040902054610afd904790612225565b6040516370a0823160e01b81526001600160a01b038316906370a0823190610eaa90309060040161211b565b60206040518083038186803b158015610ec257600080fd5b505afa158015610ed6573d6000803e3d6000fd5b505050506040513d601f19601f82011682018060405250810190610efa919061228d565b6001600160a01b038316600090815260066020526040902054610afd9190612225565b6000610f2b83836000610cc9565b9392505050565b6002546001600160a01b031690565b33610f4a610f32565b6001600160a01b031614610f705760405162461bcd60e51b815260040161089e90612258565b8151815114610f915760405162461bcd60e51b815260040161089e9061230f565b60045442600160a01b9091046001600160401b031610610fc35760405162461bcd60e51b815260040161089e906122e1565b610e0b82826119b8565b6000610afd826000611669565b60026003541415610ffd5760405162461bcd60e51b815260040161089e9061233d565b6002600355600480546040516331a9108f60e11b81529182018490526000916001600160a01b0390911690636352211e9060240160206040518083038186803b15801561104957600080fd5b505afa15801561105d573d6000803e3d6000fd5b505050506040513d601f19601f820116820180604052508101906110819190612374565b905061108e838383611a12565b600061109a8484611669565b9050600081116110e65760405162461bcd60e51b815260206004820152601760248201527653545245414d2f4e4f5448494e475f544f5f434c41494d60481b604482015260640161089e565b60008481526005602090815260408083206001600160a01b038716845290915281208054839290611118908490612225565b909155505060008481526005602090815260408083206001600160a01b038716845282528083204260019091015560069091528120805483929061115d908490612225565b90915550506001600160a01b038316611188576111836001600160a01b038316826118a2565b61120a565b60405163a9059cbb60e01b81526001600160a01b0384169063a9059cbb906111b690859085906004016122a6565b602060405180830381600087803b1580156111d057600080fd5b505af11580156111e4573d6000803e3d6000fd5b505050506040513d601f19601f8201168201806040525081019061120891906122bf565b505b604080513381526001600160a01b038481166020830152818301879052851660608201526080810183905290517fa2d3c4c1fc934d6d2d8f9e862df90c01ae4eb0e920cd8957d242ba26b8dc40789181900360a00190a1505060016003555050565b33611275610f32565b6001600160a01b03161461129b5760405162461bcd60e51b815260040161089e90612258565b6001600160a01b0381166113005760405162461bcd60e51b815260206004820152602660248201527f4f776e61626c653a206e6577206f776e657220697320746865207a65726f206160448201526564647265737360d01b606482015260840161089e565b610cc681611760565b6002600354141561132c5760405162461bcd60e51b815260040161089e9061233d565b60026003556000805b8481101561154657611360868683818110611352576113526121f9565b905060200201358585611a12565b6004546001600160a01b038085169116636352211e888885818110611387576113876121f9565b905060200201356040518263ffffffff1660e01b81526004016113ac91815260200190565b60206040518083038186803b1580156113c457600080fd5b505afa1580156113d8573d6000803e3d6000fd5b505050506040513d601f19601f820116820180604052508101906113fc9190612374565b6001600160a01b0316146114495760405162461bcd60e51b815260206004820152601460248201527329aa2922a0a697a727aa2fa7232a2fa7aba722a960611b604482015260640161089e565b600061146d878784818110611460576114606121f9565b9050602002013586611669565b9050801561153357806005600089898681811061148c5761148c6121f9565b9050602002013581526020019081526020016000206000876001600160a01b03166001600160a01b0316815260200190815260200160002060000160008282546114d69190612225565b90915550429050600560008989868181106114f3576114f36121f9565b6020908102929092013583525081810192909252604090810160009081206001600160a01b038a1682529092529020600101556115308184612225565b92505b508061153e8161223d565b915050611335565b506001600160a01b0383166000908152600660205260408120805483929061156f908490612225565b90915550506001600160a01b03831661159a576115956001600160a01b038316826118a2565b61161c565b60405163a9059cbb60e01b81526001600160a01b0384169063a9059cbb906115c890859085906004016122a6565b602060405180830381600087803b1580156115e257600080fd5b505af11580156115f6573d6000803e3d6000fd5b505050506040513d601f19601f8201168201806040525081019061161a91906122bf565b505b7fd84a5c424a4f777bcf4f645712b8e5ebfc550f42bde444fa822fe98ee1b132b133838787878660405161165596959493929190612391565b60405180910390a150506001600355505050565b60008061168561167e61167b85610e4a565b90565b8585611a1d565b60008581526005602090815260408083206001600160a01b03881684529091529020549091506116b590826123f5565b949350505050565b6001600160a01b03163b151590565b60008054610100900460ff161561171a578160ff1660011480156116f657506116f4306116bd565b155b6117125760405162461bcd60e51b815260040161089e9061240c565b506000919050565b60005460ff8084169116106117415760405162461bcd60e51b815260040161089e9061240c565b506000805460ff191660ff92909216919091179055600190565b919050565b600280546001600160a01b038381166001600160a01b0319831681179093556040519116919082907f8be0079c531659141344cd1fd0a4f28419497f9722a3daafe3b4186f6b6457e090600090a35050565b600054610100900460ff166117d95760405162461bcd60e51b815260040161089e9061245a565b610e48611a46565b600054610100900460ff166118085760405162461bcd60e51b815260040161089e9061245a565b610e0b8282611a7d565b600054610100900460ff166118395760405162461bcd60e51b815260040161089e9061245a565b610e48611ae2565b600054610100900460ff166118685760405162461bcd60e51b815260040161089e9061245a565b610e0b8282611b19565b600054610100900460ff166118995760405162461bcd60e51b815260040161089e9061245a565b610cc681611b7b565b804710156118f25760405162461bcd60e51b815260206004820152601d60248201527f416464726573733a20696e73756666696369656e742062616c616e6365000000604482015260640161089e565b6000826001600160a01b03168260405160006040518083038185875af1925050503d806000811461193f576040519150601f19603f3d011682016040523d82523d6000602084013e611944565b606091505b50509050806108145760405162461bcd60e51b815260206004820152603a60248201527f416464726573733a20756e61626c6520746f2073656e642076616c75652c20726044820152791958da5c1a595b9d081b585e481a185d99481c995d995c9d195960321b606482015260840161089e565b60005b815181101561081457611a008382815181106119d9576119d96121f9565b60200260200101518383815181106119f3576119f36121f9565b6020026020010151611bcd565b80611a0a8161223d565b9150506119bb565b610814838383611c3c565b600754600083815260086020526040812054909190611a3c90866124a5565b6116b591906124c4565b600054610100900460ff16611a6d5760405162461bcd60e51b815260040161089e9061245a565b610e486326bcdb3160e01b611c8e565b600054610100900460ff16611aa45760405162461bcd60e51b815260040161089e9061245a565b600480546001600160401b038316600160a01b026001600160e01b03199091166001600160a01b03851617179055610e0b631ba050e960e21b611c8e565b600054610100900460ff16611b095760405162461bcd60e51b815260040161089e9061245a565b610e48631259990960e01b611c8e565b600054610100900460ff16611b405760405162461bcd60e51b815260040161089e9061245a565b8151815114611b615760405162461bcd60e51b815260040161089e9061230f565b611b6b82826119b8565b610e0b6333c7a33f60e11b611c8e565b600054610100900460ff16611ba25760405162461bcd60e51b815260040161089e9061245a565b600980546001600160401b0319166001600160401b038316179055610cc66317b2ef4360e31b611c8e565b60008281526008602052604090208054908290556007548190611bf1908490612225565b611bfb91906123f5565b60075560408051848152602081018390529081018390527ff81b1f9d8b5d36a5a67d13006a8b091a9b63e2a38b331d315d99c6daefd2ddcc9060600161080b565b600954426001600160401b03909116106108145760405162461bcd60e51b815260206004820152601360248201527214d5149150534bd0d310525357d313d0d2d151606a1b604482015260640161089e565b6001600160e01b03198082161415611ce75760405162461bcd60e51b815260206004820152601c60248201527b115490cc4d8d4e881a5b9d985b1a59081a5b9d195c999858d9481a5960221b604482015260640161089e565b6001600160e01b0319166000908152600160208190526040909120805460ff19169091179055565b634e487b7160e01b600052604160045260246000fd5b60405160a081016001600160401b0381118282101715611d4757611d47611d0f565b60405290565b6001600160a01b0381168114610cc657600080fd5b803561175b81611d4d565b80356001600160401b038116811461175b57600080fd5b600082601f830112611d9557600080fd5b813560206001600160401b0380831115611db157611db1611d0f565b8260051b604051601f19603f83011681018181108482111715611dd657611dd6611d0f565b604052938452858101830193838101925087851115611df457600080fd5b83870191505b84821015611e1357813583529183019190830190611dfa565b979650505050505050565b60008060408385031215611e3157600080fd5b82356001600160401b0380821115611e4857600080fd5b9084019060a08287031215611e5c57600080fd5b611e64611d25565b8235611e6f81611d4d565b8152611e7d60208401611d6d565b6020820152604083013582811115611e9457600080fd5b611ea088828601611d84565b604083015250606083013582811115611eb857600080fd5b611ec488828601611d84565b606083015250611ed660808401611d6d565b60808201529350611eec91505060208401611d62565b90509250929050565b60008083601f840112611f0757600080fd5b5081356001600160401b03811115611f1e57600080fd5b6020830191508360208260051b8501011115611f3957600080fd5b9250929050565b600080600060408486031215611f5557600080fd5b83356001600160401b03811115611f6b57600080fd5b611f7786828701611ef5565b9094509250506020840135611f8b81611d4d565b809150509250925092565b60008060208385031215611fa957600080fd5b82356001600160401b03811115611fbf57600080fd5b611fcb85828601611ef5565b90969095509350505050565b600060208284031215611fe957600080fd5b81356001600160e01b031981168114610f2b57600080fd5b600060208083528351808285015260005b8181101561202e57858101830151858201604001528201612012565b81811115612040576000604083870101525b50601f01601f1916929092016040019392505050565b60006020828403121561206857600080fd5b610f2b82611d6d565b60006020828403121561208357600080fd5b5035919050565b6020808252825182820181905260009190848201906040850190845b818110156120c2578351835292840192918401916001016120a6565b50909695505050505050565b600080604083850312156120e157600080fd5b8235915060208301356120f381611d4d565b809150509250929050565b60006020828403121561211057600080fd5b8135610f2b81611d4d565b6001600160a01b0391909116815260200190565b6000806040838503121561214257600080fd5b82356001600160401b038082111561215957600080fd5b61216586838701611d84565b9350602085013591508082111561217b57600080fd5b5061218885828601611d84565b9150509250929050565b600080600080606085870312156121a857600080fd5b84356001600160401b038111156121be57600080fd5b6121ca87828801611ef5565b90955093505060208501356121de81611d4d565b915060408501356121ee81611d4d565b939692955090935050565b634e487b7160e01b600052603260045260246000fd5b634e487b7160e01b600052601160045260246000fd5b600082198211156122385761223861220f565b500190565b60006000198214156122515761225161220f565b5060010190565b6020808252818101527f4f776e61626c653a2063616c6c6572206973206e6f7420746865206f776e6572604082015260600190565b60006020828403121561229f57600080fd5b5051919050565b6001600160a01b03929092168252602082015260400190565b6000602082840312156122d157600080fd5b81518015158114610f2b57600080fd5b60208082526014908201527314d5149150534bd0d3d3919251d7d313d0d2d15160621b604082015260600190565b6020808252601490820152730a6a8a48a829a5e82a48ea6be9a92a69a82a886960631b604082015260600190565b6020808252601f908201527f5265656e7472616e637947756172643a207265656e7472616e742063616c6c00604082015260600190565b60006020828403121561238657600080fd5b8151610f2b81611d4d565b6001600160a01b038781168252868116602083015260a06040830181905282018590526000906001600160fb1b038611156123cb57600080fd5b8560051b808860c0860137600090840160c001908152941660608301525060800152949350505050565b6000828210156124075761240761220f565b500390565b6020808252602e908201527f496e697469616c697a61626c653a20636f6e747261637420697320616c72656160408201526d191e481a5b9a5d1a585b1a5e995960921b606082015260800190565b6020808252602b908201527f496e697469616c697a61626c653a20636f6e7472616374206973206e6f74206960408201526a6e697469616c697a696e6760a81b606082015260800190565b60008160001904831182151516156124bf576124bf61220f565b500290565b6000826124e157634e487b7160e01b600052601260045260246000fd5b50049056fea26469706673582212203d5f562685de6329bdd99f1e86b579c1d2d1c499f9cf7e65a1df93ef94c0905564736f6c63430008090033",
  "devdoc": {
    "kind": "dev",
    "methods": {
      "owner()": {
        "details": "Returns the address of the current owner."
      },
      "renounceOwnership()": {
        "details": "Leaves the contract without owner. It will not be possible to call `onlyOwner` functions anymore. Can only be called by the current owner. NOTE: Renouncing ownership will leave the contract without an owner, thereby removing any functionality that is only available to the owner."
      },
      "supportsInterface(bytes4)": {
        "details": "See {IERC165-supportsInterface}."
      },
      "transferOwnership(address)": {
        "details": "Transfers ownership of the contract to a new account (`newOwner`). Can only be called by the current owner."
      }
    },
    "version": 1
  },
  "userdoc": {
    "kind": "user",
    "methods": {},
    "version": 1
  },
  "storageLayout": {
    "storage": [
      {
        "astId": 886,
        "contract": "contracts/streams/ERC721/presets/ERC721ShareInstantStream.sol:ERC721ShareInstantStream",
        "label": "_initialized",
        "offset": 0,
        "slot": "0",
        "type": "t_uint8"
      },
      {
        "astId": 889,
        "contract": "contracts/streams/ERC721/presets/ERC721ShareInstantStream.sol:ERC721ShareInstantStream",
        "label": "_initializing",
        "offset": 1,
        "slot": "0",
        "type": "t_bool"
      },
      {
        "astId": 4693,
        "contract": "contracts/streams/ERC721/presets/ERC721ShareInstantStream.sol:ERC721ShareInstantStream",
        "label": "_supportedInterfaces",
        "offset": 0,
        "slot": "1",
        "type": "t_mapping(t_bytes4,t_bool)"
      },
      {
        "astId": 782,
        "contract": "contracts/streams/ERC721/presets/ERC721ShareInstantStream.sol:ERC721ShareInstantStream",
        "label": "_owner",
        "offset": 0,
        "slot": "2",
        "type": "t_address"
      },
      {
        "astId": 12716,
        "contract": "contracts/streams/ERC721/presets/ERC721ShareInstantStream.sol:ERC721ShareInstantStream",
        "label": "emergencyPowerRevoked",
        "offset": 20,
        "slot": "2",
        "type": "t_bool"
      },
      {
        "astId": 1124,
        "contract": "contracts/streams/ERC721/presets/ERC721ShareInstantStream.sol:ERC721ShareInstantStream",
        "label": "_status",
        "offset": 0,
        "slot": "3",
        "type": "t_uint256"
      },
      {
        "astId": 13891,
        "contract": "contracts/streams/ERC721/presets/ERC721ShareInstantStream.sol:ERC721ShareInstantStream",
        "label": "ticketToken",
        "offset": 0,
        "slot": "4",
        "type": "t_address"
      },
      {
        "astId": 13893,
        "contract": "contracts/streams/ERC721/presets/ERC721ShareInstantStream.sol:ERC721ShareInstantStream",
        "label": "lockedUntilTimestamp",
        "offset": 20,
        "slot": "4",
        "type": "t_uint64"
      },
      {
        "astId": 13900,
        "contract": "contracts/streams/ERC721/presets/ERC721ShareInstantStream.sol:ERC721ShareInstantStream",
        "label": "entitlements",
        "offset": 0,
        "slot": "5",
        "type": "t_mapping(t_uint256,t_mapping(t_address,t_struct(Entitlement)13889_storage))"
      },
      {
        "astId": 13904,
        "contract": "contracts/streams/ERC721/presets/ERC721ShareInstantStream.sol:ERC721ShareInstantStream",
        "label": "_streamTotalClaimed",
        "offset": 0,
        "slot": "6",
        "type": "t_mapping(t_address,t_uint256)"
      },
      {
        "astId": 15410,
        "contract": "contracts/streams/ERC721/presets/ERC721ShareInstantStream.sol:ERC721ShareInstantStream",
        "label": "totalShares",
        "offset": 0,
        "slot": "7",
        "type": "t_uint256"
      },
      {
        "astId": 15414,
        "contract": "contracts/streams/ERC721/presets/ERC721ShareInstantStream.sol:ERC721ShareInstantStream",
        "label": "shares",
        "offset": 0,
        "slot": "8",
        "type": "t_mapping(t_uint256,t_uint256)"
      },
      {
        "astId": 15123,
        "contract": "contracts/streams/ERC721/presets/ERC721ShareInstantStream.sol:ERC721ShareInstantStream",
        "label": "claimLockedUntil",
        "offset": 0,
        "slot": "9",
        "type": "t_uint64"
      }
    ],
    "types": {
      "t_address": {
        "encoding": "inplace",
        "label": "address",
        "numberOfBytes": "20"
      },
      "t_bool": {
        "encoding": "inplace",
        "label": "bool",
        "numberOfBytes": "1"
      },
      "t_bytes4": {
        "encoding": "inplace",
        "label": "bytes4",
        "numberOfBytes": "4"
      },
      "t_mapping(t_address,t_struct(Entitlement)13889_storage)": {
        "encoding": "mapping",
        "key": "t_address",
        "label": "mapping(address => struct ERC721MultiTokenStream.Entitlement)",
        "numberOfBytes": "32",
        "value": "t_struct(Entitlement)13889_storage"
      },
      "t_mapping(t_address,t_uint256)": {
        "encoding": "mapping",
        "key": "t_address",
        "label": "mapping(address => uint256)",
        "numberOfBytes": "32",
        "value": "t_uint256"
      },
      "t_mapping(t_bytes4,t_bool)": {
        "encoding": "mapping",
        "key": "t_bytes4",
        "label": "mapping(bytes4 => bool)",
        "numberOfBytes": "32",
        "value": "t_bool"
      },
      "t_mapping(t_uint256,t_mapping(t_address,t_struct(Entitlement)13889_storage))": {
        "encoding": "mapping",
        "key": "t_uint256",
        "label": "mapping(uint256 => mapping(address => struct ERC721MultiTokenStream.Entitlement))",
        "numberOfBytes": "32",
        "value": "t_mapping(t_address,t_struct(Entitlement)13889_storage)"
      },
      "t_mapping(t_uint256,t_uint256)": {
        "encoding": "mapping",
        "key": "t_uint256",
        "label": "mapping(uint256 => uint256)",
        "numberOfBytes": "32",
        "value": "t_uint256"
      },
      "t_struct(Entitlement)13889_storage": {
        "encoding": "inplace",
        "label": "struct ERC721MultiTokenStream.Entitlement",
        "members": [
          {
            "astId": 13886,
            "contract": "contracts/streams/ERC721/presets/ERC721ShareInstantStream.sol:ERC721ShareInstantStream",
            "label": "totalClaimed",
            "offset": 0,
            "slot": "0",
            "type": "t_uint256"
          },
          {
            "astId": 13888,
            "contract": "contracts/streams/ERC721/presets/ERC721ShareInstantStream.sol:ERC721ShareInstantStream",
            "label": "lastClaimedAt",
            "offset": 0,
            "slot": "1",
            "type": "t_uint256"
          }
        ],
        "numberOfBytes": "64"
      },
      "t_uint256": {
        "encoding": "inplace",
        "label": "uint256",
        "numberOfBytes": "32"
      },
      "t_uint64": {
        "encoding": "inplace",
        "label": "uint64",
        "numberOfBytes": "8"
      },
      "t_uint8": {
        "encoding": "inplace",
        "label": "uint8",
        "numberOfBytes": "1"
      }
    }
  }
}