{
  "address": "0xb272329cf38CC44F9b54EeAf80F5E69A308FD7a5",
  "abi": [
    {
      "anonymous": false,
      "inputs": [
        {
          "indexed": true,
          "internalType": "address",
          "name": "previousOwner",
          "type": "address"
        },
        {
          "indexed": true,
          "internalType": "address",
          "name": "newOwner",
          "type": "address"
        }
      ],
      "name": "OwnershipTransferred",
      "type": "event"
    },
    {
      "inputs": [
        {
          "internalType": "uint256",
          "name": "newTimestamp",
          "type": "uint256"
        }
      ],
      "name": "setBurnablePausedUntil",
      "outputs": [],
      "stateMutability": "nonpayable",
      "type": "function"
    }
  ],
  "transactionHash": "0x0b888230e0ce2319421b7eb8aedd3ebe47541e01da218af05a40d509d42777b9",
  "args": [],
  "numDeployments": 1,
  "solcInputHash": "e2f42af2f5273c7308f3825761226b47",
  "bytecode": "0x608060405234801561001057600080fd5b5061015c806100206000396000f3fe608060405234801561001057600080fd5b506004361061002b5760003560e01c8063710fb57714610030575b600080fd5b61004361003e36600461010d565b610045565b005b7fc0ea367cb0174dd5521cd2372c76f8c13e6c1f832c71f1d6e0cbc185c9cc8ed45473ffffffffffffffffffffffffffffffffffffffff1633146100e9576040517f08c379a000000000000000000000000000000000000000000000000000000000815260206004820152601d60248201527f4f776e61626c653a2073656e646572206d757374206265206f776e6572000000604482015260640160405180910390fd5b7f7b600420de2644e01d67749445036686fe1148fa35ed898145088a4de1e0640655565b60006020828403121561011f57600080fd5b503591905056fea264697066735822122049c32c1a20176418d172cac1239428d2057af58e73c186fd316671bc998ac69464736f6c634300080f0033",
  "devdoc": {
    "custom:category": "NFTs",
    "custom:provides-interfaces": "IBurnableAdmin",
    "custom:type": "eip-2535-facet",
    "kind": "dev",
    "methods": {},
    "title": "Burnable - Admin - Ownable",
    "version": 1
  },
  "userdoc": {
    "kind": "user",
    "methods": {},
    "notice": "Allow contract owner to manage burning mechanism.",
    "version": 1
  },
  "storageLayout": {
    "storage": [],
    "types": null
  }
}