{
  "address": "0x065F47A54f3590b11aF4dCF8d2A8D3381f4C26E4",
  "abi": [
    {
      "inputs": [
        {
          "components": [
            {
              "internalType": "string",
              "name": "name",
              "type": "string"
            },
            {
              "internalType": "string",
              "name": "symbol",
              "type": "string"
            }
          ],
          "internalType": "struct ERC20LockableToken.Config",
          "name": "config",
          "type": "tuple"
        }
      ],
      "stateMutability": "nonpayable",
      "type": "constructor"
    },
    {
      "anonymous": false,
      "inputs": [
        {
          "indexed": true,
          "internalType": "address",
          "name": "owner",
          "type": "address"
        },
        {
          "indexed": true,
          "internalType": "address",
          "name": "spender",
          "type": "address"
        },
        {
          "indexed": false,
          "internalType": "uint256",
          "name": "value",
          "type": "uint256"
        }
      ],
      "name": "Approval",
      "type": "event"
    },
    {
      "anonymous": false,
      "inputs": [
        {
          "indexed": false,
          "internalType": "uint8",
          "name": "version",
          "type": "uint8"
        }
      ],
      "name": "Initialized",
      "type": "event"
    },
    {
      "anonymous": false,
      "inputs": [
        {
          "indexed": false,
          "internalType": "address",
          "name": "account",
          "type": "address"
        }
      ],
      "name": "Paused",
      "type": "event"
    },
    {
      "anonymous": false,
      "inputs": [
        {
          "indexed": true,
          "internalType": "bytes32",
          "name": "role",
          "type": "bytes32"
        },
        {
          "indexed": true,
          "internalType": "bytes32",
          "name": "previousAdminRole",
          "type": "bytes32"
        },
        {
          "indexed": true,
          "internalType": "bytes32",
          "name": "newAdminRole",
          "type": "bytes32"
        }
      ],
      "name": "RoleAdminChanged",
      "type": "event"
    },
    {
      "anonymous": false,
      "inputs": [
        {
          "indexed": true,
          "internalType": "bytes32",
          "name": "role",
          "type": "bytes32"
        },
        {
          "indexed": true,
          "internalType": "address",
          "name": "account",
          "type": "address"
        },
        {
          "indexed": true,
          "internalType": "address",
          "name": "sender",
          "type": "address"
        }
      ],
      "name": "RoleGranted",
      "type": "event"
    },
    {
      "anonymous": false,
      "inputs": [
        {
          "indexed": true,
          "internalType": "bytes32",
          "name": "role",
          "type": "bytes32"
        },
        {
          "indexed": true,
          "internalType": "address",
          "name": "account",
          "type": "address"
        },
        {
          "indexed": true,
          "internalType": "address",
          "name": "sender",
          "type": "address"
        }
      ],
      "name": "RoleRevoked",
      "type": "event"
    },
    {
      "anonymous": false,
      "inputs": [
        {
          "indexed": true,
          "internalType": "address",
          "name": "from",
          "type": "address"
        },
        {
          "indexed": true,
          "internalType": "address",
          "name": "to",
          "type": "address"
        },
        {
          "indexed": false,
          "internalType": "uint256",
          "name": "value",
          "type": "uint256"
        }
      ],
      "name": "Transfer",
      "type": "event"
    },
    {
      "anonymous": false,
      "inputs": [
        {
          "indexed": false,
          "internalType": "address",
          "name": "account",
          "type": "address"
        }
      ],
      "name": "Unpaused",
      "type": "event"
    },
    {
      "inputs": [],
      "name": "DEFAULT_ADMIN_ROLE",
      "outputs": [
        {
          "internalType": "bytes32",
          "name": "",
          "type": "bytes32"
        }
      ],
      "stateMutability": "view",
      "type": "function"
    },
    {
      "inputs": [],
      "name": "MINTER_ROLE",
      "outputs": [
        {
          "internalType": "bytes32",
          "name": "",
          "type": "bytes32"
        }
      ],
      "stateMutability": "view",
      "type": "function"
    },
    {
      "inputs": [],
      "name": "PAUSER_ROLE",
      "outputs": [
        {
          "internalType": "bytes32",
          "name": "",
          "type": "bytes32"
        }
      ],
      "stateMutability": "view",
      "type": "function"
    },
    {
      "inputs": [],
      "name": "TRANSFER_ROLE",
      "outputs": [
        {
          "internalType": "bytes32",
          "name": "",
          "type": "bytes32"
        }
      ],
      "stateMutability": "view",
      "type": "function"
    },
    {
      "inputs": [
        {
          "internalType": "address",
          "name": "owner",
          "type": "address"
        },
        {
          "internalType": "address",
          "name": "spender",
          "type": "address"
        }
      ],
      "name": "allowance",
      "outputs": [
        {
          "internalType": "uint256",
          "name": "",
          "type": "uint256"
        }
      ],
      "stateMutability": "view",
      "type": "function"
    },
    {
      "inputs": [
        {
          "internalType": "address",
          "name": "spender",
          "type": "address"
        },
        {
          "internalType": "uint256",
          "name": "amount",
          "type": "uint256"
        }
      ],
      "name": "approve",
      "outputs": [
        {
          "internalType": "bool",
          "name": "",
          "type": "bool"
        }
      ],
      "stateMutability": "nonpayable",
      "type": "function"
    },
    {
      "inputs": [
        {
          "internalType": "address",
          "name": "account",
          "type": "address"
        }
      ],
      "name": "balanceOf",
      "outputs": [
        {
          "internalType": "uint256",
          "name": "",
          "type": "uint256"
        }
      ],
      "stateMutability": "view",
      "type": "function"
    },
    {
      "inputs": [
        {
          "internalType": "uint256",
          "name": "amount",
          "type": "uint256"
        }
      ],
      "name": "burn",
      "outputs": [],
      "stateMutability": "nonpayable",
      "type": "function"
    },
    {
      "inputs": [
        {
          "internalType": "address",
          "name": "account",
          "type": "address"
        },
        {
          "internalType": "uint256",
          "name": "amount",
          "type": "uint256"
        }
      ],
      "name": "burnFrom",
      "outputs": [],
      "stateMutability": "nonpayable",
      "type": "function"
    },
    {
      "inputs": [
        {
          "internalType": "address",
          "name": "operator",
          "type": "address"
        }
      ],
      "name": "canTransfer",
      "outputs": [
        {
          "internalType": "bool",
          "name": "",
          "type": "bool"
        }
      ],
      "stateMutability": "view",
      "type": "function"
    },
    {
      "inputs": [],
      "name": "decimals",
      "outputs": [
        {
          "internalType": "uint8",
          "name": "",
          "type": "uint8"
        }
      ],
      "stateMutability": "view",
      "type": "function"
    },
    {
      "inputs": [
        {
          "internalType": "address",
          "name": "spender",
          "type": "address"
        },
        {
          "internalType": "uint256",
          "name": "subtractedValue",
          "type": "uint256"
        }
      ],
      "name": "decreaseAllowance",
      "outputs": [
        {
          "internalType": "bool",
          "name": "",
          "type": "bool"
        }
      ],
      "stateMutability": "nonpayable",
      "type": "function"
    },
    {
      "inputs": [
        {
          "internalType": "bytes32",
          "name": "role",
          "type": "bytes32"
        }
      ],
      "name": "getRoleAdmin",
      "outputs": [
        {
          "internalType": "bytes32",
          "name": "",
          "type": "bytes32"
        }
      ],
      "stateMutability": "view",
      "type": "function"
    },
    {
      "inputs": [
        {
          "internalType": "bytes32",
          "name": "role",
          "type": "bytes32"
        },
        {
          "internalType": "address",
          "name": "account",
          "type": "address"
        }
      ],
      "name": "grantRole",
      "outputs": [],
      "stateMutability": "nonpayable",
      "type": "function"
    },
    {
      "inputs": [
        {
          "internalType": "bytes32",
          "name": "role",
          "type": "bytes32"
        },
        {
          "internalType": "address",
          "name": "account",
          "type": "address"
        }
      ],
      "name": "hasRole",
      "outputs": [
        {
          "internalType": "bool",
          "name": "",
          "type": "bool"
        }
      ],
      "stateMutability": "view",
      "type": "function"
    },
    {
      "inputs": [
        {
          "internalType": "address",
          "name": "spender",
          "type": "address"
        },
        {
          "internalType": "uint256",
          "name": "addedValue",
          "type": "uint256"
        }
      ],
      "name": "increaseAllowance",
      "outputs": [
        {
          "internalType": "bool",
          "name": "",
          "type": "bool"
        }
      ],
      "stateMutability": "nonpayable",
      "type": "function"
    },
    {
      "inputs": [
        {
          "components": [
            {
              "internalType": "string",
              "name": "name",
              "type": "string"
            },
            {
              "internalType": "string",
              "name": "symbol",
              "type": "string"
            }
          ],
          "internalType": "struct ERC20LockableToken.Config",
          "name": "config",
          "type": "tuple"
        },
        {
          "internalType": "address",
          "name": "deployer",
          "type": "address"
        }
      ],
      "name": "initialize",
      "outputs": [],
      "stateMutability": "nonpayable",
      "type": "function"
    },
    {
      "inputs": [],
      "name": "lockForAll",
      "outputs": [],
      "stateMutability": "nonpayable",
      "type": "function"
    },
    {
      "inputs": [
        {
          "internalType": "address",
          "name": "to",
          "type": "address"
        },
        {
          "internalType": "uint256",
          "name": "amount",
          "type": "uint256"
        }
      ],
      "name": "mint",
      "outputs": [],
      "stateMutability": "nonpayable",
      "type": "function"
    },
    {
      "inputs": [],
      "name": "name",
      "outputs": [
        {
          "internalType": "string",
          "name": "",
          "type": "string"
        }
      ],
      "stateMutability": "view",
      "type": "function"
    },
    {
      "inputs": [],
      "name": "pause",
      "outputs": [],
      "stateMutability": "nonpayable",
      "type": "function"
    },
    {
      "inputs": [],
      "name": "paused",
      "outputs": [
        {
          "internalType": "bool",
          "name": "",
          "type": "bool"
        }
      ],
      "stateMutability": "view",
      "type": "function"
    },
    {
      "inputs": [
        {
          "internalType": "bytes32",
          "name": "role",
          "type": "bytes32"
        },
        {
          "internalType": "address",
          "name": "account",
          "type": "address"
        }
      ],
      "name": "renounceRole",
      "outputs": [],
      "stateMutability": "nonpayable",
      "type": "function"
    },
    {
      "inputs": [
        {
          "internalType": "bytes32",
          "name": "role",
          "type": "bytes32"
        },
        {
          "internalType": "address",
          "name": "account",
          "type": "address"
        }
      ],
      "name": "revokeRole",
      "outputs": [],
      "stateMutability": "nonpayable",
      "type": "function"
    },
    {
      "inputs": [
        {
          "internalType": "bytes4",
          "name": "interfaceId",
          "type": "bytes4"
        }
      ],
      "name": "supportsInterface",
      "outputs": [
        {
          "internalType": "bool",
          "name": "",
          "type": "bool"
        }
      ],
      "stateMutability": "view",
      "type": "function"
    },
    {
      "inputs": [],
      "name": "symbol",
      "outputs": [
        {
          "internalType": "string",
          "name": "",
          "type": "string"
        }
      ],
      "stateMutability": "view",
      "type": "function"
    },
    {
      "inputs": [],
      "name": "totalSupply",
      "outputs": [
        {
          "internalType": "uint256",
          "name": "",
          "type": "uint256"
        }
      ],
      "stateMutability": "view",
      "type": "function"
    },
    {
      "inputs": [
        {
          "internalType": "address",
          "name": "to",
          "type": "address"
        },
        {
          "internalType": "uint256",
          "name": "amount",
          "type": "uint256"
        }
      ],
      "name": "transfer",
      "outputs": [
        {
          "internalType": "bool",
          "name": "",
          "type": "bool"
        }
      ],
      "stateMutability": "nonpayable",
      "type": "function"
    },
    {
      "inputs": [
        {
          "internalType": "address",
          "name": "from",
          "type": "address"
        },
        {
          "internalType": "address",
          "name": "to",
          "type": "address"
        },
        {
          "internalType": "uint256",
          "name": "amount",
          "type": "uint256"
        }
      ],
      "name": "transferFrom",
      "outputs": [
        {
          "internalType": "bool",
          "name": "",
          "type": "bool"
        }
      ],
      "stateMutability": "nonpayable",
      "type": "function"
    },
    {
      "inputs": [],
      "name": "unlockForAll",
      "outputs": [],
      "stateMutability": "nonpayable",
      "type": "function"
    },
    {
      "inputs": [],
      "name": "unpause",
      "outputs": [],
      "stateMutability": "nonpayable",
      "type": "function"
    }
  ],
  "transactionHash": "0xe15246664bccdf68190cbc0232665f05d6a626feb0542a5373ec4b7379a0b236",
  "args": [
    {
      "name": "Token",
      "symbol": "TKN"
    }
  ],
  "numDeployments": 2,
  "solcInputHash": "75b6f3caca0ee30cab66da7e8668151e",
  "bytecode": "0x60806040523480156200001157600080fd5b5060405162001fdf38038062001fdf833981016040819052620000349162000533565b8051602080830151825190916200005191600691850190620003af565b50805162000067906007906020840190620003af565b50506008805460ff191690555062000086630a615bcd60e11b620000c5565b620000b27f8502233096d909befbda0999bb8ea2f3a6be3c138b9fbf003752a4c8bce86f6c336200014d565b620000be8133620001f2565b5062000670565b6001600160e01b03198082161415620001255760405162461bcd60e51b815260206004820152601c60248201527f4552433136353a20696e76616c696420696e746572666163652069640000000060448201526064015b60405180910390fd5b6001600160e01b0319166000908152600160208190526040909120805460ff19169091179055565b60008281526002602090815260408083206001600160a01b038516845290915290205460ff16620001ee5760008281526002602090815260408083206001600160a01b03851684529091529020805460ff19166001179055620001ad3390565b6001600160a01b0316816001600160a01b0316837f2f8788117e7eff1d82e926ec794901d17c78024a50270940304540a733656f0d60405160405180910390a45b5050565b6000620002006001620002fc565b9050801562000219576000805461ff0019166101001790555b825180516200023191600991602090910190620003af565b5060208084015180516200024a92600a920190620003af565b50620002586000836200014d565b620002847f65d7a28e3265b37a6474929f336521b332c1681b933f6cb9f3376673440d862a836200014d565b620002b07f9f2df0fed2c77648de5860a4cc508cd0818c85b8b8a1ab4ceeef8d981c8956a6836200014d565b8015620002f7576000805461ff0019169055604051600181527f7f26b83ff96e1f2b6a682f133852f6798a09c465da95921460cefb38474024989060200160405180910390a15b505050565b60008054610100900460ff16156200035c578160ff1660011480156200033557506200033330620003a060201b620008681760201c565b155b620003545760405162461bcd60e51b81526004016200011c90620005e5565b506000919050565b60005460ff808416911610620003865760405162461bcd60e51b81526004016200011c90620005e5565b506000805460ff191660ff92909216919091179055600190565b6001600160a01b03163b151590565b828054620003bd9062000633565b90600052602060002090601f016020900481019282620003e157600085556200042c565b82601f10620003fc57805160ff19168380011785556200042c565b828001600101855582156200042c579182015b828111156200042c5782518255916020019190600101906200040f565b506200043a9291506200043e565b5090565b5b808211156200043a57600081556001016200043f565b634e487b7160e01b600052604160045260246000fd5b604051601f8201601f191681016001600160401b038111828210171562000496576200049662000455565b604052919050565b600082601f830112620004b057600080fd5b81516001600160401b03811115620004cc57620004cc62000455565b6020620004e2601f8301601f191682016200046b565b8281528582848701011115620004f757600080fd5b60005b8381101562000517578581018301518282018401528201620004fa565b83811115620005295760008385840101525b5095945050505050565b6000602082840312156200054657600080fd5b81516001600160401b03808211156200055e57600080fd5b90830190604082860312156200057357600080fd5b60405160408101818110838211171562000591576200059162000455565b604052825182811115620005a457600080fd5b620005b2878286016200049e565b825250602083015182811115620005c857600080fd5b620005d6878286016200049e565b60208301525095945050505050565b6020808252602e908201527f496e697469616c697a61626c653a20636f6e747261637420697320616c72656160408201526d191e481a5b9a5d1a585b1a5e995960921b606082015260800190565b600181811c908216806200064857607f821691505b602082108114156200066a57634e487b7160e01b600052602260045260246000fd5b50919050565b61195f80620006806000396000f3fe608060405234801561001057600080fd5b50600436106101755760003560e01c806301ffc9a71461017a57806306fdde03146101a2578063095ea7b3146101b757806318160ddd146101ca578063206b60f9146101dc57806323b872dd146101f1578063248a9ca3146102045780632f2ff15d14610217578063313ce5671461022c57806336568abe1461023b578063395093511461024e5780633f4ba83a1461026157806340c10f191461026957806342966c681461027c5780635539160f1461028f5780635c975abb146102a257806370a08231146102ad57806378fc3cb3146102d657806379cc6790146102e95780638456cb59146102fc57806391d148541461030457806395d89b411461031757806398a2a3231461031f578063a217fddf14610327578063a457c2d71461032f578063a9059cbb14610342578063d539139314610355578063d547741f1461036a578063dd62ed3e1461037d578063e63ab1e914610390578063f49c280a146103a5575b600080fd5b61018d6101883660046113f1565b6103ad565b60405190151581526020015b60405180910390f35b6101aa6103be565b6040516101999190611447565b61018d6101c5366004611491565b610450565b6005545b604051908152602001610199565b6101ce6000805160206118aa83398151915281565b61018d6101ff3660046114bb565b610468565b6101ce6102123660046114f7565b61048c565b61022a610225366004611510565b6104a1565b005b60405160128152602001610199565b61022a610249366004611510565b6104c2565b61018d61025c366004611491565b610545565b61022a610567565b61022a610277366004611491565b61058a565b61022a61028a3660046114f7565b6105ac565b61022a61029d3660046115de565b6105b6565b60085460ff1661018d565b6101ce6102bb36600461168e565b6001600160a01b031660009081526003602052604090205490565b61018d6102e436600461168e565b61068d565b61022a6102f7366004611491565b6106a7565b61022a6106bc565b61018d610312366004611510565b6106dc565b6101aa610707565b61022a610716565b6101ce600081565b61018d61033d366004611491565b610758565b61018d610350366004611491565b6107d3565b6101ce6000805160206118ea83398151915281565b61022a610378366004611510565b6107e1565b6101ce61038b3660046116a9565b6107fd565b6101ce6000805160206118ca83398151915281565b61022a610828565b60006103b882610877565b92915050565b6060600980546103cd906116d3565b80601f01602080910402602001604051908101604052809291908181526020018280546103f9906116d3565b80156104465780601f1061041b57610100808354040283529160200191610446565b820191906000526020600020905b81548152906001019060200180831161042957829003601f168201915b5050505050905090565b60003361045e8185856108b3565b5060019392505050565b6000336104768582856109d7565b610481858585610a51565b506001949350505050565b60009081526002602052604090206001015490565b6104aa8261048c565b6104b381610c18565b6104bd8383610c22565b505050565b6001600160a01b03811633146105375760405162461bcd60e51b815260206004820152602f60248201527f416363657373436f6e74726f6c3a2063616e206f6e6c792072656e6f756e636560448201526e103937b632b9903337b91039b2b63360891b60648201526084015b60405180910390fd5b6105418282610ca8565b5050565b60003361045e81858561055883836107fd565b6105629190611724565b6108b3565b6000805160206118ca83398151915261057f81610c18565b610587610d0f565b50565b6000805160206118ea8339815191526105a281610c18565b6104bd8383610da2565b6105873382610e7b565b60006105c26001610fc3565b905080156105da576000805461ff0019166101001790555b825180516105f091600991602090910190611358565b50602080840151805161060792600a920190611358565b50610613600083610c22565b61062b6000805160206118ca83398151915283610c22565b6106436000805160206118ea83398151915283610c22565b80156104bd576000805461ff0019169055604051600181527f7f26b83ff96e1f2b6a682f133852f6798a09c465da95921460cefb38474024989060200160405180910390a1505050565b60006103b86000805160206118aa833981519152836106dc565b6106b28233836109d7565b6105418282610e7b565b6000805160206118ca8339815191526106d481610c18565b610587611057565b60009182526002602090815260408084206001600160a01b0393909316845291905290205460ff1690565b6060600a80546103cd906116d3565b6107216000336106dc565b61073d5760405162461bcd60e51b815260040161052e9061173c565b6107566000805160206118aa8339815191526000610ca8565b565b6000338161076682866107fd565b9050838110156107c65760405162461bcd60e51b815260206004820152602560248201527f45524332303a2064656372656173656420616c6c6f77616e63652062656c6f77604482015264207a65726f60d81b606482015260840161052e565b61048182868684036108b3565b60003361045e818585610a51565b6107ea8261048c565b6107f381610c18565b6104bd8383610ca8565b6001600160a01b03918216600090815260046020908152604080832093909416825291909152205490565b6108336000336106dc565b61084f5760405162461bcd60e51b815260040161052e9061173c565b6107566000805160206118aa8339815191526000610c22565b6001600160a01b03163b151590565b60006301ffc9a760e01b6001600160e01b0319831614806103b85750506001600160e01b03191660009081526001602052604090205460ff1690565b6001600160a01b0383166109155760405162461bcd60e51b8152602060048201526024808201527f45524332303a20617070726f76652066726f6d20746865207a65726f206164646044820152637265737360e01b606482015260840161052e565b6001600160a01b0382166109765760405162461bcd60e51b815260206004820152602260248201527f45524332303a20617070726f766520746f20746865207a65726f206164647265604482015261737360f01b606482015260840161052e565b6001600160a01b0383811660008181526004602090815260408083209487168084529482529182902085905590518481527f8c5be1e5ebec7d5bd14f71427d1e84f3dd0314c0f7b2291e5b200ac8c7c3b925910160405180910390a3505050565b60006109e384846107fd565b90506000198114610a4b5781811015610a3e5760405162461bcd60e51b815260206004820152601d60248201527f45524332303a20696e73756666696369656e7420616c6c6f77616e6365000000604482015260640161052e565b610a4b84848484036108b3565b50505050565b6001600160a01b038316610ab55760405162461bcd60e51b815260206004820152602560248201527f45524332303a207472616e736665722066726f6d20746865207a65726f206164604482015264647265737360d81b606482015260840161052e565b6001600160a01b038216610b175760405162461bcd60e51b815260206004820152602360248201527f45524332303a207472616e7366657220746f20746865207a65726f206164647260448201526265737360e81b606482015260840161052e565b610b228383836110af565b6001600160a01b03831660009081526003602052604090205481811015610b9a5760405162461bcd60e51b815260206004820152602660248201527f45524332303a207472616e7366657220616d6f756e7420657863656564732062604482015265616c616e636560d01b606482015260840161052e565b6001600160a01b03808516600090815260036020526040808220858503905591851681529081208054849290610bd1908490611724565b92505081905550826001600160a01b0316846001600160a01b031660008051602061190a83398151915284604051610c0b91815260200190565b60405180910390a3610a4b565b61058781336110dd565b610c2c82826106dc565b6105415760008281526002602090815260408083206001600160a01b03851684529091529020805460ff19166001179055610c643390565b6001600160a01b0316816001600160a01b0316837f2f8788117e7eff1d82e926ec794901d17c78024a50270940304540a733656f0d60405160405180910390a45050565b610cb282826106dc565b156105415760008281526002602090815260408083206001600160a01b0385168085529252808320805460ff1916905551339285917ff6391f5c32d9c69d2a47ea670b442974b53935d1edc7fd64eb21e047a839171b9190a45050565b60085460ff16610d585760405162461bcd60e51b815260206004820152601460248201527314185d5cd8589b194e881b9bdd081c185d5cd95960621b604482015260640161052e565b6008805460ff191690557f5db9ee0a495bf2e6ff9c91a7834c1ba4fdd244a5e8aa4e537bd38aeae4b073aa335b6040516001600160a01b03909116815260200160405180910390a1565b6001600160a01b038216610df85760405162461bcd60e51b815260206004820152601f60248201527f45524332303a206d696e7420746f20746865207a65726f206164647265737300604482015260640161052e565b610e04600083836110af565b8060056000828254610e169190611724565b90915550506001600160a01b03821660009081526003602052604081208054839290610e43908490611724565b90915550506040518181526001600160a01b0383169060009060008051602061190a8339815191529060200160405180910390a35050565b6001600160a01b038216610edb5760405162461bcd60e51b815260206004820152602160248201527f45524332303a206275726e2066726f6d20746865207a65726f206164647265736044820152607360f81b606482015260840161052e565b610ee7826000836110af565b6001600160a01b03821660009081526003602052604090205481811015610f5b5760405162461bcd60e51b815260206004820152602260248201527f45524332303a206275726e20616d6f756e7420657863656564732062616c616e604482015261636560f01b606482015260840161052e565b6001600160a01b0383166000908152600360205260408120838303905560058054849290610f8a90849061175f565b90915550506040518281526000906001600160a01b0385169060008051602061190a8339815191529060200160405180910390a3505050565b60008054610100900460ff1615611011578160ff166001148015610fed5750610feb30610868565b155b6110095760405162461bcd60e51b815260040161052e90611776565b506000919050565b60005460ff8084169116106110385760405162461bcd60e51b815260040161052e90611776565b506000805460ff191660ff92909216919091179055600190565b919050565b60085460ff161561107a5760405162461bcd60e51b815260040161052e906117c4565b6008805460ff191660011790557f62e78cea01bee320cd4e420270b5ea74000d11b0c9f74754ebdbfc544b05a258610d853390565b60085460ff16156110d25760405162461bcd60e51b815260040161052e906117c4565b6104bd838383611141565b6110e782826106dc565b610541576110ff816001600160a01b031660146111b6565b61110a8360206111b6565b60405160200161111b9291906117ee565b60408051601f198184030181529082905262461bcd60e51b825261052e91600401611447565b61115a6000805160206118aa83398151915260006106dc565b8061117857506111786000805160206118aa833981519152336106dc565b6104bd5760405162461bcd60e51b815260206004820152600f60248201526e1514905394d1915497d313d0d2d151608a1b604482015260640161052e565b606060006111c583600261185d565b6111d0906002611724565b6001600160401b038111156111e7576111e761153c565b6040519080825280601f01601f191660200182016040528015611211576020820181803683370190505b509050600360fc1b8160008151811061122c5761122c61187c565b60200101906001600160f81b031916908160001a905350600f60fb1b8160018151811061125b5761125b61187c565b60200101906001600160f81b031916908160001a905350600061127f84600261185d565b61128a906001611724565b90505b6001811115611302576f181899199a1a9b1b9c1cb0b131b232b360811b85600f16601081106112be576112be61187c565b1a60f81b8282815181106112d4576112d461187c565b60200101906001600160f81b031916908160001a90535060049490941c936112fb81611892565b905061128d565b5083156113515760405162461bcd60e51b815260206004820181905260248201527f537472696e67733a20686578206c656e67746820696e73756666696369656e74604482015260640161052e565b9392505050565b828054611364906116d3565b90600052602060002090601f01602090048101928261138657600085556113cc565b82601f1061139f57805160ff19168380011785556113cc565b828001600101855582156113cc579182015b828111156113cc5782518255916020019190600101906113b1565b506113d89291506113dc565b5090565b5b808211156113d857600081556001016113dd565b60006020828403121561140357600080fd5b81356001600160e01b03198116811461135157600080fd5b60005b8381101561143657818101518382015260200161141e565b83811115610a4b5750506000910152565b602081526000825180602084015261146681604085016020870161141b565b601f01601f19169190910160400192915050565b80356001600160a01b038116811461105257600080fd5b600080604083850312156114a457600080fd5b6114ad8361147a565b946020939093013593505050565b6000806000606084860312156114d057600080fd5b6114d98461147a565b92506114e76020850161147a565b9150604084013590509250925092565b60006020828403121561150957600080fd5b5035919050565b6000806040838503121561152357600080fd5b823591506115336020840161147a565b90509250929050565b634e487b7160e01b600052604160045260246000fd5b600082601f83011261156357600080fd5b81356001600160401b038082111561157d5761157d61153c565b604051601f8301601f19908116603f011681019082821181831017156115a5576115a561153c565b816040528381528660208588010111156115be57600080fd5b836020870160208301376000602085830101528094505050505092915050565b600080604083850312156115f157600080fd5b82356001600160401b038082111561160857600080fd5b908401906040828703121561161c57600080fd5b6040516040810181811083821117156116375761163761153c565b60405282358281111561164957600080fd5b61165588828601611552565b82525060208301358281111561166a57600080fd5b61167688828601611552565b6020830152508094505050506115336020840161147a565b6000602082840312156116a057600080fd5b6113518261147a565b600080604083850312156116bc57600080fd5b6116c58361147a565b91506115336020840161147a565b600181811c908216806116e757607f821691505b6020821081141561170857634e487b7160e01b600052602260045260246000fd5b50919050565b634e487b7160e01b600052601160045260246000fd5b600082198211156117375761173761170e565b500190565b6020808252600990820152682727aa2fa0a226a4a760b91b604082015260600190565b6000828210156117715761177161170e565b500390565b6020808252602e908201527f496e697469616c697a61626c653a20636f6e747261637420697320616c72656160408201526d191e481a5b9a5d1a585b1a5e995960921b606082015260800190565b60208082526010908201526f14185d5cd8589b194e881c185d5cd95960821b604082015260600190565b76020b1b1b2b9b9a1b7b73a3937b61d1030b1b1b7bab73a1604d1b81526000835161182081601785016020880161141b565b7001034b99036b4b9b9b4b733903937b6329607d1b601791840191820152835161185181602884016020880161141b565b01602801949350505050565b60008160001904831182151516156118775761187761170e565b500290565b634e487b7160e01b600052603260045260246000fd5b6000816118a1576118a161170e565b50600019019056fe8502233096d909befbda0999bb8ea2f3a6be3c138b9fbf003752a4c8bce86f6c65d7a28e3265b37a6474929f336521b332c1681b933f6cb9f3376673440d862a9f2df0fed2c77648de5860a4cc508cd0818c85b8b8a1ab4ceeef8d981c8956a6ddf252ad1be2c89b69c2b068fc378daa952ba7f163c4a11628f55a4df523b3efa2646970667358221220d034a5c807106f02875922f175fc47424a090871025ccaf5d6b49bb674ec925864736f6c63430008090033",
  "devdoc": {
    "kind": "dev",
    "methods": {
      "allowance(address,address)": {
        "details": "See {IERC20-allowance}."
      },
      "approve(address,uint256)": {
        "details": "See {IERC20-approve}. NOTE: If `amount` is the maximum `uint256`, the allowance is not updated on `transferFrom`. This is semantically equivalent to an infinite approval. Requirements: - `spender` cannot be the zero address."
      },
      "balanceOf(address)": {
        "details": "See {IERC20-balanceOf}."
      },
      "burn(uint256)": {
        "details": "Destroys `amount` tokens from the caller. See {ERC20-_burn}."
      },
      "burnFrom(address,uint256)": {
        "details": "Destroys `amount` tokens from `account`, deducting from the caller's allowance. See {ERC20-_burn} and {ERC20-allowance}. Requirements: - the caller must have allowance for ``accounts``'s tokens of at least `amount`."
      },
      "decimals()": {
        "details": "Returns the number of decimals used to get its user representation. For example, if `decimals` equals `2`, a balance of `505` tokens should be displayed to a user as `5.05` (`505 / 10 ** 2`). Tokens usually opt for a value of 18, imitating the relationship between Ether and Wei. This is the value {ERC20} uses, unless this function is overridden; NOTE: This information is only used for _display_ purposes: it in no way affects any of the arithmetic of the contract, including {IERC20-balanceOf} and {IERC20-transfer}."
      },
      "decreaseAllowance(address,uint256)": {
        "details": "Atomically decreases the allowance granted to `spender` by the caller. This is an alternative to {approve} that can be used as a mitigation for problems described in {IERC20-approve}. Emits an {Approval} event indicating the updated allowance. Requirements: - `spender` cannot be the zero address. - `spender` must have allowance for the caller of at least `subtractedValue`."
      },
      "getRoleAdmin(bytes32)": {
        "details": "Returns the admin role that controls `role`. See {grantRole} and {revokeRole}. To change a role's admin, use {_setRoleAdmin}."
      },
      "grantRole(bytes32,address)": {
        "details": "Grants `role` to `account`. If `account` had not been already granted `role`, emits a {RoleGranted} event. Requirements: - the caller must have ``role``'s admin role."
      },
      "hasRole(bytes32,address)": {
        "details": "Returns `true` if `account` has been granted `role`."
      },
      "increaseAllowance(address,uint256)": {
        "details": "Atomically increases the allowance granted to `spender` by the caller. This is an alternative to {approve} that can be used as a mitigation for problems described in {IERC20-approve}. Emits an {Approval} event indicating the updated allowance. Requirements: - `spender` cannot be the zero address."
      },
      "name()": {
        "details": "Returns the name of the token."
      },
      "paused()": {
        "details": "Returns true if the contract is paused, and false otherwise."
      },
      "renounceRole(bytes32,address)": {
        "details": "Revokes `role` from the calling account. Roles are often managed via {grantRole} and {revokeRole}: this function's purpose is to provide a mechanism for accounts to lose their privileges if they are compromised (such as when a trusted device is misplaced). If the calling account had been revoked `role`, emits a {RoleRevoked} event. Requirements: - the caller must be `account`."
      },
      "revokeRole(bytes32,address)": {
        "details": "Revokes `role` from `account`. If `account` had been granted `role`, emits a {RoleRevoked} event. Requirements: - the caller must have ``role``'s admin role."
      },
      "symbol()": {
        "details": "Returns the symbol of the token, usually a shorter version of the name."
      },
      "totalSupply()": {
        "details": "See {IERC20-totalSupply}."
      },
      "transfer(address,uint256)": {
        "details": "See {IERC20-transfer}. Requirements: - `to` cannot be the zero address. - the caller must have a balance of at least `amount`."
      },
      "transferFrom(address,address,uint256)": {
        "details": "See {IERC20-transferFrom}. Emits an {Approval} event indicating the updated allowance. This is not required by the EIP. See the note at the beginning of {ERC20}. NOTE: Does not update the allowance if the current allowance is the maximum `uint256`. Requirements: - `from` and `to` cannot be the zero address. - `from` must have a balance of at least `amount`. - the caller must have allowance for ``from``'s tokens of at least `amount`."
      }
    },
    "version": 1
  },
  "userdoc": {
    "kind": "user",
    "methods": {},
    "version": 1
  },
  "storageLayout": {
    "storage": [
      {
        "astId": 886,
        "contract": "contracts/tokens/presets/ERC20LockableToken.sol:ERC20LockableToken",
        "label": "_initialized",
        "offset": 0,
        "slot": "0",
        "type": "t_uint8"
      },
      {
        "astId": 889,
        "contract": "contracts/tokens/presets/ERC20LockableToken.sol:ERC20LockableToken",
        "label": "_initializing",
        "offset": 1,
        "slot": "0",
        "type": "t_bool"
      },
      {
        "astId": 4693,
        "contract": "contracts/tokens/presets/ERC20LockableToken.sol:ERC20LockableToken",
        "label": "_supportedInterfaces",
        "offset": 0,
        "slot": "1",
        "type": "t_mapping(t_bytes4,t_bool)"
      },
      {
        "astId": 406,
        "contract": "contracts/tokens/presets/ERC20LockableToken.sol:ERC20LockableToken",
        "label": "_roles",
        "offset": 0,
        "slot": "2",
        "type": "t_mapping(t_bytes32,t_struct(RoleData)401_storage)"
      },
      {
        "astId": 1169,
        "contract": "contracts/tokens/presets/ERC20LockableToken.sol:ERC20LockableToken",
        "label": "_balances",
        "offset": 0,
        "slot": "3",
        "type": "t_mapping(t_address,t_uint256)"
      },
      {
        "astId": 1175,
        "contract": "contracts/tokens/presets/ERC20LockableToken.sol:ERC20LockableToken",
        "label": "_allowances",
        "offset": 0,
        "slot": "4",
        "type": "t_mapping(t_address,t_mapping(t_address,t_uint256))"
      },
      {
        "astId": 1177,
        "contract": "contracts/tokens/presets/ERC20LockableToken.sol:ERC20LockableToken",
        "label": "_totalSupply",
        "offset": 0,
        "slot": "5",
        "type": "t_uint256"
      },
      {
        "astId": 1179,
        "contract": "contracts/tokens/presets/ERC20LockableToken.sol:ERC20LockableToken",
        "label": "_name",
        "offset": 0,
        "slot": "6",
        "type": "t_string_storage"
      },
      {
        "astId": 1181,
        "contract": "contracts/tokens/presets/ERC20LockableToken.sol:ERC20LockableToken",
        "label": "_symbol",
        "offset": 0,
        "slot": "7",
        "type": "t_string_storage"
      },
      {
        "astId": 1039,
        "contract": "contracts/tokens/presets/ERC20LockableToken.sol:ERC20LockableToken",
        "label": "_paused",
        "offset": 0,
        "slot": "8",
        "type": "t_bool"
      },
      {
        "astId": 15311,
        "contract": "contracts/tokens/presets/ERC20LockableToken.sol:ERC20LockableToken",
        "label": "_name",
        "offset": 0,
        "slot": "9",
        "type": "t_string_storage"
      },
      {
        "astId": 15313,
        "contract": "contracts/tokens/presets/ERC20LockableToken.sol:ERC20LockableToken",
        "label": "_symbol",
        "offset": 0,
        "slot": "10",
        "type": "t_string_storage"
      }
    ],
    "types": {
      "t_address": {
        "encoding": "inplace",
        "label": "address",
        "numberOfBytes": "20"
      },
      "t_bool": {
        "encoding": "inplace",
        "label": "bool",
        "numberOfBytes": "1"
      },
      "t_bytes32": {
        "encoding": "inplace",
        "label": "bytes32",
        "numberOfBytes": "32"
      },
      "t_bytes4": {
        "encoding": "inplace",
        "label": "bytes4",
        "numberOfBytes": "4"
      },
      "t_mapping(t_address,t_bool)": {
        "encoding": "mapping",
        "key": "t_address",
        "label": "mapping(address => bool)",
        "numberOfBytes": "32",
        "value": "t_bool"
      },
      "t_mapping(t_address,t_mapping(t_address,t_uint256))": {
        "encoding": "mapping",
        "key": "t_address",
        "label": "mapping(address => mapping(address => uint256))",
        "numberOfBytes": "32",
        "value": "t_mapping(t_address,t_uint256)"
      },
      "t_mapping(t_address,t_uint256)": {
        "encoding": "mapping",
        "key": "t_address",
        "label": "mapping(address => uint256)",
        "numberOfBytes": "32",
        "value": "t_uint256"
      },
      "t_mapping(t_bytes32,t_struct(RoleData)401_storage)": {
        "encoding": "mapping",
        "key": "t_bytes32",
        "label": "mapping(bytes32 => struct AccessControl.RoleData)",
        "numberOfBytes": "32",
        "value": "t_struct(RoleData)401_storage"
      },
      "t_mapping(t_bytes4,t_bool)": {
        "encoding": "mapping",
        "key": "t_bytes4",
        "label": "mapping(bytes4 => bool)",
        "numberOfBytes": "32",
        "value": "t_bool"
      },
      "t_string_storage": {
        "encoding": "bytes",
        "label": "string",
        "numberOfBytes": "32"
      },
      "t_struct(RoleData)401_storage": {
        "encoding": "inplace",
        "label": "struct AccessControl.RoleData",
        "members": [
          {
            "astId": 398,
            "contract": "contracts/tokens/presets/ERC20LockableToken.sol:ERC20LockableToken",
            "label": "members",
            "offset": 0,
            "slot": "0",
            "type": "t_mapping(t_address,t_bool)"
          },
          {
            "astId": 400,
            "contract": "contracts/tokens/presets/ERC20LockableToken.sol:ERC20LockableToken",
            "label": "adminRole",
            "offset": 0,
            "slot": "1",
            "type": "t_bytes32"
          }
        ],
        "numberOfBytes": "64"
      },
      "t_uint256": {
        "encoding": "inplace",
        "label": "uint256",
        "numberOfBytes": "32"
      },
      "t_uint8": {
        "encoding": "inplace",
        "label": "uint8",
        "numberOfBytes": "1"
      }
    }
  }
}