{
  "address": "0xBd01725C2C49Ac391510E3F78d040b1853d7Fe8e",
  "abi": [
    {
      "inputs": [
        {
          "internalType": "address",
          "name": "forwarder",
          "type": "address"
        }
      ],
      "name": "isTrustedForwarder",
      "outputs": [
        {
          "internalType": "bool",
          "name": "",
          "type": "bool"
        }
      ],
      "stateMutability": "view",
      "type": "function"
    }
  ],
  "transactionHash": "0xcf5f9cdddb1be5701055ae3e962aca19b334fc09658d8c0a954a6a57bed8d3de",
  "args": [],
  "numDeployments": 1,
  "solcInputHash": "e2f42af2f5273c7308f3825761226b47",
  "bytecode": "0x608060405234801561001057600080fd5b5060fd8061001f6000396000f3fe6080604052348015600f57600080fd5b506004361060285760003560e01c8063572b6c0514602d575b600080fd5b60786038366004608c565b7fdb1d5e345c4903e9a32b6674ecc8b1deaddbbb2551474fb34c9d34becbe7f4205473ffffffffffffffffffffffffffffffffffffffff90811691161490565b604051901515815260200160405180910390f35b600060208284031215609d57600080fd5b813573ffffffffffffffffffffffffffffffffffffffff8116811460c057600080fd5b939250505056fea264697066735822122023ddc8d058c0345018ecfa96ecdcff3095a28d31d153eefe2bc2866560ab42c264736f6c634300080f0033",
  "devdoc": {
    "kind": "dev",
    "methods": {},
    "version": 1
  },
  "userdoc": {
    "kind": "user",
    "methods": {},
    "version": 1
  },
  "storageLayout": {
    "storage": [],
    "types": null
  }
}