{
  "address": "0x310aC50d2be97C3DB184B21F10F5ADb1c6b1fcD2",
  "abi": [
    {
      "inputs": [
        {
          "components": [
            {
              "internalType": "address",
              "name": "ticketToken",
              "type": "address"
            },
            {
              "internalType": "uint64",
              "name": "lockedUntilTimestamp",
              "type": "uint64"
            },
            {
              "internalType": "uint256",
              "name": "totalTickets",
              "type": "uint256"
            },
            {
              "internalType": "uint256",
              "name": "emissionRate",
              "type": "uint256"
            },
            {
              "internalType": "uint64",
              "name": "emissionTimeUnit",
              "type": "uint64"
            },
            {
              "internalType": "uint64",
              "name": "emissionStart",
              "type": "uint64"
            },
            {
              "internalType": "uint64",
              "name": "emissionEnd",
              "type": "uint64"
            }
          ],
          "internalType": "struct ERC721EqualEmissionStream.Config",
          "name": "config",
          "type": "tuple"
        }
      ],
      "stateMutability": "nonpayable",
      "type": "constructor"
    },
    {
      "anonymous": false,
      "inputs": [
        {
          "indexed": false,
          "internalType": "address",
          "name": "operator",
          "type": "address"
        },
        {
          "indexed": false,
          "internalType": "address",
          "name": "beneficiary",
          "type": "address"
        },
        {
          "indexed": false,
          "internalType": "uint256",
          "name": "ticketTokenId",
          "type": "uint256"
        },
        {
          "indexed": false,
          "internalType": "address",
          "name": "claimToken",
          "type": "address"
        },
        {
          "indexed": false,
          "internalType": "uint256",
          "name": "releasedAmount",
          "type": "uint256"
        }
      ],
      "name": "Claim",
      "type": "event"
    },
    {
      "anonymous": false,
      "inputs": [
        {
          "indexed": false,
          "internalType": "address",
          "name": "operator",
          "type": "address"
        },
        {
          "indexed": false,
          "internalType": "address",
          "name": "beneficiary",
          "type": "address"
        },
        {
          "indexed": false,
          "internalType": "uint256[]",
          "name": "ticketTokenIds",
          "type": "uint256[]"
        },
        {
          "indexed": false,
          "internalType": "address",
          "name": "claimToken",
          "type": "address"
        },
        {
          "indexed": false,
          "internalType": "uint256",
          "name": "releasedAmount",
          "type": "uint256"
        }
      ],
      "name": "ClaimMany",
      "type": "event"
    },
    {
      "anonymous": false,
      "inputs": [],
      "name": "EmergencyPowerRevoked",
      "type": "event"
    },
    {
      "anonymous": false,
      "inputs": [
        {
          "indexed": false,
          "internalType": "address[]",
          "name": "claimTokens",
          "type": "address[]"
        }
      ],
      "name": "EmergencyWithdrawn",
      "type": "event"
    },
    {
      "anonymous": false,
      "inputs": [
        {
          "indexed": false,
          "internalType": "uint8",
          "name": "version",
          "type": "uint8"
        }
      ],
      "name": "Initialized",
      "type": "event"
    },
    {
      "anonymous": false,
      "inputs": [
        {
          "indexed": true,
          "internalType": "address",
          "name": "previousOwner",
          "type": "address"
        },
        {
          "indexed": true,
          "internalType": "address",
          "name": "newOwner",
          "type": "address"
        }
      ],
      "name": "OwnershipTransferred",
      "type": "event"
    },
    {
      "inputs": [
        {
          "internalType": "uint256",
          "name": "ticketTokenId",
          "type": "uint256"
        }
      ],
      "name": "claim",
      "outputs": [],
      "stateMutability": "nonpayable",
      "type": "function"
    },
    {
      "inputs": [
        {
          "internalType": "uint256[]",
          "name": "ticketTokenIds",
          "type": "uint256[]"
        }
      ],
      "name": "claim",
      "outputs": [],
      "stateMutability": "nonpayable",
      "type": "function"
    },
    {
      "inputs": [
        {
          "internalType": "uint256",
          "name": "ticketTokenId",
          "type": "uint256"
        },
        {
          "internalType": "address",
          "name": "claimToken",
          "type": "address"
        }
      ],
      "name": "claim",
      "outputs": [],
      "stateMutability": "nonpayable",
      "type": "function"
    },
    {
      "inputs": [
        {
          "internalType": "uint256[]",
          "name": "ticketTokenIds",
          "type": "uint256[]"
        },
        {
          "internalType": "address",
          "name": "claimToken",
          "type": "address"
        },
        {
          "internalType": "address",
          "name": "owner",
          "type": "address"
        }
      ],
      "name": "claim",
      "outputs": [],
      "stateMutability": "nonpayable",
      "type": "function"
    },
    {
      "inputs": [],
      "name": "claimLockedUntil",
      "outputs": [
        {
          "internalType": "uint64",
          "name": "",
          "type": "uint64"
        }
      ],
      "stateMutability": "view",
      "type": "function"
    },
    {
      "inputs": [],
      "name": "emergencyPowerRevoked",
      "outputs": [
        {
          "internalType": "bool",
          "name": "",
          "type": "bool"
        }
      ],
      "stateMutability": "view",
      "type": "function"
    },
    {
      "inputs": [
        {
          "internalType": "address[]",
          "name": "claimTokens",
          "type": "address[]"
        }
      ],
      "name": "emergencyWithdraw",
      "outputs": [],
      "stateMutability": "nonpayable",
      "type": "function"
    },
    {
      "inputs": [
        {
          "internalType": "uint64",
          "name": "calcUntil",
          "type": "uint64"
        }
      ],
      "name": "emissionAmountUntil",
      "outputs": [
        {
          "internalType": "uint256",
          "name": "",
          "type": "uint256"
        }
      ],
      "stateMutability": "view",
      "type": "function"
    },
    {
      "inputs": [],
      "name": "emissionEnd",
      "outputs": [
        {
          "internalType": "uint64",
          "name": "",
          "type": "uint64"
        }
      ],
      "stateMutability": "view",
      "type": "function"
    },
    {
      "inputs": [],
      "name": "emissionRate",
      "outputs": [
        {
          "internalType": "uint256",
          "name": "",
          "type": "uint256"
        }
      ],
      "stateMutability": "view",
      "type": "function"
    },
    {
      "inputs": [],
      "name": "emissionStart",
      "outputs": [
        {
          "internalType": "uint64",
          "name": "",
          "type": "uint64"
        }
      ],
      "stateMutability": "view",
      "type": "function"
    },
    {
      "inputs": [],
      "name": "emissionTimeUnit",
      "outputs": [
        {
          "internalType": "uint64",
          "name": "",
          "type": "uint64"
        }
      ],
      "stateMutability": "view",
      "type": "function"
    },
    {
      "inputs": [
        {
          "internalType": "uint256",
          "name": "",
          "type": "uint256"
        },
        {
          "internalType": "address",
          "name": "",
          "type": "address"
        }
      ],
      "name": "entitlements",
      "outputs": [
        {
          "internalType": "uint256",
          "name": "totalClaimed",
          "type": "uint256"
        },
        {
          "internalType": "uint256",
          "name": "lastClaimedAt",
          "type": "uint256"
        }
      ],
      "stateMutability": "view",
      "type": "function"
    },
    {
      "inputs": [],
      "name": "hasERC721EmissionReleaseExtension",
      "outputs": [
        {
          "internalType": "bool",
          "name": "",
          "type": "bool"
        }
      ],
      "stateMutability": "pure",
      "type": "function"
    },
    {
      "inputs": [],
      "name": "hasERC721EqualSplitExtension",
      "outputs": [
        {
          "internalType": "bool",
          "name": "",
          "type": "bool"
        }
      ],
      "stateMutability": "pure",
      "type": "function"
    },
    {
      "inputs": [],
      "name": "hasERC721LockableClaimExtension",
      "outputs": [
        {
          "internalType": "bool",
          "name": "",
          "type": "bool"
        }
      ],
      "stateMutability": "pure",
      "type": "function"
    },
    {
      "inputs": [
        {
          "components": [
            {
              "internalType": "address",
              "name": "ticketToken",
              "type": "address"
            },
            {
              "internalType": "uint64",
              "name": "lockedUntilTimestamp",
              "type": "uint64"
            },
            {
              "internalType": "uint256",
              "name": "totalTickets",
              "type": "uint256"
            },
            {
              "internalType": "uint256",
              "name": "emissionRate",
              "type": "uint256"
            },
            {
              "internalType": "uint64",
              "name": "emissionTimeUnit",
              "type": "uint64"
            },
            {
              "internalType": "uint64",
              "name": "emissionStart",
              "type": "uint64"
            },
            {
              "internalType": "uint64",
              "name": "emissionEnd",
              "type": "uint64"
            }
          ],
          "internalType": "struct ERC721EqualEmissionStream.Config",
          "name": "config",
          "type": "tuple"
        },
        {
          "internalType": "address",
          "name": "deployer",
          "type": "address"
        }
      ],
      "name": "initialize",
      "outputs": [],
      "stateMutability": "nonpayable",
      "type": "function"
    },
    {
      "inputs": [
        {
          "internalType": "uint64",
          "name": "newValue",
          "type": "uint64"
        }
      ],
      "name": "lockUntil",
      "outputs": [],
      "stateMutability": "nonpayable",
      "type": "function"
    },
    {
      "inputs": [],
      "name": "lockedUntilTimestamp",
      "outputs": [
        {
          "internalType": "uint64",
          "name": "",
          "type": "uint64"
        }
      ],
      "stateMutability": "view",
      "type": "function"
    },
    {
      "inputs": [],
      "name": "name",
      "outputs": [
        {
          "internalType": "string",
          "name": "",
          "type": "string"
        }
      ],
      "stateMutability": "view",
      "type": "function"
    },
    {
      "inputs": [],
      "name": "owner",
      "outputs": [
        {
          "internalType": "address",
          "name": "",
          "type": "address"
        }
      ],
      "stateMutability": "view",
      "type": "function"
    },
    {
      "inputs": [
        {
          "internalType": "uint64",
          "name": "calcUntil",
          "type": "uint64"
        }
      ],
      "name": "releasedAmountUntil",
      "outputs": [
        {
          "internalType": "uint256",
          "name": "",
          "type": "uint256"
        }
      ],
      "stateMutability": "view",
      "type": "function"
    },
    {
      "inputs": [],
      "name": "renounceOwnership",
      "outputs": [],
      "stateMutability": "nonpayable",
      "type": "function"
    },
    {
      "inputs": [],
      "name": "revokeEmergencyPower",
      "outputs": [],
      "stateMutability": "nonpayable",
      "type": "function"
    },
    {
      "inputs": [
        {
          "internalType": "uint64",
          "name": "newValue",
          "type": "uint64"
        }
      ],
      "name": "setClaimLockedUntil",
      "outputs": [],
      "stateMutability": "nonpayable",
      "type": "function"
    },
    {
      "inputs": [
        {
          "internalType": "uint64",
          "name": "newValue",
          "type": "uint64"
        }
      ],
      "name": "setEmissionEnd",
      "outputs": [],
      "stateMutability": "nonpayable",
      "type": "function"
    },
    {
      "inputs": [
        {
          "internalType": "uint256",
          "name": "newValue",
          "type": "uint256"
        }
      ],
      "name": "setEmissionRate",
      "outputs": [],
      "stateMutability": "nonpayable",
      "type": "function"
    },
    {
      "inputs": [
        {
          "internalType": "uint64",
          "name": "newValue",
          "type": "uint64"
        }
      ],
      "name": "setEmissionStart",
      "outputs": [],
      "stateMutability": "nonpayable",
      "type": "function"
    },
    {
      "inputs": [
        {
          "internalType": "uint64",
          "name": "newValue",
          "type": "uint64"
        }
      ],
      "name": "setEmissionTimeUnit",
      "outputs": [],
      "stateMutability": "nonpayable",
      "type": "function"
    },
    {
      "inputs": [
        {
          "internalType": "uint256",
          "name": "newValue",
          "type": "uint256"
        }
      ],
      "name": "setTotalTickets",
      "outputs": [],
      "stateMutability": "nonpayable",
      "type": "function"
    },
    {
      "inputs": [
        {
          "internalType": "uint256[]",
          "name": "ticketTokenIds",
          "type": "uint256[]"
        },
        {
          "internalType": "address",
          "name": "claimToken",
          "type": "address"
        }
      ],
      "name": "streamClaimableAmount",
      "outputs": [
        {
          "internalType": "uint256",
          "name": "",
          "type": "uint256"
        }
      ],
      "stateMutability": "view",
      "type": "function"
    },
    {
      "inputs": [
        {
          "internalType": "uint256",
          "name": "ticketTokenId",
          "type": "uint256"
        }
      ],
      "name": "streamClaimableAmount",
      "outputs": [
        {
          "internalType": "uint256",
          "name": "",
          "type": "uint256"
        }
      ],
      "stateMutability": "view",
      "type": "function"
    },
    {
      "inputs": [
        {
          "internalType": "uint256",
          "name": "ticketTokenId",
          "type": "uint256"
        },
        {
          "internalType": "address",
          "name": "claimToken",
          "type": "address"
        }
      ],
      "name": "streamClaimableAmount",
      "outputs": [
        {
          "internalType": "uint256",
          "name": "",
          "type": "uint256"
        }
      ],
      "stateMutability": "view",
      "type": "function"
    },
    {
      "inputs": [
        {
          "internalType": "uint256[]",
          "name": "ticketTokenIds",
          "type": "uint256[]"
        },
        {
          "internalType": "address",
          "name": "claimToken",
          "type": "address"
        }
      ],
      "name": "streamTotalClaimed",
      "outputs": [
        {
          "internalType": "uint256",
          "name": "",
          "type": "uint256"
        }
      ],
      "stateMutability": "view",
      "type": "function"
    },
    {
      "inputs": [],
      "name": "streamTotalClaimed",
      "outputs": [
        {
          "internalType": "uint256",
          "name": "",
          "type": "uint256"
        }
      ],
      "stateMutability": "view",
      "type": "function"
    },
    {
      "inputs": [
        {
          "internalType": "uint256[]",
          "name": "ticketTokenIds",
          "type": "uint256[]"
        }
      ],
      "name": "streamTotalClaimed",
      "outputs": [
        {
          "internalType": "uint256",
          "name": "",
          "type": "uint256"
        }
      ],
      "stateMutability": "view",
      "type": "function"
    },
    {
      "inputs": [
        {
          "internalType": "uint256",
          "name": "ticketTokenId",
          "type": "uint256"
        },
        {
          "internalType": "address",
          "name": "claimToken",
          "type": "address"
        }
      ],
      "name": "streamTotalClaimed",
      "outputs": [
        {
          "internalType": "uint256",
          "name": "",
          "type": "uint256"
        }
      ],
      "stateMutability": "view",
      "type": "function"
    },
    {
      "inputs": [
        {
          "internalType": "address",
          "name": "claimToken",
          "type": "address"
        }
      ],
      "name": "streamTotalClaimed",
      "outputs": [
        {
          "internalType": "uint256",
          "name": "",
          "type": "uint256"
        }
      ],
      "stateMutability": "view",
      "type": "function"
    },
    {
      "inputs": [
        {
          "internalType": "uint256",
          "name": "ticketTokenId",
          "type": "uint256"
        }
      ],
      "name": "streamTotalClaimed",
      "outputs": [
        {
          "internalType": "uint256",
          "name": "",
          "type": "uint256"
        }
      ],
      "stateMutability": "view",
      "type": "function"
    },
    {
      "inputs": [],
      "name": "streamTotalSupply",
      "outputs": [
        {
          "internalType": "uint256",
          "name": "",
          "type": "uint256"
        }
      ],
      "stateMutability": "view",
      "type": "function"
    },
    {
      "inputs": [
        {
          "internalType": "address",
          "name": "claimToken",
          "type": "address"
        }
      ],
      "name": "streamTotalSupply",
      "outputs": [
        {
          "internalType": "uint256",
          "name": "",
          "type": "uint256"
        }
      ],
      "stateMutability": "view",
      "type": "function"
    },
    {
      "inputs": [
        {
          "internalType": "bytes4",
          "name": "interfaceId",
          "type": "bytes4"
        }
      ],
      "name": "supportsInterface",
      "outputs": [
        {
          "internalType": "bool",
          "name": "",
          "type": "bool"
        }
      ],
      "stateMutability": "view",
      "type": "function"
    },
    {
      "inputs": [],
      "name": "ticketToken",
      "outputs": [
        {
          "internalType": "address",
          "name": "",
          "type": "address"
        }
      ],
      "stateMutability": "view",
      "type": "function"
    },
    {
      "inputs": [],
      "name": "totalTickets",
      "outputs": [
        {
          "internalType": "uint256",
          "name": "",
          "type": "uint256"
        }
      ],
      "stateMutability": "view",
      "type": "function"
    },
    {
      "inputs": [
        {
          "internalType": "address",
          "name": "newOwner",
          "type": "address"
        }
      ],
      "name": "transferOwnership",
      "outputs": [],
      "stateMutability": "nonpayable",
      "type": "function"
    },
    {
      "inputs": [],
      "name": "version",
      "outputs": [
        {
          "internalType": "string",
          "name": "",
          "type": "string"
        }
      ],
      "stateMutability": "view",
      "type": "function"
    },
    {
      "stateMutability": "payable",
      "type": "receive"
    }
  ],
  "transactionHash": "0xc67f65e880711729a6f5b070ab4a8f0495871f0dd9028461dd43bbf9f2e8c523",
  "args": [
    {
      "ticketToken": "0x0000000000000000000000000000000000000000",
      "lockedUntilTimestamp": 0,
      "totalTickets": 0,
      "emissionRate": 0,
      "emissionTimeUnit": 0,
      "emissionStart": 0,
      "emissionEnd": 0,
      "claimLockedUntil": 0
    }
  ],
  "numDeployments": 3,
  "solcInputHash": "693d2e7d068b431ce76e3072069522fa",
  "bytecode": "0x60806040523480156200001157600080fd5b5060405162002d9b38038062002d9b833981016040819052620000349162000540565b6200003f3362000057565b6001600355620000508133620000a9565b5062000694565b600280546001600160a01b038381166001600160a01b0319831681179093556040519116919082907f8be0079c531659141344cd1fd0a4f28419497f9722a3daafe3b4186f6b6457e090600090a35050565b6000620000b7600162000178565b90508015620000d0576000805461ff0019166101001790555b620000db8262000057565b620000e56200022a565b82516020840151620000f8919062000260565b6200011c836060015184608001518560a001518660c001516200029a60201b60201c565b60408301516200012c90620002d8565b801562000173576000805461ff0019169055604051600181527f7f26b83ff96e1f2b6a682f133852f6798a09c465da95921460cefb38474024989060200160405180910390a15b505050565b60008054610100900460ff1615620001e1578160ff166001148015620001b15750620001af306200031060201b620019cc1760201c565b155b620001d95760405162461bcd60e51b8152600401620001d090620005fb565b60405180910390fd5b506000919050565b60005460ff8084169116106200020b5760405162461bcd60e51b8152600401620001d090620005fb565b506000805460ff191660ff92909216919091179055600190565b919050565b600054610100900460ff16620002545760405162461bcd60e51b8152600401620001d09062000649565b6200025e6200031f565b565b600054610100900460ff166200028a5760405162461bcd60e51b8152600401620001d09062000649565b6200029682826200035b565b5050565b600054610100900460ff16620002c45760405162461bcd60e51b8152600401620001d09062000649565b620002d284848484620003c5565b50505050565b600054610100900460ff16620003025760405162461bcd60e51b8152600401620001d09062000649565b6200030d8162000450565b50565b6001600160a01b03163b151590565b600054610100900460ff16620003495760405162461bcd60e51b8152600401620001d09062000649565b6200025e6326bcdb3160e01b6200048c565b600054610100900460ff16620003855760405162461bcd60e51b8152600401620001d09062000649565b600480546001600160401b038316600160a01b026001600160e01b03199091166001600160a01b0385161717905562000296631ba050e960e21b6200048c565b600054610100900460ff16620003ef5760405162461bcd60e51b8152600401620001d09062000649565b6007849055600880546001600160401b03838116600160801b02600160801b600160c01b031986831668010000000000000000026001600160801b0319909416928816929092179290921716179055620002d2634d0b5a4960e01b6200048c565b600054610100900460ff166200047a5760405162461bcd60e51b8152600401620001d09062000649565b60098190556200030d632d5305cb60e21b5b6001600160e01b03198082161415620004e85760405162461bcd60e51b815260206004820152601c60248201527f4552433136353a20696e76616c696420696e74657266616365206964000000006044820152606401620001d0565b6001600160e01b0319166000908152600160208190526040909120805460ff19169091179055565b80516001600160a01b03811681146200022557600080fd5b80516001600160401b03811681146200022557600080fd5b600060e082840312156200055357600080fd5b60405160e081016001600160401b03811182821017156200058457634e487b7160e01b600052604160045260246000fd5b604052620005928362000510565b8152620005a26020840162000528565b60208201526040830151604082015260608301516060820152620005c96080840162000528565b6080820152620005dc60a0840162000528565b60a0820152620005ef60c0840162000528565b60c08201529392505050565b6020808252602e908201527f496e697469616c697a61626c653a20636f6e747261637420697320616c72656160408201526d191e481a5b9a5d1a585b1a5e995960921b606082015260800190565b6020808252602b908201527f496e697469616c697a61626c653a20636f6e7472616374206973206e6f74206960408201526a6e697469616c697a696e6760a81b606082015260800190565b6126f780620006a46000396000f3fe6080604052600436106102115760003560e01c80630191c0af1461022a57806301c1dfba1461025d57806301ffc9a71461027d57806306fdde03146102ad57806314427a96146103025780631bc51b261461033a5780631c725fdc1461034e57806325289bad1461036e578063277d048b146103955780632890d033146103aa5780632c0e1313146103bf578063379607f5146103df5780633b3f12e2146103ff5780633d2dded51461041f5780634e6317831461045c578063513da9481461047d57806354fd4d50146104a457806357dc48c8146104d357806361949636146105275780636ba4c13814610547578063715018a61461056757806378b094ca1461057c578063790c0c731461059c5780638368909c146105bc57806389c6b815146105e35780638da5cb5b146106035780639199690b1461033a578063968d9b2c1461062557806396afc450146106455780639edfe8301461065b578063a1bdb15e1461067b578063a1cf64931461069b578063a86b21e8146106de578063aa02a74b146106fe578063aaf2f9991461071e578063ae890c0a1461073e578063c08818491461075e578063d1335b691461033a578063d5ed4d5a14610794578063d97314f5146107b4578063dd11247e146107d4578063ddd5e1b2146107ea578063f2fde38b1461080a578063f389b6e41461082a578063f4415ad61461084a578063f66e38c21461088257600080fd5b36610225576000341161022357600080fd5b005b600080fd5b34801561023657600080fd5b5061024a6102453660046120b2565b6108a2565b6040519081526020015b60405180910390f35b34801561026957600080fd5b50610223610278366004612108565b6108fa565b34801561028957600080fd5b5061029d610298366004612149565b610b4e565b6040519015158152602001610254565b3480156102b957600080fd5b506102f56040518060400160405280601c81526020017b45524337323120457175616c20456d697373696f6e2053747265616d60201b81525081565b6040516102549190612173565b34801561030e57600080fd5b50600a54610322906001600160401b031681565b6040516001600160401b039091168152602001610254565b34801561034657600080fd5b50600161029d565b34801561035a57600080fd5b506102236103693660046121df565b610b8e565b34801561037a57600080fd5b5060045461032290600160a01b90046001600160401b031681565b3480156103a157600080fd5b50610223610c45565b3480156103b657600080fd5b5061024a610cb2565b3480156103cb57600080fd5b506102236103da3660046121df565b610cc3565b3480156103eb57600080fd5b506102236103fa3660046121fa565b610d46565b34801561040b57600080fd5b5061024a61041a3660046120b2565b610d54565b34801561042b57600080fd5b506000805260066020527f54cdd369e4e8a8515e52ca72ec816c2101831ad1f18bf44102ed171459c9b4f85461024a565b34801561046857600080fd5b5060025461029d90600160a01b900460ff1681565b34801561048957600080fd5b5060085461032290600160401b90046001600160401b031681565b3480156104b057600080fd5b506102f560405180604001604052806003815260200162302e3160e81b81525081565b3480156104df57600080fd5b506105126104ee366004612213565b60056020908152600092835260408084209091529082529020805460019091015482565b60408051928352602083019190915201610254565b34801561053357600080fd5b50600854610322906001600160401b031681565b34801561055357600080fd5b50610223610562366004612108565b610dd2565b34801561057357600080fd5b50610223610de3565b34801561058857600080fd5b506102236105973660046121df565b610e1e565b3480156105a857600080fd5b5061024a6105b7366004612243565b610eab565b3480156105c857600080fd5b5060085461032290600160801b90046001600160401b031681565b3480156105ef57600080fd5b5061024a6105fe366004612108565b610f7e565b34801561060f57600080fd5b50610618610f8c565b6040516102549190612260565b34801561063157600080fd5b5061024a6106403660046121fa565b610f9b565b34801561065157600080fd5b5061024a60075481565b34801561066757600080fd5b5061024a6106763660046121df565b610fa8565b34801561068757600080fd5b506102236106963660046121fa565b610fed565b3480156106a757600080fd5b5061024a6106b6366004612213565b60009182526005602090815260408084206001600160a01b0393909316845291905290205490565b3480156106ea57600080fd5b5061024a6106f93660046121df565b611053565b34801561070a57600080fd5b50610223610719366004612274565b611099565b34801561072a57600080fd5b506102236107393660046121df565b611154565b34801561074a57600080fd5b506102236107593660046121fa565b6111e1565b34801561076a57600080fd5b5061024a610779366004612243565b6001600160a01b031660009081526006602052604090205490565b3480156107a057600080fd5b50600454610618906001600160a01b031681565b3480156107c057600080fd5b506102236107cf3660046121df565b611247565b3480156107e057600080fd5b5061024a60095481565b3480156107f657600080fd5b50610223610805366004612213565b6112ca565b34801561081657600080fd5b50610223610825366004612243565b611562565b34801561083657600080fd5b50610223610845366004612345565b6115ff565b34801561085657600080fd5b5061024a6108653660046121fa565b600090815260056020908152604080832083805290915290205490565b34801561088e57600080fd5b5061024a61089d366004612213565b611974565b600080805b848110156108ef576108d18686838181106108c4576108c46123ac565b9050602002013585611974565b6108db90836123d8565b9150806108e7816123f0565b9150506108a7565b5090505b9392505050565b33610903610f8c565b6001600160a01b0316146109325760405162461bcd60e51b81526004016109299061240b565b60405180910390fd5b600254600160a01b900460ff16156109865760405162461bcd60e51b81526020600482015260176024820152761153515491d15390d657d413d5d15497d4915593d2d151604a1b6044820152606401610929565b6000610990610f8c565b905060005b82811015610b485760008484838181106109b1576109b16123ac565b90506020020160208101906109c69190612243565b6001600160a01b031614156109ed576109e86001600160a01b038316476119db565b610b36565b8383828181106109ff576109ff6123ac565b9050602002016020810190610a149190612243565b6001600160a01b031663a9059cbb83868685818110610a3557610a356123ac565b9050602002016020810190610a4a9190612243565b6001600160a01b03166370a08231306040518263ffffffff1660e01b8152600401610a759190612260565b60206040518083038186803b158015610a8d57600080fd5b505afa158015610aa1573d6000803e3d6000fd5b505050506040513d601f19601f82011682018060405250810190610ac59190612440565b6040518363ffffffff1660e01b8152600401610ae2929190612459565b602060405180830381600087803b158015610afc57600080fd5b505af1158015610b10573d6000803e3d6000fd5b505050506040513d601f19601f82011682018060405250810190610b349190612472565b505b80610b40816123f0565b915050610995565b50505050565b60006301ffc9a760e01b6001600160e01b031983161480610b8857506001600160e01b0319821660009081526001602052604090205460ff165b92915050565b33610b97610f8c565b6001600160a01b031614610bbd5760405162461bcd60e51b81526004016109299061240b565b6004546001600160401b03600160a01b909104811690821611610c195760405162461bcd60e51b815260206004820152601460248201527314d5149150534bd0d0539393d517d49155d2539160621b6044820152606401610929565b600480546001600160401b03909216600160a01b02600160a01b600160e01b0319909216919091179055565b33610c4e610f8c565b6001600160a01b031614610c745760405162461bcd60e51b81526004016109299061240b565b6002805460ff60a01b1916600160a01b1790556040517f21fadcdbe90fc4e8062dd78003616bbe56d48e0f1bfc58eacd10b11bba16b79690600090a1565b6000610cbe6000610eab565b905090565b33610ccc610f8c565b6001600160a01b031614610cf25760405162461bcd60e51b81526004016109299061240b565b60045442600160a01b9091046001600160401b031610610d245760405162461bcd60e51b815260040161092990612494565b600a80546001600160401b0319166001600160401b0392909216919091179055565b610d518160006112ca565b50565b600080805b848110156108ef5760056000878784818110610d7757610d776123ac565b9050602002013581526020019081526020016000206000856001600160a01b03166001600160a01b031681526020019081526020016000206000015482610dbe91906123d8565b915080610dca816123f0565b915050610d59565b610ddf82826000336115ff565b5050565b33610dec610f8c565b6001600160a01b031614610e125760405162461bcd60e51b81526004016109299061240b565b610e1c6000611af1565b565b33610e27610f8c565b6001600160a01b031614610e4d5760405162461bcd60e51b81526004016109299061240b565b60045442600160a01b9091046001600160401b031610610e7f5760405162461bcd60e51b815260040161092990612494565b600880546001600160401b03909216600160801b02600160801b600160c01b0319909216919091179055565b60006001600160a01b038216610edf576001600160a01b038216600090815260066020526040902054610b889047906123d8565b6040516370a0823160e01b81526001600160a01b038316906370a0823190610f0b903090600401612260565b60206040518083038186803b158015610f2357600080fd5b505afa158015610f37573d6000803e3d6000fd5b505050506040513d601f19601f82011682018060405250810190610f5b9190612440565b6001600160a01b038316600090815260066020526040902054610b8891906123d8565b60006108f383836000610d54565b6002546001600160a01b031690565b6000610b88826000611974565b6008546000906001600160401b0380821691610fcd91600160401b90910416846124c2565b610fd79190612500565b6001600160401b0316600754610b889190612526565b33610ff6610f8c565b6001600160a01b03161461101c5760405162461bcd60e51b81526004016109299061240b565b60045442600160a01b9091046001600160401b03161061104e5760405162461bcd60e51b815260040161092990612494565b600755565b6008546007546000916001600160401b03808216929161107c91600160401b90910416856124c2565b6001600160401b031661108f9190612526565b610b889190612545565b60006110a56001611b43565b905080156110bd576000805461ff0019166101001790555b6110c682611af1565b6110ce611bd7565b6110e083600001518460200151611c06565b6110fc836060015184608001518560a001518660c00151611c37565b6111098360400151611c6a565b801561114f576000805461ff0019169055604051600181527f7f26b83ff96e1f2b6a682f133852f6798a09c465da95921460cefb38474024989060200160405180910390a15b505050565b3361115d610f8c565b6001600160a01b0316146111835760405162461bcd60e51b81526004016109299061240b565b60045442600160a01b9091046001600160401b0316106111b55760405162461bcd60e51b815260040161092990612494565b600880546001600160401b03909216600160401b02600160401b600160801b0319909216919091179055565b336111ea610f8c565b6001600160a01b0316146112105760405162461bcd60e51b81526004016109299061240b565b60045442600160a01b9091046001600160401b0316106112425760405162461bcd60e51b815260040161092990612494565b600955565b33611250610f8c565b6001600160a01b0316146112765760405162461bcd60e51b81526004016109299061240b565b60045442600160a01b9091046001600160401b0316106112a85760405162461bcd60e51b815260040161092990612494565b600880546001600160401b0319166001600160401b0392909216919091179055565b600260035414156112ed5760405162461bcd60e51b815260040161092990612559565b6002600355600480546040516331a9108f60e11b81529182018490526000916001600160a01b0390911690636352211e9060240160206040518083038186803b15801561133957600080fd5b505afa15801561134d573d6000803e3d6000fd5b505050506040513d601f19601f820116820180604052508101906113719190612590565b905061137e838383611c9a565b600061138a8484611974565b9050600081116113d65760405162461bcd60e51b815260206004820152601760248201527653545245414d2f4e4f5448494e475f544f5f434c41494d60481b6044820152606401610929565b60008481526005602090815260408083206001600160a01b0387168452909152812080548392906114089084906123d8565b909155505060008481526005602090815260408083206001600160a01b038716845282528083204260019091015560069091528120805483929061144d9084906123d8565b909155506114589050565b6001600160a01b03831661147e576114796001600160a01b038316826119db565b611500565b60405163a9059cbb60e01b81526001600160a01b0384169063a9059cbb906114ac9085908590600401612459565b602060405180830381600087803b1580156114c657600080fd5b505af11580156114da573d6000803e3d6000fd5b505050506040513d601f19601f820116820180604052508101906114fe9190612472565b505b604080513381526001600160a01b038481166020830152818301879052851660608201526080810183905290517fa2d3c4c1fc934d6d2d8f9e862df90c01ae4eb0e920cd8957d242ba26b8dc40789181900360a00190a1505060016003555050565b3361156b610f8c565b6001600160a01b0316146115915760405162461bcd60e51b81526004016109299061240b565b6001600160a01b0381166115f65760405162461bcd60e51b815260206004820152602660248201527f4f776e61626c653a206e6577206f776e657220697320746865207a65726f206160448201526564647265737360d01b6064820152608401610929565b610d5181611af1565b600260035414156116225760405162461bcd60e51b815260040161092990612559565b60026003556000805b8481101561185157611656868683818110611648576116486123ac565b905060200201358585611c9a565b6004546001600160a01b038085169116636352211e88888581811061167d5761167d6123ac565b905060200201356040518263ffffffff1660e01b81526004016116a291815260200190565b60206040518083038186803b1580156116ba57600080fd5b505afa1580156116ce573d6000803e3d6000fd5b505050506040513d601f19601f820116820180604052508101906116f29190612590565b6001600160a01b03161461173f5760405162461bcd60e51b815260206004820152601460248201527329aa2922a0a697a727aa2fa7232a2fa7aba722a960611b6044820152606401610929565b6000611763878784818110611756576117566123ac565b9050602002013586611974565b90508015611829578060056000898986818110611782576117826123ac565b9050602002013581526020019081526020016000206000876001600160a01b03166001600160a01b0316815260200190815260200160002060000160008282546117cc91906123d8565b90915550429050600560008989868181106117e9576117e96123ac565b6020908102929092013583525081810192909252604090810160009081206001600160a01b038a16825290925290206001015561182681846123d8565b92505b61183e87878481811061114f5761114f6123ac565b5080611849816123f0565b91505061162b565b506001600160a01b0383166000908152600660205260408120805483929061187a9084906123d8565b90915550506001600160a01b0383166118a5576118a06001600160a01b038316826119db565b611927565b60405163a9059cbb60e01b81526001600160a01b0384169063a9059cbb906118d39085908590600401612459565b602060405180830381600087803b1580156118ed57600080fd5b505af1158015611901573d6000803e3d6000fd5b505050506040513d601f19601f820116820180604052508101906119259190612472565b505b7fd84a5c424a4f777bcf4f645712b8e5ebfc550f42bde444fa822fe98ee1b132b1338387878786604051611960969594939291906125ad565b60405180910390a150506001600355505050565b60008061199461198d61198685610eab565b8686611cb0565b8585611d38565b60008581526005602090815260408083206001600160a01b03881684529091529020549091506119c49082612611565b949350505050565b6001600160a01b03163b151590565b80471015611a2b5760405162461bcd60e51b815260206004820152601d60248201527f416464726573733a20696e73756666696369656e742062616c616e63650000006044820152606401610929565b6000826001600160a01b03168260405160006040518083038185875af1925050503d8060008114611a78576040519150601f19603f3d011682016040523d82523d6000602084013e611a7d565b606091505b505090508061114f5760405162461bcd60e51b815260206004820152603a60248201527f416464726573733a20756e61626c6520746f2073656e642076616c75652c20726044820152791958da5c1a595b9d081b585e481a185d99481c995d995c9d195960321b6064820152608401610929565b600280546001600160a01b038381166001600160a01b0319831681179093556040519116919082907f8be0079c531659141344cd1fd0a4f28419497f9722a3daafe3b4186f6b6457e090600090a35050565b60008054610100900460ff1615611b91578160ff166001148015611b6d5750611b6b306119cc565b155b611b895760405162461bcd60e51b815260040161092990612628565b506000919050565b60005460ff808416911610611bb85760405162461bcd60e51b815260040161092990612628565b506000805460ff191660ff92909216919091179055600190565b919050565b600054610100900460ff16611bfe5760405162461bcd60e51b815260040161092990612676565b610e1c611d48565b600054610100900460ff16611c2d5760405162461bcd60e51b815260040161092990612676565b610ddf8282611d7f565b600054610100900460ff16611c5e5760405162461bcd60e51b815260040161092990612676565b610b4884848484611de4565b600054610100900460ff16611c915760405162461bcd60e51b815260040161092990612676565b610d5181611e65565b611ca5838383611ea1565b61114f838383611ef3565b600854600090600160401b90046001600160401b0316421015611cd5575060006108f3565b600854600160801b90046001600160401b031615801590611d075750600854600160801b90046001600160401b031642115b15611d2f57600854611d2890600160801b90046001600160401b0316610fa8565b90506108f3565b611d2842610fa8565b6000600954846119c49190612545565b600054610100900460ff16611d6f5760405162461bcd60e51b815260040161092990612676565b610e1c6326bcdb3160e01b611fc6565b600054610100900460ff16611da65760405162461bcd60e51b815260040161092990612676565b600480546001600160401b038316600160a01b026001600160e01b03199091166001600160a01b03851617179055610ddf631ba050e960e21b611fc6565b600054610100900460ff16611e0b5760405162461bcd60e51b815260040161092990612676565b6007849055600880546001600160401b03838116600160801b02600160801b600160c01b0319868316600160401b026001600160801b0319909416928816929092179290921716179055610b48634d0b5a4960e01b611fc6565b600054610100900460ff16611e8c5760405162461bcd60e51b815260040161092990612676565b6009819055610d51632d5305cb60e21b611fc6565b600a54426001600160401b039091161061114f5760405162461bcd60e51b815260206004820152601360248201527214d5149150534bd0d310525357d313d0d2d151606a1b6044820152606401610929565b60085442600160401b9091046001600160401b031610611f4a5760405162461bcd60e51b815260206004820152601260248201527114d5149150534bd393d517d4d5105495115160721b6044820152606401610929565b600854611f60906001600160401b031642612611565b60008481526005602090815260408083206001600160a01b03871684529091529020600101541061114f5760405162461bcd60e51b815260206004820152601060248201526f53545245414d2f544f4f5f4541524c5960801b6044820152606401610929565b6001600160e01b0319808216141561201f5760405162461bcd60e51b815260206004820152601c60248201527b115490cc4d8d4e881a5b9d985b1a59081a5b9d195c999858d9481a5960221b6044820152606401610929565b6001600160e01b0319166000908152600160208190526040909120805460ff19169091179055565b60008083601f84011261205957600080fd5b5081356001600160401b0381111561207057600080fd5b6020830191508360208260051b850101111561208b57600080fd5b9250929050565b6001600160a01b0381168114610d5157600080fd5b8035611bd281612092565b6000806000604084860312156120c757600080fd5b83356001600160401b038111156120dd57600080fd5b6120e986828701612047565b90945092505060208401356120fd81612092565b809150509250925092565b6000806020838503121561211b57600080fd5b82356001600160401b0381111561213157600080fd5b61213d85828601612047565b90969095509350505050565b60006020828403121561215b57600080fd5b81356001600160e01b0319811681146108f357600080fd5b600060208083528351808285015260005b818110156121a057858101830151858201604001528201612184565b818111156121b2576000604083870101525b50601f01601f1916929092016040019392505050565b80356001600160401b0381168114611bd257600080fd5b6000602082840312156121f157600080fd5b6108f3826121c8565b60006020828403121561220c57600080fd5b5035919050565b6000806040838503121561222657600080fd5b82359150602083013561223881612092565b809150509250929050565b60006020828403121561225557600080fd5b81356108f381612092565b6001600160a01b0391909116815260200190565b60008082840361010081121561228957600080fd5b60e081121561229757600080fd5b5060405160e081016001600160401b03811182821017156122c857634e487b7160e01b600052604160045260246000fd5b6040526122d4846120a7565b81526122e2602085016121c8565b60208201526040840135604082015260608401356060820152612307608085016121c8565b608082015261231860a085016121c8565b60a082015261232960c085016121c8565b60c0820152915061233c60e084016120a7565b90509250929050565b6000806000806060858703121561235b57600080fd5b84356001600160401b0381111561237157600080fd5b61237d87828801612047565b909550935050602085013561239181612092565b915060408501356123a181612092565b939692955090935050565b634e487b7160e01b600052603260045260246000fd5b634e487b7160e01b600052601160045260246000fd5b600082198211156123eb576123eb6123c2565b500190565b6000600019821415612404576124046123c2565b5060010190565b6020808252818101527f4f776e61626c653a2063616c6c6572206973206e6f7420746865206f776e6572604082015260600190565b60006020828403121561245257600080fd5b5051919050565b6001600160a01b03929092168252602082015260400190565b60006020828403121561248457600080fd5b815180151581146108f357600080fd5b60208082526014908201527314d5149150534bd0d3d3919251d7d313d0d2d15160621b604082015260600190565b60006001600160401b03838116908316818110156124e2576124e26123c2565b039392505050565b634e487b7160e01b600052601260045260246000fd5b60006001600160401b038381168061251a5761251a6124ea565b92169190910492915050565b6000816000190483118215151615612540576125406123c2565b500290565b600082612554576125546124ea565b500490565b6020808252601f908201527f5265656e7472616e637947756172643a207265656e7472616e742063616c6c00604082015260600190565b6000602082840312156125a257600080fd5b81516108f381612092565b6001600160a01b038781168252868116602083015260a06040830181905282018590526000906001600160fb1b038611156125e757600080fd5b8560051b808860c0860137600090840160c001908152941660608301525060800152949350505050565b600082821015612623576126236123c2565b500390565b6020808252602e908201527f496e697469616c697a61626c653a20636f6e747261637420697320616c72656160408201526d191e481a5b9a5d1a585b1a5e995960921b606082015260800190565b6020808252602b908201527f496e697469616c697a61626c653a20636f6e7472616374206973206e6f74206960408201526a6e697469616c697a696e6760a81b60608201526080019056fea26469706673582212200af8b6b6ecc0452296a8b6d31717205168cfa2c58f2fca82f0fce45a8f60d78264736f6c63430008090033",
  "devdoc": {
    "kind": "dev",
    "methods": {
      "owner()": {
        "details": "Returns the address of the current owner."
      },
      "renounceOwnership()": {
        "details": "Leaves the contract without owner. It will not be possible to call `onlyOwner` functions anymore. Can only be called by the current owner. NOTE: Renouncing ownership will leave the contract without an owner, thereby removing any functionality that is only available to the owner."
      },
      "supportsInterface(bytes4)": {
        "details": "See {IERC165-supportsInterface}."
      },
      "transferOwnership(address)": {
        "details": "Transfers ownership of the contract to a new account (`newOwner`). Can only be called by the current owner."
      }
    },
    "version": 1
  },
  "userdoc": {
    "kind": "user",
    "methods": {},
    "version": 1
  },
  "storageLayout": {
    "storage": [
      {
        "astId": 886,
        "contract": "contracts/streams/ERC721/presets/ERC721EqualEmissionStream.sol:ERC721EqualEmissionStream",
        "label": "_initialized",
        "offset": 0,
        "slot": "0",
        "type": "t_uint8"
      },
      {
        "astId": 889,
        "contract": "contracts/streams/ERC721/presets/ERC721EqualEmissionStream.sol:ERC721EqualEmissionStream",
        "label": "_initializing",
        "offset": 1,
        "slot": "0",
        "type": "t_bool"
      },
      {
        "astId": 4693,
        "contract": "contracts/streams/ERC721/presets/ERC721EqualEmissionStream.sol:ERC721EqualEmissionStream",
        "label": "_supportedInterfaces",
        "offset": 0,
        "slot": "1",
        "type": "t_mapping(t_bytes4,t_bool)"
      },
      {
        "astId": 782,
        "contract": "contracts/streams/ERC721/presets/ERC721EqualEmissionStream.sol:ERC721EqualEmissionStream",
        "label": "_owner",
        "offset": 0,
        "slot": "2",
        "type": "t_address"
      },
      {
        "astId": 12716,
        "contract": "contracts/streams/ERC721/presets/ERC721EqualEmissionStream.sol:ERC721EqualEmissionStream",
        "label": "emergencyPowerRevoked",
        "offset": 20,
        "slot": "2",
        "type": "t_bool"
      },
      {
        "astId": 1124,
        "contract": "contracts/streams/ERC721/presets/ERC721EqualEmissionStream.sol:ERC721EqualEmissionStream",
        "label": "_status",
        "offset": 0,
        "slot": "3",
        "type": "t_uint256"
      },
      {
        "astId": 13891,
        "contract": "contracts/streams/ERC721/presets/ERC721EqualEmissionStream.sol:ERC721EqualEmissionStream",
        "label": "ticketToken",
        "offset": 0,
        "slot": "4",
        "type": "t_address"
      },
      {
        "astId": 13893,
        "contract": "contracts/streams/ERC721/presets/ERC721EqualEmissionStream.sol:ERC721EqualEmissionStream",
        "label": "lockedUntilTimestamp",
        "offset": 20,
        "slot": "4",
        "type": "t_uint64"
      },
      {
        "astId": 13900,
        "contract": "contracts/streams/ERC721/presets/ERC721EqualEmissionStream.sol:ERC721EqualEmissionStream",
        "label": "entitlements",
        "offset": 0,
        "slot": "5",
        "type": "t_mapping(t_uint256,t_mapping(t_address,t_struct(Entitlement)13889_storage))"
      },
      {
        "astId": 13904,
        "contract": "contracts/streams/ERC721/presets/ERC721EqualEmissionStream.sol:ERC721EqualEmissionStream",
        "label": "_streamTotalClaimed",
        "offset": 0,
        "slot": "6",
        "type": "t_mapping(t_address,t_uint256)"
      },
      {
        "astId": 14646,
        "contract": "contracts/streams/ERC721/presets/ERC721EqualEmissionStream.sol:ERC721EqualEmissionStream",
        "label": "emissionRate",
        "offset": 0,
        "slot": "7",
        "type": "t_uint256"
      },
      {
        "astId": 14648,
        "contract": "contracts/streams/ERC721/presets/ERC721EqualEmissionStream.sol:ERC721EqualEmissionStream",
        "label": "emissionTimeUnit",
        "offset": 0,
        "slot": "8",
        "type": "t_uint64"
      },
      {
        "astId": 14650,
        "contract": "contracts/streams/ERC721/presets/ERC721EqualEmissionStream.sol:ERC721EqualEmissionStream",
        "label": "emissionStart",
        "offset": 8,
        "slot": "8",
        "type": "t_uint64"
      },
      {
        "astId": 14652,
        "contract": "contracts/streams/ERC721/presets/ERC721EqualEmissionStream.sol:ERC721EqualEmissionStream",
        "label": "emissionEnd",
        "offset": 16,
        "slot": "8",
        "type": "t_uint64"
      },
      {
        "astId": 14955,
        "contract": "contracts/streams/ERC721/presets/ERC721EqualEmissionStream.sol:ERC721EqualEmissionStream",
        "label": "totalTickets",
        "offset": 0,
        "slot": "9",
        "type": "t_uint256"
      },
      {
        "astId": 15147,
        "contract": "contracts/streams/ERC721/presets/ERC721EqualEmissionStream.sol:ERC721EqualEmissionStream",
        "label": "claimLockedUntil",
        "offset": 0,
        "slot": "10",
        "type": "t_uint64"
      }
    ],
    "types": {
      "t_address": {
        "encoding": "inplace",
        "label": "address",
        "numberOfBytes": "20"
      },
      "t_bool": {
        "encoding": "inplace",
        "label": "bool",
        "numberOfBytes": "1"
      },
      "t_bytes4": {
        "encoding": "inplace",
        "label": "bytes4",
        "numberOfBytes": "4"
      },
      "t_mapping(t_address,t_struct(Entitlement)13889_storage)": {
        "encoding": "mapping",
        "key": "t_address",
        "label": "mapping(address => struct ERC721MultiTokenStream.Entitlement)",
        "numberOfBytes": "32",
        "value": "t_struct(Entitlement)13889_storage"
      },
      "t_mapping(t_address,t_uint256)": {
        "encoding": "mapping",
        "key": "t_address",
        "label": "mapping(address => uint256)",
        "numberOfBytes": "32",
        "value": "t_uint256"
      },
      "t_mapping(t_bytes4,t_bool)": {
        "encoding": "mapping",
        "key": "t_bytes4",
        "label": "mapping(bytes4 => bool)",
        "numberOfBytes": "32",
        "value": "t_bool"
      },
      "t_mapping(t_uint256,t_mapping(t_address,t_struct(Entitlement)13889_storage))": {
        "encoding": "mapping",
        "key": "t_uint256",
        "label": "mapping(uint256 => mapping(address => struct ERC721MultiTokenStream.Entitlement))",
        "numberOfBytes": "32",
        "value": "t_mapping(t_address,t_struct(Entitlement)13889_storage)"
      },
      "t_struct(Entitlement)13889_storage": {
        "encoding": "inplace",
        "label": "struct ERC721MultiTokenStream.Entitlement",
        "members": [
          {
            "astId": 13886,
            "contract": "contracts/streams/ERC721/presets/ERC721EqualEmissionStream.sol:ERC721EqualEmissionStream",
            "label": "totalClaimed",
            "offset": 0,
            "slot": "0",
            "type": "t_uint256"
          },
          {
            "astId": 13888,
            "contract": "contracts/streams/ERC721/presets/ERC721EqualEmissionStream.sol:ERC721EqualEmissionStream",
            "label": "lastClaimedAt",
            "offset": 0,
            "slot": "1",
            "type": "t_uint256"
          }
        ],
        "numberOfBytes": "64"
      },
      "t_uint256": {
        "encoding": "inplace",
        "label": "uint256",
        "numberOfBytes": "32"
      },
      "t_uint64": {
        "encoding": "inplace",
        "label": "uint64",
        "numberOfBytes": "8"
      },
      "t_uint8": {
        "encoding": "inplace",
        "label": "uint8",
        "numberOfBytes": "1"
      }
    }
  }
}