{
  "address": "0x4FA397DFF5529909713bC7a45fd4fC598F30c599",
  "abi": [
    {
      "inputs": [
        {
          "components": [
            {
              "internalType": "address",
              "name": "ticketToken",
              "type": "address"
            },
            {
              "internalType": "uint64",
              "name": "lockedUntilTimestamp",
              "type": "uint64"
            },
            {
              "internalType": "uint64",
              "name": "minStakingDuration",
              "type": "uint64"
            },
            {
              "internalType": "uint64",
              "name": "maxStakingTotalDurations",
              "type": "uint64"
            },
            {
              "internalType": "uint256",
              "name": "emissionRate",
              "type": "uint256"
            },
            {
              "internalType": "uint64",
              "name": "emissionTimeUnit",
              "type": "uint64"
            },
            {
              "internalType": "uint64",
              "name": "emissionStart",
              "type": "uint64"
            },
            {
              "internalType": "uint64",
              "name": "emissionEnd",
              "type": "uint64"
            },
            {
              "internalType": "uint256",
              "name": "totalTickets",
              "type": "uint256"
            },
            {
              "internalType": "uint64",
              "name": "claimLockedUntil",
              "type": "uint64"
            }
          ],
          "internalType": "struct ERC721LockedStakingEmissionStream.Config",
          "name": "config",
          "type": "tuple"
        }
      ],
      "stateMutability": "nonpayable",
      "type": "constructor"
    },
    {
      "anonymous": false,
      "inputs": [
        {
          "indexed": false,
          "internalType": "address",
          "name": "operator",
          "type": "address"
        },
        {
          "indexed": false,
          "internalType": "address",
          "name": "beneficiary",
          "type": "address"
        },
        {
          "indexed": false,
          "internalType": "uint256",
          "name": "ticketTokenId",
          "type": "uint256"
        },
        {
          "indexed": false,
          "internalType": "address",
          "name": "claimToken",
          "type": "address"
        },
        {
          "indexed": false,
          "internalType": "uint256",
          "name": "releasedAmount",
          "type": "uint256"
        }
      ],
      "name": "Claim",
      "type": "event"
    },
    {
      "anonymous": false,
      "inputs": [
        {
          "indexed": false,
          "internalType": "address",
          "name": "operator",
          "type": "address"
        },
        {
          "indexed": false,
          "internalType": "address",
          "name": "beneficiary",
          "type": "address"
        },
        {
          "indexed": false,
          "internalType": "uint256[]",
          "name": "ticketTokenIds",
          "type": "uint256[]"
        },
        {
          "indexed": false,
          "internalType": "address",
          "name": "claimToken",
          "type": "address"
        },
        {
          "indexed": false,
          "internalType": "uint256",
          "name": "releasedAmount",
          "type": "uint256"
        }
      ],
      "name": "ClaimMany",
      "type": "event"
    },
    {
      "anonymous": false,
      "inputs": [],
      "name": "EmergencyPowerRevoked",
      "type": "event"
    },
    {
      "anonymous": false,
      "inputs": [
        {
          "indexed": false,
          "internalType": "address[]",
          "name": "claimTokens",
          "type": "address[]"
        }
      ],
      "name": "EmergencyWithdrawn",
      "type": "event"
    },
    {
      "anonymous": false,
      "inputs": [
        {
          "indexed": false,
          "internalType": "uint8",
          "name": "version",
          "type": "uint8"
        }
      ],
      "name": "Initialized",
      "type": "event"
    },
    {
      "anonymous": false,
      "inputs": [
        {
          "indexed": true,
          "internalType": "address",
          "name": "previousOwner",
          "type": "address"
        },
        {
          "indexed": true,
          "internalType": "address",
          "name": "newOwner",
          "type": "address"
        }
      ],
      "name": "OwnershipTransferred",
      "type": "event"
    },
    {
      "inputs": [
        {
          "internalType": "uint256",
          "name": "ticketTokenId",
          "type": "uint256"
        }
      ],
      "name": "claim",
      "outputs": [],
      "stateMutability": "nonpayable",
      "type": "function"
    },
    {
      "inputs": [
        {
          "internalType": "uint256[]",
          "name": "ticketTokenIds",
          "type": "uint256[]"
        }
      ],
      "name": "claim",
      "outputs": [],
      "stateMutability": "nonpayable",
      "type": "function"
    },
    {
      "inputs": [
        {
          "internalType": "uint256",
          "name": "ticketTokenId",
          "type": "uint256"
        },
        {
          "internalType": "address",
          "name": "claimToken",
          "type": "address"
        }
      ],
      "name": "claim",
      "outputs": [],
      "stateMutability": "nonpayable",
      "type": "function"
    },
    {
      "inputs": [
        {
          "internalType": "uint256[]",
          "name": "ticketTokenIds",
          "type": "uint256[]"
        },
        {
          "internalType": "address",
          "name": "claimToken",
          "type": "address"
        },
        {
          "internalType": "address",
          "name": "owner",
          "type": "address"
        }
      ],
      "name": "claim",
      "outputs": [],
      "stateMutability": "nonpayable",
      "type": "function"
    },
    {
      "inputs": [],
      "name": "claimLockedUntil",
      "outputs": [
        {
          "internalType": "uint64",
          "name": "",
          "type": "uint64"
        }
      ],
      "stateMutability": "view",
      "type": "function"
    },
    {
      "inputs": [],
      "name": "emergencyPowerRevoked",
      "outputs": [
        {
          "internalType": "bool",
          "name": "",
          "type": "bool"
        }
      ],
      "stateMutability": "view",
      "type": "function"
    },
    {
      "inputs": [
        {
          "internalType": "address[]",
          "name": "claimTokens",
          "type": "address[]"
        }
      ],
      "name": "emergencyWithdraw",
      "outputs": [],
      "stateMutability": "nonpayable",
      "type": "function"
    },
    {
      "inputs": [
        {
          "internalType": "uint64",
          "name": "calcUntil",
          "type": "uint64"
        }
      ],
      "name": "emissionAmountUntil",
      "outputs": [
        {
          "internalType": "uint256",
          "name": "",
          "type": "uint256"
        }
      ],
      "stateMutability": "view",
      "type": "function"
    },
    {
      "inputs": [],
      "name": "emissionEnd",
      "outputs": [
        {
          "internalType": "uint64",
          "name": "",
          "type": "uint64"
        }
      ],
      "stateMutability": "view",
      "type": "function"
    },
    {
      "inputs": [],
      "name": "emissionRate",
      "outputs": [
        {
          "internalType": "uint256",
          "name": "",
          "type": "uint256"
        }
      ],
      "stateMutability": "view",
      "type": "function"
    },
    {
      "inputs": [],
      "name": "emissionStart",
      "outputs": [
        {
          "internalType": "uint64",
          "name": "",
          "type": "uint64"
        }
      ],
      "stateMutability": "view",
      "type": "function"
    },
    {
      "inputs": [],
      "name": "emissionTimeUnit",
      "outputs": [
        {
          "internalType": "uint64",
          "name": "",
          "type": "uint64"
        }
      ],
      "stateMutability": "view",
      "type": "function"
    },
    {
      "inputs": [
        {
          "internalType": "uint256",
          "name": "",
          "type": "uint256"
        },
        {
          "internalType": "address",
          "name": "",
          "type": "address"
        }
      ],
      "name": "entitlements",
      "outputs": [
        {
          "internalType": "uint256",
          "name": "totalClaimed",
          "type": "uint256"
        },
        {
          "internalType": "uint256",
          "name": "lastClaimedAt",
          "type": "uint256"
        }
      ],
      "stateMutability": "view",
      "type": "function"
    },
    {
      "inputs": [],
      "name": "hasERC721EmissionReleaseExtension",
      "outputs": [
        {
          "internalType": "bool",
          "name": "",
          "type": "bool"
        }
      ],
      "stateMutability": "pure",
      "type": "function"
    },
    {
      "inputs": [],
      "name": "hasERC721EqualSplitExtension",
      "outputs": [
        {
          "internalType": "bool",
          "name": "",
          "type": "bool"
        }
      ],
      "stateMutability": "pure",
      "type": "function"
    },
    {
      "inputs": [],
      "name": "hasERC721LockableClaimExtension",
      "outputs": [
        {
          "internalType": "bool",
          "name": "",
          "type": "bool"
        }
      ],
      "stateMutability": "pure",
      "type": "function"
    },
    {
      "inputs": [],
      "name": "hasERC721LockedStakingExtension",
      "outputs": [
        {
          "internalType": "bool",
          "name": "",
          "type": "bool"
        }
      ],
      "stateMutability": "pure",
      "type": "function"
    },
    {
      "inputs": [],
      "name": "hasERC721StakingExtension",
      "outputs": [
        {
          "internalType": "bool",
          "name": "",
          "type": "bool"
        }
      ],
      "stateMutability": "pure",
      "type": "function"
    },
    {
      "inputs": [
        {
          "components": [
            {
              "internalType": "address",
              "name": "ticketToken",
              "type": "address"
            },
            {
              "internalType": "uint64",
              "name": "lockedUntilTimestamp",
              "type": "uint64"
            },
            {
              "internalType": "uint64",
              "name": "minStakingDuration",
              "type": "uint64"
            },
            {
              "internalType": "uint64",
              "name": "maxStakingTotalDurations",
              "type": "uint64"
            },
            {
              "internalType": "uint256",
              "name": "emissionRate",
              "type": "uint256"
            },
            {
              "internalType": "uint64",
              "name": "emissionTimeUnit",
              "type": "uint64"
            },
            {
              "internalType": "uint64",
              "name": "emissionStart",
              "type": "uint64"
            },
            {
              "internalType": "uint64",
              "name": "emissionEnd",
              "type": "uint64"
            },
            {
              "internalType": "uint256",
              "name": "totalTickets",
              "type": "uint256"
            },
            {
              "internalType": "uint64",
              "name": "claimLockedUntil",
              "type": "uint64"
            }
          ],
          "internalType": "struct ERC721LockedStakingEmissionStream.Config",
          "name": "config",
          "type": "tuple"
        },
        {
          "internalType": "address",
          "name": "deployer",
          "type": "address"
        }
      ],
      "name": "initialize",
      "outputs": [],
      "stateMutability": "nonpayable",
      "type": "function"
    },
    {
      "inputs": [
        {
          "internalType": "uint256",
          "name": "",
          "type": "uint256"
        }
      ],
      "name": "lastStakingTime",
      "outputs": [
        {
          "internalType": "uint64",
          "name": "",
          "type": "uint64"
        }
      ],
      "stateMutability": "view",
      "type": "function"
    },
    {
      "inputs": [
        {
          "internalType": "uint64",
          "name": "newValue",
          "type": "uint64"
        }
      ],
      "name": "lockUntil",
      "outputs": [],
      "stateMutability": "nonpayable",
      "type": "function"
    },
    {
      "inputs": [],
      "name": "lockedUntilTimestamp",
      "outputs": [
        {
          "internalType": "uint64",
          "name": "",
          "type": "uint64"
        }
      ],
      "stateMutability": "view",
      "type": "function"
    },
    {
      "inputs": [],
      "name": "maxStakingTotalDurations",
      "outputs": [
        {
          "internalType": "uint64",
          "name": "",
          "type": "uint64"
        }
      ],
      "stateMutability": "view",
      "type": "function"
    },
    {
      "inputs": [],
      "name": "minStakingDuration",
      "outputs": [
        {
          "internalType": "uint64",
          "name": "",
          "type": "uint64"
        }
      ],
      "stateMutability": "view",
      "type": "function"
    },
    {
      "inputs": [],
      "name": "name",
      "outputs": [
        {
          "internalType": "string",
          "name": "",
          "type": "string"
        }
      ],
      "stateMutability": "view",
      "type": "function"
    },
    {
      "inputs": [],
      "name": "owner",
      "outputs": [
        {
          "internalType": "address",
          "name": "",
          "type": "address"
        }
      ],
      "stateMutability": "view",
      "type": "function"
    },
    {
      "inputs": [
        {
          "internalType": "uint64",
          "name": "calcUntil",
          "type": "uint64"
        }
      ],
      "name": "releasedAmountUntil",
      "outputs": [
        {
          "internalType": "uint256",
          "name": "",
          "type": "uint256"
        }
      ],
      "stateMutability": "view",
      "type": "function"
    },
    {
      "inputs": [],
      "name": "renounceOwnership",
      "outputs": [],
      "stateMutability": "nonpayable",
      "type": "function"
    },
    {
      "inputs": [],
      "name": "revokeEmergencyPower",
      "outputs": [],
      "stateMutability": "nonpayable",
      "type": "function"
    },
    {
      "inputs": [
        {
          "internalType": "uint256[]",
          "name": "ticketTokenIds",
          "type": "uint256[]"
        }
      ],
      "name": "rewardAmountByToken",
      "outputs": [
        {
          "internalType": "uint256",
          "name": "total",
          "type": "uint256"
        }
      ],
      "stateMutability": "view",
      "type": "function"
    },
    {
      "inputs": [
        {
          "internalType": "uint256",
          "name": "ticketTokenId",
          "type": "uint256"
        }
      ],
      "name": "rewardAmountByToken",
      "outputs": [
        {
          "internalType": "uint256",
          "name": "",
          "type": "uint256"
        }
      ],
      "stateMutability": "view",
      "type": "function"
    },
    {
      "inputs": [
        {
          "internalType": "uint256",
          "name": "",
          "type": "uint256"
        }
      ],
      "name": "savedStakedDurations",
      "outputs": [
        {
          "internalType": "uint64",
          "name": "",
          "type": "uint64"
        }
      ],
      "stateMutability": "view",
      "type": "function"
    },
    {
      "inputs": [
        {
          "internalType": "uint64",
          "name": "newValue",
          "type": "uint64"
        }
      ],
      "name": "setClaimLockedUntil",
      "outputs": [],
      "stateMutability": "nonpayable",
      "type": "function"
    },
    {
      "inputs": [
        {
          "internalType": "uint64",
          "name": "newValue",
          "type": "uint64"
        }
      ],
      "name": "setEmissionEnd",
      "outputs": [],
      "stateMutability": "nonpayable",
      "type": "function"
    },
    {
      "inputs": [
        {
          "internalType": "uint256",
          "name": "newValue",
          "type": "uint256"
        }
      ],
      "name": "setEmissionRate",
      "outputs": [],
      "stateMutability": "nonpayable",
      "type": "function"
    },
    {
      "inputs": [
        {
          "internalType": "uint64",
          "name": "newValue",
          "type": "uint64"
        }
      ],
      "name": "setEmissionStart",
      "outputs": [],
      "stateMutability": "nonpayable",
      "type": "function"
    },
    {
      "inputs": [
        {
          "internalType": "uint64",
          "name": "newValue",
          "type": "uint64"
        }
      ],
      "name": "setEmissionTimeUnit",
      "outputs": [],
      "stateMutability": "nonpayable",
      "type": "function"
    },
    {
      "inputs": [
        {
          "internalType": "uint64",
          "name": "newValue",
          "type": "uint64"
        }
      ],
      "name": "setMaxStakingTotalDurations",
      "outputs": [],
      "stateMutability": "nonpayable",
      "type": "function"
    },
    {
      "inputs": [
        {
          "internalType": "uint64",
          "name": "newValue",
          "type": "uint64"
        }
      ],
      "name": "setMinStakingDuration",
      "outputs": [],
      "stateMutability": "nonpayable",
      "type": "function"
    },
    {
      "inputs": [
        {
          "internalType": "uint256",
          "name": "newValue",
          "type": "uint256"
        }
      ],
      "name": "setTotalTickets",
      "outputs": [],
      "stateMutability": "nonpayable",
      "type": "function"
    },
    {
      "inputs": [
        {
          "internalType": "uint256[]",
          "name": "tokenIds",
          "type": "uint256[]"
        }
      ],
      "name": "stake",
      "outputs": [],
      "stateMutability": "nonpayable",
      "type": "function"
    },
    {
      "inputs": [
        {
          "internalType": "uint256",
          "name": "tokenId",
          "type": "uint256"
        }
      ],
      "name": "stake",
      "outputs": [],
      "stateMutability": "nonpayable",
      "type": "function"
    },
    {
      "inputs": [
        {
          "internalType": "uint256[]",
          "name": "ticketTokenIds",
          "type": "uint256[]"
        },
        {
          "internalType": "address",
          "name": "claimToken",
          "type": "address"
        }
      ],
      "name": "streamClaimableAmount",
      "outputs": [
        {
          "internalType": "uint256",
          "name": "",
          "type": "uint256"
        }
      ],
      "stateMutability": "view",
      "type": "function"
    },
    {
      "inputs": [
        {
          "internalType": "uint256",
          "name": "ticketTokenId",
          "type": "uint256"
        }
      ],
      "name": "streamClaimableAmount",
      "outputs": [
        {
          "internalType": "uint256",
          "name": "",
          "type": "uint256"
        }
      ],
      "stateMutability": "view",
      "type": "function"
    },
    {
      "inputs": [
        {
          "internalType": "uint256",
          "name": "ticketTokenId",
          "type": "uint256"
        },
        {
          "internalType": "address",
          "name": "claimToken",
          "type": "address"
        }
      ],
      "name": "streamClaimableAmount",
      "outputs": [
        {
          "internalType": "uint256",
          "name": "",
          "type": "uint256"
        }
      ],
      "stateMutability": "view",
      "type": "function"
    },
    {
      "inputs": [
        {
          "internalType": "uint256[]",
          "name": "ticketTokenIds",
          "type": "uint256[]"
        },
        {
          "internalType": "address",
          "name": "claimToken",
          "type": "address"
        }
      ],
      "name": "streamTotalClaimed",
      "outputs": [
        {
          "internalType": "uint256",
          "name": "",
          "type": "uint256"
        }
      ],
      "stateMutability": "view",
      "type": "function"
    },
    {
      "inputs": [],
      "name": "streamTotalClaimed",
      "outputs": [
        {
          "internalType": "uint256",
          "name": "",
          "type": "uint256"
        }
      ],
      "stateMutability": "view",
      "type": "function"
    },
    {
      "inputs": [
        {
          "internalType": "uint256[]",
          "name": "ticketTokenIds",
          "type": "uint256[]"
        }
      ],
      "name": "streamTotalClaimed",
      "outputs": [
        {
          "internalType": "uint256",
          "name": "",
          "type": "uint256"
        }
      ],
      "stateMutability": "view",
      "type": "function"
    },
    {
      "inputs": [
        {
          "internalType": "uint256",
          "name": "ticketTokenId",
          "type": "uint256"
        },
        {
          "internalType": "address",
          "name": "claimToken",
          "type": "address"
        }
      ],
      "name": "streamTotalClaimed",
      "outputs": [
        {
          "internalType": "uint256",
          "name": "",
          "type": "uint256"
        }
      ],
      "stateMutability": "view",
      "type": "function"
    },
    {
      "inputs": [
        {
          "internalType": "address",
          "name": "claimToken",
          "type": "address"
        }
      ],
      "name": "streamTotalClaimed",
      "outputs": [
        {
          "internalType": "uint256",
          "name": "",
          "type": "uint256"
        }
      ],
      "stateMutability": "view",
      "type": "function"
    },
    {
      "inputs": [
        {
          "internalType": "uint256",
          "name": "ticketTokenId",
          "type": "uint256"
        }
      ],
      "name": "streamTotalClaimed",
      "outputs": [
        {
          "internalType": "uint256",
          "name": "",
          "type": "uint256"
        }
      ],
      "stateMutability": "view",
      "type": "function"
    },
    {
      "inputs": [],
      "name": "streamTotalSupply",
      "outputs": [
        {
          "internalType": "uint256",
          "name": "",
          "type": "uint256"
        }
      ],
      "stateMutability": "view",
      "type": "function"
    },
    {
      "inputs": [
        {
          "internalType": "address",
          "name": "claimToken",
          "type": "address"
        }
      ],
      "name": "streamTotalSupply",
      "outputs": [
        {
          "internalType": "uint256",
          "name": "",
          "type": "uint256"
        }
      ],
      "stateMutability": "view",
      "type": "function"
    },
    {
      "inputs": [
        {
          "internalType": "bytes4",
          "name": "interfaceId",
          "type": "bytes4"
        }
      ],
      "name": "supportsInterface",
      "outputs": [
        {
          "internalType": "bool",
          "name": "",
          "type": "bool"
        }
      ],
      "stateMutability": "view",
      "type": "function"
    },
    {
      "inputs": [],
      "name": "ticketToken",
      "outputs": [
        {
          "internalType": "address",
          "name": "",
          "type": "address"
        }
      ],
      "stateMutability": "view",
      "type": "function"
    },
    {
      "inputs": [
        {
          "internalType": "uint256",
          "name": "ticketTokenId",
          "type": "uint256"
        }
      ],
      "name": "totalStakedDuration",
      "outputs": [
        {
          "internalType": "uint64",
          "name": "",
          "type": "uint64"
        }
      ],
      "stateMutability": "view",
      "type": "function"
    },
    {
      "inputs": [
        {
          "internalType": "uint256[]",
          "name": "ticketTokenIds",
          "type": "uint256[]"
        }
      ],
      "name": "totalStakedDuration",
      "outputs": [
        {
          "internalType": "uint64",
          "name": "",
          "type": "uint64"
        }
      ],
      "stateMutability": "view",
      "type": "function"
    },
    {
      "inputs": [],
      "name": "totalTickets",
      "outputs": [
        {
          "internalType": "uint256",
          "name": "",
          "type": "uint256"
        }
      ],
      "stateMutability": "view",
      "type": "function"
    },
    {
      "inputs": [
        {
          "internalType": "address",
          "name": "newOwner",
          "type": "address"
        }
      ],
      "name": "transferOwnership",
      "outputs": [],
      "stateMutability": "nonpayable",
      "type": "function"
    },
    {
      "inputs": [
        {
          "internalType": "uint256[]",
          "name": "ticketTokenIds",
          "type": "uint256[]"
        }
      ],
      "name": "unlockingTime",
      "outputs": [
        {
          "internalType": "uint256[]",
          "name": "",
          "type": "uint256[]"
        }
      ],
      "stateMutability": "view",
      "type": "function"
    },
    {
      "inputs": [
        {
          "internalType": "uint256",
          "name": "ticketTokenId",
          "type": "uint256"
        }
      ],
      "name": "unlockingTime",
      "outputs": [
        {
          "internalType": "uint256",
          "name": "",
          "type": "uint256"
        }
      ],
      "stateMutability": "view",
      "type": "function"
    },
    {
      "inputs": [
        {
          "internalType": "uint256",
          "name": "tokenId",
          "type": "uint256"
        }
      ],
      "name": "unstake",
      "outputs": [],
      "stateMutability": "nonpayable",
      "type": "function"
    },
    {
      "inputs": [
        {
          "internalType": "uint256[]",
          "name": "tokenIds",
          "type": "uint256[]"
        }
      ],
      "name": "unstake",
      "outputs": [],
      "stateMutability": "nonpayable",
      "type": "function"
    },
    {
      "inputs": [],
      "name": "version",
      "outputs": [
        {
          "internalType": "string",
          "name": "",
          "type": "string"
        }
      ],
      "stateMutability": "view",
      "type": "function"
    },
    {
      "stateMutability": "payable",
      "type": "receive"
    }
  ],
  "transactionHash": "0x482bafc5ea2ae06d896886123d9ed4e5193891e0a62b1a9b909f2ef4b10a949a",
  "args": [
    {
      "ticketToken": "0x0000000000000000000000000000000000000000",
      "lockedUntilTimestamp": 0,
      "minStakingDuration": 0,
      "maxStakingTotalDurations": 0,
      "emissionRate": 0,
      "emissionTimeUnit": 0,
      "emissionStart": 0,
      "emissionEnd": 0,
      "totalTickets": 0,
      "claimLockedUntil": 0
    }
  ],
  "numDeployments": 2,
  "solcInputHash": "6776f3fa3702d11593abc2583d662c65",
  "bytecode": "0x60806040523480156200001157600080fd5b5060405162003f8e38038062003f8e833981016040819052620000349162000715565b6200003f3362000057565b6001600355620000508133620000a9565b506200087b565b600280546001600160a01b038381166001600160a01b0319831681179093556040519116919082907f8be0079c531659141344cd1fd0a4f28419497f9722a3daafe3b4186f6b6457e090600090a35050565b6000620000b76001620001a4565b90508015620000d0576000805461ff0019166101001790555b620000db8262000057565b620000e562000256565b82516020840151620000f891906200028c565b6200011283604001518460600151620002c660201b60201c565b6200013683608001518460a001518560c001518660e001516200030660201b60201c565b610100830151620001479062000344565b61012083015162000158906200037c565b80156200019f576000805461ff0019169055604051600181527f7f26b83ff96e1f2b6a682f133852f6798a09c465da95921460cefb38474024989060200160405180910390a15b505050565b60008054610100900460ff16156200020d578160ff166001148015620001dd5750620001db30620003b160201b620021f61760201c565b155b620002055760405162461bcd60e51b8152600401620001fc90620007e2565b60405180910390fd5b506000919050565b60005460ff808416911610620002375760405162461bcd60e51b8152600401620001fc90620007e2565b506000805460ff191660ff92909216919091179055600190565b919050565b600054610100900460ff16620002805760405162461bcd60e51b8152600401620001fc9062000830565b6200028a620003c0565b565b600054610100900460ff16620002b65760405162461bcd60e51b8152600401620001fc9062000830565b620002c28282620003fc565b5050565b600054610100900460ff16620002f05760405162461bcd60e51b8152600401620001fc9062000830565b620002fa62000466565b620002c28282620004a2565b600054610100900460ff16620003305760405162461bcd60e51b8152600401620001fc9062000830565b6200033e848484846200050b565b50505050565b600054610100900460ff166200036e5760405162461bcd60e51b8152600401620001fc9062000830565b620003798162000596565b50565b600054610100900460ff16620003a65760405162461bcd60e51b8152600401620001fc9062000830565b6200037981620005d7565b6001600160a01b03163b151590565b600054610100900460ff16620003ea5760405162461bcd60e51b8152600401620001fc9062000830565b6200028a6326bcdb3160e01b62000629565b600054610100900460ff16620004265760405162461bcd60e51b8152600401620001fc9062000830565b600480546001600160401b038316600160a01b026001600160e01b03199091166001600160a01b03851617179055620002c2631ba050e960e21b62000629565b600054610100900460ff16620004905760405162461bcd60e51b8152600401620001fc9062000830565b6200028a63d664280160e01b62000629565b600054610100900460ff16620004cc5760405162461bcd60e51b8152600401620001fc9062000830565b600a80546001600160401b0383811668010000000000000000026001600160801b031990921690851617179055620002c2633a41ba5360e11b62000629565b600054610100900460ff16620005355760405162461bcd60e51b8152600401620001fc9062000830565b6007849055600880546001600160401b03838116600160801b02600160801b600160c01b031986831668010000000000000000026001600160801b03199094169288169290921792909217161790556200033e634d0b5a4960e01b62000629565b600054610100900460ff16620005c05760405162461bcd60e51b8152600401620001fc9062000830565b600981905562000379632d5305cb60e21b62000629565b600054610100900460ff16620006015760405162461bcd60e51b8152600401620001fc9062000830565b600d80546001600160401b0319166001600160401b038316179055620003796317b2ef4360e31b5b6001600160e01b03198082161415620006855760405162461bcd60e51b815260206004820152601c60248201527f4552433136353a20696e76616c696420696e74657266616365206964000000006044820152606401620001fc565b6001600160e01b0319166000908152600160208190526040909120805460ff19169091179055565b60405161014081016001600160401b0381118282101715620006df57634e487b7160e01b600052604160045260246000fd5b60405290565b80516001600160a01b03811681146200025157600080fd5b80516001600160401b03811681146200025157600080fd5b600061014082840312156200072957600080fd5b62000733620006ad565b6200073e83620006e5565b81526200074e60208401620006fd565b60208201526200076160408401620006fd565b60408201526200077460608401620006fd565b6060820152608083015160808201526200079160a08401620006fd565b60a0820152620007a460c08401620006fd565b60c0820152620007b760e08401620006fd565b60e08201526101008381015190820152610120620007d7818501620006fd565b908201529392505050565b6020808252602e908201527f496e697469616c697a61626c653a20636f6e747261637420697320616c72656160408201526d191e481a5b9a5d1a585b1a5e995960921b606082015260800190565b6020808252602b908201527f496e697469616c697a61626c653a20636f6e7472616374206973206e6f74206960408201526a6e697469616c697a696e6760a81b606082015260800190565b613703806200088b6000396000f3fe6080604052600436106102d75760003560e01c80630191c0af146102f057806301c1dfba1461032357806301ffc9a71461034357806306fdde031461037357806308289dbe1461039557806308ae7e54146103e35780630c805a44146104035780630fbf0a931461043957806314427a96146104595780631bc51b26146104795780631c725fdc1461048d57806325289bad146104ad578063277d048b146104d45780632890d033146104e95780632c0e1313146104fe5780632e17de781461051e57806333abcdbd1461053e578063379607f51461055e5780633a73f7d61461057e5780633b3f12e21461059e5780633d2dded5146105be5780634abb4c49146105fb5780634e63178314610628578063513da9481461064957806354fd4d501461067057806357dc48c81461069f57806361949636146106f35780636ba4c13814610713578063715018a61461073357806378b094ca14610748578063790c0c73146107685780638368909c1461078857806389c6b815146107af5780638da5cb5b146107cf5780639199690b14610479578063968d9b2c146107f157806396afc450146108115780639edfe83014610827578063a1bdb15e14610847578063a1cf649314610867578063a5549bc6146108aa578063a5b23be7146108ca578063a694fc3a146108ea578063a86b21e81461090a578063a8a67c8c1461092a578063aaf2f9991461094a578063ae890c0a1461096a578063c08818491461098a578063d0d6641d146109c0578063d1335b6914610479578063d4244f24146109e0578063d5ed4d5a14610a07578063d664280114610479578063d97314f514610a27578063dd11247e14610a47578063dda8820f14610479578063ddd5e1b214610a5d578063de76a67614610a7d578063e449f34114610a9d578063f2fde38b14610abd578063f389b6e414610add578063f4415ad614610afd578063f593dfc814610b35578063f66e38c214610b5557600080fd5b366102eb57600034116102e957600080fd5b005b600080fd5b3480156102fc57600080fd5b5061031061030b366004612f06565b610b75565b6040519081526020015b60405180910390f35b34801561032f57600080fd5b506102e961033e366004612f5c565b610bcb565b34801561034f57600080fd5b5061036361035e366004612f9d565b610e1f565b604051901515815260200161031a565b34801561037f57600080fd5b50610388610e5f565b60405161031a9190612fc7565b3480156103a157600080fd5b506103cb6103b036600461301c565b600c602052600090815260409020546001600160401b031681565b6040516001600160401b03909116815260200161031a565b3480156103ef57600080fd5b50600a546103cb906001600160401b031681565b34801561040f57600080fd5b506103cb61041e36600461301c565b600b602052600090815260409020546001600160401b031681565b34801561044557600080fd5b506102e9610454366004612f5c565b610e7b565b34801561046557600080fd5b50600d546103cb906001600160401b031681565b34801561048557600080fd5b506001610363565b34801561049957600080fd5b506102e96104a836600461304c565b610ec0565b3480156104b957600080fd5b506004546103cb90600160a01b90046001600160401b031681565b3480156104e057600080fd5b506102e9610f77565b3480156104f557600080fd5b50610310610fe4565b34801561050a57600080fd5b506102e961051936600461304c565b610ff5565b34801561052a57600080fd5b506102e961053936600461301c565b611078565b34801561054a57600080fd5b506103cb61055936600461301c565b6110e1565b34801561056a57600080fd5b506102e961057936600461301c565b6111d6565b34801561058a57600080fd5b50610310610599366004612f5c565b6111e4565b3480156105aa57600080fd5b506103106105b9366004612f06565b611236565b3480156105ca57600080fd5b506000805260066020527f54cdd369e4e8a8515e52ca72ec816c2101831ad1f18bf44102ed171459c9b4f854610310565b34801561060757600080fd5b5061061b610616366004612f5c565b6112b4565b60405161031a9190613067565b34801561063457600080fd5b5060025461036390600160a01b900460ff1681565b34801561065557600080fd5b506008546103cb90600160401b90046001600160401b031681565b34801561067c57600080fd5b5061038860405180604001604052806003815260200162302e3160e81b81525081565b3480156106ab57600080fd5b506106de6106ba3660046130ab565b60056020908152600092835260408084209091529082529020805460019091015482565b6040805192835260208301919091520161031a565b3480156106ff57600080fd5b506008546103cb906001600160401b031681565b34801561071f57600080fd5b506102e961072e366004612f5c565b61135f565b34801561073f57600080fd5b506102e961136c565b34801561075457600080fd5b506102e961076336600461304c565b6113a7565b34801561077457600080fd5b506103106107833660046130db565b611434565b34801561079457600080fd5b506008546103cb90600160801b90046001600160401b031681565b3480156107bb57600080fd5b506103106107ca366004612f5c565b611507565b3480156107db57600080fd5b506107e461151c565b60405161031a91906130f8565b3480156107fd57600080fd5b5061031061080c36600461301c565b61152b565b34801561081d57600080fd5b5061031060075481565b34801561083357600080fd5b5061031061084236600461304c565b611538565b34801561085357600080fd5b506102e961086236600461301c565b61157d565b34801561087357600080fd5b506103106108823660046130ab565b60009182526005602090815260408084206001600160a01b0393909316845291905290205490565b3480156108b657600080fd5b506102e96108c536600461304c565b6115e3565b3480156108d657600080fd5b506103106108e536600461301c565b611666565b3480156108f657600080fd5b506102e961090536600461301c565b61169e565b34801561091657600080fd5b5061031061092536600461304c565b6116de565b34801561093657600080fd5b506102e9610945366004613159565b61171a565b34801561095657600080fd5b506102e961096536600461304c565b6117f6565b34801561097657600080fd5b506102e961098536600461301c565b611883565b34801561099657600080fd5b506103106109a53660046130db565b6001600160a01b031660009081526006602052604090205490565b3480156109cc57600080fd5b506103106109db36600461301c565b6118e9565b3480156109ec57600080fd5b50600a546103cb90600160401b90046001600160401b031681565b348015610a1357600080fd5b506004546107e4906001600160a01b031681565b348015610a3357600080fd5b506102e9610a4236600461304c565b611943565b348015610a5357600080fd5b5061031060095481565b348015610a6957600080fd5b506102e9610a783660046130ab565b6119c6565b348015610a8957600080fd5b506103cb610a98366004612f5c565b611c58565b348015610aa957600080fd5b506102e9610ab8366004612f5c565b611ca4565b348015610ac957600080fd5b506102e9610ad83660046130db565b611d15565b348015610ae957600080fd5b506102e9610af836600461323a565b611db2565b348015610b0957600080fd5b50610310610b1836600461301c565b600090815260056020908152604080832083805290915290205490565b348015610b4157600080fd5b506102e9610b5036600461304c565b612112565b348015610b6157600080fd5b50610310610b703660046130ab565b61219f565b600080805b84811015610bc257610ba4868683818110610b9757610b976132a1565b905060200201358561219f565b610bae90836132cd565b915080610bba816132e5565b915050610b7a565b50949350505050565b33610bd461151c565b6001600160a01b031614610c035760405162461bcd60e51b8152600401610bfa90613300565b60405180910390fd5b600254600160a01b900460ff1615610c575760405162461bcd60e51b81526020600482015260176024820152761153515491d15390d657d413d5d15497d4915593d2d151604a1b6044820152606401610bfa565b6000610c6161151c565b905060005b82811015610e19576000848483818110610c8257610c826132a1565b9050602002016020810190610c9791906130db565b6001600160a01b03161415610cbe57610cb96001600160a01b03831647612205565b610e07565b838382818110610cd057610cd06132a1565b9050602002016020810190610ce591906130db565b6001600160a01b031663a9059cbb83868685818110610d0657610d066132a1565b9050602002016020810190610d1b91906130db565b6001600160a01b03166370a08231306040518263ffffffff1660e01b8152600401610d4691906130f8565b60206040518083038186803b158015610d5e57600080fd5b505afa158015610d72573d6000803e3d6000fd5b505050506040513d601f19601f82011682018060405250810190610d969190613335565b6040518363ffffffff1660e01b8152600401610db392919061334e565b602060405180830381600087803b158015610dcd57600080fd5b505af1158015610de1573d6000803e3d6000fd5b505050506040513d601f19601f82011682018060405250810190610e059190613367565b505b80610e11816132e5565b915050610c66565b50505050565b60006301ffc9a760e01b6001600160e01b031983161480610e5957506001600160e01b0319821660009081526001602052604090205460ff165b92915050565b6040518060600160405280602581526020016136a96025913981565b6008546001600160401b03600160401b9091048116429091161015610eb25760405162461bcd60e51b8152600401610bfa90613389565b610ebc828261231b565b5050565b33610ec961151c565b6001600160a01b031614610eef5760405162461bcd60e51b8152600401610bfa90613300565b6004546001600160401b03600160a01b909104811690821611610f4b5760405162461bcd60e51b815260206004820152601460248201527314d5149150534bd0d0539393d517d49155d2539160621b6044820152606401610bfa565b600480546001600160401b03909216600160a01b02600160a01b600160e01b0319909216919091179055565b33610f8061151c565b6001600160a01b031614610fa65760405162461bcd60e51b8152600401610bfa90613300565b6002805460ff60a01b1916600160a01b1790556040517f21fadcdbe90fc4e8062dd78003616bbe56d48e0f1bfc58eacd10b11bba16b79690600090a1565b6000610ff06000611434565b905090565b33610ffe61151c565b6001600160a01b0316146110245760405162461bcd60e51b8152600401610bfa90613300565b60045442600160a01b9091046001600160401b0316106110565760405162461bcd60e51b8152600401610bfa906133b9565b600d80546001600160401b0319166001600160401b0392909216919091179055565b61108181612356565b60048054604051636198e33960e01b81529182018390526001600160a01b031690636198e339906024015b600060405180830381600087803b1580156110c657600080fd5b505af11580156110da573d6000803e3d6000fd5b5050505050565b6000818152600c6020908152604080832054600b9092528220546001600160401b0391821691161561119e576000611117612361565b905042816001600160401b0316111561112d5750425b6000848152600b60205260409020546001600160401b03161561119c576000848152600b60205260409020546001600160401b03908116908216111561119c576000848152600b602052604090205461118f906001600160401b0316826133e7565b611199908361340f565b91505b505b600a546001600160401b03600160401b90910481169082161115610e595750600a54600160401b90046001600160401b031692915050565b6111e18160006119c6565b50565b6000805b8281101561122f57611211848483818110611205576112056132a1565b90506020020135611666565b61121b90836132cd565b915080611227816132e5565b9150506111e8565b5092915050565b600080805b84811015610bc25760056000878784818110611259576112596132a1565b9050602002013581526020019081526020016000206000856001600160a01b03166001600160a01b0316815260200190815260200160002060000154826112a091906132cd565b9150806112ac816132e5565b91505061123b565b60606000826001600160401b038111156112d0576112d061310c565b6040519080825280602002602001820160405280156112f9578160200160208202803683370190505b50905060005b838110156113575761132885858381811061131c5761131c6132a1565b905060200201356118e9565b82828151811061133a5761133a6132a1565b60209081029190910101528061134f816132e5565b9150506112ff565b509392505050565b610ebc8282600033611db2565b3361137561151c565b6001600160a01b03161461139b5760405162461bcd60e51b8152600401610bfa90613300565b6113a5600061239f565b565b336113b061151c565b6001600160a01b0316146113d65760405162461bcd60e51b8152600401610bfa90613300565b60045442600160a01b9091046001600160401b0316106114085760405162461bcd60e51b8152600401610bfa906133b9565b600880546001600160401b03909216600160801b02600160801b600160c01b0319909216919091179055565b60006001600160a01b038216611468576001600160a01b038216600090815260066020526040902054610e599047906132cd565b6040516370a0823160e01b81526001600160a01b038316906370a08231906114949030906004016130f8565b60206040518083038186803b1580156114ac57600080fd5b505afa1580156114c0573d6000803e3d6000fd5b505050506040513d601f19601f820116820180604052508101906114e49190613335565b6001600160a01b038316600090815260066020526040902054610e5991906132cd565b600061151583836000611236565b9392505050565b6002546001600160a01b031690565b6000610e5982600061219f565b6008546000906001600160401b038082169161155d91600160401b90910416846133e7565b6115679190613450565b6001600160401b0316600754610e599190613476565b3361158661151c565b6001600160a01b0316146115ac5760405162461bcd60e51b8152600401610bfa90613300565b60045442600160a01b9091046001600160401b0316106115de5760405162461bcd60e51b8152600401610bfa906133b9565b600755565b336115ec61151c565b6001600160a01b0316146116125760405162461bcd60e51b8152600401610bfa90613300565b60045442600160a01b9091046001600160401b0316106116445760405162461bcd60e51b8152600401610bfa906133b9565b600a80546001600160401b0319166001600160401b0392909216919091179055565b6008546000906001600160401b031661167e836110e1565b6001600160401b03166007546116949190613476565b610e599190613495565b6008546001600160401b03600160401b90910481164290911610156116d55760405162461bcd60e51b8152600401610bfa90613389565b6111e1816123f1565b6008546007546000916001600160401b03808216929161170791600160401b90910416856133e7565b6001600160401b03166116949190613476565b60006117266001612429565b9050801561173e576000805461ff0019166101001790555b6117478261239f565b61174f6124bd565b611761836000015184602001516124ec565b6117738360400151846060015161251d565b61178f83608001518460a001518560c001518660e00151612556565b61179d836101000151612589565b6117ab8361012001516125b9565b80156117f1576000805461ff0019169055604051600181527f7f26b83ff96e1f2b6a682f133852f6798a09c465da95921460cefb38474024989060200160405180910390a15b505050565b336117ff61151c565b6001600160a01b0316146118255760405162461bcd60e51b8152600401610bfa90613300565b60045442600160a01b9091046001600160401b0316106118575760405162461bcd60e51b8152600401610bfa906133b9565b600880546001600160401b03909216600160401b02600160401b600160801b0319909216919091179055565b3361188c61151c565b6001600160a01b0316146118b25760405162461bcd60e51b8152600401610bfa90613300565b60045442600160a01b9091046001600160401b0316106118e45760405162461bcd60e51b8152600401610bfa906133b9565b600955565b6000818152600b60205260408120546001600160401b031661190c576000611934565b600a546000838152600b6020526040902054611934916001600160401b03908116911661340f565b6001600160401b031692915050565b3361194c61151c565b6001600160a01b0316146119725760405162461bcd60e51b8152600401610bfa90613300565b60045442600160a01b9091046001600160401b0316106119a45760405162461bcd60e51b8152600401610bfa906133b9565b600880546001600160401b0319166001600160401b0392909216919091179055565b600260035414156119e95760405162461bcd60e51b8152600401610bfa906134a9565b6002600355600480546040516331a9108f60e11b81529182018490526000916001600160a01b0390911690636352211e9060240160206040518083038186803b158015611a3557600080fd5b505afa158015611a49573d6000803e3d6000fd5b505050506040513d601f19601f82011682018060405250810190611a6d91906134e0565b9050611a7a8383836125e9565b6000611a86848461219f565b905060008111611ad25760405162461bcd60e51b815260206004820152601760248201527653545245414d2f4e4f5448494e475f544f5f434c41494d60481b6044820152606401610bfa565b60008481526005602090815260408083206001600160a01b038716845290915281208054839290611b049084906132cd565b909155505060008481526005602090815260408083206001600160a01b0387168452825280832042600190910155600690915281208054839290611b499084906132cd565b90915550506001600160a01b038316611b7457611b6f6001600160a01b03831682612205565b611bf6565b60405163a9059cbb60e01b81526001600160a01b0384169063a9059cbb90611ba2908590859060040161334e565b602060405180830381600087803b158015611bbc57600080fd5b505af1158015611bd0573d6000803e3d6000fd5b505050506040513d601f19601f82011682018060405250810190611bf49190613367565b505b604080513381526001600160a01b038481166020830152818301879052851660608201526080810183905290517fa2d3c4c1fc934d6d2d8f9e862df90c01ae4eb0e920cd8957d242ba26b8dc40789181900360a00190a1505060016003555050565b600080805b8381101561135757611c86858583818110611c7a57611c7a6132a1565b905060200201356110e1565b611c90908361340f565b915080611c9c816132e5565b915050611c5d565b611cae82826125ff565b60048054604051635d36598f60e01b81526001600160a01b0390911691635d36598f91611cdf918691869101613533565b600060405180830381600087803b158015611cf957600080fd5b505af1158015611d0d573d6000803e3d6000fd5b505050505050565b33611d1e61151c565b6001600160a01b031614611d445760405162461bcd60e51b8152600401610bfa90613300565b6001600160a01b038116611da95760405162461bcd60e51b815260206004820152602660248201527f4f776e61626c653a206e6577206f776e657220697320746865207a65726f206160448201526564647265737360d01b6064820152608401610bfa565b6111e18161239f565b60026003541415611dd55760405162461bcd60e51b8152600401610bfa906134a9565b60026003556000805b84811015611fef57611e09868683818110611dfb57611dfb6132a1565b9050602002013585856125e9565b6004546001600160a01b038085169116636352211e888885818110611e3057611e306132a1565b905060200201356040518263ffffffff1660e01b8152600401611e5591815260200190565b60206040518083038186803b158015611e6d57600080fd5b505afa158015611e81573d6000803e3d6000fd5b505050506040513d601f19601f82011682018060405250810190611ea591906134e0565b6001600160a01b031614611ef25760405162461bcd60e51b815260206004820152601460248201527329aa2922a0a697a727aa2fa7232a2fa7aba722a960611b6044820152606401610bfa565b6000611f16878784818110611f0957611f096132a1565b905060200201358661219f565b90508015611fdc578060056000898986818110611f3557611f356132a1565b9050602002013581526020019081526020016000206000876001600160a01b03166001600160a01b031681526020019081526020016000206000016000828254611f7f91906132cd565b9091555042905060056000898986818110611f9c57611f9c6132a1565b6020908102929092013583525081810192909252604090810160009081206001600160a01b038a168252909252902060010155611fd981846132cd565b92505b5080611fe7816132e5565b915050611dde565b506001600160a01b038316600090815260066020526040812080548392906120189084906132cd565b90915550506001600160a01b0383166120435761203e6001600160a01b03831682612205565b6120c5565b60405163a9059cbb60e01b81526001600160a01b0384169063a9059cbb90612071908590859060040161334e565b602060405180830381600087803b15801561208b57600080fd5b505af115801561209f573d6000803e3d6000fd5b505050506040513d601f19601f820116820180604052508101906120c39190613367565b505b7fd84a5c424a4f777bcf4f645712b8e5ebfc550f42bde444fa822fe98ee1b132b13383878787866040516120fe96959493929190613547565b60405180910390a150506001600355505050565b3361211b61151c565b6001600160a01b0316146121415760405162461bcd60e51b8152600401610bfa90613300565b60045442600160a01b9091046001600160401b0316106121735760405162461bcd60e51b8152600401610bfa906133b9565b600a80546001600160401b03909216600160401b02600160401b600160801b0319909216919091179055565b6000806121be6121b76121b185611434565b50600090565b8585612785565b60008581526005602090815260408083206001600160a01b03881684529091529020549091506121ee9082613586565b949350505050565b6001600160a01b03163b151590565b804710156122555760405162461bcd60e51b815260206004820152601d60248201527f416464726573733a20696e73756666696369656e742062616c616e63650000006044820152606401610bfa565b6000826001600160a01b03168260405160006040518083038185875af1925050503d80600081146122a2576040519150601f19603f3d011682016040523d82523d6000602084013e6122a7565b606091505b50509050806117f15760405162461bcd60e51b815260206004820152603a60248201527f416464726573733a20756e61626c6520746f2073656e642076616c75652c20726044820152791958da5c1a595b9d081b585e481a185d99481c995d995c9d195960321b6064820152608401610bfa565b61232582826125ff565b600480546040516342cb086360e11b81526001600160a01b039091169163859610c691611cdf918691869101613533565b6111e13342836127ca565b600854600090600160801b90046001600160401b0316156123935750600854600160801b90046001600160401b031690565b506001600160401b0390565b600280546001600160a01b038381166001600160a01b0319831681179093556040519116919082907f8be0079c531659141344cd1fd0a4f28419497f9722a3daafe3b4186f6b6457e090600090a35050565b6123fa8161299f565b600480546040516337519c1960e21b81529182018390526001600160a01b03169063dd467064906024016110ac565b60008054610100900460ff1615612477578160ff1660011480156124535750612451306121f6565b155b61246f5760405162461bcd60e51b8152600401610bfa9061359d565b506000919050565b60005460ff80841691161061249e5760405162461bcd60e51b8152600401610bfa9061359d565b506000805460ff191660ff92909216919091179055600190565b919050565b600054610100900460ff166124e45760405162461bcd60e51b8152600401610bfa906135eb565b6113a5612ab4565b600054610100900460ff166125135760405162461bcd60e51b8152600401610bfa906135eb565b610ebc8282612aeb565b600054610100900460ff166125445760405162461bcd60e51b8152600401610bfa906135eb565b61254c612b50565b610ebc8282612b87565b600054610100900460ff1661257d5760405162461bcd60e51b8152600401610bfa906135eb565b610e1984848484612be6565b600054610100900460ff166125b05760405162461bcd60e51b8152600401610bfa906135eb565b6111e181612c67565b600054610100900460ff166125e05760405162461bcd60e51b8152600401610bfa906135eb565b6111e181612ca3565b6125f4838383612cf5565b6117f1838383612d47565b334260005b838110156110da576004546001600160a01b0316636352211e86868481811061262f5761262f6132a1565b905060200201356040518263ffffffff1660e01b815260040161265491815260200190565b60206040518083038186803b15801561266c57600080fd5b505afa158015612680573d6000803e3d6000fd5b505050506040513d601f19601f820116820180604052508101906126a491906134e0565b6001600160a01b0316836001600160a01b0316146126d45760405162461bcd60e51b8152600401610bfa90613636565b600a54600160401b90046001600160401b03166126fc868684818110611c7a57611c7a6132a1565b6001600160401b0316106127225760405162461bcd60e51b8152600401610bfa90613666565b81600b6000878785818110612739576127396132a1565b90506020020135815260200190815260200160002060006101000a8154816001600160401b0302191690836001600160401b03160217905550808061277d906132e5565b915050612604565b6008546000906001600160401b031661279d846110e1565b6127a79190613450565b6001600160401b03166009546007546127c09190613495565b6121ee9190613476565b6000818152600b60205260409020546001600160401b03166128225760405162461bcd60e51b815260206004820152601160248201527014d5149150534bd393d517d4d51052d151607a1b6044820152606401610bfa565b600a546000828152600b602052604090205461284a916001600160401b03908116911661340f565b6001600160401b0316826001600160401b031610156128ab5760405162461bcd60e51b815260206004820152601d60248201527f53545245414d2f4e4f545f5354414b45445f4c4f4e475f454e4f5547480000006044820152606401610bfa565b600480546040516331a9108f60e11b81529182018390526001600160a01b031690636352211e9060240160206040518083038186803b1580156128ed57600080fd5b505afa158015612901573d6000803e3d6000fd5b505050506040513d601f19601f8201168201806040525081019061292591906134e0565b6001600160a01b0316836001600160a01b0316146129555760405162461bcd60e51b8152600401610bfa90613636565b61295e816110e1565b6000918252600c6020908152604080842080546001600160401b03949094166001600160401b0319948516179055600b909152909120805490911690555050565b600480546040516331a9108f60e11b81529182018390526001600160a01b031690636352211e9060240160206040518083038186803b1580156129e157600080fd5b505afa1580156129f5573d6000803e3d6000fd5b505050506040513d601f19601f82011682018060405250810190612a1991906134e0565b6001600160a01b0316336001600160a01b031614612a495760405162461bcd60e51b8152600401610bfa90613636565b600a54600160401b90046001600160401b0316612a65826110e1565b6001600160401b031610612a8b5760405162461bcd60e51b8152600401610bfa90613666565b6000908152600b6020526040902080546001600160401b031916426001600160401b0316179055565b600054610100900460ff16612adb5760405162461bcd60e51b8152600401610bfa906135eb565b6113a56326bcdb3160e01b612e1a565b600054610100900460ff16612b125760405162461bcd60e51b8152600401610bfa906135eb565b600480546001600160401b038316600160a01b026001600160e01b03199091166001600160a01b03851617179055610ebc631ba050e960e21b612e1a565b600054610100900460ff16612b775760405162461bcd60e51b8152600401610bfa906135eb565b6113a563d664280160e01b612e1a565b600054610100900460ff16612bae5760405162461bcd60e51b8152600401610bfa906135eb565b600a80546001600160401b03838116600160401b026001600160801b031990921690851617179055610ebc633a41ba5360e11b612e1a565b600054610100900460ff16612c0d5760405162461bcd60e51b8152600401610bfa906135eb565b6007849055600880546001600160401b03838116600160801b02600160801b600160c01b0319868316600160401b026001600160801b0319909416928816929092179290921716179055610e19634d0b5a4960e01b612e1a565b600054610100900460ff16612c8e5760405162461bcd60e51b8152600401610bfa906135eb565b60098190556111e1632d5305cb60e21b612e1a565b600054610100900460ff16612cca5760405162461bcd60e51b8152600401610bfa906135eb565b600d80546001600160401b0319166001600160401b0383161790556111e16317b2ef4360e31b612e1a565b600d54426001600160401b03909116106117f15760405162461bcd60e51b815260206004820152601360248201527214d5149150534bd0d310525357d313d0d2d151606a1b6044820152606401610bfa565b60085442600160401b9091046001600160401b031610612d9e5760405162461bcd60e51b815260206004820152601260248201527114d5149150534bd393d517d4d5105495115160721b6044820152606401610bfa565b600854612db4906001600160401b031642613586565b60008481526005602090815260408083206001600160a01b0387168452909152902060010154106117f15760405162461bcd60e51b815260206004820152601060248201526f53545245414d2f544f4f5f4541524c5960801b6044820152606401610bfa565b6001600160e01b03198082161415612e735760405162461bcd60e51b815260206004820152601c60248201527b115490cc4d8d4e881a5b9d985b1a59081a5b9d195c999858d9481a5960221b6044820152606401610bfa565b6001600160e01b0319166000908152600160208190526040909120805460ff19169091179055565b60008083601f840112612ead57600080fd5b5081356001600160401b03811115612ec457600080fd5b6020830191508360208260051b8501011115612edf57600080fd5b9250929050565b6001600160a01b03811681146111e157600080fd5b80356124b881612ee6565b600080600060408486031215612f1b57600080fd5b83356001600160401b03811115612f3157600080fd5b612f3d86828701612e9b565b9094509250506020840135612f5181612ee6565b809150509250925092565b60008060208385031215612f6f57600080fd5b82356001600160401b03811115612f8557600080fd5b612f9185828601612e9b565b90969095509350505050565b600060208284031215612faf57600080fd5b81356001600160e01b03198116811461151557600080fd5b600060208083528351808285015260005b81811015612ff457858101830151858201604001528201612fd8565b81811115613006576000604083870101525b50601f01601f1916929092016040019392505050565b60006020828403121561302e57600080fd5b5035919050565b80356001600160401b03811681146124b857600080fd5b60006020828403121561305e57600080fd5b61151582613035565b6020808252825182820181905260009190848201906040850190845b8181101561309f57835183529284019291840191600101613083565b50909695505050505050565b600080604083850312156130be57600080fd5b8235915060208301356130d081612ee6565b809150509250929050565b6000602082840312156130ed57600080fd5b813561151581612ee6565b6001600160a01b0391909116815260200190565b634e487b7160e01b600052604160045260246000fd5b60405161014081016001600160401b038111828210171561315357634e487b7160e01b600052604160045260246000fd5b60405290565b60008082840361016081121561316e57600080fd5b6101408082121561317e57600080fd5b613186613122565b915061319185612efb565b825261319f60208601613035565b60208301526131b060408601613035565b60408301526131c160608601613035565b6060830152608085013560808301526131dc60a08601613035565b60a08301526131ed60c08601613035565b60c08301526131fe60e08601613035565b60e0830152610100858101359083015261012061321c818701613035565b818401525081935061322f818601612efb565b925050509250929050565b6000806000806060858703121561325057600080fd5b84356001600160401b0381111561326657600080fd5b61327287828801612e9b565b909550935050602085013561328681612ee6565b9150604085013561329681612ee6565b939692955090935050565b634e487b7160e01b600052603260045260246000fd5b634e487b7160e01b600052601160045260246000fd5b600082198211156132e0576132e06132b7565b500190565b60006000198214156132f9576132f96132b7565b5060010190565b6020808252818101527f4f776e61626c653a2063616c6c6572206973206e6f7420746865206f776e6572604082015260600190565b60006020828403121561334757600080fd5b5051919050565b6001600160a01b03929092168252602082015260400190565b60006020828403121561337957600080fd5b8151801515811461151557600080fd5b60208082526016908201527514d5149150534bd393d517d4d5105495115117d6515560521b604082015260600190565b60208082526014908201527314d5149150534bd0d3d3919251d7d313d0d2d15160621b604082015260600190565b60006001600160401b0383811690831681811015613407576134076132b7565b039392505050565b60006001600160401b03828116848216808303821115613431576134316132b7565b01949350505050565b634e487b7160e01b600052601260045260246000fd5b60006001600160401b038381168061346a5761346a61343a565b92169190910492915050565b6000816000190483118215151615613490576134906132b7565b500290565b6000826134a4576134a461343a565b500490565b6020808252601f908201527f5265656e7472616e637947756172643a207265656e7472616e742063616c6c00604082015260600190565b6000602082840312156134f257600080fd5b815161151581612ee6565b81835260006001600160fb1b0383111561351657600080fd5b8260051b8083602087013760009401602001938452509192915050565b6020815260006121ee6020830184866134fd565b600060018060a01b038089168352808816602084015260a0604084015261357260a0840187896134fd565b941660608301525060800152949350505050565b600082821015613598576135986132b7565b500390565b6020808252602e908201527f496e697469616c697a61626c653a20636f6e747261637420697320616c72656160408201526d191e481a5b9a5d1a585b1a5e995960921b606082015260800190565b6020808252602b908201527f496e697469616c697a61626c653a20636f6e7472616374206973206e6f74206960408201526a6e697469616c697a696e6760a81b606082015260800190565b60208082526016908201527529aa2922a0a697a727aa2faa27a5a2a72fa7aba722a960511b604082015260600190565b60208082526022908201527f53545245414d2f4d41585f5354414b455f4455524154494f4e5f455843454544604082015261115160f21b60608201526080019056fe455243373231204c6f636b6564205374616b696e6720456d697373696f6e2053747265616da2646970667358221220580a962c82ee065fb562917b1b504152aa92a7fa58a4c87249f194d6ca9cc53464736f6c63430008090033",
  "devdoc": {
    "author": "Flair (https://flair.finance)",
    "kind": "dev",
    "methods": {
      "owner()": {
        "details": "Returns the address of the current owner."
      },
      "renounceOwnership()": {
        "details": "Leaves the contract without owner. It will not be possible to call `onlyOwner` functions anymore. Can only be called by the current owner. NOTE: Renouncing ownership will leave the contract without an owner, thereby removing any functionality that is only available to the owner."
      },
      "supportsInterface(bytes4)": {
        "details": "See {IERC165-supportsInterface}."
      },
      "transferOwnership(address)": {
        "details": "Transfers ownership of the contract to a new account (`newOwner`). Can only be called by the current owner."
      }
    },
    "version": 1
  },
  "userdoc": {
    "kind": "user",
    "methods": {},
    "version": 1
  },
  "storageLayout": {
    "storage": [
      {
        "astId": 886,
        "contract": "contracts/streams/ERC721/presets/ERC721LockedStakingEmissionStream.sol:ERC721LockedStakingEmissionStream",
        "label": "_initialized",
        "offset": 0,
        "slot": "0",
        "type": "t_uint8"
      },
      {
        "astId": 889,
        "contract": "contracts/streams/ERC721/presets/ERC721LockedStakingEmissionStream.sol:ERC721LockedStakingEmissionStream",
        "label": "_initializing",
        "offset": 1,
        "slot": "0",
        "type": "t_bool"
      },
      {
        "astId": 4693,
        "contract": "contracts/streams/ERC721/presets/ERC721LockedStakingEmissionStream.sol:ERC721LockedStakingEmissionStream",
        "label": "_supportedInterfaces",
        "offset": 0,
        "slot": "1",
        "type": "t_mapping(t_bytes4,t_bool)"
      },
      {
        "astId": 782,
        "contract": "contracts/streams/ERC721/presets/ERC721LockedStakingEmissionStream.sol:ERC721LockedStakingEmissionStream",
        "label": "_owner",
        "offset": 0,
        "slot": "2",
        "type": "t_address"
      },
      {
        "astId": 12716,
        "contract": "contracts/streams/ERC721/presets/ERC721LockedStakingEmissionStream.sol:ERC721LockedStakingEmissionStream",
        "label": "emergencyPowerRevoked",
        "offset": 20,
        "slot": "2",
        "type": "t_bool"
      },
      {
        "astId": 1124,
        "contract": "contracts/streams/ERC721/presets/ERC721LockedStakingEmissionStream.sol:ERC721LockedStakingEmissionStream",
        "label": "_status",
        "offset": 0,
        "slot": "3",
        "type": "t_uint256"
      },
      {
        "astId": 13891,
        "contract": "contracts/streams/ERC721/presets/ERC721LockedStakingEmissionStream.sol:ERC721LockedStakingEmissionStream",
        "label": "ticketToken",
        "offset": 0,
        "slot": "4",
        "type": "t_address"
      },
      {
        "astId": 13893,
        "contract": "contracts/streams/ERC721/presets/ERC721LockedStakingEmissionStream.sol:ERC721LockedStakingEmissionStream",
        "label": "lockedUntilTimestamp",
        "offset": 20,
        "slot": "4",
        "type": "t_uint64"
      },
      {
        "astId": 13900,
        "contract": "contracts/streams/ERC721/presets/ERC721LockedStakingEmissionStream.sol:ERC721LockedStakingEmissionStream",
        "label": "entitlements",
        "offset": 0,
        "slot": "5",
        "type": "t_mapping(t_uint256,t_mapping(t_address,t_struct(Entitlement)13889_storage))"
      },
      {
        "astId": 13904,
        "contract": "contracts/streams/ERC721/presets/ERC721LockedStakingEmissionStream.sol:ERC721LockedStakingEmissionStream",
        "label": "_streamTotalClaimed",
        "offset": 0,
        "slot": "6",
        "type": "t_mapping(t_address,t_uint256)"
      },
      {
        "astId": 14622,
        "contract": "contracts/streams/ERC721/presets/ERC721LockedStakingEmissionStream.sol:ERC721LockedStakingEmissionStream",
        "label": "emissionRate",
        "offset": 0,
        "slot": "7",
        "type": "t_uint256"
      },
      {
        "astId": 14624,
        "contract": "contracts/streams/ERC721/presets/ERC721LockedStakingEmissionStream.sol:ERC721LockedStakingEmissionStream",
        "label": "emissionTimeUnit",
        "offset": 0,
        "slot": "8",
        "type": "t_uint64"
      },
      {
        "astId": 14626,
        "contract": "contracts/streams/ERC721/presets/ERC721LockedStakingEmissionStream.sol:ERC721LockedStakingEmissionStream",
        "label": "emissionStart",
        "offset": 8,
        "slot": "8",
        "type": "t_uint64"
      },
      {
        "astId": 14628,
        "contract": "contracts/streams/ERC721/presets/ERC721LockedStakingEmissionStream.sol:ERC721LockedStakingEmissionStream",
        "label": "emissionEnd",
        "offset": 16,
        "slot": "8",
        "type": "t_uint64"
      },
      {
        "astId": 14931,
        "contract": "contracts/streams/ERC721/presets/ERC721LockedStakingEmissionStream.sol:ERC721LockedStakingEmissionStream",
        "label": "totalTickets",
        "offset": 0,
        "slot": "9",
        "type": "t_uint256"
      },
      {
        "astId": 15693,
        "contract": "contracts/streams/ERC721/presets/ERC721LockedStakingEmissionStream.sol:ERC721LockedStakingEmissionStream",
        "label": "minStakingDuration",
        "offset": 0,
        "slot": "10",
        "type": "t_uint64"
      },
      {
        "astId": 15695,
        "contract": "contracts/streams/ERC721/presets/ERC721LockedStakingEmissionStream.sol:ERC721LockedStakingEmissionStream",
        "label": "maxStakingTotalDurations",
        "offset": 8,
        "slot": "10",
        "type": "t_uint64"
      },
      {
        "astId": 15699,
        "contract": "contracts/streams/ERC721/presets/ERC721LockedStakingEmissionStream.sol:ERC721LockedStakingEmissionStream",
        "label": "lastStakingTime",
        "offset": 0,
        "slot": "11",
        "type": "t_mapping(t_uint256,t_uint64)"
      },
      {
        "astId": 15703,
        "contract": "contracts/streams/ERC721/presets/ERC721LockedStakingEmissionStream.sol:ERC721LockedStakingEmissionStream",
        "label": "savedStakedDurations",
        "offset": 0,
        "slot": "12",
        "type": "t_mapping(t_uint256,t_uint64)"
      },
      {
        "astId": 15123,
        "contract": "contracts/streams/ERC721/presets/ERC721LockedStakingEmissionStream.sol:ERC721LockedStakingEmissionStream",
        "label": "claimLockedUntil",
        "offset": 0,
        "slot": "13",
        "type": "t_uint64"
      }
    ],
    "types": {
      "t_address": {
        "encoding": "inplace",
        "label": "address",
        "numberOfBytes": "20"
      },
      "t_bool": {
        "encoding": "inplace",
        "label": "bool",
        "numberOfBytes": "1"
      },
      "t_bytes4": {
        "encoding": "inplace",
        "label": "bytes4",
        "numberOfBytes": "4"
      },
      "t_mapping(t_address,t_struct(Entitlement)13889_storage)": {
        "encoding": "mapping",
        "key": "t_address",
        "label": "mapping(address => struct ERC721MultiTokenStream.Entitlement)",
        "numberOfBytes": "32",
        "value": "t_struct(Entitlement)13889_storage"
      },
      "t_mapping(t_address,t_uint256)": {
        "encoding": "mapping",
        "key": "t_address",
        "label": "mapping(address => uint256)",
        "numberOfBytes": "32",
        "value": "t_uint256"
      },
      "t_mapping(t_bytes4,t_bool)": {
        "encoding": "mapping",
        "key": "t_bytes4",
        "label": "mapping(bytes4 => bool)",
        "numberOfBytes": "32",
        "value": "t_bool"
      },
      "t_mapping(t_uint256,t_mapping(t_address,t_struct(Entitlement)13889_storage))": {
        "encoding": "mapping",
        "key": "t_uint256",
        "label": "mapping(uint256 => mapping(address => struct ERC721MultiTokenStream.Entitlement))",
        "numberOfBytes": "32",
        "value": "t_mapping(t_address,t_struct(Entitlement)13889_storage)"
      },
      "t_mapping(t_uint256,t_uint64)": {
        "encoding": "mapping",
        "key": "t_uint256",
        "label": "mapping(uint256 => uint64)",
        "numberOfBytes": "32",
        "value": "t_uint64"
      },
      "t_struct(Entitlement)13889_storage": {
        "encoding": "inplace",
        "label": "struct ERC721MultiTokenStream.Entitlement",
        "members": [
          {
            "astId": 13886,
            "contract": "contracts/streams/ERC721/presets/ERC721LockedStakingEmissionStream.sol:ERC721LockedStakingEmissionStream",
            "label": "totalClaimed",
            "offset": 0,
            "slot": "0",
            "type": "t_uint256"
          },
          {
            "astId": 13888,
            "contract": "contracts/streams/ERC721/presets/ERC721LockedStakingEmissionStream.sol:ERC721LockedStakingEmissionStream",
            "label": "lastClaimedAt",
            "offset": 0,
            "slot": "1",
            "type": "t_uint256"
          }
        ],
        "numberOfBytes": "64"
      },
      "t_uint256": {
        "encoding": "inplace",
        "label": "uint256",
        "numberOfBytes": "32"
      },
      "t_uint64": {
        "encoding": "inplace",
        "label": "uint64",
        "numberOfBytes": "8"
      },
      "t_uint8": {
        "encoding": "inplace",
        "label": "uint8",
        "numberOfBytes": "1"
      }
    }
  }
}