{
  "address": "0xB362BDF95d36c81afee71ef97f9da280295CBe76",
  "abi": [
    {
      "inputs": [
        {
          "components": [
            {
              "internalType": "string",
              "name": "name",
              "type": "string"
            },
            {
              "internalType": "string",
              "name": "symbol",
              "type": "string"
            },
            {
              "internalType": "string",
              "name": "contractURI",
              "type": "string"
            },
            {
              "internalType": "uint256",
              "name": "maxSupply",
              "type": "uint256"
            },
            {
              "internalType": "address",
              "name": "defaultRoyaltyAddress",
              "type": "address"
            },
            {
              "internalType": "uint16",
              "name": "defaultRoyaltyBps",
              "type": "uint16"
            },
            {
              "internalType": "address",
              "name": "trustedForwarder",
              "type": "address"
            },
            {
              "internalType": "enum LicenseVersion",
              "name": "licenseVersion",
              "type": "uint8"
            }
          ],
          "internalType": "struct ERC721AOneOfOneCollection.Config",
          "name": "config",
          "type": "tuple"
        }
      ],
      "stateMutability": "nonpayable",
      "type": "constructor"
    },
    {
      "inputs": [],
      "name": "ApprovalCallerNotOwnerNorApproved",
      "type": "error"
    },
    {
      "inputs": [],
      "name": "ApprovalQueryForNonexistentToken",
      "type": "error"
    },
    {
      "inputs": [],
      "name": "ApproveToCaller",
      "type": "error"
    },
    {
      "inputs": [],
      "name": "BalanceQueryForZeroAddress",
      "type": "error"
    },
    {
      "inputs": [],
      "name": "MintERC2309QuantityExceedsLimit",
      "type": "error"
    },
    {
      "inputs": [],
      "name": "MintToZeroAddress",
      "type": "error"
    },
    {
      "inputs": [],
      "name": "MintZeroQuantity",
      "type": "error"
    },
    {
      "inputs": [],
      "name": "OwnerQueryForNonexistentToken",
      "type": "error"
    },
    {
      "inputs": [],
      "name": "OwnershipNotInitializedForExtraData",
      "type": "error"
    },
    {
      "inputs": [],
      "name": "TransferCallerNotOwnerNorApproved",
      "type": "error"
    },
    {
      "inputs": [],
      "name": "TransferFromIncorrectOwner",
      "type": "error"
    },
    {
      "inputs": [],
      "name": "TransferToNonERC721ReceiverImplementer",
      "type": "error"
    },
    {
      "inputs": [],
      "name": "TransferToZeroAddress",
      "type": "error"
    },
    {
      "inputs": [],
      "name": "URIQueryForNonexistentToken",
      "type": "error"
    },
    {
      "anonymous": false,
      "inputs": [
        {
          "indexed": true,
          "internalType": "address",
          "name": "owner",
          "type": "address"
        },
        {
          "indexed": true,
          "internalType": "address",
          "name": "approved",
          "type": "address"
        },
        {
          "indexed": true,
          "internalType": "uint256",
          "name": "tokenId",
          "type": "uint256"
        }
      ],
      "name": "Approval",
      "type": "event"
    },
    {
      "anonymous": false,
      "inputs": [
        {
          "indexed": true,
          "internalType": "address",
          "name": "owner",
          "type": "address"
        },
        {
          "indexed": true,
          "internalType": "address",
          "name": "operator",
          "type": "address"
        },
        {
          "indexed": false,
          "internalType": "bool",
          "name": "approved",
          "type": "bool"
        }
      ],
      "name": "ApprovalForAll",
      "type": "event"
    },
    {
      "anonymous": false,
      "inputs": [
        {
          "indexed": true,
          "internalType": "uint256",
          "name": "fromTokenId",
          "type": "uint256"
        },
        {
          "indexed": false,
          "internalType": "uint256",
          "name": "toTokenId",
          "type": "uint256"
        },
        {
          "indexed": true,
          "internalType": "address",
          "name": "from",
          "type": "address"
        },
        {
          "indexed": true,
          "internalType": "address",
          "name": "to",
          "type": "address"
        }
      ],
      "name": "ConsecutiveTransfer",
      "type": "event"
    },
    {
      "anonymous": false,
      "inputs": [
        {
          "indexed": false,
          "internalType": "address",
          "name": "recipient",
          "type": "address"
        },
        {
          "indexed": false,
          "internalType": "uint16",
          "name": "bps",
          "type": "uint16"
        }
      ],
      "name": "DefaultRoyaltySet",
      "type": "event"
    },
    {
      "anonymous": false,
      "inputs": [
        {
          "indexed": false,
          "internalType": "uint8",
          "name": "version",
          "type": "uint8"
        }
      ],
      "name": "Initialized",
      "type": "event"
    },
    {
      "anonymous": false,
      "inputs": [
        {
          "indexed": true,
          "internalType": "address",
          "name": "previousOwner",
          "type": "address"
        },
        {
          "indexed": true,
          "internalType": "address",
          "name": "newOwner",
          "type": "address"
        }
      ],
      "name": "OwnershipTransferred",
      "type": "event"
    },
    {
      "anonymous": false,
      "inputs": [
        {
          "indexed": true,
          "internalType": "bytes32",
          "name": "role",
          "type": "bytes32"
        },
        {
          "indexed": true,
          "internalType": "bytes32",
          "name": "previousAdminRole",
          "type": "bytes32"
        },
        {
          "indexed": true,
          "internalType": "bytes32",
          "name": "newAdminRole",
          "type": "bytes32"
        }
      ],
      "name": "RoleAdminChanged",
      "type": "event"
    },
    {
      "anonymous": false,
      "inputs": [
        {
          "indexed": true,
          "internalType": "bytes32",
          "name": "role",
          "type": "bytes32"
        },
        {
          "indexed": true,
          "internalType": "address",
          "name": "account",
          "type": "address"
        },
        {
          "indexed": true,
          "internalType": "address",
          "name": "sender",
          "type": "address"
        }
      ],
      "name": "RoleGranted",
      "type": "event"
    },
    {
      "anonymous": false,
      "inputs": [
        {
          "indexed": true,
          "internalType": "bytes32",
          "name": "role",
          "type": "bytes32"
        },
        {
          "indexed": true,
          "internalType": "address",
          "name": "account",
          "type": "address"
        },
        {
          "indexed": true,
          "internalType": "address",
          "name": "sender",
          "type": "address"
        }
      ],
      "name": "RoleRevoked",
      "type": "event"
    },
    {
      "anonymous": false,
      "inputs": [
        {
          "indexed": false,
          "internalType": "uint256",
          "name": "tokenId",
          "type": "uint256"
        }
      ],
      "name": "TokenRoyaltyRemoved",
      "type": "event"
    },
    {
      "anonymous": false,
      "inputs": [
        {
          "indexed": false,
          "internalType": "uint256",
          "name": "tokenId",
          "type": "uint256"
        },
        {
          "indexed": false,
          "internalType": "address",
          "name": "recipient",
          "type": "address"
        },
        {
          "indexed": false,
          "internalType": "uint16",
          "name": "bps",
          "type": "uint16"
        }
      ],
      "name": "TokenRoyaltySet",
      "type": "event"
    },
    {
      "anonymous": false,
      "inputs": [
        {
          "indexed": true,
          "internalType": "address",
          "name": "from",
          "type": "address"
        },
        {
          "indexed": true,
          "internalType": "address",
          "name": "to",
          "type": "address"
        },
        {
          "indexed": true,
          "internalType": "uint256",
          "name": "tokenId",
          "type": "uint256"
        }
      ],
      "name": "Transfer",
      "type": "event"
    },
    {
      "inputs": [],
      "name": "DEFAULT_ADMIN_ROLE",
      "outputs": [
        {
          "internalType": "bytes32",
          "name": "",
          "type": "bytes32"
        }
      ],
      "stateMutability": "view",
      "type": "function"
    },
    {
      "inputs": [],
      "name": "MINTER_ROLE",
      "outputs": [
        {
          "internalType": "bytes32",
          "name": "",
          "type": "bytes32"
        }
      ],
      "stateMutability": "view",
      "type": "function"
    },
    {
      "inputs": [],
      "name": "_trustedForwarder",
      "outputs": [
        {
          "internalType": "address",
          "name": "",
          "type": "address"
        }
      ],
      "stateMutability": "view",
      "type": "function"
    },
    {
      "inputs": [
        {
          "internalType": "address",
          "name": "to",
          "type": "address"
        },
        {
          "internalType": "uint256",
          "name": "tokenId",
          "type": "uint256"
        }
      ],
      "name": "approve",
      "outputs": [],
      "stateMutability": "nonpayable",
      "type": "function"
    },
    {
      "inputs": [
        {
          "internalType": "address",
          "name": "owner",
          "type": "address"
        }
      ],
      "name": "balanceOf",
      "outputs": [
        {
          "internalType": "uint256",
          "name": "",
          "type": "uint256"
        }
      ],
      "stateMutability": "view",
      "type": "function"
    },
    {
      "inputs": [],
      "name": "contractURI",
      "outputs": [
        {
          "internalType": "string",
          "name": "",
          "type": "string"
        }
      ],
      "stateMutability": "view",
      "type": "function"
    },
    {
      "inputs": [],
      "name": "defaultRoyalty",
      "outputs": [
        {
          "internalType": "address",
          "name": "recipient",
          "type": "address"
        },
        {
          "internalType": "uint16",
          "name": "bps",
          "type": "uint16"
        }
      ],
      "stateMutability": "view",
      "type": "function"
    },
    {
      "inputs": [],
      "name": "freezeMaxSupply",
      "outputs": [],
      "stateMutability": "nonpayable",
      "type": "function"
    },
    {
      "inputs": [
        {
          "internalType": "uint256",
          "name": "_lastFrozenTokenId",
          "type": "uint256"
        }
      ],
      "name": "freezeTokenURIs",
      "outputs": [],
      "stateMutability": "nonpayable",
      "type": "function"
    },
    {
      "inputs": [
        {
          "internalType": "uint256",
          "name": "tokenId",
          "type": "uint256"
        }
      ],
      "name": "getApproved",
      "outputs": [
        {
          "internalType": "address",
          "name": "",
          "type": "address"
        }
      ],
      "stateMutability": "view",
      "type": "function"
    },
    {
      "inputs": [],
      "name": "getInfo",
      "outputs": [
        {
          "internalType": "uint256",
          "name": "_maxSupply",
          "type": "uint256"
        },
        {
          "internalType": "uint256",
          "name": "_totalSupply",
          "type": "uint256"
        },
        {
          "internalType": "uint256",
          "name": "_senderBalance",
          "type": "uint256"
        }
      ],
      "stateMutability": "view",
      "type": "function"
    },
    {
      "inputs": [],
      "name": "getLicenseName",
      "outputs": [
        {
          "internalType": "string",
          "name": "",
          "type": "string"
        }
      ],
      "stateMutability": "view",
      "type": "function"
    },
    {
      "inputs": [],
      "name": "getLicenseURI",
      "outputs": [
        {
          "internalType": "string",
          "name": "",
          "type": "string"
        }
      ],
      "stateMutability": "view",
      "type": "function"
    },
    {
      "inputs": [
        {
          "internalType": "uint256",
          "name": "id",
          "type": "uint256"
        }
      ],
      "name": "getRaribleV2Royalties",
      "outputs": [
        {
          "components": [
            {
              "internalType": "address payable",
              "name": "account",
              "type": "address"
            },
            {
              "internalType": "uint96",
              "name": "value",
              "type": "uint96"
            }
          ],
          "internalType": "struct LibPart.Part[]",
          "name": "result",
          "type": "tuple[]"
        }
      ],
      "stateMutability": "view",
      "type": "function"
    },
    {
      "inputs": [
        {
          "internalType": "bytes32",
          "name": "role",
          "type": "bytes32"
        }
      ],
      "name": "getRoleAdmin",
      "outputs": [
        {
          "internalType": "bytes32",
          "name": "",
          "type": "bytes32"
        }
      ],
      "stateMutability": "view",
      "type": "function"
    },
    {
      "inputs": [],
      "name": "getTokenRoyaltiesCount",
      "outputs": [
        {
          "internalType": "uint256",
          "name": "",
          "type": "uint256"
        }
      ],
      "stateMutability": "view",
      "type": "function"
    },
    {
      "inputs": [
        {
          "internalType": "uint256",
          "name": "index",
          "type": "uint256"
        }
      ],
      "name": "getTokenRoyaltyByIndex",
      "outputs": [
        {
          "components": [
            {
              "internalType": "uint256",
              "name": "tokenId",
              "type": "uint256"
            },
            {
              "internalType": "address",
              "name": "recipient",
              "type": "address"
            },
            {
              "internalType": "uint16",
              "name": "bps",
              "type": "uint16"
            }
          ],
          "internalType": "struct IEIP2981RoyaltyOverride.TokenRoyaltyConfig",
          "name": "",
          "type": "tuple"
        }
      ],
      "stateMutability": "view",
      "type": "function"
    },
    {
      "inputs": [
        {
          "internalType": "bytes32",
          "name": "role",
          "type": "bytes32"
        },
        {
          "internalType": "address",
          "name": "account",
          "type": "address"
        }
      ],
      "name": "grantRole",
      "outputs": [],
      "stateMutability": "nonpayable",
      "type": "function"
    },
    {
      "inputs": [
        {
          "internalType": "bytes32",
          "name": "role",
          "type": "bytes32"
        },
        {
          "internalType": "address",
          "name": "account",
          "type": "address"
        }
      ],
      "name": "hasRole",
      "outputs": [
        {
          "internalType": "bool",
          "name": "",
          "type": "bool"
        }
      ],
      "stateMutability": "view",
      "type": "function"
    },
    {
      "inputs": [
        {
          "components": [
            {
              "internalType": "string",
              "name": "name",
              "type": "string"
            },
            {
              "internalType": "string",
              "name": "symbol",
              "type": "string"
            },
            {
              "internalType": "string",
              "name": "contractURI",
              "type": "string"
            },
            {
              "internalType": "uint256",
              "name": "maxSupply",
              "type": "uint256"
            },
            {
              "internalType": "address",
              "name": "defaultRoyaltyAddress",
              "type": "address"
            },
            {
              "internalType": "uint16",
              "name": "defaultRoyaltyBps",
              "type": "uint16"
            },
            {
              "internalType": "address",
              "name": "trustedForwarder",
              "type": "address"
            },
            {
              "internalType": "enum LicenseVersion",
              "name": "licenseVersion",
              "type": "uint8"
            }
          ],
          "internalType": "struct ERC721AOneOfOneCollection.Config",
          "name": "config",
          "type": "tuple"
        },
        {
          "internalType": "address",
          "name": "deployer",
          "type": "address"
        }
      ],
      "name": "initialize",
      "outputs": [],
      "stateMutability": "nonpayable",
      "type": "function"
    },
    {
      "inputs": [
        {
          "internalType": "address",
          "name": "owner",
          "type": "address"
        },
        {
          "internalType": "address",
          "name": "operator",
          "type": "address"
        }
      ],
      "name": "isApprovedForAll",
      "outputs": [
        {
          "internalType": "bool",
          "name": "",
          "type": "bool"
        }
      ],
      "stateMutability": "view",
      "type": "function"
    },
    {
      "inputs": [
        {
          "internalType": "address",
          "name": "forwarder",
          "type": "address"
        }
      ],
      "name": "isTrustedForwarder",
      "outputs": [
        {
          "internalType": "bool",
          "name": "",
          "type": "bool"
        }
      ],
      "stateMutability": "view",
      "type": "function"
    },
    {
      "inputs": [],
      "name": "lastFrozenTokenId",
      "outputs": [
        {
          "internalType": "uint256",
          "name": "",
          "type": "uint256"
        }
      ],
      "stateMutability": "view",
      "type": "function"
    },
    {
      "inputs": [],
      "name": "licenseVersion",
      "outputs": [
        {
          "internalType": "enum LicenseVersion",
          "name": "",
          "type": "uint8"
        }
      ],
      "stateMutability": "view",
      "type": "function"
    },
    {
      "inputs": [],
      "name": "licenseVersionLocked",
      "outputs": [
        {
          "internalType": "bool",
          "name": "",
          "type": "bool"
        }
      ],
      "stateMutability": "view",
      "type": "function"
    },
    {
      "inputs": [],
      "name": "lockLicenseVersion",
      "outputs": [],
      "stateMutability": "nonpayable",
      "type": "function"
    },
    {
      "inputs": [],
      "name": "maxSupply",
      "outputs": [
        {
          "internalType": "uint256",
          "name": "",
          "type": "uint256"
        }
      ],
      "stateMutability": "view",
      "type": "function"
    },
    {
      "inputs": [],
      "name": "maxSupplyFrozen",
      "outputs": [
        {
          "internalType": "bool",
          "name": "",
          "type": "bool"
        }
      ],
      "stateMutability": "view",
      "type": "function"
    },
    {
      "inputs": [
        {
          "internalType": "address",
          "name": "to",
          "type": "address"
        },
        {
          "internalType": "uint256",
          "name": "count",
          "type": "uint256"
        }
      ],
      "name": "mintByOwner",
      "outputs": [],
      "stateMutability": "nonpayable",
      "type": "function"
    },
    {
      "inputs": [
        {
          "internalType": "address",
          "name": "to",
          "type": "address"
        },
        {
          "internalType": "uint256",
          "name": "count",
          "type": "uint256"
        },
        {
          "internalType": "string[]",
          "name": "tokenURIs",
          "type": "string[]"
        }
      ],
      "name": "mintWithTokenURIsByOwner",
      "outputs": [],
      "stateMutability": "nonpayable",
      "type": "function"
    },
    {
      "inputs": [
        {
          "internalType": "address",
          "name": "to",
          "type": "address"
        },
        {
          "internalType": "uint256",
          "name": "count",
          "type": "uint256"
        },
        {
          "internalType": "string[]",
          "name": "tokenURIs",
          "type": "string[]"
        }
      ],
      "name": "mintWithTokenURIsByRole",
      "outputs": [],
      "stateMutability": "nonpayable",
      "type": "function"
    },
    {
      "inputs": [],
      "name": "name",
      "outputs": [
        {
          "internalType": "string",
          "name": "",
          "type": "string"
        }
      ],
      "stateMutability": "view",
      "type": "function"
    },
    {
      "inputs": [],
      "name": "owner",
      "outputs": [
        {
          "internalType": "address",
          "name": "",
          "type": "address"
        }
      ],
      "stateMutability": "view",
      "type": "function"
    },
    {
      "inputs": [
        {
          "internalType": "uint256",
          "name": "tokenId",
          "type": "uint256"
        }
      ],
      "name": "ownerOf",
      "outputs": [
        {
          "internalType": "address",
          "name": "",
          "type": "address"
        }
      ],
      "stateMutability": "view",
      "type": "function"
    },
    {
      "inputs": [],
      "name": "renounceOwnership",
      "outputs": [],
      "stateMutability": "nonpayable",
      "type": "function"
    },
    {
      "inputs": [
        {
          "internalType": "bytes32",
          "name": "role",
          "type": "bytes32"
        },
        {
          "internalType": "address",
          "name": "account",
          "type": "address"
        }
      ],
      "name": "renounceRole",
      "outputs": [],
      "stateMutability": "nonpayable",
      "type": "function"
    },
    {
      "inputs": [
        {
          "internalType": "bytes32",
          "name": "role",
          "type": "bytes32"
        },
        {
          "internalType": "address",
          "name": "account",
          "type": "address"
        }
      ],
      "name": "revokeRole",
      "outputs": [],
      "stateMutability": "nonpayable",
      "type": "function"
    },
    {
      "inputs": [
        {
          "internalType": "uint256",
          "name": "tokenId",
          "type": "uint256"
        },
        {
          "internalType": "uint256",
          "name": "value",
          "type": "uint256"
        }
      ],
      "name": "royaltyInfo",
      "outputs": [
        {
          "internalType": "address",
          "name": "",
          "type": "address"
        },
        {
          "internalType": "uint256",
          "name": "",
          "type": "uint256"
        }
      ],
      "stateMutability": "view",
      "type": "function"
    },
    {
      "inputs": [
        {
          "internalType": "address",
          "name": "from",
          "type": "address"
        },
        {
          "internalType": "address",
          "name": "to",
          "type": "address"
        },
        {
          "internalType": "uint256",
          "name": "tokenId",
          "type": "uint256"
        }
      ],
      "name": "safeTransferFrom",
      "outputs": [],
      "stateMutability": "nonpayable",
      "type": "function"
    },
    {
      "inputs": [
        {
          "internalType": "address",
          "name": "from",
          "type": "address"
        },
        {
          "internalType": "address",
          "name": "to",
          "type": "address"
        },
        {
          "internalType": "uint256",
          "name": "tokenId",
          "type": "uint256"
        },
        {
          "internalType": "bytes",
          "name": "_data",
          "type": "bytes"
        }
      ],
      "name": "safeTransferFrom",
      "outputs": [],
      "stateMutability": "nonpayable",
      "type": "function"
    },
    {
      "inputs": [
        {
          "internalType": "address",
          "name": "operator",
          "type": "address"
        },
        {
          "internalType": "bool",
          "name": "approved",
          "type": "bool"
        }
      ],
      "name": "setApprovalForAll",
      "outputs": [],
      "stateMutability": "nonpayable",
      "type": "function"
    },
    {
      "inputs": [
        {
          "internalType": "string",
          "name": "newValue",
          "type": "string"
        }
      ],
      "name": "setContractURI",
      "outputs": [],
      "stateMutability": "nonpayable",
      "type": "function"
    },
    {
      "inputs": [
        {
          "components": [
            {
              "internalType": "address",
              "name": "recipient",
              "type": "address"
            },
            {
              "internalType": "uint16",
              "name": "bps",
              "type": "uint16"
            }
          ],
          "internalType": "struct IEIP2981RoyaltyOverride.TokenRoyalty",
          "name": "royalty",
          "type": "tuple"
        }
      ],
      "name": "setDefaultRoyalty",
      "outputs": [],
      "stateMutability": "nonpayable",
      "type": "function"
    },
    {
      "inputs": [
        {
          "internalType": "enum LicenseVersion",
          "name": "_licenseVersion",
          "type": "uint8"
        }
      ],
      "name": "setLicenseVersion",
      "outputs": [],
      "stateMutability": "nonpayable",
      "type": "function"
    },
    {
      "inputs": [
        {
          "internalType": "uint256",
          "name": "newValue",
          "type": "uint256"
        }
      ],
      "name": "setMaxSupply",
      "outputs": [],
      "stateMutability": "nonpayable",
      "type": "function"
    },
    {
      "inputs": [
        {
          "components": [
            {
              "internalType": "uint256",
              "name": "tokenId",
              "type": "uint256"
            },
            {
              "internalType": "address",
              "name": "recipient",
              "type": "address"
            },
            {
              "internalType": "uint16",
              "name": "bps",
              "type": "uint16"
            }
          ],
          "internalType": "struct IEIP2981RoyaltyOverride.TokenRoyaltyConfig[]",
          "name": "royaltyConfigs",
          "type": "tuple[]"
        }
      ],
      "name": "setTokenRoyalties",
      "outputs": [],
      "stateMutability": "nonpayable",
      "type": "function"
    },
    {
      "inputs": [
        {
          "internalType": "uint256",
          "name": "tokenId",
          "type": "uint256"
        },
        {
          "internalType": "string",
          "name": "tokenURI",
          "type": "string"
        }
      ],
      "name": "setTokenURI",
      "outputs": [],
      "stateMutability": "nonpayable",
      "type": "function"
    },
    {
      "inputs": [
        {
          "internalType": "address",
          "name": "trustedForwarder",
          "type": "address"
        }
      ],
      "name": "setTrustedForwarder",
      "outputs": [],
      "stateMutability": "nonpayable",
      "type": "function"
    },
    {
      "inputs": [
        {
          "internalType": "bytes4",
          "name": "interfaceId",
          "type": "bytes4"
        }
      ],
      "name": "supportsInterface",
      "outputs": [
        {
          "internalType": "bool",
          "name": "",
          "type": "bool"
        }
      ],
      "stateMutability": "view",
      "type": "function"
    },
    {
      "inputs": [],
      "name": "symbol",
      "outputs": [
        {
          "internalType": "string",
          "name": "",
          "type": "string"
        }
      ],
      "stateMutability": "view",
      "type": "function"
    },
    {
      "inputs": [
        {
          "internalType": "uint256",
          "name": "_tokenId",
          "type": "uint256"
        }
      ],
      "name": "tokenURI",
      "outputs": [
        {
          "internalType": "string",
          "name": "",
          "type": "string"
        }
      ],
      "stateMutability": "view",
      "type": "function"
    },
    {
      "inputs": [],
      "name": "totalSupply",
      "outputs": [
        {
          "internalType": "uint256",
          "name": "",
          "type": "uint256"
        }
      ],
      "stateMutability": "view",
      "type": "function"
    },
    {
      "inputs": [
        {
          "internalType": "address",
          "name": "from",
          "type": "address"
        },
        {
          "internalType": "address",
          "name": "to",
          "type": "address"
        },
        {
          "internalType": "uint256",
          "name": "tokenId",
          "type": "uint256"
        }
      ],
      "name": "transferFrom",
      "outputs": [],
      "stateMutability": "nonpayable",
      "type": "function"
    },
    {
      "inputs": [
        {
          "internalType": "address",
          "name": "newOwner",
          "type": "address"
        }
      ],
      "name": "transferOwnership",
      "outputs": [],
      "stateMutability": "nonpayable",
      "type": "function"
    }
  ],
  "transactionHash": "0x2a34707c91faaf5473e4e5ce7419b29afbe7b6290e105e6ccdef989f382c5371",
  "args": [
    {
      "name": "Collection",
      "symbol": "COL",
      "contractURI": "ipfs://contractURI",
      "maxSupply": 0,
      "defaultRoyaltyAddress": "0x0000000000000000000000000000000000000000",
      "defaultRoyaltyBps": 0,
      "trustedForwarder": "0x0000000000000000000000000000000000000000",
      "licenseVersion": 0
    }
  ],
  "numDeployments": 9,
  "solcInputHash": "f093fab3876b5382df8d98211e68b19e",
  "bytecode": "0x60806040523480156200001157600080fd5b50604051620046f3380380620046f3833981016040819052620000349162000b9b565b805160208201516004620000516200004b620000b2565b620000ce565b6003805482919060ff1916600183600581111562000073576200007362000cb4565b02179055506006905062000088838262000d58565b50600762000097828262000d58565b5050600060045550620000ab813362000129565b5062000e6f565b6000620000c96200031860201b6200160a1760201c565b905090565b600080546001600160a01b038381166201000081810262010000600160b01b0319851617855560405193049190911692909183917f8be0079c531659141344cd1fd0a4f28419497f9722a3daafe3b4186f6b6457e091a35050565b600054610100900460ff16158080156200014a5750600054600160ff909116105b806200017a575062000167306200035060201b6200162c1760201c565b1580156200017a575060005460ff166001145b620001e35760405162461bcd60e51b815260206004820152602e60248201527f496e697469616c697a61626c653a20636f6e747261637420697320616c72656160448201526d191e481a5b9a5d1a585b1a5e995960921b60648201526084015b60405180910390fd5b6000805460ff19166001179055801562000207576000805461ff0019166101001790555b620002146000836200035f565b620002407f9f2df0fed2c77648de5860a4cc508cd0818c85b8b8a1ab4ceeef8d981c8956a6836200035f565b6200024b82620000ce565b825160208401516040850151620002649291906200036f565b6200026e620003a6565b62000278620003dc565b6200028262000410565b606083015162000292906200044e565b620002ac83608001518460a001516200048660201b60201c565b60c0830151620002bc90620004bc565b60e0830151620002cc90620004f1565b801562000313576000805461ff0019169055604051600181527f7f26b83ff96e1f2b6a682f133852f6798a09c465da95921460cefb38474024989060200160405180910390a15b505050565b6017546000906001600160a01b031633036200033b575060131936013560601c90565b620000c96200052660201b6200163b1760201c565b6001600160a01b03163b151590565b6200036b82826200052a565b5050565b600054610100900460ff16620003995760405162461bcd60e51b8152600401620001da9062000e24565b62000313838383620005d1565b600054610100900460ff16620003d05760405162461bcd60e51b8152600401620001da9062000e24565b620003da62000670565b565b600054610100900460ff16620004065760405162461bcd60e51b8152600401620001da9062000e24565b620003da620006ac565b600054610100900460ff166200043a5760405162461bcd60e51b8152600401620001da9062000e24565b62000444620003a6565b620003da620006e8565b600054610100900460ff16620004785760405162461bcd60e51b8152600401620001da9062000e24565b620004838162000724565b50565b600054610100900460ff16620004b05760405162461bcd60e51b8152600401620001da9062000e24565b6200036b828262000789565b600054610100900460ff16620004e65760405162461bcd60e51b8152600401620001da9062000e24565b620004838162000826565b600054610100900460ff166200051b5760405162461bcd60e51b8152600401620001da9062000e24565b620004838162000872565b3390565b60008281526001602090815260408083206001600160a01b038516845290915290205460ff166200036b5760008281526001602081815260408084206001600160a01b0386168552909152909120805460ff191690911790556200058d620000b2565b6001600160a01b0316816001600160a01b0316837f2f8788117e7eff1d82e926ec794901d17c78024a50270940304540a733656f0d60405160405180910390a45050565b600054610100900460ff16620005fb5760405162461bcd60e51b8152600401620001da9062000e24565b600c62000609848262000d58565b50600d62000618838262000d58565b50600e62000627828262000d58565b506200063a633d96f4ff60e11b620008ea565b6200064c6380ac58cd60e01b620008ea565b6200065e63184371e560e31b620008ea565b62000313635b5e139f60e01b620008ea565b600054610100900460ff166200069a5760405162461bcd60e51b8152600401620001da9062000e24565b620003da632929b36760e11b620008ea565b600054610100900460ff16620006d65760405162461bcd60e51b8152600401620001da9062000e24565b620003da631aa1577160e11b620008ea565b600054610100900460ff16620007125760405162461bcd60e51b8152600401620001da9062000e24565b620003da630d169dbf60e31b620008ea565b600054610100900460ff166200074e5760405162461bcd60e51b8152600401620001da9062000e24565b600f819055620007656330f487b560e11b620008ea565b620007776380ac58cd60e01b620008ea565b6200048363184371e560e31b620008ea565b600054610100900460ff16620007b35760405162461bcd60e51b8152600401620001da9062000e24565b620007c5633a47bf5160e11b620008ea565b620007d763152a902d60e11b620008ea565b620007e963c69dbd8f60e01b620008ea565b620007fb63656cb66560e11b620008ea565b604080518082019091526001600160a01b038316815261ffff8216602082015262000313816200096b565b600054610100900460ff16620008505760405162461bcd60e51b8152600401620001da9062000e24565b601780546001600160a01b0319166001600160a01b0392909216919091179055565b600054610100900460ff166200089c5760405162461bcd60e51b8152600401620001da9062000e24565b620008ae63b964efe960e01b620008ea565b620008c0630c934a3560e31b620008ea565b6003805482919060ff19166001836005811115620008e257620008e262000cb4565b021790555050565b6001600160e01b03198082169003620009465760405162461bcd60e51b815260206004820152601c60248201527f4552433136353a20696e76616c696420696e74657266616365206964000000006044820152606401620001da565b6001600160e01b0319166000908152600260205260409020805460ff19166001179055565b612710816020015161ffff1610620009b45760405162461bcd60e51b815260206004820152600b60248201526a496e76616c69642062707360a81b6044820152606401620001da565b60408051808201825282516001600160a01b03168082526020808501805161ffff169190930181905260138054600160a01b9092026001600160b01b03199092169092171790558251905191517f2c5ea6e4103e78cb101e796fb2dace540362fc542cbff5145eaa24af7dd8fe419262000a4692916001600160a01b0392909216825261ffff16602082015260400190565b60405180910390a150565b634e487b7160e01b600052604160045260246000fd5b60405161010081016001600160401b038111828210171562000a8d5762000a8d62000a51565b60405290565b604051601f8201601f191681016001600160401b038111828210171562000abe5762000abe62000a51565b604052919050565b600082601f83011262000ad857600080fd5b81516001600160401b0381111562000af45762000af462000a51565b602062000b0a601f8301601f1916820162000a93565b828152858284870101111562000b1f57600080fd5b60005b8381101562000b3f57858101830151828201840152820162000b22565b8381111562000b515760008385840101525b5095945050505050565b80516001600160a01b038116811462000b7357600080fd5b919050565b805161ffff8116811462000b7357600080fd5b80516006811062000b7357600080fd5b60006020828403121562000bae57600080fd5b81516001600160401b038082111562000bc657600080fd5b90830190610100828603121562000bdc57600080fd5b62000be662000a67565b82518281111562000bf657600080fd5b62000c048782860162000ac6565b82525060208301518281111562000c1a57600080fd5b62000c288782860162000ac6565b60208301525060408301518281111562000c4157600080fd5b62000c4f8782860162000ac6565b6040830152506060830151606082015262000c6d6080840162000b5b565b608082015262000c8060a0840162000b78565b60a082015262000c9360c0840162000b5b565b60c082015262000ca660e0840162000b8b565b60e082015295945050505050565b634e487b7160e01b600052602160045260246000fd5b600181811c9082168062000cdf57607f821691505b60208210810362000d0057634e487b7160e01b600052602260045260246000fd5b50919050565b601f8211156200031357600081815260208120601f850160051c8101602086101562000d2f5750805b601f850160051c820191505b8181101562000d505782815560010162000d3b565b505050505050565b81516001600160401b0381111562000d745762000d7462000a51565b62000d8c8162000d85845462000cca565b8462000d06565b602080601f83116001811462000dc4576000841562000dab5750858301515b600019600386901b1c1916600185901b17855562000d50565b600085815260208120601f198616915b8281101562000df55788860151825594840194600190910190840162000dd4565b508582101562000e145787850151600019600388901b60f8161c191681555b5050505050600190811b01905550565b6020808252602b908201527f496e697469616c697a61626c653a20636f6e7472616374206973206e6f74206960408201526a6e697469616c697a696e6760a81b606082015260800190565b6138748062000e7f6000396000f3fe608060405234801561001057600080fd5b50600436106102825760003560e01c80637885fdc7116101585780637885fdc7146105005780637e9803421461052e5780638da5cb5b146105365780638e28cf981461053e57806391d1485414610551578063938e3d7b1461056457806394bb53f81461057757806395d89b411461058a578063a217fddf14610592578063a22cb4651461059a578063a341793b146105ad578063b88d4fde146105b5578063b89df8e8146105c8578063bf9b7a57146105d1578063c7db2893146105e3578063c87b56dd146105eb578063cad96cca146105fe578063d53913931461061e578063d547741f14610633578063d5abeb0114610646578063da7422281461064f578063dd89c6fa14610662578063e8a3d4851461066a578063e985e9c514610672578063ef60ceaf146106ae578063f2fde38b146106c1578063f384702f146106d457600080fd5b806301ffc9a7146102875780630653aca5146102af57806306fdde03146102f1578063081812fc14610306578063095ea7b314610326578063162094c41461033b578063167446071461034e57806318160ddd1461035657806323b872dd1461036c578063248a9ca31461037f5780632a55205a146103925780632ee774bd146103c45780632f2ff15d146103d75780633542aee2146103ea57806336568abe146103fd57806342842e0e146104105780634473f20a1461042357806350a5292f146104365780635136dcc71461045057806356c022bb14610463578063572b6c05146104765780635a9b0b89146104895780636352211e146104ac57806364ed2913146104bf5780636f8b44b0146104d257806370a08231146104e5578063715018a6146104f8575b600080fd5b61029a610295366004612c0d565b6106e1565b60405190151581526020015b60405180910390f35b6102c26102bd366004612c2a565b6106f2565b60408051825181526020808401516001600160a01b0316908201529181015161ffff16908201526060016102a6565b6102f9610777565b6040516102a69190612c9b565b610319610314366004612c2a565b610786565b6040516102a69190612cae565b610339610334366004612cd9565b6107ca565b005b610339610349366004612de9565b61086a565b6103396108bf565b600554600454035b6040519081526020016102a6565b61033961037a366004612e2f565b6108d6565b61035e61038d366004612c2a565b610a5d565b6103a56103a0366004612e6b565b610a73565b604080516001600160a01b0390931683526020830191909152016102a6565b6103396103d2366004612e8d565b610b38565b6103396103e5366004612f6b565b610ba7565b6103396103f8366004612cd9565b610bc8565b61033961040b366004612f6b565b610bda565b61033961041e366004612e2f565b610c64565b610339610431366004612c2a565b610c7f565b6003546104439060ff1681565b6040516102a69190612fad565b61033961045e366004612fd5565b610ccf565b601754610319906001600160a01b031681565b61029a610484366004613049565b610d32565b610491610d46565b604080519384526020840192909252908201526060016102a6565b6103196104ba366004612c2a565b610e41565b6103396104cd366004613073565b610e4c565b6103396104e0366004612c2a565b610ec4565b61035e6104f3366004613049565b610f60565b610339610fae565b601354610520906001600160a01b03811690600160a01b900461ffff1682565b6040516102a692919061308e565b61035e610fc2565b610319610fce565b61033961054c366004612e8d565b610fe3565b61029a61055f366004612f6b565b61107c565b6103396105723660046130ab565b6110a7565b6103396105853660046130f1565b6110bb565b6102f9611260565b61035e600081565b6103396105a83660046131fd565b61126a565b6102f96112ff565b6103396105c3366004613239565b611311565b61035e60115481565b60035461029a90610100900460ff1681565b6102f961135b565b6102f96105f9366004612c2a565b6113bb565b61061161060c366004612c2a565b6113c6565b6040516102a691906132b4565b61035e6000805160206137ff83398151915281565b610339610641366004612f6b565b611481565b61035e600f5481565b61033961065d366004613049565b61149d565b6103396114c7565b6102f96114e0565b61029a610680366004613315565b6001600160a01b039182166000908152600b6020908152604080832093909416825291909152205460ff1690565b6103396106bc36600461333f565b611572565b6103396106cf366004613049565b611594565b60105461029a9060ff1681565b60006106ec8261163f565b92915050565b604080516060810182526000808252602082018190529181018290529061071a601584611670565b6000818152601460209081526040918290208251808401845290546001600160a01b03808216835261ffff600160a01b90920482168385019081528551606081018752968752925116928501929092525116908201529392505050565b6060610781611683565b905090565b60006107918261168d565b6107ae576040516333d1c03960e21b815260040160405180910390fd5b506000908152600a60205260409020546001600160a01b031690565b60006107d582610e41565b9050336001600160a01b0382161461080e576107f18133610680565b61080e576040516367d9dca160e11b815260040160405180910390fd5b6000828152600a602052604080822080546001600160a01b0319166001600160a01b0387811691821790925591518593918516917f8c5be1e5ebec7d5bd14f71427d1e84f3dd0314c0f7b2291e5b200ac8c7c3b92591a4505050565b6108726116b5565b60115482116108b15760405162461bcd60e51b8152602060048201526006602482015265232927ad22a760d11b60448201526064015b60405180910390fd5b6108bb8282611724565b5050565b6108c76116b5565b6010805460ff19166001179055565b60006108e1826117a8565b9050836001600160a01b0316816001600160a01b0316146109145760405162a1148160e81b815260040160405180910390fd5b6000828152600a602052604090208054338082146001600160a01b03881690911417610961576109448633610680565b61096157604051632ce44b5f60e11b815260040160405180910390fd5b6001600160a01b03851661098857604051633a954ecd60e21b815260040160405180910390fd5b801561099357600082555b6001600160a01b038681166000908152600960205260408082208054600019019055918716815220805460010190556109d085600160e11b61180f565b600085815260086020526040812091909155600160e11b84169003610a2557600184016000818152600860205260408120549003610a23576004548114610a235760008181526008602052604090208490555b505b83856001600160a01b0316876001600160a01b031660008051602061381f83398151915260405160405180910390a45b505050505050565b6000908152600160208190526040909120015490565b60008281526014602052604081205481906001600160a01b031615610ad8576000848152601460205260409020546001600160a01b0381169061271090610ac590600160a01b900461ffff168661336d565b610acf91906133a2565b91509150610b31565b6013546001600160a01b031615801590610afe5750601354600160a01b900461ffff1615155b15610b2a576013546001600160a01b0381169061271090610ac590600160a01b900461ffff168661336d565b5060009050805b9250929050565b610b406116b5565b6000610b4b60045490565b9050610b578484611824565b60005b83811015610ba057610b8e610b6f82846133b6565b848381518110610b8157610b816133ce565b6020026020010151611724565b80610b98816133e4565b915050610b5a565b5050505050565b610bb082610a5d565b610bb981611888565b610bc38383611899565b505050565b610bd06116b5565b6108bb8282611824565b610be2611921565b6001600160a01b0316816001600160a01b031614610c5a5760405162461bcd60e51b815260206004820152602f60248201527f416363657373436f6e74726f6c3a2063616e206f6e6c792072656e6f756e636560448201526e103937b632b9903337b91039b2b63360891b60648201526084016108a8565b6108bb828261192b565b610bc383838360405180602001604052806000815250611311565b610c876116b5565b6011548111610cca5760405162461bcd60e51b815260206004820152600f60248201526e43414e4e4f545f554e465245455a4560881b60448201526064016108a8565b601155565b610cd76116b5565b6108bb8282808060200260200160405190810160405280939291908181526020016000905b82821015610d2857610d19606083028601368190038101906133fd565b81526020019060010190610cfc565b50505050506119b0565b6017546001600160a01b0391821691161490565b600080808080610d54611921565b6001600160a01b031614610dd057306370a08231610d70611921565b6040518263ffffffff1660e01b8152600401610d8c9190612cae565b602060405180830381865afa158015610da9573d6000803e3d6000fd5b505050506040513d601f19601f82011682018060405250810190610dcd9190613461565b90505b600f54306001600160a01b03166318160ddd6040518163ffffffff1660e01b8152600401602060405180830381865afa158015610e11573d6000803e3d6000fd5b505050506040513d601f19601f82011682018060405250810190610e359190613461565b90959094509092509050565b60006106ec826117a8565b610e546116b5565b600354610100900460ff1615610e9d5760405162461bcd60e51b815260206004820152600e60248201526d131250d15394d157d313d0d2d15160921b60448201526064016108a8565b6003805482919060ff19166001836005811115610ebc57610ebc612f97565b021790555050565b610ecc6116b5565b60105460ff1615610f115760405162461bcd60e51b815260206004820152600f60248201526e2120a9a2afaaa924afa32927ad22a760891b60448201526064016108a8565b60055460045403811015610f5b5760405162461bcd60e51b81526020600482015260116024820152704c4f5745525f5448414e5f535550504c5960781b60448201526064016108a8565b600f55565b60006001600160a01b038216610f89576040516323d3ad8160e21b815260040160405180910390fd5b506001600160a01b03166000908152600960205260409020546001600160401b031690565b610fb66116b5565b610fc06000611b57565b565b60006107816015611bb2565b6000546201000090046001600160a01b031690565b610ffd6000805160206137ff83398151915261055f611921565b61103b5760405162461bcd60e51b815260206004820152600f60248201526e4e4f545f4d494e5445525f524f4c4560881b60448201526064016108a8565b600061104660045490565b90506110528484611824565b60005b83811015610ba05761106a610b6f82846133b6565b80611074816133e4565b915050611055565b60009182526001602090815260408084206001600160a01b0393909316845291905290205460ff1690565b6110af6116b5565b600e6108bb82826134f4565b600054610100900460ff16158080156110db5750600054600160ff909116105b806110fc57506110ea3061162c565b1580156110fc575060005460ff166001145b61115f5760405162461bcd60e51b815260206004820152602e60248201527f496e697469616c697a61626c653a20636f6e747261637420697320616c72656160448201526d191e481a5b9a5d1a585b1a5e995960921b60648201526084016108a8565b6000805460ff191660011790558015611182576000805461ff0019166101001790555b61118d600083611bbc565b6111a56000805160206137ff83398151915283611bbc565b6111ae82611b57565b6111c5836000015184602001518560400151611bc6565b6111cd611bf8565b6111d5611c27565b6111dd611c56565b6111ea8360600151611c8d565b6111fc83608001518460a00151611cbd565b6112098360c00151611cee565b6112168360e00151611d1e565b8015610bc3576000805461ff0019169055604051600181527f7f26b83ff96e1f2b6a682f133852f6798a09c465da95921460cefb38474024989060200160405180910390a1505050565b6060610781611d4e565b336001600160a01b038316036112935760405163b06307db60e01b815260040160405180910390fd5b336000818152600b602090815260408083206001600160a01b03871680855290835292819020805460ff191686151590811790915590519081529192917f17307eab39ab6107e8899845ad3d59bd9653f200f220920489ca2b5937696c31910160405180910390a35050565b6003546060906107819060ff16611d58565b61131c8484846108d6565b6001600160a01b0383163b156113555761133884848484611ed6565b611355576040516368d2bf6b60e11b815260040160405180910390fd5b50505050565b60606040518060600160405280603181526020016137ce603191396003546113969060ff16600581111561139157611391612f97565b611fc2565b6040516020016113a79291906135b3565b604051602081830303815290604052905090565b60606106ec826120c2565b604080516001808252818301909252606091816020015b60408051808201909152600080825260208201528152602001906001900390816113dd57505060135481519192506001600160a01b0316908290600090611426576114266133ce565b60209081029190910101516001600160a01b039190911690526013548151600160a01b90910461ffff16908290600090611462576114626133ce565b6020908102919091018101516001600160601b03909216910152919050565b61148a82610a5d565b61149381611888565b610bc3838361192b565b6114a56116b5565b601780546001600160a01b0319166001600160a01b0392909216919091179055565b6114cf6116b5565b6003805461ff001916610100179055565b6060600e80546114ef9061347a565b80601f016020809104026020016040519081016040528092919081815260200182805461151b9061347a565b80156115685780601f1061153d57610100808354040283529160200191611568565b820191906000526020600020905b81548152906001019060200180831161154b57829003601f168201915b5050505050905090565b61157a6116b5565b61159161158c368390038301836135e2565b6120cd565b50565b61159c6116b5565b6001600160a01b0381166116015760405162461bcd60e51b815260206004820152602660248201527f4f776e61626c653a206e6577206f776e657220697320746865207a65726f206160448201526564647265737360d01b60648201526084016108a8565b61159181611b57565b600061161533610d32565b15611627575060131936013560601c90565b503390565b6001600160a01b03163b151590565b3390565b600061164a82612178565b806106ec5750506001600160e01b03191660009081526002602052604090205460ff1690565b600061167c83836121ad565b9392505050565b60606107816121d7565b6000600454821080156106ec575050600090815260086020526040902054600160e01b161590565b6116bd611921565b6001600160a01b03166116ce610fce565b6001600160a01b031614610fc05760405162461bcd60e51b815260206004820181905260248201527f4f776e61626c653a2063616c6c6572206973206e6f7420746865206f776e657260448201526064016108a8565b61172d8261168d565b6117905760405162461bcd60e51b815260206004820152602e60248201527f45524337323155524953746f726167653a2055524920736574206f66206e6f6e60448201526d32bc34b9ba32b73a103a37b5b2b760911b60648201526084016108a8565b6000828152601260205260409020610bc382826134f4565b6000816004548110156117f65760008181526008602052604081205490600160e01b821690036117f4575b8060000361167c5750600019016000818152600860205260409020546117d3565b505b604051636f96cda160e11b815260040160405180910390fd5b4260a01b176001600160a01b03919091161790565b600f54816118356005546004540390565b61183f91906133b6565b111561187e5760405162461bcd60e51b815260206004820152600e60248201526d455843454544535f535550504c5960901b60448201526064016108a8565b6108bb82826121e6565b61159181611894611921565b612200565b6118a3828261107c565b6108bb5760008281526001602081815260408084206001600160a01b0386168552909152909120805460ff191690911790556118dd611921565b6001600160a01b0316816001600160a01b0316837f2f8788117e7eff1d82e926ec794901d17c78024a50270940304540a733656f0d60405160405180910390a45050565b600061078161160a565b611935828261107c565b156108bb5760008281526001602090815260408083206001600160a01b03851684529091529020805460ff1916905561196c611921565b6001600160a01b0316816001600160a01b0316837ff6391f5c32d9c69d2a47ea670b442974b53935d1edc7fd64eb21e047a839171b60405160405180910390a45050565b60005b81518110156108bb5760008282815181106119d0576119d06133ce565b60200260200101519050612710816040015161ffff1610611a035760405162461bcd60e51b81526004016108a89061363c565b60208101516001600160a01b0316611a7c578051600090815260146020526040902080546001600160b01b03191690558051611a4190601590612264565b5080516040519081527fa2870857763bd9ae76c957f869f16b31c18dd3bb4c7b4d3a4496dc5c57c657f99060200160405180910390a1611b44565b6040805180820182526020808401516001600160a01b0390811683528484015161ffff90811683850190815286516000908152601490945294909220925183549451909216600160a01b026001600160b01b03199094169116179190911790558051611aea90601590612270565b50805160208083015160408085015181519485526001600160a01b039092169284019290925261ffff1682820152517f389b70fb0887f01e83784eb1c4c589f740eca53b00ed0f45e41db5d079719abb9181900360600190a15b5080611b4f816133e4565b9150506119b3565b600080546001600160a01b038381166201000081810262010000600160b01b0319851617855560405193049190911692909183917f8be0079c531659141344cd1fd0a4f28419497f9722a3daafe3b4186f6b6457e091a35050565b60006106ec825490565b6108bb8282611899565b600054610100900460ff16611bed5760405162461bcd60e51b81526004016108a890613661565b610bc383838361227c565b600054610100900460ff16611c1f5760405162461bcd60e51b81526004016108a890613661565b610fc061230a565b600054610100900460ff16611c4e5760405162461bcd60e51b81526004016108a890613661565b610fc0612341565b600054610100900460ff16611c7d5760405162461bcd60e51b81526004016108a890613661565b611c85611bf8565b610fc0612378565b600054610100900460ff16611cb45760405162461bcd60e51b81526004016108a890613661565b611591816123af565b600054610100900460ff16611ce45760405162461bcd60e51b81526004016108a890613661565b6108bb828261240b565b600054610100900460ff16611d155760405162461bcd60e51b81526004016108a890613661565b6115918161249b565b600054610100900460ff16611d455760405162461bcd60e51b81526004016108a890613661565b611591816124c2565b6060610781612509565b60606006826005811115611d6e57611d6e612f97565b60ff161115611d7c57600080fd5b816005811115611d8e57611d8e612f97565b600003611db857505060408051808201909152600781526604342455f4343360cc1b602082015290565b816005811115611dca57611dca612f97565b600103611df457505060408051808201909152600781526621a122afa2a1a960c91b602082015290565b816005811115611e0657611e06612f97565b600203611e3157505060408051808201909152600881526721a122afa722a1a960c11b602082015290565b816005811115611e4357611e43612f97565b600303611e7157505060408051808201909152600b81526a4342455f4e4543525f485360a81b602082015290565b816005811115611e8357611e83612f97565b600403611eac57505060408051808201909152600681526521a122afa82960d11b602082015290565b50506040805180820190915260098152684342455f50525f485360b81b602082015290565b919050565b604051630a85bd0160e11b81526000906001600160a01b0385169063150b7a0290611f0b9033908990889088906004016136ac565b6020604051808303816000875af1925050508015611f46575060408051601f3d908101601f19168201909252611f43918101906136e9565b60015b611fa4573d808015611f74576040519150601f19603f3d011682016040523d82523d6000602084013e611f79565b606091505b508051600003611f9c576040516368d2bf6b60e11b815260040160405180910390fd5b805181602001fd5b6001600160e01b031916630a85bd0160e11b1490505b949350505050565b606081600003611fe95750506040805180820190915260018152600360fc1b602082015290565b8160005b81156120135780611ffd816133e4565b915061200c9050600a836133a2565b9150611fed565b6000816001600160401b0381111561202d5761202d612d03565b6040519080825280601f01601f191660200182016040528015612057576020820181803683370190505b5090505b8415611fba5761206c600183613706565b9150612079600a8661371d565b6120849060306133b6565b60f81b818381518110612099576120996133ce565b60200101906001600160f81b031916908160001a9053506120bb600a866133a2565b945061205b565b60606106ec82612518565b612710816020015161ffff16106120f65760405162461bcd60e51b81526004016108a89061363c565b60408051808201825282516001600160a01b03168082526020808501805161ffff1691909301819052601380546001600160b01b031916909217600160a01b9091021790558251905191517f2c5ea6e4103e78cb101e796fb2dace540362fc542cbff5145eaa24af7dd8fe419261216d929161308e565b60405180910390a150565b60006001600160e01b03198216637965db0b60e01b14806106ec57506301ffc9a760e01b6001600160e01b03198316146106ec565b60008260000182815481106121c4576121c46133ce565b9060005260206000200154905092915050565b6060600c80546114ef9061347a565b6108bb828260405180602001604052806000815250612686565b61220a828261107c565b6108bb57612222816001600160a01b031660146126ec565b61222d8360206126ec565b60405160200161223e929190613731565b60408051601f198184030181529082905262461bcd60e51b82526108a891600401612c9b565b600061167c8383612887565b600061167c838361297a565b600054610100900460ff166122a35760405162461bcd60e51b81526004016108a890613661565b600c6122af84826134f4565b50600d6122bc83826134f4565b50600e6122c982826134f4565b506122da633d96f4ff60e11b6129c9565b6122ea6380ac58cd60e01b6129c9565b6122fa63184371e560e31b6129c9565b610bc3635b5e139f60e01b6129c9565b600054610100900460ff166123315760405162461bcd60e51b81526004016108a890613661565b610fc0632929b36760e11b6129c9565b600054610100900460ff166123685760405162461bcd60e51b81526004016108a890613661565b610fc0631aa1577160e11b6129c9565b600054610100900460ff1661239f5760405162461bcd60e51b81526004016108a890613661565b610fc0630d169dbf60e31b6129c9565b600054610100900460ff166123d65760405162461bcd60e51b81526004016108a890613661565b600f8190556123eb6330f487b560e11b6129c9565b6123fb6380ac58cd60e01b6129c9565b61159163184371e560e31b6129c9565b600054610100900460ff166124325760405162461bcd60e51b81526004016108a890613661565b612442633a47bf5160e11b6129c9565b61245263152a902d60e11b6129c9565b61246263c69dbd8f60e01b6129c9565b61247263656cb66560e11b6129c9565b604080518082019091526001600160a01b038316815261ffff82166020820152610bc3816120cd565b600054610100900460ff166114a55760405162461bcd60e51b81526004016108a890613661565b600054610100900460ff166124e95760405162461bcd60e51b81526004016108a890613661565b6124f963b964efe960e01b6129c9565b610e9d630c934a3560e31b6129c9565b6060600d80546114ef9061347a565b60606125238261168d565b6125895760405162461bcd60e51b815260206004820152603160248201527f45524337323155524953746f726167653a2055524920717565727920666f72206044820152703737b732bc34b9ba32b73a103a37b5b2b760791b60648201526084016108a8565b600082815260126020526040812080546125a29061347a565b80601f01602080910402602001604051908101604052809291908181526020018280546125ce9061347a565b801561261b5780601f106125f05761010080835404028352916020019161261b565b820191906000526020600020905b8154815290600101906020018083116125fe57829003601f168201915b50505050509050600061263960408051602081019091526000815290565b9050805160000361264b575092915050565b81511561267d5780826040516020016126659291906135b3565b60405160208183030381529060405292505050919050565b611fba84612a47565b6126908383612ad7565b6001600160a01b0383163b15610bc3576004548281035b6126ba6000868380600101945086611ed6565b6126d7576040516368d2bf6b60e11b815260040160405180910390fd5b8181106126a7578160045414610ba057600080fd5b606060006126fb83600261336d565b6127069060026133b6565b6001600160401b0381111561271d5761271d612d03565b6040519080825280601f01601f191660200182016040528015612747576020820181803683370190505b509050600360fc1b81600081518110612762576127626133ce565b60200101906001600160f81b031916908160001a905350600f60fb1b81600181518110612791576127916133ce565b60200101906001600160f81b031916908160001a90535060006127b584600261336d565b6127c09060016133b6565b90505b6001811115612838576f181899199a1a9b1b9c1cb0b131b232b360811b85600f16601081106127f4576127f46133ce565b1a60f81b82828151811061280a5761280a6133ce565b60200101906001600160f81b031916908160001a90535060049490941c93612831816137a0565b90506127c3565b50831561167c5760405162461bcd60e51b815260206004820181905260248201527f537472696e67733a20686578206c656e67746820696e73756666696369656e7460448201526064016108a8565b600081815260018301602052604081205480156129705760006128ab600183613706565b85549091506000906128bf90600190613706565b90508181146129245760008660000182815481106128df576128df6133ce565b9060005260206000200154905080876000018481548110612902576129026133ce565b6000918252602080832090910192909255918252600188019052604090208390555b8554869080612935576129356137b7565b6001900381819060005260206000200160009055905585600101600086815260200190815260200160002060009055600193505050506106ec565b60009150506106ec565b60008181526001830160205260408120546129c1575081546001818101845560008481526020808220909301849055845484825282860190935260409020919091556106ec565b5060006106ec565b6001600160e01b03198082169003612a225760405162461bcd60e51b815260206004820152601c60248201527b115490cc4d8d4e881a5b9d985b1a59081a5b9d195c999858d9481a5960221b60448201526064016108a8565b6001600160e01b0319166000908152600260205260409020805460ff19166001179055565b6060612a528261168d565b612a6f57604051630a14c4b560e41b815260040160405180910390fd5b6000612a8660408051602081019091526000815290565b90508051600003612aa6576040518060200160405280600081525061167c565b80612ab084612bbf565b604051602001612ac19291906135b3565b6040516020818303038152906040529392505050565b6004546000829003612afc5760405163b562e8dd60e01b815260040160405180910390fd5b6001600160a01b038316600090815260096020526040902080546001600160401b018402019055612b33836001841460e11b61180f565b6000828152600860205260408120919091556001600160a01b03841690838301908390839060008051602061381f8339815191528180a4600183015b818114612b95578083600060008051602061381f833981519152600080a4600101612b6f565b5081600003612bb657604051622e076360e81b815260040160405180910390fd5b60045550505050565b604080516080019081905280825b600183039250600a81066030018353600a900480612bcd5750819003601f19909101908152919050565b6001600160e01b03198116811461159157600080fd5b600060208284031215612c1f57600080fd5b813561167c81612bf7565b600060208284031215612c3c57600080fd5b5035919050565b60005b83811015612c5e578181015183820152602001612c46565b838111156113555750506000910152565b60008151808452612c87816020860160208601612c43565b601f01601f19169290920160200192915050565b60208152600061167c6020830184612c6f565b6001600160a01b0391909116815260200190565b80356001600160a01b0381168114611ed157600080fd5b60008060408385031215612cec57600080fd5b612cf583612cc2565b946020939093013593505050565b634e487b7160e01b600052604160045260246000fd5b60405161010081016001600160401b0381118282101715612d3c57612d3c612d03565b60405290565b604051601f8201601f191681016001600160401b0381118282101715612d6a57612d6a612d03565b604052919050565b60006001600160401b03831115612d8b57612d8b612d03565b612d9e601f8401601f1916602001612d42565b9050828152838383011115612db257600080fd5b828260208301376000602084830101529392505050565b600082601f830112612dda57600080fd5b61167c83833560208501612d72565b60008060408385031215612dfc57600080fd5b8235915060208301356001600160401b03811115612e1957600080fd5b612e2585828601612dc9565b9150509250929050565b600080600060608486031215612e4457600080fd5b612e4d84612cc2565b9250612e5b60208501612cc2565b9150604084013590509250925092565b60008060408385031215612e7e57600080fd5b50508035926020909101359150565b600080600060608486031215612ea257600080fd5b612eab84612cc2565b9250602080850135925060408501356001600160401b0380821115612ecf57600080fd5b818701915087601f830112612ee357600080fd5b813581811115612ef557612ef5612d03565b8060051b612f04858201612d42565b918252838101850191858101908b841115612f1e57600080fd5b86860192505b83831015612f5a57823585811115612f3c5760008081fd5b612f4a8d89838a0101612dc9565b8352509186019190860190612f24565b809750505050505050509250925092565b60008060408385031215612f7e57600080fd5b82359150612f8e60208401612cc2565b90509250929050565b634e487b7160e01b600052602160045260246000fd5b6020810160068310612fcf57634e487b7160e01b600052602160045260246000fd5b91905290565b60008060208385031215612fe857600080fd5b82356001600160401b0380821115612fff57600080fd5b818501915085601f83011261301357600080fd5b81358181111561302257600080fd5b86602060608302850101111561303757600080fd5b60209290920196919550909350505050565b60006020828403121561305b57600080fd5b61167c82612cc2565b803560068110611ed157600080fd5b60006020828403121561308557600080fd5b61167c82613064565b6001600160a01b0392909216825261ffff16602082015260400190565b6000602082840312156130bd57600080fd5b81356001600160401b038111156130d357600080fd5b611fba84828501612dc9565b803561ffff81168114611ed157600080fd5b6000806040838503121561310457600080fd5b82356001600160401b038082111561311b57600080fd5b90840190610100828703121561313057600080fd5b613138612d19565b82358281111561314757600080fd5b61315388828601612dc9565b82525060208301358281111561316857600080fd5b61317488828601612dc9565b60208301525060408301358281111561318c57600080fd5b61319888828601612dc9565b604083015250606083013560608201526131b460808401612cc2565b60808201526131c560a084016130df565b60a08201526131d660c08401612cc2565b60c08201526131e760e08401613064565b60e08201529350612f8e91505060208401612cc2565b6000806040838503121561321057600080fd5b61321983612cc2565b91506020830135801515811461322e57600080fd5b809150509250929050565b6000806000806080858703121561324f57600080fd5b61325885612cc2565b935061326660208601612cc2565b92506040850135915060608501356001600160401b0381111561328857600080fd5b8501601f8101871361329957600080fd5b6132a887823560208401612d72565b91505092959194509250565b602080825282518282018190526000919060409081850190868401855b8281101561330857815180516001600160a01b031685528601516001600160601b03168685015292840192908501906001016132d1565b5091979650505050505050565b6000806040838503121561332857600080fd5b61333183612cc2565b9150612f8e60208401612cc2565b60006040828403121561335157600080fd5b50919050565b634e487b7160e01b600052601160045260246000fd5b600081600019048311821515161561338757613387613357565b500290565b634e487b7160e01b600052601260045260246000fd5b6000826133b1576133b161338c565b500490565b600082198211156133c9576133c9613357565b500190565b634e487b7160e01b600052603260045260246000fd5b6000600182016133f6576133f6613357565b5060010190565b60006060828403121561340f57600080fd5b604051606081018181106001600160401b038211171561343157613431612d03565b6040528235815261344460208401612cc2565b6020820152613455604084016130df565b60408201529392505050565b60006020828403121561347357600080fd5b5051919050565b600181811c9082168061348e57607f821691505b60208210810361335157634e487b7160e01b600052602260045260246000fd5b601f821115610bc357600081815260208120601f850160051c810160208610156134d55750805b601f850160051c820191505b81811015610a55578281556001016134e1565b81516001600160401b0381111561350d5761350d612d03565b6135218161351b845461347a565b846134ae565b602080601f831160018114613556576000841561353e5750858301515b600019600386901b1c1916600185901b178555610a55565b600085815260208120601f198616915b8281101561358557888601518255948401946001909101908401613566565b50858210156135a35787850151600019600388901b60f8161c191681555b5050505050600190811b01905550565b600083516135c5818460208801612c43565b8351908301906135d9818360208801612c43565b01949350505050565b6000604082840312156135f457600080fd5b604051604081018181106001600160401b038211171561361657613616612d03565b60405261362283612cc2565b8152613630602084016130df565b60208201529392505050565b6020808252600b908201526a496e76616c69642062707360a81b604082015260600190565b6020808252602b908201527f496e697469616c697a61626c653a20636f6e7472616374206973206e6f74206960408201526a6e697469616c697a696e6760a81b606082015260800190565b6001600160a01b03858116825284166020820152604081018390526080606082018190526000906136df90830184612c6f565b9695505050505050565b6000602082840312156136fb57600080fd5b815161167c81612bf7565b60008282101561371857613718613357565b500390565b60008261372c5761372c61338c565b500690565b76020b1b1b2b9b9a1b7b73a3937b61d1030b1b1b7bab73a1604d1b815260008351613763816017850160208801612c43565b7001034b99036b4b9b9b4b733903937b6329607d1b6017918401918201528351613794816028840160208801612c43565b01602801949350505050565b6000816137af576137af613357565b506000190190565b634e487b7160e01b600052603160045260246000fdfe61723a2f2f5f44396b4e3157724e576243713535425341475262544234625333763851415054596d42546853625833412f9f2df0fed2c77648de5860a4cc508cd0818c85b8b8a1ab4ceeef8d981c8956a6ddf252ad1be2c89b69c2b068fc378daa952ba7f163c4a11628f55a4df523b3efa26469706673582212201ee0c4a2e468336b570314601f89641efa56f7221308e2a5089a49f53793a85e64736f6c634300080f0033",
  "devdoc": {
    "kind": "dev",
    "methods": {
      "approve(address,uint256)": {
        "details": "Gives permission to `to` to transfer `tokenId` token to another account. The approval is cleared when the token is transferred. Only a single account can be approved at a time, so approving the zero address clears previous approvals. Requirements: - The caller must own the token or be an approved operator. - `tokenId` must exist. Emits an {Approval} event."
      },
      "balanceOf(address)": {
        "details": "Returns the number of tokens in `owner`'s account."
      },
      "getApproved(uint256)": {
        "details": "Returns the account approved for `tokenId` token. Requirements: - `tokenId` must exist."
      },
      "getRoleAdmin(bytes32)": {
        "details": "Returns the admin role that controls `role`. See {grantRole} and {revokeRole}. To change a role's admin, use {_setRoleAdmin}."
      },
      "getTokenRoyaltiesCount()": {
        "details": "See {IEIP2981RoyaltyOverride-getTokenRoyaltiesCount}."
      },
      "getTokenRoyaltyByIndex(uint256)": {
        "details": "See {IEIP2981RoyaltyOverride-getTokenRoyaltyByIndex}."
      },
      "grantRole(bytes32,address)": {
        "details": "Grants `role` to `account`. If `account` had not been already granted `role`, emits a {RoleGranted} event. Requirements: - the caller must have ``role``'s admin role. May emit a {RoleGranted} event."
      },
      "hasRole(bytes32,address)": {
        "details": "Returns `true` if `account` has been granted `role`."
      },
      "isApprovedForAll(address,address)": {
        "details": "Returns if the `operator` is allowed to manage all of the assets of `owner`. See {setApprovalForAll}."
      },
      "owner()": {
        "details": "Returns the address of the current owner."
      },
      "ownerOf(uint256)": {
        "details": "Returns the owner of the `tokenId` token. Requirements: - `tokenId` must exist."
      },
      "renounceOwnership()": {
        "details": "Leaves the contract without owner. It will not be possible to call `onlyOwner` functions anymore. Can only be called by the current owner. NOTE: Renouncing ownership will leave the contract without an owner, thereby removing any functionality that is only available to the owner."
      },
      "renounceRole(bytes32,address)": {
        "details": "Revokes `role` from the calling account. Roles are often managed via {grantRole} and {revokeRole}: this function's purpose is to provide a mechanism for accounts to lose their privileges if they are compromised (such as when a trusted device is misplaced). If the calling account had been revoked `role`, emits a {RoleRevoked} event. Requirements: - the caller must be `account`. May emit a {RoleRevoked} event."
      },
      "revokeRole(bytes32,address)": {
        "details": "Revokes `role` from `account`. If `account` had been granted `role`, emits a {RoleRevoked} event. Requirements: - the caller must have ``role``'s admin role. May emit a {RoleRevoked} event."
      },
      "royaltyInfo(uint256,uint256)": {
        "details": "See {IEIP2981RoyaltyOverride-royaltyInfo}."
      },
      "safeTransferFrom(address,address,uint256)": {
        "details": "Equivalent to `safeTransferFrom(from, to, tokenId, '')`."
      },
      "safeTransferFrom(address,address,uint256,bytes)": {
        "details": "Safely transfers `tokenId` token from `from` to `to`. Requirements: - `from` cannot be the zero address. - `to` cannot be the zero address. - `tokenId` token must exist and be owned by `from`. - If the caller is not `from`, it must be approved to move this token by either {approve} or {setApprovalForAll}. - If `to` refers to a smart contract, it must implement {IERC721Receiver-onERC721Received}, which is called upon a safe transfer. Emits a {Transfer} event."
      },
      "setApprovalForAll(address,bool)": {
        "details": "Approve or remove `operator` as an operator for the caller. Operators can call {transferFrom} or {safeTransferFrom} for any token owned by the caller. Requirements: - The `operator` cannot be the caller. Emits an {ApprovalForAll} event."
      },
      "totalSupply()": {
        "details": "Returns the total number of tokens in existence. Burned tokens will reduce the count. To get the total number of tokens minted, please see {_totalMinted}."
      },
      "transferFrom(address,address,uint256)": {
        "details": "Transfers `tokenId` from `from` to `to`. Requirements: - `from` cannot be the zero address. - `to` cannot be the zero address. - `tokenId` token must be owned by `from`. - If the caller is not `from`, it must be approved to move this token by either {approve} or {setApprovalForAll}. Emits a {Transfer} event."
      },
      "transferOwnership(address)": {
        "details": "Transfers ownership of the contract to a new account (`newOwner`). Can only be called by the current owner."
      }
    },
    "version": 1
  },
  "userdoc": {
    "errors": {
      "ApprovalCallerNotOwnerNorApproved()": [
        {
          "notice": "The caller must own the token or be an approved operator."
        }
      ],
      "ApprovalQueryForNonexistentToken()": [
        {
          "notice": "The token does not exist."
        }
      ],
      "ApproveToCaller()": [
        {
          "notice": "The caller cannot approve to their own address."
        }
      ],
      "BalanceQueryForZeroAddress()": [
        {
          "notice": "Cannot query the balance for the zero address."
        }
      ],
      "MintERC2309QuantityExceedsLimit()": [
        {
          "notice": "The `quantity` minted with ERC2309 exceeds the safety limit."
        }
      ],
      "MintToZeroAddress()": [
        {
          "notice": "Cannot mint to the zero address."
        }
      ],
      "MintZeroQuantity()": [
        {
          "notice": "The quantity of tokens minted must be more than zero."
        }
      ],
      "OwnerQueryForNonexistentToken()": [
        {
          "notice": "The token does not exist."
        }
      ],
      "OwnershipNotInitializedForExtraData()": [
        {
          "notice": "The `extraData` cannot be set on an unintialized ownership slot."
        }
      ],
      "TransferCallerNotOwnerNorApproved()": [
        {
          "notice": "The caller must own the token or be an approved operator."
        }
      ],
      "TransferFromIncorrectOwner()": [
        {
          "notice": "The token must be owned by `from`."
        }
      ],
      "TransferToNonERC721ReceiverImplementer()": [
        {
          "notice": "Cannot safely transfer to a contract that does not implement the ERC721Receiver interface."
        }
      ],
      "TransferToZeroAddress()": [
        {
          "notice": "Cannot transfer to the zero address."
        }
      ],
      "URIQueryForNonexistentToken()": [
        {
          "notice": "The token does not exist."
        }
      ]
    },
    "kind": "user",
    "methods": {},
    "version": 1
  },
  "storageLayout": {
    "storage": [
      {
        "astId": 1101,
        "contract": "contracts/collections/ERC721A/presets/ERC721AOneOfOneCollection.sol:ERC721AOneOfOneCollection",
        "label": "_initialized",
        "offset": 0,
        "slot": "0",
        "type": "t_uint8"
      },
      {
        "astId": 1104,
        "contract": "contracts/collections/ERC721A/presets/ERC721AOneOfOneCollection.sol:ERC721AOneOfOneCollection",
        "label": "_initializing",
        "offset": 1,
        "slot": "0",
        "type": "t_bool"
      },
      {
        "astId": 937,
        "contract": "contracts/collections/ERC721A/presets/ERC721AOneOfOneCollection.sol:ERC721AOneOfOneCollection",
        "label": "_owner",
        "offset": 2,
        "slot": "0",
        "type": "t_address"
      },
      {
        "astId": 561,
        "contract": "contracts/collections/ERC721A/presets/ERC721AOneOfOneCollection.sol:ERC721AOneOfOneCollection",
        "label": "_roles",
        "offset": 0,
        "slot": "1",
        "type": "t_mapping(t_bytes32,t_struct(RoleData)556_storage)"
      },
      {
        "astId": 5404,
        "contract": "contracts/collections/ERC721A/presets/ERC721AOneOfOneCollection.sol:ERC721AOneOfOneCollection",
        "label": "_supportedInterfaces",
        "offset": 0,
        "slot": "2",
        "type": "t_mapping(t_bytes4,t_bool)"
      },
      {
        "astId": 24,
        "contract": "contracts/collections/ERC721A/presets/ERC721AOneOfOneCollection.sol:ERC721AOneOfOneCollection",
        "label": "licenseVersion",
        "offset": 0,
        "slot": "3",
        "type": "t_enum(LicenseVersion)11"
      },
      {
        "astId": 14563,
        "contract": "contracts/collections/ERC721A/presets/ERC721AOneOfOneCollection.sol:ERC721AOneOfOneCollection",
        "label": "licenseVersionLocked",
        "offset": 1,
        "slot": "3",
        "type": "t_bool"
      },
      {
        "astId": 21533,
        "contract": "contracts/collections/ERC721A/presets/ERC721AOneOfOneCollection.sol:ERC721AOneOfOneCollection",
        "label": "_currentIndex",
        "offset": 0,
        "slot": "4",
        "type": "t_uint256"
      },
      {
        "astId": 21535,
        "contract": "contracts/collections/ERC721A/presets/ERC721AOneOfOneCollection.sol:ERC721AOneOfOneCollection",
        "label": "_burnCounter",
        "offset": 0,
        "slot": "5",
        "type": "t_uint256"
      },
      {
        "astId": 21537,
        "contract": "contracts/collections/ERC721A/presets/ERC721AOneOfOneCollection.sol:ERC721AOneOfOneCollection",
        "label": "_name",
        "offset": 0,
        "slot": "6",
        "type": "t_string_storage"
      },
      {
        "astId": 21539,
        "contract": "contracts/collections/ERC721A/presets/ERC721AOneOfOneCollection.sol:ERC721AOneOfOneCollection",
        "label": "_symbol",
        "offset": 0,
        "slot": "7",
        "type": "t_string_storage"
      },
      {
        "astId": 21543,
        "contract": "contracts/collections/ERC721A/presets/ERC721AOneOfOneCollection.sol:ERC721AOneOfOneCollection",
        "label": "_packedOwnerships",
        "offset": 0,
        "slot": "8",
        "type": "t_mapping(t_uint256,t_uint256)"
      },
      {
        "astId": 21547,
        "contract": "contracts/collections/ERC721A/presets/ERC721AOneOfOneCollection.sol:ERC721AOneOfOneCollection",
        "label": "_packedAddressData",
        "offset": 0,
        "slot": "9",
        "type": "t_mapping(t_address,t_uint256)"
      },
      {
        "astId": 21552,
        "contract": "contracts/collections/ERC721A/presets/ERC721AOneOfOneCollection.sol:ERC721AOneOfOneCollection",
        "label": "_tokenApprovals",
        "offset": 0,
        "slot": "10",
        "type": "t_mapping(t_uint256,t_struct(TokenApprovalRef)21465_storage)"
      },
      {
        "astId": 21558,
        "contract": "contracts/collections/ERC721A/presets/ERC721AOneOfOneCollection.sol:ERC721AOneOfOneCollection",
        "label": "_operatorApprovals",
        "offset": 0,
        "slot": "11",
        "type": "t_mapping(t_address,t_mapping(t_address,t_bool))"
      },
      {
        "astId": 10995,
        "contract": "contracts/collections/ERC721A/presets/ERC721AOneOfOneCollection.sol:ERC721AOneOfOneCollection",
        "label": "_name",
        "offset": 0,
        "slot": "12",
        "type": "t_string_storage"
      },
      {
        "astId": 10997,
        "contract": "contracts/collections/ERC721A/presets/ERC721AOneOfOneCollection.sol:ERC721AOneOfOneCollection",
        "label": "_symbol",
        "offset": 0,
        "slot": "13",
        "type": "t_string_storage"
      },
      {
        "astId": 10999,
        "contract": "contracts/collections/ERC721A/presets/ERC721AOneOfOneCollection.sol:ERC721AOneOfOneCollection",
        "label": "_contractURI",
        "offset": 0,
        "slot": "14",
        "type": "t_string_storage"
      },
      {
        "astId": 11447,
        "contract": "contracts/collections/ERC721A/presets/ERC721AOneOfOneCollection.sol:ERC721AOneOfOneCollection",
        "label": "maxSupply",
        "offset": 0,
        "slot": "15",
        "type": "t_uint256"
      },
      {
        "astId": 11449,
        "contract": "contracts/collections/ERC721A/presets/ERC721AOneOfOneCollection.sol:ERC721AOneOfOneCollection",
        "label": "maxSupplyFrozen",
        "offset": 0,
        "slot": "16",
        "type": "t_bool"
      },
      {
        "astId": 11969,
        "contract": "contracts/collections/ERC721A/presets/ERC721AOneOfOneCollection.sol:ERC721AOneOfOneCollection",
        "label": "lastFrozenTokenId",
        "offset": 0,
        "slot": "17",
        "type": "t_uint256"
      },
      {
        "astId": 11976,
        "contract": "contracts/collections/ERC721A/presets/ERC721AOneOfOneCollection.sol:ERC721AOneOfOneCollection",
        "label": "_tokenURIs",
        "offset": 0,
        "slot": "18",
        "type": "t_mapping(t_uint256,t_string_storage)"
      },
      {
        "astId": 241,
        "contract": "contracts/collections/ERC721A/presets/ERC721AOneOfOneCollection.sol:ERC721AOneOfOneCollection",
        "label": "defaultRoyalty",
        "offset": 0,
        "slot": "19",
        "type": "t_struct(TokenRoyalty)183_storage"
      },
      {
        "astId": 246,
        "contract": "contracts/collections/ERC721A/presets/ERC721AOneOfOneCollection.sol:ERC721AOneOfOneCollection",
        "label": "_tokenRoyalties",
        "offset": 0,
        "slot": "20",
        "type": "t_mapping(t_uint256,t_struct(TokenRoyalty)183_storage)"
      },
      {
        "astId": 249,
        "contract": "contracts/collections/ERC721A/presets/ERC721AOneOfOneCollection.sol:ERC721AOneOfOneCollection",
        "label": "_tokensWithRoyalties",
        "offset": 0,
        "slot": "21",
        "type": "t_struct(UintSet)6375_storage"
      },
      {
        "astId": 15010,
        "contract": "contracts/collections/ERC721A/presets/ERC721AOneOfOneCollection.sol:ERC721AOneOfOneCollection",
        "label": "_trustedForwarder",
        "offset": 0,
        "slot": "23",
        "type": "t_address"
      }
    ],
    "types": {
      "t_address": {
        "encoding": "inplace",
        "label": "address",
        "numberOfBytes": "20"
      },
      "t_array(t_bytes32)dyn_storage": {
        "base": "t_bytes32",
        "encoding": "dynamic_array",
        "label": "bytes32[]",
        "numberOfBytes": "32"
      },
      "t_bool": {
        "encoding": "inplace",
        "label": "bool",
        "numberOfBytes": "1"
      },
      "t_bytes32": {
        "encoding": "inplace",
        "label": "bytes32",
        "numberOfBytes": "32"
      },
      "t_bytes4": {
        "encoding": "inplace",
        "label": "bytes4",
        "numberOfBytes": "4"
      },
      "t_enum(LicenseVersion)11": {
        "encoding": "inplace",
        "label": "enum LicenseVersion",
        "numberOfBytes": "1"
      },
      "t_mapping(t_address,t_bool)": {
        "encoding": "mapping",
        "key": "t_address",
        "label": "mapping(address => bool)",
        "numberOfBytes": "32",
        "value": "t_bool"
      },
      "t_mapping(t_address,t_mapping(t_address,t_bool))": {
        "encoding": "mapping",
        "key": "t_address",
        "label": "mapping(address => mapping(address => bool))",
        "numberOfBytes": "32",
        "value": "t_mapping(t_address,t_bool)"
      },
      "t_mapping(t_address,t_uint256)": {
        "encoding": "mapping",
        "key": "t_address",
        "label": "mapping(address => uint256)",
        "numberOfBytes": "32",
        "value": "t_uint256"
      },
      "t_mapping(t_bytes32,t_struct(RoleData)556_storage)": {
        "encoding": "mapping",
        "key": "t_bytes32",
        "label": "mapping(bytes32 => struct AccessControl.RoleData)",
        "numberOfBytes": "32",
        "value": "t_struct(RoleData)556_storage"
      },
      "t_mapping(t_bytes32,t_uint256)": {
        "encoding": "mapping",
        "key": "t_bytes32",
        "label": "mapping(bytes32 => uint256)",
        "numberOfBytes": "32",
        "value": "t_uint256"
      },
      "t_mapping(t_bytes4,t_bool)": {
        "encoding": "mapping",
        "key": "t_bytes4",
        "label": "mapping(bytes4 => bool)",
        "numberOfBytes": "32",
        "value": "t_bool"
      },
      "t_mapping(t_uint256,t_string_storage)": {
        "encoding": "mapping",
        "key": "t_uint256",
        "label": "mapping(uint256 => string)",
        "numberOfBytes": "32",
        "value": "t_string_storage"
      },
      "t_mapping(t_uint256,t_struct(TokenApprovalRef)21465_storage)": {
        "encoding": "mapping",
        "key": "t_uint256",
        "label": "mapping(uint256 => struct ERC721A.TokenApprovalRef)",
        "numberOfBytes": "32",
        "value": "t_struct(TokenApprovalRef)21465_storage"
      },
      "t_mapping(t_uint256,t_struct(TokenRoyalty)183_storage)": {
        "encoding": "mapping",
        "key": "t_uint256",
        "label": "mapping(uint256 => struct IEIP2981RoyaltyOverride.TokenRoyalty)",
        "numberOfBytes": "32",
        "value": "t_struct(TokenRoyalty)183_storage"
      },
      "t_mapping(t_uint256,t_uint256)": {
        "encoding": "mapping",
        "key": "t_uint256",
        "label": "mapping(uint256 => uint256)",
        "numberOfBytes": "32",
        "value": "t_uint256"
      },
      "t_string_storage": {
        "encoding": "bytes",
        "label": "string",
        "numberOfBytes": "32"
      },
      "t_struct(RoleData)556_storage": {
        "encoding": "inplace",
        "label": "struct AccessControl.RoleData",
        "members": [
          {
            "astId": 553,
            "contract": "contracts/collections/ERC721A/presets/ERC721AOneOfOneCollection.sol:ERC721AOneOfOneCollection",
            "label": "members",
            "offset": 0,
            "slot": "0",
            "type": "t_mapping(t_address,t_bool)"
          },
          {
            "astId": 555,
            "contract": "contracts/collections/ERC721A/presets/ERC721AOneOfOneCollection.sol:ERC721AOneOfOneCollection",
            "label": "adminRole",
            "offset": 0,
            "slot": "1",
            "type": "t_bytes32"
          }
        ],
        "numberOfBytes": "64"
      },
      "t_struct(Set)5917_storage": {
        "encoding": "inplace",
        "label": "struct EnumerableSet.Set",
        "members": [
          {
            "astId": 5912,
            "contract": "contracts/collections/ERC721A/presets/ERC721AOneOfOneCollection.sol:ERC721AOneOfOneCollection",
            "label": "_values",
            "offset": 0,
            "slot": "0",
            "type": "t_array(t_bytes32)dyn_storage"
          },
          {
            "astId": 5916,
            "contract": "contracts/collections/ERC721A/presets/ERC721AOneOfOneCollection.sol:ERC721AOneOfOneCollection",
            "label": "_indexes",
            "offset": 0,
            "slot": "1",
            "type": "t_mapping(t_bytes32,t_uint256)"
          }
        ],
        "numberOfBytes": "64"
      },
      "t_struct(TokenApprovalRef)21465_storage": {
        "encoding": "inplace",
        "label": "struct ERC721A.TokenApprovalRef",
        "members": [
          {
            "astId": 21464,
            "contract": "contracts/collections/ERC721A/presets/ERC721AOneOfOneCollection.sol:ERC721AOneOfOneCollection",
            "label": "value",
            "offset": 0,
            "slot": "0",
            "type": "t_address"
          }
        ],
        "numberOfBytes": "32"
      },
      "t_struct(TokenRoyalty)183_storage": {
        "encoding": "inplace",
        "label": "struct IEIP2981RoyaltyOverride.TokenRoyalty",
        "members": [
          {
            "astId": 180,
            "contract": "contracts/collections/ERC721A/presets/ERC721AOneOfOneCollection.sol:ERC721AOneOfOneCollection",
            "label": "recipient",
            "offset": 0,
            "slot": "0",
            "type": "t_address"
          },
          {
            "astId": 182,
            "contract": "contracts/collections/ERC721A/presets/ERC721AOneOfOneCollection.sol:ERC721AOneOfOneCollection",
            "label": "bps",
            "offset": 20,
            "slot": "0",
            "type": "t_uint16"
          }
        ],
        "numberOfBytes": "32"
      },
      "t_struct(UintSet)6375_storage": {
        "encoding": "inplace",
        "label": "struct EnumerableSet.UintSet",
        "members": [
          {
            "astId": 6374,
            "contract": "contracts/collections/ERC721A/presets/ERC721AOneOfOneCollection.sol:ERC721AOneOfOneCollection",
            "label": "_inner",
            "offset": 0,
            "slot": "0",
            "type": "t_struct(Set)5917_storage"
          }
        ],
        "numberOfBytes": "64"
      },
      "t_uint16": {
        "encoding": "inplace",
        "label": "uint16",
        "numberOfBytes": "2"
      },
      "t_uint256": {
        "encoding": "inplace",
        "label": "uint256",
        "numberOfBytes": "32"
      },
      "t_uint8": {
        "encoding": "inplace",
        "label": "uint8",
        "numberOfBytes": "1"
      }
    }
  }
}