{
  "address": "0x5256475ee5aD36dC9A5dDb51072B9BAC4aB91eDc",
  "abi": [
    {
      "inputs": [
        {
          "components": [
            {
              "internalType": "address",
              "name": "ticketToken",
              "type": "address"
            },
            {
              "internalType": "uint64",
              "name": "lockedUntilTimestamp",
              "type": "uint64"
            },
            {
              "internalType": "uint64",
              "name": "minStakingLockTime",
              "type": "uint64"
            },
            {
              "internalType": "uint64",
              "name": "maxStakingTotalDurations",
              "type": "uint64"
            },
            {
              "internalType": "uint256",
              "name": "emissionRate",
              "type": "uint256"
            },
            {
              "internalType": "uint64",
              "name": "emissionTimeUnit",
              "type": "uint64"
            },
            {
              "internalType": "uint64",
              "name": "emissionStart",
              "type": "uint64"
            },
            {
              "internalType": "uint64",
              "name": "emissionEnd",
              "type": "uint64"
            },
            {
              "internalType": "uint64",
              "name": "claimLockedUntil",
              "type": "uint64"
            }
          ],
          "internalType": "struct ERC721LockedStakingEmissionStream.Config",
          "name": "config",
          "type": "tuple"
        }
      ],
      "stateMutability": "nonpayable",
      "type": "constructor"
    },
    {
      "anonymous": false,
      "inputs": [
        {
          "indexed": false,
          "internalType": "address",
          "name": "operator",
          "type": "address"
        },
        {
          "indexed": false,
          "internalType": "address",
          "name": "beneficiary",
          "type": "address"
        },
        {
          "indexed": false,
          "internalType": "uint256",
          "name": "ticketTokenId",
          "type": "uint256"
        },
        {
          "indexed": false,
          "internalType": "address",
          "name": "claimToken",
          "type": "address"
        },
        {
          "indexed": false,
          "internalType": "uint256",
          "name": "releasedAmount",
          "type": "uint256"
        }
      ],
      "name": "Claim",
      "type": "event"
    },
    {
      "anonymous": false,
      "inputs": [
        {
          "indexed": false,
          "internalType": "address",
          "name": "operator",
          "type": "address"
        },
        {
          "indexed": false,
          "internalType": "address",
          "name": "beneficiary",
          "type": "address"
        },
        {
          "indexed": false,
          "internalType": "uint256[]",
          "name": "ticketTokenIds",
          "type": "uint256[]"
        },
        {
          "indexed": false,
          "internalType": "address",
          "name": "claimToken",
          "type": "address"
        },
        {
          "indexed": false,
          "internalType": "uint256",
          "name": "releasedAmount",
          "type": "uint256"
        }
      ],
      "name": "ClaimMany",
      "type": "event"
    },
    {
      "anonymous": false,
      "inputs": [],
      "name": "EmergencyPowerRevoked",
      "type": "event"
    },
    {
      "anonymous": false,
      "inputs": [
        {
          "indexed": false,
          "internalType": "address[]",
          "name": "claimTokens",
          "type": "address[]"
        }
      ],
      "name": "EmergencyWithdrawn",
      "type": "event"
    },
    {
      "anonymous": false,
      "inputs": [
        {
          "indexed": false,
          "internalType": "uint8",
          "name": "version",
          "type": "uint8"
        }
      ],
      "name": "Initialized",
      "type": "event"
    },
    {
      "anonymous": false,
      "inputs": [
        {
          "indexed": true,
          "internalType": "address",
          "name": "previousOwner",
          "type": "address"
        },
        {
          "indexed": true,
          "internalType": "address",
          "name": "newOwner",
          "type": "address"
        }
      ],
      "name": "OwnershipTransferred",
      "type": "event"
    },
    {
      "inputs": [
        {
          "internalType": "uint256",
          "name": "ticketTokenId",
          "type": "uint256"
        }
      ],
      "name": "claim",
      "outputs": [],
      "stateMutability": "nonpayable",
      "type": "function"
    },
    {
      "inputs": [
        {
          "internalType": "uint256[]",
          "name": "ticketTokenIds",
          "type": "uint256[]"
        }
      ],
      "name": "claim",
      "outputs": [],
      "stateMutability": "nonpayable",
      "type": "function"
    },
    {
      "inputs": [
        {
          "internalType": "uint256",
          "name": "ticketTokenId",
          "type": "uint256"
        },
        {
          "internalType": "address",
          "name": "claimToken",
          "type": "address"
        }
      ],
      "name": "claim",
      "outputs": [],
      "stateMutability": "nonpayable",
      "type": "function"
    },
    {
      "inputs": [
        {
          "internalType": "uint256[]",
          "name": "ticketTokenIds",
          "type": "uint256[]"
        },
        {
          "internalType": "address",
          "name": "claimToken",
          "type": "address"
        },
        {
          "internalType": "address",
          "name": "owner",
          "type": "address"
        }
      ],
      "name": "claim",
      "outputs": [],
      "stateMutability": "nonpayable",
      "type": "function"
    },
    {
      "inputs": [],
      "name": "claimLockedUntil",
      "outputs": [
        {
          "internalType": "uint64",
          "name": "",
          "type": "uint64"
        }
      ],
      "stateMutability": "view",
      "type": "function"
    },
    {
      "inputs": [],
      "name": "emergencyPowerRevoked",
      "outputs": [
        {
          "internalType": "bool",
          "name": "",
          "type": "bool"
        }
      ],
      "stateMutability": "view",
      "type": "function"
    },
    {
      "inputs": [
        {
          "internalType": "address[]",
          "name": "claimTokens",
          "type": "address[]"
        }
      ],
      "name": "emergencyWithdraw",
      "outputs": [],
      "stateMutability": "nonpayable",
      "type": "function"
    },
    {
      "inputs": [
        {
          "internalType": "uint64",
          "name": "calcUntil",
          "type": "uint64"
        }
      ],
      "name": "emissionAmountUntil",
      "outputs": [
        {
          "internalType": "uint256",
          "name": "",
          "type": "uint256"
        }
      ],
      "stateMutability": "view",
      "type": "function"
    },
    {
      "inputs": [],
      "name": "emissionEnd",
      "outputs": [
        {
          "internalType": "uint64",
          "name": "",
          "type": "uint64"
        }
      ],
      "stateMutability": "view",
      "type": "function"
    },
    {
      "inputs": [],
      "name": "emissionRate",
      "outputs": [
        {
          "internalType": "uint256",
          "name": "",
          "type": "uint256"
        }
      ],
      "stateMutability": "view",
      "type": "function"
    },
    {
      "inputs": [],
      "name": "emissionStart",
      "outputs": [
        {
          "internalType": "uint64",
          "name": "",
          "type": "uint64"
        }
      ],
      "stateMutability": "view",
      "type": "function"
    },
    {
      "inputs": [],
      "name": "emissionTimeUnit",
      "outputs": [
        {
          "internalType": "uint64",
          "name": "",
          "type": "uint64"
        }
      ],
      "stateMutability": "view",
      "type": "function"
    },
    {
      "inputs": [
        {
          "internalType": "uint256",
          "name": "",
          "type": "uint256"
        },
        {
          "internalType": "address",
          "name": "",
          "type": "address"
        }
      ],
      "name": "entitlements",
      "outputs": [
        {
          "internalType": "uint256",
          "name": "totalClaimed",
          "type": "uint256"
        },
        {
          "internalType": "uint256",
          "name": "lastClaimedAt",
          "type": "uint256"
        }
      ],
      "stateMutability": "view",
      "type": "function"
    },
    {
      "inputs": [],
      "name": "hasERC721EmissionReleaseExtension",
      "outputs": [
        {
          "internalType": "bool",
          "name": "",
          "type": "bool"
        }
      ],
      "stateMutability": "pure",
      "type": "function"
    },
    {
      "inputs": [],
      "name": "hasERC721LockableClaimExtension",
      "outputs": [
        {
          "internalType": "bool",
          "name": "",
          "type": "bool"
        }
      ],
      "stateMutability": "pure",
      "type": "function"
    },
    {
      "inputs": [],
      "name": "hasERC721LockedStakingExtension",
      "outputs": [
        {
          "internalType": "bool",
          "name": "",
          "type": "bool"
        }
      ],
      "stateMutability": "pure",
      "type": "function"
    },
    {
      "inputs": [
        {
          "components": [
            {
              "internalType": "address",
              "name": "ticketToken",
              "type": "address"
            },
            {
              "internalType": "uint64",
              "name": "lockedUntilTimestamp",
              "type": "uint64"
            },
            {
              "internalType": "uint64",
              "name": "minStakingLockTime",
              "type": "uint64"
            },
            {
              "internalType": "uint64",
              "name": "maxStakingTotalDurations",
              "type": "uint64"
            },
            {
              "internalType": "uint256",
              "name": "emissionRate",
              "type": "uint256"
            },
            {
              "internalType": "uint64",
              "name": "emissionTimeUnit",
              "type": "uint64"
            },
            {
              "internalType": "uint64",
              "name": "emissionStart",
              "type": "uint64"
            },
            {
              "internalType": "uint64",
              "name": "emissionEnd",
              "type": "uint64"
            },
            {
              "internalType": "uint64",
              "name": "claimLockedUntil",
              "type": "uint64"
            }
          ],
          "internalType": "struct ERC721LockedStakingEmissionStream.Config",
          "name": "config",
          "type": "tuple"
        },
        {
          "internalType": "address",
          "name": "deployer",
          "type": "address"
        }
      ],
      "name": "initialize",
      "outputs": [],
      "stateMutability": "nonpayable",
      "type": "function"
    },
    {
      "inputs": [
        {
          "internalType": "uint256",
          "name": "",
          "type": "uint256"
        }
      ],
      "name": "lastStakingTime",
      "outputs": [
        {
          "internalType": "uint64",
          "name": "",
          "type": "uint64"
        }
      ],
      "stateMutability": "view",
      "type": "function"
    },
    {
      "inputs": [
        {
          "internalType": "uint64",
          "name": "newValue",
          "type": "uint64"
        }
      ],
      "name": "lockUntil",
      "outputs": [],
      "stateMutability": "nonpayable",
      "type": "function"
    },
    {
      "inputs": [],
      "name": "lockedUntilTimestamp",
      "outputs": [
        {
          "internalType": "uint64",
          "name": "",
          "type": "uint64"
        }
      ],
      "stateMutability": "view",
      "type": "function"
    },
    {
      "inputs": [],
      "name": "maxStakingTotalDurations",
      "outputs": [
        {
          "internalType": "uint64",
          "name": "",
          "type": "uint64"
        }
      ],
      "stateMutability": "view",
      "type": "function"
    },
    {
      "inputs": [],
      "name": "minStakingLockTime",
      "outputs": [
        {
          "internalType": "uint64",
          "name": "",
          "type": "uint64"
        }
      ],
      "stateMutability": "view",
      "type": "function"
    },
    {
      "inputs": [],
      "name": "name",
      "outputs": [
        {
          "internalType": "string",
          "name": "",
          "type": "string"
        }
      ],
      "stateMutability": "view",
      "type": "function"
    },
    {
      "inputs": [],
      "name": "owner",
      "outputs": [
        {
          "internalType": "address",
          "name": "",
          "type": "address"
        }
      ],
      "stateMutability": "view",
      "type": "function"
    },
    {
      "inputs": [
        {
          "internalType": "uint64",
          "name": "calcUntil",
          "type": "uint64"
        }
      ],
      "name": "releasedAmountUntil",
      "outputs": [
        {
          "internalType": "uint256",
          "name": "",
          "type": "uint256"
        }
      ],
      "stateMutability": "view",
      "type": "function"
    },
    {
      "inputs": [],
      "name": "renounceOwnership",
      "outputs": [],
      "stateMutability": "nonpayable",
      "type": "function"
    },
    {
      "inputs": [],
      "name": "revokeEmergencyPower",
      "outputs": [],
      "stateMutability": "nonpayable",
      "type": "function"
    },
    {
      "inputs": [
        {
          "internalType": "uint256[]",
          "name": "ticketTokenIds",
          "type": "uint256[]"
        }
      ],
      "name": "rewardAmountByToken",
      "outputs": [
        {
          "internalType": "uint256",
          "name": "total",
          "type": "uint256"
        }
      ],
      "stateMutability": "view",
      "type": "function"
    },
    {
      "inputs": [
        {
          "internalType": "uint256",
          "name": "ticketTokenId",
          "type": "uint256"
        }
      ],
      "name": "rewardAmountByToken",
      "outputs": [
        {
          "internalType": "uint256",
          "name": "",
          "type": "uint256"
        }
      ],
      "stateMutability": "view",
      "type": "function"
    },
    {
      "inputs": [
        {
          "internalType": "uint256",
          "name": "",
          "type": "uint256"
        }
      ],
      "name": "savedStakedDurations",
      "outputs": [
        {
          "internalType": "uint64",
          "name": "",
          "type": "uint64"
        }
      ],
      "stateMutability": "view",
      "type": "function"
    },
    {
      "inputs": [
        {
          "internalType": "uint64",
          "name": "newValue",
          "type": "uint64"
        }
      ],
      "name": "setClaimLockedUntil",
      "outputs": [],
      "stateMutability": "nonpayable",
      "type": "function"
    },
    {
      "inputs": [
        {
          "internalType": "uint64",
          "name": "newValue",
          "type": "uint64"
        }
      ],
      "name": "setEmissionEnd",
      "outputs": [],
      "stateMutability": "nonpayable",
      "type": "function"
    },
    {
      "inputs": [
        {
          "internalType": "uint256",
          "name": "newValue",
          "type": "uint256"
        }
      ],
      "name": "setEmissionRate",
      "outputs": [],
      "stateMutability": "nonpayable",
      "type": "function"
    },
    {
      "inputs": [
        {
          "internalType": "uint64",
          "name": "newValue",
          "type": "uint64"
        }
      ],
      "name": "setEmissionStart",
      "outputs": [],
      "stateMutability": "nonpayable",
      "type": "function"
    },
    {
      "inputs": [
        {
          "internalType": "uint64",
          "name": "newValue",
          "type": "uint64"
        }
      ],
      "name": "setEmissionTimeUnit",
      "outputs": [],
      "stateMutability": "nonpayable",
      "type": "function"
    },
    {
      "inputs": [
        {
          "internalType": "uint64",
          "name": "newValue",
          "type": "uint64"
        }
      ],
      "name": "setMaxStakingTotalDurations",
      "outputs": [],
      "stateMutability": "nonpayable",
      "type": "function"
    },
    {
      "inputs": [
        {
          "internalType": "uint64",
          "name": "newValue",
          "type": "uint64"
        }
      ],
      "name": "setMinStakingLockTime",
      "outputs": [],
      "stateMutability": "nonpayable",
      "type": "function"
    },
    {
      "inputs": [
        {
          "internalType": "uint256[]",
          "name": "tokenIds",
          "type": "uint256[]"
        }
      ],
      "name": "stake",
      "outputs": [],
      "stateMutability": "nonpayable",
      "type": "function"
    },
    {
      "inputs": [
        {
          "internalType": "uint256",
          "name": "tokenId",
          "type": "uint256"
        }
      ],
      "name": "stake",
      "outputs": [],
      "stateMutability": "nonpayable",
      "type": "function"
    },
    {
      "inputs": [
        {
          "internalType": "uint256[]",
          "name": "ticketTokenIds",
          "type": "uint256[]"
        },
        {
          "internalType": "address",
          "name": "claimToken",
          "type": "address"
        }
      ],
      "name": "streamClaimableAmount",
      "outputs": [
        {
          "internalType": "uint256",
          "name": "",
          "type": "uint256"
        }
      ],
      "stateMutability": "view",
      "type": "function"
    },
    {
      "inputs": [
        {
          "internalType": "uint256",
          "name": "ticketTokenId",
          "type": "uint256"
        }
      ],
      "name": "streamClaimableAmount",
      "outputs": [
        {
          "internalType": "uint256",
          "name": "",
          "type": "uint256"
        }
      ],
      "stateMutability": "view",
      "type": "function"
    },
    {
      "inputs": [
        {
          "internalType": "uint256",
          "name": "ticketTokenId",
          "type": "uint256"
        },
        {
          "internalType": "address",
          "name": "claimToken",
          "type": "address"
        }
      ],
      "name": "streamClaimableAmount",
      "outputs": [
        {
          "internalType": "uint256",
          "name": "",
          "type": "uint256"
        }
      ],
      "stateMutability": "view",
      "type": "function"
    },
    {
      "inputs": [
        {
          "internalType": "uint256[]",
          "name": "ticketTokenIds",
          "type": "uint256[]"
        },
        {
          "internalType": "address",
          "name": "claimToken",
          "type": "address"
        }
      ],
      "name": "streamTotalClaimed",
      "outputs": [
        {
          "internalType": "uint256",
          "name": "",
          "type": "uint256"
        }
      ],
      "stateMutability": "view",
      "type": "function"
    },
    {
      "inputs": [],
      "name": "streamTotalClaimed",
      "outputs": [
        {
          "internalType": "uint256",
          "name": "",
          "type": "uint256"
        }
      ],
      "stateMutability": "view",
      "type": "function"
    },
    {
      "inputs": [
        {
          "internalType": "uint256[]",
          "name": "ticketTokenIds",
          "type": "uint256[]"
        }
      ],
      "name": "streamTotalClaimed",
      "outputs": [
        {
          "internalType": "uint256",
          "name": "",
          "type": "uint256"
        }
      ],
      "stateMutability": "view",
      "type": "function"
    },
    {
      "inputs": [
        {
          "internalType": "uint256",
          "name": "ticketTokenId",
          "type": "uint256"
        },
        {
          "internalType": "address",
          "name": "claimToken",
          "type": "address"
        }
      ],
      "name": "streamTotalClaimed",
      "outputs": [
        {
          "internalType": "uint256",
          "name": "",
          "type": "uint256"
        }
      ],
      "stateMutability": "view",
      "type": "function"
    },
    {
      "inputs": [
        {
          "internalType": "address",
          "name": "claimToken",
          "type": "address"
        }
      ],
      "name": "streamTotalClaimed",
      "outputs": [
        {
          "internalType": "uint256",
          "name": "",
          "type": "uint256"
        }
      ],
      "stateMutability": "view",
      "type": "function"
    },
    {
      "inputs": [
        {
          "internalType": "uint256",
          "name": "ticketTokenId",
          "type": "uint256"
        }
      ],
      "name": "streamTotalClaimed",
      "outputs": [
        {
          "internalType": "uint256",
          "name": "",
          "type": "uint256"
        }
      ],
      "stateMutability": "view",
      "type": "function"
    },
    {
      "inputs": [],
      "name": "streamTotalSupply",
      "outputs": [
        {
          "internalType": "uint256",
          "name": "",
          "type": "uint256"
        }
      ],
      "stateMutability": "view",
      "type": "function"
    },
    {
      "inputs": [
        {
          "internalType": "address",
          "name": "claimToken",
          "type": "address"
        }
      ],
      "name": "streamTotalSupply",
      "outputs": [
        {
          "internalType": "uint256",
          "name": "",
          "type": "uint256"
        }
      ],
      "stateMutability": "view",
      "type": "function"
    },
    {
      "inputs": [
        {
          "internalType": "bytes4",
          "name": "interfaceId",
          "type": "bytes4"
        }
      ],
      "name": "supportsInterface",
      "outputs": [
        {
          "internalType": "bool",
          "name": "",
          "type": "bool"
        }
      ],
      "stateMutability": "view",
      "type": "function"
    },
    {
      "inputs": [],
      "name": "ticketToken",
      "outputs": [
        {
          "internalType": "address",
          "name": "",
          "type": "address"
        }
      ],
      "stateMutability": "view",
      "type": "function"
    },
    {
      "inputs": [
        {
          "internalType": "uint256",
          "name": "ticketTokenId",
          "type": "uint256"
        }
      ],
      "name": "totalStakedDuration",
      "outputs": [
        {
          "internalType": "uint64",
          "name": "",
          "type": "uint64"
        }
      ],
      "stateMutability": "view",
      "type": "function"
    },
    {
      "inputs": [
        {
          "internalType": "uint256[]",
          "name": "ticketTokenIds",
          "type": "uint256[]"
        }
      ],
      "name": "totalStakedDuration",
      "outputs": [
        {
          "internalType": "uint64",
          "name": "",
          "type": "uint64"
        }
      ],
      "stateMutability": "view",
      "type": "function"
    },
    {
      "inputs": [
        {
          "internalType": "address",
          "name": "newOwner",
          "type": "address"
        }
      ],
      "name": "transferOwnership",
      "outputs": [],
      "stateMutability": "nonpayable",
      "type": "function"
    },
    {
      "inputs": [
        {
          "internalType": "uint256[]",
          "name": "ticketTokenIds",
          "type": "uint256[]"
        }
      ],
      "name": "unlockingTime",
      "outputs": [
        {
          "internalType": "uint256[]",
          "name": "",
          "type": "uint256[]"
        }
      ],
      "stateMutability": "view",
      "type": "function"
    },
    {
      "inputs": [
        {
          "internalType": "uint256",
          "name": "ticketTokenId",
          "type": "uint256"
        }
      ],
      "name": "unlockingTime",
      "outputs": [
        {
          "internalType": "uint256",
          "name": "",
          "type": "uint256"
        }
      ],
      "stateMutability": "view",
      "type": "function"
    },
    {
      "inputs": [
        {
          "internalType": "uint256",
          "name": "tokenId",
          "type": "uint256"
        }
      ],
      "name": "unstake",
      "outputs": [],
      "stateMutability": "nonpayable",
      "type": "function"
    },
    {
      "inputs": [
        {
          "internalType": "uint256[]",
          "name": "tokenIds",
          "type": "uint256[]"
        }
      ],
      "name": "unstake",
      "outputs": [],
      "stateMutability": "nonpayable",
      "type": "function"
    },
    {
      "inputs": [],
      "name": "version",
      "outputs": [
        {
          "internalType": "string",
          "name": "",
          "type": "string"
        }
      ],
      "stateMutability": "view",
      "type": "function"
    },
    {
      "stateMutability": "payable",
      "type": "receive"
    }
  ],
  "transactionHash": "0x3038d2e4f5a7ec6dd96ea12a4febb0685812a6dbded04c9b437c8a533e4aa55e",
  "args": [
    {
      "ticketToken": "0x0000000000000000000000000000000000000000",
      "lockedUntilTimestamp": 0,
      "minStakingLockTime": 0,
      "maxStakingTotalDurations": 0,
      "emissionRate": 0,
      "emissionTimeUnit": 0,
      "emissionStart": 0,
      "emissionEnd": 0,
      "claimLockedUntil": 0
    }
  ],
  "numDeployments": 1,
  "solcInputHash": "c054496d3724b8696e0da31d19c252b9",
  "bytecode": "0x60806040523480156200001157600080fd5b5060405162003d5038038062003d5083398101604081905262000034916200065a565b6200003f3362000057565b6001600355620000508133620000a9565b50620007b5565b600280546001600160a01b038381166001600160a01b0319831681179093556040519116919082907f8be0079c531659141344cd1fd0a4f28419497f9722a3daafe3b4186f6b6457e090600090a35050565b6000620000b7600162000193565b90508015620000d0576000805461ff0019166101001790555b620000db8262000057565b620000e562000245565b82516020840151620000f891906200027b565b6200011283604001518460600151620002b560201b60201c565b6200013683608001518460a001518560c001518660e00151620002eb60201b60201c565b610100830151620001479062000329565b80156200018e576000805461ff0019169055604051600181527f7f26b83ff96e1f2b6a682f133852f6798a09c465da95921460cefb38474024989060200160405180910390a15b505050565b60008054610100900460ff1615620001fc578160ff166001148015620001cc5750620001ca306200036160201b620021521760201c565b155b620001f45760405162461bcd60e51b8152600401620001eb906200071c565b60405180910390fd5b506000919050565b60005460ff808416911610620002265760405162461bcd60e51b8152600401620001eb906200071c565b506000805460ff191660ff92909216919091179055600190565b919050565b600054610100900460ff166200026f5760405162461bcd60e51b8152600401620001eb906200076a565b6200027962000370565b565b600054610100900460ff16620002a55760405162461bcd60e51b8152600401620001eb906200076a565b620002b18282620003ac565b5050565b600054610100900460ff16620002df5760405162461bcd60e51b8152600401620001eb906200076a565b620002b1828262000416565b600054610100900460ff16620003155760405162461bcd60e51b8152600401620001eb906200076a565b620003238484848462000491565b50505050565b600054610100900460ff16620003535760405162461bcd60e51b8152600401620001eb906200076a565b6200035e816200051c565b50565b6001600160a01b03163b151590565b600054610100900460ff166200039a5760405162461bcd60e51b8152600401620001eb906200076a565b620002796326bcdb3160e01b6200056e565b600054610100900460ff16620003d65760405162461bcd60e51b8152600401620001eb906200076a565b600480546001600160401b038316600160a01b026001600160e01b03199091166001600160a01b03851617179055620002b1631ba050e960e21b6200056e565b600054610100900460ff16620004405760405162461bcd60e51b8152600401620001eb906200076a565b600880546001600160c01b0316600160c01b6001600160401b038581169190910291909117909155600980546001600160401b031916918316919091179055620002b1630fe9fbd560e31b6200056e565b600054610100900460ff16620004bb5760405162461bcd60e51b8152600401620001eb906200076a565b6007849055600880546001600160401b03838116600160801b02600160801b600160c01b031986831668010000000000000000026001600160801b031990941692881692909217929092171617905562000323634d0b5a4960e01b6200056e565b600054610100900460ff16620005465760405162461bcd60e51b8152600401620001eb906200076a565b600c80546001600160401b0319166001600160401b0383161790556200035e6317b2ef4360e31b5b6001600160e01b03198082161415620005ca5760405162461bcd60e51b815260206004820152601c60248201527f4552433136353a20696e76616c696420696e74657266616365206964000000006044820152606401620001eb565b6001600160e01b0319166000908152600160208190526040909120805460ff19169091179055565b60405161012081016001600160401b03811182821017156200062457634e487b7160e01b600052604160045260246000fd5b60405290565b80516001600160a01b03811681146200024057600080fd5b80516001600160401b03811681146200024057600080fd5b600061012082840312156200066e57600080fd5b62000678620005f2565b62000683836200062a565b8152620006936020840162000642565b6020820152620006a66040840162000642565b6040820152620006b96060840162000642565b606082015260808301516080820152620006d660a0840162000642565b60a0820152620006e960c0840162000642565b60c0820152620006fc60e0840162000642565b60e08201526101006200071181850162000642565b908201529392505050565b6020808252602e908201527f496e697469616c697a61626c653a20636f6e747261637420697320616c72656160408201526d191e481a5b9a5d1a585b1a5e995960921b606082015260800190565b6020808252602b908201527f496e697469616c697a61626c653a20636f6e7472616374206973206e6f74206960408201526a6e697469616c697a696e6760a81b606082015260800190565b61358b80620007c56000396000f3fe6080604052600436106102ab5760003560e01c80630191c0af146102c457806301c1dfba146102f757806301ffc9a71461031757806306fdde031461034757806308289dbe146103695780630c805a44146103b75780630fbf0a93146103ed57806314427a961461040d5780631c725fdc1461042d57806325289bad1461044d578063277d048b146104745780632890d033146104895780632c0e13131461049e5780632e17de78146104be57806333abcdbd146104de578063379607f5146104fe5780633a73f7d61461051e5780633b3f12e21461053e5780633d2dded51461055e5780634abb4c491461059b5780634e631783146105c8578063513da948146105e957806354fd4d501461061057806357dc48c81461063f57806361949636146106935780636b10939c146106b35780636ba4c138146106d3578063715018a6146106f357806378b094ca14610708578063790c0c73146107285780638368909c1461074857806389c6b8151461076f5780638da5cb5b1461078f5780639199690b146107b1578063968d9b2c146107c557806396afc450146107e55780639edfe830146107fb578063a1bdb15e1461081b578063a1cf64931461083b578063a5b23be71461087e578063a694fc3a1461089e578063a86b21e8146108be578063a8d2d338146108de578063aaf2f999146108fe578063c08818491461091e578063d0d6641d14610954578063d1335b69146107b1578063d4244f2414610974578063d5ed4d5a14610994578063d6642801146107b1578063d870a151146109b4578063d97314f5146109db578063ddd5e1b2146109fb578063de76a67614610a1b578063e449f34114610a3b578063f2fde38b14610a5b578063f389b6e414610a7b578063f4415ad614610a9b578063f593dfc814610ad3578063f66e38c214610af357600080fd5b366102bf57600034116102bd57600080fd5b005b600080fd5b3480156102d057600080fd5b506102e46102df366004612d99565b610b13565b6040519081526020015b60405180910390f35b34801561030357600080fd5b506102bd610312366004612def565b610b69565b34801561032357600080fd5b50610337610332366004612e30565b610dbd565b60405190151581526020016102ee565b34801561035357600080fd5b5061035c610dfd565b6040516102ee9190612e5a565b34801561037557600080fd5b5061039f610384366004612eaf565b600b602052600090815260409020546001600160401b031681565b6040516001600160401b0390911681526020016102ee565b3480156103c357600080fd5b5061039f6103d2366004612eaf565b600a602052600090815260409020546001600160401b031681565b3480156103f957600080fd5b506102bd610408366004612def565b610e19565b34801561041957600080fd5b50600c5461039f906001600160401b031681565b34801561043957600080fd5b506102bd610448366004612edf565b610e5e565b34801561045957600080fd5b5060045461039f90600160a01b90046001600160401b031681565b34801561048057600080fd5b506102bd610f15565b34801561049557600080fd5b506102e4610f82565b3480156104aa57600080fd5b506102bd6104b9366004612edf565b610f93565b3480156104ca57600080fd5b506102bd6104d9366004612eaf565b611016565b3480156104ea57600080fd5b5061039f6104f9366004612eaf565b611081565b34801561050a57600080fd5b506102bd610519366004612eaf565b611168565b34801561052a57600080fd5b506102e4610539366004612def565b611176565b34801561054a57600080fd5b506102e4610559366004612d99565b6111c8565b34801561056a57600080fd5b506000805260066020527f54cdd369e4e8a8515e52ca72ec816c2101831ad1f18bf44102ed171459c9b4f8546102e4565b3480156105a757600080fd5b506105bb6105b6366004612def565b611246565b6040516102ee9190612efa565b3480156105d457600080fd5b5060025461033790600160a01b900460ff1681565b3480156105f557600080fd5b5060085461039f90600160401b90046001600160401b031681565b34801561061c57600080fd5b5061035c60405180604001604052806003815260200162302e3160e81b81525081565b34801561064b57600080fd5b5061067e61065a366004612f3e565b60056020908152600092835260408084209091529082529020805460019091015482565b604080519283526020830191909152016102ee565b34801561069f57600080fd5b5060085461039f906001600160401b031681565b3480156106bf57600080fd5b506102bd6106ce366004612edf565b6112f1565b3480156106df57600080fd5b506102bd6106ee366004612def565b61137a565b3480156106ff57600080fd5b506102bd611387565b34801561071457600080fd5b506102bd610723366004612edf565b6113c2565b34801561073457600080fd5b506102e4610743366004612f6e565b61144f565b34801561075457600080fd5b5060085461039f90600160801b90046001600160401b031681565b34801561077b57600080fd5b506102e461078a366004612def565b611522565b34801561079b57600080fd5b506107a4611537565b6040516102ee9190612f8b565b3480156107bd57600080fd5b506001610337565b3480156107d157600080fd5b506102e46107e0366004612eaf565b611546565b3480156107f157600080fd5b506102e460075481565b34801561080757600080fd5b506102e4610816366004612edf565b611553565b34801561082757600080fd5b506102bd610836366004612eaf565b611598565b34801561084757600080fd5b506102e4610856366004612f3e565b60009182526005602090815260408084206001600160a01b0393909316845291905290205490565b34801561088a57600080fd5b506102e4610899366004612eaf565b6115fe565b3480156108aa57600080fd5b506102bd6108b9366004612eaf565b611636565b3480156108ca57600080fd5b506102e46108d9366004612edf565b611676565b3480156108ea57600080fd5b506102bd6108f9366004612fec565b6116b2565b34801561090a57600080fd5b506102bd610919366004612edf565b611780565b34801561092a57600080fd5b506102e4610939366004612f6e565b6001600160a01b031660009081526006602052604090205490565b34801561096057600080fd5b506102e461096f366004612eaf565b61180d565b34801561098057600080fd5b5060095461039f906001600160401b031681565b3480156109a057600080fd5b506004546107a4906001600160a01b031681565b3480156109c057600080fd5b5060085461039f90600160c01b90046001600160401b031681565b3480156109e757600080fd5b506102bd6109f6366004612edf565b61186e565b348015610a0757600080fd5b506102bd610a16366004612f3e565b6118f1565b348015610a2757600080fd5b5061039f610a36366004612def565b611b83565b348015610a4757600080fd5b506102bd610a56366004612def565b611bcf565b348015610a6757600080fd5b506102bd610a76366004612f6e565b611c7b565b348015610a8757600080fd5b506102bd610a963660046130c2565b611d18565b348015610aa757600080fd5b506102e4610ab6366004612eaf565b600090815260056020908152604080832083805290915290205490565b348015610adf57600080fd5b506102bd610aee366004612edf565b612078565b348015610aff57600080fd5b506102e4610b0e366004612f3e565b6120fb565b600080805b84811015610b6057610b42868683818110610b3557610b35613129565b90506020020135856120fb565b610b4c9083613155565b915080610b588161316d565b915050610b18565b50949350505050565b33610b72611537565b6001600160a01b031614610ba15760405162461bcd60e51b8152600401610b9890613188565b60405180910390fd5b600254600160a01b900460ff1615610bf55760405162461bcd60e51b81526020600482015260176024820152761153515491d15390d657d413d5d15497d4915593d2d151604a1b6044820152606401610b98565b6000610bff611537565b905060005b82811015610db7576000848483818110610c2057610c20613129565b9050602002016020810190610c359190612f6e565b6001600160a01b03161415610c5c57610c576001600160a01b03831647612161565b610da5565b838382818110610c6e57610c6e613129565b9050602002016020810190610c839190612f6e565b6001600160a01b031663a9059cbb83868685818110610ca457610ca4613129565b9050602002016020810190610cb99190612f6e565b6001600160a01b03166370a08231306040518263ffffffff1660e01b8152600401610ce49190612f8b565b60206040518083038186803b158015610cfc57600080fd5b505afa158015610d10573d6000803e3d6000fd5b505050506040513d601f19601f82011682018060405250810190610d3491906131bd565b6040518363ffffffff1660e01b8152600401610d519291906131d6565b602060405180830381600087803b158015610d6b57600080fd5b505af1158015610d7f573d6000803e3d6000fd5b505050506040513d601f19601f82011682018060405250810190610da391906131ef565b505b80610daf8161316d565b915050610c04565b50505050565b60006301ffc9a760e01b6001600160e01b031983161480610df757506001600160e01b0319821660009081526001602052604090205460ff165b92915050565b6040518060600160405280602581526020016135316025913981565b6008546001600160401b03600160401b9091048116429091161015610e505760405162461bcd60e51b8152600401610b9890613211565b610e5a8282612277565b5050565b33610e67611537565b6001600160a01b031614610e8d5760405162461bcd60e51b8152600401610b9890613188565b6004546001600160401b03600160a01b909104811690821611610ee95760405162461bcd60e51b815260206004820152601460248201527314d5149150534bd0d0539393d517d49155d2539160621b6044820152606401610b98565b600480546001600160401b03909216600160a01b02600160a01b600160e01b0319909216919091179055565b33610f1e611537565b6001600160a01b031614610f445760405162461bcd60e51b8152600401610b9890613188565b6002805460ff60a01b1916600160a01b1790556040517f21fadcdbe90fc4e8062dd78003616bbe56d48e0f1bfc58eacd10b11bba16b79690600090a1565b6000610f8e600061144f565b905090565b33610f9c611537565b6001600160a01b031614610fc25760405162461bcd60e51b8152600401610b9890613188565b60045442600160a01b9091046001600160401b031610610ff45760405162461bcd60e51b8152600401610b9890613241565b600c80546001600160401b0319166001600160401b0392909216919091179055565b611021334283612428565b60048054604051636198e33960e01b81529182018390526001600160a01b031690636198e339906024015b600060405180830381600087803b15801561106657600080fd5b505af115801561107a573d6000803e3d6000fd5b5050505050565b6000818152600b6020908152604080832054600a9092528220546001600160401b0391821691161561113e5760006110b76125ff565b905042816001600160401b031611156110cd5750425b6000848152600a60205260409020546001600160401b03161561113c576000848152600a60205260409020546001600160401b03908116908216111561113c576000848152600a602052604090205461112f906001600160401b03168261326f565b6111399083613297565b91505b505b6009546001600160401b039081169082161115610df757506009546001600160401b031692915050565b6111738160006118f1565b50565b6000805b828110156111c1576111a384848381811061119757611197613129565b905060200201356115fe565b6111ad9083613155565b9150806111b98161316d565b91505061117a565b5092915050565b600080805b84811015610b6057600560008787848181106111eb576111eb613129565b9050602002013581526020019081526020016000206000856001600160a01b03166001600160a01b0316815260200190815260200160002060000154826112329190613155565b91508061123e8161316d565b9150506111cd565b60606000826001600160401b0381111561126257611262612f9f565b60405190808252806020026020018201604052801561128b578160200160208202803683370190505b50905060005b838110156112e9576112ba8585838181106112ae576112ae613129565b9050602002013561180d565b8282815181106112cc576112cc613129565b6020908102919091010152806112e18161316d565b915050611291565b509392505050565b336112fa611537565b6001600160a01b0316146113205760405162461bcd60e51b8152600401610b9890613188565b60045442600160a01b9091046001600160401b0316106113525760405162461bcd60e51b8152600401610b9890613241565b600880546001600160401b03909216600160c01b026001600160c01b03909216919091179055565b610e5a8282600033611d18565b33611390611537565b6001600160a01b0316146113b65760405162461bcd60e51b8152600401610b9890613188565b6113c0600061263d565b565b336113cb611537565b6001600160a01b0316146113f15760405162461bcd60e51b8152600401610b9890613188565b60045442600160a01b9091046001600160401b0316106114235760405162461bcd60e51b8152600401610b9890613241565b600880546001600160401b03909216600160801b02600160801b600160c01b0319909216919091179055565b60006001600160a01b038216611483576001600160a01b038216600090815260066020526040902054610df7904790613155565b6040516370a0823160e01b81526001600160a01b038316906370a08231906114af903090600401612f8b565b60206040518083038186803b1580156114c757600080fd5b505afa1580156114db573d6000803e3d6000fd5b505050506040513d601f19601f820116820180604052508101906114ff91906131bd565b6001600160a01b038316600090815260066020526040902054610df79190613155565b6000611530838360006111c8565b9392505050565b6002546001600160a01b031690565b6000610df78260006120fb565b6008546000906001600160401b038082169161157891600160401b909104168461326f565b61158291906132d8565b6001600160401b0316600754610df791906132fe565b336115a1611537565b6001600160a01b0316146115c75760405162461bcd60e51b8152600401610b9890613188565b60045442600160a01b9091046001600160401b0316106115f95760405162461bcd60e51b8152600401610b9890613241565b600755565b6008546000906001600160401b031661161683611081565b6001600160401b031660075461162c91906132fe565b610df7919061331d565b6008546001600160401b03600160401b909104811642909116101561166d5760405162461bcd60e51b8152600401610b9890613211565b6111738161268f565b6008546007546000916001600160401b03808216929161169f91600160401b909104168561326f565b6001600160401b031661162c91906132fe565b60006116be60016127cd565b905080156116d6576000805461ff0019166101001790555b6116df8261263d565b6116e7612861565b6116f983600001518460200151612890565b61170b836040015184606001516128c1565b61172783608001518460a001518560c001518660e001516128f2565b611735836101000151612925565b801561177b576000805461ff0019169055604051600181527f7f26b83ff96e1f2b6a682f133852f6798a09c465da95921460cefb38474024989060200160405180910390a15b505050565b33611789611537565b6001600160a01b0316146117af5760405162461bcd60e51b8152600401610b9890613188565b60045442600160a01b9091046001600160401b0316106117e15760405162461bcd60e51b8152600401610b9890613241565b600880546001600160401b03909216600160401b02600160401b600160801b0319909216919091179055565b6000818152600a60205260408120546001600160401b031661183057600061185f565b6008546000838152600a602052604090205461185f916001600160401b03600160c01b90910481169116613297565b6001600160401b031692915050565b33611877611537565b6001600160a01b03161461189d5760405162461bcd60e51b8152600401610b9890613188565b60045442600160a01b9091046001600160401b0316106118cf5760405162461bcd60e51b8152600401610b9890613241565b600880546001600160401b0319166001600160401b0392909216919091179055565b600260035414156119145760405162461bcd60e51b8152600401610b9890613331565b6002600355600480546040516331a9108f60e11b81529182018490526000916001600160a01b0390911690636352211e9060240160206040518083038186803b15801561196057600080fd5b505afa158015611974573d6000803e3d6000fd5b505050506040513d601f19601f820116820180604052508101906119989190613368565b90506119a5838383612955565b60006119b184846120fb565b9050600081116119fd5760405162461bcd60e51b815260206004820152601760248201527653545245414d2f4e4f5448494e475f544f5f434c41494d60481b6044820152606401610b98565b60008481526005602090815260408083206001600160a01b038716845290915281208054839290611a2f908490613155565b909155505060008481526005602090815260408083206001600160a01b0387168452825280832042600190910155600690915281208054839290611a74908490613155565b90915550506001600160a01b038316611a9f57611a9a6001600160a01b03831682612161565b611b21565b60405163a9059cbb60e01b81526001600160a01b0384169063a9059cbb90611acd90859085906004016131d6565b602060405180830381600087803b158015611ae757600080fd5b505af1158015611afb573d6000803e3d6000fd5b505050506040513d601f19601f82011682018060405250810190611b1f91906131ef565b505b604080513381526001600160a01b038481166020830152818301879052851660608201526080810183905290517fa2d3c4c1fc934d6d2d8f9e862df90c01ae4eb0e920cd8957d242ba26b8dc40789181900360a00190a1505060016003555050565b600080805b838110156112e957611bb1858583818110611ba557611ba5613129565b90506020020135611081565b611bbb9083613297565b915080611bc78161316d565b915050611b88565b334260005b83811015611c1157611bff8383878785818110611bf357611bf3613129565b90506020020135612428565b80611c098161316d565b915050611bd4565b5060048054604051635d36598f60e01b81526001600160a01b0390911691635d36598f91611c439188918891016133bb565b600060405180830381600087803b158015611c5d57600080fd5b505af1158015611c71573d6000803e3d6000fd5b5050505050505050565b33611c84611537565b6001600160a01b031614611caa5760405162461bcd60e51b8152600401610b9890613188565b6001600160a01b038116611d0f5760405162461bcd60e51b815260206004820152602660248201527f4f776e61626c653a206e6577206f776e657220697320746865207a65726f206160448201526564647265737360d01b6064820152608401610b98565b6111738161263d565b60026003541415611d3b5760405162461bcd60e51b8152600401610b9890613331565b60026003556000805b84811015611f5557611d6f868683818110611d6157611d61613129565b905060200201358585612955565b6004546001600160a01b038085169116636352211e888885818110611d9657611d96613129565b905060200201356040518263ffffffff1660e01b8152600401611dbb91815260200190565b60206040518083038186803b158015611dd357600080fd5b505afa158015611de7573d6000803e3d6000fd5b505050506040513d601f19601f82011682018060405250810190611e0b9190613368565b6001600160a01b031614611e585760405162461bcd60e51b815260206004820152601460248201527329aa2922a0a697a727aa2fa7232a2fa7aba722a960611b6044820152606401610b98565b6000611e7c878784818110611e6f57611e6f613129565b90506020020135866120fb565b90508015611f42578060056000898986818110611e9b57611e9b613129565b9050602002013581526020019081526020016000206000876001600160a01b03166001600160a01b031681526020019081526020016000206000016000828254611ee59190613155565b9091555042905060056000898986818110611f0257611f02613129565b6020908102929092013583525081810192909252604090810160009081206001600160a01b038a168252909252902060010155611f3f8184613155565b92505b5080611f4d8161316d565b915050611d44565b506001600160a01b03831660009081526006602052604081208054839290611f7e908490613155565b90915550506001600160a01b038316611fa957611fa46001600160a01b03831682612161565b61202b565b60405163a9059cbb60e01b81526001600160a01b0384169063a9059cbb90611fd790859085906004016131d6565b602060405180830381600087803b158015611ff157600080fd5b505af1158015612005573d6000803e3d6000fd5b505050506040513d601f19601f8201168201806040525081019061202991906131ef565b505b7fd84a5c424a4f777bcf4f645712b8e5ebfc550f42bde444fa822fe98ee1b132b1338387878786604051612064969594939291906133cf565b60405180910390a150506001600355505050565b33612081611537565b6001600160a01b0316146120a75760405162461bcd60e51b8152600401610b9890613188565b60045442600160a01b9091046001600160401b0316106120d95760405162461bcd60e51b8152600401610b9890613241565b600980546001600160401b0319166001600160401b0392909216919091179055565b60008061211a61211361210d8561144f565b50600090565b858561296b565b60008581526005602090815260408083206001600160a01b038816845290915290205490915061214a908261340e565b949350505050565b6001600160a01b03163b151590565b804710156121b15760405162461bcd60e51b815260206004820152601d60248201527f416464726573733a20696e73756666696369656e742062616c616e63650000006044820152606401610b98565b6000826001600160a01b03168260405160006040518083038185875af1925050503d80600081146121fe576040519150601f19603f3d011682016040523d82523d6000602084013e612203565b606091505b505090508061177b5760405162461bcd60e51b815260206004820152603a60248201527f416464726573733a20756e61626c6520746f2073656e642076616c75652c20726044820152791958da5c1a595b9d081b585e481a185d99481c995d995c9d195960321b6064820152608401610b98565b334260005b838110156123f6576004546001600160a01b0316636352211e8686848181106122a7576122a7613129565b905060200201356040518263ffffffff1660e01b81526004016122cc91815260200190565b60206040518083038186803b1580156122e457600080fd5b505afa1580156122f8573d6000803e3d6000fd5b505050506040513d601f19601f8201168201806040525081019061231c9190613368565b6001600160a01b0316836001600160a01b03161461234c5760405162461bcd60e51b8152600401610b9890613425565b6009546001600160401b031661236d868684818110611ba557611ba5613129565b6001600160401b0316106123935760405162461bcd60e51b8152600401610b9890613455565b81600a60008787858181106123aa576123aa613129565b90506020020135815260200190815260200160002060006101000a8154816001600160401b0302191690836001600160401b0316021790555080806123ee9061316d565b91505061227c565b50600480546040516342cb086360e11b81526001600160a01b039091169163859610c691611c439188918891016133bb565b6000818152600a60205260409020546001600160401b03166124805760405162461bcd60e51b815260206004820152601160248201527014d5149150534bd393d517d4d51052d151607a1b6044820152606401610b98565b6008546000828152600a60205260409020546124af916001600160401b03600160c01b90910481169116613297565b6001600160401b0316826001600160401b0316101561250b5760405162461bcd60e51b81526020600482015260186024820152770a6a8a48a829a5e9c9ea8be989e86968a88be8a9c9eaa8e960431b6044820152606401610b98565b600480546040516331a9108f60e11b81529182018390526001600160a01b031690636352211e9060240160206040518083038186803b15801561254d57600080fd5b505afa158015612561573d6000803e3d6000fd5b505050506040513d601f19601f820116820180604052508101906125859190613368565b6001600160a01b0316836001600160a01b0316146125b55760405162461bcd60e51b8152600401610b9890613425565b6125be81611081565b6000918252600b6020908152604080842080546001600160401b03949094166001600160401b0319948516179055600a909152909120805490911690555050565b600854600090600160801b90046001600160401b0316156126315750600854600160801b90046001600160401b031690565b506001600160401b0390565b600280546001600160a01b038381166001600160a01b0319831681179093556040519116919082907f8be0079c531659141344cd1fd0a4f28419497f9722a3daafe3b4186f6b6457e090600090a35050565b600480546040516331a9108f60e11b81529182018390526001600160a01b031690636352211e9060240160206040518083038186803b1580156126d157600080fd5b505afa1580156126e5573d6000803e3d6000fd5b505050506040513d601f19601f820116820180604052508101906127099190613368565b6001600160a01b0316336001600160a01b0316146127395760405162461bcd60e51b8152600401610b9890613425565b6009546001600160401b031661274e82611081565b6001600160401b0316106127745760405162461bcd60e51b8152600401610b9890613455565b6000818152600a60205260409081902080546001600160401b031916426001600160401b03161790556004805491516337519c1960e21b81529081018390526001600160a01b039091169063dd4670649060240161104c565b60008054610100900460ff161561281b578160ff1660011480156127f757506127f530612152565b155b6128135760405162461bcd60e51b8152600401610b9890613497565b506000919050565b60005460ff8084169116106128425760405162461bcd60e51b8152600401610b9890613497565b506000805460ff191660ff92909216919091179055600190565b919050565b600054610100900460ff166128885760405162461bcd60e51b8152600401610b98906134e5565b6113c06129a3565b600054610100900460ff166128b75760405162461bcd60e51b8152600401610b98906134e5565b610e5a82826129da565b600054610100900460ff166128e85760405162461bcd60e51b8152600401610b98906134e5565b610e5a8282612a3f565b600054610100900460ff166129195760405162461bcd60e51b8152600401610b98906134e5565b610db784848484612ab5565b600054610100900460ff1661294c5760405162461bcd60e51b8152600401610b98906134e5565b61117381612b36565b612960838383612b88565b61177b838383612bda565b6008546000906001600160401b031661298384611081565b61298d91906132d8565b6001600160401b031660075461214a91906132fe565b600054610100900460ff166129ca5760405162461bcd60e51b8152600401610b98906134e5565b6113c06326bcdb3160e01b612cad565b600054610100900460ff16612a015760405162461bcd60e51b8152600401610b98906134e5565b600480546001600160401b038316600160a01b026001600160e01b03199091166001600160a01b03851617179055610e5a631ba050e960e21b612cad565b600054610100900460ff16612a665760405162461bcd60e51b8152600401610b98906134e5565b600880546001600160c01b0316600160c01b6001600160401b038581169190910291909117909155600980546001600160401b031916918316919091179055610e5a630fe9fbd560e31b612cad565b600054610100900460ff16612adc5760405162461bcd60e51b8152600401610b98906134e5565b6007849055600880546001600160401b03838116600160801b02600160801b600160c01b0319868316600160401b026001600160801b0319909416928816929092179290921716179055610db7634d0b5a4960e01b612cad565b600054610100900460ff16612b5d5760405162461bcd60e51b8152600401610b98906134e5565b600c80546001600160401b0319166001600160401b0383161790556111736317b2ef4360e31b612cad565b600c54426001600160401b039091161061177b5760405162461bcd60e51b815260206004820152601360248201527214d5149150534bd0d310525357d313d0d2d151606a1b6044820152606401610b98565b60085442600160401b9091046001600160401b031610612c315760405162461bcd60e51b815260206004820152601260248201527114d5149150534bd393d517d4d5105495115160721b6044820152606401610b98565b600854612c47906001600160401b03164261340e565b60008481526005602090815260408083206001600160a01b03871684529091529020600101541061177b5760405162461bcd60e51b815260206004820152601060248201526f53545245414d2f544f4f5f4541524c5960801b6044820152606401610b98565b6001600160e01b03198082161415612d065760405162461bcd60e51b815260206004820152601c60248201527b115490cc4d8d4e881a5b9d985b1a59081a5b9d195c999858d9481a5960221b6044820152606401610b98565b6001600160e01b0319166000908152600160208190526040909120805460ff19169091179055565b60008083601f840112612d4057600080fd5b5081356001600160401b03811115612d5757600080fd5b6020830191508360208260051b8501011115612d7257600080fd5b9250929050565b6001600160a01b038116811461117357600080fd5b803561285c81612d79565b600080600060408486031215612dae57600080fd5b83356001600160401b03811115612dc457600080fd5b612dd086828701612d2e565b9094509250506020840135612de481612d79565b809150509250925092565b60008060208385031215612e0257600080fd5b82356001600160401b03811115612e1857600080fd5b612e2485828601612d2e565b90969095509350505050565b600060208284031215612e4257600080fd5b81356001600160e01b03198116811461153057600080fd5b600060208083528351808285015260005b81811015612e8757858101830151858201604001528201612e6b565b81811115612e99576000604083870101525b50601f01601f1916929092016040019392505050565b600060208284031215612ec157600080fd5b5035919050565b80356001600160401b038116811461285c57600080fd5b600060208284031215612ef157600080fd5b61153082612ec8565b6020808252825182820181905260009190848201906040850190845b81811015612f3257835183529284019291840191600101612f16565b50909695505050505050565b60008060408385031215612f5157600080fd5b823591506020830135612f6381612d79565b809150509250929050565b600060208284031215612f8057600080fd5b813561153081612d79565b6001600160a01b0391909116815260200190565b634e487b7160e01b600052604160045260246000fd5b60405161012081016001600160401b0381118282101715612fe657634e487b7160e01b600052604160045260246000fd5b60405290565b60008082840361014081121561300157600080fd5b6101208082121561301157600080fd5b613019612fb5565b915061302485612d8e565b825261303260208601612ec8565b602083015261304360408601612ec8565b604083015261305460608601612ec8565b60608301526080850135608083015261306f60a08601612ec8565b60a083015261308060c08601612ec8565b60c083015261309160e08601612ec8565b60e08301526101006130a4818701612ec8565b81840152508193506130b7818601612d8e565b925050509250929050565b600080600080606085870312156130d857600080fd5b84356001600160401b038111156130ee57600080fd5b6130fa87828801612d2e565b909550935050602085013561310e81612d79565b9150604085013561311e81612d79565b939692955090935050565b634e487b7160e01b600052603260045260246000fd5b634e487b7160e01b600052601160045260246000fd5b600082198211156131685761316861313f565b500190565b60006000198214156131815761318161313f565b5060010190565b6020808252818101527f4f776e61626c653a2063616c6c6572206973206e6f7420746865206f776e6572604082015260600190565b6000602082840312156131cf57600080fd5b5051919050565b6001600160a01b03929092168252602082015260400190565b60006020828403121561320157600080fd5b8151801515811461153057600080fd5b60208082526016908201527514d5149150534bd393d517d4d5105495115117d6515560521b604082015260600190565b60208082526014908201527314d5149150534bd0d3d3919251d7d313d0d2d15160621b604082015260600190565b60006001600160401b038381169083168181101561328f5761328f61313f565b039392505050565b60006001600160401b038281168482168083038211156132b9576132b961313f565b01949350505050565b634e487b7160e01b600052601260045260246000fd5b60006001600160401b03838116806132f2576132f26132c2565b92169190910492915050565b60008160001904831182151516156133185761331861313f565b500290565b60008261332c5761332c6132c2565b500490565b6020808252601f908201527f5265656e7472616e637947756172643a207265656e7472616e742063616c6c00604082015260600190565b60006020828403121561337a57600080fd5b815161153081612d79565b81835260006001600160fb1b0383111561339e57600080fd5b8260051b8083602087013760009401602001938452509192915050565b60208152600061214a602083018486613385565b600060018060a01b038089168352808816602084015260a060408401526133fa60a084018789613385565b941660608301525060800152949350505050565b6000828210156134205761342061313f565b500390565b60208082526016908201527529aa2922a0a697a727aa2faa27a5a2a72fa7aba722a960511b604082015260600190565b60208082526022908201527f53545245414d2f4d41585f5354414b455f4455524154494f4e5f455843454544604082015261115160f21b606082015260800190565b6020808252602e908201527f496e697469616c697a61626c653a20636f6e747261637420697320616c72656160408201526d191e481a5b9a5d1a585b1a5e995960921b606082015260800190565b6020808252602b908201527f496e697469616c697a61626c653a20636f6e7472616374206973206e6f74206960408201526a6e697469616c697a696e6760a81b60608201526080019056fe455243373231204c6f636b6564205374616b696e6720456d697373696f6e2053747265616da2646970667358221220e1d679771163a31d74739bf878542eaa1579de43463215e337d75b04b3b3c98964736f6c63430008090033",
  "devdoc": {
    "author": "Flair (https://flair.finance)",
    "kind": "dev",
    "methods": {
      "owner()": {
        "details": "Returns the address of the current owner."
      },
      "renounceOwnership()": {
        "details": "Leaves the contract without owner. It will not be possible to call `onlyOwner` functions anymore. Can only be called by the current owner. NOTE: Renouncing ownership will leave the contract without an owner, thereby removing any functionality that is only available to the owner."
      },
      "supportsInterface(bytes4)": {
        "details": "See {IERC165-supportsInterface}."
      },
      "transferOwnership(address)": {
        "details": "Transfers ownership of the contract to a new account (`newOwner`). Can only be called by the current owner."
      }
    },
    "version": 1
  },
  "userdoc": {
    "kind": "user",
    "methods": {},
    "version": 1
  },
  "storageLayout": {
    "storage": [
      {
        "astId": 886,
        "contract": "contracts/streams/ERC721/presets/ERC721LockedStakingEmissionStream.sol:ERC721LockedStakingEmissionStream",
        "label": "_initialized",
        "offset": 0,
        "slot": "0",
        "type": "t_uint8"
      },
      {
        "astId": 889,
        "contract": "contracts/streams/ERC721/presets/ERC721LockedStakingEmissionStream.sol:ERC721LockedStakingEmissionStream",
        "label": "_initializing",
        "offset": 1,
        "slot": "0",
        "type": "t_bool"
      },
      {
        "astId": 4693,
        "contract": "contracts/streams/ERC721/presets/ERC721LockedStakingEmissionStream.sol:ERC721LockedStakingEmissionStream",
        "label": "_supportedInterfaces",
        "offset": 0,
        "slot": "1",
        "type": "t_mapping(t_bytes4,t_bool)"
      },
      {
        "astId": 782,
        "contract": "contracts/streams/ERC721/presets/ERC721LockedStakingEmissionStream.sol:ERC721LockedStakingEmissionStream",
        "label": "_owner",
        "offset": 0,
        "slot": "2",
        "type": "t_address"
      },
      {
        "astId": 12716,
        "contract": "contracts/streams/ERC721/presets/ERC721LockedStakingEmissionStream.sol:ERC721LockedStakingEmissionStream",
        "label": "emergencyPowerRevoked",
        "offset": 20,
        "slot": "2",
        "type": "t_bool"
      },
      {
        "astId": 1124,
        "contract": "contracts/streams/ERC721/presets/ERC721LockedStakingEmissionStream.sol:ERC721LockedStakingEmissionStream",
        "label": "_status",
        "offset": 0,
        "slot": "3",
        "type": "t_uint256"
      },
      {
        "astId": 13891,
        "contract": "contracts/streams/ERC721/presets/ERC721LockedStakingEmissionStream.sol:ERC721LockedStakingEmissionStream",
        "label": "ticketToken",
        "offset": 0,
        "slot": "4",
        "type": "t_address"
      },
      {
        "astId": 13893,
        "contract": "contracts/streams/ERC721/presets/ERC721LockedStakingEmissionStream.sol:ERC721LockedStakingEmissionStream",
        "label": "lockedUntilTimestamp",
        "offset": 20,
        "slot": "4",
        "type": "t_uint64"
      },
      {
        "astId": 13900,
        "contract": "contracts/streams/ERC721/presets/ERC721LockedStakingEmissionStream.sol:ERC721LockedStakingEmissionStream",
        "label": "entitlements",
        "offset": 0,
        "slot": "5",
        "type": "t_mapping(t_uint256,t_mapping(t_address,t_struct(Entitlement)13889_storage))"
      },
      {
        "astId": 13904,
        "contract": "contracts/streams/ERC721/presets/ERC721LockedStakingEmissionStream.sol:ERC721LockedStakingEmissionStream",
        "label": "_streamTotalClaimed",
        "offset": 0,
        "slot": "6",
        "type": "t_mapping(t_address,t_uint256)"
      },
      {
        "astId": 14622,
        "contract": "contracts/streams/ERC721/presets/ERC721LockedStakingEmissionStream.sol:ERC721LockedStakingEmissionStream",
        "label": "emissionRate",
        "offset": 0,
        "slot": "7",
        "type": "t_uint256"
      },
      {
        "astId": 14624,
        "contract": "contracts/streams/ERC721/presets/ERC721LockedStakingEmissionStream.sol:ERC721LockedStakingEmissionStream",
        "label": "emissionTimeUnit",
        "offset": 0,
        "slot": "8",
        "type": "t_uint64"
      },
      {
        "astId": 14626,
        "contract": "contracts/streams/ERC721/presets/ERC721LockedStakingEmissionStream.sol:ERC721LockedStakingEmissionStream",
        "label": "emissionStart",
        "offset": 8,
        "slot": "8",
        "type": "t_uint64"
      },
      {
        "astId": 14628,
        "contract": "contracts/streams/ERC721/presets/ERC721LockedStakingEmissionStream.sol:ERC721LockedStakingEmissionStream",
        "label": "emissionEnd",
        "offset": 16,
        "slot": "8",
        "type": "t_uint64"
      },
      {
        "astId": 15251,
        "contract": "contracts/streams/ERC721/presets/ERC721LockedStakingEmissionStream.sol:ERC721LockedStakingEmissionStream",
        "label": "minStakingLockTime",
        "offset": 24,
        "slot": "8",
        "type": "t_uint64"
      },
      {
        "astId": 15253,
        "contract": "contracts/streams/ERC721/presets/ERC721LockedStakingEmissionStream.sol:ERC721LockedStakingEmissionStream",
        "label": "maxStakingTotalDurations",
        "offset": 0,
        "slot": "9",
        "type": "t_uint64"
      },
      {
        "astId": 15257,
        "contract": "contracts/streams/ERC721/presets/ERC721LockedStakingEmissionStream.sol:ERC721LockedStakingEmissionStream",
        "label": "lastStakingTime",
        "offset": 0,
        "slot": "10",
        "type": "t_mapping(t_uint256,t_uint64)"
      },
      {
        "astId": 15261,
        "contract": "contracts/streams/ERC721/presets/ERC721LockedStakingEmissionStream.sol:ERC721LockedStakingEmissionStream",
        "label": "savedStakedDurations",
        "offset": 0,
        "slot": "11",
        "type": "t_mapping(t_uint256,t_uint64)"
      },
      {
        "astId": 15123,
        "contract": "contracts/streams/ERC721/presets/ERC721LockedStakingEmissionStream.sol:ERC721LockedStakingEmissionStream",
        "label": "claimLockedUntil",
        "offset": 0,
        "slot": "12",
        "type": "t_uint64"
      }
    ],
    "types": {
      "t_address": {
        "encoding": "inplace",
        "label": "address",
        "numberOfBytes": "20"
      },
      "t_bool": {
        "encoding": "inplace",
        "label": "bool",
        "numberOfBytes": "1"
      },
      "t_bytes4": {
        "encoding": "inplace",
        "label": "bytes4",
        "numberOfBytes": "4"
      },
      "t_mapping(t_address,t_struct(Entitlement)13889_storage)": {
        "encoding": "mapping",
        "key": "t_address",
        "label": "mapping(address => struct ERC721MultiTokenStream.Entitlement)",
        "numberOfBytes": "32",
        "value": "t_struct(Entitlement)13889_storage"
      },
      "t_mapping(t_address,t_uint256)": {
        "encoding": "mapping",
        "key": "t_address",
        "label": "mapping(address => uint256)",
        "numberOfBytes": "32",
        "value": "t_uint256"
      },
      "t_mapping(t_bytes4,t_bool)": {
        "encoding": "mapping",
        "key": "t_bytes4",
        "label": "mapping(bytes4 => bool)",
        "numberOfBytes": "32",
        "value": "t_bool"
      },
      "t_mapping(t_uint256,t_mapping(t_address,t_struct(Entitlement)13889_storage))": {
        "encoding": "mapping",
        "key": "t_uint256",
        "label": "mapping(uint256 => mapping(address => struct ERC721MultiTokenStream.Entitlement))",
        "numberOfBytes": "32",
        "value": "t_mapping(t_address,t_struct(Entitlement)13889_storage)"
      },
      "t_mapping(t_uint256,t_uint64)": {
        "encoding": "mapping",
        "key": "t_uint256",
        "label": "mapping(uint256 => uint64)",
        "numberOfBytes": "32",
        "value": "t_uint64"
      },
      "t_struct(Entitlement)13889_storage": {
        "encoding": "inplace",
        "label": "struct ERC721MultiTokenStream.Entitlement",
        "members": [
          {
            "astId": 13886,
            "contract": "contracts/streams/ERC721/presets/ERC721LockedStakingEmissionStream.sol:ERC721LockedStakingEmissionStream",
            "label": "totalClaimed",
            "offset": 0,
            "slot": "0",
            "type": "t_uint256"
          },
          {
            "astId": 13888,
            "contract": "contracts/streams/ERC721/presets/ERC721LockedStakingEmissionStream.sol:ERC721LockedStakingEmissionStream",
            "label": "lastClaimedAt",
            "offset": 0,
            "slot": "1",
            "type": "t_uint256"
          }
        ],
        "numberOfBytes": "64"
      },
      "t_uint256": {
        "encoding": "inplace",
        "label": "uint256",
        "numberOfBytes": "32"
      },
      "t_uint64": {
        "encoding": "inplace",
        "label": "uint64",
        "numberOfBytes": "8"
      },
      "t_uint8": {
        "encoding": "inplace",
        "label": "uint8",
        "numberOfBytes": "1"
      }
    }
  }
}