{
  "address": "0xe42d26060444F42b9BB28818295a3F68526A0e39",
  "abi": [
    {
      "inputs": [
        {
          "components": [
            {
              "internalType": "address",
              "name": "ticketToken",
              "type": "address"
            },
            {
              "internalType": "uint256[]",
              "name": "tokenIds",
              "type": "uint256[]"
            },
            {
              "internalType": "uint256[]",
              "name": "shares",
              "type": "uint256[]"
            },
            {
              "internalType": "uint256",
              "name": "lockedUntilTimestamp",
              "type": "uint256"
            }
          ],
          "internalType": "struct ERC721ShareholderDistributor.Config",
          "name": "config",
          "type": "tuple"
        }
      ],
      "stateMutability": "nonpayable",
      "type": "constructor"
    },
    {
      "anonymous": false,
      "inputs": [
        {
          "indexed": false,
          "internalType": "address",
          "name": "claimer",
          "type": "address"
        },
        {
          "indexed": false,
          "internalType": "uint256",
          "name": "ticketTokenId",
          "type": "uint256"
        },
        {
          "indexed": false,
          "internalType": "address",
          "name": "claimToken",
          "type": "address"
        },
        {
          "indexed": false,
          "internalType": "uint256",
          "name": "releasedAmount",
          "type": "uint256"
        }
      ],
      "name": "Claim",
      "type": "event"
    },
    {
      "anonymous": false,
      "inputs": [
        {
          "indexed": false,
          "internalType": "address",
          "name": "claimer",
          "type": "address"
        },
        {
          "indexed": false,
          "internalType": "uint256[]",
          "name": "ticketTokenIds",
          "type": "uint256[]"
        },
        {
          "indexed": false,
          "internalType": "address",
          "name": "claimToken",
          "type": "address"
        },
        {
          "indexed": false,
          "internalType": "uint256",
          "name": "releasedAmount",
          "type": "uint256"
        }
      ],
      "name": "ClaimBulk",
      "type": "event"
    },
    {
      "anonymous": false,
      "inputs": [
        {
          "indexed": false,
          "internalType": "uint8",
          "name": "version",
          "type": "uint8"
        }
      ],
      "name": "Initialized",
      "type": "event"
    },
    {
      "anonymous": false,
      "inputs": [
        {
          "indexed": true,
          "internalType": "address",
          "name": "previousOwner",
          "type": "address"
        },
        {
          "indexed": true,
          "internalType": "address",
          "name": "newOwner",
          "type": "address"
        }
      ],
      "name": "OwnershipTransferred",
      "type": "event"
    },
    {
      "anonymous": false,
      "inputs": [
        {
          "indexed": false,
          "internalType": "uint256",
          "name": "tokenId",
          "type": "uint256"
        },
        {
          "indexed": false,
          "internalType": "uint256",
          "name": "prevShares",
          "type": "uint256"
        },
        {
          "indexed": false,
          "internalType": "uint256",
          "name": "newShares",
          "type": "uint256"
        }
      ],
      "name": "SharesUpdated",
      "type": "event"
    },
    {
      "inputs": [
        {
          "internalType": "uint256",
          "name": "ticketTokenId",
          "type": "uint256"
        }
      ],
      "name": "calculateClaimableAmount",
      "outputs": [
        {
          "internalType": "uint256",
          "name": "",
          "type": "uint256"
        }
      ],
      "stateMutability": "view",
      "type": "function"
    },
    {
      "inputs": [
        {
          "internalType": "uint256",
          "name": "ticketTokenId",
          "type": "uint256"
        },
        {
          "internalType": "address",
          "name": "claimToken",
          "type": "address"
        }
      ],
      "name": "calculateClaimableAmount",
      "outputs": [
        {
          "internalType": "uint256",
          "name": "claimableAmount",
          "type": "uint256"
        }
      ],
      "stateMutability": "view",
      "type": "function"
    },
    {
      "inputs": [
        {
          "internalType": "uint256",
          "name": "ticketTokenId",
          "type": "uint256"
        }
      ],
      "name": "claim",
      "outputs": [],
      "stateMutability": "nonpayable",
      "type": "function"
    },
    {
      "inputs": [
        {
          "internalType": "uint256",
          "name": "ticketTokenId",
          "type": "uint256"
        },
        {
          "internalType": "address",
          "name": "claimToken",
          "type": "address"
        }
      ],
      "name": "claim",
      "outputs": [],
      "stateMutability": "nonpayable",
      "type": "function"
    },
    {
      "inputs": [
        {
          "internalType": "uint256[]",
          "name": "ticketTokenIds",
          "type": "uint256[]"
        }
      ],
      "name": "claimBulk",
      "outputs": [],
      "stateMutability": "nonpayable",
      "type": "function"
    },
    {
      "inputs": [
        {
          "internalType": "uint256[]",
          "name": "ticketTokenIds",
          "type": "uint256[]"
        },
        {
          "internalType": "address",
          "name": "claimToken",
          "type": "address"
        }
      ],
      "name": "claimBulk",
      "outputs": [],
      "stateMutability": "nonpayable",
      "type": "function"
    },
    {
      "inputs": [
        {
          "internalType": "uint256",
          "name": "",
          "type": "uint256"
        },
        {
          "internalType": "address",
          "name": "",
          "type": "address"
        }
      ],
      "name": "entitlements",
      "outputs": [
        {
          "internalType": "uint256",
          "name": "totalClaimed",
          "type": "uint256"
        },
        {
          "internalType": "uint256",
          "name": "lastClaimedAt",
          "type": "uint256"
        }
      ],
      "stateMutability": "view",
      "type": "function"
    },
    {
      "inputs": [
        {
          "internalType": "uint256[]",
          "name": "ticketTokenIds",
          "type": "uint256[]"
        },
        {
          "internalType": "address",
          "name": "claimToken",
          "type": "address"
        }
      ],
      "name": "getTotalClaimableBulk",
      "outputs": [
        {
          "internalType": "uint256",
          "name": "",
          "type": "uint256"
        }
      ],
      "stateMutability": "view",
      "type": "function"
    },
    {
      "inputs": [
        {
          "internalType": "uint256[]",
          "name": "ticketTokenIds",
          "type": "uint256[]"
        }
      ],
      "name": "getTotalClaimedBulk",
      "outputs": [
        {
          "internalType": "uint256",
          "name": "",
          "type": "uint256"
        }
      ],
      "stateMutability": "view",
      "type": "function"
    },
    {
      "inputs": [
        {
          "internalType": "uint256[]",
          "name": "ticketTokenIds",
          "type": "uint256[]"
        },
        {
          "internalType": "address",
          "name": "claimToken",
          "type": "address"
        }
      ],
      "name": "getTotalClaimedBulk",
      "outputs": [
        {
          "internalType": "uint256",
          "name": "",
          "type": "uint256"
        }
      ],
      "stateMutability": "view",
      "type": "function"
    },
    {
      "inputs": [
        {
          "components": [
            {
              "internalType": "address",
              "name": "ticketToken",
              "type": "address"
            },
            {
              "internalType": "uint256[]",
              "name": "tokenIds",
              "type": "uint256[]"
            },
            {
              "internalType": "uint256[]",
              "name": "shares",
              "type": "uint256[]"
            },
            {
              "internalType": "uint256",
              "name": "lockedUntilTimestamp",
              "type": "uint256"
            }
          ],
          "internalType": "struct ERC721ShareholderDistributor.Config",
          "name": "config",
          "type": "tuple"
        }
      ],
      "name": "initialize",
      "outputs": [],
      "stateMutability": "nonpayable",
      "type": "function"
    },
    {
      "inputs": [
        {
          "internalType": "uint256",
          "name": "newValue",
          "type": "uint256"
        }
      ],
      "name": "lockUntil",
      "outputs": [],
      "stateMutability": "nonpayable",
      "type": "function"
    },
    {
      "inputs": [],
      "name": "name",
      "outputs": [
        {
          "internalType": "string",
          "name": "",
          "type": "string"
        }
      ],
      "stateMutability": "view",
      "type": "function"
    },
    {
      "inputs": [],
      "name": "owner",
      "outputs": [
        {
          "internalType": "address",
          "name": "",
          "type": "address"
        }
      ],
      "stateMutability": "view",
      "type": "function"
    },
    {
      "inputs": [],
      "name": "renounceOwnership",
      "outputs": [],
      "stateMutability": "nonpayable",
      "type": "function"
    },
    {
      "inputs": [
        {
          "internalType": "uint256[]",
          "name": "_tokenIds",
          "type": "uint256[]"
        },
        {
          "internalType": "uint256[]",
          "name": "_shares",
          "type": "uint256[]"
        }
      ],
      "name": "setShares",
      "outputs": [],
      "stateMutability": "nonpayable",
      "type": "function"
    },
    {
      "inputs": [
        {
          "internalType": "uint256",
          "name": "",
          "type": "uint256"
        }
      ],
      "name": "shares",
      "outputs": [
        {
          "internalType": "uint256",
          "name": "",
          "type": "uint256"
        }
      ],
      "stateMutability": "view",
      "type": "function"
    },
    {
      "inputs": [
        {
          "internalType": "address",
          "name": "",
          "type": "address"
        }
      ],
      "name": "streamTotalClaimed",
      "outputs": [
        {
          "internalType": "uint256",
          "name": "",
          "type": "uint256"
        }
      ],
      "stateMutability": "view",
      "type": "function"
    },
    {
      "inputs": [],
      "name": "streamTotalSupply",
      "outputs": [
        {
          "internalType": "uint256",
          "name": "",
          "type": "uint256"
        }
      ],
      "stateMutability": "view",
      "type": "function"
    },
    {
      "inputs": [
        {
          "internalType": "address",
          "name": "claimToken",
          "type": "address"
        }
      ],
      "name": "streamTotalSupply",
      "outputs": [
        {
          "internalType": "uint256",
          "name": "",
          "type": "uint256"
        }
      ],
      "stateMutability": "view",
      "type": "function"
    },
    {
      "inputs": [],
      "name": "ticketToken",
      "outputs": [
        {
          "internalType": "address",
          "name": "",
          "type": "address"
        }
      ],
      "stateMutability": "view",
      "type": "function"
    },
    {
      "inputs": [],
      "name": "totalShares",
      "outputs": [
        {
          "internalType": "uint256",
          "name": "",
          "type": "uint256"
        }
      ],
      "stateMutability": "view",
      "type": "function"
    },
    {
      "inputs": [
        {
          "internalType": "address",
          "name": "newOwner",
          "type": "address"
        }
      ],
      "name": "transferOwnership",
      "outputs": [],
      "stateMutability": "nonpayable",
      "type": "function"
    },
    {
      "inputs": [],
      "name": "version",
      "outputs": [
        {
          "internalType": "string",
          "name": "",
          "type": "string"
        }
      ],
      "stateMutability": "view",
      "type": "function"
    },
    {
      "stateMutability": "payable",
      "type": "receive"
    }
  ],
  "transactionHash": "0x5923866a1f899ccbd2c16cf78fee78cd8f0b36309f86f3857a50ba24e996ae30",
  "args": [
    {
      "ticketToken": "0x0000000000000000000000000000000000000000",
      "tokenIds": [],
      "shares": [],
      "lockedUntilTimestamp": 0
    }
  ],
  "numDeployments": 1,
  "solcInputHash": "d382c887de211b00e8025674569bca65",
  "bytecode": "0x60806040523480156200001157600080fd5b50604051620022c6380380620022c6833981016040819052620000349162000604565b600160655562000044816200004b565b50620007e4565b600062000059600162000100565b9050801562000072576000805461ff0019166101001790555b6200007c620001ad565b62000086620001d9565b815162000093906200020d565b620000ad826020015183604001516200024f60201b60201c565b6060820151606b558015620000fc576000805461ff0019169055604051600181527f7f26b83ff96e1f2b6a682f133852f6798a09c465da95921460cefb38474024989060200160405180910390a15b5050565b60008054610100900460ff161562000169578160ff1660011480156200013957506200013730620003c260201b620010591760201c565b155b620001615760405162461bcd60e51b81526004016200015890620006cc565b60405180910390fd5b506000919050565b60005460ff808416911610620001935760405162461bcd60e51b81526004016200015890620006cc565b506000805460ff191660ff92909216919091179055600190565b600054610100900460ff16620001d75760405162461bcd60e51b815260040162000158906200071a565b565b600054610100900460ff16620002035760405162461bcd60e51b815260040162000158906200071a565b620001d7620003d1565b600054610100900460ff16620002375760405162461bcd60e51b815260040162000158906200071a565b62000241620001ad565b6200024c8162000406565b50565b6033546001600160a01b03163314620002ab5760405162461bcd60e51b815260206004820181905260248201527f4f776e61626c653a2063616c6c6572206973206e6f7420746865206f776e6572604482015260640162000158565b8151815114620002fe5760405162461bcd60e51b815260206004820152601960248201527f4449535452494255544f522f415247535f4d49534d4154434800000000000000604482015260640162000158565b42606b5410620003515760405162461bcd60e51b815260206004820152601960248201527f4449535452494255544f522f434f4e4649475f4c4f434b454400000000000000604482015260640162000158565b60005b8151811015620003bd57620003a883828151811062000377576200037762000765565b602002602001015183838151811062000394576200039462000765565b60200260200101516200045260201b60201c565b80620003b48162000791565b91505062000354565b505050565b6001600160a01b03163b151590565b600054610100900460ff16620003fb5760405162461bcd60e51b815260040162000158906200071a565b620001d733620004cd565b600054610100900460ff16620004305760405162461bcd60e51b815260040162000158906200071a565b606680546001600160a01b0319166001600160a01b0392909216919091179055565b6000828152606a60205260409020805490829055606954819062000478908490620007af565b620004849190620007ca565b60695560408051848152602081018390529081018390527ff81b1f9d8b5d36a5a67d13006a8b091a9b63e2a38b331d315d99c6daefd2ddcc9060600160405180910390a1505050565b603380546001600160a01b038381166001600160a01b0319831681179093556040519116919082907f8be0079c531659141344cd1fd0a4f28419497f9722a3daafe3b4186f6b6457e090600090a35050565b634e487b7160e01b600052604160045260246000fd5b604051608081016001600160401b03811182821017156200055a576200055a6200051f565b60405290565b600082601f8301126200057257600080fd5b815160206001600160401b03808311156200059157620005916200051f565b8260051b604051601f19603f83011681018181108482111715620005b957620005b96200051f565b604052938452858101830193838101925087851115620005d857600080fd5b83870191505b84821015620005f957815183529183019190830190620005de565b979650505050505050565b6000602082840312156200061757600080fd5b81516001600160401b03808211156200062f57600080fd5b90830190608082860312156200064457600080fd5b6200064e62000535565b82516001600160a01b03811681146200066657600080fd5b81526020830151828111156200067b57600080fd5b620006898782860162000560565b602083015250604083015182811115620006a257600080fd5b620006b08782860162000560565b6040830152506060830151606082015280935050505092915050565b6020808252602e908201527f496e697469616c697a61626c653a20636f6e747261637420697320616c72656160408201526d191e481a5b9a5d1a585b1a5e995960921b606082015260800190565b6020808252602b908201527f496e697469616c697a61626c653a20636f6e7472616374206973206e6f74206960408201526a6e697469616c697a696e6760a81b606082015260800190565b634e487b7160e01b600052603260045260246000fd5b634e487b7160e01b600052601160045260246000fd5b6000600019821415620007a857620007a86200077b565b5060010190565b60008219821115620007c557620007c56200077b565b500190565b600082821015620007df57620007df6200077b565b500390565b611ad280620007f46000396000f3fe60806040526004361061011f5760003560e01c806306fdde03146101385780630927829e146101975780630ceea305146101b75780632890d033146101d7578063371a4e71146101fa578063379607f51461021a5780633a98ef391461023a57806346be42fa14610250578063496ef217146102705780634fcddd151461029057806354fd4d50146102b057806357a858fc146102df57806357dc48c81461030c57806367048f43146103605780636efdd69114610380578063715018a6146103a0578063790c0c73146103b55780638da5cb5b146103d5578063b91e5bc5146103f7578063c088184914610417578063d5ed4d5a14610444578063dcfab28014610464578063ddd5e1b214610484578063f2fde38b146104a457600080fd5b36610133576000341161013157600080fd5b005b600080fd5b34801561014457600080fd5b506101816040518060400160405280601e81526020017f455243373231205368617265686f6c646572204469737472696275746f72000081525081565b60405161018e9190611430565b60405180910390f35b3480156101a357600080fd5b506101316101b236600461155d565b6104c4565b3480156101c357600080fd5b506101316101d23660046115c0565b6105f5565b3480156101e357600080fd5b506101ec610676565b60405190815260200161018e565b34801561020657600080fd5b506101ec610215366004611639565b610687565b34801561022657600080fd5b506101316102353660046115c0565b6106dd565b34801561024657600080fd5b506101ec60695481565b34801561025c57600080fd5b506101ec61026b3660046115c0565b6106eb565b34801561027c57600080fd5b5061013161028b36600461168f565b6106fe565b34801561029c57600080fd5b506101ec6102ab36600461168f565b61073b565b3480156102bc57600080fd5b5061018160405180604001604052806003815260200162302e3160e81b81525081565b3480156102eb57600080fd5b506101ec6102fa3660046115c0565b606a6020526000908152604090205481565b34801561031857600080fd5b5061034b6103273660046116d0565b60676020908152600092835260408084209091529082529020805460019091015482565b6040805192835260208301919091520161018e565b34801561036c57600080fd5b506101ec61037b3660046116d0565b610750565b34801561038c57600080fd5b5061013161039b366004611700565b6107ac565b3480156103ac57600080fd5b5061013161084f565b3480156103c157600080fd5b506101ec6103d03660046117b0565b61088a565b3480156103e157600080fd5b506103ea61095d565b60405161018e91906117cd565b34801561040357600080fd5b506101ec610412366004611639565b61096c565b34801561042357600080fd5b506101ec6104323660046117b0565b60686020526000908152604090205481565b34801561045057600080fd5b506066546103ea906001600160a01b031681565b34801561047057600080fd5b5061013161047f366004611639565b6109ea565b34801561049057600080fd5b5061013161049f3660046116d0565b610d12565b3480156104b057600080fd5b506101316104bf3660046117b0565b610fbc565b336104cd61095d565b6001600160a01b0316146104fc5760405162461bcd60e51b81526004016104f3906117e1565b60405180910390fd5b81518151146105495760405162461bcd60e51b815260206004820152601960248201527808892a6a8a49284aaa89ea45e82a48ea6be9a92a69a82a8869603b1b60448201526064016104f3565b42606b54106105965760405162461bcd60e51b8152602060048201526019602482015278111254d5149250955513d48bd0d3d3919251d7d313d0d2d151603a1b60448201526064016104f3565b60005b81518110156105f0576105de8382815181106105b7576105b7611816565b60200260200101518383815181106105d1576105d1611816565b6020026020010151611068565b806105e881611842565b915050610599565b505050565b336105fe61095d565b6001600160a01b0316146106245760405162461bcd60e51b81526004016104f3906117e1565b606b5481116106715760405162461bcd60e51b8152602060048201526019602482015278111254d5149250955513d48bd0d0539393d517d49155d25391603a1b60448201526064016104f3565b606b55565b6000610682600061088a565b905090565b600080805b848110156106d4576106b68686838181106106a9576106a9611816565b9050602002013585610750565b6106c0908361185d565b9150806106cc81611842565b91505061068c565b50949350505050565b6106e8816000610d12565b50565b60006106f8826000610750565b92915050565b600260655414156107215760405162461bcd60e51b81526004016104f390611875565b6002606555610732828260006109ea565b50506001606555565b60006107498383600061096c565b9392505050565b60008281526067602090815260408083206001600160a01b0385168452825280832054606954868552606a9093529083205490919061078e8561088a565b61079891906118ac565b6107a291906118cb565b61074991906118ed565b60006107b860016110df565b905080156107d0576000805461ff0019166101001790555b6107d861116e565b6107e0611195565b81516107eb906111c4565b6107fd826020015183604001516104c4565b6060820151606b55801561084b576000805461ff0019169055604051600181527f7f26b83ff96e1f2b6a682f133852f6798a09c465da95921460cefb38474024989060200160405180910390a15b5050565b3361085861095d565b6001600160a01b03161461087e5760405162461bcd60e51b81526004016104f3906117e1565b61088860006111fc565b565b60006001600160a01b0382166108be576001600160a01b0382166000908152606860205260409020546106f890479061185d565b6040516370a0823160e01b81526001600160a01b038316906370a08231906108ea9030906004016117cd565b60206040518083038186803b15801561090257600080fd5b505afa158015610916573d6000803e3d6000fd5b505050506040513d601f19601f8201168201806040525081019061093a9190611904565b6001600160a01b0383166000908152606860205260409020546106f8919061185d565b6033546001600160a01b031690565b600080805b848110156106d4576067600087878481811061098f5761098f611816565b9050602002013581526020019081526020016000206000856001600160a01b03166001600160a01b0316815260200190815260200160002060000154826109d6919061185d565b9150806109e281611842565b915050610971565b60026065541415610a0d5760405162461bcd60e51b81526004016104f390611875565b60026065556000805b83811015610bf057610a40858583818110610a3357610a33611816565b905060200201358461124e565b60665433906001600160a01b0316636352211e878785818110610a6557610a65611816565b905060200201356040518263ffffffff1660e01b8152600401610a8a91815260200190565b60206040518083038186803b158015610aa257600080fd5b505afa158015610ab6573d6000803e3d6000fd5b505050506040513d601f19601f82011682018060405250810190610ada919061191d565b6001600160a01b031614610b005760405162461bcd60e51b81526004016104f39061193a565b6000610b178686848181106106a9576106a9611816565b90508015610bdd578060676000888886818110610b3657610b36611816565b9050602002013581526020019081526020016000206000866001600160a01b03166001600160a01b031681526020019081526020016000206000016000828254610b80919061185d565b9091555042905060676000888886818110610b9d57610b9d611816565b6020908102929092013583525081810192909252604090810160009081206001600160a01b0389168252909252902060010155610bda818461185d565b92505b5080610be881611842565b915050610a16565b506001600160a01b03821660009081526068602052604081208054839290610c1990849061185d565b90915550506001600160a01b038216610c4657610c4181335b6001600160a01b0316906112a1565b610cc8565b60405163a9059cbb60e01b81526001600160a01b0383169063a9059cbb90610c74903390859060040161196d565b602060405180830381600087803b158015610c8e57600080fd5b505af1158015610ca2573d6000803e3d6000fd5b505050506040513d601f19601f82011682018060405250810190610cc69190611986565b505b7fb134ef4136615d1aef30f456395437fb4a5b053c84520d85ec1d4079df80fb953385858585604051610cff9594939291906119a8565b60405180910390a1505060016065555050565b60026065541415610d355760405162461bcd60e51b81526004016104f390611875565b6002606555610d44828261124e565b336066546040516331a9108f60e11b8152600481018590526001600160a01b039283169290911690636352211e9060240160206040518083038186803b158015610d8d57600080fd5b505afa158015610da1573d6000803e3d6000fd5b505050506040513d601f19601f82011682018060405250810190610dc5919061191d565b6001600160a01b031614610deb5760405162461bcd60e51b81526004016104f39061193a565b6000610df78383610750565b905060008111610e485760405162461bcd60e51b815260206004820152601c60248201527b4449535452494255544f522f4e4f5448494e475f544f5f434c41494d60201b60448201526064016104f3565b60008381526067602090815260408083206001600160a01b038616845290915281208054839290610e7a90849061185d565b909155505060008381526067602090815260408083206001600160a01b0386168452825280832042600190910155606890915281208054839290610ebf90849061185d565b90915550506001600160a01b038216610ee157610edc8133610c32565b610f63565b60405163a9059cbb60e01b81526001600160a01b0383169063a9059cbb90610f0f903390859060040161196d565b602060405180830381600087803b158015610f2957600080fd5b505af1158015610f3d573d6000803e3d6000fd5b505050506040513d601f19601f82011682018060405250810190610f619190611986565b505b60408051338152602081018590526001600160a01b038416818301526060810183905290517fad03f837a9207e368d73ec028e1f54428184da8cfea258cc116da2225f3ac5eb9181900360800190a15050600160655550565b33610fc561095d565b6001600160a01b031614610feb5760405162461bcd60e51b81526004016104f3906117e1565b6001600160a01b0381166110505760405162461bcd60e51b815260206004820152602660248201527f4f776e61626c653a206e6577206f776e657220697320746865207a65726f206160448201526564647265737360d01b60648201526084016104f3565b6106e8816111fc565b6001600160a01b03163b151590565b6000828152606a60205260409020805490829055606954819061108c90849061185d565b61109691906118ed565b60695560408051848152602081018390529081018390527ff81b1f9d8b5d36a5a67d13006a8b091a9b63e2a38b331d315d99c6daefd2ddcc9060600160405180910390a1505050565b60008054610100900460ff161561112d578160ff166001148015611109575061110730611059565b155b6111255760405162461bcd60e51b81526004016104f390611a03565b506000919050565b60005460ff8084169116106111545760405162461bcd60e51b81526004016104f390611a03565b506000805460ff191660ff92909216919091179055600190565b600054610100900460ff166108885760405162461bcd60e51b81526004016104f390611a51565b600054610100900460ff166111bc5760405162461bcd60e51b81526004016104f390611a51565b6108886113b7565b600054610100900460ff166111eb5760405162461bcd60e51b81526004016104f390611a51565b6111f361116e565b6106e8816113e7565b603380546001600160a01b038381166001600160a01b0319831681179093556040519116919082907f8be0079c531659141344cd1fd0a4f28419497f9722a3daafe3b4186f6b6457e090600090a35050565b6000828152606a602052604090205461084b5760405162461bcd60e51b81526020600482015260156024820152744449535452494255544f522f4e4f5f53484152455360581b60448201526064016104f3565b804710156112f15760405162461bcd60e51b815260206004820152601d60248201527f416464726573733a20696e73756666696369656e742062616c616e636500000060448201526064016104f3565b6000826001600160a01b03168260405160006040518083038185875af1925050503d806000811461133e576040519150601f19603f3d011682016040523d82523d6000602084013e611343565b606091505b50509050806105f05760405162461bcd60e51b815260206004820152603a60248201527f416464726573733a20756e61626c6520746f2073656e642076616c75652c20726044820152791958da5c1a595b9d081b585e481a185d99481c995d995c9d195960321b60648201526084016104f3565b600054610100900460ff166113de5760405162461bcd60e51b81526004016104f390611a51565b610888336111fc565b600054610100900460ff1661140e5760405162461bcd60e51b81526004016104f390611a51565b606680546001600160a01b0319166001600160a01b0392909216919091179055565b600060208083528351808285015260005b8181101561145d57858101830151858201604001528201611441565b8181111561146f576000604083870101525b50601f01601f1916929092016040019392505050565b634e487b7160e01b600052604160045260246000fd5b604051608081016001600160401b03811182821017156114bd576114bd611485565b60405290565b600082601f8301126114d457600080fd5b813560206001600160401b03808311156114f0576114f0611485565b8260051b604051601f19603f8301168101818110848211171561151557611515611485565b60405293845285810183019383810192508785111561153357600080fd5b83870191505b8482101561155257813583529183019190830190611539565b979650505050505050565b6000806040838503121561157057600080fd5b82356001600160401b038082111561158757600080fd5b611593868387016114c3565b935060208501359150808211156115a957600080fd5b506115b6858286016114c3565b9150509250929050565b6000602082840312156115d257600080fd5b5035919050565b60008083601f8401126115eb57600080fd5b5081356001600160401b0381111561160257600080fd5b6020830191508360208260051b850101111561161d57600080fd5b9250929050565b6001600160a01b03811681146106e857600080fd5b60008060006040848603121561164e57600080fd5b83356001600160401b0381111561166457600080fd5b611670868287016115d9565b909450925050602084013561168481611624565b809150509250925092565b600080602083850312156116a257600080fd5b82356001600160401b038111156116b857600080fd5b6116c4858286016115d9565b90969095509350505050565b600080604083850312156116e357600080fd5b8235915060208301356116f581611624565b809150509250929050565b60006020828403121561171257600080fd5b81356001600160401b038082111561172957600080fd5b908301906080828603121561173d57600080fd5b61174561149b565b823561175081611624565b815260208301358281111561176457600080fd5b611770878286016114c3565b60208301525060408301358281111561178857600080fd5b611794878286016114c3565b6040830152506060830135606082015280935050505092915050565b6000602082840312156117c257600080fd5b813561074981611624565b6001600160a01b0391909116815260200190565b6020808252818101527f4f776e61626c653a2063616c6c6572206973206e6f7420746865206f776e6572604082015260600190565b634e487b7160e01b600052603260045260246000fd5b634e487b7160e01b600052601160045260246000fd5b60006000198214156118565761185661182c565b5060010190565b600082198211156118705761187061182c565b500190565b6020808252601f908201527f5265656e7472616e637947756172643a207265656e7472616e742063616c6c00604082015260600190565b60008160001904831182151516156118c6576118c661182c565b500290565b6000826118e857634e487b7160e01b600052601260045260246000fd5b500490565b6000828210156118ff576118ff61182c565b500390565b60006020828403121561191657600080fd5b5051919050565b60006020828403121561192f57600080fd5b815161074981611624565b6020808252601990820152782224a9aa2924a12aaa27a917a727aa2fa7232a2fa7aba722a960391b604082015260600190565b6001600160a01b03929092168252602082015260400190565b60006020828403121561199857600080fd5b8151801515811461074957600080fd5b6001600160a01b03868116825260806020830181905282018590526000906001600160fb1b038611156119da57600080fd5b8560051b808860a0860137600090840160a0019081529416604083015250606001529392505050565b6020808252602e908201527f496e697469616c697a61626c653a20636f6e747261637420697320616c72656160408201526d191e481a5b9a5d1a585b1a5e995960921b606082015260800190565b6020808252602b908201527f496e697469616c697a61626c653a20636f6e7472616374206973206e6f74206960408201526a6e697469616c697a696e6760a81b60608201526080019056fea264697066735822122043735dfaa240315b3e13cbaf0efaab1cb3f250e62a467ad50346607b8471c4e964736f6c63430008090033",
  "devdoc": {
    "kind": "dev",
    "methods": {
      "owner()": {
        "details": "Returns the address of the current owner."
      },
      "renounceOwnership()": {
        "details": "Leaves the contract without owner. It will not be possible to call `onlyOwner` functions anymore. Can only be called by the current owner. NOTE: Renouncing ownership will leave the contract without an owner, thereby removing any functionality that is only available to the owner."
      },
      "transferOwnership(address)": {
        "details": "Transfers ownership of the contract to a new account (`newOwner`). Can only be called by the current owner."
      }
    },
    "version": 1
  },
  "userdoc": {
    "kind": "user",
    "methods": {},
    "version": 1
  },
  "storageLayout": {
    "storage": [
      {
        "astId": 512,
        "contract": "contracts/streams/ERC721/presets/ERC721ShareholderDistributor.sol:ERC721ShareholderDistributor",
        "label": "_initialized",
        "offset": 0,
        "slot": "0",
        "type": "t_uint8"
      },
      {
        "astId": 515,
        "contract": "contracts/streams/ERC721/presets/ERC721ShareholderDistributor.sol:ERC721ShareholderDistributor",
        "label": "_initializing",
        "offset": 1,
        "slot": "0",
        "type": "t_bool"
      },
      {
        "astId": 931,
        "contract": "contracts/streams/ERC721/presets/ERC721ShareholderDistributor.sol:ERC721ShareholderDistributor",
        "label": "__gap",
        "offset": 0,
        "slot": "1",
        "type": "t_array(t_uint256)50_storage"
      },
      {
        "astId": 392,
        "contract": "contracts/streams/ERC721/presets/ERC721ShareholderDistributor.sol:ERC721ShareholderDistributor",
        "label": "_owner",
        "offset": 0,
        "slot": "51",
        "type": "t_address"
      },
      {
        "astId": 504,
        "contract": "contracts/streams/ERC721/presets/ERC721ShareholderDistributor.sol:ERC721ShareholderDistributor",
        "label": "__gap",
        "offset": 0,
        "slot": "52",
        "type": "t_array(t_uint256)49_storage"
      },
      {
        "astId": 1533,
        "contract": "contracts/streams/ERC721/presets/ERC721ShareholderDistributor.sol:ERC721ShareholderDistributor",
        "label": "_status",
        "offset": 0,
        "slot": "101",
        "type": "t_uint256"
      },
      {
        "astId": 9644,
        "contract": "contracts/streams/ERC721/presets/ERC721ShareholderDistributor.sol:ERC721ShareholderDistributor",
        "label": "ticketToken",
        "offset": 0,
        "slot": "102",
        "type": "t_address"
      },
      {
        "astId": 9651,
        "contract": "contracts/streams/ERC721/presets/ERC721ShareholderDistributor.sol:ERC721ShareholderDistributor",
        "label": "entitlements",
        "offset": 0,
        "slot": "103",
        "type": "t_mapping(t_uint256,t_mapping(t_address,t_struct(Entitlement)9642_storage))"
      },
      {
        "astId": 9655,
        "contract": "contracts/streams/ERC721/presets/ERC721ShareholderDistributor.sol:ERC721ShareholderDistributor",
        "label": "streamTotalClaimed",
        "offset": 0,
        "slot": "104",
        "type": "t_mapping(t_address,t_uint256)"
      },
      {
        "astId": 10983,
        "contract": "contracts/streams/ERC721/presets/ERC721ShareholderDistributor.sol:ERC721ShareholderDistributor",
        "label": "totalShares",
        "offset": 0,
        "slot": "105",
        "type": "t_uint256"
      },
      {
        "astId": 10987,
        "contract": "contracts/streams/ERC721/presets/ERC721ShareholderDistributor.sol:ERC721ShareholderDistributor",
        "label": "shares",
        "offset": 0,
        "slot": "106",
        "type": "t_mapping(t_uint256,t_uint256)"
      },
      {
        "astId": 10989,
        "contract": "contracts/streams/ERC721/presets/ERC721ShareholderDistributor.sol:ERC721ShareholderDistributor",
        "label": "lockedUntilTimestamp",
        "offset": 0,
        "slot": "107",
        "type": "t_uint256"
      }
    ],
    "types": {
      "t_address": {
        "encoding": "inplace",
        "label": "address",
        "numberOfBytes": "20"
      },
      "t_array(t_uint256)49_storage": {
        "base": "t_uint256",
        "encoding": "inplace",
        "label": "uint256[49]",
        "numberOfBytes": "1568"
      },
      "t_array(t_uint256)50_storage": {
        "base": "t_uint256",
        "encoding": "inplace",
        "label": "uint256[50]",
        "numberOfBytes": "1600"
      },
      "t_bool": {
        "encoding": "inplace",
        "label": "bool",
        "numberOfBytes": "1"
      },
      "t_mapping(t_address,t_struct(Entitlement)9642_storage)": {
        "encoding": "mapping",
        "key": "t_address",
        "label": "mapping(address => struct ERC721MultiTokenDistributor.Entitlement)",
        "numberOfBytes": "32",
        "value": "t_struct(Entitlement)9642_storage"
      },
      "t_mapping(t_address,t_uint256)": {
        "encoding": "mapping",
        "key": "t_address",
        "label": "mapping(address => uint256)",
        "numberOfBytes": "32",
        "value": "t_uint256"
      },
      "t_mapping(t_uint256,t_mapping(t_address,t_struct(Entitlement)9642_storage))": {
        "encoding": "mapping",
        "key": "t_uint256",
        "label": "mapping(uint256 => mapping(address => struct ERC721MultiTokenDistributor.Entitlement))",
        "numberOfBytes": "32",
        "value": "t_mapping(t_address,t_struct(Entitlement)9642_storage)"
      },
      "t_mapping(t_uint256,t_uint256)": {
        "encoding": "mapping",
        "key": "t_uint256",
        "label": "mapping(uint256 => uint256)",
        "numberOfBytes": "32",
        "value": "t_uint256"
      },
      "t_struct(Entitlement)9642_storage": {
        "encoding": "inplace",
        "label": "struct ERC721MultiTokenDistributor.Entitlement",
        "members": [
          {
            "astId": 9639,
            "contract": "contracts/streams/ERC721/presets/ERC721ShareholderDistributor.sol:ERC721ShareholderDistributor",
            "label": "totalClaimed",
            "offset": 0,
            "slot": "0",
            "type": "t_uint256"
          },
          {
            "astId": 9641,
            "contract": "contracts/streams/ERC721/presets/ERC721ShareholderDistributor.sol:ERC721ShareholderDistributor",
            "label": "lastClaimedAt",
            "offset": 0,
            "slot": "1",
            "type": "t_uint256"
          }
        ],
        "numberOfBytes": "64"
      },
      "t_uint256": {
        "encoding": "inplace",
        "label": "uint256",
        "numberOfBytes": "32"
      },
      "t_uint8": {
        "encoding": "inplace",
        "label": "uint8",
        "numberOfBytes": "1"
      }
    }
  }
}