{
  "address": "0x01BF6D446bE193a66E06355Ee40896de3b066be2",
  "abi": [
    {
      "inputs": [
        {
          "components": [
            {
              "internalType": "address",
              "name": "ticketToken",
              "type": "address"
            },
            {
              "internalType": "uint64",
              "name": "lockedUntilTimestamp",
              "type": "uint64"
            },
            {
              "internalType": "uint256",
              "name": "totalTickets",
              "type": "uint256"
            },
            {
              "internalType": "uint256",
              "name": "emissionRate",
              "type": "uint256"
            },
            {
              "internalType": "uint64",
              "name": "emissionTimeUnit",
              "type": "uint64"
            },
            {
              "internalType": "uint64",
              "name": "emissionStart",
              "type": "uint64"
            },
            {
              "internalType": "uint64",
              "name": "emissionEnd",
              "type": "uint64"
            }
          ],
          "internalType": "struct ERC721EqualEmissionStream.Config",
          "name": "config",
          "type": "tuple"
        }
      ],
      "stateMutability": "nonpayable",
      "type": "constructor"
    },
    {
      "anonymous": false,
      "inputs": [
        {
          "indexed": false,
          "internalType": "address",
          "name": "operator",
          "type": "address"
        },
        {
          "indexed": false,
          "internalType": "address",
          "name": "beneficiary",
          "type": "address"
        },
        {
          "indexed": false,
          "internalType": "uint256",
          "name": "ticketTokenId",
          "type": "uint256"
        },
        {
          "indexed": false,
          "internalType": "address",
          "name": "claimToken",
          "type": "address"
        },
        {
          "indexed": false,
          "internalType": "uint256",
          "name": "releasedAmount",
          "type": "uint256"
        }
      ],
      "name": "Claim",
      "type": "event"
    },
    {
      "anonymous": false,
      "inputs": [
        {
          "indexed": false,
          "internalType": "address",
          "name": "operator",
          "type": "address"
        },
        {
          "indexed": false,
          "internalType": "address",
          "name": "beneficiary",
          "type": "address"
        },
        {
          "indexed": false,
          "internalType": "uint256[]",
          "name": "ticketTokenIds",
          "type": "uint256[]"
        },
        {
          "indexed": false,
          "internalType": "address",
          "name": "claimToken",
          "type": "address"
        },
        {
          "indexed": false,
          "internalType": "uint256",
          "name": "releasedAmount",
          "type": "uint256"
        }
      ],
      "name": "ClaimMany",
      "type": "event"
    },
    {
      "anonymous": false,
      "inputs": [
        {
          "indexed": false,
          "internalType": "uint8",
          "name": "version",
          "type": "uint8"
        }
      ],
      "name": "Initialized",
      "type": "event"
    },
    {
      "anonymous": false,
      "inputs": [
        {
          "indexed": true,
          "internalType": "address",
          "name": "previousOwner",
          "type": "address"
        },
        {
          "indexed": true,
          "internalType": "address",
          "name": "newOwner",
          "type": "address"
        }
      ],
      "name": "OwnershipTransferred",
      "type": "event"
    },
    {
      "inputs": [
        {
          "internalType": "uint256",
          "name": "ticketTokenId",
          "type": "uint256"
        }
      ],
      "name": "claim",
      "outputs": [],
      "stateMutability": "nonpayable",
      "type": "function"
    },
    {
      "inputs": [
        {
          "internalType": "uint256[]",
          "name": "ticketTokenIds",
          "type": "uint256[]"
        }
      ],
      "name": "claim",
      "outputs": [],
      "stateMutability": "nonpayable",
      "type": "function"
    },
    {
      "inputs": [
        {
          "internalType": "uint256",
          "name": "ticketTokenId",
          "type": "uint256"
        },
        {
          "internalType": "address",
          "name": "claimToken",
          "type": "address"
        }
      ],
      "name": "claim",
      "outputs": [],
      "stateMutability": "nonpayable",
      "type": "function"
    },
    {
      "inputs": [
        {
          "internalType": "uint256[]",
          "name": "ticketTokenIds",
          "type": "uint256[]"
        },
        {
          "internalType": "address",
          "name": "claimToken",
          "type": "address"
        },
        {
          "internalType": "address",
          "name": "owner",
          "type": "address"
        }
      ],
      "name": "claim",
      "outputs": [],
      "stateMutability": "nonpayable",
      "type": "function"
    },
    {
      "inputs": [
        {
          "internalType": "uint64",
          "name": "calcUntil",
          "type": "uint64"
        }
      ],
      "name": "emissionAmountUntil",
      "outputs": [
        {
          "internalType": "uint256",
          "name": "",
          "type": "uint256"
        }
      ],
      "stateMutability": "view",
      "type": "function"
    },
    {
      "inputs": [],
      "name": "emissionEnd",
      "outputs": [
        {
          "internalType": "uint64",
          "name": "",
          "type": "uint64"
        }
      ],
      "stateMutability": "view",
      "type": "function"
    },
    {
      "inputs": [],
      "name": "emissionRate",
      "outputs": [
        {
          "internalType": "uint256",
          "name": "",
          "type": "uint256"
        }
      ],
      "stateMutability": "view",
      "type": "function"
    },
    {
      "inputs": [],
      "name": "emissionStart",
      "outputs": [
        {
          "internalType": "uint64",
          "name": "",
          "type": "uint64"
        }
      ],
      "stateMutability": "view",
      "type": "function"
    },
    {
      "inputs": [],
      "name": "emissionTimeUnit",
      "outputs": [
        {
          "internalType": "uint64",
          "name": "",
          "type": "uint64"
        }
      ],
      "stateMutability": "view",
      "type": "function"
    },
    {
      "inputs": [
        {
          "internalType": "uint256",
          "name": "",
          "type": "uint256"
        },
        {
          "internalType": "address",
          "name": "",
          "type": "address"
        }
      ],
      "name": "entitlements",
      "outputs": [
        {
          "internalType": "uint256",
          "name": "totalClaimed",
          "type": "uint256"
        },
        {
          "internalType": "uint256",
          "name": "lastClaimedAt",
          "type": "uint256"
        }
      ],
      "stateMutability": "view",
      "type": "function"
    },
    {
      "inputs": [],
      "name": "hasERC721EmissionReleaseExtension",
      "outputs": [
        {
          "internalType": "bool",
          "name": "",
          "type": "bool"
        }
      ],
      "stateMutability": "pure",
      "type": "function"
    },
    {
      "inputs": [],
      "name": "hasERC721EqualSplitExtension",
      "outputs": [
        {
          "internalType": "bool",
          "name": "",
          "type": "bool"
        }
      ],
      "stateMutability": "pure",
      "type": "function"
    },
    {
      "inputs": [
        {
          "components": [
            {
              "internalType": "address",
              "name": "ticketToken",
              "type": "address"
            },
            {
              "internalType": "uint64",
              "name": "lockedUntilTimestamp",
              "type": "uint64"
            },
            {
              "internalType": "uint256",
              "name": "totalTickets",
              "type": "uint256"
            },
            {
              "internalType": "uint256",
              "name": "emissionRate",
              "type": "uint256"
            },
            {
              "internalType": "uint64",
              "name": "emissionTimeUnit",
              "type": "uint64"
            },
            {
              "internalType": "uint64",
              "name": "emissionStart",
              "type": "uint64"
            },
            {
              "internalType": "uint64",
              "name": "emissionEnd",
              "type": "uint64"
            }
          ],
          "internalType": "struct ERC721EqualEmissionStream.Config",
          "name": "config",
          "type": "tuple"
        }
      ],
      "name": "initialize",
      "outputs": [],
      "stateMutability": "nonpayable",
      "type": "function"
    },
    {
      "inputs": [
        {
          "internalType": "uint64",
          "name": "newValue",
          "type": "uint64"
        }
      ],
      "name": "lockUntil",
      "outputs": [],
      "stateMutability": "nonpayable",
      "type": "function"
    },
    {
      "inputs": [],
      "name": "lockedUntilTimestamp",
      "outputs": [
        {
          "internalType": "uint64",
          "name": "",
          "type": "uint64"
        }
      ],
      "stateMutability": "view",
      "type": "function"
    },
    {
      "inputs": [],
      "name": "name",
      "outputs": [
        {
          "internalType": "string",
          "name": "",
          "type": "string"
        }
      ],
      "stateMutability": "view",
      "type": "function"
    },
    {
      "inputs": [],
      "name": "owner",
      "outputs": [
        {
          "internalType": "address",
          "name": "",
          "type": "address"
        }
      ],
      "stateMutability": "view",
      "type": "function"
    },
    {
      "inputs": [
        {
          "internalType": "uint64",
          "name": "calcUntil",
          "type": "uint64"
        }
      ],
      "name": "releasedAmountUntil",
      "outputs": [
        {
          "internalType": "uint256",
          "name": "",
          "type": "uint256"
        }
      ],
      "stateMutability": "view",
      "type": "function"
    },
    {
      "inputs": [],
      "name": "renounceOwnership",
      "outputs": [],
      "stateMutability": "nonpayable",
      "type": "function"
    },
    {
      "inputs": [
        {
          "internalType": "uint64",
          "name": "newValue",
          "type": "uint64"
        }
      ],
      "name": "setEmissionEnd",
      "outputs": [],
      "stateMutability": "nonpayable",
      "type": "function"
    },
    {
      "inputs": [
        {
          "internalType": "uint256",
          "name": "newValue",
          "type": "uint256"
        }
      ],
      "name": "setEmissionRate",
      "outputs": [],
      "stateMutability": "nonpayable",
      "type": "function"
    },
    {
      "inputs": [
        {
          "internalType": "uint64",
          "name": "newValue",
          "type": "uint64"
        }
      ],
      "name": "setEmissionStart",
      "outputs": [],
      "stateMutability": "nonpayable",
      "type": "function"
    },
    {
      "inputs": [
        {
          "internalType": "uint64",
          "name": "newValue",
          "type": "uint64"
        }
      ],
      "name": "setEmissionTimeUnit",
      "outputs": [],
      "stateMutability": "nonpayable",
      "type": "function"
    },
    {
      "inputs": [
        {
          "internalType": "uint256",
          "name": "newValue",
          "type": "uint256"
        }
      ],
      "name": "setTotalTickets",
      "outputs": [],
      "stateMutability": "nonpayable",
      "type": "function"
    },
    {
      "inputs": [
        {
          "internalType": "uint256[]",
          "name": "ticketTokenIds",
          "type": "uint256[]"
        },
        {
          "internalType": "address",
          "name": "claimToken",
          "type": "address"
        }
      ],
      "name": "streamClaimableAmount",
      "outputs": [
        {
          "internalType": "uint256",
          "name": "",
          "type": "uint256"
        }
      ],
      "stateMutability": "view",
      "type": "function"
    },
    {
      "inputs": [
        {
          "internalType": "uint256",
          "name": "ticketTokenId",
          "type": "uint256"
        }
      ],
      "name": "streamClaimableAmount",
      "outputs": [
        {
          "internalType": "uint256",
          "name": "",
          "type": "uint256"
        }
      ],
      "stateMutability": "view",
      "type": "function"
    },
    {
      "inputs": [
        {
          "internalType": "uint256",
          "name": "ticketTokenId",
          "type": "uint256"
        },
        {
          "internalType": "address",
          "name": "claimToken",
          "type": "address"
        }
      ],
      "name": "streamClaimableAmount",
      "outputs": [
        {
          "internalType": "uint256",
          "name": "",
          "type": "uint256"
        }
      ],
      "stateMutability": "view",
      "type": "function"
    },
    {
      "inputs": [
        {
          "internalType": "uint256[]",
          "name": "ticketTokenIds",
          "type": "uint256[]"
        },
        {
          "internalType": "address",
          "name": "claimToken",
          "type": "address"
        }
      ],
      "name": "streamTotalClaimed",
      "outputs": [
        {
          "internalType": "uint256",
          "name": "",
          "type": "uint256"
        }
      ],
      "stateMutability": "view",
      "type": "function"
    },
    {
      "inputs": [],
      "name": "streamTotalClaimed",
      "outputs": [
        {
          "internalType": "uint256",
          "name": "",
          "type": "uint256"
        }
      ],
      "stateMutability": "view",
      "type": "function"
    },
    {
      "inputs": [
        {
          "internalType": "uint256[]",
          "name": "ticketTokenIds",
          "type": "uint256[]"
        }
      ],
      "name": "streamTotalClaimed",
      "outputs": [
        {
          "internalType": "uint256",
          "name": "",
          "type": "uint256"
        }
      ],
      "stateMutability": "view",
      "type": "function"
    },
    {
      "inputs": [
        {
          "internalType": "uint256",
          "name": "ticketTokenId",
          "type": "uint256"
        },
        {
          "internalType": "address",
          "name": "claimToken",
          "type": "address"
        }
      ],
      "name": "streamTotalClaimed",
      "outputs": [
        {
          "internalType": "uint256",
          "name": "",
          "type": "uint256"
        }
      ],
      "stateMutability": "view",
      "type": "function"
    },
    {
      "inputs": [
        {
          "internalType": "address",
          "name": "claimToken",
          "type": "address"
        }
      ],
      "name": "streamTotalClaimed",
      "outputs": [
        {
          "internalType": "uint256",
          "name": "",
          "type": "uint256"
        }
      ],
      "stateMutability": "view",
      "type": "function"
    },
    {
      "inputs": [
        {
          "internalType": "uint256",
          "name": "ticketTokenId",
          "type": "uint256"
        }
      ],
      "name": "streamTotalClaimed",
      "outputs": [
        {
          "internalType": "uint256",
          "name": "",
          "type": "uint256"
        }
      ],
      "stateMutability": "view",
      "type": "function"
    },
    {
      "inputs": [],
      "name": "streamTotalSupply",
      "outputs": [
        {
          "internalType": "uint256",
          "name": "",
          "type": "uint256"
        }
      ],
      "stateMutability": "view",
      "type": "function"
    },
    {
      "inputs": [
        {
          "internalType": "address",
          "name": "claimToken",
          "type": "address"
        }
      ],
      "name": "streamTotalSupply",
      "outputs": [
        {
          "internalType": "uint256",
          "name": "",
          "type": "uint256"
        }
      ],
      "stateMutability": "view",
      "type": "function"
    },
    {
      "inputs": [
        {
          "internalType": "bytes4",
          "name": "interfaceId",
          "type": "bytes4"
        }
      ],
      "name": "supportsInterface",
      "outputs": [
        {
          "internalType": "bool",
          "name": "",
          "type": "bool"
        }
      ],
      "stateMutability": "view",
      "type": "function"
    },
    {
      "inputs": [],
      "name": "ticketToken",
      "outputs": [
        {
          "internalType": "address",
          "name": "",
          "type": "address"
        }
      ],
      "stateMutability": "view",
      "type": "function"
    },
    {
      "inputs": [],
      "name": "totalTickets",
      "outputs": [
        {
          "internalType": "uint256",
          "name": "",
          "type": "uint256"
        }
      ],
      "stateMutability": "view",
      "type": "function"
    },
    {
      "inputs": [
        {
          "internalType": "address",
          "name": "newOwner",
          "type": "address"
        }
      ],
      "name": "transferOwnership",
      "outputs": [],
      "stateMutability": "nonpayable",
      "type": "function"
    },
    {
      "inputs": [],
      "name": "version",
      "outputs": [
        {
          "internalType": "string",
          "name": "",
          "type": "string"
        }
      ],
      "stateMutability": "view",
      "type": "function"
    },
    {
      "stateMutability": "payable",
      "type": "receive"
    }
  ],
  "transactionHash": "0xfd572eb899875c78fec4349ba5adccb181dcc253ee0584430ac563ad0b565406",
  "args": [
    {
      "ticketToken": "0x0000000000000000000000000000000000000000",
      "lockedUntilTimestamp": 0,
      "totalTickets": 0,
      "emissionRate": 0,
      "emissionTimeUnit": 0,
      "emissionStart": 0,
      "emissionEnd": 0
    }
  ],
  "numDeployments": 1,
  "solcInputHash": "f36bbd2d58b66b037af1b3d3cb8d4e33",
  "bytecode": "0x60806040523480156200001157600080fd5b506040516200296038038062002960833981016040819052620000349162000574565b600160665562000044816200004b565b50620006c8565b600062000059600162000118565b9050801562000072576000805461ff0019166101001790555b6200007c620001ca565b62000086620001f6565b815160208301516200009991906200022a565b620000bd826060015183608001518460a001518560c001516200026a60201b60201c565b6040820151620000cd90620002b2565b801562000114576000805461ff0019169055604051600181527f7f26b83ff96e1f2b6a682f133852f6798a09c465da95921460cefb38474024989060200160405180910390a15b5050565b60008054610100900460ff161562000181578160ff1660011480156200015157506200014f30620002f460201b620015701760201c565b155b620001795760405162461bcd60e51b815260040162000170906200062f565b60405180910390fd5b506000919050565b60005460ff808416911610620001ab5760405162461bcd60e51b815260040162000170906200062f565b506000805460ff191660ff92909216919091179055600190565b919050565b600054610100900460ff16620001f45760405162461bcd60e51b815260040162000170906200067d565b565b600054610100900460ff16620002205760405162461bcd60e51b815260040162000170906200067d565b620001f462000303565b600054610100900460ff16620002545760405162461bcd60e51b815260040162000170906200067d565b6200025e620001ca565b62000114828262000338565b600054610100900460ff16620002945760405162461bcd60e51b815260040162000170906200067d565b6200029e620001ca565b620002ac84848484620003a2565b50505050565b600054610100900460ff16620002dc5760405162461bcd60e51b815260040162000170906200067d565b620002e6620001ca565b620002f1816200042d565b50565b6001600160a01b03163b151590565b600054610100900460ff166200032d5760405162461bcd60e51b815260040162000170906200067d565b620001f4336200046e565b600054610100900460ff16620003625760405162461bcd60e51b815260040162000170906200067d565b606780546001600160401b038316600160a01b026001600160e01b03199091166001600160a01b0385161717905562000114631ba050e960e21b620004c0565b600054610100900460ff16620003cc5760405162461bcd60e51b815260040162000170906200067d565b606a849055606b80546001600160401b03838116600160801b02600160801b600160c01b031986831668010000000000000000026001600160801b0319909416928816929092179290921716179055620002ac634d0b5a4960e01b620004c0565b600054610100900460ff16620004575760405162461bcd60e51b815260040162000170906200067d565b606c819055620002f1632d5305cb60e21b620004c0565b603480546001600160a01b038381166001600160a01b0319831681179093556040519116919082907f8be0079c531659141344cd1fd0a4f28419497f9722a3daafe3b4186f6b6457e090600090a35050565b6001600160e01b031980821614156200051c5760405162461bcd60e51b815260206004820152601c60248201527f4552433136353a20696e76616c696420696e7465726661636520696400000000604482015260640162000170565b6001600160e01b0319166000908152600160208190526040909120805460ff19169091179055565b80516001600160a01b0381168114620001c557600080fd5b80516001600160401b0381168114620001c557600080fd5b600060e082840312156200058757600080fd5b60405160e081016001600160401b0381118282101715620005b857634e487b7160e01b600052604160045260246000fd5b604052620005c68362000544565b8152620005d6602084016200055c565b60208201526040830151604082015260608301516060820152620005fd608084016200055c565b60808201526200061060a084016200055c565b60a08201526200062360c084016200055c565b60c08201529392505050565b6020808252602e908201527f496e697469616c697a61626c653a20636f6e747261637420697320616c72656160408201526d191e481a5b9a5d1a585b1a5e995960921b606082015260800190565b6020808252602b908201527f496e697469616c697a61626c653a20636f6e7472616374206973206e6f74206960408201526a6e697469616c697a696e6760a81b606082015260800190565b61228880620006d86000396000f3fe6080604052600436106101cf5760003560e01c80630191c0af146101e857806301ffc9a71461021b57806306fdde031461024b5780631bc51b26146102a05780631c725fdc146102b457806325289bad146102d45780632890d03314610313578063379607f5146103285780633b3f12e2146103485780633d2dded514610368578063513da948146103a557806354fd4d50146103cc57806357dc48c8146103fb578063619496361461044f5780636ba4c1381461046f578063715018a61461048f57806378b094ca146104a4578063790c0c73146104c45780638368909c146104e457806389c6b8151461050b5780638da5cb5b1461052b578063968d9b2c1461054d57806396afc4501461056d5780639edfe83014610583578063a1bdb15e146105a3578063a1cf6493146105c3578063a86b21e814610606578063aaf2f99914610626578063ae890c0a14610646578063c088184914610666578063d1335b69146102a0578063d5ed4d5a1461069c578063d97314f5146106bc578063dd11247e146106dc578063ddd5e1b2146106f2578063e35110ba14610712578063f2fde38b14610732578063f389b6e414610752578063f4415ad614610772578063f66e38c2146107aa57600080fd5b366101e357600034116101e157600080fd5b005b600080fd5b3480156101f457600080fd5b50610208610203366004611c37565b6107ca565b6040519081526020015b60405180910390f35b34801561022757600080fd5b5061023b610236366004611c8d565b610822565b6040519015158152602001610212565b34801561025757600080fd5b506102936040518060400160405280601c81526020017b45524337323120457175616c20456d697373696f6e2053747265616d60201b81525081565b6040516102129190611cb7565b3480156102ac57600080fd5b50600161023b565b3480156102c057600080fd5b506101e16102cf366004611d23565b610862565b3480156102e057600080fd5b506067546102fb90600160a01b90046001600160401b031681565b6040516001600160401b039091168152602001610212565b34801561031f57600080fd5b506102086108fb565b34801561033457600080fd5b506101e1610343366004611d3e565b61090c565b34801561035457600080fd5b50610208610363366004611c37565b61091a565b34801561037457600080fd5b506000805260696020527f5843af22e99e7c98370145a5056245c244ce8ee852f4ef5e6d6a8e410a18cf4154610208565b3480156103b157600080fd5b50606b546102fb90600160401b90046001600160401b031681565b3480156103d857600080fd5b5061029360405180604001604052806003815260200162302e3160e81b81525081565b34801561040757600080fd5b5061043a610416366004611d57565b60686020908152600092835260408084209091529082529020805460019091015482565b60408051928352602083019190915201610212565b34801561045b57600080fd5b50606b546102fb906001600160401b031681565b34801561047b57600080fd5b506101e161048a366004611d87565b610998565b34801561049b57600080fd5b506101e16109a9565b3480156104b057600080fd5b506101e16104bf366004611d23565b6109e4565b3480156104d057600080fd5b506102086104df366004611dc8565b610a71565b3480156104f057600080fd5b50606b546102fb90600160801b90046001600160401b031681565b34801561051757600080fd5b50610208610526366004611d87565b610b44565b34801561053757600080fd5b50610540610b52565b6040516102129190611de5565b34801561055957600080fd5b50610208610568366004611d3e565b610b61565b34801561057957600080fd5b50610208606a5481565b34801561058f57600080fd5b5061020861059e366004611d23565b610b6e565b3480156105af57600080fd5b506101e16105be366004611d3e565b610bb3565b3480156105cf57600080fd5b506102086105de366004611d57565b60009182526068602090815260408084206001600160a01b0393909316845291905290205490565b34801561061257600080fd5b50610208610621366004611d23565b610c19565b34801561063257600080fd5b506101e1610641366004611d23565b610c5f565b34801561065257600080fd5b506101e1610661366004611d3e565b610cec565b34801561067257600080fd5b50610208610681366004611dc8565b6001600160a01b031660009081526069602052604090205490565b3480156106a857600080fd5b50606754610540906001600160a01b031681565b3480156106c857600080fd5b506101e16106d7366004611d23565b610d52565b3480156106e857600080fd5b50610208606c5481565b3480156106fe57600080fd5b506101e161070d366004611d57565b610dd5565b34801561071e57600080fd5b506101e161072d366004611df9565b611064565b34801561073e57600080fd5b506101e161074d366004611dc8565b61111c565b34801561075e57600080fd5b506101e161076d366004611ea8565b6111b9565b34801561077e57600080fd5b5061020861078d366004611d3e565b600090815260686020908152604080832083805290915290205490565b3480156107b657600080fd5b506102086107c5366004611d57565b611518565b600080805b84811015610817576107f98686838181106107ec576107ec611f0f565b9050602002013585611518565b6108039083611f3b565b91508061080f81611f53565b9150506107cf565b5090505b9392505050565b60006301ffc9a760e01b6001600160e01b03198316148061085c57506001600160e01b0319821660009081526001602052604090205460ff165b92915050565b3361086b610b52565b6001600160a01b03161461089a5760405162461bcd60e51b815260040161089190611f6e565b60405180910390fd5b6067546001600160401b03600160a01b9091048116908216116108cf5760405162461bcd60e51b815260040161089190611fa3565b606780546001600160401b03909216600160a01b02600160a01b600160e01b0319909216919091179055565b60006109076000610a71565b905090565b610917816000610dd5565b50565b600080805b84811015610817576068600087878481811061093d5761093d611f0f565b9050602002013581526020019081526020016000206000856001600160a01b03166001600160a01b0316815260200190815260200160002060000154826109849190611f3b565b91508061099081611f53565b91505061091f565b6109a582826000336111b9565b5050565b336109b2610b52565b6001600160a01b0316146109d85760405162461bcd60e51b815260040161089190611f6e565b6109e2600061157f565b565b336109ed610b52565b6001600160a01b031614610a135760405162461bcd60e51b815260040161089190611f6e565b60675442600160a01b9091046001600160401b031610610a455760405162461bcd60e51b815260040161089190611fd1565b606b80546001600160401b03909216600160801b02600160801b600160c01b0319909216919091179055565b60006001600160a01b038216610aa5576001600160a01b03821660009081526069602052604090205461085c904790611f3b565b6040516370a0823160e01b81526001600160a01b038316906370a0823190610ad1903090600401611de5565b60206040518083038186803b158015610ae957600080fd5b505afa158015610afd573d6000803e3d6000fd5b505050506040513d601f19601f82011682018060405250810190610b219190611fff565b6001600160a01b03831660009081526069602052604090205461085c9190611f3b565b600061081b8383600061091a565b6034546001600160a01b031690565b600061085c826000611518565b606b546000906001600160401b0380821691610b9391600160401b9091041684612018565b610b9d9190612056565b6001600160401b0316606a5461085c919061207c565b33610bbc610b52565b6001600160a01b031614610be25760405162461bcd60e51b815260040161089190611f6e565b60675442600160a01b9091046001600160401b031610610c145760405162461bcd60e51b815260040161089190611fd1565b606a55565b606b54606a546000916001600160401b038082169291610c4291600160401b9091041685612018565b6001600160401b0316610c55919061207c565b61085c919061209b565b33610c68610b52565b6001600160a01b031614610c8e5760405162461bcd60e51b815260040161089190611f6e565b60675442600160a01b9091046001600160401b031610610cc05760405162461bcd60e51b815260040161089190611fd1565b606b80546001600160401b03909216600160401b02600160401b600160801b0319909216919091179055565b33610cf5610b52565b6001600160a01b031614610d1b5760405162461bcd60e51b815260040161089190611f6e565b60675442600160a01b9091046001600160401b031610610d4d5760405162461bcd60e51b815260040161089190611fa3565b606c55565b33610d5b610b52565b6001600160a01b031614610d815760405162461bcd60e51b815260040161089190611f6e565b60675442600160a01b9091046001600160401b031610610db35760405162461bcd60e51b815260040161089190611fd1565b606b80546001600160401b0319166001600160401b0392909216919091179055565b60026066541415610df85760405162461bcd60e51b8152600401610891906120af565b6002606655610e0782826115d1565b6067546040516331a9108f60e11b8152600481018490526000916001600160a01b031690636352211e9060240160206040518083038186803b158015610e4c57600080fd5b505afa158015610e60573d6000803e3d6000fd5b505050506040513d601f19601f82011682018060405250810190610e8491906120e6565b90506000610e928484611518565b905060008111610ede5760405162461bcd60e51b815260206004820152601760248201527653545245414d2f4e4f5448494e475f544f5f434c41494d60481b6044820152606401610891565b60008481526068602090815260408083206001600160a01b038716845290915281208054839290610f10908490611f3b565b909155505060008481526068602090815260408083206001600160a01b0387168452825280832042600190910155606990915281208054839290610f55908490611f3b565b90915550506001600160a01b038316610f8057610f7b6001600160a01b038316826115db565b611002565b60405163a9059cbb60e01b81526001600160a01b0384169063a9059cbb90610fae9085908590600401612103565b602060405180830381600087803b158015610fc857600080fd5b505af1158015610fdc573d6000803e3d6000fd5b505050506040513d601f19601f82011682018060405250810190611000919061211c565b505b604080513381526001600160a01b038481166020830152818301879052851660608201526080810183905290517fa2d3c4c1fc934d6d2d8f9e862df90c01ae4eb0e920cd8957d242ba26b8dc40789181900360a00190a1505060016066555050565b600061107060016116f6565b90508015611088576000805461ff0019166101001790555b61109061178a565b6110986117b1565b6110aa826000015183602001516117e0565b6110c6826060015183608001518460a001518560c00151611819565b6110d3826040015161185a565b80156109a5576000805461ff0019169055604051600181527f7f26b83ff96e1f2b6a682f133852f6798a09c465da95921460cefb38474024989060200160405180910390a15050565b33611125610b52565b6001600160a01b03161461114b5760405162461bcd60e51b815260040161089190611f6e565b6001600160a01b0381166111b05760405162461bcd60e51b815260206004820152602660248201527f4f776e61626c653a206e6577206f776e657220697320746865207a65726f206160448201526564647265737360d01b6064820152608401610891565b6109178161157f565b600260665414156111dc5760405162461bcd60e51b8152600401610891906120af565b60026066556000805b848110156113f55761120f86868381811061120257611202611f0f565b90506020020135856115d1565b6067546001600160a01b038085169116636352211e88888581811061123657611236611f0f565b905060200201356040518263ffffffff1660e01b815260040161125b91815260200190565b60206040518083038186803b15801561127357600080fd5b505afa158015611287573d6000803e3d6000fd5b505050506040513d601f19601f820116820180604052508101906112ab91906120e6565b6001600160a01b0316146112f85760405162461bcd60e51b815260206004820152601460248201527329aa2922a0a697a727aa2fa7232a2fa7aba722a960611b6044820152606401610891565b600061131c87878481811061130f5761130f611f0f565b9050602002013586611518565b905080156113e257806068600089898681811061133b5761133b611f0f565b9050602002013581526020019081526020016000206000876001600160a01b03166001600160a01b0316815260200190815260200160002060000160008282546113859190611f3b565b90915550429050606860008989868181106113a2576113a2611f0f565b6020908102929092013583525081810192909252604090810160009081206001600160a01b038a1682529092529020600101556113df8184611f3b565b92505b50806113ed81611f53565b9150506111e5565b506001600160a01b0383166000908152606960205260408120805483929061141e908490611f3b565b90915550506001600160a01b038316611449576114446001600160a01b038316826115db565b6114cb565b60405163a9059cbb60e01b81526001600160a01b0384169063a9059cbb906114779085908590600401612103565b602060405180830381600087803b15801561149157600080fd5b505af11580156114a5573d6000803e3d6000fd5b505050506040513d601f19601f820116820180604052508101906114c9919061211c565b505b7fd84a5c424a4f777bcf4f645712b8e5ebfc550f42bde444fa822fe98ee1b132b13383878787866040516115049695949392919061213e565b60405180910390a150506001606655505050565b60008061153861153161152a85610a71565b8686611892565b858561191a565b60008581526068602090815260408083206001600160a01b038816845290915290205490915061156890826121a2565b949350505050565b6001600160a01b03163b151590565b603480546001600160a01b038381166001600160a01b0319831681179093556040519116919082907f8be0079c531659141344cd1fd0a4f28419497f9722a3daafe3b4186f6b6457e090600090a35050565b6109a5828261192a565b8047101561162b5760405162461bcd60e51b815260206004820152601d60248201527f416464726573733a20696e73756666696369656e742062616c616e63650000006044820152606401610891565b6000826001600160a01b03168260405160006040518083038185875af1925050503d8060008114611678576040519150601f19603f3d011682016040523d82523d6000602084013e61167d565b606091505b50509050806116f15760405162461bcd60e51b815260206004820152603a60248201527f416464726573733a20756e61626c6520746f2073656e642076616c75652c20726044820152791958da5c1a595b9d081b585e481a185d99481c995d995c9d195960321b6064820152608401610891565b505050565b60008054610100900460ff1615611744578160ff166001148015611720575061171e30611570565b155b61173c5760405162461bcd60e51b8152600401610891906121b9565b506000919050565b60005460ff80841691161061176b5760405162461bcd60e51b8152600401610891906121b9565b506000805460ff191660ff92909216919091179055600190565b919050565b600054610100900460ff166109e25760405162461bcd60e51b815260040161089190612207565b600054610100900460ff166117d85760405162461bcd60e51b815260040161089190612207565b6109e26119fd565b600054610100900460ff166118075760405162461bcd60e51b815260040161089190612207565b61180f61178a565b6109a58282611a2d565b600054610100900460ff166118405760405162461bcd60e51b815260040161089190612207565b61184861178a565b61185484848484611a92565b50505050565b600054610100900460ff166118815760405162461bcd60e51b815260040161089190612207565b61188961178a565b61091781611b13565b606b54600090600160401b90046001600160401b03164210156118b75750600061081b565b606b54600160801b90046001600160401b0316158015906118e95750606b54600160801b90046001600160401b031642115b1561191157606b5461190a90600160801b90046001600160401b0316610b6e565b905061081b565b61190a42610b6e565b6000606c5484611568919061209b565b606b5442600160401b9091046001600160401b0316106119815760405162461bcd60e51b815260206004820152601260248201527114d5149150534bd393d517d4d5105495115160721b6044820152606401610891565b606b54611997906001600160401b0316426121a2565b60008381526068602090815260408083206001600160a01b0386168452909152902060010154106109a55760405162461bcd60e51b815260206004820152601060248201526f53545245414d2f544f4f5f4541524c5960801b6044820152606401610891565b600054610100900460ff16611a245760405162461bcd60e51b815260040161089190612207565b6109e23361157f565b600054610100900460ff16611a545760405162461bcd60e51b815260040161089190612207565b606780546001600160401b038316600160a01b026001600160e01b03199091166001600160a01b038516171790556109a5631ba050e960e21b611b4b565b600054610100900460ff16611ab95760405162461bcd60e51b815260040161089190612207565b606a849055606b80546001600160401b03838116600160801b02600160801b600160c01b0319868316600160401b026001600160801b0319909416928816929092179290921716179055611854634d0b5a4960e01b611b4b565b600054610100900460ff16611b3a5760405162461bcd60e51b815260040161089190612207565b606c819055610917632d5305cb60e21b5b6001600160e01b03198082161415611ba45760405162461bcd60e51b815260206004820152601c60248201527b115490cc4d8d4e881a5b9d985b1a59081a5b9d195c999858d9481a5960221b6044820152606401610891565b6001600160e01b0319166000908152600160208190526040909120805460ff19169091179055565b60008083601f840112611bde57600080fd5b5081356001600160401b03811115611bf557600080fd5b6020830191508360208260051b8501011115611c1057600080fd5b9250929050565b6001600160a01b038116811461091757600080fd5b803561178581611c17565b600080600060408486031215611c4c57600080fd5b83356001600160401b03811115611c6257600080fd5b611c6e86828701611bcc565b9094509250506020840135611c8281611c17565b809150509250925092565b600060208284031215611c9f57600080fd5b81356001600160e01b03198116811461081b57600080fd5b600060208083528351808285015260005b81811015611ce457858101830151858201604001528201611cc8565b81811115611cf6576000604083870101525b50601f01601f1916929092016040019392505050565b80356001600160401b038116811461178557600080fd5b600060208284031215611d3557600080fd5b61081b82611d0c565b600060208284031215611d5057600080fd5b5035919050565b60008060408385031215611d6a57600080fd5b823591506020830135611d7c81611c17565b809150509250929050565b60008060208385031215611d9a57600080fd5b82356001600160401b03811115611db057600080fd5b611dbc85828601611bcc565b90969095509350505050565b600060208284031215611dda57600080fd5b813561081b81611c17565b6001600160a01b0391909116815260200190565b600060e08284031215611e0b57600080fd5b60405160e081016001600160401b0381118282101715611e3b57634e487b7160e01b600052604160045260246000fd5b604052611e4783611c2c565b8152611e5560208401611d0c565b60208201526040830135604082015260608301356060820152611e7a60808401611d0c565b6080820152611e8b60a08401611d0c565b60a0820152611e9c60c08401611d0c565b60c08201529392505050565b60008060008060608587031215611ebe57600080fd5b84356001600160401b03811115611ed457600080fd5b611ee087828801611bcc565b9095509350506020850135611ef481611c17565b91506040850135611f0481611c17565b939692955090935050565b634e487b7160e01b600052603260045260246000fd5b634e487b7160e01b600052601160045260246000fd5b60008219821115611f4e57611f4e611f25565b500190565b6000600019821415611f6757611f67611f25565b5060010190565b6020808252818101527f4f776e61626c653a2063616c6c6572206973206e6f7420746865206f776e6572604082015260600190565b60208082526014908201527314d5149150534bd0d0539393d517d49155d2539160621b604082015260600190565b60208082526014908201527314d5149150534bd0d3d3919251d7d313d0d2d15160621b604082015260600190565b60006020828403121561201157600080fd5b5051919050565b60006001600160401b038381169083168181101561203857612038611f25565b039392505050565b634e487b7160e01b600052601260045260246000fd5b60006001600160401b038381168061207057612070612040565b92169190910492915050565b600081600019048311821515161561209657612096611f25565b500290565b6000826120aa576120aa612040565b500490565b6020808252601f908201527f5265656e7472616e637947756172643a207265656e7472616e742063616c6c00604082015260600190565b6000602082840312156120f857600080fd5b815161081b81611c17565b6001600160a01b03929092168252602082015260400190565b60006020828403121561212e57600080fd5b8151801515811461081b57600080fd5b6001600160a01b038781168252868116602083015260a06040830181905282018590526000906001600160fb1b0386111561217857600080fd5b8560051b808860c0860137600090840160c001908152941660608301525060800152949350505050565b6000828210156121b4576121b4611f25565b500390565b6020808252602e908201527f496e697469616c697a61626c653a20636f6e747261637420697320616c72656160408201526d191e481a5b9a5d1a585b1a5e995960921b606082015260800190565b6020808252602b908201527f496e697469616c697a61626c653a20636f6e7472616374206973206e6f74206960408201526a6e697469616c697a696e6760a81b60608201526080019056fea26469706673582212207f95f954e5cb02481bc261708784699a2d2344490bb25d37c470432606cdfd5364736f6c63430008090033",
  "devdoc": {
    "kind": "dev",
    "methods": {
      "owner()": {
        "details": "Returns the address of the current owner."
      },
      "renounceOwnership()": {
        "details": "Leaves the contract without owner. It will not be possible to call `onlyOwner` functions anymore. Can only be called by the current owner. NOTE: Renouncing ownership will leave the contract without an owner, thereby removing any functionality that is only available to the owner."
      },
      "supportsInterface(bytes4)": {
        "details": "See {IERC165-supportsInterface}."
      },
      "transferOwnership(address)": {
        "details": "Transfers ownership of the contract to a new account (`newOwner`). Can only be called by the current owner."
      }
    },
    "version": 1
  },
  "userdoc": {
    "kind": "user",
    "methods": {},
    "version": 1
  },
  "storageLayout": {
    "storage": [
      {
        "astId": 512,
        "contract": "contracts/streams/ERC721/presets/ERC721EqualEmissionStream.sol:ERC721EqualEmissionStream",
        "label": "_initialized",
        "offset": 0,
        "slot": "0",
        "type": "t_uint8"
      },
      {
        "astId": 515,
        "contract": "contracts/streams/ERC721/presets/ERC721EqualEmissionStream.sol:ERC721EqualEmissionStream",
        "label": "_initializing",
        "offset": 1,
        "slot": "0",
        "type": "t_bool"
      },
      {
        "astId": 5244,
        "contract": "contracts/streams/ERC721/presets/ERC721EqualEmissionStream.sol:ERC721EqualEmissionStream",
        "label": "_supportedInterfaces",
        "offset": 0,
        "slot": "1",
        "type": "t_mapping(t_bytes4,t_bool)"
      },
      {
        "astId": 931,
        "contract": "contracts/streams/ERC721/presets/ERC721EqualEmissionStream.sol:ERC721EqualEmissionStream",
        "label": "__gap",
        "offset": 0,
        "slot": "2",
        "type": "t_array(t_uint256)50_storage"
      },
      {
        "astId": 392,
        "contract": "contracts/streams/ERC721/presets/ERC721EqualEmissionStream.sol:ERC721EqualEmissionStream",
        "label": "_owner",
        "offset": 0,
        "slot": "52",
        "type": "t_address"
      },
      {
        "astId": 504,
        "contract": "contracts/streams/ERC721/presets/ERC721EqualEmissionStream.sol:ERC721EqualEmissionStream",
        "label": "__gap",
        "offset": 0,
        "slot": "53",
        "type": "t_array(t_uint256)49_storage"
      },
      {
        "astId": 1675,
        "contract": "contracts/streams/ERC721/presets/ERC721EqualEmissionStream.sol:ERC721EqualEmissionStream",
        "label": "_status",
        "offset": 0,
        "slot": "102",
        "type": "t_uint256"
      },
      {
        "astId": 10184,
        "contract": "contracts/streams/ERC721/presets/ERC721EqualEmissionStream.sol:ERC721EqualEmissionStream",
        "label": "ticketToken",
        "offset": 0,
        "slot": "103",
        "type": "t_address"
      },
      {
        "astId": 10186,
        "contract": "contracts/streams/ERC721/presets/ERC721EqualEmissionStream.sol:ERC721EqualEmissionStream",
        "label": "lockedUntilTimestamp",
        "offset": 20,
        "slot": "103",
        "type": "t_uint64"
      },
      {
        "astId": 10193,
        "contract": "contracts/streams/ERC721/presets/ERC721EqualEmissionStream.sol:ERC721EqualEmissionStream",
        "label": "entitlements",
        "offset": 0,
        "slot": "104",
        "type": "t_mapping(t_uint256,t_mapping(t_address,t_struct(Entitlement)10182_storage))"
      },
      {
        "astId": 10197,
        "contract": "contracts/streams/ERC721/presets/ERC721EqualEmissionStream.sol:ERC721EqualEmissionStream",
        "label": "_streamTotalClaimed",
        "offset": 0,
        "slot": "105",
        "type": "t_mapping(t_address,t_uint256)"
      },
      {
        "astId": 10913,
        "contract": "contracts/streams/ERC721/presets/ERC721EqualEmissionStream.sol:ERC721EqualEmissionStream",
        "label": "emissionRate",
        "offset": 0,
        "slot": "106",
        "type": "t_uint256"
      },
      {
        "astId": 10915,
        "contract": "contracts/streams/ERC721/presets/ERC721EqualEmissionStream.sol:ERC721EqualEmissionStream",
        "label": "emissionTimeUnit",
        "offset": 0,
        "slot": "107",
        "type": "t_uint64"
      },
      {
        "astId": 10917,
        "contract": "contracts/streams/ERC721/presets/ERC721EqualEmissionStream.sol:ERC721EqualEmissionStream",
        "label": "emissionStart",
        "offset": 8,
        "slot": "107",
        "type": "t_uint64"
      },
      {
        "astId": 10919,
        "contract": "contracts/streams/ERC721/presets/ERC721EqualEmissionStream.sol:ERC721EqualEmissionStream",
        "label": "emissionEnd",
        "offset": 16,
        "slot": "107",
        "type": "t_uint64"
      },
      {
        "astId": 11221,
        "contract": "contracts/streams/ERC721/presets/ERC721EqualEmissionStream.sol:ERC721EqualEmissionStream",
        "label": "totalTickets",
        "offset": 0,
        "slot": "108",
        "type": "t_uint256"
      }
    ],
    "types": {
      "t_address": {
        "encoding": "inplace",
        "label": "address",
        "numberOfBytes": "20"
      },
      "t_array(t_uint256)49_storage": {
        "base": "t_uint256",
        "encoding": "inplace",
        "label": "uint256[49]",
        "numberOfBytes": "1568"
      },
      "t_array(t_uint256)50_storage": {
        "base": "t_uint256",
        "encoding": "inplace",
        "label": "uint256[50]",
        "numberOfBytes": "1600"
      },
      "t_bool": {
        "encoding": "inplace",
        "label": "bool",
        "numberOfBytes": "1"
      },
      "t_bytes4": {
        "encoding": "inplace",
        "label": "bytes4",
        "numberOfBytes": "4"
      },
      "t_mapping(t_address,t_struct(Entitlement)10182_storage)": {
        "encoding": "mapping",
        "key": "t_address",
        "label": "mapping(address => struct ERC721MultiTokenStream.Entitlement)",
        "numberOfBytes": "32",
        "value": "t_struct(Entitlement)10182_storage"
      },
      "t_mapping(t_address,t_uint256)": {
        "encoding": "mapping",
        "key": "t_address",
        "label": "mapping(address => uint256)",
        "numberOfBytes": "32",
        "value": "t_uint256"
      },
      "t_mapping(t_bytes4,t_bool)": {
        "encoding": "mapping",
        "key": "t_bytes4",
        "label": "mapping(bytes4 => bool)",
        "numberOfBytes": "32",
        "value": "t_bool"
      },
      "t_mapping(t_uint256,t_mapping(t_address,t_struct(Entitlement)10182_storage))": {
        "encoding": "mapping",
        "key": "t_uint256",
        "label": "mapping(uint256 => mapping(address => struct ERC721MultiTokenStream.Entitlement))",
        "numberOfBytes": "32",
        "value": "t_mapping(t_address,t_struct(Entitlement)10182_storage)"
      },
      "t_struct(Entitlement)10182_storage": {
        "encoding": "inplace",
        "label": "struct ERC721MultiTokenStream.Entitlement",
        "members": [
          {
            "astId": 10179,
            "contract": "contracts/streams/ERC721/presets/ERC721EqualEmissionStream.sol:ERC721EqualEmissionStream",
            "label": "totalClaimed",
            "offset": 0,
            "slot": "0",
            "type": "t_uint256"
          },
          {
            "astId": 10181,
            "contract": "contracts/streams/ERC721/presets/ERC721EqualEmissionStream.sol:ERC721EqualEmissionStream",
            "label": "lastClaimedAt",
            "offset": 0,
            "slot": "1",
            "type": "t_uint256"
          }
        ],
        "numberOfBytes": "64"
      },
      "t_uint256": {
        "encoding": "inplace",
        "label": "uint256",
        "numberOfBytes": "32"
      },
      "t_uint64": {
        "encoding": "inplace",
        "label": "uint64",
        "numberOfBytes": "8"
      },
      "t_uint8": {
        "encoding": "inplace",
        "label": "uint8",
        "numberOfBytes": "1"
      }
    }
  }
}