{
  "address": "0x6C2d2c8472Df1522050a71fa0f5868cb00601dbB",
  "abi": [
    {
      "inputs": [
        {
          "components": [
            {
              "internalType": "string",
              "name": "name",
              "type": "string"
            },
            {
              "internalType": "string",
              "name": "symbol",
              "type": "string"
            },
            {
              "internalType": "string",
              "name": "contractURI",
              "type": "string"
            },
            {
              "internalType": "string",
              "name": "placeholderURI",
              "type": "string"
            },
            {
              "internalType": "string",
              "name": "tokenURIPrefix",
              "type": "string"
            },
            {
              "internalType": "address[]",
              "name": "initialHolders",
              "type": "address[]"
            },
            {
              "internalType": "uint256[]",
              "name": "initialAmounts",
              "type": "uint256[]"
            },
            {
              "internalType": "uint256",
              "name": "maxSupply",
              "type": "uint256"
            },
            {
              "internalType": "address",
              "name": "defaultRoyaltyAddress",
              "type": "address"
            },
            {
              "internalType": "uint16",
              "name": "defaultRoyaltyBps",
              "type": "uint16"
            },
            {
              "internalType": "address",
              "name": "trustedForwarder",
              "type": "address"
            },
            {
              "internalType": "enum LicenseVersion",
              "name": "licenseVersion",
              "type": "uint8"
            }
          ],
          "internalType": "struct ERC721ManagedPrefixedCollection.Config",
          "name": "config",
          "type": "tuple"
        }
      ],
      "stateMutability": "nonpayable",
      "type": "constructor"
    },
    {
      "anonymous": false,
      "inputs": [
        {
          "indexed": true,
          "internalType": "address",
          "name": "owner",
          "type": "address"
        },
        {
          "indexed": true,
          "internalType": "address",
          "name": "approved",
          "type": "address"
        },
        {
          "indexed": true,
          "internalType": "uint256",
          "name": "tokenId",
          "type": "uint256"
        }
      ],
      "name": "Approval",
      "type": "event"
    },
    {
      "anonymous": false,
      "inputs": [
        {
          "indexed": true,
          "internalType": "address",
          "name": "owner",
          "type": "address"
        },
        {
          "indexed": true,
          "internalType": "address",
          "name": "operator",
          "type": "address"
        },
        {
          "indexed": false,
          "internalType": "bool",
          "name": "approved",
          "type": "bool"
        }
      ],
      "name": "ApprovalForAll",
      "type": "event"
    },
    {
      "anonymous": false,
      "inputs": [
        {
          "indexed": false,
          "internalType": "address",
          "name": "recipient",
          "type": "address"
        },
        {
          "indexed": false,
          "internalType": "uint16",
          "name": "bps",
          "type": "uint16"
        }
      ],
      "name": "DefaultRoyaltySet",
      "type": "event"
    },
    {
      "anonymous": false,
      "inputs": [
        {
          "indexed": false,
          "internalType": "uint8",
          "name": "version",
          "type": "uint8"
        }
      ],
      "name": "Initialized",
      "type": "event"
    },
    {
      "anonymous": false,
      "inputs": [
        {
          "indexed": true,
          "internalType": "address",
          "name": "previousOwner",
          "type": "address"
        },
        {
          "indexed": true,
          "internalType": "address",
          "name": "newOwner",
          "type": "address"
        }
      ],
      "name": "OwnershipTransferred",
      "type": "event"
    },
    {
      "anonymous": false,
      "inputs": [
        {
          "indexed": false,
          "internalType": "uint256",
          "name": "tokenId",
          "type": "uint256"
        }
      ],
      "name": "TokenRoyaltyRemoved",
      "type": "event"
    },
    {
      "anonymous": false,
      "inputs": [
        {
          "indexed": false,
          "internalType": "uint256",
          "name": "tokenId",
          "type": "uint256"
        },
        {
          "indexed": false,
          "internalType": "address",
          "name": "recipient",
          "type": "address"
        },
        {
          "indexed": false,
          "internalType": "uint16",
          "name": "bps",
          "type": "uint16"
        }
      ],
      "name": "TokenRoyaltySet",
      "type": "event"
    },
    {
      "anonymous": false,
      "inputs": [
        {
          "indexed": true,
          "internalType": "address",
          "name": "from",
          "type": "address"
        },
        {
          "indexed": true,
          "internalType": "address",
          "name": "to",
          "type": "address"
        },
        {
          "indexed": true,
          "internalType": "uint256",
          "name": "tokenId",
          "type": "uint256"
        }
      ],
      "name": "Transfer",
      "type": "event"
    },
    {
      "inputs": [],
      "name": "_trustedForwarder",
      "outputs": [
        {
          "internalType": "address",
          "name": "",
          "type": "address"
        }
      ],
      "stateMutability": "view",
      "type": "function"
    },
    {
      "inputs": [
        {
          "internalType": "address",
          "name": "to",
          "type": "address"
        },
        {
          "internalType": "uint256",
          "name": "tokenId",
          "type": "uint256"
        }
      ],
      "name": "approve",
      "outputs": [],
      "stateMutability": "nonpayable",
      "type": "function"
    },
    {
      "inputs": [
        {
          "internalType": "address",
          "name": "owner",
          "type": "address"
        }
      ],
      "name": "balanceOf",
      "outputs": [
        {
          "internalType": "uint256",
          "name": "",
          "type": "uint256"
        }
      ],
      "stateMutability": "view",
      "type": "function"
    },
    {
      "inputs": [],
      "name": "contractURI",
      "outputs": [
        {
          "internalType": "string",
          "name": "",
          "type": "string"
        }
      ],
      "stateMutability": "view",
      "type": "function"
    },
    {
      "inputs": [],
      "name": "defaultRoyalty",
      "outputs": [
        {
          "internalType": "address",
          "name": "recipient",
          "type": "address"
        },
        {
          "internalType": "uint16",
          "name": "bps",
          "type": "uint16"
        }
      ],
      "stateMutability": "view",
      "type": "function"
    },
    {
      "inputs": [],
      "name": "freezeMaxSupply",
      "outputs": [],
      "stateMutability": "nonpayable",
      "type": "function"
    },
    {
      "inputs": [],
      "name": "freezeTokenURI",
      "outputs": [],
      "stateMutability": "nonpayable",
      "type": "function"
    },
    {
      "inputs": [
        {
          "internalType": "uint256",
          "name": "tokenId",
          "type": "uint256"
        }
      ],
      "name": "getApproved",
      "outputs": [
        {
          "internalType": "address",
          "name": "",
          "type": "address"
        }
      ],
      "stateMutability": "view",
      "type": "function"
    },
    {
      "inputs": [],
      "name": "getInfo",
      "outputs": [
        {
          "internalType": "uint256",
          "name": "_maxSupply",
          "type": "uint256"
        },
        {
          "internalType": "uint256",
          "name": "_totalSupply",
          "type": "uint256"
        },
        {
          "internalType": "uint256",
          "name": "_senderBalance",
          "type": "uint256"
        }
      ],
      "stateMutability": "view",
      "type": "function"
    },
    {
      "inputs": [],
      "name": "getLicenseName",
      "outputs": [
        {
          "internalType": "string",
          "name": "",
          "type": "string"
        }
      ],
      "stateMutability": "view",
      "type": "function"
    },
    {
      "inputs": [],
      "name": "getLicenseURI",
      "outputs": [
        {
          "internalType": "string",
          "name": "",
          "type": "string"
        }
      ],
      "stateMutability": "view",
      "type": "function"
    },
    {
      "inputs": [
        {
          "internalType": "uint256",
          "name": "id",
          "type": "uint256"
        }
      ],
      "name": "getRaribleV2Royalties",
      "outputs": [
        {
          "components": [
            {
              "internalType": "address payable",
              "name": "account",
              "type": "address"
            },
            {
              "internalType": "uint96",
              "name": "value",
              "type": "uint96"
            }
          ],
          "internalType": "struct LibPart.Part[]",
          "name": "result",
          "type": "tuple[]"
        }
      ],
      "stateMutability": "view",
      "type": "function"
    },
    {
      "inputs": [],
      "name": "getTokenRoyaltiesCount",
      "outputs": [
        {
          "internalType": "uint256",
          "name": "",
          "type": "uint256"
        }
      ],
      "stateMutability": "view",
      "type": "function"
    },
    {
      "inputs": [
        {
          "internalType": "uint256",
          "name": "index",
          "type": "uint256"
        }
      ],
      "name": "getTokenRoyaltyByIndex",
      "outputs": [
        {
          "components": [
            {
              "internalType": "uint256",
              "name": "tokenId",
              "type": "uint256"
            },
            {
              "internalType": "address",
              "name": "recipient",
              "type": "address"
            },
            {
              "internalType": "uint16",
              "name": "bps",
              "type": "uint16"
            }
          ],
          "internalType": "struct IEIP2981RoyaltyOverride.TokenRoyaltyConfig",
          "name": "",
          "type": "tuple"
        }
      ],
      "stateMutability": "view",
      "type": "function"
    },
    {
      "inputs": [
        {
          "components": [
            {
              "internalType": "string",
              "name": "name",
              "type": "string"
            },
            {
              "internalType": "string",
              "name": "symbol",
              "type": "string"
            },
            {
              "internalType": "string",
              "name": "contractURI",
              "type": "string"
            },
            {
              "internalType": "string",
              "name": "placeholderURI",
              "type": "string"
            },
            {
              "internalType": "string",
              "name": "tokenURIPrefix",
              "type": "string"
            },
            {
              "internalType": "address[]",
              "name": "initialHolders",
              "type": "address[]"
            },
            {
              "internalType": "uint256[]",
              "name": "initialAmounts",
              "type": "uint256[]"
            },
            {
              "internalType": "uint256",
              "name": "maxSupply",
              "type": "uint256"
            },
            {
              "internalType": "address",
              "name": "defaultRoyaltyAddress",
              "type": "address"
            },
            {
              "internalType": "uint16",
              "name": "defaultRoyaltyBps",
              "type": "uint16"
            },
            {
              "internalType": "address",
              "name": "trustedForwarder",
              "type": "address"
            },
            {
              "internalType": "enum LicenseVersion",
              "name": "licenseVersion",
              "type": "uint8"
            }
          ],
          "internalType": "struct ERC721ManagedPrefixedCollection.Config",
          "name": "config",
          "type": "tuple"
        },
        {
          "internalType": "address",
          "name": "deployer",
          "type": "address"
        }
      ],
      "name": "initialize",
      "outputs": [],
      "stateMutability": "nonpayable",
      "type": "function"
    },
    {
      "inputs": [
        {
          "internalType": "address",
          "name": "owner",
          "type": "address"
        },
        {
          "internalType": "address",
          "name": "operator",
          "type": "address"
        }
      ],
      "name": "isApprovedForAll",
      "outputs": [
        {
          "internalType": "bool",
          "name": "",
          "type": "bool"
        }
      ],
      "stateMutability": "view",
      "type": "function"
    },
    {
      "inputs": [
        {
          "internalType": "address",
          "name": "forwarder",
          "type": "address"
        }
      ],
      "name": "isTrustedForwarder",
      "outputs": [
        {
          "internalType": "bool",
          "name": "",
          "type": "bool"
        }
      ],
      "stateMutability": "view",
      "type": "function"
    },
    {
      "inputs": [],
      "name": "licenseVersion",
      "outputs": [
        {
          "internalType": "enum LicenseVersion",
          "name": "",
          "type": "uint8"
        }
      ],
      "stateMutability": "view",
      "type": "function"
    },
    {
      "inputs": [],
      "name": "licenseVersionLocked",
      "outputs": [
        {
          "internalType": "bool",
          "name": "",
          "type": "bool"
        }
      ],
      "stateMutability": "view",
      "type": "function"
    },
    {
      "inputs": [],
      "name": "lockLicenseVersion",
      "outputs": [],
      "stateMutability": "nonpayable",
      "type": "function"
    },
    {
      "inputs": [],
      "name": "managementPowerRevoked",
      "outputs": [
        {
          "internalType": "bool",
          "name": "",
          "type": "bool"
        }
      ],
      "stateMutability": "view",
      "type": "function"
    },
    {
      "inputs": [],
      "name": "maxSupply",
      "outputs": [
        {
          "internalType": "uint256",
          "name": "",
          "type": "uint256"
        }
      ],
      "stateMutability": "view",
      "type": "function"
    },
    {
      "inputs": [],
      "name": "maxSupplyFrozen",
      "outputs": [
        {
          "internalType": "bool",
          "name": "",
          "type": "bool"
        }
      ],
      "stateMutability": "view",
      "type": "function"
    },
    {
      "inputs": [
        {
          "internalType": "address",
          "name": "to",
          "type": "address"
        },
        {
          "internalType": "uint256",
          "name": "count",
          "type": "uint256"
        }
      ],
      "name": "mintByOwner",
      "outputs": [],
      "stateMutability": "nonpayable",
      "type": "function"
    },
    {
      "inputs": [],
      "name": "name",
      "outputs": [
        {
          "internalType": "string",
          "name": "",
          "type": "string"
        }
      ],
      "stateMutability": "view",
      "type": "function"
    },
    {
      "inputs": [],
      "name": "owner",
      "outputs": [
        {
          "internalType": "address",
          "name": "",
          "type": "address"
        }
      ],
      "stateMutability": "view",
      "type": "function"
    },
    {
      "inputs": [
        {
          "internalType": "uint256",
          "name": "tokenId",
          "type": "uint256"
        }
      ],
      "name": "ownerOf",
      "outputs": [
        {
          "internalType": "address",
          "name": "",
          "type": "address"
        }
      ],
      "stateMutability": "view",
      "type": "function"
    },
    {
      "inputs": [],
      "name": "placeholderURI",
      "outputs": [
        {
          "internalType": "string",
          "name": "",
          "type": "string"
        }
      ],
      "stateMutability": "view",
      "type": "function"
    },
    {
      "inputs": [],
      "name": "renounceOwnership",
      "outputs": [],
      "stateMutability": "nonpayable",
      "type": "function"
    },
    {
      "inputs": [],
      "name": "revokeManagementPower",
      "outputs": [],
      "stateMutability": "nonpayable",
      "type": "function"
    },
    {
      "inputs": [
        {
          "internalType": "uint256",
          "name": "tokenId",
          "type": "uint256"
        },
        {
          "internalType": "uint256",
          "name": "value",
          "type": "uint256"
        }
      ],
      "name": "royaltyInfo",
      "outputs": [
        {
          "internalType": "address",
          "name": "",
          "type": "address"
        },
        {
          "internalType": "uint256",
          "name": "",
          "type": "uint256"
        }
      ],
      "stateMutability": "view",
      "type": "function"
    },
    {
      "inputs": [
        {
          "internalType": "address",
          "name": "from",
          "type": "address"
        },
        {
          "internalType": "address",
          "name": "to",
          "type": "address"
        },
        {
          "internalType": "uint256",
          "name": "tokenId",
          "type": "uint256"
        }
      ],
      "name": "safeTransferFrom",
      "outputs": [],
      "stateMutability": "nonpayable",
      "type": "function"
    },
    {
      "inputs": [
        {
          "internalType": "address",
          "name": "from",
          "type": "address"
        },
        {
          "internalType": "address",
          "name": "to",
          "type": "address"
        },
        {
          "internalType": "uint256",
          "name": "tokenId",
          "type": "uint256"
        },
        {
          "internalType": "bytes",
          "name": "data",
          "type": "bytes"
        }
      ],
      "name": "safeTransferFrom",
      "outputs": [],
      "stateMutability": "nonpayable",
      "type": "function"
    },
    {
      "inputs": [
        {
          "internalType": "address",
          "name": "operator",
          "type": "address"
        },
        {
          "internalType": "bool",
          "name": "approved",
          "type": "bool"
        }
      ],
      "name": "setApprovalForAll",
      "outputs": [],
      "stateMutability": "nonpayable",
      "type": "function"
    },
    {
      "inputs": [
        {
          "internalType": "string",
          "name": "newValue",
          "type": "string"
        }
      ],
      "name": "setContractURI",
      "outputs": [],
      "stateMutability": "nonpayable",
      "type": "function"
    },
    {
      "inputs": [
        {
          "components": [
            {
              "internalType": "address",
              "name": "recipient",
              "type": "address"
            },
            {
              "internalType": "uint16",
              "name": "bps",
              "type": "uint16"
            }
          ],
          "internalType": "struct IEIP2981RoyaltyOverride.TokenRoyalty",
          "name": "royalty",
          "type": "tuple"
        }
      ],
      "name": "setDefaultRoyalty",
      "outputs": [],
      "stateMutability": "nonpayable",
      "type": "function"
    },
    {
      "inputs": [
        {
          "internalType": "enum LicenseVersion",
          "name": "_licenseVersion",
          "type": "uint8"
        }
      ],
      "name": "setLicenseVersion",
      "outputs": [],
      "stateMutability": "nonpayable",
      "type": "function"
    },
    {
      "inputs": [
        {
          "internalType": "uint256",
          "name": "newValue",
          "type": "uint256"
        }
      ],
      "name": "setMaxSupply",
      "outputs": [],
      "stateMutability": "nonpayable",
      "type": "function"
    },
    {
      "inputs": [
        {
          "internalType": "string",
          "name": "newValue",
          "type": "string"
        }
      ],
      "name": "setPlaceholderURI",
      "outputs": [],
      "stateMutability": "nonpayable",
      "type": "function"
    },
    {
      "inputs": [
        {
          "components": [
            {
              "internalType": "uint256",
              "name": "tokenId",
              "type": "uint256"
            },
            {
              "internalType": "address",
              "name": "recipient",
              "type": "address"
            },
            {
              "internalType": "uint16",
              "name": "bps",
              "type": "uint16"
            }
          ],
          "internalType": "struct IEIP2981RoyaltyOverride.TokenRoyaltyConfig[]",
          "name": "royaltyConfigs",
          "type": "tuple[]"
        }
      ],
      "name": "setTokenRoyalties",
      "outputs": [],
      "stateMutability": "nonpayable",
      "type": "function"
    },
    {
      "inputs": [
        {
          "internalType": "string",
          "name": "newValue",
          "type": "string"
        }
      ],
      "name": "setTokenURIPrefix",
      "outputs": [],
      "stateMutability": "nonpayable",
      "type": "function"
    },
    {
      "inputs": [
        {
          "internalType": "string",
          "name": "newValue",
          "type": "string"
        }
      ],
      "name": "setTokenURISuffix",
      "outputs": [],
      "stateMutability": "nonpayable",
      "type": "function"
    },
    {
      "inputs": [
        {
          "internalType": "address",
          "name": "trustedForwarder",
          "type": "address"
        }
      ],
      "name": "setTrustedForwarder",
      "outputs": [],
      "stateMutability": "nonpayable",
      "type": "function"
    },
    {
      "inputs": [
        {
          "internalType": "bytes4",
          "name": "interfaceId",
          "type": "bytes4"
        }
      ],
      "name": "supportsInterface",
      "outputs": [
        {
          "internalType": "bool",
          "name": "",
          "type": "bool"
        }
      ],
      "stateMutability": "view",
      "type": "function"
    },
    {
      "inputs": [],
      "name": "symbol",
      "outputs": [
        {
          "internalType": "string",
          "name": "",
          "type": "string"
        }
      ],
      "stateMutability": "view",
      "type": "function"
    },
    {
      "inputs": [
        {
          "internalType": "uint256",
          "name": "_tokenId",
          "type": "uint256"
        }
      ],
      "name": "tokenURI",
      "outputs": [
        {
          "internalType": "string",
          "name": "",
          "type": "string"
        }
      ],
      "stateMutability": "view",
      "type": "function"
    },
    {
      "inputs": [],
      "name": "tokenURIFrozen",
      "outputs": [
        {
          "internalType": "bool",
          "name": "",
          "type": "bool"
        }
      ],
      "stateMutability": "view",
      "type": "function"
    },
    {
      "inputs": [],
      "name": "tokenURIPrefix",
      "outputs": [
        {
          "internalType": "string",
          "name": "",
          "type": "string"
        }
      ],
      "stateMutability": "view",
      "type": "function"
    },
    {
      "inputs": [],
      "name": "tokenURISuffix",
      "outputs": [
        {
          "internalType": "string",
          "name": "",
          "type": "string"
        }
      ],
      "stateMutability": "view",
      "type": "function"
    },
    {
      "inputs": [],
      "name": "totalSupply",
      "outputs": [
        {
          "internalType": "uint256",
          "name": "",
          "type": "uint256"
        }
      ],
      "stateMutability": "view",
      "type": "function"
    },
    {
      "inputs": [
        {
          "internalType": "address",
          "name": "from",
          "type": "address"
        },
        {
          "internalType": "address",
          "name": "to",
          "type": "address"
        },
        {
          "internalType": "uint256",
          "name": "tokenId",
          "type": "uint256"
        }
      ],
      "name": "transferFrom",
      "outputs": [],
      "stateMutability": "nonpayable",
      "type": "function"
    },
    {
      "inputs": [
        {
          "internalType": "address",
          "name": "from",
          "type": "address"
        },
        {
          "internalType": "address",
          "name": "to",
          "type": "address"
        },
        {
          "internalType": "uint256[]",
          "name": "tokenIds",
          "type": "uint256[]"
        }
      ],
      "name": "transferFromBulk",
      "outputs": [],
      "stateMutability": "nonpayable",
      "type": "function"
    },
    {
      "inputs": [
        {
          "internalType": "address[]",
          "name": "from",
          "type": "address[]"
        },
        {
          "internalType": "address[]",
          "name": "to",
          "type": "address[]"
        },
        {
          "internalType": "uint256[]",
          "name": "tokenIds",
          "type": "uint256[]"
        }
      ],
      "name": "transferFromBulk",
      "outputs": [],
      "stateMutability": "nonpayable",
      "type": "function"
    },
    {
      "inputs": [
        {
          "internalType": "address",
          "name": "newOwner",
          "type": "address"
        }
      ],
      "name": "transferOwnership",
      "outputs": [],
      "stateMutability": "nonpayable",
      "type": "function"
    }
  ],
  "transactionHash": "0xee75c1815263fc6bd26c80846b160df67c582249062d497a0fae01598a7c1890",
  "args": [
    {
      "name": "Collection",
      "symbol": "COL",
      "contractURI": "ipfs://contractURI",
      "placeholderURI": "ipfs://placeholderURI",
      "tokenURIPrefix": "ipfs://tokenURIPrefix/",
      "maxSupply": 0,
      "defaultRoyaltyAddress": "0x0000000000000000000000000000000000000000",
      "defaultRoyaltyBps": 0,
      "trustedForwarder": "0x0000000000000000000000000000000000000000",
      "initialHolders": [],
      "initialAmounts": [],
      "licenseVersion": 0
    }
  ],
  "numDeployments": 11,
  "solcInputHash": "405cef9ed86ae2a21d9464a334eca5ca",
  "bytecode": "0x608060405260006012553480156200001657600080fd5b5060405162004ee638038062004ee68339810160408190526200003991620010ed565b8051602082015160046200005662000050620000b8565b620000d4565b6002805482919060ff19166001836005811115620000785762000078620012b0565b0217905550600390506200008d838262001354565b5060046200009c828262001354565b505050620000b181336200012f60201b60201c565b50620015a9565b6000620000cf620003df60201b620015861760201c565b905090565b600080546001600160a01b038381166201000081810262010000600160b01b0319851617855560405193049190911692909183917f8be0079c531659141344cd1fd0a4f28419497f9722a3daafe3b4186f6b6457e091a35050565b600054610100900460ff1615808015620001505750600054600160ff909116105b806200018057506200016d306200041d60201b620015a81760201c565b15801562000180575060005460ff166001145b620001e95760405162461bcd60e51b815260206004820152602e60248201527f496e697469616c697a61626c653a20636f6e747261637420697320616c72656160448201526d191e481a5b9a5d1a585b1a5e995960921b60648201526084015b60405180910390fd5b6000805460ff1916600117905580156200020d576000805461ff0019166101001790555b8260c00151518360a001515114620002685760405162461bcd60e51b815260206004820152601b60248201527f4552433732312f494e56414c49445f494e495449414c5f4152475300000000006044820152606401620001e0565b6200027382620000d4565b61016083015162000284906200042c565b8251602084015160408501516200029d92919062000464565b620002b7836060015184608001516200049b60201b60201c565b60e0830151620002c790620004d5565b620002d16200050a565b620002db62000540565b620002f78361010001518461012001516200057460201b60201c565b6101408301516200030890620005aa565b62000312620005df565b60e083015160105560005b8360a001515181101562000392576200037d8460a00151828151811062000348576200034862001420565b60200260200101518560c00151838151811062000369576200036962001420565b60200260200101516200061360201b60201c565b8062000389816200144c565b9150506200031d565b508015620003da576000805461ff0019169055604051600181527f7f26b83ff96e1f2b6a682f133852f6798a09c465da95921460cefb38474024989060200160405180910390a15b505050565b6002546000906201000090046001600160a01b0316330362000408575060131936013560601c90565b620000cf620006a960201b620015b71760201c565b6001600160a01b03163b151590565b600054610100900460ff16620004565760405162461bcd60e51b8152600401620001e09062001468565b6200046181620006ad565b50565b600054610100900460ff166200048e5760405162461bcd60e51b8152600401620001e09062001468565b620003da83838362000725565b600054610100900460ff16620004c55760405162461bcd60e51b8152600401620001e09062001468565b620004d18282620007b2565b5050565b600054610100900460ff16620004ff5760405162461bcd60e51b8152600401620001e09062001468565b62000461816200084a565b600054610100900460ff16620005345760405162461bcd60e51b8152600401620001e09062001468565b6200053e6200089d565b565b600054610100900460ff166200056a5760405162461bcd60e51b8152600401620001e09062001468565b6200053e620008d9565b600054610100900460ff166200059e5760405162461bcd60e51b8152600401620001e09062001468565b620004d1828262000915565b600054610100900460ff16620005d45760405162461bcd60e51b8152600401620001e09062001468565b6200046181620009b2565b600054610100900460ff16620006095760405162461bcd60e51b8152600401620001e09062001468565b6200053e62000a06565b601054816200062160125490565b6200062d9190620014b3565b11156200066e5760405162461bcd60e51b815260206004820152600e60248201526d455843454544535f535550504c5960901b6044820152606401620001e0565b60005b81811015620003da5760125462000689848262000a42565b6200069362000a64565b5080620006a0816200144c565b91505062000671565b3390565b600054610100900460ff16620006d75760405162461bcd60e51b8152600401620001e09062001468565b620006e963b964efe960e01b62000a7d565b620006fb630c934a3560e31b62000a7d565b6002805482919060ff191660018360058111156200071d576200071d620012b0565b021790555050565b600054610100900460ff166200074f5760405162461bcd60e51b8152600401620001e09062001468565b60096200075d848262001354565b50600a6200076c838262001354565b50600b6200077b828262001354565b506200078e633d96f4ff60e11b62000a7d565b620007a06380ac58cd60e01b62000a7d565b620003da635b5e139f60e01b62000a7d565b600054610100900460ff16620007dc5760405162461bcd60e51b8152600401620001e09062001468565b600c620007ea838262001354565b50600d620007f9828262001354565b50604080518082019091526005815264173539b7b760d91b6020820152600e9062000825908262001354565b5062000838631f2f406b60e01b62000a7d565b620004d1635b5e139f60e01b62000a7d565b600054610100900460ff16620008745760405162461bcd60e51b8152600401620001e09062001468565b60108190556200088b6330f487b560e11b62000a7d565b620004616380ac58cd60e01b62000a7d565b600054610100900460ff16620008c75760405162461bcd60e51b8152600401620001e09062001468565b6200053e631aa1577160e11b62000a7d565b600054610100900460ff16620009035760405162461bcd60e51b8152600401620001e09062001468565b6200053e63948e2d5360e01b62000a7d565b600054610100900460ff166200093f5760405162461bcd60e51b8152600401620001e09062001468565b62000951633a47bf5160e11b62000a7d565b6200096363152a902d60e11b62000a7d565b6200097563c69dbd8f60e01b62000a7d565b6200098763656cb66560e11b62000a7d565b604080518082019091526001600160a01b038316815261ffff82166020820152620003da8162000b01565b600054610100900460ff16620009dc5760405162461bcd60e51b8152600401620001e09062001468565b600280546001600160a01b03909216620100000262010000600160b01b0319909216919091179055565b600054610100900460ff1662000a305760405162461bcd60e51b8152600401620001e09062001468565b6200053e632a7c3e4960e01b62000a7d565b620004d182826040518060200160405280600081525062000be760201b60201c565b6012805490600062000a76836200144c565b9190505550565b6001600160e01b0319808216900362000ad95760405162461bcd60e51b815260206004820152601c60248201527f4552433136353a20696e76616c696420696e74657266616365206964000000006044820152606401620001e0565b6001600160e01b0319166000908152600160208190526040909120805460ff19169091179055565b612710816020015161ffff161062000b4a5760405162461bcd60e51b815260206004820152600b60248201526a496e76616c69642062707360a81b6044820152606401620001e0565b60408051808201825282516001600160a01b03168082526020808501805161ffff169190930181905260148054600160a01b9092026001600160b01b03199092169092171790558251905191517f2c5ea6e4103e78cb101e796fb2dace540362fc542cbff5145eaa24af7dd8fe419262000bdc92916001600160a01b0392909216825261ffff16602082015260400190565b60405180910390a150565b62000bf3838362000c21565b62000c02600084848462000d69565b620003da5760405162461bcd60e51b8152600401620001e090620014ce565b6001600160a01b03821662000c795760405162461bcd60e51b815260206004820181905260248201527f4552433732313a206d696e7420746f20746865207a65726f20616464726573736044820152606401620001e0565b6000818152600560205260409020546001600160a01b03161562000ce05760405162461bcd60e51b815260206004820152601c60248201527f4552433732313a20746f6b656e20616c7265616479206d696e746564000000006044820152606401620001e0565b6001600160a01b038216600090815260066020526040812080546001929062000d0b908490620014b3565b909155505060008181526005602052604080822080546001600160a01b0319166001600160a01b03861690811790915590518392907fddf252ad1be2c89b69c2b068fc378daa952ba7f163c4a11628f55a4df523b3ef908290a45050565b600062000d8a846001600160a01b03166200041d60201b620015a81760201c565b1562000e89576001600160a01b03841663150b7a0262000da9620000b8565b8786866040518563ffffffff1660e01b815260040162000dcd949392919062001520565b6020604051808303816000875af192505050801562000e0b575060408051601f3d908101601f1916820190925262000e089181019062001576565b60015b62000e6e573d80801562000e3c576040519150601f19603f3d011682016040523d82523d6000602084013e62000e41565b606091505b50805160000362000e665760405162461bcd60e51b8152600401620001e090620014ce565b805181602001fd5b6001600160e01b031916630a85bd0160e11b14905062000e8d565b5060015b949350505050565b634e487b7160e01b600052604160045260246000fd5b60405161018081016001600160401b038111828210171562000ed15762000ed162000e95565b60405290565b604051601f8201601f191681016001600160401b038111828210171562000f025762000f0262000e95565b604052919050565b60005b8381101562000f2757818101518382015260200162000f0d565b8381111562000f37576000848401525b50505050565b600082601f83011262000f4f57600080fd5b81516001600160401b0381111562000f6b5762000f6b62000e95565b62000f80601f8201601f191660200162000ed7565b81815284602083860101111562000f9657600080fd5b62000e8d82602083016020870162000f0a565b60006001600160401b0382111562000fc55762000fc562000e95565b5060051b60200190565b80516001600160a01b038116811462000fe757600080fd5b919050565b600082601f83011262000ffe57600080fd5b8151602062001017620010118362000fa9565b62000ed7565b82815260059290921b840181019181810190868411156200103757600080fd5b8286015b848110156200105d576200104f8162000fcf565b83529183019183016200103b565b509695505050505050565b600082601f8301126200107a57600080fd5b815160206200108d620010118362000fa9565b82815260059290921b84018101918181019086841115620010ad57600080fd5b8286015b848110156200105d5780518352918301918301620010b1565b805161ffff8116811462000fe757600080fd5b80516006811062000fe757600080fd5b6000602082840312156200110057600080fd5b81516001600160401b03808211156200111857600080fd5b9083019061018082860312156200112e57600080fd5b6200113862000eab565b8251828111156200114857600080fd5b620011568782860162000f3d565b8252506020830151828111156200116c57600080fd5b6200117a8782860162000f3d565b6020830152506040830151828111156200119357600080fd5b620011a18782860162000f3d565b604083015250606083015182811115620011ba57600080fd5b620011c88782860162000f3d565b606083015250608083015182811115620011e157600080fd5b620011ef8782860162000f3d565b60808301525060a0830151828111156200120857600080fd5b620012168782860162000fec565b60a08301525060c0830151828111156200122f57600080fd5b6200123d8782860162001068565b60c08301525060e083015160e082015261010091506200125f82840162000fcf565b82820152610120915062001275828401620010ca565b8282015261014091506200128b82840162000fcf565b828201526101609150620012a1828401620010dd565b91810191909152949350505050565b634e487b7160e01b600052602160045260246000fd5b600181811c90821680620012db57607f821691505b602082108103620012fc57634e487b7160e01b600052602260045260246000fd5b50919050565b601f821115620003da57600081815260208120601f850160051c810160208610156200132b5750805b601f850160051c820191505b818110156200134c5782815560010162001337565b505050505050565b81516001600160401b0381111562001370576200137062000e95565b6200138881620013818454620012c6565b8462001302565b602080601f831160018114620013c05760008415620013a75750858301515b600019600386901b1c1916600185901b1785556200134c565b600085815260208120601f198616915b82811015620013f157888601518255948401946001909101908401620013d0565b5085821015620014105787850151600019600388901b60f8161c191681555b5050505050600190811b01905550565b634e487b7160e01b600052603260045260246000fd5b634e487b7160e01b600052601160045260246000fd5b60006001820162001461576200146162001436565b5060010190565b6020808252602b908201527f496e697469616c697a61626c653a20636f6e7472616374206973206e6f74206960408201526a6e697469616c697a696e6760a81b606082015260800190565b60008219821115620014c957620014c962001436565b500190565b60208082526032908201527f4552433732313a207472616e7366657220746f206e6f6e20455243373231526560408201527131b2b4bb32b91034b6b83632b6b2b73a32b960711b606082015260800190565b600060018060a01b0380871683528086166020840152508360408301526080606083015282518060808401526200155f8160a085016020870162000f0a565b601f01601f19169190910160a00195945050505050565b6000602082840312156200158957600080fd5b81516001600160e01b031981168114620015a257600080fd5b9392505050565b61392d80620015b96000396000f3fe608060405234801561001057600080fd5b50600436106102825760003560e01c80637e980342116101585780637e980342146105125780638da5cb5b1461051a578063938e3d7b14610522578063948e2d531461053557806395d89b411461053d57806399e0dd7c14610545578063a22cb46514610558578063a341793b1461056b578063a821d90814610573578063a9852bfb14610580578063b88d4fde14610593578063ba4695fd146105a6578063bf9b7a57146105ae578063c0ac9983146105c0578063c29de630146105c8578063c7db2893146105d5578063c87b56dd146105dd578063cad96cca146105f0578063d5abeb0114610610578063da74222814610619578063dbbc853b1461062c578063dd89c6fa14610634578063e8a3d4851461063c578063e985e9c514610644578063ef60ceaf14610657578063f2fde38b1461066a578063f384702f1461067d57600080fd5b806301ffc9a714610287578063059fb6f7146102af5780630653aca5146102c457806306fdde0314610306578063081812fc1461031b578063095ea7b31461033b5780630b4b2ea71461034e578063167446071461036157806318160ddd1461036957806323b872dd1461037b5780632a55205a1461038e5780632fe388be146103c05780633542aee2146103d35780633574a2dd146103e657806342842e0e146103f957806350a5292f1461040c5780635136dcc71461042657806356c022bb14610439578063572b6c05146104525780635a9b0b89146104655780636352211e1461048857806364ed29131461049b5780636f8b44b0146104ae57806370a08231146104c1578063715018a6146104d45780637313cba9146104dc5780637885fdc7146104e4575b600080fd5b61029a610295366004612aa8565b61068a565b60405190151581526020015b60405180910390f35b6102c26102bd366004612bd9565b61069b565b005b6102d76102d2366004612c36565b61073b565b60408051825181526020808401516001600160a01b0316908201529181015161ffff16908201526060016102a6565b61030e6107c0565b6040516102a69190612ca7565b61032e610329366004612c36565b6107cf565b6040516102a69190612cba565b6102c2610349366004612cce565b6107f6565b6102c261035c366004612df2565b610922565b6102c2610b80565b6012545b6040519081526020016102a6565b6102c2610389366004612fa4565b610b97565b6103a161039c366004612fe0565b610bcf565b604080516001600160a01b0390931683526020830191909152016102a6565b6102c26103ce366004613002565b610c94565b6102c26103e1366004612cce565b610df9565b6102c26103f436600461307f565b610e0f565b6102c2610407366004612fa4565b610e23565b6002546104199060ff1681565b6040516102a691906130c9565b6102c26104343660046130f1565b610e3e565b60025461032e906201000090046001600160a01b031681565b61029a610460366004613165565b610ea1565b61046d610ebb565b604080519384526020840192909252908201526060016102a6565b61032e610496366004612c36565b610fb6565b6102c26104a9366004613180565b610feb565b6102c26104bc366004612c36565b611063565b61036d6104cf366004613165565b6110d9565b6102c261115f565b61030e611173565b601454610504906001600160a01b03811690600160a01b900461ffff1682565b6040516102a692919061319b565b61036d611205565b61032e611211565b6102c261053036600461307f565b611226565b6102c261123a565b61030e611251565b6102c261055336600461307f565b61125b565b6102c26105663660046131b8565b611292565b61030e6112a4565b60135461029a9060ff1681565b6102c261058e36600461307f565b6112b6565b6102c26105a13660046131f4565b6112ed565b6102c2611326565b60025461029a90610100900460ff1681565b61030e61133d565b600f5461029a9060ff1681565b61030e61134c565b61030e6105eb366004612c36565b6113ac565b6106036105fe366004612c36565b6113b7565b6040516102a6919061326f565b61036d60105481565b6102c2610627366004613165565b611472565b61030e6114a4565b6102c26114b3565b61030e6114cc565b61029a6106523660046132d0565b6114db565b6102c26106653660046132fa565b6114ee565b6102c2610678366004613165565b611510565b60115461029a9060ff1681565b6000610695826115bb565b92915050565b60005b815181101561073557306001600160a01b03166323b872dd85858585815181106106ca576106ca613312565b60200260200101516040518463ffffffff1660e01b81526004016106f093929190613328565b600060405180830381600087803b15801561070a57600080fd5b505af115801561071e573d6000803e3d6000fd5b50505050808061072d90613362565b91505061069e565b50505050565b60408051606081018252600080825260208201819052918101829052906107636016846115f7565b6000818152601560209081526040918290208251808401845290546001600160a01b03808216835261ffff600160a01b90920482168385019081528551606081018752968752925116928501929092525116908201529392505050565b60606107ca611603565b905090565b60006107da82611612565b506000908152600760205260409020546001600160a01b031690565b600061080182610fb6565b9050806001600160a01b0316836001600160a01b0316036108735760405162461bcd60e51b815260206004820152602160248201527f4552433732313a20617070726f76616c20746f2063757272656e74206f776e656044820152603960f91b60648201526084015b60405180910390fd5b806001600160a01b0316610885611637565b6001600160a01b031614806108a157506108a181610652611637565b6109135760405162461bcd60e51b815260206004820152603e60248201527f4552433732313a20617070726f76652063616c6c6572206973206e6f7420746f60448201527f6b656e206f776e6572206e6f7220617070726f76656420666f7220616c6c0000606482015260840161086a565b61091d8383611641565b505050565b600054610100900460ff16158080156109425750600054600160ff909116105b806109635750610951306115a8565b158015610963575060005460ff166001145b6109c65760405162461bcd60e51b815260206004820152602e60248201527f496e697469616c697a61626c653a20636f6e747261637420697320616c72656160448201526d191e481a5b9a5d1a585b1a5e995960921b606482015260840161086a565b6000805460ff1916600117905580156109e9576000805461ff0019166101001790555b8260c00151518360a001515114610a405760405162461bcd60e51b815260206004820152601b60248201527a4552433732312f494e56414c49445f494e495449414c5f4152475360281b604482015260640161086a565b610a49826116af565b610a5783610160015161170a565b610a6e83600001518460200151856040015161173a565b610a808360600151846080015161176c565b610a8d8360e0015161179d565b610a956117cd565b610a9d6117fc565b610ab183610100015184610120015161182b565b610abf83610140015161185c565b610ac761188c565b60e083015160105560005b8360a0015151811015610b3557610b238460a001518281518110610af857610af8613312565b60200260200101518560c001518381518110610b1657610b16613312565b60200260200101516118bb565b80610b2d81613362565b915050610ad2565b50801561091d576000805461ff0019169055604051600181527f7f26b83ff96e1f2b6a682f133852f6798a09c465da95921460cefb38474024989060200160405180910390a1505050565b610b88611944565b6011805460ff19166001179055565b610ba8610ba2611637565b826119b3565b610bc45760405162461bcd60e51b815260040161086a9061337b565b61091d838383611a12565b60008281526015602052604081205481906001600160a01b031615610c34576000848152601560205260409020546001600160a01b0381169061271090610c2190600160a01b900461ffff16866133c9565b610c2b91906133fe565b91509150610c8d565b6014546001600160a01b031615801590610c5a5750601454600160a01b900461ffff1615155b15610c86576014546001600160a01b0381169061271090610c2190600160a01b900461ffff16866133c9565b5060009050805b9250929050565b8151835114610cdf5760405162461bcd60e51b815260206004820152601760248201527608ca49e9abea89ebe988a9c8ea890be9a92a69a82a8869604b1b604482015260640161086a565b8051835114610d2d5760405162461bcd60e51b815260206004820152601a60248201527908ca49e9abea89e968a9cbe988a9c8ea890be9a92a69a82a886960331b604482015260640161086a565b60005b815181101561073557306001600160a01b03166323b872dd858381518110610d5a57610d5a613312565b6020026020010151858481518110610d7457610d74613312565b6020026020010151858581518110610d8e57610d8e613312565b60200260200101516040518463ffffffff1660e01b8152600401610db493929190613328565b600060405180830381600087803b158015610dce57600080fd5b505af1158015610de2573d6000803e3d6000fd5b505050508080610df190613362565b915050610d30565b610e01611944565b610e0b82826118bb565b5050565b610e17611944565b600c610e0b8282613494565b61091d838383604051806020016040528060008152506112ed565b610e46611944565b610e0b8282808060200260200160405190810160405280939291908181526020016000905b82821015610e9757610e8860608302860136819003810190613553565b81526020019060010190610e6b565b5050505050611bae565b6002546201000090046001600160a01b0390811691161490565b600080808080610ec9611637565b6001600160a01b031614610f4557306370a08231610ee5611637565b6040518263ffffffff1660e01b8152600401610f019190612cba565b602060405180830381865afa158015610f1e573d6000803e3d6000fd5b505050506040513d601f19601f82011682018060405250810190610f4291906135b7565b90505b601054306001600160a01b03166318160ddd6040518163ffffffff1660e01b8152600401602060405180830381865afa158015610f86573d6000803e3d6000fd5b505050506040513d601f19601f82011682018060405250810190610faa91906135b7565b90959094509092509050565b6000818152600560205260408120546001600160a01b0316806106955760405162461bcd60e51b815260040161086a906135d0565b610ff3611944565b600254610100900460ff161561103c5760405162461bcd60e51b815260206004820152600e60248201526d131250d15394d157d313d0d2d15160921b604482015260640161086a565b6002805482919060ff1916600183600581111561105b5761105b6130b3565b021790555050565b61106b611944565b60115460ff161561108e5760405162461bcd60e51b815260040161086a90613602565b6012548110156110d45760405162461bcd60e51b81526020600482015260116024820152704c4f5745525f5448414e5f535550504c5960781b604482015260640161086a565b601055565b60006001600160a01b0382166111435760405162461bcd60e51b815260206004820152602960248201527f4552433732313a2061646472657373207a65726f206973206e6f7420612076616044820152683634b21037bbb732b960b91b606482015260840161086a565b506001600160a01b031660009081526006602052604090205490565b611167611944565b61117160006116af565b565b6060600c805461118290613412565b80601f01602080910402602001604051908101604052809291908181526020018280546111ae90613412565b80156111fb5780601f106111d0576101008083540402835291602001916111fb565b820191906000526020600020905b8154815290600101906020018083116111de57829003601f168201915b5050505050905090565b60006107ca6016611d55565b6000546201000090046001600160a01b031690565b61122e611944565b600b610e0b8282613494565b611242611944565b6013805460ff19166001179055565b60606107ca611d5f565b611263611944565b600f5460ff16156112865760405162461bcd60e51b815260040161086a90613602565b600d610e0b8282613494565b610e0b61129d611637565b8383611d6e565b6002546060906107ca9060ff16611e38565b6112be611944565b600f5460ff16156112e15760405162461bcd60e51b815260040161086a90613602565b600e610e0b8282613494565b6112fe6112f8611637565b836119b3565b61131a5760405162461bcd60e51b815260040161086a9061337b565b61073584848484611fb6565b61132e611944565b600f805460ff19166001179055565b6060600d805461118290613412565b60606040518060600160405280603181526020016138c7603191396002546113879060ff166005811115611382576113826130b3565b611fe9565b604051602001611398929190613622565b604051602081830303815290604052905090565b6060610695826120e9565b604080516001808252818301909252606091816020015b60408051808201909152600080825260208201528152602001906001900390816113ce57505060145481519192506001600160a01b031690829060009061141757611417613312565b60209081029190910101516001600160a01b039190911690526014548151600160a01b90910461ffff1690829060009061145357611453613312565b6020908102919091018101516001600160601b03909216910152919050565b61147a611944565b600280546001600160a01b03909216620100000262010000600160b01b0319909216919091179055565b6060600e805461118290613412565b6114bb611944565b6002805461ff001916610100179055565b6060600b805461118290613412565b60006114e783836121c5565b9392505050565b6114f6611944565b61150d61150836839003830183613651565b612228565b50565b611518611944565b6001600160a01b03811661157d5760405162461bcd60e51b815260206004820152602660248201527f4f776e61626c653a206e6577206f776e657220697320746865207a65726f206160448201526564647265737360d01b606482015260840161086a565b61150d816116af565b600061159133610ea1565b156115a3575060131936013560601c90565b503390565b6001600160a01b03163b151590565b3390565b60006301ffc9a760e01b6001600160e01b0319831614806106955750506001600160e01b03191660009081526001602052604090205460ff1690565b60006114e783836122d3565b60606009805461118290613412565b61161b816122fd565b61150d5760405162461bcd60e51b815260040161086a906135d0565b60006107ca611586565b600081815260076020526040902080546001600160a01b0319166001600160a01b038416908117909155819061167682610fb6565b6001600160a01b03167f8c5be1e5ebec7d5bd14f71427d1e84f3dd0314c0f7b2291e5b200ac8c7c3b92560405160405180910390a45050565b600080546001600160a01b038381166201000081810262010000600160b01b0319851617855560405193049190911692909183917f8be0079c531659141344cd1fd0a4f28419497f9722a3daafe3b4186f6b6457e091a35050565b600054610100900460ff166117315760405162461bcd60e51b815260040161086a906136ab565b61150d8161231a565b600054610100900460ff166117615760405162461bcd60e51b815260040161086a906136ab565b61091d838383612361565b600054610100900460ff166117935760405162461bcd60e51b815260040161086a906136ab565b610e0b82826123df565b600054610100900460ff166117c45760405162461bcd60e51b815260040161086a906136ab565b61150d8161246a565b600054610100900460ff166117f45760405162461bcd60e51b815260040161086a906136ab565b6111716124b6565b600054610100900460ff166118235760405162461bcd60e51b815260040161086a906136ab565b6111716124ed565b600054610100900460ff166118525760405162461bcd60e51b815260040161086a906136ab565b610e0b8282612524565b600054610100900460ff166118835760405162461bcd60e51b815260040161086a906136ab565b61150d816125b4565b600054610100900460ff166118b35760405162461bcd60e51b815260040161086a906136ab565b6111716125db565b601054816118c860125490565b6118d291906136f6565b11156119115760405162461bcd60e51b815260206004820152600e60248201526d455843454544535f535550504c5960901b604482015260640161086a565b60005b8181101561091d576012546119298482612612565b61193161262c565b508061193c81613362565b915050611914565b61194c611637565b6001600160a01b031661195d611211565b6001600160a01b0316146111715760405162461bcd60e51b815260206004820181905260248201527f4f776e61626c653a2063616c6c6572206973206e6f7420746865206f776e6572604482015260640161086a565b6000806119bf83610fb6565b9050806001600160a01b0316846001600160a01b031614806119e657506119e681856114db565b80611a0a5750836001600160a01b03166119ff846107cf565b6001600160a01b0316145b949350505050565b826001600160a01b0316611a2582610fb6565b6001600160a01b031614611a895760405162461bcd60e51b815260206004820152602560248201527f4552433732313a207472616e736665722066726f6d20696e636f72726563742060448201526437bbb732b960d91b606482015260840161086a565b6001600160a01b038216611aeb5760405162461bcd60e51b8152602060048201526024808201527f4552433732313a207472616e7366657220746f20746865207a65726f206164646044820152637265737360e01b606482015260840161086a565b611af6600082611641565b6001600160a01b0383166000908152600660205260408120805460019290611b1f90849061370e565b90915550506001600160a01b0382166000908152600660205260408120805460019290611b4d9084906136f6565b909155505060008181526005602052604080822080546001600160a01b0319166001600160a01b0386811691821790925591518493918716917fddf252ad1be2c89b69c2b068fc378daa952ba7f163c4a11628f55a4df523b3ef91a4505050565b60005b8151811015610e0b576000828281518110611bce57611bce613312565b60200260200101519050612710816040015161ffff1610611c015760405162461bcd60e51b815260040161086a90613725565b60208101516001600160a01b0316611c7a578051600090815260156020526040902080546001600160b01b03191690558051611c3f90601690612643565b5080516040519081527fa2870857763bd9ae76c957f869f16b31c18dd3bb4c7b4d3a4496dc5c57c657f99060200160405180910390a1611d42565b6040805180820182526020808401516001600160a01b0390811683528484015161ffff90811683850190815286516000908152601590945294909220925183549451909216600160a01b026001600160b01b03199094169116179190911790558051611ce89060169061264f565b50805160208083015160408085015181519485526001600160a01b039092169284019290925261ffff1682820152517f389b70fb0887f01e83784eb1c4c589f740eca53b00ed0f45e41db5d079719abb9181900360600190a15b5080611d4d81613362565b915050611bb1565b6000610695825490565b6060600a805461118290613412565b816001600160a01b0316836001600160a01b031603611dcb5760405162461bcd60e51b815260206004820152601960248201527822a9219b99189d1030b8383937bb32903a379031b0b63632b960391b604482015260640161086a565b6001600160a01b03838116600081815260086020908152604080832094871680845294825291829020805460ff191686151590811790915591519182527f17307eab39ab6107e8899845ad3d59bd9653f200f220920489ca2b5937696c31910160405180910390a3505050565b60606006826005811115611e4e57611e4e6130b3565b60ff161115611e5c57600080fd5b816005811115611e6e57611e6e6130b3565b600003611e9857505060408051808201909152600781526604342455f4343360cc1b602082015290565b816005811115611eaa57611eaa6130b3565b600103611ed457505060408051808201909152600781526621a122afa2a1a960c91b602082015290565b816005811115611ee657611ee66130b3565b600203611f1157505060408051808201909152600881526721a122afa722a1a960c11b602082015290565b816005811115611f2357611f236130b3565b600303611f5157505060408051808201909152600b81526a4342455f4e4543525f485360a81b602082015290565b816005811115611f6357611f636130b3565b600403611f8c57505060408051808201909152600681526521a122afa82960d11b602082015290565b50506040805180820190915260098152684342455f50525f485360b81b602082015290565b919050565b611fc1848484611a12565b611fcd8484848461265b565b6107355760405162461bcd60e51b815260040161086a9061374a565b6060816000036120105750506040805180820190915260018152600360fc1b602082015290565b8160005b811561203a578061202481613362565b91506120339050600a836133fe565b9150612014565b6000816001600160401b0381111561205457612054612adc565b6040519080825280601f01601f19166020018201604052801561207e576020820181803683370190505b5090505b8415611a0a5761209360018361370e565b91506120a0600a8661379c565b6120ab9060306136f6565b60f81b8183815181106120c0576120c0613312565b60200101906001600160f81b031916908160001a9053506120e2600a866133fe565b9450612082565b60606000600d80546120fa90613412565b90501161219157600c805461210e90613412565b80601f016020809104026020016040519081016040528092919081815260200182805461213a90613412565b80156121875780601f1061215c57610100808354040283529160200191612187565b820191906000526020600020905b81548152906001019060200180831161216a57829003601f168201915b5050505050610695565b600d61219c83611fe9565b600e6040516020016121b093929190613823565b60405160208183030381529060405292915050565b60135460009060ff166121fa576121da611211565b6001600160a01b0316826001600160a01b0316036121fa57506001610695565b6001600160a01b0380841660009081526008602090815260408083209386168352929052205460ff166114e7565b612710816020015161ffff16106122515760405162461bcd60e51b815260040161086a90613725565b60408051808201825282516001600160a01b03168082526020808501805161ffff1691909301819052601480546001600160b01b031916909217600160a01b9091021790558251905191517f2c5ea6e4103e78cb101e796fb2dace540362fc542cbff5145eaa24af7dd8fe41926122c8929161319b565b60405180910390a150565b60008260000182815481106122ea576122ea613312565b9060005260206000200154905092915050565b6000908152600560205260409020546001600160a01b0316151590565b600054610100900460ff166123415760405162461bcd60e51b815260040161086a906136ab565b61235163b964efe960e01b61276a565b61103c630c934a3560e31b61276a565b600054610100900460ff166123885760405162461bcd60e51b815260040161086a906136ab565b60096123948482613494565b50600a6123a18382613494565b50600b6123ae8282613494565b506123bf633d96f4ff60e11b61276a565b6123cf6380ac58cd60e01b61276a565b61091d635b5e139f60e01b61276a565b600054610100900460ff166124065760405162461bcd60e51b815260040161086a906136ab565b600c6124128382613494565b50600d61241f8282613494565b50604080518082019091526005815264173539b7b760d91b6020820152600e906124499082613494565b5061245a631f2f406b60e01b61276a565b610e0b635b5e139f60e01b61276a565b600054610100900460ff166124915760405162461bcd60e51b815260040161086a906136ab565b60108190556124a66330f487b560e11b61276a565b61150d6380ac58cd60e01b61276a565b600054610100900460ff166124dd5760405162461bcd60e51b815260040161086a906136ab565b611171631aa1577160e11b61276a565b600054610100900460ff166125145760405162461bcd60e51b815260040161086a906136ab565b61117163948e2d5360e01b61276a565b600054610100900460ff1661254b5760405162461bcd60e51b815260040161086a906136ab565b61255b633a47bf5160e11b61276a565b61256b63152a902d60e11b61276a565b61257b63c69dbd8f60e01b61276a565b61258b63656cb66560e11b61276a565b604080518082019091526001600160a01b038316815261ffff8216602082015261091d81612228565b600054610100900460ff1661147a5760405162461bcd60e51b815260040161086a906136ab565b600054610100900460ff166126025760405162461bcd60e51b815260040161086a906136ab565b611171632a7c3e4960e01b61276a565b610e0b8282604051806020016040528060008152506127eb565b6012805490600061263c83613362565b9190505550565b60006114e7838361281e565b60006114e78383612911565b600061266f846001600160a01b03166115a8565b1561275f57836001600160a01b031663150b7a0261268b611637565b8786866040518563ffffffff1660e01b81526004016126ad9493929190613856565b6020604051808303816000875af19250505080156126e8575060408051601f3d908101601f191682019092526126e591810190613893565b60015b612745573d808015612716576040519150601f19603f3d011682016040523d82523d6000602084013e61271b565b606091505b50805160000361273d5760405162461bcd60e51b815260040161086a9061374a565b805181602001fd5b6001600160e01b031916630a85bd0160e11b149050611a0a565b506001949350505050565b6001600160e01b031980821690036127c35760405162461bcd60e51b815260206004820152601c60248201527b115490cc4d8d4e881a5b9d985b1a59081a5b9d195c999858d9481a5960221b604482015260640161086a565b6001600160e01b0319166000908152600160208190526040909120805460ff19169091179055565b6127f58383612960565b612802600084848461265b565b61091d5760405162461bcd60e51b815260040161086a9061374a565b6000818152600183016020526040812054801561290757600061284260018361370e565b85549091506000906128569060019061370e565b90508181146128bb57600086600001828154811061287657612876613312565b906000526020600020015490508087600001848154811061289957612899613312565b6000918252602080832090910192909255918252600188019052604090208390555b85548690806128cc576128cc6138b0565b600190038181906000526020600020016000905590558560010160008681526020019081526020016000206000905560019350505050610695565b6000915050610695565b600081815260018301602052604081205461295857508154600181810184556000848152602080822090930184905584548482528286019093526040902091909155610695565b506000610695565b6001600160a01b0382166129b65760405162461bcd60e51b815260206004820181905260248201527f4552433732313a206d696e7420746f20746865207a65726f2061646472657373604482015260640161086a565b6129bf816122fd565b15612a0b5760405162461bcd60e51b815260206004820152601c60248201527b115490cdcc8c4e881d1bdad95b88185b1c9958591e481b5a5b9d195960221b604482015260640161086a565b6001600160a01b0382166000908152600660205260408120805460019290612a349084906136f6565b909155505060008181526005602052604080822080546001600160a01b0319166001600160a01b03861690811790915590518392907fddf252ad1be2c89b69c2b068fc378daa952ba7f163c4a11628f55a4df523b3ef908290a45050565b6001600160e01b03198116811461150d57600080fd5b600060208284031215612aba57600080fd5b81356114e781612a92565b80356001600160a01b0381168114611fb157600080fd5b634e487b7160e01b600052604160045260246000fd5b60405161018081016001600160401b0381118282101715612b1557612b15612adc565b60405290565b604051601f8201601f191681016001600160401b0381118282101715612b4357612b43612adc565b604052919050565b60006001600160401b03821115612b6457612b64612adc565b5060051b60200190565b600082601f830112612b7f57600080fd5b81356020612b94612b8f83612b4b565b612b1b565b82815260059290921b84018101918181019086841115612bb357600080fd5b8286015b84811015612bce5780358352918301918301612bb7565b509695505050505050565b600080600060608486031215612bee57600080fd5b612bf784612ac5565b9250612c0560208501612ac5565b915060408401356001600160401b03811115612c2057600080fd5b612c2c86828701612b6e565b9150509250925092565b600060208284031215612c4857600080fd5b5035919050565b60005b83811015612c6a578181015183820152602001612c52565b838111156107355750506000910152565b60008151808452612c93816020860160208601612c4f565b601f01601f19169290920160200192915050565b6020815260006114e76020830184612c7b565b6001600160a01b0391909116815260200190565b60008060408385031215612ce157600080fd5b612cea83612ac5565b946020939093013593505050565b60006001600160401b03831115612d1157612d11612adc565b612d24601f8401601f1916602001612b1b565b9050828152838383011115612d3857600080fd5b828260208301376000602084830101529392505050565b600082601f830112612d6057600080fd5b6114e783833560208501612cf8565b600082601f830112612d8057600080fd5b81356020612d90612b8f83612b4b565b82815260059290921b84018101918181019086841115612daf57600080fd5b8286015b84811015612bce57612dc481612ac5565b8352918301918301612db3565b803561ffff81168114611fb157600080fd5b803560068110611fb157600080fd5b60008060408385031215612e0557600080fd5b82356001600160401b0380821115612e1c57600080fd5b908401906101808287031215612e3157600080fd5b612e39612af2565b823582811115612e4857600080fd5b612e5488828601612d4f565b825250602083013582811115612e6957600080fd5b612e7588828601612d4f565b602083015250604083013582811115612e8d57600080fd5b612e9988828601612d4f565b604083015250606083013582811115612eb157600080fd5b612ebd88828601612d4f565b606083015250608083013582811115612ed557600080fd5b612ee188828601612d4f565b60808301525060a083013582811115612ef957600080fd5b612f0588828601612d6f565b60a08301525060c083013582811115612f1d57600080fd5b612f2988828601612b6e565b60c08301525060e083013560e08201526101009150612f49828401612ac5565b828201526101209150612f5d828401612dd1565b828201526101409150612f71828401612ac5565b828201526101609150612f85828401612de3565b82820152809450505050612f9b60208401612ac5565b90509250929050565b600080600060608486031215612fb957600080fd5b612fc284612ac5565b9250612fd060208501612ac5565b9150604084013590509250925092565b60008060408385031215612ff357600080fd5b50508035926020909101359150565b60008060006060848603121561301757600080fd5b83356001600160401b038082111561302e57600080fd5b61303a87838801612d6f565b9450602086013591508082111561305057600080fd5b61305c87838801612d6f565b9350604086013591508082111561307257600080fd5b50612c2c86828701612b6e565b60006020828403121561309157600080fd5b81356001600160401b038111156130a757600080fd5b611a0a84828501612d4f565b634e487b7160e01b600052602160045260246000fd5b60208101600683106130eb57634e487b7160e01b600052602160045260246000fd5b91905290565b6000806020838503121561310457600080fd5b82356001600160401b038082111561311b57600080fd5b818501915085601f83011261312f57600080fd5b81358181111561313e57600080fd5b86602060608302850101111561315357600080fd5b60209290920196919550909350505050565b60006020828403121561317757600080fd5b6114e782612ac5565b60006020828403121561319257600080fd5b6114e782612de3565b6001600160a01b0392909216825261ffff16602082015260400190565b600080604083850312156131cb57600080fd5b6131d483612ac5565b9150602083013580151581146131e957600080fd5b809150509250929050565b6000806000806080858703121561320a57600080fd5b61321385612ac5565b935061322160208601612ac5565b92506040850135915060608501356001600160401b0381111561324357600080fd5b8501601f8101871361325457600080fd5b61326387823560208401612cf8565b91505092959194509250565b602080825282518282018190526000919060409081850190868401855b828110156132c357815180516001600160a01b031685528601516001600160601b031686850152928401929085019060010161328c565b5091979650505050505050565b600080604083850312156132e357600080fd5b6132ec83612ac5565b9150612f9b60208401612ac5565b60006040828403121561330c57600080fd5b50919050565b634e487b7160e01b600052603260045260246000fd5b6001600160a01b039384168152919092166020820152604081019190915260600190565b634e487b7160e01b600052601160045260246000fd5b6000600182016133745761337461334c565b5060010190565b6020808252602e908201527f4552433732313a2063616c6c6572206973206e6f7420746f6b656e206f776e6560408201526d1c881b9bdc88185c1c1c9bdd995960921b606082015260800190565b60008160001904831182151516156133e3576133e361334c565b500290565b634e487b7160e01b600052601260045260246000fd5b60008261340d5761340d6133e8565b500490565b600181811c9082168061342657607f821691505b60208210810361330c57634e487b7160e01b600052602260045260246000fd5b601f82111561091d57600081815260208120601f850160051c8101602086101561346d5750805b601f850160051c820191505b8181101561348c57828155600101613479565b505050505050565b81516001600160401b038111156134ad576134ad612adc565b6134c1816134bb8454613412565b84613446565b602080601f8311600181146134f657600084156134de5750858301515b600019600386901b1c1916600185901b17855561348c565b600085815260208120601f198616915b8281101561352557888601518255948401946001909101908401613506565b50858210156135435787850151600019600388901b60f8161c191681555b5050505050600190811b01905550565b60006060828403121561356557600080fd5b604051606081018181106001600160401b038211171561358757613587612adc565b6040528235815261359a60208401612ac5565b60208201526135ab60408401612dd1565b60408201529392505050565b6000602082840312156135c957600080fd5b5051919050565b602080825260189082015277115490cdcc8c4e881a5b9d985b1a59081d1bdad95b88125160421b604082015260600190565b602080825260069082015265232927ad22a760d11b604082015260600190565b60008351613634818460208801612c4f565b835190830190613648818360208801612c4f565b01949350505050565b60006040828403121561366357600080fd5b604051604081018181106001600160401b038211171561368557613685612adc565b60405261369183612ac5565b815261369f60208401612dd1565b60208201529392505050565b6020808252602b908201527f496e697469616c697a61626c653a20636f6e7472616374206973206e6f74206960408201526a6e697469616c697a696e6760a81b606082015260800190565b600082198211156137095761370961334c565b500190565b6000828210156137205761372061334c565b500390565b6020808252600b908201526a496e76616c69642062707360a81b604082015260600190565b60208082526032908201527f4552433732313a207472616e7366657220746f206e6f6e20455243373231526560408201527131b2b4bb32b91034b6b83632b6b2b73a32b960711b606082015260800190565b6000826137ab576137ab6133e8565b500690565b600081546137bd81613412565b600182811680156137d557600181146137ea57613819565b60ff1984168752821515830287019450613819565b8560005260208060002060005b858110156138105781548a8201529084019082016137f7565b50505082870194505b5050505092915050565b600061382f82866137b0565b845161383f818360208901612c4f565b61384b818301866137b0565b979650505050505050565b6001600160a01b038581168252841660208201526040810183905260806060820181905260009061388990830184612c7b565b9695505050505050565b6000602082840312156138a557600080fd5b81516114e781612a92565b634e487b7160e01b600052603160045260246000fdfe61723a2f2f5f44396b4e3157724e576243713535425341475262544234625333763851415054596d42546853625833412fa2646970667358221220d5e8b8ddf78359b0b5fd06e30f8258d5154e8f267c23e93443223f5494880a9764736f6c634300080f0033",
  "devdoc": {
    "kind": "dev",
    "methods": {
      "approve(address,uint256)": {
        "details": "See {IERC721-approve}."
      },
      "balanceOf(address)": {
        "details": "See {IERC721-balanceOf}."
      },
      "getApproved(uint256)": {
        "details": "See {IERC721-getApproved}."
      },
      "getTokenRoyaltiesCount()": {
        "details": "See {IEIP2981RoyaltyOverride-getTokenRoyaltiesCount}."
      },
      "getTokenRoyaltyByIndex(uint256)": {
        "details": "See {IEIP2981RoyaltyOverride-getTokenRoyaltyByIndex}."
      },
      "owner()": {
        "details": "Returns the address of the current owner."
      },
      "ownerOf(uint256)": {
        "details": "See {IERC721-ownerOf}."
      },
      "renounceOwnership()": {
        "details": "Leaves the contract without owner. It will not be possible to call `onlyOwner` functions anymore. Can only be called by the current owner. NOTE: Renouncing ownership will leave the contract without an owner, thereby removing any functionality that is only available to the owner."
      },
      "royaltyInfo(uint256,uint256)": {
        "details": "See {IEIP2981RoyaltyOverride-royaltyInfo}."
      },
      "safeTransferFrom(address,address,uint256)": {
        "details": "See {IERC721-safeTransferFrom}."
      },
      "safeTransferFrom(address,address,uint256,bytes)": {
        "details": "See {IERC721-safeTransferFrom}."
      },
      "setApprovalForAll(address,bool)": {
        "details": "See {IERC721-setApprovalForAll}."
      },
      "transferFrom(address,address,uint256)": {
        "details": "See {IERC721-transferFrom}."
      },
      "transferOwnership(address)": {
        "details": "Transfers ownership of the contract to a new account (`newOwner`). Can only be called by the current owner."
      }
    },
    "version": 1
  },
  "userdoc": {
    "kind": "user",
    "methods": {
      "transferFromBulk(address,address,uint256[])": {
        "notice": "Useful for when user wants to return tokens to get a refund, or when they want to transfer lots of tokens by paying gas fee only once."
      },
      "transferFromBulk(address[],address[],uint256[])": {
        "notice": "Useful for transferring multiple tokens from/to multiple addresses."
      }
    },
    "version": 1
  },
  "storageLayout": {
    "storage": [
      {
        "astId": 1101,
        "contract": "contracts/collections/ERC721/presets/ERC721ManagedPrefixedCollection.sol:ERC721ManagedPrefixedCollection",
        "label": "_initialized",
        "offset": 0,
        "slot": "0",
        "type": "t_uint8"
      },
      {
        "astId": 1104,
        "contract": "contracts/collections/ERC721/presets/ERC721ManagedPrefixedCollection.sol:ERC721ManagedPrefixedCollection",
        "label": "_initializing",
        "offset": 1,
        "slot": "0",
        "type": "t_bool"
      },
      {
        "astId": 937,
        "contract": "contracts/collections/ERC721/presets/ERC721ManagedPrefixedCollection.sol:ERC721ManagedPrefixedCollection",
        "label": "_owner",
        "offset": 2,
        "slot": "0",
        "type": "t_address"
      },
      {
        "astId": 5404,
        "contract": "contracts/collections/ERC721/presets/ERC721ManagedPrefixedCollection.sol:ERC721ManagedPrefixedCollection",
        "label": "_supportedInterfaces",
        "offset": 0,
        "slot": "1",
        "type": "t_mapping(t_bytes4,t_bool)"
      },
      {
        "astId": 24,
        "contract": "contracts/collections/ERC721/presets/ERC721ManagedPrefixedCollection.sol:ERC721ManagedPrefixedCollection",
        "label": "licenseVersion",
        "offset": 0,
        "slot": "2",
        "type": "t_enum(LicenseVersion)11"
      },
      {
        "astId": 14563,
        "contract": "contracts/collections/ERC721/presets/ERC721ManagedPrefixedCollection.sol:ERC721ManagedPrefixedCollection",
        "label": "licenseVersionLocked",
        "offset": 1,
        "slot": "2",
        "type": "t_bool"
      },
      {
        "astId": 15010,
        "contract": "contracts/collections/ERC721/presets/ERC721ManagedPrefixedCollection.sol:ERC721ManagedPrefixedCollection",
        "label": "_trustedForwarder",
        "offset": 2,
        "slot": "2",
        "type": "t_address"
      },
      {
        "astId": 2152,
        "contract": "contracts/collections/ERC721/presets/ERC721ManagedPrefixedCollection.sol:ERC721ManagedPrefixedCollection",
        "label": "_name",
        "offset": 0,
        "slot": "3",
        "type": "t_string_storage"
      },
      {
        "astId": 2154,
        "contract": "contracts/collections/ERC721/presets/ERC721ManagedPrefixedCollection.sol:ERC721ManagedPrefixedCollection",
        "label": "_symbol",
        "offset": 0,
        "slot": "4",
        "type": "t_string_storage"
      },
      {
        "astId": 2158,
        "contract": "contracts/collections/ERC721/presets/ERC721ManagedPrefixedCollection.sol:ERC721ManagedPrefixedCollection",
        "label": "_owners",
        "offset": 0,
        "slot": "5",
        "type": "t_mapping(t_uint256,t_address)"
      },
      {
        "astId": 2162,
        "contract": "contracts/collections/ERC721/presets/ERC721ManagedPrefixedCollection.sol:ERC721ManagedPrefixedCollection",
        "label": "_balances",
        "offset": 0,
        "slot": "6",
        "type": "t_mapping(t_address,t_uint256)"
      },
      {
        "astId": 2166,
        "contract": "contracts/collections/ERC721/presets/ERC721ManagedPrefixedCollection.sol:ERC721ManagedPrefixedCollection",
        "label": "_tokenApprovals",
        "offset": 0,
        "slot": "7",
        "type": "t_mapping(t_uint256,t_address)"
      },
      {
        "astId": 2172,
        "contract": "contracts/collections/ERC721/presets/ERC721ManagedPrefixedCollection.sol:ERC721ManagedPrefixedCollection",
        "label": "_operatorApprovals",
        "offset": 0,
        "slot": "8",
        "type": "t_mapping(t_address,t_mapping(t_address,t_bool))"
      },
      {
        "astId": 6881,
        "contract": "contracts/collections/ERC721/presets/ERC721ManagedPrefixedCollection.sol:ERC721ManagedPrefixedCollection",
        "label": "_name",
        "offset": 0,
        "slot": "9",
        "type": "t_string_storage"
      },
      {
        "astId": 6883,
        "contract": "contracts/collections/ERC721/presets/ERC721ManagedPrefixedCollection.sol:ERC721ManagedPrefixedCollection",
        "label": "_symbol",
        "offset": 0,
        "slot": "10",
        "type": "t_string_storage"
      },
      {
        "astId": 6885,
        "contract": "contracts/collections/ERC721/presets/ERC721ManagedPrefixedCollection.sol:ERC721ManagedPrefixedCollection",
        "label": "_contractURI",
        "offset": 0,
        "slot": "11",
        "type": "t_string_storage"
      },
      {
        "astId": 8189,
        "contract": "contracts/collections/ERC721/presets/ERC721ManagedPrefixedCollection.sol:ERC721ManagedPrefixedCollection",
        "label": "_placeholderURI",
        "offset": 0,
        "slot": "12",
        "type": "t_string_storage"
      },
      {
        "astId": 8191,
        "contract": "contracts/collections/ERC721/presets/ERC721ManagedPrefixedCollection.sol:ERC721ManagedPrefixedCollection",
        "label": "_tokenURIPrefix",
        "offset": 0,
        "slot": "13",
        "type": "t_string_storage"
      },
      {
        "astId": 8193,
        "contract": "contracts/collections/ERC721/presets/ERC721ManagedPrefixedCollection.sol:ERC721ManagedPrefixedCollection",
        "label": "_tokenURISuffix",
        "offset": 0,
        "slot": "14",
        "type": "t_string_storage"
      },
      {
        "astId": 8195,
        "contract": "contracts/collections/ERC721/presets/ERC721ManagedPrefixedCollection.sol:ERC721ManagedPrefixedCollection",
        "label": "tokenURIFrozen",
        "offset": 0,
        "slot": "15",
        "type": "t_bool"
      },
      {
        "astId": 6537,
        "contract": "contracts/collections/ERC721/presets/ERC721ManagedPrefixedCollection.sol:ERC721ManagedPrefixedCollection",
        "label": "maxSupply",
        "offset": 0,
        "slot": "16",
        "type": "t_uint256"
      },
      {
        "astId": 6539,
        "contract": "contracts/collections/ERC721/presets/ERC721ManagedPrefixedCollection.sol:ERC721ManagedPrefixedCollection",
        "label": "maxSupplyFrozen",
        "offset": 0,
        "slot": "17",
        "type": "t_bool"
      },
      {
        "astId": 6542,
        "contract": "contracts/collections/ERC721/presets/ERC721ManagedPrefixedCollection.sol:ERC721ManagedPrefixedCollection",
        "label": "_currentTokenId",
        "offset": 0,
        "slot": "18",
        "type": "t_uint256"
      },
      {
        "astId": 7580,
        "contract": "contracts/collections/ERC721/presets/ERC721ManagedPrefixedCollection.sol:ERC721ManagedPrefixedCollection",
        "label": "managementPowerRevoked",
        "offset": 0,
        "slot": "19",
        "type": "t_bool"
      },
      {
        "astId": 241,
        "contract": "contracts/collections/ERC721/presets/ERC721ManagedPrefixedCollection.sol:ERC721ManagedPrefixedCollection",
        "label": "defaultRoyalty",
        "offset": 0,
        "slot": "20",
        "type": "t_struct(TokenRoyalty)183_storage"
      },
      {
        "astId": 246,
        "contract": "contracts/collections/ERC721/presets/ERC721ManagedPrefixedCollection.sol:ERC721ManagedPrefixedCollection",
        "label": "_tokenRoyalties",
        "offset": 0,
        "slot": "21",
        "type": "t_mapping(t_uint256,t_struct(TokenRoyalty)183_storage)"
      },
      {
        "astId": 249,
        "contract": "contracts/collections/ERC721/presets/ERC721ManagedPrefixedCollection.sol:ERC721ManagedPrefixedCollection",
        "label": "_tokensWithRoyalties",
        "offset": 0,
        "slot": "22",
        "type": "t_struct(UintSet)6375_storage"
      }
    ],
    "types": {
      "t_address": {
        "encoding": "inplace",
        "label": "address",
        "numberOfBytes": "20"
      },
      "t_array(t_bytes32)dyn_storage": {
        "base": "t_bytes32",
        "encoding": "dynamic_array",
        "label": "bytes32[]",
        "numberOfBytes": "32"
      },
      "t_bool": {
        "encoding": "inplace",
        "label": "bool",
        "numberOfBytes": "1"
      },
      "t_bytes32": {
        "encoding": "inplace",
        "label": "bytes32",
        "numberOfBytes": "32"
      },
      "t_bytes4": {
        "encoding": "inplace",
        "label": "bytes4",
        "numberOfBytes": "4"
      },
      "t_enum(LicenseVersion)11": {
        "encoding": "inplace",
        "label": "enum LicenseVersion",
        "numberOfBytes": "1"
      },
      "t_mapping(t_address,t_bool)": {
        "encoding": "mapping",
        "key": "t_address",
        "label": "mapping(address => bool)",
        "numberOfBytes": "32",
        "value": "t_bool"
      },
      "t_mapping(t_address,t_mapping(t_address,t_bool))": {
        "encoding": "mapping",
        "key": "t_address",
        "label": "mapping(address => mapping(address => bool))",
        "numberOfBytes": "32",
        "value": "t_mapping(t_address,t_bool)"
      },
      "t_mapping(t_address,t_uint256)": {
        "encoding": "mapping",
        "key": "t_address",
        "label": "mapping(address => uint256)",
        "numberOfBytes": "32",
        "value": "t_uint256"
      },
      "t_mapping(t_bytes32,t_uint256)": {
        "encoding": "mapping",
        "key": "t_bytes32",
        "label": "mapping(bytes32 => uint256)",
        "numberOfBytes": "32",
        "value": "t_uint256"
      },
      "t_mapping(t_bytes4,t_bool)": {
        "encoding": "mapping",
        "key": "t_bytes4",
        "label": "mapping(bytes4 => bool)",
        "numberOfBytes": "32",
        "value": "t_bool"
      },
      "t_mapping(t_uint256,t_address)": {
        "encoding": "mapping",
        "key": "t_uint256",
        "label": "mapping(uint256 => address)",
        "numberOfBytes": "32",
        "value": "t_address"
      },
      "t_mapping(t_uint256,t_struct(TokenRoyalty)183_storage)": {
        "encoding": "mapping",
        "key": "t_uint256",
        "label": "mapping(uint256 => struct IEIP2981RoyaltyOverride.TokenRoyalty)",
        "numberOfBytes": "32",
        "value": "t_struct(TokenRoyalty)183_storage"
      },
      "t_string_storage": {
        "encoding": "bytes",
        "label": "string",
        "numberOfBytes": "32"
      },
      "t_struct(Set)5917_storage": {
        "encoding": "inplace",
        "label": "struct EnumerableSet.Set",
        "members": [
          {
            "astId": 5912,
            "contract": "contracts/collections/ERC721/presets/ERC721ManagedPrefixedCollection.sol:ERC721ManagedPrefixedCollection",
            "label": "_values",
            "offset": 0,
            "slot": "0",
            "type": "t_array(t_bytes32)dyn_storage"
          },
          {
            "astId": 5916,
            "contract": "contracts/collections/ERC721/presets/ERC721ManagedPrefixedCollection.sol:ERC721ManagedPrefixedCollection",
            "label": "_indexes",
            "offset": 0,
            "slot": "1",
            "type": "t_mapping(t_bytes32,t_uint256)"
          }
        ],
        "numberOfBytes": "64"
      },
      "t_struct(TokenRoyalty)183_storage": {
        "encoding": "inplace",
        "label": "struct IEIP2981RoyaltyOverride.TokenRoyalty",
        "members": [
          {
            "astId": 180,
            "contract": "contracts/collections/ERC721/presets/ERC721ManagedPrefixedCollection.sol:ERC721ManagedPrefixedCollection",
            "label": "recipient",
            "offset": 0,
            "slot": "0",
            "type": "t_address"
          },
          {
            "astId": 182,
            "contract": "contracts/collections/ERC721/presets/ERC721ManagedPrefixedCollection.sol:ERC721ManagedPrefixedCollection",
            "label": "bps",
            "offset": 20,
            "slot": "0",
            "type": "t_uint16"
          }
        ],
        "numberOfBytes": "32"
      },
      "t_struct(UintSet)6375_storage": {
        "encoding": "inplace",
        "label": "struct EnumerableSet.UintSet",
        "members": [
          {
            "astId": 6374,
            "contract": "contracts/collections/ERC721/presets/ERC721ManagedPrefixedCollection.sol:ERC721ManagedPrefixedCollection",
            "label": "_inner",
            "offset": 0,
            "slot": "0",
            "type": "t_struct(Set)5917_storage"
          }
        ],
        "numberOfBytes": "64"
      },
      "t_uint16": {
        "encoding": "inplace",
        "label": "uint16",
        "numberOfBytes": "2"
      },
      "t_uint256": {
        "encoding": "inplace",
        "label": "uint256",
        "numberOfBytes": "32"
      },
      "t_uint8": {
        "encoding": "inplace",
        "label": "uint8",
        "numberOfBytes": "1"
      }
    }
  }
}