{
  "address": "0x380563a8d55cBE277E3CabDC8B1F1d5004C5432d",
  "abi": [
    {
      "inputs": [
        {
          "components": [
            {
              "internalType": "string",
              "name": "name",
              "type": "string"
            },
            {
              "internalType": "string",
              "name": "symbol",
              "type": "string"
            },
            {
              "internalType": "string",
              "name": "contractURI",
              "type": "string"
            },
            {
              "internalType": "string",
              "name": "placeholderURI",
              "type": "string"
            },
            {
              "internalType": "string",
              "name": "tokenURIPrefix",
              "type": "string"
            },
            {
              "internalType": "uint256",
              "name": "maxSupply",
              "type": "uint256"
            },
            {
              "internalType": "uint256",
              "name": "preSalePrice",
              "type": "uint256"
            },
            {
              "internalType": "uint256",
              "name": "preSaleMaxMintPerWallet",
              "type": "uint256"
            },
            {
              "internalType": "uint256",
              "name": "publicSalePrice",
              "type": "uint256"
            },
            {
              "internalType": "uint256",
              "name": "publicSaleMaxMintPerTx",
              "type": "uint256"
            },
            {
              "internalType": "address",
              "name": "defaultRoyaltyAddress",
              "type": "address"
            },
            {
              "internalType": "uint16",
              "name": "defaultRoyaltyBps",
              "type": "uint16"
            },
            {
              "internalType": "address",
              "name": "proceedsRecipient",
              "type": "address"
            },
            {
              "internalType": "address",
              "name": "trustedForwarder",
              "type": "address"
            }
          ],
          "internalType": "struct ERC721AFullFeaturedCollection.Config",
          "name": "config",
          "type": "tuple"
        }
      ],
      "stateMutability": "nonpayable",
      "type": "constructor"
    },
    {
      "inputs": [],
      "name": "ApprovalCallerNotOwnerNorApproved",
      "type": "error"
    },
    {
      "inputs": [],
      "name": "ApprovalQueryForNonexistentToken",
      "type": "error"
    },
    {
      "inputs": [],
      "name": "ApproveToCaller",
      "type": "error"
    },
    {
      "inputs": [],
      "name": "BalanceQueryForZeroAddress",
      "type": "error"
    },
    {
      "inputs": [],
      "name": "MintERC2309QuantityExceedsLimit",
      "type": "error"
    },
    {
      "inputs": [],
      "name": "MintToZeroAddress",
      "type": "error"
    },
    {
      "inputs": [],
      "name": "MintZeroQuantity",
      "type": "error"
    },
    {
      "inputs": [],
      "name": "OwnerQueryForNonexistentToken",
      "type": "error"
    },
    {
      "inputs": [],
      "name": "OwnershipNotInitializedForExtraData",
      "type": "error"
    },
    {
      "inputs": [],
      "name": "TransferCallerNotOwnerNorApproved",
      "type": "error"
    },
    {
      "inputs": [],
      "name": "TransferFromIncorrectOwner",
      "type": "error"
    },
    {
      "inputs": [],
      "name": "TransferToNonERC721ReceiverImplementer",
      "type": "error"
    },
    {
      "inputs": [],
      "name": "TransferToZeroAddress",
      "type": "error"
    },
    {
      "inputs": [],
      "name": "URIQueryForNonexistentToken",
      "type": "error"
    },
    {
      "anonymous": false,
      "inputs": [
        {
          "indexed": true,
          "internalType": "address",
          "name": "owner",
          "type": "address"
        },
        {
          "indexed": true,
          "internalType": "address",
          "name": "approved",
          "type": "address"
        },
        {
          "indexed": true,
          "internalType": "uint256",
          "name": "tokenId",
          "type": "uint256"
        }
      ],
      "name": "Approval",
      "type": "event"
    },
    {
      "anonymous": false,
      "inputs": [
        {
          "indexed": true,
          "internalType": "address",
          "name": "owner",
          "type": "address"
        },
        {
          "indexed": true,
          "internalType": "address",
          "name": "operator",
          "type": "address"
        },
        {
          "indexed": false,
          "internalType": "bool",
          "name": "approved",
          "type": "bool"
        }
      ],
      "name": "ApprovalForAll",
      "type": "event"
    },
    {
      "anonymous": false,
      "inputs": [
        {
          "indexed": true,
          "internalType": "uint256",
          "name": "fromTokenId",
          "type": "uint256"
        },
        {
          "indexed": false,
          "internalType": "uint256",
          "name": "toTokenId",
          "type": "uint256"
        },
        {
          "indexed": true,
          "internalType": "address",
          "name": "from",
          "type": "address"
        },
        {
          "indexed": true,
          "internalType": "address",
          "name": "to",
          "type": "address"
        }
      ],
      "name": "ConsecutiveTransfer",
      "type": "event"
    },
    {
      "anonymous": false,
      "inputs": [
        {
          "indexed": false,
          "internalType": "address",
          "name": "recipient",
          "type": "address"
        },
        {
          "indexed": false,
          "internalType": "uint16",
          "name": "bps",
          "type": "uint16"
        }
      ],
      "name": "DefaultRoyaltySet",
      "type": "event"
    },
    {
      "anonymous": false,
      "inputs": [
        {
          "indexed": false,
          "internalType": "uint8",
          "name": "version",
          "type": "uint8"
        }
      ],
      "name": "Initialized",
      "type": "event"
    },
    {
      "anonymous": false,
      "inputs": [
        {
          "indexed": true,
          "internalType": "address",
          "name": "previousOwner",
          "type": "address"
        },
        {
          "indexed": true,
          "internalType": "address",
          "name": "newOwner",
          "type": "address"
        }
      ],
      "name": "OwnershipTransferred",
      "type": "event"
    },
    {
      "anonymous": false,
      "inputs": [
        {
          "indexed": true,
          "internalType": "bytes32",
          "name": "role",
          "type": "bytes32"
        },
        {
          "indexed": true,
          "internalType": "bytes32",
          "name": "previousAdminRole",
          "type": "bytes32"
        },
        {
          "indexed": true,
          "internalType": "bytes32",
          "name": "newAdminRole",
          "type": "bytes32"
        }
      ],
      "name": "RoleAdminChanged",
      "type": "event"
    },
    {
      "anonymous": false,
      "inputs": [
        {
          "indexed": true,
          "internalType": "bytes32",
          "name": "role",
          "type": "bytes32"
        },
        {
          "indexed": true,
          "internalType": "address",
          "name": "account",
          "type": "address"
        },
        {
          "indexed": true,
          "internalType": "address",
          "name": "sender",
          "type": "address"
        }
      ],
      "name": "RoleGranted",
      "type": "event"
    },
    {
      "anonymous": false,
      "inputs": [
        {
          "indexed": true,
          "internalType": "bytes32",
          "name": "role",
          "type": "bytes32"
        },
        {
          "indexed": true,
          "internalType": "address",
          "name": "account",
          "type": "address"
        },
        {
          "indexed": true,
          "internalType": "address",
          "name": "sender",
          "type": "address"
        }
      ],
      "name": "RoleRevoked",
      "type": "event"
    },
    {
      "anonymous": false,
      "inputs": [
        {
          "indexed": false,
          "internalType": "uint256",
          "name": "tokenId",
          "type": "uint256"
        }
      ],
      "name": "TokenRoyaltyRemoved",
      "type": "event"
    },
    {
      "anonymous": false,
      "inputs": [
        {
          "indexed": false,
          "internalType": "uint256",
          "name": "tokenId",
          "type": "uint256"
        },
        {
          "indexed": false,
          "internalType": "address",
          "name": "recipient",
          "type": "address"
        },
        {
          "indexed": false,
          "internalType": "uint16",
          "name": "bps",
          "type": "uint16"
        }
      ],
      "name": "TokenRoyaltySet",
      "type": "event"
    },
    {
      "anonymous": false,
      "inputs": [
        {
          "indexed": true,
          "internalType": "address",
          "name": "from",
          "type": "address"
        },
        {
          "indexed": true,
          "internalType": "address",
          "name": "to",
          "type": "address"
        },
        {
          "indexed": true,
          "internalType": "uint256",
          "name": "tokenId",
          "type": "uint256"
        }
      ],
      "name": "Transfer",
      "type": "event"
    },
    {
      "anonymous": false,
      "inputs": [],
      "name": "WithdrawPowerRevoked",
      "type": "event"
    },
    {
      "anonymous": false,
      "inputs": [
        {
          "indexed": false,
          "internalType": "address[]",
          "name": "claimTokens",
          "type": "address[]"
        },
        {
          "indexed": false,
          "internalType": "uint256[]",
          "name": "amounts",
          "type": "uint256[]"
        }
      ],
      "name": "Withdrawn",
      "type": "event"
    },
    {
      "inputs": [],
      "name": "DEFAULT_ADMIN_ROLE",
      "outputs": [
        {
          "internalType": "bytes32",
          "name": "",
          "type": "bytes32"
        }
      ],
      "stateMutability": "view",
      "type": "function"
    },
    {
      "inputs": [],
      "name": "LOCKER_ROLE",
      "outputs": [
        {
          "internalType": "bytes32",
          "name": "",
          "type": "bytes32"
        }
      ],
      "stateMutability": "view",
      "type": "function"
    },
    {
      "inputs": [],
      "name": "MINTER_ROLE",
      "outputs": [
        {
          "internalType": "bytes32",
          "name": "",
          "type": "bytes32"
        }
      ],
      "stateMutability": "view",
      "type": "function"
    },
    {
      "inputs": [],
      "name": "_trustedForwarder",
      "outputs": [
        {
          "internalType": "address",
          "name": "",
          "type": "address"
        }
      ],
      "stateMutability": "view",
      "type": "function"
    },
    {
      "inputs": [
        {
          "internalType": "address",
          "name": "to",
          "type": "address"
        },
        {
          "internalType": "uint256",
          "name": "tokenId",
          "type": "uint256"
        }
      ],
      "name": "approve",
      "outputs": [],
      "stateMutability": "nonpayable",
      "type": "function"
    },
    {
      "inputs": [
        {
          "internalType": "address",
          "name": "owner",
          "type": "address"
        }
      ],
      "name": "balanceOf",
      "outputs": [
        {
          "internalType": "uint256",
          "name": "",
          "type": "uint256"
        }
      ],
      "stateMutability": "view",
      "type": "function"
    },
    {
      "inputs": [],
      "name": "contractURI",
      "outputs": [
        {
          "internalType": "string",
          "name": "",
          "type": "string"
        }
      ],
      "stateMutability": "view",
      "type": "function"
    },
    {
      "inputs": [],
      "name": "defaultRoyalty",
      "outputs": [
        {
          "internalType": "address",
          "name": "recipient",
          "type": "address"
        },
        {
          "internalType": "uint16",
          "name": "bps",
          "type": "uint16"
        }
      ],
      "stateMutability": "view",
      "type": "function"
    },
    {
      "inputs": [
        {
          "internalType": "uint256[]",
          "name": "ticketTokenIds",
          "type": "uint256[]"
        }
      ],
      "name": "filterUnlocked",
      "outputs": [
        {
          "internalType": "uint256[]",
          "name": "",
          "type": "uint256[]"
        }
      ],
      "stateMutability": "view",
      "type": "function"
    },
    {
      "inputs": [],
      "name": "freezeMaxSupply",
      "outputs": [],
      "stateMutability": "nonpayable",
      "type": "function"
    },
    {
      "inputs": [],
      "name": "freezeTokenURI",
      "outputs": [],
      "stateMutability": "nonpayable",
      "type": "function"
    },
    {
      "inputs": [
        {
          "internalType": "uint256",
          "name": "tokenId",
          "type": "uint256"
        }
      ],
      "name": "getApproved",
      "outputs": [
        {
          "internalType": "address",
          "name": "",
          "type": "address"
        }
      ],
      "stateMutability": "view",
      "type": "function"
    },
    {
      "inputs": [],
      "name": "getInfo",
      "outputs": [
        {
          "internalType": "uint256",
          "name": "_maxSupply",
          "type": "uint256"
        },
        {
          "internalType": "uint256",
          "name": "_totalSupply",
          "type": "uint256"
        },
        {
          "internalType": "uint256",
          "name": "_senderBalance",
          "type": "uint256"
        },
        {
          "internalType": "uint256",
          "name": "_preSalePrice",
          "type": "uint256"
        },
        {
          "internalType": "uint256",
          "name": "_preSaleMaxMintPerWallet",
          "type": "uint256"
        },
        {
          "internalType": "uint256",
          "name": "_preSaleAlreadyClaimed",
          "type": "uint256"
        },
        {
          "internalType": "bool",
          "name": "_preSaleActive",
          "type": "bool"
        },
        {
          "internalType": "uint256",
          "name": "_publicSalePrice",
          "type": "uint256"
        },
        {
          "internalType": "uint256",
          "name": "_publicSaleMaxMintPerTx",
          "type": "uint256"
        },
        {
          "internalType": "bool",
          "name": "_publicSaleActive",
          "type": "bool"
        }
      ],
      "stateMutability": "view",
      "type": "function"
    },
    {
      "inputs": [
        {
          "internalType": "uint256",
          "name": "id",
          "type": "uint256"
        }
      ],
      "name": "getRaribleV2Royalties",
      "outputs": [
        {
          "components": [
            {
              "internalType": "address payable",
              "name": "account",
              "type": "address"
            },
            {
              "internalType": "uint96",
              "name": "value",
              "type": "uint96"
            }
          ],
          "internalType": "struct LibPart.Part[]",
          "name": "result",
          "type": "tuple[]"
        }
      ],
      "stateMutability": "view",
      "type": "function"
    },
    {
      "inputs": [
        {
          "internalType": "bytes32",
          "name": "role",
          "type": "bytes32"
        }
      ],
      "name": "getRoleAdmin",
      "outputs": [
        {
          "internalType": "bytes32",
          "name": "",
          "type": "bytes32"
        }
      ],
      "stateMutability": "view",
      "type": "function"
    },
    {
      "inputs": [],
      "name": "getTokenRoyaltiesCount",
      "outputs": [
        {
          "internalType": "uint256",
          "name": "",
          "type": "uint256"
        }
      ],
      "stateMutability": "view",
      "type": "function"
    },
    {
      "inputs": [
        {
          "internalType": "uint256",
          "name": "index",
          "type": "uint256"
        }
      ],
      "name": "getTokenRoyaltyByIndex",
      "outputs": [
        {
          "components": [
            {
              "internalType": "uint256",
              "name": "tokenId",
              "type": "uint256"
            },
            {
              "internalType": "address",
              "name": "recipient",
              "type": "address"
            },
            {
              "internalType": "uint16",
              "name": "bps",
              "type": "uint16"
            }
          ],
          "internalType": "struct IEIP2981RoyaltyOverride.TokenRoyaltyConfig",
          "name": "",
          "type": "tuple"
        }
      ],
      "stateMutability": "view",
      "type": "function"
    },
    {
      "inputs": [
        {
          "internalType": "bytes32",
          "name": "role",
          "type": "bytes32"
        },
        {
          "internalType": "address",
          "name": "account",
          "type": "address"
        }
      ],
      "name": "grantRole",
      "outputs": [],
      "stateMutability": "nonpayable",
      "type": "function"
    },
    {
      "inputs": [
        {
          "internalType": "bytes32",
          "name": "role",
          "type": "bytes32"
        },
        {
          "internalType": "address",
          "name": "account",
          "type": "address"
        }
      ],
      "name": "hasRole",
      "outputs": [
        {
          "internalType": "bool",
          "name": "",
          "type": "bool"
        }
      ],
      "stateMutability": "view",
      "type": "function"
    },
    {
      "inputs": [],
      "name": "hasRoleBasedLockableExtension",
      "outputs": [
        {
          "internalType": "bool",
          "name": "",
          "type": "bool"
        }
      ],
      "stateMutability": "view",
      "type": "function"
    },
    {
      "inputs": [
        {
          "components": [
            {
              "internalType": "string",
              "name": "name",
              "type": "string"
            },
            {
              "internalType": "string",
              "name": "symbol",
              "type": "string"
            },
            {
              "internalType": "string",
              "name": "contractURI",
              "type": "string"
            },
            {
              "internalType": "string",
              "name": "placeholderURI",
              "type": "string"
            },
            {
              "internalType": "string",
              "name": "tokenURIPrefix",
              "type": "string"
            },
            {
              "internalType": "uint256",
              "name": "maxSupply",
              "type": "uint256"
            },
            {
              "internalType": "uint256",
              "name": "preSalePrice",
              "type": "uint256"
            },
            {
              "internalType": "uint256",
              "name": "preSaleMaxMintPerWallet",
              "type": "uint256"
            },
            {
              "internalType": "uint256",
              "name": "publicSalePrice",
              "type": "uint256"
            },
            {
              "internalType": "uint256",
              "name": "publicSaleMaxMintPerTx",
              "type": "uint256"
            },
            {
              "internalType": "address",
              "name": "defaultRoyaltyAddress",
              "type": "address"
            },
            {
              "internalType": "uint16",
              "name": "defaultRoyaltyBps",
              "type": "uint16"
            },
            {
              "internalType": "address",
              "name": "proceedsRecipient",
              "type": "address"
            },
            {
              "internalType": "address",
              "name": "trustedForwarder",
              "type": "address"
            }
          ],
          "internalType": "struct ERC721AFullFeaturedCollection.Config",
          "name": "config",
          "type": "tuple"
        },
        {
          "internalType": "address",
          "name": "deployer",
          "type": "address"
        }
      ],
      "name": "initialize",
      "outputs": [],
      "stateMutability": "nonpayable",
      "type": "function"
    },
    {
      "inputs": [
        {
          "internalType": "address",
          "name": "owner",
          "type": "address"
        },
        {
          "internalType": "address",
          "name": "operator",
          "type": "address"
        }
      ],
      "name": "isApprovedForAll",
      "outputs": [
        {
          "internalType": "bool",
          "name": "",
          "type": "bool"
        }
      ],
      "stateMutability": "view",
      "type": "function"
    },
    {
      "inputs": [
        {
          "internalType": "address",
          "name": "forwarder",
          "type": "address"
        }
      ],
      "name": "isTrustedForwarder",
      "outputs": [
        {
          "internalType": "bool",
          "name": "",
          "type": "bool"
        }
      ],
      "stateMutability": "view",
      "type": "function"
    },
    {
      "inputs": [
        {
          "internalType": "uint256[]",
          "name": "tokenIds",
          "type": "uint256[]"
        }
      ],
      "name": "lock",
      "outputs": [],
      "stateMutability": "nonpayable",
      "type": "function"
    },
    {
      "inputs": [
        {
          "internalType": "uint256",
          "name": "tokenId",
          "type": "uint256"
        }
      ],
      "name": "lock",
      "outputs": [],
      "stateMutability": "nonpayable",
      "type": "function"
    },
    {
      "inputs": [],
      "name": "lockWithdrawMode",
      "outputs": [],
      "stateMutability": "nonpayable",
      "type": "function"
    },
    {
      "inputs": [],
      "name": "lockWithdrawRecipient",
      "outputs": [],
      "stateMutability": "nonpayable",
      "type": "function"
    },
    {
      "inputs": [
        {
          "internalType": "uint256",
          "name": "tokenId",
          "type": "uint256"
        }
      ],
      "name": "locked",
      "outputs": [
        {
          "internalType": "bool",
          "name": "",
          "type": "bool"
        }
      ],
      "stateMutability": "view",
      "type": "function"
    },
    {
      "inputs": [],
      "name": "maxSupply",
      "outputs": [
        {
          "internalType": "uint256",
          "name": "",
          "type": "uint256"
        }
      ],
      "stateMutability": "view",
      "type": "function"
    },
    {
      "inputs": [],
      "name": "maxSupplyFrozen",
      "outputs": [
        {
          "internalType": "bool",
          "name": "",
          "type": "bool"
        }
      ],
      "stateMutability": "view",
      "type": "function"
    },
    {
      "inputs": [
        {
          "internalType": "address",
          "name": "to",
          "type": "address"
        },
        {
          "internalType": "uint256",
          "name": "count",
          "type": "uint256"
        }
      ],
      "name": "mintByOwner",
      "outputs": [],
      "stateMutability": "nonpayable",
      "type": "function"
    },
    {
      "inputs": [
        {
          "internalType": "address",
          "name": "to",
          "type": "address"
        },
        {
          "internalType": "uint256",
          "name": "count",
          "type": "uint256"
        }
      ],
      "name": "mintByRole",
      "outputs": [],
      "stateMutability": "nonpayable",
      "type": "function"
    },
    {
      "inputs": [
        {
          "internalType": "uint256",
          "name": "count",
          "type": "uint256"
        },
        {
          "internalType": "bytes32[]",
          "name": "proof",
          "type": "bytes32[]"
        }
      ],
      "name": "mintPreSale",
      "outputs": [],
      "stateMutability": "payable",
      "type": "function"
    },
    {
      "inputs": [
        {
          "internalType": "address",
          "name": "to",
          "type": "address"
        },
        {
          "internalType": "uint256",
          "name": "count",
          "type": "uint256"
        }
      ],
      "name": "mintPublicSale",
      "outputs": [],
      "stateMutability": "payable",
      "type": "function"
    },
    {
      "inputs": [],
      "name": "name",
      "outputs": [
        {
          "internalType": "string",
          "name": "",
          "type": "string"
        }
      ],
      "stateMutability": "view",
      "type": "function"
    },
    {
      "inputs": [
        {
          "internalType": "address",
          "name": "minter",
          "type": "address"
        },
        {
          "internalType": "bytes32[]",
          "name": "proof",
          "type": "bytes32[]"
        }
      ],
      "name": "onPreSaleAllowList",
      "outputs": [
        {
          "internalType": "bool",
          "name": "",
          "type": "bool"
        }
      ],
      "stateMutability": "view",
      "type": "function"
    },
    {
      "inputs": [],
      "name": "owner",
      "outputs": [
        {
          "internalType": "address",
          "name": "",
          "type": "address"
        }
      ],
      "stateMutability": "view",
      "type": "function"
    },
    {
      "inputs": [
        {
          "internalType": "uint256",
          "name": "tokenId",
          "type": "uint256"
        }
      ],
      "name": "ownerOf",
      "outputs": [
        {
          "internalType": "address",
          "name": "",
          "type": "address"
        }
      ],
      "stateMutability": "view",
      "type": "function"
    },
    {
      "inputs": [],
      "name": "placeholderURI",
      "outputs": [
        {
          "internalType": "string",
          "name": "",
          "type": "string"
        }
      ],
      "stateMutability": "view",
      "type": "function"
    },
    {
      "inputs": [],
      "name": "preSaleAllowlistMerkleRoot",
      "outputs": [
        {
          "internalType": "bytes32",
          "name": "",
          "type": "bytes32"
        }
      ],
      "stateMutability": "view",
      "type": "function"
    },
    {
      "inputs": [],
      "name": "preSaleMaxMintPerWallet",
      "outputs": [
        {
          "internalType": "uint256",
          "name": "",
          "type": "uint256"
        }
      ],
      "stateMutability": "view",
      "type": "function"
    },
    {
      "inputs": [],
      "name": "preSalePrice",
      "outputs": [
        {
          "internalType": "uint256",
          "name": "",
          "type": "uint256"
        }
      ],
      "stateMutability": "view",
      "type": "function"
    },
    {
      "inputs": [],
      "name": "preSaleStatus",
      "outputs": [
        {
          "internalType": "bool",
          "name": "",
          "type": "bool"
        }
      ],
      "stateMutability": "view",
      "type": "function"
    },
    {
      "inputs": [],
      "name": "publicSaleMaxMintPerTx",
      "outputs": [
        {
          "internalType": "uint256",
          "name": "",
          "type": "uint256"
        }
      ],
      "stateMutability": "view",
      "type": "function"
    },
    {
      "inputs": [],
      "name": "publicSalePrice",
      "outputs": [
        {
          "internalType": "uint256",
          "name": "",
          "type": "uint256"
        }
      ],
      "stateMutability": "view",
      "type": "function"
    },
    {
      "inputs": [],
      "name": "publicSaleStatus",
      "outputs": [
        {
          "internalType": "bool",
          "name": "",
          "type": "bool"
        }
      ],
      "stateMutability": "view",
      "type": "function"
    },
    {
      "inputs": [],
      "name": "renounceOwnership",
      "outputs": [],
      "stateMutability": "nonpayable",
      "type": "function"
    },
    {
      "inputs": [
        {
          "internalType": "bytes32",
          "name": "role",
          "type": "bytes32"
        },
        {
          "internalType": "address",
          "name": "account",
          "type": "address"
        }
      ],
      "name": "renounceRole",
      "outputs": [],
      "stateMutability": "nonpayable",
      "type": "function"
    },
    {
      "inputs": [
        {
          "internalType": "bytes32",
          "name": "role",
          "type": "bytes32"
        },
        {
          "internalType": "address",
          "name": "account",
          "type": "address"
        }
      ],
      "name": "revokeRole",
      "outputs": [],
      "stateMutability": "nonpayable",
      "type": "function"
    },
    {
      "inputs": [],
      "name": "revokeWithdrawPower",
      "outputs": [],
      "stateMutability": "nonpayable",
      "type": "function"
    },
    {
      "inputs": [
        {
          "internalType": "uint256",
          "name": "tokenId",
          "type": "uint256"
        },
        {
          "internalType": "uint256",
          "name": "value",
          "type": "uint256"
        }
      ],
      "name": "royaltyInfo",
      "outputs": [
        {
          "internalType": "address",
          "name": "",
          "type": "address"
        },
        {
          "internalType": "uint256",
          "name": "",
          "type": "uint256"
        }
      ],
      "stateMutability": "view",
      "type": "function"
    },
    {
      "inputs": [
        {
          "internalType": "address",
          "name": "from",
          "type": "address"
        },
        {
          "internalType": "address",
          "name": "to",
          "type": "address"
        },
        {
          "internalType": "uint256",
          "name": "tokenId",
          "type": "uint256"
        }
      ],
      "name": "safeTransferFrom",
      "outputs": [],
      "stateMutability": "nonpayable",
      "type": "function"
    },
    {
      "inputs": [
        {
          "internalType": "address",
          "name": "from",
          "type": "address"
        },
        {
          "internalType": "address",
          "name": "to",
          "type": "address"
        },
        {
          "internalType": "uint256",
          "name": "tokenId",
          "type": "uint256"
        },
        {
          "internalType": "bytes",
          "name": "_data",
          "type": "bytes"
        }
      ],
      "name": "safeTransferFrom",
      "outputs": [],
      "stateMutability": "nonpayable",
      "type": "function"
    },
    {
      "inputs": [
        {
          "internalType": "bytes32",
          "name": "newRoot",
          "type": "bytes32"
        }
      ],
      "name": "setAllowlistMerkleRoot",
      "outputs": [],
      "stateMutability": "nonpayable",
      "type": "function"
    },
    {
      "inputs": [
        {
          "internalType": "address",
          "name": "operator",
          "type": "address"
        },
        {
          "internalType": "bool",
          "name": "approved",
          "type": "bool"
        }
      ],
      "name": "setApprovalForAll",
      "outputs": [],
      "stateMutability": "nonpayable",
      "type": "function"
    },
    {
      "inputs": [
        {
          "internalType": "string",
          "name": "newValue",
          "type": "string"
        }
      ],
      "name": "setContractURI",
      "outputs": [],
      "stateMutability": "nonpayable",
      "type": "function"
    },
    {
      "inputs": [
        {
          "components": [
            {
              "internalType": "address",
              "name": "recipient",
              "type": "address"
            },
            {
              "internalType": "uint16",
              "name": "bps",
              "type": "uint16"
            }
          ],
          "internalType": "struct IEIP2981RoyaltyOverride.TokenRoyalty",
          "name": "royalty",
          "type": "tuple"
        }
      ],
      "name": "setDefaultRoyalty",
      "outputs": [],
      "stateMutability": "nonpayable",
      "type": "function"
    },
    {
      "inputs": [
        {
          "internalType": "uint256",
          "name": "newValue",
          "type": "uint256"
        }
      ],
      "name": "setMaxSupply",
      "outputs": [],
      "stateMutability": "nonpayable",
      "type": "function"
    },
    {
      "inputs": [
        {
          "internalType": "string",
          "name": "newValue",
          "type": "string"
        }
      ],
      "name": "setPlaceholderURI",
      "outputs": [],
      "stateMutability": "nonpayable",
      "type": "function"
    },
    {
      "inputs": [
        {
          "internalType": "uint256",
          "name": "newValue",
          "type": "uint256"
        }
      ],
      "name": "setPreSaleMaxMintPerWallet",
      "outputs": [],
      "stateMutability": "nonpayable",
      "type": "function"
    },
    {
      "inputs": [
        {
          "internalType": "uint256",
          "name": "newValue",
          "type": "uint256"
        }
      ],
      "name": "setPreSalePrice",
      "outputs": [],
      "stateMutability": "nonpayable",
      "type": "function"
    },
    {
      "inputs": [
        {
          "internalType": "uint256",
          "name": "newValue",
          "type": "uint256"
        }
      ],
      "name": "setPublicSaleMaxMintPerTx",
      "outputs": [],
      "stateMutability": "nonpayable",
      "type": "function"
    },
    {
      "inputs": [
        {
          "internalType": "uint256",
          "name": "newValue",
          "type": "uint256"
        }
      ],
      "name": "setPublicSalePrice",
      "outputs": [],
      "stateMutability": "nonpayable",
      "type": "function"
    },
    {
      "inputs": [
        {
          "components": [
            {
              "internalType": "uint256",
              "name": "tokenId",
              "type": "uint256"
            },
            {
              "internalType": "address",
              "name": "recipient",
              "type": "address"
            },
            {
              "internalType": "uint16",
              "name": "bps",
              "type": "uint16"
            }
          ],
          "internalType": "struct IEIP2981RoyaltyOverride.TokenRoyaltyConfig[]",
          "name": "royaltyConfigs",
          "type": "tuple[]"
        }
      ],
      "name": "setTokenRoyalties",
      "outputs": [],
      "stateMutability": "nonpayable",
      "type": "function"
    },
    {
      "inputs": [
        {
          "internalType": "string",
          "name": "newValue",
          "type": "string"
        }
      ],
      "name": "setTokenURIPrefix",
      "outputs": [],
      "stateMutability": "nonpayable",
      "type": "function"
    },
    {
      "inputs": [
        {
          "internalType": "string",
          "name": "newValue",
          "type": "string"
        }
      ],
      "name": "setTokenURISuffix",
      "outputs": [],
      "stateMutability": "nonpayable",
      "type": "function"
    },
    {
      "inputs": [
        {
          "internalType": "address",
          "name": "trustedForwarder",
          "type": "address"
        }
      ],
      "name": "setTrustedForwarder",
      "outputs": [],
      "stateMutability": "nonpayable",
      "type": "function"
    },
    {
      "inputs": [
        {
          "internalType": "enum WithdrawMode",
          "name": "_withdrawMode",
          "type": "uint8"
        }
      ],
      "name": "setWithdrawMode",
      "outputs": [],
      "stateMutability": "nonpayable",
      "type": "function"
    },
    {
      "inputs": [
        {
          "internalType": "address",
          "name": "_withdrawRecipient",
          "type": "address"
        }
      ],
      "name": "setWithdrawRecipient",
      "outputs": [],
      "stateMutability": "nonpayable",
      "type": "function"
    },
    {
      "inputs": [
        {
          "internalType": "bytes4",
          "name": "interfaceId",
          "type": "bytes4"
        }
      ],
      "name": "supportsInterface",
      "outputs": [
        {
          "internalType": "bool",
          "name": "",
          "type": "bool"
        }
      ],
      "stateMutability": "view",
      "type": "function"
    },
    {
      "inputs": [],
      "name": "symbol",
      "outputs": [
        {
          "internalType": "string",
          "name": "",
          "type": "string"
        }
      ],
      "stateMutability": "view",
      "type": "function"
    },
    {
      "inputs": [
        {
          "internalType": "bool",
          "name": "isActive",
          "type": "bool"
        }
      ],
      "name": "togglePreSaleStatus",
      "outputs": [],
      "stateMutability": "nonpayable",
      "type": "function"
    },
    {
      "inputs": [
        {
          "internalType": "bool",
          "name": "isActive",
          "type": "bool"
        }
      ],
      "name": "togglePublicSaleStatus",
      "outputs": [],
      "stateMutability": "nonpayable",
      "type": "function"
    },
    {
      "inputs": [
        {
          "internalType": "uint256",
          "name": "_tokenId",
          "type": "uint256"
        }
      ],
      "name": "tokenURI",
      "outputs": [
        {
          "internalType": "string",
          "name": "",
          "type": "string"
        }
      ],
      "stateMutability": "view",
      "type": "function"
    },
    {
      "inputs": [],
      "name": "tokenURIFrozen",
      "outputs": [
        {
          "internalType": "bool",
          "name": "",
          "type": "bool"
        }
      ],
      "stateMutability": "view",
      "type": "function"
    },
    {
      "inputs": [],
      "name": "tokenURIPrefix",
      "outputs": [
        {
          "internalType": "string",
          "name": "",
          "type": "string"
        }
      ],
      "stateMutability": "view",
      "type": "function"
    },
    {
      "inputs": [],
      "name": "tokenURISuffix",
      "outputs": [
        {
          "internalType": "string",
          "name": "",
          "type": "string"
        }
      ],
      "stateMutability": "view",
      "type": "function"
    },
    {
      "inputs": [],
      "name": "totalSupply",
      "outputs": [
        {
          "internalType": "uint256",
          "name": "",
          "type": "uint256"
        }
      ],
      "stateMutability": "view",
      "type": "function"
    },
    {
      "inputs": [
        {
          "internalType": "address",
          "name": "from",
          "type": "address"
        },
        {
          "internalType": "address",
          "name": "to",
          "type": "address"
        },
        {
          "internalType": "uint256",
          "name": "tokenId",
          "type": "uint256"
        }
      ],
      "name": "transferFrom",
      "outputs": [],
      "stateMutability": "nonpayable",
      "type": "function"
    },
    {
      "inputs": [
        {
          "internalType": "address",
          "name": "newOwner",
          "type": "address"
        }
      ],
      "name": "transferOwnership",
      "outputs": [],
      "stateMutability": "nonpayable",
      "type": "function"
    },
    {
      "inputs": [
        {
          "internalType": "uint256[]",
          "name": "tokenIds",
          "type": "uint256[]"
        }
      ],
      "name": "unlock",
      "outputs": [],
      "stateMutability": "nonpayable",
      "type": "function"
    },
    {
      "inputs": [
        {
          "internalType": "uint256",
          "name": "tokenId",
          "type": "uint256"
        }
      ],
      "name": "unlock",
      "outputs": [],
      "stateMutability": "nonpayable",
      "type": "function"
    },
    {
      "inputs": [
        {
          "internalType": "address[]",
          "name": "claimTokens",
          "type": "address[]"
        },
        {
          "internalType": "uint256[]",
          "name": "amounts",
          "type": "uint256[]"
        }
      ],
      "name": "withdraw",
      "outputs": [],
      "stateMutability": "nonpayable",
      "type": "function"
    },
    {
      "inputs": [],
      "name": "withdrawMode",
      "outputs": [
        {
          "internalType": "enum WithdrawMode",
          "name": "",
          "type": "uint8"
        }
      ],
      "stateMutability": "view",
      "type": "function"
    },
    {
      "inputs": [],
      "name": "withdrawModeLocked",
      "outputs": [
        {
          "internalType": "bool",
          "name": "",
          "type": "bool"
        }
      ],
      "stateMutability": "view",
      "type": "function"
    },
    {
      "inputs": [],
      "name": "withdrawPowerRevoked",
      "outputs": [
        {
          "internalType": "bool",
          "name": "",
          "type": "bool"
        }
      ],
      "stateMutability": "view",
      "type": "function"
    },
    {
      "inputs": [],
      "name": "withdrawRecipient",
      "outputs": [
        {
          "internalType": "address",
          "name": "",
          "type": "address"
        }
      ],
      "stateMutability": "view",
      "type": "function"
    },
    {
      "inputs": [],
      "name": "withdrawRecipientLocked",
      "outputs": [
        {
          "internalType": "bool",
          "name": "",
          "type": "bool"
        }
      ],
      "stateMutability": "view",
      "type": "function"
    }
  ],
  "transactionHash": "0x1de77c47f835e746891f399ec735359f36281b23b73664647fcdae6c4753c953",
  "args": [
    {
      "name": "Collection",
      "symbol": "COL",
      "contractURI": "ipfs://contractURI",
      "placeholderURI": "ipfs://placeholderURI",
      "tokenURIPrefix": "ipfs://tokenURIPrefix/",
      "maxSupply": 0,
      "preSalePrice": 0,
      "preSaleMaxMintPerWallet": 0,
      "publicSalePrice": 0,
      "publicSaleMaxMintPerTx": 10,
      "defaultRoyaltyAddress": "0x0000000000000000000000000000000000000000",
      "defaultRoyaltyBps": 0,
      "proceedsRecipient": "0x0000000000000000000000000000000000000000",
      "openSeaProxyRegistryAddress": "0x0000000000000000000000000000000000000000",
      "openSeaExchangeAddress": "0x0000000000000000000000000000000000000000",
      "trustedForwarder": "0x0000000000000000000000000000000000000000"
    }
  ],
  "numDeployments": 7,
  "solcInputHash": "8adbb6c8decc614bad96dde541aea715",
  "bytecode": "0x60806040523480156200001157600080fd5b506040516200662d3803806200662d833981016040819052620000349162000e16565b805160208201516200004f620000496200009a565b620000b6565b81516200006490600590602085019062000c3b565b5080516200007a90600690602084019062000c3b565b5060006003555050600160145562000093813362000111565b50620010a1565b6000620000b16200027460201b62002c281760201c565b905090565b600080546001600160a01b038381166201000081810262010000600160b01b0319851617855560405193049190911692909183917f8be0079c531659141344cd1fd0a4f28419497f9722a3daafe3b4186f6b6457e091a35050565b60006200011f6001620002ad565b9050801562000138576000805461ff0019166101001790555b620001456000836200035f565b6200015082620000b6565b610180830151620001639060026200036f565b8251602084015160408501516200017c929190620003a5565b6200019683606001518460800151620003dc60201b60201c565b60a0830151620001a69062000412565b620001b06200044a565b620001bb8262000480565b620001c5620004b5565b620001df8360c001518460e00151620004e960201b60201c565b620001fb8361010001518461012001516200053060201b60201c565b620002178361014001518461016001516200056660201b60201c565b6101a083015162000228906200059c565b80156200026f576000805461ff0019169055604051600181527f7f26b83ff96e1f2b6a682f133852f6798a09c465da95921460cefb38474024989060200160405180910390a15b505050565b6023546000906001600160a01b031633141562000298575060131936013560601c90565b620000b1620005d160201b62002c4a1760201c565b60008054610100900460ff161562000316578160ff166001148015620002e65750620002e430620005d560201b62002c4e1760201c565b155b6200030e5760405162461bcd60e51b8152600401620003059062000fb5565b60405180910390fd5b506000919050565b60005460ff808416911610620003405760405162461bcd60e51b8152600401620003059062000fb5565b506000805460ff191660ff92909216919091179055600190565b919050565b6200036b8282620005e4565b5050565b600054610100900460ff16620003995760405162461bcd60e51b8152600401620003059062001003565b6200036b82826200068a565b600054610100900460ff16620003cf5760405162461bcd60e51b8152600401620003059062001003565b6200026f83838362000716565b600054610100900460ff16620004065760405162461bcd60e51b8152600401620003059062001003565b6200036b8282620007b8565b600054610100900460ff166200043c5760405162461bcd60e51b8152600401620003059062001003565b620004478162000861565b50565b600054610100900460ff16620004745760405162461bcd60e51b8152600401620003059062001003565b6200047e620008c6565b565b600054610100900460ff16620004aa5760405162461bcd60e51b8152600401620003059062001003565b620004478162000902565b600054610100900460ff16620004df5760405162461bcd60e51b8152600401620003059062001003565b6200047e6200096a565b600054610100900460ff16620005135760405162461bcd60e51b8152600401620003059062001003565b6200052563209680f760e11b620009a1565b601591909155601655565b600054610100900460ff166200055a5760405162461bcd60e51b8152600401620003059062001003565b6200036b828262000a25565b600054610100900460ff16620005905760405162461bcd60e51b8152600401620003059062001003565b6200036b828262000a6c565b600054610100900460ff16620005c65760405162461bcd60e51b8152600401620003059062001003565b620004478162000b09565b3390565b6001600160a01b03163b151590565b6000828152601e602090815260408083206001600160a01b038516845290915290205460ff166200036b576000828152601e602090815260408083206001600160a01b03851684529091529020805460ff19166001179055620006466200009a565b6001600160a01b0316816001600160a01b0316837f2f8788117e7eff1d82e926ec794901d17c78024a50270940304540a733656f0d60405160405180910390a45050565b600054610100900460ff16620006b45760405162461bcd60e51b8152600401620003059062001003565b620006c663ac2ba33360e01b620009a1565b600280546001600160a01b0384166001600160a01b0319821681178355839291600162ff000160a01b03191617600160b01b8360038111156200070d576200070d6200104e565b02179055505050565b600054610100900460ff16620007405760405162461bcd60e51b8152600401620003059062001003565b82516200075590600b90602086019062000c3b565b5081516200076b90600c90602085019062000c3b565b5080516200078190600d90602084019062000c3b565b5062000794633d96f4ff60e11b620009a1565b620007a66380ac58cd60e01b620009a1565b6200026f635b5e139f60e01b620009a1565b600054610100900460ff16620007e25760405162461bcd60e51b8152600401620003059062001003565b8151620007f790600e90602085019062000c3b565b5080516200080d90600f90602084019062000c3b565b5060408051808201909152600580825264173539b7b760d91b60209092019182526200083c9160109162000c3b565b506200084f631f2f406b60e01b620009a1565b6200036b635b5e139f60e01b620009a1565b600054610100900460ff166200088b5760405162461bcd60e51b8152600401620003059062001003565b6012819055620008a26330f487b560e11b620009a1565b620008b46380ac58cd60e01b620009a1565b6200044763184371e560e31b620009a1565b600054610100900460ff16620008f05760405162461bcd60e51b8152600401620003059062001003565b6200047e631aa1577160e11b620009a1565b600054610100900460ff166200092c5760405162461bcd60e51b8152600401620003059062001003565b6200093e631a056e7160e01b620009a1565b620004477f9f2df0fed2c77648de5860a4cc508cd0818c85b8b8a1ab4ceeef8d981c8956a6826200035f565b600054610100900460ff16620009945760405162461bcd60e51b8152600401620003059062001003565b6200047e63714ad8e760e01b5b6001600160e01b03198082161415620009fd5760405162461bcd60e51b815260206004820152601c60248201527f4552433136353a20696e76616c696420696e7465726661636520696400000000604482015260640162000305565b6001600160e01b0319166000908152600160208190526040909120805460ff19169091179055565b600054610100900460ff1662000a4f5760405162461bcd60e51b8152600401620003059062001003565b62000a616317e0bac360e31b620009a1565b601a91909155601b55565b600054610100900460ff1662000a965760405162461bcd60e51b8152600401620003059062001003565b62000aa8633a47bf5160e11b620009a1565b62000aba63152a902d60e11b620009a1565b62000acc63c69dbd8f60e01b620009a1565b62000ade63656cb66560e11b620009a1565b604080518082019091526001600160a01b038316815261ffff821660208201526200026f8162000b55565b600054610100900460ff1662000b335760405162461bcd60e51b8152600401620003059062001003565b602380546001600160a01b0319166001600160a01b0392909216919091179055565b612710816020015161ffff161062000b9e5760405162461bcd60e51b815260206004820152600b60248201526a496e76616c69642062707360a81b604482015260640162000305565b60408051808201825282516001600160a01b03168082526020808501805161ffff1691909301819052601f8054600160a01b9092026001600160b01b03199092169092171790558251905191517f2c5ea6e4103e78cb101e796fb2dace540362fc542cbff5145eaa24af7dd8fe419262000c3092916001600160a01b0392909216825261ffff16602082015260400190565b60405180910390a150565b82805462000c499062001064565b90600052602060002090601f01602090048101928262000c6d576000855562000cb8565b82601f1062000c8857805160ff191683800117855562000cb8565b8280016001018555821562000cb8579182015b8281111562000cb857825182559160200191906001019062000c9b565b5062000cc692915062000cca565b5090565b5b8082111562000cc6576000815560010162000ccb565b634e487b7160e01b600052604160045260246000fd5b6040516101c081016001600160401b038111828210171562000d1d5762000d1d62000ce1565b60405290565b604051601f8201601f191681016001600160401b038111828210171562000d4e5762000d4e62000ce1565b604052919050565b600082601f83011262000d6857600080fd5b81516001600160401b0381111562000d845762000d8462000ce1565b602062000d9a601f8301601f1916820162000d23565b828152858284870101111562000daf57600080fd5b60005b8381101562000dcf57858101830151828201840152820162000db2565b8381111562000de15760008385840101525b5095945050505050565b80516001600160a01b03811681146200035a57600080fd5b805161ffff811681146200035a57600080fd5b60006020828403121562000e2957600080fd5b81516001600160401b038082111562000e4157600080fd5b908301906101c0828603121562000e5757600080fd5b62000e6162000cf7565b82518281111562000e7157600080fd5b62000e7f8782860162000d56565b82525060208301518281111562000e9557600080fd5b62000ea38782860162000d56565b60208301525060408301518281111562000ebc57600080fd5b62000eca8782860162000d56565b60408301525060608301518281111562000ee357600080fd5b62000ef18782860162000d56565b60608301525060808301518281111562000f0a57600080fd5b62000f188782860162000d56565b60808301525060a0838101519082015260c0808401519082015260e0808401519082015261010080840151908201526101208084015190820152610140915062000f6482840162000deb565b82820152610160915062000f7a82840162000e03565b82820152610180915062000f9082840162000deb565b828201526101a0915062000fa682840162000deb565b91810191909152949350505050565b6020808252602e908201527f496e697469616c697a61626c653a20636f6e747261637420697320616c72656160408201526d191e481a5b9a5d1a585b1a5e995960921b606082015260800190565b6020808252602b908201527f496e697469616c697a61626c653a20636f6e7472616374206973206e6f74206960408201526a6e697469616c697a696e6760a81b606082015260800190565b634e487b7160e01b600052602160045260246000fd5b600181811c908216806200107957607f821691505b602082108114156200109b57634e487b7160e01b600052602260045260246000fd5b50919050565b61557c80620010b16000396000f3fe6080604052600436106103db5760003560e01c806301ffc9a7146103e05780630653aca51461041557806306fdde0314610464578063081812fc14610486578063095ea7b3146104b357806316744607146104d557806318160ddd146104ea5780631a056e711461050d57806323b872dd1461052d578063248a9ca31461054d5780632a55205a1461056d5780632bb684ad1461059b5780632c233067146105c85780632d00b587146105e85780632d8e85b0146106165780632f2ff15d146106365780633542aee2146106565780633574a2dd1461067657806336568abe146106965780633acf404d146106b65780633c0e8f2c146106cc57806342842e0e146106ec578063464bd6401461070c57806349561cb9146107265780634f972f5f146107475780635136dcc71461076757806356c022bb14610787578063572b6c05146107a75780635a9b0b89146107c75780635d36598f1461082a5780636057e0ec1461084a5780636198e3391461086b5780636352211e1461088b5780636ba572fc146108ab5780636f8b44b0146108cb57806370a08231146108eb578063714ad8e71461090b578063715018a61461091f5780637313cba9146109345780637885fdc714610949578063791a2519146109845780637d7eee42146109a45780637e980342146109c4578063837fe140146109d9578063859610c6146109ee5780638da5cb5b14610a0e57806391d1485414610a23578063938e3d7b14610a4357806395d89b4114610a6357806399e0dd7c14610a785780639b6860c814610a985780639e6b2c5b14610aae578063a217fddf14610ac1578063a22cb46514610ad6578063a9852bfb14610af6578063aaeaca4814610b16578063af121f5414610b2c578063b27c6f2d14610b4d578063b45a3c0e14610b63578063b6c693e514610b83578063b88d4fde14610b9d578063ba4695fd14610bbd578063c0ac998314610bd2578063c0bb38ff14610be7578063c29de63014610c07578063c723955a14610c21578063c87b56dd14610c36578063cad96cca14610c56578063d539139314610c83578063d547741f14610ca5578063d5abeb0114610cc5578063d79ff99d14610cdb578063da74222814610cee578063da82b22714610d0e578063dbbc853b14610d23578063dcbe353f14610d38578063dd46706414610d58578063de6d6d9614610d78578063e3b9a7e514610d98578063e757c17d14610db8578063e8a3d48514610dce578063e985e9c514610de3578063ef60ceaf14610e2c578063f2fde38b14610e4c578063f362136714610e6c578063f384702f14610e8e578063f74bbf5914610ea8578063f95df41414610ec8575b600080fd5b3480156103ec57600080fd5b506104006103fb3660046145d1565b610ee8565b60405190151581526020015b60405180910390f35b34801561042157600080fd5b506104356104303660046145ee565b610ef9565b60408051825181526020808401516001600160a01b0316908201529181015161ffff169082015260600161040c565b34801561047057600080fd5b50610479610f7c565b60405161040c919061465f565b34801561049257600080fd5b506104a66104a13660046145ee565b610f8b565b60405161040c9190614672565b3480156104bf57600080fd5b506104d36104ce36600461469d565b610fcf565b005b3480156104e157600080fd5b506104d361106f565b3480156104f657600080fd5b50600454600354035b60405190815260200161040c565b34801561051957600080fd5b506104d361052836600461469d565b6110c6565b34801561053957600080fd5b506104d36105483660046146c7565b61112c565b34801561055957600080fd5b506104ff6105683660046145ee565b6112b8565b34801561057957600080fd5b5061058d610588366004614703565b6112cd565b60405161040c929190614725565b3480156105a757600080fd5b506105bb6105b6366004614782565b611390565b60405161040c91906147c3565b3480156105d457600080fd5b506104d36105e3366004614807565b61145a565b3480156105f457600080fd5b5060025461060990600160b01b900460ff1681565b60405161040c919061483e565b34801561062257600080fd5b506104d3610631366004614874565b6114f0565b34801561064257600080fd5b506104d3610651366004614891565b611542565b34801561066257600080fd5b506104d361067136600461469d565b611563565b34801561068257600080fd5b506104d3610691366004614991565b6115a2565b3480156106a257600080fd5b506104d36106b1366004614891565b6115f4565b3480156106c257600080fd5b506104ff60175481565b3480156106d857600080fd5b506104d36106e73660046145ee565b61167e565b3480156106f857600080fd5b506104d36107073660046146c7565b6116c2565b34801561071857600080fd5b506018546104009060ff1681565b34801561073257600080fd5b5060025461040090600160b81b900460ff1681565b34801561075357600080fd5b506104d3610762366004614874565b6116dd565b34801561077357600080fd5b506104d36107823660046149c5565b61172f565b34801561079357600080fd5b506023546104a6906001600160a01b031681565b3480156107b357600080fd5b506104006107c2366004614a39565b6117c9565b3480156107d357600080fd5b506107dc6117dd565b604080519a8b5260208b0199909952978901969096526060880194909452608087019290925260a0860152151560c085015260e084015261010083015215156101208201526101400161040c565b34801561083657600080fd5b506104d3610845366004614782565b61196c565b34801561085657600080fd5b5060025461040090600160a01b900460ff1681565b34801561087757600080fd5b506104d36108863660046145ee565b611a10565b34801561089757600080fd5b506104a66108a63660046145ee565b611a7d565b3480156108b757600080fd5b506104d36108c6366004614a66565b611a88565b3480156108d757600080fd5b506104d36108e63660046145ee565b611bb1565b3480156108f757600080fd5b506104ff610906366004614a39565b611c3a565b34801561091757600080fd5b506001610400565b34801561092b57600080fd5b506104d3611c88565b34801561094057600080fd5b50610479611cd3565b34801561095557600080fd5b50601f54610976906001600160a01b03811690600160a01b900461ffff1682565b60405161040c929190614bf1565b34801561099057600080fd5b506104d361099f3660046145ee565b611d65565b3480156109b057600080fd5b506104d36109bf3660046145ee565b611da9565b3480156109d057600080fd5b506104ff611ded565b3480156109e557600080fd5b506104d3611df9565b3480156109fa57600080fd5b506104d3610a09366004614782565b611e77565b348015610a1a57600080fd5b506104a6611f11565b348015610a2f57600080fd5b50610400610a3e366004614891565b611f26565b348015610a4f57600080fd5b506104d3610a5e366004614991565b611f51565b348015610a6f57600080fd5b50610479611fa3565b348015610a8457600080fd5b506104d3610a93366004614991565b611fad565b348015610aa457600080fd5b506104ff601a5481565b6104d3610abc366004614c0e565b612022565b348015610acd57600080fd5b506104ff600081565b348015610ae257600080fd5b506104d3610af1366004614c59565b612200565b348015610b0257600080fd5b506104d3610b11366004614991565b612296565b348015610b2257600080fd5b506104ff60165481565b348015610b3857600080fd5b5060025461040090600160a81b900460ff1681565b348015610b5957600080fd5b506104ff601b5481565b348015610b6f57600080fd5b50610400610b7e3660046145ee565b61230b565b348015610b8f57600080fd5b50601c546104009060ff1681565b348015610ba957600080fd5b506104d3610bb8366004614c90565b612318565b348015610bc957600080fd5b506104d3612362565b348015610bde57600080fd5b506104796123b0565b348015610bf357600080fd5b506104d3610c02366004614a39565b6123bf565b348015610c1357600080fd5b506011546104009060ff1681565b348015610c2d57600080fd5b506104d361244a565b348015610c4257600080fd5b50610479610c513660046145ee565b6124c8565b348015610c6257600080fd5b50610c76610c713660046145ee565b6124d3565b60405161040c9190614d0b565b348015610c8f57600080fd5b506104ff6000805160206154e783398151915281565b348015610cb157600080fd5b506104d3610cc0366004614891565b61258e565b348015610cd157600080fd5b506104ff60125481565b6104d3610ce936600461469d565b6125aa565b348015610cfa57600080fd5b506104d3610d09366004614a39565b6126a3565b348015610d1a57600080fd5b506104d3612704565b348015610d2f57600080fd5b50610479612781565b348015610d4457600080fd5b506002546104a6906001600160a01b031681565b348015610d6457600080fd5b506104d3610d733660046145ee565b612790565b348015610d8457600080fd5b506104d3610d93366004614d6c565b6127f5565b348015610da457600080fd5b50610400610db3366004614dd7565b612a3d565b348015610dc457600080fd5b506104ff60155481565b348015610dda57600080fd5b50610479612a8b565b348015610def57600080fd5b50610400610dfe366004614e10565b6001600160a01b039182166000908152600a6020908152604080832093909416825291909152205460ff1690565b348015610e3857600080fd5b506104d3610e47366004614e3a565b612a9a565b348015610e5857600080fd5b506104d3610e67366004614a39565b612af3565b348015610e7857600080fd5b506104ff60008051602061552783398151915281565b348015610e9a57600080fd5b506013546104009060ff1681565b348015610eb457600080fd5b506104d3610ec33660046145ee565b612ba0565b348015610ed457600080fd5b506104d3610ee33660046145ee565b612be4565b6000610ef382612c5d565b92915050565b6040805160608101825260008082526020820181905291810182905290610f21602184612c99565b600081815260208080526040918290208251808401845290546001600160a01b03808216835261ffff600160a01b90920482168385019081528551606081018752968752925116928501929092525116908201529392505050565b6060610f86612cac565b905090565b6000610f9682612cbb565b610fb3576040516333d1c03960e21b815260040160405180910390fd5b506000908152600960205260409020546001600160a01b031690565b6000610fda82611a7d565b9050336001600160a01b0382161461101357610ff68133610dfe565b611013576040516367d9dca160e11b815260040160405180910390fd5b60008281526009602052604080822080546001600160a01b0319166001600160a01b0387811691821790925591518593918516917f8c5be1e5ebec7d5bd14f71427d1e84f3dd0314c0f7b2291e5b200ac8c7c3b92591a4505050565b611077612ce3565b6001600160a01b0316611088611f11565b6001600160a01b0316146110b75760405162461bcd60e51b81526004016110ae90614e52565b60405180910390fd5b6013805460ff19166001179055565b6110e06000805160206154e7833981519152610a3e612ce3565b61111e5760405162461bcd60e51b815260206004820152600f60248201526e4e4f545f4d494e5445525f524f4c4560881b60448201526064016110ae565b6111288282612ced565b5050565b600061113782612d55565b9050836001600160a01b0316816001600160a01b03161461116a5760405162a1148160e81b815260040160405180910390fd5b60008281526009602052604090208054338082146001600160a01b038816909114176111b75761119a8633610dfe565b6111b757604051632ce44b5f60e11b815260040160405180910390fd5b6001600160a01b0385166111de57604051633a954ecd60e21b815260040160405180910390fd5b6111eb8686866001612db6565b80156111f657600082555b6001600160a01b0386811660009081526008602052604080822080546000190190559187168152208054600101905561123385600160e11b612dc2565b600085815260076020526040902055600160e11b8316611281576001840160008181526007602052604090205461127f57600354811461127f5760008181526007602052604090208490555b505b83856001600160a01b0316876001600160a01b031660008051602061550783398151915260405160405180910390a4505050505050565b6000908152601e602052604090206001015490565b600082815260208052604081205481906001600160a01b0316156113305760008481526020805260409020546001600160a01b038116906127109061131d90600160a01b900461ffff1686614e9d565b6113279190614ed2565b91509150611389565b601f546001600160a01b0316158015906113565750601f54600160a01b900461ffff1615155b1561138257601f546001600160a01b038116906127109061131d90600160a01b900461ffff1686614e9d565b5060009050805b9250929050565b60606000826001600160401b038111156113ac576113ac6148bd565b6040519080825280602002602001820160405280156113d5578160200160208202803683370190505b50905060005b83811015611452576114048585838181106113f8576113f8614ee6565b9050602002013561230b565b6114405784848281811061141a5761141a614ee6565b9050602002013582828151811061143357611433614ee6565b6020026020010181815250505b8061144a81614efc565b9150506113db565b509392505050565b611462612ce3565b6001600160a01b0316611473611f11565b6001600160a01b0316146114995760405162461bcd60e51b81526004016110ae90614e52565b600254600160b81b900460ff16156114c35760405162461bcd60e51b81526004016110ae90614f17565b6002805482919060ff60b01b1916600160b01b8360038111156114e8576114e8614828565b021790555050565b6114f8612ce3565b6001600160a01b0316611509611f11565b6001600160a01b03161461152f5760405162461bcd60e51b81526004016110ae90614e52565b601c805460ff1916911515919091179055565b61154b826112b8565b61155481612dd7565b61155e8383612de8565b505050565b61156b612ce3565b6001600160a01b031661157c611f11565b6001600160a01b03161461111e5760405162461bcd60e51b81526004016110ae90614e52565b6115aa612ce3565b6001600160a01b03166115bb611f11565b6001600160a01b0316146115e15760405162461bcd60e51b81526004016110ae90614e52565b805161112890600e906020840190614522565b6115fc612ce3565b6001600160a01b0316816001600160a01b0316146116745760405162461bcd60e51b815260206004820152602f60248201527f416363657373436f6e74726f6c3a2063616e206f6e6c792072656e6f756e636560448201526e103937b632b9903337b91039b2b63360891b60648201526084016110ae565b6111288282612e6f565b611686612ce3565b6001600160a01b0316611697611f11565b6001600160a01b0316146116bd5760405162461bcd60e51b81526004016110ae90614e52565b601b55565b61155e83838360405180602001604052806000815250612318565b6116e5612ce3565b6001600160a01b03166116f6611f11565b6001600160a01b03161461171c5760405162461bcd60e51b81526004016110ae90614e52565b6018805460ff1916911515919091179055565b611737612ce3565b6001600160a01b0316611748611f11565b6001600160a01b03161461176e5760405162461bcd60e51b81526004016110ae90614e52565b6111288282808060200260200160405190810160405280939291908181526020016000905b828210156117bf576117b060608302860136819003810190614f4e565b81526020019060010190611793565b5050505050612ef4565b6023546001600160a01b0391821691161490565b600080808080808080808080806117f2612ce3565b6001600160a01b03161461187d57306370a0823161180e612ce3565b6040518263ffffffff1660e01b815260040161182a9190614672565b60206040518083038186803b15801561184257600080fd5b505afa158015611856573d6000803e3d6000fd5b505050506040513d601f19601f8201168201806040525081019061187a9190614fb2565b90505b601254306001600160a01b03166318160ddd6040518163ffffffff1660e01b815260040160206040518083038186803b1580156118b957600080fd5b505afa1580156118cd573d6000803e3d6000fd5b505050506040513d601f19601f820116820180604052508101906118f19190614fb2565b8260155460165460196000611904612ce3565b6001600160a01b03166001600160a01b0316815260200190815260200160002054601860009054906101000a900460ff16601a54601b54601c60009054906101000a900460ff169a509a509a509a509a509a509a509a509a509a505090919293949596979899565b6002601454141561198f5760405162461bcd60e51b81526004016110ae90614fcb565b60026014556119ac60008051602061552783398151915233611f26565b6119c85760405162461bcd60e51b81526004016110ae90615002565b60005b81811015611a06576119f48383838181106119e8576119e8614ee6565b90506020020135613098565b806119fe81614efc565b9150506119cb565b5050600160145550565b60026014541415611a335760405162461bcd60e51b81526004016110ae90614fcb565b6002601455611a5060008051602061552783398151915233611f26565b611a6c5760405162461bcd60e51b81526004016110ae90615039565b611a7581613098565b506001601455565b6000610ef382612d55565b6000611a946001613106565b90508015611aac576000805461ff0019166101001790555b611ab760008361319a565b611ac0826131a4565b611ad083610180015160026131ff565b611ae7836000015184602001518560400151613230565b611af983606001518460800151613262565b611b068360a00151613293565b611b0e6132c3565b611b17826132f2565b611b1f613322565b611b318360c001518460e00151613351565b611b45836101000151846101200151613393565b611b598361014001518461016001516133c4565b611b67836101a001516133f5565b801561155e576000805461ff0019169055604051600181527f7f26b83ff96e1f2b6a682f133852f6798a09c465da95921460cefb38474024989060200160405180910390a1505050565b611bb9612ce3565b6001600160a01b0316611bca611f11565b6001600160a01b031614611bf05760405162461bcd60e51b81526004016110ae90614e52565b60135460ff1615611c355760405162461bcd60e51b815260206004820152600f60248201526e2120a9a2afaaa924afa32927ad22a760891b60448201526064016110ae565b601255565b60006001600160a01b038216611c63576040516323d3ad8160e21b815260040160405180910390fd5b506001600160a01b03166000908152600860205260409020546001600160401b031690565b611c90612ce3565b6001600160a01b0316611ca1611f11565b6001600160a01b031614611cc75760405162461bcd60e51b81526004016110ae90614e52565b611cd160006131a4565b565b6060600e8054611ce290615069565b80601f0160208091040260200160405190810160405280929190818152602001828054611d0e90615069565b8015611d5b5780601f10611d3057610100808354040283529160200191611d5b565b820191906000526020600020905b815481529060010190602001808311611d3e57829003601f168201915b5050505050905090565b611d6d612ce3565b6001600160a01b0316611d7e611f11565b6001600160a01b031614611da45760405162461bcd60e51b81526004016110ae90614e52565b601a55565b611db1612ce3565b6001600160a01b0316611dc2611f11565b6001600160a01b031614611de85760405162461bcd60e51b81526004016110ae90614e52565b601555565b6000610f866021613425565b611e01612ce3565b6001600160a01b0316611e12611f11565b6001600160a01b031614611e385760405162461bcd60e51b81526004016110ae90614e52565b600254600160a01b900460ff1615611e625760405162461bcd60e51b81526004016110ae9061509e565b6002805460ff60a01b1916600160a01b179055565b60026014541415611e9a5760405162461bcd60e51b81526004016110ae90614fcb565b6002601455611eb760008051602061552783398151915233611f26565b611ed35760405162461bcd60e51b81526004016110ae90615002565b60005b81811015611a0657611eff838383818110611ef357611ef3614ee6565b9050602002013561342f565b80611f0981614efc565b915050611ed6565b6000546201000090046001600160a01b031690565b6000918252601e602090815260408084206001600160a01b0393909316845291905290205460ff1690565b611f59612ce3565b6001600160a01b0316611f6a611f11565b6001600160a01b031614611f905760405162461bcd60e51b81526004016110ae90614e52565b805161112890600d906020840190614522565b6060610f866134a1565b611fb5612ce3565b6001600160a01b0316611fc6611f11565b6001600160a01b031614611fec5760405162461bcd60e51b81526004016110ae90614e52565b60115460ff161561200f5760405162461bcd60e51b81526004016110ae906150d1565b805161112890600f906020840190614522565b600260145414156120455760405162461bcd60e51b81526004016110ae90614fcb565b600260145560185460ff166120925760405162461bcd60e51b81526020600482015260136024820152725052455f53414c455f4e4f545f41435449564560681b60448201526064016110ae565b600061209c612ce3565b90506120e78383808060200260200160405190810160405280939291908181526020018383602002808284376000920191909152505060175491506120e29050846134b0565b6134ea565b61212a5760405162461bcd60e51b8152602060048201526014602482015273282922afa9a0a622afaba927a723afa82927a7a360611b60448201526064016110ae565b6016546001600160a01b0382166000908152601960205260409020546121519086906150fc565b11156121905760405162461bcd60e51b815260206004820152600e60248201526d14149157d4d0531157d31253525560921b60448201526064016110ae565b348460155461219f9190614e9d565b11156121bd5760405162461bcd60e51b81526004016110ae90615114565b6001600160a01b038116600090815260196020526040812080548692906121e59084906150fc565b909155506121f590508185612ced565b505060016014555050565b6001600160a01b03821633141561222a5760405163b06307db60e01b815260040160405180910390fd5b336000818152600a602090815260408083206001600160a01b03871680855290835292819020805460ff191686151590811790915590519081529192917f17307eab39ab6107e8899845ad3d59bd9653f200f220920489ca2b5937696c31910160405180910390a35050565b61229e612ce3565b6001600160a01b03166122af611f11565b6001600160a01b0316146122d55760405162461bcd60e51b81526004016110ae90614e52565b60115460ff16156122f85760405162461bcd60e51b81526004016110ae906150d1565b8051611128906010906020840190614522565b6000610ef3601d83613500565b61232384848461112c565b6001600160a01b0383163b1561235c5761233f84848484613524565b61235c576040516368d2bf6b60e11b815260040160405180910390fd5b50505050565b61236a612ce3565b6001600160a01b031661237b611f11565b6001600160a01b0316146123a15760405162461bcd60e51b81526004016110ae90614e52565b6011805460ff19166001179055565b6060600f8054611ce290615069565b6123c7612ce3565b6001600160a01b03166123d8611f11565b6001600160a01b0316146123fe5760405162461bcd60e51b81526004016110ae90614e52565b600254600160a01b900460ff16156124285760405162461bcd60e51b81526004016110ae9061509e565b600280546001600160a01b0319166001600160a01b0392909216919091179055565b612452612ce3565b6001600160a01b0316612463611f11565b6001600160a01b0316146124895760405162461bcd60e51b81526004016110ae90614e52565b600254600160b81b900460ff16156124b35760405162461bcd60e51b81526004016110ae90614f17565b6002805460ff60b81b1916600160b81b179055565b6060610ef38261361b565b604080516001808252818301909252606091816020015b60408051808201909152600080825260208201528152602001906001900390816124ea575050601f5481519192506001600160a01b031690829060009061253357612533614ee6565b60209081029190910101516001600160a01b03919091169052601f548151600160a01b90910461ffff1690829060009061256f5761256f614ee6565b6020908102919091018101516001600160601b03909216910152919050565b612597826112b8565b6125a081612dd7565b61155e8383612e6f565b600260145414156125cd5760405162461bcd60e51b81526004016110ae90614fcb565b6002601455601c5460ff1661261d5760405162461bcd60e51b81526020600482015260166024820152755055424c49435f53414c455f4e4f545f41435449564560501b60448201526064016110ae565b601b548111156126635760405162461bcd60e51b8152602060048201526011602482015270141550931250d7d4d0531157d312535255607a1b60448201526064016110ae565b3481601a546126729190614e9d565b11156126905760405162461bcd60e51b81526004016110ae90615114565b61269a8282612ced565b50506001601455565b6126ab612ce3565b6001600160a01b03166126bc611f11565b6001600160a01b0316146126e25760405162461bcd60e51b81526004016110ae90614e52565b602380546001600160a01b0319166001600160a01b0392909216919091179055565b61270c612ce3565b6001600160a01b031661271d611f11565b6001600160a01b0316146127435760405162461bcd60e51b81526004016110ae90614e52565b6002805460ff60a81b1916600160a81b1790556040517fa24423a69b45c25c0479663125e48b482e71d85eae416f589545243bafaf3c9590600090a1565b606060108054611ce290615069565b600260145414156127b35760405162461bcd60e51b81526004016110ae90614fcb565b60026014556127d060008051602061552783398151915233611f26565b6127ec5760405162461bcd60e51b81526004016110ae90615039565b611a758161342f565b6127fe336136f7565b6002546001600160a01b031661284e5760405162461bcd60e51b815260206004820152601560248201527415d2551211149055cbd393d7d49150d25412515395605a1b60448201526064016110ae565b600254600160a81b900460ff16156128a85760405162461bcd60e51b815260206004820181905260248201527f57495448445241572f454d455247454e43595f504f5745525f5245564f4b454460448201526064016110ae565b60005b838110156129f95760008585838181106128c7576128c7614ee6565b90506020020160208101906128dc9190614a39565b6001600160a01b031614156129205761291b83838381811061290057612900614ee6565b6002546001600160a01b031692602090910201359050613880565b6129e7565b84848281811061293257612932614ee6565b90506020020160208101906129479190614a39565b6002546001600160a01b039182169163a9059cbb911685858581811061296f5761296f614ee6565b905060200201356040518363ffffffff1660e01b8152600401612993929190614725565b602060405180830381600087803b1580156129ad57600080fd5b505af11580156129c1573d6000803e3d6000fd5b505050506040513d601f19601f820116820180604052508101906129e59190615141565b505b806129f181614efc565b9150506128ab565b507fd40c399a83caf67d15628b821aa7c7bd940e563c57a047e2bd3b8c602bcaf5a584848484604051612a2f949392919061515e565b60405180910390a150505050565b6000612a838383808060200260200160405190810160405280939291908181526020018383602002808284376000920191909152505060175491506120e29050876134b0565b949350505050565b6060600d8054611ce290615069565b612aa2612ce3565b6001600160a01b0316612ab3611f11565b6001600160a01b031614612ad95760405162461bcd60e51b81526004016110ae90614e52565b612af0612aeb368390038301836151e0565b613996565b50565b612afb612ce3565b6001600160a01b0316612b0c611f11565b6001600160a01b031614612b325760405162461bcd60e51b81526004016110ae90614e52565b6001600160a01b038116612b975760405162461bcd60e51b815260206004820152602660248201527f4f776e61626c653a206e6577206f776e657220697320746865207a65726f206160448201526564647265737360d01b60648201526084016110ae565b612af0816131a4565b612ba8612ce3565b6001600160a01b0316612bb9611f11565b6001600160a01b031614612bdf5760405162461bcd60e51b81526004016110ae90614e52565b601655565b612bec612ce3565b6001600160a01b0316612bfd611f11565b6001600160a01b031614612c235760405162461bcd60e51b81526004016110ae90614e52565b601755565b6000612c33336117c9565b15612c45575060131936013560601c90565b503390565b3390565b6001600160a01b03163b151590565b60006301ffc9a760e01b6001600160e01b031983161480610ef35750506001600160e01b03191660009081526001602052604090205460ff1690565b6000612ca58383613a41565b9392505050565b6060600b8054611ce290615069565b600060035482108015610ef3575050600090815260076020526040902054600160e01b161590565b6000610f86612c28565b60125481612cfe6004546003540390565b612d0891906150fc565b1115612d4b5760405162461bcd60e51b8152602060048201526012602482015271455843454544535f4d41585f535550504c5960701b60448201526064016110ae565b6111288282613a6b565b600081600354811015612d9d57600081815260076020526040902054600160e01b8116612d9b575b80612ca5575060001901600081815260076020526040902054612d7d565b505b604051636f96cda160e11b815260040160405180910390fd5b61235c84848484613a85565b4260a01b176001600160a01b03919091161790565b612af081612de3612ce3565b613ad8565b612df28282611f26565b611128576000828152601e602090815260408083206001600160a01b03851684529091529020805460ff19166001179055612e2b612ce3565b6001600160a01b0316816001600160a01b0316837f2f8788117e7eff1d82e926ec794901d17c78024a50270940304540a733656f0d60405160405180910390a45050565b612e798282611f26565b15611128576000828152601e602090815260408083206001600160a01b03851684529091529020805460ff19169055612eb0612ce3565b6001600160a01b0316816001600160a01b0316837ff6391f5c32d9c69d2a47ea670b442974b53935d1edc7fd64eb21e047a839171b60405160405180910390a45050565b60005b8151811015611128576000828281518110612f1457612f14614ee6565b60200260200101519050612710816040015161ffff1610612f475760405162461bcd60e51b81526004016110ae9061523a565b60208101516001600160a01b0316612fbf5780516000908152602080526040902080546001600160b01b03191690558051612f8490602190613b3c565b5080516040519081527fa2870857763bd9ae76c957f869f16b31c18dd3bb4c7b4d3a4496dc5c57c657f99060200160405180910390a1613085565b6040805180820182526020808401516001600160a01b0390811683528484015161ffff9081168385019081528651600090815293805294909220925183549451909216600160a01b026001600160b01b0319909416911617919091179055805161302b90602190613b48565b50805160208083015160408085015181519485526001600160a01b039092169284019290925261ffff1682820152517f389b70fb0887f01e83784eb1c4c589f740eca53b00ed0f45e41db5d079719abb9181900360600190a15b508061309081614efc565b915050612ef7565b6130a3601d82613500565b6130e35760405162461bcd60e51b8152602060048201526011602482015270115490cdcc8c4bd393d517d313d0d2d151607a1b60448201526064016110ae565b600881901c6000908152601d602052604090208054600160ff84161b1916905550565b60008054610100900460ff1615613154578160ff166001148015613130575061312e30612c4e565b155b61314c5760405162461bcd60e51b81526004016110ae9061525f565b506000919050565b60005460ff80841691161061317b5760405162461bcd60e51b81526004016110ae9061525f565b506000805460ff191660ff92909216919091179055600190565b919050565b6111288282612de8565b600080546001600160a01b038381166201000081810262010000600160b01b0319851617855560405193049190911692909183917f8be0079c531659141344cd1fd0a4f28419497f9722a3daafe3b4186f6b6457e091a35050565b600054610100900460ff166132265760405162461bcd60e51b81526004016110ae906152ad565b6111288282613b54565b600054610100900460ff166132575760405162461bcd60e51b81526004016110ae906152ad565b61155e838383613bd8565b600054610100900460ff166132895760405162461bcd60e51b81526004016110ae906152ad565b6111288282613c6b565b600054610100900460ff166132ba5760405162461bcd60e51b81526004016110ae906152ad565b612af081613d07565b600054610100900460ff166132ea5760405162461bcd60e51b81526004016110ae906152ad565b611cd1613d63565b600054610100900460ff166133195760405162461bcd60e51b81526004016110ae906152ad565b612af081613d9a565b600054610100900460ff166133495760405162461bcd60e51b81526004016110ae906152ad565b611cd1613de9565b600054610100900460ff166133785760405162461bcd60e51b81526004016110ae906152ad565b61338863209680f760e11b613e1c565b601591909155601655565b600054610100900460ff166133ba5760405162461bcd60e51b81526004016110ae906152ad565b6111288282613e9d565b600054610100900460ff166133eb5760405162461bcd60e51b81526004016110ae906152ad565b6111288282613edf565b600054610100900460ff1661341c5760405162461bcd60e51b81526004016110ae906152ad565b612af081613f6f565b6000610ef3825490565b61343a601d82613500565b1561347f5760405162461bcd60e51b8152602060048201526015602482015274115490cdcc8c4bd053149150511657d313d0d2d151605a1b60448201526064016110ae565b600881901c6000908152601d602052604090208054600160ff84161b17905550565b6060600c8054611ce290615069565b6040516001600160601b0319606083901b166020820152600090603401604051602081830303815290604052805190602001209050919050565b6000826134f78584613f96565b14949350505050565b600881901c600090815260208390526040902054600160ff83161b16151592915050565b604051630a85bd0160e11b81526000906001600160a01b0385169063150b7a02906135599033908990889088906004016152f8565b602060405180830381600087803b15801561357357600080fd5b505af19250505080156135a3575060408051601f3d908101601f191682019092526135a091810190615335565b60015b6135fe573d8080156135d1576040519150601f19603f3d011682016040523d82523d6000602084013e6135d6565b606091505b5080516135f6576040516368d2bf6b60e11b815260040160405180910390fd5b805181602001fd5b6001600160e01b031916630a85bd0160e11b149050949350505050565b60606000600f805461362c90615069565b9050116136c357600e805461364090615069565b80601f016020809104026020016040519081016040528092919081815260200182805461366c90615069565b80156136b95780601f1061368e576101008083540402835291602001916136b9565b820191906000526020600020905b81548152906001019060200180831161369c57829003601f168201915b5050505050610ef3565b600f6136ce83614002565b60106040516020016136e2939291906153ec565b60405160208183030381529060405292915050565b6003600254600160b01b900460ff16600381111561371757613717614828565b14156137575760405162461bcd60e51b815260206004820152600f60248201526e15d2551211149055cbd313d0d2d151608a1b60448201526064016110ae565b60028054600160b01b900460ff16600381111561377657613776614828565b141561377f5750565b6001600254600160b01b900460ff16600381111561379f5761379f614828565b14156137fc576002546001600160a01b03828116911614612af05760405162461bcd60e51b815260206004820152601760248201527615d2551211149055cbd3d3931657d49150d25412515395604a1b60448201526064016110ae565b6000600254600160b01b900460ff16600381111561381c5761381c614828565b1415612af057806001600160a01b0316613834611f11565b6001600160a01b031614612af05760405162461bcd60e51b81526020600482015260136024820152722ba4aa24222920ab97a7a7262cafa7aba722a960691b60448201526064016110ae565b804710156138d05760405162461bcd60e51b815260206004820152601d60248201527f416464726573733a20696e73756666696369656e742062616c616e636500000060448201526064016110ae565b6000826001600160a01b03168260405160006040518083038185875af1925050503d806000811461391d576040519150601f19603f3d011682016040523d82523d6000602084013e613922565b606091505b505090508061155e5760405162461bcd60e51b815260206004820152603a60248201527f416464726573733a20756e61626c6520746f2073656e642076616c75652c20726044820152791958da5c1a595b9d081b585e481a185d99481c995d995c9d195960321b60648201526084016110ae565b612710816020015161ffff16106139bf5760405162461bcd60e51b81526004016110ae9061523a565b60408051808201825282516001600160a01b03168082526020808501805161ffff1691909301819052601f80546001600160b01b031916909217600160a01b9091021790558251905191517f2c5ea6e4103e78cb101e796fb2dace540362fc542cbff5145eaa24af7dd8fe4192613a369291614bf1565b60405180910390a150565b6000826000018281548110613a5857613a58614ee6565b9060005260206000200154905092915050565b6111288282604051806020016040528060008152506140ff565b613a90601d83613500565b15613ad35760405162461bcd60e51b8152602060048201526013602482015272115490cdcc8c4bd513d2d15397d313d0d2d151606a1b60448201526064016110ae565b61235c565b613ae28282611f26565b61112857613afa816001600160a01b0316601461416c565b613b0583602061416c565b604051602001613b1692919061541f565b60408051601f198184030181529082905262461bcd60e51b82526110ae9160040161465f565b6000612ca58383614307565b6000612ca583836143fa565b600054610100900460ff16613b7b5760405162461bcd60e51b81526004016110ae906152ad565b613b8b63ac2ba33360e01b613e1c565b600280546001600160a01b0384166001600160a01b0319821681178355839291600162ff000160a01b03191617600160b01b836003811115613bcf57613bcf614828565b02179055505050565b600054610100900460ff16613bff5760405162461bcd60e51b81526004016110ae906152ad565b8251613c1290600b906020860190614522565b508151613c2690600c906020850190614522565b508051613c3a90600d906020840190614522565b50613c4b633d96f4ff60e11b613e1c565b613c5b6380ac58cd60e01b613e1c565b61155e635b5e139f60e01b613e1c565b600054610100900460ff16613c925760405162461bcd60e51b81526004016110ae906152ad565b8151613ca590600e906020850190614522565b508051613cb990600f906020840190614522565b5060408051808201909152600580825264173539b7b760d91b6020909201918252613ce691601091614522565b50613cf7631f2f406b60e01b613e1c565b611128635b5e139f60e01b613e1c565b600054610100900460ff16613d2e5760405162461bcd60e51b81526004016110ae906152ad565b6012819055613d436330f487b560e11b613e1c565b613d536380ac58cd60e01b613e1c565b612af063184371e560e31b613e1c565b600054610100900460ff16613d8a5760405162461bcd60e51b81526004016110ae906152ad565b611cd1631aa1577160e11b613e1c565b600054610100900460ff16613dc15760405162461bcd60e51b81526004016110ae906152ad565b613dd1631a056e7160e01b613e1c565b612af06000805160206154e78339815191528261319a565b600054610100900460ff16613e105760405162461bcd60e51b81526004016110ae906152ad565b611cd163714ad8e760e01b5b6001600160e01b03198082161415613e755760405162461bcd60e51b815260206004820152601c60248201527b115490cc4d8d4e881a5b9d985b1a59081a5b9d195c999858d9481a5960221b60448201526064016110ae565b6001600160e01b0319166000908152600160208190526040909120805460ff19169091179055565b600054610100900460ff16613ec45760405162461bcd60e51b81526004016110ae906152ad565b613ed46317e0bac360e31b613e1c565b601a91909155601b55565b600054610100900460ff16613f065760405162461bcd60e51b81526004016110ae906152ad565b613f16633a47bf5160e11b613e1c565b613f2663152a902d60e11b613e1c565b613f3663c69dbd8f60e01b613e1c565b613f4663656cb66560e11b613e1c565b604080518082019091526001600160a01b038316815261ffff8216602082015261155e81613996565b600054610100900460ff166126e25760405162461bcd60e51b81526004016110ae906152ad565b600081815b8451811015611452576000858281518110613fb857613fb8614ee6565b60200260200101519050808311613fde5760008381526020829052604090209250613fef565b600081815260208490526040902092505b5080613ffa81614efc565b915050613f9b565b6060816140265750506040805180820190915260018152600360fc1b602082015290565b8160005b8115614050578061403a81614efc565b91506140499050600a83614ed2565b915061402a565b6000816001600160401b0381111561406a5761406a6148bd565b6040519080825280601f01601f191660200182016040528015614094576020820181803683370190505b5090505b8415612a83576140a960018361548e565b91506140b6600a866154a5565b6140c19060306150fc565b60f81b8183815181106140d6576140d6614ee6565b60200101906001600160f81b031916908160001a9053506140f8600a86614ed2565b9450614098565b6141098383614449565b6001600160a01b0383163b1561155e576003548281035b6141336000868380600101945086613524565b614150576040516368d2bf6b60e11b815260040160405180910390fd5b81811061412057816003541461416557600080fd5b5050505050565b6060600061417b836002614e9d565b6141869060026150fc565b6001600160401b0381111561419d5761419d6148bd565b6040519080825280601f01601f1916602001820160405280156141c7576020820181803683370190505b509050600360fc1b816000815181106141e2576141e2614ee6565b60200101906001600160f81b031916908160001a905350600f60fb1b8160018151811061421157614211614ee6565b60200101906001600160f81b031916908160001a9053506000614235846002614e9d565b6142409060016150fc565b90505b60018111156142b8576f181899199a1a9b1b9c1cb0b131b232b360811b85600f166010811061427457614274614ee6565b1a60f81b82828151811061428a5761428a614ee6565b60200101906001600160f81b031916908160001a90535060049490941c936142b1816154b9565b9050614243565b508315612ca55760405162461bcd60e51b815260206004820181905260248201527f537472696e67733a20686578206c656e67746820696e73756666696369656e7460448201526064016110ae565b600081815260018301602052604081205480156143f057600061432b60018361548e565b855490915060009061433f9060019061548e565b90508181146143a457600086600001828154811061435f5761435f614ee6565b906000526020600020015490508087600001848154811061438257614382614ee6565b6000918252602080832090910192909255918252600188019052604090208390555b85548690806143b5576143b56154d0565b600190038181906000526020600020016000905590558560010160008681526020019081526020016000206000905560019350505050610ef3565b6000915050610ef3565b600081815260018301602052604081205461444157508154600181810184556000848152602080822090930184905584548482528286019093526040902091909155610ef3565b506000610ef3565b6003546001600160a01b03831661447257604051622e076360e81b815260040160405180910390fd5b816144905760405163b562e8dd60e01b815260040160405180910390fd5b61449d6000848385612db6565b6001600160a01b038316600090815260086020526040902080546001600160401b0184020190556144d4836001841460e11b612dc2565b600082815260076020526040902055808281015b6040516001830192906001600160a01b03871690600090600080516020615507833981519152908290a48082106144e85760035550505050565b82805461452e90615069565b90600052602060002090601f0160209004810192826145505760008555614596565b82601f1061456957805160ff1916838001178555614596565b82800160010185558215614596579182015b8281111561459657825182559160200191906001019061457b565b506145a29291506145a6565b5090565b5b808211156145a257600081556001016145a7565b6001600160e01b031981168114612af057600080fd5b6000602082840312156145e357600080fd5b8135612ca5816145bb565b60006020828403121561460057600080fd5b5035919050565b60005b8381101561462257818101518382015260200161460a565b8381111561235c5750506000910152565b6000815180845261464b816020860160208601614607565b601f01601f19169290920160200192915050565b602081526000612ca56020830184614633565b6001600160a01b0391909116815260200190565b80356001600160a01b038116811461319557600080fd5b600080604083850312156146b057600080fd5b6146b983614686565b946020939093013593505050565b6000806000606084860312156146dc57600080fd5b6146e584614686565b92506146f360208501614686565b9150604084013590509250925092565b6000806040838503121561471657600080fd5b50508035926020909101359150565b6001600160a01b03929092168252602082015260400190565b60008083601f84011261475057600080fd5b5081356001600160401b0381111561476757600080fd5b6020830191508360208260051b850101111561138957600080fd5b6000806020838503121561479557600080fd5b82356001600160401b038111156147ab57600080fd5b6147b78582860161473e565b90969095509350505050565b6020808252825182820181905260009190848201906040850190845b818110156147fb578351835292840192918401916001016147df565b50909695505050505050565b60006020828403121561481957600080fd5b813560048110612ca557600080fd5b634e487b7160e01b600052602160045260246000fd5b602081016004831061486057634e487b7160e01b600052602160045260246000fd5b91905290565b8015158114612af057600080fd5b60006020828403121561488657600080fd5b8135612ca581614866565b600080604083850312156148a457600080fd5b823591506148b460208401614686565b90509250929050565b634e487b7160e01b600052604160045260246000fd5b6040516101c081016001600160401b03811182821017156148f6576148f66148bd565b60405290565b60006001600160401b0380841115614916576149166148bd565b604051601f8501601f19908116603f0116810190828211818310171561493e5761493e6148bd565b8160405280935085815286868601111561495757600080fd5b858560208301376000602087830101525050509392505050565b600082601f83011261498257600080fd5b612ca5838335602085016148fc565b6000602082840312156149a357600080fd5b81356001600160401b038111156149b957600080fd5b612a8384828501614971565b600080602083850312156149d857600080fd5b82356001600160401b03808211156149ef57600080fd5b818501915085601f830112614a0357600080fd5b813581811115614a1257600080fd5b866020606083028501011115614a2757600080fd5b60209290920196919550909350505050565b600060208284031215614a4b57600080fd5b612ca582614686565b803561ffff8116811461319557600080fd5b60008060408385031215614a7957600080fd5b82356001600160401b0380821115614a9057600080fd5b908401906101c08287031215614aa557600080fd5b614aad6148d3565b823582811115614abc57600080fd5b614ac888828601614971565b825250602083013582811115614add57600080fd5b614ae988828601614971565b602083015250604083013582811115614b0157600080fd5b614b0d88828601614971565b604083015250606083013582811115614b2557600080fd5b614b3188828601614971565b606083015250608083013582811115614b4957600080fd5b614b5588828601614971565b60808301525060a0838101359082015260c0808401359082015260e08084013590820152610100808401359082015261012080840135908201526101409150614b9f828401614686565b828201526101609150614bb3828401614a54565b828201526101809150614bc7828401614686565b828201526101a09150614bdb828401614686565b828201528094505050506148b460208401614686565b6001600160a01b0392909216825261ffff16602082015260400190565b600080600060408486031215614c2357600080fd5b8335925060208401356001600160401b03811115614c4057600080fd5b614c4c8682870161473e565b9497909650939450505050565b60008060408385031215614c6c57600080fd5b614c7583614686565b91506020830135614c8581614866565b809150509250929050565b60008060008060808587031215614ca657600080fd5b614caf85614686565b9350614cbd60208601614686565b92506040850135915060608501356001600160401b03811115614cdf57600080fd5b8501601f81018713614cf057600080fd5b614cff878235602084016148fc565b91505092959194509250565b602080825282518282018190526000919060409081850190868401855b82811015614d5f57815180516001600160a01b031685528601516001600160601b0316868501529284019290850190600101614d28565b5091979650505050505050565b60008060008060408587031215614d8257600080fd5b84356001600160401b0380821115614d9957600080fd5b614da58883890161473e565b90965094506020870135915080821115614dbe57600080fd5b50614dcb8782880161473e565b95989497509550505050565b600080600060408486031215614dec57600080fd5b614df584614686565b925060208401356001600160401b03811115614c4057600080fd5b60008060408385031215614e2357600080fd5b614e2c83614686565b91506148b460208401614686565b600060408284031215614e4c57600080fd5b50919050565b6020808252818101527f4f776e61626c653a2063616c6c6572206973206e6f7420746865206f776e6572604082015260600190565b634e487b7160e01b600052601160045260246000fd5b6000816000190483118215151615614eb757614eb7614e87565b500290565b634e487b7160e01b600052601260045260246000fd5b600082614ee157614ee1614ebc565b500490565b634e487b7160e01b600052603260045260246000fd5b6000600019821415614f1057614f10614e87565b5060010190565b6020808252601d908201527f57495448445241572f57495448445241575f4d4f44455f4c4f434b4544000000604082015260600190565b600060608284031215614f6057600080fd5b604051606081016001600160401b0381118282101715614f8257614f826148bd565b60405282358152614f9560208401614686565b6020820152614fa660408401614a54565b60408201529392505050565b600060208284031215614fc457600080fd5b5051919050565b6020808252601f908201527f5265656e7472616e637947756172643a207265656e7472616e742063616c6c00604082015260600190565b6020808252601f908201527f5354414b41424c455f4552433732312f4e4f545f4c4f434b45525f524f4c4500604082015260600190565b6020808252601690820152754552433732312f4e4f545f4c4f434b45525f524f4c4560501b604082015260600190565b600181811c9082168061507d57607f821691505b60208210811415614e4c57634e487b7160e01b600052602260045260246000fd5b60208082526019908201527815d2551211149055cbd49150d2541251539517d313d0d2d151603a1b604082015260600190565b6020808252601190820152702a27a5a2a729afaaa924afa32927ad22a760791b604082015260600190565b6000821982111561510f5761510f614e87565b500190565b602080825260139082015272125394d551919250d251539517d05353d55395606a1b604082015260600190565b60006020828403121561515357600080fd5b8151612ca581614866565b6040808252810184905260008560608301825b8781101561519f576001600160a01b0361518a84614686565b16825260209283019290910190600101615171565b5083810360208501528481526001600160fb1b038511156151bf57600080fd5b8460051b915081866020830137600091016020019081529695505050505050565b6000604082840312156151f257600080fd5b604080519081016001600160401b0381118282101715615214576152146148bd565b60405261522083614686565b815261522e60208401614a54565b60208201529392505050565b6020808252600b908201526a496e76616c69642062707360a81b604082015260600190565b6020808252602e908201527f496e697469616c697a61626c653a20636f6e747261637420697320616c72656160408201526d191e481a5b9a5d1a585b1a5e995960921b606082015260800190565b6020808252602b908201527f496e697469616c697a61626c653a20636f6e7472616374206973206e6f74206960408201526a6e697469616c697a696e6760a81b606082015260800190565b6001600160a01b038581168252841660208201526040810183905260806060820181905260009061532b90830184614633565b9695505050505050565b60006020828403121561534757600080fd5b8151612ca5816145bb565b8054600090600181811c908083168061536c57607f831692505b602080841082141561538e57634e487b7160e01b600052602260045260246000fd5b8180156153a257600181146153b3576153e0565b60ff198616895284890196506153e0565b60008881526020902060005b868110156153d85781548b8201529085019083016153bf565b505084890196505b50505050505092915050565b60006153f88286615352565b8451615408818360208901614607565b61541481830186615352565b979650505050505050565b76020b1b1b2b9b9a1b7b73a3937b61d1030b1b1b7bab73a1604d1b815260008351615451816017850160208801614607565b7001034b99036b4b9b9b4b733903937b6329607d1b6017918401918201528351615482816028840160208801614607565b01602801949350505050565b6000828210156154a0576154a0614e87565b500390565b6000826154b4576154b4614ebc565b500690565b6000816154c8576154c8614e87565b506000190190565b634e487b7160e01b600052603160045260246000fdfe9f2df0fed2c77648de5860a4cc508cd0818c85b8b8a1ab4ceeef8d981c8956a6ddf252ad1be2c89b69c2b068fc378daa952ba7f163c4a11628f55a4df523b3efaf9a8bb3cbd6b84fbccefa71ff73e26e798553c6914585a84886212a46a90279a2646970667358221220ab02f342f037ca387f2faaa18ed2a3851336bdead2e6c12d5860be49a6a10cef64736f6c63430008090033",
  "devdoc": {
    "kind": "dev",
    "methods": {
      "approve(address,uint256)": {
        "details": "See {IERC721-approve}."
      },
      "balanceOf(address)": {
        "details": "See {IERC721-balanceOf}."
      },
      "getApproved(uint256)": {
        "details": "See {IERC721-getApproved}."
      },
      "getRoleAdmin(bytes32)": {
        "details": "Returns the admin role that controls `role`. See {grantRole} and {revokeRole}. To change a role's admin, use {_setRoleAdmin}."
      },
      "getTokenRoyaltiesCount()": {
        "details": "See {IEIP2981RoyaltyOverride-getTokenRoyaltiesCount}."
      },
      "getTokenRoyaltyByIndex(uint256)": {
        "details": "See {IEIP2981RoyaltyOverride-getTokenRoyaltyByIndex}."
      },
      "grantRole(bytes32,address)": {
        "details": "Grants `role` to `account`. If `account` had not been already granted `role`, emits a {RoleGranted} event. Requirements: - the caller must have ``role``'s admin role."
      },
      "hasRole(bytes32,address)": {
        "details": "Returns `true` if `account` has been granted `role`."
      },
      "isApprovedForAll(address,address)": {
        "details": "See {IERC721-isApprovedForAll}."
      },
      "owner()": {
        "details": "Returns the address of the current owner."
      },
      "ownerOf(uint256)": {
        "details": "See {IERC721-ownerOf}."
      },
      "renounceOwnership()": {
        "details": "Leaves the contract without owner. It will not be possible to call `onlyOwner` functions anymore. Can only be called by the current owner. NOTE: Renouncing ownership will leave the contract without an owner, thereby removing any functionality that is only available to the owner."
      },
      "renounceRole(bytes32,address)": {
        "details": "Revokes `role` from the calling account. Roles are often managed via {grantRole} and {revokeRole}: this function's purpose is to provide a mechanism for accounts to lose their privileges if they are compromised (such as when a trusted device is misplaced). If the calling account had been revoked `role`, emits a {RoleRevoked} event. Requirements: - the caller must be `account`."
      },
      "revokeRole(bytes32,address)": {
        "details": "Revokes `role` from `account`. If `account` had been granted `role`, emits a {RoleRevoked} event. Requirements: - the caller must have ``role``'s admin role."
      },
      "royaltyInfo(uint256,uint256)": {
        "details": "See {IEIP2981RoyaltyOverride-royaltyInfo}."
      },
      "safeTransferFrom(address,address,uint256)": {
        "details": "See {IERC721-safeTransferFrom}."
      },
      "safeTransferFrom(address,address,uint256,bytes)": {
        "details": "See {IERC721-safeTransferFrom}."
      },
      "setApprovalForAll(address,bool)": {
        "details": "See {IERC721-setApprovalForAll}."
      },
      "totalSupply()": {
        "details": "Returns the total number of tokens in existence. Burned tokens will reduce the count. To get the total number of tokens minted, please see `_totalMinted`."
      },
      "transferFrom(address,address,uint256)": {
        "details": "Transfers `tokenId` from `from` to `to`. Requirements: - `to` cannot be the zero address. - `tokenId` token must be owned by `from`. Emits a {Transfer} event."
      },
      "transferOwnership(address)": {
        "details": "Transfers ownership of the contract to a new account (`newOwner`). Can only be called by the current owner."
      }
    },
    "version": 1
  },
  "userdoc": {
    "errors": {
      "ApprovalCallerNotOwnerNorApproved()": [
        {
          "notice": "The caller must own the token or be an approved operator."
        }
      ],
      "ApprovalQueryForNonexistentToken()": [
        {
          "notice": "The token does not exist."
        }
      ],
      "ApproveToCaller()": [
        {
          "notice": "The caller cannot approve to their own address."
        }
      ],
      "BalanceQueryForZeroAddress()": [
        {
          "notice": "Cannot query the balance for the zero address."
        }
      ],
      "MintERC2309QuantityExceedsLimit()": [
        {
          "notice": "The `quantity` minted with ERC2309 exceeds the safety limit."
        }
      ],
      "MintToZeroAddress()": [
        {
          "notice": "Cannot mint to the zero address."
        }
      ],
      "MintZeroQuantity()": [
        {
          "notice": "The quantity of tokens minted must be more than zero."
        }
      ],
      "OwnerQueryForNonexistentToken()": [
        {
          "notice": "The token does not exist."
        }
      ],
      "OwnershipNotInitializedForExtraData()": [
        {
          "notice": "The `extraData` cannot be set on an unintialized ownership slot."
        }
      ],
      "TransferCallerNotOwnerNorApproved()": [
        {
          "notice": "The caller must own the token or be an approved operator."
        }
      ],
      "TransferFromIncorrectOwner()": [
        {
          "notice": "The token must be owned by `from`."
        }
      ],
      "TransferToNonERC721ReceiverImplementer()": [
        {
          "notice": "Cannot safely transfer to a contract that does not implement the ERC721Receiver interface."
        }
      ],
      "TransferToZeroAddress()": [
        {
          "notice": "Cannot transfer to the zero address."
        }
      ],
      "URIQueryForNonexistentToken()": [
        {
          "notice": "The token does not exist."
        }
      ]
    },
    "kind": "user",
    "methods": {
      "lock(uint256)": {
        "notice": "Locks token(s) to effectively lock them, while keeping in the same wallet. This mechanism prevents them from being transferred, yet still will show correct owner."
      },
      "locked(uint256)": {
        "notice": "Returns if a token is locked or not."
      },
      "unlock(uint256)": {
        "notice": "Unlocks locked token(s) to be able to transfer."
      }
    },
    "version": 1
  },
  "storageLayout": {
    "storage": [
      {
        "astId": 886,
        "contract": "contracts/collections/ERC721A/presets/ERC721AFullFeaturedCollection.sol:ERC721AFullFeaturedCollection",
        "label": "_initialized",
        "offset": 0,
        "slot": "0",
        "type": "t_uint8"
      },
      {
        "astId": 889,
        "contract": "contracts/collections/ERC721A/presets/ERC721AFullFeaturedCollection.sol:ERC721AFullFeaturedCollection",
        "label": "_initializing",
        "offset": 1,
        "slot": "0",
        "type": "t_bool"
      },
      {
        "astId": 782,
        "contract": "contracts/collections/ERC721A/presets/ERC721AFullFeaturedCollection.sol:ERC721AFullFeaturedCollection",
        "label": "_owner",
        "offset": 2,
        "slot": "0",
        "type": "t_address"
      },
      {
        "astId": 4693,
        "contract": "contracts/collections/ERC721A/presets/ERC721AFullFeaturedCollection.sol:ERC721AFullFeaturedCollection",
        "label": "_supportedInterfaces",
        "offset": 0,
        "slot": "1",
        "type": "t_mapping(t_bytes4,t_bool)"
      },
      {
        "astId": 12045,
        "contract": "contracts/collections/ERC721A/presets/ERC721AFullFeaturedCollection.sol:ERC721AFullFeaturedCollection",
        "label": "withdrawRecipient",
        "offset": 0,
        "slot": "2",
        "type": "t_address"
      },
      {
        "astId": 12047,
        "contract": "contracts/collections/ERC721A/presets/ERC721AFullFeaturedCollection.sol:ERC721AFullFeaturedCollection",
        "label": "withdrawRecipientLocked",
        "offset": 20,
        "slot": "2",
        "type": "t_bool"
      },
      {
        "astId": 12049,
        "contract": "contracts/collections/ERC721A/presets/ERC721AFullFeaturedCollection.sol:ERC721AFullFeaturedCollection",
        "label": "withdrawPowerRevoked",
        "offset": 21,
        "slot": "2",
        "type": "t_bool"
      },
      {
        "astId": 12052,
        "contract": "contracts/collections/ERC721A/presets/ERC721AFullFeaturedCollection.sol:ERC721AFullFeaturedCollection",
        "label": "withdrawMode",
        "offset": 22,
        "slot": "2",
        "type": "t_enum(WithdrawMode)11989"
      },
      {
        "astId": 12054,
        "contract": "contracts/collections/ERC721A/presets/ERC721AFullFeaturedCollection.sol:ERC721AFullFeaturedCollection",
        "label": "withdrawModeLocked",
        "offset": 23,
        "slot": "2",
        "type": "t_bool"
      },
      {
        "astId": 17825,
        "contract": "contracts/collections/ERC721A/presets/ERC721AFullFeaturedCollection.sol:ERC721AFullFeaturedCollection",
        "label": "_currentIndex",
        "offset": 0,
        "slot": "3",
        "type": "t_uint256"
      },
      {
        "astId": 17827,
        "contract": "contracts/collections/ERC721A/presets/ERC721AFullFeaturedCollection.sol:ERC721AFullFeaturedCollection",
        "label": "_burnCounter",
        "offset": 0,
        "slot": "4",
        "type": "t_uint256"
      },
      {
        "astId": 17829,
        "contract": "contracts/collections/ERC721A/presets/ERC721AFullFeaturedCollection.sol:ERC721AFullFeaturedCollection",
        "label": "_name",
        "offset": 0,
        "slot": "5",
        "type": "t_string_storage"
      },
      {
        "astId": 17831,
        "contract": "contracts/collections/ERC721A/presets/ERC721AFullFeaturedCollection.sol:ERC721AFullFeaturedCollection",
        "label": "_symbol",
        "offset": 0,
        "slot": "6",
        "type": "t_string_storage"
      },
      {
        "astId": 17835,
        "contract": "contracts/collections/ERC721A/presets/ERC721AFullFeaturedCollection.sol:ERC721AFullFeaturedCollection",
        "label": "_packedOwnerships",
        "offset": 0,
        "slot": "7",
        "type": "t_mapping(t_uint256,t_uint256)"
      },
      {
        "astId": 17839,
        "contract": "contracts/collections/ERC721A/presets/ERC721AFullFeaturedCollection.sol:ERC721AFullFeaturedCollection",
        "label": "_packedAddressData",
        "offset": 0,
        "slot": "8",
        "type": "t_mapping(t_address,t_uint256)"
      },
      {
        "astId": 17843,
        "contract": "contracts/collections/ERC721A/presets/ERC721AFullFeaturedCollection.sol:ERC721AFullFeaturedCollection",
        "label": "_tokenApprovals",
        "offset": 0,
        "slot": "9",
        "type": "t_mapping(t_uint256,t_address)"
      },
      {
        "astId": 17849,
        "contract": "contracts/collections/ERC721A/presets/ERC721AFullFeaturedCollection.sol:ERC721AFullFeaturedCollection",
        "label": "_operatorApprovals",
        "offset": 0,
        "slot": "10",
        "type": "t_mapping(t_address,t_mapping(t_address,t_bool))"
      },
      {
        "astId": 9307,
        "contract": "contracts/collections/ERC721A/presets/ERC721AFullFeaturedCollection.sol:ERC721AFullFeaturedCollection",
        "label": "_name",
        "offset": 0,
        "slot": "11",
        "type": "t_string_storage"
      },
      {
        "astId": 9309,
        "contract": "contracts/collections/ERC721A/presets/ERC721AFullFeaturedCollection.sol:ERC721AFullFeaturedCollection",
        "label": "_symbol",
        "offset": 0,
        "slot": "12",
        "type": "t_string_storage"
      },
      {
        "astId": 9311,
        "contract": "contracts/collections/ERC721A/presets/ERC721AFullFeaturedCollection.sol:ERC721AFullFeaturedCollection",
        "label": "_contractURI",
        "offset": 0,
        "slot": "13",
        "type": "t_string_storage"
      },
      {
        "astId": 10728,
        "contract": "contracts/collections/ERC721A/presets/ERC721AFullFeaturedCollection.sol:ERC721AFullFeaturedCollection",
        "label": "_placeholderURI",
        "offset": 0,
        "slot": "14",
        "type": "t_string_storage"
      },
      {
        "astId": 10730,
        "contract": "contracts/collections/ERC721A/presets/ERC721AFullFeaturedCollection.sol:ERC721AFullFeaturedCollection",
        "label": "_tokenURIPrefix",
        "offset": 0,
        "slot": "15",
        "type": "t_string_storage"
      },
      {
        "astId": 10732,
        "contract": "contracts/collections/ERC721A/presets/ERC721AFullFeaturedCollection.sol:ERC721AFullFeaturedCollection",
        "label": "_tokenURISuffix",
        "offset": 0,
        "slot": "16",
        "type": "t_string_storage"
      },
      {
        "astId": 10734,
        "contract": "contracts/collections/ERC721A/presets/ERC721AFullFeaturedCollection.sol:ERC721AFullFeaturedCollection",
        "label": "tokenURIFrozen",
        "offset": 0,
        "slot": "17",
        "type": "t_bool"
      },
      {
        "astId": 9752,
        "contract": "contracts/collections/ERC721A/presets/ERC721AFullFeaturedCollection.sol:ERC721AFullFeaturedCollection",
        "label": "maxSupply",
        "offset": 0,
        "slot": "18",
        "type": "t_uint256"
      },
      {
        "astId": 9754,
        "contract": "contracts/collections/ERC721A/presets/ERC721AFullFeaturedCollection.sol:ERC721AFullFeaturedCollection",
        "label": "maxSupplyFrozen",
        "offset": 0,
        "slot": "19",
        "type": "t_bool"
      },
      {
        "astId": 1124,
        "contract": "contracts/collections/ERC721A/presets/ERC721AFullFeaturedCollection.sol:ERC721AFullFeaturedCollection",
        "label": "_status",
        "offset": 0,
        "slot": "20",
        "type": "t_uint256"
      },
      {
        "astId": 10490,
        "contract": "contracts/collections/ERC721A/presets/ERC721AFullFeaturedCollection.sol:ERC721AFullFeaturedCollection",
        "label": "preSalePrice",
        "offset": 0,
        "slot": "21",
        "type": "t_uint256"
      },
      {
        "astId": 10492,
        "contract": "contracts/collections/ERC721A/presets/ERC721AFullFeaturedCollection.sol:ERC721AFullFeaturedCollection",
        "label": "preSaleMaxMintPerWallet",
        "offset": 0,
        "slot": "22",
        "type": "t_uint256"
      },
      {
        "astId": 10494,
        "contract": "contracts/collections/ERC721A/presets/ERC721AFullFeaturedCollection.sol:ERC721AFullFeaturedCollection",
        "label": "preSaleAllowlistMerkleRoot",
        "offset": 0,
        "slot": "23",
        "type": "t_bytes32"
      },
      {
        "astId": 10496,
        "contract": "contracts/collections/ERC721A/presets/ERC721AFullFeaturedCollection.sol:ERC721AFullFeaturedCollection",
        "label": "preSaleStatus",
        "offset": 0,
        "slot": "24",
        "type": "t_bool"
      },
      {
        "astId": 10500,
        "contract": "contracts/collections/ERC721A/presets/ERC721AFullFeaturedCollection.sol:ERC721AFullFeaturedCollection",
        "label": "preSaleAllowlistClaimed",
        "offset": 0,
        "slot": "25",
        "type": "t_mapping(t_address,t_uint256)"
      },
      {
        "astId": 10941,
        "contract": "contracts/collections/ERC721A/presets/ERC721AFullFeaturedCollection.sol:ERC721AFullFeaturedCollection",
        "label": "publicSalePrice",
        "offset": 0,
        "slot": "26",
        "type": "t_uint256"
      },
      {
        "astId": 10943,
        "contract": "contracts/collections/ERC721A/presets/ERC721AFullFeaturedCollection.sol:ERC721AFullFeaturedCollection",
        "label": "publicSaleMaxMintPerTx",
        "offset": 0,
        "slot": "27",
        "type": "t_uint256"
      },
      {
        "astId": 10945,
        "contract": "contracts/collections/ERC721A/presets/ERC721AFullFeaturedCollection.sol:ERC721AFullFeaturedCollection",
        "label": "publicSaleStatus",
        "offset": 0,
        "slot": "28",
        "type": "t_bool"
      },
      {
        "astId": 9553,
        "contract": "contracts/collections/ERC721A/presets/ERC721AFullFeaturedCollection.sol:ERC721AFullFeaturedCollection",
        "label": "lockedTokens",
        "offset": 0,
        "slot": "29",
        "type": "t_struct(BitMap)5065_storage"
      },
      {
        "astId": 406,
        "contract": "contracts/collections/ERC721A/presets/ERC721AFullFeaturedCollection.sol:ERC721AFullFeaturedCollection",
        "label": "_roles",
        "offset": 0,
        "slot": "30",
        "type": "t_mapping(t_bytes32,t_struct(RoleData)401_storage)"
      },
      {
        "astId": 86,
        "contract": "contracts/collections/ERC721A/presets/ERC721AFullFeaturedCollection.sol:ERC721AFullFeaturedCollection",
        "label": "defaultRoyalty",
        "offset": 0,
        "slot": "31",
        "type": "t_struct(TokenRoyalty)28_storage"
      },
      {
        "astId": 91,
        "contract": "contracts/collections/ERC721A/presets/ERC721AFullFeaturedCollection.sol:ERC721AFullFeaturedCollection",
        "label": "_tokenRoyalties",
        "offset": 0,
        "slot": "32",
        "type": "t_mapping(t_uint256,t_struct(TokenRoyalty)28_storage)"
      },
      {
        "astId": 94,
        "contract": "contracts/collections/ERC721A/presets/ERC721AFullFeaturedCollection.sol:ERC721AFullFeaturedCollection",
        "label": "_tokensWithRoyalties",
        "offset": 0,
        "slot": "33",
        "type": "t_struct(UintSet)5664_storage"
      },
      {
        "astId": 12325,
        "contract": "contracts/collections/ERC721A/presets/ERC721AFullFeaturedCollection.sol:ERC721AFullFeaturedCollection",
        "label": "_trustedForwarder",
        "offset": 0,
        "slot": "35",
        "type": "t_address"
      }
    ],
    "types": {
      "t_address": {
        "encoding": "inplace",
        "label": "address",
        "numberOfBytes": "20"
      },
      "t_array(t_bytes32)dyn_storage": {
        "base": "t_bytes32",
        "encoding": "dynamic_array",
        "label": "bytes32[]",
        "numberOfBytes": "32"
      },
      "t_bool": {
        "encoding": "inplace",
        "label": "bool",
        "numberOfBytes": "1"
      },
      "t_bytes32": {
        "encoding": "inplace",
        "label": "bytes32",
        "numberOfBytes": "32"
      },
      "t_bytes4": {
        "encoding": "inplace",
        "label": "bytes4",
        "numberOfBytes": "4"
      },
      "t_enum(WithdrawMode)11989": {
        "encoding": "inplace",
        "label": "enum WithdrawMode",
        "numberOfBytes": "1"
      },
      "t_mapping(t_address,t_bool)": {
        "encoding": "mapping",
        "key": "t_address",
        "label": "mapping(address => bool)",
        "numberOfBytes": "32",
        "value": "t_bool"
      },
      "t_mapping(t_address,t_mapping(t_address,t_bool))": {
        "encoding": "mapping",
        "key": "t_address",
        "label": "mapping(address => mapping(address => bool))",
        "numberOfBytes": "32",
        "value": "t_mapping(t_address,t_bool)"
      },
      "t_mapping(t_address,t_uint256)": {
        "encoding": "mapping",
        "key": "t_address",
        "label": "mapping(address => uint256)",
        "numberOfBytes": "32",
        "value": "t_uint256"
      },
      "t_mapping(t_bytes32,t_struct(RoleData)401_storage)": {
        "encoding": "mapping",
        "key": "t_bytes32",
        "label": "mapping(bytes32 => struct AccessControl.RoleData)",
        "numberOfBytes": "32",
        "value": "t_struct(RoleData)401_storage"
      },
      "t_mapping(t_bytes32,t_uint256)": {
        "encoding": "mapping",
        "key": "t_bytes32",
        "label": "mapping(bytes32 => uint256)",
        "numberOfBytes": "32",
        "value": "t_uint256"
      },
      "t_mapping(t_bytes4,t_bool)": {
        "encoding": "mapping",
        "key": "t_bytes4",
        "label": "mapping(bytes4 => bool)",
        "numberOfBytes": "32",
        "value": "t_bool"
      },
      "t_mapping(t_uint256,t_address)": {
        "encoding": "mapping",
        "key": "t_uint256",
        "label": "mapping(uint256 => address)",
        "numberOfBytes": "32",
        "value": "t_address"
      },
      "t_mapping(t_uint256,t_struct(TokenRoyalty)28_storage)": {
        "encoding": "mapping",
        "key": "t_uint256",
        "label": "mapping(uint256 => struct IEIP2981RoyaltyOverride.TokenRoyalty)",
        "numberOfBytes": "32",
        "value": "t_struct(TokenRoyalty)28_storage"
      },
      "t_mapping(t_uint256,t_uint256)": {
        "encoding": "mapping",
        "key": "t_uint256",
        "label": "mapping(uint256 => uint256)",
        "numberOfBytes": "32",
        "value": "t_uint256"
      },
      "t_string_storage": {
        "encoding": "bytes",
        "label": "string",
        "numberOfBytes": "32"
      },
      "t_struct(BitMap)5065_storage": {
        "encoding": "inplace",
        "label": "struct BitMaps.BitMap",
        "members": [
          {
            "astId": 5064,
            "contract": "contracts/collections/ERC721A/presets/ERC721AFullFeaturedCollection.sol:ERC721AFullFeaturedCollection",
            "label": "_data",
            "offset": 0,
            "slot": "0",
            "type": "t_mapping(t_uint256,t_uint256)"
          }
        ],
        "numberOfBytes": "32"
      },
      "t_struct(RoleData)401_storage": {
        "encoding": "inplace",
        "label": "struct AccessControl.RoleData",
        "members": [
          {
            "astId": 398,
            "contract": "contracts/collections/ERC721A/presets/ERC721AFullFeaturedCollection.sol:ERC721AFullFeaturedCollection",
            "label": "members",
            "offset": 0,
            "slot": "0",
            "type": "t_mapping(t_address,t_bool)"
          },
          {
            "astId": 400,
            "contract": "contracts/collections/ERC721A/presets/ERC721AFullFeaturedCollection.sol:ERC721AFullFeaturedCollection",
            "label": "adminRole",
            "offset": 0,
            "slot": "1",
            "type": "t_bytes32"
          }
        ],
        "numberOfBytes": "64"
      },
      "t_struct(Set)5206_storage": {
        "encoding": "inplace",
        "label": "struct EnumerableSet.Set",
        "members": [
          {
            "astId": 5201,
            "contract": "contracts/collections/ERC721A/presets/ERC721AFullFeaturedCollection.sol:ERC721AFullFeaturedCollection",
            "label": "_values",
            "offset": 0,
            "slot": "0",
            "type": "t_array(t_bytes32)dyn_storage"
          },
          {
            "astId": 5205,
            "contract": "contracts/collections/ERC721A/presets/ERC721AFullFeaturedCollection.sol:ERC721AFullFeaturedCollection",
            "label": "_indexes",
            "offset": 0,
            "slot": "1",
            "type": "t_mapping(t_bytes32,t_uint256)"
          }
        ],
        "numberOfBytes": "64"
      },
      "t_struct(TokenRoyalty)28_storage": {
        "encoding": "inplace",
        "label": "struct IEIP2981RoyaltyOverride.TokenRoyalty",
        "members": [
          {
            "astId": 25,
            "contract": "contracts/collections/ERC721A/presets/ERC721AFullFeaturedCollection.sol:ERC721AFullFeaturedCollection",
            "label": "recipient",
            "offset": 0,
            "slot": "0",
            "type": "t_address"
          },
          {
            "astId": 27,
            "contract": "contracts/collections/ERC721A/presets/ERC721AFullFeaturedCollection.sol:ERC721AFullFeaturedCollection",
            "label": "bps",
            "offset": 20,
            "slot": "0",
            "type": "t_uint16"
          }
        ],
        "numberOfBytes": "32"
      },
      "t_struct(UintSet)5664_storage": {
        "encoding": "inplace",
        "label": "struct EnumerableSet.UintSet",
        "members": [
          {
            "astId": 5663,
            "contract": "contracts/collections/ERC721A/presets/ERC721AFullFeaturedCollection.sol:ERC721AFullFeaturedCollection",
            "label": "_inner",
            "offset": 0,
            "slot": "0",
            "type": "t_struct(Set)5206_storage"
          }
        ],
        "numberOfBytes": "64"
      },
      "t_uint16": {
        "encoding": "inplace",
        "label": "uint16",
        "numberOfBytes": "2"
      },
      "t_uint256": {
        "encoding": "inplace",
        "label": "uint256",
        "numberOfBytes": "32"
      },
      "t_uint8": {
        "encoding": "inplace",
        "label": "uint8",
        "numberOfBytes": "1"
      }
    }
  }
}