{
  "address": "0x7998EF0423A264a2dD623Bf7408f2b6B10f6262c",
  "abi": [
    {
      "inputs": [
        {
          "components": [
            {
              "internalType": "string",
              "name": "name",
              "type": "string"
            },
            {
              "internalType": "string",
              "name": "symbol",
              "type": "string"
            },
            {
              "internalType": "string",
              "name": "contractURI",
              "type": "string"
            },
            {
              "internalType": "uint256",
              "name": "maxSupply",
              "type": "uint256"
            },
            {
              "internalType": "address",
              "name": "defaultRoyaltyAddress",
              "type": "address"
            },
            {
              "internalType": "uint16",
              "name": "defaultRoyaltyBps",
              "type": "uint16"
            },
            {
              "internalType": "address",
              "name": "openSeaProxyRegistryAddress",
              "type": "address"
            },
            {
              "internalType": "address",
              "name": "openSeaExchangeAddress",
              "type": "address"
            },
            {
              "internalType": "address",
              "name": "trustedForwarder",
              "type": "address"
            }
          ],
          "internalType": "struct ERC721AOneOfOneCollection.Config",
          "name": "config",
          "type": "tuple"
        }
      ],
      "stateMutability": "nonpayable",
      "type": "constructor"
    },
    {
      "inputs": [],
      "name": "ApprovalCallerNotOwnerNorApproved",
      "type": "error"
    },
    {
      "inputs": [],
      "name": "ApprovalQueryForNonexistentToken",
      "type": "error"
    },
    {
      "inputs": [],
      "name": "ApproveToCaller",
      "type": "error"
    },
    {
      "inputs": [],
      "name": "BalanceQueryForZeroAddress",
      "type": "error"
    },
    {
      "inputs": [],
      "name": "MintERC2309QuantityExceedsLimit",
      "type": "error"
    },
    {
      "inputs": [],
      "name": "MintToZeroAddress",
      "type": "error"
    },
    {
      "inputs": [],
      "name": "MintZeroQuantity",
      "type": "error"
    },
    {
      "inputs": [],
      "name": "OwnerQueryForNonexistentToken",
      "type": "error"
    },
    {
      "inputs": [],
      "name": "OwnershipNotInitializedForExtraData",
      "type": "error"
    },
    {
      "inputs": [],
      "name": "TransferCallerNotOwnerNorApproved",
      "type": "error"
    },
    {
      "inputs": [],
      "name": "TransferFromIncorrectOwner",
      "type": "error"
    },
    {
      "inputs": [],
      "name": "TransferToNonERC721ReceiverImplementer",
      "type": "error"
    },
    {
      "inputs": [],
      "name": "TransferToZeroAddress",
      "type": "error"
    },
    {
      "inputs": [],
      "name": "URIQueryForNonexistentToken",
      "type": "error"
    },
    {
      "anonymous": false,
      "inputs": [
        {
          "indexed": true,
          "internalType": "address",
          "name": "owner",
          "type": "address"
        },
        {
          "indexed": true,
          "internalType": "address",
          "name": "approved",
          "type": "address"
        },
        {
          "indexed": true,
          "internalType": "uint256",
          "name": "tokenId",
          "type": "uint256"
        }
      ],
      "name": "Approval",
      "type": "event"
    },
    {
      "anonymous": false,
      "inputs": [
        {
          "indexed": true,
          "internalType": "address",
          "name": "owner",
          "type": "address"
        },
        {
          "indexed": true,
          "internalType": "address",
          "name": "operator",
          "type": "address"
        },
        {
          "indexed": false,
          "internalType": "bool",
          "name": "approved",
          "type": "bool"
        }
      ],
      "name": "ApprovalForAll",
      "type": "event"
    },
    {
      "anonymous": false,
      "inputs": [
        {
          "indexed": true,
          "internalType": "uint256",
          "name": "fromTokenId",
          "type": "uint256"
        },
        {
          "indexed": false,
          "internalType": "uint256",
          "name": "toTokenId",
          "type": "uint256"
        },
        {
          "indexed": true,
          "internalType": "address",
          "name": "from",
          "type": "address"
        },
        {
          "indexed": true,
          "internalType": "address",
          "name": "to",
          "type": "address"
        }
      ],
      "name": "ConsecutiveTransfer",
      "type": "event"
    },
    {
      "anonymous": false,
      "inputs": [
        {
          "indexed": false,
          "internalType": "address",
          "name": "recipient",
          "type": "address"
        },
        {
          "indexed": false,
          "internalType": "uint16",
          "name": "bps",
          "type": "uint16"
        }
      ],
      "name": "DefaultRoyaltySet",
      "type": "event"
    },
    {
      "anonymous": false,
      "inputs": [
        {
          "indexed": false,
          "internalType": "uint8",
          "name": "version",
          "type": "uint8"
        }
      ],
      "name": "Initialized",
      "type": "event"
    },
    {
      "anonymous": false,
      "inputs": [
        {
          "indexed": true,
          "internalType": "address",
          "name": "previousOwner",
          "type": "address"
        },
        {
          "indexed": true,
          "internalType": "address",
          "name": "newOwner",
          "type": "address"
        }
      ],
      "name": "OwnershipTransferred",
      "type": "event"
    },
    {
      "anonymous": false,
      "inputs": [
        {
          "indexed": true,
          "internalType": "bytes32",
          "name": "role",
          "type": "bytes32"
        },
        {
          "indexed": true,
          "internalType": "bytes32",
          "name": "previousAdminRole",
          "type": "bytes32"
        },
        {
          "indexed": true,
          "internalType": "bytes32",
          "name": "newAdminRole",
          "type": "bytes32"
        }
      ],
      "name": "RoleAdminChanged",
      "type": "event"
    },
    {
      "anonymous": false,
      "inputs": [
        {
          "indexed": true,
          "internalType": "bytes32",
          "name": "role",
          "type": "bytes32"
        },
        {
          "indexed": true,
          "internalType": "address",
          "name": "account",
          "type": "address"
        },
        {
          "indexed": true,
          "internalType": "address",
          "name": "sender",
          "type": "address"
        }
      ],
      "name": "RoleGranted",
      "type": "event"
    },
    {
      "anonymous": false,
      "inputs": [
        {
          "indexed": true,
          "internalType": "bytes32",
          "name": "role",
          "type": "bytes32"
        },
        {
          "indexed": true,
          "internalType": "address",
          "name": "account",
          "type": "address"
        },
        {
          "indexed": true,
          "internalType": "address",
          "name": "sender",
          "type": "address"
        }
      ],
      "name": "RoleRevoked",
      "type": "event"
    },
    {
      "anonymous": false,
      "inputs": [
        {
          "indexed": false,
          "internalType": "uint256",
          "name": "tokenId",
          "type": "uint256"
        }
      ],
      "name": "TokenRoyaltyRemoved",
      "type": "event"
    },
    {
      "anonymous": false,
      "inputs": [
        {
          "indexed": false,
          "internalType": "uint256",
          "name": "tokenId",
          "type": "uint256"
        },
        {
          "indexed": false,
          "internalType": "address",
          "name": "recipient",
          "type": "address"
        },
        {
          "indexed": false,
          "internalType": "uint16",
          "name": "bps",
          "type": "uint16"
        }
      ],
      "name": "TokenRoyaltySet",
      "type": "event"
    },
    {
      "anonymous": false,
      "inputs": [
        {
          "indexed": true,
          "internalType": "address",
          "name": "from",
          "type": "address"
        },
        {
          "indexed": true,
          "internalType": "address",
          "name": "to",
          "type": "address"
        },
        {
          "indexed": true,
          "internalType": "uint256",
          "name": "tokenId",
          "type": "uint256"
        }
      ],
      "name": "Transfer",
      "type": "event"
    },
    {
      "inputs": [],
      "name": "DEFAULT_ADMIN_ROLE",
      "outputs": [
        {
          "internalType": "bytes32",
          "name": "",
          "type": "bytes32"
        }
      ],
      "stateMutability": "view",
      "type": "function"
    },
    {
      "inputs": [],
      "name": "MINTER_ROLE",
      "outputs": [
        {
          "internalType": "bytes32",
          "name": "",
          "type": "bytes32"
        }
      ],
      "stateMutability": "view",
      "type": "function"
    },
    {
      "inputs": [],
      "name": "_trustedForwarder",
      "outputs": [
        {
          "internalType": "address",
          "name": "",
          "type": "address"
        }
      ],
      "stateMutability": "view",
      "type": "function"
    },
    {
      "inputs": [
        {
          "internalType": "address",
          "name": "to",
          "type": "address"
        },
        {
          "internalType": "uint256",
          "name": "tokenId",
          "type": "uint256"
        }
      ],
      "name": "approve",
      "outputs": [],
      "stateMutability": "nonpayable",
      "type": "function"
    },
    {
      "inputs": [
        {
          "internalType": "address",
          "name": "owner",
          "type": "address"
        }
      ],
      "name": "balanceOf",
      "outputs": [
        {
          "internalType": "uint256",
          "name": "",
          "type": "uint256"
        }
      ],
      "stateMutability": "view",
      "type": "function"
    },
    {
      "inputs": [],
      "name": "contractURI",
      "outputs": [
        {
          "internalType": "string",
          "name": "",
          "type": "string"
        }
      ],
      "stateMutability": "view",
      "type": "function"
    },
    {
      "inputs": [],
      "name": "defaultRoyalty",
      "outputs": [
        {
          "internalType": "address",
          "name": "recipient",
          "type": "address"
        },
        {
          "internalType": "uint16",
          "name": "bps",
          "type": "uint16"
        }
      ],
      "stateMutability": "view",
      "type": "function"
    },
    {
      "inputs": [],
      "name": "freezeMaxSupply",
      "outputs": [],
      "stateMutability": "nonpayable",
      "type": "function"
    },
    {
      "inputs": [
        {
          "internalType": "uint256",
          "name": "_lastFrozenTokenId",
          "type": "uint256"
        }
      ],
      "name": "freezeTokenURIs",
      "outputs": [],
      "stateMutability": "nonpayable",
      "type": "function"
    },
    {
      "inputs": [
        {
          "internalType": "uint256",
          "name": "tokenId",
          "type": "uint256"
        }
      ],
      "name": "getApproved",
      "outputs": [
        {
          "internalType": "address",
          "name": "",
          "type": "address"
        }
      ],
      "stateMutability": "view",
      "type": "function"
    },
    {
      "inputs": [],
      "name": "getInfo",
      "outputs": [
        {
          "internalType": "uint256",
          "name": "_maxSupply",
          "type": "uint256"
        },
        {
          "internalType": "uint256",
          "name": "_totalSupply",
          "type": "uint256"
        },
        {
          "internalType": "uint256",
          "name": "_senderBalance",
          "type": "uint256"
        }
      ],
      "stateMutability": "view",
      "type": "function"
    },
    {
      "inputs": [
        {
          "internalType": "uint256",
          "name": "id",
          "type": "uint256"
        }
      ],
      "name": "getRaribleV2Royalties",
      "outputs": [
        {
          "components": [
            {
              "internalType": "address payable",
              "name": "account",
              "type": "address"
            },
            {
              "internalType": "uint96",
              "name": "value",
              "type": "uint96"
            }
          ],
          "internalType": "struct LibPart.Part[]",
          "name": "result",
          "type": "tuple[]"
        }
      ],
      "stateMutability": "view",
      "type": "function"
    },
    {
      "inputs": [
        {
          "internalType": "bytes32",
          "name": "role",
          "type": "bytes32"
        }
      ],
      "name": "getRoleAdmin",
      "outputs": [
        {
          "internalType": "bytes32",
          "name": "",
          "type": "bytes32"
        }
      ],
      "stateMutability": "view",
      "type": "function"
    },
    {
      "inputs": [],
      "name": "getTokenRoyaltiesCount",
      "outputs": [
        {
          "internalType": "uint256",
          "name": "",
          "type": "uint256"
        }
      ],
      "stateMutability": "view",
      "type": "function"
    },
    {
      "inputs": [
        {
          "internalType": "uint256",
          "name": "index",
          "type": "uint256"
        }
      ],
      "name": "getTokenRoyaltyByIndex",
      "outputs": [
        {
          "components": [
            {
              "internalType": "uint256",
              "name": "tokenId",
              "type": "uint256"
            },
            {
              "internalType": "address",
              "name": "recipient",
              "type": "address"
            },
            {
              "internalType": "uint16",
              "name": "bps",
              "type": "uint16"
            }
          ],
          "internalType": "struct IEIP2981RoyaltyOverride.TokenRoyaltyConfig",
          "name": "",
          "type": "tuple"
        }
      ],
      "stateMutability": "view",
      "type": "function"
    },
    {
      "inputs": [
        {
          "internalType": "bytes32",
          "name": "role",
          "type": "bytes32"
        },
        {
          "internalType": "address",
          "name": "account",
          "type": "address"
        }
      ],
      "name": "grantRole",
      "outputs": [],
      "stateMutability": "nonpayable",
      "type": "function"
    },
    {
      "inputs": [
        {
          "internalType": "bytes32",
          "name": "role",
          "type": "bytes32"
        },
        {
          "internalType": "address",
          "name": "account",
          "type": "address"
        }
      ],
      "name": "hasRole",
      "outputs": [
        {
          "internalType": "bool",
          "name": "",
          "type": "bool"
        }
      ],
      "stateMutability": "view",
      "type": "function"
    },
    {
      "inputs": [
        {
          "components": [
            {
              "internalType": "string",
              "name": "name",
              "type": "string"
            },
            {
              "internalType": "string",
              "name": "symbol",
              "type": "string"
            },
            {
              "internalType": "string",
              "name": "contractURI",
              "type": "string"
            },
            {
              "internalType": "uint256",
              "name": "maxSupply",
              "type": "uint256"
            },
            {
              "internalType": "address",
              "name": "defaultRoyaltyAddress",
              "type": "address"
            },
            {
              "internalType": "uint16",
              "name": "defaultRoyaltyBps",
              "type": "uint16"
            },
            {
              "internalType": "address",
              "name": "openSeaProxyRegistryAddress",
              "type": "address"
            },
            {
              "internalType": "address",
              "name": "openSeaExchangeAddress",
              "type": "address"
            },
            {
              "internalType": "address",
              "name": "trustedForwarder",
              "type": "address"
            }
          ],
          "internalType": "struct ERC721AOneOfOneCollection.Config",
          "name": "config",
          "type": "tuple"
        },
        {
          "internalType": "address",
          "name": "deployer",
          "type": "address"
        }
      ],
      "name": "initialize",
      "outputs": [],
      "stateMutability": "nonpayable",
      "type": "function"
    },
    {
      "inputs": [
        {
          "internalType": "address",
          "name": "owner",
          "type": "address"
        },
        {
          "internalType": "address",
          "name": "operator",
          "type": "address"
        }
      ],
      "name": "isApprovedForAll",
      "outputs": [
        {
          "internalType": "bool",
          "name": "",
          "type": "bool"
        }
      ],
      "stateMutability": "view",
      "type": "function"
    },
    {
      "inputs": [
        {
          "internalType": "address",
          "name": "forwarder",
          "type": "address"
        }
      ],
      "name": "isTrustedForwarder",
      "outputs": [
        {
          "internalType": "bool",
          "name": "",
          "type": "bool"
        }
      ],
      "stateMutability": "view",
      "type": "function"
    },
    {
      "inputs": [],
      "name": "lastFrozenTokenId",
      "outputs": [
        {
          "internalType": "uint256",
          "name": "",
          "type": "uint256"
        }
      ],
      "stateMutability": "view",
      "type": "function"
    },
    {
      "inputs": [],
      "name": "maxSupply",
      "outputs": [
        {
          "internalType": "uint256",
          "name": "",
          "type": "uint256"
        }
      ],
      "stateMutability": "view",
      "type": "function"
    },
    {
      "inputs": [],
      "name": "maxSupplyFrozen",
      "outputs": [
        {
          "internalType": "bool",
          "name": "",
          "type": "bool"
        }
      ],
      "stateMutability": "view",
      "type": "function"
    },
    {
      "inputs": [
        {
          "internalType": "address",
          "name": "to",
          "type": "address"
        },
        {
          "internalType": "uint256",
          "name": "count",
          "type": "uint256"
        }
      ],
      "name": "mintByOwner",
      "outputs": [],
      "stateMutability": "nonpayable",
      "type": "function"
    },
    {
      "inputs": [
        {
          "internalType": "address",
          "name": "to",
          "type": "address"
        },
        {
          "internalType": "uint256",
          "name": "count",
          "type": "uint256"
        },
        {
          "internalType": "string[]",
          "name": "tokenURIs",
          "type": "string[]"
        }
      ],
      "name": "mintWithTokenURIsByOwner",
      "outputs": [],
      "stateMutability": "nonpayable",
      "type": "function"
    },
    {
      "inputs": [
        {
          "internalType": "address",
          "name": "to",
          "type": "address"
        },
        {
          "internalType": "uint256",
          "name": "count",
          "type": "uint256"
        },
        {
          "internalType": "string[]",
          "name": "tokenURIs",
          "type": "string[]"
        }
      ],
      "name": "mintWithTokenURIsByRole",
      "outputs": [],
      "stateMutability": "nonpayable",
      "type": "function"
    },
    {
      "inputs": [],
      "name": "name",
      "outputs": [
        {
          "internalType": "string",
          "name": "",
          "type": "string"
        }
      ],
      "stateMutability": "view",
      "type": "function"
    },
    {
      "inputs": [],
      "name": "owner",
      "outputs": [
        {
          "internalType": "address",
          "name": "",
          "type": "address"
        }
      ],
      "stateMutability": "view",
      "type": "function"
    },
    {
      "inputs": [
        {
          "internalType": "uint256",
          "name": "tokenId",
          "type": "uint256"
        }
      ],
      "name": "ownerOf",
      "outputs": [
        {
          "internalType": "address",
          "name": "",
          "type": "address"
        }
      ],
      "stateMutability": "view",
      "type": "function"
    },
    {
      "inputs": [],
      "name": "renounceOwnership",
      "outputs": [],
      "stateMutability": "nonpayable",
      "type": "function"
    },
    {
      "inputs": [
        {
          "internalType": "bytes32",
          "name": "role",
          "type": "bytes32"
        },
        {
          "internalType": "address",
          "name": "account",
          "type": "address"
        }
      ],
      "name": "renounceRole",
      "outputs": [],
      "stateMutability": "nonpayable",
      "type": "function"
    },
    {
      "inputs": [
        {
          "internalType": "bytes32",
          "name": "role",
          "type": "bytes32"
        },
        {
          "internalType": "address",
          "name": "account",
          "type": "address"
        }
      ],
      "name": "revokeRole",
      "outputs": [],
      "stateMutability": "nonpayable",
      "type": "function"
    },
    {
      "inputs": [
        {
          "internalType": "uint256",
          "name": "tokenId",
          "type": "uint256"
        },
        {
          "internalType": "uint256",
          "name": "value",
          "type": "uint256"
        }
      ],
      "name": "royaltyInfo",
      "outputs": [
        {
          "internalType": "address",
          "name": "",
          "type": "address"
        },
        {
          "internalType": "uint256",
          "name": "",
          "type": "uint256"
        }
      ],
      "stateMutability": "view",
      "type": "function"
    },
    {
      "inputs": [
        {
          "internalType": "address",
          "name": "from",
          "type": "address"
        },
        {
          "internalType": "address",
          "name": "to",
          "type": "address"
        },
        {
          "internalType": "uint256",
          "name": "tokenId",
          "type": "uint256"
        }
      ],
      "name": "safeTransferFrom",
      "outputs": [],
      "stateMutability": "nonpayable",
      "type": "function"
    },
    {
      "inputs": [
        {
          "internalType": "address",
          "name": "from",
          "type": "address"
        },
        {
          "internalType": "address",
          "name": "to",
          "type": "address"
        },
        {
          "internalType": "uint256",
          "name": "tokenId",
          "type": "uint256"
        },
        {
          "internalType": "bytes",
          "name": "_data",
          "type": "bytes"
        }
      ],
      "name": "safeTransferFrom",
      "outputs": [],
      "stateMutability": "nonpayable",
      "type": "function"
    },
    {
      "inputs": [
        {
          "internalType": "address",
          "name": "operator",
          "type": "address"
        },
        {
          "internalType": "bool",
          "name": "approved",
          "type": "bool"
        }
      ],
      "name": "setApprovalForAll",
      "outputs": [],
      "stateMutability": "nonpayable",
      "type": "function"
    },
    {
      "inputs": [
        {
          "internalType": "string",
          "name": "newValue",
          "type": "string"
        }
      ],
      "name": "setContractURI",
      "outputs": [],
      "stateMutability": "nonpayable",
      "type": "function"
    },
    {
      "inputs": [
        {
          "components": [
            {
              "internalType": "address",
              "name": "recipient",
              "type": "address"
            },
            {
              "internalType": "uint16",
              "name": "bps",
              "type": "uint16"
            }
          ],
          "internalType": "struct IEIP2981RoyaltyOverride.TokenRoyalty",
          "name": "royalty",
          "type": "tuple"
        }
      ],
      "name": "setDefaultRoyalty",
      "outputs": [],
      "stateMutability": "nonpayable",
      "type": "function"
    },
    {
      "inputs": [
        {
          "internalType": "uint256",
          "name": "newValue",
          "type": "uint256"
        }
      ],
      "name": "setMaxSupply",
      "outputs": [],
      "stateMutability": "nonpayable",
      "type": "function"
    },
    {
      "inputs": [
        {
          "internalType": "address",
          "name": "addr",
          "type": "address"
        }
      ],
      "name": "setOpenSeaExchangeAddress",
      "outputs": [],
      "stateMutability": "nonpayable",
      "type": "function"
    },
    {
      "inputs": [
        {
          "internalType": "address",
          "name": "addr",
          "type": "address"
        }
      ],
      "name": "setOpenSeaProxyRegistryAddress",
      "outputs": [],
      "stateMutability": "nonpayable",
      "type": "function"
    },
    {
      "inputs": [
        {
          "components": [
            {
              "internalType": "uint256",
              "name": "tokenId",
              "type": "uint256"
            },
            {
              "internalType": "address",
              "name": "recipient",
              "type": "address"
            },
            {
              "internalType": "uint16",
              "name": "bps",
              "type": "uint16"
            }
          ],
          "internalType": "struct IEIP2981RoyaltyOverride.TokenRoyaltyConfig[]",
          "name": "royaltyConfigs",
          "type": "tuple[]"
        }
      ],
      "name": "setTokenRoyalties",
      "outputs": [],
      "stateMutability": "nonpayable",
      "type": "function"
    },
    {
      "inputs": [
        {
          "internalType": "uint256",
          "name": "tokenId",
          "type": "uint256"
        },
        {
          "internalType": "string",
          "name": "tokenURI",
          "type": "string"
        }
      ],
      "name": "setTokenURI",
      "outputs": [],
      "stateMutability": "nonpayable",
      "type": "function"
    },
    {
      "inputs": [
        {
          "internalType": "address",
          "name": "trustedForwarder",
          "type": "address"
        }
      ],
      "name": "setTrustedForwarder",
      "outputs": [],
      "stateMutability": "nonpayable",
      "type": "function"
    },
    {
      "inputs": [
        {
          "internalType": "bytes4",
          "name": "interfaceId",
          "type": "bytes4"
        }
      ],
      "name": "supportsInterface",
      "outputs": [
        {
          "internalType": "bool",
          "name": "",
          "type": "bool"
        }
      ],
      "stateMutability": "view",
      "type": "function"
    },
    {
      "inputs": [],
      "name": "symbol",
      "outputs": [
        {
          "internalType": "string",
          "name": "",
          "type": "string"
        }
      ],
      "stateMutability": "view",
      "type": "function"
    },
    {
      "inputs": [
        {
          "internalType": "uint256",
          "name": "_tokenId",
          "type": "uint256"
        }
      ],
      "name": "tokenURI",
      "outputs": [
        {
          "internalType": "string",
          "name": "",
          "type": "string"
        }
      ],
      "stateMutability": "view",
      "type": "function"
    },
    {
      "inputs": [],
      "name": "totalSupply",
      "outputs": [
        {
          "internalType": "uint256",
          "name": "",
          "type": "uint256"
        }
      ],
      "stateMutability": "view",
      "type": "function"
    },
    {
      "inputs": [
        {
          "internalType": "address",
          "name": "from",
          "type": "address"
        },
        {
          "internalType": "address",
          "name": "to",
          "type": "address"
        },
        {
          "internalType": "uint256",
          "name": "tokenId",
          "type": "uint256"
        }
      ],
      "name": "transferFrom",
      "outputs": [],
      "stateMutability": "nonpayable",
      "type": "function"
    },
    {
      "inputs": [
        {
          "internalType": "address",
          "name": "newOwner",
          "type": "address"
        }
      ],
      "name": "transferOwnership",
      "outputs": [],
      "stateMutability": "nonpayable",
      "type": "function"
    }
  ],
  "transactionHash": "0x7d0f0c877254df798dff3d07a6212b7e03ce5c1fcb1a243139a8fbfda256cb5d",
  "args": [
    {
      "name": "Collection",
      "symbol": "COL",
      "contractURI": "ipfs://contractURI",
      "maxSupply": 0,
      "defaultRoyaltyAddress": "0x0000000000000000000000000000000000000000",
      "defaultRoyaltyBps": 0,
      "openSeaProxyRegistryAddress": "0x0000000000000000000000000000000000000000",
      "openSeaExchangeAddress": "0x0000000000000000000000000000000000000000",
      "trustedForwarder": "0x0000000000000000000000000000000000000000"
    }
  ],
  "numDeployments": 3,
  "solcInputHash": "e067de3d92ffc8c1e3e68238a2da9f42",
  "bytecode": "0x60806040523480156200001157600080fd5b506040516200462938038062004629833981016040819052620000349162000c0e565b805160208201516200004f6200004962000095565b620000b1565b81516200006490600690602085019062000a33565b5080516200007a90600790602084019062000a33565b50506001600455506200008e81336200010c565b5062000e15565b6000620000ac6200024f60201b620017281760201c565b905090565b600080546001600160a01b038381166201000081810262010000600160b01b0319851617855560405193049190911692909183917f8be0079c531659141344cd1fd0a4f28419497f9722a3daafe3b4186f6b6457e091a35050565b60006200011a600162000288565b9050801562000133576000805461ff0019166101001790555b620001406000836200033a565b6200016c7f9f2df0fed2c77648de5860a4cc508cd0818c85b8b8a1ab4ceeef8d981c8956a6836200033a565b6200017782620000b1565b825160208401516040850151620001909291906200034a565b6200019a62000381565b620001a4620003b7565b620001ae620003eb565b6060830151620001be9062000429565b620001d883608001518460a001516200046160201b60201c565b620001f28360c001518460e001516200049760201b60201c565b6101008301516200020390620004cd565b80156200024a576000805461ff0019169055604051600181527f7f26b83ff96e1f2b6a682f133852f6798a09c465da95921460cefb38474024989060200160405180910390a15b505050565b6002546000906001600160a01b031633141562000273575060131936013560601c90565b620000ac6200050260201b6200174a1760201c565b60008054610100900460ff1615620002f1578160ff166001148015620002c15750620002bf306200050660201b6200174e1760201c565b155b620002e95760405162461bcd60e51b8152600401620002e09062000d3f565b60405180910390fd5b506000919050565b60005460ff8084169116106200031b5760405162461bcd60e51b8152600401620002e09062000d3f565b506000805460ff191660ff92909216919091179055600190565b919050565b62000346828262000515565b5050565b600054610100900460ff16620003745760405162461bcd60e51b8152600401620002e09062000d8d565b6200024a838383620005bb565b600054610100900460ff16620003ab5760405162461bcd60e51b8152600401620002e09062000d8d565b620003b56200065d565b565b600054610100900460ff16620003e15760405162461bcd60e51b8152600401620002e09062000d8d565b620003b562000699565b600054610100900460ff16620004155760405162461bcd60e51b8152600401620002e09062000d8d565b6200041f62000381565b620003b5620006d5565b600054610100900460ff16620004535760405162461bcd60e51b8152600401620002e09062000d8d565b6200045e8162000711565b50565b600054610100900460ff166200048b5760405162461bcd60e51b8152600401620002e09062000d8d565b62000346828262000776565b600054610100900460ff16620004c15760405162461bcd60e51b8152600401620002e09062000d8d565b62000346828262000813565b600054610100900460ff16620004f75760405162461bcd60e51b8152600401620002e09062000d8d565b6200045e816200087d565b3390565b6001600160a01b03163b151590565b60008281526003602090815260408083206001600160a01b038516845290915290205460ff16620003465760008281526003602090815260408083206001600160a01b03851684529091529020805460ff191660011790556200057762000095565b6001600160a01b0316816001600160a01b0316837f2f8788117e7eff1d82e926ec794901d17c78024a50270940304540a733656f0d60405160405180910390a45050565b600054610100900460ff16620005e55760405162461bcd60e51b8152600401620002e09062000d8d565b8251620005fa90600e90602086019062000a33565b5081516200061090600f90602085019062000a33565b5080516200062690601090602084019062000a33565b5062000639633d96f4ff60e11b620008c9565b6200064b6380ac58cd60e01b620008c9565b6200024a635b5e139f60e01b620008c9565b600054610100900460ff16620006875760405162461bcd60e51b8152600401620002e09062000d8d565b620003b5632929b36760e11b620008c9565b600054610100900460ff16620006c35760405162461bcd60e51b8152600401620002e09062000d8d565b620003b5631aa1577160e11b620008c9565b600054610100900460ff16620006ff5760405162461bcd60e51b8152600401620002e09062000d8d565b620003b5630d169dbf60e31b620008c9565b600054610100900460ff166200073b5760405162461bcd60e51b8152600401620002e09062000d8d565b600c819055620007526330f487b560e11b620008c9565b620007646380ac58cd60e01b620008c9565b6200045e63184371e560e31b620008c9565b600054610100900460ff16620007a05760405162461bcd60e51b8152600401620002e09062000d8d565b620007b2633a47bf5160e11b620008c9565b620007c463152a902d60e11b620008c9565b620007d663c69dbd8f60e01b620008c9565b620007e863656cb66560e11b620008c9565b604080518082019091526001600160a01b038316815261ffff821660208201526200024a816200094d565b600054610100900460ff166200083d5760405162461bcd60e51b8152600401620002e09062000d8d565b6200084f638d29851f60e01b620008c9565b601780546001600160a01b039384166001600160a01b03199182161790915560188054929093169116179055565b600054610100900460ff16620008a75760405162461bcd60e51b8152600401620002e09062000d8d565b600280546001600160a01b0319166001600160a01b0392909216919091179055565b6001600160e01b03198082161415620009255760405162461bcd60e51b815260206004820152601c60248201527f4552433136353a20696e76616c696420696e74657266616365206964000000006044820152606401620002e0565b6001600160e01b0319166000908152600160208190526040909120805460ff19169091179055565b612710816020015161ffff1610620009965760405162461bcd60e51b815260206004820152600b60248201526a496e76616c69642062707360a81b6044820152606401620002e0565b60408051808201825282516001600160a01b03168082526020808501805161ffff169190930181905260138054600160a01b9092026001600160b01b03199092169092171790558251905191517f2c5ea6e4103e78cb101e796fb2dace540362fc542cbff5145eaa24af7dd8fe419262000a2892916001600160a01b0392909216825261ffff16602082015260400190565b60405180910390a150565b82805462000a419062000dd8565b90600052602060002090601f01602090048101928262000a65576000855562000ab0565b82601f1062000a8057805160ff191683800117855562000ab0565b8280016001018555821562000ab0579182015b8281111562000ab057825182559160200191906001019062000a93565b5062000abe92915062000ac2565b5090565b5b8082111562000abe576000815560010162000ac3565b634e487b7160e01b600052604160045260246000fd5b60405161012081016001600160401b038111828210171562000b155762000b1562000ad9565b60405290565b604051601f8201601f191681016001600160401b038111828210171562000b465762000b4662000ad9565b604052919050565b600082601f83011262000b6057600080fd5b81516001600160401b0381111562000b7c5762000b7c62000ad9565b602062000b92601f8301601f1916820162000b1b565b828152858284870101111562000ba757600080fd5b60005b8381101562000bc757858101830151828201840152820162000baa565b8381111562000bd95760008385840101525b5095945050505050565b80516001600160a01b03811681146200033557600080fd5b805161ffff811681146200033557600080fd5b60006020828403121562000c2157600080fd5b81516001600160401b038082111562000c3957600080fd5b90830190610120828603121562000c4f57600080fd5b62000c5962000aef565b82518281111562000c6957600080fd5b62000c778782860162000b4e565b82525060208301518281111562000c8d57600080fd5b62000c9b8782860162000b4e565b60208301525060408301518281111562000cb457600080fd5b62000cc28782860162000b4e565b6040830152506060830151606082015262000ce06080840162000be3565b608082015262000cf360a0840162000bfb565b60a082015262000d0660c0840162000be3565b60c082015262000d1960e0840162000be3565b60e0820152610100915062000d3082840162000be3565b91810191909152949350505050565b6020808252602e908201527f496e697469616c697a61626c653a20636f6e747261637420697320616c72656160408201526d191e481a5b9a5d1a585b1a5e995960921b606082015260800190565b6020808252602b908201527f496e697469616c697a61626c653a20636f6e7472616374206973206e6f74206960408201526a6e697469616c697a696e6760a81b606082015260800190565b600181811c9082168062000ded57607f821691505b6020821081141562000e0f57634e487b7160e01b600052602260045260246000fd5b50919050565b6138048062000e256000396000f3fe608060405234801561001057600080fd5b50600436106102465760003560e01c806301ffc9a71461024b5780630653aca51461027357806306fdde03146102b5578063081812fc146102ca57806308abf026146102ea578063095ea7b3146102ff578063162094c414610312578063167446071461032557806318160ddd1461032d57806323b872dd14610343578063248a9ca3146103565780632a55205a146103695780632ee774bd1461039b5780632f2ff15d146103ae5780633542aee2146103c1578063357802d1146103d457806336568abe146103e757806342842e0e146103fa5780634473f20a1461040d5780635136dcc71461042057806356c022bb14610433578063572b6c05146104465780635a9b0b89146104595780636352211e1461047c5780636c079cfc1461048f5780636f8b44b0146104a257806370a08231146104b5578063715018a6146104c85780637885fdc7146104d05780637e980342146104fe5780638da5cb5b146105065780638e28cf981461050e57806391d1485414610521578063938e3d7b1461053457806395d89b4114610547578063a217fddf1461054f578063a22cb46514610557578063b88d4fde1461056a578063b89df8e81461057d578063c87b56dd14610586578063cad96cca14610599578063d5391393146105b9578063d547741f146105ce578063d5abeb01146105e1578063da742228146105ea578063e8a3d485146105fd578063e985e9c514610605578063ef60ceaf14610618578063f2fde38b1461062b578063f384702f1461063e575b600080fd5b61025e610259366004612c7b565b61064b565b60405190151581526020015b60405180910390f35b610286610281366004612c98565b61065c565b60408051825181526020808401516001600160a01b0316908201529181015161ffff169082015260600161026a565b6102bd6106e1565b60405161026a9190612d09565b6102dd6102d8366004612c98565b6106f0565b60405161026a9190612d1c565b6102fd6102f8366004612d50565b610734565b005b6102fd61030d366004612d6d565b61079e565b6102fd610320366004612e7f565b61083e565b6102fd6108cb565b610335610919565b60405190815260200161026a565b6102fd610351366004612ec5565b610927565b610335610364366004612c98565b610aa6565b61037c610377366004612f06565b610abb565b604080516001600160a01b03909316835260208301919091520161026a565b6102fd6103a9366004612f28565b610b80565b6102fd6103bc366004613008565b610c26565b6102fd6103cf366004612d6d565b610c47565b6102fd6103e236600461304a565b610c90565b6102fd6103f5366004613008565b610d98565b6102fd610408366004612ec5565b610e22565b6102fd61041b366004612c98565b610e3d565b6102fd61042e366004613174565b610ec4565b6002546102dd906001600160a01b031681565b61025e610454366004612d50565b610f5e565b610461610f72565b6040805193845260208401929092529082015260600161026a565b6102dd61048a366004612c98565b61108b565b6102fd61049d366004612d50565b611096565b6102fd6104b0366004612c98565b6110f7565b6103356104c3366004612d50565b611180565b6102fd6111ce565b6013546104f0906001600160a01b03811690600160a01b900461ffff1682565b60405161026a9291906131e8565b610335611219565b6102dd611225565b6102fd61051c366004612f28565b61123a565b61025e61052f366004613008565b6112d3565b6102fd610542366004613205565b6112fe565b6102bd611350565b610335600081565b6102fd610565366004613239565b61135a565b6102fd61057836600461326c565b6113f0565b61033560115481565b6102bd610594366004612c98565b61143a565b6105ac6105a7366004612c98565b611445565b60405161026a91906132eb565b61033560008051602061378f83398151915281565b6102fd6105dc366004613008565b611500565b610335600c5481565b6102fd6105f8366004612d50565b61151c565b6102bd61157d565b61025e61061336600461334c565b61160f565b6102fd61062636600461337a565b611622565b6102fd610639366004612d50565b61167b565b600d5461025e9060ff1681565b60006106568261175d565b92915050565b6040805160608101825260008082526020820181905291810182905290610684601584611799565b6000818152601460209081526040918290208251808401845290546001600160a01b03808216835261ffff600160a01b90920482168385019081528551606081018752968752925116928501929092525116908201529392505050565b60606106eb6117a5565b905090565b60006106fb826117b4565b610718576040516333d1c03960e21b815260040160405180910390fd5b506000908152600a60205260409020546001600160a01b031690565b61073c6117e9565b6001600160a01b031661074d611225565b6001600160a01b03161461077c5760405162461bcd60e51b815260040161077390613392565b60405180910390fd5b601780546001600160a01b0319166001600160a01b0392909216919091179055565b60006107a98261108b565b9050336001600160a01b038216146107e2576107c5813361160f565b6107e2576040516367d9dca160e11b815260040160405180910390fd5b6000828152600a602052604080822080546001600160a01b0319166001600160a01b0387811691821790925591518593918516917f8c5be1e5ebec7d5bd14f71427d1e84f3dd0314c0f7b2291e5b200ac8c7c3b92591a4505050565b6108466117e9565b6001600160a01b0316610857611225565b6001600160a01b03161461087d5760405162461bcd60e51b815260040161077390613392565b60115482116108bd5760405162461bcd60e51b815260206004820152600c60248201526b232927ad22a72faa27a5a2a760a11b6044820152606401610773565b6108c782826117f3565b5050565b6108d36117e9565b6001600160a01b03166108e4611225565b6001600160a01b03161461090a5760405162461bcd60e51b815260040161077390613392565b600d805460ff19166001179055565b600554600454036000190190565b60006109328261187e565b9050836001600160a01b0316816001600160a01b0316146109655760405162a1148160e81b815260040160405180910390fd5b6000828152600a602052604090208054338082146001600160a01b038816909114176109b257610995863361160f565b6109b257604051632ce44b5f60e11b815260040160405180910390fd5b6001600160a01b0385166109d957604051633a954ecd60e21b815260040160405180910390fd5b80156109e457600082555b6001600160a01b03868116600090815260096020526040808220805460001901905591871681522080546001019055610a2185600160e11b6118e7565b600085815260086020526040902055600160e11b8316610a6f5760018401600081815260086020526040902054610a6d576004548114610a6d5760008181526008602052604090208490555b505b83856001600160a01b0316876001600160a01b03166000805160206137af83398151915260405160405180910390a4505050505050565b60009081526003602052604090206001015490565b60008281526014602052604081205481906001600160a01b031615610b20576000848152601460205260409020546001600160a01b0381169061271090610b0d90600160a01b900461ffff16866133dd565b610b1791906133fc565b91509150610b79565b6013546001600160a01b031615801590610b465750601354600160a01b900461ffff1615155b15610b72576013546001600160a01b0381169061271090610b0d90600160a01b900461ffff16866133dd565b5060009050805b9250929050565b610b886117e9565b6001600160a01b0316610b99611225565b6001600160a01b031614610bbf5760405162461bcd60e51b815260040161077390613392565b6000610bca60045490565b9050610bd684846118fc565b60005b83811015610c1f57610c0d610bee828461341e565b848381518110610c0057610c00613436565b60200260200101516117f3565b80610c178161344c565b915050610bd9565b5050505050565b610c2f82610aa6565b610c388161195f565b610c428383611970565b505050565b610c4f6117e9565b6001600160a01b0316610c60611225565b6001600160a01b031614610c865760405162461bcd60e51b815260040161077390613392565b6108c782826118fc565b6000610c9c60016119f7565b90508015610cb4576000805461ff0019166101001790555b610cbf600083611a8b565b610cd760008051602061378f83398151915283611a8b565b610ce082611a95565b610cf7836000015184602001518560400151611af0565b610cff611b22565b610d07611b51565b610d0f611b80565b610d1c8360600151611bb7565b610d2e83608001518460a00151611be7565b610d408360c001518460e00151611c18565b610d4e836101000151611c49565b8015610c42576000805461ff0019169055604051600181527f7f26b83ff96e1f2b6a682f133852f6798a09c465da95921460cefb38474024989060200160405180910390a1505050565b610da06117e9565b6001600160a01b0316816001600160a01b031614610e185760405162461bcd60e51b815260206004820152602f60248201527f416363657373436f6e74726f6c3a2063616e206f6e6c792072656e6f756e636560448201526e103937b632b9903337b91039b2b63360891b6064820152608401610773565b6108c78282611c79565b610c42838383604051806020016040528060008152506113f0565b610e456117e9565b6001600160a01b0316610e56611225565b6001600160a01b031614610e7c5760405162461bcd60e51b815260040161077390613392565b6011548111610ebf5760405162461bcd60e51b815260206004820152600f60248201526e43414e4e4f545f554e465245455a4560881b6044820152606401610773565b601155565b610ecc6117e9565b6001600160a01b0316610edd611225565b6001600160a01b031614610f035760405162461bcd60e51b815260040161077390613392565b6108c78282808060200260200160405190810160405280939291908181526020016000905b82821015610f5457610f4560608302860136819003810190613467565b81526020019060010190610f28565b5050505050611cfe565b6002546001600160a01b0391821691161490565b600080808080610f806117e9565b6001600160a01b03161461100b57306370a08231610f9c6117e9565b6040518263ffffffff1660e01b8152600401610fb89190612d1c565b60206040518083038186803b158015610fd057600080fd5b505afa158015610fe4573d6000803e3d6000fd5b505050506040513d601f19601f8201168201806040525081019061100891906134cd565b90505b600c54306001600160a01b03166318160ddd6040518163ffffffff1660e01b815260040160206040518083038186803b15801561104757600080fd5b505afa15801561105b573d6000803e3d6000fd5b505050506040513d601f19601f8201168201806040525081019061107f91906134cd565b90959094509092509050565b60006106568261187e565b61109e6117e9565b6001600160a01b03166110af611225565b6001600160a01b0316146110d55760405162461bcd60e51b815260040161077390613392565b601880546001600160a01b0319166001600160a01b0392909216919091179055565b6110ff6117e9565b6001600160a01b0316611110611225565b6001600160a01b0316146111365760405162461bcd60e51b815260040161077390613392565b600d5460ff161561117b5760405162461bcd60e51b815260206004820152600f60248201526e2120a9a2afaaa924afa32927ad22a760891b6044820152606401610773565b600c55565b60006001600160a01b0382166111a9576040516323d3ad8160e21b815260040160405180910390fd5b506001600160a01b03166000908152600960205260409020546001600160401b031690565b6111d66117e9565b6001600160a01b03166111e7611225565b6001600160a01b03161461120d5760405162461bcd60e51b815260040161077390613392565b6112176000611a95565b565b60006106eb6015611ea5565b6000546201000090046001600160a01b031690565b61125460008051602061378f83398151915261052f6117e9565b6112925760405162461bcd60e51b815260206004820152600f60248201526e4e4f545f4d494e5445525f524f4c4560881b6044820152606401610773565b600061129d60045490565b90506112a984846118fc565b60005b83811015610c1f576112c1610bee828461341e565b806112cb8161344c565b9150506112ac565b60009182526003602090815260408084206001600160a01b0393909316845291905290205460ff1690565b6113066117e9565b6001600160a01b0316611317611225565b6001600160a01b03161461133d5760405162461bcd60e51b815260040161077390613392565b80516108c7906010906020840190612bcc565b60606106eb611eaf565b6001600160a01b0382163314156113845760405163b06307db60e01b815260040160405180910390fd5b336000818152600b602090815260408083206001600160a01b03871680855290835292819020805460ff191686151590811790915590519081529192917f17307eab39ab6107e8899845ad3d59bd9653f200f220920489ca2b5937696c31910160405180910390a35050565b6113fb848484610927565b6001600160a01b0383163b156114345761141784848484611ebe565b611434576040516368d2bf6b60e11b815260040160405180910390fd5b50505050565b606061065682611fb6565b604080516001808252818301909252606091816020015b604080518082019091526000808252602082015281526020019060019003908161145c57505060135481519192506001600160a01b03169082906000906114a5576114a5613436565b60209081029190910101516001600160a01b039190911690526013548151600160a01b90910461ffff169082906000906114e1576114e1613436565b6020908102919091018101516001600160601b03909216910152919050565b61150982610aa6565b6115128161195f565b610c428383611c79565b6115246117e9565b6001600160a01b0316611535611225565b6001600160a01b03161461155b5760405162461bcd60e51b815260040161077390613392565b600280546001600160a01b0319166001600160a01b0392909216919091179055565b60606010805461158c906134e6565b80601f01602080910402602001604051908101604052809291908181526020018280546115b8906134e6565b80156116055780601f106115da57610100808354040283529160200191611605565b820191906000526020600020905b8154815290600101906020018083116115e857829003601f168201915b5050505050905090565b600061161b8383611fc1565b9392505050565b61162a6117e9565b6001600160a01b031661163b611225565b6001600160a01b0316146116615760405162461bcd60e51b815260040161077390613392565b6116786116733683900383018361351b565b6120d2565b50565b6116836117e9565b6001600160a01b0316611694611225565b6001600160a01b0316146116ba5760405162461bcd60e51b815260040161077390613392565b6001600160a01b03811661171f5760405162461bcd60e51b815260206004820152602660248201527f4f776e61626c653a206e6577206f776e657220697320746865207a65726f206160448201526564647265737360d01b6064820152608401610773565b61167881611a95565b600061173333610f5e565b15611745575060131936013560601c90565b503390565b3390565b6001600160a01b03163b151590565b60006301ffc9a760e01b6001600160e01b0319831614806106565750506001600160e01b03191660009081526001602052604090205460ff1690565b600061161b838361217d565b6060600e805461158c906134e6565b6000816001111580156117c8575060045482105b8015610656575050600090815260086020526040902054600160e01b161590565b60006106eb611728565b6117fc826117b4565b61185f5760405162461bcd60e51b815260206004820152602e60248201527f45524337323155524953746f726167653a2055524920736574206f66206e6f6e60448201526d32bc34b9ba32b73a103a37b5b2b760911b6064820152608401610773565b60008281526012602090815260409091208251610c4292840190612bcc565b600081806001116118ce576004548110156118ce57600081815260086020526040902054600160e01b81166118cc575b8061161b5750600019016000818152600860205260409020546118ae565b505b604051636f96cda160e11b815260040160405180910390fd5b4260a01b176001600160a01b03919091161790565b600c5481611908610919565b611912919061341e565b11156119555760405162461bcd60e51b8152602060048201526012602482015271455843454544535f4d41585f535550504c5960701b6044820152606401610773565b6108c782826121a7565b6116788161196b6117e9565b6121c1565b61197a82826112d3565b6108c75760008281526003602090815260408083206001600160a01b03851684529091529020805460ff191660011790556119b36117e9565b6001600160a01b0316816001600160a01b0316837f2f8788117e7eff1d82e926ec794901d17c78024a50270940304540a733656f0d60405160405180910390a45050565b60008054610100900460ff1615611a45578160ff166001148015611a215750611a1f3061174e565b155b611a3d5760405162461bcd60e51b815260040161077390613577565b506000919050565b60005460ff808416911610611a6c5760405162461bcd60e51b815260040161077390613577565b506000805460ff191660ff92909216919091179055600190565b919050565b6108c78282611970565b600080546001600160a01b038381166201000081810262010000600160b01b0319851617855560405193049190911692909183917f8be0079c531659141344cd1fd0a4f28419497f9722a3daafe3b4186f6b6457e091a35050565b600054610100900460ff16611b175760405162461bcd60e51b8152600401610773906135c5565b610c42838383612225565b600054610100900460ff16611b495760405162461bcd60e51b8152600401610773906135c5565b6112176122b8565b600054610100900460ff16611b785760405162461bcd60e51b8152600401610773906135c5565b6112176122ef565b600054610100900460ff16611ba75760405162461bcd60e51b8152600401610773906135c5565b611baf611b22565b611217612326565b600054610100900460ff16611bde5760405162461bcd60e51b8152600401610773906135c5565b6116788161235d565b600054610100900460ff16611c0e5760405162461bcd60e51b8152600401610773906135c5565b6108c782826123b9565b600054610100900460ff16611c3f5760405162461bcd60e51b8152600401610773906135c5565b6108c78282612449565b600054610100900460ff16611c705760405162461bcd60e51b8152600401610773906135c5565b611678816124ae565b611c8382826112d3565b156108c75760008281526003602090815260408083206001600160a01b03851684529091529020805460ff19169055611cba6117e9565b6001600160a01b0316816001600160a01b0316837ff6391f5c32d9c69d2a47ea670b442974b53935d1edc7fd64eb21e047a839171b60405160405180910390a45050565b60005b81518110156108c7576000828281518110611d1e57611d1e613436565b60200260200101519050612710816040015161ffff1610611d515760405162461bcd60e51b815260040161077390613610565b60208101516001600160a01b0316611dca578051600090815260146020526040902080546001600160b01b03191690558051611d8f906015906124d5565b5080516040519081527fa2870857763bd9ae76c957f869f16b31c18dd3bb4c7b4d3a4496dc5c57c657f99060200160405180910390a1611e92565b6040805180820182526020808401516001600160a01b0390811683528484015161ffff90811683850190815286516000908152601490945294909220925183549451909216600160a01b026001600160b01b03199094169116179190911790558051611e38906015906124e1565b50805160208083015160408085015181519485526001600160a01b039092169284019290925261ffff1682820152517f389b70fb0887f01e83784eb1c4c589f740eca53b00ed0f45e41db5d079719abb9181900360600190a15b5080611e9d8161344c565b915050611d01565b6000610656825490565b6060600f805461158c906134e6565b604051630a85bd0160e11b81526000906001600160a01b0385169063150b7a0290611ef3903390899088908890600401613635565b602060405180830381600087803b158015611f0d57600080fd5b505af1925050508015611f3d575060408051601f3d908101601f19168201909252611f3a91810190613672565b60015b611f98573d808015611f6b576040519150601f19603f3d011682016040523d82523d6000602084013e611f70565b606091505b508051611f90576040516368d2bf6b60e11b815260040160405180910390fd5b805181602001fd5b6001600160e01b031916630a85bd0160e11b1490505b949350505050565b6060610656826124ed565b6017546000906001600160a01b0316156120755760175460405163c455279160e01b81526001600160a01b0391821691841690829063c45527919061200a908890600401612d1c565b60206040518083038186803b15801561202257600080fd5b505afa158015612036573d6000803e3d6000fd5b505050506040513d601f19601f8201168201806040525081019061205a919061368f565b6001600160a01b03161415612073576001915050610656565b505b6018546001600160a01b0316156120a4576018546001600160a01b03838116911614156120a457506001610656565b6001600160a01b038084166000908152600b602090815260408083209386168352929052205460ff1661161b565b612710816020015161ffff16106120fb5760405162461bcd60e51b815260040161077390613610565b60408051808201825282516001600160a01b03168082526020808501805161ffff1691909301819052601380546001600160b01b031916909217600160a01b9091021790558251905191517f2c5ea6e4103e78cb101e796fb2dace540362fc542cbff5145eaa24af7dd8fe419261217292916131e8565b60405180910390a150565b600082600001828154811061219457612194613436565b9060005260206000200154905092915050565b6108c782826040518060200160405280600081525061265c565b6121cb82826112d3565b6108c7576121e3816001600160a01b031660146126c2565b6121ee8360206126c2565b6040516020016121ff9291906136ac565b60408051601f198184030181529082905262461bcd60e51b825261077391600401612d09565b600054610100900460ff1661224c5760405162461bcd60e51b8152600401610773906135c5565b825161225f90600e906020860190612bcc565b50815161227390600f906020850190612bcc565b508051612287906010906020840190612bcc565b50612298633d96f4ff60e11b61285d565b6122a86380ac58cd60e01b61285d565b610c42635b5e139f60e01b61285d565b600054610100900460ff166122df5760405162461bcd60e51b8152600401610773906135c5565b611217632929b36760e11b61285d565b600054610100900460ff166123165760405162461bcd60e51b8152600401610773906135c5565b611217631aa1577160e11b61285d565b600054610100900460ff1661234d5760405162461bcd60e51b8152600401610773906135c5565b611217630d169dbf60e31b61285d565b600054610100900460ff166123845760405162461bcd60e51b8152600401610773906135c5565b600c8190556123996330f487b560e11b61285d565b6123a96380ac58cd60e01b61285d565b61167863184371e560e31b61285d565b600054610100900460ff166123e05760405162461bcd60e51b8152600401610773906135c5565b6123f0633a47bf5160e11b61285d565b61240063152a902d60e11b61285d565b61241063c69dbd8f60e01b61285d565b61242063656cb66560e11b61285d565b604080518082019091526001600160a01b038316815261ffff82166020820152610c42816120d2565b600054610100900460ff166124705760405162461bcd60e51b8152600401610773906135c5565b612480638d29851f60e01b61285d565b601780546001600160a01b039384166001600160a01b03199182161790915560188054929093169116179055565b600054610100900460ff1661155b5760405162461bcd60e51b8152600401610773906135c5565b600061161b83836128de565b600061161b83836129d1565b60606124f8826117b4565b61255e5760405162461bcd60e51b815260206004820152603160248201527f45524337323155524953746f726167653a2055524920717565727920666f72206044820152703737b732bc34b9ba32b73a103a37b5b2b760791b6064820152608401610773565b60008281526012602052604081208054612577906134e6565b80601f01602080910402602001604051908101604052809291908181526020018280546125a3906134e6565b80156125f05780601f106125c5576101008083540402835291602001916125f0565b820191906000526020600020905b8154815290600101906020018083116125d357829003601f168201915b50505050509050600061260e60408051602081019091526000815290565b9050805160001415612621575092915050565b81511561265357808260405160200161263b92919061371b565b60405160208183030381529060405292505050919050565b611fae84612a20565b6126668383612ab1565b6001600160a01b0383163b15610c42576004548281035b6126906000868380600101945086611ebe565b6126ad576040516368d2bf6b60e11b815260040160405180910390fd5b81811061267d578160045414610c1f57600080fd5b606060006126d18360026133dd565b6126dc90600261341e565b6001600160401b038111156126f3576126f3612d99565b6040519080825280601f01601f19166020018201604052801561271d576020820181803683370190505b509050600360fc1b8160008151811061273857612738613436565b60200101906001600160f81b031916908160001a905350600f60fb1b8160018151811061276757612767613436565b60200101906001600160f81b031916908160001a905350600061278b8460026133dd565b61279690600161341e565b90505b600181111561280e576f181899199a1a9b1b9c1cb0b131b232b360811b85600f16601081106127ca576127ca613436565b1a60f81b8282815181106127e0576127e0613436565b60200101906001600160f81b031916908160001a90535060049490941c936128078161374a565b9050612799565b50831561161b5760405162461bcd60e51b815260206004820181905260248201527f537472696e67733a20686578206c656e67746820696e73756666696369656e746044820152606401610773565b6001600160e01b031980821614156128b65760405162461bcd60e51b815260206004820152601c60248201527b115490cc4d8d4e881a5b9d985b1a59081a5b9d195c999858d9481a5960221b6044820152606401610773565b6001600160e01b0319166000908152600160208190526040909120805460ff19169091179055565b600081815260018301602052604081205480156129c7576000612902600183613761565b855490915060009061291690600190613761565b905081811461297b57600086600001828154811061293657612936613436565b906000526020600020015490508087600001848154811061295957612959613436565b6000918252602080832090910192909255918252600188019052604090208390555b855486908061298c5761298c613778565b600190038181906000526020600020016000905590558560010160008681526020019081526020016000206000905560019350505050610656565b6000915050610656565b6000818152600183016020526040812054612a1857508154600181810184556000848152602080822090930184905584548482528286019093526040902091909155610656565b506000610656565b6060612a2b826117b4565b612a4857604051630a14c4b560e41b815260040160405180910390fd5b6000612a5f60408051602081019091526000815290565b9050805160001415612a80576040518060200160405280600081525061161b565b80612a8a84612b7d565b604051602001612a9b92919061371b565b6040516020818303038152906040529392505050565b6004546001600160a01b038316612ada57604051622e076360e81b815260040160405180910390fd5b81612af85760405163b562e8dd60e01b815260040160405180910390fd5b6001600160a01b038316600090815260096020526040902080546001600160401b018402019055612b2f836001841460e11b6118e7565b600082815260086020526040902055808281015b6040516001830192906001600160a01b038716906000906000805160206137af833981519152908290a4808210612b435760045550505050565b604080516080810191829052607f0190826030600a8206018353600a90045b8015612bba57600183039250600a81066030018353600a9004612b9c565b50819003601f19909101908152919050565b828054612bd8906134e6565b90600052602060002090601f016020900481019282612bfa5760008555612c40565b82601f10612c1357805160ff1916838001178555612c40565b82800160010185558215612c40579182015b82811115612c40578251825591602001919060010190612c25565b50612c4c929150612c50565b5090565b5b80821115612c4c5760008155600101612c51565b6001600160e01b03198116811461167857600080fd5b600060208284031215612c8d57600080fd5b813561161b81612c65565b600060208284031215612caa57600080fd5b5035919050565b60005b83811015612ccc578181015183820152602001612cb4565b838111156114345750506000910152565b60008151808452612cf5816020860160208601612cb1565b601f01601f19169290920160200192915050565b60208152600061161b6020830184612cdd565b6001600160a01b0391909116815260200190565b6001600160a01b038116811461167857600080fd5b8035611a8681612d30565b600060208284031215612d6257600080fd5b813561161b81612d30565b60008060408385031215612d8057600080fd5b8235612d8b81612d30565b946020939093013593505050565b634e487b7160e01b600052604160045260246000fd5b60405161012081016001600160401b0381118282101715612dd257612dd2612d99565b60405290565b604051601f8201601f191681016001600160401b0381118282101715612e0057612e00612d99565b604052919050565b60006001600160401b03831115612e2157612e21612d99565b612e34601f8401601f1916602001612dd8565b9050828152838383011115612e4857600080fd5b828260208301376000602084830101529392505050565b600082601f830112612e7057600080fd5b61161b83833560208501612e08565b60008060408385031215612e9257600080fd5b8235915060208301356001600160401b03811115612eaf57600080fd5b612ebb85828601612e5f565b9150509250929050565b600080600060608486031215612eda57600080fd5b8335612ee581612d30565b92506020840135612ef581612d30565b929592945050506040919091013590565b60008060408385031215612f1957600080fd5b50508035926020909101359150565b600080600060608486031215612f3d57600080fd5b8335612f4881612d30565b9250602084810135925060408501356001600160401b0380821115612f6c57600080fd5b818701915087601f830112612f8057600080fd5b813581811115612f9257612f92612d99565b8060051b612fa1858201612dd8565b918252838101850191858101908b841115612fbb57600080fd5b86860192505b83831015612ff757823585811115612fd95760008081fd5b612fe78d89838a0101612e5f565b8352509186019190860190612fc1565b809750505050505050509250925092565b6000806040838503121561301b57600080fd5b82359150602083013561302d81612d30565b809150509250929050565b803561ffff81168114611a8657600080fd5b6000806040838503121561305d57600080fd5b82356001600160401b038082111561307457600080fd5b90840190610120828703121561308957600080fd5b613091612daf565b8235828111156130a057600080fd5b6130ac88828601612e5f565b8252506020830135828111156130c157600080fd5b6130cd88828601612e5f565b6020830152506040830135828111156130e557600080fd5b6130f188828601612e5f565b6040830152506060830135606082015261310d60808401612d45565b608082015261311e60a08401613038565b60a082015261312f60c08401612d45565b60c082015261314060e08401612d45565b60e08201526101009150613155828401612d45565b8282015280945050505061316b60208401612d45565b90509250929050565b6000806020838503121561318757600080fd5b82356001600160401b038082111561319e57600080fd5b818501915085601f8301126131b257600080fd5b8135818111156131c157600080fd5b8660206060830285010111156131d657600080fd5b60209290920196919550909350505050565b6001600160a01b0392909216825261ffff16602082015260400190565b60006020828403121561321757600080fd5b81356001600160401b0381111561322d57600080fd5b611fae84828501612e5f565b6000806040838503121561324c57600080fd5b823561325781612d30565b91506020830135801515811461302d57600080fd5b6000806000806080858703121561328257600080fd5b843561328d81612d30565b9350602085013561329d81612d30565b92506040850135915060608501356001600160401b038111156132bf57600080fd5b8501601f810187136132d057600080fd5b6132df87823560208401612e08565b91505092959194509250565b602080825282518282018190526000919060409081850190868401855b8281101561333f57815180516001600160a01b031685528601516001600160601b0316868501529284019290850190600101613308565b5091979650505050505050565b6000806040838503121561335f57600080fd5b823561336a81612d30565b9150602083013561302d81612d30565b60006040828403121561338c57600080fd5b50919050565b6020808252818101527f4f776e61626c653a2063616c6c6572206973206e6f7420746865206f776e6572604082015260600190565b634e487b7160e01b600052601160045260246000fd5b60008160001904831182151516156133f7576133f76133c7565b500290565b60008261341957634e487b7160e01b600052601260045260246000fd5b500490565b60008219821115613431576134316133c7565b500190565b634e487b7160e01b600052603260045260246000fd5b6000600019821415613460576134606133c7565b5060010190565b60006060828403121561347957600080fd5b604051606081016001600160401b038111828210171561349b5761349b612d99565b6040528235815260208301356134b081612d30565b60208201526134c160408401613038565b60408201529392505050565b6000602082840312156134df57600080fd5b5051919050565b600181811c908216806134fa57607f821691505b6020821081141561338c57634e487b7160e01b600052602260045260246000fd5b60006040828403121561352d57600080fd5b604080519081016001600160401b038111828210171561354f5761354f612d99565b604052823561355d81612d30565b815261356b60208401613038565b60208201529392505050565b6020808252602e908201527f496e697469616c697a61626c653a20636f6e747261637420697320616c72656160408201526d191e481a5b9a5d1a585b1a5e995960921b606082015260800190565b6020808252602b908201527f496e697469616c697a61626c653a20636f6e7472616374206973206e6f74206960408201526a6e697469616c697a696e6760a81b606082015260800190565b6020808252600b908201526a496e76616c69642062707360a81b604082015260600190565b6001600160a01b038581168252841660208201526040810183905260806060820181905260009061366890830184612cdd565b9695505050505050565b60006020828403121561368457600080fd5b815161161b81612c65565b6000602082840312156136a157600080fd5b815161161b81612d30565b76020b1b1b2b9b9a1b7b73a3937b61d1030b1b1b7bab73a1604d1b8152600083516136de816017850160208801612cb1565b7001034b99036b4b9b9b4b733903937b6329607d1b601791840191820152835161370f816028840160208801612cb1565b01602801949350505050565b6000835161372d818460208801612cb1565b835190830190613741818360208801612cb1565b01949350505050565b600081613759576137596133c7565b506000190190565b600082821015613773576137736133c7565b500390565b634e487b7160e01b600052603160045260246000fdfe9f2df0fed2c77648de5860a4cc508cd0818c85b8b8a1ab4ceeef8d981c8956a6ddf252ad1be2c89b69c2b068fc378daa952ba7f163c4a11628f55a4df523b3efa26469706673582212204f086be4c25e673e85aef5eb9e8127538b9f1f0f01c2def3a8487f2a1f9110bf64736f6c63430008090033",
  "devdoc": {
    "kind": "dev",
    "methods": {
      "approve(address,uint256)": {
        "details": "See {IERC721-approve}."
      },
      "balanceOf(address)": {
        "details": "See {IERC721-balanceOf}."
      },
      "getApproved(uint256)": {
        "details": "See {IERC721-getApproved}."
      },
      "getRoleAdmin(bytes32)": {
        "details": "Returns the admin role that controls `role`. See {grantRole} and {revokeRole}. To change a role's admin, use {_setRoleAdmin}."
      },
      "getTokenRoyaltiesCount()": {
        "details": "See {IEIP2981RoyaltyOverride-getTokenRoyaltiesCount}."
      },
      "getTokenRoyaltyByIndex(uint256)": {
        "details": "See {IEIP2981RoyaltyOverride-getTokenRoyaltyByIndex}."
      },
      "grantRole(bytes32,address)": {
        "details": "Grants `role` to `account`. If `account` had not been already granted `role`, emits a {RoleGranted} event. Requirements: - the caller must have ``role``'s admin role."
      },
      "hasRole(bytes32,address)": {
        "details": "Returns `true` if `account` has been granted `role`."
      },
      "owner()": {
        "details": "Returns the address of the current owner."
      },
      "ownerOf(uint256)": {
        "details": "See {IERC721-ownerOf}."
      },
      "renounceOwnership()": {
        "details": "Leaves the contract without owner. It will not be possible to call `onlyOwner` functions anymore. Can only be called by the current owner. NOTE: Renouncing ownership will leave the contract without an owner, thereby removing any functionality that is only available to the owner."
      },
      "renounceRole(bytes32,address)": {
        "details": "Revokes `role` from the calling account. Roles are often managed via {grantRole} and {revokeRole}: this function's purpose is to provide a mechanism for accounts to lose their privileges if they are compromised (such as when a trusted device is misplaced). If the calling account had been revoked `role`, emits a {RoleRevoked} event. Requirements: - the caller must be `account`."
      },
      "revokeRole(bytes32,address)": {
        "details": "Revokes `role` from `account`. If `account` had been granted `role`, emits a {RoleRevoked} event. Requirements: - the caller must have ``role``'s admin role."
      },
      "royaltyInfo(uint256,uint256)": {
        "details": "See {IEIP2981RoyaltyOverride-royaltyInfo}."
      },
      "safeTransferFrom(address,address,uint256)": {
        "details": "See {IERC721-safeTransferFrom}."
      },
      "safeTransferFrom(address,address,uint256,bytes)": {
        "details": "See {IERC721-safeTransferFrom}."
      },
      "setApprovalForAll(address,bool)": {
        "details": "See {IERC721-setApprovalForAll}."
      },
      "totalSupply()": {
        "details": "Returns the total number of tokens in existence. Burned tokens will reduce the count. To get the total number of tokens minted, please see `_totalMinted`."
      },
      "transferFrom(address,address,uint256)": {
        "details": "Transfers `tokenId` from `from` to `to`. Requirements: - `to` cannot be the zero address. - `tokenId` token must be owned by `from`. Emits a {Transfer} event."
      },
      "transferOwnership(address)": {
        "details": "Transfers ownership of the contract to a new account (`newOwner`). Can only be called by the current owner."
      }
    },
    "version": 1
  },
  "userdoc": {
    "errors": {
      "ApprovalCallerNotOwnerNorApproved()": [
        {
          "notice": "The caller must own the token or be an approved operator."
        }
      ],
      "ApprovalQueryForNonexistentToken()": [
        {
          "notice": "The token does not exist."
        }
      ],
      "ApproveToCaller()": [
        {
          "notice": "The caller cannot approve to their own address."
        }
      ],
      "BalanceQueryForZeroAddress()": [
        {
          "notice": "Cannot query the balance for the zero address."
        }
      ],
      "MintERC2309QuantityExceedsLimit()": [
        {
          "notice": "The `quantity` minted with ERC2309 exceeds the safety limit."
        }
      ],
      "MintToZeroAddress()": [
        {
          "notice": "Cannot mint to the zero address."
        }
      ],
      "MintZeroQuantity()": [
        {
          "notice": "The quantity of tokens minted must be more than zero."
        }
      ],
      "OwnerQueryForNonexistentToken()": [
        {
          "notice": "The token does not exist."
        }
      ],
      "OwnershipNotInitializedForExtraData()": [
        {
          "notice": "The `extraData` cannot be set on an unintialized ownership slot."
        }
      ],
      "TransferCallerNotOwnerNorApproved()": [
        {
          "notice": "The caller must own the token or be an approved operator."
        }
      ],
      "TransferFromIncorrectOwner()": [
        {
          "notice": "The token must be owned by `from`."
        }
      ],
      "TransferToNonERC721ReceiverImplementer()": [
        {
          "notice": "Cannot safely transfer to a contract that does not implement the ERC721Receiver interface."
        }
      ],
      "TransferToZeroAddress()": [
        {
          "notice": "Cannot transfer to the zero address."
        }
      ],
      "URIQueryForNonexistentToken()": [
        {
          "notice": "The token does not exist."
        }
      ]
    },
    "kind": "user",
    "methods": {
      "isApprovedForAll(address,address)": {
        "notice": "Override isApprovedForAll to whitelist user's OpenSea proxy accounts to enable gas-less listings."
      }
    },
    "version": 1
  },
  "storageLayout": {
    "storage": [
      {
        "astId": 886,
        "contract": "contracts/collections/ERC721A/presets/ERC721AOneOfOneCollection.sol:ERC721AOneOfOneCollection",
        "label": "_initialized",
        "offset": 0,
        "slot": "0",
        "type": "t_uint8"
      },
      {
        "astId": 889,
        "contract": "contracts/collections/ERC721A/presets/ERC721AOneOfOneCollection.sol:ERC721AOneOfOneCollection",
        "label": "_initializing",
        "offset": 1,
        "slot": "0",
        "type": "t_bool"
      },
      {
        "astId": 782,
        "contract": "contracts/collections/ERC721A/presets/ERC721AOneOfOneCollection.sol:ERC721AOneOfOneCollection",
        "label": "_owner",
        "offset": 2,
        "slot": "0",
        "type": "t_address"
      },
      {
        "astId": 4693,
        "contract": "contracts/collections/ERC721A/presets/ERC721AOneOfOneCollection.sol:ERC721AOneOfOneCollection",
        "label": "_supportedInterfaces",
        "offset": 0,
        "slot": "1",
        "type": "t_mapping(t_bytes4,t_bool)"
      },
      {
        "astId": 11649,
        "contract": "contracts/collections/ERC721A/presets/ERC721AOneOfOneCollection.sol:ERC721AOneOfOneCollection",
        "label": "_trustedForwarder",
        "offset": 0,
        "slot": "2",
        "type": "t_address"
      },
      {
        "astId": 406,
        "contract": "contracts/collections/ERC721A/presets/ERC721AOneOfOneCollection.sol:ERC721AOneOfOneCollection",
        "label": "_roles",
        "offset": 0,
        "slot": "3",
        "type": "t_mapping(t_bytes32,t_struct(RoleData)401_storage)"
      },
      {
        "astId": 15651,
        "contract": "contracts/collections/ERC721A/presets/ERC721AOneOfOneCollection.sol:ERC721AOneOfOneCollection",
        "label": "_currentIndex",
        "offset": 0,
        "slot": "4",
        "type": "t_uint256"
      },
      {
        "astId": 15653,
        "contract": "contracts/collections/ERC721A/presets/ERC721AOneOfOneCollection.sol:ERC721AOneOfOneCollection",
        "label": "_burnCounter",
        "offset": 0,
        "slot": "5",
        "type": "t_uint256"
      },
      {
        "astId": 15655,
        "contract": "contracts/collections/ERC721A/presets/ERC721AOneOfOneCollection.sol:ERC721AOneOfOneCollection",
        "label": "_name",
        "offset": 0,
        "slot": "6",
        "type": "t_string_storage"
      },
      {
        "astId": 15657,
        "contract": "contracts/collections/ERC721A/presets/ERC721AOneOfOneCollection.sol:ERC721AOneOfOneCollection",
        "label": "_symbol",
        "offset": 0,
        "slot": "7",
        "type": "t_string_storage"
      },
      {
        "astId": 15661,
        "contract": "contracts/collections/ERC721A/presets/ERC721AOneOfOneCollection.sol:ERC721AOneOfOneCollection",
        "label": "_packedOwnerships",
        "offset": 0,
        "slot": "8",
        "type": "t_mapping(t_uint256,t_uint256)"
      },
      {
        "astId": 15665,
        "contract": "contracts/collections/ERC721A/presets/ERC721AOneOfOneCollection.sol:ERC721AOneOfOneCollection",
        "label": "_packedAddressData",
        "offset": 0,
        "slot": "9",
        "type": "t_mapping(t_address,t_uint256)"
      },
      {
        "astId": 15669,
        "contract": "contracts/collections/ERC721A/presets/ERC721AOneOfOneCollection.sol:ERC721AOneOfOneCollection",
        "label": "_tokenApprovals",
        "offset": 0,
        "slot": "10",
        "type": "t_mapping(t_uint256,t_address)"
      },
      {
        "astId": 15675,
        "contract": "contracts/collections/ERC721A/presets/ERC721AOneOfOneCollection.sol:ERC721AOneOfOneCollection",
        "label": "_operatorApprovals",
        "offset": 0,
        "slot": "11",
        "type": "t_mapping(t_address,t_mapping(t_address,t_bool))"
      },
      {
        "astId": 9396,
        "contract": "contracts/collections/ERC721A/presets/ERC721AOneOfOneCollection.sol:ERC721AOneOfOneCollection",
        "label": "maxSupply",
        "offset": 0,
        "slot": "12",
        "type": "t_uint256"
      },
      {
        "astId": 9398,
        "contract": "contracts/collections/ERC721A/presets/ERC721AOneOfOneCollection.sol:ERC721AOneOfOneCollection",
        "label": "maxSupplyFrozen",
        "offset": 0,
        "slot": "13",
        "type": "t_bool"
      },
      {
        "astId": 9184,
        "contract": "contracts/collections/ERC721A/presets/ERC721AOneOfOneCollection.sol:ERC721AOneOfOneCollection",
        "label": "_name",
        "offset": 0,
        "slot": "14",
        "type": "t_string_storage"
      },
      {
        "astId": 9186,
        "contract": "contracts/collections/ERC721A/presets/ERC721AOneOfOneCollection.sol:ERC721AOneOfOneCollection",
        "label": "_symbol",
        "offset": 0,
        "slot": "15",
        "type": "t_string_storage"
      },
      {
        "astId": 9188,
        "contract": "contracts/collections/ERC721A/presets/ERC721AOneOfOneCollection.sol:ERC721AOneOfOneCollection",
        "label": "_contractURI",
        "offset": 0,
        "slot": "16",
        "type": "t_string_storage"
      },
      {
        "astId": 10088,
        "contract": "contracts/collections/ERC721A/presets/ERC721AOneOfOneCollection.sol:ERC721AOneOfOneCollection",
        "label": "lastFrozenTokenId",
        "offset": 0,
        "slot": "17",
        "type": "t_uint256"
      },
      {
        "astId": 10095,
        "contract": "contracts/collections/ERC721A/presets/ERC721AOneOfOneCollection.sol:ERC721AOneOfOneCollection",
        "label": "_tokenURIs",
        "offset": 0,
        "slot": "18",
        "type": "t_mapping(t_uint256,t_string_storage)"
      },
      {
        "astId": 86,
        "contract": "contracts/collections/ERC721A/presets/ERC721AOneOfOneCollection.sol:ERC721AOneOfOneCollection",
        "label": "defaultRoyalty",
        "offset": 0,
        "slot": "19",
        "type": "t_struct(TokenRoyalty)28_storage"
      },
      {
        "astId": 91,
        "contract": "contracts/collections/ERC721A/presets/ERC721AOneOfOneCollection.sol:ERC721AOneOfOneCollection",
        "label": "_tokenRoyalties",
        "offset": 0,
        "slot": "20",
        "type": "t_mapping(t_uint256,t_struct(TokenRoyalty)28_storage)"
      },
      {
        "astId": 94,
        "contract": "contracts/collections/ERC721A/presets/ERC721AOneOfOneCollection.sol:ERC721AOneOfOneCollection",
        "label": "_tokensWithRoyalties",
        "offset": 0,
        "slot": "21",
        "type": "t_struct(UintSet)5526_storage"
      },
      {
        "astId": 9741,
        "contract": "contracts/collections/ERC721A/presets/ERC721AOneOfOneCollection.sol:ERC721AOneOfOneCollection",
        "label": "_openSeaProxyRegistryAddress",
        "offset": 0,
        "slot": "23",
        "type": "t_address"
      },
      {
        "astId": 9743,
        "contract": "contracts/collections/ERC721A/presets/ERC721AOneOfOneCollection.sol:ERC721AOneOfOneCollection",
        "label": "_openSeaExchangeAddress",
        "offset": 0,
        "slot": "24",
        "type": "t_address"
      }
    ],
    "types": {
      "t_address": {
        "encoding": "inplace",
        "label": "address",
        "numberOfBytes": "20"
      },
      "t_array(t_bytes32)dyn_storage": {
        "base": "t_bytes32",
        "encoding": "dynamic_array",
        "label": "bytes32[]",
        "numberOfBytes": "32"
      },
      "t_bool": {
        "encoding": "inplace",
        "label": "bool",
        "numberOfBytes": "1"
      },
      "t_bytes32": {
        "encoding": "inplace",
        "label": "bytes32",
        "numberOfBytes": "32"
      },
      "t_bytes4": {
        "encoding": "inplace",
        "label": "bytes4",
        "numberOfBytes": "4"
      },
      "t_mapping(t_address,t_bool)": {
        "encoding": "mapping",
        "key": "t_address",
        "label": "mapping(address => bool)",
        "numberOfBytes": "32",
        "value": "t_bool"
      },
      "t_mapping(t_address,t_mapping(t_address,t_bool))": {
        "encoding": "mapping",
        "key": "t_address",
        "label": "mapping(address => mapping(address => bool))",
        "numberOfBytes": "32",
        "value": "t_mapping(t_address,t_bool)"
      },
      "t_mapping(t_address,t_uint256)": {
        "encoding": "mapping",
        "key": "t_address",
        "label": "mapping(address => uint256)",
        "numberOfBytes": "32",
        "value": "t_uint256"
      },
      "t_mapping(t_bytes32,t_struct(RoleData)401_storage)": {
        "encoding": "mapping",
        "key": "t_bytes32",
        "label": "mapping(bytes32 => struct AccessControl.RoleData)",
        "numberOfBytes": "32",
        "value": "t_struct(RoleData)401_storage"
      },
      "t_mapping(t_bytes32,t_uint256)": {
        "encoding": "mapping",
        "key": "t_bytes32",
        "label": "mapping(bytes32 => uint256)",
        "numberOfBytes": "32",
        "value": "t_uint256"
      },
      "t_mapping(t_bytes4,t_bool)": {
        "encoding": "mapping",
        "key": "t_bytes4",
        "label": "mapping(bytes4 => bool)",
        "numberOfBytes": "32",
        "value": "t_bool"
      },
      "t_mapping(t_uint256,t_address)": {
        "encoding": "mapping",
        "key": "t_uint256",
        "label": "mapping(uint256 => address)",
        "numberOfBytes": "32",
        "value": "t_address"
      },
      "t_mapping(t_uint256,t_string_storage)": {
        "encoding": "mapping",
        "key": "t_uint256",
        "label": "mapping(uint256 => string)",
        "numberOfBytes": "32",
        "value": "t_string_storage"
      },
      "t_mapping(t_uint256,t_struct(TokenRoyalty)28_storage)": {
        "encoding": "mapping",
        "key": "t_uint256",
        "label": "mapping(uint256 => struct IEIP2981RoyaltyOverride.TokenRoyalty)",
        "numberOfBytes": "32",
        "value": "t_struct(TokenRoyalty)28_storage"
      },
      "t_mapping(t_uint256,t_uint256)": {
        "encoding": "mapping",
        "key": "t_uint256",
        "label": "mapping(uint256 => uint256)",
        "numberOfBytes": "32",
        "value": "t_uint256"
      },
      "t_string_storage": {
        "encoding": "bytes",
        "label": "string",
        "numberOfBytes": "32"
      },
      "t_struct(RoleData)401_storage": {
        "encoding": "inplace",
        "label": "struct AccessControl.RoleData",
        "members": [
          {
            "astId": 398,
            "contract": "contracts/collections/ERC721A/presets/ERC721AOneOfOneCollection.sol:ERC721AOneOfOneCollection",
            "label": "members",
            "offset": 0,
            "slot": "0",
            "type": "t_mapping(t_address,t_bool)"
          },
          {
            "astId": 400,
            "contract": "contracts/collections/ERC721A/presets/ERC721AOneOfOneCollection.sol:ERC721AOneOfOneCollection",
            "label": "adminRole",
            "offset": 0,
            "slot": "1",
            "type": "t_bytes32"
          }
        ],
        "numberOfBytes": "64"
      },
      "t_struct(Set)5068_storage": {
        "encoding": "inplace",
        "label": "struct EnumerableSet.Set",
        "members": [
          {
            "astId": 5063,
            "contract": "contracts/collections/ERC721A/presets/ERC721AOneOfOneCollection.sol:ERC721AOneOfOneCollection",
            "label": "_values",
            "offset": 0,
            "slot": "0",
            "type": "t_array(t_bytes32)dyn_storage"
          },
          {
            "astId": 5067,
            "contract": "contracts/collections/ERC721A/presets/ERC721AOneOfOneCollection.sol:ERC721AOneOfOneCollection",
            "label": "_indexes",
            "offset": 0,
            "slot": "1",
            "type": "t_mapping(t_bytes32,t_uint256)"
          }
        ],
        "numberOfBytes": "64"
      },
      "t_struct(TokenRoyalty)28_storage": {
        "encoding": "inplace",
        "label": "struct IEIP2981RoyaltyOverride.TokenRoyalty",
        "members": [
          {
            "astId": 25,
            "contract": "contracts/collections/ERC721A/presets/ERC721AOneOfOneCollection.sol:ERC721AOneOfOneCollection",
            "label": "recipient",
            "offset": 0,
            "slot": "0",
            "type": "t_address"
          },
          {
            "astId": 27,
            "contract": "contracts/collections/ERC721A/presets/ERC721AOneOfOneCollection.sol:ERC721AOneOfOneCollection",
            "label": "bps",
            "offset": 20,
            "slot": "0",
            "type": "t_uint16"
          }
        ],
        "numberOfBytes": "32"
      },
      "t_struct(UintSet)5526_storage": {
        "encoding": "inplace",
        "label": "struct EnumerableSet.UintSet",
        "members": [
          {
            "astId": 5525,
            "contract": "contracts/collections/ERC721A/presets/ERC721AOneOfOneCollection.sol:ERC721AOneOfOneCollection",
            "label": "_inner",
            "offset": 0,
            "slot": "0",
            "type": "t_struct(Set)5068_storage"
          }
        ],
        "numberOfBytes": "64"
      },
      "t_uint16": {
        "encoding": "inplace",
        "label": "uint16",
        "numberOfBytes": "2"
      },
      "t_uint256": {
        "encoding": "inplace",
        "label": "uint256",
        "numberOfBytes": "32"
      },
      "t_uint8": {
        "encoding": "inplace",
        "label": "uint8",
        "numberOfBytes": "1"
      }
    }
  }
}