{
  "address": "0x89e46AFFf387E0d4eFCADFff73CB4615a69ae47B",
  "abi": [
    {
      "inputs": [
        {
          "components": [
            {
              "internalType": "address",
              "name": "ticketToken",
              "type": "address"
            },
            {
              "internalType": "uint64",
              "name": "lockedUntilTimestamp",
              "type": "uint64"
            },
            {
              "internalType": "uint256[]",
              "name": "tokenIds",
              "type": "uint256[]"
            },
            {
              "internalType": "uint256[]",
              "name": "shares",
              "type": "uint256[]"
            }
          ],
          "internalType": "struct ERC721ShareInstantStream.Config",
          "name": "config",
          "type": "tuple"
        }
      ],
      "stateMutability": "nonpayable",
      "type": "constructor"
    },
    {
      "anonymous": false,
      "inputs": [
        {
          "indexed": false,
          "internalType": "address",
          "name": "operator",
          "type": "address"
        },
        {
          "indexed": false,
          "internalType": "address",
          "name": "beneficiary",
          "type": "address"
        },
        {
          "indexed": false,
          "internalType": "uint256",
          "name": "ticketTokenId",
          "type": "uint256"
        },
        {
          "indexed": false,
          "internalType": "address",
          "name": "claimToken",
          "type": "address"
        },
        {
          "indexed": false,
          "internalType": "uint256",
          "name": "releasedAmount",
          "type": "uint256"
        }
      ],
      "name": "Claim",
      "type": "event"
    },
    {
      "anonymous": false,
      "inputs": [
        {
          "indexed": false,
          "internalType": "address",
          "name": "operator",
          "type": "address"
        },
        {
          "indexed": false,
          "internalType": "address",
          "name": "beneficiary",
          "type": "address"
        },
        {
          "indexed": false,
          "internalType": "uint256[]",
          "name": "ticketTokenIds",
          "type": "uint256[]"
        },
        {
          "indexed": false,
          "internalType": "address",
          "name": "claimToken",
          "type": "address"
        },
        {
          "indexed": false,
          "internalType": "uint256",
          "name": "releasedAmount",
          "type": "uint256"
        }
      ],
      "name": "ClaimMany",
      "type": "event"
    },
    {
      "anonymous": false,
      "inputs": [
        {
          "indexed": false,
          "internalType": "uint8",
          "name": "version",
          "type": "uint8"
        }
      ],
      "name": "Initialized",
      "type": "event"
    },
    {
      "anonymous": false,
      "inputs": [
        {
          "indexed": true,
          "internalType": "address",
          "name": "previousOwner",
          "type": "address"
        },
        {
          "indexed": true,
          "internalType": "address",
          "name": "newOwner",
          "type": "address"
        }
      ],
      "name": "OwnershipTransferred",
      "type": "event"
    },
    {
      "anonymous": false,
      "inputs": [
        {
          "indexed": false,
          "internalType": "uint256",
          "name": "tokenId",
          "type": "uint256"
        },
        {
          "indexed": false,
          "internalType": "uint256",
          "name": "prevShares",
          "type": "uint256"
        },
        {
          "indexed": false,
          "internalType": "uint256",
          "name": "newShares",
          "type": "uint256"
        }
      ],
      "name": "SharesUpdated",
      "type": "event"
    },
    {
      "inputs": [
        {
          "internalType": "uint256",
          "name": "ticketTokenId",
          "type": "uint256"
        }
      ],
      "name": "claim",
      "outputs": [],
      "stateMutability": "nonpayable",
      "type": "function"
    },
    {
      "inputs": [
        {
          "internalType": "uint256[]",
          "name": "ticketTokenIds",
          "type": "uint256[]"
        }
      ],
      "name": "claim",
      "outputs": [],
      "stateMutability": "nonpayable",
      "type": "function"
    },
    {
      "inputs": [
        {
          "internalType": "uint256",
          "name": "ticketTokenId",
          "type": "uint256"
        },
        {
          "internalType": "address",
          "name": "claimToken",
          "type": "address"
        }
      ],
      "name": "claim",
      "outputs": [],
      "stateMutability": "nonpayable",
      "type": "function"
    },
    {
      "inputs": [
        {
          "internalType": "uint256[]",
          "name": "ticketTokenIds",
          "type": "uint256[]"
        },
        {
          "internalType": "address",
          "name": "claimToken",
          "type": "address"
        },
        {
          "internalType": "address",
          "name": "owner",
          "type": "address"
        }
      ],
      "name": "claim",
      "outputs": [],
      "stateMutability": "nonpayable",
      "type": "function"
    },
    {
      "inputs": [
        {
          "internalType": "uint256",
          "name": "",
          "type": "uint256"
        },
        {
          "internalType": "address",
          "name": "",
          "type": "address"
        }
      ],
      "name": "entitlements",
      "outputs": [
        {
          "internalType": "uint256",
          "name": "totalClaimed",
          "type": "uint256"
        },
        {
          "internalType": "uint256",
          "name": "lastClaimedAt",
          "type": "uint256"
        }
      ],
      "stateMutability": "view",
      "type": "function"
    },
    {
      "inputs": [
        {
          "internalType": "uint256[]",
          "name": "_tokenIds",
          "type": "uint256[]"
        }
      ],
      "name": "getSharesByTokens",
      "outputs": [
        {
          "internalType": "uint256[]",
          "name": "",
          "type": "uint256[]"
        }
      ],
      "stateMutability": "view",
      "type": "function"
    },
    {
      "inputs": [],
      "name": "hasERC721InstantReleaseExtension",
      "outputs": [
        {
          "internalType": "bool",
          "name": "",
          "type": "bool"
        }
      ],
      "stateMutability": "pure",
      "type": "function"
    },
    {
      "inputs": [],
      "name": "hasERC721ShareSplitExtension",
      "outputs": [
        {
          "internalType": "bool",
          "name": "",
          "type": "bool"
        }
      ],
      "stateMutability": "pure",
      "type": "function"
    },
    {
      "inputs": [
        {
          "components": [
            {
              "internalType": "address",
              "name": "ticketToken",
              "type": "address"
            },
            {
              "internalType": "uint64",
              "name": "lockedUntilTimestamp",
              "type": "uint64"
            },
            {
              "internalType": "uint256[]",
              "name": "tokenIds",
              "type": "uint256[]"
            },
            {
              "internalType": "uint256[]",
              "name": "shares",
              "type": "uint256[]"
            }
          ],
          "internalType": "struct ERC721ShareInstantStream.Config",
          "name": "config",
          "type": "tuple"
        }
      ],
      "name": "initialize",
      "outputs": [],
      "stateMutability": "nonpayable",
      "type": "function"
    },
    {
      "inputs": [
        {
          "internalType": "uint64",
          "name": "newValue",
          "type": "uint64"
        }
      ],
      "name": "lockUntil",
      "outputs": [],
      "stateMutability": "nonpayable",
      "type": "function"
    },
    {
      "inputs": [],
      "name": "lockedUntilTimestamp",
      "outputs": [
        {
          "internalType": "uint64",
          "name": "",
          "type": "uint64"
        }
      ],
      "stateMutability": "view",
      "type": "function"
    },
    {
      "inputs": [],
      "name": "name",
      "outputs": [
        {
          "internalType": "string",
          "name": "",
          "type": "string"
        }
      ],
      "stateMutability": "view",
      "type": "function"
    },
    {
      "inputs": [],
      "name": "owner",
      "outputs": [
        {
          "internalType": "address",
          "name": "",
          "type": "address"
        }
      ],
      "stateMutability": "view",
      "type": "function"
    },
    {
      "inputs": [],
      "name": "renounceOwnership",
      "outputs": [],
      "stateMutability": "nonpayable",
      "type": "function"
    },
    {
      "inputs": [
        {
          "internalType": "uint256[]",
          "name": "_tokenIds",
          "type": "uint256[]"
        },
        {
          "internalType": "uint256[]",
          "name": "_shares",
          "type": "uint256[]"
        }
      ],
      "name": "setSharesForTokens",
      "outputs": [],
      "stateMutability": "nonpayable",
      "type": "function"
    },
    {
      "inputs": [
        {
          "internalType": "uint256",
          "name": "",
          "type": "uint256"
        }
      ],
      "name": "shares",
      "outputs": [
        {
          "internalType": "uint256",
          "name": "",
          "type": "uint256"
        }
      ],
      "stateMutability": "view",
      "type": "function"
    },
    {
      "inputs": [
        {
          "internalType": "uint256[]",
          "name": "ticketTokenIds",
          "type": "uint256[]"
        },
        {
          "internalType": "address",
          "name": "claimToken",
          "type": "address"
        }
      ],
      "name": "streamClaimableAmount",
      "outputs": [
        {
          "internalType": "uint256",
          "name": "",
          "type": "uint256"
        }
      ],
      "stateMutability": "view",
      "type": "function"
    },
    {
      "inputs": [
        {
          "internalType": "uint256",
          "name": "ticketTokenId",
          "type": "uint256"
        }
      ],
      "name": "streamClaimableAmount",
      "outputs": [
        {
          "internalType": "uint256",
          "name": "",
          "type": "uint256"
        }
      ],
      "stateMutability": "view",
      "type": "function"
    },
    {
      "inputs": [
        {
          "internalType": "uint256",
          "name": "ticketTokenId",
          "type": "uint256"
        },
        {
          "internalType": "address",
          "name": "claimToken",
          "type": "address"
        }
      ],
      "name": "streamClaimableAmount",
      "outputs": [
        {
          "internalType": "uint256",
          "name": "",
          "type": "uint256"
        }
      ],
      "stateMutability": "view",
      "type": "function"
    },
    {
      "inputs": [
        {
          "internalType": "uint256[]",
          "name": "ticketTokenIds",
          "type": "uint256[]"
        },
        {
          "internalType": "address",
          "name": "claimToken",
          "type": "address"
        }
      ],
      "name": "streamTotalClaimed",
      "outputs": [
        {
          "internalType": "uint256",
          "name": "",
          "type": "uint256"
        }
      ],
      "stateMutability": "view",
      "type": "function"
    },
    {
      "inputs": [],
      "name": "streamTotalClaimed",
      "outputs": [
        {
          "internalType": "uint256",
          "name": "",
          "type": "uint256"
        }
      ],
      "stateMutability": "view",
      "type": "function"
    },
    {
      "inputs": [
        {
          "internalType": "uint256[]",
          "name": "ticketTokenIds",
          "type": "uint256[]"
        }
      ],
      "name": "streamTotalClaimed",
      "outputs": [
        {
          "internalType": "uint256",
          "name": "",
          "type": "uint256"
        }
      ],
      "stateMutability": "view",
      "type": "function"
    },
    {
      "inputs": [
        {
          "internalType": "uint256",
          "name": "ticketTokenId",
          "type": "uint256"
        },
        {
          "internalType": "address",
          "name": "claimToken",
          "type": "address"
        }
      ],
      "name": "streamTotalClaimed",
      "outputs": [
        {
          "internalType": "uint256",
          "name": "",
          "type": "uint256"
        }
      ],
      "stateMutability": "view",
      "type": "function"
    },
    {
      "inputs": [
        {
          "internalType": "address",
          "name": "claimToken",
          "type": "address"
        }
      ],
      "name": "streamTotalClaimed",
      "outputs": [
        {
          "internalType": "uint256",
          "name": "",
          "type": "uint256"
        }
      ],
      "stateMutability": "view",
      "type": "function"
    },
    {
      "inputs": [
        {
          "internalType": "uint256",
          "name": "ticketTokenId",
          "type": "uint256"
        }
      ],
      "name": "streamTotalClaimed",
      "outputs": [
        {
          "internalType": "uint256",
          "name": "",
          "type": "uint256"
        }
      ],
      "stateMutability": "view",
      "type": "function"
    },
    {
      "inputs": [],
      "name": "streamTotalSupply",
      "outputs": [
        {
          "internalType": "uint256",
          "name": "",
          "type": "uint256"
        }
      ],
      "stateMutability": "view",
      "type": "function"
    },
    {
      "inputs": [
        {
          "internalType": "address",
          "name": "claimToken",
          "type": "address"
        }
      ],
      "name": "streamTotalSupply",
      "outputs": [
        {
          "internalType": "uint256",
          "name": "",
          "type": "uint256"
        }
      ],
      "stateMutability": "view",
      "type": "function"
    },
    {
      "inputs": [
        {
          "internalType": "bytes4",
          "name": "interfaceId",
          "type": "bytes4"
        }
      ],
      "name": "supportsInterface",
      "outputs": [
        {
          "internalType": "bool",
          "name": "",
          "type": "bool"
        }
      ],
      "stateMutability": "view",
      "type": "function"
    },
    {
      "inputs": [],
      "name": "ticketToken",
      "outputs": [
        {
          "internalType": "address",
          "name": "",
          "type": "address"
        }
      ],
      "stateMutability": "view",
      "type": "function"
    },
    {
      "inputs": [],
      "name": "totalShares",
      "outputs": [
        {
          "internalType": "uint256",
          "name": "",
          "type": "uint256"
        }
      ],
      "stateMutability": "view",
      "type": "function"
    },
    {
      "inputs": [
        {
          "internalType": "address",
          "name": "newOwner",
          "type": "address"
        }
      ],
      "name": "transferOwnership",
      "outputs": [],
      "stateMutability": "nonpayable",
      "type": "function"
    },
    {
      "inputs": [],
      "name": "version",
      "outputs": [
        {
          "internalType": "string",
          "name": "",
          "type": "string"
        }
      ],
      "stateMutability": "view",
      "type": "function"
    },
    {
      "stateMutability": "payable",
      "type": "receive"
    }
  ],
  "transactionHash": "0x5740f99b7f6ef27a576c45b802b84387cbc00dc3b10af25c9586ceef36dca4eb",
  "args": [
    {
      "ticketToken": "0x0000000000000000000000000000000000000000",
      "lockedUntilTimestamp": 0,
      "tokenIds": [],
      "shares": []
    }
  ],
  "numDeployments": 1,
  "solcInputHash": "f36bbd2d58b66b037af1b3d3cb8d4e33",
  "bytecode": "0x60806040523480156200001157600080fd5b5060405162002990380380620029908339810160408190526200003491620007bf565b600160665562000044816200004b565b50620009ab565b600062000059600162000108565b9050801562000072576000805461ff0019166101001790555b6200007c620001b5565b62000086620001e1565b8151602083015162000099919062000215565b620000a362000255565b620000bd826040015183606001516200029360201b60201c565b801562000104576000805461ff0019169055604051600181527f7f26b83ff96e1f2b6a682f133852f6798a09c465da95921460cefb38474024989060200160405180910390a15b5050565b60008054610100900460ff161562000171578160ff1660011480156200014157506200013f30620002d360201b6200131e1760201c565b155b620001695760405162461bcd60e51b8152600401620001609062000893565b60405180910390fd5b506000919050565b60005460ff8084169116106200019b5760405162461bcd60e51b8152600401620001609062000893565b506000805460ff191660ff92909216919091179055600190565b600054610100900460ff16620001df5760405162461bcd60e51b81526004016200016090620008e1565b565b600054610100900460ff166200020b5760405162461bcd60e51b81526004016200016090620008e1565b620001df620002e2565b600054610100900460ff166200023f5760405162461bcd60e51b81526004016200016090620008e1565b62000249620001b5565b62000104828262000317565b600054610100900460ff166200027f5760405162461bcd60e51b81526004016200016090620008e1565b62000289620001b5565b620001df62000381565b600054610100900460ff16620002bd5760405162461bcd60e51b81526004016200016090620008e1565b620002c7620001b5565b620001048282620003bd565b6001600160a01b03163b151590565b600054610100900460ff166200030c5760405162461bcd60e51b81526004016200016090620008e1565b620001df3362000405565b600054610100900460ff16620003415760405162461bcd60e51b81526004016200016090620008e1565b606780546001600160401b038316600160a01b026001600160e01b03199091166001600160a01b0385161717905562000104631ba050e960e21b62000457565b600054610100900460ff16620003ab5760405162461bcd60e51b81526004016200016090620008e1565b620001df631259990960e01b62000457565b600054610100900460ff16620003e75760405162461bcd60e51b81526004016200016090620008e1565b620003f38282620004db565b620001046333c7a33f60e11b62000457565b603480546001600160a01b038381166001600160a01b0319831681179093556040519116919082907f8be0079c531659141344cd1fd0a4f28419497f9722a3daafe3b4186f6b6457e090600090a35050565b6001600160e01b03198082161415620004b35760405162461bcd60e51b815260206004820152601c60248201527f4552433136353a20696e76616c696420696e7465726661636520696400000000604482015260640162000160565b6001600160e01b0319166000908152600160208190526040909120805460ff19169091179055565b6034546001600160a01b03163314620005375760405162461bcd60e51b815260206004820181905260248201527f4f776e61626c653a2063616c6c6572206973206e6f7420746865206f776e6572604482015260640162000160565b81518151146200058a5760405162461bcd60e51b815260206004820152601460248201527f53545245414d2f415247535f4d49534d41544348000000000000000000000000604482015260640162000160565b60675442600160a01b9091046001600160401b031610620005ee5760405162461bcd60e51b815260206004820152601460248201527f53545245414d2f434f4e4649475f4c4f434b4544000000000000000000000000604482015260640162000160565b60005b81518110156200065a57620006458382815181106200061457620006146200092c565b60200260200101518383815181106200063157620006316200092c565b60200260200101516200065f60201b60201c565b80620006518162000958565b915050620005f1565b505050565b6000828152606b60205260409020805490829055606a5481906200068590849062000976565b62000691919062000991565b606a5560408051848152602081018390529081018390527ff81b1f9d8b5d36a5a67d13006a8b091a9b63e2a38b331d315d99c6daefd2ddcc9060600160405180910390a1505050565b634e487b7160e01b600052604160045260246000fd5b604051608081016001600160401b0381118282101715620007155762000715620006da565b60405290565b600082601f8301126200072d57600080fd5b815160206001600160401b03808311156200074c576200074c620006da565b8260051b604051601f19603f83011681018181108482111715620007745762000774620006da565b6040529384528581018301938381019250878511156200079357600080fd5b83870191505b84821015620007b45781518352918301919083019062000799565b979650505050505050565b600060208284031215620007d257600080fd5b81516001600160401b0380821115620007ea57600080fd5b9083019060808286031215620007ff57600080fd5b62000809620006f0565b82516001600160a01b03811681146200082157600080fd5b8152602083015182811681146200083757600080fd5b60208201526040830151828111156200084f57600080fd5b6200085d878286016200071b565b6040830152506060830151828111156200087657600080fd5b62000884878286016200071b565b60608301525095945050505050565b6020808252602e908201527f496e697469616c697a61626c653a20636f6e747261637420697320616c72656160408201526d191e481a5b9a5d1a585b1a5e995960921b606082015260800190565b6020808252602b908201527f496e697469616c697a61626c653a20636f6e7472616374206973206e6f74206960408201526a6e697469616c697a696e6760a81b606082015260800190565b634e487b7160e01b600052603260045260246000fd5b634e487b7160e01b600052601160045260246000fd5b60006000198214156200096f576200096f62000942565b5060010190565b600082198211156200098c576200098c62000942565b500190565b600082821015620009a657620009a662000942565b500390565b611fd580620009bb6000396000f3fe6080604052600436106101775760003560e01c80630191c0af1461019057806301ffc9a7146101c357806306fdde03146101f357806312599909146102475780631c725fdc1461025b57806325289bad1461027b5780632890d033146102ba578063379607f5146102cf5780633a98ef39146102ef5780633b3f12e2146103055780633d2dded51461032557806340f379481461036257806354fd4d501461038f57806357a858fc146103be57806357dc48c8146103eb578063676e6c9b1461043f5780636ba4c1381461045f578063715018a61461047f578063790c0c731461049457806389c6b815146104b45780638da5cb5b146104d45780638fc852b1146104f6578063968d9b2c14610516578063a1cf649314610536578063a8b46d8714610247578063c088184914610579578063d5ed4d5a146105af578063ddd5e1b2146105cf578063f2fde38b146105ef578063f389b6e41461060f578063f4415ad61461062f578063f66e38c21461066757600080fd5b3661018b576000341161018957600080fd5b005b600080fd5b34801561019c57600080fd5b506101b06101ab3660046118b2565b610687565b6040519081526020015b60405180910390f35b3480156101cf57600080fd5b506101e36101de366004611908565b6106dd565b60405190151581526020016101ba565b3480156101ff57600080fd5b5061023a6040518060400160405280601b81526020017a45524337323120536861726520496e7374616e742053747265616d60281b81525081565b6040516101ba9190611932565b34801561025357600080fd5b5060016101e3565b34801561026757600080fd5b5061018961027636600461199e565b61071d565b34801561028757600080fd5b506067546102a290600160a01b90046001600160401b031681565b6040516001600160401b0390911681526020016101ba565b3480156102c657600080fd5b506101b06107dd565b3480156102db57600080fd5b506101896102ea3660046119b9565b6107ee565b3480156102fb57600080fd5b506101b0606a5481565b34801561031157600080fd5b506101b06103203660046118b2565b6107fc565b34801561033157600080fd5b506000805260696020527f5843af22e99e7c98370145a5056245c244ce8ee852f4ef5e6d6a8e410a18cf41546101b0565b34801561036e57600080fd5b5061038261037d3660046119d2565b61087a565b6040516101ba9190611a13565b34801561039b57600080fd5b5061023a60405180604001604052806003815260200162302e3160e81b81525081565b3480156103ca57600080fd5b506101b06103d93660046119b9565b606b6020526000908152604090205481565b3480156103f757600080fd5b5061042a610406366004611a57565b60686020908152600092835260408084209091529082529020805460019091015482565b604080519283526020830191909152016101ba565b34801561044b57600080fd5b5061018961045a366004611b5f565b610931565b34801561046b57600080fd5b5061018961047a3660046119d2565b6109db565b34801561048b57600080fd5b506101896109e8565b3480156104a057600080fd5b506101b06104af366004611c13565b610a23565b3480156104c057600080fd5b506101b06104cf3660046119d2565b610af6565b3480156104e057600080fd5b506104e9610b0b565b6040516101ba9190611c30565b34801561050257600080fd5b50610189610511366004611c44565b610b1a565b34801561052257600080fd5b506101b06105313660046119b9565b610c49565b34801561054257600080fd5b506101b0610551366004611a57565b60009182526068602090815260408084206001600160a01b0393909316845291905290205490565b34801561058557600080fd5b506101b0610594366004611c13565b6001600160a01b031660009081526069602052604090205490565b3480156105bb57600080fd5b506067546104e9906001600160a01b031681565b3480156105db57600080fd5b506101896105ea366004611a57565b610c56565b3480156105fb57600080fd5b5061018961060a366004611c13565b610edb565b34801561061b57600080fd5b5061018961062a366004611ca7565b610f78565b34801561063b57600080fd5b506101b061064a3660046119b9565b600090815260686020908152604080832083805290915290205490565b34801561067357600080fd5b506101b0610682366004611a57565b6112ca565b600080805b848110156106d4576106b68686838181106106a9576106a9611d0e565b90506020020135856112ca565b6106c09083611d3a565b9150806106cc81611d52565b91505061068c565b50949350505050565b60006301ffc9a760e01b6001600160e01b03198316148061071757506001600160e01b0319821660009081526001602052604090205460ff165b92915050565b33610726610b0b565b6001600160a01b0316146107555760405162461bcd60e51b815260040161074c90611d6d565b60405180910390fd5b6067546001600160401b03600160a01b9091048116908216116107b15760405162461bcd60e51b815260206004820152601460248201527314d5149150534bd0d0539393d517d49155d2539160621b604482015260640161074c565b606780546001600160401b03909216600160a01b02600160a01b600160e01b0319909216919091179055565b60006107e96000610a23565b905090565b6107f9816000610c56565b50565b600080805b848110156106d4576068600087878481811061081f5761081f611d0e565b9050602002013581526020019081526020016000206000856001600160a01b03166001600160a01b0316815260200190815260200160002060000154826108669190611d3a565b91508061087281611d52565b915050610801565b60606000826001600160401b0381111561089657610896611a87565b6040519080825280602002602001820160405280156108bf578160200160208202803683370190505b50905060005b815181101561092957606b60008686848181106108e4576108e4611d0e565b9050602002013581526020019081526020016000205482828151811061090c5761090c611d0e565b60209081029190910101528061092181611d52565b9150506108c5565b509392505050565b600061093d600161132d565b90508015610955576000805461ff0019166101001790555b61095d6113c1565b6109656113e8565b61097782600001518360200151611417565b61097f611450565b61099182604001518360600151611487565b80156109d7576000805461ff0019169055604051600181527f7f26b83ff96e1f2b6a682f133852f6798a09c465da95921460cefb38474024989060200160405180910390a15b5050565b6109d78282600033610f78565b336109f1610b0b565b6001600160a01b031614610a175760405162461bcd60e51b815260040161074c90611d6d565b610a2160006114c0565b565b60006001600160a01b038216610a57576001600160a01b038216600090815260696020526040902054610717904790611d3a565b6040516370a0823160e01b81526001600160a01b038316906370a0823190610a83903090600401611c30565b60206040518083038186803b158015610a9b57600080fd5b505afa158015610aaf573d6000803e3d6000fd5b505050506040513d601f19601f82011682018060405250810190610ad39190611da2565b6001600160a01b0383166000908152606960205260409020546107179190611d3a565b6000610b04838360006107fc565b9392505050565b6034546001600160a01b031690565b33610b23610b0b565b6001600160a01b031614610b495760405162461bcd60e51b815260040161074c90611d6d565b8151815114610b915760405162461bcd60e51b81526020600482015260146024820152730a6a8a48a829a5e82a48ea6be9a92a69a82a886960631b604482015260640161074c565b60675442600160a01b9091046001600160401b031610610bea5760405162461bcd60e51b815260206004820152601460248201527314d5149150534bd0d3d3919251d7d313d0d2d15160621b604482015260640161074c565b60005b8151811015610c4457610c32838281518110610c0b57610c0b611d0e565b6020026020010151838381518110610c2557610c25611d0e565b6020026020010151611512565b80610c3c81611d52565b915050610bed565b505050565b60006107178260006112ca565b60026066541415610c795760405162461bcd60e51b815260040161074c90611dbb565b60026066556067546040516331a9108f60e11b8152600481018490526000916001600160a01b031690636352211e9060240160206040518083038186803b158015610cc357600080fd5b505afa158015610cd7573d6000803e3d6000fd5b505050506040513d601f19601f82011682018060405250810190610cfb9190611df2565b90506000610d0984846112ca565b905060008111610d555760405162461bcd60e51b815260206004820152601760248201527653545245414d2f4e4f5448494e475f544f5f434c41494d60481b604482015260640161074c565b60008481526068602090815260408083206001600160a01b038716845290915281208054839290610d87908490611d3a565b909155505060008481526068602090815260408083206001600160a01b0387168452825280832042600190910155606990915281208054839290610dcc908490611d3a565b90915550506001600160a01b038316610df757610df26001600160a01b03831682611589565b610e79565b60405163a9059cbb60e01b81526001600160a01b0384169063a9059cbb90610e259085908590600401611e0f565b602060405180830381600087803b158015610e3f57600080fd5b505af1158015610e53573d6000803e3d6000fd5b505050506040513d601f19601f82011682018060405250810190610e779190611e28565b505b604080513381526001600160a01b038481166020830152818301879052851660608201526080810183905290517fa2d3c4c1fc934d6d2d8f9e862df90c01ae4eb0e920cd8957d242ba26b8dc40789181900360a00190a1505060016066555050565b33610ee4610b0b565b6001600160a01b031614610f0a5760405162461bcd60e51b815260040161074c90611d6d565b6001600160a01b038116610f6f5760405162461bcd60e51b815260206004820152602660248201527f4f776e61626c653a206e6577206f776e657220697320746865207a65726f206160448201526564647265737360d01b606482015260840161074c565b6107f9816114c0565b60026066541415610f9b5760405162461bcd60e51b815260040161074c90611dbb565b60026066556000805b848110156111a757610fc1868683818110610c4457610c44611d0e565b6067546001600160a01b038085169116636352211e888885818110610fe857610fe8611d0e565b905060200201356040518263ffffffff1660e01b815260040161100d91815260200190565b60206040518083038186803b15801561102557600080fd5b505afa158015611039573d6000803e3d6000fd5b505050506040513d601f19601f8201168201806040525081019061105d9190611df2565b6001600160a01b0316146110aa5760405162461bcd60e51b815260206004820152601460248201527329aa2922a0a697a727aa2fa7232a2fa7aba722a960611b604482015260640161074c565b60006110ce8787848181106110c1576110c1611d0e565b90506020020135866112ca565b905080156111945780606860008989868181106110ed576110ed611d0e565b9050602002013581526020019081526020016000206000876001600160a01b03166001600160a01b0316815260200190815260200160002060000160008282546111379190611d3a565b909155504290506068600089898681811061115457611154611d0e565b6020908102929092013583525081810192909252604090810160009081206001600160a01b038a1682529092529020600101556111918184611d3a565b92505b508061119f81611d52565b915050610fa4565b506001600160a01b038316600090815260696020526040812080548392906111d0908490611d3a565b90915550506001600160a01b0383166111fb576111f66001600160a01b03831682611589565b61127d565b60405163a9059cbb60e01b81526001600160a01b0384169063a9059cbb906112299085908590600401611e0f565b602060405180830381600087803b15801561124357600080fd5b505af1158015611257573d6000803e3d6000fd5b505050506040513d601f19601f8201168201806040525081019061127b9190611e28565b505b7fd84a5c424a4f777bcf4f645712b8e5ebfc550f42bde444fa822fe98ee1b132b13383878787866040516112b696959493929190611e4a565b60405180910390a150506001606655505050565b6000806112e66112df6112dc85610a23565b90565b858561169f565b60008581526068602090815260408083206001600160a01b03881684529091529020549091506113169082611eae565b949350505050565b6001600160a01b03163b151590565b60008054610100900460ff161561137b578160ff16600114801561135757506113553061131e565b155b6113735760405162461bcd60e51b815260040161074c90611ec5565b506000919050565b60005460ff8084169116106113a25760405162461bcd60e51b815260040161074c90611ec5565b506000805460ff191660ff92909216919091179055600190565b919050565b600054610100900460ff16610a215760405162461bcd60e51b815260040161074c90611f13565b600054610100900460ff1661140f5760405162461bcd60e51b815260040161074c90611f13565b610a216116c8565b600054610100900460ff1661143e5760405162461bcd60e51b815260040161074c90611f13565b6114466113c1565b6109d782826116f8565b600054610100900460ff166114775760405162461bcd60e51b815260040161074c90611f13565b61147f6113c1565b610a2161175d565b600054610100900460ff166114ae5760405162461bcd60e51b815260040161074c90611f13565b6114b66113c1565b6109d78282611794565b603480546001600160a01b038381166001600160a01b0319831681179093556040519116919082907f8be0079c531659141344cd1fd0a4f28419497f9722a3daafe3b4186f6b6457e090600090a35050565b6000828152606b60205260409020805490829055606a548190611536908490611d3a565b6115409190611eae565b606a5560408051848152602081018390529081018390527ff81b1f9d8b5d36a5a67d13006a8b091a9b63e2a38b331d315d99c6daefd2ddcc9060600160405180910390a1505050565b804710156115d95760405162461bcd60e51b815260206004820152601d60248201527f416464726573733a20696e73756666696369656e742062616c616e6365000000604482015260640161074c565b6000826001600160a01b03168260405160006040518083038185875af1925050503d8060008114611626576040519150601f19603f3d011682016040523d82523d6000602084013e61162b565b606091505b5050905080610c445760405162461bcd60e51b815260206004820152603a60248201527f416464726573733a20756e61626c6520746f2073656e642076616c75652c20726044820152791958da5c1a595b9d081b585e481a185d99481c995d995c9d195960321b606482015260840161074c565b606a546000838152606b60205260408120549091906116be9086611f5e565b6113169190611f7d565b600054610100900460ff166116ef5760405162461bcd60e51b815260040161074c90611f13565b610a21336114c0565b600054610100900460ff1661171f5760405162461bcd60e51b815260040161074c90611f13565b606780546001600160401b038316600160a01b026001600160e01b03199091166001600160a01b038516171790556109d7631ba050e960e21b6117d1565b600054610100900460ff166117845760405162461bcd60e51b815260040161074c90611f13565b610a21631259990960e01b6117d1565b600054610100900460ff166117bb5760405162461bcd60e51b815260040161074c90611f13565b6117c58282610b1a565b6109d76333c7a33f60e11b5b6001600160e01b0319808216141561182a5760405162461bcd60e51b815260206004820152601c60248201527b115490cc4d8d4e881a5b9d985b1a59081a5b9d195c999858d9481a5960221b604482015260640161074c565b6001600160e01b0319166000908152600160208190526040909120805460ff19169091179055565b60008083601f84011261186457600080fd5b5081356001600160401b0381111561187b57600080fd5b6020830191508360208260051b850101111561189657600080fd5b9250929050565b6001600160a01b03811681146107f957600080fd5b6000806000604084860312156118c757600080fd5b83356001600160401b038111156118dd57600080fd5b6118e986828701611852565b90945092505060208401356118fd8161189d565b809150509250925092565b60006020828403121561191a57600080fd5b81356001600160e01b031981168114610b0457600080fd5b600060208083528351808285015260005b8181101561195f57858101830151858201604001528201611943565b81811115611971576000604083870101525b50601f01601f1916929092016040019392505050565b80356001600160401b03811681146113bc57600080fd5b6000602082840312156119b057600080fd5b610b0482611987565b6000602082840312156119cb57600080fd5b5035919050565b600080602083850312156119e557600080fd5b82356001600160401b038111156119fb57600080fd5b611a0785828601611852565b90969095509350505050565b6020808252825182820181905260009190848201906040850190845b81811015611a4b57835183529284019291840191600101611a2f565b50909695505050505050565b60008060408385031215611a6a57600080fd5b823591506020830135611a7c8161189d565b809150509250929050565b634e487b7160e01b600052604160045260246000fd5b604051608081016001600160401b0381118282101715611abf57611abf611a87565b60405290565b600082601f830112611ad657600080fd5b813560206001600160401b0380831115611af257611af2611a87565b8260051b604051601f19603f83011681018181108482111715611b1757611b17611a87565b604052938452858101830193838101925087851115611b3557600080fd5b83870191505b84821015611b5457813583529183019190830190611b3b565b979650505050505050565b600060208284031215611b7157600080fd5b81356001600160401b0380821115611b8857600080fd5b9083019060808286031215611b9c57600080fd5b611ba4611a9d565b8235611baf8161189d565b8152611bbd60208401611987565b6020820152604083013582811115611bd457600080fd5b611be087828601611ac5565b604083015250606083013582811115611bf857600080fd5b611c0487828601611ac5565b60608301525095945050505050565b600060208284031215611c2557600080fd5b8135610b048161189d565b6001600160a01b0391909116815260200190565b60008060408385031215611c5757600080fd5b82356001600160401b0380821115611c6e57600080fd5b611c7a86838701611ac5565b93506020850135915080821115611c9057600080fd5b50611c9d85828601611ac5565b9150509250929050565b60008060008060608587031215611cbd57600080fd5b84356001600160401b03811115611cd357600080fd5b611cdf87828801611852565b9095509350506020850135611cf38161189d565b91506040850135611d038161189d565b939692955090935050565b634e487b7160e01b600052603260045260246000fd5b634e487b7160e01b600052601160045260246000fd5b60008219821115611d4d57611d4d611d24565b500190565b6000600019821415611d6657611d66611d24565b5060010190565b6020808252818101527f4f776e61626c653a2063616c6c6572206973206e6f7420746865206f776e6572604082015260600190565b600060208284031215611db457600080fd5b5051919050565b6020808252601f908201527f5265656e7472616e637947756172643a207265656e7472616e742063616c6c00604082015260600190565b600060208284031215611e0457600080fd5b8151610b048161189d565b6001600160a01b03929092168252602082015260400190565b600060208284031215611e3a57600080fd5b81518015158114610b0457600080fd5b6001600160a01b038781168252868116602083015260a06040830181905282018590526000906001600160fb1b03861115611e8457600080fd5b8560051b808860c0860137600090840160c001908152941660608301525060800152949350505050565b600082821015611ec057611ec0611d24565b500390565b6020808252602e908201527f496e697469616c697a61626c653a20636f6e747261637420697320616c72656160408201526d191e481a5b9a5d1a585b1a5e995960921b606082015260800190565b6020808252602b908201527f496e697469616c697a61626c653a20636f6e7472616374206973206e6f74206960408201526a6e697469616c697a696e6760a81b606082015260800190565b6000816000190483118215151615611f7857611f78611d24565b500290565b600082611f9a57634e487b7160e01b600052601260045260246000fd5b50049056fea2646970667358221220f652808cb957f3a485f0e6606d43cdd3b7b8349fdc4410632476bdd48af8b87764736f6c63430008090033",
  "devdoc": {
    "kind": "dev",
    "methods": {
      "owner()": {
        "details": "Returns the address of the current owner."
      },
      "renounceOwnership()": {
        "details": "Leaves the contract without owner. It will not be possible to call `onlyOwner` functions anymore. Can only be called by the current owner. NOTE: Renouncing ownership will leave the contract without an owner, thereby removing any functionality that is only available to the owner."
      },
      "supportsInterface(bytes4)": {
        "details": "See {IERC165-supportsInterface}."
      },
      "transferOwnership(address)": {
        "details": "Transfers ownership of the contract to a new account (`newOwner`). Can only be called by the current owner."
      }
    },
    "version": 1
  },
  "userdoc": {
    "kind": "user",
    "methods": {},
    "version": 1
  },
  "storageLayout": {
    "storage": [
      {
        "astId": 512,
        "contract": "contracts/streams/ERC721/presets/ERC721ShareInstantStream.sol:ERC721ShareInstantStream",
        "label": "_initialized",
        "offset": 0,
        "slot": "0",
        "type": "t_uint8"
      },
      {
        "astId": 515,
        "contract": "contracts/streams/ERC721/presets/ERC721ShareInstantStream.sol:ERC721ShareInstantStream",
        "label": "_initializing",
        "offset": 1,
        "slot": "0",
        "type": "t_bool"
      },
      {
        "astId": 5244,
        "contract": "contracts/streams/ERC721/presets/ERC721ShareInstantStream.sol:ERC721ShareInstantStream",
        "label": "_supportedInterfaces",
        "offset": 0,
        "slot": "1",
        "type": "t_mapping(t_bytes4,t_bool)"
      },
      {
        "astId": 931,
        "contract": "contracts/streams/ERC721/presets/ERC721ShareInstantStream.sol:ERC721ShareInstantStream",
        "label": "__gap",
        "offset": 0,
        "slot": "2",
        "type": "t_array(t_uint256)50_storage"
      },
      {
        "astId": 392,
        "contract": "contracts/streams/ERC721/presets/ERC721ShareInstantStream.sol:ERC721ShareInstantStream",
        "label": "_owner",
        "offset": 0,
        "slot": "52",
        "type": "t_address"
      },
      {
        "astId": 504,
        "contract": "contracts/streams/ERC721/presets/ERC721ShareInstantStream.sol:ERC721ShareInstantStream",
        "label": "__gap",
        "offset": 0,
        "slot": "53",
        "type": "t_array(t_uint256)49_storage"
      },
      {
        "astId": 1675,
        "contract": "contracts/streams/ERC721/presets/ERC721ShareInstantStream.sol:ERC721ShareInstantStream",
        "label": "_status",
        "offset": 0,
        "slot": "102",
        "type": "t_uint256"
      },
      {
        "astId": 10184,
        "contract": "contracts/streams/ERC721/presets/ERC721ShareInstantStream.sol:ERC721ShareInstantStream",
        "label": "ticketToken",
        "offset": 0,
        "slot": "103",
        "type": "t_address"
      },
      {
        "astId": 10186,
        "contract": "contracts/streams/ERC721/presets/ERC721ShareInstantStream.sol:ERC721ShareInstantStream",
        "label": "lockedUntilTimestamp",
        "offset": 20,
        "slot": "103",
        "type": "t_uint64"
      },
      {
        "astId": 10193,
        "contract": "contracts/streams/ERC721/presets/ERC721ShareInstantStream.sol:ERC721ShareInstantStream",
        "label": "entitlements",
        "offset": 0,
        "slot": "104",
        "type": "t_mapping(t_uint256,t_mapping(t_address,t_struct(Entitlement)10182_storage))"
      },
      {
        "astId": 10197,
        "contract": "contracts/streams/ERC721/presets/ERC721ShareInstantStream.sol:ERC721ShareInstantStream",
        "label": "_streamTotalClaimed",
        "offset": 0,
        "slot": "105",
        "type": "t_mapping(t_address,t_uint256)"
      },
      {
        "astId": 11440,
        "contract": "contracts/streams/ERC721/presets/ERC721ShareInstantStream.sol:ERC721ShareInstantStream",
        "label": "totalShares",
        "offset": 0,
        "slot": "106",
        "type": "t_uint256"
      },
      {
        "astId": 11444,
        "contract": "contracts/streams/ERC721/presets/ERC721ShareInstantStream.sol:ERC721ShareInstantStream",
        "label": "shares",
        "offset": 0,
        "slot": "107",
        "type": "t_mapping(t_uint256,t_uint256)"
      }
    ],
    "types": {
      "t_address": {
        "encoding": "inplace",
        "label": "address",
        "numberOfBytes": "20"
      },
      "t_array(t_uint256)49_storage": {
        "base": "t_uint256",
        "encoding": "inplace",
        "label": "uint256[49]",
        "numberOfBytes": "1568"
      },
      "t_array(t_uint256)50_storage": {
        "base": "t_uint256",
        "encoding": "inplace",
        "label": "uint256[50]",
        "numberOfBytes": "1600"
      },
      "t_bool": {
        "encoding": "inplace",
        "label": "bool",
        "numberOfBytes": "1"
      },
      "t_bytes4": {
        "encoding": "inplace",
        "label": "bytes4",
        "numberOfBytes": "4"
      },
      "t_mapping(t_address,t_struct(Entitlement)10182_storage)": {
        "encoding": "mapping",
        "key": "t_address",
        "label": "mapping(address => struct ERC721MultiTokenStream.Entitlement)",
        "numberOfBytes": "32",
        "value": "t_struct(Entitlement)10182_storage"
      },
      "t_mapping(t_address,t_uint256)": {
        "encoding": "mapping",
        "key": "t_address",
        "label": "mapping(address => uint256)",
        "numberOfBytes": "32",
        "value": "t_uint256"
      },
      "t_mapping(t_bytes4,t_bool)": {
        "encoding": "mapping",
        "key": "t_bytes4",
        "label": "mapping(bytes4 => bool)",
        "numberOfBytes": "32",
        "value": "t_bool"
      },
      "t_mapping(t_uint256,t_mapping(t_address,t_struct(Entitlement)10182_storage))": {
        "encoding": "mapping",
        "key": "t_uint256",
        "label": "mapping(uint256 => mapping(address => struct ERC721MultiTokenStream.Entitlement))",
        "numberOfBytes": "32",
        "value": "t_mapping(t_address,t_struct(Entitlement)10182_storage)"
      },
      "t_mapping(t_uint256,t_uint256)": {
        "encoding": "mapping",
        "key": "t_uint256",
        "label": "mapping(uint256 => uint256)",
        "numberOfBytes": "32",
        "value": "t_uint256"
      },
      "t_struct(Entitlement)10182_storage": {
        "encoding": "inplace",
        "label": "struct ERC721MultiTokenStream.Entitlement",
        "members": [
          {
            "astId": 10179,
            "contract": "contracts/streams/ERC721/presets/ERC721ShareInstantStream.sol:ERC721ShareInstantStream",
            "label": "totalClaimed",
            "offset": 0,
            "slot": "0",
            "type": "t_uint256"
          },
          {
            "astId": 10181,
            "contract": "contracts/streams/ERC721/presets/ERC721ShareInstantStream.sol:ERC721ShareInstantStream",
            "label": "lastClaimedAt",
            "offset": 0,
            "slot": "1",
            "type": "t_uint256"
          }
        ],
        "numberOfBytes": "64"
      },
      "t_uint256": {
        "encoding": "inplace",
        "label": "uint256",
        "numberOfBytes": "32"
      },
      "t_uint64": {
        "encoding": "inplace",
        "label": "uint64",
        "numberOfBytes": "8"
      },
      "t_uint8": {
        "encoding": "inplace",
        "label": "uint8",
        "numberOfBytes": "1"
      }
    }
  }
}