{
  "address": "0xb3a572b57b116b2c0520b798F7E91486dc378f90",
  "abi": [
    {
      "inputs": [],
      "name": "Create2Error",
      "type": "error"
    },
    {
      "anonymous": false,
      "inputs": [
        {
          "indexed": true,
          "internalType": "address",
          "name": "deployer",
          "type": "address"
        },
        {
          "indexed": true,
          "internalType": "address",
          "name": "proxyAddress",
          "type": "address"
        }
      ],
      "name": "ProxyCreated",
      "type": "event"
    },
    {
      "inputs": [
        {
          "internalType": "address",
          "name": "implementation",
          "type": "address"
        },
        {
          "internalType": "bytes32",
          "name": "salt",
          "type": "bytes32"
        },
        {
          "internalType": "bytes",
          "name": "data",
          "type": "bytes"
        }
      ],
      "name": "cloneDeterministicSimple",
      "outputs": [
        {
          "internalType": "address",
          "name": "deployedProxy",
          "type": "address"
        }
      ],
      "stateMutability": "nonpayable",
      "type": "function"
    },
    {
      "inputs": [
        {
          "internalType": "address",
          "name": "implementation",
          "type": "address"
        },
        {
          "internalType": "bytes32",
          "name": "salt",
          "type": "bytes32"
        }
      ],
      "name": "predictDeterministicSimple",
      "outputs": [
        {
          "internalType": "address",
          "name": "deployedProxy",
          "type": "address"
        }
      ],
      "stateMutability": "view",
      "type": "function"
    }
  ],
  "transactionHash": "0xea567f85d9e74604b17bf360b3ecb02eaa4b0b822e1b5f1a2041d1345988b175",
  "args": [],
  "numDeployments": 1,
  "solcInputHash": "f36bbd2d58b66b037af1b3d3cb8d4e33",
  "bytecode": "0x608060405234801561001057600080fd5b5061047f806100206000396000f3fe608060405234801561001057600080fd5b50600436106100365760003560e01c806310db94b91461003b57806347791ece1461006a575b600080fd5b61004e61004936600461034c565b61007d565b6040516001600160a01b03909116815260200160405180910390f35b61004e610078366004610376565b6100bd565b60008033836040516020016100939291906103fc565b6040516020818303038152906040528051906020012090506100b584826101f6565b949350505050565b60008033856040516020016100d39291906103fc565b6040516020818303038152906040528051906020012090506100f58682610292565b915082156101b757600080836001600160a01b0316868660405161011a929190610419565b6000604051808303816000865af19150503d8060008114610157576040519150601f19603f3d011682016040523d82523d6000602084013e61015c565b606091505b5091509150816101b4578051156101765780518082602001fd5b60405162461bcd60e51b815260206004820152600f60248201526e4641494c45445f544f5f434c4f4e4560881b604482015260640160405180910390fd5b50505b6040516001600160a01b0383169033907f9678a1e87ca9f1a37dc659a97b39d812d98cd236947e1b53b3d0d6fd346acb6e90600090a350949350505050565b6000610289838330604051723d605d80600a3d3981f336603057343d52307f60681b815260008051602061042a83398151915260138201527260203da23d3df35b3d3d3d3d363d3d37363d7360681b6033820152606093841b60468201526d5af43d3d93803e605b57fd5bf3ff60901b605a820152921b6068830152607c8201526067808220609c830152605591012090565b90505b92915050565b6000604051723d605d80600a3d3981f336603057343d52307f60681b815260008051602061042a83398151915260138201527260203da23d3df35b3d3d3d3d363d3d37363d7360681b60338201528360601b60468201526c5af43d3d93803e605b57fd5bf360981b605a820152826067826000f59150506001600160a01b03811661028c5760405163380bbe1360e01b815260040160405180910390fd5b80356001600160a01b038116811461034757600080fd5b919050565b6000806040838503121561035f57600080fd5b61036883610330565b946020939093013593505050565b6000806000806060858703121561038c57600080fd5b61039585610330565b93506020850135925060408501356001600160401b03808211156103b857600080fd5b818701915087601f8301126103cc57600080fd5b8135818111156103db57600080fd5b8860208285010111156103ed57600080fd5b95989497505060200194505050565b60609290921b6001600160601b0319168252601482015260340190565b818382376000910190815291905056fe830d2d700a97af574b186c80d40429385d24241565b08a7c559ba283a964d9b1a2646970667358221220dd837a6d72d265e1186fd431cf456356b3ced3a1fffc26ff141cfbbbc43bbe8f64736f6c63430008090033",
  "devdoc": {
    "kind": "dev",
    "methods": {},
    "version": 1
  },
  "userdoc": {
    "errors": {
      "Create2Error()": [
        {
          "notice": "create2 opcode failed"
        }
      ]
    },
    "kind": "user",
    "methods": {},
    "version": 1
  },
  "storageLayout": {
    "storage": [],
    "types": null
  }
}