{
  "address": "0x2fDfA59b8e1fDDf0d075eD7c57632209Bdd2515F",
  "abi": [
    {
      "anonymous": false,
      "inputs": [
        {
          "indexed": true,
          "internalType": "address",
          "name": "previousOwner",
          "type": "address"
        },
        {
          "indexed": true,
          "internalType": "address",
          "name": "newOwner",
          "type": "address"
        }
      ],
      "name": "OwnershipTransferred",
      "type": "event"
    },
    {
      "anonymous": false,
      "inputs": [
        {
          "indexed": false,
          "internalType": "string",
          "name": "value",
          "type": "string"
        },
        {
          "indexed": true,
          "internalType": "uint256",
          "name": "tokenId",
          "type": "uint256"
        }
      ],
      "name": "URI",
      "type": "event"
    },
    {
      "inputs": [],
      "name": "lockBaseURI",
      "outputs": [],
      "stateMutability": "nonpayable",
      "type": "function"
    },
    {
      "inputs": [],
      "name": "lockFallbackURI",
      "outputs": [],
      "stateMutability": "nonpayable",
      "type": "function"
    },
    {
      "inputs": [],
      "name": "lockURISuffix",
      "outputs": [],
      "stateMutability": "nonpayable",
      "type": "function"
    },
    {
      "inputs": [
        {
          "internalType": "uint256",
          "name": "tokenId",
          "type": "uint256"
        }
      ],
      "name": "lockURIUntil",
      "outputs": [],
      "stateMutability": "nonpayable",
      "type": "function"
    },
    {
      "inputs": [
        {
          "internalType": "string",
          "name": "newBaseURI",
          "type": "string"
        }
      ],
      "name": "setBaseURI",
      "outputs": [],
      "stateMutability": "nonpayable",
      "type": "function"
    },
    {
      "inputs": [
        {
          "internalType": "string",
          "name": "newFallbackURI",
          "type": "string"
        }
      ],
      "name": "setFallbackURI",
      "outputs": [],
      "stateMutability": "nonpayable",
      "type": "function"
    },
    {
      "inputs": [
        {
          "internalType": "uint256",
          "name": "tokenId",
          "type": "uint256"
        },
        {
          "internalType": "string",
          "name": "newTokenURI",
          "type": "string"
        }
      ],
      "name": "setURI",
      "outputs": [],
      "stateMutability": "nonpayable",
      "type": "function"
    },
    {
      "inputs": [
        {
          "internalType": "uint256[]",
          "name": "tokenIds",
          "type": "uint256[]"
        },
        {
          "internalType": "string[]",
          "name": "newTokenURIs",
          "type": "string[]"
        }
      ],
      "name": "setURIBatch",
      "outputs": [],
      "stateMutability": "nonpayable",
      "type": "function"
    },
    {
      "inputs": [
        {
          "internalType": "string",
          "name": "newURISuffix",
          "type": "string"
        }
      ],
      "name": "setURISuffix",
      "outputs": [],
      "stateMutability": "nonpayable",
      "type": "function"
    }
  ],
  "transactionHash": "0x0cab4a41b29650c6b0925b125e3a08b40dddb9cca998df6c7d4417d56f9e1488",
  "args": [],
  "numDeployments": 1,
  "solcInputHash": "4e9900f3555052f5b462a7e4b5e060a6",
  "bytecode": "0x608060405234801561001057600080fd5b50610e7c806100206000396000f3fe608060405234801561001057600080fd5b50600436106100a35760003560e01c806355f804b311610076578063862440e21161005b578063862440e214610106578063989143ee14610119578063b3dbdcde1461012c57600080fd5b806355f804b3146100e057806381b3e575146100f357600080fd5b806301b98ea0146100a85780630cf14c40146100bd57806318249af7146100c557806353df5c7c146100d8575b600080fd5b6100bb6100b6366004610aba565b610134565b005b6100bb610250565b6100bb6100d3366004610b68565b6102fc565b6100bb6103b8565b6100bb6100ee366004610b68565b610462565b6100bb610101366004610b68565b61051a565b6100bb610114366004610baa565b6105d2565b6100bb610127366004610bf6565b610690565b6100bb610734565b7fc0ea367cb0174dd5521cd2372c76f8c13e6c1f832c71f1d6e0cbc185c9cc8ed4546001600160a01b031633146101b25760405162461bcd60e51b815260206004820152601d60248201527f4f776e61626c653a2073656e646572206d757374206265206f776e657200000060448201526064015b60405180910390fd5b60005b83811015610249576102378585838181106101d2576101d2610c0f565b905060200201358484848181106101eb576101eb610c0f565b90506020028101906101fd9190610c25565b8080601f0160208091040260200160405190810160405280939291908181526020018383808284376000920191909152506107de92505050565b8061024181610c6c565b9150506101b5565b5050505050565b7fc0ea367cb0174dd5521cd2372c76f8c13e6c1f832c71f1d6e0cbc185c9cc8ed4546001600160a01b031633146102c95760405162461bcd60e51b815260206004820152601d60248201527f4f776e61626c653a2073656e646572206d757374206265206f776e657200000060448201526064016101a9565b6102fa7f70612f47e27b43eb7f87867b7b8f899a5e08503dcccf1bf322c9eef06483a1ff805460ff19166001179055565b565b7fc0ea367cb0174dd5521cd2372c76f8c13e6c1f832c71f1d6e0cbc185c9cc8ed4546001600160a01b031633146103755760405162461bcd60e51b815260206004820152601d60248201527f4f776e61626c653a2073656e646572206d757374206265206f776e657200000060448201526064016101a9565b6103b482828080601f0160208091040260200160405190810160405280939291908181526020018383808284376000920191909152506108c292505050565b5050565b7fc0ea367cb0174dd5521cd2372c76f8c13e6c1f832c71f1d6e0cbc185c9cc8ed4546001600160a01b031633146104315760405162461bcd60e51b815260206004820152601d60248201527f4f776e61626c653a2073656e646572206d757374206265206f776e657200000060448201526064016101a9565b6102fa7f70612f47e27b43eb7f87867b7b8f899a5e08503dcccf1bf322c9eef06483a1fd805460ff19166001179055565b7fc0ea367cb0174dd5521cd2372c76f8c13e6c1f832c71f1d6e0cbc185c9cc8ed4546001600160a01b031633146104db5760405162461bcd60e51b815260206004820152601d60248201527f4f776e61626c653a2073656e646572206d757374206265206f776e657200000060448201526064016101a9565b6103b482828080601f01602080910402602001604051908101604052809392919081815260200183838082843760009201919091525061095f92505050565b7fc0ea367cb0174dd5521cd2372c76f8c13e6c1f832c71f1d6e0cbc185c9cc8ed4546001600160a01b031633146105935760405162461bcd60e51b815260206004820152601d60248201527f4f776e61626c653a2073656e646572206d757374206265206f776e657200000060448201526064016101a9565b6103b482828080601f0160208091040260200160405190810160405280939291908181526020018383808284376000920191909152506109d192505050565b7fc0ea367cb0174dd5521cd2372c76f8c13e6c1f832c71f1d6e0cbc185c9cc8ed4546001600160a01b0316331461064b5760405162461bcd60e51b815260206004820152601d60248201527f4f776e61626c653a2073656e646572206d757374206265206f776e657200000060448201526064016101a9565b61068b8383838080601f0160208091040260200160405190810160405280939291908181526020018383808284376000920191909152506107de92505050565b505050565b7fc0ea367cb0174dd5521cd2372c76f8c13e6c1f832c71f1d6e0cbc185c9cc8ed4546001600160a01b031633146107095760405162461bcd60e51b815260206004820152601d60248201527f4f776e61626c653a2073656e646572206d757374206265206f776e657200000060448201526064016101a9565b610731817f70612f47e27b43eb7f87867b7b8f899a5e08503dcccf1bf322c9eef06483a20255565b50565b7fc0ea367cb0174dd5521cd2372c76f8c13e6c1f832c71f1d6e0cbc185c9cc8ed4546001600160a01b031633146107ad5760405162461bcd60e51b815260206004820152601d60248201527f4f776e61626c653a2073656e646572206d757374206265206f776e657200000060448201526064016101a9565b6102fa7f70612f47e27b43eb7f87867b7b8f899a5e08503dcccf1bf322c9eef06483a201805460ff19166001179055565b7f70612f47e27b43eb7f87867b7b8f899a5e08503dcccf1bf322c9eef06483a20254821161084e5760405162461bcd60e51b815260206004820152601960248201527f4d657461646174613a20746f6b656e555249206c6f636b65640000000000000060448201526064016101a9565b60008281527f70612f47e27b43eb7f87867b7b8f899a5e08503dcccf1bf322c9eef06483a203602052604090206108858282610d31565b50817f6bb7ff708619ba0610cba295a58592e0451dee2622938c8755667688daf3529b826040516108b69190610df1565b60405180910390a25050565b7f70612f47e27b43eb7f87867b7b8f899a5e08503dcccf1bf322c9eef06483a1ff5460ff16156109345760405162461bcd60e51b815260206004820152601c60248201527f4d657461646174613a2066616c6c6261636b555249206c6f636b65640000000060448201526064016101a9565b7f70612f47e27b43eb7f87867b7b8f899a5e08503dcccf1bf322c9eef06483a1fc6103b48282610d31565b7f70612f47e27b43eb7f87867b7b8f899a5e08503dcccf1bf322c9eef06483a1fd5460ff16156109345760405162461bcd60e51b815260206004820152601860248201527f4d657461646174613a2062617365555249206c6f636b6564000000000000000060448201526064016101a9565b7f70612f47e27b43eb7f87867b7b8f899a5e08503dcccf1bf322c9eef06483a2015460ff1615610a435760405162461bcd60e51b815260206004820152601a60248201527f4d657461646174613a20757269537566666978206c6f636b656400000000000060448201526064016101a9565b7f70612f47e27b43eb7f87867b7b8f899a5e08503dcccf1bf322c9eef06483a2006103b48282610d31565b60008083601f840112610a8057600080fd5b50813567ffffffffffffffff811115610a9857600080fd5b6020830191508360208260051b8501011115610ab357600080fd5b9250929050565b60008060008060408587031215610ad057600080fd5b843567ffffffffffffffff80821115610ae857600080fd5b610af488838901610a6e565b90965094506020870135915080821115610b0d57600080fd5b50610b1a87828801610a6e565b95989497509550505050565b60008083601f840112610b3857600080fd5b50813567ffffffffffffffff811115610b5057600080fd5b602083019150836020828501011115610ab357600080fd5b60008060208385031215610b7b57600080fd5b823567ffffffffffffffff811115610b9257600080fd5b610b9e85828601610b26565b90969095509350505050565b600080600060408486031215610bbf57600080fd5b83359250602084013567ffffffffffffffff811115610bdd57600080fd5b610be986828701610b26565b9497909650939450505050565b600060208284031215610c0857600080fd5b5035919050565b634e487b7160e01b600052603260045260246000fd5b6000808335601e19843603018112610c3c57600080fd5b83018035915067ffffffffffffffff821115610c5757600080fd5b602001915036819003821315610ab357600080fd5b600060018201610c8c57634e487b7160e01b600052601160045260246000fd5b5060010190565b634e487b7160e01b600052604160045260246000fd5b600181811c90821680610cbd57607f821691505b602082108103610cdd57634e487b7160e01b600052602260045260246000fd5b50919050565b601f82111561068b57600081815260208120601f850160051c81016020861015610d0a5750805b601f850160051c820191505b81811015610d2957828155600101610d16565b505050505050565b815167ffffffffffffffff811115610d4b57610d4b610c93565b610d5f81610d598454610ca9565b84610ce3565b602080601f831160018114610d945760008415610d7c5750858301515b600019600386901b1c1916600185901b178555610d29565b600085815260208120601f198616915b82811015610dc357888601518255948401946001909101908401610da4565b5085821015610de15787850151600019600388901b60f8161c191681555b5050505050600190811b01905550565b600060208083528351808285015260005b81811015610e1e57858101830151858201604001528201610e02565b81811115610e30576000604083870101525b50601f01601f191692909201604001939250505056fea26469706673582212202b092e8de386d49c01c82c91deff0d11bac6c6195890a4e4dbf48b885afc275164736f6c634300080f0033",
  "devdoc": {
    "custom:category": "NFTs",
    "custom:peer-dependencies": "0x0e89341c",
    "custom:provides-interfaces": "0x3f963a7f",
    "custom:type": "eip-2535-facet",
    "kind": "dev",
    "methods": {},
    "title": "Metadata - Admin - Ownable",
    "version": 1
  },
  "userdoc": {
    "kind": "user",
    "methods": {},
    "notice": "Allows diamond owner to change base, per-token, and fallback URIs, as wel as freezing URIs.",
    "version": 1
  },
  "storageLayout": {
    "storage": [],
    "types": null
  }
}