{
  "address": "0x70391b81B8A39ddd515a0603eCC3DE306f62d09D",
  "abi": [
    {
      "inputs": [
        {
          "internalType": "address",
          "name": "operator",
          "type": "address"
        }
      ],
      "name": "OperatorNotAllowed",
      "type": "error"
    },
    {
      "inputs": [],
      "name": "hasRoyaltyEnforcement",
      "outputs": [
        {
          "internalType": "bool",
          "name": "",
          "type": "bool"
        }
      ],
      "stateMutability": "view",
      "type": "function"
    }
  ],
  "transactionHash": "0x0ec9b08b3a36acf26b45ceb0393b0c5a1ba0afb72f8124eb556f98d3b516d607",
  "args": [],
  "numDeployments": 1,
  "solcInputHash": "399fdf9dc926494bd12f97fc92b335ef",
  "bytecode": "0x608060405234801561001057600080fd5b5060ae8061001f6000396000f3fe6080604052348015600f57600080fd5b506004361060285760003560e01c8063ffa6b6b814602d575b600080fd5b60336047565b604051901515815260200160405180910390f35b600060737f9c1f08fc16fa10f59a3ac18a8c5596ea456f2d66793744df41c7c3e4eb2197905460ff1690565b90509056fea264697066735822122007ac6783a6445673f2cd18a3aa23694a8ec1e223dd88662bbf153a8b3baa1d2764736f6c634300080f0033",
  "devdoc": {
    "custom:category": "Tokens",
    "custom:provides-interfaces": "IRoyaltyEnforcement",
    "custom:type": "eip-2535-facet",
    "kind": "dev",
    "methods": {},
    "title": "Royalty Enforcement",
    "version": 1
  },
  "userdoc": {
    "kind": "user",
    "methods": {},
    "notice": "Shows current state of on-chain royalties enforcement on blocklisting marketplaces.",
    "version": 1
  },
  "storageLayout": {
    "storage": [],
    "types": null
  }
}