{
  "address": "0xF21c3D0fdb3faFC9620f31aDdCA7DDCcE94955EF",
  "abi": [
    {
      "inputs": [],
      "name": "WithdrawModeLocked",
      "type": "error"
    },
    {
      "inputs": [],
      "name": "WithdrawRecipientLocked",
      "type": "error"
    },
    {
      "anonymous": false,
      "inputs": [
        {
          "indexed": true,
          "internalType": "address",
          "name": "previousOwner",
          "type": "address"
        },
        {
          "indexed": true,
          "internalType": "address",
          "name": "newOwner",
          "type": "address"
        }
      ],
      "name": "OwnershipTransferred",
      "type": "event"
    },
    {
      "inputs": [],
      "name": "lockWithdrawMode",
      "outputs": [],
      "stateMutability": "nonpayable",
      "type": "function"
    },
    {
      "inputs": [],
      "name": "lockWithdrawRecipient",
      "outputs": [],
      "stateMutability": "nonpayable",
      "type": "function"
    },
    {
      "inputs": [],
      "name": "revokeWithdrawPower",
      "outputs": [],
      "stateMutability": "nonpayable",
      "type": "function"
    },
    {
      "inputs": [
        {
          "internalType": "enum IWithdrawable.Mode",
          "name": "_mode",
          "type": "uint8"
        }
      ],
      "name": "setWithdrawMode",
      "outputs": [],
      "stateMutability": "nonpayable",
      "type": "function"
    },
    {
      "inputs": [
        {
          "internalType": "address",
          "name": "_recipient",
          "type": "address"
        }
      ],
      "name": "setWithdrawRecipient",
      "outputs": [],
      "stateMutability": "nonpayable",
      "type": "function"
    }
  ],
  "transactionHash": "0xbe76101c08cbac6c8e5036e3ed145b40bede35f4bc5b8bae8019b635f4b6daaa",
  "args": [],
  "numDeployments": 1,
  "solcInputHash": "9932f08b76ff3c8d25eae92113779e3f",
  "bytecode": "0x608060405234801561001057600080fd5b506106a4806100206000396000f3fe608060405234801561001057600080fd5b50600436106100675760003560e01c8063c0bb38ff11610050578063c0bb38ff14610089578063c723955a1461009c578063da82b227146100a457600080fd5b80632c2330671461006c578063837fe14014610081575b600080fd5b61007f61007a3660046105ee565b6100ac565b005b61007f610219565b61007f610097366004610616565b6102f2565b61007f610438565b61007f610514565b7fc0ea367cb0174dd5521cd2372c76f8c13e6c1f832c71f1d6e0cbc185c9cc8ed4546001600160a01b0316331461012a5760405162461bcd60e51b815260206004820152601d60248201527f4f776e61626c653a2073656e646572206d757374206265206f776e657200000060448201526064015b60405180910390fd5b7f90911dd6b04582315fdcc835c92eb07b11f82eb9def7c511af0f2f9de3ddcfe35477010000000000000000000000000000000000000000000000900460ff16156101a1576040517f674492e200000000000000000000000000000000000000000000000000000000815260040160405180910390fd5b807f90911dd6b04582315fdcc835c92eb07b11f82eb9def7c511af0f2f9de3ddcfe380547fffffffffffffffffff00ffffffffffffffffffffffffffffffffffffffffffff167601000000000000000000000000000000000000000000008360038111156102115761021161063f565b021790555050565b7fc0ea367cb0174dd5521cd2372c76f8c13e6c1f832c71f1d6e0cbc185c9cc8ed4546001600160a01b031633146102925760405162461bcd60e51b815260206004820152601d60248201527f4f776e61626c653a2073656e646572206d757374206265206f776e65720000006044820152606401610121565b7f90911dd6b04582315fdcc835c92eb07b11f82eb9def7c511af0f2f9de3ddcfe380547fffffffffffffffffffffff00ffffffffffffffffffffffffffffffffffffffff1674010000000000000000000000000000000000000000179055565b7fc0ea367cb0174dd5521cd2372c76f8c13e6c1f832c71f1d6e0cbc185c9cc8ed4546001600160a01b0316331461036b5760405162461bcd60e51b815260206004820152601d60248201527f4f776e61626c653a2073656e646572206d757374206265206f776e65720000006044820152606401610121565b7f90911dd6b04582315fdcc835c92eb07b11f82eb9def7c511af0f2f9de3ddcfe35474010000000000000000000000000000000000000000900460ff16156103df576040517fbbc3137b00000000000000000000000000000000000000000000000000000000815260040160405180910390fd5b7f90911dd6b04582315fdcc835c92eb07b11f82eb9def7c511af0f2f9de3ddcfe380547fffffffffffffffffffffffff0000000000000000000000000000000000000000166001600160a01b0392909216919091179055565b7fc0ea367cb0174dd5521cd2372c76f8c13e6c1f832c71f1d6e0cbc185c9cc8ed4546001600160a01b031633146104b15760405162461bcd60e51b815260206004820152601d60248201527f4f776e61626c653a2073656e646572206d757374206265206f776e65720000006044820152606401610121565b7f90911dd6b04582315fdcc835c92eb07b11f82eb9def7c511af0f2f9de3ddcfe380547fffffffffffffffff00ffffffffffffffffffffffffffffffffffffffffffffff1677010000000000000000000000000000000000000000000000179055565b7fc0ea367cb0174dd5521cd2372c76f8c13e6c1f832c71f1d6e0cbc185c9cc8ed4546001600160a01b0316331461058d5760405162461bcd60e51b815260206004820152601d60248201527f4f776e61626c653a2073656e646572206d757374206265206f776e65720000006044820152606401610121565b7f90911dd6b04582315fdcc835c92eb07b11f82eb9def7c511af0f2f9de3ddcfe380547fffffffffffffffffffff00ffffffffffffffffffffffffffffffffffffffffff167501000000000000000000000000000000000000000000179055565b60006020828403121561060057600080fd5b81356004811061060f57600080fd5b9392505050565b60006020828403121561062857600080fd5b81356001600160a01b038116811461060f57600080fd5b7f4e487b7100000000000000000000000000000000000000000000000000000000600052602160045260246000fdfea2646970667358221220c48eb70335a6a74b0c6e5eeda9f15e12a79080ba119ad58739bdde26bb7492b364736f6c634300080f0033",
  "devdoc": {
    "custom:category": "NFTs",
    "custom:peer-dependencies": "0xde6d6d96",
    "custom:provides-interfaces": "0x7246cea5",
    "custom:type": "eip-2535-facet",
    "kind": "dev",
    "methods": {},
    "title": "Withdrawable - Admin - Ownable",
    "version": 1
  },
  "userdoc": {
    "kind": "user",
    "methods": {},
    "notice": "Allow contract owner to manage who can withdraw funds and how.",
    "version": 1
  },
  "storageLayout": {
    "storage": [],
    "types": null
  }
}