{
  "address": "0x5bdECF506Cc673a60dD8c820fa1fd3806e459864",
  "abi": [
    {
      "inputs": [
        {
          "internalType": "address",
          "name": "operator",
          "type": "address"
        }
      ],
      "name": "OperatorNotAllowed",
      "type": "error"
    },
    {
      "anonymous": false,
      "inputs": [
        {
          "indexed": true,
          "internalType": "address",
          "name": "previousOwner",
          "type": "address"
        },
        {
          "indexed": true,
          "internalType": "address",
          "name": "newOwner",
          "type": "address"
        }
      ],
      "name": "OwnershipTransferred",
      "type": "event"
    },
    {
      "inputs": [
        {
          "internalType": "address",
          "name": "subscriptionOrRegistrantToCopy",
          "type": "address"
        },
        {
          "internalType": "bool",
          "name": "subscribe",
          "type": "bool"
        }
      ],
      "name": "registerRoyaltyEnforcement",
      "outputs": [],
      "stateMutability": "nonpayable",
      "type": "function"
    },
    {
      "inputs": [
        {
          "internalType": "bool",
          "name": "enforce",
          "type": "bool"
        }
      ],
      "name": "toggleRoyaltyEnforcement",
      "outputs": [],
      "stateMutability": "nonpayable",
      "type": "function"
    }
  ],
  "transactionHash": "0x897ece4d6fba0c9573c407c7a23b23c0653f8008d5816f4e23df3e0e879285c8",
  "args": [],
  "numDeployments": 1,
  "solcInputHash": "bc22c1dff1a3b21bf4b0d926dd7f4c1e",
  "bytecode": "0x608060405234801561001057600080fd5b50610499806100206000396000f3fe608060405234801561001057600080fd5b50600436106100365760003560e01c8063101224881461003b57806316bf7d3414610050575b600080fd5b61004e6100493660046103d0565b610063565b005b61004e61005e3660046103f4565b610123565b7fc0ea367cb0174dd5521cd2372c76f8c13e6c1f832c71f1d6e0cbc185c9cc8ed45473ffffffffffffffffffffffffffffffffffffffff1633146100ee5760405162461bcd60e51b815260206004820152601d60248201527f4f776e61626c653a2073656e646572206d757374206265206f776e657200000060448201526064015b60405180910390fd5b7f9c1f08fc16fa10f59a3ac18a8c5596ea456f2d66793744df41c7c3e4eb219790805482151560ff1990911617905550565b50565b7fc0ea367cb0174dd5521cd2372c76f8c13e6c1f832c71f1d6e0cbc185c9cc8ed45473ffffffffffffffffffffffffffffffffffffffff1633146101a95760405162461bcd60e51b815260206004820152601d60248201527f4f776e61626c653a2073656e646572206d757374206265206f776e657200000060448201526064016100e5565b6101b382826101b7565b5050565b6daaeb6d7670e522a718067333cd4e3b156101b3576040517fc3c5a5470000000000000000000000000000000000000000000000000000000081523060048201526daaeb6d7670e522a718067333cd4e9063c3c5a547906024016020604051808303816000875af1158015610230573d6000803e3d6000fd5b505050506040513d601f19601f820116820180604052508101906102549190610446565b6101b35780156102f6576040517f7d3e3dbe00000000000000000000000000000000000000000000000000000000815230600482015273ffffffffffffffffffffffffffffffffffffffff831660248201526daaeb6d7670e522a718067333cd4e90637d3e3dbe906044015b600060405180830381600087803b1580156102da57600080fd5b505af11580156102ee573d6000803e3d6000fd5b505050505050565b73ffffffffffffffffffffffffffffffffffffffff821615610378576040517fa0af290300000000000000000000000000000000000000000000000000000000815230600482015273ffffffffffffffffffffffffffffffffffffffff831660248201526daaeb6d7670e522a718067333cd4e9063a0af2903906044016102c0565b6040517f4420e4860000000000000000000000000000000000000000000000000000000081523060048201526daaeb6d7670e522a718067333cd4e90634420e486906024016102c0565b801515811461012057600080fd5b6000602082840312156103e257600080fd5b81356103ed816103c2565b9392505050565b6000806040838503121561040757600080fd5b823573ffffffffffffffffffffffffffffffffffffffff8116811461042b57600080fd5b9150602083013561043b816103c2565b809150509250929050565b60006020828403121561045857600080fd5b81516103ed816103c256fea2646970667358221220a7f99bb56e97dde160db66ba2f33cfb50d72eeb6fd292a9860c27a7272c3d5ce64736f6c634300080f0033",
  "devdoc": {
    "custom:category": "Tokens",
    "custom:peer-dependencies": "IRoyaltyEnforcement",
    "custom:provides-interfaces": "IRoyaltyEnforcementAdmin",
    "custom:type": "eip-2535-facet",
    "kind": "dev",
    "methods": {},
    "title": "Royalty Enforcement - Admin - Ownable",
    "version": 1
  },
  "userdoc": {
    "kind": "user",
    "methods": {},
    "notice": "Controls where on-chain royalties must be enforced by blocklisting marketplaces.",
    "version": 1
  },
  "storageLayout": {
    "storage": [],
    "types": null
  }
}