{
  "address": "0x065F47A54f3590b11aF4dCF8d2A8D3381f4C26E4",
  "abi": [
    {
      "inputs": [],
      "name": "decimals",
      "outputs": [
        {
          "internalType": "uint8",
          "name": "",
          "type": "uint8"
        }
      ],
      "stateMutability": "view",
      "type": "function"
    },
    {
      "inputs": [],
      "name": "decimalsLocked",
      "outputs": [
        {
          "internalType": "bool",
          "name": "",
          "type": "bool"
        }
      ],
      "stateMutability": "view",
      "type": "function"
    },
    {
      "inputs": [],
      "name": "name",
      "outputs": [
        {
          "internalType": "string",
          "name": "",
          "type": "string"
        }
      ],
      "stateMutability": "view",
      "type": "function"
    },
    {
      "inputs": [],
      "name": "symbol",
      "outputs": [
        {
          "internalType": "string",
          "name": "",
          "type": "string"
        }
      ],
      "stateMutability": "view",
      "type": "function"
    }
  ],
  "transactionHash": "0xc9e1f7cec6633d894c6d0b9defe224cd1f92508f18ae072661759c461a8174ba",
  "args": [],
  "numDeployments": 3,
  "solcInputHash": "ca059977d32f68bb41c99340fafff131",
  "bytecode": "0x608060405234801561001057600080fd5b506102bd806100206000396000f3fe608060405234801561001057600080fd5b506004361061004c5760003560e01c806306fdde0314610051578063313ce5671461006f57806395d89b4114610089578063c0c092ee14610091575b600080fd5b6100596100cb565b60405161006691906101df565b60405180910390f35b61007761017c565b60405160ff9091168152602001610066565b6100596101ae565b7f3b67c745df1d17403ada58f538de4780e4768549f9387f877a18fb6c6b3a7b4b54610100900460ff166040519015158152602001610066565b60607f70612f47e27b43eb7f87867b7b8f899a5e08503dcccf1bf322c9eef06483a1fc80546100f990610234565b80601f016020809104026020016040519081016040528092919081815260200182805461012590610234565b80156101725780601f1061014757610100808354040283529160200191610172565b820191906000526020600020905b81548152906001019060200180831161015557829003601f168201915b5050505050905090565b60006101a97f3b67c745df1d17403ada58f538de4780e4768549f9387f877a18fb6c6b3a7b4b5460ff1690565b905090565b60607f70612f47e27b43eb7f87867b7b8f899a5e08503dcccf1bf322c9eef06483a1fc60010180546100f990610234565b600060208083528351808285015260005b8181101561020c578581018301518582016040015282016101f0565b8181111561021e576000604083870101525b50601f01601f1916929092016040019392505050565b600181811c9082168061024857607f821691505b602082108103610281577f4e487b7100000000000000000000000000000000000000000000000000000000600052602260045260246000fd5b5091905056fea2646970667358221220e57e9b505d55572eb8a26c3d70081aa6e62cd15adae197ad7bc7deae7923ed7064736f6c634300080f0033",
  "devdoc": {
    "custom:category": "Tokens",
    "custom:provides-interfaces": "IERC20Metadata",
    "custom:type": "eip-2535-facet",
    "kind": "dev",
    "methods": {
      "decimals()": {
        "returns": {
          "_0": "token decimals"
        }
      }
    },
    "title": "ERC20 Metadata",
    "version": 1
  },
  "userdoc": {
    "kind": "user",
    "methods": {
      "decimals()": {
        "notice": "return token decimals, generally used only for display purposes"
      }
    },
    "notice": "Provides standard read methods for name, symbol and decimals metadata for an ERC20 token.",
    "version": 1
  },
  "storageLayout": {
    "storage": [],
    "types": null
  }
}