{
  "address": "0x73fb9dDfA54EC7d0fecC22c88B8e9E98a2C1bF78",
  "abi": [
    {
      "inputs": [
        {
          "components": [
            {
              "internalType": "string",
              "name": "name",
              "type": "string"
            },
            {
              "internalType": "string",
              "name": "symbol",
              "type": "string"
            }
          ],
          "internalType": "struct ERC20BasicToken.Config",
          "name": "config",
          "type": "tuple"
        }
      ],
      "stateMutability": "nonpayable",
      "type": "constructor"
    },
    {
      "anonymous": false,
      "inputs": [
        {
          "indexed": true,
          "internalType": "address",
          "name": "owner",
          "type": "address"
        },
        {
          "indexed": true,
          "internalType": "address",
          "name": "spender",
          "type": "address"
        },
        {
          "indexed": false,
          "internalType": "uint256",
          "name": "value",
          "type": "uint256"
        }
      ],
      "name": "Approval",
      "type": "event"
    },
    {
      "anonymous": false,
      "inputs": [
        {
          "indexed": false,
          "internalType": "uint8",
          "name": "version",
          "type": "uint8"
        }
      ],
      "name": "Initialized",
      "type": "event"
    },
    {
      "anonymous": false,
      "inputs": [
        {
          "indexed": false,
          "internalType": "address",
          "name": "account",
          "type": "address"
        }
      ],
      "name": "Paused",
      "type": "event"
    },
    {
      "anonymous": false,
      "inputs": [
        {
          "indexed": true,
          "internalType": "bytes32",
          "name": "role",
          "type": "bytes32"
        },
        {
          "indexed": true,
          "internalType": "bytes32",
          "name": "previousAdminRole",
          "type": "bytes32"
        },
        {
          "indexed": true,
          "internalType": "bytes32",
          "name": "newAdminRole",
          "type": "bytes32"
        }
      ],
      "name": "RoleAdminChanged",
      "type": "event"
    },
    {
      "anonymous": false,
      "inputs": [
        {
          "indexed": true,
          "internalType": "bytes32",
          "name": "role",
          "type": "bytes32"
        },
        {
          "indexed": true,
          "internalType": "address",
          "name": "account",
          "type": "address"
        },
        {
          "indexed": true,
          "internalType": "address",
          "name": "sender",
          "type": "address"
        }
      ],
      "name": "RoleGranted",
      "type": "event"
    },
    {
      "anonymous": false,
      "inputs": [
        {
          "indexed": true,
          "internalType": "bytes32",
          "name": "role",
          "type": "bytes32"
        },
        {
          "indexed": true,
          "internalType": "address",
          "name": "account",
          "type": "address"
        },
        {
          "indexed": true,
          "internalType": "address",
          "name": "sender",
          "type": "address"
        }
      ],
      "name": "RoleRevoked",
      "type": "event"
    },
    {
      "anonymous": false,
      "inputs": [
        {
          "indexed": true,
          "internalType": "address",
          "name": "from",
          "type": "address"
        },
        {
          "indexed": true,
          "internalType": "address",
          "name": "to",
          "type": "address"
        },
        {
          "indexed": false,
          "internalType": "uint256",
          "name": "value",
          "type": "uint256"
        }
      ],
      "name": "Transfer",
      "type": "event"
    },
    {
      "anonymous": false,
      "inputs": [
        {
          "indexed": false,
          "internalType": "address",
          "name": "account",
          "type": "address"
        }
      ],
      "name": "Unpaused",
      "type": "event"
    },
    {
      "inputs": [],
      "name": "DEFAULT_ADMIN_ROLE",
      "outputs": [
        {
          "internalType": "bytes32",
          "name": "",
          "type": "bytes32"
        }
      ],
      "stateMutability": "view",
      "type": "function"
    },
    {
      "inputs": [],
      "name": "MINTER_ROLE",
      "outputs": [
        {
          "internalType": "bytes32",
          "name": "",
          "type": "bytes32"
        }
      ],
      "stateMutability": "view",
      "type": "function"
    },
    {
      "inputs": [],
      "name": "PAUSER_ROLE",
      "outputs": [
        {
          "internalType": "bytes32",
          "name": "",
          "type": "bytes32"
        }
      ],
      "stateMutability": "view",
      "type": "function"
    },
    {
      "inputs": [
        {
          "internalType": "address",
          "name": "owner",
          "type": "address"
        },
        {
          "internalType": "address",
          "name": "spender",
          "type": "address"
        }
      ],
      "name": "allowance",
      "outputs": [
        {
          "internalType": "uint256",
          "name": "",
          "type": "uint256"
        }
      ],
      "stateMutability": "view",
      "type": "function"
    },
    {
      "inputs": [
        {
          "internalType": "address",
          "name": "spender",
          "type": "address"
        },
        {
          "internalType": "uint256",
          "name": "amount",
          "type": "uint256"
        }
      ],
      "name": "approve",
      "outputs": [
        {
          "internalType": "bool",
          "name": "",
          "type": "bool"
        }
      ],
      "stateMutability": "nonpayable",
      "type": "function"
    },
    {
      "inputs": [
        {
          "internalType": "address",
          "name": "account",
          "type": "address"
        }
      ],
      "name": "balanceOf",
      "outputs": [
        {
          "internalType": "uint256",
          "name": "",
          "type": "uint256"
        }
      ],
      "stateMutability": "view",
      "type": "function"
    },
    {
      "inputs": [
        {
          "internalType": "uint256",
          "name": "amount",
          "type": "uint256"
        }
      ],
      "name": "burn",
      "outputs": [],
      "stateMutability": "nonpayable",
      "type": "function"
    },
    {
      "inputs": [
        {
          "internalType": "address",
          "name": "account",
          "type": "address"
        },
        {
          "internalType": "uint256",
          "name": "amount",
          "type": "uint256"
        }
      ],
      "name": "burnFrom",
      "outputs": [],
      "stateMutability": "nonpayable",
      "type": "function"
    },
    {
      "inputs": [],
      "name": "decimals",
      "outputs": [
        {
          "internalType": "uint8",
          "name": "",
          "type": "uint8"
        }
      ],
      "stateMutability": "view",
      "type": "function"
    },
    {
      "inputs": [
        {
          "internalType": "address",
          "name": "spender",
          "type": "address"
        },
        {
          "internalType": "uint256",
          "name": "subtractedValue",
          "type": "uint256"
        }
      ],
      "name": "decreaseAllowance",
      "outputs": [
        {
          "internalType": "bool",
          "name": "",
          "type": "bool"
        }
      ],
      "stateMutability": "nonpayable",
      "type": "function"
    },
    {
      "inputs": [
        {
          "internalType": "bytes32",
          "name": "role",
          "type": "bytes32"
        }
      ],
      "name": "getRoleAdmin",
      "outputs": [
        {
          "internalType": "bytes32",
          "name": "",
          "type": "bytes32"
        }
      ],
      "stateMutability": "view",
      "type": "function"
    },
    {
      "inputs": [
        {
          "internalType": "bytes32",
          "name": "role",
          "type": "bytes32"
        },
        {
          "internalType": "address",
          "name": "account",
          "type": "address"
        }
      ],
      "name": "grantRole",
      "outputs": [],
      "stateMutability": "nonpayable",
      "type": "function"
    },
    {
      "inputs": [
        {
          "internalType": "bytes32",
          "name": "role",
          "type": "bytes32"
        },
        {
          "internalType": "address",
          "name": "account",
          "type": "address"
        }
      ],
      "name": "hasRole",
      "outputs": [
        {
          "internalType": "bool",
          "name": "",
          "type": "bool"
        }
      ],
      "stateMutability": "view",
      "type": "function"
    },
    {
      "inputs": [
        {
          "internalType": "address",
          "name": "spender",
          "type": "address"
        },
        {
          "internalType": "uint256",
          "name": "addedValue",
          "type": "uint256"
        }
      ],
      "name": "increaseAllowance",
      "outputs": [
        {
          "internalType": "bool",
          "name": "",
          "type": "bool"
        }
      ],
      "stateMutability": "nonpayable",
      "type": "function"
    },
    {
      "inputs": [
        {
          "components": [
            {
              "internalType": "string",
              "name": "name",
              "type": "string"
            },
            {
              "internalType": "string",
              "name": "symbol",
              "type": "string"
            }
          ],
          "internalType": "struct ERC20BasicToken.Config",
          "name": "config",
          "type": "tuple"
        },
        {
          "internalType": "address",
          "name": "deployer",
          "type": "address"
        }
      ],
      "name": "initialize",
      "outputs": [],
      "stateMutability": "nonpayable",
      "type": "function"
    },
    {
      "inputs": [
        {
          "internalType": "address",
          "name": "to",
          "type": "address"
        },
        {
          "internalType": "uint256",
          "name": "amount",
          "type": "uint256"
        }
      ],
      "name": "mint",
      "outputs": [],
      "stateMutability": "nonpayable",
      "type": "function"
    },
    {
      "inputs": [],
      "name": "name",
      "outputs": [
        {
          "internalType": "string",
          "name": "",
          "type": "string"
        }
      ],
      "stateMutability": "view",
      "type": "function"
    },
    {
      "inputs": [],
      "name": "pause",
      "outputs": [],
      "stateMutability": "nonpayable",
      "type": "function"
    },
    {
      "inputs": [],
      "name": "paused",
      "outputs": [
        {
          "internalType": "bool",
          "name": "",
          "type": "bool"
        }
      ],
      "stateMutability": "view",
      "type": "function"
    },
    {
      "inputs": [
        {
          "internalType": "bytes32",
          "name": "role",
          "type": "bytes32"
        },
        {
          "internalType": "address",
          "name": "account",
          "type": "address"
        }
      ],
      "name": "renounceRole",
      "outputs": [],
      "stateMutability": "nonpayable",
      "type": "function"
    },
    {
      "inputs": [
        {
          "internalType": "bytes32",
          "name": "role",
          "type": "bytes32"
        },
        {
          "internalType": "address",
          "name": "account",
          "type": "address"
        }
      ],
      "name": "revokeRole",
      "outputs": [],
      "stateMutability": "nonpayable",
      "type": "function"
    },
    {
      "inputs": [
        {
          "internalType": "bytes4",
          "name": "interfaceId",
          "type": "bytes4"
        }
      ],
      "name": "supportsInterface",
      "outputs": [
        {
          "internalType": "bool",
          "name": "",
          "type": "bool"
        }
      ],
      "stateMutability": "view",
      "type": "function"
    },
    {
      "inputs": [],
      "name": "symbol",
      "outputs": [
        {
          "internalType": "string",
          "name": "",
          "type": "string"
        }
      ],
      "stateMutability": "view",
      "type": "function"
    },
    {
      "inputs": [],
      "name": "totalSupply",
      "outputs": [
        {
          "internalType": "uint256",
          "name": "",
          "type": "uint256"
        }
      ],
      "stateMutability": "view",
      "type": "function"
    },
    {
      "inputs": [
        {
          "internalType": "address",
          "name": "to",
          "type": "address"
        },
        {
          "internalType": "uint256",
          "name": "amount",
          "type": "uint256"
        }
      ],
      "name": "transfer",
      "outputs": [
        {
          "internalType": "bool",
          "name": "",
          "type": "bool"
        }
      ],
      "stateMutability": "nonpayable",
      "type": "function"
    },
    {
      "inputs": [
        {
          "internalType": "address",
          "name": "from",
          "type": "address"
        },
        {
          "internalType": "address",
          "name": "to",
          "type": "address"
        },
        {
          "internalType": "uint256",
          "name": "amount",
          "type": "uint256"
        }
      ],
      "name": "transferFrom",
      "outputs": [
        {
          "internalType": "bool",
          "name": "",
          "type": "bool"
        }
      ],
      "stateMutability": "nonpayable",
      "type": "function"
    },
    {
      "inputs": [],
      "name": "unpause",
      "outputs": [],
      "stateMutability": "nonpayable",
      "type": "function"
    }
  ],
  "transactionHash": "0xec0b18a0d1a8d662d559681763e5400fb5946ad5bf08a6f0ec8d2baf195b926b",
  "args": [
    {
      "name": "Token",
      "symbol": "TKN"
    }
  ],
  "numDeployments": 5,
  "solcInputHash": "2e24ace2804b0b134ca5832f0b775b73",
  "bytecode": "0x60806040523480156200001157600080fd5b5060405162001d7f38038062001d7f8339810160408190526200003491620003bf565b805160208201516004620000498382620004ff565b506005620000588282620004ff565b50506006805460ff191690555062000071813362000078565b50620005cb565b600054610100900460ff1615808015620000995750600054600160ff909116105b80620000c95750620000b6306200022d60201b620008261760201c565b158015620000c9575060005460ff166001145b620001315760405162461bcd60e51b815260206004820152602e60248201527f496e697469616c697a61626c653a20636f6e747261637420697320616c72656160448201526d191e481a5b9a5d1a585b1a5e995960921b606482015260840160405180910390fd5b6000805460ff19166001179055801562000155576000805461ff0019166101001790555b8251600890620001669082620004ff565b5060208301516009906200017b9082620004ff565b50620001896000836200023c565b620001b57f65d7a28e3265b37a6474929f336521b332c1681b933f6cb9f3376673440d862a836200023c565b620001e17f9f2df0fed2c77648de5860a4cc508cd0818c85b8b8a1ab4ceeef8d981c8956a6836200023c565b801562000228576000805461ff0019169055604051600181527f7f26b83ff96e1f2b6a682f133852f6798a09c465da95921460cefb38474024989060200160405180910390a15b505050565b6001600160a01b03163b151590565b60008281526007602090815260408083206001600160a01b038516845290915290205460ff16620002dd5760008281526007602090815260408083206001600160a01b03851684529091529020805460ff191660011790556200029c3390565b6001600160a01b0316816001600160a01b0316837f2f8788117e7eff1d82e926ec794901d17c78024a50270940304540a733656f0d60405160405180910390a45b5050565b634e487b7160e01b600052604160045260246000fd5b604051601f8201601f191681016001600160401b0381118282101715620003225762000322620002e1565b604052919050565b600082601f8301126200033c57600080fd5b81516001600160401b03811115620003585762000358620002e1565b60206200036e601f8301601f19168201620002f7565b82815285828487010111156200038357600080fd5b60005b83811015620003a357858101830151828201840152820162000386565b83811115620003b55760008385840101525b5095945050505050565b600060208284031215620003d257600080fd5b81516001600160401b0380821115620003ea57600080fd5b9083019060408286031215620003ff57600080fd5b6040516040810181811083821117156200041d576200041d620002e1565b6040528251828111156200043057600080fd5b6200043e878286016200032a565b8252506020830151828111156200045457600080fd5b62000462878286016200032a565b60208301525095945050505050565b600181811c908216806200048657607f821691505b602082108103620004a757634e487b7160e01b600052602260045260246000fd5b50919050565b601f8211156200022857600081815260208120601f850160051c81016020861015620004d65750805b601f850160051c820191505b81811015620004f757828155600101620004e2565b505050505050565b81516001600160401b038111156200051b576200051b620002e1565b62000533816200052c845462000471565b84620004ad565b602080601f8311600181146200056b5760008415620005525750858301515b600019600386901b1c1916600185901b178555620004f7565b600085815260208120601f198616915b828110156200059c578886015182559484019460019091019084016200057b565b5085821015620005bb5787850151600019600388901b60f8161c191681555b5050505050600190811b01905550565b6117a480620005db6000396000f3fe608060405234801561001057600080fd5b50600436106101495760003560e01c806301ffc9a71461014e57806306fdde0314610176578063095ea7b31461018b57806318160ddd1461019e57806323b872dd146101b0578063248a9ca3146101c35780632f2ff15d146101d6578063313ce567146101eb57806336568abe146101fa578063395093511461020d5780633f4ba83a1461022057806340c10f191461022857806342966c681461023b5780635539160f1461024e5780635c975abb1461026157806370a082311461026c57806379cc6790146102955780638456cb59146102a857806391d14854146102b057806395d89b41146102c3578063a217fddf146102cb578063a457c2d7146102d3578063a9059cbb146102e6578063d5391393146102f9578063d547741f1461030e578063dd62ed3e14610321578063e63ab1e914610334575b600080fd5b61016161015c3660046111e0565b610349565b60405190151581526020015b60405180910390f35b61017e610380565b60405161016d9190611236565b610161610199366004611285565b610412565b6003545b60405190815260200161016d565b6101616101be3660046112af565b61042a565b6101a26101d13660046112eb565b61044e565b6101e96101e4366004611304565b610463565b005b6040516012815260200161016d565b6101e9610208366004611304565b610484565b61016161021b366004611285565b610507565b6101e9610529565b6101e9610236366004611285565b61054c565b6101e96102493660046112eb565b61056e565b6101e961025c3660046113d2565b610578565b60065460ff16610161565b6101a261027a366004611482565b6001600160a01b031660009081526001602052604090205490565b6101e96102a3366004611285565b6106e7565b6101e96106fc565b6101616102be366004611304565b61071c565b61017e610747565b6101a2600081565b6101616102e1366004611285565b610756565b6101616102f4366004611285565b6107d1565b6101a260008051602061172f83398151915281565b6101e961031c366004611304565b6107df565b6101a261032f36600461149d565b6107fb565b6101a260008051602061170f83398151915281565b60006001600160e01b03198216637965db0b60e01b148061037a57506301ffc9a760e01b6001600160e01b03198316145b92915050565b60606008805461038f906114c7565b80601f01602080910402602001604051908101604052809291908181526020018280546103bb906114c7565b80156104085780601f106103dd57610100808354040283529160200191610408565b820191906000526020600020905b8154815290600101906020018083116103eb57829003601f168201915b5050505050905090565b600033610420818585610835565b5060019392505050565b600033610438858285610959565b6104438585856109d3565b506001949350505050565b60009081526007602052604090206001015490565b61046c8261044e565b61047581610b9a565b61047f8383610ba4565b505050565b6001600160a01b03811633146104f95760405162461bcd60e51b815260206004820152602f60248201527f416363657373436f6e74726f6c3a2063616e206f6e6c792072656e6f756e636560448201526e103937b632b9903337b91039b2b63360891b60648201526084015b60405180910390fd5b6105038282610c2a565b5050565b60003361042081858561051a83836107fb565b6105249190611517565b610835565b60008051602061170f83398151915261054181610b9a565b610549610c91565b50565b60008051602061172f83398151915261056481610b9a565b61047f8383610ce3565b6105493382610dbc565b600054610100900460ff16158080156105985750600054600160ff909116105b806105b957506105a730610826565b1580156105b9575060005460ff166001145b61061c5760405162461bcd60e51b815260206004820152602e60248201527f496e697469616c697a61626c653a20636f6e747261637420697320616c72656160448201526d191e481a5b9a5d1a585b1a5e995960921b60648201526084016104f0565b6000805460ff19166001179055801561063f576000805461ff0019166101001790555b825160089061064e908261157d565b506020830151600990610661908261157d565b5061066d600083610ba4565b61068560008051602061170f83398151915283610ba4565b61069d60008051602061172f83398151915283610ba4565b801561047f576000805461ff0019169055604051600181527f7f26b83ff96e1f2b6a682f133852f6798a09c465da95921460cefb38474024989060200160405180910390a1505050565b6106f2823383610959565b6105038282610dbc565b60008051602061170f83398151915261071481610b9a565b610549610f04565b60009182526007602090815260408084206001600160a01b0393909316845291905290205460ff1690565b60606009805461038f906114c7565b6000338161076482866107fb565b9050838110156107c45760405162461bcd60e51b815260206004820152602560248201527f45524332303a2064656372656173656420616c6c6f77616e63652062656c6f77604482015264207a65726f60d81b60648201526084016104f0565b6104438286868403610835565b6000336104208185856109d3565b6107e88261044e565b6107f181610b9a565b61047f8383610c2a565b6001600160a01b03918216600090815260026020908152604080832093909416825291909152205490565b6001600160a01b03163b151590565b6001600160a01b0383166108975760405162461bcd60e51b8152602060048201526024808201527f45524332303a20617070726f76652066726f6d20746865207a65726f206164646044820152637265737360e01b60648201526084016104f0565b6001600160a01b0382166108f85760405162461bcd60e51b815260206004820152602260248201527f45524332303a20617070726f766520746f20746865207a65726f206164647265604482015261737360f01b60648201526084016104f0565b6001600160a01b0383811660008181526002602090815260408083209487168084529482529182902085905590518481527f8c5be1e5ebec7d5bd14f71427d1e84f3dd0314c0f7b2291e5b200ac8c7c3b925910160405180910390a3505050565b600061096584846107fb565b905060001981146109cd57818110156109c05760405162461bcd60e51b815260206004820152601d60248201527f45524332303a20696e73756666696369656e7420616c6c6f77616e636500000060448201526064016104f0565b6109cd8484848403610835565b50505050565b6001600160a01b038316610a375760405162461bcd60e51b815260206004820152602560248201527f45524332303a207472616e736665722066726f6d20746865207a65726f206164604482015264647265737360d81b60648201526084016104f0565b6001600160a01b038216610a995760405162461bcd60e51b815260206004820152602360248201527f45524332303a207472616e7366657220746f20746865207a65726f206164647260448201526265737360e81b60648201526084016104f0565b610aa4838383610f41565b6001600160a01b03831660009081526001602052604090205481811015610b1c5760405162461bcd60e51b815260206004820152602660248201527f45524332303a207472616e7366657220616d6f756e7420657863656564732062604482015265616c616e636560d01b60648201526084016104f0565b6001600160a01b03808516600090815260016020526040808220858503905591851681529081208054849290610b53908490611517565b92505081905550826001600160a01b0316846001600160a01b031660008051602061174f83398151915284604051610b8d91815260200190565b60405180910390a36109cd565b6105498133610f49565b610bae828261071c565b6105035760008281526007602090815260408083206001600160a01b03851684529091529020805460ff19166001179055610be63390565b6001600160a01b0316816001600160a01b0316837f2f8788117e7eff1d82e926ec794901d17c78024a50270940304540a733656f0d60405160405180910390a45050565b610c34828261071c565b156105035760008281526007602090815260408083206001600160a01b0385168085529252808320805460ff1916905551339285917ff6391f5c32d9c69d2a47ea670b442974b53935d1edc7fd64eb21e047a839171b9190a45050565b610c99610fad565b6006805460ff191690557f5db9ee0a495bf2e6ff9c91a7834c1ba4fdd244a5e8aa4e537bd38aeae4b073aa335b6040516001600160a01b03909116815260200160405180910390a1565b6001600160a01b038216610d395760405162461bcd60e51b815260206004820152601f60248201527f45524332303a206d696e7420746f20746865207a65726f20616464726573730060448201526064016104f0565b610d4560008383610f41565b8060036000828254610d579190611517565b90915550506001600160a01b03821660009081526001602052604081208054839290610d84908490611517565b90915550506040518181526001600160a01b0383169060009060008051602061174f8339815191529060200160405180910390a35050565b6001600160a01b038216610e1c5760405162461bcd60e51b815260206004820152602160248201527f45524332303a206275726e2066726f6d20746865207a65726f206164647265736044820152607360f81b60648201526084016104f0565b610e2882600083610f41565b6001600160a01b03821660009081526001602052604090205481811015610e9c5760405162461bcd60e51b815260206004820152602260248201527f45524332303a206275726e20616d6f756e7420657863656564732062616c616e604482015261636560f01b60648201526084016104f0565b6001600160a01b0383166000908152600160205260408120838303905560038054849290610ecb90849061163c565b90915550506040518281526000906001600160a01b0385169060008051602061174f8339815191529060200160405180910390a3505050565b610f0c610ff8565b6006805460ff191660011790557f62e78cea01bee320cd4e420270b5ea74000d11b0c9f74754ebdbfc544b05a258610cc63390565b61047f610ff8565b610f53828261071c565b61050357610f6b816001600160a01b0316601461103e565b610f7683602061103e565b604051602001610f87929190611653565b60408051601f198184030181529082905262461bcd60e51b82526104f091600401611236565b60065460ff16610ff65760405162461bcd60e51b815260206004820152601460248201527314185d5cd8589b194e881b9bdd081c185d5cd95960621b60448201526064016104f0565b565b60065460ff1615610ff65760405162461bcd60e51b815260206004820152601060248201526f14185d5cd8589b194e881c185d5cd95960821b60448201526064016104f0565b6060600061104d8360026116c2565b611058906002611517565b6001600160401b0381111561106f5761106f611330565b6040519080825280601f01601f191660200182016040528015611099576020820181803683370190505b509050600360fc1b816000815181106110b4576110b46116e1565b60200101906001600160f81b031916908160001a905350600f60fb1b816001815181106110e3576110e36116e1565b60200101906001600160f81b031916908160001a90535060006111078460026116c2565b611112906001611517565b90505b600181111561118a576f181899199a1a9b1b9c1cb0b131b232b360811b85600f1660108110611146576111466116e1565b1a60f81b82828151811061115c5761115c6116e1565b60200101906001600160f81b031916908160001a90535060049490941c93611183816116f7565b9050611115565b5083156111d95760405162461bcd60e51b815260206004820181905260248201527f537472696e67733a20686578206c656e67746820696e73756666696369656e7460448201526064016104f0565b9392505050565b6000602082840312156111f257600080fd5b81356001600160e01b0319811681146111d957600080fd5b60005b8381101561122557818101518382015260200161120d565b838111156109cd5750506000910152565b602081526000825180602084015261125581604085016020870161120a565b601f01601f19169190910160400192915050565b80356001600160a01b038116811461128057600080fd5b919050565b6000806040838503121561129857600080fd5b6112a183611269565b946020939093013593505050565b6000806000606084860312156112c457600080fd5b6112cd84611269565b92506112db60208501611269565b9150604084013590509250925092565b6000602082840312156112fd57600080fd5b5035919050565b6000806040838503121561131757600080fd5b8235915061132760208401611269565b90509250929050565b634e487b7160e01b600052604160045260246000fd5b600082601f83011261135757600080fd5b81356001600160401b038082111561137157611371611330565b604051601f8301601f19908116603f0116810190828211818310171561139957611399611330565b816040528381528660208588010111156113b257600080fd5b836020870160208301376000602085830101528094505050505092915050565b600080604083850312156113e557600080fd5b82356001600160401b03808211156113fc57600080fd5b908401906040828703121561141057600080fd5b60405160408101818110838211171561142b5761142b611330565b60405282358281111561143d57600080fd5b61144988828601611346565b82525060208301358281111561145e57600080fd5b61146a88828601611346565b60208301525080945050505061132760208401611269565b60006020828403121561149457600080fd5b6111d982611269565b600080604083850312156114b057600080fd5b6114b983611269565b915061132760208401611269565b600181811c908216806114db57607f821691505b6020821081036114fb57634e487b7160e01b600052602260045260246000fd5b50919050565b634e487b7160e01b600052601160045260246000fd5b6000821982111561152a5761152a611501565b500190565b601f82111561047f57600081815260208120601f850160051c810160208610156115565750805b601f850160051c820191505b8181101561157557828155600101611562565b505050505050565b81516001600160401b0381111561159657611596611330565b6115aa816115a484546114c7565b8461152f565b602080601f8311600181146115df57600084156115c75750858301515b600019600386901b1c1916600185901b178555611575565b600085815260208120601f198616915b8281101561160e578886015182559484019460019091019084016115ef565b508582101561162c5787850151600019600388901b60f8161c191681555b5050505050600190811b01905550565b60008282101561164e5761164e611501565b500390565b76020b1b1b2b9b9a1b7b73a3937b61d1030b1b1b7bab73a1604d1b81526000835161168581601785016020880161120a565b7001034b99036b4b9b9b4b733903937b6329607d1b60179184019182015283516116b681602884016020880161120a565b01602801949350505050565b60008160001904831182151516156116dc576116dc611501565b500290565b634e487b7160e01b600052603260045260246000fd5b60008161170657611706611501565b50600019019056fe65d7a28e3265b37a6474929f336521b332c1681b933f6cb9f3376673440d862a9f2df0fed2c77648de5860a4cc508cd0818c85b8b8a1ab4ceeef8d981c8956a6ddf252ad1be2c89b69c2b068fc378daa952ba7f163c4a11628f55a4df523b3efa2646970667358221220349c4a57e1837921223ab6b358937189308554505c83ca95ea30104a79881b9864736f6c634300080f0033",
  "devdoc": {
    "kind": "dev",
    "methods": {
      "allowance(address,address)": {
        "details": "See {IERC20-allowance}."
      },
      "approve(address,uint256)": {
        "details": "See {IERC20-approve}. NOTE: If `amount` is the maximum `uint256`, the allowance is not updated on `transferFrom`. This is semantically equivalent to an infinite approval. Requirements: - `spender` cannot be the zero address."
      },
      "balanceOf(address)": {
        "details": "See {IERC20-balanceOf}."
      },
      "burn(uint256)": {
        "details": "Destroys `amount` tokens from the caller. See {ERC20-_burn}."
      },
      "burnFrom(address,uint256)": {
        "details": "Destroys `amount` tokens from `account`, deducting from the caller's allowance. See {ERC20-_burn} and {ERC20-allowance}. Requirements: - the caller must have allowance for ``accounts``'s tokens of at least `amount`."
      },
      "decimals()": {
        "details": "Returns the number of decimals used to get its user representation. For example, if `decimals` equals `2`, a balance of `505` tokens should be displayed to a user as `5.05` (`505 / 10 ** 2`). Tokens usually opt for a value of 18, imitating the relationship between Ether and Wei. This is the value {ERC20} uses, unless this function is overridden; NOTE: This information is only used for _display_ purposes: it in no way affects any of the arithmetic of the contract, including {IERC20-balanceOf} and {IERC20-transfer}."
      },
      "decreaseAllowance(address,uint256)": {
        "details": "Atomically decreases the allowance granted to `spender` by the caller. This is an alternative to {approve} that can be used as a mitigation for problems described in {IERC20-approve}. Emits an {Approval} event indicating the updated allowance. Requirements: - `spender` cannot be the zero address. - `spender` must have allowance for the caller of at least `subtractedValue`."
      },
      "getRoleAdmin(bytes32)": {
        "details": "Returns the admin role that controls `role`. See {grantRole} and {revokeRole}. To change a role's admin, use {_setRoleAdmin}."
      },
      "grantRole(bytes32,address)": {
        "details": "Grants `role` to `account`. If `account` had not been already granted `role`, emits a {RoleGranted} event. Requirements: - the caller must have ``role``'s admin role. May emit a {RoleGranted} event."
      },
      "hasRole(bytes32,address)": {
        "details": "Returns `true` if `account` has been granted `role`."
      },
      "increaseAllowance(address,uint256)": {
        "details": "Atomically increases the allowance granted to `spender` by the caller. This is an alternative to {approve} that can be used as a mitigation for problems described in {IERC20-approve}. Emits an {Approval} event indicating the updated allowance. Requirements: - `spender` cannot be the zero address."
      },
      "name()": {
        "details": "Returns the name of the token."
      },
      "paused()": {
        "details": "Returns true if the contract is paused, and false otherwise."
      },
      "renounceRole(bytes32,address)": {
        "details": "Revokes `role` from the calling account. Roles are often managed via {grantRole} and {revokeRole}: this function's purpose is to provide a mechanism for accounts to lose their privileges if they are compromised (such as when a trusted device is misplaced). If the calling account had been revoked `role`, emits a {RoleRevoked} event. Requirements: - the caller must be `account`. May emit a {RoleRevoked} event."
      },
      "revokeRole(bytes32,address)": {
        "details": "Revokes `role` from `account`. If `account` had been granted `role`, emits a {RoleRevoked} event. Requirements: - the caller must have ``role``'s admin role. May emit a {RoleRevoked} event."
      },
      "supportsInterface(bytes4)": {
        "details": "See {IERC165-supportsInterface}."
      },
      "symbol()": {
        "details": "Returns the symbol of the token, usually a shorter version of the name."
      },
      "totalSupply()": {
        "details": "See {IERC20-totalSupply}."
      },
      "transfer(address,uint256)": {
        "details": "See {IERC20-transfer}. Requirements: - `to` cannot be the zero address. - the caller must have a balance of at least `amount`."
      },
      "transferFrom(address,address,uint256)": {
        "details": "See {IERC20-transferFrom}. Emits an {Approval} event indicating the updated allowance. This is not required by the EIP. See the note at the beginning of {ERC20}. NOTE: Does not update the allowance if the current allowance is the maximum `uint256`. Requirements: - `from` and `to` cannot be the zero address. - `from` must have a balance of at least `amount`. - the caller must have allowance for ``from``'s tokens of at least `amount`."
      }
    },
    "version": 1
  },
  "userdoc": {
    "kind": "user",
    "methods": {},
    "version": 1
  },
  "storageLayout": {
    "storage": [
      {
        "astId": 1101,
        "contract": "contracts/tokens/presets/ERC20BasicToken.sol:ERC20BasicToken",
        "label": "_initialized",
        "offset": 0,
        "slot": "0",
        "type": "t_uint8"
      },
      {
        "astId": 1104,
        "contract": "contracts/tokens/presets/ERC20BasicToken.sol:ERC20BasicToken",
        "label": "_initializing",
        "offset": 1,
        "slot": "0",
        "type": "t_bool"
      },
      {
        "astId": 1409,
        "contract": "contracts/tokens/presets/ERC20BasicToken.sol:ERC20BasicToken",
        "label": "_balances",
        "offset": 0,
        "slot": "1",
        "type": "t_mapping(t_address,t_uint256)"
      },
      {
        "astId": 1415,
        "contract": "contracts/tokens/presets/ERC20BasicToken.sol:ERC20BasicToken",
        "label": "_allowances",
        "offset": 0,
        "slot": "2",
        "type": "t_mapping(t_address,t_mapping(t_address,t_uint256))"
      },
      {
        "astId": 1417,
        "contract": "contracts/tokens/presets/ERC20BasicToken.sol:ERC20BasicToken",
        "label": "_totalSupply",
        "offset": 0,
        "slot": "3",
        "type": "t_uint256"
      },
      {
        "astId": 1419,
        "contract": "contracts/tokens/presets/ERC20BasicToken.sol:ERC20BasicToken",
        "label": "_name",
        "offset": 0,
        "slot": "4",
        "type": "t_string_storage"
      },
      {
        "astId": 1421,
        "contract": "contracts/tokens/presets/ERC20BasicToken.sol:ERC20BasicToken",
        "label": "_symbol",
        "offset": 0,
        "slot": "5",
        "type": "t_string_storage"
      },
      {
        "astId": 1263,
        "contract": "contracts/tokens/presets/ERC20BasicToken.sol:ERC20BasicToken",
        "label": "_paused",
        "offset": 0,
        "slot": "6",
        "type": "t_bool"
      },
      {
        "astId": 561,
        "contract": "contracts/tokens/presets/ERC20BasicToken.sol:ERC20BasicToken",
        "label": "_roles",
        "offset": 0,
        "slot": "7",
        "type": "t_mapping(t_bytes32,t_struct(RoleData)556_storage)"
      },
      {
        "astId": 21055,
        "contract": "contracts/tokens/presets/ERC20BasicToken.sol:ERC20BasicToken",
        "label": "_name",
        "offset": 0,
        "slot": "8",
        "type": "t_string_storage"
      },
      {
        "astId": 21057,
        "contract": "contracts/tokens/presets/ERC20BasicToken.sol:ERC20BasicToken",
        "label": "_symbol",
        "offset": 0,
        "slot": "9",
        "type": "t_string_storage"
      }
    ],
    "types": {
      "t_address": {
        "encoding": "inplace",
        "label": "address",
        "numberOfBytes": "20"
      },
      "t_bool": {
        "encoding": "inplace",
        "label": "bool",
        "numberOfBytes": "1"
      },
      "t_bytes32": {
        "encoding": "inplace",
        "label": "bytes32",
        "numberOfBytes": "32"
      },
      "t_mapping(t_address,t_bool)": {
        "encoding": "mapping",
        "key": "t_address",
        "label": "mapping(address => bool)",
        "numberOfBytes": "32",
        "value": "t_bool"
      },
      "t_mapping(t_address,t_mapping(t_address,t_uint256))": {
        "encoding": "mapping",
        "key": "t_address",
        "label": "mapping(address => mapping(address => uint256))",
        "numberOfBytes": "32",
        "value": "t_mapping(t_address,t_uint256)"
      },
      "t_mapping(t_address,t_uint256)": {
        "encoding": "mapping",
        "key": "t_address",
        "label": "mapping(address => uint256)",
        "numberOfBytes": "32",
        "value": "t_uint256"
      },
      "t_mapping(t_bytes32,t_struct(RoleData)556_storage)": {
        "encoding": "mapping",
        "key": "t_bytes32",
        "label": "mapping(bytes32 => struct AccessControl.RoleData)",
        "numberOfBytes": "32",
        "value": "t_struct(RoleData)556_storage"
      },
      "t_string_storage": {
        "encoding": "bytes",
        "label": "string",
        "numberOfBytes": "32"
      },
      "t_struct(RoleData)556_storage": {
        "encoding": "inplace",
        "label": "struct AccessControl.RoleData",
        "members": [
          {
            "astId": 553,
            "contract": "contracts/tokens/presets/ERC20BasicToken.sol:ERC20BasicToken",
            "label": "members",
            "offset": 0,
            "slot": "0",
            "type": "t_mapping(t_address,t_bool)"
          },
          {
            "astId": 555,
            "contract": "contracts/tokens/presets/ERC20BasicToken.sol:ERC20BasicToken",
            "label": "adminRole",
            "offset": 0,
            "slot": "1",
            "type": "t_bytes32"
          }
        ],
        "numberOfBytes": "64"
      },
      "t_uint256": {
        "encoding": "inplace",
        "label": "uint256",
        "numberOfBytes": "32"
      },
      "t_uint8": {
        "encoding": "inplace",
        "label": "uint8",
        "numberOfBytes": "1"
      }
    }
  }
}