{
  "address": "0xbCA6631a5aA3AE727195756bcfB997eBC23BFB41",
  "abi": [
    {
      "anonymous": false,
      "inputs": [
        {
          "indexed": true,
          "internalType": "bytes32",
          "name": "role",
          "type": "bytes32"
        },
        {
          "indexed": true,
          "internalType": "bytes32",
          "name": "previousAdminRole",
          "type": "bytes32"
        },
        {
          "indexed": true,
          "internalType": "bytes32",
          "name": "newAdminRole",
          "type": "bytes32"
        }
      ],
      "name": "RoleAdminChanged",
      "type": "event"
    },
    {
      "anonymous": false,
      "inputs": [
        {
          "indexed": true,
          "internalType": "bytes32",
          "name": "role",
          "type": "bytes32"
        },
        {
          "indexed": true,
          "internalType": "address",
          "name": "account",
          "type": "address"
        },
        {
          "indexed": true,
          "internalType": "address",
          "name": "sender",
          "type": "address"
        }
      ],
      "name": "RoleGranted",
      "type": "event"
    },
    {
      "anonymous": false,
      "inputs": [
        {
          "indexed": true,
          "internalType": "bytes32",
          "name": "role",
          "type": "bytes32"
        },
        {
          "indexed": true,
          "internalType": "address",
          "name": "account",
          "type": "address"
        },
        {
          "indexed": true,
          "internalType": "address",
          "name": "sender",
          "type": "address"
        }
      ],
      "name": "RoleRevoked",
      "type": "event"
    },
    {
      "inputs": [],
      "name": "DEFAULT_ADMIN_ROLE",
      "outputs": [
        {
          "internalType": "bytes32",
          "name": "",
          "type": "bytes32"
        }
      ],
      "stateMutability": "view",
      "type": "function"
    },
    {
      "inputs": [],
      "name": "LOCKER_ROLE",
      "outputs": [
        {
          "internalType": "bytes32",
          "name": "",
          "type": "bytes32"
        }
      ],
      "stateMutability": "view",
      "type": "function"
    },
    {
      "inputs": [
        {
          "internalType": "uint256",
          "name": "id",
          "type": "uint256"
        }
      ],
      "name": "lockByRole",
      "outputs": [],
      "stateMutability": "nonpayable",
      "type": "function"
    },
    {
      "inputs": [
        {
          "internalType": "uint256[]",
          "name": "ids",
          "type": "uint256[]"
        }
      ],
      "name": "lockByRole",
      "outputs": [],
      "stateMutability": "nonpayable",
      "type": "function"
    },
    {
      "inputs": [
        {
          "internalType": "uint256",
          "name": "id",
          "type": "uint256"
        }
      ],
      "name": "unlockByRole",
      "outputs": [],
      "stateMutability": "nonpayable",
      "type": "function"
    },
    {
      "inputs": [
        {
          "internalType": "uint256[]",
          "name": "ids",
          "type": "uint256[]"
        }
      ],
      "name": "unlockByRole",
      "outputs": [],
      "stateMutability": "nonpayable",
      "type": "function"
    }
  ],
  "transactionHash": "0x8f81682d24db48f31c931d1b8fa9247bf265a7347a3d841b6fb0ed15531b3d4f",
  "args": [],
  "numDeployments": 1,
  "solcInputHash": "e2f42af2f5273c7308f3825761226b47",
  "bytecode": "0x608060405234801561001057600080fd5b506108ab806100206000396000f3fe608060405234801561001057600080fd5b50600436106100725760003560e01c80635b5cc735116100505780635b5cc735146100b2578063a217fddf146100c5578063f3621367146100df57600080fd5b80631893a98f14610077578063391c5bc51461008c578063523e71151461009f575b600080fd5b61008a6100853660046105e6565b610106565b005b61008a61009a3660046105e6565b61019f565b61008a6100ad366004610615565b610206565b61008a6100c0366004610615565b61026c565b6100cd600081565b60405190815260200160405180910390f35b6100cd7faf9a8bb3cbd6b84fbccefa71ff73e26e798553c6914585a84886212a46a9027981565b7faf9a8bb3cbd6b84fbccefa71ff73e26e798553c6914585a84886212a46a90279610130816102d2565b6040517f856e31c100000000000000000000000000000000000000000000000000000000815260048101839052309063856e31c1906024015b600060405180830381600087803b15801561018357600080fd5b505af1158015610197573d6000803e3d6000fd5b505050505050565b7faf9a8bb3cbd6b84fbccefa71ff73e26e798553c6914585a84886212a46a902796101c9816102d2565b6040517fc7d1bc8300000000000000000000000000000000000000000000000000000000815260048101839052309063c7d1bc8390602401610169565b7faf9a8bb3cbd6b84fbccefa71ff73e26e798553c6914585a84886212a46a90279610230816102d2565b6040517f4a371f640000000000000000000000000000000000000000000000000000000081523090634a371f64906101699085906004016106d3565b7faf9a8bb3cbd6b84fbccefa71ff73e26e798553c6914585a84886212a46a90279610296816102d2565b6040517ff9497f34000000000000000000000000000000000000000000000000000000008152309063f9497f34906101699085906004016106d3565b6102dc81336102df565b50565b60008281527f2e59e4c2e927cdddbb64e181e0668d9a0fa70dd88f94d999cd87d5496a20da626020908152604080832073ffffffffffffffffffffffffffffffffffffffff8516845290915290205460ff166103895761033e8161038d565b6103498360206103b6565b60405160200161035a929190610747565b60408051601f198184030181529082905262461bcd60e51b8252610380916004016107c8565b60405180910390fd5b5050565b60606103b073ffffffffffffffffffffffffffffffffffffffff831660146103b6565b92915050565b606060006103c5836002610811565b6103d0906002610830565b67ffffffffffffffff8111156103e8576103e86105ff565b6040519080825280601f01601f191660200182016040528015610412576020820181803683370190505b5090507f30000000000000000000000000000000000000000000000000000000000000008160008151811061044957610449610848565b60200101907effffffffffffffffffffffffffffffffffffffffffffffffffffffffffffff1916908160001a9053507f7800000000000000000000000000000000000000000000000000000000000000816001815181106104ac576104ac610848565b60200101907effffffffffffffffffffffffffffffffffffffffffffffffffffffffffffff1916908160001a90535060006104e8846002610811565b6104f3906001610830565b90505b6001811115610590577f303132333435363738396162636465660000000000000000000000000000000085600f166010811061053457610534610848565b1a60f81b82828151811061054a5761054a610848565b60200101907effffffffffffffffffffffffffffffffffffffffffffffffffffffffffffff1916908160001a90535060049490941c936105898161085e565b90506104f6565b5083156105df5760405162461bcd60e51b815260206004820181905260248201527f537472696e67733a20686578206c656e67746820696e73756666696369656e746044820152606401610380565b9392505050565b6000602082840312156105f857600080fd5b5035919050565b634e487b7160e01b600052604160045260246000fd5b6000602080838503121561062857600080fd5b823567ffffffffffffffff8082111561064057600080fd5b818501915085601f83011261065457600080fd5b813581811115610666576106666105ff565b8060051b604051601f19603f8301168101818110858211171561068b5761068b6105ff565b6040529182528482019250838101850191888311156106a957600080fd5b938501935b828510156106c7578435845293850193928501926106ae565b98975050505050505050565b6020808252825182820181905260009190848201906040850190845b8181101561070b578351835292840192918401916001016106ef565b50909695505050505050565b60005b8381101561073257818101518382015260200161071a565b83811115610741576000848401525b50505050565b7f416363657373436f6e74726f6c3a206163636f756e742000000000000000000081526000835161077f816017850160208801610717565b7f206973206d697373696e6720726f6c652000000000000000000000000000000060179184019182015283516107bc816028840160208801610717565b01602801949350505050565b60208152600082518060208401526107e7816040850160208701610717565b601f01601f19169190910160400192915050565b634e487b7160e01b600052601160045260246000fd5b600081600019048311821515161561082b5761082b6107fb565b500290565b60008219821115610843576108436107fb565b500190565b634e487b7160e01b600052603260045260246000fd5b60008161086d5761086d6107fb565b50600019019056fea264697066735822122002b5bd022646a40ba0beb048e355c8b7e91676a35dd3f6a1dfe75014080918e564736f6c634300080f0033",
  "devdoc": {
    "custom:category": "NFTs",
    "custom:provides-interfaces": "IERC721LockableRoleBased",
    "custom:required-dependencies": "IERC721LockableExtension",
    "custom:type": "eip-2535-facet",
    "kind": "dev",
    "methods": {},
    "title": "ERC721 - Lock as role",
    "version": 1
  },
  "userdoc": {
    "kind": "user",
    "methods": {},
    "notice": "Allow locking tokens by any sender who has the LOCKER_ROLE.",
    "version": 1
  },
  "storageLayout": {
    "storage": [],
    "types": null
  }
}