{
  "address": "0xb6008DA1e10C37F3834F0bF466a168cd1Fc5A6A5",
  "abi": [
    {
      "inputs": [
        {
          "components": [
            {
              "internalType": "string",
              "name": "name",
              "type": "string"
            },
            {
              "internalType": "string",
              "name": "symbol",
              "type": "string"
            },
            {
              "internalType": "string",
              "name": "contractURI",
              "type": "string"
            },
            {
              "internalType": "uint256",
              "name": "maxSupply",
              "type": "uint256"
            },
            {
              "internalType": "address",
              "name": "defaultRoyaltyAddress",
              "type": "address"
            },
            {
              "internalType": "uint16",
              "name": "defaultRoyaltyBps",
              "type": "uint16"
            },
            {
              "internalType": "address",
              "name": "trustedForwarder",
              "type": "address"
            },
            {
              "internalType": "enum LicenseVersion",
              "name": "licenseVersion",
              "type": "uint8"
            }
          ],
          "internalType": "struct ERC721OneOfOneCollection.Config",
          "name": "config",
          "type": "tuple"
        }
      ],
      "stateMutability": "nonpayable",
      "type": "constructor"
    },
    {
      "anonymous": false,
      "inputs": [
        {
          "indexed": true,
          "internalType": "address",
          "name": "owner",
          "type": "address"
        },
        {
          "indexed": true,
          "internalType": "address",
          "name": "approved",
          "type": "address"
        },
        {
          "indexed": true,
          "internalType": "uint256",
          "name": "tokenId",
          "type": "uint256"
        }
      ],
      "name": "Approval",
      "type": "event"
    },
    {
      "anonymous": false,
      "inputs": [
        {
          "indexed": true,
          "internalType": "address",
          "name": "owner",
          "type": "address"
        },
        {
          "indexed": true,
          "internalType": "address",
          "name": "operator",
          "type": "address"
        },
        {
          "indexed": false,
          "internalType": "bool",
          "name": "approved",
          "type": "bool"
        }
      ],
      "name": "ApprovalForAll",
      "type": "event"
    },
    {
      "anonymous": false,
      "inputs": [
        {
          "indexed": false,
          "internalType": "address",
          "name": "recipient",
          "type": "address"
        },
        {
          "indexed": false,
          "internalType": "uint16",
          "name": "bps",
          "type": "uint16"
        }
      ],
      "name": "DefaultRoyaltySet",
      "type": "event"
    },
    {
      "anonymous": false,
      "inputs": [
        {
          "indexed": false,
          "internalType": "uint8",
          "name": "version",
          "type": "uint8"
        }
      ],
      "name": "Initialized",
      "type": "event"
    },
    {
      "anonymous": false,
      "inputs": [
        {
          "indexed": true,
          "internalType": "address",
          "name": "previousOwner",
          "type": "address"
        },
        {
          "indexed": true,
          "internalType": "address",
          "name": "newOwner",
          "type": "address"
        }
      ],
      "name": "OwnershipTransferred",
      "type": "event"
    },
    {
      "anonymous": false,
      "inputs": [
        {
          "indexed": true,
          "internalType": "bytes32",
          "name": "role",
          "type": "bytes32"
        },
        {
          "indexed": true,
          "internalType": "bytes32",
          "name": "previousAdminRole",
          "type": "bytes32"
        },
        {
          "indexed": true,
          "internalType": "bytes32",
          "name": "newAdminRole",
          "type": "bytes32"
        }
      ],
      "name": "RoleAdminChanged",
      "type": "event"
    },
    {
      "anonymous": false,
      "inputs": [
        {
          "indexed": true,
          "internalType": "bytes32",
          "name": "role",
          "type": "bytes32"
        },
        {
          "indexed": true,
          "internalType": "address",
          "name": "account",
          "type": "address"
        },
        {
          "indexed": true,
          "internalType": "address",
          "name": "sender",
          "type": "address"
        }
      ],
      "name": "RoleGranted",
      "type": "event"
    },
    {
      "anonymous": false,
      "inputs": [
        {
          "indexed": true,
          "internalType": "bytes32",
          "name": "role",
          "type": "bytes32"
        },
        {
          "indexed": true,
          "internalType": "address",
          "name": "account",
          "type": "address"
        },
        {
          "indexed": true,
          "internalType": "address",
          "name": "sender",
          "type": "address"
        }
      ],
      "name": "RoleRevoked",
      "type": "event"
    },
    {
      "anonymous": false,
      "inputs": [
        {
          "indexed": false,
          "internalType": "uint256",
          "name": "tokenId",
          "type": "uint256"
        }
      ],
      "name": "TokenRoyaltyRemoved",
      "type": "event"
    },
    {
      "anonymous": false,
      "inputs": [
        {
          "indexed": false,
          "internalType": "uint256",
          "name": "tokenId",
          "type": "uint256"
        },
        {
          "indexed": false,
          "internalType": "address",
          "name": "recipient",
          "type": "address"
        },
        {
          "indexed": false,
          "internalType": "uint16",
          "name": "bps",
          "type": "uint16"
        }
      ],
      "name": "TokenRoyaltySet",
      "type": "event"
    },
    {
      "anonymous": false,
      "inputs": [
        {
          "indexed": true,
          "internalType": "address",
          "name": "from",
          "type": "address"
        },
        {
          "indexed": true,
          "internalType": "address",
          "name": "to",
          "type": "address"
        },
        {
          "indexed": true,
          "internalType": "uint256",
          "name": "tokenId",
          "type": "uint256"
        }
      ],
      "name": "Transfer",
      "type": "event"
    },
    {
      "inputs": [],
      "name": "DEFAULT_ADMIN_ROLE",
      "outputs": [
        {
          "internalType": "bytes32",
          "name": "",
          "type": "bytes32"
        }
      ],
      "stateMutability": "view",
      "type": "function"
    },
    {
      "inputs": [],
      "name": "MINTER_ROLE",
      "outputs": [
        {
          "internalType": "bytes32",
          "name": "",
          "type": "bytes32"
        }
      ],
      "stateMutability": "view",
      "type": "function"
    },
    {
      "inputs": [],
      "name": "_trustedForwarder",
      "outputs": [
        {
          "internalType": "address",
          "name": "",
          "type": "address"
        }
      ],
      "stateMutability": "view",
      "type": "function"
    },
    {
      "inputs": [
        {
          "internalType": "address",
          "name": "to",
          "type": "address"
        },
        {
          "internalType": "uint256",
          "name": "tokenId",
          "type": "uint256"
        }
      ],
      "name": "approve",
      "outputs": [],
      "stateMutability": "nonpayable",
      "type": "function"
    },
    {
      "inputs": [
        {
          "internalType": "address",
          "name": "owner",
          "type": "address"
        }
      ],
      "name": "balanceOf",
      "outputs": [
        {
          "internalType": "uint256",
          "name": "",
          "type": "uint256"
        }
      ],
      "stateMutability": "view",
      "type": "function"
    },
    {
      "inputs": [],
      "name": "contractURI",
      "outputs": [
        {
          "internalType": "string",
          "name": "",
          "type": "string"
        }
      ],
      "stateMutability": "view",
      "type": "function"
    },
    {
      "inputs": [],
      "name": "defaultRoyalty",
      "outputs": [
        {
          "internalType": "address",
          "name": "recipient",
          "type": "address"
        },
        {
          "internalType": "uint16",
          "name": "bps",
          "type": "uint16"
        }
      ],
      "stateMutability": "view",
      "type": "function"
    },
    {
      "inputs": [],
      "name": "freezeMaxSupply",
      "outputs": [],
      "stateMutability": "nonpayable",
      "type": "function"
    },
    {
      "inputs": [
        {
          "internalType": "uint256",
          "name": "_lastFrozenTokenId",
          "type": "uint256"
        }
      ],
      "name": "freezeTokenURIs",
      "outputs": [],
      "stateMutability": "nonpayable",
      "type": "function"
    },
    {
      "inputs": [
        {
          "internalType": "uint256",
          "name": "tokenId",
          "type": "uint256"
        }
      ],
      "name": "getApproved",
      "outputs": [
        {
          "internalType": "address",
          "name": "",
          "type": "address"
        }
      ],
      "stateMutability": "view",
      "type": "function"
    },
    {
      "inputs": [],
      "name": "getInfo",
      "outputs": [
        {
          "internalType": "uint256",
          "name": "_maxSupply",
          "type": "uint256"
        },
        {
          "internalType": "uint256",
          "name": "_totalSupply",
          "type": "uint256"
        },
        {
          "internalType": "uint256",
          "name": "_senderBalance",
          "type": "uint256"
        }
      ],
      "stateMutability": "view",
      "type": "function"
    },
    {
      "inputs": [],
      "name": "getLicenseName",
      "outputs": [
        {
          "internalType": "string",
          "name": "",
          "type": "string"
        }
      ],
      "stateMutability": "view",
      "type": "function"
    },
    {
      "inputs": [],
      "name": "getLicenseURI",
      "outputs": [
        {
          "internalType": "string",
          "name": "",
          "type": "string"
        }
      ],
      "stateMutability": "view",
      "type": "function"
    },
    {
      "inputs": [
        {
          "internalType": "uint256",
          "name": "id",
          "type": "uint256"
        }
      ],
      "name": "getRaribleV2Royalties",
      "outputs": [
        {
          "components": [
            {
              "internalType": "address payable",
              "name": "account",
              "type": "address"
            },
            {
              "internalType": "uint96",
              "name": "value",
              "type": "uint96"
            }
          ],
          "internalType": "struct LibPart.Part[]",
          "name": "result",
          "type": "tuple[]"
        }
      ],
      "stateMutability": "view",
      "type": "function"
    },
    {
      "inputs": [
        {
          "internalType": "bytes32",
          "name": "role",
          "type": "bytes32"
        }
      ],
      "name": "getRoleAdmin",
      "outputs": [
        {
          "internalType": "bytes32",
          "name": "",
          "type": "bytes32"
        }
      ],
      "stateMutability": "view",
      "type": "function"
    },
    {
      "inputs": [],
      "name": "getTokenRoyaltiesCount",
      "outputs": [
        {
          "internalType": "uint256",
          "name": "",
          "type": "uint256"
        }
      ],
      "stateMutability": "view",
      "type": "function"
    },
    {
      "inputs": [
        {
          "internalType": "uint256",
          "name": "index",
          "type": "uint256"
        }
      ],
      "name": "getTokenRoyaltyByIndex",
      "outputs": [
        {
          "components": [
            {
              "internalType": "uint256",
              "name": "tokenId",
              "type": "uint256"
            },
            {
              "internalType": "address",
              "name": "recipient",
              "type": "address"
            },
            {
              "internalType": "uint16",
              "name": "bps",
              "type": "uint16"
            }
          ],
          "internalType": "struct IEIP2981RoyaltyOverride.TokenRoyaltyConfig",
          "name": "",
          "type": "tuple"
        }
      ],
      "stateMutability": "view",
      "type": "function"
    },
    {
      "inputs": [
        {
          "internalType": "bytes32",
          "name": "role",
          "type": "bytes32"
        },
        {
          "internalType": "address",
          "name": "account",
          "type": "address"
        }
      ],
      "name": "grantRole",
      "outputs": [],
      "stateMutability": "nonpayable",
      "type": "function"
    },
    {
      "inputs": [
        {
          "internalType": "bytes32",
          "name": "role",
          "type": "bytes32"
        },
        {
          "internalType": "address",
          "name": "account",
          "type": "address"
        }
      ],
      "name": "hasRole",
      "outputs": [
        {
          "internalType": "bool",
          "name": "",
          "type": "bool"
        }
      ],
      "stateMutability": "view",
      "type": "function"
    },
    {
      "inputs": [
        {
          "components": [
            {
              "internalType": "string",
              "name": "name",
              "type": "string"
            },
            {
              "internalType": "string",
              "name": "symbol",
              "type": "string"
            },
            {
              "internalType": "string",
              "name": "contractURI",
              "type": "string"
            },
            {
              "internalType": "uint256",
              "name": "maxSupply",
              "type": "uint256"
            },
            {
              "internalType": "address",
              "name": "defaultRoyaltyAddress",
              "type": "address"
            },
            {
              "internalType": "uint16",
              "name": "defaultRoyaltyBps",
              "type": "uint16"
            },
            {
              "internalType": "address",
              "name": "trustedForwarder",
              "type": "address"
            },
            {
              "internalType": "enum LicenseVersion",
              "name": "licenseVersion",
              "type": "uint8"
            }
          ],
          "internalType": "struct ERC721OneOfOneCollection.Config",
          "name": "config",
          "type": "tuple"
        },
        {
          "internalType": "address",
          "name": "deployer",
          "type": "address"
        }
      ],
      "name": "initialize",
      "outputs": [],
      "stateMutability": "nonpayable",
      "type": "function"
    },
    {
      "inputs": [
        {
          "internalType": "address",
          "name": "owner",
          "type": "address"
        },
        {
          "internalType": "address",
          "name": "operator",
          "type": "address"
        }
      ],
      "name": "isApprovedForAll",
      "outputs": [
        {
          "internalType": "bool",
          "name": "",
          "type": "bool"
        }
      ],
      "stateMutability": "view",
      "type": "function"
    },
    {
      "inputs": [
        {
          "internalType": "address",
          "name": "forwarder",
          "type": "address"
        }
      ],
      "name": "isTrustedForwarder",
      "outputs": [
        {
          "internalType": "bool",
          "name": "",
          "type": "bool"
        }
      ],
      "stateMutability": "view",
      "type": "function"
    },
    {
      "inputs": [],
      "name": "lastFrozenTokenId",
      "outputs": [
        {
          "internalType": "uint256",
          "name": "",
          "type": "uint256"
        }
      ],
      "stateMutability": "view",
      "type": "function"
    },
    {
      "inputs": [],
      "name": "licenseVersion",
      "outputs": [
        {
          "internalType": "enum LicenseVersion",
          "name": "",
          "type": "uint8"
        }
      ],
      "stateMutability": "view",
      "type": "function"
    },
    {
      "inputs": [],
      "name": "licenseVersionLocked",
      "outputs": [
        {
          "internalType": "bool",
          "name": "",
          "type": "bool"
        }
      ],
      "stateMutability": "view",
      "type": "function"
    },
    {
      "inputs": [],
      "name": "lockLicenseVersion",
      "outputs": [],
      "stateMutability": "nonpayable",
      "type": "function"
    },
    {
      "inputs": [],
      "name": "maxSupply",
      "outputs": [
        {
          "internalType": "uint256",
          "name": "",
          "type": "uint256"
        }
      ],
      "stateMutability": "view",
      "type": "function"
    },
    {
      "inputs": [],
      "name": "maxSupplyFrozen",
      "outputs": [
        {
          "internalType": "bool",
          "name": "",
          "type": "bool"
        }
      ],
      "stateMutability": "view",
      "type": "function"
    },
    {
      "inputs": [
        {
          "internalType": "address",
          "name": "to",
          "type": "address"
        },
        {
          "internalType": "uint256",
          "name": "count",
          "type": "uint256"
        }
      ],
      "name": "mintByOwner",
      "outputs": [],
      "stateMutability": "nonpayable",
      "type": "function"
    },
    {
      "inputs": [
        {
          "internalType": "address",
          "name": "to",
          "type": "address"
        },
        {
          "internalType": "uint256",
          "name": "count",
          "type": "uint256"
        },
        {
          "internalType": "string[]",
          "name": "tokenURIs",
          "type": "string[]"
        }
      ],
      "name": "mintWithTokenURIsByOwner",
      "outputs": [],
      "stateMutability": "nonpayable",
      "type": "function"
    },
    {
      "inputs": [
        {
          "internalType": "address",
          "name": "to",
          "type": "address"
        },
        {
          "internalType": "uint256",
          "name": "count",
          "type": "uint256"
        },
        {
          "internalType": "string[]",
          "name": "tokenURIs",
          "type": "string[]"
        }
      ],
      "name": "mintWithTokenURIsByRole",
      "outputs": [],
      "stateMutability": "nonpayable",
      "type": "function"
    },
    {
      "inputs": [],
      "name": "name",
      "outputs": [
        {
          "internalType": "string",
          "name": "",
          "type": "string"
        }
      ],
      "stateMutability": "view",
      "type": "function"
    },
    {
      "inputs": [],
      "name": "owner",
      "outputs": [
        {
          "internalType": "address",
          "name": "",
          "type": "address"
        }
      ],
      "stateMutability": "view",
      "type": "function"
    },
    {
      "inputs": [
        {
          "internalType": "uint256",
          "name": "tokenId",
          "type": "uint256"
        }
      ],
      "name": "ownerOf",
      "outputs": [
        {
          "internalType": "address",
          "name": "",
          "type": "address"
        }
      ],
      "stateMutability": "view",
      "type": "function"
    },
    {
      "inputs": [],
      "name": "renounceOwnership",
      "outputs": [],
      "stateMutability": "nonpayable",
      "type": "function"
    },
    {
      "inputs": [
        {
          "internalType": "bytes32",
          "name": "role",
          "type": "bytes32"
        },
        {
          "internalType": "address",
          "name": "account",
          "type": "address"
        }
      ],
      "name": "renounceRole",
      "outputs": [],
      "stateMutability": "nonpayable",
      "type": "function"
    },
    {
      "inputs": [
        {
          "internalType": "bytes32",
          "name": "role",
          "type": "bytes32"
        },
        {
          "internalType": "address",
          "name": "account",
          "type": "address"
        }
      ],
      "name": "revokeRole",
      "outputs": [],
      "stateMutability": "nonpayable",
      "type": "function"
    },
    {
      "inputs": [
        {
          "internalType": "uint256",
          "name": "tokenId",
          "type": "uint256"
        },
        {
          "internalType": "uint256",
          "name": "value",
          "type": "uint256"
        }
      ],
      "name": "royaltyInfo",
      "outputs": [
        {
          "internalType": "address",
          "name": "",
          "type": "address"
        },
        {
          "internalType": "uint256",
          "name": "",
          "type": "uint256"
        }
      ],
      "stateMutability": "view",
      "type": "function"
    },
    {
      "inputs": [
        {
          "internalType": "address",
          "name": "from",
          "type": "address"
        },
        {
          "internalType": "address",
          "name": "to",
          "type": "address"
        },
        {
          "internalType": "uint256",
          "name": "tokenId",
          "type": "uint256"
        }
      ],
      "name": "safeTransferFrom",
      "outputs": [],
      "stateMutability": "nonpayable",
      "type": "function"
    },
    {
      "inputs": [
        {
          "internalType": "address",
          "name": "from",
          "type": "address"
        },
        {
          "internalType": "address",
          "name": "to",
          "type": "address"
        },
        {
          "internalType": "uint256",
          "name": "tokenId",
          "type": "uint256"
        },
        {
          "internalType": "bytes",
          "name": "data",
          "type": "bytes"
        }
      ],
      "name": "safeTransferFrom",
      "outputs": [],
      "stateMutability": "nonpayable",
      "type": "function"
    },
    {
      "inputs": [
        {
          "internalType": "address",
          "name": "operator",
          "type": "address"
        },
        {
          "internalType": "bool",
          "name": "approved",
          "type": "bool"
        }
      ],
      "name": "setApprovalForAll",
      "outputs": [],
      "stateMutability": "nonpayable",
      "type": "function"
    },
    {
      "inputs": [
        {
          "internalType": "string",
          "name": "newValue",
          "type": "string"
        }
      ],
      "name": "setContractURI",
      "outputs": [],
      "stateMutability": "nonpayable",
      "type": "function"
    },
    {
      "inputs": [
        {
          "components": [
            {
              "internalType": "address",
              "name": "recipient",
              "type": "address"
            },
            {
              "internalType": "uint16",
              "name": "bps",
              "type": "uint16"
            }
          ],
          "internalType": "struct IEIP2981RoyaltyOverride.TokenRoyalty",
          "name": "royalty",
          "type": "tuple"
        }
      ],
      "name": "setDefaultRoyalty",
      "outputs": [],
      "stateMutability": "nonpayable",
      "type": "function"
    },
    {
      "inputs": [
        {
          "internalType": "enum LicenseVersion",
          "name": "_licenseVersion",
          "type": "uint8"
        }
      ],
      "name": "setLicenseVersion",
      "outputs": [],
      "stateMutability": "nonpayable",
      "type": "function"
    },
    {
      "inputs": [
        {
          "internalType": "uint256",
          "name": "newValue",
          "type": "uint256"
        }
      ],
      "name": "setMaxSupply",
      "outputs": [],
      "stateMutability": "nonpayable",
      "type": "function"
    },
    {
      "inputs": [
        {
          "components": [
            {
              "internalType": "uint256",
              "name": "tokenId",
              "type": "uint256"
            },
            {
              "internalType": "address",
              "name": "recipient",
              "type": "address"
            },
            {
              "internalType": "uint16",
              "name": "bps",
              "type": "uint16"
            }
          ],
          "internalType": "struct IEIP2981RoyaltyOverride.TokenRoyaltyConfig[]",
          "name": "royaltyConfigs",
          "type": "tuple[]"
        }
      ],
      "name": "setTokenRoyalties",
      "outputs": [],
      "stateMutability": "nonpayable",
      "type": "function"
    },
    {
      "inputs": [
        {
          "internalType": "uint256",
          "name": "tokenId",
          "type": "uint256"
        },
        {
          "internalType": "string",
          "name": "tokenURI",
          "type": "string"
        }
      ],
      "name": "setTokenURI",
      "outputs": [],
      "stateMutability": "nonpayable",
      "type": "function"
    },
    {
      "inputs": [
        {
          "internalType": "address",
          "name": "trustedForwarder",
          "type": "address"
        }
      ],
      "name": "setTrustedForwarder",
      "outputs": [],
      "stateMutability": "nonpayable",
      "type": "function"
    },
    {
      "inputs": [
        {
          "internalType": "bytes4",
          "name": "interfaceId",
          "type": "bytes4"
        }
      ],
      "name": "supportsInterface",
      "outputs": [
        {
          "internalType": "bool",
          "name": "",
          "type": "bool"
        }
      ],
      "stateMutability": "view",
      "type": "function"
    },
    {
      "inputs": [],
      "name": "symbol",
      "outputs": [
        {
          "internalType": "string",
          "name": "",
          "type": "string"
        }
      ],
      "stateMutability": "view",
      "type": "function"
    },
    {
      "inputs": [
        {
          "internalType": "uint256",
          "name": "_tokenId",
          "type": "uint256"
        }
      ],
      "name": "tokenURI",
      "outputs": [
        {
          "internalType": "string",
          "name": "",
          "type": "string"
        }
      ],
      "stateMutability": "view",
      "type": "function"
    },
    {
      "inputs": [],
      "name": "totalSupply",
      "outputs": [
        {
          "internalType": "uint256",
          "name": "",
          "type": "uint256"
        }
      ],
      "stateMutability": "view",
      "type": "function"
    },
    {
      "inputs": [
        {
          "internalType": "address",
          "name": "from",
          "type": "address"
        },
        {
          "internalType": "address",
          "name": "to",
          "type": "address"
        },
        {
          "internalType": "uint256",
          "name": "tokenId",
          "type": "uint256"
        }
      ],
      "name": "transferFrom",
      "outputs": [],
      "stateMutability": "nonpayable",
      "type": "function"
    },
    {
      "inputs": [
        {
          "internalType": "address",
          "name": "newOwner",
          "type": "address"
        }
      ],
      "name": "transferOwnership",
      "outputs": [],
      "stateMutability": "nonpayable",
      "type": "function"
    }
  ],
  "transactionHash": "0x95e824b23fcb220d368f0683e9424cf2269ef60688581e64ff79fb684b8fb790",
  "args": [
    {
      "name": "Collection",
      "symbol": "COL",
      "contractURI": "ipfs://contractURI",
      "maxSupply": 0,
      "defaultRoyaltyAddress": "0x0000000000000000000000000000000000000000",
      "defaultRoyaltyBps": 0,
      "trustedForwarder": "0x0000000000000000000000000000000000000000",
      "licenseVersion": 0
    }
  ],
  "numDeployments": 10,
  "solcInputHash": "566a0f9c34adea2cf6e488037c8e96bc",
  "bytecode": "0x60806040526000600f553480156200001657600080fd5b506040516200489938038062004899833981016040819052620000399162000b75565b8051602082015160046200005662000050620000b8565b620000d4565b6002805482919060ff1916600183600581111562000078576200007862000c8e565b0217905550600490506200008d838262000d32565b5060056200009c828262000d32565b505050620000b181336200012f60201b60201c565b5062000e49565b6000620000cf6200031e60201b620014a11760201c565b905090565b600080546001600160a01b038381166201000081810262010000600160b01b0319851617855560405193049190911692909183917f8be0079c531659141344cd1fd0a4f28419497f9722a3daafe3b4186f6b6457e091a35050565b600054610100900460ff1615808015620001505750600054600160ff909116105b806200018057506200016d306200035660201b620014c31760201c565b15801562000180575060005460ff166001145b620001e95760405162461bcd60e51b815260206004820152602e60248201527f496e697469616c697a61626c653a20636f6e747261637420697320616c72656160448201526d191e481a5b9a5d1a585b1a5e995960921b60648201526084015b60405180910390fd5b6000805460ff1916600117905580156200020d576000805461ff0019166101001790555b6200021a60008362000365565b620002467f9f2df0fed2c77648de5860a4cc508cd0818c85b8b8a1ab4ceeef8d981c8956a68362000365565b6200025182620000d4565b60e0830151620002619062000375565b8251602084015160408501516200027a929190620003ad565b62000284620003e4565b6200028e6200041a565b620002986200044e565b6060830151620002a89062000482565b620002c283608001518460a00151620004b760201b60201c565b60c0830151620002d290620004ed565b801562000319576000805461ff0019169055604051600181527f7f26b83ff96e1f2b6a682f133852f6798a09c465da95921460cefb38474024989060200160405180910390a15b505050565b6016546000906001600160a01b0316330362000341575060131936013560601c90565b620000cf6200052260201b620014d21760201c565b6001600160a01b03163b151590565b62000371828262000526565b5050565b600054610100900460ff166200039f5760405162461bcd60e51b8152600401620001e09062000dfe565b620003aa81620005cc565b50565b600054610100900460ff16620003d75760405162461bcd60e51b8152600401620001e09062000dfe565b6200031983838362000644565b600054610100900460ff166200040e5760405162461bcd60e51b8152600401620001e09062000dfe565b62000418620006d1565b565b600054610100900460ff16620004445760405162461bcd60e51b8152600401620001e09062000dfe565b620004186200070d565b600054610100900460ff16620004785760405162461bcd60e51b8152600401620001e09062000dfe565b6200041862000749565b600054610100900460ff16620004ac5760405162461bcd60e51b8152600401620001e09062000dfe565b620003aa8162000785565b600054610100900460ff16620004e15760405162461bcd60e51b8152600401620001e09062000dfe565b620003718282620007d8565b600054610100900460ff16620005175760405162461bcd60e51b8152600401620001e09062000dfe565b620003aa8162000875565b3390565b60008281526003602090815260408083206001600160a01b038516845290915290205460ff16620003715760008281526003602090815260408083206001600160a01b03851684529091529020805460ff1916600117905562000588620000b8565b6001600160a01b0316816001600160a01b0316837f2f8788117e7eff1d82e926ec794901d17c78024a50270940304540a733656f0d60405160405180910390a45050565b600054610100900460ff16620005f65760405162461bcd60e51b8152600401620001e09062000dfe565b6200060863b964efe960e01b620008c1565b6200061a630c934a3560e31b620008c1565b6002805482919060ff191660018360058111156200063c576200063c62000c8e565b021790555050565b600054610100900460ff166200066e5760405162461bcd60e51b8152600401620001e09062000dfe565b600a6200067c848262000d32565b50600b6200068b838262000d32565b50600c6200069a828262000d32565b50620006ad633d96f4ff60e11b620008c1565b620006bf6380ac58cd60e01b620008c1565b62000319635b5e139f60e01b620008c1565b600054610100900460ff16620006fb5760405162461bcd60e51b8152600401620001e09062000dfe565b62000418632929b36760e11b620008c1565b600054610100900460ff16620007375760405162461bcd60e51b8152600401620001e09062000dfe565b62000418631aa1577160e11b620008c1565b600054610100900460ff16620007735760405162461bcd60e51b8152600401620001e09062000dfe565b62000418630d169dbf60e31b620008c1565b600054610100900460ff16620007af5760405162461bcd60e51b8152600401620001e09062000dfe565b600d819055620007c66330f487b560e11b620008c1565b620003aa6380ac58cd60e01b620008c1565b600054610100900460ff16620008025760405162461bcd60e51b8152600401620001e09062000dfe565b62000814633a47bf5160e11b620008c1565b6200082663152a902d60e11b620008c1565b6200083863c69dbd8f60e01b620008c1565b6200084a63656cb66560e11b620008c1565b604080518082019091526001600160a01b038316815261ffff82166020820152620003198162000945565b600054610100900460ff166200089f5760405162461bcd60e51b8152600401620001e09062000dfe565b601680546001600160a01b0319166001600160a01b0392909216919091179055565b6001600160e01b031980821690036200091d5760405162461bcd60e51b815260206004820152601c60248201527f4552433136353a20696e76616c696420696e74657266616365206964000000006044820152606401620001e0565b6001600160e01b0319166000908152600160208190526040909120805460ff19169091179055565b612710816020015161ffff16106200098e5760405162461bcd60e51b815260206004820152600b60248201526a496e76616c69642062707360a81b6044820152606401620001e0565b60408051808201825282516001600160a01b03168082526020808501805161ffff169190930181905260128054600160a01b9092026001600160b01b03199092169092171790558251905191517f2c5ea6e4103e78cb101e796fb2dace540362fc542cbff5145eaa24af7dd8fe419262000a2092916001600160a01b0392909216825261ffff16602082015260400190565b60405180910390a150565b634e487b7160e01b600052604160045260246000fd5b60405161010081016001600160401b038111828210171562000a675762000a6762000a2b565b60405290565b604051601f8201601f191681016001600160401b038111828210171562000a985762000a9862000a2b565b604052919050565b600082601f83011262000ab257600080fd5b81516001600160401b0381111562000ace5762000ace62000a2b565b602062000ae4601f8301601f1916820162000a6d565b828152858284870101111562000af957600080fd5b60005b8381101562000b1957858101830151828201840152820162000afc565b8381111562000b2b5760008385840101525b5095945050505050565b80516001600160a01b038116811462000b4d57600080fd5b919050565b805161ffff8116811462000b4d57600080fd5b80516006811062000b4d57600080fd5b60006020828403121562000b8857600080fd5b81516001600160401b038082111562000ba057600080fd5b90830190610100828603121562000bb657600080fd5b62000bc062000a41565b82518281111562000bd057600080fd5b62000bde8782860162000aa0565b82525060208301518281111562000bf457600080fd5b62000c028782860162000aa0565b60208301525060408301518281111562000c1b57600080fd5b62000c298782860162000aa0565b6040830152506060830151606082015262000c476080840162000b35565b608082015262000c5a60a0840162000b52565b60a082015262000c6d60c0840162000b35565b60c082015262000c8060e0840162000b65565b60e082015295945050505050565b634e487b7160e01b600052602160045260246000fd5b600181811c9082168062000cb957607f821691505b60208210810362000cda57634e487b7160e01b600052602260045260246000fd5b50919050565b601f8211156200031957600081815260208120601f850160051c8101602086101562000d095750805b601f850160051c820191505b8181101562000d2a5782815560010162000d15565b505050505050565b81516001600160401b0381111562000d4e5762000d4e62000a2b565b62000d668162000d5f845462000ca4565b8462000ce0565b602080601f83116001811462000d9e576000841562000d855750858301515b600019600386901b1c1916600185901b17855562000d2a565b600085815260208120601f198616915b8281101562000dcf5788860151825594840194600190910190840162000dae565b508582101562000dee5787850151600019600388901b60f8161c191681555b5050505050600190811b01905550565b6020808252602b908201527f496e697469616c697a61626c653a20636f6e7472616374206973206e6f74206960408201526a6e697469616c697a696e6760a81b606082015260800190565b613a408062000e596000396000f3fe608060405234801561001057600080fd5b50600436106102825760003560e01c80637885fdc7116101585780637885fdc7146104fc5780637e9803421461052a5780638da5cb5b146105325780638e28cf981461053a57806391d148541461054d578063938e3d7b1461056057806394bb53f81461057357806395d89b4114610586578063a217fddf1461058e578063a22cb46514610596578063a341793b146105a9578063b88d4fde146105b1578063b89df8e8146105c4578063bf9b7a57146105cd578063c7db2893146105df578063c87b56dd146105e7578063cad96cca146105fa578063d53913931461061a578063d547741f1461062f578063d5abeb0114610642578063da7422281461064b578063dd89c6fa1461065e578063e8a3d48514610666578063e985e9c51461066e578063ef60ceaf14610681578063f2fde38b14610694578063f384702f146106a757600080fd5b806301ffc9a7146102875780630653aca5146102af57806306fdde03146102f1578063081812fc14610306578063095ea7b314610326578063162094c41461033b578063167446071461034e57806318160ddd1461035657806323b872dd14610368578063248a9ca31461037b5780632a55205a1461038e5780632ee774bd146103c05780632f2ff15d146103d35780633542aee2146103e657806336568abe146103f957806342842e0e1461040c5780634473f20a1461041f57806350a5292f146104325780635136dcc71461044c57806356c022bb1461045f578063572b6c05146104725780635a9b0b89146104855780636352211e146104a857806364ed2913146104bb5780636f8b44b0146104ce57806370a08231146104e1578063715018a6146104f4575b600080fd5b61029a610295366004612cff565b6106b4565b60405190151581526020015b60405180910390f35b6102c26102bd366004612d1c565b6106c5565b60408051825181526020808401516001600160a01b0316908201529181015161ffff16908201526060016102a6565b6102f961074a565b6040516102a69190612d8d565b610319610314366004612d1c565b610759565b6040516102a69190612da0565b610339610334366004612dcb565b610780565b005b610339610349366004612edb565b6108ac565b6103396108e3565b600f545b6040519081526020016102a6565b610339610376366004612f21565b6108fa565b61035a610389366004612d1c565b610932565b6103a161039c366004612f5d565b610947565b604080516001600160a01b0390931683526020830191909152016102a6565b6103396103ce366004612f7f565b610a0c565b6103396103e136600461305d565b610a71565b6103396103f4366004612dcb565b610a8d565b61033961040736600461305d565b610a9f565b61033961041a366004612f21565b610b29565b61033961042d366004612d1c565b610b44565b60025461043f9060ff1681565b6040516102a6919061309f565b61033961045a3660046130c7565b610b94565b601654610319906001600160a01b031681565b61029a61048036600461313b565b610bf7565b61048d610c0b565b604080519384526020840192909252908201526060016102a6565b6103196104b6366004612d1c565b610d06565b6103396104c9366004613165565b610d3b565b6103396104dc366004612d1c565b610db3565b61035a6104ef36600461313b565b610e29565b610339610eaf565b60125461051c906001600160a01b03811690600160a01b900461ffff1682565b6040516102a6929190613180565b61035a610ec3565b610319610ecf565b610339610548366004612f7f565b610ee4565b61029a61055b36600461305d565b610f73565b61033961056e36600461319d565b610f9e565b6103396105813660046131e3565b610fb2565b6102f9611157565b61035a600081565b6103396105a43660046132ef565b611161565b6102f9611173565b6103396105bf36600461332b565b611185565b61035a60115481565b60025461029a90610100900460ff1681565b6102f96111c4565b6102f96105f5366004612d1c565b611224565b61060d610608366004612d1c565b61122f565b6040516102a691906133a6565b61035a6000805160206139eb83398151915281565b61033961063d36600461305d565b6112ea565b61035a600d5481565b61033961065936600461313b565b611306565b610339611330565b6102f9611349565b61029a61067c366004613407565b6113db565b61033961068f366004613431565b611409565b6103396106a236600461313b565b61142b565b600e5461029a9060ff1681565b60006106bf826114d6565b92915050565b60408051606081018252600080825260208201819052918101829052906106ed601484611512565b6000818152601360209081526040918290208251808401845290546001600160a01b03808216835261ffff600160a01b90920482168385019081528551606081018752968752925116928501929092525116908201529392505050565b6060610754611525565b905090565b600061076482611534565b506000908152600860205260409020546001600160a01b031690565b600061078b82610d06565b9050806001600160a01b0316836001600160a01b0316036107fd5760405162461bcd60e51b815260206004820152602160248201527f4552433732313a20617070726f76616c20746f2063757272656e74206f776e656044820152603960f91b60648201526084015b60405180910390fd5b806001600160a01b031661080f611559565b6001600160a01b0316148061082b575061082b8161067c611559565b61089d5760405162461bcd60e51b815260206004820152603e60248201527f4552433732313a20617070726f76652063616c6c6572206973206e6f7420746f60448201527f6b656e206f776e6572206e6f7220617070726f76656420666f7220616c6c000060648201526084016107f4565b6108a78383611563565b505050565b6108b46115d1565b60115482116108d55760405162461bcd60e51b81526004016107f490613449565b6108df8282611640565b5050565b6108eb6115d1565b600e805460ff19166001179055565b61090b610905611559565b826116c4565b6109275760405162461bcd60e51b81526004016107f490613469565b6108a7838383611723565b60009081526003602052604090206001015490565b60008281526013602052604081205481906001600160a01b0316156109ac576000848152601360205260409020546001600160a01b038116906127109061099990600160a01b900461ffff16866134cd565b6109a39190613502565b91509150610a05565b6012546001600160a01b0316158015906109d25750601254600160a01b900461ffff1615155b156109fe576012546001600160a01b038116906127109061099990600160a01b900461ffff16866134cd565b5060009050805b9250929050565b610a146115d1565b600f54610a2184846118bf565b60005b83811015610a6a57610a58610a398284613516565b848381518110610a4b57610a4b61352e565b6020026020010151611640565b80610a6281613544565b915050610a24565b5050505050565b610a7a82610932565b610a8381611948565b6108a78383611959565b610a956115d1565b6108df82826118bf565b610aa7611559565b6001600160a01b0316816001600160a01b031614610b1f5760405162461bcd60e51b815260206004820152602f60248201527f416363657373436f6e74726f6c3a2063616e206f6e6c792072656e6f756e636560448201526e103937b632b9903337b91039b2b63360891b60648201526084016107f4565b6108df82826119e0565b6108a783838360405180602001604052806000815250611185565b610b4c6115d1565b6011548111610b8f5760405162461bcd60e51b815260206004820152600f60248201526e43414e4e4f545f554e465245455a4560881b60448201526064016107f4565b601155565b610b9c6115d1565b6108df8282808060200260200160405190810160405280939291908181526020016000905b82821015610bed57610bde6060830286013681900381019061355d565b81526020019060010190610bc1565b5050505050611a65565b6016546001600160a01b0391821691161490565b600080808080610c19611559565b6001600160a01b031614610c9557306370a08231610c35611559565b6040518263ffffffff1660e01b8152600401610c519190612da0565b602060405180830381865afa158015610c6e573d6000803e3d6000fd5b505050506040513d601f19601f82011682018060405250810190610c9291906135c1565b90505b600d54306001600160a01b03166318160ddd6040518163ffffffff1660e01b8152600401602060405180830381865afa158015610cd6573d6000803e3d6000fd5b505050506040513d601f19601f82011682018060405250810190610cfa91906135c1565b90959094509092509050565b6000818152600660205260408120546001600160a01b0316806106bf5760405162461bcd60e51b81526004016107f4906135da565b610d436115d1565b600254610100900460ff1615610d8c5760405162461bcd60e51b815260206004820152600e60248201526d131250d15394d157d313d0d2d15160921b60448201526064016107f4565b6002805482919060ff19166001836005811115610dab57610dab613089565b021790555050565b610dbb6115d1565b600e5460ff1615610dde5760405162461bcd60e51b81526004016107f490613449565b600f54811015610e245760405162461bcd60e51b81526020600482015260116024820152704c4f5745525f5448414e5f535550504c5960781b60448201526064016107f4565b600d55565b60006001600160a01b038216610e935760405162461bcd60e51b815260206004820152602960248201527f4552433732313a2061646472657373207a65726f206973206e6f7420612076616044820152683634b21037bbb732b960b91b60648201526084016107f4565b506001600160a01b031660009081526007602052604090205490565b610eb76115d1565b610ec16000611c0c565b565b60006107546014611c67565b6000546201000090046001600160a01b031690565b610efe6000805160206139eb83398151915261055b611559565b610f3c5760405162461bcd60e51b815260206004820152600f60248201526e4e4f545f4d494e5445525f524f4c4560881b60448201526064016107f4565b600f54610f4984846118bf565b60005b83811015610a6a57610f61610a398284613516565b80610f6b81613544565b915050610f4c565b60009182526003602090815260408084206001600160a01b0393909316845291905290205460ff1690565b610fa66115d1565b600c6108df828261368e565b600054610100900460ff1615808015610fd25750600054600160ff909116105b80610ff35750610fe1306114c3565b158015610ff3575060005460ff166001145b6110565760405162461bcd60e51b815260206004820152602e60248201527f496e697469616c697a61626c653a20636f6e747261637420697320616c72656160448201526d191e481a5b9a5d1a585b1a5e995960921b60648201526084016107f4565b6000805460ff191660011790558015611079576000805461ff0019166101001790555b611084600083611c71565b61109c6000805160206139eb83398151915283611c71565b6110a582611c0c565b6110b28360e00151611c7b565b6110c9836000015184602001518560400151611cab565b6110d1611cdd565b6110d9611d0c565b6110e1611d3b565b6110ee8360600151611d6a565b61110083608001518460a00151611d9a565b61110d8360c00151611dcb565b80156108a7576000805461ff0019169055604051600181527f7f26b83ff96e1f2b6a682f133852f6798a09c465da95921460cefb38474024989060200160405180910390a1505050565b6060610754611dfb565b6108df61116c611559565b8383611e0a565b6002546060906107549060ff16611ed4565b611196611190611559565b836116c4565b6111b25760405162461bcd60e51b81526004016107f490613469565b6111be84848484612052565b50505050565b60606040518060600160405280603181526020016139ba603191396002546111ff9060ff1660058111156111fa576111fa613089565b612085565b60405160200161121092919061374d565b604051602081830303815290604052905090565b60606106bf82612185565b604080516001808252818301909252606091816020015b604080518082019091526000808252602082015281526020019060019003908161124657505060125481519192506001600160a01b031690829060009061128f5761128f61352e565b60209081029190910101516001600160a01b039190911690526012548151600160a01b90910461ffff169082906000906112cb576112cb61352e565b6020908102919091018101516001600160601b03909216910152919050565b6112f382610932565b6112fc81611948565b6108a783836119e0565b61130e6115d1565b601680546001600160a01b0319166001600160a01b0392909216919091179055565b6113386115d1565b6002805461ff001916610100179055565b6060600c80546113589061360c565b80601f01602080910402602001604051908101604052809291908181526020018280546113849061360c565b80156113d15780601f106113a6576101008083540402835291602001916113d1565b820191906000526020600020905b8154815290600101906020018083116113b457829003601f168201915b5050505050905090565b6001600160a01b03918216600090815260096020908152604080832093909416825291909152205460ff1690565b6114116115d1565b6114286114233683900383018361377c565b612190565b50565b6114336115d1565b6001600160a01b0381166114985760405162461bcd60e51b815260206004820152602660248201527f4f776e61626c653a206e6577206f776e657220697320746865207a65726f206160448201526564647265737360d01b60648201526084016107f4565b61142881611c0c565b60006114ac33610bf7565b156114be575060131936013560601c90565b503390565b6001600160a01b03163b151590565b3390565b60006301ffc9a760e01b6001600160e01b0319831614806106bf5750506001600160e01b03191660009081526001602052604090205460ff1690565b600061151e838361223b565b9392505050565b6060600a80546113589061360c565b61153d81612265565b6114285760405162461bcd60e51b81526004016107f4906135da565b60006107546114a1565b600081815260086020526040902080546001600160a01b0319166001600160a01b038416908117909155819061159882610d06565b6001600160a01b03167f8c5be1e5ebec7d5bd14f71427d1e84f3dd0314c0f7b2291e5b200ac8c7c3b92560405160405180910390a45050565b6115d9611559565b6001600160a01b03166115ea610ecf565b6001600160a01b031614610ec15760405162461bcd60e51b815260206004820181905260248201527f4f776e61626c653a2063616c6c6572206973206e6f7420746865206f776e657260448201526064016107f4565b61164982612265565b6116ac5760405162461bcd60e51b815260206004820152602e60248201527f45524337323155524953746f726167653a2055524920736574206f66206e6f6e60448201526d32bc34b9ba32b73a103a37b5b2b760911b60648201526084016107f4565b60008281526010602052604090206108a7828261368e565b6000806116d083610d06565b9050806001600160a01b0316846001600160a01b031614806116f757506116f781856113db565b8061171b5750836001600160a01b031661171084610759565b6001600160a01b0316145b949350505050565b826001600160a01b031661173682610d06565b6001600160a01b03161461179a5760405162461bcd60e51b815260206004820152602560248201527f4552433732313a207472616e736665722066726f6d20696e636f72726563742060448201526437bbb732b960d91b60648201526084016107f4565b6001600160a01b0382166117fc5760405162461bcd60e51b8152602060048201526024808201527f4552433732313a207472616e7366657220746f20746865207a65726f206164646044820152637265737360e01b60648201526084016107f4565b611807600082611563565b6001600160a01b03831660009081526007602052604081208054600192906118309084906137d6565b90915550506001600160a01b038216600090815260076020526040812080546001929061185e908490613516565b909155505060008181526006602052604080822080546001600160a01b0319166001600160a01b0386811691821790925591518493918716917fddf252ad1be2c89b69c2b068fc378daa952ba7f163c4a11628f55a4df523b3ef91a4505050565b600d54816118cc600f5490565b6118d69190613516565b11156119155760405162461bcd60e51b815260206004820152600e60248201526d455843454544535f535550504c5960901b60448201526064016107f4565b60005b818110156108a757600f5461192d8482612282565b61193561229c565b508061194081613544565b915050611918565b61142881611954611559565b6122b3565b6119638282610f73565b6108df5760008281526003602090815260408083206001600160a01b03851684529091529020805460ff1916600117905561199c611559565b6001600160a01b0316816001600160a01b0316837f2f8788117e7eff1d82e926ec794901d17c78024a50270940304540a733656f0d60405160405180910390a45050565b6119ea8282610f73565b156108df5760008281526003602090815260408083206001600160a01b03851684529091529020805460ff19169055611a21611559565b6001600160a01b0316816001600160a01b0316837ff6391f5c32d9c69d2a47ea670b442974b53935d1edc7fd64eb21e047a839171b60405160405180910390a45050565b60005b81518110156108df576000828281518110611a8557611a8561352e565b60200260200101519050612710816040015161ffff1610611ab85760405162461bcd60e51b81526004016107f4906137ed565b60208101516001600160a01b0316611b31578051600090815260136020526040902080546001600160b01b03191690558051611af690601490612317565b5080516040519081527fa2870857763bd9ae76c957f869f16b31c18dd3bb4c7b4d3a4496dc5c57c657f99060200160405180910390a1611bf9565b6040805180820182526020808401516001600160a01b0390811683528484015161ffff90811683850190815286516000908152601390945294909220925183549451909216600160a01b026001600160b01b03199094169116179190911790558051611b9f90601490612323565b50805160208083015160408085015181519485526001600160a01b039092169284019290925261ffff1682820152517f389b70fb0887f01e83784eb1c4c589f740eca53b00ed0f45e41db5d079719abb9181900360600190a15b5080611c0481613544565b915050611a68565b600080546001600160a01b038381166201000081810262010000600160b01b0319851617855560405193049190911692909183917f8be0079c531659141344cd1fd0a4f28419497f9722a3daafe3b4186f6b6457e091a35050565b60006106bf825490565b6108df8282611959565b600054610100900460ff16611ca25760405162461bcd60e51b81526004016107f490613812565b6114288161232f565b600054610100900460ff16611cd25760405162461bcd60e51b81526004016107f490613812565b6108a7838383612376565b600054610100900460ff16611d045760405162461bcd60e51b81526004016107f490613812565b610ec16123f4565b600054610100900460ff16611d335760405162461bcd60e51b81526004016107f490613812565b610ec161242b565b600054610100900460ff16611d625760405162461bcd60e51b81526004016107f490613812565b610ec1612462565b600054610100900460ff16611d915760405162461bcd60e51b81526004016107f490613812565b61142881612499565b600054610100900460ff16611dc15760405162461bcd60e51b81526004016107f490613812565b6108df82826124e5565b600054610100900460ff16611df25760405162461bcd60e51b81526004016107f490613812565b61142881612575565b6060600b80546113589061360c565b816001600160a01b0316836001600160a01b031603611e675760405162461bcd60e51b815260206004820152601960248201527822a9219b99189d1030b8383937bb32903a379031b0b63632b960391b60448201526064016107f4565b6001600160a01b03838116600081815260096020908152604080832094871680845294825291829020805460ff191686151590811790915591519182527f17307eab39ab6107e8899845ad3d59bd9653f200f220920489ca2b5937696c31910160405180910390a3505050565b60606006826005811115611eea57611eea613089565b60ff161115611ef857600080fd5b816005811115611f0a57611f0a613089565b600003611f3457505060408051808201909152600781526604342455f4343360cc1b602082015290565b816005811115611f4657611f46613089565b600103611f7057505060408051808201909152600781526621a122afa2a1a960c91b602082015290565b816005811115611f8257611f82613089565b600203611fad57505060408051808201909152600881526721a122afa722a1a960c11b602082015290565b816005811115611fbf57611fbf613089565b600303611fed57505060408051808201909152600b81526a4342455f4e4543525f485360a81b602082015290565b816005811115611fff57611fff613089565b60040361202857505060408051808201909152600681526521a122afa82960d11b602082015290565b50506040805180820190915260098152684342455f50525f485360b81b602082015290565b919050565b61205d848484611723565b6120698484848461259c565b6111be5760405162461bcd60e51b81526004016107f49061385d565b6060816000036120ac5750506040805180820190915260018152600360fc1b602082015290565b8160005b81156120d657806120c081613544565b91506120cf9050600a83613502565b91506120b0565b6000816001600160401b038111156120f0576120f0612df5565b6040519080825280601f01601f19166020018201604052801561211a576020820181803683370190505b5090505b841561171b5761212f6001836137d6565b915061213c600a866138af565b612147906030613516565b60f81b81838151811061215c5761215c61352e565b60200101906001600160f81b031916908160001a90535061217e600a86613502565b945061211e565b60606106bf826126ab565b612710816020015161ffff16106121b95760405162461bcd60e51b81526004016107f4906137ed565b60408051808201825282516001600160a01b03168082526020808501805161ffff1691909301819052601280546001600160b01b031916909217600160a01b9091021790558251905191517f2c5ea6e4103e78cb101e796fb2dace540362fc542cbff5145eaa24af7dd8fe41926122309291613180565b60405180910390a150565b60008260000182815481106122525761225261352e565b9060005260206000200154905092915050565b6000908152600660205260409020546001600160a01b0316151590565b6108df8282604051806020016040528060008152506127b3565b600f80549060006122ac83613544565b9190505550565b6122bd8282610f73565b6108df576122d5816001600160a01b031660146127e6565b6122e08360206127e6565b6040516020016122f19291906138c3565b60408051601f198184030181529082905262461bcd60e51b82526107f491600401612d8d565b600061151e8383612981565b600061151e8383612a74565b600054610100900460ff166123565760405162461bcd60e51b81526004016107f490613812565b61236663b964efe960e01b612ac3565b610d8c630c934a3560e31b612ac3565b600054610100900460ff1661239d5760405162461bcd60e51b81526004016107f490613812565b600a6123a9848261368e565b50600b6123b6838261368e565b50600c6123c3828261368e565b506123d4633d96f4ff60e11b612ac3565b6123e46380ac58cd60e01b612ac3565b6108a7635b5e139f60e01b612ac3565b600054610100900460ff1661241b5760405162461bcd60e51b81526004016107f490613812565b610ec1632929b36760e11b612ac3565b600054610100900460ff166124525760405162461bcd60e51b81526004016107f490613812565b610ec1631aa1577160e11b612ac3565b600054610100900460ff166124895760405162461bcd60e51b81526004016107f490613812565b610ec1630d169dbf60e31b612ac3565b600054610100900460ff166124c05760405162461bcd60e51b81526004016107f490613812565b600d8190556124d56330f487b560e11b612ac3565b6114286380ac58cd60e01b612ac3565b600054610100900460ff1661250c5760405162461bcd60e51b81526004016107f490613812565b61251c633a47bf5160e11b612ac3565b61252c63152a902d60e11b612ac3565b61253c63c69dbd8f60e01b612ac3565b61254c63656cb66560e11b612ac3565b604080518082019091526001600160a01b038316815261ffff821660208201526108a781612190565b600054610100900460ff1661130e5760405162461bcd60e51b81526004016107f490613812565b60006125b0846001600160a01b03166114c3565b156126a057836001600160a01b031663150b7a026125cc611559565b8786866040518563ffffffff1660e01b81526004016125ee9493929190613932565b6020604051808303816000875af1925050508015612629575060408051601f3d908101601f191682019092526126269181019061396f565b60015b612686573d808015612657576040519150601f19603f3d011682016040523d82523d6000602084013e61265c565b606091505b50805160000361267e5760405162461bcd60e51b81526004016107f49061385d565b805181602001fd5b6001600160e01b031916630a85bd0160e11b14905061171b565b506001949350505050565b60606126b682611534565b600082815260106020526040812080546126cf9061360c565b80601f01602080910402602001604051908101604052809291908181526020018280546126fb9061360c565b80156127485780601f1061271d57610100808354040283529160200191612748565b820191906000526020600020905b81548152906001019060200180831161272b57829003601f168201915b50505050509050600061276660408051602081019091526000815290565b90508051600003612778575092915050565b8151156127aa57808260405160200161279292919061374d565b60405160208183030381529060405292505050919050565b61171b84612b44565b6127bd8383612bb7565b6127ca600084848461259c565b6108a75760405162461bcd60e51b81526004016107f49061385d565b606060006127f58360026134cd565b612800906002613516565b6001600160401b0381111561281757612817612df5565b6040519080825280601f01601f191660200182016040528015612841576020820181803683370190505b509050600360fc1b8160008151811061285c5761285c61352e565b60200101906001600160f81b031916908160001a905350600f60fb1b8160018151811061288b5761288b61352e565b60200101906001600160f81b031916908160001a90535060006128af8460026134cd565b6128ba906001613516565b90505b6001811115612932576f181899199a1a9b1b9c1cb0b131b232b360811b85600f16601081106128ee576128ee61352e565b1a60f81b8282815181106129045761290461352e565b60200101906001600160f81b031916908160001a90535060049490941c9361292b8161398c565b90506128bd565b50831561151e5760405162461bcd60e51b815260206004820181905260248201527f537472696e67733a20686578206c656e67746820696e73756666696369656e7460448201526064016107f4565b60008181526001830160205260408120548015612a6a5760006129a56001836137d6565b85549091506000906129b9906001906137d6565b9050818114612a1e5760008660000182815481106129d9576129d961352e565b90600052602060002001549050808760000184815481106129fc576129fc61352e565b6000918252602080832090910192909255918252600188019052604090208390555b8554869080612a2f57612a2f6139a3565b6001900381819060005260206000200160009055905585600101600086815260200190815260200160002060009055600193505050506106bf565b60009150506106bf565b6000818152600183016020526040812054612abb575081546001818101845560008481526020808220909301849055845484825282860190935260409020919091556106bf565b5060006106bf565b6001600160e01b03198082169003612b1c5760405162461bcd60e51b815260206004820152601c60248201527b115490cc4d8d4e881a5b9d985b1a59081a5b9d195c999858d9481a5960221b60448201526064016107f4565b6001600160e01b0319166000908152600160208190526040909120805460ff19169091179055565b6060612b4f82611534565b6000612b6660408051602081019091526000815290565b90506000815111612b86576040518060200160405280600081525061151e565b80612b9084612085565b604051602001612ba192919061374d565b6040516020818303038152906040529392505050565b6001600160a01b038216612c0d5760405162461bcd60e51b815260206004820181905260248201527f4552433732313a206d696e7420746f20746865207a65726f206164647265737360448201526064016107f4565b612c1681612265565b15612c625760405162461bcd60e51b815260206004820152601c60248201527b115490cdcc8c4e881d1bdad95b88185b1c9958591e481b5a5b9d195960221b60448201526064016107f4565b6001600160a01b0382166000908152600760205260408120805460019290612c8b908490613516565b909155505060008181526006602052604080822080546001600160a01b0319166001600160a01b03861690811790915590518392907fddf252ad1be2c89b69c2b068fc378daa952ba7f163c4a11628f55a4df523b3ef908290a45050565b6001600160e01b03198116811461142857600080fd5b600060208284031215612d1157600080fd5b813561151e81612ce9565b600060208284031215612d2e57600080fd5b5035919050565b60005b83811015612d50578181015183820152602001612d38565b838111156111be5750506000910152565b60008151808452612d79816020860160208601612d35565b601f01601f19169290920160200192915050565b60208152600061151e6020830184612d61565b6001600160a01b0391909116815260200190565b80356001600160a01b038116811461204d57600080fd5b60008060408385031215612dde57600080fd5b612de783612db4565b946020939093013593505050565b634e487b7160e01b600052604160045260246000fd5b60405161010081016001600160401b0381118282101715612e2e57612e2e612df5565b60405290565b604051601f8201601f191681016001600160401b0381118282101715612e5c57612e5c612df5565b604052919050565b60006001600160401b03831115612e7d57612e7d612df5565b612e90601f8401601f1916602001612e34565b9050828152838383011115612ea457600080fd5b828260208301376000602084830101529392505050565b600082601f830112612ecc57600080fd5b61151e83833560208501612e64565b60008060408385031215612eee57600080fd5b8235915060208301356001600160401b03811115612f0b57600080fd5b612f1785828601612ebb565b9150509250929050565b600080600060608486031215612f3657600080fd5b612f3f84612db4565b9250612f4d60208501612db4565b9150604084013590509250925092565b60008060408385031215612f7057600080fd5b50508035926020909101359150565b600080600060608486031215612f9457600080fd5b612f9d84612db4565b9250602080850135925060408501356001600160401b0380821115612fc157600080fd5b818701915087601f830112612fd557600080fd5b813581811115612fe757612fe7612df5565b8060051b612ff6858201612e34565b918252838101850191858101908b84111561301057600080fd5b86860192505b8383101561304c5782358581111561302e5760008081fd5b61303c8d89838a0101612ebb565b8352509186019190860190613016565b809750505050505050509250925092565b6000806040838503121561307057600080fd5b8235915061308060208401612db4565b90509250929050565b634e487b7160e01b600052602160045260246000fd5b60208101600683106130c157634e487b7160e01b600052602160045260246000fd5b91905290565b600080602083850312156130da57600080fd5b82356001600160401b03808211156130f157600080fd5b818501915085601f83011261310557600080fd5b81358181111561311457600080fd5b86602060608302850101111561312957600080fd5b60209290920196919550909350505050565b60006020828403121561314d57600080fd5b61151e82612db4565b80356006811061204d57600080fd5b60006020828403121561317757600080fd5b61151e82613156565b6001600160a01b0392909216825261ffff16602082015260400190565b6000602082840312156131af57600080fd5b81356001600160401b038111156131c557600080fd5b61171b84828501612ebb565b803561ffff8116811461204d57600080fd5b600080604083850312156131f657600080fd5b82356001600160401b038082111561320d57600080fd5b90840190610100828703121561322257600080fd5b61322a612e0b565b82358281111561323957600080fd5b61324588828601612ebb565b82525060208301358281111561325a57600080fd5b61326688828601612ebb565b60208301525060408301358281111561327e57600080fd5b61328a88828601612ebb565b604083015250606083013560608201526132a660808401612db4565b60808201526132b760a084016131d1565b60a08201526132c860c08401612db4565b60c08201526132d960e08401613156565b60e0820152935061308091505060208401612db4565b6000806040838503121561330257600080fd5b61330b83612db4565b91506020830135801515811461332057600080fd5b809150509250929050565b6000806000806080858703121561334157600080fd5b61334a85612db4565b935061335860208601612db4565b92506040850135915060608501356001600160401b0381111561337a57600080fd5b8501601f8101871361338b57600080fd5b61339a87823560208401612e64565b91505092959194509250565b602080825282518282018190526000919060409081850190868401855b828110156133fa57815180516001600160a01b031685528601516001600160601b03168685015292840192908501906001016133c3565b5091979650505050505050565b6000806040838503121561341a57600080fd5b61342383612db4565b915061308060208401612db4565b60006040828403121561344357600080fd5b50919050565b602080825260069082015265232927ad22a760d11b604082015260600190565b6020808252602e908201527f4552433732313a2063616c6c6572206973206e6f7420746f6b656e206f776e6560408201526d1c881b9bdc88185c1c1c9bdd995960921b606082015260800190565b634e487b7160e01b600052601160045260246000fd5b60008160001904831182151516156134e7576134e76134b7565b500290565b634e487b7160e01b600052601260045260246000fd5b600082613511576135116134ec565b500490565b60008219821115613529576135296134b7565b500190565b634e487b7160e01b600052603260045260246000fd5b600060018201613556576135566134b7565b5060010190565b60006060828403121561356f57600080fd5b604051606081018181106001600160401b038211171561359157613591612df5565b604052823581526135a460208401612db4565b60208201526135b5604084016131d1565b60408201529392505050565b6000602082840312156135d357600080fd5b5051919050565b602080825260189082015277115490cdcc8c4e881a5b9d985b1a59081d1bdad95b88125160421b604082015260600190565b600181811c9082168061362057607f821691505b60208210810361344357634e487b7160e01b600052602260045260246000fd5b601f8211156108a757600081815260208120601f850160051c810160208610156136675750805b601f850160051c820191505b8181101561368657828155600101613673565b505050505050565b81516001600160401b038111156136a7576136a7612df5565b6136bb816136b5845461360c565b84613640565b602080601f8311600181146136f057600084156136d85750858301515b600019600386901b1c1916600185901b178555613686565b600085815260208120601f198616915b8281101561371f57888601518255948401946001909101908401613700565b508582101561373d5787850151600019600388901b60f8161c191681555b5050505050600190811b01905550565b6000835161375f818460208801612d35565b835190830190613773818360208801612d35565b01949350505050565b60006040828403121561378e57600080fd5b604051604081018181106001600160401b03821117156137b0576137b0612df5565b6040526137bc83612db4565b81526137ca602084016131d1565b60208201529392505050565b6000828210156137e8576137e86134b7565b500390565b6020808252600b908201526a496e76616c69642062707360a81b604082015260600190565b6020808252602b908201527f496e697469616c697a61626c653a20636f6e7472616374206973206e6f74206960408201526a6e697469616c697a696e6760a81b606082015260800190565b60208082526032908201527f4552433732313a207472616e7366657220746f206e6f6e20455243373231526560408201527131b2b4bb32b91034b6b83632b6b2b73a32b960711b606082015260800190565b6000826138be576138be6134ec565b500690565b76020b1b1b2b9b9a1b7b73a3937b61d1030b1b1b7bab73a1604d1b8152600083516138f5816017850160208801612d35565b7001034b99036b4b9b9b4b733903937b6329607d1b6017918401918201528351613926816028840160208801612d35565b01602801949350505050565b6001600160a01b038581168252841660208201526040810183905260806060820181905260009061396590830184612d61565b9695505050505050565b60006020828403121561398157600080fd5b815161151e81612ce9565b60008161399b5761399b6134b7565b506000190190565b634e487b7160e01b600052603160045260246000fdfe61723a2f2f5f44396b4e3157724e576243713535425341475262544234625333763851415054596d42546853625833412f9f2df0fed2c77648de5860a4cc508cd0818c85b8b8a1ab4ceeef8d981c8956a6a26469706673582212206cd92116012347787cf680c1c79fdc1db0e3153cec328cab68502271966858e864736f6c634300080f0033",
  "devdoc": {
    "kind": "dev",
    "methods": {
      "approve(address,uint256)": {
        "details": "See {IERC721-approve}."
      },
      "balanceOf(address)": {
        "details": "See {IERC721-balanceOf}."
      },
      "getApproved(uint256)": {
        "details": "See {IERC721-getApproved}."
      },
      "getRoleAdmin(bytes32)": {
        "details": "Returns the admin role that controls `role`. See {grantRole} and {revokeRole}. To change a role's admin, use {_setRoleAdmin}."
      },
      "getTokenRoyaltiesCount()": {
        "details": "See {IEIP2981RoyaltyOverride-getTokenRoyaltiesCount}."
      },
      "getTokenRoyaltyByIndex(uint256)": {
        "details": "See {IEIP2981RoyaltyOverride-getTokenRoyaltyByIndex}."
      },
      "grantRole(bytes32,address)": {
        "details": "Grants `role` to `account`. If `account` had not been already granted `role`, emits a {RoleGranted} event. Requirements: - the caller must have ``role``'s admin role. May emit a {RoleGranted} event."
      },
      "hasRole(bytes32,address)": {
        "details": "Returns `true` if `account` has been granted `role`."
      },
      "isApprovedForAll(address,address)": {
        "details": "See {IERC721-isApprovedForAll}."
      },
      "owner()": {
        "details": "Returns the address of the current owner."
      },
      "ownerOf(uint256)": {
        "details": "See {IERC721-ownerOf}."
      },
      "renounceOwnership()": {
        "details": "Leaves the contract without owner. It will not be possible to call `onlyOwner` functions anymore. Can only be called by the current owner. NOTE: Renouncing ownership will leave the contract without an owner, thereby removing any functionality that is only available to the owner."
      },
      "renounceRole(bytes32,address)": {
        "details": "Revokes `role` from the calling account. Roles are often managed via {grantRole} and {revokeRole}: this function's purpose is to provide a mechanism for accounts to lose their privileges if they are compromised (such as when a trusted device is misplaced). If the calling account had been revoked `role`, emits a {RoleRevoked} event. Requirements: - the caller must be `account`. May emit a {RoleRevoked} event."
      },
      "revokeRole(bytes32,address)": {
        "details": "Revokes `role` from `account`. If `account` had been granted `role`, emits a {RoleRevoked} event. Requirements: - the caller must have ``role``'s admin role. May emit a {RoleRevoked} event."
      },
      "royaltyInfo(uint256,uint256)": {
        "details": "See {IEIP2981RoyaltyOverride-royaltyInfo}."
      },
      "safeTransferFrom(address,address,uint256)": {
        "details": "See {IERC721-safeTransferFrom}."
      },
      "safeTransferFrom(address,address,uint256,bytes)": {
        "details": "See {IERC721-safeTransferFrom}."
      },
      "setApprovalForAll(address,bool)": {
        "details": "See {IERC721-setApprovalForAll}."
      },
      "transferFrom(address,address,uint256)": {
        "details": "See {IERC721-transferFrom}."
      },
      "transferOwnership(address)": {
        "details": "Transfers ownership of the contract to a new account (`newOwner`). Can only be called by the current owner."
      }
    },
    "version": 1
  },
  "userdoc": {
    "kind": "user",
    "methods": {},
    "version": 1
  },
  "storageLayout": {
    "storage": [
      {
        "astId": 1101,
        "contract": "contracts/collections/ERC721/presets/ERC721OneOfOneCollection.sol:ERC721OneOfOneCollection",
        "label": "_initialized",
        "offset": 0,
        "slot": "0",
        "type": "t_uint8"
      },
      {
        "astId": 1104,
        "contract": "contracts/collections/ERC721/presets/ERC721OneOfOneCollection.sol:ERC721OneOfOneCollection",
        "label": "_initializing",
        "offset": 1,
        "slot": "0",
        "type": "t_bool"
      },
      {
        "astId": 937,
        "contract": "contracts/collections/ERC721/presets/ERC721OneOfOneCollection.sol:ERC721OneOfOneCollection",
        "label": "_owner",
        "offset": 2,
        "slot": "0",
        "type": "t_address"
      },
      {
        "astId": 5404,
        "contract": "contracts/collections/ERC721/presets/ERC721OneOfOneCollection.sol:ERC721OneOfOneCollection",
        "label": "_supportedInterfaces",
        "offset": 0,
        "slot": "1",
        "type": "t_mapping(t_bytes4,t_bool)"
      },
      {
        "astId": 24,
        "contract": "contracts/collections/ERC721/presets/ERC721OneOfOneCollection.sol:ERC721OneOfOneCollection",
        "label": "licenseVersion",
        "offset": 0,
        "slot": "2",
        "type": "t_enum(LicenseVersion)11"
      },
      {
        "astId": 14563,
        "contract": "contracts/collections/ERC721/presets/ERC721OneOfOneCollection.sol:ERC721OneOfOneCollection",
        "label": "licenseVersionLocked",
        "offset": 1,
        "slot": "2",
        "type": "t_bool"
      },
      {
        "astId": 561,
        "contract": "contracts/collections/ERC721/presets/ERC721OneOfOneCollection.sol:ERC721OneOfOneCollection",
        "label": "_roles",
        "offset": 0,
        "slot": "3",
        "type": "t_mapping(t_bytes32,t_struct(RoleData)556_storage)"
      },
      {
        "astId": 2152,
        "contract": "contracts/collections/ERC721/presets/ERC721OneOfOneCollection.sol:ERC721OneOfOneCollection",
        "label": "_name",
        "offset": 0,
        "slot": "4",
        "type": "t_string_storage"
      },
      {
        "astId": 2154,
        "contract": "contracts/collections/ERC721/presets/ERC721OneOfOneCollection.sol:ERC721OneOfOneCollection",
        "label": "_symbol",
        "offset": 0,
        "slot": "5",
        "type": "t_string_storage"
      },
      {
        "astId": 2158,
        "contract": "contracts/collections/ERC721/presets/ERC721OneOfOneCollection.sol:ERC721OneOfOneCollection",
        "label": "_owners",
        "offset": 0,
        "slot": "6",
        "type": "t_mapping(t_uint256,t_address)"
      },
      {
        "astId": 2162,
        "contract": "contracts/collections/ERC721/presets/ERC721OneOfOneCollection.sol:ERC721OneOfOneCollection",
        "label": "_balances",
        "offset": 0,
        "slot": "7",
        "type": "t_mapping(t_address,t_uint256)"
      },
      {
        "astId": 2166,
        "contract": "contracts/collections/ERC721/presets/ERC721OneOfOneCollection.sol:ERC721OneOfOneCollection",
        "label": "_tokenApprovals",
        "offset": 0,
        "slot": "8",
        "type": "t_mapping(t_uint256,t_address)"
      },
      {
        "astId": 2172,
        "contract": "contracts/collections/ERC721/presets/ERC721OneOfOneCollection.sol:ERC721OneOfOneCollection",
        "label": "_operatorApprovals",
        "offset": 0,
        "slot": "9",
        "type": "t_mapping(t_address,t_mapping(t_address,t_bool))"
      },
      {
        "astId": 6881,
        "contract": "contracts/collections/ERC721/presets/ERC721OneOfOneCollection.sol:ERC721OneOfOneCollection",
        "label": "_name",
        "offset": 0,
        "slot": "10",
        "type": "t_string_storage"
      },
      {
        "astId": 6883,
        "contract": "contracts/collections/ERC721/presets/ERC721OneOfOneCollection.sol:ERC721OneOfOneCollection",
        "label": "_symbol",
        "offset": 0,
        "slot": "11",
        "type": "t_string_storage"
      },
      {
        "astId": 6885,
        "contract": "contracts/collections/ERC721/presets/ERC721OneOfOneCollection.sol:ERC721OneOfOneCollection",
        "label": "_contractURI",
        "offset": 0,
        "slot": "12",
        "type": "t_string_storage"
      },
      {
        "astId": 6537,
        "contract": "contracts/collections/ERC721/presets/ERC721OneOfOneCollection.sol:ERC721OneOfOneCollection",
        "label": "maxSupply",
        "offset": 0,
        "slot": "13",
        "type": "t_uint256"
      },
      {
        "astId": 6539,
        "contract": "contracts/collections/ERC721/presets/ERC721OneOfOneCollection.sol:ERC721OneOfOneCollection",
        "label": "maxSupplyFrozen",
        "offset": 0,
        "slot": "14",
        "type": "t_bool"
      },
      {
        "astId": 6542,
        "contract": "contracts/collections/ERC721/presets/ERC721OneOfOneCollection.sol:ERC721OneOfOneCollection",
        "label": "_currentTokenId",
        "offset": 0,
        "slot": "15",
        "type": "t_uint256"
      },
      {
        "astId": 3478,
        "contract": "contracts/collections/ERC721/presets/ERC721OneOfOneCollection.sol:ERC721OneOfOneCollection",
        "label": "_tokenURIs",
        "offset": 0,
        "slot": "16",
        "type": "t_mapping(t_uint256,t_string_storage)"
      },
      {
        "astId": 7773,
        "contract": "contracts/collections/ERC721/presets/ERC721OneOfOneCollection.sol:ERC721OneOfOneCollection",
        "label": "lastFrozenTokenId",
        "offset": 0,
        "slot": "17",
        "type": "t_uint256"
      },
      {
        "astId": 241,
        "contract": "contracts/collections/ERC721/presets/ERC721OneOfOneCollection.sol:ERC721OneOfOneCollection",
        "label": "defaultRoyalty",
        "offset": 0,
        "slot": "18",
        "type": "t_struct(TokenRoyalty)183_storage"
      },
      {
        "astId": 246,
        "contract": "contracts/collections/ERC721/presets/ERC721OneOfOneCollection.sol:ERC721OneOfOneCollection",
        "label": "_tokenRoyalties",
        "offset": 0,
        "slot": "19",
        "type": "t_mapping(t_uint256,t_struct(TokenRoyalty)183_storage)"
      },
      {
        "astId": 249,
        "contract": "contracts/collections/ERC721/presets/ERC721OneOfOneCollection.sol:ERC721OneOfOneCollection",
        "label": "_tokensWithRoyalties",
        "offset": 0,
        "slot": "20",
        "type": "t_struct(UintSet)6375_storage"
      },
      {
        "astId": 15010,
        "contract": "contracts/collections/ERC721/presets/ERC721OneOfOneCollection.sol:ERC721OneOfOneCollection",
        "label": "_trustedForwarder",
        "offset": 0,
        "slot": "22",
        "type": "t_address"
      }
    ],
    "types": {
      "t_address": {
        "encoding": "inplace",
        "label": "address",
        "numberOfBytes": "20"
      },
      "t_array(t_bytes32)dyn_storage": {
        "base": "t_bytes32",
        "encoding": "dynamic_array",
        "label": "bytes32[]",
        "numberOfBytes": "32"
      },
      "t_bool": {
        "encoding": "inplace",
        "label": "bool",
        "numberOfBytes": "1"
      },
      "t_bytes32": {
        "encoding": "inplace",
        "label": "bytes32",
        "numberOfBytes": "32"
      },
      "t_bytes4": {
        "encoding": "inplace",
        "label": "bytes4",
        "numberOfBytes": "4"
      },
      "t_enum(LicenseVersion)11": {
        "encoding": "inplace",
        "label": "enum LicenseVersion",
        "numberOfBytes": "1"
      },
      "t_mapping(t_address,t_bool)": {
        "encoding": "mapping",
        "key": "t_address",
        "label": "mapping(address => bool)",
        "numberOfBytes": "32",
        "value": "t_bool"
      },
      "t_mapping(t_address,t_mapping(t_address,t_bool))": {
        "encoding": "mapping",
        "key": "t_address",
        "label": "mapping(address => mapping(address => bool))",
        "numberOfBytes": "32",
        "value": "t_mapping(t_address,t_bool)"
      },
      "t_mapping(t_address,t_uint256)": {
        "encoding": "mapping",
        "key": "t_address",
        "label": "mapping(address => uint256)",
        "numberOfBytes": "32",
        "value": "t_uint256"
      },
      "t_mapping(t_bytes32,t_struct(RoleData)556_storage)": {
        "encoding": "mapping",
        "key": "t_bytes32",
        "label": "mapping(bytes32 => struct AccessControl.RoleData)",
        "numberOfBytes": "32",
        "value": "t_struct(RoleData)556_storage"
      },
      "t_mapping(t_bytes32,t_uint256)": {
        "encoding": "mapping",
        "key": "t_bytes32",
        "label": "mapping(bytes32 => uint256)",
        "numberOfBytes": "32",
        "value": "t_uint256"
      },
      "t_mapping(t_bytes4,t_bool)": {
        "encoding": "mapping",
        "key": "t_bytes4",
        "label": "mapping(bytes4 => bool)",
        "numberOfBytes": "32",
        "value": "t_bool"
      },
      "t_mapping(t_uint256,t_address)": {
        "encoding": "mapping",
        "key": "t_uint256",
        "label": "mapping(uint256 => address)",
        "numberOfBytes": "32",
        "value": "t_address"
      },
      "t_mapping(t_uint256,t_string_storage)": {
        "encoding": "mapping",
        "key": "t_uint256",
        "label": "mapping(uint256 => string)",
        "numberOfBytes": "32",
        "value": "t_string_storage"
      },
      "t_mapping(t_uint256,t_struct(TokenRoyalty)183_storage)": {
        "encoding": "mapping",
        "key": "t_uint256",
        "label": "mapping(uint256 => struct IEIP2981RoyaltyOverride.TokenRoyalty)",
        "numberOfBytes": "32",
        "value": "t_struct(TokenRoyalty)183_storage"
      },
      "t_string_storage": {
        "encoding": "bytes",
        "label": "string",
        "numberOfBytes": "32"
      },
      "t_struct(RoleData)556_storage": {
        "encoding": "inplace",
        "label": "struct AccessControl.RoleData",
        "members": [
          {
            "astId": 553,
            "contract": "contracts/collections/ERC721/presets/ERC721OneOfOneCollection.sol:ERC721OneOfOneCollection",
            "label": "members",
            "offset": 0,
            "slot": "0",
            "type": "t_mapping(t_address,t_bool)"
          },
          {
            "astId": 555,
            "contract": "contracts/collections/ERC721/presets/ERC721OneOfOneCollection.sol:ERC721OneOfOneCollection",
            "label": "adminRole",
            "offset": 0,
            "slot": "1",
            "type": "t_bytes32"
          }
        ],
        "numberOfBytes": "64"
      },
      "t_struct(Set)5917_storage": {
        "encoding": "inplace",
        "label": "struct EnumerableSet.Set",
        "members": [
          {
            "astId": 5912,
            "contract": "contracts/collections/ERC721/presets/ERC721OneOfOneCollection.sol:ERC721OneOfOneCollection",
            "label": "_values",
            "offset": 0,
            "slot": "0",
            "type": "t_array(t_bytes32)dyn_storage"
          },
          {
            "astId": 5916,
            "contract": "contracts/collections/ERC721/presets/ERC721OneOfOneCollection.sol:ERC721OneOfOneCollection",
            "label": "_indexes",
            "offset": 0,
            "slot": "1",
            "type": "t_mapping(t_bytes32,t_uint256)"
          }
        ],
        "numberOfBytes": "64"
      },
      "t_struct(TokenRoyalty)183_storage": {
        "encoding": "inplace",
        "label": "struct IEIP2981RoyaltyOverride.TokenRoyalty",
        "members": [
          {
            "astId": 180,
            "contract": "contracts/collections/ERC721/presets/ERC721OneOfOneCollection.sol:ERC721OneOfOneCollection",
            "label": "recipient",
            "offset": 0,
            "slot": "0",
            "type": "t_address"
          },
          {
            "astId": 182,
            "contract": "contracts/collections/ERC721/presets/ERC721OneOfOneCollection.sol:ERC721OneOfOneCollection",
            "label": "bps",
            "offset": 20,
            "slot": "0",
            "type": "t_uint16"
          }
        ],
        "numberOfBytes": "32"
      },
      "t_struct(UintSet)6375_storage": {
        "encoding": "inplace",
        "label": "struct EnumerableSet.UintSet",
        "members": [
          {
            "astId": 6374,
            "contract": "contracts/collections/ERC721/presets/ERC721OneOfOneCollection.sol:ERC721OneOfOneCollection",
            "label": "_inner",
            "offset": 0,
            "slot": "0",
            "type": "t_struct(Set)5917_storage"
          }
        ],
        "numberOfBytes": "64"
      },
      "t_uint16": {
        "encoding": "inplace",
        "label": "uint16",
        "numberOfBytes": "2"
      },
      "t_uint256": {
        "encoding": "inplace",
        "label": "uint256",
        "numberOfBytes": "32"
      },
      "t_uint8": {
        "encoding": "inplace",
        "label": "uint8",
        "numberOfBytes": "1"
      }
    }
  }
}