{
  "address": "0xFe9225C81A9991925E626a41d6D3fd21C2e2E479",
  "abi": [
    {
      "anonymous": false,
      "inputs": [
        {
          "indexed": true,
          "internalType": "address",
          "name": "previousOwner",
          "type": "address"
        },
        {
          "indexed": true,
          "internalType": "address",
          "name": "newOwner",
          "type": "address"
        }
      ],
      "name": "OwnershipTransferred",
      "type": "event"
    },
    {
      "inputs": [],
      "name": "lockNameAndSymbol",
      "outputs": [],
      "stateMutability": "nonpayable",
      "type": "function"
    },
    {
      "inputs": [
        {
          "internalType": "string",
          "name": "name",
          "type": "string"
        }
      ],
      "name": "setName",
      "outputs": [],
      "stateMutability": "nonpayable",
      "type": "function"
    },
    {
      "inputs": [
        {
          "internalType": "string",
          "name": "symbol",
          "type": "string"
        }
      ],
      "name": "setSymbol",
      "outputs": [],
      "stateMutability": "nonpayable",
      "type": "function"
    }
  ],
  "transactionHash": "0x9d82c595d03633e9567e5496db18e2dcec574d49467807e039bedca43877abf4",
  "args": [],
  "numDeployments": 1,
  "solcInputHash": "e2f42af2f5273c7308f3825761226b47",
  "bytecode": "0x608060405234801561001057600080fd5b506105a0806100206000396000f3fe608060405234801561001057600080fd5b50600436106100415760003560e01c80636338cb8a14610046578063b84c824614610050578063c47f002714610063575b600080fd5b61004e610076565b005b61004e61005e366004610399565b610134565b61004e610071366004610399565b6101c8565b7fc0ea367cb0174dd5521cd2372c76f8c13e6c1f832c71f1d6e0cbc185c9cc8ed45473ffffffffffffffffffffffffffffffffffffffff1633146101015760405162461bcd60e51b815260206004820152601d60248201527f4f776e61626c653a2073656e646572206d757374206265206f776e657200000060448201526064015b60405180910390fd5b6101327f70612f47e27b43eb7f87867b7b8f899a5e08503dcccf1bf322c9eef06483a1fe805460ff19166001179055565b565b7fc0ea367cb0174dd5521cd2372c76f8c13e6c1f832c71f1d6e0cbc185c9cc8ed45473ffffffffffffffffffffffffffffffffffffffff1633146101ba5760405162461bcd60e51b815260206004820152601d60248201527f4f776e61626c653a2073656e646572206d757374206265206f776e657200000060448201526064016100f8565b6101c48282610258565b5050565b7fc0ea367cb0174dd5521cd2372c76f8c13e6c1f832c71f1d6e0cbc185c9cc8ed45473ffffffffffffffffffffffffffffffffffffffff16331461024e5760405162461bcd60e51b815260206004820152601d60248201527f4f776e61626c653a2073656e646572206d757374206265206f776e657200000060448201526064016100f8565b6101c482826102fb565b7f70612f47e27b43eb7f87867b7b8f899a5e08503dcccf1bf322c9eef06483a1fe5460ff16156102ca5760405162461bcd60e51b815260206004820152601a60248201527f4d657461646174613a2073796d626f6c206973206c6f636b656400000000000060448201526064016100f8565b7f70612f47e27b43eb7f87867b7b8f899a5e08503dcccf1bf322c9eef06483a1fd6102f68284836104a9565b505050565b7f70612f47e27b43eb7f87867b7b8f899a5e08503dcccf1bf322c9eef06483a1fe5460ff161561036d5760405162461bcd60e51b815260206004820152601860248201527f4d657461646174613a206e616d65206973206c6f636b6564000000000000000060448201526064016100f8565b7f70612f47e27b43eb7f87867b7b8f899a5e08503dcccf1bf322c9eef06483a1fc6102f68284836104a9565b600080602083850312156103ac57600080fd5b823567ffffffffffffffff808211156103c457600080fd5b818501915085601f8301126103d857600080fd5b8135818111156103e757600080fd5b8660208285010111156103f957600080fd5b60209290920196919550909350505050565b634e487b7160e01b600052604160045260246000fd5b600181811c9082168061043557607f821691505b60208210810361045557634e487b7160e01b600052602260045260246000fd5b50919050565b601f8211156102f657600081815260208120601f850160051c810160208610156104825750805b601f850160051c820191505b818110156104a15782815560010161048e565b505050505050565b67ffffffffffffffff8311156104c1576104c161040b565b6104d5836104cf8354610421565b8361045b565b6000601f84116001811461050957600085156104f15750838201355b600019600387901b1c1916600186901b178355610563565b600083815260209020601f19861690835b8281101561053a578685013582556020948501946001909201910161051a565b50868210156105575760001960f88860031b161c19848701351681555b505060018560011b0183555b505050505056fea26469706673582212201a4a8cec0961414d4162299280f342be3deb07631bcbf3e1587d984114c78d4764736f6c634300080f0033",
  "devdoc": {
    "custom:category": "Tokens",
    "custom:peer-dependencies": "IMetadata",
    "custom:provides-interfaces": "IMetadataAdmin",
    "custom:type": "eip-2535-facet",
    "kind": "dev",
    "methods": {},
    "title": "Metadata - Admin - Ownable",
    "version": 1
  },
  "userdoc": {
    "kind": "user",
    "methods": {},
    "notice": "Allows diamond owner to change name and symbol, or freeze them forever.",
    "version": 1
  },
  "storageLayout": {
    "storage": [],
    "types": null
  }
}