{
  "address": "0x6d018457d731E1EFA8700a454a52e46c2Ce1451e",
  "abi": [
    {
      "inputs": [],
      "name": "decimals",
      "outputs": [
        {
          "internalType": "uint8",
          "name": "",
          "type": "uint8"
        }
      ],
      "stateMutability": "view",
      "type": "function"
    },
    {
      "inputs": [],
      "name": "name",
      "outputs": [
        {
          "internalType": "string",
          "name": "",
          "type": "string"
        }
      ],
      "stateMutability": "view",
      "type": "function"
    },
    {
      "inputs": [],
      "name": "symbol",
      "outputs": [
        {
          "internalType": "string",
          "name": "",
          "type": "string"
        }
      ],
      "stateMutability": "view",
      "type": "function"
    }
  ],
  "transactionHash": "0x56e7b9c7bce5a9906a068e48efb99aff27f28a22300392eeb3618a537a513148",
  "args": [],
  "numDeployments": 2,
  "solcInputHash": "1440f62c776dd9db876807ac4884ae3e",
  "bytecode": "0x608060405234801561001057600080fd5b50610278806100206000396000f3fe608060405234801561001057600080fd5b50600436106100415760003560e01c806306fdde0314610046578063313ce5671461006457806395d89b411461007e575b600080fd5b61004e610086565b60405161005b919061019a565b60405180910390f35b61006c610137565b60405160ff909116815260200161005b565b61004e610169565b60607f70612f47e27b43eb7f87867b7b8f899a5e08503dcccf1bf322c9eef06483a1fc80546100b4906101ef565b80601f01602080910402602001604051908101604052809291908181526020018280546100e0906101ef565b801561012d5780601f106101025761010080835404028352916020019161012d565b820191906000526020600020905b81548152906001019060200180831161011057829003601f168201915b5050505050905090565b60006101647f3b67c745df1d17403ada58f538de4780e4768549f9387f877a18fb6c6b3a7b4b5460ff1690565b905090565b60607f70612f47e27b43eb7f87867b7b8f899a5e08503dcccf1bf322c9eef06483a1fc60010180546100b4906101ef565b600060208083528351808285015260005b818110156101c7578581018301518582016040015282016101ab565b818111156101d9576000604083870101525b50601f01601f1916929092016040019392505050565b600181811c9082168061020357607f821691505b60208210810361023c577f4e487b7100000000000000000000000000000000000000000000000000000000600052602260045260246000fd5b5091905056fea2646970667358221220d12e40597e22b2dadc8ff8a6a1857b56063338b09683f0b291dde138df76fbdc64736f6c634300080f0033",
  "devdoc": {
    "custom:category": "Tokens",
    "custom:provides-interfaces": "IERC20Metadata",
    "custom:type": "eip-2535-facet",
    "kind": "dev",
    "methods": {
      "decimals()": {
        "returns": {
          "_0": "token decimals"
        }
      }
    },
    "title": "ERC20 Metadata",
    "version": 1
  },
  "userdoc": {
    "kind": "user",
    "methods": {
      "decimals()": {
        "notice": "return token decimals, generally used only for display purposes"
      }
    },
    "notice": "Provides standard read methods for name, symbol and decimals metadata for an ERC20 token.",
    "version": 1
  },
  "storageLayout": {
    "storage": [],
    "types": null
  }
}