{
  "address": "0xE9fCC8544F378332CAF85A9AbBd1d24872feAd54",
  "abi": [
    {
      "inputs": [],
      "name": "decimals",
      "outputs": [
        {
          "internalType": "uint8",
          "name": "",
          "type": "uint8"
        }
      ],
      "stateMutability": "view",
      "type": "function"
    },
    {
      "inputs": [],
      "name": "decimalsLocked",
      "outputs": [
        {
          "internalType": "bool",
          "name": "",
          "type": "bool"
        }
      ],
      "stateMutability": "view",
      "type": "function"
    },
    {
      "inputs": [],
      "name": "name",
      "outputs": [
        {
          "internalType": "string",
          "name": "",
          "type": "string"
        }
      ],
      "stateMutability": "view",
      "type": "function"
    },
    {
      "inputs": [],
      "name": "nameAndSymbolLocked",
      "outputs": [
        {
          "internalType": "bool",
          "name": "",
          "type": "bool"
        }
      ],
      "stateMutability": "view",
      "type": "function"
    },
    {
      "inputs": [],
      "name": "symbol",
      "outputs": [
        {
          "internalType": "string",
          "name": "",
          "type": "string"
        }
      ],
      "stateMutability": "view",
      "type": "function"
    }
  ],
  "transactionHash": "0x142d46b4dcbaf3592ca7a6156fa2a793dda6a2d345aa8fc49d727dbc7fa3bfb7",
  "args": [],
  "numDeployments": 4,
  "solcInputHash": "39282fd68396b0deb633a61703307dfe",
  "bytecode": "0x608060405234801561001057600080fd5b50610303806100206000396000f3fe608060405234801561001057600080fd5b50600436106100675760003560e01c8063313ce56711610050578063313ce567146100c057806395d89b41146100da578063c0c092ee146100e257600080fd5b806306fdde031461006c578063180434a31461008a575b600080fd5b610074610111565b6040516100819190610225565b60405180910390f35b7f70612f47e27b43eb7f87867b7b8f899a5e08503dcccf1bf322c9eef06483a1fe5460ff165b6040519015158152602001610081565b6100c86101c2565b60405160ff9091168152602001610081565b6100746101f4565b7f3b67c745df1d17403ada58f538de4780e4768549f9387f877a18fb6c6b3a7b4b54610100900460ff166100b0565b60607f70612f47e27b43eb7f87867b7b8f899a5e08503dcccf1bf322c9eef06483a1fc805461013f9061027a565b80601f016020809104026020016040519081016040528092919081815260200182805461016b9061027a565b80156101b85780601f1061018d576101008083540402835291602001916101b8565b820191906000526020600020905b81548152906001019060200180831161019b57829003601f168201915b5050505050905090565b60006101ef7f3b67c745df1d17403ada58f538de4780e4768549f9387f877a18fb6c6b3a7b4b5460ff1690565b905090565b60607f70612f47e27b43eb7f87867b7b8f899a5e08503dcccf1bf322c9eef06483a1fc600101805461013f9061027a565b600060208083528351808285015260005b8181101561025257858101830151858201604001528201610236565b81811115610264576000604083870101525b50601f01601f1916929092016040019392505050565b600181811c9082168061028e57607f821691505b6020821081036102c7577f4e487b7100000000000000000000000000000000000000000000000000000000600052602260045260246000fd5b5091905056fea26469706673582212207e4e0beefdd0dd003aed5386ff33d73a92cf2209006129113d564a344941e20064736f6c634300080f0033",
  "devdoc": {
    "custom:category": "Tokens",
    "custom:provides-interfaces": "IERC20Metadata",
    "custom:type": "eip-2535-facet",
    "kind": "dev",
    "methods": {
      "decimals()": {
        "returns": {
          "_0": "token decimals"
        }
      }
    },
    "title": "ERC20 Metadata",
    "version": 1
  },
  "userdoc": {
    "kind": "user",
    "methods": {
      "decimals()": {
        "notice": "return token decimals, generally used only for display purposes"
      }
    },
    "notice": "Provides standard read methods for name, symbol and decimals metadata for an ERC20 token.",
    "version": 1
  },
  "storageLayout": {
    "storage": [],
    "types": null
  }
}