{
  "address": "0x1aDDE2eEa8c6c85923535DD9Bed202b94A2A8eA7",
  "abi": [
    {
      "inputs": [
        {
          "components": [
            {
              "internalType": "address",
              "name": "ticketToken",
              "type": "address"
            },
            {
              "internalType": "uint64",
              "name": "lockedUntilTimestamp",
              "type": "uint64"
            },
            {
              "internalType": "uint64",
              "name": "minStakingDuration",
              "type": "uint64"
            },
            {
              "internalType": "uint64",
              "name": "maxStakingTotalDurations",
              "type": "uint64"
            },
            {
              "internalType": "uint256",
              "name": "emissionRate",
              "type": "uint256"
            },
            {
              "internalType": "uint64",
              "name": "emissionTimeUnit",
              "type": "uint64"
            },
            {
              "internalType": "uint64",
              "name": "emissionStart",
              "type": "uint64"
            },
            {
              "internalType": "uint64",
              "name": "emissionEnd",
              "type": "uint64"
            },
            {
              "internalType": "uint256",
              "name": "totalTickets",
              "type": "uint256"
            },
            {
              "internalType": "uint64",
              "name": "claimLockedUntil",
              "type": "uint64"
            }
          ],
          "internalType": "struct ERC721LockedStakingEmissionStream.Config",
          "name": "config",
          "type": "tuple"
        }
      ],
      "stateMutability": "nonpayable",
      "type": "constructor"
    },
    {
      "anonymous": false,
      "inputs": [
        {
          "indexed": false,
          "internalType": "address",
          "name": "operator",
          "type": "address"
        },
        {
          "indexed": false,
          "internalType": "address",
          "name": "beneficiary",
          "type": "address"
        },
        {
          "indexed": false,
          "internalType": "uint256",
          "name": "ticketTokenId",
          "type": "uint256"
        },
        {
          "indexed": false,
          "internalType": "address",
          "name": "claimToken",
          "type": "address"
        },
        {
          "indexed": false,
          "internalType": "uint256",
          "name": "releasedAmount",
          "type": "uint256"
        }
      ],
      "name": "Claim",
      "type": "event"
    },
    {
      "anonymous": false,
      "inputs": [
        {
          "indexed": false,
          "internalType": "address",
          "name": "operator",
          "type": "address"
        },
        {
          "indexed": false,
          "internalType": "address",
          "name": "beneficiary",
          "type": "address"
        },
        {
          "indexed": false,
          "internalType": "uint256[]",
          "name": "ticketTokenIds",
          "type": "uint256[]"
        },
        {
          "indexed": false,
          "internalType": "address",
          "name": "claimToken",
          "type": "address"
        },
        {
          "indexed": false,
          "internalType": "uint256",
          "name": "releasedAmount",
          "type": "uint256"
        }
      ],
      "name": "ClaimMany",
      "type": "event"
    },
    {
      "anonymous": false,
      "inputs": [
        {
          "indexed": false,
          "internalType": "uint8",
          "name": "version",
          "type": "uint8"
        }
      ],
      "name": "Initialized",
      "type": "event"
    },
    {
      "anonymous": false,
      "inputs": [
        {
          "indexed": true,
          "internalType": "address",
          "name": "previousOwner",
          "type": "address"
        },
        {
          "indexed": true,
          "internalType": "address",
          "name": "newOwner",
          "type": "address"
        }
      ],
      "name": "OwnershipTransferred",
      "type": "event"
    },
    {
      "anonymous": false,
      "inputs": [],
      "name": "WithdrawPowerRevoked",
      "type": "event"
    },
    {
      "anonymous": false,
      "inputs": [
        {
          "indexed": false,
          "internalType": "address[]",
          "name": "claimTokens",
          "type": "address[]"
        },
        {
          "indexed": false,
          "internalType": "uint256[]",
          "name": "amounts",
          "type": "uint256[]"
        }
      ],
      "name": "Withdrawn",
      "type": "event"
    },
    {
      "inputs": [
        {
          "internalType": "uint256",
          "name": "ticketTokenId",
          "type": "uint256"
        }
      ],
      "name": "claim",
      "outputs": [],
      "stateMutability": "nonpayable",
      "type": "function"
    },
    {
      "inputs": [
        {
          "internalType": "uint256[]",
          "name": "ticketTokenIds",
          "type": "uint256[]"
        }
      ],
      "name": "claim",
      "outputs": [],
      "stateMutability": "nonpayable",
      "type": "function"
    },
    {
      "inputs": [
        {
          "internalType": "uint256",
          "name": "ticketTokenId",
          "type": "uint256"
        },
        {
          "internalType": "address",
          "name": "claimToken",
          "type": "address"
        }
      ],
      "name": "claim",
      "outputs": [],
      "stateMutability": "nonpayable",
      "type": "function"
    },
    {
      "inputs": [
        {
          "internalType": "uint256[]",
          "name": "ticketTokenIds",
          "type": "uint256[]"
        },
        {
          "internalType": "address",
          "name": "claimToken",
          "type": "address"
        },
        {
          "internalType": "address",
          "name": "beneficiary",
          "type": "address"
        }
      ],
      "name": "claim",
      "outputs": [],
      "stateMutability": "nonpayable",
      "type": "function"
    },
    {
      "inputs": [],
      "name": "claimLockedUntil",
      "outputs": [
        {
          "internalType": "uint64",
          "name": "",
          "type": "uint64"
        }
      ],
      "stateMutability": "view",
      "type": "function"
    },
    {
      "inputs": [
        {
          "internalType": "uint64",
          "name": "calcUntil",
          "type": "uint64"
        }
      ],
      "name": "emissionAmountUntil",
      "outputs": [
        {
          "internalType": "uint256",
          "name": "",
          "type": "uint256"
        }
      ],
      "stateMutability": "view",
      "type": "function"
    },
    {
      "inputs": [],
      "name": "emissionEnd",
      "outputs": [
        {
          "internalType": "uint64",
          "name": "",
          "type": "uint64"
        }
      ],
      "stateMutability": "view",
      "type": "function"
    },
    {
      "inputs": [],
      "name": "emissionRate",
      "outputs": [
        {
          "internalType": "uint256",
          "name": "",
          "type": "uint256"
        }
      ],
      "stateMutability": "view",
      "type": "function"
    },
    {
      "inputs": [],
      "name": "emissionStart",
      "outputs": [
        {
          "internalType": "uint64",
          "name": "",
          "type": "uint64"
        }
      ],
      "stateMutability": "view",
      "type": "function"
    },
    {
      "inputs": [],
      "name": "emissionTimeUnit",
      "outputs": [
        {
          "internalType": "uint64",
          "name": "",
          "type": "uint64"
        }
      ],
      "stateMutability": "view",
      "type": "function"
    },
    {
      "inputs": [
        {
          "internalType": "uint256",
          "name": "",
          "type": "uint256"
        },
        {
          "internalType": "address",
          "name": "",
          "type": "address"
        }
      ],
      "name": "entitlements",
      "outputs": [
        {
          "internalType": "uint256",
          "name": "totalClaimed",
          "type": "uint256"
        },
        {
          "internalType": "uint256",
          "name": "lastClaimedAt",
          "type": "uint256"
        }
      ],
      "stateMutability": "view",
      "type": "function"
    },
    {
      "inputs": [],
      "name": "hasERC721EmissionReleaseExtension",
      "outputs": [
        {
          "internalType": "bool",
          "name": "",
          "type": "bool"
        }
      ],
      "stateMutability": "pure",
      "type": "function"
    },
    {
      "inputs": [],
      "name": "hasERC721EqualSplitExtension",
      "outputs": [
        {
          "internalType": "bool",
          "name": "",
          "type": "bool"
        }
      ],
      "stateMutability": "pure",
      "type": "function"
    },
    {
      "inputs": [],
      "name": "hasERC721LockableClaimExtension",
      "outputs": [
        {
          "internalType": "bool",
          "name": "",
          "type": "bool"
        }
      ],
      "stateMutability": "pure",
      "type": "function"
    },
    {
      "inputs": [],
      "name": "hasERC721LockedStakingExtension",
      "outputs": [
        {
          "internalType": "bool",
          "name": "",
          "type": "bool"
        }
      ],
      "stateMutability": "pure",
      "type": "function"
    },
    {
      "inputs": [],
      "name": "hasERC721StakingExtension",
      "outputs": [
        {
          "internalType": "bool",
          "name": "",
          "type": "bool"
        }
      ],
      "stateMutability": "pure",
      "type": "function"
    },
    {
      "inputs": [
        {
          "components": [
            {
              "internalType": "address",
              "name": "ticketToken",
              "type": "address"
            },
            {
              "internalType": "uint64",
              "name": "lockedUntilTimestamp",
              "type": "uint64"
            },
            {
              "internalType": "uint64",
              "name": "minStakingDuration",
              "type": "uint64"
            },
            {
              "internalType": "uint64",
              "name": "maxStakingTotalDurations",
              "type": "uint64"
            },
            {
              "internalType": "uint256",
              "name": "emissionRate",
              "type": "uint256"
            },
            {
              "internalType": "uint64",
              "name": "emissionTimeUnit",
              "type": "uint64"
            },
            {
              "internalType": "uint64",
              "name": "emissionStart",
              "type": "uint64"
            },
            {
              "internalType": "uint64",
              "name": "emissionEnd",
              "type": "uint64"
            },
            {
              "internalType": "uint256",
              "name": "totalTickets",
              "type": "uint256"
            },
            {
              "internalType": "uint64",
              "name": "claimLockedUntil",
              "type": "uint64"
            }
          ],
          "internalType": "struct ERC721LockedStakingEmissionStream.Config",
          "name": "config",
          "type": "tuple"
        },
        {
          "internalType": "address",
          "name": "deployer",
          "type": "address"
        }
      ],
      "name": "initialize",
      "outputs": [],
      "stateMutability": "nonpayable",
      "type": "function"
    },
    {
      "inputs": [
        {
          "internalType": "uint256",
          "name": "",
          "type": "uint256"
        }
      ],
      "name": "lastStakingTime",
      "outputs": [
        {
          "internalType": "uint64",
          "name": "",
          "type": "uint64"
        }
      ],
      "stateMutability": "view",
      "type": "function"
    },
    {
      "inputs": [
        {
          "internalType": "uint64",
          "name": "newValue",
          "type": "uint64"
        }
      ],
      "name": "lockUntil",
      "outputs": [],
      "stateMutability": "nonpayable",
      "type": "function"
    },
    {
      "inputs": [],
      "name": "lockWithdrawMode",
      "outputs": [],
      "stateMutability": "nonpayable",
      "type": "function"
    },
    {
      "inputs": [],
      "name": "lockWithdrawRecipient",
      "outputs": [],
      "stateMutability": "nonpayable",
      "type": "function"
    },
    {
      "inputs": [],
      "name": "lockedUntilTimestamp",
      "outputs": [
        {
          "internalType": "uint64",
          "name": "",
          "type": "uint64"
        }
      ],
      "stateMutability": "view",
      "type": "function"
    },
    {
      "inputs": [],
      "name": "maxStakingTotalDurations",
      "outputs": [
        {
          "internalType": "uint64",
          "name": "",
          "type": "uint64"
        }
      ],
      "stateMutability": "view",
      "type": "function"
    },
    {
      "inputs": [],
      "name": "minStakingDuration",
      "outputs": [
        {
          "internalType": "uint64",
          "name": "",
          "type": "uint64"
        }
      ],
      "stateMutability": "view",
      "type": "function"
    },
    {
      "inputs": [],
      "name": "name",
      "outputs": [
        {
          "internalType": "string",
          "name": "",
          "type": "string"
        }
      ],
      "stateMutability": "view",
      "type": "function"
    },
    {
      "inputs": [],
      "name": "owner",
      "outputs": [
        {
          "internalType": "address",
          "name": "",
          "type": "address"
        }
      ],
      "stateMutability": "view",
      "type": "function"
    },
    {
      "inputs": [
        {
          "internalType": "uint256[]",
          "name": "tokenIds",
          "type": "uint256[]"
        }
      ],
      "name": "rateByToken",
      "outputs": [
        {
          "internalType": "uint256",
          "name": "",
          "type": "uint256"
        }
      ],
      "stateMutability": "view",
      "type": "function"
    },
    {
      "inputs": [
        {
          "internalType": "uint64",
          "name": "calcUntil",
          "type": "uint64"
        }
      ],
      "name": "releasedAmountUntil",
      "outputs": [
        {
          "internalType": "uint256",
          "name": "",
          "type": "uint256"
        }
      ],
      "stateMutability": "view",
      "type": "function"
    },
    {
      "inputs": [],
      "name": "renounceOwnership",
      "outputs": [],
      "stateMutability": "nonpayable",
      "type": "function"
    },
    {
      "inputs": [],
      "name": "revokeWithdrawPower",
      "outputs": [],
      "stateMutability": "nonpayable",
      "type": "function"
    },
    {
      "inputs": [
        {
          "internalType": "uint256[]",
          "name": "ticketTokenIds",
          "type": "uint256[]"
        }
      ],
      "name": "rewardAmountByToken",
      "outputs": [
        {
          "internalType": "uint256",
          "name": "total",
          "type": "uint256"
        }
      ],
      "stateMutability": "view",
      "type": "function"
    },
    {
      "inputs": [
        {
          "internalType": "uint256",
          "name": "ticketTokenId",
          "type": "uint256"
        }
      ],
      "name": "rewardAmountByToken",
      "outputs": [
        {
          "internalType": "uint256",
          "name": "",
          "type": "uint256"
        }
      ],
      "stateMutability": "view",
      "type": "function"
    },
    {
      "inputs": [
        {
          "internalType": "uint256",
          "name": "",
          "type": "uint256"
        }
      ],
      "name": "savedStakedDurations",
      "outputs": [
        {
          "internalType": "uint64",
          "name": "",
          "type": "uint64"
        }
      ],
      "stateMutability": "view",
      "type": "function"
    },
    {
      "inputs": [
        {
          "internalType": "uint64",
          "name": "newValue",
          "type": "uint64"
        }
      ],
      "name": "setClaimLockedUntil",
      "outputs": [],
      "stateMutability": "nonpayable",
      "type": "function"
    },
    {
      "inputs": [
        {
          "internalType": "uint64",
          "name": "newValue",
          "type": "uint64"
        }
      ],
      "name": "setEmissionEnd",
      "outputs": [],
      "stateMutability": "nonpayable",
      "type": "function"
    },
    {
      "inputs": [
        {
          "internalType": "uint256",
          "name": "newValue",
          "type": "uint256"
        }
      ],
      "name": "setEmissionRate",
      "outputs": [],
      "stateMutability": "nonpayable",
      "type": "function"
    },
    {
      "inputs": [
        {
          "internalType": "uint64",
          "name": "newValue",
          "type": "uint64"
        }
      ],
      "name": "setEmissionStart",
      "outputs": [],
      "stateMutability": "nonpayable",
      "type": "function"
    },
    {
      "inputs": [
        {
          "internalType": "uint64",
          "name": "newValue",
          "type": "uint64"
        }
      ],
      "name": "setEmissionTimeUnit",
      "outputs": [],
      "stateMutability": "nonpayable",
      "type": "function"
    },
    {
      "inputs": [
        {
          "internalType": "uint64",
          "name": "newValue",
          "type": "uint64"
        }
      ],
      "name": "setMaxStakingTotalDurations",
      "outputs": [],
      "stateMutability": "nonpayable",
      "type": "function"
    },
    {
      "inputs": [
        {
          "internalType": "uint64",
          "name": "newValue",
          "type": "uint64"
        }
      ],
      "name": "setMinStakingDuration",
      "outputs": [],
      "stateMutability": "nonpayable",
      "type": "function"
    },
    {
      "inputs": [
        {
          "internalType": "uint256",
          "name": "newValue",
          "type": "uint256"
        }
      ],
      "name": "setTotalTickets",
      "outputs": [],
      "stateMutability": "nonpayable",
      "type": "function"
    },
    {
      "inputs": [
        {
          "internalType": "enum WithdrawMode",
          "name": "_withdrawMode",
          "type": "uint8"
        }
      ],
      "name": "setWithdrawMode",
      "outputs": [],
      "stateMutability": "nonpayable",
      "type": "function"
    },
    {
      "inputs": [
        {
          "internalType": "address",
          "name": "_withdrawRecipient",
          "type": "address"
        }
      ],
      "name": "setWithdrawRecipient",
      "outputs": [],
      "stateMutability": "nonpayable",
      "type": "function"
    },
    {
      "inputs": [
        {
          "internalType": "uint256[]",
          "name": "tokenIds",
          "type": "uint256[]"
        }
      ],
      "name": "stake",
      "outputs": [],
      "stateMutability": "nonpayable",
      "type": "function"
    },
    {
      "inputs": [
        {
          "internalType": "uint256",
          "name": "tokenId",
          "type": "uint256"
        }
      ],
      "name": "stake",
      "outputs": [],
      "stateMutability": "nonpayable",
      "type": "function"
    },
    {
      "inputs": [
        {
          "internalType": "uint256[]",
          "name": "ticketTokenIds",
          "type": "uint256[]"
        },
        {
          "internalType": "address",
          "name": "claimToken",
          "type": "address"
        }
      ],
      "name": "streamClaimableAmount",
      "outputs": [
        {
          "internalType": "uint256",
          "name": "",
          "type": "uint256"
        }
      ],
      "stateMutability": "view",
      "type": "function"
    },
    {
      "inputs": [
        {
          "internalType": "uint256",
          "name": "ticketTokenId",
          "type": "uint256"
        }
      ],
      "name": "streamClaimableAmount",
      "outputs": [
        {
          "internalType": "uint256",
          "name": "",
          "type": "uint256"
        }
      ],
      "stateMutability": "view",
      "type": "function"
    },
    {
      "inputs": [
        {
          "internalType": "uint256",
          "name": "ticketTokenId",
          "type": "uint256"
        },
        {
          "internalType": "address",
          "name": "claimToken",
          "type": "address"
        }
      ],
      "name": "streamClaimableAmount",
      "outputs": [
        {
          "internalType": "uint256",
          "name": "",
          "type": "uint256"
        }
      ],
      "stateMutability": "view",
      "type": "function"
    },
    {
      "inputs": [
        {
          "internalType": "uint256[]",
          "name": "ticketTokenIds",
          "type": "uint256[]"
        },
        {
          "internalType": "address",
          "name": "claimToken",
          "type": "address"
        }
      ],
      "name": "streamTotalClaimed",
      "outputs": [
        {
          "internalType": "uint256",
          "name": "",
          "type": "uint256"
        }
      ],
      "stateMutability": "view",
      "type": "function"
    },
    {
      "inputs": [],
      "name": "streamTotalClaimed",
      "outputs": [
        {
          "internalType": "uint256",
          "name": "",
          "type": "uint256"
        }
      ],
      "stateMutability": "view",
      "type": "function"
    },
    {
      "inputs": [
        {
          "internalType": "uint256[]",
          "name": "ticketTokenIds",
          "type": "uint256[]"
        }
      ],
      "name": "streamTotalClaimed",
      "outputs": [
        {
          "internalType": "uint256",
          "name": "",
          "type": "uint256"
        }
      ],
      "stateMutability": "view",
      "type": "function"
    },
    {
      "inputs": [
        {
          "internalType": "uint256",
          "name": "ticketTokenId",
          "type": "uint256"
        },
        {
          "internalType": "address",
          "name": "claimToken",
          "type": "address"
        }
      ],
      "name": "streamTotalClaimed",
      "outputs": [
        {
          "internalType": "uint256",
          "name": "",
          "type": "uint256"
        }
      ],
      "stateMutability": "view",
      "type": "function"
    },
    {
      "inputs": [
        {
          "internalType": "address",
          "name": "claimToken",
          "type": "address"
        }
      ],
      "name": "streamTotalClaimed",
      "outputs": [
        {
          "internalType": "uint256",
          "name": "",
          "type": "uint256"
        }
      ],
      "stateMutability": "view",
      "type": "function"
    },
    {
      "inputs": [
        {
          "internalType": "uint256",
          "name": "ticketTokenId",
          "type": "uint256"
        }
      ],
      "name": "streamTotalClaimed",
      "outputs": [
        {
          "internalType": "uint256",
          "name": "",
          "type": "uint256"
        }
      ],
      "stateMutability": "view",
      "type": "function"
    },
    {
      "inputs": [],
      "name": "streamTotalSupply",
      "outputs": [
        {
          "internalType": "uint256",
          "name": "",
          "type": "uint256"
        }
      ],
      "stateMutability": "view",
      "type": "function"
    },
    {
      "inputs": [
        {
          "internalType": "address",
          "name": "claimToken",
          "type": "address"
        }
      ],
      "name": "streamTotalSupply",
      "outputs": [
        {
          "internalType": "uint256",
          "name": "",
          "type": "uint256"
        }
      ],
      "stateMutability": "view",
      "type": "function"
    },
    {
      "inputs": [
        {
          "internalType": "bytes4",
          "name": "interfaceId",
          "type": "bytes4"
        }
      ],
      "name": "supportsInterface",
      "outputs": [
        {
          "internalType": "bool",
          "name": "",
          "type": "bool"
        }
      ],
      "stateMutability": "view",
      "type": "function"
    },
    {
      "inputs": [],
      "name": "ticketToken",
      "outputs": [
        {
          "internalType": "address",
          "name": "",
          "type": "address"
        }
      ],
      "stateMutability": "view",
      "type": "function"
    },
    {
      "inputs": [
        {
          "internalType": "uint256",
          "name": "ticketTokenId",
          "type": "uint256"
        }
      ],
      "name": "totalStakedDuration",
      "outputs": [
        {
          "internalType": "uint64",
          "name": "",
          "type": "uint64"
        }
      ],
      "stateMutability": "view",
      "type": "function"
    },
    {
      "inputs": [
        {
          "internalType": "uint256[]",
          "name": "ticketTokenIds",
          "type": "uint256[]"
        }
      ],
      "name": "totalStakedDuration",
      "outputs": [
        {
          "internalType": "uint64",
          "name": "",
          "type": "uint64"
        }
      ],
      "stateMutability": "view",
      "type": "function"
    },
    {
      "inputs": [],
      "name": "totalTickets",
      "outputs": [
        {
          "internalType": "uint256",
          "name": "",
          "type": "uint256"
        }
      ],
      "stateMutability": "view",
      "type": "function"
    },
    {
      "inputs": [
        {
          "internalType": "address",
          "name": "newOwner",
          "type": "address"
        }
      ],
      "name": "transferOwnership",
      "outputs": [],
      "stateMutability": "nonpayable",
      "type": "function"
    },
    {
      "inputs": [
        {
          "internalType": "uint256[]",
          "name": "ticketTokenIds",
          "type": "uint256[]"
        }
      ],
      "name": "unlockingTime",
      "outputs": [
        {
          "internalType": "uint256[]",
          "name": "",
          "type": "uint256[]"
        }
      ],
      "stateMutability": "view",
      "type": "function"
    },
    {
      "inputs": [
        {
          "internalType": "uint256",
          "name": "ticketTokenId",
          "type": "uint256"
        }
      ],
      "name": "unlockingTime",
      "outputs": [
        {
          "internalType": "uint256",
          "name": "",
          "type": "uint256"
        }
      ],
      "stateMutability": "view",
      "type": "function"
    },
    {
      "inputs": [
        {
          "internalType": "uint256",
          "name": "tokenId",
          "type": "uint256"
        }
      ],
      "name": "unstake",
      "outputs": [],
      "stateMutability": "nonpayable",
      "type": "function"
    },
    {
      "inputs": [
        {
          "internalType": "uint256[]",
          "name": "tokenIds",
          "type": "uint256[]"
        }
      ],
      "name": "unstake",
      "outputs": [],
      "stateMutability": "nonpayable",
      "type": "function"
    },
    {
      "inputs": [],
      "name": "version",
      "outputs": [
        {
          "internalType": "string",
          "name": "",
          "type": "string"
        }
      ],
      "stateMutability": "view",
      "type": "function"
    },
    {
      "inputs": [
        {
          "internalType": "address[]",
          "name": "claimTokens",
          "type": "address[]"
        },
        {
          "internalType": "uint256[]",
          "name": "amounts",
          "type": "uint256[]"
        }
      ],
      "name": "withdraw",
      "outputs": [],
      "stateMutability": "nonpayable",
      "type": "function"
    },
    {
      "inputs": [],
      "name": "withdrawMode",
      "outputs": [
        {
          "internalType": "enum WithdrawMode",
          "name": "",
          "type": "uint8"
        }
      ],
      "stateMutability": "view",
      "type": "function"
    },
    {
      "inputs": [],
      "name": "withdrawModeLocked",
      "outputs": [
        {
          "internalType": "bool",
          "name": "",
          "type": "bool"
        }
      ],
      "stateMutability": "view",
      "type": "function"
    },
    {
      "inputs": [],
      "name": "withdrawPowerRevoked",
      "outputs": [
        {
          "internalType": "bool",
          "name": "",
          "type": "bool"
        }
      ],
      "stateMutability": "view",
      "type": "function"
    },
    {
      "inputs": [],
      "name": "withdrawRecipient",
      "outputs": [
        {
          "internalType": "address",
          "name": "",
          "type": "address"
        }
      ],
      "stateMutability": "view",
      "type": "function"
    },
    {
      "inputs": [],
      "name": "withdrawRecipientLocked",
      "outputs": [
        {
          "internalType": "bool",
          "name": "",
          "type": "bool"
        }
      ],
      "stateMutability": "view",
      "type": "function"
    },
    {
      "stateMutability": "payable",
      "type": "receive"
    }
  ],
  "transactionHash": "0x1b3a213e0dd920c6015d051a0daf97855a118f422383c21ee7409cb844825777",
  "args": [
    {
      "ticketToken": "0x0000000000000000000000000000000000000000",
      "lockedUntilTimestamp": 0,
      "minStakingDuration": 0,
      "maxStakingTotalDurations": 0,
      "emissionRate": 0,
      "emissionTimeUnit": 0,
      "emissionStart": 0,
      "emissionEnd": 0,
      "totalTickets": 0,
      "claimLockedUntil": 0
    }
  ],
  "numDeployments": 5,
  "solcInputHash": "ae313c01d869475afde0f5da31d0e322",
  "bytecode": "0x60806040523480156200001157600080fd5b50604051620046963803806200469683398101604081905262000034916200078e565b6200003f3362000057565b6001600255620000508133620000b2565b506200090a565b600080546001600160a01b038381166201000081810262010000600160b01b0319851617855560405193049190911692909183917f8be0079c531659141344cd1fd0a4f28419497f9722a3daafe3b4186f6b6457e091a35050565b6000620000c06001620001b0565b90508015620000d9576000805461ff0019166101001790555b620000e48262000057565b620000f182600062000262565b825160208401516200010491906200029c565b6200011e83604001518460600151620002d260201b60201c565b6200014283608001518460a001518560c001518660e001516200031260201b60201c565b610100830151620001539062000350565b610120830151620001649062000388565b8015620001ab576000805461ff0019169055604051600181527f7f26b83ff96e1f2b6a682f133852f6798a09c465da95921460cefb38474024989060200160405180910390a15b505050565b60008054610100900460ff161562000219578160ff166001148015620001e95750620001e730620003bd60201b620024971760201c565b155b620002115760405162461bcd60e51b815260040162000208906200085b565b60405180910390fd5b506000919050565b60005460ff808416911610620002435760405162461bcd60e51b815260040162000208906200085b565b506000805460ff191660ff92909216919091179055600190565b919050565b600054610100900460ff166200028c5760405162461bcd60e51b81526004016200020890620008a9565b620002988282620003cc565b5050565b600054610100900460ff16620002c65760405162461bcd60e51b81526004016200020890620008a9565b62000298828262000473565b600054610100900460ff16620002fc5760405162461bcd60e51b81526004016200020890620008a9565b62000306620004dd565b6200029882826200051b565b600054610100900460ff166200033c5760405162461bcd60e51b81526004016200020890620008a9565b6200034a8484848462000584565b50505050565b600054610100900460ff166200037a5760405162461bcd60e51b81526004016200020890620008a9565b62000385816200060f565b50565b600054610100900460ff16620003b25760405162461bcd60e51b81526004016200020890620008a9565b620003858162000650565b6001600160a01b03163b151590565b600054610100900460ff16620003f65760405162461bcd60e51b81526004016200020890620008a9565b6200040863ac2ba33360e01b620006a2565b600c8054600160401b600160e01b03198116680100000000000000006001600160a01b038616029081178355839291600160401b62ff000160e01b03191660ff60f01b1990911617600160f01b8360038111156200046a576200046a620008f4565b02179055505050565b600054610100900460ff166200049d5760405162461bcd60e51b81526004016200020890620008a9565b600380546001600160401b038316600160a01b026001600160e01b03199091166001600160a01b0385161717905562000298631ba050e960e21b620006a2565b600054610100900460ff16620005075760405162461bcd60e51b81526004016200020890620008a9565b6200051963d664280160e01b620006a2565b565b600054610100900460ff16620005455760405162461bcd60e51b81526004016200020890620008a9565b600980546001600160401b0383811668010000000000000000026001600160801b03199092169085161717905562000298633a41ba5360e11b620006a2565b600054610100900460ff16620005ae5760405162461bcd60e51b81526004016200020890620008a9565b6006849055600780546001600160401b03838116600160801b02600160801b600160c01b031986831668010000000000000000026001600160801b03199094169288169290921792909217161790556200034a63c9f600a960e01b620006a2565b600054610100900460ff16620006395760405162461bcd60e51b81526004016200020890620008a9565b600881905562000385632d5305cb60e21b620006a2565b600054610100900460ff166200067a5760405162461bcd60e51b81526004016200020890620008a9565b600c80546001600160401b0319166001600160401b038316179055620003856317b2ef4360e31b5b6001600160e01b03198082161415620006fe5760405162461bcd60e51b815260206004820152601c60248201527f4552433136353a20696e76616c696420696e7465726661636520696400000000604482015260640162000208565b6001600160e01b0319166000908152600160208190526040909120805460ff19169091179055565b60405161014081016001600160401b03811182821017156200075857634e487b7160e01b600052604160045260246000fd5b60405290565b80516001600160a01b03811681146200025d57600080fd5b80516001600160401b03811681146200025d57600080fd5b60006101408284031215620007a257600080fd5b620007ac62000726565b620007b7836200075e565b8152620007c76020840162000776565b6020820152620007da6040840162000776565b6040820152620007ed6060840162000776565b6060820152608083015160808201526200080a60a0840162000776565b60a08201526200081d60c0840162000776565b60c08201526200083060e0840162000776565b60e082015261010083810151908201526101206200085081850162000776565b908201529392505050565b6020808252602e908201527f496e697469616c697a61626c653a20636f6e747261637420697320616c72656160408201526d191e481a5b9a5d1a585b1a5e995960921b606082015260800190565b6020808252602b908201527f496e697469616c697a61626c653a20636f6e7472616374206973206e6f74206960408201526a6e697469616c697a696e6760a81b606082015260800190565b634e487b7160e01b600052602160045260246000fd5b613d7c806200091a6000396000f3fe60806040526004361061033a5760003560e01c80630191c0af1461035357806301ffc9a71461038657806306fdde03146103b657806308289dbe146103d857806308ae7e54146104265780630c805a44146104465780630fbf0a931461047c57806314427a961461049c5780631bc51b26146104bc5780631c725fdc146104d057806325289bad146104f05780632890d033146105175780632c0e13131461052c5780632c2330671461054c5780632d00b5871461056c5780632e17de781461059a57806333abcdbd146105ba578063379607f5146105da5780633a73f7d6146105fa5780633b3f12e21461061a5780633d2dded51461063a57806349561cb9146106775780634abb4c4914610698578063513da948146106c557806354fd4d50146106ec57806357dc48c81461071b5780636057e0ec1461076f57806361949636146107905780636ba4c138146107b0578063715018a6146107d057806378b094ca146107e5578063790c0c73146108055780638368909c14610825578063837fe1401461084c57806384fd5ae01461086157806389c6b815146108815780638da5cb5b146108a15780639199690b146104bc578063968d9b2c146108c357806396afc450146108e35780639edfe830146108f9578063a1bdb15e14610919578063a1cf649314610939578063a5549bc61461097c578063a5b23be71461099c578063a694fc3a146109bc578063a86b21e8146109dc578063a8a67c8c146109fc578063aaf2f99914610a1c578063ae890c0a14610a3c578063af121f5414610a5c578063c088184914610a7d578063c0bb38ff14610ab3578063c723955a14610ad3578063d0d6641d14610ae8578063d1335b69146104bc578063d4244f2414610b08578063d5ed4d5a14610b2f578063d6642801146104bc578063d97314f514610b4f578063da82b22714610b6f578063dcbe353f14610b84578063dd11247e14610bab578063dda8820f146104bc578063ddd5e1b214610bc1578063de6d6d9614610be1578063de76a67614610c01578063e449f34114610c21578063f2fde38b14610c41578063f389b6e414610c61578063f4415ad614610c81578063f593dfc814610cb9578063f66e38c214610cd957600080fd5b3661034e576000341161034c57600080fd5b005b600080fd5b34801561035f57600080fd5b5061037361036e366004613489565b610cf9565b6040519081526020015b60405180910390f35b34801561039257600080fd5b506103a66103a13660046134df565b610d4f565b604051901515815260200161037d565b3480156103c257600080fd5b506103cb610d8f565b60405161037d9190613509565b3480156103e457600080fd5b5061040e6103f336600461355e565b600b602052600090815260409020546001600160401b031681565b6040516001600160401b03909116815260200161037d565b34801561043257600080fd5b5060095461040e906001600160401b031681565b34801561045257600080fd5b5061040e61046136600461355e565b600a602052600090815260409020546001600160401b031681565b34801561048857600080fd5b5061034c610497366004613577565b610dab565b3480156104a857600080fd5b50600c5461040e906001600160401b031681565b3480156104c857600080fd5b5060016103a6565b3480156104dc57600080fd5b5061034c6104eb3660046135cf565b610e24565b3480156104fc57600080fd5b5060035461040e90600160a01b90046001600160401b031681565b34801561052357600080fd5b50610373610ed4565b34801561053857600080fd5b5061034c6105473660046135cf565b610ee5565b34801561055857600080fd5b5061034c6105673660046135ea565b610f68565b34801561057857600080fd5b50600c5461058d90600160f01b900460ff1681565b60405161037d9190613621565b3480156105a657600080fd5b5061034c6105b536600461355e565b610fee565b3480156105c657600080fd5b5061040e6105d536600461355e565b611025565b3480156105e657600080fd5b5061034c6105f536600461355e565b61111a565b34801561060657600080fd5b50610373610615366004613577565b611128565b34801561062657600080fd5b50610373610635366004613489565b61117a565b34801561064657600080fd5b506000805260056020527f05b8ccbb9d4d8fb16ea74ce3c29a41f1b461fbdaff4714a0d9a8eb05499746bc54610373565b34801561068357600080fd5b50600c546103a690600160f81b900460ff1681565b3480156106a457600080fd5b506106b86106b3366004613577565b6111f8565b60405161037d9190613649565b3480156106d157600080fd5b5060075461040e90600160401b90046001600160401b031681565b3480156106f857600080fd5b506103cb60405180604001604052806003815260200162302e3160e81b81525081565b34801561072757600080fd5b5061075a61073636600461368d565b60046020908152600092835260408084209091529082529020805460019091015482565b6040805192835260208301919091520161037d565b34801561077b57600080fd5b50600c546103a690600160e01b900460ff1681565b34801561079c57600080fd5b5060075461040e906001600160401b031681565b3480156107bc57600080fd5b5061034c6107cb366004613577565b6112a3565b3480156107dc57600080fd5b5061034c6112b4565b3480156107f157600080fd5b5061034c6108003660046135cf565b6112ef565b34801561081157600080fd5b506103736108203660046136bd565b61137c565b34801561083157600080fd5b5060075461040e90600160801b90046001600160401b031681565b34801561085857600080fd5b5061034c61144f565b34801561086d57600080fd5b5061037361087c366004613577565b6114bd565b34801561088d57600080fd5b5061037361089c366004613577565b611550565b3480156108ad57600080fd5b506108b6611565565b60405161037d91906136da565b3480156108cf57600080fd5b506103736108de36600461355e565b61157a565b3480156108ef57600080fd5b5061037360065481565b34801561090557600080fd5b506103736109143660046135cf565b611587565b34801561092557600080fd5b5061034c61093436600461355e565b6115cc565b34801561094557600080fd5b5061037361095436600461368d565b60009182526004602090815260408084206001600160a01b0393909316845291905290205490565b34801561098857600080fd5b5061034c6109973660046135cf565b611632565b3480156109a857600080fd5b506103736109b736600461355e565b6116b5565b3480156109c857600080fd5b5061034c6109d736600461355e565b6116fb565b3480156109e857600080fd5b506103736109f73660046135cf565b611761565b348015610a0857600080fd5b5061034c610a1736600461373b565b61179d565b348015610a2857600080fd5b5061034c610a373660046135cf565b61187c565b348015610a4857600080fd5b5061034c610a5736600461355e565b611909565b348015610a6857600080fd5b50600c546103a690600160e81b900460ff1681565b348015610a8957600080fd5b50610373610a983660046136bd565b6001600160a01b031660009081526005602052604090205490565b348015610abf57600080fd5b5061034c610ace3660046136bd565b61196f565b348015610adf57600080fd5b5061034c6119f4565b348015610af457600080fd5b50610373610b0336600461355e565b611a7c565b348015610b1457600080fd5b5060095461040e90600160401b90046001600160401b031681565b348015610b3b57600080fd5b506003546108b6906001600160a01b031681565b348015610b5b57600080fd5b5061034c610b6a3660046135cf565b611ad6565b348015610b7b57600080fd5b5061034c611b59565b348015610b9057600080fd5b50600c546108b690600160401b90046001600160a01b031681565b348015610bb757600080fd5b5061037360085481565b348015610bcd57600080fd5b5061034c610bdc36600461368d565b611bc6565b348015610bed57600080fd5b5061034c610bfc36600461381c565b611dcf565b348015610c0d57600080fd5b5061040e610c1c366004613577565b61202d565b348015610c2d57600080fd5b5061034c610c3c366004613577565b612079565b348015610c4d57600080fd5b5061034c610c5c3660046136bd565b6120a9565b348015610c6d57600080fd5b5061034c610c7c366004613887565b612146565b348015610c8d57600080fd5b50610373610c9c36600461355e565b600090815260046020908152604080832083805290915290205490565b348015610cc557600080fd5b5061034c610cd43660046135cf565b6123bb565b348015610ce557600080fd5b50610373610cf436600461368d565b612448565b600080805b84811015610d4657610d28868683818110610d1b57610d1b6138ee565b9050602002013585612448565b610d32908361391a565b915080610d3e81613932565b915050610cfe565b50949350505050565b60006301ffc9a760e01b6001600160e01b031983161480610d8957506001600160e01b0319821660009081526001602052604090205460ff165b92915050565b604051806060016040528060258152602001613d226025913981565b600280541415610dd65760405162461bcd60e51b8152600401610dcd9061394d565b60405180910390fd5b600280556007546001600160401b03600160401b9091048116429091161015610e115760405162461bcd60e51b8152600401610dcd90613984565b610e1b82826124a6565b50506001600255565b33610e2d611565565b6001600160a01b031614610e535760405162461bcd60e51b8152600401610dcd906139ad565b6003546001600160401b03600160a01b909104811690821611610ea85760405162461bcd60e51b815260206004820152600d60248201526c10d0539393d517d49155d25391609a1b6044820152606401610dcd565b600380546001600160401b03909216600160a01b02600160a01b600160e01b0319909216919091179055565b6000610ee0600061137c565b905090565b33610eee611565565b6001600160a01b031614610f145760405162461bcd60e51b8152600401610dcd906139ad565b60035442600160a01b9091046001600160401b031610610f465760405162461bcd60e51b8152600401610dcd906139e2565b600c80546001600160401b0319166001600160401b0392909216919091179055565b33610f71611565565b6001600160a01b031614610f975760405162461bcd60e51b8152600401610dcd906139ad565b600c54600160f81b900460ff1615610fc15760405162461bcd60e51b8152600401610dcd90613a09565b600c805482919060ff60f01b1916600160f01b836003811115610fe657610fe661360b565b021790555050565b6002805414156110105760405162461bcd60e51b8152600401610dcd9061394d565b6002805561101d81612518565b506001600255565b6000818152600b6020908152604080832054600a9092528220546001600160401b039182169116156110e257600061105b612583565b905042816001600160401b031611156110715750425b6000848152600a60205260409020546001600160401b0316156110e0576000848152600a60205260409020546001600160401b0390811690821611156110e0576000848152600a60205260409020546110d3906001600160401b031682613a29565b6110dd9083613a51565b91505b505b6009546001600160401b03600160401b90910481169082161115610d895750600954600160401b90046001600160401b031692915050565b611125816000611bc6565b50565b6000805b8281101561117357611155848483818110611149576111496138ee565b905060200201356116b5565b61115f908361391a565b91508061116b81613932565b91505061112c565b5092915050565b600080805b84811015610d46576004600087878481811061119d5761119d6138ee565b9050602002013581526020019081526020016000206000856001600160a01b03166001600160a01b0316815260200190815260200160002060000154826111e4919061391a565b9150806111f081613932565b91505061117f565b60606000826001600160401b03811115611214576112146136ee565b60405190808252806020026020018201604052801561123d578160200160208202803683370190505b50905060005b8381101561129b5761126c858583818110611260576112606138ee565b90506020020135611a7c565b82828151811061127e5761127e6138ee565b60209081029190910101528061129381613932565b915050611243565b509392505050565b6112b08282600033612146565b5050565b336112bd611565565b6001600160a01b0316146112e35760405162461bcd60e51b8152600401610dcd906139ad565b6112ed60006125c1565b565b336112f8611565565b6001600160a01b03161461131e5760405162461bcd60e51b8152600401610dcd906139ad565b60035442600160a01b9091046001600160401b0316106113505760405162461bcd60e51b8152600401610dcd906139e2565b600780546001600160401b03909216600160801b02600160801b600160c01b0319909216919091179055565b60006001600160a01b0382166113b0576001600160a01b038216600090815260056020526040902054610d8990479061391a565b6040516370a0823160e01b81526001600160a01b038316906370a08231906113dc9030906004016136da565b60206040518083038186803b1580156113f457600080fd5b505afa158015611408573d6000803e3d6000fd5b505050506040513d601f19601f8201168201806040525081019061142c9190613a7c565b6001600160a01b038316600090815260056020526040902054610d89919061391a565b33611458611565565b6001600160a01b03161461147e5760405162461bcd60e51b8152600401610dcd906139ad565b600c54600160e01b900460ff16156114a85760405162461bcd60e51b8152600401610dcd90613a09565b600c805460ff60e01b1916600160e01b179055565b60008060005b8381101561152c576000600a60008787858181106114e3576114e36138ee565b60209081029290920135835250810191909152604001600020546001600160401b0316111561151a578161151681613932565b9250505b8061152481613932565b9150506114c3565b506008548160065461153e9190613a95565b6115489190613aca565b949350505050565b600061155e8383600061117a565b9392505050565b6000546201000090046001600160a01b031690565b6000610d89826000612448565b6007546000906001600160401b03808216916115ac91600160401b9091041684613a29565b6115b69190613ade565b6001600160401b0316600654610d899190613a95565b336115d5611565565b6001600160a01b0316146115fb5760405162461bcd60e51b8152600401610dcd906139ad565b60035442600160a01b9091046001600160401b03161061162d5760405162461bcd60e51b8152600401610dcd906139e2565b600655565b3361163b611565565b6001600160a01b0316146116615760405162461bcd60e51b8152600401610dcd906139ad565b60035442600160a01b9091046001600160401b0316106116935760405162461bcd60e51b8152600401610dcd906139e2565b600980546001600160401b0319166001600160401b0392909216919091179055565b6007546008546000916001600160401b0316906116d184611025565b6001600160401b03166006546116e79190613a95565b6116f19190613aca565b610d899190613aca565b60028054141561171d5760405162461bcd60e51b8152600401610dcd9061394d565b600280556007546001600160401b03600160401b90910481164290911610156117585760405162461bcd60e51b8152600401610dcd90613984565b61101d8161261c565b6007546006546000916001600160401b03808216929161178a91600160401b9091041685613a29565b6001600160401b03166116f19190613a95565b60006117a96001612656565b905080156117c1576000805461ff0019166101001790555b6117ca826125c1565b6117d58260006126ea565b6117e78360000151846020015161271b565b6117f98360400151846060015161274c565b61181583608001518460a001518560c001518660e00151612785565b6118238361010001516127be565b6118318361012001516127ee565b8015611877576000805461ff0019169055604051600181527f7f26b83ff96e1f2b6a682f133852f6798a09c465da95921460cefb38474024989060200160405180910390a15b505050565b33611885611565565b6001600160a01b0316146118ab5760405162461bcd60e51b8152600401610dcd906139ad565b60035442600160a01b9091046001600160401b0316106118dd5760405162461bcd60e51b8152600401610dcd906139e2565b600780546001600160401b03909216600160401b02600160401b600160801b0319909216919091179055565b33611912611565565b6001600160a01b0316146119385760405162461bcd60e51b8152600401610dcd906139ad565b60035442600160a01b9091046001600160401b03161061196a5760405162461bcd60e51b8152600401610dcd906139e2565b600855565b33611978611565565b6001600160a01b03161461199e5760405162461bcd60e51b8152600401610dcd906139ad565b600c54600160e01b900460ff16156119c85760405162461bcd60e51b8152600401610dcd90613a09565b600c80546001600160a01b03909216600160401b02600160401b600160e01b0319909216919091179055565b336119fd611565565b6001600160a01b031614611a235760405162461bcd60e51b8152600401610dcd906139ad565b600c54600160f81b900460ff1615611a655760405162461bcd60e51b815260206004820152600560248201526413d0d2d15160da1b6044820152606401610dcd565b600c80546001600160f81b0316600160f81b179055565b6000818152600a60205260408120546001600160401b0316611a9f576000611ac7565b6009546000838152600a6020526040902054611ac7916001600160401b039081169116613a51565b6001600160401b031692915050565b33611adf611565565b6001600160a01b031614611b055760405162461bcd60e51b8152600401610dcd906139ad565b60035442600160a01b9091046001600160401b031610611b375760405162461bcd60e51b8152600401610dcd906139e2565b600780546001600160401b0319166001600160401b0392909216919091179055565b33611b62611565565b6001600160a01b031614611b885760405162461bcd60e51b8152600401610dcd906139ad565b600c805460ff60e81b1916600160e81b1790556040517fa24423a69b45c25c0479663125e48b482e71d85eae416f589545243bafaf3c9590600090a1565b600280541415611be85760405162461bcd60e51b8152600401610dcd9061394d565b6002805533611bf883838361281e565b6000611c048484612448565b905060008111611c495760405162461bcd60e51b815260206004820152601060248201526f4e4f5448494e475f544f5f434c41494d60801b6044820152606401610dcd565b60008481526004602090815260408083206001600160a01b038716845290915281208054839290611c7b90849061391a565b909155505060008481526004602090815260408083206001600160a01b0387168452825280832042600190910155600590915281208054839290611cc090849061391a565b90915550506001600160a01b038316611ceb57611ce66001600160a01b0383168261283f565b611d6d565b60405163a9059cbb60e01b81526001600160a01b0384169063a9059cbb90611d199085908590600401613b04565b602060405180830381600087803b158015611d3357600080fd5b505af1158015611d47573d6000803e3d6000fd5b505050506040513d601f19601f82011682018060405250810190611d6b9190613b1d565b505b604080513381526001600160a01b038481166020830152818301879052851660608201526080810183905290517fa2d3c4c1fc934d6d2d8f9e862df90c01ae4eb0e920cd8957d242ba26b8dc40789181900360a00190a1505060016002555050565b611dd833612955565b600c54600160401b90046001600160a01b0316611e2f5760405162461bcd60e51b815260206004820152601560248201527415d2551211149055cbd393d7d49150d25412515395605a1b6044820152606401610dcd565b600c54600160e81b900460ff1615611e895760405162461bcd60e51b815260206004820181905260248201527f57495448445241572f454d455247454e43595f504f5745525f5245564f4b45446044820152606401610dcd565b60005b83811015611fe9576000858583818110611ea857611ea86138ee565b9050602002016020810190611ebd91906136bd565b6001600160a01b03161415611f0957611f04838383818110611ee157611ee16138ee565b600c546001600160a01b03600160401b909104169260209091020135905061283f565b611fd7565b848482818110611f1b57611f1b6138ee565b9050602002016020810190611f3091906136bd565b600c546001600160a01b039182169163a9059cbb91600160401b900416858585818110611f5f57611f5f6138ee565b905060200201356040518363ffffffff1660e01b8152600401611f83929190613b04565b602060405180830381600087803b158015611f9d57600080fd5b505af1158015611fb1573d6000803e3d6000fd5b505050506040513d601f19601f82011682018060405250810190611fd59190613b1d565b505b80611fe181613932565b915050611e8c565b507fd40c399a83caf67d15628b821aa7c7bd940e563c57a047e2bd3b8c602bcaf5a58484848460405161201f9493929190613b75565b60405180910390a150505050565b600080805b8381101561129b5761205b85858381811061204f5761204f6138ee565b90506020020135611025565b6120659083613a51565b91508061207181613932565b915050612032565b60028054141561209b5760405162461bcd60e51b8152600401610dcd9061394d565b60028055610e1b8282612ae6565b336120b2611565565b6001600160a01b0316146120d85760405162461bcd60e51b8152600401610dcd906139ad565b6001600160a01b03811661213d5760405162461bcd60e51b815260206004820152602660248201527f4f776e61626c653a206e6577206f776e657220697320746865207a65726f206160448201526564647265737360d01b6064820152608401610dcd565b611125816125c1565b6002805414156121685760405162461bcd60e51b8152600401610dcd9061394d565b600280556000805b848110156122985761219b86868381811061218d5761218d6138ee565b90506020020135858561281e565b60006121bf8787848181106121b2576121b26138ee565b9050602002013586612448565b905080156122855780600460008989868181106121de576121de6138ee565b9050602002013581526020019081526020016000206000876001600160a01b03166001600160a01b031681526020019081526020016000206000016000828254612228919061391a565b9091555042905060046000898986818110612245576122456138ee565b6020908102929092013583525081810192909252604090810160009081206001600160a01b038a168252909252902060010155612282818461391a565b92505b508061229081613932565b915050612170565b506001600160a01b038316600090815260056020526040812080548392906122c190849061391a565b90915550506001600160a01b0383166122ec576122e76001600160a01b0383168261283f565b61236e565b60405163a9059cbb60e01b81526001600160a01b0384169063a9059cbb9061231a9085908590600401613b04565b602060405180830381600087803b15801561233457600080fd5b505af1158015612348573d6000803e3d6000fd5b505050506040513d601f19601f8201168201806040525081019061236c9190613b1d565b505b7fd84a5c424a4f777bcf4f645712b8e5ebfc550f42bde444fa822fe98ee1b132b13383878787866040516123a796959493929190613bd8565b60405180910390a150506001600255505050565b336123c4611565565b6001600160a01b0316146123ea5760405162461bcd60e51b8152600401610dcd906139ad565b60035442600160a01b9091046001600160401b03161061241c5760405162461bcd60e51b8152600401610dcd906139e2565b600980546001600160401b03909216600160401b02600160401b600160801b0319909216919091179055565b60008061246761246061245a8561137c565b50600090565b8585612b22565b60008581526004602090815260408083206001600160a01b03881684529091529020549091506115489082613c17565b6001600160a01b03163b151590565b6124b08282612b67565b6003546040516342cb086360e11b81526001600160a01b039091169063859610c6906124e29085908590600401613c2e565b600060405180830381600087803b1580156124fc57600080fd5b505af1158015612510573d6000803e3d6000fd5b505050505050565b61252181612ba9565b600354604051636198e33960e01b8152600481018390526001600160a01b0390911690636198e339906024015b600060405180830381600087803b15801561256857600080fd5b505af115801561257c573d6000803e3d6000fd5b5050505050565b600754600090600160801b90046001600160401b0316156125b55750600754600160801b90046001600160401b031690565b506001600160401b0390565b600080546001600160a01b038381166201000081810262010000600160b01b0319851617855560405193049190911692909183917f8be0079c531659141344cd1fd0a4f28419497f9722a3daafe3b4186f6b6457e091a35050565b61262581612bb4565b6003546040516337519c1960e21b8152600481018390526001600160a01b039091169063dd4670649060240161254e565b60008054610100900460ff16156126a4578160ff166001148015612680575061267e30612497565b155b61269c5760405162461bcd60e51b8152600401610dcd90613c42565b506000919050565b60005460ff8084169116106126cb5760405162461bcd60e51b8152600401610dcd90613c42565b506000805460ff191660ff92909216919091179055600190565b919050565b600054610100900460ff166127115760405162461bcd60e51b8152600401610dcd90613c90565b6112b08282612bbf565b600054610100900460ff166127425760405162461bcd60e51b8152600401610dcd90613c90565b6112b08282612c59565b600054610100900460ff166127735760405162461bcd60e51b8152600401610dcd90613c90565b61277b612cbe565b6112b08282612cf5565b600054610100900460ff166127ac5760405162461bcd60e51b8152600401610dcd90613c90565b6127b884848484612d54565b50505050565b600054610100900460ff166127e55760405162461bcd60e51b8152600401610dcd90613c90565b61112581612dd5565b600054610100900460ff166128155760405162461bcd60e51b8152600401610dcd90613c90565b61112581612e11565b612829838383612e63565b612834838383612f27565b611877838383612f72565b8047101561288f5760405162461bcd60e51b815260206004820152601d60248201527f416464726573733a20696e73756666696369656e742062616c616e63650000006044820152606401610dcd565b6000826001600160a01b03168260405160006040518083038185875af1925050503d80600081146128dc576040519150601f19603f3d011682016040523d82523d6000602084013e6128e1565b606091505b50509050806118775760405162461bcd60e51b815260206004820152603a60248201527f416464726573733a20756e61626c6520746f2073656e642076616c75652c20726044820152791958da5c1a595b9d081b585e481a185d99481c995d995c9d195960321b6064820152608401610dcd565b6003600c54600160f01b900460ff1660038111156129755761297561360b565b14156129b55760405162461bcd60e51b815260206004820152600f60248201526e15d2551211149055cbd313d0d2d151608a1b6044820152606401610dcd565b6002600c54600160f01b900460ff1660038111156129d5576129d561360b565b14156129de5750565b6001600c54600160f01b900460ff1660038111156129fe576129fe61360b565b1415612a6257600c546001600160a01b03828116600160401b90920416146111255760405162461bcd60e51b815260206004820152601760248201527615d2551211149055cbd3d3931657d49150d25412515395604a1b6044820152606401610dcd565b6000600c54600160f01b900460ff166003811115612a8257612a8261360b565b141561112557806001600160a01b0316612a9a611565565b6001600160a01b0316146111255760405162461bcd60e51b81526020600482015260136024820152722ba4aa24222920ab97a7a7262cafa7aba722a960691b6044820152606401610dcd565b612af08282613037565b600354604051635d36598f60e01b81526001600160a01b0390911690635d36598f906124e29085908590600401613c2e565b6007546000906001600160401b0316612b3a84611025565b612b449190613ade565b6001600160401b0316600854600654612b5d9190613aca565b6115489190613a95565b334260005b8381101561257c57612b978383878785818110612b8b57612b8b6138ee565b90506020020135613079565b80612ba181613932565b915050612b6c565b611125334283613130565b611125334283613079565b600054610100900460ff16612be65760405162461bcd60e51b8152600401610dcd90613c90565b612bf663ac2ba33360e01b6131e7565b600c8054600160401b600160e01b03198116600160401b6001600160a01b038616029081178355839291600160401b62ff000160e01b03191660ff60f01b1990911617600160f01b836003811115612c5057612c5061360b565b02179055505050565b600054610100900460ff16612c805760405162461bcd60e51b8152600401610dcd90613c90565b600380546001600160401b038316600160a01b026001600160e01b03199091166001600160a01b038516171790556112b0631ba050e960e21b6131e7565b600054610100900460ff16612ce55760405162461bcd60e51b8152600401610dcd90613c90565b6112ed63d664280160e01b6131e7565b600054610100900460ff16612d1c5760405162461bcd60e51b8152600401610dcd90613c90565b600980546001600160401b03838116600160401b026001600160801b0319909216908516171790556112b0633a41ba5360e11b6131e7565b600054610100900460ff16612d7b5760405162461bcd60e51b8152600401610dcd90613c90565b6006849055600780546001600160401b03838116600160801b02600160801b600160c01b0319868316600160401b026001600160801b03199094169288169290921792909217161790556127b863c9f600a960e01b6131e7565b600054610100900460ff16612dfc5760405162461bcd60e51b8152600401610dcd90613c90565b6008819055611125632d5305cb60e21b6131e7565b600054610100900460ff16612e385760405162461bcd60e51b8152600401610dcd90613c90565b600c80546001600160401b0319166001600160401b0383161790556111256317b2ef4360e31b6131e7565b6003546040516331a9108f60e11b8152600481018590526001600160a01b03838116921690636352211e9060240160206040518083038186803b158015612ea957600080fd5b505afa158015612ebd573d6000803e3d6000fd5b505050506040513d601f19601f82011682018060405250810190612ee19190613cdb565b6001600160a01b0316146118775760405162461bcd60e51b815260206004820152600d60248201526c2727aa2fa7232a2fa7aba722a960991b6044820152606401610dcd565b600c54426001600160401b03909116106118775760405162461bcd60e51b815260206004820152600c60248201526b10d310525357d313d0d2d15160a21b6044820152606401610dcd565b60075442600160401b9091046001600160401b031610612fc25760405162461bcd60e51b815260206004820152600b60248201526a1393d517d4d5105495115160aa1b6044820152606401610dcd565b600754612fd8906001600160401b031642613c17565b60008481526004602090815260408083206001600160a01b0387168452909152902060010154106118775760405162461bcd60e51b8152602060048201526009602482015268544f4f5f4541524c5960b81b6044820152606401610dcd565b334260005b8381101561257c57613067838387878581811061305b5761305b6138ee565b90506020020135613130565b8061307181613932565b91505061303c565b6003546040516331a9108f60e11b8152600481018390526001600160a01b0390911690636352211e9060240160206040518083038186803b1580156130bd57600080fd5b505afa1580156130d1573d6000803e3d6000fd5b505050506040513d601f19601f820116820180604052508101906130f59190613cdb565b6001600160a01b0316836001600160a01b0316146131255760405162461bcd60e51b8152600401610dcd90613cf8565b611877838383613268565b6003546040516331a9108f60e11b8152600481018390526001600160a01b0390911690636352211e9060240160206040518083038186803b15801561317457600080fd5b505afa158015613188573d6000803e3d6000fd5b505050506040513d601f19601f820116820180604052508101906131ac9190613cdb565b6001600160a01b0316836001600160a01b0316146131dc5760405162461bcd60e51b8152600401610dcd90613cf8565b611877838383613301565b6001600160e01b031980821614156132405760405162461bcd60e51b815260206004820152601c60248201527b115490cc4d8d4e881a5b9d985b1a59081a5b9d195c999858d9481a5960221b6044820152606401610dcd565b6001600160e01b0319166000908152600160208190526040909120805460ff19169091179055565b600954600160401b90046001600160401b031661328482611025565b6001600160401b0316106132d25760405162461bcd60e51b815260206004820152601560248201527413505617d1155490551253d397d15610d151511151605a1b6044820152606401610dcd565b6000908152600a6020526040902080546001600160401b0319166001600160401b039290921691909117905550565b6000818152600a60205260409020546001600160401b03166133525760405162461bcd60e51b815260206004820152600a6024820152691393d517d4d51052d15160b21b6044820152606401610dcd565b6009546000828152600a602052604090205461337a916001600160401b039081169116613a51565b6001600160401b0316826001600160401b031610156133d45760405162461bcd60e51b815260206004820152601660248201527509c9ea8bea6a882968a88be989e9c8ebe8a9c9eaa8e960531b6044820152606401610dcd565b6133dd81611025565b6000918252600b6020908152604080842080546001600160401b03949094166001600160401b0319948516179055600a909152909120805490911690555050565b60008083601f84011261343057600080fd5b5081356001600160401b0381111561344757600080fd5b6020830191508360208260051b850101111561346257600080fd5b9250929050565b6001600160a01b038116811461112557600080fd5b80356126e581613469565b60008060006040848603121561349e57600080fd5b83356001600160401b038111156134b457600080fd5b6134c08682870161341e565b90945092505060208401356134d481613469565b809150509250925092565b6000602082840312156134f157600080fd5b81356001600160e01b03198116811461155e57600080fd5b600060208083528351808285015260005b818110156135365785810183015185820160400152820161351a565b81811115613548576000604083870101525b50601f01601f1916929092016040019392505050565b60006020828403121561357057600080fd5b5035919050565b6000806020838503121561358a57600080fd5b82356001600160401b038111156135a057600080fd5b6135ac8582860161341e565b90969095509350505050565b80356001600160401b03811681146126e557600080fd5b6000602082840312156135e157600080fd5b61155e826135b8565b6000602082840312156135fc57600080fd5b81356004811061155e57600080fd5b634e487b7160e01b600052602160045260246000fd5b602081016004831061364357634e487b7160e01b600052602160045260246000fd5b91905290565b6020808252825182820181905260009190848201906040850190845b8181101561368157835183529284019291840191600101613665565b50909695505050505050565b600080604083850312156136a057600080fd5b8235915060208301356136b281613469565b809150509250929050565b6000602082840312156136cf57600080fd5b813561155e81613469565b6001600160a01b0391909116815260200190565b634e487b7160e01b600052604160045260246000fd5b60405161014081016001600160401b038111828210171561373557634e487b7160e01b600052604160045260246000fd5b60405290565b60008082840361016081121561375057600080fd5b6101408082121561376057600080fd5b613768613704565b91506137738561347e565b8252613781602086016135b8565b6020830152613792604086016135b8565b60408301526137a3606086016135b8565b6060830152608085013560808301526137be60a086016135b8565b60a08301526137cf60c086016135b8565b60c08301526137e060e086016135b8565b60e083015261010085810135908301526101206137fe8187016135b8565b818401525081935061381181860161347e565b925050509250929050565b6000806000806040858703121561383257600080fd5b84356001600160401b038082111561384957600080fd5b6138558883890161341e565b9096509450602087013591508082111561386e57600080fd5b5061387b8782880161341e565b95989497509550505050565b6000806000806060858703121561389d57600080fd5b84356001600160401b038111156138b357600080fd5b6138bf8782880161341e565b90955093505060208501356138d381613469565b915060408501356138e381613469565b939692955090935050565b634e487b7160e01b600052603260045260246000fd5b634e487b7160e01b600052601160045260246000fd5b6000821982111561392d5761392d613904565b500190565b600060001982141561394657613946613904565b5060010190565b6020808252601f908201527f5265656e7472616e637947756172643a207265656e7472616e742063616c6c00604082015260600190565b6020808252600f908201526e1393d517d4d5105495115117d65155608a1b604082015260600190565b6020808252818101527f4f776e61626c653a2063616c6c6572206973206e6f7420746865206f776e6572604082015260600190565b6020808252600d908201526c10d3d3919251d7d313d0d2d151609a1b604082015260600190565b6020808252600690820152651313d0d2d15160d21b604082015260600190565b60006001600160401b0383811690831681811015613a4957613a49613904565b039392505050565b60006001600160401b03828116848216808303821115613a7357613a73613904565b01949350505050565b600060208284031215613a8e57600080fd5b5051919050565b6000816000190483118215151615613aaf57613aaf613904565b500290565b634e487b7160e01b600052601260045260246000fd5b600082613ad957613ad9613ab4565b500490565b60006001600160401b0383811680613af857613af8613ab4565b92169190910492915050565b6001600160a01b03929092168252602082015260400190565b600060208284031215613b2f57600080fd5b8151801515811461155e57600080fd5b81835260006001600160fb1b03831115613b5857600080fd5b8260051b8083602087013760009401602001938452509192915050565b6040808252810184905260008560608301825b87811015613bb8578235613b9b81613469565b6001600160a01b0316825260209283019290910190600101613b88565b508381036020850152613bcc818688613b3f565b98975050505050505050565b600060018060a01b038089168352808816602084015260a06040840152613c0360a084018789613b3f565b941660608301525060800152949350505050565b600082821015613c2957613c29613904565b500390565b602081526000611548602083018486613b3f565b6020808252602e908201527f496e697469616c697a61626c653a20636f6e747261637420697320616c72656160408201526d191e481a5b9a5d1a585b1a5e995960921b606082015260800190565b6020808252602b908201527f496e697469616c697a61626c653a20636f6e7472616374206973206e6f74206960408201526a6e697469616c697a696e6760a81b606082015260800190565b600060208284031215613ced57600080fd5b815161155e81613469565b6020808252600f908201526e2727aa2faa27a5a2a72fa7aba722a960891b60408201526060019056fe455243373231204c6f636b6564205374616b696e6720456d697373696f6e2053747265616da264697066735822122012b358ac49e4db0b56601c48b81ddb3611b24ec109f9fe554a8e8640f799647164736f6c63430008090033",
  "devdoc": {
    "author": "Flair (https://flair.finance)",
    "kind": "dev",
    "methods": {
      "owner()": {
        "details": "Returns the address of the current owner."
      },
      "renounceOwnership()": {
        "details": "Leaves the contract without owner. It will not be possible to call `onlyOwner` functions anymore. Can only be called by the current owner. NOTE: Renouncing ownership will leave the contract without an owner, thereby removing any functionality that is only available to the owner."
      },
      "supportsInterface(bytes4)": {
        "details": "See {IERC165-supportsInterface}."
      },
      "transferOwnership(address)": {
        "details": "Transfers ownership of the contract to a new account (`newOwner`). Can only be called by the current owner."
      }
    },
    "version": 1
  },
  "userdoc": {
    "kind": "user",
    "methods": {},
    "version": 1
  },
  "storageLayout": {
    "storage": [
      {
        "astId": 886,
        "contract": "contracts/streams/ERC721/presets/ERC721LockedStakingEmissionStream.sol:ERC721LockedStakingEmissionStream",
        "label": "_initialized",
        "offset": 0,
        "slot": "0",
        "type": "t_uint8"
      },
      {
        "astId": 889,
        "contract": "contracts/streams/ERC721/presets/ERC721LockedStakingEmissionStream.sol:ERC721LockedStakingEmissionStream",
        "label": "_initializing",
        "offset": 1,
        "slot": "0",
        "type": "t_bool"
      },
      {
        "astId": 782,
        "contract": "contracts/streams/ERC721/presets/ERC721LockedStakingEmissionStream.sol:ERC721LockedStakingEmissionStream",
        "label": "_owner",
        "offset": 2,
        "slot": "0",
        "type": "t_address"
      },
      {
        "astId": 4693,
        "contract": "contracts/streams/ERC721/presets/ERC721LockedStakingEmissionStream.sol:ERC721LockedStakingEmissionStream",
        "label": "_supportedInterfaces",
        "offset": 0,
        "slot": "1",
        "type": "t_mapping(t_bytes4,t_bool)"
      },
      {
        "astId": 1124,
        "contract": "contracts/streams/ERC721/presets/ERC721LockedStakingEmissionStream.sol:ERC721LockedStakingEmissionStream",
        "label": "_status",
        "offset": 0,
        "slot": "2",
        "type": "t_uint256"
      },
      {
        "astId": 15135,
        "contract": "contracts/streams/ERC721/presets/ERC721LockedStakingEmissionStream.sol:ERC721LockedStakingEmissionStream",
        "label": "ticketToken",
        "offset": 0,
        "slot": "3",
        "type": "t_address"
      },
      {
        "astId": 15137,
        "contract": "contracts/streams/ERC721/presets/ERC721LockedStakingEmissionStream.sol:ERC721LockedStakingEmissionStream",
        "label": "lockedUntilTimestamp",
        "offset": 20,
        "slot": "3",
        "type": "t_uint64"
      },
      {
        "astId": 15144,
        "contract": "contracts/streams/ERC721/presets/ERC721LockedStakingEmissionStream.sol:ERC721LockedStakingEmissionStream",
        "label": "entitlements",
        "offset": 0,
        "slot": "4",
        "type": "t_mapping(t_uint256,t_mapping(t_address,t_struct(Entitlement)15133_storage))"
      },
      {
        "astId": 15148,
        "contract": "contracts/streams/ERC721/presets/ERC721LockedStakingEmissionStream.sol:ERC721LockedStakingEmissionStream",
        "label": "_streamTotalClaimed",
        "offset": 0,
        "slot": "5",
        "type": "t_mapping(t_address,t_uint256)"
      },
      {
        "astId": 16130,
        "contract": "contracts/streams/ERC721/presets/ERC721LockedStakingEmissionStream.sol:ERC721LockedStakingEmissionStream",
        "label": "emissionRate",
        "offset": 0,
        "slot": "6",
        "type": "t_uint256"
      },
      {
        "astId": 16132,
        "contract": "contracts/streams/ERC721/presets/ERC721LockedStakingEmissionStream.sol:ERC721LockedStakingEmissionStream",
        "label": "emissionTimeUnit",
        "offset": 0,
        "slot": "7",
        "type": "t_uint64"
      },
      {
        "astId": 16134,
        "contract": "contracts/streams/ERC721/presets/ERC721LockedStakingEmissionStream.sol:ERC721LockedStakingEmissionStream",
        "label": "emissionStart",
        "offset": 8,
        "slot": "7",
        "type": "t_uint64"
      },
      {
        "astId": 16136,
        "contract": "contracts/streams/ERC721/presets/ERC721LockedStakingEmissionStream.sol:ERC721LockedStakingEmissionStream",
        "label": "emissionEnd",
        "offset": 16,
        "slot": "7",
        "type": "t_uint64"
      },
      {
        "astId": 16447,
        "contract": "contracts/streams/ERC721/presets/ERC721LockedStakingEmissionStream.sol:ERC721LockedStakingEmissionStream",
        "label": "totalTickets",
        "offset": 0,
        "slot": "8",
        "type": "t_uint256"
      },
      {
        "astId": 17271,
        "contract": "contracts/streams/ERC721/presets/ERC721LockedStakingEmissionStream.sol:ERC721LockedStakingEmissionStream",
        "label": "minStakingDuration",
        "offset": 0,
        "slot": "9",
        "type": "t_uint64"
      },
      {
        "astId": 17273,
        "contract": "contracts/streams/ERC721/presets/ERC721LockedStakingEmissionStream.sol:ERC721LockedStakingEmissionStream",
        "label": "maxStakingTotalDurations",
        "offset": 8,
        "slot": "9",
        "type": "t_uint64"
      },
      {
        "astId": 17277,
        "contract": "contracts/streams/ERC721/presets/ERC721LockedStakingEmissionStream.sol:ERC721LockedStakingEmissionStream",
        "label": "lastStakingTime",
        "offset": 0,
        "slot": "10",
        "type": "t_mapping(t_uint256,t_uint64)"
      },
      {
        "astId": 17281,
        "contract": "contracts/streams/ERC721/presets/ERC721LockedStakingEmissionStream.sol:ERC721LockedStakingEmissionStream",
        "label": "savedStakedDurations",
        "offset": 0,
        "slot": "11",
        "type": "t_mapping(t_uint256,t_uint64)"
      },
      {
        "astId": 16639,
        "contract": "contracts/streams/ERC721/presets/ERC721LockedStakingEmissionStream.sol:ERC721LockedStakingEmissionStream",
        "label": "claimLockedUntil",
        "offset": 0,
        "slot": "12",
        "type": "t_uint64"
      },
      {
        "astId": 13775,
        "contract": "contracts/streams/ERC721/presets/ERC721LockedStakingEmissionStream.sol:ERC721LockedStakingEmissionStream",
        "label": "withdrawRecipient",
        "offset": 8,
        "slot": "12",
        "type": "t_address"
      },
      {
        "astId": 13777,
        "contract": "contracts/streams/ERC721/presets/ERC721LockedStakingEmissionStream.sol:ERC721LockedStakingEmissionStream",
        "label": "withdrawRecipientLocked",
        "offset": 28,
        "slot": "12",
        "type": "t_bool"
      },
      {
        "astId": 13779,
        "contract": "contracts/streams/ERC721/presets/ERC721LockedStakingEmissionStream.sol:ERC721LockedStakingEmissionStream",
        "label": "withdrawPowerRevoked",
        "offset": 29,
        "slot": "12",
        "type": "t_bool"
      },
      {
        "astId": 13782,
        "contract": "contracts/streams/ERC721/presets/ERC721LockedStakingEmissionStream.sol:ERC721LockedStakingEmissionStream",
        "label": "withdrawMode",
        "offset": 30,
        "slot": "12",
        "type": "t_enum(WithdrawMode)13719"
      },
      {
        "astId": 13784,
        "contract": "contracts/streams/ERC721/presets/ERC721LockedStakingEmissionStream.sol:ERC721LockedStakingEmissionStream",
        "label": "withdrawModeLocked",
        "offset": 31,
        "slot": "12",
        "type": "t_bool"
      }
    ],
    "types": {
      "t_address": {
        "encoding": "inplace",
        "label": "address",
        "numberOfBytes": "20"
      },
      "t_bool": {
        "encoding": "inplace",
        "label": "bool",
        "numberOfBytes": "1"
      },
      "t_bytes4": {
        "encoding": "inplace",
        "label": "bytes4",
        "numberOfBytes": "4"
      },
      "t_enum(WithdrawMode)13719": {
        "encoding": "inplace",
        "label": "enum WithdrawMode",
        "numberOfBytes": "1"
      },
      "t_mapping(t_address,t_struct(Entitlement)15133_storage)": {
        "encoding": "mapping",
        "key": "t_address",
        "label": "mapping(address => struct ERC721MultiTokenStream.Entitlement)",
        "numberOfBytes": "32",
        "value": "t_struct(Entitlement)15133_storage"
      },
      "t_mapping(t_address,t_uint256)": {
        "encoding": "mapping",
        "key": "t_address",
        "label": "mapping(address => uint256)",
        "numberOfBytes": "32",
        "value": "t_uint256"
      },
      "t_mapping(t_bytes4,t_bool)": {
        "encoding": "mapping",
        "key": "t_bytes4",
        "label": "mapping(bytes4 => bool)",
        "numberOfBytes": "32",
        "value": "t_bool"
      },
      "t_mapping(t_uint256,t_mapping(t_address,t_struct(Entitlement)15133_storage))": {
        "encoding": "mapping",
        "key": "t_uint256",
        "label": "mapping(uint256 => mapping(address => struct ERC721MultiTokenStream.Entitlement))",
        "numberOfBytes": "32",
        "value": "t_mapping(t_address,t_struct(Entitlement)15133_storage)"
      },
      "t_mapping(t_uint256,t_uint64)": {
        "encoding": "mapping",
        "key": "t_uint256",
        "label": "mapping(uint256 => uint64)",
        "numberOfBytes": "32",
        "value": "t_uint64"
      },
      "t_struct(Entitlement)15133_storage": {
        "encoding": "inplace",
        "label": "struct ERC721MultiTokenStream.Entitlement",
        "members": [
          {
            "astId": 15130,
            "contract": "contracts/streams/ERC721/presets/ERC721LockedStakingEmissionStream.sol:ERC721LockedStakingEmissionStream",
            "label": "totalClaimed",
            "offset": 0,
            "slot": "0",
            "type": "t_uint256"
          },
          {
            "astId": 15132,
            "contract": "contracts/streams/ERC721/presets/ERC721LockedStakingEmissionStream.sol:ERC721LockedStakingEmissionStream",
            "label": "lastClaimedAt",
            "offset": 0,
            "slot": "1",
            "type": "t_uint256"
          }
        ],
        "numberOfBytes": "64"
      },
      "t_uint256": {
        "encoding": "inplace",
        "label": "uint256",
        "numberOfBytes": "32"
      },
      "t_uint64": {
        "encoding": "inplace",
        "label": "uint64",
        "numberOfBytes": "8"
      },
      "t_uint8": {
        "encoding": "inplace",
        "label": "uint8",
        "numberOfBytes": "1"
      }
    }
  }
}