{
  "address": "0x47C91adF07FA05a6e6fC7d9a31780eAb6e6e60A3",
  "abi": [
    {
      "inputs": [
        {
          "components": [
            {
              "internalType": "address",
              "name": "ticketToken",
              "type": "address"
            },
            {
              "internalType": "uint64",
              "name": "lockedUntilTimestamp",
              "type": "uint64"
            },
            {
              "internalType": "uint256[]",
              "name": "tokenIds",
              "type": "uint256[]"
            },
            {
              "internalType": "uint256[]",
              "name": "shares",
              "type": "uint256[]"
            },
            {
              "internalType": "uint64",
              "name": "claimLockedUntil",
              "type": "uint64"
            }
          ],
          "internalType": "struct ERC721ShareInstantStream.Config",
          "name": "config",
          "type": "tuple"
        }
      ],
      "stateMutability": "nonpayable",
      "type": "constructor"
    },
    {
      "anonymous": false,
      "inputs": [
        {
          "indexed": false,
          "internalType": "address",
          "name": "operator",
          "type": "address"
        },
        {
          "indexed": false,
          "internalType": "address",
          "name": "beneficiary",
          "type": "address"
        },
        {
          "indexed": false,
          "internalType": "uint256",
          "name": "ticketTokenId",
          "type": "uint256"
        },
        {
          "indexed": false,
          "internalType": "address",
          "name": "claimToken",
          "type": "address"
        },
        {
          "indexed": false,
          "internalType": "uint256",
          "name": "releasedAmount",
          "type": "uint256"
        }
      ],
      "name": "Claim",
      "type": "event"
    },
    {
      "anonymous": false,
      "inputs": [
        {
          "indexed": false,
          "internalType": "address",
          "name": "operator",
          "type": "address"
        },
        {
          "indexed": false,
          "internalType": "address",
          "name": "beneficiary",
          "type": "address"
        },
        {
          "indexed": false,
          "internalType": "uint256[]",
          "name": "ticketTokenIds",
          "type": "uint256[]"
        },
        {
          "indexed": false,
          "internalType": "address",
          "name": "claimToken",
          "type": "address"
        },
        {
          "indexed": false,
          "internalType": "uint256",
          "name": "releasedAmount",
          "type": "uint256"
        }
      ],
      "name": "ClaimMany",
      "type": "event"
    },
    {
      "anonymous": false,
      "inputs": [
        {
          "indexed": false,
          "internalType": "uint8",
          "name": "version",
          "type": "uint8"
        }
      ],
      "name": "Initialized",
      "type": "event"
    },
    {
      "anonymous": false,
      "inputs": [
        {
          "indexed": true,
          "internalType": "address",
          "name": "previousOwner",
          "type": "address"
        },
        {
          "indexed": true,
          "internalType": "address",
          "name": "newOwner",
          "type": "address"
        }
      ],
      "name": "OwnershipTransferred",
      "type": "event"
    },
    {
      "anonymous": false,
      "inputs": [
        {
          "indexed": false,
          "internalType": "uint256",
          "name": "tokenId",
          "type": "uint256"
        },
        {
          "indexed": false,
          "internalType": "uint256",
          "name": "prevShares",
          "type": "uint256"
        },
        {
          "indexed": false,
          "internalType": "uint256",
          "name": "newShares",
          "type": "uint256"
        }
      ],
      "name": "SharesUpdated",
      "type": "event"
    },
    {
      "anonymous": false,
      "inputs": [],
      "name": "WithdrawPowerRevoked",
      "type": "event"
    },
    {
      "anonymous": false,
      "inputs": [
        {
          "indexed": false,
          "internalType": "address[]",
          "name": "claimTokens",
          "type": "address[]"
        },
        {
          "indexed": false,
          "internalType": "uint256[]",
          "name": "amounts",
          "type": "uint256[]"
        }
      ],
      "name": "Withdrawn",
      "type": "event"
    },
    {
      "inputs": [
        {
          "internalType": "uint256",
          "name": "ticketTokenId",
          "type": "uint256"
        }
      ],
      "name": "claim",
      "outputs": [],
      "stateMutability": "nonpayable",
      "type": "function"
    },
    {
      "inputs": [
        {
          "internalType": "uint256[]",
          "name": "ticketTokenIds",
          "type": "uint256[]"
        }
      ],
      "name": "claim",
      "outputs": [],
      "stateMutability": "nonpayable",
      "type": "function"
    },
    {
      "inputs": [
        {
          "internalType": "uint256",
          "name": "ticketTokenId",
          "type": "uint256"
        },
        {
          "internalType": "address",
          "name": "claimToken",
          "type": "address"
        }
      ],
      "name": "claim",
      "outputs": [],
      "stateMutability": "nonpayable",
      "type": "function"
    },
    {
      "inputs": [
        {
          "internalType": "uint256[]",
          "name": "ticketTokenIds",
          "type": "uint256[]"
        },
        {
          "internalType": "address",
          "name": "claimToken",
          "type": "address"
        },
        {
          "internalType": "address",
          "name": "owner",
          "type": "address"
        }
      ],
      "name": "claim",
      "outputs": [],
      "stateMutability": "nonpayable",
      "type": "function"
    },
    {
      "inputs": [],
      "name": "claimLockedUntil",
      "outputs": [
        {
          "internalType": "uint64",
          "name": "",
          "type": "uint64"
        }
      ],
      "stateMutability": "view",
      "type": "function"
    },
    {
      "inputs": [
        {
          "internalType": "uint256",
          "name": "",
          "type": "uint256"
        },
        {
          "internalType": "address",
          "name": "",
          "type": "address"
        }
      ],
      "name": "entitlements",
      "outputs": [
        {
          "internalType": "uint256",
          "name": "totalClaimed",
          "type": "uint256"
        },
        {
          "internalType": "uint256",
          "name": "lastClaimedAt",
          "type": "uint256"
        }
      ],
      "stateMutability": "view",
      "type": "function"
    },
    {
      "inputs": [
        {
          "internalType": "uint256[]",
          "name": "_tokenIds",
          "type": "uint256[]"
        }
      ],
      "name": "getSharesByTokens",
      "outputs": [
        {
          "internalType": "uint256[]",
          "name": "",
          "type": "uint256[]"
        }
      ],
      "stateMutability": "view",
      "type": "function"
    },
    {
      "inputs": [],
      "name": "hasERC721InstantReleaseExtension",
      "outputs": [
        {
          "internalType": "bool",
          "name": "",
          "type": "bool"
        }
      ],
      "stateMutability": "pure",
      "type": "function"
    },
    {
      "inputs": [],
      "name": "hasERC721LockableClaimExtension",
      "outputs": [
        {
          "internalType": "bool",
          "name": "",
          "type": "bool"
        }
      ],
      "stateMutability": "pure",
      "type": "function"
    },
    {
      "inputs": [],
      "name": "hasERC721ShareSplitExtension",
      "outputs": [
        {
          "internalType": "bool",
          "name": "",
          "type": "bool"
        }
      ],
      "stateMutability": "pure",
      "type": "function"
    },
    {
      "inputs": [
        {
          "components": [
            {
              "internalType": "address",
              "name": "ticketToken",
              "type": "address"
            },
            {
              "internalType": "uint64",
              "name": "lockedUntilTimestamp",
              "type": "uint64"
            },
            {
              "internalType": "uint256[]",
              "name": "tokenIds",
              "type": "uint256[]"
            },
            {
              "internalType": "uint256[]",
              "name": "shares",
              "type": "uint256[]"
            },
            {
              "internalType": "uint64",
              "name": "claimLockedUntil",
              "type": "uint64"
            }
          ],
          "internalType": "struct ERC721ShareInstantStream.Config",
          "name": "config",
          "type": "tuple"
        },
        {
          "internalType": "address",
          "name": "deployer",
          "type": "address"
        }
      ],
      "name": "initialize",
      "outputs": [],
      "stateMutability": "nonpayable",
      "type": "function"
    },
    {
      "inputs": [
        {
          "internalType": "uint64",
          "name": "newValue",
          "type": "uint64"
        }
      ],
      "name": "lockUntil",
      "outputs": [],
      "stateMutability": "nonpayable",
      "type": "function"
    },
    {
      "inputs": [],
      "name": "lockWithdrawMode",
      "outputs": [],
      "stateMutability": "nonpayable",
      "type": "function"
    },
    {
      "inputs": [],
      "name": "lockWithdrawRecipient",
      "outputs": [],
      "stateMutability": "nonpayable",
      "type": "function"
    },
    {
      "inputs": [],
      "name": "lockedUntilTimestamp",
      "outputs": [
        {
          "internalType": "uint64",
          "name": "",
          "type": "uint64"
        }
      ],
      "stateMutability": "view",
      "type": "function"
    },
    {
      "inputs": [],
      "name": "name",
      "outputs": [
        {
          "internalType": "string",
          "name": "",
          "type": "string"
        }
      ],
      "stateMutability": "view",
      "type": "function"
    },
    {
      "inputs": [],
      "name": "owner",
      "outputs": [
        {
          "internalType": "address",
          "name": "",
          "type": "address"
        }
      ],
      "stateMutability": "view",
      "type": "function"
    },
    {
      "inputs": [],
      "name": "renounceOwnership",
      "outputs": [],
      "stateMutability": "nonpayable",
      "type": "function"
    },
    {
      "inputs": [],
      "name": "revokeWithdrawPower",
      "outputs": [],
      "stateMutability": "nonpayable",
      "type": "function"
    },
    {
      "inputs": [
        {
          "internalType": "uint64",
          "name": "newValue",
          "type": "uint64"
        }
      ],
      "name": "setClaimLockedUntil",
      "outputs": [],
      "stateMutability": "nonpayable",
      "type": "function"
    },
    {
      "inputs": [
        {
          "internalType": "uint256[]",
          "name": "_tokenIds",
          "type": "uint256[]"
        },
        {
          "internalType": "uint256[]",
          "name": "_shares",
          "type": "uint256[]"
        }
      ],
      "name": "setSharesForTokens",
      "outputs": [],
      "stateMutability": "nonpayable",
      "type": "function"
    },
    {
      "inputs": [
        {
          "internalType": "enum WithdrawMode",
          "name": "_withdrawMode",
          "type": "uint8"
        }
      ],
      "name": "setWithdrawMode",
      "outputs": [],
      "stateMutability": "nonpayable",
      "type": "function"
    },
    {
      "inputs": [
        {
          "internalType": "address",
          "name": "_withdrawRecipient",
          "type": "address"
        }
      ],
      "name": "setWithdrawRecipient",
      "outputs": [],
      "stateMutability": "nonpayable",
      "type": "function"
    },
    {
      "inputs": [
        {
          "internalType": "uint256",
          "name": "",
          "type": "uint256"
        }
      ],
      "name": "shares",
      "outputs": [
        {
          "internalType": "uint256",
          "name": "",
          "type": "uint256"
        }
      ],
      "stateMutability": "view",
      "type": "function"
    },
    {
      "inputs": [
        {
          "internalType": "uint256[]",
          "name": "ticketTokenIds",
          "type": "uint256[]"
        },
        {
          "internalType": "address",
          "name": "claimToken",
          "type": "address"
        }
      ],
      "name": "streamClaimableAmount",
      "outputs": [
        {
          "internalType": "uint256",
          "name": "",
          "type": "uint256"
        }
      ],
      "stateMutability": "view",
      "type": "function"
    },
    {
      "inputs": [
        {
          "internalType": "uint256",
          "name": "ticketTokenId",
          "type": "uint256"
        }
      ],
      "name": "streamClaimableAmount",
      "outputs": [
        {
          "internalType": "uint256",
          "name": "",
          "type": "uint256"
        }
      ],
      "stateMutability": "view",
      "type": "function"
    },
    {
      "inputs": [
        {
          "internalType": "uint256",
          "name": "ticketTokenId",
          "type": "uint256"
        },
        {
          "internalType": "address",
          "name": "claimToken",
          "type": "address"
        }
      ],
      "name": "streamClaimableAmount",
      "outputs": [
        {
          "internalType": "uint256",
          "name": "",
          "type": "uint256"
        }
      ],
      "stateMutability": "view",
      "type": "function"
    },
    {
      "inputs": [
        {
          "internalType": "uint256[]",
          "name": "ticketTokenIds",
          "type": "uint256[]"
        },
        {
          "internalType": "address",
          "name": "claimToken",
          "type": "address"
        }
      ],
      "name": "streamTotalClaimed",
      "outputs": [
        {
          "internalType": "uint256",
          "name": "",
          "type": "uint256"
        }
      ],
      "stateMutability": "view",
      "type": "function"
    },
    {
      "inputs": [],
      "name": "streamTotalClaimed",
      "outputs": [
        {
          "internalType": "uint256",
          "name": "",
          "type": "uint256"
        }
      ],
      "stateMutability": "view",
      "type": "function"
    },
    {
      "inputs": [
        {
          "internalType": "uint256[]",
          "name": "ticketTokenIds",
          "type": "uint256[]"
        }
      ],
      "name": "streamTotalClaimed",
      "outputs": [
        {
          "internalType": "uint256",
          "name": "",
          "type": "uint256"
        }
      ],
      "stateMutability": "view",
      "type": "function"
    },
    {
      "inputs": [
        {
          "internalType": "uint256",
          "name": "ticketTokenId",
          "type": "uint256"
        },
        {
          "internalType": "address",
          "name": "claimToken",
          "type": "address"
        }
      ],
      "name": "streamTotalClaimed",
      "outputs": [
        {
          "internalType": "uint256",
          "name": "",
          "type": "uint256"
        }
      ],
      "stateMutability": "view",
      "type": "function"
    },
    {
      "inputs": [
        {
          "internalType": "address",
          "name": "claimToken",
          "type": "address"
        }
      ],
      "name": "streamTotalClaimed",
      "outputs": [
        {
          "internalType": "uint256",
          "name": "",
          "type": "uint256"
        }
      ],
      "stateMutability": "view",
      "type": "function"
    },
    {
      "inputs": [
        {
          "internalType": "uint256",
          "name": "ticketTokenId",
          "type": "uint256"
        }
      ],
      "name": "streamTotalClaimed",
      "outputs": [
        {
          "internalType": "uint256",
          "name": "",
          "type": "uint256"
        }
      ],
      "stateMutability": "view",
      "type": "function"
    },
    {
      "inputs": [],
      "name": "streamTotalSupply",
      "outputs": [
        {
          "internalType": "uint256",
          "name": "",
          "type": "uint256"
        }
      ],
      "stateMutability": "view",
      "type": "function"
    },
    {
      "inputs": [
        {
          "internalType": "address",
          "name": "claimToken",
          "type": "address"
        }
      ],
      "name": "streamTotalSupply",
      "outputs": [
        {
          "internalType": "uint256",
          "name": "",
          "type": "uint256"
        }
      ],
      "stateMutability": "view",
      "type": "function"
    },
    {
      "inputs": [
        {
          "internalType": "bytes4",
          "name": "interfaceId",
          "type": "bytes4"
        }
      ],
      "name": "supportsInterface",
      "outputs": [
        {
          "internalType": "bool",
          "name": "",
          "type": "bool"
        }
      ],
      "stateMutability": "view",
      "type": "function"
    },
    {
      "inputs": [],
      "name": "ticketToken",
      "outputs": [
        {
          "internalType": "address",
          "name": "",
          "type": "address"
        }
      ],
      "stateMutability": "view",
      "type": "function"
    },
    {
      "inputs": [],
      "name": "totalShares",
      "outputs": [
        {
          "internalType": "uint256",
          "name": "",
          "type": "uint256"
        }
      ],
      "stateMutability": "view",
      "type": "function"
    },
    {
      "inputs": [
        {
          "internalType": "address",
          "name": "newOwner",
          "type": "address"
        }
      ],
      "name": "transferOwnership",
      "outputs": [],
      "stateMutability": "nonpayable",
      "type": "function"
    },
    {
      "inputs": [],
      "name": "version",
      "outputs": [
        {
          "internalType": "string",
          "name": "",
          "type": "string"
        }
      ],
      "stateMutability": "view",
      "type": "function"
    },
    {
      "inputs": [
        {
          "internalType": "address[]",
          "name": "claimTokens",
          "type": "address[]"
        },
        {
          "internalType": "uint256[]",
          "name": "amounts",
          "type": "uint256[]"
        }
      ],
      "name": "withdraw",
      "outputs": [],
      "stateMutability": "nonpayable",
      "type": "function"
    },
    {
      "inputs": [],
      "name": "withdrawMode",
      "outputs": [
        {
          "internalType": "enum WithdrawMode",
          "name": "",
          "type": "uint8"
        }
      ],
      "stateMutability": "view",
      "type": "function"
    },
    {
      "inputs": [],
      "name": "withdrawModeLocked",
      "outputs": [
        {
          "internalType": "bool",
          "name": "",
          "type": "bool"
        }
      ],
      "stateMutability": "view",
      "type": "function"
    },
    {
      "inputs": [],
      "name": "withdrawPowerRevoked",
      "outputs": [
        {
          "internalType": "bool",
          "name": "",
          "type": "bool"
        }
      ],
      "stateMutability": "view",
      "type": "function"
    },
    {
      "inputs": [],
      "name": "withdrawRecipient",
      "outputs": [
        {
          "internalType": "address",
          "name": "",
          "type": "address"
        }
      ],
      "stateMutability": "view",
      "type": "function"
    },
    {
      "inputs": [],
      "name": "withdrawRecipientLocked",
      "outputs": [
        {
          "internalType": "bool",
          "name": "",
          "type": "bool"
        }
      ],
      "stateMutability": "view",
      "type": "function"
    },
    {
      "stateMutability": "payable",
      "type": "receive"
    }
  ],
  "transactionHash": "0x7b4572f7da1698a3d3f43c793a87080f0f157bb204385f7ba1b7e6c854c08d4b",
  "args": [
    {
      "ticketToken": "0x0000000000000000000000000000000000000000",
      "lockedUntilTimestamp": 0,
      "tokenIds": [],
      "shares": [],
      "claimLockedUntil": 0
    }
  ],
  "numDeployments": 4,
  "solcInputHash": "355438ae784a111cf4bfe26cdd58bdbc",
  "bytecode": "0x60806040523480156200001157600080fd5b5060405162003602380380620036028339810160408190526200003491620007f5565b6200003f3362000057565b6001600255620000508133620000b2565b5062000a04565b600080546001600160a01b038381166201000081810262010000600160b01b0319851617855560405193049190911692909183917f8be0079c531659141344cd1fd0a4f28419497f9722a3daafe3b4186f6b6457e091a35050565b6000620000c0600162000185565b90508015620000d9576000805461ff0019166101001790555b620000e48262000057565b620000f182600062000237565b8251602084015162000104919062000271565b6200010e620002a7565b6200012883604001518460600151620002dd60201b60201c565b6080830151620001389062000313565b801562000180576000805461ff0019169055604051600181527f7f26b83ff96e1f2b6a682f133852f6798a09c465da95921460cefb3847402498906020015b60405180910390a15b505050565b60008054610100900460ff1615620001ee578160ff166001148015620001be5750620001bc306200034b60201b62001a321760201c565b155b620001e65760405162461bcd60e51b8152600401620001dd90620008d6565b60405180910390fd5b506000919050565b60005460ff808416911610620002185760405162461bcd60e51b8152600401620001dd90620008d6565b506000805460ff191660ff92909216919091179055600190565b919050565b600054610100900460ff16620002615760405162461bcd60e51b8152600401620001dd9062000924565b6200026d82826200035a565b5050565b600054610100900460ff166200029b5760405162461bcd60e51b8152600401620001dd9062000924565b6200026d828262000401565b600054610100900460ff16620002d15760405162461bcd60e51b8152600401620001dd9062000924565b620002db6200046b565b565b600054610100900460ff16620003075760405162461bcd60e51b8152600401620001dd9062000924565b6200026d8282620004a7565b600054610100900460ff166200033d5760405162461bcd60e51b8152600401620001dd9062000924565b620003488162000542565b50565b6001600160a01b03163b151590565b600054610100900460ff16620003845760405162461bcd60e51b8152600401620001dd9062000924565b6200039663ac2ba33360e01b62000594565b60088054600160401b600160e01b03198116680100000000000000006001600160a01b038616029081178355839291600160401b62ff000160e01b03191660ff60f01b1990911617600160f01b836003811115620003f857620003f86200096f565b02179055505050565b600054610100900460ff166200042b5760405162461bcd60e51b8152600401620001dd9062000924565b600380546001600160401b038316600160a01b026001600160e01b03199091166001600160a01b038516171790556200026d631ba050e960e21b62000594565b600054610100900460ff16620004955760405162461bcd60e51b8152600401620001dd9062000924565b620002db631259990960e01b62000594565b600054610100900460ff16620004d15760405162461bcd60e51b8152600401620001dd9062000924565b8151815114620005245760405162461bcd60e51b815260206004820152601460248201527f53545245414d2f415247535f4d49534d415443480000000000000000000000006044820152606401620001dd565b62000530828262000618565b6200026d6333c7a33f60e11b62000594565b600054610100900460ff166200056c5760405162461bcd60e51b8152600401620001dd9062000924565b600880546001600160401b0319166001600160401b038316179055620003486317b2ef4360e31b5b6001600160e01b03198082161415620005f05760405162461bcd60e51b815260206004820152601c60248201527f4552433136353a20696e76616c696420696e74657266616365206964000000006044820152606401620001dd565b6001600160e01b0319166000908152600160208190526040909120805460ff19169091179055565b60005b815181101562000180576200066f8382815181106200063e576200063e62000985565b60200260200101518383815181106200065b576200065b62000985565b60200260200101516200068460201b60201c565b806200067b81620009b1565b9150506200061b565b60008281526007602052604090208054908290556006548190620006aa908490620009cf565b620006b69190620009ea565b60065560408051848152602081018390529081018390527ff81b1f9d8b5d36a5a67d13006a8b091a9b63e2a38b331d315d99c6daefd2ddcc9060600162000177565b634e487b7160e01b600052604160045260246000fd5b60405160a081016001600160401b0381118282101715620007335762000733620006f8565b60405290565b80516001600160401b03811681146200023257600080fd5b600082601f8301126200076357600080fd5b815160206001600160401b0380831115620007825762000782620006f8565b8260051b604051601f19603f83011681018181108482111715620007aa57620007aa620006f8565b604052938452858101830193838101925087851115620007c957600080fd5b83870191505b84821015620007ea57815183529183019190830190620007cf565b979650505050505050565b6000602082840312156200080857600080fd5b81516001600160401b03808211156200082057600080fd5b9083019060a082860312156200083557600080fd5b6200083f6200070e565b82516001600160a01b03811681146200085757600080fd5b8152620008676020840162000739565b60208201526040830151828111156200087f57600080fd5b6200088d8782860162000751565b604083015250606083015182811115620008a657600080fd5b620008b48782860162000751565b606083015250620008c86080840162000739565b608082015295945050505050565b6020808252602e908201527f496e697469616c697a61626c653a20636f6e747261637420697320616c72656160408201526d191e481a5b9a5d1a585b1a5e995960921b606082015260800190565b6020808252602b908201527f496e697469616c697a61626c653a20636f6e7472616374206973206e6f74206960408201526a6e697469616c697a696e6760a81b606082015260800190565b634e487b7160e01b600052602160045260246000fd5b634e487b7160e01b600052603260045260246000fd5b634e487b7160e01b600052601160045260246000fd5b6000600019821415620009c857620009c86200099b565b5060010190565b60008219821115620009e557620009e56200099b565b500190565b600082821015620009ff57620009ff6200099b565b500390565b612bee8062000a146000396000f3fe6080604052600436106102115760003560e01c8063016b27981461022a5780630191c0af1461024a57806301ffc9a71461027d57806306fdde03146102ad578063125999091461030157806314427a96146103155780631c725fdc1461034d57806325289bad1461036d5780632890d033146103945780632c0e1313146103a95780632c233067146103c95780632d00b587146103e9578063379607f5146104175780633a98ef39146104375780633b3f12e21461044d5780633d2dded51461046d57806340f37948146104aa57806349561cb9146104d757806354fd4d50146104f857806357a858fc1461052757806357dc48c8146105545780636057e0ec146105a85780636ba4c138146105c9578063715018a6146105e9578063790c0c73146105fe578063837fe1401461061e57806389c6b815146106335780638da5cb5b146106535780638fc852b1146106755780639199690b14610301578063968d9b2c14610695578063a1cf6493146106b5578063a8b46d8714610301578063af121f54146106f8578063c088184914610719578063c0bb38ff1461074f578063c723955a1461076f578063d5ed4d5a14610784578063da82b227146107a4578063dcbe353f146107b9578063ddd5e1b2146107e0578063de6d6d9614610800578063f2fde38b14610820578063f389b6e414610840578063f4415ad614610860578063f66e38c21461089857600080fd5b36610225576000341161022357600080fd5b005b600080fd5b34801561023657600080fd5b50610223610245366004612392565b6108b8565b34801561025657600080fd5b5061026a6102653660046124b4565b610975565b6040519081526020015b60405180910390f35b34801561028957600080fd5b5061029d61029836600461250a565b6109cb565b6040519015158152602001610274565b3480156102b957600080fd5b506102f46040518060400160405280601b81526020017a45524337323120536861726520496e7374616e742053747265616d60281b81525081565b6040516102749190612534565b34801561030d57600080fd5b50600161029d565b34801561032157600080fd5b50600854610335906001600160401b031681565b6040516001600160401b039091168152602001610274565b34801561035957600080fd5b50610223610368366004612589565b610a0b565b34801561037957600080fd5b5060035461033590600160a01b90046001600160401b031681565b3480156103a057600080fd5b5061026a610acb565b3480156103b557600080fd5b506102236103c4366004612589565b610adc565b3480156103d557600080fd5b506102236103e43660046125a4565b610b5f565b3480156103f557600080fd5b5060085461040a90600160f01b900460ff1681565b60405161027491906125db565b34801561042357600080fd5b50610223610432366004612603565b610be5565b34801561044357600080fd5b5061026a60065481565b34801561045957600080fd5b5061026a6104683660046124b4565b610bf3565b34801561047957600080fd5b506000805260056020527f05b8ccbb9d4d8fb16ea74ce3c29a41f1b461fbdaff4714a0d9a8eb05499746bc5461026a565b3480156104b657600080fd5b506104ca6104c536600461261c565b610c71565b604051610274919061265d565b3480156104e357600080fd5b5060085461029d90600160f81b900460ff1681565b34801561050457600080fd5b506102f460405180604001604052806003815260200162302e3160e81b81525081565b34801561053357600080fd5b5061026a610542366004612603565b60076020526000908152604090205481565b34801561056057600080fd5b5061059361056f3660046126a1565b60046020908152600092835260408084209091529082529020805460019091015482565b60408051928352602083019190915201610274565b3480156105b457600080fd5b5060085461029d90600160e01b900460ff1681565b3480156105d557600080fd5b506102236105e436600461261c565b610d28565b3480156105f557600080fd5b50610223610d39565b34801561060a57600080fd5b5061026a6106193660046126d1565b610d74565b34801561062a57600080fd5b50610223610e47565b34801561063f57600080fd5b5061026a61064e36600461261c565b610eb5565b34801561065f57600080fd5b50610668610eca565b60405161027491906126ee565b34801561068157600080fd5b50610223610690366004612702565b610edf565b3480156106a157600080fd5b5061026a6106b0366004612603565b610f6b565b3480156106c157600080fd5b5061026a6106d03660046126a1565b60009182526004602090815260408084206001600160a01b0393909316845291905290205490565b34801561070457600080fd5b5060085461029d90600160e81b900460ff1681565b34801561072557600080fd5b5061026a6107343660046126d1565b6001600160a01b031660009081526005602052604090205490565b34801561075b57600080fd5b5061022361076a3660046126d1565b610f78565b34801561077b57600080fd5b50610223610ffd565b34801561079057600080fd5b50600354610668906001600160a01b031681565b3480156107b057600080fd5b50610223611085565b3480156107c557600080fd5b5060085461066890600160401b90046001600160a01b031681565b3480156107ec57600080fd5b506102236107fb3660046126a1565b6110f2565b34801561080c57600080fd5b5061022361081b366004612765565b611380565b34801561082c57600080fd5b5061022361083b3660046126d1565b6115e3565b34801561084c57600080fd5b5061022361085b3660046127d0565b611680565b34801561086c57600080fd5b5061026a61087b366004612603565b600090815260046020908152604080832083805290915290205490565b3480156108a457600080fd5b5061026a6108b33660046126a1565b6119de565b60006108c46001611a41565b905080156108dc576000805461ff0019166101001790555b6108e582611ad5565b6108f0826000611b30565b61090283600001518460200151611b61565b61090a611b92565b61091c83604001518460600151611bc1565b6109298360800151611bf2565b8015610970576000805461ff0019169055604051600181527f7f26b83ff96e1f2b6a682f133852f6798a09c465da95921460cefb3847402498906020015b60405180910390a15b505050565b600080805b848110156109c2576109a486868381811061099757610997612837565b90506020020135856119de565b6109ae9083612863565b9150806109ba8161287b565b91505061097a565b50949350505050565b60006301ffc9a760e01b6001600160e01b031983161480610a0557506001600160e01b0319821660009081526001602052604090205460ff165b92915050565b33610a14610eca565b6001600160a01b031614610a435760405162461bcd60e51b8152600401610a3a90612896565b60405180910390fd5b6003546001600160401b03600160a01b909104811690821611610a9f5760405162461bcd60e51b815260206004820152601460248201527314d5149150534bd0d0539393d517d49155d2539160621b6044820152606401610a3a565b600380546001600160401b03909216600160a01b02600160a01b600160e01b0319909216919091179055565b6000610ad76000610d74565b905090565b33610ae5610eca565b6001600160a01b031614610b0b5760405162461bcd60e51b8152600401610a3a90612896565b60035442600160a01b9091046001600160401b031610610b3d5760405162461bcd60e51b8152600401610a3a906128cb565b600880546001600160401b0319166001600160401b0392909216919091179055565b33610b68610eca565b6001600160a01b031614610b8e5760405162461bcd60e51b8152600401610a3a90612896565b600854600160f81b900460ff1615610bb85760405162461bcd60e51b8152600401610a3a906128f9565b6008805482919060ff60f01b1916600160f01b836003811115610bdd57610bdd6125c5565b021790555050565b610bf08160006110f2565b50565b600080805b848110156109c25760046000878784818110610c1657610c16612837565b9050602002013581526020019081526020016000206000856001600160a01b03166001600160a01b031681526020019081526020016000206000015482610c5d9190612863565b915080610c698161287b565b915050610bf8565b60606000826001600160401b03811115610c8d57610c8d612283565b604051908082528060200260200182016040528015610cb6578160200160208202803683370190505b50905060005b8151811015610d205760076000868684818110610cdb57610cdb612837565b90506020020135815260200190815260200160002054828281518110610d0357610d03612837565b602090810291909101015280610d188161287b565b915050610cbc565b509392505050565b610d358282600033611680565b5050565b33610d42610eca565b6001600160a01b031614610d685760405162461bcd60e51b8152600401610a3a90612896565b610d726000611ad5565b565b60006001600160a01b038216610da8576001600160a01b038216600090815260056020526040902054610a05904790612863565b6040516370a0823160e01b81526001600160a01b038316906370a0823190610dd49030906004016126ee565b60206040518083038186803b158015610dec57600080fd5b505afa158015610e00573d6000803e3d6000fd5b505050506040513d601f19601f82011682018060405250810190610e249190612919565b6001600160a01b038316600090815260056020526040902054610a059190612863565b33610e50610eca565b6001600160a01b031614610e765760405162461bcd60e51b8152600401610a3a90612896565b600854600160e01b900460ff1615610ea05760405162461bcd60e51b8152600401610a3a906128f9565b6008805460ff60e01b1916600160e01b179055565b6000610ec383836000610bf3565b9392505050565b6000546201000090046001600160a01b031690565b33610ee8610eca565b6001600160a01b031614610f0e5760405162461bcd60e51b8152600401610a3a90612896565b8151815114610f2f5760405162461bcd60e51b8152600401610a3a90612932565b60035442600160a01b9091046001600160401b031610610f615760405162461bcd60e51b8152600401610a3a906128cb565b610d358282611c22565b6000610a058260006119de565b33610f81610eca565b6001600160a01b031614610fa75760405162461bcd60e51b8152600401610a3a90612896565b600854600160e01b900460ff1615610fd15760405162461bcd60e51b8152600401610a3a906128f9565b600880546001600160a01b03909216600160401b02600160401b600160e01b0319909216919091179055565b33611006610eca565b6001600160a01b03161461102c5760405162461bcd60e51b8152600401610a3a90612896565b600854600160f81b900460ff161561106e5760405162461bcd60e51b815260206004820152600560248201526413d0d2d15160da1b6044820152606401610a3a565b600880546001600160f81b0316600160f81b179055565b3361108e610eca565b6001600160a01b0316146110b45760405162461bcd60e51b8152600401610a3a90612896565b6008805460ff60e81b1916600160e81b1790556040517fa24423a69b45c25c0479663125e48b482e71d85eae416f589545243bafaf3c9590600090a1565b6002805414156111145760405162461bcd60e51b8152600401610a3a90612960565b600280556003546040516331a9108f60e11b8152600481018490526000916001600160a01b031690636352211e9060240160206040518083038186803b15801561115d57600080fd5b505afa158015611171573d6000803e3d6000fd5b505050506040513d601f19601f820116820180604052508101906111959190612997565b90506111a2838383611c7c565b60006111ae84846119de565b9050600081116111fa5760405162461bcd60e51b815260206004820152601760248201527653545245414d2f4e4f5448494e475f544f5f434c41494d60481b6044820152606401610a3a565b60008481526004602090815260408083206001600160a01b03871684529091528120805483929061122c908490612863565b909155505060008481526004602090815260408083206001600160a01b0387168452825280832042600190910155600590915281208054839290611271908490612863565b90915550506001600160a01b03831661129c576112976001600160a01b03831682611c87565b61131e565b60405163a9059cbb60e01b81526001600160a01b0384169063a9059cbb906112ca90859085906004016129b4565b602060405180830381600087803b1580156112e457600080fd5b505af11580156112f8573d6000803e3d6000fd5b505050506040513d601f19601f8201168201806040525081019061131c91906129cd565b505b604080513381526001600160a01b038481166020830152818301879052851660608201526080810183905290517fa2d3c4c1fc934d6d2d8f9e862df90c01ae4eb0e920cd8957d242ba26b8dc40789181900360a00190a1505060016002555050565b61138933611d9d565b600854600160401b90046001600160a01b03166113e05760405162461bcd60e51b815260206004820152601560248201527415d2551211149055cbd393d7d49150d25412515395605a1b6044820152606401610a3a565b600854600160e81b900460ff161561143a5760405162461bcd60e51b815260206004820181905260248201527f57495448445241572f454d455247454e43595f504f5745525f5245564f4b45446044820152606401610a3a565b60005b8381101561159f57600085858381811061145957611459612837565b905060200201602081019061146e91906126d1565b6001600160a01b031614156114ba576114b583838381811061149257611492612837565b6008546001600160a01b03600160401b9091041692602090910201359050611c87565b61158d565b8484828181106114cc576114cc612837565b90506020020160208101906114e191906126d1565b6001600160a01b031663a9059cbb60088054906101000a90046001600160a01b031685858581811061151557611515612837565b905060200201356040518363ffffffff1660e01b81526004016115399291906129b4565b602060405180830381600087803b15801561155357600080fd5b505af1158015611567573d6000803e3d6000fd5b505050506040513d601f19601f8201168201806040525081019061158b91906129cd565b505b806115978161287b565b91505061143d565b507fd40c399a83caf67d15628b821aa7c7bd940e563c57a047e2bd3b8c602bcaf5a5848484846040516115d59493929190612a25565b60405180910390a150505050565b336115ec610eca565b6001600160a01b0316146116125760405162461bcd60e51b8152600401610a3a90612896565b6001600160a01b0381166116775760405162461bcd60e51b815260206004820152602660248201527f4f776e61626c653a206e6577206f776e657220697320746865207a65726f206160448201526564647265737360d01b6064820152608401610a3a565b610bf081611ad5565b6002805414156116a25760405162461bcd60e51b8152600401610a3a90612960565b600280556000805b848110156118bb576116d58686838181106116c7576116c7612837565b905060200201358585611c7c565b6003546001600160a01b038085169116636352211e8888858181106116fc576116fc612837565b905060200201356040518263ffffffff1660e01b815260040161172191815260200190565b60206040518083038186803b15801561173957600080fd5b505afa15801561174d573d6000803e3d6000fd5b505050506040513d601f19601f820116820180604052508101906117719190612997565b6001600160a01b0316146117be5760405162461bcd60e51b815260206004820152601460248201527329aa2922a0a697a727aa2fa7232a2fa7aba722a960611b6044820152606401610a3a565b60006117e28787848181106117d5576117d5612837565b90506020020135866119de565b905080156118a857806004600089898681811061180157611801612837565b9050602002013581526020019081526020016000206000876001600160a01b03166001600160a01b03168152602001908152602001600020600001600082825461184b9190612863565b909155504290506004600089898681811061186857611868612837565b6020908102929092013583525081810192909252604090810160009081206001600160a01b038a1682529092529020600101556118a58184612863565b92505b50806118b38161287b565b9150506116aa565b506001600160a01b038316600090815260056020526040812080548392906118e4908490612863565b90915550506001600160a01b03831661190f5761190a6001600160a01b03831682611c87565b611991565b60405163a9059cbb60e01b81526001600160a01b0384169063a9059cbb9061193d90859085906004016129b4565b602060405180830381600087803b15801561195757600080fd5b505af115801561196b573d6000803e3d6000fd5b505050506040513d601f19601f8201168201806040525081019061198f91906129cd565b505b7fd84a5c424a4f777bcf4f645712b8e5ebfc550f42bde444fa822fe98ee1b132b13383878787866040516119ca96959493929190612a88565b60405180910390a150506001600255505050565b6000806119fa6119f36119f085610d74565b90565b8585611f2e565b60008581526004602090815260408083206001600160a01b0388168452909152902054909150611a2a9082612ac7565b949350505050565b6001600160a01b03163b151590565b60008054610100900460ff1615611a8f578160ff166001148015611a6b5750611a6930611a32565b155b611a875760405162461bcd60e51b8152600401610a3a90612ade565b506000919050565b60005460ff808416911610611ab65760405162461bcd60e51b8152600401610a3a90612ade565b506000805460ff191660ff92909216919091179055600190565b919050565b600080546001600160a01b038381166201000081810262010000600160b01b0319851617855560405193049190911692909183917f8be0079c531659141344cd1fd0a4f28419497f9722a3daafe3b4186f6b6457e091a35050565b600054610100900460ff16611b575760405162461bcd60e51b8152600401610a3a90612b2c565b610d358282611f57565b600054610100900460ff16611b885760405162461bcd60e51b8152600401610a3a90612b2c565b610d358282611ff1565b600054610100900460ff16611bb95760405162461bcd60e51b8152600401610a3a90612b2c565b610d72612056565b600054610100900460ff16611be85760405162461bcd60e51b8152600401610a3a90612b2c565b610d35828261208d565b600054610100900460ff16611c195760405162461bcd60e51b8152600401610a3a90612b2c565b610bf0816120ef565b60005b815181101561097057611c6a838281518110611c4357611c43612837565b6020026020010151838381518110611c5d57611c5d612837565b6020026020010151612141565b80611c748161287b565b915050611c25565b6109708383836121b0565b80471015611cd75760405162461bcd60e51b815260206004820152601d60248201527f416464726573733a20696e73756666696369656e742062616c616e63650000006044820152606401610a3a565b6000826001600160a01b03168260405160006040518083038185875af1925050503d8060008114611d24576040519150601f19603f3d011682016040523d82523d6000602084013e611d29565b606091505b50509050806109705760405162461bcd60e51b815260206004820152603a60248201527f416464726573733a20756e61626c6520746f2073656e642076616c75652c20726044820152791958da5c1a595b9d081b585e481a185d99481c995d995c9d195960321b6064820152608401610a3a565b6003600854600160f01b900460ff166003811115611dbd57611dbd6125c5565b1415611dfd5760405162461bcd60e51b815260206004820152600f60248201526e15d2551211149055cbd313d0d2d151608a1b6044820152606401610a3a565b6002600854600160f01b900460ff166003811115611e1d57611e1d6125c5565b1415611e265750565b6001600854600160f01b900460ff166003811115611e4657611e466125c5565b1415611eaa576008546001600160a01b03828116600160401b9092041614610bf05760405162461bcd60e51b815260206004820152601760248201527615d2551211149055cbd3d3931657d49150d25412515395604a1b6044820152606401610a3a565b6000600854600160f01b900460ff166003811115611eca57611eca6125c5565b1415610bf057806001600160a01b0316611ee2610eca565b6001600160a01b031614610bf05760405162461bcd60e51b81526020600482015260136024820152722ba4aa24222920ab97a7a7262cafa7aba722a960691b6044820152606401610a3a565b600654600083815260076020526040812054909190611f4d9086612b77565b611a2a9190612b96565b600054610100900460ff16611f7e5760405162461bcd60e51b8152600401610a3a90612b2c565b611f8e63ac2ba33360e01b612202565b60088054600160401b600160e01b03198116600160401b6001600160a01b038616029081178355839291600160401b62ff000160e01b03191660ff60f01b1990911617600160f01b836003811115611fe857611fe86125c5565b02179055505050565b600054610100900460ff166120185760405162461bcd60e51b8152600401610a3a90612b2c565b600380546001600160401b038316600160a01b026001600160e01b03199091166001600160a01b03851617179055610d35631ba050e960e21b612202565b600054610100900460ff1661207d5760405162461bcd60e51b8152600401610a3a90612b2c565b610d72631259990960e01b612202565b600054610100900460ff166120b45760405162461bcd60e51b8152600401610a3a90612b2c565b81518151146120d55760405162461bcd60e51b8152600401610a3a90612932565b6120df8282611c22565b610d356333c7a33f60e11b612202565b600054610100900460ff166121165760405162461bcd60e51b8152600401610a3a90612b2c565b600880546001600160401b0319166001600160401b038316179055610bf06317b2ef4360e31b612202565b60008281526007602052604090208054908290556006548190612165908490612863565b61216f9190612ac7565b60065560408051848152602081018390529081018390527ff81b1f9d8b5d36a5a67d13006a8b091a9b63e2a38b331d315d99c6daefd2ddcc90606001610967565b600854426001600160401b03909116106109705760405162461bcd60e51b815260206004820152601360248201527214d5149150534bd0d310525357d313d0d2d151606a1b6044820152606401610a3a565b6001600160e01b0319808216141561225b5760405162461bcd60e51b815260206004820152601c60248201527b115490cc4d8d4e881a5b9d985b1a59081a5b9d195c999858d9481a5960221b6044820152606401610a3a565b6001600160e01b0319166000908152600160208190526040909120805460ff19169091179055565b634e487b7160e01b600052604160045260246000fd5b60405160a081016001600160401b03811182821017156122bb576122bb612283565b60405290565b6001600160a01b0381168114610bf057600080fd5b8035611ad0816122c1565b80356001600160401b0381168114611ad057600080fd5b600082601f83011261230957600080fd5b813560206001600160401b038083111561232557612325612283565b8260051b604051601f19603f8301168101818110848211171561234a5761234a612283565b60405293845285810183019383810192508785111561236857600080fd5b83870191505b848210156123875781358352918301919083019061236e565b979650505050505050565b600080604083850312156123a557600080fd5b82356001600160401b03808211156123bc57600080fd5b9084019060a082870312156123d057600080fd5b6123d8612299565b82356123e3816122c1565b81526123f1602084016122e1565b602082015260408301358281111561240857600080fd5b612414888286016122f8565b60408301525060608301358281111561242c57600080fd5b612438888286016122f8565b60608301525061244a608084016122e1565b60808201529350612460915050602084016122d6565b90509250929050565b60008083601f84011261247b57600080fd5b5081356001600160401b0381111561249257600080fd5b6020830191508360208260051b85010111156124ad57600080fd5b9250929050565b6000806000604084860312156124c957600080fd5b83356001600160401b038111156124df57600080fd5b6124eb86828701612469565b90945092505060208401356124ff816122c1565b809150509250925092565b60006020828403121561251c57600080fd5b81356001600160e01b031981168114610ec357600080fd5b600060208083528351808285015260005b8181101561256157858101830151858201604001528201612545565b81811115612573576000604083870101525b50601f01601f1916929092016040019392505050565b60006020828403121561259b57600080fd5b610ec3826122e1565b6000602082840312156125b657600080fd5b813560048110610ec357600080fd5b634e487b7160e01b600052602160045260246000fd5b60208101600483106125fd57634e487b7160e01b600052602160045260246000fd5b91905290565b60006020828403121561261557600080fd5b5035919050565b6000806020838503121561262f57600080fd5b82356001600160401b0381111561264557600080fd5b61265185828601612469565b90969095509350505050565b6020808252825182820181905260009190848201906040850190845b8181101561269557835183529284019291840191600101612679565b50909695505050505050565b600080604083850312156126b457600080fd5b8235915060208301356126c6816122c1565b809150509250929050565b6000602082840312156126e357600080fd5b8135610ec3816122c1565b6001600160a01b0391909116815260200190565b6000806040838503121561271557600080fd5b82356001600160401b038082111561272c57600080fd5b612738868387016122f8565b9350602085013591508082111561274e57600080fd5b5061275b858286016122f8565b9150509250929050565b6000806000806040858703121561277b57600080fd5b84356001600160401b038082111561279257600080fd5b61279e88838901612469565b909650945060208701359150808211156127b757600080fd5b506127c487828801612469565b95989497509550505050565b600080600080606085870312156127e657600080fd5b84356001600160401b038111156127fc57600080fd5b61280887828801612469565b909550935050602085013561281c816122c1565b9150604085013561282c816122c1565b939692955090935050565b634e487b7160e01b600052603260045260246000fd5b634e487b7160e01b600052601160045260246000fd5b600082198211156128765761287661284d565b500190565b600060001982141561288f5761288f61284d565b5060010190565b6020808252818101527f4f776e61626c653a2063616c6c6572206973206e6f7420746865206f776e6572604082015260600190565b60208082526014908201527314d5149150534bd0d3d3919251d7d313d0d2d15160621b604082015260600190565b6020808252600690820152651313d0d2d15160d21b604082015260600190565b60006020828403121561292b57600080fd5b5051919050565b6020808252601490820152730a6a8a48a829a5e82a48ea6be9a92a69a82a886960631b604082015260600190565b6020808252601f908201527f5265656e7472616e637947756172643a207265656e7472616e742063616c6c00604082015260600190565b6000602082840312156129a957600080fd5b8151610ec3816122c1565b6001600160a01b03929092168252602082015260400190565b6000602082840312156129df57600080fd5b81518015158114610ec357600080fd5b81835260006001600160fb1b03831115612a0857600080fd5b8260051b8083602087013760009401602001938452509192915050565b6040808252810184905260008560608301825b87811015612a68578235612a4b816122c1565b6001600160a01b0316825260209283019290910190600101612a38565b508381036020850152612a7c8186886129ef565b98975050505050505050565b600060018060a01b038089168352808816602084015260a06040840152612ab360a0840187896129ef565b941660608301525060800152949350505050565b600082821015612ad957612ad961284d565b500390565b6020808252602e908201527f496e697469616c697a61626c653a20636f6e747261637420697320616c72656160408201526d191e481a5b9a5d1a585b1a5e995960921b606082015260800190565b6020808252602b908201527f496e697469616c697a61626c653a20636f6e7472616374206973206e6f74206960408201526a6e697469616c697a696e6760a81b606082015260800190565b6000816000190483118215151615612b9157612b9161284d565b500290565b600082612bb357634e487b7160e01b600052601260045260246000fd5b50049056fea2646970667358221220a737be5f305f650be5c991353c5cca6e592ed087b09b53754587fc9c7ccde51764736f6c63430008090033",
  "devdoc": {
    "kind": "dev",
    "methods": {
      "owner()": {
        "details": "Returns the address of the current owner."
      },
      "renounceOwnership()": {
        "details": "Leaves the contract without owner. It will not be possible to call `onlyOwner` functions anymore. Can only be called by the current owner. NOTE: Renouncing ownership will leave the contract without an owner, thereby removing any functionality that is only available to the owner."
      },
      "supportsInterface(bytes4)": {
        "details": "See {IERC165-supportsInterface}."
      },
      "transferOwnership(address)": {
        "details": "Transfers ownership of the contract to a new account (`newOwner`). Can only be called by the current owner."
      }
    },
    "version": 1
  },
  "userdoc": {
    "kind": "user",
    "methods": {},
    "version": 1
  },
  "storageLayout": {
    "storage": [
      {
        "astId": 886,
        "contract": "contracts/streams/ERC721/presets/ERC721ShareInstantStream.sol:ERC721ShareInstantStream",
        "label": "_initialized",
        "offset": 0,
        "slot": "0",
        "type": "t_uint8"
      },
      {
        "astId": 889,
        "contract": "contracts/streams/ERC721/presets/ERC721ShareInstantStream.sol:ERC721ShareInstantStream",
        "label": "_initializing",
        "offset": 1,
        "slot": "0",
        "type": "t_bool"
      },
      {
        "astId": 782,
        "contract": "contracts/streams/ERC721/presets/ERC721ShareInstantStream.sol:ERC721ShareInstantStream",
        "label": "_owner",
        "offset": 2,
        "slot": "0",
        "type": "t_address"
      },
      {
        "astId": 4693,
        "contract": "contracts/streams/ERC721/presets/ERC721ShareInstantStream.sol:ERC721ShareInstantStream",
        "label": "_supportedInterfaces",
        "offset": 0,
        "slot": "1",
        "type": "t_mapping(t_bytes4,t_bool)"
      },
      {
        "astId": 1124,
        "contract": "contracts/streams/ERC721/presets/ERC721ShareInstantStream.sol:ERC721ShareInstantStream",
        "label": "_status",
        "offset": 0,
        "slot": "2",
        "type": "t_uint256"
      },
      {
        "astId": 14224,
        "contract": "contracts/streams/ERC721/presets/ERC721ShareInstantStream.sol:ERC721ShareInstantStream",
        "label": "ticketToken",
        "offset": 0,
        "slot": "3",
        "type": "t_address"
      },
      {
        "astId": 14226,
        "contract": "contracts/streams/ERC721/presets/ERC721ShareInstantStream.sol:ERC721ShareInstantStream",
        "label": "lockedUntilTimestamp",
        "offset": 20,
        "slot": "3",
        "type": "t_uint64"
      },
      {
        "astId": 14233,
        "contract": "contracts/streams/ERC721/presets/ERC721ShareInstantStream.sol:ERC721ShareInstantStream",
        "label": "entitlements",
        "offset": 0,
        "slot": "4",
        "type": "t_mapping(t_uint256,t_mapping(t_address,t_struct(Entitlement)14222_storage))"
      },
      {
        "astId": 14237,
        "contract": "contracts/streams/ERC721/presets/ERC721ShareInstantStream.sol:ERC721ShareInstantStream",
        "label": "_streamTotalClaimed",
        "offset": 0,
        "slot": "5",
        "type": "t_mapping(t_address,t_uint256)"
      },
      {
        "astId": 15759,
        "contract": "contracts/streams/ERC721/presets/ERC721ShareInstantStream.sol:ERC721ShareInstantStream",
        "label": "totalShares",
        "offset": 0,
        "slot": "6",
        "type": "t_uint256"
      },
      {
        "astId": 15763,
        "contract": "contracts/streams/ERC721/presets/ERC721ShareInstantStream.sol:ERC721ShareInstantStream",
        "label": "shares",
        "offset": 0,
        "slot": "7",
        "type": "t_mapping(t_uint256,t_uint256)"
      },
      {
        "astId": 15472,
        "contract": "contracts/streams/ERC721/presets/ERC721ShareInstantStream.sol:ERC721ShareInstantStream",
        "label": "claimLockedUntil",
        "offset": 0,
        "slot": "8",
        "type": "t_uint64"
      },
      {
        "astId": 12904,
        "contract": "contracts/streams/ERC721/presets/ERC721ShareInstantStream.sol:ERC721ShareInstantStream",
        "label": "withdrawRecipient",
        "offset": 8,
        "slot": "8",
        "type": "t_address"
      },
      {
        "astId": 12906,
        "contract": "contracts/streams/ERC721/presets/ERC721ShareInstantStream.sol:ERC721ShareInstantStream",
        "label": "withdrawRecipientLocked",
        "offset": 28,
        "slot": "8",
        "type": "t_bool"
      },
      {
        "astId": 12908,
        "contract": "contracts/streams/ERC721/presets/ERC721ShareInstantStream.sol:ERC721ShareInstantStream",
        "label": "withdrawPowerRevoked",
        "offset": 29,
        "slot": "8",
        "type": "t_bool"
      },
      {
        "astId": 12911,
        "contract": "contracts/streams/ERC721/presets/ERC721ShareInstantStream.sol:ERC721ShareInstantStream",
        "label": "withdrawMode",
        "offset": 30,
        "slot": "8",
        "type": "t_enum(WithdrawMode)12848"
      },
      {
        "astId": 12913,
        "contract": "contracts/streams/ERC721/presets/ERC721ShareInstantStream.sol:ERC721ShareInstantStream",
        "label": "withdrawModeLocked",
        "offset": 31,
        "slot": "8",
        "type": "t_bool"
      }
    ],
    "types": {
      "t_address": {
        "encoding": "inplace",
        "label": "address",
        "numberOfBytes": "20"
      },
      "t_bool": {
        "encoding": "inplace",
        "label": "bool",
        "numberOfBytes": "1"
      },
      "t_bytes4": {
        "encoding": "inplace",
        "label": "bytes4",
        "numberOfBytes": "4"
      },
      "t_enum(WithdrawMode)12848": {
        "encoding": "inplace",
        "label": "enum WithdrawMode",
        "numberOfBytes": "1"
      },
      "t_mapping(t_address,t_struct(Entitlement)14222_storage)": {
        "encoding": "mapping",
        "key": "t_address",
        "label": "mapping(address => struct ERC721MultiTokenStream.Entitlement)",
        "numberOfBytes": "32",
        "value": "t_struct(Entitlement)14222_storage"
      },
      "t_mapping(t_address,t_uint256)": {
        "encoding": "mapping",
        "key": "t_address",
        "label": "mapping(address => uint256)",
        "numberOfBytes": "32",
        "value": "t_uint256"
      },
      "t_mapping(t_bytes4,t_bool)": {
        "encoding": "mapping",
        "key": "t_bytes4",
        "label": "mapping(bytes4 => bool)",
        "numberOfBytes": "32",
        "value": "t_bool"
      },
      "t_mapping(t_uint256,t_mapping(t_address,t_struct(Entitlement)14222_storage))": {
        "encoding": "mapping",
        "key": "t_uint256",
        "label": "mapping(uint256 => mapping(address => struct ERC721MultiTokenStream.Entitlement))",
        "numberOfBytes": "32",
        "value": "t_mapping(t_address,t_struct(Entitlement)14222_storage)"
      },
      "t_mapping(t_uint256,t_uint256)": {
        "encoding": "mapping",
        "key": "t_uint256",
        "label": "mapping(uint256 => uint256)",
        "numberOfBytes": "32",
        "value": "t_uint256"
      },
      "t_struct(Entitlement)14222_storage": {
        "encoding": "inplace",
        "label": "struct ERC721MultiTokenStream.Entitlement",
        "members": [
          {
            "astId": 14219,
            "contract": "contracts/streams/ERC721/presets/ERC721ShareInstantStream.sol:ERC721ShareInstantStream",
            "label": "totalClaimed",
            "offset": 0,
            "slot": "0",
            "type": "t_uint256"
          },
          {
            "astId": 14221,
            "contract": "contracts/streams/ERC721/presets/ERC721ShareInstantStream.sol:ERC721ShareInstantStream",
            "label": "lastClaimedAt",
            "offset": 0,
            "slot": "1",
            "type": "t_uint256"
          }
        ],
        "numberOfBytes": "64"
      },
      "t_uint256": {
        "encoding": "inplace",
        "label": "uint256",
        "numberOfBytes": "32"
      },
      "t_uint64": {
        "encoding": "inplace",
        "label": "uint64",
        "numberOfBytes": "8"
      },
      "t_uint8": {
        "encoding": "inplace",
        "label": "uint8",
        "numberOfBytes": "1"
      }
    }
  }
}