{
  "address": "0x770798EC0CC0F03900F5bEE7c448d40BbFf756e0",
  "abi": [
    {
      "anonymous": false,
      "inputs": [
        {
          "indexed": true,
          "internalType": "bytes32",
          "name": "role",
          "type": "bytes32"
        },
        {
          "indexed": true,
          "internalType": "bytes32",
          "name": "previousAdminRole",
          "type": "bytes32"
        },
        {
          "indexed": true,
          "internalType": "bytes32",
          "name": "newAdminRole",
          "type": "bytes32"
        }
      ],
      "name": "RoleAdminChanged",
      "type": "event"
    },
    {
      "anonymous": false,
      "inputs": [
        {
          "indexed": true,
          "internalType": "bytes32",
          "name": "role",
          "type": "bytes32"
        },
        {
          "indexed": true,
          "internalType": "address",
          "name": "account",
          "type": "address"
        },
        {
          "indexed": true,
          "internalType": "address",
          "name": "sender",
          "type": "address"
        }
      ],
      "name": "RoleGranted",
      "type": "event"
    },
    {
      "anonymous": false,
      "inputs": [
        {
          "indexed": true,
          "internalType": "bytes32",
          "name": "role",
          "type": "bytes32"
        },
        {
          "indexed": true,
          "internalType": "address",
          "name": "account",
          "type": "address"
        },
        {
          "indexed": true,
          "internalType": "address",
          "name": "sender",
          "type": "address"
        }
      ],
      "name": "RoleRevoked",
      "type": "event"
    },
    {
      "anonymous": false,
      "inputs": [
        {
          "indexed": false,
          "internalType": "string",
          "name": "value",
          "type": "string"
        },
        {
          "indexed": true,
          "internalType": "uint256",
          "name": "tokenId",
          "type": "uint256"
        }
      ],
      "name": "URI",
      "type": "event"
    },
    {
      "inputs": [],
      "name": "DEFAULT_ADMIN_ROLE",
      "outputs": [
        {
          "internalType": "bytes32",
          "name": "",
          "type": "bytes32"
        }
      ],
      "stateMutability": "view",
      "type": "function"
    },
    {
      "inputs": [],
      "name": "MINTER_ROLE",
      "outputs": [
        {
          "internalType": "bytes32",
          "name": "",
          "type": "bytes32"
        }
      ],
      "stateMutability": "view",
      "type": "function"
    },
    {
      "inputs": [
        {
          "internalType": "address",
          "name": "to",
          "type": "address"
        },
        {
          "internalType": "uint256",
          "name": "amount",
          "type": "uint256"
        }
      ],
      "name": "mintByRole",
      "outputs": [],
      "stateMutability": "nonpayable",
      "type": "function"
    },
    {
      "inputs": [
        {
          "internalType": "address",
          "name": "to",
          "type": "address"
        },
        {
          "internalType": "uint256",
          "name": "amount",
          "type": "uint256"
        },
        {
          "internalType": "string[]",
          "name": "tokenURIs",
          "type": "string[]"
        }
      ],
      "name": "mintByRole",
      "outputs": [],
      "stateMutability": "nonpayable",
      "type": "function"
    },
    {
      "inputs": [
        {
          "internalType": "address[]",
          "name": "tos",
          "type": "address[]"
        },
        {
          "internalType": "uint256[]",
          "name": "amounts",
          "type": "uint256[]"
        }
      ],
      "name": "mintByRole",
      "outputs": [],
      "stateMutability": "nonpayable",
      "type": "function"
    }
  ],
  "transactionHash": "0x16195dde05f5677c071bc3b42b0079facb369a8e5c5db0dac77c732fb7b33da2",
  "args": [],
  "numDeployments": 3,
  "solcInputHash": "3e978968784236f46d062ea1c097f0f0",
  "bytecode": "0x608060405234801561001057600080fd5b50610cb8806100206000396000f3fe608060405234801561001057600080fd5b50600436106100675760003560e01c8063a217fddf11610050578063a217fddf14610094578063b9a47ff2146100ae578063d5391393146100c157600080fd5b80631a056e711461006c5780634c361a8c14610081575b600080fd5b61007f61007a36600461078d565b6100e8565b005b61007f61008f366004610803565b610184565b61009c600081565b60405190815260200160405180910390f35b61007f6100bc36600461085d565b6102ca565b61009c7f9f2df0fed2c77648de5860a4cc508cd0818c85b8b8a1ab4ceeef8d981c8956a681565b7f9f2df0fed2c77648de5860a4cc508cd0818c85b8b8a1ab4ceeef8d981c8956a66101128161036f565b604051632d4f475f60e01b815273ffffffffffffffffffffffffffffffffffffffff84166004820152602481018390523090632d4f475f90604401600060405180830381600087803b15801561016757600080fd5b505af115801561017b573d6000803e3d6000fd5b50505050505050565b7f9f2df0fed2c77648de5860a4cc508cd0818c85b8b8a1ab4ceeef8d981c8956a66101ae8161036f565b60007faa3a0910ce5fb062d392dc5a532ff9d50bb9d0f614a8eda1a3ec786de0b761f354604051632d4f475f60e01b815273ffffffffffffffffffffffffffffffffffffffff88166004820152602481018790529091503090632d4f475f90604401600060405180830381600087803b15801561022a57600080fd5b505af115801561023e573d6000803e3d6000fd5b5050505060005b8581101561017b576102b861025a82846108d3565b86868481811061026c5761026c6108eb565b905060200281019061027e9190610901565b8080601f01602080910402602001604051908101604052809392919081815260200183838082843760009201919091525061037c92505050565b806102c281610948565b915050610245565b7f9f2df0fed2c77648de5860a4cc508cd0818c85b8b8a1ab4ceeef8d981c8956a66102f48161036f565b6040517f49142a1400000000000000000000000000000000000000000000000000000000815230906349142a1490610336908890889088908890600401610961565b600060405180830381600087803b15801561035057600080fd5b505af1158015610364573d6000803e3d6000fd5b505050505050505050565b6103798133610466565b50565b7f021fe373f7e014154d4f551c37c047b9ed9093c774291911030896b9b2dfef65548210156103f25760405162461bcd60e51b815260206004820152601960248201527f4d657461646174613a20746f6b656e555249206c6f636b65640000000000000060448201526064015b60405180910390fd5b60008281527f021fe373f7e014154d4f551c37c047b9ed9093c774291911030896b9b2dfef66602052604090206104298282610aa8565b50817f6bb7ff708619ba0610cba295a58592e0451dee2622938c8755667688daf3529b8260405161045a9190610b98565b60405180910390a25050565b60008281527f2e59e4c2e927cdddbb64e181e0668d9a0fa70dd88f94d999cd87d5496a20da626020908152604080832073ffffffffffffffffffffffffffffffffffffffff8516845290915290205460ff16610507576104c58161050b565b6104d0836020610534565b6040516020016104e1929190610bcb565b60408051601f198184030181529082905262461bcd60e51b82526103e991600401610b98565b5050565b606061052e73ffffffffffffffffffffffffffffffffffffffff83166014610534565b92915050565b60606000610543836002610c4c565b61054e9060026108d3565b67ffffffffffffffff81111561056657610566610a09565b6040519080825280601f01601f191660200182016040528015610590576020820181803683370190505b5090507f3000000000000000000000000000000000000000000000000000000000000000816000815181106105c7576105c76108eb565b60200101907effffffffffffffffffffffffffffffffffffffffffffffffffffffffffffff1916908160001a9053507f78000000000000000000000000000000000000000000000000000000000000008160018151811061062a5761062a6108eb565b60200101907effffffffffffffffffffffffffffffffffffffffffffffffffffffffffffff1916908160001a9053506000610666846002610c4c565b6106719060016108d3565b90505b600181111561070e577f303132333435363738396162636465660000000000000000000000000000000085600f16601081106106b2576106b26108eb565b1a60f81b8282815181106106c8576106c86108eb565b60200101907effffffffffffffffffffffffffffffffffffffffffffffffffffffffffffff1916908160001a90535060049490941c9361070781610c6b565b9050610674565b50831561075d5760405162461bcd60e51b815260206004820181905260248201527f537472696e67733a20686578206c656e67746820696e73756666696369656e7460448201526064016103e9565b9392505050565b803573ffffffffffffffffffffffffffffffffffffffff8116811461078857600080fd5b919050565b600080604083850312156107a057600080fd5b6107a983610764565b946020939093013593505050565b60008083601f8401126107c957600080fd5b50813567ffffffffffffffff8111156107e157600080fd5b6020830191508360208260051b85010111156107fc57600080fd5b9250929050565b6000806000806060858703121561081957600080fd5b61082285610764565b935060208501359250604085013567ffffffffffffffff81111561084557600080fd5b610851878288016107b7565b95989497509550505050565b6000806000806040858703121561087357600080fd5b843567ffffffffffffffff8082111561088b57600080fd5b610897888389016107b7565b909650945060208701359150808211156108b057600080fd5b50610851878288016107b7565b634e487b7160e01b600052601160045260246000fd5b600082198211156108e6576108e66108bd565b500190565b634e487b7160e01b600052603260045260246000fd5b6000808335601e1984360301811261091857600080fd5b83018035915067ffffffffffffffff82111561093357600080fd5b6020019150368190038213156107fc57600080fd5b60006001820161095a5761095a6108bd565b5060010190565b6040808252810184905260008560608301825b878110156109af5773ffffffffffffffffffffffffffffffffffffffff61099a84610764565b16825260209283019290910190600101610974565b5083810360208501528481527f07ffffffffffffffffffffffffffffffffffffffffffffffffffffffffffffff8511156109e857600080fd5b8460051b915081866020830137600091016020019081529695505050505050565b634e487b7160e01b600052604160045260246000fd5b600181811c90821680610a3357607f821691505b602082108103610a5357634e487b7160e01b600052602260045260246000fd5b50919050565b601f821115610aa357600081815260208120601f850160051c81016020861015610a805750805b601f850160051c820191505b81811015610a9f57828155600101610a8c565b5050505b505050565b815167ffffffffffffffff811115610ac257610ac2610a09565b610ad681610ad08454610a1f565b84610a59565b602080601f831160018114610b0b5760008415610af35750858301515b600019600386901b1c1916600185901b178555610a9f565b600085815260208120601f198616915b82811015610b3a57888601518255948401946001909101908401610b1b565b5085821015610b585787850151600019600388901b60f8161c191681555b5050505050600190811b01905550565b60005b83811015610b83578181015183820152602001610b6b565b83811115610b92576000848401525b50505050565b6020815260008251806020840152610bb7816040850160208701610b68565b601f01601f19169190910160400192915050565b7f416363657373436f6e74726f6c3a206163636f756e7420000000000000000000815260008351610c03816017850160208801610b68565b7f206973206d697373696e6720726f6c65200000000000000000000000000000006017918401918201528351610c40816028840160208801610b68565b01602801949350505050565b6000816000190483118215151615610c6657610c666108bd565b500290565b600081610c7a57610c7a6108bd565b50600019019056fea26469706673582212202e82ccbde2868932fb8532f8ed456e4570aef05fcdf7d19fb93ae63e3b4a24a664736f6c634300080f0033",
  "devdoc": {
    "custom:category": "NFTs",
    "custom:provides-interfaces": "IERC721MintableRoleBased",
    "custom:required-dependencies": "IERC721MintableExtension",
    "custom:type": "eip-2535-facet",
    "kind": "dev",
    "methods": {
      "mintByRole(address,uint256)": {
        "details": "Mints `amount` new tokens for `to`."
      },
      "mintByRole(address,uint256,string[])": {
        "details": "Mint a new token with a dedicated tokenURI."
      },
      "mintByRole(address[],uint256[])": {
        "details": "Mints multiple `amount`s of new tokens for every single address in `tos`."
      }
    },
    "title": "ERC721 - Mint as role",
    "version": 1
  },
  "userdoc": {
    "kind": "user",
    "methods": {},
    "notice": "Allow minting for senders with MINTER_ROLE to mint new tokens (supports ERC721A).",
    "version": 1
  },
  "storageLayout": {
    "storage": [],
    "types": null
  }
}