{
  "address": "0x5bdECF506Cc673a60dD8c820fa1fd3806e459864",
  "abi": [
    {
      "inputs": [
        {
          "internalType": "address",
          "name": "owner",
          "type": "address"
        },
        {
          "components": [
            {
              "internalType": "address",
              "name": "diamondCutFacet",
              "type": "address"
            },
            {
              "internalType": "address",
              "name": "diamondLoupeFacet",
              "type": "address"
            },
            {
              "internalType": "address",
              "name": "erc165Facet",
              "type": "address"
            },
            {
              "internalType": "address",
              "name": "erc173Facet",
              "type": "address"
            }
          ],
          "internalType": "struct Diamond.CoreFacets",
          "name": "_coreFacets",
          "type": "tuple"
        },
        {
          "components": [
            {
              "internalType": "address",
              "name": "facetAddress",
              "type": "address"
            },
            {
              "internalType": "enum IDiamondCut.FacetCutAction",
              "name": "action",
              "type": "uint8"
            },
            {
              "internalType": "bytes4[]",
              "name": "functionSelectors",
              "type": "bytes4[]"
            }
          ],
          "internalType": "struct IDiamondCut.FacetCut[]",
          "name": "_facets",
          "type": "tuple[]"
        },
        {
          "components": [
            {
              "internalType": "address",
              "name": "initContract",
              "type": "address"
            },
            {
              "internalType": "bytes",
              "name": "initData",
              "type": "bytes"
            }
          ],
          "internalType": "struct Diamond.Initialization[]",
          "name": "_initializations",
          "type": "tuple[]"
        }
      ],
      "stateMutability": "nonpayable",
      "type": "constructor"
    },
    {
      "inputs": [
        {
          "internalType": "address",
          "name": "facet",
          "type": "address"
        },
        {
          "internalType": "bytes4",
          "name": "selector",
          "type": "bytes4"
        }
      ],
      "name": "ErrDiamondFacetAlreadyExists",
      "type": "error"
    },
    {
      "stateMutability": "payable",
      "type": "fallback"
    },
    {
      "inputs": [
        {
          "internalType": "bytes[]",
          "name": "data",
          "type": "bytes[]"
        }
      ],
      "name": "multicall",
      "outputs": [
        {
          "internalType": "bytes[]",
          "name": "results",
          "type": "bytes[]"
        }
      ],
      "stateMutability": "nonpayable",
      "type": "function"
    },
    {
      "stateMutability": "payable",
      "type": "receive"
    }
  ],
  "transactionHash": "0xb7f2708b89274b74b00676ef83c6c8605e2639789e59fae34bca4b87b88674da",
  "args": [
    "0x0000000000000000000000000000000000000000",
    {
      "diamondCutFacet": "0x180442ebd727fE663aC280CeF7AC4F6902414603",
      "diamondLoupeFacet": "0xCeEb0cF54453f3070Da376fe34D94E278D3f3f6b",
      "erc165Facet": "0xa79B21B345846224b307212FB7278b2e74Ea3295",
      "erc173Facet": "0x5dB0493c729533e5A57e9885c376c41Ceb54C56E"
    },
    [],
    []
  ],
  "numDeployments": 1,
  "solcInputHash": "48f4524ebff8b0366d06eec787eed08d",
  "bytecode": "0x60806040523480156200001157600080fd5b5060405162001c3438038062001c34833981016040819052620000349162000e1f565b60006200004b620004bc60201b620002111760201c565b6040805160018082528183019092529192506000919060208083019080368337019050509050631f931c1c60e01b816000815181106200008f576200008f62000f09565b6001600160e01b0319909216602092830291909101820152620000c99083906307e4c70760e21b9060019062000235620004e0821b17901c565b60408051600480825260a0820190925260009160208201608080368337019050509050637a0ed62760e01b816000815181106200010a576200010a62000f09565b6001600160e01b03199092166020928302919091019091015280516356fe50af60e11b908290600190811062000144576200014462000f09565b6001600160e01b03199092166020928302919091019091015280516314bbdacb60e21b90829060029081106200017e576200017e62000f09565b6001600160e01b03199092166020928302919091019091015280516366ffd66360e11b9082906003908110620001b857620001b862000f09565b6001600160e01b0319909216602092830291909101820152620001f29084906348e2b09360e01b9060019062000235620004e0821b17901c565b604080516001808252818301909252600091602080830190803683370190505090506301ffc9a760e01b8160008151811062000232576200023262000f09565b6001600160e01b03199092166020928302919091018201526200026c9085906301ffc9a760e01b9060019062000235620004e0821b17901c565b604080516002808252606082018352600092602083019080368337019050509050638da5cb5b60e01b81600081518110620002ab57620002ab62000f09565b6001600160e01b031990921660209283029190910190910152805163f2fde38b60e01b9082906001908110620002e557620002e562000f09565b6001600160e01b03199092166020928302919091018201526200031f9086906307f5828d60e41b9060019062000235620004e0821b17901c565b6200033a8860000151856200056e60201b620002bd1760201c565b620003558860200151846200056e60201b620002bd1760201c565b620003708860400151836200056e60201b620002bd1760201c565b6200038b8860600151826200056e60201b620002bd1760201c565b620003b989620003a56200073d60201b620004bf1760201c565b6200076160201b620004e31790919060201c565b60005b875181101562000432576200041d888281518110620003df57620003df62000f09565b60200260200101516000015189838151811062000400576200040062000f09565b6020026020010151604001516200056e60201b620002bd1760201c565b80620004298162000f35565b915050620003bc565b5060005b8651811015620004ac576200049787828151811062000459576200045962000f09565b6020026020010151600001518883815181106200047a576200047a62000f09565b6020026020010151602001516200077e60201b6200050d1760201c565b80620004a38162000f35565b91505062000436565b5050505050505050505062000fd5565b7fff923f4a67695a9cdd5da4b8580a5a20edf2183c42aa111dd7fc15dc7bed264090565b6001600160e01b03198083169003620005405760405162461bcd60e51b815260206004820152601c60248201527f4552433136353a20696e76616c696420696e746572666163652069640000000060448201526064015b60405180910390fd5b6001600160e01b03199190911660009081526020929092526040909120805460ff1916911515919091179055565b6001600160a01b03821660009081527fc8fcad8db84d3cc18b4c41d551ea0ee66dd599cde068d998e57d5e09332c131d60205260408120547fc8fcad8db84d3cc18b4c41d551ea0ee66dd599cde068d998e57d5e09332c131c916001600160601b0382169003620005e557620005e58285620009a3565b60005b83518110156200073657600084828151811062000609576200060962000f09565b6020908102919091018101516001600160e01b031981166000908152918690526040909120549091506001600160a01b031680156200067757604051631a2f0c8360e11b81526001600160a01b03821660048201526001600160e01b03198316602482015260440162000537565b6001600160e01b0319821660008181526020878152604080832080546001600160a01b03908116600160a01b6001600160601b038c16021782558c168085526001808c0185529285208054938401815585528385206008840401805463ffffffff60079095166004026101000a948502191660e08a901c94909402939093179092559390925287905281546001600160a01b031916179055836200071b8162000f51565b945050505080806200072d9062000f35565b915050620005e8565b5050505050565b7fc0ea367cb0174dd5521cd2372c76f8c13e6c1f832c71f1d6e0cbc185c9cc8ed490565b81546001600160a01b0319166001600160a01b0391909116179055565b6001600160a01b0382166200080857805115620008045760405162461bcd60e51b815260206004820152603c60248201527f4c69624469616d6f6e644375743a205f696e697420697320616464726573732860448201527f3029206275745f63616c6c64617461206973206e6f7420656d70747900000000606482015260840162000537565b5050565b6000815111620008815760405162461bcd60e51b815260206004820152603d60248201527f4c69624469616d6f6e644375743a205f63616c6c6461746120697320656d707460448201527f7920627574205f696e6974206973206e6f742061646472657373283029000000606482015260840162000537565b6001600160a01b0382163014620008b757620008b78260405180606001604052806028815260200162001be86028913962000a10565b600080836001600160a01b031683604051620008d4919062000f82565b600060405180830381855af49150503d806000811462000911576040519150601f19603f3d011682016040523d82523d6000602084013e62000916565b606091505b5091509150816200099d5780511562000945578060405162461bcd60e51b815260040162000537919062000fa0565b60405162461bcd60e51b815260206004820152602660248201527f4c69624469616d6f6e644375743a205f696e69742066756e6374696f6e2072656044820152651d995c9d195960d21b606482015260840162000537565b50505050565b620009c88160405180606001604052806024815260200162001c106024913962000a10565b6002820180546001600160a01b0390921660008181526001948501602090815260408220860185905594840183559182529290200180546001600160a01b0319169091179055565b813b81816200099d5760405162461bcd60e51b815260040162000537919062000fa0565b80516001600160a01b038116811462000a4c57600080fd5b919050565b634e487b7160e01b600052604160045260246000fd5b604051606081016001600160401b038111828210171562000a8c5762000a8c62000a51565b60405290565b604080519081016001600160401b038111828210171562000a8c5762000a8c62000a51565b604051608081016001600160401b038111828210171562000a8c5762000a8c62000a51565b604051601f8201601f191681016001600160401b038111828210171562000b075762000b0762000a51565b604052919050565b60006001600160401b0382111562000b2b5762000b2b62000a51565b5060051b60200190565b600082601f83011262000b4757600080fd5b8151602062000b6062000b5a8362000b0f565b62000adc565b828152600592831b850182019282820191908785111562000b8057600080fd5b8387015b8581101562000ca05780516001600160401b038082111562000ba65760008081fd5b908901906060828c03601f190181131562000bc15760008081fd5b62000bcb62000a67565b62000bd889850162000a34565b81526040808501516003811062000bef5760008081fd5b828b015291840151918383111562000c075760008081fd5b82850194508d603f86011262000c1f57600093508384fd5b89850151935062000c3462000b5a8562000b0f565b84815293871b85018101938a810193508e85111562000c535760008081fd5b948101945b8486101562000c8b5785516001600160e01b03198116811462000c7b5760008081fd5b8452948a0194928a019262000c58565b90820152875250505092840192840162000b84565b5090979650505050505050565b60005b8381101562000cca57818101518382015260200162000cb0565b838111156200099d5750506000910152565b6000601f838184011262000cef57600080fd5b8251602062000d0262000b5a8362000b0f565b82815260059290921b8501810191818101908784111562000d2257600080fd5b8287015b8481101562000e135780516001600160401b038082111562000d485760008081fd5b908901906040601f19838d03810182131562000d645760008081fd5b62000d6e62000a92565b62000d7b89860162000a34565b8152828501518481111562000d905760008081fd5b8086019550508d603f86011262000da75760008081fd5b888501518481111562000dbe5762000dbe62000a51565b62000dcf8a848e8401160162000adc565b94508085528e8482880101111562000de957600092508283fd5b62000dfa818b870186890162000cad565b5080890193909352505084525091830191830162000d26565b50979650505050505050565b60008060008084860360e081121562000e3757600080fd5b62000e428662000a34565b94506080601f198201121562000e5757600080fd5b5062000e6262000ab7565b62000e706020870162000a34565b815262000e806040870162000a34565b602082015262000e936060870162000a34565b604082015262000ea66080870162000a34565b606082015260a08601519093506001600160401b038082111562000ec957600080fd5b62000ed78883890162000b35565b935060c087015191508082111562000eee57600080fd5b5062000efd8782880162000cdc565b91505092959194509250565b634e487b7160e01b600052603260045260246000fd5b634e487b7160e01b600052601160045260246000fd5b60006001820162000f4a5762000f4a62000f1f565b5060010190565b60006001600160601b038281166002600160601b0319810162000f785762000f7862000f1f565b6001019392505050565b6000825162000f9681846020870162000cad565b9190910192915050565b602081526000825180602084015262000fc181604085016020870162000cad565b601f01601f19169190910160400192915050565b610c038062000fe56000396000f3fe6080604052600436106100225760003560e01c8063ac9650d8146100e657610029565b3661002957005b600080356001600160e01b03191681527fc8fcad8db84d3cc18b4c41d551ea0ee66dd599cde068d998e57d5e09332c131c602081905260409091205481906001600160a01b0316806100c25760405162461bcd60e51b815260206004820152600860248201527f4241445f46554e4300000000000000000000000000000000000000000000000060448201526064015b60405180910390fd5b3660008037600080366000845af43d6000803e8080156100e1573d6000f35b3d6000fd5b3480156100f257600080fd5b50610106610101366004610928565b61011c565b60405161011391906109f5565b60405180910390f35b60608167ffffffffffffffff81111561013757610137610a57565b60405190808252806020026020018201604052801561016a57816020015b60608152602001906001900390816101555790505b50905060005b8281101561020a576101da3085858481811061018e5761018e610a6d565b90506020028101906101a09190610a83565b8080601f01602080910402602001604051908101604052809392919081815260200183838082843760009201919091525061073792505050565b8282815181106101ec576101ec610a6d565b6020026020010181905250808061020290610ae7565b915050610170565b5092915050565b7fff923f4a67695a9cdd5da4b8580a5a20edf2183c42aa111dd7fc15dc7bed264090565b6001600160e01b0319808316900361028f5760405162461bcd60e51b815260206004820152601c60248201527f4552433136353a20696e76616c696420696e746572666163652069640000000060448201526064016100b9565b6001600160e01b03199190911660009081526020929092526040909120805460ff1916911515919091179055565b6001600160a01b03821660009081527fc8fcad8db84d3cc18b4c41d551ea0ee66dd599cde068d998e57d5e09332c131d60205260408120547fc8fcad8db84d3cc18b4c41d551ea0ee66dd599cde068d998e57d5e09332c131c916bffffffffffffffffffffffff82169003610336576103368285610763565b60005b83518110156104b857600084828151811061035657610356610a6d565b6020908102919091018101516001600160e01b031981166000908152918690526040909120549091506001600160a01b031680156103db576040517f345e19060000000000000000000000000000000000000000000000000000000081526001600160a01b03821660048201526001600160e01b0319831660248201526044016100b9565b6001600160e01b0319821660008181526020878152604080832080546001600160a01b03908116740100000000000000000000000000000000000000006bffffffffffffffffffffffff8c16021782558c168085526001808c0185529285208054938401815585528385206008840401805463ffffffff60079095166004026101000a948502191660e08a901c949094029390931790925593909252879052815473ffffffffffffffffffffffffffffffffffffffff1916179055836104a081610b00565b945050505080806104b090610ae7565b915050610339565b5050505050565b7fc0ea367cb0174dd5521cd2372c76f8c13e6c1f832c71f1d6e0cbc185c9cc8ed490565b815473ffffffffffffffffffffffffffffffffffffffff19166001600160a01b0391909116179055565b6001600160a01b038216610594578051156105905760405162461bcd60e51b815260206004820152603c60248201527f4c69624469616d6f6e644375743a205f696e697420697320616464726573732860448201527f3029206275745f63616c6c64617461206973206e6f7420656d7074790000000060648201526084016100b9565b5050565b600081511161060b5760405162461bcd60e51b815260206004820152603d60248201527f4c69624469616d6f6e644375743a205f63616c6c6461746120697320656d707460448201527f7920627574205f696e6974206973206e6f74206164647265737328302900000060648201526084016100b9565b6001600160a01b038216301461063d5761063d82604051806060016040528060288152602001610b5b602891396107da565b600080836001600160a01b0316836040516106589190610b2b565b600060405180830381855af49150503d8060008114610693576040519150601f19603f3d011682016040523d82523d6000602084013e610698565b606091505b509150915081610731578051156106c3578060405162461bcd60e51b81526004016100b99190610b47565b60405162461bcd60e51b815260206004820152602660248201527f4c69624469616d6f6e644375743a205f696e69742066756e6374696f6e20726560448201527f766572746564000000000000000000000000000000000000000000000000000060648201526084016100b9565b50505050565b606061075c8383604051806060016040528060278152602001610ba7602791396107fb565b9392505050565b61078581604051806060016040528060248152602001610b83602491396107da565b6002820180546001600160a01b03909216600081815260019485016020908152604082208601859055948401835591825292902001805473ffffffffffffffffffffffffffffffffffffffff19169091179055565b813b81816107315760405162461bcd60e51b81526004016100b99190610b47565b60606001600160a01b0384163b61087a5760405162461bcd60e51b815260206004820152602660248201527f416464726573733a2064656c65676174652063616c6c20746f206e6f6e2d636f60448201527f6e7472616374000000000000000000000000000000000000000000000000000060648201526084016100b9565b600080856001600160a01b0316856040516108959190610b2b565b600060405180830381855af49150503d80600081146108d0576040519150601f19603f3d011682016040523d82523d6000602084013e6108d5565b606091505b50915091506108e58282866108ef565b9695505050505050565b606083156108fe57508161075c565b82511561090e5782518084602001fd5b8160405162461bcd60e51b81526004016100b99190610b47565b6000806020838503121561093b57600080fd5b823567ffffffffffffffff8082111561095357600080fd5b818501915085601f83011261096757600080fd5b81358181111561097657600080fd5b8660208260051b850101111561098b57600080fd5b60209290920196919550909350505050565b60005b838110156109b85781810151838201526020016109a0565b838111156107315750506000910152565b600081518084526109e181602086016020860161099d565b601f01601f19169290920160200192915050565b6000602080830181845280855180835260408601915060408160051b870101925083870160005b82811015610a4a57603f19888603018452610a388583516109c9565b94509285019290850190600101610a1c565b5092979650505050505050565b634e487b7160e01b600052604160045260246000fd5b634e487b7160e01b600052603260045260246000fd5b6000808335601e19843603018112610a9a57600080fd5b83018035915067ffffffffffffffff821115610ab557600080fd5b602001915036819003821315610aca57600080fd5b9250929050565b634e487b7160e01b600052601160045260246000fd5b600060018201610af957610af9610ad1565b5060010190565b60006bffffffffffffffffffffffff808316818103610b2157610b21610ad1565b6001019392505050565b60008251610b3d81846020870161099d565b9190910192915050565b60208152600061075c60208301846109c956fe4c69624469616d6f6e644375743a205f696e6974206164647265737320686173206e6f20636f64654c69624469616d6f6e644375743a204e657720666163657420686173206e6f20636f6465416464726573733a206c6f772d6c6576656c2064656c65676174652063616c6c206661696c6564a264697066735822122001ab80189b372230518be5af1e139c64fc3a3db3910f1e1834fee7f1d6257cec64736f6c634300080f00334c69624469616d6f6e644375743a205f696e6974206164647265737320686173206e6f20636f64654c69624469616d6f6e644375743a204e657720666163657420686173206e6f20636f6465",
  "devdoc": {
    "kind": "dev",
    "methods": {
      "multicall(bytes[])": {
        "details": "Receives and executes a batch of function calls on this contract."
      }
    },
    "version": 1
  },
  "userdoc": {
    "kind": "user",
    "methods": {},
    "version": 1
  },
  "storageLayout": {
    "storage": [],
    "types": null
  }
}