{
  "address": "0xb91057014bFB01df21e541335a78D930266f7869",
  "abi": [
    {
      "inputs": [],
      "name": "ErrSenderIsNotSelf",
      "type": "error"
    },
    {
      "inputs": [
        {
          "internalType": "address",
          "name": "operator",
          "type": "address"
        }
      ],
      "name": "OperatorNotAllowed",
      "type": "error"
    },
    {
      "anonymous": false,
      "inputs": [
        {
          "indexed": true,
          "internalType": "address",
          "name": "account",
          "type": "address"
        },
        {
          "indexed": true,
          "internalType": "address",
          "name": "operator",
          "type": "address"
        },
        {
          "indexed": false,
          "internalType": "bool",
          "name": "approved",
          "type": "bool"
        }
      ],
      "name": "ApprovalForAll",
      "type": "event"
    },
    {
      "anonymous": false,
      "inputs": [
        {
          "indexed": true,
          "internalType": "address",
          "name": "operator",
          "type": "address"
        },
        {
          "indexed": true,
          "internalType": "address",
          "name": "from",
          "type": "address"
        },
        {
          "indexed": true,
          "internalType": "address",
          "name": "to",
          "type": "address"
        },
        {
          "indexed": false,
          "internalType": "uint256[]",
          "name": "ids",
          "type": "uint256[]"
        },
        {
          "indexed": false,
          "internalType": "uint256[]",
          "name": "values",
          "type": "uint256[]"
        }
      ],
      "name": "TransferBatch",
      "type": "event"
    },
    {
      "anonymous": false,
      "inputs": [
        {
          "indexed": true,
          "internalType": "address",
          "name": "operator",
          "type": "address"
        },
        {
          "indexed": true,
          "internalType": "address",
          "name": "from",
          "type": "address"
        },
        {
          "indexed": true,
          "internalType": "address",
          "name": "to",
          "type": "address"
        },
        {
          "indexed": false,
          "internalType": "uint256",
          "name": "id",
          "type": "uint256"
        },
        {
          "indexed": false,
          "internalType": "uint256",
          "name": "value",
          "type": "uint256"
        }
      ],
      "name": "TransferSingle",
      "type": "event"
    },
    {
      "inputs": [
        {
          "internalType": "address",
          "name": "account",
          "type": "address"
        },
        {
          "internalType": "uint256",
          "name": "id",
          "type": "uint256"
        }
      ],
      "name": "balanceOf",
      "outputs": [
        {
          "internalType": "uint256",
          "name": "",
          "type": "uint256"
        }
      ],
      "stateMutability": "view",
      "type": "function"
    },
    {
      "inputs": [
        {
          "internalType": "address[]",
          "name": "accounts",
          "type": "address[]"
        },
        {
          "internalType": "uint256[]",
          "name": "ids",
          "type": "uint256[]"
        }
      ],
      "name": "balanceOfBatch",
      "outputs": [
        {
          "internalType": "uint256[]",
          "name": "",
          "type": "uint256[]"
        }
      ],
      "stateMutability": "view",
      "type": "function"
    },
    {
      "inputs": [
        {
          "internalType": "address",
          "name": "account",
          "type": "address"
        },
        {
          "internalType": "uint256",
          "name": "id",
          "type": "uint256"
        },
        {
          "internalType": "uint256",
          "name": "value",
          "type": "uint256"
        }
      ],
      "name": "burn",
      "outputs": [],
      "stateMutability": "nonpayable",
      "type": "function"
    },
    {
      "inputs": [
        {
          "internalType": "address",
          "name": "account",
          "type": "address"
        },
        {
          "internalType": "uint256[]",
          "name": "ids",
          "type": "uint256[]"
        },
        {
          "internalType": "uint256[]",
          "name": "values",
          "type": "uint256[]"
        }
      ],
      "name": "burnBatch",
      "outputs": [],
      "stateMutability": "nonpayable",
      "type": "function"
    },
    {
      "inputs": [
        {
          "internalType": "address",
          "name": "account",
          "type": "address"
        },
        {
          "internalType": "uint256[]",
          "name": "ids",
          "type": "uint256[]"
        },
        {
          "internalType": "uint256[]",
          "name": "values",
          "type": "uint256[]"
        }
      ],
      "name": "burnBatchByFacet",
      "outputs": [],
      "stateMutability": "nonpayable",
      "type": "function"
    },
    {
      "inputs": [
        {
          "internalType": "address",
          "name": "account",
          "type": "address"
        },
        {
          "internalType": "uint256",
          "name": "id",
          "type": "uint256"
        },
        {
          "internalType": "uint256",
          "name": "amount",
          "type": "uint256"
        }
      ],
      "name": "burnByFacet",
      "outputs": [],
      "stateMutability": "nonpayable",
      "type": "function"
    },
    {
      "inputs": [
        {
          "internalType": "uint256",
          "name": "id",
          "type": "uint256"
        }
      ],
      "name": "exists",
      "outputs": [
        {
          "internalType": "bool",
          "name": "",
          "type": "bool"
        }
      ],
      "stateMutability": "view",
      "type": "function"
    },
    {
      "inputs": [
        {
          "internalType": "address",
          "name": "account",
          "type": "address"
        },
        {
          "internalType": "address",
          "name": "operator",
          "type": "address"
        }
      ],
      "name": "isApprovedForAll",
      "outputs": [
        {
          "internalType": "bool",
          "name": "",
          "type": "bool"
        }
      ],
      "stateMutability": "view",
      "type": "function"
    },
    {
      "inputs": [
        {
          "internalType": "address",
          "name": "account",
          "type": "address"
        },
        {
          "internalType": "uint256",
          "name": "id",
          "type": "uint256"
        },
        {
          "internalType": "uint256",
          "name": "amount",
          "type": "uint256"
        }
      ],
      "name": "lockByFacet",
      "outputs": [],
      "stateMutability": "nonpayable",
      "type": "function"
    },
    {
      "inputs": [
        {
          "internalType": "address[]",
          "name": "accounts",
          "type": "address[]"
        },
        {
          "internalType": "uint256[]",
          "name": "ids",
          "type": "uint256[]"
        },
        {
          "internalType": "uint256[]",
          "name": "amounts",
          "type": "uint256[]"
        }
      ],
      "name": "lockByFacet",
      "outputs": [],
      "stateMutability": "nonpayable",
      "type": "function"
    },
    {
      "inputs": [
        {
          "internalType": "address",
          "name": "account",
          "type": "address"
        },
        {
          "internalType": "uint256[]",
          "name": "ticketTokenIds",
          "type": "uint256[]"
        }
      ],
      "name": "locked",
      "outputs": [
        {
          "internalType": "uint256[]",
          "name": "",
          "type": "uint256[]"
        }
      ],
      "stateMutability": "view",
      "type": "function"
    },
    {
      "inputs": [
        {
          "internalType": "address",
          "name": "account",
          "type": "address"
        },
        {
          "internalType": "uint256",
          "name": "tokenId",
          "type": "uint256"
        }
      ],
      "name": "locked",
      "outputs": [
        {
          "internalType": "uint256",
          "name": "",
          "type": "uint256"
        }
      ],
      "stateMutability": "view",
      "type": "function"
    },
    {
      "inputs": [
        {
          "internalType": "uint256",
          "name": "id",
          "type": "uint256"
        }
      ],
      "name": "maxSupply",
      "outputs": [
        {
          "internalType": "uint256",
          "name": "",
          "type": "uint256"
        }
      ],
      "stateMutability": "view",
      "type": "function"
    },
    {
      "inputs": [
        {
          "internalType": "address[]",
          "name": "tos",
          "type": "address[]"
        },
        {
          "internalType": "uint256[]",
          "name": "ids",
          "type": "uint256[]"
        },
        {
          "internalType": "uint256[]",
          "name": "amounts",
          "type": "uint256[]"
        },
        {
          "internalType": "bytes[]",
          "name": "datas",
          "type": "bytes[]"
        }
      ],
      "name": "mintByFacet",
      "outputs": [],
      "stateMutability": "nonpayable",
      "type": "function"
    },
    {
      "inputs": [
        {
          "internalType": "address",
          "name": "to",
          "type": "address"
        },
        {
          "internalType": "uint256",
          "name": "id",
          "type": "uint256"
        },
        {
          "internalType": "uint256",
          "name": "amount",
          "type": "uint256"
        },
        {
          "internalType": "bytes",
          "name": "data",
          "type": "bytes"
        }
      ],
      "name": "mintByFacet",
      "outputs": [],
      "stateMutability": "nonpayable",
      "type": "function"
    },
    {
      "inputs": [
        {
          "internalType": "address",
          "name": "from",
          "type": "address"
        },
        {
          "internalType": "address",
          "name": "to",
          "type": "address"
        },
        {
          "internalType": "uint256[]",
          "name": "ids",
          "type": "uint256[]"
        },
        {
          "internalType": "uint256[]",
          "name": "amounts",
          "type": "uint256[]"
        },
        {
          "internalType": "bytes",
          "name": "data",
          "type": "bytes"
        }
      ],
      "name": "safeBatchTransferFrom",
      "outputs": [],
      "stateMutability": "nonpayable",
      "type": "function"
    },
    {
      "inputs": [
        {
          "internalType": "address",
          "name": "from",
          "type": "address"
        },
        {
          "internalType": "address",
          "name": "to",
          "type": "address"
        },
        {
          "internalType": "uint256",
          "name": "id",
          "type": "uint256"
        },
        {
          "internalType": "uint256",
          "name": "amount",
          "type": "uint256"
        },
        {
          "internalType": "bytes",
          "name": "data",
          "type": "bytes"
        }
      ],
      "name": "safeTransferFrom",
      "outputs": [],
      "stateMutability": "nonpayable",
      "type": "function"
    },
    {
      "inputs": [
        {
          "internalType": "address",
          "name": "operator",
          "type": "address"
        },
        {
          "internalType": "bool",
          "name": "approved",
          "type": "bool"
        }
      ],
      "name": "setApprovalForAll",
      "outputs": [],
      "stateMutability": "nonpayable",
      "type": "function"
    },
    {
      "inputs": [
        {
          "internalType": "uint256",
          "name": "id",
          "type": "uint256"
        }
      ],
      "name": "totalSupply",
      "outputs": [
        {
          "internalType": "uint256",
          "name": "",
          "type": "uint256"
        }
      ],
      "stateMutability": "view",
      "type": "function"
    },
    {
      "inputs": [
        {
          "internalType": "address[]",
          "name": "accounts",
          "type": "address[]"
        },
        {
          "internalType": "uint256[]",
          "name": "ids",
          "type": "uint256[]"
        },
        {
          "internalType": "uint256[]",
          "name": "amounts",
          "type": "uint256[]"
        }
      ],
      "name": "unlockByFacet",
      "outputs": [],
      "stateMutability": "nonpayable",
      "type": "function"
    },
    {
      "inputs": [
        {
          "internalType": "address",
          "name": "account",
          "type": "address"
        },
        {
          "internalType": "uint256",
          "name": "id",
          "type": "uint256"
        },
        {
          "internalType": "uint256",
          "name": "amount",
          "type": "uint256"
        }
      ],
      "name": "unlockByFacet",
      "outputs": [],
      "stateMutability": "nonpayable",
      "type": "function"
    }
  ],
  "transactionHash": "0x073880cccfc38ad79ff832465902d548f04339a651ef28b64d6e5f49f1553c15",
  "args": [],
  "numDeployments": 2,
  "solcInputHash": "6d7305346279fbc69886e86585c3525d",
  "bytecode": "0x608060405234801561001057600080fd5b506134ef806100206000396000f3fe608060405234801561001057600080fd5b50600436106101765760003560e01c8063869f7594116100d8578063bd85b0391161008c578063f242432a11610066578063f242432a1461034b578063f5298aca1461035e578063f7794bae1461037157600080fd5b8063bd85b039146102ca578063bf7bab73146102dd578063e985e9c5146102f057600080fd5b8063a22cb465116100bd578063a22cb46514610291578063a91a988a146102a4578063b164884b146102b757600080fd5b8063869f75941461026b578063983da1561461027e57600080fd5b806348f2f5361161012f5780634f558e79116101145780634f558e79146102225780636708a990146102455780636b20c4541461025857600080fd5b806348f2f536146101ef5780634e1273f41461020257600080fd5b80630ad2bbac116101605780630ad2bbac146101b65780632eb2c2d6146101c95780633f3b797e146101dc57600080fd5b8062fdd58e1461017b5780630a13c503146101a1575b600080fd5b61018e610189366004612a45565b610384565b6040519081526020015b60405180910390f35b6101b46101af366004612abb565b610397565b005b6101b46101c4366004612b7f565b6103d1565b6101b46101d7366004612c42565b610405565b6101b46101ea366004612e2e565b610415565b6101b46101fd366004612eb6565b610512565b610215610210366004612ee9565b610542565b6040516101989190612f88565b610235610230366004612f9b565b610769565b6040519015158152602001610198565b6101b4610253366004612eb6565b6107a0565b6101b4610266366004612b7f565b6107cb565b61018e610279366004612f9b565b6108b2565b6101b461028c366004612eb6565b6108e5565b6101b461029f366004612fc5565b610910565b6102156102b2366004612ffc565b61091e565b6101b46102c536600461304f565b610a05565b61018e6102d8366004612f9b565b610a32565b61018e6102eb366004612a45565b610a65565b6102356102fe3660046130a6565b6001600160a01b0391821660009081527ff9ecf3cb86ac553c70621e3e662b4036163ca34fffb329385fafa0e130cfc1a86020908152604080832093909416825291909152205460ff1690565b6101b46103593660046130d9565b610aad565b6101b461036c366004612eb6565b610ac3565b6101b461037f366004612e2e565b610baa565b60006103908383610c9c565b9392505050565b3033146103b75760405163fd570b5160e01b815260040160405180910390fd5b6103c78888888888888888610d61565b5050505050505050565b3033146103f15760405163fd570b5160e01b815260040160405180910390fd5b6103fe8585858585611091565b5050505050565b6103c7888888888888888861137a565b3033146104355760405163fd570b5160e01b815260040160405180910390fd5b81518351148015610447575080518351145b6104985760405162461bcd60e51b815260206004820152601460248201527f494e56414c49445f41525241595f4c454e47544800000000000000000000000060448201526064015b60405180910390fd5b60005b835181101561050c576104fa8482815181106104b9576104b9613151565b60200260200101518483815181106104d3576104d3613151565b60200260200101518484815181106104ed576104ed613151565b602002602001015161148c565b806105048161317d565b91505061049b565b50505050565b3033146105325760405163fd570b5160e01b815260040160405180910390fd5b61053d838383611549565b505050565b606081518351146105bb5760405162461bcd60e51b815260206004820152602960248201527f455243313135353a206163636f756e747320616e6420696473206c656e67746860448201527f206d69736d617463680000000000000000000000000000000000000000000000606482015260840161048f565b82517ff9ecf3cb86ac553c70621e3e662b4036163ca34fffb329385fafa0e130cfc1a79060009067ffffffffffffffff8111156105fa576105fa612ce9565b604051908082528060200260200182016040528015610623578160200160208202803683370190505b50905060005b85518110156107605760006001600160a01b031686828151811061064f5761064f613151565b60200260200101516001600160a01b0316036106d35760405162461bcd60e51b815260206004820152603160248201527f455243313135353a2062617463682062616c616e636520717565727920666f7260448201527f20746865207a65726f2061646472657373000000000000000000000000000000606482015260840161048f565b8260008683815181106106e8576106e8613151565b60200260200101518152602001908152602001600020600087838151811061071257610712613151565b60200260200101516001600160a01b03166001600160a01b031681526020019081526020016000205482828151811061074d5761074d613151565b6020908102919091010152600101610629565b50949350505050565b60008181527f7056dcda885936c7a9d7c6385902b4ab5fb09024caea98652b7189a5f7a28ea5602052604081205415155b92915050565b3033146107c05760405163fd570b5160e01b815260040160405180910390fd5b61053d83838361148c565b6001600160a01b03851633148061085457503063e985e9c586336040516001600160e01b031960e085901b1681526001600160a01b03928316600482015291166024820152604401602060405180830381865afa158015610830573d6000803e3d6000fd5b505050506040513d601f19601f820116820180604052508101906108549190613196565b6103f15760405162461bcd60e51b815260206004820152602960248201527f455243313135353a2063616c6c6572206973206e6f74206f776e6572206e6f7260448201526808185c1c1c9bdd995960ba1b606482015260840161048f565b60008181527f7056dcda885936c7a9d7c6385902b4ab5fb09024caea98652b7189a5f7a28ea6602052604081205461079a565b3033146109055760405163fd570b5160e01b815260040160405180910390fd5b61053d8383836116dc565b61091a82826117a3565b5050565b606060008267ffffffffffffffff81111561093b5761093b612ce9565b604051908082528060200260200182016040528015610964578160200160208202803683370190505b50905060005b83811015610760576109d68686868481811061098857610988613151565b905060200201356001600160a01b039190911660009081527f349768cb3869818ef8452552d8520ac7355b35c10a0ff9320e2975b28752782060209081526040808320938352929052205490565b8282815181106109e8576109e8613151565b6020908102919091010152806109fd8161317d565b91505061096a565b303314610a255760405163fd570b5160e01b815260040160405180910390fd5b6103fe8585858585611891565b60008181527f7056dcda885936c7a9d7c6385902b4ab5fb09024caea98652b7189a5f7a28ea5602052604081205461079a565b6001600160a01b03821660009081527f349768cb3869818ef8452552d8520ac7355b35c10a0ff9320e2975b28752782060209081526040808320848452909152812054610390565b610abb868686868686611a0d565b505050505050565b6001600160a01b038316331480610b4c57503063e985e9c584336040516001600160e01b031960e085901b1681526001600160a01b03928316600482015291166024820152604401602060405180830381865afa158015610b28573d6000803e3d6000fd5b505050506040513d601f19601f82011682018060405250810190610b4c9190613196565b6105325760405162461bcd60e51b815260206004820152602960248201527f455243313135353a2063616c6c6572206973206e6f74206f776e6572206e6f7260448201526808185c1c1c9bdd995960ba1b606482015260840161048f565b303314610bca5760405163fd570b5160e01b815260040160405180910390fd5b81518351148015610bdc575080518351145b610c285760405162461bcd60e51b815260206004820152601460248201527f494e56414c49445f41525241595f4c454e475448000000000000000000000000604482015260640161048f565b60005b835181101561050c57610c8a848281518110610c4957610c49613151565b6020026020010151848381518110610c6357610c63613151565b6020026020010151848481518110610c7d57610c7d613151565b60200260200101516116dc565b80610c948161317d565b915050610c2b565b60006001600160a01b038316610d1a5760405162461bcd60e51b815260206004820152602b60248201527f455243313135353a2062616c616e636520717565727920666f7220746865207a60448201527f65726f2061646472657373000000000000000000000000000000000000000000606482015260840161048f565b7ff9ecf3cb86ac553c70621e3e662b4036163ca34fffb329385fafa0e130cfc1a76000928352602090815260408084206001600160a01b0395909516845293905250205490565b848314610dc15760405162461bcd60e51b815260206004820152602860248201527f455243313135353a2069647320616e6420616d6f756e7473206c656e677468206044820152670dad2e6dac2e8c6d60c31b606482015260840161048f565b868314610e365760405162461bcd60e51b815260206004820152602d60248201527f455243313135353a206163636f756e747320616e6420616d6f756e7473206c6560448201527f6e677468206d69736d6174636800000000000000000000000000000000000000606482015260840161048f565b337ff9ecf3cb86ac553c70621e3e662b4036163ca34fffb329385fafa0e130cfc1a760005b8781101561108457610f248360008d8d85818110610e7b57610e7b613151565b9050602002016020810190610e9091906131b3565b610eb18d8d87818110610ea557610ea5613151565b90506020020135611b19565b610ec68c8c88818110610ea557610ea5613151565b8a8a88818110610ed857610ed8613151565b9050602002810190610eea91906131ce565b8080601f016020809104026020016040519081016040528093929190818152602001838380828437600092019190915250611b6492505050565b868682818110610f3657610f36613151565b905060200201358260008b8b85818110610f5257610f52613151565b90506020020135815260200190815260200160002060008d8d85818110610f7b57610f7b613151565b9050602002016020810190610f9091906131b3565b6001600160a01b03166001600160a01b031681526020019081526020016000206000828254610fbf9190613215565b909155508b90508a82818110610fd757610fd7613151565b9050602002016020810190610fec91906131b3565b6001600160a01b031660006001600160a01b0316846001600160a01b03167fc3d58168c5ae7397731d063d5bbf3d657854427343f4c083240f7aacaa2d0f628c8c8681811061103d5761103d613151565b905060200201358b8b8781811061105657611056613151565b90506020020135604051611074929190918252602082015260400190565b60405180910390a4600101610e5b565b5050505050505050505050565b6001600160a01b0385166110f35760405162461bcd60e51b815260206004820152602360248201527f455243313135353a206275726e2066726f6d20746865207a65726f206164647260448201526265737360e81b606482015260840161048f565b8281146111535760405162461bcd60e51b815260206004820152602860248201527f455243313135353a2069647320616e6420616d6f756e7473206c656e677468206044820152670dad2e6dac2e8c6d60c31b606482015260840161048f565b60003390506111d78187600088888080602002602001604051908101604052809392919081815260200183836020028082843760009201919091525050604080516020808c0282810182019093528b82529093508b92508a918291850190849080828437600092018290525060408051602081019091529081529250611b64915050565b7ff9ecf3cb86ac553c70621e3e662b4036163ca34fffb329385fafa0e130cfc1a760005b8581101561131457600087878381811061121757611217613151565b90506020020135905085858381811061123257611232613151565b9050602002013583600083815260200190815260200160002060008b6001600160a01b03166001600160a01b031681526020019081526020016000205410156112c95760405162461bcd60e51b8152602060048201526024808201527f455243313135353a206275726e20616d6f756e7420657863656564732062616c604482015263616e636560e01b606482015260840161048f565b8585838181106112db576112db613151565b6000938452602086815260408086206001600160a01b038f168752825290942080549490910292909201359092039055506001016111fb565b5060006001600160a01b0316876001600160a01b0316836001600160a01b03167f4a39dc06d4c0dbc64b70af90fd698a233a518aa5d07e595d983b8c0526c8f7fb89898989604051611369949392919061327c565b60405180910390a450505050505050565b877f9c1f08fc16fa10f59a3ac18a8c5596ea456f2d66793744df41c7c3e4eb2197905460ff1615611471576daaeb6d7670e522a718067333cd4e3b1561147157336001600160a01b038216036113df576113da8989898989898989611b72565b611481565b604051633185c44d60e21b81523060048201523360248201526daaeb6d7670e522a718067333cd4e9063c617113490604401602060405180830381865afa15801561142e573d6000803e3d6000fd5b505050506040513d601f19601f820116820180604052508101906114529190613196565b61147157604051633b79c77360e21b815233600482015260240161048f565b6114818989898989898989611b72565b505050505050505050565b6001600160a01b03831660009081527f349768cb3869818ef8452552d8520ac7355b35c10a0ff9320e2975b2875278206020908152604080832085845291829052909120548211156115205760405162461bcd60e51b815260206004820152601160248201527f4e4f545f454e4f5547485f4c4f434b4544000000000000000000000000000000604482015260640161048f565b6000838152602082905260408120805484929061153e9084906132ae565b909155505050505050565b6001600160a01b0383166115ab5760405162461bcd60e51b815260206004820152602360248201527f455243313135353a206275726e2066726f6d20746865207a65726f206164647260448201526265737360e81b606482015260840161048f565b336115da818560006115bc87611b19565b6115c587611b19565b60405180602001604052806000815250611b64565b60008381527ff9ecf3cb86ac553c70621e3e662b4036163ca34fffb329385fafa0e130cfc1a7602090815260408083206001600160a01b038816845291829052909120548311156116795760405162461bcd60e51b8152602060048201526024808201527f455243313135353a206275726e20616d6f756e7420657863656564732062616c604482015263616e636560e01b606482015260840161048f565b6001600160a01b0385811660008181526020848152604080832080548990039055805189815291820188905291938616917fc3d58168c5ae7397731d063d5bbf3d657854427343f4c083240f7aacaa2d0f62910160405180910390a45050505050565b6001600160a01b03831660009081527f349768cb3869818ef8452552d8520ac7355b35c10a0ff9320e2975b287527820602090815260408083208584529182905290912054829061172d8686610c9c565b61173791906132ae565b10156117855760405162461bcd60e51b815260206004820152601260248201527f4e4f545f454e4f5547485f42414c414e43450000000000000000000000000000604482015260640161048f565b6000838152602082905260408120805484929061153e908490613215565b817f9c1f08fc16fa10f59a3ac18a8c5596ea456f2d66793744df41c7c3e4eb2197905460ff1615611887576daaeb6d7670e522a718067333cd4e3b1561188757604051633185c44d60e21b81523060048201526001600160a01b03821660248201526daaeb6d7670e522a718067333cd4e9063c617113490604401602060405180830381865afa15801561183b573d6000803e3d6000fd5b505050506040513d601f19601f8201168201806040525081019061185f9190613196565b61188757604051633b79c77360e21b81526001600160a01b038216600482015260240161048f565b61053d8383611cd0565b336001600160a01b03861661190e5760405162461bcd60e51b815260206004820152602160248201527f455243313135353a206d696e7420746f20746865207a65726f2061646472657360448201527f7300000000000000000000000000000000000000000000000000000000000000606482015260840161048f565b6119638160008861191e89611b19565b61192789611b19565b88888080601f016020809104026020016040519081016040528093929190818152602001838380828437600092019190915250611b6492505050565b60008581527ff9ecf3cb86ac553c70621e3e662b4036163ca34fffb329385fafa0e130cfc1a7602090815260408083206001600160a01b038a168452909152812080548692906119b4908490613215565b909155505060408051868152602081018690526001600160a01b0380891692600092918516917fc3d58168c5ae7397731d063d5bbf3d657854427343f4c083240f7aacaa2d0f62910160405180910390a4505050505050565b857f9c1f08fc16fa10f59a3ac18a8c5596ea456f2d66793744df41c7c3e4eb2197905460ff1615611b02576daaeb6d7670e522a718067333cd4e3b15611b0257336001600160a01b03821603611a7057611a6b878787878787611cda565b611b10565b604051633185c44d60e21b81523060048201523360248201526daaeb6d7670e522a718067333cd4e9063c617113490604401602060405180830381865afa158015611abf573d6000803e3d6000fd5b505050506040513d601f19601f82011682018060405250810190611ae39190613196565b611b0257604051633b79c77360e21b815233600482015260240161048f565b611b10878787878787611cda565b50505050505050565b60408051600180825281830190925260609160009190602080830190803683370190505090508281600081518110611b5357611b53613151565b602090810291909101015292915050565b610abb868686868686611da3565b336001600160a01b038916811480611bce57506001600160a01b03808a1660009081527ff9ecf3cb86ac553c70621e3e662b4036163ca34fffb329385fafa0e130cfc1a8602090815260408083209385168352929052205460ff165b611c2c5760405162461bcd60e51b815260206004820152602960248201527f455243313135353a2063616c6c6572206973206e6f74206f776e6572206e6f7260448201526808185c1c1c9bdd995960ba1b606482015260840161048f565b611481818a8a8a8a8080602002602001604051908101604052809392919081815260200183836020028082843760009201919091525050604080516020808e0282810182019093528d82529093508d92508c91829185019084908082843760009201919091525050604080516020601f8d018190048102820181019092528b815292508b91508a9081908401838280828437600092019190915250611eed92505050565b61091a8282611f09565b336001600160a01b038716811480611d3657506001600160a01b0380881660009081527ff9ecf3cb86ac553c70621e3e662b4036163ca34fffb329385fafa0e130cfc1a8602090815260408083209385168352929052205460ff165b611d945760405162461bcd60e51b815260206004820152602960248201527f455243313135353a2063616c6c6572206973206e6f74206f776e6572206e6f7260448201526808185c1c1c9bdd995960ba1b606482015260840161048f565b611b1081888888888888612015565b6001600160a01b03851615611edf5760005b8351811015611edd57828181518110611dd057611dd0613151565b6020026020010151611dff7f349768cb3869818ef8452552d8520ac7355b35c10a0ff9320e2975b28752782090565b6000016000886001600160a01b03166001600160a01b031681526020019081526020016000206000868481518110611e3957611e39613151565b6020026020010151815260200190815260200160002054611e7388878581518110611e6657611e66613151565b6020026020010151610c9c565b611e7d91906132ae565b1015611ecb5760405162461bcd60e51b815260206004820152600660248201527f4c4f434b45440000000000000000000000000000000000000000000000000000604482015260640161048f565b80611ed58161317d565b915050611db5565b505b610abb868686868686612068565b611efb868686868686612300565b610abb86868686868661257c565b336001600160a01b0383168103611f885760405162461bcd60e51b815260206004820152602960248201527f455243313135353a2073657474696e6720617070726f76616c2073746174757360448201527f20666f722073656c660000000000000000000000000000000000000000000000606482015260840161048f565b6001600160a01b0381811660008181527ff9ecf3cb86ac553c70621e3e662b4036163ca34fffb329385fafa0e130cfc1a86020908152604080832094881680845294825291829020805460ff1916871515908117909155825190815291517f17307eab39ab6107e8899845ad3d59bd9653f200f220920489ca2b5937696c319281900390910190a3505050565b61202487878787878787612721565b611b10878787878787878080601f01602080910402602001604051908101604052809392919081815260200183838082843760009201919091525061292d92505050565b6001600160a01b0385166121d9577f7056dcda885936c7a9d7c6385902b4ab5fb09024caea98652b7189a5f7a28ea57f7056dcda885936c7a9d7c6385902b4ab5fb09024caea98652b7189a5f7a28ea660005b85518110156121d5578481815181106120d6576120d6613151565b60200260200101518360008884815181106120f3576120f3613151565b6020026020010151815260200190815260200160002060008282546121189190613215565b9250508190555081600087838151811061213457612134613151565b602002602001015181526020019081526020016000205483600088848151811061216057612160613151565b602002602001015181526020019081526020016000205411156121c55760405162461bcd60e51b815260206004820152601160248201527f535550504c595f4558434545445f4d4158000000000000000000000000000000604482015260640161048f565b6121ce8161317d565b90506120bb565b5050505b6001600160a01b038416610abb577f7056dcda885936c7a9d7c6385902b4ab5fb09024caea98652b7189a5f7a28ea560005b84518110156103c757600085828151811061222857612228613151565b60200260200101519050600085838151811061224657612246613151565b602002602001015190506000846000848152602001908152602001600020549050818110156122dd5760405162461bcd60e51b815260206004820152602860248201527f455243313135353a206275726e20616d6f756e74206578636565647320746f7460448201527f616c537570706c79000000000000000000000000000000000000000000000000606482015260840161048f565b600092835260208590526040909220910390556122f98161317d565b905061220b565b6001600160a01b0384166123645760405162461bcd60e51b815260206004820152602560248201527f455243313135353a207472616e7366657220746f20746865207a65726f206164604482015264647265737360d81b606482015260840161048f565b81518351146123c65760405162461bcd60e51b815260206004820152602860248201527f455243313135353a2069647320616e6420616d6f756e7473206c656e677468206044820152670dad2e6dac2e8c6d60c31b606482015260840161048f565b6123d4868686868686611b64565b7ff9ecf3cb86ac553c70621e3e662b4036163ca34fffb329385fafa0e130cfc1a760005b845181101561252c57600085828151811061241557612415613151565b60200260200101519050600085838151811061243357612433613151565b602090810291909101810151600084815286835260408082206001600160a01b038e1683529093529190912054909150818110156124d95760405162461bcd60e51b815260206004820152602b60248201527f455243313135353a20696e73756666696369656e742062616c616e636573206660448201527f6f72207472616e73666572000000000000000000000000000000000000000000606482015260840161048f565b6000838152602086815260408083206001600160a01b038e811685529252808320938590039093558a16815290812080546001959095019483929061251f908490613215565b909155506123f892505050565b50846001600160a01b0316866001600160a01b0316886001600160a01b03167f4a39dc06d4c0dbc64b70af90fd698a233a518aa5d07e595d983b8c0526c8f7fb87876040516113699291906132c5565b6001600160a01b0384163b15610abb5760405163bc197c8160e01b81526001600160a01b0385169063bc197c81906125c09089908990889088908890600401613340565b6020604051808303816000875af19250505080156125fb575060408051601f3d908101601f191682019092526125f89181019061339e565b60015b6126b0576126076133c8565b806308c379a003612640575061261b6133e4565b806126265750612642565b8060405162461bcd60e51b815260040161048f919061346e565b505b60405162461bcd60e51b815260206004820152603460248201527f455243313135353a207472616e7366657220746f206e6f6e204552433131353560448201527f526563656976657220696d706c656d656e746572000000000000000000000000606482015260840161048f565b6001600160e01b0319811663bc197c8160e01b14611b105760405162461bcd60e51b815260206004820152602860248201527f455243313135353a204552433131353552656365697665722072656a656374656044820152676420746f6b656e7360c01b606482015260840161048f565b6001600160a01b0385166127855760405162461bcd60e51b815260206004820152602560248201527f455243313135353a207472616e7366657220746f20746865207a65726f206164604482015264647265737360d81b606482015260840161048f565b6127d987878761279488611b19565b61279d88611b19565b87878080601f016020809104026020016040519081016040528093929190818152602001838380828437600092019190915250611b6492505050565b60008481527ff9ecf3cb86ac553c70621e3e662b4036163ca34fffb329385fafa0e130cfc1a7602081815260408084206001600160a01b038b16855290915290912054848110156128925760405162461bcd60e51b815260206004820152602b60248201527f455243313135353a20696e73756666696369656e742062616c616e636573206660448201527f6f72207472616e73666572000000000000000000000000000000000000000000606482015260840161048f565b6000868152602083815260408083206001600160a01b038c811685529252808320938890039093558816815290812080548692906128d1908490613215565b909155505060408051868152602081018690526001600160a01b03808916928a821692918c16917fc3d58168c5ae7397731d063d5bbf3d657854427343f4c083240f7aacaa2d0f62910160405180910390a45050505050505050565b6001600160a01b0384163b15610abb5760405163f23a6e6160e01b81526001600160a01b0385169063f23a6e61906129719089908990889088908890600401613481565b6020604051808303816000875af19250505080156129ac575060408051601f3d908101601f191682019092526129a99181019061339e565b60015b6129b8576126076133c8565b6001600160e01b0319811663f23a6e6160e01b14611b105760405162461bcd60e51b815260206004820152602860248201527f455243313135353a204552433131353552656365697665722072656a656374656044820152676420746f6b656e7360c01b606482015260840161048f565b80356001600160a01b0381168114612a4057600080fd5b919050565b60008060408385031215612a5857600080fd5b612a6183612a29565b946020939093013593505050565b60008083601f840112612a8157600080fd5b50813567ffffffffffffffff811115612a9957600080fd5b6020830191508360208260051b8501011115612ab457600080fd5b9250929050565b6000806000806000806000806080898b031215612ad757600080fd5b883567ffffffffffffffff80821115612aef57600080fd5b612afb8c838d01612a6f565b909a50985060208b0135915080821115612b1457600080fd5b612b208c838d01612a6f565b909850965060408b0135915080821115612b3957600080fd5b612b458c838d01612a6f565b909650945060608b0135915080821115612b5e57600080fd5b50612b6b8b828c01612a6f565b999c989b5096995094979396929594505050565b600080600080600060608688031215612b9757600080fd5b612ba086612a29565b9450602086013567ffffffffffffffff80821115612bbd57600080fd5b612bc989838a01612a6f565b90965094506040880135915080821115612be257600080fd5b50612bef88828901612a6f565b969995985093965092949392505050565b60008083601f840112612c1257600080fd5b50813567ffffffffffffffff811115612c2a57600080fd5b602083019150836020828501011115612ab457600080fd5b60008060008060008060008060a0898b031215612c5e57600080fd5b612c6789612a29565b9750612c7560208a01612a29565b9650604089013567ffffffffffffffff80821115612c9257600080fd5b612c9e8c838d01612a6f565b909850965060608b0135915080821115612cb757600080fd5b612cc38c838d01612a6f565b909650945060808b0135915080821115612cdc57600080fd5b50612b6b8b828c01612c00565b634e487b7160e01b600052604160045260246000fd5b601f8201601f1916810167ffffffffffffffff81118282101715612d2557612d25612ce9565b6040525050565b600067ffffffffffffffff821115612d4657612d46612ce9565b5060051b60200190565b600082601f830112612d6157600080fd5b81356020612d6e82612d2c565b604051612d7b8282612cff565b83815260059390931b8501820192828101915086841115612d9b57600080fd5b8286015b84811015612dbd57612db081612a29565b8352918301918301612d9f565b509695505050505050565b600082601f830112612dd957600080fd5b81356020612de682612d2c565b604051612df38282612cff565b83815260059390931b8501820192828101915086841115612e1357600080fd5b8286015b84811015612dbd5780358352918301918301612e17565b600080600060608486031215612e4357600080fd5b833567ffffffffffffffff80821115612e5b57600080fd5b612e6787838801612d50565b94506020860135915080821115612e7d57600080fd5b612e8987838801612dc8565b93506040860135915080821115612e9f57600080fd5b50612eac86828701612dc8565b9150509250925092565b600080600060608486031215612ecb57600080fd5b612ed484612a29565b95602085013595506040909401359392505050565b60008060408385031215612efc57600080fd5b823567ffffffffffffffff80821115612f1457600080fd5b612f2086838701612d50565b93506020850135915080821115612f3657600080fd5b50612f4385828601612dc8565b9150509250929050565b600081518084526020808501945080840160005b83811015612f7d57815187529582019590820190600101612f61565b509495945050505050565b6020815260006103906020830184612f4d565b600060208284031215612fad57600080fd5b5035919050565b8015158114612fc257600080fd5b50565b60008060408385031215612fd857600080fd5b612fe183612a29565b91506020830135612ff181612fb4565b809150509250929050565b60008060006040848603121561301157600080fd5b61301a84612a29565b9250602084013567ffffffffffffffff81111561303657600080fd5b61304286828701612a6f565b9497909650939450505050565b60008060008060006080868803121561306757600080fd5b61307086612a29565b94506020860135935060408601359250606086013567ffffffffffffffff81111561309a57600080fd5b612bef88828901612c00565b600080604083850312156130b957600080fd5b6130c283612a29565b91506130d060208401612a29565b90509250929050565b60008060008060008060a087890312156130f257600080fd5b6130fb87612a29565b955061310960208801612a29565b94506040870135935060608701359250608087013567ffffffffffffffff81111561313357600080fd5b61313f89828a01612c00565b979a9699509497509295939492505050565b634e487b7160e01b600052603260045260246000fd5b634e487b7160e01b600052601160045260246000fd5b60006001820161318f5761318f613167565b5060010190565b6000602082840312156131a857600080fd5b815161039081612fb4565b6000602082840312156131c557600080fd5b61039082612a29565b6000808335601e198436030181126131e557600080fd5b83018035915067ffffffffffffffff82111561320057600080fd5b602001915036819003821315612ab457600080fd5b6000821982111561322857613228613167565b500190565b81835260007f07ffffffffffffffffffffffffffffffffffffffffffffffffffffffffffffff83111561325f57600080fd5b8260051b8083602087013760009401602001938452509192915050565b60408152600061329060408301868861322d565b82810360208401526132a381858761322d565b979650505050505050565b6000828210156132c0576132c0613167565b500390565b6040815260006132d86040830185612f4d565b82810360208401526132ea8185612f4d565b95945050505050565b6000815180845260005b81811015613319576020818501810151868301820152016132fd565b8181111561332b576000602083870101525b50601f01601f19169290920160200192915050565b60006001600160a01b03808816835280871660208401525060a0604083015261336c60a0830186612f4d565b828103606084015261337e8186612f4d565b9050828103608084015261339281856132f3565b98975050505050505050565b6000602082840312156133b057600080fd5b81516001600160e01b03198116811461039057600080fd5b600060033d11156133e15760046000803e5060005160e01c5b90565b600060443d10156133f25790565b6040516003193d81016004833e81513d67ffffffffffffffff816024840111818411171561342257505050505090565b828501915081518181111561343a5750505050505090565b843d87010160208285010111156134545750505050505090565b61346360208286010187612cff565b509095945050505050565b60208152600061039060208301846132f3565b60006001600160a01b03808816835280871660208401525084604083015283606083015260a060808301526132a360a08301846132f356fea26469706673582212202049882223a4198844a0c76cbdd2bdaea21b85df95b3fc85ff1247836d1cafa064736f6c634300080f0033",
  "devdoc": {
    "custom:category": "NFTs",
    "custom:provides-interfaces": "IERC1155 IERC1155SupplyExtension IERC1155MintableExtension IERC1155BurnableExtension IERC1155LockableExtension IRoyaltyEnforcement",
    "custom:type": "eip-2535-facet",
    "kind": "dev",
    "methods": {
      "balanceOf(address,uint256)": {
        "params": {
          "account": "address to query",
          "id": "token to query"
        },
        "returns": {
          "_0": "token balance"
        }
      },
      "balanceOfBatch(address[],uint256[])": {
        "params": {
          "accounts": "addresss to query",
          "ids": "tokens to query"
        },
        "returns": {
          "_0": "token balances"
        }
      },
      "exists(uint256)": {
        "details": "Indicates whether any token exist with a given id, or not."
      },
      "isApprovedForAll(address,address)": {
        "params": {
          "account": "address to query for approval granted",
          "operator": "address to query for approval received"
        },
        "returns": {
          "_0": "whether operator is approved to spend tokens held by account"
        }
      },
      "lockByFacet(address,uint256,uint256)": {
        "details": "Locks `amount` of tokens of `account`, of token type `id`. Requirements: - the caller must be diamond itself (other facets)."
      },
      "maxSupply(uint256)": {
        "details": "Maximum amount of tokens possible to exist for a given id."
      },
      "mintByFacet(address,uint256,uint256,bytes)": {
        "details": "Creates `amount` new tokens for `to`, of token type `id`. See {ERC1155-_mint}. Requirements: - the caller must be diamond itself (other facets)."
      },
      "totalSupply(uint256)": {
        "details": "Total amount of tokens in with a given id."
      },
      "unlockByFacet(address,uint256,uint256)": {
        "details": "Un-locks `amount` of tokens of `account`, of token type `id`. Requirements: - the caller must be diamond itself (other facets)."
      }
    },
    "title": "ERC1155 - Standard",
    "version": 1
  },
  "userdoc": {
    "errors": {
      "ErrSenderIsNotSelf()": [
        {
          "notice": "The caller must be the current contract itself."
        }
      ]
    },
    "kind": "user",
    "methods": {
      "balanceOf(address,uint256)": {
        "notice": "query the balance of given token held by given address"
      },
      "balanceOfBatch(address[],uint256[])": {
        "notice": "query the balances of given tokens held by given addresses"
      },
      "isApprovedForAll(address,address)": {
        "notice": "query approval status of given operator with respect to given address"
      }
    },
    "notice": "Standard EIP-1155 NFTs with core capabilities of Mintable, Burnable and Lockable.",
    "version": 1
  },
  "storageLayout": {
    "storage": [],
    "types": null
  }
}