{
  "address": "0x41fe70fC286f7E3e842DE6142a79C89fdCE3bace",
  "abi": [
    {
      "inputs": [
        {
          "internalType": "uint256",
          "name": "tokenId",
          "type": "uint256"
        }
      ],
      "name": "uri",
      "outputs": [
        {
          "internalType": "string",
          "name": "",
          "type": "string"
        }
      ],
      "stateMutability": "view",
      "type": "function"
    }
  ],
  "transactionHash": "0x5b98a0482485a16a88a3d77a94ec7a1f3b5c10cb68c82988f4f7659d6dfdfae6",
  "args": [],
  "numDeployments": 1,
  "solcInputHash": "48f4524ebff8b0366d06eec787eed08d",
  "bytecode": "0x608060405234801561001057600080fd5b5061069b806100206000396000f3fe608060405234801561001057600080fd5b506004361061002b5760003560e01c80630e89341c14610030575b600080fd5b61004361003e366004610420565b610059565b6040516100509190610469565b60405180910390f35b60008181527f021fe373f7e014154d4f551c37c047b9ed9093c774291911030896b9b2dfef666020526040812080546060927f021fe373f7e014154d4f551c37c047b9ed9093c774291911030896b9b2dfef5f9290916100b89061049c565b80601f01602080910402602001604051908101604052809291908181526020018280546100e49061049c565b80156101315780601f1061010657610100808354040283529160200191610131565b820191906000526020600020905b81548152906001019060200180831161011457829003601f168201915b5050505050905060008260000180546101499061049c565b80601f01602080910402602001604051908101604052809291908181526020018280546101759061049c565b80156101c25780601f10610197576101008083540402835291602001916101c2565b820191906000526020600020905b8154815290600101906020018083116101a557829003601f168201915b505050505090506000825111156101db57509392505050565b60008360020180546101ec9061049c565b9050111561028b578260020180546102039061049c565b80601f016020809104026020016040519081016040528092919081815260200182805461022f9061049c565b801561027c5780601f106102515761010080835404028352916020019161027c565b820191906000526020600020905b81548152906001019060200180831161025f57829003601f168201915b50505050509350505050919050565b8051156102cb578061029c866102e3565b846004016040516020016102b2939291906104d6565b6040516020818303038152906040529350505050919050565b50506040805160208101909152600081529392505050565b60608160000361032657505060408051808201909152600181527f3000000000000000000000000000000000000000000000000000000000000000602082015290565b8160005b8115610350578061033a816105b3565b91506103499050600a836105e2565b915061032a565b60008167ffffffffffffffff81111561036b5761036b6105f6565b6040519080825280601f01601f191660200182016040528015610395576020820181803683370190505b5090505b8415610418576103aa60018361060c565b91506103b7600a86610623565b6103c2906030610637565b60f81b8183815181106103d7576103d761064f565b60200101907effffffffffffffffffffffffffffffffffffffffffffffffffffffffffffff1916908160001a905350610411600a866105e2565b9450610399565b949350505050565b60006020828403121561043257600080fd5b5035919050565b60005b8381101561045457818101518382015260200161043c565b83811115610463576000848401525b50505050565b6020815260008251806020840152610488816040850160208701610439565b601f01601f19169190910160400192915050565b600181811c908216806104b057607f821691505b6020821081036104d057634e487b7160e01b600052602260045260246000fd5b50919050565b6000845160206104e98285838a01610439565b8551918401916104fc8184848a01610439565b8554920191600090600181811c908083168061051957607f831692505b858310810361053657634e487b7160e01b85526022600452602485fd5b80801561054a576001811461055f5761058c565b60ff198516885283151584028801955061058c565b60008b81526020902060005b858110156105845781548a82015290840190880161056b565b505083880195505b50939b9a5050505050505050505050565b634e487b7160e01b600052601160045260246000fd5b6000600182016105c5576105c561059d565b5060010190565b634e487b7160e01b600052601260045260246000fd5b6000826105f1576105f16105cc565b500490565b634e487b7160e01b600052604160045260246000fd5b60008282101561061e5761061e61059d565b500390565b600082610632576106326105cc565b500690565b6000821982111561064a5761064a61059d565b500190565b634e487b7160e01b600052603260045260246000fdfea2646970667358221220cfee8f56ed02a93b251a94f902c594ccfc0eeeb91e75c6a9b6137c9517df1d3964736f6c634300080f0033",
  "devdoc": {
    "custom:category": "NFTs",
    "custom:peer-dependencies": "IERC1155",
    "custom:provides-interfaces": "IMetadata IERC1155Metadata",
    "custom:type": "eip-2535-facet",
    "details": "See https://eips.ethereum.org/EIPS/eip-1155#metadata-extensions",
    "kind": "dev",
    "methods": {},
    "title": "ERC1155 - Metadata",
    "version": 1
  },
  "userdoc": {
    "kind": "user",
    "methods": {
      "uri(uint256)": {
        "notice": "inheritdoc IERC1155Metadata"
      }
    },
    "notice": "Provides metadata for ERC1155 tokens according to standard.",
    "version": 1
  },
  "storageLayout": {
    "storage": [],
    "types": null
  }
}