{
  "address": "0x00Dc371b553B7be2dF5D5E42e49b4F9236f588B7",
  "abi": [
    {
      "anonymous": false,
      "inputs": [
        {
          "indexed": false,
          "internalType": "address",
          "name": "recipient",
          "type": "address"
        },
        {
          "indexed": false,
          "internalType": "uint16",
          "name": "bps",
          "type": "uint16"
        }
      ],
      "name": "DefaultRoyaltySet",
      "type": "event"
    },
    {
      "anonymous": false,
      "inputs": [
        {
          "indexed": false,
          "internalType": "uint256",
          "name": "tokenId",
          "type": "uint256"
        }
      ],
      "name": "TokenRoyaltyRemoved",
      "type": "event"
    },
    {
      "anonymous": false,
      "inputs": [
        {
          "indexed": false,
          "internalType": "uint256",
          "name": "tokenId",
          "type": "uint256"
        },
        {
          "indexed": false,
          "internalType": "address",
          "name": "recipient",
          "type": "address"
        },
        {
          "indexed": false,
          "internalType": "uint16",
          "name": "bps",
          "type": "uint16"
        }
      ],
      "name": "TokenRoyaltySet",
      "type": "event"
    },
    {
      "inputs": [],
      "name": "defaultRoyalty",
      "outputs": [
        {
          "components": [
            {
              "internalType": "address",
              "name": "recipient",
              "type": "address"
            },
            {
              "internalType": "uint16",
              "name": "bps",
              "type": "uint16"
            }
          ],
          "internalType": "struct IRoyaltyInternal.TokenRoyalty",
          "name": "",
          "type": "tuple"
        }
      ],
      "stateMutability": "view",
      "type": "function"
    },
    {
      "inputs": [
        {
          "internalType": "uint256",
          "name": "tokenId",
          "type": "uint256"
        }
      ],
      "name": "getFeeBps",
      "outputs": [
        {
          "internalType": "uint256[]",
          "name": "",
          "type": "uint256[]"
        }
      ],
      "stateMutability": "view",
      "type": "function"
    },
    {
      "inputs": [
        {
          "internalType": "uint256",
          "name": "tokenId",
          "type": "uint256"
        }
      ],
      "name": "getFeeRecipients",
      "outputs": [
        {
          "internalType": "address payable[]",
          "name": "",
          "type": "address[]"
        }
      ],
      "stateMutability": "view",
      "type": "function"
    },
    {
      "inputs": [
        {
          "internalType": "uint256",
          "name": "tokenId",
          "type": "uint256"
        }
      ],
      "name": "getFees",
      "outputs": [
        {
          "internalType": "address payable[]",
          "name": "",
          "type": "address[]"
        },
        {
          "internalType": "uint256[]",
          "name": "",
          "type": "uint256[]"
        }
      ],
      "stateMutability": "view",
      "type": "function"
    },
    {
      "inputs": [
        {
          "internalType": "uint256",
          "name": "tokenId",
          "type": "uint256"
        }
      ],
      "name": "getRaribleV2Royalties",
      "outputs": [
        {
          "components": [
            {
              "internalType": "address payable",
              "name": "account",
              "type": "address"
            },
            {
              "internalType": "uint96",
              "name": "value",
              "type": "uint96"
            }
          ],
          "internalType": "struct IRaribleV2.Part[]",
          "name": "result",
          "type": "tuple[]"
        }
      ],
      "stateMutability": "view",
      "type": "function"
    },
    {
      "inputs": [],
      "name": "getTokenRoyaltiesCount",
      "outputs": [
        {
          "internalType": "uint256",
          "name": "",
          "type": "uint256"
        }
      ],
      "stateMutability": "view",
      "type": "function"
    },
    {
      "inputs": [
        {
          "internalType": "uint256",
          "name": "index",
          "type": "uint256"
        }
      ],
      "name": "getTokenRoyaltyByIndex",
      "outputs": [
        {
          "components": [
            {
              "internalType": "uint256",
              "name": "tokenId",
              "type": "uint256"
            },
            {
              "internalType": "address",
              "name": "recipient",
              "type": "address"
            },
            {
              "internalType": "uint16",
              "name": "bps",
              "type": "uint16"
            }
          ],
          "internalType": "struct IRoyaltyInternal.TokenRoyaltyConfig",
          "name": "",
          "type": "tuple"
        }
      ],
      "stateMutability": "view",
      "type": "function"
    },
    {
      "inputs": [
        {
          "internalType": "uint256",
          "name": "tokenId",
          "type": "uint256"
        },
        {
          "internalType": "uint256",
          "name": "value",
          "type": "uint256"
        }
      ],
      "name": "royaltyInfo",
      "outputs": [
        {
          "internalType": "address",
          "name": "",
          "type": "address"
        },
        {
          "internalType": "uint256",
          "name": "",
          "type": "uint256"
        }
      ],
      "stateMutability": "view",
      "type": "function"
    }
  ],
  "transactionHash": "0x2d20314f4929722ffeb07e69c675a13fdcffac8b779a463147b244b43f8de811",
  "args": [],
  "numDeployments": 1,
  "solcInputHash": "48f4524ebff8b0366d06eec787eed08d",
  "bytecode": "0x608060405234801561001057600080fd5b50610901806100206000396000f3fe608060405234801561001057600080fd5b50600436106100885760003560e01c80637e9803421161005b5780637e98034214610198578063b9c4d9fb146101ae578063cad96cca146101ce578063d5a06d4c146101ee57600080fd5b80630653aca51461008d5780630ebd4c7f146100d45780632a55205a146100f45780637885fdc714610126575b600080fd5b6100a061009b3660046106fd565b61020f565b60408051825181526020808401516001600160a01b0316908201529181015161ffff16908201526060015b60405180910390f35b6100e76100e23660046106fd565b61023b565b6040516100cb9190610751565b610107610102366004610764565b610298565b604080516001600160a01b0390931683526020830191909152016100cb565b6040805180820182526000808252602091820152815180830183527fad41a88d044cfe4c318a78970a1f122259b5b1a56fdee398e17d1e83109ea075546001600160a01b03811680835261ffff600160a01b9092048216928401928352845190815291511691810191909152016100cb565b6101a06102b1565b6040519081526020016100cb565b6101c16101bc3660046106fd565b6102c0565b6040516100cb91906107bf565b6101e16101dc3660046106fd565b61032a565b6040516100cb91906107d2565b6102016101fc3660046106fd565b6103fe565b6040516100cb929190610838565b6040805160608101825260008082526020820181905291810191909152610235826104ba565b92915050565b6040805160018082528183019092526060916000919060208083019080368337019050509050600061026f84612710610586565b915050808260008151811061028657610286610866565b60209081029190910101525092915050565b6000806102a58484610586565b915091505b9250929050565b60006102bb61068b565b905090565b604080516001808252818301909252606091600091906020808301908036833701905050905060006102f484612710610586565b509050808260008151811061030b5761030b610866565b6001600160a01b03909216602092830291909101909101525092915050565b604080516001808252818301909252606091816020015b604080518082019091526000808252602082015281526020019060019003908161034157905050905060008061037984612710610586565b91509150818360008151811061039157610391610866565b6020026020010151600001906001600160a01b031690816001600160a01b03168152505080836000815181106103c9576103c9610866565b6020026020010151602001906bffffffffffffffffffffffff1690816bffffffffffffffffffffffff16815250505050919050565b604080516001808252818301909252606091829160009160208083019080368337505060408051600180825281830190925292935060009291506020808301908036833701905050905060008061045787612710610586565b91509150818460008151811061046f5761046f610866565b60200260200101906001600160a01b031690816001600160a01b03168152505080836000815181106104a3576104a3610866565b602090810291909101015250919590945092505050565b60408051606081018252600080825260208201819052918101829052907fad41a88d044cfe4c318a78970a1f122259b5b1a56fdee398e17d1e83109ea075906105237fad41a88d044cfe4c318a78970a1f122259b5b1a56fdee398e17d1e83109ea077856106b6565b6000818152600190930160209081526040938490208451808601865290546001600160a01b03808216835261ffff600160a01b90920482168385019081528751606081018952958652925116928401929092525116928101929092525092915050565b60008281527fad41a88d044cfe4c318a78970a1f122259b5b1a56fdee398e17d1e83109ea076602052604081205481907fad41a88d044cfe4c318a78970a1f122259b5b1a56fdee398e17d1e83109ea075906001600160a01b03161561062f5760008581526001820160205260409020546001600160a01b038116906127109061061b90600160a01b900461ffff168761087c565b61062591906108a9565b92509250506102aa565b80546001600160a01b03161580159061065357508054600160a01b900461ffff1615155b1561067e5780546001600160a01b038116906127109061061b90600160a01b900461ffff168761087c565b5060009485945092505050565b60006102bb7fad41a88d044cfe4c318a78970a1f122259b5b1a56fdee398e17d1e83109ea0776106c9565b60006106c283836106d3565b9392505050565b6000610235825490565b60008260000182815481106106ea576106ea610866565b9060005260206000200154905092915050565b60006020828403121561070f57600080fd5b5035919050565b600081518084526020808501945080840160005b838110156107465781518752958201959082019060010161072a565b509495945050505050565b6020815260006106c26020830184610716565b6000806040838503121561077757600080fd5b50508035926020909101359150565b600081518084526020808501945080840160005b838110156107465781516001600160a01b03168752958201959082019060010161079a565b6020815260006106c26020830184610786565b602080825282518282018190526000919060409081850190868401855b8281101561082b57815180516001600160a01b031685528601516bffffffffffffffffffffffff168685015292840192908501906001016107ef565b5091979650505050505050565b60408152600061084b6040830185610786565b828103602084015261085d8185610716565b95945050505050565b634e487b7160e01b600052603260045260246000fd5b60008160001904831182151516156108a457634e487b7160e01b600052601160045260246000fd5b500290565b6000826108c657634e487b7160e01b600052601260045260246000fd5b50049056fea2646970667358221220fbb46c9864babcd9ba229e0ef843f719c5e18818b60d5244ff5b90fbf10448d664736f6c634300080f0033",
  "devdoc": {
    "custom:category": "Finance",
    "custom:provides-interfaces": "IEIP2981 IRoyalty IRaribleV1 IRaribleV2 IFoundation IEIP2981RoyaltyOverride",
    "custom:type": "eip-2535-facet",
    "kind": "dev",
    "methods": {
      "defaultRoyalty()": {
        "details": "Default royalty for all tokens without a specific royalty."
      },
      "getFeeRecipients(uint256)": {
        "details": "IRaribleV1"
      },
      "getFees(uint256)": {
        "details": "IFoundation"
      },
      "getRaribleV2Royalties(uint256)": {
        "details": "IRaribleV2"
      },
      "getTokenRoyaltiesCount()": {
        "details": "IEIP2981RoyaltyOverride (Manifold)"
      },
      "getTokenRoyaltyByIndex(uint256)": {
        "details": "Get a token royalty configuration by index.  Use in conjunction with getTokenRoyaltiesCount to get all per token configurations"
      },
      "royaltyInfo(uint256,uint256)": {
        "details": "EIP-2981"
      }
    },
    "title": "ERC2981 - Royalty",
    "version": 1
  },
  "userdoc": {
    "kind": "user",
    "methods": {},
    "notice": "Provide standard on-chain EIP-2981 royalty support for ERC721 or ERC1155 tokens, and additional functions for Rarible and Foundation.",
    "version": 1
  },
  "storageLayout": {
    "storage": [],
    "types": null
  }
}