{
  "address": "0x293E9F67cEF4d7465b6B9E19ccDB16F68536F54d",
  "abi": [
    {
      "anonymous": false,
      "inputs": [
        {
          "indexed": true,
          "internalType": "address",
          "name": "previousOwner",
          "type": "address"
        },
        {
          "indexed": true,
          "internalType": "address",
          "name": "newOwner",
          "type": "address"
        }
      ],
      "name": "OwnershipTransferred",
      "type": "event"
    },
    {
      "anonymous": false,
      "inputs": [
        {
          "indexed": true,
          "internalType": "bytes32",
          "name": "role",
          "type": "bytes32"
        },
        {
          "indexed": true,
          "internalType": "bytes32",
          "name": "previousAdminRole",
          "type": "bytes32"
        },
        {
          "indexed": true,
          "internalType": "bytes32",
          "name": "newAdminRole",
          "type": "bytes32"
        }
      ],
      "name": "RoleAdminChanged",
      "type": "event"
    },
    {
      "anonymous": false,
      "inputs": [
        {
          "indexed": true,
          "internalType": "bytes32",
          "name": "role",
          "type": "bytes32"
        },
        {
          "indexed": true,
          "internalType": "address",
          "name": "account",
          "type": "address"
        },
        {
          "indexed": true,
          "internalType": "address",
          "name": "sender",
          "type": "address"
        }
      ],
      "name": "RoleGranted",
      "type": "event"
    },
    {
      "anonymous": false,
      "inputs": [
        {
          "indexed": true,
          "internalType": "bytes32",
          "name": "role",
          "type": "bytes32"
        },
        {
          "indexed": true,
          "internalType": "address",
          "name": "account",
          "type": "address"
        },
        {
          "indexed": true,
          "internalType": "address",
          "name": "sender",
          "type": "address"
        }
      ],
      "name": "RoleRevoked",
      "type": "event"
    },
    {
      "anonymous": false,
      "inputs": [
        {
          "indexed": true,
          "internalType": "uint256",
          "name": "tierId",
          "type": "uint256"
        },
        {
          "indexed": true,
          "internalType": "address",
          "name": "operator",
          "type": "address"
        },
        {
          "indexed": true,
          "internalType": "address",
          "name": "minter",
          "type": "address"
        },
        {
          "indexed": false,
          "internalType": "uint256",
          "name": "count",
          "type": "uint256"
        }
      ],
      "name": "TierSale",
      "type": "event"
    },
    {
      "inputs": [],
      "name": "DEFAULT_ADMIN_ROLE",
      "outputs": [
        {
          "internalType": "bytes32",
          "name": "",
          "type": "bytes32"
        }
      ],
      "stateMutability": "view",
      "type": "function"
    },
    {
      "inputs": [],
      "name": "MERCHANT_ROLE",
      "outputs": [
        {
          "internalType": "bytes32",
          "name": "",
          "type": "bytes32"
        }
      ],
      "stateMutability": "view",
      "type": "function"
    },
    {
      "inputs": [
        {
          "internalType": "uint256",
          "name": "tierId",
          "type": "uint256"
        },
        {
          "internalType": "address",
          "name": "minter",
          "type": "address"
        },
        {
          "internalType": "uint256",
          "name": "maxAllowance",
          "type": "uint256"
        },
        {
          "internalType": "bytes32[]",
          "name": "proof",
          "type": "bytes32[]"
        }
      ],
      "name": "eligibleForTier",
      "outputs": [
        {
          "internalType": "uint256",
          "name": "maxMintable",
          "type": "uint256"
        }
      ],
      "stateMutability": "view",
      "type": "function"
    },
    {
      "inputs": [
        {
          "internalType": "uint256",
          "name": "tierId",
          "type": "uint256"
        },
        {
          "internalType": "uint256",
          "name": "count",
          "type": "uint256"
        },
        {
          "internalType": "uint256",
          "name": "maxAllowance",
          "type": "uint256"
        },
        {
          "internalType": "bytes32[]",
          "name": "proof",
          "type": "bytes32[]"
        }
      ],
      "name": "mintByTier",
      "outputs": [],
      "stateMutability": "payable",
      "type": "function"
    },
    {
      "inputs": [
        {
          "internalType": "address",
          "name": "minter",
          "type": "address"
        },
        {
          "internalType": "uint256",
          "name": "tierId",
          "type": "uint256"
        },
        {
          "internalType": "uint256",
          "name": "count",
          "type": "uint256"
        },
        {
          "internalType": "uint256",
          "name": "maxAllowance",
          "type": "uint256"
        },
        {
          "internalType": "bytes32[]",
          "name": "proof",
          "type": "bytes32[]"
        }
      ],
      "name": "mintByTierByRole",
      "outputs": [],
      "stateMutability": "payable",
      "type": "function"
    },
    {
      "inputs": [
        {
          "internalType": "uint256",
          "name": "tierId",
          "type": "uint256"
        },
        {
          "internalType": "address",
          "name": "minter",
          "type": "address"
        },
        {
          "internalType": "uint256",
          "name": "maxAllowance",
          "type": "uint256"
        },
        {
          "internalType": "bytes32[]",
          "name": "proof",
          "type": "bytes32[]"
        }
      ],
      "name": "onTierAllowlist",
      "outputs": [
        {
          "internalType": "bool",
          "name": "",
          "type": "bool"
        }
      ],
      "stateMutability": "view",
      "type": "function"
    },
    {
      "inputs": [
        {
          "internalType": "uint256",
          "name": "tierId",
          "type": "uint256"
        }
      ],
      "name": "remainingForTier",
      "outputs": [
        {
          "internalType": "uint256",
          "name": "",
          "type": "uint256"
        }
      ],
      "stateMutability": "view",
      "type": "function"
    },
    {
      "inputs": [],
      "name": "reservedMints",
      "outputs": [
        {
          "internalType": "uint256",
          "name": "",
          "type": "uint256"
        }
      ],
      "stateMutability": "view",
      "type": "function"
    },
    {
      "inputs": [
        {
          "internalType": "uint256",
          "name": "tierId",
          "type": "uint256"
        }
      ],
      "name": "tierMints",
      "outputs": [
        {
          "internalType": "uint256",
          "name": "",
          "type": "uint256"
        }
      ],
      "stateMutability": "view",
      "type": "function"
    },
    {
      "inputs": [
        {
          "internalType": "uint256",
          "name": "tierId",
          "type": "uint256"
        }
      ],
      "name": "tierToTokenId",
      "outputs": [
        {
          "internalType": "uint256",
          "name": "",
          "type": "uint256"
        }
      ],
      "stateMutability": "view",
      "type": "function"
    },
    {
      "inputs": [
        {
          "internalType": "uint256[]",
          "name": "tierIds",
          "type": "uint256[]"
        }
      ],
      "name": "tierToTokenId",
      "outputs": [
        {
          "internalType": "uint256[]",
          "name": "",
          "type": "uint256[]"
        }
      ],
      "stateMutability": "view",
      "type": "function"
    },
    {
      "inputs": [
        {
          "internalType": "uint256",
          "name": "tierId",
          "type": "uint256"
        }
      ],
      "name": "tiers",
      "outputs": [
        {
          "components": [
            {
              "internalType": "uint256",
              "name": "start",
              "type": "uint256"
            },
            {
              "internalType": "uint256",
              "name": "end",
              "type": "uint256"
            },
            {
              "internalType": "address",
              "name": "currency",
              "type": "address"
            },
            {
              "internalType": "uint256",
              "name": "price",
              "type": "uint256"
            },
            {
              "internalType": "uint256",
              "name": "maxPerWallet",
              "type": "uint256"
            },
            {
              "internalType": "bytes32",
              "name": "merkleRoot",
              "type": "bytes32"
            },
            {
              "internalType": "uint256",
              "name": "reserved",
              "type": "uint256"
            },
            {
              "internalType": "uint256",
              "name": "maxAllocation",
              "type": "uint256"
            }
          ],
          "internalType": "struct ITieredSalesInternal.Tier",
          "name": "",
          "type": "tuple"
        }
      ],
      "stateMutability": "view",
      "type": "function"
    },
    {
      "inputs": [],
      "name": "totalReserved",
      "outputs": [
        {
          "internalType": "uint256",
          "name": "",
          "type": "uint256"
        }
      ],
      "stateMutability": "view",
      "type": "function"
    },
    {
      "inputs": [
        {
          "internalType": "uint256",
          "name": "tierId",
          "type": "uint256"
        },
        {
          "internalType": "address",
          "name": "wallet",
          "type": "address"
        }
      ],
      "name": "walletMintedByTier",
      "outputs": [
        {
          "internalType": "uint256",
          "name": "",
          "type": "uint256"
        }
      ],
      "stateMutability": "view",
      "type": "function"
    }
  ],
  "transactionHash": "0x427cc05f479dd76507f0ff13e54b2e809b00d7d25119c1e0414bff959acdf72a",
  "args": [],
  "numDeployments": 4,
  "solcInputHash": "6d7305346279fbc69886e86585c3525d",
  "bytecode": "0x608060405234801561001057600080fd5b50611d31806100206000396000f3fe6080604052600436106100dd5760003560e01c80635897f8781161007f578063a217fddf11610059578063a217fddf14610356578063b3d358391461036b578063bd2c18f71461039f578063c71b0e1c146103bf57600080fd5b80635897f878146102f35780635ea2c91b1461031357806368c7d37c1461032657600080fd5b80632cb9b2ac116100bb5780632cb9b2ac14610231578063352a90bb1461026557806351607bf41461027a57806353367f08146102a757600080fd5b8063039af9eb146100e25780630b81f180146101755780631123f2ef146101cf575b600080fd5b3480156100ee57600080fd5b506101026100fd3660046118e5565b6103f3565b60405161016c919060006101008201905082518252602083015160208301526001600160a01b036040840151166040830152606083015160608301526080830151608083015260a083015160a083015260c083015160c083015260e083015160e083015292915050565b60405180910390f35b34801561018157600080fd5b506101c16101903660046118e5565b60009081527f46f908971db3fbea57e8a21b2e54575e0e567ff2f950ead3c0dc83f15ec67154602052604090205490565b60405190815260200161016c565b3480156101db57600080fd5b506101c16101ea36600461191a565b60009182527fb7471df0c7246ed3d4a380504edfbb03f5845b709c7716243791636e4ba46cbf602090815260408084206001600160a01b0393909316845291905290205490565b34801561023d57600080fd5b507fb7471df0c7246ed3d4a380504edfbb03f5845b709c7716243791636e4ba46cbc546101c1565b610278610273366004611992565b6104dd565b005b34801561028657600080fd5b5061029a610295366004611a03565b6106a3565b60405161016c9190611a45565b3480156102b357600080fd5b506101c16102c23660046118e5565b60009081527fb7471df0c7246ed3d4a380504edfbb03f5845b709c7716243791636e4ba46cbe602052604090205490565b3480156102ff57600080fd5b506101c161030e3660046118e5565b610779565b610278610321366004611a89565b6107f0565b34801561033257600080fd5b50610346610341366004611aea565b61098b565b604051901515815260200161016c565b34801561036257600080fd5b506101c1600081565b34801561037757600080fd5b506101c17f3c4a2d89ed8b4cf4347fec87df1c38410f8fc538bf9fd64c10f2717bc0feff3681565b3480156103ab57600080fd5b506101c16103ba366004611aea565b6109a4565b3480156103cb57600080fd5b507fb7471df0c7246ed3d4a380504edfbb03f5845b709c7716243791636e4ba46cbb546101c1565b610447604051806101000160405280600081526020016000815260200160006001600160a01b0316815260200160008152602001600081526020016000801916815260200160008152602001600081525090565b5060009081527fb7471df0c7246ed3d4a380504edfbb03f5845b709c7716243791636e4ba46cbd60209081526040918290208251610100810184528154815260018201549281019290925260028101546001600160a01b0316928201929092526003820154606082015260048201546080820152600582015460a0820152600682015460c082015260079091015460e082015290565b60027f3d9e0cf98d8ac76a756d900415e06fbccac0f9e61251a384452695e2330be6e054036105535760405162461bcd60e51b815260206004820152601f60248201527f5265656e7472616e637947756172643a207265656e7472616e742063616c6c0060448201526064015b60405180910390fd5b60027f3d9e0cf98d8ac76a756d900415e06fbccac0f9e61251a384452695e2330be6e0557f3c4a2d89ed8b4cf4347fec87df1c38410f8fc538bf9fd64c10f2717bc0feff366105a1816109d7565b6105af8787878787876109eb565b3063b164884b887f46f908971db3fbea57e8a21b2e54575e0e567ff2f950ead3c0dc83f15ec6715460008a815260209190915260408082205490517fffffffff0000000000000000000000000000000000000000000000000000000060e086901b1681526001600160a01b03909316600484015260248301526044820189905260806064830152608482015260a401600060405180830381600087803b15801561065857600080fd5b505af115801561066c573d6000803e3d6000fd5b5050505050600161069a7f3d9e0cf98d8ac76a756d900415e06fbccac0f9e61251a384452695e2330be6e090565b55505050505050565b606060008267ffffffffffffffff8111156106c0576106c0611b35565b6040519080825280602002602001820160405280156106e9578160200160208202803683370190505b50905060005b83811015610771577f46f908971db3fbea57e8a21b2e54575e0e567ff2f950ead3c0dc83f15ec67154600086868481811061072c5761072c611b4b565b9050602002013581526020019081526020016000205482828151811061075457610754611b4b565b60209081029190910101528061076981611b77565b9150506106ef565b509392505050565b60007fb7471df0c7246ed3d4a380504edfbb03f5845b709c7716243791636e4ba46cbb816107a684610c2f565b60008581526003840160209081526040808320546002870190925282206007015492935090916107d69190611b90565b9050808210156107e857509392505050565b949350505050565b60027f3d9e0cf98d8ac76a756d900415e06fbccac0f9e61251a384452695e2330be6e054036108615760405162461bcd60e51b815260206004820152601f60248201527f5265656e7472616e637947756172643a207265656e7472616e742063616c6c00604482015260640161054a565b60027f3d9e0cf98d8ac76a756d900415e06fbccac0f9e61251a384452695e2330be6e0556108928585858585610cee565b3063b164884b6108a0611089565b7f46f908971db3fbea57e8a21b2e54575e0e567ff2f950ead3c0dc83f15ec67154600089815260209190915260408082205490517fffffffff0000000000000000000000000000000000000000000000000000000060e086901b1681526001600160a01b03909316600484015260248301526044820188905260806064830152608482015260a401600060405180830381600087803b15801561094257600080fd5b505af1158015610956573d6000803e3d6000fd5b5050505060016109837f3d9e0cf98d8ac76a756d900415e06fbccac0f9e61251a384452695e2330be6e090565b555050505050565b600061099a8686868686611098565b9695505050505050565b600061099a8686868686611154565b7fb7471df0c7246ed3d4a380504edfbb03f5845b709c7716243791636e4ba46cbb90565b6109e8816109e3611089565b611426565b50565b60006109fa8688868686611154565b90507fb7471df0c7246ed3d4a380504edfbb03f5845b709c7716243791636e4ba46cbb81861115610a6d5760405162461bcd60e51b815260206004820152600b60248201527f455843454544535f4d4158000000000000000000000000000000000000000000604482015260640161054a565b610a7687610c2f565b861115610ac55760405162461bcd60e51b815260206004820152600e60248201527f455843454544535f535550504c59000000000000000000000000000000000000604482015260640161054a565b60008781526002820160209081526040808320600701546003850190925290912054610af19088611ba7565b1115610b3f5760405162461bcd60e51b815260206004820152601260248201527f455843454544535f414c4c4f434154494f4e0000000000000000000000000000604482015260640161054a565b600087815260048201602090815260408083206001600160a01b038c16845290915281208054889290610b73908490611ba7565b9091555050600087815260038201602052604081208054889290610b98908490611ba7565b9091555050600087815260028201602052604090206006015415610bd05785816001016000828254610bca9190611ba7565b90915550505b876001600160a01b0316610be2611089565b6001600160a01b0316887f6b995c2a6f13fda3bb1769289588283f7687b909bdceba7789276ad33ad422f789604051610c1d91815260200190565b60405180910390a45050505050505050565b7fb7471df0c7246ed3d4a380504edfbb03f5845b709c7716243791636e4ba46cbc547fb7471df0c7246ed3d4a380504edfbb03f5845b709c7716243791636e4ba46cbb8054600092610c8091611b90565b610c89846114be565b610c939190611b90565b600084815260028301602052604090206006015490925015610ce85760008381526003820160209081526040808320546002850190925290912060060154610cdb9190611b90565b610ce59083611ba7565b91505b50919050565b6000610cf8611089565b90506000610d098783878787611154565b90507fb7471df0c7246ed3d4a380504edfbb03f5845b709c7716243791636e4ba46cbb81871115610d7c5760405162461bcd60e51b815260206004820152600b60248201527f455843454544535f4d4158000000000000000000000000000000000000000000604482015260640161054a565b610d8588610c2f565b871115610dd45760405162461bcd60e51b815260206004820152600e60248201527f455843454544535f535550504c59000000000000000000000000000000000000604482015260640161054a565b60008881526002820160209081526040808320600701546003850190925290912054610e009089611ba7565b1115610e4e5760405162461bcd60e51b815260206004820152601260248201527f455843454544535f414c4c4f434154494f4e0000000000000000000000000000604482015260640161054a565b60008881526002808301602052604090912001546001600160a01b0316610ee35760008881526002820160205260409020600301543490610e90908990611bbf565b1115610ede5760405162461bcd60e51b815260206004820152601360248201527f494e53554646494349454e545f414d4f554e5400000000000000000000000000604482015260640161054a565b610fb2565b600088815260028083016020526040909120908101546003909101546001600160a01b03909116906323b872dd9085903090610f20908c90611bbf565b6040517fffffffff0000000000000000000000000000000000000000000000000000000060e086901b1681526001600160a01b03938416600482015292909116602483015260448201526064016020604051808303816000875af1158015610f8c573d6000803e3d6000fd5b505050506040513d601f19601f82011682018060405250810190610fb09190611bde565b505b600088815260048201602090815260408083206001600160a01b038716845290915281208054899290610fe6908490611ba7565b909155505060008881526003820160205260408120805489929061100b908490611ba7565b9091555050600088815260028201602052604090206006015415611043578681600101600082825461103d9190611ba7565b90915550505b826001600160a01b0316836001600160a01b0316897f6b995c2a6f13fda3bb1769289588283f7687b909bdceba7789276ad33ad422f78a604051610c1d91815260200190565b60006110936115c9565b905090565b600061099a8383808060200260200160405190810160405280939291908181526020018383602002808284376000920191909152506110da92506109b3915050565b6000898152600291909101602052604090206005015461114f88886040517fffffffffffffffffffffffffffffffffffffffff000000000000000000000000606084901b1660208201526034810182905260009060540160405160208183030381529060405280519060200120905092915050565b61160f565b60008581527fb7471df0c7246ed3d4a380504edfbb03f5845b709c7716243791636e4ba46cbd60205260408120600401547fb7471df0c7246ed3d4a380504edfbb03f5845b709c7716243791636e4ba46cbb906111f35760405162461bcd60e51b815260206004820152600a60248201527f4e4f545f45584953545300000000000000000000000000000000000000000000604482015260640161054a565b60008781526002820160205260409020544210156112535760405162461bcd60e51b815260206004820152600b60248201527f4e4f545f53544152544544000000000000000000000000000000000000000000604482015260640161054a565b60008781526002820160205260409020600101544211156112b65760405162461bcd60e51b815260206004820152600d60248201527f414c52454144595f454e44454400000000000000000000000000000000000000604482015260640161054a565b60008781526004808301602090815260408084206001600160a01b038b1685528252808420548b85526002860190925290922001546112f59190611b90565b60008881526002830160205260409020600501549092501561141c57600087815260048201602090815260408083206001600160a01b038a16845290915290205485116113845760405162461bcd60e51b815260206004820152600f60248201527f4d415845445f414c4c4f57414e43450000000000000000000000000000000000604482015260640161054a565b6113918787878787611098565b6113dd5760405162461bcd60e51b815260206004820152600f60248201527f4e4f545f414c4c4f574c49535445440000000000000000000000000000000000604482015260640161054a565b600087815260048201602090815260408083206001600160a01b038a16845290915281205461140c9087611b90565b90508083111561141a578092505b505b5095945050505050565b60008281527f2e59e4c2e927cdddbb64e181e0668d9a0fa70dd88f94d999cd87d5496a20da62602090815260408083206001600160a01b038516845290915290205460ff166114ba5761147881611625565b611483836020611641565b604051602001611494929190611c30565b60408051601f198184030181529082905262461bcd60e51b825261054a91600401611cb1565b5050565b7f744f4bd40000000000000000000000000000000000000000000000000000000060009081527fff923f4a67695a9cdd5da4b8580a5a20edf2183c42aa111dd7fc15dc7bed26406020527f35d3cc196fdbb37c639d9ccf02c0ac54b3a84c388495dbf9ab724144133fc6255460ff1661153a5750600019919050565b60008281527f46f908971db3fbea57e8a21b2e54575e0e567ff2f950ead3c0dc83f15ec6715460209081526040808320548084527f7056dcda885936c7a9d7c6385902b4ab5fb09024caea98652b7189a5f7a28ea58352818420547f7056dcda885936c7a9d7c6385902b4ab5fb09024caea98652b7189a5f7a28ea6909352908320549092916107e891611b90565b7fdb1d5e345c4903e9a32b6674ecc8b1deaddbbb2551474fb34c9d34becbe7f420546000906001600160a01b0316330361160a575060131936013560601c90565b503390565b60008261161c8584611871565b14949350505050565b606061163b6001600160a01b0383166014611641565b92915050565b60606000611650836002611bbf565b61165b906002611ba7565b67ffffffffffffffff81111561167357611673611b35565b6040519080825280601f01601f19166020018201604052801561169d576020820181803683370190505b5090507f3000000000000000000000000000000000000000000000000000000000000000816000815181106116d4576116d4611b4b565b60200101907effffffffffffffffffffffffffffffffffffffffffffffffffffffffffffff1916908160001a9053507f78000000000000000000000000000000000000000000000000000000000000008160018151811061173757611737611b4b565b60200101907effffffffffffffffffffffffffffffffffffffffffffffffffffffffffffff1916908160001a9053506000611773846002611bbf565b61177e906001611ba7565b90505b600181111561181b577f303132333435363738396162636465660000000000000000000000000000000085600f16601081106117bf576117bf611b4b565b1a60f81b8282815181106117d5576117d5611b4b565b60200101907effffffffffffffffffffffffffffffffffffffffffffffffffffffffffffff1916908160001a90535060049490941c9361181481611ce4565b9050611781565b50831561186a5760405162461bcd60e51b815260206004820181905260248201527f537472696e67733a20686578206c656e67746820696e73756666696369656e74604482015260640161054a565b9392505050565b600081815b8451811015610771576118a28286838151811061189557611895611b4b565b60200260200101516118b6565b9150806118ae81611b77565b915050611876565b60008183106118d257600082815260208490526040902061186a565b600083815260208390526040902061186a565b6000602082840312156118f757600080fd5b5035919050565b80356001600160a01b038116811461191557600080fd5b919050565b6000806040838503121561192d57600080fd5b8235915061193d602084016118fe565b90509250929050565b60008083601f84011261195857600080fd5b50813567ffffffffffffffff81111561197057600080fd5b6020830191508360208260051b850101111561198b57600080fd5b9250929050565b60008060008060008060a087890312156119ab57600080fd5b6119b4876118fe565b9550602087013594506040870135935060608701359250608087013567ffffffffffffffff8111156119e557600080fd5b6119f189828a01611946565b979a9699509497509295939492505050565b60008060208385031215611a1657600080fd5b823567ffffffffffffffff811115611a2d57600080fd5b611a3985828601611946565b90969095509350505050565b6020808252825182820181905260009190848201906040850190845b81811015611a7d57835183529284019291840191600101611a61565b50909695505050505050565b600080600080600060808688031215611aa157600080fd5b853594506020860135935060408601359250606086013567ffffffffffffffff811115611acd57600080fd5b611ad988828901611946565b969995985093965092949392505050565b600080600080600060808688031215611b0257600080fd5b85359450611b12602087016118fe565b935060408601359250606086013567ffffffffffffffff811115611acd57600080fd5b634e487b7160e01b600052604160045260246000fd5b634e487b7160e01b600052603260045260246000fd5b634e487b7160e01b600052601160045260246000fd5b600060018201611b8957611b89611b61565b5060010190565b600082821015611ba257611ba2611b61565b500390565b60008219821115611bba57611bba611b61565b500190565b6000816000190483118215151615611bd957611bd9611b61565b500290565b600060208284031215611bf057600080fd5b8151801515811461186a57600080fd5b60005b83811015611c1b578181015183820152602001611c03565b83811115611c2a576000848401525b50505050565b7f416363657373436f6e74726f6c3a206163636f756e7420000000000000000000815260008351611c68816017850160208801611c00565b7f206973206d697373696e6720726f6c65200000000000000000000000000000006017918401918201528351611ca5816028840160208801611c00565b01602801949350505050565b6020815260008251806020840152611cd0816040850160208701611c00565b601f01601f19169190910160400192915050565b600081611cf357611cf3611b61565b50600019019056fea2646970667358221220eca937c1197043369b44db817fe752bbc4e5f820c20886d4010c138470640aea64736f6c634300080f0033",
  "devdoc": {
    "details": "Tiered Sales facet for ERC1155 with meta-transactions support via ERC2771",
    "kind": "dev",
    "methods": {},
    "version": 1
  },
  "userdoc": {
    "kind": "user",
    "methods": {},
    "version": 1
  },
  "storageLayout": {
    "storage": [],
    "types": null
  }
}