{
  "address": "0xFADbF74931C8a1eD22e80b390524A83717161eAe",
  "abi": [
    {
      "anonymous": false,
      "inputs": [
        {
          "indexed": true,
          "internalType": "bytes32",
          "name": "role",
          "type": "bytes32"
        },
        {
          "indexed": true,
          "internalType": "bytes32",
          "name": "previousAdminRole",
          "type": "bytes32"
        },
        {
          "indexed": true,
          "internalType": "bytes32",
          "name": "newAdminRole",
          "type": "bytes32"
        }
      ],
      "name": "RoleAdminChanged",
      "type": "event"
    },
    {
      "anonymous": false,
      "inputs": [
        {
          "indexed": true,
          "internalType": "bytes32",
          "name": "role",
          "type": "bytes32"
        },
        {
          "indexed": true,
          "internalType": "address",
          "name": "account",
          "type": "address"
        },
        {
          "indexed": true,
          "internalType": "address",
          "name": "sender",
          "type": "address"
        }
      ],
      "name": "RoleGranted",
      "type": "event"
    },
    {
      "anonymous": false,
      "inputs": [
        {
          "indexed": true,
          "internalType": "bytes32",
          "name": "role",
          "type": "bytes32"
        },
        {
          "indexed": true,
          "internalType": "address",
          "name": "account",
          "type": "address"
        },
        {
          "indexed": true,
          "internalType": "address",
          "name": "sender",
          "type": "address"
        }
      ],
      "name": "RoleRevoked",
      "type": "event"
    },
    {
      "inputs": [],
      "name": "DEFAULT_ADMIN_ROLE",
      "outputs": [
        {
          "internalType": "bytes32",
          "name": "",
          "type": "bytes32"
        }
      ],
      "stateMutability": "view",
      "type": "function"
    },
    {
      "inputs": [],
      "name": "MINTER_ROLE",
      "outputs": [
        {
          "internalType": "bytes32",
          "name": "",
          "type": "bytes32"
        }
      ],
      "stateMutability": "view",
      "type": "function"
    },
    {
      "inputs": [
        {
          "internalType": "address",
          "name": "to",
          "type": "address"
        },
        {
          "internalType": "uint256",
          "name": "amount",
          "type": "uint256"
        }
      ],
      "name": "mintByRole",
      "outputs": [],
      "stateMutability": "nonpayable",
      "type": "function"
    },
    {
      "inputs": [
        {
          "internalType": "address[]",
          "name": "tos",
          "type": "address[]"
        },
        {
          "internalType": "uint256[]",
          "name": "amounts",
          "type": "uint256[]"
        }
      ],
      "name": "mintByRole",
      "outputs": [],
      "stateMutability": "nonpayable",
      "type": "function"
    }
  ],
  "transactionHash": "0x8b2bac5148cc207f6b60c1dbef9ec5c97c6e2210f7b13074652b6cc9a5f78cd9",
  "args": [],
  "numDeployments": 1,
  "solcInputHash": "e2f42af2f5273c7308f3825761226b47",
  "bytecode": "0x608060405234801561001057600080fd5b506108ee806100206000396000f3fe608060405234801561001057600080fd5b506004361061004c5760003560e01c80631a056e7114610051578063a217fddf14610066578063b9a47ff214610080578063d539139314610093575b600080fd5b61006461005f3660046105ba565b6100ba565b005b61006e600081565b60405190815260200160405180910390f35b61006461008e366004610630565b61016f565b61006e7f9f2df0fed2c77648de5860a4cc508cd0818c85b8b8a1ab4ceeef8d981c8956a681565b7f9f2df0fed2c77648de5860a4cc508cd0818c85b8b8a1ab4ceeef8d981c8956a66100e481610214565b6040517f2d4f475f00000000000000000000000000000000000000000000000000000000815273ffffffffffffffffffffffffffffffffffffffff84166004820152602481018390523090632d4f475f90604401600060405180830381600087803b15801561015257600080fd5b505af1158015610166573d6000803e3d6000fd5b50505050505050565b7f9f2df0fed2c77648de5860a4cc508cd0818c85b8b8a1ab4ceeef8d981c8956a661019981610214565b6040517f49142a1400000000000000000000000000000000000000000000000000000000815230906349142a14906101db90889088908890889060040161069c565b600060405180830381600087803b1580156101f557600080fd5b505af1158015610209573d6000803e3d6000fd5b505050505050505050565b61022581610220610228565b610237565b50565b60006102326102e5565b905090565b60008281527f2e59e4c2e927cdddbb64e181e0668d9a0fa70dd88f94d999cd87d5496a20da626020908152604080832073ffffffffffffffffffffffffffffffffffffffff8516845290915290205460ff166102e15761029681610338565b6102a1836020610361565b6040516020016102b2929190610774565b60408051601f198184030181529082905262461bcd60e51b82526102d8916004016107f5565b60405180910390fd5b5050565b7fdb1d5e345c4903e9a32b6674ecc8b1deaddbbb2551474fb34c9d34becbe7f4205460009073ffffffffffffffffffffffffffffffffffffffff163303610333575060131936013560601c90565b503390565b606061035b73ffffffffffffffffffffffffffffffffffffffff83166014610361565b92915050565b6060600061037083600261083e565b61037b90600261085d565b67ffffffffffffffff81111561039357610393610875565b6040519080825280601f01601f1916602001820160405280156103bd576020820181803683370190505b5090507f3000000000000000000000000000000000000000000000000000000000000000816000815181106103f4576103f461088b565b60200101907effffffffffffffffffffffffffffffffffffffffffffffffffffffffffffff1916908160001a9053507f7800000000000000000000000000000000000000000000000000000000000000816001815181106104575761045761088b565b60200101907effffffffffffffffffffffffffffffffffffffffffffffffffffffffffffff1916908160001a905350600061049384600261083e565b61049e90600161085d565b90505b600181111561053b577f303132333435363738396162636465660000000000000000000000000000000085600f16601081106104df576104df61088b565b1a60f81b8282815181106104f5576104f561088b565b60200101907effffffffffffffffffffffffffffffffffffffffffffffffffffffffffffff1916908160001a90535060049490941c93610534816108a1565b90506104a1565b50831561058a5760405162461bcd60e51b815260206004820181905260248201527f537472696e67733a20686578206c656e67746820696e73756666696369656e7460448201526064016102d8565b9392505050565b803573ffffffffffffffffffffffffffffffffffffffff811681146105b557600080fd5b919050565b600080604083850312156105cd57600080fd5b6105d683610591565b946020939093013593505050565b60008083601f8401126105f657600080fd5b50813567ffffffffffffffff81111561060e57600080fd5b6020830191508360208260051b850101111561062957600080fd5b9250929050565b6000806000806040858703121561064657600080fd5b843567ffffffffffffffff8082111561065e57600080fd5b61066a888389016105e4565b9096509450602087013591508082111561068357600080fd5b50610690878288016105e4565b95989497509550505050565b6040808252810184905260008560608301825b878110156106ea5773ffffffffffffffffffffffffffffffffffffffff6106d584610591565b168252602092830192909101906001016106af565b5083810360208501528481527f07ffffffffffffffffffffffffffffffffffffffffffffffffffffffffffffff85111561072357600080fd5b8460051b915081866020830137600091016020019081529695505050505050565b60005b8381101561075f578181015183820152602001610747565b8381111561076e576000848401525b50505050565b7f416363657373436f6e74726f6c3a206163636f756e74200000000000000000008152600083516107ac816017850160208801610744565b7f206973206d697373696e6720726f6c652000000000000000000000000000000060179184019182015283516107e9816028840160208801610744565b01602801949350505050565b6020815260008251806020840152610814816040850160208701610744565b601f01601f19169190910160400192915050565b634e487b7160e01b600052601160045260246000fd5b600081600019048311821515161561085857610858610828565b500290565b6000821982111561087057610870610828565b500190565b634e487b7160e01b600052604160045260246000fd5b634e487b7160e01b600052603260045260246000fd5b6000816108b0576108b0610828565b50600019019056fea2646970667358221220f3550966221b19aec12e2b38d94af27736bbec6d09a03b998fc2d1d43a2cc6b664736f6c634300080f0033",
  "devdoc": {
    "custom:category": "Tokens",
    "custom:provides-interfaces": "IERC20MintableRoleBased",
    "custom:required-dependencies": "IERC20MintableExtension",
    "custom:type": "eip-2535-facet",
    "kind": "dev",
    "methods": {
      "mintByRole(address,uint256)": {
        "details": "Creates `amount` new tokens for `to`, of token type `id`. See {ERC20-_mint}. Requirements: - the caller must have MINTER_ROLE."
      }
    },
    "title": "ERC20 - Mint as role - with meta-transactions",
    "version": 1
  },
  "userdoc": {
    "kind": "user",
    "methods": {},
    "notice": "Allow minting for senders with MINTER_ROLE to mint new tokens with meta-transactions supported via ERC2771 (supports ERC20A).",
    "version": 1
  },
  "storageLayout": {
    "storage": [],
    "types": null
  }
}