{
  "address": "0xB19105DfCC8CF80240e86aC7F2CFa9264D6167a8",
  "abi": [
    {
      "inputs": [
        {
          "components": [
            {
              "internalType": "string",
              "name": "name",
              "type": "string"
            },
            {
              "internalType": "string",
              "name": "symbol",
              "type": "string"
            },
            {
              "internalType": "string",
              "name": "contractURI",
              "type": "string"
            },
            {
              "internalType": "string",
              "name": "placeholderURI",
              "type": "string"
            },
            {
              "internalType": "string",
              "name": "tokenURIPrefix",
              "type": "string"
            },
            {
              "internalType": "uint256",
              "name": "maxSupply",
              "type": "uint256"
            },
            {
              "internalType": "uint256",
              "name": "preSalePrice",
              "type": "uint256"
            },
            {
              "internalType": "uint256",
              "name": "preSaleMaxMintPerWallet",
              "type": "uint256"
            },
            {
              "internalType": "uint256",
              "name": "publicSalePrice",
              "type": "uint256"
            },
            {
              "internalType": "uint256",
              "name": "publicSaleMaxMintPerTx",
              "type": "uint256"
            },
            {
              "internalType": "address",
              "name": "defaultRoyaltyAddress",
              "type": "address"
            },
            {
              "internalType": "uint16",
              "name": "defaultRoyaltyBps",
              "type": "uint16"
            },
            {
              "internalType": "address",
              "name": "proceedsRecipient",
              "type": "address"
            },
            {
              "internalType": "address",
              "name": "trustedForwarder",
              "type": "address"
            },
            {
              "internalType": "enum LicenseVersion",
              "name": "licenseVersion",
              "type": "uint8"
            }
          ],
          "internalType": "struct ERC721ASimpleSalesCollection.Config",
          "name": "config",
          "type": "tuple"
        }
      ],
      "stateMutability": "nonpayable",
      "type": "constructor"
    },
    {
      "inputs": [],
      "name": "ApprovalCallerNotOwnerNorApproved",
      "type": "error"
    },
    {
      "inputs": [],
      "name": "ApprovalQueryForNonexistentToken",
      "type": "error"
    },
    {
      "inputs": [],
      "name": "ApproveToCaller",
      "type": "error"
    },
    {
      "inputs": [],
      "name": "BalanceQueryForZeroAddress",
      "type": "error"
    },
    {
      "inputs": [],
      "name": "MintERC2309QuantityExceedsLimit",
      "type": "error"
    },
    {
      "inputs": [],
      "name": "MintToZeroAddress",
      "type": "error"
    },
    {
      "inputs": [],
      "name": "MintZeroQuantity",
      "type": "error"
    },
    {
      "inputs": [],
      "name": "OwnerQueryForNonexistentToken",
      "type": "error"
    },
    {
      "inputs": [],
      "name": "OwnershipNotInitializedForExtraData",
      "type": "error"
    },
    {
      "inputs": [],
      "name": "TransferCallerNotOwnerNorApproved",
      "type": "error"
    },
    {
      "inputs": [],
      "name": "TransferFromIncorrectOwner",
      "type": "error"
    },
    {
      "inputs": [],
      "name": "TransferToNonERC721ReceiverImplementer",
      "type": "error"
    },
    {
      "inputs": [],
      "name": "TransferToZeroAddress",
      "type": "error"
    },
    {
      "inputs": [],
      "name": "URIQueryForNonexistentToken",
      "type": "error"
    },
    {
      "anonymous": false,
      "inputs": [
        {
          "indexed": true,
          "internalType": "address",
          "name": "owner",
          "type": "address"
        },
        {
          "indexed": true,
          "internalType": "address",
          "name": "approved",
          "type": "address"
        },
        {
          "indexed": true,
          "internalType": "uint256",
          "name": "tokenId",
          "type": "uint256"
        }
      ],
      "name": "Approval",
      "type": "event"
    },
    {
      "anonymous": false,
      "inputs": [
        {
          "indexed": true,
          "internalType": "address",
          "name": "owner",
          "type": "address"
        },
        {
          "indexed": true,
          "internalType": "address",
          "name": "operator",
          "type": "address"
        },
        {
          "indexed": false,
          "internalType": "bool",
          "name": "approved",
          "type": "bool"
        }
      ],
      "name": "ApprovalForAll",
      "type": "event"
    },
    {
      "anonymous": false,
      "inputs": [
        {
          "indexed": true,
          "internalType": "uint256",
          "name": "fromTokenId",
          "type": "uint256"
        },
        {
          "indexed": false,
          "internalType": "uint256",
          "name": "toTokenId",
          "type": "uint256"
        },
        {
          "indexed": true,
          "internalType": "address",
          "name": "from",
          "type": "address"
        },
        {
          "indexed": true,
          "internalType": "address",
          "name": "to",
          "type": "address"
        }
      ],
      "name": "ConsecutiveTransfer",
      "type": "event"
    },
    {
      "anonymous": false,
      "inputs": [
        {
          "indexed": false,
          "internalType": "address",
          "name": "recipient",
          "type": "address"
        },
        {
          "indexed": false,
          "internalType": "uint16",
          "name": "bps",
          "type": "uint16"
        }
      ],
      "name": "DefaultRoyaltySet",
      "type": "event"
    },
    {
      "anonymous": false,
      "inputs": [
        {
          "indexed": false,
          "internalType": "uint8",
          "name": "version",
          "type": "uint8"
        }
      ],
      "name": "Initialized",
      "type": "event"
    },
    {
      "anonymous": false,
      "inputs": [
        {
          "indexed": true,
          "internalType": "address",
          "name": "previousOwner",
          "type": "address"
        },
        {
          "indexed": true,
          "internalType": "address",
          "name": "newOwner",
          "type": "address"
        }
      ],
      "name": "OwnershipTransferred",
      "type": "event"
    },
    {
      "anonymous": false,
      "inputs": [
        {
          "indexed": true,
          "internalType": "bytes32",
          "name": "role",
          "type": "bytes32"
        },
        {
          "indexed": true,
          "internalType": "bytes32",
          "name": "previousAdminRole",
          "type": "bytes32"
        },
        {
          "indexed": true,
          "internalType": "bytes32",
          "name": "newAdminRole",
          "type": "bytes32"
        }
      ],
      "name": "RoleAdminChanged",
      "type": "event"
    },
    {
      "anonymous": false,
      "inputs": [
        {
          "indexed": true,
          "internalType": "bytes32",
          "name": "role",
          "type": "bytes32"
        },
        {
          "indexed": true,
          "internalType": "address",
          "name": "account",
          "type": "address"
        },
        {
          "indexed": true,
          "internalType": "address",
          "name": "sender",
          "type": "address"
        }
      ],
      "name": "RoleGranted",
      "type": "event"
    },
    {
      "anonymous": false,
      "inputs": [
        {
          "indexed": true,
          "internalType": "bytes32",
          "name": "role",
          "type": "bytes32"
        },
        {
          "indexed": true,
          "internalType": "address",
          "name": "account",
          "type": "address"
        },
        {
          "indexed": true,
          "internalType": "address",
          "name": "sender",
          "type": "address"
        }
      ],
      "name": "RoleRevoked",
      "type": "event"
    },
    {
      "anonymous": false,
      "inputs": [
        {
          "indexed": false,
          "internalType": "uint256",
          "name": "tokenId",
          "type": "uint256"
        }
      ],
      "name": "TokenRoyaltyRemoved",
      "type": "event"
    },
    {
      "anonymous": false,
      "inputs": [
        {
          "indexed": false,
          "internalType": "uint256",
          "name": "tokenId",
          "type": "uint256"
        },
        {
          "indexed": false,
          "internalType": "address",
          "name": "recipient",
          "type": "address"
        },
        {
          "indexed": false,
          "internalType": "uint16",
          "name": "bps",
          "type": "uint16"
        }
      ],
      "name": "TokenRoyaltySet",
      "type": "event"
    },
    {
      "anonymous": false,
      "inputs": [
        {
          "indexed": true,
          "internalType": "address",
          "name": "from",
          "type": "address"
        },
        {
          "indexed": true,
          "internalType": "address",
          "name": "to",
          "type": "address"
        },
        {
          "indexed": true,
          "internalType": "uint256",
          "name": "tokenId",
          "type": "uint256"
        }
      ],
      "name": "Transfer",
      "type": "event"
    },
    {
      "anonymous": false,
      "inputs": [],
      "name": "WithdrawPowerRevoked",
      "type": "event"
    },
    {
      "anonymous": false,
      "inputs": [
        {
          "indexed": false,
          "internalType": "address[]",
          "name": "claimTokens",
          "type": "address[]"
        },
        {
          "indexed": false,
          "internalType": "uint256[]",
          "name": "amounts",
          "type": "uint256[]"
        }
      ],
      "name": "Withdrawn",
      "type": "event"
    },
    {
      "inputs": [],
      "name": "DEFAULT_ADMIN_ROLE",
      "outputs": [
        {
          "internalType": "bytes32",
          "name": "",
          "type": "bytes32"
        }
      ],
      "stateMutability": "view",
      "type": "function"
    },
    {
      "inputs": [],
      "name": "LOCKER_ROLE",
      "outputs": [
        {
          "internalType": "bytes32",
          "name": "",
          "type": "bytes32"
        }
      ],
      "stateMutability": "view",
      "type": "function"
    },
    {
      "inputs": [],
      "name": "MINTER_ROLE",
      "outputs": [
        {
          "internalType": "bytes32",
          "name": "",
          "type": "bytes32"
        }
      ],
      "stateMutability": "view",
      "type": "function"
    },
    {
      "inputs": [],
      "name": "_trustedForwarder",
      "outputs": [
        {
          "internalType": "address",
          "name": "",
          "type": "address"
        }
      ],
      "stateMutability": "view",
      "type": "function"
    },
    {
      "inputs": [
        {
          "internalType": "address",
          "name": "to",
          "type": "address"
        },
        {
          "internalType": "uint256",
          "name": "tokenId",
          "type": "uint256"
        }
      ],
      "name": "approve",
      "outputs": [],
      "stateMutability": "nonpayable",
      "type": "function"
    },
    {
      "inputs": [
        {
          "internalType": "address",
          "name": "owner",
          "type": "address"
        }
      ],
      "name": "balanceOf",
      "outputs": [
        {
          "internalType": "uint256",
          "name": "",
          "type": "uint256"
        }
      ],
      "stateMutability": "view",
      "type": "function"
    },
    {
      "inputs": [],
      "name": "contractURI",
      "outputs": [
        {
          "internalType": "string",
          "name": "",
          "type": "string"
        }
      ],
      "stateMutability": "view",
      "type": "function"
    },
    {
      "inputs": [],
      "name": "defaultRoyalty",
      "outputs": [
        {
          "internalType": "address",
          "name": "recipient",
          "type": "address"
        },
        {
          "internalType": "uint16",
          "name": "bps",
          "type": "uint16"
        }
      ],
      "stateMutability": "view",
      "type": "function"
    },
    {
      "inputs": [
        {
          "internalType": "uint256[]",
          "name": "ticketTokenIds",
          "type": "uint256[]"
        }
      ],
      "name": "filterUnlocked",
      "outputs": [
        {
          "internalType": "uint256[]",
          "name": "",
          "type": "uint256[]"
        }
      ],
      "stateMutability": "view",
      "type": "function"
    },
    {
      "inputs": [],
      "name": "freezeMaxSupply",
      "outputs": [],
      "stateMutability": "nonpayable",
      "type": "function"
    },
    {
      "inputs": [],
      "name": "freezeTokenURI",
      "outputs": [],
      "stateMutability": "nonpayable",
      "type": "function"
    },
    {
      "inputs": [
        {
          "internalType": "uint256",
          "name": "tokenId",
          "type": "uint256"
        }
      ],
      "name": "getApproved",
      "outputs": [
        {
          "internalType": "address",
          "name": "",
          "type": "address"
        }
      ],
      "stateMutability": "view",
      "type": "function"
    },
    {
      "inputs": [],
      "name": "getLicenseName",
      "outputs": [
        {
          "internalType": "string",
          "name": "",
          "type": "string"
        }
      ],
      "stateMutability": "view",
      "type": "function"
    },
    {
      "inputs": [],
      "name": "getLicenseURI",
      "outputs": [
        {
          "internalType": "string",
          "name": "",
          "type": "string"
        }
      ],
      "stateMutability": "view",
      "type": "function"
    },
    {
      "inputs": [
        {
          "internalType": "uint256",
          "name": "id",
          "type": "uint256"
        }
      ],
      "name": "getRaribleV2Royalties",
      "outputs": [
        {
          "components": [
            {
              "internalType": "address payable",
              "name": "account",
              "type": "address"
            },
            {
              "internalType": "uint96",
              "name": "value",
              "type": "uint96"
            }
          ],
          "internalType": "struct LibPart.Part[]",
          "name": "result",
          "type": "tuple[]"
        }
      ],
      "stateMutability": "view",
      "type": "function"
    },
    {
      "inputs": [
        {
          "internalType": "bytes32",
          "name": "role",
          "type": "bytes32"
        }
      ],
      "name": "getRoleAdmin",
      "outputs": [
        {
          "internalType": "bytes32",
          "name": "",
          "type": "bytes32"
        }
      ],
      "stateMutability": "view",
      "type": "function"
    },
    {
      "inputs": [],
      "name": "getTokenRoyaltiesCount",
      "outputs": [
        {
          "internalType": "uint256",
          "name": "",
          "type": "uint256"
        }
      ],
      "stateMutability": "view",
      "type": "function"
    },
    {
      "inputs": [
        {
          "internalType": "uint256",
          "name": "index",
          "type": "uint256"
        }
      ],
      "name": "getTokenRoyaltyByIndex",
      "outputs": [
        {
          "components": [
            {
              "internalType": "uint256",
              "name": "tokenId",
              "type": "uint256"
            },
            {
              "internalType": "address",
              "name": "recipient",
              "type": "address"
            },
            {
              "internalType": "uint16",
              "name": "bps",
              "type": "uint16"
            }
          ],
          "internalType": "struct IEIP2981RoyaltyOverride.TokenRoyaltyConfig",
          "name": "",
          "type": "tuple"
        }
      ],
      "stateMutability": "view",
      "type": "function"
    },
    {
      "inputs": [
        {
          "internalType": "bytes32",
          "name": "role",
          "type": "bytes32"
        },
        {
          "internalType": "address",
          "name": "account",
          "type": "address"
        }
      ],
      "name": "grantRole",
      "outputs": [],
      "stateMutability": "nonpayable",
      "type": "function"
    },
    {
      "inputs": [
        {
          "internalType": "bytes32",
          "name": "role",
          "type": "bytes32"
        },
        {
          "internalType": "address",
          "name": "account",
          "type": "address"
        }
      ],
      "name": "hasRole",
      "outputs": [
        {
          "internalType": "bool",
          "name": "",
          "type": "bool"
        }
      ],
      "stateMutability": "view",
      "type": "function"
    },
    {
      "inputs": [],
      "name": "hasRoleBasedLockableExtension",
      "outputs": [
        {
          "internalType": "bool",
          "name": "",
          "type": "bool"
        }
      ],
      "stateMutability": "view",
      "type": "function"
    },
    {
      "inputs": [
        {
          "components": [
            {
              "internalType": "string",
              "name": "name",
              "type": "string"
            },
            {
              "internalType": "string",
              "name": "symbol",
              "type": "string"
            },
            {
              "internalType": "string",
              "name": "contractURI",
              "type": "string"
            },
            {
              "internalType": "string",
              "name": "placeholderURI",
              "type": "string"
            },
            {
              "internalType": "string",
              "name": "tokenURIPrefix",
              "type": "string"
            },
            {
              "internalType": "uint256",
              "name": "maxSupply",
              "type": "uint256"
            },
            {
              "internalType": "uint256",
              "name": "preSalePrice",
              "type": "uint256"
            },
            {
              "internalType": "uint256",
              "name": "preSaleMaxMintPerWallet",
              "type": "uint256"
            },
            {
              "internalType": "uint256",
              "name": "publicSalePrice",
              "type": "uint256"
            },
            {
              "internalType": "uint256",
              "name": "publicSaleMaxMintPerTx",
              "type": "uint256"
            },
            {
              "internalType": "address",
              "name": "defaultRoyaltyAddress",
              "type": "address"
            },
            {
              "internalType": "uint16",
              "name": "defaultRoyaltyBps",
              "type": "uint16"
            },
            {
              "internalType": "address",
              "name": "proceedsRecipient",
              "type": "address"
            },
            {
              "internalType": "address",
              "name": "trustedForwarder",
              "type": "address"
            },
            {
              "internalType": "enum LicenseVersion",
              "name": "licenseVersion",
              "type": "uint8"
            }
          ],
          "internalType": "struct ERC721ASimpleSalesCollection.Config",
          "name": "config",
          "type": "tuple"
        },
        {
          "internalType": "address",
          "name": "deployer",
          "type": "address"
        }
      ],
      "name": "initialize",
      "outputs": [],
      "stateMutability": "nonpayable",
      "type": "function"
    },
    {
      "inputs": [
        {
          "internalType": "address",
          "name": "owner",
          "type": "address"
        },
        {
          "internalType": "address",
          "name": "operator",
          "type": "address"
        }
      ],
      "name": "isApprovedForAll",
      "outputs": [
        {
          "internalType": "bool",
          "name": "",
          "type": "bool"
        }
      ],
      "stateMutability": "view",
      "type": "function"
    },
    {
      "inputs": [
        {
          "internalType": "address",
          "name": "forwarder",
          "type": "address"
        }
      ],
      "name": "isTrustedForwarder",
      "outputs": [
        {
          "internalType": "bool",
          "name": "",
          "type": "bool"
        }
      ],
      "stateMutability": "view",
      "type": "function"
    },
    {
      "inputs": [],
      "name": "licenseVersion",
      "outputs": [
        {
          "internalType": "enum LicenseVersion",
          "name": "",
          "type": "uint8"
        }
      ],
      "stateMutability": "view",
      "type": "function"
    },
    {
      "inputs": [],
      "name": "licenseVersionLocked",
      "outputs": [
        {
          "internalType": "bool",
          "name": "",
          "type": "bool"
        }
      ],
      "stateMutability": "view",
      "type": "function"
    },
    {
      "inputs": [
        {
          "internalType": "uint256[]",
          "name": "tokenIds",
          "type": "uint256[]"
        }
      ],
      "name": "lock",
      "outputs": [],
      "stateMutability": "nonpayable",
      "type": "function"
    },
    {
      "inputs": [
        {
          "internalType": "uint256",
          "name": "tokenId",
          "type": "uint256"
        }
      ],
      "name": "lock",
      "outputs": [],
      "stateMutability": "nonpayable",
      "type": "function"
    },
    {
      "inputs": [],
      "name": "lockLicenseVersion",
      "outputs": [],
      "stateMutability": "nonpayable",
      "type": "function"
    },
    {
      "inputs": [],
      "name": "lockWithdrawMode",
      "outputs": [],
      "stateMutability": "nonpayable",
      "type": "function"
    },
    {
      "inputs": [],
      "name": "lockWithdrawRecipient",
      "outputs": [],
      "stateMutability": "nonpayable",
      "type": "function"
    },
    {
      "inputs": [
        {
          "internalType": "uint256",
          "name": "tokenId",
          "type": "uint256"
        }
      ],
      "name": "locked",
      "outputs": [
        {
          "internalType": "bool",
          "name": "",
          "type": "bool"
        }
      ],
      "stateMutability": "view",
      "type": "function"
    },
    {
      "inputs": [],
      "name": "maxSupply",
      "outputs": [
        {
          "internalType": "uint256",
          "name": "",
          "type": "uint256"
        }
      ],
      "stateMutability": "view",
      "type": "function"
    },
    {
      "inputs": [],
      "name": "maxSupplyFrozen",
      "outputs": [
        {
          "internalType": "bool",
          "name": "",
          "type": "bool"
        }
      ],
      "stateMutability": "view",
      "type": "function"
    },
    {
      "inputs": [
        {
          "internalType": "address",
          "name": "to",
          "type": "address"
        },
        {
          "internalType": "uint256",
          "name": "count",
          "type": "uint256"
        }
      ],
      "name": "mintByOwner",
      "outputs": [],
      "stateMutability": "nonpayable",
      "type": "function"
    },
    {
      "inputs": [
        {
          "internalType": "address",
          "name": "to",
          "type": "address"
        },
        {
          "internalType": "uint256",
          "name": "count",
          "type": "uint256"
        }
      ],
      "name": "mintByRole",
      "outputs": [],
      "stateMutability": "nonpayable",
      "type": "function"
    },
    {
      "inputs": [
        {
          "internalType": "uint256",
          "name": "count",
          "type": "uint256"
        },
        {
          "internalType": "bytes32[]",
          "name": "proof",
          "type": "bytes32[]"
        }
      ],
      "name": "mintPreSale",
      "outputs": [],
      "stateMutability": "payable",
      "type": "function"
    },
    {
      "inputs": [
        {
          "internalType": "address",
          "name": "to",
          "type": "address"
        },
        {
          "internalType": "uint256",
          "name": "count",
          "type": "uint256"
        }
      ],
      "name": "mintPublicSale",
      "outputs": [],
      "stateMutability": "payable",
      "type": "function"
    },
    {
      "inputs": [],
      "name": "name",
      "outputs": [
        {
          "internalType": "string",
          "name": "",
          "type": "string"
        }
      ],
      "stateMutability": "view",
      "type": "function"
    },
    {
      "inputs": [
        {
          "internalType": "address",
          "name": "minter",
          "type": "address"
        },
        {
          "internalType": "bytes32[]",
          "name": "proof",
          "type": "bytes32[]"
        }
      ],
      "name": "onPreSaleAllowList",
      "outputs": [
        {
          "internalType": "bool",
          "name": "",
          "type": "bool"
        }
      ],
      "stateMutability": "view",
      "type": "function"
    },
    {
      "inputs": [],
      "name": "owner",
      "outputs": [
        {
          "internalType": "address",
          "name": "",
          "type": "address"
        }
      ],
      "stateMutability": "view",
      "type": "function"
    },
    {
      "inputs": [
        {
          "internalType": "uint256",
          "name": "tokenId",
          "type": "uint256"
        }
      ],
      "name": "ownerOf",
      "outputs": [
        {
          "internalType": "address",
          "name": "",
          "type": "address"
        }
      ],
      "stateMutability": "view",
      "type": "function"
    },
    {
      "inputs": [],
      "name": "placeholderURI",
      "outputs": [
        {
          "internalType": "string",
          "name": "",
          "type": "string"
        }
      ],
      "stateMutability": "view",
      "type": "function"
    },
    {
      "inputs": [],
      "name": "preSaleAllowlistMerkleRoot",
      "outputs": [
        {
          "internalType": "bytes32",
          "name": "",
          "type": "bytes32"
        }
      ],
      "stateMutability": "view",
      "type": "function"
    },
    {
      "inputs": [],
      "name": "preSaleMaxMintPerWallet",
      "outputs": [
        {
          "internalType": "uint256",
          "name": "",
          "type": "uint256"
        }
      ],
      "stateMutability": "view",
      "type": "function"
    },
    {
      "inputs": [],
      "name": "preSalePrice",
      "outputs": [
        {
          "internalType": "uint256",
          "name": "",
          "type": "uint256"
        }
      ],
      "stateMutability": "view",
      "type": "function"
    },
    {
      "inputs": [],
      "name": "preSaleStatus",
      "outputs": [
        {
          "internalType": "bool",
          "name": "",
          "type": "bool"
        }
      ],
      "stateMutability": "view",
      "type": "function"
    },
    {
      "inputs": [],
      "name": "publicSaleMaxMintPerTx",
      "outputs": [
        {
          "internalType": "uint256",
          "name": "",
          "type": "uint256"
        }
      ],
      "stateMutability": "view",
      "type": "function"
    },
    {
      "inputs": [],
      "name": "publicSalePrice",
      "outputs": [
        {
          "internalType": "uint256",
          "name": "",
          "type": "uint256"
        }
      ],
      "stateMutability": "view",
      "type": "function"
    },
    {
      "inputs": [],
      "name": "publicSaleStatus",
      "outputs": [
        {
          "internalType": "bool",
          "name": "",
          "type": "bool"
        }
      ],
      "stateMutability": "view",
      "type": "function"
    },
    {
      "inputs": [],
      "name": "renounceOwnership",
      "outputs": [],
      "stateMutability": "nonpayable",
      "type": "function"
    },
    {
      "inputs": [
        {
          "internalType": "bytes32",
          "name": "role",
          "type": "bytes32"
        },
        {
          "internalType": "address",
          "name": "account",
          "type": "address"
        }
      ],
      "name": "renounceRole",
      "outputs": [],
      "stateMutability": "nonpayable",
      "type": "function"
    },
    {
      "inputs": [
        {
          "internalType": "bytes32",
          "name": "role",
          "type": "bytes32"
        },
        {
          "internalType": "address",
          "name": "account",
          "type": "address"
        }
      ],
      "name": "revokeRole",
      "outputs": [],
      "stateMutability": "nonpayable",
      "type": "function"
    },
    {
      "inputs": [],
      "name": "revokeWithdrawPower",
      "outputs": [],
      "stateMutability": "nonpayable",
      "type": "function"
    },
    {
      "inputs": [
        {
          "internalType": "uint256",
          "name": "tokenId",
          "type": "uint256"
        },
        {
          "internalType": "uint256",
          "name": "value",
          "type": "uint256"
        }
      ],
      "name": "royaltyInfo",
      "outputs": [
        {
          "internalType": "address",
          "name": "",
          "type": "address"
        },
        {
          "internalType": "uint256",
          "name": "",
          "type": "uint256"
        }
      ],
      "stateMutability": "view",
      "type": "function"
    },
    {
      "inputs": [
        {
          "internalType": "address",
          "name": "from",
          "type": "address"
        },
        {
          "internalType": "address",
          "name": "to",
          "type": "address"
        },
        {
          "internalType": "uint256",
          "name": "tokenId",
          "type": "uint256"
        }
      ],
      "name": "safeTransferFrom",
      "outputs": [],
      "stateMutability": "nonpayable",
      "type": "function"
    },
    {
      "inputs": [
        {
          "internalType": "address",
          "name": "from",
          "type": "address"
        },
        {
          "internalType": "address",
          "name": "to",
          "type": "address"
        },
        {
          "internalType": "uint256",
          "name": "tokenId",
          "type": "uint256"
        },
        {
          "internalType": "bytes",
          "name": "_data",
          "type": "bytes"
        }
      ],
      "name": "safeTransferFrom",
      "outputs": [],
      "stateMutability": "nonpayable",
      "type": "function"
    },
    {
      "inputs": [
        {
          "internalType": "bytes32",
          "name": "newRoot",
          "type": "bytes32"
        }
      ],
      "name": "setAllowlistMerkleRoot",
      "outputs": [],
      "stateMutability": "nonpayable",
      "type": "function"
    },
    {
      "inputs": [
        {
          "internalType": "address",
          "name": "operator",
          "type": "address"
        },
        {
          "internalType": "bool",
          "name": "approved",
          "type": "bool"
        }
      ],
      "name": "setApprovalForAll",
      "outputs": [],
      "stateMutability": "nonpayable",
      "type": "function"
    },
    {
      "inputs": [
        {
          "internalType": "string",
          "name": "newValue",
          "type": "string"
        }
      ],
      "name": "setContractURI",
      "outputs": [],
      "stateMutability": "nonpayable",
      "type": "function"
    },
    {
      "inputs": [
        {
          "components": [
            {
              "internalType": "address",
              "name": "recipient",
              "type": "address"
            },
            {
              "internalType": "uint16",
              "name": "bps",
              "type": "uint16"
            }
          ],
          "internalType": "struct IEIP2981RoyaltyOverride.TokenRoyalty",
          "name": "royalty",
          "type": "tuple"
        }
      ],
      "name": "setDefaultRoyalty",
      "outputs": [],
      "stateMutability": "nonpayable",
      "type": "function"
    },
    {
      "inputs": [
        {
          "internalType": "enum LicenseVersion",
          "name": "_licenseVersion",
          "type": "uint8"
        }
      ],
      "name": "setLicenseVersion",
      "outputs": [],
      "stateMutability": "nonpayable",
      "type": "function"
    },
    {
      "inputs": [
        {
          "internalType": "uint256",
          "name": "newValue",
          "type": "uint256"
        }
      ],
      "name": "setMaxSupply",
      "outputs": [],
      "stateMutability": "nonpayable",
      "type": "function"
    },
    {
      "inputs": [
        {
          "internalType": "string",
          "name": "newValue",
          "type": "string"
        }
      ],
      "name": "setPlaceholderURI",
      "outputs": [],
      "stateMutability": "nonpayable",
      "type": "function"
    },
    {
      "inputs": [
        {
          "internalType": "uint256",
          "name": "newValue",
          "type": "uint256"
        }
      ],
      "name": "setPreSaleMaxMintPerWallet",
      "outputs": [],
      "stateMutability": "nonpayable",
      "type": "function"
    },
    {
      "inputs": [
        {
          "internalType": "uint256",
          "name": "newValue",
          "type": "uint256"
        }
      ],
      "name": "setPreSalePrice",
      "outputs": [],
      "stateMutability": "nonpayable",
      "type": "function"
    },
    {
      "inputs": [
        {
          "internalType": "uint256",
          "name": "newValue",
          "type": "uint256"
        }
      ],
      "name": "setPublicSaleMaxMintPerTx",
      "outputs": [],
      "stateMutability": "nonpayable",
      "type": "function"
    },
    {
      "inputs": [
        {
          "internalType": "uint256",
          "name": "newValue",
          "type": "uint256"
        }
      ],
      "name": "setPublicSalePrice",
      "outputs": [],
      "stateMutability": "nonpayable",
      "type": "function"
    },
    {
      "inputs": [
        {
          "components": [
            {
              "internalType": "uint256",
              "name": "tokenId",
              "type": "uint256"
            },
            {
              "internalType": "address",
              "name": "recipient",
              "type": "address"
            },
            {
              "internalType": "uint16",
              "name": "bps",
              "type": "uint16"
            }
          ],
          "internalType": "struct IEIP2981RoyaltyOverride.TokenRoyaltyConfig[]",
          "name": "royaltyConfigs",
          "type": "tuple[]"
        }
      ],
      "name": "setTokenRoyalties",
      "outputs": [],
      "stateMutability": "nonpayable",
      "type": "function"
    },
    {
      "inputs": [
        {
          "internalType": "string",
          "name": "newValue",
          "type": "string"
        }
      ],
      "name": "setTokenURIPrefix",
      "outputs": [],
      "stateMutability": "nonpayable",
      "type": "function"
    },
    {
      "inputs": [
        {
          "internalType": "string",
          "name": "newValue",
          "type": "string"
        }
      ],
      "name": "setTokenURISuffix",
      "outputs": [],
      "stateMutability": "nonpayable",
      "type": "function"
    },
    {
      "inputs": [
        {
          "internalType": "address",
          "name": "trustedForwarder",
          "type": "address"
        }
      ],
      "name": "setTrustedForwarder",
      "outputs": [],
      "stateMutability": "nonpayable",
      "type": "function"
    },
    {
      "inputs": [
        {
          "internalType": "enum WithdrawMode",
          "name": "_withdrawMode",
          "type": "uint8"
        }
      ],
      "name": "setWithdrawMode",
      "outputs": [],
      "stateMutability": "nonpayable",
      "type": "function"
    },
    {
      "inputs": [
        {
          "internalType": "address",
          "name": "_withdrawRecipient",
          "type": "address"
        }
      ],
      "name": "setWithdrawRecipient",
      "outputs": [],
      "stateMutability": "nonpayable",
      "type": "function"
    },
    {
      "inputs": [
        {
          "internalType": "bytes4",
          "name": "interfaceId",
          "type": "bytes4"
        }
      ],
      "name": "supportsInterface",
      "outputs": [
        {
          "internalType": "bool",
          "name": "",
          "type": "bool"
        }
      ],
      "stateMutability": "view",
      "type": "function"
    },
    {
      "inputs": [],
      "name": "symbol",
      "outputs": [
        {
          "internalType": "string",
          "name": "",
          "type": "string"
        }
      ],
      "stateMutability": "view",
      "type": "function"
    },
    {
      "inputs": [
        {
          "internalType": "bool",
          "name": "isActive",
          "type": "bool"
        }
      ],
      "name": "togglePreSaleStatus",
      "outputs": [],
      "stateMutability": "nonpayable",
      "type": "function"
    },
    {
      "inputs": [
        {
          "internalType": "bool",
          "name": "isActive",
          "type": "bool"
        }
      ],
      "name": "togglePublicSaleStatus",
      "outputs": [],
      "stateMutability": "nonpayable",
      "type": "function"
    },
    {
      "inputs": [
        {
          "internalType": "uint256",
          "name": "_tokenId",
          "type": "uint256"
        }
      ],
      "name": "tokenURI",
      "outputs": [
        {
          "internalType": "string",
          "name": "",
          "type": "string"
        }
      ],
      "stateMutability": "view",
      "type": "function"
    },
    {
      "inputs": [],
      "name": "tokenURIFrozen",
      "outputs": [
        {
          "internalType": "bool",
          "name": "",
          "type": "bool"
        }
      ],
      "stateMutability": "view",
      "type": "function"
    },
    {
      "inputs": [],
      "name": "tokenURIPrefix",
      "outputs": [
        {
          "internalType": "string",
          "name": "",
          "type": "string"
        }
      ],
      "stateMutability": "view",
      "type": "function"
    },
    {
      "inputs": [],
      "name": "tokenURISuffix",
      "outputs": [
        {
          "internalType": "string",
          "name": "",
          "type": "string"
        }
      ],
      "stateMutability": "view",
      "type": "function"
    },
    {
      "inputs": [],
      "name": "totalSupply",
      "outputs": [
        {
          "internalType": "uint256",
          "name": "",
          "type": "uint256"
        }
      ],
      "stateMutability": "view",
      "type": "function"
    },
    {
      "inputs": [
        {
          "internalType": "address",
          "name": "from",
          "type": "address"
        },
        {
          "internalType": "address",
          "name": "to",
          "type": "address"
        },
        {
          "internalType": "uint256",
          "name": "tokenId",
          "type": "uint256"
        }
      ],
      "name": "transferFrom",
      "outputs": [],
      "stateMutability": "nonpayable",
      "type": "function"
    },
    {
      "inputs": [
        {
          "internalType": "address",
          "name": "newOwner",
          "type": "address"
        }
      ],
      "name": "transferOwnership",
      "outputs": [],
      "stateMutability": "nonpayable",
      "type": "function"
    },
    {
      "inputs": [
        {
          "internalType": "uint256[]",
          "name": "tokenIds",
          "type": "uint256[]"
        }
      ],
      "name": "unlock",
      "outputs": [],
      "stateMutability": "nonpayable",
      "type": "function"
    },
    {
      "inputs": [
        {
          "internalType": "uint256",
          "name": "tokenId",
          "type": "uint256"
        }
      ],
      "name": "unlock",
      "outputs": [],
      "stateMutability": "nonpayable",
      "type": "function"
    },
    {
      "inputs": [
        {
          "internalType": "address[]",
          "name": "claimTokens",
          "type": "address[]"
        },
        {
          "internalType": "uint256[]",
          "name": "amounts",
          "type": "uint256[]"
        }
      ],
      "name": "withdraw",
      "outputs": [],
      "stateMutability": "nonpayable",
      "type": "function"
    },
    {
      "inputs": [],
      "name": "withdrawMode",
      "outputs": [
        {
          "internalType": "enum WithdrawMode",
          "name": "",
          "type": "uint8"
        }
      ],
      "stateMutability": "view",
      "type": "function"
    },
    {
      "inputs": [],
      "name": "withdrawModeLocked",
      "outputs": [
        {
          "internalType": "bool",
          "name": "",
          "type": "bool"
        }
      ],
      "stateMutability": "view",
      "type": "function"
    },
    {
      "inputs": [],
      "name": "withdrawPowerRevoked",
      "outputs": [
        {
          "internalType": "bool",
          "name": "",
          "type": "bool"
        }
      ],
      "stateMutability": "view",
      "type": "function"
    },
    {
      "inputs": [],
      "name": "withdrawRecipient",
      "outputs": [
        {
          "internalType": "address",
          "name": "",
          "type": "address"
        }
      ],
      "stateMutability": "view",
      "type": "function"
    },
    {
      "inputs": [],
      "name": "withdrawRecipientLocked",
      "outputs": [
        {
          "internalType": "bool",
          "name": "",
          "type": "bool"
        }
      ],
      "stateMutability": "view",
      "type": "function"
    }
  ],
  "transactionHash": "0xd365fae9104800e1b2918eb1948de1dded1d6da5835710452efbf0d7f38a067e",
  "args": [
    {
      "name": "Collection",
      "symbol": "COL",
      "contractURI": "ipfs://contractURI",
      "placeholderURI": "ipfs://placeholderURI",
      "tokenURIPrefix": "ipfs://tokenURIPrefix/",
      "maxSupply": 0,
      "preSalePrice": 0,
      "preSaleMaxMintPerWallet": 0,
      "publicSalePrice": 0,
      "publicSaleMaxMintPerTx": 10,
      "defaultRoyaltyAddress": "0x0000000000000000000000000000000000000000",
      "defaultRoyaltyBps": 0,
      "proceedsRecipient": "0x0000000000000000000000000000000000000000",
      "trustedForwarder": "0x0000000000000000000000000000000000000000",
      "licenseVersion": 0
    }
  ],
  "numDeployments": 3,
  "solcInputHash": "e0790e67d3cd6d01c661c3ed5e01761e",
  "bytecode": "0x60806040523480156200001157600080fd5b506040516200646138038062006461833981016040819052620000349162000e5c565b805160208201516004620000516200004b620000bd565b620000d9565b6002805482919060ff60c01b1916600160c01b83600581111562000079576200007962001011565b0217905550600590506200008e8382620010b5565b5060066200009d8282620010b5565b50600060035550506001601455620000b6813362000134565b50620011cc565b6000620000d46200035f60201b620027de1760201c565b905090565b600080546001600160a01b038381166201000081810262010000600160b01b0319851617855560405193049190911692909183917f8be0079c531659141344cd1fd0a4f28419497f9722a3daafe3b4186f6b6457e091a35050565b600054610100900460ff1615808015620001555750600054600160ff909116105b8062000185575062000172306200039760201b620028001760201c565b15801562000185575060005460ff166001145b620001ee5760405162461bcd60e51b815260206004820152602e60248201527f496e697469616c697a61626c653a20636f6e747261637420697320616c72656160448201526d191e481a5b9a5d1a585b1a5e995960921b60648201526084015b60405180910390fd5b6000805460ff19166001179055801562000212576000805461ff0019166101001790555b6200021f600083620003a6565b6200022a82620000d9565b6101808301516200023d906002620003b6565b6101c08301516200024e90620003ec565b8251602084015160408501516200026792919062000424565b62000281836060015184608001516200045b60201b60201c565b60a0830151620002919062000491565b6200029b620004c6565b620002a682620004fc565b620002b062000531565b620002ca8360c001518460e001516200056560201b60201c565b620002e6836101000151846101200151620005ac60201b60201c565b62000302836101400151846101600151620005e260201b60201c565b6101a0830151620003139062000618565b80156200035a576000805461ff0019169055604051600181527f7f26b83ff96e1f2b6a682f133852f6798a09c465da95921460cefb38474024989060200160405180910390a15b505050565b6023546000906001600160a01b0316330362000382575060131936013560601c90565b620000d46200064d60201b6200280f1760201c565b6001600160a01b03163b151590565b620003b2828262000651565b5050565b600054610100900460ff16620003e05760405162461bcd60e51b8152600401620001e59062001181565b620003b28282620006f7565b600054610100900460ff16620004165760405162461bcd60e51b8152600401620001e59062001181565b620004218162000783565b50565b600054610100900460ff166200044e5760405162461bcd60e51b8152600401620001e59062001181565b6200035a83838362000801565b600054610100900460ff16620004855760405162461bcd60e51b8152600401620001e59062001181565b620003b28282620008a0565b600054610100900460ff16620004bb5760405162461bcd60e51b8152600401620001e59062001181565b620004218162000938565b600054610100900460ff16620004f05760405162461bcd60e51b8152600401620001e59062001181565b620004fa6200099d565b565b600054610100900460ff16620005265760405162461bcd60e51b8152600401620001e59062001181565b6200042181620009d9565b600054610100900460ff166200055b5760405162461bcd60e51b8152600401620001e59062001181565b620004fa62000a41565b600054610100900460ff166200058f5760405162461bcd60e51b8152600401620001e59062001181565b620005a163209680f760e11b62000a78565b601591909155601655565b600054610100900460ff16620005d65760405162461bcd60e51b8152600401620001e59062001181565b620003b2828262000afc565b600054610100900460ff166200060c5760405162461bcd60e51b8152600401620001e59062001181565b620003b2828262000b43565b600054610100900460ff16620006425760405162461bcd60e51b8152600401620001e59062001181565b620004218162000be0565b3390565b6000828152601e602090815260408083206001600160a01b038516845290915290205460ff16620003b2576000828152601e602090815260408083206001600160a01b03851684529091529020805460ff19166001179055620006b3620000bd565b6001600160a01b0316816001600160a01b0316837f2f8788117e7eff1d82e926ec794901d17c78024a50270940304540a733656f0d60405160405180910390a45050565b600054610100900460ff16620007215760405162461bcd60e51b8152600401620001e59062001181565b6200073363ac2ba33360e01b62000a78565b600280546001600160a01b0384166001600160a01b0319821681178355839291600162ff000160a01b03191617600160b01b8360038111156200077a576200077a62001011565b02179055505050565b600054610100900460ff16620007ad5760405162461bcd60e51b8152600401620001e59062001181565b620007bf63b964efe960e01b62000a78565b620007d1630c934a3560e31b62000a78565b6002805482919060ff60c01b1916600160c01b836005811115620007f957620007f962001011565b021790555050565b600054610100900460ff166200082b5760405162461bcd60e51b8152600401620001e59062001181565b600b620008398482620010b5565b50600c620008488382620010b5565b50600d620008578282620010b5565b506200086a633d96f4ff60e11b62000a78565b6200087c6380ac58cd60e01b62000a78565b6200088e63184371e560e31b62000a78565b6200035a635b5e139f60e01b62000a78565b600054610100900460ff16620008ca5760405162461bcd60e51b8152600401620001e59062001181565b600e620008d88382620010b5565b50600f620008e78282620010b5565b50604080518082019091526005815264173539b7b760d91b6020820152601090620009139082620010b5565b5062000926631f2f406b60e01b62000a78565b620003b2635b5e139f60e01b62000a78565b600054610100900460ff16620009625760405162461bcd60e51b8152600401620001e59062001181565b6012819055620009796330f487b560e11b62000a78565b6200098b6380ac58cd60e01b62000a78565b6200042163184371e560e31b62000a78565b600054610100900460ff16620009c75760405162461bcd60e51b8152600401620001e59062001181565b620004fa631aa1577160e11b62000a78565b600054610100900460ff1662000a035760405162461bcd60e51b8152600401620001e59062001181565b62000a15631a056e7160e01b62000a78565b620004217f9f2df0fed2c77648de5860a4cc508cd0818c85b8b8a1ab4ceeef8d981c8956a682620003a6565b600054610100900460ff1662000a6b5760405162461bcd60e51b8152600401620001e59062001181565b620004fa63714ad8e760e01b5b6001600160e01b0319808216900362000ad45760405162461bcd60e51b815260206004820152601c60248201527f4552433136353a20696e76616c696420696e74657266616365206964000000006044820152606401620001e5565b6001600160e01b0319166000908152600160208190526040909120805460ff19169091179055565b600054610100900460ff1662000b265760405162461bcd60e51b8152600401620001e59062001181565b62000b386317e0bac360e31b62000a78565b601a91909155601b55565b600054610100900460ff1662000b6d5760405162461bcd60e51b8152600401620001e59062001181565b62000b7f633a47bf5160e11b62000a78565b62000b9163152a902d60e11b62000a78565b62000ba363c69dbd8f60e01b62000a78565b62000bb563656cb66560e11b62000a78565b604080518082019091526001600160a01b038316815261ffff821660208201526200035a8162000c2c565b600054610100900460ff1662000c0a5760405162461bcd60e51b8152600401620001e59062001181565b602380546001600160a01b0319166001600160a01b0392909216919091179055565b612710816020015161ffff161062000c755760405162461bcd60e51b815260206004820152600b60248201526a496e76616c69642062707360a81b6044820152606401620001e5565b60408051808201825282516001600160a01b03168082526020808501805161ffff1691909301819052601f8054600160a01b9092026001600160b01b03199092169092171790558251905191517f2c5ea6e4103e78cb101e796fb2dace540362fc542cbff5145eaa24af7dd8fe419262000d0792916001600160a01b0392909216825261ffff16602082015260400190565b60405180910390a150565b634e487b7160e01b600052604160045260246000fd5b6040516101e081016001600160401b038111828210171562000d4e5762000d4e62000d12565b60405290565b604051601f8201601f191681016001600160401b038111828210171562000d7f5762000d7f62000d12565b604052919050565b600082601f83011262000d9957600080fd5b81516001600160401b0381111562000db55762000db562000d12565b602062000dcb601f8301601f1916820162000d54565b828152858284870101111562000de057600080fd5b60005b8381101562000e0057858101830151828201840152820162000de3565b8381111562000e125760008385840101525b5095945050505050565b80516001600160a01b038116811462000e3457600080fd5b919050565b805161ffff8116811462000e3457600080fd5b80516006811062000e3457600080fd5b60006020828403121562000e6f57600080fd5b81516001600160401b038082111562000e8757600080fd5b908301906101e0828603121562000e9d57600080fd5b62000ea762000d28565b82518281111562000eb757600080fd5b62000ec58782860162000d87565b82525060208301518281111562000edb57600080fd5b62000ee98782860162000d87565b60208301525060408301518281111562000f0257600080fd5b62000f108782860162000d87565b60408301525060608301518281111562000f2957600080fd5b62000f378782860162000d87565b60608301525060808301518281111562000f5057600080fd5b62000f5e8782860162000d87565b60808301525060a0838101519082015260c0808401519082015260e0808401519082015261010080840151908201526101208084015190820152610140915062000faa82840162000e1c565b82820152610160915062000fc082840162000e39565b82820152610180915062000fd682840162000e1c565b828201526101a0915062000fec82840162000e1c565b828201526101c091506200100282840162000e4c565b91810191909152949350505050565b634e487b7160e01b600052602160045260246000fd5b600181811c908216806200103c57607f821691505b6020821081036200105d57634e487b7160e01b600052602260045260246000fd5b50919050565b601f8211156200035a57600081815260208120601f850160051c810160208610156200108c5750805b601f850160051c820191505b81811015620010ad5782815560010162001098565b505050505050565b81516001600160401b03811115620010d157620010d162000d12565b620010e981620010e2845462001027565b8462001063565b602080601f831160018114620011215760008415620011085750858301515b600019600386901b1c1916600185901b178555620010ad565b600085815260208120601f198616915b82811015620011525788860151825594840194600190910190840162001131565b5085821015620011715787850151600019600388901b60f8161c191681555b5050505050600190811b01905550565b6020808252602b908201527f496e697469616c697a61626c653a20636f6e7472616374206973206e6f74206960408201526a6e697469616c697a696e6760a81b606082015260800190565b61528580620011dc6000396000f3fe6080604052600436106104425760003560e01c806391d1485411610237578063c87b56dd11610135578063c87b56dd14610cbe578063cad96cca14610cde578063d539139314610d0b578063d547741f14610d2d578063d5abeb0114610d4d578063d79ff99d14610d63578063da74222814610d76578063da82b22714610d96578063dbbc853b14610dab578063dcbe353f14610dc0578063dd46706414610de0578063dd89c6fa14610e00578063de6d6d9614610e15578063e3b9a7e514610e35578063e757c17d14610e55578063e8a3d48514610e6b578063e985e9c514610e80578063ef60ceaf14610ec9578063f2fde38b14610ee9578063f362136714610f09578063f384702f14610f2b578063f74bbf5914610f45578063f95df41414610f65578063fe50b58714610f8557600080fd5b806391d1485414610a60578063938e3d7b14610a8057806395d89b4114610aa057806399e0dd7c14610ab55780639b6860c814610ad55780639e6b2c5b14610aeb578063a217fddf14610afe578063a22cb46514610b13578063a341793b14610b33578063a9852bfb14610b48578063aaeaca4814610b68578063af121f5414610b7e578063b27c6f2d14610b9f578063b45a3c0e14610bb5578063b6c693e514610bd5578063b88d4fde14610bef578063ba4695fd14610c0f578063bf9b7a5714610c24578063c0ac998314610c45578063c0bb38ff14610c5a578063c29de63014610c7a578063c723955a14610c94578063c7db289314610ca957600080fd5b806349561cb91161034457806349561cb9146107985780634f972f5f146107b957806350a5292f146107d95780635136dcc71461080757806356c022bb14610827578063572b6c05146108475780635d36598f146108675780636057e0ec146108875780636198e339146108a85780636352211e146108c857806364ed2913146108e85780636f8b44b01461090857806370a0823114610928578063714ad8e714610948578063715018a61461095c5780637313cba9146109715780637885fdc714610986578063791a2519146109c15780637d7eee42146109e15780637e98034214610a01578063837fe14014610a16578063859610c614610a2b5780638da5cb5b14610a4b57600080fd5b806301ffc9a7146104475780630653aca51461047c57806306fdde03146104cb578063081812fc146104ed578063095ea7b314610525578063167446071461054757806318160ddd1461055c5780631a056e711461057f57806323b872dd1461059f578063248a9ca3146105bf5780632a55205a146105df5780632bb684ad1461060d5780632c2330671461063a5780632d00b5871461065a5780632d8e85b0146106885780632f2ff15d146106a85780633542aee2146106c85780633574a2dd146106e857806336568abe146107085780633acf404d146107285780633c0e8f2c1461073e57806342842e0e1461075e578063464bd6401461077e575b600080fd5b34801561045357600080fd5b5061046761046236600461426c565b610fa5565b60405190151581526020015b60405180910390f35b34801561048857600080fd5b5061049c610497366004614289565b610fb6565b60408051825181526020808401516001600160a01b0316908201529181015161ffff1690820152606001610473565b3480156104d757600080fd5b506104e0611039565b60405161047391906142fa565b3480156104f957600080fd5b5061050d610508366004614289565b611048565b6040516001600160a01b039091168152602001610473565b34801561053157600080fd5b50610545610540366004614324565b61108c565b005b34801561055357600080fd5b5061054561112c565b34801561056857600080fd5b50600454600354035b604051908152602001610473565b34801561058b57600080fd5b5061054561059a366004614324565b611143565b3480156105ab57600080fd5b506105456105ba36600461434e565b6111ae565b3480156105cb57600080fd5b506105716105da366004614289565b611342565b3480156105eb57600080fd5b506105ff6105fa36600461438a565b611357565b6040516104739291906143ac565b34801561061957600080fd5b5061062d610628366004614409565b61141a565b604051610473919061444a565b34801561064657600080fd5b5061054561065536600461448e565b6114e4565b34801561066657600080fd5b5060025461067b90600160b01b900460ff1681565b60405161047391906144c5565b34801561069457600080fd5b506105456106a33660046144ed565b611543565b3480156106b457600080fd5b506105456106c336600461450a565b61155e565b3480156106d457600080fd5b506105456106e3366004614324565b61157f565b3480156106f457600080fd5b5061054561070336600461460a565b611587565b34801561071457600080fd5b5061054561072336600461450a565b61159b565b34801561073457600080fd5b5061057160175481565b34801561074a57600080fd5b50610545610759366004614289565b611625565b34801561076a57600080fd5b5061054561077936600461434e565b611632565b34801561078a57600080fd5b506018546104679060ff1681565b3480156107a457600080fd5b5060025461046790600160b81b900460ff1681565b3480156107c557600080fd5b506105456107d43660046144ed565b61164d565b3480156107e557600080fd5b506002546107fa90600160c01b900460ff1681565b604051610473919061463e565b34801561081357600080fd5b50610545610822366004614652565b611668565b34801561083357600080fd5b5060235461050d906001600160a01b031681565b34801561085357600080fd5b506104676108623660046146c6565b6116cb565b34801561087357600080fd5b50610545610882366004614409565b6116df565b34801561089357600080fd5b5060025461046790600160a01b900460ff1681565b3480156108b457600080fd5b506105456108c3366004614289565b611782565b3480156108d457600080fd5b5061050d6108e3366004614289565b6117ee565b3480156108f457600080fd5b506105456109033660046146f0565b6117f9565b34801561091457600080fd5b50610545610923366004614289565b611871565b34801561093457600080fd5b506105716109433660046146c6565b61190d565b34801561095457600080fd5b506001610467565b34801561096857600080fd5b5061054561195b565b34801561097d57600080fd5b506104e061196f565b34801561099257600080fd5b50601f546109b3906001600160a01b03811690600160a01b900461ffff1682565b60405161047392919061470b565b3480156109cd57600080fd5b506105456109dc366004614289565b611a01565b3480156109ed57600080fd5b506105456109fc366004614289565b611a0e565b348015610a0d57600080fd5b50610571611a1b565b348015610a2257600080fd5b50610545611a27565b348015610a3757600080fd5b50610545610a46366004614409565b611a6e565b348015610a5757600080fd5b5061050d611b07565b348015610a6c57600080fd5b50610467610a7b36600461450a565b611b1c565b348015610a8c57600080fd5b50610545610a9b36600461460a565b611b47565b348015610aac57600080fd5b506104e0611b5b565b348015610ac157600080fd5b50610545610ad036600461460a565b611b65565b348015610ae157600080fd5b50610571601a5481565b610545610af9366004614728565b611b9c565b348015610b0a57600080fd5b50610571600081565b348015610b1f57600080fd5b50610545610b2e366004614773565b611d67565b348015610b3f57600080fd5b506104e0611dfc565b348015610b5457600080fd5b50610545610b6336600461460a565b611e15565b348015610b7457600080fd5b5061057160165481565b348015610b8a57600080fd5b5060025461046790600160a81b900460ff1681565b348015610bab57600080fd5b50610571601b5481565b348015610bc157600080fd5b50610467610bd0366004614289565b611e4c565b348015610be157600080fd5b50601c546104679060ff1681565b348015610bfb57600080fd5b50610545610c0a3660046147aa565b611e59565b348015610c1b57600080fd5b50610545611ea3565b348015610c3057600080fd5b5060025461046790600160c81b900460ff1681565b348015610c5157600080fd5b506104e0611eba565b348015610c6657600080fd5b50610545610c753660046146c6565b611ec9565b348015610c8657600080fd5b506011546104679060ff1681565b348015610ca057600080fd5b50610545611f1d565b348015610cb557600080fd5b506104e0611f7c565b348015610cca57600080fd5b506104e0610cd9366004614289565b611fe3565b348015610cea57600080fd5b50610cfe610cf9366004614289565b611fee565b6040516104739190614825565b348015610d1757600080fd5b506105716000805160206151f083398151915281565b348015610d3957600080fd5b50610545610d4836600461450a565b6120a9565b348015610d5957600080fd5b5061057160125481565b610545610d71366004614324565b6120c5565b348015610d8257600080fd5b50610545610d913660046146c6565b6121bd565b348015610da257600080fd5b506105456121e7565b348015610db757600080fd5b506104e061222d565b348015610dcc57600080fd5b5060025461050d906001600160a01b031681565b348015610dec57600080fd5b50610545610dfb366004614289565b61223c565b348015610e0c57600080fd5b506105456122a0565b348015610e2157600080fd5b50610545610e30366004614886565b6122bd565b348015610e4157600080fd5b50610467610e503660046148f1565b6124f5565b348015610e6157600080fd5b5061057160155481565b348015610e7757600080fd5b506104e0612543565b348015610e8c57600080fd5b50610467610e9b36600461492a565b6001600160a01b039182166000908152600a6020908152604080832093909416825291909152205460ff1690565b348015610ed557600080fd5b50610545610ee4366004614954565b612552565b348015610ef557600080fd5b50610545610f043660046146c6565b612574565b348015610f1557600080fd5b5061057160008051602061523083398151915281565b348015610f3757600080fd5b506013546104679060ff1681565b348015610f5157600080fd5b50610545610f60366004614289565b6125ea565b348015610f7157600080fd5b50610545610f80366004614289565b6125f7565b348015610f9157600080fd5b50610545610fa036600461497e565b612604565b6000610fb082612813565b92915050565b6040805160608101825260008082526020820181905291810182905290610fde60218461284f565b600081815260208080526040918290208251808401845290546001600160a01b03808216835261ffff600160a01b90920482168385019081528551606081018752968752925116928501929092525116908201529392505050565b6060611043612862565b905090565b600061105382612871565b611070576040516333d1c03960e21b815260040160405180910390fd5b506000908152600960205260409020546001600160a01b031690565b6000611097826117ee565b9050336001600160a01b038216146110d0576110b38133610e9b565b6110d0576040516367d9dca160e11b815260040160405180910390fd5b60008281526009602052604080822080546001600160a01b0319166001600160a01b0387811691821790925591518593918516917f8c5be1e5ebec7d5bd14f71427d1e84f3dd0314c0f7b2291e5b200ac8c7c3b92591a4505050565b611134612899565b6013805460ff19166001179055565b61115d6000805160206151f0833981519152610a7b612908565b6111a05760405162461bcd60e51b815260206004820152600f60248201526e4e4f545f4d494e5445525f524f4c4560881b60448201526064015b60405180910390fd5b6111aa8282612912565b5050565b60006111b982612976565b9050836001600160a01b0316816001600160a01b0316146111ec5760405162a1148160e81b815260040160405180910390fd5b60008281526009602052604090208054338082146001600160a01b038816909114176112395761121c8633610e9b565b61123957604051632ce44b5f60e11b815260040160405180910390fd5b6001600160a01b03851661126057604051633a954ecd60e21b815260040160405180910390fd5b61126d86868660016129dd565b801561127857600082555b6001600160a01b038681166000908152600860205260408082208054600019019055918716815220805460010190556112b585600160e11b6129e9565b600085815260076020526040812091909155600160e11b8416900361130a576001840160008181526007602052604081205490036113085760035481146113085760008181526007602052604090208490555b505b83856001600160a01b0316876001600160a01b031660008051602061521083398151915260405160405180910390a45b505050505050565b6000908152601e602052604090206001015490565b600082815260208052604081205481906001600160a01b0316156113ba5760008481526020805260409020546001600160a01b03811690612710906113a790600160a01b900461ffff1686614b33565b6113b19190614b68565b91509150611413565b601f546001600160a01b0316158015906113e05750601f54600160a01b900461ffff1615155b1561140c57601f546001600160a01b03811690612710906113a790600160a01b900461ffff1686614b33565b5060009050805b9250929050565b60606000826001600160401b0381111561143657611436614536565b60405190808252806020026020018201604052801561145f578160200160208202803683370190505b50905060005b838110156114dc5761148e85858381811061148257611482614b7c565b90506020020135611e4c565b6114ca578484828181106114a4576114a4614b7c565b905060200201358282815181106114bd576114bd614b7c565b6020026020010181815250505b806114d481614b92565b915050611465565b509392505050565b6114ec612899565b600254600160b81b900460ff16156115165760405162461bcd60e51b815260040161119790614bab565b6002805482919060ff60b01b1916600160b01b83600381111561153b5761153b6144af565b021790555050565b61154b612899565b601c805460ff1916911515919091179055565b61156782611342565b611570816129fe565b61157a8383612a0f565b505050565b6111a0612899565b61158f612899565b600e6111aa8282614c45565b6115a3612908565b6001600160a01b0316816001600160a01b03161461161b5760405162461bcd60e51b815260206004820152602f60248201527f416363657373436f6e74726f6c3a2063616e206f6e6c792072656e6f756e636560448201526e103937b632b9903337b91039b2b63360891b6064820152608401611197565b6111aa8282612a96565b61162d612899565b601b55565b61157a83838360405180602001604052806000815250611e59565b611655612899565b6018805460ff1916911515919091179055565b611670612899565b6111aa8282808060200260200160405190810160405280939291908181526020016000905b828210156116c1576116b260608302860136819003810190614d04565b81526020019060010190611695565b5050505050612b1b565b6023546001600160a01b0391821691161490565b6002601454036117015760405162461bcd60e51b815260040161119790614d68565b600260145561171e60008051602061523083398151915233611b1c565b61173a5760405162461bcd60e51b815260040161119790614d9f565b60005b818110156117785761176683838381811061175a5761175a614b7c565b90506020020135612cbf565b8061177081614b92565b91505061173d565b5050600160145550565b6002601454036117a45760405162461bcd60e51b815260040161119790614d68565b60026014556117c160008051602061523083398151915233611b1c565b6117dd5760405162461bcd60e51b815260040161119790614dd1565b6117e681612cbf565b506001601455565b6000610fb082612976565b611801612899565b600254600160c81b900460ff161561184c5760405162461bcd60e51b815260206004820152600e60248201526d131250d15394d157d313d0d2d15160921b6044820152606401611197565b6002805482919060ff60c01b1916600160c01b83600581111561153b5761153b6144af565b611879612899565b60135460ff16156118be5760405162461bcd60e51b815260206004820152600f60248201526e2120a9a2afaaa924afa32927ad22a760891b6044820152606401611197565b600454600354038110156119085760405162461bcd60e51b81526020600482015260116024820152704c4f5745525f5448414e5f535550504c5960781b6044820152606401611197565b601255565b60006001600160a01b038216611936576040516323d3ad8160e21b815260040160405180910390fd5b506001600160a01b03166000908152600860205260409020546001600160401b031690565b611963612899565b61196d6000612d26565b565b6060600e805461197e90614bcb565b80601f01602080910402602001604051908101604052809291908181526020018280546119aa90614bcb565b80156119f75780601f106119cc576101008083540402835291602001916119f7565b820191906000526020600020905b8154815290600101906020018083116119da57829003601f168201915b5050505050905090565b611a09612899565b601a55565b611a16612899565b601555565b60006110436021612d81565b611a2f612899565b600254600160a01b900460ff1615611a595760405162461bcd60e51b815260040161119790614bab565b6002805460ff60a01b1916600160a01b179055565b600260145403611a905760405162461bcd60e51b815260040161119790614d68565b6002601455611aad60008051602061523083398151915233611b1c565b611ac95760405162461bcd60e51b815260040161119790614d9f565b60005b8181101561177857611af5838383818110611ae957611ae9614b7c565b90506020020135612d8b565b80611aff81614b92565b915050611acc565b6000546201000090046001600160a01b031690565b6000918252601e602090815260408084206001600160a01b0393909316845291905290205460ff1690565b611b4f612899565b600d6111aa8282614c45565b6060611043612dd5565b611b6d612899565b60115460ff1615611b905760405162461bcd60e51b815260040161119790614dfa565b600f6111aa8282614c45565b600260145403611bbe5760405162461bcd60e51b815260040161119790614d68565b600260145560185460ff16611c025760405162461bcd60e51b815260206004820152600a6024820152694e4f545f41435449564560b01b6044820152606401611197565b6000611c0c612908565b9050611c57838380806020026020016040519081016040528093929190818152602001838360200280828437600092019190915250506017549150611c52905084612de4565b612e1e565b611c915760405162461bcd60e51b815260206004820152600b60248201526a2ba927a723afa82927a7a360a91b6044820152606401611197565b6016546001600160a01b038216600090815260196020526040902054611cb8908690614e1a565b1115611cf75760405162461bcd60e51b815260206004820152600e60248201526d14149157d4d0531157d31253525560921b6044820152606401611197565b3484601554611d069190614b33565b1115611d245760405162461bcd60e51b815260040161119790614e32565b6001600160a01b03811660009081526019602052604081208054869290611d4c908490614e1a565b90915550611d5c90508185612912565b505060016014555050565b336001600160a01b03831603611d905760405163b06307db60e01b815260040160405180910390fd5b336000818152600a602090815260408083206001600160a01b03871680855290835292819020805460ff191686151590811790915590519081529192917f17307eab39ab6107e8899845ad3d59bd9653f200f220920489ca2b5937696c31910160405180910390a35050565b60025460609061104390600160c01b900460ff16612e34565b611e1d612899565b60115460ff1615611e405760405162461bcd60e51b815260040161119790614dfa565b60106111aa8282614c45565b6000610fb0601d83612fb2565b611e648484846111ae565b6001600160a01b0383163b15611e9d57611e8084848484612fd6565b611e9d576040516368d2bf6b60e11b815260040160405180910390fd5b50505050565b611eab612899565b6011805460ff19166001179055565b6060600f805461197e90614bcb565b611ed1612899565b600254600160a01b900460ff1615611efb5760405162461bcd60e51b815260040161119790614bab565b600280546001600160a01b0319166001600160a01b0392909216919091179055565b611f25612899565b600254600160b81b900460ff1615611f675760405162461bcd60e51b815260206004820152600560248201526413d0d2d15160da1b6044820152606401611197565b6002805460ff60b81b1916600160b81b179055565b60606040518060600160405280603181526020016151bf60319139600254611fbe90600160c01b900460ff166005811115611fb957611fb96144af565b6130c1565b604051602001611fcf929190614e5f565b604051602081830303815290604052905090565b6060610fb0826131c1565b604080516001808252818301909252606091816020015b6040805180820190915260008082526020820152815260200190600190039081612005575050601f5481519192506001600160a01b031690829060009061204e5761204e614b7c565b60209081029190910101516001600160a01b03919091169052601f548151600160a01b90910461ffff1690829060009061208a5761208a614b7c565b6020908102919091018101516001600160601b03909216910152919050565b6120b282611342565b6120bb816129fe565b61157a8383612a96565b6002601454036120e75760405162461bcd60e51b815260040161119790614d68565b6002601455601c5460ff166121375760405162461bcd60e51b81526020600482015260166024820152755055424c49435f53414c455f4e4f545f41435449564560501b6044820152606401611197565b601b5481111561217d5760405162461bcd60e51b8152602060048201526011602482015270141550931250d7d4d0531157d312535255607a1b6044820152606401611197565b3481601a5461218c9190614b33565b11156121aa5760405162461bcd60e51b815260040161119790614e32565b6121b48282612912565b50506001601455565b6121c5612899565b602380546001600160a01b0319166001600160a01b0392909216919091179055565b6121ef612899565b6002805460ff60a81b1916600160a81b1790556040517fa24423a69b45c25c0479663125e48b482e71d85eae416f589545243bafaf3c9590600090a1565b60606010805461197e90614bcb565b60026014540361225e5760405162461bcd60e51b815260040161119790614d68565b600260145561227b60008051602061523083398151915233611b1c565b6122975760405162461bcd60e51b815260040161119790614dd1565b6117e681612d8b565b6122a8612899565b6002805460ff60c81b1916600160c81b179055565b6122c63361329d565b6002546001600160a01b03166123165760405162461bcd60e51b815260206004820152601560248201527415d2551211149055cbd393d7d49150d25412515395605a1b6044820152606401611197565b600254600160a81b900460ff16156123705760405162461bcd60e51b815260206004820181905260248201527f57495448445241572f454d455247454e43595f504f5745525f5245564f4b45446044820152606401611197565b60005b838110156124b157600085858381811061238f5761238f614b7c565b90506020020160208101906123a491906146c6565b6001600160a01b0316036123e7576123e28383838181106123c7576123c7614b7c565b6002546001600160a01b031692602090910201359050613422565b61249f565b8484828181106123f9576123f9614b7c565b905060200201602081019061240e91906146c6565b6002546001600160a01b039182169163a9059cbb911685858581811061243657612436614b7c565b905060200201356040518363ffffffff1660e01b815260040161245a9291906143ac565b6020604051808303816000875af1158015612479573d6000803e3d6000fd5b505050506040513d601f19601f8201168201806040525081019061249d9190614e8e565b505b806124a981614b92565b915050612373565b507fd40c399a83caf67d15628b821aa7c7bd940e563c57a047e2bd3b8c602bcaf5a5848484846040516124e79493929190614eab565b60405180910390a150505050565b600061253b838380806020026020016040519081016040528093929190818152602001838360200280828437600092019190915250506017549150611c52905087612de4565b949350505050565b6060600d805461197e90614bcb565b61255a612899565b61257161256c36839003830183614f2d565b613538565b50565b61257c612899565b6001600160a01b0381166125e15760405162461bcd60e51b815260206004820152602660248201527f4f776e61626c653a206e6577206f776e657220697320746865207a65726f206160448201526564647265737360d01b6064820152608401611197565b61257181612d26565b6125f2612899565b601655565b6125ff612899565b601755565b600054610100900460ff16158080156126245750600054600160ff909116105b80612645575061263330612800565b158015612645575060005460ff166001145b6126a85760405162461bcd60e51b815260206004820152602e60248201527f496e697469616c697a61626c653a20636f6e747261637420697320616c72656160448201526d191e481a5b9a5d1a585b1a5e995960921b6064820152608401611197565b6000805460ff1916600117905580156126cb576000805461ff0019166101001790555b6126d66000836135e3565b6126df82612d26565b6126ef83610180015160026135ed565b6126fd836101c0015161361e565b61271483600001518460200151856040015161364e565b61272683606001518460800151613680565b6127338360a001516136b1565b61273b6136e1565b61274482613710565b61274c613740565b61275e8360c001518460e0015161376f565b6127728361010001518461012001516137b1565b6127868361014001518461016001516137e2565b612794836101a00151613813565b801561157a576000805461ff0019169055604051600181527f7f26b83ff96e1f2b6a682f133852f6798a09c465da95921460cefb38474024989060200160405180910390a1505050565b60006127e9336116cb565b156127fb575060131936013560601c90565b503390565b6001600160a01b03163b151590565b3390565b60006301ffc9a760e01b6001600160e01b031983161480610fb05750506001600160e01b03191660009081526001602052604090205460ff1690565b600061285b8383613843565b9392505050565b6060600b805461197e90614bcb565b600060035482108015610fb0575050600090815260076020526040902054600160e01b161590565b6128a1612908565b6001600160a01b03166128b2611b07565b6001600160a01b03161461196d5760405162461bcd60e51b815260206004820181905260248201527f4f776e61626c653a2063616c6c6572206973206e6f7420746865206f776e65726044820152606401611197565b60006110436127de565b601254816129236004546003540390565b61292d9190614e1a565b111561296c5760405162461bcd60e51b815260206004820152600e60248201526d455843454544535f535550504c5960901b6044820152606401611197565b6111aa828261386d565b6000816003548110156129c45760008181526007602052604081205490600160e01b821690036129c2575b8060000361285b5750600019016000818152600760205260409020546129a1565b505b604051636f96cda160e11b815260040160405180910390fd5b611e9d84848484613887565b4260a01b176001600160a01b03919091161790565b61257181612a0a612908565b6138b4565b612a198282611b1c565b6111aa576000828152601e602090815260408083206001600160a01b03851684529091529020805460ff19166001179055612a52612908565b6001600160a01b0316816001600160a01b0316837f2f8788117e7eff1d82e926ec794901d17c78024a50270940304540a733656f0d60405160405180910390a45050565b612aa08282611b1c565b156111aa576000828152601e602090815260408083206001600160a01b03851684529091529020805460ff19169055612ad7612908565b6001600160a01b0316816001600160a01b0316837ff6391f5c32d9c69d2a47ea670b442974b53935d1edc7fd64eb21e047a839171b60405160405180910390a45050565b60005b81518110156111aa576000828281518110612b3b57612b3b614b7c565b60200260200101519050612710816040015161ffff1610612b6e5760405162461bcd60e51b815260040161119790614f87565b60208101516001600160a01b0316612be65780516000908152602080526040902080546001600160b01b03191690558051612bab90602190613918565b5080516040519081527fa2870857763bd9ae76c957f869f16b31c18dd3bb4c7b4d3a4496dc5c57c657f99060200160405180910390a1612cac565b6040805180820182526020808401516001600160a01b0390811683528484015161ffff9081168385019081528651600090815293805294909220925183549451909216600160a01b026001600160b01b03199094169116179190911790558051612c5290602190613924565b50805160208083015160408085015181519485526001600160a01b039092169284019290925261ffff1682820152517f389b70fb0887f01e83784eb1c4c589f740eca53b00ed0f45e41db5d079719abb9181900360600190a15b5080612cb781614b92565b915050612b1e565b612cca601d82612fb2565b612d035760405162461bcd60e51b815260206004820152600a6024820152691393d517d313d0d2d15160b21b6044820152606401611197565b600881901c6000908152601d602052604090208054600160ff84161b1916905550565b600080546001600160a01b038381166201000081810262010000600160b01b0319851617855560405193049190911692909183917f8be0079c531659141344cd1fd0a4f28419497f9722a3daafe3b4186f6b6457e091a35050565b6000610fb0825490565b612d96601d82612fb2565b15612db35760405162461bcd60e51b815260040161119790614bab565b600881901c6000908152601d602052604090208054600160ff84161b17905550565b6060600c805461197e90614bcb565b6040516001600160601b0319606083901b166020820152600090603401604051602081830303815290604052805190602001209050919050565b600082612e2b8584613930565b14949350505050565b60606006826005811115612e4a57612e4a6144af565b60ff161115612e5857600080fd5b816005811115612e6a57612e6a6144af565b600003612e9457505060408051808201909152600781526604342455f4343360cc1b602082015290565b816005811115612ea657612ea66144af565b600103612ed057505060408051808201909152600781526621a122afa2a1a960c91b602082015290565b816005811115612ee257612ee26144af565b600203612f0d57505060408051808201909152600881526721a122afa722a1a960c11b602082015290565b816005811115612f1f57612f1f6144af565b600303612f4d57505060408051808201909152600b81526a4342455f4e4543525f485360a81b602082015290565b816005811115612f5f57612f5f6144af565b600403612f8857505060408051808201909152600681526521a122afa82960d11b602082015290565b50506040805180820190915260098152684342455f50525f485360b81b602082015290565b919050565b600881901c600090815260208390526040902054600160ff83161b16151592915050565b604051630a85bd0160e11b81526000906001600160a01b0385169063150b7a029061300b903390899088908890600401614fac565b6020604051808303816000875af1925050508015613046575060408051601f3d908101601f1916820190925261304391810190614fe9565b60015b6130a4573d808015613074576040519150601f19603f3d011682016040523d82523d6000602084013e613079565b606091505b50805160000361309c576040516368d2bf6b60e11b815260040160405180910390fd5b805181602001fd5b6001600160e01b031916630a85bd0160e11b149050949350505050565b6060816000036130e85750506040805180820190915260018152600360fc1b602082015290565b8160005b811561311257806130fc81614b92565b915061310b9050600a83614b68565b91506130ec565b6000816001600160401b0381111561312c5761312c614536565b6040519080825280601f01601f191660200182016040528015613156576020820181803683370190505b5090505b841561253b5761316b600183615006565b9150613178600a8661501d565b613183906030614e1a565b60f81b81838151811061319857613198614b7c565b60200101906001600160f81b031916908160001a9053506131ba600a86614b68565b945061315a565b60606000600f80546131d290614bcb565b90501161326957600e80546131e690614bcb565b80601f016020809104026020016040519081016040528092919081815260200182805461321290614bcb565b801561325f5780601f106132345761010080835404028352916020019161325f565b820191906000526020600020905b81548152906001019060200180831161324257829003601f168201915b5050505050610fb0565b600f613274836130c1565b6010604051602001613288939291906150a4565b60405160208183030381529060405292915050565b6003600254600160b01b900460ff1660038111156132bd576132bd6144af565b036132fc5760405162461bcd60e51b815260206004820152600f60248201526e15d2551211149055cbd313d0d2d151608a1b6044820152606401611197565b60028054600160b01b900460ff16600381111561331b5761331b6144af565b036133235750565b6001600254600160b01b900460ff166003811115613343576133436144af565b0361339f576002546001600160a01b038281169116146125715760405162461bcd60e51b815260206004820152601760248201527615d2551211149055cbd3d3931657d49150d25412515395604a1b6044820152606401611197565b6000600254600160b01b900460ff1660038111156133bf576133bf6144af565b0361257157806001600160a01b03166133d6611b07565b6001600160a01b0316146125715760405162461bcd60e51b81526020600482015260136024820152722ba4aa24222920ab97a7a7262cafa7aba722a960691b6044820152606401611197565b804710156134725760405162461bcd60e51b815260206004820152601d60248201527f416464726573733a20696e73756666696369656e742062616c616e63650000006044820152606401611197565b6000826001600160a01b03168260405160006040518083038185875af1925050503d80600081146134bf576040519150601f19603f3d011682016040523d82523d6000602084013e6134c4565b606091505b505090508061157a5760405162461bcd60e51b815260206004820152603a60248201527f416464726573733a20756e61626c6520746f2073656e642076616c75652c20726044820152791958da5c1a595b9d081b585e481a185d99481c995d995c9d195960321b6064820152608401611197565b612710816020015161ffff16106135615760405162461bcd60e51b815260040161119790614f87565b60408051808201825282516001600160a01b03168082526020808501805161ffff1691909301819052601f80546001600160b01b031916909217600160a01b9091021790558251905191517f2c5ea6e4103e78cb101e796fb2dace540362fc542cbff5145eaa24af7dd8fe41926135d8929161470b565b60405180910390a150565b6111aa8282612a0f565b600054610100900460ff166136145760405162461bcd60e51b8152600401611197906150d7565b6111aa8282613975565b600054610100900460ff166136455760405162461bcd60e51b8152600401611197906150d7565b612571816139f9565b600054610100900460ff166136755760405162461bcd60e51b8152600401611197906150d7565b61157a838383613a40565b600054610100900460ff166136a75760405162461bcd60e51b8152600401611197906150d7565b6111aa8282613ace565b600054610100900460ff166136d85760405162461bcd60e51b8152600401611197906150d7565b61257181613b59565b600054610100900460ff166137085760405162461bcd60e51b8152600401611197906150d7565b61196d613bb5565b600054610100900460ff166137375760405162461bcd60e51b8152600401611197906150d7565b61257181613bec565b600054610100900460ff166137675760405162461bcd60e51b8152600401611197906150d7565b61196d613c3b565b600054610100900460ff166137965760405162461bcd60e51b8152600401611197906150d7565b6137a663209680f760e11b613c6e565b601591909155601655565b600054610100900460ff166137d85760405162461bcd60e51b8152600401611197906150d7565b6111aa8282613cef565b600054610100900460ff166138095760405162461bcd60e51b8152600401611197906150d7565b6111aa8282613d31565b600054610100900460ff1661383a5760405162461bcd60e51b8152600401611197906150d7565b61257181613dc1565b600082600001828154811061385a5761385a614b7c565b9060005260206000200154905092915050565b6111aa828260405180602001604052806000815250613de8565b613892601d83612fb2565b156138af5760405162461bcd60e51b815260040161119790614bab565b611e9d565b6138be8282611b1c565b6111aa576138d6816001600160a01b03166014613e55565b6138e1836020613e55565b6040516020016138f2929190615122565b60408051601f198184030181529082905262461bcd60e51b8252611197916004016142fa565b600061285b8383613ff0565b600061285b83836140e3565b600081815b84518110156114dc576139618286838151811061395457613954614b7c565b6020026020010151614132565b91508061396d81614b92565b915050613935565b600054610100900460ff1661399c5760405162461bcd60e51b8152600401611197906150d7565b6139ac63ac2ba33360e01b613c6e565b600280546001600160a01b0384166001600160a01b0319821681178355839291600162ff000160a01b03191617600160b01b8360038111156139f0576139f06144af565b02179055505050565b600054610100900460ff16613a205760405162461bcd60e51b8152600401611197906150d7565b613a3063b964efe960e01b613c6e565b61184c630c934a3560e31b613c6e565b600054610100900460ff16613a675760405162461bcd60e51b8152600401611197906150d7565b600b613a738482614c45565b50600c613a808382614c45565b50600d613a8d8282614c45565b50613a9e633d96f4ff60e11b613c6e565b613aae6380ac58cd60e01b613c6e565b613abe63184371e560e31b613c6e565b61157a635b5e139f60e01b613c6e565b600054610100900460ff16613af55760405162461bcd60e51b8152600401611197906150d7565b600e613b018382614c45565b50600f613b0e8282614c45565b50604080518082019091526005815264173539b7b760d91b6020820152601090613b389082614c45565b50613b49631f2f406b60e01b613c6e565b6111aa635b5e139f60e01b613c6e565b600054610100900460ff16613b805760405162461bcd60e51b8152600401611197906150d7565b6012819055613b956330f487b560e11b613c6e565b613ba56380ac58cd60e01b613c6e565b61257163184371e560e31b613c6e565b600054610100900460ff16613bdc5760405162461bcd60e51b8152600401611197906150d7565b61196d631aa1577160e11b613c6e565b600054610100900460ff16613c135760405162461bcd60e51b8152600401611197906150d7565b613c23631a056e7160e01b613c6e565b6125716000805160206151f0833981519152826135e3565b600054610100900460ff16613c625760405162461bcd60e51b8152600401611197906150d7565b61196d63714ad8e760e01b5b6001600160e01b03198082169003613cc75760405162461bcd60e51b815260206004820152601c60248201527b115490cc4d8d4e881a5b9d985b1a59081a5b9d195c999858d9481a5960221b6044820152606401611197565b6001600160e01b0319166000908152600160208190526040909120805460ff19169091179055565b600054610100900460ff16613d165760405162461bcd60e51b8152600401611197906150d7565b613d266317e0bac360e31b613c6e565b601a91909155601b55565b600054610100900460ff16613d585760405162461bcd60e51b8152600401611197906150d7565b613d68633a47bf5160e11b613c6e565b613d7863152a902d60e11b613c6e565b613d8863c69dbd8f60e01b613c6e565b613d9863656cb66560e11b613c6e565b604080518082019091526001600160a01b038316815261ffff8216602082015261157a81613538565b600054610100900460ff166121c55760405162461bcd60e51b8152600401611197906150d7565b613df28383614161565b6001600160a01b0383163b1561157a576003548281035b613e1c6000868380600101945086612fd6565b613e39576040516368d2bf6b60e11b815260040160405180910390fd5b818110613e09578160035414613e4e57600080fd5b5050505050565b60606000613e64836002614b33565b613e6f906002614e1a565b6001600160401b03811115613e8657613e86614536565b6040519080825280601f01601f191660200182016040528015613eb0576020820181803683370190505b509050600360fc1b81600081518110613ecb57613ecb614b7c565b60200101906001600160f81b031916908160001a905350600f60fb1b81600181518110613efa57613efa614b7c565b60200101906001600160f81b031916908160001a9053506000613f1e846002614b33565b613f29906001614e1a565b90505b6001811115613fa1576f181899199a1a9b1b9c1cb0b131b232b360811b85600f1660108110613f5d57613f5d614b7c565b1a60f81b828281518110613f7357613f73614b7c565b60200101906001600160f81b031916908160001a90535060049490941c93613f9a81615191565b9050613f2c565b50831561285b5760405162461bcd60e51b815260206004820181905260248201527f537472696e67733a20686578206c656e67746820696e73756666696369656e746044820152606401611197565b600081815260018301602052604081205480156140d9576000614014600183615006565b855490915060009061402890600190615006565b905081811461408d57600086600001828154811061404857614048614b7c565b906000526020600020015490508087600001848154811061406b5761406b614b7c565b6000918252602080832090910192909255918252600188019052604090208390555b855486908061409e5761409e6151a8565b600190038181906000526020600020016000905590558560010160008681526020019081526020016000206000905560019350505050610fb0565b6000915050610fb0565b600081815260018301602052604081205461412a57508154600181810184556000848152602080822090930184905584548482528286019093526040902091909155610fb0565b506000610fb0565b600081831061414e57600082815260208490526040902061285b565b600083815260208390526040902061285b565b60035460008290036141865760405163b562e8dd60e01b815260040160405180910390fd5b61419360008483856129dd565b6001600160a01b038316600090815260086020526040902080546001600160401b0184020190556141ca836001841460e11b6129e9565b6000828152600760205260408120919091556001600160a01b0384169083830190839083906000805160206152108339815191528180a4600183015b81811461422c5780836000600080516020615210833981519152600080a4600101614206565b508160000361424d57604051622e076360e81b815260040160405180910390fd5b60035550505050565b6001600160e01b03198116811461257157600080fd5b60006020828403121561427e57600080fd5b813561285b81614256565b60006020828403121561429b57600080fd5b5035919050565b60005b838110156142bd5781810151838201526020016142a5565b83811115611e9d5750506000910152565b600081518084526142e68160208601602086016142a2565b601f01601f19169290920160200192915050565b60208152600061285b60208301846142ce565b80356001600160a01b0381168114612fad57600080fd5b6000806040838503121561433757600080fd5b6143408361430d565b946020939093013593505050565b60008060006060848603121561436357600080fd5b61436c8461430d565b925061437a6020850161430d565b9150604084013590509250925092565b6000806040838503121561439d57600080fd5b50508035926020909101359150565b6001600160a01b03929092168252602082015260400190565b60008083601f8401126143d757600080fd5b5081356001600160401b038111156143ee57600080fd5b6020830191508360208260051b850101111561141357600080fd5b6000806020838503121561441c57600080fd5b82356001600160401b0381111561443257600080fd5b61443e858286016143c5565b90969095509350505050565b6020808252825182820181905260009190848201906040850190845b8181101561448257835183529284019291840191600101614466565b50909695505050505050565b6000602082840312156144a057600080fd5b81356004811061285b57600080fd5b634e487b7160e01b600052602160045260246000fd5b60208101600483106144d9576144d96144af565b91905290565b801515811461257157600080fd5b6000602082840312156144ff57600080fd5b813561285b816144df565b6000806040838503121561451d57600080fd5b8235915061452d6020840161430d565b90509250929050565b634e487b7160e01b600052604160045260246000fd5b6040516101e081016001600160401b038111828210171561456f5761456f614536565b60405290565b60006001600160401b038084111561458f5761458f614536565b604051601f8501601f19908116603f011681019082821181831017156145b7576145b7614536565b816040528093508581528686860111156145d057600080fd5b858560208301376000602087830101525050509392505050565b600082601f8301126145fb57600080fd5b61285b83833560208501614575565b60006020828403121561461c57600080fd5b81356001600160401b0381111561463257600080fd5b61253b848285016145ea565b60208101600683106144d9576144d96144af565b6000806020838503121561466557600080fd5b82356001600160401b038082111561467c57600080fd5b818501915085601f83011261469057600080fd5b81358181111561469f57600080fd5b8660206060830285010111156146b457600080fd5b60209290920196919550909350505050565b6000602082840312156146d857600080fd5b61285b8261430d565b803560068110612fad57600080fd5b60006020828403121561470257600080fd5b61285b826146e1565b6001600160a01b0392909216825261ffff16602082015260400190565b60008060006040848603121561473d57600080fd5b8335925060208401356001600160401b0381111561475a57600080fd5b614766868287016143c5565b9497909650939450505050565b6000806040838503121561478657600080fd5b61478f8361430d565b9150602083013561479f816144df565b809150509250929050565b600080600080608085870312156147c057600080fd5b6147c98561430d565b93506147d76020860161430d565b92506040850135915060608501356001600160401b038111156147f957600080fd5b8501601f8101871361480a57600080fd5b61481987823560208401614575565b91505092959194509250565b602080825282518282018190526000919060409081850190868401855b8281101561487957815180516001600160a01b031685528601516001600160601b0316868501529284019290850190600101614842565b5091979650505050505050565b6000806000806040858703121561489c57600080fd5b84356001600160401b03808211156148b357600080fd5b6148bf888389016143c5565b909650945060208701359150808211156148d857600080fd5b506148e5878288016143c5565b95989497509550505050565b60008060006040848603121561490657600080fd5b61490f8461430d565b925060208401356001600160401b0381111561475a57600080fd5b6000806040838503121561493d57600080fd5b6149468361430d565b915061452d6020840161430d565b60006040828403121561496657600080fd5b50919050565b803561ffff81168114612fad57600080fd5b6000806040838503121561499157600080fd5b82356001600160401b03808211156149a857600080fd5b908401906101e082870312156149bd57600080fd5b6149c561454c565b8235828111156149d457600080fd5b6149e0888286016145ea565b8252506020830135828111156149f557600080fd5b614a01888286016145ea565b602083015250604083013582811115614a1957600080fd5b614a25888286016145ea565b604083015250606083013582811115614a3d57600080fd5b614a49888286016145ea565b606083015250608083013582811115614a6157600080fd5b614a6d888286016145ea565b60808301525060a0838101359082015260c0808401359082015260e08084013590820152610100808401359082015261012080840135908201526101409150614ab782840161430d565b828201526101609150614acb82840161496c565b828201526101809150614adf82840161430d565b828201526101a09150614af382840161430d565b828201526101c09150614b078284016146e1565b8282015280945050505061452d6020840161430d565b634e487b7160e01b600052601160045260246000fd5b6000816000190483118215151615614b4d57614b4d614b1d565b500290565b634e487b7160e01b600052601260045260246000fd5b600082614b7757614b77614b52565b500490565b634e487b7160e01b600052603260045260246000fd5b600060018201614ba457614ba4614b1d565b5060010190565b6020808252600690820152651313d0d2d15160d21b604082015260600190565b600181811c90821680614bdf57607f821691505b60208210810361496657634e487b7160e01b600052602260045260246000fd5b601f82111561157a57600081815260208120601f850160051c81016020861015614c265750805b601f850160051c820191505b8181101561133a57828155600101614c32565b81516001600160401b03811115614c5e57614c5e614536565b614c7281614c6c8454614bcb565b84614bff565b602080601f831160018114614ca75760008415614c8f5750858301515b600019600386901b1c1916600185901b17855561133a565b600085815260208120601f198616915b82811015614cd657888601518255948401946001909101908401614cb7565b5085821015614cf45787850151600019600388901b60f8161c191681555b5050505050600190811b01905550565b600060608284031215614d1657600080fd5b604051606081018181106001600160401b0382111715614d3857614d38614536565b60405282358152614d4b6020840161430d565b6020820152614d5c6040840161496c565b60408201529392505050565b6020808252601f908201527f5265656e7472616e637947756172643a207265656e7472616e742063616c6c00604082015260600190565b6020808252601890820152775354414b41424c455f4e4f545f4c4f434b45525f524f4c4560401b604082015260600190565b6020808252600f908201526e4e4f545f4c4f434b45525f524f4c4560881b604082015260600190565b602080825260069082015265232927ad22a760d11b604082015260600190565b60008219821115614e2d57614e2d614b1d565b500190565b602080825260139082015272125394d551919250d251539517d05353d55395606a1b604082015260600190565b60008351614e718184602088016142a2565b835190830190614e858183602088016142a2565b01949350505050565b600060208284031215614ea057600080fd5b815161285b816144df565b6040808252810184905260008560608301825b87811015614eec576001600160a01b03614ed78461430d565b16825260209283019290910190600101614ebe565b5083810360208501528481526001600160fb1b03851115614f0c57600080fd5b8460051b915081866020830137600091016020019081529695505050505050565b600060408284031215614f3f57600080fd5b604051604081018181106001600160401b0382111715614f6157614f61614536565b604052614f6d8361430d565b8152614f7b6020840161496c565b60208201529392505050565b6020808252600b908201526a496e76616c69642062707360a81b604082015260600190565b6001600160a01b0385811682528416602082015260408101839052608060608201819052600090614fdf908301846142ce565b9695505050505050565b600060208284031215614ffb57600080fd5b815161285b81614256565b60008282101561501857615018614b1d565b500390565b60008261502c5761502c614b52565b500690565b6000815461503e81614bcb565b60018281168015615056576001811461506b5761509a565b60ff198416875282151583028701945061509a565b8560005260208060002060005b858110156150915781548a820152908401908201615078565b50505082870194505b5050505092915050565b60006150b08286615031565b84516150c08183602089016142a2565b6150cc81830186615031565b979650505050505050565b6020808252602b908201527f496e697469616c697a61626c653a20636f6e7472616374206973206e6f74206960408201526a6e697469616c697a696e6760a81b606082015260800190565b76020b1b1b2b9b9a1b7b73a3937b61d1030b1b1b7bab73a1604d1b8152600083516151548160178501602088016142a2565b7001034b99036b4b9b9b4b733903937b6329607d1b60179184019182015283516151858160288401602088016142a2565b01602801949350505050565b6000816151a0576151a0614b1d565b506000190190565b634e487b7160e01b600052603160045260246000fdfe61723a2f2f5f44396b4e3157724e576243713535425341475262544234625333763851415054596d42546853625833412f9f2df0fed2c77648de5860a4cc508cd0818c85b8b8a1ab4ceeef8d981c8956a6ddf252ad1be2c89b69c2b068fc378daa952ba7f163c4a11628f55a4df523b3efaf9a8bb3cbd6b84fbccefa71ff73e26e798553c6914585a84886212a46a90279a264697066735822122005e70b51fb70415a646012f3b00e6697760f8c7194e31f8120298fc6d65fece964736f6c634300080f0033",
  "devdoc": {
    "kind": "dev",
    "methods": {
      "approve(address,uint256)": {
        "details": "Gives permission to `to` to transfer `tokenId` token to another account. The approval is cleared when the token is transferred. Only a single account can be approved at a time, so approving the zero address clears previous approvals. Requirements: - The caller must own the token or be an approved operator. - `tokenId` must exist. Emits an {Approval} event."
      },
      "balanceOf(address)": {
        "details": "Returns the number of tokens in `owner`'s account."
      },
      "getApproved(uint256)": {
        "details": "Returns the account approved for `tokenId` token. Requirements: - `tokenId` must exist."
      },
      "getRoleAdmin(bytes32)": {
        "details": "Returns the admin role that controls `role`. See {grantRole} and {revokeRole}. To change a role's admin, use {_setRoleAdmin}."
      },
      "getTokenRoyaltiesCount()": {
        "details": "See {IEIP2981RoyaltyOverride-getTokenRoyaltiesCount}."
      },
      "getTokenRoyaltyByIndex(uint256)": {
        "details": "See {IEIP2981RoyaltyOverride-getTokenRoyaltyByIndex}."
      },
      "grantRole(bytes32,address)": {
        "details": "Grants `role` to `account`. If `account` had not been already granted `role`, emits a {RoleGranted} event. Requirements: - the caller must have ``role``'s admin role. May emit a {RoleGranted} event."
      },
      "hasRole(bytes32,address)": {
        "details": "Returns `true` if `account` has been granted `role`."
      },
      "isApprovedForAll(address,address)": {
        "details": "Returns if the `operator` is allowed to manage all of the assets of `owner`. See {setApprovalForAll}."
      },
      "owner()": {
        "details": "Returns the address of the current owner."
      },
      "ownerOf(uint256)": {
        "details": "Returns the owner of the `tokenId` token. Requirements: - `tokenId` must exist."
      },
      "renounceOwnership()": {
        "details": "Leaves the contract without owner. It will not be possible to call `onlyOwner` functions anymore. Can only be called by the current owner. NOTE: Renouncing ownership will leave the contract without an owner, thereby removing any functionality that is only available to the owner."
      },
      "renounceRole(bytes32,address)": {
        "details": "Revokes `role` from the calling account. Roles are often managed via {grantRole} and {revokeRole}: this function's purpose is to provide a mechanism for accounts to lose their privileges if they are compromised (such as when a trusted device is misplaced). If the calling account had been revoked `role`, emits a {RoleRevoked} event. Requirements: - the caller must be `account`. May emit a {RoleRevoked} event."
      },
      "revokeRole(bytes32,address)": {
        "details": "Revokes `role` from `account`. If `account` had been granted `role`, emits a {RoleRevoked} event. Requirements: - the caller must have ``role``'s admin role. May emit a {RoleRevoked} event."
      },
      "royaltyInfo(uint256,uint256)": {
        "details": "See {IEIP2981RoyaltyOverride-royaltyInfo}."
      },
      "safeTransferFrom(address,address,uint256)": {
        "details": "Equivalent to `safeTransferFrom(from, to, tokenId, '')`."
      },
      "safeTransferFrom(address,address,uint256,bytes)": {
        "details": "Safely transfers `tokenId` token from `from` to `to`. Requirements: - `from` cannot be the zero address. - `to` cannot be the zero address. - `tokenId` token must exist and be owned by `from`. - If the caller is not `from`, it must be approved to move this token by either {approve} or {setApprovalForAll}. - If `to` refers to a smart contract, it must implement {IERC721Receiver-onERC721Received}, which is called upon a safe transfer. Emits a {Transfer} event."
      },
      "setApprovalForAll(address,bool)": {
        "details": "Approve or remove `operator` as an operator for the caller. Operators can call {transferFrom} or {safeTransferFrom} for any token owned by the caller. Requirements: - The `operator` cannot be the caller. Emits an {ApprovalForAll} event."
      },
      "totalSupply()": {
        "details": "Returns the total number of tokens in existence. Burned tokens will reduce the count. To get the total number of tokens minted, please see {_totalMinted}."
      },
      "transferFrom(address,address,uint256)": {
        "details": "Transfers `tokenId` from `from` to `to`. Requirements: - `from` cannot be the zero address. - `to` cannot be the zero address. - `tokenId` token must be owned by `from`. - If the caller is not `from`, it must be approved to move this token by either {approve} or {setApprovalForAll}. Emits a {Transfer} event."
      },
      "transferOwnership(address)": {
        "details": "Transfers ownership of the contract to a new account (`newOwner`). Can only be called by the current owner."
      }
    },
    "version": 1
  },
  "userdoc": {
    "errors": {
      "ApprovalCallerNotOwnerNorApproved()": [
        {
          "notice": "The caller must own the token or be an approved operator."
        }
      ],
      "ApprovalQueryForNonexistentToken()": [
        {
          "notice": "The token does not exist."
        }
      ],
      "ApproveToCaller()": [
        {
          "notice": "The caller cannot approve to their own address."
        }
      ],
      "BalanceQueryForZeroAddress()": [
        {
          "notice": "Cannot query the balance for the zero address."
        }
      ],
      "MintERC2309QuantityExceedsLimit()": [
        {
          "notice": "The `quantity` minted with ERC2309 exceeds the safety limit."
        }
      ],
      "MintToZeroAddress()": [
        {
          "notice": "Cannot mint to the zero address."
        }
      ],
      "MintZeroQuantity()": [
        {
          "notice": "The quantity of tokens minted must be more than zero."
        }
      ],
      "OwnerQueryForNonexistentToken()": [
        {
          "notice": "The token does not exist."
        }
      ],
      "OwnershipNotInitializedForExtraData()": [
        {
          "notice": "The `extraData` cannot be set on an unintialized ownership slot."
        }
      ],
      "TransferCallerNotOwnerNorApproved()": [
        {
          "notice": "The caller must own the token or be an approved operator."
        }
      ],
      "TransferFromIncorrectOwner()": [
        {
          "notice": "The token must be owned by `from`."
        }
      ],
      "TransferToNonERC721ReceiverImplementer()": [
        {
          "notice": "Cannot safely transfer to a contract that does not implement the ERC721Receiver interface."
        }
      ],
      "TransferToZeroAddress()": [
        {
          "notice": "Cannot transfer to the zero address."
        }
      ],
      "URIQueryForNonexistentToken()": [
        {
          "notice": "The token does not exist."
        }
      ]
    },
    "kind": "user",
    "methods": {
      "lock(uint256)": {
        "notice": "Locks token(s) to effectively lock them, while keeping in the same wallet. This mechanism prevents them from being transferred, yet still will show correct owner."
      },
      "locked(uint256)": {
        "notice": "Returns if a token is locked or not."
      },
      "unlock(uint256)": {
        "notice": "Unlocks locked token(s) to be able to transfer."
      }
    },
    "version": 1
  },
  "storageLayout": {
    "storage": [
      {
        "astId": 1101,
        "contract": "contracts/collections/ERC721A/presets/ERC721ASimpleSalesCollection.sol:ERC721ASimpleSalesCollection",
        "label": "_initialized",
        "offset": 0,
        "slot": "0",
        "type": "t_uint8"
      },
      {
        "astId": 1104,
        "contract": "contracts/collections/ERC721A/presets/ERC721ASimpleSalesCollection.sol:ERC721ASimpleSalesCollection",
        "label": "_initializing",
        "offset": 1,
        "slot": "0",
        "type": "t_bool"
      },
      {
        "astId": 937,
        "contract": "contracts/collections/ERC721A/presets/ERC721ASimpleSalesCollection.sol:ERC721ASimpleSalesCollection",
        "label": "_owner",
        "offset": 2,
        "slot": "0",
        "type": "t_address"
      },
      {
        "astId": 5404,
        "contract": "contracts/collections/ERC721A/presets/ERC721ASimpleSalesCollection.sol:ERC721ASimpleSalesCollection",
        "label": "_supportedInterfaces",
        "offset": 0,
        "slot": "1",
        "type": "t_mapping(t_bytes4,t_bool)"
      },
      {
        "astId": 14730,
        "contract": "contracts/collections/ERC721A/presets/ERC721ASimpleSalesCollection.sol:ERC721ASimpleSalesCollection",
        "label": "withdrawRecipient",
        "offset": 0,
        "slot": "2",
        "type": "t_address"
      },
      {
        "astId": 14732,
        "contract": "contracts/collections/ERC721A/presets/ERC721ASimpleSalesCollection.sol:ERC721ASimpleSalesCollection",
        "label": "withdrawRecipientLocked",
        "offset": 20,
        "slot": "2",
        "type": "t_bool"
      },
      {
        "astId": 14734,
        "contract": "contracts/collections/ERC721A/presets/ERC721ASimpleSalesCollection.sol:ERC721ASimpleSalesCollection",
        "label": "withdrawPowerRevoked",
        "offset": 21,
        "slot": "2",
        "type": "t_bool"
      },
      {
        "astId": 14737,
        "contract": "contracts/collections/ERC721A/presets/ERC721ASimpleSalesCollection.sol:ERC721ASimpleSalesCollection",
        "label": "withdrawMode",
        "offset": 22,
        "slot": "2",
        "type": "t_enum(WithdrawMode)14674"
      },
      {
        "astId": 14739,
        "contract": "contracts/collections/ERC721A/presets/ERC721ASimpleSalesCollection.sol:ERC721ASimpleSalesCollection",
        "label": "withdrawModeLocked",
        "offset": 23,
        "slot": "2",
        "type": "t_bool"
      },
      {
        "astId": 24,
        "contract": "contracts/collections/ERC721A/presets/ERC721ASimpleSalesCollection.sol:ERC721ASimpleSalesCollection",
        "label": "licenseVersion",
        "offset": 24,
        "slot": "2",
        "type": "t_enum(LicenseVersion)11"
      },
      {
        "astId": 14563,
        "contract": "contracts/collections/ERC721A/presets/ERC721ASimpleSalesCollection.sol:ERC721ASimpleSalesCollection",
        "label": "licenseVersionLocked",
        "offset": 25,
        "slot": "2",
        "type": "t_bool"
      },
      {
        "astId": 21533,
        "contract": "contracts/collections/ERC721A/presets/ERC721ASimpleSalesCollection.sol:ERC721ASimpleSalesCollection",
        "label": "_currentIndex",
        "offset": 0,
        "slot": "3",
        "type": "t_uint256"
      },
      {
        "astId": 21535,
        "contract": "contracts/collections/ERC721A/presets/ERC721ASimpleSalesCollection.sol:ERC721ASimpleSalesCollection",
        "label": "_burnCounter",
        "offset": 0,
        "slot": "4",
        "type": "t_uint256"
      },
      {
        "astId": 21537,
        "contract": "contracts/collections/ERC721A/presets/ERC721ASimpleSalesCollection.sol:ERC721ASimpleSalesCollection",
        "label": "_name",
        "offset": 0,
        "slot": "5",
        "type": "t_string_storage"
      },
      {
        "astId": 21539,
        "contract": "contracts/collections/ERC721A/presets/ERC721ASimpleSalesCollection.sol:ERC721ASimpleSalesCollection",
        "label": "_symbol",
        "offset": 0,
        "slot": "6",
        "type": "t_string_storage"
      },
      {
        "astId": 21543,
        "contract": "contracts/collections/ERC721A/presets/ERC721ASimpleSalesCollection.sol:ERC721ASimpleSalesCollection",
        "label": "_packedOwnerships",
        "offset": 0,
        "slot": "7",
        "type": "t_mapping(t_uint256,t_uint256)"
      },
      {
        "astId": 21547,
        "contract": "contracts/collections/ERC721A/presets/ERC721ASimpleSalesCollection.sol:ERC721ASimpleSalesCollection",
        "label": "_packedAddressData",
        "offset": 0,
        "slot": "8",
        "type": "t_mapping(t_address,t_uint256)"
      },
      {
        "astId": 21552,
        "contract": "contracts/collections/ERC721A/presets/ERC721ASimpleSalesCollection.sol:ERC721ASimpleSalesCollection",
        "label": "_tokenApprovals",
        "offset": 0,
        "slot": "9",
        "type": "t_mapping(t_uint256,t_struct(TokenApprovalRef)21465_storage)"
      },
      {
        "astId": 21558,
        "contract": "contracts/collections/ERC721A/presets/ERC721ASimpleSalesCollection.sol:ERC721ASimpleSalesCollection",
        "label": "_operatorApprovals",
        "offset": 0,
        "slot": "10",
        "type": "t_mapping(t_address,t_mapping(t_address,t_bool))"
      },
      {
        "astId": 10995,
        "contract": "contracts/collections/ERC721A/presets/ERC721ASimpleSalesCollection.sol:ERC721ASimpleSalesCollection",
        "label": "_name",
        "offset": 0,
        "slot": "11",
        "type": "t_string_storage"
      },
      {
        "astId": 10997,
        "contract": "contracts/collections/ERC721A/presets/ERC721ASimpleSalesCollection.sol:ERC721ASimpleSalesCollection",
        "label": "_symbol",
        "offset": 0,
        "slot": "12",
        "type": "t_string_storage"
      },
      {
        "astId": 10999,
        "contract": "contracts/collections/ERC721A/presets/ERC721ASimpleSalesCollection.sol:ERC721ASimpleSalesCollection",
        "label": "_contractURI",
        "offset": 0,
        "slot": "13",
        "type": "t_string_storage"
      },
      {
        "astId": 12431,
        "contract": "contracts/collections/ERC721A/presets/ERC721ASimpleSalesCollection.sol:ERC721ASimpleSalesCollection",
        "label": "_placeholderURI",
        "offset": 0,
        "slot": "14",
        "type": "t_string_storage"
      },
      {
        "astId": 12433,
        "contract": "contracts/collections/ERC721A/presets/ERC721ASimpleSalesCollection.sol:ERC721ASimpleSalesCollection",
        "label": "_tokenURIPrefix",
        "offset": 0,
        "slot": "15",
        "type": "t_string_storage"
      },
      {
        "astId": 12435,
        "contract": "contracts/collections/ERC721A/presets/ERC721ASimpleSalesCollection.sol:ERC721ASimpleSalesCollection",
        "label": "_tokenURISuffix",
        "offset": 0,
        "slot": "16",
        "type": "t_string_storage"
      },
      {
        "astId": 12437,
        "contract": "contracts/collections/ERC721A/presets/ERC721ASimpleSalesCollection.sol:ERC721ASimpleSalesCollection",
        "label": "tokenURIFrozen",
        "offset": 0,
        "slot": "17",
        "type": "t_bool"
      },
      {
        "astId": 11447,
        "contract": "contracts/collections/ERC721A/presets/ERC721ASimpleSalesCollection.sol:ERC721ASimpleSalesCollection",
        "label": "maxSupply",
        "offset": 0,
        "slot": "18",
        "type": "t_uint256"
      },
      {
        "astId": 11449,
        "contract": "contracts/collections/ERC721A/presets/ERC721ASimpleSalesCollection.sol:ERC721ASimpleSalesCollection",
        "label": "maxSupplyFrozen",
        "offset": 0,
        "slot": "19",
        "type": "t_bool"
      },
      {
        "astId": 1364,
        "contract": "contracts/collections/ERC721A/presets/ERC721ASimpleSalesCollection.sol:ERC721ASimpleSalesCollection",
        "label": "_status",
        "offset": 0,
        "slot": "20",
        "type": "t_uint256"
      },
      {
        "astId": 12193,
        "contract": "contracts/collections/ERC721A/presets/ERC721ASimpleSalesCollection.sol:ERC721ASimpleSalesCollection",
        "label": "preSalePrice",
        "offset": 0,
        "slot": "21",
        "type": "t_uint256"
      },
      {
        "astId": 12195,
        "contract": "contracts/collections/ERC721A/presets/ERC721ASimpleSalesCollection.sol:ERC721ASimpleSalesCollection",
        "label": "preSaleMaxMintPerWallet",
        "offset": 0,
        "slot": "22",
        "type": "t_uint256"
      },
      {
        "astId": 12197,
        "contract": "contracts/collections/ERC721A/presets/ERC721ASimpleSalesCollection.sol:ERC721ASimpleSalesCollection",
        "label": "preSaleAllowlistMerkleRoot",
        "offset": 0,
        "slot": "23",
        "type": "t_bytes32"
      },
      {
        "astId": 12199,
        "contract": "contracts/collections/ERC721A/presets/ERC721ASimpleSalesCollection.sol:ERC721ASimpleSalesCollection",
        "label": "preSaleStatus",
        "offset": 0,
        "slot": "24",
        "type": "t_bool"
      },
      {
        "astId": 12203,
        "contract": "contracts/collections/ERC721A/presets/ERC721ASimpleSalesCollection.sol:ERC721ASimpleSalesCollection",
        "label": "preSaleAllowlistClaimed",
        "offset": 0,
        "slot": "25",
        "type": "t_mapping(t_address,t_uint256)"
      },
      {
        "astId": 12644,
        "contract": "contracts/collections/ERC721A/presets/ERC721ASimpleSalesCollection.sol:ERC721ASimpleSalesCollection",
        "label": "publicSalePrice",
        "offset": 0,
        "slot": "26",
        "type": "t_uint256"
      },
      {
        "astId": 12646,
        "contract": "contracts/collections/ERC721A/presets/ERC721ASimpleSalesCollection.sol:ERC721ASimpleSalesCollection",
        "label": "publicSaleMaxMintPerTx",
        "offset": 0,
        "slot": "27",
        "type": "t_uint256"
      },
      {
        "astId": 12648,
        "contract": "contracts/collections/ERC721A/presets/ERC721ASimpleSalesCollection.sol:ERC721ASimpleSalesCollection",
        "label": "publicSaleStatus",
        "offset": 0,
        "slot": "28",
        "type": "t_bool"
      },
      {
        "astId": 11248,
        "contract": "contracts/collections/ERC721A/presets/ERC721ASimpleSalesCollection.sol:ERC721ASimpleSalesCollection",
        "label": "lockedTokens",
        "offset": 0,
        "slot": "29",
        "type": "t_struct(BitMap)5776_storage"
      },
      {
        "astId": 561,
        "contract": "contracts/collections/ERC721A/presets/ERC721ASimpleSalesCollection.sol:ERC721ASimpleSalesCollection",
        "label": "_roles",
        "offset": 0,
        "slot": "30",
        "type": "t_mapping(t_bytes32,t_struct(RoleData)556_storage)"
      },
      {
        "astId": 241,
        "contract": "contracts/collections/ERC721A/presets/ERC721ASimpleSalesCollection.sol:ERC721ASimpleSalesCollection",
        "label": "defaultRoyalty",
        "offset": 0,
        "slot": "31",
        "type": "t_struct(TokenRoyalty)183_storage"
      },
      {
        "astId": 246,
        "contract": "contracts/collections/ERC721A/presets/ERC721ASimpleSalesCollection.sol:ERC721ASimpleSalesCollection",
        "label": "_tokenRoyalties",
        "offset": 0,
        "slot": "32",
        "type": "t_mapping(t_uint256,t_struct(TokenRoyalty)183_storage)"
      },
      {
        "astId": 249,
        "contract": "contracts/collections/ERC721A/presets/ERC721ASimpleSalesCollection.sol:ERC721ASimpleSalesCollection",
        "label": "_tokensWithRoyalties",
        "offset": 0,
        "slot": "33",
        "type": "t_struct(UintSet)6375_storage"
      },
      {
        "astId": 15010,
        "contract": "contracts/collections/ERC721A/presets/ERC721ASimpleSalesCollection.sol:ERC721ASimpleSalesCollection",
        "label": "_trustedForwarder",
        "offset": 0,
        "slot": "35",
        "type": "t_address"
      }
    ],
    "types": {
      "t_address": {
        "encoding": "inplace",
        "label": "address",
        "numberOfBytes": "20"
      },
      "t_array(t_bytes32)dyn_storage": {
        "base": "t_bytes32",
        "encoding": "dynamic_array",
        "label": "bytes32[]",
        "numberOfBytes": "32"
      },
      "t_bool": {
        "encoding": "inplace",
        "label": "bool",
        "numberOfBytes": "1"
      },
      "t_bytes32": {
        "encoding": "inplace",
        "label": "bytes32",
        "numberOfBytes": "32"
      },
      "t_bytes4": {
        "encoding": "inplace",
        "label": "bytes4",
        "numberOfBytes": "4"
      },
      "t_enum(LicenseVersion)11": {
        "encoding": "inplace",
        "label": "enum LicenseVersion",
        "numberOfBytes": "1"
      },
      "t_enum(WithdrawMode)14674": {
        "encoding": "inplace",
        "label": "enum WithdrawMode",
        "numberOfBytes": "1"
      },
      "t_mapping(t_address,t_bool)": {
        "encoding": "mapping",
        "key": "t_address",
        "label": "mapping(address => bool)",
        "numberOfBytes": "32",
        "value": "t_bool"
      },
      "t_mapping(t_address,t_mapping(t_address,t_bool))": {
        "encoding": "mapping",
        "key": "t_address",
        "label": "mapping(address => mapping(address => bool))",
        "numberOfBytes": "32",
        "value": "t_mapping(t_address,t_bool)"
      },
      "t_mapping(t_address,t_uint256)": {
        "encoding": "mapping",
        "key": "t_address",
        "label": "mapping(address => uint256)",
        "numberOfBytes": "32",
        "value": "t_uint256"
      },
      "t_mapping(t_bytes32,t_struct(RoleData)556_storage)": {
        "encoding": "mapping",
        "key": "t_bytes32",
        "label": "mapping(bytes32 => struct AccessControl.RoleData)",
        "numberOfBytes": "32",
        "value": "t_struct(RoleData)556_storage"
      },
      "t_mapping(t_bytes32,t_uint256)": {
        "encoding": "mapping",
        "key": "t_bytes32",
        "label": "mapping(bytes32 => uint256)",
        "numberOfBytes": "32",
        "value": "t_uint256"
      },
      "t_mapping(t_bytes4,t_bool)": {
        "encoding": "mapping",
        "key": "t_bytes4",
        "label": "mapping(bytes4 => bool)",
        "numberOfBytes": "32",
        "value": "t_bool"
      },
      "t_mapping(t_uint256,t_struct(TokenApprovalRef)21465_storage)": {
        "encoding": "mapping",
        "key": "t_uint256",
        "label": "mapping(uint256 => struct ERC721A.TokenApprovalRef)",
        "numberOfBytes": "32",
        "value": "t_struct(TokenApprovalRef)21465_storage"
      },
      "t_mapping(t_uint256,t_struct(TokenRoyalty)183_storage)": {
        "encoding": "mapping",
        "key": "t_uint256",
        "label": "mapping(uint256 => struct IEIP2981RoyaltyOverride.TokenRoyalty)",
        "numberOfBytes": "32",
        "value": "t_struct(TokenRoyalty)183_storage"
      },
      "t_mapping(t_uint256,t_uint256)": {
        "encoding": "mapping",
        "key": "t_uint256",
        "label": "mapping(uint256 => uint256)",
        "numberOfBytes": "32",
        "value": "t_uint256"
      },
      "t_string_storage": {
        "encoding": "bytes",
        "label": "string",
        "numberOfBytes": "32"
      },
      "t_struct(BitMap)5776_storage": {
        "encoding": "inplace",
        "label": "struct BitMaps.BitMap",
        "members": [
          {
            "astId": 5775,
            "contract": "contracts/collections/ERC721A/presets/ERC721ASimpleSalesCollection.sol:ERC721ASimpleSalesCollection",
            "label": "_data",
            "offset": 0,
            "slot": "0",
            "type": "t_mapping(t_uint256,t_uint256)"
          }
        ],
        "numberOfBytes": "32"
      },
      "t_struct(RoleData)556_storage": {
        "encoding": "inplace",
        "label": "struct AccessControl.RoleData",
        "members": [
          {
            "astId": 553,
            "contract": "contracts/collections/ERC721A/presets/ERC721ASimpleSalesCollection.sol:ERC721ASimpleSalesCollection",
            "label": "members",
            "offset": 0,
            "slot": "0",
            "type": "t_mapping(t_address,t_bool)"
          },
          {
            "astId": 555,
            "contract": "contracts/collections/ERC721A/presets/ERC721ASimpleSalesCollection.sol:ERC721ASimpleSalesCollection",
            "label": "adminRole",
            "offset": 0,
            "slot": "1",
            "type": "t_bytes32"
          }
        ],
        "numberOfBytes": "64"
      },
      "t_struct(Set)5917_storage": {
        "encoding": "inplace",
        "label": "struct EnumerableSet.Set",
        "members": [
          {
            "astId": 5912,
            "contract": "contracts/collections/ERC721A/presets/ERC721ASimpleSalesCollection.sol:ERC721ASimpleSalesCollection",
            "label": "_values",
            "offset": 0,
            "slot": "0",
            "type": "t_array(t_bytes32)dyn_storage"
          },
          {
            "astId": 5916,
            "contract": "contracts/collections/ERC721A/presets/ERC721ASimpleSalesCollection.sol:ERC721ASimpleSalesCollection",
            "label": "_indexes",
            "offset": 0,
            "slot": "1",
            "type": "t_mapping(t_bytes32,t_uint256)"
          }
        ],
        "numberOfBytes": "64"
      },
      "t_struct(TokenApprovalRef)21465_storage": {
        "encoding": "inplace",
        "label": "struct ERC721A.TokenApprovalRef",
        "members": [
          {
            "astId": 21464,
            "contract": "contracts/collections/ERC721A/presets/ERC721ASimpleSalesCollection.sol:ERC721ASimpleSalesCollection",
            "label": "value",
            "offset": 0,
            "slot": "0",
            "type": "t_address"
          }
        ],
        "numberOfBytes": "32"
      },
      "t_struct(TokenRoyalty)183_storage": {
        "encoding": "inplace",
        "label": "struct IEIP2981RoyaltyOverride.TokenRoyalty",
        "members": [
          {
            "astId": 180,
            "contract": "contracts/collections/ERC721A/presets/ERC721ASimpleSalesCollection.sol:ERC721ASimpleSalesCollection",
            "label": "recipient",
            "offset": 0,
            "slot": "0",
            "type": "t_address"
          },
          {
            "astId": 182,
            "contract": "contracts/collections/ERC721A/presets/ERC721ASimpleSalesCollection.sol:ERC721ASimpleSalesCollection",
            "label": "bps",
            "offset": 20,
            "slot": "0",
            "type": "t_uint16"
          }
        ],
        "numberOfBytes": "32"
      },
      "t_struct(UintSet)6375_storage": {
        "encoding": "inplace",
        "label": "struct EnumerableSet.UintSet",
        "members": [
          {
            "astId": 6374,
            "contract": "contracts/collections/ERC721A/presets/ERC721ASimpleSalesCollection.sol:ERC721ASimpleSalesCollection",
            "label": "_inner",
            "offset": 0,
            "slot": "0",
            "type": "t_struct(Set)5917_storage"
          }
        ],
        "numberOfBytes": "64"
      },
      "t_uint16": {
        "encoding": "inplace",
        "label": "uint16",
        "numberOfBytes": "2"
      },
      "t_uint256": {
        "encoding": "inplace",
        "label": "uint256",
        "numberOfBytes": "32"
      },
      "t_uint8": {
        "encoding": "inplace",
        "label": "uint8",
        "numberOfBytes": "1"
      }
    }
  }
}