{
  "address": "0x73fb9dDfA54EC7d0fecC22c88B8e9E98a2C1bF78",
  "abi": [
    {
      "inputs": [],
      "name": "ApprovalCallerNotOwnerNorApproved",
      "type": "error"
    },
    {
      "inputs": [],
      "name": "ApprovalQueryForNonexistentToken",
      "type": "error"
    },
    {
      "inputs": [],
      "name": "ApproveToCaller",
      "type": "error"
    },
    {
      "inputs": [],
      "name": "BalanceQueryForZeroAddress",
      "type": "error"
    },
    {
      "inputs": [],
      "name": "ErrMaxSupplyExceeded",
      "type": "error"
    },
    {
      "inputs": [],
      "name": "ErrSenderIsNotSelf",
      "type": "error"
    },
    {
      "inputs": [
        {
          "internalType": "uint256",
          "name": "tokenId",
          "type": "uint256"
        }
      ],
      "name": "ErrTokenLocked",
      "type": "error"
    },
    {
      "inputs": [],
      "name": "MintERC2309QuantityExceedsLimit",
      "type": "error"
    },
    {
      "inputs": [],
      "name": "MintToZeroAddress",
      "type": "error"
    },
    {
      "inputs": [],
      "name": "MintZeroQuantity",
      "type": "error"
    },
    {
      "inputs": [
        {
          "internalType": "address",
          "name": "operator",
          "type": "address"
        }
      ],
      "name": "OperatorNotAllowed",
      "type": "error"
    },
    {
      "inputs": [],
      "name": "OwnerQueryForNonexistentToken",
      "type": "error"
    },
    {
      "inputs": [],
      "name": "OwnershipNotInitializedForExtraData",
      "type": "error"
    },
    {
      "inputs": [],
      "name": "TransferCallerNotOwnerNorApproved",
      "type": "error"
    },
    {
      "inputs": [],
      "name": "TransferFromIncorrectOwner",
      "type": "error"
    },
    {
      "inputs": [],
      "name": "TransferToNonERC721ReceiverImplementer",
      "type": "error"
    },
    {
      "inputs": [],
      "name": "TransferToZeroAddress",
      "type": "error"
    },
    {
      "inputs": [],
      "name": "URIQueryForNonexistentToken",
      "type": "error"
    },
    {
      "anonymous": false,
      "inputs": [
        {
          "indexed": true,
          "internalType": "address",
          "name": "owner",
          "type": "address"
        },
        {
          "indexed": true,
          "internalType": "address",
          "name": "approved",
          "type": "address"
        },
        {
          "indexed": true,
          "internalType": "uint256",
          "name": "tokenId",
          "type": "uint256"
        }
      ],
      "name": "Approval",
      "type": "event"
    },
    {
      "anonymous": false,
      "inputs": [
        {
          "indexed": true,
          "internalType": "address",
          "name": "owner",
          "type": "address"
        },
        {
          "indexed": true,
          "internalType": "address",
          "name": "operator",
          "type": "address"
        },
        {
          "indexed": false,
          "internalType": "bool",
          "name": "approved",
          "type": "bool"
        }
      ],
      "name": "ApprovalForAll",
      "type": "event"
    },
    {
      "anonymous": false,
      "inputs": [
        {
          "indexed": true,
          "internalType": "uint256",
          "name": "fromTokenId",
          "type": "uint256"
        },
        {
          "indexed": false,
          "internalType": "uint256",
          "name": "toTokenId",
          "type": "uint256"
        },
        {
          "indexed": true,
          "internalType": "address",
          "name": "from",
          "type": "address"
        },
        {
          "indexed": true,
          "internalType": "address",
          "name": "to",
          "type": "address"
        }
      ],
      "name": "ConsecutiveTransfer",
      "type": "event"
    },
    {
      "anonymous": false,
      "inputs": [
        {
          "indexed": false,
          "internalType": "uint256",
          "name": "tokenId",
          "type": "uint256"
        }
      ],
      "name": "Locked",
      "type": "event"
    },
    {
      "anonymous": false,
      "inputs": [
        {
          "indexed": true,
          "internalType": "address",
          "name": "from",
          "type": "address"
        },
        {
          "indexed": true,
          "internalType": "address",
          "name": "to",
          "type": "address"
        },
        {
          "indexed": true,
          "internalType": "uint256",
          "name": "tokenId",
          "type": "uint256"
        }
      ],
      "name": "Transfer",
      "type": "event"
    },
    {
      "anonymous": false,
      "inputs": [
        {
          "indexed": false,
          "internalType": "uint256",
          "name": "tokenId",
          "type": "uint256"
        }
      ],
      "name": "Unlocked",
      "type": "event"
    },
    {
      "inputs": [
        {
          "internalType": "address",
          "name": "to",
          "type": "address"
        },
        {
          "internalType": "uint256",
          "name": "tokenId",
          "type": "uint256"
        }
      ],
      "name": "approve",
      "outputs": [],
      "stateMutability": "nonpayable",
      "type": "function"
    },
    {
      "inputs": [
        {
          "internalType": "address",
          "name": "owner",
          "type": "address"
        }
      ],
      "name": "balanceOf",
      "outputs": [
        {
          "internalType": "uint256",
          "name": "",
          "type": "uint256"
        }
      ],
      "stateMutability": "view",
      "type": "function"
    },
    {
      "inputs": [
        {
          "internalType": "uint256",
          "name": "id",
          "type": "uint256"
        }
      ],
      "name": "burn",
      "outputs": [],
      "stateMutability": "nonpayable",
      "type": "function"
    },
    {
      "inputs": [
        {
          "internalType": "uint256[]",
          "name": "ids",
          "type": "uint256[]"
        }
      ],
      "name": "burnBatch",
      "outputs": [],
      "stateMutability": "nonpayable",
      "type": "function"
    },
    {
      "inputs": [
        {
          "internalType": "uint256[]",
          "name": "ids",
          "type": "uint256[]"
        }
      ],
      "name": "burnBatchByFacet",
      "outputs": [],
      "stateMutability": "nonpayable",
      "type": "function"
    },
    {
      "inputs": [
        {
          "internalType": "uint256",
          "name": "id",
          "type": "uint256"
        }
      ],
      "name": "burnByFacet",
      "outputs": [],
      "stateMutability": "nonpayable",
      "type": "function"
    },
    {
      "inputs": [
        {
          "internalType": "uint256",
          "name": "tokenId",
          "type": "uint256"
        }
      ],
      "name": "getApproved",
      "outputs": [
        {
          "internalType": "address",
          "name": "",
          "type": "address"
        }
      ],
      "stateMutability": "view",
      "type": "function"
    },
    {
      "inputs": [
        {
          "internalType": "address",
          "name": "owner",
          "type": "address"
        },
        {
          "internalType": "address",
          "name": "operator",
          "type": "address"
        }
      ],
      "name": "isApprovedForAll",
      "outputs": [
        {
          "internalType": "bool",
          "name": "",
          "type": "bool"
        }
      ],
      "stateMutability": "view",
      "type": "function"
    },
    {
      "inputs": [
        {
          "internalType": "uint256",
          "name": "id",
          "type": "uint256"
        }
      ],
      "name": "lockByFacet",
      "outputs": [],
      "stateMutability": "nonpayable",
      "type": "function"
    },
    {
      "inputs": [
        {
          "internalType": "uint256[]",
          "name": "ids",
          "type": "uint256[]"
        }
      ],
      "name": "lockByFacet",
      "outputs": [],
      "stateMutability": "nonpayable",
      "type": "function"
    },
    {
      "inputs": [
        {
          "internalType": "uint256[]",
          "name": "ticketTokenIds",
          "type": "uint256[]"
        }
      ],
      "name": "locked",
      "outputs": [
        {
          "internalType": "bool[]",
          "name": "states",
          "type": "bool[]"
        }
      ],
      "stateMutability": "view",
      "type": "function"
    },
    {
      "inputs": [
        {
          "internalType": "uint256",
          "name": "tokenId",
          "type": "uint256"
        }
      ],
      "name": "locked",
      "outputs": [
        {
          "internalType": "bool",
          "name": "",
          "type": "bool"
        }
      ],
      "stateMutability": "view",
      "type": "function"
    },
    {
      "inputs": [],
      "name": "maxSupply",
      "outputs": [
        {
          "internalType": "uint256",
          "name": "",
          "type": "uint256"
        }
      ],
      "stateMutability": "view",
      "type": "function"
    },
    {
      "inputs": [
        {
          "internalType": "address",
          "name": "to",
          "type": "address"
        },
        {
          "internalType": "uint256",
          "name": "amount",
          "type": "uint256"
        }
      ],
      "name": "mintByFacet",
      "outputs": [],
      "stateMutability": "nonpayable",
      "type": "function"
    },
    {
      "inputs": [
        {
          "internalType": "address[]",
          "name": "tos",
          "type": "address[]"
        },
        {
          "internalType": "uint256[]",
          "name": "amounts",
          "type": "uint256[]"
        }
      ],
      "name": "mintByFacet",
      "outputs": [],
      "stateMutability": "nonpayable",
      "type": "function"
    },
    {
      "inputs": [
        {
          "internalType": "address[]",
          "name": "tos",
          "type": "address[]"
        },
        {
          "internalType": "uint256",
          "name": "amount",
          "type": "uint256"
        }
      ],
      "name": "mintByFacet",
      "outputs": [],
      "stateMutability": "nonpayable",
      "type": "function"
    },
    {
      "inputs": [
        {
          "internalType": "uint256",
          "name": "tokenId",
          "type": "uint256"
        }
      ],
      "name": "ownerOf",
      "outputs": [
        {
          "internalType": "address",
          "name": "",
          "type": "address"
        }
      ],
      "stateMutability": "view",
      "type": "function"
    },
    {
      "inputs": [
        {
          "internalType": "address",
          "name": "from",
          "type": "address"
        },
        {
          "internalType": "address",
          "name": "to",
          "type": "address"
        },
        {
          "internalType": "uint256",
          "name": "tokenId",
          "type": "uint256"
        }
      ],
      "name": "safeTransferFrom",
      "outputs": [],
      "stateMutability": "nonpayable",
      "type": "function"
    },
    {
      "inputs": [
        {
          "internalType": "address",
          "name": "from",
          "type": "address"
        },
        {
          "internalType": "address",
          "name": "to",
          "type": "address"
        },
        {
          "internalType": "uint256",
          "name": "tokenId",
          "type": "uint256"
        },
        {
          "internalType": "bytes",
          "name": "data",
          "type": "bytes"
        }
      ],
      "name": "safeTransferFrom",
      "outputs": [],
      "stateMutability": "nonpayable",
      "type": "function"
    },
    {
      "inputs": [
        {
          "internalType": "address",
          "name": "operator",
          "type": "address"
        },
        {
          "internalType": "bool",
          "name": "approved",
          "type": "bool"
        }
      ],
      "name": "setApprovalForAll",
      "outputs": [],
      "stateMutability": "nonpayable",
      "type": "function"
    },
    {
      "inputs": [],
      "name": "totalSupply",
      "outputs": [
        {
          "internalType": "uint256",
          "name": "",
          "type": "uint256"
        }
      ],
      "stateMutability": "view",
      "type": "function"
    },
    {
      "inputs": [
        {
          "internalType": "address",
          "name": "from",
          "type": "address"
        },
        {
          "internalType": "address",
          "name": "to",
          "type": "address"
        },
        {
          "internalType": "uint256",
          "name": "tokenId",
          "type": "uint256"
        }
      ],
      "name": "transferFrom",
      "outputs": [],
      "stateMutability": "nonpayable",
      "type": "function"
    },
    {
      "inputs": [
        {
          "internalType": "uint256[]",
          "name": "ids",
          "type": "uint256[]"
        }
      ],
      "name": "unlockByFacet",
      "outputs": [],
      "stateMutability": "nonpayable",
      "type": "function"
    },
    {
      "inputs": [
        {
          "internalType": "uint256",
          "name": "id",
          "type": "uint256"
        }
      ],
      "name": "unlockByFacet",
      "outputs": [],
      "stateMutability": "nonpayable",
      "type": "function"
    }
  ],
  "transactionHash": "0x9f66a243a09b4630166d41fc5267c9a0e55d882d5ecd9e22af84659b777d1456",
  "args": [],
  "numDeployments": 3,
  "solcInputHash": "41373eaf12b52d564cbc495cd15332a7",
  "bytecode": "0x608060405234801561001057600080fd5b50612294806100206000396000f3fe608060405234801561001057600080fd5b50600436106101985760003560e01c80636352211e116100e3578063b88d4fde1161008c578063e4623c1b11610066578063e4623c1b14610360578063e985e9c514610373578063f9497f341461038657600080fd5b8063b88d4fde14610332578063c7d1bc8314610345578063d5abeb011461035857600080fd5b806392c56e2d116100bd57806392c56e2d146102e9578063a22cb465146102fc578063b45a3c0e1461030f57600080fd5b80636352211e146102b057806370a08231146102c3578063856e31c1146102d657600080fd5b80633d64bec01161014557806349142a141161011f57806349142a14146102775780634a371f641461028a57806352f509671461029d57600080fd5b80633d64bec01461023157806342842e0e1461025157806342966c681461026457600080fd5b806323b872dd1161017657806323b872dd146101f85780632d4f475f1461020b5780633c2a04591461021e57600080fd5b8063081812fc1461019d578063095ea7b3146101cd57806318160ddd146101e2575b600080fd5b6101b06101ab366004611d42565b610399565b6040516001600160a01b0390911681526020015b60405180910390f35b6101e06101db366004611d77565b6103aa565b005b6101ea6103b8565b6040519081526020016101c4565b6101e0610206366004611da1565b61040a565b6101e0610219366004611d77565b61041a565b6101e061022c366004611d42565b610444565b61024461023f366004611df3565b610470565b6040516101c49190611eb1565b6101e061025f366004611da1565b610520565b6101e0610272366004611d42565b61052b565b6101e0610285366004611f43565b610536565b6101e0610298366004611df3565b6105c2565b6101e06102ab366004611df3565b610622565b6101b06102be366004611d42565b610682565b6101ea6102d1366004611faf565b61068d565b6101e06102e4366004611d42565b610698565b6101e06102f7366004611fca565b6106c1565b6101e061030a366004612024565b610734565b61032261031d366004611d42565b61073e565b60405190151581526020016101c4565b6101e061034036600461205b565b610749565b6101e0610353366004611d42565b610756565b6101ea61077f565b6101e061036e366004611df3565b6107a9565b6103226103813660046120f6565b6107eb565b6101e0610394366004611df3565b61083d565b60006103a48261089d565b92915050565b6103b48282610919565b5050565b60006104057faa3a0910ce5fb062d392dc5a532ff9d50bb9d0f614a8eda1a3ec786de0b761f4547faa3a0910ce5fb062d392dc5a532ff9d50bb9d0f614a8eda1a3ec786de0b761f3540390565b905090565b610415838383610a0c565b505050565b30331461043a5760405163fd570b5160e01b815260040160405180910390fd5b6103b48282610b09565b3033146104645760405163fd570b5160e01b815260040160405180910390fd5b61046d81610cc3565b50565b6060815167ffffffffffffffff81111561048c5761048c611ddd565b6040519080825280602002602001820160405280156104b5578160200160208202803683370190505b50905060005b825181101561051a576104e68382815181106104d9576104d9612129565b6020026020010151610cce565b8282815181106104f8576104f8612129565b911515602092830291909101909101528061051281612155565b9150506104bb565b50919050565b610415838383610d10565b61046d816001610e08565b3033146105565760405163fd570b5160e01b815260040160405180910390fd5b60005b838110156105bb576105a985858381811061057657610576612129565b905060200201602081019061058b9190611faf565b84848481811061059d5761059d612129565b90506020020135610b09565b806105b381612155565b915050610559565b5050505050565b3033146105e25760405163fd570b5160e01b815260040160405180910390fd5b60005b81518110156103b45761061082828151811061060357610603612129565b60200260200101516110a0565b8061061a81612155565b9150506105e5565b3033146106425760405163fd570b5160e01b815260040160405180910390fd5b60005b81518110156103b45761067082828151811061066357610663612129565b6020026020010151610cc3565b8061067a81612155565b915050610645565b60006103a482611116565b60006103a482611121565b3033146106b85760405163fd570b5160e01b815260040160405180910390fd5b61046d816111a8565b3033146106e15760405163fd570b5160e01b815260040160405180910390fd5b60005b8281101561072e5761071c84848381811061070157610701612129565b90506020020160208101906107169190611faf565b83610b09565b8061072681612155565b9150506106e4565b50505050565b6103b48282611216565b60006103a482610cce565b6105bb8585858585611304565b3033146107765760405163fd570b5160e01b815260040160405180910390fd5b61046d816110a0565b60006104057faa3a0910ce5fb062d392dc5a532ff9d50bb9d0f614a8eda1a3ec786de0b761f55490565b60005b81518110156103b4576107d98282815181106107ca576107ca612129565b60200260200101516001610e08565b806107e381612155565b9150506107ac565b6001600160a01b0380831660009081527f2569078dfb4b0305704d3008e7403993ae9601b85f7ae5e742de3de8f8011c476020908152604080832093851683529290529081205460ff165b9392505050565b30331461085d5760405163fd570b5160e01b815260040160405180910390fd5b60005b81518110156103b45761088b82828151811061087e5761087e612129565b60200260200101516111a8565b8061089581612155565b915050610860565b60006108a882611477565b6108de576040517fcf4700e400000000000000000000000000000000000000000000000000000000815260040160405180910390fd5b5060009081527f2569078dfb4b0305704d3008e7403993ae9601b85f7ae5e742de3de8f8011c4660205260409020546001600160a01b031690565b817f9c1f08fc16fa10f59a3ac18a8c5596ea456f2d66793744df41c7c3e4eb2197905460ff1615610a02576daaeb6d7670e522a718067333cd4e3b15610a0257604051633185c44d60e21b81523060048201526001600160a01b03821660248201526daaeb6d7670e522a718067333cd4e9063c617113490604401602060405180830381865afa1580156109b1573d6000803e3d6000fd5b505050506040513d601f19601f820116820180604052508101906109d5919061216e565b610a0257604051633b79c77360e21b81526001600160a01b03821660048201526024015b60405180910390fd5b61041583836114dd565b827f9c1f08fc16fa10f59a3ac18a8c5596ea456f2d66793744df41c7c3e4eb2197905460ff1615610afe576daaeb6d7670e522a718067333cd4e3b15610afe57336001600160a01b03821603610a6c57610a67848484611609565b61072e565b604051633185c44d60e21b81523060048201523360248201526daaeb6d7670e522a718067333cd4e9063c617113490604401602060405180830381865afa158015610abb573d6000803e3d6000fd5b505050506040513d601f19601f82011682018060405250810190610adf919061216e565b610afe57604051633b79c77360e21b81523360048201526024016109f9565b61072e848484611609565b7faa3a0910ce5fb062d392dc5a532ff9d50bb9d0f614a8eda1a3ec786de0b761f3546000829003610b66576040517fb562e8dd00000000000000000000000000000000000000000000000000000000815260040160405180910390fd5b610b7360008483856118cd565b6001600160a01b03831660008181527f2569078dfb4b0305704d3008e7403993ae9601b85f7ae5e742de3de8f8011c456020908152604080832080546801000000000000000188020190558483527f2569078dfb4b0305704d3008e7403993ae9601b85f7ae5e742de3de8f8011c4490915281206001851460e11b4260a01b178317905582840190839083907fddf252ad1be2c89b69c2b068fc378daa952ba7f163c4a11628f55a4df523b3ef8180a4600183015b818114610c6057808360007fddf252ad1be2c89b69c2b068fc378daa952ba7f163c4a11628f55a4df523b3ef600080a4600101610c28565b5081600003610c9b576040517f2e07630000000000000000000000000000000000000000000000000000000000815260040160405180910390fd5b7faa3a0910ce5fb062d392dc5a532ff9d50bb9d0f614a8eda1a3ec786de0b761f35550505050565b61046d816000610e08565b600881901c60009081527f939803063e013e06d8dc3e649f5637d6c85e7cdf5a06a1acfb7ec0a27fc9114b6020526040812054600160ff84161b1615156103a4565b827f9c1f08fc16fa10f59a3ac18a8c5596ea456f2d66793744df41c7c3e4eb2197905460ff1615610dfd576daaeb6d7670e522a718067333cd4e3b15610dfd57336001600160a01b03821603610d6b57610a678484846118d9565b604051633185c44d60e21b81523060048201523360248201526daaeb6d7670e522a718067333cd4e9063c617113490604401602060405180830381865afa158015610dba573d6000803e3d6000fd5b505050506040513d601f19601f82011682018060405250810190610dde919061216e565b610dfd57604051633b79c77360e21b81523360048201526024016109f9565b61072e8484846118d9565b6000610e13836118f4565b905080600080610e508660009081527f2569078dfb4b0305704d3008e7403993ae9601b85f7ae5e742de3de8f8011c466020526040902080549091565b915091508415610edd57610e768184335b6001600160a01b039081169116811491141790565b610edd576001600160a01b03831660009081527f2569078dfb4b0305704d3008e7403993ae9601b85f7ae5e742de3de8f8011c476020908152604080832033845290915290205460ff16610edd57604051632ce44b5f60e11b815260040160405180910390fd5b610eeb8360008860016118cd565b8015610ef657600082555b6001600160a01b03831660008181527f2569078dfb4b0305704d3008e7403993ae9601b85f7ae5e742de3de8f8011c456020526040902080546fffffffffffffffffffffffffffffffff0190554260a01b177c03000000000000000000000000000000000000000000000000000000001760008781527f2569078dfb4b0305704d3008e7403993ae9601b85f7ae5e742de3de8f8011c446020526040812091909155600160e11b85169003611038576001860160008181527f2569078dfb4b0305704d3008e7403993ae9601b85f7ae5e742de3de8f8011c4460205260408120549003611036577faa3a0910ce5fb062d392dc5a532ff9d50bb9d0f614a8eda1a3ec786de0b761f35481146110365760008181527f2569078dfb4b0305704d3008e7403993ae9601b85f7ae5e742de3de8f8011c44602052604090208590555b505b60405186906000906001600160a01b038616907fddf252ad1be2c89b69c2b068fc378daa952ba7f163c4a11628f55a4df523b3ef908390a450507faa3a0910ce5fb062d392dc5a532ff9d50bb9d0f614a8eda1a3ec786de0b761f48054600101905550505050565b600881901c60009081527f939803063e013e06d8dc3e649f5637d6c85e7cdf5a06a1acfb7ec0a27fc9114b602052604090208054600160ff84161b191690556040518181527ff27b6ce5b2f5e68ddb2fd95a8a909d4ecf1daaac270935fff052feacb24f1842906020015b60405180910390a150565b60006103a4826118f4565b60006001600160a01b038216611163576040517f8f4eb60400000000000000000000000000000000000000000000000000000000815260040160405180910390fd5b506001600160a01b031660009081527f2569078dfb4b0305704d3008e7403993ae9601b85f7ae5e742de3de8f8011c45602052604090205467ffffffffffffffff1690565b600881901c60009081527f939803063e013e06d8dc3e649f5637d6c85e7cdf5a06a1acfb7ec0a27fc9114b602052604090208054600160ff84161b1790556040518181527f032bc66be43dbccb7487781d168eb7bda224628a3b2c3388bdf69b532a3a16119060200161110b565b817f9c1f08fc16fa10f59a3ac18a8c5596ea456f2d66793744df41c7c3e4eb2197905460ff16156112fa576daaeb6d7670e522a718067333cd4e3b156112fa57604051633185c44d60e21b81523060048201526001600160a01b03821660248201526daaeb6d7670e522a718067333cd4e9063c617113490604401602060405180830381865afa1580156112ae573d6000803e3d6000fd5b505050506040513d601f19601f820116820180604052508101906112d2919061216e565b6112fa57604051633b79c77360e21b81526001600160a01b03821660048201526024016109f9565b61041583836119d1565b847f9c1f08fc16fa10f59a3ac18a8c5596ea456f2d66793744df41c7c3e4eb2197905460ff161561142d576daaeb6d7670e522a718067333cd4e3b1561142d57336001600160a01b0382160361139b5761139686868686868080601f016020809104026020016040519081016040528093929190818152602001838380828437600092019190915250611a9e92505050565b61146f565b604051633185c44d60e21b81523060048201523360248201526daaeb6d7670e522a718067333cd4e9063c617113490604401602060405180830381865afa1580156113ea573d6000803e3d6000fd5b505050506040513d601f19601f8201168201806040525081019061140e919061216e565b61142d57604051633b79c77360e21b81523360048201526024016109f9565b61146f86868686868080601f016020809104026020016040519081016040528093929190818152602001838380828437600092019190915250611a9e92505050565b505050505050565b60007faa3a0910ce5fb062d392dc5a532ff9d50bb9d0f614a8eda1a3ec786de0b761f354821080156103a457505060009081527f2569078dfb4b0305704d3008e7403993ae9601b85f7ae5e742de3de8f8011c446020526040902054600160e01b161590565b60006114e882611116565b9050336001600160a01b03821614611576576001600160a01b03811660009081527f2569078dfb4b0305704d3008e7403993ae9601b85f7ae5e742de3de8f8011c476020908152604080832033845290915290205460ff16611576576040517fcfb3b94200000000000000000000000000000000000000000000000000000000815260040160405180910390fd5b60008281527f2569078dfb4b0305704d3008e7403993ae9601b85f7ae5e742de3de8f8011c46602052604080822080547fffffffffffffffffffffffff0000000000000000000000000000000000000000166001600160a01b0387811691821790925591518593918516917f8c5be1e5ebec7d5bd14f71427d1e84f3dd0314c0f7b2291e5b200ac8c7c3b92591a4505050565b6000611614826118f4565b9050836001600160a01b0316816001600160a01b031614611661576040517fa114810000000000000000000000000000000000000000000000000000000000815260040160405180910390fd5b60008281527f2569078dfb4b0305704d3008e7403993ae9601b85f7ae5e742de3de8f8011c4660205260409020805461169b818733610e61565b611702576001600160a01b03861660009081527f2569078dfb4b0305704d3008e7403993ae9601b85f7ae5e742de3de8f8011c476020908152604080832033845290915290205460ff1661170257604051632ce44b5f60e11b815260040160405180910390fd5b6001600160a01b038516611742576040517fea553b3400000000000000000000000000000000000000000000000000000000815260040160405180910390fd5b61174f86868660016118cd565b801561175a57600082555b6001600160a01b0386811660009081527f2569078dfb4b0305704d3008e7403993ae9601b85f7ae5e742de3de8f8011c4560205260408082208054600019019055918716808252919020805460010190554260a01b17600160e11b1760008581527f2569078dfb4b0305704d3008e7403993ae9601b85f7ae5e742de3de8f8011c446020526040812091909155600160e11b84169003611887576001840160008181527f2569078dfb4b0305704d3008e7403993ae9601b85f7ae5e742de3de8f8011c4460205260408120549003611885577faa3a0910ce5fb062d392dc5a532ff9d50bb9d0f614a8eda1a3ec786de0b761f35481146118855760008181527f2569078dfb4b0305704d3008e7403993ae9601b85f7ae5e742de3de8f8011c44602052604090208490555b505b83856001600160a01b0316876001600160a01b03167fddf252ad1be2c89b69c2b068fc378daa952ba7f163c4a11628f55a4df523b3ef60405160405180910390a461146f565b61072e84848484611ae2565b61041583838360405180602001604052806000815250611a9e565b6000817faa3a0910ce5fb062d392dc5a532ff9d50bb9d0f614a8eda1a3ec786de0b761f35481101561199f5760008181527f2569078dfb4b0305704d3008e7403993ae9601b85f7ae5e742de3de8f8011c44602052604081205490600160e01b8216900361199d575b8060000361083657506000190160008181527f2569078dfb4b0305704d3008e7403993ae9601b85f7ae5e742de3de8f8011c44602052604090205461195d565b505b6040517fdf2d9b4200000000000000000000000000000000000000000000000000000000815260040160405180910390fd5b336001600160a01b03831603611a13576040517fb06307db00000000000000000000000000000000000000000000000000000000815260040160405180910390fd5b3360008181527f2569078dfb4b0305704d3008e7403993ae9601b85f7ae5e742de3de8f8011c47602090815260408083206001600160a01b03871680855290835292819020805460ff191686151590811790915590519081529192917f17307eab39ab6107e8899845ad3d59bd9653f200f220920489ca2b5937696c31910160405180910390a35050565b611aa9848484611609565b6001600160a01b0383163b1561072e57611ac584848484611b72565b61072e576040516368d2bf6b60e11b815260040160405180910390fd5b6001600160a01b03841615611b665760005b81811015611b6457611b0e611b09828561218b565b610cce565b15611b5257611b1d818461218b565b6040517f731b8ece0000000000000000000000000000000000000000000000000000000081526004016109f991815260200190565b80611b5c81612155565b915050611af4565b505b61072e84848484611c75565b604051630a85bd0160e11b81526000906001600160a01b0385169063150b7a0290611ba79033908990889088906004016121a3565b6020604051808303816000875af1925050508015611be2575060408051601f3d908101601f19168201909252611bdf9181019061221c565b60015b611c40573d808015611c10576040519150601f19603f3d011682016040523d82523d6000602084013e611c15565b606091505b508051600003611c38576040516368d2bf6b60e11b815260040160405180910390fd5b805181602001fd5b7fffffffff0000000000000000000000000000000000000000000000000000000016630a85bd0160e11b149050949350505050565b6001600160a01b038416610a67576001600160a01b03831615610a67577faa3a0910ce5fb062d392dc5a532ff9d50bb9d0f614a8eda1a3ec786de0b761f55481611d007faa3a0910ce5fb062d392dc5a532ff9d50bb9d0f614a8eda1a3ec786de0b761f4547faa3a0910ce5fb062d392dc5a532ff9d50bb9d0f614a8eda1a3ec786de0b761f3540390565b611d0a919061218b565b1115610a67576040517fb746b1c900000000000000000000000000000000000000000000000000000000815260040160405180910390fd5b600060208284031215611d5457600080fd5b5035919050565b80356001600160a01b0381168114611d7257600080fd5b919050565b60008060408385031215611d8a57600080fd5b611d9383611d5b565b946020939093013593505050565b600080600060608486031215611db657600080fd5b611dbf84611d5b565b9250611dcd60208501611d5b565b9150604084013590509250925092565b634e487b7160e01b600052604160045260246000fd5b60006020808385031215611e0657600080fd5b823567ffffffffffffffff80821115611e1e57600080fd5b818501915085601f830112611e3257600080fd5b813581811115611e4457611e44611ddd565b8060051b604051601f19603f83011681018181108582111715611e6957611e69611ddd565b604052918252848201925083810185019188831115611e8757600080fd5b938501935b82851015611ea557843584529385019392850192611e8c565b98975050505050505050565b6020808252825182820181905260009190848201906040850190845b81811015611eeb578351151583529284019291840191600101611ecd565b50909695505050505050565b60008083601f840112611f0957600080fd5b50813567ffffffffffffffff811115611f2157600080fd5b6020830191508360208260051b8501011115611f3c57600080fd5b9250929050565b60008060008060408587031215611f5957600080fd5b843567ffffffffffffffff80821115611f7157600080fd5b611f7d88838901611ef7565b90965094506020870135915080821115611f9657600080fd5b50611fa387828801611ef7565b95989497509550505050565b600060208284031215611fc157600080fd5b61083682611d5b565b600080600060408486031215611fdf57600080fd5b833567ffffffffffffffff811115611ff657600080fd5b61200286828701611ef7565b909790965060209590950135949350505050565b801515811461046d57600080fd5b6000806040838503121561203757600080fd5b61204083611d5b565b9150602083013561205081612016565b809150509250929050565b60008060008060006080868803121561207357600080fd5b61207c86611d5b565b945061208a60208701611d5b565b935060408601359250606086013567ffffffffffffffff808211156120ae57600080fd5b818801915088601f8301126120c257600080fd5b8135818111156120d157600080fd5b8960208285010111156120e357600080fd5b9699959850939650602001949392505050565b6000806040838503121561210957600080fd5b61211283611d5b565b915061212060208401611d5b565b90509250929050565b634e487b7160e01b600052603260045260246000fd5b634e487b7160e01b600052601160045260246000fd5b6000600182016121675761216761213f565b5060010190565b60006020828403121561218057600080fd5b815161083681612016565b6000821982111561219e5761219e61213f565b500190565b60006001600160a01b038087168352602081871681850152856040850152608060608501528451915081608085015260005b828110156121f15785810182015185820160a0015281016121d5565b8281111561220357600060a084870101525b5050601f01601f19169190910160a00195945050505050565b60006020828403121561222e57600080fd5b81517fffffffff000000000000000000000000000000000000000000000000000000008116811461083657600080fdfea26469706673582212205f26dbbe1f54c215f9d877a04d733c798db045d0a550ca28dc5677589a81df6f64736f6c634300080f0033",
  "devdoc": {
    "custom:category": "NFTs",
    "custom:provides-interfaces": "IERC721 IERC5192 IERC721ABase IERC721SupplyExtension IERC721MintableExtension IERC721LockableExtension IERC721BurnableExtension IRoyaltyEnforcement",
    "custom:type": "eip-2535-facet",
    "kind": "dev",
    "methods": {
      "balanceOf(address)": {
        "details": "Returns the number of tokens in `owner`'s account."
      },
      "burnBatchByFacet(uint256[])": {
        "details": "Burn from another facet, allow skipping of ownership check as facets are trusted."
      },
      "burnByFacet(uint256)": {
        "details": "Burn from another facet, allow skipping of ownership check as facets are trusted."
      },
      "getApproved(uint256)": {
        "details": "Returns the account approved for `tokenId` token. Requirements: - `tokenId` must exist."
      },
      "isApprovedForAll(address,address)": {
        "details": "Returns if the `operator` is allowed to manage all of the assets of `owner`. See {setApprovalForAll}."
      },
      "lockByFacet(uint256)": {
        "details": "Locks `amount` of tokens of `account`, of token type `id`. Requirements: - the caller must be diamond itself (other facets)."
      },
      "locked(uint256)": {
        "details": "SBTs assigned to zero address are considered invalid, and queries about them do throw.",
        "params": {
          "tokenId": "The identifier for an SBT."
        }
      },
      "maxSupply()": {
        "details": "Maximum amount of tokens possible to exist."
      },
      "mintByFacet(address,uint256)": {
        "details": "Creates `amount` new tokens for `to`, of token type `id`. See {ERC721A-_mint}. Requirements: - the caller must be diamond itself (other facets)."
      },
      "mintByFacet(address[],uint256)": {
        "details": "Mint constant amount of new tokens for multiple addresses (e.g. 1 nft for each address)."
      },
      "mintByFacet(address[],uint256[])": {
        "details": "Mint new tokens for multiple addresses with different amounts."
      },
      "ownerOf(uint256)": {
        "details": "Returns the owner of the `tokenId` token. Requirements: - `tokenId` must exist."
      },
      "totalSupply()": {
        "details": "Total amount of tokens that exist in the collection."
      },
      "unlockByFacet(uint256)": {
        "details": "Un-locks `amount` of tokens of `account`, of token type `id`. Requirements: - the caller must be diamond itself (other facets)."
      }
    },
    "title": "ERC721 (A) - Standard",
    "version": 1
  },
  "userdoc": {
    "errors": {
      "ApprovalCallerNotOwnerNorApproved()": [
        {
          "notice": "The caller must own the token or be an approved operator."
        }
      ],
      "ApprovalQueryForNonexistentToken()": [
        {
          "notice": "The token does not exist."
        }
      ],
      "ApproveToCaller()": [
        {
          "notice": "The caller cannot approve to their own address."
        }
      ],
      "BalanceQueryForZeroAddress()": [
        {
          "notice": "Cannot query the balance for the zero address."
        }
      ],
      "ErrSenderIsNotSelf()": [
        {
          "notice": "The caller must be the current contract itself."
        }
      ],
      "MintERC2309QuantityExceedsLimit()": [
        {
          "notice": "The `quantity` minted with ERC2309 exceeds the safety limit."
        }
      ],
      "MintToZeroAddress()": [
        {
          "notice": "Cannot mint to the zero address."
        }
      ],
      "MintZeroQuantity()": [
        {
          "notice": "The quantity of tokens minted must be more than zero."
        }
      ],
      "OwnerQueryForNonexistentToken()": [
        {
          "notice": "The token does not exist."
        }
      ],
      "OwnershipNotInitializedForExtraData()": [
        {
          "notice": "The `extraData` cannot be set on an unintialized ownership slot."
        }
      ],
      "TransferCallerNotOwnerNorApproved()": [
        {
          "notice": "The caller must own the token or be an approved operator."
        }
      ],
      "TransferFromIncorrectOwner()": [
        {
          "notice": "The token must be owned by `from`."
        }
      ],
      "TransferToNonERC721ReceiverImplementer()": [
        {
          "notice": "Cannot safely transfer to a contract that does not implement the ERC721Receiver interface."
        }
      ],
      "TransferToZeroAddress()": [
        {
          "notice": "Cannot transfer to the zero address."
        }
      ],
      "URIQueryForNonexistentToken()": [
        {
          "notice": "The token does not exist."
        }
      ]
    },
    "events": {
      "Locked(uint256)": {
        "notice": "Emitted when the locking status is changed to locked."
      },
      "Unlocked(uint256)": {
        "notice": "Emitted when the locking status is changed to unlocked."
      }
    },
    "kind": "user",
    "methods": {
      "locked(uint256)": {
        "notice": "Returns the locking status of an Soulbound Token"
      }
    },
    "notice": "Azuki's implementation of standard EIP-721 NFTs with core capabilities of Royalty, Mintable, Burnable and Lockable.",
    "version": 1
  },
  "storageLayout": {
    "storage": [],
    "types": null
  }
}