{
  "address": "0x35F6B1d81aED96Ae0019bdec354a80E99219bEc5",
  "abi": [
    {
      "inputs": [
        {
          "internalType": "address",
          "name": "forwarder",
          "type": "address"
        }
      ],
      "name": "isTrustedForwarder",
      "outputs": [
        {
          "internalType": "bool",
          "name": "",
          "type": "bool"
        }
      ],
      "stateMutability": "view",
      "type": "function"
    },
    {
      "inputs": [],
      "name": "trustedForwarder",
      "outputs": [
        {
          "internalType": "address",
          "name": "",
          "type": "address"
        }
      ],
      "stateMutability": "view",
      "type": "function"
    }
  ],
  "transactionHash": "0xcd95d113865fa97810982b7b36792b79beb02bf520fb14a2c6d235bfb9d80c93",
  "args": [],
  "numDeployments": 1,
  "solcInputHash": "c4fe8eff10d3ecb34ecf7b1b5bda5a68",
  "bytecode": "0x608060405234801561001057600080fd5b50610158806100206000396000f3fe608060405234801561001057600080fd5b50600436106100365760003560e01c8063572b6c051461003b5780637da0a8771461009e575b600080fd5b6100896100493660046100e5565b7fdb1d5e345c4903e9a32b6674ecc8b1deaddbbb2551474fb34c9d34becbe7f4205473ffffffffffffffffffffffffffffffffffffffff90811691161490565b60405190151581526020015b60405180910390f35b7fdb1d5e345c4903e9a32b6674ecc8b1deaddbbb2551474fb34c9d34becbe7f4205460405173ffffffffffffffffffffffffffffffffffffffff9091168152602001610095565b6000602082840312156100f757600080fd5b813573ffffffffffffffffffffffffffffffffffffffff8116811461011b57600080fd5b939250505056fea264697066735822122009fb7418942c8f3c86a55d72104e5feed7c9dbfdf94587d92eda99ba4ab6152464736f6c634300080f0033",
  "devdoc": {
    "custom:category": "Meta Transactions",
    "custom:provides-interfaces": "IERC2771Context",
    "custom:type": "eip-2535-facet",
    "kind": "dev",
    "methods": {},
    "title": "ERC2771 Context",
    "version": 1
  },
  "userdoc": {
    "kind": "user",
    "methods": {},
    "notice": "Provides view functions about configured trusted forwarder according to EIP-2771.",
    "version": 1
  },
  "storageLayout": {
    "storage": [],
    "types": null
  }
}