{
  "address": "0xc65C4e0C5f81E7016F75f38387b5D13e8775f729",
  "abi": [
    {
      "anonymous": false,
      "inputs": [
        {
          "indexed": true,
          "internalType": "address",
          "name": "previousOwner",
          "type": "address"
        },
        {
          "indexed": true,
          "internalType": "address",
          "name": "newOwner",
          "type": "address"
        }
      ],
      "name": "OwnershipTransferred",
      "type": "event"
    },
    {
      "inputs": [
        {
          "internalType": "address[]",
          "name": "tos",
          "type": "address[]"
        },
        {
          "internalType": "uint256[]",
          "name": "amounts",
          "type": "uint256[]"
        }
      ],
      "name": "mintByOwner",
      "outputs": [],
      "stateMutability": "nonpayable",
      "type": "function"
    },
    {
      "inputs": [
        {
          "internalType": "address",
          "name": "to",
          "type": "address"
        },
        {
          "internalType": "uint256",
          "name": "amount",
          "type": "uint256"
        }
      ],
      "name": "mintByOwner",
      "outputs": [],
      "stateMutability": "nonpayable",
      "type": "function"
    }
  ],
  "transactionHash": "0xd74aa324ed388518a889bc132799830fa26a8d580c79c8444efb7d77b91d9aaf",
  "args": [],
  "numDeployments": 1,
  "solcInputHash": "c4fe8eff10d3ecb34ecf7b1b5bda5a68",
  "bytecode": "0x608060405234801561001057600080fd5b50610461806100206000396000f3fe608060405234801561001057600080fd5b50600436106100365760003560e01c80632c3d8acb1461003b5780633542aee214610050575b600080fd5b61004e6100493660046102c4565b610063565b005b61004e61005e366004610359565b610168565b7fc0ea367cb0174dd5521cd2372c76f8c13e6c1f832c71f1d6e0cbc185c9cc8ed45473ffffffffffffffffffffffffffffffffffffffff1633146100ee5760405162461bcd60e51b815260206004820152601d60248201527f4f776e61626c653a2073656e646572206d757374206265206f776e657200000060448201526064015b60405180910390fd5b6040517f49142a1400000000000000000000000000000000000000000000000000000000815230906349142a1490610130908790879087908790600401610383565b600060405180830381600087803b15801561014a57600080fd5b505af115801561015e573d6000803e3d6000fd5b5050505050505050565b7fc0ea367cb0174dd5521cd2372c76f8c13e6c1f832c71f1d6e0cbc185c9cc8ed45473ffffffffffffffffffffffffffffffffffffffff1633146101ee5760405162461bcd60e51b815260206004820152601d60248201527f4f776e61626c653a2073656e646572206d757374206265206f776e657200000060448201526064016100e5565b6040517f2d4f475f00000000000000000000000000000000000000000000000000000000815273ffffffffffffffffffffffffffffffffffffffff83166004820152602481018290523090632d4f475f90604401600060405180830381600087803b15801561025c57600080fd5b505af1158015610270573d6000803e3d6000fd5b505050505050565b60008083601f84011261028a57600080fd5b50813567ffffffffffffffff8111156102a257600080fd5b6020830191508360208260051b85010111156102bd57600080fd5b9250929050565b600080600080604085870312156102da57600080fd5b843567ffffffffffffffff808211156102f257600080fd5b6102fe88838901610278565b9096509450602087013591508082111561031757600080fd5b5061032487828801610278565b95989497509550505050565b803573ffffffffffffffffffffffffffffffffffffffff8116811461035457600080fd5b919050565b6000806040838503121561036c57600080fd5b61037583610330565b946020939093013593505050565b6040808252810184905260008560608301825b878110156103d15773ffffffffffffffffffffffffffffffffffffffff6103bc84610330565b16825260209283019290910190600101610396565b5083810360208501528481527f07ffffffffffffffffffffffffffffffffffffffffffffffffffffffffffffff85111561040a57600080fd5b8460051b91508186602083013760009101602001908152969550505050505056fea2646970667358221220d7931b753b512b5b7e6789c727e448cf8022b13935998f1e680edb64a38902aa64736f6c634300080f0033",
  "devdoc": {
    "custom:category": "NFTs",
    "custom:provides-interfaces": "IERC721MintableOwnable",
    "custom:required-dependencies": "IERC721MintableExtension",
    "custom:type": "eip-2535-facet",
    "kind": "dev",
    "methods": {
      "mintByOwner(address,uint256)": {
        "details": "Creates `amount` new tokens for `to`, of token type `id`. See {ERC721-_mint}. Requirements: - the caller must be diamond owner."
      }
    },
    "title": "ERC721 - Mint as owner",
    "version": 1
  },
  "userdoc": {
    "kind": "user",
    "methods": {},
    "notice": "Allow minting as contract owner with no restrictions (supports ERC721A).",
    "version": 1
  },
  "storageLayout": {
    "storage": [],
    "types": null
  }
}