{
  "address": "0x2F33676a7028662F60b5E316bfE2BcF03bdE74A9",
  "abi": [
    {
      "anonymous": false,
      "inputs": [
        {
          "indexed": true,
          "internalType": "address",
          "name": "previousOwner",
          "type": "address"
        },
        {
          "indexed": true,
          "internalType": "address",
          "name": "newOwner",
          "type": "address"
        }
      ],
      "name": "OwnershipTransferred",
      "type": "event"
    },
    {
      "inputs": [
        {
          "internalType": "uint256",
          "name": "id",
          "type": "uint256"
        }
      ],
      "name": "lockByOwner",
      "outputs": [],
      "stateMutability": "nonpayable",
      "type": "function"
    },
    {
      "inputs": [
        {
          "internalType": "uint256[]",
          "name": "ids",
          "type": "uint256[]"
        }
      ],
      "name": "lockByOwner",
      "outputs": [],
      "stateMutability": "nonpayable",
      "type": "function"
    },
    {
      "inputs": [
        {
          "internalType": "uint256[]",
          "name": "ids",
          "type": "uint256[]"
        }
      ],
      "name": "unlockByOwner",
      "outputs": [],
      "stateMutability": "nonpayable",
      "type": "function"
    },
    {
      "inputs": [
        {
          "internalType": "uint256",
          "name": "id",
          "type": "uint256"
        }
      ],
      "name": "unlockByOwner",
      "outputs": [],
      "stateMutability": "nonpayable",
      "type": "function"
    }
  ],
  "transactionHash": "0x95e7040641b5fe1686ad62a2e57fbca57b0eaeaab8d44d6e4c192f4cbb1cb668",
  "args": [],
  "numDeployments": 1,
  "solcInputHash": "c4fe8eff10d3ecb34ecf7b1b5bda5a68",
  "bytecode": "0x608060405234801561001057600080fd5b5061055f806100206000396000f3fe608060405234801561001057600080fd5b506004361061004c5760003560e01c80637181011614610051578063a3dddafa14610066578063b95440dc14610079578063e923a2a21461008c575b600080fd5b61006461005f3660046103df565b61009f565b005b610064610074366004610427565b610198565b6100646100873660046103df565b61025a565b61006461009a366004610427565b61031d565b7fc0ea367cb0174dd5521cd2372c76f8c13e6c1f832c71f1d6e0cbc185c9cc8ed45473ffffffffffffffffffffffffffffffffffffffff16331461012a5760405162461bcd60e51b815260206004820152601d60248201527f4f776e61626c653a2073656e646572206d757374206265206f776e657200000060448201526064015b60405180910390fd5b6040517f856e31c100000000000000000000000000000000000000000000000000000000815260048101829052309063856e31c1906024015b600060405180830381600087803b15801561017d57600080fd5b505af1158015610191573d6000803e3d6000fd5b5050505050565b7fc0ea367cb0174dd5521cd2372c76f8c13e6c1f832c71f1d6e0cbc185c9cc8ed45473ffffffffffffffffffffffffffffffffffffffff16331461021e5760405162461bcd60e51b815260206004820152601d60248201527f4f776e61626c653a2073656e646572206d757374206265206f776e65720000006044820152606401610121565b6040517f4a371f640000000000000000000000000000000000000000000000000000000081523090634a371f64906101639084906004016104e5565b7fc0ea367cb0174dd5521cd2372c76f8c13e6c1f832c71f1d6e0cbc185c9cc8ed45473ffffffffffffffffffffffffffffffffffffffff1633146102e05760405162461bcd60e51b815260206004820152601d60248201527f4f776e61626c653a2073656e646572206d757374206265206f776e65720000006044820152606401610121565b6040517fc7d1bc8300000000000000000000000000000000000000000000000000000000815260048101829052309063c7d1bc8390602401610163565b7fc0ea367cb0174dd5521cd2372c76f8c13e6c1f832c71f1d6e0cbc185c9cc8ed45473ffffffffffffffffffffffffffffffffffffffff1633146103a35760405162461bcd60e51b815260206004820152601d60248201527f4f776e61626c653a2073656e646572206d757374206265206f776e65720000006044820152606401610121565b6040517ff9497f34000000000000000000000000000000000000000000000000000000008152309063f9497f34906101639084906004016104e5565b6000602082840312156103f157600080fd5b5035919050565b7f4e487b7100000000000000000000000000000000000000000000000000000000600052604160045260246000fd5b6000602080838503121561043a57600080fd5b823567ffffffffffffffff8082111561045257600080fd5b818501915085601f83011261046657600080fd5b813581811115610478576104786103f8565b8060051b604051601f19603f8301168101818110858211171561049d5761049d6103f8565b6040529182528482019250838101850191888311156104bb57600080fd5b938501935b828510156104d9578435845293850193928501926104c0565b98975050505050505050565b6020808252825182820181905260009190848201906040850190845b8181101561051d57835183529284019291840191600101610501565b5090969550505050505056fea2646970667358221220619df862c7ad08bede037cb309d444fdabb2e27cbfc645b7c72355c870a377c964736f6c634300080f0033",
  "devdoc": {
    "custom:category": "NFTs",
    "custom:provides-interfaces": "IERC721LockableOwnable",
    "custom:required-dependencies": "IERC721LockableExtension",
    "custom:type": "eip-2535-facet",
    "kind": "dev",
    "methods": {},
    "title": "ERC721 - Lock as owner",
    "version": 1
  },
  "userdoc": {
    "kind": "user",
    "methods": {},
    "notice": "Allow locking tokens as the contract owner.",
    "version": 1
  },
  "storageLayout": {
    "storage": [],
    "types": null
  }
}