{
  "address": "0xBB0AA646E8D63d920a7Ab1C96Ba082cbF075DcDA",
  "abi": [
    {
      "inputs": [],
      "name": "ErrWithdrawImpossible",
      "type": "error"
    },
    {
      "inputs": [],
      "name": "ErrWithdrawModeLocked",
      "type": "error"
    },
    {
      "inputs": [],
      "name": "ErrWithdrawOnlyOwner",
      "type": "error"
    },
    {
      "inputs": [],
      "name": "ErrWithdrawOnlyRecipient",
      "type": "error"
    },
    {
      "inputs": [],
      "name": "ErrWithdrawRecipientLocked",
      "type": "error"
    },
    {
      "inputs": [],
      "name": "ErrWithdrawRecipientNotSet",
      "type": "error"
    },
    {
      "anonymous": false,
      "inputs": [
        {
          "indexed": true,
          "internalType": "address",
          "name": "previousOwner",
          "type": "address"
        },
        {
          "indexed": true,
          "internalType": "address",
          "name": "newOwner",
          "type": "address"
        }
      ],
      "name": "OwnershipTransferred",
      "type": "event"
    },
    {
      "anonymous": false,
      "inputs": [
        {
          "indexed": false,
          "internalType": "enum IWithdrawableInternal.Mode",
          "name": "_mode",
          "type": "uint8"
        }
      ],
      "name": "WithdrawModeChanged",
      "type": "event"
    },
    {
      "anonymous": false,
      "inputs": [],
      "name": "WithdrawModeLocked",
      "type": "event"
    },
    {
      "anonymous": false,
      "inputs": [],
      "name": "WithdrawPowerRevoked",
      "type": "event"
    },
    {
      "anonymous": false,
      "inputs": [
        {
          "indexed": true,
          "internalType": "address",
          "name": "recipient",
          "type": "address"
        }
      ],
      "name": "WithdrawRecipientChanged",
      "type": "event"
    },
    {
      "anonymous": false,
      "inputs": [],
      "name": "WithdrawRecipientLocked",
      "type": "event"
    },
    {
      "anonymous": false,
      "inputs": [
        {
          "indexed": false,
          "internalType": "address[]",
          "name": "claimTokens",
          "type": "address[]"
        },
        {
          "indexed": false,
          "internalType": "uint256[]",
          "name": "amounts",
          "type": "uint256[]"
        }
      ],
      "name": "Withdrawn",
      "type": "event"
    },
    {
      "inputs": [
        {
          "internalType": "address[]",
          "name": "claimTokens",
          "type": "address[]"
        },
        {
          "internalType": "uint256[]",
          "name": "amounts",
          "type": "uint256[]"
        }
      ],
      "name": "withdraw",
      "outputs": [],
      "stateMutability": "nonpayable",
      "type": "function"
    },
    {
      "inputs": [],
      "name": "withdrawMode",
      "outputs": [
        {
          "internalType": "enum IWithdrawableInternal.Mode",
          "name": "",
          "type": "uint8"
        }
      ],
      "stateMutability": "view",
      "type": "function"
    },
    {
      "inputs": [],
      "name": "withdrawModeLocked",
      "outputs": [
        {
          "internalType": "bool",
          "name": "",
          "type": "bool"
        }
      ],
      "stateMutability": "view",
      "type": "function"
    },
    {
      "inputs": [],
      "name": "withdrawPowerRevoked",
      "outputs": [
        {
          "internalType": "bool",
          "name": "",
          "type": "bool"
        }
      ],
      "stateMutability": "view",
      "type": "function"
    },
    {
      "inputs": [],
      "name": "withdrawRecipient",
      "outputs": [
        {
          "internalType": "address",
          "name": "",
          "type": "address"
        }
      ],
      "stateMutability": "view",
      "type": "function"
    },
    {
      "inputs": [],
      "name": "withdrawRecipientLocked",
      "outputs": [
        {
          "internalType": "bool",
          "name": "",
          "type": "bool"
        }
      ],
      "stateMutability": "view",
      "type": "function"
    }
  ],
  "transactionHash": "0x4723813ddfa35def011ead7fcf9c3c89fa153587fc4c8ae21016977af80045a9",
  "args": [],
  "numDeployments": 2,
  "solcInputHash": "babb323e8d447d3ed5545515696dedf9",
  "bytecode": "0x608060405234801561001057600080fd5b50610929806100206000396000f3fe608060405234801561001057600080fd5b50600436106100725760003560e01c8063af121f5411610050578063af121f541461014e578063dcbe353f14610191578063de6d6d96146101b157600080fd5b80632d00b5871461007757806349561cb9146100b95780636057e0ec1461010a575b600080fd5b7f90911dd6b04582315fdcc835c92eb07b11f82eb9def7c511af0f2f9de3ddcfe354600160a01b900460ff166040516100b091906106db565b60405180910390f35b7f90911dd6b04582315fdcc835c92eb07b11f82eb9def7c511af0f2f9de3ddcfe35477010000000000000000000000000000000000000000000000900460ff165b60405190151581526020016100b0565b7f90911dd6b04582315fdcc835c92eb07b11f82eb9def7c511af0f2f9de3ddcfe354760100000000000000000000000000000000000000000000900460ff166100fa565b7f90911dd6b04582315fdcc835c92eb07b11f82eb9def7c511af0f2f9de3ddcfe3547501000000000000000000000000000000000000000000900460ff166100fa565b6101996101cb565b6040516001600160a01b0390911681526020016100b0565b6101c46101bf36600461074f565b6101d5565b005b905090565b60006101c66101e7565b6101e18484848461021a565b50505050565b60007f90911dd6b04582315fdcc835c92eb07b11f82eb9def7c511af0f2f9de3ddcfe35b546001600160a01b0316919050565b7f90911dd6b04582315fdcc835c92eb07b11f82eb9def7c511af0f2f9de3ddcfe38054600390600160a01b900460ff168181111561025a5761025a6106c5565b036102785760405163d4f0dd9760e01b815260040160405180910390fd5b60018154600160a01b900460ff166003811115610297576102976106c5565b036102e35780546001600160a01b031633146102de576040517e2311a600000000000000000000000000000000000000000000000000000000815260040160405180910390fd5b610350565b60008154600160a01b900460ff166003811115610302576103026106c5565b03610350573361031061057a565b6001600160a01b031614610350576040517fe3c30fea00000000000000000000000000000000000000000000000000000000815260040160405180910390fd5b80547501000000000000000000000000000000000000000000900460ff161561038c5760405163d4f0dd9760e01b815260040160405180910390fd5b80546001600160a01b03166103cd576040517f7075df0000000000000000000000000000000000000000000000000000000000815260040160405180910390fd5b60005b848110156105355760008686838181106103ec576103ec6107bb565b905060200201602081019061040191906107ed565b6001600160a01b0316036104435761043e848483818110610424576104246107bb565b85546001600160a01b0316926020909102013590506105a2565b610523565b858582818110610455576104556107bb565b905060200201602081019061046a91906107ed565b82546001600160a01b039182169163a9059cbb9116868685818110610491576104916107bb565b6040517fffffffff0000000000000000000000000000000000000000000000000000000060e087901b1681526001600160a01b03909416600485015260200291909101356024830152506044016020604051808303816000875af11580156104fd573d6000803e3d6000fd5b505050506040513d601f19601f82011682018060405250810190610521919061080f565b505b8061052d81610831565b9150506103d0565b507fd40c399a83caf67d15628b821aa7c7bd940e563c57a047e2bd3b8c602bcaf5a58585858560405161056b9493929190610858565b60405180910390a15050505050565b60007fc0ea367cb0174dd5521cd2372c76f8c13e6c1f832c71f1d6e0cbc185c9cc8ed461020b565b804710156105f75760405162461bcd60e51b815260206004820152601d60248201527f416464726573733a20696e73756666696369656e742062616c616e636500000060448201526064015b60405180910390fd5b6000826001600160a01b03168260405160006040518083038185875af1925050503d8060008114610644576040519150601f19603f3d011682016040523d82523d6000602084013e610649565b606091505b50509050806106c05760405162461bcd60e51b815260206004820152603a60248201527f416464726573733a20756e61626c6520746f2073656e642076616c75652c207260448201527f6563697069656e74206d6179206861766520726576657274656400000000000060648201526084016105ee565b505050565b634e487b7160e01b600052602160045260246000fd5b60208101600483106106fd57634e487b7160e01b600052602160045260246000fd5b91905290565b60008083601f84011261071557600080fd5b50813567ffffffffffffffff81111561072d57600080fd5b6020830191508360208260051b850101111561074857600080fd5b9250929050565b6000806000806040858703121561076557600080fd5b843567ffffffffffffffff8082111561077d57600080fd5b61078988838901610703565b909650945060208701359150808211156107a257600080fd5b506107af87828801610703565b95989497509550505050565b634e487b7160e01b600052603260045260246000fd5b80356001600160a01b03811681146107e857600080fd5b919050565b6000602082840312156107ff57600080fd5b610808826107d1565b9392505050565b60006020828403121561082157600080fd5b8151801515811461080857600080fd5b60006001820161085157634e487b7160e01b600052601160045260246000fd5b5060010190565b6040808252810184905260008560608301825b87811015610899576001600160a01b03610884846107d1565b1682526020928301929091019060010161086b565b5083810360208501528481527f07ffffffffffffffffffffffffffffffffffffffffffffffffffffffffffffff8511156108d257600080fd5b8460051b91508186602083013760009101602001908152969550505050505056fea264697066735822122018814a6e0ccda163b20e29b2c97d4abdde8d28e00b0f63a7f1afc1d8737bcb7864736f6c634300080f0033",
  "devdoc": {
    "custom:category": "Finance",
    "custom:provides-interfaces": "IWithdrawable",
    "custom:type": "eip-2535-facet",
    "kind": "dev",
    "methods": {},
    "title": "Withdrawable",
    "version": 1
  },
  "userdoc": {
    "kind": "user",
    "methods": {},
    "notice": "Allow withdrwaing any ERC20 or native tokens from the contract.",
    "version": 1
  },
  "storageLayout": {
    "storage": [],
    "types": null
  }
}