{
  "address": "0xe0F561A9C77c04092593Ff88370D703F239B4f7f",
  "abi": [
    {
      "inputs": [],
      "name": "ErrWithdrawImpossible",
      "type": "error"
    },
    {
      "inputs": [],
      "name": "ErrWithdrawModeLocked",
      "type": "error"
    },
    {
      "inputs": [],
      "name": "ErrWithdrawOnlyOwner",
      "type": "error"
    },
    {
      "inputs": [],
      "name": "ErrWithdrawOnlyRecipient",
      "type": "error"
    },
    {
      "inputs": [],
      "name": "ErrWithdrawRecipientLocked",
      "type": "error"
    },
    {
      "inputs": [],
      "name": "ErrWithdrawRecipientNotSet",
      "type": "error"
    },
    {
      "anonymous": false,
      "inputs": [
        {
          "indexed": true,
          "internalType": "address",
          "name": "previousOwner",
          "type": "address"
        },
        {
          "indexed": true,
          "internalType": "address",
          "name": "newOwner",
          "type": "address"
        }
      ],
      "name": "OwnershipTransferred",
      "type": "event"
    },
    {
      "anonymous": false,
      "inputs": [
        {
          "indexed": false,
          "internalType": "enum IWithdrawableInternal.Mode",
          "name": "_mode",
          "type": "uint8"
        }
      ],
      "name": "WithdrawModeChanged",
      "type": "event"
    },
    {
      "anonymous": false,
      "inputs": [],
      "name": "WithdrawModeLocked",
      "type": "event"
    },
    {
      "anonymous": false,
      "inputs": [],
      "name": "WithdrawPowerRevoked",
      "type": "event"
    },
    {
      "anonymous": false,
      "inputs": [
        {
          "indexed": true,
          "internalType": "address",
          "name": "recipient",
          "type": "address"
        }
      ],
      "name": "WithdrawRecipientChanged",
      "type": "event"
    },
    {
      "anonymous": false,
      "inputs": [],
      "name": "WithdrawRecipientLocked",
      "type": "event"
    },
    {
      "anonymous": false,
      "inputs": [
        {
          "indexed": false,
          "internalType": "address[]",
          "name": "claimTokens",
          "type": "address[]"
        },
        {
          "indexed": false,
          "internalType": "uint256[]",
          "name": "amounts",
          "type": "uint256[]"
        }
      ],
      "name": "Withdrawn",
      "type": "event"
    },
    {
      "inputs": [],
      "name": "lockWithdrawMode",
      "outputs": [],
      "stateMutability": "nonpayable",
      "type": "function"
    },
    {
      "inputs": [],
      "name": "lockWithdrawRecipient",
      "outputs": [],
      "stateMutability": "nonpayable",
      "type": "function"
    },
    {
      "inputs": [],
      "name": "revokeWithdrawPower",
      "outputs": [],
      "stateMutability": "nonpayable",
      "type": "function"
    },
    {
      "inputs": [
        {
          "internalType": "enum IWithdrawableInternal.Mode",
          "name": "mode",
          "type": "uint8"
        }
      ],
      "name": "setWithdrawMode",
      "outputs": [],
      "stateMutability": "nonpayable",
      "type": "function"
    },
    {
      "inputs": [
        {
          "internalType": "address",
          "name": "recipient",
          "type": "address"
        }
      ],
      "name": "setWithdrawRecipient",
      "outputs": [],
      "stateMutability": "nonpayable",
      "type": "function"
    }
  ],
  "transactionHash": "0x7aa3f64d9c14049905251835847bc6f0b62e6e96e1d6b15a425a8c865e08daa3",
  "args": [],
  "numDeployments": 1,
  "solcInputHash": "c4fe8eff10d3ecb34ecf7b1b5bda5a68",
  "bytecode": "0x608060405234801561001057600080fd5b50610782806100206000396000f3fe608060405234801561001057600080fd5b50600436106100675760003560e01c8063c0bb38ff11610050578063c0bb38ff14610089578063c723955a1461009c578063da82b227146100a457600080fd5b80632c2330671461006c578063837fe14014610081575b600080fd5b61007f61007a3660046106bd565b6100ac565b005b61007f610136565b61007f6100973660046106e5565b6101b9565b61007f61023b565b61007f6102bc565b7fc0ea367cb0174dd5521cd2372c76f8c13e6c1f832c71f1d6e0cbc185c9cc8ed4546001600160a01b0316331461012a5760405162461bcd60e51b815260206004820152601d60248201527f4f776e61626c653a2073656e646572206d757374206265206f776e657200000060448201526064015b60405180910390fd5b6101338161033d565b50565b7fc0ea367cb0174dd5521cd2372c76f8c13e6c1f832c71f1d6e0cbc185c9cc8ed4546001600160a01b031633146101af5760405162461bcd60e51b815260206004820152601d60248201527f4f776e61626c653a2073656e646572206d757374206265206f776e65720000006044820152606401610121565b6101b7610445565b565b7fc0ea367cb0174dd5521cd2372c76f8c13e6c1f832c71f1d6e0cbc185c9cc8ed4546001600160a01b031633146102325760405162461bcd60e51b815260206004820152601d60248201527f4f776e61626c653a2073656e646572206d757374206265206f776e65720000006044820152606401610121565b610133816104d0565b7fc0ea367cb0174dd5521cd2372c76f8c13e6c1f832c71f1d6e0cbc185c9cc8ed4546001600160a01b031633146102b45760405162461bcd60e51b815260206004820152601d60248201527f4f776e61626c653a2073656e646572206d757374206265206f776e65720000006044820152606401610121565b6101b76105a7565b7fc0ea367cb0174dd5521cd2372c76f8c13e6c1f832c71f1d6e0cbc185c9cc8ed4546001600160a01b031633146103355760405162461bcd60e51b815260206004820152601d60248201527f4f776e61626c653a2073656e646572206d757374206265206f776e65720000006044820152606401610121565b6101b7610633565b7f90911dd6b04582315fdcc835c92eb07b11f82eb9def7c511af0f2f9de3ddcfe3805477010000000000000000000000000000000000000000000000900460ff16156103b5576040517ff961232500000000000000000000000000000000000000000000000000000000815260040160405180910390fd5b8054829082907fffffffffffffffffffffff00ffffffffffffffffffffffffffffffffffffffff16740100000000000000000000000000000000000000008360038111156104055761040561070e565b02179055507fde0b932afc455f2ef84dd8684b5b48f5ef6849dab435f13ebee6d30b0abb96b1826040516104399190610724565b60405180910390a15050565b7f90911dd6b04582315fdcc835c92eb07b11f82eb9def7c511af0f2f9de3ddcfe380547fffffffffffffffffff00ffffffffffffffffffffffffffffffffffffffffffff167601000000000000000000000000000000000000000000001790556040517fbbc3137b0845e12dca46906c86270ec38a67a8a1085ea85f52c15f1cb990e17b90600090a1565b7f90911dd6b04582315fdcc835c92eb07b11f82eb9def7c511af0f2f9de3ddcfe38054760100000000000000000000000000000000000000000000900460ff1615610547576040517f3f890c5c00000000000000000000000000000000000000000000000000000000815260040160405180910390fd5b80547fffffffffffffffffffffffff0000000000000000000000000000000000000000166001600160a01b03831690811782556040517f328214994c9eda72aea54f961861d8ae0038919eef1daa5c2219dcb12c43e66990600090a25050565b7f90911dd6b04582315fdcc835c92eb07b11f82eb9def7c511af0f2f9de3ddcfe380547fffffffffffffffff00ffffffffffffffffffffffffffffffffffffffffffffff16770100000000000000000000000000000000000000000000001790556040517f674492e2ade911c1384eab01230d30e9d669ac7e6881735bdcb97e01b9272bd290600090a1565b7f90911dd6b04582315fdcc835c92eb07b11f82eb9def7c511af0f2f9de3ddcfe380547fffffffffffffffffffff00ffffffffffffffffffffffffffffffffffffffffff1675010000000000000000000000000000000000000000001790556040517fa24423a69b45c25c0479663125e48b482e71d85eae416f589545243bafaf3c9590600090a1565b6000602082840312156106cf57600080fd5b8135600481106106de57600080fd5b9392505050565b6000602082840312156106f757600080fd5b81356001600160a01b03811681146106de57600080fd5b634e487b7160e01b600052602160045260246000fd5b602081016004831061074657634e487b7160e01b600052602160045260246000fd5b9190529056fea2646970667358221220dacf197f8a3f3bf99686c3600f442706d61b5edd97b5192081fd94f92aefedbf64736f6c634300080f0033",
  "devdoc": {
    "custom:category": "Finance",
    "custom:peer-dependencies": "IWithdrawable",
    "custom:provides-interfaces": "IWithdrawableAdmin",
    "custom:type": "eip-2535-facet",
    "kind": "dev",
    "methods": {},
    "title": "Withdrawable - Admin - Ownable",
    "version": 1
  },
  "userdoc": {
    "kind": "user",
    "methods": {},
    "notice": "Allow contract owner to manage who can withdraw funds and how.",
    "version": 1
  },
  "storageLayout": {
    "storage": [],
    "types": null
  }
}