{
  "address": "0xE2cb3B6Ff2bcffCDDdDeca9FAff4d393f25ab5da",
  "abi": [
    {
      "inputs": [
        {
          "components": [
            {
              "internalType": "string",
              "name": "name",
              "type": "string"
            },
            {
              "internalType": "string",
              "name": "symbol",
              "type": "string"
            },
            {
              "internalType": "string",
              "name": "contractURI",
              "type": "string"
            },
            {
              "internalType": "string",
              "name": "placeholderURI",
              "type": "string"
            },
            {
              "internalType": "string",
              "name": "tokenURIPrefix",
              "type": "string"
            },
            {
              "internalType": "uint256",
              "name": "maxSupply",
              "type": "uint256"
            },
            {
              "components": [
                {
                  "internalType": "uint256",
                  "name": "start",
                  "type": "uint256"
                },
                {
                  "internalType": "uint256",
                  "name": "end",
                  "type": "uint256"
                },
                {
                  "internalType": "address",
                  "name": "currency",
                  "type": "address"
                },
                {
                  "internalType": "uint256",
                  "name": "price",
                  "type": "uint256"
                },
                {
                  "internalType": "uint256",
                  "name": "maxPerWallet",
                  "type": "uint256"
                },
                {
                  "internalType": "bytes32",
                  "name": "merkleRoot",
                  "type": "bytes32"
                },
                {
                  "internalType": "uint256",
                  "name": "reserved",
                  "type": "uint256"
                },
                {
                  "internalType": "uint256",
                  "name": "maxAllocation",
                  "type": "uint256"
                }
              ],
              "internalType": "struct IERC721TieringExtension.Tier[]",
              "name": "tiers",
              "type": "tuple[]"
            },
            {
              "internalType": "address",
              "name": "defaultRoyaltyAddress",
              "type": "address"
            },
            {
              "internalType": "uint16",
              "name": "defaultRoyaltyBps",
              "type": "uint16"
            },
            {
              "internalType": "address",
              "name": "proceedsRecipient",
              "type": "address"
            },
            {
              "internalType": "address",
              "name": "trustedForwarder",
              "type": "address"
            }
          ],
          "internalType": "struct ERC721TieredSalesCollection.Config",
          "name": "config",
          "type": "tuple"
        }
      ],
      "stateMutability": "nonpayable",
      "type": "constructor"
    },
    {
      "anonymous": false,
      "inputs": [
        {
          "indexed": true,
          "internalType": "address",
          "name": "owner",
          "type": "address"
        },
        {
          "indexed": true,
          "internalType": "address",
          "name": "approved",
          "type": "address"
        },
        {
          "indexed": true,
          "internalType": "uint256",
          "name": "tokenId",
          "type": "uint256"
        }
      ],
      "name": "Approval",
      "type": "event"
    },
    {
      "anonymous": false,
      "inputs": [
        {
          "indexed": true,
          "internalType": "address",
          "name": "owner",
          "type": "address"
        },
        {
          "indexed": true,
          "internalType": "address",
          "name": "operator",
          "type": "address"
        },
        {
          "indexed": false,
          "internalType": "bool",
          "name": "approved",
          "type": "bool"
        }
      ],
      "name": "ApprovalForAll",
      "type": "event"
    },
    {
      "anonymous": false,
      "inputs": [
        {
          "indexed": false,
          "internalType": "address",
          "name": "recipient",
          "type": "address"
        },
        {
          "indexed": false,
          "internalType": "uint16",
          "name": "bps",
          "type": "uint16"
        }
      ],
      "name": "DefaultRoyaltySet",
      "type": "event"
    },
    {
      "anonymous": false,
      "inputs": [
        {
          "indexed": false,
          "internalType": "uint8",
          "name": "version",
          "type": "uint8"
        }
      ],
      "name": "Initialized",
      "type": "event"
    },
    {
      "anonymous": false,
      "inputs": [
        {
          "indexed": true,
          "internalType": "address",
          "name": "previousOwner",
          "type": "address"
        },
        {
          "indexed": true,
          "internalType": "address",
          "name": "newOwner",
          "type": "address"
        }
      ],
      "name": "OwnershipTransferred",
      "type": "event"
    },
    {
      "anonymous": false,
      "inputs": [
        {
          "indexed": true,
          "internalType": "bytes32",
          "name": "role",
          "type": "bytes32"
        },
        {
          "indexed": true,
          "internalType": "bytes32",
          "name": "previousAdminRole",
          "type": "bytes32"
        },
        {
          "indexed": true,
          "internalType": "bytes32",
          "name": "newAdminRole",
          "type": "bytes32"
        }
      ],
      "name": "RoleAdminChanged",
      "type": "event"
    },
    {
      "anonymous": false,
      "inputs": [
        {
          "indexed": true,
          "internalType": "bytes32",
          "name": "role",
          "type": "bytes32"
        },
        {
          "indexed": true,
          "internalType": "address",
          "name": "account",
          "type": "address"
        },
        {
          "indexed": true,
          "internalType": "address",
          "name": "sender",
          "type": "address"
        }
      ],
      "name": "RoleGranted",
      "type": "event"
    },
    {
      "anonymous": false,
      "inputs": [
        {
          "indexed": true,
          "internalType": "bytes32",
          "name": "role",
          "type": "bytes32"
        },
        {
          "indexed": true,
          "internalType": "address",
          "name": "account",
          "type": "address"
        },
        {
          "indexed": true,
          "internalType": "address",
          "name": "sender",
          "type": "address"
        }
      ],
      "name": "RoleRevoked",
      "type": "event"
    },
    {
      "anonymous": false,
      "inputs": [
        {
          "indexed": false,
          "internalType": "uint256",
          "name": "tokenId",
          "type": "uint256"
        }
      ],
      "name": "TokenRoyaltyRemoved",
      "type": "event"
    },
    {
      "anonymous": false,
      "inputs": [
        {
          "indexed": false,
          "internalType": "uint256",
          "name": "tokenId",
          "type": "uint256"
        },
        {
          "indexed": false,
          "internalType": "address",
          "name": "recipient",
          "type": "address"
        },
        {
          "indexed": false,
          "internalType": "uint16",
          "name": "bps",
          "type": "uint16"
        }
      ],
      "name": "TokenRoyaltySet",
      "type": "event"
    },
    {
      "anonymous": false,
      "inputs": [
        {
          "indexed": true,
          "internalType": "address",
          "name": "from",
          "type": "address"
        },
        {
          "indexed": true,
          "internalType": "address",
          "name": "to",
          "type": "address"
        },
        {
          "indexed": true,
          "internalType": "uint256",
          "name": "tokenId",
          "type": "uint256"
        }
      ],
      "name": "Transfer",
      "type": "event"
    },
    {
      "anonymous": false,
      "inputs": [],
      "name": "WithdrawPowerRevoked",
      "type": "event"
    },
    {
      "anonymous": false,
      "inputs": [
        {
          "indexed": false,
          "internalType": "address[]",
          "name": "claimTokens",
          "type": "address[]"
        },
        {
          "indexed": false,
          "internalType": "uint256[]",
          "name": "amounts",
          "type": "uint256[]"
        }
      ],
      "name": "Withdrawn",
      "type": "event"
    },
    {
      "inputs": [],
      "name": "DEFAULT_ADMIN_ROLE",
      "outputs": [
        {
          "internalType": "bytes32",
          "name": "",
          "type": "bytes32"
        }
      ],
      "stateMutability": "view",
      "type": "function"
    },
    {
      "inputs": [],
      "name": "LOCKER_ROLE",
      "outputs": [
        {
          "internalType": "bytes32",
          "name": "",
          "type": "bytes32"
        }
      ],
      "stateMutability": "view",
      "type": "function"
    },
    {
      "inputs": [],
      "name": "MINTER_ROLE",
      "outputs": [
        {
          "internalType": "bytes32",
          "name": "",
          "type": "bytes32"
        }
      ],
      "stateMutability": "view",
      "type": "function"
    },
    {
      "inputs": [],
      "name": "_trustedForwarder",
      "outputs": [
        {
          "internalType": "address",
          "name": "",
          "type": "address"
        }
      ],
      "stateMutability": "view",
      "type": "function"
    },
    {
      "inputs": [
        {
          "internalType": "address",
          "name": "to",
          "type": "address"
        },
        {
          "internalType": "uint256",
          "name": "tokenId",
          "type": "uint256"
        }
      ],
      "name": "approve",
      "outputs": [],
      "stateMutability": "nonpayable",
      "type": "function"
    },
    {
      "inputs": [
        {
          "internalType": "address",
          "name": "owner",
          "type": "address"
        }
      ],
      "name": "balanceOf",
      "outputs": [
        {
          "internalType": "uint256",
          "name": "",
          "type": "uint256"
        }
      ],
      "stateMutability": "view",
      "type": "function"
    },
    {
      "inputs": [
        {
          "internalType": "uint256",
          "name": "tierId",
          "type": "uint256"
        },
        {
          "components": [
            {
              "internalType": "uint256",
              "name": "start",
              "type": "uint256"
            },
            {
              "internalType": "uint256",
              "name": "end",
              "type": "uint256"
            },
            {
              "internalType": "address",
              "name": "currency",
              "type": "address"
            },
            {
              "internalType": "uint256",
              "name": "price",
              "type": "uint256"
            },
            {
              "internalType": "uint256",
              "name": "maxPerWallet",
              "type": "uint256"
            },
            {
              "internalType": "bytes32",
              "name": "merkleRoot",
              "type": "bytes32"
            },
            {
              "internalType": "uint256",
              "name": "reserved",
              "type": "uint256"
            },
            {
              "internalType": "uint256",
              "name": "maxAllocation",
              "type": "uint256"
            }
          ],
          "internalType": "struct IERC721TieringExtension.Tier",
          "name": "tier",
          "type": "tuple"
        }
      ],
      "name": "configureTiering",
      "outputs": [],
      "stateMutability": "nonpayable",
      "type": "function"
    },
    {
      "inputs": [
        {
          "internalType": "uint256[]",
          "name": "_tierIds",
          "type": "uint256[]"
        },
        {
          "components": [
            {
              "internalType": "uint256",
              "name": "start",
              "type": "uint256"
            },
            {
              "internalType": "uint256",
              "name": "end",
              "type": "uint256"
            },
            {
              "internalType": "address",
              "name": "currency",
              "type": "address"
            },
            {
              "internalType": "uint256",
              "name": "price",
              "type": "uint256"
            },
            {
              "internalType": "uint256",
              "name": "maxPerWallet",
              "type": "uint256"
            },
            {
              "internalType": "bytes32",
              "name": "merkleRoot",
              "type": "bytes32"
            },
            {
              "internalType": "uint256",
              "name": "reserved",
              "type": "uint256"
            },
            {
              "internalType": "uint256",
              "name": "maxAllocation",
              "type": "uint256"
            }
          ],
          "internalType": "struct IERC721TieringExtension.Tier[]",
          "name": "_tiers",
          "type": "tuple[]"
        }
      ],
      "name": "configureTiering",
      "outputs": [],
      "stateMutability": "nonpayable",
      "type": "function"
    },
    {
      "inputs": [],
      "name": "contractURI",
      "outputs": [
        {
          "internalType": "string",
          "name": "",
          "type": "string"
        }
      ],
      "stateMutability": "view",
      "type": "function"
    },
    {
      "inputs": [],
      "name": "defaultRoyalty",
      "outputs": [
        {
          "internalType": "address",
          "name": "recipient",
          "type": "address"
        },
        {
          "internalType": "uint16",
          "name": "bps",
          "type": "uint16"
        }
      ],
      "stateMutability": "view",
      "type": "function"
    },
    {
      "inputs": [
        {
          "internalType": "uint256",
          "name": "tierId",
          "type": "uint256"
        },
        {
          "internalType": "address",
          "name": "minter",
          "type": "address"
        },
        {
          "internalType": "uint256",
          "name": "maxAllowance",
          "type": "uint256"
        },
        {
          "internalType": "bytes32[]",
          "name": "proof",
          "type": "bytes32[]"
        }
      ],
      "name": "eligibleForTier",
      "outputs": [
        {
          "internalType": "uint256",
          "name": "maxMintable",
          "type": "uint256"
        }
      ],
      "stateMutability": "view",
      "type": "function"
    },
    {
      "inputs": [
        {
          "internalType": "uint256[]",
          "name": "ticketTokenIds",
          "type": "uint256[]"
        }
      ],
      "name": "filterUnlocked",
      "outputs": [
        {
          "internalType": "uint256[]",
          "name": "",
          "type": "uint256[]"
        }
      ],
      "stateMutability": "view",
      "type": "function"
    },
    {
      "inputs": [],
      "name": "freezeMaxSupply",
      "outputs": [],
      "stateMutability": "nonpayable",
      "type": "function"
    },
    {
      "inputs": [],
      "name": "freezeTokenURI",
      "outputs": [],
      "stateMutability": "nonpayable",
      "type": "function"
    },
    {
      "inputs": [
        {
          "internalType": "uint256",
          "name": "tokenId",
          "type": "uint256"
        }
      ],
      "name": "getApproved",
      "outputs": [
        {
          "internalType": "address",
          "name": "",
          "type": "address"
        }
      ],
      "stateMutability": "view",
      "type": "function"
    },
    {
      "inputs": [
        {
          "internalType": "uint256",
          "name": "id",
          "type": "uint256"
        }
      ],
      "name": "getRaribleV2Royalties",
      "outputs": [
        {
          "components": [
            {
              "internalType": "address payable",
              "name": "account",
              "type": "address"
            },
            {
              "internalType": "uint96",
              "name": "value",
              "type": "uint96"
            }
          ],
          "internalType": "struct LibPart.Part[]",
          "name": "result",
          "type": "tuple[]"
        }
      ],
      "stateMutability": "view",
      "type": "function"
    },
    {
      "inputs": [
        {
          "internalType": "bytes32",
          "name": "role",
          "type": "bytes32"
        }
      ],
      "name": "getRoleAdmin",
      "outputs": [
        {
          "internalType": "bytes32",
          "name": "",
          "type": "bytes32"
        }
      ],
      "stateMutability": "view",
      "type": "function"
    },
    {
      "inputs": [],
      "name": "getTokenRoyaltiesCount",
      "outputs": [
        {
          "internalType": "uint256",
          "name": "",
          "type": "uint256"
        }
      ],
      "stateMutability": "view",
      "type": "function"
    },
    {
      "inputs": [
        {
          "internalType": "uint256",
          "name": "index",
          "type": "uint256"
        }
      ],
      "name": "getTokenRoyaltyByIndex",
      "outputs": [
        {
          "components": [
            {
              "internalType": "uint256",
              "name": "tokenId",
              "type": "uint256"
            },
            {
              "internalType": "address",
              "name": "recipient",
              "type": "address"
            },
            {
              "internalType": "uint16",
              "name": "bps",
              "type": "uint16"
            }
          ],
          "internalType": "struct IEIP2981RoyaltyOverride.TokenRoyaltyConfig",
          "name": "",
          "type": "tuple"
        }
      ],
      "stateMutability": "view",
      "type": "function"
    },
    {
      "inputs": [
        {
          "internalType": "bytes32",
          "name": "role",
          "type": "bytes32"
        },
        {
          "internalType": "address",
          "name": "account",
          "type": "address"
        }
      ],
      "name": "grantRole",
      "outputs": [],
      "stateMutability": "nonpayable",
      "type": "function"
    },
    {
      "inputs": [
        {
          "internalType": "bytes32",
          "name": "role",
          "type": "bytes32"
        },
        {
          "internalType": "address",
          "name": "account",
          "type": "address"
        }
      ],
      "name": "hasRole",
      "outputs": [
        {
          "internalType": "bool",
          "name": "",
          "type": "bool"
        }
      ],
      "stateMutability": "view",
      "type": "function"
    },
    {
      "inputs": [],
      "name": "hasRoleBasedLockableExtension",
      "outputs": [
        {
          "internalType": "bool",
          "name": "",
          "type": "bool"
        }
      ],
      "stateMutability": "view",
      "type": "function"
    },
    {
      "inputs": [
        {
          "components": [
            {
              "internalType": "string",
              "name": "name",
              "type": "string"
            },
            {
              "internalType": "string",
              "name": "symbol",
              "type": "string"
            },
            {
              "internalType": "string",
              "name": "contractURI",
              "type": "string"
            },
            {
              "internalType": "string",
              "name": "placeholderURI",
              "type": "string"
            },
            {
              "internalType": "string",
              "name": "tokenURIPrefix",
              "type": "string"
            },
            {
              "internalType": "uint256",
              "name": "maxSupply",
              "type": "uint256"
            },
            {
              "components": [
                {
                  "internalType": "uint256",
                  "name": "start",
                  "type": "uint256"
                },
                {
                  "internalType": "uint256",
                  "name": "end",
                  "type": "uint256"
                },
                {
                  "internalType": "address",
                  "name": "currency",
                  "type": "address"
                },
                {
                  "internalType": "uint256",
                  "name": "price",
                  "type": "uint256"
                },
                {
                  "internalType": "uint256",
                  "name": "maxPerWallet",
                  "type": "uint256"
                },
                {
                  "internalType": "bytes32",
                  "name": "merkleRoot",
                  "type": "bytes32"
                },
                {
                  "internalType": "uint256",
                  "name": "reserved",
                  "type": "uint256"
                },
                {
                  "internalType": "uint256",
                  "name": "maxAllocation",
                  "type": "uint256"
                }
              ],
              "internalType": "struct IERC721TieringExtension.Tier[]",
              "name": "tiers",
              "type": "tuple[]"
            },
            {
              "internalType": "address",
              "name": "defaultRoyaltyAddress",
              "type": "address"
            },
            {
              "internalType": "uint16",
              "name": "defaultRoyaltyBps",
              "type": "uint16"
            },
            {
              "internalType": "address",
              "name": "proceedsRecipient",
              "type": "address"
            },
            {
              "internalType": "address",
              "name": "trustedForwarder",
              "type": "address"
            }
          ],
          "internalType": "struct ERC721TieredSalesCollection.Config",
          "name": "config",
          "type": "tuple"
        },
        {
          "internalType": "address",
          "name": "deployer",
          "type": "address"
        }
      ],
      "name": "initialize",
      "outputs": [],
      "stateMutability": "nonpayable",
      "type": "function"
    },
    {
      "inputs": [
        {
          "internalType": "address",
          "name": "owner",
          "type": "address"
        },
        {
          "internalType": "address",
          "name": "operator",
          "type": "address"
        }
      ],
      "name": "isApprovedForAll",
      "outputs": [
        {
          "internalType": "bool",
          "name": "",
          "type": "bool"
        }
      ],
      "stateMutability": "view",
      "type": "function"
    },
    {
      "inputs": [
        {
          "internalType": "address",
          "name": "forwarder",
          "type": "address"
        }
      ],
      "name": "isTrustedForwarder",
      "outputs": [
        {
          "internalType": "bool",
          "name": "",
          "type": "bool"
        }
      ],
      "stateMutability": "view",
      "type": "function"
    },
    {
      "inputs": [
        {
          "internalType": "uint256[]",
          "name": "tokenIds",
          "type": "uint256[]"
        }
      ],
      "name": "lock",
      "outputs": [],
      "stateMutability": "nonpayable",
      "type": "function"
    },
    {
      "inputs": [
        {
          "internalType": "uint256",
          "name": "tokenId",
          "type": "uint256"
        }
      ],
      "name": "lock",
      "outputs": [],
      "stateMutability": "nonpayable",
      "type": "function"
    },
    {
      "inputs": [],
      "name": "lockWithdrawMode",
      "outputs": [],
      "stateMutability": "nonpayable",
      "type": "function"
    },
    {
      "inputs": [],
      "name": "lockWithdrawRecipient",
      "outputs": [],
      "stateMutability": "nonpayable",
      "type": "function"
    },
    {
      "inputs": [
        {
          "internalType": "uint256",
          "name": "tokenId",
          "type": "uint256"
        }
      ],
      "name": "locked",
      "outputs": [
        {
          "internalType": "bool",
          "name": "",
          "type": "bool"
        }
      ],
      "stateMutability": "view",
      "type": "function"
    },
    {
      "inputs": [],
      "name": "maxSupply",
      "outputs": [
        {
          "internalType": "uint256",
          "name": "",
          "type": "uint256"
        }
      ],
      "stateMutability": "view",
      "type": "function"
    },
    {
      "inputs": [],
      "name": "maxSupplyFrozen",
      "outputs": [
        {
          "internalType": "bool",
          "name": "",
          "type": "bool"
        }
      ],
      "stateMutability": "view",
      "type": "function"
    },
    {
      "inputs": [
        {
          "internalType": "address",
          "name": "to",
          "type": "address"
        },
        {
          "internalType": "uint256",
          "name": "count",
          "type": "uint256"
        }
      ],
      "name": "mintByOwner",
      "outputs": [],
      "stateMutability": "nonpayable",
      "type": "function"
    },
    {
      "inputs": [
        {
          "internalType": "address",
          "name": "to",
          "type": "address"
        },
        {
          "internalType": "uint256",
          "name": "count",
          "type": "uint256"
        }
      ],
      "name": "mintByRole",
      "outputs": [],
      "stateMutability": "nonpayable",
      "type": "function"
    },
    {
      "inputs": [
        {
          "internalType": "uint256",
          "name": "tierId",
          "type": "uint256"
        },
        {
          "internalType": "uint256",
          "name": "count",
          "type": "uint256"
        },
        {
          "internalType": "uint256",
          "name": "maxAllowance",
          "type": "uint256"
        },
        {
          "internalType": "bytes32[]",
          "name": "proof",
          "type": "bytes32[]"
        }
      ],
      "name": "mintByTier",
      "outputs": [],
      "stateMutability": "payable",
      "type": "function"
    },
    {
      "inputs": [],
      "name": "name",
      "outputs": [
        {
          "internalType": "string",
          "name": "",
          "type": "string"
        }
      ],
      "stateMutability": "view",
      "type": "function"
    },
    {
      "inputs": [
        {
          "internalType": "uint256",
          "name": "tierId",
          "type": "uint256"
        },
        {
          "internalType": "address",
          "name": "minter",
          "type": "address"
        },
        {
          "internalType": "uint256",
          "name": "maxAllowance",
          "type": "uint256"
        },
        {
          "internalType": "bytes32[]",
          "name": "proof",
          "type": "bytes32[]"
        }
      ],
      "name": "onTierAllowlist",
      "outputs": [
        {
          "internalType": "bool",
          "name": "",
          "type": "bool"
        }
      ],
      "stateMutability": "view",
      "type": "function"
    },
    {
      "inputs": [],
      "name": "owner",
      "outputs": [
        {
          "internalType": "address",
          "name": "",
          "type": "address"
        }
      ],
      "stateMutability": "view",
      "type": "function"
    },
    {
      "inputs": [
        {
          "internalType": "uint256",
          "name": "tokenId",
          "type": "uint256"
        }
      ],
      "name": "ownerOf",
      "outputs": [
        {
          "internalType": "address",
          "name": "",
          "type": "address"
        }
      ],
      "stateMutability": "view",
      "type": "function"
    },
    {
      "inputs": [],
      "name": "placeholderURI",
      "outputs": [
        {
          "internalType": "string",
          "name": "",
          "type": "string"
        }
      ],
      "stateMutability": "view",
      "type": "function"
    },
    {
      "inputs": [
        {
          "internalType": "uint256",
          "name": "tierId",
          "type": "uint256"
        }
      ],
      "name": "remainingForTier",
      "outputs": [
        {
          "internalType": "uint256",
          "name": "tierRemaining",
          "type": "uint256"
        }
      ],
      "stateMutability": "view",
      "type": "function"
    },
    {
      "inputs": [],
      "name": "renounceOwnership",
      "outputs": [],
      "stateMutability": "nonpayable",
      "type": "function"
    },
    {
      "inputs": [
        {
          "internalType": "bytes32",
          "name": "role",
          "type": "bytes32"
        },
        {
          "internalType": "address",
          "name": "account",
          "type": "address"
        }
      ],
      "name": "renounceRole",
      "outputs": [],
      "stateMutability": "nonpayable",
      "type": "function"
    },
    {
      "inputs": [],
      "name": "reservedMints",
      "outputs": [
        {
          "internalType": "uint256",
          "name": "",
          "type": "uint256"
        }
      ],
      "stateMutability": "view",
      "type": "function"
    },
    {
      "inputs": [
        {
          "internalType": "bytes32",
          "name": "role",
          "type": "bytes32"
        },
        {
          "internalType": "address",
          "name": "account",
          "type": "address"
        }
      ],
      "name": "revokeRole",
      "outputs": [],
      "stateMutability": "nonpayable",
      "type": "function"
    },
    {
      "inputs": [],
      "name": "revokeWithdrawPower",
      "outputs": [],
      "stateMutability": "nonpayable",
      "type": "function"
    },
    {
      "inputs": [
        {
          "internalType": "uint256",
          "name": "tokenId",
          "type": "uint256"
        },
        {
          "internalType": "uint256",
          "name": "value",
          "type": "uint256"
        }
      ],
      "name": "royaltyInfo",
      "outputs": [
        {
          "internalType": "address",
          "name": "",
          "type": "address"
        },
        {
          "internalType": "uint256",
          "name": "",
          "type": "uint256"
        }
      ],
      "stateMutability": "view",
      "type": "function"
    },
    {
      "inputs": [
        {
          "internalType": "address",
          "name": "from",
          "type": "address"
        },
        {
          "internalType": "address",
          "name": "to",
          "type": "address"
        },
        {
          "internalType": "uint256",
          "name": "tokenId",
          "type": "uint256"
        }
      ],
      "name": "safeTransferFrom",
      "outputs": [],
      "stateMutability": "nonpayable",
      "type": "function"
    },
    {
      "inputs": [
        {
          "internalType": "address",
          "name": "from",
          "type": "address"
        },
        {
          "internalType": "address",
          "name": "to",
          "type": "address"
        },
        {
          "internalType": "uint256",
          "name": "tokenId",
          "type": "uint256"
        },
        {
          "internalType": "bytes",
          "name": "_data",
          "type": "bytes"
        }
      ],
      "name": "safeTransferFrom",
      "outputs": [],
      "stateMutability": "nonpayable",
      "type": "function"
    },
    {
      "inputs": [
        {
          "internalType": "address",
          "name": "operator",
          "type": "address"
        },
        {
          "internalType": "bool",
          "name": "approved",
          "type": "bool"
        }
      ],
      "name": "setApprovalForAll",
      "outputs": [],
      "stateMutability": "nonpayable",
      "type": "function"
    },
    {
      "inputs": [
        {
          "internalType": "string",
          "name": "newValue",
          "type": "string"
        }
      ],
      "name": "setContractURI",
      "outputs": [],
      "stateMutability": "nonpayable",
      "type": "function"
    },
    {
      "inputs": [
        {
          "components": [
            {
              "internalType": "address",
              "name": "recipient",
              "type": "address"
            },
            {
              "internalType": "uint16",
              "name": "bps",
              "type": "uint16"
            }
          ],
          "internalType": "struct IEIP2981RoyaltyOverride.TokenRoyalty",
          "name": "royalty",
          "type": "tuple"
        }
      ],
      "name": "setDefaultRoyalty",
      "outputs": [],
      "stateMutability": "nonpayable",
      "type": "function"
    },
    {
      "inputs": [
        {
          "internalType": "uint256",
          "name": "newValue",
          "type": "uint256"
        }
      ],
      "name": "setMaxSupply",
      "outputs": [],
      "stateMutability": "nonpayable",
      "type": "function"
    },
    {
      "inputs": [
        {
          "internalType": "string",
          "name": "newValue",
          "type": "string"
        }
      ],
      "name": "setPlaceholderURI",
      "outputs": [],
      "stateMutability": "nonpayable",
      "type": "function"
    },
    {
      "inputs": [
        {
          "components": [
            {
              "internalType": "uint256",
              "name": "tokenId",
              "type": "uint256"
            },
            {
              "internalType": "address",
              "name": "recipient",
              "type": "address"
            },
            {
              "internalType": "uint16",
              "name": "bps",
              "type": "uint16"
            }
          ],
          "internalType": "struct IEIP2981RoyaltyOverride.TokenRoyaltyConfig[]",
          "name": "royaltyConfigs",
          "type": "tuple[]"
        }
      ],
      "name": "setTokenRoyalties",
      "outputs": [],
      "stateMutability": "nonpayable",
      "type": "function"
    },
    {
      "inputs": [
        {
          "internalType": "string",
          "name": "newValue",
          "type": "string"
        }
      ],
      "name": "setTokenURIPrefix",
      "outputs": [],
      "stateMutability": "nonpayable",
      "type": "function"
    },
    {
      "inputs": [
        {
          "internalType": "string",
          "name": "newValue",
          "type": "string"
        }
      ],
      "name": "setTokenURISuffix",
      "outputs": [],
      "stateMutability": "nonpayable",
      "type": "function"
    },
    {
      "inputs": [
        {
          "internalType": "address",
          "name": "trustedForwarder",
          "type": "address"
        }
      ],
      "name": "setTrustedForwarder",
      "outputs": [],
      "stateMutability": "nonpayable",
      "type": "function"
    },
    {
      "inputs": [
        {
          "internalType": "enum WithdrawMode",
          "name": "_withdrawMode",
          "type": "uint8"
        }
      ],
      "name": "setWithdrawMode",
      "outputs": [],
      "stateMutability": "nonpayable",
      "type": "function"
    },
    {
      "inputs": [
        {
          "internalType": "address",
          "name": "_withdrawRecipient",
          "type": "address"
        }
      ],
      "name": "setWithdrawRecipient",
      "outputs": [],
      "stateMutability": "nonpayable",
      "type": "function"
    },
    {
      "inputs": [
        {
          "internalType": "bytes4",
          "name": "interfaceId",
          "type": "bytes4"
        }
      ],
      "name": "supportsInterface",
      "outputs": [
        {
          "internalType": "bool",
          "name": "",
          "type": "bool"
        }
      ],
      "stateMutability": "view",
      "type": "function"
    },
    {
      "inputs": [],
      "name": "symbol",
      "outputs": [
        {
          "internalType": "string",
          "name": "",
          "type": "string"
        }
      ],
      "stateMutability": "view",
      "type": "function"
    },
    {
      "inputs": [
        {
          "internalType": "uint256",
          "name": "",
          "type": "uint256"
        }
      ],
      "name": "tierMints",
      "outputs": [
        {
          "internalType": "uint256",
          "name": "",
          "type": "uint256"
        }
      ],
      "stateMutability": "view",
      "type": "function"
    },
    {
      "inputs": [
        {
          "internalType": "uint256",
          "name": "",
          "type": "uint256"
        }
      ],
      "name": "tiers",
      "outputs": [
        {
          "internalType": "uint256",
          "name": "start",
          "type": "uint256"
        },
        {
          "internalType": "uint256",
          "name": "end",
          "type": "uint256"
        },
        {
          "internalType": "address",
          "name": "currency",
          "type": "address"
        },
        {
          "internalType": "uint256",
          "name": "price",
          "type": "uint256"
        },
        {
          "internalType": "uint256",
          "name": "maxPerWallet",
          "type": "uint256"
        },
        {
          "internalType": "bytes32",
          "name": "merkleRoot",
          "type": "bytes32"
        },
        {
          "internalType": "uint256",
          "name": "reserved",
          "type": "uint256"
        },
        {
          "internalType": "uint256",
          "name": "maxAllocation",
          "type": "uint256"
        }
      ],
      "stateMutability": "view",
      "type": "function"
    },
    {
      "inputs": [
        {
          "internalType": "uint256",
          "name": "_tokenId",
          "type": "uint256"
        }
      ],
      "name": "tokenURI",
      "outputs": [
        {
          "internalType": "string",
          "name": "",
          "type": "string"
        }
      ],
      "stateMutability": "view",
      "type": "function"
    },
    {
      "inputs": [],
      "name": "tokenURIFrozen",
      "outputs": [
        {
          "internalType": "bool",
          "name": "",
          "type": "bool"
        }
      ],
      "stateMutability": "view",
      "type": "function"
    },
    {
      "inputs": [],
      "name": "tokenURIPrefix",
      "outputs": [
        {
          "internalType": "string",
          "name": "",
          "type": "string"
        }
      ],
      "stateMutability": "view",
      "type": "function"
    },
    {
      "inputs": [],
      "name": "tokenURISuffix",
      "outputs": [
        {
          "internalType": "string",
          "name": "",
          "type": "string"
        }
      ],
      "stateMutability": "view",
      "type": "function"
    },
    {
      "inputs": [],
      "name": "totalReserved",
      "outputs": [
        {
          "internalType": "uint256",
          "name": "",
          "type": "uint256"
        }
      ],
      "stateMutability": "view",
      "type": "function"
    },
    {
      "inputs": [],
      "name": "totalSupply",
      "outputs": [
        {
          "internalType": "uint256",
          "name": "",
          "type": "uint256"
        }
      ],
      "stateMutability": "view",
      "type": "function"
    },
    {
      "inputs": [
        {
          "internalType": "address",
          "name": "from",
          "type": "address"
        },
        {
          "internalType": "address",
          "name": "to",
          "type": "address"
        },
        {
          "internalType": "uint256",
          "name": "tokenId",
          "type": "uint256"
        }
      ],
      "name": "transferFrom",
      "outputs": [],
      "stateMutability": "nonpayable",
      "type": "function"
    },
    {
      "inputs": [
        {
          "internalType": "address",
          "name": "newOwner",
          "type": "address"
        }
      ],
      "name": "transferOwnership",
      "outputs": [],
      "stateMutability": "nonpayable",
      "type": "function"
    },
    {
      "inputs": [
        {
          "internalType": "uint256[]",
          "name": "tokenIds",
          "type": "uint256[]"
        }
      ],
      "name": "unlock",
      "outputs": [],
      "stateMutability": "nonpayable",
      "type": "function"
    },
    {
      "inputs": [
        {
          "internalType": "uint256",
          "name": "tokenId",
          "type": "uint256"
        }
      ],
      "name": "unlock",
      "outputs": [],
      "stateMutability": "nonpayable",
      "type": "function"
    },
    {
      "inputs": [
        {
          "internalType": "uint256",
          "name": "",
          "type": "uint256"
        },
        {
          "internalType": "address",
          "name": "",
          "type": "address"
        }
      ],
      "name": "walletMinted",
      "outputs": [
        {
          "internalType": "uint256",
          "name": "",
          "type": "uint256"
        }
      ],
      "stateMutability": "view",
      "type": "function"
    },
    {
      "inputs": [
        {
          "internalType": "uint256",
          "name": "tierId",
          "type": "uint256"
        },
        {
          "internalType": "address",
          "name": "wallet",
          "type": "address"
        }
      ],
      "name": "walletMintedByTier",
      "outputs": [
        {
          "internalType": "uint256",
          "name": "",
          "type": "uint256"
        }
      ],
      "stateMutability": "view",
      "type": "function"
    },
    {
      "inputs": [
        {
          "internalType": "address[]",
          "name": "claimTokens",
          "type": "address[]"
        },
        {
          "internalType": "uint256[]",
          "name": "amounts",
          "type": "uint256[]"
        }
      ],
      "name": "withdraw",
      "outputs": [],
      "stateMutability": "nonpayable",
      "type": "function"
    },
    {
      "inputs": [],
      "name": "withdrawMode",
      "outputs": [
        {
          "internalType": "enum WithdrawMode",
          "name": "",
          "type": "uint8"
        }
      ],
      "stateMutability": "view",
      "type": "function"
    },
    {
      "inputs": [],
      "name": "withdrawModeLocked",
      "outputs": [
        {
          "internalType": "bool",
          "name": "",
          "type": "bool"
        }
      ],
      "stateMutability": "view",
      "type": "function"
    },
    {
      "inputs": [],
      "name": "withdrawPowerRevoked",
      "outputs": [
        {
          "internalType": "bool",
          "name": "",
          "type": "bool"
        }
      ],
      "stateMutability": "view",
      "type": "function"
    },
    {
      "inputs": [],
      "name": "withdrawRecipient",
      "outputs": [
        {
          "internalType": "address",
          "name": "",
          "type": "address"
        }
      ],
      "stateMutability": "view",
      "type": "function"
    },
    {
      "inputs": [],
      "name": "withdrawRecipientLocked",
      "outputs": [
        {
          "internalType": "bool",
          "name": "",
          "type": "bool"
        }
      ],
      "stateMutability": "view",
      "type": "function"
    }
  ],
  "transactionHash": "0x35df57ca4a87220afeeb9a458848b92d07fb6fbd686e08df03abb7c6342d9cee",
  "args": [
    {
      "name": "Collection",
      "symbol": "COL",
      "contractURI": "ipfs://contractURI",
      "placeholderURI": "ipfs://placeholderURI",
      "tokenURIPrefix": "ipfs://tokenURIPrefix/",
      "maxSupply": 0,
      "tiers": [],
      "defaultRoyaltyAddress": "0x0000000000000000000000000000000000000000",
      "defaultRoyaltyBps": 0,
      "proceedsRecipient": "0x0000000000000000000000000000000000000000",
      "trustedForwarder": "0x0000000000000000000000000000000000000000"
    }
  ],
  "numDeployments": 2,
  "solcInputHash": "fb0a411bdd8b2856f12a965c6b4582fe",
  "bytecode": "0x608060405260006012553480156200001657600080fd5b50604051620070d2380380620070d2833981016040819052620000399162000f9c565b80516020820151620000546200004e6200009a565b620000b6565b81516200006990600390602085019062000ca5565b5080516200007f90600490602084019062000ca5565b505060016013555062000093813362000111565b5062001286565b6000620000b16200024d60201b62002d7e1760201c565b905090565b600080546001600160a01b038381166201000081810262010000600160b01b0319851617855560405193049190911692909183917f8be0079c531659141344cd1fd0a4f28419497f9722a3daafe3b4186f6b6457e091a35050565b60006200011f600162000286565b9050801562000138576000805461ff0019166101001790555b6200014560008362000338565b6200015082620000b6565b6101208301516200016390600262000348565b8251602084015160408501516200017c9291906200037e565b6200019683606001518460800151620003b560201b60201c565b60a0830151620001a690620003eb565b620001b062000423565b620001bb8262000459565b620001c56200048e565b60c0830151620001d590620004c2565b620001f08360e00151846101000151620004f760201b60201c565b61014083015162000201906200052d565b801562000248576000805461ff0019169055604051600181527f7f26b83ff96e1f2b6a682f133852f6798a09c465da95921460cefb38474024989060200160405180910390a15b505050565b601f546000906001600160a01b031633141562000271575060131936013560601c90565b620000b16200056260201b62002da01760201c565b60008054610100900460ff1615620002ef578160ff166001148015620002bf5750620002bd306200056660201b62002da41760201c565b155b620002e75760405162461bcd60e51b8152600401620002de9062001135565b60405180910390fd5b506000919050565b60005460ff808416911610620003195760405162461bcd60e51b8152600401620002de9062001135565b506000805460ff191660ff92909216919091179055600190565b919050565b62000344828262000575565b5050565b600054610100900460ff16620003725760405162461bcd60e51b8152600401620002de9062001183565b6200034482826200061b565b600054610100900460ff16620003a85760405162461bcd60e51b8152600401620002de9062001183565b62000248838383620006a7565b600054610100900460ff16620003df5760405162461bcd60e51b8152600401620002de9062001183565b62000344828262000749565b600054610100900460ff16620004155760405162461bcd60e51b8152600401620002de9062001183565b6200042081620007f2565b50565b600054610100900460ff166200044d5760405162461bcd60e51b8152600401620002de9062001183565b6200045762000845565b565b600054610100900460ff16620004835760405162461bcd60e51b8152600401620002de9062001183565b620004208162000881565b600054610100900460ff16620004b85760405162461bcd60e51b8152600401620002de9062001183565b62000457620008e9565b600054610100900460ff16620004ec5760405162461bcd60e51b8152600401620002de9062001183565b620004208162000925565b600054610100900460ff16620005215760405162461bcd60e51b8152600401620002de9062001183565b62000344828262000a52565b600054610100900460ff16620005575760405162461bcd60e51b8152600401620002de9062001183565b620004208162000aef565b3390565b6001600160a01b03163b151590565b6000828152601a602090815260408083206001600160a01b038516845290915290205460ff1662000344576000828152601a602090815260408083206001600160a01b03851684529091529020805460ff19166001179055620005d76200009a565b6001600160a01b0316816001600160a01b0316837f2f8788117e7eff1d82e926ec794901d17c78024a50270940304540a733656f0d60405160405180910390a45050565b600054610100900460ff16620006455760405162461bcd60e51b8152600401620002de9062001183565b6200065763ac2ba33360e01b62000b3b565b600280546001600160a01b0384166001600160a01b0319821681178355839291600162ff000160a01b03191617600160b01b8360038111156200069e576200069e620011ce565b02179055505050565b600054610100900460ff16620006d15760405162461bcd60e51b8152600401620002de9062001183565b8251620006e690600d90602086019062000ca5565b508151620006fc90600e90602085019062000ca5565b5080516200071290600f90602084019062000ca5565b5062000725633d96f4ff60e11b62000b3b565b620007376380ac58cd60e01b62000b3b565b62000248635b5e139f60e01b62000b3b565b600054610100900460ff16620007735760405162461bcd60e51b8152600401620002de9062001183565b81516200078890600990602085019062000ca5565b5080516200079e90600a90602084019062000ca5565b5060408051808201909152600580825264173539b7b760d91b6020909201918252620007cd91600b9162000ca5565b50620007e0631f2f406b60e01b62000b3b565b62000344635b5e139f60e01b62000b3b565b600054610100900460ff166200081c5760405162461bcd60e51b8152600401620002de9062001183565b6010819055620008336330f487b560e11b62000b3b565b620004206380ac58cd60e01b62000b3b565b600054610100900460ff166200086f5760405162461bcd60e51b8152600401620002de9062001183565b62000457631aa1577160e11b62000b3b565b600054610100900460ff16620008ab5760405162461bcd60e51b8152600401620002de9062001183565b620008bd631a056e7160e01b62000b3b565b620004207f9f2df0fed2c77648de5860a4cc508cd0818c85b8b8a1ab4ceeef8d981c8956a68262000338565b600054610100900460ff16620009135760405162461bcd60e51b8152600401620002de9062001183565b6200045763714ad8e760e01b62000b3b565b600054610100900460ff166200094f5760405162461bcd60e51b8152600401620002de9062001183565b620009616308b4902960e41b62000b3b565b60005b81518110156200034457818181518110620009835762000983620011e4565b602090810291909101810151600083815260148352604090819020825181559282015160018401558101516002830180546001600160a01b0319166001600160a01b03909216919091179055606081015160038301556080810151600483015560a0810151600583015560c0810151600683015560e00151600790910155815182908290811062000a185762000a18620011e4565b602002602001015160c001516015600082825462000a37919062001210565b9091555081905062000a49816200122b565b91505062000964565b600054610100900460ff1662000a7c5760405162461bcd60e51b8152600401620002de9062001183565b62000a8e633a47bf5160e11b62000b3b565b62000aa063152a902d60e11b62000b3b565b62000ab263c69dbd8f60e01b62000b3b565b62000ac463656cb66560e11b62000b3b565b604080518082019091526001600160a01b038316815261ffff82166020820152620002488162000bbf565b600054610100900460ff1662000b195760405162461bcd60e51b8152600401620002de9062001183565b601f80546001600160a01b0319166001600160a01b0392909216919091179055565b6001600160e01b0319808216141562000b975760405162461bcd60e51b815260206004820152601c60248201527f4552433136353a20696e76616c696420696e74657266616365206964000000006044820152606401620002de565b6001600160e01b0319166000908152600160208190526040909120805460ff19169091179055565b612710816020015161ffff161062000c085760405162461bcd60e51b815260206004820152600b60248201526a496e76616c69642062707360a81b6044820152606401620002de565b60408051808201825282516001600160a01b03168082526020808501805161ffff1691909301819052601b8054600160a01b9092026001600160b01b03199092169092171790558251905191517f2c5ea6e4103e78cb101e796fb2dace540362fc542cbff5145eaa24af7dd8fe419262000c9a92916001600160a01b0392909216825261ffff16602082015260400190565b60405180910390a150565b82805462000cb39062001249565b90600052602060002090601f01602090048101928262000cd7576000855562000d22565b82601f1062000cf257805160ff191683800117855562000d22565b8280016001018555821562000d22579182015b8281111562000d2257825182559160200191906001019062000d05565b5062000d3092915062000d34565b5090565b5b8082111562000d30576000815560010162000d35565b634e487b7160e01b600052604160045260246000fd5b60405161010081016001600160401b038111828210171562000d875762000d8762000d4b565b60405290565b60405161016081016001600160401b038111828210171562000d875762000d8762000d4b565b604051601f8201601f191681016001600160401b038111828210171562000dde5762000dde62000d4b565b604052919050565b600082601f83011262000df857600080fd5b81516001600160401b0381111562000e145762000e1462000d4b565b602062000e2a601f8301601f1916820162000db3565b828152858284870101111562000e3f57600080fd5b60005b8381101562000e5f57858101830151828201840152820162000e42565b8381111562000e715760008385840101525b5095945050505050565b80516001600160a01b03811681146200033357600080fd5b600082601f83011262000ea557600080fd5b815160206001600160401b0382111562000ec35762000ec362000d4b565b62000ed3818360051b0162000db3565b82815260089290921b8401810191818101908684111562000ef357600080fd5b8286015b8481101562000f7e57610100818903121562000f135760008081fd5b62000f1d62000d61565b815181528482015185820152604062000f3881840162000e7b565b90820152606082810151908201526080808301519082015260a0808301519082015260c0808301519082015260e080830151908201528352918301916101000162000ef7565b509695505050505050565b805161ffff811681146200033357600080fd5b60006020828403121562000faf57600080fd5b81516001600160401b038082111562000fc757600080fd5b90830190610160828603121562000fdd57600080fd5b62000fe762000d8d565b82518281111562000ff757600080fd5b620010058782860162000de6565b8252506020830151828111156200101b57600080fd5b620010298782860162000de6565b6020830152506040830151828111156200104257600080fd5b620010508782860162000de6565b6040830152506060830151828111156200106957600080fd5b620010778782860162000de6565b6060830152506080830151828111156200109057600080fd5b6200109e8782860162000de6565b60808301525060a083015160a082015260c083015182811115620010c157600080fd5b620010cf8782860162000e93565b60c083015250620010e360e0840162000e7b565b60e08201526101009150620010fa82840162000f89565b8282015261012091506200111082840162000e7b565b8282015261014091506200112682840162000e7b565b91810191909152949350505050565b6020808252602e908201527f496e697469616c697a61626c653a20636f6e747261637420697320616c72656160408201526d191e481a5b9a5d1a585b1a5e995960921b606082015260800190565b6020808252602b908201527f496e697469616c697a61626c653a20636f6e7472616374206973206e6f74206960408201526a6e697469616c697a696e6760a81b606082015260800190565b634e487b7160e01b600052602160045260246000fd5b634e487b7160e01b600052603260045260246000fd5b634e487b7160e01b600052601160045260246000fd5b60008219821115620012265762001226620011fa565b500190565b6000600019821415620012425762001242620011fa565b5060010190565b600181811c908216806200125e57607f821691505b602082108114156200128057634e487b7160e01b600052602260045260246000fd5b50919050565b615e3c80620012966000396000f3fe6080604052600436106103995760003560e01c806301ffc9a71461039e578063039af9eb146103d35780630653aca51461048457806306fdde03146104d3578063081812fc146104f5578063095ea7b31461052d5780631123f2ef1461054f57806316744607146105a057806318160ddd146105b55780631a056e71146105ca57806320f1bb30146105ea57806323b872dd1461060a578063248a9ca31461062a5780632a55205a1461064a5780632bb684ad146106785780632c233067146106a55780632cb9b2ac146106c55780632d00b587146106db5780632f2ff15d146107095780633542aee2146107295780633574a2dd1461074957806336568abe1461076957806342842e0e1461078957806349561cb9146107a95780635136dcc7146107ca57806353367f08146107ea57806356c022bb14610817578063572b6c05146108375780635897f878146108575780635d36598f146108775780635ea2c91b146108975780636057e0ec146108aa5780636198e339146108cb5780636352211e146108eb57806368c7d37c1461090b5780636ef030471461092b5780636f8b44b01461094b57806370a082311461096b578063714ad8e71461098b578063715018a61461099f5780637313cba9146109b45780637885fdc7146109c95780637e98034214610a04578063837fe14014610a19578063859610c614610a2e5780638da5cb5b14610a4e57806391d1485414610a63578063938e3d7b14610a835780639598144a14610aa357806395d89b4114610adb57806399e0dd7c14610af0578063a217fddf14610b10578063a22cb46514610b25578063a9852bfb14610b45578063af121f5414610b65578063b45a3c0e14610b86578063b88d4fde14610ba6578063ba4695fd14610bc6578063bd2c18f714610bdb578063c0ac998314610bfb578063c0bb38ff14610c10578063c29de63014610c30578063c71b0e1c14610c4a578063c723955a14610c60578063c87b56dd14610c75578063cad96cca14610c95578063d539139314610cc2578063d547741f14610ce4578063d5abeb0114610d04578063d8b436fd14610d1a578063da74222814610d3a578063da82b22714610d5a578063dbbc853b14610d6f578063dcbe353f14610d84578063dd46706414610da4578063de6d6d9614610dc4578063e8a3d48514610de4578063e985e9c514610df9578063ef60ceaf14610e19578063f2fde38b14610e39578063f362136714610e59578063f384702f14610e7b575b600080fd5b3480156103aa57600080fd5b506103be6103b9366004614c30565b610e95565b60405190151581526020015b60405180910390f35b3480156103df57600080fd5b5061043b6103ee366004614c4d565b60146020526000908152604090208054600182015460028301546003840154600485015460058601546006870154600790970154959694956001600160a01b039094169492939192909188565b6040805198895260208901979097526001600160a01b03909516958701959095526060860192909252608085015260a084015260c083019190915260e0820152610100016103ca565b34801561049057600080fd5b506104a461049f366004614c4d565b610ea6565b60408051825181526020808401516001600160a01b0316908201529181015161ffff16908201526060016103ca565b3480156104df57600080fd5b506104e8610f2b565b6040516103ca9190614cbe565b34801561050157600080fd5b50610515610510366004614c4d565b610f3a565b6040516001600160a01b0390911681526020016103ca565b34801561053957600080fd5b5061054d610548366004614cf1565b610fc7565b005b34801561055b57600080fd5b5061059261056a366004614d1d565b60009182526017602090815260408084206001600160a01b0393909316845291905290205490565b6040519081526020016103ca565b3480156105ac57600080fd5b5061054d6110ea565b3480156105c157600080fd5b50601254610592565b3480156105d657600080fd5b5061054d6105e5366004614cf1565b611138565b3480156105f657600080fd5b5061054d610605366004614d4d565b61119e565b34801561061657600080fd5b5061054d610625366004614d87565b6113bb565b34801561063657600080fd5b50610592610645366004614c4d565b6113f3565b34801561065657600080fd5b5061066a610665366004614dc8565b611408565b6040516103ca929190614dea565b34801561068457600080fd5b50610698610693366004614e47565b6114cd565b6040516103ca9190614e88565b3480156106b157600080fd5b5061054d6106c0366004614ecc565b611597565b3480156106d157600080fd5b5061059260185481565b3480156106e757600080fd5b506002546106fc90600160b01b900460ff1681565b6040516103ca9190614f03565b34801561071557600080fd5b5061054d610724366004614d1d565b61162d565b34801561073557600080fd5b5061054d610744366004614cf1565b611649565b34801561075557600080fd5b5061054d610764366004615034565b611688565b34801561077557600080fd5b5061054d610784366004614d1d565b6116da565b34801561079557600080fd5b5061054d6107a4366004614d87565b611764565b3480156107b557600080fd5b506002546103be90600160b81b900460ff1681565b3480156107d657600080fd5b5061054d6107e5366004615068565b61177f565b3480156107f657600080fd5b50610592610805366004614c4d565b60166020526000908152604090205481565b34801561082357600080fd5b50601f54610515906001600160a01b031681565b34801561084357600080fd5b506103be6108523660046150dc565b611819565b34801561086357600080fd5b50610592610872366004614c4d565b61182d565b34801561088357600080fd5b5061054d610892366004614e47565b6118aa565b61054d6108a53660046150f9565b61194e565b3480156108b657600080fd5b506002546103be90600160a01b900460ff1681565b3480156108d757600080fd5b5061054d6108e6366004614c4d565b611c2a565b3480156108f757600080fd5b50610515610906366004614c4d565b611c97565b34801561091757600080fd5b506103be610926366004615159565b611d0e565b34801561093757600080fd5b5061054d6109463660046152a1565b611db0565b34801561095757600080fd5b5061054d610966366004614c4d565b611ebf565b34801561097757600080fd5b506105926109863660046150dc565b611f0a565b34801561099757600080fd5b5060016103be565b3480156109ab57600080fd5b5061054d611f91565b3480156109c057600080fd5b506104e8611fdc565b3480156109d557600080fd5b50601b546109f6906001600160a01b03811690600160a01b900461ffff1682565b6040516103ca92919061542c565b348015610a1057600080fd5b5061059261206e565b348015610a2557600080fd5b5061054d61207a565b348015610a3a57600080fd5b5061054d610a49366004614e47565b6120f8565b348015610a5a57600080fd5b50610515612192565b348015610a6f57600080fd5b506103be610a7e366004614d1d565b6121a7565b348015610a8f57600080fd5b5061054d610a9e366004615034565b6121d2565b348015610aaf57600080fd5b50610592610abe366004614d1d565b601760209081526000928352604080842090915290825290205481565b348015610ae757600080fd5b506104e8612224565b348015610afc57600080fd5b5061054d610b0b366004615034565b61222e565b348015610b1c57600080fd5b50610592600081565b348015610b3157600080fd5b5061054d610b40366004615457565b6122a3565b348015610b5157600080fd5b5061054d610b60366004615034565b6122b5565b348015610b7157600080fd5b506002546103be90600160a81b900460ff1681565b348015610b9257600080fd5b506103be610ba1366004614c4d565b61232a565b348015610bb257600080fd5b5061054d610bc1366004615485565b612337565b348015610bd257600080fd5b5061054d612376565b348015610be757600080fd5b50610592610bf6366004615159565b6123c4565b348015610c0757600080fd5b506104e86125f5565b348015610c1c57600080fd5b5061054d610c2b3660046150dc565b612604565b348015610c3c57600080fd5b50600c546103be9060ff1681565b348015610c5657600080fd5b5061059260155481565b348015610c6c57600080fd5b5061054d61268f565b348015610c8157600080fd5b506104e8610c90366004614c4d565b612725565b348015610ca157600080fd5b50610cb5610cb0366004614c4d565b612730565b6040516103ca9190615504565b348015610cce57600080fd5b50610592600080516020615da783398151915281565b348015610cf057600080fd5b5061054d610cff366004614d1d565b6127eb565b348015610d1057600080fd5b5061059260105481565b348015610d2657600080fd5b5061054d610d35366004615565565b612807565b348015610d4657600080fd5b5061054d610d553660046150dc565b6128a4565b348015610d6657600080fd5b5061054d612905565b348015610d7b57600080fd5b506104e8612982565b348015610d9057600080fd5b50600254610515906001600160a01b031681565b348015610db057600080fd5b5061054d610dbf366004614c4d565b612991565b348015610dd057600080fd5b5061054d610ddf3660046155fe565b6129f6565b348015610df057600080fd5b506104e8612c3e565b348015610e0557600080fd5b506103be610e14366004615669565b612c4d565b348015610e2557600080fd5b5061054d610e34366004615697565b612c7b565b348015610e4557600080fd5b5061054d610e543660046150dc565b612cd1565b348015610e6557600080fd5b50610592600080516020615de783398151915281565b348015610e8757600080fd5b506011546103be9060ff1681565b6000610ea082612db3565b92915050565b6040805160608101825260008082526020820181905291810182905290610ece601d84612def565b6000818152601c60209081526040918290208251808401845290546001600160a01b03808216835261ffff600160a01b90920482168385019081528551606081018752968752925116928501929092525116908201529392505050565b6060610f35612e02565b905090565b6000610f4582612e11565b610fab5760405162461bcd60e51b815260206004820152602c60248201527f4552433732313a20617070726f76656420717565727920666f72206e6f6e657860448201526b34b9ba32b73a103a37b5b2b760a11b60648201526084015b60405180910390fd5b506000908152600760205260409020546001600160a01b031690565b6000610fd282611c97565b9050806001600160a01b0316836001600160a01b031614156110405760405162461bcd60e51b815260206004820152602160248201527f4552433732313a20617070726f76616c20746f2063757272656e74206f776e656044820152603960f91b6064820152608401610fa2565b806001600160a01b0316611052612e2e565b6001600160a01b0316148061106e575061106e81610e14612e2e565b6110db5760405162461bcd60e51b815260206004820152603860248201527f4552433732313a20617070726f76652063616c6c6572206973206e6f74206f776044820152771b995c881b9bdc88185c1c1c9bdd995908199bdc88185b1b60421b6064820152608401610fa2565b6110e58383612e38565b505050565b6110f2612e2e565b6001600160a01b0316611103612192565b6001600160a01b0316146111295760405162461bcd60e51b8152600401610fa2906156af565b6011805460ff19166001179055565b611152600080516020615da7833981519152610a7e612e2e565b6111905760405162461bcd60e51b815260206004820152600f60248201526e4e4f545f4d494e5445525f524f4c4560881b6044820152606401610fa2565b61119a8282612ea6565b5050565b6111a6612e2e565b6001600160a01b03166111b7612192565b6001600160a01b0316146111dd5760405162461bcd60e51b8152600401610fa2906156af565b60008281526016602052604090205460e082013510156112335760405162461bcd60e51b81526020600482015260116024820152701313d5d15497d512105397d35253951151607a1b6044820152606401610fa2565b600082815260146020526040902060060154156112a15760008281526016602052604090205460c082013510156112a15760405162461bcd60e51b81526020600482015260126024820152711313d5d7d49154d154959157d05353d5539560721b6044820152606401610fa2565b6000828152601660205260409020541561130f576000828152601460205260409020600401546080820135101561130f5760405162461bcd60e51b81526020600482015260126024820152711313d5d7d3505617d4115497d5d05313115560721b6044820152606401610fa2565b60008281526014602052604081206006015460158054919290916113349084906156fa565b9091555050600082815260146020526040902081906113538282615711565b9050508060c001356015600082825461136c9190615782565b9091555050601054601554111561119a5760405162461bcd60e51b815260206004820152601360248201527213505617d4d55414131657d15610d151511151606a1b6044820152606401610fa2565b6113cc6113c6612e2e565b82612f2f565b6113e85760405162461bcd60e51b8152600401610fa29061579a565b6110e5838383612ff9565b6000908152601a602052604090206001015490565b6000828152601c602052604081205481906001600160a01b03161561146d576000848152601c60205260409020546001600160a01b038116906127109061145a90600160a01b900461ffff16866157eb565b6114649190615820565b915091506114c6565b601b546001600160a01b0316158015906114935750601b54600160a01b900461ffff1615155b156114bf57601b546001600160a01b038116906127109061145a90600160a01b900461ffff16866157eb565b5060009050805b9250929050565b60606000826001600160401b038111156114e9576114e9614f2b565b604051908082528060200260200182016040528015611512578160200160208202803683370190505b50905060005b8381101561158f5761154185858381811061153557611535615834565b9050602002013561232a565b61157d5784848281811061155757611557615834565b9050602002013582828151811061157057611570615834565b6020026020010181815250505b806115878161584a565b915050611518565b509392505050565b61159f612e2e565b6001600160a01b03166115b0612192565b6001600160a01b0316146115d65760405162461bcd60e51b8152600401610fa2906156af565b600254600160b81b900460ff16156116005760405162461bcd60e51b8152600401610fa290615865565b6002805482919060ff60b01b1916600160b01b83600381111561162557611625614eed565b021790555050565b611636826113f3565b61163f8161318e565b6110e5838361319f565b611651612e2e565b6001600160a01b0316611662612192565b6001600160a01b0316146111905760405162461bcd60e51b8152600401610fa2906156af565b611690612e2e565b6001600160a01b03166116a1612192565b6001600160a01b0316146116c75760405162461bcd60e51b8152600401610fa2906156af565b805161119a906009906020840190614b81565b6116e2612e2e565b6001600160a01b0316816001600160a01b03161461175a5760405162461bcd60e51b815260206004820152602f60248201527f416363657373436f6e74726f6c3a2063616e206f6e6c792072656e6f756e636560448201526e103937b632b9903337b91039b2b63360891b6064820152608401610fa2565b61119a8282613226565b6110e583838360405180602001604052806000815250612337565b611787612e2e565b6001600160a01b0316611798612192565b6001600160a01b0316146117be5760405162461bcd60e51b8152600401610fa2906156af565b61119a8282808060200260200160405190810160405280939291908181526020016000905b8282101561180f5761180060608302860136819003810190615885565b815260200190600101906117e3565b50505050506132ab565b601f546001600160a01b0391821691161490565b600060185460155461183f91906156fa565b60125460105461184f91906156fa565b61185991906156fa565b600083815260146020526040902060060154909150156118a55760008281526016602090815260408083205460149092529091206006015461189b91906156fa565b610ea09082615782565b919050565b600260135414156118cd5760405162461bcd60e51b8152600401610fa2906158eb565b60026013556118ea600080516020615de7833981519152336121a7565b6119065760405162461bcd60e51b8152600401610fa290615922565b60005b818110156119445761193283838381811061192657611926615834565b90506020020135613452565b8061193c8161584a565b915050611909565b5050600160135550565b600260135414156119715760405162461bcd60e51b8152600401610fa2906158eb565b60026013556000611980612e2e565b9050600061199187838787876123c4565b9050808611156119d15760405162461bcd60e51b815260206004820152600b60248201526a08ab0868a8a88a6be9a82b60ab1b6044820152606401610fa2565b6119da8761182d565b8611156119f95760405162461bcd60e51b8152600401610fa29061594b565b600087815260146020908152604080832060070154601690925290912054611a219088615782565b1115611a3f5760405162461bcd60e51b8152600401610fa29061594b565b6000878152601460205260409020600201546001600160a01b0316611ac6576000878152601460205260409020600301543490611a7d9088906157eb565b1115611ac15760405162461bcd60e51b8152602060048201526013602482015272125394d551919250d251539517d05353d55395606a1b6044820152606401610fa2565b611b89565b600087815260146020526040902060028101546003909101546001600160a01b03909116906323b872dd9084903090611b00908b906157eb565b6040516001600160e01b031960e086901b1681526001600160a01b0393841660048201529290911660248301526044820152606401602060405180830381600087803b158015611b4f57600080fd5b505af1158015611b63573d6000803e3d6000fd5b505050506040513d601f19601f82011682018060405250810190611b879190615977565b505b60008781526017602090815260408083206001600160a01b038616845290915281208054889290611bbb908490615782565b909155505060008781526016602052604081208054889290611bde908490615782565b909155505060008781526014602052604090206006015415611c12578560186000828254611c0c9190615782565b90915550505b611c1c8287612ea6565b505060016013555050505050565b60026013541415611c4d5760405162461bcd60e51b8152600401610fa2906158eb565b6002601355611c6a600080516020615de7833981519152336121a7565b611c865760405162461bcd60e51b8152600401610fa290615922565b611c8f81613452565b506001601355565b6000818152600560205260408120546001600160a01b031680610ea05760405162461bcd60e51b815260206004820152602960248201527f4552433732313a206f776e657220717565727920666f72206e6f6e657869737460448201526832b73a103a37b5b2b760b91b6064820152608401610fa2565b6000611da483838080602002602001604051908101604052809392919081815260200183836020028082843760009201829052508b8152601460205260409020600501549250611d9f9150899050886040516001600160601b0319606084901b1660208201526034810182905260009060540160405160208183030381529060405280519060200120905092915050565b6134b9565b90505b95945050505050565b6000611dbc60016134cf565b90508015611dd4576000805461ff0019166101001790555b611ddf60008361355e565b611de882613568565b611df883610120015160026135c3565b611e0f8360000151846020015185604001516135f4565b611e2183606001518460800151613626565b611e2e8360a00151613657565b611e36613687565b611e3f826136b6565b611e476136e6565b611e548360c00151613715565b611e678360e00151846101000151613745565b611e75836101400151613776565b80156110e5576000805461ff0019169055604051600181527f7f26b83ff96e1f2b6a682f133852f6798a09c465da95921460cefb38474024989060200160405180910390a1505050565b611ec7612e2e565b6001600160a01b0316611ed8612192565b6001600160a01b031614611efe5760405162461bcd60e51b8152600401610fa2906156af565b611f07816137a6565b50565b60006001600160a01b038216611f755760405162461bcd60e51b815260206004820152602a60248201527f4552433732313a2062616c616e636520717565727920666f7220746865207a65604482015269726f206164647265737360b01b6064820152608401610fa2565b506001600160a01b031660009081526006602052604090205490565b611f99612e2e565b6001600160a01b0316611faa612192565b6001600160a01b031614611fd05760405162461bcd60e51b8152600401610fa2906156af565b611fda6000613568565b565b606060098054611feb90615994565b80601f016020809104026020016040519081016040528092919081815260200182805461201790615994565b80156120645780601f1061203957610100808354040283529160200191612064565b820191906000526020600020905b81548152906001019060200180831161204757829003601f168201915b5050505050905090565b6000610f35601d61384f565b612082612e2e565b6001600160a01b0316612093612192565b6001600160a01b0316146120b95760405162461bcd60e51b8152600401610fa2906156af565b600254600160a01b900460ff16156120e35760405162461bcd60e51b8152600401610fa290615865565b6002805460ff60a01b1916600160a01b179055565b6002601354141561211b5760405162461bcd60e51b8152600401610fa2906158eb565b6002601355612138600080516020615de7833981519152336121a7565b6121545760405162461bcd60e51b8152600401610fa290615922565b60005b818110156119445761218083838381811061217457612174615834565b90506020020135613859565b8061218a8161584a565b915050612157565b6000546201000090046001600160a01b031690565b6000918252601a602090815260408084206001600160a01b0393909316845291905290205460ff1690565b6121da612e2e565b6001600160a01b03166121eb612192565b6001600160a01b0316146122115760405162461bcd60e51b8152600401610fa2906156af565b805161119a90600f906020840190614b81565b6060610f356138a3565b612236612e2e565b6001600160a01b0316612247612192565b6001600160a01b03161461226d5760405162461bcd60e51b8152600401610fa2906156af565b600c5460ff16156122905760405162461bcd60e51b8152600401610fa2906159c9565b805161119a90600a906020840190614b81565b61119a6122ae612e2e565b83836138b2565b6122bd612e2e565b6001600160a01b03166122ce612192565b6001600160a01b0316146122f45760405162461bcd60e51b8152600401610fa2906156af565b600c5460ff16156123175760405162461bcd60e51b8152600401610fa2906159c9565b805161119a90600b906020840190614b81565b6000610ea060198361397d565b612348612342612e2e565b83612f2f565b6123645760405162461bcd60e51b8152600401610fa29061579a565b612370848484846139a1565b50505050565b61237e612e2e565b6001600160a01b031661238f612192565b6001600160a01b0316146123b55760405162461bcd60e51b8152600401610fa2906156af565b600c805460ff19166001179055565b60008581526014602052604081206004015461240f5760405162461bcd60e51b815260206004820152600a6024820152694e4f545f45584953545360b01b6044820152606401610fa2565b60008681526014602052604090205442101561245b5760405162461bcd60e51b815260206004820152600b60248201526a1393d517d4d5105495115160aa1b6044820152606401610fa2565b6000868152601460205260409020600101544211156124ac5760405162461bcd60e51b815260206004820152600d60248201526c1053149150511657d153911151609a1b6044820152606401610fa2565b60008681526017602090815260408083206001600160a01b03891684528252808320548984526014909252909120600401546124e891906156fa565b60008781526014602052604090206005015490915015611da75760008681526017602090815260408083206001600160a01b038916845290915290205484116125655760405162461bcd60e51b815260206004820152600f60248201526e4d415845445f414c4c4f57414e434560881b6044820152606401610fa2565b6125728686868686611d0e565b6125b05760405162461bcd60e51b815260206004820152600f60248201526e1393d517d0531313d5d31254d51151608a1b6044820152606401610fa2565b60008681526017602090815260408083206001600160a01b03891684529091528120546125dd90866156fa565b9050808211156125eb578091505b5095945050505050565b6060600a8054611feb90615994565b61260c612e2e565b6001600160a01b031661261d612192565b6001600160a01b0316146126435760405162461bcd60e51b8152600401610fa2906156af565b600254600160a01b900460ff161561266d5760405162461bcd60e51b8152600401610fa290615865565b600280546001600160a01b0319166001600160a01b0392909216919091179055565b612697612e2e565b6001600160a01b03166126a8612192565b6001600160a01b0316146126ce5760405162461bcd60e51b8152600401610fa2906156af565b600254600160b81b900460ff16156127105760405162461bcd60e51b815260206004820152600560248201526413d0d2d15160da1b6044820152606401610fa2565b6002805460ff60b81b1916600160b81b179055565b6060610ea0826139d4565b604080516001808252818301909252606091816020015b6040805180820190915260008082526020820152815260200190600190039081612747575050601b5481519192506001600160a01b031690829060009061279057612790615834565b60209081029190910101516001600160a01b03919091169052601b548151600160a01b90910461ffff169082906000906127cc576127cc615834565b6020908102919091018101516001600160601b03909216910152919050565b6127f4826113f3565b6127fd8161318e565b6110e58383613226565b61280f612e2e565b6001600160a01b0316612820612192565b6001600160a01b0316146128465760405162461bcd60e51b8152600401610fa2906156af565b60005b8381101561289d5761288b85858381811061286657612866615834565b9050602002013584848481811061287f5761287f615834565b9050610100020161119e565b806128958161584a565b915050612849565b5050505050565b6128ac612e2e565b6001600160a01b03166128bd612192565b6001600160a01b0316146128e35760405162461bcd60e51b8152600401610fa2906156af565b601f80546001600160a01b0319166001600160a01b0392909216919091179055565b61290d612e2e565b6001600160a01b031661291e612192565b6001600160a01b0316146129445760405162461bcd60e51b8152600401610fa2906156af565b6002805460ff60a81b1916600160a81b1790556040517fa24423a69b45c25c0479663125e48b482e71d85eae416f589545243bafaf3c9590600090a1565b6060600b8054611feb90615994565b600260135414156129b45760405162461bcd60e51b8152600401610fa2906158eb565b60026013556129d1600080516020615de7833981519152336121a7565b6129ed5760405162461bcd60e51b8152600401610fa290615922565b611c8f81613859565b6129ff33613ab0565b6002546001600160a01b0316612a4f5760405162461bcd60e51b815260206004820152601560248201527415d2551211149055cbd393d7d49150d25412515395605a1b6044820152606401610fa2565b600254600160a81b900460ff1615612aa95760405162461bcd60e51b815260206004820181905260248201527f57495448445241572f454d455247454e43595f504f5745525f5245564f4b45446044820152606401610fa2565b60005b83811015612bfa576000858583818110612ac857612ac8615834565b9050602002016020810190612add91906150dc565b6001600160a01b03161415612b2157612b1c838383818110612b0157612b01615834565b6002546001600160a01b031692602090910201359050613c39565b612be8565b848482818110612b3357612b33615834565b9050602002016020810190612b4891906150dc565b6002546001600160a01b039182169163a9059cbb9116858585818110612b7057612b70615834565b905060200201356040518363ffffffff1660e01b8152600401612b94929190614dea565b602060405180830381600087803b158015612bae57600080fd5b505af1158015612bc2573d6000803e3d6000fd5b505050506040513d601f19601f82011682018060405250810190612be69190615977565b505b80612bf28161584a565b915050612aac565b507fd40c399a83caf67d15628b821aa7c7bd940e563c57a047e2bd3b8c602bcaf5a584848484604051612c3094939291906159e9565b60405180910390a150505050565b6060600f8054611feb90615994565b6001600160a01b03918216600090815260086020908152604080832093909416825291909152205460ff1690565b612c83612e2e565b6001600160a01b0316612c94612192565b6001600160a01b031614612cba5760405162461bcd60e51b8152600401610fa2906156af565b611f07612ccc36839003830183615a6d565b613d4f565b612cd9612e2e565b6001600160a01b0316612cea612192565b6001600160a01b031614612d105760405162461bcd60e51b8152600401610fa2906156af565b6001600160a01b038116612d755760405162461bcd60e51b815260206004820152602660248201527f4f776e61626c653a206e6577206f776e657220697320746865207a65726f206160448201526564647265737360d01b6064820152608401610fa2565b611f0781613568565b6000612d8933611819565b15612d9b575060131936013560601c90565b503390565b3390565b6001600160a01b03163b151590565b60006301ffc9a760e01b6001600160e01b031983161480610ea05750506001600160e01b03191660009081526001602052604090205460ff1690565b6000612dfb8383613dfa565b9392505050565b6060600d8054611feb90615994565b6000908152600560205260409020546001600160a01b0316151590565b6000610f35612d7e565b600081815260076020526040902080546001600160a01b0319166001600160a01b0384169081179091558190612e6d82611c97565b6001600160a01b03167f8c5be1e5ebec7d5bd14f71427d1e84f3dd0314c0f7b2291e5b200ac8c7c3b92560405160405180910390a45050565b60105481612eb360125490565b612ebd9190615782565b1115612efc5760405162461bcd60e51b815260206004820152600e60248201526d455843454544535f535550504c5960901b6044820152606401610fa2565b60005b818110156110e557601254612f148482613e24565b612f1c613e3e565b5080612f278161584a565b915050612eff565b6000612f3a82612e11565b612f9b5760405162461bcd60e51b815260206004820152602c60248201527f4552433732313a206f70657261746f7220717565727920666f72206e6f6e657860448201526b34b9ba32b73a103a37b5b2b760a11b6064820152608401610fa2565b6000612fa683611c97565b9050806001600160a01b0316846001600160a01b03161480612fcd5750612fcd8185612c4d565b80612ff15750836001600160a01b0316612fe684610f3a565b6001600160a01b0316145b949350505050565b826001600160a01b031661300c82611c97565b6001600160a01b0316146130705760405162461bcd60e51b815260206004820152602560248201527f4552433732313a207472616e736665722066726f6d20696e636f72726563742060448201526437bbb732b960d91b6064820152608401610fa2565b6001600160a01b0382166130d25760405162461bcd60e51b8152602060048201526024808201527f4552433732313a207472616e7366657220746f20746865207a65726f206164646044820152637265737360e01b6064820152608401610fa2565b6130dd838383613e55565b6130e8600082612e38565b6001600160a01b03831660009081526006602052604081208054600192906131119084906156fa565b90915550506001600160a01b038216600090815260066020526040812080546001929061313f908490615782565b909155505060008181526005602052604080822080546001600160a01b0319166001600160a01b038681169182179092559151849391871691600080516020615dc783398151915291a4505050565b611f078161319a612e2e565b613e60565b6131a982826121a7565b61119a576000828152601a602090815260408083206001600160a01b03851684529091529020805460ff191660011790556131e2612e2e565b6001600160a01b0316816001600160a01b0316837f2f8788117e7eff1d82e926ec794901d17c78024a50270940304540a733656f0d60405160405180910390a45050565b61323082826121a7565b1561119a576000828152601a602090815260408083206001600160a01b03851684529091529020805460ff19169055613267612e2e565b6001600160a01b0316816001600160a01b0316837ff6391f5c32d9c69d2a47ea670b442974b53935d1edc7fd64eb21e047a839171b60405160405180910390a45050565b60005b815181101561119a5760008282815181106132cb576132cb615834565b60200260200101519050612710816040015161ffff16106132fe5760405162461bcd60e51b8152600401610fa290615ac9565b60208101516001600160a01b03166133775780516000908152601c6020526040902080546001600160b01b0319169055805161333c90601d90613ec4565b5080516040519081527fa2870857763bd9ae76c957f869f16b31c18dd3bb4c7b4d3a4496dc5c57c657f99060200160405180910390a161343f565b6040805180820182526020808401516001600160a01b0390811683528484015161ffff90811683850190815286516000908152601c90945294909220925183549451909216600160a01b026001600160b01b031990941691161791909117905580516133e590601d90613ed0565b50805160208083015160408085015181519485526001600160a01b039092169284019290925261ffff1682820152517f389b70fb0887f01e83784eb1c4c589f740eca53b00ed0f45e41db5d079719abb9181900360600190a15b508061344a8161584a565b9150506132ae565b61345d60198261397d565b6134965760405162461bcd60e51b815260206004820152600a6024820152691393d517d313d0d2d15160b21b6044820152606401610fa2565b600881901c60009081526019602052604090208054600160ff84161b1916905550565b6000826134c68584613edc565b14949350505050565b60008054610100900460ff161561351d578160ff1660011480156134f957506134f730612da4565b155b6135155760405162461bcd60e51b8152600401610fa290615aee565b506000919050565b60005460ff8084169116106135445760405162461bcd60e51b8152600401610fa290615aee565b506000805460ff191660ff92909216919091179055600190565b61119a828261319f565b600080546001600160a01b038381166201000081810262010000600160b01b0319851617855560405193049190911692909183917f8be0079c531659141344cd1fd0a4f28419497f9722a3daafe3b4186f6b6457e091a35050565b600054610100900460ff166135ea5760405162461bcd60e51b8152600401610fa290615b3c565b61119a8282613f48565b600054610100900460ff1661361b5760405162461bcd60e51b8152600401610fa290615b3c565b6110e5838383613fcc565b600054610100900460ff1661364d5760405162461bcd60e51b8152600401610fa290615b3c565b61119a828261405f565b600054610100900460ff1661367e5760405162461bcd60e51b8152600401610fa290615b3c565b611f07816140fb565b600054610100900460ff166136ae5760405162461bcd60e51b8152600401610fa290615b3c565b611fda614147565b600054610100900460ff166136dd5760405162461bcd60e51b8152600401610fa290615b3c565b611f078161417e565b600054610100900460ff1661370d5760405162461bcd60e51b8152600401610fa290615b3c565b611fda6141cd565b600054610100900460ff1661373c5760405162461bcd60e51b8152600401610fa290615b3c565b611f0781614204565b600054610100900460ff1661376c5760405162461bcd60e51b8152600401610fa290615b3c565b61119a8282614320565b600054610100900460ff1661379d5760405162461bcd60e51b8152600401610fa290615b3c565b611f07816143b0565b6137ae612e2e565b6001600160a01b03166137bf612192565b6001600160a01b0316146137e55760405162461bcd60e51b8152600401610fa2906156af565b6137ee816143d7565b6018546015546137fe91906156fa565b60125461380b90836156fa565b1015611f075760405162461bcd60e51b81526020600482015260136024820152721313d5d15497d512105397d49154d154959151606a1b6044820152606401610fa2565b6000610ea0825490565b61386460198261397d565b156138815760405162461bcd60e51b8152600401610fa290615865565b600881901c60009081526019602052604090208054600160ff84161b17905550565b6060600e8054611feb90615994565b816001600160a01b0316836001600160a01b031614156139105760405162461bcd60e51b815260206004820152601960248201527822a9219b99189d1030b8383937bb32903a379031b0b63632b960391b6044820152606401610fa2565b6001600160a01b03838116600081815260086020908152604080832094871680845294825291829020805460ff191686151590811790915591519182527f17307eab39ab6107e8899845ad3d59bd9653f200f220920489ca2b5937696c31910160405180910390a3505050565b600881901c600090815260208390526040902054600160ff83161b16151592915050565b6139ac848484612ff9565b6139b884848484614484565b6123705760405162461bcd60e51b8152600401610fa290615b87565b60606000600a80546139e590615994565b905011613a7c57600980546139f990615994565b80601f0160208091040260200160405190810160405280929190818152602001828054613a2590615994565b8015613a725780601f10613a4757610100808354040283529160200191613a72565b820191906000526020600020905b815481529060010190602001808311613a5557829003601f168201915b5050505050610ea0565b600a613a878361459f565b600b604051602001613a9b93929190615c73565b60405160208183030381529060405292915050565b6003600254600160b01b900460ff166003811115613ad057613ad0614eed565b1415613b105760405162461bcd60e51b815260206004820152600f60248201526e15d2551211149055cbd313d0d2d151608a1b6044820152606401610fa2565b60028054600160b01b900460ff166003811115613b2f57613b2f614eed565b1415613b385750565b6001600254600160b01b900460ff166003811115613b5857613b58614eed565b1415613bb5576002546001600160a01b03828116911614611f075760405162461bcd60e51b815260206004820152601760248201527615d2551211149055cbd3d3931657d49150d25412515395604a1b6044820152606401610fa2565b6000600254600160b01b900460ff166003811115613bd557613bd5614eed565b1415611f0757806001600160a01b0316613bed612192565b6001600160a01b031614611f075760405162461bcd60e51b81526020600482015260136024820152722ba4aa24222920ab97a7a7262cafa7aba722a960691b6044820152606401610fa2565b80471015613c895760405162461bcd60e51b815260206004820152601d60248201527f416464726573733a20696e73756666696369656e742062616c616e63650000006044820152606401610fa2565b6000826001600160a01b03168260405160006040518083038185875af1925050503d8060008114613cd6576040519150601f19603f3d011682016040523d82523d6000602084013e613cdb565b606091505b50509050806110e55760405162461bcd60e51b815260206004820152603a60248201527f416464726573733a20756e61626c6520746f2073656e642076616c75652c20726044820152791958da5c1a595b9d081b585e481a185d99481c995d995c9d195960321b6064820152608401610fa2565b612710816020015161ffff1610613d785760405162461bcd60e51b8152600401610fa290615ac9565b60408051808201825282516001600160a01b03168082526020808501805161ffff1691909301819052601b80546001600160b01b031916909217600160a01b9091021790558251905191517f2c5ea6e4103e78cb101e796fb2dace540362fc542cbff5145eaa24af7dd8fe4192613def929161542c565b60405180910390a150565b6000826000018281548110613e1157613e11615834565b9060005260206000200154905092915050565b61119a82826040518060200160405280600081525061469c565b60128054906000613e4e8361584a565b9190505550565b6110e58383836146cf565b613e6a82826121a7565b61119a57613e82816001600160a01b031660146146f7565b613e8d8360206146f7565b604051602001613e9e929190615ca6565b60408051601f198184030181529082905262461bcd60e51b8252610fa291600401614cbe565b6000612dfb8383614892565b6000612dfb8383614985565b600081815b845181101561158f576000858281518110613efe57613efe615834565b60200260200101519050808311613f245760008381526020829052604090209250613f35565b600081815260208490526040902092505b5080613f408161584a565b915050613ee1565b600054610100900460ff16613f6f5760405162461bcd60e51b8152600401610fa290615b3c565b613f7f63ac2ba33360e01b6149d4565b600280546001600160a01b0384166001600160a01b0319821681178355839291600162ff000160a01b03191617600160b01b836003811115613fc357613fc3614eed565b02179055505050565b600054610100900460ff16613ff35760405162461bcd60e51b8152600401610fa290615b3c565b825161400690600d906020860190614b81565b50815161401a90600e906020850190614b81565b50805161402e90600f906020840190614b81565b5061403f633d96f4ff60e11b6149d4565b61404f6380ac58cd60e01b6149d4565b6110e5635b5e139f60e01b6149d4565b600054610100900460ff166140865760405162461bcd60e51b8152600401610fa290615b3c565b8151614099906009906020850190614b81565b5080516140ad90600a906020840190614b81565b5060408051808201909152600580825264173539b7b760d91b60209092019182526140da91600b91614b81565b506140eb631f2f406b60e01b6149d4565b61119a635b5e139f60e01b6149d4565b600054610100900460ff166141225760405162461bcd60e51b8152600401610fa290615b3c565b60108190556141376330f487b560e11b6149d4565b611f076380ac58cd60e01b6149d4565b600054610100900460ff1661416e5760405162461bcd60e51b8152600401610fa290615b3c565b611fda631aa1577160e11b6149d4565b600054610100900460ff166141a55760405162461bcd60e51b8152600401610fa290615b3c565b6141b5631a056e7160e01b6149d4565b611f07600080516020615da78339815191528261355e565b600054610100900460ff166141f45760405162461bcd60e51b8152600401610fa290615b3c565b611fda63714ad8e760e01b6149d4565b600054610100900460ff1661422b5760405162461bcd60e51b8152600401610fa290615b3c565b61423b6308b4902960e41b6149d4565b60005b815181101561119a5781818151811061425957614259615834565b602090810291909101810151600083815260148352604090819020825181559282015160018401558101516002830180546001600160a01b0319166001600160a01b03909216919091179055606081015160038301556080810151600483015560a0810151600583015560c0810151600683015560e0015160079091015581518290829081106142eb576142eb615834565b602002602001015160c00151601560008282546143089190615782565b909155508190506143188161584a565b91505061423e565b600054610100900460ff166143475760405162461bcd60e51b8152600401610fa290615b3c565b614357633a47bf5160e11b6149d4565b61436763152a902d60e11b6149d4565b61437763c69dbd8f60e01b6149d4565b61438763656cb66560e11b6149d4565b604080518082019091526001600160a01b038316815261ffff821660208201526110e581613d4f565b600054610100900460ff166128e35760405162461bcd60e51b8152600401610fa290615b3c565b6143df612e2e565b6001600160a01b03166143f0612192565b6001600160a01b0316146144165760405162461bcd60e51b8152600401610fa2906156af565b60115460ff16156144395760405162461bcd60e51b8152600401610fa2906159c9565b60125481101561447f5760405162461bcd60e51b81526020600482015260116024820152704c4f5745525f5448414e5f535550504c5960781b6044820152606401610fa2565b601055565b6000614498846001600160a01b0316612da4565b1561459457836001600160a01b031663150b7a026144b4612e2e565b8786866040518563ffffffff1660e01b81526004016144d69493929190615d15565b602060405180830381600087803b1580156144f057600080fd5b505af1925050508015614520575060408051601f3d908101601f1916820190925261451d91810190615d48565b60015b61457a573d80801561454e576040519150601f19603f3d011682016040523d82523d6000602084013e614553565b606091505b5080516145725760405162461bcd60e51b8152600401610fa290615b87565b805181602001fd5b6001600160e01b031916630a85bd0160e11b149050612ff1565b506001949350505050565b6060816145c35750506040805180820190915260018152600360fc1b602082015290565b8160005b81156145ed57806145d78161584a565b91506145e69050600a83615820565b91506145c7565b6000816001600160401b0381111561460757614607614f2b565b6040519080825280601f01601f191660200182016040528015614631576020820181803683370190505b5090505b8415612ff1576146466001836156fa565b9150614653600a86615d65565b61465e906030615782565b60f81b81838151811061467357614673615834565b60200101906001600160f81b031916908160001a905350614695600a86615820565b9450614635565b6146a68383614a55565b6146b36000848484614484565b6110e55760405162461bcd60e51b8152600401610fa290615b87565b6146da60198261397d565b156110e55760405162461bcd60e51b8152600401610fa290615865565b606060006147068360026157eb565b614711906002615782565b6001600160401b0381111561472857614728614f2b565b6040519080825280601f01601f191660200182016040528015614752576020820181803683370190505b509050600360fc1b8160008151811061476d5761476d615834565b60200101906001600160f81b031916908160001a905350600f60fb1b8160018151811061479c5761479c615834565b60200101906001600160f81b031916908160001a90535060006147c08460026157eb565b6147cb906001615782565b90505b6001811115614843576f181899199a1a9b1b9c1cb0b131b232b360811b85600f16601081106147ff576147ff615834565b1a60f81b82828151811061481557614815615834565b60200101906001600160f81b031916908160001a90535060049490941c9361483c81615d79565b90506147ce565b508315612dfb5760405162461bcd60e51b815260206004820181905260248201527f537472696e67733a20686578206c656e67746820696e73756666696369656e746044820152606401610fa2565b6000818152600183016020526040812054801561497b5760006148b66001836156fa565b85549091506000906148ca906001906156fa565b905081811461492f5760008660000182815481106148ea576148ea615834565b906000526020600020015490508087600001848154811061490d5761490d615834565b6000918252602080832090910192909255918252600188019052604090208390555b855486908061494057614940615d90565b600190038181906000526020600020016000905590558560010160008681526020019081526020016000206000905560019350505050610ea0565b6000915050610ea0565b60008181526001830160205260408120546149cc57508154600181810184556000848152602080822090930184905584548482528286019093526040902091909155610ea0565b506000610ea0565b6001600160e01b03198082161415614a2d5760405162461bcd60e51b815260206004820152601c60248201527b115490cc4d8d4e881a5b9d985b1a59081a5b9d195c999858d9481a5960221b6044820152606401610fa2565b6001600160e01b0319166000908152600160208190526040909120805460ff19169091179055565b6001600160a01b038216614aab5760405162461bcd60e51b815260206004820181905260248201527f4552433732313a206d696e7420746f20746865207a65726f20616464726573736044820152606401610fa2565b614ab481612e11565b15614b005760405162461bcd60e51b815260206004820152601c60248201527b115490cdcc8c4e881d1bdad95b88185b1c9958591e481b5a5b9d195960221b6044820152606401610fa2565b614b0c60008383613e55565b6001600160a01b0382166000908152600660205260408120805460019290614b35908490615782565b909155505060008181526005602052604080822080546001600160a01b0319166001600160a01b0386169081179091559051839290600080516020615dc7833981519152908290a45050565b828054614b8d90615994565b90600052602060002090601f016020900481019282614baf5760008555614bf5565b82601f10614bc857805160ff1916838001178555614bf5565b82800160010185558215614bf5579182015b82811115614bf5578251825591602001919060010190614bda565b50614c01929150614c05565b5090565b5b80821115614c015760008155600101614c06565b6001600160e01b031981168114611f0757600080fd5b600060208284031215614c4257600080fd5b8135612dfb81614c1a565b600060208284031215614c5f57600080fd5b5035919050565b60005b83811015614c81578181015183820152602001614c69565b838111156123705750506000910152565b60008151808452614caa816020860160208601614c66565b601f01601f19169290920160200192915050565b602081526000612dfb6020830184614c92565b6001600160a01b0381168114611f0757600080fd5b80356118a581614cd1565b60008060408385031215614d0457600080fd5b8235614d0f81614cd1565b946020939093013593505050565b60008060408385031215614d3057600080fd5b823591506020830135614d4281614cd1565b809150509250929050565b600080828403610120811215614d6257600080fd5b83359250610100601f1982011215614d7957600080fd5b506020830190509250929050565b600080600060608486031215614d9c57600080fd5b8335614da781614cd1565b92506020840135614db781614cd1565b929592945050506040919091013590565b60008060408385031215614ddb57600080fd5b50508035926020909101359150565b6001600160a01b03929092168252602082015260400190565b60008083601f840112614e1557600080fd5b5081356001600160401b03811115614e2c57600080fd5b6020830191508360208260051b85010111156114c657600080fd5b60008060208385031215614e5a57600080fd5b82356001600160401b03811115614e7057600080fd5b614e7c85828601614e03565b90969095509350505050565b6020808252825182820181905260009190848201906040850190845b81811015614ec057835183529284019291840191600101614ea4565b50909695505050505050565b600060208284031215614ede57600080fd5b813560048110612dfb57600080fd5b634e487b7160e01b600052602160045260246000fd5b6020810160048310614f2557634e487b7160e01b600052602160045260246000fd5b91905290565b634e487b7160e01b600052604160045260246000fd5b60405161010081016001600160401b0381118282101715614f6457614f64614f2b565b60405290565b60405161016081016001600160401b0381118282101715614f6457614f64614f2b565b604051601f8201601f191681016001600160401b0381118282101715614fb557614fb5614f2b565b604052919050565b60006001600160401b03831115614fd657614fd6614f2b565b614fe9601f8401601f1916602001614f8d565b9050828152838383011115614ffd57600080fd5b828260208301376000602084830101529392505050565b600082601f83011261502557600080fd5b612dfb83833560208501614fbd565b60006020828403121561504657600080fd5b81356001600160401b0381111561505c57600080fd5b612ff184828501615014565b6000806020838503121561507b57600080fd5b82356001600160401b038082111561509257600080fd5b818501915085601f8301126150a657600080fd5b8135818111156150b557600080fd5b8660206060830285010111156150ca57600080fd5b60209290920196919550909350505050565b6000602082840312156150ee57600080fd5b8135612dfb81614cd1565b60008060008060006080868803121561511157600080fd5b85359450602086013593506040860135925060608601356001600160401b0381111561513c57600080fd5b61514888828901614e03565b969995985093965092949392505050565b60008060008060006080868803121561517157600080fd5b85359450602086013561518381614cd1565b93506040860135925060608601356001600160401b0381111561513c57600080fd5b600082601f8301126151b657600080fd5b813560206001600160401b038211156151d1576151d1614f2b565b6151df818360051b01614f8d565b82815260089290921b840181019181810190868411156151fe57600080fd5b8286015b8481101561528457610100818903121561521c5760008081fd5b615224614f41565b81358152848201358582015260408083013561523f81614cd1565b90820152606082810135908201526080808301359082015260a0808301359082015260c0808301359082015260e0808301359082015283529183019161010001615202565b509695505050505050565b803561ffff811681146118a557600080fd5b600080604083850312156152b457600080fd5b82356001600160401b03808211156152cb57600080fd5b9084019061016082870312156152e057600080fd5b6152e8614f6a565b8235828111156152f757600080fd5b61530388828601615014565b82525060208301358281111561531857600080fd5b61532488828601615014565b60208301525060408301358281111561533c57600080fd5b61534888828601615014565b60408301525060608301358281111561536057600080fd5b61536c88828601615014565b60608301525060808301358281111561538457600080fd5b61539088828601615014565b60808301525060a083013560a082015260c0830135828111156153b257600080fd5b6153be888286016151a5565b60c0830152506153d060e08401614ce6565b60e082015261010091506153e582840161528f565b8282015261012091506153f9828401614ce6565b82820152610140915061540d828401614ce6565b8282015280945050505061542360208401614ce6565b90509250929050565b6001600160a01b0392909216825261ffff16602082015260400190565b8015158114611f0757600080fd5b6000806040838503121561546a57600080fd5b823561547581614cd1565b91506020830135614d4281615449565b6000806000806080858703121561549b57600080fd5b84356154a681614cd1565b935060208501356154b681614cd1565b92506040850135915060608501356001600160401b038111156154d857600080fd5b8501601f810187136154e957600080fd5b6154f887823560208401614fbd565b91505092959194509250565b602080825282518282018190526000919060409081850190868401855b8281101561555857815180516001600160a01b031685528601516001600160601b0316868501529284019290850190600101615521565b5091979650505050505050565b6000806000806040858703121561557b57600080fd5b84356001600160401b038082111561559257600080fd5b61559e88838901614e03565b909650945060208701359150808211156155b757600080fd5b818701915087601f8301126155cb57600080fd5b8135818111156155da57600080fd5b8860208260081b85010111156155ef57600080fd5b95989497505060200194505050565b6000806000806040858703121561561457600080fd5b84356001600160401b038082111561562b57600080fd5b61563788838901614e03565b9096509450602087013591508082111561565057600080fd5b5061565d87828801614e03565b95989497509550505050565b6000806040838503121561567c57600080fd5b823561568781614cd1565b91506020830135614d4281614cd1565b6000604082840312156156a957600080fd5b50919050565b6020808252818101527f4f776e61626c653a2063616c6c6572206973206e6f7420746865206f776e6572604082015260600190565b634e487b7160e01b600052601160045260246000fd5b60008282101561570c5761570c6156e4565b500390565b813581556020820135600182015560028101604083013561573181614cd1565b81546001600160a01b0319166001600160a01b0391909116179055606082013560038201556080820135600482015560a0820135600582015560c0820135600682015560e090910135600790910155565b60008219821115615795576157956156e4565b500190565b60208082526031908201527f4552433732313a207472616e736665722063616c6c6572206973206e6f74206f6040820152701ddb995c881b9bdc88185c1c1c9bdd9959607a1b606082015260800190565b6000816000190483118215151615615805576158056156e4565b500290565b634e487b7160e01b600052601260045260246000fd5b60008261582f5761582f61580a565b500490565b634e487b7160e01b600052603260045260246000fd5b600060001982141561585e5761585e6156e4565b5060010190565b6020808252600690820152651313d0d2d15160d21b604082015260600190565b60006060828403121561589757600080fd5b604051606081016001600160401b03811182821017156158b9576158b9614f2b565b6040528235815260208301356158ce81614cd1565b60208201526158df6040840161528f565b60408201529392505050565b6020808252601f908201527f5265656e7472616e637947756172643a207265656e7472616e742063616c6c00604082015260600190565b6020808252600f908201526e4e4f545f4c4f434b45525f524f4c4560881b604082015260600190565b60208082526012908201527122ac21a2a2a229afa0a62627a1a0aa24a7a760711b604082015260600190565b60006020828403121561598957600080fd5b8151612dfb81615449565b600181811c908216806159a857607f821691505b602082108114156156a957634e487b7160e01b600052602260045260246000fd5b602080825260069082015265232927ad22a760d11b604082015260600190565b6040808252810184905260008560608301825b87811015615a2c578235615a0f81614cd1565b6001600160a01b03168252602092830192909101906001016159fc565b5083810360208501528481526001600160fb1b03851115615a4c57600080fd5b8460051b915081866020830137600091016020019081529695505050505050565b600060408284031215615a7f57600080fd5b604080519081016001600160401b0381118282101715615aa157615aa1614f2b565b6040528235615aaf81614cd1565b8152615abd6020840161528f565b60208201529392505050565b6020808252600b908201526a496e76616c69642062707360a81b604082015260600190565b6020808252602e908201527f496e697469616c697a61626c653a20636f6e747261637420697320616c72656160408201526d191e481a5b9a5d1a585b1a5e995960921b606082015260800190565b6020808252602b908201527f496e697469616c697a61626c653a20636f6e7472616374206973206e6f74206960408201526a6e697469616c697a696e6760a81b606082015260800190565b60208082526032908201527f4552433732313a207472616e7366657220746f206e6f6e20455243373231526560408201527131b2b4bb32b91034b6b83632b6b2b73a32b960711b606082015260800190565b8054600090600181811c9080831680615bf357607f831692505b6020808410821415615c1557634e487b7160e01b600052602260045260246000fd5b818015615c295760018114615c3a57615c67565b60ff19861689528489019650615c67565b60008881526020902060005b86811015615c5f5781548b820152908501908301615c46565b505084890196505b50505050505092915050565b6000615c7f8286615bd9565b8451615c8f818360208901614c66565b615c9b81830186615bd9565b979650505050505050565b76020b1b1b2b9b9a1b7b73a3937b61d1030b1b1b7bab73a1604d1b815260008351615cd8816017850160208801614c66565b7001034b99036b4b9b9b4b733903937b6329607d1b6017918401918201528351615d09816028840160208801614c66565b01602801949350505050565b6001600160a01b0385811682528416602082015260408101839052608060608201819052600090611da490830184614c92565b600060208284031215615d5a57600080fd5b8151612dfb81614c1a565b600082615d7457615d7461580a565b500690565b600081615d8857615d886156e4565b506000190190565b634e487b7160e01b600052603160045260246000fdfe9f2df0fed2c77648de5860a4cc508cd0818c85b8b8a1ab4ceeef8d981c8956a6ddf252ad1be2c89b69c2b068fc378daa952ba7f163c4a11628f55a4df523b3efaf9a8bb3cbd6b84fbccefa71ff73e26e798553c6914585a84886212a46a90279a2646970667358221220a3f7ecd8fa87375f610b2b61df3ab34a6ba28d03276b2671c9603dc668bc451a64736f6c63430008090033",
  "devdoc": {
    "kind": "dev",
    "methods": {
      "approve(address,uint256)": {
        "details": "See {IERC721-approve}."
      },
      "balanceOf(address)": {
        "details": "See {IERC721-balanceOf}."
      },
      "getApproved(uint256)": {
        "details": "See {IERC721-getApproved}."
      },
      "getRoleAdmin(bytes32)": {
        "details": "Returns the admin role that controls `role`. See {grantRole} and {revokeRole}. To change a role's admin, use {_setRoleAdmin}."
      },
      "getTokenRoyaltiesCount()": {
        "details": "See {IEIP2981RoyaltyOverride-getTokenRoyaltiesCount}."
      },
      "getTokenRoyaltyByIndex(uint256)": {
        "details": "See {IEIP2981RoyaltyOverride-getTokenRoyaltyByIndex}."
      },
      "grantRole(bytes32,address)": {
        "details": "Grants `role` to `account`. If `account` had not been already granted `role`, emits a {RoleGranted} event. Requirements: - the caller must have ``role``'s admin role."
      },
      "hasRole(bytes32,address)": {
        "details": "Returns `true` if `account` has been granted `role`."
      },
      "isApprovedForAll(address,address)": {
        "details": "See {IERC721-isApprovedForAll}."
      },
      "owner()": {
        "details": "Returns the address of the current owner."
      },
      "ownerOf(uint256)": {
        "details": "See {IERC721-ownerOf}."
      },
      "renounceOwnership()": {
        "details": "Leaves the contract without owner. It will not be possible to call `onlyOwner` functions anymore. Can only be called by the current owner. NOTE: Renouncing ownership will leave the contract without an owner, thereby removing any functionality that is only available to the owner."
      },
      "renounceRole(bytes32,address)": {
        "details": "Revokes `role` from the calling account. Roles are often managed via {grantRole} and {revokeRole}: this function's purpose is to provide a mechanism for accounts to lose their privileges if they are compromised (such as when a trusted device is misplaced). If the calling account had been revoked `role`, emits a {RoleRevoked} event. Requirements: - the caller must be `account`."
      },
      "revokeRole(bytes32,address)": {
        "details": "Revokes `role` from `account`. If `account` had been granted `role`, emits a {RoleRevoked} event. Requirements: - the caller must have ``role``'s admin role."
      },
      "royaltyInfo(uint256,uint256)": {
        "details": "See {IEIP2981RoyaltyOverride-royaltyInfo}."
      },
      "safeTransferFrom(address,address,uint256)": {
        "details": "See {IERC721-safeTransferFrom}."
      },
      "safeTransferFrom(address,address,uint256,bytes)": {
        "details": "See {IERC721-safeTransferFrom}."
      },
      "setApprovalForAll(address,bool)": {
        "details": "See {IERC721-setApprovalForAll}."
      },
      "transferFrom(address,address,uint256)": {
        "details": "See {IERC721-transferFrom}."
      },
      "transferOwnership(address)": {
        "details": "Transfers ownership of the contract to a new account (`newOwner`). Can only be called by the current owner."
      }
    },
    "version": 1
  },
  "userdoc": {
    "kind": "user",
    "methods": {
      "lock(uint256)": {
        "notice": "Locks token(s) to effectively lock them, while keeping in the same wallet. This mechanism prevents them from being transferred, yet still will show correct owner."
      },
      "locked(uint256)": {
        "notice": "Returns if a token is locked or not."
      },
      "unlock(uint256)": {
        "notice": "Unlocks locked token(s) to be able to transfer."
      }
    },
    "version": 1
  },
  "storageLayout": {
    "storage": [
      {
        "astId": 886,
        "contract": "contracts/collections/ERC721/presets/ERC721TieredSalesCollection.sol:ERC721TieredSalesCollection",
        "label": "_initialized",
        "offset": 0,
        "slot": "0",
        "type": "t_uint8"
      },
      {
        "astId": 889,
        "contract": "contracts/collections/ERC721/presets/ERC721TieredSalesCollection.sol:ERC721TieredSalesCollection",
        "label": "_initializing",
        "offset": 1,
        "slot": "0",
        "type": "t_bool"
      },
      {
        "astId": 782,
        "contract": "contracts/collections/ERC721/presets/ERC721TieredSalesCollection.sol:ERC721TieredSalesCollection",
        "label": "_owner",
        "offset": 2,
        "slot": "0",
        "type": "t_address"
      },
      {
        "astId": 4693,
        "contract": "contracts/collections/ERC721/presets/ERC721TieredSalesCollection.sol:ERC721TieredSalesCollection",
        "label": "_supportedInterfaces",
        "offset": 0,
        "slot": "1",
        "type": "t_mapping(t_bytes4,t_bool)"
      },
      {
        "astId": 13807,
        "contract": "contracts/collections/ERC721/presets/ERC721TieredSalesCollection.sol:ERC721TieredSalesCollection",
        "label": "withdrawRecipient",
        "offset": 0,
        "slot": "2",
        "type": "t_address"
      },
      {
        "astId": 13809,
        "contract": "contracts/collections/ERC721/presets/ERC721TieredSalesCollection.sol:ERC721TieredSalesCollection",
        "label": "withdrawRecipientLocked",
        "offset": 20,
        "slot": "2",
        "type": "t_bool"
      },
      {
        "astId": 13811,
        "contract": "contracts/collections/ERC721/presets/ERC721TieredSalesCollection.sol:ERC721TieredSalesCollection",
        "label": "withdrawPowerRevoked",
        "offset": 21,
        "slot": "2",
        "type": "t_bool"
      },
      {
        "astId": 13814,
        "contract": "contracts/collections/ERC721/presets/ERC721TieredSalesCollection.sol:ERC721TieredSalesCollection",
        "label": "withdrawMode",
        "offset": 22,
        "slot": "2",
        "type": "t_enum(WithdrawMode)13751"
      },
      {
        "astId": 13816,
        "contract": "contracts/collections/ERC721/presets/ERC721TieredSalesCollection.sol:ERC721TieredSalesCollection",
        "label": "withdrawModeLocked",
        "offset": 23,
        "slot": "2",
        "type": "t_bool"
      },
      {
        "astId": 1912,
        "contract": "contracts/collections/ERC721/presets/ERC721TieredSalesCollection.sol:ERC721TieredSalesCollection",
        "label": "_name",
        "offset": 0,
        "slot": "3",
        "type": "t_string_storage"
      },
      {
        "astId": 1914,
        "contract": "contracts/collections/ERC721/presets/ERC721TieredSalesCollection.sol:ERC721TieredSalesCollection",
        "label": "_symbol",
        "offset": 0,
        "slot": "4",
        "type": "t_string_storage"
      },
      {
        "astId": 1918,
        "contract": "contracts/collections/ERC721/presets/ERC721TieredSalesCollection.sol:ERC721TieredSalesCollection",
        "label": "_owners",
        "offset": 0,
        "slot": "5",
        "type": "t_mapping(t_uint256,t_address)"
      },
      {
        "astId": 1922,
        "contract": "contracts/collections/ERC721/presets/ERC721TieredSalesCollection.sol:ERC721TieredSalesCollection",
        "label": "_balances",
        "offset": 0,
        "slot": "6",
        "type": "t_mapping(t_address,t_uint256)"
      },
      {
        "astId": 1926,
        "contract": "contracts/collections/ERC721/presets/ERC721TieredSalesCollection.sol:ERC721TieredSalesCollection",
        "label": "_tokenApprovals",
        "offset": 0,
        "slot": "7",
        "type": "t_mapping(t_uint256,t_address)"
      },
      {
        "astId": 1932,
        "contract": "contracts/collections/ERC721/presets/ERC721TieredSalesCollection.sol:ERC721TieredSalesCollection",
        "label": "_operatorApprovals",
        "offset": 0,
        "slot": "8",
        "type": "t_mapping(t_address,t_mapping(t_address,t_bool))"
      },
      {
        "astId": 7478,
        "contract": "contracts/collections/ERC721/presets/ERC721TieredSalesCollection.sol:ERC721TieredSalesCollection",
        "label": "_placeholderURI",
        "offset": 0,
        "slot": "9",
        "type": "t_string_storage"
      },
      {
        "astId": 7480,
        "contract": "contracts/collections/ERC721/presets/ERC721TieredSalesCollection.sol:ERC721TieredSalesCollection",
        "label": "_tokenURIPrefix",
        "offset": 0,
        "slot": "10",
        "type": "t_string_storage"
      },
      {
        "astId": 7482,
        "contract": "contracts/collections/ERC721/presets/ERC721TieredSalesCollection.sol:ERC721TieredSalesCollection",
        "label": "_tokenURISuffix",
        "offset": 0,
        "slot": "11",
        "type": "t_string_storage"
      },
      {
        "astId": 7484,
        "contract": "contracts/collections/ERC721/presets/ERC721TieredSalesCollection.sol:ERC721TieredSalesCollection",
        "label": "tokenURIFrozen",
        "offset": 0,
        "slot": "12",
        "type": "t_bool"
      },
      {
        "astId": 6170,
        "contract": "contracts/collections/ERC721/presets/ERC721TieredSalesCollection.sol:ERC721TieredSalesCollection",
        "label": "_name",
        "offset": 0,
        "slot": "13",
        "type": "t_string_storage"
      },
      {
        "astId": 6172,
        "contract": "contracts/collections/ERC721/presets/ERC721TieredSalesCollection.sol:ERC721TieredSalesCollection",
        "label": "_symbol",
        "offset": 0,
        "slot": "14",
        "type": "t_string_storage"
      },
      {
        "astId": 6174,
        "contract": "contracts/collections/ERC721/presets/ERC721TieredSalesCollection.sol:ERC721TieredSalesCollection",
        "label": "_contractURI",
        "offset": 0,
        "slot": "15",
        "type": "t_string_storage"
      },
      {
        "astId": 5826,
        "contract": "contracts/collections/ERC721/presets/ERC721TieredSalesCollection.sol:ERC721TieredSalesCollection",
        "label": "maxSupply",
        "offset": 0,
        "slot": "16",
        "type": "t_uint256"
      },
      {
        "astId": 5828,
        "contract": "contracts/collections/ERC721/presets/ERC721TieredSalesCollection.sol:ERC721TieredSalesCollection",
        "label": "maxSupplyFrozen",
        "offset": 0,
        "slot": "17",
        "type": "t_bool"
      },
      {
        "astId": 5831,
        "contract": "contracts/collections/ERC721/presets/ERC721TieredSalesCollection.sol:ERC721TieredSalesCollection",
        "label": "_currentTokenId",
        "offset": 0,
        "slot": "18",
        "type": "t_uint256"
      },
      {
        "astId": 1124,
        "contract": "contracts/collections/ERC721/presets/ERC721TieredSalesCollection.sol:ERC721TieredSalesCollection",
        "label": "_status",
        "offset": 0,
        "slot": "19",
        "type": "t_uint256"
      },
      {
        "astId": 8425,
        "contract": "contracts/collections/ERC721/presets/ERC721TieredSalesCollection.sol:ERC721TieredSalesCollection",
        "label": "tiers",
        "offset": 0,
        "slot": "20",
        "type": "t_mapping(t_uint256,t_struct(Tier)8368_storage)"
      },
      {
        "astId": 8427,
        "contract": "contracts/collections/ERC721/presets/ERC721TieredSalesCollection.sol:ERC721TieredSalesCollection",
        "label": "totalReserved",
        "offset": 0,
        "slot": "21",
        "type": "t_uint256"
      },
      {
        "astId": 8431,
        "contract": "contracts/collections/ERC721/presets/ERC721TieredSalesCollection.sol:ERC721TieredSalesCollection",
        "label": "tierMints",
        "offset": 0,
        "slot": "22",
        "type": "t_mapping(t_uint256,t_uint256)"
      },
      {
        "astId": 8437,
        "contract": "contracts/collections/ERC721/presets/ERC721TieredSalesCollection.sol:ERC721TieredSalesCollection",
        "label": "walletMinted",
        "offset": 0,
        "slot": "23",
        "type": "t_mapping(t_uint256,t_mapping(t_address,t_uint256))"
      },
      {
        "astId": 8439,
        "contract": "contracts/collections/ERC721/presets/ERC721TieredSalesCollection.sol:ERC721TieredSalesCollection",
        "label": "reservedMints",
        "offset": 0,
        "slot": "24",
        "type": "t_uint256"
      },
      {
        "astId": 6422,
        "contract": "contracts/collections/ERC721/presets/ERC721TieredSalesCollection.sol:ERC721TieredSalesCollection",
        "label": "lockedTokens",
        "offset": 0,
        "slot": "25",
        "type": "t_struct(BitMap)5065_storage"
      },
      {
        "astId": 406,
        "contract": "contracts/collections/ERC721/presets/ERC721TieredSalesCollection.sol:ERC721TieredSalesCollection",
        "label": "_roles",
        "offset": 0,
        "slot": "26",
        "type": "t_mapping(t_bytes32,t_struct(RoleData)401_storage)"
      },
      {
        "astId": 86,
        "contract": "contracts/collections/ERC721/presets/ERC721TieredSalesCollection.sol:ERC721TieredSalesCollection",
        "label": "defaultRoyalty",
        "offset": 0,
        "slot": "27",
        "type": "t_struct(TokenRoyalty)28_storage"
      },
      {
        "astId": 91,
        "contract": "contracts/collections/ERC721/presets/ERC721TieredSalesCollection.sol:ERC721TieredSalesCollection",
        "label": "_tokenRoyalties",
        "offset": 0,
        "slot": "28",
        "type": "t_mapping(t_uint256,t_struct(TokenRoyalty)28_storage)"
      },
      {
        "astId": 94,
        "contract": "contracts/collections/ERC721/presets/ERC721TieredSalesCollection.sol:ERC721TieredSalesCollection",
        "label": "_tokensWithRoyalties",
        "offset": 0,
        "slot": "29",
        "type": "t_struct(UintSet)5664_storage"
      },
      {
        "astId": 14087,
        "contract": "contracts/collections/ERC721/presets/ERC721TieredSalesCollection.sol:ERC721TieredSalesCollection",
        "label": "_trustedForwarder",
        "offset": 0,
        "slot": "31",
        "type": "t_address"
      }
    ],
    "types": {
      "t_address": {
        "encoding": "inplace",
        "label": "address",
        "numberOfBytes": "20"
      },
      "t_array(t_bytes32)dyn_storage": {
        "base": "t_bytes32",
        "encoding": "dynamic_array",
        "label": "bytes32[]",
        "numberOfBytes": "32"
      },
      "t_bool": {
        "encoding": "inplace",
        "label": "bool",
        "numberOfBytes": "1"
      },
      "t_bytes32": {
        "encoding": "inplace",
        "label": "bytes32",
        "numberOfBytes": "32"
      },
      "t_bytes4": {
        "encoding": "inplace",
        "label": "bytes4",
        "numberOfBytes": "4"
      },
      "t_enum(WithdrawMode)13751": {
        "encoding": "inplace",
        "label": "enum WithdrawMode",
        "numberOfBytes": "1"
      },
      "t_mapping(t_address,t_bool)": {
        "encoding": "mapping",
        "key": "t_address",
        "label": "mapping(address => bool)",
        "numberOfBytes": "32",
        "value": "t_bool"
      },
      "t_mapping(t_address,t_mapping(t_address,t_bool))": {
        "encoding": "mapping",
        "key": "t_address",
        "label": "mapping(address => mapping(address => bool))",
        "numberOfBytes": "32",
        "value": "t_mapping(t_address,t_bool)"
      },
      "t_mapping(t_address,t_uint256)": {
        "encoding": "mapping",
        "key": "t_address",
        "label": "mapping(address => uint256)",
        "numberOfBytes": "32",
        "value": "t_uint256"
      },
      "t_mapping(t_bytes32,t_struct(RoleData)401_storage)": {
        "encoding": "mapping",
        "key": "t_bytes32",
        "label": "mapping(bytes32 => struct AccessControl.RoleData)",
        "numberOfBytes": "32",
        "value": "t_struct(RoleData)401_storage"
      },
      "t_mapping(t_bytes32,t_uint256)": {
        "encoding": "mapping",
        "key": "t_bytes32",
        "label": "mapping(bytes32 => uint256)",
        "numberOfBytes": "32",
        "value": "t_uint256"
      },
      "t_mapping(t_bytes4,t_bool)": {
        "encoding": "mapping",
        "key": "t_bytes4",
        "label": "mapping(bytes4 => bool)",
        "numberOfBytes": "32",
        "value": "t_bool"
      },
      "t_mapping(t_uint256,t_address)": {
        "encoding": "mapping",
        "key": "t_uint256",
        "label": "mapping(uint256 => address)",
        "numberOfBytes": "32",
        "value": "t_address"
      },
      "t_mapping(t_uint256,t_mapping(t_address,t_uint256))": {
        "encoding": "mapping",
        "key": "t_uint256",
        "label": "mapping(uint256 => mapping(address => uint256))",
        "numberOfBytes": "32",
        "value": "t_mapping(t_address,t_uint256)"
      },
      "t_mapping(t_uint256,t_struct(Tier)8368_storage)": {
        "encoding": "mapping",
        "key": "t_uint256",
        "label": "mapping(uint256 => struct IERC721TieringExtension.Tier)",
        "numberOfBytes": "32",
        "value": "t_struct(Tier)8368_storage"
      },
      "t_mapping(t_uint256,t_struct(TokenRoyalty)28_storage)": {
        "encoding": "mapping",
        "key": "t_uint256",
        "label": "mapping(uint256 => struct IEIP2981RoyaltyOverride.TokenRoyalty)",
        "numberOfBytes": "32",
        "value": "t_struct(TokenRoyalty)28_storage"
      },
      "t_mapping(t_uint256,t_uint256)": {
        "encoding": "mapping",
        "key": "t_uint256",
        "label": "mapping(uint256 => uint256)",
        "numberOfBytes": "32",
        "value": "t_uint256"
      },
      "t_string_storage": {
        "encoding": "bytes",
        "label": "string",
        "numberOfBytes": "32"
      },
      "t_struct(BitMap)5065_storage": {
        "encoding": "inplace",
        "label": "struct BitMaps.BitMap",
        "members": [
          {
            "astId": 5064,
            "contract": "contracts/collections/ERC721/presets/ERC721TieredSalesCollection.sol:ERC721TieredSalesCollection",
            "label": "_data",
            "offset": 0,
            "slot": "0",
            "type": "t_mapping(t_uint256,t_uint256)"
          }
        ],
        "numberOfBytes": "32"
      },
      "t_struct(RoleData)401_storage": {
        "encoding": "inplace",
        "label": "struct AccessControl.RoleData",
        "members": [
          {
            "astId": 398,
            "contract": "contracts/collections/ERC721/presets/ERC721TieredSalesCollection.sol:ERC721TieredSalesCollection",
            "label": "members",
            "offset": 0,
            "slot": "0",
            "type": "t_mapping(t_address,t_bool)"
          },
          {
            "astId": 400,
            "contract": "contracts/collections/ERC721/presets/ERC721TieredSalesCollection.sol:ERC721TieredSalesCollection",
            "label": "adminRole",
            "offset": 0,
            "slot": "1",
            "type": "t_bytes32"
          }
        ],
        "numberOfBytes": "64"
      },
      "t_struct(Set)5206_storage": {
        "encoding": "inplace",
        "label": "struct EnumerableSet.Set",
        "members": [
          {
            "astId": 5201,
            "contract": "contracts/collections/ERC721/presets/ERC721TieredSalesCollection.sol:ERC721TieredSalesCollection",
            "label": "_values",
            "offset": 0,
            "slot": "0",
            "type": "t_array(t_bytes32)dyn_storage"
          },
          {
            "astId": 5205,
            "contract": "contracts/collections/ERC721/presets/ERC721TieredSalesCollection.sol:ERC721TieredSalesCollection",
            "label": "_indexes",
            "offset": 0,
            "slot": "1",
            "type": "t_mapping(t_bytes32,t_uint256)"
          }
        ],
        "numberOfBytes": "64"
      },
      "t_struct(Tier)8368_storage": {
        "encoding": "inplace",
        "label": "struct IERC721TieringExtension.Tier",
        "members": [
          {
            "astId": 8353,
            "contract": "contracts/collections/ERC721/presets/ERC721TieredSalesCollection.sol:ERC721TieredSalesCollection",
            "label": "start",
            "offset": 0,
            "slot": "0",
            "type": "t_uint256"
          },
          {
            "astId": 8355,
            "contract": "contracts/collections/ERC721/presets/ERC721TieredSalesCollection.sol:ERC721TieredSalesCollection",
            "label": "end",
            "offset": 0,
            "slot": "1",
            "type": "t_uint256"
          },
          {
            "astId": 8357,
            "contract": "contracts/collections/ERC721/presets/ERC721TieredSalesCollection.sol:ERC721TieredSalesCollection",
            "label": "currency",
            "offset": 0,
            "slot": "2",
            "type": "t_address"
          },
          {
            "astId": 8359,
            "contract": "contracts/collections/ERC721/presets/ERC721TieredSalesCollection.sol:ERC721TieredSalesCollection",
            "label": "price",
            "offset": 0,
            "slot": "3",
            "type": "t_uint256"
          },
          {
            "astId": 8361,
            "contract": "contracts/collections/ERC721/presets/ERC721TieredSalesCollection.sol:ERC721TieredSalesCollection",
            "label": "maxPerWallet",
            "offset": 0,
            "slot": "4",
            "type": "t_uint256"
          },
          {
            "astId": 8363,
            "contract": "contracts/collections/ERC721/presets/ERC721TieredSalesCollection.sol:ERC721TieredSalesCollection",
            "label": "merkleRoot",
            "offset": 0,
            "slot": "5",
            "type": "t_bytes32"
          },
          {
            "astId": 8365,
            "contract": "contracts/collections/ERC721/presets/ERC721TieredSalesCollection.sol:ERC721TieredSalesCollection",
            "label": "reserved",
            "offset": 0,
            "slot": "6",
            "type": "t_uint256"
          },
          {
            "astId": 8367,
            "contract": "contracts/collections/ERC721/presets/ERC721TieredSalesCollection.sol:ERC721TieredSalesCollection",
            "label": "maxAllocation",
            "offset": 0,
            "slot": "7",
            "type": "t_uint256"
          }
        ],
        "numberOfBytes": "256"
      },
      "t_struct(TokenRoyalty)28_storage": {
        "encoding": "inplace",
        "label": "struct IEIP2981RoyaltyOverride.TokenRoyalty",
        "members": [
          {
            "astId": 25,
            "contract": "contracts/collections/ERC721/presets/ERC721TieredSalesCollection.sol:ERC721TieredSalesCollection",
            "label": "recipient",
            "offset": 0,
            "slot": "0",
            "type": "t_address"
          },
          {
            "astId": 27,
            "contract": "contracts/collections/ERC721/presets/ERC721TieredSalesCollection.sol:ERC721TieredSalesCollection",
            "label": "bps",
            "offset": 20,
            "slot": "0",
            "type": "t_uint16"
          }
        ],
        "numberOfBytes": "32"
      },
      "t_struct(UintSet)5664_storage": {
        "encoding": "inplace",
        "label": "struct EnumerableSet.UintSet",
        "members": [
          {
            "astId": 5663,
            "contract": "contracts/collections/ERC721/presets/ERC721TieredSalesCollection.sol:ERC721TieredSalesCollection",
            "label": "_inner",
            "offset": 0,
            "slot": "0",
            "type": "t_struct(Set)5206_storage"
          }
        ],
        "numberOfBytes": "64"
      },
      "t_uint16": {
        "encoding": "inplace",
        "label": "uint16",
        "numberOfBytes": "2"
      },
      "t_uint256": {
        "encoding": "inplace",
        "label": "uint256",
        "numberOfBytes": "32"
      },
      "t_uint8": {
        "encoding": "inplace",
        "label": "uint8",
        "numberOfBytes": "1"
      }
    }
  }
}