{
  "address": "0xB19105DfCC8CF80240e86aC7F2CFa9264D6167a8",
  "abi": [
    {
      "inputs": [
        {
          "components": [
            {
              "internalType": "address",
              "name": "ticketToken",
              "type": "address"
            },
            {
              "internalType": "uint64",
              "name": "lockedUntilTimestamp",
              "type": "uint64"
            },
            {
              "internalType": "uint64",
              "name": "minStakingDuration",
              "type": "uint64"
            },
            {
              "internalType": "uint64",
              "name": "maxStakingTotalDurations",
              "type": "uint64"
            },
            {
              "internalType": "uint256",
              "name": "emissionRate",
              "type": "uint256"
            },
            {
              "internalType": "uint64",
              "name": "emissionTimeUnit",
              "type": "uint64"
            },
            {
              "internalType": "uint64",
              "name": "emissionStart",
              "type": "uint64"
            },
            {
              "internalType": "uint64",
              "name": "emissionEnd",
              "type": "uint64"
            },
            {
              "internalType": "uint256",
              "name": "totalTickets",
              "type": "uint256"
            },
            {
              "internalType": "uint64",
              "name": "claimLockedUntil",
              "type": "uint64"
            }
          ],
          "internalType": "struct ERC721LockedStakingEmissionStream.Config",
          "name": "config",
          "type": "tuple"
        }
      ],
      "stateMutability": "nonpayable",
      "type": "constructor"
    },
    {
      "anonymous": false,
      "inputs": [
        {
          "indexed": false,
          "internalType": "address",
          "name": "operator",
          "type": "address"
        },
        {
          "indexed": false,
          "internalType": "address",
          "name": "beneficiary",
          "type": "address"
        },
        {
          "indexed": false,
          "internalType": "uint256",
          "name": "ticketTokenId",
          "type": "uint256"
        },
        {
          "indexed": false,
          "internalType": "address",
          "name": "claimToken",
          "type": "address"
        },
        {
          "indexed": false,
          "internalType": "uint256",
          "name": "releasedAmount",
          "type": "uint256"
        }
      ],
      "name": "Claim",
      "type": "event"
    },
    {
      "anonymous": false,
      "inputs": [
        {
          "indexed": false,
          "internalType": "address",
          "name": "operator",
          "type": "address"
        },
        {
          "indexed": false,
          "internalType": "address",
          "name": "beneficiary",
          "type": "address"
        },
        {
          "indexed": false,
          "internalType": "uint256[]",
          "name": "ticketTokenIds",
          "type": "uint256[]"
        },
        {
          "indexed": false,
          "internalType": "address",
          "name": "claimToken",
          "type": "address"
        },
        {
          "indexed": false,
          "internalType": "uint256",
          "name": "releasedAmount",
          "type": "uint256"
        }
      ],
      "name": "ClaimMany",
      "type": "event"
    },
    {
      "anonymous": false,
      "inputs": [
        {
          "indexed": false,
          "internalType": "uint8",
          "name": "version",
          "type": "uint8"
        }
      ],
      "name": "Initialized",
      "type": "event"
    },
    {
      "anonymous": false,
      "inputs": [
        {
          "indexed": true,
          "internalType": "address",
          "name": "previousOwner",
          "type": "address"
        },
        {
          "indexed": true,
          "internalType": "address",
          "name": "newOwner",
          "type": "address"
        }
      ],
      "name": "OwnershipTransferred",
      "type": "event"
    },
    {
      "anonymous": false,
      "inputs": [],
      "name": "WithdrawPowerRevoked",
      "type": "event"
    },
    {
      "anonymous": false,
      "inputs": [
        {
          "indexed": false,
          "internalType": "address[]",
          "name": "claimTokens",
          "type": "address[]"
        },
        {
          "indexed": false,
          "internalType": "uint256[]",
          "name": "amounts",
          "type": "uint256[]"
        }
      ],
      "name": "Withdrawn",
      "type": "event"
    },
    {
      "inputs": [
        {
          "internalType": "uint256",
          "name": "ticketTokenId",
          "type": "uint256"
        }
      ],
      "name": "claim",
      "outputs": [],
      "stateMutability": "nonpayable",
      "type": "function"
    },
    {
      "inputs": [
        {
          "internalType": "uint256[]",
          "name": "ticketTokenIds",
          "type": "uint256[]"
        }
      ],
      "name": "claim",
      "outputs": [],
      "stateMutability": "nonpayable",
      "type": "function"
    },
    {
      "inputs": [
        {
          "internalType": "uint256",
          "name": "ticketTokenId",
          "type": "uint256"
        },
        {
          "internalType": "address",
          "name": "claimToken",
          "type": "address"
        }
      ],
      "name": "claim",
      "outputs": [],
      "stateMutability": "nonpayable",
      "type": "function"
    },
    {
      "inputs": [
        {
          "internalType": "uint256[]",
          "name": "ticketTokenIds",
          "type": "uint256[]"
        },
        {
          "internalType": "address",
          "name": "claimToken",
          "type": "address"
        },
        {
          "internalType": "address",
          "name": "owner",
          "type": "address"
        }
      ],
      "name": "claim",
      "outputs": [],
      "stateMutability": "nonpayable",
      "type": "function"
    },
    {
      "inputs": [],
      "name": "claimLockedUntil",
      "outputs": [
        {
          "internalType": "uint64",
          "name": "",
          "type": "uint64"
        }
      ],
      "stateMutability": "view",
      "type": "function"
    },
    {
      "inputs": [
        {
          "internalType": "uint64",
          "name": "calcUntil",
          "type": "uint64"
        }
      ],
      "name": "emissionAmountUntil",
      "outputs": [
        {
          "internalType": "uint256",
          "name": "",
          "type": "uint256"
        }
      ],
      "stateMutability": "view",
      "type": "function"
    },
    {
      "inputs": [],
      "name": "emissionEnd",
      "outputs": [
        {
          "internalType": "uint64",
          "name": "",
          "type": "uint64"
        }
      ],
      "stateMutability": "view",
      "type": "function"
    },
    {
      "inputs": [],
      "name": "emissionRate",
      "outputs": [
        {
          "internalType": "uint256",
          "name": "",
          "type": "uint256"
        }
      ],
      "stateMutability": "view",
      "type": "function"
    },
    {
      "inputs": [],
      "name": "emissionStart",
      "outputs": [
        {
          "internalType": "uint64",
          "name": "",
          "type": "uint64"
        }
      ],
      "stateMutability": "view",
      "type": "function"
    },
    {
      "inputs": [],
      "name": "emissionTimeUnit",
      "outputs": [
        {
          "internalType": "uint64",
          "name": "",
          "type": "uint64"
        }
      ],
      "stateMutability": "view",
      "type": "function"
    },
    {
      "inputs": [
        {
          "internalType": "uint256",
          "name": "",
          "type": "uint256"
        },
        {
          "internalType": "address",
          "name": "",
          "type": "address"
        }
      ],
      "name": "entitlements",
      "outputs": [
        {
          "internalType": "uint256",
          "name": "totalClaimed",
          "type": "uint256"
        },
        {
          "internalType": "uint256",
          "name": "lastClaimedAt",
          "type": "uint256"
        }
      ],
      "stateMutability": "view",
      "type": "function"
    },
    {
      "inputs": [],
      "name": "hasERC721EmissionReleaseExtension",
      "outputs": [
        {
          "internalType": "bool",
          "name": "",
          "type": "bool"
        }
      ],
      "stateMutability": "pure",
      "type": "function"
    },
    {
      "inputs": [],
      "name": "hasERC721EqualSplitExtension",
      "outputs": [
        {
          "internalType": "bool",
          "name": "",
          "type": "bool"
        }
      ],
      "stateMutability": "pure",
      "type": "function"
    },
    {
      "inputs": [],
      "name": "hasERC721LockableClaimExtension",
      "outputs": [
        {
          "internalType": "bool",
          "name": "",
          "type": "bool"
        }
      ],
      "stateMutability": "pure",
      "type": "function"
    },
    {
      "inputs": [],
      "name": "hasERC721LockedStakingExtension",
      "outputs": [
        {
          "internalType": "bool",
          "name": "",
          "type": "bool"
        }
      ],
      "stateMutability": "pure",
      "type": "function"
    },
    {
      "inputs": [],
      "name": "hasERC721StakingExtension",
      "outputs": [
        {
          "internalType": "bool",
          "name": "",
          "type": "bool"
        }
      ],
      "stateMutability": "pure",
      "type": "function"
    },
    {
      "inputs": [
        {
          "components": [
            {
              "internalType": "address",
              "name": "ticketToken",
              "type": "address"
            },
            {
              "internalType": "uint64",
              "name": "lockedUntilTimestamp",
              "type": "uint64"
            },
            {
              "internalType": "uint64",
              "name": "minStakingDuration",
              "type": "uint64"
            },
            {
              "internalType": "uint64",
              "name": "maxStakingTotalDurations",
              "type": "uint64"
            },
            {
              "internalType": "uint256",
              "name": "emissionRate",
              "type": "uint256"
            },
            {
              "internalType": "uint64",
              "name": "emissionTimeUnit",
              "type": "uint64"
            },
            {
              "internalType": "uint64",
              "name": "emissionStart",
              "type": "uint64"
            },
            {
              "internalType": "uint64",
              "name": "emissionEnd",
              "type": "uint64"
            },
            {
              "internalType": "uint256",
              "name": "totalTickets",
              "type": "uint256"
            },
            {
              "internalType": "uint64",
              "name": "claimLockedUntil",
              "type": "uint64"
            }
          ],
          "internalType": "struct ERC721LockedStakingEmissionStream.Config",
          "name": "config",
          "type": "tuple"
        },
        {
          "internalType": "address",
          "name": "deployer",
          "type": "address"
        }
      ],
      "name": "initialize",
      "outputs": [],
      "stateMutability": "nonpayable",
      "type": "function"
    },
    {
      "inputs": [
        {
          "internalType": "uint256",
          "name": "",
          "type": "uint256"
        }
      ],
      "name": "lastStakingTime",
      "outputs": [
        {
          "internalType": "uint64",
          "name": "",
          "type": "uint64"
        }
      ],
      "stateMutability": "view",
      "type": "function"
    },
    {
      "inputs": [
        {
          "internalType": "uint64",
          "name": "newValue",
          "type": "uint64"
        }
      ],
      "name": "lockUntil",
      "outputs": [],
      "stateMutability": "nonpayable",
      "type": "function"
    },
    {
      "inputs": [],
      "name": "lockWithdrawMode",
      "outputs": [],
      "stateMutability": "nonpayable",
      "type": "function"
    },
    {
      "inputs": [],
      "name": "lockWithdrawRecipient",
      "outputs": [],
      "stateMutability": "nonpayable",
      "type": "function"
    },
    {
      "inputs": [],
      "name": "lockedUntilTimestamp",
      "outputs": [
        {
          "internalType": "uint64",
          "name": "",
          "type": "uint64"
        }
      ],
      "stateMutability": "view",
      "type": "function"
    },
    {
      "inputs": [],
      "name": "maxStakingTotalDurations",
      "outputs": [
        {
          "internalType": "uint64",
          "name": "",
          "type": "uint64"
        }
      ],
      "stateMutability": "view",
      "type": "function"
    },
    {
      "inputs": [],
      "name": "minStakingDuration",
      "outputs": [
        {
          "internalType": "uint64",
          "name": "",
          "type": "uint64"
        }
      ],
      "stateMutability": "view",
      "type": "function"
    },
    {
      "inputs": [],
      "name": "name",
      "outputs": [
        {
          "internalType": "string",
          "name": "",
          "type": "string"
        }
      ],
      "stateMutability": "view",
      "type": "function"
    },
    {
      "inputs": [],
      "name": "owner",
      "outputs": [
        {
          "internalType": "address",
          "name": "",
          "type": "address"
        }
      ],
      "stateMutability": "view",
      "type": "function"
    },
    {
      "inputs": [
        {
          "internalType": "uint256[]",
          "name": "tokenIds",
          "type": "uint256[]"
        }
      ],
      "name": "rateByToken",
      "outputs": [
        {
          "internalType": "uint256",
          "name": "",
          "type": "uint256"
        }
      ],
      "stateMutability": "view",
      "type": "function"
    },
    {
      "inputs": [
        {
          "internalType": "uint64",
          "name": "calcUntil",
          "type": "uint64"
        }
      ],
      "name": "releasedAmountUntil",
      "outputs": [
        {
          "internalType": "uint256",
          "name": "",
          "type": "uint256"
        }
      ],
      "stateMutability": "view",
      "type": "function"
    },
    {
      "inputs": [],
      "name": "renounceOwnership",
      "outputs": [],
      "stateMutability": "nonpayable",
      "type": "function"
    },
    {
      "inputs": [],
      "name": "revokeWithdrawPower",
      "outputs": [],
      "stateMutability": "nonpayable",
      "type": "function"
    },
    {
      "inputs": [
        {
          "internalType": "uint256[]",
          "name": "ticketTokenIds",
          "type": "uint256[]"
        }
      ],
      "name": "rewardAmountByToken",
      "outputs": [
        {
          "internalType": "uint256",
          "name": "total",
          "type": "uint256"
        }
      ],
      "stateMutability": "view",
      "type": "function"
    },
    {
      "inputs": [
        {
          "internalType": "uint256",
          "name": "ticketTokenId",
          "type": "uint256"
        }
      ],
      "name": "rewardAmountByToken",
      "outputs": [
        {
          "internalType": "uint256",
          "name": "",
          "type": "uint256"
        }
      ],
      "stateMutability": "view",
      "type": "function"
    },
    {
      "inputs": [
        {
          "internalType": "uint256",
          "name": "",
          "type": "uint256"
        }
      ],
      "name": "savedStakedDurations",
      "outputs": [
        {
          "internalType": "uint64",
          "name": "",
          "type": "uint64"
        }
      ],
      "stateMutability": "view",
      "type": "function"
    },
    {
      "inputs": [
        {
          "internalType": "uint64",
          "name": "newValue",
          "type": "uint64"
        }
      ],
      "name": "setClaimLockedUntil",
      "outputs": [],
      "stateMutability": "nonpayable",
      "type": "function"
    },
    {
      "inputs": [
        {
          "internalType": "uint64",
          "name": "newValue",
          "type": "uint64"
        }
      ],
      "name": "setEmissionEnd",
      "outputs": [],
      "stateMutability": "nonpayable",
      "type": "function"
    },
    {
      "inputs": [
        {
          "internalType": "uint256",
          "name": "newValue",
          "type": "uint256"
        }
      ],
      "name": "setEmissionRate",
      "outputs": [],
      "stateMutability": "nonpayable",
      "type": "function"
    },
    {
      "inputs": [
        {
          "internalType": "uint64",
          "name": "newValue",
          "type": "uint64"
        }
      ],
      "name": "setEmissionStart",
      "outputs": [],
      "stateMutability": "nonpayable",
      "type": "function"
    },
    {
      "inputs": [
        {
          "internalType": "uint64",
          "name": "newValue",
          "type": "uint64"
        }
      ],
      "name": "setEmissionTimeUnit",
      "outputs": [],
      "stateMutability": "nonpayable",
      "type": "function"
    },
    {
      "inputs": [
        {
          "internalType": "uint64",
          "name": "newValue",
          "type": "uint64"
        }
      ],
      "name": "setMaxStakingTotalDurations",
      "outputs": [],
      "stateMutability": "nonpayable",
      "type": "function"
    },
    {
      "inputs": [
        {
          "internalType": "uint64",
          "name": "newValue",
          "type": "uint64"
        }
      ],
      "name": "setMinStakingDuration",
      "outputs": [],
      "stateMutability": "nonpayable",
      "type": "function"
    },
    {
      "inputs": [
        {
          "internalType": "uint256",
          "name": "newValue",
          "type": "uint256"
        }
      ],
      "name": "setTotalTickets",
      "outputs": [],
      "stateMutability": "nonpayable",
      "type": "function"
    },
    {
      "inputs": [
        {
          "internalType": "enum WithdrawMode",
          "name": "_withdrawMode",
          "type": "uint8"
        }
      ],
      "name": "setWithdrawMode",
      "outputs": [],
      "stateMutability": "nonpayable",
      "type": "function"
    },
    {
      "inputs": [
        {
          "internalType": "address",
          "name": "_withdrawRecipient",
          "type": "address"
        }
      ],
      "name": "setWithdrawRecipient",
      "outputs": [],
      "stateMutability": "nonpayable",
      "type": "function"
    },
    {
      "inputs": [
        {
          "internalType": "uint256[]",
          "name": "tokenIds",
          "type": "uint256[]"
        }
      ],
      "name": "stake",
      "outputs": [],
      "stateMutability": "nonpayable",
      "type": "function"
    },
    {
      "inputs": [
        {
          "internalType": "uint256",
          "name": "tokenId",
          "type": "uint256"
        }
      ],
      "name": "stake",
      "outputs": [],
      "stateMutability": "nonpayable",
      "type": "function"
    },
    {
      "inputs": [
        {
          "internalType": "uint256[]",
          "name": "ticketTokenIds",
          "type": "uint256[]"
        },
        {
          "internalType": "address",
          "name": "claimToken",
          "type": "address"
        }
      ],
      "name": "streamClaimableAmount",
      "outputs": [
        {
          "internalType": "uint256",
          "name": "",
          "type": "uint256"
        }
      ],
      "stateMutability": "view",
      "type": "function"
    },
    {
      "inputs": [
        {
          "internalType": "uint256",
          "name": "ticketTokenId",
          "type": "uint256"
        }
      ],
      "name": "streamClaimableAmount",
      "outputs": [
        {
          "internalType": "uint256",
          "name": "",
          "type": "uint256"
        }
      ],
      "stateMutability": "view",
      "type": "function"
    },
    {
      "inputs": [
        {
          "internalType": "uint256",
          "name": "ticketTokenId",
          "type": "uint256"
        },
        {
          "internalType": "address",
          "name": "claimToken",
          "type": "address"
        }
      ],
      "name": "streamClaimableAmount",
      "outputs": [
        {
          "internalType": "uint256",
          "name": "",
          "type": "uint256"
        }
      ],
      "stateMutability": "view",
      "type": "function"
    },
    {
      "inputs": [
        {
          "internalType": "uint256[]",
          "name": "ticketTokenIds",
          "type": "uint256[]"
        },
        {
          "internalType": "address",
          "name": "claimToken",
          "type": "address"
        }
      ],
      "name": "streamTotalClaimed",
      "outputs": [
        {
          "internalType": "uint256",
          "name": "",
          "type": "uint256"
        }
      ],
      "stateMutability": "view",
      "type": "function"
    },
    {
      "inputs": [],
      "name": "streamTotalClaimed",
      "outputs": [
        {
          "internalType": "uint256",
          "name": "",
          "type": "uint256"
        }
      ],
      "stateMutability": "view",
      "type": "function"
    },
    {
      "inputs": [
        {
          "internalType": "uint256[]",
          "name": "ticketTokenIds",
          "type": "uint256[]"
        }
      ],
      "name": "streamTotalClaimed",
      "outputs": [
        {
          "internalType": "uint256",
          "name": "",
          "type": "uint256"
        }
      ],
      "stateMutability": "view",
      "type": "function"
    },
    {
      "inputs": [
        {
          "internalType": "uint256",
          "name": "ticketTokenId",
          "type": "uint256"
        },
        {
          "internalType": "address",
          "name": "claimToken",
          "type": "address"
        }
      ],
      "name": "streamTotalClaimed",
      "outputs": [
        {
          "internalType": "uint256",
          "name": "",
          "type": "uint256"
        }
      ],
      "stateMutability": "view",
      "type": "function"
    },
    {
      "inputs": [
        {
          "internalType": "address",
          "name": "claimToken",
          "type": "address"
        }
      ],
      "name": "streamTotalClaimed",
      "outputs": [
        {
          "internalType": "uint256",
          "name": "",
          "type": "uint256"
        }
      ],
      "stateMutability": "view",
      "type": "function"
    },
    {
      "inputs": [
        {
          "internalType": "uint256",
          "name": "ticketTokenId",
          "type": "uint256"
        }
      ],
      "name": "streamTotalClaimed",
      "outputs": [
        {
          "internalType": "uint256",
          "name": "",
          "type": "uint256"
        }
      ],
      "stateMutability": "view",
      "type": "function"
    },
    {
      "inputs": [],
      "name": "streamTotalSupply",
      "outputs": [
        {
          "internalType": "uint256",
          "name": "",
          "type": "uint256"
        }
      ],
      "stateMutability": "view",
      "type": "function"
    },
    {
      "inputs": [
        {
          "internalType": "address",
          "name": "claimToken",
          "type": "address"
        }
      ],
      "name": "streamTotalSupply",
      "outputs": [
        {
          "internalType": "uint256",
          "name": "",
          "type": "uint256"
        }
      ],
      "stateMutability": "view",
      "type": "function"
    },
    {
      "inputs": [
        {
          "internalType": "bytes4",
          "name": "interfaceId",
          "type": "bytes4"
        }
      ],
      "name": "supportsInterface",
      "outputs": [
        {
          "internalType": "bool",
          "name": "",
          "type": "bool"
        }
      ],
      "stateMutability": "view",
      "type": "function"
    },
    {
      "inputs": [],
      "name": "ticketToken",
      "outputs": [
        {
          "internalType": "address",
          "name": "",
          "type": "address"
        }
      ],
      "stateMutability": "view",
      "type": "function"
    },
    {
      "inputs": [
        {
          "internalType": "uint256",
          "name": "ticketTokenId",
          "type": "uint256"
        }
      ],
      "name": "totalStakedDuration",
      "outputs": [
        {
          "internalType": "uint64",
          "name": "",
          "type": "uint64"
        }
      ],
      "stateMutability": "view",
      "type": "function"
    },
    {
      "inputs": [
        {
          "internalType": "uint256[]",
          "name": "ticketTokenIds",
          "type": "uint256[]"
        }
      ],
      "name": "totalStakedDuration",
      "outputs": [
        {
          "internalType": "uint64",
          "name": "",
          "type": "uint64"
        }
      ],
      "stateMutability": "view",
      "type": "function"
    },
    {
      "inputs": [],
      "name": "totalTickets",
      "outputs": [
        {
          "internalType": "uint256",
          "name": "",
          "type": "uint256"
        }
      ],
      "stateMutability": "view",
      "type": "function"
    },
    {
      "inputs": [
        {
          "internalType": "address",
          "name": "newOwner",
          "type": "address"
        }
      ],
      "name": "transferOwnership",
      "outputs": [],
      "stateMutability": "nonpayable",
      "type": "function"
    },
    {
      "inputs": [
        {
          "internalType": "uint256[]",
          "name": "ticketTokenIds",
          "type": "uint256[]"
        }
      ],
      "name": "unlockingTime",
      "outputs": [
        {
          "internalType": "uint256[]",
          "name": "",
          "type": "uint256[]"
        }
      ],
      "stateMutability": "view",
      "type": "function"
    },
    {
      "inputs": [
        {
          "internalType": "uint256",
          "name": "ticketTokenId",
          "type": "uint256"
        }
      ],
      "name": "unlockingTime",
      "outputs": [
        {
          "internalType": "uint256",
          "name": "",
          "type": "uint256"
        }
      ],
      "stateMutability": "view",
      "type": "function"
    },
    {
      "inputs": [
        {
          "internalType": "uint256",
          "name": "tokenId",
          "type": "uint256"
        }
      ],
      "name": "unstake",
      "outputs": [],
      "stateMutability": "nonpayable",
      "type": "function"
    },
    {
      "inputs": [
        {
          "internalType": "uint256[]",
          "name": "tokenIds",
          "type": "uint256[]"
        }
      ],
      "name": "unstake",
      "outputs": [],
      "stateMutability": "nonpayable",
      "type": "function"
    },
    {
      "inputs": [],
      "name": "version",
      "outputs": [
        {
          "internalType": "string",
          "name": "",
          "type": "string"
        }
      ],
      "stateMutability": "view",
      "type": "function"
    },
    {
      "inputs": [
        {
          "internalType": "address[]",
          "name": "claimTokens",
          "type": "address[]"
        },
        {
          "internalType": "uint256[]",
          "name": "amounts",
          "type": "uint256[]"
        }
      ],
      "name": "withdraw",
      "outputs": [],
      "stateMutability": "nonpayable",
      "type": "function"
    },
    {
      "inputs": [],
      "name": "withdrawMode",
      "outputs": [
        {
          "internalType": "enum WithdrawMode",
          "name": "",
          "type": "uint8"
        }
      ],
      "stateMutability": "view",
      "type": "function"
    },
    {
      "inputs": [],
      "name": "withdrawModeLocked",
      "outputs": [
        {
          "internalType": "bool",
          "name": "",
          "type": "bool"
        }
      ],
      "stateMutability": "view",
      "type": "function"
    },
    {
      "inputs": [],
      "name": "withdrawPowerRevoked",
      "outputs": [
        {
          "internalType": "bool",
          "name": "",
          "type": "bool"
        }
      ],
      "stateMutability": "view",
      "type": "function"
    },
    {
      "inputs": [],
      "name": "withdrawRecipient",
      "outputs": [
        {
          "internalType": "address",
          "name": "",
          "type": "address"
        }
      ],
      "stateMutability": "view",
      "type": "function"
    },
    {
      "inputs": [],
      "name": "withdrawRecipientLocked",
      "outputs": [
        {
          "internalType": "bool",
          "name": "",
          "type": "bool"
        }
      ],
      "stateMutability": "view",
      "type": "function"
    },
    {
      "stateMutability": "payable",
      "type": "receive"
    }
  ],
  "transactionHash": "0x2dcef974770e4b00b10021f1b4a94334a198a4e4064300f30d0b842a516e9f9d",
  "args": [
    {
      "ticketToken": "0x0000000000000000000000000000000000000000",
      "lockedUntilTimestamp": 0,
      "minStakingDuration": 0,
      "maxStakingTotalDurations": 0,
      "emissionRate": 0,
      "emissionTimeUnit": 0,
      "emissionStart": 0,
      "emissionEnd": 0,
      "totalTickets": 0,
      "claimLockedUntil": 0
    }
  ],
  "numDeployments": 2,
  "solcInputHash": "02aab1a099814645bc16fca9ac28cbca",
  "bytecode": "0x60806040523480156200001157600080fd5b50604051620047ad380380620047ad83398101604081905262000034916200078e565b6200003f3362000057565b6001600255620000508133620000b2565b506200090a565b600080546001600160a01b038381166201000081810262010000600160b01b0319851617855560405193049190911692909183917f8be0079c531659141344cd1fd0a4f28419497f9722a3daafe3b4186f6b6457e091a35050565b6000620000c06001620001b0565b90508015620000d9576000805461ff0019166101001790555b620000e48262000057565b620000f182600062000262565b825160208401516200010491906200029c565b6200011e83604001518460600151620002d260201b60201c565b6200014283608001518460a001518560c001518660e001516200031260201b60201c565b610100830151620001539062000350565b610120830151620001649062000388565b8015620001ab576000805461ff0019169055604051600181527f7f26b83ff96e1f2b6a682f133852f6798a09c465da95921460cefb38474024989060200160405180910390a15b505050565b60008054610100900460ff161562000219578160ff166001148015620001e95750620001e730620003bd60201b6200262d1760201c565b155b620002115760405162461bcd60e51b815260040162000208906200085b565b60405180910390fd5b506000919050565b60005460ff808416911610620002435760405162461bcd60e51b815260040162000208906200085b565b506000805460ff191660ff92909216919091179055600190565b919050565b600054610100900460ff166200028c5760405162461bcd60e51b81526004016200020890620008a9565b620002988282620003cc565b5050565b600054610100900460ff16620002c65760405162461bcd60e51b81526004016200020890620008a9565b62000298828262000473565b600054610100900460ff16620002fc5760405162461bcd60e51b81526004016200020890620008a9565b62000306620004dd565b6200029882826200051b565b600054610100900460ff166200033c5760405162461bcd60e51b81526004016200020890620008a9565b6200034a8484848462000584565b50505050565b600054610100900460ff166200037a5760405162461bcd60e51b81526004016200020890620008a9565b62000385816200060f565b50565b600054610100900460ff16620003b25760405162461bcd60e51b81526004016200020890620008a9565b620003858162000650565b6001600160a01b03163b151590565b600054610100900460ff16620003f65760405162461bcd60e51b81526004016200020890620008a9565b6200040863ac2ba33360e01b620006a2565b600c8054600160401b600160e01b03198116680100000000000000006001600160a01b038616029081178355839291600160401b62ff000160e01b03191660ff60f01b1990911617600160f01b8360038111156200046a576200046a620008f4565b02179055505050565b600054610100900460ff166200049d5760405162461bcd60e51b81526004016200020890620008a9565b600380546001600160401b038316600160a01b026001600160e01b03199091166001600160a01b0385161717905562000298631ba050e960e21b620006a2565b600054610100900460ff16620005075760405162461bcd60e51b81526004016200020890620008a9565b6200051963d664280160e01b620006a2565b565b600054610100900460ff16620005455760405162461bcd60e51b81526004016200020890620008a9565b600980546001600160401b0383811668010000000000000000026001600160801b03199092169085161717905562000298633a41ba5360e11b620006a2565b600054610100900460ff16620005ae5760405162461bcd60e51b81526004016200020890620008a9565b6006849055600780546001600160401b03838116600160801b02600160801b600160c01b031986831668010000000000000000026001600160801b03199094169288169290921792909217161790556200034a63c9f600a960e01b620006a2565b600054610100900460ff16620006395760405162461bcd60e51b81526004016200020890620008a9565b600881905562000385632d5305cb60e21b620006a2565b600054610100900460ff166200067a5760405162461bcd60e51b81526004016200020890620008a9565b600c80546001600160401b0319166001600160401b038316179055620003856317b2ef4360e31b5b6001600160e01b03198082161415620006fe5760405162461bcd60e51b815260206004820152601c60248201527f4552433136353a20696e76616c696420696e7465726661636520696400000000604482015260640162000208565b6001600160e01b0319166000908152600160208190526040909120805460ff19169091179055565b60405161014081016001600160401b03811182821017156200075857634e487b7160e01b600052604160045260246000fd5b60405290565b80516001600160a01b03811681146200025d57600080fd5b80516001600160401b03811681146200025d57600080fd5b60006101408284031215620007a257600080fd5b620007ac62000726565b620007b7836200075e565b8152620007c76020840162000776565b6020820152620007da6040840162000776565b6040820152620007ed6060840162000776565b6060820152608083015160808201526200080a60a0840162000776565b60a08201526200081d60c0840162000776565b60c08201526200083060e0840162000776565b60e082015261010083810151908201526101206200085081850162000776565b908201529392505050565b6020808252602e908201527f496e697469616c697a61626c653a20636f6e747261637420697320616c72656160408201526d191e481a5b9a5d1a585b1a5e995960921b606082015260800190565b6020808252602b908201527f496e697469616c697a61626c653a20636f6e7472616374206973206e6f74206960408201526a6e697469616c697a696e6760a81b606082015260800190565b634e487b7160e01b600052602160045260246000fd5b613e93806200091a6000396000f3fe60806040526004361061033a5760003560e01c80630191c0af1461035357806301ffc9a71461038657806306fdde03146103b657806308289dbe146103d857806308ae7e54146104265780630c805a44146104465780630fbf0a931461047c57806314427a961461049c5780631bc51b26146104bc5780631c725fdc146104d057806325289bad146104f05780632890d033146105175780632c0e13131461052c5780632c2330671461054c5780632d00b5871461056c5780632e17de781461059a57806333abcdbd146105ba578063379607f5146105da5780633a73f7d6146105fa5780633b3f12e21461061a5780633d2dded51461063a57806349561cb9146106775780634abb4c4914610698578063513da948146106c557806354fd4d50146106ec57806357dc48c81461071b5780636057e0ec1461076f57806361949636146107905780636ba4c138146107b0578063715018a6146107d057806378b094ca146107e5578063790c0c73146108055780638368909c14610825578063837fe1401461084c57806384fd5ae01461086157806389c6b815146108815780638da5cb5b146108a15780639199690b146104bc578063968d9b2c146108c357806396afc450146108e35780639edfe830146108f9578063a1bdb15e14610919578063a1cf649314610939578063a5549bc61461097c578063a5b23be71461099c578063a694fc3a146109bc578063a86b21e8146109dc578063a8a67c8c146109fc578063aaf2f99914610a1c578063ae890c0a14610a3c578063af121f5414610a5c578063c088184914610a7d578063c0bb38ff14610ab3578063c723955a14610ad3578063d0d6641d14610ae8578063d1335b69146104bc578063d4244f2414610b08578063d5ed4d5a14610b2f578063d6642801146104bc578063d97314f514610b4f578063da82b22714610b6f578063dcbe353f14610b84578063dd11247e14610bab578063dda8820f146104bc578063ddd5e1b214610bc1578063de6d6d9614610be1578063de76a67614610c01578063e449f34114610c21578063f2fde38b14610c41578063f389b6e414610c61578063f4415ad614610c81578063f593dfc814610cb9578063f66e38c214610cd957600080fd5b3661034e576000341161034c57600080fd5b005b600080fd5b34801561035f57600080fd5b5061037361036e366004613549565b610cf9565b6040519081526020015b60405180910390f35b34801561039257600080fd5b506103a66103a136600461359f565b610d4f565b604051901515815260200161037d565b3480156103c257600080fd5b506103cb610d8f565b60405161037d91906135c9565b3480156103e457600080fd5b5061040e6103f336600461361e565b600b602052600090815260409020546001600160401b031681565b6040516001600160401b03909116815260200161037d565b34801561043257600080fd5b5060095461040e906001600160401b031681565b34801561045257600080fd5b5061040e61046136600461361e565b600a602052600090815260409020546001600160401b031681565b34801561048857600080fd5b5061034c610497366004613637565b610dab565b3480156104a857600080fd5b50600c5461040e906001600160401b031681565b3480156104c857600080fd5b5060016103a6565b3480156104dc57600080fd5b5061034c6104eb36600461368f565b610df9565b3480156104fc57600080fd5b5060035461040e90600160a01b90046001600160401b031681565b34801561052357600080fd5b50610373610eb0565b34801561053857600080fd5b5061034c61054736600461368f565b610ec1565b34801561055857600080fd5b5061034c6105673660046136aa565b610f44565b34801561057857600080fd5b50600c5461058d90600160f01b900460ff1681565b60405161037d91906136e1565b3480156105a657600080fd5b5061034c6105b536600461361e565b610fca565b3480156105c657600080fd5b5061040e6105d536600461361e565b611035565b3480156105e657600080fd5b5061034c6105f536600461361e565b61112a565b34801561060657600080fd5b50610373610615366004613637565b611138565b34801561062657600080fd5b50610373610635366004613549565b61118a565b34801561064657600080fd5b506000805260056020527f05b8ccbb9d4d8fb16ea74ce3c29a41f1b461fbdaff4714a0d9a8eb05499746bc54610373565b34801561068357600080fd5b50600c546103a690600160f81b900460ff1681565b3480156106a457600080fd5b506106b86106b3366004613637565b611208565b60405161037d9190613709565b3480156106d157600080fd5b5060075461040e90600160401b90046001600160401b031681565b3480156106f857600080fd5b506103cb60405180604001604052806003815260200162302e3160e81b81525081565b34801561072757600080fd5b5061075a61073636600461374d565b60046020908152600092835260408084209091529082529020805460019091015482565b6040805192835260208301919091520161037d565b34801561077b57600080fd5b50600c546103a690600160e01b900460ff1681565b34801561079c57600080fd5b5060075461040e906001600160401b031681565b3480156107bc57600080fd5b5061034c6107cb366004613637565b6112b3565b3480156107dc57600080fd5b5061034c6112c0565b3480156107f157600080fd5b5061034c61080036600461368f565b6112fb565b34801561081157600080fd5b5061037361082036600461377d565b611388565b34801561083157600080fd5b5060075461040e90600160801b90046001600160401b031681565b34801561085857600080fd5b5061034c61145b565b34801561086d57600080fd5b5061037361087c366004613637565b6114c9565b34801561088d57600080fd5b5061037361089c366004613637565b61155c565b3480156108ad57600080fd5b506108b6611571565b60405161037d919061379a565b3480156108cf57600080fd5b506103736108de36600461361e565b611586565b3480156108ef57600080fd5b5061037360065481565b34801561090557600080fd5b5061037361091436600461368f565b611593565b34801561092557600080fd5b5061034c61093436600461361e565b6115d8565b34801561094557600080fd5b5061037361095436600461374d565b60009182526004602090815260408084206001600160a01b0393909316845291905290205490565b34801561098857600080fd5b5061034c61099736600461368f565b61163e565b3480156109a857600080fd5b506103736109b736600461361e565b6116c1565b3480156109c857600080fd5b5061034c6109d736600461361e565b611707565b3480156109e857600080fd5b506103736109f736600461368f565b611747565b348015610a0857600080fd5b5061034c610a173660046137fb565b611783565b348015610a2857600080fd5b5061034c610a3736600461368f565b611862565b348015610a4857600080fd5b5061034c610a5736600461361e565b6118ef565b348015610a6857600080fd5b50600c546103a690600160e81b900460ff1681565b348015610a8957600080fd5b50610373610a9836600461377d565b6001600160a01b031660009081526005602052604090205490565b348015610abf57600080fd5b5061034c610ace36600461377d565b611955565b348015610adf57600080fd5b5061034c6119da565b348015610af457600080fd5b50610373610b0336600461361e565b611a62565b348015610b1457600080fd5b5060095461040e90600160401b90046001600160401b031681565b348015610b3b57600080fd5b506003546108b6906001600160a01b031681565b348015610b5b57600080fd5b5061034c610b6a36600461368f565b611abc565b348015610b7b57600080fd5b5061034c611b3f565b348015610b9057600080fd5b50600c546108b690600160401b90046001600160a01b031681565b348015610bb757600080fd5b5061037360085481565b348015610bcd57600080fd5b5061034c610bdc36600461374d565b611bac565b348015610bed57600080fd5b5061034c610bfc3660046138dc565b611e3a565b348015610c0d57600080fd5b5061040e610c1c366004613637565b612098565b348015610c2d57600080fd5b5061034c610c3c366004613637565b6120e4565b348015610c4d57600080fd5b5061034c610c5c36600461377d565b612156565b348015610c6d57600080fd5b5061034c610c7c366004613947565b6121f3565b348015610c8d57600080fd5b50610373610c9c36600461361e565b600090815260046020908152604080832083805290915290205490565b348015610cc557600080fd5b5061034c610cd436600461368f565b612551565b348015610ce557600080fd5b50610373610cf436600461374d565b6125de565b600080805b84811015610d4657610d28868683818110610d1b57610d1b6139ae565b90506020020135856125de565b610d3290836139da565b915080610d3e816139f2565b915050610cfe565b50949350505050565b60006301ffc9a760e01b6001600160e01b031983161480610d8957506001600160e01b0319821660009081526001602052604090205460ff165b92915050565b604051806060016040528060258152602001613e396025913981565b6007546001600160401b03600160401b9091048116429091161015610deb5760405162461bcd60e51b8152600401610de290613a0d565b60405180910390fd5b610df5828261263c565b5050565b33610e02611571565b6001600160a01b031614610e285760405162461bcd60e51b8152600401610de290613a3d565b6003546001600160401b03600160a01b909104811690821611610e845760405162461bcd60e51b815260206004820152601460248201527314d5149150534bd0d0539393d517d49155d2539160621b6044820152606401610de2565b600380546001600160401b03909216600160a01b02600160a01b600160e01b0319909216919091179055565b6000610ebc6000611388565b905090565b33610eca611571565b6001600160a01b031614610ef05760405162461bcd60e51b8152600401610de290613a3d565b60035442600160a01b9091046001600160401b031610610f225760405162461bcd60e51b8152600401610de290613a72565b600c80546001600160401b0319166001600160401b0392909216919091179055565b33610f4d611571565b6001600160a01b031614610f735760405162461bcd60e51b8152600401610de290613a3d565b600c54600160f81b900460ff1615610f9d5760405162461bcd60e51b8152600401610de290613aa0565b600c805482919060ff60f01b1916600160f01b836003811115610fc257610fc26136cb565b021790555050565b610fd381612678565b600354604051636198e33960e01b8152600481018390526001600160a01b0390911690636198e339906024015b600060405180830381600087803b15801561101a57600080fd5b505af115801561102e573d6000803e3d6000fd5b5050505050565b6000818152600b6020908152604080832054600a9092528220546001600160401b039182169116156110f257600061106b612683565b905042816001600160401b031611156110815750425b6000848152600a60205260409020546001600160401b0316156110f0576000848152600a60205260409020546001600160401b0390811690821611156110f0576000848152600a60205260409020546110e3906001600160401b031682613ac0565b6110ed9083613ae8565b91505b505b6009546001600160401b03600160401b90910481169082161115610d895750600954600160401b90046001600160401b031692915050565b611135816000611bac565b50565b6000805b8281101561118357611165848483818110611159576111596139ae565b905060200201356116c1565b61116f90836139da565b91508061117b816139f2565b91505061113c565b5092915050565b600080805b84811015610d4657600460008787848181106111ad576111ad6139ae565b9050602002013581526020019081526020016000206000856001600160a01b03166001600160a01b0316815260200190815260200160002060000154826111f491906139da565b915080611200816139f2565b91505061118f565b60606000826001600160401b03811115611224576112246137ae565b60405190808252806020026020018201604052801561124d578160200160208202803683370190505b50905060005b838110156112ab5761127c858583818110611270576112706139ae565b90506020020135611a62565b82828151811061128e5761128e6139ae565b6020908102919091010152806112a3816139f2565b915050611253565b509392505050565b610df582826000336121f3565b336112c9611571565b6001600160a01b0316146112ef5760405162461bcd60e51b8152600401610de290613a3d565b6112f960006126c1565b565b33611304611571565b6001600160a01b03161461132a5760405162461bcd60e51b8152600401610de290613a3d565b60035442600160a01b9091046001600160401b03161061135c5760405162461bcd60e51b8152600401610de290613a72565b600780546001600160401b03909216600160801b02600160801b600160c01b0319909216919091179055565b60006001600160a01b0382166113bc576001600160a01b038216600090815260056020526040902054610d899047906139da565b6040516370a0823160e01b81526001600160a01b038316906370a08231906113e890309060040161379a565b60206040518083038186803b15801561140057600080fd5b505afa158015611414573d6000803e3d6000fd5b505050506040513d601f19601f820116820180604052508101906114389190613b13565b6001600160a01b038316600090815260056020526040902054610d8991906139da565b33611464611571565b6001600160a01b03161461148a5760405162461bcd60e51b8152600401610de290613a3d565b600c54600160e01b900460ff16156114b45760405162461bcd60e51b8152600401610de290613aa0565b600c805460ff60e01b1916600160e01b179055565b60008060005b83811015611538576000600a60008787858181106114ef576114ef6139ae565b60209081029290920135835250810191909152604001600020546001600160401b031611156115265781611522816139f2565b9250505b80611530816139f2565b9150506114cf565b506008548160065461154a9190613b2c565b6115549190613b61565b949350505050565b600061156a8383600061118a565b9392505050565b6000546201000090046001600160a01b031690565b6000610d898260006125de565b6007546000906001600160401b03808216916115b891600160401b9091041684613ac0565b6115c29190613b75565b6001600160401b0316600654610d899190613b2c565b336115e1611571565b6001600160a01b0316146116075760405162461bcd60e51b8152600401610de290613a3d565b60035442600160a01b9091046001600160401b0316106116395760405162461bcd60e51b8152600401610de290613a72565b600655565b33611647611571565b6001600160a01b03161461166d5760405162461bcd60e51b8152600401610de290613a3d565b60035442600160a01b9091046001600160401b03161061169f5760405162461bcd60e51b8152600401610de290613a72565b600980546001600160401b0319166001600160401b0392909216919091179055565b6007546008546000916001600160401b0316906116dd84611035565b6001600160401b03166006546116f39190613b2c565b6116fd9190613b61565b610d899190613b61565b6007546001600160401b03600160401b909104811642909116101561173e5760405162461bcd60e51b8152600401610de290613a0d565b6111358161271c565b6007546006546000916001600160401b03808216929161177091600160401b9091041685613ac0565b6001600160401b03166116fd9190613b2c565b600061178f6001612756565b905080156117a7576000805461ff0019166101001790555b6117b0826126c1565b6117bb8260006127ea565b6117cd8360000151846020015161281b565b6117df8360400151846060015161284c565b6117fb83608001518460a001518560c001518660e00151612885565b6118098361010001516128be565b6118178361012001516128ee565b801561185d576000805461ff0019169055604051600181527f7f26b83ff96e1f2b6a682f133852f6798a09c465da95921460cefb38474024989060200160405180910390a15b505050565b3361186b611571565b6001600160a01b0316146118915760405162461bcd60e51b8152600401610de290613a3d565b60035442600160a01b9091046001600160401b0316106118c35760405162461bcd60e51b8152600401610de290613a72565b600780546001600160401b03909216600160401b02600160401b600160801b0319909216919091179055565b336118f8611571565b6001600160a01b03161461191e5760405162461bcd60e51b8152600401610de290613a3d565b60035442600160a01b9091046001600160401b0316106119505760405162461bcd60e51b8152600401610de290613a72565b600855565b3361195e611571565b6001600160a01b0316146119845760405162461bcd60e51b8152600401610de290613a3d565b600c54600160e01b900460ff16156119ae5760405162461bcd60e51b8152600401610de290613aa0565b600c80546001600160a01b03909216600160401b02600160401b600160e01b0319909216919091179055565b336119e3611571565b6001600160a01b031614611a095760405162461bcd60e51b8152600401610de290613a3d565b600c54600160f81b900460ff1615611a4b5760405162461bcd60e51b815260206004820152600560248201526413d0d2d15160da1b6044820152606401610de2565b600c80546001600160f81b0316600160f81b179055565b6000818152600a60205260408120546001600160401b0316611a85576000611aad565b6009546000838152600a6020526040902054611aad916001600160401b039081169116613ae8565b6001600160401b031692915050565b33611ac5611571565b6001600160a01b031614611aeb5760405162461bcd60e51b8152600401610de290613a3d565b60035442600160a01b9091046001600160401b031610611b1d5760405162461bcd60e51b8152600401610de290613a72565b600780546001600160401b0319166001600160401b0392909216919091179055565b33611b48611571565b6001600160a01b031614611b6e5760405162461bcd60e51b8152600401610de290613a3d565b600c805460ff60e81b1916600160e81b1790556040517fa24423a69b45c25c0479663125e48b482e71d85eae416f589545243bafaf3c9590600090a1565b600280541415611bce5760405162461bcd60e51b8152600401610de290613b9b565b600280556003546040516331a9108f60e11b8152600481018490526000916001600160a01b031690636352211e9060240160206040518083038186803b158015611c1757600080fd5b505afa158015611c2b573d6000803e3d6000fd5b505050506040513d601f19601f82011682018060405250810190611c4f9190613bd2565b9050611c5c83838361291e565b6000611c6884846125de565b905060008111611cb45760405162461bcd60e51b815260206004820152601760248201527653545245414d2f4e4f5448494e475f544f5f434c41494d60481b6044820152606401610de2565b60008481526004602090815260408083206001600160a01b038716845290915281208054839290611ce69084906139da565b909155505060008481526004602090815260408083206001600160a01b0387168452825280832042600190910155600590915281208054839290611d2b9084906139da565b90915550506001600160a01b038316611d5657611d516001600160a01b03831682612934565b611dd8565b60405163a9059cbb60e01b81526001600160a01b0384169063a9059cbb90611d849085908590600401613bef565b602060405180830381600087803b158015611d9e57600080fd5b505af1158015611db2573d6000803e3d6000fd5b505050506040513d601f19601f82011682018060405250810190611dd69190613c08565b505b604080513381526001600160a01b038481166020830152818301879052851660608201526080810183905290517fa2d3c4c1fc934d6d2d8f9e862df90c01ae4eb0e920cd8957d242ba26b8dc40789181900360a00190a1505060016002555050565b611e4333612a4a565b600c54600160401b90046001600160a01b0316611e9a5760405162461bcd60e51b815260206004820152601560248201527415d2551211149055cbd393d7d49150d25412515395605a1b6044820152606401610de2565b600c54600160e81b900460ff1615611ef45760405162461bcd60e51b815260206004820181905260248201527f57495448445241572f454d455247454e43595f504f5745525f5245564f4b45446044820152606401610de2565b60005b83811015612054576000858583818110611f1357611f136139ae565b9050602002016020810190611f28919061377d565b6001600160a01b03161415611f7457611f6f838383818110611f4c57611f4c6139ae565b600c546001600160a01b03600160401b9091041692602090910201359050612934565b612042565b848482818110611f8657611f866139ae565b9050602002016020810190611f9b919061377d565b600c546001600160a01b039182169163a9059cbb91600160401b900416858585818110611fca57611fca6139ae565b905060200201356040518363ffffffff1660e01b8152600401611fee929190613bef565b602060405180830381600087803b15801561200857600080fd5b505af115801561201c573d6000803e3d6000fd5b505050506040513d601f19601f820116820180604052508101906120409190613c08565b505b8061204c816139f2565b915050611ef7565b507fd40c399a83caf67d15628b821aa7c7bd940e563c57a047e2bd3b8c602bcaf5a58484848460405161208a9493929190613c60565b60405180910390a150505050565b600080805b838110156112ab576120c68585838181106120ba576120ba6139ae565b90506020020135611035565b6120d09083613ae8565b9150806120dc816139f2565b91505061209d565b6120ee8282612bdb565b600354604051635d36598f60e01b81526001600160a01b0390911690635d36598f906121209085908590600401613cc3565b600060405180830381600087803b15801561213a57600080fd5b505af115801561214e573d6000803e3d6000fd5b505050505050565b3361215f611571565b6001600160a01b0316146121855760405162461bcd60e51b8152600401610de290613a3d565b6001600160a01b0381166121ea5760405162461bcd60e51b815260206004820152602660248201527f4f776e61626c653a206e6577206f776e657220697320746865207a65726f206160448201526564647265737360d01b6064820152608401610de2565b611135816126c1565b6002805414156122155760405162461bcd60e51b8152600401610de290613b9b565b600280556000805b8481101561242e5761224886868381811061223a5761223a6139ae565b90506020020135858561291e565b6003546001600160a01b038085169116636352211e88888581811061226f5761226f6139ae565b905060200201356040518263ffffffff1660e01b815260040161229491815260200190565b60206040518083038186803b1580156122ac57600080fd5b505afa1580156122c0573d6000803e3d6000fd5b505050506040513d601f19601f820116820180604052508101906122e49190613bd2565b6001600160a01b0316146123315760405162461bcd60e51b815260206004820152601460248201527329aa2922a0a697a727aa2fa7232a2fa7aba722a960611b6044820152606401610de2565b6000612355878784818110612348576123486139ae565b90506020020135866125de565b9050801561241b578060046000898986818110612374576123746139ae565b9050602002013581526020019081526020016000206000876001600160a01b03166001600160a01b0316815260200190815260200160002060000160008282546123be91906139da565b90915550429050600460008989868181106123db576123db6139ae565b6020908102929092013583525081810192909252604090810160009081206001600160a01b038a16825290925290206001015561241881846139da565b92505b5080612426816139f2565b91505061221d565b506001600160a01b038316600090815260056020526040812080548392906124579084906139da565b90915550506001600160a01b0383166124825761247d6001600160a01b03831682612934565b612504565b60405163a9059cbb60e01b81526001600160a01b0384169063a9059cbb906124b09085908590600401613bef565b602060405180830381600087803b1580156124ca57600080fd5b505af11580156124de573d6000803e3d6000fd5b505050506040513d601f19601f820116820180604052508101906125029190613c08565b505b7fd84a5c424a4f777bcf4f645712b8e5ebfc550f42bde444fa822fe98ee1b132b133838787878660405161253d96959493929190613cd7565b60405180910390a150506001600255505050565b3361255a611571565b6001600160a01b0316146125805760405162461bcd60e51b8152600401610de290613a3d565b60035442600160a01b9091046001600160401b0316106125b25760405162461bcd60e51b8152600401610de290613a72565b600980546001600160401b03909216600160401b02600160401b600160801b0319909216919091179055565b6000806125fd6125f66125f085611388565b50600090565b8585612d61565b60008581526004602090815260408083206001600160a01b03881684529091529020549091506115549082613d16565b6001600160a01b03163b151590565b6126468282612bdb565b6003546040516342cb086360e11b81526001600160a01b039091169063859610c6906121209085908590600401613cc3565b611135334283612da6565b600754600090600160801b90046001600160401b0316156126b55750600754600160801b90046001600160401b031690565b506001600160401b0390565b600080546001600160a01b038381166201000081810262010000600160b01b0319851617855560405193049190911692909183917f8be0079c531659141344cd1fd0a4f28419497f9722a3daafe3b4186f6b6457e091a35050565b61272581612f7d565b6003546040516337519c1960e21b8152600481018390526001600160a01b039091169063dd46706490602401611000565b60008054610100900460ff16156127a4578160ff166001148015612780575061277e3061262d565b155b61279c5760405162461bcd60e51b8152600401610de290613d2d565b506000919050565b60005460ff8084169116106127cb5760405162461bcd60e51b8152600401610de290613d2d565b506000805460ff191660ff92909216919091179055600190565b919050565b600054610100900460ff166128115760405162461bcd60e51b8152600401610de290613d7b565b610df58282613094565b600054610100900460ff166128425760405162461bcd60e51b8152600401610de290613d7b565b610df5828261312e565b600054610100900460ff166128735760405162461bcd60e51b8152600401610de290613d7b565b61287b613193565b610df582826131ca565b600054610100900460ff166128ac5760405162461bcd60e51b8152600401610de290613d7b565b6128b884848484613229565b50505050565b600054610100900460ff166128e55760405162461bcd60e51b8152600401610de290613d7b565b611135816132aa565b600054610100900460ff166129155760405162461bcd60e51b8152600401610de290613d7b565b611135816132e6565b612929838383613338565b61185d83838361338a565b804710156129845760405162461bcd60e51b815260206004820152601d60248201527f416464726573733a20696e73756666696369656e742062616c616e63650000006044820152606401610de2565b6000826001600160a01b03168260405160006040518083038185875af1925050503d80600081146129d1576040519150601f19603f3d011682016040523d82523d6000602084013e6129d6565b606091505b505090508061185d5760405162461bcd60e51b815260206004820152603a60248201527f416464726573733a20756e61626c6520746f2073656e642076616c75652c20726044820152791958da5c1a595b9d081b585e481a185d99481c995d995c9d195960321b6064820152608401610de2565b6003600c54600160f01b900460ff166003811115612a6a57612a6a6136cb565b1415612aaa5760405162461bcd60e51b815260206004820152600f60248201526e15d2551211149055cbd313d0d2d151608a1b6044820152606401610de2565b6002600c54600160f01b900460ff166003811115612aca57612aca6136cb565b1415612ad35750565b6001600c54600160f01b900460ff166003811115612af357612af36136cb565b1415612b5757600c546001600160a01b03828116600160401b90920416146111355760405162461bcd60e51b815260206004820152601760248201527615d2551211149055cbd3d3931657d49150d25412515395604a1b6044820152606401610de2565b6000600c54600160f01b900460ff166003811115612b7757612b776136cb565b141561113557806001600160a01b0316612b8f611571565b6001600160a01b0316146111355760405162461bcd60e51b81526020600482015260136024820152722ba4aa24222920ab97a7a7262cafa7aba722a960691b6044820152606401610de2565b334260005b8381101561102e576003546001600160a01b0316636352211e868684818110612c0b57612c0b6139ae565b905060200201356040518263ffffffff1660e01b8152600401612c3091815260200190565b60206040518083038186803b158015612c4857600080fd5b505afa158015612c5c573d6000803e3d6000fd5b505050506040513d601f19601f82011682018060405250810190612c809190613bd2565b6001600160a01b0316836001600160a01b031614612cb05760405162461bcd60e51b8152600401610de290613dc6565b600954600160401b90046001600160401b0316612cd88686848181106120ba576120ba6139ae565b6001600160401b031610612cfe5760405162461bcd60e51b8152600401610de290613df6565b81600a6000878785818110612d1557612d156139ae565b90506020020135815260200190815260200160002060006101000a8154816001600160401b0302191690836001600160401b031602179055508080612d59906139f2565b915050612be0565b6007546000906001600160401b0316612d7984611035565b612d839190613b75565b6001600160401b0316600854600654612d9c9190613b61565b6115549190613b2c565b6000818152600a60205260409020546001600160401b0316612dfe5760405162461bcd60e51b815260206004820152601160248201527014d5149150534bd393d517d4d51052d151607a1b6044820152606401610de2565b6009546000828152600a6020526040902054612e26916001600160401b039081169116613ae8565b6001600160401b0316826001600160401b03161015612e875760405162461bcd60e51b815260206004820152601d60248201527f53545245414d2f4e4f545f5354414b45445f4c4f4e475f454e4f5547480000006044820152606401610de2565b6003546040516331a9108f60e11b8152600481018390526001600160a01b0390911690636352211e9060240160206040518083038186803b158015612ecb57600080fd5b505afa158015612edf573d6000803e3d6000fd5b505050506040513d601f19601f82011682018060405250810190612f039190613bd2565b6001600160a01b0316836001600160a01b031614612f335760405162461bcd60e51b8152600401610de290613dc6565b612f3c81611035565b6000918252600b6020908152604080842080546001600160401b03949094166001600160401b0319948516179055600a909152909120805490911690555050565b6003546040516331a9108f60e11b8152600481018390526001600160a01b0390911690636352211e9060240160206040518083038186803b158015612fc157600080fd5b505afa158015612fd5573d6000803e3d6000fd5b505050506040513d601f19601f82011682018060405250810190612ff99190613bd2565b6001600160a01b0316336001600160a01b0316146130295760405162461bcd60e51b8152600401610de290613dc6565b600954600160401b90046001600160401b031661304582611035565b6001600160401b03161061306b5760405162461bcd60e51b8152600401610de290613df6565b6000908152600a6020526040902080546001600160401b031916426001600160401b0316179055565b600054610100900460ff166130bb5760405162461bcd60e51b8152600401610de290613d7b565b6130cb63ac2ba33360e01b61345d565b600c8054600160401b600160e01b03198116600160401b6001600160a01b038616029081178355839291600160401b62ff000160e01b03191660ff60f01b1990911617600160f01b836003811115613125576131256136cb565b02179055505050565b600054610100900460ff166131555760405162461bcd60e51b8152600401610de290613d7b565b600380546001600160401b038316600160a01b026001600160e01b03199091166001600160a01b03851617179055610df5631ba050e960e21b61345d565b600054610100900460ff166131ba5760405162461bcd60e51b8152600401610de290613d7b565b6112f963d664280160e01b61345d565b600054610100900460ff166131f15760405162461bcd60e51b8152600401610de290613d7b565b600980546001600160401b03838116600160401b026001600160801b031990921690851617179055610df5633a41ba5360e11b61345d565b600054610100900460ff166132505760405162461bcd60e51b8152600401610de290613d7b565b6006849055600780546001600160401b03838116600160801b02600160801b600160c01b0319868316600160401b026001600160801b03199094169288169290921792909217161790556128b863c9f600a960e01b61345d565b600054610100900460ff166132d15760405162461bcd60e51b8152600401610de290613d7b565b6008819055611135632d5305cb60e21b61345d565b600054610100900460ff1661330d5760405162461bcd60e51b8152600401610de290613d7b565b600c80546001600160401b0319166001600160401b0383161790556111356317b2ef4360e31b61345d565b600c54426001600160401b039091161061185d5760405162461bcd60e51b815260206004820152601360248201527214d5149150534bd0d310525357d313d0d2d151606a1b6044820152606401610de2565b60075442600160401b9091046001600160401b0316106133e15760405162461bcd60e51b815260206004820152601260248201527114d5149150534bd393d517d4d5105495115160721b6044820152606401610de2565b6007546133f7906001600160401b031642613d16565b60008481526004602090815260408083206001600160a01b03871684529091529020600101541061185d5760405162461bcd60e51b815260206004820152601060248201526f53545245414d2f544f4f5f4541524c5960801b6044820152606401610de2565b6001600160e01b031980821614156134b65760405162461bcd60e51b815260206004820152601c60248201527b115490cc4d8d4e881a5b9d985b1a59081a5b9d195c999858d9481a5960221b6044820152606401610de2565b6001600160e01b0319166000908152600160208190526040909120805460ff19169091179055565b60008083601f8401126134f057600080fd5b5081356001600160401b0381111561350757600080fd5b6020830191508360208260051b850101111561352257600080fd5b9250929050565b6001600160a01b038116811461113557600080fd5b80356127e581613529565b60008060006040848603121561355e57600080fd5b83356001600160401b0381111561357457600080fd5b613580868287016134de565b909450925050602084013561359481613529565b809150509250925092565b6000602082840312156135b157600080fd5b81356001600160e01b03198116811461156a57600080fd5b600060208083528351808285015260005b818110156135f6578581018301518582016040015282016135da565b81811115613608576000604083870101525b50601f01601f1916929092016040019392505050565b60006020828403121561363057600080fd5b5035919050565b6000806020838503121561364a57600080fd5b82356001600160401b0381111561366057600080fd5b61366c858286016134de565b90969095509350505050565b80356001600160401b03811681146127e557600080fd5b6000602082840312156136a157600080fd5b61156a82613678565b6000602082840312156136bc57600080fd5b81356004811061156a57600080fd5b634e487b7160e01b600052602160045260246000fd5b602081016004831061370357634e487b7160e01b600052602160045260246000fd5b91905290565b6020808252825182820181905260009190848201906040850190845b8181101561374157835183529284019291840191600101613725565b50909695505050505050565b6000806040838503121561376057600080fd5b82359150602083013561377281613529565b809150509250929050565b60006020828403121561378f57600080fd5b813561156a81613529565b6001600160a01b0391909116815260200190565b634e487b7160e01b600052604160045260246000fd5b60405161014081016001600160401b03811182821017156137f557634e487b7160e01b600052604160045260246000fd5b60405290565b60008082840361016081121561381057600080fd5b6101408082121561382057600080fd5b6138286137c4565b91506138338561353e565b825261384160208601613678565b602083015261385260408601613678565b604083015261386360608601613678565b60608301526080850135608083015261387e60a08601613678565b60a083015261388f60c08601613678565b60c08301526138a060e08601613678565b60e083015261010085810135908301526101206138be818701613678565b81840152508193506138d181860161353e565b925050509250929050565b600080600080604085870312156138f257600080fd5b84356001600160401b038082111561390957600080fd5b613915888389016134de565b9096509450602087013591508082111561392e57600080fd5b5061393b878288016134de565b95989497509550505050565b6000806000806060858703121561395d57600080fd5b84356001600160401b0381111561397357600080fd5b61397f878288016134de565b909550935050602085013561399381613529565b915060408501356139a381613529565b939692955090935050565b634e487b7160e01b600052603260045260246000fd5b634e487b7160e01b600052601160045260246000fd5b600082198211156139ed576139ed6139c4565b500190565b6000600019821415613a0657613a066139c4565b5060010190565b60208082526016908201527514d5149150534bd393d517d4d5105495115117d6515560521b604082015260600190565b6020808252818101527f4f776e61626c653a2063616c6c6572206973206e6f7420746865206f776e6572604082015260600190565b60208082526014908201527314d5149150534bd0d3d3919251d7d313d0d2d15160621b604082015260600190565b6020808252600690820152651313d0d2d15160d21b604082015260600190565b60006001600160401b0383811690831681811015613ae057613ae06139c4565b039392505050565b60006001600160401b03828116848216808303821115613b0a57613b0a6139c4565b01949350505050565b600060208284031215613b2557600080fd5b5051919050565b6000816000190483118215151615613b4657613b466139c4565b500290565b634e487b7160e01b600052601260045260246000fd5b600082613b7057613b70613b4b565b500490565b60006001600160401b0383811680613b8f57613b8f613b4b565b92169190910492915050565b6020808252601f908201527f5265656e7472616e637947756172643a207265656e7472616e742063616c6c00604082015260600190565b600060208284031215613be457600080fd5b815161156a81613529565b6001600160a01b03929092168252602082015260400190565b600060208284031215613c1a57600080fd5b8151801515811461156a57600080fd5b81835260006001600160fb1b03831115613c4357600080fd5b8260051b8083602087013760009401602001938452509192915050565b6040808252810184905260008560608301825b87811015613ca3578235613c8681613529565b6001600160a01b0316825260209283019290910190600101613c73565b508381036020850152613cb7818688613c2a565b98975050505050505050565b602081526000611554602083018486613c2a565b600060018060a01b038089168352808816602084015260a06040840152613d0260a084018789613c2a565b941660608301525060800152949350505050565b600082821015613d2857613d286139c4565b500390565b6020808252602e908201527f496e697469616c697a61626c653a20636f6e747261637420697320616c72656160408201526d191e481a5b9a5d1a585b1a5e995960921b606082015260800190565b6020808252602b908201527f496e697469616c697a61626c653a20636f6e7472616374206973206e6f74206960408201526a6e697469616c697a696e6760a81b606082015260800190565b60208082526016908201527529aa2922a0a697a727aa2faa27a5a2a72fa7aba722a960511b604082015260600190565b60208082526022908201527f53545245414d2f4d41585f5354414b455f4455524154494f4e5f455843454544604082015261115160f21b60608201526080019056fe455243373231204c6f636b6564205374616b696e6720456d697373696f6e2053747265616da26469706673582212201493a7311f4bbbef97462fd625b25aaff6c5b8d19863798e7feea835612ef67864736f6c63430008090033",
  "devdoc": {
    "author": "Flair (https://flair.finance)",
    "kind": "dev",
    "methods": {
      "owner()": {
        "details": "Returns the address of the current owner."
      },
      "renounceOwnership()": {
        "details": "Leaves the contract without owner. It will not be possible to call `onlyOwner` functions anymore. Can only be called by the current owner. NOTE: Renouncing ownership will leave the contract without an owner, thereby removing any functionality that is only available to the owner."
      },
      "supportsInterface(bytes4)": {
        "details": "See {IERC165-supportsInterface}."
      },
      "transferOwnership(address)": {
        "details": "Transfers ownership of the contract to a new account (`newOwner`). Can only be called by the current owner."
      }
    },
    "version": 1
  },
  "userdoc": {
    "kind": "user",
    "methods": {},
    "version": 1
  },
  "storageLayout": {
    "storage": [
      {
        "astId": 886,
        "contract": "contracts/streams/ERC721/presets/ERC721LockedStakingEmissionStream.sol:ERC721LockedStakingEmissionStream",
        "label": "_initialized",
        "offset": 0,
        "slot": "0",
        "type": "t_uint8"
      },
      {
        "astId": 889,
        "contract": "contracts/streams/ERC721/presets/ERC721LockedStakingEmissionStream.sol:ERC721LockedStakingEmissionStream",
        "label": "_initializing",
        "offset": 1,
        "slot": "0",
        "type": "t_bool"
      },
      {
        "astId": 782,
        "contract": "contracts/streams/ERC721/presets/ERC721LockedStakingEmissionStream.sol:ERC721LockedStakingEmissionStream",
        "label": "_owner",
        "offset": 2,
        "slot": "0",
        "type": "t_address"
      },
      {
        "astId": 4693,
        "contract": "contracts/streams/ERC721/presets/ERC721LockedStakingEmissionStream.sol:ERC721LockedStakingEmissionStream",
        "label": "_supportedInterfaces",
        "offset": 0,
        "slot": "1",
        "type": "t_mapping(t_bytes4,t_bool)"
      },
      {
        "astId": 1124,
        "contract": "contracts/streams/ERC721/presets/ERC721LockedStakingEmissionStream.sol:ERC721LockedStakingEmissionStream",
        "label": "_status",
        "offset": 0,
        "slot": "2",
        "type": "t_uint256"
      },
      {
        "astId": 15125,
        "contract": "contracts/streams/ERC721/presets/ERC721LockedStakingEmissionStream.sol:ERC721LockedStakingEmissionStream",
        "label": "ticketToken",
        "offset": 0,
        "slot": "3",
        "type": "t_address"
      },
      {
        "astId": 15127,
        "contract": "contracts/streams/ERC721/presets/ERC721LockedStakingEmissionStream.sol:ERC721LockedStakingEmissionStream",
        "label": "lockedUntilTimestamp",
        "offset": 20,
        "slot": "3",
        "type": "t_uint64"
      },
      {
        "astId": 15134,
        "contract": "contracts/streams/ERC721/presets/ERC721LockedStakingEmissionStream.sol:ERC721LockedStakingEmissionStream",
        "label": "entitlements",
        "offset": 0,
        "slot": "4",
        "type": "t_mapping(t_uint256,t_mapping(t_address,t_struct(Entitlement)15123_storage))"
      },
      {
        "astId": 15138,
        "contract": "contracts/streams/ERC721/presets/ERC721LockedStakingEmissionStream.sol:ERC721LockedStakingEmissionStream",
        "label": "_streamTotalClaimed",
        "offset": 0,
        "slot": "5",
        "type": "t_mapping(t_address,t_uint256)"
      },
      {
        "astId": 15864,
        "contract": "contracts/streams/ERC721/presets/ERC721LockedStakingEmissionStream.sol:ERC721LockedStakingEmissionStream",
        "label": "emissionRate",
        "offset": 0,
        "slot": "6",
        "type": "t_uint256"
      },
      {
        "astId": 15866,
        "contract": "contracts/streams/ERC721/presets/ERC721LockedStakingEmissionStream.sol:ERC721LockedStakingEmissionStream",
        "label": "emissionTimeUnit",
        "offset": 0,
        "slot": "7",
        "type": "t_uint64"
      },
      {
        "astId": 15868,
        "contract": "contracts/streams/ERC721/presets/ERC721LockedStakingEmissionStream.sol:ERC721LockedStakingEmissionStream",
        "label": "emissionStart",
        "offset": 8,
        "slot": "7",
        "type": "t_uint64"
      },
      {
        "astId": 15870,
        "contract": "contracts/streams/ERC721/presets/ERC721LockedStakingEmissionStream.sol:ERC721LockedStakingEmissionStream",
        "label": "emissionEnd",
        "offset": 16,
        "slot": "7",
        "type": "t_uint64"
      },
      {
        "astId": 16181,
        "contract": "contracts/streams/ERC721/presets/ERC721LockedStakingEmissionStream.sol:ERC721LockedStakingEmissionStream",
        "label": "totalTickets",
        "offset": 0,
        "slot": "8",
        "type": "t_uint256"
      },
      {
        "astId": 16943,
        "contract": "contracts/streams/ERC721/presets/ERC721LockedStakingEmissionStream.sol:ERC721LockedStakingEmissionStream",
        "label": "minStakingDuration",
        "offset": 0,
        "slot": "9",
        "type": "t_uint64"
      },
      {
        "astId": 16945,
        "contract": "contracts/streams/ERC721/presets/ERC721LockedStakingEmissionStream.sol:ERC721LockedStakingEmissionStream",
        "label": "maxStakingTotalDurations",
        "offset": 8,
        "slot": "9",
        "type": "t_uint64"
      },
      {
        "astId": 16949,
        "contract": "contracts/streams/ERC721/presets/ERC721LockedStakingEmissionStream.sol:ERC721LockedStakingEmissionStream",
        "label": "lastStakingTime",
        "offset": 0,
        "slot": "10",
        "type": "t_mapping(t_uint256,t_uint64)"
      },
      {
        "astId": 16953,
        "contract": "contracts/streams/ERC721/presets/ERC721LockedStakingEmissionStream.sol:ERC721LockedStakingEmissionStream",
        "label": "savedStakedDurations",
        "offset": 0,
        "slot": "11",
        "type": "t_mapping(t_uint256,t_uint64)"
      },
      {
        "astId": 16373,
        "contract": "contracts/streams/ERC721/presets/ERC721LockedStakingEmissionStream.sol:ERC721LockedStakingEmissionStream",
        "label": "claimLockedUntil",
        "offset": 0,
        "slot": "12",
        "type": "t_uint64"
      },
      {
        "astId": 13776,
        "contract": "contracts/streams/ERC721/presets/ERC721LockedStakingEmissionStream.sol:ERC721LockedStakingEmissionStream",
        "label": "withdrawRecipient",
        "offset": 8,
        "slot": "12",
        "type": "t_address"
      },
      {
        "astId": 13778,
        "contract": "contracts/streams/ERC721/presets/ERC721LockedStakingEmissionStream.sol:ERC721LockedStakingEmissionStream",
        "label": "withdrawRecipientLocked",
        "offset": 28,
        "slot": "12",
        "type": "t_bool"
      },
      {
        "astId": 13780,
        "contract": "contracts/streams/ERC721/presets/ERC721LockedStakingEmissionStream.sol:ERC721LockedStakingEmissionStream",
        "label": "withdrawPowerRevoked",
        "offset": 29,
        "slot": "12",
        "type": "t_bool"
      },
      {
        "astId": 13783,
        "contract": "contracts/streams/ERC721/presets/ERC721LockedStakingEmissionStream.sol:ERC721LockedStakingEmissionStream",
        "label": "withdrawMode",
        "offset": 30,
        "slot": "12",
        "type": "t_enum(WithdrawMode)13720"
      },
      {
        "astId": 13785,
        "contract": "contracts/streams/ERC721/presets/ERC721LockedStakingEmissionStream.sol:ERC721LockedStakingEmissionStream",
        "label": "withdrawModeLocked",
        "offset": 31,
        "slot": "12",
        "type": "t_bool"
      }
    ],
    "types": {
      "t_address": {
        "encoding": "inplace",
        "label": "address",
        "numberOfBytes": "20"
      },
      "t_bool": {
        "encoding": "inplace",
        "label": "bool",
        "numberOfBytes": "1"
      },
      "t_bytes4": {
        "encoding": "inplace",
        "label": "bytes4",
        "numberOfBytes": "4"
      },
      "t_enum(WithdrawMode)13720": {
        "encoding": "inplace",
        "label": "enum WithdrawMode",
        "numberOfBytes": "1"
      },
      "t_mapping(t_address,t_struct(Entitlement)15123_storage)": {
        "encoding": "mapping",
        "key": "t_address",
        "label": "mapping(address => struct ERC721MultiTokenStream.Entitlement)",
        "numberOfBytes": "32",
        "value": "t_struct(Entitlement)15123_storage"
      },
      "t_mapping(t_address,t_uint256)": {
        "encoding": "mapping",
        "key": "t_address",
        "label": "mapping(address => uint256)",
        "numberOfBytes": "32",
        "value": "t_uint256"
      },
      "t_mapping(t_bytes4,t_bool)": {
        "encoding": "mapping",
        "key": "t_bytes4",
        "label": "mapping(bytes4 => bool)",
        "numberOfBytes": "32",
        "value": "t_bool"
      },
      "t_mapping(t_uint256,t_mapping(t_address,t_struct(Entitlement)15123_storage))": {
        "encoding": "mapping",
        "key": "t_uint256",
        "label": "mapping(uint256 => mapping(address => struct ERC721MultiTokenStream.Entitlement))",
        "numberOfBytes": "32",
        "value": "t_mapping(t_address,t_struct(Entitlement)15123_storage)"
      },
      "t_mapping(t_uint256,t_uint64)": {
        "encoding": "mapping",
        "key": "t_uint256",
        "label": "mapping(uint256 => uint64)",
        "numberOfBytes": "32",
        "value": "t_uint64"
      },
      "t_struct(Entitlement)15123_storage": {
        "encoding": "inplace",
        "label": "struct ERC721MultiTokenStream.Entitlement",
        "members": [
          {
            "astId": 15120,
            "contract": "contracts/streams/ERC721/presets/ERC721LockedStakingEmissionStream.sol:ERC721LockedStakingEmissionStream",
            "label": "totalClaimed",
            "offset": 0,
            "slot": "0",
            "type": "t_uint256"
          },
          {
            "astId": 15122,
            "contract": "contracts/streams/ERC721/presets/ERC721LockedStakingEmissionStream.sol:ERC721LockedStakingEmissionStream",
            "label": "lastClaimedAt",
            "offset": 0,
            "slot": "1",
            "type": "t_uint256"
          }
        ],
        "numberOfBytes": "64"
      },
      "t_uint256": {
        "encoding": "inplace",
        "label": "uint256",
        "numberOfBytes": "32"
      },
      "t_uint64": {
        "encoding": "inplace",
        "label": "uint64",
        "numberOfBytes": "8"
      },
      "t_uint8": {
        "encoding": "inplace",
        "label": "uint8",
        "numberOfBytes": "1"
      }
    }
  }
}