{
  "address": "0xAd450761261B1C70C7583ff500D291E1A07EE495",
  "abi": [
    {
      "inputs": [
        {
          "components": [
            {
              "internalType": "string",
              "name": "name",
              "type": "string"
            },
            {
              "internalType": "string",
              "name": "symbol",
              "type": "string"
            }
          ],
          "internalType": "struct ERC20BasicToken.Config",
          "name": "config",
          "type": "tuple"
        }
      ],
      "stateMutability": "nonpayable",
      "type": "constructor"
    },
    {
      "anonymous": false,
      "inputs": [
        {
          "indexed": true,
          "internalType": "address",
          "name": "owner",
          "type": "address"
        },
        {
          "indexed": true,
          "internalType": "address",
          "name": "spender",
          "type": "address"
        },
        {
          "indexed": false,
          "internalType": "uint256",
          "name": "value",
          "type": "uint256"
        }
      ],
      "name": "Approval",
      "type": "event"
    },
    {
      "anonymous": false,
      "inputs": [
        {
          "indexed": false,
          "internalType": "uint8",
          "name": "version",
          "type": "uint8"
        }
      ],
      "name": "Initialized",
      "type": "event"
    },
    {
      "anonymous": false,
      "inputs": [
        {
          "indexed": false,
          "internalType": "address",
          "name": "account",
          "type": "address"
        }
      ],
      "name": "Paused",
      "type": "event"
    },
    {
      "anonymous": false,
      "inputs": [
        {
          "indexed": true,
          "internalType": "bytes32",
          "name": "role",
          "type": "bytes32"
        },
        {
          "indexed": true,
          "internalType": "bytes32",
          "name": "previousAdminRole",
          "type": "bytes32"
        },
        {
          "indexed": true,
          "internalType": "bytes32",
          "name": "newAdminRole",
          "type": "bytes32"
        }
      ],
      "name": "RoleAdminChanged",
      "type": "event"
    },
    {
      "anonymous": false,
      "inputs": [
        {
          "indexed": true,
          "internalType": "bytes32",
          "name": "role",
          "type": "bytes32"
        },
        {
          "indexed": true,
          "internalType": "address",
          "name": "account",
          "type": "address"
        },
        {
          "indexed": true,
          "internalType": "address",
          "name": "sender",
          "type": "address"
        }
      ],
      "name": "RoleGranted",
      "type": "event"
    },
    {
      "anonymous": false,
      "inputs": [
        {
          "indexed": true,
          "internalType": "bytes32",
          "name": "role",
          "type": "bytes32"
        },
        {
          "indexed": true,
          "internalType": "address",
          "name": "account",
          "type": "address"
        },
        {
          "indexed": true,
          "internalType": "address",
          "name": "sender",
          "type": "address"
        }
      ],
      "name": "RoleRevoked",
      "type": "event"
    },
    {
      "anonymous": false,
      "inputs": [
        {
          "indexed": true,
          "internalType": "address",
          "name": "from",
          "type": "address"
        },
        {
          "indexed": true,
          "internalType": "address",
          "name": "to",
          "type": "address"
        },
        {
          "indexed": false,
          "internalType": "uint256",
          "name": "value",
          "type": "uint256"
        }
      ],
      "name": "Transfer",
      "type": "event"
    },
    {
      "anonymous": false,
      "inputs": [
        {
          "indexed": false,
          "internalType": "address",
          "name": "account",
          "type": "address"
        }
      ],
      "name": "Unpaused",
      "type": "event"
    },
    {
      "inputs": [],
      "name": "DEFAULT_ADMIN_ROLE",
      "outputs": [
        {
          "internalType": "bytes32",
          "name": "",
          "type": "bytes32"
        }
      ],
      "stateMutability": "view",
      "type": "function"
    },
    {
      "inputs": [],
      "name": "MINTER_ROLE",
      "outputs": [
        {
          "internalType": "bytes32",
          "name": "",
          "type": "bytes32"
        }
      ],
      "stateMutability": "view",
      "type": "function"
    },
    {
      "inputs": [],
      "name": "PAUSER_ROLE",
      "outputs": [
        {
          "internalType": "bytes32",
          "name": "",
          "type": "bytes32"
        }
      ],
      "stateMutability": "view",
      "type": "function"
    },
    {
      "inputs": [
        {
          "internalType": "address",
          "name": "owner",
          "type": "address"
        },
        {
          "internalType": "address",
          "name": "spender",
          "type": "address"
        }
      ],
      "name": "allowance",
      "outputs": [
        {
          "internalType": "uint256",
          "name": "",
          "type": "uint256"
        }
      ],
      "stateMutability": "view",
      "type": "function"
    },
    {
      "inputs": [
        {
          "internalType": "address",
          "name": "spender",
          "type": "address"
        },
        {
          "internalType": "uint256",
          "name": "amount",
          "type": "uint256"
        }
      ],
      "name": "approve",
      "outputs": [
        {
          "internalType": "bool",
          "name": "",
          "type": "bool"
        }
      ],
      "stateMutability": "nonpayable",
      "type": "function"
    },
    {
      "inputs": [
        {
          "internalType": "address",
          "name": "account",
          "type": "address"
        }
      ],
      "name": "balanceOf",
      "outputs": [
        {
          "internalType": "uint256",
          "name": "",
          "type": "uint256"
        }
      ],
      "stateMutability": "view",
      "type": "function"
    },
    {
      "inputs": [
        {
          "internalType": "uint256",
          "name": "amount",
          "type": "uint256"
        }
      ],
      "name": "burn",
      "outputs": [],
      "stateMutability": "nonpayable",
      "type": "function"
    },
    {
      "inputs": [
        {
          "internalType": "address",
          "name": "account",
          "type": "address"
        },
        {
          "internalType": "uint256",
          "name": "amount",
          "type": "uint256"
        }
      ],
      "name": "burnFrom",
      "outputs": [],
      "stateMutability": "nonpayable",
      "type": "function"
    },
    {
      "inputs": [],
      "name": "decimals",
      "outputs": [
        {
          "internalType": "uint8",
          "name": "",
          "type": "uint8"
        }
      ],
      "stateMutability": "view",
      "type": "function"
    },
    {
      "inputs": [
        {
          "internalType": "address",
          "name": "spender",
          "type": "address"
        },
        {
          "internalType": "uint256",
          "name": "subtractedValue",
          "type": "uint256"
        }
      ],
      "name": "decreaseAllowance",
      "outputs": [
        {
          "internalType": "bool",
          "name": "",
          "type": "bool"
        }
      ],
      "stateMutability": "nonpayable",
      "type": "function"
    },
    {
      "inputs": [
        {
          "internalType": "bytes32",
          "name": "role",
          "type": "bytes32"
        }
      ],
      "name": "getRoleAdmin",
      "outputs": [
        {
          "internalType": "bytes32",
          "name": "",
          "type": "bytes32"
        }
      ],
      "stateMutability": "view",
      "type": "function"
    },
    {
      "inputs": [
        {
          "internalType": "bytes32",
          "name": "role",
          "type": "bytes32"
        },
        {
          "internalType": "address",
          "name": "account",
          "type": "address"
        }
      ],
      "name": "grantRole",
      "outputs": [],
      "stateMutability": "nonpayable",
      "type": "function"
    },
    {
      "inputs": [
        {
          "internalType": "bytes32",
          "name": "role",
          "type": "bytes32"
        },
        {
          "internalType": "address",
          "name": "account",
          "type": "address"
        }
      ],
      "name": "hasRole",
      "outputs": [
        {
          "internalType": "bool",
          "name": "",
          "type": "bool"
        }
      ],
      "stateMutability": "view",
      "type": "function"
    },
    {
      "inputs": [
        {
          "internalType": "address",
          "name": "spender",
          "type": "address"
        },
        {
          "internalType": "uint256",
          "name": "addedValue",
          "type": "uint256"
        }
      ],
      "name": "increaseAllowance",
      "outputs": [
        {
          "internalType": "bool",
          "name": "",
          "type": "bool"
        }
      ],
      "stateMutability": "nonpayable",
      "type": "function"
    },
    {
      "inputs": [
        {
          "components": [
            {
              "internalType": "string",
              "name": "name",
              "type": "string"
            },
            {
              "internalType": "string",
              "name": "symbol",
              "type": "string"
            }
          ],
          "internalType": "struct ERC20BasicToken.Config",
          "name": "config",
          "type": "tuple"
        },
        {
          "internalType": "address",
          "name": "deployer",
          "type": "address"
        }
      ],
      "name": "initialize",
      "outputs": [],
      "stateMutability": "nonpayable",
      "type": "function"
    },
    {
      "inputs": [
        {
          "internalType": "address",
          "name": "to",
          "type": "address"
        },
        {
          "internalType": "uint256",
          "name": "amount",
          "type": "uint256"
        }
      ],
      "name": "mint",
      "outputs": [],
      "stateMutability": "nonpayable",
      "type": "function"
    },
    {
      "inputs": [],
      "name": "name",
      "outputs": [
        {
          "internalType": "string",
          "name": "",
          "type": "string"
        }
      ],
      "stateMutability": "view",
      "type": "function"
    },
    {
      "inputs": [],
      "name": "pause",
      "outputs": [],
      "stateMutability": "nonpayable",
      "type": "function"
    },
    {
      "inputs": [],
      "name": "paused",
      "outputs": [
        {
          "internalType": "bool",
          "name": "",
          "type": "bool"
        }
      ],
      "stateMutability": "view",
      "type": "function"
    },
    {
      "inputs": [
        {
          "internalType": "bytes32",
          "name": "role",
          "type": "bytes32"
        },
        {
          "internalType": "address",
          "name": "account",
          "type": "address"
        }
      ],
      "name": "renounceRole",
      "outputs": [],
      "stateMutability": "nonpayable",
      "type": "function"
    },
    {
      "inputs": [
        {
          "internalType": "bytes32",
          "name": "role",
          "type": "bytes32"
        },
        {
          "internalType": "address",
          "name": "account",
          "type": "address"
        }
      ],
      "name": "revokeRole",
      "outputs": [],
      "stateMutability": "nonpayable",
      "type": "function"
    },
    {
      "inputs": [
        {
          "internalType": "bytes4",
          "name": "interfaceId",
          "type": "bytes4"
        }
      ],
      "name": "supportsInterface",
      "outputs": [
        {
          "internalType": "bool",
          "name": "",
          "type": "bool"
        }
      ],
      "stateMutability": "view",
      "type": "function"
    },
    {
      "inputs": [],
      "name": "symbol",
      "outputs": [
        {
          "internalType": "string",
          "name": "",
          "type": "string"
        }
      ],
      "stateMutability": "view",
      "type": "function"
    },
    {
      "inputs": [],
      "name": "totalSupply",
      "outputs": [
        {
          "internalType": "uint256",
          "name": "",
          "type": "uint256"
        }
      ],
      "stateMutability": "view",
      "type": "function"
    },
    {
      "inputs": [
        {
          "internalType": "address",
          "name": "to",
          "type": "address"
        },
        {
          "internalType": "uint256",
          "name": "amount",
          "type": "uint256"
        }
      ],
      "name": "transfer",
      "outputs": [
        {
          "internalType": "bool",
          "name": "",
          "type": "bool"
        }
      ],
      "stateMutability": "nonpayable",
      "type": "function"
    },
    {
      "inputs": [
        {
          "internalType": "address",
          "name": "from",
          "type": "address"
        },
        {
          "internalType": "address",
          "name": "to",
          "type": "address"
        },
        {
          "internalType": "uint256",
          "name": "amount",
          "type": "uint256"
        }
      ],
      "name": "transferFrom",
      "outputs": [
        {
          "internalType": "bool",
          "name": "",
          "type": "bool"
        }
      ],
      "stateMutability": "nonpayable",
      "type": "function"
    },
    {
      "inputs": [],
      "name": "unpause",
      "outputs": [],
      "stateMutability": "nonpayable",
      "type": "function"
    }
  ],
  "transactionHash": "0x2f9d5233e54501cb305a7ade78a16a6c41bff91f3b42f889d15501e4d339e506",
  "args": [
    {
      "name": "Token",
      "symbol": "TKN"
    }
  ],
  "numDeployments": 1,
  "solcInputHash": "b4e41c71547365416a59b3966c49faa3",
  "bytecode": "0x60806040523480156200001157600080fd5b5060405162001d4938038062001d49833981016040819052620000349162000476565b8051602080830151825190916200005191600491850190620002f2565b50805162000067906005906020840190620002f2565b50506006805460ff191690555062000080813362000087565b50620005b3565b600062000095600162000191565b90508015620000ae576000805461ff0019166101001790555b82518051620000c691600891602090910190620002f2565b506020808401518051620000df926009920190620002f2565b50620000ed6000836200023e565b620001197f65d7a28e3265b37a6474929f336521b332c1681b933f6cb9f3376673440d862a836200023e565b620001457f9f2df0fed2c77648de5860a4cc508cd0818c85b8b8a1ab4ceeef8d981c8956a6836200023e565b80156200018c576000805461ff0019169055604051600181527f7f26b83ff96e1f2b6a682f133852f6798a09c465da95921460cefb38474024989060200160405180910390a15b505050565b60008054610100900460ff1615620001fa578160ff166001148015620001ca5750620001c830620002e360201b6200078e1760201c565b155b620001f25760405162461bcd60e51b8152600401620001e99062000528565b60405180910390fd5b506000919050565b60005460ff808416911610620002245760405162461bcd60e51b8152600401620001e99062000528565b506000805460ff191660ff92909216919091179055600190565b60008281526007602090815260408083206001600160a01b038516845290915290205460ff16620002df5760008281526007602090815260408083206001600160a01b03851684529091529020805460ff191660011790556200029e3390565b6001600160a01b0316816001600160a01b0316837f2f8788117e7eff1d82e926ec794901d17c78024a50270940304540a733656f0d60405160405180910390a45b5050565b6001600160a01b03163b151590565b828054620003009062000576565b90600052602060002090601f0160209004810192826200032457600085556200036f565b82601f106200033f57805160ff19168380011785556200036f565b828001600101855582156200036f579182015b828111156200036f57825182559160200191906001019062000352565b506200037d92915062000381565b5090565b5b808211156200037d576000815560010162000382565b634e487b7160e01b600052604160045260246000fd5b604051601f8201601f191681016001600160401b0381118282101715620003d957620003d962000398565b604052919050565b600082601f830112620003f357600080fd5b81516001600160401b038111156200040f576200040f62000398565b602062000425601f8301601f19168201620003ae565b82815285828487010111156200043a57600080fd5b60005b838110156200045a5785810183015182820184015282016200043d565b838111156200046c5760008385840101525b5095945050505050565b6000602082840312156200048957600080fd5b81516001600160401b0380821115620004a157600080fd5b9083019060408286031215620004b657600080fd5b604051604081018181108382111715620004d457620004d462000398565b604052825182811115620004e757600080fd5b620004f587828601620003e1565b8252506020830151828111156200050b57600080fd5b6200051987828601620003e1565b60208301525095945050505050565b6020808252602e908201527f496e697469616c697a61626c653a20636f6e747261637420697320616c72656160408201526d191e481a5b9a5d1a585b1a5e995960921b606082015260800190565b600181811c908216806200058b57607f821691505b60208210811415620005ad57634e487b7160e01b600052602260045260246000fd5b50919050565b61178680620005c36000396000f3fe608060405234801561001057600080fd5b50600436106101495760003560e01c806301ffc9a71461014e57806306fdde0314610176578063095ea7b31461018b57806318160ddd1461019e57806323b872dd146101b0578063248a9ca3146101c35780632f2ff15d146101d6578063313ce567146101eb57806336568abe146101fa578063395093511461020d5780633f4ba83a1461022057806340c10f191461022857806342966c681461023b5780635539160f1461024e5780635c975abb1461026157806370a082311461026c57806379cc6790146102955780638456cb59146102a857806391d14854146102b057806395d89b41146102c3578063a217fddf146102cb578063a457c2d7146102d3578063a9059cbb146102e6578063d5391393146102f9578063d547741f1461030e578063dd62ed3e14610321578063e63ab1e914610334575b600080fd5b61016161015c36600461125b565b610349565b60405190151581526020015b60405180910390f35b61017e610380565b60405161016d91906112b1565b6101616101993660046112fb565b610412565b6003545b60405190815260200161016d565b6101616101be366004611325565b61042a565b6101a26101d1366004611361565b61044e565b6101e96101e436600461137a565b610463565b005b6040516012815260200161016d565b6101e961020836600461137a565b610484565b61016161021b3660046112fb565b610507565b6101e9610529565b6101e96102363660046112fb565b61054c565b6101e9610249366004611361565b61056e565b6101e961025c366004611448565b610578565b60065460ff16610161565b6101a261027a3660046114f8565b6001600160a01b031660009081526001602052604090205490565b6101e96102a33660046112fb565b61064f565b6101e9610664565b6101616102be36600461137a565b610684565b61017e6106af565b6101a2600081565b6101616102e13660046112fb565b6106be565b6101616102f43660046112fb565b610739565b6101a260008051602061171183398151915281565b6101e961031c36600461137a565b610747565b6101a261032f366004611513565b610763565b6101a26000805160206116f183398151915281565b60006001600160e01b03198216637965db0b60e01b148061037a57506301ffc9a760e01b6001600160e01b03198316145b92915050565b60606008805461038f9061153d565b80601f01602080910402602001604051908101604052809291908181526020018280546103bb9061153d565b80156104085780601f106103dd57610100808354040283529160200191610408565b820191906000526020600020905b8154815290600101906020018083116103eb57829003601f168201915b5050505050905090565b60003361042081858561079d565b5060019392505050565b6000336104388582856108c1565b61044385858561093b565b506001949350505050565b60009081526007602052604090206001015490565b61046c8261044e565b61047581610b02565b61047f8383610b0c565b505050565b6001600160a01b03811633146104f95760405162461bcd60e51b815260206004820152602f60248201527f416363657373436f6e74726f6c3a2063616e206f6e6c792072656e6f756e636560448201526e103937b632b9903337b91039b2b63360891b60648201526084015b60405180910390fd5b6105038282610b92565b5050565b60003361042081858561051a8383610763565b610524919061158e565b61079d565b6000805160206116f183398151915261054181610b02565b610549610bf9565b50565b60008051602061171183398151915261056481610b02565b61047f8383610c8c565b6105493382610d65565b60006105846001610ead565b9050801561059c576000805461ff0019166101001790555b825180516105b2916008916020909101906111c2565b5060208084015180516105c99260099201906111c2565b506105d5600083610b0c565b6105ed6000805160206116f183398151915283610b0c565b61060560008051602061171183398151915283610b0c565b801561047f576000805461ff0019169055604051600181527f7f26b83ff96e1f2b6a682f133852f6798a09c465da95921460cefb38474024989060200160405180910390a1505050565b61065a8233836108c1565b6105038282610d65565b6000805160206116f183398151915261067c81610b02565b610549610f41565b60009182526007602090815260408084206001600160a01b0393909316845291905290205460ff1690565b60606009805461038f9061153d565b600033816106cc8286610763565b90508381101561072c5760405162461bcd60e51b815260206004820152602560248201527f45524332303a2064656372656173656420616c6c6f77616e63652062656c6f77604482015264207a65726f60d81b60648201526084016104f0565b610443828686840361079d565b60003361042081858561093b565b6107508261044e565b61075981610b02565b61047f8383610b92565b6001600160a01b03918216600090815260026020908152604080832093909416825291909152205490565b6001600160a01b03163b151590565b6001600160a01b0383166107ff5760405162461bcd60e51b8152602060048201526024808201527f45524332303a20617070726f76652066726f6d20746865207a65726f206164646044820152637265737360e01b60648201526084016104f0565b6001600160a01b0382166108605760405162461bcd60e51b815260206004820152602260248201527f45524332303a20617070726f766520746f20746865207a65726f206164647265604482015261737360f01b60648201526084016104f0565b6001600160a01b0383811660008181526002602090815260408083209487168084529482529182902085905590518481527f8c5be1e5ebec7d5bd14f71427d1e84f3dd0314c0f7b2291e5b200ac8c7c3b925910160405180910390a3505050565b60006108cd8484610763565b9050600019811461093557818110156109285760405162461bcd60e51b815260206004820152601d60248201527f45524332303a20696e73756666696369656e7420616c6c6f77616e636500000060448201526064016104f0565b610935848484840361079d565b50505050565b6001600160a01b03831661099f5760405162461bcd60e51b815260206004820152602560248201527f45524332303a207472616e736665722066726f6d20746865207a65726f206164604482015264647265737360d81b60648201526084016104f0565b6001600160a01b038216610a015760405162461bcd60e51b815260206004820152602360248201527f45524332303a207472616e7366657220746f20746865207a65726f206164647260448201526265737360e81b60648201526084016104f0565b610a0c838383610f99565b6001600160a01b03831660009081526001602052604090205481811015610a845760405162461bcd60e51b815260206004820152602660248201527f45524332303a207472616e7366657220616d6f756e7420657863656564732062604482015265616c616e636560d01b60648201526084016104f0565b6001600160a01b03808516600090815260016020526040808220858503905591851681529081208054849290610abb90849061158e565b92505081905550826001600160a01b0316846001600160a01b031660008051602061173183398151915284604051610af591815260200190565b60405180910390a3610935565b6105498133610fbc565b610b168282610684565b6105035760008281526007602090815260408083206001600160a01b03851684529091529020805460ff19166001179055610b4e3390565b6001600160a01b0316816001600160a01b0316837f2f8788117e7eff1d82e926ec794901d17c78024a50270940304540a733656f0d60405160405180910390a45050565b610b9c8282610684565b156105035760008281526007602090815260408083206001600160a01b0385168085529252808320805460ff1916905551339285917ff6391f5c32d9c69d2a47ea670b442974b53935d1edc7fd64eb21e047a839171b9190a45050565b60065460ff16610c425760405162461bcd60e51b815260206004820152601460248201527314185d5cd8589b194e881b9bdd081c185d5cd95960621b60448201526064016104f0565b6006805460ff191690557f5db9ee0a495bf2e6ff9c91a7834c1ba4fdd244a5e8aa4e537bd38aeae4b073aa335b6040516001600160a01b03909116815260200160405180910390a1565b6001600160a01b038216610ce25760405162461bcd60e51b815260206004820152601f60248201527f45524332303a206d696e7420746f20746865207a65726f20616464726573730060448201526064016104f0565b610cee60008383610f99565b8060036000828254610d00919061158e565b90915550506001600160a01b03821660009081526001602052604081208054839290610d2d90849061158e565b90915550506040518181526001600160a01b038316906000906000805160206117318339815191529060200160405180910390a35050565b6001600160a01b038216610dc55760405162461bcd60e51b815260206004820152602160248201527f45524332303a206275726e2066726f6d20746865207a65726f206164647265736044820152607360f81b60648201526084016104f0565b610dd182600083610f99565b6001600160a01b03821660009081526001602052604090205481811015610e455760405162461bcd60e51b815260206004820152602260248201527f45524332303a206275726e20616d6f756e7420657863656564732062616c616e604482015261636560f01b60648201526084016104f0565b6001600160a01b0383166000908152600160205260408120838303905560038054849290610e749084906115a6565b90915550506040518281526000906001600160a01b038516906000805160206117318339815191529060200160405180910390a3505050565b60008054610100900460ff1615610efb578160ff166001148015610ed75750610ed53061078e565b155b610ef35760405162461bcd60e51b81526004016104f0906115bd565b506000919050565b60005460ff808416911610610f225760405162461bcd60e51b81526004016104f0906115bd565b506000805460ff191660ff92909216919091179055600190565b919050565b60065460ff1615610f645760405162461bcd60e51b81526004016104f09061160b565b6006805460ff191660011790557f62e78cea01bee320cd4e420270b5ea74000d11b0c9f74754ebdbfc544b05a258610c6f3390565b60065460ff161561047f5760405162461bcd60e51b81526004016104f09061160b565b610fc68282610684565b61050357610fde816001600160a01b03166014611020565b610fe9836020611020565b604051602001610ffa929190611635565b60408051601f198184030181529082905262461bcd60e51b82526104f0916004016112b1565b6060600061102f8360026116a4565b61103a90600261158e565b6001600160401b03811115611051576110516113a6565b6040519080825280601f01601f19166020018201604052801561107b576020820181803683370190505b509050600360fc1b81600081518110611096576110966116c3565b60200101906001600160f81b031916908160001a905350600f60fb1b816001815181106110c5576110c56116c3565b60200101906001600160f81b031916908160001a90535060006110e98460026116a4565b6110f490600161158e565b90505b600181111561116c576f181899199a1a9b1b9c1cb0b131b232b360811b85600f1660108110611128576111286116c3565b1a60f81b82828151811061113e5761113e6116c3565b60200101906001600160f81b031916908160001a90535060049490941c93611165816116d9565b90506110f7565b5083156111bb5760405162461bcd60e51b815260206004820181905260248201527f537472696e67733a20686578206c656e67746820696e73756666696369656e7460448201526064016104f0565b9392505050565b8280546111ce9061153d565b90600052602060002090601f0160209004810192826111f05760008555611236565b82601f1061120957805160ff1916838001178555611236565b82800160010185558215611236579182015b8281111561123657825182559160200191906001019061121b565b50611242929150611246565b5090565b5b808211156112425760008155600101611247565b60006020828403121561126d57600080fd5b81356001600160e01b0319811681146111bb57600080fd5b60005b838110156112a0578181015183820152602001611288565b838111156109355750506000910152565b60208152600082518060208401526112d0816040850160208701611285565b601f01601f19169190910160400192915050565b80356001600160a01b0381168114610f3c57600080fd5b6000806040838503121561130e57600080fd5b611317836112e4565b946020939093013593505050565b60008060006060848603121561133a57600080fd5b611343846112e4565b9250611351602085016112e4565b9150604084013590509250925092565b60006020828403121561137357600080fd5b5035919050565b6000806040838503121561138d57600080fd5b8235915061139d602084016112e4565b90509250929050565b634e487b7160e01b600052604160045260246000fd5b600082601f8301126113cd57600080fd5b81356001600160401b03808211156113e7576113e76113a6565b604051601f8301601f19908116603f0116810190828211818310171561140f5761140f6113a6565b8160405283815286602085880101111561142857600080fd5b836020870160208301376000602085830101528094505050505092915050565b6000806040838503121561145b57600080fd5b82356001600160401b038082111561147257600080fd5b908401906040828703121561148657600080fd5b6040516040810181811083821117156114a1576114a16113a6565b6040528235828111156114b357600080fd5b6114bf888286016113bc565b8252506020830135828111156114d457600080fd5b6114e0888286016113bc565b60208301525080945050505061139d602084016112e4565b60006020828403121561150a57600080fd5b6111bb826112e4565b6000806040838503121561152657600080fd5b61152f836112e4565b915061139d602084016112e4565b600181811c9082168061155157607f821691505b6020821081141561157257634e487b7160e01b600052602260045260246000fd5b50919050565b634e487b7160e01b600052601160045260246000fd5b600082198211156115a1576115a1611578565b500190565b6000828210156115b8576115b8611578565b500390565b6020808252602e908201527f496e697469616c697a61626c653a20636f6e747261637420697320616c72656160408201526d191e481a5b9a5d1a585b1a5e995960921b606082015260800190565b60208082526010908201526f14185d5cd8589b194e881c185d5cd95960821b604082015260600190565b76020b1b1b2b9b9a1b7b73a3937b61d1030b1b1b7bab73a1604d1b815260008351611667816017850160208801611285565b7001034b99036b4b9b9b4b733903937b6329607d1b6017918401918201528351611698816028840160208801611285565b01602801949350505050565b60008160001904831182151516156116be576116be611578565b500290565b634e487b7160e01b600052603260045260246000fd5b6000816116e8576116e8611578565b50600019019056fe65d7a28e3265b37a6474929f336521b332c1681b933f6cb9f3376673440d862a9f2df0fed2c77648de5860a4cc508cd0818c85b8b8a1ab4ceeef8d981c8956a6ddf252ad1be2c89b69c2b068fc378daa952ba7f163c4a11628f55a4df523b3efa2646970667358221220161083fdf5f0404c7949a1c69709c5b303480ce0f91343cb1d143f9dbe79aefd64736f6c63430008090033",
  "devdoc": {
    "kind": "dev",
    "methods": {
      "allowance(address,address)": {
        "details": "See {IERC20-allowance}."
      },
      "approve(address,uint256)": {
        "details": "See {IERC20-approve}. NOTE: If `amount` is the maximum `uint256`, the allowance is not updated on `transferFrom`. This is semantically equivalent to an infinite approval. Requirements: - `spender` cannot be the zero address."
      },
      "balanceOf(address)": {
        "details": "See {IERC20-balanceOf}."
      },
      "burn(uint256)": {
        "details": "Destroys `amount` tokens from the caller. See {ERC20-_burn}."
      },
      "burnFrom(address,uint256)": {
        "details": "Destroys `amount` tokens from `account`, deducting from the caller's allowance. See {ERC20-_burn} and {ERC20-allowance}. Requirements: - the caller must have allowance for ``accounts``'s tokens of at least `amount`."
      },
      "decimals()": {
        "details": "Returns the number of decimals used to get its user representation. For example, if `decimals` equals `2`, a balance of `505` tokens should be displayed to a user as `5.05` (`505 / 10 ** 2`). Tokens usually opt for a value of 18, imitating the relationship between Ether and Wei. This is the value {ERC20} uses, unless this function is overridden; NOTE: This information is only used for _display_ purposes: it in no way affects any of the arithmetic of the contract, including {IERC20-balanceOf} and {IERC20-transfer}."
      },
      "decreaseAllowance(address,uint256)": {
        "details": "Atomically decreases the allowance granted to `spender` by the caller. This is an alternative to {approve} that can be used as a mitigation for problems described in {IERC20-approve}. Emits an {Approval} event indicating the updated allowance. Requirements: - `spender` cannot be the zero address. - `spender` must have allowance for the caller of at least `subtractedValue`."
      },
      "getRoleAdmin(bytes32)": {
        "details": "Returns the admin role that controls `role`. See {grantRole} and {revokeRole}. To change a role's admin, use {_setRoleAdmin}."
      },
      "grantRole(bytes32,address)": {
        "details": "Grants `role` to `account`. If `account` had not been already granted `role`, emits a {RoleGranted} event. Requirements: - the caller must have ``role``'s admin role."
      },
      "hasRole(bytes32,address)": {
        "details": "Returns `true` if `account` has been granted `role`."
      },
      "increaseAllowance(address,uint256)": {
        "details": "Atomically increases the allowance granted to `spender` by the caller. This is an alternative to {approve} that can be used as a mitigation for problems described in {IERC20-approve}. Emits an {Approval} event indicating the updated allowance. Requirements: - `spender` cannot be the zero address."
      },
      "name()": {
        "details": "Returns the name of the token."
      },
      "paused()": {
        "details": "Returns true if the contract is paused, and false otherwise."
      },
      "renounceRole(bytes32,address)": {
        "details": "Revokes `role` from the calling account. Roles are often managed via {grantRole} and {revokeRole}: this function's purpose is to provide a mechanism for accounts to lose their privileges if they are compromised (such as when a trusted device is misplaced). If the calling account had been revoked `role`, emits a {RoleRevoked} event. Requirements: - the caller must be `account`."
      },
      "revokeRole(bytes32,address)": {
        "details": "Revokes `role` from `account`. If `account` had been granted `role`, emits a {RoleRevoked} event. Requirements: - the caller must have ``role``'s admin role."
      },
      "supportsInterface(bytes4)": {
        "details": "See {IERC165-supportsInterface}."
      },
      "symbol()": {
        "details": "Returns the symbol of the token, usually a shorter version of the name."
      },
      "totalSupply()": {
        "details": "See {IERC20-totalSupply}."
      },
      "transfer(address,uint256)": {
        "details": "See {IERC20-transfer}. Requirements: - `to` cannot be the zero address. - the caller must have a balance of at least `amount`."
      },
      "transferFrom(address,address,uint256)": {
        "details": "See {IERC20-transferFrom}. Emits an {Approval} event indicating the updated allowance. This is not required by the EIP. See the note at the beginning of {ERC20}. NOTE: Does not update the allowance if the current allowance is the maximum `uint256`. Requirements: - `from` and `to` cannot be the zero address. - `from` must have a balance of at least `amount`. - the caller must have allowance for ``from``'s tokens of at least `amount`."
      }
    },
    "version": 1
  },
  "userdoc": {
    "kind": "user",
    "methods": {},
    "version": 1
  },
  "storageLayout": {
    "storage": [
      {
        "astId": 886,
        "contract": "contracts/tokens/presets/ERC20BasicToken.sol:ERC20BasicToken",
        "label": "_initialized",
        "offset": 0,
        "slot": "0",
        "type": "t_uint8"
      },
      {
        "astId": 889,
        "contract": "contracts/tokens/presets/ERC20BasicToken.sol:ERC20BasicToken",
        "label": "_initializing",
        "offset": 1,
        "slot": "0",
        "type": "t_bool"
      },
      {
        "astId": 1169,
        "contract": "contracts/tokens/presets/ERC20BasicToken.sol:ERC20BasicToken",
        "label": "_balances",
        "offset": 0,
        "slot": "1",
        "type": "t_mapping(t_address,t_uint256)"
      },
      {
        "astId": 1175,
        "contract": "contracts/tokens/presets/ERC20BasicToken.sol:ERC20BasicToken",
        "label": "_allowances",
        "offset": 0,
        "slot": "2",
        "type": "t_mapping(t_address,t_mapping(t_address,t_uint256))"
      },
      {
        "astId": 1177,
        "contract": "contracts/tokens/presets/ERC20BasicToken.sol:ERC20BasicToken",
        "label": "_totalSupply",
        "offset": 0,
        "slot": "3",
        "type": "t_uint256"
      },
      {
        "astId": 1179,
        "contract": "contracts/tokens/presets/ERC20BasicToken.sol:ERC20BasicToken",
        "label": "_name",
        "offset": 0,
        "slot": "4",
        "type": "t_string_storage"
      },
      {
        "astId": 1181,
        "contract": "contracts/tokens/presets/ERC20BasicToken.sol:ERC20BasicToken",
        "label": "_symbol",
        "offset": 0,
        "slot": "5",
        "type": "t_string_storage"
      },
      {
        "astId": 1039,
        "contract": "contracts/tokens/presets/ERC20BasicToken.sol:ERC20BasicToken",
        "label": "_paused",
        "offset": 0,
        "slot": "6",
        "type": "t_bool"
      },
      {
        "astId": 406,
        "contract": "contracts/tokens/presets/ERC20BasicToken.sol:ERC20BasicToken",
        "label": "_roles",
        "offset": 0,
        "slot": "7",
        "type": "t_mapping(t_bytes32,t_struct(RoleData)401_storage)"
      },
      {
        "astId": 15051,
        "contract": "contracts/tokens/presets/ERC20BasicToken.sol:ERC20BasicToken",
        "label": "_name",
        "offset": 0,
        "slot": "8",
        "type": "t_string_storage"
      },
      {
        "astId": 15053,
        "contract": "contracts/tokens/presets/ERC20BasicToken.sol:ERC20BasicToken",
        "label": "_symbol",
        "offset": 0,
        "slot": "9",
        "type": "t_string_storage"
      }
    ],
    "types": {
      "t_address": {
        "encoding": "inplace",
        "label": "address",
        "numberOfBytes": "20"
      },
      "t_bool": {
        "encoding": "inplace",
        "label": "bool",
        "numberOfBytes": "1"
      },
      "t_bytes32": {
        "encoding": "inplace",
        "label": "bytes32",
        "numberOfBytes": "32"
      },
      "t_mapping(t_address,t_bool)": {
        "encoding": "mapping",
        "key": "t_address",
        "label": "mapping(address => bool)",
        "numberOfBytes": "32",
        "value": "t_bool"
      },
      "t_mapping(t_address,t_mapping(t_address,t_uint256))": {
        "encoding": "mapping",
        "key": "t_address",
        "label": "mapping(address => mapping(address => uint256))",
        "numberOfBytes": "32",
        "value": "t_mapping(t_address,t_uint256)"
      },
      "t_mapping(t_address,t_uint256)": {
        "encoding": "mapping",
        "key": "t_address",
        "label": "mapping(address => uint256)",
        "numberOfBytes": "32",
        "value": "t_uint256"
      },
      "t_mapping(t_bytes32,t_struct(RoleData)401_storage)": {
        "encoding": "mapping",
        "key": "t_bytes32",
        "label": "mapping(bytes32 => struct AccessControl.RoleData)",
        "numberOfBytes": "32",
        "value": "t_struct(RoleData)401_storage"
      },
      "t_string_storage": {
        "encoding": "bytes",
        "label": "string",
        "numberOfBytes": "32"
      },
      "t_struct(RoleData)401_storage": {
        "encoding": "inplace",
        "label": "struct AccessControl.RoleData",
        "members": [
          {
            "astId": 398,
            "contract": "contracts/tokens/presets/ERC20BasicToken.sol:ERC20BasicToken",
            "label": "members",
            "offset": 0,
            "slot": "0",
            "type": "t_mapping(t_address,t_bool)"
          },
          {
            "astId": 400,
            "contract": "contracts/tokens/presets/ERC20BasicToken.sol:ERC20BasicToken",
            "label": "adminRole",
            "offset": 0,
            "slot": "1",
            "type": "t_bytes32"
          }
        ],
        "numberOfBytes": "64"
      },
      "t_uint256": {
        "encoding": "inplace",
        "label": "uint256",
        "numberOfBytes": "32"
      },
      "t_uint8": {
        "encoding": "inplace",
        "label": "uint8",
        "numberOfBytes": "1"
      }
    }
  }
}