{
  "address": "0xA2474D51D29079aa55e6FD6Ee97FFCa63f1f3661",
  "abi": [
    {
      "anonymous": false,
      "inputs": [
        {
          "indexed": false,
          "internalType": "uint8",
          "name": "version",
          "type": "uint8"
        }
      ],
      "name": "Initialized",
      "type": "event"
    },
    {
      "anonymous": false,
      "inputs": [
        {
          "indexed": true,
          "internalType": "address",
          "name": "previousOwner",
          "type": "address"
        },
        {
          "indexed": true,
          "internalType": "address",
          "name": "newOwner",
          "type": "address"
        }
      ],
      "name": "OwnershipTransferred",
      "type": "event"
    },
    {
      "anonymous": false,
      "inputs": [
        {
          "indexed": true,
          "internalType": "address",
          "name": "deployer",
          "type": "address"
        },
        {
          "indexed": true,
          "internalType": "address",
          "name": "proxyAddress",
          "type": "address"
        }
      ],
      "name": "ProxyCreated",
      "type": "event"
    },
    {
      "inputs": [
        {
          "internalType": "address",
          "name": "implementation",
          "type": "address"
        },
        {
          "internalType": "bytes32",
          "name": "salt",
          "type": "bytes32"
        },
        {
          "internalType": "bytes",
          "name": "data",
          "type": "bytes"
        }
      ],
      "name": "cloneDeterministicSimple",
      "outputs": [
        {
          "internalType": "address",
          "name": "deployedProxy",
          "type": "address"
        }
      ],
      "stateMutability": "payable",
      "type": "function"
    },
    {
      "inputs": [],
      "name": "owner",
      "outputs": [
        {
          "internalType": "address",
          "name": "",
          "type": "address"
        }
      ],
      "stateMutability": "view",
      "type": "function"
    },
    {
      "inputs": [
        {
          "internalType": "address",
          "name": "implementation",
          "type": "address"
        },
        {
          "internalType": "bytes32",
          "name": "salt",
          "type": "bytes32"
        }
      ],
      "name": "predictDeterministicSimple",
      "outputs": [
        {
          "internalType": "address",
          "name": "deployedProxy",
          "type": "address"
        }
      ],
      "stateMutability": "view",
      "type": "function"
    },
    {
      "inputs": [],
      "name": "renounceOwnership",
      "outputs": [],
      "stateMutability": "nonpayable",
      "type": "function"
    },
    {
      "inputs": [
        {
          "internalType": "address",
          "name": "newOwner",
          "type": "address"
        }
      ],
      "name": "transferOwnership",
      "outputs": [],
      "stateMutability": "nonpayable",
      "type": "function"
    },
    {
      "inputs": [],
      "name": "withdraw",
      "outputs": [],
      "stateMutability": "nonpayable",
      "type": "function"
    }
  ],
  "transactionHash": "0xc41cc819e64cb6bbe3ab9c589331da5dfd3515a8604ed180e0f21aaeb241ca68",
  "args": [],
  "numDeployments": 1,
  "solcInputHash": "bd924e81b959edc830ca5e48147a41a3",
  "bytecode": "0x608060405234801561001057600080fd5b5061001a3361001f565b61007a565b600080546001600160a01b038381166201000081810262010000600160b01b0319851617855560405193049190911692909183917f8be0079c531659141344cd1fd0a4f28419497f9722a3daafe3b4186f6b6457e091a35050565b610803806100896000396000f3fe6080604052600436106100655760003560e01c8063715018a611610043578063715018a6146100d05780638da5cb5b146100e5578063f2fde38b1461010957600080fd5b806310db94b91461006a5780633ccfd60b146100a657806347791ece146100bd575b600080fd5b34801561007657600080fd5b5061008a6100853660046106f1565b610129565b6040516001600160a01b03909116815260200160405180910390f35b3480156100b257600080fd5b506100bb61017d565b005b61008a6100cb36600461071b565b6101ab565b3480156100dc57600080fd5b506100bb610307565b3480156100f157600080fd5b506000546201000090046001600160a01b031661008a565b34801561011557600080fd5b506100bb6101243660046107a2565b610319565b6040516bffffffffffffffffffffffff193360601b16602082015260348101829052600090819060540160405160208183030381529060405280519060200120905061017584826103a9565b949350505050565b6101a94761019a6000546001600160a01b03620100009091041690565b6001600160a01b03169061042e565b565b6040516bffffffffffffffffffffffff193360601b1660208201526034810184905260009081906054016040516020818303038152906040528051906020012090506101f7868261054c565b915082156102c857600080836001600160a01b0316868660405161021c9291906107bd565b6000604051808303816000865af19150503d8060008114610259576040519150601f19603f3d011682016040523d82523d6000602084013e61025e565b606091505b5091509150816102c5578051156102785780518082602001fd5b60405162461bcd60e51b815260206004820152600f60248201527f4641494c45445f544f5f434c4f4e45000000000000000000000000000000000060448201526064015b60405180910390fd5b50505b6040516001600160a01b0383169033907f9678a1e87ca9f1a37dc659a97b39d812d98cd236947e1b53b3d0d6fd346acb6e90600090a350949350505050565b61030f610603565b6101a96000610664565b610321610603565b6001600160a01b03811661039d5760405162461bcd60e51b815260206004820152602660248201527f4f776e61626c653a206e6577206f776e657220697320746865207a65726f206160448201527f646472657373000000000000000000000000000000000000000000000000000060648201526084016102bc565b6103a681610664565b50565b60006104258383306040517f3d602d80600a3d3981f3363d3d373d3d3d363d730000000000000000000000008152606093841b60148201527f5af43d82803e903d91602b57fd5bf3ff000000000000000000000000000000006028820152921b6038830152604c8201526037808220606c830152605591012090565b90505b92915050565b8047101561047e5760405162461bcd60e51b815260206004820152601d60248201527f416464726573733a20696e73756666696369656e742062616c616e636500000060448201526064016102bc565b6000826001600160a01b03168260405160006040518083038185875af1925050503d80600081146104cb576040519150601f19603f3d011682016040523d82523d6000602084013e6104d0565b606091505b50509050806105475760405162461bcd60e51b815260206004820152603a60248201527f416464726573733a20756e61626c6520746f2073656e642076616c75652c207260448201527f6563697069656e74206d6179206861766520726576657274656400000000000060648201526084016102bc565b505050565b60006040517f3d602d80600a3d3981f3363d3d373d3d3d363d7300000000000000000000000081528360601b60148201527f5af43d82803e903d91602b57fd5bf300000000000000000000000000000000006028820152826037826000f59150506001600160a01b0381166104285760405162461bcd60e51b815260206004820152601760248201527f455243313136373a2063726561746532206661696c656400000000000000000060448201526064016102bc565b6000546001600160a01b03620100009091041633146101a95760405162461bcd60e51b815260206004820181905260248201527f4f776e61626c653a2063616c6c6572206973206e6f7420746865206f776e657260448201526064016102bc565b600080546001600160a01b03838116620100008181027fffffffffffffffffffff0000000000000000000000000000000000000000ffff851617855560405193049190911692909183917f8be0079c531659141344cd1fd0a4f28419497f9722a3daafe3b4186f6b6457e091a35050565b80356001600160a01b03811681146106ec57600080fd5b919050565b6000806040838503121561070457600080fd5b61070d836106d5565b946020939093013593505050565b6000806000806060858703121561073157600080fd5b61073a856106d5565b935060208501359250604085013567ffffffffffffffff8082111561075e57600080fd5b818701915087601f83011261077257600080fd5b81358181111561078157600080fd5b88602082850101111561079357600080fd5b95989497505060200194505050565b6000602082840312156107b457600080fd5b610425826106d5565b818382376000910190815291905056fea2646970667358221220fba0f9ec80186c11f98a6c2292f305aa112c181bce644ea855a7c196e148a9d264736f6c634300080f0033",
  "devdoc": {
    "kind": "dev",
    "methods": {
      "owner()": {
        "details": "Returns the address of the current owner."
      },
      "renounceOwnership()": {
        "details": "Leaves the contract without owner. It will not be possible to call `onlyOwner` functions anymore. Can only be called by the current owner. NOTE: Renouncing ownership will leave the contract without an owner, thereby removing any functionality that is only available to the owner."
      },
      "transferOwnership(address)": {
        "details": "Transfers ownership of the contract to a new account (`newOwner`). Can only be called by the current owner."
      }
    },
    "version": 1
  },
  "userdoc": {
    "kind": "user",
    "methods": {},
    "version": 1
  },
  "storageLayout": {
    "storage": [
      {
        "astId": 316,
        "contract": "src/factory/FlairFactory.sol:FlairFactory",
        "label": "_initialized",
        "offset": 0,
        "slot": "0",
        "type": "t_uint8"
      },
      {
        "astId": 319,
        "contract": "src/factory/FlairFactory.sol:FlairFactory",
        "label": "_initializing",
        "offset": 1,
        "slot": "0",
        "type": "t_bool"
      },
      {
        "astId": 152,
        "contract": "src/factory/FlairFactory.sol:FlairFactory",
        "label": "_owner",
        "offset": 2,
        "slot": "0",
        "type": "t_address"
      }
    ],
    "types": {
      "t_address": {
        "encoding": "inplace",
        "label": "address",
        "numberOfBytes": "20"
      },
      "t_bool": {
        "encoding": "inplace",
        "label": "bool",
        "numberOfBytes": "1"
      },
      "t_uint8": {
        "encoding": "inplace",
        "label": "uint8",
        "numberOfBytes": "1"
      }
    }
  }
}