{
  "address": "0xeeFF78D0184C338E5379F7B16EFbc9Ba3Ae0B42E",
  "abi": [
    {
      "inputs": [],
      "name": "baseURI",
      "outputs": [
        {
          "internalType": "string",
          "name": "",
          "type": "string"
        }
      ],
      "stateMutability": "view",
      "type": "function"
    },
    {
      "inputs": [],
      "name": "baseURILocked",
      "outputs": [
        {
          "internalType": "bool",
          "name": "",
          "type": "bool"
        }
      ],
      "stateMutability": "view",
      "type": "function"
    },
    {
      "inputs": [],
      "name": "fallbackURI",
      "outputs": [
        {
          "internalType": "string",
          "name": "",
          "type": "string"
        }
      ],
      "stateMutability": "view",
      "type": "function"
    },
    {
      "inputs": [],
      "name": "fallbackURILocked",
      "outputs": [
        {
          "internalType": "bool",
          "name": "",
          "type": "bool"
        }
      ],
      "stateMutability": "view",
      "type": "function"
    },
    {
      "inputs": [],
      "name": "lastUnlockedTokenId",
      "outputs": [
        {
          "internalType": "uint256",
          "name": "",
          "type": "uint256"
        }
      ],
      "stateMutability": "view",
      "type": "function"
    },
    {
      "inputs": [],
      "name": "uriSuffix",
      "outputs": [
        {
          "internalType": "string",
          "name": "",
          "type": "string"
        }
      ],
      "stateMutability": "view",
      "type": "function"
    },
    {
      "inputs": [],
      "name": "uriSuffixLocked",
      "outputs": [
        {
          "internalType": "bool",
          "name": "",
          "type": "bool"
        }
      ],
      "stateMutability": "view",
      "type": "function"
    }
  ],
  "transactionHash": "0x1bbd23c189913cd4c4999a6aaafb16573dc413f2cd8b2a9e9e6e0f9168207a26",
  "args": [],
  "numDeployments": 1,
  "solcInputHash": "bd924e81b959edc830ca5e48147a41a3",
  "bytecode": "0x608060405234801561001057600080fd5b50610357806100206000396000f3fe608060405234801561001057600080fd5b506004361061007d5760003560e01c80635d148e5c1161005b5780635d148e5c146100da5780636c0360eb14610104578063c4ef3e051461010c578063f81680da1461013657600080fd5b8063067f0848146100825780630c7d9752146100bd5780635503a0e8146100d2575b600080fd5b7f021fe373f7e014154d4f551c37c047b9ed9093c774291911030896b9b2dfef625460ff165b60405190151581526020015b60405180910390f35b6100c5610166565b6040516100b49190610279565b6100c561021a565b7f021fe373f7e014154d4f551c37c047b9ed9093c774291911030896b9b2dfef605460ff166100a8565b6100c561024b565b7f021fe373f7e014154d4f551c37c047b9ed9093c774291911030896b9b2dfef645460ff166100a8565b7f021fe373f7e014154d4f551c37c047b9ed9093c774291911030896b9b2dfef65546040519081526020016100b4565b60607f021fe373f7e014154d4f551c37c047b9ed9093c774291911030896b9b2dfef5f6002018054610197906102ce565b80601f01602080910402602001604051908101604052809291908181526020018280546101c3906102ce565b80156102105780601f106101e557610100808354040283529160200191610210565b820191906000526020600020905b8154815290600101906020018083116101f357829003601f168201915b5050505050905090565b60607f021fe373f7e014154d4f551c37c047b9ed9093c774291911030896b9b2dfef5f6004018054610197906102ce565b60607f021fe373f7e014154d4f551c37c047b9ed9093c774291911030896b9b2dfef5f8054610197906102ce565b600060208083528351808285015260005b818110156102a65785810183015185820160400152820161028a565b818111156102b8576000604083870101525b50601f01601f1916929092016040019392505050565b600181811c908216806102e257607f821691505b60208210810361031b577f4e487b7100000000000000000000000000000000000000000000000000000000600052602260045260246000fd5b5091905056fea2646970667358221220d2597b5517dabdb626208be526c797c8ac154b0762c2d83b7f9d03a5bce0907564736f6c634300080f0033",
  "devdoc": {
    "custom:category": "NFTs",
    "custom:provides-interfaces": "ITokenMetadata",
    "custom:type": "eip-2535-facet",
    "kind": "dev",
    "methods": {},
    "title": "NFT Token Metadata",
    "version": 1
  },
  "userdoc": {
    "kind": "user",
    "methods": {},
    "notice": "Provides common functions for various NFT metadata standards. This extension supports base URI, per-token URI, and a fallback URI. You can also freeze URIs until a certain token ID.",
    "version": 1
  },
  "storageLayout": {
    "storage": [],
    "types": null
  }
}