{
  "address": "0x2759c16F06B07D3Aaea777223068295A0938fe69",
  "abi": [
    {
      "inputs": [
        {
          "components": [
            {
              "internalType": "string",
              "name": "name",
              "type": "string"
            },
            {
              "internalType": "string",
              "name": "symbol",
              "type": "string"
            },
            {
              "internalType": "string",
              "name": "contractURI",
              "type": "string"
            },
            {
              "internalType": "uint256",
              "name": "maxSupply",
              "type": "uint256"
            },
            {
              "internalType": "address",
              "name": "defaultRoyaltyAddress",
              "type": "address"
            },
            {
              "internalType": "uint16",
              "name": "defaultRoyaltyBps",
              "type": "uint16"
            },
            {
              "internalType": "address",
              "name": "trustedForwarder",
              "type": "address"
            }
          ],
          "internalType": "struct ERC721OneOfOneCollection.Config",
          "name": "config",
          "type": "tuple"
        }
      ],
      "stateMutability": "nonpayable",
      "type": "constructor"
    },
    {
      "anonymous": false,
      "inputs": [
        {
          "indexed": true,
          "internalType": "address",
          "name": "owner",
          "type": "address"
        },
        {
          "indexed": true,
          "internalType": "address",
          "name": "approved",
          "type": "address"
        },
        {
          "indexed": true,
          "internalType": "uint256",
          "name": "tokenId",
          "type": "uint256"
        }
      ],
      "name": "Approval",
      "type": "event"
    },
    {
      "anonymous": false,
      "inputs": [
        {
          "indexed": true,
          "internalType": "address",
          "name": "owner",
          "type": "address"
        },
        {
          "indexed": true,
          "internalType": "address",
          "name": "operator",
          "type": "address"
        },
        {
          "indexed": false,
          "internalType": "bool",
          "name": "approved",
          "type": "bool"
        }
      ],
      "name": "ApprovalForAll",
      "type": "event"
    },
    {
      "anonymous": false,
      "inputs": [
        {
          "indexed": false,
          "internalType": "address",
          "name": "recipient",
          "type": "address"
        },
        {
          "indexed": false,
          "internalType": "uint16",
          "name": "bps",
          "type": "uint16"
        }
      ],
      "name": "DefaultRoyaltySet",
      "type": "event"
    },
    {
      "anonymous": false,
      "inputs": [
        {
          "indexed": false,
          "internalType": "uint8",
          "name": "version",
          "type": "uint8"
        }
      ],
      "name": "Initialized",
      "type": "event"
    },
    {
      "anonymous": false,
      "inputs": [
        {
          "indexed": true,
          "internalType": "address",
          "name": "previousOwner",
          "type": "address"
        },
        {
          "indexed": true,
          "internalType": "address",
          "name": "newOwner",
          "type": "address"
        }
      ],
      "name": "OwnershipTransferred",
      "type": "event"
    },
    {
      "anonymous": false,
      "inputs": [
        {
          "indexed": true,
          "internalType": "bytes32",
          "name": "role",
          "type": "bytes32"
        },
        {
          "indexed": true,
          "internalType": "bytes32",
          "name": "previousAdminRole",
          "type": "bytes32"
        },
        {
          "indexed": true,
          "internalType": "bytes32",
          "name": "newAdminRole",
          "type": "bytes32"
        }
      ],
      "name": "RoleAdminChanged",
      "type": "event"
    },
    {
      "anonymous": false,
      "inputs": [
        {
          "indexed": true,
          "internalType": "bytes32",
          "name": "role",
          "type": "bytes32"
        },
        {
          "indexed": true,
          "internalType": "address",
          "name": "account",
          "type": "address"
        },
        {
          "indexed": true,
          "internalType": "address",
          "name": "sender",
          "type": "address"
        }
      ],
      "name": "RoleGranted",
      "type": "event"
    },
    {
      "anonymous": false,
      "inputs": [
        {
          "indexed": true,
          "internalType": "bytes32",
          "name": "role",
          "type": "bytes32"
        },
        {
          "indexed": true,
          "internalType": "address",
          "name": "account",
          "type": "address"
        },
        {
          "indexed": true,
          "internalType": "address",
          "name": "sender",
          "type": "address"
        }
      ],
      "name": "RoleRevoked",
      "type": "event"
    },
    {
      "anonymous": false,
      "inputs": [
        {
          "indexed": false,
          "internalType": "uint256",
          "name": "tokenId",
          "type": "uint256"
        }
      ],
      "name": "TokenRoyaltyRemoved",
      "type": "event"
    },
    {
      "anonymous": false,
      "inputs": [
        {
          "indexed": false,
          "internalType": "uint256",
          "name": "tokenId",
          "type": "uint256"
        },
        {
          "indexed": false,
          "internalType": "address",
          "name": "recipient",
          "type": "address"
        },
        {
          "indexed": false,
          "internalType": "uint16",
          "name": "bps",
          "type": "uint16"
        }
      ],
      "name": "TokenRoyaltySet",
      "type": "event"
    },
    {
      "anonymous": false,
      "inputs": [
        {
          "indexed": true,
          "internalType": "address",
          "name": "from",
          "type": "address"
        },
        {
          "indexed": true,
          "internalType": "address",
          "name": "to",
          "type": "address"
        },
        {
          "indexed": true,
          "internalType": "uint256",
          "name": "tokenId",
          "type": "uint256"
        }
      ],
      "name": "Transfer",
      "type": "event"
    },
    {
      "inputs": [],
      "name": "DEFAULT_ADMIN_ROLE",
      "outputs": [
        {
          "internalType": "bytes32",
          "name": "",
          "type": "bytes32"
        }
      ],
      "stateMutability": "view",
      "type": "function"
    },
    {
      "inputs": [],
      "name": "MINTER_ROLE",
      "outputs": [
        {
          "internalType": "bytes32",
          "name": "",
          "type": "bytes32"
        }
      ],
      "stateMutability": "view",
      "type": "function"
    },
    {
      "inputs": [],
      "name": "_trustedForwarder",
      "outputs": [
        {
          "internalType": "address",
          "name": "",
          "type": "address"
        }
      ],
      "stateMutability": "view",
      "type": "function"
    },
    {
      "inputs": [
        {
          "internalType": "address",
          "name": "to",
          "type": "address"
        },
        {
          "internalType": "uint256",
          "name": "tokenId",
          "type": "uint256"
        }
      ],
      "name": "approve",
      "outputs": [],
      "stateMutability": "nonpayable",
      "type": "function"
    },
    {
      "inputs": [
        {
          "internalType": "address",
          "name": "owner",
          "type": "address"
        }
      ],
      "name": "balanceOf",
      "outputs": [
        {
          "internalType": "uint256",
          "name": "",
          "type": "uint256"
        }
      ],
      "stateMutability": "view",
      "type": "function"
    },
    {
      "inputs": [],
      "name": "contractURI",
      "outputs": [
        {
          "internalType": "string",
          "name": "",
          "type": "string"
        }
      ],
      "stateMutability": "view",
      "type": "function"
    },
    {
      "inputs": [],
      "name": "defaultRoyalty",
      "outputs": [
        {
          "internalType": "address",
          "name": "recipient",
          "type": "address"
        },
        {
          "internalType": "uint16",
          "name": "bps",
          "type": "uint16"
        }
      ],
      "stateMutability": "view",
      "type": "function"
    },
    {
      "inputs": [],
      "name": "freezeMaxSupply",
      "outputs": [],
      "stateMutability": "nonpayable",
      "type": "function"
    },
    {
      "inputs": [
        {
          "internalType": "uint256",
          "name": "_lastFrozenTokenId",
          "type": "uint256"
        }
      ],
      "name": "freezeTokenURIs",
      "outputs": [],
      "stateMutability": "nonpayable",
      "type": "function"
    },
    {
      "inputs": [
        {
          "internalType": "uint256",
          "name": "tokenId",
          "type": "uint256"
        }
      ],
      "name": "getApproved",
      "outputs": [
        {
          "internalType": "address",
          "name": "",
          "type": "address"
        }
      ],
      "stateMutability": "view",
      "type": "function"
    },
    {
      "inputs": [],
      "name": "getInfo",
      "outputs": [
        {
          "internalType": "uint256",
          "name": "_maxSupply",
          "type": "uint256"
        },
        {
          "internalType": "uint256",
          "name": "_totalSupply",
          "type": "uint256"
        },
        {
          "internalType": "uint256",
          "name": "_senderBalance",
          "type": "uint256"
        }
      ],
      "stateMutability": "view",
      "type": "function"
    },
    {
      "inputs": [
        {
          "internalType": "uint256",
          "name": "id",
          "type": "uint256"
        }
      ],
      "name": "getRaribleV2Royalties",
      "outputs": [
        {
          "components": [
            {
              "internalType": "address payable",
              "name": "account",
              "type": "address"
            },
            {
              "internalType": "uint96",
              "name": "value",
              "type": "uint96"
            }
          ],
          "internalType": "struct LibPart.Part[]",
          "name": "result",
          "type": "tuple[]"
        }
      ],
      "stateMutability": "view",
      "type": "function"
    },
    {
      "inputs": [
        {
          "internalType": "bytes32",
          "name": "role",
          "type": "bytes32"
        }
      ],
      "name": "getRoleAdmin",
      "outputs": [
        {
          "internalType": "bytes32",
          "name": "",
          "type": "bytes32"
        }
      ],
      "stateMutability": "view",
      "type": "function"
    },
    {
      "inputs": [],
      "name": "getTokenRoyaltiesCount",
      "outputs": [
        {
          "internalType": "uint256",
          "name": "",
          "type": "uint256"
        }
      ],
      "stateMutability": "view",
      "type": "function"
    },
    {
      "inputs": [
        {
          "internalType": "uint256",
          "name": "index",
          "type": "uint256"
        }
      ],
      "name": "getTokenRoyaltyByIndex",
      "outputs": [
        {
          "components": [
            {
              "internalType": "uint256",
              "name": "tokenId",
              "type": "uint256"
            },
            {
              "internalType": "address",
              "name": "recipient",
              "type": "address"
            },
            {
              "internalType": "uint16",
              "name": "bps",
              "type": "uint16"
            }
          ],
          "internalType": "struct IEIP2981RoyaltyOverride.TokenRoyaltyConfig",
          "name": "",
          "type": "tuple"
        }
      ],
      "stateMutability": "view",
      "type": "function"
    },
    {
      "inputs": [
        {
          "internalType": "bytes32",
          "name": "role",
          "type": "bytes32"
        },
        {
          "internalType": "address",
          "name": "account",
          "type": "address"
        }
      ],
      "name": "grantRole",
      "outputs": [],
      "stateMutability": "nonpayable",
      "type": "function"
    },
    {
      "inputs": [
        {
          "internalType": "bytes32",
          "name": "role",
          "type": "bytes32"
        },
        {
          "internalType": "address",
          "name": "account",
          "type": "address"
        }
      ],
      "name": "hasRole",
      "outputs": [
        {
          "internalType": "bool",
          "name": "",
          "type": "bool"
        }
      ],
      "stateMutability": "view",
      "type": "function"
    },
    {
      "inputs": [
        {
          "components": [
            {
              "internalType": "string",
              "name": "name",
              "type": "string"
            },
            {
              "internalType": "string",
              "name": "symbol",
              "type": "string"
            },
            {
              "internalType": "string",
              "name": "contractURI",
              "type": "string"
            },
            {
              "internalType": "uint256",
              "name": "maxSupply",
              "type": "uint256"
            },
            {
              "internalType": "address",
              "name": "defaultRoyaltyAddress",
              "type": "address"
            },
            {
              "internalType": "uint16",
              "name": "defaultRoyaltyBps",
              "type": "uint16"
            },
            {
              "internalType": "address",
              "name": "trustedForwarder",
              "type": "address"
            }
          ],
          "internalType": "struct ERC721OneOfOneCollection.Config",
          "name": "config",
          "type": "tuple"
        },
        {
          "internalType": "address",
          "name": "deployer",
          "type": "address"
        }
      ],
      "name": "initialize",
      "outputs": [],
      "stateMutability": "nonpayable",
      "type": "function"
    },
    {
      "inputs": [
        {
          "internalType": "address",
          "name": "owner",
          "type": "address"
        },
        {
          "internalType": "address",
          "name": "operator",
          "type": "address"
        }
      ],
      "name": "isApprovedForAll",
      "outputs": [
        {
          "internalType": "bool",
          "name": "",
          "type": "bool"
        }
      ],
      "stateMutability": "view",
      "type": "function"
    },
    {
      "inputs": [
        {
          "internalType": "address",
          "name": "forwarder",
          "type": "address"
        }
      ],
      "name": "isTrustedForwarder",
      "outputs": [
        {
          "internalType": "bool",
          "name": "",
          "type": "bool"
        }
      ],
      "stateMutability": "view",
      "type": "function"
    },
    {
      "inputs": [],
      "name": "lastFrozenTokenId",
      "outputs": [
        {
          "internalType": "uint256",
          "name": "",
          "type": "uint256"
        }
      ],
      "stateMutability": "view",
      "type": "function"
    },
    {
      "inputs": [],
      "name": "maxSupply",
      "outputs": [
        {
          "internalType": "uint256",
          "name": "",
          "type": "uint256"
        }
      ],
      "stateMutability": "view",
      "type": "function"
    },
    {
      "inputs": [],
      "name": "maxSupplyFrozen",
      "outputs": [
        {
          "internalType": "bool",
          "name": "",
          "type": "bool"
        }
      ],
      "stateMutability": "view",
      "type": "function"
    },
    {
      "inputs": [
        {
          "internalType": "address",
          "name": "to",
          "type": "address"
        },
        {
          "internalType": "uint256",
          "name": "count",
          "type": "uint256"
        }
      ],
      "name": "mintByOwner",
      "outputs": [],
      "stateMutability": "nonpayable",
      "type": "function"
    },
    {
      "inputs": [
        {
          "internalType": "address",
          "name": "to",
          "type": "address"
        },
        {
          "internalType": "uint256",
          "name": "count",
          "type": "uint256"
        },
        {
          "internalType": "string[]",
          "name": "tokenURIs",
          "type": "string[]"
        }
      ],
      "name": "mintWithTokenURIsByOwner",
      "outputs": [],
      "stateMutability": "nonpayable",
      "type": "function"
    },
    {
      "inputs": [
        {
          "internalType": "address",
          "name": "to",
          "type": "address"
        },
        {
          "internalType": "uint256",
          "name": "count",
          "type": "uint256"
        },
        {
          "internalType": "string[]",
          "name": "tokenURIs",
          "type": "string[]"
        }
      ],
      "name": "mintWithTokenURIsByRole",
      "outputs": [],
      "stateMutability": "nonpayable",
      "type": "function"
    },
    {
      "inputs": [],
      "name": "name",
      "outputs": [
        {
          "internalType": "string",
          "name": "",
          "type": "string"
        }
      ],
      "stateMutability": "view",
      "type": "function"
    },
    {
      "inputs": [],
      "name": "owner",
      "outputs": [
        {
          "internalType": "address",
          "name": "",
          "type": "address"
        }
      ],
      "stateMutability": "view",
      "type": "function"
    },
    {
      "inputs": [
        {
          "internalType": "uint256",
          "name": "tokenId",
          "type": "uint256"
        }
      ],
      "name": "ownerOf",
      "outputs": [
        {
          "internalType": "address",
          "name": "",
          "type": "address"
        }
      ],
      "stateMutability": "view",
      "type": "function"
    },
    {
      "inputs": [],
      "name": "renounceOwnership",
      "outputs": [],
      "stateMutability": "nonpayable",
      "type": "function"
    },
    {
      "inputs": [
        {
          "internalType": "bytes32",
          "name": "role",
          "type": "bytes32"
        },
        {
          "internalType": "address",
          "name": "account",
          "type": "address"
        }
      ],
      "name": "renounceRole",
      "outputs": [],
      "stateMutability": "nonpayable",
      "type": "function"
    },
    {
      "inputs": [
        {
          "internalType": "bytes32",
          "name": "role",
          "type": "bytes32"
        },
        {
          "internalType": "address",
          "name": "account",
          "type": "address"
        }
      ],
      "name": "revokeRole",
      "outputs": [],
      "stateMutability": "nonpayable",
      "type": "function"
    },
    {
      "inputs": [
        {
          "internalType": "uint256",
          "name": "tokenId",
          "type": "uint256"
        },
        {
          "internalType": "uint256",
          "name": "value",
          "type": "uint256"
        }
      ],
      "name": "royaltyInfo",
      "outputs": [
        {
          "internalType": "address",
          "name": "",
          "type": "address"
        },
        {
          "internalType": "uint256",
          "name": "",
          "type": "uint256"
        }
      ],
      "stateMutability": "view",
      "type": "function"
    },
    {
      "inputs": [
        {
          "internalType": "address",
          "name": "from",
          "type": "address"
        },
        {
          "internalType": "address",
          "name": "to",
          "type": "address"
        },
        {
          "internalType": "uint256",
          "name": "tokenId",
          "type": "uint256"
        }
      ],
      "name": "safeTransferFrom",
      "outputs": [],
      "stateMutability": "nonpayable",
      "type": "function"
    },
    {
      "inputs": [
        {
          "internalType": "address",
          "name": "from",
          "type": "address"
        },
        {
          "internalType": "address",
          "name": "to",
          "type": "address"
        },
        {
          "internalType": "uint256",
          "name": "tokenId",
          "type": "uint256"
        },
        {
          "internalType": "bytes",
          "name": "_data",
          "type": "bytes"
        }
      ],
      "name": "safeTransferFrom",
      "outputs": [],
      "stateMutability": "nonpayable",
      "type": "function"
    },
    {
      "inputs": [
        {
          "internalType": "address",
          "name": "operator",
          "type": "address"
        },
        {
          "internalType": "bool",
          "name": "approved",
          "type": "bool"
        }
      ],
      "name": "setApprovalForAll",
      "outputs": [],
      "stateMutability": "nonpayable",
      "type": "function"
    },
    {
      "inputs": [
        {
          "internalType": "string",
          "name": "newValue",
          "type": "string"
        }
      ],
      "name": "setContractURI",
      "outputs": [],
      "stateMutability": "nonpayable",
      "type": "function"
    },
    {
      "inputs": [
        {
          "components": [
            {
              "internalType": "address",
              "name": "recipient",
              "type": "address"
            },
            {
              "internalType": "uint16",
              "name": "bps",
              "type": "uint16"
            }
          ],
          "internalType": "struct IEIP2981RoyaltyOverride.TokenRoyalty",
          "name": "royalty",
          "type": "tuple"
        }
      ],
      "name": "setDefaultRoyalty",
      "outputs": [],
      "stateMutability": "nonpayable",
      "type": "function"
    },
    {
      "inputs": [
        {
          "internalType": "uint256",
          "name": "newValue",
          "type": "uint256"
        }
      ],
      "name": "setMaxSupply",
      "outputs": [],
      "stateMutability": "nonpayable",
      "type": "function"
    },
    {
      "inputs": [
        {
          "components": [
            {
              "internalType": "uint256",
              "name": "tokenId",
              "type": "uint256"
            },
            {
              "internalType": "address",
              "name": "recipient",
              "type": "address"
            },
            {
              "internalType": "uint16",
              "name": "bps",
              "type": "uint16"
            }
          ],
          "internalType": "struct IEIP2981RoyaltyOverride.TokenRoyaltyConfig[]",
          "name": "royaltyConfigs",
          "type": "tuple[]"
        }
      ],
      "name": "setTokenRoyalties",
      "outputs": [],
      "stateMutability": "nonpayable",
      "type": "function"
    },
    {
      "inputs": [
        {
          "internalType": "uint256",
          "name": "tokenId",
          "type": "uint256"
        },
        {
          "internalType": "string",
          "name": "tokenURI",
          "type": "string"
        }
      ],
      "name": "setTokenURI",
      "outputs": [],
      "stateMutability": "nonpayable",
      "type": "function"
    },
    {
      "inputs": [
        {
          "internalType": "address",
          "name": "trustedForwarder",
          "type": "address"
        }
      ],
      "name": "setTrustedForwarder",
      "outputs": [],
      "stateMutability": "nonpayable",
      "type": "function"
    },
    {
      "inputs": [
        {
          "internalType": "bytes4",
          "name": "interfaceId",
          "type": "bytes4"
        }
      ],
      "name": "supportsInterface",
      "outputs": [
        {
          "internalType": "bool",
          "name": "",
          "type": "bool"
        }
      ],
      "stateMutability": "view",
      "type": "function"
    },
    {
      "inputs": [],
      "name": "symbol",
      "outputs": [
        {
          "internalType": "string",
          "name": "",
          "type": "string"
        }
      ],
      "stateMutability": "view",
      "type": "function"
    },
    {
      "inputs": [
        {
          "internalType": "uint256",
          "name": "_tokenId",
          "type": "uint256"
        }
      ],
      "name": "tokenURI",
      "outputs": [
        {
          "internalType": "string",
          "name": "",
          "type": "string"
        }
      ],
      "stateMutability": "view",
      "type": "function"
    },
    {
      "inputs": [],
      "name": "totalSupply",
      "outputs": [
        {
          "internalType": "uint256",
          "name": "",
          "type": "uint256"
        }
      ],
      "stateMutability": "view",
      "type": "function"
    },
    {
      "inputs": [
        {
          "internalType": "address",
          "name": "from",
          "type": "address"
        },
        {
          "internalType": "address",
          "name": "to",
          "type": "address"
        },
        {
          "internalType": "uint256",
          "name": "tokenId",
          "type": "uint256"
        }
      ],
      "name": "transferFrom",
      "outputs": [],
      "stateMutability": "nonpayable",
      "type": "function"
    },
    {
      "inputs": [
        {
          "internalType": "address",
          "name": "newOwner",
          "type": "address"
        }
      ],
      "name": "transferOwnership",
      "outputs": [],
      "stateMutability": "nonpayable",
      "type": "function"
    }
  ],
  "transactionHash": "0x08f291644c6228c3d00459ee4464403d55c8d136657ac4473ecd507e13ae56bd",
  "args": [
    {
      "name": "Collection",
      "symbol": "COL",
      "contractURI": "ipfs://contractURI",
      "maxSupply": 0,
      "defaultRoyaltyAddress": "0x0000000000000000000000000000000000000000",
      "defaultRoyaltyBps": 0,
      "trustedForwarder": "0x0000000000000000000000000000000000000000"
    }
  ],
  "numDeployments": 6,
  "solcInputHash": "db704ba0987a61a5a207234a2424761a",
  "bytecode": "0x60806040526000600e553480156200001657600080fd5b506040516200471238038062004712833981016040819052620000399162000b3c565b80516020820151620000546200004e6200009b565b620000b7565b81516200006990600390602085019062000962565b5080516200007f90600490602084019062000962565b5050506200009481336200011260201b60201c565b5062000d17565b6000620000b26200023a60201b620015ae1760201c565b905090565b600080546001600160a01b038381166201000081810262010000600160b01b0319851617855560405193049190911692909183917f8be0079c531659141344cd1fd0a4f28419497f9722a3daafe3b4186f6b6457e091a35050565b600062000120600162000273565b9050801562000139576000805461ff0019166101001790555b6200014660008362000325565b620001727f9f2df0fed2c77648de5860a4cc508cd0818c85b8b8a1ab4ceeef8d981c8956a68362000325565b6200017d82620000b7565b8251602084015160408501516200019692919062000335565b620001a06200036c565b620001aa620003a2565b620001b4620003d6565b6060830151620001c4906200040a565b620001de83608001518460a001516200044260201b60201c565b60c0830151620001ee9062000478565b801562000235576000805461ff0019169055604051600181527f7f26b83ff96e1f2b6a682f133852f6798a09c465da95921460cefb38474024989060200160405180910390a15b505050565b6015546000906001600160a01b03163314156200025e575060131936013560601c90565b620000b2620004ad60201b620015d01760201c565b60008054610100900460ff1615620002dc578160ff166001148015620002ac5750620002aa30620004b160201b620015d41760201c565b155b620002d45760405162461bcd60e51b8152600401620002cb9062000c41565b60405180910390fd5b506000919050565b60005460ff808416911610620003065760405162461bcd60e51b8152600401620002cb9062000c41565b506000805460ff191660ff92909216919091179055600190565b919050565b620003318282620004c0565b5050565b600054610100900460ff166200035f5760405162461bcd60e51b8152600401620002cb9062000c8f565b6200023583838362000566565b600054610100900460ff16620003965760405162461bcd60e51b8152600401620002cb9062000c8f565b620003a062000608565b565b600054610100900460ff16620003cc5760405162461bcd60e51b8152600401620002cb9062000c8f565b620003a062000644565b600054610100900460ff16620004005760405162461bcd60e51b8152600401620002cb9062000c8f565b620003a062000680565b600054610100900460ff16620004345760405162461bcd60e51b8152600401620002cb9062000c8f565b6200043f81620006bc565b50565b600054610100900460ff166200046c5760405162461bcd60e51b8152600401620002cb9062000c8f565b6200033182826200070f565b600054610100900460ff16620004a25760405162461bcd60e51b8152600401620002cb9062000c8f565b6200043f81620007ac565b3390565b6001600160a01b03163b151590565b60008281526002602090815260408083206001600160a01b038516845290915290205460ff16620003315760008281526002602090815260408083206001600160a01b03851684529091529020805460ff19166001179055620005226200009b565b6001600160a01b0316816001600160a01b0316837f2f8788117e7eff1d82e926ec794901d17c78024a50270940304540a733656f0d60405160405180910390a45050565b600054610100900460ff16620005905760405162461bcd60e51b8152600401620002cb9062000c8f565b8251620005a590600990602086019062000962565b508151620005bb90600a90602085019062000962565b508051620005d190600b90602084019062000962565b50620005e4633d96f4ff60e11b620007f8565b620005f66380ac58cd60e01b620007f8565b62000235635b5e139f60e01b620007f8565b600054610100900460ff16620006325760405162461bcd60e51b8152600401620002cb9062000c8f565b620003a0632929b36760e11b620007f8565b600054610100900460ff166200066e5760405162461bcd60e51b8152600401620002cb9062000c8f565b620003a0631aa1577160e11b620007f8565b600054610100900460ff16620006aa5760405162461bcd60e51b8152600401620002cb9062000c8f565b620003a0630d169dbf60e31b620007f8565b600054610100900460ff16620006e65760405162461bcd60e51b8152600401620002cb9062000c8f565b600c819055620006fd6330f487b560e11b620007f8565b6200043f6380ac58cd60e01b620007f8565b600054610100900460ff16620007395760405162461bcd60e51b8152600401620002cb9062000c8f565b6200074b633a47bf5160e11b620007f8565b6200075d63152a902d60e11b620007f8565b6200076f63c69dbd8f60e01b620007f8565b6200078163656cb66560e11b620007f8565b604080518082019091526001600160a01b038316815261ffff8216602082015262000235816200087c565b600054610100900460ff16620007d65760405162461bcd60e51b8152600401620002cb9062000c8f565b601580546001600160a01b0319166001600160a01b0392909216919091179055565b6001600160e01b03198082161415620008545760405162461bcd60e51b815260206004820152601c60248201527f4552433136353a20696e76616c696420696e74657266616365206964000000006044820152606401620002cb565b6001600160e01b0319166000908152600160208190526040909120805460ff19169091179055565b612710816020015161ffff1610620008c55760405162461bcd60e51b815260206004820152600b60248201526a496e76616c69642062707360a81b6044820152606401620002cb565b60408051808201825282516001600160a01b03168082526020808501805161ffff169190930181905260118054600160a01b9092026001600160b01b03199092169092171790558251905191517f2c5ea6e4103e78cb101e796fb2dace540362fc542cbff5145eaa24af7dd8fe41926200095792916001600160a01b0392909216825261ffff16602082015260400190565b60405180910390a150565b828054620009709062000cda565b90600052602060002090601f016020900481019282620009945760008555620009df565b82601f10620009af57805160ff1916838001178555620009df565b82800160010185558215620009df579182015b82811115620009df578251825591602001919060010190620009c2565b50620009ed929150620009f1565b5090565b5b80821115620009ed5760008155600101620009f2565b634e487b7160e01b600052604160045260246000fd5b60405160e081016001600160401b038111828210171562000a435762000a4362000a08565b60405290565b604051601f8201601f191681016001600160401b038111828210171562000a745762000a7462000a08565b604052919050565b600082601f83011262000a8e57600080fd5b81516001600160401b0381111562000aaa5762000aaa62000a08565b602062000ac0601f8301601f1916820162000a49565b828152858284870101111562000ad557600080fd5b60005b8381101562000af557858101830151828201840152820162000ad8565b8381111562000b075760008385840101525b5095945050505050565b80516001600160a01b03811681146200032057600080fd5b805161ffff811681146200032057600080fd5b60006020828403121562000b4f57600080fd5b81516001600160401b038082111562000b6757600080fd5b9083019060e0828603121562000b7c57600080fd5b62000b8662000a1e565b82518281111562000b9657600080fd5b62000ba48782860162000a7c565b82525060208301518281111562000bba57600080fd5b62000bc88782860162000a7c565b60208301525060408301518281111562000be157600080fd5b62000bef8782860162000a7c565b6040830152506060830151606082015262000c0d6080840162000b11565b608082015262000c2060a0840162000b29565b60a082015262000c3360c0840162000b11565b60c082015295945050505050565b6020808252602e908201527f496e697469616c697a61626c653a20636f6e747261637420697320616c72656160408201526d191e481a5b9a5d1a585b1a5e995960921b606082015260800190565b6020808252602b908201527f496e697469616c697a61626c653a20636f6e7472616374206973206e6f74206960408201526a6e697469616c697a696e6760a81b606082015260800190565b600181811c9082168062000cef57607f821691505b6020821081141562000d1157634e487b7160e01b600052602260045260246000fd5b50919050565b6139eb8062000d276000396000f3fe608060405234801561001057600080fd5b50600436106102405760003560e01c806370a082311161013757806370a0823114610485578063715018a6146104985780637885fdc7146104a05780637e980342146104ce5780638da5cb5b146104d65780638e28cf98146104de57806391d14854146104f1578063938e3d7b1461050457806395d89b4114610517578063a217fddf1461051f578063a22cb46514610527578063b88d4fde1461053a578063b89df8e81461054d578063c87b56dd14610556578063cad96cca14610569578063d539139314610589578063d547741f1461059e578063d5abeb01146105b1578063da742228146105ba578063e8a3d485146105cd578063e985e9c5146105d5578063ef60ceaf146105e8578063f2fde38b146105fb578063f384702f1461060e57600080fd5b806301ffc9a7146102455780630653aca51461026d57806306fdde03146102af578063081812fc146102c4578063095ea7b3146102e4578063162094c4146102f9578063167446071461030c57806318160ddd1461031457806323b872dd14610326578063248a9ca3146103395780632a55205a1461034c5780632ee774bd1461037e5780632f2ff15d146103915780633542aee2146103a457806336568abe146103b757806342842e0e146103ca5780634473f20a146103dd5780635136dcc7146103f057806353166de21461040357806356c022bb14610416578063572b6c05146104295780635a9b0b891461043c5780636352211e1461045f5780636f8b44b014610472575b600080fd5b610258610253366004612e0c565b61061b565b60405190151581526020015b60405180910390f35b61028061027b366004612e29565b61062c565b60408051825181526020808401516001600160a01b0316908201529181015161ffff1690820152606001610264565b6102b76106b1565b6040516102649190612e9a565b6102d76102d2366004612e29565b6106c0565b6040516102649190612ead565b6102f76102f2366004612ed8565b61074d565b005b6102f7610307366004612fe7565b610870565b6102f76108de565b600e545b604051908152602001610264565b6102f761033436600461302d565b61092c565b610318610347366004612e29565b610964565b61035f61035a366004613069565b610979565b604080516001600160a01b039093168352602083019190915201610264565b6102f761038c36600461308b565b610a3e565b6102f761039f366004613169565b610ada565b6102f76103b2366004612ed8565b610af6565b6102f76103c5366004613169565b610b3f565b6102f76103d836600461302d565b610bc9565b6102f76103eb366004612e29565b610be4565b6102f76103fe366004613195565b610c6b565b6102f761041136600461321b565b610d05565b6015546102d7906001600160a01b031681565b610258610437366004613315565b610dfa565b610444610e0e565b60408051938452602084019290925290820152606001610264565b6102d761046d366004612e29565b610f27565b6102f7610480366004612e29565b610f9e565b610318610493366004613315565b61104b565b6102f76110d2565b6011546104c0906001600160a01b03811690600160a01b900461ffff1682565b604051610264929190613330565b61031861111d565b6102d7611129565b6102f76104ec36600461308b565b61113e565b6102586104ff366004613169565b6111cd565b6102f761051236600461334d565b6111f8565b6102b761124a565b610318600081565b6102f7610535366004613381565b611254565b6102f76105483660046133bd565b611266565b61031860105481565b6102b7610564366004612e29565b6112a5565b61057c610577366004612e29565b6112b0565b6040516102649190613438565b61031860008051602061399683398151915281565b6102f76105ac366004613169565b61136b565b610318600c5481565b6102f76105c8366004613315565b611387565b6102b76113e8565b6102586105e3366004613499565b61147a565b6102f76105f63660046134c3565b6114a8565b6102f7610609366004613315565b611501565b600d546102589060ff1681565b6000610626826115e3565b92915050565b604080516060810182526000808252602082018190529181018290529061065460138461161f565b6000818152601260209081526040918290208251808401845290546001600160a01b03808216835261ffff600160a01b90920482168385019081528551606081018752968752925116928501929092525116908201529392505050565b60606106bb611632565b905090565b60006106cb82611641565b6107315760405162461bcd60e51b815260206004820152602c60248201527f4552433732313a20617070726f76656420717565727920666f72206e6f6e657860448201526b34b9ba32b73a103a37b5b2b760a11b60648201526084015b60405180910390fd5b506000908152600760205260409020546001600160a01b031690565b600061075882610f27565b9050806001600160a01b0316836001600160a01b031614156107c65760405162461bcd60e51b815260206004820152602160248201527f4552433732313a20617070726f76616c20746f2063757272656e74206f776e656044820152603960f91b6064820152608401610728565b806001600160a01b03166107d861165e565b6001600160a01b031614806107f457506107f4816105e361165e565b6108615760405162461bcd60e51b815260206004820152603860248201527f4552433732313a20617070726f76652063616c6c6572206973206e6f74206f776044820152771b995c881b9bdc88185c1c1c9bdd995908199bdc88185b1b60421b6064820152608401610728565b61086b8383611668565b505050565b61087861165e565b6001600160a01b0316610889611129565b6001600160a01b0316146108af5760405162461bcd60e51b8152600401610728906134db565b60105482116108d05760405162461bcd60e51b815260040161072890613510565b6108da82826116d6565b5050565b6108e661165e565b6001600160a01b03166108f7611129565b6001600160a01b03161461091d5760405162461bcd60e51b8152600401610728906134db565b600d805460ff19166001179055565b61093d61093761165e565b82611761565b6109595760405162461bcd60e51b815260040161072890613530565b61086b83838361182b565b60009081526002602052604090206001015490565b60008281526012602052604081205481906001600160a01b0316156109de576000848152601260205260409020546001600160a01b03811690612710906109cb90600160a01b900461ffff1686613597565b6109d591906135cc565b91509150610a37565b6011546001600160a01b031615801590610a045750601154600160a01b900461ffff1615155b15610a30576011546001600160a01b03811690612710906109cb90600160a01b900461ffff1686613597565b5060009050805b9250929050565b610a4661165e565b6001600160a01b0316610a57611129565b6001600160a01b031614610a7d5760405162461bcd60e51b8152600401610728906134db565b600e54610a8a84846119c7565b60005b83811015610ad357610ac1610aa282846135e0565b848381518110610ab457610ab46135f8565b60200260200101516116d6565b80610acb8161360e565b915050610a8d565b5050505050565b610ae382610964565b610aec81611a50565b61086b8383611a61565b610afe61165e565b6001600160a01b0316610b0f611129565b6001600160a01b031614610b355760405162461bcd60e51b8152600401610728906134db565b6108da82826119c7565b610b4761165e565b6001600160a01b0316816001600160a01b031614610bbf5760405162461bcd60e51b815260206004820152602f60248201527f416363657373436f6e74726f6c3a2063616e206f6e6c792072656e6f756e636560448201526e103937b632b9903337b91039b2b63360891b6064820152608401610728565b6108da8282611ae8565b61086b83838360405180602001604052806000815250611266565b610bec61165e565b6001600160a01b0316610bfd611129565b6001600160a01b031614610c235760405162461bcd60e51b8152600401610728906134db565b6010548111610c665760405162461bcd60e51b815260206004820152600f60248201526e43414e4e4f545f554e465245455a4560881b6044820152606401610728565b601055565b610c7361165e565b6001600160a01b0316610c84611129565b6001600160a01b031614610caa5760405162461bcd60e51b8152600401610728906134db565b6108da8282808060200260200160405190810160405280939291908181526020016000905b82821015610cfb57610cec60608302860136819003810190613629565b81526020019060010190610ccf565b5050505050611b6d565b6000610d116001611d14565b90508015610d29576000805461ff0019166101001790555b610d34600083611da8565b610d4c60008051602061399683398151915283611da8565b610d5582611db2565b610d6c836000015184602001518560400151611e0d565b610d74611e3f565b610d7c611e6e565b610d84611e9d565b610d918360600151611ecc565b610da383608001518460a00151611efc565b610db08360c00151611f2d565b801561086b576000805461ff0019169055604051600181527f7f26b83ff96e1f2b6a682f133852f6798a09c465da95921460cefb38474024989060200160405180910390a1505050565b6015546001600160a01b0391821691161490565b600080808080610e1c61165e565b6001600160a01b031614610ea757306370a08231610e3861165e565b6040518263ffffffff1660e01b8152600401610e549190612ead565b60206040518083038186803b158015610e6c57600080fd5b505afa158015610e80573d6000803e3d6000fd5b505050506040513d601f19601f82011682018060405250810190610ea4919061368d565b90505b600c54306001600160a01b03166318160ddd6040518163ffffffff1660e01b815260040160206040518083038186803b158015610ee357600080fd5b505afa158015610ef7573d6000803e3d6000fd5b505050506040513d601f19601f82011682018060405250810190610f1b919061368d565b90959094509092509050565b6000818152600560205260408120546001600160a01b0316806106265760405162461bcd60e51b815260206004820152602960248201527f4552433732313a206f776e657220717565727920666f72206e6f6e657869737460448201526832b73a103a37b5b2b760b91b6064820152608401610728565b610fa661165e565b6001600160a01b0316610fb7611129565b6001600160a01b031614610fdd5760405162461bcd60e51b8152600401610728906134db565b600d5460ff16156110005760405162461bcd60e51b815260040161072890613510565b600e548110156110465760405162461bcd60e51b81526020600482015260116024820152704c4f5745525f5448414e5f535550504c5960781b6044820152606401610728565b600c55565b60006001600160a01b0382166110b65760405162461bcd60e51b815260206004820152602a60248201527f4552433732313a2062616c616e636520717565727920666f7220746865207a65604482015269726f206164647265737360b01b6064820152608401610728565b506001600160a01b031660009081526006602052604090205490565b6110da61165e565b6001600160a01b03166110eb611129565b6001600160a01b0316146111115760405162461bcd60e51b8152600401610728906134db565b61111b6000611db2565b565b60006106bb6013611f5d565b6000546201000090046001600160a01b031690565b6111586000805160206139968339815191526104ff61165e565b6111965760405162461bcd60e51b815260206004820152600f60248201526e4e4f545f4d494e5445525f524f4c4560881b6044820152606401610728565b600e546111a384846119c7565b60005b83811015610ad3576111bb610aa282846135e0565b806111c58161360e565b9150506111a6565b60009182526002602090815260408084206001600160a01b0393909316845291905290205460ff1690565b61120061165e565b6001600160a01b0316611211611129565b6001600160a01b0316146112375760405162461bcd60e51b8152600401610728906134db565b80516108da90600b906020840190612d5d565b60606106bb611f67565b6108da61125f61165e565b8383611f76565b61127761127161165e565b83611761565b6112935760405162461bcd60e51b815260040161072890613530565b61129f84848484612041565b50505050565b606061062682612074565b604080516001808252818301909252606091816020015b60408051808201909152600080825260208201528152602001906001900390816112c757505060115481519192506001600160a01b0316908290600090611310576113106135f8565b60209081029190910101516001600160a01b039190911690526011548151600160a01b90910461ffff1690829060009061134c5761134c6135f8565b6020908102919091018101516001600160601b03909216910152919050565b61137482610964565b61137d81611a50565b61086b8383611ae8565b61138f61165e565b6001600160a01b03166113a0611129565b6001600160a01b0316146113c65760405162461bcd60e51b8152600401610728906134db565b601580546001600160a01b0319166001600160a01b0392909216919091179055565b6060600b80546113f7906136a6565b80601f0160208091040260200160405190810160405280929190818152602001828054611423906136a6565b80156114705780601f1061144557610100808354040283529160200191611470565b820191906000526020600020905b81548152906001019060200180831161145357829003601f168201915b5050505050905090565b6001600160a01b03918216600090815260086020908152604080832093909416825291909152205460ff1690565b6114b061165e565b6001600160a01b03166114c1611129565b6001600160a01b0316146114e75760405162461bcd60e51b8152600401610728906134db565b6114fe6114f9368390038301836136db565b61207f565b50565b61150961165e565b6001600160a01b031661151a611129565b6001600160a01b0316146115405760405162461bcd60e51b8152600401610728906134db565b6001600160a01b0381166115a55760405162461bcd60e51b815260206004820152602660248201527f4f776e61626c653a206e6577206f776e657220697320746865207a65726f206160448201526564647265737360d01b6064820152608401610728565b6114fe81611db2565b60006115b933610dfa565b156115cb575060131936013560601c90565b503390565b3390565b6001600160a01b03163b151590565b60006301ffc9a760e01b6001600160e01b0319831614806106265750506001600160e01b03191660009081526001602052604090205460ff1690565b600061162b838361212a565b9392505050565b6060600980546113f7906136a6565b6000908152600560205260409020546001600160a01b0316151590565b60006106bb6115ae565b600081815260076020526040902080546001600160a01b0319166001600160a01b038416908117909155819061169d82610f27565b6001600160a01b03167f8c5be1e5ebec7d5bd14f71427d1e84f3dd0314c0f7b2291e5b200ac8c7c3b92560405160405180910390a45050565b6116df82611641565b6117425760405162461bcd60e51b815260206004820152602e60248201527f45524337323155524953746f726167653a2055524920736574206f66206e6f6e60448201526d32bc34b9ba32b73a103a37b5b2b760911b6064820152608401610728565b6000828152600f60209081526040909120825161086b92840190612d5d565b600061176c82611641565b6117cd5760405162461bcd60e51b815260206004820152602c60248201527f4552433732313a206f70657261746f7220717565727920666f72206e6f6e657860448201526b34b9ba32b73a103a37b5b2b760a11b6064820152608401610728565b60006117d883610f27565b9050806001600160a01b0316846001600160a01b031614806117ff57506117ff818561147a565b806118235750836001600160a01b0316611818846106c0565b6001600160a01b0316145b949350505050565b826001600160a01b031661183e82610f27565b6001600160a01b0316146118a25760405162461bcd60e51b815260206004820152602560248201527f4552433732313a207472616e736665722066726f6d20696e636f72726563742060448201526437bbb732b960d91b6064820152608401610728565b6001600160a01b0382166119045760405162461bcd60e51b8152602060048201526024808201527f4552433732313a207472616e7366657220746f20746865207a65726f206164646044820152637265737360e01b6064820152608401610728565b61190f600082611668565b6001600160a01b0383166000908152600660205260408120805460019290611938908490613735565b90915550506001600160a01b03821660009081526006602052604081208054600192906119669084906135e0565b909155505060008181526005602052604080822080546001600160a01b0319166001600160a01b0386811691821790925591518493918716917fddf252ad1be2c89b69c2b068fc378daa952ba7f163c4a11628f55a4df523b3ef91a4505050565b600c54816119d4600e5490565b6119de91906135e0565b1115611a1d5760405162461bcd60e51b815260206004820152600e60248201526d455843454544535f535550504c5960901b6044820152606401610728565b60005b8181101561086b57600e54611a358482612154565b611a3d61216e565b5080611a488161360e565b915050611a20565b6114fe81611a5c61165e565b612185565b611a6b82826111cd565b6108da5760008281526002602090815260408083206001600160a01b03851684529091529020805460ff19166001179055611aa461165e565b6001600160a01b0316816001600160a01b0316837f2f8788117e7eff1d82e926ec794901d17c78024a50270940304540a733656f0d60405160405180910390a45050565b611af282826111cd565b156108da5760008281526002602090815260408083206001600160a01b03851684529091529020805460ff19169055611b2961165e565b6001600160a01b0316816001600160a01b0316837ff6391f5c32d9c69d2a47ea670b442974b53935d1edc7fd64eb21e047a839171b60405160405180910390a45050565b60005b81518110156108da576000828281518110611b8d57611b8d6135f8565b60200260200101519050612710816040015161ffff1610611bc05760405162461bcd60e51b81526004016107289061374c565b60208101516001600160a01b0316611c39578051600090815260126020526040902080546001600160b01b03191690558051611bfe906013906121e9565b5080516040519081527fa2870857763bd9ae76c957f869f16b31c18dd3bb4c7b4d3a4496dc5c57c657f99060200160405180910390a1611d01565b6040805180820182526020808401516001600160a01b0390811683528484015161ffff90811683850190815286516000908152601290945294909220925183549451909216600160a01b026001600160b01b03199094169116179190911790558051611ca7906013906121f5565b50805160208083015160408085015181519485526001600160a01b039092169284019290925261ffff1682820152517f389b70fb0887f01e83784eb1c4c589f740eca53b00ed0f45e41db5d079719abb9181900360600190a15b5080611d0c8161360e565b915050611b70565b60008054610100900460ff1615611d62578160ff166001148015611d3e5750611d3c306115d4565b155b611d5a5760405162461bcd60e51b815260040161072890613771565b506000919050565b60005460ff808416911610611d895760405162461bcd60e51b815260040161072890613771565b506000805460ff191660ff92909216919091179055600190565b919050565b6108da8282611a61565b600080546001600160a01b038381166201000081810262010000600160b01b0319851617855560405193049190911692909183917f8be0079c531659141344cd1fd0a4f28419497f9722a3daafe3b4186f6b6457e091a35050565b600054610100900460ff16611e345760405162461bcd60e51b8152600401610728906137bf565b61086b838383612201565b600054610100900460ff16611e665760405162461bcd60e51b8152600401610728906137bf565b61111b612294565b600054610100900460ff16611e955760405162461bcd60e51b8152600401610728906137bf565b61111b6122cb565b600054610100900460ff16611ec45760405162461bcd60e51b8152600401610728906137bf565b61111b612302565b600054610100900460ff16611ef35760405162461bcd60e51b8152600401610728906137bf565b6114fe81612339565b600054610100900460ff16611f235760405162461bcd60e51b8152600401610728906137bf565b6108da8282612385565b600054610100900460ff16611f545760405162461bcd60e51b8152600401610728906137bf565b6114fe81612415565b6000610626825490565b6060600a80546113f7906136a6565b816001600160a01b0316836001600160a01b03161415611fd45760405162461bcd60e51b815260206004820152601960248201527822a9219b99189d1030b8383937bb32903a379031b0b63632b960391b6044820152606401610728565b6001600160a01b03838116600081815260086020908152604080832094871680845294825291829020805460ff191686151590811790915591519182527f17307eab39ab6107e8899845ad3d59bd9653f200f220920489ca2b5937696c31910160405180910390a3505050565b61204c84848461182b565b6120588484848461243c565b61129f5760405162461bcd60e51b81526004016107289061380a565b606061062682612557565b612710816020015161ffff16106120a85760405162461bcd60e51b81526004016107289061374c565b60408051808201825282516001600160a01b03168082526020808501805161ffff1691909301819052601180546001600160b01b031916909217600160a01b9091021790558251905191517f2c5ea6e4103e78cb101e796fb2dace540362fc542cbff5145eaa24af7dd8fe419261211f9291613330565b60405180910390a150565b6000826000018281548110612141576121416135f8565b9060005260206000200154905092915050565b6108da8282604051806020016040528060008152506126c6565b600e805490600061217e8361360e565b9190505550565b61218f82826111cd565b6108da576121a7816001600160a01b031660146126f9565b6121b28360206126f9565b6040516020016121c392919061385c565b60408051601f198184030181529082905262461bcd60e51b825261072891600401612e9a565b600061162b8383612894565b600061162b8383612987565b600054610100900460ff166122285760405162461bcd60e51b8152600401610728906137bf565b825161223b906009906020860190612d5d565b50815161224f90600a906020850190612d5d565b50805161226390600b906020840190612d5d565b50612274633d96f4ff60e11b6129d6565b6122846380ac58cd60e01b6129d6565b61086b635b5e139f60e01b6129d6565b600054610100900460ff166122bb5760405162461bcd60e51b8152600401610728906137bf565b61111b632929b36760e11b6129d6565b600054610100900460ff166122f25760405162461bcd60e51b8152600401610728906137bf565b61111b631aa1577160e11b6129d6565b600054610100900460ff166123295760405162461bcd60e51b8152600401610728906137bf565b61111b630d169dbf60e31b6129d6565b600054610100900460ff166123605760405162461bcd60e51b8152600401610728906137bf565b600c8190556123756330f487b560e11b6129d6565b6114fe6380ac58cd60e01b6129d6565b600054610100900460ff166123ac5760405162461bcd60e51b8152600401610728906137bf565b6123bc633a47bf5160e11b6129d6565b6123cc63152a902d60e11b6129d6565b6123dc63c69dbd8f60e01b6129d6565b6123ec63656cb66560e11b6129d6565b604080518082019091526001600160a01b038316815261ffff8216602082015261086b8161207f565b600054610100900460ff166113c65760405162461bcd60e51b8152600401610728906137bf565b6000612450846001600160a01b03166115d4565b1561254c57836001600160a01b031663150b7a0261246c61165e565b8786866040518563ffffffff1660e01b815260040161248e94939291906138cb565b602060405180830381600087803b1580156124a857600080fd5b505af19250505080156124d8575060408051601f3d908101601f191682019092526124d591810190613908565b60015b612532573d808015612506576040519150601f19603f3d011682016040523d82523d6000602084013e61250b565b606091505b50805161252a5760405162461bcd60e51b81526004016107289061380a565b805181602001fd5b6001600160e01b031916630a85bd0160e11b149050611823565b506001949350505050565b606061256282611641565b6125c85760405162461bcd60e51b815260206004820152603160248201527f45524337323155524953746f726167653a2055524920717565727920666f72206044820152703737b732bc34b9ba32b73a103a37b5b2b760791b6064820152608401610728565b6000828152600f6020526040812080546125e1906136a6565b80601f016020809104026020016040519081016040528092919081815260200182805461260d906136a6565b801561265a5780601f1061262f5761010080835404028352916020019161265a565b820191906000526020600020905b81548152906001019060200180831161263d57829003601f168201915b50505050509050600061267860408051602081019091526000815290565b905080516000141561268b575092915050565b8151156126bd5780826040516020016126a5929190613925565b60405160208183030381529060405292505050919050565b61182384612a57565b6126d08383612b2e565b6126dd600084848461243c565b61086b5760405162461bcd60e51b81526004016107289061380a565b60606000612708836002613597565b6127139060026135e0565b6001600160401b0381111561272a5761272a612f02565b6040519080825280601f01601f191660200182016040528015612754576020820181803683370190505b509050600360fc1b8160008151811061276f5761276f6135f8565b60200101906001600160f81b031916908160001a905350600f60fb1b8160018151811061279e5761279e6135f8565b60200101906001600160f81b031916908160001a90535060006127c2846002613597565b6127cd9060016135e0565b90505b6001811115612845576f181899199a1a9b1b9c1cb0b131b232b360811b85600f1660108110612801576128016135f8565b1a60f81b828281518110612817576128176135f8565b60200101906001600160f81b031916908160001a90535060049490941c9361283e81613954565b90506127d0565b50831561162b5760405162461bcd60e51b815260206004820181905260248201527f537472696e67733a20686578206c656e67746820696e73756666696369656e746044820152606401610728565b6000818152600183016020526040812054801561297d5760006128b8600183613735565b85549091506000906128cc90600190613735565b90508181146129315760008660000182815481106128ec576128ec6135f8565b906000526020600020015490508087600001848154811061290f5761290f6135f8565b6000918252602080832090910192909255918252600188019052604090208390555b85548690806129425761294261396b565b600190038181906000526020600020016000905590558560010160008681526020019081526020016000206000905560019350505050610626565b6000915050610626565b60008181526001830160205260408120546129ce57508154600181810184556000848152602080822090930184905584548482528286019093526040902091909155610626565b506000610626565b6001600160e01b03198082161415612a2f5760405162461bcd60e51b815260206004820152601c60248201527b115490cc4d8d4e881a5b9d985b1a59081a5b9d195c999858d9481a5960221b6044820152606401610728565b6001600160e01b0319166000908152600160208190526040909120805460ff19169091179055565b6060612a6282611641565b612ac65760405162461bcd60e51b815260206004820152602f60248201527f4552433732314d657461646174613a2055524920717565727920666f72206e6f60448201526e3732bc34b9ba32b73a103a37b5b2b760891b6064820152608401610728565b6000612add60408051602081019091526000815290565b90506000815111612afd576040518060200160405280600081525061162b565b80612b0784612c60565b604051602001612b18929190613925565b6040516020818303038152906040529392505050565b6001600160a01b038216612b845760405162461bcd60e51b815260206004820181905260248201527f4552433732313a206d696e7420746f20746865207a65726f20616464726573736044820152606401610728565b612b8d81611641565b15612bd95760405162461bcd60e51b815260206004820152601c60248201527b115490cdcc8c4e881d1bdad95b88185b1c9958591e481b5a5b9d195960221b6044820152606401610728565b6001600160a01b0382166000908152600660205260408120805460019290612c029084906135e0565b909155505060008181526005602052604080822080546001600160a01b0319166001600160a01b03861690811790915590518392907fddf252ad1be2c89b69c2b068fc378daa952ba7f163c4a11628f55a4df523b3ef908290a45050565b606081612c845750506040805180820190915260018152600360fc1b602082015290565b8160005b8115612cae5780612c988161360e565b9150612ca79050600a836135cc565b9150612c88565b6000816001600160401b03811115612cc857612cc8612f02565b6040519080825280601f01601f191660200182016040528015612cf2576020820181803683370190505b5090505b841561182357612d07600183613735565b9150612d14600a86613981565b612d1f9060306135e0565b60f81b818381518110612d3457612d346135f8565b60200101906001600160f81b031916908160001a905350612d56600a866135cc565b9450612cf6565b828054612d69906136a6565b90600052602060002090601f016020900481019282612d8b5760008555612dd1565b82601f10612da457805160ff1916838001178555612dd1565b82800160010185558215612dd1579182015b82811115612dd1578251825591602001919060010190612db6565b50612ddd929150612de1565b5090565b5b80821115612ddd5760008155600101612de2565b6001600160e01b0319811681146114fe57600080fd5b600060208284031215612e1e57600080fd5b813561162b81612df6565b600060208284031215612e3b57600080fd5b5035919050565b60005b83811015612e5d578181015183820152602001612e45565b8381111561129f5750506000910152565b60008151808452612e86816020860160208601612e42565b601f01601f19169290920160200192915050565b60208152600061162b6020830184612e6e565b6001600160a01b0391909116815260200190565b80356001600160a01b0381168114611da357600080fd5b60008060408385031215612eeb57600080fd5b612ef483612ec1565b946020939093013593505050565b634e487b7160e01b600052604160045260246000fd5b60405160e081016001600160401b0381118282101715612f3a57612f3a612f02565b60405290565b604051601f8201601f191681016001600160401b0381118282101715612f6857612f68612f02565b604052919050565b60006001600160401b03831115612f8957612f89612f02565b612f9c601f8401601f1916602001612f40565b9050828152838383011115612fb057600080fd5b828260208301376000602084830101529392505050565b600082601f830112612fd857600080fd5b61162b83833560208501612f70565b60008060408385031215612ffa57600080fd5b8235915060208301356001600160401b0381111561301757600080fd5b61302385828601612fc7565b9150509250929050565b60008060006060848603121561304257600080fd5b61304b84612ec1565b925061305960208501612ec1565b9150604084013590509250925092565b6000806040838503121561307c57600080fd5b50508035926020909101359150565b6000806000606084860312156130a057600080fd5b6130a984612ec1565b9250602080850135925060408501356001600160401b03808211156130cd57600080fd5b818701915087601f8301126130e157600080fd5b8135818111156130f3576130f3612f02565b8060051b613102858201612f40565b918252838101850191858101908b84111561311c57600080fd5b86860192505b838310156131585782358581111561313a5760008081fd5b6131488d89838a0101612fc7565b8352509186019190860190613122565b809750505050505050509250925092565b6000806040838503121561317c57600080fd5b8235915061318c60208401612ec1565b90509250929050565b600080602083850312156131a857600080fd5b82356001600160401b03808211156131bf57600080fd5b818501915085601f8301126131d357600080fd5b8135818111156131e257600080fd5b8660206060830285010111156131f757600080fd5b60209290920196919550909350505050565b803561ffff81168114611da357600080fd5b6000806040838503121561322e57600080fd5b82356001600160401b038082111561324557600080fd5b9084019060e0828703121561325957600080fd5b613261612f18565b82358281111561327057600080fd5b61327c88828601612fc7565b82525060208301358281111561329157600080fd5b61329d88828601612fc7565b6020830152506040830135828111156132b557600080fd5b6132c188828601612fc7565b604083015250606083013560608201526132dd60808401612ec1565b60808201526132ee60a08401613209565b60a08201526132ff60c08401612ec1565b60c0820152935061318c91505060208401612ec1565b60006020828403121561332757600080fd5b61162b82612ec1565b6001600160a01b0392909216825261ffff16602082015260400190565b60006020828403121561335f57600080fd5b81356001600160401b0381111561337557600080fd5b61182384828501612fc7565b6000806040838503121561339457600080fd5b61339d83612ec1565b9150602083013580151581146133b257600080fd5b809150509250929050565b600080600080608085870312156133d357600080fd5b6133dc85612ec1565b93506133ea60208601612ec1565b92506040850135915060608501356001600160401b0381111561340c57600080fd5b8501601f8101871361341d57600080fd5b61342c87823560208401612f70565b91505092959194509250565b602080825282518282018190526000919060409081850190868401855b8281101561348c57815180516001600160a01b031685528601516001600160601b0316868501529284019290850190600101613455565b5091979650505050505050565b600080604083850312156134ac57600080fd5b6134b583612ec1565b915061318c60208401612ec1565b6000604082840312156134d557600080fd5b50919050565b6020808252818101527f4f776e61626c653a2063616c6c6572206973206e6f7420746865206f776e6572604082015260600190565b602080825260069082015265232927ad22a760d11b604082015260600190565b60208082526031908201527f4552433732313a207472616e736665722063616c6c6572206973206e6f74206f6040820152701ddb995c881b9bdc88185c1c1c9bdd9959607a1b606082015260800190565b634e487b7160e01b600052601160045260246000fd5b60008160001904831182151516156135b1576135b1613581565b500290565b634e487b7160e01b600052601260045260246000fd5b6000826135db576135db6135b6565b500490565b600082198211156135f3576135f3613581565b500190565b634e487b7160e01b600052603260045260246000fd5b600060001982141561362257613622613581565b5060010190565b60006060828403121561363b57600080fd5b604051606081018181106001600160401b038211171561365d5761365d612f02565b6040528235815261367060208401612ec1565b602082015261368160408401613209565b60408201529392505050565b60006020828403121561369f57600080fd5b5051919050565b600181811c908216806136ba57607f821691505b602082108114156134d557634e487b7160e01b600052602260045260246000fd5b6000604082840312156136ed57600080fd5b604051604081018181106001600160401b038211171561370f5761370f612f02565b60405261371b83612ec1565b815261372960208401613209565b60208201529392505050565b60008282101561374757613747613581565b500390565b6020808252600b908201526a496e76616c69642062707360a81b604082015260600190565b6020808252602e908201527f496e697469616c697a61626c653a20636f6e747261637420697320616c72656160408201526d191e481a5b9a5d1a585b1a5e995960921b606082015260800190565b6020808252602b908201527f496e697469616c697a61626c653a20636f6e7472616374206973206e6f74206960408201526a6e697469616c697a696e6760a81b606082015260800190565b60208082526032908201527f4552433732313a207472616e7366657220746f206e6f6e20455243373231526560408201527131b2b4bb32b91034b6b83632b6b2b73a32b960711b606082015260800190565b76020b1b1b2b9b9a1b7b73a3937b61d1030b1b1b7bab73a1604d1b81526000835161388e816017850160208801612e42565b7001034b99036b4b9b9b4b733903937b6329607d1b60179184019182015283516138bf816028840160208801612e42565b01602801949350505050565b6001600160a01b03858116825284166020820152604081018390526080606082018190526000906138fe90830184612e6e565b9695505050505050565b60006020828403121561391a57600080fd5b815161162b81612df6565b60008351613937818460208801612e42565b83519083019061394b818360208801612e42565b01949350505050565b60008161396357613963613581565b506000190190565b634e487b7160e01b600052603160045260246000fd5b600082613990576139906135b6565b50069056fe9f2df0fed2c77648de5860a4cc508cd0818c85b8b8a1ab4ceeef8d981c8956a6a2646970667358221220c6fcffaa4dece103010567ab70b322a25e904c6bc1d149c510817820f677506064736f6c63430008090033",
  "devdoc": {
    "kind": "dev",
    "methods": {
      "approve(address,uint256)": {
        "details": "See {IERC721-approve}."
      },
      "balanceOf(address)": {
        "details": "See {IERC721-balanceOf}."
      },
      "getApproved(uint256)": {
        "details": "See {IERC721-getApproved}."
      },
      "getRoleAdmin(bytes32)": {
        "details": "Returns the admin role that controls `role`. See {grantRole} and {revokeRole}. To change a role's admin, use {_setRoleAdmin}."
      },
      "getTokenRoyaltiesCount()": {
        "details": "See {IEIP2981RoyaltyOverride-getTokenRoyaltiesCount}."
      },
      "getTokenRoyaltyByIndex(uint256)": {
        "details": "See {IEIP2981RoyaltyOverride-getTokenRoyaltyByIndex}."
      },
      "grantRole(bytes32,address)": {
        "details": "Grants `role` to `account`. If `account` had not been already granted `role`, emits a {RoleGranted} event. Requirements: - the caller must have ``role``'s admin role."
      },
      "hasRole(bytes32,address)": {
        "details": "Returns `true` if `account` has been granted `role`."
      },
      "isApprovedForAll(address,address)": {
        "details": "See {IERC721-isApprovedForAll}."
      },
      "owner()": {
        "details": "Returns the address of the current owner."
      },
      "ownerOf(uint256)": {
        "details": "See {IERC721-ownerOf}."
      },
      "renounceOwnership()": {
        "details": "Leaves the contract without owner. It will not be possible to call `onlyOwner` functions anymore. Can only be called by the current owner. NOTE: Renouncing ownership will leave the contract without an owner, thereby removing any functionality that is only available to the owner."
      },
      "renounceRole(bytes32,address)": {
        "details": "Revokes `role` from the calling account. Roles are often managed via {grantRole} and {revokeRole}: this function's purpose is to provide a mechanism for accounts to lose their privileges if they are compromised (such as when a trusted device is misplaced). If the calling account had been revoked `role`, emits a {RoleRevoked} event. Requirements: - the caller must be `account`."
      },
      "revokeRole(bytes32,address)": {
        "details": "Revokes `role` from `account`. If `account` had been granted `role`, emits a {RoleRevoked} event. Requirements: - the caller must have ``role``'s admin role."
      },
      "royaltyInfo(uint256,uint256)": {
        "details": "See {IEIP2981RoyaltyOverride-royaltyInfo}."
      },
      "safeTransferFrom(address,address,uint256)": {
        "details": "See {IERC721-safeTransferFrom}."
      },
      "safeTransferFrom(address,address,uint256,bytes)": {
        "details": "See {IERC721-safeTransferFrom}."
      },
      "setApprovalForAll(address,bool)": {
        "details": "See {IERC721-setApprovalForAll}."
      },
      "transferFrom(address,address,uint256)": {
        "details": "See {IERC721-transferFrom}."
      },
      "transferOwnership(address)": {
        "details": "Transfers ownership of the contract to a new account (`newOwner`). Can only be called by the current owner."
      }
    },
    "version": 1
  },
  "userdoc": {
    "kind": "user",
    "methods": {},
    "version": 1
  },
  "storageLayout": {
    "storage": [
      {
        "astId": 886,
        "contract": "contracts/collections/ERC721/presets/ERC721OneOfOneCollection.sol:ERC721OneOfOneCollection",
        "label": "_initialized",
        "offset": 0,
        "slot": "0",
        "type": "t_uint8"
      },
      {
        "astId": 889,
        "contract": "contracts/collections/ERC721/presets/ERC721OneOfOneCollection.sol:ERC721OneOfOneCollection",
        "label": "_initializing",
        "offset": 1,
        "slot": "0",
        "type": "t_bool"
      },
      {
        "astId": 782,
        "contract": "contracts/collections/ERC721/presets/ERC721OneOfOneCollection.sol:ERC721OneOfOneCollection",
        "label": "_owner",
        "offset": 2,
        "slot": "0",
        "type": "t_address"
      },
      {
        "astId": 4693,
        "contract": "contracts/collections/ERC721/presets/ERC721OneOfOneCollection.sol:ERC721OneOfOneCollection",
        "label": "_supportedInterfaces",
        "offset": 0,
        "slot": "1",
        "type": "t_mapping(t_bytes4,t_bool)"
      },
      {
        "astId": 406,
        "contract": "contracts/collections/ERC721/presets/ERC721OneOfOneCollection.sol:ERC721OneOfOneCollection",
        "label": "_roles",
        "offset": 0,
        "slot": "2",
        "type": "t_mapping(t_bytes32,t_struct(RoleData)401_storage)"
      },
      {
        "astId": 1912,
        "contract": "contracts/collections/ERC721/presets/ERC721OneOfOneCollection.sol:ERC721OneOfOneCollection",
        "label": "_name",
        "offset": 0,
        "slot": "3",
        "type": "t_string_storage"
      },
      {
        "astId": 1914,
        "contract": "contracts/collections/ERC721/presets/ERC721OneOfOneCollection.sol:ERC721OneOfOneCollection",
        "label": "_symbol",
        "offset": 0,
        "slot": "4",
        "type": "t_string_storage"
      },
      {
        "astId": 1918,
        "contract": "contracts/collections/ERC721/presets/ERC721OneOfOneCollection.sol:ERC721OneOfOneCollection",
        "label": "_owners",
        "offset": 0,
        "slot": "5",
        "type": "t_mapping(t_uint256,t_address)"
      },
      {
        "astId": 1922,
        "contract": "contracts/collections/ERC721/presets/ERC721OneOfOneCollection.sol:ERC721OneOfOneCollection",
        "label": "_balances",
        "offset": 0,
        "slot": "6",
        "type": "t_mapping(t_address,t_uint256)"
      },
      {
        "astId": 1926,
        "contract": "contracts/collections/ERC721/presets/ERC721OneOfOneCollection.sol:ERC721OneOfOneCollection",
        "label": "_tokenApprovals",
        "offset": 0,
        "slot": "7",
        "type": "t_mapping(t_uint256,t_address)"
      },
      {
        "astId": 1932,
        "contract": "contracts/collections/ERC721/presets/ERC721OneOfOneCollection.sol:ERC721OneOfOneCollection",
        "label": "_operatorApprovals",
        "offset": 0,
        "slot": "8",
        "type": "t_mapping(t_address,t_mapping(t_address,t_bool))"
      },
      {
        "astId": 6170,
        "contract": "contracts/collections/ERC721/presets/ERC721OneOfOneCollection.sol:ERC721OneOfOneCollection",
        "label": "_name",
        "offset": 0,
        "slot": "9",
        "type": "t_string_storage"
      },
      {
        "astId": 6172,
        "contract": "contracts/collections/ERC721/presets/ERC721OneOfOneCollection.sol:ERC721OneOfOneCollection",
        "label": "_symbol",
        "offset": 0,
        "slot": "10",
        "type": "t_string_storage"
      },
      {
        "astId": 6174,
        "contract": "contracts/collections/ERC721/presets/ERC721OneOfOneCollection.sol:ERC721OneOfOneCollection",
        "label": "_contractURI",
        "offset": 0,
        "slot": "11",
        "type": "t_string_storage"
      },
      {
        "astId": 5826,
        "contract": "contracts/collections/ERC721/presets/ERC721OneOfOneCollection.sol:ERC721OneOfOneCollection",
        "label": "maxSupply",
        "offset": 0,
        "slot": "12",
        "type": "t_uint256"
      },
      {
        "astId": 5828,
        "contract": "contracts/collections/ERC721/presets/ERC721OneOfOneCollection.sol:ERC721OneOfOneCollection",
        "label": "maxSupplyFrozen",
        "offset": 0,
        "slot": "13",
        "type": "t_bool"
      },
      {
        "astId": 5831,
        "contract": "contracts/collections/ERC721/presets/ERC721OneOfOneCollection.sol:ERC721OneOfOneCollection",
        "label": "_currentTokenId",
        "offset": 0,
        "slot": "14",
        "type": "t_uint256"
      },
      {
        "astId": 3237,
        "contract": "contracts/collections/ERC721/presets/ERC721OneOfOneCollection.sol:ERC721OneOfOneCollection",
        "label": "_tokenURIs",
        "offset": 0,
        "slot": "15",
        "type": "t_mapping(t_uint256,t_string_storage)"
      },
      {
        "astId": 7062,
        "contract": "contracts/collections/ERC721/presets/ERC721OneOfOneCollection.sol:ERC721OneOfOneCollection",
        "label": "lastFrozenTokenId",
        "offset": 0,
        "slot": "16",
        "type": "t_uint256"
      },
      {
        "astId": 86,
        "contract": "contracts/collections/ERC721/presets/ERC721OneOfOneCollection.sol:ERC721OneOfOneCollection",
        "label": "defaultRoyalty",
        "offset": 0,
        "slot": "17",
        "type": "t_struct(TokenRoyalty)28_storage"
      },
      {
        "astId": 91,
        "contract": "contracts/collections/ERC721/presets/ERC721OneOfOneCollection.sol:ERC721OneOfOneCollection",
        "label": "_tokenRoyalties",
        "offset": 0,
        "slot": "18",
        "type": "t_mapping(t_uint256,t_struct(TokenRoyalty)28_storage)"
      },
      {
        "astId": 94,
        "contract": "contracts/collections/ERC721/presets/ERC721OneOfOneCollection.sol:ERC721OneOfOneCollection",
        "label": "_tokensWithRoyalties",
        "offset": 0,
        "slot": "19",
        "type": "t_struct(UintSet)5664_storage"
      },
      {
        "astId": 14087,
        "contract": "contracts/collections/ERC721/presets/ERC721OneOfOneCollection.sol:ERC721OneOfOneCollection",
        "label": "_trustedForwarder",
        "offset": 0,
        "slot": "21",
        "type": "t_address"
      }
    ],
    "types": {
      "t_address": {
        "encoding": "inplace",
        "label": "address",
        "numberOfBytes": "20"
      },
      "t_array(t_bytes32)dyn_storage": {
        "base": "t_bytes32",
        "encoding": "dynamic_array",
        "label": "bytes32[]",
        "numberOfBytes": "32"
      },
      "t_bool": {
        "encoding": "inplace",
        "label": "bool",
        "numberOfBytes": "1"
      },
      "t_bytes32": {
        "encoding": "inplace",
        "label": "bytes32",
        "numberOfBytes": "32"
      },
      "t_bytes4": {
        "encoding": "inplace",
        "label": "bytes4",
        "numberOfBytes": "4"
      },
      "t_mapping(t_address,t_bool)": {
        "encoding": "mapping",
        "key": "t_address",
        "label": "mapping(address => bool)",
        "numberOfBytes": "32",
        "value": "t_bool"
      },
      "t_mapping(t_address,t_mapping(t_address,t_bool))": {
        "encoding": "mapping",
        "key": "t_address",
        "label": "mapping(address => mapping(address => bool))",
        "numberOfBytes": "32",
        "value": "t_mapping(t_address,t_bool)"
      },
      "t_mapping(t_address,t_uint256)": {
        "encoding": "mapping",
        "key": "t_address",
        "label": "mapping(address => uint256)",
        "numberOfBytes": "32",
        "value": "t_uint256"
      },
      "t_mapping(t_bytes32,t_struct(RoleData)401_storage)": {
        "encoding": "mapping",
        "key": "t_bytes32",
        "label": "mapping(bytes32 => struct AccessControl.RoleData)",
        "numberOfBytes": "32",
        "value": "t_struct(RoleData)401_storage"
      },
      "t_mapping(t_bytes32,t_uint256)": {
        "encoding": "mapping",
        "key": "t_bytes32",
        "label": "mapping(bytes32 => uint256)",
        "numberOfBytes": "32",
        "value": "t_uint256"
      },
      "t_mapping(t_bytes4,t_bool)": {
        "encoding": "mapping",
        "key": "t_bytes4",
        "label": "mapping(bytes4 => bool)",
        "numberOfBytes": "32",
        "value": "t_bool"
      },
      "t_mapping(t_uint256,t_address)": {
        "encoding": "mapping",
        "key": "t_uint256",
        "label": "mapping(uint256 => address)",
        "numberOfBytes": "32",
        "value": "t_address"
      },
      "t_mapping(t_uint256,t_string_storage)": {
        "encoding": "mapping",
        "key": "t_uint256",
        "label": "mapping(uint256 => string)",
        "numberOfBytes": "32",
        "value": "t_string_storage"
      },
      "t_mapping(t_uint256,t_struct(TokenRoyalty)28_storage)": {
        "encoding": "mapping",
        "key": "t_uint256",
        "label": "mapping(uint256 => struct IEIP2981RoyaltyOverride.TokenRoyalty)",
        "numberOfBytes": "32",
        "value": "t_struct(TokenRoyalty)28_storage"
      },
      "t_string_storage": {
        "encoding": "bytes",
        "label": "string",
        "numberOfBytes": "32"
      },
      "t_struct(RoleData)401_storage": {
        "encoding": "inplace",
        "label": "struct AccessControl.RoleData",
        "members": [
          {
            "astId": 398,
            "contract": "contracts/collections/ERC721/presets/ERC721OneOfOneCollection.sol:ERC721OneOfOneCollection",
            "label": "members",
            "offset": 0,
            "slot": "0",
            "type": "t_mapping(t_address,t_bool)"
          },
          {
            "astId": 400,
            "contract": "contracts/collections/ERC721/presets/ERC721OneOfOneCollection.sol:ERC721OneOfOneCollection",
            "label": "adminRole",
            "offset": 0,
            "slot": "1",
            "type": "t_bytes32"
          }
        ],
        "numberOfBytes": "64"
      },
      "t_struct(Set)5206_storage": {
        "encoding": "inplace",
        "label": "struct EnumerableSet.Set",
        "members": [
          {
            "astId": 5201,
            "contract": "contracts/collections/ERC721/presets/ERC721OneOfOneCollection.sol:ERC721OneOfOneCollection",
            "label": "_values",
            "offset": 0,
            "slot": "0",
            "type": "t_array(t_bytes32)dyn_storage"
          },
          {
            "astId": 5205,
            "contract": "contracts/collections/ERC721/presets/ERC721OneOfOneCollection.sol:ERC721OneOfOneCollection",
            "label": "_indexes",
            "offset": 0,
            "slot": "1",
            "type": "t_mapping(t_bytes32,t_uint256)"
          }
        ],
        "numberOfBytes": "64"
      },
      "t_struct(TokenRoyalty)28_storage": {
        "encoding": "inplace",
        "label": "struct IEIP2981RoyaltyOverride.TokenRoyalty",
        "members": [
          {
            "astId": 25,
            "contract": "contracts/collections/ERC721/presets/ERC721OneOfOneCollection.sol:ERC721OneOfOneCollection",
            "label": "recipient",
            "offset": 0,
            "slot": "0",
            "type": "t_address"
          },
          {
            "astId": 27,
            "contract": "contracts/collections/ERC721/presets/ERC721OneOfOneCollection.sol:ERC721OneOfOneCollection",
            "label": "bps",
            "offset": 20,
            "slot": "0",
            "type": "t_uint16"
          }
        ],
        "numberOfBytes": "32"
      },
      "t_struct(UintSet)5664_storage": {
        "encoding": "inplace",
        "label": "struct EnumerableSet.UintSet",
        "members": [
          {
            "astId": 5663,
            "contract": "contracts/collections/ERC721/presets/ERC721OneOfOneCollection.sol:ERC721OneOfOneCollection",
            "label": "_inner",
            "offset": 0,
            "slot": "0",
            "type": "t_struct(Set)5206_storage"
          }
        ],
        "numberOfBytes": "64"
      },
      "t_uint16": {
        "encoding": "inplace",
        "label": "uint16",
        "numberOfBytes": "2"
      },
      "t_uint256": {
        "encoding": "inplace",
        "label": "uint256",
        "numberOfBytes": "32"
      },
      "t_uint8": {
        "encoding": "inplace",
        "label": "uint8",
        "numberOfBytes": "1"
      }
    }
  }
}