{
  "address": "0xd59375B90526C16a007a779c15A844627fdBe716",
  "abi": [
    {
      "inputs": [
        {
          "components": [
            {
              "internalType": "address",
              "name": "ticketToken",
              "type": "address"
            },
            {
              "internalType": "uint64",
              "name": "lockedUntilTimestamp",
              "type": "uint64"
            },
            {
              "internalType": "uint256",
              "name": "totalTickets",
              "type": "uint256"
            },
            {
              "internalType": "uint256",
              "name": "emissionRate",
              "type": "uint256"
            },
            {
              "internalType": "uint64",
              "name": "emissionTimeUnit",
              "type": "uint64"
            },
            {
              "internalType": "uint64",
              "name": "emissionStart",
              "type": "uint64"
            },
            {
              "internalType": "uint64",
              "name": "emissionEnd",
              "type": "uint64"
            }
          ],
          "internalType": "struct ERC721EqualEmissionStream.Config",
          "name": "config",
          "type": "tuple"
        }
      ],
      "stateMutability": "nonpayable",
      "type": "constructor"
    },
    {
      "anonymous": false,
      "inputs": [
        {
          "indexed": false,
          "internalType": "address",
          "name": "operator",
          "type": "address"
        },
        {
          "indexed": false,
          "internalType": "address",
          "name": "beneficiary",
          "type": "address"
        },
        {
          "indexed": false,
          "internalType": "uint256",
          "name": "ticketTokenId",
          "type": "uint256"
        },
        {
          "indexed": false,
          "internalType": "address",
          "name": "claimToken",
          "type": "address"
        },
        {
          "indexed": false,
          "internalType": "uint256",
          "name": "releasedAmount",
          "type": "uint256"
        }
      ],
      "name": "Claim",
      "type": "event"
    },
    {
      "anonymous": false,
      "inputs": [
        {
          "indexed": false,
          "internalType": "address",
          "name": "operator",
          "type": "address"
        },
        {
          "indexed": false,
          "internalType": "address",
          "name": "beneficiary",
          "type": "address"
        },
        {
          "indexed": false,
          "internalType": "uint256[]",
          "name": "ticketTokenIds",
          "type": "uint256[]"
        },
        {
          "indexed": false,
          "internalType": "address",
          "name": "claimToken",
          "type": "address"
        },
        {
          "indexed": false,
          "internalType": "uint256",
          "name": "releasedAmount",
          "type": "uint256"
        }
      ],
      "name": "ClaimMany",
      "type": "event"
    },
    {
      "anonymous": false,
      "inputs": [
        {
          "indexed": false,
          "internalType": "uint8",
          "name": "version",
          "type": "uint8"
        }
      ],
      "name": "Initialized",
      "type": "event"
    },
    {
      "anonymous": false,
      "inputs": [
        {
          "indexed": true,
          "internalType": "address",
          "name": "previousOwner",
          "type": "address"
        },
        {
          "indexed": true,
          "internalType": "address",
          "name": "newOwner",
          "type": "address"
        }
      ],
      "name": "OwnershipTransferred",
      "type": "event"
    },
    {
      "anonymous": false,
      "inputs": [],
      "name": "WithdrawPowerRevoked",
      "type": "event"
    },
    {
      "anonymous": false,
      "inputs": [
        {
          "indexed": false,
          "internalType": "address[]",
          "name": "claimTokens",
          "type": "address[]"
        },
        {
          "indexed": false,
          "internalType": "uint256[]",
          "name": "amounts",
          "type": "uint256[]"
        }
      ],
      "name": "Withdrawn",
      "type": "event"
    },
    {
      "inputs": [
        {
          "internalType": "uint256",
          "name": "ticketTokenId",
          "type": "uint256"
        }
      ],
      "name": "claim",
      "outputs": [],
      "stateMutability": "nonpayable",
      "type": "function"
    },
    {
      "inputs": [
        {
          "internalType": "uint256[]",
          "name": "ticketTokenIds",
          "type": "uint256[]"
        }
      ],
      "name": "claim",
      "outputs": [],
      "stateMutability": "nonpayable",
      "type": "function"
    },
    {
      "inputs": [
        {
          "internalType": "uint256",
          "name": "ticketTokenId",
          "type": "uint256"
        },
        {
          "internalType": "address",
          "name": "claimToken",
          "type": "address"
        }
      ],
      "name": "claim",
      "outputs": [],
      "stateMutability": "nonpayable",
      "type": "function"
    },
    {
      "inputs": [
        {
          "internalType": "uint256[]",
          "name": "ticketTokenIds",
          "type": "uint256[]"
        },
        {
          "internalType": "address",
          "name": "claimToken",
          "type": "address"
        },
        {
          "internalType": "address",
          "name": "beneficiary",
          "type": "address"
        }
      ],
      "name": "claim",
      "outputs": [],
      "stateMutability": "nonpayable",
      "type": "function"
    },
    {
      "inputs": [],
      "name": "claimLockedUntil",
      "outputs": [
        {
          "internalType": "uint64",
          "name": "",
          "type": "uint64"
        }
      ],
      "stateMutability": "view",
      "type": "function"
    },
    {
      "inputs": [
        {
          "internalType": "uint64",
          "name": "calcUntil",
          "type": "uint64"
        }
      ],
      "name": "emissionAmountUntil",
      "outputs": [
        {
          "internalType": "uint256",
          "name": "",
          "type": "uint256"
        }
      ],
      "stateMutability": "view",
      "type": "function"
    },
    {
      "inputs": [],
      "name": "emissionEnd",
      "outputs": [
        {
          "internalType": "uint64",
          "name": "",
          "type": "uint64"
        }
      ],
      "stateMutability": "view",
      "type": "function"
    },
    {
      "inputs": [],
      "name": "emissionRate",
      "outputs": [
        {
          "internalType": "uint256",
          "name": "",
          "type": "uint256"
        }
      ],
      "stateMutability": "view",
      "type": "function"
    },
    {
      "inputs": [],
      "name": "emissionStart",
      "outputs": [
        {
          "internalType": "uint64",
          "name": "",
          "type": "uint64"
        }
      ],
      "stateMutability": "view",
      "type": "function"
    },
    {
      "inputs": [],
      "name": "emissionTimeUnit",
      "outputs": [
        {
          "internalType": "uint64",
          "name": "",
          "type": "uint64"
        }
      ],
      "stateMutability": "view",
      "type": "function"
    },
    {
      "inputs": [
        {
          "internalType": "uint256",
          "name": "",
          "type": "uint256"
        },
        {
          "internalType": "address",
          "name": "",
          "type": "address"
        }
      ],
      "name": "entitlements",
      "outputs": [
        {
          "internalType": "uint256",
          "name": "totalClaimed",
          "type": "uint256"
        },
        {
          "internalType": "uint256",
          "name": "lastClaimedAt",
          "type": "uint256"
        }
      ],
      "stateMutability": "view",
      "type": "function"
    },
    {
      "inputs": [],
      "name": "hasERC721EmissionReleaseExtension",
      "outputs": [
        {
          "internalType": "bool",
          "name": "",
          "type": "bool"
        }
      ],
      "stateMutability": "pure",
      "type": "function"
    },
    {
      "inputs": [],
      "name": "hasERC721EqualSplitExtension",
      "outputs": [
        {
          "internalType": "bool",
          "name": "",
          "type": "bool"
        }
      ],
      "stateMutability": "pure",
      "type": "function"
    },
    {
      "inputs": [],
      "name": "hasERC721LockableClaimExtension",
      "outputs": [
        {
          "internalType": "bool",
          "name": "",
          "type": "bool"
        }
      ],
      "stateMutability": "pure",
      "type": "function"
    },
    {
      "inputs": [
        {
          "components": [
            {
              "internalType": "address",
              "name": "ticketToken",
              "type": "address"
            },
            {
              "internalType": "uint64",
              "name": "lockedUntilTimestamp",
              "type": "uint64"
            },
            {
              "internalType": "uint256",
              "name": "totalTickets",
              "type": "uint256"
            },
            {
              "internalType": "uint256",
              "name": "emissionRate",
              "type": "uint256"
            },
            {
              "internalType": "uint64",
              "name": "emissionTimeUnit",
              "type": "uint64"
            },
            {
              "internalType": "uint64",
              "name": "emissionStart",
              "type": "uint64"
            },
            {
              "internalType": "uint64",
              "name": "emissionEnd",
              "type": "uint64"
            }
          ],
          "internalType": "struct ERC721EqualEmissionStream.Config",
          "name": "config",
          "type": "tuple"
        },
        {
          "internalType": "address",
          "name": "deployer",
          "type": "address"
        }
      ],
      "name": "initialize",
      "outputs": [],
      "stateMutability": "nonpayable",
      "type": "function"
    },
    {
      "inputs": [
        {
          "internalType": "uint64",
          "name": "newValue",
          "type": "uint64"
        }
      ],
      "name": "lockUntil",
      "outputs": [],
      "stateMutability": "nonpayable",
      "type": "function"
    },
    {
      "inputs": [],
      "name": "lockWithdrawMode",
      "outputs": [],
      "stateMutability": "nonpayable",
      "type": "function"
    },
    {
      "inputs": [],
      "name": "lockWithdrawRecipient",
      "outputs": [],
      "stateMutability": "nonpayable",
      "type": "function"
    },
    {
      "inputs": [],
      "name": "lockedUntilTimestamp",
      "outputs": [
        {
          "internalType": "uint64",
          "name": "",
          "type": "uint64"
        }
      ],
      "stateMutability": "view",
      "type": "function"
    },
    {
      "inputs": [],
      "name": "name",
      "outputs": [
        {
          "internalType": "string",
          "name": "",
          "type": "string"
        }
      ],
      "stateMutability": "view",
      "type": "function"
    },
    {
      "inputs": [
        {
          "internalType": "address",
          "name": "",
          "type": "address"
        },
        {
          "internalType": "address",
          "name": "",
          "type": "address"
        },
        {
          "internalType": "uint256",
          "name": "",
          "type": "uint256"
        },
        {
          "internalType": "bytes",
          "name": "",
          "type": "bytes"
        }
      ],
      "name": "onERC721Received",
      "outputs": [
        {
          "internalType": "bytes4",
          "name": "",
          "type": "bytes4"
        }
      ],
      "stateMutability": "nonpayable",
      "type": "function"
    },
    {
      "inputs": [],
      "name": "owner",
      "outputs": [
        {
          "internalType": "address",
          "name": "",
          "type": "address"
        }
      ],
      "stateMutability": "view",
      "type": "function"
    },
    {
      "inputs": [
        {
          "internalType": "uint256[]",
          "name": "tokenIds",
          "type": "uint256[]"
        }
      ],
      "name": "rateByToken",
      "outputs": [
        {
          "internalType": "uint256",
          "name": "",
          "type": "uint256"
        }
      ],
      "stateMutability": "view",
      "type": "function"
    },
    {
      "inputs": [
        {
          "internalType": "uint64",
          "name": "calcUntil",
          "type": "uint64"
        }
      ],
      "name": "releasedAmountUntil",
      "outputs": [
        {
          "internalType": "uint256",
          "name": "",
          "type": "uint256"
        }
      ],
      "stateMutability": "view",
      "type": "function"
    },
    {
      "inputs": [],
      "name": "renounceOwnership",
      "outputs": [],
      "stateMutability": "nonpayable",
      "type": "function"
    },
    {
      "inputs": [],
      "name": "revokeWithdrawPower",
      "outputs": [],
      "stateMutability": "nonpayable",
      "type": "function"
    },
    {
      "inputs": [
        {
          "internalType": "uint64",
          "name": "newValue",
          "type": "uint64"
        }
      ],
      "name": "setClaimLockedUntil",
      "outputs": [],
      "stateMutability": "nonpayable",
      "type": "function"
    },
    {
      "inputs": [
        {
          "internalType": "uint64",
          "name": "newValue",
          "type": "uint64"
        }
      ],
      "name": "setEmissionEnd",
      "outputs": [],
      "stateMutability": "nonpayable",
      "type": "function"
    },
    {
      "inputs": [
        {
          "internalType": "uint256",
          "name": "newValue",
          "type": "uint256"
        }
      ],
      "name": "setEmissionRate",
      "outputs": [],
      "stateMutability": "nonpayable",
      "type": "function"
    },
    {
      "inputs": [
        {
          "internalType": "uint64",
          "name": "newValue",
          "type": "uint64"
        }
      ],
      "name": "setEmissionStart",
      "outputs": [],
      "stateMutability": "nonpayable",
      "type": "function"
    },
    {
      "inputs": [
        {
          "internalType": "uint64",
          "name": "newValue",
          "type": "uint64"
        }
      ],
      "name": "setEmissionTimeUnit",
      "outputs": [],
      "stateMutability": "nonpayable",
      "type": "function"
    },
    {
      "inputs": [
        {
          "internalType": "uint256",
          "name": "newValue",
          "type": "uint256"
        }
      ],
      "name": "setTotalTickets",
      "outputs": [],
      "stateMutability": "nonpayable",
      "type": "function"
    },
    {
      "inputs": [
        {
          "internalType": "enum WithdrawMode",
          "name": "_withdrawMode",
          "type": "uint8"
        }
      ],
      "name": "setWithdrawMode",
      "outputs": [],
      "stateMutability": "nonpayable",
      "type": "function"
    },
    {
      "inputs": [
        {
          "internalType": "address",
          "name": "_withdrawRecipient",
          "type": "address"
        }
      ],
      "name": "setWithdrawRecipient",
      "outputs": [],
      "stateMutability": "nonpayable",
      "type": "function"
    },
    {
      "inputs": [
        {
          "internalType": "uint256[]",
          "name": "ticketTokenIds",
          "type": "uint256[]"
        },
        {
          "internalType": "address",
          "name": "claimToken",
          "type": "address"
        }
      ],
      "name": "streamClaimableAmount",
      "outputs": [
        {
          "internalType": "uint256",
          "name": "",
          "type": "uint256"
        }
      ],
      "stateMutability": "view",
      "type": "function"
    },
    {
      "inputs": [
        {
          "internalType": "uint256",
          "name": "ticketTokenId",
          "type": "uint256"
        }
      ],
      "name": "streamClaimableAmount",
      "outputs": [
        {
          "internalType": "uint256",
          "name": "",
          "type": "uint256"
        }
      ],
      "stateMutability": "view",
      "type": "function"
    },
    {
      "inputs": [
        {
          "internalType": "uint256",
          "name": "ticketTokenId",
          "type": "uint256"
        },
        {
          "internalType": "address",
          "name": "claimToken",
          "type": "address"
        }
      ],
      "name": "streamClaimableAmount",
      "outputs": [
        {
          "internalType": "uint256",
          "name": "",
          "type": "uint256"
        }
      ],
      "stateMutability": "view",
      "type": "function"
    },
    {
      "inputs": [
        {
          "internalType": "uint256[]",
          "name": "ticketTokenIds",
          "type": "uint256[]"
        },
        {
          "internalType": "address",
          "name": "claimToken",
          "type": "address"
        }
      ],
      "name": "streamTotalClaimed",
      "outputs": [
        {
          "internalType": "uint256",
          "name": "",
          "type": "uint256"
        }
      ],
      "stateMutability": "view",
      "type": "function"
    },
    {
      "inputs": [],
      "name": "streamTotalClaimed",
      "outputs": [
        {
          "internalType": "uint256",
          "name": "",
          "type": "uint256"
        }
      ],
      "stateMutability": "view",
      "type": "function"
    },
    {
      "inputs": [
        {
          "internalType": "uint256[]",
          "name": "ticketTokenIds",
          "type": "uint256[]"
        }
      ],
      "name": "streamTotalClaimed",
      "outputs": [
        {
          "internalType": "uint256",
          "name": "",
          "type": "uint256"
        }
      ],
      "stateMutability": "view",
      "type": "function"
    },
    {
      "inputs": [
        {
          "internalType": "uint256",
          "name": "ticketTokenId",
          "type": "uint256"
        },
        {
          "internalType": "address",
          "name": "claimToken",
          "type": "address"
        }
      ],
      "name": "streamTotalClaimed",
      "outputs": [
        {
          "internalType": "uint256",
          "name": "",
          "type": "uint256"
        }
      ],
      "stateMutability": "view",
      "type": "function"
    },
    {
      "inputs": [
        {
          "internalType": "address",
          "name": "claimToken",
          "type": "address"
        }
      ],
      "name": "streamTotalClaimed",
      "outputs": [
        {
          "internalType": "uint256",
          "name": "",
          "type": "uint256"
        }
      ],
      "stateMutability": "view",
      "type": "function"
    },
    {
      "inputs": [
        {
          "internalType": "uint256",
          "name": "ticketTokenId",
          "type": "uint256"
        }
      ],
      "name": "streamTotalClaimed",
      "outputs": [
        {
          "internalType": "uint256",
          "name": "",
          "type": "uint256"
        }
      ],
      "stateMutability": "view",
      "type": "function"
    },
    {
      "inputs": [],
      "name": "streamTotalSupply",
      "outputs": [
        {
          "internalType": "uint256",
          "name": "",
          "type": "uint256"
        }
      ],
      "stateMutability": "view",
      "type": "function"
    },
    {
      "inputs": [
        {
          "internalType": "address",
          "name": "claimToken",
          "type": "address"
        }
      ],
      "name": "streamTotalSupply",
      "outputs": [
        {
          "internalType": "uint256",
          "name": "",
          "type": "uint256"
        }
      ],
      "stateMutability": "view",
      "type": "function"
    },
    {
      "inputs": [
        {
          "internalType": "bytes4",
          "name": "interfaceId",
          "type": "bytes4"
        }
      ],
      "name": "supportsInterface",
      "outputs": [
        {
          "internalType": "bool",
          "name": "",
          "type": "bool"
        }
      ],
      "stateMutability": "view",
      "type": "function"
    },
    {
      "inputs": [],
      "name": "ticketToken",
      "outputs": [
        {
          "internalType": "address",
          "name": "",
          "type": "address"
        }
      ],
      "stateMutability": "view",
      "type": "function"
    },
    {
      "inputs": [],
      "name": "totalTickets",
      "outputs": [
        {
          "internalType": "uint256",
          "name": "",
          "type": "uint256"
        }
      ],
      "stateMutability": "view",
      "type": "function"
    },
    {
      "inputs": [
        {
          "internalType": "address",
          "name": "newOwner",
          "type": "address"
        }
      ],
      "name": "transferOwnership",
      "outputs": [],
      "stateMutability": "nonpayable",
      "type": "function"
    },
    {
      "inputs": [],
      "name": "version",
      "outputs": [
        {
          "internalType": "string",
          "name": "",
          "type": "string"
        }
      ],
      "stateMutability": "view",
      "type": "function"
    },
    {
      "inputs": [
        {
          "internalType": "address[]",
          "name": "claimTokens",
          "type": "address[]"
        },
        {
          "internalType": "uint256[]",
          "name": "amounts",
          "type": "uint256[]"
        }
      ],
      "name": "withdraw",
      "outputs": [],
      "stateMutability": "nonpayable",
      "type": "function"
    },
    {
      "inputs": [],
      "name": "withdrawMode",
      "outputs": [
        {
          "internalType": "enum WithdrawMode",
          "name": "",
          "type": "uint8"
        }
      ],
      "stateMutability": "view",
      "type": "function"
    },
    {
      "inputs": [],
      "name": "withdrawModeLocked",
      "outputs": [
        {
          "internalType": "bool",
          "name": "",
          "type": "bool"
        }
      ],
      "stateMutability": "view",
      "type": "function"
    },
    {
      "inputs": [],
      "name": "withdrawPowerRevoked",
      "outputs": [
        {
          "internalType": "bool",
          "name": "",
          "type": "bool"
        }
      ],
      "stateMutability": "view",
      "type": "function"
    },
    {
      "inputs": [],
      "name": "withdrawRecipient",
      "outputs": [
        {
          "internalType": "address",
          "name": "",
          "type": "address"
        }
      ],
      "stateMutability": "view",
      "type": "function"
    },
    {
      "inputs": [],
      "name": "withdrawRecipientLocked",
      "outputs": [
        {
          "internalType": "bool",
          "name": "",
          "type": "bool"
        }
      ],
      "stateMutability": "view",
      "type": "function"
    },
    {
      "stateMutability": "payable",
      "type": "receive"
    }
  ],
  "transactionHash": "0x77865481d207042ce6dbd68a2ef547cde2b8b0bfcd6c8d061d4b928da6825298",
  "args": [
    {
      "ticketToken": "0x0000000000000000000000000000000000000000",
      "lockedUntilTimestamp": 0,
      "totalTickets": 0,
      "emissionRate": 0,
      "emissionTimeUnit": 0,
      "emissionStart": 0,
      "emissionEnd": 0,
      "claimLockedUntil": 0
    }
  ],
  "numDeployments": 6,
  "solcInputHash": "db704ba0987a61a5a207234a2424761a",
  "bytecode": "0x60806040523480156200001157600080fd5b50604051620035d1380380620035d18339810160408190526200003491620005b7565b6200003f3362000057565b6001600255620000508133620000b2565b5062000721565b600080546001600160a01b038381166201000081810262010000600160b01b0319851617855560405193049190911692909183917f8be0079c531659141344cd1fd0a4f28419497f9722a3daafe3b4186f6b6457e091a35050565b6000620000c0600162000184565b90508015620000d9576000805461ff0019166101001790555b620000e48262000057565b620000f182600062000236565b8251602084015162000104919062000270565b62000128836060015184608001518560a001518660c00151620002a660201b60201c565b60408301516200013890620002e4565b80156200017f576000805461ff0019169055604051600181527f7f26b83ff96e1f2b6a682f133852f6798a09c465da95921460cefb38474024989060200160405180910390a15b505050565b60008054610100900460ff1615620001ed578160ff166001148015620001bd5750620001bb306200031c60201b62001c571760201c565b155b620001e55760405162461bcd60e51b8152600401620001dc9062000672565b60405180910390fd5b506000919050565b60005460ff808416911610620002175760405162461bcd60e51b8152600401620001dc9062000672565b506000805460ff191660ff92909216919091179055600190565b919050565b600054610100900460ff16620002605760405162461bcd60e51b8152600401620001dc90620006c0565b6200026c82826200032b565b5050565b600054610100900460ff166200029a5760405162461bcd60e51b8152600401620001dc90620006c0565b6200026c8282620003d2565b600054610100900460ff16620002d05760405162461bcd60e51b8152600401620001dc90620006c0565b620002de848484846200043c565b50505050565b600054610100900460ff166200030e5760405162461bcd60e51b8152600401620001dc90620006c0565b6200031981620004c7565b50565b6001600160a01b03163b151590565b600054610100900460ff16620003555760405162461bcd60e51b8152600401620001dc90620006c0565b6200036763ac2ba33360e01b62000503565b60098054600160401b600160e01b03198116680100000000000000006001600160a01b038616029081178355839291600160401b62ff000160e01b03191660ff60f01b1990911617600160f01b836003811115620003c957620003c96200070b565b02179055505050565b600054610100900460ff16620003fc5760405162461bcd60e51b8152600401620001dc90620006c0565b600380546001600160401b038316600160a01b026001600160e01b03199091166001600160a01b038516171790556200026c631ba050e960e21b62000503565b600054610100900460ff16620004665760405162461bcd60e51b8152600401620001dc90620006c0565b6006849055600780546001600160401b03838116600160801b02600160801b600160c01b031986831668010000000000000000026001600160801b0319909416928816929092179290921716179055620002de63c9f600a960e01b62000503565b600054610100900460ff16620004f15760405162461bcd60e51b8152600401620001dc90620006c0565b600881905562000319632d5305cb60e21b5b6001600160e01b031980821614156200055f5760405162461bcd60e51b815260206004820152601c60248201527f4552433136353a20696e76616c696420696e74657266616365206964000000006044820152606401620001dc565b6001600160e01b0319166000908152600160208190526040909120805460ff19169091179055565b80516001600160a01b03811681146200023157600080fd5b80516001600160401b03811681146200023157600080fd5b600060e08284031215620005ca57600080fd5b60405160e081016001600160401b0381118282101715620005fb57634e487b7160e01b600052604160045260246000fd5b604052620006098362000587565b815262000619602084016200059f565b6020820152604083015160408201526060830151606082015262000640608084016200059f565b60808201526200065360a084016200059f565b60a08201526200066660c084016200059f565b60c08201529392505050565b6020808252602e908201527f496e697469616c697a61626c653a20636f6e747261637420697320616c72656160408201526d191e481a5b9a5d1a585b1a5e995960921b606082015260800190565b6020808252602b908201527f496e697469616c697a61626c653a20636f6e7472616374206973206e6f74206960408201526a6e697469616c697a696e6760a81b606082015260800190565b634e487b7160e01b600052602160045260246000fd5b612ea080620007316000396000f3fe60806040526004361061028f5760003560e01c806389c6b8151161015657806389c6b815146107145780638da5cb5b146107345780639199690b146103dc578063968d9b2c1461075657806396afc450146107765780639edfe8301461078c578063a1bdb15e146107ac578063a1cf6493146107cc578063a86b21e81461080f578063aa02a74b1461082f578063aaf2f9991461084f578063ae890c0a1461086f578063af121f541461088f578063c0881849146108b0578063c0bb38ff146108e6578063c723955a14610906578063d1335b69146103dc578063d5ed4d5a1461091b578063d97314f51461093b578063da82b2271461095b578063dcbe353f14610970578063dd11247e14610997578063ddd5e1b2146109ad578063de6d6d96146109cd578063f2fde38b146109ed578063f389b6e414610a0d578063f4415ad614610a2d578063f66e38c214610a6557600080fd5b80630191c0af146102a857806301ffc9a7146102db57806306fdde031461030b57806314427a9614610360578063150b7a02146103985780631bc51b26146103dc5780631c725fdc146103f057806325289bad146104105780632890d033146104375780632c0e13131461044c5780632c2330671461046c5780632d00b5871461048c578063379607f5146104ba5780633b3f12e2146104da5780633d2dded5146104fa57806349561cb914610537578063513da9481461055857806354fd4d501461057f57806357dc48c8146105ae5780636057e0ec1461060257806361949636146106235780636ba4c13814610643578063715018a61461066357806378b094ca14610678578063790c0c73146106985780638368909c146106b8578063837fe140146106df57806384fd5ae0146106f457600080fd5b366102a357600034116102a157600080fd5b005b600080fd5b3480156102b457600080fd5b506102c86102c33660046125fc565b610a85565b6040519081526020015b60405180910390f35b3480156102e757600080fd5b506102fb6102f6366004612652565b610add565b60405190151581526020016102d2565b34801561031757600080fd5b506103536040518060400160405280601c81526020017b45524337323120457175616c20456d697373696f6e2053747265616d60201b81525081565b6040516102d2919061267c565b34801561036c57600080fd5b50600954610380906001600160401b031681565b6040516001600160401b0390911681526020016102d2565b3480156103a457600080fd5b506103c36103b336600461273f565b630a85bd0160e11b949350505050565b6040516001600160e01b031990911681526020016102d2565b3480156103e857600080fd5b5060016102fb565b3480156103fc57600080fd5b506102a161040b366004612819565b610b1d565b34801561041c57600080fd5b5060035461038090600160a01b90046001600160401b031681565b34801561044357600080fd5b506102c8610bd7565b34801561045857600080fd5b506102a1610467366004612819565b610be8565b34801561047857600080fd5b506102a1610487366004612834565b610c6b565b34801561049857600080fd5b506009546104ad90600160f01b900460ff1681565b6040516102d2919061286b565b3480156104c657600080fd5b506102a16104d5366004612893565b610cf1565b3480156104e657600080fd5b506102c86104f53660046125fc565b610cff565b34801561050657600080fd5b506000805260056020527f05b8ccbb9d4d8fb16ea74ce3c29a41f1b461fbdaff4714a0d9a8eb05499746bc546102c8565b34801561054357600080fd5b506009546102fb90600160f81b900460ff1681565b34801561056457600080fd5b5060075461038090600160401b90046001600160401b031681565b34801561058b57600080fd5b5061035360405180604001604052806003815260200162302e3160e81b81525081565b3480156105ba57600080fd5b506105ed6105c93660046128ac565b60046020908152600092835260408084209091529082529020805460019091015482565b604080519283526020830191909152016102d2565b34801561060e57600080fd5b506009546102fb90600160e01b900460ff1681565b34801561062f57600080fd5b50600754610380906001600160401b031681565b34801561064f57600080fd5b506102a161065e3660046128dc565b610d7d565b34801561066f57600080fd5b506102a1610d8e565b34801561068457600080fd5b506102a1610693366004612819565b610dc9565b3480156106a457600080fd5b506102c86106b336600461291d565b610e56565b3480156106c457600080fd5b5060075461038090600160801b90046001600160401b031681565b3480156106eb57600080fd5b506102a1610f29565b34801561070057600080fd5b506102c861070f3660046128dc565b610f97565b34801561072057600080fd5b506102c861072f3660046128dc565b610fb6565b34801561074057600080fd5b50610749610fc4565b6040516102d2919061293a565b34801561076257600080fd5b506102c8610771366004612893565b610fd9565b34801561078257600080fd5b506102c860065481565b34801561079857600080fd5b506102c86107a7366004612819565b610fe6565b3480156107b857600080fd5b506102a16107c7366004612893565b61102b565b3480156107d857600080fd5b506102c86107e73660046128ac565b60009182526004602090815260408084206001600160a01b0393909316845291905290205490565b34801561081b57600080fd5b506102c861082a366004612819565b611091565b34801561083b57600080fd5b506102a161084a36600461294e565b6110d7565b34801561085b57600080fd5b506102a161086a366004612819565b611195565b34801561087b57600080fd5b506102a161088a366004612893565b611223565b34801561089b57600080fd5b506009546102fb90600160e81b900460ff1681565b3480156108bc57600080fd5b506102c86108cb36600461291d565b6001600160a01b031660009081526005602052604090205490565b3480156108f257600080fd5b506102a161090136600461291d565b611289565b34801561091257600080fd5b506102a161130e565b34801561092757600080fd5b50600354610749906001600160a01b031681565b34801561094757600080fd5b506102a1610956366004612819565b611396565b34801561096757600080fd5b506102a1611419565b34801561097c57600080fd5b5060095461074990600160401b90046001600160a01b031681565b3480156109a357600080fd5b506102c860085481565b3480156109b957600080fd5b506102a16109c83660046128ac565b611486565b3480156109d957600080fd5b506102a16109e83660046129f6565b61168f565b3480156109f957600080fd5b506102a1610a0836600461291d565b6118ed565b348015610a1957600080fd5b506102a1610a28366004612a61565b61198a565b348015610a3957600080fd5b506102c8610a48366004612893565b600090815260046020908152604080832083805290915290205490565b348015610a7157600080fd5b506102c8610a803660046128ac565b611bff565b600080805b84811015610ad257610ab4868683818110610aa757610aa7612ac8565b9050602002013585611bff565b610abe9083612af4565b915080610aca81612b0c565b915050610a8a565b5090505b9392505050565b60006301ffc9a760e01b6001600160e01b031983161480610b1757506001600160e01b0319821660009081526001602052604090205460ff165b92915050565b33610b26610fc4565b6001600160a01b031614610b555760405162461bcd60e51b8152600401610b4c90612b27565b60405180910390fd5b6003546001600160401b03600160a01b909104811690821611610baa5760405162461bcd60e51b815260206004820152600d60248201526c10d0539393d517d49155d25391609a1b6044820152606401610b4c565b600380546001600160401b03909216600160a01b0267ffffffffffffffff60a01b19909216919091179055565b6000610be36000610e56565b905090565b33610bf1610fc4565b6001600160a01b031614610c175760405162461bcd60e51b8152600401610b4c90612b27565b60035442600160a01b9091046001600160401b031610610c495760405162461bcd60e51b8152600401610b4c90612b5c565b600980546001600160401b0319166001600160401b0392909216919091179055565b33610c74610fc4565b6001600160a01b031614610c9a5760405162461bcd60e51b8152600401610b4c90612b27565b600954600160f81b900460ff1615610cc45760405162461bcd60e51b8152600401610b4c90612b83565b6009805482919060ff60f01b1916600160f01b836003811115610ce957610ce9612855565b021790555050565b610cfc816000611486565b50565b600080805b84811015610ad25760046000878784818110610d2257610d22612ac8565b9050602002013581526020019081526020016000206000856001600160a01b03166001600160a01b031681526020019081526020016000206000015482610d699190612af4565b915080610d7581612b0c565b915050610d04565b610d8a828260003361198a565b5050565b33610d97610fc4565b6001600160a01b031614610dbd5760405162461bcd60e51b8152600401610b4c90612b27565b610dc76000611c66565b565b33610dd2610fc4565b6001600160a01b031614610df85760405162461bcd60e51b8152600401610b4c90612b27565b60035442600160a01b9091046001600160401b031610610e2a5760405162461bcd60e51b8152600401610b4c90612b5c565b600780546001600160401b03909216600160801b02600160801b600160c01b0319909216919091179055565b60006001600160a01b038216610e8a576001600160a01b038216600090815260056020526040902054610b17904790612af4565b6040516370a0823160e01b81526001600160a01b038316906370a0823190610eb690309060040161293a565b60206040518083038186803b158015610ece57600080fd5b505afa158015610ee2573d6000803e3d6000fd5b505050506040513d601f19601f82011682018060405250810190610f069190612ba3565b6001600160a01b038316600090815260056020526040902054610b179190612af4565b33610f32610fc4565b6001600160a01b031614610f585760405162461bcd60e51b8152600401610b4c90612b27565b600954600160e01b900460ff1615610f825760405162461bcd60e51b8152600401610b4c90612b83565b6009805460ff60e01b1916600160e01b179055565b60085460065460009190610fac908490612bbc565b610ad69190612bf1565b6000610ad683836000610cff565b6000546201000090046001600160a01b031690565b6000610b17826000611bff565b6007546000906001600160401b038082169161100b91600160401b9091041684612c05565b6110159190612c2d565b6001600160401b0316600654610b179190612bbc565b33611034610fc4565b6001600160a01b03161461105a5760405162461bcd60e51b8152600401610b4c90612b27565b60035442600160a01b9091046001600160401b03161061108c5760405162461bcd60e51b8152600401610b4c90612b5c565b600655565b6007546006546000916001600160401b0380821692916110ba91600160401b9091041685612c05565b6001600160401b03166110cd9190612bbc565b610b179190612bf1565b60006110e36001611cc1565b905080156110fb576000805461ff0019166101001790555b61110482611c66565b61110f826000611d55565b61112183600001518460200151611d86565b61113d836060015184608001518560a001518660c00151611db7565b61114a8360400151611df0565b8015611190576000805461ff0019169055604051600181527f7f26b83ff96e1f2b6a682f133852f6798a09c465da95921460cefb38474024989060200160405180910390a15b505050565b3361119e610fc4565b6001600160a01b0316146111c45760405162461bcd60e51b8152600401610b4c90612b27565b60035442600160a01b9091046001600160401b0316106111f65760405162461bcd60e51b8152600401610b4c90612b5c565b600780546001600160401b03909216600160401b0267ffffffffffffffff60401b19909216919091179055565b3361122c610fc4565b6001600160a01b0316146112525760405162461bcd60e51b8152600401610b4c90612b27565b60035442600160a01b9091046001600160401b0316106112845760405162461bcd60e51b8152600401610b4c90612b5c565b600855565b33611292610fc4565b6001600160a01b0316146112b85760405162461bcd60e51b8152600401610b4c90612b27565b600954600160e01b900460ff16156112e25760405162461bcd60e51b8152600401610b4c90612b83565b600980546001600160a01b03909216600160401b02600160401b600160e01b0319909216919091179055565b33611317610fc4565b6001600160a01b03161461133d5760405162461bcd60e51b8152600401610b4c90612b27565b600954600160f81b900460ff161561137f5760405162461bcd60e51b815260206004820152600560248201526413d0d2d15160da1b6044820152606401610b4c565b600980546001600160f81b0316600160f81b179055565b3361139f610fc4565b6001600160a01b0316146113c55760405162461bcd60e51b8152600401610b4c90612b27565b60035442600160a01b9091046001600160401b0316106113f75760405162461bcd60e51b8152600401610b4c90612b5c565b600780546001600160401b0319166001600160401b0392909216919091179055565b33611422610fc4565b6001600160a01b0316146114485760405162461bcd60e51b8152600401610b4c90612b27565b6009805460ff60e81b1916600160e81b1790556040517fa24423a69b45c25c0479663125e48b482e71d85eae416f589545243bafaf3c9590600090a1565b6002805414156114a85760405162461bcd60e51b8152600401610b4c90612c53565b60028055336114b8838383611e20565b60006114c48484611bff565b9050600081116115095760405162461bcd60e51b815260206004820152601060248201526f4e4f5448494e475f544f5f434c41494d60801b6044820152606401610b4c565b60008481526004602090815260408083206001600160a01b03871684529091528120805483929061153b908490612af4565b909155505060008481526004602090815260408083206001600160a01b0387168452825280832042600190910155600590915281208054839290611580908490612af4565b90915550506001600160a01b0383166115ab576115a66001600160a01b03831682611e41565b61162d565b60405163a9059cbb60e01b81526001600160a01b0384169063a9059cbb906115d99085908590600401612c8a565b602060405180830381600087803b1580156115f357600080fd5b505af1158015611607573d6000803e3d6000fd5b505050506040513d601f19601f8201168201806040525081019061162b9190612ca3565b505b604080513381526001600160a01b038481166020830152818301879052851660608201526080810183905290517fa2d3c4c1fc934d6d2d8f9e862df90c01ae4eb0e920cd8957d242ba26b8dc40789181900360a00190a1505060016002555050565b61169833611f57565b600954600160401b90046001600160a01b03166116ef5760405162461bcd60e51b815260206004820152601560248201527415d2551211149055cbd393d7d49150d25412515395605a1b6044820152606401610b4c565b600954600160e81b900460ff16156117495760405162461bcd60e51b815260206004820181905260248201527f57495448445241572f454d455247454e43595f504f5745525f5245564f4b45446044820152606401610b4c565b60005b838110156118a957600085858381811061176857611768612ac8565b905060200201602081019061177d919061291d565b6001600160a01b031614156117c9576117c48383838181106117a1576117a1612ac8565b6009546001600160a01b03600160401b9091041692602090910201359050611e41565b611897565b8484828181106117db576117db612ac8565b90506020020160208101906117f0919061291d565b6009546001600160a01b039182169163a9059cbb91600160401b90041685858581811061181f5761181f612ac8565b905060200201356040518363ffffffff1660e01b8152600401611843929190612c8a565b602060405180830381600087803b15801561185d57600080fd5b505af1158015611871573d6000803e3d6000fd5b505050506040513d601f19601f820116820180604052508101906118959190612ca3565b505b806118a181612b0c565b91505061174c565b507fd40c399a83caf67d15628b821aa7c7bd940e563c57a047e2bd3b8c602bcaf5a5848484846040516118df9493929190612cfb565b60405180910390a150505050565b336118f6610fc4565b6001600160a01b03161461191c5760405162461bcd60e51b8152600401610b4c90612b27565b6001600160a01b0381166119815760405162461bcd60e51b815260206004820152602660248201527f4f776e61626c653a206e6577206f776e657220697320746865207a65726f206160448201526564647265737360d01b6064820152608401610b4c565b610cfc81611c66565b6002805414156119ac5760405162461bcd60e51b8152600401610b4c90612c53565b600280556000805b84811015611adc576119df8686838181106119d1576119d1612ac8565b905060200201358585611e20565b6000611a038787848181106119f6576119f6612ac8565b9050602002013586611bff565b90508015611ac9578060046000898986818110611a2257611a22612ac8565b9050602002013581526020019081526020016000206000876001600160a01b03166001600160a01b031681526020019081526020016000206000016000828254611a6c9190612af4565b9091555042905060046000898986818110611a8957611a89612ac8565b6020908102929092013583525081810192909252604090810160009081206001600160a01b038a168252909252902060010155611ac68184612af4565b92505b5080611ad481612b0c565b9150506119b4565b506001600160a01b03831660009081526005602052604081208054839290611b05908490612af4565b90915550506001600160a01b038316611b3057611b2b6001600160a01b03831682611e41565b611bb2565b60405163a9059cbb60e01b81526001600160a01b0384169063a9059cbb90611b5e9085908590600401612c8a565b602060405180830381600087803b158015611b7857600080fd5b505af1158015611b8c573d6000803e3d6000fd5b505050506040513d601f19601f82011682018060405250810190611bb09190612ca3565b505b7fd84a5c424a4f777bcf4f645712b8e5ebfc550f42bde444fa822fe98ee1b132b1338387878786604051611beb96959493929190612d5e565b60405180910390a150506001600255505050565b600080611c1f611c18611c1185610e56565b86866120e8565b8585612170565b60008581526004602090815260408083206001600160a01b0388168452909152902054909150611c4f9082612d9d565b949350505050565b6001600160a01b03163b151590565b600080546001600160a01b038381166201000081810262010000600160b01b0319851617855560405193049190911692909183917f8be0079c531659141344cd1fd0a4f28419497f9722a3daafe3b4186f6b6457e091a35050565b60008054610100900460ff1615611d0f578160ff166001148015611ceb5750611ce930611c57565b155b611d075760405162461bcd60e51b8152600401610b4c90612db4565b506000919050565b60005460ff808416911610611d365760405162461bcd60e51b8152600401610b4c90612db4565b506000805460ff191660ff92909216919091179055600190565b919050565b600054610100900460ff16611d7c5760405162461bcd60e51b8152600401610b4c90612e02565b610d8a8282612180565b600054610100900460ff16611dad5760405162461bcd60e51b8152600401610b4c90612e02565b610d8a828261221a565b600054610100900460ff16611dde5760405162461bcd60e51b8152600401610b4c90612e02565b611dea8484848461227f565b50505050565b600054610100900460ff16611e175760405162461bcd60e51b8152600401610b4c90612e02565b610cfc81612300565b611e2b83838361233c565b611e36838383612400565b61119083838361244b565b80471015611e915760405162461bcd60e51b815260206004820152601d60248201527f416464726573733a20696e73756666696369656e742062616c616e63650000006044820152606401610b4c565b6000826001600160a01b03168260405160006040518083038185875af1925050503d8060008114611ede576040519150601f19603f3d011682016040523d82523d6000602084013e611ee3565b606091505b50509050806111905760405162461bcd60e51b815260206004820152603a60248201527f416464726573733a20756e61626c6520746f2073656e642076616c75652c20726044820152791958da5c1a595b9d081b585e481a185d99481c995d995c9d195960321b6064820152608401610b4c565b6003600954600160f01b900460ff166003811115611f7757611f77612855565b1415611fb75760405162461bcd60e51b815260206004820152600f60248201526e15d2551211149055cbd313d0d2d151608a1b6044820152606401610b4c565b6002600954600160f01b900460ff166003811115611fd757611fd7612855565b1415611fe05750565b6001600954600160f01b900460ff16600381111561200057612000612855565b1415612064576009546001600160a01b03828116600160401b9092041614610cfc5760405162461bcd60e51b815260206004820152601760248201527615d2551211149055cbd3d3931657d49150d25412515395604a1b6044820152606401610b4c565b6000600954600160f01b900460ff16600381111561208457612084612855565b1415610cfc57806001600160a01b031661209c610fc4565b6001600160a01b031614610cfc5760405162461bcd60e51b81526020600482015260136024820152722ba4aa24222920ab97a7a7262cafa7aba722a960691b6044820152606401610b4c565b600754600090600160401b90046001600160401b031642101561210d57506000610ad6565b600754600160801b90046001600160401b03161580159061213f5750600754600160801b90046001600160401b031642115b156121675760075461216090600160801b90046001600160401b0316610fe6565b9050610ad6565b61216042610fe6565b600060085484611c4f9190612bf1565b600054610100900460ff166121a75760405162461bcd60e51b8152600401610b4c90612e02565b6121b763ac2ba33360e01b612510565b60098054600160401b600160e01b03198116600160401b6001600160a01b038616029081178355839291600160401b62ff000160e01b03191660ff60f01b1990911617600160f01b83600381111561221157612211612855565b02179055505050565b600054610100900460ff166122415760405162461bcd60e51b8152600401610b4c90612e02565b600380546001600160401b038316600160a01b026001600160e01b03199091166001600160a01b03851617179055610d8a631ba050e960e21b612510565b600054610100900460ff166122a65760405162461bcd60e51b8152600401610b4c90612e02565b6006849055600780546001600160401b03838116600160801b02600160801b600160c01b0319868316600160401b026001600160801b0319909416928816929092179290921716179055611dea63c9f600a960e01b612510565b600054610100900460ff166123275760405162461bcd60e51b8152600401610b4c90612e02565b6008819055610cfc632d5305cb60e21b612510565b6003546040516331a9108f60e11b8152600481018590526001600160a01b03838116921690636352211e9060240160206040518083038186803b15801561238257600080fd5b505afa158015612396573d6000803e3d6000fd5b505050506040513d601f19601f820116820180604052508101906123ba9190612e4d565b6001600160a01b0316146111905760405162461bcd60e51b815260206004820152600d60248201526c2727aa2fa7232a2fa7aba722a960991b6044820152606401610b4c565b600954426001600160401b03909116106111905760405162461bcd60e51b815260206004820152600c60248201526b10d310525357d313d0d2d15160a21b6044820152606401610b4c565b60075442600160401b9091046001600160401b03161061249b5760405162461bcd60e51b815260206004820152600b60248201526a1393d517d4d5105495115160aa1b6044820152606401610b4c565b6007546124b1906001600160401b031642612d9d565b60008481526004602090815260408083206001600160a01b0387168452909152902060010154106111905760405162461bcd60e51b8152602060048201526009602482015268544f4f5f4541524c5960b81b6044820152606401610b4c565b6001600160e01b031980821614156125695760405162461bcd60e51b815260206004820152601c60248201527b115490cc4d8d4e881a5b9d985b1a59081a5b9d195c999858d9481a5960221b6044820152606401610b4c565b6001600160e01b0319166000908152600160208190526040909120805460ff19169091179055565b60008083601f8401126125a357600080fd5b5081356001600160401b038111156125ba57600080fd5b6020830191508360208260051b85010111156125d557600080fd5b9250929050565b6001600160a01b0381168114610cfc57600080fd5b8035611d50816125dc565b60008060006040848603121561261157600080fd5b83356001600160401b0381111561262757600080fd5b61263386828701612591565b9094509250506020840135612647816125dc565b809150509250925092565b60006020828403121561266457600080fd5b81356001600160e01b031981168114610ad657600080fd5b600060208083528351808285015260005b818110156126a95785810183015185820160400152820161268d565b818111156126bb576000604083870101525b50601f01601f1916929092016040019392505050565b634e487b7160e01b600052604160045260246000fd5b60405160e081016001600160401b0381118282101715612709576127096126d1565b60405290565b604051601f8201601f191681016001600160401b0381118282101715612737576127376126d1565b604052919050565b6000806000806080858703121561275557600080fd5b8435612760816125dc565b9350602085810135612771816125dc565b93506040860135925060608601356001600160401b038082111561279457600080fd5b818801915088601f8301126127a857600080fd5b8135818111156127ba576127ba6126d1565b6127cc601f8201601f1916850161270f565b915080825289848285010111156127e257600080fd5b808484018584013760008482840101525080935050505092959194509250565b80356001600160401b0381168114611d5057600080fd5b60006020828403121561282b57600080fd5b610ad682612802565b60006020828403121561284657600080fd5b813560048110610ad657600080fd5b634e487b7160e01b600052602160045260246000fd5b602081016004831061288d57634e487b7160e01b600052602160045260246000fd5b91905290565b6000602082840312156128a557600080fd5b5035919050565b600080604083850312156128bf57600080fd5b8235915060208301356128d1816125dc565b809150509250929050565b600080602083850312156128ef57600080fd5b82356001600160401b0381111561290557600080fd5b61291185828601612591565b90969095509350505050565b60006020828403121561292f57600080fd5b8135610ad6816125dc565b6001600160a01b0391909116815260200190565b60008082840361010081121561296357600080fd5b60e081121561297157600080fd5b5061297a6126e7565b8335612985816125dc565b815261299360208501612802565b602082015260408401356040820152606084013560608201526129b860808501612802565b60808201526129c960a08501612802565b60a08201526129da60c08501612802565b60c082015291506129ed60e084016125f1565b90509250929050565b60008060008060408587031215612a0c57600080fd5b84356001600160401b0380821115612a2357600080fd5b612a2f88838901612591565b90965094506020870135915080821115612a4857600080fd5b50612a5587828801612591565b95989497509550505050565b60008060008060608587031215612a7757600080fd5b84356001600160401b03811115612a8d57600080fd5b612a9987828801612591565b9095509350506020850135612aad816125dc565b91506040850135612abd816125dc565b939692955090935050565b634e487b7160e01b600052603260045260246000fd5b634e487b7160e01b600052601160045260246000fd5b60008219821115612b0757612b07612ade565b500190565b6000600019821415612b2057612b20612ade565b5060010190565b6020808252818101527f4f776e61626c653a2063616c6c6572206973206e6f7420746865206f776e6572604082015260600190565b6020808252600d908201526c10d3d3919251d7d313d0d2d151609a1b604082015260600190565b6020808252600690820152651313d0d2d15160d21b604082015260600190565b600060208284031215612bb557600080fd5b5051919050565b6000816000190483118215151615612bd657612bd6612ade565b500290565b634e487b7160e01b600052601260045260246000fd5b600082612c0057612c00612bdb565b500490565b60006001600160401b0383811690831681811015612c2557612c25612ade565b039392505050565b60006001600160401b0380841680612c4757612c47612bdb565b92169190910492915050565b6020808252601f908201527f5265656e7472616e637947756172643a207265656e7472616e742063616c6c00604082015260600190565b6001600160a01b03929092168252602082015260400190565b600060208284031215612cb557600080fd5b81518015158114610ad657600080fd5b81835260006001600160fb1b03831115612cde57600080fd5b8260051b8083602087013760009401602001938452509192915050565b6040808252810184905260008560608301825b87811015612d3e578235612d21816125dc565b6001600160a01b0316825260209283019290910190600101612d0e565b508381036020850152612d52818688612cc5565b98975050505050505050565b600060018060a01b038089168352808816602084015260a06040840152612d8960a084018789612cc5565b941660608301525060800152949350505050565b600082821015612daf57612daf612ade565b500390565b6020808252602e908201527f496e697469616c697a61626c653a20636f6e747261637420697320616c72656160408201526d191e481a5b9a5d1a585b1a5e995960921b606082015260800190565b6020808252602b908201527f496e697469616c697a61626c653a20636f6e7472616374206973206e6f74206960408201526a6e697469616c697a696e6760a81b606082015260800190565b600060208284031215612e5f57600080fd5b8151610ad6816125dc56fea2646970667358221220aa4c41c830ac89b7ea1085195c3af10dfd349475ea761beebf9598fc1c2771a664736f6c63430008090033",
  "devdoc": {
    "kind": "dev",
    "methods": {
      "owner()": {
        "details": "Returns the address of the current owner."
      },
      "renounceOwnership()": {
        "details": "Leaves the contract without owner. It will not be possible to call `onlyOwner` functions anymore. Can only be called by the current owner. NOTE: Renouncing ownership will leave the contract without an owner, thereby removing any functionality that is only available to the owner."
      },
      "supportsInterface(bytes4)": {
        "details": "See {IERC165-supportsInterface}."
      },
      "transferOwnership(address)": {
        "details": "Transfers ownership of the contract to a new account (`newOwner`). Can only be called by the current owner."
      }
    },
    "version": 1
  },
  "userdoc": {
    "kind": "user",
    "methods": {},
    "version": 1
  },
  "storageLayout": {
    "storage": [
      {
        "astId": 886,
        "contract": "contracts/streams/ERC721/presets/ERC721EqualEmissionStream.sol:ERC721EqualEmissionStream",
        "label": "_initialized",
        "offset": 0,
        "slot": "0",
        "type": "t_uint8"
      },
      {
        "astId": 889,
        "contract": "contracts/streams/ERC721/presets/ERC721EqualEmissionStream.sol:ERC721EqualEmissionStream",
        "label": "_initializing",
        "offset": 1,
        "slot": "0",
        "type": "t_bool"
      },
      {
        "astId": 782,
        "contract": "contracts/streams/ERC721/presets/ERC721EqualEmissionStream.sol:ERC721EqualEmissionStream",
        "label": "_owner",
        "offset": 2,
        "slot": "0",
        "type": "t_address"
      },
      {
        "astId": 4693,
        "contract": "contracts/streams/ERC721/presets/ERC721EqualEmissionStream.sol:ERC721EqualEmissionStream",
        "label": "_supportedInterfaces",
        "offset": 0,
        "slot": "1",
        "type": "t_mapping(t_bytes4,t_bool)"
      },
      {
        "astId": 1124,
        "contract": "contracts/streams/ERC721/presets/ERC721EqualEmissionStream.sol:ERC721EqualEmissionStream",
        "label": "_status",
        "offset": 0,
        "slot": "2",
        "type": "t_uint256"
      },
      {
        "astId": 15170,
        "contract": "contracts/streams/ERC721/presets/ERC721EqualEmissionStream.sol:ERC721EqualEmissionStream",
        "label": "ticketToken",
        "offset": 0,
        "slot": "3",
        "type": "t_address"
      },
      {
        "astId": 15172,
        "contract": "contracts/streams/ERC721/presets/ERC721EqualEmissionStream.sol:ERC721EqualEmissionStream",
        "label": "lockedUntilTimestamp",
        "offset": 20,
        "slot": "3",
        "type": "t_uint64"
      },
      {
        "astId": 15179,
        "contract": "contracts/streams/ERC721/presets/ERC721EqualEmissionStream.sol:ERC721EqualEmissionStream",
        "label": "entitlements",
        "offset": 0,
        "slot": "4",
        "type": "t_mapping(t_uint256,t_mapping(t_address,t_struct(Entitlement)15168_storage))"
      },
      {
        "astId": 15183,
        "contract": "contracts/streams/ERC721/presets/ERC721EqualEmissionStream.sol:ERC721EqualEmissionStream",
        "label": "_streamTotalClaimed",
        "offset": 0,
        "slot": "5",
        "type": "t_mapping(t_address,t_uint256)"
      },
      {
        "astId": 16184,
        "contract": "contracts/streams/ERC721/presets/ERC721EqualEmissionStream.sol:ERC721EqualEmissionStream",
        "label": "emissionRate",
        "offset": 0,
        "slot": "6",
        "type": "t_uint256"
      },
      {
        "astId": 16186,
        "contract": "contracts/streams/ERC721/presets/ERC721EqualEmissionStream.sol:ERC721EqualEmissionStream",
        "label": "emissionTimeUnit",
        "offset": 0,
        "slot": "7",
        "type": "t_uint64"
      },
      {
        "astId": 16188,
        "contract": "contracts/streams/ERC721/presets/ERC721EqualEmissionStream.sol:ERC721EqualEmissionStream",
        "label": "emissionStart",
        "offset": 8,
        "slot": "7",
        "type": "t_uint64"
      },
      {
        "astId": 16190,
        "contract": "contracts/streams/ERC721/presets/ERC721EqualEmissionStream.sol:ERC721EqualEmissionStream",
        "label": "emissionEnd",
        "offset": 16,
        "slot": "7",
        "type": "t_uint64"
      },
      {
        "astId": 16501,
        "contract": "contracts/streams/ERC721/presets/ERC721EqualEmissionStream.sol:ERC721EqualEmissionStream",
        "label": "totalTickets",
        "offset": 0,
        "slot": "8",
        "type": "t_uint256"
      },
      {
        "astId": 16693,
        "contract": "contracts/streams/ERC721/presets/ERC721EqualEmissionStream.sol:ERC721EqualEmissionStream",
        "label": "claimLockedUntil",
        "offset": 0,
        "slot": "9",
        "type": "t_uint64"
      },
      {
        "astId": 13807,
        "contract": "contracts/streams/ERC721/presets/ERC721EqualEmissionStream.sol:ERC721EqualEmissionStream",
        "label": "withdrawRecipient",
        "offset": 8,
        "slot": "9",
        "type": "t_address"
      },
      {
        "astId": 13809,
        "contract": "contracts/streams/ERC721/presets/ERC721EqualEmissionStream.sol:ERC721EqualEmissionStream",
        "label": "withdrawRecipientLocked",
        "offset": 28,
        "slot": "9",
        "type": "t_bool"
      },
      {
        "astId": 13811,
        "contract": "contracts/streams/ERC721/presets/ERC721EqualEmissionStream.sol:ERC721EqualEmissionStream",
        "label": "withdrawPowerRevoked",
        "offset": 29,
        "slot": "9",
        "type": "t_bool"
      },
      {
        "astId": 13814,
        "contract": "contracts/streams/ERC721/presets/ERC721EqualEmissionStream.sol:ERC721EqualEmissionStream",
        "label": "withdrawMode",
        "offset": 30,
        "slot": "9",
        "type": "t_enum(WithdrawMode)13751"
      },
      {
        "astId": 13816,
        "contract": "contracts/streams/ERC721/presets/ERC721EqualEmissionStream.sol:ERC721EqualEmissionStream",
        "label": "withdrawModeLocked",
        "offset": 31,
        "slot": "9",
        "type": "t_bool"
      }
    ],
    "types": {
      "t_address": {
        "encoding": "inplace",
        "label": "address",
        "numberOfBytes": "20"
      },
      "t_bool": {
        "encoding": "inplace",
        "label": "bool",
        "numberOfBytes": "1"
      },
      "t_bytes4": {
        "encoding": "inplace",
        "label": "bytes4",
        "numberOfBytes": "4"
      },
      "t_enum(WithdrawMode)13751": {
        "encoding": "inplace",
        "label": "enum WithdrawMode",
        "numberOfBytes": "1"
      },
      "t_mapping(t_address,t_struct(Entitlement)15168_storage)": {
        "encoding": "mapping",
        "key": "t_address",
        "label": "mapping(address => struct ERC721MultiTokenStream.Entitlement)",
        "numberOfBytes": "32",
        "value": "t_struct(Entitlement)15168_storage"
      },
      "t_mapping(t_address,t_uint256)": {
        "encoding": "mapping",
        "key": "t_address",
        "label": "mapping(address => uint256)",
        "numberOfBytes": "32",
        "value": "t_uint256"
      },
      "t_mapping(t_bytes4,t_bool)": {
        "encoding": "mapping",
        "key": "t_bytes4",
        "label": "mapping(bytes4 => bool)",
        "numberOfBytes": "32",
        "value": "t_bool"
      },
      "t_mapping(t_uint256,t_mapping(t_address,t_struct(Entitlement)15168_storage))": {
        "encoding": "mapping",
        "key": "t_uint256",
        "label": "mapping(uint256 => mapping(address => struct ERC721MultiTokenStream.Entitlement))",
        "numberOfBytes": "32",
        "value": "t_mapping(t_address,t_struct(Entitlement)15168_storage)"
      },
      "t_struct(Entitlement)15168_storage": {
        "encoding": "inplace",
        "label": "struct ERC721MultiTokenStream.Entitlement",
        "members": [
          {
            "astId": 15165,
            "contract": "contracts/streams/ERC721/presets/ERC721EqualEmissionStream.sol:ERC721EqualEmissionStream",
            "label": "totalClaimed",
            "offset": 0,
            "slot": "0",
            "type": "t_uint256"
          },
          {
            "astId": 15167,
            "contract": "contracts/streams/ERC721/presets/ERC721EqualEmissionStream.sol:ERC721EqualEmissionStream",
            "label": "lastClaimedAt",
            "offset": 0,
            "slot": "1",
            "type": "t_uint256"
          }
        ],
        "numberOfBytes": "64"
      },
      "t_uint256": {
        "encoding": "inplace",
        "label": "uint256",
        "numberOfBytes": "32"
      },
      "t_uint64": {
        "encoding": "inplace",
        "label": "uint64",
        "numberOfBytes": "8"
      },
      "t_uint8": {
        "encoding": "inplace",
        "label": "uint8",
        "numberOfBytes": "1"
      }
    }
  }
}