{
  "address": "0x2e43759e52d69Eb4561541f6F7A6C4E82CD2448A",
  "abi": [
    {
      "inputs": [
        {
          "components": [
            {
              "internalType": "address",
              "name": "ticketToken",
              "type": "address"
            },
            {
              "internalType": "uint64",
              "name": "lockedUntilTimestamp",
              "type": "uint64"
            },
            {
              "internalType": "uint256",
              "name": "totalTickets",
              "type": "uint256"
            },
            {
              "internalType": "uint256",
              "name": "emissionRate",
              "type": "uint256"
            },
            {
              "internalType": "uint64",
              "name": "emissionTimeUnit",
              "type": "uint64"
            },
            {
              "internalType": "uint64",
              "name": "emissionStart",
              "type": "uint64"
            },
            {
              "internalType": "uint64",
              "name": "emissionEnd",
              "type": "uint64"
            }
          ],
          "internalType": "struct ERC721EqualEmissionStream.Config",
          "name": "config",
          "type": "tuple"
        }
      ],
      "stateMutability": "nonpayable",
      "type": "constructor"
    },
    {
      "anonymous": false,
      "inputs": [
        {
          "indexed": false,
          "internalType": "address",
          "name": "operator",
          "type": "address"
        },
        {
          "indexed": false,
          "internalType": "address",
          "name": "beneficiary",
          "type": "address"
        },
        {
          "indexed": false,
          "internalType": "uint256",
          "name": "ticketTokenId",
          "type": "uint256"
        },
        {
          "indexed": false,
          "internalType": "address",
          "name": "claimToken",
          "type": "address"
        },
        {
          "indexed": false,
          "internalType": "uint256",
          "name": "releasedAmount",
          "type": "uint256"
        }
      ],
      "name": "Claim",
      "type": "event"
    },
    {
      "anonymous": false,
      "inputs": [
        {
          "indexed": false,
          "internalType": "address",
          "name": "operator",
          "type": "address"
        },
        {
          "indexed": false,
          "internalType": "address",
          "name": "beneficiary",
          "type": "address"
        },
        {
          "indexed": false,
          "internalType": "uint256[]",
          "name": "ticketTokenIds",
          "type": "uint256[]"
        },
        {
          "indexed": false,
          "internalType": "address",
          "name": "claimToken",
          "type": "address"
        },
        {
          "indexed": false,
          "internalType": "uint256",
          "name": "releasedAmount",
          "type": "uint256"
        }
      ],
      "name": "ClaimMany",
      "type": "event"
    },
    {
      "anonymous": false,
      "inputs": [
        {
          "indexed": false,
          "internalType": "uint8",
          "name": "version",
          "type": "uint8"
        }
      ],
      "name": "Initialized",
      "type": "event"
    },
    {
      "anonymous": false,
      "inputs": [
        {
          "indexed": true,
          "internalType": "address",
          "name": "previousOwner",
          "type": "address"
        },
        {
          "indexed": true,
          "internalType": "address",
          "name": "newOwner",
          "type": "address"
        }
      ],
      "name": "OwnershipTransferred",
      "type": "event"
    },
    {
      "anonymous": false,
      "inputs": [],
      "name": "WithdrawPowerRevoked",
      "type": "event"
    },
    {
      "anonymous": false,
      "inputs": [
        {
          "indexed": false,
          "internalType": "address[]",
          "name": "claimTokens",
          "type": "address[]"
        },
        {
          "indexed": false,
          "internalType": "uint256[]",
          "name": "amounts",
          "type": "uint256[]"
        }
      ],
      "name": "Withdrawn",
      "type": "event"
    },
    {
      "inputs": [
        {
          "internalType": "uint256",
          "name": "ticketTokenId",
          "type": "uint256"
        }
      ],
      "name": "claim",
      "outputs": [],
      "stateMutability": "nonpayable",
      "type": "function"
    },
    {
      "inputs": [
        {
          "internalType": "uint256[]",
          "name": "ticketTokenIds",
          "type": "uint256[]"
        }
      ],
      "name": "claim",
      "outputs": [],
      "stateMutability": "nonpayable",
      "type": "function"
    },
    {
      "inputs": [
        {
          "internalType": "uint256",
          "name": "ticketTokenId",
          "type": "uint256"
        },
        {
          "internalType": "address",
          "name": "claimToken",
          "type": "address"
        }
      ],
      "name": "claim",
      "outputs": [],
      "stateMutability": "nonpayable",
      "type": "function"
    },
    {
      "inputs": [
        {
          "internalType": "uint256[]",
          "name": "ticketTokenIds",
          "type": "uint256[]"
        },
        {
          "internalType": "address",
          "name": "claimToken",
          "type": "address"
        },
        {
          "internalType": "address",
          "name": "owner",
          "type": "address"
        }
      ],
      "name": "claim",
      "outputs": [],
      "stateMutability": "nonpayable",
      "type": "function"
    },
    {
      "inputs": [],
      "name": "claimLockedUntil",
      "outputs": [
        {
          "internalType": "uint64",
          "name": "",
          "type": "uint64"
        }
      ],
      "stateMutability": "view",
      "type": "function"
    },
    {
      "inputs": [
        {
          "internalType": "uint64",
          "name": "calcUntil",
          "type": "uint64"
        }
      ],
      "name": "emissionAmountUntil",
      "outputs": [
        {
          "internalType": "uint256",
          "name": "",
          "type": "uint256"
        }
      ],
      "stateMutability": "view",
      "type": "function"
    },
    {
      "inputs": [],
      "name": "emissionEnd",
      "outputs": [
        {
          "internalType": "uint64",
          "name": "",
          "type": "uint64"
        }
      ],
      "stateMutability": "view",
      "type": "function"
    },
    {
      "inputs": [],
      "name": "emissionRate",
      "outputs": [
        {
          "internalType": "uint256",
          "name": "",
          "type": "uint256"
        }
      ],
      "stateMutability": "view",
      "type": "function"
    },
    {
      "inputs": [],
      "name": "emissionStart",
      "outputs": [
        {
          "internalType": "uint64",
          "name": "",
          "type": "uint64"
        }
      ],
      "stateMutability": "view",
      "type": "function"
    },
    {
      "inputs": [],
      "name": "emissionTimeUnit",
      "outputs": [
        {
          "internalType": "uint64",
          "name": "",
          "type": "uint64"
        }
      ],
      "stateMutability": "view",
      "type": "function"
    },
    {
      "inputs": [
        {
          "internalType": "uint256",
          "name": "",
          "type": "uint256"
        },
        {
          "internalType": "address",
          "name": "",
          "type": "address"
        }
      ],
      "name": "entitlements",
      "outputs": [
        {
          "internalType": "uint256",
          "name": "totalClaimed",
          "type": "uint256"
        },
        {
          "internalType": "uint256",
          "name": "lastClaimedAt",
          "type": "uint256"
        }
      ],
      "stateMutability": "view",
      "type": "function"
    },
    {
      "inputs": [],
      "name": "hasERC721EmissionReleaseExtension",
      "outputs": [
        {
          "internalType": "bool",
          "name": "",
          "type": "bool"
        }
      ],
      "stateMutability": "pure",
      "type": "function"
    },
    {
      "inputs": [],
      "name": "hasERC721EqualSplitExtension",
      "outputs": [
        {
          "internalType": "bool",
          "name": "",
          "type": "bool"
        }
      ],
      "stateMutability": "pure",
      "type": "function"
    },
    {
      "inputs": [],
      "name": "hasERC721LockableClaimExtension",
      "outputs": [
        {
          "internalType": "bool",
          "name": "",
          "type": "bool"
        }
      ],
      "stateMutability": "pure",
      "type": "function"
    },
    {
      "inputs": [
        {
          "components": [
            {
              "internalType": "address",
              "name": "ticketToken",
              "type": "address"
            },
            {
              "internalType": "uint64",
              "name": "lockedUntilTimestamp",
              "type": "uint64"
            },
            {
              "internalType": "uint256",
              "name": "totalTickets",
              "type": "uint256"
            },
            {
              "internalType": "uint256",
              "name": "emissionRate",
              "type": "uint256"
            },
            {
              "internalType": "uint64",
              "name": "emissionTimeUnit",
              "type": "uint64"
            },
            {
              "internalType": "uint64",
              "name": "emissionStart",
              "type": "uint64"
            },
            {
              "internalType": "uint64",
              "name": "emissionEnd",
              "type": "uint64"
            }
          ],
          "internalType": "struct ERC721EqualEmissionStream.Config",
          "name": "config",
          "type": "tuple"
        },
        {
          "internalType": "address",
          "name": "deployer",
          "type": "address"
        }
      ],
      "name": "initialize",
      "outputs": [],
      "stateMutability": "nonpayable",
      "type": "function"
    },
    {
      "inputs": [
        {
          "internalType": "uint64",
          "name": "newValue",
          "type": "uint64"
        }
      ],
      "name": "lockUntil",
      "outputs": [],
      "stateMutability": "nonpayable",
      "type": "function"
    },
    {
      "inputs": [],
      "name": "lockWithdrawMode",
      "outputs": [],
      "stateMutability": "nonpayable",
      "type": "function"
    },
    {
      "inputs": [],
      "name": "lockWithdrawRecipient",
      "outputs": [],
      "stateMutability": "nonpayable",
      "type": "function"
    },
    {
      "inputs": [],
      "name": "lockedUntilTimestamp",
      "outputs": [
        {
          "internalType": "uint64",
          "name": "",
          "type": "uint64"
        }
      ],
      "stateMutability": "view",
      "type": "function"
    },
    {
      "inputs": [],
      "name": "name",
      "outputs": [
        {
          "internalType": "string",
          "name": "",
          "type": "string"
        }
      ],
      "stateMutability": "view",
      "type": "function"
    },
    {
      "inputs": [],
      "name": "owner",
      "outputs": [
        {
          "internalType": "address",
          "name": "",
          "type": "address"
        }
      ],
      "stateMutability": "view",
      "type": "function"
    },
    {
      "inputs": [
        {
          "internalType": "uint256[]",
          "name": "tokenIds",
          "type": "uint256[]"
        }
      ],
      "name": "rateByToken",
      "outputs": [
        {
          "internalType": "uint256",
          "name": "",
          "type": "uint256"
        }
      ],
      "stateMutability": "view",
      "type": "function"
    },
    {
      "inputs": [
        {
          "internalType": "uint64",
          "name": "calcUntil",
          "type": "uint64"
        }
      ],
      "name": "releasedAmountUntil",
      "outputs": [
        {
          "internalType": "uint256",
          "name": "",
          "type": "uint256"
        }
      ],
      "stateMutability": "view",
      "type": "function"
    },
    {
      "inputs": [],
      "name": "renounceOwnership",
      "outputs": [],
      "stateMutability": "nonpayable",
      "type": "function"
    },
    {
      "inputs": [],
      "name": "revokeWithdrawPower",
      "outputs": [],
      "stateMutability": "nonpayable",
      "type": "function"
    },
    {
      "inputs": [
        {
          "internalType": "uint64",
          "name": "newValue",
          "type": "uint64"
        }
      ],
      "name": "setClaimLockedUntil",
      "outputs": [],
      "stateMutability": "nonpayable",
      "type": "function"
    },
    {
      "inputs": [
        {
          "internalType": "uint64",
          "name": "newValue",
          "type": "uint64"
        }
      ],
      "name": "setEmissionEnd",
      "outputs": [],
      "stateMutability": "nonpayable",
      "type": "function"
    },
    {
      "inputs": [
        {
          "internalType": "uint256",
          "name": "newValue",
          "type": "uint256"
        }
      ],
      "name": "setEmissionRate",
      "outputs": [],
      "stateMutability": "nonpayable",
      "type": "function"
    },
    {
      "inputs": [
        {
          "internalType": "uint64",
          "name": "newValue",
          "type": "uint64"
        }
      ],
      "name": "setEmissionStart",
      "outputs": [],
      "stateMutability": "nonpayable",
      "type": "function"
    },
    {
      "inputs": [
        {
          "internalType": "uint64",
          "name": "newValue",
          "type": "uint64"
        }
      ],
      "name": "setEmissionTimeUnit",
      "outputs": [],
      "stateMutability": "nonpayable",
      "type": "function"
    },
    {
      "inputs": [
        {
          "internalType": "uint256",
          "name": "newValue",
          "type": "uint256"
        }
      ],
      "name": "setTotalTickets",
      "outputs": [],
      "stateMutability": "nonpayable",
      "type": "function"
    },
    {
      "inputs": [
        {
          "internalType": "enum WithdrawMode",
          "name": "_withdrawMode",
          "type": "uint8"
        }
      ],
      "name": "setWithdrawMode",
      "outputs": [],
      "stateMutability": "nonpayable",
      "type": "function"
    },
    {
      "inputs": [
        {
          "internalType": "address",
          "name": "_withdrawRecipient",
          "type": "address"
        }
      ],
      "name": "setWithdrawRecipient",
      "outputs": [],
      "stateMutability": "nonpayable",
      "type": "function"
    },
    {
      "inputs": [
        {
          "internalType": "uint256[]",
          "name": "ticketTokenIds",
          "type": "uint256[]"
        },
        {
          "internalType": "address",
          "name": "claimToken",
          "type": "address"
        }
      ],
      "name": "streamClaimableAmount",
      "outputs": [
        {
          "internalType": "uint256",
          "name": "",
          "type": "uint256"
        }
      ],
      "stateMutability": "view",
      "type": "function"
    },
    {
      "inputs": [
        {
          "internalType": "uint256",
          "name": "ticketTokenId",
          "type": "uint256"
        }
      ],
      "name": "streamClaimableAmount",
      "outputs": [
        {
          "internalType": "uint256",
          "name": "",
          "type": "uint256"
        }
      ],
      "stateMutability": "view",
      "type": "function"
    },
    {
      "inputs": [
        {
          "internalType": "uint256",
          "name": "ticketTokenId",
          "type": "uint256"
        },
        {
          "internalType": "address",
          "name": "claimToken",
          "type": "address"
        }
      ],
      "name": "streamClaimableAmount",
      "outputs": [
        {
          "internalType": "uint256",
          "name": "",
          "type": "uint256"
        }
      ],
      "stateMutability": "view",
      "type": "function"
    },
    {
      "inputs": [
        {
          "internalType": "uint256[]",
          "name": "ticketTokenIds",
          "type": "uint256[]"
        },
        {
          "internalType": "address",
          "name": "claimToken",
          "type": "address"
        }
      ],
      "name": "streamTotalClaimed",
      "outputs": [
        {
          "internalType": "uint256",
          "name": "",
          "type": "uint256"
        }
      ],
      "stateMutability": "view",
      "type": "function"
    },
    {
      "inputs": [],
      "name": "streamTotalClaimed",
      "outputs": [
        {
          "internalType": "uint256",
          "name": "",
          "type": "uint256"
        }
      ],
      "stateMutability": "view",
      "type": "function"
    },
    {
      "inputs": [
        {
          "internalType": "uint256[]",
          "name": "ticketTokenIds",
          "type": "uint256[]"
        }
      ],
      "name": "streamTotalClaimed",
      "outputs": [
        {
          "internalType": "uint256",
          "name": "",
          "type": "uint256"
        }
      ],
      "stateMutability": "view",
      "type": "function"
    },
    {
      "inputs": [
        {
          "internalType": "uint256",
          "name": "ticketTokenId",
          "type": "uint256"
        },
        {
          "internalType": "address",
          "name": "claimToken",
          "type": "address"
        }
      ],
      "name": "streamTotalClaimed",
      "outputs": [
        {
          "internalType": "uint256",
          "name": "",
          "type": "uint256"
        }
      ],
      "stateMutability": "view",
      "type": "function"
    },
    {
      "inputs": [
        {
          "internalType": "address",
          "name": "claimToken",
          "type": "address"
        }
      ],
      "name": "streamTotalClaimed",
      "outputs": [
        {
          "internalType": "uint256",
          "name": "",
          "type": "uint256"
        }
      ],
      "stateMutability": "view",
      "type": "function"
    },
    {
      "inputs": [
        {
          "internalType": "uint256",
          "name": "ticketTokenId",
          "type": "uint256"
        }
      ],
      "name": "streamTotalClaimed",
      "outputs": [
        {
          "internalType": "uint256",
          "name": "",
          "type": "uint256"
        }
      ],
      "stateMutability": "view",
      "type": "function"
    },
    {
      "inputs": [],
      "name": "streamTotalSupply",
      "outputs": [
        {
          "internalType": "uint256",
          "name": "",
          "type": "uint256"
        }
      ],
      "stateMutability": "view",
      "type": "function"
    },
    {
      "inputs": [
        {
          "internalType": "address",
          "name": "claimToken",
          "type": "address"
        }
      ],
      "name": "streamTotalSupply",
      "outputs": [
        {
          "internalType": "uint256",
          "name": "",
          "type": "uint256"
        }
      ],
      "stateMutability": "view",
      "type": "function"
    },
    {
      "inputs": [
        {
          "internalType": "bytes4",
          "name": "interfaceId",
          "type": "bytes4"
        }
      ],
      "name": "supportsInterface",
      "outputs": [
        {
          "internalType": "bool",
          "name": "",
          "type": "bool"
        }
      ],
      "stateMutability": "view",
      "type": "function"
    },
    {
      "inputs": [],
      "name": "ticketToken",
      "outputs": [
        {
          "internalType": "address",
          "name": "",
          "type": "address"
        }
      ],
      "stateMutability": "view",
      "type": "function"
    },
    {
      "inputs": [],
      "name": "totalTickets",
      "outputs": [
        {
          "internalType": "uint256",
          "name": "",
          "type": "uint256"
        }
      ],
      "stateMutability": "view",
      "type": "function"
    },
    {
      "inputs": [
        {
          "internalType": "address",
          "name": "newOwner",
          "type": "address"
        }
      ],
      "name": "transferOwnership",
      "outputs": [],
      "stateMutability": "nonpayable",
      "type": "function"
    },
    {
      "inputs": [],
      "name": "version",
      "outputs": [
        {
          "internalType": "string",
          "name": "",
          "type": "string"
        }
      ],
      "stateMutability": "view",
      "type": "function"
    },
    {
      "inputs": [
        {
          "internalType": "address[]",
          "name": "claimTokens",
          "type": "address[]"
        },
        {
          "internalType": "uint256[]",
          "name": "amounts",
          "type": "uint256[]"
        }
      ],
      "name": "withdraw",
      "outputs": [],
      "stateMutability": "nonpayable",
      "type": "function"
    },
    {
      "inputs": [],
      "name": "withdrawMode",
      "outputs": [
        {
          "internalType": "enum WithdrawMode",
          "name": "",
          "type": "uint8"
        }
      ],
      "stateMutability": "view",
      "type": "function"
    },
    {
      "inputs": [],
      "name": "withdrawModeLocked",
      "outputs": [
        {
          "internalType": "bool",
          "name": "",
          "type": "bool"
        }
      ],
      "stateMutability": "view",
      "type": "function"
    },
    {
      "inputs": [],
      "name": "withdrawPowerRevoked",
      "outputs": [
        {
          "internalType": "bool",
          "name": "",
          "type": "bool"
        }
      ],
      "stateMutability": "view",
      "type": "function"
    },
    {
      "inputs": [],
      "name": "withdrawRecipient",
      "outputs": [
        {
          "internalType": "address",
          "name": "",
          "type": "address"
        }
      ],
      "stateMutability": "view",
      "type": "function"
    },
    {
      "inputs": [],
      "name": "withdrawRecipientLocked",
      "outputs": [
        {
          "internalType": "bool",
          "name": "",
          "type": "bool"
        }
      ],
      "stateMutability": "view",
      "type": "function"
    },
    {
      "stateMutability": "payable",
      "type": "receive"
    }
  ],
  "transactionHash": "0xb5463170f8af0e4277e261c65471e731274577db68b404f0c957cfc38292d207",
  "args": [
    {
      "ticketToken": "0x0000000000000000000000000000000000000000",
      "lockedUntilTimestamp": 0,
      "totalTickets": 0,
      "emissionRate": 0,
      "emissionTimeUnit": 0,
      "emissionStart": 0,
      "emissionEnd": 0,
      "claimLockedUntil": 0
    }
  ],
  "numDeployments": 3,
  "solcInputHash": "8adbb6c8decc614bad96dde541aea715",
  "bytecode": "0x60806040523480156200001157600080fd5b506040516200355c3803806200355c8339810160408190526200003491620005b7565b6200003f3362000057565b6001600255620000508133620000b2565b5062000721565b600080546001600160a01b038381166201000081810262010000600160b01b0319851617855560405193049190911692909183917f8be0079c531659141344cd1fd0a4f28419497f9722a3daafe3b4186f6b6457e091a35050565b6000620000c0600162000184565b90508015620000d9576000805461ff0019166101001790555b620000e48262000057565b620000f182600062000236565b8251602084015162000104919062000270565b62000128836060015184608001518560a001518660c00151620002a660201b60201c565b60408301516200013890620002e4565b80156200017f576000805461ff0019169055604051600181527f7f26b83ff96e1f2b6a682f133852f6798a09c465da95921460cefb38474024989060200160405180910390a15b505050565b60008054610100900460ff1615620001ed578160ff166001148015620001bd5750620001bb306200031c60201b62001d531760201c565b155b620001e55760405162461bcd60e51b8152600401620001dc9062000672565b60405180910390fd5b506000919050565b60005460ff808416911610620002175760405162461bcd60e51b8152600401620001dc9062000672565b506000805460ff191660ff92909216919091179055600190565b919050565b600054610100900460ff16620002605760405162461bcd60e51b8152600401620001dc90620006c0565b6200026c82826200032b565b5050565b600054610100900460ff166200029a5760405162461bcd60e51b8152600401620001dc90620006c0565b6200026c8282620003d2565b600054610100900460ff16620002d05760405162461bcd60e51b8152600401620001dc90620006c0565b620002de848484846200043c565b50505050565b600054610100900460ff166200030e5760405162461bcd60e51b8152600401620001dc90620006c0565b6200031981620004c7565b50565b6001600160a01b03163b151590565b600054610100900460ff16620003555760405162461bcd60e51b8152600401620001dc90620006c0565b6200036763ac2ba33360e01b62000503565b60098054600160401b600160e01b03198116680100000000000000006001600160a01b038616029081178355839291600160401b62ff000160e01b03191660ff60f01b1990911617600160f01b836003811115620003c957620003c96200070b565b02179055505050565b600054610100900460ff16620003fc5760405162461bcd60e51b8152600401620001dc90620006c0565b600380546001600160401b038316600160a01b026001600160e01b03199091166001600160a01b038516171790556200026c631ba050e960e21b62000503565b600054610100900460ff16620004665760405162461bcd60e51b8152600401620001dc90620006c0565b6006849055600780546001600160401b03838116600160801b02600160801b600160c01b031986831668010000000000000000026001600160801b0319909416928816929092179290921716179055620002de63c9f600a960e01b62000503565b600054610100900460ff16620004f15760405162461bcd60e51b8152600401620001dc90620006c0565b600881905562000319632d5305cb60e21b5b6001600160e01b031980821614156200055f5760405162461bcd60e51b815260206004820152601c60248201527f4552433136353a20696e76616c696420696e74657266616365206964000000006044820152606401620001dc565b6001600160e01b0319166000908152600160208190526040909120805460ff19169091179055565b80516001600160a01b03811681146200023157600080fd5b80516001600160401b03811681146200023157600080fd5b600060e08284031215620005ca57600080fd5b60405160e081016001600160401b0381118282101715620005fb57634e487b7160e01b600052604160045260246000fd5b604052620006098362000587565b815262000619602084016200059f565b6020820152604083015160408201526060830151606082015262000640608084016200059f565b60808201526200065360a084016200059f565b60a08201526200066660c084016200059f565b60c08201529392505050565b6020808252602e908201527f496e697469616c697a61626c653a20636f6e747261637420697320616c72656160408201526d191e481a5b9a5d1a585b1a5e995960921b606082015260800190565b6020808252602b908201527f496e697469616c697a61626c653a20636f6e7472616374206973206e6f74206960408201526a6e697469616c697a696e6760a81b606082015260800190565b634e487b7160e01b600052602160045260246000fd5b612e2b80620007316000396000f3fe6080604052600436106102745760003560e01c80630191c0af1461028d57806301ffc9a7146102c057806306fdde03146102f057806314427a96146103455780631bc51b261461037d5780631c725fdc1461039157806325289bad146103b15780632890d033146103d85780632c0e1313146103ed5780632c2330671461040d5780632d00b5871461042d578063379607f51461045b5780633b3f12e21461047b5780633d2dded51461049b57806349561cb9146104d8578063513da948146104f957806354fd4d501461052057806357dc48c81461054f5780636057e0ec146105a357806361949636146105c45780636ba4c138146105e4578063715018a61461060457806378b094ca14610619578063790c0c73146106395780638368909c14610659578063837fe1401461068057806384fd5ae01461069557806389c6b815146106b55780638da5cb5b146106d55780639199690b1461037d578063968d9b2c146106f757806396afc450146107175780639edfe8301461072d578063a1bdb15e1461074d578063a1cf64931461076d578063a86b21e8146107b0578063aa02a74b146107d0578063aaf2f999146107f0578063ae890c0a14610810578063af121f5414610830578063c088184914610851578063c0bb38ff14610887578063c723955a146108a7578063d1335b691461037d578063d5ed4d5a146108bc578063d97314f5146108dc578063da82b227146108fc578063dcbe353f14610911578063dd11247e14610938578063ddd5e1b21461094e578063de6d6d961461096e578063f2fde38b1461098e578063f389b6e4146109ae578063f4415ad6146109ce578063f66e38c214610a0657600080fd5b36610288576000341161028657600080fd5b005b600080fd5b34801561029957600080fd5b506102ad6102a836600461263e565b610a26565b6040519081526020015b60405180910390f35b3480156102cc57600080fd5b506102e06102db366004612694565b610a7e565b60405190151581526020016102b7565b3480156102fc57600080fd5b506103386040518060400160405280601c81526020017b45524337323120457175616c20456d697373696f6e2053747265616d60201b81525081565b6040516102b791906126be565b34801561035157600080fd5b50600954610365906001600160401b031681565b6040516001600160401b0390911681526020016102b7565b34801561038957600080fd5b5060016102e0565b34801561039d57600080fd5b506102866103ac36600461272a565b610abe565b3480156103bd57600080fd5b5060035461036590600160a01b90046001600160401b031681565b3480156103e457600080fd5b506102ad610b7e565b3480156103f957600080fd5b5061028661040836600461272a565b610b8f565b34801561041957600080fd5b50610286610428366004612745565b610c12565b34801561043957600080fd5b5060095461044e90600160f01b900460ff1681565b6040516102b7919061277c565b34801561046757600080fd5b506102866104763660046127a4565b610c98565b34801561048757600080fd5b506102ad61049636600461263e565b610ca6565b3480156104a757600080fd5b506000805260056020527f05b8ccbb9d4d8fb16ea74ce3c29a41f1b461fbdaff4714a0d9a8eb05499746bc546102ad565b3480156104e457600080fd5b506009546102e090600160f81b900460ff1681565b34801561050557600080fd5b5060075461036590600160401b90046001600160401b031681565b34801561052c57600080fd5b5061033860405180604001604052806003815260200162302e3160e81b81525081565b34801561055b57600080fd5b5061058e61056a3660046127bd565b60046020908152600092835260408084209091529082529020805460019091015482565b604080519283526020830191909152016102b7565b3480156105af57600080fd5b506009546102e090600160e01b900460ff1681565b3480156105d057600080fd5b50600754610365906001600160401b031681565b3480156105f057600080fd5b506102866105ff3660046127ed565b610d24565b34801561061057600080fd5b50610286610d35565b34801561062557600080fd5b5061028661063436600461272a565b610d70565b34801561064557600080fd5b506102ad61065436600461282e565b610dfd565b34801561066557600080fd5b5060075461036590600160801b90046001600160401b031681565b34801561068c57600080fd5b50610286610ed0565b3480156106a157600080fd5b506102ad6106b03660046127ed565b610f3e565b3480156106c157600080fd5b506102ad6106d03660046127ed565b610f5d565b3480156106e157600080fd5b506106ea610f6b565b6040516102b7919061284b565b34801561070357600080fd5b506102ad6107123660046127a4565b610f80565b34801561072357600080fd5b506102ad60065481565b34801561073957600080fd5b506102ad61074836600461272a565b610f8d565b34801561075957600080fd5b506102866107683660046127a4565b610fd2565b34801561077957600080fd5b506102ad6107883660046127bd565b60009182526004602090815260408084206001600160a01b0393909316845291905290205490565b3480156107bc57600080fd5b506102ad6107cb36600461272a565b611038565b3480156107dc57600080fd5b506102866107eb36600461285f565b61107e565b3480156107fc57600080fd5b5061028661080b36600461272a565b61113c565b34801561081c57600080fd5b5061028661082b3660046127a4565b6111c9565b34801561083c57600080fd5b506009546102e090600160e81b900460ff1681565b34801561085d57600080fd5b506102ad61086c36600461282e565b6001600160a01b031660009081526005602052604090205490565b34801561089357600080fd5b506102866108a236600461282e565b61122f565b3480156108b357600080fd5b506102866112b4565b3480156108c857600080fd5b506003546106ea906001600160a01b031681565b3480156108e857600080fd5b506102866108f736600461272a565b611324565b34801561090857600080fd5b506102866113a7565b34801561091d57600080fd5b506009546106ea90600160401b90046001600160a01b031681565b34801561094457600080fd5b506102ad60085481565b34801561095a57600080fd5b506102866109693660046127bd565b611414565b34801561097a57600080fd5b50610286610989366004612930565b6116a2565b34801561099a57600080fd5b506102866109a936600461282e565b611900565b3480156109ba57600080fd5b506102866109c936600461299b565b61199d565b3480156109da57600080fd5b506102ad6109e93660046127a4565b600090815260046020908152604080832083805290915290205490565b348015610a1257600080fd5b506102ad610a213660046127bd565b611cfb565b600080805b84811015610a7357610a55868683818110610a4857610a48612a02565b9050602002013585611cfb565b610a5f9083612a2e565b915080610a6b81612a46565b915050610a2b565b5090505b9392505050565b60006301ffc9a760e01b6001600160e01b031983161480610ab857506001600160e01b0319821660009081526001602052604090205460ff165b92915050565b33610ac7610f6b565b6001600160a01b031614610af65760405162461bcd60e51b8152600401610aed90612a61565b60405180910390fd5b6003546001600160401b03600160a01b909104811690821611610b525760405162461bcd60e51b815260206004820152601460248201527314d5149150534bd0d0539393d517d49155d2539160621b6044820152606401610aed565b600380546001600160401b03909216600160a01b02600160a01b600160e01b0319909216919091179055565b6000610b8a6000610dfd565b905090565b33610b98610f6b565b6001600160a01b031614610bbe5760405162461bcd60e51b8152600401610aed90612a61565b60035442600160a01b9091046001600160401b031610610bf05760405162461bcd60e51b8152600401610aed90612a96565b600980546001600160401b0319166001600160401b0392909216919091179055565b33610c1b610f6b565b6001600160a01b031614610c415760405162461bcd60e51b8152600401610aed90612a61565b600954600160f81b900460ff1615610c6b5760405162461bcd60e51b8152600401610aed90612ac4565b6009805482919060ff60f01b1916600160f01b836003811115610c9057610c90612766565b021790555050565b610ca3816000611414565b50565b600080805b84811015610a735760046000878784818110610cc957610cc9612a02565b9050602002013581526020019081526020016000206000856001600160a01b03166001600160a01b031681526020019081526020016000206000015482610d109190612a2e565b915080610d1c81612a46565b915050610cab565b610d31828260003361199d565b5050565b33610d3e610f6b565b6001600160a01b031614610d645760405162461bcd60e51b8152600401610aed90612a61565b610d6e6000611d62565b565b33610d79610f6b565b6001600160a01b031614610d9f5760405162461bcd60e51b8152600401610aed90612a61565b60035442600160a01b9091046001600160401b031610610dd15760405162461bcd60e51b8152600401610aed90612a96565b600780546001600160401b03909216600160801b02600160801b600160c01b0319909216919091179055565b60006001600160a01b038216610e31576001600160a01b038216600090815260056020526040902054610ab8904790612a2e565b6040516370a0823160e01b81526001600160a01b038316906370a0823190610e5d90309060040161284b565b60206040518083038186803b158015610e7557600080fd5b505afa158015610e89573d6000803e3d6000fd5b505050506040513d601f19601f82011682018060405250810190610ead9190612afb565b6001600160a01b038316600090815260056020526040902054610ab89190612a2e565b33610ed9610f6b565b6001600160a01b031614610eff5760405162461bcd60e51b8152600401610aed90612a61565b600954600160e01b900460ff1615610f295760405162461bcd60e51b8152600401610aed90612b14565b6009805460ff60e01b1916600160e01b179055565b60085460065460009190610f53908490612b47565b610a779190612b7c565b6000610a7783836000610ca6565b6000546201000090046001600160a01b031690565b6000610ab8826000611cfb565b6007546000906001600160401b0380821691610fb291600160401b9091041684612b90565b610fbc9190612bb8565b6001600160401b0316600654610ab89190612b47565b33610fdb610f6b565b6001600160a01b0316146110015760405162461bcd60e51b8152600401610aed90612a61565b60035442600160a01b9091046001600160401b0316106110335760405162461bcd60e51b8152600401610aed90612a96565b600655565b6007546006546000916001600160401b03808216929161106191600160401b9091041685612b90565b6001600160401b03166110749190612b47565b610ab89190612b7c565b600061108a6001611dbd565b905080156110a2576000805461ff0019166101001790555b6110ab82611d62565b6110b6826000611e51565b6110c883600001518460200151611e82565b6110e4836060015184608001518560a001518660c00151611eb3565b6110f18360400151611eec565b8015611137576000805461ff0019169055604051600181527f7f26b83ff96e1f2b6a682f133852f6798a09c465da95921460cefb38474024989060200160405180910390a15b505050565b33611145610f6b565b6001600160a01b03161461116b5760405162461bcd60e51b8152600401610aed90612a61565b60035442600160a01b9091046001600160401b03161061119d5760405162461bcd60e51b8152600401610aed90612a96565b600780546001600160401b03909216600160401b02600160401b600160801b0319909216919091179055565b336111d2610f6b565b6001600160a01b0316146111f85760405162461bcd60e51b8152600401610aed90612a61565b60035442600160a01b9091046001600160401b03161061122a5760405162461bcd60e51b8152600401610aed90612a96565b600855565b33611238610f6b565b6001600160a01b03161461125e5760405162461bcd60e51b8152600401610aed90612a61565b600954600160e01b900460ff16156112885760405162461bcd60e51b8152600401610aed90612b14565b600980546001600160a01b03909216600160401b02600160401b600160e01b0319909216919091179055565b336112bd610f6b565b6001600160a01b0316146112e35760405162461bcd60e51b8152600401610aed90612a61565b600954600160f81b900460ff161561130d5760405162461bcd60e51b8152600401610aed90612ac4565b600980546001600160f81b0316600160f81b179055565b3361132d610f6b565b6001600160a01b0316146113535760405162461bcd60e51b8152600401610aed90612a61565b60035442600160a01b9091046001600160401b0316106113855760405162461bcd60e51b8152600401610aed90612a96565b600780546001600160401b0319166001600160401b0392909216919091179055565b336113b0610f6b565b6001600160a01b0316146113d65760405162461bcd60e51b8152600401610aed90612a61565b6009805460ff60e81b1916600160e81b1790556040517fa24423a69b45c25c0479663125e48b482e71d85eae416f589545243bafaf3c9590600090a1565b6002805414156114365760405162461bcd60e51b8152600401610aed90612bde565b600280556003546040516331a9108f60e11b8152600481018490526000916001600160a01b031690636352211e9060240160206040518083038186803b15801561147f57600080fd5b505afa158015611493573d6000803e3d6000fd5b505050506040513d601f19601f820116820180604052508101906114b79190612c15565b90506114c4838383611f1c565b60006114d08484611cfb565b90506000811161151c5760405162461bcd60e51b815260206004820152601760248201527653545245414d2f4e4f5448494e475f544f5f434c41494d60481b6044820152606401610aed565b60008481526004602090815260408083206001600160a01b03871684529091528120805483929061154e908490612a2e565b909155505060008481526004602090815260408083206001600160a01b0387168452825280832042600190910155600590915281208054839290611593908490612a2e565b90915550506001600160a01b0383166115be576115b96001600160a01b03831682611f32565b611640565b60405163a9059cbb60e01b81526001600160a01b0384169063a9059cbb906115ec9085908590600401612c32565b602060405180830381600087803b15801561160657600080fd5b505af115801561161a573d6000803e3d6000fd5b505050506040513d601f19601f8201168201806040525081019061163e9190612c4b565b505b604080513381526001600160a01b038481166020830152818301879052851660608201526080810183905290517fa2d3c4c1fc934d6d2d8f9e862df90c01ae4eb0e920cd8957d242ba26b8dc40789181900360a00190a1505060016002555050565b6116ab33612048565b600954600160401b90046001600160a01b03166117025760405162461bcd60e51b815260206004820152601560248201527415d2551211149055cbd393d7d49150d25412515395605a1b6044820152606401610aed565b600954600160e81b900460ff161561175c5760405162461bcd60e51b815260206004820181905260248201527f57495448445241572f454d455247454e43595f504f5745525f5245564f4b45446044820152606401610aed565b60005b838110156118bc57600085858381811061177b5761177b612a02565b9050602002016020810190611790919061282e565b6001600160a01b031614156117dc576117d78383838181106117b4576117b4612a02565b6009546001600160a01b03600160401b9091041692602090910201359050611f32565b6118aa565b8484828181106117ee576117ee612a02565b9050602002016020810190611803919061282e565b6009546001600160a01b039182169163a9059cbb91600160401b90041685858581811061183257611832612a02565b905060200201356040518363ffffffff1660e01b8152600401611856929190612c32565b602060405180830381600087803b15801561187057600080fd5b505af1158015611884573d6000803e3d6000fd5b505050506040513d601f19601f820116820180604052508101906118a89190612c4b565b505b806118b481612a46565b91505061175f565b507fd40c399a83caf67d15628b821aa7c7bd940e563c57a047e2bd3b8c602bcaf5a5848484846040516118f29493929190612ca3565b60405180910390a150505050565b33611909610f6b565b6001600160a01b03161461192f5760405162461bcd60e51b8152600401610aed90612a61565b6001600160a01b0381166119945760405162461bcd60e51b815260206004820152602660248201527f4f776e61626c653a206e6577206f776e657220697320746865207a65726f206160448201526564647265737360d01b6064820152608401610aed565b610ca381611d62565b6002805414156119bf5760405162461bcd60e51b8152600401610aed90612bde565b600280556000805b84811015611bd8576119f28686838181106119e4576119e4612a02565b905060200201358585611f1c565b6003546001600160a01b038085169116636352211e888885818110611a1957611a19612a02565b905060200201356040518263ffffffff1660e01b8152600401611a3e91815260200190565b60206040518083038186803b158015611a5657600080fd5b505afa158015611a6a573d6000803e3d6000fd5b505050506040513d601f19601f82011682018060405250810190611a8e9190612c15565b6001600160a01b031614611adb5760405162461bcd60e51b815260206004820152601460248201527329aa2922a0a697a727aa2fa7232a2fa7aba722a960611b6044820152606401610aed565b6000611aff878784818110611af257611af2612a02565b9050602002013586611cfb565b90508015611bc5578060046000898986818110611b1e57611b1e612a02565b9050602002013581526020019081526020016000206000876001600160a01b03166001600160a01b031681526020019081526020016000206000016000828254611b689190612a2e565b9091555042905060046000898986818110611b8557611b85612a02565b6020908102929092013583525081810192909252604090810160009081206001600160a01b038a168252909252902060010155611bc28184612a2e565b92505b5080611bd081612a46565b9150506119c7565b506001600160a01b03831660009081526005602052604081208054839290611c01908490612a2e565b90915550506001600160a01b038316611c2c57611c276001600160a01b03831682611f32565b611cae565b60405163a9059cbb60e01b81526001600160a01b0384169063a9059cbb90611c5a9085908590600401612c32565b602060405180830381600087803b158015611c7457600080fd5b505af1158015611c88573d6000803e3d6000fd5b505050506040513d601f19601f82011682018060405250810190611cac9190612c4b565b505b7fd84a5c424a4f777bcf4f645712b8e5ebfc550f42bde444fa822fe98ee1b132b1338387878786604051611ce796959493929190612d06565b60405180910390a150506001600255505050565b600080611d1b611d14611d0d85610dfd565b86866121d9565b8585612261565b60008581526004602090815260408083206001600160a01b0388168452909152902054909150611d4b9082612d45565b949350505050565b6001600160a01b03163b151590565b600080546001600160a01b038381166201000081810262010000600160b01b0319851617855560405193049190911692909183917f8be0079c531659141344cd1fd0a4f28419497f9722a3daafe3b4186f6b6457e091a35050565b60008054610100900460ff1615611e0b578160ff166001148015611de75750611de530611d53565b155b611e035760405162461bcd60e51b8152600401610aed90612d5c565b506000919050565b60005460ff808416911610611e325760405162461bcd60e51b8152600401610aed90612d5c565b506000805460ff191660ff92909216919091179055600190565b919050565b600054610100900460ff16611e785760405162461bcd60e51b8152600401610aed90612daa565b610d318282612271565b600054610100900460ff16611ea95760405162461bcd60e51b8152600401610aed90612daa565b610d31828261230b565b600054610100900460ff16611eda5760405162461bcd60e51b8152600401610aed90612daa565b611ee684848484612370565b50505050565b600054610100900460ff16611f135760405162461bcd60e51b8152600401610aed90612daa565b610ca3816123f1565b611f2783838361242d565b61113783838361247f565b80471015611f825760405162461bcd60e51b815260206004820152601d60248201527f416464726573733a20696e73756666696369656e742062616c616e63650000006044820152606401610aed565b6000826001600160a01b03168260405160006040518083038185875af1925050503d8060008114611fcf576040519150601f19603f3d011682016040523d82523d6000602084013e611fd4565b606091505b50509050806111375760405162461bcd60e51b815260206004820152603a60248201527f416464726573733a20756e61626c6520746f2073656e642076616c75652c20726044820152791958da5c1a595b9d081b585e481a185d99481c995d995c9d195960321b6064820152608401610aed565b6003600954600160f01b900460ff16600381111561206857612068612766565b14156120a85760405162461bcd60e51b815260206004820152600f60248201526e15d2551211149055cbd313d0d2d151608a1b6044820152606401610aed565b6002600954600160f01b900460ff1660038111156120c8576120c8612766565b14156120d15750565b6001600954600160f01b900460ff1660038111156120f1576120f1612766565b1415612155576009546001600160a01b03828116600160401b9092041614610ca35760405162461bcd60e51b815260206004820152601760248201527615d2551211149055cbd3d3931657d49150d25412515395604a1b6044820152606401610aed565b6000600954600160f01b900460ff16600381111561217557612175612766565b1415610ca357806001600160a01b031661218d610f6b565b6001600160a01b031614610ca35760405162461bcd60e51b81526020600482015260136024820152722ba4aa24222920ab97a7a7262cafa7aba722a960691b6044820152606401610aed565b600754600090600160401b90046001600160401b03164210156121fe57506000610a77565b600754600160801b90046001600160401b0316158015906122305750600754600160801b90046001600160401b031642115b156122585760075461225190600160801b90046001600160401b0316610f8d565b9050610a77565b61225142610f8d565b600060085484611d4b9190612b7c565b600054610100900460ff166122985760405162461bcd60e51b8152600401610aed90612daa565b6122a863ac2ba33360e01b612552565b60098054600160401b600160e01b03198116600160401b6001600160a01b038616029081178355839291600160401b62ff000160e01b03191660ff60f01b1990911617600160f01b83600381111561230257612302612766565b02179055505050565b600054610100900460ff166123325760405162461bcd60e51b8152600401610aed90612daa565b600380546001600160401b038316600160a01b026001600160e01b03199091166001600160a01b03851617179055610d31631ba050e960e21b612552565b600054610100900460ff166123975760405162461bcd60e51b8152600401610aed90612daa565b6006849055600780546001600160401b03838116600160801b02600160801b600160c01b0319868316600160401b026001600160801b0319909416928816929092179290921716179055611ee663c9f600a960e01b612552565b600054610100900460ff166124185760405162461bcd60e51b8152600401610aed90612daa565b6008819055610ca3632d5305cb60e21b612552565b600954426001600160401b03909116106111375760405162461bcd60e51b815260206004820152601360248201527214d5149150534bd0d310525357d313d0d2d151606a1b6044820152606401610aed565b60075442600160401b9091046001600160401b0316106124d65760405162461bcd60e51b815260206004820152601260248201527114d5149150534bd393d517d4d5105495115160721b6044820152606401610aed565b6007546124ec906001600160401b031642612d45565b60008481526004602090815260408083206001600160a01b0387168452909152902060010154106111375760405162461bcd60e51b815260206004820152601060248201526f53545245414d2f544f4f5f4541524c5960801b6044820152606401610aed565b6001600160e01b031980821614156125ab5760405162461bcd60e51b815260206004820152601c60248201527b115490cc4d8d4e881a5b9d985b1a59081a5b9d195c999858d9481a5960221b6044820152606401610aed565b6001600160e01b0319166000908152600160208190526040909120805460ff19169091179055565b60008083601f8401126125e557600080fd5b5081356001600160401b038111156125fc57600080fd5b6020830191508360208260051b850101111561261757600080fd5b9250929050565b6001600160a01b0381168114610ca357600080fd5b8035611e4c8161261e565b60008060006040848603121561265357600080fd5b83356001600160401b0381111561266957600080fd5b612675868287016125d3565b90945092505060208401356126898161261e565b809150509250925092565b6000602082840312156126a657600080fd5b81356001600160e01b031981168114610a7757600080fd5b600060208083528351808285015260005b818110156126eb578581018301518582016040015282016126cf565b818111156126fd576000604083870101525b50601f01601f1916929092016040019392505050565b80356001600160401b0381168114611e4c57600080fd5b60006020828403121561273c57600080fd5b610a7782612713565b60006020828403121561275757600080fd5b813560048110610a7757600080fd5b634e487b7160e01b600052602160045260246000fd5b602081016004831061279e57634e487b7160e01b600052602160045260246000fd5b91905290565b6000602082840312156127b657600080fd5b5035919050565b600080604083850312156127d057600080fd5b8235915060208301356127e28161261e565b809150509250929050565b6000806020838503121561280057600080fd5b82356001600160401b0381111561281657600080fd5b612822858286016125d3565b90969095509350505050565b60006020828403121561284057600080fd5b8135610a778161261e565b6001600160a01b0391909116815260200190565b60008082840361010081121561287457600080fd5b60e081121561288257600080fd5b5060405160e081016001600160401b03811182821017156128b357634e487b7160e01b600052604160045260246000fd5b6040526128bf84612633565b81526128cd60208501612713565b602082015260408401356040820152606084013560608201526128f260808501612713565b608082015261290360a08501612713565b60a082015261291460c08501612713565b60c0820152915061292760e08401612633565b90509250929050565b6000806000806040858703121561294657600080fd5b84356001600160401b038082111561295d57600080fd5b612969888389016125d3565b9096509450602087013591508082111561298257600080fd5b5061298f878288016125d3565b95989497509550505050565b600080600080606085870312156129b157600080fd5b84356001600160401b038111156129c757600080fd5b6129d3878288016125d3565b90955093505060208501356129e78161261e565b915060408501356129f78161261e565b939692955090935050565b634e487b7160e01b600052603260045260246000fd5b634e487b7160e01b600052601160045260246000fd5b60008219821115612a4157612a41612a18565b500190565b6000600019821415612a5a57612a5a612a18565b5060010190565b6020808252818101527f4f776e61626c653a2063616c6c6572206973206e6f7420746865206f776e6572604082015260600190565b60208082526014908201527314d5149150534bd0d3d3919251d7d313d0d2d15160621b604082015260600190565b6020808252601d908201527f57495448445241572f57495448445241575f4d4f44455f4c4f434b4544000000604082015260600190565b600060208284031215612b0d57600080fd5b5051919050565b60208082526019908201527815d2551211149055cbd49150d2541251539517d313d0d2d151603a1b604082015260600190565b6000816000190483118215151615612b6157612b61612a18565b500290565b634e487b7160e01b600052601260045260246000fd5b600082612b8b57612b8b612b66565b500490565b60006001600160401b0383811690831681811015612bb057612bb0612a18565b039392505050565b60006001600160401b0383811680612bd257612bd2612b66565b92169190910492915050565b6020808252601f908201527f5265656e7472616e637947756172643a207265656e7472616e742063616c6c00604082015260600190565b600060208284031215612c2757600080fd5b8151610a778161261e565b6001600160a01b03929092168252602082015260400190565b600060208284031215612c5d57600080fd5b81518015158114610a7757600080fd5b81835260006001600160fb1b03831115612c8657600080fd5b8260051b8083602087013760009401602001938452509192915050565b6040808252810184905260008560608301825b87811015612ce6578235612cc98161261e565b6001600160a01b0316825260209283019290910190600101612cb6565b508381036020850152612cfa818688612c6d565b98975050505050505050565b600060018060a01b038089168352808816602084015260a06040840152612d3160a084018789612c6d565b941660608301525060800152949350505050565b600082821015612d5757612d57612a18565b500390565b6020808252602e908201527f496e697469616c697a61626c653a20636f6e747261637420697320616c72656160408201526d191e481a5b9a5d1a585b1a5e995960921b606082015260800190565b6020808252602b908201527f496e697469616c697a61626c653a20636f6e7472616374206973206e6f74206960408201526a6e697469616c697a696e6760a81b60608201526080019056fea2646970667358221220dc0a881e59f1aa58216a38be65480ebc4d0de3ac98c202fd9f2de9e05b8bdfae64736f6c63430008090033",
  "devdoc": {
    "kind": "dev",
    "methods": {
      "owner()": {
        "details": "Returns the address of the current owner."
      },
      "renounceOwnership()": {
        "details": "Leaves the contract without owner. It will not be possible to call `onlyOwner` functions anymore. Can only be called by the current owner. NOTE: Renouncing ownership will leave the contract without an owner, thereby removing any functionality that is only available to the owner."
      },
      "supportsInterface(bytes4)": {
        "details": "See {IERC165-supportsInterface}."
      },
      "transferOwnership(address)": {
        "details": "Transfers ownership of the contract to a new account (`newOwner`). Can only be called by the current owner."
      }
    },
    "version": 1
  },
  "userdoc": {
    "kind": "user",
    "methods": {},
    "version": 1
  },
  "storageLayout": {
    "storage": [
      {
        "astId": 886,
        "contract": "contracts/streams/ERC721/presets/ERC721EqualEmissionStream.sol:ERC721EqualEmissionStream",
        "label": "_initialized",
        "offset": 0,
        "slot": "0",
        "type": "t_uint8"
      },
      {
        "astId": 889,
        "contract": "contracts/streams/ERC721/presets/ERC721EqualEmissionStream.sol:ERC721EqualEmissionStream",
        "label": "_initializing",
        "offset": 1,
        "slot": "0",
        "type": "t_bool"
      },
      {
        "astId": 782,
        "contract": "contracts/streams/ERC721/presets/ERC721EqualEmissionStream.sol:ERC721EqualEmissionStream",
        "label": "_owner",
        "offset": 2,
        "slot": "0",
        "type": "t_address"
      },
      {
        "astId": 4693,
        "contract": "contracts/streams/ERC721/presets/ERC721EqualEmissionStream.sol:ERC721EqualEmissionStream",
        "label": "_supportedInterfaces",
        "offset": 0,
        "slot": "1",
        "type": "t_mapping(t_bytes4,t_bool)"
      },
      {
        "astId": 1124,
        "contract": "contracts/streams/ERC721/presets/ERC721EqualEmissionStream.sol:ERC721EqualEmissionStream",
        "label": "_status",
        "offset": 0,
        "slot": "2",
        "type": "t_uint256"
      },
      {
        "astId": 13365,
        "contract": "contracts/streams/ERC721/presets/ERC721EqualEmissionStream.sol:ERC721EqualEmissionStream",
        "label": "ticketToken",
        "offset": 0,
        "slot": "3",
        "type": "t_address"
      },
      {
        "astId": 13367,
        "contract": "contracts/streams/ERC721/presets/ERC721EqualEmissionStream.sol:ERC721EqualEmissionStream",
        "label": "lockedUntilTimestamp",
        "offset": 20,
        "slot": "3",
        "type": "t_uint64"
      },
      {
        "astId": 13374,
        "contract": "contracts/streams/ERC721/presets/ERC721EqualEmissionStream.sol:ERC721EqualEmissionStream",
        "label": "entitlements",
        "offset": 0,
        "slot": "4",
        "type": "t_mapping(t_uint256,t_mapping(t_address,t_struct(Entitlement)13363_storage))"
      },
      {
        "astId": 13378,
        "contract": "contracts/streams/ERC721/presets/ERC721EqualEmissionStream.sol:ERC721EqualEmissionStream",
        "label": "_streamTotalClaimed",
        "offset": 0,
        "slot": "5",
        "type": "t_mapping(t_address,t_uint256)"
      },
      {
        "astId": 14104,
        "contract": "contracts/streams/ERC721/presets/ERC721EqualEmissionStream.sol:ERC721EqualEmissionStream",
        "label": "emissionRate",
        "offset": 0,
        "slot": "6",
        "type": "t_uint256"
      },
      {
        "astId": 14106,
        "contract": "contracts/streams/ERC721/presets/ERC721EqualEmissionStream.sol:ERC721EqualEmissionStream",
        "label": "emissionTimeUnit",
        "offset": 0,
        "slot": "7",
        "type": "t_uint64"
      },
      {
        "astId": 14108,
        "contract": "contracts/streams/ERC721/presets/ERC721EqualEmissionStream.sol:ERC721EqualEmissionStream",
        "label": "emissionStart",
        "offset": 8,
        "slot": "7",
        "type": "t_uint64"
      },
      {
        "astId": 14110,
        "contract": "contracts/streams/ERC721/presets/ERC721EqualEmissionStream.sol:ERC721EqualEmissionStream",
        "label": "emissionEnd",
        "offset": 16,
        "slot": "7",
        "type": "t_uint64"
      },
      {
        "astId": 14421,
        "contract": "contracts/streams/ERC721/presets/ERC721EqualEmissionStream.sol:ERC721EqualEmissionStream",
        "label": "totalTickets",
        "offset": 0,
        "slot": "8",
        "type": "t_uint256"
      },
      {
        "astId": 14613,
        "contract": "contracts/streams/ERC721/presets/ERC721EqualEmissionStream.sol:ERC721EqualEmissionStream",
        "label": "claimLockedUntil",
        "offset": 0,
        "slot": "9",
        "type": "t_uint64"
      },
      {
        "astId": 12045,
        "contract": "contracts/streams/ERC721/presets/ERC721EqualEmissionStream.sol:ERC721EqualEmissionStream",
        "label": "withdrawRecipient",
        "offset": 8,
        "slot": "9",
        "type": "t_address"
      },
      {
        "astId": 12047,
        "contract": "contracts/streams/ERC721/presets/ERC721EqualEmissionStream.sol:ERC721EqualEmissionStream",
        "label": "withdrawRecipientLocked",
        "offset": 28,
        "slot": "9",
        "type": "t_bool"
      },
      {
        "astId": 12049,
        "contract": "contracts/streams/ERC721/presets/ERC721EqualEmissionStream.sol:ERC721EqualEmissionStream",
        "label": "withdrawPowerRevoked",
        "offset": 29,
        "slot": "9",
        "type": "t_bool"
      },
      {
        "astId": 12052,
        "contract": "contracts/streams/ERC721/presets/ERC721EqualEmissionStream.sol:ERC721EqualEmissionStream",
        "label": "withdrawMode",
        "offset": 30,
        "slot": "9",
        "type": "t_enum(WithdrawMode)11989"
      },
      {
        "astId": 12054,
        "contract": "contracts/streams/ERC721/presets/ERC721EqualEmissionStream.sol:ERC721EqualEmissionStream",
        "label": "withdrawModeLocked",
        "offset": 31,
        "slot": "9",
        "type": "t_bool"
      }
    ],
    "types": {
      "t_address": {
        "encoding": "inplace",
        "label": "address",
        "numberOfBytes": "20"
      },
      "t_bool": {
        "encoding": "inplace",
        "label": "bool",
        "numberOfBytes": "1"
      },
      "t_bytes4": {
        "encoding": "inplace",
        "label": "bytes4",
        "numberOfBytes": "4"
      },
      "t_enum(WithdrawMode)11989": {
        "encoding": "inplace",
        "label": "enum WithdrawMode",
        "numberOfBytes": "1"
      },
      "t_mapping(t_address,t_struct(Entitlement)13363_storage)": {
        "encoding": "mapping",
        "key": "t_address",
        "label": "mapping(address => struct ERC721MultiTokenStream.Entitlement)",
        "numberOfBytes": "32",
        "value": "t_struct(Entitlement)13363_storage"
      },
      "t_mapping(t_address,t_uint256)": {
        "encoding": "mapping",
        "key": "t_address",
        "label": "mapping(address => uint256)",
        "numberOfBytes": "32",
        "value": "t_uint256"
      },
      "t_mapping(t_bytes4,t_bool)": {
        "encoding": "mapping",
        "key": "t_bytes4",
        "label": "mapping(bytes4 => bool)",
        "numberOfBytes": "32",
        "value": "t_bool"
      },
      "t_mapping(t_uint256,t_mapping(t_address,t_struct(Entitlement)13363_storage))": {
        "encoding": "mapping",
        "key": "t_uint256",
        "label": "mapping(uint256 => mapping(address => struct ERC721MultiTokenStream.Entitlement))",
        "numberOfBytes": "32",
        "value": "t_mapping(t_address,t_struct(Entitlement)13363_storage)"
      },
      "t_struct(Entitlement)13363_storage": {
        "encoding": "inplace",
        "label": "struct ERC721MultiTokenStream.Entitlement",
        "members": [
          {
            "astId": 13360,
            "contract": "contracts/streams/ERC721/presets/ERC721EqualEmissionStream.sol:ERC721EqualEmissionStream",
            "label": "totalClaimed",
            "offset": 0,
            "slot": "0",
            "type": "t_uint256"
          },
          {
            "astId": 13362,
            "contract": "contracts/streams/ERC721/presets/ERC721EqualEmissionStream.sol:ERC721EqualEmissionStream",
            "label": "lastClaimedAt",
            "offset": 0,
            "slot": "1",
            "type": "t_uint256"
          }
        ],
        "numberOfBytes": "64"
      },
      "t_uint256": {
        "encoding": "inplace",
        "label": "uint256",
        "numberOfBytes": "32"
      },
      "t_uint64": {
        "encoding": "inplace",
        "label": "uint64",
        "numberOfBytes": "8"
      },
      "t_uint8": {
        "encoding": "inplace",
        "label": "uint8",
        "numberOfBytes": "1"
      }
    }
  }
}