{
  "address": "0x9A8050DE80375087c36f753F4Ea6Bb3aEF49A932",
  "abi": [
    {
      "inputs": [],
      "name": "ErrMaxSupplyExceeded",
      "type": "error"
    },
    {
      "anonymous": false,
      "inputs": [
        {
          "indexed": true,
          "internalType": "address",
          "name": "previousOwner",
          "type": "address"
        },
        {
          "indexed": true,
          "internalType": "address",
          "name": "newOwner",
          "type": "address"
        }
      ],
      "name": "OwnershipTransferred",
      "type": "event"
    },
    {
      "anonymous": false,
      "inputs": [
        {
          "indexed": true,
          "internalType": "bytes32",
          "name": "role",
          "type": "bytes32"
        },
        {
          "indexed": true,
          "internalType": "bytes32",
          "name": "previousAdminRole",
          "type": "bytes32"
        },
        {
          "indexed": true,
          "internalType": "bytes32",
          "name": "newAdminRole",
          "type": "bytes32"
        }
      ],
      "name": "RoleAdminChanged",
      "type": "event"
    },
    {
      "anonymous": false,
      "inputs": [
        {
          "indexed": true,
          "internalType": "bytes32",
          "name": "role",
          "type": "bytes32"
        },
        {
          "indexed": true,
          "internalType": "address",
          "name": "account",
          "type": "address"
        },
        {
          "indexed": true,
          "internalType": "address",
          "name": "sender",
          "type": "address"
        }
      ],
      "name": "RoleGranted",
      "type": "event"
    },
    {
      "anonymous": false,
      "inputs": [
        {
          "indexed": true,
          "internalType": "bytes32",
          "name": "role",
          "type": "bytes32"
        },
        {
          "indexed": true,
          "internalType": "address",
          "name": "account",
          "type": "address"
        },
        {
          "indexed": true,
          "internalType": "address",
          "name": "sender",
          "type": "address"
        }
      ],
      "name": "RoleRevoked",
      "type": "event"
    },
    {
      "anonymous": false,
      "inputs": [
        {
          "indexed": true,
          "internalType": "uint256",
          "name": "tierId",
          "type": "uint256"
        },
        {
          "indexed": true,
          "internalType": "address",
          "name": "operator",
          "type": "address"
        },
        {
          "indexed": true,
          "internalType": "address",
          "name": "minter",
          "type": "address"
        },
        {
          "indexed": false,
          "internalType": "uint256",
          "name": "count",
          "type": "uint256"
        }
      ],
      "name": "TierSale",
      "type": "event"
    },
    {
      "inputs": [],
      "name": "DEFAULT_ADMIN_ROLE",
      "outputs": [
        {
          "internalType": "bytes32",
          "name": "",
          "type": "bytes32"
        }
      ],
      "stateMutability": "view",
      "type": "function"
    },
    {
      "inputs": [],
      "name": "MERCHANT_ROLE",
      "outputs": [
        {
          "internalType": "bytes32",
          "name": "",
          "type": "bytes32"
        }
      ],
      "stateMutability": "view",
      "type": "function"
    },
    {
      "inputs": [
        {
          "internalType": "uint256",
          "name": "tierId",
          "type": "uint256"
        },
        {
          "internalType": "address",
          "name": "minter",
          "type": "address"
        },
        {
          "internalType": "uint256",
          "name": "maxAllowance",
          "type": "uint256"
        },
        {
          "internalType": "bytes32[]",
          "name": "proof",
          "type": "bytes32[]"
        }
      ],
      "name": "eligibleForTier",
      "outputs": [
        {
          "internalType": "uint256",
          "name": "maxMintable",
          "type": "uint256"
        }
      ],
      "stateMutability": "view",
      "type": "function"
    },
    {
      "inputs": [
        {
          "internalType": "uint256",
          "name": "tierId",
          "type": "uint256"
        },
        {
          "internalType": "uint256",
          "name": "count",
          "type": "uint256"
        },
        {
          "internalType": "uint256",
          "name": "maxAllowance",
          "type": "uint256"
        },
        {
          "internalType": "bytes32[]",
          "name": "proof",
          "type": "bytes32[]"
        }
      ],
      "name": "mintByTier",
      "outputs": [],
      "stateMutability": "payable",
      "type": "function"
    },
    {
      "inputs": [
        {
          "internalType": "address",
          "name": "minter",
          "type": "address"
        },
        {
          "internalType": "uint256",
          "name": "tierId",
          "type": "uint256"
        },
        {
          "internalType": "uint256",
          "name": "count",
          "type": "uint256"
        },
        {
          "internalType": "uint256",
          "name": "maxAllowance",
          "type": "uint256"
        },
        {
          "internalType": "bytes32[]",
          "name": "proof",
          "type": "bytes32[]"
        }
      ],
      "name": "mintByTierByRole",
      "outputs": [],
      "stateMutability": "payable",
      "type": "function"
    },
    {
      "inputs": [
        {
          "internalType": "uint256",
          "name": "tierId",
          "type": "uint256"
        },
        {
          "internalType": "address",
          "name": "minter",
          "type": "address"
        },
        {
          "internalType": "uint256",
          "name": "maxAllowance",
          "type": "uint256"
        },
        {
          "internalType": "bytes32[]",
          "name": "proof",
          "type": "bytes32[]"
        }
      ],
      "name": "onTierAllowlist",
      "outputs": [
        {
          "internalType": "bool",
          "name": "",
          "type": "bool"
        }
      ],
      "stateMutability": "view",
      "type": "function"
    },
    {
      "inputs": [
        {
          "internalType": "uint256",
          "name": "tierId",
          "type": "uint256"
        }
      ],
      "name": "remainingForTier",
      "outputs": [
        {
          "internalType": "uint256",
          "name": "",
          "type": "uint256"
        }
      ],
      "stateMutability": "view",
      "type": "function"
    },
    {
      "inputs": [],
      "name": "reservedMints",
      "outputs": [
        {
          "internalType": "uint256",
          "name": "",
          "type": "uint256"
        }
      ],
      "stateMutability": "view",
      "type": "function"
    },
    {
      "inputs": [
        {
          "internalType": "uint256",
          "name": "tierId",
          "type": "uint256"
        }
      ],
      "name": "tierMints",
      "outputs": [
        {
          "internalType": "uint256",
          "name": "",
          "type": "uint256"
        }
      ],
      "stateMutability": "view",
      "type": "function"
    },
    {
      "inputs": [
        {
          "internalType": "uint256",
          "name": "tierId",
          "type": "uint256"
        }
      ],
      "name": "tiers",
      "outputs": [
        {
          "components": [
            {
              "internalType": "uint256",
              "name": "start",
              "type": "uint256"
            },
            {
              "internalType": "uint256",
              "name": "end",
              "type": "uint256"
            },
            {
              "internalType": "address",
              "name": "currency",
              "type": "address"
            },
            {
              "internalType": "uint256",
              "name": "price",
              "type": "uint256"
            },
            {
              "internalType": "uint256",
              "name": "maxPerWallet",
              "type": "uint256"
            },
            {
              "internalType": "bytes32",
              "name": "merkleRoot",
              "type": "bytes32"
            },
            {
              "internalType": "uint256",
              "name": "reserved",
              "type": "uint256"
            },
            {
              "internalType": "uint256",
              "name": "maxAllocation",
              "type": "uint256"
            }
          ],
          "internalType": "struct ITieredSalesInternal.Tier",
          "name": "",
          "type": "tuple"
        }
      ],
      "stateMutability": "view",
      "type": "function"
    },
    {
      "inputs": [],
      "name": "totalReserved",
      "outputs": [
        {
          "internalType": "uint256",
          "name": "",
          "type": "uint256"
        }
      ],
      "stateMutability": "view",
      "type": "function"
    },
    {
      "inputs": [
        {
          "internalType": "uint256",
          "name": "tierId",
          "type": "uint256"
        },
        {
          "internalType": "address",
          "name": "wallet",
          "type": "address"
        }
      ],
      "name": "walletMintedByTier",
      "outputs": [
        {
          "internalType": "uint256",
          "name": "",
          "type": "uint256"
        }
      ],
      "stateMutability": "view",
      "type": "function"
    }
  ],
  "transactionHash": "0x474a0cc85c10c110191404a9b3c7fe909c43987fd6fc76055abb7ca55b831cd6",
  "args": [],
  "numDeployments": 2,
  "solcInputHash": "babb323e8d447d3ed5545515696dedf9",
  "bytecode": "0x608060405234801561001057600080fd5b506119b5806100206000396000f3fe6080604052600436106100c75760003560e01c80635ea2c91b11610074578063b3d358391161004e578063b3d35839146102dc578063bd2c18f714610310578063c71b0e1c1461033057600080fd5b80635ea2c91b1461028457806368c7d37c14610297578063a217fddf146102c757600080fd5b8063352a90bb116100a5578063352a90bb1461020357806353367f08146102185780635897f8781461026457600080fd5b8063039af9eb146100cc5780631123f2ef1461015f5780632cb9b2ac146101cf575b600080fd5b3480156100d857600080fd5b506100ec6100e73660046115ef565b610364565b604051610156919060006101008201905082518252602083015160208301526001600160a01b036040840151166040830152606083015160608301526080830151608083015260a083015160a083015260c083015160c083015260e083015160e083015292915050565b60405180910390f35b34801561016b57600080fd5b506101c161017a366004611624565b60009182527fb7471df0c7246ed3d4a380504edfbb03f5845b709c7716243791636e4ba46cbf602090815260408084206001600160a01b0393909316845291905290205490565b604051908152602001610156565b3480156101db57600080fd5b507fb7471df0c7246ed3d4a380504edfbb03f5845b709c7716243791636e4ba46cbc546101c1565b61021661021136600461169c565b61044e565b005b34801561022457600080fd5b506101c16102333660046115ef565b60009081527fb7471df0c7246ed3d4a380504edfbb03f5845b709c7716243791636e4ba46cbe602052604090205490565b34801561027057600080fd5b506101c161027f3660046115ef565b6105cc565b61021661029236600461170d565b610643565b3480156102a357600080fd5b506102b76102b236600461176e565b610795565b6040519015158152602001610156565b3480156102d357600080fd5b506101c1600081565b3480156102e857600080fd5b506101c17f3c4a2d89ed8b4cf4347fec87df1c38410f8fc538bf9fd64c10f2717bc0feff3681565b34801561031c57600080fd5b506101c161032b36600461176e565b6107ae565b34801561033c57600080fd5b507fb7471df0c7246ed3d4a380504edfbb03f5845b709c7716243791636e4ba46cbb546101c1565b6103b8604051806101000160405280600081526020016000815260200160006001600160a01b0316815260200160008152602001600081526020016000801916815260200160008152602001600081525090565b5060009081527fb7471df0c7246ed3d4a380504edfbb03f5845b709c7716243791636e4ba46cbd60209081526040918290208251610100810184528154815260018201549281019290925260028101546001600160a01b0316928201929092526003820154606082015260048201546080820152600582015460a0820152600682015460c082015260079091015460e082015290565b60027f3d9e0cf98d8ac76a756d900415e06fbccac0f9e61251a384452695e2330be6e054036104c45760405162461bcd60e51b815260206004820152601f60248201527f5265656e7472616e637947756172643a207265656e7472616e742063616c6c0060448201526064015b60405180910390fd5b60027f3d9e0cf98d8ac76a756d900415e06fbccac0f9e61251a384452695e2330be6e0557f3c4a2d89ed8b4cf4347fec87df1c38410f8fc538bf9fd64c10f2717bc0feff36610512816107e1565b6105208787878787876107ee565b6040517f2d4f475f0000000000000000000000000000000000000000000000000000000081526001600160a01b0388166004820152602481018690523090632d4f475f90604401600060405180830381600087803b15801561058157600080fd5b505af1158015610595573d6000803e3d6000fd5b505050505060016105c37f3d9e0cf98d8ac76a756d900415e06fbccac0f9e61251a384452695e2330be6e090565b55505050505050565b60007fb7471df0c7246ed3d4a380504edfbb03f5845b709c7716243791636e4ba46cbb816105f984610a2b565b600085815260038401602090815260408083205460028701909252822060070154929350909161062991906117cf565b90508082101561063b57509392505050565b949350505050565b60027f3d9e0cf98d8ac76a756d900415e06fbccac0f9e61251a384452695e2330be6e054036106b45760405162461bcd60e51b815260206004820152601f60248201527f5265656e7472616e637947756172643a207265656e7472616e742063616c6c0060448201526064016104bb565b60027f3d9e0cf98d8ac76a756d900415e06fbccac0f9e61251a384452695e2330be6e0556106e58585858585610aea565b30632d4f475f336040517fffffffff0000000000000000000000000000000000000000000000000000000060e084901b1681526001600160a01b03909116600482015260248101879052604401600060405180830381600087803b15801561074c57600080fd5b505af1158015610760573d6000803e3d6000fd5b50505050600161078d7f3d9e0cf98d8ac76a756d900415e06fbccac0f9e61251a384452695e2330be6e090565b555050505050565b60006107a48686868686610d4b565b9695505050505050565b60006107a48686868686610e07565b7fb7471df0c7246ed3d4a380504edfbb03f5845b709c7716243791636e4ba46cbb90565b6107eb81336110d9565b50565b60006107fd8688868686610e07565b90507fb7471df0c7246ed3d4a380504edfbb03f5845b709c7716243791636e4ba46cbb818611156108705760405162461bcd60e51b815260206004820152600b60248201527f455843454544535f4d415800000000000000000000000000000000000000000060448201526064016104bb565b61087987610a2b565b8611156108c85760405162461bcd60e51b815260206004820152600e60248201527f455843454544535f535550504c5900000000000000000000000000000000000060448201526064016104bb565b600087815260028201602090815260408083206007015460038501909252909120546108f490886117e6565b11156109425760405162461bcd60e51b815260206004820152601260248201527f455843454544535f414c4c4f434154494f4e000000000000000000000000000060448201526064016104bb565b600087815260048201602090815260408083206001600160a01b038c168452909152812080548892906109769084906117e6565b909155505060008781526003820160205260408120805488929061099b9084906117e6565b90915550506000878152600282016020526040902060060154156109d357858160010160008282546109cd91906117e6565b90915550505b6001600160a01b038816336001600160a01b0316887f6b995c2a6f13fda3bb1769289588283f7687b909bdceba7789276ad33ad422f789604051610a1991815260200190565b60405180910390a45050505050505050565b7fb7471df0c7246ed3d4a380504edfbb03f5845b709c7716243791636e4ba46cbc547fb7471df0c7246ed3d4a380504edfbb03f5845b709c7716243791636e4ba46cbb8054600092610a7c916117cf565b610a8584611171565b610a8f91906117cf565b600084815260028301602052604090206006015490925015610ae45760008381526003820160209081526040808320546002850190925290912060060154610ad791906117cf565b610ae190836117e6565b91505b50919050565b336000610afa8783878787610e07565b90507fb7471df0c7246ed3d4a380504edfbb03f5845b709c7716243791636e4ba46cbb81871115610b6d5760405162461bcd60e51b815260206004820152600b60248201527f455843454544535f4d415800000000000000000000000000000000000000000060448201526064016104bb565b610b7688610a2b565b871115610bc55760405162461bcd60e51b815260206004820152600e60248201527f455843454544535f535550504c5900000000000000000000000000000000000060448201526064016104bb565b60008881526002820160209081526040808320600701546003850190925290912054610bf190896117e6565b1115610c3f5760405162461bcd60e51b815260206004820152601260248201527f455843454544535f414c4c4f434154494f4e000000000000000000000000000060448201526064016104bb565b60008881526002808301602052604090912090810154600390910154610c74918a9186916001600160a01b0316908b906111f2565b600088815260048201602090815260408083206001600160a01b038716845290915281208054899290610ca89084906117e6565b9091555050600088815260038201602052604081208054899290610ccd9084906117e6565b9091555050600088815260028201602052604090206006015415610d055786816001016000828254610cff91906117e6565b90915550505b826001600160a01b0316836001600160a01b0316897f6b995c2a6f13fda3bb1769289588283f7687b909bdceba7789276ad33ad422f78a604051610a1991815260200190565b60006107a4838380806020026020016040519081016040528093929190818152602001838360200280828437600092019190915250610d8d92506107bd915050565b60008981526002919091016020526040902060050154610e0288886040517fffffffffffffffffffffffffffffffffffffffff000000000000000000000000606084901b1660208201526034810182905260009060540160405160208183030381529060405280519060200120905092915050565b611318565b60008581527fb7471df0c7246ed3d4a380504edfbb03f5845b709c7716243791636e4ba46cbd60205260408120600401547fb7471df0c7246ed3d4a380504edfbb03f5845b709c7716243791636e4ba46cbb90610ea65760405162461bcd60e51b815260206004820152600a60248201527f4e4f545f4558495354530000000000000000000000000000000000000000000060448201526064016104bb565b6000878152600282016020526040902054421015610f065760405162461bcd60e51b815260206004820152600b60248201527f4e4f545f5354415254454400000000000000000000000000000000000000000060448201526064016104bb565b6000878152600282016020526040902060010154421115610f695760405162461bcd60e51b815260206004820152600d60248201527f414c52454144595f454e4445440000000000000000000000000000000000000060448201526064016104bb565b60008781526004808301602090815260408084206001600160a01b038b1685528252808420548b8552600286019092529092200154610fa891906117cf565b6000888152600283016020526040902060050154909250156110cf57600087815260048201602090815260408083206001600160a01b038a16845290915290205485116110375760405162461bcd60e51b815260206004820152600f60248201527f4d415845445f414c4c4f57414e4345000000000000000000000000000000000060448201526064016104bb565b6110448787878787610d4b565b6110905760405162461bcd60e51b815260206004820152600f60248201527f4e4f545f414c4c4f574c4953544544000000000000000000000000000000000060448201526064016104bb565b600087815260048201602090815260408083206001600160a01b038a1684529091528120546110bf90876117cf565b9050808311156110cd578092505b505b5095945050505050565b60008281527f2e59e4c2e927cdddbb64e181e0668d9a0fa70dd88f94d999cd87d5496a20da62602090815260408083206001600160a01b038516845290915290205460ff1661116d5761112b8161132e565b61113683602061134a565b60405160200161114792919061182e565b60408051601f198184030181529082905262461bcd60e51b82526104bb916004016118af565b5050565b6000806111bf7faa3a0910ce5fb062d392dc5a532ff9d50bb9d0f614a8eda1a3ec786de0b761f4547faa3a0910ce5fb062d392dc5a532ff9d50bb9d0f614a8eda1a3ec786de0b761f3540390565b7faa3a0910ce5fb062d392dc5a532ff9d50bb9d0f614a8eda1a3ec786de0b761f5546111eb91906117cf565b9392505050565b8015611311576001600160a01b038316611264573461121183836118e2565b111561125f5760405162461bcd60e51b815260206004820152601360248201527f494e53554646494349454e545f414d4f554e540000000000000000000000000060448201526064016104bb565b611311565b6001600160a01b0383166323b872dd853061127f86866118e2565b6040517fffffffff0000000000000000000000000000000000000000000000000000000060e086901b1681526001600160a01b03938416600482015292909116602483015260448201526064016020604051808303816000875af11580156112eb573d6000803e3d6000fd5b505050506040513d601f19601f8201168201806040525081019061130f9190611901565b505b5050505050565b6000826113258584611573565b14949350505050565b60606113446001600160a01b038316601461134a565b92915050565b606060006113598360026118e2565b6113649060026117e6565b67ffffffffffffffff81111561137c5761137c611923565b6040519080825280601f01601f1916602001820160405280156113a6576020820181803683370190505b5090507f3000000000000000000000000000000000000000000000000000000000000000816000815181106113dd576113dd611939565b60200101907effffffffffffffffffffffffffffffffffffffffffffffffffffffffffffff1916908160001a9053507f78000000000000000000000000000000000000000000000000000000000000008160018151811061144057611440611939565b60200101907effffffffffffffffffffffffffffffffffffffffffffffffffffffffffffff1916908160001a905350600061147c8460026118e2565b6114879060016117e6565b90505b6001811115611524577f303132333435363738396162636465660000000000000000000000000000000085600f16601081106114c8576114c8611939565b1a60f81b8282815181106114de576114de611939565b60200101907effffffffffffffffffffffffffffffffffffffffffffffffffffffffffffff1916908160001a90535060049490941c9361151d8161194f565b905061148a565b5083156111eb5760405162461bcd60e51b815260206004820181905260248201527f537472696e67733a20686578206c656e67746820696e73756666696369656e7460448201526064016104bb565b600081815b84518110156115b8576115a48286838151811061159757611597611939565b60200260200101516115c0565b9150806115b081611966565b915050611578565b509392505050565b60008183106115dc5760008281526020849052604090206111eb565b60008381526020839052604090206111eb565b60006020828403121561160157600080fd5b5035919050565b80356001600160a01b038116811461161f57600080fd5b919050565b6000806040838503121561163757600080fd5b8235915061164760208401611608565b90509250929050565b60008083601f84011261166257600080fd5b50813567ffffffffffffffff81111561167a57600080fd5b6020830191508360208260051b850101111561169557600080fd5b9250929050565b60008060008060008060a087890312156116b557600080fd5b6116be87611608565b9550602087013594506040870135935060608701359250608087013567ffffffffffffffff8111156116ef57600080fd5b6116fb89828a01611650565b979a9699509497509295939492505050565b60008060008060006080868803121561172557600080fd5b853594506020860135935060408601359250606086013567ffffffffffffffff81111561175157600080fd5b61175d88828901611650565b969995985093965092949392505050565b60008060008060006080868803121561178657600080fd5b8535945061179660208701611608565b935060408601359250606086013567ffffffffffffffff81111561175157600080fd5b634e487b7160e01b600052601160045260246000fd5b6000828210156117e1576117e16117b9565b500390565b600082198211156117f9576117f96117b9565b500190565b60005b83811015611819578181015183820152602001611801565b83811115611828576000848401525b50505050565b7f416363657373436f6e74726f6c3a206163636f756e74200000000000000000008152600083516118668160178501602088016117fe565b7f206973206d697373696e6720726f6c652000000000000000000000000000000060179184019182015283516118a38160288401602088016117fe565b01602801949350505050565b60208152600082518060208401526118ce8160408501602087016117fe565b601f01601f19169190910160400192915050565b60008160001904831182151516156118fc576118fc6117b9565b500290565b60006020828403121561191357600080fd5b815180151581146111eb57600080fd5b634e487b7160e01b600052604160045260246000fd5b634e487b7160e01b600052603260045260246000fd5b60008161195e5761195e6117b9565b506000190190565b600060018201611978576119786117b9565b506001019056fea2646970667358221220e56f66cca2f592d0ecb05cc4f32cfc54bc0017f36a54de652e8b395668d135cb64736f6c634300080f0033",
  "devdoc": {
    "custom:category": "NFTs",
    "custom:provides-interfaces": "ITieredSales ITieredSalesRoleBased",
    "custom:required-dependencies": "IERC721MintableExtension IERC721SupplyExtension",
    "custom:type": "eip-2535-facet",
    "kind": "dev",
    "methods": {},
    "title": "ERC721 - Tiered Sales",
    "version": 1
  },
  "userdoc": {
    "kind": "user",
    "methods": {},
    "notice": "Sales mechanism for ERC721 NFTs with multiple tiered pricing, allowlist and allocation plans.",
    "version": 1
  },
  "storageLayout": {
    "storage": [],
    "types": null
  }
}