{
  "address": "0x8D6B1DEe1Ce4901D917eAD895A955F19F783AC8a",
  "abi": [
    {
      "inputs": [],
      "stateMutability": "nonpayable",
      "type": "constructor"
    },
    {
      "anonymous": false,
      "inputs": [
        {
          "indexed": false,
          "internalType": "uint8",
          "name": "version",
          "type": "uint8"
        }
      ],
      "name": "Initialized",
      "type": "event"
    },
    {
      "anonymous": false,
      "inputs": [
        {
          "indexed": true,
          "internalType": "address",
          "name": "previousOwner",
          "type": "address"
        },
        {
          "indexed": true,
          "internalType": "address",
          "name": "newOwner",
          "type": "address"
        }
      ],
      "name": "OwnershipTransferred",
      "type": "event"
    },
    {
      "anonymous": false,
      "inputs": [
        {
          "indexed": true,
          "internalType": "address",
          "name": "deployer",
          "type": "address"
        },
        {
          "indexed": true,
          "internalType": "address",
          "name": "proxyAddress",
          "type": "address"
        }
      ],
      "name": "ProxyCreated",
      "type": "event"
    },
    {
      "anonymous": false,
      "inputs": [],
      "name": "WithdrawPowerRevoked",
      "type": "event"
    },
    {
      "anonymous": false,
      "inputs": [
        {
          "indexed": false,
          "internalType": "address[]",
          "name": "claimTokens",
          "type": "address[]"
        },
        {
          "indexed": false,
          "internalType": "uint256[]",
          "name": "amounts",
          "type": "uint256[]"
        }
      ],
      "name": "Withdrawn",
      "type": "event"
    },
    {
      "inputs": [
        {
          "internalType": "address",
          "name": "implementation",
          "type": "address"
        },
        {
          "internalType": "bytes32",
          "name": "salt",
          "type": "bytes32"
        },
        {
          "internalType": "bytes",
          "name": "data",
          "type": "bytes"
        }
      ],
      "name": "cloneDeterministicSimple",
      "outputs": [
        {
          "internalType": "address",
          "name": "deployedProxy",
          "type": "address"
        }
      ],
      "stateMutability": "payable",
      "type": "function"
    },
    {
      "inputs": [],
      "name": "initialize",
      "outputs": [],
      "stateMutability": "nonpayable",
      "type": "function"
    },
    {
      "inputs": [],
      "name": "lockWithdrawMode",
      "outputs": [],
      "stateMutability": "nonpayable",
      "type": "function"
    },
    {
      "inputs": [],
      "name": "lockWithdrawRecipient",
      "outputs": [],
      "stateMutability": "nonpayable",
      "type": "function"
    },
    {
      "inputs": [],
      "name": "owner",
      "outputs": [
        {
          "internalType": "address",
          "name": "",
          "type": "address"
        }
      ],
      "stateMutability": "view",
      "type": "function"
    },
    {
      "inputs": [
        {
          "internalType": "address",
          "name": "implementation",
          "type": "address"
        },
        {
          "internalType": "bytes32",
          "name": "salt",
          "type": "bytes32"
        }
      ],
      "name": "predictDeterministicSimple",
      "outputs": [
        {
          "internalType": "address",
          "name": "deployedProxy",
          "type": "address"
        }
      ],
      "stateMutability": "view",
      "type": "function"
    },
    {
      "inputs": [],
      "name": "renounceOwnership",
      "outputs": [],
      "stateMutability": "nonpayable",
      "type": "function"
    },
    {
      "inputs": [],
      "name": "revokeWithdrawPower",
      "outputs": [],
      "stateMutability": "nonpayable",
      "type": "function"
    },
    {
      "inputs": [
        {
          "internalType": "enum WithdrawMode",
          "name": "_withdrawMode",
          "type": "uint8"
        }
      ],
      "name": "setWithdrawMode",
      "outputs": [],
      "stateMutability": "nonpayable",
      "type": "function"
    },
    {
      "inputs": [
        {
          "internalType": "address",
          "name": "_withdrawRecipient",
          "type": "address"
        }
      ],
      "name": "setWithdrawRecipient",
      "outputs": [],
      "stateMutability": "nonpayable",
      "type": "function"
    },
    {
      "inputs": [
        {
          "internalType": "bytes4",
          "name": "interfaceId",
          "type": "bytes4"
        }
      ],
      "name": "supportsInterface",
      "outputs": [
        {
          "internalType": "bool",
          "name": "",
          "type": "bool"
        }
      ],
      "stateMutability": "view",
      "type": "function"
    },
    {
      "inputs": [
        {
          "internalType": "address",
          "name": "newOwner",
          "type": "address"
        }
      ],
      "name": "transferOwnership",
      "outputs": [],
      "stateMutability": "nonpayable",
      "type": "function"
    },
    {
      "inputs": [
        {
          "internalType": "address[]",
          "name": "claimTokens",
          "type": "address[]"
        },
        {
          "internalType": "uint256[]",
          "name": "amounts",
          "type": "uint256[]"
        }
      ],
      "name": "withdraw",
      "outputs": [],
      "stateMutability": "nonpayable",
      "type": "function"
    },
    {
      "inputs": [],
      "name": "withdrawMode",
      "outputs": [
        {
          "internalType": "enum WithdrawMode",
          "name": "",
          "type": "uint8"
        }
      ],
      "stateMutability": "view",
      "type": "function"
    },
    {
      "inputs": [],
      "name": "withdrawModeLocked",
      "outputs": [
        {
          "internalType": "bool",
          "name": "",
          "type": "bool"
        }
      ],
      "stateMutability": "view",
      "type": "function"
    },
    {
      "inputs": [],
      "name": "withdrawPowerRevoked",
      "outputs": [
        {
          "internalType": "bool",
          "name": "",
          "type": "bool"
        }
      ],
      "stateMutability": "view",
      "type": "function"
    },
    {
      "inputs": [],
      "name": "withdrawRecipient",
      "outputs": [
        {
          "internalType": "address",
          "name": "",
          "type": "address"
        }
      ],
      "stateMutability": "view",
      "type": "function"
    },
    {
      "inputs": [],
      "name": "withdrawRecipientLocked",
      "outputs": [
        {
          "internalType": "bool",
          "name": "",
          "type": "bool"
        }
      ],
      "stateMutability": "view",
      "type": "function"
    }
  ],
  "transactionHash": "0x528fbb4a5848e3ab15539b53520c0ac174a0e425541aa3d6f66563c45b4995b4",
  "args": [],
  "numDeployments": 5,
  "solcInputHash": "bcc96f200c888fc61ceafee41ff799bf",
  "bytecode": "0x60806040523480156200001157600080fd5b506200001d336200002d565b6200002762000088565b62000377565b600080546001600160a01b038381166201000081810262010000600160b01b0319851617855560405193049190911692909183917f8be0079c531659141344cd1fd0a4f28419497f9722a3daafe3b4186f6b6457e091a35050565b600054610100900460ff1615808015620000a95750600054600160ff909116105b80620000d95750620000c630620001bd60201b62000a6f1760201c565b158015620000d9575060005460ff166001145b620001425760405162461bcd60e51b815260206004820152602e60248201527f496e697469616c697a61626c653a20636f6e747261637420697320616c72656160448201526d191e481a5b9a5d1a585b1a5e995960921b60648201526084015b60405180910390fd5b6000805460ff19166001179055801562000166576000805461ff0019166101001790555b62000173336000620001cc565b8015620001ba576000805461ff0019169055604051600181527f7f26b83ff96e1f2b6a682f133852f6798a09c465da95921460cefb38474024989060200160405180910390a15b50565b6001600160a01b03163b151590565b600054610100900460ff16620001f65760405162461bcd60e51b8152600401620001399062000316565b62000202828262000206565b5050565b600054610100900460ff16620002305760405162461bcd60e51b8152600401620001399062000316565b6200024263ac2ba33360e01b62000292565b600280546001600160a01b0384166001600160a01b0319821681178355839291600162ff000160a01b03191617600160b01b83600381111562000289576200028962000361565b02179055505050565b6001600160e01b03198082169003620002ee5760405162461bcd60e51b815260206004820152601c60248201527f4552433136353a20696e76616c696420696e7465726661636520696400000000604482015260640162000139565b6001600160e01b0319166000908152600160208190526040909120805460ff19169091179055565b6020808252602b908201527f496e697469616c697a61626c653a20636f6e7472616374206973206e6f74206960408201526a6e697469616c697a696e6760a81b606082015260800190565b634e487b7160e01b600052602160045260246000fd5b6113ee80620003876000396000f3fe6080604052600436106100d95760003560e01c806301ffc9a7146100de57806310db94b9146101135780632c2330671461014b5780632d00b5871461016d57806347791ece1461019b57806349561cb9146101ae5780636057e0ec146101cf578063715018a6146101f05780638129fc1c14610205578063837fe1401461021a5780638da5cb5b1461022f578063af121f5414610244578063c0bb38ff14610265578063c723955a14610285578063da82b2271461029a578063dcbe353f146102af578063de6d6d96146102cf578063f2fde38b146102ef575b600080fd5b3480156100ea57600080fd5b506100fe6100f9366004611019565b61030f565b60405190151581526020015b60405180910390f35b34801561011f57600080fd5b5061013361012e36600461105f565b61034f565b6040516001600160a01b03909116815260200161010a565b34801561015757600080fd5b5061016b610166366004611089565b61038f565b005b34801561017957600080fd5b5060025461018e90600160b01b900460ff1681565b60405161010a91906110c0565b6101336101a93660046110e8565b6103f7565b3480156101ba57600080fd5b506002546100fe90600160b81b900460ff1681565b3480156101db57600080fd5b506002546100fe90600160a01b900460ff1681565b3480156101fc57600080fd5b5061016b61052c565b34801561021157600080fd5b5061016b610540565b34801561022657600080fd5b5061016b61065b565b34801561023b57600080fd5b506101336106a2565b34801561025057600080fd5b506002546100fe90600160a81b900460ff1681565b34801561027157600080fd5b5061016b61028036600461116e565b6106b7565b34801561029157600080fd5b5061016b61070b565b3480156102a657600080fd5b5061016b61076a565b3480156102bb57600080fd5b50600254610133906001600160a01b031681565b3480156102db57600080fd5b5061016b6102ea3660046111d4565b6107b0565b3480156102fb57600080fd5b5061016b61030a36600461116e565b6109f9565b60006301ffc9a760e01b6001600160e01b03198316148061034957506001600160e01b0319821660009081526001602052604090205460ff165b92915050565b600080338360405160200161036592919061123f565b6040516020818303038152906040528051906020012090506103878482610a7e565b949350505050565b610397610aeb565b600254600160b81b900460ff16156103ca5760405162461bcd60e51b81526004016103c19061125c565b60405180910390fd5b6002805482919060ff60b01b1916600160b01b8360038111156103ef576103ef6110aa565b021790555050565b600080338560405160200161040d92919061123f565b60405160208183030381529060405280519060200120905061042f8682610b4a565b915082156104ed57600080836001600160a01b0316868660405161045492919061127c565b6000604051808303816000865af19150503d8060008114610491576040519150601f19603f3d011682016040523d82523d6000602084013e610496565b606091505b5091509150816104ea578051156104b05780518082602001fd5b60405162461bcd60e51b815260206004820152600f60248201526e4641494c45445f544f5f434c4f4e4560881b60448201526064016103c1565b50505b6040516001600160a01b0383169033907f9678a1e87ca9f1a37dc659a97b39d812d98cd236947e1b53b3d0d6fd346acb6e90600090a350949350505050565b610534610aeb565b61053e6000610be4565b565b600054610100900460ff16158080156105605750600054600160ff909116105b80610581575061056f30610a6f565b158015610581575060005460ff166001145b6105e45760405162461bcd60e51b815260206004820152602e60248201527f496e697469616c697a61626c653a20636f6e747261637420697320616c72656160448201526d191e481a5b9a5d1a585b1a5e995960921b60648201526084016103c1565b6000805460ff191660011790558015610607576000805461ff0019166101001790555b610612336000610c3f565b8015610658576000805461ff0019169055604051600181527f7f26b83ff96e1f2b6a682f133852f6798a09c465da95921460cefb38474024989060200160405180910390a15b50565b610663610aeb565b600254600160a01b900460ff161561068d5760405162461bcd60e51b81526004016103c19061125c565b6002805460ff60a01b1916600160a01b179055565b6000546201000090046001600160a01b031690565b6106bf610aeb565b600254600160a01b900460ff16156106e95760405162461bcd60e51b81526004016103c19061125c565b600280546001600160a01b0319166001600160a01b0392909216919091179055565b610713610aeb565b600254600160b81b900460ff16156107555760405162461bcd60e51b815260206004820152600560248201526413d0d2d15160da1b60448201526064016103c1565b6002805460ff60b81b1916600160b81b179055565b610772610aeb565b6002805460ff60a81b1916600160a81b1790556040517fa24423a69b45c25c0479663125e48b482e71d85eae416f589545243bafaf3c9590600090a1565b6107b933610c74565b6002546001600160a01b03166108095760405162461bcd60e51b815260206004820152601560248201527415d2551211149055cbd393d7d49150d25412515395605a1b60448201526064016103c1565b600254600160a81b900460ff16156108635760405162461bcd60e51b815260206004820181905260248201527f57495448445241572f454d455247454e43595f504f5745525f5245564f4b454460448201526064016103c1565b60005b838110156109b55760008585838181106108825761088261128c565b9050602002016020810190610897919061116e565b6001600160a01b0316036108da576108d58383838181106108ba576108ba61128c565b6002546001600160a01b031692602090910201359050610df9565b6109a3565b8484828181106108ec576108ec61128c565b9050602002016020810190610901919061116e565b6002546001600160a01b039182169163a9059cbb91168585858181106109295761092961128c565b6040516001600160e01b031960e087901b1681526001600160a01b03909416600485015260200291909101356024830152506044016020604051808303816000875af115801561097d573d6000803e3d6000fd5b505050506040513d601f19601f820116820180604052508101906109a191906112a2565b505b806109ad816112c4565b915050610866565b507fd40c399a83caf67d15628b821aa7c7bd940e563c57a047e2bd3b8c602bcaf5a5848484846040516109eb94939291906112eb565b60405180910390a150505050565b610a01610aeb565b6001600160a01b038116610a665760405162461bcd60e51b815260206004820152602660248201527f4f776e61626c653a206e6577206f776e657220697320746865207a65726f206160448201526564647265737360d01b60648201526084016103c1565b61065881610be4565b6001600160a01b03163b151590565b6000610ae4838330604051733d602d80600a3d3981f3363d3d373d3d3d363d7360601b8152606093841b60148201526f5af43d82803e903d91602b57fd5bf3ff60801b6028820152921b6038830152604c8201526037808220606c830152605591012090565b9392505050565b33610af46106a2565b6001600160a01b03161461053e5760405162461bcd60e51b815260206004820181905260248201527f4f776e61626c653a2063616c6c6572206973206e6f7420746865206f776e657260448201526064016103c1565b6000604051733d602d80600a3d3981f3363d3d373d3d3d363d7360601b81528360601b60148201526e5af43d82803e903d91602b57fd5bf360881b6028820152826037826000f59150506001600160a01b0381166103495760405162461bcd60e51b8152602060048201526017602482015276115490cc4c4d8dce8818dc99585d194c8819985a5b1959604a1b60448201526064016103c1565b600080546001600160a01b038381166201000081810262010000600160b01b0319851617855560405193049190911692909183917f8be0079c531659141344cd1fd0a4f28419497f9722a3daafe3b4186f6b6457e091a35050565b600054610100900460ff16610c665760405162461bcd60e51b81526004016103c19061136d565b610c708282610f14565b5050565b6003600254600160b01b900460ff166003811115610c9457610c946110aa565b03610cd35760405162461bcd60e51b815260206004820152600f60248201526e15d2551211149055cbd313d0d2d151608a1b60448201526064016103c1565b60028054600160b01b900460ff166003811115610cf257610cf26110aa565b03610cfa5750565b6001600254600160b01b900460ff166003811115610d1a57610d1a6110aa565b03610d76576002546001600160a01b038281169116146106585760405162461bcd60e51b815260206004820152601760248201527615d2551211149055cbd3d3931657d49150d25412515395604a1b60448201526064016103c1565b6000600254600160b01b900460ff166003811115610d9657610d966110aa565b0361065857806001600160a01b0316610dad6106a2565b6001600160a01b0316146106585760405162461bcd60e51b81526020600482015260136024820152722ba4aa24222920ab97a7a7262cafa7aba722a960691b60448201526064016103c1565b80471015610e495760405162461bcd60e51b815260206004820152601d60248201527f416464726573733a20696e73756666696369656e742062616c616e636500000060448201526064016103c1565b6000826001600160a01b03168260405160006040518083038185875af1925050503d8060008114610e96576040519150601f19603f3d011682016040523d82523d6000602084013e610e9b565b606091505b5050905080610f0f5760405162461bcd60e51b815260206004820152603a60248201527f416464726573733a20756e61626c6520746f2073656e642076616c75652c20726044820152791958da5c1a595b9d081b585e481a185d99481c995d995c9d195960321b60648201526084016103c1565b505050565b600054610100900460ff16610f3b5760405162461bcd60e51b81526004016103c19061136d565b610f4b63ac2ba33360e01b610f98565b600280546001600160a01b0384166001600160a01b0319821681178355839291600162ff000160a01b03191617600160b01b836003811115610f8f57610f8f6110aa565b02179055505050565b6001600160e01b03198082169003610ff15760405162461bcd60e51b815260206004820152601c60248201527b115490cc4d8d4e881a5b9d985b1a59081a5b9d195c999858d9481a5960221b60448201526064016103c1565b6001600160e01b0319166000908152600160208190526040909120805460ff19169091179055565b60006020828403121561102b57600080fd5b81356001600160e01b031981168114610ae457600080fd5b80356001600160a01b038116811461105a57600080fd5b919050565b6000806040838503121561107257600080fd5b61107b83611043565b946020939093013593505050565b60006020828403121561109b57600080fd5b813560048110610ae457600080fd5b634e487b7160e01b600052602160045260246000fd5b60208101600483106110e257634e487b7160e01b600052602160045260246000fd5b91905290565b600080600080606085870312156110fe57600080fd5b61110785611043565b93506020850135925060408501356001600160401b038082111561112a57600080fd5b818701915087601f83011261113e57600080fd5b81358181111561114d57600080fd5b88602082850101111561115f57600080fd5b95989497505060200194505050565b60006020828403121561118057600080fd5b610ae482611043565b60008083601f84011261119b57600080fd5b5081356001600160401b038111156111b257600080fd5b6020830191508360208260051b85010111156111cd57600080fd5b9250929050565b600080600080604085870312156111ea57600080fd5b84356001600160401b038082111561120157600080fd5b61120d88838901611189565b9096509450602087013591508082111561122657600080fd5b5061123387828801611189565b95989497509550505050565b60609290921b6001600160601b0319168252601482015260340190565b6020808252600690820152651313d0d2d15160d21b604082015260600190565b8183823760009101908152919050565b634e487b7160e01b600052603260045260246000fd5b6000602082840312156112b457600080fd5b81518015158114610ae457600080fd5b6000600182016112e457634e487b7160e01b600052601160045260246000fd5b5060010190565b6040808252810184905260008560608301825b8781101561132c576001600160a01b0361131784611043565b168252602092830192909101906001016112fe565b5083810360208501528481526001600160fb1b0385111561134c57600080fd5b8460051b915081866020830137600091016020019081529695505050505050565b6020808252602b908201527f496e697469616c697a61626c653a20636f6e7472616374206973206e6f74206960408201526a6e697469616c697a696e6760a81b60608201526080019056fea2646970667358221220204c052f09a4672bed84d24cba877f9c6c38ed3b29e1185164d7f505ab95deb964736f6c634300080f0033",
  "devdoc": {
    "kind": "dev",
    "methods": {
      "owner()": {
        "details": "Returns the address of the current owner."
      },
      "renounceOwnership()": {
        "details": "Leaves the contract without owner. It will not be possible to call `onlyOwner` functions anymore. Can only be called by the current owner. NOTE: Renouncing ownership will leave the contract without an owner, thereby removing any functionality that is only available to the owner."
      },
      "supportsInterface(bytes4)": {
        "details": "See {IERC165-supportsInterface}."
      },
      "transferOwnership(address)": {
        "details": "Transfers ownership of the contract to a new account (`newOwner`). Can only be called by the current owner."
      }
    },
    "version": 1
  },
  "userdoc": {
    "kind": "user",
    "methods": {},
    "version": 1
  },
  "storageLayout": {
    "storage": [
      {
        "astId": 1101,
        "contract": "contracts/factory/FlairFactory.sol:FlairFactory",
        "label": "_initialized",
        "offset": 0,
        "slot": "0",
        "type": "t_uint8"
      },
      {
        "astId": 1104,
        "contract": "contracts/factory/FlairFactory.sol:FlairFactory",
        "label": "_initializing",
        "offset": 1,
        "slot": "0",
        "type": "t_bool"
      },
      {
        "astId": 937,
        "contract": "contracts/factory/FlairFactory.sol:FlairFactory",
        "label": "_owner",
        "offset": 2,
        "slot": "0",
        "type": "t_address"
      },
      {
        "astId": 5404,
        "contract": "contracts/factory/FlairFactory.sol:FlairFactory",
        "label": "_supportedInterfaces",
        "offset": 0,
        "slot": "1",
        "type": "t_mapping(t_bytes4,t_bool)"
      },
      {
        "astId": 14730,
        "contract": "contracts/factory/FlairFactory.sol:FlairFactory",
        "label": "withdrawRecipient",
        "offset": 0,
        "slot": "2",
        "type": "t_address"
      },
      {
        "astId": 14732,
        "contract": "contracts/factory/FlairFactory.sol:FlairFactory",
        "label": "withdrawRecipientLocked",
        "offset": 20,
        "slot": "2",
        "type": "t_bool"
      },
      {
        "astId": 14734,
        "contract": "contracts/factory/FlairFactory.sol:FlairFactory",
        "label": "withdrawPowerRevoked",
        "offset": 21,
        "slot": "2",
        "type": "t_bool"
      },
      {
        "astId": 14737,
        "contract": "contracts/factory/FlairFactory.sol:FlairFactory",
        "label": "withdrawMode",
        "offset": 22,
        "slot": "2",
        "type": "t_enum(WithdrawMode)14674"
      },
      {
        "astId": 14739,
        "contract": "contracts/factory/FlairFactory.sol:FlairFactory",
        "label": "withdrawModeLocked",
        "offset": 23,
        "slot": "2",
        "type": "t_bool"
      }
    ],
    "types": {
      "t_address": {
        "encoding": "inplace",
        "label": "address",
        "numberOfBytes": "20"
      },
      "t_bool": {
        "encoding": "inplace",
        "label": "bool",
        "numberOfBytes": "1"
      },
      "t_bytes4": {
        "encoding": "inplace",
        "label": "bytes4",
        "numberOfBytes": "4"
      },
      "t_enum(WithdrawMode)14674": {
        "encoding": "inplace",
        "label": "enum WithdrawMode",
        "numberOfBytes": "1"
      },
      "t_mapping(t_bytes4,t_bool)": {
        "encoding": "mapping",
        "key": "t_bytes4",
        "label": "mapping(bytes4 => bool)",
        "numberOfBytes": "32",
        "value": "t_bool"
      },
      "t_uint8": {
        "encoding": "inplace",
        "label": "uint8",
        "numberOfBytes": "1"
      }
    }
  }
}