{
  "address": "0x614A331D14164720352ef916f4b91695c9199c7b",
  "abi": [
    {
      "inputs": [
        {
          "internalType": "string",
          "name": "name",
          "type": "string"
        },
        {
          "internalType": "string",
          "name": "symbol",
          "type": "string"
        },
        {
          "internalType": "string",
          "name": "contractURI",
          "type": "string"
        },
        {
          "internalType": "string",
          "name": "placeholderURI",
          "type": "string"
        },
        {
          "internalType": "uint256",
          "name": "maxSupply",
          "type": "uint256"
        },
        {
          "internalType": "uint256",
          "name": "preSalePrice",
          "type": "uint256"
        },
        {
          "internalType": "uint256",
          "name": "preSaleMaxMintPerWallet",
          "type": "uint256"
        },
        {
          "internalType": "uint256",
          "name": "publicSalePrice",
          "type": "uint256"
        },
        {
          "internalType": "uint256",
          "name": "publicSaleMaxMintPerTx",
          "type": "uint256"
        }
      ],
      "stateMutability": "nonpayable",
      "type": "constructor"
    },
    {
      "anonymous": false,
      "inputs": [
        {
          "indexed": true,
          "internalType": "address",
          "name": "owner",
          "type": "address"
        },
        {
          "indexed": true,
          "internalType": "address",
          "name": "approved",
          "type": "address"
        },
        {
          "indexed": true,
          "internalType": "uint256",
          "name": "tokenId",
          "type": "uint256"
        }
      ],
      "name": "Approval",
      "type": "event"
    },
    {
      "anonymous": false,
      "inputs": [
        {
          "indexed": true,
          "internalType": "address",
          "name": "owner",
          "type": "address"
        },
        {
          "indexed": true,
          "internalType": "address",
          "name": "operator",
          "type": "address"
        },
        {
          "indexed": false,
          "internalType": "bool",
          "name": "approved",
          "type": "bool"
        }
      ],
      "name": "ApprovalForAll",
      "type": "event"
    },
    {
      "anonymous": false,
      "inputs": [
        {
          "indexed": true,
          "internalType": "address",
          "name": "previousOwner",
          "type": "address"
        },
        {
          "indexed": true,
          "internalType": "address",
          "name": "newOwner",
          "type": "address"
        }
      ],
      "name": "OwnershipTransferred",
      "type": "event"
    },
    {
      "anonymous": false,
      "inputs": [
        {
          "indexed": true,
          "internalType": "address",
          "name": "from",
          "type": "address"
        },
        {
          "indexed": true,
          "internalType": "address",
          "name": "to",
          "type": "address"
        },
        {
          "indexed": true,
          "internalType": "uint256",
          "name": "tokenId",
          "type": "uint256"
        }
      ],
      "name": "Transfer",
      "type": "event"
    },
    {
      "inputs": [
        {
          "internalType": "address",
          "name": "to",
          "type": "address"
        },
        {
          "internalType": "uint256",
          "name": "tokenId",
          "type": "uint256"
        }
      ],
      "name": "approve",
      "outputs": [],
      "stateMutability": "nonpayable",
      "type": "function"
    },
    {
      "inputs": [
        {
          "internalType": "address",
          "name": "owner",
          "type": "address"
        }
      ],
      "name": "balanceOf",
      "outputs": [
        {
          "internalType": "uint256",
          "name": "",
          "type": "uint256"
        }
      ],
      "stateMutability": "view",
      "type": "function"
    },
    {
      "inputs": [],
      "name": "contractURI",
      "outputs": [
        {
          "internalType": "string",
          "name": "",
          "type": "string"
        }
      ],
      "stateMutability": "view",
      "type": "function"
    },
    {
      "inputs": [],
      "name": "freezeBaseURI",
      "outputs": [],
      "stateMutability": "nonpayable",
      "type": "function"
    },
    {
      "inputs": [],
      "name": "freezeMaxSupply",
      "outputs": [],
      "stateMutability": "nonpayable",
      "type": "function"
    },
    {
      "inputs": [
        {
          "internalType": "uint256",
          "name": "tokenId",
          "type": "uint256"
        }
      ],
      "name": "getApproved",
      "outputs": [
        {
          "internalType": "address",
          "name": "",
          "type": "address"
        }
      ],
      "stateMutability": "view",
      "type": "function"
    },
    {
      "inputs": [],
      "name": "getInfo",
      "outputs": [
        {
          "internalType": "uint256",
          "name": "_maxSupply",
          "type": "uint256"
        },
        {
          "internalType": "uint256",
          "name": "_totalSupply",
          "type": "uint256"
        },
        {
          "internalType": "uint256",
          "name": "_senderBalance",
          "type": "uint256"
        },
        {
          "internalType": "uint256",
          "name": "_preSalePrice",
          "type": "uint256"
        },
        {
          "internalType": "uint256",
          "name": "_preSaleMaxMintPerWallet",
          "type": "uint256"
        },
        {
          "internalType": "uint256",
          "name": "_senderPreSaleClaimed",
          "type": "uint256"
        },
        {
          "internalType": "bool",
          "name": "_preSaleActive",
          "type": "bool"
        },
        {
          "internalType": "uint256",
          "name": "_publicSalePrice",
          "type": "uint256"
        },
        {
          "internalType": "uint256",
          "name": "_publicSaleMaxMintPerTx",
          "type": "uint256"
        },
        {
          "internalType": "bool",
          "name": "_publicSaleActive",
          "type": "bool"
        }
      ],
      "stateMutability": "view",
      "type": "function"
    },
    {
      "inputs": [
        {
          "internalType": "address",
          "name": "owner",
          "type": "address"
        },
        {
          "internalType": "address",
          "name": "operator",
          "type": "address"
        }
      ],
      "name": "isApprovedForAll",
      "outputs": [
        {
          "internalType": "bool",
          "name": "",
          "type": "bool"
        }
      ],
      "stateMutability": "view",
      "type": "function"
    },
    {
      "inputs": [],
      "name": "maxSupply",
      "outputs": [
        {
          "internalType": "uint256",
          "name": "",
          "type": "uint256"
        }
      ],
      "stateMutability": "view",
      "type": "function"
    },
    {
      "inputs": [
        {
          "internalType": "address",
          "name": "to",
          "type": "address"
        },
        {
          "internalType": "uint256",
          "name": "count",
          "type": "uint256"
        }
      ],
      "name": "mintOwner",
      "outputs": [],
      "stateMutability": "nonpayable",
      "type": "function"
    },
    {
      "inputs": [
        {
          "internalType": "uint256",
          "name": "count",
          "type": "uint256"
        },
        {
          "internalType": "bytes32[]",
          "name": "proof",
          "type": "bytes32[]"
        }
      ],
      "name": "mintPresale",
      "outputs": [],
      "stateMutability": "payable",
      "type": "function"
    },
    {
      "inputs": [
        {
          "internalType": "address",
          "name": "to",
          "type": "address"
        },
        {
          "internalType": "uint256",
          "name": "count",
          "type": "uint256"
        }
      ],
      "name": "mintPublic",
      "outputs": [],
      "stateMutability": "payable",
      "type": "function"
    },
    {
      "inputs": [],
      "name": "name",
      "outputs": [
        {
          "internalType": "string",
          "name": "",
          "type": "string"
        }
      ],
      "stateMutability": "view",
      "type": "function"
    },
    {
      "inputs": [
        {
          "internalType": "address",
          "name": "minter",
          "type": "address"
        },
        {
          "internalType": "bytes32[]",
          "name": "proof",
          "type": "bytes32[]"
        }
      ],
      "name": "onPreSaleAllowList",
      "outputs": [
        {
          "internalType": "bool",
          "name": "",
          "type": "bool"
        }
      ],
      "stateMutability": "view",
      "type": "function"
    },
    {
      "inputs": [],
      "name": "owner",
      "outputs": [
        {
          "internalType": "address",
          "name": "",
          "type": "address"
        }
      ],
      "stateMutability": "view",
      "type": "function"
    },
    {
      "inputs": [
        {
          "internalType": "uint256",
          "name": "tokenId",
          "type": "uint256"
        }
      ],
      "name": "ownerOf",
      "outputs": [
        {
          "internalType": "address",
          "name": "",
          "type": "address"
        }
      ],
      "stateMutability": "view",
      "type": "function"
    },
    {
      "inputs": [],
      "name": "preSaleActive",
      "outputs": [
        {
          "internalType": "bool",
          "name": "",
          "type": "bool"
        }
      ],
      "stateMutability": "view",
      "type": "function"
    },
    {
      "inputs": [],
      "name": "preSaleAllowlistMerkleRoot",
      "outputs": [
        {
          "internalType": "bytes32",
          "name": "",
          "type": "bytes32"
        }
      ],
      "stateMutability": "view",
      "type": "function"
    },
    {
      "inputs": [],
      "name": "preSaleMaxMintPerWallet",
      "outputs": [
        {
          "internalType": "uint256",
          "name": "",
          "type": "uint256"
        }
      ],
      "stateMutability": "view",
      "type": "function"
    },
    {
      "inputs": [],
      "name": "preSalePrice",
      "outputs": [
        {
          "internalType": "uint256",
          "name": "",
          "type": "uint256"
        }
      ],
      "stateMutability": "view",
      "type": "function"
    },
    {
      "inputs": [],
      "name": "publicSaleActive",
      "outputs": [
        {
          "internalType": "bool",
          "name": "",
          "type": "bool"
        }
      ],
      "stateMutability": "view",
      "type": "function"
    },
    {
      "inputs": [],
      "name": "publicSaleMaxMintPerTx",
      "outputs": [
        {
          "internalType": "uint256",
          "name": "",
          "type": "uint256"
        }
      ],
      "stateMutability": "view",
      "type": "function"
    },
    {
      "inputs": [],
      "name": "publicSalePrice",
      "outputs": [
        {
          "internalType": "uint256",
          "name": "",
          "type": "uint256"
        }
      ],
      "stateMutability": "view",
      "type": "function"
    },
    {
      "inputs": [],
      "name": "renounceOwnership",
      "outputs": [],
      "stateMutability": "nonpayable",
      "type": "function"
    },
    {
      "inputs": [
        {
          "internalType": "address",
          "name": "from",
          "type": "address"
        },
        {
          "internalType": "address",
          "name": "to",
          "type": "address"
        },
        {
          "internalType": "uint256",
          "name": "tokenId",
          "type": "uint256"
        }
      ],
      "name": "safeTransferFrom",
      "outputs": [],
      "stateMutability": "nonpayable",
      "type": "function"
    },
    {
      "inputs": [
        {
          "internalType": "address",
          "name": "from",
          "type": "address"
        },
        {
          "internalType": "address",
          "name": "to",
          "type": "address"
        },
        {
          "internalType": "uint256",
          "name": "tokenId",
          "type": "uint256"
        },
        {
          "internalType": "bytes",
          "name": "_data",
          "type": "bytes"
        }
      ],
      "name": "safeTransferFrom",
      "outputs": [],
      "stateMutability": "nonpayable",
      "type": "function"
    },
    {
      "inputs": [
        {
          "internalType": "bytes32",
          "name": "newRoot",
          "type": "bytes32"
        }
      ],
      "name": "setAllowlistMerkleRoot",
      "outputs": [],
      "stateMutability": "nonpayable",
      "type": "function"
    },
    {
      "inputs": [
        {
          "internalType": "address",
          "name": "operator",
          "type": "address"
        },
        {
          "internalType": "bool",
          "name": "approved",
          "type": "bool"
        }
      ],
      "name": "setApprovalForAll",
      "outputs": [],
      "stateMutability": "nonpayable",
      "type": "function"
    },
    {
      "inputs": [
        {
          "internalType": "string",
          "name": "baseURI",
          "type": "string"
        }
      ],
      "name": "setBaseURI",
      "outputs": [],
      "stateMutability": "nonpayable",
      "type": "function"
    },
    {
      "inputs": [
        {
          "internalType": "string",
          "name": "uri",
          "type": "string"
        }
      ],
      "name": "setContractURI",
      "outputs": [],
      "stateMutability": "nonpayable",
      "type": "function"
    },
    {
      "inputs": [
        {
          "internalType": "uint256",
          "name": "newValue",
          "type": "uint256"
        }
      ],
      "name": "setMaxSupply",
      "outputs": [],
      "stateMutability": "nonpayable",
      "type": "function"
    },
    {
      "inputs": [
        {
          "internalType": "string",
          "name": "placeholderURI",
          "type": "string"
        }
      ],
      "name": "setPlaceholderURI",
      "outputs": [],
      "stateMutability": "nonpayable",
      "type": "function"
    },
    {
      "inputs": [
        {
          "internalType": "uint256",
          "name": "newValue",
          "type": "uint256"
        }
      ],
      "name": "setPreSaleMaxMintPerWallet",
      "outputs": [],
      "stateMutability": "nonpayable",
      "type": "function"
    },
    {
      "inputs": [
        {
          "internalType": "bytes4",
          "name": "interfaceId",
          "type": "bytes4"
        }
      ],
      "name": "supportsInterface",
      "outputs": [
        {
          "internalType": "bool",
          "name": "",
          "type": "bool"
        }
      ],
      "stateMutability": "view",
      "type": "function"
    },
    {
      "inputs": [],
      "name": "symbol",
      "outputs": [
        {
          "internalType": "string",
          "name": "",
          "type": "string"
        }
      ],
      "stateMutability": "view",
      "type": "function"
    },
    {
      "inputs": [
        {
          "internalType": "bool",
          "name": "isActive",
          "type": "bool"
        }
      ],
      "name": "togglePreSale",
      "outputs": [],
      "stateMutability": "nonpayable",
      "type": "function"
    },
    {
      "inputs": [
        {
          "internalType": "bool",
          "name": "isActive",
          "type": "bool"
        }
      ],
      "name": "togglePublicSale",
      "outputs": [],
      "stateMutability": "nonpayable",
      "type": "function"
    },
    {
      "inputs": [
        {
          "internalType": "uint256",
          "name": "_tokenId",
          "type": "uint256"
        }
      ],
      "name": "tokenURI",
      "outputs": [
        {
          "internalType": "string",
          "name": "",
          "type": "string"
        }
      ],
      "stateMutability": "view",
      "type": "function"
    },
    {
      "inputs": [],
      "name": "totalSupply",
      "outputs": [
        {
          "internalType": "uint256",
          "name": "",
          "type": "uint256"
        }
      ],
      "stateMutability": "view",
      "type": "function"
    },
    {
      "inputs": [
        {
          "internalType": "address",
          "name": "from",
          "type": "address"
        },
        {
          "internalType": "address",
          "name": "to",
          "type": "address"
        },
        {
          "internalType": "uint256",
          "name": "tokenId",
          "type": "uint256"
        }
      ],
      "name": "transferFrom",
      "outputs": [],
      "stateMutability": "nonpayable",
      "type": "function"
    },
    {
      "inputs": [
        {
          "internalType": "address",
          "name": "newOwner",
          "type": "address"
        }
      ],
      "name": "transferOwnership",
      "outputs": [],
      "stateMutability": "nonpayable",
      "type": "function"
    },
    {
      "inputs": [],
      "name": "withdraw",
      "outputs": [],
      "stateMutability": "nonpayable",
      "type": "function"
    }
  ],
  "transactionHash": "0xd0457aae632c4e10f463732d7422fa20d5dc63fd164f37dcb2468990366239f4",
  "args": [
    "Flair Angels",
    "ANGEL",
    "ipfs://xxxxx",
    "ipfs://yyyyy",
    8000,
    "60000000000000000",
    2,
    "80000000000000000",
    10
  ],
  "numDeployments": 1,
  "solcInputHash": "6d0f8d546e1b3fbe3e6e2e7afda33bdb",
  "bytecode": "0x60806040526000600d553480156200001657600080fd5b5060405162002a5338038062002a5383398101604081905262000039916200027c565b81818585888b8b8f8f6200004d33620000d3565b81516200006290600190602085019062000123565b5080516200007890600290602084019062000123565b50508251620000909150600790602085019062000123565b508051620000a690600890602084019062000123565b505050600b556001600e55600f9190915560105560149190915560155550620003b4975050505050505050565b600080546001600160a01b038381166001600160a01b0319831681178455604051919092169283917f8be0079c531659141344cd1fd0a4f28419497f9722a3daafe3b4186f6b6457e09190a35050565b828054620001319062000361565b90600052602060002090601f016020900481019282620001555760008555620001a0565b82601f106200017057805160ff1916838001178555620001a0565b82800160010185558215620001a0579182015b82811115620001a057825182559160200191906001019062000183565b50620001ae929150620001b2565b5090565b5b80821115620001ae5760008155600101620001b3565b600082601f830112620001da578081fd5b81516001600160401b0380821115620001f757620001f76200039e565b604051601f8301601f19908116603f011681019082821181831017156200022257620002226200039e565b816040528381526020925086838588010111156200023e578485fd5b8491505b8382101562000261578582018301518183018401529082019062000242565b838211156200027257848385830101525b9695505050505050565b60008060008060008060008060006101208a8c0312156200029b578485fd5b89516001600160401b0380821115620002b2578687fd5b620002c08d838e01620001c9565b9a5060208c0151915080821115620002d6578687fd5b620002e48d838e01620001c9565b995060408c0151915080821115620002fa578687fd5b620003088d838e01620001c9565b985060608c01519150808211156200031e578687fd5b506200032d8c828d01620001c9565b96505060808a0151945060a08a0151935060c08a0151925060e08a015191506101008a015190509295985092959850929598565b600181811c908216806200037657607f821691505b602082108114156200039857634e487b7160e01b600052602260045260246000fd5b50919050565b634e487b7160e01b600052604160045260246000fd5b61268f80620003c46000396000f3fe6080604052600436106101e15760003560e01c806301ffc9a7146101e657806306fdde031461021b578063081812fc1461023d578063095ea7b31461026a5780630c0a6b5e1461028c578063167446071461029f57806318160ddd146102b457806323b872dd146102d35780633574a2dd146102f35780633acf404d146103135780633ccfd60b14610329578063408cbf941461033e57806342842e0e1461035e57806355f804b31461037e5780635a9b0b891461039e5780636352211e146104015780636f8b44b01461042157806370a0823114610441578063715018a61461046157806384494708146104765780638c3cefa3146104905780638da5cb5b146104b0578063938e3d7b146104c557806395d89b41146104e55780639b6860c8146104fa5780639f93f77914610510578063a22cb46514610523578063aaeaca4814610543578063b27c6f2d14610559578063b88d4fde1461056f578063bc8893b41461058f578063c87b56dd146105a9578063d35ea456146105c9578063d5abeb01146105e9578063e3b9a7e5146105ff578063e757c17d1461061f578063e7bc820814610635578063e8a3d4851461064a578063e985e9c51461065f578063f2fde38b1461067f578063f74bbf591461069f578063f95df414146106bf575b600080fd5b3480156101f257600080fd5b50610206610201366004612140565b6106df565b60405190151581526020015b60405180910390f35b34801561022757600080fd5b50610230610731565b6040516102129190612344565b34801561024957600080fd5b5061025d610258366004612128565b6107c3565b60405161021291906122f3565b34801561027657600080fd5b5061028a6102853660046120e5565b610850565b005b61028a61029a3660046121d5565b610961565b3480156102ab57600080fd5b5061028a610b12565b3480156102c057600080fd5b50600d545b604051908152602001610212565b3480156102df57600080fd5b5061028a6102ee366004611fb9565b610b50565b3480156102ff57600080fd5b5061028a61030e366004612178565b610b81565b34801561031f57600080fd5b506102c560115481565b34801561033557600080fd5b5061028a610bc7565b34801561034a57600080fd5b5061028a6103593660046120e5565b610c25565b34801561036a57600080fd5b5061028a610379366004611fb9565b610c5e565b34801561038a57600080fd5b5061028a610399366004612178565b610c79565b3480156103aa57600080fd5b506103b3610cde565b604080519a8b5260208b0199909952978901969096526060880194909452608087019290925260a0860152151560c085015260e0840152610100830152151561012082015261014001610212565b34801561040d57600080fd5b5061025d61041c366004612128565b610e4e565b34801561042d57600080fd5b5061028a61043c366004612128565b610ec5565b34801561044d57600080fd5b506102c561045c366004611f6d565b610f1c565b34801561046d57600080fd5b5061028a610fa3565b34801561048257600080fd5b506012546102069060ff1681565b34801561049c57600080fd5b5061028a6104ab36600461210e565b610fde565b3480156104bc57600080fd5b5061025d611020565b3480156104d157600080fd5b5061028a6104e0366004612178565b61102f565b3480156104f157600080fd5b50610230611071565b34801561050657600080fd5b506102c560145481565b61028a61051e3660046120e5565b611080565b34801561052f57600080fd5b5061028a61053e3660046120bc565b611150565b34801561054f57600080fd5b506102c560105481565b34801561056557600080fd5b506102c560155481565b34801561057b57600080fd5b5061028a61058a366004611ff4565b61115b565b34801561059b57600080fd5b506016546102069060ff1681565b3480156105b557600080fd5b506102306105c4366004612128565b611193565b3480156105d557600080fd5b5061028a6105e436600461210e565b61119e565b3480156105f557600080fd5b506102c5600b5481565b34801561060b57600080fd5b5061020661061a36600461206c565b6111e0565b34801561062b57600080fd5b506102c5600f5481565b34801561064157600080fd5b5061028a61122e565b34801561065657600080fd5b5061023061126c565b34801561066b57600080fd5b5061020661067a366004611f87565b61127b565b34801561068b57600080fd5b5061028a61069a366004611f6d565b6112a9565b3480156106ab57600080fd5b5061028a6106ba366004612128565b611349565b3480156106cb57600080fd5b5061028a6106da366004612128565b61137d565b60006001600160e01b031982166380ac58cd60e01b148061071057506001600160e01b03198216635b5e139f60e01b145b8061072b57506301ffc9a760e01b6001600160e01b03198316145b92915050565b60606001805461074090612577565b80601f016020809104026020016040519081016040528092919081815260200182805461076c90612577565b80156107b95780601f1061078e576101008083540402835291602001916107b9565b820191906000526020600020905b81548152906001019060200180831161079c57829003601f168201915b5050505050905090565b60006107ce826113b1565b6108345760405162461bcd60e51b815260206004820152602c60248201527f4552433732313a20617070726f76656420717565727920666f72206e6f6e657860448201526b34b9ba32b73a103a37b5b2b760a11b60648201526084015b60405180910390fd5b506000908152600560205260409020546001600160a01b031690565b600061085b82610e4e565b9050806001600160a01b0316836001600160a01b031614156108c95760405162461bcd60e51b815260206004820152602160248201527f4552433732313a20617070726f76616c20746f2063757272656e74206f776e656044820152603960f91b606482015260840161082b565b336001600160a01b03821614806108e557506108e5813361127b565b6109525760405162461bcd60e51b815260206004820152603860248201527f4552433732313a20617070726f76652063616c6c6572206973206e6f74206f776044820152771b995c881b9bdc88185c1c1c9bdd995908199bdc88185b1b60421b606482015260840161082b565b61095c83836113ce565b505050565b6002600e5414156109845760405162461bcd60e51b815260040161082b906124b2565b6002600e5560125460ff166109ab5760405162461bcd60e51b815260040161082b906123a9565b60003390506109f98383808060200260200160405190810160405280939291908181526020018383602002808284376000920191909152505060115491506109f490503361143c565b611476565b610a3c5760405162461bcd60e51b8152602060048201526014602482015273282922afa9a0a622afaba927a723afa82927a7a360611b604482015260640161082b565b6010546001600160a01b038216600090815260136020526040902054610a639086906124e9565b1115610aa25760405162461bcd60e51b815260206004820152600e60248201526d14149157d4d0531157d31253525560921b604482015260640161082b565b3484600f54610ab19190612515565b1115610acf5760405162461bcd60e51b815260040161082b90612485565b6001600160a01b03811660009081526013602052604081208054869290610af79084906124e9565b90915550610b079050818561148c565b50506001600e555050565b33610b1b611020565b6001600160a01b031614610b415760405162461bcd60e51b815260040161082b906123d6565b600c805460ff19166001179055565b610b5a3382611522565b610b765760405162461bcd60e51b815260040161082b90612434565b61095c8383836115e4565b33610b8a611020565b6001600160a01b031614610bb05760405162461bcd60e51b815260040161082b906123d6565b8051610bc3906008906020840190611dea565b5050565b33610bd0611020565b6001600160a01b031614610bf65760405162461bcd60e51b815260040161082b906123d6565b6040514790339082156108fc029083906000818181858888f19350505050158015610bc3573d6000803e3d6000fd5b33610c2e611020565b6001600160a01b031614610c545760405162461bcd60e51b815260040161082b906123d6565b610bc3828261148c565b61095c8383836040518060200160405280600081525061115b565b33610c82611020565b6001600160a01b031614610ca85760405162461bcd60e51b815260040161082b906123d6565b600a5460ff1615610ccb5760405162461bcd60e51b815260040161082b9061240b565b8051610bc3906009906020840190611dea565b6000808080808080808080803315610d66576040516370a0823160e01b815230906370a0823190610d139033906004016122f3565b60206040518083038186803b158015610d2b57600080fd5b505afa158015610d3f573d6000803e3d6000fd5b505050506040513d601f19601f82011682018060405250810190610d6391906121bd565b90505b600b54306001600160a01b03166318160ddd6040518163ffffffff1660e01b815260040160206040518083038186803b158015610da257600080fd5b505afa158015610db6573d6000803e3d6000fd5b505050506040513d601f19601f82011682018060405250810190610dda91906121bd565b82600f5460105460136000336001600160a01b03166001600160a01b0316815260200190815260200160002054601260009054906101000a900460ff16601454601554601660009054906101000a900460ff169a509a509a509a509a509a509a509a509a509a505090919293949596979899565b6000818152600360205260408120546001600160a01b03168061072b5760405162461bcd60e51b815260206004820152602960248201527f4552433732313a206f776e657220717565727920666f72206e6f6e657869737460448201526832b73a103a37b5b2b760b91b606482015260840161082b565b33610ece611020565b6001600160a01b031614610ef45760405162461bcd60e51b815260040161082b906123d6565b600c5460ff1615610f175760405162461bcd60e51b815260040161082b9061240b565b600b55565b60006001600160a01b038216610f875760405162461bcd60e51b815260206004820152602a60248201527f4552433732313a2062616c616e636520717565727920666f7220746865207a65604482015269726f206164647265737360b01b606482015260840161082b565b506001600160a01b031660009081526004602052604090205490565b33610fac611020565b6001600160a01b031614610fd25760405162461bcd60e51b815260040161082b906123d6565b610fdc600061176e565b565b33610fe7611020565b6001600160a01b03161461100d5760405162461bcd60e51b815260040161082b906123d6565b6016805460ff1916911515919091179055565b6000546001600160a01b031690565b33611038611020565b6001600160a01b03161461105e5760405162461bcd60e51b815260040161082b906123d6565b8051610bc3906007906020840190611dea565b60606002805461074090612577565b6002600e5414156110a35760405162461bcd60e51b815260040161082b906124b2565b6002600e5560165460ff166110ca5760405162461bcd60e51b815260040161082b906123a9565b6015548111156111105760405162461bcd60e51b8152602060048201526011602482015270141550931250d7d4d0531157d312535255607a1b604482015260640161082b565b348160145461111f9190612515565b111561113d5760405162461bcd60e51b815260040161082b90612485565b611147828261148c565b50506001600e55565b610bc33383836117be565b6111653383611522565b6111815760405162461bcd60e51b815260040161082b90612434565b61118d84848484611889565b50505050565b606061072b826118bc565b336111a7611020565b6001600160a01b0316146111cd5760405162461bcd60e51b815260040161082b906123d6565b6012805460ff1916911515919091179055565b60006112268383808060200260200160405190810160405280939291908181526020018383602002808284376000920191909152505060115491506109f490508761143c565b949350505050565b33611237611020565b6001600160a01b03161461125d5760405162461bcd60e51b815260040161082b906123d6565b600a805460ff19166001179055565b60606007805461074090612577565b6001600160a01b03918216600090815260066020908152604080832093909416825291909152205460ff1690565b336112b2611020565b6001600160a01b0316146112d85760405162461bcd60e51b815260040161082b906123d6565b6001600160a01b03811661133d5760405162461bcd60e51b815260206004820152602660248201527f4f776e61626c653a206e6577206f776e657220697320746865207a65726f206160448201526564647265737360d01b606482015260840161082b565b6113468161176e565b50565b33611352611020565b6001600160a01b0316146113785760405162461bcd60e51b815260040161082b906123d6565b601055565b33611386611020565b6001600160a01b0316146113ac5760405162461bcd60e51b815260040161082b906123d6565b601155565b6000908152600360205260409020546001600160a01b0316151590565b600081815260056020526040902080546001600160a01b0319166001600160a01b038416908117909155819061140382610e4e565b6001600160a01b03167f8c5be1e5ebec7d5bd14f71427d1e84f3dd0314c0f7b2291e5b200ac8c7c3b92560405160405180910390a45050565b6040516001600160601b0319606083901b166020820152600090603401604051602081830303815290604052805190602001209050919050565b6000826114838584611995565b14949350505050565b600b5481611499600d5490565b6114a391906124e9565b11156114e65760405162461bcd60e51b8152602060048201526012602482015271455843454544535f4d41585f535550504c5960701b604482015260640161082b565b60005b8181101561095c5760006114fb611a17565b90506115078482611a2d565b61150f611a47565b508061151a816125b2565b9150506114e9565b600061152d826113b1565b61158e5760405162461bcd60e51b815260206004820152602c60248201527f4552433732313a206f70657261746f7220717565727920666f72206e6f6e657860448201526b34b9ba32b73a103a37b5b2b760a11b606482015260840161082b565b600061159983610e4e565b9050806001600160a01b0316846001600160a01b031614806115d45750836001600160a01b03166115c9846107c3565b6001600160a01b0316145b806112265750611226818561127b565b826001600160a01b03166115f782610e4e565b6001600160a01b03161461165b5760405162461bcd60e51b815260206004820152602560248201527f4552433732313a207472616e736665722066726f6d20696e636f72726563742060448201526437bbb732b960d91b606482015260840161082b565b6001600160a01b0382166116bd5760405162461bcd60e51b8152602060048201526024808201527f4552433732313a207472616e7366657220746f20746865207a65726f206164646044820152637265737360e01b606482015260840161082b565b6116c86000826113ce565b6001600160a01b03831660009081526004602052604081208054600192906116f1908490612534565b90915550506001600160a01b038216600090815260046020526040812080546001929061171f9084906124e9565b909155505060008181526003602052604080822080546001600160a01b0319166001600160a01b03868116918217909255915184939187169160008051602061263a83398151915291a4505050565b600080546001600160a01b038381166001600160a01b0319831681178455604051919092169283917f8be0079c531659141344cd1fd0a4f28419497f9722a3daafe3b4186f6b6457e09190a35050565b816001600160a01b0316836001600160a01b0316141561181c5760405162461bcd60e51b815260206004820152601960248201527822a9219b99189d1030b8383937bb32903a379031b0b63632b960391b604482015260640161082b565b6001600160a01b03838116600081815260066020908152604080832094871680845294825291829020805460ff191686151590811790915591519182527f17307eab39ab6107e8899845ad3d59bd9653f200f220920489ca2b5937696c31910160405180910390a3505050565b6118948484846115e4565b6118a084848484611a5e565b61118d5760405162461bcd60e51b815260040161082b90612357565b60606000600980546118cd90612577565b90501161196457600880546118e190612577565b80601f016020809104026020016040519081016040528092919081815260200182805461190d90612577565b801561195a5780601f1061192f5761010080835404028352916020019161195a565b820191906000526020600020905b81548152906001019060200180831161193d57829003601f168201915b505050505061072b565b600961196f83611b6b565b60405160200161198092919061224d565b60405160208183030381529060405292915050565b600081815b8451811015611a0f5760008582815181106119c557634e487b7160e01b600052603260045260246000fd5b602002602001015190508083116119eb57600083815260208290526040902092506119fc565b600081815260208490526040902092505b5080611a07816125b2565b91505061199a565b509392505050565b600d54600090611a28906001611c84565b905090565b610bc3828260405180602001604052806000815250611c97565b600d8054906000611a57836125b2565b9190505550565b60006001600160a01b0384163b15611b6057604051630a85bd0160e11b81526001600160a01b0385169063150b7a0290611aa2903390899088908890600401612307565b602060405180830381600087803b158015611abc57600080fd5b505af1925050508015611aec575060408051601f3d908101601f19168201909252611ae99181019061215c565b60015b611b46573d808015611b1a576040519150601f19603f3d011682016040523d82523d6000602084013e611b1f565b606091505b508051611b3e5760405162461bcd60e51b815260040161082b90612357565b805181602001fd5b6001600160e01b031916630a85bd0160e11b149050611226565b506001949350505050565b606081611b8f5750506040805180820190915260018152600360fc1b602082015290565b8160005b8115611bb95780611ba3816125b2565b9150611bb29050600a83612501565b9150611b93565b6000816001600160401b03811115611be157634e487b7160e01b600052604160045260246000fd5b6040519080825280601f01601f191660200182016040528015611c0b576020820181803683370190505b5090505b841561122657611c20600183612534565b9150611c2d600a866125cd565b611c389060306124e9565b60f81b818381518110611c5b57634e487b7160e01b600052603260045260246000fd5b60200101906001600160f81b031916908160001a905350611c7d600a86612501565b9450611c0f565b6000611c9082846124e9565b9392505050565b611ca18383611cca565b611cae6000848484611a5e565b61095c5760405162461bcd60e51b815260040161082b90612357565b6001600160a01b038216611d205760405162461bcd60e51b815260206004820181905260248201527f4552433732313a206d696e7420746f20746865207a65726f2061646472657373604482015260640161082b565b611d29816113b1565b15611d755760405162461bcd60e51b815260206004820152601c60248201527b115490cdcc8c4e881d1bdad95b88185b1c9958591e481b5a5b9d195960221b604482015260640161082b565b6001600160a01b0382166000908152600460205260408120805460019290611d9e9084906124e9565b909155505060008181526003602052604080822080546001600160a01b0319166001600160a01b038616908117909155905183929060008051602061263a833981519152908290a45050565b828054611df690612577565b90600052602060002090601f016020900481019282611e185760008555611e5e565b82601f10611e3157805160ff1916838001178555611e5e565b82800160010185558215611e5e579182015b82811115611e5e578251825591602001919060010190611e43565b50611e6a929150611e6e565b5090565b5b80821115611e6a5760008155600101611e6f565b60006001600160401b0380841115611e9d57611e9d61260d565b604051601f8501601f19908116603f01168101908282118183101715611ec557611ec561260d565b81604052809350858152868686011115611ede57600080fd5b858560208301376000602087830101525050509392505050565b80356001600160a01b0381168114611f0f57600080fd5b919050565b60008083601f840112611f25578081fd5b5081356001600160401b03811115611f3b578182fd5b6020830191508360208260051b8501011115611f5657600080fd5b9250929050565b80358015158114611f0f57600080fd5b600060208284031215611f7e578081fd5b611c9082611ef8565b60008060408385031215611f99578081fd5b611fa283611ef8565b9150611fb060208401611ef8565b90509250929050565b600080600060608486031215611fcd578081fd5b611fd684611ef8565b9250611fe460208501611ef8565b9150604084013590509250925092565b60008060008060808587031215612009578081fd5b61201285611ef8565b935061202060208601611ef8565b92506040850135915060608501356001600160401b03811115612041578182fd5b8501601f81018713612051578182fd5b61206087823560208401611e83565b91505092959194509250565b600080600060408486031215612080578283fd5b61208984611ef8565b925060208401356001600160401b038111156120a3578283fd5b6120af86828701611f14565b9497909650939450505050565b600080604083850312156120ce578182fd5b6120d783611ef8565b9150611fb060208401611f5d565b600080604083850312156120f7578182fd5b61210083611ef8565b946020939093013593505050565b60006020828403121561211f578081fd5b611c9082611f5d565b600060208284031215612139578081fd5b5035919050565b600060208284031215612151578081fd5b8135611c9081612623565b60006020828403121561216d578081fd5b8151611c9081612623565b600060208284031215612189578081fd5b81356001600160401b0381111561219e578182fd5b8201601f810184136121ae578182fd5b61122684823560208401611e83565b6000602082840312156121ce578081fd5b5051919050565b6000806000604084860312156121e9578081fd5b8335925060208401356001600160401b038111156120a3578182fd5b6000815180845261221d81602086016020860161254b565b601f01601f19169290920160200192915050565b6000815161224381856020860161254b565b9290920192915050565b600080845482600182811c91508083168061226957607f831692505b602080841082141561228957634e487b7160e01b87526022600452602487fd5b81801561229d57600181146122ae576122da565b60ff198616895284890196506122da565b60008b815260209020885b868110156122d25781548b8201529085019083016122b9565b505084890196505b5050505050506122ea8185612231565b95945050505050565b6001600160a01b0391909116815260200190565b6001600160a01b038581168252841660208201526040810183905260806060820181905260009061233a90830184612205565b9695505050505050565b602081526000611c906020830184612205565b60208082526032908201527f4552433732313a207472616e7366657220746f206e6f6e20455243373231526560408201527131b2b4bb32b91034b6b83632b6b2b73a32b960711b606082015260800190565b6020808252601390820152725052455f53414c455f4e4f545f41435449564560681b604082015260600190565b6020808252818101527f4f776e61626c653a2063616c6c6572206973206e6f7420746865206f776e6572604082015260600190565b6020808252600f908201526e2120a9a2afaaa924afa32927ad22a760891b604082015260600190565b60208082526031908201527f4552433732313a207472616e736665722063616c6c6572206973206e6f74206f6040820152701ddb995c881b9bdc88185c1c1c9bdd9959607a1b606082015260800190565b602080825260139082015272125394d551919250d251539517d05353d55395606a1b604082015260600190565b6020808252601f908201527f5265656e7472616e637947756172643a207265656e7472616e742063616c6c00604082015260600190565b600082198211156124fc576124fc6125e1565b500190565b600082612510576125106125f7565b500490565b600081600019048311821515161561252f5761252f6125e1565b500290565b600082821015612546576125466125e1565b500390565b60005b8381101561256657818101518382015260200161254e565b8381111561118d5750506000910152565b600181811c9082168061258b57607f821691505b602082108114156125ac57634e487b7160e01b600052602260045260246000fd5b50919050565b60006000198214156125c6576125c66125e1565b5060010190565b6000826125dc576125dc6125f7565b500690565b634e487b7160e01b600052601160045260246000fd5b634e487b7160e01b600052601260045260246000fd5b634e487b7160e01b600052604160045260246000fd5b6001600160e01b03198116811461134657600080fdfeddf252ad1be2c89b69c2b068fc378daa952ba7f163c4a11628f55a4df523b3efa2646970667358221220f7bc64e4b7ab1af452a557baa2f3cbeddf928a543149d528cf32eb65efb9bb0564736f6c63430008040033",
  "devdoc": {
    "kind": "dev",
    "methods": {
      "approve(address,uint256)": {
        "details": "See {IERC721-approve}."
      },
      "balanceOf(address)": {
        "details": "See {IERC721-balanceOf}."
      },
      "getApproved(uint256)": {
        "details": "See {IERC721-getApproved}."
      },
      "isApprovedForAll(address,address)": {
        "details": "See {IERC721-isApprovedForAll}."
      },
      "name()": {
        "details": "See {IERC721Metadata-name}."
      },
      "owner()": {
        "details": "Returns the address of the current owner."
      },
      "ownerOf(uint256)": {
        "details": "See {IERC721-ownerOf}."
      },
      "renounceOwnership()": {
        "details": "Leaves the contract without owner. It will not be possible to call `onlyOwner` functions anymore. Can only be called by the current owner. NOTE: Renouncing ownership will leave the contract without an owner, thereby removing any functionality that is only available to the owner."
      },
      "safeTransferFrom(address,address,uint256)": {
        "details": "See {IERC721-safeTransferFrom}."
      },
      "safeTransferFrom(address,address,uint256,bytes)": {
        "details": "See {IERC721-safeTransferFrom}."
      },
      "setApprovalForAll(address,bool)": {
        "details": "See {IERC721-setApprovalForAll}."
      },
      "supportsInterface(bytes4)": {
        "details": "See {IERC165-supportsInterface}."
      },
      "symbol()": {
        "details": "See {IERC721Metadata-symbol}."
      },
      "transferFrom(address,address,uint256)": {
        "details": "See {IERC721-transferFrom}."
      },
      "transferOwnership(address)": {
        "details": "Transfers ownership of the contract to a new account (`newOwner`). Can only be called by the current owner."
      }
    },
    "version": 1
  },
  "userdoc": {
    "kind": "user",
    "methods": {},
    "version": 1
  },
  "storageLayout": {
    "storage": [
      {
        "astId": 771,
        "contract": "contracts/collections/ERC721/presets/ERC721SimpleCollection.sol:ERC721SimpleCollection",
        "label": "_owner",
        "offset": 0,
        "slot": "0",
        "type": "t_address"
      },
      {
        "astId": 934,
        "contract": "contracts/collections/ERC721/presets/ERC721SimpleCollection.sol:ERC721SimpleCollection",
        "label": "_name",
        "offset": 0,
        "slot": "1",
        "type": "t_string_storage"
      },
      {
        "astId": 936,
        "contract": "contracts/collections/ERC721/presets/ERC721SimpleCollection.sol:ERC721SimpleCollection",
        "label": "_symbol",
        "offset": 0,
        "slot": "2",
        "type": "t_string_storage"
      },
      {
        "astId": 940,
        "contract": "contracts/collections/ERC721/presets/ERC721SimpleCollection.sol:ERC721SimpleCollection",
        "label": "_owners",
        "offset": 0,
        "slot": "3",
        "type": "t_mapping(t_uint256,t_address)"
      },
      {
        "astId": 944,
        "contract": "contracts/collections/ERC721/presets/ERC721SimpleCollection.sol:ERC721SimpleCollection",
        "label": "_balances",
        "offset": 0,
        "slot": "4",
        "type": "t_mapping(t_address,t_uint256)"
      },
      {
        "astId": 948,
        "contract": "contracts/collections/ERC721/presets/ERC721SimpleCollection.sol:ERC721SimpleCollection",
        "label": "_tokenApprovals",
        "offset": 0,
        "slot": "5",
        "type": "t_mapping(t_uint256,t_address)"
      },
      {
        "astId": 954,
        "contract": "contracts/collections/ERC721/presets/ERC721SimpleCollection.sol:ERC721SimpleCollection",
        "label": "_operatorApprovals",
        "offset": 0,
        "slot": "6",
        "type": "t_mapping(t_address,t_mapping(t_address,t_bool))"
      },
      {
        "astId": 4251,
        "contract": "contracts/collections/ERC721/presets/ERC721SimpleCollection.sol:ERC721SimpleCollection",
        "label": "_contractURI",
        "offset": 0,
        "slot": "7",
        "type": "t_string_storage"
      },
      {
        "astId": 4253,
        "contract": "contracts/collections/ERC721/presets/ERC721SimpleCollection.sol:ERC721SimpleCollection",
        "label": "_placeholderURI",
        "offset": 0,
        "slot": "8",
        "type": "t_string_storage"
      },
      {
        "astId": 4255,
        "contract": "contracts/collections/ERC721/presets/ERC721SimpleCollection.sol:ERC721SimpleCollection",
        "label": "_baseTokenURI",
        "offset": 0,
        "slot": "9",
        "type": "t_string_storage"
      },
      {
        "astId": 4257,
        "contract": "contracts/collections/ERC721/presets/ERC721SimpleCollection.sol:ERC721SimpleCollection",
        "label": "_baseURIFrozen",
        "offset": 0,
        "slot": "10",
        "type": "t_bool"
      },
      {
        "astId": 4071,
        "contract": "contracts/collections/ERC721/presets/ERC721SimpleCollection.sol:ERC721SimpleCollection",
        "label": "maxSupply",
        "offset": 0,
        "slot": "11",
        "type": "t_uint256"
      },
      {
        "astId": 4073,
        "contract": "contracts/collections/ERC721/presets/ERC721SimpleCollection.sol:ERC721SimpleCollection",
        "label": "_maxSupplyFrozen",
        "offset": 0,
        "slot": "12",
        "type": "t_bool"
      },
      {
        "astId": 4076,
        "contract": "contracts/collections/ERC721/presets/ERC721SimpleCollection.sol:ERC721SimpleCollection",
        "label": "_currentTokenId",
        "offset": 0,
        "slot": "13",
        "type": "t_uint256"
      },
      {
        "astId": 879,
        "contract": "contracts/collections/ERC721/presets/ERC721SimpleCollection.sol:ERC721SimpleCollection",
        "label": "_status",
        "offset": 0,
        "slot": "14",
        "type": "t_uint256"
      },
      {
        "astId": 4536,
        "contract": "contracts/collections/ERC721/presets/ERC721SimpleCollection.sol:ERC721SimpleCollection",
        "label": "preSalePrice",
        "offset": 0,
        "slot": "15",
        "type": "t_uint256"
      },
      {
        "astId": 4538,
        "contract": "contracts/collections/ERC721/presets/ERC721SimpleCollection.sol:ERC721SimpleCollection",
        "label": "preSaleMaxMintPerWallet",
        "offset": 0,
        "slot": "16",
        "type": "t_uint256"
      },
      {
        "astId": 4540,
        "contract": "contracts/collections/ERC721/presets/ERC721SimpleCollection.sol:ERC721SimpleCollection",
        "label": "preSaleAllowlistMerkleRoot",
        "offset": 0,
        "slot": "17",
        "type": "t_bytes32"
      },
      {
        "astId": 4542,
        "contract": "contracts/collections/ERC721/presets/ERC721SimpleCollection.sol:ERC721SimpleCollection",
        "label": "preSaleActive",
        "offset": 0,
        "slot": "18",
        "type": "t_bool"
      },
      {
        "astId": 4546,
        "contract": "contracts/collections/ERC721/presets/ERC721SimpleCollection.sol:ERC721SimpleCollection",
        "label": "preSaleAllowlistClaimed",
        "offset": 0,
        "slot": "19",
        "type": "t_mapping(t_address,t_uint256)"
      },
      {
        "astId": 4714,
        "contract": "contracts/collections/ERC721/presets/ERC721SimpleCollection.sol:ERC721SimpleCollection",
        "label": "publicSalePrice",
        "offset": 0,
        "slot": "20",
        "type": "t_uint256"
      },
      {
        "astId": 4716,
        "contract": "contracts/collections/ERC721/presets/ERC721SimpleCollection.sol:ERC721SimpleCollection",
        "label": "publicSaleMaxMintPerTx",
        "offset": 0,
        "slot": "21",
        "type": "t_uint256"
      },
      {
        "astId": 4718,
        "contract": "contracts/collections/ERC721/presets/ERC721SimpleCollection.sol:ERC721SimpleCollection",
        "label": "publicSaleActive",
        "offset": 0,
        "slot": "22",
        "type": "t_bool"
      }
    ],
    "types": {
      "t_address": {
        "encoding": "inplace",
        "label": "address",
        "numberOfBytes": "20"
      },
      "t_bool": {
        "encoding": "inplace",
        "label": "bool",
        "numberOfBytes": "1"
      },
      "t_bytes32": {
        "encoding": "inplace",
        "label": "bytes32",
        "numberOfBytes": "32"
      },
      "t_mapping(t_address,t_bool)": {
        "encoding": "mapping",
        "key": "t_address",
        "label": "mapping(address => bool)",
        "numberOfBytes": "32",
        "value": "t_bool"
      },
      "t_mapping(t_address,t_mapping(t_address,t_bool))": {
        "encoding": "mapping",
        "key": "t_address",
        "label": "mapping(address => mapping(address => bool))",
        "numberOfBytes": "32",
        "value": "t_mapping(t_address,t_bool)"
      },
      "t_mapping(t_address,t_uint256)": {
        "encoding": "mapping",
        "key": "t_address",
        "label": "mapping(address => uint256)",
        "numberOfBytes": "32",
        "value": "t_uint256"
      },
      "t_mapping(t_uint256,t_address)": {
        "encoding": "mapping",
        "key": "t_uint256",
        "label": "mapping(uint256 => address)",
        "numberOfBytes": "32",
        "value": "t_address"
      },
      "t_string_storage": {
        "encoding": "bytes",
        "label": "string",
        "numberOfBytes": "32"
      },
      "t_uint256": {
        "encoding": "inplace",
        "label": "uint256",
        "numberOfBytes": "32"
      }
    }
  }
}