{
  "address": "0xBa483d24122aDd9BB0E2334E31288f4865e54A83",
  "abi": [
    {
      "anonymous": false,
      "inputs": [
        {
          "indexed": true,
          "internalType": "bytes32",
          "name": "role",
          "type": "bytes32"
        },
        {
          "indexed": true,
          "internalType": "bytes32",
          "name": "previousAdminRole",
          "type": "bytes32"
        },
        {
          "indexed": true,
          "internalType": "bytes32",
          "name": "newAdminRole",
          "type": "bytes32"
        }
      ],
      "name": "RoleAdminChanged",
      "type": "event"
    },
    {
      "anonymous": false,
      "inputs": [
        {
          "indexed": true,
          "internalType": "bytes32",
          "name": "role",
          "type": "bytes32"
        },
        {
          "indexed": true,
          "internalType": "address",
          "name": "account",
          "type": "address"
        },
        {
          "indexed": true,
          "internalType": "address",
          "name": "sender",
          "type": "address"
        }
      ],
      "name": "RoleGranted",
      "type": "event"
    },
    {
      "anonymous": false,
      "inputs": [
        {
          "indexed": true,
          "internalType": "bytes32",
          "name": "role",
          "type": "bytes32"
        },
        {
          "indexed": true,
          "internalType": "address",
          "name": "account",
          "type": "address"
        },
        {
          "indexed": true,
          "internalType": "address",
          "name": "sender",
          "type": "address"
        }
      ],
      "name": "RoleRevoked",
      "type": "event"
    },
    {
      "inputs": [],
      "name": "DEFAULT_ADMIN_ROLE",
      "outputs": [
        {
          "internalType": "bytes32",
          "name": "",
          "type": "bytes32"
        }
      ],
      "stateMutability": "view",
      "type": "function"
    },
    {
      "inputs": [],
      "name": "MINTER_ROLE",
      "outputs": [
        {
          "internalType": "bytes32",
          "name": "",
          "type": "bytes32"
        }
      ],
      "stateMutability": "view",
      "type": "function"
    },
    {
      "inputs": [
        {
          "internalType": "address",
          "name": "to",
          "type": "address"
        },
        {
          "internalType": "uint256",
          "name": "amount",
          "type": "uint256"
        }
      ],
      "name": "mintByRole",
      "outputs": [],
      "stateMutability": "nonpayable",
      "type": "function"
    },
    {
      "inputs": [
        {
          "internalType": "address[]",
          "name": "tos",
          "type": "address[]"
        },
        {
          "internalType": "uint256[]",
          "name": "amounts",
          "type": "uint256[]"
        }
      ],
      "name": "mintByRole",
      "outputs": [],
      "stateMutability": "nonpayable",
      "type": "function"
    }
  ],
  "transactionHash": "0xe0537d03b8b39497c882da33b36aad6dc7759c8b222c59b93fd3e3b0d8f7b48f",
  "args": [],
  "numDeployments": 1,
  "solcInputHash": "e2f42af2f5273c7308f3825761226b47",
  "bytecode": "0x608060405234801561001057600080fd5b50610885806100206000396000f3fe608060405234801561001057600080fd5b506004361061004c5760003560e01c80631a056e7114610051578063a217fddf14610066578063b9a47ff214610080578063d539139314610093575b600080fd5b61006461005f366004610551565b6100ba565b005b61006e600081565b60405190815260200160405180910390f35b61006461008e3660046105c7565b61016f565b61006e7f9f2df0fed2c77648de5860a4cc508cd0818c85b8b8a1ab4ceeef8d981c8956a681565b7f9f2df0fed2c77648de5860a4cc508cd0818c85b8b8a1ab4ceeef8d981c8956a66100e481610214565b6040517f2d4f475f00000000000000000000000000000000000000000000000000000000815273ffffffffffffffffffffffffffffffffffffffff84166004820152602481018390523090632d4f475f90604401600060405180830381600087803b15801561015257600080fd5b505af1158015610166573d6000803e3d6000fd5b50505050505050565b7f9f2df0fed2c77648de5860a4cc508cd0818c85b8b8a1ab4ceeef8d981c8956a661019981610214565b6040517f49142a1400000000000000000000000000000000000000000000000000000000815230906349142a14906101db908890889088908890600401610633565b600060405180830381600087803b1580156101f557600080fd5b505af1158015610209573d6000803e3d6000fd5b505050505050505050565b61021e8133610221565b50565b60008281527f2e59e4c2e927cdddbb64e181e0668d9a0fa70dd88f94d999cd87d5496a20da626020908152604080832073ffffffffffffffffffffffffffffffffffffffff8516845290915290205460ff166102cb57610280816102cf565b61028b8360206102f8565b60405160200161029c92919061070b565b60408051601f198184030181529082905262461bcd60e51b82526102c29160040161078c565b60405180910390fd5b5050565b60606102f273ffffffffffffffffffffffffffffffffffffffff831660146102f8565b92915050565b606060006103078360026107d5565b6103129060026107f4565b67ffffffffffffffff81111561032a5761032a61080c565b6040519080825280601f01601f191660200182016040528015610354576020820181803683370190505b5090507f30000000000000000000000000000000000000000000000000000000000000008160008151811061038b5761038b610822565b60200101907effffffffffffffffffffffffffffffffffffffffffffffffffffffffffffff1916908160001a9053507f7800000000000000000000000000000000000000000000000000000000000000816001815181106103ee576103ee610822565b60200101907effffffffffffffffffffffffffffffffffffffffffffffffffffffffffffff1916908160001a905350600061042a8460026107d5565b6104359060016107f4565b90505b60018111156104d2577f303132333435363738396162636465660000000000000000000000000000000085600f166010811061047657610476610822565b1a60f81b82828151811061048c5761048c610822565b60200101907effffffffffffffffffffffffffffffffffffffffffffffffffffffffffffff1916908160001a90535060049490941c936104cb81610838565b9050610438565b5083156105215760405162461bcd60e51b815260206004820181905260248201527f537472696e67733a20686578206c656e67746820696e73756666696369656e7460448201526064016102c2565b9392505050565b803573ffffffffffffffffffffffffffffffffffffffff8116811461054c57600080fd5b919050565b6000806040838503121561056457600080fd5b61056d83610528565b946020939093013593505050565b60008083601f84011261058d57600080fd5b50813567ffffffffffffffff8111156105a557600080fd5b6020830191508360208260051b85010111156105c057600080fd5b9250929050565b600080600080604085870312156105dd57600080fd5b843567ffffffffffffffff808211156105f557600080fd5b6106018883890161057b565b9096509450602087013591508082111561061a57600080fd5b506106278782880161057b565b95989497509550505050565b6040808252810184905260008560608301825b878110156106815773ffffffffffffffffffffffffffffffffffffffff61066c84610528565b16825260209283019290910190600101610646565b5083810360208501528481527f07ffffffffffffffffffffffffffffffffffffffffffffffffffffffffffffff8511156106ba57600080fd5b8460051b915081866020830137600091016020019081529695505050505050565b60005b838110156106f65781810151838201526020016106de565b83811115610705576000848401525b50505050565b7f416363657373436f6e74726f6c3a206163636f756e74200000000000000000008152600083516107438160178501602088016106db565b7f206973206d697373696e6720726f6c652000000000000000000000000000000060179184019182015283516107808160288401602088016106db565b01602801949350505050565b60208152600082518060208401526107ab8160408501602087016106db565b601f01601f19169190910160400192915050565b634e487b7160e01b600052601160045260246000fd5b60008160001904831182151516156107ef576107ef6107bf565b500290565b60008219821115610807576108076107bf565b500190565b634e487b7160e01b600052604160045260246000fd5b634e487b7160e01b600052603260045260246000fd5b600081610847576108476107bf565b50600019019056fea2646970667358221220bada4634d3ced911b5893a263712863bc289985ffddd9b32ccdff5d2c2eccceb64736f6c634300080f0033",
  "devdoc": {
    "custom:category": "Tokens",
    "custom:provides-interfaces": "IERC20MintableRoleBased",
    "custom:required-dependencies": "IERC20MintableExtension",
    "custom:type": "eip-2535-facet",
    "kind": "dev",
    "methods": {
      "mintByRole(address,uint256)": {
        "details": "Creates `amount` new tokens for `to`, of token type `id`. See {ERC20-_mint}. Requirements: - the caller must have MINTER_ROLE."
      }
    },
    "title": "ERC20 - Mint as role",
    "version": 1
  },
  "userdoc": {
    "kind": "user",
    "methods": {},
    "notice": "Allow minting for senders with MINTER_ROLE to mint new tokens (supports ERC20A).",
    "version": 1
  },
  "storageLayout": {
    "storage": [],
    "types": null
  }
}