{
  "address": "0x70492D215774d05f279b7C811399AEe2406d4c2D",
  "abi": [
    {
      "inputs": [
        {
          "components": [
            {
              "internalType": "string",
              "name": "name",
              "type": "string"
            },
            {
              "internalType": "string",
              "name": "symbol",
              "type": "string"
            },
            {
              "internalType": "string",
              "name": "contractURI",
              "type": "string"
            },
            {
              "internalType": "string",
              "name": "placeholderURI",
              "type": "string"
            },
            {
              "internalType": "string",
              "name": "tokenURIPrefix",
              "type": "string"
            },
            {
              "internalType": "address[]",
              "name": "initialHolders",
              "type": "address[]"
            },
            {
              "internalType": "uint256[]",
              "name": "initialAmounts",
              "type": "uint256[]"
            },
            {
              "internalType": "uint256",
              "name": "maxSupply",
              "type": "uint256"
            },
            {
              "internalType": "address",
              "name": "defaultRoyaltyAddress",
              "type": "address"
            },
            {
              "internalType": "uint16",
              "name": "defaultRoyaltyBps",
              "type": "uint16"
            },
            {
              "internalType": "address",
              "name": "trustedForwarder",
              "type": "address"
            }
          ],
          "internalType": "struct ERC721ManagedPrefixedCollection.Config",
          "name": "config",
          "type": "tuple"
        }
      ],
      "stateMutability": "nonpayable",
      "type": "constructor"
    },
    {
      "anonymous": false,
      "inputs": [
        {
          "indexed": true,
          "internalType": "address",
          "name": "owner",
          "type": "address"
        },
        {
          "indexed": true,
          "internalType": "address",
          "name": "approved",
          "type": "address"
        },
        {
          "indexed": true,
          "internalType": "uint256",
          "name": "tokenId",
          "type": "uint256"
        }
      ],
      "name": "Approval",
      "type": "event"
    },
    {
      "anonymous": false,
      "inputs": [
        {
          "indexed": true,
          "internalType": "address",
          "name": "owner",
          "type": "address"
        },
        {
          "indexed": true,
          "internalType": "address",
          "name": "operator",
          "type": "address"
        },
        {
          "indexed": false,
          "internalType": "bool",
          "name": "approved",
          "type": "bool"
        }
      ],
      "name": "ApprovalForAll",
      "type": "event"
    },
    {
      "anonymous": false,
      "inputs": [
        {
          "indexed": false,
          "internalType": "address",
          "name": "recipient",
          "type": "address"
        },
        {
          "indexed": false,
          "internalType": "uint16",
          "name": "bps",
          "type": "uint16"
        }
      ],
      "name": "DefaultRoyaltySet",
      "type": "event"
    },
    {
      "anonymous": false,
      "inputs": [
        {
          "indexed": false,
          "internalType": "uint8",
          "name": "version",
          "type": "uint8"
        }
      ],
      "name": "Initialized",
      "type": "event"
    },
    {
      "anonymous": false,
      "inputs": [
        {
          "indexed": true,
          "internalType": "address",
          "name": "previousOwner",
          "type": "address"
        },
        {
          "indexed": true,
          "internalType": "address",
          "name": "newOwner",
          "type": "address"
        }
      ],
      "name": "OwnershipTransferred",
      "type": "event"
    },
    {
      "anonymous": false,
      "inputs": [
        {
          "indexed": false,
          "internalType": "uint256",
          "name": "tokenId",
          "type": "uint256"
        }
      ],
      "name": "TokenRoyaltyRemoved",
      "type": "event"
    },
    {
      "anonymous": false,
      "inputs": [
        {
          "indexed": false,
          "internalType": "uint256",
          "name": "tokenId",
          "type": "uint256"
        },
        {
          "indexed": false,
          "internalType": "address",
          "name": "recipient",
          "type": "address"
        },
        {
          "indexed": false,
          "internalType": "uint16",
          "name": "bps",
          "type": "uint16"
        }
      ],
      "name": "TokenRoyaltySet",
      "type": "event"
    },
    {
      "anonymous": false,
      "inputs": [
        {
          "indexed": true,
          "internalType": "address",
          "name": "from",
          "type": "address"
        },
        {
          "indexed": true,
          "internalType": "address",
          "name": "to",
          "type": "address"
        },
        {
          "indexed": true,
          "internalType": "uint256",
          "name": "tokenId",
          "type": "uint256"
        }
      ],
      "name": "Transfer",
      "type": "event"
    },
    {
      "inputs": [],
      "name": "_trustedForwarder",
      "outputs": [
        {
          "internalType": "address",
          "name": "",
          "type": "address"
        }
      ],
      "stateMutability": "view",
      "type": "function"
    },
    {
      "inputs": [
        {
          "internalType": "address",
          "name": "to",
          "type": "address"
        },
        {
          "internalType": "uint256",
          "name": "tokenId",
          "type": "uint256"
        }
      ],
      "name": "approve",
      "outputs": [],
      "stateMutability": "nonpayable",
      "type": "function"
    },
    {
      "inputs": [
        {
          "internalType": "address",
          "name": "owner",
          "type": "address"
        }
      ],
      "name": "balanceOf",
      "outputs": [
        {
          "internalType": "uint256",
          "name": "",
          "type": "uint256"
        }
      ],
      "stateMutability": "view",
      "type": "function"
    },
    {
      "inputs": [],
      "name": "contractURI",
      "outputs": [
        {
          "internalType": "string",
          "name": "",
          "type": "string"
        }
      ],
      "stateMutability": "view",
      "type": "function"
    },
    {
      "inputs": [],
      "name": "defaultRoyalty",
      "outputs": [
        {
          "internalType": "address",
          "name": "recipient",
          "type": "address"
        },
        {
          "internalType": "uint16",
          "name": "bps",
          "type": "uint16"
        }
      ],
      "stateMutability": "view",
      "type": "function"
    },
    {
      "inputs": [],
      "name": "freezeMaxSupply",
      "outputs": [],
      "stateMutability": "nonpayable",
      "type": "function"
    },
    {
      "inputs": [],
      "name": "freezeTokenURI",
      "outputs": [],
      "stateMutability": "nonpayable",
      "type": "function"
    },
    {
      "inputs": [
        {
          "internalType": "uint256",
          "name": "tokenId",
          "type": "uint256"
        }
      ],
      "name": "getApproved",
      "outputs": [
        {
          "internalType": "address",
          "name": "",
          "type": "address"
        }
      ],
      "stateMutability": "view",
      "type": "function"
    },
    {
      "inputs": [],
      "name": "getInfo",
      "outputs": [
        {
          "internalType": "uint256",
          "name": "_maxSupply",
          "type": "uint256"
        },
        {
          "internalType": "uint256",
          "name": "_totalSupply",
          "type": "uint256"
        },
        {
          "internalType": "uint256",
          "name": "_senderBalance",
          "type": "uint256"
        }
      ],
      "stateMutability": "view",
      "type": "function"
    },
    {
      "inputs": [
        {
          "internalType": "uint256",
          "name": "id",
          "type": "uint256"
        }
      ],
      "name": "getRaribleV2Royalties",
      "outputs": [
        {
          "components": [
            {
              "internalType": "address payable",
              "name": "account",
              "type": "address"
            },
            {
              "internalType": "uint96",
              "name": "value",
              "type": "uint96"
            }
          ],
          "internalType": "struct LibPart.Part[]",
          "name": "result",
          "type": "tuple[]"
        }
      ],
      "stateMutability": "view",
      "type": "function"
    },
    {
      "inputs": [],
      "name": "getTokenRoyaltiesCount",
      "outputs": [
        {
          "internalType": "uint256",
          "name": "",
          "type": "uint256"
        }
      ],
      "stateMutability": "view",
      "type": "function"
    },
    {
      "inputs": [
        {
          "internalType": "uint256",
          "name": "index",
          "type": "uint256"
        }
      ],
      "name": "getTokenRoyaltyByIndex",
      "outputs": [
        {
          "components": [
            {
              "internalType": "uint256",
              "name": "tokenId",
              "type": "uint256"
            },
            {
              "internalType": "address",
              "name": "recipient",
              "type": "address"
            },
            {
              "internalType": "uint16",
              "name": "bps",
              "type": "uint16"
            }
          ],
          "internalType": "struct IEIP2981RoyaltyOverride.TokenRoyaltyConfig",
          "name": "",
          "type": "tuple"
        }
      ],
      "stateMutability": "view",
      "type": "function"
    },
    {
      "inputs": [
        {
          "components": [
            {
              "internalType": "string",
              "name": "name",
              "type": "string"
            },
            {
              "internalType": "string",
              "name": "symbol",
              "type": "string"
            },
            {
              "internalType": "string",
              "name": "contractURI",
              "type": "string"
            },
            {
              "internalType": "string",
              "name": "placeholderURI",
              "type": "string"
            },
            {
              "internalType": "string",
              "name": "tokenURIPrefix",
              "type": "string"
            },
            {
              "internalType": "address[]",
              "name": "initialHolders",
              "type": "address[]"
            },
            {
              "internalType": "uint256[]",
              "name": "initialAmounts",
              "type": "uint256[]"
            },
            {
              "internalType": "uint256",
              "name": "maxSupply",
              "type": "uint256"
            },
            {
              "internalType": "address",
              "name": "defaultRoyaltyAddress",
              "type": "address"
            },
            {
              "internalType": "uint16",
              "name": "defaultRoyaltyBps",
              "type": "uint16"
            },
            {
              "internalType": "address",
              "name": "trustedForwarder",
              "type": "address"
            }
          ],
          "internalType": "struct ERC721ManagedPrefixedCollection.Config",
          "name": "config",
          "type": "tuple"
        },
        {
          "internalType": "address",
          "name": "deployer",
          "type": "address"
        }
      ],
      "name": "initialize",
      "outputs": [],
      "stateMutability": "nonpayable",
      "type": "function"
    },
    {
      "inputs": [
        {
          "internalType": "address",
          "name": "owner",
          "type": "address"
        },
        {
          "internalType": "address",
          "name": "operator",
          "type": "address"
        }
      ],
      "name": "isApprovedForAll",
      "outputs": [
        {
          "internalType": "bool",
          "name": "",
          "type": "bool"
        }
      ],
      "stateMutability": "view",
      "type": "function"
    },
    {
      "inputs": [
        {
          "internalType": "address",
          "name": "forwarder",
          "type": "address"
        }
      ],
      "name": "isTrustedForwarder",
      "outputs": [
        {
          "internalType": "bool",
          "name": "",
          "type": "bool"
        }
      ],
      "stateMutability": "view",
      "type": "function"
    },
    {
      "inputs": [],
      "name": "managementPowerRevoked",
      "outputs": [
        {
          "internalType": "bool",
          "name": "",
          "type": "bool"
        }
      ],
      "stateMutability": "view",
      "type": "function"
    },
    {
      "inputs": [],
      "name": "maxSupply",
      "outputs": [
        {
          "internalType": "uint256",
          "name": "",
          "type": "uint256"
        }
      ],
      "stateMutability": "view",
      "type": "function"
    },
    {
      "inputs": [],
      "name": "maxSupplyFrozen",
      "outputs": [
        {
          "internalType": "bool",
          "name": "",
          "type": "bool"
        }
      ],
      "stateMutability": "view",
      "type": "function"
    },
    {
      "inputs": [
        {
          "internalType": "address",
          "name": "to",
          "type": "address"
        },
        {
          "internalType": "uint256",
          "name": "count",
          "type": "uint256"
        }
      ],
      "name": "mintByOwner",
      "outputs": [],
      "stateMutability": "nonpayable",
      "type": "function"
    },
    {
      "inputs": [],
      "name": "name",
      "outputs": [
        {
          "internalType": "string",
          "name": "",
          "type": "string"
        }
      ],
      "stateMutability": "view",
      "type": "function"
    },
    {
      "inputs": [],
      "name": "owner",
      "outputs": [
        {
          "internalType": "address",
          "name": "",
          "type": "address"
        }
      ],
      "stateMutability": "view",
      "type": "function"
    },
    {
      "inputs": [
        {
          "internalType": "uint256",
          "name": "tokenId",
          "type": "uint256"
        }
      ],
      "name": "ownerOf",
      "outputs": [
        {
          "internalType": "address",
          "name": "",
          "type": "address"
        }
      ],
      "stateMutability": "view",
      "type": "function"
    },
    {
      "inputs": [],
      "name": "placeholderURI",
      "outputs": [
        {
          "internalType": "string",
          "name": "",
          "type": "string"
        }
      ],
      "stateMutability": "view",
      "type": "function"
    },
    {
      "inputs": [],
      "name": "renounceOwnership",
      "outputs": [],
      "stateMutability": "nonpayable",
      "type": "function"
    },
    {
      "inputs": [],
      "name": "revokeManagementPower",
      "outputs": [],
      "stateMutability": "nonpayable",
      "type": "function"
    },
    {
      "inputs": [
        {
          "internalType": "uint256",
          "name": "tokenId",
          "type": "uint256"
        },
        {
          "internalType": "uint256",
          "name": "value",
          "type": "uint256"
        }
      ],
      "name": "royaltyInfo",
      "outputs": [
        {
          "internalType": "address",
          "name": "",
          "type": "address"
        },
        {
          "internalType": "uint256",
          "name": "",
          "type": "uint256"
        }
      ],
      "stateMutability": "view",
      "type": "function"
    },
    {
      "inputs": [
        {
          "internalType": "address",
          "name": "from",
          "type": "address"
        },
        {
          "internalType": "address",
          "name": "to",
          "type": "address"
        },
        {
          "internalType": "uint256",
          "name": "tokenId",
          "type": "uint256"
        }
      ],
      "name": "safeTransferFrom",
      "outputs": [],
      "stateMutability": "nonpayable",
      "type": "function"
    },
    {
      "inputs": [
        {
          "internalType": "address",
          "name": "from",
          "type": "address"
        },
        {
          "internalType": "address",
          "name": "to",
          "type": "address"
        },
        {
          "internalType": "uint256",
          "name": "tokenId",
          "type": "uint256"
        },
        {
          "internalType": "bytes",
          "name": "_data",
          "type": "bytes"
        }
      ],
      "name": "safeTransferFrom",
      "outputs": [],
      "stateMutability": "nonpayable",
      "type": "function"
    },
    {
      "inputs": [
        {
          "internalType": "address",
          "name": "operator",
          "type": "address"
        },
        {
          "internalType": "bool",
          "name": "approved",
          "type": "bool"
        }
      ],
      "name": "setApprovalForAll",
      "outputs": [],
      "stateMutability": "nonpayable",
      "type": "function"
    },
    {
      "inputs": [
        {
          "internalType": "string",
          "name": "newValue",
          "type": "string"
        }
      ],
      "name": "setContractURI",
      "outputs": [],
      "stateMutability": "nonpayable",
      "type": "function"
    },
    {
      "inputs": [
        {
          "components": [
            {
              "internalType": "address",
              "name": "recipient",
              "type": "address"
            },
            {
              "internalType": "uint16",
              "name": "bps",
              "type": "uint16"
            }
          ],
          "internalType": "struct IEIP2981RoyaltyOverride.TokenRoyalty",
          "name": "royalty",
          "type": "tuple"
        }
      ],
      "name": "setDefaultRoyalty",
      "outputs": [],
      "stateMutability": "nonpayable",
      "type": "function"
    },
    {
      "inputs": [
        {
          "internalType": "uint256",
          "name": "newValue",
          "type": "uint256"
        }
      ],
      "name": "setMaxSupply",
      "outputs": [],
      "stateMutability": "nonpayable",
      "type": "function"
    },
    {
      "inputs": [
        {
          "internalType": "string",
          "name": "newValue",
          "type": "string"
        }
      ],
      "name": "setPlaceholderURI",
      "outputs": [],
      "stateMutability": "nonpayable",
      "type": "function"
    },
    {
      "inputs": [
        {
          "components": [
            {
              "internalType": "uint256",
              "name": "tokenId",
              "type": "uint256"
            },
            {
              "internalType": "address",
              "name": "recipient",
              "type": "address"
            },
            {
              "internalType": "uint16",
              "name": "bps",
              "type": "uint16"
            }
          ],
          "internalType": "struct IEIP2981RoyaltyOverride.TokenRoyaltyConfig[]",
          "name": "royaltyConfigs",
          "type": "tuple[]"
        }
      ],
      "name": "setTokenRoyalties",
      "outputs": [],
      "stateMutability": "nonpayable",
      "type": "function"
    },
    {
      "inputs": [
        {
          "internalType": "string",
          "name": "newValue",
          "type": "string"
        }
      ],
      "name": "setTokenURIPrefix",
      "outputs": [],
      "stateMutability": "nonpayable",
      "type": "function"
    },
    {
      "inputs": [
        {
          "internalType": "string",
          "name": "newValue",
          "type": "string"
        }
      ],
      "name": "setTokenURISuffix",
      "outputs": [],
      "stateMutability": "nonpayable",
      "type": "function"
    },
    {
      "inputs": [
        {
          "internalType": "address",
          "name": "trustedForwarder",
          "type": "address"
        }
      ],
      "name": "setTrustedForwarder",
      "outputs": [],
      "stateMutability": "nonpayable",
      "type": "function"
    },
    {
      "inputs": [
        {
          "internalType": "bytes4",
          "name": "interfaceId",
          "type": "bytes4"
        }
      ],
      "name": "supportsInterface",
      "outputs": [
        {
          "internalType": "bool",
          "name": "",
          "type": "bool"
        }
      ],
      "stateMutability": "view",
      "type": "function"
    },
    {
      "inputs": [],
      "name": "symbol",
      "outputs": [
        {
          "internalType": "string",
          "name": "",
          "type": "string"
        }
      ],
      "stateMutability": "view",
      "type": "function"
    },
    {
      "inputs": [
        {
          "internalType": "uint256",
          "name": "_tokenId",
          "type": "uint256"
        }
      ],
      "name": "tokenURI",
      "outputs": [
        {
          "internalType": "string",
          "name": "",
          "type": "string"
        }
      ],
      "stateMutability": "view",
      "type": "function"
    },
    {
      "inputs": [],
      "name": "tokenURIFrozen",
      "outputs": [
        {
          "internalType": "bool",
          "name": "",
          "type": "bool"
        }
      ],
      "stateMutability": "view",
      "type": "function"
    },
    {
      "inputs": [],
      "name": "tokenURIPrefix",
      "outputs": [
        {
          "internalType": "string",
          "name": "",
          "type": "string"
        }
      ],
      "stateMutability": "view",
      "type": "function"
    },
    {
      "inputs": [],
      "name": "tokenURISuffix",
      "outputs": [
        {
          "internalType": "string",
          "name": "",
          "type": "string"
        }
      ],
      "stateMutability": "view",
      "type": "function"
    },
    {
      "inputs": [],
      "name": "totalSupply",
      "outputs": [
        {
          "internalType": "uint256",
          "name": "",
          "type": "uint256"
        }
      ],
      "stateMutability": "view",
      "type": "function"
    },
    {
      "inputs": [
        {
          "internalType": "address",
          "name": "from",
          "type": "address"
        },
        {
          "internalType": "address",
          "name": "to",
          "type": "address"
        },
        {
          "internalType": "uint256",
          "name": "tokenId",
          "type": "uint256"
        }
      ],
      "name": "transferFrom",
      "outputs": [],
      "stateMutability": "nonpayable",
      "type": "function"
    },
    {
      "inputs": [
        {
          "internalType": "address",
          "name": "from",
          "type": "address"
        },
        {
          "internalType": "address",
          "name": "to",
          "type": "address"
        },
        {
          "internalType": "uint256[]",
          "name": "tokenIds",
          "type": "uint256[]"
        }
      ],
      "name": "transferFromBulk",
      "outputs": [],
      "stateMutability": "nonpayable",
      "type": "function"
    },
    {
      "inputs": [
        {
          "internalType": "address[]",
          "name": "from",
          "type": "address[]"
        },
        {
          "internalType": "address[]",
          "name": "to",
          "type": "address[]"
        },
        {
          "internalType": "uint256[]",
          "name": "tokenIds",
          "type": "uint256[]"
        }
      ],
      "name": "transferFromBulk",
      "outputs": [],
      "stateMutability": "nonpayable",
      "type": "function"
    },
    {
      "inputs": [
        {
          "internalType": "address",
          "name": "newOwner",
          "type": "address"
        }
      ],
      "name": "transferOwnership",
      "outputs": [],
      "stateMutability": "nonpayable",
      "type": "function"
    }
  ],
  "transactionHash": "0x740949d8842373910cfd0c9e717ce8f2064b4af0de9236b90cb5c9d40c1fed00",
  "args": [
    {
      "name": "Collection",
      "symbol": "COL",
      "contractURI": "ipfs://contractURI",
      "placeholderURI": "ipfs://placeholderURI",
      "tokenURIPrefix": "ipfs://tokenURIPrefix/",
      "maxSupply": 0,
      "defaultRoyaltyAddress": "0x0000000000000000000000000000000000000000",
      "defaultRoyaltyBps": 0,
      "trustedForwarder": "0x0000000000000000000000000000000000000000",
      "initialHolders": [],
      "initialAmounts": []
    }
  ],
  "numDeployments": 3,
  "solcInputHash": "c95362fce50a5f569e746003cbcdea52",
  "bytecode": "0x608060405260006012553480156200001657600080fd5b5060405162004cfe38038062004cfe8339810160408190526200003991620010c3565b80516020820151620000546200004e6200009b565b620000b7565b81516200006990600390602085019062000dda565b5080516200007f90600490602084019062000dda565b5050506200009481336200011260201b60201c565b5062001486565b6000620000b2620002fe60201b620016cd1760201c565b905090565b600080546001600160a01b038381166201000081810262010000600160b01b0319851617855560405193049190911692909183917f8be0079c531659141344cd1fd0a4f28419497f9722a3daafe3b4186f6b6457e091a35050565b600062000120600162000337565b9050801562000139576000805461ff0019166101001790555b8260c00151518360a001515114620001985760405162461bcd60e51b815260206004820152601b60248201527f4552433732312f494e56414c49445f494e495449414c5f41524753000000000060448201526064015b60405180910390fd5b620001a382620000b7565b825160208401516040850151620001bc929190620003e0565b620001d6836060015184608001516200041760201b60201c565b60e0830151620001e69062000451565b620001f062000489565b620001fa620004bf565b62000216836101000151846101200151620004f360201b60201c565b610140830151620002279062000529565b620002316200055e565b60e083015160105560005b8360a0015151811015620002b1576200029c8460a00151828151811062000267576200026762001270565b60200260200101518560c00151838151811062000288576200028862001270565b60200260200101516200059260201b60201c565b80620002a8816200129c565b9150506200023c565b508015620002f9576000805461ff0019169055604051600181527f7f26b83ff96e1f2b6a682f133852f6798a09c465da95921460cefb38474024989060200160405180910390a15b505050565b6002546000906001600160a01b031633141562000322575060131936013560601c90565b620000b26200062c60201b620016ef1760201c565b60008054610100900460ff161562000397578160ff1660011480156200037057506200036e306200063060201b620016f31760201c565b155b6200038f5760405162461bcd60e51b81526004016200018f90620012ba565b506000919050565b60005460ff808416911610620003c15760405162461bcd60e51b81526004016200018f90620012ba565b506000805460ff191660ff92909216919091179055600190565b919050565b600054610100900460ff166200040a5760405162461bcd60e51b81526004016200018f9062001308565b620002f98383836200063f565b600054610100900460ff16620004415760405162461bcd60e51b81526004016200018f9062001308565b6200044d8282620006e1565b5050565b600054610100900460ff166200047b5760405162461bcd60e51b81526004016200018f9062001308565b62000486816200078a565b50565b600054610100900460ff16620004b35760405162461bcd60e51b81526004016200018f9062001308565b620004bd620007dd565b565b600054610100900460ff16620004e95760405162461bcd60e51b81526004016200018f9062001308565b620004bd62000819565b600054610100900460ff166200051d5760405162461bcd60e51b81526004016200018f9062001308565b6200044d828262000855565b600054610100900460ff16620005535760405162461bcd60e51b81526004016200018f9062001308565b6200048681620008f2565b600054610100900460ff16620005885760405162461bcd60e51b81526004016200018f9062001308565b620004bd6200093e565b60105481620005a060125490565b620005ac919062001353565b1115620005f15760405162461bcd60e51b8152602060048201526012602482015271455843454544535f4d41585f535550504c5960701b60448201526064016200018f565b60005b81811015620002f9576012546200060c84826200097a565b620006166200099c565b508062000623816200129c565b915050620005f4565b3390565b6001600160a01b03163b151590565b600054610100900460ff16620006695760405162461bcd60e51b81526004016200018f9062001308565b82516200067e90600990602086019062000dda565b5081516200069490600a90602085019062000dda565b508051620006aa90600b90602084019062000dda565b50620006bd633d96f4ff60e11b620009b5565b620006cf6380ac58cd60e01b620009b5565b620002f9635b5e139f60e01b620009b5565b600054610100900460ff166200070b5760405162461bcd60e51b81526004016200018f9062001308565b81516200072090600c90602085019062000dda565b5080516200073690600d90602084019062000dda565b5060408051808201909152600580825264173539b7b760d91b60209092019182526200076591600e9162000dda565b5062000778631f2f406b60e01b620009b5565b6200044d635b5e139f60e01b620009b5565b600054610100900460ff16620007b45760405162461bcd60e51b81526004016200018f9062001308565b6010819055620007cb6330f487b560e11b620009b5565b620004866380ac58cd60e01b620009b5565b600054610100900460ff16620008075760405162461bcd60e51b81526004016200018f9062001308565b620004bd631aa1577160e11b620009b5565b600054610100900460ff16620008435760405162461bcd60e51b81526004016200018f9062001308565b620004bd63948e2d5360e01b620009b5565b600054610100900460ff166200087f5760405162461bcd60e51b81526004016200018f9062001308565b62000891633a47bf5160e11b620009b5565b620008a363152a902d60e11b620009b5565b620008b563c69dbd8f60e01b620009b5565b620008c763656cb66560e11b620009b5565b604080518082019091526001600160a01b038316815261ffff82166020820152620002f98162000a39565b600054610100900460ff166200091c5760405162461bcd60e51b81526004016200018f9062001308565b600280546001600160a01b0319166001600160a01b0392909216919091179055565b600054610100900460ff16620009685760405162461bcd60e51b81526004016200018f9062001308565b620004bd632a7c3e4960e01b620009b5565b6200044d82826040518060200160405280600081525062000b1f60201b60201c565b60128054906000620009ae836200129c565b9190505550565b6001600160e01b0319808216141562000a115760405162461bcd60e51b815260206004820152601c60248201527f4552433136353a20696e76616c696420696e746572666163652069640000000060448201526064016200018f565b6001600160e01b0319166000908152600160208190526040909120805460ff19169091179055565b612710816020015161ffff161062000a825760405162461bcd60e51b815260206004820152600b60248201526a496e76616c69642062707360a81b60448201526064016200018f565b60408051808201825282516001600160a01b03168082526020808501805161ffff169190930181905260148054600160a01b9092026001600160b01b03199092169092171790558251905191517f2c5ea6e4103e78cb101e796fb2dace540362fc542cbff5145eaa24af7dd8fe419262000b1492916001600160a01b0392909216825261ffff16602082015260400190565b60405180910390a150565b62000b2b838362000b59565b62000b3a600084848462000ca1565b620002f95760405162461bcd60e51b81526004016200018f906200136e565b6001600160a01b03821662000bb15760405162461bcd60e51b815260206004820181905260248201527f4552433732313a206d696e7420746f20746865207a65726f206164647265737360448201526064016200018f565b6000818152600560205260409020546001600160a01b03161562000c185760405162461bcd60e51b815260206004820152601c60248201527f4552433732313a20746f6b656e20616c7265616479206d696e7465640000000060448201526064016200018f565b6001600160a01b038216600090815260066020526040812080546001929062000c4390849062001353565b909155505060008181526005602052604080822080546001600160a01b0319166001600160a01b03861690811790915590518392907fddf252ad1be2c89b69c2b068fc378daa952ba7f163c4a11628f55a4df523b3ef908290a45050565b600062000cc2846001600160a01b03166200063060201b620016f31760201c565b1562000dce576001600160a01b03841663150b7a0262000ce16200009b565b8786866040518563ffffffff1660e01b815260040162000d059493929190620013c0565b602060405180830381600087803b15801562000d2057600080fd5b505af192505050801562000d53575060408051601f3d908101601f1916820190925262000d509181019062001416565b60015b62000db3573d80801562000d84576040519150601f19603f3d011682016040523d82523d6000602084013e62000d89565b606091505b50805162000dab5760405162461bcd60e51b81526004016200018f906200136e565b805181602001fd5b6001600160e01b031916630a85bd0160e11b14905062000dd2565b5060015b949350505050565b82805462000de89062001449565b90600052602060002090601f01602090048101928262000e0c576000855562000e57565b82601f1062000e2757805160ff191683800117855562000e57565b8280016001018555821562000e57579182015b8281111562000e5757825182559160200191906001019062000e3a565b5062000e6592915062000e69565b5090565b5b8082111562000e65576000815560010162000e6a565b634e487b7160e01b600052604160045260246000fd5b60405161016081016001600160401b038111828210171562000ebc5762000ebc62000e80565b60405290565b604051601f8201601f191681016001600160401b038111828210171562000eed5762000eed62000e80565b604052919050565b60005b8381101562000f1257818101518382015260200162000ef8565b8381111562000f22576000848401525b50505050565b600082601f83011262000f3a57600080fd5b81516001600160401b0381111562000f565762000f5662000e80565b62000f6b601f8201601f191660200162000ec2565b81815284602083860101111562000f8157600080fd5b62000dd282602083016020870162000ef5565b60006001600160401b0382111562000fb05762000fb062000e80565b5060051b60200190565b80516001600160a01b0381168114620003db57600080fd5b600082601f83011262000fe457600080fd5b8151602062000ffd62000ff78362000f94565b62000ec2565b82815260059290921b840181019181810190868411156200101d57600080fd5b8286015b848110156200104357620010358162000fba565b835291830191830162001021565b509695505050505050565b600082601f8301126200106057600080fd5b815160206200107362000ff78362000f94565b82815260059290921b840181019181810190868411156200109357600080fd5b8286015b8481101562001043578051835291830191830162001097565b805161ffff81168114620003db57600080fd5b600060208284031215620010d657600080fd5b81516001600160401b0380821115620010ee57600080fd5b9083019061016082860312156200110457600080fd5b6200110e62000e96565b8251828111156200111e57600080fd5b6200112c8782860162000f28565b8252506020830151828111156200114257600080fd5b620011508782860162000f28565b6020830152506040830151828111156200116957600080fd5b620011778782860162000f28565b6040830152506060830151828111156200119057600080fd5b6200119e8782860162000f28565b606083015250608083015182811115620011b757600080fd5b620011c58782860162000f28565b60808301525060a083015182811115620011de57600080fd5b620011ec8782860162000fd2565b60a08301525060c0830151828111156200120557600080fd5b62001213878286016200104e565b60c08301525060e083015160e082015261010091506200123582840162000fba565b8282015261012091506200124b828401620010b0565b8282015261014091506200126182840162000fba565b91810191909152949350505050565b634e487b7160e01b600052603260045260246000fd5b634e487b7160e01b600052601160045260246000fd5b6000600019821415620012b357620012b362001286565b5060010190565b6020808252602e908201527f496e697469616c697a61626c653a20636f6e747261637420697320616c72656160408201526d191e481a5b9a5d1a585b1a5e995960921b606082015260800190565b6020808252602b908201527f496e697469616c697a61626c653a20636f6e7472616374206973206e6f74206960408201526a6e697469616c697a696e6760a81b606082015260800190565b6000821982111562001369576200136962001286565b500190565b60208082526032908201527f4552433732313a207472616e7366657220746f206e6f6e20455243373231526560408201527131b2b4bb32b91034b6b83632b6b2b73a32b960711b606082015260800190565b600060018060a01b038087168352808616602084015250836040830152608060608301528251806080840152620013ff8160a085016020870162000ef5565b601f01601f19169190910160a00195945050505050565b6000602082840312156200142957600080fd5b81516001600160e01b0319811681146200144257600080fd5b9392505050565b600181811c908216806200145e57607f821691505b602082108114156200148057634e487b7160e01b600052602260045260246000fd5b50919050565b61386880620014966000396000f3fe608060405234801561001057600080fd5b50600436106102305760003560e01c806301ffc9a714610235578063059fb6f71461025d5780630653aca51461027257806306fdde03146102b4578063081812fc146102c9578063095ea7b3146102e957806316744607146102fc57806318160ddd1461030457806323b872dd146103165780632a55205a146103295780632fe388be1461035b5780633542aee21461036e5780633574a2dd1461038157806340c1d8a11461039457806342842e0e146103a75780635136dcc7146103ba57806356c022bb146103cd578063572b6c05146103e05780635a9b0b89146103f35780636352211e146104165780636f8b44b01461042957806370a082311461043c578063715018a61461044f5780637313cba9146104575780637885fdc71461045f5780637e9803421461048d5780638da5cb5b14610495578063938e3d7b1461049d578063948e2d53146104b057806395d89b41146104b857806399e0dd7c146104c0578063a22cb465146104d3578063a821d908146104e6578063a9852bfb146104f3578063b88d4fde14610506578063ba4695fd14610519578063c0ac998314610521578063c29de63014610529578063c87b56dd14610536578063cad96cca14610549578063d5abeb0114610569578063da74222814610572578063dbbc853b14610585578063e8a3d4851461058d578063e985e9c514610595578063ef60ceaf146105a8578063f2fde38b146105bb578063f384702f146105ce575b600080fd5b610248610243366004612b23565b6105db565b60405190151581526020015b60405180910390f35b61027061026b366004612c54565b6105ec565b005b610285610280366004612cb1565b61068c565b60408051825181526020808401516001600160a01b0316908201529181015161ffff1690820152606001610254565b6102bc610711565b6040516102549190612d22565b6102dc6102d7366004612cb1565b610720565b6040516102549190612d35565b6102706102f7366004612d49565b6107ad565b6102706108d0565b6012545b604051908152602001610254565b610270610324366004612d73565b61091e565b61033c610337366004612daf565b610956565b604080516001600160a01b039093168352602083019190915201610254565b610270610369366004612e33565b610a1b565b61027061037c366004612d49565b610b80565b61027061038f366004612f27565b610bcd565b6102706103a2366004612f6d565b610c1f565b6102706103b5366004612d73565b610dcc565b6102706103c836600461310b565b610de7565b6002546102dc906001600160a01b031681565b6102486103ee36600461317f565b610e81565b6103fb610e95565b60408051938452602084019290925290820152606001610254565b6102dc610424366004612cb1565b610fae565b610270610437366004612cb1565b611025565b61030861044a36600461317f565b6110ae565b610270611135565b6102bc611180565b60145461047f906001600160a01b03811690600160a01b900461ffff1682565b60405161025492919061319a565b610308611212565b6102dc61121e565b6102706104ab366004612f27565b611233565b610270611285565b6102bc6112d3565b6102706104ce366004612f27565b6112dd565b6102706104e13660046131b7565b611352565b6013546102489060ff1681565b610270610501366004612f27565b611364565b6102706105143660046131f3565b6113d9565b610270611412565b6102bc611460565b600f546102489060ff1681565b6102bc610544366004612cb1565b61146f565b61055c610557366004612cb1565b61147a565b604051610254919061326e565b61030860105481565b61027061058036600461317f565b611535565b6102bc611596565b6102bc6115a5565b6102486105a33660046132cf565b6115b4565b6102706105b63660046132f9565b6115c7565b6102706105c936600461317f565b611620565b6011546102489060ff1681565b60006105e682611702565b92915050565b60005b815181101561068657306001600160a01b03166323b872dd858585858151811061061b5761061b613311565b60200260200101516040518463ffffffff1660e01b815260040161064193929190613327565b600060405180830381600087803b15801561065b57600080fd5b505af115801561066f573d6000803e3d6000fd5b50505050808061067e90613361565b9150506105ef565b50505050565b60408051606081018252600080825260208201819052918101829052906106b460168461173e565b6000818152601560209081526040918290208251808401845290546001600160a01b03808216835261ffff600160a01b90920482168385019081528551606081018752968752925116928501929092525116908201529392505050565b606061071b61174a565b905090565b600061072b82611754565b6107915760405162461bcd60e51b815260206004820152602c60248201527f4552433732313a20617070726f76656420717565727920666f72206e6f6e657860448201526b34b9ba32b73a103a37b5b2b760a11b60648201526084015b60405180910390fd5b506000908152600760205260409020546001600160a01b031690565b60006107b882610fae565b9050806001600160a01b0316836001600160a01b031614156108265760405162461bcd60e51b815260206004820152602160248201527f4552433732313a20617070726f76616c20746f2063757272656e74206f776e656044820152603960f91b6064820152608401610788565b806001600160a01b0316610838611771565b6001600160a01b031614806108545750610854816105a3611771565b6108c15760405162461bcd60e51b815260206004820152603860248201527f4552433732313a20617070726f76652063616c6c6572206973206e6f74206f776044820152771b995c881b9bdc88185c1c1c9bdd995908199bdc88185b1b60421b6064820152608401610788565b6108cb838361177b565b505050565b6108d8611771565b6001600160a01b03166108e961121e565b6001600160a01b03161461090f5760405162461bcd60e51b81526004016107889061337c565b6011805460ff19166001179055565b61092f610929611771565b826117e9565b61094b5760405162461bcd60e51b8152600401610788906133b1565b6108cb8383836118b3565b60008281526015602052604081205481906001600160a01b0316156109bb576000848152601560205260409020546001600160a01b03811690612710906109a890600160a01b900461ffff1686613402565b6109b29190613437565b91509150610a14565b6014546001600160a01b0316158015906109e15750601454600160a01b900461ffff1615155b15610a0d576014546001600160a01b03811690612710906109a890600160a01b900461ffff1686613402565b5060009050805b9250929050565b8151835114610a665760405162461bcd60e51b815260206004820152601760248201527608ca49e9abea89ebe988a9c8ea890be9a92a69a82a8869604b1b6044820152606401610788565b8051835114610ab45760405162461bcd60e51b815260206004820152601a60248201527908ca49e9abea89e968a9cbe988a9c8ea890be9a92a69a82a886960331b6044820152606401610788565b60005b815181101561068657306001600160a01b03166323b872dd858381518110610ae157610ae1613311565b6020026020010151858481518110610afb57610afb613311565b6020026020010151858581518110610b1557610b15613311565b60200260200101516040518463ffffffff1660e01b8152600401610b3b93929190613327565b600060405180830381600087803b158015610b5557600080fd5b505af1158015610b69573d6000803e3d6000fd5b505050508080610b7890613361565b915050610ab7565b610b88611771565b6001600160a01b0316610b9961121e565b6001600160a01b031614610bbf5760405162461bcd60e51b81526004016107889061337c565b610bc98282611a3d565b5050565b610bd5611771565b6001600160a01b0316610be661121e565b6001600160a01b031614610c0c5760405162461bcd60e51b81526004016107889061337c565b8051610bc990600c906020840190612a74565b6000610c2b6001611aca565b90508015610c43576000805461ff0019166101001790555b8260c00151518360a001515114610c9a5760405162461bcd60e51b815260206004820152601b60248201527a4552433732312f494e56414c49445f494e495449414c5f4152475360281b6044820152606401610788565b610ca382611b5e565b610cba836000015184602001518560400151611bb9565b610ccc83606001518460800151611beb565b610cd98360e00151611c1c565b610ce1611c4c565b610ce9611c7b565b610cfd836101000151846101200151611caa565b610d0b836101400151611cdb565b610d13611d0b565b60e083015160105560005b8360a0015151811015610d8157610d6f8460a001518281518110610d4457610d44613311565b60200260200101518560c001518381518110610d6257610d62613311565b6020026020010151611a3d565b80610d7981613361565b915050610d1e565b5080156108cb576000805461ff0019169055604051600181527f7f26b83ff96e1f2b6a682f133852f6798a09c465da95921460cefb38474024989060200160405180910390a1505050565b6108cb838383604051806020016040528060008152506113d9565b610def611771565b6001600160a01b0316610e0061121e565b6001600160a01b031614610e265760405162461bcd60e51b81526004016107889061337c565b610bc98282808060200260200160405190810160405280939291908181526020016000905b82821015610e7757610e686060830286013681900381019061344b565b81526020019060010190610e4b565b5050505050611d3a565b6002546001600160a01b0391821691161490565b600080808080610ea3611771565b6001600160a01b031614610f2e57306370a08231610ebf611771565b6040518263ffffffff1660e01b8152600401610edb9190612d35565b60206040518083038186803b158015610ef357600080fd5b505afa158015610f07573d6000803e3d6000fd5b505050506040513d601f19601f82011682018060405250810190610f2b91906134af565b90505b601054306001600160a01b03166318160ddd6040518163ffffffff1660e01b815260040160206040518083038186803b158015610f6a57600080fd5b505afa158015610f7e573d6000803e3d6000fd5b505050506040513d601f19601f82011682018060405250810190610fa291906134af565b90959094509092509050565b6000818152600560205260408120546001600160a01b0316806105e65760405162461bcd60e51b815260206004820152602960248201527f4552433732313a206f776e657220717565727920666f72206e6f6e657869737460448201526832b73a103a37b5b2b760b91b6064820152608401610788565b61102d611771565b6001600160a01b031661103e61121e565b6001600160a01b0316146110645760405162461bcd60e51b81526004016107889061337c565b60115460ff16156110a95760405162461bcd60e51b815260206004820152600f60248201526e2120a9a2afaaa924afa32927ad22a760891b6044820152606401610788565b601055565b60006001600160a01b0382166111195760405162461bcd60e51b815260206004820152602a60248201527f4552433732313a2062616c616e636520717565727920666f7220746865207a65604482015269726f206164647265737360b01b6064820152608401610788565b506001600160a01b031660009081526006602052604090205490565b61113d611771565b6001600160a01b031661114e61121e565b6001600160a01b0316146111745760405162461bcd60e51b81526004016107889061337c565b61117e6000611b5e565b565b6060600c805461118f906134c8565b80601f01602080910402602001604051908101604052809291908181526020018280546111bb906134c8565b80156112085780601f106111dd57610100808354040283529160200191611208565b820191906000526020600020905b8154815290600101906020018083116111eb57829003601f168201915b5050505050905090565b600061071b6016611ee1565b6000546201000090046001600160a01b031690565b61123b611771565b6001600160a01b031661124c61121e565b6001600160a01b0316146112725760405162461bcd60e51b81526004016107889061337c565b8051610bc990600b906020840190612a74565b61128d611771565b6001600160a01b031661129e61121e565b6001600160a01b0316146112c45760405162461bcd60e51b81526004016107889061337c565b6013805460ff19166001179055565b606061071b611eeb565b6112e5611771565b6001600160a01b03166112f661121e565b6001600160a01b03161461131c5760405162461bcd60e51b81526004016107889061337c565b600f5460ff161561133f5760405162461bcd60e51b8152600401610788906134fd565b8051610bc990600d906020840190612a74565b610bc961135d611771565b8383611ef5565b61136c611771565b6001600160a01b031661137d61121e565b6001600160a01b0316146113a35760405162461bcd60e51b81526004016107889061337c565b600f5460ff16156113c65760405162461bcd60e51b8152600401610788906134fd565b8051610bc990600e906020840190612a74565b6113ea6113e4611771565b836117e9565b6114065760405162461bcd60e51b8152600401610788906133b1565b61068684848484611fc0565b61141a611771565b6001600160a01b031661142b61121e565b6001600160a01b0316146114515760405162461bcd60e51b81526004016107889061337c565b600f805460ff19166001179055565b6060600d805461118f906134c8565b60606105e682611ff3565b604080516001808252818301909252606091816020015b604080518082019091526000808252602082015281526020019060019003908161149157505060145481519192506001600160a01b03169082906000906114da576114da613311565b60209081029190910101516001600160a01b039190911690526014548151600160a01b90910461ffff1690829060009061151657611516613311565b6020908102919091018101516001600160601b03909216910152919050565b61153d611771565b6001600160a01b031661154e61121e565b6001600160a01b0316146115745760405162461bcd60e51b81526004016107889061337c565b600280546001600160a01b0319166001600160a01b0392909216919091179055565b6060600e805461118f906134c8565b6060600b805461118f906134c8565b60006115c083836120cf565b9392505050565b6115cf611771565b6001600160a01b03166115e061121e565b6001600160a01b0316146116065760405162461bcd60e51b81526004016107889061337c565b61161d61161836839003830183613528565b612133565b50565b611628611771565b6001600160a01b031661163961121e565b6001600160a01b03161461165f5760405162461bcd60e51b81526004016107889061337c565b6001600160a01b0381166116c45760405162461bcd60e51b815260206004820152602660248201527f4f776e61626c653a206e6577206f776e657220697320746865207a65726f206160448201526564647265737360d01b6064820152608401610788565b61161d81611b5e565b60006116d833610e81565b156116ea575060131936013560601c90565b503390565b3390565b6001600160a01b03163b151590565b60006301ffc9a760e01b6001600160e01b0319831614806105e65750506001600160e01b03191660009081526001602052604090205460ff1690565b60006115c083836121de565b606061071b612208565b6000908152600560205260409020546001600160a01b0316151590565b600061071b6116cd565b600081815260076020526040902080546001600160a01b0319166001600160a01b03841690811790915581906117b082610fae565b6001600160a01b03167f8c5be1e5ebec7d5bd14f71427d1e84f3dd0314c0f7b2291e5b200ac8c7c3b92560405160405180910390a45050565b60006117f482611754565b6118555760405162461bcd60e51b815260206004820152602c60248201527f4552433732313a206f70657261746f7220717565727920666f72206e6f6e657860448201526b34b9ba32b73a103a37b5b2b760a11b6064820152608401610788565b600061186083610fae565b9050806001600160a01b0316846001600160a01b03161480611887575061188781856115b4565b806118ab5750836001600160a01b03166118a084610720565b6001600160a01b0316145b949350505050565b826001600160a01b03166118c682610fae565b6001600160a01b03161461192a5760405162461bcd60e51b815260206004820152602560248201527f4552433732313a207472616e736665722066726f6d20696e636f72726563742060448201526437bbb732b960d91b6064820152608401610788565b6001600160a01b03821661198c5760405162461bcd60e51b8152602060048201526024808201527f4552433732313a207472616e7366657220746f20746865207a65726f206164646044820152637265737360e01b6064820152608401610788565b61199760008261177b565b6001600160a01b03831660009081526006602052604081208054600192906119c0908490613582565b90915550506001600160a01b03821660009081526006602052604081208054600192906119ee908490613599565b909155505060008181526005602052604080822080546001600160a01b0319166001600160a01b03868116918217909255915184939187169160008051602061381383398151915291a4505050565b60105481611a4a60125490565b611a549190613599565b1115611a975760405162461bcd60e51b8152602060048201526012602482015271455843454544535f4d41585f535550504c5960701b6044820152606401610788565b60005b818110156108cb57601254611aaf8482612217565b611ab7612231565b5080611ac281613361565b915050611a9a565b60008054610100900460ff1615611b18578160ff166001148015611af45750611af2306116f3565b155b611b105760405162461bcd60e51b8152600401610788906135b1565b506000919050565b60005460ff808416911610611b3f5760405162461bcd60e51b8152600401610788906135b1565b506000805460ff191660ff92909216919091179055600190565b919050565b600080546001600160a01b038381166201000081810262010000600160b01b0319851617855560405193049190911692909183917f8be0079c531659141344cd1fd0a4f28419497f9722a3daafe3b4186f6b6457e091a35050565b600054610100900460ff16611be05760405162461bcd60e51b8152600401610788906135ff565b6108cb838383612248565b600054610100900460ff16611c125760405162461bcd60e51b8152600401610788906135ff565b610bc982826122db565b600054610100900460ff16611c435760405162461bcd60e51b8152600401610788906135ff565b61161d81612377565b600054610100900460ff16611c735760405162461bcd60e51b8152600401610788906135ff565b61117e6123c3565b600054610100900460ff16611ca25760405162461bcd60e51b8152600401610788906135ff565b61117e6123fa565b600054610100900460ff16611cd15760405162461bcd60e51b8152600401610788906135ff565b610bc98282612431565b600054610100900460ff16611d025760405162461bcd60e51b8152600401610788906135ff565b61161d816124c1565b600054610100900460ff16611d325760405162461bcd60e51b8152600401610788906135ff565b61117e6124e8565b60005b8151811015610bc9576000828281518110611d5a57611d5a613311565b60200260200101519050612710816040015161ffff1610611d8d5760405162461bcd60e51b81526004016107889061364a565b60208101516001600160a01b0316611e06578051600090815260156020526040902080546001600160b01b03191690558051611dcb9060169061251f565b5080516040519081527fa2870857763bd9ae76c957f869f16b31c18dd3bb4c7b4d3a4496dc5c57c657f99060200160405180910390a1611ece565b6040805180820182526020808401516001600160a01b0390811683528484015161ffff90811683850190815286516000908152601590945294909220925183549451909216600160a01b026001600160b01b03199094169116179190911790558051611e749060169061252b565b50805160208083015160408085015181519485526001600160a01b039092169284019290925261ffff1682820152517f389b70fb0887f01e83784eb1c4c589f740eca53b00ed0f45e41db5d079719abb9181900360600190a15b5080611ed981613361565b915050611d3d565b60006105e6825490565b606061071b612537565b816001600160a01b0316836001600160a01b03161415611f535760405162461bcd60e51b815260206004820152601960248201527822a9219b99189d1030b8383937bb32903a379031b0b63632b960391b6044820152606401610788565b6001600160a01b03838116600081815260086020908152604080832094871680845294825291829020805460ff191686151590811790915591519182527f17307eab39ab6107e8899845ad3d59bd9653f200f220920489ca2b5937696c31910160405180910390a3505050565b611fcb8484846118b3565b611fd784848484612546565b6106865760405162461bcd60e51b81526004016107889061366f565b60606000600d8054612004906134c8565b90501161209b57600c8054612018906134c8565b80601f0160208091040260200160405190810160405280929190818152602001828054612044906134c8565b80156120915780601f1061206657610100808354040283529160200191612091565b820191906000526020600020905b81548152906001019060200180831161207457829003601f168201915b50505050506105e6565b600d6120a683612661565b600e6040516020016120ba9392919061375b565b60405160208183030381529060405292915050565b60135460009060ff16612105576120e461121e565b6001600160a01b0316826001600160a01b03161415612105575060016105e6565b6001600160a01b0380841660009081526008602090815260408083209386168352929052205460ff166115c0565b612710816020015161ffff161061215c5760405162461bcd60e51b81526004016107889061364a565b60408051808201825282516001600160a01b03168082526020808501805161ffff1691909301819052601480546001600160b01b031916909217600160a01b9091021790558251905191517f2c5ea6e4103e78cb101e796fb2dace540362fc542cbff5145eaa24af7dd8fe41926121d3929161319a565b60405180910390a150565b60008260000182815481106121f5576121f5613311565b9060005260206000200154905092915050565b60606009805461118f906134c8565b610bc982826040518060200160405280600081525061275e565b6012805490600061224183613361565b9190505550565b600054610100900460ff1661226f5760405162461bcd60e51b8152600401610788906135ff565b8251612282906009906020860190612a74565b50815161229690600a906020850190612a74565b5080516122aa90600b906020840190612a74565b506122bb633d96f4ff60e11b612791565b6122cb6380ac58cd60e01b612791565b6108cb635b5e139f60e01b612791565b600054610100900460ff166123025760405162461bcd60e51b8152600401610788906135ff565b815161231590600c906020850190612a74565b50805161232990600d906020840190612a74565b5060408051808201909152600580825264173539b7b760d91b602090920191825261235691600e91612a74565b50612367631f2f406b60e01b612791565b610bc9635b5e139f60e01b612791565b600054610100900460ff1661239e5760405162461bcd60e51b8152600401610788906135ff565b60108190556123b36330f487b560e11b612791565b61161d6380ac58cd60e01b612791565b600054610100900460ff166123ea5760405162461bcd60e51b8152600401610788906135ff565b61117e631aa1577160e11b612791565b600054610100900460ff166124215760405162461bcd60e51b8152600401610788906135ff565b61117e63948e2d5360e01b612791565b600054610100900460ff166124585760405162461bcd60e51b8152600401610788906135ff565b612468633a47bf5160e11b612791565b61247863152a902d60e11b612791565b61248863c69dbd8f60e01b612791565b61249863656cb66560e11b612791565b604080518082019091526001600160a01b038316815261ffff821660208201526108cb81612133565b600054610100900460ff166115745760405162461bcd60e51b8152600401610788906135ff565b600054610100900460ff1661250f5760405162461bcd60e51b8152600401610788906135ff565b61117e632a7c3e4960e01b612791565b60006115c08383612812565b60006115c08383612905565b6060600a805461118f906134c8565b600061255a846001600160a01b03166116f3565b1561265657836001600160a01b031663150b7a02612576611771565b8786866040518563ffffffff1660e01b8152600401612598949392919061378e565b602060405180830381600087803b1580156125b257600080fd5b505af19250505080156125e2575060408051601f3d908101601f191682019092526125df918101906137cb565b60015b61263c573d808015612610576040519150601f19603f3d011682016040523d82523d6000602084013e612615565b606091505b5080516126345760405162461bcd60e51b81526004016107889061366f565b805181602001fd5b6001600160e01b031916630a85bd0160e11b1490506118ab565b506001949350505050565b6060816126855750506040805180820190915260018152600360fc1b602082015290565b8160005b81156126af578061269981613361565b91506126a89050600a83613437565b9150612689565b6000816001600160401b038111156126c9576126c9612b57565b6040519080825280601f01601f1916602001820160405280156126f3576020820181803683370190505b5090505b84156118ab57612708600183613582565b9150612715600a866137e8565b612720906030613599565b60f81b81838151811061273557612735613311565b60200101906001600160f81b031916908160001a905350612757600a86613437565b94506126f7565b6127688383612954565b6127756000848484612546565b6108cb5760405162461bcd60e51b81526004016107889061366f565b6001600160e01b031980821614156127ea5760405162461bcd60e51b815260206004820152601c60248201527b115490cc4d8d4e881a5b9d985b1a59081a5b9d195c999858d9481a5960221b6044820152606401610788565b6001600160e01b0319166000908152600160208190526040909120805460ff19169091179055565b600081815260018301602052604081205480156128fb576000612836600183613582565b855490915060009061284a90600190613582565b90508181146128af57600086600001828154811061286a5761286a613311565b906000526020600020015490508087600001848154811061288d5761288d613311565b6000918252602080832090910192909255918252600188019052604090208390555b85548690806128c0576128c06137fc565b6001900381819060005260206000200160009055905585600101600086815260200190815260200160002060009055600193505050506105e6565b60009150506105e6565b600081815260018301602052604081205461294c575081546001818101845560008481526020808220909301849055845484825282860190935260409020919091556105e6565b5060006105e6565b6001600160a01b0382166129aa5760405162461bcd60e51b815260206004820181905260248201527f4552433732313a206d696e7420746f20746865207a65726f20616464726573736044820152606401610788565b6129b381611754565b156129ff5760405162461bcd60e51b815260206004820152601c60248201527b115490cdcc8c4e881d1bdad95b88185b1c9958591e481b5a5b9d195960221b6044820152606401610788565b6001600160a01b0382166000908152600660205260408120805460019290612a28908490613599565b909155505060008181526005602052604080822080546001600160a01b0319166001600160a01b0386169081179091559051839290600080516020613813833981519152908290a45050565b828054612a80906134c8565b90600052602060002090601f016020900481019282612aa25760008555612ae8565b82601f10612abb57805160ff1916838001178555612ae8565b82800160010185558215612ae8579182015b82811115612ae8578251825591602001919060010190612acd565b50612af4929150612af8565b5090565b5b80821115612af45760008155600101612af9565b6001600160e01b03198116811461161d57600080fd5b600060208284031215612b3557600080fd5b81356115c081612b0d565b80356001600160a01b0381168114611b5957600080fd5b634e487b7160e01b600052604160045260246000fd5b60405161016081016001600160401b0381118282101715612b9057612b90612b57565b60405290565b604051601f8201601f191681016001600160401b0381118282101715612bbe57612bbe612b57565b604052919050565b60006001600160401b03821115612bdf57612bdf612b57565b5060051b60200190565b600082601f830112612bfa57600080fd5b81356020612c0f612c0a83612bc6565b612b96565b82815260059290921b84018101918181019086841115612c2e57600080fd5b8286015b84811015612c495780358352918301918301612c32565b509695505050505050565b600080600060608486031215612c6957600080fd5b612c7284612b40565b9250612c8060208501612b40565b915060408401356001600160401b03811115612c9b57600080fd5b612ca786828701612be9565b9150509250925092565b600060208284031215612cc357600080fd5b5035919050565b60005b83811015612ce5578181015183820152602001612ccd565b838111156106865750506000910152565b60008151808452612d0e816020860160208601612cca565b601f01601f19169290920160200192915050565b6020815260006115c06020830184612cf6565b6001600160a01b0391909116815260200190565b60008060408385031215612d5c57600080fd5b612d6583612b40565b946020939093013593505050565b600080600060608486031215612d8857600080fd5b612d9184612b40565b9250612d9f60208501612b40565b9150604084013590509250925092565b60008060408385031215612dc257600080fd5b50508035926020909101359150565b600082601f830112612de257600080fd5b81356020612df2612c0a83612bc6565b82815260059290921b84018101918181019086841115612e1157600080fd5b8286015b84811015612c4957612e2681612b40565b8352918301918301612e15565b600080600060608486031215612e4857600080fd5b83356001600160401b0380821115612e5f57600080fd5b612e6b87838801612dd1565b94506020860135915080821115612e8157600080fd5b612e8d87838801612dd1565b93506040860135915080821115612ea357600080fd5b50612ca786828701612be9565b60006001600160401b03831115612ec957612ec9612b57565b612edc601f8401601f1916602001612b96565b9050828152838383011115612ef057600080fd5b828260208301376000602084830101529392505050565b600082601f830112612f1857600080fd5b6115c083833560208501612eb0565b600060208284031215612f3957600080fd5b81356001600160401b03811115612f4f57600080fd5b6118ab84828501612f07565b803561ffff81168114611b5957600080fd5b60008060408385031215612f8057600080fd5b82356001600160401b0380821115612f9757600080fd5b908401906101608287031215612fac57600080fd5b612fb4612b6d565b823582811115612fc357600080fd5b612fcf88828601612f07565b825250602083013582811115612fe457600080fd5b612ff088828601612f07565b60208301525060408301358281111561300857600080fd5b61301488828601612f07565b60408301525060608301358281111561302c57600080fd5b61303888828601612f07565b60608301525060808301358281111561305057600080fd5b61305c88828601612f07565b60808301525060a08301358281111561307457600080fd5b61308088828601612dd1565b60a08301525060c08301358281111561309857600080fd5b6130a488828601612be9565b60c08301525060e083013560e082015261010091506130c4828401612b40565b8282015261012091506130d8828401612f5b565b8282015261014091506130ec828401612b40565b8282015280945050505061310260208401612b40565b90509250929050565b6000806020838503121561311e57600080fd5b82356001600160401b038082111561313557600080fd5b818501915085601f83011261314957600080fd5b81358181111561315857600080fd5b86602060608302850101111561316d57600080fd5b60209290920196919550909350505050565b60006020828403121561319157600080fd5b6115c082612b40565b6001600160a01b0392909216825261ffff16602082015260400190565b600080604083850312156131ca57600080fd5b6131d383612b40565b9150602083013580151581146131e857600080fd5b809150509250929050565b6000806000806080858703121561320957600080fd5b61321285612b40565b935061322060208601612b40565b92506040850135915060608501356001600160401b0381111561324257600080fd5b8501601f8101871361325357600080fd5b61326287823560208401612eb0565b91505092959194509250565b602080825282518282018190526000919060409081850190868401855b828110156132c257815180516001600160a01b031685528601516001600160601b031686850152928401929085019060010161328b565b5091979650505050505050565b600080604083850312156132e257600080fd5b6132eb83612b40565b915061310260208401612b40565b60006040828403121561330b57600080fd5b50919050565b634e487b7160e01b600052603260045260246000fd5b6001600160a01b039384168152919092166020820152604081019190915260600190565b634e487b7160e01b600052601160045260246000fd5b60006000198214156133755761337561334b565b5060010190565b6020808252818101527f4f776e61626c653a2063616c6c6572206973206e6f7420746865206f776e6572604082015260600190565b60208082526031908201527f4552433732313a207472616e736665722063616c6c6572206973206e6f74206f6040820152701ddb995c881b9bdc88185c1c1c9bdd9959607a1b606082015260800190565b600081600019048311821515161561341c5761341c61334b565b500290565b634e487b7160e01b600052601260045260246000fd5b60008261344657613446613421565b500490565b60006060828403121561345d57600080fd5b604051606081016001600160401b038111828210171561347f5761347f612b57565b6040528235815261349260208401612b40565b60208201526134a360408401612f5b565b60408201529392505050565b6000602082840312156134c157600080fd5b5051919050565b600181811c908216806134dc57607f821691505b6020821081141561330b57634e487b7160e01b600052602260045260246000fd5b6020808252601190820152702a27a5a2a729afaaa924afa32927ad22a760791b604082015260600190565b60006040828403121561353a57600080fd5b604080519081016001600160401b038111828210171561355c5761355c612b57565b60405261356883612b40565b815261357660208401612f5b565b60208201529392505050565b6000828210156135945761359461334b565b500390565b600082198211156135ac576135ac61334b565b500190565b6020808252602e908201527f496e697469616c697a61626c653a20636f6e747261637420697320616c72656160408201526d191e481a5b9a5d1a585b1a5e995960921b606082015260800190565b6020808252602b908201527f496e697469616c697a61626c653a20636f6e7472616374206973206e6f74206960408201526a6e697469616c697a696e6760a81b606082015260800190565b6020808252600b908201526a496e76616c69642062707360a81b604082015260600190565b60208082526032908201527f4552433732313a207472616e7366657220746f206e6f6e20455243373231526560408201527131b2b4bb32b91034b6b83632b6b2b73a32b960711b606082015260800190565b8054600090600181811c90808316806136db57607f831692505b60208084108214156136fd57634e487b7160e01b600052602260045260246000fd5b81801561371157600181146137225761374f565b60ff1986168952848901965061374f565b60008881526020902060005b868110156137475781548b82015290850190830161372e565b505084890196505b50505050505092915050565b600061376782866136c1565b8451613777818360208901612cca565b613783818301866136c1565b979650505050505050565b6001600160a01b03858116825284166020820152604081018390526080606082018190526000906137c190830184612cf6565b9695505050505050565b6000602082840312156137dd57600080fd5b81516115c081612b0d565b6000826137f7576137f7613421565b500690565b634e487b7160e01b600052603160045260246000fdfeddf252ad1be2c89b69c2b068fc378daa952ba7f163c4a11628f55a4df523b3efa264697066735822122097fdafbfb7e79a3c8ab912a2579029a9d5769314d480fa81f3bc45f56e909a8464736f6c63430008090033",
  "devdoc": {
    "kind": "dev",
    "methods": {
      "approve(address,uint256)": {
        "details": "See {IERC721-approve}."
      },
      "balanceOf(address)": {
        "details": "See {IERC721-balanceOf}."
      },
      "getApproved(uint256)": {
        "details": "See {IERC721-getApproved}."
      },
      "getTokenRoyaltiesCount()": {
        "details": "See {IEIP2981RoyaltyOverride-getTokenRoyaltiesCount}."
      },
      "getTokenRoyaltyByIndex(uint256)": {
        "details": "See {IEIP2981RoyaltyOverride-getTokenRoyaltyByIndex}."
      },
      "owner()": {
        "details": "Returns the address of the current owner."
      },
      "ownerOf(uint256)": {
        "details": "See {IERC721-ownerOf}."
      },
      "renounceOwnership()": {
        "details": "Leaves the contract without owner. It will not be possible to call `onlyOwner` functions anymore. Can only be called by the current owner. NOTE: Renouncing ownership will leave the contract without an owner, thereby removing any functionality that is only available to the owner."
      },
      "royaltyInfo(uint256,uint256)": {
        "details": "See {IEIP2981RoyaltyOverride-royaltyInfo}."
      },
      "safeTransferFrom(address,address,uint256)": {
        "details": "See {IERC721-safeTransferFrom}."
      },
      "safeTransferFrom(address,address,uint256,bytes)": {
        "details": "See {IERC721-safeTransferFrom}."
      },
      "setApprovalForAll(address,bool)": {
        "details": "See {IERC721-setApprovalForAll}."
      },
      "transferFrom(address,address,uint256)": {
        "details": "See {IERC721-transferFrom}."
      },
      "transferOwnership(address)": {
        "details": "Transfers ownership of the contract to a new account (`newOwner`). Can only be called by the current owner."
      }
    },
    "version": 1
  },
  "userdoc": {
    "kind": "user",
    "methods": {
      "transferFromBulk(address,address,uint256[])": {
        "notice": "Useful for when user wants to return tokens to get a refund, or when they want to transfer lots of tokens by paying gas fee only once."
      },
      "transferFromBulk(address[],address[],uint256[])": {
        "notice": "Useful for transferring multiple tokens from/to multiple addresses."
      }
    },
    "version": 1
  },
  "storageLayout": {
    "storage": [
      {
        "astId": 886,
        "contract": "contracts/collections/ERC721/presets/ERC721ManagedPrefixedCollection.sol:ERC721ManagedPrefixedCollection",
        "label": "_initialized",
        "offset": 0,
        "slot": "0",
        "type": "t_uint8"
      },
      {
        "astId": 889,
        "contract": "contracts/collections/ERC721/presets/ERC721ManagedPrefixedCollection.sol:ERC721ManagedPrefixedCollection",
        "label": "_initializing",
        "offset": 1,
        "slot": "0",
        "type": "t_bool"
      },
      {
        "astId": 782,
        "contract": "contracts/collections/ERC721/presets/ERC721ManagedPrefixedCollection.sol:ERC721ManagedPrefixedCollection",
        "label": "_owner",
        "offset": 2,
        "slot": "0",
        "type": "t_address"
      },
      {
        "astId": 4693,
        "contract": "contracts/collections/ERC721/presets/ERC721ManagedPrefixedCollection.sol:ERC721ManagedPrefixedCollection",
        "label": "_supportedInterfaces",
        "offset": 0,
        "slot": "1",
        "type": "t_mapping(t_bytes4,t_bool)"
      },
      {
        "astId": 11633,
        "contract": "contracts/collections/ERC721/presets/ERC721ManagedPrefixedCollection.sol:ERC721ManagedPrefixedCollection",
        "label": "_trustedForwarder",
        "offset": 0,
        "slot": "2",
        "type": "t_address"
      },
      {
        "astId": 1912,
        "contract": "contracts/collections/ERC721/presets/ERC721ManagedPrefixedCollection.sol:ERC721ManagedPrefixedCollection",
        "label": "_name",
        "offset": 0,
        "slot": "3",
        "type": "t_string_storage"
      },
      {
        "astId": 1914,
        "contract": "contracts/collections/ERC721/presets/ERC721ManagedPrefixedCollection.sol:ERC721ManagedPrefixedCollection",
        "label": "_symbol",
        "offset": 0,
        "slot": "4",
        "type": "t_string_storage"
      },
      {
        "astId": 1918,
        "contract": "contracts/collections/ERC721/presets/ERC721ManagedPrefixedCollection.sol:ERC721ManagedPrefixedCollection",
        "label": "_owners",
        "offset": 0,
        "slot": "5",
        "type": "t_mapping(t_uint256,t_address)"
      },
      {
        "astId": 1922,
        "contract": "contracts/collections/ERC721/presets/ERC721ManagedPrefixedCollection.sol:ERC721ManagedPrefixedCollection",
        "label": "_balances",
        "offset": 0,
        "slot": "6",
        "type": "t_mapping(t_address,t_uint256)"
      },
      {
        "astId": 1926,
        "contract": "contracts/collections/ERC721/presets/ERC721ManagedPrefixedCollection.sol:ERC721ManagedPrefixedCollection",
        "label": "_tokenApprovals",
        "offset": 0,
        "slot": "7",
        "type": "t_mapping(t_uint256,t_address)"
      },
      {
        "astId": 1932,
        "contract": "contracts/collections/ERC721/presets/ERC721ManagedPrefixedCollection.sol:ERC721ManagedPrefixedCollection",
        "label": "_operatorApprovals",
        "offset": 0,
        "slot": "8",
        "type": "t_mapping(t_address,t_mapping(t_address,t_bool))"
      },
      {
        "astId": 6078,
        "contract": "contracts/collections/ERC721/presets/ERC721ManagedPrefixedCollection.sol:ERC721ManagedPrefixedCollection",
        "label": "_name",
        "offset": 0,
        "slot": "9",
        "type": "t_string_storage"
      },
      {
        "astId": 6080,
        "contract": "contracts/collections/ERC721/presets/ERC721ManagedPrefixedCollection.sol:ERC721ManagedPrefixedCollection",
        "label": "_symbol",
        "offset": 0,
        "slot": "10",
        "type": "t_string_storage"
      },
      {
        "astId": 6082,
        "contract": "contracts/collections/ERC721/presets/ERC721ManagedPrefixedCollection.sol:ERC721ManagedPrefixedCollection",
        "label": "_contractURI",
        "offset": 0,
        "slot": "11",
        "type": "t_string_storage"
      },
      {
        "astId": 7343,
        "contract": "contracts/collections/ERC721/presets/ERC721ManagedPrefixedCollection.sol:ERC721ManagedPrefixedCollection",
        "label": "_placeholderURI",
        "offset": 0,
        "slot": "12",
        "type": "t_string_storage"
      },
      {
        "astId": 7345,
        "contract": "contracts/collections/ERC721/presets/ERC721ManagedPrefixedCollection.sol:ERC721ManagedPrefixedCollection",
        "label": "_tokenURIPrefix",
        "offset": 0,
        "slot": "13",
        "type": "t_string_storage"
      },
      {
        "astId": 7347,
        "contract": "contracts/collections/ERC721/presets/ERC721ManagedPrefixedCollection.sol:ERC721ManagedPrefixedCollection",
        "label": "_tokenURISuffix",
        "offset": 0,
        "slot": "14",
        "type": "t_string_storage"
      },
      {
        "astId": 7349,
        "contract": "contracts/collections/ERC721/presets/ERC721ManagedPrefixedCollection.sol:ERC721ManagedPrefixedCollection",
        "label": "tokenURIFrozen",
        "offset": 0,
        "slot": "15",
        "type": "t_bool"
      },
      {
        "astId": 5696,
        "contract": "contracts/collections/ERC721/presets/ERC721ManagedPrefixedCollection.sol:ERC721ManagedPrefixedCollection",
        "label": "maxSupply",
        "offset": 0,
        "slot": "16",
        "type": "t_uint256"
      },
      {
        "astId": 5698,
        "contract": "contracts/collections/ERC721/presets/ERC721ManagedPrefixedCollection.sol:ERC721ManagedPrefixedCollection",
        "label": "maxSupplyFrozen",
        "offset": 0,
        "slot": "17",
        "type": "t_bool"
      },
      {
        "astId": 5701,
        "contract": "contracts/collections/ERC721/presets/ERC721ManagedPrefixedCollection.sol:ERC721ManagedPrefixedCollection",
        "label": "_currentTokenId",
        "offset": 0,
        "slot": "18",
        "type": "t_uint256"
      },
      {
        "astId": 6734,
        "contract": "contracts/collections/ERC721/presets/ERC721ManagedPrefixedCollection.sol:ERC721ManagedPrefixedCollection",
        "label": "managementPowerRevoked",
        "offset": 0,
        "slot": "19",
        "type": "t_bool"
      },
      {
        "astId": 86,
        "contract": "contracts/collections/ERC721/presets/ERC721ManagedPrefixedCollection.sol:ERC721ManagedPrefixedCollection",
        "label": "defaultRoyalty",
        "offset": 0,
        "slot": "20",
        "type": "t_struct(TokenRoyalty)28_storage"
      },
      {
        "astId": 91,
        "contract": "contracts/collections/ERC721/presets/ERC721ManagedPrefixedCollection.sol:ERC721ManagedPrefixedCollection",
        "label": "_tokenRoyalties",
        "offset": 0,
        "slot": "21",
        "type": "t_mapping(t_uint256,t_struct(TokenRoyalty)28_storage)"
      },
      {
        "astId": 94,
        "contract": "contracts/collections/ERC721/presets/ERC721ManagedPrefixedCollection.sol:ERC721ManagedPrefixedCollection",
        "label": "_tokensWithRoyalties",
        "offset": 0,
        "slot": "22",
        "type": "t_struct(UintSet)5526_storage"
      }
    ],
    "types": {
      "t_address": {
        "encoding": "inplace",
        "label": "address",
        "numberOfBytes": "20"
      },
      "t_array(t_bytes32)dyn_storage": {
        "base": "t_bytes32",
        "encoding": "dynamic_array",
        "label": "bytes32[]",
        "numberOfBytes": "32"
      },
      "t_bool": {
        "encoding": "inplace",
        "label": "bool",
        "numberOfBytes": "1"
      },
      "t_bytes32": {
        "encoding": "inplace",
        "label": "bytes32",
        "numberOfBytes": "32"
      },
      "t_bytes4": {
        "encoding": "inplace",
        "label": "bytes4",
        "numberOfBytes": "4"
      },
      "t_mapping(t_address,t_bool)": {
        "encoding": "mapping",
        "key": "t_address",
        "label": "mapping(address => bool)",
        "numberOfBytes": "32",
        "value": "t_bool"
      },
      "t_mapping(t_address,t_mapping(t_address,t_bool))": {
        "encoding": "mapping",
        "key": "t_address",
        "label": "mapping(address => mapping(address => bool))",
        "numberOfBytes": "32",
        "value": "t_mapping(t_address,t_bool)"
      },
      "t_mapping(t_address,t_uint256)": {
        "encoding": "mapping",
        "key": "t_address",
        "label": "mapping(address => uint256)",
        "numberOfBytes": "32",
        "value": "t_uint256"
      },
      "t_mapping(t_bytes32,t_uint256)": {
        "encoding": "mapping",
        "key": "t_bytes32",
        "label": "mapping(bytes32 => uint256)",
        "numberOfBytes": "32",
        "value": "t_uint256"
      },
      "t_mapping(t_bytes4,t_bool)": {
        "encoding": "mapping",
        "key": "t_bytes4",
        "label": "mapping(bytes4 => bool)",
        "numberOfBytes": "32",
        "value": "t_bool"
      },
      "t_mapping(t_uint256,t_address)": {
        "encoding": "mapping",
        "key": "t_uint256",
        "label": "mapping(uint256 => address)",
        "numberOfBytes": "32",
        "value": "t_address"
      },
      "t_mapping(t_uint256,t_struct(TokenRoyalty)28_storage)": {
        "encoding": "mapping",
        "key": "t_uint256",
        "label": "mapping(uint256 => struct IEIP2981RoyaltyOverride.TokenRoyalty)",
        "numberOfBytes": "32",
        "value": "t_struct(TokenRoyalty)28_storage"
      },
      "t_string_storage": {
        "encoding": "bytes",
        "label": "string",
        "numberOfBytes": "32"
      },
      "t_struct(Set)5068_storage": {
        "encoding": "inplace",
        "label": "struct EnumerableSet.Set",
        "members": [
          {
            "astId": 5063,
            "contract": "contracts/collections/ERC721/presets/ERC721ManagedPrefixedCollection.sol:ERC721ManagedPrefixedCollection",
            "label": "_values",
            "offset": 0,
            "slot": "0",
            "type": "t_array(t_bytes32)dyn_storage"
          },
          {
            "astId": 5067,
            "contract": "contracts/collections/ERC721/presets/ERC721ManagedPrefixedCollection.sol:ERC721ManagedPrefixedCollection",
            "label": "_indexes",
            "offset": 0,
            "slot": "1",
            "type": "t_mapping(t_bytes32,t_uint256)"
          }
        ],
        "numberOfBytes": "64"
      },
      "t_struct(TokenRoyalty)28_storage": {
        "encoding": "inplace",
        "label": "struct IEIP2981RoyaltyOverride.TokenRoyalty",
        "members": [
          {
            "astId": 25,
            "contract": "contracts/collections/ERC721/presets/ERC721ManagedPrefixedCollection.sol:ERC721ManagedPrefixedCollection",
            "label": "recipient",
            "offset": 0,
            "slot": "0",
            "type": "t_address"
          },
          {
            "astId": 27,
            "contract": "contracts/collections/ERC721/presets/ERC721ManagedPrefixedCollection.sol:ERC721ManagedPrefixedCollection",
            "label": "bps",
            "offset": 20,
            "slot": "0",
            "type": "t_uint16"
          }
        ],
        "numberOfBytes": "32"
      },
      "t_struct(UintSet)5526_storage": {
        "encoding": "inplace",
        "label": "struct EnumerableSet.UintSet",
        "members": [
          {
            "astId": 5525,
            "contract": "contracts/collections/ERC721/presets/ERC721ManagedPrefixedCollection.sol:ERC721ManagedPrefixedCollection",
            "label": "_inner",
            "offset": 0,
            "slot": "0",
            "type": "t_struct(Set)5068_storage"
          }
        ],
        "numberOfBytes": "64"
      },
      "t_uint16": {
        "encoding": "inplace",
        "label": "uint16",
        "numberOfBytes": "2"
      },
      "t_uint256": {
        "encoding": "inplace",
        "label": "uint256",
        "numberOfBytes": "32"
      },
      "t_uint8": {
        "encoding": "inplace",
        "label": "uint8",
        "numberOfBytes": "1"
      }
    }
  }
}