{
  "address": "0xBB0AA646E8D63d920a7Ab1C96Ba082cbF075DcDA",
  "abi": [
    {
      "inputs": [
        {
          "components": [
            {
              "internalType": "string",
              "name": "name",
              "type": "string"
            },
            {
              "internalType": "string",
              "name": "symbol",
              "type": "string"
            },
            {
              "internalType": "string",
              "name": "contractURI",
              "type": "string"
            },
            {
              "internalType": "string",
              "name": "placeholderURI",
              "type": "string"
            },
            {
              "internalType": "string",
              "name": "tokenURIPrefix",
              "type": "string"
            },
            {
              "internalType": "uint256",
              "name": "maxSupply",
              "type": "uint256"
            },
            {
              "components": [
                {
                  "internalType": "uint256",
                  "name": "start",
                  "type": "uint256"
                },
                {
                  "internalType": "uint256",
                  "name": "end",
                  "type": "uint256"
                },
                {
                  "internalType": "address",
                  "name": "currency",
                  "type": "address"
                },
                {
                  "internalType": "uint256",
                  "name": "price",
                  "type": "uint256"
                },
                {
                  "internalType": "uint256",
                  "name": "maxPerWallet",
                  "type": "uint256"
                },
                {
                  "internalType": "bytes32",
                  "name": "merkleRoot",
                  "type": "bytes32"
                },
                {
                  "internalType": "uint256",
                  "name": "reserved",
                  "type": "uint256"
                },
                {
                  "internalType": "uint256",
                  "name": "maxAllocation",
                  "type": "uint256"
                }
              ],
              "internalType": "struct IERC721TieringExtension.Tier[]",
              "name": "tiers",
              "type": "tuple[]"
            },
            {
              "internalType": "address",
              "name": "defaultRoyaltyAddress",
              "type": "address"
            },
            {
              "internalType": "uint16",
              "name": "defaultRoyaltyBps",
              "type": "uint16"
            },
            {
              "internalType": "address",
              "name": "proceedsRecipient",
              "type": "address"
            },
            {
              "internalType": "address",
              "name": "trustedForwarder",
              "type": "address"
            },
            {
              "internalType": "enum LicenseVersion",
              "name": "licenseVersion",
              "type": "uint8"
            }
          ],
          "internalType": "struct ERC721ATieredSalesCollection.Config",
          "name": "config",
          "type": "tuple"
        }
      ],
      "stateMutability": "nonpayable",
      "type": "constructor"
    },
    {
      "inputs": [],
      "name": "ApprovalCallerNotOwnerNorApproved",
      "type": "error"
    },
    {
      "inputs": [],
      "name": "ApprovalQueryForNonexistentToken",
      "type": "error"
    },
    {
      "inputs": [],
      "name": "ApproveToCaller",
      "type": "error"
    },
    {
      "inputs": [],
      "name": "BalanceQueryForZeroAddress",
      "type": "error"
    },
    {
      "inputs": [],
      "name": "MintERC2309QuantityExceedsLimit",
      "type": "error"
    },
    {
      "inputs": [],
      "name": "MintToZeroAddress",
      "type": "error"
    },
    {
      "inputs": [],
      "name": "MintZeroQuantity",
      "type": "error"
    },
    {
      "inputs": [],
      "name": "OwnerQueryForNonexistentToken",
      "type": "error"
    },
    {
      "inputs": [],
      "name": "OwnershipNotInitializedForExtraData",
      "type": "error"
    },
    {
      "inputs": [],
      "name": "TransferCallerNotOwnerNorApproved",
      "type": "error"
    },
    {
      "inputs": [],
      "name": "TransferFromIncorrectOwner",
      "type": "error"
    },
    {
      "inputs": [],
      "name": "TransferToNonERC721ReceiverImplementer",
      "type": "error"
    },
    {
      "inputs": [],
      "name": "TransferToZeroAddress",
      "type": "error"
    },
    {
      "inputs": [],
      "name": "URIQueryForNonexistentToken",
      "type": "error"
    },
    {
      "anonymous": false,
      "inputs": [
        {
          "indexed": true,
          "internalType": "address",
          "name": "owner",
          "type": "address"
        },
        {
          "indexed": true,
          "internalType": "address",
          "name": "approved",
          "type": "address"
        },
        {
          "indexed": true,
          "internalType": "uint256",
          "name": "tokenId",
          "type": "uint256"
        }
      ],
      "name": "Approval",
      "type": "event"
    },
    {
      "anonymous": false,
      "inputs": [
        {
          "indexed": true,
          "internalType": "address",
          "name": "owner",
          "type": "address"
        },
        {
          "indexed": true,
          "internalType": "address",
          "name": "operator",
          "type": "address"
        },
        {
          "indexed": false,
          "internalType": "bool",
          "name": "approved",
          "type": "bool"
        }
      ],
      "name": "ApprovalForAll",
      "type": "event"
    },
    {
      "anonymous": false,
      "inputs": [
        {
          "indexed": true,
          "internalType": "uint256",
          "name": "fromTokenId",
          "type": "uint256"
        },
        {
          "indexed": false,
          "internalType": "uint256",
          "name": "toTokenId",
          "type": "uint256"
        },
        {
          "indexed": true,
          "internalType": "address",
          "name": "from",
          "type": "address"
        },
        {
          "indexed": true,
          "internalType": "address",
          "name": "to",
          "type": "address"
        }
      ],
      "name": "ConsecutiveTransfer",
      "type": "event"
    },
    {
      "anonymous": false,
      "inputs": [
        {
          "indexed": false,
          "internalType": "address",
          "name": "recipient",
          "type": "address"
        },
        {
          "indexed": false,
          "internalType": "uint16",
          "name": "bps",
          "type": "uint16"
        }
      ],
      "name": "DefaultRoyaltySet",
      "type": "event"
    },
    {
      "anonymous": false,
      "inputs": [
        {
          "indexed": false,
          "internalType": "uint8",
          "name": "version",
          "type": "uint8"
        }
      ],
      "name": "Initialized",
      "type": "event"
    },
    {
      "anonymous": false,
      "inputs": [
        {
          "indexed": true,
          "internalType": "address",
          "name": "previousOwner",
          "type": "address"
        },
        {
          "indexed": true,
          "internalType": "address",
          "name": "newOwner",
          "type": "address"
        }
      ],
      "name": "OwnershipTransferred",
      "type": "event"
    },
    {
      "anonymous": false,
      "inputs": [
        {
          "indexed": true,
          "internalType": "bytes32",
          "name": "role",
          "type": "bytes32"
        },
        {
          "indexed": true,
          "internalType": "bytes32",
          "name": "previousAdminRole",
          "type": "bytes32"
        },
        {
          "indexed": true,
          "internalType": "bytes32",
          "name": "newAdminRole",
          "type": "bytes32"
        }
      ],
      "name": "RoleAdminChanged",
      "type": "event"
    },
    {
      "anonymous": false,
      "inputs": [
        {
          "indexed": true,
          "internalType": "bytes32",
          "name": "role",
          "type": "bytes32"
        },
        {
          "indexed": true,
          "internalType": "address",
          "name": "account",
          "type": "address"
        },
        {
          "indexed": true,
          "internalType": "address",
          "name": "sender",
          "type": "address"
        }
      ],
      "name": "RoleGranted",
      "type": "event"
    },
    {
      "anonymous": false,
      "inputs": [
        {
          "indexed": true,
          "internalType": "bytes32",
          "name": "role",
          "type": "bytes32"
        },
        {
          "indexed": true,
          "internalType": "address",
          "name": "account",
          "type": "address"
        },
        {
          "indexed": true,
          "internalType": "address",
          "name": "sender",
          "type": "address"
        }
      ],
      "name": "RoleRevoked",
      "type": "event"
    },
    {
      "anonymous": false,
      "inputs": [
        {
          "indexed": false,
          "internalType": "uint256",
          "name": "tokenId",
          "type": "uint256"
        }
      ],
      "name": "TokenRoyaltyRemoved",
      "type": "event"
    },
    {
      "anonymous": false,
      "inputs": [
        {
          "indexed": false,
          "internalType": "uint256",
          "name": "tokenId",
          "type": "uint256"
        },
        {
          "indexed": false,
          "internalType": "address",
          "name": "recipient",
          "type": "address"
        },
        {
          "indexed": false,
          "internalType": "uint16",
          "name": "bps",
          "type": "uint16"
        }
      ],
      "name": "TokenRoyaltySet",
      "type": "event"
    },
    {
      "anonymous": false,
      "inputs": [
        {
          "indexed": true,
          "internalType": "address",
          "name": "from",
          "type": "address"
        },
        {
          "indexed": true,
          "internalType": "address",
          "name": "to",
          "type": "address"
        },
        {
          "indexed": true,
          "internalType": "uint256",
          "name": "tokenId",
          "type": "uint256"
        }
      ],
      "name": "Transfer",
      "type": "event"
    },
    {
      "anonymous": false,
      "inputs": [],
      "name": "WithdrawPowerRevoked",
      "type": "event"
    },
    {
      "anonymous": false,
      "inputs": [
        {
          "indexed": false,
          "internalType": "address[]",
          "name": "claimTokens",
          "type": "address[]"
        },
        {
          "indexed": false,
          "internalType": "uint256[]",
          "name": "amounts",
          "type": "uint256[]"
        }
      ],
      "name": "Withdrawn",
      "type": "event"
    },
    {
      "inputs": [],
      "name": "DEFAULT_ADMIN_ROLE",
      "outputs": [
        {
          "internalType": "bytes32",
          "name": "",
          "type": "bytes32"
        }
      ],
      "stateMutability": "view",
      "type": "function"
    },
    {
      "inputs": [],
      "name": "LOCKER_ROLE",
      "outputs": [
        {
          "internalType": "bytes32",
          "name": "",
          "type": "bytes32"
        }
      ],
      "stateMutability": "view",
      "type": "function"
    },
    {
      "inputs": [],
      "name": "MINTER_ROLE",
      "outputs": [
        {
          "internalType": "bytes32",
          "name": "",
          "type": "bytes32"
        }
      ],
      "stateMutability": "view",
      "type": "function"
    },
    {
      "inputs": [],
      "name": "_trustedForwarder",
      "outputs": [
        {
          "internalType": "address",
          "name": "",
          "type": "address"
        }
      ],
      "stateMutability": "view",
      "type": "function"
    },
    {
      "inputs": [
        {
          "internalType": "address",
          "name": "to",
          "type": "address"
        },
        {
          "internalType": "uint256",
          "name": "tokenId",
          "type": "uint256"
        }
      ],
      "name": "approve",
      "outputs": [],
      "stateMutability": "nonpayable",
      "type": "function"
    },
    {
      "inputs": [
        {
          "internalType": "address",
          "name": "owner",
          "type": "address"
        }
      ],
      "name": "balanceOf",
      "outputs": [
        {
          "internalType": "uint256",
          "name": "",
          "type": "uint256"
        }
      ],
      "stateMutability": "view",
      "type": "function"
    },
    {
      "inputs": [
        {
          "internalType": "uint256",
          "name": "tierId",
          "type": "uint256"
        },
        {
          "components": [
            {
              "internalType": "uint256",
              "name": "start",
              "type": "uint256"
            },
            {
              "internalType": "uint256",
              "name": "end",
              "type": "uint256"
            },
            {
              "internalType": "address",
              "name": "currency",
              "type": "address"
            },
            {
              "internalType": "uint256",
              "name": "price",
              "type": "uint256"
            },
            {
              "internalType": "uint256",
              "name": "maxPerWallet",
              "type": "uint256"
            },
            {
              "internalType": "bytes32",
              "name": "merkleRoot",
              "type": "bytes32"
            },
            {
              "internalType": "uint256",
              "name": "reserved",
              "type": "uint256"
            },
            {
              "internalType": "uint256",
              "name": "maxAllocation",
              "type": "uint256"
            }
          ],
          "internalType": "struct IERC721TieringExtension.Tier",
          "name": "tier",
          "type": "tuple"
        }
      ],
      "name": "configureTiering",
      "outputs": [],
      "stateMutability": "nonpayable",
      "type": "function"
    },
    {
      "inputs": [
        {
          "internalType": "uint256[]",
          "name": "_tierIds",
          "type": "uint256[]"
        },
        {
          "components": [
            {
              "internalType": "uint256",
              "name": "start",
              "type": "uint256"
            },
            {
              "internalType": "uint256",
              "name": "end",
              "type": "uint256"
            },
            {
              "internalType": "address",
              "name": "currency",
              "type": "address"
            },
            {
              "internalType": "uint256",
              "name": "price",
              "type": "uint256"
            },
            {
              "internalType": "uint256",
              "name": "maxPerWallet",
              "type": "uint256"
            },
            {
              "internalType": "bytes32",
              "name": "merkleRoot",
              "type": "bytes32"
            },
            {
              "internalType": "uint256",
              "name": "reserved",
              "type": "uint256"
            },
            {
              "internalType": "uint256",
              "name": "maxAllocation",
              "type": "uint256"
            }
          ],
          "internalType": "struct IERC721TieringExtension.Tier[]",
          "name": "_tiers",
          "type": "tuple[]"
        }
      ],
      "name": "configureTiering",
      "outputs": [],
      "stateMutability": "nonpayable",
      "type": "function"
    },
    {
      "inputs": [],
      "name": "contractURI",
      "outputs": [
        {
          "internalType": "string",
          "name": "",
          "type": "string"
        }
      ],
      "stateMutability": "view",
      "type": "function"
    },
    {
      "inputs": [],
      "name": "defaultRoyalty",
      "outputs": [
        {
          "internalType": "address",
          "name": "recipient",
          "type": "address"
        },
        {
          "internalType": "uint16",
          "name": "bps",
          "type": "uint16"
        }
      ],
      "stateMutability": "view",
      "type": "function"
    },
    {
      "inputs": [
        {
          "internalType": "uint256",
          "name": "tierId",
          "type": "uint256"
        },
        {
          "internalType": "address",
          "name": "minter",
          "type": "address"
        },
        {
          "internalType": "uint256",
          "name": "maxAllowance",
          "type": "uint256"
        },
        {
          "internalType": "bytes32[]",
          "name": "proof",
          "type": "bytes32[]"
        }
      ],
      "name": "eligibleForTier",
      "outputs": [
        {
          "internalType": "uint256",
          "name": "maxMintable",
          "type": "uint256"
        }
      ],
      "stateMutability": "view",
      "type": "function"
    },
    {
      "inputs": [
        {
          "internalType": "uint256[]",
          "name": "ticketTokenIds",
          "type": "uint256[]"
        }
      ],
      "name": "filterUnlocked",
      "outputs": [
        {
          "internalType": "uint256[]",
          "name": "",
          "type": "uint256[]"
        }
      ],
      "stateMutability": "view",
      "type": "function"
    },
    {
      "inputs": [],
      "name": "freezeMaxSupply",
      "outputs": [],
      "stateMutability": "nonpayable",
      "type": "function"
    },
    {
      "inputs": [],
      "name": "freezeTokenURI",
      "outputs": [],
      "stateMutability": "nonpayable",
      "type": "function"
    },
    {
      "inputs": [
        {
          "internalType": "uint256",
          "name": "tokenId",
          "type": "uint256"
        }
      ],
      "name": "getApproved",
      "outputs": [
        {
          "internalType": "address",
          "name": "",
          "type": "address"
        }
      ],
      "stateMutability": "view",
      "type": "function"
    },
    {
      "inputs": [],
      "name": "getLicenseName",
      "outputs": [
        {
          "internalType": "string",
          "name": "",
          "type": "string"
        }
      ],
      "stateMutability": "view",
      "type": "function"
    },
    {
      "inputs": [],
      "name": "getLicenseURI",
      "outputs": [
        {
          "internalType": "string",
          "name": "",
          "type": "string"
        }
      ],
      "stateMutability": "view",
      "type": "function"
    },
    {
      "inputs": [
        {
          "internalType": "uint256",
          "name": "id",
          "type": "uint256"
        }
      ],
      "name": "getRaribleV2Royalties",
      "outputs": [
        {
          "components": [
            {
              "internalType": "address payable",
              "name": "account",
              "type": "address"
            },
            {
              "internalType": "uint96",
              "name": "value",
              "type": "uint96"
            }
          ],
          "internalType": "struct LibPart.Part[]",
          "name": "result",
          "type": "tuple[]"
        }
      ],
      "stateMutability": "view",
      "type": "function"
    },
    {
      "inputs": [
        {
          "internalType": "bytes32",
          "name": "role",
          "type": "bytes32"
        }
      ],
      "name": "getRoleAdmin",
      "outputs": [
        {
          "internalType": "bytes32",
          "name": "",
          "type": "bytes32"
        }
      ],
      "stateMutability": "view",
      "type": "function"
    },
    {
      "inputs": [],
      "name": "getTokenRoyaltiesCount",
      "outputs": [
        {
          "internalType": "uint256",
          "name": "",
          "type": "uint256"
        }
      ],
      "stateMutability": "view",
      "type": "function"
    },
    {
      "inputs": [
        {
          "internalType": "uint256",
          "name": "index",
          "type": "uint256"
        }
      ],
      "name": "getTokenRoyaltyByIndex",
      "outputs": [
        {
          "components": [
            {
              "internalType": "uint256",
              "name": "tokenId",
              "type": "uint256"
            },
            {
              "internalType": "address",
              "name": "recipient",
              "type": "address"
            },
            {
              "internalType": "uint16",
              "name": "bps",
              "type": "uint16"
            }
          ],
          "internalType": "struct IEIP2981RoyaltyOverride.TokenRoyaltyConfig",
          "name": "",
          "type": "tuple"
        }
      ],
      "stateMutability": "view",
      "type": "function"
    },
    {
      "inputs": [
        {
          "internalType": "bytes32",
          "name": "role",
          "type": "bytes32"
        },
        {
          "internalType": "address",
          "name": "account",
          "type": "address"
        }
      ],
      "name": "grantRole",
      "outputs": [],
      "stateMutability": "nonpayable",
      "type": "function"
    },
    {
      "inputs": [
        {
          "internalType": "bytes32",
          "name": "role",
          "type": "bytes32"
        },
        {
          "internalType": "address",
          "name": "account",
          "type": "address"
        }
      ],
      "name": "hasRole",
      "outputs": [
        {
          "internalType": "bool",
          "name": "",
          "type": "bool"
        }
      ],
      "stateMutability": "view",
      "type": "function"
    },
    {
      "inputs": [],
      "name": "hasRoleBasedLockableExtension",
      "outputs": [
        {
          "internalType": "bool",
          "name": "",
          "type": "bool"
        }
      ],
      "stateMutability": "view",
      "type": "function"
    },
    {
      "inputs": [
        {
          "components": [
            {
              "internalType": "string",
              "name": "name",
              "type": "string"
            },
            {
              "internalType": "string",
              "name": "symbol",
              "type": "string"
            },
            {
              "internalType": "string",
              "name": "contractURI",
              "type": "string"
            },
            {
              "internalType": "string",
              "name": "placeholderURI",
              "type": "string"
            },
            {
              "internalType": "string",
              "name": "tokenURIPrefix",
              "type": "string"
            },
            {
              "internalType": "uint256",
              "name": "maxSupply",
              "type": "uint256"
            },
            {
              "components": [
                {
                  "internalType": "uint256",
                  "name": "start",
                  "type": "uint256"
                },
                {
                  "internalType": "uint256",
                  "name": "end",
                  "type": "uint256"
                },
                {
                  "internalType": "address",
                  "name": "currency",
                  "type": "address"
                },
                {
                  "internalType": "uint256",
                  "name": "price",
                  "type": "uint256"
                },
                {
                  "internalType": "uint256",
                  "name": "maxPerWallet",
                  "type": "uint256"
                },
                {
                  "internalType": "bytes32",
                  "name": "merkleRoot",
                  "type": "bytes32"
                },
                {
                  "internalType": "uint256",
                  "name": "reserved",
                  "type": "uint256"
                },
                {
                  "internalType": "uint256",
                  "name": "maxAllocation",
                  "type": "uint256"
                }
              ],
              "internalType": "struct IERC721TieringExtension.Tier[]",
              "name": "tiers",
              "type": "tuple[]"
            },
            {
              "internalType": "address",
              "name": "defaultRoyaltyAddress",
              "type": "address"
            },
            {
              "internalType": "uint16",
              "name": "defaultRoyaltyBps",
              "type": "uint16"
            },
            {
              "internalType": "address",
              "name": "proceedsRecipient",
              "type": "address"
            },
            {
              "internalType": "address",
              "name": "trustedForwarder",
              "type": "address"
            },
            {
              "internalType": "enum LicenseVersion",
              "name": "licenseVersion",
              "type": "uint8"
            }
          ],
          "internalType": "struct ERC721ATieredSalesCollection.Config",
          "name": "config",
          "type": "tuple"
        },
        {
          "internalType": "address",
          "name": "deployer",
          "type": "address"
        }
      ],
      "name": "initialize",
      "outputs": [],
      "stateMutability": "nonpayable",
      "type": "function"
    },
    {
      "inputs": [
        {
          "internalType": "address",
          "name": "owner",
          "type": "address"
        },
        {
          "internalType": "address",
          "name": "operator",
          "type": "address"
        }
      ],
      "name": "isApprovedForAll",
      "outputs": [
        {
          "internalType": "bool",
          "name": "",
          "type": "bool"
        }
      ],
      "stateMutability": "view",
      "type": "function"
    },
    {
      "inputs": [
        {
          "internalType": "address",
          "name": "forwarder",
          "type": "address"
        }
      ],
      "name": "isTrustedForwarder",
      "outputs": [
        {
          "internalType": "bool",
          "name": "",
          "type": "bool"
        }
      ],
      "stateMutability": "view",
      "type": "function"
    },
    {
      "inputs": [],
      "name": "licenseVersion",
      "outputs": [
        {
          "internalType": "enum LicenseVersion",
          "name": "",
          "type": "uint8"
        }
      ],
      "stateMutability": "view",
      "type": "function"
    },
    {
      "inputs": [],
      "name": "licenseVersionLocked",
      "outputs": [
        {
          "internalType": "bool",
          "name": "",
          "type": "bool"
        }
      ],
      "stateMutability": "view",
      "type": "function"
    },
    {
      "inputs": [
        {
          "internalType": "uint256[]",
          "name": "tokenIds",
          "type": "uint256[]"
        }
      ],
      "name": "lock",
      "outputs": [],
      "stateMutability": "nonpayable",
      "type": "function"
    },
    {
      "inputs": [
        {
          "internalType": "uint256",
          "name": "tokenId",
          "type": "uint256"
        }
      ],
      "name": "lock",
      "outputs": [],
      "stateMutability": "nonpayable",
      "type": "function"
    },
    {
      "inputs": [],
      "name": "lockLicenseVersion",
      "outputs": [],
      "stateMutability": "nonpayable",
      "type": "function"
    },
    {
      "inputs": [],
      "name": "lockWithdrawMode",
      "outputs": [],
      "stateMutability": "nonpayable",
      "type": "function"
    },
    {
      "inputs": [],
      "name": "lockWithdrawRecipient",
      "outputs": [],
      "stateMutability": "nonpayable",
      "type": "function"
    },
    {
      "inputs": [
        {
          "internalType": "uint256",
          "name": "tokenId",
          "type": "uint256"
        }
      ],
      "name": "locked",
      "outputs": [
        {
          "internalType": "bool",
          "name": "",
          "type": "bool"
        }
      ],
      "stateMutability": "view",
      "type": "function"
    },
    {
      "inputs": [],
      "name": "maxSupply",
      "outputs": [
        {
          "internalType": "uint256",
          "name": "",
          "type": "uint256"
        }
      ],
      "stateMutability": "view",
      "type": "function"
    },
    {
      "inputs": [],
      "name": "maxSupplyFrozen",
      "outputs": [
        {
          "internalType": "bool",
          "name": "",
          "type": "bool"
        }
      ],
      "stateMutability": "view",
      "type": "function"
    },
    {
      "inputs": [
        {
          "internalType": "address",
          "name": "to",
          "type": "address"
        },
        {
          "internalType": "uint256",
          "name": "count",
          "type": "uint256"
        }
      ],
      "name": "mintByOwner",
      "outputs": [],
      "stateMutability": "nonpayable",
      "type": "function"
    },
    {
      "inputs": [
        {
          "internalType": "address",
          "name": "to",
          "type": "address"
        },
        {
          "internalType": "uint256",
          "name": "count",
          "type": "uint256"
        }
      ],
      "name": "mintByRole",
      "outputs": [],
      "stateMutability": "nonpayable",
      "type": "function"
    },
    {
      "inputs": [
        {
          "internalType": "uint256",
          "name": "tierId",
          "type": "uint256"
        },
        {
          "internalType": "uint256",
          "name": "count",
          "type": "uint256"
        },
        {
          "internalType": "uint256",
          "name": "maxAllowance",
          "type": "uint256"
        },
        {
          "internalType": "bytes32[]",
          "name": "proof",
          "type": "bytes32[]"
        }
      ],
      "name": "mintByTier",
      "outputs": [],
      "stateMutability": "payable",
      "type": "function"
    },
    {
      "inputs": [],
      "name": "name",
      "outputs": [
        {
          "internalType": "string",
          "name": "",
          "type": "string"
        }
      ],
      "stateMutability": "view",
      "type": "function"
    },
    {
      "inputs": [
        {
          "internalType": "uint256",
          "name": "tierId",
          "type": "uint256"
        },
        {
          "internalType": "address",
          "name": "minter",
          "type": "address"
        },
        {
          "internalType": "uint256",
          "name": "maxAllowance",
          "type": "uint256"
        },
        {
          "internalType": "bytes32[]",
          "name": "proof",
          "type": "bytes32[]"
        }
      ],
      "name": "onTierAllowlist",
      "outputs": [
        {
          "internalType": "bool",
          "name": "",
          "type": "bool"
        }
      ],
      "stateMutability": "view",
      "type": "function"
    },
    {
      "inputs": [],
      "name": "owner",
      "outputs": [
        {
          "internalType": "address",
          "name": "",
          "type": "address"
        }
      ],
      "stateMutability": "view",
      "type": "function"
    },
    {
      "inputs": [
        {
          "internalType": "uint256",
          "name": "tokenId",
          "type": "uint256"
        }
      ],
      "name": "ownerOf",
      "outputs": [
        {
          "internalType": "address",
          "name": "",
          "type": "address"
        }
      ],
      "stateMutability": "view",
      "type": "function"
    },
    {
      "inputs": [],
      "name": "placeholderURI",
      "outputs": [
        {
          "internalType": "string",
          "name": "",
          "type": "string"
        }
      ],
      "stateMutability": "view",
      "type": "function"
    },
    {
      "inputs": [
        {
          "internalType": "uint256",
          "name": "tierId",
          "type": "uint256"
        }
      ],
      "name": "remainingForTier",
      "outputs": [
        {
          "internalType": "uint256",
          "name": "tierRemaining",
          "type": "uint256"
        }
      ],
      "stateMutability": "view",
      "type": "function"
    },
    {
      "inputs": [],
      "name": "renounceOwnership",
      "outputs": [],
      "stateMutability": "nonpayable",
      "type": "function"
    },
    {
      "inputs": [
        {
          "internalType": "bytes32",
          "name": "role",
          "type": "bytes32"
        },
        {
          "internalType": "address",
          "name": "account",
          "type": "address"
        }
      ],
      "name": "renounceRole",
      "outputs": [],
      "stateMutability": "nonpayable",
      "type": "function"
    },
    {
      "inputs": [],
      "name": "reservedMints",
      "outputs": [
        {
          "internalType": "uint256",
          "name": "",
          "type": "uint256"
        }
      ],
      "stateMutability": "view",
      "type": "function"
    },
    {
      "inputs": [
        {
          "internalType": "bytes32",
          "name": "role",
          "type": "bytes32"
        },
        {
          "internalType": "address",
          "name": "account",
          "type": "address"
        }
      ],
      "name": "revokeRole",
      "outputs": [],
      "stateMutability": "nonpayable",
      "type": "function"
    },
    {
      "inputs": [],
      "name": "revokeWithdrawPower",
      "outputs": [],
      "stateMutability": "nonpayable",
      "type": "function"
    },
    {
      "inputs": [
        {
          "internalType": "uint256",
          "name": "tokenId",
          "type": "uint256"
        },
        {
          "internalType": "uint256",
          "name": "value",
          "type": "uint256"
        }
      ],
      "name": "royaltyInfo",
      "outputs": [
        {
          "internalType": "address",
          "name": "",
          "type": "address"
        },
        {
          "internalType": "uint256",
          "name": "",
          "type": "uint256"
        }
      ],
      "stateMutability": "view",
      "type": "function"
    },
    {
      "inputs": [
        {
          "internalType": "address",
          "name": "from",
          "type": "address"
        },
        {
          "internalType": "address",
          "name": "to",
          "type": "address"
        },
        {
          "internalType": "uint256",
          "name": "tokenId",
          "type": "uint256"
        }
      ],
      "name": "safeTransferFrom",
      "outputs": [],
      "stateMutability": "nonpayable",
      "type": "function"
    },
    {
      "inputs": [
        {
          "internalType": "address",
          "name": "from",
          "type": "address"
        },
        {
          "internalType": "address",
          "name": "to",
          "type": "address"
        },
        {
          "internalType": "uint256",
          "name": "tokenId",
          "type": "uint256"
        },
        {
          "internalType": "bytes",
          "name": "_data",
          "type": "bytes"
        }
      ],
      "name": "safeTransferFrom",
      "outputs": [],
      "stateMutability": "nonpayable",
      "type": "function"
    },
    {
      "inputs": [
        {
          "internalType": "address",
          "name": "operator",
          "type": "address"
        },
        {
          "internalType": "bool",
          "name": "approved",
          "type": "bool"
        }
      ],
      "name": "setApprovalForAll",
      "outputs": [],
      "stateMutability": "nonpayable",
      "type": "function"
    },
    {
      "inputs": [
        {
          "internalType": "string",
          "name": "newValue",
          "type": "string"
        }
      ],
      "name": "setContractURI",
      "outputs": [],
      "stateMutability": "nonpayable",
      "type": "function"
    },
    {
      "inputs": [
        {
          "components": [
            {
              "internalType": "address",
              "name": "recipient",
              "type": "address"
            },
            {
              "internalType": "uint16",
              "name": "bps",
              "type": "uint16"
            }
          ],
          "internalType": "struct IEIP2981RoyaltyOverride.TokenRoyalty",
          "name": "royalty",
          "type": "tuple"
        }
      ],
      "name": "setDefaultRoyalty",
      "outputs": [],
      "stateMutability": "nonpayable",
      "type": "function"
    },
    {
      "inputs": [
        {
          "internalType": "enum LicenseVersion",
          "name": "_licenseVersion",
          "type": "uint8"
        }
      ],
      "name": "setLicenseVersion",
      "outputs": [],
      "stateMutability": "nonpayable",
      "type": "function"
    },
    {
      "inputs": [
        {
          "internalType": "uint256",
          "name": "newValue",
          "type": "uint256"
        }
      ],
      "name": "setMaxSupply",
      "outputs": [],
      "stateMutability": "nonpayable",
      "type": "function"
    },
    {
      "inputs": [
        {
          "internalType": "string",
          "name": "newValue",
          "type": "string"
        }
      ],
      "name": "setPlaceholderURI",
      "outputs": [],
      "stateMutability": "nonpayable",
      "type": "function"
    },
    {
      "inputs": [
        {
          "components": [
            {
              "internalType": "uint256",
              "name": "tokenId",
              "type": "uint256"
            },
            {
              "internalType": "address",
              "name": "recipient",
              "type": "address"
            },
            {
              "internalType": "uint16",
              "name": "bps",
              "type": "uint16"
            }
          ],
          "internalType": "struct IEIP2981RoyaltyOverride.TokenRoyaltyConfig[]",
          "name": "royaltyConfigs",
          "type": "tuple[]"
        }
      ],
      "name": "setTokenRoyalties",
      "outputs": [],
      "stateMutability": "nonpayable",
      "type": "function"
    },
    {
      "inputs": [
        {
          "internalType": "string",
          "name": "newValue",
          "type": "string"
        }
      ],
      "name": "setTokenURIPrefix",
      "outputs": [],
      "stateMutability": "nonpayable",
      "type": "function"
    },
    {
      "inputs": [
        {
          "internalType": "string",
          "name": "newValue",
          "type": "string"
        }
      ],
      "name": "setTokenURISuffix",
      "outputs": [],
      "stateMutability": "nonpayable",
      "type": "function"
    },
    {
      "inputs": [
        {
          "internalType": "address",
          "name": "trustedForwarder",
          "type": "address"
        }
      ],
      "name": "setTrustedForwarder",
      "outputs": [],
      "stateMutability": "nonpayable",
      "type": "function"
    },
    {
      "inputs": [
        {
          "internalType": "enum WithdrawMode",
          "name": "_withdrawMode",
          "type": "uint8"
        }
      ],
      "name": "setWithdrawMode",
      "outputs": [],
      "stateMutability": "nonpayable",
      "type": "function"
    },
    {
      "inputs": [
        {
          "internalType": "address",
          "name": "_withdrawRecipient",
          "type": "address"
        }
      ],
      "name": "setWithdrawRecipient",
      "outputs": [],
      "stateMutability": "nonpayable",
      "type": "function"
    },
    {
      "inputs": [
        {
          "internalType": "bytes4",
          "name": "interfaceId",
          "type": "bytes4"
        }
      ],
      "name": "supportsInterface",
      "outputs": [
        {
          "internalType": "bool",
          "name": "",
          "type": "bool"
        }
      ],
      "stateMutability": "view",
      "type": "function"
    },
    {
      "inputs": [],
      "name": "symbol",
      "outputs": [
        {
          "internalType": "string",
          "name": "",
          "type": "string"
        }
      ],
      "stateMutability": "view",
      "type": "function"
    },
    {
      "inputs": [
        {
          "internalType": "uint256",
          "name": "",
          "type": "uint256"
        }
      ],
      "name": "tierMints",
      "outputs": [
        {
          "internalType": "uint256",
          "name": "",
          "type": "uint256"
        }
      ],
      "stateMutability": "view",
      "type": "function"
    },
    {
      "inputs": [
        {
          "internalType": "uint256",
          "name": "",
          "type": "uint256"
        }
      ],
      "name": "tiers",
      "outputs": [
        {
          "internalType": "uint256",
          "name": "start",
          "type": "uint256"
        },
        {
          "internalType": "uint256",
          "name": "end",
          "type": "uint256"
        },
        {
          "internalType": "address",
          "name": "currency",
          "type": "address"
        },
        {
          "internalType": "uint256",
          "name": "price",
          "type": "uint256"
        },
        {
          "internalType": "uint256",
          "name": "maxPerWallet",
          "type": "uint256"
        },
        {
          "internalType": "bytes32",
          "name": "merkleRoot",
          "type": "bytes32"
        },
        {
          "internalType": "uint256",
          "name": "reserved",
          "type": "uint256"
        },
        {
          "internalType": "uint256",
          "name": "maxAllocation",
          "type": "uint256"
        }
      ],
      "stateMutability": "view",
      "type": "function"
    },
    {
      "inputs": [
        {
          "internalType": "uint256",
          "name": "_tokenId",
          "type": "uint256"
        }
      ],
      "name": "tokenURI",
      "outputs": [
        {
          "internalType": "string",
          "name": "",
          "type": "string"
        }
      ],
      "stateMutability": "view",
      "type": "function"
    },
    {
      "inputs": [],
      "name": "tokenURIFrozen",
      "outputs": [
        {
          "internalType": "bool",
          "name": "",
          "type": "bool"
        }
      ],
      "stateMutability": "view",
      "type": "function"
    },
    {
      "inputs": [],
      "name": "tokenURIPrefix",
      "outputs": [
        {
          "internalType": "string",
          "name": "",
          "type": "string"
        }
      ],
      "stateMutability": "view",
      "type": "function"
    },
    {
      "inputs": [],
      "name": "tokenURISuffix",
      "outputs": [
        {
          "internalType": "string",
          "name": "",
          "type": "string"
        }
      ],
      "stateMutability": "view",
      "type": "function"
    },
    {
      "inputs": [],
      "name": "totalReserved",
      "outputs": [
        {
          "internalType": "uint256",
          "name": "",
          "type": "uint256"
        }
      ],
      "stateMutability": "view",
      "type": "function"
    },
    {
      "inputs": [],
      "name": "totalSupply",
      "outputs": [
        {
          "internalType": "uint256",
          "name": "",
          "type": "uint256"
        }
      ],
      "stateMutability": "view",
      "type": "function"
    },
    {
      "inputs": [
        {
          "internalType": "address",
          "name": "from",
          "type": "address"
        },
        {
          "internalType": "address",
          "name": "to",
          "type": "address"
        },
        {
          "internalType": "uint256",
          "name": "tokenId",
          "type": "uint256"
        }
      ],
      "name": "transferFrom",
      "outputs": [],
      "stateMutability": "nonpayable",
      "type": "function"
    },
    {
      "inputs": [
        {
          "internalType": "address",
          "name": "newOwner",
          "type": "address"
        }
      ],
      "name": "transferOwnership",
      "outputs": [],
      "stateMutability": "nonpayable",
      "type": "function"
    },
    {
      "inputs": [
        {
          "internalType": "uint256[]",
          "name": "tokenIds",
          "type": "uint256[]"
        }
      ],
      "name": "unlock",
      "outputs": [],
      "stateMutability": "nonpayable",
      "type": "function"
    },
    {
      "inputs": [
        {
          "internalType": "uint256",
          "name": "tokenId",
          "type": "uint256"
        }
      ],
      "name": "unlock",
      "outputs": [],
      "stateMutability": "nonpayable",
      "type": "function"
    },
    {
      "inputs": [
        {
          "internalType": "uint256",
          "name": "tierId",
          "type": "uint256"
        },
        {
          "internalType": "address",
          "name": "wallet",
          "type": "address"
        }
      ],
      "name": "walletMintedByTier",
      "outputs": [
        {
          "internalType": "uint256",
          "name": "",
          "type": "uint256"
        }
      ],
      "stateMutability": "view",
      "type": "function"
    },
    {
      "inputs": [
        {
          "internalType": "address[]",
          "name": "claimTokens",
          "type": "address[]"
        },
        {
          "internalType": "uint256[]",
          "name": "amounts",
          "type": "uint256[]"
        }
      ],
      "name": "withdraw",
      "outputs": [],
      "stateMutability": "nonpayable",
      "type": "function"
    },
    {
      "inputs": [],
      "name": "withdrawMode",
      "outputs": [
        {
          "internalType": "enum WithdrawMode",
          "name": "",
          "type": "uint8"
        }
      ],
      "stateMutability": "view",
      "type": "function"
    },
    {
      "inputs": [],
      "name": "withdrawModeLocked",
      "outputs": [
        {
          "internalType": "bool",
          "name": "",
          "type": "bool"
        }
      ],
      "stateMutability": "view",
      "type": "function"
    },
    {
      "inputs": [],
      "name": "withdrawPowerRevoked",
      "outputs": [
        {
          "internalType": "bool",
          "name": "",
          "type": "bool"
        }
      ],
      "stateMutability": "view",
      "type": "function"
    },
    {
      "inputs": [],
      "name": "withdrawRecipient",
      "outputs": [
        {
          "internalType": "address",
          "name": "",
          "type": "address"
        }
      ],
      "stateMutability": "view",
      "type": "function"
    },
    {
      "inputs": [],
      "name": "withdrawRecipientLocked",
      "outputs": [
        {
          "internalType": "bool",
          "name": "",
          "type": "bool"
        }
      ],
      "stateMutability": "view",
      "type": "function"
    }
  ],
  "transactionHash": "0x82271cae27e85450974d2e85f029c09d340da76e44aba3552edb0b08575ae5cf",
  "args": [
    {
      "name": "Collection",
      "symbol": "COL",
      "contractURI": "ipfs://contractURI",
      "placeholderURI": "ipfs://placeholderURI",
      "tokenURIPrefix": "ipfs://tokenURIPrefix/",
      "maxSupply": 0,
      "tiers": [],
      "defaultRoyaltyAddress": "0x0000000000000000000000000000000000000000",
      "defaultRoyaltyBps": 0,
      "proceedsRecipient": "0x0000000000000000000000000000000000000000",
      "trustedForwarder": "0x0000000000000000000000000000000000000000",
      "licenseVersion": 0
    }
  ],
  "numDeployments": 5,
  "solcInputHash": "437cd74ead75c27449ac7b9186c033d8",
  "bytecode": "0x60806040523480156200001157600080fd5b5060405162006e7c38038062006e7c833981016040819052620000349162000ff4565b805160208201516004620000516200004b620000bd565b620000d9565b6002805482919060ff60c01b1916600160c01b836005811115620000795762000079620011a3565b0217905550600590506200008e838262001247565b5060066200009d828262001247565b50600060035550506001601455620000b6813362000134565b50620013c1565b6000620000d46200033860201b62002c1b1760201c565b905090565b600080546001600160a01b038381166201000081810262010000600160b01b0319851617855560405193049190911692909183917f8be0079c531659141344cd1fd0a4f28419497f9722a3daafe3b4186f6b6457e091a35050565b600054610100900460ff1615808015620001555750600054600160ff909116105b8062000185575062000172306200037060201b62002c3d1760201c565b15801562000185575060005460ff166001145b620001ee5760405162461bcd60e51b815260206004820152602e60248201527f496e697469616c697a61626c653a20636f6e747261637420697320616c72656160448201526d191e481a5b9a5d1a585b1a5e995960921b60648201526084015b60405180910390fd5b6000805460ff19166001179055801562000212576000805461ff0019166101001790555b6200021f6000836200037f565b6200022a82620000d9565b6101208301516200023d9060026200038f565b6101608301516200024e90620003c5565b82516020840151604085015162000267929190620003fd565b62000281836060015184608001516200043460201b60201c565b60a083015162000291906200046a565b6200029b6200049f565b620002a682620004d5565b620002b06200050a565b60c0830151620002c0906200053e565b620002db8360e001518461010001516200057360201b60201c565b610140830151620002ec90620005a9565b801562000333576000805461ff0019169055604051600181527f7f26b83ff96e1f2b6a682f133852f6798a09c465da95921460cefb38474024989060200160405180910390a15b505050565b6020546000906001600160a01b031633036200035b575060131936013560601c90565b620000d4620005de60201b62002c4c1760201c565b6001600160a01b03163b151590565b6200038b8282620005e2565b5050565b600054610100900460ff16620003b95760405162461bcd60e51b8152600401620001e59062001313565b6200038b828262000688565b600054610100900460ff16620003ef5760405162461bcd60e51b8152600401620001e59062001313565b620003fa8162000714565b50565b600054610100900460ff16620004275760405162461bcd60e51b8152600401620001e59062001313565b6200033383838362000792565b600054610100900460ff166200045e5760405162461bcd60e51b8152600401620001e59062001313565b6200038b828262000831565b600054610100900460ff16620004945760405162461bcd60e51b8152600401620001e59062001313565b620003fa81620008c9565b600054610100900460ff16620004c95760405162461bcd60e51b8152600401620001e59062001313565b620004d36200092e565b565b600054610100900460ff16620004ff5760405162461bcd60e51b8152600401620001e59062001313565b620003fa816200096a565b600054610100900460ff16620005345760405162461bcd60e51b8152600401620001e59062001313565b620004d3620009d2565b600054610100900460ff16620005685760405162461bcd60e51b8152600401620001e59062001313565b620003fa8162000a0e565b600054610100900460ff166200059d5760405162461bcd60e51b8152600401620001e59062001313565b6200038b828262000b3b565b600054610100900460ff16620005d35760405162461bcd60e51b8152600401620001e59062001313565b620003fa8162000bd8565b3390565b6000828152601b602090815260408083206001600160a01b038516845290915290205460ff166200038b576000828152601b602090815260408083206001600160a01b03851684529091529020805460ff1916600117905562000644620000bd565b6001600160a01b0316816001600160a01b0316837f2f8788117e7eff1d82e926ec794901d17c78024a50270940304540a733656f0d60405160405180910390a45050565b600054610100900460ff16620006b25760405162461bcd60e51b8152600401620001e59062001313565b620006c463ac2ba33360e01b62000c24565b600280546001600160a01b0384166001600160a01b0319821681178355839291600162ff000160a01b03191617600160b01b8360038111156200070b576200070b620011a3565b02179055505050565b600054610100900460ff166200073e5760405162461bcd60e51b8152600401620001e59062001313565b6200075063b964efe960e01b62000c24565b62000762630c934a3560e31b62000c24565b6002805482919060ff60c01b1916600160c01b8360058111156200078a576200078a620011a3565b021790555050565b600054610100900460ff16620007bc5760405162461bcd60e51b8152600401620001e59062001313565b600b620007ca848262001247565b50600c620007d9838262001247565b50600d620007e8828262001247565b50620007fb633d96f4ff60e11b62000c24565b6200080d6380ac58cd60e01b62000c24565b6200081f63184371e560e31b62000c24565b62000333635b5e139f60e01b62000c24565b600054610100900460ff166200085b5760405162461bcd60e51b8152600401620001e59062001313565b600e62000869838262001247565b50600f62000878828262001247565b50604080518082019091526005815264173539b7b760d91b6020820152601090620008a4908262001247565b50620008b7631f2f406b60e01b62000c24565b6200038b635b5e139f60e01b62000c24565b600054610100900460ff16620008f35760405162461bcd60e51b8152600401620001e59062001313565b60128190556200090a6330f487b560e11b62000c24565b6200091c6380ac58cd60e01b62000c24565b620003fa63184371e560e31b62000c24565b600054610100900460ff16620009585760405162461bcd60e51b8152600401620001e59062001313565b620004d3631aa1577160e11b62000c24565b600054610100900460ff16620009945760405162461bcd60e51b8152600401620001e59062001313565b620009a6631a056e7160e01b62000c24565b620003fa7f9f2df0fed2c77648de5860a4cc508cd0818c85b8b8a1ab4ceeef8d981c8956a6826200037f565b600054610100900460ff16620009fc5760405162461bcd60e51b8152600401620001e59062001313565b620004d363714ad8e760e01b62000c24565b600054610100900460ff1662000a385760405162461bcd60e51b8152600401620001e59062001313565b62000a4a6308b4902960e41b62000c24565b60005b81518110156200038b5781818151811062000a6c5762000a6c6200135e565b602090810291909101810151600083815260158352604090819020825181559282015160018401558101516002830180546001600160a01b0319166001600160a01b03909216919091179055606081015160038301556080810151600483015560a0810151600583015560c0810151600683015560e00151600790910155815182908290811062000b015762000b016200135e565b602002602001015160c001516016600082825462000b2091906200138a565b9091555081905062000b3281620013a5565b91505062000a4d565b600054610100900460ff1662000b655760405162461bcd60e51b8152600401620001e59062001313565b62000b77633a47bf5160e11b62000c24565b62000b8963152a902d60e11b62000c24565b62000b9b63c69dbd8f60e01b62000c24565b62000bad63656cb66560e11b62000c24565b604080518082019091526001600160a01b038316815261ffff82166020820152620003338162000ca8565b600054610100900460ff1662000c025760405162461bcd60e51b8152600401620001e59062001313565b602080546001600160a01b0319166001600160a01b0392909216919091179055565b6001600160e01b0319808216900362000c805760405162461bcd60e51b815260206004820152601c60248201527f4552433136353a20696e76616c696420696e74657266616365206964000000006044820152606401620001e5565b6001600160e01b0319166000908152600160208190526040909120805460ff19169091179055565b612710816020015161ffff161062000cf15760405162461bcd60e51b815260206004820152600b60248201526a496e76616c69642062707360a81b6044820152606401620001e5565b60408051808201825282516001600160a01b03168082526020808501805161ffff1691909301819052601c8054600160a01b9092026001600160b01b03199092169092171790558251905191517f2c5ea6e4103e78cb101e796fb2dace540362fc542cbff5145eaa24af7dd8fe419262000d8392916001600160a01b0392909216825261ffff16602082015260400190565b60405180910390a150565b634e487b7160e01b600052604160045260246000fd5b60405161010081016001600160401b038111828210171562000dca5762000dca62000d8e565b60405290565b60405161018081016001600160401b038111828210171562000dca5762000dca62000d8e565b604051601f8201601f191681016001600160401b038111828210171562000e215762000e2162000d8e565b604052919050565b600082601f83011262000e3b57600080fd5b81516001600160401b0381111562000e575762000e5762000d8e565b602062000e6d601f8301601f1916820162000df6565b828152858284870101111562000e8257600080fd5b60005b8381101562000ea257858101830151828201840152820162000e85565b8381111562000eb45760008385840101525b5095945050505050565b80516001600160a01b038116811462000ed657600080fd5b919050565b600082601f83011262000eed57600080fd5b815160206001600160401b0382111562000f0b5762000f0b62000d8e565b62000f1b818360051b0162000df6565b82815260089290921b8401810191818101908684111562000f3b57600080fd5b8286015b8481101562000fc657610100818903121562000f5b5760008081fd5b62000f6562000da4565b815181528482015185820152604062000f8081840162000ebe565b90820152606082810151908201526080808301519082015260a0808301519082015260c0808301519082015260e080830151908201528352918301916101000162000f3f565b509695505050505050565b805161ffff8116811462000ed657600080fd5b80516006811062000ed657600080fd5b6000602082840312156200100757600080fd5b81516001600160401b03808211156200101f57600080fd5b9083019061018082860312156200103557600080fd5b6200103f62000dd0565b8251828111156200104f57600080fd5b6200105d8782860162000e29565b8252506020830151828111156200107357600080fd5b620010818782860162000e29565b6020830152506040830151828111156200109a57600080fd5b620010a88782860162000e29565b604083015250606083015182811115620010c157600080fd5b620010cf8782860162000e29565b606083015250608083015182811115620010e857600080fd5b620010f68782860162000e29565b60808301525060a083015160a082015260c0830151828111156200111957600080fd5b620011278782860162000edb565b60c0830152506200113b60e0840162000ebe565b60e082015261010091506200115282840162000fd1565b8282015261012091506200116882840162000ebe565b8282015261014091506200117e82840162000ebe565b8282015261016091506200119482840162000fe4565b91810191909152949350505050565b634e487b7160e01b600052602160045260246000fd5b600181811c90821680620011ce57607f821691505b602082108103620011ef57634e487b7160e01b600052602260045260246000fd5b50919050565b601f8211156200033357600081815260208120601f850160051c810160208610156200121e5750805b601f850160051c820191505b818110156200123f578281556001016200122a565b505050505050565b81516001600160401b0381111562001263576200126362000d8e565b6200127b81620012748454620011b9565b84620011f5565b602080601f831160018114620012b357600084156200129a5750858301515b600019600386901b1c1916600185901b1785556200123f565b600085815260208120601f198616915b82811015620012e457888601518255948401946001909101908401620012c3565b5085821015620013035787850151600019600388901b60f8161c191681555b5050505050600190811b01905550565b6020808252602b908201527f496e697469616c697a61626c653a20636f6e7472616374206973206e6f74206960408201526a6e697469616c697a696e6760a81b606082015260800190565b634e487b7160e01b600052603260045260246000fd5b634e487b7160e01b600052601160045260246000fd5b60008219821115620013a057620013a062001374565b500190565b600060018201620013ba57620013ba62001374565b5060010190565b615aab80620013d16000396000f3fe6080604052600436106104005760003560e01c80637e98034211610216578063c71b0e1c1161011f578063c71b0e1c14610d01578063c723955a14610d17578063c7db289314610d2c578063c87b56dd14610d41578063cad96cca14610d61578063d539139314610d8e578063d547741f14610db0578063d5abeb0114610dd0578063d8b436fd14610de6578063da74222814610e06578063da82b22714610e26578063dbbc853b14610e3b578063dcbe353f14610e50578063dd46706414610e70578063dd89c6fa14610e90578063de6d6d9614610ea5578063e8a3d48514610ec5578063e985e9c514610eda578063ef60ceaf14610f23578063f2fde38b14610f43578063f362136714610f63578063f384702f14610f8557600080fd5b80637e98034214610a9d578063837fe14014610ab2578063859610c614610ac75780638da5cb5b14610ae757806391d1485414610afc578063938e3d7b14610b1c57806395d89b4114610b3c57806399e0dd7c14610b51578063a217fddf14610b71578063a22cb46514610b86578063a341793b14610ba6578063a65dbda414610bbb578063a9852bfb14610bdb578063af121f5414610bfb578063b45a3c0e14610c1c578063b88d4fde14610c3c578063ba4695fd14610c5c578063bd2c18f714610c71578063bf9b7a5714610c91578063c0ac998314610cb2578063c0bb38ff14610cc7578063c29de63014610ce757600080fd5b806336568abe1161031857806336568abe146107d457806342842e0e146107f457806349561cb91461081457806350a5292f146108355780635136dcc71461086357806353367f081461088357806356c022bb146108b0578063572b6c05146108d05780635897f878146108f05780635d36598f146109105780635ea2c91b146109305780636057e0ec146109435780636198e339146109645780636352211e1461098457806364ed2913146109a457806368c7d37c146109c45780636f8b44b0146109e457806370a0823114610a04578063714ad8e714610a24578063715018a614610a385780637313cba914610a4d5780637885fdc714610a6257600080fd5b806301ffc9a714610405578063039af9eb1461043a5780630653aca5146104eb57806306fdde031461053a578063081812fc1461055c578063095ea7b3146105945780631123f2ef146105b6578063167446071461060757806318160ddd1461061c5780631a056e711461063557806320f1bb301461065557806323b872dd14610675578063248a9ca3146106955780632a55205a146106b55780632bb684ad146106e35780632c233067146107105780632cb9b2ac146107305780632d00b587146107465780632f2ff15d146107745780633542aee2146107945780633574a2dd146107b4575b600080fd5b34801561041157600080fd5b50610425610420366004614814565b610f9f565b60405190151581526020015b60405180910390f35b34801561044657600080fd5b506104a2610455366004614831565b60156020526000908152604090208054600182015460028301546003840154600485015460058601546006870154600790970154959694956001600160a01b039094169492939192909188565b6040805198895260208901979097526001600160a01b03909516958701959095526060860192909252608085015260a084015260c083019190915260e082015261010001610431565b3480156104f757600080fd5b5061050b610506366004614831565b610fb0565b60408051825181526020808401516001600160a01b0316908201529181015161ffff1690820152606001610431565b34801561054657600080fd5b5061054f611035565b60405161043191906148a2565b34801561056857600080fd5b5061057c610577366004614831565b611044565b6040516001600160a01b039091168152602001610431565b3480156105a057600080fd5b506105b46105af3660046148d5565b611088565b005b3480156105c257600080fd5b506105f96105d1366004614901565b60009182526018602090815260408084206001600160a01b0393909316845291905290205490565b604051908152602001610431565b34801561061357600080fd5b506105b4611128565b34801561062857600080fd5b50600454600354036105f9565b34801561064157600080fd5b506105b46106503660046148d5565b61113f565b34801561066157600080fd5b506105b4610670366004614931565b6111aa565b34801561068157600080fd5b506105b461069036600461496b565b611390565b3480156106a157600080fd5b506105f96106b0366004614831565b611524565b3480156106c157600080fd5b506106d56106d03660046149ac565b611539565b6040516104319291906149ce565b3480156106ef57600080fd5b506107036106fe366004614a2b565b6115fe565b6040516104319190614a6c565b34801561071c57600080fd5b506105b461072b366004614ab0565b6116c8565b34801561073c57600080fd5b506105f960195481565b34801561075257600080fd5b5060025461076790600160b01b900460ff1681565b6040516104319190614ae7565b34801561078057600080fd5b506105b461078f366004614901565b611727565b3480156107a057600080fd5b506105b46107af3660046148d5565b611748565b3480156107c057600080fd5b506105b46107cf366004614c0a565b611750565b3480156107e057600080fd5b506105b46107ef366004614901565b611764565b34801561080057600080fd5b506105b461080f36600461496b565b6117ee565b34801561082057600080fd5b5060025461042590600160b81b900460ff1681565b34801561084157600080fd5b5060025461085690600160c01b900460ff1681565b6040516104319190614c3e565b34801561086f57600080fd5b506105b461087e366004614c52565b611809565b34801561088f57600080fd5b506105f961089e366004614831565b60176020526000908152604090205481565b3480156108bc57600080fd5b5060205461057c906001600160a01b031681565b3480156108dc57600080fd5b506104256108eb366004614cc6565b61186c565b3480156108fc57600080fd5b506105f961090b366004614831565b611880565b34801561091c57600080fd5b506105b461092b366004614a2b565b611901565b6105b461093e366004614ce3565b6119a4565b34801561094f57600080fd5b5060025461042590600160a01b900460ff1681565b34801561097057600080fd5b506105b461097f366004614831565b611c70565b34801561099057600080fd5b5061057c61099f366004614831565b611cdc565b3480156109b057600080fd5b506105b46109bf366004614d52565b611ce7565b3480156109d057600080fd5b506104256109df366004614d6d565b611d5f565b3480156109f057600080fd5b506105b46109ff366004614831565b611e01565b348015610a1057600080fd5b506105f9610a1f366004614cc6565b611e15565b348015610a3057600080fd5b506001610425565b348015610a4457600080fd5b506105b4611e63565b348015610a5957600080fd5b5061054f611e77565b348015610a6e57600080fd5b50601c54610a8f906001600160a01b03811690600160a01b900461ffff1682565b604051610431929190614db9565b348015610aa957600080fd5b506105f9611f09565b348015610abe57600080fd5b506105b4611f15565b348015610ad357600080fd5b506105b4610ae2366004614a2b565b611f5c565b348015610af357600080fd5b5061057c611ff5565b348015610b0857600080fd5b50610425610b17366004614901565b61200a565b348015610b2857600080fd5b506105b4610b37366004614c0a565b612035565b348015610b4857600080fd5b5061054f612049565b348015610b5d57600080fd5b506105b4610b6c366004614c0a565b612053565b348015610b7d57600080fd5b506105f9600081565b348015610b9257600080fd5b506105b4610ba1366004614de4565b61208a565b348015610bb257600080fd5b5061054f61211f565b348015610bc757600080fd5b506105b4610bd6366004614f0e565b612138565b348015610be757600080fd5b506105b4610bf6366004614c0a565b6122f8565b348015610c0757600080fd5b5060025461042590600160a81b900460ff1681565b348015610c2857600080fd5b50610425610c37366004614831565b61232f565b348015610c4857600080fd5b506105b4610c573660046150ad565b61233c565b348015610c6857600080fd5b506105b4612386565b348015610c7d57600080fd5b506105f9610c8c366004614d6d565b61239d565b348015610c9d57600080fd5b5060025461042590600160c81b900460ff1681565b348015610cbe57600080fd5b5061054f6125ce565b348015610cd357600080fd5b506105b4610ce2366004614cc6565b6125dd565b348015610cf357600080fd5b506011546104259060ff1681565b348015610d0d57600080fd5b506105f960165481565b348015610d2357600080fd5b506105b4612631565b348015610d3857600080fd5b5061054f612690565b348015610d4d57600080fd5b5061054f610d5c366004614831565b6126f7565b348015610d6d57600080fd5b50610d81610d7c366004614831565b612702565b604051610431919061512c565b348015610d9a57600080fd5b506105f9600080516020615a1683398151915281565b348015610dbc57600080fd5b506105b4610dcb366004614901565b6127bd565b348015610ddc57600080fd5b506105f960125481565b348015610df257600080fd5b506105b4610e0136600461518d565b6127d9565b348015610e1257600080fd5b506105b4610e21366004614cc6565b61283f565b348015610e3257600080fd5b506105b4612869565b348015610e4757600080fd5b5061054f6128af565b348015610e5c57600080fd5b5060025461057c906001600160a01b031681565b348015610e7c57600080fd5b506105b4610e8b366004614831565b6128be565b348015610e9c57600080fd5b506105b4612922565b348015610eb157600080fd5b506105b4610ec0366004615226565b61293f565b348015610ed157600080fd5b5061054f612b77565b348015610ee657600080fd5b50610425610ef5366004615291565b6001600160a01b039182166000908152600a6020908152604080832093909416825291909152205460ff1690565b348015610f2f57600080fd5b506105b4610f3e3660046152bf565b612b86565b348015610f4f57600080fd5b506105b4610f5e366004614cc6565b612ba5565b348015610f6f57600080fd5b506105f9600080516020615a5683398151915281565b348015610f9157600080fd5b506013546104259060ff1681565b6000610faa82612c50565b92915050565b6040805160608101825260008082526020820181905291810182905290610fd8601e84612c8c565b6000818152601d60209081526040918290208251808401845290546001600160a01b03808216835261ffff600160a01b90920482168385019081528551606081018752968752925116928501929092525116908201529392505050565b606061103f612c9f565b905090565b600061104f82612cae565b61106c576040516333d1c03960e21b815260040160405180910390fd5b506000908152600960205260409020546001600160a01b031690565b600061109382611cdc565b9050336001600160a01b038216146110cc576110af8133610ef5565b6110cc576040516367d9dca160e11b815260040160405180910390fd5b60008281526009602052604080822080546001600160a01b0319166001600160a01b0387811691821790925591518593918516917f8c5be1e5ebec7d5bd14f71427d1e84f3dd0314c0f7b2291e5b200ac8c7c3b92591a4505050565b611130612cd6565b6013805460ff19166001179055565b611159600080516020615a16833981519152610b17612d45565b61119c5760405162461bcd60e51b815260206004820152600f60248201526e4e4f545f4d494e5445525f524f4c4560881b60448201526064015b60405180910390fd5b6111a68282612d4f565b5050565b6111b2612cd6565b60008281526017602052604090205460e082013510156112085760405162461bcd60e51b81526020600482015260116024820152701313d5d15497d512105397d35253951151607a1b6044820152606401611193565b600082815260156020526040902060060154156112765760008281526017602052604090205460c082013510156112765760405162461bcd60e51b81526020600482015260126024820152711313d5d7d49154d154959157d05353d5539560721b6044820152606401611193565b600082815260176020526040902054156112e457600082815260156020526040902060040154608082013510156112e45760405162461bcd60e51b81526020600482015260126024820152711313d5d7d3505617d4115497d5d05313115560721b6044820152606401611193565b60008281526015602052604081206006015460168054919290916113099084906152ed565b9091555050600082815260156020526040902081906113288282615304565b9050508060c00135601660008282546113419190615375565b909155505060125460165411156111a65760405162461bcd60e51b815260206004820152601360248201527213505617d4d55414131657d15610d151511151606a1b6044820152606401611193565b600061139b82612db3565b9050836001600160a01b0316816001600160a01b0316146113ce5760405162a1148160e81b815260040160405180910390fd5b60008281526009602052604090208054338082146001600160a01b0388169091141761141b576113fe8633610ef5565b61141b57604051632ce44b5f60e11b815260040160405180910390fd5b6001600160a01b03851661144257604051633a954ecd60e21b815260040160405180910390fd5b61144f8686866001612e1a565b801561145a57600082555b6001600160a01b0386811660009081526008602052604080822080546000190190559187168152208054600101905561149785600160e11b612e26565b600085815260076020526040812091909155600160e11b841690036114ec576001840160008181526007602052604081205490036114ea5760035481146114ea5760008181526007602052604090208490555b505b83856001600160a01b0316876001600160a01b0316600080516020615a3683398151915260405160405180910390a45b505050505050565b6000908152601b602052604090206001015490565b6000828152601d602052604081205481906001600160a01b03161561159e576000848152601d60205260409020546001600160a01b038116906127109061158b90600160a01b900461ffff168661538d565b61159591906153c2565b915091506115f7565b601c546001600160a01b0316158015906115c45750601c54600160a01b900461ffff1615155b156115f057601c546001600160a01b038116906127109061158b90600160a01b900461ffff168661538d565b5060009050805b9250929050565b60606000826001600160401b0381111561161a5761161a614b01565b604051908082528060200260200182016040528015611643578160200160208202803683370190505b50905060005b838110156116c057611672858583818110611666576116666153d6565b9050602002013561232f565b6116ae57848482818110611688576116886153d6565b905060200201358282815181106116a1576116a16153d6565b6020026020010181815250505b806116b8816153ec565b915050611649565b509392505050565b6116d0612cd6565b600254600160b81b900460ff16156116fa5760405162461bcd60e51b815260040161119390615405565b6002805482919060ff60b01b1916600160b01b83600381111561171f5761171f614ad1565b021790555050565b61173082611524565b61173981612e3b565b6117438383612e4c565b505050565b61119c612cd6565b611758612cd6565b600e6111a6828261549f565b61176c612d45565b6001600160a01b0316816001600160a01b0316146117e45760405162461bcd60e51b815260206004820152602f60248201527f416363657373436f6e74726f6c3a2063616e206f6e6c792072656e6f756e636560448201526e103937b632b9903337b91039b2b63360891b6064820152608401611193565b6111a68282612ed3565b6117438383836040518060200160405280600081525061233c565b611811612cd6565b6111a68282808060200260200160405190810160405280939291908181526020016000905b82821015611862576118536060830286013681900381019061555e565b81526020019060010190611836565b5050505050612f58565b6020546001600160a01b0391821691161490565b600060195460165461189291906152ed565b600454600354036012546118a691906152ed565b6118b091906152ed565b600083815260156020526040902060060154909150156118fc576000828152601760209081526040808320546015909252909120600601546118f291906152ed565b610faa9082615375565b919050565b6002601454036119235760405162461bcd60e51b8152600401611193906155c4565b6002601455611940600080516020615a568339815191523361200a565b61195c5760405162461bcd60e51b8152600401611193906155fb565b60005b8181101561199a5761198883838381811061197c5761197c6153d6565b905060200201356130ff565b80611992816153ec565b91505061195f565b5050600160145550565b6002601454036119c65760405162461bcd60e51b8152600401611193906155c4565b600260145560006119d5612d45565b905060006119e6878387878761239d565b905080861115611a265760405162461bcd60e51b815260206004820152600b60248201526a08ab0868a8a88a6be9a82b60ab1b6044820152606401611193565b611a2f87611880565b861115611a4e5760405162461bcd60e51b81526004016111939061562d565b600087815260156020908152604080832060070154601790925290912054611a769088615375565b1115611a945760405162461bcd60e51b81526004016111939061562d565b6000878152601560205260409020600201546001600160a01b0316611b1b576000878152601560205260409020600301543490611ad290889061538d565b1115611b165760405162461bcd60e51b8152602060048201526013602482015272125394d551919250d251539517d05353d55395606a1b6044820152606401611193565b611bcf565b600087815260156020526040902060028101546003909101546001600160a01b03909116906323b872dd9084903090611b55908b9061538d565b6040516001600160e01b031960e086901b1681526001600160a01b03938416600482015292909116602483015260448201526064016020604051808303816000875af1158015611ba9573d6000803e3d6000fd5b505050506040513d601f19601f82011682018060405250810190611bcd9190615659565b505b60008781526018602090815260408083206001600160a01b038616845290915281208054889290611c01908490615375565b909155505060008781526017602052604081208054889290611c24908490615375565b909155505060008781526015602052604090206006015415611c58578560196000828254611c529190615375565b90915550505b611c628287612d4f565b505060016014555050505050565b600260145403611c925760405162461bcd60e51b8152600401611193906155c4565b6002601455611caf600080516020615a568339815191523361200a565b611ccb5760405162461bcd60e51b815260040161119390615676565b611cd4816130ff565b506001601455565b6000610faa82612db3565b611cef612cd6565b600254600160c81b900460ff1615611d3a5760405162461bcd60e51b815260206004820152600e60248201526d131250d15394d157d313d0d2d15160921b6044820152606401611193565b6002805482919060ff60c01b1916600160c01b83600581111561171f5761171f614ad1565b6000611df583838080602002602001604051908101604052809392919081815260200183836020028082843760009201829052508b8152601560205260409020600501549250611df09150899050886040516001600160601b0319606084901b1660208201526034810182905260009060540160405160208183030381529060405280519060200120905092915050565b613166565b90505b95945050505050565b611e09612cd6565b611e128161317c565b50565b60006001600160a01b038216611e3e576040516323d3ad8160e21b815260040160405180910390fd5b506001600160a01b03166000908152600860205260409020546001600160401b031690565b611e6b612cd6565b611e7560006131f2565b565b6060600e8054611e8690615425565b80601f0160208091040260200160405190810160405280929190818152602001828054611eb290615425565b8015611eff5780601f10611ed457610100808354040283529160200191611eff565b820191906000526020600020905b815481529060010190602001808311611ee257829003601f168201915b5050505050905090565b600061103f601e61324d565b611f1d612cd6565b600254600160a01b900460ff1615611f475760405162461bcd60e51b815260040161119390615405565b6002805460ff60a01b1916600160a01b179055565b600260145403611f7e5760405162461bcd60e51b8152600401611193906155c4565b6002601455611f9b600080516020615a568339815191523361200a565b611fb75760405162461bcd60e51b8152600401611193906155fb565b60005b8181101561199a57611fe3838383818110611fd757611fd76153d6565b90506020020135613257565b80611fed816153ec565b915050611fba565b6000546201000090046001600160a01b031690565b6000918252601b602090815260408084206001600160a01b0393909316845291905290205460ff1690565b61203d612cd6565b600d6111a6828261549f565b606061103f6132a1565b61205b612cd6565b60115460ff161561207e5760405162461bcd60e51b81526004016111939061569f565b600f6111a6828261549f565b336001600160a01b038316036120b35760405163b06307db60e01b815260040160405180910390fd5b336000818152600a602090815260408083206001600160a01b03871680855290835292819020805460ff191686151590811790915590519081529192917f17307eab39ab6107e8899845ad3d59bd9653f200f220920489ca2b5937696c31910160405180910390a35050565b60025460609061103f90600160c01b900460ff166132b0565b600054610100900460ff16158080156121585750600054600160ff909116105b80612179575061216730612c3d565b158015612179575060005460ff166001145b6121dc5760405162461bcd60e51b815260206004820152602e60248201527f496e697469616c697a61626c653a20636f6e747261637420697320616c72656160448201526d191e481a5b9a5d1a585b1a5e995960921b6064820152608401611193565b6000805460ff1916600117905580156121ff576000805461ff0019166101001790555b61220a600083613429565b612213826131f2565b6122238361012001516002613433565b612231836101600151613464565b612248836000015184602001518560400151613494565b61225a836060015184608001516134c6565b6122678360a001516134f7565b61226f613527565b61227882613556565b612280613586565b61228d8360c001516135b5565b6122a08360e001518461010001516135e5565b6122ae836101400151613616565b8015611743576000805461ff0019169055604051600181527f7f26b83ff96e1f2b6a682f133852f6798a09c465da95921460cefb38474024989060200160405180910390a1505050565b612300612cd6565b60115460ff16156123235760405162461bcd60e51b81526004016111939061569f565b60106111a6828261549f565b6000610faa601a83613646565b612347848484611390565b6001600160a01b0383163b15612380576123638484848461366a565b612380576040516368d2bf6b60e11b815260040160405180910390fd5b50505050565b61238e612cd6565b6011805460ff19166001179055565b6000858152601560205260408120600401546123e85760405162461bcd60e51b815260206004820152600a6024820152694e4f545f45584953545360b01b6044820152606401611193565b6000868152601560205260409020544210156124345760405162461bcd60e51b815260206004820152600b60248201526a1393d517d4d5105495115160aa1b6044820152606401611193565b6000868152601560205260409020600101544211156124855760405162461bcd60e51b815260206004820152600d60248201526c1053149150511657d153911151609a1b6044820152606401611193565b60008681526018602090815260408083206001600160a01b03891684528252808320548984526015909252909120600401546124c191906152ed565b60008781526015602052604090206005015490915015611df85760008681526018602090815260408083206001600160a01b0389168452909152902054841161253e5760405162461bcd60e51b815260206004820152600f60248201526e4d415845445f414c4c4f57414e434560881b6044820152606401611193565b61254b8686868686611d5f565b6125895760405162461bcd60e51b815260206004820152600f60248201526e1393d517d0531313d5d31254d51151608a1b6044820152606401611193565b60008681526018602090815260408083206001600160a01b03891684529091528120546125b690866152ed565b9050808211156125c4578091505b5095945050505050565b6060600f8054611e8690615425565b6125e5612cd6565b600254600160a01b900460ff161561260f5760405162461bcd60e51b815260040161119390615405565b600280546001600160a01b0319166001600160a01b0392909216919091179055565b612639612cd6565b600254600160b81b900460ff161561267b5760405162461bcd60e51b815260206004820152600560248201526413d0d2d15160da1b6044820152606401611193565b6002805460ff60b81b1916600160b81b179055565b60606040518060600160405280603181526020016159e5603191396002546126d290600160c01b900460ff1660058111156126cd576126cd614ad1565b613756565b6040516020016126e39291906156bf565b604051602081830303815290604052905090565b6060610faa82613856565b604080516001808252818301909252606091816020015b6040805180820190915260008082526020820152815260200190600190039081612719575050601c5481519192506001600160a01b0316908290600090612762576127626153d6565b60209081029190910101516001600160a01b03919091169052601c548151600160a01b90910461ffff1690829060009061279e5761279e6153d6565b6020908102919091018101516001600160601b03909216910152919050565b6127c682611524565b6127cf81612e3b565b6117438383612ed3565b6127e1612cd6565b60005b8381101561283857612826858583818110612801576128016153d6565b9050602002013584848481811061281a5761281a6153d6565b905061010002016111aa565b80612830816153ec565b9150506127e4565b5050505050565b612847612cd6565b602080546001600160a01b0319166001600160a01b0392909216919091179055565b612871612cd6565b6002805460ff60a81b1916600160a81b1790556040517fa24423a69b45c25c0479663125e48b482e71d85eae416f589545243bafaf3c9590600090a1565b606060108054611e8690615425565b6002601454036128e05760405162461bcd60e51b8152600401611193906155c4565b60026014556128fd600080516020615a568339815191523361200a565b6129195760405162461bcd60e51b815260040161119390615676565b611cd481613257565b61292a612cd6565b6002805460ff60c81b1916600160c81b179055565b61294833613932565b6002546001600160a01b03166129985760405162461bcd60e51b815260206004820152601560248201527415d2551211149055cbd393d7d49150d25412515395605a1b6044820152606401611193565b600254600160a81b900460ff16156129f25760405162461bcd60e51b815260206004820181905260248201527f57495448445241572f454d455247454e43595f504f5745525f5245564f4b45446044820152606401611193565b60005b83811015612b33576000858583818110612a1157612a116153d6565b9050602002016020810190612a269190614cc6565b6001600160a01b031603612a6957612a64838383818110612a4957612a496153d6565b6002546001600160a01b031692602090910201359050613ab7565b612b21565b848482818110612a7b57612a7b6153d6565b9050602002016020810190612a909190614cc6565b6002546001600160a01b039182169163a9059cbb9116858585818110612ab857612ab86153d6565b905060200201356040518363ffffffff1660e01b8152600401612adc9291906149ce565b6020604051808303816000875af1158015612afb573d6000803e3d6000fd5b505050506040513d601f19601f82011682018060405250810190612b1f9190615659565b505b80612b2b816153ec565b9150506129f5565b507fd40c399a83caf67d15628b821aa7c7bd940e563c57a047e2bd3b8c602bcaf5a584848484604051612b6994939291906156ee565b60405180910390a150505050565b6060600d8054611e8690615425565b612b8e612cd6565b611e12612ba036839003830183615772565b613bcd565b612bad612cd6565b6001600160a01b038116612c125760405162461bcd60e51b815260206004820152602660248201527f4f776e61626c653a206e6577206f776e657220697320746865207a65726f206160448201526564647265737360d01b6064820152608401611193565b611e12816131f2565b6000612c263361186c565b15612c38575060131936013560601c90565b503390565b6001600160a01b03163b151590565b3390565b60006301ffc9a760e01b6001600160e01b031983161480610faa5750506001600160e01b03191660009081526001602052604090205460ff1690565b6000612c988383613c78565b9392505050565b6060600b8054611e8690615425565b600060035482108015610faa575050600090815260076020526040902054600160e01b161590565b612cde612d45565b6001600160a01b0316612cef611ff5565b6001600160a01b031614611e755760405162461bcd60e51b815260206004820181905260248201527f4f776e61626c653a2063616c6c6572206973206e6f7420746865206f776e65726044820152606401611193565b600061103f612c1b565b60125481612d606004546003540390565b612d6a9190615375565b1115612da95760405162461bcd60e51b815260206004820152600e60248201526d455843454544535f535550504c5960901b6044820152606401611193565b6111a68282613ca2565b600081600354811015612e015760008181526007602052604081205490600160e01b82169003612dff575b80600003612c98575060001901600081815260076020526040902054612dde565b505b604051636f96cda160e11b815260040160405180910390fd5b61238084848484613cbc565b4260a01b176001600160a01b03919091161790565b611e1281612e47612d45565b613ce9565b612e56828261200a565b6111a6576000828152601b602090815260408083206001600160a01b03851684529091529020805460ff19166001179055612e8f612d45565b6001600160a01b0316816001600160a01b0316837f2f8788117e7eff1d82e926ec794901d17c78024a50270940304540a733656f0d60405160405180910390a45050565b612edd828261200a565b156111a6576000828152601b602090815260408083206001600160a01b03851684529091529020805460ff19169055612f14612d45565b6001600160a01b0316816001600160a01b0316837ff6391f5c32d9c69d2a47ea670b442974b53935d1edc7fd64eb21e047a839171b60405160405180910390a45050565b60005b81518110156111a6576000828281518110612f7857612f786153d6565b60200260200101519050612710816040015161ffff1610612fab5760405162461bcd60e51b8152600401611193906157ce565b60208101516001600160a01b03166130245780516000908152601d6020526040902080546001600160b01b03191690558051612fe990601e90613d4d565b5080516040519081527fa2870857763bd9ae76c957f869f16b31c18dd3bb4c7b4d3a4496dc5c57c657f99060200160405180910390a16130ec565b6040805180820182526020808401516001600160a01b0390811683528484015161ffff90811683850190815286516000908152601d90945294909220925183549451909216600160a01b026001600160b01b0319909416911617919091179055805161309290601e90613d59565b50805160208083015160408085015181519485526001600160a01b039092169284019290925261ffff1682820152517f389b70fb0887f01e83784eb1c4c589f740eca53b00ed0f45e41db5d079719abb9181900360600190a15b50806130f7816153ec565b915050612f5b565b61310a601a82613646565b6131435760405162461bcd60e51b815260206004820152600a6024820152691393d517d313d0d2d15160b21b6044820152606401611193565b600881901c6000908152601a602052604090208054600160ff84161b1916905550565b6000826131738584613d65565b14949350505050565b613184612cd6565b61318d81613daa565b60195460165461319d91906152ed565b600454600354036131ae90836152ed565b1015611e125760405162461bcd60e51b81526020600482015260136024820152721313d5d15497d512105397d49154d154959151606a1b6044820152606401611193565b600080546001600160a01b038381166201000081810262010000600160b01b0319851617855560405193049190911692909183917f8be0079c531659141344cd1fd0a4f28419497f9722a3daafe3b4186f6b6457e091a35050565b6000610faa825490565b613262601a82613646565b1561327f5760405162461bcd60e51b815260040161119390615405565b600881901c6000908152601a602052604090208054600160ff84161b17905550565b6060600c8054611e8690615425565b606060068260058111156132c6576132c6614ad1565b60ff1611156132d457600080fd5b8160058111156132e6576132e6614ad1565b60000361331057505060408051808201909152600781526604342455f4343360cc1b602082015290565b81600581111561332257613322614ad1565b60010361334c57505060408051808201909152600781526621a122afa2a1a960c91b602082015290565b81600581111561335e5761335e614ad1565b60020361338957505060408051808201909152600881526721a122afa722a1a960c11b602082015290565b81600581111561339b5761339b614ad1565b6003036133c957505060408051808201909152600b81526a4342455f4e4543525f485360a81b602082015290565b8160058111156133db576133db614ad1565b60040361340457505060408051808201909152600681526521a122afa82960d11b602082015290565b50506040805180820190915260098152684342455f50525f485360b81b602082015290565b6111a68282612e4c565b600054610100900460ff1661345a5760405162461bcd60e51b8152600401611193906157f3565b6111a68282613e46565b600054610100900460ff1661348b5760405162461bcd60e51b8152600401611193906157f3565b611e1281613eca565b600054610100900460ff166134bb5760405162461bcd60e51b8152600401611193906157f3565b611743838383613f11565b600054610100900460ff166134ed5760405162461bcd60e51b8152600401611193906157f3565b6111a68282613f9f565b600054610100900460ff1661351e5760405162461bcd60e51b8152600401611193906157f3565b611e128161402a565b600054610100900460ff1661354e5760405162461bcd60e51b8152600401611193906157f3565b611e75614086565b600054610100900460ff1661357d5760405162461bcd60e51b8152600401611193906157f3565b611e12816140bd565b600054610100900460ff166135ad5760405162461bcd60e51b8152600401611193906157f3565b611e7561410c565b600054610100900460ff166135dc5760405162461bcd60e51b8152600401611193906157f3565b611e1281614143565b600054610100900460ff1661360c5760405162461bcd60e51b8152600401611193906157f3565b6111a6828261425f565b600054610100900460ff1661363d5760405162461bcd60e51b8152600401611193906157f3565b611e12816142ef565b600881901c600090815260208390526040902054600160ff83161b16151592915050565b604051630a85bd0160e11b81526000906001600160a01b0385169063150b7a029061369f90339089908890889060040161583e565b6020604051808303816000875af19250505080156136da575060408051601f3d908101601f191682019092526136d791810190615871565b60015b613738573d808015613708576040519150601f19603f3d011682016040523d82523d6000602084013e61370d565b606091505b508051600003613730576040516368d2bf6b60e11b815260040160405180910390fd5b805181602001fd5b6001600160e01b031916630a85bd0160e11b1490505b949350505050565b60608160000361377d5750506040805180820190915260018152600360fc1b602082015290565b8160005b81156137a75780613791816153ec565b91506137a09050600a836153c2565b9150613781565b6000816001600160401b038111156137c1576137c1614b01565b6040519080825280601f01601f1916602001820160405280156137eb576020820181803683370190505b5090505b841561374e576138006001836152ed565b915061380d600a8661588e565b613818906030615375565b60f81b81838151811061382d5761382d6153d6565b60200101906001600160f81b031916908160001a90535061384f600a866153c2565b94506137ef565b60606000600f805461386790615425565b9050116138fe57600e805461387b90615425565b80601f01602080910402602001604051908101604052809291908181526020018280546138a790615425565b80156138f45780601f106138c9576101008083540402835291602001916138f4565b820191906000526020600020905b8154815290600101906020018083116138d757829003601f168201915b5050505050610faa565b600f61390983613756565b601060405160200161391d93929190615915565b60405160208183030381529060405292915050565b6003600254600160b01b900460ff16600381111561395257613952614ad1565b036139915760405162461bcd60e51b815260206004820152600f60248201526e15d2551211149055cbd313d0d2d151608a1b6044820152606401611193565b60028054600160b01b900460ff1660038111156139b0576139b0614ad1565b036139b85750565b6001600254600160b01b900460ff1660038111156139d8576139d8614ad1565b03613a34576002546001600160a01b03828116911614611e125760405162461bcd60e51b815260206004820152601760248201527615d2551211149055cbd3d3931657d49150d25412515395604a1b6044820152606401611193565b6000600254600160b01b900460ff166003811115613a5457613a54614ad1565b03611e1257806001600160a01b0316613a6b611ff5565b6001600160a01b031614611e125760405162461bcd60e51b81526020600482015260136024820152722ba4aa24222920ab97a7a7262cafa7aba722a960691b6044820152606401611193565b80471015613b075760405162461bcd60e51b815260206004820152601d60248201527f416464726573733a20696e73756666696369656e742062616c616e63650000006044820152606401611193565b6000826001600160a01b03168260405160006040518083038185875af1925050503d8060008114613b54576040519150601f19603f3d011682016040523d82523d6000602084013e613b59565b606091505b50509050806117435760405162461bcd60e51b815260206004820152603a60248201527f416464726573733a20756e61626c6520746f2073656e642076616c75652c20726044820152791958da5c1a595b9d081b585e481a185d99481c995d995c9d195960321b6064820152608401611193565b612710816020015161ffff1610613bf65760405162461bcd60e51b8152600401611193906157ce565b60408051808201825282516001600160a01b03168082526020808501805161ffff1691909301819052601c80546001600160b01b031916909217600160a01b9091021790558251905191517f2c5ea6e4103e78cb101e796fb2dace540362fc542cbff5145eaa24af7dd8fe4192613c6d9291614db9565b60405180910390a150565b6000826000018281548110613c8f57613c8f6153d6565b9060005260206000200154905092915050565b6111a6828260405180602001604052806000815250614316565b613cc7601a83613646565b15613ce45760405162461bcd60e51b815260040161119390615405565b612380565b613cf3828261200a565b6111a657613d0b816001600160a01b0316601461437c565b613d1683602061437c565b604051602001613d27929190615948565b60408051601f198184030181529082905262461bcd60e51b8252611193916004016148a2565b6000612c988383614517565b6000612c98838361460a565b600081815b84518110156116c057613d9682868381518110613d8957613d896153d6565b6020026020010151614659565b915080613da2816153ec565b915050613d6a565b613db2612cd6565b60135460ff1615613df75760405162461bcd60e51b815260206004820152600f60248201526e2120a9a2afaaa924afa32927ad22a760891b6044820152606401611193565b60045460035403811015613e415760405162461bcd60e51b81526020600482015260116024820152704c4f5745525f5448414e5f535550504c5960781b6044820152606401611193565b601255565b600054610100900460ff16613e6d5760405162461bcd60e51b8152600401611193906157f3565b613e7d63ac2ba33360e01b614688565b600280546001600160a01b0384166001600160a01b0319821681178355839291600162ff000160a01b03191617600160b01b836003811115613ec157613ec1614ad1565b02179055505050565b600054610100900460ff16613ef15760405162461bcd60e51b8152600401611193906157f3565b613f0163b964efe960e01b614688565b611d3a630c934a3560e31b614688565b600054610100900460ff16613f385760405162461bcd60e51b8152600401611193906157f3565b600b613f44848261549f565b50600c613f51838261549f565b50600d613f5e828261549f565b50613f6f633d96f4ff60e11b614688565b613f7f6380ac58cd60e01b614688565b613f8f63184371e560e31b614688565b611743635b5e139f60e01b614688565b600054610100900460ff16613fc65760405162461bcd60e51b8152600401611193906157f3565b600e613fd2838261549f565b50600f613fdf828261549f565b50604080518082019091526005815264173539b7b760d91b6020820152601090614009908261549f565b5061401a631f2f406b60e01b614688565b6111a6635b5e139f60e01b614688565b600054610100900460ff166140515760405162461bcd60e51b8152600401611193906157f3565b60128190556140666330f487b560e11b614688565b6140766380ac58cd60e01b614688565b611e1263184371e560e31b614688565b600054610100900460ff166140ad5760405162461bcd60e51b8152600401611193906157f3565b611e75631aa1577160e11b614688565b600054610100900460ff166140e45760405162461bcd60e51b8152600401611193906157f3565b6140f4631a056e7160e01b614688565b611e12600080516020615a1683398151915282613429565b600054610100900460ff166141335760405162461bcd60e51b8152600401611193906157f3565b611e7563714ad8e760e01b614688565b600054610100900460ff1661416a5760405162461bcd60e51b8152600401611193906157f3565b61417a6308b4902960e41b614688565b60005b81518110156111a657818181518110614198576141986153d6565b602090810291909101810151600083815260158352604090819020825181559282015160018401558101516002830180546001600160a01b0319166001600160a01b03909216919091179055606081015160038301556080810151600483015560a0810151600583015560c0810151600683015560e00151600790910155815182908290811061422a5761422a6153d6565b602002602001015160c00151601660008282546142479190615375565b90915550819050614257816153ec565b91505061417d565b600054610100900460ff166142865760405162461bcd60e51b8152600401611193906157f3565b614296633a47bf5160e11b614688565b6142a663152a902d60e11b614688565b6142b663c69dbd8f60e01b614688565b6142c663656cb66560e11b614688565b604080518082019091526001600160a01b038316815261ffff8216602082015261174381613bcd565b600054610100900460ff166128475760405162461bcd60e51b8152600401611193906157f3565b6143208383614709565b6001600160a01b0383163b15611743576003548281035b61434a600086838060010194508661366a565b614367576040516368d2bf6b60e11b815260040160405180910390fd5b81811061433757816003541461283857600080fd5b6060600061438b83600261538d565b614396906002615375565b6001600160401b038111156143ad576143ad614b01565b6040519080825280601f01601f1916602001820160405280156143d7576020820181803683370190505b509050600360fc1b816000815181106143f2576143f26153d6565b60200101906001600160f81b031916908160001a905350600f60fb1b81600181518110614421576144216153d6565b60200101906001600160f81b031916908160001a905350600061444584600261538d565b614450906001615375565b90505b60018111156144c8576f181899199a1a9b1b9c1cb0b131b232b360811b85600f1660108110614484576144846153d6565b1a60f81b82828151811061449a5761449a6153d6565b60200101906001600160f81b031916908160001a90535060049490941c936144c1816159b7565b9050614453565b508315612c985760405162461bcd60e51b815260206004820181905260248201527f537472696e67733a20686578206c656e67746820696e73756666696369656e746044820152606401611193565b6000818152600183016020526040812054801561460057600061453b6001836152ed565b855490915060009061454f906001906152ed565b90508181146145b457600086600001828154811061456f5761456f6153d6565b9060005260206000200154905080876000018481548110614592576145926153d6565b6000918252602080832090910192909255918252600188019052604090208390555b85548690806145c5576145c56159ce565b600190038181906000526020600020016000905590558560010160008681526020019081526020016000206000905560019350505050610faa565b6000915050610faa565b600081815260018301602052604081205461465157508154600181810184556000848152602080822090930184905584548482528286019093526040902091909155610faa565b506000610faa565b6000818310614675576000828152602084905260409020612c98565b6000838152602083905260409020612c98565b6001600160e01b031980821690036146e15760405162461bcd60e51b815260206004820152601c60248201527b115490cc4d8d4e881a5b9d985b1a59081a5b9d195c999858d9481a5960221b6044820152606401611193565b6001600160e01b0319166000908152600160208190526040909120805460ff19169091179055565b600354600082900361472e5760405163b562e8dd60e01b815260040160405180910390fd5b61473b6000848385612e1a565b6001600160a01b038316600090815260086020526040902080546001600160401b018402019055614772836001841460e11b612e26565b6000828152600760205260408120919091556001600160a01b038416908383019083908390600080516020615a368339815191528180a4600183015b8181146147d45780836000600080516020615a36833981519152600080a46001016147ae565b50816000036147f557604051622e076360e81b815260040160405180910390fd5b60035550505050565b6001600160e01b031981168114611e1257600080fd5b60006020828403121561482657600080fd5b8135612c98816147fe565b60006020828403121561484357600080fd5b5035919050565b60005b8381101561486557818101518382015260200161484d565b838111156123805750506000910152565b6000815180845261488e81602086016020860161484a565b601f01601f19169290920160200192915050565b602081526000612c986020830184614876565b6001600160a01b0381168114611e1257600080fd5b80356118fc816148b5565b600080604083850312156148e857600080fd5b82356148f3816148b5565b946020939093013593505050565b6000806040838503121561491457600080fd5b823591506020830135614926816148b5565b809150509250929050565b60008082840361012081121561494657600080fd5b83359250610100601f198201121561495d57600080fd5b506020830190509250929050565b60008060006060848603121561498057600080fd5b833561498b816148b5565b9250602084013561499b816148b5565b929592945050506040919091013590565b600080604083850312156149bf57600080fd5b50508035926020909101359150565b6001600160a01b03929092168252602082015260400190565b60008083601f8401126149f957600080fd5b5081356001600160401b03811115614a1057600080fd5b6020830191508360208260051b85010111156115f757600080fd5b60008060208385031215614a3e57600080fd5b82356001600160401b03811115614a5457600080fd5b614a60858286016149e7565b90969095509350505050565b6020808252825182820181905260009190848201906040850190845b81811015614aa457835183529284019291840191600101614a88565b50909695505050505050565b600060208284031215614ac257600080fd5b813560048110612c9857600080fd5b634e487b7160e01b600052602160045260246000fd5b6020810160048310614afb57614afb614ad1565b91905290565b634e487b7160e01b600052604160045260246000fd5b60405161010081016001600160401b0381118282101715614b3a57614b3a614b01565b60405290565b60405161018081016001600160401b0381118282101715614b3a57614b3a614b01565b604051601f8201601f191681016001600160401b0381118282101715614b8b57614b8b614b01565b604052919050565b60006001600160401b03831115614bac57614bac614b01565b614bbf601f8401601f1916602001614b63565b9050828152838383011115614bd357600080fd5b828260208301376000602084830101529392505050565b600082601f830112614bfb57600080fd5b612c9883833560208501614b93565b600060208284031215614c1c57600080fd5b81356001600160401b03811115614c3257600080fd5b61374e84828501614bea565b6020810160068310614afb57614afb614ad1565b60008060208385031215614c6557600080fd5b82356001600160401b0380821115614c7c57600080fd5b818501915085601f830112614c9057600080fd5b813581811115614c9f57600080fd5b866020606083028501011115614cb457600080fd5b60209290920196919550909350505050565b600060208284031215614cd857600080fd5b8135612c98816148b5565b600080600080600060808688031215614cfb57600080fd5b85359450602086013593506040860135925060608601356001600160401b03811115614d2657600080fd5b614d32888289016149e7565b969995985093965092949392505050565b8035600681106118fc57600080fd5b600060208284031215614d6457600080fd5b612c9882614d43565b600080600080600060808688031215614d8557600080fd5b853594506020860135614d97816148b5565b93506040860135925060608601356001600160401b03811115614d2657600080fd5b6001600160a01b0392909216825261ffff16602082015260400190565b8015158114611e1257600080fd5b60008060408385031215614df757600080fd5b8235614e02816148b5565b9150602083013561492681614dd6565b600082601f830112614e2357600080fd5b813560206001600160401b03821115614e3e57614e3e614b01565b614e4c818360051b01614b63565b82815260089290921b84018101918181019086841115614e6b57600080fd5b8286015b84811015614ef1576101008189031215614e895760008081fd5b614e91614b17565b813581528482013585820152604080830135614eac816148b5565b90820152606082810135908201526080808301359082015260a0808301359082015260c0808301359082015260e0808301359082015283529183019161010001614e6f565b509695505050505050565b803561ffff811681146118fc57600080fd5b60008060408385031215614f2157600080fd5b82356001600160401b0380821115614f3857600080fd5b908401906101808287031215614f4d57600080fd5b614f55614b40565b823582811115614f6457600080fd5b614f7088828601614bea565b825250602083013582811115614f8557600080fd5b614f9188828601614bea565b602083015250604083013582811115614fa957600080fd5b614fb588828601614bea565b604083015250606083013582811115614fcd57600080fd5b614fd988828601614bea565b606083015250608083013582811115614ff157600080fd5b614ffd88828601614bea565b60808301525060a083013560a082015260c08301358281111561501f57600080fd5b61502b88828601614e12565b60c08301525061503d60e084016148ca565b60e08201526101009150615052828401614efc565b8282015261012091506150668284016148ca565b82820152610140915061507a8284016148ca565b82820152610160915061508e828401614d43565b828201528094505050506150a4602084016148ca565b90509250929050565b600080600080608085870312156150c357600080fd5b84356150ce816148b5565b935060208501356150de816148b5565b92506040850135915060608501356001600160401b0381111561510057600080fd5b8501601f8101871361511157600080fd5b61512087823560208401614b93565b91505092959194509250565b602080825282518282018190526000919060409081850190868401855b8281101561518057815180516001600160a01b031685528601516001600160601b0316868501529284019290850190600101615149565b5091979650505050505050565b600080600080604085870312156151a357600080fd5b84356001600160401b03808211156151ba57600080fd5b6151c6888389016149e7565b909650945060208701359150808211156151df57600080fd5b818701915087601f8301126151f357600080fd5b81358181111561520257600080fd5b8860208260081b850101111561521757600080fd5b95989497505060200194505050565b6000806000806040858703121561523c57600080fd5b84356001600160401b038082111561525357600080fd5b61525f888389016149e7565b9096509450602087013591508082111561527857600080fd5b50615285878288016149e7565b95989497509550505050565b600080604083850312156152a457600080fd5b82356152af816148b5565b91506020830135614926816148b5565b6000604082840312156152d157600080fd5b50919050565b634e487b7160e01b600052601160045260246000fd5b6000828210156152ff576152ff6152d7565b500390565b8135815560208201356001820155600281016040830135615324816148b5565b81546001600160a01b0319166001600160a01b0391909116179055606082013560038201556080820135600482015560a0820135600582015560c0820135600682015560e090910135600790910155565b60008219821115615388576153886152d7565b500190565b60008160001904831182151516156153a7576153a76152d7565b500290565b634e487b7160e01b600052601260045260246000fd5b6000826153d1576153d16153ac565b500490565b634e487b7160e01b600052603260045260246000fd5b6000600182016153fe576153fe6152d7565b5060010190565b6020808252600690820152651313d0d2d15160d21b604082015260600190565b600181811c9082168061543957607f821691505b6020821081036152d157634e487b7160e01b600052602260045260246000fd5b601f82111561174357600081815260208120601f850160051c810160208610156154805750805b601f850160051c820191505b8181101561151c5782815560010161548c565b81516001600160401b038111156154b8576154b8614b01565b6154cc816154c68454615425565b84615459565b602080601f83116001811461550157600084156154e95750858301515b600019600386901b1c1916600185901b17855561151c565b600085815260208120601f198616915b8281101561553057888601518255948401946001909101908401615511565b508582101561554e5787850151600019600388901b60f8161c191681555b5050505050600190811b01905550565b60006060828403121561557057600080fd5b604051606081018181106001600160401b038211171561559257615592614b01565b6040528235815260208301356155a7816148b5565b60208201526155b860408401614efc565b60408201529392505050565b6020808252601f908201527f5265656e7472616e637947756172643a207265656e7472616e742063616c6c00604082015260600190565b6020808252601890820152775354414b41424c455f4e4f545f4c4f434b45525f524f4c4560401b604082015260600190565b60208082526012908201527122ac21a2a2a229afa0a62627a1a0aa24a7a760711b604082015260600190565b60006020828403121561566b57600080fd5b8151612c9881614dd6565b6020808252600f908201526e4e4f545f4c4f434b45525f524f4c4560881b604082015260600190565b602080825260069082015265232927ad22a760d11b604082015260600190565b600083516156d181846020880161484a565b8351908301906156e581836020880161484a565b01949350505050565b6040808252810184905260008560608301825b87811015615731578235615714816148b5565b6001600160a01b0316825260209283019290910190600101615701565b5083810360208501528481526001600160fb1b0385111561575157600080fd5b8460051b915081866020830137600091016020019081529695505050505050565b60006040828403121561578457600080fd5b604051604081018181106001600160401b03821117156157a6576157a6614b01565b60405282356157b4816148b5565b81526157c260208401614efc565b60208201529392505050565b6020808252600b908201526a496e76616c69642062707360a81b604082015260600190565b6020808252602b908201527f496e697469616c697a61626c653a20636f6e7472616374206973206e6f74206960408201526a6e697469616c697a696e6760a81b606082015260800190565b6001600160a01b0385811682528416602082015260408101839052608060608201819052600090611df590830184614876565b60006020828403121561588357600080fd5b8151612c98816147fe565b60008261589d5761589d6153ac565b500690565b600081546158af81615425565b600182811680156158c757600181146158dc5761590b565b60ff198416875282151583028701945061590b565b8560005260208060002060005b858110156159025781548a8201529084019082016158e9565b50505082870194505b5050505092915050565b600061592182866158a2565b845161593181836020890161484a565b61593d818301866158a2565b979650505050505050565b76020b1b1b2b9b9a1b7b73a3937b61d1030b1b1b7bab73a1604d1b81526000835161597a81601785016020880161484a565b7001034b99036b4b9b9b4b733903937b6329607d1b60179184019182015283516159ab81602884016020880161484a565b01602801949350505050565b6000816159c6576159c66152d7565b506000190190565b634e487b7160e01b600052603160045260246000fdfe61723a2f2f5f44396b4e3157724e576243713535425341475262544234625333763851415054596d42546853625833412f9f2df0fed2c77648de5860a4cc508cd0818c85b8b8a1ab4ceeef8d981c8956a6ddf252ad1be2c89b69c2b068fc378daa952ba7f163c4a11628f55a4df523b3efaf9a8bb3cbd6b84fbccefa71ff73e26e798553c6914585a84886212a46a90279a264697066735822122012569abe56bae4f7a3cd5d57159e755fc4872e2c63edee2e4ab24bf748bc2c6664736f6c634300080f0033",
  "devdoc": {
    "kind": "dev",
    "methods": {
      "approve(address,uint256)": {
        "details": "Gives permission to `to` to transfer `tokenId` token to another account. The approval is cleared when the token is transferred. Only a single account can be approved at a time, so approving the zero address clears previous approvals. Requirements: - The caller must own the token or be an approved operator. - `tokenId` must exist. Emits an {Approval} event."
      },
      "balanceOf(address)": {
        "details": "Returns the number of tokens in `owner`'s account."
      },
      "getApproved(uint256)": {
        "details": "Returns the account approved for `tokenId` token. Requirements: - `tokenId` must exist."
      },
      "getRoleAdmin(bytes32)": {
        "details": "Returns the admin role that controls `role`. See {grantRole} and {revokeRole}. To change a role's admin, use {_setRoleAdmin}."
      },
      "getTokenRoyaltiesCount()": {
        "details": "See {IEIP2981RoyaltyOverride-getTokenRoyaltiesCount}."
      },
      "getTokenRoyaltyByIndex(uint256)": {
        "details": "See {IEIP2981RoyaltyOverride-getTokenRoyaltyByIndex}."
      },
      "grantRole(bytes32,address)": {
        "details": "Grants `role` to `account`. If `account` had not been already granted `role`, emits a {RoleGranted} event. Requirements: - the caller must have ``role``'s admin role. May emit a {RoleGranted} event."
      },
      "hasRole(bytes32,address)": {
        "details": "Returns `true` if `account` has been granted `role`."
      },
      "isApprovedForAll(address,address)": {
        "details": "Returns if the `operator` is allowed to manage all of the assets of `owner`. See {setApprovalForAll}."
      },
      "owner()": {
        "details": "Returns the address of the current owner."
      },
      "ownerOf(uint256)": {
        "details": "Returns the owner of the `tokenId` token. Requirements: - `tokenId` must exist."
      },
      "renounceOwnership()": {
        "details": "Leaves the contract without owner. It will not be possible to call `onlyOwner` functions anymore. Can only be called by the current owner. NOTE: Renouncing ownership will leave the contract without an owner, thereby removing any functionality that is only available to the owner."
      },
      "renounceRole(bytes32,address)": {
        "details": "Revokes `role` from the calling account. Roles are often managed via {grantRole} and {revokeRole}: this function's purpose is to provide a mechanism for accounts to lose their privileges if they are compromised (such as when a trusted device is misplaced). If the calling account had been revoked `role`, emits a {RoleRevoked} event. Requirements: - the caller must be `account`. May emit a {RoleRevoked} event."
      },
      "revokeRole(bytes32,address)": {
        "details": "Revokes `role` from `account`. If `account` had been granted `role`, emits a {RoleRevoked} event. Requirements: - the caller must have ``role``'s admin role. May emit a {RoleRevoked} event."
      },
      "royaltyInfo(uint256,uint256)": {
        "details": "See {IEIP2981RoyaltyOverride-royaltyInfo}."
      },
      "safeTransferFrom(address,address,uint256)": {
        "details": "Equivalent to `safeTransferFrom(from, to, tokenId, '')`."
      },
      "safeTransferFrom(address,address,uint256,bytes)": {
        "details": "Safely transfers `tokenId` token from `from` to `to`. Requirements: - `from` cannot be the zero address. - `to` cannot be the zero address. - `tokenId` token must exist and be owned by `from`. - If the caller is not `from`, it must be approved to move this token by either {approve} or {setApprovalForAll}. - If `to` refers to a smart contract, it must implement {IERC721Receiver-onERC721Received}, which is called upon a safe transfer. Emits a {Transfer} event."
      },
      "setApprovalForAll(address,bool)": {
        "details": "Approve or remove `operator` as an operator for the caller. Operators can call {transferFrom} or {safeTransferFrom} for any token owned by the caller. Requirements: - The `operator` cannot be the caller. Emits an {ApprovalForAll} event."
      },
      "totalSupply()": {
        "details": "Returns the total number of tokens in existence. Burned tokens will reduce the count. To get the total number of tokens minted, please see {_totalMinted}."
      },
      "transferFrom(address,address,uint256)": {
        "details": "Transfers `tokenId` from `from` to `to`. Requirements: - `from` cannot be the zero address. - `to` cannot be the zero address. - `tokenId` token must be owned by `from`. - If the caller is not `from`, it must be approved to move this token by either {approve} or {setApprovalForAll}. Emits a {Transfer} event."
      },
      "transferOwnership(address)": {
        "details": "Transfers ownership of the contract to a new account (`newOwner`). Can only be called by the current owner."
      }
    },
    "version": 1
  },
  "userdoc": {
    "errors": {
      "ApprovalCallerNotOwnerNorApproved()": [
        {
          "notice": "The caller must own the token or be an approved operator."
        }
      ],
      "ApprovalQueryForNonexistentToken()": [
        {
          "notice": "The token does not exist."
        }
      ],
      "ApproveToCaller()": [
        {
          "notice": "The caller cannot approve to their own address."
        }
      ],
      "BalanceQueryForZeroAddress()": [
        {
          "notice": "Cannot query the balance for the zero address."
        }
      ],
      "MintERC2309QuantityExceedsLimit()": [
        {
          "notice": "The `quantity` minted with ERC2309 exceeds the safety limit."
        }
      ],
      "MintToZeroAddress()": [
        {
          "notice": "Cannot mint to the zero address."
        }
      ],
      "MintZeroQuantity()": [
        {
          "notice": "The quantity of tokens minted must be more than zero."
        }
      ],
      "OwnerQueryForNonexistentToken()": [
        {
          "notice": "The token does not exist."
        }
      ],
      "OwnershipNotInitializedForExtraData()": [
        {
          "notice": "The `extraData` cannot be set on an unintialized ownership slot."
        }
      ],
      "TransferCallerNotOwnerNorApproved()": [
        {
          "notice": "The caller must own the token or be an approved operator."
        }
      ],
      "TransferFromIncorrectOwner()": [
        {
          "notice": "The token must be owned by `from`."
        }
      ],
      "TransferToNonERC721ReceiverImplementer()": [
        {
          "notice": "Cannot safely transfer to a contract that does not implement the ERC721Receiver interface."
        }
      ],
      "TransferToZeroAddress()": [
        {
          "notice": "Cannot transfer to the zero address."
        }
      ],
      "URIQueryForNonexistentToken()": [
        {
          "notice": "The token does not exist."
        }
      ]
    },
    "kind": "user",
    "methods": {
      "lock(uint256)": {
        "notice": "Locks token(s) to effectively lock them, while keeping in the same wallet. This mechanism prevents them from being transferred, yet still will show correct owner."
      },
      "locked(uint256)": {
        "notice": "Returns if a token is locked or not."
      },
      "unlock(uint256)": {
        "notice": "Unlocks locked token(s) to be able to transfer."
      }
    },
    "version": 1
  },
  "storageLayout": {
    "storage": [
      {
        "astId": 1101,
        "contract": "contracts/collections/ERC721A/presets/ERC721ATieredSalesCollection.sol:ERC721ATieredSalesCollection",
        "label": "_initialized",
        "offset": 0,
        "slot": "0",
        "type": "t_uint8"
      },
      {
        "astId": 1104,
        "contract": "contracts/collections/ERC721A/presets/ERC721ATieredSalesCollection.sol:ERC721ATieredSalesCollection",
        "label": "_initializing",
        "offset": 1,
        "slot": "0",
        "type": "t_bool"
      },
      {
        "astId": 937,
        "contract": "contracts/collections/ERC721A/presets/ERC721ATieredSalesCollection.sol:ERC721ATieredSalesCollection",
        "label": "_owner",
        "offset": 2,
        "slot": "0",
        "type": "t_address"
      },
      {
        "astId": 5404,
        "contract": "contracts/collections/ERC721A/presets/ERC721ATieredSalesCollection.sol:ERC721ATieredSalesCollection",
        "label": "_supportedInterfaces",
        "offset": 0,
        "slot": "1",
        "type": "t_mapping(t_bytes4,t_bool)"
      },
      {
        "astId": 14730,
        "contract": "contracts/collections/ERC721A/presets/ERC721ATieredSalesCollection.sol:ERC721ATieredSalesCollection",
        "label": "withdrawRecipient",
        "offset": 0,
        "slot": "2",
        "type": "t_address"
      },
      {
        "astId": 14732,
        "contract": "contracts/collections/ERC721A/presets/ERC721ATieredSalesCollection.sol:ERC721ATieredSalesCollection",
        "label": "withdrawRecipientLocked",
        "offset": 20,
        "slot": "2",
        "type": "t_bool"
      },
      {
        "astId": 14734,
        "contract": "contracts/collections/ERC721A/presets/ERC721ATieredSalesCollection.sol:ERC721ATieredSalesCollection",
        "label": "withdrawPowerRevoked",
        "offset": 21,
        "slot": "2",
        "type": "t_bool"
      },
      {
        "astId": 14737,
        "contract": "contracts/collections/ERC721A/presets/ERC721ATieredSalesCollection.sol:ERC721ATieredSalesCollection",
        "label": "withdrawMode",
        "offset": 22,
        "slot": "2",
        "type": "t_enum(WithdrawMode)14674"
      },
      {
        "astId": 14739,
        "contract": "contracts/collections/ERC721A/presets/ERC721ATieredSalesCollection.sol:ERC721ATieredSalesCollection",
        "label": "withdrawModeLocked",
        "offset": 23,
        "slot": "2",
        "type": "t_bool"
      },
      {
        "astId": 24,
        "contract": "contracts/collections/ERC721A/presets/ERC721ATieredSalesCollection.sol:ERC721ATieredSalesCollection",
        "label": "licenseVersion",
        "offset": 24,
        "slot": "2",
        "type": "t_enum(LicenseVersion)11"
      },
      {
        "astId": 14563,
        "contract": "contracts/collections/ERC721A/presets/ERC721ATieredSalesCollection.sol:ERC721ATieredSalesCollection",
        "label": "licenseVersionLocked",
        "offset": 25,
        "slot": "2",
        "type": "t_bool"
      },
      {
        "astId": 21533,
        "contract": "contracts/collections/ERC721A/presets/ERC721ATieredSalesCollection.sol:ERC721ATieredSalesCollection",
        "label": "_currentIndex",
        "offset": 0,
        "slot": "3",
        "type": "t_uint256"
      },
      {
        "astId": 21535,
        "contract": "contracts/collections/ERC721A/presets/ERC721ATieredSalesCollection.sol:ERC721ATieredSalesCollection",
        "label": "_burnCounter",
        "offset": 0,
        "slot": "4",
        "type": "t_uint256"
      },
      {
        "astId": 21537,
        "contract": "contracts/collections/ERC721A/presets/ERC721ATieredSalesCollection.sol:ERC721ATieredSalesCollection",
        "label": "_name",
        "offset": 0,
        "slot": "5",
        "type": "t_string_storage"
      },
      {
        "astId": 21539,
        "contract": "contracts/collections/ERC721A/presets/ERC721ATieredSalesCollection.sol:ERC721ATieredSalesCollection",
        "label": "_symbol",
        "offset": 0,
        "slot": "6",
        "type": "t_string_storage"
      },
      {
        "astId": 21543,
        "contract": "contracts/collections/ERC721A/presets/ERC721ATieredSalesCollection.sol:ERC721ATieredSalesCollection",
        "label": "_packedOwnerships",
        "offset": 0,
        "slot": "7",
        "type": "t_mapping(t_uint256,t_uint256)"
      },
      {
        "astId": 21547,
        "contract": "contracts/collections/ERC721A/presets/ERC721ATieredSalesCollection.sol:ERC721ATieredSalesCollection",
        "label": "_packedAddressData",
        "offset": 0,
        "slot": "8",
        "type": "t_mapping(t_address,t_uint256)"
      },
      {
        "astId": 21552,
        "contract": "contracts/collections/ERC721A/presets/ERC721ATieredSalesCollection.sol:ERC721ATieredSalesCollection",
        "label": "_tokenApprovals",
        "offset": 0,
        "slot": "9",
        "type": "t_mapping(t_uint256,t_struct(TokenApprovalRef)21465_storage)"
      },
      {
        "astId": 21558,
        "contract": "contracts/collections/ERC721A/presets/ERC721ATieredSalesCollection.sol:ERC721ATieredSalesCollection",
        "label": "_operatorApprovals",
        "offset": 0,
        "slot": "10",
        "type": "t_mapping(t_address,t_mapping(t_address,t_bool))"
      },
      {
        "astId": 10995,
        "contract": "contracts/collections/ERC721A/presets/ERC721ATieredSalesCollection.sol:ERC721ATieredSalesCollection",
        "label": "_name",
        "offset": 0,
        "slot": "11",
        "type": "t_string_storage"
      },
      {
        "astId": 10997,
        "contract": "contracts/collections/ERC721A/presets/ERC721ATieredSalesCollection.sol:ERC721ATieredSalesCollection",
        "label": "_symbol",
        "offset": 0,
        "slot": "12",
        "type": "t_string_storage"
      },
      {
        "astId": 10999,
        "contract": "contracts/collections/ERC721A/presets/ERC721ATieredSalesCollection.sol:ERC721ATieredSalesCollection",
        "label": "_contractURI",
        "offset": 0,
        "slot": "13",
        "type": "t_string_storage"
      },
      {
        "astId": 12431,
        "contract": "contracts/collections/ERC721A/presets/ERC721ATieredSalesCollection.sol:ERC721ATieredSalesCollection",
        "label": "_placeholderURI",
        "offset": 0,
        "slot": "14",
        "type": "t_string_storage"
      },
      {
        "astId": 12433,
        "contract": "contracts/collections/ERC721A/presets/ERC721ATieredSalesCollection.sol:ERC721ATieredSalesCollection",
        "label": "_tokenURIPrefix",
        "offset": 0,
        "slot": "15",
        "type": "t_string_storage"
      },
      {
        "astId": 12435,
        "contract": "contracts/collections/ERC721A/presets/ERC721ATieredSalesCollection.sol:ERC721ATieredSalesCollection",
        "label": "_tokenURISuffix",
        "offset": 0,
        "slot": "16",
        "type": "t_string_storage"
      },
      {
        "astId": 12437,
        "contract": "contracts/collections/ERC721A/presets/ERC721ATieredSalesCollection.sol:ERC721ATieredSalesCollection",
        "label": "tokenURIFrozen",
        "offset": 0,
        "slot": "17",
        "type": "t_bool"
      },
      {
        "astId": 11447,
        "contract": "contracts/collections/ERC721A/presets/ERC721ATieredSalesCollection.sol:ERC721ATieredSalesCollection",
        "label": "maxSupply",
        "offset": 0,
        "slot": "18",
        "type": "t_uint256"
      },
      {
        "astId": 11449,
        "contract": "contracts/collections/ERC721A/presets/ERC721ATieredSalesCollection.sol:ERC721ATieredSalesCollection",
        "label": "maxSupplyFrozen",
        "offset": 0,
        "slot": "19",
        "type": "t_bool"
      },
      {
        "astId": 1364,
        "contract": "contracts/collections/ERC721A/presets/ERC721ATieredSalesCollection.sol:ERC721ATieredSalesCollection",
        "label": "_status",
        "offset": 0,
        "slot": "20",
        "type": "t_uint256"
      },
      {
        "astId": 13091,
        "contract": "contracts/collections/ERC721A/presets/ERC721ATieredSalesCollection.sol:ERC721ATieredSalesCollection",
        "label": "tiers",
        "offset": 0,
        "slot": "21",
        "type": "t_mapping(t_uint256,t_struct(Tier)9079_storage)"
      },
      {
        "astId": 13093,
        "contract": "contracts/collections/ERC721A/presets/ERC721ATieredSalesCollection.sol:ERC721ATieredSalesCollection",
        "label": "totalReserved",
        "offset": 0,
        "slot": "22",
        "type": "t_uint256"
      },
      {
        "astId": 13097,
        "contract": "contracts/collections/ERC721A/presets/ERC721ATieredSalesCollection.sol:ERC721ATieredSalesCollection",
        "label": "tierMints",
        "offset": 0,
        "slot": "23",
        "type": "t_mapping(t_uint256,t_uint256)"
      },
      {
        "astId": 13103,
        "contract": "contracts/collections/ERC721A/presets/ERC721ATieredSalesCollection.sol:ERC721ATieredSalesCollection",
        "label": "walletMinted",
        "offset": 0,
        "slot": "24",
        "type": "t_mapping(t_uint256,t_mapping(t_address,t_uint256))"
      },
      {
        "astId": 13105,
        "contract": "contracts/collections/ERC721A/presets/ERC721ATieredSalesCollection.sol:ERC721ATieredSalesCollection",
        "label": "reservedMints",
        "offset": 0,
        "slot": "25",
        "type": "t_uint256"
      },
      {
        "astId": 11248,
        "contract": "contracts/collections/ERC721A/presets/ERC721ATieredSalesCollection.sol:ERC721ATieredSalesCollection",
        "label": "lockedTokens",
        "offset": 0,
        "slot": "26",
        "type": "t_struct(BitMap)5776_storage"
      },
      {
        "astId": 561,
        "contract": "contracts/collections/ERC721A/presets/ERC721ATieredSalesCollection.sol:ERC721ATieredSalesCollection",
        "label": "_roles",
        "offset": 0,
        "slot": "27",
        "type": "t_mapping(t_bytes32,t_struct(RoleData)556_storage)"
      },
      {
        "astId": 241,
        "contract": "contracts/collections/ERC721A/presets/ERC721ATieredSalesCollection.sol:ERC721ATieredSalesCollection",
        "label": "defaultRoyalty",
        "offset": 0,
        "slot": "28",
        "type": "t_struct(TokenRoyalty)183_storage"
      },
      {
        "astId": 246,
        "contract": "contracts/collections/ERC721A/presets/ERC721ATieredSalesCollection.sol:ERC721ATieredSalesCollection",
        "label": "_tokenRoyalties",
        "offset": 0,
        "slot": "29",
        "type": "t_mapping(t_uint256,t_struct(TokenRoyalty)183_storage)"
      },
      {
        "astId": 249,
        "contract": "contracts/collections/ERC721A/presets/ERC721ATieredSalesCollection.sol:ERC721ATieredSalesCollection",
        "label": "_tokensWithRoyalties",
        "offset": 0,
        "slot": "30",
        "type": "t_struct(UintSet)6375_storage"
      },
      {
        "astId": 15010,
        "contract": "contracts/collections/ERC721A/presets/ERC721ATieredSalesCollection.sol:ERC721ATieredSalesCollection",
        "label": "_trustedForwarder",
        "offset": 0,
        "slot": "32",
        "type": "t_address"
      }
    ],
    "types": {
      "t_address": {
        "encoding": "inplace",
        "label": "address",
        "numberOfBytes": "20"
      },
      "t_array(t_bytes32)dyn_storage": {
        "base": "t_bytes32",
        "encoding": "dynamic_array",
        "label": "bytes32[]",
        "numberOfBytes": "32"
      },
      "t_bool": {
        "encoding": "inplace",
        "label": "bool",
        "numberOfBytes": "1"
      },
      "t_bytes32": {
        "encoding": "inplace",
        "label": "bytes32",
        "numberOfBytes": "32"
      },
      "t_bytes4": {
        "encoding": "inplace",
        "label": "bytes4",
        "numberOfBytes": "4"
      },
      "t_enum(LicenseVersion)11": {
        "encoding": "inplace",
        "label": "enum LicenseVersion",
        "numberOfBytes": "1"
      },
      "t_enum(WithdrawMode)14674": {
        "encoding": "inplace",
        "label": "enum WithdrawMode",
        "numberOfBytes": "1"
      },
      "t_mapping(t_address,t_bool)": {
        "encoding": "mapping",
        "key": "t_address",
        "label": "mapping(address => bool)",
        "numberOfBytes": "32",
        "value": "t_bool"
      },
      "t_mapping(t_address,t_mapping(t_address,t_bool))": {
        "encoding": "mapping",
        "key": "t_address",
        "label": "mapping(address => mapping(address => bool))",
        "numberOfBytes": "32",
        "value": "t_mapping(t_address,t_bool)"
      },
      "t_mapping(t_address,t_uint256)": {
        "encoding": "mapping",
        "key": "t_address",
        "label": "mapping(address => uint256)",
        "numberOfBytes": "32",
        "value": "t_uint256"
      },
      "t_mapping(t_bytes32,t_struct(RoleData)556_storage)": {
        "encoding": "mapping",
        "key": "t_bytes32",
        "label": "mapping(bytes32 => struct AccessControl.RoleData)",
        "numberOfBytes": "32",
        "value": "t_struct(RoleData)556_storage"
      },
      "t_mapping(t_bytes32,t_uint256)": {
        "encoding": "mapping",
        "key": "t_bytes32",
        "label": "mapping(bytes32 => uint256)",
        "numberOfBytes": "32",
        "value": "t_uint256"
      },
      "t_mapping(t_bytes4,t_bool)": {
        "encoding": "mapping",
        "key": "t_bytes4",
        "label": "mapping(bytes4 => bool)",
        "numberOfBytes": "32",
        "value": "t_bool"
      },
      "t_mapping(t_uint256,t_mapping(t_address,t_uint256))": {
        "encoding": "mapping",
        "key": "t_uint256",
        "label": "mapping(uint256 => mapping(address => uint256))",
        "numberOfBytes": "32",
        "value": "t_mapping(t_address,t_uint256)"
      },
      "t_mapping(t_uint256,t_struct(Tier)9079_storage)": {
        "encoding": "mapping",
        "key": "t_uint256",
        "label": "mapping(uint256 => struct IERC721TieringExtension.Tier)",
        "numberOfBytes": "32",
        "value": "t_struct(Tier)9079_storage"
      },
      "t_mapping(t_uint256,t_struct(TokenApprovalRef)21465_storage)": {
        "encoding": "mapping",
        "key": "t_uint256",
        "label": "mapping(uint256 => struct ERC721A.TokenApprovalRef)",
        "numberOfBytes": "32",
        "value": "t_struct(TokenApprovalRef)21465_storage"
      },
      "t_mapping(t_uint256,t_struct(TokenRoyalty)183_storage)": {
        "encoding": "mapping",
        "key": "t_uint256",
        "label": "mapping(uint256 => struct IEIP2981RoyaltyOverride.TokenRoyalty)",
        "numberOfBytes": "32",
        "value": "t_struct(TokenRoyalty)183_storage"
      },
      "t_mapping(t_uint256,t_uint256)": {
        "encoding": "mapping",
        "key": "t_uint256",
        "label": "mapping(uint256 => uint256)",
        "numberOfBytes": "32",
        "value": "t_uint256"
      },
      "t_string_storage": {
        "encoding": "bytes",
        "label": "string",
        "numberOfBytes": "32"
      },
      "t_struct(BitMap)5776_storage": {
        "encoding": "inplace",
        "label": "struct BitMaps.BitMap",
        "members": [
          {
            "astId": 5775,
            "contract": "contracts/collections/ERC721A/presets/ERC721ATieredSalesCollection.sol:ERC721ATieredSalesCollection",
            "label": "_data",
            "offset": 0,
            "slot": "0",
            "type": "t_mapping(t_uint256,t_uint256)"
          }
        ],
        "numberOfBytes": "32"
      },
      "t_struct(RoleData)556_storage": {
        "encoding": "inplace",
        "label": "struct AccessControl.RoleData",
        "members": [
          {
            "astId": 553,
            "contract": "contracts/collections/ERC721A/presets/ERC721ATieredSalesCollection.sol:ERC721ATieredSalesCollection",
            "label": "members",
            "offset": 0,
            "slot": "0",
            "type": "t_mapping(t_address,t_bool)"
          },
          {
            "astId": 555,
            "contract": "contracts/collections/ERC721A/presets/ERC721ATieredSalesCollection.sol:ERC721ATieredSalesCollection",
            "label": "adminRole",
            "offset": 0,
            "slot": "1",
            "type": "t_bytes32"
          }
        ],
        "numberOfBytes": "64"
      },
      "t_struct(Set)5917_storage": {
        "encoding": "inplace",
        "label": "struct EnumerableSet.Set",
        "members": [
          {
            "astId": 5912,
            "contract": "contracts/collections/ERC721A/presets/ERC721ATieredSalesCollection.sol:ERC721ATieredSalesCollection",
            "label": "_values",
            "offset": 0,
            "slot": "0",
            "type": "t_array(t_bytes32)dyn_storage"
          },
          {
            "astId": 5916,
            "contract": "contracts/collections/ERC721A/presets/ERC721ATieredSalesCollection.sol:ERC721ATieredSalesCollection",
            "label": "_indexes",
            "offset": 0,
            "slot": "1",
            "type": "t_mapping(t_bytes32,t_uint256)"
          }
        ],
        "numberOfBytes": "64"
      },
      "t_struct(Tier)9079_storage": {
        "encoding": "inplace",
        "label": "struct IERC721TieringExtension.Tier",
        "members": [
          {
            "astId": 9064,
            "contract": "contracts/collections/ERC721A/presets/ERC721ATieredSalesCollection.sol:ERC721ATieredSalesCollection",
            "label": "start",
            "offset": 0,
            "slot": "0",
            "type": "t_uint256"
          },
          {
            "astId": 9066,
            "contract": "contracts/collections/ERC721A/presets/ERC721ATieredSalesCollection.sol:ERC721ATieredSalesCollection",
            "label": "end",
            "offset": 0,
            "slot": "1",
            "type": "t_uint256"
          },
          {
            "astId": 9068,
            "contract": "contracts/collections/ERC721A/presets/ERC721ATieredSalesCollection.sol:ERC721ATieredSalesCollection",
            "label": "currency",
            "offset": 0,
            "slot": "2",
            "type": "t_address"
          },
          {
            "astId": 9070,
            "contract": "contracts/collections/ERC721A/presets/ERC721ATieredSalesCollection.sol:ERC721ATieredSalesCollection",
            "label": "price",
            "offset": 0,
            "slot": "3",
            "type": "t_uint256"
          },
          {
            "astId": 9072,
            "contract": "contracts/collections/ERC721A/presets/ERC721ATieredSalesCollection.sol:ERC721ATieredSalesCollection",
            "label": "maxPerWallet",
            "offset": 0,
            "slot": "4",
            "type": "t_uint256"
          },
          {
            "astId": 9074,
            "contract": "contracts/collections/ERC721A/presets/ERC721ATieredSalesCollection.sol:ERC721ATieredSalesCollection",
            "label": "merkleRoot",
            "offset": 0,
            "slot": "5",
            "type": "t_bytes32"
          },
          {
            "astId": 9076,
            "contract": "contracts/collections/ERC721A/presets/ERC721ATieredSalesCollection.sol:ERC721ATieredSalesCollection",
            "label": "reserved",
            "offset": 0,
            "slot": "6",
            "type": "t_uint256"
          },
          {
            "astId": 9078,
            "contract": "contracts/collections/ERC721A/presets/ERC721ATieredSalesCollection.sol:ERC721ATieredSalesCollection",
            "label": "maxAllocation",
            "offset": 0,
            "slot": "7",
            "type": "t_uint256"
          }
        ],
        "numberOfBytes": "256"
      },
      "t_struct(TokenApprovalRef)21465_storage": {
        "encoding": "inplace",
        "label": "struct ERC721A.TokenApprovalRef",
        "members": [
          {
            "astId": 21464,
            "contract": "contracts/collections/ERC721A/presets/ERC721ATieredSalesCollection.sol:ERC721ATieredSalesCollection",
            "label": "value",
            "offset": 0,
            "slot": "0",
            "type": "t_address"
          }
        ],
        "numberOfBytes": "32"
      },
      "t_struct(TokenRoyalty)183_storage": {
        "encoding": "inplace",
        "label": "struct IEIP2981RoyaltyOverride.TokenRoyalty",
        "members": [
          {
            "astId": 180,
            "contract": "contracts/collections/ERC721A/presets/ERC721ATieredSalesCollection.sol:ERC721ATieredSalesCollection",
            "label": "recipient",
            "offset": 0,
            "slot": "0",
            "type": "t_address"
          },
          {
            "astId": 182,
            "contract": "contracts/collections/ERC721A/presets/ERC721ATieredSalesCollection.sol:ERC721ATieredSalesCollection",
            "label": "bps",
            "offset": 20,
            "slot": "0",
            "type": "t_uint16"
          }
        ],
        "numberOfBytes": "32"
      },
      "t_struct(UintSet)6375_storage": {
        "encoding": "inplace",
        "label": "struct EnumerableSet.UintSet",
        "members": [
          {
            "astId": 6374,
            "contract": "contracts/collections/ERC721A/presets/ERC721ATieredSalesCollection.sol:ERC721ATieredSalesCollection",
            "label": "_inner",
            "offset": 0,
            "slot": "0",
            "type": "t_struct(Set)5917_storage"
          }
        ],
        "numberOfBytes": "64"
      },
      "t_uint16": {
        "encoding": "inplace",
        "label": "uint16",
        "numberOfBytes": "2"
      },
      "t_uint256": {
        "encoding": "inplace",
        "label": "uint256",
        "numberOfBytes": "32"
      },
      "t_uint8": {
        "encoding": "inplace",
        "label": "uint8",
        "numberOfBytes": "1"
      }
    }
  }
}