{
  "address": "0x1aDDE2eEa8c6c85923535DD9Bed202b94A2A8eA7",
  "abi": [
    {
      "inputs": [
        {
          "components": [
            {
              "internalType": "address",
              "name": "ticketToken",
              "type": "address"
            },
            {
              "internalType": "uint64",
              "name": "lockedUntilTimestamp",
              "type": "uint64"
            },
            {
              "internalType": "uint256",
              "name": "totalTickets",
              "type": "uint256"
            },
            {
              "internalType": "uint256",
              "name": "emissionRate",
              "type": "uint256"
            },
            {
              "internalType": "uint64",
              "name": "emissionTimeUnit",
              "type": "uint64"
            },
            {
              "internalType": "uint64",
              "name": "emissionStart",
              "type": "uint64"
            },
            {
              "internalType": "uint64",
              "name": "emissionEnd",
              "type": "uint64"
            }
          ],
          "internalType": "struct ERC721EqualEmissionStream.Config",
          "name": "config",
          "type": "tuple"
        }
      ],
      "stateMutability": "nonpayable",
      "type": "constructor"
    },
    {
      "anonymous": false,
      "inputs": [
        {
          "indexed": false,
          "internalType": "address",
          "name": "operator",
          "type": "address"
        },
        {
          "indexed": false,
          "internalType": "address",
          "name": "beneficiary",
          "type": "address"
        },
        {
          "indexed": false,
          "internalType": "uint256",
          "name": "ticketTokenId",
          "type": "uint256"
        },
        {
          "indexed": false,
          "internalType": "address",
          "name": "claimToken",
          "type": "address"
        },
        {
          "indexed": false,
          "internalType": "uint256",
          "name": "releasedAmount",
          "type": "uint256"
        }
      ],
      "name": "Claim",
      "type": "event"
    },
    {
      "anonymous": false,
      "inputs": [
        {
          "indexed": false,
          "internalType": "address",
          "name": "operator",
          "type": "address"
        },
        {
          "indexed": false,
          "internalType": "address",
          "name": "beneficiary",
          "type": "address"
        },
        {
          "indexed": false,
          "internalType": "uint256[]",
          "name": "ticketTokenIds",
          "type": "uint256[]"
        },
        {
          "indexed": false,
          "internalType": "address",
          "name": "claimToken",
          "type": "address"
        },
        {
          "indexed": false,
          "internalType": "uint256",
          "name": "releasedAmount",
          "type": "uint256"
        }
      ],
      "name": "ClaimMany",
      "type": "event"
    },
    {
      "anonymous": false,
      "inputs": [
        {
          "indexed": false,
          "internalType": "uint8",
          "name": "version",
          "type": "uint8"
        }
      ],
      "name": "Initialized",
      "type": "event"
    },
    {
      "anonymous": false,
      "inputs": [
        {
          "indexed": true,
          "internalType": "address",
          "name": "previousOwner",
          "type": "address"
        },
        {
          "indexed": true,
          "internalType": "address",
          "name": "newOwner",
          "type": "address"
        }
      ],
      "name": "OwnershipTransferred",
      "type": "event"
    },
    {
      "anonymous": false,
      "inputs": [],
      "name": "WithdrawPowerRevoked",
      "type": "event"
    },
    {
      "anonymous": false,
      "inputs": [
        {
          "indexed": false,
          "internalType": "address[]",
          "name": "claimTokens",
          "type": "address[]"
        },
        {
          "indexed": false,
          "internalType": "uint256[]",
          "name": "amounts",
          "type": "uint256[]"
        }
      ],
      "name": "Withdrawn",
      "type": "event"
    },
    {
      "inputs": [
        {
          "internalType": "uint256",
          "name": "ticketTokenId",
          "type": "uint256"
        }
      ],
      "name": "claim",
      "outputs": [],
      "stateMutability": "nonpayable",
      "type": "function"
    },
    {
      "inputs": [
        {
          "internalType": "uint256[]",
          "name": "ticketTokenIds",
          "type": "uint256[]"
        }
      ],
      "name": "claim",
      "outputs": [],
      "stateMutability": "nonpayable",
      "type": "function"
    },
    {
      "inputs": [
        {
          "internalType": "uint256",
          "name": "ticketTokenId",
          "type": "uint256"
        },
        {
          "internalType": "address",
          "name": "claimToken",
          "type": "address"
        }
      ],
      "name": "claim",
      "outputs": [],
      "stateMutability": "nonpayable",
      "type": "function"
    },
    {
      "inputs": [
        {
          "internalType": "uint256[]",
          "name": "ticketTokenIds",
          "type": "uint256[]"
        },
        {
          "internalType": "address",
          "name": "claimToken",
          "type": "address"
        },
        {
          "internalType": "address",
          "name": "beneficiary",
          "type": "address"
        }
      ],
      "name": "claim",
      "outputs": [],
      "stateMutability": "nonpayable",
      "type": "function"
    },
    {
      "inputs": [],
      "name": "claimLockedUntil",
      "outputs": [
        {
          "internalType": "uint64",
          "name": "",
          "type": "uint64"
        }
      ],
      "stateMutability": "view",
      "type": "function"
    },
    {
      "inputs": [
        {
          "internalType": "uint64",
          "name": "calcUntil",
          "type": "uint64"
        }
      ],
      "name": "emissionAmountUntil",
      "outputs": [
        {
          "internalType": "uint256",
          "name": "",
          "type": "uint256"
        }
      ],
      "stateMutability": "view",
      "type": "function"
    },
    {
      "inputs": [],
      "name": "emissionEnd",
      "outputs": [
        {
          "internalType": "uint64",
          "name": "",
          "type": "uint64"
        }
      ],
      "stateMutability": "view",
      "type": "function"
    },
    {
      "inputs": [],
      "name": "emissionRate",
      "outputs": [
        {
          "internalType": "uint256",
          "name": "",
          "type": "uint256"
        }
      ],
      "stateMutability": "view",
      "type": "function"
    },
    {
      "inputs": [],
      "name": "emissionStart",
      "outputs": [
        {
          "internalType": "uint64",
          "name": "",
          "type": "uint64"
        }
      ],
      "stateMutability": "view",
      "type": "function"
    },
    {
      "inputs": [],
      "name": "emissionTimeUnit",
      "outputs": [
        {
          "internalType": "uint64",
          "name": "",
          "type": "uint64"
        }
      ],
      "stateMutability": "view",
      "type": "function"
    },
    {
      "inputs": [
        {
          "internalType": "uint256",
          "name": "",
          "type": "uint256"
        },
        {
          "internalType": "address",
          "name": "",
          "type": "address"
        }
      ],
      "name": "entitlements",
      "outputs": [
        {
          "internalType": "uint256",
          "name": "totalClaimed",
          "type": "uint256"
        },
        {
          "internalType": "uint256",
          "name": "lastClaimedAt",
          "type": "uint256"
        }
      ],
      "stateMutability": "view",
      "type": "function"
    },
    {
      "inputs": [],
      "name": "hasERC721EmissionReleaseExtension",
      "outputs": [
        {
          "internalType": "bool",
          "name": "",
          "type": "bool"
        }
      ],
      "stateMutability": "pure",
      "type": "function"
    },
    {
      "inputs": [],
      "name": "hasERC721EqualSplitExtension",
      "outputs": [
        {
          "internalType": "bool",
          "name": "",
          "type": "bool"
        }
      ],
      "stateMutability": "pure",
      "type": "function"
    },
    {
      "inputs": [],
      "name": "hasERC721LockableClaimExtension",
      "outputs": [
        {
          "internalType": "bool",
          "name": "",
          "type": "bool"
        }
      ],
      "stateMutability": "pure",
      "type": "function"
    },
    {
      "inputs": [
        {
          "components": [
            {
              "internalType": "address",
              "name": "ticketToken",
              "type": "address"
            },
            {
              "internalType": "uint64",
              "name": "lockedUntilTimestamp",
              "type": "uint64"
            },
            {
              "internalType": "uint256",
              "name": "totalTickets",
              "type": "uint256"
            },
            {
              "internalType": "uint256",
              "name": "emissionRate",
              "type": "uint256"
            },
            {
              "internalType": "uint64",
              "name": "emissionTimeUnit",
              "type": "uint64"
            },
            {
              "internalType": "uint64",
              "name": "emissionStart",
              "type": "uint64"
            },
            {
              "internalType": "uint64",
              "name": "emissionEnd",
              "type": "uint64"
            }
          ],
          "internalType": "struct ERC721EqualEmissionStream.Config",
          "name": "config",
          "type": "tuple"
        },
        {
          "internalType": "address",
          "name": "deployer",
          "type": "address"
        }
      ],
      "name": "initialize",
      "outputs": [],
      "stateMutability": "nonpayable",
      "type": "function"
    },
    {
      "inputs": [
        {
          "internalType": "uint64",
          "name": "newValue",
          "type": "uint64"
        }
      ],
      "name": "lockUntil",
      "outputs": [],
      "stateMutability": "nonpayable",
      "type": "function"
    },
    {
      "inputs": [],
      "name": "lockWithdrawMode",
      "outputs": [],
      "stateMutability": "nonpayable",
      "type": "function"
    },
    {
      "inputs": [],
      "name": "lockWithdrawRecipient",
      "outputs": [],
      "stateMutability": "nonpayable",
      "type": "function"
    },
    {
      "inputs": [],
      "name": "lockedUntilTimestamp",
      "outputs": [
        {
          "internalType": "uint64",
          "name": "",
          "type": "uint64"
        }
      ],
      "stateMutability": "view",
      "type": "function"
    },
    {
      "inputs": [],
      "name": "name",
      "outputs": [
        {
          "internalType": "string",
          "name": "",
          "type": "string"
        }
      ],
      "stateMutability": "view",
      "type": "function"
    },
    {
      "inputs": [],
      "name": "owner",
      "outputs": [
        {
          "internalType": "address",
          "name": "",
          "type": "address"
        }
      ],
      "stateMutability": "view",
      "type": "function"
    },
    {
      "inputs": [
        {
          "internalType": "uint256[]",
          "name": "tokenIds",
          "type": "uint256[]"
        }
      ],
      "name": "rateByToken",
      "outputs": [
        {
          "internalType": "uint256",
          "name": "",
          "type": "uint256"
        }
      ],
      "stateMutability": "view",
      "type": "function"
    },
    {
      "inputs": [
        {
          "internalType": "uint64",
          "name": "calcUntil",
          "type": "uint64"
        }
      ],
      "name": "releasedAmountUntil",
      "outputs": [
        {
          "internalType": "uint256",
          "name": "",
          "type": "uint256"
        }
      ],
      "stateMutability": "view",
      "type": "function"
    },
    {
      "inputs": [],
      "name": "renounceOwnership",
      "outputs": [],
      "stateMutability": "nonpayable",
      "type": "function"
    },
    {
      "inputs": [],
      "name": "revokeWithdrawPower",
      "outputs": [],
      "stateMutability": "nonpayable",
      "type": "function"
    },
    {
      "inputs": [
        {
          "internalType": "uint64",
          "name": "newValue",
          "type": "uint64"
        }
      ],
      "name": "setClaimLockedUntil",
      "outputs": [],
      "stateMutability": "nonpayable",
      "type": "function"
    },
    {
      "inputs": [
        {
          "internalType": "uint64",
          "name": "newValue",
          "type": "uint64"
        }
      ],
      "name": "setEmissionEnd",
      "outputs": [],
      "stateMutability": "nonpayable",
      "type": "function"
    },
    {
      "inputs": [
        {
          "internalType": "uint256",
          "name": "newValue",
          "type": "uint256"
        }
      ],
      "name": "setEmissionRate",
      "outputs": [],
      "stateMutability": "nonpayable",
      "type": "function"
    },
    {
      "inputs": [
        {
          "internalType": "uint64",
          "name": "newValue",
          "type": "uint64"
        }
      ],
      "name": "setEmissionStart",
      "outputs": [],
      "stateMutability": "nonpayable",
      "type": "function"
    },
    {
      "inputs": [
        {
          "internalType": "uint64",
          "name": "newValue",
          "type": "uint64"
        }
      ],
      "name": "setEmissionTimeUnit",
      "outputs": [],
      "stateMutability": "nonpayable",
      "type": "function"
    },
    {
      "inputs": [
        {
          "internalType": "uint256",
          "name": "newValue",
          "type": "uint256"
        }
      ],
      "name": "setTotalTickets",
      "outputs": [],
      "stateMutability": "nonpayable",
      "type": "function"
    },
    {
      "inputs": [
        {
          "internalType": "enum WithdrawMode",
          "name": "_withdrawMode",
          "type": "uint8"
        }
      ],
      "name": "setWithdrawMode",
      "outputs": [],
      "stateMutability": "nonpayable",
      "type": "function"
    },
    {
      "inputs": [
        {
          "internalType": "address",
          "name": "_withdrawRecipient",
          "type": "address"
        }
      ],
      "name": "setWithdrawRecipient",
      "outputs": [],
      "stateMutability": "nonpayable",
      "type": "function"
    },
    {
      "inputs": [
        {
          "internalType": "uint256[]",
          "name": "ticketTokenIds",
          "type": "uint256[]"
        },
        {
          "internalType": "address",
          "name": "claimToken",
          "type": "address"
        }
      ],
      "name": "streamClaimableAmount",
      "outputs": [
        {
          "internalType": "uint256",
          "name": "",
          "type": "uint256"
        }
      ],
      "stateMutability": "view",
      "type": "function"
    },
    {
      "inputs": [
        {
          "internalType": "uint256",
          "name": "ticketTokenId",
          "type": "uint256"
        }
      ],
      "name": "streamClaimableAmount",
      "outputs": [
        {
          "internalType": "uint256",
          "name": "",
          "type": "uint256"
        }
      ],
      "stateMutability": "view",
      "type": "function"
    },
    {
      "inputs": [
        {
          "internalType": "uint256",
          "name": "ticketTokenId",
          "type": "uint256"
        },
        {
          "internalType": "address",
          "name": "claimToken",
          "type": "address"
        }
      ],
      "name": "streamClaimableAmount",
      "outputs": [
        {
          "internalType": "uint256",
          "name": "",
          "type": "uint256"
        }
      ],
      "stateMutability": "view",
      "type": "function"
    },
    {
      "inputs": [
        {
          "internalType": "uint256[]",
          "name": "ticketTokenIds",
          "type": "uint256[]"
        },
        {
          "internalType": "address",
          "name": "claimToken",
          "type": "address"
        }
      ],
      "name": "streamTotalClaimed",
      "outputs": [
        {
          "internalType": "uint256",
          "name": "",
          "type": "uint256"
        }
      ],
      "stateMutability": "view",
      "type": "function"
    },
    {
      "inputs": [],
      "name": "streamTotalClaimed",
      "outputs": [
        {
          "internalType": "uint256",
          "name": "",
          "type": "uint256"
        }
      ],
      "stateMutability": "view",
      "type": "function"
    },
    {
      "inputs": [
        {
          "internalType": "uint256[]",
          "name": "ticketTokenIds",
          "type": "uint256[]"
        }
      ],
      "name": "streamTotalClaimed",
      "outputs": [
        {
          "internalType": "uint256",
          "name": "",
          "type": "uint256"
        }
      ],
      "stateMutability": "view",
      "type": "function"
    },
    {
      "inputs": [
        {
          "internalType": "uint256",
          "name": "ticketTokenId",
          "type": "uint256"
        },
        {
          "internalType": "address",
          "name": "claimToken",
          "type": "address"
        }
      ],
      "name": "streamTotalClaimed",
      "outputs": [
        {
          "internalType": "uint256",
          "name": "",
          "type": "uint256"
        }
      ],
      "stateMutability": "view",
      "type": "function"
    },
    {
      "inputs": [
        {
          "internalType": "address",
          "name": "claimToken",
          "type": "address"
        }
      ],
      "name": "streamTotalClaimed",
      "outputs": [
        {
          "internalType": "uint256",
          "name": "",
          "type": "uint256"
        }
      ],
      "stateMutability": "view",
      "type": "function"
    },
    {
      "inputs": [
        {
          "internalType": "uint256",
          "name": "ticketTokenId",
          "type": "uint256"
        }
      ],
      "name": "streamTotalClaimed",
      "outputs": [
        {
          "internalType": "uint256",
          "name": "",
          "type": "uint256"
        }
      ],
      "stateMutability": "view",
      "type": "function"
    },
    {
      "inputs": [],
      "name": "streamTotalSupply",
      "outputs": [
        {
          "internalType": "uint256",
          "name": "",
          "type": "uint256"
        }
      ],
      "stateMutability": "view",
      "type": "function"
    },
    {
      "inputs": [
        {
          "internalType": "address",
          "name": "claimToken",
          "type": "address"
        }
      ],
      "name": "streamTotalSupply",
      "outputs": [
        {
          "internalType": "uint256",
          "name": "",
          "type": "uint256"
        }
      ],
      "stateMutability": "view",
      "type": "function"
    },
    {
      "inputs": [
        {
          "internalType": "bytes4",
          "name": "interfaceId",
          "type": "bytes4"
        }
      ],
      "name": "supportsInterface",
      "outputs": [
        {
          "internalType": "bool",
          "name": "",
          "type": "bool"
        }
      ],
      "stateMutability": "view",
      "type": "function"
    },
    {
      "inputs": [],
      "name": "ticketToken",
      "outputs": [
        {
          "internalType": "address",
          "name": "",
          "type": "address"
        }
      ],
      "stateMutability": "view",
      "type": "function"
    },
    {
      "inputs": [],
      "name": "totalTickets",
      "outputs": [
        {
          "internalType": "uint256",
          "name": "",
          "type": "uint256"
        }
      ],
      "stateMutability": "view",
      "type": "function"
    },
    {
      "inputs": [
        {
          "internalType": "address",
          "name": "newOwner",
          "type": "address"
        }
      ],
      "name": "transferOwnership",
      "outputs": [],
      "stateMutability": "nonpayable",
      "type": "function"
    },
    {
      "inputs": [],
      "name": "version",
      "outputs": [
        {
          "internalType": "string",
          "name": "",
          "type": "string"
        }
      ],
      "stateMutability": "view",
      "type": "function"
    },
    {
      "inputs": [
        {
          "internalType": "address[]",
          "name": "claimTokens",
          "type": "address[]"
        },
        {
          "internalType": "uint256[]",
          "name": "amounts",
          "type": "uint256[]"
        }
      ],
      "name": "withdraw",
      "outputs": [],
      "stateMutability": "nonpayable",
      "type": "function"
    },
    {
      "inputs": [],
      "name": "withdrawMode",
      "outputs": [
        {
          "internalType": "enum WithdrawMode",
          "name": "",
          "type": "uint8"
        }
      ],
      "stateMutability": "view",
      "type": "function"
    },
    {
      "inputs": [],
      "name": "withdrawModeLocked",
      "outputs": [
        {
          "internalType": "bool",
          "name": "",
          "type": "bool"
        }
      ],
      "stateMutability": "view",
      "type": "function"
    },
    {
      "inputs": [],
      "name": "withdrawPowerRevoked",
      "outputs": [
        {
          "internalType": "bool",
          "name": "",
          "type": "bool"
        }
      ],
      "stateMutability": "view",
      "type": "function"
    },
    {
      "inputs": [],
      "name": "withdrawRecipient",
      "outputs": [
        {
          "internalType": "address",
          "name": "",
          "type": "address"
        }
      ],
      "stateMutability": "view",
      "type": "function"
    },
    {
      "inputs": [],
      "name": "withdrawRecipientLocked",
      "outputs": [
        {
          "internalType": "bool",
          "name": "",
          "type": "bool"
        }
      ],
      "stateMutability": "view",
      "type": "function"
    },
    {
      "stateMutability": "payable",
      "type": "receive"
    }
  ],
  "transactionHash": "0xab42c0d2f323e85c4917e0e4ac7b2e12dafe883fe86137e49eff8e7cedcd39a1",
  "args": [
    {
      "ticketToken": "0x0000000000000000000000000000000000000000",
      "lockedUntilTimestamp": 0,
      "totalTickets": 0,
      "emissionRate": 0,
      "emissionTimeUnit": 0,
      "emissionStart": 0,
      "emissionEnd": 0,
      "claimLockedUntil": 0
    }
  ],
  "numDeployments": 5,
  "solcInputHash": "ae313c01d869475afde0f5da31d0e322",
  "bytecode": "0x60806040523480156200001157600080fd5b5060405162003468380380620034688339810160408190526200003491620005b7565b6200003f3362000057565b6001600255620000508133620000b2565b5062000721565b600080546001600160a01b038381166201000081810262010000600160b01b0319851617855560405193049190911692909183917f8be0079c531659141344cd1fd0a4f28419497f9722a3daafe3b4186f6b6457e091a35050565b6000620000c0600162000184565b90508015620000d9576000805461ff0019166101001790555b620000e48262000057565b620000f182600062000236565b8251602084015162000104919062000270565b62000128836060015184608001518560a001518660c00151620002a660201b60201c565b60408301516200013890620002e4565b80156200017f576000805461ff0019169055604051600181527f7f26b83ff96e1f2b6a682f133852f6798a09c465da95921460cefb38474024989060200160405180910390a15b505050565b60008054610100900460ff1615620001ed578160ff166001148015620001bd5750620001bb306200031c60201b62001bf61760201c565b155b620001e55760405162461bcd60e51b8152600401620001dc9062000672565b60405180910390fd5b506000919050565b60005460ff808416911610620002175760405162461bcd60e51b8152600401620001dc9062000672565b506000805460ff191660ff92909216919091179055600190565b919050565b600054610100900460ff16620002605760405162461bcd60e51b8152600401620001dc90620006c0565b6200026c82826200032b565b5050565b600054610100900460ff166200029a5760405162461bcd60e51b8152600401620001dc90620006c0565b6200026c8282620003d2565b600054610100900460ff16620002d05760405162461bcd60e51b8152600401620001dc90620006c0565b620002de848484846200043c565b50505050565b600054610100900460ff166200030e5760405162461bcd60e51b8152600401620001dc90620006c0565b6200031981620004c7565b50565b6001600160a01b03163b151590565b600054610100900460ff16620003555760405162461bcd60e51b8152600401620001dc90620006c0565b6200036763ac2ba33360e01b62000503565b60098054600160401b600160e01b03198116680100000000000000006001600160a01b038616029081178355839291600160401b62ff000160e01b03191660ff60f01b1990911617600160f01b836003811115620003c957620003c96200070b565b02179055505050565b600054610100900460ff16620003fc5760405162461bcd60e51b8152600401620001dc90620006c0565b600380546001600160401b038316600160a01b026001600160e01b03199091166001600160a01b038516171790556200026c631ba050e960e21b62000503565b600054610100900460ff16620004665760405162461bcd60e51b8152600401620001dc90620006c0565b6006849055600780546001600160401b03838116600160801b02600160801b600160c01b031986831668010000000000000000026001600160801b0319909416928816929092179290921716179055620002de63c9f600a960e01b62000503565b600054610100900460ff16620004f15760405162461bcd60e51b8152600401620001dc90620006c0565b600881905562000319632d5305cb60e21b5b6001600160e01b031980821614156200055f5760405162461bcd60e51b815260206004820152601c60248201527f4552433136353a20696e76616c696420696e74657266616365206964000000006044820152606401620001dc565b6001600160e01b0319166000908152600160208190526040909120805460ff19169091179055565b80516001600160a01b03811681146200023157600080fd5b80516001600160401b03811681146200023157600080fd5b600060e08284031215620005ca57600080fd5b60405160e081016001600160401b0381118282101715620005fb57634e487b7160e01b600052604160045260246000fd5b604052620006098362000587565b815262000619602084016200059f565b6020820152604083015160408201526060830151606082015262000640608084016200059f565b60808201526200065360a084016200059f565b60a08201526200066660c084016200059f565b60c08201529392505050565b6020808252602e908201527f496e697469616c697a61626c653a20636f6e747261637420697320616c72656160408201526d191e481a5b9a5d1a585b1a5e995960921b606082015260800190565b6020808252602b908201527f496e697469616c697a61626c653a20636f6e7472616374206973206e6f74206960408201526a6e697469616c697a696e6760a81b606082015260800190565b634e487b7160e01b600052602160045260246000fd5b612d3780620007316000396000f3fe6080604052600436106102745760003560e01c80630191c0af1461028d57806301ffc9a7146102c057806306fdde03146102f057806314427a96146103455780631bc51b261461037d5780631c725fdc1461039157806325289bad146103b15780632890d033146103d85780632c0e1313146103ed5780632c2330671461040d5780632d00b5871461042d578063379607f51461045b5780633b3f12e21461047b5780633d2dded51461049b57806349561cb9146104d8578063513da948146104f957806354fd4d501461052057806357dc48c81461054f5780636057e0ec146105a357806361949636146105c45780636ba4c138146105e4578063715018a61461060457806378b094ca14610619578063790c0c73146106395780638368909c14610659578063837fe1401461068057806384fd5ae01461069557806389c6b815146106b55780638da5cb5b146106d55780639199690b1461037d578063968d9b2c146106f757806396afc450146107175780639edfe8301461072d578063a1bdb15e1461074d578063a1cf64931461076d578063a86b21e8146107b0578063aa02a74b146107d0578063aaf2f999146107f0578063ae890c0a14610810578063af121f5414610830578063c088184914610851578063c0bb38ff14610887578063c723955a146108a7578063d1335b691461037d578063d5ed4d5a146108bc578063d97314f5146108dc578063da82b227146108fc578063dcbe353f14610911578063dd11247e14610938578063ddd5e1b21461094e578063de6d6d961461096e578063f2fde38b1461098e578063f389b6e4146109ae578063f4415ad6146109ce578063f66e38c214610a0657600080fd5b36610288576000341161028657600080fd5b005b600080fd5b34801561029957600080fd5b506102ad6102a836600461259b565b610a26565b6040519081526020015b60405180910390f35b3480156102cc57600080fd5b506102e06102db3660046125f1565b610a7e565b60405190151581526020016102b7565b3480156102fc57600080fd5b506103386040518060400160405280601c81526020017b45524337323120457175616c20456d697373696f6e2053747265616d60201b81525081565b6040516102b7919061261b565b34801561035157600080fd5b50600954610365906001600160401b031681565b6040516001600160401b0390911681526020016102b7565b34801561038957600080fd5b5060016102e0565b34801561039d57600080fd5b506102866103ac366004612687565b610abe565b3480156103bd57600080fd5b5060035461036590600160a01b90046001600160401b031681565b3480156103e457600080fd5b506102ad610b77565b3480156103f957600080fd5b50610286610408366004612687565b610b88565b34801561041957600080fd5b506102866104283660046126a2565b610c0b565b34801561043957600080fd5b5060095461044e90600160f01b900460ff1681565b6040516102b791906126d9565b34801561046757600080fd5b50610286610476366004612701565b610c91565b34801561048757600080fd5b506102ad61049636600461259b565b610c9f565b3480156104a757600080fd5b506000805260056020527f05b8ccbb9d4d8fb16ea74ce3c29a41f1b461fbdaff4714a0d9a8eb05499746bc546102ad565b3480156104e457600080fd5b506009546102e090600160f81b900460ff1681565b34801561050557600080fd5b5060075461036590600160401b90046001600160401b031681565b34801561052c57600080fd5b5061033860405180604001604052806003815260200162302e3160e81b81525081565b34801561055b57600080fd5b5061058e61056a36600461271a565b60046020908152600092835260408084209091529082529020805460019091015482565b604080519283526020830191909152016102b7565b3480156105af57600080fd5b506009546102e090600160e01b900460ff1681565b3480156105d057600080fd5b50600754610365906001600160401b031681565b3480156105f057600080fd5b506102866105ff36600461274a565b610d1d565b34801561061057600080fd5b50610286610d2e565b34801561062557600080fd5b50610286610634366004612687565b610d69565b34801561064557600080fd5b506102ad61065436600461278b565b610df6565b34801561066557600080fd5b5060075461036590600160801b90046001600160401b031681565b34801561068c57600080fd5b50610286610ec9565b3480156106a157600080fd5b506102ad6106b036600461274a565b610f37565b3480156106c157600080fd5b506102ad6106d036600461274a565b610f56565b3480156106e157600080fd5b506106ea610f64565b6040516102b791906127a8565b34801561070357600080fd5b506102ad610712366004612701565b610f79565b34801561072357600080fd5b506102ad60065481565b34801561073957600080fd5b506102ad610748366004612687565b610f86565b34801561075957600080fd5b50610286610768366004612701565b610fcb565b34801561077957600080fd5b506102ad61078836600461271a565b60009182526004602090815260408084206001600160a01b0393909316845291905290205490565b3480156107bc57600080fd5b506102ad6107cb366004612687565b611031565b3480156107dc57600080fd5b506102866107eb3660046127bc565b611077565b3480156107fc57600080fd5b5061028661080b366004612687565b611135565b34801561081c57600080fd5b5061028661082b366004612701565b6111c2565b34801561083c57600080fd5b506009546102e090600160e81b900460ff1681565b34801561085d57600080fd5b506102ad61086c36600461278b565b6001600160a01b031660009081526005602052604090205490565b34801561089357600080fd5b506102866108a236600461278b565b611228565b3480156108b357600080fd5b506102866112ad565b3480156108c857600080fd5b506003546106ea906001600160a01b031681565b3480156108e857600080fd5b506102866108f7366004612687565b611335565b34801561090857600080fd5b506102866113b8565b34801561091d57600080fd5b506009546106ea90600160401b90046001600160a01b031681565b34801561094457600080fd5b506102ad60085481565b34801561095a57600080fd5b5061028661096936600461271a565b611425565b34801561097a57600080fd5b5061028661098936600461288d565b61162e565b34801561099a57600080fd5b506102866109a936600461278b565b61188c565b3480156109ba57600080fd5b506102866109c93660046128f8565b611929565b3480156109da57600080fd5b506102ad6109e9366004612701565b600090815260046020908152604080832083805290915290205490565b348015610a1257600080fd5b506102ad610a2136600461271a565b611b9e565b600080805b84811015610a7357610a55868683818110610a4857610a4861295f565b9050602002013585611b9e565b610a5f908361298b565b915080610a6b816129a3565b915050610a2b565b5090505b9392505050565b60006301ffc9a760e01b6001600160e01b031983161480610ab857506001600160e01b0319821660009081526001602052604090205460ff165b92915050565b33610ac7610f64565b6001600160a01b031614610af65760405162461bcd60e51b8152600401610aed906129be565b60405180910390fd5b6003546001600160401b03600160a01b909104811690821611610b4b5760405162461bcd60e51b815260206004820152600d60248201526c10d0539393d517d49155d25391609a1b6044820152606401610aed565b600380546001600160401b03909216600160a01b02600160a01b600160e01b0319909216919091179055565b6000610b836000610df6565b905090565b33610b91610f64565b6001600160a01b031614610bb75760405162461bcd60e51b8152600401610aed906129be565b60035442600160a01b9091046001600160401b031610610be95760405162461bcd60e51b8152600401610aed906129f3565b600980546001600160401b0319166001600160401b0392909216919091179055565b33610c14610f64565b6001600160a01b031614610c3a5760405162461bcd60e51b8152600401610aed906129be565b600954600160f81b900460ff1615610c645760405162461bcd60e51b8152600401610aed90612a1a565b6009805482919060ff60f01b1916600160f01b836003811115610c8957610c896126c3565b021790555050565b610c9c816000611425565b50565b600080805b84811015610a735760046000878784818110610cc257610cc261295f565b9050602002013581526020019081526020016000206000856001600160a01b03166001600160a01b031681526020019081526020016000206000015482610d09919061298b565b915080610d15816129a3565b915050610ca4565b610d2a8282600033611929565b5050565b33610d37610f64565b6001600160a01b031614610d5d5760405162461bcd60e51b8152600401610aed906129be565b610d676000611c05565b565b33610d72610f64565b6001600160a01b031614610d985760405162461bcd60e51b8152600401610aed906129be565b60035442600160a01b9091046001600160401b031610610dca5760405162461bcd60e51b8152600401610aed906129f3565b600780546001600160401b03909216600160801b02600160801b600160c01b0319909216919091179055565b60006001600160a01b038216610e2a576001600160a01b038216600090815260056020526040902054610ab890479061298b565b6040516370a0823160e01b81526001600160a01b038316906370a0823190610e569030906004016127a8565b60206040518083038186803b158015610e6e57600080fd5b505afa158015610e82573d6000803e3d6000fd5b505050506040513d601f19601f82011682018060405250810190610ea69190612a3a565b6001600160a01b038316600090815260056020526040902054610ab8919061298b565b33610ed2610f64565b6001600160a01b031614610ef85760405162461bcd60e51b8152600401610aed906129be565b600954600160e01b900460ff1615610f225760405162461bcd60e51b8152600401610aed90612a1a565b6009805460ff60e01b1916600160e01b179055565b60085460065460009190610f4c908490612a53565b610a779190612a88565b6000610a7783836000610c9f565b6000546201000090046001600160a01b031690565b6000610ab8826000611b9e565b6007546000906001600160401b0380821691610fab91600160401b9091041684612a9c565b610fb59190612ac4565b6001600160401b0316600654610ab89190612a53565b33610fd4610f64565b6001600160a01b031614610ffa5760405162461bcd60e51b8152600401610aed906129be565b60035442600160a01b9091046001600160401b03161061102c5760405162461bcd60e51b8152600401610aed906129f3565b600655565b6007546006546000916001600160401b03808216929161105a91600160401b9091041685612a9c565b6001600160401b031661106d9190612a53565b610ab89190612a88565b60006110836001611c60565b9050801561109b576000805461ff0019166101001790555b6110a482611c05565b6110af826000611cf4565b6110c183600001518460200151611d25565b6110dd836060015184608001518560a001518660c00151611d56565b6110ea8360400151611d8f565b8015611130576000805461ff0019169055604051600181527f7f26b83ff96e1f2b6a682f133852f6798a09c465da95921460cefb38474024989060200160405180910390a15b505050565b3361113e610f64565b6001600160a01b0316146111645760405162461bcd60e51b8152600401610aed906129be565b60035442600160a01b9091046001600160401b0316106111965760405162461bcd60e51b8152600401610aed906129f3565b600780546001600160401b03909216600160401b02600160401b600160801b0319909216919091179055565b336111cb610f64565b6001600160a01b0316146111f15760405162461bcd60e51b8152600401610aed906129be565b60035442600160a01b9091046001600160401b0316106112235760405162461bcd60e51b8152600401610aed906129f3565b600855565b33611231610f64565b6001600160a01b0316146112575760405162461bcd60e51b8152600401610aed906129be565b600954600160e01b900460ff16156112815760405162461bcd60e51b8152600401610aed90612a1a565b600980546001600160a01b03909216600160401b02600160401b600160e01b0319909216919091179055565b336112b6610f64565b6001600160a01b0316146112dc5760405162461bcd60e51b8152600401610aed906129be565b600954600160f81b900460ff161561131e5760405162461bcd60e51b815260206004820152600560248201526413d0d2d15160da1b6044820152606401610aed565b600980546001600160f81b0316600160f81b179055565b3361133e610f64565b6001600160a01b0316146113645760405162461bcd60e51b8152600401610aed906129be565b60035442600160a01b9091046001600160401b0316106113965760405162461bcd60e51b8152600401610aed906129f3565b600780546001600160401b0319166001600160401b0392909216919091179055565b336113c1610f64565b6001600160a01b0316146113e75760405162461bcd60e51b8152600401610aed906129be565b6009805460ff60e81b1916600160e81b1790556040517fa24423a69b45c25c0479663125e48b482e71d85eae416f589545243bafaf3c9590600090a1565b6002805414156114475760405162461bcd60e51b8152600401610aed90612aea565b6002805533611457838383611dbf565b60006114638484611b9e565b9050600081116114a85760405162461bcd60e51b815260206004820152601060248201526f4e4f5448494e475f544f5f434c41494d60801b6044820152606401610aed565b60008481526004602090815260408083206001600160a01b0387168452909152812080548392906114da90849061298b565b909155505060008481526004602090815260408083206001600160a01b038716845282528083204260019091015560059091528120805483929061151f90849061298b565b90915550506001600160a01b03831661154a576115456001600160a01b03831682611de0565b6115cc565b60405163a9059cbb60e01b81526001600160a01b0384169063a9059cbb906115789085908590600401612b21565b602060405180830381600087803b15801561159257600080fd5b505af11580156115a6573d6000803e3d6000fd5b505050506040513d601f19601f820116820180604052508101906115ca9190612b3a565b505b604080513381526001600160a01b038481166020830152818301879052851660608201526080810183905290517fa2d3c4c1fc934d6d2d8f9e862df90c01ae4eb0e920cd8957d242ba26b8dc40789181900360a00190a1505060016002555050565b61163733611ef6565b600954600160401b90046001600160a01b031661168e5760405162461bcd60e51b815260206004820152601560248201527415d2551211149055cbd393d7d49150d25412515395605a1b6044820152606401610aed565b600954600160e81b900460ff16156116e85760405162461bcd60e51b815260206004820181905260248201527f57495448445241572f454d455247454e43595f504f5745525f5245564f4b45446044820152606401610aed565b60005b838110156118485760008585838181106117075761170761295f565b905060200201602081019061171c919061278b565b6001600160a01b03161415611768576117638383838181106117405761174061295f565b6009546001600160a01b03600160401b9091041692602090910201359050611de0565b611836565b84848281811061177a5761177a61295f565b905060200201602081019061178f919061278b565b6009546001600160a01b039182169163a9059cbb91600160401b9004168585858181106117be576117be61295f565b905060200201356040518363ffffffff1660e01b81526004016117e2929190612b21565b602060405180830381600087803b1580156117fc57600080fd5b505af1158015611810573d6000803e3d6000fd5b505050506040513d601f19601f820116820180604052508101906118349190612b3a565b505b80611840816129a3565b9150506116eb565b507fd40c399a83caf67d15628b821aa7c7bd940e563c57a047e2bd3b8c602bcaf5a58484848460405161187e9493929190612b92565b60405180910390a150505050565b33611895610f64565b6001600160a01b0316146118bb5760405162461bcd60e51b8152600401610aed906129be565b6001600160a01b0381166119205760405162461bcd60e51b815260206004820152602660248201527f4f776e61626c653a206e6577206f776e657220697320746865207a65726f206160448201526564647265737360d01b6064820152608401610aed565b610c9c81611c05565b60028054141561194b5760405162461bcd60e51b8152600401610aed90612aea565b600280556000805b84811015611a7b5761197e8686838181106119705761197061295f565b905060200201358585611dbf565b60006119a28787848181106119955761199561295f565b9050602002013586611b9e565b90508015611a685780600460008989868181106119c1576119c161295f565b9050602002013581526020019081526020016000206000876001600160a01b03166001600160a01b031681526020019081526020016000206000016000828254611a0b919061298b565b9091555042905060046000898986818110611a2857611a2861295f565b6020908102929092013583525081810192909252604090810160009081206001600160a01b038a168252909252902060010155611a65818461298b565b92505b5080611a73816129a3565b915050611953565b506001600160a01b03831660009081526005602052604081208054839290611aa490849061298b565b90915550506001600160a01b038316611acf57611aca6001600160a01b03831682611de0565b611b51565b60405163a9059cbb60e01b81526001600160a01b0384169063a9059cbb90611afd9085908590600401612b21565b602060405180830381600087803b158015611b1757600080fd5b505af1158015611b2b573d6000803e3d6000fd5b505050506040513d601f19601f82011682018060405250810190611b4f9190612b3a565b505b7fd84a5c424a4f777bcf4f645712b8e5ebfc550f42bde444fa822fe98ee1b132b1338387878786604051611b8a96959493929190612bf5565b60405180910390a150506001600255505050565b600080611bbe611bb7611bb085610df6565b8686612087565b858561210f565b60008581526004602090815260408083206001600160a01b0388168452909152902054909150611bee9082612c34565b949350505050565b6001600160a01b03163b151590565b600080546001600160a01b038381166201000081810262010000600160b01b0319851617855560405193049190911692909183917f8be0079c531659141344cd1fd0a4f28419497f9722a3daafe3b4186f6b6457e091a35050565b60008054610100900460ff1615611cae578160ff166001148015611c8a5750611c8830611bf6565b155b611ca65760405162461bcd60e51b8152600401610aed90612c4b565b506000919050565b60005460ff808416911610611cd55760405162461bcd60e51b8152600401610aed90612c4b565b506000805460ff191660ff92909216919091179055600190565b919050565b600054610100900460ff16611d1b5760405162461bcd60e51b8152600401610aed90612c99565b610d2a828261211f565b600054610100900460ff16611d4c5760405162461bcd60e51b8152600401610aed90612c99565b610d2a82826121b9565b600054610100900460ff16611d7d5760405162461bcd60e51b8152600401610aed90612c99565b611d898484848461221e565b50505050565b600054610100900460ff16611db65760405162461bcd60e51b8152600401610aed90612c99565b610c9c8161229f565b611dca8383836122db565b611dd583838361239f565b6111308383836123ea565b80471015611e305760405162461bcd60e51b815260206004820152601d60248201527f416464726573733a20696e73756666696369656e742062616c616e63650000006044820152606401610aed565b6000826001600160a01b03168260405160006040518083038185875af1925050503d8060008114611e7d576040519150601f19603f3d011682016040523d82523d6000602084013e611e82565b606091505b50509050806111305760405162461bcd60e51b815260206004820152603a60248201527f416464726573733a20756e61626c6520746f2073656e642076616c75652c20726044820152791958da5c1a595b9d081b585e481a185d99481c995d995c9d195960321b6064820152608401610aed565b6003600954600160f01b900460ff166003811115611f1657611f166126c3565b1415611f565760405162461bcd60e51b815260206004820152600f60248201526e15d2551211149055cbd313d0d2d151608a1b6044820152606401610aed565b6002600954600160f01b900460ff166003811115611f7657611f766126c3565b1415611f7f5750565b6001600954600160f01b900460ff166003811115611f9f57611f9f6126c3565b1415612003576009546001600160a01b03828116600160401b9092041614610c9c5760405162461bcd60e51b815260206004820152601760248201527615d2551211149055cbd3d3931657d49150d25412515395604a1b6044820152606401610aed565b6000600954600160f01b900460ff166003811115612023576120236126c3565b1415610c9c57806001600160a01b031661203b610f64565b6001600160a01b031614610c9c5760405162461bcd60e51b81526020600482015260136024820152722ba4aa24222920ab97a7a7262cafa7aba722a960691b6044820152606401610aed565b600754600090600160401b90046001600160401b03164210156120ac57506000610a77565b600754600160801b90046001600160401b0316158015906120de5750600754600160801b90046001600160401b031642115b15612106576007546120ff90600160801b90046001600160401b0316610f86565b9050610a77565b6120ff42610f86565b600060085484611bee9190612a88565b600054610100900460ff166121465760405162461bcd60e51b8152600401610aed90612c99565b61215663ac2ba33360e01b6124af565b60098054600160401b600160e01b03198116600160401b6001600160a01b038616029081178355839291600160401b62ff000160e01b03191660ff60f01b1990911617600160f01b8360038111156121b0576121b06126c3565b02179055505050565b600054610100900460ff166121e05760405162461bcd60e51b8152600401610aed90612c99565b600380546001600160401b038316600160a01b026001600160e01b03199091166001600160a01b03851617179055610d2a631ba050e960e21b6124af565b600054610100900460ff166122455760405162461bcd60e51b8152600401610aed90612c99565b6006849055600780546001600160401b03838116600160801b02600160801b600160c01b0319868316600160401b026001600160801b0319909416928816929092179290921716179055611d8963c9f600a960e01b6124af565b600054610100900460ff166122c65760405162461bcd60e51b8152600401610aed90612c99565b6008819055610c9c632d5305cb60e21b6124af565b6003546040516331a9108f60e11b8152600481018590526001600160a01b03838116921690636352211e9060240160206040518083038186803b15801561232157600080fd5b505afa158015612335573d6000803e3d6000fd5b505050506040513d601f19601f820116820180604052508101906123599190612ce4565b6001600160a01b0316146111305760405162461bcd60e51b815260206004820152600d60248201526c2727aa2fa7232a2fa7aba722a960991b6044820152606401610aed565b600954426001600160401b03909116106111305760405162461bcd60e51b815260206004820152600c60248201526b10d310525357d313d0d2d15160a21b6044820152606401610aed565b60075442600160401b9091046001600160401b03161061243a5760405162461bcd60e51b815260206004820152600b60248201526a1393d517d4d5105495115160aa1b6044820152606401610aed565b600754612450906001600160401b031642612c34565b60008481526004602090815260408083206001600160a01b0387168452909152902060010154106111305760405162461bcd60e51b8152602060048201526009602482015268544f4f5f4541524c5960b81b6044820152606401610aed565b6001600160e01b031980821614156125085760405162461bcd60e51b815260206004820152601c60248201527b115490cc4d8d4e881a5b9d985b1a59081a5b9d195c999858d9481a5960221b6044820152606401610aed565b6001600160e01b0319166000908152600160208190526040909120805460ff19169091179055565b60008083601f84011261254257600080fd5b5081356001600160401b0381111561255957600080fd5b6020830191508360208260051b850101111561257457600080fd5b9250929050565b6001600160a01b0381168114610c9c57600080fd5b8035611cef8161257b565b6000806000604084860312156125b057600080fd5b83356001600160401b038111156125c657600080fd5b6125d286828701612530565b90945092505060208401356125e68161257b565b809150509250925092565b60006020828403121561260357600080fd5b81356001600160e01b031981168114610a7757600080fd5b600060208083528351808285015260005b818110156126485785810183015185820160400152820161262c565b8181111561265a576000604083870101525b50601f01601f1916929092016040019392505050565b80356001600160401b0381168114611cef57600080fd5b60006020828403121561269957600080fd5b610a7782612670565b6000602082840312156126b457600080fd5b813560048110610a7757600080fd5b634e487b7160e01b600052602160045260246000fd5b60208101600483106126fb57634e487b7160e01b600052602160045260246000fd5b91905290565b60006020828403121561271357600080fd5b5035919050565b6000806040838503121561272d57600080fd5b82359150602083013561273f8161257b565b809150509250929050565b6000806020838503121561275d57600080fd5b82356001600160401b0381111561277357600080fd5b61277f85828601612530565b90969095509350505050565b60006020828403121561279d57600080fd5b8135610a778161257b565b6001600160a01b0391909116815260200190565b6000808284036101008112156127d157600080fd5b60e08112156127df57600080fd5b5060405160e081016001600160401b038111828210171561281057634e487b7160e01b600052604160045260246000fd5b60405261281c84612590565b815261282a60208501612670565b6020820152604084013560408201526060840135606082015261284f60808501612670565b608082015261286060a08501612670565b60a082015261287160c08501612670565b60c0820152915061288460e08401612590565b90509250929050565b600080600080604085870312156128a357600080fd5b84356001600160401b03808211156128ba57600080fd5b6128c688838901612530565b909650945060208701359150808211156128df57600080fd5b506128ec87828801612530565b95989497509550505050565b6000806000806060858703121561290e57600080fd5b84356001600160401b0381111561292457600080fd5b61293087828801612530565b90955093505060208501356129448161257b565b915060408501356129548161257b565b939692955090935050565b634e487b7160e01b600052603260045260246000fd5b634e487b7160e01b600052601160045260246000fd5b6000821982111561299e5761299e612975565b500190565b60006000198214156129b7576129b7612975565b5060010190565b6020808252818101527f4f776e61626c653a2063616c6c6572206973206e6f7420746865206f776e6572604082015260600190565b6020808252600d908201526c10d3d3919251d7d313d0d2d151609a1b604082015260600190565b6020808252600690820152651313d0d2d15160d21b604082015260600190565b600060208284031215612a4c57600080fd5b5051919050565b6000816000190483118215151615612a6d57612a6d612975565b500290565b634e487b7160e01b600052601260045260246000fd5b600082612a9757612a97612a72565b500490565b60006001600160401b0383811690831681811015612abc57612abc612975565b039392505050565b60006001600160401b0383811680612ade57612ade612a72565b92169190910492915050565b6020808252601f908201527f5265656e7472616e637947756172643a207265656e7472616e742063616c6c00604082015260600190565b6001600160a01b03929092168252602082015260400190565b600060208284031215612b4c57600080fd5b81518015158114610a7757600080fd5b81835260006001600160fb1b03831115612b7557600080fd5b8260051b8083602087013760009401602001938452509192915050565b6040808252810184905260008560608301825b87811015612bd5578235612bb88161257b565b6001600160a01b0316825260209283019290910190600101612ba5565b508381036020850152612be9818688612b5c565b98975050505050505050565b600060018060a01b038089168352808816602084015260a06040840152612c2060a084018789612b5c565b941660608301525060800152949350505050565b600082821015612c4657612c46612975565b500390565b6020808252602e908201527f496e697469616c697a61626c653a20636f6e747261637420697320616c72656160408201526d191e481a5b9a5d1a585b1a5e995960921b606082015260800190565b6020808252602b908201527f496e697469616c697a61626c653a20636f6e7472616374206973206e6f74206960408201526a6e697469616c697a696e6760a81b606082015260800190565b600060208284031215612cf657600080fd5b8151610a778161257b56fea2646970667358221220a8437ae331cd673dc920310f61aedd6a175b75eba9a0934e99f54728d701664a64736f6c63430008090033",
  "devdoc": {
    "kind": "dev",
    "methods": {
      "owner()": {
        "details": "Returns the address of the current owner."
      },
      "renounceOwnership()": {
        "details": "Leaves the contract without owner. It will not be possible to call `onlyOwner` functions anymore. Can only be called by the current owner. NOTE: Renouncing ownership will leave the contract without an owner, thereby removing any functionality that is only available to the owner."
      },
      "supportsInterface(bytes4)": {
        "details": "See {IERC165-supportsInterface}."
      },
      "transferOwnership(address)": {
        "details": "Transfers ownership of the contract to a new account (`newOwner`). Can only be called by the current owner."
      }
    },
    "version": 1
  },
  "userdoc": {
    "kind": "user",
    "methods": {},
    "version": 1
  },
  "storageLayout": {
    "storage": [
      {
        "astId": 886,
        "contract": "contracts/streams/ERC721/presets/ERC721EqualEmissionStream.sol:ERC721EqualEmissionStream",
        "label": "_initialized",
        "offset": 0,
        "slot": "0",
        "type": "t_uint8"
      },
      {
        "astId": 889,
        "contract": "contracts/streams/ERC721/presets/ERC721EqualEmissionStream.sol:ERC721EqualEmissionStream",
        "label": "_initializing",
        "offset": 1,
        "slot": "0",
        "type": "t_bool"
      },
      {
        "astId": 782,
        "contract": "contracts/streams/ERC721/presets/ERC721EqualEmissionStream.sol:ERC721EqualEmissionStream",
        "label": "_owner",
        "offset": 2,
        "slot": "0",
        "type": "t_address"
      },
      {
        "astId": 4693,
        "contract": "contracts/streams/ERC721/presets/ERC721EqualEmissionStream.sol:ERC721EqualEmissionStream",
        "label": "_supportedInterfaces",
        "offset": 0,
        "slot": "1",
        "type": "t_mapping(t_bytes4,t_bool)"
      },
      {
        "astId": 1124,
        "contract": "contracts/streams/ERC721/presets/ERC721EqualEmissionStream.sol:ERC721EqualEmissionStream",
        "label": "_status",
        "offset": 0,
        "slot": "2",
        "type": "t_uint256"
      },
      {
        "astId": 15135,
        "contract": "contracts/streams/ERC721/presets/ERC721EqualEmissionStream.sol:ERC721EqualEmissionStream",
        "label": "ticketToken",
        "offset": 0,
        "slot": "3",
        "type": "t_address"
      },
      {
        "astId": 15137,
        "contract": "contracts/streams/ERC721/presets/ERC721EqualEmissionStream.sol:ERC721EqualEmissionStream",
        "label": "lockedUntilTimestamp",
        "offset": 20,
        "slot": "3",
        "type": "t_uint64"
      },
      {
        "astId": 15144,
        "contract": "contracts/streams/ERC721/presets/ERC721EqualEmissionStream.sol:ERC721EqualEmissionStream",
        "label": "entitlements",
        "offset": 0,
        "slot": "4",
        "type": "t_mapping(t_uint256,t_mapping(t_address,t_struct(Entitlement)15133_storage))"
      },
      {
        "astId": 15148,
        "contract": "contracts/streams/ERC721/presets/ERC721EqualEmissionStream.sol:ERC721EqualEmissionStream",
        "label": "_streamTotalClaimed",
        "offset": 0,
        "slot": "5",
        "type": "t_mapping(t_address,t_uint256)"
      },
      {
        "astId": 16130,
        "contract": "contracts/streams/ERC721/presets/ERC721EqualEmissionStream.sol:ERC721EqualEmissionStream",
        "label": "emissionRate",
        "offset": 0,
        "slot": "6",
        "type": "t_uint256"
      },
      {
        "astId": 16132,
        "contract": "contracts/streams/ERC721/presets/ERC721EqualEmissionStream.sol:ERC721EqualEmissionStream",
        "label": "emissionTimeUnit",
        "offset": 0,
        "slot": "7",
        "type": "t_uint64"
      },
      {
        "astId": 16134,
        "contract": "contracts/streams/ERC721/presets/ERC721EqualEmissionStream.sol:ERC721EqualEmissionStream",
        "label": "emissionStart",
        "offset": 8,
        "slot": "7",
        "type": "t_uint64"
      },
      {
        "astId": 16136,
        "contract": "contracts/streams/ERC721/presets/ERC721EqualEmissionStream.sol:ERC721EqualEmissionStream",
        "label": "emissionEnd",
        "offset": 16,
        "slot": "7",
        "type": "t_uint64"
      },
      {
        "astId": 16447,
        "contract": "contracts/streams/ERC721/presets/ERC721EqualEmissionStream.sol:ERC721EqualEmissionStream",
        "label": "totalTickets",
        "offset": 0,
        "slot": "8",
        "type": "t_uint256"
      },
      {
        "astId": 16639,
        "contract": "contracts/streams/ERC721/presets/ERC721EqualEmissionStream.sol:ERC721EqualEmissionStream",
        "label": "claimLockedUntil",
        "offset": 0,
        "slot": "9",
        "type": "t_uint64"
      },
      {
        "astId": 13775,
        "contract": "contracts/streams/ERC721/presets/ERC721EqualEmissionStream.sol:ERC721EqualEmissionStream",
        "label": "withdrawRecipient",
        "offset": 8,
        "slot": "9",
        "type": "t_address"
      },
      {
        "astId": 13777,
        "contract": "contracts/streams/ERC721/presets/ERC721EqualEmissionStream.sol:ERC721EqualEmissionStream",
        "label": "withdrawRecipientLocked",
        "offset": 28,
        "slot": "9",
        "type": "t_bool"
      },
      {
        "astId": 13779,
        "contract": "contracts/streams/ERC721/presets/ERC721EqualEmissionStream.sol:ERC721EqualEmissionStream",
        "label": "withdrawPowerRevoked",
        "offset": 29,
        "slot": "9",
        "type": "t_bool"
      },
      {
        "astId": 13782,
        "contract": "contracts/streams/ERC721/presets/ERC721EqualEmissionStream.sol:ERC721EqualEmissionStream",
        "label": "withdrawMode",
        "offset": 30,
        "slot": "9",
        "type": "t_enum(WithdrawMode)13719"
      },
      {
        "astId": 13784,
        "contract": "contracts/streams/ERC721/presets/ERC721EqualEmissionStream.sol:ERC721EqualEmissionStream",
        "label": "withdrawModeLocked",
        "offset": 31,
        "slot": "9",
        "type": "t_bool"
      }
    ],
    "types": {
      "t_address": {
        "encoding": "inplace",
        "label": "address",
        "numberOfBytes": "20"
      },
      "t_bool": {
        "encoding": "inplace",
        "label": "bool",
        "numberOfBytes": "1"
      },
      "t_bytes4": {
        "encoding": "inplace",
        "label": "bytes4",
        "numberOfBytes": "4"
      },
      "t_enum(WithdrawMode)13719": {
        "encoding": "inplace",
        "label": "enum WithdrawMode",
        "numberOfBytes": "1"
      },
      "t_mapping(t_address,t_struct(Entitlement)15133_storage)": {
        "encoding": "mapping",
        "key": "t_address",
        "label": "mapping(address => struct ERC721MultiTokenStream.Entitlement)",
        "numberOfBytes": "32",
        "value": "t_struct(Entitlement)15133_storage"
      },
      "t_mapping(t_address,t_uint256)": {
        "encoding": "mapping",
        "key": "t_address",
        "label": "mapping(address => uint256)",
        "numberOfBytes": "32",
        "value": "t_uint256"
      },
      "t_mapping(t_bytes4,t_bool)": {
        "encoding": "mapping",
        "key": "t_bytes4",
        "label": "mapping(bytes4 => bool)",
        "numberOfBytes": "32",
        "value": "t_bool"
      },
      "t_mapping(t_uint256,t_mapping(t_address,t_struct(Entitlement)15133_storage))": {
        "encoding": "mapping",
        "key": "t_uint256",
        "label": "mapping(uint256 => mapping(address => struct ERC721MultiTokenStream.Entitlement))",
        "numberOfBytes": "32",
        "value": "t_mapping(t_address,t_struct(Entitlement)15133_storage)"
      },
      "t_struct(Entitlement)15133_storage": {
        "encoding": "inplace",
        "label": "struct ERC721MultiTokenStream.Entitlement",
        "members": [
          {
            "astId": 15130,
            "contract": "contracts/streams/ERC721/presets/ERC721EqualEmissionStream.sol:ERC721EqualEmissionStream",
            "label": "totalClaimed",
            "offset": 0,
            "slot": "0",
            "type": "t_uint256"
          },
          {
            "astId": 15132,
            "contract": "contracts/streams/ERC721/presets/ERC721EqualEmissionStream.sol:ERC721EqualEmissionStream",
            "label": "lastClaimedAt",
            "offset": 0,
            "slot": "1",
            "type": "t_uint256"
          }
        ],
        "numberOfBytes": "64"
      },
      "t_uint256": {
        "encoding": "inplace",
        "label": "uint256",
        "numberOfBytes": "32"
      },
      "t_uint64": {
        "encoding": "inplace",
        "label": "uint64",
        "numberOfBytes": "8"
      },
      "t_uint8": {
        "encoding": "inplace",
        "label": "uint8",
        "numberOfBytes": "1"
      }
    }
  }
}