{
  "address": "0x6c3d326993Ef22120D8a6Cab0D06c261Dd4d38E6",
  "abi": [
    {
      "anonymous": false,
      "inputs": [
        {
          "indexed": true,
          "internalType": "bytes32",
          "name": "role",
          "type": "bytes32"
        },
        {
          "indexed": true,
          "internalType": "bytes32",
          "name": "previousAdminRole",
          "type": "bytes32"
        },
        {
          "indexed": true,
          "internalType": "bytes32",
          "name": "newAdminRole",
          "type": "bytes32"
        }
      ],
      "name": "RoleAdminChanged",
      "type": "event"
    },
    {
      "anonymous": false,
      "inputs": [
        {
          "indexed": true,
          "internalType": "bytes32",
          "name": "role",
          "type": "bytes32"
        },
        {
          "indexed": true,
          "internalType": "address",
          "name": "account",
          "type": "address"
        },
        {
          "indexed": true,
          "internalType": "address",
          "name": "sender",
          "type": "address"
        }
      ],
      "name": "RoleGranted",
      "type": "event"
    },
    {
      "anonymous": false,
      "inputs": [
        {
          "indexed": true,
          "internalType": "bytes32",
          "name": "role",
          "type": "bytes32"
        },
        {
          "indexed": true,
          "internalType": "address",
          "name": "account",
          "type": "address"
        },
        {
          "indexed": true,
          "internalType": "address",
          "name": "sender",
          "type": "address"
        }
      ],
      "name": "RoleRevoked",
      "type": "event"
    },
    {
      "anonymous": false,
      "inputs": [
        {
          "indexed": false,
          "internalType": "string",
          "name": "value",
          "type": "string"
        },
        {
          "indexed": true,
          "internalType": "uint256",
          "name": "tokenId",
          "type": "uint256"
        }
      ],
      "name": "URI",
      "type": "event"
    },
    {
      "inputs": [],
      "name": "DEFAULT_ADMIN_ROLE",
      "outputs": [
        {
          "internalType": "bytes32",
          "name": "",
          "type": "bytes32"
        }
      ],
      "stateMutability": "view",
      "type": "function"
    },
    {
      "inputs": [],
      "name": "MINTER_ROLE",
      "outputs": [
        {
          "internalType": "bytes32",
          "name": "",
          "type": "bytes32"
        }
      ],
      "stateMutability": "view",
      "type": "function"
    },
    {
      "inputs": [
        {
          "internalType": "address",
          "name": "to",
          "type": "address"
        },
        {
          "internalType": "uint256",
          "name": "amount",
          "type": "uint256"
        }
      ],
      "name": "mintByRole",
      "outputs": [],
      "stateMutability": "nonpayable",
      "type": "function"
    },
    {
      "inputs": [
        {
          "internalType": "address",
          "name": "to",
          "type": "address"
        },
        {
          "internalType": "uint256",
          "name": "amount",
          "type": "uint256"
        },
        {
          "internalType": "string[]",
          "name": "tokenURIs",
          "type": "string[]"
        }
      ],
      "name": "mintByRole",
      "outputs": [],
      "stateMutability": "nonpayable",
      "type": "function"
    },
    {
      "inputs": [
        {
          "internalType": "address[]",
          "name": "tos",
          "type": "address[]"
        },
        {
          "internalType": "uint256",
          "name": "amount",
          "type": "uint256"
        }
      ],
      "name": "mintByRole",
      "outputs": [],
      "stateMutability": "nonpayable",
      "type": "function"
    },
    {
      "inputs": [
        {
          "internalType": "address[]",
          "name": "tos",
          "type": "address[]"
        },
        {
          "internalType": "uint256[]",
          "name": "amounts",
          "type": "uint256[]"
        }
      ],
      "name": "mintByRole",
      "outputs": [],
      "stateMutability": "nonpayable",
      "type": "function"
    },
    {
      "inputs": [
        {
          "internalType": "address[]",
          "name": "tos",
          "type": "address[]"
        },
        {
          "internalType": "string[]",
          "name": "tokenURIs",
          "type": "string[]"
        }
      ],
      "name": "mintByRole",
      "outputs": [],
      "stateMutability": "nonpayable",
      "type": "function"
    }
  ],
  "transactionHash": "0xe1814af0a01e139a62672867f7731c9e9c9206c1ec81047153999892be474316",
  "args": [],
  "numDeployments": 5,
  "solcInputHash": "41373eaf12b52d564cbc495cd15332a7",
  "bytecode": "0x608060405234801561001057600080fd5b50610ef6806100206000396000f3fe608060405234801561001057600080fd5b506004361061007d5760003560e01c8063a217fddf1161005b578063a217fddf146100bd578063b9a47ff2146100d7578063d5391393146100ea578063e4322f0d1461011157600080fd5b80631a056e71146100825780634c361a8c1461009757806380bfddb4146100aa575b600080fd5b610095610090366004610951565b610124565b005b6100956100a53660046109c7565b6101b3565b6100956100b8366004610a21565b6102ec565b6100c5600081565b60405190815260200160405180910390f35b6100956100e5366004610a6d565b610375565b6100c57f9f2df0fed2c77648de5860a4cc508cd0818c85b8b8a1ab4ceeef8d981c8956a681565b61009561011f366004610a6d565b61041a565b7f9f2df0fed2c77648de5860a4cc508cd0818c85b8b8a1ab4ceeef8d981c8956a661014e816104fe565b604051632d4f475f60e01b81526001600160a01b0384166004820152602481018390523090632d4f475f90604401600060405180830381600087803b15801561019657600080fd5b505af11580156101aa573d6000803e3d6000fd5b50505050505050565b7f9f2df0fed2c77648de5860a4cc508cd0818c85b8b8a1ab4ceeef8d981c8956a66101dd816104fe565b60007faa3a0910ce5fb062d392dc5a532ff9d50bb9d0f614a8eda1a3ec786de0b761f354604051632d4f475f60e01b81526001600160a01b0388166004820152602481018790529091503090632d4f475f90604401600060405180830381600087803b15801561024c57600080fd5b505af1158015610260573d6000803e3d6000fd5b5050505060005b858110156101aa576102da61027c8284610ae3565b86868481811061028e5761028e610afb565b90506020028101906102a09190610b11565b8080601f01602080910402602001604051908101604052809392919081815260200183838082843760009201919091525061051292505050565b806102e481610b58565b915050610267565b7f9f2df0fed2c77648de5860a4cc508cd0818c85b8b8a1ab4ceeef8d981c8956a6610316816104fe565b6040516392c56e2d60e01b815230906392c56e2d9061033d90879087908790600401610bb8565b600060405180830381600087803b15801561035757600080fd5b505af115801561036b573d6000803e3d6000fd5b5050505050505050565b7f9f2df0fed2c77648de5860a4cc508cd0818c85b8b8a1ab4ceeef8d981c8956a661039f816104fe565b6040517f49142a1400000000000000000000000000000000000000000000000000000000815230906349142a14906103e1908890889088908890600401610bdc565b600060405180830381600087803b1580156103fb57600080fd5b505af115801561040f573d6000803e3d6000fd5b505050505050505050565b7f9f2df0fed2c77648de5860a4cc508cd0818c85b8b8a1ab4ceeef8d981c8956a6610444816104fe565b7faa3a0910ce5fb062d392dc5a532ff9d50bb9d0f614a8eda1a3ec786de0b761f3546040516392c56e2d60e01b8152859030906392c56e2d90610490908a908590600190600401610bb8565b600060405180830381600087803b1580156104aa57600080fd5b505af11580156104be573d6000803e3d6000fd5b5050505060005b8181101561036b576104ec6104da8285610ae3565b87878481811061028e5761028e610afb565b806104f681610b58565b9150506104c5565b61050f8161050a6105fc565b61060b565b50565b7f021fe373f7e014154d4f551c37c047b9ed9093c774291911030896b9b2dfef65548210156105885760405162461bcd60e51b815260206004820152601960248201527f4d657461646174613a20746f6b656e555249206c6f636b65640000000000000060448201526064015b60405180910390fd5b60008281527f021fe373f7e014154d4f551c37c047b9ed9093c774291911030896b9b2dfef66602052604090206105bf8282610ce6565b50817f6bb7ff708619ba0610cba295a58592e0451dee2622938c8755667688daf3529b826040516105f09190610dd6565b60405180910390a25050565b60006106066106a3565b905090565b60008281527f2e59e4c2e927cdddbb64e181e0668d9a0fa70dd88f94d999cd87d5496a20da62602090815260408083206001600160a01b038516845290915290205460ff1661069f5761065d816106e9565b610668836020610705565b604051602001610679929190610e09565b60408051601f198184030181529082905262461bcd60e51b825261057f91600401610dd6565b5050565b7fdb1d5e345c4903e9a32b6674ecc8b1deaddbbb2551474fb34c9d34becbe7f420546000906001600160a01b031633036106e4575060131936013560601c90565b503390565b60606106ff6001600160a01b0383166014610705565b92915050565b60606000610714836002610e8a565b61071f906002610ae3565b67ffffffffffffffff81111561073757610737610c47565b6040519080825280601f01601f191660200182016040528015610761576020820181803683370190505b5090507f30000000000000000000000000000000000000000000000000000000000000008160008151811061079857610798610afb565b60200101907effffffffffffffffffffffffffffffffffffffffffffffffffffffffffffff1916908160001a9053507f7800000000000000000000000000000000000000000000000000000000000000816001815181106107fb576107fb610afb565b60200101907effffffffffffffffffffffffffffffffffffffffffffffffffffffffffffff1916908160001a9053506000610837846002610e8a565b610842906001610ae3565b90505b60018111156108df577f303132333435363738396162636465660000000000000000000000000000000085600f166010811061088357610883610afb565b1a60f81b82828151811061089957610899610afb565b60200101907effffffffffffffffffffffffffffffffffffffffffffffffffffffffffffff1916908160001a90535060049490941c936108d881610ea9565b9050610845565b50831561092e5760405162461bcd60e51b815260206004820181905260248201527f537472696e67733a20686578206c656e67746820696e73756666696369656e74604482015260640161057f565b9392505050565b80356001600160a01b038116811461094c57600080fd5b919050565b6000806040838503121561096457600080fd5b61096d83610935565b946020939093013593505050565b60008083601f84011261098d57600080fd5b50813567ffffffffffffffff8111156109a557600080fd5b6020830191508360208260051b85010111156109c057600080fd5b9250929050565b600080600080606085870312156109dd57600080fd5b6109e685610935565b935060208501359250604085013567ffffffffffffffff811115610a0957600080fd5b610a158782880161097b565b95989497509550505050565b600080600060408486031215610a3657600080fd5b833567ffffffffffffffff811115610a4d57600080fd5b610a598682870161097b565b909790965060209590950135949350505050565b60008060008060408587031215610a8357600080fd5b843567ffffffffffffffff80821115610a9b57600080fd5b610aa78883890161097b565b90965094506020870135915080821115610ac057600080fd5b50610a158782880161097b565b634e487b7160e01b600052601160045260246000fd5b60008219821115610af657610af6610acd565b500190565b634e487b7160e01b600052603260045260246000fd5b6000808335601e19843603018112610b2857600080fd5b83018035915067ffffffffffffffff821115610b4357600080fd5b6020019150368190038213156109c057600080fd5b600060018201610b6a57610b6a610acd565b5060010190565b8183526000602080850194508260005b85811015610bad576001600160a01b03610b9a83610935565b1687529582019590820190600101610b81565b509495945050505050565b604081526000610bcc604083018587610b71565b9050826020830152949350505050565b604081526000610bf0604083018688610b71565b82810360208401528381527f07ffffffffffffffffffffffffffffffffffffffffffffffffffffffffffffff841115610c2857600080fd5b8360051b80866020840137600091016020019081529695505050505050565b634e487b7160e01b600052604160045260246000fd5b600181811c90821680610c7157607f821691505b602082108103610c9157634e487b7160e01b600052602260045260246000fd5b50919050565b601f821115610ce157600081815260208120601f850160051c81016020861015610cbe5750805b601f850160051c820191505b81811015610cdd57828155600101610cca565b5050505b505050565b815167ffffffffffffffff811115610d0057610d00610c47565b610d1481610d0e8454610c5d565b84610c97565b602080601f831160018114610d495760008415610d315750858301515b600019600386901b1c1916600185901b178555610cdd565b600085815260208120601f198616915b82811015610d7857888601518255948401946001909101908401610d59565b5085821015610d965787850151600019600388901b60f8161c191681555b5050505050600190811b01905550565b60005b83811015610dc1578181015183820152602001610da9565b83811115610dd0576000848401525b50505050565b6020815260008251806020840152610df5816040850160208701610da6565b601f01601f19169190910160400192915050565b7f416363657373436f6e74726f6c3a206163636f756e7420000000000000000000815260008351610e41816017850160208801610da6565b7f206973206d697373696e6720726f6c65200000000000000000000000000000006017918401918201528351610e7e816028840160208801610da6565b01602801949350505050565b6000816000190483118215151615610ea457610ea4610acd565b500290565b600081610eb857610eb8610acd565b50600019019056fea2646970667358221220810208c900e3a8fdd8b317b06e3818dcc9076af9bc5d34776e0c0a18d31265ca64736f6c634300080f0033",
  "devdoc": {
    "custom:category": "NFTs",
    "custom:provides-interfaces": "IERC721MintableRoleBased",
    "custom:required-dependencies": "IERC721MintableExtension",
    "custom:type": "eip-2535-facet",
    "kind": "dev",
    "methods": {
      "mintByRole(address,uint256)": {
        "details": "Mints `amount` new tokens for `to`."
      },
      "mintByRole(address,uint256,string[])": {
        "details": "Mint new tokens for single address with dedicated tokenURIs."
      },
      "mintByRole(address[],string[])": {
        "details": "Mint new tokens for multiple addresses with dedicated tokenURIs."
      },
      "mintByRole(address[],uint256)": {
        "details": "Mint constant amount of new tokens for multiple addresses (e.g. 1 nft for each address)."
      },
      "mintByRole(address[],uint256[])": {
        "details": "Mints multiple `amount`s of new tokens for every single address in `tos`."
      }
    },
    "title": "ERC721 - Mint as role - with meta-transactions",
    "version": 1
  },
  "userdoc": {
    "kind": "user",
    "methods": {},
    "notice": "Allow minting for senders with MINTER_ROLE to mint new tokens with meta-transactions supported via ERC2771 (supports ERC721A).",
    "version": 1
  },
  "storageLayout": {
    "storage": [],
    "types": null
  }
}