{
  "address": "0xb31c8f06F99Be1285Cb1998949F47E1988f38b23",
  "abi": [
    {
      "inputs": [],
      "stateMutability": "nonpayable",
      "type": "constructor"
    },
    {
      "anonymous": false,
      "inputs": [
        {
          "indexed": false,
          "internalType": "uint8",
          "name": "version",
          "type": "uint8"
        }
      ],
      "name": "Initialized",
      "type": "event"
    },
    {
      "anonymous": false,
      "inputs": [
        {
          "indexed": true,
          "internalType": "address",
          "name": "previousOwner",
          "type": "address"
        },
        {
          "indexed": true,
          "internalType": "address",
          "name": "newOwner",
          "type": "address"
        }
      ],
      "name": "OwnershipTransferred",
      "type": "event"
    },
    {
      "anonymous": false,
      "inputs": [
        {
          "indexed": true,
          "internalType": "address",
          "name": "deployer",
          "type": "address"
        },
        {
          "indexed": true,
          "internalType": "address",
          "name": "proxyAddress",
          "type": "address"
        }
      ],
      "name": "ProxyCreated",
      "type": "event"
    },
    {
      "anonymous": false,
      "inputs": [],
      "name": "WithdrawPowerRevoked",
      "type": "event"
    },
    {
      "anonymous": false,
      "inputs": [
        {
          "indexed": false,
          "internalType": "address[]",
          "name": "claimTokens",
          "type": "address[]"
        },
        {
          "indexed": false,
          "internalType": "uint256[]",
          "name": "amounts",
          "type": "uint256[]"
        }
      ],
      "name": "Withdrawn",
      "type": "event"
    },
    {
      "inputs": [
        {
          "internalType": "address",
          "name": "implementation",
          "type": "address"
        },
        {
          "internalType": "bytes32",
          "name": "salt",
          "type": "bytes32"
        },
        {
          "internalType": "bytes",
          "name": "data",
          "type": "bytes"
        }
      ],
      "name": "cloneDeterministicSimple",
      "outputs": [
        {
          "internalType": "address",
          "name": "deployedProxy",
          "type": "address"
        }
      ],
      "stateMutability": "payable",
      "type": "function"
    },
    {
      "inputs": [],
      "name": "initialize",
      "outputs": [],
      "stateMutability": "nonpayable",
      "type": "function"
    },
    {
      "inputs": [],
      "name": "lockWithdrawMode",
      "outputs": [],
      "stateMutability": "nonpayable",
      "type": "function"
    },
    {
      "inputs": [],
      "name": "lockWithdrawRecipient",
      "outputs": [],
      "stateMutability": "nonpayable",
      "type": "function"
    },
    {
      "inputs": [],
      "name": "owner",
      "outputs": [
        {
          "internalType": "address",
          "name": "",
          "type": "address"
        }
      ],
      "stateMutability": "view",
      "type": "function"
    },
    {
      "inputs": [],
      "name": "renounceOwnership",
      "outputs": [],
      "stateMutability": "nonpayable",
      "type": "function"
    },
    {
      "inputs": [],
      "name": "revokeWithdrawPower",
      "outputs": [],
      "stateMutability": "nonpayable",
      "type": "function"
    },
    {
      "inputs": [
        {
          "internalType": "enum WithdrawMode",
          "name": "_withdrawMode",
          "type": "uint8"
        }
      ],
      "name": "setWithdrawMode",
      "outputs": [],
      "stateMutability": "nonpayable",
      "type": "function"
    },
    {
      "inputs": [
        {
          "internalType": "address",
          "name": "_withdrawRecipient",
          "type": "address"
        }
      ],
      "name": "setWithdrawRecipient",
      "outputs": [],
      "stateMutability": "nonpayable",
      "type": "function"
    },
    {
      "inputs": [
        {
          "internalType": "bytes4",
          "name": "interfaceId",
          "type": "bytes4"
        }
      ],
      "name": "supportsInterface",
      "outputs": [
        {
          "internalType": "bool",
          "name": "",
          "type": "bool"
        }
      ],
      "stateMutability": "view",
      "type": "function"
    },
    {
      "inputs": [
        {
          "internalType": "address",
          "name": "newOwner",
          "type": "address"
        }
      ],
      "name": "transferOwnership",
      "outputs": [],
      "stateMutability": "nonpayable",
      "type": "function"
    },
    {
      "inputs": [
        {
          "internalType": "address[]",
          "name": "claimTokens",
          "type": "address[]"
        },
        {
          "internalType": "uint256[]",
          "name": "amounts",
          "type": "uint256[]"
        }
      ],
      "name": "withdraw",
      "outputs": [],
      "stateMutability": "nonpayable",
      "type": "function"
    },
    {
      "inputs": [],
      "name": "withdrawMode",
      "outputs": [
        {
          "internalType": "enum WithdrawMode",
          "name": "",
          "type": "uint8"
        }
      ],
      "stateMutability": "view",
      "type": "function"
    },
    {
      "inputs": [],
      "name": "withdrawModeLocked",
      "outputs": [
        {
          "internalType": "bool",
          "name": "",
          "type": "bool"
        }
      ],
      "stateMutability": "view",
      "type": "function"
    },
    {
      "inputs": [],
      "name": "withdrawPowerRevoked",
      "outputs": [
        {
          "internalType": "bool",
          "name": "",
          "type": "bool"
        }
      ],
      "stateMutability": "view",
      "type": "function"
    },
    {
      "inputs": [],
      "name": "withdrawRecipient",
      "outputs": [
        {
          "internalType": "address",
          "name": "",
          "type": "address"
        }
      ],
      "stateMutability": "view",
      "type": "function"
    },
    {
      "inputs": [],
      "name": "withdrawRecipientLocked",
      "outputs": [
        {
          "internalType": "bool",
          "name": "",
          "type": "bool"
        }
      ],
      "stateMutability": "view",
      "type": "function"
    }
  ],
  "transactionHash": "0x296513e7ccaa6c53e51356b23254e5d36d84a47e4934958813c737f22a883dde",
  "args": [],
  "numDeployments": 1,
  "solcInputHash": "437cd74ead75c27449ac7b9186c033d8",
  "bytecode": "0x60806040523480156200001157600080fd5b506200001d336200002d565b6200002762000088565b62000377565b600080546001600160a01b038381166201000081810262010000600160b01b0319851617855560405193049190911692909183917f8be0079c531659141344cd1fd0a4f28419497f9722a3daafe3b4186f6b6457e091a35050565b600054610100900460ff1615808015620000a95750600054600160ff909116105b80620000d95750620000c630620001bd60201b62000a001760201c565b158015620000d9575060005460ff166001145b620001425760405162461bcd60e51b815260206004820152602e60248201527f496e697469616c697a61626c653a20636f6e747261637420697320616c72656160448201526d191e481a5b9a5d1a585b1a5e995960921b60648201526084015b60405180910390fd5b6000805460ff19166001179055801562000166576000805461ff0019166101001790555b62000173336000620001cc565b8015620001ba576000805461ff0019169055604051600181527f7f26b83ff96e1f2b6a682f133852f6798a09c465da95921460cefb38474024989060200160405180910390a15b50565b6001600160a01b03163b151590565b600054610100900460ff16620001f65760405162461bcd60e51b8152600401620001399062000316565b62000202828262000206565b5050565b600054610100900460ff16620002305760405162461bcd60e51b8152600401620001399062000316565b6200024263ac2ba33360e01b62000292565b600280546001600160a01b0384166001600160a01b0319821681178355839291600162ff000160a01b03191617600160b01b83600381111562000289576200028962000361565b02179055505050565b6001600160e01b03198082169003620002ee5760405162461bcd60e51b815260206004820152601c60248201527f4552433136353a20696e76616c696420696e7465726661636520696400000000604482015260640162000139565b6001600160e01b0319166000908152600160208190526040909120805460ff19169091179055565b6020808252602b908201527f496e697469616c697a61626c653a20636f6e7472616374206973206e6f74206960408201526a6e697469616c697a696e6760a81b606082015260800190565b634e487b7160e01b600052602160045260246000fd5b6113be80620003876000396000f3fe6080604052600436106100ce5760003560e01c806301ffc9a7146100d35780632c233067146101085780632d00b5871461012a57806347791ece1461015857806349561cb9146101785780636057e0ec14610199578063715018a6146101ba5780638129fc1c146101cf578063837fe140146101e45780638da5cb5b146101f9578063af121f541461020e578063c0bb38ff1461022f578063c723955a1461024f578063da82b22714610264578063dcbe353f14610279578063de6d6d9614610299578063f2fde38b146102b9575b600080fd5b3480156100df57600080fd5b506100f36100ee366004610eb0565b6102d9565b60405190151581526020015b60405180910390f35b34801561011457600080fd5b50610128610123366004610ee1565b610319565b005b34801561013657600080fd5b5060025461014b90600160b01b900460ff1681565b6040516100ff9190610f18565b61016b610166366004610f5c565b610381565b6040516100ff9190610fe2565b34801561018457600080fd5b506002546100f390600160b81b900460ff1681565b3480156101a557600080fd5b506002546100f390600160a01b900460ff1681565b3480156101c657600080fd5b506101286104bd565b3480156101db57600080fd5b506101286104d1565b3480156101f057600080fd5b506101286105ec565b34801561020557600080fd5b5061016b610633565b34801561021a57600080fd5b506002546100f390600160a81b900460ff1681565b34801561023b57600080fd5b5061012861024a366004610ff6565b610648565b34801561025b57600080fd5b5061012861069c565b34801561027057600080fd5b506101286106fb565b34801561028557600080fd5b5060025461016b906001600160a01b031681565b3480156102a557600080fd5b506101286102b436600461105c565b610741565b3480156102c557600080fd5b506101286102d4366004610ff6565b61098a565b60006301ffc9a760e01b6001600160e01b03198316148061031357506001600160e01b0319821660009081526001602052604090205460ff165b92915050565b610321610a0f565b600254600160b81b900460ff16156103545760405162461bcd60e51b815260040161034b906110c7565b60405180910390fd5b6002805482919060ff60b01b1916600160b01b83600381111561037957610379610f02565b021790555050565b600080848660405161039290610ea3565b61039c9190610fe2565b8190604051809103906000f59050801580156103bc573d6000803e3d6000fd5b509150819050821561047e57600080836001600160a01b031686866040516103e59291906110e7565b6000604051808303816000865af19150503d8060008114610422576040519150601f19603f3d011682016040523d82523d6000602084013e610427565b606091505b50915091508161047b578051156104415780518082602001fd5b60405162461bcd60e51b815260206004820152600f60248201526e4641494c45445f544f5f434c4f4e4560881b604482015260640161034b565b50505b6040516001600160a01b0383169033907f9678a1e87ca9f1a37dc659a97b39d812d98cd236947e1b53b3d0d6fd346acb6e90600090a350949350505050565b6104c5610a0f565b6104cf6000610a6e565b565b600054610100900460ff16158080156104f15750600054600160ff909116105b80610512575061050030610a00565b158015610512575060005460ff166001145b6105755760405162461bcd60e51b815260206004820152602e60248201527f496e697469616c697a61626c653a20636f6e747261637420697320616c72656160448201526d191e481a5b9a5d1a585b1a5e995960921b606482015260840161034b565b6000805460ff191660011790558015610598576000805461ff0019166101001790555b6105a3336000610ac9565b80156105e9576000805461ff0019169055604051600181527f7f26b83ff96e1f2b6a682f133852f6798a09c465da95921460cefb38474024989060200160405180910390a15b50565b6105f4610a0f565b600254600160a01b900460ff161561061e5760405162461bcd60e51b815260040161034b906110c7565b6002805460ff60a01b1916600160a01b179055565b6000546201000090046001600160a01b031690565b610650610a0f565b600254600160a01b900460ff161561067a5760405162461bcd60e51b815260040161034b906110c7565b600280546001600160a01b0319166001600160a01b0392909216919091179055565b6106a4610a0f565b600254600160b81b900460ff16156106e65760405162461bcd60e51b815260206004820152600560248201526413d0d2d15160da1b604482015260640161034b565b6002805460ff60b81b1916600160b81b179055565b610703610a0f565b6002805460ff60a81b1916600160a81b1790556040517fa24423a69b45c25c0479663125e48b482e71d85eae416f589545243bafaf3c9590600090a1565b61074a33610afe565b6002546001600160a01b031661079a5760405162461bcd60e51b815260206004820152601560248201527415d2551211149055cbd393d7d49150d25412515395605a1b604482015260640161034b565b600254600160a81b900460ff16156107f45760405162461bcd60e51b815260206004820181905260248201527f57495448445241572f454d455247454e43595f504f5745525f5245564f4b4544604482015260640161034b565b60005b83811015610946576000858583818110610813576108136110f7565b90506020020160208101906108289190610ff6565b6001600160a01b03160361086b5761086683838381811061084b5761084b6110f7565b6002546001600160a01b031692602090910201359050610c83565b610934565b84848281811061087d5761087d6110f7565b90506020020160208101906108929190610ff6565b6002546001600160a01b039182169163a9059cbb91168585858181106108ba576108ba6110f7565b6040516001600160e01b031960e087901b1681526001600160a01b03909416600485015260200291909101356024830152506044016020604051808303816000875af115801561090e573d6000803e3d6000fd5b505050506040513d601f19601f82011682018060405250810190610932919061110d565b505b8061093e8161112f565b9150506107f7565b507fd40c399a83caf67d15628b821aa7c7bd940e563c57a047e2bd3b8c602bcaf5a58484848460405161097c9493929190611156565b60405180910390a150505050565b610992610a0f565b6001600160a01b0381166109f75760405162461bcd60e51b815260206004820152602660248201527f4f776e61626c653a206e6577206f776e657220697320746865207a65726f206160448201526564647265737360d01b606482015260840161034b565b6105e981610a6e565b6001600160a01b03163b151590565b33610a18610633565b6001600160a01b0316146104cf5760405162461bcd60e51b815260206004820181905260248201527f4f776e61626c653a2063616c6c6572206973206e6f7420746865206f776e6572604482015260640161034b565b600080546001600160a01b038381166201000081810262010000600160b01b0319851617855560405193049190911692909183917f8be0079c531659141344cd1fd0a4f28419497f9722a3daafe3b4186f6b6457e091a35050565b600054610100900460ff16610af05760405162461bcd60e51b815260040161034b906111d8565b610afa8282610d9e565b5050565b6003600254600160b01b900460ff166003811115610b1e57610b1e610f02565b03610b5d5760405162461bcd60e51b815260206004820152600f60248201526e15d2551211149055cbd313d0d2d151608a1b604482015260640161034b565b60028054600160b01b900460ff166003811115610b7c57610b7c610f02565b03610b845750565b6001600254600160b01b900460ff166003811115610ba457610ba4610f02565b03610c00576002546001600160a01b038281169116146105e95760405162461bcd60e51b815260206004820152601760248201527615d2551211149055cbd3d3931657d49150d25412515395604a1b604482015260640161034b565b6000600254600160b01b900460ff166003811115610c2057610c20610f02565b036105e957806001600160a01b0316610c37610633565b6001600160a01b0316146105e95760405162461bcd60e51b81526020600482015260136024820152722ba4aa24222920ab97a7a7262cafa7aba722a960691b604482015260640161034b565b80471015610cd35760405162461bcd60e51b815260206004820152601d60248201527f416464726573733a20696e73756666696369656e742062616c616e6365000000604482015260640161034b565b6000826001600160a01b03168260405160006040518083038185875af1925050503d8060008114610d20576040519150601f19603f3d011682016040523d82523d6000602084013e610d25565b606091505b5050905080610d995760405162461bcd60e51b815260206004820152603a60248201527f416464726573733a20756e61626c6520746f2073656e642076616c75652c20726044820152791958da5c1a595b9d081b585e481a185d99481c995d995c9d195960321b606482015260840161034b565b505050565b600054610100900460ff16610dc55760405162461bcd60e51b815260040161034b906111d8565b610dd563ac2ba33360e01b610e22565b600280546001600160a01b0384166001600160a01b0319821681178355839291600162ff000160a01b03191617600160b01b836003811115610e1957610e19610f02565b02179055505050565b6001600160e01b03198082169003610e7b5760405162461bcd60e51b815260206004820152601c60248201527b115490cc4d8d4e881a5b9d985b1a59081a5b9d195c999858d9481a5960221b604482015260640161034b565b6001600160e01b0319166000908152600160208190526040909120805460ff19169091179055565b6101658061122483390190565b600060208284031215610ec257600080fd5b81356001600160e01b031981168114610eda57600080fd5b9392505050565b600060208284031215610ef357600080fd5b813560048110610eda57600080fd5b634e487b7160e01b600052602160045260246000fd5b6020810160048310610f3a57634e487b7160e01b600052602160045260246000fd5b91905290565b80356001600160a01b0381168114610f5757600080fd5b919050565b60008060008060608587031215610f7257600080fd5b610f7b85610f40565b93506020850135925060408501356001600160401b0380821115610f9e57600080fd5b818701915087601f830112610fb257600080fd5b813581811115610fc157600080fd5b886020828501011115610fd357600080fd5b95989497505060200194505050565b6001600160a01b0391909116815260200190565b60006020828403121561100857600080fd5b610eda82610f40565b60008083601f84011261102357600080fd5b5081356001600160401b0381111561103a57600080fd5b6020830191508360208260051b850101111561105557600080fd5b9250929050565b6000806000806040858703121561107257600080fd5b84356001600160401b038082111561108957600080fd5b61109588838901611011565b909650945060208701359150808211156110ae57600080fd5b506110bb87828801611011565b95989497509550505050565b6020808252600690820152651313d0d2d15160d21b604082015260600190565b8183823760009101908152919050565b634e487b7160e01b600052603260045260246000fd5b60006020828403121561111f57600080fd5b81518015158114610eda57600080fd5b60006001820161114f57634e487b7160e01b600052601160045260246000fd5b5060010190565b6040808252810184905260008560608301825b87811015611197576001600160a01b0361118284610f40565b16825260209283019290910190600101611169565b5083810360208501528481526001600160fb1b038511156111b757600080fd5b8460051b915081866020830137600091016020019081529695505050505050565b6020808252602b908201527f496e697469616c697a61626c653a20636f6e7472616374206973206e6f74206960408201526a6e697469616c697a696e6760a81b60608201526080019056fe608060405260405161016538038061016583398101604081905261002291610080565b806100597f360894a13ba1a3210667c828492db98dca3e2076cc3735a920a3ca505d382bbc60001b61007d60201b61004b1760201c565b80546001600160a01b0319166001600160a01b0392909216919091179055506100b0565b90565b60006020828403121561009257600080fd5b81516001600160a01b03811681146100a957600080fd5b9392505050565b60a7806100be6000396000f3fe608060405236601057600e6013565b005b600e5b604960457f360894a13ba1a3210667c828492db98dca3e2076cc3735a920a3ca505d382bbc546001600160a01b031690565b604e565b565b90565b3660008037600080366000845af43d6000803e808015606c573d6000f35b3d6000fdfea26469706673582212207f15331a7b34a01f18cf6ff00532eff8b95f4b140ef7bfdf3a40979609c4e35964736f6c634300080f0033a2646970667358221220ad1d0e85715c422e2d35fd51ece1a7c5fe7c18f8719bdd25230a5ff786b6301f64736f6c634300080f0033",
  "devdoc": {
    "kind": "dev",
    "methods": {
      "owner()": {
        "details": "Returns the address of the current owner."
      },
      "renounceOwnership()": {
        "details": "Leaves the contract without owner. It will not be possible to call `onlyOwner` functions anymore. Can only be called by the current owner. NOTE: Renouncing ownership will leave the contract without an owner, thereby removing any functionality that is only available to the owner."
      },
      "supportsInterface(bytes4)": {
        "details": "See {IERC165-supportsInterface}."
      },
      "transferOwnership(address)": {
        "details": "Transfers ownership of the contract to a new account (`newOwner`). Can only be called by the current owner."
      }
    },
    "version": 1
  },
  "userdoc": {
    "kind": "user",
    "methods": {},
    "version": 1
  },
  "storageLayout": {
    "storage": [
      {
        "astId": 1101,
        "contract": "contracts/factory/FlairFactoryNewable.sol:FlairFactoryNewable",
        "label": "_initialized",
        "offset": 0,
        "slot": "0",
        "type": "t_uint8"
      },
      {
        "astId": 1104,
        "contract": "contracts/factory/FlairFactoryNewable.sol:FlairFactoryNewable",
        "label": "_initializing",
        "offset": 1,
        "slot": "0",
        "type": "t_bool"
      },
      {
        "astId": 937,
        "contract": "contracts/factory/FlairFactoryNewable.sol:FlairFactoryNewable",
        "label": "_owner",
        "offset": 2,
        "slot": "0",
        "type": "t_address"
      },
      {
        "astId": 5404,
        "contract": "contracts/factory/FlairFactoryNewable.sol:FlairFactoryNewable",
        "label": "_supportedInterfaces",
        "offset": 0,
        "slot": "1",
        "type": "t_mapping(t_bytes4,t_bool)"
      },
      {
        "astId": 14730,
        "contract": "contracts/factory/FlairFactoryNewable.sol:FlairFactoryNewable",
        "label": "withdrawRecipient",
        "offset": 0,
        "slot": "2",
        "type": "t_address"
      },
      {
        "astId": 14732,
        "contract": "contracts/factory/FlairFactoryNewable.sol:FlairFactoryNewable",
        "label": "withdrawRecipientLocked",
        "offset": 20,
        "slot": "2",
        "type": "t_bool"
      },
      {
        "astId": 14734,
        "contract": "contracts/factory/FlairFactoryNewable.sol:FlairFactoryNewable",
        "label": "withdrawPowerRevoked",
        "offset": 21,
        "slot": "2",
        "type": "t_bool"
      },
      {
        "astId": 14737,
        "contract": "contracts/factory/FlairFactoryNewable.sol:FlairFactoryNewable",
        "label": "withdrawMode",
        "offset": 22,
        "slot": "2",
        "type": "t_enum(WithdrawMode)14674"
      },
      {
        "astId": 14739,
        "contract": "contracts/factory/FlairFactoryNewable.sol:FlairFactoryNewable",
        "label": "withdrawModeLocked",
        "offset": 23,
        "slot": "2",
        "type": "t_bool"
      }
    ],
    "types": {
      "t_address": {
        "encoding": "inplace",
        "label": "address",
        "numberOfBytes": "20"
      },
      "t_bool": {
        "encoding": "inplace",
        "label": "bool",
        "numberOfBytes": "1"
      },
      "t_bytes4": {
        "encoding": "inplace",
        "label": "bytes4",
        "numberOfBytes": "4"
      },
      "t_enum(WithdrawMode)14674": {
        "encoding": "inplace",
        "label": "enum WithdrawMode",
        "numberOfBytes": "1"
      },
      "t_mapping(t_bytes4,t_bool)": {
        "encoding": "mapping",
        "key": "t_bytes4",
        "label": "mapping(bytes4 => bool)",
        "numberOfBytes": "32",
        "value": "t_bool"
      },
      "t_uint8": {
        "encoding": "inplace",
        "label": "uint8",
        "numberOfBytes": "1"
      }
    }
  }
}