{
  "address": "0xC97b52877Aa14987198eA8cABaa678B566baadF1",
  "abi": [
    {
      "inputs": [],
      "name": "name",
      "outputs": [
        {
          "internalType": "string",
          "name": "",
          "type": "string"
        }
      ],
      "stateMutability": "view",
      "type": "function"
    },
    {
      "inputs": [],
      "name": "nameAndSymbolLocked",
      "outputs": [
        {
          "internalType": "bool",
          "name": "",
          "type": "bool"
        }
      ],
      "stateMutability": "view",
      "type": "function"
    },
    {
      "inputs": [],
      "name": "symbol",
      "outputs": [
        {
          "internalType": "string",
          "name": "",
          "type": "string"
        }
      ],
      "stateMutability": "view",
      "type": "function"
    }
  ],
  "transactionHash": "0x2e536d995d54fe33de9c9f96fac9a74807988dca5d407d3aa9209ca2196e912b",
  "args": [],
  "numDeployments": 2,
  "solcInputHash": "39282fd68396b0deb633a61703307dfe",
  "bytecode": "0x608060405234801561001057600080fd5b50610261806100206000396000f3fe608060405234801561001057600080fd5b50600436106100415760003560e01c806306fdde0314610046578063180434a31461006457806395d89b4114610099575b600080fd5b61004e6100a1565b60405161005b9190610183565b60405180910390f35b7f70612f47e27b43eb7f87867b7b8f899a5e08503dcccf1bf322c9eef06483a1fe5460ff16604051901515815260200161005b565b61004e610152565b60607f70612f47e27b43eb7f87867b7b8f899a5e08503dcccf1bf322c9eef06483a1fc80546100cf906101d8565b80601f01602080910402602001604051908101604052809291908181526020018280546100fb906101d8565b80156101485780601f1061011d57610100808354040283529160200191610148565b820191906000526020600020905b81548152906001019060200180831161012b57829003601f168201915b5050505050905090565b60607f70612f47e27b43eb7f87867b7b8f899a5e08503dcccf1bf322c9eef06483a1fc60010180546100cf906101d8565b600060208083528351808285015260005b818110156101b057858101830151858201604001528201610194565b818111156101c2576000604083870101525b50601f01601f1916929092016040019392505050565b600181811c908216806101ec57607f821691505b602082108103610225577f4e487b7100000000000000000000000000000000000000000000000000000000600052602260045260246000fd5b5091905056fea2646970667358221220f59aa85599ba8365191e903c6f517a5e7a69a6cee8367759d70f5141160af29164736f6c634300080f0033",
  "devdoc": {
    "custom:category": "Tokens",
    "custom:provides-interfaces": "IMetadata",
    "custom:type": "eip-2535-facet",
    "kind": "dev",
    "methods": {},
    "title": "Metadata",
    "version": 1
  },
  "userdoc": {
    "kind": "user",
    "methods": {},
    "notice": "Provides contract name and symbol.",
    "version": 1
  },
  "storageLayout": {
    "storage": [],
    "types": null
  }
}