{
  "address": "0xf56F052e7F19C8ceF2FBf3E881587D14De95C70a",
  "abi": [
    {
      "inputs": [],
      "name": "ErrMaxSupplyExceeded",
      "type": "error"
    },
    {
      "anonymous": false,
      "inputs": [
        {
          "indexed": true,
          "internalType": "address",
          "name": "owner",
          "type": "address"
        },
        {
          "indexed": true,
          "internalType": "address",
          "name": "spender",
          "type": "address"
        },
        {
          "indexed": false,
          "internalType": "uint256",
          "name": "value",
          "type": "uint256"
        }
      ],
      "name": "Approval",
      "type": "event"
    },
    {
      "anonymous": false,
      "inputs": [
        {
          "indexed": true,
          "internalType": "address",
          "name": "previousOwner",
          "type": "address"
        },
        {
          "indexed": true,
          "internalType": "address",
          "name": "newOwner",
          "type": "address"
        }
      ],
      "name": "OwnershipTransferred",
      "type": "event"
    },
    {
      "anonymous": false,
      "inputs": [
        {
          "indexed": true,
          "internalType": "bytes32",
          "name": "role",
          "type": "bytes32"
        },
        {
          "indexed": true,
          "internalType": "bytes32",
          "name": "previousAdminRole",
          "type": "bytes32"
        },
        {
          "indexed": true,
          "internalType": "bytes32",
          "name": "newAdminRole",
          "type": "bytes32"
        }
      ],
      "name": "RoleAdminChanged",
      "type": "event"
    },
    {
      "anonymous": false,
      "inputs": [
        {
          "indexed": true,
          "internalType": "bytes32",
          "name": "role",
          "type": "bytes32"
        },
        {
          "indexed": true,
          "internalType": "address",
          "name": "account",
          "type": "address"
        },
        {
          "indexed": true,
          "internalType": "address",
          "name": "sender",
          "type": "address"
        }
      ],
      "name": "RoleGranted",
      "type": "event"
    },
    {
      "anonymous": false,
      "inputs": [
        {
          "indexed": true,
          "internalType": "bytes32",
          "name": "role",
          "type": "bytes32"
        },
        {
          "indexed": true,
          "internalType": "address",
          "name": "account",
          "type": "address"
        },
        {
          "indexed": true,
          "internalType": "address",
          "name": "sender",
          "type": "address"
        }
      ],
      "name": "RoleRevoked",
      "type": "event"
    },
    {
      "anonymous": false,
      "inputs": [
        {
          "indexed": true,
          "internalType": "uint256",
          "name": "tierId",
          "type": "uint256"
        },
        {
          "indexed": true,
          "internalType": "address",
          "name": "operator",
          "type": "address"
        },
        {
          "indexed": true,
          "internalType": "address",
          "name": "minter",
          "type": "address"
        },
        {
          "indexed": false,
          "internalType": "uint256",
          "name": "count",
          "type": "uint256"
        }
      ],
      "name": "TierSale",
      "type": "event"
    },
    {
      "anonymous": false,
      "inputs": [
        {
          "indexed": true,
          "internalType": "address",
          "name": "from",
          "type": "address"
        },
        {
          "indexed": true,
          "internalType": "address",
          "name": "to",
          "type": "address"
        },
        {
          "indexed": false,
          "internalType": "uint256",
          "name": "value",
          "type": "uint256"
        }
      ],
      "name": "Transfer",
      "type": "event"
    },
    {
      "inputs": [],
      "name": "DEFAULT_ADMIN_ROLE",
      "outputs": [
        {
          "internalType": "bytes32",
          "name": "",
          "type": "bytes32"
        }
      ],
      "stateMutability": "view",
      "type": "function"
    },
    {
      "inputs": [],
      "name": "MERCHANT_ROLE",
      "outputs": [
        {
          "internalType": "bytes32",
          "name": "",
          "type": "bytes32"
        }
      ],
      "stateMutability": "view",
      "type": "function"
    },
    {
      "inputs": [
        {
          "internalType": "uint256",
          "name": "tierId",
          "type": "uint256"
        },
        {
          "internalType": "address",
          "name": "minter",
          "type": "address"
        },
        {
          "internalType": "uint256",
          "name": "maxAllowance",
          "type": "uint256"
        },
        {
          "internalType": "bytes32[]",
          "name": "proof",
          "type": "bytes32[]"
        }
      ],
      "name": "eligibleForTier",
      "outputs": [
        {
          "internalType": "uint256",
          "name": "maxMintable",
          "type": "uint256"
        }
      ],
      "stateMutability": "view",
      "type": "function"
    },
    {
      "inputs": [
        {
          "internalType": "uint256",
          "name": "tierId",
          "type": "uint256"
        },
        {
          "internalType": "uint256",
          "name": "count",
          "type": "uint256"
        },
        {
          "internalType": "uint256",
          "name": "maxAllowance",
          "type": "uint256"
        },
        {
          "internalType": "bytes32[]",
          "name": "proof",
          "type": "bytes32[]"
        }
      ],
      "name": "mintByTier",
      "outputs": [],
      "stateMutability": "payable",
      "type": "function"
    },
    {
      "inputs": [
        {
          "internalType": "address",
          "name": "minter",
          "type": "address"
        },
        {
          "internalType": "uint256",
          "name": "tierId",
          "type": "uint256"
        },
        {
          "internalType": "uint256",
          "name": "count",
          "type": "uint256"
        },
        {
          "internalType": "uint256",
          "name": "maxAllowance",
          "type": "uint256"
        },
        {
          "internalType": "bytes32[]",
          "name": "proof",
          "type": "bytes32[]"
        }
      ],
      "name": "mintByTierByRole",
      "outputs": [],
      "stateMutability": "payable",
      "type": "function"
    },
    {
      "inputs": [
        {
          "internalType": "uint256",
          "name": "tierId",
          "type": "uint256"
        },
        {
          "internalType": "address",
          "name": "minter",
          "type": "address"
        },
        {
          "internalType": "uint256",
          "name": "maxAllowance",
          "type": "uint256"
        },
        {
          "internalType": "bytes32[]",
          "name": "proof",
          "type": "bytes32[]"
        }
      ],
      "name": "onTierAllowlist",
      "outputs": [
        {
          "internalType": "bool",
          "name": "",
          "type": "bool"
        }
      ],
      "stateMutability": "view",
      "type": "function"
    },
    {
      "inputs": [
        {
          "internalType": "uint256",
          "name": "tierId",
          "type": "uint256"
        }
      ],
      "name": "remainingForTier",
      "outputs": [
        {
          "internalType": "uint256",
          "name": "",
          "type": "uint256"
        }
      ],
      "stateMutability": "view",
      "type": "function"
    },
    {
      "inputs": [],
      "name": "reservedMints",
      "outputs": [
        {
          "internalType": "uint256",
          "name": "",
          "type": "uint256"
        }
      ],
      "stateMutability": "view",
      "type": "function"
    },
    {
      "inputs": [
        {
          "internalType": "uint256",
          "name": "tierId",
          "type": "uint256"
        }
      ],
      "name": "tierMints",
      "outputs": [
        {
          "internalType": "uint256",
          "name": "",
          "type": "uint256"
        }
      ],
      "stateMutability": "view",
      "type": "function"
    },
    {
      "inputs": [
        {
          "internalType": "uint256",
          "name": "tierId",
          "type": "uint256"
        }
      ],
      "name": "tiers",
      "outputs": [
        {
          "components": [
            {
              "internalType": "uint256",
              "name": "start",
              "type": "uint256"
            },
            {
              "internalType": "uint256",
              "name": "end",
              "type": "uint256"
            },
            {
              "internalType": "address",
              "name": "currency",
              "type": "address"
            },
            {
              "internalType": "uint256",
              "name": "price",
              "type": "uint256"
            },
            {
              "internalType": "uint256",
              "name": "maxPerWallet",
              "type": "uint256"
            },
            {
              "internalType": "bytes32",
              "name": "merkleRoot",
              "type": "bytes32"
            },
            {
              "internalType": "uint256",
              "name": "reserved",
              "type": "uint256"
            },
            {
              "internalType": "uint256",
              "name": "maxAllocation",
              "type": "uint256"
            }
          ],
          "internalType": "struct ITieredSalesInternal.Tier",
          "name": "",
          "type": "tuple"
        }
      ],
      "stateMutability": "view",
      "type": "function"
    },
    {
      "inputs": [],
      "name": "totalReserved",
      "outputs": [
        {
          "internalType": "uint256",
          "name": "",
          "type": "uint256"
        }
      ],
      "stateMutability": "view",
      "type": "function"
    },
    {
      "inputs": [
        {
          "internalType": "uint256",
          "name": "tierId",
          "type": "uint256"
        },
        {
          "internalType": "address",
          "name": "wallet",
          "type": "address"
        }
      ],
      "name": "walletMintedByTier",
      "outputs": [
        {
          "internalType": "uint256",
          "name": "",
          "type": "uint256"
        }
      ],
      "stateMutability": "view",
      "type": "function"
    }
  ],
  "transactionHash": "0x3e8553f09c52a256c8c8f3a26f9a2e48eb659d5181a9857c5ba96c9347b46016",
  "args": [],
  "numDeployments": 2,
  "solcInputHash": "0caef732459256ed443151237936b3f9",
  "bytecode": "0x608060405234801561001057600080fd5b50611b5d806100206000396000f3fe6080604052600436106100c75760003560e01c80635ea2c91b11610074578063b3d358391161004e578063b3d358391461029a578063bd2c18f7146102ce578063c71b0e1c146102ee57600080fd5b80635ea2c91b1461024257806368c7d37c14610255578063a217fddf1461028557600080fd5b8063352a90bb116100a5578063352a90bb146101c157806353367f08146101d65780635897f8781461022257600080fd5b8063039af9eb146100cc5780631123f2ef1461015f5780632cb9b2ac1461018d575b600080fd5b3480156100d857600080fd5b506100ec6100e7366004611682565b610322565b604051610156919060006101008201905082518252602083015160208301526001600160a01b036040840151166040830152606083015160608301526080830151608083015260a083015160a083015260c083015160c083015260e083015160e083015292915050565b60405180910390f35b34801561016b57600080fd5b5061017f61017a3660046116b7565b61040c565b604051908152602001610156565b34801561019957600080fd5b507fb7471df0c7246ed3d4a380504edfbb03f5845b709c7716243791636e4ba46cbc5461017f565b6101d46101cf36600461172f565b610455565b005b3480156101e257600080fd5b5061017f6101f1366004611682565b60009081527fb7471df0c7246ed3d4a380504edfbb03f5845b709c7716243791636e4ba46cbe602052604090205490565b34801561022e57600080fd5b5061017f61023d366004611682565b6105d3565b6101d46102503660046117a0565b61064a565b34801561026157600080fd5b50610275610270366004611801565b61079c565b6040519015158152602001610156565b34801561029157600080fd5b5061017f600081565b3480156102a657600080fd5b5061017f7f3c4a2d89ed8b4cf4347fec87df1c38410f8fc538bf9fd64c10f2717bc0feff3681565b3480156102da57600080fd5b5061017f6102e9366004611801565b6107b5565b3480156102fa57600080fd5b507fb7471df0c7246ed3d4a380504edfbb03f5845b709c7716243791636e4ba46cbb5461017f565b610376604051806101000160405280600081526020016000815260200160006001600160a01b0316815260200160008152602001600081526020016000801916815260200160008152602001600081525090565b5060009081527fb7471df0c7246ed3d4a380504edfbb03f5845b709c7716243791636e4ba46cbd60209081526040918290208251610100810184528154815260018201549281019290925260028101546001600160a01b0316928201929092526003820154606082015260048201546080820152600582015460a0820152600682015460c082015260079091015460e082015290565b60008281527fb7471df0c7246ed3d4a380504edfbb03f5845b709c7716243791636e4ba46cbf602090815260408083206001600160a01b03851684529091529020545b92915050565b60027f3d9e0cf98d8ac76a756d900415e06fbccac0f9e61251a384452695e2330be6e054036104cb5760405162461bcd60e51b815260206004820152601f60248201527f5265656e7472616e637947756172643a207265656e7472616e742063616c6c0060448201526064015b60405180910390fd5b60027f3d9e0cf98d8ac76a756d900415e06fbccac0f9e61251a384452695e2330be6e0557f3c4a2d89ed8b4cf4347fec87df1c38410f8fc538bf9fd64c10f2717bc0feff36610519816107e8565b6105278787878787876107f5565b6040517f2d4f475f0000000000000000000000000000000000000000000000000000000081526001600160a01b0388166004820152602481018690523090632d4f475f90604401600060405180830381600087803b15801561058857600080fd5b505af115801561059c573d6000803e3d6000fd5b505050505060016105ca7f3d9e0cf98d8ac76a756d900415e06fbccac0f9e61251a384452695e2330be6e090565b55505050505050565b60007fb7471df0c7246ed3d4a380504edfbb03f5845b709c7716243791636e4ba46cbb8161060084610a32565b60008581526003840160209081526040808320546002870190925282206007015492935090916106309190611862565b90508082101561064257509392505050565b949350505050565b60027f3d9e0cf98d8ac76a756d900415e06fbccac0f9e61251a384452695e2330be6e054036106bb5760405162461bcd60e51b815260206004820152601f60248201527f5265656e7472616e637947756172643a207265656e7472616e742063616c6c0060448201526064016104c2565b60027f3d9e0cf98d8ac76a756d900415e06fbccac0f9e61251a384452695e2330be6e0556106ec8585858585610af1565b30632d4f475f336040517fffffffff0000000000000000000000000000000000000000000000000000000060e084901b1681526001600160a01b03909116600482015260248101879052604401600060405180830381600087803b15801561075357600080fd5b505af1158015610767573d6000803e3d6000fd5b5050505060016107947f3d9e0cf98d8ac76a756d900415e06fbccac0f9e61251a384452695e2330be6e090565b555050505050565b60006107ab8686868686610d52565b9695505050505050565b60006107ab8686868686610e0e565b7fb7471df0c7246ed3d4a380504edfbb03f5845b709c7716243791636e4ba46cbb90565b6107f281336110e0565b50565b60006108048688868686610e0e565b90507fb7471df0c7246ed3d4a380504edfbb03f5845b709c7716243791636e4ba46cbb818611156108775760405162461bcd60e51b815260206004820152600b60248201527f455843454544535f4d415800000000000000000000000000000000000000000060448201526064016104c2565b61088087610a32565b8611156108cf5760405162461bcd60e51b815260206004820152600e60248201527f455843454544535f535550504c5900000000000000000000000000000000000060448201526064016104c2565b600087815260028201602090815260408083206007015460038501909252909120546108fb9088611879565b11156109495760405162461bcd60e51b815260206004820152601260248201527f455843454544535f414c4c4f434154494f4e000000000000000000000000000060448201526064016104c2565b600087815260048201602090815260408083206001600160a01b038c1684529091528120805488929061097d908490611879565b90915550506000878152600382016020526040812080548892906109a2908490611879565b90915550506000878152600282016020526040902060060154156109da57858160010160008282546109d49190611879565b90915550505b6001600160a01b038816336001600160a01b0316887f6b995c2a6f13fda3bb1769289588283f7687b909bdceba7789276ad33ad422f789604051610a2091815260200190565b60405180910390a45050505050505050565b7fb7471df0c7246ed3d4a380504edfbb03f5845b709c7716243791636e4ba46cbc547fb7471df0c7246ed3d4a380504edfbb03f5845b709c7716243791636e4ba46cbb8054600092610a8391611862565b610a8c84611178565b610a969190611862565b600084815260028301602052604090206006015490925015610aeb5760008381526003820160209081526040808320546002850190925290912060060154610ade9190611862565b610ae89083611879565b91505b50919050565b336000610b018783878787610e0e565b90507fb7471df0c7246ed3d4a380504edfbb03f5845b709c7716243791636e4ba46cbb81871115610b745760405162461bcd60e51b815260206004820152600b60248201527f455843454544535f4d415800000000000000000000000000000000000000000060448201526064016104c2565b610b7d88610a32565b871115610bcc5760405162461bcd60e51b815260206004820152600e60248201527f455843454544535f535550504c5900000000000000000000000000000000000060448201526064016104c2565b60008881526002820160209081526040808320600701546003850190925290912054610bf89089611879565b1115610c465760405162461bcd60e51b815260206004820152601260248201527f455843454544535f414c4c4f434154494f4e000000000000000000000000000060448201526064016104c2565b60008881526002808301602052604090912090810154600390910154610c7b918a9186916001600160a01b0316908b906111d6565b600088815260048201602090815260408083206001600160a01b038716845290915281208054899290610caf908490611879565b9091555050600088815260038201602052604081208054899290610cd4908490611879565b9091555050600088815260028201602052604090206006015415610d0c5786816001016000828254610d069190611879565b90915550505b826001600160a01b0316836001600160a01b0316897f6b995c2a6f13fda3bb1769289588283f7687b909bdceba7789276ad33ad422f78a604051610a2091815260200190565b60006107ab838380806020026020016040519081016040528093929190818152602001838360200280828437600092019190915250610d9492506107c4915050565b60008981526002919091016020526040902060050154610e0988886040517fffffffffffffffffffffffffffffffffffffffff000000000000000000000000606084901b1660208201526034810182905260009060540160405160208183030381529060405280519060200120905092915050565b6113b5565b60008581527fb7471df0c7246ed3d4a380504edfbb03f5845b709c7716243791636e4ba46cbd60205260408120600401547fb7471df0c7246ed3d4a380504edfbb03f5845b709c7716243791636e4ba46cbb90610ead5760405162461bcd60e51b815260206004820152600a60248201527f4e4f545f4558495354530000000000000000000000000000000000000000000060448201526064016104c2565b6000878152600282016020526040902054421015610f0d5760405162461bcd60e51b815260206004820152600b60248201527f4e4f545f5354415254454400000000000000000000000000000000000000000060448201526064016104c2565b6000878152600282016020526040902060010154421115610f705760405162461bcd60e51b815260206004820152600d60248201527f414c52454144595f454e4445440000000000000000000000000000000000000060448201526064016104c2565b60008781526004808301602090815260408084206001600160a01b038b1685528252808420548b8552600286019092529092200154610faf9190611862565b6000888152600283016020526040902060050154909250156110d657600087815260048201602090815260408083206001600160a01b038a168452909152902054851161103e5760405162461bcd60e51b815260206004820152600f60248201527f4d415845445f414c4c4f57414e4345000000000000000000000000000000000060448201526064016104c2565b61104b8787878787610d52565b6110975760405162461bcd60e51b815260206004820152600f60248201527f4e4f545f414c4c4f574c4953544544000000000000000000000000000000000060448201526064016104c2565b600087815260048201602090815260408083206001600160a01b038a1684529091528120546110c69087611862565b9050808311156110d4578092505b505b5095945050505050565b60008281527f2e59e4c2e927cdddbb64e181e0668d9a0fa70dd88f94d999cd87d5496a20da62602090815260408083206001600160a01b038516845290915290205460ff1661117457611132816113cb565b61113d8360206113dd565b60405160200161114e9291906118c1565b60408051601f198184030181529082905262461bcd60e51b82526104c291600401611942565b5050565b6000806111a37fe2463c7b61902c74336138227f8649cf55ec352748fb1d5f5a2a227dbcc19e075490565b7f992082eab08422324340bd25ada2736d6cd62f0b0f29a637f182303af822d56e546111cf9190611862565b9392505050565b80156113ae576001600160a01b038316611281577f3b67c745df1d17403ada58f538de4780e4768549f9387f877a18fb6c6b3a7b4b5461121a9060ff16600a611a59565b6112249034611a68565b61122e8383611a68565b111561127c5760405162461bcd60e51b815260206004820152601360248201527f494e53554646494349454e545f414d4f554e540000000000000000000000000060448201526064016104c2565b6113ae565b60007f3b67c745df1d17403ada58f538de4780e4768549f9387f877a18fb6c6b3a7b4b546112b39060ff16600a611a59565b6112bd8484611a68565b6112c79190611a87565b9050600081116113195760405162461bcd60e51b815260206004820152600f60248201527f494e434f52524543545f434f554e54000000000000000000000000000000000060448201526064016104c2565b6040517f23b872dd0000000000000000000000000000000000000000000000000000000081526001600160a01b038681166004830152306024830152604482018390528516906323b872dd906064016020604051808303816000875af1158015611387573d6000803e3d6000fd5b505050506040513d601f19601f820116820180604052508101906113ab9190611aa9565b50505b5050505050565b6000826113c28584611606565b14949350505050565b606061044f6001600160a01b03831660145b606060006113ec836002611a68565b6113f7906002611879565b67ffffffffffffffff81111561140f5761140f611acb565b6040519080825280601f01601f191660200182016040528015611439576020820181803683370190505b5090507f30000000000000000000000000000000000000000000000000000000000000008160008151811061147057611470611ae1565b60200101907effffffffffffffffffffffffffffffffffffffffffffffffffffffffffffff1916908160001a9053507f7800000000000000000000000000000000000000000000000000000000000000816001815181106114d3576114d3611ae1565b60200101907effffffffffffffffffffffffffffffffffffffffffffffffffffffffffffff1916908160001a905350600061150f846002611a68565b61151a906001611879565b90505b60018111156115b7577f303132333435363738396162636465660000000000000000000000000000000085600f166010811061155b5761155b611ae1565b1a60f81b82828151811061157157611571611ae1565b60200101907effffffffffffffffffffffffffffffffffffffffffffffffffffffffffffff1916908160001a90535060049490941c936115b081611af7565b905061151d565b5083156111cf5760405162461bcd60e51b815260206004820181905260248201527f537472696e67733a20686578206c656e67746820696e73756666696369656e7460448201526064016104c2565b600081815b845181101561164b576116378286838151811061162a5761162a611ae1565b6020026020010151611653565b91508061164381611b0e565b91505061160b565b509392505050565b600081831061166f5760008281526020849052604090206111cf565b60008381526020839052604090206111cf565b60006020828403121561169457600080fd5b5035919050565b80356001600160a01b03811681146116b257600080fd5b919050565b600080604083850312156116ca57600080fd5b823591506116da6020840161169b565b90509250929050565b60008083601f8401126116f557600080fd5b50813567ffffffffffffffff81111561170d57600080fd5b6020830191508360208260051b850101111561172857600080fd5b9250929050565b60008060008060008060a0878903121561174857600080fd5b6117518761169b565b9550602087013594506040870135935060608701359250608087013567ffffffffffffffff81111561178257600080fd5b61178e89828a016116e3565b979a9699509497509295939492505050565b6000806000806000608086880312156117b857600080fd5b853594506020860135935060408601359250606086013567ffffffffffffffff8111156117e457600080fd5b6117f0888289016116e3565b969995985093965092949392505050565b60008060008060006080868803121561181957600080fd5b853594506118296020870161169b565b935060408601359250606086013567ffffffffffffffff8111156117e457600080fd5b634e487b7160e01b600052601160045260246000fd5b6000828210156118745761187461184c565b500390565b6000821982111561188c5761188c61184c565b500190565b60005b838110156118ac578181015183820152602001611894565b838111156118bb576000848401525b50505050565b7f416363657373436f6e74726f6c3a206163636f756e74200000000000000000008152600083516118f9816017850160208801611891565b7f206973206d697373696e6720726f6c65200000000000000000000000000000006017918401918201528351611936816028840160208801611891565b01602801949350505050565b6020815260008251806020840152611961816040850160208701611891565b601f01601f19169190910160400192915050565b600181815b808511156119b05781600019048211156119965761199661184c565b808516156119a357918102915b93841c939080029061197a565b509250929050565b6000826119c75750600161044f565b816119d45750600061044f565b81600181146119ea57600281146119f457611a10565b600191505061044f565b60ff841115611a0557611a0561184c565b50506001821b61044f565b5060208310610133831016604e8410600b8410161715611a33575081810a61044f565b611a3d8383611975565b8060001904821115611a5157611a5161184c565b029392505050565b60006111cf60ff8416836119b8565b6000816000190483118215151615611a8257611a8261184c565b500290565b600082611aa457634e487b7160e01b600052601260045260246000fd5b500490565b600060208284031215611abb57600080fd5b815180151581146111cf57600080fd5b634e487b7160e01b600052604160045260246000fd5b634e487b7160e01b600052603260045260246000fd5b600081611b0657611b0661184c565b506000190190565b600060018201611b2057611b2061184c565b506001019056fea2646970667358221220bd226e26babfff1b8fc15ebd27dbb10ce6a8301b4bf4312199fbe6ee70451ce364736f6c634300080f0033",
  "devdoc": {
    "custom:category": "Tokens",
    "custom:provides-interfaces": "ITieredSales ITieredSalesRoleBased",
    "custom:required-dependencies": "IERC20MintableExtension IERC20SupplyExtension",
    "custom:type": "eip-2535-facet",
    "kind": "dev",
    "methods": {},
    "title": "ERC20 - Tiered Sales",
    "version": 1
  },
  "userdoc": {
    "kind": "user",
    "methods": {},
    "notice": "Sales mechanism for ERC20 tokens with multiple tiered pricing, allowlist and allocation plans.",
    "version": 1
  },
  "storageLayout": {
    "storage": [],
    "types": null
  }
}