{
  "address": "0x0f05228b9b2dD98c3A6b5E89bdFD44b2e7F63245",
  "abi": [
    {
      "anonymous": false,
      "inputs": [
        {
          "indexed": true,
          "internalType": "address",
          "name": "previousOwner",
          "type": "address"
        },
        {
          "indexed": true,
          "internalType": "address",
          "name": "newOwner",
          "type": "address"
        }
      ],
      "name": "OwnershipTransferred",
      "type": "event"
    },
    {
      "inputs": [
        {
          "internalType": "uint256",
          "name": "tierId",
          "type": "uint256"
        },
        {
          "internalType": "address",
          "name": "minter",
          "type": "address"
        },
        {
          "internalType": "uint256",
          "name": "maxAllowance",
          "type": "uint256"
        },
        {
          "internalType": "bytes32[]",
          "name": "proof",
          "type": "bytes32[]"
        }
      ],
      "name": "eligibleForTier",
      "outputs": [
        {
          "internalType": "uint256",
          "name": "maxMintable",
          "type": "uint256"
        }
      ],
      "stateMutability": "view",
      "type": "function"
    },
    {
      "inputs": [
        {
          "internalType": "uint256",
          "name": "tierId",
          "type": "uint256"
        },
        {
          "internalType": "uint256",
          "name": "count",
          "type": "uint256"
        },
        {
          "internalType": "uint256",
          "name": "maxAllowance",
          "type": "uint256"
        },
        {
          "internalType": "bytes32[]",
          "name": "proof",
          "type": "bytes32[]"
        }
      ],
      "name": "mintByTier",
      "outputs": [],
      "stateMutability": "payable",
      "type": "function"
    },
    {
      "inputs": [
        {
          "internalType": "uint256",
          "name": "tierId",
          "type": "uint256"
        },
        {
          "internalType": "address",
          "name": "minter",
          "type": "address"
        },
        {
          "internalType": "uint256",
          "name": "maxAllowance",
          "type": "uint256"
        },
        {
          "internalType": "bytes32[]",
          "name": "proof",
          "type": "bytes32[]"
        }
      ],
      "name": "onTierAllowlist",
      "outputs": [
        {
          "internalType": "bool",
          "name": "",
          "type": "bool"
        }
      ],
      "stateMutability": "view",
      "type": "function"
    },
    {
      "inputs": [
        {
          "internalType": "uint256",
          "name": "tierId",
          "type": "uint256"
        }
      ],
      "name": "remainingForTier",
      "outputs": [
        {
          "internalType": "uint256",
          "name": "",
          "type": "uint256"
        }
      ],
      "stateMutability": "view",
      "type": "function"
    },
    {
      "inputs": [],
      "name": "reservedMints",
      "outputs": [
        {
          "internalType": "uint256",
          "name": "",
          "type": "uint256"
        }
      ],
      "stateMutability": "view",
      "type": "function"
    },
    {
      "inputs": [
        {
          "internalType": "uint256",
          "name": "tierId",
          "type": "uint256"
        }
      ],
      "name": "tierMints",
      "outputs": [
        {
          "internalType": "uint256",
          "name": "",
          "type": "uint256"
        }
      ],
      "stateMutability": "view",
      "type": "function"
    },
    {
      "inputs": [
        {
          "internalType": "uint256",
          "name": "tierId",
          "type": "uint256"
        }
      ],
      "name": "tierToTokenId",
      "outputs": [
        {
          "internalType": "uint256",
          "name": "",
          "type": "uint256"
        }
      ],
      "stateMutability": "view",
      "type": "function"
    },
    {
      "inputs": [
        {
          "internalType": "uint256[]",
          "name": "tierIds",
          "type": "uint256[]"
        }
      ],
      "name": "tierToTokenId",
      "outputs": [
        {
          "internalType": "uint256[]",
          "name": "",
          "type": "uint256[]"
        }
      ],
      "stateMutability": "view",
      "type": "function"
    },
    {
      "inputs": [
        {
          "internalType": "uint256",
          "name": "tierId",
          "type": "uint256"
        }
      ],
      "name": "tiers",
      "outputs": [
        {
          "components": [
            {
              "internalType": "uint256",
              "name": "start",
              "type": "uint256"
            },
            {
              "internalType": "uint256",
              "name": "end",
              "type": "uint256"
            },
            {
              "internalType": "address",
              "name": "currency",
              "type": "address"
            },
            {
              "internalType": "uint256",
              "name": "price",
              "type": "uint256"
            },
            {
              "internalType": "uint256",
              "name": "maxPerWallet",
              "type": "uint256"
            },
            {
              "internalType": "bytes32",
              "name": "merkleRoot",
              "type": "bytes32"
            },
            {
              "internalType": "uint256",
              "name": "reserved",
              "type": "uint256"
            },
            {
              "internalType": "uint256",
              "name": "maxAllocation",
              "type": "uint256"
            }
          ],
          "internalType": "struct ITieredSalesInternal.Tier",
          "name": "",
          "type": "tuple"
        }
      ],
      "stateMutability": "view",
      "type": "function"
    },
    {
      "inputs": [],
      "name": "totalReserved",
      "outputs": [
        {
          "internalType": "uint256",
          "name": "",
          "type": "uint256"
        }
      ],
      "stateMutability": "view",
      "type": "function"
    },
    {
      "inputs": [
        {
          "internalType": "uint256",
          "name": "tierId",
          "type": "uint256"
        },
        {
          "internalType": "address",
          "name": "wallet",
          "type": "address"
        }
      ],
      "name": "walletMintedByTier",
      "outputs": [
        {
          "internalType": "uint256",
          "name": "",
          "type": "uint256"
        }
      ],
      "stateMutability": "view",
      "type": "function"
    }
  ],
  "transactionHash": "0xa8a419286625507d06e597d296f5c14a02df1b3d64427c1c5e2b80307c1f8914",
  "args": [],
  "numDeployments": 1,
  "solcInputHash": "e2f42af2f5273c7308f3825761226b47",
  "bytecode": "0x608060405234801561001057600080fd5b5061139f806100206000396000f3fe6080604052600436106100bc5760003560e01c806353367f081161007457806368c7d37c1161004e57806368c7d37c146102f2578063bd2c18f714610322578063c71b0e1c1461034257600080fd5b806353367f08146102715780635897f878146102bd5780635ea2c91b146102dd57600080fd5b80631123f2ef116100a55780631123f2ef146101ae5780632cb9b2ac1461021057806351607bf41461024457600080fd5b8063039af9eb146100c15780630b81f18014610154575b600080fd5b3480156100cd57600080fd5b506100e16100dc3660046110bf565b610376565b60405161014b919060006101008201905082518252602083015160208301526001600160a01b036040840151166040830152606083015160608301526080830151608083015260a083015160a083015260c083015160c083015260e083015160e083015292915050565b60405180910390f35b34801561016057600080fd5b506101a061016f3660046110bf565b60009081527f46f908971db3fbea57e8a21b2e54575e0e567ff2f950ead3c0dc83f15ec67154602052604090205490565b60405190815260200161014b565b3480156101ba57600080fd5b506101a06101c93660046110f4565b60009182527fb7471df0c7246ed3d4a380504edfbb03f5845b709c7716243791636e4ba46cbf602090815260408084206001600160a01b0393909316845291905290205490565b34801561021c57600080fd5b507fb7471df0c7246ed3d4a380504edfbb03f5845b709c7716243791636e4ba46cbc546101a0565b34801561025057600080fd5b5061026461025f36600461116c565b610460565b60405161014b91906111ae565b34801561027d57600080fd5b506101a061028c3660046110bf565b60009081527fb7471df0c7246ed3d4a380504edfbb03f5845b709c7716243791636e4ba46cbe602052604090205490565b3480156102c957600080fd5b506101a06102d83660046110bf565b610536565b6102f06102eb3660046111f2565b6105ad565b005b3480156102fe57600080fd5b5061031261030d366004611253565b61073a565b604051901515815260200161014b565b34801561032e57600080fd5b506101a061033d366004611253565b610753565b34801561034e57600080fd5b507fb7471df0c7246ed3d4a380504edfbb03f5845b709c7716243791636e4ba46cbb546101a0565b6103ca604051806101000160405280600081526020016000815260200160006001600160a01b0316815260200160008152602001600081526020016000801916815260200160008152602001600081525090565b5060009081527fb7471df0c7246ed3d4a380504edfbb03f5845b709c7716243791636e4ba46cbd60209081526040918290208251610100810184528154815260018201549281019290925260028101546001600160a01b0316928201929092526003820154606082015260048201546080820152600582015460a0820152600682015460c082015260079091015460e082015290565b606060008267ffffffffffffffff81111561047d5761047d61129e565b6040519080825280602002602001820160405280156104a6578160200160208202803683370190505b50905060005b8381101561052e577f46f908971db3fbea57e8a21b2e54575e0e567ff2f950ead3c0dc83f15ec6715460008686848181106104e9576104e96112b4565b90506020020135815260200190815260200160002054828281518110610511576105116112b4565b602090810291909101015280610526816112e0565b9150506104ac565b509392505050565b60007fb7471df0c7246ed3d4a380504edfbb03f5845b709c7716243791636e4ba46cbb8161056384610786565b600085815260038401602090815260408083205460028701909252822060070154929350909161059391906112f9565b9050808210156105a557509392505050565b949350505050565b60027f3d9e0cf98d8ac76a756d900415e06fbccac0f9e61251a384452695e2330be6e054036106235760405162461bcd60e51b815260206004820152601f60248201527f5265656e7472616e637947756172643a207265656e7472616e742063616c6c0060448201526064015b60405180910390fd5b60027f3d9e0cf98d8ac76a756d900415e06fbccac0f9e61251a384452695e2330be6e0556106548585858585610845565b60008581527f46f908971db3fbea57e8a21b2e54575e0e567ff2f950ead3c0dc83f15ec6715460205260408082205481517fb164884b00000000000000000000000000000000000000000000000000000000815233600482015260248101919091526044810187905260806064820152608481018390529051309263b164884b9260a4808201939182900301818387803b1580156106f157600080fd5b505af1158015610705573d6000803e3d6000fd5b5050505060016107327f3d9e0cf98d8ac76a756d900415e06fbccac0f9e61251a384452695e2330be6e090565b555050505050565b60006107498686868686610b99565b9695505050505050565b60006107498686868686610c55565b7fb7471df0c7246ed3d4a380504edfbb03f5845b709c7716243791636e4ba46cbb90565b7fb7471df0c7246ed3d4a380504edfbb03f5845b709c7716243791636e4ba46cbc547fb7471df0c7246ed3d4a380504edfbb03f5845b709c7716243791636e4ba46cbb80546000926107d7916112f9565b6107e084610f27565b6107ea91906112f9565b60008481526002830160205260409020600601549092501561083f576000838152600382016020908152604080832054600285019092529091206006015461083291906112f9565b61083c9083611310565b91505b50919050565b3360006108558783878787610c55565b90507fb7471df0c7246ed3d4a380504edfbb03f5845b709c7716243791636e4ba46cbb818711156108c85760405162461bcd60e51b815260206004820152600b60248201527f455843454544535f4d4158000000000000000000000000000000000000000000604482015260640161061a565b6108d188610786565b8711156109205760405162461bcd60e51b815260206004820152600e60248201527f455843454544535f535550504c59000000000000000000000000000000000000604482015260640161061a565b6000888152600282016020908152604080832060070154600385019092529091205461094c9089611310565b111561099a5760405162461bcd60e51b815260206004820152601260248201527f455843454544535f414c4c4f434154494f4e0000000000000000000000000000604482015260640161061a565b60008881526002808301602052604090912001546001600160a01b0316610a2f57600088815260028201602052604090206003015434906109dc908990611328565b1115610a2a5760405162461bcd60e51b815260206004820152601360248201527f494e53554646494349454e545f414d4f554e5400000000000000000000000000604482015260640161061a565b610afe565b600088815260028083016020526040909120908101546003909101546001600160a01b03909116906323b872dd9085903090610a6c908c90611328565b6040517fffffffff0000000000000000000000000000000000000000000000000000000060e086901b1681526001600160a01b03938416600482015292909116602483015260448201526064016020604051808303816000875af1158015610ad8573d6000803e3d6000fd5b505050506040513d601f19601f82011682018060405250810190610afc9190611347565b505b600088815260048201602090815260408083206001600160a01b038716845290915281208054899290610b32908490611310565b9091555050600088815260038201602052604081208054899290610b57908490611310565b9091555050600088815260028201602052604090206006015415610b8f5786816001016000828254610b899190611310565b90915550505b5050505050505050565b6000610749838380806020026020016040519081016040528093929190818152602001838360200280828437600092019190915250610bdb9250610762915050565b60008981526002919091016020526040902060050154610c5088886040517fffffffffffffffffffffffffffffffffffffffff000000000000000000000000606084901b1660208201526034810182905260009060540160405160208183030381529060405280519060200120905092915050565b611032565b60008581527fb7471df0c7246ed3d4a380504edfbb03f5845b709c7716243791636e4ba46cbd60205260408120600401547fb7471df0c7246ed3d4a380504edfbb03f5845b709c7716243791636e4ba46cbb90610cf45760405162461bcd60e51b815260206004820152600a60248201527f4e4f545f45584953545300000000000000000000000000000000000000000000604482015260640161061a565b6000878152600282016020526040902054421015610d545760405162461bcd60e51b815260206004820152600b60248201527f4e4f545f53544152544544000000000000000000000000000000000000000000604482015260640161061a565b6000878152600282016020526040902060010154421115610db75760405162461bcd60e51b815260206004820152600d60248201527f414c52454144595f454e44454400000000000000000000000000000000000000604482015260640161061a565b60008781526004808301602090815260408084206001600160a01b038b1685528252808420548b8552600286019092529092200154610df691906112f9565b600088815260028301602052604090206005015490925015610f1d57600087815260048201602090815260408083206001600160a01b038a1684529091529020548511610e855760405162461bcd60e51b815260206004820152600f60248201527f4d415845445f414c4c4f57414e43450000000000000000000000000000000000604482015260640161061a565b610e928787878787610b99565b610ede5760405162461bcd60e51b815260206004820152600f60248201527f4e4f545f414c4c4f574c49535445440000000000000000000000000000000000604482015260640161061a565b600087815260048201602090815260408083206001600160a01b038a168452909152812054610f0d90876112f9565b905080831115610f1b578092505b505b5095945050505050565b7f744f4bd40000000000000000000000000000000000000000000000000000000060009081527fff923f4a67695a9cdd5da4b8580a5a20edf2183c42aa111dd7fc15dc7bed26406020527f35d3cc196fdbb37c639d9ccf02c0ac54b3a84c388495dbf9ab724144133fc6255460ff16610fa35750600019919050565b60008281527f46f908971db3fbea57e8a21b2e54575e0e567ff2f950ead3c0dc83f15ec6715460209081526040808320548084527f7056dcda885936c7a9d7c6385902b4ab5fb09024caea98652b7189a5f7a28ea58352818420547f7056dcda885936c7a9d7c6385902b4ab5fb09024caea98652b7189a5f7a28ea6909352908320549092916105a5916112f9565b60008261103f8584611048565b14949350505050565b600081815b845181101561052e576110798286838151811061106c5761106c6112b4565b602002602001015161108d565b915080611085816112e0565b91505061104d565b60008183106110a95760008281526020849052604090206110b8565b60008381526020839052604090205b9392505050565b6000602082840312156110d157600080fd5b5035919050565b80356001600160a01b03811681146110ef57600080fd5b919050565b6000806040838503121561110757600080fd5b82359150611117602084016110d8565b90509250929050565b60008083601f84011261113257600080fd5b50813567ffffffffffffffff81111561114a57600080fd5b6020830191508360208260051b850101111561116557600080fd5b9250929050565b6000806020838503121561117f57600080fd5b823567ffffffffffffffff81111561119657600080fd5b6111a285828601611120565b90969095509350505050565b6020808252825182820181905260009190848201906040850190845b818110156111e6578351835292840192918401916001016111ca565b50909695505050505050565b60008060008060006080868803121561120a57600080fd5b853594506020860135935060408601359250606086013567ffffffffffffffff81111561123657600080fd5b61124288828901611120565b969995985093965092949392505050565b60008060008060006080868803121561126b57600080fd5b8535945061127b602087016110d8565b935060408601359250606086013567ffffffffffffffff81111561123657600080fd5b634e487b7160e01b600052604160045260246000fd5b634e487b7160e01b600052603260045260246000fd5b634e487b7160e01b600052601160045260246000fd5b6000600182016112f2576112f26112ca565b5060010190565b60008282101561130b5761130b6112ca565b500390565b60008219821115611323576113236112ca565b500190565b6000816000190483118215151615611342576113426112ca565b500290565b60006020828403121561135957600080fd5b815180151581146110b857600080fdfea2646970667358221220f1e43edcc59e0271c632bf86fdb255524647211b1400dac4b64f641741d7685264736f6c634300080f0033",
  "devdoc": {
    "custom:category": "NFTs",
    "custom:provides-interfaces": "ITieredSales IERC1155TieredSales",
    "custom:required-dependencies": "IERC1155MintableExtension",
    "custom:type": "eip-2535-facet",
    "kind": "dev",
    "methods": {},
    "title": "ERC1155 - Tiered Sales",
    "version": 1
  },
  "userdoc": {
    "kind": "user",
    "methods": {},
    "notice": "Sales mechanism for ERC1155 NFTs with multiple tiered pricing, allowlist and allocation plans.",
    "version": 1
  },
  "storageLayout": {
    "storage": [],
    "types": null
  }
}