{
  "address": "0xad0B69e01dC4F051e23F247F2EA41dFCBe3a78b1",
  "abi": [
    {
      "inputs": [],
      "name": "ErrSenderIsNotSelf",
      "type": "error"
    },
    {
      "anonymous": false,
      "inputs": [
        {
          "indexed": true,
          "internalType": "address",
          "name": "account",
          "type": "address"
        },
        {
          "indexed": true,
          "internalType": "address",
          "name": "operator",
          "type": "address"
        },
        {
          "indexed": false,
          "internalType": "bool",
          "name": "approved",
          "type": "bool"
        }
      ],
      "name": "ApprovalForAll",
      "type": "event"
    },
    {
      "anonymous": false,
      "inputs": [
        {
          "indexed": true,
          "internalType": "address",
          "name": "operator",
          "type": "address"
        },
        {
          "indexed": true,
          "internalType": "address",
          "name": "from",
          "type": "address"
        },
        {
          "indexed": true,
          "internalType": "address",
          "name": "to",
          "type": "address"
        },
        {
          "indexed": false,
          "internalType": "uint256[]",
          "name": "ids",
          "type": "uint256[]"
        },
        {
          "indexed": false,
          "internalType": "uint256[]",
          "name": "values",
          "type": "uint256[]"
        }
      ],
      "name": "TransferBatch",
      "type": "event"
    },
    {
      "anonymous": false,
      "inputs": [
        {
          "indexed": true,
          "internalType": "address",
          "name": "operator",
          "type": "address"
        },
        {
          "indexed": true,
          "internalType": "address",
          "name": "from",
          "type": "address"
        },
        {
          "indexed": true,
          "internalType": "address",
          "name": "to",
          "type": "address"
        },
        {
          "indexed": false,
          "internalType": "uint256",
          "name": "id",
          "type": "uint256"
        },
        {
          "indexed": false,
          "internalType": "uint256",
          "name": "value",
          "type": "uint256"
        }
      ],
      "name": "TransferSingle",
      "type": "event"
    },
    {
      "inputs": [
        {
          "internalType": "address",
          "name": "account",
          "type": "address"
        },
        {
          "internalType": "uint256",
          "name": "id",
          "type": "uint256"
        }
      ],
      "name": "balanceOf",
      "outputs": [
        {
          "internalType": "uint256",
          "name": "",
          "type": "uint256"
        }
      ],
      "stateMutability": "view",
      "type": "function"
    },
    {
      "inputs": [
        {
          "internalType": "address[]",
          "name": "accounts",
          "type": "address[]"
        },
        {
          "internalType": "uint256[]",
          "name": "ids",
          "type": "uint256[]"
        }
      ],
      "name": "balanceOfBatch",
      "outputs": [
        {
          "internalType": "uint256[]",
          "name": "",
          "type": "uint256[]"
        }
      ],
      "stateMutability": "view",
      "type": "function"
    },
    {
      "inputs": [
        {
          "internalType": "address",
          "name": "account",
          "type": "address"
        },
        {
          "internalType": "uint256",
          "name": "id",
          "type": "uint256"
        },
        {
          "internalType": "uint256",
          "name": "value",
          "type": "uint256"
        }
      ],
      "name": "burn",
      "outputs": [],
      "stateMutability": "nonpayable",
      "type": "function"
    },
    {
      "inputs": [
        {
          "internalType": "address",
          "name": "account",
          "type": "address"
        },
        {
          "internalType": "uint256[]",
          "name": "ids",
          "type": "uint256[]"
        },
        {
          "internalType": "uint256[]",
          "name": "values",
          "type": "uint256[]"
        }
      ],
      "name": "burnBatch",
      "outputs": [],
      "stateMutability": "nonpayable",
      "type": "function"
    },
    {
      "inputs": [
        {
          "internalType": "address",
          "name": "account",
          "type": "address"
        },
        {
          "internalType": "uint256[]",
          "name": "ids",
          "type": "uint256[]"
        },
        {
          "internalType": "uint256[]",
          "name": "values",
          "type": "uint256[]"
        }
      ],
      "name": "burnBatchByFacet",
      "outputs": [],
      "stateMutability": "nonpayable",
      "type": "function"
    },
    {
      "inputs": [
        {
          "internalType": "address",
          "name": "account",
          "type": "address"
        },
        {
          "internalType": "uint256",
          "name": "id",
          "type": "uint256"
        },
        {
          "internalType": "uint256",
          "name": "amount",
          "type": "uint256"
        }
      ],
      "name": "burnByFacet",
      "outputs": [],
      "stateMutability": "nonpayable",
      "type": "function"
    },
    {
      "inputs": [
        {
          "internalType": "uint256",
          "name": "id",
          "type": "uint256"
        }
      ],
      "name": "exists",
      "outputs": [
        {
          "internalType": "bool",
          "name": "",
          "type": "bool"
        }
      ],
      "stateMutability": "view",
      "type": "function"
    },
    {
      "inputs": [
        {
          "internalType": "address",
          "name": "account",
          "type": "address"
        },
        {
          "internalType": "address",
          "name": "operator",
          "type": "address"
        }
      ],
      "name": "isApprovedForAll",
      "outputs": [
        {
          "internalType": "bool",
          "name": "",
          "type": "bool"
        }
      ],
      "stateMutability": "view",
      "type": "function"
    },
    {
      "inputs": [
        {
          "internalType": "address",
          "name": "account",
          "type": "address"
        },
        {
          "internalType": "uint256",
          "name": "id",
          "type": "uint256"
        },
        {
          "internalType": "uint256",
          "name": "amount",
          "type": "uint256"
        }
      ],
      "name": "lockByFacet",
      "outputs": [],
      "stateMutability": "nonpayable",
      "type": "function"
    },
    {
      "inputs": [
        {
          "internalType": "address[]",
          "name": "accounts",
          "type": "address[]"
        },
        {
          "internalType": "uint256[]",
          "name": "ids",
          "type": "uint256[]"
        },
        {
          "internalType": "uint256[]",
          "name": "amounts",
          "type": "uint256[]"
        }
      ],
      "name": "lockByFacet",
      "outputs": [],
      "stateMutability": "nonpayable",
      "type": "function"
    },
    {
      "inputs": [
        {
          "internalType": "address",
          "name": "account",
          "type": "address"
        },
        {
          "internalType": "uint256[]",
          "name": "ticketTokenIds",
          "type": "uint256[]"
        }
      ],
      "name": "locked",
      "outputs": [
        {
          "internalType": "uint256[]",
          "name": "",
          "type": "uint256[]"
        }
      ],
      "stateMutability": "view",
      "type": "function"
    },
    {
      "inputs": [
        {
          "internalType": "address",
          "name": "account",
          "type": "address"
        },
        {
          "internalType": "uint256",
          "name": "tokenId",
          "type": "uint256"
        }
      ],
      "name": "locked",
      "outputs": [
        {
          "internalType": "uint256",
          "name": "",
          "type": "uint256"
        }
      ],
      "stateMutability": "view",
      "type": "function"
    },
    {
      "inputs": [
        {
          "internalType": "uint256",
          "name": "id",
          "type": "uint256"
        }
      ],
      "name": "maxSupply",
      "outputs": [
        {
          "internalType": "uint256",
          "name": "",
          "type": "uint256"
        }
      ],
      "stateMutability": "view",
      "type": "function"
    },
    {
      "inputs": [
        {
          "internalType": "address[]",
          "name": "tos",
          "type": "address[]"
        },
        {
          "internalType": "uint256[]",
          "name": "ids",
          "type": "uint256[]"
        },
        {
          "internalType": "uint256[]",
          "name": "amounts",
          "type": "uint256[]"
        },
        {
          "internalType": "bytes[]",
          "name": "datas",
          "type": "bytes[]"
        }
      ],
      "name": "mintByFacet",
      "outputs": [],
      "stateMutability": "nonpayable",
      "type": "function"
    },
    {
      "inputs": [
        {
          "internalType": "address",
          "name": "to",
          "type": "address"
        },
        {
          "internalType": "uint256",
          "name": "id",
          "type": "uint256"
        },
        {
          "internalType": "uint256",
          "name": "amount",
          "type": "uint256"
        },
        {
          "internalType": "bytes",
          "name": "data",
          "type": "bytes"
        }
      ],
      "name": "mintByFacet",
      "outputs": [],
      "stateMutability": "nonpayable",
      "type": "function"
    },
    {
      "inputs": [
        {
          "internalType": "address",
          "name": "from",
          "type": "address"
        },
        {
          "internalType": "address",
          "name": "to",
          "type": "address"
        },
        {
          "internalType": "uint256[]",
          "name": "ids",
          "type": "uint256[]"
        },
        {
          "internalType": "uint256[]",
          "name": "amounts",
          "type": "uint256[]"
        },
        {
          "internalType": "bytes",
          "name": "data",
          "type": "bytes"
        }
      ],
      "name": "safeBatchTransferFrom",
      "outputs": [],
      "stateMutability": "nonpayable",
      "type": "function"
    },
    {
      "inputs": [
        {
          "internalType": "address",
          "name": "from",
          "type": "address"
        },
        {
          "internalType": "address",
          "name": "to",
          "type": "address"
        },
        {
          "internalType": "uint256",
          "name": "id",
          "type": "uint256"
        },
        {
          "internalType": "uint256",
          "name": "amount",
          "type": "uint256"
        },
        {
          "internalType": "bytes",
          "name": "data",
          "type": "bytes"
        }
      ],
      "name": "safeTransferFrom",
      "outputs": [],
      "stateMutability": "nonpayable",
      "type": "function"
    },
    {
      "inputs": [
        {
          "internalType": "address",
          "name": "operator",
          "type": "address"
        },
        {
          "internalType": "bool",
          "name": "status",
          "type": "bool"
        }
      ],
      "name": "setApprovalForAll",
      "outputs": [],
      "stateMutability": "nonpayable",
      "type": "function"
    },
    {
      "inputs": [
        {
          "internalType": "uint256",
          "name": "id",
          "type": "uint256"
        }
      ],
      "name": "totalSupply",
      "outputs": [
        {
          "internalType": "uint256",
          "name": "",
          "type": "uint256"
        }
      ],
      "stateMutability": "view",
      "type": "function"
    },
    {
      "inputs": [
        {
          "internalType": "address[]",
          "name": "accounts",
          "type": "address[]"
        },
        {
          "internalType": "uint256[]",
          "name": "ids",
          "type": "uint256[]"
        },
        {
          "internalType": "uint256[]",
          "name": "amounts",
          "type": "uint256[]"
        }
      ],
      "name": "unlockByFacet",
      "outputs": [],
      "stateMutability": "nonpayable",
      "type": "function"
    },
    {
      "inputs": [
        {
          "internalType": "address",
          "name": "account",
          "type": "address"
        },
        {
          "internalType": "uint256",
          "name": "id",
          "type": "uint256"
        },
        {
          "internalType": "uint256",
          "name": "amount",
          "type": "uint256"
        }
      ],
      "name": "unlockByFacet",
      "outputs": [],
      "stateMutability": "nonpayable",
      "type": "function"
    }
  ],
  "transactionHash": "0xcdef7f687494e784e1fe7cf1fd595c9139f5f404f9ee1b64d7d3947800fc9344",
  "args": [],
  "numDeployments": 1,
  "solcInputHash": "e2f42af2f5273c7308f3825761226b47",
  "bytecode": "0x608060405234801561001057600080fd5b50612e85806100206000396000f3fe608060405234801561001057600080fd5b50600436106101765760003560e01c8063869f7594116100d8578063bd85b0391161008c578063f242432a11610066578063f242432a1461034b578063f5298aca1461035e578063f7794bae1461037157600080fd5b8063bd85b039146102ca578063bf7bab73146102dd578063e985e9c5146102f057600080fd5b8063a22cb465116100bd578063a22cb46514610291578063a91a988a146102a4578063b164884b146102b757600080fd5b8063869f75941461026b578063983da1561461027e57600080fd5b806348f2f5361161012f5780634f558e79116101145780634f558e79146102225780636708a990146102455780636b20c4541461025857600080fd5b806348f2f536146101ef5780634e1273f41461020257600080fd5b80630ad2bbac116101605780630ad2bbac146101b65780632eb2c2d6146101c95780633f3b797e146101dc57600080fd5b8062fdd58e1461017b5780630a13c503146101a1575b600080fd5b61018e61018936600461237f565b610384565b6040519081526020015b60405180910390f35b6101b46101af3660046123f5565b610397565b005b6101b46101c43660046124b9565b6103d1565b6101b46101d7366004612612565b610405565b6101b46101ea366004612783565b6104ee565b6101b46101fd36600461280b565b6105e6565b61021561021036600461283e565b610616565b60405161019891906128dd565b6102356102303660046128f0565b61083d565b6040519015158152602001610198565b6101b461025336600461280b565b610874565b6101b46102663660046124b9565b61089f565b61018e6102793660046128f0565b61099d565b6101b461028c36600461280b565b6109d0565b6101b461029f36600461291a565b6109fb565b6102156102b2366004612951565b610b1b565b6101b46102c53660046129e6565b610c02565b61018e6102d83660046128f0565b610c2f565b61018e6102eb36600461237f565b610c62565b6102356102fe366004612a3d565b6001600160a01b0391821660009081527ff9ecf3cb86ac553c70621e3e662b4036163ca34fffb329385fafa0e130cfc1a86020908152604080832093909416825291909152205460ff1690565b6101b4610359366004612a70565b610caa565b6101b461036c36600461280b565b610d90565b6101b461037f366004612783565b610e8e565b60006103908383610f80565b9392505050565b3033146103b75760405163fd570b5160e01b815260040160405180910390fd5b6103c78888888888888888611045565b5050505050505050565b3033146103f15760405163fd570b5160e01b815260040160405180910390fd5b6103fe8585858585611380565b5050505050565b600061040f611670565b9050806001600160a01b0316866001600160a01b0316148061047557506001600160a01b0380871660009081527ff9ecf3cb86ac553c70621e3e662b4036163ca34fffb329385fafa0e130cfc1a8602090815260408083209385168352929052205460ff165b6104d85760405162461bcd60e51b815260206004820152602960248201527f455243313135353a2063616c6c6572206973206e6f74206f776e6572206e6f7260448201526808185c1c1c9bdd995960ba1b60648201526084015b60405180910390fd5b6104e681878787878761167f565b505050505050565b30331461050e5760405163fd570b5160e01b815260040160405180910390fd5b81518351148015610520575080518351145b61056c5760405162461bcd60e51b815260206004820152601460248201527f494e56414c49445f41525241595f4c454e47544800000000000000000000000060448201526064016104cf565b60005b83518110156105e0576105ce84828151811061058d5761058d612ae8565b60200260200101518483815181106105a7576105a7612ae8565b60200260200101518484815181106105c1576105c1612ae8565b602002602001015161169b565b806105d881612b14565b91505061056f565b50505050565b3033146106065760405163fd570b5160e01b815260040160405180910390fd5b610611838383611758565b505050565b6060815183511461068f5760405162461bcd60e51b815260206004820152602960248201527f455243313135353a206163636f756e747320616e6420696473206c656e67746860448201527f206d69736d61746368000000000000000000000000000000000000000000000060648201526084016104cf565b82517ff9ecf3cb86ac553c70621e3e662b4036163ca34fffb329385fafa0e130cfc1a79060009067ffffffffffffffff8111156106ce576106ce61253a565b6040519080825280602002602001820160405280156106f7578160200160208202803683370190505b50905060005b85518110156108345760006001600160a01b031686828151811061072357610723612ae8565b60200260200101516001600160a01b0316036107a75760405162461bcd60e51b815260206004820152603160248201527f455243313135353a2062617463682062616c616e636520717565727920666f7260448201527f20746865207a65726f206164647265737300000000000000000000000000000060648201526084016104cf565b8260008683815181106107bc576107bc612ae8565b6020026020010151815260200190815260200160002060008783815181106107e6576107e6612ae8565b60200260200101516001600160a01b03166001600160a01b031681526020019081526020016000205482828151811061082157610821612ae8565b60209081029190910101526001016106fd565b50949350505050565b60008181527f7056dcda885936c7a9d7c6385902b4ab5fb09024caea98652b7189a5f7a28ea5602052604081205415155b92915050565b3033146108945760405163fd570b5160e01b815260040160405180910390fd5b61061183838361169b565b6108a7611670565b6001600160a01b0316856001600160a01b0316148061093f57503063e985e9c5866108d0611670565b6040516001600160e01b031960e085901b1681526001600160a01b03928316600482015291166024820152604401602060405180830381865afa15801561091b573d6000803e3d6000fd5b505050506040513d601f19601f8201168201806040525081019061093f9190612b2d565b6103f15760405162461bcd60e51b815260206004820152602960248201527f455243313135353a2063616c6c6572206973206e6f74206f776e6572206e6f7260448201526808185c1c1c9bdd995960ba1b60648201526084016104cf565b60008181527f7056dcda885936c7a9d7c6385902b4ab5fb09024caea98652b7189a5f7a28ea6602052604081205461086e565b3033146109f05760405163fd570b5160e01b815260040160405180910390fd5b6106118383836118f6565b6000610a05611670565b9050826001600160a01b0316816001600160a01b031603610a8e5760405162461bcd60e51b815260206004820152602960248201527f455243313135353a2073657474696e6720617070726f76616c2073746174757360448201527f20666f722073656c66000000000000000000000000000000000000000000000060648201526084016104cf565b6001600160a01b0381811660008181527ff9ecf3cb86ac553c70621e3e662b4036163ca34fffb329385fafa0e130cfc1a86020908152604080832094881680845294825291829020805460ff1916871515908117909155825190815291517f17307eab39ab6107e8899845ad3d59bd9653f200f220920489ca2b5937696c319281900390910190a3505050565b606060008267ffffffffffffffff811115610b3857610b3861253a565b604051908082528060200260200182016040528015610b61578160200160208202803683370190505b50905060005b8381101561083457610bd386868684818110610b8557610b85612ae8565b905060200201356001600160a01b039190911660009081527f349768cb3869818ef8452552d8520ac7355b35c10a0ff9320e2975b28752782060209081526040808320938352929052205490565b828281518110610be557610be5612ae8565b602090810291909101015280610bfa81612b14565b915050610b67565b303314610c225760405163fd570b5160e01b815260040160405180910390fd5b6103fe85858585856119bd565b60008181527f7056dcda885936c7a9d7c6385902b4ab5fb09024caea98652b7189a5f7a28ea5602052604081205461086e565b6001600160a01b03821660009081527f349768cb3869818ef8452552d8520ac7355b35c10a0ff9320e2975b28752782060209081526040808320848452909152812054610390565b6000610cb4611670565b9050806001600160a01b0316876001600160a01b03161480610d1a57506001600160a01b0380881660009081527ff9ecf3cb86ac553c70621e3e662b4036163ca34fffb329385fafa0e130cfc1a8602090815260408083209385168352929052205460ff165b610d785760405162461bcd60e51b815260206004820152602960248201527f455243313135353a2063616c6c6572206973206e6f74206f776e6572206e6f7260448201526808185c1c1c9bdd995960ba1b60648201526084016104cf565b610d8781888888888888611b44565b50505050505050565b610d98611670565b6001600160a01b0316836001600160a01b03161480610e3057503063e985e9c584610dc1611670565b6040516001600160e01b031960e085901b1681526001600160a01b03928316600482015291166024820152604401602060405180830381865afa158015610e0c573d6000803e3d6000fd5b505050506040513d601f19601f82011682018060405250810190610e309190612b2d565b6106065760405162461bcd60e51b815260206004820152602960248201527f455243313135353a2063616c6c6572206973206e6f74206f776e6572206e6f7260448201526808185c1c1c9bdd995960ba1b60648201526084016104cf565b303314610eae5760405163fd570b5160e01b815260040160405180910390fd5b81518351148015610ec0575080518351145b610f0c5760405162461bcd60e51b815260206004820152601460248201527f494e56414c49445f41525241595f4c454e47544800000000000000000000000060448201526064016104cf565b60005b83518110156105e057610f6e848281518110610f2d57610f2d612ae8565b6020026020010151848381518110610f4757610f47612ae8565b6020026020010151848481518110610f6157610f61612ae8565b60200260200101516118f6565b80610f7881612b14565b915050610f0f565b60006001600160a01b038316610ffe5760405162461bcd60e51b815260206004820152602b60248201527f455243313135353a2062616c616e636520717565727920666f7220746865207a60448201527f65726f206164647265737300000000000000000000000000000000000000000060648201526084016104cf565b7ff9ecf3cb86ac553c70621e3e662b4036163ca34fffb329385fafa0e130cfc1a76000928352602090815260408084206001600160a01b0395909516845293905250205490565b8483146110a55760405162461bcd60e51b815260206004820152602860248201527f455243313135353a2069647320616e6420616d6f756e7473206c656e677468206044820152670dad2e6dac2e8c6d60c31b60648201526084016104cf565b86831461111a5760405162461bcd60e51b815260206004820152602d60248201527f455243313135353a206163636f756e747320616e6420616d6f756e7473206c6560448201527f6e677468206d69736d617463680000000000000000000000000000000000000060648201526084016104cf565b6000611124611670565b90507ff9ecf3cb86ac553c70621e3e662b4036163ca34fffb329385fafa0e130cfc1a760005b87811015611373576112138360008d8d8581811061116a5761116a612ae8565b905060200201602081019061117f9190612b4a565b6111a08d8d8781811061119457611194612ae8565b90506020020135611b97565b6111b58c8c8881811061119457611194612ae8565b8a8a888181106111c7576111c7612ae8565b90506020028101906111d99190612b65565b8080601f016020809104026020016040519081016040528093929190818152602001838380828437600092019190915250611be292505050565b86868281811061122557611225612ae8565b905060200201358260008b8b8581811061124157611241612ae8565b90506020020135815260200190815260200160002060008d8d8581811061126a5761126a612ae8565b905060200201602081019061127f9190612b4a565b6001600160a01b03166001600160a01b0316815260200190815260200160002060008282546112ae9190612bac565b909155508b90508a828181106112c6576112c6612ae8565b90506020020160208101906112db9190612b4a565b6001600160a01b031660006001600160a01b0316846001600160a01b03167fc3d58168c5ae7397731d063d5bbf3d657854427343f4c083240f7aacaa2d0f628c8c8681811061132c5761132c612ae8565b905060200201358b8b8781811061134557611345612ae8565b90506020020135604051611363929190918252602082015260400190565b60405180910390a460010161114a565b5050505050505050505050565b6001600160a01b0385166113e25760405162461bcd60e51b815260206004820152602360248201527f455243313135353a206275726e2066726f6d20746865207a65726f206164647260448201526265737360e81b60648201526084016104cf565b8281146114425760405162461bcd60e51b815260206004820152602860248201527f455243313135353a2069647320616e6420616d6f756e7473206c656e677468206044820152670dad2e6dac2e8c6d60c31b60648201526084016104cf565b600061144c611670565b90506114cd8187600088888080602002602001604051908101604052809392919081815260200183836020028082843760009201919091525050604080516020808c0282810182019093528b82529093508b92508a918291850190849080828437600092018290525060408051602081019091529081529250611be2915050565b7ff9ecf3cb86ac553c70621e3e662b4036163ca34fffb329385fafa0e130cfc1a760005b8581101561160a57600087878381811061150d5761150d612ae8565b90506020020135905085858381811061152857611528612ae8565b9050602002013583600083815260200190815260200160002060008b6001600160a01b03166001600160a01b031681526020019081526020016000205410156115bf5760405162461bcd60e51b8152602060048201526024808201527f455243313135353a206275726e20616d6f756e7420657863656564732062616c604482015263616e636560e01b60648201526084016104cf565b8585838181106115d1576115d1612ae8565b6000938452602086815260408086206001600160a01b038f168752825290942080549490910292909201359092039055506001016114f1565b5060006001600160a01b0316876001600160a01b0316836001600160a01b03167f4a39dc06d4c0dbc64b70af90fd698a233a518aa5d07e595d983b8c0526c8f7fb8989898960405161165f9493929190612c13565b60405180910390a450505050505050565b600061167a611be7565b905090565b61168d868686868686611bf1565b6104e6868686868686611e6d565b6001600160a01b03831660009081527f349768cb3869818ef8452552d8520ac7355b35c10a0ff9320e2975b28752782060209081526040808320858452918290529091205482111561172f5760405162461bcd60e51b815260206004820152601160248201527f4e4f545f454e4f5547485f4c4f434b454400000000000000000000000000000060448201526064016104cf565b6000838152602082905260408120805484929061174d908490612c45565b909155505050505050565b6001600160a01b0383166117ba5760405162461bcd60e51b815260206004820152602360248201527f455243313135353a206275726e2066726f6d20746865207a65726f206164647260448201526265737360e81b60648201526084016104cf565b60006117c4611670565b90506117f4818560006117d687611b97565b6117df87611b97565b60405180602001604052806000815250611be2565b60008381527ff9ecf3cb86ac553c70621e3e662b4036163ca34fffb329385fafa0e130cfc1a7602090815260408083206001600160a01b038816845291829052909120548311156118935760405162461bcd60e51b8152602060048201526024808201527f455243313135353a206275726e20616d6f756e7420657863656564732062616c604482015263616e636560e01b60648201526084016104cf565b6001600160a01b0385811660008181526020848152604080832080548990039055805189815291820188905291938616917fc3d58168c5ae7397731d063d5bbf3d657854427343f4c083240f7aacaa2d0f62910160405180910390a45050505050565b6001600160a01b03831660009081527f349768cb3869818ef8452552d8520ac7355b35c10a0ff9320e2975b28752782060209081526040808320858452918290529091205482906119478686610f80565b6119519190612c45565b101561199f5760405162461bcd60e51b815260206004820152601260248201527f4e4f545f454e4f5547485f42414c414e4345000000000000000000000000000060448201526064016104cf565b6000838152602082905260408120805484929061174d908490612bac565b60006119c7611670565b90506001600160a01b038616611a455760405162461bcd60e51b815260206004820152602160248201527f455243313135353a206d696e7420746f20746865207a65726f2061646472657360448201527f730000000000000000000000000000000000000000000000000000000000000060648201526084016104cf565b611a9a81600088611a5589611b97565b611a5e89611b97565b88888080601f016020809104026020016040519081016040528093929190818152602001838380828437600092019190915250611be292505050565b60008581527ff9ecf3cb86ac553c70621e3e662b4036163ca34fffb329385fafa0e130cfc1a7602090815260408083206001600160a01b038a16845290915281208054869290611aeb908490612bac565b909155505060408051868152602081018690526001600160a01b0380891692600092918516917fc3d58168c5ae7397731d063d5bbf3d657854427343f4c083240f7aacaa2d0f62910160405180910390a4505050505050565b611b5387878787878787612012565b610d87878787878787878080601f01602080910402602001604051908101604052809392919081815260200183838082843760009201919091525061221e92505050565b60408051600180825281830190925260609160009190602080830190803683370190505090508281600081518110611bd157611bd1612ae8565b602090810291909101015292915050565b6104e6565b600061167a61231a565b6001600160a01b038416611c555760405162461bcd60e51b815260206004820152602560248201527f455243313135353a207472616e7366657220746f20746865207a65726f206164604482015264647265737360d81b60648201526084016104cf565b8151835114611cb75760405162461bcd60e51b815260206004820152602860248201527f455243313135353a2069647320616e6420616d6f756e7473206c656e677468206044820152670dad2e6dac2e8c6d60c31b60648201526084016104cf565b611cc5868686868686611be2565b7ff9ecf3cb86ac553c70621e3e662b4036163ca34fffb329385fafa0e130cfc1a760005b8451811015611e1d576000858281518110611d0657611d06612ae8565b602002602001015190506000858381518110611d2457611d24612ae8565b602090810291909101810151600084815286835260408082206001600160a01b038e168352909352919091205490915081811015611dca5760405162461bcd60e51b815260206004820152602b60248201527f455243313135353a20696e73756666696369656e742062616c616e636573206660448201527f6f72207472616e7366657200000000000000000000000000000000000000000060648201526084016104cf565b6000838152602086815260408083206001600160a01b038e811685529252808320938590039093558a168152908120805460019590950194839290611e10908490612bac565b90915550611ce992505050565b50846001600160a01b0316866001600160a01b0316886001600160a01b03167f4a39dc06d4c0dbc64b70af90fd698a233a518aa5d07e595d983b8c0526c8f7fb878760405161165f929190612c5c565b6001600160a01b0384163b156104e65760405163bc197c8160e01b81526001600160a01b0385169063bc197c8190611eb19089908990889088908890600401612cd7565b6020604051808303816000875af1925050508015611eec575060408051601f3d908101601f19168201909252611ee991810190612d35565b60015b611fa157611ef8612d5f565b806308c379a003611f315750611f0c612d7a565b80611f175750611f33565b8060405162461bcd60e51b81526004016104cf9190612e04565b505b60405162461bcd60e51b815260206004820152603460248201527f455243313135353a207472616e7366657220746f206e6f6e204552433131353560448201527f526563656976657220696d706c656d656e74657200000000000000000000000060648201526084016104cf565b6001600160e01b0319811663bc197c8160e01b14610d875760405162461bcd60e51b815260206004820152602860248201527f455243313135353a204552433131353552656365697665722072656a656374656044820152676420746f6b656e7360c01b60648201526084016104cf565b6001600160a01b0385166120765760405162461bcd60e51b815260206004820152602560248201527f455243313135353a207472616e7366657220746f20746865207a65726f206164604482015264647265737360d81b60648201526084016104cf565b6120ca87878761208588611b97565b61208e88611b97565b87878080601f016020809104026020016040519081016040528093929190818152602001838380828437600092019190915250611be292505050565b60008481527ff9ecf3cb86ac553c70621e3e662b4036163ca34fffb329385fafa0e130cfc1a7602081815260408084206001600160a01b038b16855290915290912054848110156121835760405162461bcd60e51b815260206004820152602b60248201527f455243313135353a20696e73756666696369656e742062616c616e636573206660448201527f6f72207472616e7366657200000000000000000000000000000000000000000060648201526084016104cf565b6000868152602083815260408083206001600160a01b038c811685529252808320938890039093558816815290812080548692906121c2908490612bac565b909155505060408051868152602081018690526001600160a01b03808916928a821692918c16917fc3d58168c5ae7397731d063d5bbf3d657854427343f4c083240f7aacaa2d0f62910160405180910390a45050505050505050565b6001600160a01b0384163b156104e65760405163f23a6e6160e01b81526001600160a01b0385169063f23a6e61906122629089908990889088908890600401612e17565b6020604051808303816000875af192505050801561229d575060408051601f3d908101601f1916820190925261229a91810190612d35565b60015b6122a957611ef8612d5f565b6001600160e01b0319811663f23a6e6160e01b14610d875760405162461bcd60e51b815260206004820152602860248201527f455243313135353a204552433131353552656365697665722072656a656374656044820152676420746f6b656e7360c01b60648201526084016104cf565b7fdb1d5e345c4903e9a32b6674ecc8b1deaddbbb2551474fb34c9d34becbe7f420546000906001600160a01b0316330361235b575060131936013560601c90565b503390565b90565b80356001600160a01b038116811461237a57600080fd5b919050565b6000806040838503121561239257600080fd5b61239b83612363565b946020939093013593505050565b60008083601f8401126123bb57600080fd5b50813567ffffffffffffffff8111156123d357600080fd5b6020830191508360208260051b85010111156123ee57600080fd5b9250929050565b6000806000806000806000806080898b03121561241157600080fd5b883567ffffffffffffffff8082111561242957600080fd5b6124358c838d016123a9565b909a50985060208b013591508082111561244e57600080fd5b61245a8c838d016123a9565b909850965060408b013591508082111561247357600080fd5b61247f8c838d016123a9565b909650945060608b013591508082111561249857600080fd5b506124a58b828c016123a9565b999c989b5096995094979396929594505050565b6000806000806000606086880312156124d157600080fd5b6124da86612363565b9450602086013567ffffffffffffffff808211156124f757600080fd5b61250389838a016123a9565b9096509450604088013591508082111561251c57600080fd5b50612529888289016123a9565b969995985093965092949392505050565b634e487b7160e01b600052604160045260246000fd5b601f8201601f1916810167ffffffffffffffff811182821017156125765761257661253a565b6040525050565b600067ffffffffffffffff8211156125975761259761253a565b5060051b60200190565b600082601f8301126125b257600080fd5b813560206125bf8261257d565b6040516125cc8282612550565b83815260059390931b85018201928281019150868411156125ec57600080fd5b8286015b8481101561260757803583529183019183016125f0565b509695505050505050565b600080600080600060a0868803121561262a57600080fd5b61263386612363565b94506020612642818801612363565b9450604087013567ffffffffffffffff8082111561265f57600080fd5b61266b8a838b016125a1565b9550606089013591508082111561268157600080fd5b61268d8a838b016125a1565b945060808901359150808211156126a357600080fd5b818901915089601f8301126126b757600080fd5b8135818111156126c9576126c961253a565b60405191506126e1601f8201601f1916850183612550565b8082528a848285010111156126f557600080fd5b80848401858401376000848284010152508093505050509295509295909350565b600082601f83011261272757600080fd5b813560206127348261257d565b6040516127418282612550565b83815260059390931b850182019282810191508684111561276157600080fd5b8286015b848110156126075761277681612363565b8352918301918301612765565b60008060006060848603121561279857600080fd5b833567ffffffffffffffff808211156127b057600080fd5b6127bc87838801612716565b945060208601359150808211156127d257600080fd5b6127de878388016125a1565b935060408601359150808211156127f457600080fd5b50612801868287016125a1565b9150509250925092565b60008060006060848603121561282057600080fd5b61282984612363565b95602085013595506040909401359392505050565b6000806040838503121561285157600080fd5b823567ffffffffffffffff8082111561286957600080fd5b61287586838701612716565b9350602085013591508082111561288b57600080fd5b50612898858286016125a1565b9150509250929050565b600081518084526020808501945080840160005b838110156128d2578151875295820195908201906001016128b6565b509495945050505050565b60208152600061039060208301846128a2565b60006020828403121561290257600080fd5b5035919050565b801515811461291757600080fd5b50565b6000806040838503121561292d57600080fd5b61293683612363565b9150602083013561294681612909565b809150509250929050565b60008060006040848603121561296657600080fd5b61296f84612363565b9250602084013567ffffffffffffffff81111561298b57600080fd5b612997868287016123a9565b9497909650939450505050565b60008083601f8401126129b657600080fd5b50813567ffffffffffffffff8111156129ce57600080fd5b6020830191508360208285010111156123ee57600080fd5b6000806000806000608086880312156129fe57600080fd5b612a0786612363565b94506020860135935060408601359250606086013567ffffffffffffffff811115612a3157600080fd5b612529888289016129a4565b60008060408385031215612a5057600080fd5b612a5983612363565b9150612a6760208401612363565b90509250929050565b60008060008060008060a08789031215612a8957600080fd5b612a9287612363565b9550612aa060208801612363565b94506040870135935060608701359250608087013567ffffffffffffffff811115612aca57600080fd5b612ad689828a016129a4565b979a9699509497509295939492505050565b634e487b7160e01b600052603260045260246000fd5b634e487b7160e01b600052601160045260246000fd5b600060018201612b2657612b26612afe565b5060010190565b600060208284031215612b3f57600080fd5b815161039081612909565b600060208284031215612b5c57600080fd5b61039082612363565b6000808335601e19843603018112612b7c57600080fd5b83018035915067ffffffffffffffff821115612b9757600080fd5b6020019150368190038213156123ee57600080fd5b60008219821115612bbf57612bbf612afe565b500190565b81835260007f07ffffffffffffffffffffffffffffffffffffffffffffffffffffffffffffff831115612bf657600080fd5b8260051b8083602087013760009401602001938452509192915050565b604081526000612c27604083018688612bc4565b8281036020840152612c3a818587612bc4565b979650505050505050565b600082821015612c5757612c57612afe565b500390565b604081526000612c6f60408301856128a2565b8281036020840152612c8181856128a2565b95945050505050565b6000815180845260005b81811015612cb057602081850181015186830182015201612c94565b81811115612cc2576000602083870101525b50601f01601f19169290920160200192915050565b60006001600160a01b03808816835280871660208401525060a06040830152612d0360a08301866128a2565b8281036060840152612d1581866128a2565b90508281036080840152612d298185612c8a565b98975050505050505050565b600060208284031215612d4757600080fd5b81516001600160e01b03198116811461039057600080fd5b600060033d11156123605760046000803e5060005160e01c90565b600060443d1015612d885790565b6040516003193d81016004833e81513d67ffffffffffffffff8160248401118184111715612db857505050505090565b8285019150815181811115612dd05750505050505090565b843d8701016020828501011115612dea5750505050505090565b612df960208286010187612550565b509095945050505050565b6020815260006103906020830184612c8a565b60006001600160a01b03808816835280871660208401525084604083015283606083015260a06080830152612c3a60a0830184612c8a56fea2646970667358221220917c88f4ce749f3dac6712fd00f315ded2e03933a11a33941c936b05082211f964736f6c634300080f0033",
  "devdoc": {
    "custom:category": "NFTs",
    "custom:provides-interfaces": "IERC1155 IERC1155BurnableExtension IERC1155LockableExtension IERC1155MintableExtension IERC1155SupplyExtension",
    "custom:type": "eip-2535-facet",
    "kind": "dev",
    "methods": {
      "balanceOf(address,uint256)": {
        "params": {
          "account": "address to query",
          "id": "token to query"
        },
        "returns": {
          "_0": "token balance"
        }
      },
      "balanceOfBatch(address[],uint256[])": {
        "params": {
          "accounts": "addresss to query",
          "ids": "tokens to query"
        },
        "returns": {
          "_0": "token balances"
        }
      },
      "exists(uint256)": {
        "details": "Indicates whether any token exist with a given id, or not."
      },
      "isApprovedForAll(address,address)": {
        "params": {
          "account": "address to query for approval granted",
          "operator": "address to query for approval received"
        },
        "returns": {
          "_0": "whether operator is approved to spend tokens held by account"
        }
      },
      "lockByFacet(address,uint256,uint256)": {
        "details": "Locks `amount` of tokens of `account`, of token type `id`. Requirements: - the caller must be diamond itself (other facets)."
      },
      "maxSupply(uint256)": {
        "details": "Maximum amount of tokens possible to exist for a given id."
      },
      "mintByFacet(address,uint256,uint256,bytes)": {
        "details": "Creates `amount` new tokens for `to`, of token type `id`. See {ERC1155-_mint}. Requirements: - the caller must be diamond itself (other facets)."
      },
      "safeBatchTransferFrom(address,address,uint256[],uint256[],bytes)": {
        "params": {
          "amounts": "list of quantities of tokens to transfer",
          "data": "data payload",
          "from": "sender of tokens",
          "ids": "list of token IDs",
          "to": "receiver of tokens"
        }
      },
      "safeTransferFrom(address,address,uint256,uint256,bytes)": {
        "params": {
          "amount": "quantity of tokens to transfer",
          "data": "data payload",
          "from": "sender of tokens",
          "id": "token ID",
          "to": "receiver of tokens"
        }
      },
      "setApprovalForAll(address,bool)": {
        "params": {
          "operator": "address whose approval status to update",
          "status": "whether operator should be considered approved"
        }
      },
      "totalSupply(uint256)": {
        "details": "Total amount of tokens in with a given id."
      },
      "unlockByFacet(address,uint256,uint256)": {
        "details": "Un-locks `amount` of tokens of `account`, of token type `id`. Requirements: - the caller must be diamond itself (other facets)."
      }
    },
    "title": "ERC1155 - with meta-transactions",
    "version": 1
  },
  "userdoc": {
    "errors": {
      "ErrSenderIsNotSelf()": [
        {
          "notice": "The caller must be the current contract itself."
        }
      ]
    },
    "kind": "user",
    "methods": {
      "balanceOf(address,uint256)": {
        "notice": "query the balance of given token held by given address"
      },
      "balanceOfBatch(address[],uint256[])": {
        "notice": "query the balances of given tokens held by given addresses"
      },
      "isApprovedForAll(address,address)": {
        "notice": "query approval status of given operator with respect to given address"
      },
      "safeBatchTransferFrom(address,address,uint256[],uint256[],bytes)": {
        "notice": "transfer batch of tokens between given addresses, checking for ERC1155Receiver implementation if applicable"
      },
      "safeTransferFrom(address,address,uint256,uint256,bytes)": {
        "notice": "transfer tokens between given addresses, checking for ERC1155Receiver implementation if applicable"
      },
      "setApprovalForAll(address,bool)": {
        "notice": "grant approval to or revoke approval from given operator to spend held tokens"
      }
    },
    "notice": "Standard EIP-1155 with ability to accept meta transactions (mainly transfer or burn methods).",
    "version": 1
  },
  "storageLayout": {
    "storage": [],
    "types": null
  }
}