{
  "address": "0x0459EE30E19776c6283Ce0A97DEC799c914BEB96",
  "abi": [
    {
      "anonymous": false,
      "inputs": [
        {
          "indexed": true,
          "internalType": "bytes32",
          "name": "role",
          "type": "bytes32"
        },
        {
          "indexed": true,
          "internalType": "bytes32",
          "name": "previousAdminRole",
          "type": "bytes32"
        },
        {
          "indexed": true,
          "internalType": "bytes32",
          "name": "newAdminRole",
          "type": "bytes32"
        }
      ],
      "name": "RoleAdminChanged",
      "type": "event"
    },
    {
      "anonymous": false,
      "inputs": [
        {
          "indexed": true,
          "internalType": "bytes32",
          "name": "role",
          "type": "bytes32"
        },
        {
          "indexed": true,
          "internalType": "address",
          "name": "account",
          "type": "address"
        },
        {
          "indexed": true,
          "internalType": "address",
          "name": "sender",
          "type": "address"
        }
      ],
      "name": "RoleGranted",
      "type": "event"
    },
    {
      "anonymous": false,
      "inputs": [
        {
          "indexed": true,
          "internalType": "bytes32",
          "name": "role",
          "type": "bytes32"
        },
        {
          "indexed": true,
          "internalType": "address",
          "name": "account",
          "type": "address"
        },
        {
          "indexed": true,
          "internalType": "address",
          "name": "sender",
          "type": "address"
        }
      ],
      "name": "RoleRevoked",
      "type": "event"
    },
    {
      "inputs": [],
      "name": "DEFAULT_ADMIN_ROLE",
      "outputs": [
        {
          "internalType": "bytes32",
          "name": "",
          "type": "bytes32"
        }
      ],
      "stateMutability": "view",
      "type": "function"
    },
    {
      "inputs": [],
      "name": "LOCKER_ROLE",
      "outputs": [
        {
          "internalType": "bytes32",
          "name": "",
          "type": "bytes32"
        }
      ],
      "stateMutability": "view",
      "type": "function"
    },
    {
      "inputs": [
        {
          "internalType": "address",
          "name": "account",
          "type": "address"
        },
        {
          "internalType": "uint256",
          "name": "id",
          "type": "uint256"
        },
        {
          "internalType": "uint256",
          "name": "amount",
          "type": "uint256"
        }
      ],
      "name": "lockByRole",
      "outputs": [],
      "stateMutability": "nonpayable",
      "type": "function"
    },
    {
      "inputs": [
        {
          "internalType": "address[]",
          "name": "accounts",
          "type": "address[]"
        },
        {
          "internalType": "uint256[]",
          "name": "ids",
          "type": "uint256[]"
        },
        {
          "internalType": "uint256[]",
          "name": "amounts",
          "type": "uint256[]"
        }
      ],
      "name": "lockByRole",
      "outputs": [],
      "stateMutability": "nonpayable",
      "type": "function"
    },
    {
      "inputs": [
        {
          "internalType": "address[]",
          "name": "accounts",
          "type": "address[]"
        },
        {
          "internalType": "uint256[]",
          "name": "ids",
          "type": "uint256[]"
        },
        {
          "internalType": "uint256[]",
          "name": "amounts",
          "type": "uint256[]"
        }
      ],
      "name": "unlockByRole",
      "outputs": [],
      "stateMutability": "nonpayable",
      "type": "function"
    },
    {
      "inputs": [
        {
          "internalType": "address",
          "name": "account",
          "type": "address"
        },
        {
          "internalType": "uint256",
          "name": "id",
          "type": "uint256"
        },
        {
          "internalType": "uint256",
          "name": "amount",
          "type": "uint256"
        }
      ],
      "name": "unlockByRole",
      "outputs": [],
      "stateMutability": "nonpayable",
      "type": "function"
    }
  ],
  "transactionHash": "0xcab57c994858b061b0573b4a228208f1a1288eb60d5b3308982cc3abf5a56b18",
  "args": [],
  "numDeployments": 2,
  "solcInputHash": "6d7305346279fbc69886e86585c3525d",
  "bytecode": "0x608060405234801561001057600080fd5b50610aa1806100206000396000f3fe608060405234801561001057600080fd5b50600436106100725760003560e01c8063a97b437a11610050578063a97b437a146100b9578063a9fc295c146100cc578063f3621367146100df57600080fd5b806349c8d010146100775780639d42b0c01461008c578063a217fddf1461009f575b600080fd5b61008a610085366004610739565b610106565b005b61008a61009a36600461081d565b6101a8565b6100a7600081565b60405190815260200160405180910390f35b61008a6100c7366004610739565b610232565b61008a6100da36600461081d565b61029c565b6100a77faf9a8bb3cbd6b84fbccefa71ff73e26e798553c6914585a84886212a46a9027981565b7faf9a8bb3cbd6b84fbccefa71ff73e26e798553c6914585a84886212a46a9027961013081610326565b6040517f3f3b797e0000000000000000000000000000000000000000000000000000000081523090633f3b797e906101709087908790879060040161088b565b600060405180830381600087803b15801561018a57600080fd5b505af115801561019e573d6000803e3d6000fd5b5050505050505050565b7faf9a8bb3cbd6b84fbccefa71ff73e26e798553c6914585a84886212a46a902796101d281610326565b6040517f983da15600000000000000000000000000000000000000000000000000000000815273ffffffffffffffffffffffffffffffffffffffff851660048201526024810184905260448101839052309063983da15690606401610170565b7faf9a8bb3cbd6b84fbccefa71ff73e26e798553c6914585a84886212a46a9027961025c81610326565b6040517ff7794bae000000000000000000000000000000000000000000000000000000008152309063f7794bae906101709087908790879060040161088b565b7faf9a8bb3cbd6b84fbccefa71ff73e26e798553c6914585a84886212a46a902796102c681610326565b6040517f6708a99000000000000000000000000000000000000000000000000000000000815273ffffffffffffffffffffffffffffffffffffffff8516600482015260248101849052604481018390523090636708a99090606401610170565b6103308133610333565b50565b60008281527f2e59e4c2e927cdddbb64e181e0668d9a0fa70dd88f94d999cd87d5496a20da626020908152604080832073ffffffffffffffffffffffffffffffffffffffff8516845290915290205460ff166103dd57610392816103e1565b61039d83602061040a565b6040516020016103ae92919061093d565b60408051601f198184030181529082905262461bcd60e51b82526103d4916004016109be565b60405180910390fd5b5050565b606061040473ffffffffffffffffffffffffffffffffffffffff8316601461040a565b92915050565b60606000610419836002610a07565b610424906002610a26565b67ffffffffffffffff81111561043c5761043c61063a565b6040519080825280601f01601f191660200182016040528015610466576020820181803683370190505b5090507f30000000000000000000000000000000000000000000000000000000000000008160008151811061049d5761049d610a3e565b60200101907effffffffffffffffffffffffffffffffffffffffffffffffffffffffffffff1916908160001a9053507f78000000000000000000000000000000000000000000000000000000000000008160018151811061050057610500610a3e565b60200101907effffffffffffffffffffffffffffffffffffffffffffffffffffffffffffff1916908160001a905350600061053c846002610a07565b610547906001610a26565b90505b60018111156105e4577f303132333435363738396162636465660000000000000000000000000000000085600f166010811061058857610588610a3e565b1a60f81b82828151811061059e5761059e610a3e565b60200101907effffffffffffffffffffffffffffffffffffffffffffffffffffffffffffff1916908160001a90535060049490941c936105dd81610a54565b905061054a565b5083156106335760405162461bcd60e51b815260206004820181905260248201527f537472696e67733a20686578206c656e67746820696e73756666696369656e7460448201526064016103d4565b9392505050565b634e487b7160e01b600052604160045260246000fd5b604051601f8201601f1916810167ffffffffffffffff811182821017156106795761067961063a565b604052919050565b600067ffffffffffffffff82111561069b5761069b61063a565b5060051b60200190565b803573ffffffffffffffffffffffffffffffffffffffff811681146106c957600080fd5b919050565b600082601f8301126106df57600080fd5b813560206106f46106ef83610681565b610650565b82815260059290921b8401810191818101908684111561071357600080fd5b8286015b8481101561072e5780358352918301918301610717565b509695505050505050565b60008060006060848603121561074e57600080fd5b833567ffffffffffffffff8082111561076657600080fd5b818601915086601f83011261077a57600080fd5b8135602061078a6106ef83610681565b82815260059290921b8401810191818101908a8411156107a957600080fd5b948201945b838610156107ce576107bf866106a5565b825294820194908201906107ae565b975050870135925050808211156107e457600080fd5b6107f0878388016106ce565b9350604086013591508082111561080657600080fd5b50610813868287016106ce565b9150509250925092565b60008060006060848603121561083257600080fd5b61083b846106a5565b95602085013595506040909401359392505050565b600081518084526020808501945080840160005b8381101561088057815187529582019590820190600101610864565b509495945050505050565b606080825284519082018190526000906020906080840190828801845b828110156108da57815173ffffffffffffffffffffffffffffffffffffffff16845292840192908401906001016108a8565b505050838103828501526108ee8187610850565b91505082810360408401526109038185610850565b9695505050505050565b60005b83811015610928578181015183820152602001610910565b83811115610937576000848401525b50505050565b7f416363657373436f6e74726f6c3a206163636f756e742000000000000000000081526000835161097581601785016020880161090d565b7f206973206d697373696e6720726f6c652000000000000000000000000000000060179184019182015283516109b281602884016020880161090d565b01602801949350505050565b60208152600082518060208401526109dd81604085016020870161090d565b601f01601f19169190910160400192915050565b634e487b7160e01b600052601160045260246000fd5b6000816000190483118215151615610a2157610a216109f1565b500290565b60008219821115610a3957610a396109f1565b500190565b634e487b7160e01b600052603260045260246000fd5b600081610a6357610a636109f1565b50600019019056fea2646970667358221220ac8104058cce681e5de92882b6fe9ca042d0aa9fbee971d5becd604fecb9428264736f6c634300080f0033",
  "devdoc": {
    "custom:category": "NFTs",
    "custom:provides-interfaces": "IERC1155LockableRoleBased",
    "custom:required-dependencies": "IERC1155LockableExtension",
    "custom:type": "eip-2535-facet",
    "kind": "dev",
    "methods": {},
    "title": "ERC1155 - Lock as role",
    "version": 1
  },
  "userdoc": {
    "kind": "user",
    "methods": {},
    "notice": "Allow locking tokens by any sender who has the LOCKER_ROLE.",
    "version": 1
  },
  "storageLayout": {
    "storage": [],
    "types": null
  }
}