{
  "address": "0x47C91adF07FA05a6e6fC7d9a31780eAb6e6e60A3",
  "abi": [
    {
      "anonymous": false,
      "inputs": [
        {
          "indexed": true,
          "internalType": "address",
          "name": "previousOwner",
          "type": "address"
        },
        {
          "indexed": true,
          "internalType": "address",
          "name": "newOwner",
          "type": "address"
        }
      ],
      "name": "OwnershipTransferred",
      "type": "event"
    },
    {
      "inputs": [
        {
          "internalType": "address",
          "name": "trustedForwarder",
          "type": "address"
        }
      ],
      "name": "setTrustedForwarder",
      "outputs": [],
      "stateMutability": "nonpayable",
      "type": "function"
    }
  ],
  "transactionHash": "0xd422ab7753421001e7b6124eac976689e0b625d03808e57c1377fd1b6e0374c3",
  "args": [],
  "numDeployments": 1,
  "solcInputHash": "e2f42af2f5273c7308f3825761226b47",
  "bytecode": "0x608060405234801561001057600080fd5b506101c2806100206000396000f3fe608060405234801561001057600080fd5b506004361061002b5760003560e01c8063da74222814610030575b600080fd5b61004361003e36600461014f565b610045565b005b7fc0ea367cb0174dd5521cd2372c76f8c13e6c1f832c71f1d6e0cbc185c9cc8ed45473ffffffffffffffffffffffffffffffffffffffff1633146100e9576040517f08c379a000000000000000000000000000000000000000000000000000000000815260206004820152601d60248201527f4f776e61626c653a2073656e646572206d757374206265206f776e6572000000604482015260640160405180910390fd5b7fdb1d5e345c4903e9a32b6674ecc8b1deaddbbb2551474fb34c9d34becbe7f42080547fffffffffffffffffffffffff00000000000000000000000000000000000000001673ffffffffffffffffffffffffffffffffffffffff92909216919091179055565b60006020828403121561016157600080fd5b813573ffffffffffffffffffffffffffffffffffffffff8116811461018557600080fd5b939250505056fea26469706673582212206d5d108761195b659340ed0b7f26a479ff0678b2ab6739728c85d50e87e3cef664736f6c634300080f0033",
  "devdoc": {
    "custom:category": "Meta Transactions",
    "custom:provides-interfaces": "IERC2771ContextAdmin",
    "custom:type": "eip-2535-facet",
    "kind": "dev",
    "methods": {},
    "title": "ERC2771 Context - Admin - Ownable",
    "version": 1
  },
  "userdoc": {
    "kind": "user",
    "methods": {},
    "notice": "Controls trusted forwarder used to accept meta transactions according to EIP-2771.",
    "version": 1
  },
  "storageLayout": {
    "storage": [],
    "types": null
  }
}