{
  "address": "0x27F848F575D9EDBc10c874825CCE379b19e9D155",
  "abi": [
    {
      "anonymous": false,
      "inputs": [
        {
          "indexed": true,
          "internalType": "bytes32",
          "name": "role",
          "type": "bytes32"
        },
        {
          "indexed": true,
          "internalType": "bytes32",
          "name": "previousAdminRole",
          "type": "bytes32"
        },
        {
          "indexed": true,
          "internalType": "bytes32",
          "name": "newAdminRole",
          "type": "bytes32"
        }
      ],
      "name": "RoleAdminChanged",
      "type": "event"
    },
    {
      "anonymous": false,
      "inputs": [
        {
          "indexed": true,
          "internalType": "bytes32",
          "name": "role",
          "type": "bytes32"
        },
        {
          "indexed": true,
          "internalType": "address",
          "name": "account",
          "type": "address"
        },
        {
          "indexed": true,
          "internalType": "address",
          "name": "sender",
          "type": "address"
        }
      ],
      "name": "RoleGranted",
      "type": "event"
    },
    {
      "anonymous": false,
      "inputs": [
        {
          "indexed": true,
          "internalType": "bytes32",
          "name": "role",
          "type": "bytes32"
        },
        {
          "indexed": true,
          "internalType": "address",
          "name": "account",
          "type": "address"
        },
        {
          "indexed": true,
          "internalType": "address",
          "name": "sender",
          "type": "address"
        }
      ],
      "name": "RoleRevoked",
      "type": "event"
    },
    {
      "inputs": [],
      "name": "DEFAULT_ADMIN_ROLE",
      "outputs": [
        {
          "internalType": "bytes32",
          "name": "",
          "type": "bytes32"
        }
      ],
      "stateMutability": "view",
      "type": "function"
    },
    {
      "inputs": [],
      "name": "DEPOSITOR_ROLE",
      "outputs": [
        {
          "internalType": "bytes32",
          "name": "",
          "type": "bytes32"
        }
      ],
      "stateMutability": "view",
      "type": "function"
    },
    {
      "inputs": [
        {
          "internalType": "address",
          "name": "token",
          "type": "address"
        },
        {
          "internalType": "address",
          "name": "wallet",
          "type": "address"
        },
        {
          "internalType": "uint256",
          "name": "amount",
          "type": "uint256"
        }
      ],
      "name": "transferERC20",
      "outputs": [],
      "stateMutability": "payable",
      "type": "function"
    },
    {
      "inputs": [
        {
          "internalType": "address[]",
          "name": "tokens",
          "type": "address[]"
        },
        {
          "internalType": "address[]",
          "name": "wallets",
          "type": "address[]"
        },
        {
          "internalType": "uint256[]",
          "name": "amounts",
          "type": "uint256[]"
        }
      ],
      "name": "transferERC20",
      "outputs": [],
      "stateMutability": "payable",
      "type": "function"
    },
    {
      "inputs": [
        {
          "internalType": "address",
          "name": "wallet",
          "type": "address"
        },
        {
          "internalType": "uint256",
          "name": "amount",
          "type": "uint256"
        }
      ],
      "name": "transferNative",
      "outputs": [],
      "stateMutability": "payable",
      "type": "function"
    },
    {
      "inputs": [
        {
          "internalType": "address[]",
          "name": "wallets",
          "type": "address[]"
        },
        {
          "internalType": "uint256[]",
          "name": "amounts",
          "type": "uint256[]"
        }
      ],
      "name": "transferNative",
      "outputs": [],
      "stateMutability": "payable",
      "type": "function"
    }
  ],
  "transactionHash": "0xa91d187cd90ee574e67c99f3aa79db580504792317ae515163026454ea6ff0ef",
  "args": [],
  "numDeployments": 1,
  "solcInputHash": "46de52cd1e8f4aeed08dbd5fd342e7fd",
  "bytecode": "0x608060405234801561001057600080fd5b50610fbc806100206000396000f3fe6080604052600436106100655760003560e01c8063a3b0b5a311610043578063a3b0b5a3146100b9578063c7cb6615146100ed578063d24663261461010057600080fd5b80637d2e90c21461006a5780639db5dbe41461007f578063a217fddf14610092575b600080fd5b61007d610078366004610c04565b610113565b005b61007d61008d366004610c2e565b610213565b34801561009e57600080fd5b506100a7600081565b60405190815260200160405180910390f35b3480156100c557600080fd5b506100a77f8f4f2da22e8ac8f11e15f9fc141cddbb5deea8800186560abb6e68c5496619a981565b61007d6100fb366004610cb6565b610389565b61007d61010e366004610d50565b610630565b7f8f4f2da22e8ac8f11e15f9fc141cddbb5deea8800186560abb6e68c5496619a961013d816107d9565b60027f3d9e0cf98d8ac76a756d900415e06fbccac0f9e61251a384452695e2330be6e054036101b35760405162461bcd60e51b815260206004820152601f60248201527f5265656e7472616e637947756172643a207265656e7472616e742063616c6c0060448201526064015b60405180910390fd5b60027f3d9e0cf98d8ac76a756d900415e06fbccac0f9e61251a384452695e2330be6e0556101ea6001600160a01b038416836107e6565b60017f3d9e0cf98d8ac76a756d900415e06fbccac0f9e61251a384452695e2330be6e055505050565b7f8f4f2da22e8ac8f11e15f9fc141cddbb5deea8800186560abb6e68c5496619a961023d816107d9565b60027f3d9e0cf98d8ac76a756d900415e06fbccac0f9e61251a384452695e2330be6e054036102ae5760405162461bcd60e51b815260206004820152601f60248201527f5265656e7472616e637947756172643a207265656e7472616e742063616c6c0060448201526064016101aa565b60027f3d9e0cf98d8ac76a756d900415e06fbccac0f9e61251a384452695e2330be6e0556040517fa9059cbb0000000000000000000000000000000000000000000000000000000081526001600160a01b0384811660048301526024820184905285169063a9059cbb906044016020604051808303816000875af115801561033a573d6000803e3d6000fd5b505050506040513d601f19601f8201168201806040525081019061035e9190610dbc565b5060017f3d9e0cf98d8ac76a756d900415e06fbccac0f9e61251a384452695e2330be6e05550505050565b7f8f4f2da22e8ac8f11e15f9fc141cddbb5deea8800186560abb6e68c5496619a96103b3816107d9565b60027f3d9e0cf98d8ac76a756d900415e06fbccac0f9e61251a384452695e2330be6e054036104245760405162461bcd60e51b815260206004820152601f60248201527f5265656e7472616e637947756172643a207265656e7472616e742063616c6c0060448201526064016101aa565b60027f3d9e0cf98d8ac76a756d900415e06fbccac0f9e61251a384452695e2330be6e0558382146104975760405162461bcd60e51b815260206004820152601a60248201527f4465706f7369746f72793a20696e76616c6964206c656e67746800000000000060448201526064016101aa565b8386146104e65760405162461bcd60e51b815260206004820152601a60248201527f4465706f7369746f72793a20696e76616c6964206c656e67746800000000000060448201526064016101aa565b60005b848110156106025787878281811061050357610503610dde565b90506020020160208101906105189190610df4565b6001600160a01b031663a9059cbb87878481811061053857610538610dde565b905060200201602081019061054d9190610df4565b86868581811061055f5761055f610dde565b6040517fffffffff0000000000000000000000000000000000000000000000000000000060e087901b1681526001600160a01b03909416600485015260200291909101356024830152506044016020604051808303816000875af11580156105cb573d6000803e3d6000fd5b505050506040513d601f19601f820116820180604052508101906105ef9190610dbc565b50806105fa81610e25565b9150506104e9565b5060017f3d9e0cf98d8ac76a756d900415e06fbccac0f9e61251a384452695e2330be6e05550505050505050565b7f8f4f2da22e8ac8f11e15f9fc141cddbb5deea8800186560abb6e68c5496619a961065a816107d9565b60027f3d9e0cf98d8ac76a756d900415e06fbccac0f9e61251a384452695e2330be6e054036106cb5760405162461bcd60e51b815260206004820152601f60248201527f5265656e7472616e637947756172643a207265656e7472616e742063616c6c0060448201526064016101aa565b60027f3d9e0cf98d8ac76a756d900415e06fbccac0f9e61251a384452695e2330be6e05583821461073e5760405162461bcd60e51b815260206004820152601a60248201527f4465706f7369746f72793a20696e76616c6964206c656e67746800000000000060448201526064016101aa565b60005b848110156107ad5761079b84848381811061075e5761075e610dde565b9050602002013587878481811061077757610777610dde565b905060200201602081019061078c9190610df4565b6001600160a01b0316906107e6565b806107a581610e25565b915050610741565b5060017f3d9e0cf98d8ac76a756d900415e06fbccac0f9e61251a384452695e2330be6e0555050505050565b6107e38133610904565b50565b804710156108365760405162461bcd60e51b815260206004820152601d60248201527f416464726573733a20696e73756666696369656e742062616c616e636500000060448201526064016101aa565b6000826001600160a01b03168260405160006040518083038185875af1925050503d8060008114610883576040519150601f19603f3d011682016040523d82523d6000602084013e610888565b606091505b50509050806108ff5760405162461bcd60e51b815260206004820152603a60248201527f416464726573733a20756e61626c6520746f2073656e642076616c75652c207260448201527f6563697069656e74206d6179206861766520726576657274656400000000000060648201526084016101aa565b505050565b60008281527f2e59e4c2e927cdddbb64e181e0668d9a0fa70dd88f94d999cd87d5496a20da62602090815260408083206001600160a01b038516845290915290205460ff16610998576109568161099c565b6109618360206109b8565b604051602001610972929190610e6e565b60408051601f198184030181529082905262461bcd60e51b82526101aa91600401610eef565b5050565b60606109b26001600160a01b03831660146109b8565b92915050565b606060006109c7836002610f22565b6109d2906002610f41565b67ffffffffffffffff8111156109ea576109ea610f59565b6040519080825280601f01601f191660200182016040528015610a14576020820181803683370190505b5090507f300000000000000000000000000000000000000000000000000000000000000081600081518110610a4b57610a4b610dde565b60200101907effffffffffffffffffffffffffffffffffffffffffffffffffffffffffffff1916908160001a9053507f780000000000000000000000000000000000000000000000000000000000000081600181518110610aae57610aae610dde565b60200101907effffffffffffffffffffffffffffffffffffffffffffffffffffffffffffff1916908160001a9053506000610aea846002610f22565b610af5906001610f41565b90505b6001811115610b92577f303132333435363738396162636465660000000000000000000000000000000085600f1660108110610b3657610b36610dde565b1a60f81b828281518110610b4c57610b4c610dde565b60200101907effffffffffffffffffffffffffffffffffffffffffffffffffffffffffffff1916908160001a90535060049490941c93610b8b81610f6f565b9050610af8565b508315610be15760405162461bcd60e51b815260206004820181905260248201527f537472696e67733a20686578206c656e67746820696e73756666696369656e7460448201526064016101aa565b9392505050565b80356001600160a01b0381168114610bff57600080fd5b919050565b60008060408385031215610c1757600080fd5b610c2083610be8565b946020939093013593505050565b600080600060608486031215610c4357600080fd5b610c4c84610be8565b9250610c5a60208501610be8565b9150604084013590509250925092565b60008083601f840112610c7c57600080fd5b50813567ffffffffffffffff811115610c9457600080fd5b6020830191508360208260051b8501011115610caf57600080fd5b9250929050565b60008060008060008060608789031215610ccf57600080fd5b863567ffffffffffffffff80821115610ce757600080fd5b610cf38a838b01610c6a565b90985096506020890135915080821115610d0c57600080fd5b610d188a838b01610c6a565b90965094506040890135915080821115610d3157600080fd5b50610d3e89828a01610c6a565b979a9699509497509295939492505050565b60008060008060408587031215610d6657600080fd5b843567ffffffffffffffff80821115610d7e57600080fd5b610d8a88838901610c6a565b90965094506020870135915080821115610da357600080fd5b50610db087828801610c6a565b95989497509550505050565b600060208284031215610dce57600080fd5b81518015158114610be157600080fd5b634e487b7160e01b600052603260045260246000fd5b600060208284031215610e0657600080fd5b610be182610be8565b634e487b7160e01b600052601160045260246000fd5b600060018201610e3757610e37610e0f565b5060010190565b60005b83811015610e59578181015183820152602001610e41565b83811115610e68576000848401525b50505050565b7f416363657373436f6e74726f6c3a206163636f756e7420000000000000000000815260008351610ea6816017850160208801610e3e565b7f206973206d697373696e6720726f6c65200000000000000000000000000000006017918401918201528351610ee3816028840160208801610e3e565b01602801949350505050565b6020815260008251806020840152610f0e816040850160208701610e3e565b601f01601f19169190910160400192915050565b6000816000190483118215151615610f3c57610f3c610e0f565b500290565b60008219821115610f5457610f54610e0f565b500190565b634e487b7160e01b600052604160045260246000fd5b600081610f7e57610f7e610e0f565b50600019019056fea2646970667358221220fa558e31bb6e65a31a4eb1338d4fb22ff9a7cff667c21b84d1075da9d25d1ae864736f6c634300080f0033",
  "devdoc": {
    "custom:category": "Finance",
    "custom:provides-interfaces": "IDepository",
    "custom:type": "eip-2535-facet",
    "kind": "dev",
    "methods": {},
    "title": "Depository",
    "version": 1
  },
  "userdoc": {
    "kind": "user",
    "methods": {},
    "notice": "A simple depository contract to hold native or ERC20 tokens and allow certain roles to transfer or disperse.",
    "version": 1
  },
  "storageLayout": {
    "storage": [],
    "types": null
  }
}