{
  "address": "0x6a239F882f3aB169829DC2149d04C2Adb5C63368",
  "abi": [
    {
      "inputs": [],
      "name": "ErrMaxSupplyExceeded",
      "type": "error"
    },
    {
      "inputs": [],
      "name": "ErrSenderIsNotSelf",
      "type": "error"
    },
    {
      "anonymous": false,
      "inputs": [
        {
          "indexed": true,
          "internalType": "address",
          "name": "owner",
          "type": "address"
        },
        {
          "indexed": true,
          "internalType": "address",
          "name": "spender",
          "type": "address"
        },
        {
          "indexed": false,
          "internalType": "uint256",
          "name": "value",
          "type": "uint256"
        }
      ],
      "name": "Approval",
      "type": "event"
    },
    {
      "anonymous": false,
      "inputs": [
        {
          "indexed": true,
          "internalType": "address",
          "name": "from",
          "type": "address"
        },
        {
          "indexed": true,
          "internalType": "address",
          "name": "to",
          "type": "address"
        },
        {
          "indexed": false,
          "internalType": "uint256",
          "name": "value",
          "type": "uint256"
        }
      ],
      "name": "Transfer",
      "type": "event"
    },
    {
      "inputs": [
        {
          "internalType": "address",
          "name": "holder",
          "type": "address"
        },
        {
          "internalType": "address",
          "name": "spender",
          "type": "address"
        }
      ],
      "name": "allowance",
      "outputs": [
        {
          "internalType": "uint256",
          "name": "",
          "type": "uint256"
        }
      ],
      "stateMutability": "view",
      "type": "function"
    },
    {
      "inputs": [
        {
          "internalType": "address",
          "name": "spender",
          "type": "address"
        },
        {
          "internalType": "uint256",
          "name": "amount",
          "type": "uint256"
        }
      ],
      "name": "approve",
      "outputs": [
        {
          "internalType": "bool",
          "name": "",
          "type": "bool"
        }
      ],
      "stateMutability": "nonpayable",
      "type": "function"
    },
    {
      "inputs": [
        {
          "internalType": "address",
          "name": "account",
          "type": "address"
        }
      ],
      "name": "balanceOf",
      "outputs": [
        {
          "internalType": "uint256",
          "name": "",
          "type": "uint256"
        }
      ],
      "stateMutability": "view",
      "type": "function"
    },
    {
      "inputs": [],
      "name": "maxSupply",
      "outputs": [
        {
          "internalType": "uint256",
          "name": "",
          "type": "uint256"
        }
      ],
      "stateMutability": "view",
      "type": "function"
    },
    {
      "inputs": [
        {
          "internalType": "address",
          "name": "to",
          "type": "address"
        },
        {
          "internalType": "uint256",
          "name": "amount",
          "type": "uint256"
        }
      ],
      "name": "mintByFacet",
      "outputs": [],
      "stateMutability": "nonpayable",
      "type": "function"
    },
    {
      "inputs": [
        {
          "internalType": "address[]",
          "name": "tos",
          "type": "address[]"
        },
        {
          "internalType": "uint256[]",
          "name": "amounts",
          "type": "uint256[]"
        }
      ],
      "name": "mintByFacet",
      "outputs": [],
      "stateMutability": "nonpayable",
      "type": "function"
    },
    {
      "inputs": [],
      "name": "totalSupply",
      "outputs": [
        {
          "internalType": "uint256",
          "name": "",
          "type": "uint256"
        }
      ],
      "stateMutability": "view",
      "type": "function"
    },
    {
      "inputs": [
        {
          "internalType": "address",
          "name": "recipient",
          "type": "address"
        },
        {
          "internalType": "uint256",
          "name": "amount",
          "type": "uint256"
        }
      ],
      "name": "transfer",
      "outputs": [
        {
          "internalType": "bool",
          "name": "",
          "type": "bool"
        }
      ],
      "stateMutability": "nonpayable",
      "type": "function"
    },
    {
      "inputs": [
        {
          "internalType": "address",
          "name": "holder",
          "type": "address"
        },
        {
          "internalType": "address",
          "name": "recipient",
          "type": "address"
        },
        {
          "internalType": "uint256",
          "name": "amount",
          "type": "uint256"
        }
      ],
      "name": "transferFrom",
      "outputs": [
        {
          "internalType": "bool",
          "name": "",
          "type": "bool"
        }
      ],
      "stateMutability": "nonpayable",
      "type": "function"
    }
  ],
  "transactionHash": "0x2c968a257855e79475ebdd0cc6e32f027966650a951734f02f8b4dcb3682cd05",
  "args": [],
  "numDeployments": 1,
  "solcInputHash": "46de52cd1e8f4aeed08dbd5fd342e7fd",
  "bytecode": "0x608060405234801561001057600080fd5b50610bdf806100206000396000f3fe608060405234801561001057600080fd5b50600436106100a35760003560e01c806349142a1411610076578063a9059cbb1161005b578063a9059cbb14610169578063d5abeb011461017c578063dd62ed3e1461018457600080fd5b806349142a141461010e57806370a082311461012157600080fd5b8063095ea7b3146100a857806318160ddd146100d057806323b872dd146100e65780632d4f475f146100f9575b600080fd5b6100bb6100b63660046109e0565b610197565b60405190151581526020015b60405180910390f35b6100d86101ab565b6040519081526020016100c7565b6100bb6100f4366004610a0a565b6101da565b61010c6101073660046109e0565b6101ef565b005b61010c61011c366004610a92565b61021d565b6100d861012f366004610afe565b6001600160a01b031660009081527fe2463c7b61902c74336138227f8649cf55ec352748fb1d5f5a2a227dbcc19e05602052604090205490565b6100bb6101773660046109e0565b6102a9565b6100d86102b6565b6100d8610192366004610b19565b6102e0565b60006101a433848461032c565b9392505050565b60006101d57fe2463c7b61902c74336138227f8649cf55ec352748fb1d5f5a2a227dbcc19e075490565b905090565b60006101e78484846104b0565b949350505050565b30331461020f5760405163fd570b5160e01b815260040160405180910390fd5b610219828261058e565b5050565b30331461023d5760405163fd570b5160e01b815260040160405180910390fd5b60005b838110156102a25761029085858381811061025d5761025d610b4c565b90506020020160208101906102729190610afe565b84848481811061028457610284610b4c565b9050602002013561058e565b8061029a81610b78565b915050610240565b5050505050565b60006101a43384846106bd565b60006101d57f992082eab08422324340bd25ada2736d6cd62f0b0f29a637f182303af822d56e5490565b6001600160a01b0380831660009081527fe2463c7b61902c74336138227f8649cf55ec352748fb1d5f5a2a227dbcc19e06602090815260408083209385168352929052908120546101a4565b60006001600160a01b0384166103ae5760405162461bcd60e51b8152602060048201526024808201527f45524332303a20617070726f76652066726f6d20746865207a65726f2061646460448201527f726573730000000000000000000000000000000000000000000000000000000060648201526084015b60405180910390fd5b6001600160a01b03831661042a5760405162461bcd60e51b815260206004820152602260248201527f45524332303a20617070726f766520746f20746865207a65726f20616464726560448201527f737300000000000000000000000000000000000000000000000000000000000060648201526084016103a5565b6001600160a01b0384811660008181527fe2463c7b61902c74336138227f8649cf55ec352748fb1d5f5a2a227dbcc19e066020908152604080832094881680845294825291829020869055815186815291517f8c5be1e5ebec7d5bd14f71427d1e84f3dd0314c0f7b2291e5b200ac8c7c3b9259281900390910190a35060019392505050565b6001600160a01b03831660009081527fe2463c7b61902c74336138227f8649cf55ec352748fb1d5f5a2a227dbcc19e0660209081526040808320338452909152812054828110156105695760405162461bcd60e51b815260206004820152602860248201527f45524332303a207472616e7366657220616d6f756e742065786365656473206160448201527f6c6c6f77616e636500000000000000000000000000000000000000000000000060648201526084016103a5565b610576853385840361032c565b506105828585856106bd565b50600195945050505050565b6001600160a01b0382166105e45760405162461bcd60e51b815260206004820152601f60248201527f45524332303a206d696e7420746f20746865207a65726f20616464726573730060448201526064016103a5565b6105f06000838361090a565b7fe2463c7b61902c74336138227f8649cf55ec352748fb1d5f5a2a227dbcc19e0780547fe2463c7b61902c74336138227f8649cf55ec352748fb1d5f5a2a227dbcc19e05918391600090610645908490610b91565b90915550506001600160a01b03831660009081526020829052604081208054849290610672908490610b91565b90915550506040518281526001600160a01b038416906000907fddf252ad1be2c89b69c2b068fc378daa952ba7f163c4a11628f55a4df523b3ef9060200160405180910390a3505050565b60006001600160a01b03841661073b5760405162461bcd60e51b815260206004820152602560248201527f45524332303a207472616e736665722066726f6d20746865207a65726f20616460448201527f647265737300000000000000000000000000000000000000000000000000000060648201526084016103a5565b6001600160a01b0383166107b75760405162461bcd60e51b815260206004820152602360248201527f45524332303a207472616e7366657220746f20746865207a65726f206164647260448201527f657373000000000000000000000000000000000000000000000000000000000060648201526084016103a5565b6107c284848461090a565b6001600160a01b03841660009081527fe2463c7b61902c74336138227f8649cf55ec352748fb1d5f5a2a227dbcc19e056020819052604090912054838110156108735760405162461bcd60e51b815260206004820152602660248201527f45524332303a207472616e7366657220616d6f756e742065786365656473206260448201527f616c616e6365000000000000000000000000000000000000000000000000000060648201526084016103a5565b6001600160a01b038087166000908152602084905260408082208785039055918716815290812080548692906108aa908490610b91565b92505081905550846001600160a01b0316866001600160a01b03167fddf252ad1be2c89b69c2b068fc378daa952ba7f163c4a11628f55a4df523b3ef866040516108f691815260200190565b60405180910390a350600195945050505050565b61091583838361091a565b505050565b6001600160a01b038316610915576001600160a01b03821615610915577f992082eab08422324340bd25ada2736d6cd62f0b0f29a637f182303af822d56e54816109827fe2463c7b61902c74336138227f8649cf55ec352748fb1d5f5a2a227dbcc19e075490565b61098c9190610b91565b1115610915576040517fb746b1c900000000000000000000000000000000000000000000000000000000815260040160405180910390fd5b80356001600160a01b03811681146109db57600080fd5b919050565b600080604083850312156109f357600080fd5b6109fc836109c4565b946020939093013593505050565b600080600060608486031215610a1f57600080fd5b610a28846109c4565b9250610a36602085016109c4565b9150604084013590509250925092565b60008083601f840112610a5857600080fd5b50813567ffffffffffffffff811115610a7057600080fd5b6020830191508360208260051b8501011115610a8b57600080fd5b9250929050565b60008060008060408587031215610aa857600080fd5b843567ffffffffffffffff80821115610ac057600080fd5b610acc88838901610a46565b90965094506020870135915080821115610ae557600080fd5b50610af287828801610a46565b95989497509550505050565b600060208284031215610b1057600080fd5b6101a4826109c4565b60008060408385031215610b2c57600080fd5b610b35836109c4565b9150610b43602084016109c4565b90509250929050565b634e487b7160e01b600052603260045260246000fd5b634e487b7160e01b600052601160045260246000fd5b600060018201610b8a57610b8a610b62565b5060010190565b60008219821115610ba457610ba4610b62565b50019056fea26469706673582212205b8928ae7ba0a4dcc4945dfd237d00959bd191efc6b39f3ad51086e1f00c46b664736f6c634300080f0033",
  "devdoc": {
    "custom:category": "Tokens",
    "custom:provides-interfaces": "IERC20 IERC20Base IERC20SupplyExtension IERC20MintableExtension",
    "custom:type": "eip-2535-facet",
    "kind": "dev",
    "methods": {
      "allowance(address,address)": {
        "params": {
          "holder": "approver of allowance",
          "spender": "recipient of allowance"
        },
        "returns": {
          "_0": "token allowance"
        }
      },
      "approve(address,uint256)": {
        "details": "prefer ERC20Extended functions to avoid transaction-ordering vulnerability (see https://github.com/ethereum/EIPs/issues/20#issuecomment-263524729)",
        "params": {
          "amount": "quantity of tokens approved for spending",
          "spender": "recipient of allowance"
        },
        "returns": {
          "_0": "success status (always true; otherwise function should revert)"
        }
      },
      "balanceOf(address)": {
        "params": {
          "account": "address to query"
        },
        "returns": {
          "_0": "token balance"
        }
      },
      "maxSupply()": {
        "details": "Maximum amount of tokens possible to exist."
      },
      "mintByFacet(address,uint256)": {
        "details": "Creates `amount` new tokens for `to`, of token type `id`. See {ERC20-_mint}. Requirements: - the caller must be diamond itself (other facets)."
      },
      "totalSupply()": {
        "returns": {
          "_0": "token supply"
        }
      },
      "transfer(address,uint256)": {
        "params": {
          "amount": "quantity of tokens to transfer",
          "recipient": "beneficiary of token transfer"
        },
        "returns": {
          "_0": "success status (always true; otherwise function should revert)"
        }
      },
      "transferFrom(address,address,uint256)": {
        "params": {
          "amount": "quantity of tokens to transfer",
          "holder": "holder of tokens prior to transfer",
          "recipient": "beneficiary of token transfer"
        },
        "returns": {
          "_0": "success status (always true; otherwise function should revert)"
        }
      }
    },
    "title": "ERC20 - Standard",
    "version": 1
  },
  "userdoc": {
    "errors": {
      "ErrSenderIsNotSelf()": [
        {
          "notice": "The caller must be the current contract itself."
        }
      ]
    },
    "kind": "user",
    "methods": {
      "allowance(address,address)": {
        "notice": "query the allowance granted from given holder to given spender"
      },
      "approve(address,uint256)": {
        "notice": "grant approval to spender to spend tokens"
      },
      "balanceOf(address)": {
        "notice": "query the token balance of given account"
      },
      "totalSupply()": {
        "notice": "query the total minted token supply"
      },
      "transfer(address,uint256)": {
        "notice": "transfer tokens to given recipient"
      },
      "transferFrom(address,address,uint256)": {
        "notice": "transfer tokens to given recipient on behalf of given holder"
      }
    },
    "notice": "Standard EIP-20 token with mintable and max supply capability.",
    "version": 1
  },
  "storageLayout": {
    "storage": [],
    "types": null
  }
}