{
  "address": "0x883A5b91f21e3529d3A9B31D955b37Cd7382D3e2",
  "abi": [
    {
      "inputs": [
        {
          "internalType": "bytes4",
          "name": "_functionSelector",
          "type": "bytes4"
        }
      ],
      "name": "facetAddress",
      "outputs": [
        {
          "internalType": "address",
          "name": "facetAddress_",
          "type": "address"
        }
      ],
      "stateMutability": "view",
      "type": "function"
    },
    {
      "inputs": [],
      "name": "facetAddresses",
      "outputs": [
        {
          "internalType": "address[]",
          "name": "facetAddresses_",
          "type": "address[]"
        }
      ],
      "stateMutability": "view",
      "type": "function"
    },
    {
      "inputs": [
        {
          "internalType": "address",
          "name": "_facet",
          "type": "address"
        }
      ],
      "name": "facetFunctionSelectors",
      "outputs": [
        {
          "internalType": "bytes4[]",
          "name": "facetFunctionSelectors_",
          "type": "bytes4[]"
        }
      ],
      "stateMutability": "view",
      "type": "function"
    },
    {
      "inputs": [],
      "name": "facets",
      "outputs": [
        {
          "components": [
            {
              "internalType": "address",
              "name": "facetAddress",
              "type": "address"
            },
            {
              "internalType": "bytes4[]",
              "name": "functionSelectors",
              "type": "bytes4[]"
            }
          ],
          "internalType": "struct IDiamondLoupe.Facet[]",
          "name": "facets_",
          "type": "tuple[]"
        }
      ],
      "stateMutability": "view",
      "type": "function"
    }
  ],
  "transactionHash": "0x9724941500b938d5b5562f0b68a13d56745432a1808b0e03f0d893662a38a829",
  "args": [],
  "numDeployments": 4,
  "solcInputHash": "ffc6e07a79fa964cefe1c357bb110a4e",
  "bytecode": "0x608060405234801561001057600080fd5b506105ed806100206000396000f3fe608060405234801561001057600080fd5b506004361061004c5760003560e01c806352ef6b2c146100515780637a0ed6271461006f578063adfca15e14610084578063cdffacc6146100a4575b600080fd5b6100596100cf565b60405161006691906103e8565b60405180910390f35b61007761013b565b604051610066919061047a565b6100976100923660046104f7565b6102e5565b6040516100669190610527565b6100b76100b236600461053a565b61038f565b6040516001600160a01b039091168152602001610066565b606060006100db6103c4565b6002810180546040805160208084028201810190925282815293945083018282801561013057602002820191906000526020600020905b81546001600160a01b03168152600190910190602001808311610112575b505050505091505090565b606060006101476103c4565b60028101549091508067ffffffffffffffff81111561016857610168610564565b6040519080825280602002602001820160405280156101ae57816020015b6040805180820190915260008152606060208201528152602001906001900390816101865790505b50925060005b818110156102df5760008360020182815481106101d3576101d361057a565b9060005260206000200160009054906101000a90046001600160a01b03169050808583815181106102065761020661057a565b6020908102919091018101516001600160a01b0392831690529082166000908152600186018252604090819020805482518185028101850190935280835291929091908301828280156102a557602002820191906000526020600020906000905b82829054906101000a900460e01b6001600160e01b031916815260200190600401906020826003010492830192600103820291508084116102675790505b50505050508583815181106102bc576102bc61057a565b6020026020010151602001819052505080806102d790610590565b9150506101b4565b50505090565b606060006102f16103c4565b6001600160a01b0384166000908152600182016020908152604091829020805483518184028101840190945280845293945091929083018282801561038257602002820191906000526020600020906000905b82829054906101000a900460e01b6001600160e01b031916815260200190600401906020826003010492830192600103820291508084116103445790505b5050505050915050919050565b60008061039a6103c4565b6001600160e01b03199093166000908152602093909352505060409020546001600160a01b031690565b7fc8fcad8db84d3cc18b4c41d551ea0ee66dd599cde068d998e57d5e09332c131c90565b6020808252825182820181905260009190848201906040850190845b818110156104295783516001600160a01b031683529284019291840191600101610404565b50909695505050505050565b600081518084526020808501945080840160005b8381101561046f5781516001600160e01b03191687529582019590820190600101610449565b509495945050505050565b60006020808301818452808551808352604092508286019150828160051b87010184880160005b838110156104e957888303603f19018552815180516001600160a01b031684528701518784018790526104d687850182610435565b95880195935050908601906001016104a1565b509098975050505050505050565b60006020828403121561050957600080fd5b81356001600160a01b038116811461052057600080fd5b9392505050565b6020815260006105206020830184610435565b60006020828403121561054c57600080fd5b81356001600160e01b03198116811461052057600080fd5b634e487b7160e01b600052604160045260246000fd5b634e487b7160e01b600052603260045260246000fd5b6000600182016105b057634e487b7160e01b600052601160045260246000fd5b506001019056fea264697066735822122026039a414683f1a5b2f730e6ed0f54aec2ca24971378eed5acd4ab2d30462eaa64736f6c634300080f0033",
  "devdoc": {
    "kind": "dev",
    "methods": {
      "facetAddress(bytes4)": {
        "details": "If facet is not found return address(0).",
        "params": {
          "_functionSelector": "The function selector."
        },
        "returns": {
          "facetAddress_": "The facet address."
        }
      },
      "facetAddresses()": {
        "returns": {
          "facetAddresses_": "facetAddresses_"
        }
      },
      "facetFunctionSelectors(address)": {
        "params": {
          "_facet": "The facet address."
        },
        "returns": {
          "facetFunctionSelectors_": "facetFunctionSelectors_"
        }
      },
      "facets()": {
        "returns": {
          "facets_": "Facet"
        }
      }
    },
    "version": 1
  },
  "userdoc": {
    "kind": "user",
    "methods": {
      "facetAddress(bytes4)": {
        "notice": "Gets the facet that supports the given selector."
      },
      "facetAddresses()": {
        "notice": "Get all the facet addresses used by a diamond."
      },
      "facetFunctionSelectors(address)": {
        "notice": "Gets all the function selectors provided by a facet."
      },
      "facets()": {
        "notice": "Gets all facets and their selectors."
      }
    },
    "version": 1
  },
  "storageLayout": {
    "storage": [],
    "types": null
  }
}