{
  "address": "0x436af4ac59a63B3f4b4CcC729f997335f0b81D6A",
  "abi": [
    {
      "inputs": [],
      "name": "SenderIsNotSelf",
      "type": "error"
    },
    {
      "anonymous": false,
      "inputs": [
        {
          "indexed": true,
          "internalType": "address",
          "name": "account",
          "type": "address"
        },
        {
          "indexed": true,
          "internalType": "address",
          "name": "operator",
          "type": "address"
        },
        {
          "indexed": false,
          "internalType": "bool",
          "name": "approved",
          "type": "bool"
        }
      ],
      "name": "ApprovalForAll",
      "type": "event"
    },
    {
      "anonymous": false,
      "inputs": [
        {
          "indexed": true,
          "internalType": "address",
          "name": "operator",
          "type": "address"
        },
        {
          "indexed": true,
          "internalType": "address",
          "name": "from",
          "type": "address"
        },
        {
          "indexed": true,
          "internalType": "address",
          "name": "to",
          "type": "address"
        },
        {
          "indexed": false,
          "internalType": "uint256[]",
          "name": "ids",
          "type": "uint256[]"
        },
        {
          "indexed": false,
          "internalType": "uint256[]",
          "name": "values",
          "type": "uint256[]"
        }
      ],
      "name": "TransferBatch",
      "type": "event"
    },
    {
      "anonymous": false,
      "inputs": [
        {
          "indexed": true,
          "internalType": "address",
          "name": "operator",
          "type": "address"
        },
        {
          "indexed": true,
          "internalType": "address",
          "name": "from",
          "type": "address"
        },
        {
          "indexed": true,
          "internalType": "address",
          "name": "to",
          "type": "address"
        },
        {
          "indexed": false,
          "internalType": "uint256",
          "name": "id",
          "type": "uint256"
        },
        {
          "indexed": false,
          "internalType": "uint256",
          "name": "value",
          "type": "uint256"
        }
      ],
      "name": "TransferSingle",
      "type": "event"
    },
    {
      "inputs": [
        {
          "internalType": "address",
          "name": "account",
          "type": "address"
        },
        {
          "internalType": "uint256",
          "name": "id",
          "type": "uint256"
        }
      ],
      "name": "balanceOf",
      "outputs": [
        {
          "internalType": "uint256",
          "name": "",
          "type": "uint256"
        }
      ],
      "stateMutability": "view",
      "type": "function"
    },
    {
      "inputs": [
        {
          "internalType": "address[]",
          "name": "accounts",
          "type": "address[]"
        },
        {
          "internalType": "uint256[]",
          "name": "ids",
          "type": "uint256[]"
        }
      ],
      "name": "balanceOfBatch",
      "outputs": [
        {
          "internalType": "uint256[]",
          "name": "",
          "type": "uint256[]"
        }
      ],
      "stateMutability": "view",
      "type": "function"
    },
    {
      "inputs": [
        {
          "internalType": "uint256",
          "name": "id",
          "type": "uint256"
        }
      ],
      "name": "exists",
      "outputs": [
        {
          "internalType": "bool",
          "name": "",
          "type": "bool"
        }
      ],
      "stateMutability": "view",
      "type": "function"
    },
    {
      "inputs": [
        {
          "internalType": "address",
          "name": "account",
          "type": "address"
        },
        {
          "internalType": "address",
          "name": "operator",
          "type": "address"
        }
      ],
      "name": "isApprovedForAll",
      "outputs": [
        {
          "internalType": "bool",
          "name": "",
          "type": "bool"
        }
      ],
      "stateMutability": "view",
      "type": "function"
    },
    {
      "inputs": [
        {
          "internalType": "address",
          "name": "account",
          "type": "address"
        },
        {
          "internalType": "uint256",
          "name": "id",
          "type": "uint256"
        },
        {
          "internalType": "uint256",
          "name": "amount",
          "type": "uint256"
        }
      ],
      "name": "lockByFacet",
      "outputs": [],
      "stateMutability": "nonpayable",
      "type": "function"
    },
    {
      "inputs": [
        {
          "internalType": "address",
          "name": "account",
          "type": "address"
        },
        {
          "internalType": "uint256[]",
          "name": "ticketTokenIds",
          "type": "uint256[]"
        }
      ],
      "name": "locked",
      "outputs": [
        {
          "internalType": "uint256[]",
          "name": "",
          "type": "uint256[]"
        }
      ],
      "stateMutability": "view",
      "type": "function"
    },
    {
      "inputs": [
        {
          "internalType": "address",
          "name": "account",
          "type": "address"
        },
        {
          "internalType": "uint256",
          "name": "tokenId",
          "type": "uint256"
        }
      ],
      "name": "locked",
      "outputs": [
        {
          "internalType": "uint256",
          "name": "",
          "type": "uint256"
        }
      ],
      "stateMutability": "view",
      "type": "function"
    },
    {
      "inputs": [
        {
          "internalType": "uint256",
          "name": "id",
          "type": "uint256"
        }
      ],
      "name": "maxSupply",
      "outputs": [
        {
          "internalType": "uint256",
          "name": "",
          "type": "uint256"
        }
      ],
      "stateMutability": "view",
      "type": "function"
    },
    {
      "inputs": [
        {
          "internalType": "address",
          "name": "to",
          "type": "address"
        },
        {
          "internalType": "uint256",
          "name": "id",
          "type": "uint256"
        },
        {
          "internalType": "uint256",
          "name": "amount",
          "type": "uint256"
        },
        {
          "internalType": "bytes",
          "name": "data",
          "type": "bytes"
        }
      ],
      "name": "mintByFacet",
      "outputs": [],
      "stateMutability": "nonpayable",
      "type": "function"
    },
    {
      "inputs": [
        {
          "internalType": "address",
          "name": "from",
          "type": "address"
        },
        {
          "internalType": "address",
          "name": "to",
          "type": "address"
        },
        {
          "internalType": "uint256[]",
          "name": "ids",
          "type": "uint256[]"
        },
        {
          "internalType": "uint256[]",
          "name": "amounts",
          "type": "uint256[]"
        },
        {
          "internalType": "bytes",
          "name": "data",
          "type": "bytes"
        }
      ],
      "name": "safeBatchTransferFrom",
      "outputs": [],
      "stateMutability": "nonpayable",
      "type": "function"
    },
    {
      "inputs": [
        {
          "internalType": "address",
          "name": "from",
          "type": "address"
        },
        {
          "internalType": "address",
          "name": "to",
          "type": "address"
        },
        {
          "internalType": "uint256",
          "name": "id",
          "type": "uint256"
        },
        {
          "internalType": "uint256",
          "name": "amount",
          "type": "uint256"
        },
        {
          "internalType": "bytes",
          "name": "data",
          "type": "bytes"
        }
      ],
      "name": "safeTransferFrom",
      "outputs": [],
      "stateMutability": "nonpayable",
      "type": "function"
    },
    {
      "inputs": [
        {
          "internalType": "address",
          "name": "operator",
          "type": "address"
        },
        {
          "internalType": "bool",
          "name": "status",
          "type": "bool"
        }
      ],
      "name": "setApprovalForAll",
      "outputs": [],
      "stateMutability": "nonpayable",
      "type": "function"
    },
    {
      "inputs": [
        {
          "internalType": "uint256",
          "name": "id",
          "type": "uint256"
        }
      ],
      "name": "totalSupply",
      "outputs": [
        {
          "internalType": "uint256",
          "name": "",
          "type": "uint256"
        }
      ],
      "stateMutability": "view",
      "type": "function"
    },
    {
      "inputs": [
        {
          "internalType": "address",
          "name": "account",
          "type": "address"
        },
        {
          "internalType": "uint256",
          "name": "id",
          "type": "uint256"
        },
        {
          "internalType": "uint256",
          "name": "amount",
          "type": "uint256"
        }
      ],
      "name": "unlockByFacet",
      "outputs": [],
      "stateMutability": "nonpayable",
      "type": "function"
    }
  ],
  "transactionHash": "0x9c6daa2e319b11a32542122b0250299ec69b741bd97e3a7cb76410c24a056f64",
  "args": [],
  "numDeployments": 5,
  "solcInputHash": "df203424e31fe01ef0ba38744a8022b4",
  "bytecode": "0x608060405234801561001057600080fd5b5061213e806100206000396000f3fe608060405234801561001057600080fd5b50600436106100e95760003560e01c8063a22cb4651161008c578063bd85b03911610066578063bd85b039146101de578063bf7bab73146101f1578063e985e9c514610204578063f242432a1461025f57600080fd5b8063a22cb465146101a5578063a91a988a146101b8578063b164884b146101cb57600080fd5b80634f558e79116100c85780634f558e79146101495780636708a9901461016c578063869f75941461017f578063983da1561461019257600080fd5b8062fdd58e146100ee5780632eb2c2d6146101145780634e1273f414610129575b600080fd5b6101016100fc36600461193d565b610272565b6040519081526020015b60405180910390f35b610127610122366004611ab3565b610285565b005b61013c610137366004611b5d565b61036e565b60405161010b9190611c63565b61015c610157366004611c76565b610595565b604051901515815260200161010b565b61012761017a366004611c8f565b6105cc565b61010161018d366004611c76565b6105fc565b6101276101a0366004611c8f565b61062f565b6101276101b3366004611cc2565b61065a565b61013c6101c6366004611cfe565b610766565b6101276101d9366004611d84565b61084d565b6101016101ec366004611c76565b61087f565b6101016101ff36600461193d565b6108b2565b61015c610212366004611de5565b6001600160a01b0391821660009081527f93d5f1e3ad87f1fc4313940b5c964ec29137b7e8ef5c0b76f7e2c77f7f0e03256020908152604080832093909416825291909152205460ff1690565b61012761026d366004611e18565b6108fa565b600061027e83836109d6565b9392505050565b336001600160a01b0386168114806102e157506001600160a01b0380871660009081527f93d5f1e3ad87f1fc4313940b5c964ec29137b7e8ef5c0b76f7e2c77f7f0e0325602090815260408083209385168352929052205460ff165b6103585760405162461bcd60e51b815260206004820152602960248201527f455243313135353a2063616c6c6572206973206e6f74206f776e6572206e6f7260448201527f20617070726f766564000000000000000000000000000000000000000000000060648201526084015b60405180910390fd5b610366818787878787610a9b565b505050505050565b606081518351146103e75760405162461bcd60e51b815260206004820152602960248201527f455243313135353a206163636f756e747320616e6420696473206c656e67746860448201527f206d69736d617463680000000000000000000000000000000000000000000000606482015260840161034f565b82517f93d5f1e3ad87f1fc4313940b5c964ec29137b7e8ef5c0b76f7e2c77f7f0e03249060009067ffffffffffffffff81111561042657610426611967565b60405190808252806020026020018201604052801561044f578160200160208202803683370190505b50905060005b855181101561058c5760006001600160a01b031686828151811061047b5761047b611e7d565b60200260200101516001600160a01b0316036104ff5760405162461bcd60e51b815260206004820152603160248201527f455243313135353a2062617463682062616c616e636520717565727920666f7260448201527f20746865207a65726f2061646472657373000000000000000000000000000000606482015260840161034f565b82600086838151811061051457610514611e7d565b60200260200101518152602001908152602001600020600087838151811061053e5761053e611e7d565b60200260200101516001600160a01b03166001600160a01b031681526020019081526020016000205482828151811061057957610579611e7d565b6020908102919091010152600101610455565b50949350505050565b60008181527fbef313cd0145ce9ea5e5736c296fdd12e5b8495f1ac6754a82f66705a39baf20602052604081205415155b92915050565b3033146105ec576040516328be0e2160e21b815260040160405180910390fd5b6105f7838383610ab7565b505050565b60008181527fbef313cd0145ce9ea5e5736c296fdd12e5b8495f1ac6754a82f66705a39baf2160205260408120546105c6565b30331461064f576040516328be0e2160e21b815260040160405180910390fd5b6105f7838383610b74565b336001600160a01b03831681036106d95760405162461bcd60e51b815260206004820152602960248201527f455243313135353a2073657474696e6720617070726f76616c2073746174757360448201527f20666f722073656c660000000000000000000000000000000000000000000000606482015260840161034f565b6001600160a01b0381811660008181527f93d5f1e3ad87f1fc4313940b5c964ec29137b7e8ef5c0b76f7e2c77f7f0e03256020908152604080832094881680845294825291829020805460ff1916871515908117909155825190815291517f17307eab39ab6107e8899845ad3d59bd9653f200f220920489ca2b5937696c319281900390910190a3505050565b606060008267ffffffffffffffff81111561078357610783611967565b6040519080825280602002602001820160405280156107ac578160200160208202803683370190505b50905060005b8381101561058c5761081e868686848181106107d0576107d0611e7d565b905060200201356001600160a01b039190911660009081527ff169d830093e543c5e2a4df1e47aae23a77e62aa0d6ca19e1e33e6e22e526f9f60209081526040808320938352929052205490565b82828151811061083057610830611e7d565b60209081029190910101528061084581611ea9565b9150506107b2565b30331461086d576040516328be0e2160e21b815260040160405180910390fd5b61087984848484610c3b565b50505050565b60008181527fbef313cd0145ce9ea5e5736c296fdd12e5b8495f1ac6754a82f66705a39baf2060205260408120546105c6565b6001600160a01b03821660009081527ff169d830093e543c5e2a4df1e47aae23a77e62aa0d6ca19e1e33e6e22e526f9f6020908152604080832084845290915281205461027e565b336001600160a01b03861681148061095657506001600160a01b0380871660009081527f93d5f1e3ad87f1fc4313940b5c964ec29137b7e8ef5c0b76f7e2c77f7f0e0325602090815260408083209385168352929052205460ff165b6109c85760405162461bcd60e51b815260206004820152602960248201527f455243313135353a2063616c6c6572206973206e6f74206f776e6572206e6f7260448201527f20617070726f7665640000000000000000000000000000000000000000000000606482015260840161034f565b610366818787878787610d80565b60006001600160a01b038316610a545760405162461bcd60e51b815260206004820152602b60248201527f455243313135353a2062616c616e636520717565727920666f7220746865207a60448201527f65726f2061646472657373000000000000000000000000000000000000000000606482015260840161034f565b7f93d5f1e3ad87f1fc4313940b5c964ec29137b7e8ef5c0b76f7e2c77f7f0e03246000928352602090815260408084206001600160a01b0395909516845293905250205490565b610aa9868686868686610d9c565b61036686868686868661103e565b6001600160a01b03831660009081527ff169d830093e543c5e2a4df1e47aae23a77e62aa0d6ca19e1e33e6e22e526f9f602090815260408083208584529182905290912054821115610b4b5760405162461bcd60e51b815260206004820152601160248201527f4e4f545f454e4f5547485f4c4f434b4544000000000000000000000000000000604482015260640161034f565b60008381526020829052604081208054849290610b69908490611ec2565b909155505050505050565b6001600160a01b03831660009081527ff169d830093e543c5e2a4df1e47aae23a77e62aa0d6ca19e1e33e6e22e526f9f6020908152604080832085845291829052909120548290610bc586866109d6565b610bcf9190611ec2565b1015610c1d5760405162461bcd60e51b815260206004820152601260248201527f4e4f545f454e4f5547485f42414c414e43450000000000000000000000000000604482015260640161034f565b60008381526020829052604081208054849290610b69908490611ed9565b336001600160a01b038516610cb85760405162461bcd60e51b815260206004820152602160248201527f455243313135353a206d696e7420746f20746865207a65726f2061646472657360448201527f7300000000000000000000000000000000000000000000000000000000000000606482015260840161034f565b610cd781600087610cc888611204565b610cd188611204565b8761124f565b60008481527f93d5f1e3ad87f1fc4313940b5c964ec29137b7e8ef5c0b76f7e2c77f7f0e0324602090815260408083206001600160a01b038916845290915281208054859290610d28908490611ed9565b909155505060408051858152602081018590526001600160a01b0380881692600092918516917fc3d58168c5ae7397731d063d5bbf3d657854427343f4c083240f7aacaa2d0f62910160405180910390a45050505050565b610d8e86868686868661125d565b610366868686868686611426565b6001600160a01b038416610e005760405162461bcd60e51b815260206004820152602560248201527f455243313135353a207472616e7366657220746f20746865207a65726f206164604482015264647265737360d81b606482015260840161034f565b8151835114610e775760405162461bcd60e51b815260206004820152602860248201527f455243313135353a2069647320616e6420616d6f756e7473206c656e6774682060448201527f6d69736d61746368000000000000000000000000000000000000000000000000606482015260840161034f565b610e8586868686868661124f565b7f93d5f1e3ad87f1fc4313940b5c964ec29137b7e8ef5c0b76f7e2c77f7f0e032460005b8451811015610fdd576000858281518110610ec657610ec6611e7d565b602002602001015190506000858381518110610ee457610ee4611e7d565b602090810291909101810151600084815286835260408082206001600160a01b038e168352909352919091205490915081811015610f8a5760405162461bcd60e51b815260206004820152602b60248201527f455243313135353a20696e73756666696369656e742062616c616e636573206660448201527f6f72207472616e73666572000000000000000000000000000000000000000000606482015260840161034f565b6000838152602086815260408083206001600160a01b038e811685529252808320938590039093558a168152908120805460019590950194839290610fd0908490611ed9565b90915550610ea992505050565b50846001600160a01b0316866001600160a01b0316886001600160a01b03167f4a39dc06d4c0dbc64b70af90fd698a233a518aa5d07e595d983b8c0526c8f7fb878760405161102d929190611ef1565b60405180910390a450505050505050565b6001600160a01b0384163b156103665760405163bc197c8160e01b81526001600160a01b0385169063bc197c81906110829089908990889088908890600401611f6c565b6020604051808303816000875af19250505080156110bd575060408051601f3d908101601f191682019092526110ba91810190611fca565b60015b611172576110c961200c565b806308c379a00361110257506110dd612028565b806110e85750611104565b8060405162461bcd60e51b815260040161034f91906120b2565b505b60405162461bcd60e51b815260206004820152603460248201527f455243313135353a207472616e7366657220746f206e6f6e204552433131353560448201527f526563656976657220696d706c656d656e746572000000000000000000000000606482015260840161034f565b7fffffffff00000000000000000000000000000000000000000000000000000000811663bc197c8160e01b146111fb5760405162461bcd60e51b815260206004820152602860248201527f455243313135353a204552433131353552656365697665722072656a656374656044820152676420746f6b656e7360c01b606482015260840161034f565b50505050505050565b6040805160018082528183019092526060916000919060208083019080368337019050509050828160008151811061123e5761123e611e7d565b602090810291909101015292915050565b61036686868686868661153a565b6001600160a01b0384166112c15760405162461bcd60e51b815260206004820152602560248201527f455243313135353a207472616e7366657220746f20746865207a65726f206164604482015264647265737360d81b606482015260840161034f565b6112df8686866112d087611204565b6112d987611204565b8661124f565b60008381527f93d5f1e3ad87f1fc4313940b5c964ec29137b7e8ef5c0b76f7e2c77f7f0e0324602081815260408084206001600160a01b038a16855290915290912054838110156113985760405162461bcd60e51b815260206004820152602b60248201527f455243313135353a20696e73756666696369656e742062616c616e636573206660448201527f6f72207472616e73666572000000000000000000000000000000000000000000606482015260840161034f565b6000858152602083815260408083206001600160a01b038b811685529252808320938790039093558716815290812080548592906113d7908490611ed9565b909155505060408051858152602081018590526001600160a01b038088169289821692918b16917fc3d58168c5ae7397731d063d5bbf3d657854427343f4c083240f7aacaa2d0f62910161102d565b6001600160a01b0384163b156103665760405163f23a6e6160e01b81526001600160a01b0385169063f23a6e619061146a90899089908890889088906004016120c5565b6020604051808303816000875af19250505080156114a5575060408051601f3d908101601f191682019092526114a291810190611fca565b60015b6114b1576110c961200c565b7fffffffff00000000000000000000000000000000000000000000000000000000811663f23a6e6160e01b146111fb5760405162461bcd60e51b815260206004820152602860248201527f455243313135353a204552433131353552656365697665722072656a656374656044820152676420746f6b656e7360c01b606482015260840161034f565b6001600160a01b038516156116765760005b83518110156116745782818151811061156757611567611e7d565b60200260200101516115967ff169d830093e543c5e2a4df1e47aae23a77e62aa0d6ca19e1e33e6e22e526f9f90565b6000016000886001600160a01b03166001600160a01b0316815260200190815260200160002060008684815181106115d0576115d0611e7d565b602002602001015181526020019081526020016000205461160a888785815181106115fd576115fd611e7d565b60200260200101516109d6565b6116149190611ec2565b10156116625760405162461bcd60e51b815260206004820152600660248201527f4c4f434b45440000000000000000000000000000000000000000000000000000604482015260640161034f565b8061166c81611ea9565b91505061154c565b505b6103668686868686866001600160a01b0385166117f0577fbef313cd0145ce9ea5e5736c296fdd12e5b8495f1ac6754a82f66705a39baf207fbef313cd0145ce9ea5e5736c296fdd12e5b8495f1ac6754a82f66705a39baf2160005b85518110156117ec578481815181106116ed576116ed611e7d565b602002602001015183600088848151811061170a5761170a611e7d565b60200260200101518152602001908152602001600020600082825461172f9190611ed9565b9250508190555081600087838151811061174b5761174b611e7d565b602002602001015181526020019081526020016000205483600088848151811061177757611777611e7d565b602002602001015181526020019081526020016000205411156117dc5760405162461bcd60e51b815260206004820152601160248201527f535550504c595f4558434545445f4d4158000000000000000000000000000000604482015260640161034f565b6117e581611ea9565b90506116d2565b5050505b6001600160a01b038416610366577fbef313cd0145ce9ea5e5736c296fdd12e5b8495f1ac6754a82f66705a39baf2060005b845181101561191757600085828151811061183f5761183f611e7d565b60200260200101519050600085838151811061185d5761185d611e7d565b602002602001015190506000846000848152602001908152602001600020549050818110156118f45760405162461bcd60e51b815260206004820152602860248201527f455243313135353a206275726e20616d6f756e74206578636565647320746f7460448201527f616c537570706c79000000000000000000000000000000000000000000000000606482015260840161034f565b6000928352602085905260409092209103905561191081611ea9565b9050611822565b5050505050505050565b80356001600160a01b038116811461193857600080fd5b919050565b6000806040838503121561195057600080fd5b61195983611921565b946020939093013593505050565b634e487b7160e01b600052604160045260246000fd5b601f8201601f1916810167ffffffffffffffff811182821017156119a3576119a3611967565b6040525050565b600067ffffffffffffffff8211156119c4576119c4611967565b5060051b60200190565b600082601f8301126119df57600080fd5b813560206119ec826119aa565b6040516119f9828261197d565b83815260059390931b8501820192828101915086841115611a1957600080fd5b8286015b84811015611a345780358352918301918301611a1d565b509695505050505050565b600082601f830112611a5057600080fd5b813567ffffffffffffffff811115611a6a57611a6a611967565b604051611a81601f8301601f19166020018261197d565b818152846020838601011115611a9657600080fd5b816020850160208301376000918101602001919091529392505050565b600080600080600060a08688031215611acb57600080fd5b611ad486611921565b9450611ae260208701611921565b9350604086013567ffffffffffffffff80821115611aff57600080fd5b611b0b89838a016119ce565b94506060880135915080821115611b2157600080fd5b611b2d89838a016119ce565b93506080880135915080821115611b4357600080fd5b50611b5088828901611a3f565b9150509295509295909350565b60008060408385031215611b7057600080fd5b823567ffffffffffffffff80821115611b8857600080fd5b818501915085601f830112611b9c57600080fd5b81356020611ba9826119aa565b604051611bb6828261197d565b83815260059390931b8501820192828101915089841115611bd657600080fd5b948201945b83861015611bfb57611bec86611921565b82529482019490820190611bdb565b96505086013592505080821115611c1157600080fd5b50611c1e858286016119ce565b9150509250929050565b600081518084526020808501945080840160005b83811015611c5857815187529582019590820190600101611c3c565b509495945050505050565b60208152600061027e6020830184611c28565b600060208284031215611c8857600080fd5b5035919050565b600080600060608486031215611ca457600080fd5b611cad84611921565b95602085013595506040909401359392505050565b60008060408385031215611cd557600080fd5b611cde83611921565b915060208301358015158114611cf357600080fd5b809150509250929050565b600080600060408486031215611d1357600080fd5b611d1c84611921565b9250602084013567ffffffffffffffff80821115611d3957600080fd5b818601915086601f830112611d4d57600080fd5b813581811115611d5c57600080fd5b8760208260051b8501011115611d7157600080fd5b6020830194508093505050509250925092565b60008060008060808587031215611d9a57600080fd5b611da385611921565b93506020850135925060408501359150606085013567ffffffffffffffff811115611dcd57600080fd5b611dd987828801611a3f565b91505092959194509250565b60008060408385031215611df857600080fd5b611e0183611921565b9150611e0f60208401611921565b90509250929050565b600080600080600060a08688031215611e3057600080fd5b611e3986611921565b9450611e4760208701611921565b93506040860135925060608601359150608086013567ffffffffffffffff811115611e7157600080fd5b611b5088828901611a3f565b634e487b7160e01b600052603260045260246000fd5b634e487b7160e01b600052601160045260246000fd5b600060018201611ebb57611ebb611e93565b5060010190565b600082821015611ed457611ed4611e93565b500390565b60008219821115611eec57611eec611e93565b500190565b604081526000611f046040830185611c28565b8281036020840152611f168185611c28565b95945050505050565b6000815180845260005b81811015611f4557602081850181015186830182015201611f29565b81811115611f57576000602083870101525b50601f01601f19169290920160200192915050565b60006001600160a01b03808816835280871660208401525060a06040830152611f9860a0830186611c28565b8281036060840152611faa8186611c28565b90508281036080840152611fbe8185611f1f565b98975050505050505050565b600060208284031215611fdc57600080fd5b81517fffffffff000000000000000000000000000000000000000000000000000000008116811461027e57600080fd5b600060033d11156120255760046000803e5060005160e01c5b90565b600060443d10156120365790565b6040516003193d81016004833e81513d67ffffffffffffffff816024840111818411171561206657505050505090565b828501915081518181111561207e5750505050505090565b843d87010160208285010111156120985750505050505090565b6120a76020828601018761197d565b509095945050505050565b60208152600061027e6020830184611f1f565b60006001600160a01b03808816835280871660208401525084604083015283606083015260a060808301526120fd60a0830184611f1f565b97965050505050505056fea2646970667358221220a94c422fefa5585db978dd18e2871f6fae14e41568b28136bd893d67079f909b64736f6c634300080f0033",
  "devdoc": {
    "kind": "dev",
    "methods": {
      "balanceOf(address,uint256)": {
        "params": {
          "account": "address to query",
          "id": "token to query"
        },
        "returns": {
          "_0": "token balance"
        }
      },
      "balanceOfBatch(address[],uint256[])": {
        "params": {
          "accounts": "addresss to query",
          "ids": "tokens to query"
        },
        "returns": {
          "_0": "token balances"
        }
      },
      "exists(uint256)": {
        "details": "Indicates whether any token exist with a given id, or not."
      },
      "isApprovedForAll(address,address)": {
        "params": {
          "account": "address to query for approval granted",
          "operator": "address to query for approval received"
        },
        "returns": {
          "_0": "whether operator is approved to spend tokens held by account"
        }
      },
      "lockByFacet(address,uint256,uint256)": {
        "details": "Locks `amount` of tokens of `account`, of token type `id`. Requirements: - the caller must be diamond itself (other facets)."
      },
      "maxSupply(uint256)": {
        "details": "Maximum amount of tokens possible to exist for a given id."
      },
      "mintByFacet(address,uint256,uint256,bytes)": {
        "details": "Creates `amount` new tokens for `to`, of token type `id`. See {ERC1155-_mint}. Requirements: - the caller must be diamond itself (other facets)."
      },
      "safeBatchTransferFrom(address,address,uint256[],uint256[],bytes)": {
        "params": {
          "amounts": "list of quantities of tokens to transfer",
          "data": "data payload",
          "from": "sender of tokens",
          "ids": "list of token IDs",
          "to": "receiver of tokens"
        }
      },
      "safeTransferFrom(address,address,uint256,uint256,bytes)": {
        "params": {
          "amount": "quantity of tokens to transfer",
          "data": "data payload",
          "from": "sender of tokens",
          "id": "token ID",
          "to": "receiver of tokens"
        }
      },
      "setApprovalForAll(address,bool)": {
        "params": {
          "operator": "address whose approval status to update",
          "status": "whether operator should be considered approved"
        }
      },
      "totalSupply(uint256)": {
        "details": "Total amount of tokens in with a given id."
      },
      "unlockByFacet(address,uint256,uint256)": {
        "details": "Un-locks `amount` of tokens of `account`, of token type `id`. Requirements: - the caller must be diamond itself (other facets)."
      }
    },
    "version": 1
  },
  "userdoc": {
    "errors": {
      "SenderIsNotSelf()": [
        {
          "notice": "The caller must be the current contract itself."
        }
      ]
    },
    "kind": "user",
    "methods": {
      "balanceOf(address,uint256)": {
        "notice": "query the balance of given token held by given address"
      },
      "balanceOfBatch(address[],uint256[])": {
        "notice": "query the balances of given tokens held by given addresses"
      },
      "isApprovedForAll(address,address)": {
        "notice": "query approval status of given operator with respect to given address"
      },
      "safeBatchTransferFrom(address,address,uint256[],uint256[],bytes)": {
        "notice": "transfer batch of tokens between given addresses, checking for ERC1155Receiver implementation if applicable"
      },
      "safeTransferFrom(address,address,uint256,uint256,bytes)": {
        "notice": "transfer tokens between given addresses, checking for ERC1155Receiver implementation if applicable"
      },
      "setApprovalForAll(address,bool)": {
        "notice": "grant approval to or revoke approval from given operator to spend held tokens"
      }
    },
    "version": 1
  },
  "storageLayout": {
    "storage": [],
    "types": null
  }
}