{
  "address": "0x14D784Cc859B5EF7b9F750e83F4461D9096f114c",
  "abi": [
    {
      "inputs": [],
      "name": "SenderIsNotSelf",
      "type": "error"
    },
    {
      "anonymous": false,
      "inputs": [
        {
          "indexed": true,
          "internalType": "address",
          "name": "account",
          "type": "address"
        },
        {
          "indexed": true,
          "internalType": "address",
          "name": "operator",
          "type": "address"
        },
        {
          "indexed": false,
          "internalType": "bool",
          "name": "approved",
          "type": "bool"
        }
      ],
      "name": "ApprovalForAll",
      "type": "event"
    },
    {
      "anonymous": false,
      "inputs": [
        {
          "indexed": true,
          "internalType": "address",
          "name": "operator",
          "type": "address"
        },
        {
          "indexed": true,
          "internalType": "address",
          "name": "from",
          "type": "address"
        },
        {
          "indexed": true,
          "internalType": "address",
          "name": "to",
          "type": "address"
        },
        {
          "indexed": false,
          "internalType": "uint256[]",
          "name": "ids",
          "type": "uint256[]"
        },
        {
          "indexed": false,
          "internalType": "uint256[]",
          "name": "values",
          "type": "uint256[]"
        }
      ],
      "name": "TransferBatch",
      "type": "event"
    },
    {
      "anonymous": false,
      "inputs": [
        {
          "indexed": true,
          "internalType": "address",
          "name": "operator",
          "type": "address"
        },
        {
          "indexed": true,
          "internalType": "address",
          "name": "from",
          "type": "address"
        },
        {
          "indexed": true,
          "internalType": "address",
          "name": "to",
          "type": "address"
        },
        {
          "indexed": false,
          "internalType": "uint256",
          "name": "id",
          "type": "uint256"
        },
        {
          "indexed": false,
          "internalType": "uint256",
          "name": "value",
          "type": "uint256"
        }
      ],
      "name": "TransferSingle",
      "type": "event"
    },
    {
      "inputs": [
        {
          "internalType": "address",
          "name": "account",
          "type": "address"
        },
        {
          "internalType": "uint256",
          "name": "id",
          "type": "uint256"
        }
      ],
      "name": "balanceOf",
      "outputs": [
        {
          "internalType": "uint256",
          "name": "",
          "type": "uint256"
        }
      ],
      "stateMutability": "view",
      "type": "function"
    },
    {
      "inputs": [
        {
          "internalType": "address[]",
          "name": "accounts",
          "type": "address[]"
        },
        {
          "internalType": "uint256[]",
          "name": "ids",
          "type": "uint256[]"
        }
      ],
      "name": "balanceOfBatch",
      "outputs": [
        {
          "internalType": "uint256[]",
          "name": "",
          "type": "uint256[]"
        }
      ],
      "stateMutability": "view",
      "type": "function"
    },
    {
      "inputs": [
        {
          "internalType": "uint256",
          "name": "id",
          "type": "uint256"
        }
      ],
      "name": "exists",
      "outputs": [
        {
          "internalType": "bool",
          "name": "",
          "type": "bool"
        }
      ],
      "stateMutability": "view",
      "type": "function"
    },
    {
      "inputs": [
        {
          "internalType": "address",
          "name": "account",
          "type": "address"
        },
        {
          "internalType": "address",
          "name": "operator",
          "type": "address"
        }
      ],
      "name": "isApprovedForAll",
      "outputs": [
        {
          "internalType": "bool",
          "name": "",
          "type": "bool"
        }
      ],
      "stateMutability": "view",
      "type": "function"
    },
    {
      "inputs": [
        {
          "internalType": "uint256",
          "name": "id",
          "type": "uint256"
        }
      ],
      "name": "maxSupply",
      "outputs": [
        {
          "internalType": "uint256",
          "name": "",
          "type": "uint256"
        }
      ],
      "stateMutability": "view",
      "type": "function"
    },
    {
      "inputs": [
        {
          "internalType": "address",
          "name": "to",
          "type": "address"
        },
        {
          "internalType": "uint256",
          "name": "id",
          "type": "uint256"
        },
        {
          "internalType": "uint256",
          "name": "amount",
          "type": "uint256"
        },
        {
          "internalType": "bytes",
          "name": "data",
          "type": "bytes"
        }
      ],
      "name": "mintByFacet",
      "outputs": [],
      "stateMutability": "nonpayable",
      "type": "function"
    },
    {
      "inputs": [
        {
          "internalType": "address",
          "name": "from",
          "type": "address"
        },
        {
          "internalType": "address",
          "name": "to",
          "type": "address"
        },
        {
          "internalType": "uint256[]",
          "name": "ids",
          "type": "uint256[]"
        },
        {
          "internalType": "uint256[]",
          "name": "amounts",
          "type": "uint256[]"
        },
        {
          "internalType": "bytes",
          "name": "data",
          "type": "bytes"
        }
      ],
      "name": "safeBatchTransferFrom",
      "outputs": [],
      "stateMutability": "nonpayable",
      "type": "function"
    },
    {
      "inputs": [
        {
          "internalType": "address",
          "name": "from",
          "type": "address"
        },
        {
          "internalType": "address",
          "name": "to",
          "type": "address"
        },
        {
          "internalType": "uint256",
          "name": "id",
          "type": "uint256"
        },
        {
          "internalType": "uint256",
          "name": "amount",
          "type": "uint256"
        },
        {
          "internalType": "bytes",
          "name": "data",
          "type": "bytes"
        }
      ],
      "name": "safeTransferFrom",
      "outputs": [],
      "stateMutability": "nonpayable",
      "type": "function"
    },
    {
      "inputs": [
        {
          "internalType": "address",
          "name": "operator",
          "type": "address"
        },
        {
          "internalType": "bool",
          "name": "status",
          "type": "bool"
        }
      ],
      "name": "setApprovalForAll",
      "outputs": [],
      "stateMutability": "nonpayable",
      "type": "function"
    },
    {
      "inputs": [
        {
          "internalType": "uint256",
          "name": "id",
          "type": "uint256"
        }
      ],
      "name": "totalSupply",
      "outputs": [
        {
          "internalType": "uint256",
          "name": "",
          "type": "uint256"
        }
      ],
      "stateMutability": "view",
      "type": "function"
    }
  ],
  "transactionHash": "0x15b7c7f50ec10d339f4d435ffa945105a71b999cdbef832c5558fd08c0fb8182",
  "args": [],
  "numDeployments": 5,
  "solcInputHash": "df203424e31fe01ef0ba38744a8022b4",
  "bytecode": "0x608060405234801561001057600080fd5b50611bbc806100206000396000f3fe608060405234801561001057600080fd5b50600436106100bd5760003560e01c8063a22cb46511610076578063bd85b0391161005b578063bd85b03914610179578063e985e9c51461018c578063f242432a146101e757600080fd5b8063a22cb46514610153578063b164884b1461016657600080fd5b80634e1273f4116100a75780634e1273f4146100fd5780634f558e791461011d578063869f75941461014057600080fd5b8062fdd58e146100c25780632eb2c2d6146100e8575b600080fd5b6100d56100d036600461148b565b6101fa565b6040519081526020015b60405180910390f35b6100fb6100f6366004611601565b61020d565b005b61011061010b3660046116ab565b6102f6565b6040516100df91906117b1565b61013061012b3660046117c4565b61051d565b60405190151581526020016100df565b6100d561014e3660046117c4565b610554565b6100fb6101613660046117dd565b610587565b6100fb610174366004611819565b610693565b6100d56101873660046117c4565b6106de565b61013061019a36600461187a565b6001600160a01b0391821660009081527f93d5f1e3ad87f1fc4313940b5c964ec29137b7e8ef5c0b76f7e2c77f7f0e03256020908152604080832093909416825291909152205460ff1690565b6100fb6101f53660046118ad565b610711565b600061020683836107ed565b9392505050565b336001600160a01b03861681148061026957506001600160a01b0380871660009081527f93d5f1e3ad87f1fc4313940b5c964ec29137b7e8ef5c0b76f7e2c77f7f0e0325602090815260408083209385168352929052205460ff165b6102e05760405162461bcd60e51b815260206004820152602960248201527f455243313135353a2063616c6c6572206973206e6f74206f776e6572206e6f7260448201527f20617070726f766564000000000000000000000000000000000000000000000060648201526084015b60405180910390fd5b6102ee8187878787876108b2565b505050505050565b6060815183511461036f5760405162461bcd60e51b815260206004820152602960248201527f455243313135353a206163636f756e747320616e6420696473206c656e67746860448201527f206d69736d61746368000000000000000000000000000000000000000000000060648201526084016102d7565b82517f93d5f1e3ad87f1fc4313940b5c964ec29137b7e8ef5c0b76f7e2c77f7f0e03249060009067ffffffffffffffff8111156103ae576103ae6114b5565b6040519080825280602002602001820160405280156103d7578160200160208202803683370190505b50905060005b85518110156105145760006001600160a01b031686828151811061040357610403611912565b60200260200101516001600160a01b0316036104875760405162461bcd60e51b815260206004820152603160248201527f455243313135353a2062617463682062616c616e636520717565727920666f7260448201527f20746865207a65726f206164647265737300000000000000000000000000000060648201526084016102d7565b82600086838151811061049c5761049c611912565b6020026020010151815260200190815260200160002060008783815181106104c6576104c6611912565b60200260200101516001600160a01b03166001600160a01b031681526020019081526020016000205482828151811061050157610501611912565b60209081029190910101526001016103dd565b50949350505050565b60008181527fbef313cd0145ce9ea5e5736c296fdd12e5b8495f1ac6754a82f66705a39baf20602052604081205415155b92915050565b60008181527fbef313cd0145ce9ea5e5736c296fdd12e5b8495f1ac6754a82f66705a39baf21602052604081205461054e565b336001600160a01b03831681036106065760405162461bcd60e51b815260206004820152602960248201527f455243313135353a2073657474696e6720617070726f76616c2073746174757360448201527f20666f722073656c66000000000000000000000000000000000000000000000060648201526084016102d7565b6001600160a01b0381811660008181527f93d5f1e3ad87f1fc4313940b5c964ec29137b7e8ef5c0b76f7e2c77f7f0e03256020908152604080832094881680845294825291829020805460ff1916871515908117909155825190815291517f17307eab39ab6107e8899845ad3d59bd9653f200f220920489ca2b5937696c319281900390910190a3505050565b3033146106cc576040517fa2f8388400000000000000000000000000000000000000000000000000000000815260040160405180910390fd5b6106d8848484846108ce565b50505050565b60008181527fbef313cd0145ce9ea5e5736c296fdd12e5b8495f1ac6754a82f66705a39baf20602052604081205461054e565b336001600160a01b03861681148061076d57506001600160a01b0380871660009081527f93d5f1e3ad87f1fc4313940b5c964ec29137b7e8ef5c0b76f7e2c77f7f0e0325602090815260408083209385168352929052205460ff165b6107df5760405162461bcd60e51b815260206004820152602960248201527f455243313135353a2063616c6c6572206973206e6f74206f776e6572206e6f7260448201527f20617070726f766564000000000000000000000000000000000000000000000060648201526084016102d7565b6102ee818787878787610a13565b60006001600160a01b03831661086b5760405162461bcd60e51b815260206004820152602b60248201527f455243313135353a2062616c616e636520717565727920666f7220746865207a60448201527f65726f206164647265737300000000000000000000000000000000000000000060648201526084016102d7565b7f93d5f1e3ad87f1fc4313940b5c964ec29137b7e8ef5c0b76f7e2c77f7f0e03246000928352602090815260408084206001600160a01b0395909516845293905250205490565b6108c0868686868686610a2f565b6102ee868686868686610cd1565b336001600160a01b03851661094b5760405162461bcd60e51b815260206004820152602160248201527f455243313135353a206d696e7420746f20746865207a65726f2061646472657360448201527f730000000000000000000000000000000000000000000000000000000000000060648201526084016102d7565b61096a8160008761095b88610e97565b61096488610e97565b87610ee2565b60008481527f93d5f1e3ad87f1fc4313940b5c964ec29137b7e8ef5c0b76f7e2c77f7f0e0324602090815260408083206001600160a01b0389168452909152812080548592906109bb90849061193e565b909155505060408051858152602081018590526001600160a01b0380881692600092918516917fc3d58168c5ae7397731d063d5bbf3d657854427343f4c083240f7aacaa2d0f62910160405180910390a45050505050565b610a21868686868686610ef0565b6102ee8686868686866110b9565b6001600160a01b038416610a935760405162461bcd60e51b815260206004820152602560248201527f455243313135353a207472616e7366657220746f20746865207a65726f206164604482015264647265737360d81b60648201526084016102d7565b8151835114610b0a5760405162461bcd60e51b815260206004820152602860248201527f455243313135353a2069647320616e6420616d6f756e7473206c656e6774682060448201527f6d69736d6174636800000000000000000000000000000000000000000000000060648201526084016102d7565b610b18868686868686610ee2565b7f93d5f1e3ad87f1fc4313940b5c964ec29137b7e8ef5c0b76f7e2c77f7f0e032460005b8451811015610c70576000858281518110610b5957610b59611912565b602002602001015190506000858381518110610b7757610b77611912565b602090810291909101810151600084815286835260408082206001600160a01b038e168352909352919091205490915081811015610c1d5760405162461bcd60e51b815260206004820152602b60248201527f455243313135353a20696e73756666696369656e742062616c616e636573206660448201527f6f72207472616e7366657200000000000000000000000000000000000000000060648201526084016102d7565b6000838152602086815260408083206001600160a01b038e811685529252808320938590039093558a168152908120805460019590950194839290610c6390849061193e565b90915550610b3c92505050565b50846001600160a01b0316866001600160a01b0316886001600160a01b03167f4a39dc06d4c0dbc64b70af90fd698a233a518aa5d07e595d983b8c0526c8f7fb8787604051610cc0929190611956565b60405180910390a450505050505050565b6001600160a01b0384163b156102ee5760405163bc197c8160e01b81526001600160a01b0385169063bc197c8190610d1590899089908890889088906004016119d1565b6020604051808303816000875af1925050508015610d50575060408051601f3d908101601f19168201909252610d4d91810190611a2f565b60015b610e0557610d5c611a71565b806308c379a003610d955750610d70611a8d565b80610d7b5750610d97565b8060405162461bcd60e51b81526004016102d79190611b17565b505b60405162461bcd60e51b815260206004820152603460248201527f455243313135353a207472616e7366657220746f206e6f6e204552433131353560448201527f526563656976657220696d706c656d656e74657200000000000000000000000060648201526084016102d7565b7fffffffff00000000000000000000000000000000000000000000000000000000811663bc197c8160e01b14610e8e5760405162461bcd60e51b815260206004820152602860248201527f455243313135353a204552433131353552656365697665722072656a656374656044820152676420746f6b656e7360c01b60648201526084016102d7565b50505050505050565b60408051600180825281830190925260609160009190602080830190803683370190505090508281600081518110610ed157610ed1611912565b602090810291909101015292915050565b6102ee8686868686866111cd565b6001600160a01b038416610f545760405162461bcd60e51b815260206004820152602560248201527f455243313135353a207472616e7366657220746f20746865207a65726f206164604482015264647265737360d81b60648201526084016102d7565b610f72868686610f6387610e97565b610f6c87610e97565b86610ee2565b60008381527f93d5f1e3ad87f1fc4313940b5c964ec29137b7e8ef5c0b76f7e2c77f7f0e0324602081815260408084206001600160a01b038a168552909152909120548381101561102b5760405162461bcd60e51b815260206004820152602b60248201527f455243313135353a20696e73756666696369656e742062616c616e636573206660448201527f6f72207472616e7366657200000000000000000000000000000000000000000060648201526084016102d7565b6000858152602083815260408083206001600160a01b038b8116855292528083209387900390935587168152908120805485929061106a90849061193e565b909155505060408051858152602081018590526001600160a01b038088169289821692918b16917fc3d58168c5ae7397731d063d5bbf3d657854427343f4c083240f7aacaa2d0f629101610cc0565b6001600160a01b0384163b156102ee5760405163f23a6e6160e01b81526001600160a01b0385169063f23a6e61906110fd9089908990889088908890600401611b2a565b6020604051808303816000875af1925050508015611138575060408051601f3d908101601f1916820190925261113591810190611a2f565b60015b61114457610d5c611a71565b7fffffffff00000000000000000000000000000000000000000000000000000000811663f23a6e6160e01b14610e8e5760405162461bcd60e51b815260206004820152602860248201527f455243313135353a204552433131353552656365697665722072656a656374656044820152676420746f6b656e7360c01b60648201526084016102d7565b6001600160a01b03851661133e577fbef313cd0145ce9ea5e5736c296fdd12e5b8495f1ac6754a82f66705a39baf207fbef313cd0145ce9ea5e5736c296fdd12e5b8495f1ac6754a82f66705a39baf2160005b855181101561133a5784818151811061123b5761123b611912565b602002602001015183600088848151811061125857611258611912565b60200260200101518152602001908152602001600020600082825461127d919061193e565b9250508190555081600087838151811061129957611299611912565b60200260200101518152602001908152602001600020548360008884815181106112c5576112c5611912565b6020026020010151815260200190815260200160002054111561132a5760405162461bcd60e51b815260206004820152601160248201527f535550504c595f4558434545445f4d415800000000000000000000000000000060448201526064016102d7565b61133381611b6d565b9050611220565b5050505b6001600160a01b0384166102ee577fbef313cd0145ce9ea5e5736c296fdd12e5b8495f1ac6754a82f66705a39baf2060005b845181101561146557600085828151811061138d5761138d611912565b6020026020010151905060008583815181106113ab576113ab611912565b602002602001015190506000846000848152602001908152602001600020549050818110156114425760405162461bcd60e51b815260206004820152602860248201527f455243313135353a206275726e20616d6f756e74206578636565647320746f7460448201527f616c537570706c7900000000000000000000000000000000000000000000000060648201526084016102d7565b6000928352602085905260409092209103905561145e81611b6d565b9050611370565b5050505050505050565b80356001600160a01b038116811461148657600080fd5b919050565b6000806040838503121561149e57600080fd5b6114a78361146f565b946020939093013593505050565b634e487b7160e01b600052604160045260246000fd5b601f8201601f1916810167ffffffffffffffff811182821017156114f1576114f16114b5565b6040525050565b600067ffffffffffffffff821115611512576115126114b5565b5060051b60200190565b600082601f83011261152d57600080fd5b8135602061153a826114f8565b60405161154782826114cb565b83815260059390931b850182019282810191508684111561156757600080fd5b8286015b84811015611582578035835291830191830161156b565b509695505050505050565b600082601f83011261159e57600080fd5b813567ffffffffffffffff8111156115b8576115b86114b5565b6040516115cf601f8301601f1916602001826114cb565b8181528460208386010111156115e457600080fd5b816020850160208301376000918101602001919091529392505050565b600080600080600060a0868803121561161957600080fd5b6116228661146f565b94506116306020870161146f565b9350604086013567ffffffffffffffff8082111561164d57600080fd5b61165989838a0161151c565b9450606088013591508082111561166f57600080fd5b61167b89838a0161151c565b9350608088013591508082111561169157600080fd5b5061169e8882890161158d565b9150509295509295909350565b600080604083850312156116be57600080fd5b823567ffffffffffffffff808211156116d657600080fd5b818501915085601f8301126116ea57600080fd5b813560206116f7826114f8565b60405161170482826114cb565b83815260059390931b850182019282810191508984111561172457600080fd5b948201945b838610156117495761173a8661146f565b82529482019490820190611729565b9650508601359250508082111561175f57600080fd5b5061176c8582860161151c565b9150509250929050565b600081518084526020808501945080840160005b838110156117a65781518752958201959082019060010161178a565b509495945050505050565b6020815260006102066020830184611776565b6000602082840312156117d657600080fd5b5035919050565b600080604083850312156117f057600080fd5b6117f98361146f565b91506020830135801515811461180e57600080fd5b809150509250929050565b6000806000806080858703121561182f57600080fd5b6118388561146f565b93506020850135925060408501359150606085013567ffffffffffffffff81111561186257600080fd5b61186e8782880161158d565b91505092959194509250565b6000806040838503121561188d57600080fd5b6118968361146f565b91506118a46020840161146f565b90509250929050565b600080600080600060a086880312156118c557600080fd5b6118ce8661146f565b94506118dc6020870161146f565b93506040860135925060608601359150608086013567ffffffffffffffff81111561190657600080fd5b61169e8882890161158d565b634e487b7160e01b600052603260045260246000fd5b634e487b7160e01b600052601160045260246000fd5b6000821982111561195157611951611928565b500190565b6040815260006119696040830185611776565b828103602084015261197b8185611776565b95945050505050565b6000815180845260005b818110156119aa5760208185018101518683018201520161198e565b818111156119bc576000602083870101525b50601f01601f19169290920160200192915050565b60006001600160a01b03808816835280871660208401525060a060408301526119fd60a0830186611776565b8281036060840152611a0f8186611776565b90508281036080840152611a238185611984565b98975050505050505050565b600060208284031215611a4157600080fd5b81517fffffffff000000000000000000000000000000000000000000000000000000008116811461020657600080fd5b600060033d1115611a8a5760046000803e5060005160e01c5b90565b600060443d1015611a9b5790565b6040516003193d81016004833e81513d67ffffffffffffffff8160248401118184111715611acb57505050505090565b8285019150815181811115611ae35750505050505090565b843d8701016020828501011115611afd5750505050505090565b611b0c602082860101876114cb565b509095945050505050565b6020815260006102066020830184611984565b60006001600160a01b03808816835280871660208401525084604083015283606083015260a06080830152611b6260a0830184611984565b979650505050505050565b600060018201611b7f57611b7f611928565b506001019056fea2646970667358221220fc08e805658ff37d1dc4f45e75db7633fd2ceede89ed4cf27440ee2ea661a6fe64736f6c634300080f0033",
  "devdoc": {
    "kind": "dev",
    "methods": {
      "balanceOf(address,uint256)": {
        "params": {
          "account": "address to query",
          "id": "token to query"
        },
        "returns": {
          "_0": "token balance"
        }
      },
      "balanceOfBatch(address[],uint256[])": {
        "params": {
          "accounts": "addresss to query",
          "ids": "tokens to query"
        },
        "returns": {
          "_0": "token balances"
        }
      },
      "exists(uint256)": {
        "details": "Indicates whether any token exist with a given id, or not."
      },
      "isApprovedForAll(address,address)": {
        "params": {
          "account": "address to query for approval granted",
          "operator": "address to query for approval received"
        },
        "returns": {
          "_0": "whether operator is approved to spend tokens held by account"
        }
      },
      "maxSupply(uint256)": {
        "details": "Maximum amount of tokens possible to exist for a given id."
      },
      "mintByFacet(address,uint256,uint256,bytes)": {
        "details": "Creates `amount` new tokens for `to`, of token type `id`. See {ERC1155-_mint}. Requirements: - the caller must be diamond itself (other facets)."
      },
      "safeBatchTransferFrom(address,address,uint256[],uint256[],bytes)": {
        "params": {
          "amounts": "list of quantities of tokens to transfer",
          "data": "data payload",
          "from": "sender of tokens",
          "ids": "list of token IDs",
          "to": "receiver of tokens"
        }
      },
      "safeTransferFrom(address,address,uint256,uint256,bytes)": {
        "params": {
          "amount": "quantity of tokens to transfer",
          "data": "data payload",
          "from": "sender of tokens",
          "id": "token ID",
          "to": "receiver of tokens"
        }
      },
      "setApprovalForAll(address,bool)": {
        "params": {
          "operator": "address whose approval status to update",
          "status": "whether operator should be considered approved"
        }
      },
      "totalSupply(uint256)": {
        "details": "Total amount of tokens in with a given id."
      }
    },
    "version": 1
  },
  "userdoc": {
    "errors": {
      "SenderIsNotSelf()": [
        {
          "notice": "The caller must be the current contract itself."
        }
      ]
    },
    "kind": "user",
    "methods": {
      "balanceOf(address,uint256)": {
        "notice": "query the balance of given token held by given address"
      },
      "balanceOfBatch(address[],uint256[])": {
        "notice": "query the balances of given tokens held by given addresses"
      },
      "isApprovedForAll(address,address)": {
        "notice": "query approval status of given operator with respect to given address"
      },
      "safeBatchTransferFrom(address,address,uint256[],uint256[],bytes)": {
        "notice": "transfer batch of tokens between given addresses, checking for ERC1155Receiver implementation if applicable"
      },
      "safeTransferFrom(address,address,uint256,uint256,bytes)": {
        "notice": "transfer tokens between given addresses, checking for ERC1155Receiver implementation if applicable"
      },
      "setApprovalForAll(address,bool)": {
        "notice": "grant approval to or revoke approval from given operator to spend held tokens"
      }
    },
    "version": 1
  },
  "storageLayout": {
    "storage": [],
    "types": null
  }
}