{
  "address": "0x93a9fcF89709f991e96EA14EB67DB992a01d958C",
  "abi": [
    {
      "inputs": [],
      "name": "SenderIsNotSelf",
      "type": "error"
    },
    {
      "anonymous": false,
      "inputs": [
        {
          "indexed": true,
          "internalType": "address",
          "name": "account",
          "type": "address"
        },
        {
          "indexed": true,
          "internalType": "address",
          "name": "operator",
          "type": "address"
        },
        {
          "indexed": false,
          "internalType": "bool",
          "name": "approved",
          "type": "bool"
        }
      ],
      "name": "ApprovalForAll",
      "type": "event"
    },
    {
      "anonymous": false,
      "inputs": [
        {
          "indexed": true,
          "internalType": "address",
          "name": "operator",
          "type": "address"
        },
        {
          "indexed": true,
          "internalType": "address",
          "name": "from",
          "type": "address"
        },
        {
          "indexed": true,
          "internalType": "address",
          "name": "to",
          "type": "address"
        },
        {
          "indexed": false,
          "internalType": "uint256[]",
          "name": "ids",
          "type": "uint256[]"
        },
        {
          "indexed": false,
          "internalType": "uint256[]",
          "name": "values",
          "type": "uint256[]"
        }
      ],
      "name": "TransferBatch",
      "type": "event"
    },
    {
      "anonymous": false,
      "inputs": [
        {
          "indexed": true,
          "internalType": "address",
          "name": "operator",
          "type": "address"
        },
        {
          "indexed": true,
          "internalType": "address",
          "name": "from",
          "type": "address"
        },
        {
          "indexed": true,
          "internalType": "address",
          "name": "to",
          "type": "address"
        },
        {
          "indexed": false,
          "internalType": "uint256",
          "name": "id",
          "type": "uint256"
        },
        {
          "indexed": false,
          "internalType": "uint256",
          "name": "value",
          "type": "uint256"
        }
      ],
      "name": "TransferSingle",
      "type": "event"
    },
    {
      "inputs": [
        {
          "internalType": "address",
          "name": "to",
          "type": "address"
        },
        {
          "internalType": "uint256",
          "name": "id",
          "type": "uint256"
        },
        {
          "internalType": "uint256",
          "name": "amount",
          "type": "uint256"
        },
        {
          "internalType": "bytes",
          "name": "data",
          "type": "bytes"
        }
      ],
      "name": "mintByFacet",
      "outputs": [],
      "stateMutability": "nonpayable",
      "type": "function"
    }
  ],
  "transactionHash": "0x88ac39dd1e74f547a663c6c147c05b9bdb6e320abc080c4042100cccf92ce2d5",
  "args": [],
  "numDeployments": 1,
  "solcInputHash": "6941de28b1d1c82e9db601fc3d7f335a",
  "bytecode": "0x608060405234801561001057600080fd5b506103ac806100206000396000f3fe608060405234801561001057600080fd5b506004361061002b5760003560e01c8063b164884b14610030575b600080fd5b61004361003e366004610257565b610045565b005b303314610065576040516328be0e2160e21b815260040160405180910390fd5b61007184848484610077565b50505050565b60006100816101b0565b90506001600160a01b0385166100e75760405162461bcd60e51b815260206004820152602160248201527f455243313135353a206d696e7420746f20746865207a65726f206164647265736044820152607360f81b606482015260840160405180910390fd5b610107816000876100f7886101f6565b610100886101f6565b5050505050565b60008481527f93d5f1e3ad87f1fc4313940b5c964ec29137b7e8ef5c0b76f7e2c77f7f0e0324602090815260408083206001600160a01b03891684529091528120805485929061015890849061033a565b909155505060408051858152602081018590526001600160a01b0380881692600092918516917fc3d58168c5ae7397731d063d5bbf3d657854427343f4c083240f7aacaa2d0f62910160405180910390a45050505050565b7f8cb501c3289f0b2347f4ba94b88fa355a4cd5266219cf6f4b7e5f7f3518beee5546000906001600160a01b031633036101f1575060131936013560601c90565b503390565b6040805160018082528183019092526060916000919060208083019080368337019050509050828160008151811061023057610230610360565b602090810291909101015292915050565b634e487b7160e01b600052604160045260246000fd5b6000806000806080858703121561026d57600080fd5b84356001600160a01b038116811461028457600080fd5b93506020850135925060408501359150606085013567ffffffffffffffff808211156102af57600080fd5b818701915087601f8301126102c357600080fd5b8135818111156102d5576102d5610241565b604051601f8201601f19908116603f011681019083821181831017156102fd576102fd610241565b816040528281528a602084870101111561031657600080fd5b82602086016020830137600060208483010152809550505050505092959194509250565b6000821982111561035b57634e487b7160e01b600052601160045260246000fd5b500190565b634e487b7160e01b600052603260045260246000fdfea2646970667358221220425d4c7c621ffba852dbfdbaab2454fde2af1370a867138350c539a836fa76fd64736f6c634300080f0033",
  "devdoc": {
    "details": "Extension of {ERC1155} that allows other facets from the diamond to mint tokens.",
    "kind": "dev",
    "methods": {
      "mintByFacet(address,uint256,uint256,bytes)": {
        "details": "Creates `amount` new tokens for `to`, of token type `id`. See {ERC1155-_mint}. Requirements: - the caller must be diamond itself (other facets)."
      }
    },
    "version": 1
  },
  "userdoc": {
    "errors": {
      "SenderIsNotSelf()": [
        {
          "notice": "The caller must be the current contract itself."
        }
      ]
    },
    "kind": "user",
    "methods": {},
    "version": 1
  },
  "storageLayout": {
    "storage": [],
    "types": null
  }
}