{
  "address": "0x990dF68562643CCB5e4683cAeD6EAf20ae0EbD6b",
  "abi": [
    {
      "inputs": [],
      "name": "SenderIsNotSelf",
      "type": "error"
    },
    {
      "anonymous": false,
      "inputs": [
        {
          "indexed": true,
          "internalType": "address",
          "name": "account",
          "type": "address"
        },
        {
          "indexed": true,
          "internalType": "address",
          "name": "operator",
          "type": "address"
        },
        {
          "indexed": false,
          "internalType": "bool",
          "name": "approved",
          "type": "bool"
        }
      ],
      "name": "ApprovalForAll",
      "type": "event"
    },
    {
      "anonymous": false,
      "inputs": [
        {
          "indexed": true,
          "internalType": "address",
          "name": "previousOwner",
          "type": "address"
        },
        {
          "indexed": true,
          "internalType": "address",
          "name": "newOwner",
          "type": "address"
        }
      ],
      "name": "OwnershipTransferred",
      "type": "event"
    },
    {
      "anonymous": false,
      "inputs": [
        {
          "indexed": true,
          "internalType": "address",
          "name": "operator",
          "type": "address"
        },
        {
          "indexed": true,
          "internalType": "address",
          "name": "from",
          "type": "address"
        },
        {
          "indexed": true,
          "internalType": "address",
          "name": "to",
          "type": "address"
        },
        {
          "indexed": false,
          "internalType": "uint256[]",
          "name": "ids",
          "type": "uint256[]"
        },
        {
          "indexed": false,
          "internalType": "uint256[]",
          "name": "values",
          "type": "uint256[]"
        }
      ],
      "name": "TransferBatch",
      "type": "event"
    },
    {
      "anonymous": false,
      "inputs": [
        {
          "indexed": true,
          "internalType": "address",
          "name": "operator",
          "type": "address"
        },
        {
          "indexed": true,
          "internalType": "address",
          "name": "from",
          "type": "address"
        },
        {
          "indexed": true,
          "internalType": "address",
          "name": "to",
          "type": "address"
        },
        {
          "indexed": false,
          "internalType": "uint256",
          "name": "id",
          "type": "uint256"
        },
        {
          "indexed": false,
          "internalType": "uint256",
          "name": "value",
          "type": "uint256"
        }
      ],
      "name": "TransferSingle",
      "type": "event"
    },
    {
      "inputs": [
        {
          "internalType": "address",
          "name": "account",
          "type": "address"
        },
        {
          "internalType": "uint256",
          "name": "id",
          "type": "uint256"
        }
      ],
      "name": "balanceOf",
      "outputs": [
        {
          "internalType": "uint256",
          "name": "",
          "type": "uint256"
        }
      ],
      "stateMutability": "view",
      "type": "function"
    },
    {
      "inputs": [
        {
          "internalType": "address[]",
          "name": "accounts",
          "type": "address[]"
        },
        {
          "internalType": "uint256[]",
          "name": "ids",
          "type": "uint256[]"
        }
      ],
      "name": "balanceOfBatch",
      "outputs": [
        {
          "internalType": "uint256[]",
          "name": "",
          "type": "uint256[]"
        }
      ],
      "stateMutability": "view",
      "type": "function"
    },
    {
      "inputs": [
        {
          "internalType": "uint256",
          "name": "id",
          "type": "uint256"
        }
      ],
      "name": "exists",
      "outputs": [
        {
          "internalType": "bool",
          "name": "",
          "type": "bool"
        }
      ],
      "stateMutability": "view",
      "type": "function"
    },
    {
      "inputs": [
        {
          "internalType": "address",
          "name": "account",
          "type": "address"
        },
        {
          "internalType": "address",
          "name": "operator",
          "type": "address"
        }
      ],
      "name": "isApprovedForAll",
      "outputs": [
        {
          "internalType": "bool",
          "name": "",
          "type": "bool"
        }
      ],
      "stateMutability": "view",
      "type": "function"
    },
    {
      "inputs": [
        {
          "internalType": "address",
          "name": "account",
          "type": "address"
        },
        {
          "internalType": "uint256[]",
          "name": "ticketTokenIds",
          "type": "uint256[]"
        }
      ],
      "name": "locked",
      "outputs": [
        {
          "internalType": "uint256[]",
          "name": "",
          "type": "uint256[]"
        }
      ],
      "stateMutability": "view",
      "type": "function"
    },
    {
      "inputs": [
        {
          "internalType": "address",
          "name": "account",
          "type": "address"
        },
        {
          "internalType": "uint256",
          "name": "tokenId",
          "type": "uint256"
        }
      ],
      "name": "locked",
      "outputs": [
        {
          "internalType": "uint256",
          "name": "",
          "type": "uint256"
        }
      ],
      "stateMutability": "view",
      "type": "function"
    },
    {
      "inputs": [
        {
          "internalType": "uint256",
          "name": "id",
          "type": "uint256"
        }
      ],
      "name": "maxSupply",
      "outputs": [
        {
          "internalType": "uint256",
          "name": "",
          "type": "uint256"
        }
      ],
      "stateMutability": "view",
      "type": "function"
    },
    {
      "inputs": [
        {
          "internalType": "address",
          "name": "to",
          "type": "address"
        },
        {
          "internalType": "uint256",
          "name": "id",
          "type": "uint256"
        },
        {
          "internalType": "uint256",
          "name": "amount",
          "type": "uint256"
        },
        {
          "internalType": "bytes",
          "name": "data",
          "type": "bytes"
        }
      ],
      "name": "mintByFacet",
      "outputs": [],
      "stateMutability": "nonpayable",
      "type": "function"
    },
    {
      "inputs": [
        {
          "internalType": "address",
          "name": "to",
          "type": "address"
        },
        {
          "internalType": "uint256",
          "name": "id",
          "type": "uint256"
        },
        {
          "internalType": "uint256",
          "name": "amount",
          "type": "uint256"
        },
        {
          "internalType": "bytes",
          "name": "data",
          "type": "bytes"
        }
      ],
      "name": "mintByOwner",
      "outputs": [],
      "stateMutability": "nonpayable",
      "type": "function"
    },
    {
      "inputs": [
        {
          "internalType": "address",
          "name": "from",
          "type": "address"
        },
        {
          "internalType": "address",
          "name": "to",
          "type": "address"
        },
        {
          "internalType": "uint256[]",
          "name": "ids",
          "type": "uint256[]"
        },
        {
          "internalType": "uint256[]",
          "name": "amounts",
          "type": "uint256[]"
        },
        {
          "internalType": "bytes",
          "name": "data",
          "type": "bytes"
        }
      ],
      "name": "safeBatchTransferFrom",
      "outputs": [],
      "stateMutability": "nonpayable",
      "type": "function"
    },
    {
      "inputs": [
        {
          "internalType": "address",
          "name": "from",
          "type": "address"
        },
        {
          "internalType": "address",
          "name": "to",
          "type": "address"
        },
        {
          "internalType": "uint256",
          "name": "id",
          "type": "uint256"
        },
        {
          "internalType": "uint256",
          "name": "amount",
          "type": "uint256"
        },
        {
          "internalType": "bytes",
          "name": "data",
          "type": "bytes"
        }
      ],
      "name": "safeTransferFrom",
      "outputs": [],
      "stateMutability": "nonpayable",
      "type": "function"
    },
    {
      "inputs": [
        {
          "internalType": "address",
          "name": "operator",
          "type": "address"
        },
        {
          "internalType": "bool",
          "name": "status",
          "type": "bool"
        }
      ],
      "name": "setApprovalForAll",
      "outputs": [],
      "stateMutability": "nonpayable",
      "type": "function"
    },
    {
      "inputs": [
        {
          "internalType": "uint256",
          "name": "id",
          "type": "uint256"
        }
      ],
      "name": "totalSupply",
      "outputs": [
        {
          "internalType": "uint256",
          "name": "",
          "type": "uint256"
        }
      ],
      "stateMutability": "view",
      "type": "function"
    }
  ],
  "transactionHash": "0xbf08f460250beaf9cb5b960ccf43afb9432b90d3b020fbfdd8228303946e2df3",
  "args": [],
  "numDeployments": 2,
  "solcInputHash": "91d6e3f6f6454e9c575fbf169d898653",
  "bytecode": "0x608060405234801561001057600080fd5b50611c61806100206000396000f3fe608060405234801561001057600080fd5b50600436106100ae5760003560e01c8062fdd58e146100b35780632eb2c2d6146100d95780634e1273f4146100ee5780634f558e791461010e5780635135bec114610131578063869f759414610144578063a22cb46514610157578063a91a988a1461016a578063b164884b1461017d578063bd85b03914610190578063bf7bab73146101a3578063e985e9c5146101b6578063f242432a146101c9575b600080fd5b6100c66100c1366004611392565b6101dc565b6040519081526020015b60405180910390f35b6100ec6100e7366004611505565b6101ef565b005b6101016100fc3660046115ae565b61025b565b6040516100d091906116b3565b61012161011c3660046116c6565b61044d565b60405190151581526020016100d0565b6100ec61013f3660046116df565b61045e565b6100c66101523660046116c6565b6104e9565b6100ec61016536600461173f565b6104f4565b61010161017836600461177b565b6105f2565b6100ec61018b3660046116df565b610696565b6100c661019e3660046116c6565b6106b6565b6100c66101b1366004611392565b6106c1565b6101216101c4366004611800565b6106cd565b6100ec6101d7366004611833565b61070a565b60006101e88383610765565b9392505050565b60006101f96107ff565b9050806001600160a01b0316866001600160a01b03161480610220575061022086826106cd565b6102455760405162461bcd60e51b815260040161023c90611897565b60405180910390fd5b610253818787878787610848565b505050505050565b606081518351146102c05760405162461bcd60e51b815260206004820152602960248201527f455243313135353a206163636f756e747320616e6420696473206c656e677468604482015268040dad2e6dac2e8c6d60bb1b606482015260840161023c565b60006102ca610864565b6000019050600084516001600160401b038111156102ea576102ea6113bc565b604051908082528060200260200182016040528015610313578160200160208202803683370190505b50905060005b85518110156104445760006001600160a01b031686828151811061033f5761033f6118e0565b60200260200101516001600160a01b0316036103b75760405162461bcd60e51b815260206004820152603160248201527f455243313135353a2062617463682062616c616e636520717565727920666f7260448201527020746865207a65726f206164647265737360781b606482015260840161023c565b8260008683815181106103cc576103cc6118e0565b6020026020010151815260200190815260200160002060008783815181106103f6576103f66118e0565b60200260200101516001600160a01b03166001600160a01b0316815260200190815260200160002054828281518110610431576104316118e0565b6020908102919091010152600101610319565b50949350505050565b600061045882610888565b92915050565b7fc0ea367cb0174dd5521cd2372c76f8c13e6c1f832c71f1d6e0cbc185c9cc8ed4546001600160a01b031633146104d75760405162461bcd60e51b815260206004820152601d60248201527f4f776e61626c653a2073656e646572206d757374206265206f776e6572000000604482015260640161023c565b6104e3848484846108aa565b50505050565b6000610458826109c7565b60006104fe6107ff565b9050826001600160a01b0316816001600160a01b0316036105735760405162461bcd60e51b815260206004820152602960248201527f455243313135353a2073657474696e6720617070726f76616c20737461747573604482015268103337b91039b2b63360b91b606482015260840161023c565b8161057c610864565b6001600160a01b0383811660008181526001939093016020908152604080852093891680865293825293849020805460ff1916951515959095179094559151851515815290927f17307eab39ab6107e8899845ad3d59bd9653f200f220920489ca2b5937696c31910160405180910390a3505050565b60606000826001600160401b0381111561060e5761060e6113bc565b604051908082528060200260200182016040528015610637578160200160208202803683370190505b50905060005b83811015610444576106678686868481811061065b5761065b6118e0565b905060200201356109e5565b828281518110610679576106796118e0565b60209081029190910101528061068e8161190c565b91505061063d565b3033146104d7576040516328be0e2160e21b815260040160405180910390fd5b600061045882610a1a565b60006101e883836109e5565b60006106d7610864565b6001600160a01b039384166000908152600191909101602090815260408083209490951682529290925250205460ff1690565b60006107146107ff565b9050806001600160a01b0316866001600160a01b0316148061073b575061073b86826106cd565b6107575760405162461bcd60e51b815260040161023c90611897565b610253818787878787610a35565b60006001600160a01b0383166107d15760405162461bcd60e51b815260206004820152602b60248201527f455243313135353a2062616c616e636520717565727920666f7220746865207a60448201526a65726f206164647265737360a81b606482015260840161023c565b6107d9610864565b6000928352602090815260408084206001600160a01b0395909516845293905250205490565b7f8cb501c3289f0b2347f4ba94b88fa355a4cd5266219cf6f4b7e5f7f3518beee5546000906001600160a01b03163303610840575060131936013560601c90565b503390565b90565b610856868686868686610a51565b610253868686868686610c35565b7f93d5f1e3ad87f1fc4313940b5c964ec29137b7e8ef5c0b76f7e2c77f7f0e032490565b600080610893610da0565b600093845260205260409092205491909111919050565b60006108b46107ff565b90506001600160a01b0385166109165760405162461bcd60e51b815260206004820152602160248201527f455243313135353a206d696e7420746f20746865207a65726f206164647265736044820152607360f81b606482015260840161023c565b6109358160008761092688610dc4565b61092f88610dc4565b87610e0f565b8261093e610864565b6000868152602091825260408082206001600160a01b038a168352909252908120805490919061096f908490611925565b909155505060408051858152602081018590526001600160a01b0380881692600092918516917fc3d58168c5ae7397731d063d5bbf3d657854427343f4c083240f7aacaa2d0f62910160405180910390a45050505050565b60006109d1610da0565b600092835260010160205250604090205490565b6000806109f0610e1d565b6001600160a01b038516600090815260209182526040808220868352909252205491505092915050565b6000610a24610da0565b600092835260205250604090205490565b610a43868686868686610e41565b610253868686868686610f61565b6001600160a01b038416610a775760405162461bcd60e51b815260040161023c9061193d565b8151835114610ad95760405162461bcd60e51b815260206004820152602860248201527f455243313135353a2069647320616e6420616d6f756e7473206c656e677468206044820152670dad2e6dac2e8c6d60c31b606482015260840161023c565b610ae7868686868686610e0f565b6000610af1610864565b905060005b8451811015610bd4576000858281518110610b1357610b136118e0565b602002602001015190506000858381518110610b3157610b316118e0565b602090810291909101810151600084815286835260408082206001600160a01b038e168352909352919091205490915081811015610b815760405162461bcd60e51b815260040161023c90611982565b6000838152602086815260408083206001600160a01b038e811685529252808320938590039093558a168152908120805460019590950194839290610bc7908490611925565b90915550610af692505050565b50846001600160a01b0316866001600160a01b0316886001600160a01b03167f4a39dc06d4c0dbc64b70af90fd698a233a518aa5d07e595d983b8c0526c8f7fb8787604051610c249291906119cd565b60405180910390a450505050505050565b610c47846001600160a01b0316611023565b156102535760405163bc197c8160e01b81526001600160a01b0385169063bc197c8190610c809089908990889088908890600401611a48565b6020604051808303816000875af1925050508015610cbb575060408051601f3d908101601f19168201909252610cb891810190611aa6565b60015b610d6757610cc7611ad0565b806308c379a003610d005750610cdb611aeb565b80610ce65750610d02565b8060405162461bcd60e51b815260040161023c9190611b74565b505b60405162461bcd60e51b815260206004820152603460248201527f455243313135353a207472616e7366657220746f206e6f6e20455243313135356044820152732932b1b2b4bb32b91034b6b83632b6b2b73a32b960611b606482015260840161023c565b6001600160e01b0319811663bc197c8160e01b14610d975760405162461bcd60e51b815260040161023c90611b87565b50505050505050565b7fbef313cd0145ce9ea5e5736c296fdd12e5b8495f1ac6754a82f66705a39baf2090565b60408051600180825281830190925260609160009190602080830190803683370190505090508281600081518110610dfe57610dfe6118e0565b602090810291909101015292915050565b610253868686868686611032565b7ff169d830093e543c5e2a4df1e47aae23a77e62aa0d6ca19e1e33e6e22e526f9f90565b6001600160a01b038416610e675760405162461bcd60e51b815260040161023c9061193d565b610e85868686610e7687610dc4565b610e7f87610dc4565b86610e0f565b6000610e8f610864565b6000858152602082815260408083206001600160a01b038b16845290915290205490915083811015610ed35760405162461bcd60e51b815260040161023c90611982565b6000858152602083815260408083206001600160a01b038b81168552925280832093879003909355871681529081208054859290610f12908490611925565b909155505060408051858152602081018590526001600160a01b038088169289821692918b16917fc3d58168c5ae7397731d063d5bbf3d657854427343f4c083240f7aacaa2d0f629101610c24565b610f73846001600160a01b0316611023565b156102535760405163f23a6e6160e01b81526001600160a01b0385169063f23a6e6190610fac9089908990889088908890600401611bcf565b6020604051808303816000875af1925050508015610fe7575060408051601f3d908101601f19168201909252610fe491810190611aa6565b60015b610ff357610cc7611ad0565b6001600160e01b0319811663f23a6e6160e01b14610d975760405162461bcd60e51b815260040161023c90611b87565b6001600160a01b03163b151590565b60005b835181101561112757828181518110611050576110506118e0565b6020026020010151611060610e1d565b6000016000886001600160a01b03166001600160a01b03168152602001908152602001600020600086848151811061109a5761109a6118e0565b60200260200101518152602001908152602001600020546110d4888785815181106110c7576110c76118e0565b6020026020010151610765565b6110de9190611c14565b10156111155760405162461bcd60e51b81526020600482015260066024820152651313d0d2d15160d21b604482015260640161023c565b8061111f8161190c565b915050611035565b506102538686868686866001600160a01b03851661126f576000611149610da0565b90506000611155610da0565b600101905060005b855181101561126b57848181518110611178576111786118e0565b6020026020010151836000888481518110611195576111956118e0565b6020026020010151815260200190815260200160002060008282546111ba9190611925565b925050819055508160008783815181106111d6576111d66118e0565b6020026020010151815260200190815260200160002054836000888481518110611202576112026118e0565b6020026020010151815260200190815260200160002054111561125b5760405162461bcd60e51b81526020600482015260116024820152700a6aaa0a098b2be8ab0868a8a88be9a82b607b1b604482015260640161023c565b6112648161190c565b905061115d565b5050505b6001600160a01b038416610253576000611287610da0565b905060005b845181101561136c5760008582815181106112a9576112a96118e0565b6020026020010151905060008583815181106112c7576112c76118e0565b602002602001015190506000846000848152602001908152602001600020549050818110156113495760405162461bcd60e51b815260206004820152602860248201527f455243313135353a206275726e20616d6f756e74206578636565647320746f74604482015267616c537570706c7960c01b606482015260840161023c565b600092835260208590526040909220910390556113658161190c565b905061128c565b5050505050505050565b80356001600160a01b038116811461138d57600080fd5b919050565b600080604083850312156113a557600080fd5b6113ae83611376565b946020939093013593505050565b634e487b7160e01b600052604160045260246000fd5b601f8201601f191681016001600160401b03811182821017156113f7576113f76113bc565b6040525050565b60006001600160401b03821115611417576114176113bc565b5060051b60200190565b600082601f83011261143257600080fd5b8135602061143f826113fe565b60405161144c82826113d2565b83815260059390931b850182019282810191508684111561146c57600080fd5b8286015b848110156114875780358352918301918301611470565b509695505050505050565b600082601f8301126114a357600080fd5b81356001600160401b038111156114bc576114bc6113bc565b6040516114d3601f8301601f1916602001826113d2565b8181528460208386010111156114e857600080fd5b816020850160208301376000918101602001919091529392505050565b600080600080600060a0868803121561151d57600080fd5b61152686611376565b945061153460208701611376565b935060408601356001600160401b038082111561155057600080fd5b61155c89838a01611421565b9450606088013591508082111561157257600080fd5b61157e89838a01611421565b9350608088013591508082111561159457600080fd5b506115a188828901611492565b9150509295509295909350565b600080604083850312156115c157600080fd5b82356001600160401b03808211156115d857600080fd5b818501915085601f8301126115ec57600080fd5b813560206115f9826113fe565b60405161160682826113d2565b83815260059390931b850182019282810191508984111561162657600080fd5b948201945b8386101561164b5761163c86611376565b8252948201949082019061162b565b9650508601359250508082111561166157600080fd5b5061166e85828601611421565b9150509250929050565b600081518084526020808501945080840160005b838110156116a85781518752958201959082019060010161168c565b509495945050505050565b6020815260006101e86020830184611678565b6000602082840312156116d857600080fd5b5035919050565b600080600080608085870312156116f557600080fd5b6116fe85611376565b9350602085013592506040850135915060608501356001600160401b0381111561172757600080fd5b61173387828801611492565b91505092959194509250565b6000806040838503121561175257600080fd5b61175b83611376565b91506020830135801515811461177057600080fd5b809150509250929050565b60008060006040848603121561179057600080fd5b61179984611376565b925060208401356001600160401b03808211156117b557600080fd5b818601915086601f8301126117c957600080fd5b8135818111156117d857600080fd5b8760208260051b85010111156117ed57600080fd5b6020830194508093505050509250925092565b6000806040838503121561181357600080fd5b61181c83611376565b915061182a60208401611376565b90509250929050565b600080600080600060a0868803121561184b57600080fd5b61185486611376565b945061186260208701611376565b9350604086013592506060860135915060808601356001600160401b0381111561188b57600080fd5b6115a188828901611492565b60208082526029908201527f455243313135353a2063616c6c6572206973206e6f74206f776e6572206e6f7260408201526808185c1c1c9bdd995960ba1b606082015260800190565b634e487b7160e01b600052603260045260246000fd5b634e487b7160e01b600052601160045260246000fd5b60006001820161191e5761191e6118f6565b5060010190565b60008219821115611938576119386118f6565b500190565b60208082526025908201527f455243313135353a207472616e7366657220746f20746865207a65726f206164604082015264647265737360d81b606082015260800190565b6020808252602b908201527f455243313135353a20696e73756666696369656e742062616c616e636573206660408201526a37b9103a3930b739b332b960a91b606082015260800190565b6040815260006119e06040830185611678565b82810360208401526119f28185611678565b95945050505050565b6000815180845260005b81811015611a2157602081850181015186830182015201611a05565b81811115611a33576000602083870101525b50601f01601f19169290920160200192915050565b6001600160a01b0386811682528516602082015260a060408201819052600090611a7490830186611678565b8281036060840152611a868186611678565b90508281036080840152611a9a81856119fb565b98975050505050505050565b600060208284031215611ab857600080fd5b81516001600160e01b0319811681146101e857600080fd5b600060033d11156108455760046000803e5060005160e01c90565b600060443d1015611af95790565b6040516003193d81016004833e81513d6001600160401b038160248401118184111715611b2857505050505090565b8285019150815181811115611b405750505050505090565b843d8701016020828501011115611b5a5750505050505090565b611b69602082860101876113d2565b509095945050505050565b6020815260006101e860208301846119fb565b60208082526028908201527f455243313135353a204552433131353552656365697665722072656a656374656040820152676420746f6b656e7360c01b606082015260800190565b6001600160a01b03868116825285166020820152604081018490526060810183905260a060808201819052600090611c09908301846119fb565b979650505050505050565b600082821015611c2657611c266118f6565b50039056fea26469706673582212209465d5ae38c158432a6d18d527f7e95980a1a9c26dc04310f1473d1f7551212564736f6c634300080f0033",
  "devdoc": {
    "kind": "dev",
    "methods": {
      "balanceOf(address,uint256)": {
        "params": {
          "account": "address to query",
          "id": "token to query"
        },
        "returns": {
          "_0": "token balance"
        }
      },
      "balanceOfBatch(address[],uint256[])": {
        "params": {
          "accounts": "addresss to query",
          "ids": "tokens to query"
        },
        "returns": {
          "_0": "token balances"
        }
      },
      "exists(uint256)": {
        "details": "Indicates whether any token exist with a given id, or not."
      },
      "isApprovedForAll(address,address)": {
        "params": {
          "account": "address to query for approval granted",
          "operator": "address to query for approval received"
        },
        "returns": {
          "_0": "whether operator is approved to spend tokens held by account"
        }
      },
      "maxSupply(uint256)": {
        "details": "Maximum amount of tokens possible to exist for a given id."
      },
      "mintByFacet(address,uint256,uint256,bytes)": {
        "details": "Creates `amount` new tokens for `to`, of token type `id`. See {ERC1155-_mint}. Requirements: - the caller must be diamond itself (other facets)."
      },
      "mintByOwner(address,uint256,uint256,bytes)": {
        "details": "Creates `amount` new tokens for `to`, of token type `id`. See {ERC1155-_mint}. Requirements: - the caller must be diamond owner."
      },
      "safeBatchTransferFrom(address,address,uint256[],uint256[],bytes)": {
        "params": {
          "amounts": "list of quantities of tokens to transfer",
          "data": "data payload",
          "from": "sender of tokens",
          "ids": "list of token IDs",
          "to": "receiver of tokens"
        }
      },
      "safeTransferFrom(address,address,uint256,uint256,bytes)": {
        "params": {
          "amount": "quantity of tokens to transfer",
          "data": "data payload",
          "from": "sender of tokens",
          "id": "token ID",
          "to": "receiver of tokens"
        }
      },
      "setApprovalForAll(address,bool)": {
        "params": {
          "operator": "address whose approval status to update",
          "status": "whether operator should be considered approved"
        }
      },
      "totalSupply(uint256)": {
        "details": "Total amount of tokens in with a given id."
      }
    },
    "version": 1
  },
  "userdoc": {
    "errors": {
      "SenderIsNotSelf()": [
        {
          "notice": "The caller must be the current contract itself."
        }
      ]
    },
    "kind": "user",
    "methods": {
      "balanceOf(address,uint256)": {
        "notice": "query the balance of given token held by given address"
      },
      "balanceOfBatch(address[],uint256[])": {
        "notice": "query the balances of given tokens held by given addresses"
      },
      "isApprovedForAll(address,address)": {
        "notice": "query approval status of given operator with respect to given address"
      },
      "safeBatchTransferFrom(address,address,uint256[],uint256[],bytes)": {
        "notice": "transfer batch of tokens between given addresses, checking for ERC1155Receiver implementation if applicable"
      },
      "safeTransferFrom(address,address,uint256,uint256,bytes)": {
        "notice": "transfer tokens between given addresses, checking for ERC1155Receiver implementation if applicable"
      },
      "setApprovalForAll(address,bool)": {
        "notice": "grant approval to or revoke approval from given operator to spend held tokens"
      }
    },
    "version": 1
  },
  "storageLayout": {
    "storage": [],
    "types": null
  }
}