{
  "address": "0xBc48ecc1A54b7343B005E75BddA3Dc995c5CEE5c",
  "abi": [
    {
      "inputs": [],
      "name": "SenderIsNotSelf",
      "type": "error"
    },
    {
      "anonymous": false,
      "inputs": [
        {
          "indexed": true,
          "internalType": "address",
          "name": "account",
          "type": "address"
        },
        {
          "indexed": true,
          "internalType": "address",
          "name": "operator",
          "type": "address"
        },
        {
          "indexed": false,
          "internalType": "bool",
          "name": "approved",
          "type": "bool"
        }
      ],
      "name": "ApprovalForAll",
      "type": "event"
    },
    {
      "anonymous": false,
      "inputs": [
        {
          "indexed": true,
          "internalType": "address",
          "name": "previousOwner",
          "type": "address"
        },
        {
          "indexed": true,
          "internalType": "address",
          "name": "newOwner",
          "type": "address"
        }
      ],
      "name": "OwnershipTransferred",
      "type": "event"
    },
    {
      "anonymous": false,
      "inputs": [
        {
          "indexed": true,
          "internalType": "address",
          "name": "operator",
          "type": "address"
        },
        {
          "indexed": true,
          "internalType": "address",
          "name": "from",
          "type": "address"
        },
        {
          "indexed": true,
          "internalType": "address",
          "name": "to",
          "type": "address"
        },
        {
          "indexed": false,
          "internalType": "uint256[]",
          "name": "ids",
          "type": "uint256[]"
        },
        {
          "indexed": false,
          "internalType": "uint256[]",
          "name": "values",
          "type": "uint256[]"
        }
      ],
      "name": "TransferBatch",
      "type": "event"
    },
    {
      "anonymous": false,
      "inputs": [
        {
          "indexed": true,
          "internalType": "address",
          "name": "operator",
          "type": "address"
        },
        {
          "indexed": true,
          "internalType": "address",
          "name": "from",
          "type": "address"
        },
        {
          "indexed": true,
          "internalType": "address",
          "name": "to",
          "type": "address"
        },
        {
          "indexed": false,
          "internalType": "uint256",
          "name": "id",
          "type": "uint256"
        },
        {
          "indexed": false,
          "internalType": "uint256",
          "name": "value",
          "type": "uint256"
        }
      ],
      "name": "TransferSingle",
      "type": "event"
    },
    {
      "inputs": [
        {
          "internalType": "address",
          "name": "account",
          "type": "address"
        },
        {
          "internalType": "uint256",
          "name": "id",
          "type": "uint256"
        }
      ],
      "name": "balanceOf",
      "outputs": [
        {
          "internalType": "uint256",
          "name": "",
          "type": "uint256"
        }
      ],
      "stateMutability": "view",
      "type": "function"
    },
    {
      "inputs": [
        {
          "internalType": "address[]",
          "name": "accounts",
          "type": "address[]"
        },
        {
          "internalType": "uint256[]",
          "name": "ids",
          "type": "uint256[]"
        }
      ],
      "name": "balanceOfBatch",
      "outputs": [
        {
          "internalType": "uint256[]",
          "name": "",
          "type": "uint256[]"
        }
      ],
      "stateMutability": "view",
      "type": "function"
    },
    {
      "inputs": [
        {
          "internalType": "uint256",
          "name": "id",
          "type": "uint256"
        }
      ],
      "name": "exists",
      "outputs": [
        {
          "internalType": "bool",
          "name": "",
          "type": "bool"
        }
      ],
      "stateMutability": "view",
      "type": "function"
    },
    {
      "inputs": [
        {
          "internalType": "address",
          "name": "account",
          "type": "address"
        },
        {
          "internalType": "address",
          "name": "operator",
          "type": "address"
        }
      ],
      "name": "isApprovedForAll",
      "outputs": [
        {
          "internalType": "bool",
          "name": "",
          "type": "bool"
        }
      ],
      "stateMutability": "view",
      "type": "function"
    },
    {
      "inputs": [
        {
          "internalType": "address",
          "name": "account",
          "type": "address"
        },
        {
          "internalType": "uint256[]",
          "name": "ticketTokenIds",
          "type": "uint256[]"
        }
      ],
      "name": "locked",
      "outputs": [
        {
          "internalType": "uint256[]",
          "name": "",
          "type": "uint256[]"
        }
      ],
      "stateMutability": "view",
      "type": "function"
    },
    {
      "inputs": [
        {
          "internalType": "address",
          "name": "account",
          "type": "address"
        },
        {
          "internalType": "uint256",
          "name": "tokenId",
          "type": "uint256"
        }
      ],
      "name": "locked",
      "outputs": [
        {
          "internalType": "uint256",
          "name": "",
          "type": "uint256"
        }
      ],
      "stateMutability": "view",
      "type": "function"
    },
    {
      "inputs": [
        {
          "internalType": "uint256",
          "name": "id",
          "type": "uint256"
        }
      ],
      "name": "maxSupply",
      "outputs": [
        {
          "internalType": "uint256",
          "name": "",
          "type": "uint256"
        }
      ],
      "stateMutability": "view",
      "type": "function"
    },
    {
      "inputs": [
        {
          "internalType": "address",
          "name": "to",
          "type": "address"
        },
        {
          "internalType": "uint256",
          "name": "id",
          "type": "uint256"
        },
        {
          "internalType": "uint256",
          "name": "amount",
          "type": "uint256"
        },
        {
          "internalType": "bytes",
          "name": "data",
          "type": "bytes"
        }
      ],
      "name": "mintByFacet",
      "outputs": [],
      "stateMutability": "nonpayable",
      "type": "function"
    },
    {
      "inputs": [
        {
          "internalType": "address",
          "name": "to",
          "type": "address"
        },
        {
          "internalType": "uint256",
          "name": "id",
          "type": "uint256"
        },
        {
          "internalType": "uint256",
          "name": "amount",
          "type": "uint256"
        },
        {
          "internalType": "bytes",
          "name": "data",
          "type": "bytes"
        }
      ],
      "name": "mintByOwner",
      "outputs": [],
      "stateMutability": "nonpayable",
      "type": "function"
    },
    {
      "inputs": [
        {
          "internalType": "address",
          "name": "from",
          "type": "address"
        },
        {
          "internalType": "address",
          "name": "to",
          "type": "address"
        },
        {
          "internalType": "uint256[]",
          "name": "ids",
          "type": "uint256[]"
        },
        {
          "internalType": "uint256[]",
          "name": "amounts",
          "type": "uint256[]"
        },
        {
          "internalType": "bytes",
          "name": "data",
          "type": "bytes"
        }
      ],
      "name": "safeBatchTransferFrom",
      "outputs": [],
      "stateMutability": "nonpayable",
      "type": "function"
    },
    {
      "inputs": [
        {
          "internalType": "address",
          "name": "from",
          "type": "address"
        },
        {
          "internalType": "address",
          "name": "to",
          "type": "address"
        },
        {
          "internalType": "uint256",
          "name": "id",
          "type": "uint256"
        },
        {
          "internalType": "uint256",
          "name": "amount",
          "type": "uint256"
        },
        {
          "internalType": "bytes",
          "name": "data",
          "type": "bytes"
        }
      ],
      "name": "safeTransferFrom",
      "outputs": [],
      "stateMutability": "nonpayable",
      "type": "function"
    },
    {
      "inputs": [
        {
          "internalType": "address",
          "name": "operator",
          "type": "address"
        },
        {
          "internalType": "bool",
          "name": "status",
          "type": "bool"
        }
      ],
      "name": "setApprovalForAll",
      "outputs": [],
      "stateMutability": "nonpayable",
      "type": "function"
    },
    {
      "inputs": [
        {
          "internalType": "uint256",
          "name": "id",
          "type": "uint256"
        }
      ],
      "name": "totalSupply",
      "outputs": [
        {
          "internalType": "uint256",
          "name": "",
          "type": "uint256"
        }
      ],
      "stateMutability": "view",
      "type": "function"
    }
  ],
  "transactionHash": "0x74b19e5ca152251ec08f02162d529c67081f15c801e2a8fae246de8d7f29af69",
  "args": [],
  "numDeployments": 3,
  "solcInputHash": "af9179e3c4ecac437c7110805c74beb3",
  "bytecode": "0x608060405234801561001057600080fd5b5061202f806100206000396000f3fe608060405234801561001057600080fd5b50600436106100de5760003560e01c8063a22cb4651161008c578063bd85b03911610066578063bd85b039146101c0578063bf7bab73146101d3578063e985e9c5146101e6578063f242432a1461024157600080fd5b8063a22cb46514610187578063a91a988a1461019a578063b164884b146101ad57600080fd5b80634f558e79116100bd5780634f558e791461013e5780635135bec114610161578063869f75941461017457600080fd5b8062fdd58e146100e35780632eb2c2d6146101095780634e1273f41461011e575b600080fd5b6100f66100f1366004611862565b610254565b6040519081526020015b60405180910390f35b61011c6101173660046119d8565b610267565b005b61013161012c366004611a82565b610364565b6040516101009190611b88565b61015161014c366004611b9b565b61058b565b6040519015158152602001610100565b61011c61016f366004611bb4565b6105c2565b6100f6610182366004611b9b565b61064d565b61011c610195366004611c15565b610680565b6101316101a8366004611c51565b6107a0565b61011c6101bb366004611bb4565b610887565b6100f66101ce366004611b9b565b6108c0565b6100f66101e1366004611862565b6108f3565b6101516101f4366004611cd7565b6001600160a01b0391821660009081527f93d5f1e3ad87f1fc4313940b5c964ec29137b7e8ef5c0b76f7e2c77f7f0e03256020908152604080832093909416825291909152205460ff1690565b61011c61024f366004611d0a565b61093b565b60006102608383610a2b565b9392505050565b6000610271610af0565b9050806001600160a01b0316866001600160a01b031614806102d757506001600160a01b0380871660009081527f93d5f1e3ad87f1fc4313940b5c964ec29137b7e8ef5c0b76f7e2c77f7f0e0325602090815260408083209385168352929052205460ff165b61034e5760405162461bcd60e51b815260206004820152602960248201527f455243313135353a2063616c6c6572206973206e6f74206f776e6572206e6f7260448201527f20617070726f766564000000000000000000000000000000000000000000000060648201526084015b60405180910390fd5b61035c818787878787610b39565b505050505050565b606081518351146103dd5760405162461bcd60e51b815260206004820152602960248201527f455243313135353a206163636f756e747320616e6420696473206c656e67746860448201527f206d69736d6174636800000000000000000000000000000000000000000000006064820152608401610345565b82517f93d5f1e3ad87f1fc4313940b5c964ec29137b7e8ef5c0b76f7e2c77f7f0e03249060009067ffffffffffffffff81111561041c5761041c61188c565b604051908082528060200260200182016040528015610445578160200160208202803683370190505b50905060005b85518110156105825760006001600160a01b031686828151811061047157610471611d6f565b60200260200101516001600160a01b0316036104f55760405162461bcd60e51b815260206004820152603160248201527f455243313135353a2062617463682062616c616e636520717565727920666f7260448201527f20746865207a65726f20616464726573730000000000000000000000000000006064820152608401610345565b82600086838151811061050a5761050a611d6f565b60200260200101518152602001908152602001600020600087838151811061053457610534611d6f565b60200260200101516001600160a01b03166001600160a01b031681526020019081526020016000205482828151811061056f5761056f611d6f565b602090810291909101015260010161044b565b50949350505050565b60008181527fbef313cd0145ce9ea5e5736c296fdd12e5b8495f1ac6754a82f66705a39baf20602052604081205415155b92915050565b7fc0ea367cb0174dd5521cd2372c76f8c13e6c1f832c71f1d6e0cbc185c9cc8ed4546001600160a01b0316331461063b5760405162461bcd60e51b815260206004820152601d60248201527f4f776e61626c653a2073656e646572206d757374206265206f776e65720000006044820152606401610345565b61064784848484610b55565b50505050565b60008181527fbef313cd0145ce9ea5e5736c296fdd12e5b8495f1ac6754a82f66705a39baf2160205260408120546105bc565b600061068a610af0565b9050826001600160a01b0316816001600160a01b0316036107135760405162461bcd60e51b815260206004820152602960248201527f455243313135353a2073657474696e6720617070726f76616c2073746174757360448201527f20666f722073656c6600000000000000000000000000000000000000000000006064820152608401610345565b6001600160a01b0381811660008181527f93d5f1e3ad87f1fc4313940b5c964ec29137b7e8ef5c0b76f7e2c77f7f0e03256020908152604080832094881680845294825291829020805460ff1916871515908117909155825190815291517f17307eab39ab6107e8899845ad3d59bd9653f200f220920489ca2b5937696c319281900390910190a3505050565b606060008267ffffffffffffffff8111156107bd576107bd61188c565b6040519080825280602002602001820160405280156107e6578160200160208202803683370190505b50905060005b83811015610582576108588686868481811061080a5761080a611d6f565b905060200201356001600160a01b039190911660009081527ff169d830093e543c5e2a4df1e47aae23a77e62aa0d6ca19e1e33e6e22e526f9f60209081526040808320938352929052205490565b82828151811061086a5761086a611d6f565b60209081029190910101528061087f81611d9b565b9150506107ec565b30331461063b576040517fa2f8388400000000000000000000000000000000000000000000000000000000815260040160405180910390fd5b60008181527fbef313cd0145ce9ea5e5736c296fdd12e5b8495f1ac6754a82f66705a39baf2060205260408120546105bc565b6001600160a01b03821660009081527ff169d830093e543c5e2a4df1e47aae23a77e62aa0d6ca19e1e33e6e22e526f9f60209081526040808320848452909152812054610260565b6000610945610af0565b9050806001600160a01b0316866001600160a01b031614806109ab57506001600160a01b0380871660009081527f93d5f1e3ad87f1fc4313940b5c964ec29137b7e8ef5c0b76f7e2c77f7f0e0325602090815260408083209385168352929052205460ff165b610a1d5760405162461bcd60e51b815260206004820152602960248201527f455243313135353a2063616c6c6572206973206e6f74206f776e6572206e6f7260448201527f20617070726f76656400000000000000000000000000000000000000000000006064820152608401610345565b61035c818787878787610ca5565b60006001600160a01b038316610aa95760405162461bcd60e51b815260206004820152602b60248201527f455243313135353a2062616c616e636520717565727920666f7220746865207a60448201527f65726f20616464726573730000000000000000000000000000000000000000006064820152608401610345565b7f93d5f1e3ad87f1fc4313940b5c964ec29137b7e8ef5c0b76f7e2c77f7f0e03246000928352602090815260408084206001600160a01b0395909516845293905250205490565b7f8cb501c3289f0b2347f4ba94b88fa355a4cd5266219cf6f4b7e5f7f3518beee5546000906001600160a01b03163303610b31575060131936013560601c90565b503390565b90565b610b47868686868686610cc1565b61035c868686868686610f63565b6000610b5f610af0565b90506001600160a01b038516610bdd5760405162461bcd60e51b815260206004820152602160248201527f455243313135353a206d696e7420746f20746865207a65726f2061646472657360448201527f73000000000000000000000000000000000000000000000000000000000000006064820152608401610345565b610bfc81600087610bed88611129565b610bf688611129565b87611174565b60008481527f93d5f1e3ad87f1fc4313940b5c964ec29137b7e8ef5c0b76f7e2c77f7f0e0324602090815260408083206001600160a01b038916845290915281208054859290610c4d908490611db4565b909155505060408051858152602081018590526001600160a01b0380881692600092918516917fc3d58168c5ae7397731d063d5bbf3d657854427343f4c083240f7aacaa2d0f62910160405180910390a45050505050565b610cb3868686868686611182565b61035c86868686868661134b565b6001600160a01b038416610d255760405162461bcd60e51b815260206004820152602560248201527f455243313135353a207472616e7366657220746f20746865207a65726f206164604482015264647265737360d81b6064820152608401610345565b8151835114610d9c5760405162461bcd60e51b815260206004820152602860248201527f455243313135353a2069647320616e6420616d6f756e7473206c656e6774682060448201527f6d69736d617463680000000000000000000000000000000000000000000000006064820152608401610345565b610daa868686868686611174565b7f93d5f1e3ad87f1fc4313940b5c964ec29137b7e8ef5c0b76f7e2c77f7f0e032460005b8451811015610f02576000858281518110610deb57610deb611d6f565b602002602001015190506000858381518110610e0957610e09611d6f565b602090810291909101810151600084815286835260408082206001600160a01b038e168352909352919091205490915081811015610eaf5760405162461bcd60e51b815260206004820152602b60248201527f455243313135353a20696e73756666696369656e742062616c616e636573206660448201527f6f72207472616e736665720000000000000000000000000000000000000000006064820152608401610345565b6000838152602086815260408083206001600160a01b038e811685529252808320938590039093558a168152908120805460019590950194839290610ef5908490611db4565b90915550610dce92505050565b50846001600160a01b0316866001600160a01b0316886001600160a01b03167f4a39dc06d4c0dbc64b70af90fd698a233a518aa5d07e595d983b8c0526c8f7fb8787604051610f52929190611dcc565b60405180910390a450505050505050565b6001600160a01b0384163b1561035c5760405163bc197c8160e01b81526001600160a01b0385169063bc197c8190610fa79089908990889088908890600401611e47565b6020604051808303816000875af1925050508015610fe2575060408051601f3d908101601f19168201909252610fdf91810190611ea5565b60015b61109757610fee611ee7565b806308c379a0036110275750611002611f02565b8061100d5750611029565b8060405162461bcd60e51b81526004016103459190611f8c565b505b60405162461bcd60e51b815260206004820152603460248201527f455243313135353a207472616e7366657220746f206e6f6e204552433131353560448201527f526563656976657220696d706c656d656e7465720000000000000000000000006064820152608401610345565b7fffffffff00000000000000000000000000000000000000000000000000000000811663bc197c8160e01b146111205760405162461bcd60e51b815260206004820152602860248201527f455243313135353a204552433131353552656365697665722072656a656374656044820152676420746f6b656e7360c01b6064820152608401610345565b50505050505050565b6040805160018082528183019092526060916000919060208083019080368337019050509050828160008151811061116357611163611d6f565b602090810291909101015292915050565b61035c86868686868661145f565b6001600160a01b0384166111e65760405162461bcd60e51b815260206004820152602560248201527f455243313135353a207472616e7366657220746f20746865207a65726f206164604482015264647265737360d81b6064820152608401610345565b6112048686866111f587611129565b6111fe87611129565b86611174565b60008381527f93d5f1e3ad87f1fc4313940b5c964ec29137b7e8ef5c0b76f7e2c77f7f0e0324602081815260408084206001600160a01b038a16855290915290912054838110156112bd5760405162461bcd60e51b815260206004820152602b60248201527f455243313135353a20696e73756666696369656e742062616c616e636573206660448201527f6f72207472616e736665720000000000000000000000000000000000000000006064820152608401610345565b6000858152602083815260408083206001600160a01b038b811685529252808320938790039093558716815290812080548592906112fc908490611db4565b909155505060408051858152602081018590526001600160a01b038088169289821692918b16917fc3d58168c5ae7397731d063d5bbf3d657854427343f4c083240f7aacaa2d0f629101610f52565b6001600160a01b0384163b1561035c5760405163f23a6e6160e01b81526001600160a01b0385169063f23a6e619061138f9089908990889088908890600401611f9f565b6020604051808303816000875af19250505080156113ca575060408051601f3d908101601f191682019092526113c791810190611ea5565b60015b6113d657610fee611ee7565b7fffffffff00000000000000000000000000000000000000000000000000000000811663f23a6e6160e01b146111205760405162461bcd60e51b815260206004820152602860248201527f455243313135353a204552433131353552656365697665722072656a656374656044820152676420746f6b656e7360c01b6064820152608401610345565b6001600160a01b0385161561159b5760005b83518110156115995782818151811061148c5761148c611d6f565b60200260200101516114bb7ff169d830093e543c5e2a4df1e47aae23a77e62aa0d6ca19e1e33e6e22e526f9f90565b6000016000886001600160a01b03166001600160a01b0316815260200190815260200160002060008684815181106114f5576114f5611d6f565b602002602001015181526020019081526020016000205461152f8887858151811061152257611522611d6f565b6020026020010151610a2b565b6115399190611fe2565b10156115875760405162461bcd60e51b815260206004820152600660248201527f4c4f434b454400000000000000000000000000000000000000000000000000006044820152606401610345565b8061159181611d9b565b915050611471565b505b61035c8686868686866001600160a01b038516611715577fbef313cd0145ce9ea5e5736c296fdd12e5b8495f1ac6754a82f66705a39baf207fbef313cd0145ce9ea5e5736c296fdd12e5b8495f1ac6754a82f66705a39baf2160005b85518110156117115784818151811061161257611612611d6f565b602002602001015183600088848151811061162f5761162f611d6f565b6020026020010151815260200190815260200160002060008282546116549190611db4565b9250508190555081600087838151811061167057611670611d6f565b602002602001015181526020019081526020016000205483600088848151811061169c5761169c611d6f565b602002602001015181526020019081526020016000205411156117015760405162461bcd60e51b815260206004820152601160248201527f535550504c595f4558434545445f4d41580000000000000000000000000000006044820152606401610345565b61170a81611d9b565b90506115f7565b5050505b6001600160a01b03841661035c577fbef313cd0145ce9ea5e5736c296fdd12e5b8495f1ac6754a82f66705a39baf2060005b845181101561183c57600085828151811061176457611764611d6f565b60200260200101519050600085838151811061178257611782611d6f565b602002602001015190506000846000848152602001908152602001600020549050818110156118195760405162461bcd60e51b815260206004820152602860248201527f455243313135353a206275726e20616d6f756e74206578636565647320746f7460448201527f616c537570706c790000000000000000000000000000000000000000000000006064820152608401610345565b6000928352602085905260409092209103905561183581611d9b565b9050611747565b5050505050505050565b80356001600160a01b038116811461185d57600080fd5b919050565b6000806040838503121561187557600080fd5b61187e83611846565b946020939093013593505050565b634e487b7160e01b600052604160045260246000fd5b601f8201601f1916810167ffffffffffffffff811182821017156118c8576118c861188c565b6040525050565b600067ffffffffffffffff8211156118e9576118e961188c565b5060051b60200190565b600082601f83011261190457600080fd5b81356020611911826118cf565b60405161191e82826118a2565b83815260059390931b850182019282810191508684111561193e57600080fd5b8286015b848110156119595780358352918301918301611942565b509695505050505050565b600082601f83011261197557600080fd5b813567ffffffffffffffff81111561198f5761198f61188c565b6040516119a6601f8301601f1916602001826118a2565b8181528460208386010111156119bb57600080fd5b816020850160208301376000918101602001919091529392505050565b600080600080600060a086880312156119f057600080fd5b6119f986611846565b9450611a0760208701611846565b9350604086013567ffffffffffffffff80821115611a2457600080fd5b611a3089838a016118f3565b94506060880135915080821115611a4657600080fd5b611a5289838a016118f3565b93506080880135915080821115611a6857600080fd5b50611a7588828901611964565b9150509295509295909350565b60008060408385031215611a9557600080fd5b823567ffffffffffffffff80821115611aad57600080fd5b818501915085601f830112611ac157600080fd5b81356020611ace826118cf565b604051611adb82826118a2565b83815260059390931b8501820192828101915089841115611afb57600080fd5b948201945b83861015611b2057611b1186611846565b82529482019490820190611b00565b96505086013592505080821115611b3657600080fd5b50611b43858286016118f3565b9150509250929050565b600081518084526020808501945080840160005b83811015611b7d57815187529582019590820190600101611b61565b509495945050505050565b6020815260006102606020830184611b4d565b600060208284031215611bad57600080fd5b5035919050565b60008060008060808587031215611bca57600080fd5b611bd385611846565b93506020850135925060408501359150606085013567ffffffffffffffff811115611bfd57600080fd5b611c0987828801611964565b91505092959194509250565b60008060408385031215611c2857600080fd5b611c3183611846565b915060208301358015158114611c4657600080fd5b809150509250929050565b600080600060408486031215611c6657600080fd5b611c6f84611846565b9250602084013567ffffffffffffffff80821115611c8c57600080fd5b818601915086601f830112611ca057600080fd5b813581811115611caf57600080fd5b8760208260051b8501011115611cc457600080fd5b6020830194508093505050509250925092565b60008060408385031215611cea57600080fd5b611cf383611846565b9150611d0160208401611846565b90509250929050565b600080600080600060a08688031215611d2257600080fd5b611d2b86611846565b9450611d3960208701611846565b93506040860135925060608601359150608086013567ffffffffffffffff811115611d6357600080fd5b611a7588828901611964565b634e487b7160e01b600052603260045260246000fd5b634e487b7160e01b600052601160045260246000fd5b600060018201611dad57611dad611d85565b5060010190565b60008219821115611dc757611dc7611d85565b500190565b604081526000611ddf6040830185611b4d565b8281036020840152611df18185611b4d565b95945050505050565b6000815180845260005b81811015611e2057602081850181015186830182015201611e04565b81811115611e32576000602083870101525b50601f01601f19169290920160200192915050565b60006001600160a01b03808816835280871660208401525060a06040830152611e7360a0830186611b4d565b8281036060840152611e858186611b4d565b90508281036080840152611e998185611dfa565b98975050505050505050565b600060208284031215611eb757600080fd5b81517fffffffff000000000000000000000000000000000000000000000000000000008116811461026057600080fd5b600060033d1115610b365760046000803e5060005160e01c90565b600060443d1015611f105790565b6040516003193d81016004833e81513d67ffffffffffffffff8160248401118184111715611f4057505050505090565b8285019150815181811115611f585750505050505090565b843d8701016020828501011115611f725750505050505090565b611f81602082860101876118a2565b509095945050505050565b6020815260006102606020830184611dfa565b60006001600160a01b03808816835280871660208401525084604083015283606083015260a06080830152611fd760a0830184611dfa565b979650505050505050565b600082821015611ff457611ff4611d85565b50039056fea264697066735822122026799a4fb5b7051fd0dad9e00bd8c95589a3d2bc0fdd74b174afe4e6c360c09064736f6c634300080f0033",
  "devdoc": {
    "kind": "dev",
    "methods": {
      "balanceOf(address,uint256)": {
        "params": {
          "account": "address to query",
          "id": "token to query"
        },
        "returns": {
          "_0": "token balance"
        }
      },
      "balanceOfBatch(address[],uint256[])": {
        "params": {
          "accounts": "addresss to query",
          "ids": "tokens to query"
        },
        "returns": {
          "_0": "token balances"
        }
      },
      "exists(uint256)": {
        "details": "Indicates whether any token exist with a given id, or not."
      },
      "isApprovedForAll(address,address)": {
        "params": {
          "account": "address to query for approval granted",
          "operator": "address to query for approval received"
        },
        "returns": {
          "_0": "whether operator is approved to spend tokens held by account"
        }
      },
      "maxSupply(uint256)": {
        "details": "Maximum amount of tokens possible to exist for a given id."
      },
      "mintByFacet(address,uint256,uint256,bytes)": {
        "details": "Creates `amount` new tokens for `to`, of token type `id`. See {ERC1155-_mint}. Requirements: - the caller must be diamond itself (other facets)."
      },
      "mintByOwner(address,uint256,uint256,bytes)": {
        "details": "Creates `amount` new tokens for `to`, of token type `id`. See {ERC1155-_mint}. Requirements: - the caller must be diamond owner."
      },
      "safeBatchTransferFrom(address,address,uint256[],uint256[],bytes)": {
        "params": {
          "amounts": "list of quantities of tokens to transfer",
          "data": "data payload",
          "from": "sender of tokens",
          "ids": "list of token IDs",
          "to": "receiver of tokens"
        }
      },
      "safeTransferFrom(address,address,uint256,uint256,bytes)": {
        "params": {
          "amount": "quantity of tokens to transfer",
          "data": "data payload",
          "from": "sender of tokens",
          "id": "token ID",
          "to": "receiver of tokens"
        }
      },
      "setApprovalForAll(address,bool)": {
        "params": {
          "operator": "address whose approval status to update",
          "status": "whether operator should be considered approved"
        }
      },
      "totalSupply(uint256)": {
        "details": "Total amount of tokens in with a given id."
      }
    },
    "version": 1
  },
  "userdoc": {
    "errors": {
      "SenderIsNotSelf()": [
        {
          "notice": "The caller must be the current contract itself."
        }
      ]
    },
    "kind": "user",
    "methods": {
      "balanceOf(address,uint256)": {
        "notice": "query the balance of given token held by given address"
      },
      "balanceOfBatch(address[],uint256[])": {
        "notice": "query the balances of given tokens held by given addresses"
      },
      "isApprovedForAll(address,address)": {
        "notice": "query approval status of given operator with respect to given address"
      },
      "safeBatchTransferFrom(address,address,uint256[],uint256[],bytes)": {
        "notice": "transfer batch of tokens between given addresses, checking for ERC1155Receiver implementation if applicable"
      },
      "safeTransferFrom(address,address,uint256,uint256,bytes)": {
        "notice": "transfer tokens between given addresses, checking for ERC1155Receiver implementation if applicable"
      },
      "setApprovalForAll(address,bool)": {
        "notice": "grant approval to or revoke approval from given operator to spend held tokens"
      }
    },
    "version": 1
  },
  "storageLayout": {
    "storage": [],
    "types": null
  }
}