{
  "address": "0xb8d85dA37467C323963B1578cBF4cfEF61847722",
  "abi": [
    {
      "inputs": [],
      "name": "SenderIsNotSelf",
      "type": "error"
    },
    {
      "anonymous": false,
      "inputs": [
        {
          "indexed": true,
          "internalType": "address",
          "name": "account",
          "type": "address"
        },
        {
          "indexed": true,
          "internalType": "address",
          "name": "operator",
          "type": "address"
        },
        {
          "indexed": false,
          "internalType": "bool",
          "name": "approved",
          "type": "bool"
        }
      ],
      "name": "ApprovalForAll",
      "type": "event"
    },
    {
      "anonymous": false,
      "inputs": [
        {
          "indexed": true,
          "internalType": "address",
          "name": "previousOwner",
          "type": "address"
        },
        {
          "indexed": true,
          "internalType": "address",
          "name": "newOwner",
          "type": "address"
        }
      ],
      "name": "OwnershipTransferred",
      "type": "event"
    },
    {
      "anonymous": false,
      "inputs": [
        {
          "indexed": true,
          "internalType": "address",
          "name": "operator",
          "type": "address"
        },
        {
          "indexed": true,
          "internalType": "address",
          "name": "from",
          "type": "address"
        },
        {
          "indexed": true,
          "internalType": "address",
          "name": "to",
          "type": "address"
        },
        {
          "indexed": false,
          "internalType": "uint256[]",
          "name": "ids",
          "type": "uint256[]"
        },
        {
          "indexed": false,
          "internalType": "uint256[]",
          "name": "values",
          "type": "uint256[]"
        }
      ],
      "name": "TransferBatch",
      "type": "event"
    },
    {
      "anonymous": false,
      "inputs": [
        {
          "indexed": true,
          "internalType": "address",
          "name": "operator",
          "type": "address"
        },
        {
          "indexed": true,
          "internalType": "address",
          "name": "from",
          "type": "address"
        },
        {
          "indexed": true,
          "internalType": "address",
          "name": "to",
          "type": "address"
        },
        {
          "indexed": false,
          "internalType": "uint256",
          "name": "id",
          "type": "uint256"
        },
        {
          "indexed": false,
          "internalType": "uint256",
          "name": "value",
          "type": "uint256"
        }
      ],
      "name": "TransferSingle",
      "type": "event"
    },
    {
      "inputs": [
        {
          "internalType": "address",
          "name": "account",
          "type": "address"
        },
        {
          "internalType": "uint256",
          "name": "id",
          "type": "uint256"
        }
      ],
      "name": "balanceOf",
      "outputs": [
        {
          "internalType": "uint256",
          "name": "",
          "type": "uint256"
        }
      ],
      "stateMutability": "view",
      "type": "function"
    },
    {
      "inputs": [
        {
          "internalType": "address[]",
          "name": "accounts",
          "type": "address[]"
        },
        {
          "internalType": "uint256[]",
          "name": "ids",
          "type": "uint256[]"
        }
      ],
      "name": "balanceOfBatch",
      "outputs": [
        {
          "internalType": "uint256[]",
          "name": "",
          "type": "uint256[]"
        }
      ],
      "stateMutability": "view",
      "type": "function"
    },
    {
      "inputs": [
        {
          "internalType": "address",
          "name": "account",
          "type": "address"
        },
        {
          "internalType": "uint256",
          "name": "id",
          "type": "uint256"
        },
        {
          "internalType": "uint256",
          "name": "value",
          "type": "uint256"
        }
      ],
      "name": "burn",
      "outputs": [],
      "stateMutability": "nonpayable",
      "type": "function"
    },
    {
      "inputs": [
        {
          "internalType": "address",
          "name": "account",
          "type": "address"
        },
        {
          "internalType": "uint256[]",
          "name": "ids",
          "type": "uint256[]"
        },
        {
          "internalType": "uint256[]",
          "name": "values",
          "type": "uint256[]"
        }
      ],
      "name": "burnBatch",
      "outputs": [],
      "stateMutability": "nonpayable",
      "type": "function"
    },
    {
      "inputs": [
        {
          "internalType": "address",
          "name": "account",
          "type": "address"
        },
        {
          "internalType": "uint256[]",
          "name": "ids",
          "type": "uint256[]"
        },
        {
          "internalType": "uint256[]",
          "name": "values",
          "type": "uint256[]"
        }
      ],
      "name": "burnBatchByFacet",
      "outputs": [],
      "stateMutability": "nonpayable",
      "type": "function"
    },
    {
      "inputs": [
        {
          "internalType": "address",
          "name": "account",
          "type": "address"
        },
        {
          "internalType": "uint256",
          "name": "id",
          "type": "uint256"
        },
        {
          "internalType": "uint256",
          "name": "amount",
          "type": "uint256"
        }
      ],
      "name": "burnByFacet",
      "outputs": [],
      "stateMutability": "nonpayable",
      "type": "function"
    },
    {
      "inputs": [
        {
          "internalType": "uint256",
          "name": "id",
          "type": "uint256"
        }
      ],
      "name": "exists",
      "outputs": [
        {
          "internalType": "bool",
          "name": "",
          "type": "bool"
        }
      ],
      "stateMutability": "view",
      "type": "function"
    },
    {
      "inputs": [
        {
          "internalType": "address",
          "name": "account",
          "type": "address"
        },
        {
          "internalType": "address",
          "name": "operator",
          "type": "address"
        }
      ],
      "name": "isApprovedForAll",
      "outputs": [
        {
          "internalType": "bool",
          "name": "",
          "type": "bool"
        }
      ],
      "stateMutability": "view",
      "type": "function"
    },
    {
      "inputs": [
        {
          "internalType": "address",
          "name": "account",
          "type": "address"
        },
        {
          "internalType": "uint256[]",
          "name": "ticketTokenIds",
          "type": "uint256[]"
        }
      ],
      "name": "locked",
      "outputs": [
        {
          "internalType": "uint256[]",
          "name": "",
          "type": "uint256[]"
        }
      ],
      "stateMutability": "view",
      "type": "function"
    },
    {
      "inputs": [
        {
          "internalType": "address",
          "name": "account",
          "type": "address"
        },
        {
          "internalType": "uint256",
          "name": "tokenId",
          "type": "uint256"
        }
      ],
      "name": "locked",
      "outputs": [
        {
          "internalType": "uint256",
          "name": "",
          "type": "uint256"
        }
      ],
      "stateMutability": "view",
      "type": "function"
    },
    {
      "inputs": [
        {
          "internalType": "uint256",
          "name": "id",
          "type": "uint256"
        }
      ],
      "name": "maxSupply",
      "outputs": [
        {
          "internalType": "uint256",
          "name": "",
          "type": "uint256"
        }
      ],
      "stateMutability": "view",
      "type": "function"
    },
    {
      "inputs": [
        {
          "internalType": "address",
          "name": "to",
          "type": "address"
        },
        {
          "internalType": "uint256",
          "name": "id",
          "type": "uint256"
        },
        {
          "internalType": "uint256",
          "name": "amount",
          "type": "uint256"
        },
        {
          "internalType": "bytes",
          "name": "data",
          "type": "bytes"
        }
      ],
      "name": "mintByFacet",
      "outputs": [],
      "stateMutability": "nonpayable",
      "type": "function"
    },
    {
      "inputs": [
        {
          "internalType": "address",
          "name": "to",
          "type": "address"
        },
        {
          "internalType": "uint256",
          "name": "id",
          "type": "uint256"
        },
        {
          "internalType": "uint256",
          "name": "amount",
          "type": "uint256"
        },
        {
          "internalType": "bytes",
          "name": "data",
          "type": "bytes"
        }
      ],
      "name": "mintByOwner",
      "outputs": [],
      "stateMutability": "nonpayable",
      "type": "function"
    },
    {
      "inputs": [
        {
          "internalType": "address",
          "name": "from",
          "type": "address"
        },
        {
          "internalType": "address",
          "name": "to",
          "type": "address"
        },
        {
          "internalType": "uint256[]",
          "name": "ids",
          "type": "uint256[]"
        },
        {
          "internalType": "uint256[]",
          "name": "amounts",
          "type": "uint256[]"
        },
        {
          "internalType": "bytes",
          "name": "data",
          "type": "bytes"
        }
      ],
      "name": "safeBatchTransferFrom",
      "outputs": [],
      "stateMutability": "nonpayable",
      "type": "function"
    },
    {
      "inputs": [
        {
          "internalType": "address",
          "name": "from",
          "type": "address"
        },
        {
          "internalType": "address",
          "name": "to",
          "type": "address"
        },
        {
          "internalType": "uint256",
          "name": "id",
          "type": "uint256"
        },
        {
          "internalType": "uint256",
          "name": "amount",
          "type": "uint256"
        },
        {
          "internalType": "bytes",
          "name": "data",
          "type": "bytes"
        }
      ],
      "name": "safeTransferFrom",
      "outputs": [],
      "stateMutability": "nonpayable",
      "type": "function"
    },
    {
      "inputs": [
        {
          "internalType": "address",
          "name": "operator",
          "type": "address"
        },
        {
          "internalType": "bool",
          "name": "status",
          "type": "bool"
        }
      ],
      "name": "setApprovalForAll",
      "outputs": [],
      "stateMutability": "nonpayable",
      "type": "function"
    },
    {
      "inputs": [
        {
          "internalType": "uint256",
          "name": "id",
          "type": "uint256"
        }
      ],
      "name": "totalSupply",
      "outputs": [
        {
          "internalType": "uint256",
          "name": "",
          "type": "uint256"
        }
      ],
      "stateMutability": "view",
      "type": "function"
    }
  ],
  "transactionHash": "0xb23aeeed1299b97318ef5eb9ed14e9f8937e8b3d4da5f853f419d10097573f39",
  "args": [],
  "numDeployments": 3,
  "solcInputHash": "af9179e3c4ecac437c7110805c74beb3",
  "bytecode": "0x608060405234801561001057600080fd5b50612748806100206000396000f3fe608060405234801561001057600080fd5b506004361061011a5760003560e01c8063869f7594116100b2578063bd85b03911610081578063e985e9c511610066578063e985e9c51461025b578063f242432a146102b6578063f5298aca146102c957600080fd5b8063bd85b03914610235578063bf7bab731461024857600080fd5b8063869f7594146101e9578063a22cb465146101fc578063a91a988a1461020f578063b164884b1461022257600080fd5b80634e1273f4116100ee5780634e1273f4146101805780634f558e79146101a05780635135bec1146101c35780636b20c454146101d657600080fd5b8062fdd58e1461011f5780630ad2bbac146101455780632eb2c2d61461015a57806348f2f5361461016d575b600080fd5b61013261012d366004611ec3565b6102dc565b6040519081526020015b60405180910390f35b610158610153366004611fc5565b6102ef565b005b6101586101683660046120ad565b61031f565b61015861017b366004612157565b610408565b61019361018e36600461218a565b610433565b60405161013c9190612290565b6101b36101ae3660046122a3565b61065a565b604051901515815260200161013c565b6101586101d13660046122bc565b610691565b6101586101e4366004611fc5565b61071c565b6101326101f73660046122a3565b61081a565b61015861020a36600461232e565b61084d565b61019361021d366004612365565b61096d565b6101586102303660046122bc565b610a54565b6101326102433660046122a3565b610a74565b610132610256366004611ec3565b610aa7565b6101b36102693660046123eb565b6001600160a01b0391821660009081527f93d5f1e3ad87f1fc4313940b5c964ec29137b7e8ef5c0b76f7e2c77f7f0e03256020908152604080832093909416825291909152205460ff1690565b6101586102c436600461241e565b610aef565b6101586102d7366004612157565b610bcb565b60006102e88383610cc9565b9392505050565b30331461030f576040516328be0e2160e21b815260040160405180910390fd5b61031a838383610d8e565b505050565b600061032961100c565b9050806001600160a01b0316866001600160a01b0316148061038f57506001600160a01b0380871660009081527f93d5f1e3ad87f1fc4313940b5c964ec29137b7e8ef5c0b76f7e2c77f7f0e0325602090815260408083209385168352929052205460ff165b6103f25760405162461bcd60e51b815260206004820152602960248201527f455243313135353a2063616c6c6572206973206e6f74206f776e6572206e6f7260448201526808185c1c1c9bdd995960ba1b60648201526084015b60405180910390fd5b610400818787878787611055565b505050505050565b303314610428576040516328be0e2160e21b815260040160405180910390fd5b61031a838383611071565b606081518351146104ac5760405162461bcd60e51b815260206004820152602960248201527f455243313135353a206163636f756e747320616e6420696473206c656e67746860448201527f206d69736d61746368000000000000000000000000000000000000000000000060648201526084016103e9565b82517f93d5f1e3ad87f1fc4313940b5c964ec29137b7e8ef5c0b76f7e2c77f7f0e03249060009067ffffffffffffffff8111156104eb576104eb611eed565b604051908082528060200260200182016040528015610514578160200160208202803683370190505b50905060005b85518110156106515760006001600160a01b031686828151811061054057610540612483565b60200260200101516001600160a01b0316036105c45760405162461bcd60e51b815260206004820152603160248201527f455243313135353a2062617463682062616c616e636520717565727920666f7260448201527f20746865207a65726f206164647265737300000000000000000000000000000060648201526084016103e9565b8260008683815181106105d9576105d9612483565b60200260200101518152602001908152602001600020600087838151811061060357610603612483565b60200260200101516001600160a01b03166001600160a01b031681526020019081526020016000205482828151811061063e5761063e612483565b602090810291909101015260010161051a565b50949350505050565b60008181527fbef313cd0145ce9ea5e5736c296fdd12e5b8495f1ac6754a82f66705a39baf20602052604081205415155b92915050565b7fc0ea367cb0174dd5521cd2372c76f8c13e6c1f832c71f1d6e0cbc185c9cc8ed4546001600160a01b0316331461070a5760405162461bcd60e51b815260206004820152601d60248201527f4f776e61626c653a2073656e646572206d757374206265206f776e657200000060448201526064016103e9565b61071684848484611205565b50505050565b61072461100c565b6001600160a01b0316836001600160a01b031614806107bc57503063e985e9c58461074d61100c565b6040516001600160e01b031960e085901b1681526001600160a01b03928316600482015291166024820152604401602060405180830381865afa158015610798573d6000803e3d6000fd5b505050506040513d601f19601f820116820180604052508101906107bc9190612499565b61030f5760405162461bcd60e51b815260206004820152602960248201527f455243313135353a2063616c6c6572206973206e6f74206f776e6572206e6f7260448201526808185c1c1c9bdd995960ba1b60648201526084016103e9565b60008181527fbef313cd0145ce9ea5e5736c296fdd12e5b8495f1ac6754a82f66705a39baf21602052604081205461068b565b600061085761100c565b9050826001600160a01b0316816001600160a01b0316036108e05760405162461bcd60e51b815260206004820152602960248201527f455243313135353a2073657474696e6720617070726f76616c2073746174757360448201527f20666f722073656c66000000000000000000000000000000000000000000000060648201526084016103e9565b6001600160a01b0381811660008181527f93d5f1e3ad87f1fc4313940b5c964ec29137b7e8ef5c0b76f7e2c77f7f0e03256020908152604080832094881680845294825291829020805460ff1916871515908117909155825190815291517f17307eab39ab6107e8899845ad3d59bd9653f200f220920489ca2b5937696c319281900390910190a3505050565b606060008267ffffffffffffffff81111561098a5761098a611eed565b6040519080825280602002602001820160405280156109b3578160200160208202803683370190505b50905060005b8381101561065157610a25868686848181106109d7576109d7612483565b905060200201356001600160a01b039190911660009081527ff169d830093e543c5e2a4df1e47aae23a77e62aa0d6ca19e1e33e6e22e526f9f60209081526040808320938352929052205490565b828281518110610a3757610a37612483565b602090810291909101015280610a4c816124cc565b9150506109b9565b30331461070a576040516328be0e2160e21b815260040160405180910390fd5b60008181527fbef313cd0145ce9ea5e5736c296fdd12e5b8495f1ac6754a82f66705a39baf20602052604081205461068b565b6001600160a01b03821660009081527ff169d830093e543c5e2a4df1e47aae23a77e62aa0d6ca19e1e33e6e22e526f9f602090815260408083208484529091528120546102e8565b6000610af961100c565b9050806001600160a01b0316866001600160a01b03161480610b5f57506001600160a01b0380871660009081527f93d5f1e3ad87f1fc4313940b5c964ec29137b7e8ef5c0b76f7e2c77f7f0e0325602090815260408083209385168352929052205460ff165b610bbd5760405162461bcd60e51b815260206004820152602960248201527f455243313135353a2063616c6c6572206973206e6f74206f776e6572206e6f7260448201526808185c1c1c9bdd995960ba1b60648201526084016103e9565b61040081878787878761134b565b610bd361100c565b6001600160a01b0316836001600160a01b03161480610c6b57503063e985e9c584610bfc61100c565b6040516001600160e01b031960e085901b1681526001600160a01b03928316600482015291166024820152604401602060405180830381865afa158015610c47573d6000803e3d6000fd5b505050506040513d601f19601f82011682018060405250810190610c6b9190612499565b6104285760405162461bcd60e51b815260206004820152602960248201527f455243313135353a2063616c6c6572206973206e6f74206f776e6572206e6f7260448201526808185c1c1c9bdd995960ba1b60648201526084016103e9565b60006001600160a01b038316610d475760405162461bcd60e51b815260206004820152602b60248201527f455243313135353a2062616c616e636520717565727920666f7220746865207a60448201527f65726f206164647265737300000000000000000000000000000000000000000060648201526084016103e9565b7f93d5f1e3ad87f1fc4313940b5c964ec29137b7e8ef5c0b76f7e2c77f7f0e03246000928352602090815260408084206001600160a01b0395909516845293905250205490565b6001600160a01b038316610df05760405162461bcd60e51b815260206004820152602360248201527f455243313135353a206275726e2066726f6d20746865207a65726f206164647260448201526265737360e81b60648201526084016103e9565b8051825114610e525760405162461bcd60e51b815260206004820152602860248201527f455243313135353a2069647320616e6420616d6f756e7473206c656e677468206044820152670dad2e6dac2e8c6d60c31b60648201526084016103e9565b6000610e5c61100c565b9050610e7c81856000868660405180602001604052806000815250611367565b7f93d5f1e3ad87f1fc4313940b5c964ec29137b7e8ef5c0b76f7e2c77f7f0e032460005b8451811015610fac576000858281518110610ebd57610ebd612483565b60200260200101519050848281518110610ed957610ed9612483565b602090810291909101810151600083815285835260408082206001600160a01b038c16835290935291909120541015610f605760405162461bcd60e51b8152602060048201526024808201527f455243313135353a206275726e20616d6f756e7420657863656564732062616c604482015263616e636560e01b60648201526084016103e9565b848281518110610f7257610f72612483565b602090810291909101810151600092835284825260408084206001600160a01b038b16855290925291208054919091039055600101610ea0565b5060006001600160a01b0316856001600160a01b0316836001600160a01b03167f4a39dc06d4c0dbc64b70af90fd698a233a518aa5d07e595d983b8c0526c8f7fb8787604051610ffd9291906124e5565b60405180910390a45050505050565b7f8cb501c3289f0b2347f4ba94b88fa355a4cd5266219cf6f4b7e5f7f3518beee5546000906001600160a01b0316330361104d575060131936013560601c90565b503390565b90565b611063868686868686611375565b610400868686868686611602565b6001600160a01b0383166110d35760405162461bcd60e51b815260206004820152602360248201527f455243313135353a206275726e2066726f6d20746865207a65726f206164647260448201526265737360e81b60648201526084016103e9565b60006110dd61100c565b905061110d818560006110ef876117b0565b6110f8876117b0565b60405180602001604052806000815250611367565b60008381527f93d5f1e3ad87f1fc4313940b5c964ec29137b7e8ef5c0b76f7e2c77f7f0e0324602090815260408083206001600160a01b038816845291829052909120548311156111ac5760405162461bcd60e51b8152602060048201526024808201527f455243313135353a206275726e20616d6f756e7420657863656564732062616c604482015263616e636560e01b60648201526084016103e9565b6001600160a01b0385811660008181526020848152604080832080548990039055805189815291820188905291938616917fc3d58168c5ae7397731d063d5bbf3d657854427343f4c083240f7aacaa2d0f629101610ffd565b600061120f61100c565b90506001600160a01b03851661128d5760405162461bcd60e51b815260206004820152602160248201527f455243313135353a206d696e7420746f20746865207a65726f2061646472657360448201527f730000000000000000000000000000000000000000000000000000000000000060648201526084016103e9565b6112ac8160008761129d886117b0565b6112a6886117b0565b87611367565b60008481527f93d5f1e3ad87f1fc4313940b5c964ec29137b7e8ef5c0b76f7e2c77f7f0e0324602090815260408083206001600160a01b0389168452909152812080548592906112fd908490612513565b909155505060408051858152602081018590526001600160a01b0380881692600092918516917fc3d58168c5ae7397731d063d5bbf3d657854427343f4c083240f7aacaa2d0f629101610ffd565b6113598686868686866117fb565b6104008686868686866119c4565b610400868686868686611ac0565b6001600160a01b0384166113d95760405162461bcd60e51b815260206004820152602560248201527f455243313135353a207472616e7366657220746f20746865207a65726f206164604482015264647265737360d81b60648201526084016103e9565b815183511461143b5760405162461bcd60e51b815260206004820152602860248201527f455243313135353a2069647320616e6420616d6f756e7473206c656e677468206044820152670dad2e6dac2e8c6d60c31b60648201526084016103e9565b611449868686868686611367565b7f93d5f1e3ad87f1fc4313940b5c964ec29137b7e8ef5c0b76f7e2c77f7f0e032460005b84518110156115a157600085828151811061148a5761148a612483565b6020026020010151905060008583815181106114a8576114a8612483565b602090810291909101810151600084815286835260408082206001600160a01b038e16835290935291909120549091508181101561154e5760405162461bcd60e51b815260206004820152602b60248201527f455243313135353a20696e73756666696369656e742062616c616e636573206660448201527f6f72207472616e7366657200000000000000000000000000000000000000000060648201526084016103e9565b6000838152602086815260408083206001600160a01b038e811685529252808320938590039093558a168152908120805460019590950194839290611594908490612513565b9091555061146d92505050565b50846001600160a01b0316866001600160a01b0316886001600160a01b03167f4a39dc06d4c0dbc64b70af90fd698a233a518aa5d07e595d983b8c0526c8f7fb87876040516115f19291906124e5565b60405180910390a450505050505050565b6001600160a01b0384163b156104005760405163bc197c8160e01b81526001600160a01b0385169063bc197c81906116469089908990889088908890600401612578565b6020604051808303816000875af1925050508015611681575060408051601f3d908101601f1916820190925261167e918101906125d6565b60015b6117365761168d612600565b806308c379a0036116c657506116a161261b565b806116ac57506116c8565b8060405162461bcd60e51b81526004016103e991906126a5565b505b60405162461bcd60e51b815260206004820152603460248201527f455243313135353a207472616e7366657220746f206e6f6e204552433131353560448201527f526563656976657220696d706c656d656e74657200000000000000000000000060648201526084016103e9565b6001600160e01b0319811663bc197c8160e01b146117a75760405162461bcd60e51b815260206004820152602860248201527f455243313135353a204552433131353552656365697665722072656a656374656044820152676420746f6b656e7360c01b60648201526084016103e9565b50505050505050565b604080516001808252818301909252606091600091906020808301908036833701905050905082816000815181106117ea576117ea612483565b602090810291909101015292915050565b6001600160a01b03841661185f5760405162461bcd60e51b815260206004820152602560248201527f455243313135353a207472616e7366657220746f20746865207a65726f206164604482015264647265737360d81b60648201526084016103e9565b61187d86868661186e876117b0565b611877876117b0565b86611367565b60008381527f93d5f1e3ad87f1fc4313940b5c964ec29137b7e8ef5c0b76f7e2c77f7f0e0324602081815260408084206001600160a01b038a16855290915290912054838110156119365760405162461bcd60e51b815260206004820152602b60248201527f455243313135353a20696e73756666696369656e742062616c616e636573206660448201527f6f72207472616e7366657200000000000000000000000000000000000000000060648201526084016103e9565b6000858152602083815260408083206001600160a01b038b81168552925280832093879003909355871681529081208054859290611975908490612513565b909155505060408051858152602081018590526001600160a01b038088169289821692918b16917fc3d58168c5ae7397731d063d5bbf3d657854427343f4c083240f7aacaa2d0f6291016115f1565b6001600160a01b0384163b156104005760405163f23a6e6160e01b81526001600160a01b0385169063f23a6e6190611a0890899089908890889088906004016126b8565b6020604051808303816000875af1925050508015611a43575060408051601f3d908101601f19168201909252611a40918101906125d6565b60015b611a4f5761168d612600565b6001600160e01b0319811663f23a6e6160e01b146117a75760405162461bcd60e51b815260206004820152602860248201527f455243313135353a204552433131353552656365697665722072656a656374656044820152676420746f6b656e7360c01b60648201526084016103e9565b6001600160a01b03851615611bfc5760005b8351811015611bfa57828181518110611aed57611aed612483565b6020026020010151611b1c7ff169d830093e543c5e2a4df1e47aae23a77e62aa0d6ca19e1e33e6e22e526f9f90565b6000016000886001600160a01b03166001600160a01b031681526020019081526020016000206000868481518110611b5657611b56612483565b6020026020010151815260200190815260200160002054611b9088878581518110611b8357611b83612483565b6020026020010151610cc9565b611b9a91906126fb565b1015611be85760405162461bcd60e51b815260206004820152600660248201527f4c4f434b4544000000000000000000000000000000000000000000000000000060448201526064016103e9565b80611bf2816124cc565b915050611ad2565b505b6104008686868686866001600160a01b038516611d76577fbef313cd0145ce9ea5e5736c296fdd12e5b8495f1ac6754a82f66705a39baf207fbef313cd0145ce9ea5e5736c296fdd12e5b8495f1ac6754a82f66705a39baf2160005b8551811015611d7257848181518110611c7357611c73612483565b6020026020010151836000888481518110611c9057611c90612483565b602002602001015181526020019081526020016000206000828254611cb59190612513565b92505081905550816000878381518110611cd157611cd1612483565b6020026020010151815260200190815260200160002054836000888481518110611cfd57611cfd612483565b60200260200101518152602001908152602001600020541115611d625760405162461bcd60e51b815260206004820152601160248201527f535550504c595f4558434545445f4d415800000000000000000000000000000060448201526064016103e9565b611d6b816124cc565b9050611c58565b5050505b6001600160a01b038416610400577fbef313cd0145ce9ea5e5736c296fdd12e5b8495f1ac6754a82f66705a39baf2060005b8451811015611e9d576000858281518110611dc557611dc5612483565b602002602001015190506000858381518110611de357611de3612483565b60200260200101519050600084600084815260200190815260200160002054905081811015611e7a5760405162461bcd60e51b815260206004820152602860248201527f455243313135353a206275726e20616d6f756e74206578636565647320746f7460448201527f616c537570706c7900000000000000000000000000000000000000000000000060648201526084016103e9565b60009283526020859052604090922091039055611e96816124cc565b9050611da8565b5050505050505050565b80356001600160a01b0381168114611ebe57600080fd5b919050565b60008060408385031215611ed657600080fd5b611edf83611ea7565b946020939093013593505050565b634e487b7160e01b600052604160045260246000fd5b601f8201601f1916810167ffffffffffffffff81118282101715611f2957611f29611eed565b6040525050565b600067ffffffffffffffff821115611f4a57611f4a611eed565b5060051b60200190565b600082601f830112611f6557600080fd5b81356020611f7282611f30565b604051611f7f8282611f03565b83815260059390931b8501820192828101915086841115611f9f57600080fd5b8286015b84811015611fba5780358352918301918301611fa3565b509695505050505050565b600080600060608486031215611fda57600080fd5b611fe384611ea7565b9250602084013567ffffffffffffffff8082111561200057600080fd5b61200c87838801611f54565b9350604086013591508082111561202257600080fd5b5061202f86828701611f54565b9150509250925092565b600082601f83011261204a57600080fd5b813567ffffffffffffffff81111561206457612064611eed565b60405161207b601f8301601f191660200182611f03565b81815284602083860101111561209057600080fd5b816020850160208301376000918101602001919091529392505050565b600080600080600060a086880312156120c557600080fd5b6120ce86611ea7565b94506120dc60208701611ea7565b9350604086013567ffffffffffffffff808211156120f957600080fd5b61210589838a01611f54565b9450606088013591508082111561211b57600080fd5b61212789838a01611f54565b9350608088013591508082111561213d57600080fd5b5061214a88828901612039565b9150509295509295909350565b60008060006060848603121561216c57600080fd5b61217584611ea7565b95602085013595506040909401359392505050565b6000806040838503121561219d57600080fd5b823567ffffffffffffffff808211156121b557600080fd5b818501915085601f8301126121c957600080fd5b813560206121d682611f30565b6040516121e38282611f03565b83815260059390931b850182019282810191508984111561220357600080fd5b948201945b838610156122285761221986611ea7565b82529482019490820190612208565b9650508601359250508082111561223e57600080fd5b5061224b85828601611f54565b9150509250929050565b600081518084526020808501945080840160005b8381101561228557815187529582019590820190600101612269565b509495945050505050565b6020815260006102e86020830184612255565b6000602082840312156122b557600080fd5b5035919050565b600080600080608085870312156122d257600080fd5b6122db85611ea7565b93506020850135925060408501359150606085013567ffffffffffffffff81111561230557600080fd5b61231187828801612039565b91505092959194509250565b801515811461232b57600080fd5b50565b6000806040838503121561234157600080fd5b61234a83611ea7565b9150602083013561235a8161231d565b809150509250929050565b60008060006040848603121561237a57600080fd5b61238384611ea7565b9250602084013567ffffffffffffffff808211156123a057600080fd5b818601915086601f8301126123b457600080fd5b8135818111156123c357600080fd5b8760208260051b85010111156123d857600080fd5b6020830194508093505050509250925092565b600080604083850312156123fe57600080fd5b61240783611ea7565b915061241560208401611ea7565b90509250929050565b600080600080600060a0868803121561243657600080fd5b61243f86611ea7565b945061244d60208701611ea7565b93506040860135925060608601359150608086013567ffffffffffffffff81111561247757600080fd5b61214a88828901612039565b634e487b7160e01b600052603260045260246000fd5b6000602082840312156124ab57600080fd5b81516102e88161231d565b634e487b7160e01b600052601160045260246000fd5b6000600182016124de576124de6124b6565b5060010190565b6040815260006124f86040830185612255565b828103602084015261250a8185612255565b95945050505050565b60008219821115612526576125266124b6565b500190565b6000815180845260005b8181101561255157602081850181015186830182015201612535565b81811115612563576000602083870101525b50601f01601f19169290920160200192915050565b60006001600160a01b03808816835280871660208401525060a060408301526125a460a0830186612255565b82810360608401526125b68186612255565b905082810360808401526125ca818561252b565b98975050505050505050565b6000602082840312156125e857600080fd5b81516001600160e01b0319811681146102e857600080fd5b600060033d11156110525760046000803e5060005160e01c90565b600060443d10156126295790565b6040516003193d81016004833e81513d67ffffffffffffffff816024840111818411171561265957505050505090565b82850191508151818111156126715750505050505090565b843d870101602082850101111561268b5750505050505090565b61269a60208286010187611f03565b509095945050505050565b6020815260006102e8602083018461252b565b60006001600160a01b03808816835280871660208401525084604083015283606083015260a060808301526126f060a083018461252b565b979650505050505050565b60008282101561270d5761270d6124b6565b50039056fea264697066735822122019b5207fe102eae1c7a872029c347e23776d4981ca7fbfbceafa5093b2a2f31b64736f6c634300080f0033",
  "devdoc": {
    "kind": "dev",
    "methods": {
      "balanceOf(address,uint256)": {
        "params": {
          "account": "address to query",
          "id": "token to query"
        },
        "returns": {
          "_0": "token balance"
        }
      },
      "balanceOfBatch(address[],uint256[])": {
        "params": {
          "accounts": "addresss to query",
          "ids": "tokens to query"
        },
        "returns": {
          "_0": "token balances"
        }
      },
      "exists(uint256)": {
        "details": "Indicates whether any token exist with a given id, or not."
      },
      "isApprovedForAll(address,address)": {
        "params": {
          "account": "address to query for approval granted",
          "operator": "address to query for approval received"
        },
        "returns": {
          "_0": "whether operator is approved to spend tokens held by account"
        }
      },
      "maxSupply(uint256)": {
        "details": "Maximum amount of tokens possible to exist for a given id."
      },
      "mintByFacet(address,uint256,uint256,bytes)": {
        "details": "Creates `amount` new tokens for `to`, of token type `id`. See {ERC1155-_mint}. Requirements: - the caller must be diamond itself (other facets)."
      },
      "mintByOwner(address,uint256,uint256,bytes)": {
        "details": "Creates `amount` new tokens for `to`, of token type `id`. See {ERC1155-_mint}. Requirements: - the caller must be diamond owner."
      },
      "safeBatchTransferFrom(address,address,uint256[],uint256[],bytes)": {
        "params": {
          "amounts": "list of quantities of tokens to transfer",
          "data": "data payload",
          "from": "sender of tokens",
          "ids": "list of token IDs",
          "to": "receiver of tokens"
        }
      },
      "safeTransferFrom(address,address,uint256,uint256,bytes)": {
        "params": {
          "amount": "quantity of tokens to transfer",
          "data": "data payload",
          "from": "sender of tokens",
          "id": "token ID",
          "to": "receiver of tokens"
        }
      },
      "setApprovalForAll(address,bool)": {
        "params": {
          "operator": "address whose approval status to update",
          "status": "whether operator should be considered approved"
        }
      },
      "totalSupply(uint256)": {
        "details": "Total amount of tokens in with a given id."
      }
    },
    "version": 1
  },
  "userdoc": {
    "errors": {
      "SenderIsNotSelf()": [
        {
          "notice": "The caller must be the current contract itself."
        }
      ]
    },
    "kind": "user",
    "methods": {
      "balanceOf(address,uint256)": {
        "notice": "query the balance of given token held by given address"
      },
      "balanceOfBatch(address[],uint256[])": {
        "notice": "query the balances of given tokens held by given addresses"
      },
      "isApprovedForAll(address,address)": {
        "notice": "query approval status of given operator with respect to given address"
      },
      "safeBatchTransferFrom(address,address,uint256[],uint256[],bytes)": {
        "notice": "transfer batch of tokens between given addresses, checking for ERC1155Receiver implementation if applicable"
      },
      "safeTransferFrom(address,address,uint256,uint256,bytes)": {
        "notice": "transfer tokens between given addresses, checking for ERC1155Receiver implementation if applicable"
      },
      "setApprovalForAll(address,bool)": {
        "notice": "grant approval to or revoke approval from given operator to spend held tokens"
      }
    },
    "version": 1
  },
  "storageLayout": {
    "storage": [],
    "types": null
  }
}