{
  "address": "0x0135d6053517d6A096a9Ed16A901da6b93aC2A3F",
  "abi": [
    {
      "inputs": [],
      "name": "SenderIsNotSelf",
      "type": "error"
    },
    {
      "anonymous": false,
      "inputs": [
        {
          "indexed": true,
          "internalType": "address",
          "name": "account",
          "type": "address"
        },
        {
          "indexed": true,
          "internalType": "address",
          "name": "operator",
          "type": "address"
        },
        {
          "indexed": false,
          "internalType": "bool",
          "name": "approved",
          "type": "bool"
        }
      ],
      "name": "ApprovalForAll",
      "type": "event"
    },
    {
      "anonymous": false,
      "inputs": [
        {
          "indexed": true,
          "internalType": "address",
          "name": "previousOwner",
          "type": "address"
        },
        {
          "indexed": true,
          "internalType": "address",
          "name": "newOwner",
          "type": "address"
        }
      ],
      "name": "OwnershipTransferred",
      "type": "event"
    },
    {
      "anonymous": false,
      "inputs": [
        {
          "indexed": true,
          "internalType": "address",
          "name": "operator",
          "type": "address"
        },
        {
          "indexed": true,
          "internalType": "address",
          "name": "from",
          "type": "address"
        },
        {
          "indexed": true,
          "internalType": "address",
          "name": "to",
          "type": "address"
        },
        {
          "indexed": false,
          "internalType": "uint256[]",
          "name": "ids",
          "type": "uint256[]"
        },
        {
          "indexed": false,
          "internalType": "uint256[]",
          "name": "values",
          "type": "uint256[]"
        }
      ],
      "name": "TransferBatch",
      "type": "event"
    },
    {
      "anonymous": false,
      "inputs": [
        {
          "indexed": true,
          "internalType": "address",
          "name": "operator",
          "type": "address"
        },
        {
          "indexed": true,
          "internalType": "address",
          "name": "from",
          "type": "address"
        },
        {
          "indexed": true,
          "internalType": "address",
          "name": "to",
          "type": "address"
        },
        {
          "indexed": false,
          "internalType": "uint256",
          "name": "id",
          "type": "uint256"
        },
        {
          "indexed": false,
          "internalType": "uint256",
          "name": "value",
          "type": "uint256"
        }
      ],
      "name": "TransferSingle",
      "type": "event"
    },
    {
      "inputs": [
        {
          "internalType": "address",
          "name": "account",
          "type": "address"
        },
        {
          "internalType": "uint256",
          "name": "id",
          "type": "uint256"
        }
      ],
      "name": "balanceOf",
      "outputs": [
        {
          "internalType": "uint256",
          "name": "",
          "type": "uint256"
        }
      ],
      "stateMutability": "view",
      "type": "function"
    },
    {
      "inputs": [
        {
          "internalType": "address[]",
          "name": "accounts",
          "type": "address[]"
        },
        {
          "internalType": "uint256[]",
          "name": "ids",
          "type": "uint256[]"
        }
      ],
      "name": "balanceOfBatch",
      "outputs": [
        {
          "internalType": "uint256[]",
          "name": "",
          "type": "uint256[]"
        }
      ],
      "stateMutability": "view",
      "type": "function"
    },
    {
      "inputs": [
        {
          "internalType": "address",
          "name": "account",
          "type": "address"
        },
        {
          "internalType": "uint256",
          "name": "id",
          "type": "uint256"
        },
        {
          "internalType": "uint256",
          "name": "value",
          "type": "uint256"
        }
      ],
      "name": "burn",
      "outputs": [],
      "stateMutability": "nonpayable",
      "type": "function"
    },
    {
      "inputs": [
        {
          "internalType": "address",
          "name": "account",
          "type": "address"
        },
        {
          "internalType": "uint256[]",
          "name": "ids",
          "type": "uint256[]"
        },
        {
          "internalType": "uint256[]",
          "name": "values",
          "type": "uint256[]"
        }
      ],
      "name": "burnBatch",
      "outputs": [],
      "stateMutability": "nonpayable",
      "type": "function"
    },
    {
      "inputs": [
        {
          "internalType": "address",
          "name": "account",
          "type": "address"
        },
        {
          "internalType": "uint256[]",
          "name": "ids",
          "type": "uint256[]"
        },
        {
          "internalType": "uint256[]",
          "name": "values",
          "type": "uint256[]"
        }
      ],
      "name": "burnBatchByFacet",
      "outputs": [],
      "stateMutability": "nonpayable",
      "type": "function"
    },
    {
      "inputs": [
        {
          "internalType": "address",
          "name": "account",
          "type": "address"
        },
        {
          "internalType": "uint256",
          "name": "id",
          "type": "uint256"
        },
        {
          "internalType": "uint256",
          "name": "amount",
          "type": "uint256"
        }
      ],
      "name": "burnByFacet",
      "outputs": [],
      "stateMutability": "nonpayable",
      "type": "function"
    },
    {
      "inputs": [
        {
          "internalType": "uint256",
          "name": "id",
          "type": "uint256"
        }
      ],
      "name": "exists",
      "outputs": [
        {
          "internalType": "bool",
          "name": "",
          "type": "bool"
        }
      ],
      "stateMutability": "view",
      "type": "function"
    },
    {
      "inputs": [
        {
          "internalType": "address",
          "name": "account",
          "type": "address"
        },
        {
          "internalType": "address",
          "name": "operator",
          "type": "address"
        }
      ],
      "name": "isApprovedForAll",
      "outputs": [
        {
          "internalType": "bool",
          "name": "",
          "type": "bool"
        }
      ],
      "stateMutability": "view",
      "type": "function"
    },
    {
      "inputs": [
        {
          "internalType": "uint256",
          "name": "id",
          "type": "uint256"
        }
      ],
      "name": "maxSupply",
      "outputs": [
        {
          "internalType": "uint256",
          "name": "",
          "type": "uint256"
        }
      ],
      "stateMutability": "view",
      "type": "function"
    },
    {
      "inputs": [
        {
          "internalType": "address",
          "name": "to",
          "type": "address"
        },
        {
          "internalType": "uint256",
          "name": "id",
          "type": "uint256"
        },
        {
          "internalType": "uint256",
          "name": "amount",
          "type": "uint256"
        },
        {
          "internalType": "bytes",
          "name": "data",
          "type": "bytes"
        }
      ],
      "name": "mintByFacet",
      "outputs": [],
      "stateMutability": "nonpayable",
      "type": "function"
    },
    {
      "inputs": [
        {
          "internalType": "address",
          "name": "to",
          "type": "address"
        },
        {
          "internalType": "uint256",
          "name": "id",
          "type": "uint256"
        },
        {
          "internalType": "uint256",
          "name": "amount",
          "type": "uint256"
        },
        {
          "internalType": "bytes",
          "name": "data",
          "type": "bytes"
        }
      ],
      "name": "mintByOwner",
      "outputs": [],
      "stateMutability": "nonpayable",
      "type": "function"
    },
    {
      "inputs": [
        {
          "internalType": "address",
          "name": "from",
          "type": "address"
        },
        {
          "internalType": "address",
          "name": "to",
          "type": "address"
        },
        {
          "internalType": "uint256[]",
          "name": "ids",
          "type": "uint256[]"
        },
        {
          "internalType": "uint256[]",
          "name": "amounts",
          "type": "uint256[]"
        },
        {
          "internalType": "bytes",
          "name": "data",
          "type": "bytes"
        }
      ],
      "name": "safeBatchTransferFrom",
      "outputs": [],
      "stateMutability": "nonpayable",
      "type": "function"
    },
    {
      "inputs": [
        {
          "internalType": "address",
          "name": "from",
          "type": "address"
        },
        {
          "internalType": "address",
          "name": "to",
          "type": "address"
        },
        {
          "internalType": "uint256",
          "name": "id",
          "type": "uint256"
        },
        {
          "internalType": "uint256",
          "name": "amount",
          "type": "uint256"
        },
        {
          "internalType": "bytes",
          "name": "data",
          "type": "bytes"
        }
      ],
      "name": "safeTransferFrom",
      "outputs": [],
      "stateMutability": "nonpayable",
      "type": "function"
    },
    {
      "inputs": [
        {
          "internalType": "address",
          "name": "operator",
          "type": "address"
        },
        {
          "internalType": "bool",
          "name": "status",
          "type": "bool"
        }
      ],
      "name": "setApprovalForAll",
      "outputs": [],
      "stateMutability": "nonpayable",
      "type": "function"
    },
    {
      "inputs": [
        {
          "internalType": "uint256",
          "name": "id",
          "type": "uint256"
        }
      ],
      "name": "totalSupply",
      "outputs": [
        {
          "internalType": "uint256",
          "name": "",
          "type": "uint256"
        }
      ],
      "stateMutability": "view",
      "type": "function"
    }
  ],
  "transactionHash": "0xb9ae6b497de90cf628567bbe7c372fb4f9b2dd3f3d0a32596887a6e2049b6c48",
  "args": [],
  "numDeployments": 1,
  "solcInputHash": "ffc6e07a79fa964cefe1c357bb110a4e",
  "bytecode": "0x608060405234801561001057600080fd5b50611fb8806100206000396000f3fe608060405234801561001057600080fd5b50600436106100c45760003560e01c8062fdd58e146100c95780630ad2bbac146100ef5780632eb2c2d61461010457806348f2f536146101175780634e1273f41461012a5780634f558e791461014a5780635135bec11461016d5780636b20c45414610180578063869f759414610193578063a22cb465146101a6578063b164884b146101b9578063bd85b039146101cc578063e985e9c5146101df578063f242432a146101f2578063f5298aca14610205575b600080fd5b6100dc6100d73660046115ad565b610218565b6040519081526020015b60405180910390f35b6101026100fd3660046116ad565b61022b565b005b610102610112366004611793565b61025b565b61010261012536600461183c565b6102c7565b61013d61013836600461186f565b6102f2565b6040516100e69190611974565b61015d610158366004611987565b6104e4565b60405190151581526020016100e6565b61010261017b3660046119a0565b6104f5565b61010261018e3660046116ad565b610580565b6100dc6101a1366004611987565b61062b565b6101026101b4366004611a11565b610636565b6101026101c73660046119a0565b610734565b6100dc6101da366004611987565b610754565b61015d6101ed366004611a48565b61075f565b610102610200366004611a7b565b61079c565b61010261021336600461183c565b6107f7565b600061022483836108a2565b9392505050565b30331461024b576040516328be0e2160e21b815260040160405180910390fd5b61025683838361093c565b505050565b6000610265610aec565b9050806001600160a01b0316866001600160a01b0316148061028c575061028c868261075f565b6102b15760405162461bcd60e51b81526004016102a890611adf565b60405180910390fd5b6102bf818787878787610b35565b505050505050565b3033146102e7576040516328be0e2160e21b815260040160405180910390fd5b610256838383610b51565b606081518351146103575760405162461bcd60e51b815260206004820152602960248201527f455243313135353a206163636f756e747320616e6420696473206c656e677468604482015268040dad2e6dac2e8c6d60bb1b60648201526084016102a8565b6000610361610c46565b6000019050600084516001600160401b03811115610381576103816115d7565b6040519080825280602002602001820160405280156103aa578160200160208202803683370190505b50905060005b85518110156104db5760006001600160a01b03168682815181106103d6576103d6611b28565b60200260200101516001600160a01b03160361044e5760405162461bcd60e51b815260206004820152603160248201527f455243313135353a2062617463682062616c616e636520717565727920666f7260448201527020746865207a65726f206164647265737360781b60648201526084016102a8565b82600086838151811061046357610463611b28565b60200260200101518152602001908152602001600020600087838151811061048d5761048d611b28565b60200260200101516001600160a01b03166001600160a01b03168152602001908152602001600020548282815181106104c8576104c8611b28565b60209081029190910101526001016103b0565b50949350505050565b60006104ef82610c6a565b92915050565b7fc0ea367cb0174dd5521cd2372c76f8c13e6c1f832c71f1d6e0cbc185c9cc8ed4546001600160a01b0316331461056e5760405162461bcd60e51b815260206004820152601d60248201527f4f776e61626c653a2073656e646572206d757374206265206f776e657200000060448201526064016102a8565b61057a84848484610c8c565b50505050565b610588610aec565b6001600160a01b0316836001600160a01b0316148061060f57503063e985e9c5846105b1610aec565b6040518363ffffffff1660e01b81526004016105ce929190611b3e565b602060405180830381865afa1580156105eb573d6000803e3d6000fd5b505050506040513d601f19601f8201168201806040525081019061060f9190611b58565b61024b5760405162461bcd60e51b81526004016102a890611adf565b60006104ef82610d8d565b6000610640610aec565b9050826001600160a01b0316816001600160a01b0316036106b55760405162461bcd60e51b815260206004820152602960248201527f455243313135353a2073657474696e6720617070726f76616c20737461747573604482015268103337b91039b2b63360b91b60648201526084016102a8565b816106be610c46565b6001600160a01b0383811660008181526001939093016020908152604080852093891680865293825293849020805460ff1916951515959095179094559151851515815290927f17307eab39ab6107e8899845ad3d59bd9653f200f220920489ca2b5937696c31910160405180910390a3505050565b30331461056e576040516328be0e2160e21b815260040160405180910390fd5b60006104ef82610dab565b6000610769610c46565b6001600160a01b039384166000908152600191909101602090815260408083209490951682529290925250205460ff1690565b60006107a6610aec565b9050806001600160a01b0316866001600160a01b031614806107cd57506107cd868261075f565b6107e95760405162461bcd60e51b81526004016102a890611adf565b6102bf818787878787610dc6565b6107ff610aec565b6001600160a01b0316836001600160a01b0316148061088657503063e985e9c584610828610aec565b6040518363ffffffff1660e01b8152600401610845929190611b3e565b602060405180830381865afa158015610862573d6000803e3d6000fd5b505050506040513d601f19601f820116820180604052508101906108869190611b58565b6102e75760405162461bcd60e51b81526004016102a890611adf565b60006001600160a01b03831661090e5760405162461bcd60e51b815260206004820152602b60248201527f455243313135353a2062616c616e636520717565727920666f7220746865207a60448201526a65726f206164647265737360a81b60648201526084016102a8565b610916610c46565b6000928352602090815260408084206001600160a01b0395909516845293905250205490565b6001600160a01b0383166109625760405162461bcd60e51b81526004016102a890611b75565b80518251146109835760405162461bcd60e51b81526004016102a890611bb8565b600061098d610aec565b90506109ad81856000868660405180602001604052806000815250610de2565b60006109b7610c46565b905060005b8451811015610a8c5760008582815181106109d9576109d9611b28565b602002602001015190508482815181106109f5576109f5611b28565b602090810291909101810151600083815285835260408082206001600160a01b038c16835290935291909120541015610a405760405162461bcd60e51b81526004016102a890611c00565b848281518110610a5257610a52611b28565b602090810291909101810151600092835284825260408084206001600160a01b038b168552909252912080549190910390556001016109bc565b5060006001600160a01b0316856001600160a01b0316836001600160a01b03167f4a39dc06d4c0dbc64b70af90fd698a233a518aa5d07e595d983b8c0526c8f7fb8787604051610add929190611c44565b60405180910390a45050505050565b7f8cb501c3289f0b2347f4ba94b88fa355a4cd5266219cf6f4b7e5f7f3518beee5546000906001600160a01b03163303610b2d575060131936013560601c90565b503390565b90565b610b43868686868686610df0565b6102bf868686868686610f93565b6001600160a01b038316610b775760405162461bcd60e51b81526004016102a890611b75565b6000610b81610aec565b9050610bb181856000610b93876110fe565b610b9c876110fe565b60405180602001604052806000815250610de2565b6000610bbb610c46565b6000858152602091825260408082206001600160a01b038916835292839052902054909150831115610bff5760405162461bcd60e51b81526004016102a890611c00565b6001600160a01b038581166000818152602084815260408083208054899003905580518981529182018890529193861691600080516020611f638339815191529101610add565b7f93d5f1e3ad87f1fc4313940b5c964ec29137b7e8ef5c0b76f7e2c77f7f0e032490565b600080610c75611149565b600093845260205260409092205491909111919050565b6000610c96610aec565b90506001600160a01b038516610cf85760405162461bcd60e51b815260206004820152602160248201527f455243313135353a206d696e7420746f20746865207a65726f206164647265736044820152607360f81b60648201526084016102a8565b610d1781600087610d08886110fe565b610d11886110fe565b87610de2565b82610d20610c46565b6000868152602091825260408082206001600160a01b038a1683529092529081208054909190610d51908490611c88565b909155505060408051858152602081018590526001600160a01b038088169260009291851691600080516020611f638339815191529101610add565b6000610d97611149565b600092835260010160205250604090205490565b6000610db5611149565b600092835260205250604090205490565b610dd486868686868661116d565b6102bf86868686868661127b565b6102bf86868686868661133d565b6001600160a01b038416610e165760405162461bcd60e51b81526004016102a890611ca0565b8151835114610e375760405162461bcd60e51b81526004016102a890611bb8565b610e45868686868686610de2565b6000610e4f610c46565b905060005b8451811015610f32576000858281518110610e7157610e71611b28565b602002602001015190506000858381518110610e8f57610e8f611b28565b602090810291909101810151600084815286835260408082206001600160a01b038e168352909352919091205490915081811015610edf5760405162461bcd60e51b81526004016102a890611ce5565b6000838152602086815260408083206001600160a01b038e811685529252808320938590039093558a168152908120805460019590950194839290610f25908490611c88565b90915550610e5492505050565b50846001600160a01b0316866001600160a01b0316886001600160a01b03167f4a39dc06d4c0dbc64b70af90fd698a233a518aa5d07e595d983b8c0526c8f7fb8787604051610f82929190611c44565b60405180910390a450505050505050565b610fa5846001600160a01b0316611582565b156102bf5760405163bc197c8160e01b81526001600160a01b0385169063bc197c8190610fde9089908990889088908890600401611d7d565b6020604051808303816000875af1925050508015611019575060408051601f3d908101601f1916820190925261101691810190611ddb565b60015b6110c557611025611e05565b806308c379a00361105e5750611039611e20565b806110445750611060565b8060405162461bcd60e51b81526004016102a89190611ea9565b505b60405162461bcd60e51b815260206004820152603460248201527f455243313135353a207472616e7366657220746f206e6f6e20455243313135356044820152732932b1b2b4bb32b91034b6b83632b6b2b73a32b960611b60648201526084016102a8565b6001600160e01b0319811663bc197c8160e01b146110f55760405162461bcd60e51b81526004016102a890611ebc565b50505050505050565b6040805160018082528183019092526060916000919060208083019080368337019050509050828160008151811061113857611138611b28565b602090810291909101015292915050565b7fbef313cd0145ce9ea5e5736c296fdd12e5b8495f1ac6754a82f66705a39baf2090565b6001600160a01b0384166111935760405162461bcd60e51b81526004016102a890611ca0565b6111b18686866111a2876110fe565b6111ab876110fe565b86610de2565b60006111bb610c46565b6000858152602082815260408083206001600160a01b038b168452909152902054909150838110156111ff5760405162461bcd60e51b81526004016102a890611ce5565b6000858152602083815260408083206001600160a01b038b8116855292528083209387900390935587168152908120805485929061123e908490611c88565b909155505060408051858152602081018590526001600160a01b038088169289821692918b1691600080516020611f638339815191529101610f82565b61128d846001600160a01b0316611582565b156102bf5760405163f23a6e6160e01b81526001600160a01b0385169063f23a6e61906112c69089908990889088908890600401611f04565b6020604051808303816000875af1925050508015611301575060408051601f3d908101601f191682019092526112fe91810190611ddb565b60015b61130d57611025611e05565b6001600160e01b0319811663f23a6e6160e01b146110f55760405162461bcd60e51b81526004016102a890611ebc565b6001600160a01b03851661147b576000611355611149565b90506000611361611149565b600101905060005b85518110156114775784818151811061138457611384611b28565b60200260200101518360008884815181106113a1576113a1611b28565b6020026020010151815260200190815260200160002060008282546113c69190611c88565b925050819055508160008783815181106113e2576113e2611b28565b602002602001015181526020019081526020016000205483600088848151811061140e5761140e611b28565b602002602001015181526020019081526020016000205411156114675760405162461bcd60e51b81526020600482015260116024820152700a6aaa0a098b2be8ab0868a8a88be9a82b607b1b60448201526064016102a8565b61147081611f49565b9050611369565b5050505b6001600160a01b0384166102bf576000611493611149565b905060005b84518110156115785760008582815181106114b5576114b5611b28565b6020026020010151905060008583815181106114d3576114d3611b28565b602002602001015190506000846000848152602001908152602001600020549050818110156115555760405162461bcd60e51b815260206004820152602860248201527f455243313135353a206275726e20616d6f756e74206578636565647320746f74604482015267616c537570706c7960c01b60648201526084016102a8565b6000928352602085905260409092209103905561157181611f49565b9050611498565b5050505050505050565b6001600160a01b03163b151590565b80356001600160a01b03811681146115a857600080fd5b919050565b600080604083850312156115c057600080fd5b6115c983611591565b946020939093013593505050565b634e487b7160e01b600052604160045260246000fd5b601f8201601f191681016001600160401b0381118282101715611612576116126115d7565b6040525050565b60006001600160401b03821115611632576116326115d7565b5060051b60200190565b600082601f83011261164d57600080fd5b8135602061165a82611619565b60405161166782826115ed565b83815260059390931b850182019282810191508684111561168757600080fd5b8286015b848110156116a2578035835291830191830161168b565b509695505050505050565b6000806000606084860312156116c257600080fd5b6116cb84611591565b925060208401356001600160401b03808211156116e757600080fd5b6116f38783880161163c565b9350604086013591508082111561170957600080fd5b506117168682870161163c565b9150509250925092565b600082601f83011261173157600080fd5b81356001600160401b0381111561174a5761174a6115d7565b604051611761601f8301601f1916602001826115ed565b81815284602083860101111561177657600080fd5b816020850160208301376000918101602001919091529392505050565b600080600080600060a086880312156117ab57600080fd5b6117b486611591565b94506117c260208701611591565b935060408601356001600160401b03808211156117de57600080fd5b6117ea89838a0161163c565b9450606088013591508082111561180057600080fd5b61180c89838a0161163c565b9350608088013591508082111561182257600080fd5b5061182f88828901611720565b9150509295509295909350565b60008060006060848603121561185157600080fd5b61185a84611591565b95602085013595506040909401359392505050565b6000806040838503121561188257600080fd5b82356001600160401b038082111561189957600080fd5b818501915085601f8301126118ad57600080fd5b813560206118ba82611619565b6040516118c782826115ed565b83815260059390931b85018201928281019150898411156118e757600080fd5b948201945b8386101561190c576118fd86611591565b825294820194908201906118ec565b9650508601359250508082111561192257600080fd5b5061192f8582860161163c565b9150509250929050565b600081518084526020808501945080840160005b838110156119695781518752958201959082019060010161194d565b509495945050505050565b6020815260006102246020830184611939565b60006020828403121561199957600080fd5b5035919050565b600080600080608085870312156119b657600080fd5b6119bf85611591565b9350602085013592506040850135915060608501356001600160401b038111156119e857600080fd5b6119f487828801611720565b91505092959194509250565b8015158114611a0e57600080fd5b50565b60008060408385031215611a2457600080fd5b611a2d83611591565b91506020830135611a3d81611a00565b809150509250929050565b60008060408385031215611a5b57600080fd5b611a6483611591565b9150611a7260208401611591565b90509250929050565b600080600080600060a08688031215611a9357600080fd5b611a9c86611591565b9450611aaa60208701611591565b9350604086013592506060860135915060808601356001600160401b03811115611ad357600080fd5b61182f88828901611720565b60208082526029908201527f455243313135353a2063616c6c6572206973206e6f74206f776e6572206e6f7260408201526808185c1c1c9bdd995960ba1b606082015260800190565b634e487b7160e01b600052603260045260246000fd5b6001600160a01b0392831681529116602082015260400190565b600060208284031215611b6a57600080fd5b815161022481611a00565b60208082526023908201527f455243313135353a206275726e2066726f6d20746865207a65726f206164647260408201526265737360e81b606082015260800190565b60208082526028908201527f455243313135353a2069647320616e6420616d6f756e7473206c656e677468206040820152670dad2e6dac2e8c6d60c31b606082015260800190565b60208082526024908201527f455243313135353a206275726e20616d6f756e7420657863656564732062616c604082015263616e636560e01b606082015260800190565b604081526000611c576040830185611939565b8281036020840152611c698185611939565b95945050505050565b634e487b7160e01b600052601160045260246000fd5b60008219821115611c9b57611c9b611c72565b500190565b60208082526025908201527f455243313135353a207472616e7366657220746f20746865207a65726f206164604082015264647265737360d81b606082015260800190565b6020808252602b908201527f455243313135353a20696e73756666696369656e742062616c616e636573206660408201526a37b9103a3930b739b332b960a91b606082015260800190565b6000815180845260005b81811015611d5657602081850181015186830182015201611d3a565b81811115611d68576000602083870101525b50601f01601f19169290920160200192915050565b6001600160a01b0386811682528516602082015260a060408201819052600090611da990830186611939565b8281036060840152611dbb8186611939565b90508281036080840152611dcf8185611d30565b98975050505050505050565b600060208284031215611ded57600080fd5b81516001600160e01b03198116811461022457600080fd5b600060033d1115610b325760046000803e5060005160e01c90565b600060443d1015611e2e5790565b6040516003193d81016004833e81513d6001600160401b038160248401118184111715611e5d57505050505090565b8285019150815181811115611e755750505050505090565b843d8701016020828501011115611e8f5750505050505090565b611e9e602082860101876115ed565b509095945050505050565b6020815260006102246020830184611d30565b60208082526028908201527f455243313135353a204552433131353552656365697665722072656a656374656040820152676420746f6b656e7360c01b606082015260800190565b6001600160a01b03868116825285166020820152604081018490526060810183905260a060808201819052600090611f3e90830184611d30565b979650505050505050565b600060018201611f5b57611f5b611c72565b506001019056fec3d58168c5ae7397731d063d5bbf3d657854427343f4c083240f7aacaa2d0f62a2646970667358221220618507ea6eb4ceb0689c430f3950f1d17302e6f33c35fc791adcde8e31cb9d5e64736f6c634300080f0033",
  "devdoc": {
    "kind": "dev",
    "methods": {
      "balanceOf(address,uint256)": {
        "params": {
          "account": "address to query",
          "id": "token to query"
        },
        "returns": {
          "_0": "token balance"
        }
      },
      "balanceOfBatch(address[],uint256[])": {
        "params": {
          "accounts": "addresss to query",
          "ids": "tokens to query"
        },
        "returns": {
          "_0": "token balances"
        }
      },
      "exists(uint256)": {
        "details": "Indicates whether any token exist with a given id, or not."
      },
      "isApprovedForAll(address,address)": {
        "params": {
          "account": "address to query for approval granted",
          "operator": "address to query for approval received"
        },
        "returns": {
          "_0": "whether operator is approved to spend tokens held by account"
        }
      },
      "maxSupply(uint256)": {
        "details": "Maximum amount of tokens possible to exist for a given id."
      },
      "mintByFacet(address,uint256,uint256,bytes)": {
        "details": "Creates `amount` new tokens for `to`, of token type `id`. See {ERC1155-_mint}. Requirements: - the caller must be diamond itself (other facets)."
      },
      "mintByOwner(address,uint256,uint256,bytes)": {
        "details": "Creates `amount` new tokens for `to`, of token type `id`. See {ERC1155-_mint}. Requirements: - the caller must be diamond owner."
      },
      "safeBatchTransferFrom(address,address,uint256[],uint256[],bytes)": {
        "params": {
          "amounts": "list of quantities of tokens to transfer",
          "data": "data payload",
          "from": "sender of tokens",
          "ids": "list of token IDs",
          "to": "receiver of tokens"
        }
      },
      "safeTransferFrom(address,address,uint256,uint256,bytes)": {
        "params": {
          "amount": "quantity of tokens to transfer",
          "data": "data payload",
          "from": "sender of tokens",
          "id": "token ID",
          "to": "receiver of tokens"
        }
      },
      "setApprovalForAll(address,bool)": {
        "params": {
          "operator": "address whose approval status to update",
          "status": "whether operator should be considered approved"
        }
      },
      "totalSupply(uint256)": {
        "details": "Total amount of tokens in with a given id."
      }
    },
    "version": 1
  },
  "userdoc": {
    "errors": {
      "SenderIsNotSelf()": [
        {
          "notice": "The caller must be the current contract itself."
        }
      ]
    },
    "kind": "user",
    "methods": {
      "balanceOf(address,uint256)": {
        "notice": "query the balance of given token held by given address"
      },
      "balanceOfBatch(address[],uint256[])": {
        "notice": "query the balances of given tokens held by given addresses"
      },
      "isApprovedForAll(address,address)": {
        "notice": "query approval status of given operator with respect to given address"
      },
      "safeBatchTransferFrom(address,address,uint256[],uint256[],bytes)": {
        "notice": "transfer batch of tokens between given addresses, checking for ERC1155Receiver implementation if applicable"
      },
      "safeTransferFrom(address,address,uint256,uint256,bytes)": {
        "notice": "transfer tokens between given addresses, checking for ERC1155Receiver implementation if applicable"
      },
      "setApprovalForAll(address,bool)": {
        "notice": "grant approval to or revoke approval from given operator to spend held tokens"
      }
    },
    "version": 1
  },
  "storageLayout": {
    "storage": [],
    "types": null
  }
}