{
  "address": "0xf5A75c51a5Eec837feA1F0e774969acb2CBbBe9F",
  "abi": [
    {
      "inputs": [],
      "name": "SenderIsNotSelf",
      "type": "error"
    },
    {
      "anonymous": false,
      "inputs": [
        {
          "indexed": true,
          "internalType": "address",
          "name": "account",
          "type": "address"
        },
        {
          "indexed": true,
          "internalType": "address",
          "name": "operator",
          "type": "address"
        },
        {
          "indexed": false,
          "internalType": "bool",
          "name": "approved",
          "type": "bool"
        }
      ],
      "name": "ApprovalForAll",
      "type": "event"
    },
    {
      "anonymous": false,
      "inputs": [
        {
          "indexed": true,
          "internalType": "address",
          "name": "previousOwner",
          "type": "address"
        },
        {
          "indexed": true,
          "internalType": "address",
          "name": "newOwner",
          "type": "address"
        }
      ],
      "name": "OwnershipTransferred",
      "type": "event"
    },
    {
      "anonymous": false,
      "inputs": [
        {
          "indexed": true,
          "internalType": "address",
          "name": "operator",
          "type": "address"
        },
        {
          "indexed": true,
          "internalType": "address",
          "name": "from",
          "type": "address"
        },
        {
          "indexed": true,
          "internalType": "address",
          "name": "to",
          "type": "address"
        },
        {
          "indexed": false,
          "internalType": "uint256[]",
          "name": "ids",
          "type": "uint256[]"
        },
        {
          "indexed": false,
          "internalType": "uint256[]",
          "name": "values",
          "type": "uint256[]"
        }
      ],
      "name": "TransferBatch",
      "type": "event"
    },
    {
      "anonymous": false,
      "inputs": [
        {
          "indexed": true,
          "internalType": "address",
          "name": "operator",
          "type": "address"
        },
        {
          "indexed": true,
          "internalType": "address",
          "name": "from",
          "type": "address"
        },
        {
          "indexed": true,
          "internalType": "address",
          "name": "to",
          "type": "address"
        },
        {
          "indexed": false,
          "internalType": "uint256",
          "name": "id",
          "type": "uint256"
        },
        {
          "indexed": false,
          "internalType": "uint256",
          "name": "value",
          "type": "uint256"
        }
      ],
      "name": "TransferSingle",
      "type": "event"
    },
    {
      "inputs": [
        {
          "internalType": "address",
          "name": "account",
          "type": "address"
        },
        {
          "internalType": "uint256",
          "name": "id",
          "type": "uint256"
        }
      ],
      "name": "balanceOf",
      "outputs": [
        {
          "internalType": "uint256",
          "name": "",
          "type": "uint256"
        }
      ],
      "stateMutability": "view",
      "type": "function"
    },
    {
      "inputs": [
        {
          "internalType": "address[]",
          "name": "accounts",
          "type": "address[]"
        },
        {
          "internalType": "uint256[]",
          "name": "ids",
          "type": "uint256[]"
        }
      ],
      "name": "balanceOfBatch",
      "outputs": [
        {
          "internalType": "uint256[]",
          "name": "",
          "type": "uint256[]"
        }
      ],
      "stateMutability": "view",
      "type": "function"
    },
    {
      "inputs": [
        {
          "internalType": "address",
          "name": "account",
          "type": "address"
        },
        {
          "internalType": "address",
          "name": "operator",
          "type": "address"
        }
      ],
      "name": "isApprovedForAll",
      "outputs": [
        {
          "internalType": "bool",
          "name": "",
          "type": "bool"
        }
      ],
      "stateMutability": "view",
      "type": "function"
    },
    {
      "inputs": [
        {
          "internalType": "address",
          "name": "account",
          "type": "address"
        },
        {
          "internalType": "uint256[]",
          "name": "ticketTokenIds",
          "type": "uint256[]"
        }
      ],
      "name": "locked",
      "outputs": [
        {
          "internalType": "uint256[]",
          "name": "",
          "type": "uint256[]"
        }
      ],
      "stateMutability": "view",
      "type": "function"
    },
    {
      "inputs": [
        {
          "internalType": "address",
          "name": "account",
          "type": "address"
        },
        {
          "internalType": "uint256",
          "name": "tokenId",
          "type": "uint256"
        }
      ],
      "name": "locked",
      "outputs": [
        {
          "internalType": "uint256",
          "name": "",
          "type": "uint256"
        }
      ],
      "stateMutability": "view",
      "type": "function"
    },
    {
      "inputs": [
        {
          "internalType": "address",
          "name": "to",
          "type": "address"
        },
        {
          "internalType": "uint256",
          "name": "id",
          "type": "uint256"
        },
        {
          "internalType": "uint256",
          "name": "amount",
          "type": "uint256"
        },
        {
          "internalType": "bytes",
          "name": "data",
          "type": "bytes"
        }
      ],
      "name": "mintByFacet",
      "outputs": [],
      "stateMutability": "nonpayable",
      "type": "function"
    },
    {
      "inputs": [
        {
          "internalType": "address",
          "name": "to",
          "type": "address"
        },
        {
          "internalType": "uint256",
          "name": "id",
          "type": "uint256"
        },
        {
          "internalType": "uint256",
          "name": "amount",
          "type": "uint256"
        },
        {
          "internalType": "bytes",
          "name": "data",
          "type": "bytes"
        }
      ],
      "name": "mintByOwner",
      "outputs": [],
      "stateMutability": "nonpayable",
      "type": "function"
    },
    {
      "inputs": [
        {
          "internalType": "address",
          "name": "from",
          "type": "address"
        },
        {
          "internalType": "address",
          "name": "to",
          "type": "address"
        },
        {
          "internalType": "uint256[]",
          "name": "ids",
          "type": "uint256[]"
        },
        {
          "internalType": "uint256[]",
          "name": "amounts",
          "type": "uint256[]"
        },
        {
          "internalType": "bytes",
          "name": "data",
          "type": "bytes"
        }
      ],
      "name": "safeBatchTransferFrom",
      "outputs": [],
      "stateMutability": "nonpayable",
      "type": "function"
    },
    {
      "inputs": [
        {
          "internalType": "address",
          "name": "from",
          "type": "address"
        },
        {
          "internalType": "address",
          "name": "to",
          "type": "address"
        },
        {
          "internalType": "uint256",
          "name": "id",
          "type": "uint256"
        },
        {
          "internalType": "uint256",
          "name": "amount",
          "type": "uint256"
        },
        {
          "internalType": "bytes",
          "name": "data",
          "type": "bytes"
        }
      ],
      "name": "safeTransferFrom",
      "outputs": [],
      "stateMutability": "nonpayable",
      "type": "function"
    },
    {
      "inputs": [
        {
          "internalType": "address",
          "name": "operator",
          "type": "address"
        },
        {
          "internalType": "bool",
          "name": "status",
          "type": "bool"
        }
      ],
      "name": "setApprovalForAll",
      "outputs": [],
      "stateMutability": "nonpayable",
      "type": "function"
    }
  ],
  "transactionHash": "0xd8d5ecc63e01aec7cc7fd9ae039c7c5038cf9a740253b6624a184028aaf979eb",
  "args": [],
  "numDeployments": 2,
  "solcInputHash": "91d6e3f6f6454e9c575fbf169d898653",
  "bytecode": "0x608060405234801561001057600080fd5b506118ff806100206000396000f3fe608060405234801561001057600080fd5b506004361061008d5760003560e01c8062fdd58e146100925780632eb2c2d6146100b85780634e1273f4146100cd5780635135bec1146100ed578063a22cb46514610100578063a91a988a14610113578063b164884b14610126578063bf7bab7314610139578063e985e9c51461014c578063f242432a1461016f575b600080fd5b6100a56100a0366004611049565b610182565b6040519081526020015b60405180910390f35b6100cb6100c63660046111bc565b610195565b005b6100e06100db366004611265565b610201565b6040516100af919061136a565b6100cb6100fb36600461137d565b6103f3565b6100cb61010e3660046113dd565b61047e565b6100e0610121366004611419565b61057c565b6100cb61013436600461137d565b610620565b6100a5610147366004611049565b610640565b61015f61015a36600461149e565b61064c565b60405190151581526020016100af565b6100cb61017d3660046114d1565b610689565b600061018e83836106e4565b9392505050565b600061019f61077e565b9050806001600160a01b0316866001600160a01b031614806101c657506101c6868261064c565b6101eb5760405162461bcd60e51b81526004016101e290611535565b60405180910390fd5b6101f98187878787876107c7565b505050505050565b606081518351146102665760405162461bcd60e51b815260206004820152602960248201527f455243313135353a206163636f756e747320616e6420696473206c656e677468604482015268040dad2e6dac2e8c6d60bb1b60648201526084016101e2565b60006102706107e3565b6000019050600084516001600160401b0381111561029057610290611073565b6040519080825280602002602001820160405280156102b9578160200160208202803683370190505b50905060005b85518110156103ea5760006001600160a01b03168682815181106102e5576102e561157e565b60200260200101516001600160a01b03160361035d5760405162461bcd60e51b815260206004820152603160248201527f455243313135353a2062617463682062616c616e636520717565727920666f7260448201527020746865207a65726f206164647265737360781b60648201526084016101e2565b8260008683815181106103725761037261157e565b60200260200101518152602001908152602001600020600087838151811061039c5761039c61157e565b60200260200101516001600160a01b03166001600160a01b03168152602001908152602001600020548282815181106103d7576103d761157e565b60209081029190910101526001016102bf565b50949350505050565b7fc0ea367cb0174dd5521cd2372c76f8c13e6c1f832c71f1d6e0cbc185c9cc8ed4546001600160a01b0316331461046c5760405162461bcd60e51b815260206004820152601d60248201527f4f776e61626c653a2073656e646572206d757374206265206f776e657200000060448201526064016101e2565b61047884848484610807565b50505050565b600061048861077e565b9050826001600160a01b0316816001600160a01b0316036104fd5760405162461bcd60e51b815260206004820152602960248201527f455243313135353a2073657474696e6720617070726f76616c20737461747573604482015268103337b91039b2b63360b91b60648201526084016101e2565b816105066107e3565b6001600160a01b0383811660008181526001939093016020908152604080852093891680865293825293849020805460ff1916951515959095179094559151851515815290927f17307eab39ab6107e8899845ad3d59bd9653f200f220920489ca2b5937696c31910160405180910390a3505050565b60606000826001600160401b0381111561059857610598611073565b6040519080825280602002602001820160405280156105c1578160200160208202803683370190505b50905060005b838110156103ea576105f1868686848181106105e5576105e561157e565b90506020020135610924565b8282815181106106035761060361157e565b602090810291909101015280610618816115aa565b9150506105c7565b30331461046c576040516328be0e2160e21b815260040160405180910390fd5b600061018e8383610924565b60006106566107e3565b6001600160a01b039384166000908152600191909101602090815260408083209490951682529290925250205460ff1690565b600061069361077e565b9050806001600160a01b0316866001600160a01b031614806106ba57506106ba868261064c565b6106d65760405162461bcd60e51b81526004016101e290611535565b6101f9818787878787610959565b60006001600160a01b0383166107505760405162461bcd60e51b815260206004820152602b60248201527f455243313135353a2062616c616e636520717565727920666f7220746865207a60448201526a65726f206164647265737360a81b60648201526084016101e2565b6107586107e3565b6000928352602090815260408084206001600160a01b0395909516845293905250205490565b7f8cb501c3289f0b2347f4ba94b88fa355a4cd5266219cf6f4b7e5f7f3518beee5546000906001600160a01b031633036107bf575060131936013560601c90565b503390565b90565b6107d5868686868686610975565b6101f9868686868686610b59565b7f93d5f1e3ad87f1fc4313940b5c964ec29137b7e8ef5c0b76f7e2c77f7f0e032490565b600061081161077e565b90506001600160a01b0385166108735760405162461bcd60e51b815260206004820152602160248201527f455243313135353a206d696e7420746f20746865207a65726f206164647265736044820152607360f81b60648201526084016101e2565b6108928160008761088388610cc4565b61088c88610cc4565b87610d0f565b8261089b6107e3565b6000868152602091825260408082206001600160a01b038a16835290925290812080549091906108cc9084906115c3565b909155505060408051858152602081018590526001600160a01b0380881692600092918516917fc3d58168c5ae7397731d063d5bbf3d657854427343f4c083240f7aacaa2d0f62910160405180910390a45050505050565b60008061092f610d1d565b6001600160a01b038516600090815260209182526040808220868352909252205491505092915050565b610967868686868686610d41565b6101f9868686868686610e61565b6001600160a01b03841661099b5760405162461bcd60e51b81526004016101e2906115db565b81518351146109fd5760405162461bcd60e51b815260206004820152602860248201527f455243313135353a2069647320616e6420616d6f756e7473206c656e677468206044820152670dad2e6dac2e8c6d60c31b60648201526084016101e2565b610a0b868686868686610d0f565b6000610a156107e3565b905060005b8451811015610af8576000858281518110610a3757610a3761157e565b602002602001015190506000858381518110610a5557610a5561157e565b602090810291909101810151600084815286835260408082206001600160a01b038e168352909352919091205490915081811015610aa55760405162461bcd60e51b81526004016101e290611620565b6000838152602086815260408083206001600160a01b038e811685529252808320938590039093558a168152908120805460019590950194839290610aeb9084906115c3565b90915550610a1a92505050565b50846001600160a01b0316866001600160a01b0316886001600160a01b03167f4a39dc06d4c0dbc64b70af90fd698a233a518aa5d07e595d983b8c0526c8f7fb8787604051610b4892919061166b565b60405180910390a450505050505050565b610b6b846001600160a01b0316610f23565b156101f95760405163bc197c8160e01b81526001600160a01b0385169063bc197c8190610ba490899089908890889088906004016116e6565b6020604051808303816000875af1925050508015610bdf575060408051601f3d908101601f19168201909252610bdc91810190611744565b60015b610c8b57610beb61176e565b806308c379a003610c245750610bff611789565b80610c0a5750610c26565b8060405162461bcd60e51b81526004016101e29190611812565b505b60405162461bcd60e51b815260206004820152603460248201527f455243313135353a207472616e7366657220746f206e6f6e20455243313135356044820152732932b1b2b4bb32b91034b6b83632b6b2b73a32b960611b60648201526084016101e2565b6001600160e01b0319811663bc197c8160e01b14610cbb5760405162461bcd60e51b81526004016101e290611825565b50505050505050565b60408051600180825281830190925260609160009190602080830190803683370190505090508281600081518110610cfe57610cfe61157e565b602090810291909101015292915050565b6101f9868686868686610f32565b7ff169d830093e543c5e2a4df1e47aae23a77e62aa0d6ca19e1e33e6e22e526f9f90565b6001600160a01b038416610d675760405162461bcd60e51b81526004016101e2906115db565b610d85868686610d7687610cc4565b610d7f87610cc4565b86610d0f565b6000610d8f6107e3565b6000858152602082815260408083206001600160a01b038b16845290915290205490915083811015610dd35760405162461bcd60e51b81526004016101e290611620565b6000858152602083815260408083206001600160a01b038b81168552925280832093879003909355871681529081208054859290610e129084906115c3565b909155505060408051858152602081018590526001600160a01b038088169289821692918b16917fc3d58168c5ae7397731d063d5bbf3d657854427343f4c083240f7aacaa2d0f629101610b48565b610e73846001600160a01b0316610f23565b156101f95760405163f23a6e6160e01b81526001600160a01b0385169063f23a6e6190610eac908990899088908890889060040161186d565b6020604051808303816000875af1925050508015610ee7575060408051601f3d908101601f19168201909252610ee491810190611744565b60015b610ef357610beb61176e565b6001600160e01b0319811663f23a6e6160e01b14610cbb5760405162461bcd60e51b81526004016101e290611825565b6001600160a01b03163b151590565b60005b835181101561102757828181518110610f5057610f5061157e565b6020026020010151610f60610d1d565b6000016000886001600160a01b03166001600160a01b031681526020019081526020016000206000868481518110610f9a57610f9a61157e565b6020026020010151815260200190815260200160002054610fd488878581518110610fc757610fc761157e565b60200260200101516106e4565b610fde91906118b2565b10156110155760405162461bcd60e51b81526020600482015260066024820152651313d0d2d15160d21b60448201526064016101e2565b8061101f816115aa565b915050610f35565b506101f9565b80356001600160a01b038116811461104457600080fd5b919050565b6000806040838503121561105c57600080fd5b6110658361102d565b946020939093013593505050565b634e487b7160e01b600052604160045260246000fd5b601f8201601f191681016001600160401b03811182821017156110ae576110ae611073565b6040525050565b60006001600160401b038211156110ce576110ce611073565b5060051b60200190565b600082601f8301126110e957600080fd5b813560206110f6826110b5565b6040516111038282611089565b83815260059390931b850182019282810191508684111561112357600080fd5b8286015b8481101561113e5780358352918301918301611127565b509695505050505050565b600082601f83011261115a57600080fd5b81356001600160401b0381111561117357611173611073565b60405161118a601f8301601f191660200182611089565b81815284602083860101111561119f57600080fd5b816020850160208301376000918101602001919091529392505050565b600080600080600060a086880312156111d457600080fd5b6111dd8661102d565b94506111eb6020870161102d565b935060408601356001600160401b038082111561120757600080fd5b61121389838a016110d8565b9450606088013591508082111561122957600080fd5b61123589838a016110d8565b9350608088013591508082111561124b57600080fd5b5061125888828901611149565b9150509295509295909350565b6000806040838503121561127857600080fd5b82356001600160401b038082111561128f57600080fd5b818501915085601f8301126112a357600080fd5b813560206112b0826110b5565b6040516112bd8282611089565b83815260059390931b85018201928281019150898411156112dd57600080fd5b948201945b83861015611302576112f38661102d565b825294820194908201906112e2565b9650508601359250508082111561131857600080fd5b50611325858286016110d8565b9150509250929050565b600081518084526020808501945080840160005b8381101561135f57815187529582019590820190600101611343565b509495945050505050565b60208152600061018e602083018461132f565b6000806000806080858703121561139357600080fd5b61139c8561102d565b9350602085013592506040850135915060608501356001600160401b038111156113c557600080fd5b6113d187828801611149565b91505092959194509250565b600080604083850312156113f057600080fd5b6113f98361102d565b91506020830135801515811461140e57600080fd5b809150509250929050565b60008060006040848603121561142e57600080fd5b6114378461102d565b925060208401356001600160401b038082111561145357600080fd5b818601915086601f83011261146757600080fd5b81358181111561147657600080fd5b8760208260051b850101111561148b57600080fd5b6020830194508093505050509250925092565b600080604083850312156114b157600080fd5b6114ba8361102d565b91506114c86020840161102d565b90509250929050565b600080600080600060a086880312156114e957600080fd5b6114f28661102d565b94506115006020870161102d565b9350604086013592506060860135915060808601356001600160401b0381111561152957600080fd5b61125888828901611149565b60208082526029908201527f455243313135353a2063616c6c6572206973206e6f74206f776e6572206e6f7260408201526808185c1c1c9bdd995960ba1b606082015260800190565b634e487b7160e01b600052603260045260246000fd5b634e487b7160e01b600052601160045260246000fd5b6000600182016115bc576115bc611594565b5060010190565b600082198211156115d6576115d6611594565b500190565b60208082526025908201527f455243313135353a207472616e7366657220746f20746865207a65726f206164604082015264647265737360d81b606082015260800190565b6020808252602b908201527f455243313135353a20696e73756666696369656e742062616c616e636573206660408201526a37b9103a3930b739b332b960a91b606082015260800190565b60408152600061167e604083018561132f565b8281036020840152611690818561132f565b95945050505050565b6000815180845260005b818110156116bf576020818501810151868301820152016116a3565b818111156116d1576000602083870101525b50601f01601f19169290920160200192915050565b6001600160a01b0386811682528516602082015260a0604082018190526000906117129083018661132f565b8281036060840152611724818661132f565b905082810360808401526117388185611699565b98975050505050505050565b60006020828403121561175657600080fd5b81516001600160e01b03198116811461018e57600080fd5b600060033d11156107c45760046000803e5060005160e01c90565b600060443d10156117975790565b6040516003193d81016004833e81513d6001600160401b0381602484011181841117156117c657505050505090565b82850191508151818111156117de5750505050505090565b843d87010160208285010111156117f85750505050505090565b61180760208286010187611089565b509095945050505050565b60208152600061018e6020830184611699565b60208082526028908201527f455243313135353a204552433131353552656365697665722072656a656374656040820152676420746f6b656e7360c01b606082015260800190565b6001600160a01b03868116825285166020820152604081018490526060810183905260a0608082018190526000906118a790830184611699565b979650505050505050565b6000828210156118c4576118c4611594565b50039056fea2646970667358221220b659c91ebc69d6ed835f829ca01a6d40a3b8bea4a875dfb8e8c6d87c7e25dd5c64736f6c634300080f0033",
  "devdoc": {
    "kind": "dev",
    "methods": {
      "balanceOf(address,uint256)": {
        "params": {
          "account": "address to query",
          "id": "token to query"
        },
        "returns": {
          "_0": "token balance"
        }
      },
      "balanceOfBatch(address[],uint256[])": {
        "params": {
          "accounts": "addresss to query",
          "ids": "tokens to query"
        },
        "returns": {
          "_0": "token balances"
        }
      },
      "isApprovedForAll(address,address)": {
        "params": {
          "account": "address to query for approval granted",
          "operator": "address to query for approval received"
        },
        "returns": {
          "_0": "whether operator is approved to spend tokens held by account"
        }
      },
      "mintByFacet(address,uint256,uint256,bytes)": {
        "details": "Creates `amount` new tokens for `to`, of token type `id`. See {ERC1155-_mint}. Requirements: - the caller must be diamond itself (other facets)."
      },
      "mintByOwner(address,uint256,uint256,bytes)": {
        "details": "Creates `amount` new tokens for `to`, of token type `id`. See {ERC1155-_mint}. Requirements: - the caller must be diamond owner."
      },
      "safeBatchTransferFrom(address,address,uint256[],uint256[],bytes)": {
        "params": {
          "amounts": "list of quantities of tokens to transfer",
          "data": "data payload",
          "from": "sender of tokens",
          "ids": "list of token IDs",
          "to": "receiver of tokens"
        }
      },
      "safeTransferFrom(address,address,uint256,uint256,bytes)": {
        "params": {
          "amount": "quantity of tokens to transfer",
          "data": "data payload",
          "from": "sender of tokens",
          "id": "token ID",
          "to": "receiver of tokens"
        }
      },
      "setApprovalForAll(address,bool)": {
        "params": {
          "operator": "address whose approval status to update",
          "status": "whether operator should be considered approved"
        }
      }
    },
    "version": 1
  },
  "userdoc": {
    "errors": {
      "SenderIsNotSelf()": [
        {
          "notice": "The caller must be the current contract itself."
        }
      ]
    },
    "kind": "user",
    "methods": {
      "balanceOf(address,uint256)": {
        "notice": "query the balance of given token held by given address"
      },
      "balanceOfBatch(address[],uint256[])": {
        "notice": "query the balances of given tokens held by given addresses"
      },
      "isApprovedForAll(address,address)": {
        "notice": "query approval status of given operator with respect to given address"
      },
      "safeBatchTransferFrom(address,address,uint256[],uint256[],bytes)": {
        "notice": "transfer batch of tokens between given addresses, checking for ERC1155Receiver implementation if applicable"
      },
      "safeTransferFrom(address,address,uint256,uint256,bytes)": {
        "notice": "transfer tokens between given addresses, checking for ERC1155Receiver implementation if applicable"
      },
      "setApprovalForAll(address,bool)": {
        "notice": "grant approval to or revoke approval from given operator to spend held tokens"
      }
    },
    "version": 1
  },
  "storageLayout": {
    "storage": [],
    "types": null
  }
}