{
  "address": "0x59DBC28fc7059590947eE3eD9423B850Bb865911",
  "abi": [
    {
      "inputs": [],
      "name": "SenderIsNotSelf",
      "type": "error"
    },
    {
      "anonymous": false,
      "inputs": [
        {
          "indexed": true,
          "internalType": "address",
          "name": "account",
          "type": "address"
        },
        {
          "indexed": true,
          "internalType": "address",
          "name": "operator",
          "type": "address"
        },
        {
          "indexed": false,
          "internalType": "bool",
          "name": "approved",
          "type": "bool"
        }
      ],
      "name": "ApprovalForAll",
      "type": "event"
    },
    {
      "anonymous": false,
      "inputs": [
        {
          "indexed": true,
          "internalType": "address",
          "name": "operator",
          "type": "address"
        },
        {
          "indexed": true,
          "internalType": "address",
          "name": "from",
          "type": "address"
        },
        {
          "indexed": true,
          "internalType": "address",
          "name": "to",
          "type": "address"
        },
        {
          "indexed": false,
          "internalType": "uint256[]",
          "name": "ids",
          "type": "uint256[]"
        },
        {
          "indexed": false,
          "internalType": "uint256[]",
          "name": "values",
          "type": "uint256[]"
        }
      ],
      "name": "TransferBatch",
      "type": "event"
    },
    {
      "anonymous": false,
      "inputs": [
        {
          "indexed": true,
          "internalType": "address",
          "name": "operator",
          "type": "address"
        },
        {
          "indexed": true,
          "internalType": "address",
          "name": "from",
          "type": "address"
        },
        {
          "indexed": true,
          "internalType": "address",
          "name": "to",
          "type": "address"
        },
        {
          "indexed": false,
          "internalType": "uint256",
          "name": "id",
          "type": "uint256"
        },
        {
          "indexed": false,
          "internalType": "uint256",
          "name": "value",
          "type": "uint256"
        }
      ],
      "name": "TransferSingle",
      "type": "event"
    },
    {
      "inputs": [
        {
          "internalType": "address",
          "name": "account",
          "type": "address"
        },
        {
          "internalType": "uint256",
          "name": "id",
          "type": "uint256"
        }
      ],
      "name": "balanceOf",
      "outputs": [
        {
          "internalType": "uint256",
          "name": "",
          "type": "uint256"
        }
      ],
      "stateMutability": "view",
      "type": "function"
    },
    {
      "inputs": [
        {
          "internalType": "address[]",
          "name": "accounts",
          "type": "address[]"
        },
        {
          "internalType": "uint256[]",
          "name": "ids",
          "type": "uint256[]"
        }
      ],
      "name": "balanceOfBatch",
      "outputs": [
        {
          "internalType": "uint256[]",
          "name": "",
          "type": "uint256[]"
        }
      ],
      "stateMutability": "view",
      "type": "function"
    },
    {
      "inputs": [
        {
          "internalType": "address",
          "name": "account",
          "type": "address"
        },
        {
          "internalType": "uint256",
          "name": "id",
          "type": "uint256"
        },
        {
          "internalType": "uint256",
          "name": "value",
          "type": "uint256"
        }
      ],
      "name": "burn",
      "outputs": [],
      "stateMutability": "nonpayable",
      "type": "function"
    },
    {
      "inputs": [
        {
          "internalType": "address",
          "name": "account",
          "type": "address"
        },
        {
          "internalType": "uint256[]",
          "name": "ids",
          "type": "uint256[]"
        },
        {
          "internalType": "uint256[]",
          "name": "values",
          "type": "uint256[]"
        }
      ],
      "name": "burnBatch",
      "outputs": [],
      "stateMutability": "nonpayable",
      "type": "function"
    },
    {
      "inputs": [
        {
          "internalType": "address",
          "name": "account",
          "type": "address"
        },
        {
          "internalType": "uint256[]",
          "name": "ids",
          "type": "uint256[]"
        },
        {
          "internalType": "uint256[]",
          "name": "values",
          "type": "uint256[]"
        }
      ],
      "name": "burnBatchByFacet",
      "outputs": [],
      "stateMutability": "nonpayable",
      "type": "function"
    },
    {
      "inputs": [
        {
          "internalType": "address",
          "name": "account",
          "type": "address"
        },
        {
          "internalType": "uint256",
          "name": "id",
          "type": "uint256"
        },
        {
          "internalType": "uint256",
          "name": "amount",
          "type": "uint256"
        }
      ],
      "name": "burnByFacet",
      "outputs": [],
      "stateMutability": "nonpayable",
      "type": "function"
    },
    {
      "inputs": [],
      "name": "burnablePausedUntil",
      "outputs": [
        {
          "internalType": "uint256",
          "name": "",
          "type": "uint256"
        }
      ],
      "stateMutability": "view",
      "type": "function"
    },
    {
      "inputs": [
        {
          "internalType": "uint256",
          "name": "id",
          "type": "uint256"
        }
      ],
      "name": "exists",
      "outputs": [
        {
          "internalType": "bool",
          "name": "",
          "type": "bool"
        }
      ],
      "stateMutability": "view",
      "type": "function"
    },
    {
      "inputs": [
        {
          "internalType": "uint256[]",
          "name": "ids",
          "type": "uint256[]"
        }
      ],
      "name": "existsBatch",
      "outputs": [
        {
          "internalType": "bool[]",
          "name": "",
          "type": "bool[]"
        }
      ],
      "stateMutability": "view",
      "type": "function"
    },
    {
      "inputs": [
        {
          "internalType": "address",
          "name": "account",
          "type": "address"
        },
        {
          "internalType": "address",
          "name": "operator",
          "type": "address"
        }
      ],
      "name": "isApprovedForAll",
      "outputs": [
        {
          "internalType": "bool",
          "name": "",
          "type": "bool"
        }
      ],
      "stateMutability": "view",
      "type": "function"
    },
    {
      "inputs": [
        {
          "internalType": "address",
          "name": "account",
          "type": "address"
        },
        {
          "internalType": "uint256",
          "name": "id",
          "type": "uint256"
        },
        {
          "internalType": "uint256",
          "name": "amount",
          "type": "uint256"
        }
      ],
      "name": "lockByFacet",
      "outputs": [],
      "stateMutability": "nonpayable",
      "type": "function"
    },
    {
      "inputs": [
        {
          "internalType": "address",
          "name": "account",
          "type": "address"
        },
        {
          "internalType": "uint256[]",
          "name": "ticketTokenIds",
          "type": "uint256[]"
        }
      ],
      "name": "locked",
      "outputs": [
        {
          "internalType": "uint256[]",
          "name": "",
          "type": "uint256[]"
        }
      ],
      "stateMutability": "view",
      "type": "function"
    },
    {
      "inputs": [
        {
          "internalType": "address",
          "name": "account",
          "type": "address"
        },
        {
          "internalType": "uint256",
          "name": "tokenId",
          "type": "uint256"
        }
      ],
      "name": "locked",
      "outputs": [
        {
          "internalType": "uint256",
          "name": "",
          "type": "uint256"
        }
      ],
      "stateMutability": "view",
      "type": "function"
    },
    {
      "inputs": [
        {
          "internalType": "uint256",
          "name": "id",
          "type": "uint256"
        }
      ],
      "name": "maxSupply",
      "outputs": [
        {
          "internalType": "uint256",
          "name": "",
          "type": "uint256"
        }
      ],
      "stateMutability": "view",
      "type": "function"
    },
    {
      "inputs": [
        {
          "internalType": "uint256[]",
          "name": "ids",
          "type": "uint256[]"
        }
      ],
      "name": "maxSupplyBatch",
      "outputs": [
        {
          "internalType": "uint256[]",
          "name": "",
          "type": "uint256[]"
        }
      ],
      "stateMutability": "view",
      "type": "function"
    },
    {
      "inputs": [
        {
          "internalType": "address[]",
          "name": "tos",
          "type": "address[]"
        },
        {
          "internalType": "uint256[]",
          "name": "ids",
          "type": "uint256[]"
        },
        {
          "internalType": "uint256[]",
          "name": "amounts",
          "type": "uint256[]"
        },
        {
          "internalType": "bytes[]",
          "name": "datas",
          "type": "bytes[]"
        }
      ],
      "name": "mintByFacet",
      "outputs": [],
      "stateMutability": "nonpayable",
      "type": "function"
    },
    {
      "inputs": [
        {
          "internalType": "address",
          "name": "to",
          "type": "address"
        },
        {
          "internalType": "uint256",
          "name": "id",
          "type": "uint256"
        },
        {
          "internalType": "uint256",
          "name": "amount",
          "type": "uint256"
        },
        {
          "internalType": "bytes",
          "name": "data",
          "type": "bytes"
        }
      ],
      "name": "mintByFacet",
      "outputs": [],
      "stateMutability": "nonpayable",
      "type": "function"
    },
    {
      "inputs": [
        {
          "internalType": "address",
          "name": "from",
          "type": "address"
        },
        {
          "internalType": "address",
          "name": "to",
          "type": "address"
        },
        {
          "internalType": "uint256[]",
          "name": "ids",
          "type": "uint256[]"
        },
        {
          "internalType": "uint256[]",
          "name": "amounts",
          "type": "uint256[]"
        },
        {
          "internalType": "bytes",
          "name": "data",
          "type": "bytes"
        }
      ],
      "name": "safeBatchTransferFrom",
      "outputs": [],
      "stateMutability": "nonpayable",
      "type": "function"
    },
    {
      "inputs": [
        {
          "internalType": "address",
          "name": "from",
          "type": "address"
        },
        {
          "internalType": "address",
          "name": "to",
          "type": "address"
        },
        {
          "internalType": "uint256",
          "name": "id",
          "type": "uint256"
        },
        {
          "internalType": "uint256",
          "name": "amount",
          "type": "uint256"
        },
        {
          "internalType": "bytes",
          "name": "data",
          "type": "bytes"
        }
      ],
      "name": "safeTransferFrom",
      "outputs": [],
      "stateMutability": "nonpayable",
      "type": "function"
    },
    {
      "inputs": [
        {
          "internalType": "address",
          "name": "operator",
          "type": "address"
        },
        {
          "internalType": "bool",
          "name": "status",
          "type": "bool"
        }
      ],
      "name": "setApprovalForAll",
      "outputs": [],
      "stateMutability": "nonpayable",
      "type": "function"
    },
    {
      "inputs": [
        {
          "internalType": "uint256",
          "name": "id",
          "type": "uint256"
        }
      ],
      "name": "totalSupply",
      "outputs": [
        {
          "internalType": "uint256",
          "name": "",
          "type": "uint256"
        }
      ],
      "stateMutability": "view",
      "type": "function"
    },
    {
      "inputs": [
        {
          "internalType": "uint256[]",
          "name": "ids",
          "type": "uint256[]"
        }
      ],
      "name": "totalSupplyBatch",
      "outputs": [
        {
          "internalType": "uint256[]",
          "name": "",
          "type": "uint256[]"
        }
      ],
      "stateMutability": "view",
      "type": "function"
    },
    {
      "inputs": [
        {
          "internalType": "address",
          "name": "account",
          "type": "address"
        },
        {
          "internalType": "uint256",
          "name": "id",
          "type": "uint256"
        },
        {
          "internalType": "uint256",
          "name": "amount",
          "type": "uint256"
        }
      ],
      "name": "unlockByFacet",
      "outputs": [],
      "stateMutability": "nonpayable",
      "type": "function"
    }
  ],
  "transactionHash": "0x0785ab1b0994a47dc32e0d6e20ddff8a4e95a0c2e2f04c7df4d31011948f0645",
  "args": [],
  "numDeployments": 4,
  "solcInputHash": "a9fa8c998440b5be2b92171b1128d13c",
  "bytecode": "0x608060405234801561001057600080fd5b50612f71806100206000396000f3fe608060405234801561001057600080fd5b506004361061018c5760003560e01c806377954ac2116100e3578063b164884b1161008c578063e985e9c511610066578063e985e9c514610360578063f242432a146103bb578063f5298aca146103ce57600080fd5b8063b164884b14610327578063bd85b0391461033a578063bf7bab731461034d57600080fd5b8063a22cb465116100bd578063a22cb465146102ee578063a47fe40f14610301578063a91a988a1461031457600080fd5b806377954ac2146102b5578063869f7594146102c8578063983da156146102db57600080fd5b806348f2f5361161014557806352d0a6bb1161011f57806352d0a6bb1461026f5780636708a9901461028f5780636b20c454146102a257600080fd5b806348f2f536146102195780634e1273f41461022c5780634f558e791461024c57600080fd5b80630ad2bbac116101765780630ad2bbac146101cc57806314e35aa4146101df5780632eb2c2d61461020657600080fd5b8062fdd58e146101915780630a13c503146101b7575b600080fd5b6101a461019f366004612471565b6103e1565b6040519081526020015b60405180910390f35b6101ca6101c53660046124e7565b6103f4565b005b6101ca6101da3660046125ab565b61042e565b7f20cb9ad5a22f74f90c7fecbece6b6ab3beb2a63812efb8693c5ff39f2b73ee0f546101a4565b6101ca610214366004612704565b610462565b6101ca610227366004612808565b61054b565b61023f61023a36600461283b565b61057b565b6040516101ae9190612941565b61025f61025a366004612954565b6107a2565b60405190151581526020016101ae565b61028261027d36600461296d565b6107d9565b6040516101ae91906129af565b6101ca61029d366004612808565b6108b8565b6101ca6102b03660046125ab565b6108e3565b61023f6102c336600461296d565b6109e1565b6101a46102d6366004612954565b610ab1565b6101ca6102e9366004612808565b610ae4565b6101ca6102fc366004612a06565b610b0f565b61023f61030f36600461296d565b610c2f565b61023f610322366004612a3d565b610cff565b6101ca610335366004612ad2565b610de6565b6101a4610348366004612954565b610e13565b6101a461035b366004612471565b610e46565b61025f61036e366004612b29565b6001600160a01b0391821660009081527ff9ecf3cb86ac553c70621e3e662b4036163ca34fffb329385fafa0e130cfc1a86020908152604080832093909416825291909152205460ff1690565b6101ca6103c9366004612b5c565b610e8e565b6101ca6103dc366004612808565b610f74565b60006103ed8383611072565b9392505050565b303314610414576040516328be0e2160e21b815260040160405180910390fd5b6104248888888888888888611137565b5050505050505050565b30331461044e576040516328be0e2160e21b815260040160405180910390fd5b61045b8585858585611472565b5050505050565b600061046c611762565b9050806001600160a01b0316866001600160a01b031614806104d257506001600160a01b0380871660009081527ff9ecf3cb86ac553c70621e3e662b4036163ca34fffb329385fafa0e130cfc1a8602090815260408083209385168352929052205460ff165b6105355760405162461bcd60e51b815260206004820152602960248201527f455243313135353a2063616c6c6572206973206e6f74206f776e6572206e6f7260448201526808185c1c1c9bdd995960ba1b60648201526084015b60405180910390fd5b610543818787878787611771565b505050505050565b30331461056b576040516328be0e2160e21b815260040160405180910390fd5b61057683838361178d565b505050565b606081518351146105f45760405162461bcd60e51b815260206004820152602960248201527f455243313135353a206163636f756e747320616e6420696473206c656e67746860448201527f206d69736d617463680000000000000000000000000000000000000000000000606482015260840161052c565b82517ff9ecf3cb86ac553c70621e3e662b4036163ca34fffb329385fafa0e130cfc1a79060009067ffffffffffffffff8111156106335761063361262c565b60405190808252806020026020018201604052801561065c578160200160208202803683370190505b50905060005b85518110156107995760006001600160a01b031686828151811061068857610688612bd4565b60200260200101516001600160a01b03160361070c5760405162461bcd60e51b815260206004820152603160248201527f455243313135353a2062617463682062616c616e636520717565727920666f7260448201527f20746865207a65726f2061646472657373000000000000000000000000000000606482015260840161052c565b82600086838151811061072157610721612bd4565b60200260200101518152602001908152602001600020600087838151811061074b5761074b612bd4565b60200260200101516001600160a01b03166001600160a01b031681526020019081526020016000205482828151811061078657610786612bd4565b6020908102919091010152600101610662565b50949350505050565b60008181527f7056dcda885936c7a9d7c6385902b4ab5fb09024caea98652b7189a5f7a28ea5602052604081205415155b92915050565b606060008267ffffffffffffffff8111156107f6576107f661262c565b60405190808252806020026020018201604052801561081f578160200160208202803683370190505b50905060005b838110156108b05761087c85858381811061084257610842612bd4565b9050602002013560009081527f7056dcda885936c7a9d7c6385902b4ab5fb09024caea98652b7189a5f7a28ea56020526040902054151590565b82828151811061088e5761088e612bd4565b91151560209283029190910190910152806108a881612c00565b915050610825565b509392505050565b3033146108d8576040516328be0e2160e21b815260040160405180910390fd5b61057683838361192b565b6108eb611762565b6001600160a01b0316856001600160a01b0316148061098357503063e985e9c586610914611762565b6040516001600160e01b031960e085901b1681526001600160a01b03928316600482015291166024820152604401602060405180830381865afa15801561095f573d6000803e3d6000fd5b505050506040513d601f19601f820116820180604052508101906109839190612c19565b61044e5760405162461bcd60e51b815260206004820152602960248201527f455243313135353a2063616c6c6572206973206e6f74206f776e6572206e6f7260448201526808185c1c1c9bdd995960ba1b606482015260840161052c565b606060008267ffffffffffffffff8111156109fe576109fe61262c565b604051908082528060200260200182016040528015610a27578160200160208202803683370190505b50905060005b838110156108b057610a82858583818110610a4a57610a4a612bd4565b9050602002013560009081527f7056dcda885936c7a9d7c6385902b4ab5fb09024caea98652b7189a5f7a28ea5602052604090205490565b828281518110610a9457610a94612bd4565b602090810291909101015280610aa981612c00565b915050610a2d565b60008181527f7056dcda885936c7a9d7c6385902b4ab5fb09024caea98652b7189a5f7a28ea660205260408120546107d3565b303314610b04576040516328be0e2160e21b815260040160405180910390fd5b6105768383836119e8565b6000610b19611762565b9050826001600160a01b0316816001600160a01b031603610ba25760405162461bcd60e51b815260206004820152602960248201527f455243313135353a2073657474696e6720617070726f76616c2073746174757360448201527f20666f722073656c660000000000000000000000000000000000000000000000606482015260840161052c565b6001600160a01b0381811660008181527ff9ecf3cb86ac553c70621e3e662b4036163ca34fffb329385fafa0e130cfc1a86020908152604080832094881680845294825291829020805460ff1916871515908117909155825190815291517f17307eab39ab6107e8899845ad3d59bd9653f200f220920489ca2b5937696c319281900390910190a3505050565b606060008267ffffffffffffffff811115610c4c57610c4c61262c565b604051908082528060200260200182016040528015610c75578160200160208202803683370190505b50905060005b838110156108b057610cd0858583818110610c9857610c98612bd4565b9050602002013560009081527f7056dcda885936c7a9d7c6385902b4ab5fb09024caea98652b7189a5f7a28ea6602052604090205490565b828281518110610ce257610ce2612bd4565b602090810291909101015280610cf781612c00565b915050610c7b565b606060008267ffffffffffffffff811115610d1c57610d1c61262c565b604051908082528060200260200182016040528015610d45578160200160208202803683370190505b50905060005b8381101561079957610db786868684818110610d6957610d69612bd4565b905060200201356001600160a01b039190911660009081527f349768cb3869818ef8452552d8520ac7355b35c10a0ff9320e2975b28752782060209081526040808320938352929052205490565b828281518110610dc957610dc9612bd4565b602090810291909101015280610dde81612c00565b915050610d4b565b303314610e06576040516328be0e2160e21b815260040160405180910390fd5b61045b8585858585611aaf565b60008181527f7056dcda885936c7a9d7c6385902b4ab5fb09024caea98652b7189a5f7a28ea560205260408120546107d3565b6001600160a01b03821660009081527f349768cb3869818ef8452552d8520ac7355b35c10a0ff9320e2975b287527820602090815260408083208484529091528120546103ed565b6000610e98611762565b9050806001600160a01b0316876001600160a01b03161480610efe57506001600160a01b0380881660009081527ff9ecf3cb86ac553c70621e3e662b4036163ca34fffb329385fafa0e130cfc1a8602090815260408083209385168352929052205460ff165b610f5c5760405162461bcd60e51b815260206004820152602960248201527f455243313135353a2063616c6c6572206973206e6f74206f776e6572206e6f7260448201526808185c1c1c9bdd995960ba1b606482015260840161052c565b610f6b81888888888888611c36565b50505050505050565b610f7c611762565b6001600160a01b0316836001600160a01b0316148061101457503063e985e9c584610fa5611762565b6040516001600160e01b031960e085901b1681526001600160a01b03928316600482015291166024820152604401602060405180830381865afa158015610ff0573d6000803e3d6000fd5b505050506040513d601f19601f820116820180604052508101906110149190612c19565b61056b5760405162461bcd60e51b815260206004820152602960248201527f455243313135353a2063616c6c6572206973206e6f74206f776e6572206e6f7260448201526808185c1c1c9bdd995960ba1b606482015260840161052c565b60006001600160a01b0383166110f05760405162461bcd60e51b815260206004820152602b60248201527f455243313135353a2062616c616e636520717565727920666f7220746865207a60448201527f65726f2061646472657373000000000000000000000000000000000000000000606482015260840161052c565b7ff9ecf3cb86ac553c70621e3e662b4036163ca34fffb329385fafa0e130cfc1a76000928352602090815260408084206001600160a01b0395909516845293905250205490565b8483146111975760405162461bcd60e51b815260206004820152602860248201527f455243313135353a2069647320616e6420616d6f756e7473206c656e677468206044820152670dad2e6dac2e8c6d60c31b606482015260840161052c565b86831461120c5760405162461bcd60e51b815260206004820152602d60248201527f455243313135353a206163636f756e747320616e6420616d6f756e7473206c6560448201527f6e677468206d69736d6174636800000000000000000000000000000000000000606482015260840161052c565b6000611216611762565b90507ff9ecf3cb86ac553c70621e3e662b4036163ca34fffb329385fafa0e130cfc1a760005b87811015611465576113058360008d8d8581811061125c5761125c612bd4565b90506020020160208101906112719190612c36565b6112928d8d8781811061128657611286612bd4565b90506020020135611c89565b6112a78c8c8881811061128657611286612bd4565b8a8a888181106112b9576112b9612bd4565b90506020028101906112cb9190612c51565b8080601f016020809104026020016040519081016040528093929190818152602001838380828437600092019190915250611cd492505050565b86868281811061131757611317612bd4565b905060200201358260008b8b8581811061133357611333612bd4565b90506020020135815260200190815260200160002060008d8d8581811061135c5761135c612bd4565b90506020020160208101906113719190612c36565b6001600160a01b03166001600160a01b0316815260200190815260200160002060008282546113a09190612c98565b909155508b90508a828181106113b8576113b8612bd4565b90506020020160208101906113cd9190612c36565b6001600160a01b031660006001600160a01b0316846001600160a01b03167fc3d58168c5ae7397731d063d5bbf3d657854427343f4c083240f7aacaa2d0f628c8c8681811061141e5761141e612bd4565b905060200201358b8b8781811061143757611437612bd4565b90506020020135604051611455929190918252602082015260400190565b60405180910390a460010161123c565b5050505050505050505050565b6001600160a01b0385166114d45760405162461bcd60e51b815260206004820152602360248201527f455243313135353a206275726e2066726f6d20746865207a65726f206164647260448201526265737360e81b606482015260840161052c565b8281146115345760405162461bcd60e51b815260206004820152602860248201527f455243313135353a2069647320616e6420616d6f756e7473206c656e677468206044820152670dad2e6dac2e8c6d60c31b606482015260840161052c565b600061153e611762565b90506115bf8187600088888080602002602001604051908101604052809392919081815260200183836020028082843760009201919091525050604080516020808c0282810182019093528b82529093508b92508a918291850190849080828437600092018290525060408051602081019091529081529250611cd4915050565b7ff9ecf3cb86ac553c70621e3e662b4036163ca34fffb329385fafa0e130cfc1a760005b858110156116fc5760008787838181106115ff576115ff612bd4565b90506020020135905085858381811061161a5761161a612bd4565b9050602002013583600083815260200190815260200160002060008b6001600160a01b03166001600160a01b031681526020019081526020016000205410156116b15760405162461bcd60e51b8152602060048201526024808201527f455243313135353a206275726e20616d6f756e7420657863656564732062616c604482015263616e636560e01b606482015260840161052c565b8585838181106116c3576116c3612bd4565b6000938452602086815260408086206001600160a01b038f168752825290942080549490910292909201359092039055506001016115e3565b5060006001600160a01b0316876001600160a01b0316836001600160a01b03167f4a39dc06d4c0dbc64b70af90fd698a233a518aa5d07e595d983b8c0526c8f7fb898989896040516117519493929190612cff565b60405180910390a450505050505050565b600061176c611cd9565b905090565b61177f868686868686611ce3565b610543868686868686611f5f565b6001600160a01b0383166117ef5760405162461bcd60e51b815260206004820152602360248201527f455243313135353a206275726e2066726f6d20746865207a65726f206164647260448201526265737360e81b606482015260840161052c565b60006117f9611762565b90506118298185600061180b87611c89565b61181487611c89565b60405180602001604052806000815250611cd4565b60008381527ff9ecf3cb86ac553c70621e3e662b4036163ca34fffb329385fafa0e130cfc1a7602090815260408083206001600160a01b038816845291829052909120548311156118c85760405162461bcd60e51b8152602060048201526024808201527f455243313135353a206275726e20616d6f756e7420657863656564732062616c604482015263616e636560e01b606482015260840161052c565b6001600160a01b0385811660008181526020848152604080832080548990039055805189815291820188905291938616917fc3d58168c5ae7397731d063d5bbf3d657854427343f4c083240f7aacaa2d0f62910160405180910390a45050505050565b6001600160a01b03831660009081527f349768cb3869818ef8452552d8520ac7355b35c10a0ff9320e2975b2875278206020908152604080832085845291829052909120548211156119bf5760405162461bcd60e51b815260206004820152601160248201527f4e4f545f454e4f5547485f4c4f434b4544000000000000000000000000000000604482015260640161052c565b600083815260208290526040812080548492906119dd908490612d31565b909155505050505050565b6001600160a01b03831660009081527f349768cb3869818ef8452552d8520ac7355b35c10a0ff9320e2975b2875278206020908152604080832085845291829052909120548290611a398686611072565b611a439190612d31565b1015611a915760405162461bcd60e51b815260206004820152601260248201527f4e4f545f454e4f5547485f42414c414e43450000000000000000000000000000604482015260640161052c565b600083815260208290526040812080548492906119dd908490612c98565b6000611ab9611762565b90506001600160a01b038616611b375760405162461bcd60e51b815260206004820152602160248201527f455243313135353a206d696e7420746f20746865207a65726f2061646472657360448201527f7300000000000000000000000000000000000000000000000000000000000000606482015260840161052c565b611b8c81600088611b4789611c89565b611b5089611c89565b88888080601f016020809104026020016040519081016040528093929190818152602001838380828437600092019190915250611cd492505050565b60008581527ff9ecf3cb86ac553c70621e3e662b4036163ca34fffb329385fafa0e130cfc1a7602090815260408083206001600160a01b038a16845290915281208054869290611bdd908490612c98565b909155505060408051868152602081018690526001600160a01b0380891692600092918516917fc3d58168c5ae7397731d063d5bbf3d657854427343f4c083240f7aacaa2d0f62910160405180910390a4505050505050565b611c4587878787878787612104565b610f6b878787878787878080601f01602080910402602001604051908101604052809392919081815260200183838082843760009201919091525061231092505050565b60408051600180825281830190925260609160009190602080830190803683370190505090508281600081518110611cc357611cc3612bd4565b602090810291909101015292915050565b610543565b600061176c61240c565b6001600160a01b038416611d475760405162461bcd60e51b815260206004820152602560248201527f455243313135353a207472616e7366657220746f20746865207a65726f206164604482015264647265737360d81b606482015260840161052c565b8151835114611da95760405162461bcd60e51b815260206004820152602860248201527f455243313135353a2069647320616e6420616d6f756e7473206c656e677468206044820152670dad2e6dac2e8c6d60c31b606482015260840161052c565b611db7868686868686611cd4565b7ff9ecf3cb86ac553c70621e3e662b4036163ca34fffb329385fafa0e130cfc1a760005b8451811015611f0f576000858281518110611df857611df8612bd4565b602002602001015190506000858381518110611e1657611e16612bd4565b602090810291909101810151600084815286835260408082206001600160a01b038e168352909352919091205490915081811015611ebc5760405162461bcd60e51b815260206004820152602b60248201527f455243313135353a20696e73756666696369656e742062616c616e636573206660448201527f6f72207472616e73666572000000000000000000000000000000000000000000606482015260840161052c565b6000838152602086815260408083206001600160a01b038e811685529252808320938590039093558a168152908120805460019590950194839290611f02908490612c98565b90915550611ddb92505050565b50846001600160a01b0316866001600160a01b0316886001600160a01b03167f4a39dc06d4c0dbc64b70af90fd698a233a518aa5d07e595d983b8c0526c8f7fb8787604051611751929190612d48565b6001600160a01b0384163b156105435760405163bc197c8160e01b81526001600160a01b0385169063bc197c8190611fa39089908990889088908890600401612dc3565b6020604051808303816000875af1925050508015611fde575060408051601f3d908101601f19168201909252611fdb91810190612e21565b60015b61209357611fea612e4b565b806308c379a0036120235750611ffe612e66565b806120095750612025565b8060405162461bcd60e51b815260040161052c9190612ef0565b505b60405162461bcd60e51b815260206004820152603460248201527f455243313135353a207472616e7366657220746f206e6f6e204552433131353560448201527f526563656976657220696d706c656d656e746572000000000000000000000000606482015260840161052c565b6001600160e01b0319811663bc197c8160e01b14610f6b5760405162461bcd60e51b815260206004820152602860248201527f455243313135353a204552433131353552656365697665722072656a656374656044820152676420746f6b656e7360c01b606482015260840161052c565b6001600160a01b0385166121685760405162461bcd60e51b815260206004820152602560248201527f455243313135353a207472616e7366657220746f20746865207a65726f206164604482015264647265737360d81b606482015260840161052c565b6121bc87878761217788611c89565b61218088611c89565b87878080601f016020809104026020016040519081016040528093929190818152602001838380828437600092019190915250611cd492505050565b60008481527ff9ecf3cb86ac553c70621e3e662b4036163ca34fffb329385fafa0e130cfc1a7602081815260408084206001600160a01b038b16855290915290912054848110156122755760405162461bcd60e51b815260206004820152602b60248201527f455243313135353a20696e73756666696369656e742062616c616e636573206660448201527f6f72207472616e73666572000000000000000000000000000000000000000000606482015260840161052c565b6000868152602083815260408083206001600160a01b038c811685529252808320938890039093558816815290812080548692906122b4908490612c98565b909155505060408051868152602081018690526001600160a01b03808916928a821692918c16917fc3d58168c5ae7397731d063d5bbf3d657854427343f4c083240f7aacaa2d0f62910160405180910390a45050505050505050565b6001600160a01b0384163b156105435760405163f23a6e6160e01b81526001600160a01b0385169063f23a6e61906123549089908990889088908890600401612f03565b6020604051808303816000875af192505050801561238f575060408051601f3d908101601f1916820190925261238c91810190612e21565b60015b61239b57611fea612e4b565b6001600160e01b0319811663f23a6e6160e01b14610f6b5760405162461bcd60e51b815260206004820152602860248201527f455243313135353a204552433131353552656365697665722072656a656374656044820152676420746f6b656e7360c01b606482015260840161052c565b7fdb1d5e345c4903e9a32b6674ecc8b1deaddbbb2551474fb34c9d34becbe7f420546000906001600160a01b0316330361244d575060131936013560601c90565b503390565b90565b80356001600160a01b038116811461246c57600080fd5b919050565b6000806040838503121561248457600080fd5b61248d83612455565b946020939093013593505050565b60008083601f8401126124ad57600080fd5b50813567ffffffffffffffff8111156124c557600080fd5b6020830191508360208260051b85010111156124e057600080fd5b9250929050565b6000806000806000806000806080898b03121561250357600080fd5b883567ffffffffffffffff8082111561251b57600080fd5b6125278c838d0161249b565b909a50985060208b013591508082111561254057600080fd5b61254c8c838d0161249b565b909850965060408b013591508082111561256557600080fd5b6125718c838d0161249b565b909650945060608b013591508082111561258a57600080fd5b506125978b828c0161249b565b999c989b5096995094979396929594505050565b6000806000806000606086880312156125c357600080fd5b6125cc86612455565b9450602086013567ffffffffffffffff808211156125e957600080fd5b6125f589838a0161249b565b9096509450604088013591508082111561260e57600080fd5b5061261b8882890161249b565b969995985093965092949392505050565b634e487b7160e01b600052604160045260246000fd5b601f8201601f1916810167ffffffffffffffff811182821017156126685761266861262c565b6040525050565b600067ffffffffffffffff8211156126895761268961262c565b5060051b60200190565b600082601f8301126126a457600080fd5b813560206126b18261266f565b6040516126be8282612642565b83815260059390931b85018201928281019150868411156126de57600080fd5b8286015b848110156126f957803583529183019183016126e2565b509695505050505050565b600080600080600060a0868803121561271c57600080fd5b61272586612455565b94506020612734818801612455565b9450604087013567ffffffffffffffff8082111561275157600080fd5b61275d8a838b01612693565b9550606089013591508082111561277357600080fd5b61277f8a838b01612693565b9450608089013591508082111561279557600080fd5b818901915089601f8301126127a957600080fd5b8135818111156127bb576127bb61262c565b60405191506127d3601f8201601f1916850183612642565b8082528a848285010111156127e757600080fd5b80848401858401376000848284010152508093505050509295509295909350565b60008060006060848603121561281d57600080fd5b61282684612455565b95602085013595506040909401359392505050565b6000806040838503121561284e57600080fd5b823567ffffffffffffffff8082111561286657600080fd5b818501915085601f83011261287a57600080fd5b813560206128878261266f565b6040516128948282612642565b83815260059390931b85018201928281019150898411156128b457600080fd5b948201945b838610156128d9576128ca86612455565b825294820194908201906128b9565b965050860135925050808211156128ef57600080fd5b506128fc85828601612693565b9150509250929050565b600081518084526020808501945080840160005b838110156129365781518752958201959082019060010161291a565b509495945050505050565b6020815260006103ed6020830184612906565b60006020828403121561296657600080fd5b5035919050565b6000806020838503121561298057600080fd5b823567ffffffffffffffff81111561299757600080fd5b6129a38582860161249b565b90969095509350505050565b6020808252825182820181905260009190848201906040850190845b818110156129e95783511515835292840192918401916001016129cb565b50909695505050505050565b8015158114612a0357600080fd5b50565b60008060408385031215612a1957600080fd5b612a2283612455565b91506020830135612a32816129f5565b809150509250929050565b600080600060408486031215612a5257600080fd5b612a5b84612455565b9250602084013567ffffffffffffffff811115612a7757600080fd5b612a838682870161249b565b9497909650939450505050565b60008083601f840112612aa257600080fd5b50813567ffffffffffffffff811115612aba57600080fd5b6020830191508360208285010111156124e057600080fd5b600080600080600060808688031215612aea57600080fd5b612af386612455565b94506020860135935060408601359250606086013567ffffffffffffffff811115612b1d57600080fd5b61261b88828901612a90565b60008060408385031215612b3c57600080fd5b612b4583612455565b9150612b5360208401612455565b90509250929050565b60008060008060008060a08789031215612b7557600080fd5b612b7e87612455565b9550612b8c60208801612455565b94506040870135935060608701359250608087013567ffffffffffffffff811115612bb657600080fd5b612bc289828a01612a90565b979a9699509497509295939492505050565b634e487b7160e01b600052603260045260246000fd5b634e487b7160e01b600052601160045260246000fd5b600060018201612c1257612c12612bea565b5060010190565b600060208284031215612c2b57600080fd5b81516103ed816129f5565b600060208284031215612c4857600080fd5b6103ed82612455565b6000808335601e19843603018112612c6857600080fd5b83018035915067ffffffffffffffff821115612c8357600080fd5b6020019150368190038213156124e057600080fd5b60008219821115612cab57612cab612bea565b500190565b81835260007f07ffffffffffffffffffffffffffffffffffffffffffffffffffffffffffffff831115612ce257600080fd5b8260051b8083602087013760009401602001938452509192915050565b604081526000612d13604083018688612cb0565b8281036020840152612d26818587612cb0565b979650505050505050565b600082821015612d4357612d43612bea565b500390565b604081526000612d5b6040830185612906565b8281036020840152612d6d8185612906565b95945050505050565b6000815180845260005b81811015612d9c57602081850181015186830182015201612d80565b81811115612dae576000602083870101525b50601f01601f19169290920160200192915050565b60006001600160a01b03808816835280871660208401525060a06040830152612def60a0830186612906565b8281036060840152612e018186612906565b90508281036080840152612e158185612d76565b98975050505050505050565b600060208284031215612e3357600080fd5b81516001600160e01b0319811681146103ed57600080fd5b600060033d11156124525760046000803e5060005160e01c90565b600060443d1015612e745790565b6040516003193d81016004833e81513d67ffffffffffffffff8160248401118184111715612ea457505050505090565b8285019150815181811115612ebc5750505050505090565b843d8701016020828501011115612ed65750505050505090565b612ee560208286010187612642565b509095945050505050565b6020815260006103ed6020830184612d76565b60006001600160a01b03808816835280871660208401525084604083015283606083015260a06080830152612d2660a0830184612d7656fea264697066735822122013cf78041f3d1c8860267cf85adc1681c8c02307ca50a94af64e0c0309ef490f64736f6c634300080f0033",
  "devdoc": {
    "kind": "dev",
    "methods": {
      "balanceOf(address,uint256)": {
        "params": {
          "account": "address to query",
          "id": "token to query"
        },
        "returns": {
          "_0": "token balance"
        }
      },
      "balanceOfBatch(address[],uint256[])": {
        "params": {
          "accounts": "addresss to query",
          "ids": "tokens to query"
        },
        "returns": {
          "_0": "token balances"
        }
      },
      "exists(uint256)": {
        "details": "Indicates whether any token exist with a given id, or not."
      },
      "existsBatch(uint256[])": {
        "details": "Indicates whether tokens exist given a list of IDs."
      },
      "isApprovedForAll(address,address)": {
        "params": {
          "account": "address to query for approval granted",
          "operator": "address to query for approval received"
        },
        "returns": {
          "_0": "whether operator is approved to spend tokens held by account"
        }
      },
      "lockByFacet(address,uint256,uint256)": {
        "details": "Locks `amount` of tokens of `account`, of token type `id`. Requirements: - the caller must be diamond itself (other facets)."
      },
      "maxSupply(uint256)": {
        "details": "Maximum amount of tokens possible to exist for a given id."
      },
      "maxSupplyBatch(uint256[])": {
        "details": "Maximum amount of tokens possible to exist for a list of IDs."
      },
      "mintByFacet(address,uint256,uint256,bytes)": {
        "details": "Creates `amount` new tokens for `to`, of token type `id`. See {ERC1155-_mint}. Requirements: - the caller must be diamond itself (other facets)."
      },
      "safeBatchTransferFrom(address,address,uint256[],uint256[],bytes)": {
        "params": {
          "amounts": "list of quantities of tokens to transfer",
          "data": "data payload",
          "from": "sender of tokens",
          "ids": "list of token IDs",
          "to": "receiver of tokens"
        }
      },
      "safeTransferFrom(address,address,uint256,uint256,bytes)": {
        "params": {
          "amount": "quantity of tokens to transfer",
          "data": "data payload",
          "from": "sender of tokens",
          "id": "token ID",
          "to": "receiver of tokens"
        }
      },
      "setApprovalForAll(address,bool)": {
        "params": {
          "operator": "address whose approval status to update",
          "status": "whether operator should be considered approved"
        }
      },
      "totalSupply(uint256)": {
        "details": "Total amount of tokens in with a given id."
      },
      "totalSupplyBatch(uint256[])": {
        "details": "Total amount of tokens for a list of IDs."
      },
      "unlockByFacet(address,uint256,uint256)": {
        "details": "Un-locks `amount` of tokens of `account`, of token type `id`. Requirements: - the caller must be diamond itself (other facets)."
      }
    },
    "version": 1
  },
  "userdoc": {
    "errors": {
      "SenderIsNotSelf()": [
        {
          "notice": "The caller must be the current contract itself."
        }
      ]
    },
    "kind": "user",
    "methods": {
      "balanceOf(address,uint256)": {
        "notice": "query the balance of given token held by given address"
      },
      "balanceOfBatch(address[],uint256[])": {
        "notice": "query the balances of given tokens held by given addresses"
      },
      "isApprovedForAll(address,address)": {
        "notice": "query approval status of given operator with respect to given address"
      },
      "safeBatchTransferFrom(address,address,uint256[],uint256[],bytes)": {
        "notice": "transfer batch of tokens between given addresses, checking for ERC1155Receiver implementation if applicable"
      },
      "safeTransferFrom(address,address,uint256,uint256,bytes)": {
        "notice": "transfer tokens between given addresses, checking for ERC1155Receiver implementation if applicable"
      },
      "setApprovalForAll(address,bool)": {
        "notice": "grant approval to or revoke approval from given operator to spend held tokens"
      }
    },
    "version": 1
  },
  "storageLayout": {
    "storage": [],
    "types": null
  }
}