{
  "address": "0xcE965f07578E56Db09031F78bF8Ad10D9fE0b821",
  "abi": [
    {
      "inputs": [],
      "name": "SenderIsNotSelf",
      "type": "error"
    },
    {
      "anonymous": false,
      "inputs": [
        {
          "indexed": true,
          "internalType": "address",
          "name": "account",
          "type": "address"
        },
        {
          "indexed": true,
          "internalType": "address",
          "name": "operator",
          "type": "address"
        },
        {
          "indexed": false,
          "internalType": "bool",
          "name": "approved",
          "type": "bool"
        }
      ],
      "name": "ApprovalForAll",
      "type": "event"
    },
    {
      "anonymous": false,
      "inputs": [
        {
          "indexed": true,
          "internalType": "address",
          "name": "operator",
          "type": "address"
        },
        {
          "indexed": true,
          "internalType": "address",
          "name": "from",
          "type": "address"
        },
        {
          "indexed": true,
          "internalType": "address",
          "name": "to",
          "type": "address"
        },
        {
          "indexed": false,
          "internalType": "uint256[]",
          "name": "ids",
          "type": "uint256[]"
        },
        {
          "indexed": false,
          "internalType": "uint256[]",
          "name": "values",
          "type": "uint256[]"
        }
      ],
      "name": "TransferBatch",
      "type": "event"
    },
    {
      "anonymous": false,
      "inputs": [
        {
          "indexed": true,
          "internalType": "address",
          "name": "operator",
          "type": "address"
        },
        {
          "indexed": true,
          "internalType": "address",
          "name": "from",
          "type": "address"
        },
        {
          "indexed": true,
          "internalType": "address",
          "name": "to",
          "type": "address"
        },
        {
          "indexed": false,
          "internalType": "uint256",
          "name": "id",
          "type": "uint256"
        },
        {
          "indexed": false,
          "internalType": "uint256",
          "name": "value",
          "type": "uint256"
        }
      ],
      "name": "TransferSingle",
      "type": "event"
    },
    {
      "inputs": [
        {
          "internalType": "address",
          "name": "account",
          "type": "address"
        },
        {
          "internalType": "uint256[]",
          "name": "ids",
          "type": "uint256[]"
        },
        {
          "internalType": "uint256[]",
          "name": "values",
          "type": "uint256[]"
        }
      ],
      "name": "burnBatchByFacet",
      "outputs": [],
      "stateMutability": "nonpayable",
      "type": "function"
    },
    {
      "inputs": [
        {
          "internalType": "address",
          "name": "account",
          "type": "address"
        },
        {
          "internalType": "uint256",
          "name": "id",
          "type": "uint256"
        },
        {
          "internalType": "uint256",
          "name": "amount",
          "type": "uint256"
        }
      ],
      "name": "burnByFacet",
      "outputs": [],
      "stateMutability": "nonpayable",
      "type": "function"
    }
  ],
  "transactionHash": "0x8e55e66ae79d0c2858c4fe0d4eba41b664dd0a2cd2f1d612d6ec274f95e1c89c",
  "args": [],
  "numDeployments": 1,
  "solcInputHash": "6941de28b1d1c82e9db601fc3d7f335a",
  "bytecode": "0x608060405234801561001057600080fd5b50610714806100206000396000f3fe608060405234801561001057600080fd5b50600436106100365760003560e01c80630ad2bbac1461003b57806348f2f53614610050575b600080fd5b61004e610049366004610532565b610063565b005b61004e61005e3660046105a5565b610093565b303314610083576040516328be0e2160e21b815260040160405180910390fd5b61008e8383836100be565b505050565b3033146100b3576040516328be0e2160e21b815260040160405180910390fd5b61008e8383836102a9565b6001600160a01b0383166100ed5760405162461bcd60e51b81526004016100e4906105d8565b60405180910390fd5b805182511461014f5760405162461bcd60e51b815260206004820152602860248201527f455243313135353a2069647320616e6420616d6f756e7473206c656e677468206044820152670dad2e6dac2e8c6d60c31b60648201526084016100e4565b60006101596103b1565b604080516020810190915260009052905060006101746103f7565b905060005b84518110156102495760008582815181106101965761019661061b565b602002602001015190508482815181106101b2576101b261061b565b602090810291909101810151600083815285835260408082206001600160a01b038c168352909352919091205410156101fd5760405162461bcd60e51b81526004016100e490610631565b84828151811061020f5761020f61061b565b602090810291909101810151600092835284825260408084206001600160a01b038b16855290925291208054919091039055600101610179565b5060006001600160a01b0316856001600160a01b0316836001600160a01b03167f4a39dc06d4c0dbc64b70af90fd698a233a518aa5d07e595d983b8c0526c8f7fb878760405161029a9291906106b0565b60405180910390a45050505050565b6001600160a01b0383166102cf5760405162461bcd60e51b81526004016100e4906105d8565b60006102d96103b1565b905061030a818560006102eb8761041b565b6102f48761041b565b5050604080516020810190915260009052505050565b60006103146103f7565b6000858152602091825260408082206001600160a01b0389168352928390529020549091508311156103585760405162461bcd60e51b81526004016100e490610631565b6001600160a01b0385811660008181526020848152604080832080548990039055805189815291820188905291938616917fc3d58168c5ae7397731d063d5bbf3d657854427343f4c083240f7aacaa2d0f62910161029a565b7f8cb501c3289f0b2347f4ba94b88fa355a4cd5266219cf6f4b7e5f7f3518beee5546000906001600160a01b031633036103f2575060131936013560601c90565b503390565b7f93d5f1e3ad87f1fc4313940b5c964ec29137b7e8ef5c0b76f7e2c77f7f0e032490565b604080516001808252818301909252606091600091906020808301908036833701905050905082816000815181106104555761045561061b565b602090810291909101015292915050565b80356001600160a01b038116811461047d57600080fd5b919050565b634e487b7160e01b600052604160045260246000fd5b600082601f8301126104a957600080fd5b813560206001600160401b03808311156104c5576104c5610482565b8260051b604051601f19603f830116810181811084821117156104ea576104ea610482565b60405293845285810183019383810192508785111561050857600080fd5b83870191505b848210156105275781358352918301919083019061050e565b979650505050505050565b60008060006060848603121561054757600080fd5b61055084610466565b925060208401356001600160401b038082111561056c57600080fd5b61057887838801610498565b9350604086013591508082111561058e57600080fd5b5061059b86828701610498565b9150509250925092565b6000806000606084860312156105ba57600080fd5b6105c384610466565b95602085013595506040909401359392505050565b60208082526023908201527f455243313135353a206275726e2066726f6d20746865207a65726f206164647260408201526265737360e81b606082015260800190565b634e487b7160e01b600052603260045260246000fd5b60208082526024908201527f455243313135353a206275726e20616d6f756e7420657863656564732062616c604082015263616e636560e01b606082015260800190565b600081518084526020808501945080840160005b838110156106a557815187529582019590820190600101610689565b509495945050505050565b6040815260006106c36040830185610675565b82810360208401526106d58185610675565b9594505050505056fea264697066735822122089cfbdd09838e574cdcc4ce6eab32a5f36cc1aa349ee599c75cf3a4f4eb6036964736f6c634300080f0033",
  "devdoc": {
    "details": "Extension of {ERC1155} that allows other facets from the diamond to burn tokens.",
    "kind": "dev",
    "methods": {},
    "version": 1
  },
  "userdoc": {
    "errors": {
      "SenderIsNotSelf()": [
        {
          "notice": "The caller must be the current contract itself."
        }
      ]
    },
    "kind": "user",
    "methods": {},
    "version": 1
  },
  "storageLayout": {
    "storage": [],
    "types": null
  }
}