{
  "address": "0xf698882dBF92a348e14942025c46BCE83cb0396e",
  "abi": [
    {
      "anonymous": false,
      "inputs": [
        {
          "indexed": true,
          "internalType": "address",
          "name": "account",
          "type": "address"
        },
        {
          "indexed": true,
          "internalType": "address",
          "name": "operator",
          "type": "address"
        },
        {
          "indexed": false,
          "internalType": "bool",
          "name": "approved",
          "type": "bool"
        }
      ],
      "name": "ApprovalForAll",
      "type": "event"
    },
    {
      "anonymous": false,
      "inputs": [
        {
          "indexed": true,
          "internalType": "address",
          "name": "previousOwner",
          "type": "address"
        },
        {
          "indexed": true,
          "internalType": "address",
          "name": "newOwner",
          "type": "address"
        }
      ],
      "name": "OwnershipTransferred",
      "type": "event"
    },
    {
      "anonymous": false,
      "inputs": [
        {
          "indexed": true,
          "internalType": "address",
          "name": "operator",
          "type": "address"
        },
        {
          "indexed": true,
          "internalType": "address",
          "name": "from",
          "type": "address"
        },
        {
          "indexed": true,
          "internalType": "address",
          "name": "to",
          "type": "address"
        },
        {
          "indexed": false,
          "internalType": "uint256[]",
          "name": "ids",
          "type": "uint256[]"
        },
        {
          "indexed": false,
          "internalType": "uint256[]",
          "name": "values",
          "type": "uint256[]"
        }
      ],
      "name": "TransferBatch",
      "type": "event"
    },
    {
      "anonymous": false,
      "inputs": [
        {
          "indexed": true,
          "internalType": "address",
          "name": "operator",
          "type": "address"
        },
        {
          "indexed": true,
          "internalType": "address",
          "name": "from",
          "type": "address"
        },
        {
          "indexed": true,
          "internalType": "address",
          "name": "to",
          "type": "address"
        },
        {
          "indexed": false,
          "internalType": "uint256",
          "name": "id",
          "type": "uint256"
        },
        {
          "indexed": false,
          "internalType": "uint256",
          "name": "value",
          "type": "uint256"
        }
      ],
      "name": "TransferSingle",
      "type": "event"
    },
    {
      "inputs": [
        {
          "internalType": "uint256",
          "name": "tokenId",
          "type": "uint256"
        },
        {
          "internalType": "uint256",
          "name": "newValue",
          "type": "uint256"
        }
      ],
      "name": "setMaxSupply",
      "outputs": [],
      "stateMutability": "nonpayable",
      "type": "function"
    },
    {
      "inputs": [
        {
          "internalType": "uint256[]",
          "name": "tokenIds",
          "type": "uint256[]"
        },
        {
          "internalType": "uint256[]",
          "name": "newValues",
          "type": "uint256[]"
        }
      ],
      "name": "setMaxSupplyBatch",
      "outputs": [],
      "stateMutability": "nonpayable",
      "type": "function"
    }
  ],
  "transactionHash": "0x2c50ebd8893468c37b7ff42d9d4325384312d77d95d29d453ec8001addfe3330",
  "args": [],
  "numDeployments": 1,
  "solcInputHash": "bb75506489ae03badb974195638b1eb4",
  "bytecode": "0x608060405234801561001057600080fd5b5061036c806100206000396000f3fe608060405234801561001057600080fd5b50600436106100365760003560e01c806337da577c1461003b5780636cf6a3fa14610050575b600080fd5b61004e6100493660046101ea565b610063565b005b61004e61005e366004610257565b6100b2565b61006b6100fc565b6001600160a01b0316336001600160a01b0316146100a45760405162461bcd60e51b815260040161009b906102c2565b60405180910390fd5b6100ae828261012a565b5050565b6100ba6100fc565b6001600160a01b0316336001600160a01b0316146100ea5760405162461bcd60e51b815260040161009b906102c2565b6100f68484848461014a565b50505050565b7fc0ea367cb0174dd5521cd2372c76f8c13e6c1f832c71f1d6e0cbc185c9cc8ed4546001600160a01b031690565b806101336101c6565b600093845260010160205260409092209190915550565b60006101546101c6565b600101905060005b848110156101be57838382818110610176576101766102f9565b90506020020135826000888885818110610192576101926102f9565b9050602002013581526020019081526020016000208190555080806101b69061030f565b91505061015c565b505050505050565b7fbef313cd0145ce9ea5e5736c296fdd12e5b8495f1ac6754a82f66705a39baf2090565b600080604083850312156101fd57600080fd5b50508035926020909101359150565b60008083601f84011261021e57600080fd5b5081356001600160401b0381111561023557600080fd5b6020830191508360208260051b850101111561025057600080fd5b9250929050565b6000806000806040858703121561026d57600080fd5b84356001600160401b038082111561028457600080fd5b6102908883890161020c565b909650945060208701359150808211156102a957600080fd5b506102b68782880161020c565b95989497509550505050565b6020808252601d908201527f4f776e61626c653a2073656e646572206d757374206265206f776e6572000000604082015260600190565b634e487b7160e01b600052603260045260246000fd5b60006001820161032f57634e487b7160e01b600052601160045260246000fd5b506001019056fea264697066735822122013cbfa9a3f033ff477f68369227bb85a249d262c7eb1480927f8ded3914bbf6e64736f6c634300080f0033",
  "devdoc": {
    "details": "Extension of ERC1155 to allow owner to change the max supply per token ID.",
    "kind": "dev",
    "methods": {},
    "version": 1
  },
  "userdoc": {
    "kind": "user",
    "methods": {},
    "version": 1
  },
  "storageLayout": {
    "storage": [],
    "types": null
  }
}