{
  "address": "0x24aDF4B87a81C56611Da1e816b33e14d3FeA9557",
  "abi": [
    {
      "inputs": [],
      "name": "SenderIsNotSelf",
      "type": "error"
    },
    {
      "anonymous": false,
      "inputs": [
        {
          "indexed": true,
          "internalType": "address",
          "name": "account",
          "type": "address"
        },
        {
          "indexed": true,
          "internalType": "address",
          "name": "operator",
          "type": "address"
        },
        {
          "indexed": false,
          "internalType": "bool",
          "name": "approved",
          "type": "bool"
        }
      ],
      "name": "ApprovalForAll",
      "type": "event"
    },
    {
      "anonymous": false,
      "inputs": [
        {
          "indexed": true,
          "internalType": "address",
          "name": "operator",
          "type": "address"
        },
        {
          "indexed": true,
          "internalType": "address",
          "name": "from",
          "type": "address"
        },
        {
          "indexed": true,
          "internalType": "address",
          "name": "to",
          "type": "address"
        },
        {
          "indexed": false,
          "internalType": "uint256[]",
          "name": "ids",
          "type": "uint256[]"
        },
        {
          "indexed": false,
          "internalType": "uint256[]",
          "name": "values",
          "type": "uint256[]"
        }
      ],
      "name": "TransferBatch",
      "type": "event"
    },
    {
      "anonymous": false,
      "inputs": [
        {
          "indexed": true,
          "internalType": "address",
          "name": "operator",
          "type": "address"
        },
        {
          "indexed": true,
          "internalType": "address",
          "name": "from",
          "type": "address"
        },
        {
          "indexed": true,
          "internalType": "address",
          "name": "to",
          "type": "address"
        },
        {
          "indexed": false,
          "internalType": "uint256",
          "name": "id",
          "type": "uint256"
        },
        {
          "indexed": false,
          "internalType": "uint256",
          "name": "value",
          "type": "uint256"
        }
      ],
      "name": "TransferSingle",
      "type": "event"
    },
    {
      "inputs": [
        {
          "internalType": "address",
          "name": "account",
          "type": "address"
        },
        {
          "internalType": "uint256",
          "name": "id",
          "type": "uint256"
        }
      ],
      "name": "balanceOf",
      "outputs": [
        {
          "internalType": "uint256",
          "name": "",
          "type": "uint256"
        }
      ],
      "stateMutability": "view",
      "type": "function"
    },
    {
      "inputs": [
        {
          "internalType": "address[]",
          "name": "accounts",
          "type": "address[]"
        },
        {
          "internalType": "uint256[]",
          "name": "ids",
          "type": "uint256[]"
        }
      ],
      "name": "balanceOfBatch",
      "outputs": [
        {
          "internalType": "uint256[]",
          "name": "",
          "type": "uint256[]"
        }
      ],
      "stateMutability": "view",
      "type": "function"
    },
    {
      "inputs": [
        {
          "internalType": "address",
          "name": "account",
          "type": "address"
        },
        {
          "internalType": "uint256",
          "name": "id",
          "type": "uint256"
        },
        {
          "internalType": "uint256",
          "name": "value",
          "type": "uint256"
        }
      ],
      "name": "burn",
      "outputs": [],
      "stateMutability": "nonpayable",
      "type": "function"
    },
    {
      "inputs": [
        {
          "internalType": "address",
          "name": "account",
          "type": "address"
        },
        {
          "internalType": "uint256[]",
          "name": "ids",
          "type": "uint256[]"
        },
        {
          "internalType": "uint256[]",
          "name": "values",
          "type": "uint256[]"
        }
      ],
      "name": "burnBatch",
      "outputs": [],
      "stateMutability": "nonpayable",
      "type": "function"
    },
    {
      "inputs": [
        {
          "internalType": "address",
          "name": "account",
          "type": "address"
        },
        {
          "internalType": "uint256[]",
          "name": "ids",
          "type": "uint256[]"
        },
        {
          "internalType": "uint256[]",
          "name": "values",
          "type": "uint256[]"
        }
      ],
      "name": "burnBatchByFacet",
      "outputs": [],
      "stateMutability": "nonpayable",
      "type": "function"
    },
    {
      "inputs": [
        {
          "internalType": "address",
          "name": "account",
          "type": "address"
        },
        {
          "internalType": "uint256",
          "name": "id",
          "type": "uint256"
        },
        {
          "internalType": "uint256",
          "name": "amount",
          "type": "uint256"
        }
      ],
      "name": "burnByFacet",
      "outputs": [],
      "stateMutability": "nonpayable",
      "type": "function"
    },
    {
      "inputs": [
        {
          "internalType": "uint256",
          "name": "id",
          "type": "uint256"
        }
      ],
      "name": "exists",
      "outputs": [
        {
          "internalType": "bool",
          "name": "",
          "type": "bool"
        }
      ],
      "stateMutability": "view",
      "type": "function"
    },
    {
      "inputs": [
        {
          "internalType": "address",
          "name": "account",
          "type": "address"
        },
        {
          "internalType": "address",
          "name": "operator",
          "type": "address"
        }
      ],
      "name": "isApprovedForAll",
      "outputs": [
        {
          "internalType": "bool",
          "name": "",
          "type": "bool"
        }
      ],
      "stateMutability": "view",
      "type": "function"
    },
    {
      "inputs": [
        {
          "internalType": "address",
          "name": "account",
          "type": "address"
        },
        {
          "internalType": "uint256",
          "name": "id",
          "type": "uint256"
        },
        {
          "internalType": "uint256",
          "name": "amount",
          "type": "uint256"
        }
      ],
      "name": "lockByFacet",
      "outputs": [],
      "stateMutability": "nonpayable",
      "type": "function"
    },
    {
      "inputs": [
        {
          "internalType": "address",
          "name": "account",
          "type": "address"
        },
        {
          "internalType": "uint256[]",
          "name": "ticketTokenIds",
          "type": "uint256[]"
        }
      ],
      "name": "locked",
      "outputs": [
        {
          "internalType": "uint256[]",
          "name": "",
          "type": "uint256[]"
        }
      ],
      "stateMutability": "view",
      "type": "function"
    },
    {
      "inputs": [
        {
          "internalType": "address",
          "name": "account",
          "type": "address"
        },
        {
          "internalType": "uint256",
          "name": "tokenId",
          "type": "uint256"
        }
      ],
      "name": "locked",
      "outputs": [
        {
          "internalType": "uint256",
          "name": "",
          "type": "uint256"
        }
      ],
      "stateMutability": "view",
      "type": "function"
    },
    {
      "inputs": [
        {
          "internalType": "uint256",
          "name": "id",
          "type": "uint256"
        }
      ],
      "name": "maxSupply",
      "outputs": [
        {
          "internalType": "uint256",
          "name": "",
          "type": "uint256"
        }
      ],
      "stateMutability": "view",
      "type": "function"
    },
    {
      "inputs": [
        {
          "internalType": "address",
          "name": "to",
          "type": "address"
        },
        {
          "internalType": "uint256",
          "name": "id",
          "type": "uint256"
        },
        {
          "internalType": "uint256",
          "name": "amount",
          "type": "uint256"
        },
        {
          "internalType": "bytes",
          "name": "data",
          "type": "bytes"
        }
      ],
      "name": "mintByFacet",
      "outputs": [],
      "stateMutability": "nonpayable",
      "type": "function"
    },
    {
      "inputs": [
        {
          "internalType": "address",
          "name": "from",
          "type": "address"
        },
        {
          "internalType": "address",
          "name": "to",
          "type": "address"
        },
        {
          "internalType": "uint256[]",
          "name": "ids",
          "type": "uint256[]"
        },
        {
          "internalType": "uint256[]",
          "name": "amounts",
          "type": "uint256[]"
        },
        {
          "internalType": "bytes",
          "name": "data",
          "type": "bytes"
        }
      ],
      "name": "safeBatchTransferFrom",
      "outputs": [],
      "stateMutability": "nonpayable",
      "type": "function"
    },
    {
      "inputs": [
        {
          "internalType": "address",
          "name": "from",
          "type": "address"
        },
        {
          "internalType": "address",
          "name": "to",
          "type": "address"
        },
        {
          "internalType": "uint256",
          "name": "id",
          "type": "uint256"
        },
        {
          "internalType": "uint256",
          "name": "amount",
          "type": "uint256"
        },
        {
          "internalType": "bytes",
          "name": "data",
          "type": "bytes"
        }
      ],
      "name": "safeTransferFrom",
      "outputs": [],
      "stateMutability": "nonpayable",
      "type": "function"
    },
    {
      "inputs": [
        {
          "internalType": "address",
          "name": "operator",
          "type": "address"
        },
        {
          "internalType": "bool",
          "name": "status",
          "type": "bool"
        }
      ],
      "name": "setApprovalForAll",
      "outputs": [],
      "stateMutability": "nonpayable",
      "type": "function"
    },
    {
      "inputs": [
        {
          "internalType": "uint256",
          "name": "id",
          "type": "uint256"
        }
      ],
      "name": "totalSupply",
      "outputs": [
        {
          "internalType": "uint256",
          "name": "",
          "type": "uint256"
        }
      ],
      "stateMutability": "view",
      "type": "function"
    },
    {
      "inputs": [
        {
          "internalType": "address",
          "name": "account",
          "type": "address"
        },
        {
          "internalType": "uint256",
          "name": "id",
          "type": "uint256"
        },
        {
          "internalType": "uint256",
          "name": "amount",
          "type": "uint256"
        }
      ],
      "name": "unlockByFacet",
      "outputs": [],
      "stateMutability": "nonpayable",
      "type": "function"
    }
  ],
  "transactionHash": "0xf0aba036cb95e3fc10b5df7796d410ebe394b00a1f414d12d295a15e895d6080",
  "args": [],
  "numDeployments": 5,
  "solcInputHash": "df203424e31fe01ef0ba38744a8022b4",
  "bytecode": "0x608060405234801561001057600080fd5b50612808806100206000396000f3fe608060405234801561001057600080fd5b50600436106101355760003560e01c8063983da156116100b2578063bd85b03911610081578063e985e9c511610066578063e985e9c514610289578063f242432a146102e4578063f5298aca146102f757600080fd5b8063bd85b03914610263578063bf7bab731461027657600080fd5b8063983da15614610217578063a22cb4651461022a578063a91a988a1461023d578063b164884b1461025057600080fd5b80634e1273f4116101095780636708a990116100ee5780636708a990146101de5780636b20c454146101f1578063869f75941461020457600080fd5b80634e1273f41461019b5780634f558e79146101bb57600080fd5b8062fdd58e1461013a5780630ad2bbac146101605780632eb2c2d61461017557806348f2f53614610188575b600080fd5b61014d610148366004611f82565b61030a565b6040519081526020015b60405180910390f35b61017361016e366004612084565b61031d565b005b61017361018336600461216c565b61034d565b610173610196366004612216565b610422565b6101ae6101a9366004612249565b61044d565b604051610157919061234f565b6101ce6101c9366004612362565b610674565b6040519015158152602001610157565b6101736101ec366004612216565b6106ab565b6101736101ff366004612084565b6106d6565b61014d610212366004612362565b6107bd565b610173610225366004612216565b6107f0565b61017361023836600461238c565b61081b565b6101ae61024b3660046123c3565b610927565b61017361025e366004612449565b610a0e565b61014d610271366004612362565b610a40565b61014d610284366004611f82565b610a73565b6101ce6102973660046124aa565b6001600160a01b0391821660009081527f93d5f1e3ad87f1fc4313940b5c964ec29137b7e8ef5c0b76f7e2c77f7f0e03256020908152604080832093909416825291909152205460ff1690565b6101736102f23660046124dd565b610abb565b610173610305366004612216565b610b83565b60006103168383610c6a565b9392505050565b30331461033d576040516328be0e2160e21b815260040160405180910390fd5b610348838383610d2f565b505050565b336001600160a01b0386168114806103a957506001600160a01b0380871660009081527f93d5f1e3ad87f1fc4313940b5c964ec29137b7e8ef5c0b76f7e2c77f7f0e0325602090815260408083209385168352929052205460ff165b61040c5760405162461bcd60e51b815260206004820152602960248201527f455243313135353a2063616c6c6572206973206e6f74206f776e6572206e6f7260448201526808185c1c1c9bdd995960ba1b60648201526084015b60405180910390fd5b61041a818787878787610fa6565b505050505050565b303314610442576040516328be0e2160e21b815260040160405180910390fd5b610348838383610fc2565b606081518351146104c65760405162461bcd60e51b815260206004820152602960248201527f455243313135353a206163636f756e747320616e6420696473206c656e67746860448201527f206d69736d6174636800000000000000000000000000000000000000000000006064820152608401610403565b82517f93d5f1e3ad87f1fc4313940b5c964ec29137b7e8ef5c0b76f7e2c77f7f0e03249060009067ffffffffffffffff81111561050557610505611fac565b60405190808252806020026020018201604052801561052e578160200160208202803683370190505b50905060005b855181101561066b5760006001600160a01b031686828151811061055a5761055a612542565b60200260200101516001600160a01b0316036105de5760405162461bcd60e51b815260206004820152603160248201527f455243313135353a2062617463682062616c616e636520717565727920666f7260448201527f20746865207a65726f20616464726573730000000000000000000000000000006064820152608401610403565b8260008683815181106105f3576105f3612542565b60200260200101518152602001908152602001600020600087838151811061061d5761061d612542565b60200260200101516001600160a01b03166001600160a01b031681526020019081526020016000205482828151811061065857610658612542565b6020908102919091010152600101610534565b50949350505050565b60008181527fbef313cd0145ce9ea5e5736c296fdd12e5b8495f1ac6754a82f66705a39baf20602052604081205415155b92915050565b3033146106cb576040516328be0e2160e21b815260040160405180910390fd5b61034883838361114b565b6001600160a01b03831633148061075f57503063e985e9c584336040516001600160e01b031960e085901b1681526001600160a01b03928316600482015291166024820152604401602060405180830381865afa15801561073b573d6000803e3d6000fd5b505050506040513d601f19601f8201168201806040525081019061075f9190612558565b61033d5760405162461bcd60e51b815260206004820152602960248201527f455243313135353a2063616c6c6572206973206e6f74206f776e6572206e6f7260448201526808185c1c1c9bdd995960ba1b6064820152608401610403565b60008181527fbef313cd0145ce9ea5e5736c296fdd12e5b8495f1ac6754a82f66705a39baf2160205260408120546106a5565b303314610810576040516328be0e2160e21b815260040160405180910390fd5b610348838383611208565b336001600160a01b038316810361089a5760405162461bcd60e51b815260206004820152602960248201527f455243313135353a2073657474696e6720617070726f76616c2073746174757360448201527f20666f722073656c6600000000000000000000000000000000000000000000006064820152608401610403565b6001600160a01b0381811660008181527f93d5f1e3ad87f1fc4313940b5c964ec29137b7e8ef5c0b76f7e2c77f7f0e03256020908152604080832094881680845294825291829020805460ff1916871515908117909155825190815291517f17307eab39ab6107e8899845ad3d59bd9653f200f220920489ca2b5937696c319281900390910190a3505050565b606060008267ffffffffffffffff81111561094457610944611fac565b60405190808252806020026020018201604052801561096d578160200160208202803683370190505b50905060005b8381101561066b576109df8686868481811061099157610991612542565b905060200201356001600160a01b039190911660009081527ff169d830093e543c5e2a4df1e47aae23a77e62aa0d6ca19e1e33e6e22e526f9f60209081526040808320938352929052205490565b8282815181106109f1576109f1612542565b602090810291909101015280610a068161258b565b915050610973565b303314610a2e576040516328be0e2160e21b815260040160405180910390fd5b610a3a848484846112cf565b50505050565b60008181527fbef313cd0145ce9ea5e5736c296fdd12e5b8495f1ac6754a82f66705a39baf2060205260408120546106a5565b6001600160a01b03821660009081527ff169d830093e543c5e2a4df1e47aae23a77e62aa0d6ca19e1e33e6e22e526f9f60209081526040808320848452909152812054610316565b336001600160a01b038616811480610b1757506001600160a01b0380871660009081527f93d5f1e3ad87f1fc4313940b5c964ec29137b7e8ef5c0b76f7e2c77f7f0e0325602090815260408083209385168352929052205460ff165b610b755760405162461bcd60e51b815260206004820152602960248201527f455243313135353a2063616c6c6572206973206e6f74206f776e6572206e6f7260448201526808185c1c1c9bdd995960ba1b6064820152608401610403565b61041a81878787878761140a565b6001600160a01b038316331480610c0c57503063e985e9c584336040516001600160e01b031960e085901b1681526001600160a01b03928316600482015291166024820152604401602060405180830381865afa158015610be8573d6000803e3d6000fd5b505050506040513d601f19601f82011682018060405250810190610c0c9190612558565b6104425760405162461bcd60e51b815260206004820152602960248201527f455243313135353a2063616c6c6572206973206e6f74206f776e6572206e6f7260448201526808185c1c1c9bdd995960ba1b6064820152608401610403565b60006001600160a01b038316610ce85760405162461bcd60e51b815260206004820152602b60248201527f455243313135353a2062616c616e636520717565727920666f7220746865207a60448201527f65726f20616464726573730000000000000000000000000000000000000000006064820152608401610403565b7f93d5f1e3ad87f1fc4313940b5c964ec29137b7e8ef5c0b76f7e2c77f7f0e03246000928352602090815260408084206001600160a01b0395909516845293905250205490565b6001600160a01b038316610d915760405162461bcd60e51b815260206004820152602360248201527f455243313135353a206275726e2066726f6d20746865207a65726f206164647260448201526265737360e81b6064820152608401610403565b8051825114610df35760405162461bcd60e51b815260206004820152602860248201527f455243313135353a2069647320616e6420616d6f756e7473206c656e677468206044820152670dad2e6dac2e8c6d60c31b6064820152608401610403565b6000339050610e1681856000868660405180602001604052806000815250611426565b7f93d5f1e3ad87f1fc4313940b5c964ec29137b7e8ef5c0b76f7e2c77f7f0e032460005b8451811015610f46576000858281518110610e5757610e57612542565b60200260200101519050848281518110610e7357610e73612542565b602090810291909101810151600083815285835260408082206001600160a01b038c16835290935291909120541015610efa5760405162461bcd60e51b8152602060048201526024808201527f455243313135353a206275726e20616d6f756e7420657863656564732062616c604482015263616e636560e01b6064820152608401610403565b848281518110610f0c57610f0c612542565b602090810291909101810151600092835284825260408084206001600160a01b038b16855290925291208054919091039055600101610e3a565b5060006001600160a01b0316856001600160a01b0316836001600160a01b03167f4a39dc06d4c0dbc64b70af90fd698a233a518aa5d07e595d983b8c0526c8f7fb8787604051610f979291906125a4565b60405180910390a45050505050565b610fb4868686868686611434565b61041a8686868686866116c1565b6001600160a01b0383166110245760405162461bcd60e51b815260206004820152602360248201527f455243313135353a206275726e2066726f6d20746865207a65726f206164647260448201526265737360e81b6064820152608401610403565b33611053818560006110358761186f565b61103e8761186f565b60405180602001604052806000815250611426565b60008381527f93d5f1e3ad87f1fc4313940b5c964ec29137b7e8ef5c0b76f7e2c77f7f0e0324602090815260408083206001600160a01b038816845291829052909120548311156110f25760405162461bcd60e51b8152602060048201526024808201527f455243313135353a206275726e20616d6f756e7420657863656564732062616c604482015263616e636560e01b6064820152608401610403565b6001600160a01b0385811660008181526020848152604080832080548990039055805189815291820188905291938616917fc3d58168c5ae7397731d063d5bbf3d657854427343f4c083240f7aacaa2d0f629101610f97565b6001600160a01b03831660009081527ff169d830093e543c5e2a4df1e47aae23a77e62aa0d6ca19e1e33e6e22e526f9f6020908152604080832085845291829052909120548211156111df5760405162461bcd60e51b815260206004820152601160248201527f4e4f545f454e4f5547485f4c4f434b45440000000000000000000000000000006044820152606401610403565b600083815260208290526040812080548492906111fd9084906125d2565b909155505050505050565b6001600160a01b03831660009081527ff169d830093e543c5e2a4df1e47aae23a77e62aa0d6ca19e1e33e6e22e526f9f60209081526040808320858452918290529091205482906112598686610c6a565b61126391906125d2565b10156112b15760405162461bcd60e51b815260206004820152601260248201527f4e4f545f454e4f5547485f42414c414e434500000000000000000000000000006044820152606401610403565b600083815260208290526040812080548492906111fd9084906125e9565b336001600160a01b03851661134c5760405162461bcd60e51b815260206004820152602160248201527f455243313135353a206d696e7420746f20746865207a65726f2061646472657360448201527f73000000000000000000000000000000000000000000000000000000000000006064820152608401610403565b61136b8160008761135c8861186f565b6113658861186f565b87611426565b60008481527f93d5f1e3ad87f1fc4313940b5c964ec29137b7e8ef5c0b76f7e2c77f7f0e0324602090815260408083206001600160a01b0389168452909152812080548592906113bc9084906125e9565b909155505060408051858152602081018590526001600160a01b0380881692600092918516917fc3d58168c5ae7397731d063d5bbf3d657854427343f4c083240f7aacaa2d0f629101610f97565b6114188686868686866118ba565b61041a868686868686611a83565b61041a868686868686611b7f565b6001600160a01b0384166114985760405162461bcd60e51b815260206004820152602560248201527f455243313135353a207472616e7366657220746f20746865207a65726f206164604482015264647265737360d81b6064820152608401610403565b81518351146114fa5760405162461bcd60e51b815260206004820152602860248201527f455243313135353a2069647320616e6420616d6f756e7473206c656e677468206044820152670dad2e6dac2e8c6d60c31b6064820152608401610403565b611508868686868686611426565b7f93d5f1e3ad87f1fc4313940b5c964ec29137b7e8ef5c0b76f7e2c77f7f0e032460005b845181101561166057600085828151811061154957611549612542565b60200260200101519050600085838151811061156757611567612542565b602090810291909101810151600084815286835260408082206001600160a01b038e16835290935291909120549091508181101561160d5760405162461bcd60e51b815260206004820152602b60248201527f455243313135353a20696e73756666696369656e742062616c616e636573206660448201527f6f72207472616e736665720000000000000000000000000000000000000000006064820152608401610403565b6000838152602086815260408083206001600160a01b038e811685529252808320938590039093558a1681529081208054600195909501948392906116539084906125e9565b9091555061152c92505050565b50846001600160a01b0316866001600160a01b0316886001600160a01b03167f4a39dc06d4c0dbc64b70af90fd698a233a518aa5d07e595d983b8c0526c8f7fb87876040516116b09291906125a4565b60405180910390a450505050505050565b6001600160a01b0384163b1561041a5760405163bc197c8160e01b81526001600160a01b0385169063bc197c8190611705908990899088908890889060040161264e565b6020604051808303816000875af1925050508015611740575060408051601f3d908101601f1916820190925261173d918101906126ac565b60015b6117f55761174c6126d6565b806308c379a00361178557506117606126f2565b8061176b5750611787565b8060405162461bcd60e51b8152600401610403919061277c565b505b60405162461bcd60e51b815260206004820152603460248201527f455243313135353a207472616e7366657220746f206e6f6e204552433131353560448201527f526563656976657220696d706c656d656e7465720000000000000000000000006064820152608401610403565b6001600160e01b0319811663bc197c8160e01b146118665760405162461bcd60e51b815260206004820152602860248201527f455243313135353a204552433131353552656365697665722072656a656374656044820152676420746f6b656e7360c01b6064820152608401610403565b50505050505050565b604080516001808252818301909252606091600091906020808301908036833701905050905082816000815181106118a9576118a9612542565b602090810291909101015292915050565b6001600160a01b03841661191e5760405162461bcd60e51b815260206004820152602560248201527f455243313135353a207472616e7366657220746f20746865207a65726f206164604482015264647265737360d81b6064820152608401610403565b61193c86868661192d8761186f565b6119368761186f565b86611426565b60008381527f93d5f1e3ad87f1fc4313940b5c964ec29137b7e8ef5c0b76f7e2c77f7f0e0324602081815260408084206001600160a01b038a16855290915290912054838110156119f55760405162461bcd60e51b815260206004820152602b60248201527f455243313135353a20696e73756666696369656e742062616c616e636573206660448201527f6f72207472616e736665720000000000000000000000000000000000000000006064820152608401610403565b6000858152602083815260408083206001600160a01b038b81168552925280832093879003909355871681529081208054859290611a349084906125e9565b909155505060408051858152602081018590526001600160a01b038088169289821692918b16917fc3d58168c5ae7397731d063d5bbf3d657854427343f4c083240f7aacaa2d0f6291016116b0565b6001600160a01b0384163b1561041a5760405163f23a6e6160e01b81526001600160a01b0385169063f23a6e6190611ac7908990899088908890889060040161278f565b6020604051808303816000875af1925050508015611b02575060408051601f3d908101601f19168201909252611aff918101906126ac565b60015b611b0e5761174c6126d6565b6001600160e01b0319811663f23a6e6160e01b146118665760405162461bcd60e51b815260206004820152602860248201527f455243313135353a204552433131353552656365697665722072656a656374656044820152676420746f6b656e7360c01b6064820152608401610403565b6001600160a01b03851615611cbb5760005b8351811015611cb957828181518110611bac57611bac612542565b6020026020010151611bdb7ff169d830093e543c5e2a4df1e47aae23a77e62aa0d6ca19e1e33e6e22e526f9f90565b6000016000886001600160a01b03166001600160a01b031681526020019081526020016000206000868481518110611c1557611c15612542565b6020026020010151815260200190815260200160002054611c4f88878581518110611c4257611c42612542565b6020026020010151610c6a565b611c5991906125d2565b1015611ca75760405162461bcd60e51b815260206004820152600660248201527f4c4f434b454400000000000000000000000000000000000000000000000000006044820152606401610403565b80611cb18161258b565b915050611b91565b505b61041a8686868686866001600160a01b038516611e35577fbef313cd0145ce9ea5e5736c296fdd12e5b8495f1ac6754a82f66705a39baf207fbef313cd0145ce9ea5e5736c296fdd12e5b8495f1ac6754a82f66705a39baf2160005b8551811015611e3157848181518110611d3257611d32612542565b6020026020010151836000888481518110611d4f57611d4f612542565b602002602001015181526020019081526020016000206000828254611d7491906125e9565b92505081905550816000878381518110611d9057611d90612542565b6020026020010151815260200190815260200160002054836000888481518110611dbc57611dbc612542565b60200260200101518152602001908152602001600020541115611e215760405162461bcd60e51b815260206004820152601160248201527f535550504c595f4558434545445f4d41580000000000000000000000000000006044820152606401610403565b611e2a8161258b565b9050611d17565b5050505b6001600160a01b03841661041a577fbef313cd0145ce9ea5e5736c296fdd12e5b8495f1ac6754a82f66705a39baf2060005b8451811015611f5c576000858281518110611e8457611e84612542565b602002602001015190506000858381518110611ea257611ea2612542565b60200260200101519050600084600084815260200190815260200160002054905081811015611f395760405162461bcd60e51b815260206004820152602860248201527f455243313135353a206275726e20616d6f756e74206578636565647320746f7460448201527f616c537570706c790000000000000000000000000000000000000000000000006064820152608401610403565b60009283526020859052604090922091039055611f558161258b565b9050611e67565b5050505050505050565b80356001600160a01b0381168114611f7d57600080fd5b919050565b60008060408385031215611f9557600080fd5b611f9e83611f66565b946020939093013593505050565b634e487b7160e01b600052604160045260246000fd5b601f8201601f1916810167ffffffffffffffff81118282101715611fe857611fe8611fac565b6040525050565b600067ffffffffffffffff82111561200957612009611fac565b5060051b60200190565b600082601f83011261202457600080fd5b8135602061203182611fef565b60405161203e8282611fc2565b83815260059390931b850182019282810191508684111561205e57600080fd5b8286015b848110156120795780358352918301918301612062565b509695505050505050565b60008060006060848603121561209957600080fd5b6120a284611f66565b9250602084013567ffffffffffffffff808211156120bf57600080fd5b6120cb87838801612013565b935060408601359150808211156120e157600080fd5b506120ee86828701612013565b9150509250925092565b600082601f83011261210957600080fd5b813567ffffffffffffffff81111561212357612123611fac565b60405161213a601f8301601f191660200182611fc2565b81815284602083860101111561214f57600080fd5b816020850160208301376000918101602001919091529392505050565b600080600080600060a0868803121561218457600080fd5b61218d86611f66565b945061219b60208701611f66565b9350604086013567ffffffffffffffff808211156121b857600080fd5b6121c489838a01612013565b945060608801359150808211156121da57600080fd5b6121e689838a01612013565b935060808801359150808211156121fc57600080fd5b50612209888289016120f8565b9150509295509295909350565b60008060006060848603121561222b57600080fd5b61223484611f66565b95602085013595506040909401359392505050565b6000806040838503121561225c57600080fd5b823567ffffffffffffffff8082111561227457600080fd5b818501915085601f83011261228857600080fd5b8135602061229582611fef565b6040516122a28282611fc2565b83815260059390931b85018201928281019150898411156122c257600080fd5b948201945b838610156122e7576122d886611f66565b825294820194908201906122c7565b965050860135925050808211156122fd57600080fd5b5061230a85828601612013565b9150509250929050565b600081518084526020808501945080840160005b8381101561234457815187529582019590820190600101612328565b509495945050505050565b6020815260006103166020830184612314565b60006020828403121561237457600080fd5b5035919050565b801515811461238957600080fd5b50565b6000806040838503121561239f57600080fd5b6123a883611f66565b915060208301356123b88161237b565b809150509250929050565b6000806000604084860312156123d857600080fd5b6123e184611f66565b9250602084013567ffffffffffffffff808211156123fe57600080fd5b818601915086601f83011261241257600080fd5b81358181111561242157600080fd5b8760208260051b850101111561243657600080fd5b6020830194508093505050509250925092565b6000806000806080858703121561245f57600080fd5b61246885611f66565b93506020850135925060408501359150606085013567ffffffffffffffff81111561249257600080fd5b61249e878288016120f8565b91505092959194509250565b600080604083850312156124bd57600080fd5b6124c683611f66565b91506124d460208401611f66565b90509250929050565b600080600080600060a086880312156124f557600080fd5b6124fe86611f66565b945061250c60208701611f66565b93506040860135925060608601359150608086013567ffffffffffffffff81111561253657600080fd5b612209888289016120f8565b634e487b7160e01b600052603260045260246000fd5b60006020828403121561256a57600080fd5b81516103168161237b565b634e487b7160e01b600052601160045260246000fd5b60006001820161259d5761259d612575565b5060010190565b6040815260006125b76040830185612314565b82810360208401526125c98185612314565b95945050505050565b6000828210156125e4576125e4612575565b500390565b600082198211156125fc576125fc612575565b500190565b6000815180845260005b818110156126275760208185018101518683018201520161260b565b81811115612639576000602083870101525b50601f01601f19169290920160200192915050565b60006001600160a01b03808816835280871660208401525060a0604083015261267a60a0830186612314565b828103606084015261268c8186612314565b905082810360808401526126a08185612601565b98975050505050505050565b6000602082840312156126be57600080fd5b81516001600160e01b03198116811461031657600080fd5b600060033d11156126ef5760046000803e5060005160e01c5b90565b600060443d10156127005790565b6040516003193d81016004833e81513d67ffffffffffffffff816024840111818411171561273057505050505090565b82850191508151818111156127485750505050505090565b843d87010160208285010111156127625750505050505090565b61277160208286010187611fc2565b509095945050505050565b6020815260006103166020830184612601565b60006001600160a01b03808816835280871660208401525084604083015283606083015260a060808301526127c760a0830184612601565b97965050505050505056fea26469706673582212207704390de49fa18f120bc1c8903b46fbae55c872ea875a9db100d0e2b47aa08164736f6c634300080f0033",
  "devdoc": {
    "kind": "dev",
    "methods": {
      "balanceOf(address,uint256)": {
        "params": {
          "account": "address to query",
          "id": "token to query"
        },
        "returns": {
          "_0": "token balance"
        }
      },
      "balanceOfBatch(address[],uint256[])": {
        "params": {
          "accounts": "addresss to query",
          "ids": "tokens to query"
        },
        "returns": {
          "_0": "token balances"
        }
      },
      "exists(uint256)": {
        "details": "Indicates whether any token exist with a given id, or not."
      },
      "isApprovedForAll(address,address)": {
        "params": {
          "account": "address to query for approval granted",
          "operator": "address to query for approval received"
        },
        "returns": {
          "_0": "whether operator is approved to spend tokens held by account"
        }
      },
      "lockByFacet(address,uint256,uint256)": {
        "details": "Locks `amount` of tokens of `account`, of token type `id`. Requirements: - the caller must be diamond itself (other facets)."
      },
      "maxSupply(uint256)": {
        "details": "Maximum amount of tokens possible to exist for a given id."
      },
      "mintByFacet(address,uint256,uint256,bytes)": {
        "details": "Creates `amount` new tokens for `to`, of token type `id`. See {ERC1155-_mint}. Requirements: - the caller must be diamond itself (other facets)."
      },
      "safeBatchTransferFrom(address,address,uint256[],uint256[],bytes)": {
        "params": {
          "amounts": "list of quantities of tokens to transfer",
          "data": "data payload",
          "from": "sender of tokens",
          "ids": "list of token IDs",
          "to": "receiver of tokens"
        }
      },
      "safeTransferFrom(address,address,uint256,uint256,bytes)": {
        "params": {
          "amount": "quantity of tokens to transfer",
          "data": "data payload",
          "from": "sender of tokens",
          "id": "token ID",
          "to": "receiver of tokens"
        }
      },
      "setApprovalForAll(address,bool)": {
        "params": {
          "operator": "address whose approval status to update",
          "status": "whether operator should be considered approved"
        }
      },
      "totalSupply(uint256)": {
        "details": "Total amount of tokens in with a given id."
      },
      "unlockByFacet(address,uint256,uint256)": {
        "details": "Un-locks `amount` of tokens of `account`, of token type `id`. Requirements: - the caller must be diamond itself (other facets)."
      }
    },
    "version": 1
  },
  "userdoc": {
    "errors": {
      "SenderIsNotSelf()": [
        {
          "notice": "The caller must be the current contract itself."
        }
      ]
    },
    "kind": "user",
    "methods": {
      "balanceOf(address,uint256)": {
        "notice": "query the balance of given token held by given address"
      },
      "balanceOfBatch(address[],uint256[])": {
        "notice": "query the balances of given tokens held by given addresses"
      },
      "isApprovedForAll(address,address)": {
        "notice": "query approval status of given operator with respect to given address"
      },
      "safeBatchTransferFrom(address,address,uint256[],uint256[],bytes)": {
        "notice": "transfer batch of tokens between given addresses, checking for ERC1155Receiver implementation if applicable"
      },
      "safeTransferFrom(address,address,uint256,uint256,bytes)": {
        "notice": "transfer tokens between given addresses, checking for ERC1155Receiver implementation if applicable"
      },
      "setApprovalForAll(address,bool)": {
        "notice": "grant approval to or revoke approval from given operator to spend held tokens"
      }
    },
    "version": 1
  },
  "storageLayout": {
    "storage": [],
    "types": null
  }
}