{
  "address": "0x4c75ac067AE462f4Da51Bfb41f50eeaff8B04e1B",
  "abi": [
    {
      "inputs": [
        {
          "internalType": "bytes4",
          "name": "interfaceId",
          "type": "bytes4"
        }
      ],
      "name": "supportsInterface",
      "outputs": [
        {
          "internalType": "bool",
          "name": "",
          "type": "bool"
        }
      ],
      "stateMutability": "view",
      "type": "function"
    }
  ],
  "transactionHash": "0x91aaa246f5edb64cd37b8444233c5b3aa0246c5d3335e776bcfbb546342a8204",
  "args": [],
  "numDeployments": 1,
  "solcInputHash": "77c57fe1b070bde9230f9aac838c5506",
  "bytecode": "0x608060405234801561001057600080fd5b5061011f806100206000396000f3fe6080604052348015600f57600080fd5b506004361060285760003560e01c806301ffc9a714602d575b600080fd5b608e603836600460a2565b7fffffffff000000000000000000000000000000000000000000000000000000001660009081527fff923f4a67695a9cdd5da4b8580a5a20edf2183c42aa111dd7fc15dc7bed2640602052604090205460ff1690565b604051901515815260200160405180910390f35b60006020828403121560b357600080fd5b81357fffffffff000000000000000000000000000000000000000000000000000000008116811460e257600080fd5b939250505056fea2646970667358221220b3ef514c7b4ac39bf74e2a4a6b23d7acfd6d39eac72b32f939f9e97c701b93d164736f6c634300080f0033",
  "devdoc": {
    "kind": "dev",
    "methods": {
      "supportsInterface(bytes4)": {
        "params": {
          "interfaceId": "interface id"
        },
        "returns": {
          "_0": "bool whether interface is supported"
        }
      }
    },
    "title": "ERC165 implementation",
    "version": 1
  },
  "userdoc": {
    "kind": "user",
    "methods": {
      "supportsInterface(bytes4)": {
        "notice": "query whether contract has registered support for given interface"
      }
    },
    "version": 1
  },
  "storageLayout": {
    "storage": [],
    "types": null
  }
}