{
  "address": "0xBa1F0C3dB0eF58FD2Df1e696518D60fdD0448705",
  "abi": [
    {
      "inputs": [],
      "name": "SenderIsNotSelf",
      "type": "error"
    },
    {
      "anonymous": false,
      "inputs": [
        {
          "indexed": true,
          "internalType": "address",
          "name": "account",
          "type": "address"
        },
        {
          "indexed": true,
          "internalType": "address",
          "name": "operator",
          "type": "address"
        },
        {
          "indexed": false,
          "internalType": "bool",
          "name": "approved",
          "type": "bool"
        }
      ],
      "name": "ApprovalForAll",
      "type": "event"
    },
    {
      "anonymous": false,
      "inputs": [
        {
          "indexed": true,
          "internalType": "address",
          "name": "previousOwner",
          "type": "address"
        },
        {
          "indexed": true,
          "internalType": "address",
          "name": "newOwner",
          "type": "address"
        }
      ],
      "name": "OwnershipTransferred",
      "type": "event"
    },
    {
      "anonymous": false,
      "inputs": [
        {
          "indexed": true,
          "internalType": "address",
          "name": "operator",
          "type": "address"
        },
        {
          "indexed": true,
          "internalType": "address",
          "name": "from",
          "type": "address"
        },
        {
          "indexed": true,
          "internalType": "address",
          "name": "to",
          "type": "address"
        },
        {
          "indexed": false,
          "internalType": "uint256[]",
          "name": "ids",
          "type": "uint256[]"
        },
        {
          "indexed": false,
          "internalType": "uint256[]",
          "name": "values",
          "type": "uint256[]"
        }
      ],
      "name": "TransferBatch",
      "type": "event"
    },
    {
      "anonymous": false,
      "inputs": [
        {
          "indexed": true,
          "internalType": "address",
          "name": "operator",
          "type": "address"
        },
        {
          "indexed": true,
          "internalType": "address",
          "name": "from",
          "type": "address"
        },
        {
          "indexed": true,
          "internalType": "address",
          "name": "to",
          "type": "address"
        },
        {
          "indexed": false,
          "internalType": "uint256",
          "name": "id",
          "type": "uint256"
        },
        {
          "indexed": false,
          "internalType": "uint256",
          "name": "value",
          "type": "uint256"
        }
      ],
      "name": "TransferSingle",
      "type": "event"
    },
    {
      "inputs": [
        {
          "internalType": "address",
          "name": "account",
          "type": "address"
        },
        {
          "internalType": "uint256",
          "name": "id",
          "type": "uint256"
        }
      ],
      "name": "balanceOf",
      "outputs": [
        {
          "internalType": "uint256",
          "name": "",
          "type": "uint256"
        }
      ],
      "stateMutability": "view",
      "type": "function"
    },
    {
      "inputs": [
        {
          "internalType": "address[]",
          "name": "accounts",
          "type": "address[]"
        },
        {
          "internalType": "uint256[]",
          "name": "ids",
          "type": "uint256[]"
        }
      ],
      "name": "balanceOfBatch",
      "outputs": [
        {
          "internalType": "uint256[]",
          "name": "",
          "type": "uint256[]"
        }
      ],
      "stateMutability": "view",
      "type": "function"
    },
    {
      "inputs": [
        {
          "internalType": "uint256",
          "name": "id",
          "type": "uint256"
        }
      ],
      "name": "exists",
      "outputs": [
        {
          "internalType": "bool",
          "name": "",
          "type": "bool"
        }
      ],
      "stateMutability": "view",
      "type": "function"
    },
    {
      "inputs": [
        {
          "internalType": "address",
          "name": "account",
          "type": "address"
        },
        {
          "internalType": "address",
          "name": "operator",
          "type": "address"
        }
      ],
      "name": "isApprovedForAll",
      "outputs": [
        {
          "internalType": "bool",
          "name": "",
          "type": "bool"
        }
      ],
      "stateMutability": "view",
      "type": "function"
    },
    {
      "inputs": [
        {
          "internalType": "uint256",
          "name": "id",
          "type": "uint256"
        }
      ],
      "name": "maxSupply",
      "outputs": [
        {
          "internalType": "uint256",
          "name": "",
          "type": "uint256"
        }
      ],
      "stateMutability": "view",
      "type": "function"
    },
    {
      "inputs": [
        {
          "internalType": "address",
          "name": "to",
          "type": "address"
        },
        {
          "internalType": "uint256",
          "name": "id",
          "type": "uint256"
        },
        {
          "internalType": "uint256",
          "name": "amount",
          "type": "uint256"
        },
        {
          "internalType": "bytes",
          "name": "data",
          "type": "bytes"
        }
      ],
      "name": "mintByFacet",
      "outputs": [],
      "stateMutability": "nonpayable",
      "type": "function"
    },
    {
      "inputs": [
        {
          "internalType": "address",
          "name": "to",
          "type": "address"
        },
        {
          "internalType": "uint256",
          "name": "id",
          "type": "uint256"
        },
        {
          "internalType": "uint256",
          "name": "amount",
          "type": "uint256"
        },
        {
          "internalType": "bytes",
          "name": "data",
          "type": "bytes"
        }
      ],
      "name": "mintByOwner",
      "outputs": [],
      "stateMutability": "nonpayable",
      "type": "function"
    },
    {
      "inputs": [
        {
          "internalType": "address",
          "name": "from",
          "type": "address"
        },
        {
          "internalType": "address",
          "name": "to",
          "type": "address"
        },
        {
          "internalType": "uint256[]",
          "name": "ids",
          "type": "uint256[]"
        },
        {
          "internalType": "uint256[]",
          "name": "amounts",
          "type": "uint256[]"
        },
        {
          "internalType": "bytes",
          "name": "data",
          "type": "bytes"
        }
      ],
      "name": "safeBatchTransferFrom",
      "outputs": [],
      "stateMutability": "nonpayable",
      "type": "function"
    },
    {
      "inputs": [
        {
          "internalType": "address",
          "name": "from",
          "type": "address"
        },
        {
          "internalType": "address",
          "name": "to",
          "type": "address"
        },
        {
          "internalType": "uint256",
          "name": "id",
          "type": "uint256"
        },
        {
          "internalType": "uint256",
          "name": "amount",
          "type": "uint256"
        },
        {
          "internalType": "bytes",
          "name": "data",
          "type": "bytes"
        }
      ],
      "name": "safeTransferFrom",
      "outputs": [],
      "stateMutability": "nonpayable",
      "type": "function"
    },
    {
      "inputs": [
        {
          "internalType": "address",
          "name": "operator",
          "type": "address"
        },
        {
          "internalType": "bool",
          "name": "status",
          "type": "bool"
        }
      ],
      "name": "setApprovalForAll",
      "outputs": [],
      "stateMutability": "nonpayable",
      "type": "function"
    },
    {
      "inputs": [
        {
          "internalType": "uint256",
          "name": "id",
          "type": "uint256"
        }
      ],
      "name": "totalSupply",
      "outputs": [
        {
          "internalType": "uint256",
          "name": "",
          "type": "uint256"
        }
      ],
      "stateMutability": "view",
      "type": "function"
    }
  ],
  "transactionHash": "0x1fbf177b4dec937eaead7f61399151eeea3ab58531afd29f49bc33e16fa3a6b1",
  "args": [],
  "numDeployments": 3,
  "solcInputHash": "af9179e3c4ecac437c7110805c74beb3",
  "bytecode": "0x608060405234801561001057600080fd5b50611ce2806100206000396000f3fe608060405234801561001057600080fd5b50600436106100c85760003560e01c8063869f759411610081578063bd85b0391161005b578063bd85b03914610197578063e985e9c5146101aa578063f242432a1461020557600080fd5b8063869f75941461015e578063a22cb46514610171578063b164884b1461018457600080fd5b80634e1273f4116100b25780634e1273f4146101085780634f558e79146101285780635135bec11461014b57600080fd5b8062fdd58e146100cd5780632eb2c2d6146100f3575b600080fd5b6100e06100db3660046115b2565b610218565b6040519081526020015b60405180910390f35b610106610101366004611728565b61022b565b005b61011b6101163660046117d2565b610328565b6040516100ea91906118d8565b61013b6101363660046118eb565b61054f565b60405190151581526020016100ea565b610106610159366004611904565b610586565b6100e061016c3660046118eb565b610611565b61010661017f366004611965565b610644565b610106610192366004611904565b610764565b6100e06101a53660046118eb565b61079d565b61013b6101b83660046119a1565b6001600160a01b0391821660009081527f93d5f1e3ad87f1fc4313940b5c964ec29137b7e8ef5c0b76f7e2c77f7f0e03256020908152604080832093909416825291909152205460ff1690565b6101066102133660046119d4565b6107d0565b600061022483836108c0565b9392505050565b6000610235610985565b9050806001600160a01b0316866001600160a01b0316148061029b57506001600160a01b0380871660009081527f93d5f1e3ad87f1fc4313940b5c964ec29137b7e8ef5c0b76f7e2c77f7f0e0325602090815260408083209385168352929052205460ff165b6103125760405162461bcd60e51b815260206004820152602960248201527f455243313135353a2063616c6c6572206973206e6f74206f776e6572206e6f7260448201527f20617070726f766564000000000000000000000000000000000000000000000060648201526084015b60405180910390fd5b6103208187878787876109ce565b505050505050565b606081518351146103a15760405162461bcd60e51b815260206004820152602960248201527f455243313135353a206163636f756e747320616e6420696473206c656e67746860448201527f206d69736d6174636800000000000000000000000000000000000000000000006064820152608401610309565b82517f93d5f1e3ad87f1fc4313940b5c964ec29137b7e8ef5c0b76f7e2c77f7f0e03249060009067ffffffffffffffff8111156103e0576103e06115dc565b604051908082528060200260200182016040528015610409578160200160208202803683370190505b50905060005b85518110156105465760006001600160a01b031686828151811061043557610435611a39565b60200260200101516001600160a01b0316036104b95760405162461bcd60e51b815260206004820152603160248201527f455243313135353a2062617463682062616c616e636520717565727920666f7260448201527f20746865207a65726f20616464726573730000000000000000000000000000006064820152608401610309565b8260008683815181106104ce576104ce611a39565b6020026020010151815260200190815260200160002060008783815181106104f8576104f8611a39565b60200260200101516001600160a01b03166001600160a01b031681526020019081526020016000205482828151811061053357610533611a39565b602090810291909101015260010161040f565b50949350505050565b60008181527fbef313cd0145ce9ea5e5736c296fdd12e5b8495f1ac6754a82f66705a39baf20602052604081205415155b92915050565b7fc0ea367cb0174dd5521cd2372c76f8c13e6c1f832c71f1d6e0cbc185c9cc8ed4546001600160a01b031633146105ff5760405162461bcd60e51b815260206004820152601d60248201527f4f776e61626c653a2073656e646572206d757374206265206f776e65720000006044820152606401610309565b61060b848484846109ea565b50505050565b60008181527fbef313cd0145ce9ea5e5736c296fdd12e5b8495f1ac6754a82f66705a39baf216020526040812054610580565b600061064e610985565b9050826001600160a01b0316816001600160a01b0316036106d75760405162461bcd60e51b815260206004820152602960248201527f455243313135353a2073657474696e6720617070726f76616c2073746174757360448201527f20666f722073656c6600000000000000000000000000000000000000000000006064820152608401610309565b6001600160a01b0381811660008181527f93d5f1e3ad87f1fc4313940b5c964ec29137b7e8ef5c0b76f7e2c77f7f0e03256020908152604080832094881680845294825291829020805460ff1916871515908117909155825190815291517f17307eab39ab6107e8899845ad3d59bd9653f200f220920489ca2b5937696c319281900390910190a3505050565b3033146105ff576040517fa2f8388400000000000000000000000000000000000000000000000000000000815260040160405180910390fd5b60008181527fbef313cd0145ce9ea5e5736c296fdd12e5b8495f1ac6754a82f66705a39baf206020526040812054610580565b60006107da610985565b9050806001600160a01b0316866001600160a01b0316148061084057506001600160a01b0380871660009081527f93d5f1e3ad87f1fc4313940b5c964ec29137b7e8ef5c0b76f7e2c77f7f0e0325602090815260408083209385168352929052205460ff165b6108b25760405162461bcd60e51b815260206004820152602960248201527f455243313135353a2063616c6c6572206973206e6f74206f776e6572206e6f7260448201527f20617070726f76656400000000000000000000000000000000000000000000006064820152608401610309565b610320818787878787610b3a565b60006001600160a01b03831661093e5760405162461bcd60e51b815260206004820152602b60248201527f455243313135353a2062616c616e636520717565727920666f7220746865207a60448201527f65726f20616464726573730000000000000000000000000000000000000000006064820152608401610309565b7f93d5f1e3ad87f1fc4313940b5c964ec29137b7e8ef5c0b76f7e2c77f7f0e03246000928352602090815260408084206001600160a01b0395909516845293905250205490565b7f8cb501c3289f0b2347f4ba94b88fa355a4cd5266219cf6f4b7e5f7f3518beee5546000906001600160a01b031633036109c6575060131936013560601c90565b503390565b90565b6109dc868686868686610b56565b610320868686868686610df8565b60006109f4610985565b90506001600160a01b038516610a725760405162461bcd60e51b815260206004820152602160248201527f455243313135353a206d696e7420746f20746865207a65726f2061646472657360448201527f73000000000000000000000000000000000000000000000000000000000000006064820152608401610309565b610a9181600087610a8288610fbe565b610a8b88610fbe565b87611009565b60008481527f93d5f1e3ad87f1fc4313940b5c964ec29137b7e8ef5c0b76f7e2c77f7f0e0324602090815260408083206001600160a01b038916845290915281208054859290610ae2908490611a65565b909155505060408051858152602081018590526001600160a01b0380881692600092918516917fc3d58168c5ae7397731d063d5bbf3d657854427343f4c083240f7aacaa2d0f62910160405180910390a45050505050565b610b48868686868686611017565b6103208686868686866111e0565b6001600160a01b038416610bba5760405162461bcd60e51b815260206004820152602560248201527f455243313135353a207472616e7366657220746f20746865207a65726f206164604482015264647265737360d81b6064820152608401610309565b8151835114610c315760405162461bcd60e51b815260206004820152602860248201527f455243313135353a2069647320616e6420616d6f756e7473206c656e6774682060448201527f6d69736d617463680000000000000000000000000000000000000000000000006064820152608401610309565b610c3f868686868686611009565b7f93d5f1e3ad87f1fc4313940b5c964ec29137b7e8ef5c0b76f7e2c77f7f0e032460005b8451811015610d97576000858281518110610c8057610c80611a39565b602002602001015190506000858381518110610c9e57610c9e611a39565b602090810291909101810151600084815286835260408082206001600160a01b038e168352909352919091205490915081811015610d445760405162461bcd60e51b815260206004820152602b60248201527f455243313135353a20696e73756666696369656e742062616c616e636573206660448201527f6f72207472616e736665720000000000000000000000000000000000000000006064820152608401610309565b6000838152602086815260408083206001600160a01b038e811685529252808320938590039093558a168152908120805460019590950194839290610d8a908490611a65565b90915550610c6392505050565b50846001600160a01b0316866001600160a01b0316886001600160a01b03167f4a39dc06d4c0dbc64b70af90fd698a233a518aa5d07e595d983b8c0526c8f7fb8787604051610de7929190611a7d565b60405180910390a450505050505050565b6001600160a01b0384163b156103205760405163bc197c8160e01b81526001600160a01b0385169063bc197c8190610e3c9089908990889088908890600401611af8565b6020604051808303816000875af1925050508015610e77575060408051601f3d908101601f19168201909252610e7491810190611b56565b60015b610f2c57610e83611b98565b806308c379a003610ebc5750610e97611bb3565b80610ea25750610ebe565b8060405162461bcd60e51b81526004016103099190611c3d565b505b60405162461bcd60e51b815260206004820152603460248201527f455243313135353a207472616e7366657220746f206e6f6e204552433131353560448201527f526563656976657220696d706c656d656e7465720000000000000000000000006064820152608401610309565b7fffffffff00000000000000000000000000000000000000000000000000000000811663bc197c8160e01b14610fb55760405162461bcd60e51b815260206004820152602860248201527f455243313135353a204552433131353552656365697665722072656a656374656044820152676420746f6b656e7360c01b6064820152608401610309565b50505050505050565b60408051600180825281830190925260609160009190602080830190803683370190505090508281600081518110610ff857610ff8611a39565b602090810291909101015292915050565b6103208686868686866112f4565b6001600160a01b03841661107b5760405162461bcd60e51b815260206004820152602560248201527f455243313135353a207472616e7366657220746f20746865207a65726f206164604482015264647265737360d81b6064820152608401610309565b61109986868661108a87610fbe565b61109387610fbe565b86611009565b60008381527f93d5f1e3ad87f1fc4313940b5c964ec29137b7e8ef5c0b76f7e2c77f7f0e0324602081815260408084206001600160a01b038a16855290915290912054838110156111525760405162461bcd60e51b815260206004820152602b60248201527f455243313135353a20696e73756666696369656e742062616c616e636573206660448201527f6f72207472616e736665720000000000000000000000000000000000000000006064820152608401610309565b6000858152602083815260408083206001600160a01b038b81168552925280832093879003909355871681529081208054859290611191908490611a65565b909155505060408051858152602081018590526001600160a01b038088169289821692918b16917fc3d58168c5ae7397731d063d5bbf3d657854427343f4c083240f7aacaa2d0f629101610de7565b6001600160a01b0384163b156103205760405163f23a6e6160e01b81526001600160a01b0385169063f23a6e61906112249089908990889088908890600401611c50565b6020604051808303816000875af192505050801561125f575060408051601f3d908101601f1916820190925261125c91810190611b56565b60015b61126b57610e83611b98565b7fffffffff00000000000000000000000000000000000000000000000000000000811663f23a6e6160e01b14610fb55760405162461bcd60e51b815260206004820152602860248201527f455243313135353a204552433131353552656365697665722072656a656374656044820152676420746f6b656e7360c01b6064820152608401610309565b6001600160a01b038516611465577fbef313cd0145ce9ea5e5736c296fdd12e5b8495f1ac6754a82f66705a39baf207fbef313cd0145ce9ea5e5736c296fdd12e5b8495f1ac6754a82f66705a39baf2160005b85518110156114615784818151811061136257611362611a39565b602002602001015183600088848151811061137f5761137f611a39565b6020026020010151815260200190815260200160002060008282546113a49190611a65565b925050819055508160008783815181106113c0576113c0611a39565b60200260200101518152602001908152602001600020548360008884815181106113ec576113ec611a39565b602002602001015181526020019081526020016000205411156114515760405162461bcd60e51b815260206004820152601160248201527f535550504c595f4558434545445f4d41580000000000000000000000000000006044820152606401610309565b61145a81611c93565b9050611347565b5050505b6001600160a01b038416610320577fbef313cd0145ce9ea5e5736c296fdd12e5b8495f1ac6754a82f66705a39baf2060005b845181101561158c5760008582815181106114b4576114b4611a39565b6020026020010151905060008583815181106114d2576114d2611a39565b602002602001015190506000846000848152602001908152602001600020549050818110156115695760405162461bcd60e51b815260206004820152602860248201527f455243313135353a206275726e20616d6f756e74206578636565647320746f7460448201527f616c537570706c790000000000000000000000000000000000000000000000006064820152608401610309565b6000928352602085905260409092209103905561158581611c93565b9050611497565b5050505050505050565b80356001600160a01b03811681146115ad57600080fd5b919050565b600080604083850312156115c557600080fd5b6115ce83611596565b946020939093013593505050565b634e487b7160e01b600052604160045260246000fd5b601f8201601f1916810167ffffffffffffffff81118282101715611618576116186115dc565b6040525050565b600067ffffffffffffffff821115611639576116396115dc565b5060051b60200190565b600082601f83011261165457600080fd5b813560206116618261161f565b60405161166e82826115f2565b83815260059390931b850182019282810191508684111561168e57600080fd5b8286015b848110156116a95780358352918301918301611692565b509695505050505050565b600082601f8301126116c557600080fd5b813567ffffffffffffffff8111156116df576116df6115dc565b6040516116f6601f8301601f1916602001826115f2565b81815284602083860101111561170b57600080fd5b816020850160208301376000918101602001919091529392505050565b600080600080600060a0868803121561174057600080fd5b61174986611596565b945061175760208701611596565b9350604086013567ffffffffffffffff8082111561177457600080fd5b61178089838a01611643565b9450606088013591508082111561179657600080fd5b6117a289838a01611643565b935060808801359150808211156117b857600080fd5b506117c5888289016116b4565b9150509295509295909350565b600080604083850312156117e557600080fd5b823567ffffffffffffffff808211156117fd57600080fd5b818501915085601f83011261181157600080fd5b8135602061181e8261161f565b60405161182b82826115f2565b83815260059390931b850182019282810191508984111561184b57600080fd5b948201945b838610156118705761186186611596565b82529482019490820190611850565b9650508601359250508082111561188657600080fd5b5061189385828601611643565b9150509250929050565b600081518084526020808501945080840160005b838110156118cd578151875295820195908201906001016118b1565b509495945050505050565b602081526000610224602083018461189d565b6000602082840312156118fd57600080fd5b5035919050565b6000806000806080858703121561191a57600080fd5b61192385611596565b93506020850135925060408501359150606085013567ffffffffffffffff81111561194d57600080fd5b611959878288016116b4565b91505092959194509250565b6000806040838503121561197857600080fd5b61198183611596565b91506020830135801515811461199657600080fd5b809150509250929050565b600080604083850312156119b457600080fd5b6119bd83611596565b91506119cb60208401611596565b90509250929050565b600080600080600060a086880312156119ec57600080fd5b6119f586611596565b9450611a0360208701611596565b93506040860135925060608601359150608086013567ffffffffffffffff811115611a2d57600080fd5b6117c5888289016116b4565b634e487b7160e01b600052603260045260246000fd5b634e487b7160e01b600052601160045260246000fd5b60008219821115611a7857611a78611a4f565b500190565b604081526000611a90604083018561189d565b8281036020840152611aa2818561189d565b95945050505050565b6000815180845260005b81811015611ad157602081850181015186830182015201611ab5565b81811115611ae3576000602083870101525b50601f01601f19169290920160200192915050565b60006001600160a01b03808816835280871660208401525060a06040830152611b2460a083018661189d565b8281036060840152611b36818661189d565b90508281036080840152611b4a8185611aab565b98975050505050505050565b600060208284031215611b6857600080fd5b81517fffffffff000000000000000000000000000000000000000000000000000000008116811461022457600080fd5b600060033d11156109cb5760046000803e5060005160e01c90565b600060443d1015611bc15790565b6040516003193d81016004833e81513d67ffffffffffffffff8160248401118184111715611bf157505050505090565b8285019150815181811115611c095750505050505090565b843d8701016020828501011115611c235750505050505090565b611c32602082860101876115f2565b509095945050505050565b6020815260006102246020830184611aab565b60006001600160a01b03808816835280871660208401525084604083015283606083015260a06080830152611c8860a0830184611aab565b979650505050505050565b600060018201611ca557611ca5611a4f565b506001019056fea2646970667358221220e58d8e96fd7aed1fc5525a6f58421de41004c9d467d9caf81084081157cee31d64736f6c634300080f0033",
  "devdoc": {
    "kind": "dev",
    "methods": {
      "balanceOf(address,uint256)": {
        "params": {
          "account": "address to query",
          "id": "token to query"
        },
        "returns": {
          "_0": "token balance"
        }
      },
      "balanceOfBatch(address[],uint256[])": {
        "params": {
          "accounts": "addresss to query",
          "ids": "tokens to query"
        },
        "returns": {
          "_0": "token balances"
        }
      },
      "exists(uint256)": {
        "details": "Indicates whether any token exist with a given id, or not."
      },
      "isApprovedForAll(address,address)": {
        "params": {
          "account": "address to query for approval granted",
          "operator": "address to query for approval received"
        },
        "returns": {
          "_0": "whether operator is approved to spend tokens held by account"
        }
      },
      "maxSupply(uint256)": {
        "details": "Maximum amount of tokens possible to exist for a given id."
      },
      "mintByFacet(address,uint256,uint256,bytes)": {
        "details": "Creates `amount` new tokens for `to`, of token type `id`. See {ERC1155-_mint}. Requirements: - the caller must be diamond itself (other facets)."
      },
      "mintByOwner(address,uint256,uint256,bytes)": {
        "details": "Creates `amount` new tokens for `to`, of token type `id`. See {ERC1155-_mint}. Requirements: - the caller must be diamond owner."
      },
      "safeBatchTransferFrom(address,address,uint256[],uint256[],bytes)": {
        "params": {
          "amounts": "list of quantities of tokens to transfer",
          "data": "data payload",
          "from": "sender of tokens",
          "ids": "list of token IDs",
          "to": "receiver of tokens"
        }
      },
      "safeTransferFrom(address,address,uint256,uint256,bytes)": {
        "params": {
          "amount": "quantity of tokens to transfer",
          "data": "data payload",
          "from": "sender of tokens",
          "id": "token ID",
          "to": "receiver of tokens"
        }
      },
      "setApprovalForAll(address,bool)": {
        "params": {
          "operator": "address whose approval status to update",
          "status": "whether operator should be considered approved"
        }
      },
      "totalSupply(uint256)": {
        "details": "Total amount of tokens in with a given id."
      }
    },
    "version": 1
  },
  "userdoc": {
    "errors": {
      "SenderIsNotSelf()": [
        {
          "notice": "The caller must be the current contract itself."
        }
      ]
    },
    "kind": "user",
    "methods": {
      "balanceOf(address,uint256)": {
        "notice": "query the balance of given token held by given address"
      },
      "balanceOfBatch(address[],uint256[])": {
        "notice": "query the balances of given tokens held by given addresses"
      },
      "isApprovedForAll(address,address)": {
        "notice": "query approval status of given operator with respect to given address"
      },
      "safeBatchTransferFrom(address,address,uint256[],uint256[],bytes)": {
        "notice": "transfer batch of tokens between given addresses, checking for ERC1155Receiver implementation if applicable"
      },
      "safeTransferFrom(address,address,uint256,uint256,bytes)": {
        "notice": "transfer tokens between given addresses, checking for ERC1155Receiver implementation if applicable"
      },
      "setApprovalForAll(address,bool)": {
        "notice": "grant approval to or revoke approval from given operator to spend held tokens"
      }
    },
    "version": 1
  },
  "storageLayout": {
    "storage": [],
    "types": null
  }
}