{
  "address": "0x385FB70d31B9B732f9a75Ab1fC7d18De3DA337F8",
  "abi": [
    {
      "anonymous": false,
      "inputs": [
        {
          "indexed": true,
          "internalType": "address",
          "name": "previousOwner",
          "type": "address"
        },
        {
          "indexed": true,
          "internalType": "address",
          "name": "newOwner",
          "type": "address"
        }
      ],
      "name": "OwnershipTransferred",
      "type": "event"
    },
    {
      "inputs": [
        {
          "internalType": "uint256",
          "name": "tierId",
          "type": "uint256"
        },
        {
          "internalType": "address",
          "name": "minter",
          "type": "address"
        },
        {
          "internalType": "uint256",
          "name": "maxAllowance",
          "type": "uint256"
        },
        {
          "internalType": "bytes32[]",
          "name": "proof",
          "type": "bytes32[]"
        }
      ],
      "name": "eligibleForTier",
      "outputs": [
        {
          "internalType": "uint256",
          "name": "maxMintable",
          "type": "uint256"
        }
      ],
      "stateMutability": "view",
      "type": "function"
    },
    {
      "inputs": [
        {
          "internalType": "uint256",
          "name": "tierId",
          "type": "uint256"
        },
        {
          "internalType": "uint256",
          "name": "count",
          "type": "uint256"
        },
        {
          "internalType": "uint256",
          "name": "maxAllowance",
          "type": "uint256"
        },
        {
          "internalType": "bytes32[]",
          "name": "proof",
          "type": "bytes32[]"
        }
      ],
      "name": "mintByTier",
      "outputs": [],
      "stateMutability": "payable",
      "type": "function"
    },
    {
      "inputs": [
        {
          "internalType": "uint256",
          "name": "tierId",
          "type": "uint256"
        },
        {
          "internalType": "address",
          "name": "minter",
          "type": "address"
        },
        {
          "internalType": "uint256",
          "name": "maxAllowance",
          "type": "uint256"
        },
        {
          "internalType": "bytes32[]",
          "name": "proof",
          "type": "bytes32[]"
        }
      ],
      "name": "onTierAllowlist",
      "outputs": [
        {
          "internalType": "bool",
          "name": "",
          "type": "bool"
        }
      ],
      "stateMutability": "view",
      "type": "function"
    },
    {
      "inputs": [
        {
          "internalType": "uint256",
          "name": "tierId",
          "type": "uint256"
        }
      ],
      "name": "remainingForTier",
      "outputs": [
        {
          "internalType": "uint256",
          "name": "",
          "type": "uint256"
        }
      ],
      "stateMutability": "view",
      "type": "function"
    },
    {
      "inputs": [
        {
          "internalType": "uint256",
          "name": "tierId",
          "type": "uint256"
        }
      ],
      "name": "tierMints",
      "outputs": [
        {
          "internalType": "uint256",
          "name": "",
          "type": "uint256"
        }
      ],
      "stateMutability": "view",
      "type": "function"
    },
    {
      "inputs": [
        {
          "internalType": "uint256",
          "name": "tierId",
          "type": "uint256"
        },
        {
          "internalType": "address",
          "name": "wallet",
          "type": "address"
        }
      ],
      "name": "walletMintedByTier",
      "outputs": [
        {
          "internalType": "uint256",
          "name": "",
          "type": "uint256"
        }
      ],
      "stateMutability": "view",
      "type": "function"
    }
  ],
  "transactionHash": "0x40dc80b4bbb6152e34dbe9d1eb54d647e369d21b7014b4fc9b93b740a6a51cac",
  "args": [],
  "numDeployments": 1,
  "solcInputHash": "77c57fe1b070bde9230f9aac838c5506",
  "bytecode": "0x608060405234801561001057600080fd5b506001600055610f95806100256000396000f3fe6080604052600436106100655760003560e01c80635ea2c91b116100435780635ea2c91b1461014b57806368c7d37c14610160578063bd2c18f71461019057600080fd5b80631123f2ef1461006a57806353367f08146100df5780635897f8781461012b575b600080fd5b34801561007657600080fd5b506100cc610085366004610d6d565b60009182527fb7471df0c7246ed3d4a380504edfbb03f5845b709c7716243791636e4ba46cbf602090815260408084206001600160a01b0393909316845291905290205490565b6040519081526020015b60405180910390f35b3480156100eb57600080fd5b506100cc6100fa366004610d99565b60009081527fb7471df0c7246ed3d4a380504edfbb03f5845b709c7716243791636e4ba46cbe602052604090205490565b34801561013757600080fd5b506100cc610146366004610d99565b6101b0565b61015e610159366004610dfe565b610227565b005b34801561016c57600080fd5b5061018061017b366004610e5f565b610364565b60405190151581526020016100d6565b34801561019c57600080fd5b506100cc6101ab366004610e5f565b61037d565b60007fb7471df0c7246ed3d4a380504edfbb03f5845b709c7716243791636e4ba46cbb816101dd846103b0565b600085815260038401602090815260408083205460028701909252822060070154929350909161020d9190610ec0565b90508082101561021f57509392505050565b949350505050565b60026000540361027e5760405162461bcd60e51b815260206004820152601f60248201527f5265656e7472616e637947756172643a207265656e7472616e742063616c6c0060448201526064015b60405180910390fd5b6002600055610290858585858561046f565b3063b164884b61029e6107ce565b7f46f908971db3fbea57e8a21b2e54575e0e567ff2f950ead3c0dc83f15ec67154600089815260209190915260408082205490517fffffffff0000000000000000000000000000000000000000000000000000000060e086901b1681526001600160a01b03909316600484015260248301526044820188905260806064830152608482015260a401600060405180830381600087803b15801561034057600080fd5b505af1158015610354573d6000803e3d6000fd5b5050600160005550505050505050565b600061037386868686866107dd565b9695505050505050565b60006103738686868686610899565b7fb7471df0c7246ed3d4a380504edfbb03f5845b709c7716243791636e4ba46cbb90565b7fb7471df0c7246ed3d4a380504edfbb03f5845b709c7716243791636e4ba46cbc547fb7471df0c7246ed3d4a380504edfbb03f5845b709c7716243791636e4ba46cbb805460009261040191610ec0565b61040a84610b6b565b6104149190610ec0565b600084815260028301602052604090206006015490925015610469576000838152600382016020908152604080832054600285019092529091206006015461045c9190610ec0565b6104669083610ed7565b91505b50919050565b60006104796107ce565b9050600061048a8783878787610899565b90507fb7471df0c7246ed3d4a380504edfbb03f5845b709c7716243791636e4ba46cbb818711156104fd5760405162461bcd60e51b815260206004820152600b60248201527f455843454544535f4d41580000000000000000000000000000000000000000006044820152606401610275565b610506886103b0565b8711156105555760405162461bcd60e51b815260206004820152601260248201527f455843454544535f414c4c4f434154494f4e00000000000000000000000000006044820152606401610275565b600088815260028201602090815260408083206007015460038501909252909120546105819089610ed7565b11156105cf5760405162461bcd60e51b815260206004820152601260248201527f455843454544535f414c4c4f434154494f4e00000000000000000000000000006044820152606401610275565b60008881526002808301602052604090912001546001600160a01b03166106645760008881526002820160205260409020600301543490610611908990610eef565b111561065f5760405162461bcd60e51b815260206004820152601360248201527f494e53554646494349454e545f414d4f554e54000000000000000000000000006044820152606401610275565b610733565b600088815260028083016020526040909120908101546003909101546001600160a01b03909116906323b872dd90859030906106a1908c90610eef565b6040517fffffffff0000000000000000000000000000000000000000000000000000000060e086901b1681526001600160a01b03938416600482015292909116602483015260448201526064016020604051808303816000875af115801561070d573d6000803e3d6000fd5b505050506040513d601f19601f820116820180604052508101906107319190610f0e565b505b600088815260048201602090815260408083206001600160a01b038716845290915281208054899290610767908490610ed7565b909155505060008881526003820160205260408120805489929061078c908490610ed7565b90915550506000888152600282016020526040902060060154156107c457868160010160008282546107be9190610ed7565b90915550505b5050505050505050565b60006107d8610c76565b905090565b600061037383838080602002602001604051908101604052809392919081815260200183836020028082843760009201919091525061081f925061038c915050565b6000898152600291909101602052604090206005015461089488886040517fffffffffffffffffffffffffffffffffffffffff000000000000000000000000606084901b1660208201526034810182905260009060540160405160208183030381529060405280519060200120905092915050565b610cbc565b60008581527fb7471df0c7246ed3d4a380504edfbb03f5845b709c7716243791636e4ba46cbd60205260408120600401547fb7471df0c7246ed3d4a380504edfbb03f5845b709c7716243791636e4ba46cbb906109385760405162461bcd60e51b815260206004820152600a60248201527f4e4f545f455849535453000000000000000000000000000000000000000000006044820152606401610275565b60008781526002820160205260409020544210156109985760405162461bcd60e51b815260206004820152600b60248201527f4e4f545f535441525445440000000000000000000000000000000000000000006044820152606401610275565b60008781526002820160205260409020600101544211156109fb5760405162461bcd60e51b815260206004820152600d60248201527f414c52454144595f454e444544000000000000000000000000000000000000006044820152606401610275565b60008781526004808301602090815260408084206001600160a01b038b1685528252808420548b8552600286019092529092200154610a3a9190610ec0565b600088815260028301602052604090206005015490925015610b6157600087815260048201602090815260408083206001600160a01b038a1684529091529020548511610ac95760405162461bcd60e51b815260206004820152600f60248201527f4d415845445f414c4c4f57414e434500000000000000000000000000000000006044820152606401610275565b610ad687878787876107dd565b610b225760405162461bcd60e51b815260206004820152600f60248201527f4e4f545f414c4c4f574c495354454400000000000000000000000000000000006044820152606401610275565b600087815260048201602090815260408083206001600160a01b038a168452909152812054610b519087610ec0565b905080831115610b5f578092505b505b5095945050505050565b7f744f4bd40000000000000000000000000000000000000000000000000000000060009081527fff923f4a67695a9cdd5da4b8580a5a20edf2183c42aa111dd7fc15dc7bed26406020527f35d3cc196fdbb37c639d9ccf02c0ac54b3a84c388495dbf9ab724144133fc6255460ff16610be75750600019919050565b60008281527f46f908971db3fbea57e8a21b2e54575e0e567ff2f950ead3c0dc83f15ec6715460209081526040808320548084527f7056dcda885936c7a9d7c6385902b4ab5fb09024caea98652b7189a5f7a28ea58352818420547f7056dcda885936c7a9d7c6385902b4ab5fb09024caea98652b7189a5f7a28ea69093529083205490929161021f91610ec0565b7fdb1d5e345c4903e9a32b6674ecc8b1deaddbbb2551474fb34c9d34becbe7f420546000906001600160a01b03163303610cb7575060131936013560601c90565b503390565b600082610cc98584610cd2565b14949350505050565b600081815b8451811015610d1757610d0382868381518110610cf657610cf6610f30565b6020026020010151610d1f565b915080610d0f81610f46565b915050610cd7565b509392505050565b6000818310610d3b576000828152602084905260409020610d4a565b60008381526020839052604090205b9392505050565b80356001600160a01b0381168114610d6857600080fd5b919050565b60008060408385031215610d8057600080fd5b82359150610d9060208401610d51565b90509250929050565b600060208284031215610dab57600080fd5b5035919050565b60008083601f840112610dc457600080fd5b50813567ffffffffffffffff811115610ddc57600080fd5b6020830191508360208260051b8501011115610df757600080fd5b9250929050565b600080600080600060808688031215610e1657600080fd5b853594506020860135935060408601359250606086013567ffffffffffffffff811115610e4257600080fd5b610e4e88828901610db2565b969995985093965092949392505050565b600080600080600060808688031215610e7757600080fd5b85359450610e8760208701610d51565b935060408601359250606086013567ffffffffffffffff811115610e4257600080fd5b634e487b7160e01b600052601160045260246000fd5b600082821015610ed257610ed2610eaa565b500390565b60008219821115610eea57610eea610eaa565b500190565b6000816000190483118215151615610f0957610f09610eaa565b500290565b600060208284031215610f2057600080fd5b81518015158114610d4a57600080fd5b634e487b7160e01b600052603260045260246000fd5b600060018201610f5857610f58610eaa565b506001019056fea264697066735822122076662ccf92122f14a51d20deed39632b1f71dee7216cd2e0ff7e0f8019a249db64736f6c634300080f0033",
  "devdoc": {
    "details": "Tiered Sales facet for ERC1155 with meta-transactions support via ERC2771",
    "kind": "dev",
    "methods": {},
    "version": 1
  },
  "userdoc": {
    "kind": "user",
    "methods": {},
    "version": 1
  },
  "storageLayout": {
    "storage": [
      {
        "astId": 10,
        "contract": "contracts/token/ERC1155/plugins/sales/ERC1155TieredSalesERC2771.sol:ERC1155TieredSalesERC2771",
        "label": "_status",
        "offset": 0,
        "slot": "0",
        "type": "t_uint256"
      }
    ],
    "types": {
      "t_uint256": {
        "encoding": "inplace",
        "label": "uint256",
        "numberOfBytes": "32"
      }
    }
  }
}