{
  "address": "0x8eab156D36C974AA92D9B81Ae90B910568eF8F93",
  "abi": [
    {
      "anonymous": false,
      "inputs": [
        {
          "indexed": true,
          "internalType": "address",
          "name": "account",
          "type": "address"
        },
        {
          "indexed": true,
          "internalType": "address",
          "name": "operator",
          "type": "address"
        },
        {
          "indexed": false,
          "internalType": "bool",
          "name": "approved",
          "type": "bool"
        }
      ],
      "name": "ApprovalForAll",
      "type": "event"
    },
    {
      "anonymous": false,
      "inputs": [
        {
          "indexed": true,
          "internalType": "address",
          "name": "operator",
          "type": "address"
        },
        {
          "indexed": true,
          "internalType": "address",
          "name": "from",
          "type": "address"
        },
        {
          "indexed": true,
          "internalType": "address",
          "name": "to",
          "type": "address"
        },
        {
          "indexed": false,
          "internalType": "uint256[]",
          "name": "ids",
          "type": "uint256[]"
        },
        {
          "indexed": false,
          "internalType": "uint256[]",
          "name": "values",
          "type": "uint256[]"
        }
      ],
      "name": "TransferBatch",
      "type": "event"
    },
    {
      "anonymous": false,
      "inputs": [
        {
          "indexed": true,
          "internalType": "address",
          "name": "operator",
          "type": "address"
        },
        {
          "indexed": true,
          "internalType": "address",
          "name": "from",
          "type": "address"
        },
        {
          "indexed": true,
          "internalType": "address",
          "name": "to",
          "type": "address"
        },
        {
          "indexed": false,
          "internalType": "uint256",
          "name": "id",
          "type": "uint256"
        },
        {
          "indexed": false,
          "internalType": "uint256",
          "name": "value",
          "type": "uint256"
        }
      ],
      "name": "TransferSingle",
      "type": "event"
    },
    {
      "inputs": [
        {
          "internalType": "address",
          "name": "account",
          "type": "address"
        },
        {
          "internalType": "uint256",
          "name": "id",
          "type": "uint256"
        }
      ],
      "name": "balanceOf",
      "outputs": [
        {
          "internalType": "uint256",
          "name": "",
          "type": "uint256"
        }
      ],
      "stateMutability": "view",
      "type": "function"
    },
    {
      "inputs": [
        {
          "internalType": "address[]",
          "name": "accounts",
          "type": "address[]"
        },
        {
          "internalType": "uint256[]",
          "name": "ids",
          "type": "uint256[]"
        }
      ],
      "name": "balanceOfBatch",
      "outputs": [
        {
          "internalType": "uint256[]",
          "name": "",
          "type": "uint256[]"
        }
      ],
      "stateMutability": "view",
      "type": "function"
    },
    {
      "inputs": [
        {
          "internalType": "address",
          "name": "account",
          "type": "address"
        },
        {
          "internalType": "address",
          "name": "operator",
          "type": "address"
        }
      ],
      "name": "isApprovedForAll",
      "outputs": [
        {
          "internalType": "bool",
          "name": "",
          "type": "bool"
        }
      ],
      "stateMutability": "view",
      "type": "function"
    },
    {
      "inputs": [
        {
          "internalType": "address",
          "name": "from",
          "type": "address"
        },
        {
          "internalType": "address",
          "name": "to",
          "type": "address"
        },
        {
          "internalType": "uint256[]",
          "name": "ids",
          "type": "uint256[]"
        },
        {
          "internalType": "uint256[]",
          "name": "amounts",
          "type": "uint256[]"
        },
        {
          "internalType": "bytes",
          "name": "data",
          "type": "bytes"
        }
      ],
      "name": "safeBatchTransferFrom",
      "outputs": [],
      "stateMutability": "nonpayable",
      "type": "function"
    },
    {
      "inputs": [
        {
          "internalType": "address",
          "name": "from",
          "type": "address"
        },
        {
          "internalType": "address",
          "name": "to",
          "type": "address"
        },
        {
          "internalType": "uint256",
          "name": "id",
          "type": "uint256"
        },
        {
          "internalType": "uint256",
          "name": "amount",
          "type": "uint256"
        },
        {
          "internalType": "bytes",
          "name": "data",
          "type": "bytes"
        }
      ],
      "name": "safeTransferFrom",
      "outputs": [],
      "stateMutability": "nonpayable",
      "type": "function"
    },
    {
      "inputs": [
        {
          "internalType": "address",
          "name": "operator",
          "type": "address"
        },
        {
          "internalType": "bool",
          "name": "status",
          "type": "bool"
        }
      ],
      "name": "setApprovalForAll",
      "outputs": [],
      "stateMutability": "nonpayable",
      "type": "function"
    }
  ],
  "transactionHash": "0xaba27c0fc81f9865bfe48a4beead35dcebd7e0e7408bc3ba08391828dddeb4c4",
  "args": [],
  "numDeployments": 1,
  "solcInputHash": "ac453fc96aed5abb3342b16f88ba326c",
  "bytecode": "0x608060405234801561001057600080fd5b50611383806100206000396000f3fe608060405234801561001057600080fd5b50600436106100615760003560e01c8062fdd58e146100665780632eb2c2d61461008c5780634e1273f4146100a1578063a22cb465146100c1578063e985e9c5146100d4578063f242432a146100f7575b600080fd5b610079610074366004610bea565b61010a565b6040519081526020015b60405180910390f35b61009f61009a366004610d5d565b61011d565b005b6100b46100af366004610e06565b610189565b6040516100839190610f0b565b61009f6100cf366004610f1e565b61037b565b6100e76100e2366004610f5a565b610479565b6040519015158152602001610083565b61009f610105366004610f8d565b6104b6565b60006101168383610511565b9392505050565b60006101276105ab565b9050806001600160a01b0316866001600160a01b0316148061014e575061014e8682610479565b6101735760405162461bcd60e51b815260040161016a90610ff1565b60405180910390fd5b6101818187878787876105f4565b505050505050565b606081518351146101ee5760405162461bcd60e51b815260206004820152602960248201527f455243313135353a206163636f756e747320616e6420696473206c656e677468604482015268040dad2e6dac2e8c6d60bb1b606482015260840161016a565b60006101f8610610565b6000019050600084516001600160401b0381111561021857610218610c14565b604051908082528060200260200182016040528015610241578160200160208202803683370190505b50905060005b85518110156103725760006001600160a01b031686828151811061026d5761026d61103a565b60200260200101516001600160a01b0316036102e55760405162461bcd60e51b815260206004820152603160248201527f455243313135353a2062617463682062616c616e636520717565727920666f7260448201527020746865207a65726f206164647265737360781b606482015260840161016a565b8260008683815181106102fa576102fa61103a565b6020026020010151815260200190815260200160002060008783815181106103245761032461103a565b60200260200101516001600160a01b03166001600160a01b031681526020019081526020016000205482828151811061035f5761035f61103a565b6020908102919091010152600101610247565b50949350505050565b60006103856105ab565b9050826001600160a01b0316816001600160a01b0316036103fa5760405162461bcd60e51b815260206004820152602960248201527f455243313135353a2073657474696e6720617070726f76616c20737461747573604482015268103337b91039b2b63360b91b606482015260840161016a565b81610403610610565b6001600160a01b0383811660008181526001939093016020908152604080852093891680865293825293849020805460ff1916951515959095179094559151851515815290927f17307eab39ab6107e8899845ad3d59bd9653f200f220920489ca2b5937696c31910160405180910390a3505050565b6000610483610610565b6001600160a01b039384166000908152600191909101602090815260408083209490951682529290925250205460ff1690565b60006104c06105ab565b9050806001600160a01b0316866001600160a01b031614806104e757506104e78682610479565b6105035760405162461bcd60e51b815260040161016a90610ff1565b610181818787878787610634565b60006001600160a01b03831661057d5760405162461bcd60e51b815260206004820152602b60248201527f455243313135353a2062616c616e636520717565727920666f7220746865207a60448201526a65726f206164647265737360a81b606482015260840161016a565b610585610610565b6000928352602090815260408084206001600160a01b0395909516845293905250205490565b7f8cb501c3289f0b2347f4ba94b88fa355a4cd5266219cf6f4b7e5f7f3518beee5546000906001600160a01b031633036105ec575060131936013560601c90565b503390565b90565b610602868686868686610650565b610181868686868686610826565b7f93d5f1e3ad87f1fc4313940b5c964ec29137b7e8ef5c0b76f7e2c77f7f0e032490565b610642868686868686610991565b610181868686868686610ab2565b6001600160a01b0384166106765760405162461bcd60e51b815260040161016a90611050565b81518351146106d85760405162461bcd60e51b815260206004820152602860248201527f455243313135353a2069647320616e6420616d6f756e7473206c656e677468206044820152670dad2e6dac2e8c6d60c31b606482015260840161016a565b60006106e2610610565b905060005b84518110156107c55760008582815181106107045761070461103a565b6020026020010151905060008583815181106107225761072261103a565b602090810291909101810151600084815286835260408082206001600160a01b038e1683529093529190912054909150818110156107725760405162461bcd60e51b815260040161016a90611095565b6000838152602086815260408083206001600160a01b038e811685529252808320938590039093558a1681529081208054600195909501948392906107b89084906110e0565b909155506106e792505050565b50846001600160a01b0316866001600160a01b0316886001600160a01b03167f4a39dc06d4c0dbc64b70af90fd698a233a518aa5d07e595d983b8c0526c8f7fb8787604051610815929190611106565b60405180910390a450505050505050565b610838846001600160a01b0316610b74565b156101815760405163bc197c8160e01b81526001600160a01b0385169063bc197c81906108719089908990889088908890600401611181565b6020604051808303816000875af19250505080156108ac575060408051601f3d908101601f191682019092526108a9918101906111df565b60015b610958576108b8611209565b806308c379a0036108f157506108cc611224565b806108d757506108f3565b8060405162461bcd60e51b815260040161016a91906112ad565b505b60405162461bcd60e51b815260206004820152603460248201527f455243313135353a207472616e7366657220746f206e6f6e20455243313135356044820152732932b1b2b4bb32b91034b6b83632b6b2b73a32b960611b606482015260840161016a565b6001600160e01b0319811663bc197c8160e01b146109885760405162461bcd60e51b815260040161016a906112c0565b50505050505050565b6001600160a01b0384166109b75760405162461bcd60e51b815260040161016a90611050565b6109d68686866109c687610b83565b6109cf87610b83565b5050505050565b60006109e0610610565b6000858152602082815260408083206001600160a01b038b16845290915290205490915083811015610a245760405162461bcd60e51b815260040161016a90611095565b6000858152602083815260408083206001600160a01b038b81168552925280832093879003909355871681529081208054859290610a639084906110e0565b909155505060408051858152602081018590526001600160a01b038088169289821692918b16917fc3d58168c5ae7397731d063d5bbf3d657854427343f4c083240f7aacaa2d0f629101610815565b610ac4846001600160a01b0316610b74565b156101815760405163f23a6e6160e01b81526001600160a01b0385169063f23a6e6190610afd9089908990889088908890600401611308565b6020604051808303816000875af1925050508015610b38575060408051601f3d908101601f19168201909252610b35918101906111df565b60015b610b44576108b8611209565b6001600160e01b0319811663f23a6e6160e01b146109885760405162461bcd60e51b815260040161016a906112c0565b6001600160a01b03163b151590565b60408051600180825281830190925260609160009190602080830190803683370190505090508281600081518110610bbd57610bbd61103a565b602090810291909101015292915050565b80356001600160a01b0381168114610be557600080fd5b919050565b60008060408385031215610bfd57600080fd5b610c0683610bce565b946020939093013593505050565b634e487b7160e01b600052604160045260246000fd5b601f8201601f191681016001600160401b0381118282101715610c4f57610c4f610c14565b6040525050565b60006001600160401b03821115610c6f57610c6f610c14565b5060051b60200190565b600082601f830112610c8a57600080fd5b81356020610c9782610c56565b604051610ca48282610c2a565b83815260059390931b8501820192828101915086841115610cc457600080fd5b8286015b84811015610cdf5780358352918301918301610cc8565b509695505050505050565b600082601f830112610cfb57600080fd5b81356001600160401b03811115610d1457610d14610c14565b604051610d2b601f8301601f191660200182610c2a565b818152846020838601011115610d4057600080fd5b816020850160208301376000918101602001919091529392505050565b600080600080600060a08688031215610d7557600080fd5b610d7e86610bce565b9450610d8c60208701610bce565b935060408601356001600160401b0380821115610da857600080fd5b610db489838a01610c79565b94506060880135915080821115610dca57600080fd5b610dd689838a01610c79565b93506080880135915080821115610dec57600080fd5b50610df988828901610cea565b9150509295509295909350565b60008060408385031215610e1957600080fd5b82356001600160401b0380821115610e3057600080fd5b818501915085601f830112610e4457600080fd5b81356020610e5182610c56565b604051610e5e8282610c2a565b83815260059390931b8501820192828101915089841115610e7e57600080fd5b948201945b83861015610ea357610e9486610bce565b82529482019490820190610e83565b96505086013592505080821115610eb957600080fd5b50610ec685828601610c79565b9150509250929050565b600081518084526020808501945080840160005b83811015610f0057815187529582019590820190600101610ee4565b509495945050505050565b6020815260006101166020830184610ed0565b60008060408385031215610f3157600080fd5b610f3a83610bce565b915060208301358015158114610f4f57600080fd5b809150509250929050565b60008060408385031215610f6d57600080fd5b610f7683610bce565b9150610f8460208401610bce565b90509250929050565b600080600080600060a08688031215610fa557600080fd5b610fae86610bce565b9450610fbc60208701610bce565b9350604086013592506060860135915060808601356001600160401b03811115610fe557600080fd5b610df988828901610cea565b60208082526029908201527f455243313135353a2063616c6c6572206973206e6f74206f776e6572206e6f7260408201526808185c1c1c9bdd995960ba1b606082015260800190565b634e487b7160e01b600052603260045260246000fd5b60208082526025908201527f455243313135353a207472616e7366657220746f20746865207a65726f206164604082015264647265737360d81b606082015260800190565b6020808252602b908201527f455243313135353a20696e73756666696369656e742062616c616e636573206660408201526a37b9103a3930b739b332b960a91b606082015260800190565b6000821982111561110157634e487b7160e01b600052601160045260246000fd5b500190565b6040815260006111196040830185610ed0565b828103602084015261112b8185610ed0565b95945050505050565b6000815180845260005b8181101561115a5760208185018101518683018201520161113e565b8181111561116c576000602083870101525b50601f01601f19169290920160200192915050565b6001600160a01b0386811682528516602082015260a0604082018190526000906111ad90830186610ed0565b82810360608401526111bf8186610ed0565b905082810360808401526111d38185611134565b98975050505050505050565b6000602082840312156111f157600080fd5b81516001600160e01b03198116811461011657600080fd5b600060033d11156105f15760046000803e5060005160e01c90565b600060443d10156112325790565b6040516003193d81016004833e81513d6001600160401b03816024840111818411171561126157505050505090565b82850191508151818111156112795750505050505090565b843d87010160208285010111156112935750505050505090565b6112a260208286010187610c2a565b509095945050505050565b6020815260006101166020830184611134565b60208082526028908201527f455243313135353a204552433131353552656365697665722072656a656374656040820152676420746f6b656e7360c01b606082015260800190565b6001600160a01b03868116825285166020820152604081018490526060810183905260a06080820181905260009061134290830184611134565b97965050505050505056fea2646970667358221220833c97a6a0f9147a0ad4fc86d6bfd1906b157c0494ec4d69939c9df348539fcc64736f6c634300080f0033",
  "devdoc": {
    "details": "derived from https://github.com/OpenZeppelin/openzeppelin-contracts/ (MIT license)",
    "kind": "dev",
    "methods": {
      "balanceOf(address,uint256)": {
        "params": {
          "account": "address to query",
          "id": "token to query"
        },
        "returns": {
          "_0": "token balance"
        }
      },
      "balanceOfBatch(address[],uint256[])": {
        "params": {
          "accounts": "addresss to query",
          "ids": "tokens to query"
        },
        "returns": {
          "_0": "token balances"
        }
      },
      "isApprovedForAll(address,address)": {
        "params": {
          "account": "address to query for approval granted",
          "operator": "address to query for approval received"
        },
        "returns": {
          "_0": "whether operator is approved to spend tokens held by account"
        }
      },
      "safeBatchTransferFrom(address,address,uint256[],uint256[],bytes)": {
        "params": {
          "amounts": "list of quantities of tokens to transfer",
          "data": "data payload",
          "from": "sender of tokens",
          "ids": "list of token IDs",
          "to": "receiver of tokens"
        }
      },
      "safeTransferFrom(address,address,uint256,uint256,bytes)": {
        "params": {
          "amount": "quantity of tokens to transfer",
          "data": "data payload",
          "from": "sender of tokens",
          "id": "token ID",
          "to": "receiver of tokens"
        }
      },
      "setApprovalForAll(address,bool)": {
        "params": {
          "operator": "address whose approval status to update",
          "status": "whether operator should be considered approved"
        }
      }
    },
    "title": "Base ERC1155 contract",
    "version": 1
  },
  "userdoc": {
    "kind": "user",
    "methods": {
      "balanceOf(address,uint256)": {
        "notice": "query the balance of given token held by given address"
      },
      "balanceOfBatch(address[],uint256[])": {
        "notice": "query the balances of given tokens held by given addresses"
      },
      "isApprovedForAll(address,address)": {
        "notice": "query approval status of given operator with respect to given address"
      },
      "safeBatchTransferFrom(address,address,uint256[],uint256[],bytes)": {
        "notice": "transfer batch of tokens between given addresses, checking for ERC1155Receiver implementation if applicable"
      },
      "safeTransferFrom(address,address,uint256,uint256,bytes)": {
        "notice": "transfer tokens between given addresses, checking for ERC1155Receiver implementation if applicable"
      },
      "setApprovalForAll(address,bool)": {
        "notice": "grant approval to or revoke approval from given operator to spend held tokens"
      }
    },
    "version": 1
  },
  "storageLayout": {
    "storage": [],
    "types": null
  }
}