{
  "address": "0x10a3cb810DA01da493a410f8a12314699cB0bc48",
  "abi": [
    {
      "anonymous": false,
      "inputs": [
        {
          "indexed": true,
          "internalType": "address",
          "name": "account",
          "type": "address"
        },
        {
          "indexed": true,
          "internalType": "address",
          "name": "operator",
          "type": "address"
        },
        {
          "indexed": false,
          "internalType": "bool",
          "name": "approved",
          "type": "bool"
        }
      ],
      "name": "ApprovalForAll",
      "type": "event"
    },
    {
      "anonymous": false,
      "inputs": [
        {
          "indexed": true,
          "internalType": "address",
          "name": "operator",
          "type": "address"
        },
        {
          "indexed": true,
          "internalType": "address",
          "name": "from",
          "type": "address"
        },
        {
          "indexed": true,
          "internalType": "address",
          "name": "to",
          "type": "address"
        },
        {
          "indexed": false,
          "internalType": "uint256[]",
          "name": "ids",
          "type": "uint256[]"
        },
        {
          "indexed": false,
          "internalType": "uint256[]",
          "name": "values",
          "type": "uint256[]"
        }
      ],
      "name": "TransferBatch",
      "type": "event"
    },
    {
      "anonymous": false,
      "inputs": [
        {
          "indexed": true,
          "internalType": "address",
          "name": "operator",
          "type": "address"
        },
        {
          "indexed": true,
          "internalType": "address",
          "name": "from",
          "type": "address"
        },
        {
          "indexed": true,
          "internalType": "address",
          "name": "to",
          "type": "address"
        },
        {
          "indexed": false,
          "internalType": "uint256",
          "name": "id",
          "type": "uint256"
        },
        {
          "indexed": false,
          "internalType": "uint256",
          "name": "value",
          "type": "uint256"
        }
      ],
      "name": "TransferSingle",
      "type": "event"
    },
    {
      "inputs": [
        {
          "internalType": "address",
          "name": "account",
          "type": "address"
        },
        {
          "internalType": "uint256",
          "name": "id",
          "type": "uint256"
        },
        {
          "internalType": "uint256",
          "name": "value",
          "type": "uint256"
        }
      ],
      "name": "burn",
      "outputs": [],
      "stateMutability": "nonpayable",
      "type": "function"
    },
    {
      "inputs": [
        {
          "internalType": "address",
          "name": "account",
          "type": "address"
        },
        {
          "internalType": "uint256[]",
          "name": "ids",
          "type": "uint256[]"
        },
        {
          "internalType": "uint256[]",
          "name": "values",
          "type": "uint256[]"
        }
      ],
      "name": "burnBatch",
      "outputs": [],
      "stateMutability": "nonpayable",
      "type": "function"
    }
  ],
  "transactionHash": "0x6596d1c26bbe2f8acf6b74d966d3f92df10683a6fb13fe2bc5520606515a4380",
  "args": [],
  "numDeployments": 1,
  "solcInputHash": "8ecb20c9f07ae18284e8996db79fe0c2",
  "bytecode": "0x608060405234801561001057600080fd5b506108b6806100206000396000f3fe608060405234801561001057600080fd5b50600436106100365760003560e01c80636b20c4541461003b578063f5298aca14610050575b600080fd5b61004e610049366004610648565b610063565b005b61004e61005e3660046106bb565b610127565b61006b6101dd565b6001600160a01b0316836001600160a01b031614806100f257503063e985e9c5846100946101dd565b6040518363ffffffff1660e01b81526004016100b19291906106ee565b602060405180830381865afa1580156100ce573d6000803e3d6000fd5b505050506040513d601f19601f820116820180604052508101906100f29190610708565b6101175760405162461bcd60e51b815260040161010e90610731565b60405180910390fd5b610122838383610223565b505050565b61012f6101dd565b6001600160a01b0316836001600160a01b031614806101b657503063e985e9c5846101586101dd565b6040518363ffffffff1660e01b81526004016101759291906106ee565b602060405180830381865afa158015610192573d6000803e3d6000fd5b505050506040513d601f19601f820116820180604052508101906101b69190610708565b6101d25760405162461bcd60e51b815260040161010e90610731565b610122838383610405565b7f8cb501c3289f0b2347f4ba94b88fa355a4cd5266219cf6f4b7e5f7f3518beee5546000906001600160a01b0316330361021e575060131936013560601c90565b503390565b6001600160a01b0383166102495760405162461bcd60e51b815260040161010e9061077a565b80518251146102ab5760405162461bcd60e51b815260206004820152602860248201527f455243313135353a2069647320616e6420616d6f756e7473206c656e677468206044820152670dad2e6dac2e8c6d60c31b606482015260840161010e565b60006102b56101dd565b604080516020810190915260009052905060006102d061050d565b905060005b84518110156103a55760008582815181106102f2576102f26107bd565b6020026020010151905084828151811061030e5761030e6107bd565b602090810291909101810151600083815285835260408082206001600160a01b038c168352909352919091205410156103595760405162461bcd60e51b815260040161010e906107d3565b84828151811061036b5761036b6107bd565b602090810291909101810151600092835284825260408084206001600160a01b038b168552909252912080549190910390556001016102d5565b5060006001600160a01b0316856001600160a01b0316836001600160a01b03167f4a39dc06d4c0dbc64b70af90fd698a233a518aa5d07e595d983b8c0526c8f7fb87876040516103f6929190610852565b60405180910390a45050505050565b6001600160a01b03831661042b5760405162461bcd60e51b815260040161010e9061077a565b60006104356101dd565b90506104668185600061044787610531565b61045087610531565b5050604080516020810190915260009052505050565b600061047061050d565b6000858152602091825260408082206001600160a01b0389168352928390529020549091508311156104b45760405162461bcd60e51b815260040161010e906107d3565b6001600160a01b0385811660008181526020848152604080832080548990039055805189815291820188905291938616917fc3d58168c5ae7397731d063d5bbf3d657854427343f4c083240f7aacaa2d0f6291016103f6565b7f93d5f1e3ad87f1fc4313940b5c964ec29137b7e8ef5c0b76f7e2c77f7f0e032490565b6040805160018082528183019092526060916000919060208083019080368337019050509050828160008151811061056b5761056b6107bd565b602090810291909101015292915050565b80356001600160a01b038116811461059357600080fd5b919050565b634e487b7160e01b600052604160045260246000fd5b600082601f8301126105bf57600080fd5b813560206001600160401b03808311156105db576105db610598565b8260051b604051601f19603f8301168101818110848211171561060057610600610598565b60405293845285810183019383810192508785111561061e57600080fd5b83870191505b8482101561063d57813583529183019190830190610624565b979650505050505050565b60008060006060848603121561065d57600080fd5b6106668461057c565b925060208401356001600160401b038082111561068257600080fd5b61068e878388016105ae565b935060408601359150808211156106a457600080fd5b506106b1868287016105ae565b9150509250925092565b6000806000606084860312156106d057600080fd5b6106d98461057c565b95602085013595506040909401359392505050565b6001600160a01b0392831681529116602082015260400190565b60006020828403121561071a57600080fd5b8151801515811461072a57600080fd5b9392505050565b60208082526029908201527f455243313135353a2063616c6c6572206973206e6f74206f776e6572206e6f7260408201526808185c1c1c9bdd995960ba1b606082015260800190565b60208082526023908201527f455243313135353a206275726e2066726f6d20746865207a65726f206164647260408201526265737360e81b606082015260800190565b634e487b7160e01b600052603260045260246000fd5b60208082526024908201527f455243313135353a206275726e20616d6f756e7420657863656564732062616c604082015263616e636560e01b606082015260800190565b600081518084526020808501945080840160005b838110156108475781518752958201959082019060010161082b565b509495945050505050565b6040815260006108656040830185610817565b82810360208401526108778185610817565b9594505050505056fea2646970667358221220b0d3c8f6f4dcd136817463a74152c97c3c7ca2b73682e79b96bdcf383b519c5964736f6c634300080f0033",
  "devdoc": {
    "details": "Extension of {ERC1155} that allows users or approved operators to burn tokens.",
    "kind": "dev",
    "methods": {},
    "version": 1
  },
  "userdoc": {
    "kind": "user",
    "methods": {},
    "version": 1
  },
  "storageLayout": {
    "storage": [],
    "types": null
  }
}