{
  "address": "0x8a8a72125635a75125eD7F2435Eddd93189Bc6b6",
  "abi": [
    {
      "anonymous": false,
      "inputs": [
        {
          "indexed": true,
          "internalType": "address",
          "name": "previousOwner",
          "type": "address"
        },
        {
          "indexed": true,
          "internalType": "address",
          "name": "newOwner",
          "type": "address"
        }
      ],
      "name": "OwnershipTransferred",
      "type": "event"
    },
    {
      "inputs": [
        {
          "internalType": "uint256",
          "name": "newValue",
          "type": "uint256"
        }
      ],
      "name": "setPausedUntil",
      "outputs": [],
      "stateMutability": "nonpayable",
      "type": "function"
    }
  ],
  "transactionHash": "0x79f32d8e048b29ac393c99c39e4cb86322c453dcb061886730de8484a673d24c",
  "args": [],
  "numDeployments": 2,
  "solcInputHash": "df203424e31fe01ef0ba38744a8022b4",
  "bytecode": "0x608060405234801561001057600080fd5b5061015c806100206000396000f3fe608060405234801561001057600080fd5b506004361061002b5760003560e01c8063112bbe2014610030575b600080fd5b61004361003e36600461010d565b610045565b005b7fc0ea367cb0174dd5521cd2372c76f8c13e6c1f832c71f1d6e0cbc185c9cc8ed45473ffffffffffffffffffffffffffffffffffffffff1633146100e9576040517f08c379a000000000000000000000000000000000000000000000000000000000815260206004820152601d60248201527f4f776e61626c653a2073656e646572206d757374206265206f776e6572000000604482015260640160405180910390fd5b7fc66a3384d35cb232fa77880e4f4e3ebdb1ef3eccc26dbe25e65652cd1179c82955565b60006020828403121561011f57600080fd5b503591905056fea26469706673582212205743687bfd1a84c15f4e2f39a3961a5faf43d083bff48870c991f257de26f78464736f6c634300080f0033",
  "devdoc": {
    "details": "Extension of ERC1155 to allow owner to manage burning mechanism.",
    "kind": "dev",
    "methods": {},
    "version": 1
  },
  "userdoc": {
    "kind": "user",
    "methods": {},
    "version": 1
  },
  "storageLayout": {
    "storage": [],
    "types": null
  }
}