{
  "address": "0xC7a14307DF6D27Cf6068c773BbDd28fc7Fe1faCC",
  "abi": [
    {
      "anonymous": false,
      "inputs": [
        {
          "indexed": true,
          "internalType": "address",
          "name": "previousOwner",
          "type": "address"
        },
        {
          "indexed": true,
          "internalType": "address",
          "name": "newOwner",
          "type": "address"
        }
      ],
      "name": "OwnershipTransferred",
      "type": "event"
    },
    {
      "inputs": [
        {
          "internalType": "uint256[]",
          "name": "_tierIds",
          "type": "uint256[]"
        },
        {
          "components": [
            {
              "internalType": "uint256",
              "name": "start",
              "type": "uint256"
            },
            {
              "internalType": "uint256",
              "name": "end",
              "type": "uint256"
            },
            {
              "internalType": "address",
              "name": "currency",
              "type": "address"
            },
            {
              "internalType": "uint256",
              "name": "price",
              "type": "uint256"
            },
            {
              "internalType": "uint256",
              "name": "maxPerWallet",
              "type": "uint256"
            },
            {
              "internalType": "bytes32",
              "name": "merkleRoot",
              "type": "bytes32"
            },
            {
              "internalType": "uint256",
              "name": "reserved",
              "type": "uint256"
            },
            {
              "internalType": "uint256",
              "name": "maxAllocation",
              "type": "uint256"
            },
            {
              "internalType": "uint256",
              "name": "assetId",
              "type": "uint256"
            }
          ],
          "internalType": "struct ITieredSalesEvents.Tier[]",
          "name": "_tiers",
          "type": "tuple[]"
        }
      ],
      "name": "configureTiering",
      "outputs": [],
      "stateMutability": "nonpayable",
      "type": "function"
    },
    {
      "inputs": [
        {
          "internalType": "uint256",
          "name": "tierId",
          "type": "uint256"
        },
        {
          "components": [
            {
              "internalType": "uint256",
              "name": "start",
              "type": "uint256"
            },
            {
              "internalType": "uint256",
              "name": "end",
              "type": "uint256"
            },
            {
              "internalType": "address",
              "name": "currency",
              "type": "address"
            },
            {
              "internalType": "uint256",
              "name": "price",
              "type": "uint256"
            },
            {
              "internalType": "uint256",
              "name": "maxPerWallet",
              "type": "uint256"
            },
            {
              "internalType": "bytes32",
              "name": "merkleRoot",
              "type": "bytes32"
            },
            {
              "internalType": "uint256",
              "name": "reserved",
              "type": "uint256"
            },
            {
              "internalType": "uint256",
              "name": "maxAllocation",
              "type": "uint256"
            },
            {
              "internalType": "uint256",
              "name": "assetId",
              "type": "uint256"
            }
          ],
          "internalType": "struct ITieredSalesEvents.Tier",
          "name": "tier",
          "type": "tuple"
        }
      ],
      "name": "configureTiering",
      "outputs": [],
      "stateMutability": "nonpayable",
      "type": "function"
    },
    {
      "inputs": [
        {
          "internalType": "uint256",
          "name": "tierId",
          "type": "uint256"
        },
        {
          "internalType": "address",
          "name": "minter",
          "type": "address"
        },
        {
          "internalType": "uint256",
          "name": "maxAllowance",
          "type": "uint256"
        },
        {
          "internalType": "bytes32[]",
          "name": "proof",
          "type": "bytes32[]"
        }
      ],
      "name": "eligibleForTier",
      "outputs": [
        {
          "internalType": "uint256",
          "name": "maxMintable",
          "type": "uint256"
        }
      ],
      "stateMutability": "view",
      "type": "function"
    },
    {
      "inputs": [
        {
          "internalType": "uint256",
          "name": "tierId",
          "type": "uint256"
        },
        {
          "internalType": "uint256",
          "name": "count",
          "type": "uint256"
        },
        {
          "internalType": "uint256",
          "name": "maxAllowance",
          "type": "uint256"
        },
        {
          "internalType": "bytes32[]",
          "name": "proof",
          "type": "bytes32[]"
        }
      ],
      "name": "mintByTier",
      "outputs": [],
      "stateMutability": "payable",
      "type": "function"
    },
    {
      "inputs": [
        {
          "internalType": "uint256",
          "name": "tierId",
          "type": "uint256"
        },
        {
          "internalType": "address",
          "name": "minter",
          "type": "address"
        },
        {
          "internalType": "uint256",
          "name": "maxAllowance",
          "type": "uint256"
        },
        {
          "internalType": "bytes32[]",
          "name": "proof",
          "type": "bytes32[]"
        }
      ],
      "name": "onTierAllowlist",
      "outputs": [
        {
          "internalType": "bool",
          "name": "",
          "type": "bool"
        }
      ],
      "stateMutability": "view",
      "type": "function"
    },
    {
      "inputs": [
        {
          "internalType": "uint256",
          "name": "tierId",
          "type": "uint256"
        },
        {
          "internalType": "address",
          "name": "wallet",
          "type": "address"
        }
      ],
      "name": "walletMintedByTier",
      "outputs": [
        {
          "internalType": "uint256",
          "name": "",
          "type": "uint256"
        }
      ],
      "stateMutability": "view",
      "type": "function"
    }
  ],
  "transactionHash": "0xf0987e3c5b4509ec2992509911b9a821fb3e939e287d071af033adb763bf3009",
  "args": [],
  "numDeployments": 2,
  "solcInputHash": "91d6e3f6f6454e9c575fbf169d898653",
  "bytecode": "0x608060405234801561001057600080fd5b506001600055610fc0806100256000396000f3fe6080604052600436106100555760003560e01c80631123f2ef1461005a5780635ea2c91b1461008d57806368c7d37c146100a2578063a2838a8c146100d2578063a7108060146100f2578063bd2c18f714610112575b600080fd5b34801561006657600080fd5b5061007a610075366004610c0e565b610132565b6040519081526020015b60405180910390f35b6100a061009b366004610c89565b610166565b005b3480156100ae57600080fd5b506100c26100bd366004610ce9565b610278565b6040519015158152602001610084565b3480156100de57600080fd5b506100a06100ed366004610d35565b610291565b3480156100fe57600080fd5b506100a061010d366004610dcf565b610327565b34801561011e57600080fd5b5061007a61012d366004610ce9565b610513565b600061013c610522565b6000938452600401602090815260408085206001600160a01b039490941685529290525090205490565b6002600054036101bd5760405162461bcd60e51b815260206004820152601f60248201527f5265656e7472616e637947756172643a207265656e7472616e742063616c6c0060448201526064015b60405180910390fd5b60026000556101cf8585858585610546565b3063b164884b6101dd6107f9565b6101e5610522565b600089815260029190910160205260408082206008015490516001600160e01b031960e086901b1681526001600160a01b03909316600484015260248301526044820188905260806064830152608482015260a401600060405180830381600087803b15801561025457600080fd5b505af1158015610268573d6000803e3d6000fd5b5050600160005550505050505050565b6000610287868686868661083f565b9695505050505050565b6102996108e3565b6001600160a01b0316336001600160a01b0316146102c95760405162461bcd60e51b81526004016101b490610e09565b60005b838110156103205761030e8585838181106102e9576102e9610e40565b9050602002013584848481811061030257610302610e40565b90506101200201610327565b8061031881610e6c565b9150506102cc565b5050505050565b61032f6108e3565b6001600160a01b0316336001600160a01b03161461035f5760405162461bcd60e51b81526004016101b490610e09565b6000610369610522565b600084815260038201602052604090205490915060e083013510156103c45760405162461bcd60e51b81526020600482015260116024820152701313d5d15497d512105397d35253951151607a1b60448201526064016101b4565b60008381526002820160205260409020600601541561043657600083815260038201602052604090205460c083013510156104365760405162461bcd60e51b81526020600482015260126024820152711313d5d7d49154d154959157d05353d5539560721b60448201526064016101b4565b6000838152600382016020526040902054156104a8576000838152600282016020526040902060040154608083013510156104a85760405162461bcd60e51b81526020600482015260126024820152711313d5d7d3505617d4115497d5d05313115560721b60448201526064016101b4565b60008381526002820160205260408120600601548254909183916104cd908490610e85565b90915550506000838152600282016020526040902082906104ee8282610eaf565b9050508160c001358160000160008282546105099190610f31565b9091555050505050565b60006102878686868686610911565b7f6027a1907d2c313b76d8ff4fab39509149541c7eb0372d2d85ba06cd270e220090565b60006105506107f9565b905060006105618783878787610911565b9050600061056d610522565b9050818711156105ad5760405162461bcd60e51b815260206004820152600b60248201526a08ab0868a8a88a6be9a82b60ab1b60448201526064016101b4565b600088815260028201602090815260408083206007015460038501909252909120546105d99089610f31565b111561061c5760405162461bcd60e51b815260206004820152601260248201527122ac21a2a2a229afa0a62627a1a0aa24a7a760711b60448201526064016101b4565b60008881526002808301602052604090912001546001600160a01b03166106a7576000888152600282016020526040902060030154349061065e908990610f49565b11156106a25760405162461bcd60e51b8152602060048201526013602482015272125394d551919250d251539517d05353d55395606a1b60448201526064016101b4565b61075e565b600088815260028083016020526040909120908101546003909101546001600160a01b03909116906323b872dd90859030906106e4908c90610f49565b6040516001600160e01b031960e086901b1681526001600160a01b03938416600482015292909116602483015260448201526064016020604051808303816000875af1158015610738573d6000803e3d6000fd5b505050506040513d601f19601f8201168201806040525081019061075c9190610f68565b505b600088815260048201602090815260408083206001600160a01b038716845290915281208054899290610792908490610f31565b90915550506000888152600382016020526040812080548992906107b7908490610f31565b90915550506000888152600282016020526040902060060154156107ef57868160010160008282546107e99190610f31565b90915550505b5050505050505050565b7f8cb501c3289f0b2347f4ba94b88fa355a4cd5266219cf6f4b7e5f7f3518beee5546000906001600160a01b0316330361083a575060131936013560601c90565b503390565b60006102878383808060200260200160405190810160405280939291908181526020018383602002808284376000920191909152506108819250610522915050565b600089815260029190910160205260409020600501546108de88886040516001600160601b0319606084901b1660208201526034810182905260009060540160405160208183030381529060405280519060200120905092915050565b610b61565b7fc0ea367cb0174dd5521cd2372c76f8c13e6c1f832c71f1d6e0cbc185c9cc8ed4546001600160a01b031690565b60008061091c610522565b600088815260028201602052604090206004015490915061096c5760405162461bcd60e51b815260206004820152600a6024820152694e4f545f45584953545360b01b60448201526064016101b4565b60008781526002820160205260409020544210156109ba5760405162461bcd60e51b815260206004820152600b60248201526a1393d517d4d5105495115160aa1b60448201526064016101b4565b6000878152600282016020526040902060010154421115610a0d5760405162461bcd60e51b815260206004820152600d60248201526c1053149150511657d153911151609a1b60448201526064016101b4565b60008781526004808301602090815260408084206001600160a01b038b1685528252808420548b8552600286019092529092200154610a4c9190610e85565b600088815260028301602052604090206005015490925015610b5757600087815260048201602090815260408083206001600160a01b038a1684529091529020548511610acd5760405162461bcd60e51b815260206004820152600f60248201526e4d415845445f414c4c4f57414e434560881b60448201526064016101b4565b610ada878787878761083f565b610b185760405162461bcd60e51b815260206004820152600f60248201526e1393d517d0531313d5d31254d51151608a1b60448201526064016101b4565b600087815260048201602090815260408083206001600160a01b038a168452909152812054610b479087610e85565b905080831115610b55578092505b505b5095945050505050565b600082610b6e8584610b77565b14949350505050565b600081815b8451811015610bbc57610ba882868381518110610b9b57610b9b610e40565b6020026020010151610bc4565b915080610bb481610e6c565b915050610b7c565b509392505050565b6000818310610be0576000828152602084905260409020610bef565b60008381526020839052604090205b9392505050565b6001600160a01b0381168114610c0b57600080fd5b50565b60008060408385031215610c2157600080fd5b823591506020830135610c3381610bf6565b809150509250929050565b60008083601f840112610c5057600080fd5b5081356001600160401b03811115610c6757600080fd5b6020830191508360208260051b8501011115610c8257600080fd5b9250929050565b600080600080600060808688031215610ca157600080fd5b85359450602086013593506040860135925060608601356001600160401b03811115610ccc57600080fd5b610cd888828901610c3e565b969995985093965092949392505050565b600080600080600060808688031215610d0157600080fd5b853594506020860135610d1381610bf6565b93506040860135925060608601356001600160401b03811115610ccc57600080fd5b60008060008060408587031215610d4b57600080fd5b84356001600160401b0380821115610d6257600080fd5b610d6e88838901610c3e565b90965094506020870135915080821115610d8757600080fd5b818701915087601f830112610d9b57600080fd5b813581811115610daa57600080fd5b88602061012083028501011115610dc057600080fd5b95989497505060200194505050565b600080828403610140811215610de457600080fd5b83359250610120601f1982011215610dfb57600080fd5b506020830190509250929050565b6020808252601d908201527f4f776e61626c653a2073656e646572206d757374206265206f776e6572000000604082015260600190565b634e487b7160e01b600052603260045260246000fd5b634e487b7160e01b600052601160045260246000fd5b600060018201610e7e57610e7e610e56565b5060010190565b600082821015610e9757610e97610e56565b500390565b60008135610ea981610bf6565b92915050565b8135815560208201356001820155610ef0610ecc60408401610e9c565b6002830180546001600160a01b0319166001600160a01b0392909216919091179055565b606082013560038201556080820135600482015560a0820135600582015560c0820135600682015560e0820135600782015561010082013560088201555050565b60008219821115610f4457610f44610e56565b500190565b6000816000190483118215151615610f6357610f63610e56565b500290565b600060208284031215610f7a57600080fd5b81518015158114610bef57600080fdfea2646970667358221220f529f7d46f8e73407ca4bf922c283b644d836b409e8278a9080983ec5430b5d464736f6c634300080f0033",
  "devdoc": {
    "kind": "dev",
    "methods": {},
    "title": "Sales mechanism for ERC1155 NFTs with multiple tiered pricing, allowlist and allocation plans.",
    "version": 1
  },
  "userdoc": {
    "kind": "user",
    "methods": {},
    "version": 1
  },
  "storageLayout": {
    "storage": [
      {
        "astId": 161,
        "contract": "contracts/features/token/ERC1155/facets/sales/ERC1155TieredSales.sol:ERC1155TieredSales",
        "label": "_status",
        "offset": 0,
        "slot": "0",
        "type": "t_uint256"
      }
    ],
    "types": {
      "t_uint256": {
        "encoding": "inplace",
        "label": "uint256",
        "numberOfBytes": "32"
      }
    }
  }
}