{
  "address": "0x6c703B41FD6bc7BFC5965eA48f19f90fd97673cD",
  "abi": [
    {
      "inputs": [],
      "name": "SenderIsNotSelf",
      "type": "error"
    },
    {
      "anonymous": false,
      "inputs": [
        {
          "indexed": true,
          "internalType": "address",
          "name": "account",
          "type": "address"
        },
        {
          "indexed": true,
          "internalType": "address",
          "name": "operator",
          "type": "address"
        },
        {
          "indexed": false,
          "internalType": "bool",
          "name": "approved",
          "type": "bool"
        }
      ],
      "name": "ApprovalForAll",
      "type": "event"
    },
    {
      "anonymous": false,
      "inputs": [
        {
          "indexed": true,
          "internalType": "address",
          "name": "previousOwner",
          "type": "address"
        },
        {
          "indexed": true,
          "internalType": "address",
          "name": "newOwner",
          "type": "address"
        }
      ],
      "name": "OwnershipTransferred",
      "type": "event"
    },
    {
      "anonymous": false,
      "inputs": [
        {
          "indexed": true,
          "internalType": "address",
          "name": "operator",
          "type": "address"
        },
        {
          "indexed": true,
          "internalType": "address",
          "name": "from",
          "type": "address"
        },
        {
          "indexed": true,
          "internalType": "address",
          "name": "to",
          "type": "address"
        },
        {
          "indexed": false,
          "internalType": "uint256[]",
          "name": "ids",
          "type": "uint256[]"
        },
        {
          "indexed": false,
          "internalType": "uint256[]",
          "name": "values",
          "type": "uint256[]"
        }
      ],
      "name": "TransferBatch",
      "type": "event"
    },
    {
      "anonymous": false,
      "inputs": [
        {
          "indexed": true,
          "internalType": "address",
          "name": "operator",
          "type": "address"
        },
        {
          "indexed": true,
          "internalType": "address",
          "name": "from",
          "type": "address"
        },
        {
          "indexed": true,
          "internalType": "address",
          "name": "to",
          "type": "address"
        },
        {
          "indexed": false,
          "internalType": "uint256",
          "name": "id",
          "type": "uint256"
        },
        {
          "indexed": false,
          "internalType": "uint256",
          "name": "value",
          "type": "uint256"
        }
      ],
      "name": "TransferSingle",
      "type": "event"
    },
    {
      "inputs": [
        {
          "internalType": "address",
          "name": "account",
          "type": "address"
        },
        {
          "internalType": "uint256",
          "name": "id",
          "type": "uint256"
        }
      ],
      "name": "balanceOf",
      "outputs": [
        {
          "internalType": "uint256",
          "name": "",
          "type": "uint256"
        }
      ],
      "stateMutability": "view",
      "type": "function"
    },
    {
      "inputs": [
        {
          "internalType": "address[]",
          "name": "accounts",
          "type": "address[]"
        },
        {
          "internalType": "uint256[]",
          "name": "ids",
          "type": "uint256[]"
        }
      ],
      "name": "balanceOfBatch",
      "outputs": [
        {
          "internalType": "uint256[]",
          "name": "",
          "type": "uint256[]"
        }
      ],
      "stateMutability": "view",
      "type": "function"
    },
    {
      "inputs": [
        {
          "internalType": "address",
          "name": "account",
          "type": "address"
        },
        {
          "internalType": "uint256",
          "name": "id",
          "type": "uint256"
        },
        {
          "internalType": "uint256",
          "name": "value",
          "type": "uint256"
        }
      ],
      "name": "burn",
      "outputs": [],
      "stateMutability": "nonpayable",
      "type": "function"
    },
    {
      "inputs": [
        {
          "internalType": "address",
          "name": "account",
          "type": "address"
        },
        {
          "internalType": "uint256[]",
          "name": "ids",
          "type": "uint256[]"
        },
        {
          "internalType": "uint256[]",
          "name": "values",
          "type": "uint256[]"
        }
      ],
      "name": "burnBatch",
      "outputs": [],
      "stateMutability": "nonpayable",
      "type": "function"
    },
    {
      "inputs": [
        {
          "internalType": "address",
          "name": "account",
          "type": "address"
        },
        {
          "internalType": "uint256[]",
          "name": "ids",
          "type": "uint256[]"
        },
        {
          "internalType": "uint256[]",
          "name": "values",
          "type": "uint256[]"
        }
      ],
      "name": "burnBatchByFacet",
      "outputs": [],
      "stateMutability": "nonpayable",
      "type": "function"
    },
    {
      "inputs": [
        {
          "internalType": "address",
          "name": "account",
          "type": "address"
        },
        {
          "internalType": "uint256",
          "name": "id",
          "type": "uint256"
        },
        {
          "internalType": "uint256",
          "name": "amount",
          "type": "uint256"
        }
      ],
      "name": "burnByFacet",
      "outputs": [],
      "stateMutability": "nonpayable",
      "type": "function"
    },
    {
      "inputs": [
        {
          "internalType": "uint256",
          "name": "id",
          "type": "uint256"
        }
      ],
      "name": "exists",
      "outputs": [
        {
          "internalType": "bool",
          "name": "",
          "type": "bool"
        }
      ],
      "stateMutability": "view",
      "type": "function"
    },
    {
      "inputs": [
        {
          "internalType": "address",
          "name": "account",
          "type": "address"
        },
        {
          "internalType": "address",
          "name": "operator",
          "type": "address"
        }
      ],
      "name": "isApprovedForAll",
      "outputs": [
        {
          "internalType": "bool",
          "name": "",
          "type": "bool"
        }
      ],
      "stateMutability": "view",
      "type": "function"
    },
    {
      "inputs": [
        {
          "internalType": "address",
          "name": "account",
          "type": "address"
        },
        {
          "internalType": "uint256[]",
          "name": "ticketTokenIds",
          "type": "uint256[]"
        }
      ],
      "name": "locked",
      "outputs": [
        {
          "internalType": "uint256[]",
          "name": "",
          "type": "uint256[]"
        }
      ],
      "stateMutability": "view",
      "type": "function"
    },
    {
      "inputs": [
        {
          "internalType": "address",
          "name": "account",
          "type": "address"
        },
        {
          "internalType": "uint256",
          "name": "tokenId",
          "type": "uint256"
        }
      ],
      "name": "locked",
      "outputs": [
        {
          "internalType": "uint256",
          "name": "",
          "type": "uint256"
        }
      ],
      "stateMutability": "view",
      "type": "function"
    },
    {
      "inputs": [
        {
          "internalType": "uint256",
          "name": "id",
          "type": "uint256"
        }
      ],
      "name": "maxSupply",
      "outputs": [
        {
          "internalType": "uint256",
          "name": "",
          "type": "uint256"
        }
      ],
      "stateMutability": "view",
      "type": "function"
    },
    {
      "inputs": [
        {
          "internalType": "address",
          "name": "to",
          "type": "address"
        },
        {
          "internalType": "uint256",
          "name": "id",
          "type": "uint256"
        },
        {
          "internalType": "uint256",
          "name": "amount",
          "type": "uint256"
        },
        {
          "internalType": "bytes",
          "name": "data",
          "type": "bytes"
        }
      ],
      "name": "mintByFacet",
      "outputs": [],
      "stateMutability": "nonpayable",
      "type": "function"
    },
    {
      "inputs": [
        {
          "internalType": "address",
          "name": "to",
          "type": "address"
        },
        {
          "internalType": "uint256",
          "name": "id",
          "type": "uint256"
        },
        {
          "internalType": "uint256",
          "name": "amount",
          "type": "uint256"
        },
        {
          "internalType": "bytes",
          "name": "data",
          "type": "bytes"
        }
      ],
      "name": "mintByOwner",
      "outputs": [],
      "stateMutability": "nonpayable",
      "type": "function"
    },
    {
      "inputs": [
        {
          "internalType": "address",
          "name": "from",
          "type": "address"
        },
        {
          "internalType": "address",
          "name": "to",
          "type": "address"
        },
        {
          "internalType": "uint256[]",
          "name": "ids",
          "type": "uint256[]"
        },
        {
          "internalType": "uint256[]",
          "name": "amounts",
          "type": "uint256[]"
        },
        {
          "internalType": "bytes",
          "name": "data",
          "type": "bytes"
        }
      ],
      "name": "safeBatchTransferFrom",
      "outputs": [],
      "stateMutability": "nonpayable",
      "type": "function"
    },
    {
      "inputs": [
        {
          "internalType": "address",
          "name": "from",
          "type": "address"
        },
        {
          "internalType": "address",
          "name": "to",
          "type": "address"
        },
        {
          "internalType": "uint256",
          "name": "id",
          "type": "uint256"
        },
        {
          "internalType": "uint256",
          "name": "amount",
          "type": "uint256"
        },
        {
          "internalType": "bytes",
          "name": "data",
          "type": "bytes"
        }
      ],
      "name": "safeTransferFrom",
      "outputs": [],
      "stateMutability": "nonpayable",
      "type": "function"
    },
    {
      "inputs": [
        {
          "internalType": "address",
          "name": "operator",
          "type": "address"
        },
        {
          "internalType": "bool",
          "name": "status",
          "type": "bool"
        }
      ],
      "name": "setApprovalForAll",
      "outputs": [],
      "stateMutability": "nonpayable",
      "type": "function"
    },
    {
      "inputs": [
        {
          "internalType": "uint256",
          "name": "id",
          "type": "uint256"
        }
      ],
      "name": "totalSupply",
      "outputs": [
        {
          "internalType": "uint256",
          "name": "",
          "type": "uint256"
        }
      ],
      "stateMutability": "view",
      "type": "function"
    }
  ],
  "transactionHash": "0xa4d346367a10bcc52fd8955c40525a75c98407cd6eda3b3e4439f596f975a089",
  "args": [],
  "numDeployments": 2,
  "solcInputHash": "91d6e3f6f6454e9c575fbf169d898653",
  "bytecode": "0x608060405234801561001057600080fd5b5061229d806100206000396000f3fe608060405234801561001057600080fd5b50600436106100da5760003560e01c8062fdd58e146100df5780630ad2bbac146101055780632eb2c2d61461011a57806348f2f5361461012d5780634e1273f4146101405780634f558e79146101605780635135bec1146101835780636b20c45414610196578063869f7594146101a9578063a22cb465146101bc578063a91a988a146101cf578063b164884b146101e2578063bd85b039146101f5578063bf7bab7314610208578063e985e9c51461021b578063f242432a1461022e578063f5298aca14610241575b600080fd5b6100f26100ed3660046117f6565b610254565b6040519081526020015b60405180910390f35b6101186101133660046118f6565b610267565b005b6101186101283660046119dc565b610297565b61011861013b366004611a85565b610303565b61015361014e366004611ab8565b61032e565b6040516100fc9190611bbd565b61017361016e366004611bd0565b610520565b60405190151581526020016100fc565b610118610191366004611be9565b610531565b6101186101a43660046118f6565b6105bc565b6100f26101b7366004611bd0565b610667565b6101186101ca366004611c5a565b610672565b6101536101dd366004611c91565b610770565b6101186101f0366004611be9565b610814565b6100f2610203366004611bd0565b610834565b6100f26102163660046117f6565b61083f565b610173610229366004611d16565b61084b565b61011861023c366004611d49565b610888565b61011861024f366004611a85565b6108e3565b6000610260838361098e565b9392505050565b303314610287576040516328be0e2160e21b815260040160405180910390fd5b610292838383610a28565b505050565b60006102a1610bd8565b9050806001600160a01b0316866001600160a01b031614806102c857506102c8868261084b565b6102ed5760405162461bcd60e51b81526004016102e490611dad565b60405180910390fd5b6102fb818787878787610c21565b505050505050565b303314610323576040516328be0e2160e21b815260040160405180910390fd5b610292838383610c3d565b606081518351146103935760405162461bcd60e51b815260206004820152602960248201527f455243313135353a206163636f756e747320616e6420696473206c656e677468604482015268040dad2e6dac2e8c6d60bb1b60648201526084016102e4565b600061039d610d32565b6000019050600084516001600160401b038111156103bd576103bd611820565b6040519080825280602002602001820160405280156103e6578160200160208202803683370190505b50905060005b85518110156105175760006001600160a01b031686828151811061041257610412611df6565b60200260200101516001600160a01b03160361048a5760405162461bcd60e51b815260206004820152603160248201527f455243313135353a2062617463682062616c616e636520717565727920666f7260448201527020746865207a65726f206164647265737360781b60648201526084016102e4565b82600086838151811061049f5761049f611df6565b6020026020010151815260200190815260200160002060008783815181106104c9576104c9611df6565b60200260200101516001600160a01b03166001600160a01b031681526020019081526020016000205482828151811061050457610504611df6565b60209081029190910101526001016103ec565b50949350505050565b600061052b82610d56565b92915050565b7fc0ea367cb0174dd5521cd2372c76f8c13e6c1f832c71f1d6e0cbc185c9cc8ed4546001600160a01b031633146105aa5760405162461bcd60e51b815260206004820152601d60248201527f4f776e61626c653a2073656e646572206d757374206265206f776e657200000060448201526064016102e4565b6105b684848484610d78565b50505050565b6105c4610bd8565b6001600160a01b0316836001600160a01b0316148061064b57503063e985e9c5846105ed610bd8565b6040518363ffffffff1660e01b815260040161060a929190611e0c565b602060405180830381865afa158015610627573d6000803e3d6000fd5b505050506040513d601f19601f8201168201806040525081019061064b9190611e26565b6102875760405162461bcd60e51b81526004016102e490611dad565b600061052b82610e79565b600061067c610bd8565b9050826001600160a01b0316816001600160a01b0316036106f15760405162461bcd60e51b815260206004820152602960248201527f455243313135353a2073657474696e6720617070726f76616c20737461747573604482015268103337b91039b2b63360b91b60648201526084016102e4565b816106fa610d32565b6001600160a01b0383811660008181526001939093016020908152604080852093891680865293825293849020805460ff1916951515959095179094559151851515815290927f17307eab39ab6107e8899845ad3d59bd9653f200f220920489ca2b5937696c31910160405180910390a3505050565b60606000826001600160401b0381111561078c5761078c611820565b6040519080825280602002602001820160405280156107b5578160200160208202803683370190505b50905060005b83811015610517576107e5868686848181106107d9576107d9611df6565b90506020020135610e97565b8282815181106107f7576107f7611df6565b60209081029190910101528061080c81611e59565b9150506107bb565b3033146105aa576040516328be0e2160e21b815260040160405180910390fd5b600061052b82610ecc565b60006102608383610e97565b6000610855610d32565b6001600160a01b039384166000908152600191909101602090815260408083209490951682529290925250205460ff1690565b6000610892610bd8565b9050806001600160a01b0316866001600160a01b031614806108b957506108b9868261084b565b6108d55760405162461bcd60e51b81526004016102e490611dad565b6102fb818787878787610ee7565b6108eb610bd8565b6001600160a01b0316836001600160a01b0316148061097257503063e985e9c584610914610bd8565b6040518363ffffffff1660e01b8152600401610931929190611e0c565b602060405180830381865afa15801561094e573d6000803e3d6000fd5b505050506040513d601f19601f820116820180604052508101906109729190611e26565b6103235760405162461bcd60e51b81526004016102e490611dad565b60006001600160a01b0383166109fa5760405162461bcd60e51b815260206004820152602b60248201527f455243313135353a2062616c616e636520717565727920666f7220746865207a60448201526a65726f206164647265737360a81b60648201526084016102e4565b610a02610d32565b6000928352602090815260408084206001600160a01b0395909516845293905250205490565b6001600160a01b038316610a4e5760405162461bcd60e51b81526004016102e490611e72565b8051825114610a6f5760405162461bcd60e51b81526004016102e490611eb5565b6000610a79610bd8565b9050610a9981856000868660405180602001604052806000815250610f03565b6000610aa3610d32565b905060005b8451811015610b78576000858281518110610ac557610ac5611df6565b60200260200101519050848281518110610ae157610ae1611df6565b602090810291909101810151600083815285835260408082206001600160a01b038c16835290935291909120541015610b2c5760405162461bcd60e51b81526004016102e490611efd565b848281518110610b3e57610b3e611df6565b602090810291909101810151600092835284825260408084206001600160a01b038b16855290925291208054919091039055600101610aa8565b5060006001600160a01b0316856001600160a01b0316836001600160a01b03167f4a39dc06d4c0dbc64b70af90fd698a233a518aa5d07e595d983b8c0526c8f7fb8787604051610bc9929190611f41565b60405180910390a45050505050565b7f8cb501c3289f0b2347f4ba94b88fa355a4cd5266219cf6f4b7e5f7f3518beee5546000906001600160a01b03163303610c19575060131936013560601c90565b503390565b90565b610c2f868686868686610f11565b6102fb8686868686866110b4565b6001600160a01b038316610c635760405162461bcd60e51b81526004016102e490611e72565b6000610c6d610bd8565b9050610c9d81856000610c7f8761121f565b610c888761121f565b60405180602001604052806000815250610f03565b6000610ca7610d32565b6000858152602091825260408082206001600160a01b038916835292839052902054909150831115610ceb5760405162461bcd60e51b81526004016102e490611efd565b6001600160a01b0385811660008181526020848152604080832080548990039055805189815291820188905291938616916000805160206122488339815191529101610bc9565b7f93d5f1e3ad87f1fc4313940b5c964ec29137b7e8ef5c0b76f7e2c77f7f0e032490565b600080610d6161126a565b600093845260205260409092205491909111919050565b6000610d82610bd8565b90506001600160a01b038516610de45760405162461bcd60e51b815260206004820152602160248201527f455243313135353a206d696e7420746f20746865207a65726f206164647265736044820152607360f81b60648201526084016102e4565b610e0381600087610df48861121f565b610dfd8861121f565b87610f03565b82610e0c610d32565b6000868152602091825260408082206001600160a01b038a1683529092529081208054909190610e3d908490611f6f565b909155505060408051858152602081018590526001600160a01b0380881692600092918516916000805160206122488339815191529101610bc9565b6000610e8361126a565b600092835260010160205250604090205490565b600080610ea261128e565b6001600160a01b038516600090815260209182526040808220868352909252205491505092915050565b6000610ed661126a565b600092835260205250604090205490565b610ef58686868686866112b2565b6102fb8686868686866113c0565b6102fb868686868686611482565b6001600160a01b038416610f375760405162461bcd60e51b81526004016102e490611f87565b8151835114610f585760405162461bcd60e51b81526004016102e490611eb5565b610f66868686868686610f03565b6000610f70610d32565b905060005b8451811015611053576000858281518110610f9257610f92611df6565b602002602001015190506000858381518110610fb057610fb0611df6565b602090810291909101810151600084815286835260408082206001600160a01b038e1683529093529190912054909150818110156110005760405162461bcd60e51b81526004016102e490611fcc565b6000838152602086815260408083206001600160a01b038e811685529252808320938590039093558a168152908120805460019590950194839290611046908490611f6f565b90915550610f7592505050565b50846001600160a01b0316866001600160a01b0316886001600160a01b03167f4a39dc06d4c0dbc64b70af90fd698a233a518aa5d07e595d983b8c0526c8f7fb87876040516110a3929190611f41565b60405180910390a450505050505050565b6110c6846001600160a01b0316611586565b156102fb5760405163bc197c8160e01b81526001600160a01b0385169063bc197c81906110ff9089908990889088908890600401612064565b6020604051808303816000875af192505050801561113a575060408051601f3d908101601f19168201909252611137918101906120c2565b60015b6111e6576111466120ec565b806308c379a00361117f575061115a612107565b806111655750611181565b8060405162461bcd60e51b81526004016102e49190612190565b505b60405162461bcd60e51b815260206004820152603460248201527f455243313135353a207472616e7366657220746f206e6f6e20455243313135356044820152732932b1b2b4bb32b91034b6b83632b6b2b73a32b960611b60648201526084016102e4565b6001600160e01b0319811663bc197c8160e01b146112165760405162461bcd60e51b81526004016102e4906121a3565b50505050505050565b6040805160018082528183019092526060916000919060208083019080368337019050509050828160008151811061125957611259611df6565b602090810291909101015292915050565b7fbef313cd0145ce9ea5e5736c296fdd12e5b8495f1ac6754a82f66705a39baf2090565b7ff169d830093e543c5e2a4df1e47aae23a77e62aa0d6ca19e1e33e6e22e526f9f90565b6001600160a01b0384166112d85760405162461bcd60e51b81526004016102e490611f87565b6112f68686866112e78761121f565b6112f08761121f565b86610f03565b6000611300610d32565b6000858152602082815260408083206001600160a01b038b168452909152902054909150838110156113445760405162461bcd60e51b81526004016102e490611fcc565b6000858152602083815260408083206001600160a01b038b81168552925280832093879003909355871681529081208054859290611383908490611f6f565b909155505060408051858152602081018590526001600160a01b038088169289821692918b169160008051602061224883398151915291016110a3565b6113d2846001600160a01b0316611586565b156102fb5760405163f23a6e6160e01b81526001600160a01b0385169063f23a6e619061140b90899089908890889088906004016121eb565b6020604051808303816000875af1925050508015611446575060408051601f3d908101601f19168201909252611443918101906120c2565b60015b611452576111466120ec565b6001600160e01b0319811663f23a6e6160e01b146112165760405162461bcd60e51b81526004016102e4906121a3565b60005b8351811015611577578281815181106114a0576114a0611df6565b60200260200101516114b061128e565b6000016000886001600160a01b03166001600160a01b0316815260200190815260200160002060008684815181106114ea576114ea611df6565b60200260200101518152602001908152602001600020546115248887858151811061151757611517611df6565b602002602001015161098e565b61152e9190612230565b10156115655760405162461bcd60e51b81526020600482015260066024820152651313d0d2d15160d21b60448201526064016102e4565b8061156f81611e59565b915050611485565b506102fb868686868686611595565b6001600160a01b03163b151590565b6001600160a01b0385166116d35760006115ad61126a565b905060006115b961126a565b600101905060005b85518110156116cf578481815181106115dc576115dc611df6565b60200260200101518360008884815181106115f9576115f9611df6565b60200260200101518152602001908152602001600020600082825461161e9190611f6f565b9250508190555081600087838151811061163a5761163a611df6565b602002602001015181526020019081526020016000205483600088848151811061166657611666611df6565b602002602001015181526020019081526020016000205411156116bf5760405162461bcd60e51b81526020600482015260116024820152700a6aaa0a098b2be8ab0868a8a88be9a82b607b1b60448201526064016102e4565b6116c881611e59565b90506115c1565b5050505b6001600160a01b0384166102fb5760006116eb61126a565b905060005b84518110156117d057600085828151811061170d5761170d611df6565b60200260200101519050600085838151811061172b5761172b611df6565b602002602001015190506000846000848152602001908152602001600020549050818110156117ad5760405162461bcd60e51b815260206004820152602860248201527f455243313135353a206275726e20616d6f756e74206578636565647320746f74604482015267616c537570706c7960c01b60648201526084016102e4565b600092835260208590526040909220910390556117c981611e59565b90506116f0565b5050505050505050565b80356001600160a01b03811681146117f157600080fd5b919050565b6000806040838503121561180957600080fd5b611812836117da565b946020939093013593505050565b634e487b7160e01b600052604160045260246000fd5b601f8201601f191681016001600160401b038111828210171561185b5761185b611820565b6040525050565b60006001600160401b0382111561187b5761187b611820565b5060051b60200190565b600082601f83011261189657600080fd5b813560206118a382611862565b6040516118b08282611836565b83815260059390931b85018201928281019150868411156118d057600080fd5b8286015b848110156118eb57803583529183019183016118d4565b509695505050505050565b60008060006060848603121561190b57600080fd5b611914846117da565b925060208401356001600160401b038082111561193057600080fd5b61193c87838801611885565b9350604086013591508082111561195257600080fd5b5061195f86828701611885565b9150509250925092565b600082601f83011261197a57600080fd5b81356001600160401b0381111561199357611993611820565b6040516119aa601f8301601f191660200182611836565b8181528460208386010111156119bf57600080fd5b816020850160208301376000918101602001919091529392505050565b600080600080600060a086880312156119f457600080fd5b6119fd866117da565b9450611a0b602087016117da565b935060408601356001600160401b0380821115611a2757600080fd5b611a3389838a01611885565b94506060880135915080821115611a4957600080fd5b611a5589838a01611885565b93506080880135915080821115611a6b57600080fd5b50611a7888828901611969565b9150509295509295909350565b600080600060608486031215611a9a57600080fd5b611aa3846117da565b95602085013595506040909401359392505050565b60008060408385031215611acb57600080fd5b82356001600160401b0380821115611ae257600080fd5b818501915085601f830112611af657600080fd5b81356020611b0382611862565b604051611b108282611836565b83815260059390931b8501820192828101915089841115611b3057600080fd5b948201945b83861015611b5557611b46866117da565b82529482019490820190611b35565b96505086013592505080821115611b6b57600080fd5b50611b7885828601611885565b9150509250929050565b600081518084526020808501945080840160005b83811015611bb257815187529582019590820190600101611b96565b509495945050505050565b6020815260006102606020830184611b82565b600060208284031215611be257600080fd5b5035919050565b60008060008060808587031215611bff57600080fd5b611c08856117da565b9350602085013592506040850135915060608501356001600160401b03811115611c3157600080fd5b611c3d87828801611969565b91505092959194509250565b8015158114611c5757600080fd5b50565b60008060408385031215611c6d57600080fd5b611c76836117da565b91506020830135611c8681611c49565b809150509250929050565b600080600060408486031215611ca657600080fd5b611caf846117da565b925060208401356001600160401b0380821115611ccb57600080fd5b818601915086601f830112611cdf57600080fd5b813581811115611cee57600080fd5b8760208260051b8501011115611d0357600080fd5b6020830194508093505050509250925092565b60008060408385031215611d2957600080fd5b611d32836117da565b9150611d40602084016117da565b90509250929050565b600080600080600060a08688031215611d6157600080fd5b611d6a866117da565b9450611d78602087016117da565b9350604086013592506060860135915060808601356001600160401b03811115611da157600080fd5b611a7888828901611969565b60208082526029908201527f455243313135353a2063616c6c6572206973206e6f74206f776e6572206e6f7260408201526808185c1c1c9bdd995960ba1b606082015260800190565b634e487b7160e01b600052603260045260246000fd5b6001600160a01b0392831681529116602082015260400190565b600060208284031215611e3857600080fd5b815161026081611c49565b634e487b7160e01b600052601160045260246000fd5b600060018201611e6b57611e6b611e43565b5060010190565b60208082526023908201527f455243313135353a206275726e2066726f6d20746865207a65726f206164647260408201526265737360e81b606082015260800190565b60208082526028908201527f455243313135353a2069647320616e6420616d6f756e7473206c656e677468206040820152670dad2e6dac2e8c6d60c31b606082015260800190565b60208082526024908201527f455243313135353a206275726e20616d6f756e7420657863656564732062616c604082015263616e636560e01b606082015260800190565b604081526000611f546040830185611b82565b8281036020840152611f668185611b82565b95945050505050565b60008219821115611f8257611f82611e43565b500190565b60208082526025908201527f455243313135353a207472616e7366657220746f20746865207a65726f206164604082015264647265737360d81b606082015260800190565b6020808252602b908201527f455243313135353a20696e73756666696369656e742062616c616e636573206660408201526a37b9103a3930b739b332b960a91b606082015260800190565b6000815180845260005b8181101561203d57602081850181015186830182015201612021565b8181111561204f576000602083870101525b50601f01601f19169290920160200192915050565b6001600160a01b0386811682528516602082015260a06040820181905260009061209090830186611b82565b82810360608401526120a28186611b82565b905082810360808401526120b68185612017565b98975050505050505050565b6000602082840312156120d457600080fd5b81516001600160e01b03198116811461026057600080fd5b600060033d1115610c1e5760046000803e5060005160e01c90565b600060443d10156121155790565b6040516003193d81016004833e81513d6001600160401b03816024840111818411171561214457505050505090565b828501915081518181111561215c5750505050505090565b843d87010160208285010111156121765750505050505090565b61218560208286010187611836565b509095945050505050565b6020815260006102606020830184612017565b60208082526028908201527f455243313135353a204552433131353552656365697665722072656a656374656040820152676420746f6b656e7360c01b606082015260800190565b6001600160a01b03868116825285166020820152604081018490526060810183905260a06080820181905260009061222590830184612017565b979650505050505050565b60008282101561224257612242611e43565b50039056fec3d58168c5ae7397731d063d5bbf3d657854427343f4c083240f7aacaa2d0f62a264697066735822122083526ed4f98fec33e57594db1a5a1578d3b87181d626bda4617db9f35e59857364736f6c634300080f0033",
  "devdoc": {
    "kind": "dev",
    "methods": {
      "balanceOf(address,uint256)": {
        "params": {
          "account": "address to query",
          "id": "token to query"
        },
        "returns": {
          "_0": "token balance"
        }
      },
      "balanceOfBatch(address[],uint256[])": {
        "params": {
          "accounts": "addresss to query",
          "ids": "tokens to query"
        },
        "returns": {
          "_0": "token balances"
        }
      },
      "exists(uint256)": {
        "details": "Indicates whether any token exist with a given id, or not."
      },
      "isApprovedForAll(address,address)": {
        "params": {
          "account": "address to query for approval granted",
          "operator": "address to query for approval received"
        },
        "returns": {
          "_0": "whether operator is approved to spend tokens held by account"
        }
      },
      "maxSupply(uint256)": {
        "details": "Maximum amount of tokens possible to exist for a given id."
      },
      "mintByFacet(address,uint256,uint256,bytes)": {
        "details": "Creates `amount` new tokens for `to`, of token type `id`. See {ERC1155-_mint}. Requirements: - the caller must be diamond itself (other facets)."
      },
      "mintByOwner(address,uint256,uint256,bytes)": {
        "details": "Creates `amount` new tokens for `to`, of token type `id`. See {ERC1155-_mint}. Requirements: - the caller must be diamond owner."
      },
      "safeBatchTransferFrom(address,address,uint256[],uint256[],bytes)": {
        "params": {
          "amounts": "list of quantities of tokens to transfer",
          "data": "data payload",
          "from": "sender of tokens",
          "ids": "list of token IDs",
          "to": "receiver of tokens"
        }
      },
      "safeTransferFrom(address,address,uint256,uint256,bytes)": {
        "params": {
          "amount": "quantity of tokens to transfer",
          "data": "data payload",
          "from": "sender of tokens",
          "id": "token ID",
          "to": "receiver of tokens"
        }
      },
      "setApprovalForAll(address,bool)": {
        "params": {
          "operator": "address whose approval status to update",
          "status": "whether operator should be considered approved"
        }
      },
      "totalSupply(uint256)": {
        "details": "Total amount of tokens in with a given id."
      }
    },
    "version": 1
  },
  "userdoc": {
    "errors": {
      "SenderIsNotSelf()": [
        {
          "notice": "The caller must be the current contract itself."
        }
      ]
    },
    "kind": "user",
    "methods": {
      "balanceOf(address,uint256)": {
        "notice": "query the balance of given token held by given address"
      },
      "balanceOfBatch(address[],uint256[])": {
        "notice": "query the balances of given tokens held by given addresses"
      },
      "isApprovedForAll(address,address)": {
        "notice": "query approval status of given operator with respect to given address"
      },
      "safeBatchTransferFrom(address,address,uint256[],uint256[],bytes)": {
        "notice": "transfer batch of tokens between given addresses, checking for ERC1155Receiver implementation if applicable"
      },
      "safeTransferFrom(address,address,uint256,uint256,bytes)": {
        "notice": "transfer tokens between given addresses, checking for ERC1155Receiver implementation if applicable"
      },
      "setApprovalForAll(address,bool)": {
        "notice": "grant approval to or revoke approval from given operator to spend held tokens"
      }
    },
    "version": 1
  },
  "storageLayout": {
    "storage": [],
    "types": null
  }
}