{
  "address": "0xBB8cf2DE12e656DE78618cbF55640255b83cE726",
  "abi": [
    {
      "anonymous": false,
      "inputs": [
        {
          "indexed": true,
          "internalType": "address",
          "name": "previousOwner",
          "type": "address"
        },
        {
          "indexed": true,
          "internalType": "address",
          "name": "newOwner",
          "type": "address"
        }
      ],
      "name": "OwnershipTransferred",
      "type": "event"
    },
    {
      "inputs": [
        {
          "internalType": "uint256",
          "name": "tierId",
          "type": "uint256"
        },
        {
          "internalType": "address",
          "name": "minter",
          "type": "address"
        },
        {
          "internalType": "uint256",
          "name": "maxAllowance",
          "type": "uint256"
        },
        {
          "internalType": "bytes32[]",
          "name": "proof",
          "type": "bytes32[]"
        }
      ],
      "name": "eligibleForTier",
      "outputs": [
        {
          "internalType": "uint256",
          "name": "maxMintable",
          "type": "uint256"
        }
      ],
      "stateMutability": "view",
      "type": "function"
    },
    {
      "inputs": [
        {
          "internalType": "uint256",
          "name": "tierId",
          "type": "uint256"
        },
        {
          "internalType": "uint256",
          "name": "count",
          "type": "uint256"
        },
        {
          "internalType": "uint256",
          "name": "maxAllowance",
          "type": "uint256"
        },
        {
          "internalType": "bytes32[]",
          "name": "proof",
          "type": "bytes32[]"
        }
      ],
      "name": "mintByTier",
      "outputs": [],
      "stateMutability": "payable",
      "type": "function"
    },
    {
      "inputs": [
        {
          "internalType": "uint256",
          "name": "tierId",
          "type": "uint256"
        },
        {
          "internalType": "address",
          "name": "minter",
          "type": "address"
        },
        {
          "internalType": "uint256",
          "name": "maxAllowance",
          "type": "uint256"
        },
        {
          "internalType": "bytes32[]",
          "name": "proof",
          "type": "bytes32[]"
        }
      ],
      "name": "onTierAllowlist",
      "outputs": [
        {
          "internalType": "bool",
          "name": "",
          "type": "bool"
        }
      ],
      "stateMutability": "view",
      "type": "function"
    },
    {
      "inputs": [
        {
          "internalType": "uint256",
          "name": "tierId",
          "type": "uint256"
        },
        {
          "internalType": "address",
          "name": "wallet",
          "type": "address"
        }
      ],
      "name": "walletMintedByTier",
      "outputs": [
        {
          "internalType": "uint256",
          "name": "",
          "type": "uint256"
        }
      ],
      "stateMutability": "view",
      "type": "function"
    }
  ],
  "transactionHash": "0x4043886cb4be475ab21f2f841449070393096e50c86e001aca44f0b7c0437285",
  "args": [],
  "numDeployments": 1,
  "solcInputHash": "1675d03d950c5f16fbfceb6b8339f2a4",
  "bytecode": "0x608060405234801561001057600080fd5b506001600055610c51806100256000396000f3fe60806040526004361061003f5760003560e01c80631123f2ef146100445780635ea2c91b146100b957806368c7d37c146100ce578063bd2c18f7146100fe575b600080fd5b34801561005057600080fd5b506100a661005f366004610a42565b60009182527f6027a1907d2c313b76d8ff4fab39509149541c7eb0372d2d85ba06cd270e2204602090815260408084206001600160a01b0393909316845291905290205490565b6040519081526020015b60405180910390f35b6100cc6100c7366004610aba565b61011e565b005b3480156100da57600080fd5b506100ee6100e9366004610b1b565b61025b565b60405190151581526020016100b0565b34801561010a57600080fd5b506100a6610119366004610b1b565b610274565b6002600054036101755760405162461bcd60e51b815260206004820152601f60248201527f5265656e7472616e637947756172643a207265656e7472616e742063616c6c0060448201526064015b60405180910390fd5b600260005561018785858585856102a7565b3063b164884b6101956105ae565b7faa653d049ea68869e1fc7ce5c03851649ba137073660f37db263c3c999419551600089815260209190915260408082205490517fffffffff0000000000000000000000000000000000000000000000000000000060e086901b1681526001600160a01b03909316600484015260248301526044820188905260806064830152608482015260a401600060405180830381600087803b15801561023757600080fd5b505af115801561024b573d6000803e3d6000fd5b5050600160005550505050505050565b600061026a86868686866105bd565b9695505050505050565b600061026a8686868686610679565b7f6027a1907d2c313b76d8ff4fab39509149541c7eb0372d2d85ba06cd270e220090565b60006102b16105ae565b905060006102c28783878787610679565b90507f6027a1907d2c313b76d8ff4fab39509149541c7eb0372d2d85ba06cd270e2200818711156103355760405162461bcd60e51b815260206004820152600b60248201527f455843454544535f4d4158000000000000000000000000000000000000000000604482015260640161016c565b600088815260028201602090815260408083206007015460038501909252909120546103619089610b7c565b11156103af5760405162461bcd60e51b815260206004820152601260248201527f455843454544535f414c4c4f434154494f4e0000000000000000000000000000604482015260640161016c565b60008881526002808301602052604090912001546001600160a01b031661044457600088815260028201602052604090206003015434906103f1908990610b94565b111561043f5760405162461bcd60e51b815260206004820152601360248201527f494e53554646494349454e545f414d4f554e5400000000000000000000000000604482015260640161016c565b610513565b600088815260028083016020526040909120908101546003909101546001600160a01b03909116906323b872dd9085903090610481908c90610b94565b6040517fffffffff0000000000000000000000000000000000000000000000000000000060e086901b1681526001600160a01b03938416600482015292909116602483015260448201526064016020604051808303816000875af11580156104ed573d6000803e3d6000fd5b505050506040513d601f19601f820116820180604052508101906105119190610bb3565b505b600088815260048201602090815260408083206001600160a01b038716845290915281208054899290610547908490610b7c565b909155505060008881526003820160205260408120805489929061056c908490610b7c565b90915550506000888152600282016020526040902060060154156105a4578681600101600082825461059e9190610b7c565b90915550505b5050505050505050565b60006105b861094b565b905090565b600061026a8383808060200260200160405190810160405280939291908181526020018383602002808284376000920191909152506105ff9250610283915050565b6000898152600291909101602052604090206005015461067488886040517fffffffffffffffffffffffffffffffffffffffff000000000000000000000000606084901b1660208201526034810182905260009060540160405160208183030381529060405280519060200120905092915050565b610991565b60008581527f6027a1907d2c313b76d8ff4fab39509149541c7eb0372d2d85ba06cd270e220260205260408120600401547f6027a1907d2c313b76d8ff4fab39509149541c7eb0372d2d85ba06cd270e2200906107185760405162461bcd60e51b815260206004820152600a60248201527f4e4f545f45584953545300000000000000000000000000000000000000000000604482015260640161016c565b60008781526002820160205260409020544210156107785760405162461bcd60e51b815260206004820152600b60248201527f4e4f545f53544152544544000000000000000000000000000000000000000000604482015260640161016c565b60008781526002820160205260409020600101544211156107db5760405162461bcd60e51b815260206004820152600d60248201527f414c52454144595f454e44454400000000000000000000000000000000000000604482015260640161016c565b60008781526004808301602090815260408084206001600160a01b038b1685528252808420548b855260028601909252909220015461081a9190610bd5565b60008881526002830160205260409020600501549092501561094157600087815260048201602090815260408083206001600160a01b038a16845290915290205485116108a95760405162461bcd60e51b815260206004820152600f60248201527f4d415845445f414c4c4f57414e43450000000000000000000000000000000000604482015260640161016c565b6108b687878787876105bd565b6109025760405162461bcd60e51b815260206004820152600f60248201527f4e4f545f414c4c4f574c49535445440000000000000000000000000000000000604482015260640161016c565b600087815260048201602090815260408083206001600160a01b038a1684529091528120546109319087610bd5565b90508083111561093f578092505b505b5095945050505050565b7f8cb501c3289f0b2347f4ba94b88fa355a4cd5266219cf6f4b7e5f7f3518beee5546000906001600160a01b0316330361098c575060131936013560601c90565b503390565b60008261099e85846109a7565b14949350505050565b600081815b84518110156109ec576109d8828683815181106109cb576109cb610bec565b60200260200101516109f4565b9150806109e481610c02565b9150506109ac565b509392505050565b6000818310610a10576000828152602084905260409020610a1f565b60008381526020839052604090205b9392505050565b80356001600160a01b0381168114610a3d57600080fd5b919050565b60008060408385031215610a5557600080fd5b82359150610a6560208401610a26565b90509250929050565b60008083601f840112610a8057600080fd5b50813567ffffffffffffffff811115610a9857600080fd5b6020830191508360208260051b8501011115610ab357600080fd5b9250929050565b600080600080600060808688031215610ad257600080fd5b853594506020860135935060408601359250606086013567ffffffffffffffff811115610afe57600080fd5b610b0a88828901610a6e565b969995985093965092949392505050565b600080600080600060808688031215610b3357600080fd5b85359450610b4360208701610a26565b935060408601359250606086013567ffffffffffffffff811115610afe57600080fd5b634e487b7160e01b600052601160045260246000fd5b60008219821115610b8f57610b8f610b66565b500190565b6000816000190483118215151615610bae57610bae610b66565b500290565b600060208284031215610bc557600080fd5b81518015158114610a1f57600080fd5b600082821015610be757610be7610b66565b500390565b634e487b7160e01b600052603260045260246000fd5b600060018201610c1457610c14610b66565b506001019056fea2646970667358221220e83b6db19e4cfee529eec2df324e42cc6234ba238b55603cbb05c0c62136e1ba64736f6c634300080f0033",
  "devdoc": {
    "details": "Tiered Sales facet for ERC1155 with meta-transactions support via ERC2771",
    "kind": "dev",
    "methods": {},
    "version": 1
  },
  "userdoc": {
    "kind": "user",
    "methods": {},
    "version": 1
  },
  "storageLayout": {
    "storage": [
      {
        "astId": 161,
        "contract": "contracts/features/token/ERC1155/facets/sales/ERC1155TieredSalesERC2771.sol:ERC1155TieredSalesERC2771",
        "label": "_status",
        "offset": 0,
        "slot": "0",
        "type": "t_uint256"
      }
    ],
    "types": {
      "t_uint256": {
        "encoding": "inplace",
        "label": "uint256",
        "numberOfBytes": "32"
      }
    }
  }
}