{
  "address": "0xe057429609c7D554701d97b1CD4d4baDe4eE5020",
  "abi": [
    {
      "inputs": [],
      "name": "SenderIsNotSelf",
      "type": "error"
    },
    {
      "anonymous": false,
      "inputs": [
        {
          "indexed": true,
          "internalType": "address",
          "name": "account",
          "type": "address"
        },
        {
          "indexed": true,
          "internalType": "address",
          "name": "operator",
          "type": "address"
        },
        {
          "indexed": false,
          "internalType": "bool",
          "name": "approved",
          "type": "bool"
        }
      ],
      "name": "ApprovalForAll",
      "type": "event"
    },
    {
      "anonymous": false,
      "inputs": [
        {
          "indexed": true,
          "internalType": "address",
          "name": "previousOwner",
          "type": "address"
        },
        {
          "indexed": true,
          "internalType": "address",
          "name": "newOwner",
          "type": "address"
        }
      ],
      "name": "OwnershipTransferred",
      "type": "event"
    },
    {
      "anonymous": false,
      "inputs": [
        {
          "indexed": true,
          "internalType": "address",
          "name": "operator",
          "type": "address"
        },
        {
          "indexed": true,
          "internalType": "address",
          "name": "from",
          "type": "address"
        },
        {
          "indexed": true,
          "internalType": "address",
          "name": "to",
          "type": "address"
        },
        {
          "indexed": false,
          "internalType": "uint256[]",
          "name": "ids",
          "type": "uint256[]"
        },
        {
          "indexed": false,
          "internalType": "uint256[]",
          "name": "values",
          "type": "uint256[]"
        }
      ],
      "name": "TransferBatch",
      "type": "event"
    },
    {
      "anonymous": false,
      "inputs": [
        {
          "indexed": true,
          "internalType": "address",
          "name": "operator",
          "type": "address"
        },
        {
          "indexed": true,
          "internalType": "address",
          "name": "from",
          "type": "address"
        },
        {
          "indexed": true,
          "internalType": "address",
          "name": "to",
          "type": "address"
        },
        {
          "indexed": false,
          "internalType": "uint256",
          "name": "id",
          "type": "uint256"
        },
        {
          "indexed": false,
          "internalType": "uint256",
          "name": "value",
          "type": "uint256"
        }
      ],
      "name": "TransferSingle",
      "type": "event"
    },
    {
      "inputs": [
        {
          "internalType": "address",
          "name": "account",
          "type": "address"
        },
        {
          "internalType": "uint256",
          "name": "id",
          "type": "uint256"
        }
      ],
      "name": "balanceOf",
      "outputs": [
        {
          "internalType": "uint256",
          "name": "",
          "type": "uint256"
        }
      ],
      "stateMutability": "view",
      "type": "function"
    },
    {
      "inputs": [
        {
          "internalType": "address[]",
          "name": "accounts",
          "type": "address[]"
        },
        {
          "internalType": "uint256[]",
          "name": "ids",
          "type": "uint256[]"
        }
      ],
      "name": "balanceOfBatch",
      "outputs": [
        {
          "internalType": "uint256[]",
          "name": "",
          "type": "uint256[]"
        }
      ],
      "stateMutability": "view",
      "type": "function"
    },
    {
      "inputs": [
        {
          "internalType": "address",
          "name": "account",
          "type": "address"
        },
        {
          "internalType": "uint256",
          "name": "id",
          "type": "uint256"
        },
        {
          "internalType": "uint256",
          "name": "value",
          "type": "uint256"
        }
      ],
      "name": "burn",
      "outputs": [],
      "stateMutability": "nonpayable",
      "type": "function"
    },
    {
      "inputs": [
        {
          "internalType": "address",
          "name": "account",
          "type": "address"
        },
        {
          "internalType": "uint256[]",
          "name": "ids",
          "type": "uint256[]"
        },
        {
          "internalType": "uint256[]",
          "name": "values",
          "type": "uint256[]"
        }
      ],
      "name": "burnBatch",
      "outputs": [],
      "stateMutability": "nonpayable",
      "type": "function"
    },
    {
      "inputs": [
        {
          "internalType": "address",
          "name": "account",
          "type": "address"
        },
        {
          "internalType": "uint256[]",
          "name": "ids",
          "type": "uint256[]"
        },
        {
          "internalType": "uint256[]",
          "name": "values",
          "type": "uint256[]"
        }
      ],
      "name": "burnBatchByFacet",
      "outputs": [],
      "stateMutability": "nonpayable",
      "type": "function"
    },
    {
      "inputs": [
        {
          "internalType": "address",
          "name": "account",
          "type": "address"
        },
        {
          "internalType": "uint256",
          "name": "id",
          "type": "uint256"
        },
        {
          "internalType": "uint256",
          "name": "amount",
          "type": "uint256"
        }
      ],
      "name": "burnByFacet",
      "outputs": [],
      "stateMutability": "nonpayable",
      "type": "function"
    },
    {
      "inputs": [
        {
          "internalType": "address",
          "name": "account",
          "type": "address"
        },
        {
          "internalType": "address",
          "name": "operator",
          "type": "address"
        }
      ],
      "name": "isApprovedForAll",
      "outputs": [
        {
          "internalType": "bool",
          "name": "",
          "type": "bool"
        }
      ],
      "stateMutability": "view",
      "type": "function"
    },
    {
      "inputs": [
        {
          "internalType": "address",
          "name": "to",
          "type": "address"
        },
        {
          "internalType": "uint256",
          "name": "id",
          "type": "uint256"
        },
        {
          "internalType": "uint256",
          "name": "amount",
          "type": "uint256"
        },
        {
          "internalType": "bytes",
          "name": "data",
          "type": "bytes"
        }
      ],
      "name": "mintByFacet",
      "outputs": [],
      "stateMutability": "nonpayable",
      "type": "function"
    },
    {
      "inputs": [
        {
          "internalType": "address",
          "name": "to",
          "type": "address"
        },
        {
          "internalType": "uint256",
          "name": "id",
          "type": "uint256"
        },
        {
          "internalType": "uint256",
          "name": "amount",
          "type": "uint256"
        },
        {
          "internalType": "bytes",
          "name": "data",
          "type": "bytes"
        }
      ],
      "name": "mintByOwner",
      "outputs": [],
      "stateMutability": "nonpayable",
      "type": "function"
    },
    {
      "inputs": [
        {
          "internalType": "address",
          "name": "from",
          "type": "address"
        },
        {
          "internalType": "address",
          "name": "to",
          "type": "address"
        },
        {
          "internalType": "uint256[]",
          "name": "ids",
          "type": "uint256[]"
        },
        {
          "internalType": "uint256[]",
          "name": "amounts",
          "type": "uint256[]"
        },
        {
          "internalType": "bytes",
          "name": "data",
          "type": "bytes"
        }
      ],
      "name": "safeBatchTransferFrom",
      "outputs": [],
      "stateMutability": "nonpayable",
      "type": "function"
    },
    {
      "inputs": [
        {
          "internalType": "address",
          "name": "from",
          "type": "address"
        },
        {
          "internalType": "address",
          "name": "to",
          "type": "address"
        },
        {
          "internalType": "uint256",
          "name": "id",
          "type": "uint256"
        },
        {
          "internalType": "uint256",
          "name": "amount",
          "type": "uint256"
        },
        {
          "internalType": "bytes",
          "name": "data",
          "type": "bytes"
        }
      ],
      "name": "safeTransferFrom",
      "outputs": [],
      "stateMutability": "nonpayable",
      "type": "function"
    },
    {
      "inputs": [
        {
          "internalType": "address",
          "name": "operator",
          "type": "address"
        },
        {
          "internalType": "bool",
          "name": "status",
          "type": "bool"
        }
      ],
      "name": "setApprovalForAll",
      "outputs": [],
      "stateMutability": "nonpayable",
      "type": "function"
    }
  ],
  "transactionHash": "0x745d533657ac51a600acb42cfec52cc84e9795c05fe4631c29ece91e2b4eee9b",
  "args": [],
  "numDeployments": 1,
  "solcInputHash": "131b14dc7b6b91036a0f1471b9e7a45b",
  "bytecode": "0x608060405234801561001057600080fd5b50611c30806100206000396000f3fe608060405234801561001057600080fd5b50600436106100a35760003560e01c8062fdd58e146100a85780630ad2bbac146100ce5780632eb2c2d6146100e357806348f2f536146100f65780634e1273f4146101095780635135bec1146101295780636b20c4541461013c578063a22cb4651461014f578063b164884b14610162578063e985e9c514610175578063f242432a14610198578063f5298aca146101ab575b600080fd5b6100bb6100b636600461125f565b6101be565b6040519081526020015b60405180910390f35b6100e16100dc36600461135f565b6101d1565b005b6100e16100f1366004611445565b610201565b6100e16101043660046114ee565b61026d565b61011c610117366004611521565b610298565b6040516100c59190611626565b6100e1610137366004611639565b61048a565b6100e161014a36600461135f565b610515565b6100e161015d3660046116aa565b6105c0565b6100e1610170366004611639565b6106be565b6101886101833660046116e1565b6106de565b60405190151581526020016100c5565b6100e16101a6366004611714565b61071b565b6100e16101b93660046114ee565b610776565b60006101ca8383610821565b9392505050565b3033146101f1576040516328be0e2160e21b815260040160405180910390fd5b6101fc8383836108bb565b505050565b600061020b610a6b565b9050806001600160a01b0316866001600160a01b03161480610232575061023286826106de565b6102575760405162461bcd60e51b815260040161024e90611778565b60405180910390fd5b610265818787878787610ab4565b505050505050565b30331461028d576040516328be0e2160e21b815260040160405180910390fd5b6101fc838383610ad0565b606081518351146102fd5760405162461bcd60e51b815260206004820152602960248201527f455243313135353a206163636f756e747320616e6420696473206c656e677468604482015268040dad2e6dac2e8c6d60bb1b606482015260840161024e565b6000610307610bc5565b6000019050600084516001600160401b0381111561032757610327611289565b604051908082528060200260200182016040528015610350578160200160208202803683370190505b50905060005b85518110156104815760006001600160a01b031686828151811061037c5761037c6117c1565b60200260200101516001600160a01b0316036103f45760405162461bcd60e51b815260206004820152603160248201527f455243313135353a2062617463682062616c616e636520717565727920666f7260448201527020746865207a65726f206164647265737360781b606482015260840161024e565b826000868381518110610409576104096117c1565b602002602001015181526020019081526020016000206000878381518110610433576104336117c1565b60200260200101516001600160a01b03166001600160a01b031681526020019081526020016000205482828151811061046e5761046e6117c1565b6020908102919091010152600101610356565b50949350505050565b7fc0ea367cb0174dd5521cd2372c76f8c13e6c1f832c71f1d6e0cbc185c9cc8ed4546001600160a01b031633146105035760405162461bcd60e51b815260206004820152601d60248201527f4f776e61626c653a2073656e646572206d757374206265206f776e6572000000604482015260640161024e565b61050f84848484610be9565b50505050565b61051d610a6b565b6001600160a01b0316836001600160a01b031614806105a457503063e985e9c584610546610a6b565b6040518363ffffffff1660e01b81526004016105639291906117d7565b602060405180830381865afa158015610580573d6000803e3d6000fd5b505050506040513d601f19601f820116820180604052508101906105a491906117f1565b6101f15760405162461bcd60e51b815260040161024e90611778565b60006105ca610a6b565b9050826001600160a01b0316816001600160a01b03160361063f5760405162461bcd60e51b815260206004820152602960248201527f455243313135353a2073657474696e6720617070726f76616c20737461747573604482015268103337b91039b2b63360b91b606482015260840161024e565b81610648610bc5565b6001600160a01b0383811660008181526001939093016020908152604080852093891680865293825293849020805460ff1916951515959095179094559151851515815290927f17307eab39ab6107e8899845ad3d59bd9653f200f220920489ca2b5937696c31910160405180910390a3505050565b303314610503576040516328be0e2160e21b815260040160405180910390fd5b60006106e8610bc5565b6001600160a01b039384166000908152600191909101602090815260408083209490951682529290925250205460ff1690565b6000610725610a6b565b9050806001600160a01b0316866001600160a01b0316148061074c575061074c86826106de565b6107685760405162461bcd60e51b815260040161024e90611778565b610265818787878787610cea565b61077e610a6b565b6001600160a01b0316836001600160a01b0316148061080557503063e985e9c5846107a7610a6b565b6040518363ffffffff1660e01b81526004016107c49291906117d7565b602060405180830381865afa1580156107e1573d6000803e3d6000fd5b505050506040513d601f19601f8201168201806040525081019061080591906117f1565b61028d5760405162461bcd60e51b815260040161024e90611778565b60006001600160a01b03831661088d5760405162461bcd60e51b815260206004820152602b60248201527f455243313135353a2062616c616e636520717565727920666f7220746865207a60448201526a65726f206164647265737360a81b606482015260840161024e565b610895610bc5565b6000928352602090815260408084206001600160a01b0395909516845293905250205490565b6001600160a01b0383166108e15760405162461bcd60e51b815260040161024e9061180e565b80518251146109025760405162461bcd60e51b815260040161024e90611851565b600061090c610a6b565b905061092c81856000868660405180602001604052806000815250610d06565b6000610936610bc5565b905060005b8451811015610a0b576000858281518110610958576109586117c1565b60200260200101519050848281518110610974576109746117c1565b602090810291909101810151600083815285835260408082206001600160a01b038c168352909352919091205410156109bf5760405162461bcd60e51b815260040161024e90611899565b8482815181106109d1576109d16117c1565b602090810291909101810151600092835284825260408084206001600160a01b038b1685529092529120805491909103905560010161093b565b5060006001600160a01b0316856001600160a01b0316836001600160a01b03167f4a39dc06d4c0dbc64b70af90fd698a233a518aa5d07e595d983b8c0526c8f7fb8787604051610a5c9291906118dd565b60405180910390a45050505050565b7f8cb501c3289f0b2347f4ba94b88fa355a4cd5266219cf6f4b7e5f7f3518beee5546000906001600160a01b03163303610aac575060131936013560601c90565b503390565b90565b610ac2868686868686610d0b565b610265868686868686610eae565b6001600160a01b038316610af65760405162461bcd60e51b815260040161024e9061180e565b6000610b00610a6b565b9050610b3081856000610b1287611019565b610b1b87611019565b60405180602001604052806000815250610d06565b6000610b3a610bc5565b6000858152602091825260408082206001600160a01b038916835292839052902054909150831115610b7e5760405162461bcd60e51b815260040161024e90611899565b6001600160a01b038581166000818152602084815260408083208054899003905580518981529182018890529193861691600080516020611bdb8339815191529101610a5c565b7f93d5f1e3ad87f1fc4313940b5c964ec29137b7e8ef5c0b76f7e2c77f7f0e032490565b6000610bf3610a6b565b90506001600160a01b038516610c555760405162461bcd60e51b815260206004820152602160248201527f455243313135353a206d696e7420746f20746865207a65726f206164647265736044820152607360f81b606482015260840161024e565b610c7481600087610c6588611019565b610c6e88611019565b87610d06565b82610c7d610bc5565b6000868152602091825260408082206001600160a01b038a1683529092529081208054909190610cae90849061190b565b909155505060408051858152602081018590526001600160a01b038088169260009291851691600080516020611bdb8339815191529101610a5c565b610cf8868686868686611064565b610265868686868686611172565b610265565b6001600160a01b038416610d315760405162461bcd60e51b815260040161024e90611931565b8151835114610d525760405162461bcd60e51b815260040161024e90611851565b610d60868686868686610d06565b6000610d6a610bc5565b905060005b8451811015610e4d576000858281518110610d8c57610d8c6117c1565b602002602001015190506000858381518110610daa57610daa6117c1565b602090810291909101810151600084815286835260408082206001600160a01b038e168352909352919091205490915081811015610dfa5760405162461bcd60e51b815260040161024e90611976565b6000838152602086815260408083206001600160a01b038e811685529252808320938590039093558a168152908120805460019590950194839290610e4090849061190b565b90915550610d6f92505050565b50846001600160a01b0316866001600160a01b0316886001600160a01b03167f4a39dc06d4c0dbc64b70af90fd698a233a518aa5d07e595d983b8c0526c8f7fb8787604051610e9d9291906118dd565b60405180910390a450505050505050565b610ec0846001600160a01b0316611234565b156102655760405163bc197c8160e01b81526001600160a01b0385169063bc197c8190610ef99089908990889088908890600401611a0e565b6020604051808303816000875af1925050508015610f34575060408051601f3d908101601f19168201909252610f3191810190611a6c565b60015b610fe057610f40611a96565b806308c379a003610f795750610f54611ab1565b80610f5f5750610f7b565b8060405162461bcd60e51b815260040161024e9190611b3a565b505b60405162461bcd60e51b815260206004820152603460248201527f455243313135353a207472616e7366657220746f206e6f6e20455243313135356044820152732932b1b2b4bb32b91034b6b83632b6b2b73a32b960611b606482015260840161024e565b6001600160e01b0319811663bc197c8160e01b146110105760405162461bcd60e51b815260040161024e90611b4d565b50505050505050565b60408051600180825281830190925260609160009190602080830190803683370190505090508281600081518110611053576110536117c1565b602090810291909101015292915050565b6001600160a01b03841661108a5760405162461bcd60e51b815260040161024e90611931565b6110a886868661109987611019565b6110a287611019565b86610d06565b60006110b2610bc5565b6000858152602082815260408083206001600160a01b038b168452909152902054909150838110156110f65760405162461bcd60e51b815260040161024e90611976565b6000858152602083815260408083206001600160a01b038b8116855292528083209387900390935587168152908120805485929061113590849061190b565b909155505060408051858152602081018590526001600160a01b038088169289821692918b1691600080516020611bdb8339815191529101610e9d565b611184846001600160a01b0316611234565b156102655760405163f23a6e6160e01b81526001600160a01b0385169063f23a6e61906111bd9089908990889088908890600401611b95565b6020604051808303816000875af19250505080156111f8575060408051601f3d908101601f191682019092526111f591810190611a6c565b60015b61120457610f40611a96565b6001600160e01b0319811663f23a6e6160e01b146110105760405162461bcd60e51b815260040161024e90611b4d565b6001600160a01b03163b151590565b80356001600160a01b038116811461125a57600080fd5b919050565b6000806040838503121561127257600080fd5b61127b83611243565b946020939093013593505050565b634e487b7160e01b600052604160045260246000fd5b601f8201601f191681016001600160401b03811182821017156112c4576112c4611289565b6040525050565b60006001600160401b038211156112e4576112e4611289565b5060051b60200190565b600082601f8301126112ff57600080fd5b8135602061130c826112cb565b604051611319828261129f565b83815260059390931b850182019282810191508684111561133957600080fd5b8286015b84811015611354578035835291830191830161133d565b509695505050505050565b60008060006060848603121561137457600080fd5b61137d84611243565b925060208401356001600160401b038082111561139957600080fd5b6113a5878388016112ee565b935060408601359150808211156113bb57600080fd5b506113c8868287016112ee565b9150509250925092565b600082601f8301126113e357600080fd5b81356001600160401b038111156113fc576113fc611289565b604051611413601f8301601f19166020018261129f565b81815284602083860101111561142857600080fd5b816020850160208301376000918101602001919091529392505050565b600080600080600060a0868803121561145d57600080fd5b61146686611243565b945061147460208701611243565b935060408601356001600160401b038082111561149057600080fd5b61149c89838a016112ee565b945060608801359150808211156114b257600080fd5b6114be89838a016112ee565b935060808801359150808211156114d457600080fd5b506114e1888289016113d2565b9150509295509295909350565b60008060006060848603121561150357600080fd5b61150c84611243565b95602085013595506040909401359392505050565b6000806040838503121561153457600080fd5b82356001600160401b038082111561154b57600080fd5b818501915085601f83011261155f57600080fd5b8135602061156c826112cb565b604051611579828261129f565b83815260059390931b850182019282810191508984111561159957600080fd5b948201945b838610156115be576115af86611243565b8252948201949082019061159e565b965050860135925050808211156115d457600080fd5b506115e1858286016112ee565b9150509250929050565b600081518084526020808501945080840160005b8381101561161b578151875295820195908201906001016115ff565b509495945050505050565b6020815260006101ca60208301846115eb565b6000806000806080858703121561164f57600080fd5b61165885611243565b9350602085013592506040850135915060608501356001600160401b0381111561168157600080fd5b61168d878288016113d2565b91505092959194509250565b80151581146116a757600080fd5b50565b600080604083850312156116bd57600080fd5b6116c683611243565b915060208301356116d681611699565b809150509250929050565b600080604083850312156116f457600080fd5b6116fd83611243565b915061170b60208401611243565b90509250929050565b600080600080600060a0868803121561172c57600080fd5b61173586611243565b945061174360208701611243565b9350604086013592506060860135915060808601356001600160401b0381111561176c57600080fd5b6114e1888289016113d2565b60208082526029908201527f455243313135353a2063616c6c6572206973206e6f74206f776e6572206e6f7260408201526808185c1c1c9bdd995960ba1b606082015260800190565b634e487b7160e01b600052603260045260246000fd5b6001600160a01b0392831681529116602082015260400190565b60006020828403121561180357600080fd5b81516101ca81611699565b60208082526023908201527f455243313135353a206275726e2066726f6d20746865207a65726f206164647260408201526265737360e81b606082015260800190565b60208082526028908201527f455243313135353a2069647320616e6420616d6f756e7473206c656e677468206040820152670dad2e6dac2e8c6d60c31b606082015260800190565b60208082526024908201527f455243313135353a206275726e20616d6f756e7420657863656564732062616c604082015263616e636560e01b606082015260800190565b6040815260006118f060408301856115eb565b828103602084015261190281856115eb565b95945050505050565b6000821982111561192c57634e487b7160e01b600052601160045260246000fd5b500190565b60208082526025908201527f455243313135353a207472616e7366657220746f20746865207a65726f206164604082015264647265737360d81b606082015260800190565b6020808252602b908201527f455243313135353a20696e73756666696369656e742062616c616e636573206660408201526a37b9103a3930b739b332b960a91b606082015260800190565b6000815180845260005b818110156119e7576020818501810151868301820152016119cb565b818111156119f9576000602083870101525b50601f01601f19169290920160200192915050565b6001600160a01b0386811682528516602082015260a060408201819052600090611a3a908301866115eb565b8281036060840152611a4c81866115eb565b90508281036080840152611a6081856119c1565b98975050505050505050565b600060208284031215611a7e57600080fd5b81516001600160e01b0319811681146101ca57600080fd5b600060033d1115610ab15760046000803e5060005160e01c90565b600060443d1015611abf5790565b6040516003193d81016004833e81513d6001600160401b038160248401118184111715611aee57505050505090565b8285019150815181811115611b065750505050505090565b843d8701016020828501011115611b205750505050505090565b611b2f6020828601018761129f565b509095945050505050565b6020815260006101ca60208301846119c1565b60208082526028908201527f455243313135353a204552433131353552656365697665722072656a656374656040820152676420746f6b656e7360c01b606082015260800190565b6001600160a01b03868116825285166020820152604081018490526060810183905260a060808201819052600090611bcf908301846119c1565b97965050505050505056fec3d58168c5ae7397731d063d5bbf3d657854427343f4c083240f7aacaa2d0f62a26469706673582212203bef88c7acf3572bf348f1fa50fc0b4eb1be6ec32fc715e31b6f8c07ea377d4c64736f6c634300080f0033",
  "devdoc": {
    "kind": "dev",
    "methods": {
      "balanceOf(address,uint256)": {
        "params": {
          "account": "address to query",
          "id": "token to query"
        },
        "returns": {
          "_0": "token balance"
        }
      },
      "balanceOfBatch(address[],uint256[])": {
        "params": {
          "accounts": "addresss to query",
          "ids": "tokens to query"
        },
        "returns": {
          "_0": "token balances"
        }
      },
      "isApprovedForAll(address,address)": {
        "params": {
          "account": "address to query for approval granted",
          "operator": "address to query for approval received"
        },
        "returns": {
          "_0": "whether operator is approved to spend tokens held by account"
        }
      },
      "mintByFacet(address,uint256,uint256,bytes)": {
        "details": "Creates `amount` new tokens for `to`, of token type `id`. See {ERC1155-_mint}. Requirements: - the caller must be diamond itself (other facets)."
      },
      "mintByOwner(address,uint256,uint256,bytes)": {
        "details": "Creates `amount` new tokens for `to`, of token type `id`. See {ERC1155-_mint}. Requirements: - the caller must be diamond owner."
      },
      "safeBatchTransferFrom(address,address,uint256[],uint256[],bytes)": {
        "params": {
          "amounts": "list of quantities of tokens to transfer",
          "data": "data payload",
          "from": "sender of tokens",
          "ids": "list of token IDs",
          "to": "receiver of tokens"
        }
      },
      "safeTransferFrom(address,address,uint256,uint256,bytes)": {
        "params": {
          "amount": "quantity of tokens to transfer",
          "data": "data payload",
          "from": "sender of tokens",
          "id": "token ID",
          "to": "receiver of tokens"
        }
      },
      "setApprovalForAll(address,bool)": {
        "params": {
          "operator": "address whose approval status to update",
          "status": "whether operator should be considered approved"
        }
      }
    },
    "version": 1
  },
  "userdoc": {
    "errors": {
      "SenderIsNotSelf()": [
        {
          "notice": "The caller must be the current contract itself."
        }
      ]
    },
    "kind": "user",
    "methods": {
      "balanceOf(address,uint256)": {
        "notice": "query the balance of given token held by given address"
      },
      "balanceOfBatch(address[],uint256[])": {
        "notice": "query the balances of given tokens held by given addresses"
      },
      "isApprovedForAll(address,address)": {
        "notice": "query approval status of given operator with respect to given address"
      },
      "safeBatchTransferFrom(address,address,uint256[],uint256[],bytes)": {
        "notice": "transfer batch of tokens between given addresses, checking for ERC1155Receiver implementation if applicable"
      },
      "safeTransferFrom(address,address,uint256,uint256,bytes)": {
        "notice": "transfer tokens between given addresses, checking for ERC1155Receiver implementation if applicable"
      },
      "setApprovalForAll(address,bool)": {
        "notice": "grant approval to or revoke approval from given operator to spend held tokens"
      }
    },
    "version": 1
  },
  "storageLayout": {
    "storage": [],
    "types": null
  }
}