{
  "address": "0x37a42705d1C1ECE5eBc021b6B14eB7e9B239868a",
  "abi": [
    {
      "inputs": [
        {
          "internalType": "address",
          "name": "forwarder",
          "type": "address"
        }
      ],
      "name": "isTrustedForwarder",
      "outputs": [
        {
          "internalType": "bool",
          "name": "",
          "type": "bool"
        }
      ],
      "stateMutability": "view",
      "type": "function"
    }
  ],
  "transactionHash": "0x3ce540a92ed213ee95390eab6ce8038269f6520ea2dc75ae3c08b9eddd74a3be",
  "args": [],
  "numDeployments": 4,
  "solcInputHash": "af9179e3c4ecac437c7110805c74beb3",
  "bytecode": "0x608060405234801561001057600080fd5b5060fd8061001f6000396000f3fe6080604052348015600f57600080fd5b506004361060285760003560e01c8063572b6c0514602d575b600080fd5b60786038366004608c565b7f8cb501c3289f0b2347f4ba94b88fa355a4cd5266219cf6f4b7e5f7f3518beee55473ffffffffffffffffffffffffffffffffffffffff90811691161490565b604051901515815260200160405180910390f35b600060208284031215609d57600080fd5b813573ffffffffffffffffffffffffffffffffffffffff8116811460c057600080fd5b939250505056fea26469706673582212206e459cd61ca3adfabdb0e28e4f62ee6019cb7abf0910f20b59b9ad6b62a0525064736f6c634300080f0033",
  "devdoc": {
    "kind": "dev",
    "methods": {},
    "version": 1
  },
  "userdoc": {
    "kind": "user",
    "methods": {},
    "version": 1
  },
  "storageLayout": {
    "storage": [],
    "types": null
  }
}