{
  "address": "0x9db7832202D4410685Ff33ae825858608b34FFFA",
  "abi": [
    {
      "inputs": [
        {
          "internalType": "address",
          "name": "forwarder",
          "type": "address"
        }
      ],
      "name": "isTrustedForwarder",
      "outputs": [
        {
          "internalType": "bool",
          "name": "",
          "type": "bool"
        }
      ],
      "stateMutability": "view",
      "type": "function"
    }
  ],
  "transactionHash": "0xf08e664372ad08b72acd6b45cc5a30bb5ad94caf94c6f2638eb03bd3633ef6e3",
  "args": [],
  "numDeployments": 1,
  "solcInputHash": "77c57fe1b070bde9230f9aac838c5506",
  "bytecode": "0x608060405234801561001057600080fd5b5060fd8061001f6000396000f3fe6080604052348015600f57600080fd5b506004361060285760003560e01c8063572b6c0514602d575b600080fd5b60786038366004608c565b7fdb1d5e345c4903e9a32b6674ecc8b1deaddbbb2551474fb34c9d34becbe7f4205473ffffffffffffffffffffffffffffffffffffffff90811691161490565b604051901515815260200160405180910390f35b600060208284031215609d57600080fd5b813573ffffffffffffffffffffffffffffffffffffffff8116811460c057600080fd5b939250505056fea2646970667358221220edf0845074a7a411999ce5ce9a123c63a0b864308a0ea978182f6d359c4ab35a64736f6c634300080f0033",
  "devdoc": {
    "kind": "dev",
    "methods": {},
    "version": 1
  },
  "userdoc": {
    "kind": "user",
    "methods": {},
    "version": 1
  },
  "storageLayout": {
    "storage": [],
    "types": null
  }
}