{
  "address": "0x84B454aC1e3f1CFE1551D86a5BECa645Ee1D8393",
  "abi": [
    {
      "inputs": [
        {
          "internalType": "address",
          "name": "forwarder",
          "type": "address"
        }
      ],
      "name": "isTrustedForwarder",
      "outputs": [
        {
          "internalType": "bool",
          "name": "",
          "type": "bool"
        }
      ],
      "stateMutability": "view",
      "type": "function"
    }
  ],
  "transactionHash": "0x60dd16a038188268e001edc6f84647c23c733984d0bfa15ee24f0252171c3689",
  "args": [],
  "numDeployments": 2,
  "solcInputHash": "5163ebf277c81ff4b661ed605b542cfd",
  "bytecode": "0x608060405234801561001057600080fd5b5060fd8061001f6000396000f3fe6080604052348015600f57600080fd5b506004361060285760003560e01c8063572b6c0514602d575b600080fd5b60786038366004608c565b7fdb1d5e345c4903e9a32b6674ecc8b1deaddbbb2551474fb34c9d34becbe7f4205473ffffffffffffffffffffffffffffffffffffffff90811691161490565b604051901515815260200160405180910390f35b600060208284031215609d57600080fd5b813573ffffffffffffffffffffffffffffffffffffffff8116811460c057600080fd5b939250505056fea2646970667358221220b3a0b3d0cc95777794e58ec499f29455b71eb5e0ed7505866cf149a11b1dd34f64736f6c634300080f0033",
  "devdoc": {
    "kind": "dev",
    "methods": {},
    "version": 1
  },
  "userdoc": {
    "kind": "user",
    "methods": {},
    "version": 1
  },
  "storageLayout": {
    "storage": [],
    "types": null
  }
}