{
  "address": "0xE26877037F0789B537C9b1688F6FFC1a7225B9Ed",
  "abi": [
    {
      "inputs": [
        {
          "components": [
            {
              "internalType": "string",
              "name": "name",
              "type": "string"
            },
            {
              "internalType": "string",
              "name": "symbol",
              "type": "string"
            }
          ],
          "internalType": "struct ERC20LockableToken.Config",
          "name": "config",
          "type": "tuple"
        }
      ],
      "stateMutability": "nonpayable",
      "type": "constructor"
    },
    {
      "anonymous": false,
      "inputs": [
        {
          "indexed": true,
          "internalType": "address",
          "name": "owner",
          "type": "address"
        },
        {
          "indexed": true,
          "internalType": "address",
          "name": "spender",
          "type": "address"
        },
        {
          "indexed": false,
          "internalType": "uint256",
          "name": "value",
          "type": "uint256"
        }
      ],
      "name": "Approval",
      "type": "event"
    },
    {
      "anonymous": false,
      "inputs": [
        {
          "indexed": false,
          "internalType": "uint8",
          "name": "version",
          "type": "uint8"
        }
      ],
      "name": "Initialized",
      "type": "event"
    },
    {
      "anonymous": false,
      "inputs": [
        {
          "indexed": false,
          "internalType": "address",
          "name": "account",
          "type": "address"
        }
      ],
      "name": "Paused",
      "type": "event"
    },
    {
      "anonymous": false,
      "inputs": [
        {
          "indexed": true,
          "internalType": "bytes32",
          "name": "role",
          "type": "bytes32"
        },
        {
          "indexed": true,
          "internalType": "bytes32",
          "name": "previousAdminRole",
          "type": "bytes32"
        },
        {
          "indexed": true,
          "internalType": "bytes32",
          "name": "newAdminRole",
          "type": "bytes32"
        }
      ],
      "name": "RoleAdminChanged",
      "type": "event"
    },
    {
      "anonymous": false,
      "inputs": [
        {
          "indexed": true,
          "internalType": "bytes32",
          "name": "role",
          "type": "bytes32"
        },
        {
          "indexed": true,
          "internalType": "address",
          "name": "account",
          "type": "address"
        },
        {
          "indexed": true,
          "internalType": "address",
          "name": "sender",
          "type": "address"
        }
      ],
      "name": "RoleGranted",
      "type": "event"
    },
    {
      "anonymous": false,
      "inputs": [
        {
          "indexed": true,
          "internalType": "bytes32",
          "name": "role",
          "type": "bytes32"
        },
        {
          "indexed": true,
          "internalType": "address",
          "name": "account",
          "type": "address"
        },
        {
          "indexed": true,
          "internalType": "address",
          "name": "sender",
          "type": "address"
        }
      ],
      "name": "RoleRevoked",
      "type": "event"
    },
    {
      "anonymous": false,
      "inputs": [
        {
          "indexed": true,
          "internalType": "address",
          "name": "from",
          "type": "address"
        },
        {
          "indexed": true,
          "internalType": "address",
          "name": "to",
          "type": "address"
        },
        {
          "indexed": false,
          "internalType": "uint256",
          "name": "value",
          "type": "uint256"
        }
      ],
      "name": "Transfer",
      "type": "event"
    },
    {
      "anonymous": false,
      "inputs": [
        {
          "indexed": false,
          "internalType": "address",
          "name": "account",
          "type": "address"
        }
      ],
      "name": "Unpaused",
      "type": "event"
    },
    {
      "inputs": [],
      "name": "DEFAULT_ADMIN_ROLE",
      "outputs": [
        {
          "internalType": "bytes32",
          "name": "",
          "type": "bytes32"
        }
      ],
      "stateMutability": "view",
      "type": "function"
    },
    {
      "inputs": [],
      "name": "MINTER_ROLE",
      "outputs": [
        {
          "internalType": "bytes32",
          "name": "",
          "type": "bytes32"
        }
      ],
      "stateMutability": "view",
      "type": "function"
    },
    {
      "inputs": [],
      "name": "PAUSER_ROLE",
      "outputs": [
        {
          "internalType": "bytes32",
          "name": "",
          "type": "bytes32"
        }
      ],
      "stateMutability": "view",
      "type": "function"
    },
    {
      "inputs": [],
      "name": "TRANSFER_ROLE",
      "outputs": [
        {
          "internalType": "bytes32",
          "name": "",
          "type": "bytes32"
        }
      ],
      "stateMutability": "view",
      "type": "function"
    },
    {
      "inputs": [
        {
          "internalType": "address",
          "name": "owner",
          "type": "address"
        },
        {
          "internalType": "address",
          "name": "spender",
          "type": "address"
        }
      ],
      "name": "allowance",
      "outputs": [
        {
          "internalType": "uint256",
          "name": "",
          "type": "uint256"
        }
      ],
      "stateMutability": "view",
      "type": "function"
    },
    {
      "inputs": [
        {
          "internalType": "address",
          "name": "spender",
          "type": "address"
        },
        {
          "internalType": "uint256",
          "name": "amount",
          "type": "uint256"
        }
      ],
      "name": "approve",
      "outputs": [
        {
          "internalType": "bool",
          "name": "",
          "type": "bool"
        }
      ],
      "stateMutability": "nonpayable",
      "type": "function"
    },
    {
      "inputs": [
        {
          "internalType": "address",
          "name": "account",
          "type": "address"
        }
      ],
      "name": "balanceOf",
      "outputs": [
        {
          "internalType": "uint256",
          "name": "",
          "type": "uint256"
        }
      ],
      "stateMutability": "view",
      "type": "function"
    },
    {
      "inputs": [
        {
          "internalType": "uint256",
          "name": "amount",
          "type": "uint256"
        }
      ],
      "name": "burn",
      "outputs": [],
      "stateMutability": "nonpayable",
      "type": "function"
    },
    {
      "inputs": [
        {
          "internalType": "address",
          "name": "account",
          "type": "address"
        },
        {
          "internalType": "uint256",
          "name": "amount",
          "type": "uint256"
        }
      ],
      "name": "burnFrom",
      "outputs": [],
      "stateMutability": "nonpayable",
      "type": "function"
    },
    {
      "inputs": [
        {
          "internalType": "address",
          "name": "operator",
          "type": "address"
        }
      ],
      "name": "canTransfer",
      "outputs": [
        {
          "internalType": "bool",
          "name": "",
          "type": "bool"
        }
      ],
      "stateMutability": "view",
      "type": "function"
    },
    {
      "inputs": [],
      "name": "decimals",
      "outputs": [
        {
          "internalType": "uint8",
          "name": "",
          "type": "uint8"
        }
      ],
      "stateMutability": "view",
      "type": "function"
    },
    {
      "inputs": [
        {
          "internalType": "address",
          "name": "spender",
          "type": "address"
        },
        {
          "internalType": "uint256",
          "name": "subtractedValue",
          "type": "uint256"
        }
      ],
      "name": "decreaseAllowance",
      "outputs": [
        {
          "internalType": "bool",
          "name": "",
          "type": "bool"
        }
      ],
      "stateMutability": "nonpayable",
      "type": "function"
    },
    {
      "inputs": [
        {
          "internalType": "bytes32",
          "name": "role",
          "type": "bytes32"
        }
      ],
      "name": "getRoleAdmin",
      "outputs": [
        {
          "internalType": "bytes32",
          "name": "",
          "type": "bytes32"
        }
      ],
      "stateMutability": "view",
      "type": "function"
    },
    {
      "inputs": [
        {
          "internalType": "bytes32",
          "name": "role",
          "type": "bytes32"
        },
        {
          "internalType": "address",
          "name": "account",
          "type": "address"
        }
      ],
      "name": "grantRole",
      "outputs": [],
      "stateMutability": "nonpayable",
      "type": "function"
    },
    {
      "inputs": [
        {
          "internalType": "bytes32",
          "name": "role",
          "type": "bytes32"
        },
        {
          "internalType": "address",
          "name": "account",
          "type": "address"
        }
      ],
      "name": "hasRole",
      "outputs": [
        {
          "internalType": "bool",
          "name": "",
          "type": "bool"
        }
      ],
      "stateMutability": "view",
      "type": "function"
    },
    {
      "inputs": [
        {
          "internalType": "address",
          "name": "spender",
          "type": "address"
        },
        {
          "internalType": "uint256",
          "name": "addedValue",
          "type": "uint256"
        }
      ],
      "name": "increaseAllowance",
      "outputs": [
        {
          "internalType": "bool",
          "name": "",
          "type": "bool"
        }
      ],
      "stateMutability": "nonpayable",
      "type": "function"
    },
    {
      "inputs": [
        {
          "components": [
            {
              "internalType": "string",
              "name": "name",
              "type": "string"
            },
            {
              "internalType": "string",
              "name": "symbol",
              "type": "string"
            }
          ],
          "internalType": "struct ERC20LockableToken.Config",
          "name": "config",
          "type": "tuple"
        },
        {
          "internalType": "address",
          "name": "deployer",
          "type": "address"
        }
      ],
      "name": "initialize",
      "outputs": [],
      "stateMutability": "nonpayable",
      "type": "function"
    },
    {
      "inputs": [],
      "name": "lockForAll",
      "outputs": [],
      "stateMutability": "nonpayable",
      "type": "function"
    },
    {
      "inputs": [
        {
          "internalType": "address",
          "name": "to",
          "type": "address"
        },
        {
          "internalType": "uint256",
          "name": "amount",
          "type": "uint256"
        }
      ],
      "name": "mint",
      "outputs": [],
      "stateMutability": "nonpayable",
      "type": "function"
    },
    {
      "inputs": [],
      "name": "name",
      "outputs": [
        {
          "internalType": "string",
          "name": "",
          "type": "string"
        }
      ],
      "stateMutability": "view",
      "type": "function"
    },
    {
      "inputs": [],
      "name": "pause",
      "outputs": [],
      "stateMutability": "nonpayable",
      "type": "function"
    },
    {
      "inputs": [],
      "name": "paused",
      "outputs": [
        {
          "internalType": "bool",
          "name": "",
          "type": "bool"
        }
      ],
      "stateMutability": "view",
      "type": "function"
    },
    {
      "inputs": [
        {
          "internalType": "bytes32",
          "name": "role",
          "type": "bytes32"
        },
        {
          "internalType": "address",
          "name": "account",
          "type": "address"
        }
      ],
      "name": "renounceRole",
      "outputs": [],
      "stateMutability": "nonpayable",
      "type": "function"
    },
    {
      "inputs": [
        {
          "internalType": "bytes32",
          "name": "role",
          "type": "bytes32"
        },
        {
          "internalType": "address",
          "name": "account",
          "type": "address"
        }
      ],
      "name": "revokeRole",
      "outputs": [],
      "stateMutability": "nonpayable",
      "type": "function"
    },
    {
      "inputs": [
        {
          "internalType": "bytes4",
          "name": "interfaceId",
          "type": "bytes4"
        }
      ],
      "name": "supportsInterface",
      "outputs": [
        {
          "internalType": "bool",
          "name": "",
          "type": "bool"
        }
      ],
      "stateMutability": "view",
      "type": "function"
    },
    {
      "inputs": [],
      "name": "symbol",
      "outputs": [
        {
          "internalType": "string",
          "name": "",
          "type": "string"
        }
      ],
      "stateMutability": "view",
      "type": "function"
    },
    {
      "inputs": [],
      "name": "totalSupply",
      "outputs": [
        {
          "internalType": "uint256",
          "name": "",
          "type": "uint256"
        }
      ],
      "stateMutability": "view",
      "type": "function"
    },
    {
      "inputs": [
        {
          "internalType": "address",
          "name": "to",
          "type": "address"
        },
        {
          "internalType": "uint256",
          "name": "amount",
          "type": "uint256"
        }
      ],
      "name": "transfer",
      "outputs": [
        {
          "internalType": "bool",
          "name": "",
          "type": "bool"
        }
      ],
      "stateMutability": "nonpayable",
      "type": "function"
    },
    {
      "inputs": [
        {
          "internalType": "address",
          "name": "from",
          "type": "address"
        },
        {
          "internalType": "address",
          "name": "to",
          "type": "address"
        },
        {
          "internalType": "uint256",
          "name": "amount",
          "type": "uint256"
        }
      ],
      "name": "transferFrom",
      "outputs": [
        {
          "internalType": "bool",
          "name": "",
          "type": "bool"
        }
      ],
      "stateMutability": "nonpayable",
      "type": "function"
    },
    {
      "inputs": [],
      "name": "unlockForAll",
      "outputs": [],
      "stateMutability": "nonpayable",
      "type": "function"
    },
    {
      "inputs": [],
      "name": "unpause",
      "outputs": [],
      "stateMutability": "nonpayable",
      "type": "function"
    }
  ],
  "transactionHash": "0xc4118b56fab0d8dd9c178f338a67ff873ead281eaa8b75d9ad44fee6d2f4fbf4",
  "args": [
    {
      "name": "Token",
      "symbol": "TKN"
    }
  ],
  "numDeployments": 6,
  "solcInputHash": "7e8d96f5b19322abdd3676f90e4578c3",
  "bytecode": "0x60806040523480156200001157600080fd5b506040516200220c3803806200220c8339810160408190526200003491620004e7565b80516020820151600662000049838262000627565b50600762000058828262000627565b50506008805460ff191690555062000071813362000078565b506200073e565b600054610100900460ff1615808015620000995750600054600160ff909116105b80620000c95750620000b6306200023960201b620009091760201c565b158015620000c9575060005460ff166001145b620001325760405162461bcd60e51b815260206004820152602e60248201527f496e697469616c697a61626c653a20636f6e747261637420697320616c72656160448201526d191e481a5b9a5d1a585b1a5e995960921b60648201526084015b60405180910390fd5b6000805460ff19166001179055801562000156576000805461ff0019166101001790555b825160099062000167908262000627565b506020830151600a906200017c908262000627565b506200018a60008362000248565b620001b67f65d7a28e3265b37a6474929f336521b332c1681b933f6cb9f3376673440d862a8362000248565b620001e27f9f2df0fed2c77648de5860a4cc508cd0818c85b8b8a1ab4ceeef8d981c8956a68362000248565b620001ed82620002ed565b801562000234576000805461ff0019169055604051600181527f7f26b83ff96e1f2b6a682f133852f6798a09c465da95921460cefb38474024989060200160405180910390a15b505050565b6001600160a01b03163b151590565b60008281526002602090815260408083206001600160a01b038516845290915290205460ff16620002e95760008281526002602090815260408083206001600160a01b03851684529091529020805460ff19166001179055620002a83390565b6001600160a01b0316816001600160a01b0316837f2f8788117e7eff1d82e926ec794901d17c78024a50270940304540a733656f0d60405160405180910390a45b5050565b600054610100900460ff16620003175760405162461bcd60e51b81526004016200012990620006f3565b620003228162000325565b50565b600054610100900460ff166200034f5760405162461bcd60e51b81526004016200012990620006f3565b62000361630a615bcd60e11b6200038d565b620003227f8502233096d909befbda0999bb8ea2f3a6be3c138b9fbf003752a4c8bce86f6c8262000248565b6001600160e01b03198082169003620003e95760405162461bcd60e51b815260206004820152601c60248201527f4552433136353a20696e76616c696420696e7465726661636520696400000000604482015260640162000129565b6001600160e01b0319166000908152600160208190526040909120805460ff19169091179055565b634e487b7160e01b600052604160045260246000fd5b604051601f8201601f191681016001600160401b038111828210171562000452576200045262000411565b604052919050565b600082601f8301126200046c57600080fd5b81516001600160401b0381111562000488576200048862000411565b60206200049e601f8301601f1916820162000427565b8281528582848701011115620004b357600080fd5b60005b83811015620004d3578581018301518282018401528201620004b6565b506000928101909101919091529392505050565b600060208284031215620004fa57600080fd5b81516001600160401b03808211156200051257600080fd5b90830190604082860312156200052757600080fd5b60405160408101818110838211171562000545576200054562000411565b6040528251828111156200055857600080fd5b62000566878286016200045a565b8252506020830151828111156200057c57600080fd5b6200058a878286016200045a565b60208301525095945050505050565b600181811c90821680620005ae57607f821691505b602082108103620005cf57634e487b7160e01b600052602260045260246000fd5b50919050565b601f8211156200023457600081815260208120601f850160051c81016020861015620005fe5750805b601f850160051c820191505b818110156200061f578281556001016200060a565b505050505050565b81516001600160401b0381111562000643576200064362000411565b6200065b8162000654845462000599565b84620005d5565b602080601f8311600181146200069357600084156200067a5750858301515b600019600386901b1c1916600185901b1785556200061f565b600085815260208120601f198616915b82811015620006c457888601518255948401946001909101908401620006a3565b5085821015620006e35787850151600019600388901b60f8161c191681555b5050505050600190811b01905550565b6020808252602b908201527f496e697469616c697a61626c653a20636f6e7472616374206973206e6f74206960408201526a6e697469616c697a696e6760a81b606082015260800190565b611abe806200074e6000396000f3fe608060405234801561001057600080fd5b50600436106101755760003560e01c806301ffc9a71461017a57806306fdde03146101a2578063095ea7b3146101b757806318160ddd146101ca578063206b60f9146101dc57806323b872dd146101f1578063248a9ca3146102045780632f2ff15d14610217578063313ce5671461022c57806336568abe1461023b578063395093511461024e5780633f4ba83a1461026157806340c10f191461026957806342966c681461027c5780635539160f1461028f5780635c975abb146102a257806370a08231146102ad57806378fc3cb3146102d657806379cc6790146102e95780638456cb59146102fc57806391d148541461030457806395d89b411461031757806398a2a3231461031f578063a217fddf14610327578063a457c2d71461032f578063a9059cbb14610342578063d539139314610355578063d547741f1461036a578063dd62ed3e1461037d578063e63ab1e914610390578063f49c280a146103a5575b600080fd5b61018d61018836600461147d565b6103ad565b60405190151581526020015b60405180910390f35b6101aa6103be565b60405161019991906114cb565b61018d6101c536600461151a565b610450565b6005545b604051908152602001610199565b6101ce600080516020611a0983398151915281565b61018d6101ff366004611544565b610468565b6101ce610212366004611580565b61048c565b61022a610225366004611599565b6104a1565b005b60405160128152602001610199565b61022a610249366004611599565b6104c2565b61018d61025c36600461151a565b610545565b61022a610567565b61022a61027736600461151a565b61058a565b61022a61028a366004611580565b6105ac565b61022a61029d366004611667565b6105b6565b60085460ff1661018d565b6101ce6102bb366004611717565b6001600160a01b031660009081526003602052604090205490565b61018d6102e4366004611717565b61072e565b61022a6102f736600461151a565b610748565b61022a61075d565b61018d610312366004611599565b61077d565b6101aa6107a8565b61022a6107b7565b6101ce600081565b61018d61033d36600461151a565b6107f9565b61018d61035036600461151a565b610874565b6101ce600080516020611a4983398151915281565b61022a610378366004611599565b610882565b6101ce61038b366004611732565b61089e565b6101ce600080516020611a2983398151915281565b61022a6108c9565b60006103b882610918565b92915050565b6060600980546103cd9061175c565b80601f01602080910402602001604051908101604052809291908181526020018280546103f99061175c565b80156104465780601f1061041b57610100808354040283529160200191610446565b820191906000526020600020905b81548152906001019060200180831161042957829003601f168201915b5050505050905090565b60003361045e818585610954565b5060019392505050565b600033610476858285610a78565b610481858585610af2565b506001949350505050565b60009081526002602052604090206001015490565b6104aa8261048c565b6104b381610cb9565b6104bd8383610cc3565b505050565b6001600160a01b03811633146105375760405162461bcd60e51b815260206004820152602f60248201527f416363657373436f6e74726f6c3a2063616e206f6e6c792072656e6f756e636560448201526e103937b632b9903337b91039b2b63360891b60648201526084015b60405180910390fd5b6105418282610d49565b5050565b60003361045e818585610558838361089e565b61056291906117ac565b610954565b600080516020611a2983398151915261057f81610cb9565b610587610db0565b50565b600080516020611a498339815191526105a281610cb9565b6104bd8383610e02565b6105873382610edb565b600054610100900460ff16158080156105d65750600054600160ff909116105b806105f757506105e530610909565b1580156105f7575060005460ff166001145b61065a5760405162461bcd60e51b815260206004820152602e60248201527f496e697469616c697a61626c653a20636f6e747261637420697320616c72656160448201526d191e481a5b9a5d1a585b1a5e995960921b606482015260840161052e565b6000805460ff19166001179055801561067d576000805461ff0019166101001790555b825160099061068c908261180d565b506020830151600a9061069f908261180d565b506106ab600083610cc3565b6106c3600080516020611a2983398151915283610cc3565b6106db600080516020611a4983398151915283610cc3565b6106e482611023565b80156104bd576000805461ff0019169055604051600181527f7f26b83ff96e1f2b6a682f133852f6798a09c465da95921460cefb38474024989060200160405180910390a1505050565b60006103b8600080516020611a098339815191528361077d565b610753823383610a78565b6105418282610edb565b600080516020611a2983398151915261077581610cb9565b610587611053565b60009182526002602090815260408084206001600160a01b0393909316845291905290205460ff1690565b6060600a80546103cd9061175c565b6107c260003361077d565b6107de5760405162461bcd60e51b815260040161052e906118cc565b6107f7600080516020611a098339815191526000610d49565b565b60003381610807828661089e565b9050838110156108675760405162461bcd60e51b815260206004820152602560248201527f45524332303a2064656372656173656420616c6c6f77616e63652062656c6f77604482015264207a65726f60d81b606482015260840161052e565b6104818286868403610954565b60003361045e818585610af2565b61088b8261048c565b61089481610cb9565b6104bd8383610d49565b6001600160a01b03918216600090815260046020908152604080832093909416825291909152205490565b6108d460003361077d565b6108f05760405162461bcd60e51b815260040161052e906118cc565b6107f7600080516020611a098339815191526000610cc3565b6001600160a01b03163b151590565b60006301ffc9a760e01b6001600160e01b0319831614806103b85750506001600160e01b03191660009081526001602052604090205460ff1690565b6001600160a01b0383166109b65760405162461bcd60e51b8152602060048201526024808201527f45524332303a20617070726f76652066726f6d20746865207a65726f206164646044820152637265737360e01b606482015260840161052e565b6001600160a01b038216610a175760405162461bcd60e51b815260206004820152602260248201527f45524332303a20617070726f766520746f20746865207a65726f206164647265604482015261737360f01b606482015260840161052e565b6001600160a01b0383811660008181526004602090815260408083209487168084529482529182902085905590518481527f8c5be1e5ebec7d5bd14f71427d1e84f3dd0314c0f7b2291e5b200ac8c7c3b925910160405180910390a3505050565b6000610a84848461089e565b90506000198114610aec5781811015610adf5760405162461bcd60e51b815260206004820152601d60248201527f45524332303a20696e73756666696369656e7420616c6c6f77616e6365000000604482015260640161052e565b610aec8484848403610954565b50505050565b6001600160a01b038316610b565760405162461bcd60e51b815260206004820152602560248201527f45524332303a207472616e736665722066726f6d20746865207a65726f206164604482015264647265737360d81b606482015260840161052e565b6001600160a01b038216610bb85760405162461bcd60e51b815260206004820152602360248201527f45524332303a207472616e7366657220746f20746865207a65726f206164647260448201526265737360e81b606482015260840161052e565b610bc3838383611090565b6001600160a01b03831660009081526003602052604090205481811015610c3b5760405162461bcd60e51b815260206004820152602660248201527f45524332303a207472616e7366657220616d6f756e7420657863656564732062604482015265616c616e636560d01b606482015260840161052e565b6001600160a01b03808516600090815260036020526040808220858503905591851681529081208054849290610c729084906117ac565b92505081905550826001600160a01b0316846001600160a01b0316600080516020611a6983398151915284604051610cac91815260200190565b60405180910390a3610aec565b61058781336110a3565b610ccd828261077d565b6105415760008281526002602090815260408083206001600160a01b03851684529091529020805460ff19166001179055610d053390565b6001600160a01b0316816001600160a01b0316837f2f8788117e7eff1d82e926ec794901d17c78024a50270940304540a733656f0d60405160405180910390a45050565b610d53828261077d565b156105415760008281526002602090815260408083206001600160a01b0385168085529252808320805460ff1916905551339285917ff6391f5c32d9c69d2a47ea670b442974b53935d1edc7fd64eb21e047a839171b9190a45050565b610db8611107565b6008805460ff191690557f5db9ee0a495bf2e6ff9c91a7834c1ba4fdd244a5e8aa4e537bd38aeae4b073aa335b6040516001600160a01b03909116815260200160405180910390a1565b6001600160a01b038216610e585760405162461bcd60e51b815260206004820152601f60248201527f45524332303a206d696e7420746f20746865207a65726f206164647265737300604482015260640161052e565b610e6460008383611090565b8060056000828254610e7691906117ac565b90915550506001600160a01b03821660009081526003602052604081208054839290610ea39084906117ac565b90915550506040518181526001600160a01b03831690600090600080516020611a698339815191529060200160405180910390a35050565b6001600160a01b038216610f3b5760405162461bcd60e51b815260206004820152602160248201527f45524332303a206275726e2066726f6d20746865207a65726f206164647265736044820152607360f81b606482015260840161052e565b610f4782600083611090565b6001600160a01b03821660009081526003602052604090205481811015610fbb5760405162461bcd60e51b815260206004820152602260248201527f45524332303a206275726e20616d6f756e7420657863656564732062616c616e604482015261636560f01b606482015260840161052e565b6001600160a01b0383166000908152600360205260408120838303905560058054849290610fea9084906118ef565b90915550506040518281526000906001600160a01b03851690600080516020611a698339815191529060200160405180910390a3505050565b600054610100900460ff1661104a5760405162461bcd60e51b815260040161052e90611902565b61058781611150565b61105b61119f565b6008805460ff191660011790557f62e78cea01bee320cd4e420270b5ea74000d11b0c9f74754ebdbfc544b05a258610de53390565b61109861119f565b6104bd8383836111e5565b6110ad828261077d565b610541576110c5816001600160a01b0316601461125a565b6110d083602061125a565b6040516020016110e192919061194d565b60408051601f198184030181529082905262461bcd60e51b825261052e916004016114cb565b60085460ff166107f75760405162461bcd60e51b815260206004820152601460248201527314185d5cd8589b194e881b9bdd081c185d5cd95960621b604482015260640161052e565b600054610100900460ff166111775760405162461bcd60e51b815260040161052e90611902565b611187630a615bcd60e11b6113fc565b610587600080516020611a0983398151915282610cc3565b60085460ff16156107f75760405162461bcd60e51b815260206004820152601060248201526f14185d5cd8589b194e881c185d5cd95960821b604482015260640161052e565b6111fe600080516020611a09833981519152600061077d565b8061121c575061121c600080516020611a098339815191523361077d565b6104bd5760405162461bcd60e51b815260206004820152600f60248201526e1514905394d1915497d313d0d2d151608a1b604482015260640161052e565b606060006112698360026119bc565b6112749060026117ac565b6001600160401b0381111561128b5761128b6115c5565b6040519080825280601f01601f1916602001820160405280156112b5576020820181803683370190505b509050600360fc1b816000815181106112d0576112d06119db565b60200101906001600160f81b031916908160001a905350600f60fb1b816001815181106112ff576112ff6119db565b60200101906001600160f81b031916908160001a90535060006113238460026119bc565b61132e9060016117ac565b90505b60018111156113a6576f181899199a1a9b1b9c1cb0b131b232b360811b85600f1660108110611362576113626119db565b1a60f81b828281518110611378576113786119db565b60200101906001600160f81b031916908160001a90535060049490941c9361139f816119f1565b9050611331565b5083156113f55760405162461bcd60e51b815260206004820181905260248201527f537472696e67733a20686578206c656e67746820696e73756666696369656e74604482015260640161052e565b9392505050565b6001600160e01b031980821690036114555760405162461bcd60e51b815260206004820152601c60248201527b115490cc4d8d4e881a5b9d985b1a59081a5b9d195c999858d9481a5960221b604482015260640161052e565b6001600160e01b0319166000908152600160208190526040909120805460ff19169091179055565b60006020828403121561148f57600080fd5b81356001600160e01b0319811681146113f557600080fd5b60005b838110156114c25781810151838201526020016114aa565b50506000910152565b60208152600082518060208401526114ea8160408501602087016114a7565b601f01601f19169190910160400192915050565b80356001600160a01b038116811461151557600080fd5b919050565b6000806040838503121561152d57600080fd5b611536836114fe565b946020939093013593505050565b60008060006060848603121561155957600080fd5b611562846114fe565b9250611570602085016114fe565b9150604084013590509250925092565b60006020828403121561159257600080fd5b5035919050565b600080604083850312156115ac57600080fd5b823591506115bc602084016114fe565b90509250929050565b634e487b7160e01b600052604160045260246000fd5b600082601f8301126115ec57600080fd5b81356001600160401b0380821115611606576116066115c5565b604051601f8301601f19908116603f0116810190828211818310171561162e5761162e6115c5565b8160405283815286602085880101111561164757600080fd5b836020870160208301376000602085830101528094505050505092915050565b6000806040838503121561167a57600080fd5b82356001600160401b038082111561169157600080fd5b90840190604082870312156116a557600080fd5b6040516040810181811083821117156116c0576116c06115c5565b6040528235828111156116d257600080fd5b6116de888286016115db565b8252506020830135828111156116f357600080fd5b6116ff888286016115db565b6020830152508094505050506115bc602084016114fe565b60006020828403121561172957600080fd5b6113f5826114fe565b6000806040838503121561174557600080fd5b61174e836114fe565b91506115bc602084016114fe565b600181811c9082168061177057607f821691505b60208210810361179057634e487b7160e01b600052602260045260246000fd5b50919050565b634e487b7160e01b600052601160045260246000fd5b808201808211156103b8576103b8611796565b601f8211156104bd57600081815260208120601f850160051c810160208610156117e65750805b601f850160051c820191505b81811015611805578281556001016117f2565b505050505050565b81516001600160401b03811115611826576118266115c5565b61183a81611834845461175c565b846117bf565b602080601f83116001811461186f57600084156118575750858301515b600019600386901b1c1916600185901b178555611805565b600085815260208120601f198616915b8281101561189e5788860151825594840194600190910190840161187f565b50858210156118bc5787850151600019600388901b60f8161c191681555b5050505050600190811b01905550565b6020808252600990820152682727aa2fa0a226a4a760b91b604082015260600190565b818103818111156103b8576103b8611796565b6020808252602b908201527f496e697469616c697a61626c653a20636f6e7472616374206973206e6f74206960408201526a6e697469616c697a696e6760a81b606082015260800190565b76020b1b1b2b9b9a1b7b73a3937b61d1030b1b1b7bab73a1604d1b81526000835161197f8160178501602088016114a7565b7001034b99036b4b9b9b4b733903937b6329607d1b60179184019182015283516119b08160288401602088016114a7565b01602801949350505050565b60008160001904831182151516156119d6576119d6611796565b500290565b634e487b7160e01b600052603260045260246000fd5b600081611a0057611a00611796565b50600019019056fe8502233096d909befbda0999bb8ea2f3a6be3c138b9fbf003752a4c8bce86f6c65d7a28e3265b37a6474929f336521b332c1681b933f6cb9f3376673440d862a9f2df0fed2c77648de5860a4cc508cd0818c85b8b8a1ab4ceeef8d981c8956a6ddf252ad1be2c89b69c2b068fc378daa952ba7f163c4a11628f55a4df523b3efa2646970667358221220ef661fa1b82c955d0c4f393d7d8181d761f79bc871bc8da9c9c05170ac1090e464736f6c63430008100033",
  "devdoc": {
    "kind": "dev",
    "methods": {
      "allowance(address,address)": {
        "details": "See {IERC20-allowance}."
      },
      "approve(address,uint256)": {
        "details": "See {IERC20-approve}. NOTE: If `amount` is the maximum `uint256`, the allowance is not updated on `transferFrom`. This is semantically equivalent to an infinite approval. Requirements: - `spender` cannot be the zero address."
      },
      "balanceOf(address)": {
        "details": "See {IERC20-balanceOf}."
      },
      "burn(uint256)": {
        "details": "Destroys `amount` tokens from the caller. See {ERC20-_burn}."
      },
      "burnFrom(address,uint256)": {
        "details": "Destroys `amount` tokens from `account`, deducting from the caller's allowance. See {ERC20-_burn} and {ERC20-allowance}. Requirements: - the caller must have allowance for ``accounts``'s tokens of at least `amount`."
      },
      "decimals()": {
        "details": "Returns the number of decimals used to get its user representation. For example, if `decimals` equals `2`, a balance of `505` tokens should be displayed to a user as `5.05` (`505 / 10 ** 2`). Tokens usually opt for a value of 18, imitating the relationship between Ether and Wei. This is the value {ERC20} uses, unless this function is overridden; NOTE: This information is only used for _display_ purposes: it in no way affects any of the arithmetic of the contract, including {IERC20-balanceOf} and {IERC20-transfer}."
      },
      "decreaseAllowance(address,uint256)": {
        "details": "Atomically decreases the allowance granted to `spender` by the caller. This is an alternative to {approve} that can be used as a mitigation for problems described in {IERC20-approve}. Emits an {Approval} event indicating the updated allowance. Requirements: - `spender` cannot be the zero address. - `spender` must have allowance for the caller of at least `subtractedValue`."
      },
      "getRoleAdmin(bytes32)": {
        "details": "Returns the admin role that controls `role`. See {grantRole} and {revokeRole}. To change a role's admin, use {_setRoleAdmin}."
      },
      "grantRole(bytes32,address)": {
        "details": "Grants `role` to `account`. If `account` had not been already granted `role`, emits a {RoleGranted} event. Requirements: - the caller must have ``role``'s admin role. May emit a {RoleGranted} event."
      },
      "hasRole(bytes32,address)": {
        "details": "Returns `true` if `account` has been granted `role`."
      },
      "increaseAllowance(address,uint256)": {
        "details": "Atomically increases the allowance granted to `spender` by the caller. This is an alternative to {approve} that can be used as a mitigation for problems described in {IERC20-approve}. Emits an {Approval} event indicating the updated allowance. Requirements: - `spender` cannot be the zero address."
      },
      "name()": {
        "details": "Returns the name of the token."
      },
      "paused()": {
        "details": "Returns true if the contract is paused, and false otherwise."
      },
      "renounceRole(bytes32,address)": {
        "details": "Revokes `role` from the calling account. Roles are often managed via {grantRole} and {revokeRole}: this function's purpose is to provide a mechanism for accounts to lose their privileges if they are compromised (such as when a trusted device is misplaced). If the calling account had been revoked `role`, emits a {RoleRevoked} event. Requirements: - the caller must be `account`. May emit a {RoleRevoked} event."
      },
      "revokeRole(bytes32,address)": {
        "details": "Revokes `role` from `account`. If `account` had been granted `role`, emits a {RoleRevoked} event. Requirements: - the caller must have ``role``'s admin role. May emit a {RoleRevoked} event."
      },
      "symbol()": {
        "details": "Returns the symbol of the token, usually a shorter version of the name."
      },
      "totalSupply()": {
        "details": "See {IERC20-totalSupply}."
      },
      "transfer(address,uint256)": {
        "details": "See {IERC20-transfer}. Requirements: - `to` cannot be the zero address. - the caller must have a balance of at least `amount`."
      },
      "transferFrom(address,address,uint256)": {
        "details": "See {IERC20-transferFrom}. Emits an {Approval} event indicating the updated allowance. This is not required by the EIP. See the note at the beginning of {ERC20}. NOTE: Does not update the allowance if the current allowance is the maximum `uint256`. Requirements: - `from` and `to` cannot be the zero address. - `from` must have a balance of at least `amount`. - the caller must have allowance for ``from``'s tokens of at least `amount`."
      }
    },
    "version": 1
  },
  "userdoc": {
    "kind": "user",
    "methods": {},
    "version": 1
  },
  "storageLayout": {
    "storage": [
      {
        "astId": 974,
        "contract": "contracts/tokens/presets/ERC20LockableToken.sol:ERC20LockableToken",
        "label": "_initialized",
        "offset": 0,
        "slot": "0",
        "type": "t_uint8"
      },
      {
        "astId": 977,
        "contract": "contracts/tokens/presets/ERC20LockableToken.sol:ERC20LockableToken",
        "label": "_initializing",
        "offset": 1,
        "slot": "0",
        "type": "t_bool"
      },
      {
        "astId": 5217,
        "contract": "contracts/tokens/presets/ERC20LockableToken.sol:ERC20LockableToken",
        "label": "_supportedInterfaces",
        "offset": 0,
        "slot": "1",
        "type": "t_mapping(t_bytes4,t_bool)"
      },
      {
        "astId": 406,
        "contract": "contracts/tokens/presets/ERC20LockableToken.sol:ERC20LockableToken",
        "label": "_roles",
        "offset": 0,
        "slot": "2",
        "type": "t_mapping(t_bytes32,t_struct(RoleData)401_storage)"
      },
      {
        "astId": 1282,
        "contract": "contracts/tokens/presets/ERC20LockableToken.sol:ERC20LockableToken",
        "label": "_balances",
        "offset": 0,
        "slot": "3",
        "type": "t_mapping(t_address,t_uint256)"
      },
      {
        "astId": 1288,
        "contract": "contracts/tokens/presets/ERC20LockableToken.sol:ERC20LockableToken",
        "label": "_allowances",
        "offset": 0,
        "slot": "4",
        "type": "t_mapping(t_address,t_mapping(t_address,t_uint256))"
      },
      {
        "astId": 1290,
        "contract": "contracts/tokens/presets/ERC20LockableToken.sol:ERC20LockableToken",
        "label": "_totalSupply",
        "offset": 0,
        "slot": "5",
        "type": "t_uint256"
      },
      {
        "astId": 1292,
        "contract": "contracts/tokens/presets/ERC20LockableToken.sol:ERC20LockableToken",
        "label": "_name",
        "offset": 0,
        "slot": "6",
        "type": "t_string_storage"
      },
      {
        "astId": 1294,
        "contract": "contracts/tokens/presets/ERC20LockableToken.sol:ERC20LockableToken",
        "label": "_symbol",
        "offset": 0,
        "slot": "7",
        "type": "t_string_storage"
      },
      {
        "astId": 1136,
        "contract": "contracts/tokens/presets/ERC20LockableToken.sol:ERC20LockableToken",
        "label": "_paused",
        "offset": 0,
        "slot": "8",
        "type": "t_bool"
      },
      {
        "astId": 20735,
        "contract": "contracts/tokens/presets/ERC20LockableToken.sol:ERC20LockableToken",
        "label": "_name",
        "offset": 0,
        "slot": "9",
        "type": "t_string_storage"
      },
      {
        "astId": 20737,
        "contract": "contracts/tokens/presets/ERC20LockableToken.sol:ERC20LockableToken",
        "label": "_symbol",
        "offset": 0,
        "slot": "10",
        "type": "t_string_storage"
      }
    ],
    "types": {
      "t_address": {
        "encoding": "inplace",
        "label": "address",
        "numberOfBytes": "20"
      },
      "t_bool": {
        "encoding": "inplace",
        "label": "bool",
        "numberOfBytes": "1"
      },
      "t_bytes32": {
        "encoding": "inplace",
        "label": "bytes32",
        "numberOfBytes": "32"
      },
      "t_bytes4": {
        "encoding": "inplace",
        "label": "bytes4",
        "numberOfBytes": "4"
      },
      "t_mapping(t_address,t_bool)": {
        "encoding": "mapping",
        "key": "t_address",
        "label": "mapping(address => bool)",
        "numberOfBytes": "32",
        "value": "t_bool"
      },
      "t_mapping(t_address,t_mapping(t_address,t_uint256))": {
        "encoding": "mapping",
        "key": "t_address",
        "label": "mapping(address => mapping(address => uint256))",
        "numberOfBytes": "32",
        "value": "t_mapping(t_address,t_uint256)"
      },
      "t_mapping(t_address,t_uint256)": {
        "encoding": "mapping",
        "key": "t_address",
        "label": "mapping(address => uint256)",
        "numberOfBytes": "32",
        "value": "t_uint256"
      },
      "t_mapping(t_bytes32,t_struct(RoleData)401_storage)": {
        "encoding": "mapping",
        "key": "t_bytes32",
        "label": "mapping(bytes32 => struct AccessControl.RoleData)",
        "numberOfBytes": "32",
        "value": "t_struct(RoleData)401_storage"
      },
      "t_mapping(t_bytes4,t_bool)": {
        "encoding": "mapping",
        "key": "t_bytes4",
        "label": "mapping(bytes4 => bool)",
        "numberOfBytes": "32",
        "value": "t_bool"
      },
      "t_string_storage": {
        "encoding": "bytes",
        "label": "string",
        "numberOfBytes": "32"
      },
      "t_struct(RoleData)401_storage": {
        "encoding": "inplace",
        "label": "struct AccessControl.RoleData",
        "members": [
          {
            "astId": 398,
            "contract": "contracts/tokens/presets/ERC20LockableToken.sol:ERC20LockableToken",
            "label": "members",
            "offset": 0,
            "slot": "0",
            "type": "t_mapping(t_address,t_bool)"
          },
          {
            "astId": 400,
            "contract": "contracts/tokens/presets/ERC20LockableToken.sol:ERC20LockableToken",
            "label": "adminRole",
            "offset": 0,
            "slot": "1",
            "type": "t_bytes32"
          }
        ],
        "numberOfBytes": "64"
      },
      "t_uint256": {
        "encoding": "inplace",
        "label": "uint256",
        "numberOfBytes": "32"
      },
      "t_uint8": {
        "encoding": "inplace",
        "label": "uint8",
        "numberOfBytes": "1"
      }
    }
  }
}