{
  "address": "0x4aEc16908Fd783a041C0de4B58cA496bC4df6937",
  "abi": [
    {
      "anonymous": false,
      "inputs": [
        {
          "indexed": true,
          "internalType": "address",
          "name": "previousOwner",
          "type": "address"
        },
        {
          "indexed": true,
          "internalType": "address",
          "name": "newOwner",
          "type": "address"
        }
      ],
      "name": "OwnershipTransferred",
      "type": "event"
    },
    {
      "inputs": [
        {
          "internalType": "address",
          "name": "forwarder",
          "type": "address"
        }
      ],
      "name": "isTrustedForwarder",
      "outputs": [
        {
          "internalType": "bool",
          "name": "",
          "type": "bool"
        }
      ],
      "stateMutability": "view",
      "type": "function"
    },
    {
      "inputs": [
        {
          "internalType": "address",
          "name": "trustedForwarder",
          "type": "address"
        }
      ],
      "name": "setTrustedForwarder",
      "outputs": [],
      "stateMutability": "nonpayable",
      "type": "function"
    }
  ],
  "transactionHash": "0xb56ec40505d94b6eb5f60c89b39bfd99eea89e1ef9e6aa80b40f35aa8dd0fa42",
  "args": [],
  "numDeployments": 1,
  "solcInputHash": "ac453fc96aed5abb3342b16f88ba326c",
  "bytecode": "0x608060405234801561001057600080fd5b506101de806100206000396000f3fe608060405234801561001057600080fd5b50600436106100365760003560e01c8063572b6c051461003b578063da74222814610062575b600080fd5b61004e610049366004610178565b610077565b604051901515815260200160405180910390f35b610075610070366004610178565b610088565b005b60006100828261012f565b92915050565b7fc0ea367cb0174dd5521cd2372c76f8c13e6c1f832c71f1d6e0cbc185c9cc8ed4546001600160a01b031633146101055760405162461bcd60e51b815260206004820152601d60248201527f4f776e61626c653a2073656e646572206d757374206265206f776e6572000000604482015260640160405180910390fd5b8061010e610154565b80546001600160a01b0319166001600160a01b039290921691909117905550565b6000816001600160a01b0316610143610154565b546001600160a01b03161492915050565b7f8cb501c3289f0b2347f4ba94b88fa355a4cd5266219cf6f4b7e5f7f3518beee590565b60006020828403121561018a57600080fd5b81356001600160a01b03811681146101a157600080fd5b939250505056fea2646970667358221220e4caf30f9861b4fc1a56771f4a0188b9b31987e8ec4bce0b785a3cd2f8f2f56664736f6c634300080f0033",
  "devdoc": {
    "kind": "dev",
    "methods": {},
    "version": 1
  },
  "userdoc": {
    "kind": "user",
    "methods": {},
    "version": 1
  },
  "storageLayout": {
    "storage": [],
    "types": null
  }
}