{
  "address": "0x4bc4eE07e009Cf89CE97A78fFc5Bed27eDE8F2a1",
  "abi": [
    {
      "inputs": [
        {
          "components": [
            {
              "internalType": "string",
              "name": "name",
              "type": "string"
            },
            {
              "internalType": "string",
              "name": "symbol",
              "type": "string"
            },
            {
              "internalType": "string",
              "name": "contractURI",
              "type": "string"
            },
            {
              "internalType": "string",
              "name": "placeholderURI",
              "type": "string"
            },
            {
              "internalType": "string",
              "name": "tokenURIPrefix",
              "type": "string"
            },
            {
              "internalType": "uint256",
              "name": "maxSupply",
              "type": "uint256"
            },
            {
              "internalType": "uint256",
              "name": "preSalePrice",
              "type": "uint256"
            },
            {
              "internalType": "uint256",
              "name": "preSaleMaxMintPerWallet",
              "type": "uint256"
            },
            {
              "internalType": "uint256",
              "name": "publicSalePrice",
              "type": "uint256"
            },
            {
              "internalType": "uint256",
              "name": "publicSaleMaxMintPerTx",
              "type": "uint256"
            },
            {
              "internalType": "address",
              "name": "defaultRoyaltyAddress",
              "type": "address"
            },
            {
              "internalType": "uint16",
              "name": "defaultRoyaltyBps",
              "type": "uint16"
            },
            {
              "internalType": "address",
              "name": "proceedsRecipient",
              "type": "address"
            },
            {
              "internalType": "address",
              "name": "openSeaProxyRegistryAddress",
              "type": "address"
            },
            {
              "internalType": "address",
              "name": "openSeaExchangeAddress",
              "type": "address"
            },
            {
              "internalType": "address",
              "name": "trustedForwarder",
              "type": "address"
            }
          ],
          "internalType": "struct ERC721AFullFeaturedCollection.Config",
          "name": "config",
          "type": "tuple"
        }
      ],
      "stateMutability": "nonpayable",
      "type": "constructor"
    },
    {
      "inputs": [],
      "name": "ApprovalCallerNotOwnerNorApproved",
      "type": "error"
    },
    {
      "inputs": [],
      "name": "ApprovalQueryForNonexistentToken",
      "type": "error"
    },
    {
      "inputs": [],
      "name": "ApproveToCaller",
      "type": "error"
    },
    {
      "inputs": [],
      "name": "BalanceQueryForZeroAddress",
      "type": "error"
    },
    {
      "inputs": [],
      "name": "MintERC2309QuantityExceedsLimit",
      "type": "error"
    },
    {
      "inputs": [],
      "name": "MintToZeroAddress",
      "type": "error"
    },
    {
      "inputs": [],
      "name": "MintZeroQuantity",
      "type": "error"
    },
    {
      "inputs": [],
      "name": "OwnerQueryForNonexistentToken",
      "type": "error"
    },
    {
      "inputs": [],
      "name": "OwnershipNotInitializedForExtraData",
      "type": "error"
    },
    {
      "inputs": [],
      "name": "TransferCallerNotOwnerNorApproved",
      "type": "error"
    },
    {
      "inputs": [],
      "name": "TransferFromIncorrectOwner",
      "type": "error"
    },
    {
      "inputs": [],
      "name": "TransferToNonERC721ReceiverImplementer",
      "type": "error"
    },
    {
      "inputs": [],
      "name": "TransferToZeroAddress",
      "type": "error"
    },
    {
      "inputs": [],
      "name": "URIQueryForNonexistentToken",
      "type": "error"
    },
    {
      "anonymous": false,
      "inputs": [
        {
          "indexed": true,
          "internalType": "address",
          "name": "owner",
          "type": "address"
        },
        {
          "indexed": true,
          "internalType": "address",
          "name": "approved",
          "type": "address"
        },
        {
          "indexed": true,
          "internalType": "uint256",
          "name": "tokenId",
          "type": "uint256"
        }
      ],
      "name": "Approval",
      "type": "event"
    },
    {
      "anonymous": false,
      "inputs": [
        {
          "indexed": true,
          "internalType": "address",
          "name": "owner",
          "type": "address"
        },
        {
          "indexed": true,
          "internalType": "address",
          "name": "operator",
          "type": "address"
        },
        {
          "indexed": false,
          "internalType": "bool",
          "name": "approved",
          "type": "bool"
        }
      ],
      "name": "ApprovalForAll",
      "type": "event"
    },
    {
      "anonymous": false,
      "inputs": [
        {
          "indexed": true,
          "internalType": "uint256",
          "name": "fromTokenId",
          "type": "uint256"
        },
        {
          "indexed": false,
          "internalType": "uint256",
          "name": "toTokenId",
          "type": "uint256"
        },
        {
          "indexed": true,
          "internalType": "address",
          "name": "from",
          "type": "address"
        },
        {
          "indexed": true,
          "internalType": "address",
          "name": "to",
          "type": "address"
        }
      ],
      "name": "ConsecutiveTransfer",
      "type": "event"
    },
    {
      "anonymous": false,
      "inputs": [
        {
          "indexed": false,
          "internalType": "address",
          "name": "recipient",
          "type": "address"
        },
        {
          "indexed": false,
          "internalType": "uint16",
          "name": "bps",
          "type": "uint16"
        }
      ],
      "name": "DefaultRoyaltySet",
      "type": "event"
    },
    {
      "anonymous": false,
      "inputs": [
        {
          "indexed": false,
          "internalType": "uint8",
          "name": "version",
          "type": "uint8"
        }
      ],
      "name": "Initialized",
      "type": "event"
    },
    {
      "anonymous": false,
      "inputs": [
        {
          "indexed": true,
          "internalType": "address",
          "name": "previousOwner",
          "type": "address"
        },
        {
          "indexed": true,
          "internalType": "address",
          "name": "newOwner",
          "type": "address"
        }
      ],
      "name": "OwnershipTransferred",
      "type": "event"
    },
    {
      "anonymous": false,
      "inputs": [
        {
          "indexed": true,
          "internalType": "bytes32",
          "name": "role",
          "type": "bytes32"
        },
        {
          "indexed": true,
          "internalType": "bytes32",
          "name": "previousAdminRole",
          "type": "bytes32"
        },
        {
          "indexed": true,
          "internalType": "bytes32",
          "name": "newAdminRole",
          "type": "bytes32"
        }
      ],
      "name": "RoleAdminChanged",
      "type": "event"
    },
    {
      "anonymous": false,
      "inputs": [
        {
          "indexed": true,
          "internalType": "bytes32",
          "name": "role",
          "type": "bytes32"
        },
        {
          "indexed": true,
          "internalType": "address",
          "name": "account",
          "type": "address"
        },
        {
          "indexed": true,
          "internalType": "address",
          "name": "sender",
          "type": "address"
        }
      ],
      "name": "RoleGranted",
      "type": "event"
    },
    {
      "anonymous": false,
      "inputs": [
        {
          "indexed": true,
          "internalType": "bytes32",
          "name": "role",
          "type": "bytes32"
        },
        {
          "indexed": true,
          "internalType": "address",
          "name": "account",
          "type": "address"
        },
        {
          "indexed": true,
          "internalType": "address",
          "name": "sender",
          "type": "address"
        }
      ],
      "name": "RoleRevoked",
      "type": "event"
    },
    {
      "anonymous": false,
      "inputs": [
        {
          "indexed": false,
          "internalType": "uint256",
          "name": "tokenId",
          "type": "uint256"
        }
      ],
      "name": "TokenRoyaltyRemoved",
      "type": "event"
    },
    {
      "anonymous": false,
      "inputs": [
        {
          "indexed": false,
          "internalType": "uint256",
          "name": "tokenId",
          "type": "uint256"
        },
        {
          "indexed": false,
          "internalType": "address",
          "name": "recipient",
          "type": "address"
        },
        {
          "indexed": false,
          "internalType": "uint16",
          "name": "bps",
          "type": "uint16"
        }
      ],
      "name": "TokenRoyaltySet",
      "type": "event"
    },
    {
      "anonymous": false,
      "inputs": [
        {
          "indexed": true,
          "internalType": "address",
          "name": "from",
          "type": "address"
        },
        {
          "indexed": true,
          "internalType": "address",
          "name": "to",
          "type": "address"
        },
        {
          "indexed": true,
          "internalType": "uint256",
          "name": "tokenId",
          "type": "uint256"
        }
      ],
      "name": "Transfer",
      "type": "event"
    },
    {
      "inputs": [],
      "name": "DEFAULT_ADMIN_ROLE",
      "outputs": [
        {
          "internalType": "bytes32",
          "name": "",
          "type": "bytes32"
        }
      ],
      "stateMutability": "view",
      "type": "function"
    },
    {
      "inputs": [],
      "name": "LOCKER_ROLE",
      "outputs": [
        {
          "internalType": "bytes32",
          "name": "",
          "type": "bytes32"
        }
      ],
      "stateMutability": "view",
      "type": "function"
    },
    {
      "inputs": [],
      "name": "MINTER_ROLE",
      "outputs": [
        {
          "internalType": "bytes32",
          "name": "",
          "type": "bytes32"
        }
      ],
      "stateMutability": "view",
      "type": "function"
    },
    {
      "inputs": [],
      "name": "_trustedForwarder",
      "outputs": [
        {
          "internalType": "address",
          "name": "",
          "type": "address"
        }
      ],
      "stateMutability": "view",
      "type": "function"
    },
    {
      "inputs": [
        {
          "internalType": "address",
          "name": "to",
          "type": "address"
        },
        {
          "internalType": "uint256",
          "name": "tokenId",
          "type": "uint256"
        }
      ],
      "name": "approve",
      "outputs": [],
      "stateMutability": "nonpayable",
      "type": "function"
    },
    {
      "inputs": [
        {
          "internalType": "address",
          "name": "owner",
          "type": "address"
        }
      ],
      "name": "balanceOf",
      "outputs": [
        {
          "internalType": "uint256",
          "name": "",
          "type": "uint256"
        }
      ],
      "stateMutability": "view",
      "type": "function"
    },
    {
      "inputs": [],
      "name": "contractURI",
      "outputs": [
        {
          "internalType": "string",
          "name": "",
          "type": "string"
        }
      ],
      "stateMutability": "view",
      "type": "function"
    },
    {
      "inputs": [],
      "name": "defaultRoyalty",
      "outputs": [
        {
          "internalType": "address",
          "name": "recipient",
          "type": "address"
        },
        {
          "internalType": "uint16",
          "name": "bps",
          "type": "uint16"
        }
      ],
      "stateMutability": "view",
      "type": "function"
    },
    {
      "inputs": [],
      "name": "freezeMaxSupply",
      "outputs": [],
      "stateMutability": "nonpayable",
      "type": "function"
    },
    {
      "inputs": [],
      "name": "freezeTokenURI",
      "outputs": [],
      "stateMutability": "nonpayable",
      "type": "function"
    },
    {
      "inputs": [
        {
          "internalType": "uint256",
          "name": "tokenId",
          "type": "uint256"
        }
      ],
      "name": "getApproved",
      "outputs": [
        {
          "internalType": "address",
          "name": "",
          "type": "address"
        }
      ],
      "stateMutability": "view",
      "type": "function"
    },
    {
      "inputs": [],
      "name": "getInfo",
      "outputs": [
        {
          "internalType": "uint256",
          "name": "_maxSupply",
          "type": "uint256"
        },
        {
          "internalType": "uint256",
          "name": "_totalSupply",
          "type": "uint256"
        },
        {
          "internalType": "uint256",
          "name": "_senderBalance",
          "type": "uint256"
        },
        {
          "internalType": "uint256",
          "name": "_preSalePrice",
          "type": "uint256"
        },
        {
          "internalType": "uint256",
          "name": "_preSaleMaxMintPerWallet",
          "type": "uint256"
        },
        {
          "internalType": "uint256",
          "name": "_preSaleAlreadyClaimed",
          "type": "uint256"
        },
        {
          "internalType": "bool",
          "name": "_preSaleActive",
          "type": "bool"
        },
        {
          "internalType": "uint256",
          "name": "_publicSalePrice",
          "type": "uint256"
        },
        {
          "internalType": "uint256",
          "name": "_publicSaleMaxMintPerTx",
          "type": "uint256"
        },
        {
          "internalType": "bool",
          "name": "_publicSaleActive",
          "type": "bool"
        }
      ],
      "stateMutability": "view",
      "type": "function"
    },
    {
      "inputs": [
        {
          "internalType": "uint256",
          "name": "id",
          "type": "uint256"
        }
      ],
      "name": "getRaribleV2Royalties",
      "outputs": [
        {
          "components": [
            {
              "internalType": "address payable",
              "name": "account",
              "type": "address"
            },
            {
              "internalType": "uint96",
              "name": "value",
              "type": "uint96"
            }
          ],
          "internalType": "struct LibPart.Part[]",
          "name": "result",
          "type": "tuple[]"
        }
      ],
      "stateMutability": "view",
      "type": "function"
    },
    {
      "inputs": [
        {
          "internalType": "bytes32",
          "name": "role",
          "type": "bytes32"
        }
      ],
      "name": "getRoleAdmin",
      "outputs": [
        {
          "internalType": "bytes32",
          "name": "",
          "type": "bytes32"
        }
      ],
      "stateMutability": "view",
      "type": "function"
    },
    {
      "inputs": [],
      "name": "getTokenRoyaltiesCount",
      "outputs": [
        {
          "internalType": "uint256",
          "name": "",
          "type": "uint256"
        }
      ],
      "stateMutability": "view",
      "type": "function"
    },
    {
      "inputs": [
        {
          "internalType": "uint256",
          "name": "index",
          "type": "uint256"
        }
      ],
      "name": "getTokenRoyaltyByIndex",
      "outputs": [
        {
          "components": [
            {
              "internalType": "uint256",
              "name": "tokenId",
              "type": "uint256"
            },
            {
              "internalType": "address",
              "name": "recipient",
              "type": "address"
            },
            {
              "internalType": "uint16",
              "name": "bps",
              "type": "uint16"
            }
          ],
          "internalType": "struct IEIP2981RoyaltyOverride.TokenRoyaltyConfig",
          "name": "",
          "type": "tuple"
        }
      ],
      "stateMutability": "view",
      "type": "function"
    },
    {
      "inputs": [
        {
          "internalType": "bytes32",
          "name": "role",
          "type": "bytes32"
        },
        {
          "internalType": "address",
          "name": "account",
          "type": "address"
        }
      ],
      "name": "grantRole",
      "outputs": [],
      "stateMutability": "nonpayable",
      "type": "function"
    },
    {
      "inputs": [
        {
          "internalType": "bytes32",
          "name": "role",
          "type": "bytes32"
        },
        {
          "internalType": "address",
          "name": "account",
          "type": "address"
        }
      ],
      "name": "hasRole",
      "outputs": [
        {
          "internalType": "bool",
          "name": "",
          "type": "bool"
        }
      ],
      "stateMutability": "view",
      "type": "function"
    },
    {
      "inputs": [],
      "name": "hasRoleBasedLockableExtension",
      "outputs": [
        {
          "internalType": "bool",
          "name": "",
          "type": "bool"
        }
      ],
      "stateMutability": "view",
      "type": "function"
    },
    {
      "inputs": [
        {
          "components": [
            {
              "internalType": "string",
              "name": "name",
              "type": "string"
            },
            {
              "internalType": "string",
              "name": "symbol",
              "type": "string"
            },
            {
              "internalType": "string",
              "name": "contractURI",
              "type": "string"
            },
            {
              "internalType": "string",
              "name": "placeholderURI",
              "type": "string"
            },
            {
              "internalType": "string",
              "name": "tokenURIPrefix",
              "type": "string"
            },
            {
              "internalType": "uint256",
              "name": "maxSupply",
              "type": "uint256"
            },
            {
              "internalType": "uint256",
              "name": "preSalePrice",
              "type": "uint256"
            },
            {
              "internalType": "uint256",
              "name": "preSaleMaxMintPerWallet",
              "type": "uint256"
            },
            {
              "internalType": "uint256",
              "name": "publicSalePrice",
              "type": "uint256"
            },
            {
              "internalType": "uint256",
              "name": "publicSaleMaxMintPerTx",
              "type": "uint256"
            },
            {
              "internalType": "address",
              "name": "defaultRoyaltyAddress",
              "type": "address"
            },
            {
              "internalType": "uint16",
              "name": "defaultRoyaltyBps",
              "type": "uint16"
            },
            {
              "internalType": "address",
              "name": "proceedsRecipient",
              "type": "address"
            },
            {
              "internalType": "address",
              "name": "openSeaProxyRegistryAddress",
              "type": "address"
            },
            {
              "internalType": "address",
              "name": "openSeaExchangeAddress",
              "type": "address"
            },
            {
              "internalType": "address",
              "name": "trustedForwarder",
              "type": "address"
            }
          ],
          "internalType": "struct ERC721AFullFeaturedCollection.Config",
          "name": "config",
          "type": "tuple"
        },
        {
          "internalType": "address",
          "name": "deployer",
          "type": "address"
        }
      ],
      "name": "initialize",
      "outputs": [],
      "stateMutability": "nonpayable",
      "type": "function"
    },
    {
      "inputs": [
        {
          "internalType": "address",
          "name": "owner",
          "type": "address"
        },
        {
          "internalType": "address",
          "name": "operator",
          "type": "address"
        }
      ],
      "name": "isApprovedForAll",
      "outputs": [
        {
          "internalType": "bool",
          "name": "",
          "type": "bool"
        }
      ],
      "stateMutability": "view",
      "type": "function"
    },
    {
      "inputs": [
        {
          "internalType": "address",
          "name": "forwarder",
          "type": "address"
        }
      ],
      "name": "isTrustedForwarder",
      "outputs": [
        {
          "internalType": "bool",
          "name": "",
          "type": "bool"
        }
      ],
      "stateMutability": "view",
      "type": "function"
    },
    {
      "inputs": [
        {
          "internalType": "uint256[]",
          "name": "tokenIds",
          "type": "uint256[]"
        }
      ],
      "name": "lock",
      "outputs": [],
      "stateMutability": "nonpayable",
      "type": "function"
    },
    {
      "inputs": [],
      "name": "lockProceedsRecipient",
      "outputs": [],
      "stateMutability": "nonpayable",
      "type": "function"
    },
    {
      "inputs": [
        {
          "internalType": "uint256",
          "name": "tokenId",
          "type": "uint256"
        }
      ],
      "name": "locked",
      "outputs": [
        {
          "internalType": "bool",
          "name": "",
          "type": "bool"
        }
      ],
      "stateMutability": "view",
      "type": "function"
    },
    {
      "inputs": [],
      "name": "maxSupply",
      "outputs": [
        {
          "internalType": "uint256",
          "name": "",
          "type": "uint256"
        }
      ],
      "stateMutability": "view",
      "type": "function"
    },
    {
      "inputs": [],
      "name": "maxSupplyFrozen",
      "outputs": [
        {
          "internalType": "bool",
          "name": "",
          "type": "bool"
        }
      ],
      "stateMutability": "view",
      "type": "function"
    },
    {
      "inputs": [
        {
          "internalType": "address",
          "name": "to",
          "type": "address"
        },
        {
          "internalType": "uint256",
          "name": "count",
          "type": "uint256"
        }
      ],
      "name": "mintByOwner",
      "outputs": [],
      "stateMutability": "nonpayable",
      "type": "function"
    },
    {
      "inputs": [
        {
          "internalType": "address",
          "name": "to",
          "type": "address"
        },
        {
          "internalType": "uint256",
          "name": "count",
          "type": "uint256"
        }
      ],
      "name": "mintByRole",
      "outputs": [],
      "stateMutability": "nonpayable",
      "type": "function"
    },
    {
      "inputs": [
        {
          "internalType": "uint256",
          "name": "count",
          "type": "uint256"
        },
        {
          "internalType": "bytes32[]",
          "name": "proof",
          "type": "bytes32[]"
        }
      ],
      "name": "mintPreSale",
      "outputs": [],
      "stateMutability": "payable",
      "type": "function"
    },
    {
      "inputs": [
        {
          "internalType": "address",
          "name": "to",
          "type": "address"
        },
        {
          "internalType": "uint256",
          "name": "count",
          "type": "uint256"
        }
      ],
      "name": "mintPublicSale",
      "outputs": [],
      "stateMutability": "payable",
      "type": "function"
    },
    {
      "inputs": [],
      "name": "name",
      "outputs": [
        {
          "internalType": "string",
          "name": "",
          "type": "string"
        }
      ],
      "stateMutability": "view",
      "type": "function"
    },
    {
      "inputs": [
        {
          "internalType": "address",
          "name": "minter",
          "type": "address"
        },
        {
          "internalType": "bytes32[]",
          "name": "proof",
          "type": "bytes32[]"
        }
      ],
      "name": "onPreSaleAllowList",
      "outputs": [
        {
          "internalType": "bool",
          "name": "",
          "type": "bool"
        }
      ],
      "stateMutability": "view",
      "type": "function"
    },
    {
      "inputs": [],
      "name": "owner",
      "outputs": [
        {
          "internalType": "address",
          "name": "",
          "type": "address"
        }
      ],
      "stateMutability": "view",
      "type": "function"
    },
    {
      "inputs": [
        {
          "internalType": "uint256",
          "name": "tokenId",
          "type": "uint256"
        }
      ],
      "name": "ownerOf",
      "outputs": [
        {
          "internalType": "address",
          "name": "",
          "type": "address"
        }
      ],
      "stateMutability": "view",
      "type": "function"
    },
    {
      "inputs": [],
      "name": "placeholderURI",
      "outputs": [
        {
          "internalType": "string",
          "name": "",
          "type": "string"
        }
      ],
      "stateMutability": "view",
      "type": "function"
    },
    {
      "inputs": [],
      "name": "preSaleAllowlistMerkleRoot",
      "outputs": [
        {
          "internalType": "bytes32",
          "name": "",
          "type": "bytes32"
        }
      ],
      "stateMutability": "view",
      "type": "function"
    },
    {
      "inputs": [],
      "name": "preSaleMaxMintPerWallet",
      "outputs": [
        {
          "internalType": "uint256",
          "name": "",
          "type": "uint256"
        }
      ],
      "stateMutability": "view",
      "type": "function"
    },
    {
      "inputs": [],
      "name": "preSalePrice",
      "outputs": [
        {
          "internalType": "uint256",
          "name": "",
          "type": "uint256"
        }
      ],
      "stateMutability": "view",
      "type": "function"
    },
    {
      "inputs": [],
      "name": "preSaleStatus",
      "outputs": [
        {
          "internalType": "bool",
          "name": "",
          "type": "bool"
        }
      ],
      "stateMutability": "view",
      "type": "function"
    },
    {
      "inputs": [],
      "name": "proceedsRecipient",
      "outputs": [
        {
          "internalType": "address",
          "name": "",
          "type": "address"
        }
      ],
      "stateMutability": "view",
      "type": "function"
    },
    {
      "inputs": [],
      "name": "proceedsRecipientLocked",
      "outputs": [
        {
          "internalType": "bool",
          "name": "",
          "type": "bool"
        }
      ],
      "stateMutability": "view",
      "type": "function"
    },
    {
      "inputs": [],
      "name": "publicSaleMaxMintPerTx",
      "outputs": [
        {
          "internalType": "uint256",
          "name": "",
          "type": "uint256"
        }
      ],
      "stateMutability": "view",
      "type": "function"
    },
    {
      "inputs": [],
      "name": "publicSalePrice",
      "outputs": [
        {
          "internalType": "uint256",
          "name": "",
          "type": "uint256"
        }
      ],
      "stateMutability": "view",
      "type": "function"
    },
    {
      "inputs": [],
      "name": "publicSaleStatus",
      "outputs": [
        {
          "internalType": "bool",
          "name": "",
          "type": "bool"
        }
      ],
      "stateMutability": "view",
      "type": "function"
    },
    {
      "inputs": [],
      "name": "renounceOwnership",
      "outputs": [],
      "stateMutability": "nonpayable",
      "type": "function"
    },
    {
      "inputs": [
        {
          "internalType": "bytes32",
          "name": "role",
          "type": "bytes32"
        },
        {
          "internalType": "address",
          "name": "account",
          "type": "address"
        }
      ],
      "name": "renounceRole",
      "outputs": [],
      "stateMutability": "nonpayable",
      "type": "function"
    },
    {
      "inputs": [
        {
          "internalType": "bytes32",
          "name": "role",
          "type": "bytes32"
        },
        {
          "internalType": "address",
          "name": "account",
          "type": "address"
        }
      ],
      "name": "revokeRole",
      "outputs": [],
      "stateMutability": "nonpayable",
      "type": "function"
    },
    {
      "inputs": [
        {
          "internalType": "uint256",
          "name": "tokenId",
          "type": "uint256"
        },
        {
          "internalType": "uint256",
          "name": "value",
          "type": "uint256"
        }
      ],
      "name": "royaltyInfo",
      "outputs": [
        {
          "internalType": "address",
          "name": "",
          "type": "address"
        },
        {
          "internalType": "uint256",
          "name": "",
          "type": "uint256"
        }
      ],
      "stateMutability": "view",
      "type": "function"
    },
    {
      "inputs": [
        {
          "internalType": "address",
          "name": "from",
          "type": "address"
        },
        {
          "internalType": "address",
          "name": "to",
          "type": "address"
        },
        {
          "internalType": "uint256",
          "name": "tokenId",
          "type": "uint256"
        }
      ],
      "name": "safeTransferFrom",
      "outputs": [],
      "stateMutability": "nonpayable",
      "type": "function"
    },
    {
      "inputs": [
        {
          "internalType": "address",
          "name": "from",
          "type": "address"
        },
        {
          "internalType": "address",
          "name": "to",
          "type": "address"
        },
        {
          "internalType": "uint256",
          "name": "tokenId",
          "type": "uint256"
        },
        {
          "internalType": "bytes",
          "name": "_data",
          "type": "bytes"
        }
      ],
      "name": "safeTransferFrom",
      "outputs": [],
      "stateMutability": "nonpayable",
      "type": "function"
    },
    {
      "inputs": [
        {
          "internalType": "bytes32",
          "name": "newRoot",
          "type": "bytes32"
        }
      ],
      "name": "setAllowlistMerkleRoot",
      "outputs": [],
      "stateMutability": "nonpayable",
      "type": "function"
    },
    {
      "inputs": [
        {
          "internalType": "address",
          "name": "operator",
          "type": "address"
        },
        {
          "internalType": "bool",
          "name": "approved",
          "type": "bool"
        }
      ],
      "name": "setApprovalForAll",
      "outputs": [],
      "stateMutability": "nonpayable",
      "type": "function"
    },
    {
      "inputs": [
        {
          "internalType": "string",
          "name": "newValue",
          "type": "string"
        }
      ],
      "name": "setContractURI",
      "outputs": [],
      "stateMutability": "nonpayable",
      "type": "function"
    },
    {
      "inputs": [
        {
          "components": [
            {
              "internalType": "address",
              "name": "recipient",
              "type": "address"
            },
            {
              "internalType": "uint16",
              "name": "bps",
              "type": "uint16"
            }
          ],
          "internalType": "struct IEIP2981RoyaltyOverride.TokenRoyalty",
          "name": "royalty",
          "type": "tuple"
        }
      ],
      "name": "setDefaultRoyalty",
      "outputs": [],
      "stateMutability": "nonpayable",
      "type": "function"
    },
    {
      "inputs": [
        {
          "internalType": "uint256",
          "name": "newValue",
          "type": "uint256"
        }
      ],
      "name": "setMaxSupply",
      "outputs": [],
      "stateMutability": "nonpayable",
      "type": "function"
    },
    {
      "inputs": [
        {
          "internalType": "address",
          "name": "addr",
          "type": "address"
        }
      ],
      "name": "setOpenSeaExchangeAddress",
      "outputs": [],
      "stateMutability": "nonpayable",
      "type": "function"
    },
    {
      "inputs": [
        {
          "internalType": "address",
          "name": "addr",
          "type": "address"
        }
      ],
      "name": "setOpenSeaProxyRegistryAddress",
      "outputs": [],
      "stateMutability": "nonpayable",
      "type": "function"
    },
    {
      "inputs": [
        {
          "internalType": "string",
          "name": "newValue",
          "type": "string"
        }
      ],
      "name": "setPlaceholderURI",
      "outputs": [],
      "stateMutability": "nonpayable",
      "type": "function"
    },
    {
      "inputs": [
        {
          "internalType": "uint256",
          "name": "newValue",
          "type": "uint256"
        }
      ],
      "name": "setPreSaleMaxMintPerWallet",
      "outputs": [],
      "stateMutability": "nonpayable",
      "type": "function"
    },
    {
      "inputs": [
        {
          "internalType": "uint256",
          "name": "newValue",
          "type": "uint256"
        }
      ],
      "name": "setPreSalePrice",
      "outputs": [],
      "stateMutability": "nonpayable",
      "type": "function"
    },
    {
      "inputs": [
        {
          "internalType": "address",
          "name": "_proceedsRecipient",
          "type": "address"
        }
      ],
      "name": "setProceedsRecipient",
      "outputs": [],
      "stateMutability": "nonpayable",
      "type": "function"
    },
    {
      "inputs": [
        {
          "internalType": "uint256",
          "name": "newValue",
          "type": "uint256"
        }
      ],
      "name": "setPublicSaleMaxMintPerTx",
      "outputs": [],
      "stateMutability": "nonpayable",
      "type": "function"
    },
    {
      "inputs": [
        {
          "internalType": "uint256",
          "name": "newValue",
          "type": "uint256"
        }
      ],
      "name": "setPublicSalePrice",
      "outputs": [],
      "stateMutability": "nonpayable",
      "type": "function"
    },
    {
      "inputs": [
        {
          "components": [
            {
              "internalType": "uint256",
              "name": "tokenId",
              "type": "uint256"
            },
            {
              "internalType": "address",
              "name": "recipient",
              "type": "address"
            },
            {
              "internalType": "uint16",
              "name": "bps",
              "type": "uint16"
            }
          ],
          "internalType": "struct IEIP2981RoyaltyOverride.TokenRoyaltyConfig[]",
          "name": "royaltyConfigs",
          "type": "tuple[]"
        }
      ],
      "name": "setTokenRoyalties",
      "outputs": [],
      "stateMutability": "nonpayable",
      "type": "function"
    },
    {
      "inputs": [
        {
          "internalType": "string",
          "name": "newValue",
          "type": "string"
        }
      ],
      "name": "setTokenURIPrefix",
      "outputs": [],
      "stateMutability": "nonpayable",
      "type": "function"
    },
    {
      "inputs": [
        {
          "internalType": "string",
          "name": "newValue",
          "type": "string"
        }
      ],
      "name": "setTokenURISuffix",
      "outputs": [],
      "stateMutability": "nonpayable",
      "type": "function"
    },
    {
      "inputs": [
        {
          "internalType": "address",
          "name": "trustedForwarder",
          "type": "address"
        }
      ],
      "name": "setTrustedForwarder",
      "outputs": [],
      "stateMutability": "nonpayable",
      "type": "function"
    },
    {
      "inputs": [
        {
          "internalType": "bytes4",
          "name": "interfaceId",
          "type": "bytes4"
        }
      ],
      "name": "supportsInterface",
      "outputs": [
        {
          "internalType": "bool",
          "name": "",
          "type": "bool"
        }
      ],
      "stateMutability": "view",
      "type": "function"
    },
    {
      "inputs": [],
      "name": "symbol",
      "outputs": [
        {
          "internalType": "string",
          "name": "",
          "type": "string"
        }
      ],
      "stateMutability": "view",
      "type": "function"
    },
    {
      "inputs": [
        {
          "internalType": "bool",
          "name": "isActive",
          "type": "bool"
        }
      ],
      "name": "togglePreSaleStatus",
      "outputs": [],
      "stateMutability": "nonpayable",
      "type": "function"
    },
    {
      "inputs": [
        {
          "internalType": "bool",
          "name": "isActive",
          "type": "bool"
        }
      ],
      "name": "togglePublicSaleStatus",
      "outputs": [],
      "stateMutability": "nonpayable",
      "type": "function"
    },
    {
      "inputs": [
        {
          "internalType": "uint256",
          "name": "_tokenId",
          "type": "uint256"
        }
      ],
      "name": "tokenURI",
      "outputs": [
        {
          "internalType": "string",
          "name": "",
          "type": "string"
        }
      ],
      "stateMutability": "view",
      "type": "function"
    },
    {
      "inputs": [],
      "name": "tokenURIFrozen",
      "outputs": [
        {
          "internalType": "bool",
          "name": "",
          "type": "bool"
        }
      ],
      "stateMutability": "view",
      "type": "function"
    },
    {
      "inputs": [],
      "name": "tokenURIPrefix",
      "outputs": [
        {
          "internalType": "string",
          "name": "",
          "type": "string"
        }
      ],
      "stateMutability": "view",
      "type": "function"
    },
    {
      "inputs": [],
      "name": "tokenURISuffix",
      "outputs": [
        {
          "internalType": "string",
          "name": "",
          "type": "string"
        }
      ],
      "stateMutability": "view",
      "type": "function"
    },
    {
      "inputs": [],
      "name": "totalSupply",
      "outputs": [
        {
          "internalType": "uint256",
          "name": "",
          "type": "uint256"
        }
      ],
      "stateMutability": "view",
      "type": "function"
    },
    {
      "inputs": [
        {
          "internalType": "address",
          "name": "from",
          "type": "address"
        },
        {
          "internalType": "address",
          "name": "to",
          "type": "address"
        },
        {
          "internalType": "uint256",
          "name": "tokenId",
          "type": "uint256"
        }
      ],
      "name": "transferFrom",
      "outputs": [],
      "stateMutability": "nonpayable",
      "type": "function"
    },
    {
      "inputs": [
        {
          "internalType": "address",
          "name": "newOwner",
          "type": "address"
        }
      ],
      "name": "transferOwnership",
      "outputs": [],
      "stateMutability": "nonpayable",
      "type": "function"
    },
    {
      "inputs": [
        {
          "internalType": "uint256[]",
          "name": "tokenIds",
          "type": "uint256[]"
        }
      ],
      "name": "unlock",
      "outputs": [],
      "stateMutability": "nonpayable",
      "type": "function"
    },
    {
      "inputs": [],
      "name": "withdraw",
      "outputs": [],
      "stateMutability": "nonpayable",
      "type": "function"
    }
  ],
  "transactionHash": "0x6246bbe8e5e76bdcbd293e2522971d8b52e8895d7174466a855a84b4f3648f8b",
  "args": [
    {
      "name": "Collection",
      "symbol": "COL",
      "contractURI": "ipfs://contractURI",
      "placeholderURI": "ipfs://placeholderURI",
      "tokenURIPrefix": "ipfs://tokenURIPrefix/",
      "maxSupply": 0,
      "preSalePrice": 0,
      "preSaleMaxMintPerWallet": 0,
      "publicSalePrice": 0,
      "publicSaleMaxMintPerTx": 10,
      "defaultRoyaltyAddress": "0x0000000000000000000000000000000000000000",
      "defaultRoyaltyBps": 0,
      "proceedsRecipient": "0x0000000000000000000000000000000000000000",
      "openSeaProxyRegistryAddress": "0x0000000000000000000000000000000000000000",
      "openSeaExchangeAddress": "0x0000000000000000000000000000000000000000",
      "trustedForwarder": "0x0000000000000000000000000000000000000000"
    }
  ],
  "numDeployments": 8,
  "solcInputHash": "a84f1fb15c0a559568857f55aefac1fb",
  "bytecode": "0x60806040523480156200001157600080fd5b5060405162005da038038062005da0833981016040819052620000349162000e32565b805160208201516200004f620000496200009a565b620000b6565b81516200006490600490602085019062000c57565b5080516200007a90600590602084019062000c57565b5060006002555050600160145562000093813362000111565b50620010d3565b6000620000b16200028460201b620026d81760201c565b905090565b600080546001600160a01b038381166201000081810262010000600160b01b0319851617855560405193049190911692909183917f8be0079c531659141344cd1fd0a4f28419497f9722a3daafe3b4186f6b6457e091a35050565b60006200011f6001620002bd565b9050801562000138576000805461ff0019166101001790555b620001456000836200036f565b6200015082620000b6565b825160208401516040850151620001699291906200037f565b6200018383606001518460800151620003b660201b60201c565b60a08301516200019390620003ec565b6200019d62000424565b620001a8826200045a565b620001c28360c001518460e001516200048f60201b60201c565b620001de836101000151846101200151620004d660201b60201c565b610180830151620001ef906200050c565b6200020b8361014001518461016001516200054160201b60201c565b62000227836101a00151846101c001516200057760201b60201c565b6101e08301516200023890620005ad565b80156200027f576000805461ff0019169055604051600181527f7f26b83ff96e1f2b6a682f133852f6798a09c465da95921460cefb38474024989060200160405180910390a15b505050565b600a546000906001600160a01b0316331415620002a8575060131936013560601c90565b620000b1620005e260201b620026fa1760201c565b60008054610100900460ff161562000326578160ff166001148015620002f65750620002f430620005e660201b620026fe1760201c565b155b6200031e5760405162461bcd60e51b8152600401620003159062000ffd565b60405180910390fd5b506000919050565b60005460ff808416911610620003505760405162461bcd60e51b8152600401620003159062000ffd565b506000805460ff191660ff92909216919091179055600190565b919050565b6200037b8282620005f5565b5050565b600054610100900460ff16620003a95760405162461bcd60e51b815260040162000315906200104b565b6200027f8383836200069b565b600054610100900460ff16620003e05760405162461bcd60e51b815260040162000315906200104b565b6200037b82826200073d565b600054610100900460ff16620004165760405162461bcd60e51b815260040162000315906200104b565b6200042181620007e6565b50565b600054610100900460ff166200044e5760405162461bcd60e51b815260040162000315906200104b565b620004586200084b565b565b600054610100900460ff16620004845760405162461bcd60e51b815260040162000315906200104b565b620004218162000887565b600054610100900460ff16620004b95760405162461bcd60e51b815260040162000315906200104b565b620004cb63209680f760e11b620008ef565b601591909155601655565b600054610100900460ff16620005005760405162461bcd60e51b815260040162000315906200104b565b6200037b828262000973565b600054610100900460ff16620005365760405162461bcd60e51b815260040162000315906200104b565b6200042181620009ba565b600054610100900460ff166200056b5760405162461bcd60e51b815260040162000315906200104b565b6200037b828262000a1e565b600054610100900460ff16620005a15760405162461bcd60e51b815260040162000315906200104b565b6200037b828262000abb565b600054610100900460ff16620005d75760405162461bcd60e51b815260040162000315906200104b565b620004218162000b25565b3390565b6001600160a01b03163b151590565b6000828152601e602090815260408083206001600160a01b038516845290915290205460ff166200037b576000828152601e602090815260408083206001600160a01b03851684529091529020805460ff19166001179055620006576200009a565b6001600160a01b0316816001600160a01b0316837f2f8788117e7eff1d82e926ec794901d17c78024a50270940304540a733656f0d60405160405180910390a45050565b600054610100900460ff16620006c55760405162461bcd60e51b815260040162000315906200104b565b8251620006da90600b90602086019062000c57565b508151620006f090600c90602085019062000c57565b5080516200070690600d90602084019062000c57565b5062000719633d96f4ff60e11b620008ef565b6200072b6380ac58cd60e01b620008ef565b6200027f635b5e139f60e01b620008ef565b600054610100900460ff16620007675760405162461bcd60e51b815260040162000315906200104b565b81516200077c90600e90602085019062000c57565b5080516200079290600f90602084019062000c57565b5060408051808201909152600580825264173539b7b760d91b6020909201918252620007c19160109162000c57565b50620007d4631f2f406b60e01b620008ef565b6200037b635b5e139f60e01b620008ef565b600054610100900460ff16620008105760405162461bcd60e51b815260040162000315906200104b565b6012819055620008276330f487b560e11b620008ef565b620008396380ac58cd60e01b620008ef565b6200042163184371e560e31b620008ef565b600054610100900460ff16620008755760405162461bcd60e51b815260040162000315906200104b565b62000458631aa1577160e11b620008ef565b600054610100900460ff16620008b15760405162461bcd60e51b815260040162000315906200104b565b620008c3631a056e7160e01b620008ef565b620004217f9f2df0fed2c77648de5860a4cc508cd0818c85b8b8a1ab4ceeef8d981c8956a6826200036f565b6001600160e01b031980821614156200094b5760405162461bcd60e51b815260206004820152601c60248201527f4552433136353a20696e76616c696420696e7465726661636520696400000000604482015260640162000315565b6001600160e01b0319166000908152600160208190526040909120805460ff19169091179055565b600054610100900460ff166200099d5760405162461bcd60e51b815260040162000315906200104b565b620009af6317e0bac360e31b620008ef565b601a91909155601b55565b600054610100900460ff16620009e45760405162461bcd60e51b815260040162000315906200104b565b620009f663e2b3173560e01b620008ef565b601c80546001600160a01b0390921661010002610100600160a81b0319909216919091179055565b600054610100900460ff1662000a485760405162461bcd60e51b815260040162000315906200104b565b62000a5a633a47bf5160e11b620008ef565b62000a6c63152a902d60e11b620008ef565b62000a7e63c69dbd8f60e01b620008ef565b62000a9063656cb66560e11b620008ef565b604080518082019091526001600160a01b038316815261ffff821660208201526200027f8162000b71565b600054610100900460ff1662000ae55760405162461bcd60e51b815260040162000315906200104b565b62000af7638d29851f60e01b620008ef565b602380546001600160a01b039384166001600160a01b03199182161790915560248054929093169116179055565b600054610100900460ff1662000b4f5760405162461bcd60e51b815260040162000315906200104b565b600a80546001600160a01b0319166001600160a01b0392909216919091179055565b612710816020015161ffff161062000bba5760405162461bcd60e51b815260206004820152600b60248201526a496e76616c69642062707360a81b604482015260640162000315565b60408051808201825282516001600160a01b03168082526020808501805161ffff1691909301819052601f8054600160a01b9092026001600160b01b03199092169092171790558251905191517f2c5ea6e4103e78cb101e796fb2dace540362fc542cbff5145eaa24af7dd8fe419262000c4c92916001600160a01b0392909216825261ffff16602082015260400190565b60405180910390a150565b82805462000c659062001096565b90600052602060002090601f01602090048101928262000c89576000855562000cd4565b82601f1062000ca457805160ff191683800117855562000cd4565b8280016001018555821562000cd4579182015b8281111562000cd457825182559160200191906001019062000cb7565b5062000ce292915062000ce6565b5090565b5b8082111562000ce2576000815560010162000ce7565b634e487b7160e01b600052604160045260246000fd5b60405161020081016001600160401b038111828210171562000d395762000d3962000cfd565b60405290565b604051601f8201601f191681016001600160401b038111828210171562000d6a5762000d6a62000cfd565b604052919050565b600082601f83011262000d8457600080fd5b81516001600160401b0381111562000da05762000da062000cfd565b602062000db6601f8301601f1916820162000d3f565b828152858284870101111562000dcb57600080fd5b60005b8381101562000deb57858101830151828201840152820162000dce565b8381111562000dfd5760008385840101525b5095945050505050565b80516001600160a01b03811681146200036a57600080fd5b805161ffff811681146200036a57600080fd5b60006020828403121562000e4557600080fd5b81516001600160401b038082111562000e5d57600080fd5b90830190610200828603121562000e7357600080fd5b62000e7d62000d13565b82518281111562000e8d57600080fd5b62000e9b8782860162000d72565b82525060208301518281111562000eb157600080fd5b62000ebf8782860162000d72565b60208301525060408301518281111562000ed857600080fd5b62000ee68782860162000d72565b60408301525060608301518281111562000eff57600080fd5b62000f0d8782860162000d72565b60608301525060808301518281111562000f2657600080fd5b62000f348782860162000d72565b60808301525060a0838101519082015260c0808401519082015260e0808401519082015261010080840151908201526101208084015190820152610140915062000f8082840162000e07565b82820152610160915062000f9682840162000e1f565b82820152610180915062000fac82840162000e07565b828201526101a0915062000fc282840162000e07565b828201526101c0915062000fd882840162000e07565b828201526101e0915062000fee82840162000e07565b91810191909152949350505050565b6020808252602e908201527f496e697469616c697a61626c653a20636f6e747261637420697320616c72656160408201526d191e481a5b9a5d1a585b1a5e995960921b606082015260800190565b6020808252602b908201527f496e697469616c697a61626c653a20636f6e7472616374206973206e6f74206960408201526a6e697469616c697a696e6760a81b606082015260800190565b600181811c90821680620010ab57607f821691505b60208210811415620010cd57634e487b7160e01b600052602260045260246000fd5b50919050565b614cbd80620010e36000396000f3fe60806040526004361061038e5760003560e01c806301ffc9a7146103935780630653aca5146103c857806306fdde0314610417578063081812fc1461043957806308abf02614610466578063095ea7b31461048857806316744607146104a857806318160ddd146104bd5780631a056e71146104e057806323b872dd14610500578063248a9ca3146105205780632a55205a146105405780632d8e85b01461057f5780632f2ff15d1461059f57806331db3832146105bf5780633542aee2146105d45780633574a2dd146105f457806336568abe146106145780633acf404d146106345780633c0e8f2c1461064a5780633ccfd60b1461066a57806342842e0e1461067f578063464bd6401461069f5780634972471c146106b95780634f972f5f146106da5780635136dcc7146106fa57806356c022bb1461071a578063572b6c051461073a5780635a9b0b891461075a5780635d36598f146107bd5780636352211e146107dd5780636c079cfc146107fd5780636f8b44b01461081d57806370a082311461083d578063714ad8e71461085d578063715018a6146108715780637313cba9146108865780637885fdc71461089b578063791a2519146108d65780637d7eee42146108f65780637e98034214610916578063859610c61461092b5780638a4278ab1461094b5780638da5cb5b1461096b57806391d1485414610980578063938e3d7b146109a057806395d89b41146109c057806399e0dd7c146109d55780639b6860c8146109f55780639e6b2c5b14610a0b578063a217fddf14610a1e578063a22cb46514610a33578063a304ee7614610a53578063a9852bfb14610a78578063aaeaca4814610a98578063b27c6f2d14610aae578063b45a3c0e14610ac4578063b6c693e514610ae4578063b88d4fde14610afe578063ba4695fd14610b1e578063c0ac998314610b33578063c29de63014610b48578063c87b56dd14610b62578063cad96cca14610b82578063d539139314610baf578063d547741f14610bd1578063d5abeb0114610bf1578063d79ff99d14610c07578063da74222814610c1a578063dbbc853b14610c3a578063e3b9a7e514610c4f578063e757c17d14610c6f578063e8a3d48514610c85578063e985e9c514610c9a578063ef60ceaf14610cba578063efa7f90c14610cda578063f2fde38b14610cfa578063f362136714610d1a578063f384702f14610d3c578063f74bbf5914610d56578063f95df41414610d76575b600080fd5b34801561039f57600080fd5b506103b36103ae366004613eda565b610d96565b60405190151581526020015b60405180910390f35b3480156103d457600080fd5b506103e86103e3366004613ef7565b610da7565b60408051825181526020808401516001600160a01b0316908201529181015161ffff16908201526060016103bf565b34801561042357600080fd5b5061042c610e2a565b6040516103bf9190613f68565b34801561044557600080fd5b50610459610454366004613ef7565b610e39565b6040516103bf9190613f7b565b34801561047257600080fd5b50610486610481366004613faf565b610e7d565b005b34801561049457600080fd5b506104866104a3366004613fcc565b610ee7565b3480156104b457600080fd5b50610486610f87565b3480156104c957600080fd5b50600354600254035b6040519081526020016103bf565b3480156104ec57600080fd5b506104866104fb366004613fcc565b610fd5565b34801561050c57600080fd5b5061048661051b366004613ff8565b61103b565b34801561052c57600080fd5b506104d261053b366004613ef7565b6111c7565b34801561054c57600080fd5b5061056061055b366004614039565b6111dc565b604080516001600160a01b0390931683526020830191909152016103bf565b34801561058b57600080fd5b5061048661059a36600461406b565b61129f565b3480156105ab57600080fd5b506104866105ba366004614086565b6112f1565b3480156105cb57600080fd5b50610486611312565b3480156105e057600080fd5b506104866105ef366004613fcc565b611390565b34801561060057600080fd5b5061048661060f36600461418a565b6113cf565b34801561062057600080fd5b5061048661062f366004614086565b611421565b34801561064057600080fd5b506104d260175481565b34801561065657600080fd5b50610486610665366004613ef7565b6114ab565b34801561067657600080fd5b506104866114ef565b34801561068b57600080fd5b5061048661069a366004613ff8565b611581565b3480156106ab57600080fd5b506018546103b39060ff1681565b3480156106c557600080fd5b50601c546103b390600160a81b900460ff1681565b3480156106e657600080fd5b506104866106f536600461406b565b61159c565b34801561070657600080fd5b506104866107153660046141be565b6115ee565b34801561072657600080fd5b50600a54610459906001600160a01b031681565b34801561074657600080fd5b506103b3610755366004613faf565b611688565b34801561076657600080fd5b5061076f61169c565b604080519a8b5260208b0199909952978901969096526060880194909452608087019290925260a0860152151560c085015260e08401526101008301521515610120820152610140016103bf565b3480156107c957600080fd5b506104866107d8366004614276565b61182b565b3480156107e957600080fd5b506104596107f8366004613ef7565b6118cf565b34801561080957600080fd5b50610486610818366004613faf565b6118da565b34801561082957600080fd5b50610486610838366004613ef7565b61193b565b34801561084957600080fd5b506104d2610858366004613faf565b6119c4565b34801561086957600080fd5b5060016103b3565b34801561087d57600080fd5b50610486611a12565b34801561089257600080fd5b5061042c611a5d565b3480156108a757600080fd5b50601f546108c8906001600160a01b03811690600160a01b900461ffff1682565b6040516103bf9291906142b7565b3480156108e257600080fd5b506104866108f1366004613ef7565b611aef565b34801561090257600080fd5b50610486610911366004613ef7565b611b33565b34801561092257600080fd5b506104d2611b77565b34801561093757600080fd5b50610486610946366004614276565b611b83565b34801561095757600080fd5b506104866109663660046142e6565b611c1d565b34801561097757600080fd5b50610459611d50565b34801561098c57600080fd5b506103b361099b366004614086565b611d65565b3480156109ac57600080fd5b506104866109bb36600461418a565b611d90565b3480156109cc57600080fd5b5061042c611de2565b3480156109e157600080fd5b506104866109f036600461418a565b611dec565b348015610a0157600080fd5b506104d2601a5481565b610486610a193660046144a2565b611e61565b348015610a2a57600080fd5b506104d2600081565b348015610a3f57600080fd5b50610486610a4e3660046144ed565b61203f565b348015610a5f57600080fd5b50601c546104599061010090046001600160a01b031681565b348015610a8457600080fd5b50610486610a9336600461418a565b6120d5565b348015610aa457600080fd5b506104d260165481565b348015610aba57600080fd5b506104d2601b5481565b348015610ad057600080fd5b506103b3610adf366004613ef7565b61214a565b348015610af057600080fd5b50601c546103b39060ff1681565b348015610b0a57600080fd5b50610486610b19366004614519565b612157565b348015610b2a57600080fd5b506104866121a1565b348015610b3f57600080fd5b5061042c6121ef565b348015610b5457600080fd5b506011546103b39060ff1681565b348015610b6e57600080fd5b5061042c610b7d366004613ef7565b6121fe565b348015610b8e57600080fd5b50610ba2610b9d366004613ef7565b612209565b6040516103bf9190614598565b348015610bbb57600080fd5b506104d2600080516020614c2883398151915281565b348015610bdd57600080fd5b50610486610bec366004614086565b6122c4565b348015610bfd57600080fd5b506104d260125481565b610486610c15366004613fcc565b6122e0565b348015610c2657600080fd5b50610486610c35366004613faf565b6123d9565b348015610c4657600080fd5b5061042c61243a565b348015610c5b57600080fd5b506103b3610c6a3660046145f9565b612449565b348015610c7b57600080fd5b506104d260155481565b348015610c9157600080fd5b5061042c612497565b348015610ca657600080fd5b506103b3610cb5366004614634565b6124a6565b348015610cc657600080fd5b50610486610cd5366004614662565b6124b9565b348015610ce657600080fd5b50610486610cf5366004613faf565b612512565b348015610d0657600080fd5b50610486610d15366004613faf565b6125a3565b348015610d2657600080fd5b506104d2600080516020614c6883398151915281565b348015610d4857600080fd5b506013546103b39060ff1681565b348015610d6257600080fd5b50610486610d71366004613ef7565b612650565b348015610d8257600080fd5b50610486610d91366004613ef7565b612694565b6000610da18261270d565b92915050565b6040805160608101825260008082526020820181905291810182905290610dcf602184612749565b600081815260208080526040918290208251808401845290546001600160a01b03808216835261ffff600160a01b90920482168385019081528551606081018752968752925116928501929092525116908201529392505050565b6060610e34612755565b905090565b6000610e4482612764565b610e61576040516333d1c03960e21b815260040160405180910390fd5b506000908152600860205260409020546001600160a01b031690565b610e8561278c565b6001600160a01b0316610e96611d50565b6001600160a01b031614610ec55760405162461bcd60e51b8152600401610ebc9061467a565b60405180910390fd5b602380546001600160a01b0319166001600160a01b0392909216919091179055565b6000610ef2826118cf565b9050336001600160a01b03821614610f2b57610f0e81336124a6565b610f2b576040516367d9dca160e11b815260040160405180910390fd5b60008281526008602052604080822080546001600160a01b0319166001600160a01b0387811691821790925591518593918516917f8c5be1e5ebec7d5bd14f71427d1e84f3dd0314c0f7b2291e5b200ac8c7c3b92591a4505050565b610f8f61278c565b6001600160a01b0316610fa0611d50565b6001600160a01b031614610fc65760405162461bcd60e51b8152600401610ebc9061467a565b6013805460ff19166001179055565b610fef600080516020614c2883398151915261099b61278c565b61102d5760405162461bcd60e51b815260206004820152600f60248201526e4e4f545f4d494e5445525f524f4c4560881b6044820152606401610ebc565b6110378282612796565b5050565b6000611046826127fe565b9050836001600160a01b0316816001600160a01b0316146110795760405162a1148160e81b815260040160405180910390fd5b60008281526008602052604090208054338082146001600160a01b038816909114176110c6576110a986336124a6565b6110c657604051632ce44b5f60e11b815260040160405180910390fd5b6001600160a01b0385166110ed57604051633a954ecd60e21b815260040160405180910390fd5b6110fa868686600161285f565b801561110557600082555b6001600160a01b0386811660009081526007602052604080822080546000190190559187168152208054600101905561114285600160e11b61286b565b600085815260066020526040902055600160e11b8316611190576001840160008181526006602052604090205461118e57600254811461118e5760008181526006602052604090208490555b505b83856001600160a01b0316876001600160a01b0316600080516020614c4883398151915260405160405180910390a4505050505050565b6000908152601e602052604090206001015490565b600082815260208052604081205481906001600160a01b03161561123f5760008481526020805260409020546001600160a01b038116906127109061122c90600160a01b900461ffff16866146c5565b61123691906146fa565b91509150611298565b601f546001600160a01b0316158015906112655750601f54600160a01b900461ffff1615155b1561129157601f546001600160a01b038116906127109061122c90600160a01b900461ffff16866146c5565b5060009050805b9250929050565b6112a761278c565b6001600160a01b03166112b8611d50565b6001600160a01b0316146112de5760405162461bcd60e51b8152600401610ebc9061467a565b601c805460ff1916911515919091179055565b6112fa826111c7565b61130381612880565b61130d8383612891565b505050565b61131a61278c565b6001600160a01b031661132b611d50565b6001600160a01b0316146113515760405162461bcd60e51b8152600401610ebc9061467a565b601c54600160a81b900460ff161561137b5760405162461bcd60e51b8152600401610ebc9061470e565b601c805460ff60a81b1916600160a81b179055565b61139861278c565b6001600160a01b03166113a9611d50565b6001600160a01b03161461102d5760405162461bcd60e51b8152600401610ebc9061467a565b6113d761278c565b6001600160a01b03166113e8611d50565b6001600160a01b03161461140e5760405162461bcd60e51b8152600401610ebc9061467a565b805161103790600e906020840190613e2b565b61142961278c565b6001600160a01b0316816001600160a01b0316146114a15760405162461bcd60e51b815260206004820152602f60248201527f416363657373436f6e74726f6c3a2063616e206f6e6c792072656e6f756e636560448201526e103937b632b9903337b91039b2b63360891b6064820152608401610ebc565b6110378282612918565b6114b361278c565b6001600160a01b03166114c4611d50565b6001600160a01b0316146114ea5760405162461bcd60e51b8152600401610ebc9061467a565b601b55565b601c5461010090046001600160a01b03166115425760405162461bcd60e51b8152602060048201526013602482015272115490cdcc8c4bd393d7d49150d25412515395606a1b6044820152606401610ebc565b601c54604051479161010090046001600160a01b0316906108fc8315029083906000818181858888f19350505050158015611037573d6000803e3d6000fd5b61130d83838360405180602001604052806000815250612157565b6115a461278c565b6001600160a01b03166115b5611d50565b6001600160a01b0316146115db5760405162461bcd60e51b8152600401610ebc9061467a565b6018805460ff1916911515919091179055565b6115f661278c565b6001600160a01b0316611607611d50565b6001600160a01b03161461162d5760405162461bcd60e51b8152600401610ebc9061467a565b6110378282808060200260200160405190810160405280939291908181526020016000905b8282101561167e5761166f6060830286013681900381019061473f565b81526020019060010190611652565b505050505061299d565b600a546001600160a01b0391821691161490565b600080808080808080808080806116b161278c565b6001600160a01b03161461173c57306370a082316116cd61278c565b6040518263ffffffff1660e01b81526004016116e99190613f7b565b60206040518083038186803b15801561170157600080fd5b505afa158015611715573d6000803e3d6000fd5b505050506040513d601f19601f8201168201806040525081019061173991906147a5565b90505b601254306001600160a01b03166318160ddd6040518163ffffffff1660e01b815260040160206040518083038186803b15801561177857600080fd5b505afa15801561178c573d6000803e3d6000fd5b505050506040513d601f19601f820116820180604052508101906117b091906147a5565b82601554601654601960006117c361278c565b6001600160a01b03166001600160a01b0316815260200190815260200160002054601860009054906101000a900460ff16601a54601b54601c60009054906101000a900460ff169a509a509a509a509a509a509a509a509a509a505090919293949596979899565b6002601454141561184e5760405162461bcd60e51b8152600401610ebc906147be565b600260145561186b600080516020614c6883398151915233611d65565b6118875760405162461bcd60e51b8152600401610ebc906147f5565b60005b818110156118c5576118b38383838181106118a7576118a761482c565b90506020020135612b41565b806118bd81614842565b91505061188a565b5050600160145550565b6000610da1826127fe565b6118e261278c565b6001600160a01b03166118f3611d50565b6001600160a01b0316146119195760405162461bcd60e51b8152600401610ebc9061467a565b602480546001600160a01b0319166001600160a01b0392909216919091179055565b61194361278c565b6001600160a01b0316611954611d50565b6001600160a01b03161461197a5760405162461bcd60e51b8152600401610ebc9061467a565b60135460ff16156119bf5760405162461bcd60e51b815260206004820152600f60248201526e2120a9a2afaaa924afa32927ad22a760891b6044820152606401610ebc565b601255565b60006001600160a01b0382166119ed576040516323d3ad8160e21b815260040160405180910390fd5b506001600160a01b03166000908152600760205260409020546001600160401b031690565b611a1a61278c565b6001600160a01b0316611a2b611d50565b6001600160a01b031614611a515760405162461bcd60e51b8152600401610ebc9061467a565b611a5b6000612baf565b565b6060600e8054611a6c9061485d565b80601f0160208091040260200160405190810160405280929190818152602001828054611a989061485d565b8015611ae55780601f10611aba57610100808354040283529160200191611ae5565b820191906000526020600020905b815481529060010190602001808311611ac857829003601f168201915b5050505050905090565b611af761278c565b6001600160a01b0316611b08611d50565b6001600160a01b031614611b2e5760405162461bcd60e51b8152600401610ebc9061467a565b601a55565b611b3b61278c565b6001600160a01b0316611b4c611d50565b6001600160a01b031614611b725760405162461bcd60e51b8152600401610ebc9061467a565b601555565b6000610e346021612c0a565b60026014541415611ba65760405162461bcd60e51b8152600401610ebc906147be565b6002601455611bc3600080516020614c6883398151915233611d65565b611bdf5760405162461bcd60e51b8152600401610ebc906147f5565b60005b818110156118c557611c0b838383818110611bff57611bff61482c565b90506020020135612c14565b80611c1581614842565b915050611be2565b6000611c296001612c86565b90508015611c41576000805461ff0019166101001790555b611c4c600083612d1a565b611c5582612baf565b611c6c836000015184602001518560400151612d24565b611c7e83606001518460800151612d56565b611c8b8360a00151612d87565b611c93612db7565b611c9c82612de6565b611cae8360c001518460e00151612e16565b611cc2836101000151846101200151612e58565b611cd0836101800151612e89565b611ce4836101400151846101600151612eb9565b611cf8836101a00151846101c00151612eea565b611d06836101e00151612f1b565b801561130d576000805461ff0019169055604051600181527f7f26b83ff96e1f2b6a682f133852f6798a09c465da95921460cefb38474024989060200160405180910390a1505050565b6000546201000090046001600160a01b031690565b6000918252601e602090815260408084206001600160a01b0393909316845291905290205460ff1690565b611d9861278c565b6001600160a01b0316611da9611d50565b6001600160a01b031614611dcf5760405162461bcd60e51b8152600401610ebc9061467a565b805161103790600d906020840190613e2b565b6060610e34612f4b565b611df461278c565b6001600160a01b0316611e05611d50565b6001600160a01b031614611e2b5760405162461bcd60e51b8152600401610ebc9061467a565b60115460ff1615611e4e5760405162461bcd60e51b8152600401610ebc90614892565b805161103790600f906020840190613e2b565b60026014541415611e845760405162461bcd60e51b8152600401610ebc906147be565b600260145560185460ff16611ed15760405162461bcd60e51b81526020600482015260136024820152725052455f53414c455f4e4f545f41435449564560681b6044820152606401610ebc565b6000611edb61278c565b9050611f26838380806020026020016040519081016040528093929190818152602001838360200280828437600092019190915250506017549150611f21905084612f5a565b612f94565b611f695760405162461bcd60e51b8152602060048201526014602482015273282922afa9a0a622afaba927a723afa82927a7a360611b6044820152606401610ebc565b6016546001600160a01b038216600090815260196020526040902054611f909086906148bd565b1115611fcf5760405162461bcd60e51b815260206004820152600e60248201526d14149157d4d0531157d31253525560921b6044820152606401610ebc565b3484601554611fde91906146c5565b1115611ffc5760405162461bcd60e51b8152600401610ebc906148d5565b6001600160a01b038116600090815260196020526040812080548692906120249084906148bd565b9091555061203490508185612796565b505060016014555050565b6001600160a01b0382163314156120695760405163b06307db60e01b815260040160405180910390fd5b3360008181526009602090815260408083206001600160a01b03871680855290835292819020805460ff191686151590811790915590519081529192917f17307eab39ab6107e8899845ad3d59bd9653f200f220920489ca2b5937696c31910160405180910390a35050565b6120dd61278c565b6001600160a01b03166120ee611d50565b6001600160a01b0316146121145760405162461bcd60e51b8152600401610ebc9061467a565b60115460ff16156121375760405162461bcd60e51b8152600401610ebc90614892565b8051611037906010906020840190613e2b565b6000610da1601d83612faa565b61216284848461103b565b6001600160a01b0383163b1561219b5761217e84848484612fce565b61219b576040516368d2bf6b60e11b815260040160405180910390fd5b50505050565b6121a961278c565b6001600160a01b03166121ba611d50565b6001600160a01b0316146121e05760405162461bcd60e51b8152600401610ebc9061467a565b6011805460ff19166001179055565b6060600f8054611a6c9061485d565b6060610da1826130c5565b604080516001808252818301909252606091816020015b6040805180820190915260008082526020820152815260200190600190039081612220575050601f5481519192506001600160a01b03169082906000906122695761226961482c565b60209081029190910101516001600160a01b03919091169052601f548151600160a01b90910461ffff169082906000906122a5576122a561482c565b6020908102919091018101516001600160601b03909216910152919050565b6122cd826111c7565b6122d681612880565b61130d8383612918565b600260145414156123035760405162461bcd60e51b8152600401610ebc906147be565b6002601455601c5460ff166123535760405162461bcd60e51b81526020600482015260166024820152755055424c49435f53414c455f4e4f545f41435449564560501b6044820152606401610ebc565b601b548111156123995760405162461bcd60e51b8152602060048201526011602482015270141550931250d7d4d0531157d312535255607a1b6044820152606401610ebc565b3481601a546123a891906146c5565b11156123c65760405162461bcd60e51b8152600401610ebc906148d5565b6123d08282612796565b50506001601455565b6123e161278c565b6001600160a01b03166123f2611d50565b6001600160a01b0316146124185760405162461bcd60e51b8152600401610ebc9061467a565b600a80546001600160a01b0319166001600160a01b0392909216919091179055565b606060108054611a6c9061485d565b600061248f838380806020026020016040519081016040528093929190818152602001838360200280828437600092019190915250506017549150611f21905087612f5a565b949350505050565b6060600d8054611a6c9061485d565b60006124b283836131a1565b9392505050565b6124c161278c565b6001600160a01b03166124d2611d50565b6001600160a01b0316146124f85760405162461bcd60e51b8152600401610ebc9061467a565b61250f61250a36839003830183614902565b6132b2565b50565b61251a61278c565b6001600160a01b031661252b611d50565b6001600160a01b0316146125515760405162461bcd60e51b8152600401610ebc9061467a565b601c54600160a81b900460ff161561257b5760405162461bcd60e51b8152600401610ebc9061470e565b601c80546001600160a01b0390921661010002610100600160a81b0319909216919091179055565b6125ab61278c565b6001600160a01b03166125bc611d50565b6001600160a01b0316146125e25760405162461bcd60e51b8152600401610ebc9061467a565b6001600160a01b0381166126475760405162461bcd60e51b815260206004820152602660248201527f4f776e61626c653a206e6577206f776e657220697320746865207a65726f206160448201526564647265737360d01b6064820152608401610ebc565b61250f81612baf565b61265861278c565b6001600160a01b0316612669611d50565b6001600160a01b03161461268f5760405162461bcd60e51b8152600401610ebc9061467a565b601655565b61269c61278c565b6001600160a01b03166126ad611d50565b6001600160a01b0316146126d35760405162461bcd60e51b8152600401610ebc9061467a565b601755565b60006126e333611688565b156126f5575060131936013560601c90565b503390565b3390565b6001600160a01b03163b151590565b60006301ffc9a760e01b6001600160e01b031983161480610da15750506001600160e01b03191660009081526001602052604090205460ff1690565b60006124b2838361335d565b6060600b8054611a6c9061485d565b600060025482108015610da1575050600090815260066020526040902054600160e01b161590565b6000610e346126d8565b601254816127a76003546002540390565b6127b191906148bd565b11156127f45760405162461bcd60e51b8152602060048201526012602482015271455843454544535f4d41585f535550504c5960701b6044820152606401610ebc565b6110378282613387565b60008160025481101561284657600081815260066020526040902054600160e01b8116612844575b806124b2575060001901600081815260066020526040902054612826565b505b604051636f96cda160e11b815260040160405180910390fd5b61219b848484846133a1565b4260a01b176001600160a01b03919091161790565b61250f8161288c61278c565b6133f4565b61289b8282611d65565b611037576000828152601e602090815260408083206001600160a01b03851684529091529020805460ff191660011790556128d461278c565b6001600160a01b0316816001600160a01b0316837f2f8788117e7eff1d82e926ec794901d17c78024a50270940304540a733656f0d60405160405180910390a45050565b6129228282611d65565b15611037576000828152601e602090815260408083206001600160a01b03851684529091529020805460ff1916905561295961278c565b6001600160a01b0316816001600160a01b0316837ff6391f5c32d9c69d2a47ea670b442974b53935d1edc7fd64eb21e047a839171b60405160405180910390a45050565b60005b81518110156110375760008282815181106129bd576129bd61482c565b60200260200101519050612710816040015161ffff16106129f05760405162461bcd60e51b8152600401610ebc9061495e565b60208101516001600160a01b0316612a685780516000908152602080526040902080546001600160b01b03191690558051612a2d90602190613458565b5080516040519081527fa2870857763bd9ae76c957f869f16b31c18dd3bb4c7b4d3a4496dc5c57c657f99060200160405180910390a1612b2e565b6040805180820182526020808401516001600160a01b0390811683528484015161ffff9081168385019081528651600090815293805294909220925183549451909216600160a01b026001600160b01b03199094169116179190911790558051612ad490602190613464565b50805160208083015160408085015181519485526001600160a01b039092169284019290925261ffff1682820152517f389b70fb0887f01e83784eb1c4c589f740eca53b00ed0f45e41db5d079719abb9181900360600190a15b5080612b3981614842565b9150506129a0565b612b4c601d82612faa565b612b8c5760405162461bcd60e51b8152602060048201526011602482015270115490cdcc8c4bd393d517d313d0d2d151607a1b6044820152606401610ebc565b600881901c6000908152601d602052604090208054600160ff84161b1916905550565b600080546001600160a01b038381166201000081810262010000600160b01b0319851617855560405193049190911692909183917f8be0079c531659141344cd1fd0a4f28419497f9722a3daafe3b4186f6b6457e091a35050565b6000610da1825490565b612c1f601d82612faa565b15612c645760405162461bcd60e51b8152602060048201526015602482015274115490cdcc8c4bd053149150511657d313d0d2d151605a1b6044820152606401610ebc565b600881901c6000908152601d602052604090208054600160ff84161b17905550565b60008054610100900460ff1615612cd4578160ff166001148015612cb05750612cae306126fe565b155b612ccc5760405162461bcd60e51b8152600401610ebc90614983565b506000919050565b60005460ff808416911610612cfb5760405162461bcd60e51b8152600401610ebc90614983565b506000805460ff191660ff92909216919091179055600190565b919050565b6110378282612891565b600054610100900460ff16612d4b5760405162461bcd60e51b8152600401610ebc906149d1565b61130d838383613470565b600054610100900460ff16612d7d5760405162461bcd60e51b8152600401610ebc906149d1565b6110378282613503565b600054610100900460ff16612dae5760405162461bcd60e51b8152600401610ebc906149d1565b61250f8161359f565b600054610100900460ff16612dde5760405162461bcd60e51b8152600401610ebc906149d1565b611a5b6135fb565b600054610100900460ff16612e0d5760405162461bcd60e51b8152600401610ebc906149d1565b61250f81613632565b600054610100900460ff16612e3d5760405162461bcd60e51b8152600401610ebc906149d1565b612e4d63209680f760e11b613681565b601591909155601655565b600054610100900460ff16612e7f5760405162461bcd60e51b8152600401610ebc906149d1565b6110378282613702565b600054610100900460ff16612eb05760405162461bcd60e51b8152600401610ebc906149d1565b61250f81613744565b600054610100900460ff16612ee05760405162461bcd60e51b8152600401610ebc906149d1565b611037828261377b565b600054610100900460ff16612f115760405162461bcd60e51b8152600401610ebc906149d1565b611037828261380b565b600054610100900460ff16612f425760405162461bcd60e51b8152600401610ebc906149d1565b61250f81613870565b6060600c8054611a6c9061485d565b6040516001600160601b0319606083901b166020820152600090603401604051602081830303815290604052805190602001209050919050565b600082612fa18584613897565b14949350505050565b600881901c600090815260208390526040902054600160ff83161b16151592915050565b604051630a85bd0160e11b81526000906001600160a01b0385169063150b7a0290613003903390899088908890600401614a1c565b602060405180830381600087803b15801561301d57600080fd5b505af192505050801561304d575060408051601f3d908101601f1916820190925261304a91810190614a59565b60015b6130a8573d80801561307b576040519150601f19603f3d011682016040523d82523d6000602084013e613080565b606091505b5080516130a0576040516368d2bf6b60e11b815260040160405180910390fd5b805181602001fd5b6001600160e01b031916630a85bd0160e11b149050949350505050565b60606000600f80546130d69061485d565b90501161316d57600e80546130ea9061485d565b80601f01602080910402602001604051908101604052809291908181526020018280546131169061485d565b80156131635780601f1061313857610100808354040283529160200191613163565b820191906000526020600020905b81548152906001019060200180831161314657829003601f168201915b5050505050610da1565b600f6131788361390b565b601060405160200161318c93929190614b10565b60405160208183030381529060405292915050565b6023546000906001600160a01b0316156132555760235460405163c455279160e01b81526001600160a01b0391821691841690829063c4552791906131ea908890600401613f7b565b60206040518083038186803b15801561320257600080fd5b505afa158015613216573d6000803e3d6000fd5b505050506040513d601f19601f8201168201806040525081019061323a9190614b43565b6001600160a01b03161415613253576001915050610da1565b505b6024546001600160a01b031615613284576024546001600160a01b038381169116141561328457506001610da1565b6001600160a01b0380841660009081526009602090815260408083209386168352929052205460ff166124b2565b612710816020015161ffff16106132db5760405162461bcd60e51b8152600401610ebc9061495e565b60408051808201825282516001600160a01b03168082526020808501805161ffff1691909301819052601f80546001600160b01b031916909217600160a01b9091021790558251905191517f2c5ea6e4103e78cb101e796fb2dace540362fc542cbff5145eaa24af7dd8fe419261335292916142b7565b60405180910390a150565b60008260000182815481106133745761337461482c565b9060005260206000200154905092915050565b611037828260405180602001604052806000815250613a08565b6133ac601d83612faa565b156133ef5760405162461bcd60e51b8152602060048201526013602482015272115490cdcc8c4bd513d2d15397d313d0d2d151606a1b6044820152606401610ebc565b61219b565b6133fe8282611d65565b61103757613416816001600160a01b03166014613a75565b613421836020613a75565b604051602001613432929190614b60565b60408051601f198184030181529082905262461bcd60e51b8252610ebc91600401613f68565b60006124b28383613c10565b60006124b28383613d03565b600054610100900460ff166134975760405162461bcd60e51b8152600401610ebc906149d1565b82516134aa90600b906020860190613e2b565b5081516134be90600c906020850190613e2b565b5080516134d290600d906020840190613e2b565b506134e3633d96f4ff60e11b613681565b6134f36380ac58cd60e01b613681565b61130d635b5e139f60e01b613681565b600054610100900460ff1661352a5760405162461bcd60e51b8152600401610ebc906149d1565b815161353d90600e906020850190613e2b565b50805161355190600f906020840190613e2b565b5060408051808201909152600580825264173539b7b760d91b602090920191825261357e91601091613e2b565b5061358f631f2f406b60e01b613681565b611037635b5e139f60e01b613681565b600054610100900460ff166135c65760405162461bcd60e51b8152600401610ebc906149d1565b60128190556135db6330f487b560e11b613681565b6135eb6380ac58cd60e01b613681565b61250f63184371e560e31b613681565b600054610100900460ff166136225760405162461bcd60e51b8152600401610ebc906149d1565b611a5b631aa1577160e11b613681565b600054610100900460ff166136595760405162461bcd60e51b8152600401610ebc906149d1565b613669631a056e7160e01b613681565b61250f600080516020614c2883398151915282612d1a565b6001600160e01b031980821614156136da5760405162461bcd60e51b815260206004820152601c60248201527b115490cc4d8d4e881a5b9d985b1a59081a5b9d195c999858d9481a5960221b6044820152606401610ebc565b6001600160e01b0319166000908152600160208190526040909120805460ff19169091179055565b600054610100900460ff166137295760405162461bcd60e51b8152600401610ebc906149d1565b6137396317e0bac360e31b613681565b601a91909155601b55565b600054610100900460ff1661376b5760405162461bcd60e51b8152600401610ebc906149d1565b61257b63e2b3173560e01b613681565b600054610100900460ff166137a25760405162461bcd60e51b8152600401610ebc906149d1565b6137b2633a47bf5160e11b613681565b6137c263152a902d60e11b613681565b6137d263c69dbd8f60e01b613681565b6137e263656cb66560e11b613681565b604080518082019091526001600160a01b038316815261ffff8216602082015261130d816132b2565b600054610100900460ff166138325760405162461bcd60e51b8152600401610ebc906149d1565b613842638d29851f60e01b613681565b602380546001600160a01b039384166001600160a01b03199182161790915560248054929093169116179055565b600054610100900460ff166124185760405162461bcd60e51b8152600401610ebc906149d1565b600081815b84518110156139035760008582815181106138b9576138b961482c565b602002602001015190508083116138df57600083815260208290526040902092506138f0565b600081815260208490526040902092505b50806138fb81614842565b91505061389c565b509392505050565b60608161392f5750506040805180820190915260018152600360fc1b602082015290565b8160005b8115613959578061394381614842565b91506139529050600a836146fa565b9150613933565b6000816001600160401b03811115613973576139736140b6565b6040519080825280601f01601f19166020018201604052801561399d576020820181803683370190505b5090505b841561248f576139b2600183614bcf565b91506139bf600a86614be6565b6139ca9060306148bd565b60f81b8183815181106139df576139df61482c565b60200101906001600160f81b031916908160001a905350613a01600a866146fa565b94506139a1565b613a128383613d52565b6001600160a01b0383163b1561130d576002548281035b613a3c6000868380600101945086612fce565b613a59576040516368d2bf6b60e11b815260040160405180910390fd5b818110613a29578160025414613a6e57600080fd5b5050505050565b60606000613a848360026146c5565b613a8f9060026148bd565b6001600160401b03811115613aa657613aa66140b6565b6040519080825280601f01601f191660200182016040528015613ad0576020820181803683370190505b509050600360fc1b81600081518110613aeb57613aeb61482c565b60200101906001600160f81b031916908160001a905350600f60fb1b81600181518110613b1a57613b1a61482c565b60200101906001600160f81b031916908160001a9053506000613b3e8460026146c5565b613b499060016148bd565b90505b6001811115613bc1576f181899199a1a9b1b9c1cb0b131b232b360811b85600f1660108110613b7d57613b7d61482c565b1a60f81b828281518110613b9357613b9361482c565b60200101906001600160f81b031916908160001a90535060049490941c93613bba81614bfa565b9050613b4c565b5083156124b25760405162461bcd60e51b815260206004820181905260248201527f537472696e67733a20686578206c656e67746820696e73756666696369656e746044820152606401610ebc565b60008181526001830160205260408120548015613cf9576000613c34600183614bcf565b8554909150600090613c4890600190614bcf565b9050818114613cad576000866000018281548110613c6857613c6861482c565b9060005260206000200154905080876000018481548110613c8b57613c8b61482c565b6000918252602080832090910192909255918252600188019052604090208390555b8554869080613cbe57613cbe614c11565b600190038181906000526020600020016000905590558560010160008681526020019081526020016000206000905560019350505050610da1565b6000915050610da1565b6000818152600183016020526040812054613d4a57508154600181810184556000848152602080822090930184905584548482528286019093526040902091909155610da1565b506000610da1565b6002546001600160a01b038316613d7b57604051622e076360e81b815260040160405180910390fd5b81613d995760405163b562e8dd60e01b815260040160405180910390fd5b613da6600084838561285f565b6001600160a01b038316600090815260076020526040902080546001600160401b018402019055613ddd836001841460e11b61286b565b600082815260066020526040902055808281015b6040516001830192906001600160a01b03871690600090600080516020614c48833981519152908290a4808210613df15760025550505050565b828054613e379061485d565b90600052602060002090601f016020900481019282613e595760008555613e9f565b82601f10613e7257805160ff1916838001178555613e9f565b82800160010185558215613e9f579182015b82811115613e9f578251825591602001919060010190613e84565b50613eab929150613eaf565b5090565b5b80821115613eab5760008155600101613eb0565b6001600160e01b03198116811461250f57600080fd5b600060208284031215613eec57600080fd5b81356124b281613ec4565b600060208284031215613f0957600080fd5b5035919050565b60005b83811015613f2b578181015183820152602001613f13565b8381111561219b5750506000910152565b60008151808452613f54816020860160208601613f10565b601f01601f19169290920160200192915050565b6020815260006124b26020830184613f3c565b6001600160a01b0391909116815260200190565b6001600160a01b038116811461250f57600080fd5b8035612d1581613f8f565b600060208284031215613fc157600080fd5b81356124b281613f8f565b60008060408385031215613fdf57600080fd5b8235613fea81613f8f565b946020939093013593505050565b60008060006060848603121561400d57600080fd5b833561401881613f8f565b9250602084013561402881613f8f565b929592945050506040919091013590565b6000806040838503121561404c57600080fd5b50508035926020909101359150565b80358015158114612d1557600080fd5b60006020828403121561407d57600080fd5b6124b28261405b565b6000806040838503121561409957600080fd5b8235915060208301356140ab81613f8f565b809150509250929050565b634e487b7160e01b600052604160045260246000fd5b60405161020081016001600160401b03811182821017156140ef576140ef6140b6565b60405290565b60006001600160401b038084111561410f5761410f6140b6565b604051601f8501601f19908116603f01168101908282118183101715614137576141376140b6565b8160405280935085815286868601111561415057600080fd5b858560208301376000602087830101525050509392505050565b600082601f83011261417b57600080fd5b6124b2838335602085016140f5565b60006020828403121561419c57600080fd5b81356001600160401b038111156141b257600080fd5b61248f8482850161416a565b600080602083850312156141d157600080fd5b82356001600160401b03808211156141e857600080fd5b818501915085601f8301126141fc57600080fd5b81358181111561420b57600080fd5b86602060608302850101111561422057600080fd5b60209290920196919550909350505050565b60008083601f84011261424457600080fd5b5081356001600160401b0381111561425b57600080fd5b6020830191508360208260051b850101111561129857600080fd5b6000806020838503121561428957600080fd5b82356001600160401b0381111561429f57600080fd5b6142ab85828601614232565b90969095509350505050565b6001600160a01b0392909216825261ffff16602082015260400190565b803561ffff81168114612d1557600080fd5b600080604083850312156142f957600080fd5b82356001600160401b038082111561431057600080fd5b90840190610200828703121561432557600080fd5b61432d6140cc565b82358281111561433c57600080fd5b6143488882860161416a565b82525060208301358281111561435d57600080fd5b6143698882860161416a565b60208301525060408301358281111561438157600080fd5b61438d8882860161416a565b6040830152506060830135828111156143a557600080fd5b6143b18882860161416a565b6060830152506080830135828111156143c957600080fd5b6143d58882860161416a565b60808301525060a0838101359082015260c0808401359082015260e0808401359082015261010080840135908201526101208084013590820152610140915061441f828401613fa4565b8282015261016091506144338284016142d4565b828201526101809150614447828401613fa4565b828201526101a0915061445b828401613fa4565b828201526101c0915061446f828401613fa4565b828201526101e09150614483828401613fa4565b8282015280945050505061449960208401613fa4565b90509250929050565b6000806000604084860312156144b757600080fd5b8335925060208401356001600160401b038111156144d457600080fd5b6144e086828701614232565b9497909650939450505050565b6000806040838503121561450057600080fd5b823561450b81613f8f565b91506144996020840161405b565b6000806000806080858703121561452f57600080fd5b843561453a81613f8f565b9350602085013561454a81613f8f565b92506040850135915060608501356001600160401b0381111561456c57600080fd5b8501601f8101871361457d57600080fd5b61458c878235602084016140f5565b91505092959194509250565b602080825282518282018190526000919060409081850190868401855b828110156145ec57815180516001600160a01b031685528601516001600160601b03168685015292840192908501906001016145b5565b5091979650505050505050565b60008060006040848603121561460e57600080fd5b833561461981613f8f565b925060208401356001600160401b038111156144d457600080fd5b6000806040838503121561464757600080fd5b823561465281613f8f565b915060208301356140ab81613f8f565b60006040828403121561467457600080fd5b50919050565b6020808252818101527f4f776e61626c653a2063616c6c6572206973206e6f7420746865206f776e6572604082015260600190565b634e487b7160e01b600052601160045260246000fd5b60008160001904831182151516156146df576146df6146af565b500290565b634e487b7160e01b600052601260045260246000fd5b600082614709576147096146e4565b500490565b602080825260179082015276115490cdcc8c4bd49150d2541251539517d313d0d2d151604a1b604082015260600190565b60006060828403121561475157600080fd5b604051606081016001600160401b0381118282101715614773576147736140b6565b60405282358152602083013561478881613f8f565b6020820152614799604084016142d4565b60408201529392505050565b6000602082840312156147b757600080fd5b5051919050565b6020808252601f908201527f5265656e7472616e637947756172643a207265656e7472616e742063616c6c00604082015260600190565b6020808252601f908201527f5354414b41424c455f4552433732312f4e4f545f4c4f434b45525f524f4c4500604082015260600190565b634e487b7160e01b600052603260045260246000fd5b6000600019821415614856576148566146af565b5060010190565b600181811c9082168061487157607f821691505b6020821081141561467457634e487b7160e01b600052602260045260246000fd5b6020808252601190820152702a27a5a2a729afaaa924afa32927ad22a760791b604082015260600190565b600082198211156148d0576148d06146af565b500190565b602080825260139082015272125394d551919250d251539517d05353d55395606a1b604082015260600190565b60006040828403121561491457600080fd5b604080519081016001600160401b0381118282101715614936576149366140b6565b604052823561494481613f8f565b8152614952602084016142d4565b60208201529392505050565b6020808252600b908201526a496e76616c69642062707360a81b604082015260600190565b6020808252602e908201527f496e697469616c697a61626c653a20636f6e747261637420697320616c72656160408201526d191e481a5b9a5d1a585b1a5e995960921b606082015260800190565b6020808252602b908201527f496e697469616c697a61626c653a20636f6e7472616374206973206e6f74206960408201526a6e697469616c697a696e6760a81b606082015260800190565b6001600160a01b0385811682528416602082015260408101839052608060608201819052600090614a4f90830184613f3c565b9695505050505050565b600060208284031215614a6b57600080fd5b81516124b281613ec4565b8054600090600181811c9080831680614a9057607f831692505b6020808410821415614ab257634e487b7160e01b600052602260045260246000fd5b818015614ac65760018114614ad757614b04565b60ff19861689528489019650614b04565b60008881526020902060005b86811015614afc5781548b820152908501908301614ae3565b505084890196505b50505050505092915050565b6000614b1c8286614a76565b8451614b2c818360208901613f10565b614b3881830186614a76565b979650505050505050565b600060208284031215614b5557600080fd5b81516124b281613f8f565b76020b1b1b2b9b9a1b7b73a3937b61d1030b1b1b7bab73a1604d1b815260008351614b92816017850160208801613f10565b7001034b99036b4b9b9b4b733903937b6329607d1b6017918401918201528351614bc3816028840160208801613f10565b01602801949350505050565b600082821015614be157614be16146af565b500390565b600082614bf557614bf56146e4565b500690565b600081614c0957614c096146af565b506000190190565b634e487b7160e01b600052603160045260246000fdfe9f2df0fed2c77648de5860a4cc508cd0818c85b8b8a1ab4ceeef8d981c8956a6ddf252ad1be2c89b69c2b068fc378daa952ba7f163c4a11628f55a4df523b3efaf9a8bb3cbd6b84fbccefa71ff73e26e798553c6914585a84886212a46a90279a26469706673582212209e939787fe73cf3f1278910f61e926af21f95ebd3b1ef4765bf6c6b317a20c9564736f6c63430008090033",
  "devdoc": {
    "kind": "dev",
    "methods": {
      "approve(address,uint256)": {
        "details": "See {IERC721-approve}."
      },
      "balanceOf(address)": {
        "details": "See {IERC721-balanceOf}."
      },
      "getApproved(uint256)": {
        "details": "See {IERC721-getApproved}."
      },
      "getRoleAdmin(bytes32)": {
        "details": "Returns the admin role that controls `role`. See {grantRole} and {revokeRole}. To change a role's admin, use {_setRoleAdmin}."
      },
      "getTokenRoyaltiesCount()": {
        "details": "See {IEIP2981RoyaltyOverride-getTokenRoyaltiesCount}."
      },
      "getTokenRoyaltyByIndex(uint256)": {
        "details": "See {IEIP2981RoyaltyOverride-getTokenRoyaltyByIndex}."
      },
      "grantRole(bytes32,address)": {
        "details": "Grants `role` to `account`. If `account` had not been already granted `role`, emits a {RoleGranted} event. Requirements: - the caller must have ``role``'s admin role."
      },
      "hasRole(bytes32,address)": {
        "details": "Returns `true` if `account` has been granted `role`."
      },
      "owner()": {
        "details": "Returns the address of the current owner."
      },
      "ownerOf(uint256)": {
        "details": "See {IERC721-ownerOf}."
      },
      "renounceOwnership()": {
        "details": "Leaves the contract without owner. It will not be possible to call `onlyOwner` functions anymore. Can only be called by the current owner. NOTE: Renouncing ownership will leave the contract without an owner, thereby removing any functionality that is only available to the owner."
      },
      "renounceRole(bytes32,address)": {
        "details": "Revokes `role` from the calling account. Roles are often managed via {grantRole} and {revokeRole}: this function's purpose is to provide a mechanism for accounts to lose their privileges if they are compromised (such as when a trusted device is misplaced). If the calling account had been revoked `role`, emits a {RoleRevoked} event. Requirements: - the caller must be `account`."
      },
      "revokeRole(bytes32,address)": {
        "details": "Revokes `role` from `account`. If `account` had been granted `role`, emits a {RoleRevoked} event. Requirements: - the caller must have ``role``'s admin role."
      },
      "royaltyInfo(uint256,uint256)": {
        "details": "See {IEIP2981RoyaltyOverride-royaltyInfo}."
      },
      "safeTransferFrom(address,address,uint256)": {
        "details": "See {IERC721-safeTransferFrom}."
      },
      "safeTransferFrom(address,address,uint256,bytes)": {
        "details": "See {IERC721-safeTransferFrom}."
      },
      "setApprovalForAll(address,bool)": {
        "details": "See {IERC721-setApprovalForAll}."
      },
      "totalSupply()": {
        "details": "Returns the total number of tokens in existence. Burned tokens will reduce the count. To get the total number of tokens minted, please see `_totalMinted`."
      },
      "transferFrom(address,address,uint256)": {
        "details": "Transfers `tokenId` from `from` to `to`. Requirements: - `to` cannot be the zero address. - `tokenId` token must be owned by `from`. Emits a {Transfer} event."
      },
      "transferOwnership(address)": {
        "details": "Transfers ownership of the contract to a new account (`newOwner`). Can only be called by the current owner."
      }
    },
    "version": 1
  },
  "userdoc": {
    "errors": {
      "ApprovalCallerNotOwnerNorApproved()": [
        {
          "notice": "The caller must own the token or be an approved operator."
        }
      ],
      "ApprovalQueryForNonexistentToken()": [
        {
          "notice": "The token does not exist."
        }
      ],
      "ApproveToCaller()": [
        {
          "notice": "The caller cannot approve to their own address."
        }
      ],
      "BalanceQueryForZeroAddress()": [
        {
          "notice": "Cannot query the balance for the zero address."
        }
      ],
      "MintERC2309QuantityExceedsLimit()": [
        {
          "notice": "The `quantity` minted with ERC2309 exceeds the safety limit."
        }
      ],
      "MintToZeroAddress()": [
        {
          "notice": "Cannot mint to the zero address."
        }
      ],
      "MintZeroQuantity()": [
        {
          "notice": "The quantity of tokens minted must be more than zero."
        }
      ],
      "OwnerQueryForNonexistentToken()": [
        {
          "notice": "The token does not exist."
        }
      ],
      "OwnershipNotInitializedForExtraData()": [
        {
          "notice": "The `extraData` cannot be set on an unintialized ownership slot."
        }
      ],
      "TransferCallerNotOwnerNorApproved()": [
        {
          "notice": "The caller must own the token or be an approved operator."
        }
      ],
      "TransferFromIncorrectOwner()": [
        {
          "notice": "The token must be owned by `from`."
        }
      ],
      "TransferToNonERC721ReceiverImplementer()": [
        {
          "notice": "Cannot safely transfer to a contract that does not implement the ERC721Receiver interface."
        }
      ],
      "TransferToZeroAddress()": [
        {
          "notice": "Cannot transfer to the zero address."
        }
      ],
      "URIQueryForNonexistentToken()": [
        {
          "notice": "The token does not exist."
        }
      ]
    },
    "kind": "user",
    "methods": {
      "isApprovedForAll(address,address)": {
        "notice": "Override isApprovedForAll to whitelist user's OpenSea proxy accounts to enable gas-less listings."
      },
      "lock(uint256[])": {
        "notice": "Locks token(s) to effectively lock them, while keeping in the same wallet. This mechanism prevents them from being transferred, yet still will show correct owner."
      },
      "locked(uint256)": {
        "notice": "Returns if a token is locked or not."
      },
      "unlock(uint256[])": {
        "notice": "Unlocks locked token(s) to be able to transfer."
      }
    },
    "version": 1
  },
  "storageLayout": {
    "storage": [
      {
        "astId": 886,
        "contract": "contracts/collections/ERC721A/presets/ERC721AFullFeaturedCollection.sol:ERC721AFullFeaturedCollection",
        "label": "_initialized",
        "offset": 0,
        "slot": "0",
        "type": "t_uint8"
      },
      {
        "astId": 889,
        "contract": "contracts/collections/ERC721A/presets/ERC721AFullFeaturedCollection.sol:ERC721AFullFeaturedCollection",
        "label": "_initializing",
        "offset": 1,
        "slot": "0",
        "type": "t_bool"
      },
      {
        "astId": 782,
        "contract": "contracts/collections/ERC721A/presets/ERC721AFullFeaturedCollection.sol:ERC721AFullFeaturedCollection",
        "label": "_owner",
        "offset": 2,
        "slot": "0",
        "type": "t_address"
      },
      {
        "astId": 4693,
        "contract": "contracts/collections/ERC721A/presets/ERC721AFullFeaturedCollection.sol:ERC721AFullFeaturedCollection",
        "label": "_supportedInterfaces",
        "offset": 0,
        "slot": "1",
        "type": "t_mapping(t_bytes4,t_bool)"
      },
      {
        "astId": 16667,
        "contract": "contracts/collections/ERC721A/presets/ERC721AFullFeaturedCollection.sol:ERC721AFullFeaturedCollection",
        "label": "_currentIndex",
        "offset": 0,
        "slot": "2",
        "type": "t_uint256"
      },
      {
        "astId": 16669,
        "contract": "contracts/collections/ERC721A/presets/ERC721AFullFeaturedCollection.sol:ERC721AFullFeaturedCollection",
        "label": "_burnCounter",
        "offset": 0,
        "slot": "3",
        "type": "t_uint256"
      },
      {
        "astId": 16671,
        "contract": "contracts/collections/ERC721A/presets/ERC721AFullFeaturedCollection.sol:ERC721AFullFeaturedCollection",
        "label": "_name",
        "offset": 0,
        "slot": "4",
        "type": "t_string_storage"
      },
      {
        "astId": 16673,
        "contract": "contracts/collections/ERC721A/presets/ERC721AFullFeaturedCollection.sol:ERC721AFullFeaturedCollection",
        "label": "_symbol",
        "offset": 0,
        "slot": "5",
        "type": "t_string_storage"
      },
      {
        "astId": 16677,
        "contract": "contracts/collections/ERC721A/presets/ERC721AFullFeaturedCollection.sol:ERC721AFullFeaturedCollection",
        "label": "_packedOwnerships",
        "offset": 0,
        "slot": "6",
        "type": "t_mapping(t_uint256,t_uint256)"
      },
      {
        "astId": 16681,
        "contract": "contracts/collections/ERC721A/presets/ERC721AFullFeaturedCollection.sol:ERC721AFullFeaturedCollection",
        "label": "_packedAddressData",
        "offset": 0,
        "slot": "7",
        "type": "t_mapping(t_address,t_uint256)"
      },
      {
        "astId": 16685,
        "contract": "contracts/collections/ERC721A/presets/ERC721AFullFeaturedCollection.sol:ERC721AFullFeaturedCollection",
        "label": "_tokenApprovals",
        "offset": 0,
        "slot": "8",
        "type": "t_mapping(t_uint256,t_address)"
      },
      {
        "astId": 16691,
        "contract": "contracts/collections/ERC721A/presets/ERC721AFullFeaturedCollection.sol:ERC721AFullFeaturedCollection",
        "label": "_operatorApprovals",
        "offset": 0,
        "slot": "9",
        "type": "t_mapping(t_address,t_mapping(t_address,t_bool))"
      },
      {
        "astId": 12629,
        "contract": "contracts/collections/ERC721A/presets/ERC721AFullFeaturedCollection.sol:ERC721AFullFeaturedCollection",
        "label": "_trustedForwarder",
        "offset": 0,
        "slot": "10",
        "type": "t_address"
      },
      {
        "astId": 9658,
        "contract": "contracts/collections/ERC721A/presets/ERC721AFullFeaturedCollection.sol:ERC721AFullFeaturedCollection",
        "label": "_name",
        "offset": 0,
        "slot": "11",
        "type": "t_string_storage"
      },
      {
        "astId": 9660,
        "contract": "contracts/collections/ERC721A/presets/ERC721AFullFeaturedCollection.sol:ERC721AFullFeaturedCollection",
        "label": "_symbol",
        "offset": 0,
        "slot": "12",
        "type": "t_string_storage"
      },
      {
        "astId": 9662,
        "contract": "contracts/collections/ERC721A/presets/ERC721AFullFeaturedCollection.sol:ERC721AFullFeaturedCollection",
        "label": "_contractURI",
        "offset": 0,
        "slot": "13",
        "type": "t_string_storage"
      },
      {
        "astId": 11172,
        "contract": "contracts/collections/ERC721A/presets/ERC721AFullFeaturedCollection.sol:ERC721AFullFeaturedCollection",
        "label": "_placeholderURI",
        "offset": 0,
        "slot": "14",
        "type": "t_string_storage"
      },
      {
        "astId": 11174,
        "contract": "contracts/collections/ERC721A/presets/ERC721AFullFeaturedCollection.sol:ERC721AFullFeaturedCollection",
        "label": "_tokenURIPrefix",
        "offset": 0,
        "slot": "15",
        "type": "t_string_storage"
      },
      {
        "astId": 11176,
        "contract": "contracts/collections/ERC721A/presets/ERC721AFullFeaturedCollection.sol:ERC721AFullFeaturedCollection",
        "label": "_tokenURISuffix",
        "offset": 0,
        "slot": "16",
        "type": "t_string_storage"
      },
      {
        "astId": 11178,
        "contract": "contracts/collections/ERC721A/presets/ERC721AFullFeaturedCollection.sol:ERC721AFullFeaturedCollection",
        "label": "tokenURIFrozen",
        "offset": 0,
        "slot": "17",
        "type": "t_bool"
      },
      {
        "astId": 10030,
        "contract": "contracts/collections/ERC721A/presets/ERC721AFullFeaturedCollection.sol:ERC721AFullFeaturedCollection",
        "label": "maxSupply",
        "offset": 0,
        "slot": "18",
        "type": "t_uint256"
      },
      {
        "astId": 10032,
        "contract": "contracts/collections/ERC721A/presets/ERC721AFullFeaturedCollection.sol:ERC721AFullFeaturedCollection",
        "label": "maxSupplyFrozen",
        "offset": 0,
        "slot": "19",
        "type": "t_bool"
      },
      {
        "astId": 1124,
        "contract": "contracts/collections/ERC721A/presets/ERC721AFullFeaturedCollection.sol:ERC721AFullFeaturedCollection",
        "label": "_status",
        "offset": 0,
        "slot": "20",
        "type": "t_uint256"
      },
      {
        "astId": 10934,
        "contract": "contracts/collections/ERC721A/presets/ERC721AFullFeaturedCollection.sol:ERC721AFullFeaturedCollection",
        "label": "preSalePrice",
        "offset": 0,
        "slot": "21",
        "type": "t_uint256"
      },
      {
        "astId": 10936,
        "contract": "contracts/collections/ERC721A/presets/ERC721AFullFeaturedCollection.sol:ERC721AFullFeaturedCollection",
        "label": "preSaleMaxMintPerWallet",
        "offset": 0,
        "slot": "22",
        "type": "t_uint256"
      },
      {
        "astId": 10938,
        "contract": "contracts/collections/ERC721A/presets/ERC721AFullFeaturedCollection.sol:ERC721AFullFeaturedCollection",
        "label": "preSaleAllowlistMerkleRoot",
        "offset": 0,
        "slot": "23",
        "type": "t_bytes32"
      },
      {
        "astId": 10940,
        "contract": "contracts/collections/ERC721A/presets/ERC721AFullFeaturedCollection.sol:ERC721AFullFeaturedCollection",
        "label": "preSaleStatus",
        "offset": 0,
        "slot": "24",
        "type": "t_bool"
      },
      {
        "astId": 10944,
        "contract": "contracts/collections/ERC721A/presets/ERC721AFullFeaturedCollection.sol:ERC721AFullFeaturedCollection",
        "label": "preSaleAllowlistClaimed",
        "offset": 0,
        "slot": "25",
        "type": "t_mapping(t_address,t_uint256)"
      },
      {
        "astId": 11385,
        "contract": "contracts/collections/ERC721A/presets/ERC721AFullFeaturedCollection.sol:ERC721AFullFeaturedCollection",
        "label": "publicSalePrice",
        "offset": 0,
        "slot": "26",
        "type": "t_uint256"
      },
      {
        "astId": 11387,
        "contract": "contracts/collections/ERC721A/presets/ERC721AFullFeaturedCollection.sol:ERC721AFullFeaturedCollection",
        "label": "publicSaleMaxMintPerTx",
        "offset": 0,
        "slot": "27",
        "type": "t_uint256"
      },
      {
        "astId": 11389,
        "contract": "contracts/collections/ERC721A/presets/ERC721AFullFeaturedCollection.sol:ERC721AFullFeaturedCollection",
        "label": "publicSaleStatus",
        "offset": 0,
        "slot": "28",
        "type": "t_bool"
      },
      {
        "astId": 8499,
        "contract": "contracts/collections/ERC721A/presets/ERC721AFullFeaturedCollection.sol:ERC721AFullFeaturedCollection",
        "label": "proceedsRecipient",
        "offset": 1,
        "slot": "28",
        "type": "t_address"
      },
      {
        "astId": 8501,
        "contract": "contracts/collections/ERC721A/presets/ERC721AFullFeaturedCollection.sol:ERC721AFullFeaturedCollection",
        "label": "proceedsRecipientLocked",
        "offset": 21,
        "slot": "28",
        "type": "t_bool"
      },
      {
        "astId": 9879,
        "contract": "contracts/collections/ERC721A/presets/ERC721AFullFeaturedCollection.sol:ERC721AFullFeaturedCollection",
        "label": "lockedTokens",
        "offset": 0,
        "slot": "29",
        "type": "t_struct(BitMap)5065_storage"
      },
      {
        "astId": 406,
        "contract": "contracts/collections/ERC721A/presets/ERC721AFullFeaturedCollection.sol:ERC721AFullFeaturedCollection",
        "label": "_roles",
        "offset": 0,
        "slot": "30",
        "type": "t_mapping(t_bytes32,t_struct(RoleData)401_storage)"
      },
      {
        "astId": 86,
        "contract": "contracts/collections/ERC721A/presets/ERC721AFullFeaturedCollection.sol:ERC721AFullFeaturedCollection",
        "label": "defaultRoyalty",
        "offset": 0,
        "slot": "31",
        "type": "t_struct(TokenRoyalty)28_storage"
      },
      {
        "astId": 91,
        "contract": "contracts/collections/ERC721A/presets/ERC721AFullFeaturedCollection.sol:ERC721AFullFeaturedCollection",
        "label": "_tokenRoyalties",
        "offset": 0,
        "slot": "32",
        "type": "t_mapping(t_uint256,t_struct(TokenRoyalty)28_storage)"
      },
      {
        "astId": 94,
        "contract": "contracts/collections/ERC721A/presets/ERC721AFullFeaturedCollection.sol:ERC721AFullFeaturedCollection",
        "label": "_tokensWithRoyalties",
        "offset": 0,
        "slot": "33",
        "type": "t_struct(UintSet)5664_storage"
      },
      {
        "astId": 10364,
        "contract": "contracts/collections/ERC721A/presets/ERC721AFullFeaturedCollection.sol:ERC721AFullFeaturedCollection",
        "label": "_openSeaProxyRegistryAddress",
        "offset": 0,
        "slot": "35",
        "type": "t_address"
      },
      {
        "astId": 10366,
        "contract": "contracts/collections/ERC721A/presets/ERC721AFullFeaturedCollection.sol:ERC721AFullFeaturedCollection",
        "label": "_openSeaExchangeAddress",
        "offset": 0,
        "slot": "36",
        "type": "t_address"
      }
    ],
    "types": {
      "t_address": {
        "encoding": "inplace",
        "label": "address",
        "numberOfBytes": "20"
      },
      "t_array(t_bytes32)dyn_storage": {
        "base": "t_bytes32",
        "encoding": "dynamic_array",
        "label": "bytes32[]",
        "numberOfBytes": "32"
      },
      "t_bool": {
        "encoding": "inplace",
        "label": "bool",
        "numberOfBytes": "1"
      },
      "t_bytes32": {
        "encoding": "inplace",
        "label": "bytes32",
        "numberOfBytes": "32"
      },
      "t_bytes4": {
        "encoding": "inplace",
        "label": "bytes4",
        "numberOfBytes": "4"
      },
      "t_mapping(t_address,t_bool)": {
        "encoding": "mapping",
        "key": "t_address",
        "label": "mapping(address => bool)",
        "numberOfBytes": "32",
        "value": "t_bool"
      },
      "t_mapping(t_address,t_mapping(t_address,t_bool))": {
        "encoding": "mapping",
        "key": "t_address",
        "label": "mapping(address => mapping(address => bool))",
        "numberOfBytes": "32",
        "value": "t_mapping(t_address,t_bool)"
      },
      "t_mapping(t_address,t_uint256)": {
        "encoding": "mapping",
        "key": "t_address",
        "label": "mapping(address => uint256)",
        "numberOfBytes": "32",
        "value": "t_uint256"
      },
      "t_mapping(t_bytes32,t_struct(RoleData)401_storage)": {
        "encoding": "mapping",
        "key": "t_bytes32",
        "label": "mapping(bytes32 => struct AccessControl.RoleData)",
        "numberOfBytes": "32",
        "value": "t_struct(RoleData)401_storage"
      },
      "t_mapping(t_bytes32,t_uint256)": {
        "encoding": "mapping",
        "key": "t_bytes32",
        "label": "mapping(bytes32 => uint256)",
        "numberOfBytes": "32",
        "value": "t_uint256"
      },
      "t_mapping(t_bytes4,t_bool)": {
        "encoding": "mapping",
        "key": "t_bytes4",
        "label": "mapping(bytes4 => bool)",
        "numberOfBytes": "32",
        "value": "t_bool"
      },
      "t_mapping(t_uint256,t_address)": {
        "encoding": "mapping",
        "key": "t_uint256",
        "label": "mapping(uint256 => address)",
        "numberOfBytes": "32",
        "value": "t_address"
      },
      "t_mapping(t_uint256,t_struct(TokenRoyalty)28_storage)": {
        "encoding": "mapping",
        "key": "t_uint256",
        "label": "mapping(uint256 => struct IEIP2981RoyaltyOverride.TokenRoyalty)",
        "numberOfBytes": "32",
        "value": "t_struct(TokenRoyalty)28_storage"
      },
      "t_mapping(t_uint256,t_uint256)": {
        "encoding": "mapping",
        "key": "t_uint256",
        "label": "mapping(uint256 => uint256)",
        "numberOfBytes": "32",
        "value": "t_uint256"
      },
      "t_string_storage": {
        "encoding": "bytes",
        "label": "string",
        "numberOfBytes": "32"
      },
      "t_struct(BitMap)5065_storage": {
        "encoding": "inplace",
        "label": "struct BitMaps.BitMap",
        "members": [
          {
            "astId": 5064,
            "contract": "contracts/collections/ERC721A/presets/ERC721AFullFeaturedCollection.sol:ERC721AFullFeaturedCollection",
            "label": "_data",
            "offset": 0,
            "slot": "0",
            "type": "t_mapping(t_uint256,t_uint256)"
          }
        ],
        "numberOfBytes": "32"
      },
      "t_struct(RoleData)401_storage": {
        "encoding": "inplace",
        "label": "struct AccessControl.RoleData",
        "members": [
          {
            "astId": 398,
            "contract": "contracts/collections/ERC721A/presets/ERC721AFullFeaturedCollection.sol:ERC721AFullFeaturedCollection",
            "label": "members",
            "offset": 0,
            "slot": "0",
            "type": "t_mapping(t_address,t_bool)"
          },
          {
            "astId": 400,
            "contract": "contracts/collections/ERC721A/presets/ERC721AFullFeaturedCollection.sol:ERC721AFullFeaturedCollection",
            "label": "adminRole",
            "offset": 0,
            "slot": "1",
            "type": "t_bytes32"
          }
        ],
        "numberOfBytes": "64"
      },
      "t_struct(Set)5206_storage": {
        "encoding": "inplace",
        "label": "struct EnumerableSet.Set",
        "members": [
          {
            "astId": 5201,
            "contract": "contracts/collections/ERC721A/presets/ERC721AFullFeaturedCollection.sol:ERC721AFullFeaturedCollection",
            "label": "_values",
            "offset": 0,
            "slot": "0",
            "type": "t_array(t_bytes32)dyn_storage"
          },
          {
            "astId": 5205,
            "contract": "contracts/collections/ERC721A/presets/ERC721AFullFeaturedCollection.sol:ERC721AFullFeaturedCollection",
            "label": "_indexes",
            "offset": 0,
            "slot": "1",
            "type": "t_mapping(t_bytes32,t_uint256)"
          }
        ],
        "numberOfBytes": "64"
      },
      "t_struct(TokenRoyalty)28_storage": {
        "encoding": "inplace",
        "label": "struct IEIP2981RoyaltyOverride.TokenRoyalty",
        "members": [
          {
            "astId": 25,
            "contract": "contracts/collections/ERC721A/presets/ERC721AFullFeaturedCollection.sol:ERC721AFullFeaturedCollection",
            "label": "recipient",
            "offset": 0,
            "slot": "0",
            "type": "t_address"
          },
          {
            "astId": 27,
            "contract": "contracts/collections/ERC721A/presets/ERC721AFullFeaturedCollection.sol:ERC721AFullFeaturedCollection",
            "label": "bps",
            "offset": 20,
            "slot": "0",
            "type": "t_uint16"
          }
        ],
        "numberOfBytes": "32"
      },
      "t_struct(UintSet)5664_storage": {
        "encoding": "inplace",
        "label": "struct EnumerableSet.UintSet",
        "members": [
          {
            "astId": 5663,
            "contract": "contracts/collections/ERC721A/presets/ERC721AFullFeaturedCollection.sol:ERC721AFullFeaturedCollection",
            "label": "_inner",
            "offset": 0,
            "slot": "0",
            "type": "t_struct(Set)5206_storage"
          }
        ],
        "numberOfBytes": "64"
      },
      "t_uint16": {
        "encoding": "inplace",
        "label": "uint16",
        "numberOfBytes": "2"
      },
      "t_uint256": {
        "encoding": "inplace",
        "label": "uint256",
        "numberOfBytes": "32"
      },
      "t_uint8": {
        "encoding": "inplace",
        "label": "uint8",
        "numberOfBytes": "1"
      }
    }
  }
}