{
  "address": "0x45F9a9bf5E00B437CD3bC6af045Cf8Bd99FcFa3B",
  "abi": [
    {
      "inputs": [
        {
          "components": [
            {
              "internalType": "address",
              "name": "ticketToken",
              "type": "address"
            },
            {
              "internalType": "uint64",
              "name": "lockedUntilTimestamp",
              "type": "uint64"
            },
            {
              "internalType": "uint256[]",
              "name": "tokenIds",
              "type": "uint256[]"
            },
            {
              "internalType": "uint256[]",
              "name": "shares",
              "type": "uint256[]"
            }
          ],
          "internalType": "struct ERC721ShareInstantStream.Config",
          "name": "config",
          "type": "tuple"
        }
      ],
      "stateMutability": "nonpayable",
      "type": "constructor"
    },
    {
      "anonymous": false,
      "inputs": [
        {
          "indexed": false,
          "internalType": "address",
          "name": "operator",
          "type": "address"
        },
        {
          "indexed": false,
          "internalType": "address",
          "name": "beneficiary",
          "type": "address"
        },
        {
          "indexed": false,
          "internalType": "uint256",
          "name": "ticketTokenId",
          "type": "uint256"
        },
        {
          "indexed": false,
          "internalType": "address",
          "name": "claimToken",
          "type": "address"
        },
        {
          "indexed": false,
          "internalType": "uint256",
          "name": "releasedAmount",
          "type": "uint256"
        }
      ],
      "name": "Claim",
      "type": "event"
    },
    {
      "anonymous": false,
      "inputs": [
        {
          "indexed": false,
          "internalType": "address",
          "name": "operator",
          "type": "address"
        },
        {
          "indexed": false,
          "internalType": "address",
          "name": "beneficiary",
          "type": "address"
        },
        {
          "indexed": false,
          "internalType": "uint256[]",
          "name": "ticketTokenIds",
          "type": "uint256[]"
        },
        {
          "indexed": false,
          "internalType": "address",
          "name": "claimToken",
          "type": "address"
        },
        {
          "indexed": false,
          "internalType": "uint256",
          "name": "releasedAmount",
          "type": "uint256"
        }
      ],
      "name": "ClaimMany",
      "type": "event"
    },
    {
      "anonymous": false,
      "inputs": [],
      "name": "EmergencyPowerRevoked",
      "type": "event"
    },
    {
      "anonymous": false,
      "inputs": [
        {
          "indexed": false,
          "internalType": "address[]",
          "name": "claimTokens",
          "type": "address[]"
        }
      ],
      "name": "EmergencyWithdrawn",
      "type": "event"
    },
    {
      "anonymous": false,
      "inputs": [
        {
          "indexed": false,
          "internalType": "uint8",
          "name": "version",
          "type": "uint8"
        }
      ],
      "name": "Initialized",
      "type": "event"
    },
    {
      "anonymous": false,
      "inputs": [
        {
          "indexed": true,
          "internalType": "address",
          "name": "previousOwner",
          "type": "address"
        },
        {
          "indexed": true,
          "internalType": "address",
          "name": "newOwner",
          "type": "address"
        }
      ],
      "name": "OwnershipTransferred",
      "type": "event"
    },
    {
      "anonymous": false,
      "inputs": [
        {
          "indexed": false,
          "internalType": "uint256",
          "name": "tokenId",
          "type": "uint256"
        },
        {
          "indexed": false,
          "internalType": "uint256",
          "name": "prevShares",
          "type": "uint256"
        },
        {
          "indexed": false,
          "internalType": "uint256",
          "name": "newShares",
          "type": "uint256"
        }
      ],
      "name": "SharesUpdated",
      "type": "event"
    },
    {
      "inputs": [
        {
          "internalType": "uint256",
          "name": "ticketTokenId",
          "type": "uint256"
        }
      ],
      "name": "claim",
      "outputs": [],
      "stateMutability": "nonpayable",
      "type": "function"
    },
    {
      "inputs": [
        {
          "internalType": "uint256[]",
          "name": "ticketTokenIds",
          "type": "uint256[]"
        }
      ],
      "name": "claim",
      "outputs": [],
      "stateMutability": "nonpayable",
      "type": "function"
    },
    {
      "inputs": [
        {
          "internalType": "uint256",
          "name": "ticketTokenId",
          "type": "uint256"
        },
        {
          "internalType": "address",
          "name": "claimToken",
          "type": "address"
        }
      ],
      "name": "claim",
      "outputs": [],
      "stateMutability": "nonpayable",
      "type": "function"
    },
    {
      "inputs": [
        {
          "internalType": "uint256[]",
          "name": "ticketTokenIds",
          "type": "uint256[]"
        },
        {
          "internalType": "address",
          "name": "claimToken",
          "type": "address"
        },
        {
          "internalType": "address",
          "name": "owner",
          "type": "address"
        }
      ],
      "name": "claim",
      "outputs": [],
      "stateMutability": "nonpayable",
      "type": "function"
    },
    {
      "inputs": [],
      "name": "emergencyPowerRevoked",
      "outputs": [
        {
          "internalType": "bool",
          "name": "",
          "type": "bool"
        }
      ],
      "stateMutability": "view",
      "type": "function"
    },
    {
      "inputs": [
        {
          "internalType": "address[]",
          "name": "claimTokens",
          "type": "address[]"
        }
      ],
      "name": "emergencyWithdraw",
      "outputs": [],
      "stateMutability": "nonpayable",
      "type": "function"
    },
    {
      "inputs": [
        {
          "internalType": "uint256",
          "name": "",
          "type": "uint256"
        },
        {
          "internalType": "address",
          "name": "",
          "type": "address"
        }
      ],
      "name": "entitlements",
      "outputs": [
        {
          "internalType": "uint256",
          "name": "totalClaimed",
          "type": "uint256"
        },
        {
          "internalType": "uint256",
          "name": "lastClaimedAt",
          "type": "uint256"
        }
      ],
      "stateMutability": "view",
      "type": "function"
    },
    {
      "inputs": [
        {
          "internalType": "uint256[]",
          "name": "_tokenIds",
          "type": "uint256[]"
        }
      ],
      "name": "getSharesByTokens",
      "outputs": [
        {
          "internalType": "uint256[]",
          "name": "",
          "type": "uint256[]"
        }
      ],
      "stateMutability": "view",
      "type": "function"
    },
    {
      "inputs": [],
      "name": "hasERC721InstantReleaseExtension",
      "outputs": [
        {
          "internalType": "bool",
          "name": "",
          "type": "bool"
        }
      ],
      "stateMutability": "pure",
      "type": "function"
    },
    {
      "inputs": [],
      "name": "hasERC721ShareSplitExtension",
      "outputs": [
        {
          "internalType": "bool",
          "name": "",
          "type": "bool"
        }
      ],
      "stateMutability": "pure",
      "type": "function"
    },
    {
      "inputs": [
        {
          "components": [
            {
              "internalType": "address",
              "name": "ticketToken",
              "type": "address"
            },
            {
              "internalType": "uint64",
              "name": "lockedUntilTimestamp",
              "type": "uint64"
            },
            {
              "internalType": "uint256[]",
              "name": "tokenIds",
              "type": "uint256[]"
            },
            {
              "internalType": "uint256[]",
              "name": "shares",
              "type": "uint256[]"
            }
          ],
          "internalType": "struct ERC721ShareInstantStream.Config",
          "name": "config",
          "type": "tuple"
        },
        {
          "internalType": "address",
          "name": "deployer",
          "type": "address"
        }
      ],
      "name": "initialize",
      "outputs": [],
      "stateMutability": "nonpayable",
      "type": "function"
    },
    {
      "inputs": [
        {
          "internalType": "uint64",
          "name": "newValue",
          "type": "uint64"
        }
      ],
      "name": "lockUntil",
      "outputs": [],
      "stateMutability": "nonpayable",
      "type": "function"
    },
    {
      "inputs": [],
      "name": "lockedUntilTimestamp",
      "outputs": [
        {
          "internalType": "uint64",
          "name": "",
          "type": "uint64"
        }
      ],
      "stateMutability": "view",
      "type": "function"
    },
    {
      "inputs": [],
      "name": "name",
      "outputs": [
        {
          "internalType": "string",
          "name": "",
          "type": "string"
        }
      ],
      "stateMutability": "view",
      "type": "function"
    },
    {
      "inputs": [],
      "name": "owner",
      "outputs": [
        {
          "internalType": "address",
          "name": "",
          "type": "address"
        }
      ],
      "stateMutability": "view",
      "type": "function"
    },
    {
      "inputs": [],
      "name": "renounceOwnership",
      "outputs": [],
      "stateMutability": "nonpayable",
      "type": "function"
    },
    {
      "inputs": [],
      "name": "revokeEmergencyPower",
      "outputs": [],
      "stateMutability": "nonpayable",
      "type": "function"
    },
    {
      "inputs": [
        {
          "internalType": "uint256[]",
          "name": "_tokenIds",
          "type": "uint256[]"
        },
        {
          "internalType": "uint256[]",
          "name": "_shares",
          "type": "uint256[]"
        }
      ],
      "name": "setSharesForTokens",
      "outputs": [],
      "stateMutability": "nonpayable",
      "type": "function"
    },
    {
      "inputs": [
        {
          "internalType": "uint256",
          "name": "",
          "type": "uint256"
        }
      ],
      "name": "shares",
      "outputs": [
        {
          "internalType": "uint256",
          "name": "",
          "type": "uint256"
        }
      ],
      "stateMutability": "view",
      "type": "function"
    },
    {
      "inputs": [
        {
          "internalType": "uint256[]",
          "name": "ticketTokenIds",
          "type": "uint256[]"
        },
        {
          "internalType": "address",
          "name": "claimToken",
          "type": "address"
        }
      ],
      "name": "streamClaimableAmount",
      "outputs": [
        {
          "internalType": "uint256",
          "name": "",
          "type": "uint256"
        }
      ],
      "stateMutability": "view",
      "type": "function"
    },
    {
      "inputs": [
        {
          "internalType": "uint256",
          "name": "ticketTokenId",
          "type": "uint256"
        }
      ],
      "name": "streamClaimableAmount",
      "outputs": [
        {
          "internalType": "uint256",
          "name": "",
          "type": "uint256"
        }
      ],
      "stateMutability": "view",
      "type": "function"
    },
    {
      "inputs": [
        {
          "internalType": "uint256",
          "name": "ticketTokenId",
          "type": "uint256"
        },
        {
          "internalType": "address",
          "name": "claimToken",
          "type": "address"
        }
      ],
      "name": "streamClaimableAmount",
      "outputs": [
        {
          "internalType": "uint256",
          "name": "",
          "type": "uint256"
        }
      ],
      "stateMutability": "view",
      "type": "function"
    },
    {
      "inputs": [
        {
          "internalType": "uint256[]",
          "name": "ticketTokenIds",
          "type": "uint256[]"
        },
        {
          "internalType": "address",
          "name": "claimToken",
          "type": "address"
        }
      ],
      "name": "streamTotalClaimed",
      "outputs": [
        {
          "internalType": "uint256",
          "name": "",
          "type": "uint256"
        }
      ],
      "stateMutability": "view",
      "type": "function"
    },
    {
      "inputs": [],
      "name": "streamTotalClaimed",
      "outputs": [
        {
          "internalType": "uint256",
          "name": "",
          "type": "uint256"
        }
      ],
      "stateMutability": "view",
      "type": "function"
    },
    {
      "inputs": [
        {
          "internalType": "uint256[]",
          "name": "ticketTokenIds",
          "type": "uint256[]"
        }
      ],
      "name": "streamTotalClaimed",
      "outputs": [
        {
          "internalType": "uint256",
          "name": "",
          "type": "uint256"
        }
      ],
      "stateMutability": "view",
      "type": "function"
    },
    {
      "inputs": [
        {
          "internalType": "uint256",
          "name": "ticketTokenId",
          "type": "uint256"
        },
        {
          "internalType": "address",
          "name": "claimToken",
          "type": "address"
        }
      ],
      "name": "streamTotalClaimed",
      "outputs": [
        {
          "internalType": "uint256",
          "name": "",
          "type": "uint256"
        }
      ],
      "stateMutability": "view",
      "type": "function"
    },
    {
      "inputs": [
        {
          "internalType": "address",
          "name": "claimToken",
          "type": "address"
        }
      ],
      "name": "streamTotalClaimed",
      "outputs": [
        {
          "internalType": "uint256",
          "name": "",
          "type": "uint256"
        }
      ],
      "stateMutability": "view",
      "type": "function"
    },
    {
      "inputs": [
        {
          "internalType": "uint256",
          "name": "ticketTokenId",
          "type": "uint256"
        }
      ],
      "name": "streamTotalClaimed",
      "outputs": [
        {
          "internalType": "uint256",
          "name": "",
          "type": "uint256"
        }
      ],
      "stateMutability": "view",
      "type": "function"
    },
    {
      "inputs": [],
      "name": "streamTotalSupply",
      "outputs": [
        {
          "internalType": "uint256",
          "name": "",
          "type": "uint256"
        }
      ],
      "stateMutability": "view",
      "type": "function"
    },
    {
      "inputs": [
        {
          "internalType": "address",
          "name": "claimToken",
          "type": "address"
        }
      ],
      "name": "streamTotalSupply",
      "outputs": [
        {
          "internalType": "uint256",
          "name": "",
          "type": "uint256"
        }
      ],
      "stateMutability": "view",
      "type": "function"
    },
    {
      "inputs": [
        {
          "internalType": "bytes4",
          "name": "interfaceId",
          "type": "bytes4"
        }
      ],
      "name": "supportsInterface",
      "outputs": [
        {
          "internalType": "bool",
          "name": "",
          "type": "bool"
        }
      ],
      "stateMutability": "view",
      "type": "function"
    },
    {
      "inputs": [],
      "name": "ticketToken",
      "outputs": [
        {
          "internalType": "address",
          "name": "",
          "type": "address"
        }
      ],
      "stateMutability": "view",
      "type": "function"
    },
    {
      "inputs": [],
      "name": "totalShares",
      "outputs": [
        {
          "internalType": "uint256",
          "name": "",
          "type": "uint256"
        }
      ],
      "stateMutability": "view",
      "type": "function"
    },
    {
      "inputs": [
        {
          "internalType": "address",
          "name": "newOwner",
          "type": "address"
        }
      ],
      "name": "transferOwnership",
      "outputs": [],
      "stateMutability": "nonpayable",
      "type": "function"
    },
    {
      "inputs": [],
      "name": "version",
      "outputs": [
        {
          "internalType": "string",
          "name": "",
          "type": "string"
        }
      ],
      "stateMutability": "view",
      "type": "function"
    },
    {
      "stateMutability": "payable",
      "type": "receive"
    }
  ],
  "transactionHash": "0x7a84e06a0163309f1c8c07be6566e3257a013e2498d380de2e828b807f6dcb44",
  "args": [
    {
      "ticketToken": "0x0000000000000000000000000000000000000000",
      "lockedUntilTimestamp": 0,
      "tokenIds": [],
      "shares": []
    }
  ],
  "numDeployments": 3,
  "solcInputHash": "a84f1fb15c0a559568857f55aefac1fb",
  "bytecode": "0x60806040523480156200001157600080fd5b5060405162002bbf38038062002bbf8339810160408190526200003491620006c0565b6200003f3362000057565b6001600355620000508133620000a9565b50620008ac565b600280546001600160a01b038381166001600160a01b0319831681179093556040519116919082907f8be0079c531659141344cd1fd0a4f28419497f9722a3daafe3b4186f6b6457e090600090a35050565b6000620000b7600162000169565b90508015620000d0576000805461ff0019166101001790555b620000db8262000057565b620000e562000216565b82516020840151620000f891906200024c565b6200010262000286565b6200011c83604001518460600151620002ba60201b60201c565b801562000164576000805461ff0019169055604051600181527f7f26b83ff96e1f2b6a682f133852f6798a09c465da95921460cefb3847402498906020015b60405180910390a15b505050565b60008054610100900460ff1615620001d2578160ff166001148015620001a25750620001a030620002f060201b620015c61760201c565b155b620001ca5760405162461bcd60e51b8152600401620001c19062000794565b60405180910390fd5b506000919050565b60005460ff808416911610620001fc5760405162461bcd60e51b8152600401620001c19062000794565b506000805460ff191660ff92909216919091179055600190565b600054610100900460ff16620002405760405162461bcd60e51b8152600401620001c190620007e2565b6200024a620002ff565b565b600054610100900460ff16620002765760405162461bcd60e51b8152600401620001c190620007e2565b6200028282826200033b565b5050565b600054610100900460ff16620002b05760405162461bcd60e51b8152600401620001c190620007e2565b6200024a620003a5565b600054610100900460ff16620002e45760405162461bcd60e51b8152600401620001c190620007e2565b620002828282620003e1565b6001600160a01b03163b151590565b600054610100900460ff16620003295760405162461bcd60e51b8152600401620001c190620007e2565b6200024a6326bcdb3160e01b62000477565b600054610100900460ff16620003655760405162461bcd60e51b8152600401620001c190620007e2565b600480546001600160401b038316600160a01b026001600160e01b03199091166001600160a01b0385161717905562000282631ba050e960e21b62000477565b600054610100900460ff16620003cf5760405162461bcd60e51b8152600401620001c190620007e2565b6200024a631259990960e01b62000477565b600054610100900460ff166200040b5760405162461bcd60e51b8152600401620001c190620007e2565b81518151146200045e5760405162461bcd60e51b815260206004820152601460248201527f53545245414d2f415247535f4d49534d415443480000000000000000000000006044820152606401620001c1565b6200046a8282620004fb565b620002826333c7a33f60e11b5b6001600160e01b03198082161415620004d35760405162461bcd60e51b815260206004820152601c60248201527f4552433136353a20696e76616c696420696e74657266616365206964000000006044820152606401620001c1565b6001600160e01b0319166000908152600160208190526040909120805460ff19169091179055565b60005b81518110156200016457620005528382815181106200052157620005216200082d565b60200260200101518383815181106200053e576200053e6200082d565b60200260200101516200056760201b60201c565b806200055e8162000859565b915050620004fe565b600082815260086020526040902080549082905560075481906200058d90849062000877565b62000599919062000892565b60075560408051848152602081018390529081018390527ff81b1f9d8b5d36a5a67d13006a8b091a9b63e2a38b331d315d99c6daefd2ddcc906060016200015b565b634e487b7160e01b600052604160045260246000fd5b604051608081016001600160401b0381118282101715620006165762000616620005db565b60405290565b600082601f8301126200062e57600080fd5b815160206001600160401b03808311156200064d576200064d620005db565b8260051b604051601f19603f83011681018181108482111715620006755762000675620005db565b6040529384528581018301938381019250878511156200069457600080fd5b83870191505b84821015620006b5578151835291830191908301906200069a565b979650505050505050565b600060208284031215620006d357600080fd5b81516001600160401b0380821115620006eb57600080fd5b90830190608082860312156200070057600080fd5b6200070a620005f1565b82516001600160a01b03811681146200072257600080fd5b8152602083015182811681146200073857600080fd5b60208201526040830151828111156200075057600080fd5b6200075e878286016200061c565b6040830152506060830151828111156200077757600080fd5b62000785878286016200061c565b60608301525095945050505050565b6020808252602e908201527f496e697469616c697a61626c653a20636f6e747261637420697320616c72656160408201526d191e481a5b9a5d1a585b1a5e995960921b606082015260800190565b6020808252602b908201527f496e697469616c697a61626c653a20636f6e7472616374206973206e6f74206960408201526a6e697469616c697a696e6760a81b606082015260800190565b634e487b7160e01b600052603260045260246000fd5b634e487b7160e01b600052601160045260246000fd5b600060001982141562000870576200087062000843565b5060010190565b600082198211156200088d576200088d62000843565b500190565b600082821015620008a757620008a762000843565b500390565b61230380620008bc6000396000f3fe6080604052600436106101985760003560e01c80630191c0af146101b157806301c1dfba146101e457806301ffc9a71461020457806306fdde031461023457806312599909146102885780631c725fdc1461029c57806325289bad146102bc578063277d048b146102fb5780632890d03314610310578063379607f5146103255780633a98ef39146103455780633b3f12e21461035b5780633d2dded51461037b57806340f37948146103b85780634e631783146103e557806354fd4d50146103ff57806357a858fc1461042e57806357dc48c81461045b5780636ba4c138146104af578063715018a6146104cf578063790c0c73146104e457806389c6b815146105045780638da5cb5b146105245780638fc852b114610546578063968d9b2c14610566578063a1cf649314610586578063a8b46d8714610288578063c0881849146105c9578063c91413a3146105ff578063d5ed4d5a1461061f578063ddd5e1b21461063f578063f2fde38b1461065f578063f389b6e41461067f578063f4415ad61461069f578063f66e38c2146106d757600080fd5b366101ac57600034116101aa57600080fd5b005b600080fd5b3480156101bd57600080fd5b506101d16101cc366004611ba0565b6106f7565b6040519081526020015b60405180910390f35b3480156101f057600080fd5b506101aa6101ff366004611bf6565b61074d565b34801561021057600080fd5b5061022461021f366004611c37565b61099a565b60405190151581526020016101db565b34801561024057600080fd5b5061027b6040518060400160405280601b81526020017a45524337323120536861726520496e7374616e742053747265616d60281b81525081565b6040516101db9190611c61565b34801561029457600080fd5b506001610224565b3480156102a857600080fd5b506101aa6102b7366004611ccd565b6109da565b3480156102c857600080fd5b506004546102e390600160a01b90046001600160401b031681565b6040516001600160401b0390911681526020016101db565b34801561030757600080fd5b506101aa610a91565b34801561031c57600080fd5b506101d1610af8565b34801561033157600080fd5b506101aa610340366004611ce8565b610b09565b34801561035157600080fd5b506101d160075481565b34801561036757600080fd5b506101d1610376366004611ba0565b610b17565b34801561038757600080fd5b506000805260066020527f54cdd369e4e8a8515e52ca72ec816c2101831ad1f18bf44102ed171459c9b4f8546101d1565b3480156103c457600080fd5b506103d86103d3366004611bf6565b610b95565b6040516101db9190611d01565b3480156103f157600080fd5b506009546102249060ff1681565b34801561040b57600080fd5b5061027b60405180604001604052806003815260200162302e3160e81b81525081565b34801561043a57600080fd5b506101d1610449366004611ce8565b60086020526000908152604090205481565b34801561046757600080fd5b5061049a610476366004611d45565b60056020908152600092835260408084209091529082529020805460019091015482565b604080519283526020830191909152016101db565b3480156104bb57600080fd5b506101aa6104ca366004611bf6565b610c4c565b3480156104db57600080fd5b506101aa610c5d565b3480156104f057600080fd5b506101d16104ff366004611d75565b610c98565b34801561051057600080fd5b506101d161051f366004611bf6565b610d6b565b34801561053057600080fd5b50610539610d80565b6040516101db9190611d92565b34801561055257600080fd5b506101aa610561366004611e7e565b610d8f565b34801561057257600080fd5b506101d1610581366004611ce8565b610e42565b34801561059257600080fd5b506101d16105a1366004611d45565b60009182526005602090815260408084206001600160a01b0393909316845291905290205490565b3480156105d557600080fd5b506101d16105e4366004611d75565b6001600160a01b031660009081526006602052604090205490565b34801561060b57600080fd5b506101aa61061a366004611ee1565b610e4f565b34801561062b57600080fd5b50600454610539906001600160a01b031681565b34801561064b57600080fd5b506101aa61065a366004611d45565b610efc565b34801561066b57600080fd5b506101aa61067a366004611d75565b611183565b34801561068b57600080fd5b506101aa61069a366004611fa7565b611220565b3480156106ab57600080fd5b506101d16106ba366004611ce8565b600090815260056020908152604080832083805290915290205490565b3480156106e357600080fd5b506101d16106f2366004611d45565b611572565b600080805b84811015610744576107268686838181106107195761071961200e565b9050602002013585611572565b610730908361203a565b91508061073c81612052565b9150506106fc565b50949350505050565b33610756610d80565b6001600160a01b0316146107855760405162461bcd60e51b815260040161077c9061206d565b60405180910390fd5b60095460ff16156107d25760405162461bcd60e51b81526020600482015260176024820152761153515491d15390d657d413d5d15497d4915593d2d151604a1b604482015260640161077c565b60006107dc610d80565b905060005b828110156109945760008484838181106107fd576107fd61200e565b90506020020160208101906108129190611d75565b6001600160a01b03161415610839576108346001600160a01b038316476115d5565b610982565b83838281811061084b5761084b61200e565b90506020020160208101906108609190611d75565b6001600160a01b031663a9059cbb838686858181106108815761088161200e565b90506020020160208101906108969190611d75565b6001600160a01b03166370a08231306040518263ffffffff1660e01b81526004016108c19190611d92565b60206040518083038186803b1580156108d957600080fd5b505afa1580156108ed573d6000803e3d6000fd5b505050506040513d601f19601f8201168201806040525081019061091191906120a2565b6040518363ffffffff1660e01b815260040161092e9291906120bb565b602060405180830381600087803b15801561094857600080fd5b505af115801561095c573d6000803e3d6000fd5b505050506040513d601f19601f8201168201806040525081019061098091906120d4565b505b8061098c81612052565b9150506107e1565b50505050565b60006301ffc9a760e01b6001600160e01b0319831614806109d457506001600160e01b0319821660009081526001602052604090205460ff165b92915050565b336109e3610d80565b6001600160a01b031614610a095760405162461bcd60e51b815260040161077c9061206d565b6004546001600160401b03600160a01b909104811690821611610a655760405162461bcd60e51b815260206004820152601460248201527314d5149150534bd0d0539393d517d49155d2539160621b604482015260640161077c565b600480546001600160401b03909216600160a01b02600160a01b600160e01b0319909216919091179055565b33610a9a610d80565b6001600160a01b031614610ac05760405162461bcd60e51b815260040161077c9061206d565b6009805460ff191660011790556040517f21fadcdbe90fc4e8062dd78003616bbe56d48e0f1bfc58eacd10b11bba16b79690600090a1565b6000610b046000610c98565b905090565b610b14816000610efc565b50565b600080805b848110156107445760056000878784818110610b3a57610b3a61200e565b9050602002013581526020019081526020016000206000856001600160a01b03166001600160a01b031681526020019081526020016000206000015482610b81919061203a565b915080610b8d81612052565b915050610b1c565b60606000826001600160401b03811115610bb157610bb1611da6565b604051908082528060200260200182016040528015610bda578160200160208202803683370190505b50905060005b8151811015610c445760086000868684818110610bff57610bff61200e565b90506020020135815260200190815260200160002054828281518110610c2757610c2761200e565b602090810291909101015280610c3c81612052565b915050610be0565b509392505050565b610c598282600033611220565b5050565b33610c66610d80565b6001600160a01b031614610c8c5760405162461bcd60e51b815260040161077c9061206d565b610c9660006116eb565b565b60006001600160a01b038216610ccc576001600160a01b0382166000908152600660205260409020546109d490479061203a565b6040516370a0823160e01b81526001600160a01b038316906370a0823190610cf8903090600401611d92565b60206040518083038186803b158015610d1057600080fd5b505afa158015610d24573d6000803e3d6000fd5b505050506040513d601f19601f82011682018060405250810190610d4891906120a2565b6001600160a01b0383166000908152600660205260409020546109d4919061203a565b6000610d7983836000610b17565b9392505050565b6002546001600160a01b031690565b33610d98610d80565b6001600160a01b031614610dbe5760405162461bcd60e51b815260040161077c9061206d565b8151815114610ddf5760405162461bcd60e51b815260040161077c906120f6565b60045442600160a01b9091046001600160401b031610610e385760405162461bcd60e51b815260206004820152601460248201527314d5149150534bd0d3d3919251d7d313d0d2d15160621b604482015260640161077c565b610c59828261173d565b60006109d4826000611572565b6000610e5b6001611797565b90508015610e73576000805461ff0019166101001790555b610e7c826116eb565b610e8461182b565b610e968360000151846020015161185a565b610e9e61188b565b610eb0836040015184606001516118ba565b8015610ef7576000805461ff0019169055604051600181527f7f26b83ff96e1f2b6a682f133852f6798a09c465da95921460cefb3847402498906020015b60405180910390a15b505050565b60026003541415610f1f5760405162461bcd60e51b815260040161077c90612124565b6002600355600480546040516331a9108f60e11b81529182018490526000916001600160a01b0390911690636352211e9060240160206040518083038186803b158015610f6b57600080fd5b505afa158015610f7f573d6000803e3d6000fd5b505050506040513d601f19601f82011682018060405250810190610fa3919061215b565b90506000610fb18484611572565b905060008111610ffd5760405162461bcd60e51b815260206004820152601760248201527653545245414d2f4e4f5448494e475f544f5f434c41494d60481b604482015260640161077c565b60008481526005602090815260408083206001600160a01b03871684529091528120805483929061102f90849061203a565b909155505060008481526005602090815260408083206001600160a01b038716845282528083204260019091015560069091528120805483929061107490849061203a565b90915550506001600160a01b03831661109f5761109a6001600160a01b038316826115d5565b611121565b60405163a9059cbb60e01b81526001600160a01b0384169063a9059cbb906110cd90859085906004016120bb565b602060405180830381600087803b1580156110e757600080fd5b505af11580156110fb573d6000803e3d6000fd5b505050506040513d601f19601f8201168201806040525081019061111f91906120d4565b505b604080513381526001600160a01b038481166020830152818301879052851660608201526080810183905290517fa2d3c4c1fc934d6d2d8f9e862df90c01ae4eb0e920cd8957d242ba26b8dc40789181900360a00190a1505060016003555050565b3361118c610d80565b6001600160a01b0316146111b25760405162461bcd60e51b815260040161077c9061206d565b6001600160a01b0381166112175760405162461bcd60e51b815260206004820152602660248201527f4f776e61626c653a206e6577206f776e657220697320746865207a65726f206160448201526564647265737360d01b606482015260840161077c565b610b14816116eb565b600260035414156112435760405162461bcd60e51b815260040161077c90612124565b60026003556000805b8481101561144f57611269868683818110610ef757610ef761200e565b6004546001600160a01b038085169116636352211e8888858181106112905761129061200e565b905060200201356040518263ffffffff1660e01b81526004016112b591815260200190565b60206040518083038186803b1580156112cd57600080fd5b505afa1580156112e1573d6000803e3d6000fd5b505050506040513d601f19601f82011682018060405250810190611305919061215b565b6001600160a01b0316146113525760405162461bcd60e51b815260206004820152601460248201527329aa2922a0a697a727aa2fa7232a2fa7aba722a960611b604482015260640161077c565b60006113768787848181106113695761136961200e565b9050602002013586611572565b9050801561143c5780600560008989868181106113955761139561200e565b9050602002013581526020019081526020016000206000876001600160a01b03166001600160a01b0316815260200190815260200160002060000160008282546113df919061203a565b90915550429050600560008989868181106113fc576113fc61200e565b6020908102929092013583525081810192909252604090810160009081206001600160a01b038a168252909252902060010155611439818461203a565b92505b508061144781612052565b91505061124c565b506001600160a01b0383166000908152600660205260408120805483929061147890849061203a565b90915550506001600160a01b0383166114a35761149e6001600160a01b038316826115d5565b611525565b60405163a9059cbb60e01b81526001600160a01b0384169063a9059cbb906114d190859085906004016120bb565b602060405180830381600087803b1580156114eb57600080fd5b505af11580156114ff573d6000803e3d6000fd5b505050506040513d601f19601f8201168201806040525081019061152391906120d4565b505b7fd84a5c424a4f777bcf4f645712b8e5ebfc550f42bde444fa822fe98ee1b132b133838787878660405161155e96959493929190612178565b60405180910390a150506001600355505050565b60008061158e61158761158485610c98565b90565b85856118eb565b60008581526005602090815260408083206001600160a01b03881684529091529020549091506115be90826121dc565b949350505050565b6001600160a01b03163b151590565b804710156116255760405162461bcd60e51b815260206004820152601d60248201527f416464726573733a20696e73756666696369656e742062616c616e6365000000604482015260640161077c565b6000826001600160a01b03168260405160006040518083038185875af1925050503d8060008114611672576040519150601f19603f3d011682016040523d82523d6000602084013e611677565b606091505b5050905080610ef75760405162461bcd60e51b815260206004820152603a60248201527f416464726573733a20756e61626c6520746f2073656e642076616c75652c20726044820152791958da5c1a595b9d081b585e481a185d99481c995d995c9d195960321b606482015260840161077c565b600280546001600160a01b038381166001600160a01b0319831681179093556040519116919082907f8be0079c531659141344cd1fd0a4f28419497f9722a3daafe3b4186f6b6457e090600090a35050565b60005b8151811015610ef75761178583828151811061175e5761175e61200e565b60200260200101518383815181106117785761177861200e565b6020026020010151611914565b8061178f81612052565b915050611740565b60008054610100900460ff16156117e5578160ff1660011480156117c157506117bf306115c6565b155b6117dd5760405162461bcd60e51b815260040161077c906121f3565b506000919050565b60005460ff80841691161061180c5760405162461bcd60e51b815260040161077c906121f3565b506000805460ff191660ff92909216919091179055600190565b919050565b600054610100900460ff166118525760405162461bcd60e51b815260040161077c90612241565b610c96611983565b600054610100900460ff166118815760405162461bcd60e51b815260040161077c90612241565b610c5982826119ba565b600054610100900460ff166118b25760405162461bcd60e51b815260040161077c90612241565b610c96611a1f565b600054610100900460ff166118e15760405162461bcd60e51b815260040161077c90612241565b610c598282611a56565b60075460008381526008602052604081205490919061190a908661228c565b6115be91906122ab565b6000828152600860205260409020805490829055600754819061193890849061203a565b61194291906121dc565b60075560408051848152602081018390529081018390527ff81b1f9d8b5d36a5a67d13006a8b091a9b63e2a38b331d315d99c6daefd2ddcc90606001610eee565b600054610100900460ff166119aa5760405162461bcd60e51b815260040161077c90612241565b610c966326bcdb3160e01b611ab4565b600054610100900460ff166119e15760405162461bcd60e51b815260040161077c90612241565b600480546001600160401b038316600160a01b026001600160e01b03199091166001600160a01b03851617179055610c59631ba050e960e21b611ab4565b600054610100900460ff16611a465760405162461bcd60e51b815260040161077c90612241565b610c96631259990960e01b611ab4565b600054610100900460ff16611a7d5760405162461bcd60e51b815260040161077c90612241565b8151815114611a9e5760405162461bcd60e51b815260040161077c906120f6565b611aa8828261173d565b610c596333c7a33f60e11b5b6001600160e01b03198082161415611b0d5760405162461bcd60e51b815260206004820152601c60248201527b115490cc4d8d4e881a5b9d985b1a59081a5b9d195c999858d9481a5960221b604482015260640161077c565b6001600160e01b0319166000908152600160208190526040909120805460ff19169091179055565b60008083601f840112611b4757600080fd5b5081356001600160401b03811115611b5e57600080fd5b6020830191508360208260051b8501011115611b7957600080fd5b9250929050565b6001600160a01b0381168114610b1457600080fd5b803561182681611b80565b600080600060408486031215611bb557600080fd5b83356001600160401b03811115611bcb57600080fd5b611bd786828701611b35565b9094509250506020840135611beb81611b80565b809150509250925092565b60008060208385031215611c0957600080fd5b82356001600160401b03811115611c1f57600080fd5b611c2b85828601611b35565b90969095509350505050565b600060208284031215611c4957600080fd5b81356001600160e01b031981168114610d7957600080fd5b600060208083528351808285015260005b81811015611c8e57858101830151858201604001528201611c72565b81811115611ca0576000604083870101525b50601f01601f1916929092016040019392505050565b80356001600160401b038116811461182657600080fd5b600060208284031215611cdf57600080fd5b610d7982611cb6565b600060208284031215611cfa57600080fd5b5035919050565b6020808252825182820181905260009190848201906040850190845b81811015611d3957835183529284019291840191600101611d1d565b50909695505050505050565b60008060408385031215611d5857600080fd5b823591506020830135611d6a81611b80565b809150509250929050565b600060208284031215611d8757600080fd5b8135610d7981611b80565b6001600160a01b0391909116815260200190565b634e487b7160e01b600052604160045260246000fd5b604051608081016001600160401b0381118282101715611dde57611dde611da6565b60405290565b600082601f830112611df557600080fd5b813560206001600160401b0380831115611e1157611e11611da6565b8260051b604051601f19603f83011681018181108482111715611e3657611e36611da6565b604052938452858101830193838101925087851115611e5457600080fd5b83870191505b84821015611e7357813583529183019190830190611e5a565b979650505050505050565b60008060408385031215611e9157600080fd5b82356001600160401b0380821115611ea857600080fd5b611eb486838701611de4565b93506020850135915080821115611eca57600080fd5b50611ed785828601611de4565b9150509250929050565b60008060408385031215611ef457600080fd5b82356001600160401b0380821115611f0b57600080fd5b9084019060808287031215611f1f57600080fd5b611f27611dbc565b8235611f3281611b80565b8152611f4060208401611cb6565b6020820152604083013582811115611f5757600080fd5b611f6388828601611de4565b604083015250606083013582811115611f7b57600080fd5b611f8788828601611de4565b6060830152509350611f9e91505060208401611b95565b90509250929050565b60008060008060608587031215611fbd57600080fd5b84356001600160401b03811115611fd357600080fd5b611fdf87828801611b35565b9095509350506020850135611ff381611b80565b9150604085013561200381611b80565b939692955090935050565b634e487b7160e01b600052603260045260246000fd5b634e487b7160e01b600052601160045260246000fd5b6000821982111561204d5761204d612024565b500190565b600060001982141561206657612066612024565b5060010190565b6020808252818101527f4f776e61626c653a2063616c6c6572206973206e6f7420746865206f776e6572604082015260600190565b6000602082840312156120b457600080fd5b5051919050565b6001600160a01b03929092168252602082015260400190565b6000602082840312156120e657600080fd5b81518015158114610d7957600080fd5b6020808252601490820152730a6a8a48a829a5e82a48ea6be9a92a69a82a886960631b604082015260600190565b6020808252601f908201527f5265656e7472616e637947756172643a207265656e7472616e742063616c6c00604082015260600190565b60006020828403121561216d57600080fd5b8151610d7981611b80565b6001600160a01b038781168252868116602083015260a06040830181905282018590526000906001600160fb1b038611156121b257600080fd5b8560051b808860c0860137600090840160c001908152941660608301525060800152949350505050565b6000828210156121ee576121ee612024565b500390565b6020808252602e908201527f496e697469616c697a61626c653a20636f6e747261637420697320616c72656160408201526d191e481a5b9a5d1a585b1a5e995960921b606082015260800190565b6020808252602b908201527f496e697469616c697a61626c653a20636f6e7472616374206973206e6f74206960408201526a6e697469616c697a696e6760a81b606082015260800190565b60008160001904831182151516156122a6576122a6612024565b500290565b6000826122c857634e487b7160e01b600052601260045260246000fd5b50049056fea264697066735822122042c5e086c8d709cc90c770c2b8aa697b039d6274291cd5a0aad67a1612e6c54864736f6c63430008090033",
  "devdoc": {
    "kind": "dev",
    "methods": {
      "owner()": {
        "details": "Returns the address of the current owner."
      },
      "renounceOwnership()": {
        "details": "Leaves the contract without owner. It will not be possible to call `onlyOwner` functions anymore. Can only be called by the current owner. NOTE: Renouncing ownership will leave the contract without an owner, thereby removing any functionality that is only available to the owner."
      },
      "supportsInterface(bytes4)": {
        "details": "See {IERC165-supportsInterface}."
      },
      "transferOwnership(address)": {
        "details": "Transfers ownership of the contract to a new account (`newOwner`). Can only be called by the current owner."
      }
    },
    "version": 1
  },
  "userdoc": {
    "kind": "user",
    "methods": {},
    "version": 1
  },
  "storageLayout": {
    "storage": [
      {
        "astId": 886,
        "contract": "contracts/streams/ERC721/presets/ERC721ShareInstantStream.sol:ERC721ShareInstantStream",
        "label": "_initialized",
        "offset": 0,
        "slot": "0",
        "type": "t_uint8"
      },
      {
        "astId": 889,
        "contract": "contracts/streams/ERC721/presets/ERC721ShareInstantStream.sol:ERC721ShareInstantStream",
        "label": "_initializing",
        "offset": 1,
        "slot": "0",
        "type": "t_bool"
      },
      {
        "astId": 4693,
        "contract": "contracts/streams/ERC721/presets/ERC721ShareInstantStream.sol:ERC721ShareInstantStream",
        "label": "_supportedInterfaces",
        "offset": 0,
        "slot": "1",
        "type": "t_mapping(t_bytes4,t_bool)"
      },
      {
        "astId": 782,
        "contract": "contracts/streams/ERC721/presets/ERC721ShareInstantStream.sol:ERC721ShareInstantStream",
        "label": "_owner",
        "offset": 0,
        "slot": "2",
        "type": "t_address"
      },
      {
        "astId": 1124,
        "contract": "contracts/streams/ERC721/presets/ERC721ShareInstantStream.sol:ERC721ShareInstantStream",
        "label": "_status",
        "offset": 0,
        "slot": "3",
        "type": "t_uint256"
      },
      {
        "astId": 13678,
        "contract": "contracts/streams/ERC721/presets/ERC721ShareInstantStream.sol:ERC721ShareInstantStream",
        "label": "ticketToken",
        "offset": 0,
        "slot": "4",
        "type": "t_address"
      },
      {
        "astId": 13680,
        "contract": "contracts/streams/ERC721/presets/ERC721ShareInstantStream.sol:ERC721ShareInstantStream",
        "label": "lockedUntilTimestamp",
        "offset": 20,
        "slot": "4",
        "type": "t_uint64"
      },
      {
        "astId": 13687,
        "contract": "contracts/streams/ERC721/presets/ERC721ShareInstantStream.sol:ERC721ShareInstantStream",
        "label": "entitlements",
        "offset": 0,
        "slot": "5",
        "type": "t_mapping(t_uint256,t_mapping(t_address,t_struct(Entitlement)13676_storage))"
      },
      {
        "astId": 13691,
        "contract": "contracts/streams/ERC721/presets/ERC721ShareInstantStream.sol:ERC721ShareInstantStream",
        "label": "_streamTotalClaimed",
        "offset": 0,
        "slot": "6",
        "type": "t_mapping(t_address,t_uint256)"
      },
      {
        "astId": 14922,
        "contract": "contracts/streams/ERC721/presets/ERC721ShareInstantStream.sol:ERC721ShareInstantStream",
        "label": "totalShares",
        "offset": 0,
        "slot": "7",
        "type": "t_uint256"
      },
      {
        "astId": 14926,
        "contract": "contracts/streams/ERC721/presets/ERC721ShareInstantStream.sol:ERC721ShareInstantStream",
        "label": "shares",
        "offset": 0,
        "slot": "8",
        "type": "t_mapping(t_uint256,t_uint256)"
      },
      {
        "astId": 12503,
        "contract": "contracts/streams/ERC721/presets/ERC721ShareInstantStream.sol:ERC721ShareInstantStream",
        "label": "emergencyPowerRevoked",
        "offset": 0,
        "slot": "9",
        "type": "t_bool"
      }
    ],
    "types": {
      "t_address": {
        "encoding": "inplace",
        "label": "address",
        "numberOfBytes": "20"
      },
      "t_bool": {
        "encoding": "inplace",
        "label": "bool",
        "numberOfBytes": "1"
      },
      "t_bytes4": {
        "encoding": "inplace",
        "label": "bytes4",
        "numberOfBytes": "4"
      },
      "t_mapping(t_address,t_struct(Entitlement)13676_storage)": {
        "encoding": "mapping",
        "key": "t_address",
        "label": "mapping(address => struct ERC721MultiTokenStream.Entitlement)",
        "numberOfBytes": "32",
        "value": "t_struct(Entitlement)13676_storage"
      },
      "t_mapping(t_address,t_uint256)": {
        "encoding": "mapping",
        "key": "t_address",
        "label": "mapping(address => uint256)",
        "numberOfBytes": "32",
        "value": "t_uint256"
      },
      "t_mapping(t_bytes4,t_bool)": {
        "encoding": "mapping",
        "key": "t_bytes4",
        "label": "mapping(bytes4 => bool)",
        "numberOfBytes": "32",
        "value": "t_bool"
      },
      "t_mapping(t_uint256,t_mapping(t_address,t_struct(Entitlement)13676_storage))": {
        "encoding": "mapping",
        "key": "t_uint256",
        "label": "mapping(uint256 => mapping(address => struct ERC721MultiTokenStream.Entitlement))",
        "numberOfBytes": "32",
        "value": "t_mapping(t_address,t_struct(Entitlement)13676_storage)"
      },
      "t_mapping(t_uint256,t_uint256)": {
        "encoding": "mapping",
        "key": "t_uint256",
        "label": "mapping(uint256 => uint256)",
        "numberOfBytes": "32",
        "value": "t_uint256"
      },
      "t_struct(Entitlement)13676_storage": {
        "encoding": "inplace",
        "label": "struct ERC721MultiTokenStream.Entitlement",
        "members": [
          {
            "astId": 13673,
            "contract": "contracts/streams/ERC721/presets/ERC721ShareInstantStream.sol:ERC721ShareInstantStream",
            "label": "totalClaimed",
            "offset": 0,
            "slot": "0",
            "type": "t_uint256"
          },
          {
            "astId": 13675,
            "contract": "contracts/streams/ERC721/presets/ERC721ShareInstantStream.sol:ERC721ShareInstantStream",
            "label": "lastClaimedAt",
            "offset": 0,
            "slot": "1",
            "type": "t_uint256"
          }
        ],
        "numberOfBytes": "64"
      },
      "t_uint256": {
        "encoding": "inplace",
        "label": "uint256",
        "numberOfBytes": "32"
      },
      "t_uint64": {
        "encoding": "inplace",
        "label": "uint64",
        "numberOfBytes": "8"
      },
      "t_uint8": {
        "encoding": "inplace",
        "label": "uint8",
        "numberOfBytes": "1"
      }
    }
  }
}