{
  "address": "0xe05D20C9c2765D7F4BAAe306dd73D76e6730f37E",
  "abi": [
    {
      "inputs": [
        {
          "components": [
            {
              "internalType": "address",
              "name": "claimToken",
              "type": "address"
            },
            {
              "internalType": "address",
              "name": "ticketToken",
              "type": "address"
            },
            {
              "internalType": "uint256",
              "name": "vestingRate",
              "type": "uint256"
            },
            {
              "internalType": "uint256",
              "name": "vestingTimeUnit",
              "type": "uint256"
            },
            {
              "internalType": "uint256",
              "name": "claimStart",
              "type": "uint256"
            },
            {
              "internalType": "uint256",
              "name": "claimEnd",
              "type": "uint256"
            }
          ],
          "internalType": "struct ERC721HolderVestedDistributor.Config",
          "name": "config",
          "type": "tuple"
        }
      ],
      "stateMutability": "nonpayable",
      "type": "constructor"
    },
    {
      "anonymous": false,
      "inputs": [
        {
          "indexed": false,
          "internalType": "address",
          "name": "claimer",
          "type": "address"
        },
        {
          "indexed": false,
          "internalType": "uint256",
          "name": "ticketTokenId",
          "type": "uint256"
        },
        {
          "indexed": false,
          "internalType": "uint256",
          "name": "releasedAmount",
          "type": "uint256"
        }
      ],
      "name": "Claim",
      "type": "event"
    },
    {
      "anonymous": false,
      "inputs": [
        {
          "indexed": false,
          "internalType": "address",
          "name": "claimer",
          "type": "address"
        },
        {
          "indexed": false,
          "internalType": "uint256[]",
          "name": "ticketTokenIds",
          "type": "uint256[]"
        },
        {
          "indexed": false,
          "internalType": "uint256",
          "name": "releasedAmount",
          "type": "uint256"
        }
      ],
      "name": "ClaimBulk",
      "type": "event"
    },
    {
      "anonymous": false,
      "inputs": [
        {
          "indexed": false,
          "internalType": "uint8",
          "name": "version",
          "type": "uint8"
        }
      ],
      "name": "Initialized",
      "type": "event"
    },
    {
      "anonymous": false,
      "inputs": [
        {
          "indexed": true,
          "internalType": "address",
          "name": "previousOwner",
          "type": "address"
        },
        {
          "indexed": true,
          "internalType": "address",
          "name": "newOwner",
          "type": "address"
        }
      ],
      "name": "OwnershipTransferred",
      "type": "event"
    },
    {
      "inputs": [
        {
          "internalType": "uint256",
          "name": "ticketTokenId",
          "type": "uint256"
        }
      ],
      "name": "calculateClaimableAmount",
      "outputs": [
        {
          "internalType": "uint256",
          "name": "claimableAmount",
          "type": "uint256"
        }
      ],
      "stateMutability": "view",
      "type": "function"
    },
    {
      "inputs": [
        {
          "internalType": "uint256",
          "name": "calcUntil",
          "type": "uint256"
        }
      ],
      "name": "calculateClaimableAmountUntil",
      "outputs": [
        {
          "internalType": "uint256",
          "name": "",
          "type": "uint256"
        }
      ],
      "stateMutability": "view",
      "type": "function"
    },
    {
      "inputs": [
        {
          "internalType": "uint256",
          "name": "ticketTokenId",
          "type": "uint256"
        }
      ],
      "name": "calculateReleasedAmount",
      "outputs": [
        {
          "internalType": "uint256",
          "name": "releasedAmount",
          "type": "uint256"
        }
      ],
      "stateMutability": "view",
      "type": "function"
    },
    {
      "inputs": [
        {
          "internalType": "uint256",
          "name": "calcUntil",
          "type": "uint256"
        }
      ],
      "name": "calculateReleasedAmountUntil",
      "outputs": [
        {
          "internalType": "uint256",
          "name": "",
          "type": "uint256"
        }
      ],
      "stateMutability": "view",
      "type": "function"
    },
    {
      "inputs": [
        {
          "internalType": "uint256",
          "name": "ticketTokenId",
          "type": "uint256"
        }
      ],
      "name": "claim",
      "outputs": [],
      "stateMutability": "nonpayable",
      "type": "function"
    },
    {
      "inputs": [
        {
          "internalType": "uint256[]",
          "name": "ticketTokenIds",
          "type": "uint256[]"
        }
      ],
      "name": "claimBulk",
      "outputs": [],
      "stateMutability": "nonpayable",
      "type": "function"
    },
    {
      "inputs": [],
      "name": "claimEnd",
      "outputs": [
        {
          "internalType": "uint256",
          "name": "",
          "type": "uint256"
        }
      ],
      "stateMutability": "view",
      "type": "function"
    },
    {
      "inputs": [],
      "name": "claimStart",
      "outputs": [
        {
          "internalType": "uint256",
          "name": "",
          "type": "uint256"
        }
      ],
      "stateMutability": "view",
      "type": "function"
    },
    {
      "inputs": [],
      "name": "claimToken",
      "outputs": [
        {
          "internalType": "address",
          "name": "",
          "type": "address"
        }
      ],
      "stateMutability": "view",
      "type": "function"
    },
    {
      "inputs": [
        {
          "internalType": "uint256",
          "name": "",
          "type": "uint256"
        }
      ],
      "name": "entitlements",
      "outputs": [
        {
          "internalType": "uint256",
          "name": "totalClaimed",
          "type": "uint256"
        },
        {
          "internalType": "uint256",
          "name": "lastClaimedAt",
          "type": "uint256"
        }
      ],
      "stateMutability": "view",
      "type": "function"
    },
    {
      "inputs": [
        {
          "internalType": "uint256[]",
          "name": "ticketTokenIds",
          "type": "uint256[]"
        }
      ],
      "name": "getTotalClaimableBulk",
      "outputs": [
        {
          "internalType": "uint256",
          "name": "",
          "type": "uint256"
        }
      ],
      "stateMutability": "view",
      "type": "function"
    },
    {
      "inputs": [
        {
          "internalType": "uint256[]",
          "name": "ticketTokenIds",
          "type": "uint256[]"
        }
      ],
      "name": "getTotalClaimedBulk",
      "outputs": [
        {
          "internalType": "uint256",
          "name": "",
          "type": "uint256"
        }
      ],
      "stateMutability": "view",
      "type": "function"
    },
    {
      "inputs": [
        {
          "internalType": "uint256[]",
          "name": "ticketTokenIds",
          "type": "uint256[]"
        }
      ],
      "name": "getTotalReleasedBulk",
      "outputs": [
        {
          "internalType": "uint256",
          "name": "",
          "type": "uint256"
        }
      ],
      "stateMutability": "view",
      "type": "function"
    },
    {
      "inputs": [
        {
          "components": [
            {
              "internalType": "address",
              "name": "claimToken",
              "type": "address"
            },
            {
              "internalType": "address",
              "name": "ticketToken",
              "type": "address"
            },
            {
              "internalType": "uint256",
              "name": "vestingRate",
              "type": "uint256"
            },
            {
              "internalType": "uint256",
              "name": "vestingTimeUnit",
              "type": "uint256"
            },
            {
              "internalType": "uint256",
              "name": "claimStart",
              "type": "uint256"
            },
            {
              "internalType": "uint256",
              "name": "claimEnd",
              "type": "uint256"
            }
          ],
          "internalType": "struct ERC721HolderVestedDistributor.Config",
          "name": "config",
          "type": "tuple"
        }
      ],
      "name": "initialize",
      "outputs": [],
      "stateMutability": "nonpayable",
      "type": "function"
    },
    {
      "inputs": [],
      "name": "name",
      "outputs": [
        {
          "internalType": "string",
          "name": "",
          "type": "string"
        }
      ],
      "stateMutability": "view",
      "type": "function"
    },
    {
      "inputs": [],
      "name": "owner",
      "outputs": [
        {
          "internalType": "address",
          "name": "",
          "type": "address"
        }
      ],
      "stateMutability": "view",
      "type": "function"
    },
    {
      "inputs": [],
      "name": "renounceOwnership",
      "outputs": [],
      "stateMutability": "nonpayable",
      "type": "function"
    },
    {
      "inputs": [
        {
          "internalType": "uint256",
          "name": "newValue",
          "type": "uint256"
        }
      ],
      "name": "setClaimEnd",
      "outputs": [],
      "stateMutability": "nonpayable",
      "type": "function"
    },
    {
      "inputs": [
        {
          "internalType": "uint256",
          "name": "newValue",
          "type": "uint256"
        }
      ],
      "name": "setClaimStart",
      "outputs": [],
      "stateMutability": "nonpayable",
      "type": "function"
    },
    {
      "inputs": [
        {
          "internalType": "uint256",
          "name": "newValue",
          "type": "uint256"
        }
      ],
      "name": "setVestingRate",
      "outputs": [],
      "stateMutability": "nonpayable",
      "type": "function"
    },
    {
      "inputs": [
        {
          "internalType": "uint256",
          "name": "newValue",
          "type": "uint256"
        }
      ],
      "name": "setVestingTimeUnit",
      "outputs": [],
      "stateMutability": "nonpayable",
      "type": "function"
    },
    {
      "inputs": [],
      "name": "streamTotalClaimed",
      "outputs": [
        {
          "internalType": "uint256",
          "name": "",
          "type": "uint256"
        }
      ],
      "stateMutability": "view",
      "type": "function"
    },
    {
      "inputs": [],
      "name": "streamTotalSupply",
      "outputs": [
        {
          "internalType": "uint256",
          "name": "",
          "type": "uint256"
        }
      ],
      "stateMutability": "view",
      "type": "function"
    },
    {
      "inputs": [],
      "name": "ticketToken",
      "outputs": [
        {
          "internalType": "address",
          "name": "",
          "type": "address"
        }
      ],
      "stateMutability": "view",
      "type": "function"
    },
    {
      "inputs": [
        {
          "internalType": "address",
          "name": "newOwner",
          "type": "address"
        }
      ],
      "name": "transferOwnership",
      "outputs": [],
      "stateMutability": "nonpayable",
      "type": "function"
    },
    {
      "inputs": [],
      "name": "version",
      "outputs": [
        {
          "internalType": "string",
          "name": "",
          "type": "string"
        }
      ],
      "stateMutability": "view",
      "type": "function"
    },
    {
      "inputs": [],
      "name": "vestingRate",
      "outputs": [
        {
          "internalType": "uint256",
          "name": "",
          "type": "uint256"
        }
      ],
      "stateMutability": "view",
      "type": "function"
    },
    {
      "inputs": [],
      "name": "vestingTimeUnit",
      "outputs": [
        {
          "internalType": "uint256",
          "name": "",
          "type": "uint256"
        }
      ],
      "stateMutability": "view",
      "type": "function"
    },
    {
      "stateMutability": "payable",
      "type": "receive"
    }
  ],
  "transactionHash": "0x021b2418663d544fc393a6c1cb3c2f539dd49050dcca03a0f11bbf706444d8af",
  "args": [
    {
      "claimToken": "0x0000000000000000000000000000000000000000",
      "ticketToken": "0x0000000000000000000000000000000000000000",
      "vestingRate": "1000000000000000000",
      "vestingTimeUnit": 3600,
      "claimStart": 0,
      "claimEnd": 999999999999999
    }
  ],
  "numDeployments": 3,
  "solcInputHash": "9ed528b3a904d6e5013923fb4fd7945b",
  "bytecode": "0x60806040523480156200001157600080fd5b5060405162001c9b38038062001c9b833981016040819052620000349162000366565b600160655562000044816200004b565b5062000498565b600062000059600162000104565b9050801562000072576000805461ff0019166101001790555b6200007c620001b6565b62000086620001e2565b8151602083015162000099919062000216565b6040820151606a556060820151606b556080820151606c5560a0820151606d55801562000100576000805461ff0019169055604051600181527f7f26b83ff96e1f2b6a682f133852f6798a09c465da95921460cefb38474024989060200160405180910390a15b5050565b60008054610100900460ff16156200016d578160ff1660011480156200013d57506200013b306200026060201b62000f5e1760201c565b155b620001655760405162461bcd60e51b81526004016200015c90620003ff565b60405180910390fd5b506000919050565b60005460ff808416911610620001975760405162461bcd60e51b81526004016200015c90620003ff565b506000805460ff191660ff92909216919091179055600190565b919050565b600054610100900460ff16620001e05760405162461bcd60e51b81526004016200015c906200044d565b565b600054610100900460ff166200020c5760405162461bcd60e51b81526004016200015c906200044d565b620001e06200026f565b600054610100900460ff16620002405760405162461bcd60e51b81526004016200015c906200044d565b6200024a620001b6565b62000254620001e2565b620001008282620002a4565b6001600160a01b03163b151590565b600054610100900460ff16620002995760405162461bcd60e51b81526004016200015c906200044d565b620001e033620002fc565b600054610100900460ff16620002ce5760405162461bcd60e51b81526004016200015c906200044d565b606680546001600160a01b039384166001600160a01b03199182161790915560678054929093169116179055565b603380546001600160a01b038381166001600160a01b0319831681179093556040519116919082907f8be0079c531659141344cd1fd0a4f28419497f9722a3daafe3b4186f6b6457e090600090a35050565b80516001600160a01b0381168114620001b157600080fd5b600060c082840312156200037957600080fd5b60405160c081016001600160401b0381118282101715620003aa57634e487b7160e01b600052604160045260246000fd5b604052620003b8836200034e565b8152620003c8602084016200034e565b602082015260408301516040820152606083015160608201526080830151608082015260a083015160a08201528091505092915050565b6020808252602e908201527f496e697469616c697a61626c653a20636f6e747261637420697320616c72656160408201526d191e481a5b9a5d1a585b1a5e995960921b606082015260800190565b6020808252602b908201527f496e697469616c697a61626c653a20636f6e7472616374206973206e6f74206960408201526a6e697469616c697a696e6760a81b606082015260800190565b6117f380620004a86000396000f3fe60806040526004361061014b5760003560e01c8063033cfed31461017a57806306fdde03146101ad5780631a87a934146101ff5780632493530f1461021f5780632890d0331461023f57806329e34b26146102545780632ef3521414610274578063379607f5146102945780633ccfa92f146102b45780633d2dded5146102ca5780634451d89f146102e057806346be42fa1461030d578063496ef2171461032d5780634a1c86b71461034d5780634fcddd151461036d57806354fd4d501461038d57806369ceb15f146103bc5780636cc8e783146103d2578063715018a6146103f25780638da5cb5b146104075780639fcd34151461041c578063b0aa1e041461043c578063c7871ba91461045c578063d5ed4d5a14610472578063e74d0c2814610492578063f04d688f146104b2578063f28f9b56146104c8578063f2fde38b1461051157600080fd5b36610175576000341161015d57600080fd5b6066546001600160a01b03161561017357600080fd5b005b600080fd5b34801561018657600080fd5b5061019a610195366004611339565b610531565b6040519081526020015b60405180910390f35b3480156101b957600080fd5b506101f26040518060400160405280601981526020017822a9219b9918902b32b9ba32b2102234b9ba3934b13aba37b960391b81525081565b6040516101a49190611352565b34801561020b57600080fd5b5061017361021a3660046113c7565b610561565b34801561022b57600080fd5b5061019a61023a36600461145a565b610611565b34801561024b57600080fd5b5061019a610665565b34801561026057600080fd5b5061017361026f366004611339565b6106f8565b34801561028057600080fd5b5061017361028f366004611339565b610735565b3480156102a057600080fd5b506101736102af366004611339565b610769565b3480156102c057600080fd5b5061019a606d5481565b3480156102d657600080fd5b5061019a60695481565b3480156102ec57600080fd5b50606654610300906001600160a01b031681565b6040516101a491906114ce565b34801561031957600080fd5b5061019a610328366004611339565b6109e3565b34801561033957600080fd5b5061017361034836600461145a565b610a24565b34801561035957600080fd5b50610173610368366004611339565b610cf3565b34801561037957600080fd5b5061019a61038836600461145a565b610d27565b34801561039957600080fd5b506101f260405180604001604052806003815260200162302e3160e81b81525081565b3480156103c857600080fd5b5061019a606b5481565b3480156103de57600080fd5b5061019a6103ed366004611339565b610d82565b3480156103fe57600080fd5b50610173610db9565b34801561041357600080fd5b50610300610df4565b34801561042857600080fd5b5061019a61043736600461145a565b610e03565b34801561044857600080fd5b50610173610457366004611339565b610e4f565b34801561046857600080fd5b5061019a606a5481565b34801561047e57600080fd5b50606754610300906001600160a01b031681565b34801561049e57600080fd5b5061019a6104ad366004611339565b610e83565b3480156104be57600080fd5b5061019a606c5481565b3480156104d457600080fd5b506104fc6104e3366004611339565b6068602052600090815260409020805460019091015482565b604080519283526020830191909152016101a4565b34801561051d57600080fd5b5061017361052c3660046114e2565b610ebe565b6000606b54606a54606c5484610547919061151c565b6105519190611533565b61055b9190611552565b92915050565b600061056d6001610f6d565b90508015610585576000805461ff0019166101001790555b61058d611001565b610595611028565b6105a782600001518360200151611057565b6040820151606a556060820151606b556080820151606c5560a0820151606d55801561060d576000805461ff0019169055604051600181527f7f26b83ff96e1f2b6a682f133852f6798a09c465da95921460cefb38474024989060200160405180910390a15b5050565b600080805b8381101561065d5761063f85858381811061063357610633611574565b905060200201356109e3565b610649908361158a565b915080610655816115a2565b915050610616565b509392505050565b6066546040516370a0823160e01b81526000916001600160a01b0316906370a08231906106969030906004016114ce565b60206040518083038186803b1580156106ae57600080fd5b505afa1580156106c2573d6000803e3d6000fd5b505050506040513d601f19601f820116820180604052508101906106e691906115bd565b6069546106f3919061158a565b905090565b33610701610df4565b6001600160a01b0316146107305760405162461bcd60e51b8152600401610727906115d6565b60405180910390fd5b606b55565b3361073e610df4565b6001600160a01b0316146107645760405162461bcd60e51b8152600401610727906115d6565b606a55565b6002606554141561078c5760405162461bcd60e51b81526004016107279061160b565b600260655561079a81611098565b336067546040516331a9108f60e11b8152600481018490526001600160a01b039283169290911690636352211e9060240160206040518083038186803b1580156107e357600080fd5b505afa1580156107f7573d6000803e3d6000fd5b505050506040513d601f19601f8201168201806040525081019061081b9190611642565b6001600160a01b0316146108415760405162461bcd60e51b81526004016107279061165f565b600061084c826109e3565b90506000811161089d5760405162461bcd60e51b815260206004820152601c60248201527b4449535452494255544f522f4e4f5448494e475f544f5f434c41494d60201b6044820152606401610727565b600082815260686020526040812080548392906108bb90849061158a565b9091555050600082815260686020526040812042600190910155606980548392906108e790849061158a565b90915550506066546001600160a01b03166109165761091181335b6001600160a01b031690611147565b61099a565b6066546001600160a01b031663a9059cbb33836040518363ffffffff1660e01b8152600401610946929190611692565b602060405180830381600087803b15801561096057600080fd5b505af1158015610974573d6000803e3d6000fd5b505050506040513d601f19601f8201168201806040525081019061099891906116ab565b505b604080513381526020810184905280820183905290517f34fcbac0073d7c3d388e51312faf357774904998eeb8fca628b9e6f65ee1cbf79181900360600190a150506001606555565b600081815260686020526040812054606d54610a1a9015801590610a085750606d5442115b610a125742610e83565b606d54610e83565b61055b919061151c565b60026065541415610a475760405162461bcd60e51b81526004016107279061160b565b60026065556000805b82811015610bf157610a79848483818110610a6d57610a6d611574565b90506020020135611098565b60675433906001600160a01b0316636352211e868685818110610a9e57610a9e611574565b905060200201356040518263ffffffff1660e01b8152600401610ac391815260200190565b60206040518083038186803b158015610adb57600080fd5b505afa158015610aef573d6000803e3d6000fd5b505050506040513d601f19601f82011682018060405250810190610b139190611642565b6001600160a01b031614610b395760405162461bcd60e51b81526004016107279061165f565b6000610b5085858481811061063357610633611574565b90508015610bde578060686000878786818110610b6f57610b6f611574565b9050602002013581526020019081526020016000206000016000828254610b96919061158a565b9091555042905060686000878786818110610bb357610bb3611574565b905060200201358152602001908152602001600020600101819055508083610bdb919061158a565b92505b5080610be9816115a2565b915050610a50565b508060696000828254610c04919061158a565b90915550506066546001600160a01b0316610c2857610c238133610902565b610cac565b6066546001600160a01b031663a9059cbb33836040518363ffffffff1660e01b8152600401610c58929190611692565b602060405180830381600087803b158015610c7257600080fd5b505af1158015610c86573d6000803e3d6000fd5b505050506040513d601f19601f82011682018060405250810190610caa91906116ab565b505b7f8f15b992ee81dad1534e0a4cabd2960c3fcec43609eab7fcce29e22253bae2f633848484604051610ce194939291906116cd565b60405180910390a15050600160655550565b33610cfc610df4565b6001600160a01b031614610d225760405162461bcd60e51b8152600401610727906115d6565b606d55565b600080805b8381101561065d5760686000868684818110610d4a57610d4a611574565b9050602002013581526020019081526020016000206000015482610d6e919061158a565b915080610d7a816115a2565b915050610d2c565b600081815260686020526040812054606d54610a1a9015801590610da75750606d5442115b610db15742610531565b606d54610531565b33610dc2610df4565b6001600160a01b031614610de85760405162461bcd60e51b8152600401610727906115d6565b610df26000611262565b565b6033546001600160a01b031690565b600080805b8381101561065d57610e31858583818110610e2557610e25611574565b90506020020135610d82565b610e3b908361158a565b915080610e47816115a2565b915050610e08565b33610e58610df4565b6001600160a01b031614610e7e5760405162461bcd60e51b8152600401610727906115d6565b606c55565b6000606c54821015610e9757506000919050565b606b54606c54610ea7908461151c565b610eb19190611552565b606a5461055b9190611533565b33610ec7610df4565b6001600160a01b031614610eed5760405162461bcd60e51b8152600401610727906115d6565b6001600160a01b038116610f525760405162461bcd60e51b815260206004820152602660248201527f4f776e61626c653a206e6577206f776e657220697320746865207a65726f206160448201526564647265737360d01b6064820152608401610727565b610f5b81611262565b50565b6001600160a01b03163b151590565b60008054610100900460ff1615610fbb578160ff166001148015610f975750610f9530610f5e565b155b610fb35760405162461bcd60e51b815260040161072790611724565b506000919050565b60005460ff808416911610610fe25760405162461bcd60e51b815260040161072790611724565b506000805460ff191660ff92909216919091179055600190565b919050565b600054610100900460ff16610df25760405162461bcd60e51b815260040161072790611772565b600054610100900460ff1661104f5760405162461bcd60e51b815260040161072790611772565b610df26112b4565b600054610100900460ff1661107e5760405162461bcd60e51b815260040161072790611772565b611086611001565b61108e611028565b61060d82826112e4565b42606c54106110e35760405162461bcd60e51b8152602060048201526017602482015276111254d5149250955513d48bd393d517d4d51054951151604a1b6044820152606401610727565b606b546110f0904261151c565b60008281526068602052604090206001015410610f5b5760405162461bcd60e51b81526020600482015260156024820152744449535452494255544f522f544f4f5f4541524c5960581b6044820152606401610727565b804710156111975760405162461bcd60e51b815260206004820152601d60248201527f416464726573733a20696e73756666696369656e742062616c616e63650000006044820152606401610727565b6000826001600160a01b03168260405160006040518083038185875af1925050503d80600081146111e4576040519150601f19603f3d011682016040523d82523d6000602084013e6111e9565b606091505b505090508061125d5760405162461bcd60e51b815260206004820152603a60248201527f416464726573733a20756e61626c6520746f2073656e642076616c75652c20726044820152791958da5c1a595b9d081b585e481a185d99481c995d995c9d195960321b6064820152608401610727565b505050565b603380546001600160a01b038381166001600160a01b0319831681179093556040519116919082907f8be0079c531659141344cd1fd0a4f28419497f9722a3daafe3b4186f6b6457e090600090a35050565b600054610100900460ff166112db5760405162461bcd60e51b815260040161072790611772565b610df233611262565b600054610100900460ff1661130b5760405162461bcd60e51b815260040161072790611772565b606680546001600160a01b039384166001600160a01b03199182161790915560678054929093169116179055565b60006020828403121561134b57600080fd5b5035919050565b600060208083528351808285015260005b8181101561137f57858101830151858201604001528201611363565b81811115611391576000604083870101525b50601f01601f1916929092016040019392505050565b6001600160a01b0381168114610f5b57600080fd5b8035610ffc816113a7565b600060c082840312156113d957600080fd5b60405160c081016001600160401b038111828210171561140957634e487b7160e01b600052604160045260246000fd5b604052611415836113bc565b8152611423602084016113bc565b602082015260408301356040820152606083013560608201526080830135608082015260a083013560a08201528091505092915050565b6000806020838503121561146d57600080fd5b82356001600160401b038082111561148457600080fd5b818501915085601f83011261149857600080fd5b8135818111156114a757600080fd5b8660208260051b85010111156114bc57600080fd5b60209290920196919550909350505050565b6001600160a01b0391909116815260200190565b6000602082840312156114f457600080fd5b81356114ff816113a7565b9392505050565b634e487b7160e01b600052601160045260246000fd5b60008282101561152e5761152e611506565b500390565b600081600019048311821515161561154d5761154d611506565b500290565b60008261156f57634e487b7160e01b600052601260045260246000fd5b500490565b634e487b7160e01b600052603260045260246000fd5b6000821982111561159d5761159d611506565b500190565b60006000198214156115b6576115b6611506565b5060010190565b6000602082840312156115cf57600080fd5b5051919050565b6020808252818101527f4f776e61626c653a2063616c6c6572206973206e6f7420746865206f776e6572604082015260600190565b6020808252601f908201527f5265656e7472616e637947756172643a207265656e7472616e742063616c6c00604082015260600190565b60006020828403121561165457600080fd5b81516114ff816113a7565b6020808252601990820152782224a9aa2924a12aaa27a917a727aa2fa7232a2fa7aba722a960391b604082015260600190565b6001600160a01b03929092168252602082015260400190565b6000602082840312156116bd57600080fd5b815180151581146114ff57600080fd5b6001600160a01b0385168152606060208201819052810183905260006001600160fb1b038411156116fd57600080fd5b8360051b808660808501376000908301608001908152604090920192909252949350505050565b6020808252602e908201527f496e697469616c697a61626c653a20636f6e747261637420697320616c72656160408201526d191e481a5b9a5d1a585b1a5e995960921b606082015260800190565b6020808252602b908201527f496e697469616c697a61626c653a20636f6e7472616374206973206e6f74206960408201526a6e697469616c697a696e6760a81b60608201526080019056fea2646970667358221220685e93a0d11408227373c781bb599bb2f1c946afb22f58387e75bd9729715bbe64736f6c63430008090033",
  "devdoc": {
    "kind": "dev",
    "methods": {
      "owner()": {
        "details": "Returns the address of the current owner."
      },
      "renounceOwnership()": {
        "details": "Leaves the contract without owner. It will not be possible to call `onlyOwner` functions anymore. Can only be called by the current owner. NOTE: Renouncing ownership will leave the contract without an owner, thereby removing any functionality that is only available to the owner."
      },
      "transferOwnership(address)": {
        "details": "Transfers ownership of the contract to a new account (`newOwner`). Can only be called by the current owner."
      }
    },
    "version": 1
  },
  "userdoc": {
    "kind": "user",
    "methods": {},
    "version": 1
  },
  "storageLayout": {
    "storage": [
      {
        "astId": 512,
        "contract": "contracts/streams/ERC721/presets/ERC721HolderVestedDistributor.sol:ERC721HolderVestedDistributor",
        "label": "_initialized",
        "offset": 0,
        "slot": "0",
        "type": "t_uint8"
      },
      {
        "astId": 515,
        "contract": "contracts/streams/ERC721/presets/ERC721HolderVestedDistributor.sol:ERC721HolderVestedDistributor",
        "label": "_initializing",
        "offset": 1,
        "slot": "0",
        "type": "t_bool"
      },
      {
        "astId": 931,
        "contract": "contracts/streams/ERC721/presets/ERC721HolderVestedDistributor.sol:ERC721HolderVestedDistributor",
        "label": "__gap",
        "offset": 0,
        "slot": "1",
        "type": "t_array(t_uint256)50_storage"
      },
      {
        "astId": 392,
        "contract": "contracts/streams/ERC721/presets/ERC721HolderVestedDistributor.sol:ERC721HolderVestedDistributor",
        "label": "_owner",
        "offset": 0,
        "slot": "51",
        "type": "t_address"
      },
      {
        "astId": 504,
        "contract": "contracts/streams/ERC721/presets/ERC721HolderVestedDistributor.sol:ERC721HolderVestedDistributor",
        "label": "__gap",
        "offset": 0,
        "slot": "52",
        "type": "t_array(t_uint256)49_storage"
      },
      {
        "astId": 1533,
        "contract": "contracts/streams/ERC721/presets/ERC721HolderVestedDistributor.sol:ERC721HolderVestedDistributor",
        "label": "_status",
        "offset": 0,
        "slot": "101",
        "type": "t_uint256"
      },
      {
        "astId": 10211,
        "contract": "contracts/streams/ERC721/presets/ERC721HolderVestedDistributor.sol:ERC721HolderVestedDistributor",
        "label": "claimToken",
        "offset": 0,
        "slot": "102",
        "type": "t_address"
      },
      {
        "astId": 10213,
        "contract": "contracts/streams/ERC721/presets/ERC721HolderVestedDistributor.sol:ERC721HolderVestedDistributor",
        "label": "ticketToken",
        "offset": 0,
        "slot": "103",
        "type": "t_address"
      },
      {
        "astId": 10218,
        "contract": "contracts/streams/ERC721/presets/ERC721HolderVestedDistributor.sol:ERC721HolderVestedDistributor",
        "label": "entitlements",
        "offset": 0,
        "slot": "104",
        "type": "t_mapping(t_uint256,t_struct(Entitlement)10209_storage)"
      },
      {
        "astId": 10220,
        "contract": "contracts/streams/ERC721/presets/ERC721HolderVestedDistributor.sol:ERC721HolderVestedDistributor",
        "label": "streamTotalClaimed",
        "offset": 0,
        "slot": "105",
        "type": "t_uint256"
      },
      {
        "astId": 10658,
        "contract": "contracts/streams/ERC721/presets/ERC721HolderVestedDistributor.sol:ERC721HolderVestedDistributor",
        "label": "vestingRate",
        "offset": 0,
        "slot": "106",
        "type": "t_uint256"
      },
      {
        "astId": 10660,
        "contract": "contracts/streams/ERC721/presets/ERC721HolderVestedDistributor.sol:ERC721HolderVestedDistributor",
        "label": "vestingTimeUnit",
        "offset": 0,
        "slot": "107",
        "type": "t_uint256"
      },
      {
        "astId": 10662,
        "contract": "contracts/streams/ERC721/presets/ERC721HolderVestedDistributor.sol:ERC721HolderVestedDistributor",
        "label": "claimStart",
        "offset": 0,
        "slot": "108",
        "type": "t_uint256"
      },
      {
        "astId": 10664,
        "contract": "contracts/streams/ERC721/presets/ERC721HolderVestedDistributor.sol:ERC721HolderVestedDistributor",
        "label": "claimEnd",
        "offset": 0,
        "slot": "109",
        "type": "t_uint256"
      }
    ],
    "types": {
      "t_address": {
        "encoding": "inplace",
        "label": "address",
        "numberOfBytes": "20"
      },
      "t_array(t_uint256)49_storage": {
        "base": "t_uint256",
        "encoding": "inplace",
        "label": "uint256[49]",
        "numberOfBytes": "1568"
      },
      "t_array(t_uint256)50_storage": {
        "base": "t_uint256",
        "encoding": "inplace",
        "label": "uint256[50]",
        "numberOfBytes": "1600"
      },
      "t_bool": {
        "encoding": "inplace",
        "label": "bool",
        "numberOfBytes": "1"
      },
      "t_mapping(t_uint256,t_struct(Entitlement)10209_storage)": {
        "encoding": "mapping",
        "key": "t_uint256",
        "label": "mapping(uint256 => struct ERC721SingleTokenDistributor.Entitlement)",
        "numberOfBytes": "32",
        "value": "t_struct(Entitlement)10209_storage"
      },
      "t_struct(Entitlement)10209_storage": {
        "encoding": "inplace",
        "label": "struct ERC721SingleTokenDistributor.Entitlement",
        "members": [
          {
            "astId": 10206,
            "contract": "contracts/streams/ERC721/presets/ERC721HolderVestedDistributor.sol:ERC721HolderVestedDistributor",
            "label": "totalClaimed",
            "offset": 0,
            "slot": "0",
            "type": "t_uint256"
          },
          {
            "astId": 10208,
            "contract": "contracts/streams/ERC721/presets/ERC721HolderVestedDistributor.sol:ERC721HolderVestedDistributor",
            "label": "lastClaimedAt",
            "offset": 0,
            "slot": "1",
            "type": "t_uint256"
          }
        ],
        "numberOfBytes": "64"
      },
      "t_uint256": {
        "encoding": "inplace",
        "label": "uint256",
        "numberOfBytes": "32"
      },
      "t_uint8": {
        "encoding": "inplace",
        "label": "uint8",
        "numberOfBytes": "1"
      }
    }
  }
}