{
  "address": "0x5958867a1d71cDE1510939d3da51a032807ce89E",
  "abi": [
    {
      "inputs": [
        {
          "components": [
            {
              "internalType": "string",
              "name": "name",
              "type": "string"
            },
            {
              "internalType": "string",
              "name": "symbol",
              "type": "string"
            },
            {
              "internalType": "string",
              "name": "contractURI",
              "type": "string"
            },
            {
              "internalType": "string",
              "name": "placeholderURI",
              "type": "string"
            },
            {
              "internalType": "string",
              "name": "tokenURIPrefix",
              "type": "string"
            },
            {
              "internalType": "uint256",
              "name": "maxSupply",
              "type": "uint256"
            },
            {
              "internalType": "uint256",
              "name": "preSalePrice",
              "type": "uint256"
            },
            {
              "internalType": "uint256",
              "name": "preSaleMaxMintPerWallet",
              "type": "uint256"
            },
            {
              "internalType": "uint256",
              "name": "publicSalePrice",
              "type": "uint256"
            },
            {
              "internalType": "uint256",
              "name": "publicSaleMaxMintPerTx",
              "type": "uint256"
            },
            {
              "internalType": "address",
              "name": "defaultRoyaltyAddress",
              "type": "address"
            },
            {
              "internalType": "uint16",
              "name": "defaultRoyaltyBps",
              "type": "uint16"
            },
            {
              "internalType": "address",
              "name": "proceedsRecipient",
              "type": "address"
            },
            {
              "internalType": "address",
              "name": "openSeaProxyRegistryAddress",
              "type": "address"
            },
            {
              "internalType": "address",
              "name": "openSeaExchangeAddress",
              "type": "address"
            },
            {
              "internalType": "address",
              "name": "trustedForwarder",
              "type": "address"
            }
          ],
          "internalType": "struct ERC721AFullFeaturedCollection.Config",
          "name": "config",
          "type": "tuple"
        }
      ],
      "stateMutability": "nonpayable",
      "type": "constructor"
    },
    {
      "inputs": [],
      "name": "ApprovalCallerNotOwnerNorApproved",
      "type": "error"
    },
    {
      "inputs": [],
      "name": "ApprovalQueryForNonexistentToken",
      "type": "error"
    },
    {
      "inputs": [],
      "name": "ApproveToCaller",
      "type": "error"
    },
    {
      "inputs": [],
      "name": "BalanceQueryForZeroAddress",
      "type": "error"
    },
    {
      "inputs": [],
      "name": "MintERC2309QuantityExceedsLimit",
      "type": "error"
    },
    {
      "inputs": [],
      "name": "MintToZeroAddress",
      "type": "error"
    },
    {
      "inputs": [],
      "name": "MintZeroQuantity",
      "type": "error"
    },
    {
      "inputs": [],
      "name": "OwnerQueryForNonexistentToken",
      "type": "error"
    },
    {
      "inputs": [],
      "name": "OwnershipNotInitializedForExtraData",
      "type": "error"
    },
    {
      "inputs": [],
      "name": "TransferCallerNotOwnerNorApproved",
      "type": "error"
    },
    {
      "inputs": [],
      "name": "TransferFromIncorrectOwner",
      "type": "error"
    },
    {
      "inputs": [],
      "name": "TransferToNonERC721ReceiverImplementer",
      "type": "error"
    },
    {
      "inputs": [],
      "name": "TransferToZeroAddress",
      "type": "error"
    },
    {
      "inputs": [],
      "name": "URIQueryForNonexistentToken",
      "type": "error"
    },
    {
      "anonymous": false,
      "inputs": [
        {
          "indexed": true,
          "internalType": "address",
          "name": "owner",
          "type": "address"
        },
        {
          "indexed": true,
          "internalType": "address",
          "name": "approved",
          "type": "address"
        },
        {
          "indexed": true,
          "internalType": "uint256",
          "name": "tokenId",
          "type": "uint256"
        }
      ],
      "name": "Approval",
      "type": "event"
    },
    {
      "anonymous": false,
      "inputs": [
        {
          "indexed": true,
          "internalType": "address",
          "name": "owner",
          "type": "address"
        },
        {
          "indexed": true,
          "internalType": "address",
          "name": "operator",
          "type": "address"
        },
        {
          "indexed": false,
          "internalType": "bool",
          "name": "approved",
          "type": "bool"
        }
      ],
      "name": "ApprovalForAll",
      "type": "event"
    },
    {
      "anonymous": false,
      "inputs": [
        {
          "indexed": true,
          "internalType": "uint256",
          "name": "fromTokenId",
          "type": "uint256"
        },
        {
          "indexed": false,
          "internalType": "uint256",
          "name": "toTokenId",
          "type": "uint256"
        },
        {
          "indexed": true,
          "internalType": "address",
          "name": "from",
          "type": "address"
        },
        {
          "indexed": true,
          "internalType": "address",
          "name": "to",
          "type": "address"
        }
      ],
      "name": "ConsecutiveTransfer",
      "type": "event"
    },
    {
      "anonymous": false,
      "inputs": [
        {
          "indexed": false,
          "internalType": "address",
          "name": "recipient",
          "type": "address"
        },
        {
          "indexed": false,
          "internalType": "uint16",
          "name": "bps",
          "type": "uint16"
        }
      ],
      "name": "DefaultRoyaltySet",
      "type": "event"
    },
    {
      "anonymous": false,
      "inputs": [
        {
          "indexed": false,
          "internalType": "uint8",
          "name": "version",
          "type": "uint8"
        }
      ],
      "name": "Initialized",
      "type": "event"
    },
    {
      "anonymous": false,
      "inputs": [
        {
          "indexed": true,
          "internalType": "address",
          "name": "previousOwner",
          "type": "address"
        },
        {
          "indexed": true,
          "internalType": "address",
          "name": "newOwner",
          "type": "address"
        }
      ],
      "name": "OwnershipTransferred",
      "type": "event"
    },
    {
      "anonymous": false,
      "inputs": [
        {
          "indexed": true,
          "internalType": "bytes32",
          "name": "role",
          "type": "bytes32"
        },
        {
          "indexed": true,
          "internalType": "bytes32",
          "name": "previousAdminRole",
          "type": "bytes32"
        },
        {
          "indexed": true,
          "internalType": "bytes32",
          "name": "newAdminRole",
          "type": "bytes32"
        }
      ],
      "name": "RoleAdminChanged",
      "type": "event"
    },
    {
      "anonymous": false,
      "inputs": [
        {
          "indexed": true,
          "internalType": "bytes32",
          "name": "role",
          "type": "bytes32"
        },
        {
          "indexed": true,
          "internalType": "address",
          "name": "account",
          "type": "address"
        },
        {
          "indexed": true,
          "internalType": "address",
          "name": "sender",
          "type": "address"
        }
      ],
      "name": "RoleGranted",
      "type": "event"
    },
    {
      "anonymous": false,
      "inputs": [
        {
          "indexed": true,
          "internalType": "bytes32",
          "name": "role",
          "type": "bytes32"
        },
        {
          "indexed": true,
          "internalType": "address",
          "name": "account",
          "type": "address"
        },
        {
          "indexed": true,
          "internalType": "address",
          "name": "sender",
          "type": "address"
        }
      ],
      "name": "RoleRevoked",
      "type": "event"
    },
    {
      "anonymous": false,
      "inputs": [
        {
          "indexed": false,
          "internalType": "uint256",
          "name": "tokenId",
          "type": "uint256"
        }
      ],
      "name": "TokenRoyaltyRemoved",
      "type": "event"
    },
    {
      "anonymous": false,
      "inputs": [
        {
          "indexed": false,
          "internalType": "uint256",
          "name": "tokenId",
          "type": "uint256"
        },
        {
          "indexed": false,
          "internalType": "address",
          "name": "recipient",
          "type": "address"
        },
        {
          "indexed": false,
          "internalType": "uint16",
          "name": "bps",
          "type": "uint16"
        }
      ],
      "name": "TokenRoyaltySet",
      "type": "event"
    },
    {
      "anonymous": false,
      "inputs": [
        {
          "indexed": true,
          "internalType": "address",
          "name": "from",
          "type": "address"
        },
        {
          "indexed": true,
          "internalType": "address",
          "name": "to",
          "type": "address"
        },
        {
          "indexed": true,
          "internalType": "uint256",
          "name": "tokenId",
          "type": "uint256"
        }
      ],
      "name": "Transfer",
      "type": "event"
    },
    {
      "inputs": [],
      "name": "DEFAULT_ADMIN_ROLE",
      "outputs": [
        {
          "internalType": "bytes32",
          "name": "",
          "type": "bytes32"
        }
      ],
      "stateMutability": "view",
      "type": "function"
    },
    {
      "inputs": [],
      "name": "MINTER_ROLE",
      "outputs": [
        {
          "internalType": "bytes32",
          "name": "",
          "type": "bytes32"
        }
      ],
      "stateMutability": "view",
      "type": "function"
    },
    {
      "inputs": [],
      "name": "_trustedForwarder",
      "outputs": [
        {
          "internalType": "address",
          "name": "",
          "type": "address"
        }
      ],
      "stateMutability": "view",
      "type": "function"
    },
    {
      "inputs": [
        {
          "internalType": "address",
          "name": "to",
          "type": "address"
        },
        {
          "internalType": "uint256",
          "name": "tokenId",
          "type": "uint256"
        }
      ],
      "name": "approve",
      "outputs": [],
      "stateMutability": "nonpayable",
      "type": "function"
    },
    {
      "inputs": [
        {
          "internalType": "address",
          "name": "owner",
          "type": "address"
        }
      ],
      "name": "balanceOf",
      "outputs": [
        {
          "internalType": "uint256",
          "name": "",
          "type": "uint256"
        }
      ],
      "stateMutability": "view",
      "type": "function"
    },
    {
      "inputs": [],
      "name": "contractURI",
      "outputs": [
        {
          "internalType": "string",
          "name": "",
          "type": "string"
        }
      ],
      "stateMutability": "view",
      "type": "function"
    },
    {
      "inputs": [],
      "name": "defaultRoyalty",
      "outputs": [
        {
          "internalType": "address",
          "name": "recipient",
          "type": "address"
        },
        {
          "internalType": "uint16",
          "name": "bps",
          "type": "uint16"
        }
      ],
      "stateMutability": "view",
      "type": "function"
    },
    {
      "inputs": [],
      "name": "freezeMaxSupply",
      "outputs": [],
      "stateMutability": "nonpayable",
      "type": "function"
    },
    {
      "inputs": [],
      "name": "freezeTokenURI",
      "outputs": [],
      "stateMutability": "nonpayable",
      "type": "function"
    },
    {
      "inputs": [
        {
          "internalType": "uint256",
          "name": "tokenId",
          "type": "uint256"
        }
      ],
      "name": "getApproved",
      "outputs": [
        {
          "internalType": "address",
          "name": "",
          "type": "address"
        }
      ],
      "stateMutability": "view",
      "type": "function"
    },
    {
      "inputs": [],
      "name": "getInfo",
      "outputs": [
        {
          "internalType": "uint256",
          "name": "_maxSupply",
          "type": "uint256"
        },
        {
          "internalType": "uint256",
          "name": "_totalSupply",
          "type": "uint256"
        },
        {
          "internalType": "uint256",
          "name": "_senderBalance",
          "type": "uint256"
        },
        {
          "internalType": "uint256",
          "name": "_preSalePrice",
          "type": "uint256"
        },
        {
          "internalType": "uint256",
          "name": "_preSaleMaxMintPerWallet",
          "type": "uint256"
        },
        {
          "internalType": "uint256",
          "name": "_preSaleAlreadyClaimed",
          "type": "uint256"
        },
        {
          "internalType": "bool",
          "name": "_preSaleActive",
          "type": "bool"
        },
        {
          "internalType": "uint256",
          "name": "_publicSalePrice",
          "type": "uint256"
        },
        {
          "internalType": "uint256",
          "name": "_publicSaleMaxMintPerTx",
          "type": "uint256"
        },
        {
          "internalType": "bool",
          "name": "_publicSaleActive",
          "type": "bool"
        }
      ],
      "stateMutability": "view",
      "type": "function"
    },
    {
      "inputs": [
        {
          "internalType": "uint256",
          "name": "id",
          "type": "uint256"
        }
      ],
      "name": "getRaribleV2Royalties",
      "outputs": [
        {
          "components": [
            {
              "internalType": "address payable",
              "name": "account",
              "type": "address"
            },
            {
              "internalType": "uint96",
              "name": "value",
              "type": "uint96"
            }
          ],
          "internalType": "struct LibPart.Part[]",
          "name": "result",
          "type": "tuple[]"
        }
      ],
      "stateMutability": "view",
      "type": "function"
    },
    {
      "inputs": [
        {
          "internalType": "bytes32",
          "name": "role",
          "type": "bytes32"
        }
      ],
      "name": "getRoleAdmin",
      "outputs": [
        {
          "internalType": "bytes32",
          "name": "",
          "type": "bytes32"
        }
      ],
      "stateMutability": "view",
      "type": "function"
    },
    {
      "inputs": [],
      "name": "getTokenRoyaltiesCount",
      "outputs": [
        {
          "internalType": "uint256",
          "name": "",
          "type": "uint256"
        }
      ],
      "stateMutability": "view",
      "type": "function"
    },
    {
      "inputs": [
        {
          "internalType": "uint256",
          "name": "index",
          "type": "uint256"
        }
      ],
      "name": "getTokenRoyaltyByIndex",
      "outputs": [
        {
          "components": [
            {
              "internalType": "uint256",
              "name": "tokenId",
              "type": "uint256"
            },
            {
              "internalType": "address",
              "name": "recipient",
              "type": "address"
            },
            {
              "internalType": "uint16",
              "name": "bps",
              "type": "uint16"
            }
          ],
          "internalType": "struct IEIP2981RoyaltyOverride.TokenRoyaltyConfig",
          "name": "",
          "type": "tuple"
        }
      ],
      "stateMutability": "view",
      "type": "function"
    },
    {
      "inputs": [
        {
          "internalType": "bytes32",
          "name": "role",
          "type": "bytes32"
        },
        {
          "internalType": "address",
          "name": "account",
          "type": "address"
        }
      ],
      "name": "grantRole",
      "outputs": [],
      "stateMutability": "nonpayable",
      "type": "function"
    },
    {
      "inputs": [
        {
          "internalType": "bytes32",
          "name": "role",
          "type": "bytes32"
        },
        {
          "internalType": "address",
          "name": "account",
          "type": "address"
        }
      ],
      "name": "hasRole",
      "outputs": [
        {
          "internalType": "bool",
          "name": "",
          "type": "bool"
        }
      ],
      "stateMutability": "view",
      "type": "function"
    },
    {
      "inputs": [
        {
          "components": [
            {
              "internalType": "string",
              "name": "name",
              "type": "string"
            },
            {
              "internalType": "string",
              "name": "symbol",
              "type": "string"
            },
            {
              "internalType": "string",
              "name": "contractURI",
              "type": "string"
            },
            {
              "internalType": "string",
              "name": "placeholderURI",
              "type": "string"
            },
            {
              "internalType": "string",
              "name": "tokenURIPrefix",
              "type": "string"
            },
            {
              "internalType": "uint256",
              "name": "maxSupply",
              "type": "uint256"
            },
            {
              "internalType": "uint256",
              "name": "preSalePrice",
              "type": "uint256"
            },
            {
              "internalType": "uint256",
              "name": "preSaleMaxMintPerWallet",
              "type": "uint256"
            },
            {
              "internalType": "uint256",
              "name": "publicSalePrice",
              "type": "uint256"
            },
            {
              "internalType": "uint256",
              "name": "publicSaleMaxMintPerTx",
              "type": "uint256"
            },
            {
              "internalType": "address",
              "name": "defaultRoyaltyAddress",
              "type": "address"
            },
            {
              "internalType": "uint16",
              "name": "defaultRoyaltyBps",
              "type": "uint16"
            },
            {
              "internalType": "address",
              "name": "proceedsRecipient",
              "type": "address"
            },
            {
              "internalType": "address",
              "name": "openSeaProxyRegistryAddress",
              "type": "address"
            },
            {
              "internalType": "address",
              "name": "openSeaExchangeAddress",
              "type": "address"
            },
            {
              "internalType": "address",
              "name": "trustedForwarder",
              "type": "address"
            }
          ],
          "internalType": "struct ERC721AFullFeaturedCollection.Config",
          "name": "config",
          "type": "tuple"
        },
        {
          "internalType": "address",
          "name": "deployer",
          "type": "address"
        }
      ],
      "name": "initialize",
      "outputs": [],
      "stateMutability": "nonpayable",
      "type": "function"
    },
    {
      "inputs": [
        {
          "internalType": "address",
          "name": "owner",
          "type": "address"
        },
        {
          "internalType": "address",
          "name": "operator",
          "type": "address"
        }
      ],
      "name": "isApprovedForAll",
      "outputs": [
        {
          "internalType": "bool",
          "name": "",
          "type": "bool"
        }
      ],
      "stateMutability": "view",
      "type": "function"
    },
    {
      "inputs": [
        {
          "internalType": "address",
          "name": "forwarder",
          "type": "address"
        }
      ],
      "name": "isTrustedForwarder",
      "outputs": [
        {
          "internalType": "bool",
          "name": "",
          "type": "bool"
        }
      ],
      "stateMutability": "view",
      "type": "function"
    },
    {
      "inputs": [],
      "name": "lockProceedsRecipient",
      "outputs": [],
      "stateMutability": "nonpayable",
      "type": "function"
    },
    {
      "inputs": [],
      "name": "maxSupply",
      "outputs": [
        {
          "internalType": "uint256",
          "name": "",
          "type": "uint256"
        }
      ],
      "stateMutability": "view",
      "type": "function"
    },
    {
      "inputs": [],
      "name": "maxSupplyFrozen",
      "outputs": [
        {
          "internalType": "bool",
          "name": "",
          "type": "bool"
        }
      ],
      "stateMutability": "view",
      "type": "function"
    },
    {
      "inputs": [
        {
          "internalType": "address",
          "name": "to",
          "type": "address"
        },
        {
          "internalType": "uint256",
          "name": "count",
          "type": "uint256"
        }
      ],
      "name": "mintByOwner",
      "outputs": [],
      "stateMutability": "nonpayable",
      "type": "function"
    },
    {
      "inputs": [
        {
          "internalType": "address",
          "name": "to",
          "type": "address"
        },
        {
          "internalType": "uint256",
          "name": "count",
          "type": "uint256"
        }
      ],
      "name": "mintByRole",
      "outputs": [],
      "stateMutability": "nonpayable",
      "type": "function"
    },
    {
      "inputs": [
        {
          "internalType": "uint256",
          "name": "count",
          "type": "uint256"
        },
        {
          "internalType": "bytes32[]",
          "name": "proof",
          "type": "bytes32[]"
        }
      ],
      "name": "mintPreSale",
      "outputs": [],
      "stateMutability": "payable",
      "type": "function"
    },
    {
      "inputs": [
        {
          "internalType": "address",
          "name": "to",
          "type": "address"
        },
        {
          "internalType": "uint256",
          "name": "count",
          "type": "uint256"
        }
      ],
      "name": "mintPublicSale",
      "outputs": [],
      "stateMutability": "payable",
      "type": "function"
    },
    {
      "inputs": [],
      "name": "name",
      "outputs": [
        {
          "internalType": "string",
          "name": "",
          "type": "string"
        }
      ],
      "stateMutability": "view",
      "type": "function"
    },
    {
      "inputs": [
        {
          "internalType": "address",
          "name": "minter",
          "type": "address"
        },
        {
          "internalType": "bytes32[]",
          "name": "proof",
          "type": "bytes32[]"
        }
      ],
      "name": "onPreSaleAllowList",
      "outputs": [
        {
          "internalType": "bool",
          "name": "",
          "type": "bool"
        }
      ],
      "stateMutability": "view",
      "type": "function"
    },
    {
      "inputs": [],
      "name": "owner",
      "outputs": [
        {
          "internalType": "address",
          "name": "",
          "type": "address"
        }
      ],
      "stateMutability": "view",
      "type": "function"
    },
    {
      "inputs": [
        {
          "internalType": "uint256",
          "name": "tokenId",
          "type": "uint256"
        }
      ],
      "name": "ownerOf",
      "outputs": [
        {
          "internalType": "address",
          "name": "",
          "type": "address"
        }
      ],
      "stateMutability": "view",
      "type": "function"
    },
    {
      "inputs": [],
      "name": "placeholderURI",
      "outputs": [
        {
          "internalType": "string",
          "name": "",
          "type": "string"
        }
      ],
      "stateMutability": "view",
      "type": "function"
    },
    {
      "inputs": [],
      "name": "preSaleAllowlistMerkleRoot",
      "outputs": [
        {
          "internalType": "bytes32",
          "name": "",
          "type": "bytes32"
        }
      ],
      "stateMutability": "view",
      "type": "function"
    },
    {
      "inputs": [],
      "name": "preSaleMaxMintPerWallet",
      "outputs": [
        {
          "internalType": "uint256",
          "name": "",
          "type": "uint256"
        }
      ],
      "stateMutability": "view",
      "type": "function"
    },
    {
      "inputs": [],
      "name": "preSalePrice",
      "outputs": [
        {
          "internalType": "uint256",
          "name": "",
          "type": "uint256"
        }
      ],
      "stateMutability": "view",
      "type": "function"
    },
    {
      "inputs": [],
      "name": "preSaleStatus",
      "outputs": [
        {
          "internalType": "bool",
          "name": "",
          "type": "bool"
        }
      ],
      "stateMutability": "view",
      "type": "function"
    },
    {
      "inputs": [],
      "name": "proceedsRecipient",
      "outputs": [
        {
          "internalType": "address",
          "name": "",
          "type": "address"
        }
      ],
      "stateMutability": "view",
      "type": "function"
    },
    {
      "inputs": [],
      "name": "proceedsRecipientLocked",
      "outputs": [
        {
          "internalType": "bool",
          "name": "",
          "type": "bool"
        }
      ],
      "stateMutability": "view",
      "type": "function"
    },
    {
      "inputs": [],
      "name": "publicSaleMaxMintPerTx",
      "outputs": [
        {
          "internalType": "uint256",
          "name": "",
          "type": "uint256"
        }
      ],
      "stateMutability": "view",
      "type": "function"
    },
    {
      "inputs": [],
      "name": "publicSalePrice",
      "outputs": [
        {
          "internalType": "uint256",
          "name": "",
          "type": "uint256"
        }
      ],
      "stateMutability": "view",
      "type": "function"
    },
    {
      "inputs": [],
      "name": "publicSaleStatus",
      "outputs": [
        {
          "internalType": "bool",
          "name": "",
          "type": "bool"
        }
      ],
      "stateMutability": "view",
      "type": "function"
    },
    {
      "inputs": [],
      "name": "renounceOwnership",
      "outputs": [],
      "stateMutability": "nonpayable",
      "type": "function"
    },
    {
      "inputs": [
        {
          "internalType": "bytes32",
          "name": "role",
          "type": "bytes32"
        },
        {
          "internalType": "address",
          "name": "account",
          "type": "address"
        }
      ],
      "name": "renounceRole",
      "outputs": [],
      "stateMutability": "nonpayable",
      "type": "function"
    },
    {
      "inputs": [
        {
          "internalType": "bytes32",
          "name": "role",
          "type": "bytes32"
        },
        {
          "internalType": "address",
          "name": "account",
          "type": "address"
        }
      ],
      "name": "revokeRole",
      "outputs": [],
      "stateMutability": "nonpayable",
      "type": "function"
    },
    {
      "inputs": [
        {
          "internalType": "uint256",
          "name": "tokenId",
          "type": "uint256"
        },
        {
          "internalType": "uint256",
          "name": "value",
          "type": "uint256"
        }
      ],
      "name": "royaltyInfo",
      "outputs": [
        {
          "internalType": "address",
          "name": "",
          "type": "address"
        },
        {
          "internalType": "uint256",
          "name": "",
          "type": "uint256"
        }
      ],
      "stateMutability": "view",
      "type": "function"
    },
    {
      "inputs": [
        {
          "internalType": "address",
          "name": "from",
          "type": "address"
        },
        {
          "internalType": "address",
          "name": "to",
          "type": "address"
        },
        {
          "internalType": "uint256",
          "name": "tokenId",
          "type": "uint256"
        }
      ],
      "name": "safeTransferFrom",
      "outputs": [],
      "stateMutability": "nonpayable",
      "type": "function"
    },
    {
      "inputs": [
        {
          "internalType": "address",
          "name": "from",
          "type": "address"
        },
        {
          "internalType": "address",
          "name": "to",
          "type": "address"
        },
        {
          "internalType": "uint256",
          "name": "tokenId",
          "type": "uint256"
        },
        {
          "internalType": "bytes",
          "name": "_data",
          "type": "bytes"
        }
      ],
      "name": "safeTransferFrom",
      "outputs": [],
      "stateMutability": "nonpayable",
      "type": "function"
    },
    {
      "inputs": [
        {
          "internalType": "bytes32",
          "name": "newRoot",
          "type": "bytes32"
        }
      ],
      "name": "setAllowlistMerkleRoot",
      "outputs": [],
      "stateMutability": "nonpayable",
      "type": "function"
    },
    {
      "inputs": [
        {
          "internalType": "address",
          "name": "operator",
          "type": "address"
        },
        {
          "internalType": "bool",
          "name": "approved",
          "type": "bool"
        }
      ],
      "name": "setApprovalForAll",
      "outputs": [],
      "stateMutability": "nonpayable",
      "type": "function"
    },
    {
      "inputs": [
        {
          "internalType": "string",
          "name": "newValue",
          "type": "string"
        }
      ],
      "name": "setContractURI",
      "outputs": [],
      "stateMutability": "nonpayable",
      "type": "function"
    },
    {
      "inputs": [
        {
          "components": [
            {
              "internalType": "address",
              "name": "recipient",
              "type": "address"
            },
            {
              "internalType": "uint16",
              "name": "bps",
              "type": "uint16"
            }
          ],
          "internalType": "struct IEIP2981RoyaltyOverride.TokenRoyalty",
          "name": "royalty",
          "type": "tuple"
        }
      ],
      "name": "setDefaultRoyalty",
      "outputs": [],
      "stateMutability": "nonpayable",
      "type": "function"
    },
    {
      "inputs": [
        {
          "internalType": "uint256",
          "name": "newValue",
          "type": "uint256"
        }
      ],
      "name": "setMaxSupply",
      "outputs": [],
      "stateMutability": "nonpayable",
      "type": "function"
    },
    {
      "inputs": [
        {
          "internalType": "address",
          "name": "addr",
          "type": "address"
        }
      ],
      "name": "setOpenSeaExchangeAddress",
      "outputs": [],
      "stateMutability": "nonpayable",
      "type": "function"
    },
    {
      "inputs": [
        {
          "internalType": "address",
          "name": "addr",
          "type": "address"
        }
      ],
      "name": "setOpenSeaProxyRegistryAddress",
      "outputs": [],
      "stateMutability": "nonpayable",
      "type": "function"
    },
    {
      "inputs": [
        {
          "internalType": "string",
          "name": "newValue",
          "type": "string"
        }
      ],
      "name": "setPlaceholderURI",
      "outputs": [],
      "stateMutability": "nonpayable",
      "type": "function"
    },
    {
      "inputs": [
        {
          "internalType": "uint256",
          "name": "newValue",
          "type": "uint256"
        }
      ],
      "name": "setPreSaleMaxMintPerWallet",
      "outputs": [],
      "stateMutability": "nonpayable",
      "type": "function"
    },
    {
      "inputs": [
        {
          "internalType": "uint256",
          "name": "newValue",
          "type": "uint256"
        }
      ],
      "name": "setPreSalePrice",
      "outputs": [],
      "stateMutability": "nonpayable",
      "type": "function"
    },
    {
      "inputs": [
        {
          "internalType": "address",
          "name": "_proceedsRecipient",
          "type": "address"
        }
      ],
      "name": "setProceedsRecipient",
      "outputs": [],
      "stateMutability": "nonpayable",
      "type": "function"
    },
    {
      "inputs": [
        {
          "internalType": "uint256",
          "name": "newValue",
          "type": "uint256"
        }
      ],
      "name": "setPublicSaleMaxMintPerTx",
      "outputs": [],
      "stateMutability": "nonpayable",
      "type": "function"
    },
    {
      "inputs": [
        {
          "internalType": "uint256",
          "name": "newValue",
          "type": "uint256"
        }
      ],
      "name": "setPublicSalePrice",
      "outputs": [],
      "stateMutability": "nonpayable",
      "type": "function"
    },
    {
      "inputs": [
        {
          "components": [
            {
              "internalType": "uint256",
              "name": "tokenId",
              "type": "uint256"
            },
            {
              "internalType": "address",
              "name": "recipient",
              "type": "address"
            },
            {
              "internalType": "uint16",
              "name": "bps",
              "type": "uint16"
            }
          ],
          "internalType": "struct IEIP2981RoyaltyOverride.TokenRoyaltyConfig[]",
          "name": "royaltyConfigs",
          "type": "tuple[]"
        }
      ],
      "name": "setTokenRoyalties",
      "outputs": [],
      "stateMutability": "nonpayable",
      "type": "function"
    },
    {
      "inputs": [
        {
          "internalType": "string",
          "name": "newValue",
          "type": "string"
        }
      ],
      "name": "setTokenURIPrefix",
      "outputs": [],
      "stateMutability": "nonpayable",
      "type": "function"
    },
    {
      "inputs": [
        {
          "internalType": "string",
          "name": "newValue",
          "type": "string"
        }
      ],
      "name": "setTokenURISuffix",
      "outputs": [],
      "stateMutability": "nonpayable",
      "type": "function"
    },
    {
      "inputs": [
        {
          "internalType": "address",
          "name": "trustedForwarder",
          "type": "address"
        }
      ],
      "name": "setTrustedForwarder",
      "outputs": [],
      "stateMutability": "nonpayable",
      "type": "function"
    },
    {
      "inputs": [
        {
          "internalType": "bytes4",
          "name": "interfaceId",
          "type": "bytes4"
        }
      ],
      "name": "supportsInterface",
      "outputs": [
        {
          "internalType": "bool",
          "name": "",
          "type": "bool"
        }
      ],
      "stateMutability": "view",
      "type": "function"
    },
    {
      "inputs": [],
      "name": "symbol",
      "outputs": [
        {
          "internalType": "string",
          "name": "",
          "type": "string"
        }
      ],
      "stateMutability": "view",
      "type": "function"
    },
    {
      "inputs": [
        {
          "internalType": "bool",
          "name": "isActive",
          "type": "bool"
        }
      ],
      "name": "togglePreSaleStatus",
      "outputs": [],
      "stateMutability": "nonpayable",
      "type": "function"
    },
    {
      "inputs": [
        {
          "internalType": "bool",
          "name": "isActive",
          "type": "bool"
        }
      ],
      "name": "togglePublicSaleStatus",
      "outputs": [],
      "stateMutability": "nonpayable",
      "type": "function"
    },
    {
      "inputs": [
        {
          "internalType": "uint256",
          "name": "_tokenId",
          "type": "uint256"
        }
      ],
      "name": "tokenURI",
      "outputs": [
        {
          "internalType": "string",
          "name": "",
          "type": "string"
        }
      ],
      "stateMutability": "view",
      "type": "function"
    },
    {
      "inputs": [],
      "name": "tokenURIFrozen",
      "outputs": [
        {
          "internalType": "bool",
          "name": "",
          "type": "bool"
        }
      ],
      "stateMutability": "view",
      "type": "function"
    },
    {
      "inputs": [],
      "name": "tokenURIPrefix",
      "outputs": [
        {
          "internalType": "string",
          "name": "",
          "type": "string"
        }
      ],
      "stateMutability": "view",
      "type": "function"
    },
    {
      "inputs": [],
      "name": "tokenURISuffix",
      "outputs": [
        {
          "internalType": "string",
          "name": "",
          "type": "string"
        }
      ],
      "stateMutability": "view",
      "type": "function"
    },
    {
      "inputs": [],
      "name": "totalSupply",
      "outputs": [
        {
          "internalType": "uint256",
          "name": "",
          "type": "uint256"
        }
      ],
      "stateMutability": "view",
      "type": "function"
    },
    {
      "inputs": [
        {
          "internalType": "address",
          "name": "from",
          "type": "address"
        },
        {
          "internalType": "address",
          "name": "to",
          "type": "address"
        },
        {
          "internalType": "uint256",
          "name": "tokenId",
          "type": "uint256"
        }
      ],
      "name": "transferFrom",
      "outputs": [],
      "stateMutability": "nonpayable",
      "type": "function"
    },
    {
      "inputs": [
        {
          "internalType": "address",
          "name": "newOwner",
          "type": "address"
        }
      ],
      "name": "transferOwnership",
      "outputs": [],
      "stateMutability": "nonpayable",
      "type": "function"
    },
    {
      "inputs": [],
      "name": "withdraw",
      "outputs": [],
      "stateMutability": "nonpayable",
      "type": "function"
    }
  ],
  "transactionHash": "0xa045d29fdd74a97cfc80d8ab66e5edf0a8b03d40011cbe30ae03ae168e7c917d",
  "args": [
    {
      "name": "Collection",
      "symbol": "COL",
      "contractURI": "ipfs://contractURI",
      "placeholderURI": "ipfs://placeholderURI",
      "tokenURIPrefix": "ipfs://tokenURIPrefix/",
      "maxSupply": 0,
      "preSalePrice": 0,
      "preSaleMaxMintPerWallet": 0,
      "publicSalePrice": 0,
      "publicSaleMaxMintPerTx": 10,
      "defaultRoyaltyAddress": "0x0000000000000000000000000000000000000000",
      "defaultRoyaltyBps": 0,
      "proceedsRecipient": "0x0000000000000000000000000000000000000000",
      "openSeaProxyRegistryAddress": "0x0000000000000000000000000000000000000000",
      "openSeaExchangeAddress": "0x0000000000000000000000000000000000000000",
      "trustedForwarder": "0x0000000000000000000000000000000000000000"
    }
  ],
  "numDeployments": 7,
  "solcInputHash": "09b22df195487de414bfb77c7862e041",
  "bytecode": "0x60806040523480156200001157600080fd5b506040516200597a3803806200597a833981016040819052620000349162000e32565b805160208201516200004f620000496200009a565b620000b6565b81516200006490600490602085019062000c57565b5080516200007a90600590602084019062000c57565b5060006002555050600160145562000093813362000111565b50620010d3565b6000620000b16200028460201b620024b91760201c565b905090565b600080546001600160a01b038381166201000081810262010000600160b01b0319851617855560405193049190911692909183917f8be0079c531659141344cd1fd0a4f28419497f9722a3daafe3b4186f6b6457e091a35050565b60006200011f6001620002bd565b9050801562000138576000805461ff0019166101001790555b620001456000836200036f565b6200015082620000b6565b825160208401516040850151620001699291906200037f565b6200018383606001518460800151620003b660201b60201c565b60a08301516200019390620003ec565b6200019d62000424565b620001a8826200045a565b620001c28360c001518460e001516200048f60201b60201c565b620001de836101000151846101200151620004d660201b60201c565b610180830151620001ef906200050c565b6200020b8361014001518461016001516200054160201b60201c565b62000227836101a00151846101c001516200057760201b60201c565b6101e08301516200023890620005ad565b80156200027f576000805461ff0019169055604051600181527f7f26b83ff96e1f2b6a682f133852f6798a09c465da95921460cefb38474024989060200160405180910390a15b505050565b600a546000906001600160a01b0316331415620002a8575060131936013560601c90565b620000b1620005e260201b620024db1760201c565b60008054610100900460ff161562000326578160ff166001148015620002f65750620002f430620005e660201b620024df1760201c565b155b6200031e5760405162461bcd60e51b8152600401620003159062000ffd565b60405180910390fd5b506000919050565b60005460ff808416911610620003505760405162461bcd60e51b8152600401620003159062000ffd565b506000805460ff191660ff92909216919091179055600190565b919050565b6200037b8282620005f5565b5050565b600054610100900460ff16620003a95760405162461bcd60e51b815260040162000315906200104b565b6200027f8383836200069b565b600054610100900460ff16620003e05760405162461bcd60e51b815260040162000315906200104b565b6200037b82826200073d565b600054610100900460ff16620004165760405162461bcd60e51b815260040162000315906200104b565b6200042181620007e6565b50565b600054610100900460ff166200044e5760405162461bcd60e51b815260040162000315906200104b565b620004586200084b565b565b600054610100900460ff16620004845760405162461bcd60e51b815260040162000315906200104b565b620004218162000887565b600054610100900460ff16620004b95760405162461bcd60e51b815260040162000315906200104b565b620004cb63209680f760e11b620008ef565b601591909155601655565b600054610100900460ff16620005005760405162461bcd60e51b815260040162000315906200104b565b6200037b828262000973565b600054610100900460ff16620005365760405162461bcd60e51b815260040162000315906200104b565b6200042181620009ba565b600054610100900460ff166200056b5760405162461bcd60e51b815260040162000315906200104b565b6200037b828262000a1e565b600054610100900460ff16620005a15760405162461bcd60e51b815260040162000315906200104b565b6200037b828262000abb565b600054610100900460ff16620005d75760405162461bcd60e51b815260040162000315906200104b565b620004218162000b25565b3390565b6001600160a01b03163b151590565b6000828152601d602090815260408083206001600160a01b038516845290915290205460ff166200037b576000828152601d602090815260408083206001600160a01b03851684529091529020805460ff19166001179055620006576200009a565b6001600160a01b0316816001600160a01b0316837f2f8788117e7eff1d82e926ec794901d17c78024a50270940304540a733656f0d60405160405180910390a45050565b600054610100900460ff16620006c55760405162461bcd60e51b815260040162000315906200104b565b8251620006da90600b90602086019062000c57565b508151620006f090600c90602085019062000c57565b5080516200070690600d90602084019062000c57565b5062000719633d96f4ff60e11b620008ef565b6200072b6380ac58cd60e01b620008ef565b6200027f635b5e139f60e01b620008ef565b600054610100900460ff16620007675760405162461bcd60e51b815260040162000315906200104b565b81516200077c90600e90602085019062000c57565b5080516200079290600f90602084019062000c57565b5060408051808201909152600580825264173539b7b760d91b6020909201918252620007c19160109162000c57565b50620007d4631f2f406b60e01b620008ef565b6200037b635b5e139f60e01b620008ef565b600054610100900460ff16620008105760405162461bcd60e51b815260040162000315906200104b565b6012819055620008276330f487b560e11b620008ef565b620008396380ac58cd60e01b620008ef565b6200042163184371e560e31b620008ef565b600054610100900460ff16620008755760405162461bcd60e51b815260040162000315906200104b565b62000458631aa1577160e11b620008ef565b600054610100900460ff16620008b15760405162461bcd60e51b815260040162000315906200104b565b620008c3631a056e7160e01b620008ef565b620004217f9f2df0fed2c77648de5860a4cc508cd0818c85b8b8a1ab4ceeef8d981c8956a6826200036f565b6001600160e01b031980821614156200094b5760405162461bcd60e51b815260206004820152601c60248201527f4552433136353a20696e76616c696420696e7465726661636520696400000000604482015260640162000315565b6001600160e01b0319166000908152600160208190526040909120805460ff19169091179055565b600054610100900460ff166200099d5760405162461bcd60e51b815260040162000315906200104b565b620009af6317e0bac360e31b620008ef565b601a91909155601b55565b600054610100900460ff16620009e45760405162461bcd60e51b815260040162000315906200104b565b620009f663e2b3173560e01b620008ef565b601c80546001600160a01b0390921661010002610100600160a81b0319909216919091179055565b600054610100900460ff1662000a485760405162461bcd60e51b815260040162000315906200104b565b62000a5a633a47bf5160e11b620008ef565b62000a6c63152a902d60e11b620008ef565b62000a7e63c69dbd8f60e01b620008ef565b62000a9063656cb66560e11b620008ef565b604080518082019091526001600160a01b038316815261ffff821660208201526200027f8162000b71565b600054610100900460ff1662000ae55760405162461bcd60e51b815260040162000315906200104b565b62000af7638d29851f60e01b620008ef565b602280546001600160a01b039384166001600160a01b03199182161790915560238054929093169116179055565b600054610100900460ff1662000b4f5760405162461bcd60e51b815260040162000315906200104b565b600a80546001600160a01b0319166001600160a01b0392909216919091179055565b612710816020015161ffff161062000bba5760405162461bcd60e51b815260206004820152600b60248201526a496e76616c69642062707360a81b604482015260640162000315565b60408051808201825282516001600160a01b03168082526020808501805161ffff1691909301819052601e8054600160a01b9092026001600160b01b03199092169092171790558251905191517f2c5ea6e4103e78cb101e796fb2dace540362fc542cbff5145eaa24af7dd8fe419262000c4c92916001600160a01b0392909216825261ffff16602082015260400190565b60405180910390a150565b82805462000c659062001096565b90600052602060002090601f01602090048101928262000c89576000855562000cd4565b82601f1062000ca457805160ff191683800117855562000cd4565b8280016001018555821562000cd4579182015b8281111562000cd457825182559160200191906001019062000cb7565b5062000ce292915062000ce6565b5090565b5b8082111562000ce2576000815560010162000ce7565b634e487b7160e01b600052604160045260246000fd5b60405161020081016001600160401b038111828210171562000d395762000d3962000cfd565b60405290565b604051601f8201601f191681016001600160401b038111828210171562000d6a5762000d6a62000cfd565b604052919050565b600082601f83011262000d8457600080fd5b81516001600160401b0381111562000da05762000da062000cfd565b602062000db6601f8301601f1916820162000d3f565b828152858284870101111562000dcb57600080fd5b60005b8381101562000deb57858101830151828201840152820162000dce565b8381111562000dfd5760008385840101525b5095945050505050565b80516001600160a01b03811681146200036a57600080fd5b805161ffff811681146200036a57600080fd5b60006020828403121562000e4557600080fd5b81516001600160401b038082111562000e5d57600080fd5b90830190610200828603121562000e7357600080fd5b62000e7d62000d13565b82518281111562000e8d57600080fd5b62000e9b8782860162000d72565b82525060208301518281111562000eb157600080fd5b62000ebf8782860162000d72565b60208301525060408301518281111562000ed857600080fd5b62000ee68782860162000d72565b60408301525060608301518281111562000eff57600080fd5b62000f0d8782860162000d72565b60608301525060808301518281111562000f2657600080fd5b62000f348782860162000d72565b60808301525060a0838101519082015260c0808401519082015260e0808401519082015261010080840151908201526101208084015190820152610140915062000f8082840162000e07565b82820152610160915062000f9682840162000e1f565b82820152610180915062000fac82840162000e07565b828201526101a0915062000fc282840162000e07565b828201526101c0915062000fd882840162000e07565b828201526101e0915062000fee82840162000e07565b91810191909152949350505050565b6020808252602e908201527f496e697469616c697a61626c653a20636f6e747261637420697320616c72656160408201526d191e481a5b9a5d1a585b1a5e995960921b606082015260800190565b6020808252602b908201527f496e697469616c697a61626c653a20636f6e7472616374206973206e6f74206960408201526a6e697469616c697a696e6760a81b606082015260800190565b600181811c90821680620010ab57607f821691505b60208210811415620010cd57634e487b7160e01b600052602260045260246000fd5b50919050565b61489780620010e36000396000f3fe6080604052600436106103575760003560e01c806301ffc9a71461035c5780630653aca51461039157806306fdde03146103e0578063081812fc1461040257806308abf0261461042f578063095ea7b314610451578063167446071461047157806318160ddd146104865780631a056e71146104a957806323b872dd146104c9578063248a9ca3146104e95780632a55205a146105095780632d8e85b0146105485780632f2ff15d1461056857806331db3832146105885780633542aee21461059d5780633574a2dd146105bd57806336568abe146105dd5780633acf404d146105fd5780633c0e8f2c146106135780633ccfd60b1461063357806342842e0e14610648578063464bd640146106685780634972471c146106825780634f972f5f146106a35780635136dcc7146106c357806356c022bb146106e3578063572b6c05146107035780635a9b0b89146107235780636352211e146107865780636c079cfc146107a65780636f8b44b0146107c657806370a08231146107e6578063715018a6146108065780637313cba91461081b5780637885fdc714610830578063791a25191461086b5780637d7eee421461088b5780637e980342146108ab5780638a4278ab146108c05780638da5cb5b146108e057806391d14854146108f5578063938e3d7b1461091557806395d89b411461093557806399e0dd7c1461094a5780639b6860c81461096a5780639e6b2c5b14610980578063a217fddf14610993578063a22cb465146109a8578063a304ee76146109c8578063a9852bfb146109ed578063aaeaca4814610a0d578063b27c6f2d14610a23578063b6c693e514610a39578063b88d4fde14610a53578063ba4695fd14610a73578063c0ac998314610a88578063c29de63014610a9d578063c87b56dd14610ab7578063cad96cca14610ad7578063d539139314610b04578063d547741f14610b26578063d5abeb0114610b46578063d79ff99d14610b5c578063da74222814610b6f578063dbbc853b14610b8f578063e3b9a7e514610ba4578063e757c17d14610bc4578063e8a3d48514610bda578063e985e9c514610bef578063ef60ceaf14610c0f578063efa7f90c14610c2f578063f2fde38b14610c4f578063f384702f14610c6f578063f74bbf5914610c89578063f95df41414610ca9575b600080fd5b34801561036857600080fd5b5061037c610377366004613b4c565b610cc9565b60405190151581526020015b60405180910390f35b34801561039d57600080fd5b506103b16103ac366004613b69565b610cda565b60408051825181526020808401516001600160a01b0316908201529181015161ffff1690820152606001610388565b3480156103ec57600080fd5b506103f5610d61565b6040516103889190613bda565b34801561040e57600080fd5b5061042261041d366004613b69565b610d70565b6040516103889190613bed565b34801561043b57600080fd5b5061044f61044a366004613c21565b610db4565b005b34801561045d57600080fd5b5061044f61046c366004613c3e565b610e1e565b34801561047d57600080fd5b5061044f610ebe565b34801561049257600080fd5b50600354600254035b604051908152602001610388565b3480156104b557600080fd5b5061044f6104c4366004613c3e565b610f0c565b3480156104d557600080fd5b5061044f6104e4366004613c6a565b610f72565b3480156104f557600080fd5b5061049b610504366004613b69565b6110f1565b34801561051557600080fd5b50610529610524366004613cab565b611106565b604080516001600160a01b039093168352602083019190915201610388565b34801561055457600080fd5b5061044f610563366004613cdd565b6111cb565b34801561057457600080fd5b5061044f610583366004613cf8565b61121d565b34801561059457600080fd5b5061044f61123e565b3480156105a957600080fd5b5061044f6105b8366004613c3e565b6112bc565b3480156105c957600080fd5b5061044f6105d8366004613dfc565b6112fb565b3480156105e957600080fd5b5061044f6105f8366004613cf8565b61134d565b34801561060957600080fd5b5061049b60175481565b34801561061f57600080fd5b5061044f61062e366004613b69565b6113d7565b34801561063f57600080fd5b5061044f61141b565b34801561065457600080fd5b5061044f610663366004613c6a565b6114ad565b34801561067457600080fd5b5060185461037c9060ff1681565b34801561068e57600080fd5b50601c5461037c90600160a81b900460ff1681565b3480156106af57600080fd5b5061044f6106be366004613cdd565b6114c8565b3480156106cf57600080fd5b5061044f6106de366004613e30565b61151a565b3480156106ef57600080fd5b50600a54610422906001600160a01b031681565b34801561070f57600080fd5b5061037c61071e366004613c21565b6115b4565b34801561072f57600080fd5b506107386115c8565b604080519a8b5260208b0199909952978901969096526060880194909452608087019290925260a0860152151560c085015260e0840152610100830152151561012082015261014001610388565b34801561079257600080fd5b506104226107a1366004613b69565b611757565b3480156107b257600080fd5b5061044f6107c1366004613c21565b611762565b3480156107d257600080fd5b5061044f6107e1366004613b69565b6117c3565b3480156107f257600080fd5b5061049b610801366004613c21565b61184c565b34801561081257600080fd5b5061044f61189a565b34801561082757600080fd5b506103f56118e5565b34801561083c57600080fd5b50601e5461085d906001600160a01b03811690600160a01b900461ffff1682565b604051610388929190613ea4565b34801561087757600080fd5b5061044f610886366004613b69565b611977565b34801561089757600080fd5b5061044f6108a6366004613b69565b6119bb565b3480156108b757600080fd5b5061049b6119ff565b3480156108cc57600080fd5b5061044f6108db366004613ed3565b611a0b565b3480156108ec57600080fd5b50610422611b3e565b34801561090157600080fd5b5061037c610910366004613cf8565b611b53565b34801561092157600080fd5b5061044f610930366004613dfc565b611b7e565b34801561094157600080fd5b506103f5611bd0565b34801561095657600080fd5b5061044f610965366004613dfc565b611bda565b34801561097657600080fd5b5061049b601a5481565b61044f61098e3660046140d3565b611c4f565b34801561099f57600080fd5b5061049b600081565b3480156109b457600080fd5b5061044f6109c336600461411e565b611e2d565b3480156109d457600080fd5b50601c546104229061010090046001600160a01b031681565b3480156109f957600080fd5b5061044f610a08366004613dfc565b611ec3565b348015610a1957600080fd5b5061049b60165481565b348015610a2f57600080fd5b5061049b601b5481565b348015610a4557600080fd5b50601c5461037c9060ff1681565b348015610a5f57600080fd5b5061044f610a6e36600461414a565b611f38565b348015610a7f57600080fd5b5061044f611f82565b348015610a9457600080fd5b506103f5611fd0565b348015610aa957600080fd5b5060115461037c9060ff1681565b348015610ac357600080fd5b506103f5610ad2366004613b69565b611fdf565b348015610ae357600080fd5b50610af7610af2366004613b69565b611fea565b60405161038891906141c9565b348015610b1057600080fd5b5061049b60008051602061482283398151915281565b348015610b3257600080fd5b5061044f610b41366004613cf8565b6120a5565b348015610b5257600080fd5b5061049b60125481565b61044f610b6a366004613c3e565b6120c1565b348015610b7b57600080fd5b5061044f610b8a366004613c21565b6121ba565b348015610b9b57600080fd5b506103f561221b565b348015610bb057600080fd5b5061037c610bbf36600461422a565b61222a565b348015610bd057600080fd5b5061049b60155481565b348015610be657600080fd5b506103f5612278565b348015610bfb57600080fd5b5061037c610c0a366004614265565b612287565b348015610c1b57600080fd5b5061044f610c2a366004614293565b61229a565b348015610c3b57600080fd5b5061044f610c4a366004613c21565b6122f3565b348015610c5b57600080fd5b5061044f610c6a366004613c21565b612384565b348015610c7b57600080fd5b5060135461037c9060ff1681565b348015610c9557600080fd5b5061044f610ca4366004613b69565b612431565b348015610cb557600080fd5b5061044f610cc4366004613b69565b612475565b6000610cd4826124ee565b92915050565b60408051606081018252600080825260208201819052918101919091526000610d0460208461252a565b6000818152601f60209081526040918290208251808401845290546001600160a01b03808216835261ffff600160a01b90920482168385019081528551606081018752968752925116928501929092525116908201529392505050565b6060610d6b612536565b905090565b6000610d7b82612545565b610d98576040516333d1c03960e21b815260040160405180910390fd5b506000908152600860205260409020546001600160a01b031690565b610dbc61256d565b6001600160a01b0316610dcd611b3e565b6001600160a01b031614610dfc5760405162461bcd60e51b8152600401610df3906142ab565b60405180910390fd5b602280546001600160a01b0319166001600160a01b0392909216919091179055565b6000610e2982611757565b9050336001600160a01b03821614610e6257610e458133612287565b610e62576040516367d9dca160e11b815260040160405180910390fd5b60008281526008602052604080822080546001600160a01b0319166001600160a01b0387811691821790925591518593918516917f8c5be1e5ebec7d5bd14f71427d1e84f3dd0314c0f7b2291e5b200ac8c7c3b92591a4505050565b610ec661256d565b6001600160a01b0316610ed7611b3e565b6001600160a01b031614610efd5760405162461bcd60e51b8152600401610df3906142ab565b6013805460ff19166001179055565b610f2660008051602061482283398151915261091061256d565b610f645760405162461bcd60e51b815260206004820152600f60248201526e4e4f545f4d494e5445525f524f4c4560881b6044820152606401610df3565b610f6e8282612577565b5050565b6000610f7d826125df565b9050836001600160a01b0316816001600160a01b031614610fb05760405162a1148160e81b815260040160405180910390fd5b60008281526008602052604090208054338082146001600160a01b03881690911417610ffd57610fe08633612287565b610ffd57604051632ce44b5f60e11b815260040160405180910390fd5b6001600160a01b03851661102457604051633a954ecd60e21b815260040160405180910390fd5b801561102f57600082555b6001600160a01b0386811660009081526007602052604080822080546000190190559187168152208054600101905561106c85600160e11b612640565b600085815260066020526040902055600160e11b83166110ba57600184016000818152600660205260409020546110b85760025481146110b85760008181526006602052604090208490555b505b83856001600160a01b0316876001600160a01b031660008051602061484283398151915260405160405180910390a4505050505050565b6000908152601d602052604090206001015490565b6000828152601f602052604081205481906001600160a01b03161561116b576000848152601f60205260409020546001600160a01b038116906127109061115890600160a01b900461ffff16866142f6565b611162919061432b565b915091506111c4565b601e546001600160a01b0316158015906111915750601e54600160a01b900461ffff1615155b156111bd57601e546001600160a01b038116906127109061115890600160a01b900461ffff16866142f6565b5060009050805b9250929050565b6111d361256d565b6001600160a01b03166111e4611b3e565b6001600160a01b03161461120a5760405162461bcd60e51b8152600401610df3906142ab565b601c805460ff1916911515919091179055565b611226826110f1565b61122f81612655565b6112398383612666565b505050565b61124661256d565b6001600160a01b0316611257611b3e565b6001600160a01b03161461127d5760405162461bcd60e51b8152600401610df3906142ab565b601c54600160a81b900460ff16156112a75760405162461bcd60e51b8152600401610df39061433f565b601c805460ff60a81b1916600160a81b179055565b6112c461256d565b6001600160a01b03166112d5611b3e565b6001600160a01b031614610f645760405162461bcd60e51b8152600401610df3906142ab565b61130361256d565b6001600160a01b0316611314611b3e565b6001600160a01b03161461133a5760405162461bcd60e51b8152600401610df3906142ab565b8051610f6e90600e906020840190613a9d565b61135561256d565b6001600160a01b0316816001600160a01b0316146113cd5760405162461bcd60e51b815260206004820152602f60248201527f416363657373436f6e74726f6c3a2063616e206f6e6c792072656e6f756e636560448201526e103937b632b9903337b91039b2b63360891b6064820152608401610df3565b610f6e82826126ed565b6113df61256d565b6001600160a01b03166113f0611b3e565b6001600160a01b0316146114165760405162461bcd60e51b8152600401610df3906142ab565b601b55565b601c5461010090046001600160a01b031661146e5760405162461bcd60e51b8152602060048201526013602482015272115490cdcc8c4bd393d7d49150d25412515395606a1b6044820152606401610df3565b601c54604051479161010090046001600160a01b0316906108fc8315029083906000818181858888f19350505050158015610f6e573d6000803e3d6000fd5b61123983838360405180602001604052806000815250611f38565b6114d061256d565b6001600160a01b03166114e1611b3e565b6001600160a01b0316146115075760405162461bcd60e51b8152600401610df3906142ab565b6018805460ff1916911515919091179055565b61152261256d565b6001600160a01b0316611533611b3e565b6001600160a01b0316146115595760405162461bcd60e51b8152600401610df3906142ab565b610f6e8282808060200260200160405190810160405280939291908181526020016000905b828210156115aa5761159b60608302860136819003810190614370565b8152602001906001019061157e565b5050505050612772565b600a546001600160a01b0391821691161490565b600080808080808080808080806115dd61256d565b6001600160a01b03161461166857306370a082316115f961256d565b6040518263ffffffff1660e01b81526004016116159190613bed565b60206040518083038186803b15801561162d57600080fd5b505afa158015611641573d6000803e3d6000fd5b505050506040513d601f19601f8201168201806040525081019061166591906143d6565b90505b601254306001600160a01b03166318160ddd6040518163ffffffff1660e01b815260040160206040518083038186803b1580156116a457600080fd5b505afa1580156116b8573d6000803e3d6000fd5b505050506040513d601f19601f820116820180604052508101906116dc91906143d6565b82601554601654601960006116ef61256d565b6001600160a01b03166001600160a01b0316815260200190815260200160002054601860009054906101000a900460ff16601a54601b54601c60009054906101000a900460ff169a509a509a509a509a509a509a509a509a509a505090919293949596979899565b6000610cd4826125df565b61176a61256d565b6001600160a01b031661177b611b3e565b6001600160a01b0316146117a15760405162461bcd60e51b8152600401610df3906142ab565b602380546001600160a01b0319166001600160a01b0392909216919091179055565b6117cb61256d565b6001600160a01b03166117dc611b3e565b6001600160a01b0316146118025760405162461bcd60e51b8152600401610df3906142ab565b60135460ff16156118475760405162461bcd60e51b815260206004820152600f60248201526e2120a9a2afaaa924afa32927ad22a760891b6044820152606401610df3565b601255565b60006001600160a01b038216611875576040516323d3ad8160e21b815260040160405180910390fd5b506001600160a01b03166000908152600760205260409020546001600160401b031690565b6118a261256d565b6001600160a01b03166118b3611b3e565b6001600160a01b0316146118d95760405162461bcd60e51b8152600401610df3906142ab565b6118e36000612917565b565b6060600e80546118f4906143ef565b80601f0160208091040260200160405190810160405280929190818152602001828054611920906143ef565b801561196d5780601f106119425761010080835404028352916020019161196d565b820191906000526020600020905b81548152906001019060200180831161195057829003601f168201915b5050505050905090565b61197f61256d565b6001600160a01b0316611990611b3e565b6001600160a01b0316146119b65760405162461bcd60e51b8152600401610df3906142ab565b601a55565b6119c361256d565b6001600160a01b03166119d4611b3e565b6001600160a01b0316146119fa5760405162461bcd60e51b8152600401610df3906142ab565b601555565b6000610d6b6020612972565b6000611a17600161297c565b90508015611a2f576000805461ff0019166101001790555b611a3a600083612a10565b611a4382612917565b611a5a836000015184602001518560400151612a1a565b611a6c83606001518460800151612a4c565b611a798360a00151612a7d565b611a81612aad565b611a8a82612adc565b611a9c8360c001518460e00151612b0c565b611ab0836101000151846101200151612b4e565b611abe836101800151612b7f565b611ad2836101400151846101600151612baf565b611ae6836101a00151846101c00151612be0565b611af4836101e00151612c11565b8015611239576000805461ff0019169055604051600181527f7f26b83ff96e1f2b6a682f133852f6798a09c465da95921460cefb38474024989060200160405180910390a1505050565b6000546201000090046001600160a01b031690565b6000918252601d602090815260408084206001600160a01b0393909316845291905290205460ff1690565b611b8661256d565b6001600160a01b0316611b97611b3e565b6001600160a01b031614611bbd5760405162461bcd60e51b8152600401610df3906142ab565b8051610f6e90600d906020840190613a9d565b6060610d6b612c41565b611be261256d565b6001600160a01b0316611bf3611b3e565b6001600160a01b031614611c195760405162461bcd60e51b8152600401610df3906142ab565b60115460ff1615611c3c5760405162461bcd60e51b8152600401610df390614424565b8051610f6e90600f906020840190613a9d565b60026014541415611c725760405162461bcd60e51b8152600401610df39061444f565b600260145560185460ff16611cbf5760405162461bcd60e51b81526020600482015260136024820152725052455f53414c455f4e4f545f41435449564560681b6044820152606401610df3565b6000611cc961256d565b9050611d14838380806020026020016040519081016040528093929190818152602001838360200280828437600092019190915250506017549150611d0f905084612c50565b612c8a565b611d575760405162461bcd60e51b8152602060048201526014602482015273282922afa9a0a622afaba927a723afa82927a7a360611b6044820152606401610df3565b6016546001600160a01b038216600090815260196020526040902054611d7e908690614486565b1115611dbd5760405162461bcd60e51b815260206004820152600e60248201526d14149157d4d0531157d31253525560921b6044820152606401610df3565b3484601554611dcc91906142f6565b1115611dea5760405162461bcd60e51b8152600401610df39061449e565b6001600160a01b03811660009081526019602052604081208054869290611e12908490614486565b90915550611e2290508185612577565b505060016014555050565b6001600160a01b038216331415611e575760405163b06307db60e01b815260040160405180910390fd5b3360008181526009602090815260408083206001600160a01b03871680855290835292819020805460ff191686151590811790915590519081529192917f17307eab39ab6107e8899845ad3d59bd9653f200f220920489ca2b5937696c31910160405180910390a35050565b611ecb61256d565b6001600160a01b0316611edc611b3e565b6001600160a01b031614611f025760405162461bcd60e51b8152600401610df3906142ab565b60115460ff1615611f255760405162461bcd60e51b8152600401610df390614424565b8051610f6e906010906020840190613a9d565b611f43848484610f72565b6001600160a01b0383163b15611f7c57611f5f84848484612ca0565b611f7c576040516368d2bf6b60e11b815260040160405180910390fd5b50505050565b611f8a61256d565b6001600160a01b0316611f9b611b3e565b6001600160a01b031614611fc15760405162461bcd60e51b8152600401610df3906142ab565b6011805460ff19166001179055565b6060600f80546118f4906143ef565b6060610cd482612d97565b604080516001808252818301909252606091816020015b6040805180820190915260008082526020820152815260200190600190039081612001575050601e5481519192506001600160a01b031690829060009061204a5761204a6144cb565b60209081029190910101516001600160a01b03919091169052601e548151600160a01b90910461ffff16908290600090612086576120866144cb565b6020908102919091018101516001600160601b03909216910152919050565b6120ae826110f1565b6120b781612655565b61123983836126ed565b600260145414156120e45760405162461bcd60e51b8152600401610df39061444f565b6002601455601c5460ff166121345760405162461bcd60e51b81526020600482015260166024820152755055424c49435f53414c455f4e4f545f41435449564560501b6044820152606401610df3565b601b5481111561217a5760405162461bcd60e51b8152602060048201526011602482015270141550931250d7d4d0531157d312535255607a1b6044820152606401610df3565b3481601a5461218991906142f6565b11156121a75760405162461bcd60e51b8152600401610df39061449e565b6121b18282612577565b50506001601455565b6121c261256d565b6001600160a01b03166121d3611b3e565b6001600160a01b0316146121f95760405162461bcd60e51b8152600401610df3906142ab565b600a80546001600160a01b0319166001600160a01b0392909216919091179055565b6060601080546118f4906143ef565b6000612270838380806020026020016040519081016040528093929190818152602001838360200280828437600092019190915250506017549150611d0f905087612c50565b949350505050565b6060600d80546118f4906143ef565b60006122938383612e73565b9392505050565b6122a261256d565b6001600160a01b03166122b3611b3e565b6001600160a01b0316146122d95760405162461bcd60e51b8152600401610df3906142ab565b6122f06122eb368390038301836144e1565b612f84565b50565b6122fb61256d565b6001600160a01b031661230c611b3e565b6001600160a01b0316146123325760405162461bcd60e51b8152600401610df3906142ab565b601c54600160a81b900460ff161561235c5760405162461bcd60e51b8152600401610df39061433f565b601c80546001600160a01b0390921661010002610100600160a81b0319909216919091179055565b61238c61256d565b6001600160a01b031661239d611b3e565b6001600160a01b0316146123c35760405162461bcd60e51b8152600401610df3906142ab565b6001600160a01b0381166124285760405162461bcd60e51b815260206004820152602660248201527f4f776e61626c653a206e6577206f776e657220697320746865207a65726f206160448201526564647265737360d01b6064820152608401610df3565b6122f081612917565b61243961256d565b6001600160a01b031661244a611b3e565b6001600160a01b0316146124705760405162461bcd60e51b8152600401610df3906142ab565b601655565b61247d61256d565b6001600160a01b031661248e611b3e565b6001600160a01b0316146124b45760405162461bcd60e51b8152600401610df3906142ab565b601755565b60006124c4336115b4565b156124d6575060131936013560601c90565b503390565b3390565b6001600160a01b03163b151590565b60006301ffc9a760e01b6001600160e01b031983161480610cd45750506001600160e01b03191660009081526001602052604090205460ff1690565b6000612293838361302f565b6060600b80546118f4906143ef565b600060025482108015610cd4575050600090815260066020526040902054600160e01b161590565b6000610d6b6124b9565b601254816125886003546002540390565b6125929190614486565b11156125d55760405162461bcd60e51b8152602060048201526012602482015271455843454544535f4d41585f535550504c5960701b6044820152606401610df3565b610f6e8282613059565b60008160025481101561262757600081815260066020526040902054600160e01b8116612625575b80612293575060001901600081815260066020526040902054612607565b505b604051636f96cda160e11b815260040160405180910390fd5b4260a01b176001600160a01b03919091161790565b6122f08161266161256d565b613073565b6126708282611b53565b610f6e576000828152601d602090815260408083206001600160a01b03851684529091529020805460ff191660011790556126a961256d565b6001600160a01b0316816001600160a01b0316837f2f8788117e7eff1d82e926ec794901d17c78024a50270940304540a733656f0d60405160405180910390a45050565b6126f78282611b53565b15610f6e576000828152601d602090815260408083206001600160a01b03851684529091529020805460ff1916905561272e61256d565b6001600160a01b0316816001600160a01b0316837ff6391f5c32d9c69d2a47ea670b442974b53935d1edc7fd64eb21e047a839171b60405160405180910390a45050565b60005b8151811015610f6e576000828281518110612792576127926144cb565b60200260200101519050612710816040015161ffff16106127c55760405162461bcd60e51b8152600401610df39061453d565b60208101516001600160a01b031661283f5780516000908152601f6020908152604090912080546001600160b01b0319169055815161280491906130d7565b5080516040519081527fa2870857763bd9ae76c957f869f16b31c18dd3bb4c7b4d3a4496dc5c57c657f99060200160405180910390a1612904565b6040805180820182526020808401516001600160a01b0390811683528484015161ffff90811683850190815286516000908152601f855295909520935184549551909116600160a01b026001600160b01b031990951691161792909217905581516128aa91906130e3565b50805160208083015160408085015181519485526001600160a01b039092169284019290925261ffff1682820152517f389b70fb0887f01e83784eb1c4c589f740eca53b00ed0f45e41db5d079719abb9181900360600190a15b508061290f81614562565b915050612775565b600080546001600160a01b038381166201000081810262010000600160b01b0319851617855560405193049190911692909183917f8be0079c531659141344cd1fd0a4f28419497f9722a3daafe3b4186f6b6457e091a35050565b6000610cd4825490565b60008054610100900460ff16156129ca578160ff1660011480156129a657506129a4306124df565b155b6129c25760405162461bcd60e51b8152600401610df39061457d565b506000919050565b60005460ff8084169116106129f15760405162461bcd60e51b8152600401610df39061457d565b506000805460ff191660ff92909216919091179055600190565b919050565b610f6e8282612666565b600054610100900460ff16612a415760405162461bcd60e51b8152600401610df3906145cb565b6112398383836130ef565b600054610100900460ff16612a735760405162461bcd60e51b8152600401610df3906145cb565b610f6e8282613182565b600054610100900460ff16612aa45760405162461bcd60e51b8152600401610df3906145cb565b6122f08161321e565b600054610100900460ff16612ad45760405162461bcd60e51b8152600401610df3906145cb565b6118e361327a565b600054610100900460ff16612b035760405162461bcd60e51b8152600401610df3906145cb565b6122f0816132b1565b600054610100900460ff16612b335760405162461bcd60e51b8152600401610df3906145cb565b612b4363209680f760e11b613300565b601591909155601655565b600054610100900460ff16612b755760405162461bcd60e51b8152600401610df3906145cb565b610f6e8282613381565b600054610100900460ff16612ba65760405162461bcd60e51b8152600401610df3906145cb565b6122f0816133c3565b600054610100900460ff16612bd65760405162461bcd60e51b8152600401610df3906145cb565b610f6e82826133fa565b600054610100900460ff16612c075760405162461bcd60e51b8152600401610df3906145cb565b610f6e828261348a565b600054610100900460ff16612c385760405162461bcd60e51b8152600401610df3906145cb565b6122f0816134ef565b6060600c80546118f4906143ef565b6040516001600160601b0319606083901b166020820152600090603401604051602081830303815290604052805190602001209050919050565b600082612c978584613516565b14949350505050565b604051630a85bd0160e11b81526000906001600160a01b0385169063150b7a0290612cd5903390899088908890600401614616565b602060405180830381600087803b158015612cef57600080fd5b505af1925050508015612d1f575060408051601f3d908101601f19168201909252612d1c91810190614653565b60015b612d7a573d808015612d4d576040519150601f19603f3d011682016040523d82523d6000602084013e612d52565b606091505b508051612d72576040516368d2bf6b60e11b815260040160405180910390fd5b805181602001fd5b6001600160e01b031916630a85bd0160e11b149050949350505050565b60606000600f8054612da8906143ef565b905011612e3f57600e8054612dbc906143ef565b80601f0160208091040260200160405190810160405280929190818152602001828054612de8906143ef565b8015612e355780601f10612e0a57610100808354040283529160200191612e35565b820191906000526020600020905b815481529060010190602001808311612e1857829003601f168201915b5050505050610cd4565b600f612e4a8361358a565b6010604051602001612e5e9392919061470a565b60405160208183030381529060405292915050565b6022546000906001600160a01b031615612f275760225460405163c455279160e01b81526001600160a01b0391821691841690829063c455279190612ebc908890600401613bed565b60206040518083038186803b158015612ed457600080fd5b505afa158015612ee8573d6000803e3d6000fd5b505050506040513d601f19601f82011682018060405250810190612f0c919061473d565b6001600160a01b03161415612f25576001915050610cd4565b505b6023546001600160a01b031615612f56576023546001600160a01b0383811691161415612f5657506001610cd4565b6001600160a01b0380841660009081526009602090815260408083209386168352929052205460ff16612293565b612710816020015161ffff1610612fad5760405162461bcd60e51b8152600401610df39061453d565b60408051808201825282516001600160a01b03168082526020808501805161ffff1691909301819052601e80546001600160b01b031916909217600160a01b9091021790558251905191517f2c5ea6e4103e78cb101e796fb2dace540362fc542cbff5145eaa24af7dd8fe41926130249291613ea4565b60405180910390a150565b6000826000018281548110613046576130466144cb565b9060005260206000200154905092915050565b610f6e828260405180602001604052806000815250613687565b61307d8282611b53565b610f6e57613095816001600160a01b031660146136f4565b6130a08360206136f4565b6040516020016130b192919061475a565b60408051601f198184030181529082905262461bcd60e51b8252610df391600401613bda565b6000612293838361388f565b60006122938383613982565b600054610100900460ff166131165760405162461bcd60e51b8152600401610df3906145cb565b825161312990600b906020860190613a9d565b50815161313d90600c906020850190613a9d565b50805161315190600d906020840190613a9d565b50613162633d96f4ff60e11b613300565b6131726380ac58cd60e01b613300565b611239635b5e139f60e01b613300565b600054610100900460ff166131a95760405162461bcd60e51b8152600401610df3906145cb565b81516131bc90600e906020850190613a9d565b5080516131d090600f906020840190613a9d565b5060408051808201909152600580825264173539b7b760d91b60209092019182526131fd91601091613a9d565b5061320e631f2f406b60e01b613300565b610f6e635b5e139f60e01b613300565b600054610100900460ff166132455760405162461bcd60e51b8152600401610df3906145cb565b601281905561325a6330f487b560e11b613300565b61326a6380ac58cd60e01b613300565b6122f063184371e560e31b613300565b600054610100900460ff166132a15760405162461bcd60e51b8152600401610df3906145cb565b6118e3631aa1577160e11b613300565b600054610100900460ff166132d85760405162461bcd60e51b8152600401610df3906145cb565b6132e8631a056e7160e01b613300565b6122f060008051602061482283398151915282612a10565b6001600160e01b031980821614156133595760405162461bcd60e51b815260206004820152601c60248201527b115490cc4d8d4e881a5b9d985b1a59081a5b9d195c999858d9481a5960221b6044820152606401610df3565b6001600160e01b0319166000908152600160208190526040909120805460ff19169091179055565b600054610100900460ff166133a85760405162461bcd60e51b8152600401610df3906145cb565b6133b86317e0bac360e31b613300565b601a91909155601b55565b600054610100900460ff166133ea5760405162461bcd60e51b8152600401610df3906145cb565b61235c63e2b3173560e01b613300565b600054610100900460ff166134215760405162461bcd60e51b8152600401610df3906145cb565b613431633a47bf5160e11b613300565b61344163152a902d60e11b613300565b61345163c69dbd8f60e01b613300565b61346163656cb66560e11b613300565b604080518082019091526001600160a01b038316815261ffff8216602082015261123981612f84565b600054610100900460ff166134b15760405162461bcd60e51b8152600401610df3906145cb565b6134c1638d29851f60e01b613300565b602280546001600160a01b039384166001600160a01b03199182161790915560238054929093169116179055565b600054610100900460ff166121f95760405162461bcd60e51b8152600401610df3906145cb565b600081815b8451811015613582576000858281518110613538576135386144cb565b6020026020010151905080831161355e576000838152602082905260409020925061356f565b600081815260208490526040902092505b508061357a81614562565b91505061351b565b509392505050565b6060816135ae5750506040805180820190915260018152600360fc1b602082015290565b8160005b81156135d857806135c281614562565b91506135d19050600a8361432b565b91506135b2565b6000816001600160401b038111156135f2576135f2613d28565b6040519080825280601f01601f19166020018201604052801561361c576020820181803683370190505b5090505b8415612270576136316001836147c9565b915061363e600a866147e0565b613649906030614486565b60f81b81838151811061365e5761365e6144cb565b60200101906001600160f81b031916908160001a905350613680600a8661432b565b9450613620565b61369183836139d1565b6001600160a01b0383163b15611239576002548281035b6136bb6000868380600101945086612ca0565b6136d8576040516368d2bf6b60e11b815260040160405180910390fd5b8181106136a85781600254146136ed57600080fd5b5050505050565b606060006137038360026142f6565b61370e906002614486565b6001600160401b0381111561372557613725613d28565b6040519080825280601f01601f19166020018201604052801561374f576020820181803683370190505b509050600360fc1b8160008151811061376a5761376a6144cb565b60200101906001600160f81b031916908160001a905350600f60fb1b81600181518110613799576137996144cb565b60200101906001600160f81b031916908160001a90535060006137bd8460026142f6565b6137c8906001614486565b90505b6001811115613840576f181899199a1a9b1b9c1cb0b131b232b360811b85600f16601081106137fc576137fc6144cb565b1a60f81b828281518110613812576138126144cb565b60200101906001600160f81b031916908160001a90535060049490941c93613839816147f4565b90506137cb565b5083156122935760405162461bcd60e51b815260206004820181905260248201527f537472696e67733a20686578206c656e67746820696e73756666696369656e746044820152606401610df3565b600081815260018301602052604081205480156139785760006138b36001836147c9565b85549091506000906138c7906001906147c9565b905081811461392c5760008660000182815481106138e7576138e76144cb565b906000526020600020015490508087600001848154811061390a5761390a6144cb565b6000918252602080832090910192909255918252600188019052604090208390555b855486908061393d5761393d61480b565b600190038181906000526020600020016000905590558560010160008681526020019081526020016000206000905560019350505050610cd4565b6000915050610cd4565b60008181526001830160205260408120546139c957508154600181810184556000848152602080822090930184905584548482528286019093526040902091909155610cd4565b506000610cd4565b6002546001600160a01b0383166139fa57604051622e076360e81b815260040160405180910390fd5b81613a185760405163b562e8dd60e01b815260040160405180910390fd5b6001600160a01b038316600090815260076020526040902080546001600160401b018402019055613a4f836001841460e11b612640565b600082815260066020526040902055808281015b6040516001830192906001600160a01b03871690600090600080516020614842833981519152908290a4808210613a635760025550505050565b828054613aa9906143ef565b90600052602060002090601f016020900481019282613acb5760008555613b11565b82601f10613ae457805160ff1916838001178555613b11565b82800160010185558215613b11579182015b82811115613b11578251825591602001919060010190613af6565b50613b1d929150613b21565b5090565b5b80821115613b1d5760008155600101613b22565b6001600160e01b0319811681146122f057600080fd5b600060208284031215613b5e57600080fd5b813561229381613b36565b600060208284031215613b7b57600080fd5b5035919050565b60005b83811015613b9d578181015183820152602001613b85565b83811115611f7c5750506000910152565b60008151808452613bc6816020860160208601613b82565b601f01601f19169290920160200192915050565b6020815260006122936020830184613bae565b6001600160a01b0391909116815260200190565b6001600160a01b03811681146122f057600080fd5b8035612a0b81613c01565b600060208284031215613c3357600080fd5b813561229381613c01565b60008060408385031215613c5157600080fd5b8235613c5c81613c01565b946020939093013593505050565b600080600060608486031215613c7f57600080fd5b8335613c8a81613c01565b92506020840135613c9a81613c01565b929592945050506040919091013590565b60008060408385031215613cbe57600080fd5b50508035926020909101359150565b80358015158114612a0b57600080fd5b600060208284031215613cef57600080fd5b61229382613ccd565b60008060408385031215613d0b57600080fd5b823591506020830135613d1d81613c01565b809150509250929050565b634e487b7160e01b600052604160045260246000fd5b60405161020081016001600160401b0381118282101715613d6157613d61613d28565b60405290565b60006001600160401b0380841115613d8157613d81613d28565b604051601f8501601f19908116603f01168101908282118183101715613da957613da9613d28565b81604052809350858152868686011115613dc257600080fd5b858560208301376000602087830101525050509392505050565b600082601f830112613ded57600080fd5b61229383833560208501613d67565b600060208284031215613e0e57600080fd5b81356001600160401b03811115613e2457600080fd5b61227084828501613ddc565b60008060208385031215613e4357600080fd5b82356001600160401b0380821115613e5a57600080fd5b818501915085601f830112613e6e57600080fd5b813581811115613e7d57600080fd5b866020606083028501011115613e9257600080fd5b60209290920196919550909350505050565b6001600160a01b0392909216825261ffff16602082015260400190565b803561ffff81168114612a0b57600080fd5b60008060408385031215613ee657600080fd5b82356001600160401b0380821115613efd57600080fd5b908401906102008287031215613f1257600080fd5b613f1a613d3e565b823582811115613f2957600080fd5b613f3588828601613ddc565b825250602083013582811115613f4a57600080fd5b613f5688828601613ddc565b602083015250604083013582811115613f6e57600080fd5b613f7a88828601613ddc565b604083015250606083013582811115613f9257600080fd5b613f9e88828601613ddc565b606083015250608083013582811115613fb657600080fd5b613fc288828601613ddc565b60808301525060a0838101359082015260c0808401359082015260e0808401359082015261010080840135908201526101208084013590820152610140915061400c828401613c16565b828201526101609150614020828401613ec1565b828201526101809150614034828401613c16565b828201526101a09150614048828401613c16565b828201526101c0915061405c828401613c16565b828201526101e09150614070828401613c16565b8282015280945050505061408660208401613c16565b90509250929050565b60008083601f8401126140a157600080fd5b5081356001600160401b038111156140b857600080fd5b6020830191508360208260051b85010111156111c457600080fd5b6000806000604084860312156140e857600080fd5b8335925060208401356001600160401b0381111561410557600080fd5b6141118682870161408f565b9497909650939450505050565b6000806040838503121561413157600080fd5b823561413c81613c01565b915061408660208401613ccd565b6000806000806080858703121561416057600080fd5b843561416b81613c01565b9350602085013561417b81613c01565b92506040850135915060608501356001600160401b0381111561419d57600080fd5b8501601f810187136141ae57600080fd5b6141bd87823560208401613d67565b91505092959194509250565b602080825282518282018190526000919060409081850190868401855b8281101561421d57815180516001600160a01b031685528601516001600160601b03168685015292840192908501906001016141e6565b5091979650505050505050565b60008060006040848603121561423f57600080fd5b833561424a81613c01565b925060208401356001600160401b0381111561410557600080fd5b6000806040838503121561427857600080fd5b823561428381613c01565b91506020830135613d1d81613c01565b6000604082840312156142a557600080fd5b50919050565b6020808252818101527f4f776e61626c653a2063616c6c6572206973206e6f7420746865206f776e6572604082015260600190565b634e487b7160e01b600052601160045260246000fd5b6000816000190483118215151615614310576143106142e0565b500290565b634e487b7160e01b600052601260045260246000fd5b60008261433a5761433a614315565b500490565b602080825260179082015276115490cdcc8c4bd49150d2541251539517d313d0d2d151604a1b604082015260600190565b60006060828403121561438257600080fd5b604051606081016001600160401b03811182821017156143a4576143a4613d28565b6040528235815260208301356143b981613c01565b60208201526143ca60408401613ec1565b60408201529392505050565b6000602082840312156143e857600080fd5b5051919050565b600181811c9082168061440357607f821691505b602082108114156142a557634e487b7160e01b600052602260045260246000fd5b6020808252601190820152702a27a5a2a729afaaa924afa32927ad22a760791b604082015260600190565b6020808252601f908201527f5265656e7472616e637947756172643a207265656e7472616e742063616c6c00604082015260600190565b60008219821115614499576144996142e0565b500190565b602080825260139082015272125394d551919250d251539517d05353d55395606a1b604082015260600190565b634e487b7160e01b600052603260045260246000fd5b6000604082840312156144f357600080fd5b604080519081016001600160401b038111828210171561451557614515613d28565b604052823561452381613c01565b815261453160208401613ec1565b60208201529392505050565b6020808252600b908201526a496e76616c69642062707360a81b604082015260600190565b6000600019821415614576576145766142e0565b5060010190565b6020808252602e908201527f496e697469616c697a61626c653a20636f6e747261637420697320616c72656160408201526d191e481a5b9a5d1a585b1a5e995960921b606082015260800190565b6020808252602b908201527f496e697469616c697a61626c653a20636f6e7472616374206973206e6f74206960408201526a6e697469616c697a696e6760a81b606082015260800190565b6001600160a01b038581168252841660208201526040810183905260806060820181905260009061464990830184613bae565b9695505050505050565b60006020828403121561466557600080fd5b815161229381613b36565b8054600090600181811c908083168061468a57607f831692505b60208084108214156146ac57634e487b7160e01b600052602260045260246000fd5b8180156146c057600181146146d1576146fe565b60ff198616895284890196506146fe565b60008881526020902060005b868110156146f65781548b8201529085019083016146dd565b505084890196505b50505050505092915050565b60006147168286614670565b8451614726818360208901613b82565b61473281830186614670565b979650505050505050565b60006020828403121561474f57600080fd5b815161229381613c01565b76020b1b1b2b9b9a1b7b73a3937b61d1030b1b1b7bab73a1604d1b81526000835161478c816017850160208801613b82565b7001034b99036b4b9b9b4b733903937b6329607d1b60179184019182015283516147bd816028840160208801613b82565b01602801949350505050565b6000828210156147db576147db6142e0565b500390565b6000826147ef576147ef614315565b500690565b600081614803576148036142e0565b506000190190565b634e487b7160e01b600052603160045260246000fdfe9f2df0fed2c77648de5860a4cc508cd0818c85b8b8a1ab4ceeef8d981c8956a6ddf252ad1be2c89b69c2b068fc378daa952ba7f163c4a11628f55a4df523b3efa26469706673582212207dcac72c1811fc9bf6b645228d2c472deb6551fc2e26c6de963f039ef53af7c864736f6c63430008090033",
  "devdoc": {
    "kind": "dev",
    "methods": {
      "approve(address,uint256)": {
        "details": "See {IERC721-approve}."
      },
      "balanceOf(address)": {
        "details": "See {IERC721-balanceOf}."
      },
      "getApproved(uint256)": {
        "details": "See {IERC721-getApproved}."
      },
      "getRoleAdmin(bytes32)": {
        "details": "Returns the admin role that controls `role`. See {grantRole} and {revokeRole}. To change a role's admin, use {_setRoleAdmin}."
      },
      "getTokenRoyaltiesCount()": {
        "details": "See {IEIP2981RoyaltyOverride-getTokenRoyaltiesCount}."
      },
      "getTokenRoyaltyByIndex(uint256)": {
        "details": "See {IEIP2981RoyaltyOverride-getTokenRoyaltyByIndex}."
      },
      "grantRole(bytes32,address)": {
        "details": "Grants `role` to `account`. If `account` had not been already granted `role`, emits a {RoleGranted} event. Requirements: - the caller must have ``role``'s admin role."
      },
      "hasRole(bytes32,address)": {
        "details": "Returns `true` if `account` has been granted `role`."
      },
      "owner()": {
        "details": "Returns the address of the current owner."
      },
      "ownerOf(uint256)": {
        "details": "See {IERC721-ownerOf}."
      },
      "renounceOwnership()": {
        "details": "Leaves the contract without owner. It will not be possible to call `onlyOwner` functions anymore. Can only be called by the current owner. NOTE: Renouncing ownership will leave the contract without an owner, thereby removing any functionality that is only available to the owner."
      },
      "renounceRole(bytes32,address)": {
        "details": "Revokes `role` from the calling account. Roles are often managed via {grantRole} and {revokeRole}: this function's purpose is to provide a mechanism for accounts to lose their privileges if they are compromised (such as when a trusted device is misplaced). If the calling account had been revoked `role`, emits a {RoleRevoked} event. Requirements: - the caller must be `account`."
      },
      "revokeRole(bytes32,address)": {
        "details": "Revokes `role` from `account`. If `account` had been granted `role`, emits a {RoleRevoked} event. Requirements: - the caller must have ``role``'s admin role."
      },
      "royaltyInfo(uint256,uint256)": {
        "details": "See {IEIP2981RoyaltyOverride-royaltyInfo}."
      },
      "safeTransferFrom(address,address,uint256)": {
        "details": "See {IERC721-safeTransferFrom}."
      },
      "safeTransferFrom(address,address,uint256,bytes)": {
        "details": "See {IERC721-safeTransferFrom}."
      },
      "setApprovalForAll(address,bool)": {
        "details": "See {IERC721-setApprovalForAll}."
      },
      "totalSupply()": {
        "details": "Returns the total number of tokens in existence. Burned tokens will reduce the count. To get the total number of tokens minted, please see `_totalMinted`."
      },
      "transferFrom(address,address,uint256)": {
        "details": "Transfers `tokenId` from `from` to `to`. Requirements: - `to` cannot be the zero address. - `tokenId` token must be owned by `from`. Emits a {Transfer} event."
      },
      "transferOwnership(address)": {
        "details": "Transfers ownership of the contract to a new account (`newOwner`). Can only be called by the current owner."
      }
    },
    "version": 1
  },
  "userdoc": {
    "errors": {
      "ApprovalCallerNotOwnerNorApproved()": [
        {
          "notice": "The caller must own the token or be an approved operator."
        }
      ],
      "ApprovalQueryForNonexistentToken()": [
        {
          "notice": "The token does not exist."
        }
      ],
      "ApproveToCaller()": [
        {
          "notice": "The caller cannot approve to their own address."
        }
      ],
      "BalanceQueryForZeroAddress()": [
        {
          "notice": "Cannot query the balance for the zero address."
        }
      ],
      "MintERC2309QuantityExceedsLimit()": [
        {
          "notice": "The `quantity` minted with ERC2309 exceeds the safety limit."
        }
      ],
      "MintToZeroAddress()": [
        {
          "notice": "Cannot mint to the zero address."
        }
      ],
      "MintZeroQuantity()": [
        {
          "notice": "The quantity of tokens minted must be more than zero."
        }
      ],
      "OwnerQueryForNonexistentToken()": [
        {
          "notice": "The token does not exist."
        }
      ],
      "OwnershipNotInitializedForExtraData()": [
        {
          "notice": "The `extraData` cannot be set on an unintialized ownership slot."
        }
      ],
      "TransferCallerNotOwnerNorApproved()": [
        {
          "notice": "The caller must own the token or be an approved operator."
        }
      ],
      "TransferFromIncorrectOwner()": [
        {
          "notice": "The token must be owned by `from`."
        }
      ],
      "TransferToNonERC721ReceiverImplementer()": [
        {
          "notice": "Cannot safely transfer to a contract that does not implement the ERC721Receiver interface."
        }
      ],
      "TransferToZeroAddress()": [
        {
          "notice": "Cannot transfer to the zero address."
        }
      ],
      "URIQueryForNonexistentToken()": [
        {
          "notice": "The token does not exist."
        }
      ]
    },
    "kind": "user",
    "methods": {
      "isApprovedForAll(address,address)": {
        "notice": "Override isApprovedForAll to whitelist user's OpenSea proxy accounts to enable gas-less listings."
      }
    },
    "version": 1
  },
  "storageLayout": {
    "storage": [
      {
        "astId": 886,
        "contract": "contracts/collections/ERC721A/presets/ERC721AFullFeaturedCollection.sol:ERC721AFullFeaturedCollection",
        "label": "_initialized",
        "offset": 0,
        "slot": "0",
        "type": "t_uint8"
      },
      {
        "astId": 889,
        "contract": "contracts/collections/ERC721A/presets/ERC721AFullFeaturedCollection.sol:ERC721AFullFeaturedCollection",
        "label": "_initializing",
        "offset": 1,
        "slot": "0",
        "type": "t_bool"
      },
      {
        "astId": 782,
        "contract": "contracts/collections/ERC721A/presets/ERC721AFullFeaturedCollection.sol:ERC721AFullFeaturedCollection",
        "label": "_owner",
        "offset": 2,
        "slot": "0",
        "type": "t_address"
      },
      {
        "astId": 4693,
        "contract": "contracts/collections/ERC721A/presets/ERC721AFullFeaturedCollection.sol:ERC721AFullFeaturedCollection",
        "label": "_supportedInterfaces",
        "offset": 0,
        "slot": "1",
        "type": "t_mapping(t_bytes4,t_bool)"
      },
      {
        "astId": 15638,
        "contract": "contracts/collections/ERC721A/presets/ERC721AFullFeaturedCollection.sol:ERC721AFullFeaturedCollection",
        "label": "_currentIndex",
        "offset": 0,
        "slot": "2",
        "type": "t_uint256"
      },
      {
        "astId": 15640,
        "contract": "contracts/collections/ERC721A/presets/ERC721AFullFeaturedCollection.sol:ERC721AFullFeaturedCollection",
        "label": "_burnCounter",
        "offset": 0,
        "slot": "3",
        "type": "t_uint256"
      },
      {
        "astId": 15642,
        "contract": "contracts/collections/ERC721A/presets/ERC721AFullFeaturedCollection.sol:ERC721AFullFeaturedCollection",
        "label": "_name",
        "offset": 0,
        "slot": "4",
        "type": "t_string_storage"
      },
      {
        "astId": 15644,
        "contract": "contracts/collections/ERC721A/presets/ERC721AFullFeaturedCollection.sol:ERC721AFullFeaturedCollection",
        "label": "_symbol",
        "offset": 0,
        "slot": "5",
        "type": "t_string_storage"
      },
      {
        "astId": 15648,
        "contract": "contracts/collections/ERC721A/presets/ERC721AFullFeaturedCollection.sol:ERC721AFullFeaturedCollection",
        "label": "_packedOwnerships",
        "offset": 0,
        "slot": "6",
        "type": "t_mapping(t_uint256,t_uint256)"
      },
      {
        "astId": 15652,
        "contract": "contracts/collections/ERC721A/presets/ERC721AFullFeaturedCollection.sol:ERC721AFullFeaturedCollection",
        "label": "_packedAddressData",
        "offset": 0,
        "slot": "7",
        "type": "t_mapping(t_address,t_uint256)"
      },
      {
        "astId": 15656,
        "contract": "contracts/collections/ERC721A/presets/ERC721AFullFeaturedCollection.sol:ERC721AFullFeaturedCollection",
        "label": "_tokenApprovals",
        "offset": 0,
        "slot": "8",
        "type": "t_mapping(t_uint256,t_address)"
      },
      {
        "astId": 15662,
        "contract": "contracts/collections/ERC721A/presets/ERC721AFullFeaturedCollection.sol:ERC721AFullFeaturedCollection",
        "label": "_operatorApprovals",
        "offset": 0,
        "slot": "9",
        "type": "t_mapping(t_address,t_mapping(t_address,t_bool))"
      },
      {
        "astId": 11636,
        "contract": "contracts/collections/ERC721A/presets/ERC721AFullFeaturedCollection.sol:ERC721AFullFeaturedCollection",
        "label": "_trustedForwarder",
        "offset": 0,
        "slot": "10",
        "type": "t_address"
      },
      {
        "astId": 9172,
        "contract": "contracts/collections/ERC721A/presets/ERC721AFullFeaturedCollection.sol:ERC721AFullFeaturedCollection",
        "label": "_name",
        "offset": 0,
        "slot": "11",
        "type": "t_string_storage"
      },
      {
        "astId": 9174,
        "contract": "contracts/collections/ERC721A/presets/ERC721AFullFeaturedCollection.sol:ERC721AFullFeaturedCollection",
        "label": "_symbol",
        "offset": 0,
        "slot": "12",
        "type": "t_string_storage"
      },
      {
        "astId": 9176,
        "contract": "contracts/collections/ERC721A/presets/ERC721AFullFeaturedCollection.sol:ERC721AFullFeaturedCollection",
        "label": "_contractURI",
        "offset": 0,
        "slot": "13",
        "type": "t_string_storage"
      },
      {
        "astId": 10526,
        "contract": "contracts/collections/ERC721A/presets/ERC721AFullFeaturedCollection.sol:ERC721AFullFeaturedCollection",
        "label": "_placeholderURI",
        "offset": 0,
        "slot": "14",
        "type": "t_string_storage"
      },
      {
        "astId": 10528,
        "contract": "contracts/collections/ERC721A/presets/ERC721AFullFeaturedCollection.sol:ERC721AFullFeaturedCollection",
        "label": "_tokenURIPrefix",
        "offset": 0,
        "slot": "15",
        "type": "t_string_storage"
      },
      {
        "astId": 10530,
        "contract": "contracts/collections/ERC721A/presets/ERC721AFullFeaturedCollection.sol:ERC721AFullFeaturedCollection",
        "label": "_tokenURISuffix",
        "offset": 0,
        "slot": "16",
        "type": "t_string_storage"
      },
      {
        "astId": 10532,
        "contract": "contracts/collections/ERC721A/presets/ERC721AFullFeaturedCollection.sol:ERC721AFullFeaturedCollection",
        "label": "tokenURIFrozen",
        "offset": 0,
        "slot": "17",
        "type": "t_bool"
      },
      {
        "astId": 9384,
        "contract": "contracts/collections/ERC721A/presets/ERC721AFullFeaturedCollection.sol:ERC721AFullFeaturedCollection",
        "label": "maxSupply",
        "offset": 0,
        "slot": "18",
        "type": "t_uint256"
      },
      {
        "astId": 9386,
        "contract": "contracts/collections/ERC721A/presets/ERC721AFullFeaturedCollection.sol:ERC721AFullFeaturedCollection",
        "label": "maxSupplyFrozen",
        "offset": 0,
        "slot": "19",
        "type": "t_bool"
      },
      {
        "astId": 1124,
        "contract": "contracts/collections/ERC721A/presets/ERC721AFullFeaturedCollection.sol:ERC721AFullFeaturedCollection",
        "label": "_status",
        "offset": 0,
        "slot": "20",
        "type": "t_uint256"
      },
      {
        "astId": 10288,
        "contract": "contracts/collections/ERC721A/presets/ERC721AFullFeaturedCollection.sol:ERC721AFullFeaturedCollection",
        "label": "preSalePrice",
        "offset": 0,
        "slot": "21",
        "type": "t_uint256"
      },
      {
        "astId": 10290,
        "contract": "contracts/collections/ERC721A/presets/ERC721AFullFeaturedCollection.sol:ERC721AFullFeaturedCollection",
        "label": "preSaleMaxMintPerWallet",
        "offset": 0,
        "slot": "22",
        "type": "t_uint256"
      },
      {
        "astId": 10292,
        "contract": "contracts/collections/ERC721A/presets/ERC721AFullFeaturedCollection.sol:ERC721AFullFeaturedCollection",
        "label": "preSaleAllowlistMerkleRoot",
        "offset": 0,
        "slot": "23",
        "type": "t_bytes32"
      },
      {
        "astId": 10294,
        "contract": "contracts/collections/ERC721A/presets/ERC721AFullFeaturedCollection.sol:ERC721AFullFeaturedCollection",
        "label": "preSaleStatus",
        "offset": 0,
        "slot": "24",
        "type": "t_bool"
      },
      {
        "astId": 10298,
        "contract": "contracts/collections/ERC721A/presets/ERC721AFullFeaturedCollection.sol:ERC721AFullFeaturedCollection",
        "label": "preSaleAllowlistClaimed",
        "offset": 0,
        "slot": "25",
        "type": "t_mapping(t_address,t_uint256)"
      },
      {
        "astId": 10739,
        "contract": "contracts/collections/ERC721A/presets/ERC721AFullFeaturedCollection.sol:ERC721AFullFeaturedCollection",
        "label": "publicSalePrice",
        "offset": 0,
        "slot": "26",
        "type": "t_uint256"
      },
      {
        "astId": 10741,
        "contract": "contracts/collections/ERC721A/presets/ERC721AFullFeaturedCollection.sol:ERC721AFullFeaturedCollection",
        "label": "publicSaleMaxMintPerTx",
        "offset": 0,
        "slot": "27",
        "type": "t_uint256"
      },
      {
        "astId": 10743,
        "contract": "contracts/collections/ERC721A/presets/ERC721AFullFeaturedCollection.sol:ERC721AFullFeaturedCollection",
        "label": "publicSaleStatus",
        "offset": 0,
        "slot": "28",
        "type": "t_bool"
      },
      {
        "astId": 8040,
        "contract": "contracts/collections/ERC721A/presets/ERC721AFullFeaturedCollection.sol:ERC721AFullFeaturedCollection",
        "label": "proceedsRecipient",
        "offset": 1,
        "slot": "28",
        "type": "t_address"
      },
      {
        "astId": 8042,
        "contract": "contracts/collections/ERC721A/presets/ERC721AFullFeaturedCollection.sol:ERC721AFullFeaturedCollection",
        "label": "proceedsRecipientLocked",
        "offset": 21,
        "slot": "28",
        "type": "t_bool"
      },
      {
        "astId": 406,
        "contract": "contracts/collections/ERC721A/presets/ERC721AFullFeaturedCollection.sol:ERC721AFullFeaturedCollection",
        "label": "_roles",
        "offset": 0,
        "slot": "29",
        "type": "t_mapping(t_bytes32,t_struct(RoleData)401_storage)"
      },
      {
        "astId": 86,
        "contract": "contracts/collections/ERC721A/presets/ERC721AFullFeaturedCollection.sol:ERC721AFullFeaturedCollection",
        "label": "defaultRoyalty",
        "offset": 0,
        "slot": "30",
        "type": "t_struct(TokenRoyalty)28_storage"
      },
      {
        "astId": 91,
        "contract": "contracts/collections/ERC721A/presets/ERC721AFullFeaturedCollection.sol:ERC721AFullFeaturedCollection",
        "label": "_tokenRoyalties",
        "offset": 0,
        "slot": "31",
        "type": "t_mapping(t_uint256,t_struct(TokenRoyalty)28_storage)"
      },
      {
        "astId": 94,
        "contract": "contracts/collections/ERC721A/presets/ERC721AFullFeaturedCollection.sol:ERC721AFullFeaturedCollection",
        "label": "_tokensWithRoyalties",
        "offset": 0,
        "slot": "32",
        "type": "t_struct(UintSet)5526_storage"
      },
      {
        "astId": 9718,
        "contract": "contracts/collections/ERC721A/presets/ERC721AFullFeaturedCollection.sol:ERC721AFullFeaturedCollection",
        "label": "_openSeaProxyRegistryAddress",
        "offset": 0,
        "slot": "34",
        "type": "t_address"
      },
      {
        "astId": 9720,
        "contract": "contracts/collections/ERC721A/presets/ERC721AFullFeaturedCollection.sol:ERC721AFullFeaturedCollection",
        "label": "_openSeaExchangeAddress",
        "offset": 0,
        "slot": "35",
        "type": "t_address"
      }
    ],
    "types": {
      "t_address": {
        "encoding": "inplace",
        "label": "address",
        "numberOfBytes": "20"
      },
      "t_array(t_bytes32)dyn_storage": {
        "base": "t_bytes32",
        "encoding": "dynamic_array",
        "label": "bytes32[]",
        "numberOfBytes": "32"
      },
      "t_bool": {
        "encoding": "inplace",
        "label": "bool",
        "numberOfBytes": "1"
      },
      "t_bytes32": {
        "encoding": "inplace",
        "label": "bytes32",
        "numberOfBytes": "32"
      },
      "t_bytes4": {
        "encoding": "inplace",
        "label": "bytes4",
        "numberOfBytes": "4"
      },
      "t_mapping(t_address,t_bool)": {
        "encoding": "mapping",
        "key": "t_address",
        "label": "mapping(address => bool)",
        "numberOfBytes": "32",
        "value": "t_bool"
      },
      "t_mapping(t_address,t_mapping(t_address,t_bool))": {
        "encoding": "mapping",
        "key": "t_address",
        "label": "mapping(address => mapping(address => bool))",
        "numberOfBytes": "32",
        "value": "t_mapping(t_address,t_bool)"
      },
      "t_mapping(t_address,t_uint256)": {
        "encoding": "mapping",
        "key": "t_address",
        "label": "mapping(address => uint256)",
        "numberOfBytes": "32",
        "value": "t_uint256"
      },
      "t_mapping(t_bytes32,t_struct(RoleData)401_storage)": {
        "encoding": "mapping",
        "key": "t_bytes32",
        "label": "mapping(bytes32 => struct AccessControl.RoleData)",
        "numberOfBytes": "32",
        "value": "t_struct(RoleData)401_storage"
      },
      "t_mapping(t_bytes32,t_uint256)": {
        "encoding": "mapping",
        "key": "t_bytes32",
        "label": "mapping(bytes32 => uint256)",
        "numberOfBytes": "32",
        "value": "t_uint256"
      },
      "t_mapping(t_bytes4,t_bool)": {
        "encoding": "mapping",
        "key": "t_bytes4",
        "label": "mapping(bytes4 => bool)",
        "numberOfBytes": "32",
        "value": "t_bool"
      },
      "t_mapping(t_uint256,t_address)": {
        "encoding": "mapping",
        "key": "t_uint256",
        "label": "mapping(uint256 => address)",
        "numberOfBytes": "32",
        "value": "t_address"
      },
      "t_mapping(t_uint256,t_struct(TokenRoyalty)28_storage)": {
        "encoding": "mapping",
        "key": "t_uint256",
        "label": "mapping(uint256 => struct IEIP2981RoyaltyOverride.TokenRoyalty)",
        "numberOfBytes": "32",
        "value": "t_struct(TokenRoyalty)28_storage"
      },
      "t_mapping(t_uint256,t_uint256)": {
        "encoding": "mapping",
        "key": "t_uint256",
        "label": "mapping(uint256 => uint256)",
        "numberOfBytes": "32",
        "value": "t_uint256"
      },
      "t_string_storage": {
        "encoding": "bytes",
        "label": "string",
        "numberOfBytes": "32"
      },
      "t_struct(RoleData)401_storage": {
        "encoding": "inplace",
        "label": "struct AccessControl.RoleData",
        "members": [
          {
            "astId": 398,
            "contract": "contracts/collections/ERC721A/presets/ERC721AFullFeaturedCollection.sol:ERC721AFullFeaturedCollection",
            "label": "members",
            "offset": 0,
            "slot": "0",
            "type": "t_mapping(t_address,t_bool)"
          },
          {
            "astId": 400,
            "contract": "contracts/collections/ERC721A/presets/ERC721AFullFeaturedCollection.sol:ERC721AFullFeaturedCollection",
            "label": "adminRole",
            "offset": 0,
            "slot": "1",
            "type": "t_bytes32"
          }
        ],
        "numberOfBytes": "64"
      },
      "t_struct(Set)5068_storage": {
        "encoding": "inplace",
        "label": "struct EnumerableSet.Set",
        "members": [
          {
            "astId": 5063,
            "contract": "contracts/collections/ERC721A/presets/ERC721AFullFeaturedCollection.sol:ERC721AFullFeaturedCollection",
            "label": "_values",
            "offset": 0,
            "slot": "0",
            "type": "t_array(t_bytes32)dyn_storage"
          },
          {
            "astId": 5067,
            "contract": "contracts/collections/ERC721A/presets/ERC721AFullFeaturedCollection.sol:ERC721AFullFeaturedCollection",
            "label": "_indexes",
            "offset": 0,
            "slot": "1",
            "type": "t_mapping(t_bytes32,t_uint256)"
          }
        ],
        "numberOfBytes": "64"
      },
      "t_struct(TokenRoyalty)28_storage": {
        "encoding": "inplace",
        "label": "struct IEIP2981RoyaltyOverride.TokenRoyalty",
        "members": [
          {
            "astId": 25,
            "contract": "contracts/collections/ERC721A/presets/ERC721AFullFeaturedCollection.sol:ERC721AFullFeaturedCollection",
            "label": "recipient",
            "offset": 0,
            "slot": "0",
            "type": "t_address"
          },
          {
            "astId": 27,
            "contract": "contracts/collections/ERC721A/presets/ERC721AFullFeaturedCollection.sol:ERC721AFullFeaturedCollection",
            "label": "bps",
            "offset": 20,
            "slot": "0",
            "type": "t_uint16"
          }
        ],
        "numberOfBytes": "32"
      },
      "t_struct(UintSet)5526_storage": {
        "encoding": "inplace",
        "label": "struct EnumerableSet.UintSet",
        "members": [
          {
            "astId": 5525,
            "contract": "contracts/collections/ERC721A/presets/ERC721AFullFeaturedCollection.sol:ERC721AFullFeaturedCollection",
            "label": "_inner",
            "offset": 0,
            "slot": "0",
            "type": "t_struct(Set)5068_storage"
          }
        ],
        "numberOfBytes": "64"
      },
      "t_uint16": {
        "encoding": "inplace",
        "label": "uint16",
        "numberOfBytes": "2"
      },
      "t_uint256": {
        "encoding": "inplace",
        "label": "uint256",
        "numberOfBytes": "32"
      },
      "t_uint8": {
        "encoding": "inplace",
        "label": "uint8",
        "numberOfBytes": "1"
      }
    }
  }
}