{
  "address": "0x2562C73FC45f998633924e0A85d98C6Adc15f18f",
  "abi": [
    {
      "inputs": [
        {
          "components": [
            {
              "internalType": "string",
              "name": "name",
              "type": "string"
            },
            {
              "internalType": "string",
              "name": "symbol",
              "type": "string"
            },
            {
              "internalType": "string",
              "name": "contractURI",
              "type": "string"
            },
            {
              "internalType": "string",
              "name": "placeholderURI",
              "type": "string"
            },
            {
              "internalType": "string",
              "name": "tokenURIPrefix",
              "type": "string"
            },
            {
              "internalType": "uint256",
              "name": "maxSupply",
              "type": "uint256"
            },
            {
              "internalType": "uint256",
              "name": "preSalePrice",
              "type": "uint256"
            },
            {
              "internalType": "uint256",
              "name": "preSaleMaxMintPerWallet",
              "type": "uint256"
            },
            {
              "internalType": "uint256",
              "name": "publicSalePrice",
              "type": "uint256"
            },
            {
              "internalType": "uint256",
              "name": "publicSaleMaxMintPerTx",
              "type": "uint256"
            },
            {
              "internalType": "address",
              "name": "defaultRoyaltyAddress",
              "type": "address"
            },
            {
              "internalType": "uint16",
              "name": "defaultRoyaltyBps",
              "type": "uint16"
            },
            {
              "internalType": "address",
              "name": "proceedsRecipient",
              "type": "address"
            },
            {
              "internalType": "address",
              "name": "openSeaProxyRegistryAddress",
              "type": "address"
            },
            {
              "internalType": "address",
              "name": "openSeaExchangeAddress",
              "type": "address"
            },
            {
              "internalType": "address",
              "name": "trustedForwarder",
              "type": "address"
            }
          ],
          "internalType": "struct ERC721FullFeaturedCollection.Config",
          "name": "config",
          "type": "tuple"
        }
      ],
      "stateMutability": "nonpayable",
      "type": "constructor"
    },
    {
      "anonymous": false,
      "inputs": [
        {
          "indexed": true,
          "internalType": "address",
          "name": "owner",
          "type": "address"
        },
        {
          "indexed": true,
          "internalType": "address",
          "name": "approved",
          "type": "address"
        },
        {
          "indexed": true,
          "internalType": "uint256",
          "name": "tokenId",
          "type": "uint256"
        }
      ],
      "name": "Approval",
      "type": "event"
    },
    {
      "anonymous": false,
      "inputs": [
        {
          "indexed": true,
          "internalType": "address",
          "name": "owner",
          "type": "address"
        },
        {
          "indexed": true,
          "internalType": "address",
          "name": "operator",
          "type": "address"
        },
        {
          "indexed": false,
          "internalType": "bool",
          "name": "approved",
          "type": "bool"
        }
      ],
      "name": "ApprovalForAll",
      "type": "event"
    },
    {
      "anonymous": false,
      "inputs": [
        {
          "indexed": false,
          "internalType": "address",
          "name": "recipient",
          "type": "address"
        },
        {
          "indexed": false,
          "internalType": "uint16",
          "name": "bps",
          "type": "uint16"
        }
      ],
      "name": "DefaultRoyaltySet",
      "type": "event"
    },
    {
      "anonymous": false,
      "inputs": [
        {
          "indexed": false,
          "internalType": "uint8",
          "name": "version",
          "type": "uint8"
        }
      ],
      "name": "Initialized",
      "type": "event"
    },
    {
      "anonymous": false,
      "inputs": [
        {
          "indexed": true,
          "internalType": "address",
          "name": "previousOwner",
          "type": "address"
        },
        {
          "indexed": true,
          "internalType": "address",
          "name": "newOwner",
          "type": "address"
        }
      ],
      "name": "OwnershipTransferred",
      "type": "event"
    },
    {
      "anonymous": false,
      "inputs": [
        {
          "indexed": true,
          "internalType": "bytes32",
          "name": "role",
          "type": "bytes32"
        },
        {
          "indexed": true,
          "internalType": "bytes32",
          "name": "previousAdminRole",
          "type": "bytes32"
        },
        {
          "indexed": true,
          "internalType": "bytes32",
          "name": "newAdminRole",
          "type": "bytes32"
        }
      ],
      "name": "RoleAdminChanged",
      "type": "event"
    },
    {
      "anonymous": false,
      "inputs": [
        {
          "indexed": true,
          "internalType": "bytes32",
          "name": "role",
          "type": "bytes32"
        },
        {
          "indexed": true,
          "internalType": "address",
          "name": "account",
          "type": "address"
        },
        {
          "indexed": true,
          "internalType": "address",
          "name": "sender",
          "type": "address"
        }
      ],
      "name": "RoleGranted",
      "type": "event"
    },
    {
      "anonymous": false,
      "inputs": [
        {
          "indexed": true,
          "internalType": "bytes32",
          "name": "role",
          "type": "bytes32"
        },
        {
          "indexed": true,
          "internalType": "address",
          "name": "account",
          "type": "address"
        },
        {
          "indexed": true,
          "internalType": "address",
          "name": "sender",
          "type": "address"
        }
      ],
      "name": "RoleRevoked",
      "type": "event"
    },
    {
      "anonymous": false,
      "inputs": [
        {
          "indexed": false,
          "internalType": "uint256",
          "name": "tokenId",
          "type": "uint256"
        }
      ],
      "name": "TokenRoyaltyRemoved",
      "type": "event"
    },
    {
      "anonymous": false,
      "inputs": [
        {
          "indexed": false,
          "internalType": "uint256",
          "name": "tokenId",
          "type": "uint256"
        },
        {
          "indexed": false,
          "internalType": "address",
          "name": "recipient",
          "type": "address"
        },
        {
          "indexed": false,
          "internalType": "uint16",
          "name": "bps",
          "type": "uint16"
        }
      ],
      "name": "TokenRoyaltySet",
      "type": "event"
    },
    {
      "anonymous": false,
      "inputs": [
        {
          "indexed": true,
          "internalType": "address",
          "name": "from",
          "type": "address"
        },
        {
          "indexed": true,
          "internalType": "address",
          "name": "to",
          "type": "address"
        },
        {
          "indexed": true,
          "internalType": "uint256",
          "name": "tokenId",
          "type": "uint256"
        }
      ],
      "name": "Transfer",
      "type": "event"
    },
    {
      "inputs": [],
      "name": "DEFAULT_ADMIN_ROLE",
      "outputs": [
        {
          "internalType": "bytes32",
          "name": "",
          "type": "bytes32"
        }
      ],
      "stateMutability": "view",
      "type": "function"
    },
    {
      "inputs": [],
      "name": "LOCKER_ROLE",
      "outputs": [
        {
          "internalType": "bytes32",
          "name": "",
          "type": "bytes32"
        }
      ],
      "stateMutability": "view",
      "type": "function"
    },
    {
      "inputs": [],
      "name": "MINTER_ROLE",
      "outputs": [
        {
          "internalType": "bytes32",
          "name": "",
          "type": "bytes32"
        }
      ],
      "stateMutability": "view",
      "type": "function"
    },
    {
      "inputs": [],
      "name": "_trustedForwarder",
      "outputs": [
        {
          "internalType": "address",
          "name": "",
          "type": "address"
        }
      ],
      "stateMutability": "view",
      "type": "function"
    },
    {
      "inputs": [
        {
          "internalType": "address",
          "name": "to",
          "type": "address"
        },
        {
          "internalType": "uint256",
          "name": "tokenId",
          "type": "uint256"
        }
      ],
      "name": "approve",
      "outputs": [],
      "stateMutability": "nonpayable",
      "type": "function"
    },
    {
      "inputs": [
        {
          "internalType": "address",
          "name": "owner",
          "type": "address"
        }
      ],
      "name": "balanceOf",
      "outputs": [
        {
          "internalType": "uint256",
          "name": "",
          "type": "uint256"
        }
      ],
      "stateMutability": "view",
      "type": "function"
    },
    {
      "inputs": [],
      "name": "contractURI",
      "outputs": [
        {
          "internalType": "string",
          "name": "",
          "type": "string"
        }
      ],
      "stateMutability": "view",
      "type": "function"
    },
    {
      "inputs": [],
      "name": "defaultRoyalty",
      "outputs": [
        {
          "internalType": "address",
          "name": "recipient",
          "type": "address"
        },
        {
          "internalType": "uint16",
          "name": "bps",
          "type": "uint16"
        }
      ],
      "stateMutability": "view",
      "type": "function"
    },
    {
      "inputs": [],
      "name": "freezeMaxSupply",
      "outputs": [],
      "stateMutability": "nonpayable",
      "type": "function"
    },
    {
      "inputs": [],
      "name": "freezeTokenURI",
      "outputs": [],
      "stateMutability": "nonpayable",
      "type": "function"
    },
    {
      "inputs": [
        {
          "internalType": "uint256",
          "name": "tokenId",
          "type": "uint256"
        }
      ],
      "name": "getApproved",
      "outputs": [
        {
          "internalType": "address",
          "name": "",
          "type": "address"
        }
      ],
      "stateMutability": "view",
      "type": "function"
    },
    {
      "inputs": [],
      "name": "getInfo",
      "outputs": [
        {
          "internalType": "uint256",
          "name": "_maxSupply",
          "type": "uint256"
        },
        {
          "internalType": "uint256",
          "name": "_totalSupply",
          "type": "uint256"
        },
        {
          "internalType": "uint256",
          "name": "_senderBalance",
          "type": "uint256"
        },
        {
          "internalType": "uint256",
          "name": "_preSalePrice",
          "type": "uint256"
        },
        {
          "internalType": "uint256",
          "name": "_preSaleMaxMintPerWallet",
          "type": "uint256"
        },
        {
          "internalType": "uint256",
          "name": "_preSaleAlreadyClaimed",
          "type": "uint256"
        },
        {
          "internalType": "bool",
          "name": "_preSaleActive",
          "type": "bool"
        },
        {
          "internalType": "uint256",
          "name": "_publicSalePrice",
          "type": "uint256"
        },
        {
          "internalType": "uint256",
          "name": "_publicSaleMaxMintPerTx",
          "type": "uint256"
        },
        {
          "internalType": "bool",
          "name": "_publicSaleActive",
          "type": "bool"
        }
      ],
      "stateMutability": "view",
      "type": "function"
    },
    {
      "inputs": [
        {
          "internalType": "uint256",
          "name": "id",
          "type": "uint256"
        }
      ],
      "name": "getRaribleV2Royalties",
      "outputs": [
        {
          "components": [
            {
              "internalType": "address payable",
              "name": "account",
              "type": "address"
            },
            {
              "internalType": "uint96",
              "name": "value",
              "type": "uint96"
            }
          ],
          "internalType": "struct LibPart.Part[]",
          "name": "result",
          "type": "tuple[]"
        }
      ],
      "stateMutability": "view",
      "type": "function"
    },
    {
      "inputs": [
        {
          "internalType": "bytes32",
          "name": "role",
          "type": "bytes32"
        }
      ],
      "name": "getRoleAdmin",
      "outputs": [
        {
          "internalType": "bytes32",
          "name": "",
          "type": "bytes32"
        }
      ],
      "stateMutability": "view",
      "type": "function"
    },
    {
      "inputs": [],
      "name": "getTokenRoyaltiesCount",
      "outputs": [
        {
          "internalType": "uint256",
          "name": "",
          "type": "uint256"
        }
      ],
      "stateMutability": "view",
      "type": "function"
    },
    {
      "inputs": [
        {
          "internalType": "uint256",
          "name": "index",
          "type": "uint256"
        }
      ],
      "name": "getTokenRoyaltyByIndex",
      "outputs": [
        {
          "components": [
            {
              "internalType": "uint256",
              "name": "tokenId",
              "type": "uint256"
            },
            {
              "internalType": "address",
              "name": "recipient",
              "type": "address"
            },
            {
              "internalType": "uint16",
              "name": "bps",
              "type": "uint16"
            }
          ],
          "internalType": "struct IEIP2981RoyaltyOverride.TokenRoyaltyConfig",
          "name": "",
          "type": "tuple"
        }
      ],
      "stateMutability": "view",
      "type": "function"
    },
    {
      "inputs": [
        {
          "internalType": "bytes32",
          "name": "role",
          "type": "bytes32"
        },
        {
          "internalType": "address",
          "name": "account",
          "type": "address"
        }
      ],
      "name": "grantRole",
      "outputs": [],
      "stateMutability": "nonpayable",
      "type": "function"
    },
    {
      "inputs": [
        {
          "internalType": "bytes32",
          "name": "role",
          "type": "bytes32"
        },
        {
          "internalType": "address",
          "name": "account",
          "type": "address"
        }
      ],
      "name": "hasRole",
      "outputs": [
        {
          "internalType": "bool",
          "name": "",
          "type": "bool"
        }
      ],
      "stateMutability": "view",
      "type": "function"
    },
    {
      "inputs": [],
      "name": "hasRoleBasedLockableExtension",
      "outputs": [
        {
          "internalType": "bool",
          "name": "",
          "type": "bool"
        }
      ],
      "stateMutability": "view",
      "type": "function"
    },
    {
      "inputs": [
        {
          "components": [
            {
              "internalType": "string",
              "name": "name",
              "type": "string"
            },
            {
              "internalType": "string",
              "name": "symbol",
              "type": "string"
            },
            {
              "internalType": "string",
              "name": "contractURI",
              "type": "string"
            },
            {
              "internalType": "string",
              "name": "placeholderURI",
              "type": "string"
            },
            {
              "internalType": "string",
              "name": "tokenURIPrefix",
              "type": "string"
            },
            {
              "internalType": "uint256",
              "name": "maxSupply",
              "type": "uint256"
            },
            {
              "internalType": "uint256",
              "name": "preSalePrice",
              "type": "uint256"
            },
            {
              "internalType": "uint256",
              "name": "preSaleMaxMintPerWallet",
              "type": "uint256"
            },
            {
              "internalType": "uint256",
              "name": "publicSalePrice",
              "type": "uint256"
            },
            {
              "internalType": "uint256",
              "name": "publicSaleMaxMintPerTx",
              "type": "uint256"
            },
            {
              "internalType": "address",
              "name": "defaultRoyaltyAddress",
              "type": "address"
            },
            {
              "internalType": "uint16",
              "name": "defaultRoyaltyBps",
              "type": "uint16"
            },
            {
              "internalType": "address",
              "name": "proceedsRecipient",
              "type": "address"
            },
            {
              "internalType": "address",
              "name": "openSeaProxyRegistryAddress",
              "type": "address"
            },
            {
              "internalType": "address",
              "name": "openSeaExchangeAddress",
              "type": "address"
            },
            {
              "internalType": "address",
              "name": "trustedForwarder",
              "type": "address"
            }
          ],
          "internalType": "struct ERC721FullFeaturedCollection.Config",
          "name": "config",
          "type": "tuple"
        },
        {
          "internalType": "address",
          "name": "deployer",
          "type": "address"
        }
      ],
      "name": "initialize",
      "outputs": [],
      "stateMutability": "nonpayable",
      "type": "function"
    },
    {
      "inputs": [
        {
          "internalType": "address",
          "name": "owner",
          "type": "address"
        },
        {
          "internalType": "address",
          "name": "operator",
          "type": "address"
        }
      ],
      "name": "isApprovedForAll",
      "outputs": [
        {
          "internalType": "bool",
          "name": "",
          "type": "bool"
        }
      ],
      "stateMutability": "view",
      "type": "function"
    },
    {
      "inputs": [
        {
          "internalType": "address",
          "name": "forwarder",
          "type": "address"
        }
      ],
      "name": "isTrustedForwarder",
      "outputs": [
        {
          "internalType": "bool",
          "name": "",
          "type": "bool"
        }
      ],
      "stateMutability": "view",
      "type": "function"
    },
    {
      "inputs": [
        {
          "internalType": "uint256[]",
          "name": "tokenIds",
          "type": "uint256[]"
        }
      ],
      "name": "lock",
      "outputs": [],
      "stateMutability": "nonpayable",
      "type": "function"
    },
    {
      "inputs": [],
      "name": "lockProceedsRecipient",
      "outputs": [],
      "stateMutability": "nonpayable",
      "type": "function"
    },
    {
      "inputs": [
        {
          "internalType": "uint256",
          "name": "tokenId",
          "type": "uint256"
        }
      ],
      "name": "locked",
      "outputs": [
        {
          "internalType": "bool",
          "name": "",
          "type": "bool"
        }
      ],
      "stateMutability": "view",
      "type": "function"
    },
    {
      "inputs": [],
      "name": "maxSupply",
      "outputs": [
        {
          "internalType": "uint256",
          "name": "",
          "type": "uint256"
        }
      ],
      "stateMutability": "view",
      "type": "function"
    },
    {
      "inputs": [],
      "name": "maxSupplyFrozen",
      "outputs": [
        {
          "internalType": "bool",
          "name": "",
          "type": "bool"
        }
      ],
      "stateMutability": "view",
      "type": "function"
    },
    {
      "inputs": [
        {
          "internalType": "address",
          "name": "to",
          "type": "address"
        },
        {
          "internalType": "uint256",
          "name": "count",
          "type": "uint256"
        }
      ],
      "name": "mintByOwner",
      "outputs": [],
      "stateMutability": "nonpayable",
      "type": "function"
    },
    {
      "inputs": [
        {
          "internalType": "address",
          "name": "to",
          "type": "address"
        },
        {
          "internalType": "uint256",
          "name": "count",
          "type": "uint256"
        }
      ],
      "name": "mintByRole",
      "outputs": [],
      "stateMutability": "nonpayable",
      "type": "function"
    },
    {
      "inputs": [
        {
          "internalType": "uint256",
          "name": "count",
          "type": "uint256"
        },
        {
          "internalType": "bytes32[]",
          "name": "proof",
          "type": "bytes32[]"
        }
      ],
      "name": "mintPreSale",
      "outputs": [],
      "stateMutability": "payable",
      "type": "function"
    },
    {
      "inputs": [
        {
          "internalType": "address",
          "name": "to",
          "type": "address"
        },
        {
          "internalType": "uint256",
          "name": "count",
          "type": "uint256"
        }
      ],
      "name": "mintPublicSale",
      "outputs": [],
      "stateMutability": "payable",
      "type": "function"
    },
    {
      "inputs": [],
      "name": "name",
      "outputs": [
        {
          "internalType": "string",
          "name": "",
          "type": "string"
        }
      ],
      "stateMutability": "view",
      "type": "function"
    },
    {
      "inputs": [
        {
          "internalType": "address",
          "name": "minter",
          "type": "address"
        },
        {
          "internalType": "bytes32[]",
          "name": "proof",
          "type": "bytes32[]"
        }
      ],
      "name": "onPreSaleAllowList",
      "outputs": [
        {
          "internalType": "bool",
          "name": "",
          "type": "bool"
        }
      ],
      "stateMutability": "view",
      "type": "function"
    },
    {
      "inputs": [],
      "name": "owner",
      "outputs": [
        {
          "internalType": "address",
          "name": "",
          "type": "address"
        }
      ],
      "stateMutability": "view",
      "type": "function"
    },
    {
      "inputs": [
        {
          "internalType": "uint256",
          "name": "tokenId",
          "type": "uint256"
        }
      ],
      "name": "ownerOf",
      "outputs": [
        {
          "internalType": "address",
          "name": "",
          "type": "address"
        }
      ],
      "stateMutability": "view",
      "type": "function"
    },
    {
      "inputs": [],
      "name": "placeholderURI",
      "outputs": [
        {
          "internalType": "string",
          "name": "",
          "type": "string"
        }
      ],
      "stateMutability": "view",
      "type": "function"
    },
    {
      "inputs": [],
      "name": "preSaleAllowlistMerkleRoot",
      "outputs": [
        {
          "internalType": "bytes32",
          "name": "",
          "type": "bytes32"
        }
      ],
      "stateMutability": "view",
      "type": "function"
    },
    {
      "inputs": [],
      "name": "preSaleMaxMintPerWallet",
      "outputs": [
        {
          "internalType": "uint256",
          "name": "",
          "type": "uint256"
        }
      ],
      "stateMutability": "view",
      "type": "function"
    },
    {
      "inputs": [],
      "name": "preSalePrice",
      "outputs": [
        {
          "internalType": "uint256",
          "name": "",
          "type": "uint256"
        }
      ],
      "stateMutability": "view",
      "type": "function"
    },
    {
      "inputs": [],
      "name": "preSaleStatus",
      "outputs": [
        {
          "internalType": "bool",
          "name": "",
          "type": "bool"
        }
      ],
      "stateMutability": "view",
      "type": "function"
    },
    {
      "inputs": [],
      "name": "proceedsRecipient",
      "outputs": [
        {
          "internalType": "address",
          "name": "",
          "type": "address"
        }
      ],
      "stateMutability": "view",
      "type": "function"
    },
    {
      "inputs": [],
      "name": "proceedsRecipientLocked",
      "outputs": [
        {
          "internalType": "bool",
          "name": "",
          "type": "bool"
        }
      ],
      "stateMutability": "view",
      "type": "function"
    },
    {
      "inputs": [],
      "name": "publicSaleMaxMintPerTx",
      "outputs": [
        {
          "internalType": "uint256",
          "name": "",
          "type": "uint256"
        }
      ],
      "stateMutability": "view",
      "type": "function"
    },
    {
      "inputs": [],
      "name": "publicSalePrice",
      "outputs": [
        {
          "internalType": "uint256",
          "name": "",
          "type": "uint256"
        }
      ],
      "stateMutability": "view",
      "type": "function"
    },
    {
      "inputs": [],
      "name": "publicSaleStatus",
      "outputs": [
        {
          "internalType": "bool",
          "name": "",
          "type": "bool"
        }
      ],
      "stateMutability": "view",
      "type": "function"
    },
    {
      "inputs": [],
      "name": "renounceOwnership",
      "outputs": [],
      "stateMutability": "nonpayable",
      "type": "function"
    },
    {
      "inputs": [
        {
          "internalType": "bytes32",
          "name": "role",
          "type": "bytes32"
        },
        {
          "internalType": "address",
          "name": "account",
          "type": "address"
        }
      ],
      "name": "renounceRole",
      "outputs": [],
      "stateMutability": "nonpayable",
      "type": "function"
    },
    {
      "inputs": [
        {
          "internalType": "bytes32",
          "name": "role",
          "type": "bytes32"
        },
        {
          "internalType": "address",
          "name": "account",
          "type": "address"
        }
      ],
      "name": "revokeRole",
      "outputs": [],
      "stateMutability": "nonpayable",
      "type": "function"
    },
    {
      "inputs": [
        {
          "internalType": "uint256",
          "name": "tokenId",
          "type": "uint256"
        },
        {
          "internalType": "uint256",
          "name": "value",
          "type": "uint256"
        }
      ],
      "name": "royaltyInfo",
      "outputs": [
        {
          "internalType": "address",
          "name": "",
          "type": "address"
        },
        {
          "internalType": "uint256",
          "name": "",
          "type": "uint256"
        }
      ],
      "stateMutability": "view",
      "type": "function"
    },
    {
      "inputs": [
        {
          "internalType": "address",
          "name": "from",
          "type": "address"
        },
        {
          "internalType": "address",
          "name": "to",
          "type": "address"
        },
        {
          "internalType": "uint256",
          "name": "tokenId",
          "type": "uint256"
        }
      ],
      "name": "safeTransferFrom",
      "outputs": [],
      "stateMutability": "nonpayable",
      "type": "function"
    },
    {
      "inputs": [
        {
          "internalType": "address",
          "name": "from",
          "type": "address"
        },
        {
          "internalType": "address",
          "name": "to",
          "type": "address"
        },
        {
          "internalType": "uint256",
          "name": "tokenId",
          "type": "uint256"
        },
        {
          "internalType": "bytes",
          "name": "_data",
          "type": "bytes"
        }
      ],
      "name": "safeTransferFrom",
      "outputs": [],
      "stateMutability": "nonpayable",
      "type": "function"
    },
    {
      "inputs": [
        {
          "internalType": "bytes32",
          "name": "newRoot",
          "type": "bytes32"
        }
      ],
      "name": "setAllowlistMerkleRoot",
      "outputs": [],
      "stateMutability": "nonpayable",
      "type": "function"
    },
    {
      "inputs": [
        {
          "internalType": "address",
          "name": "operator",
          "type": "address"
        },
        {
          "internalType": "bool",
          "name": "approved",
          "type": "bool"
        }
      ],
      "name": "setApprovalForAll",
      "outputs": [],
      "stateMutability": "nonpayable",
      "type": "function"
    },
    {
      "inputs": [
        {
          "internalType": "string",
          "name": "newValue",
          "type": "string"
        }
      ],
      "name": "setContractURI",
      "outputs": [],
      "stateMutability": "nonpayable",
      "type": "function"
    },
    {
      "inputs": [
        {
          "components": [
            {
              "internalType": "address",
              "name": "recipient",
              "type": "address"
            },
            {
              "internalType": "uint16",
              "name": "bps",
              "type": "uint16"
            }
          ],
          "internalType": "struct IEIP2981RoyaltyOverride.TokenRoyalty",
          "name": "royalty",
          "type": "tuple"
        }
      ],
      "name": "setDefaultRoyalty",
      "outputs": [],
      "stateMutability": "nonpayable",
      "type": "function"
    },
    {
      "inputs": [
        {
          "internalType": "uint256",
          "name": "newValue",
          "type": "uint256"
        }
      ],
      "name": "setMaxSupply",
      "outputs": [],
      "stateMutability": "nonpayable",
      "type": "function"
    },
    {
      "inputs": [
        {
          "internalType": "address",
          "name": "addr",
          "type": "address"
        }
      ],
      "name": "setOpenSeaExchangeAddress",
      "outputs": [],
      "stateMutability": "nonpayable",
      "type": "function"
    },
    {
      "inputs": [
        {
          "internalType": "address",
          "name": "addr",
          "type": "address"
        }
      ],
      "name": "setOpenSeaProxyRegistryAddress",
      "outputs": [],
      "stateMutability": "nonpayable",
      "type": "function"
    },
    {
      "inputs": [
        {
          "internalType": "string",
          "name": "newValue",
          "type": "string"
        }
      ],
      "name": "setPlaceholderURI",
      "outputs": [],
      "stateMutability": "nonpayable",
      "type": "function"
    },
    {
      "inputs": [
        {
          "internalType": "uint256",
          "name": "newValue",
          "type": "uint256"
        }
      ],
      "name": "setPreSaleMaxMintPerWallet",
      "outputs": [],
      "stateMutability": "nonpayable",
      "type": "function"
    },
    {
      "inputs": [
        {
          "internalType": "uint256",
          "name": "newValue",
          "type": "uint256"
        }
      ],
      "name": "setPreSalePrice",
      "outputs": [],
      "stateMutability": "nonpayable",
      "type": "function"
    },
    {
      "inputs": [
        {
          "internalType": "address",
          "name": "_proceedsRecipient",
          "type": "address"
        }
      ],
      "name": "setProceedsRecipient",
      "outputs": [],
      "stateMutability": "nonpayable",
      "type": "function"
    },
    {
      "inputs": [
        {
          "internalType": "uint256",
          "name": "newValue",
          "type": "uint256"
        }
      ],
      "name": "setPublicSaleMaxMintPerTx",
      "outputs": [],
      "stateMutability": "nonpayable",
      "type": "function"
    },
    {
      "inputs": [
        {
          "internalType": "uint256",
          "name": "newValue",
          "type": "uint256"
        }
      ],
      "name": "setPublicSalePrice",
      "outputs": [],
      "stateMutability": "nonpayable",
      "type": "function"
    },
    {
      "inputs": [
        {
          "components": [
            {
              "internalType": "uint256",
              "name": "tokenId",
              "type": "uint256"
            },
            {
              "internalType": "address",
              "name": "recipient",
              "type": "address"
            },
            {
              "internalType": "uint16",
              "name": "bps",
              "type": "uint16"
            }
          ],
          "internalType": "struct IEIP2981RoyaltyOverride.TokenRoyaltyConfig[]",
          "name": "royaltyConfigs",
          "type": "tuple[]"
        }
      ],
      "name": "setTokenRoyalties",
      "outputs": [],
      "stateMutability": "nonpayable",
      "type": "function"
    },
    {
      "inputs": [
        {
          "internalType": "string",
          "name": "newValue",
          "type": "string"
        }
      ],
      "name": "setTokenURIPrefix",
      "outputs": [],
      "stateMutability": "nonpayable",
      "type": "function"
    },
    {
      "inputs": [
        {
          "internalType": "string",
          "name": "newValue",
          "type": "string"
        }
      ],
      "name": "setTokenURISuffix",
      "outputs": [],
      "stateMutability": "nonpayable",
      "type": "function"
    },
    {
      "inputs": [
        {
          "internalType": "address",
          "name": "trustedForwarder",
          "type": "address"
        }
      ],
      "name": "setTrustedForwarder",
      "outputs": [],
      "stateMutability": "nonpayable",
      "type": "function"
    },
    {
      "inputs": [
        {
          "internalType": "bytes4",
          "name": "interfaceId",
          "type": "bytes4"
        }
      ],
      "name": "supportsInterface",
      "outputs": [
        {
          "internalType": "bool",
          "name": "",
          "type": "bool"
        }
      ],
      "stateMutability": "view",
      "type": "function"
    },
    {
      "inputs": [],
      "name": "symbol",
      "outputs": [
        {
          "internalType": "string",
          "name": "",
          "type": "string"
        }
      ],
      "stateMutability": "view",
      "type": "function"
    },
    {
      "inputs": [
        {
          "internalType": "bool",
          "name": "isActive",
          "type": "bool"
        }
      ],
      "name": "togglePreSaleStatus",
      "outputs": [],
      "stateMutability": "nonpayable",
      "type": "function"
    },
    {
      "inputs": [
        {
          "internalType": "bool",
          "name": "isActive",
          "type": "bool"
        }
      ],
      "name": "togglePublicSaleStatus",
      "outputs": [],
      "stateMutability": "nonpayable",
      "type": "function"
    },
    {
      "inputs": [
        {
          "internalType": "uint256",
          "name": "_tokenId",
          "type": "uint256"
        }
      ],
      "name": "tokenURI",
      "outputs": [
        {
          "internalType": "string",
          "name": "",
          "type": "string"
        }
      ],
      "stateMutability": "view",
      "type": "function"
    },
    {
      "inputs": [],
      "name": "tokenURIFrozen",
      "outputs": [
        {
          "internalType": "bool",
          "name": "",
          "type": "bool"
        }
      ],
      "stateMutability": "view",
      "type": "function"
    },
    {
      "inputs": [],
      "name": "tokenURIPrefix",
      "outputs": [
        {
          "internalType": "string",
          "name": "",
          "type": "string"
        }
      ],
      "stateMutability": "view",
      "type": "function"
    },
    {
      "inputs": [],
      "name": "tokenURISuffix",
      "outputs": [
        {
          "internalType": "string",
          "name": "",
          "type": "string"
        }
      ],
      "stateMutability": "view",
      "type": "function"
    },
    {
      "inputs": [],
      "name": "totalSupply",
      "outputs": [
        {
          "internalType": "uint256",
          "name": "",
          "type": "uint256"
        }
      ],
      "stateMutability": "view",
      "type": "function"
    },
    {
      "inputs": [
        {
          "internalType": "address",
          "name": "from",
          "type": "address"
        },
        {
          "internalType": "address",
          "name": "to",
          "type": "address"
        },
        {
          "internalType": "uint256",
          "name": "tokenId",
          "type": "uint256"
        }
      ],
      "name": "transferFrom",
      "outputs": [],
      "stateMutability": "nonpayable",
      "type": "function"
    },
    {
      "inputs": [
        {
          "internalType": "address",
          "name": "from",
          "type": "address"
        },
        {
          "internalType": "address",
          "name": "to",
          "type": "address"
        },
        {
          "internalType": "uint256[]",
          "name": "tokenIds",
          "type": "uint256[]"
        }
      ],
      "name": "transferFromBulk",
      "outputs": [],
      "stateMutability": "nonpayable",
      "type": "function"
    },
    {
      "inputs": [
        {
          "internalType": "address[]",
          "name": "from",
          "type": "address[]"
        },
        {
          "internalType": "address[]",
          "name": "to",
          "type": "address[]"
        },
        {
          "internalType": "uint256[]",
          "name": "tokenIds",
          "type": "uint256[]"
        }
      ],
      "name": "transferFromBulk",
      "outputs": [],
      "stateMutability": "nonpayable",
      "type": "function"
    },
    {
      "inputs": [
        {
          "internalType": "address",
          "name": "newOwner",
          "type": "address"
        }
      ],
      "name": "transferOwnership",
      "outputs": [],
      "stateMutability": "nonpayable",
      "type": "function"
    },
    {
      "inputs": [
        {
          "internalType": "uint256[]",
          "name": "tokenIds",
          "type": "uint256[]"
        }
      ],
      "name": "unlock",
      "outputs": [],
      "stateMutability": "nonpayable",
      "type": "function"
    },
    {
      "inputs": [],
      "name": "withdraw",
      "outputs": [],
      "stateMutability": "nonpayable",
      "type": "function"
    }
  ],
  "transactionHash": "0xd5794ed17e0ebaab51401d7f2f7d32c834d531dcbb4fd15ced1cd1a1293dbd9b",
  "args": [
    {
      "name": "Collection",
      "symbol": "COL",
      "contractURI": "ipfs://contractURI",
      "placeholderURI": "ipfs://placeholderURI",
      "tokenURIPrefix": "ipfs://tokenURIPrefix/",
      "maxSupply": 0,
      "preSalePrice": 0,
      "preSaleMaxMintPerWallet": 0,
      "publicSalePrice": 0,
      "publicSaleMaxMintPerTx": 10,
      "defaultRoyaltyAddress": "0x0000000000000000000000000000000000000000",
      "defaultRoyaltyBps": 0,
      "proceedsRecipient": "0x0000000000000000000000000000000000000000",
      "openSeaProxyRegistryAddress": "0x0000000000000000000000000000000000000000",
      "openSeaExchangeAddress": "0x0000000000000000000000000000000000000000",
      "trustedForwarder": "0x0000000000000000000000000000000000000000"
    }
  ],
  "numDeployments": 8,
  "solcInputHash": "a84f1fb15c0a559568857f55aefac1fb",
  "bytecode": "0x608060405260006011553480156200001657600080fd5b50604051620067fc380380620067fc833981016040819052620000399162000f14565b80516020820151620000546200004e6200009a565b620000b6565b81516200006990600290602085019062000d39565b5080516200007f90600390602084019062000d39565b505060016012555062000093813362000111565b50620011b5565b6000620000b16200029860201b620028dc1760201c565b905090565b600080546001600160a01b038381166201000081810262010000600160b01b0319851617855560405193049190911692909183917f8be0079c531659141344cd1fd0a4f28419497f9722a3daafe3b4186f6b6457e091a35050565b60006200011f6001620002d1565b9050801562000138576000805461ff0019166101001790555b6200014560008362000383565b6200015082620000b6565b8251602084015160408501516200016992919062000393565b6200018383606001518460800151620003ca60201b60201c565b60a0830151620001939062000400565b6200019d62000438565b620001a8826200046e565b620001c28360c001518460e00151620004a360201b60201c565b620001de836101000151846101200151620004ea60201b60201c565b610180830151620001ef9062000520565b6200020b8361014001518461016001516200055560201b60201c565b62000227836101a00151846101c001516200058b60201b60201c565b6101e08301516200023890620005c1565b62000242620005f6565b6200024c6200062a565b801562000293576000805461ff0019169055604051600181527f7f26b83ff96e1f2b6a682f133852f6798a09c465da95921460cefb38474024989060200160405180910390a15b505050565b6023546000906001600160a01b0316331415620002bc575060131936013560601c90565b620000b16200065e60201b620028fe1760201c565b60008054610100900460ff16156200033a578160ff1660011480156200030a575062000308306200066260201b620029021760201c565b155b620003325760405162461bcd60e51b81526004016200032990620010df565b60405180910390fd5b506000919050565b60005460ff808416911610620003645760405162461bcd60e51b81526004016200032990620010df565b506000805460ff191660ff92909216919091179055600190565b919050565b6200038f828262000671565b5050565b600054610100900460ff16620003bd5760405162461bcd60e51b815260040162000329906200112d565b6200029383838362000717565b600054610100900460ff16620003f45760405162461bcd60e51b815260040162000329906200112d565b6200038f8282620007b9565b600054610100900460ff166200042a5760405162461bcd60e51b815260040162000329906200112d565b620004358162000862565b50565b600054610100900460ff16620004625760405162461bcd60e51b815260040162000329906200112d565b6200046c620008b5565b565b600054610100900460ff16620004985760405162461bcd60e51b815260040162000329906200112d565b6200043581620008f1565b600054610100900460ff16620004cd5760405162461bcd60e51b815260040162000329906200112d565b620004df63209680f760e11b62000959565b601391909155601455565b600054610100900460ff16620005145760405162461bcd60e51b815260040162000329906200112d565b6200038f8282620009dd565b600054610100900460ff166200054a5760405162461bcd60e51b815260040162000329906200112d565b620004358162000a24565b600054610100900460ff166200057f5760405162461bcd60e51b815260040162000329906200112d565b6200038f828262000a88565b600054610100900460ff16620005b55760405162461bcd60e51b815260040162000329906200112d565b6200038f828262000b25565b600054610100900460ff16620005eb5760405162461bcd60e51b815260040162000329906200112d565b620004358162000b8f565b600054610100900460ff16620006205760405162461bcd60e51b815260040162000329906200112d565b6200046c62000bdb565b600054610100900460ff16620006545760405162461bcd60e51b815260040162000329906200112d565b6200046c62000c17565b3390565b6001600160a01b03163b151590565b6000828152601c602090815260408083206001600160a01b038516845290915290205460ff166200038f576000828152601c602090815260408083206001600160a01b03851684529091529020805460ff19166001179055620006d36200009a565b6001600160a01b0316816001600160a01b0316837f2f8788117e7eff1d82e926ec794901d17c78024a50270940304540a733656f0d60405160405180910390a45050565b600054610100900460ff16620007415760405162461bcd60e51b815260040162000329906200112d565b82516200075690600c90602086019062000d39565b5081516200076c90600d90602085019062000d39565b5080516200078290600e90602084019062000d39565b5062000795633d96f4ff60e11b62000959565b620007a76380ac58cd60e01b62000959565b62000293635b5e139f60e01b62000959565b600054610100900460ff16620007e35760405162461bcd60e51b815260040162000329906200112d565b8151620007f890600890602085019062000d39565b5080516200080e90600990602084019062000d39565b5060408051808201909152600580825264173539b7b760d91b60209092019182526200083d91600a9162000d39565b5062000850631f2f406b60e01b62000959565b6200038f635b5e139f60e01b62000959565b600054610100900460ff166200088c5760405162461bcd60e51b815260040162000329906200112d565b600f819055620008a36330f487b560e11b62000959565b620004356380ac58cd60e01b62000959565b600054610100900460ff16620008df5760405162461bcd60e51b815260040162000329906200112d565b6200046c631aa1577160e11b62000959565b600054610100900460ff166200091b5760405162461bcd60e51b815260040162000329906200112d565b6200092d631a056e7160e01b62000959565b620004357f9f2df0fed2c77648de5860a4cc508cd0818c85b8b8a1ab4ceeef8d981c8956a68262000383565b6001600160e01b03198082161415620009b55760405162461bcd60e51b815260206004820152601c60248201527f4552433136353a20696e76616c696420696e7465726661636520696400000000604482015260640162000329565b6001600160e01b0319166000908152600160208190526040909120805460ff19169091179055565b600054610100900460ff1662000a075760405162461bcd60e51b815260040162000329906200112d565b62000a196317e0bac360e31b62000959565b601891909155601955565b600054610100900460ff1662000a4e5760405162461bcd60e51b815260040162000329906200112d565b62000a6063e2b3173560e01b62000959565b601a80546001600160a01b0390921661010002610100600160a81b0319909216919091179055565b600054610100900460ff1662000ab25760405162461bcd60e51b815260040162000329906200112d565b62000ac4633a47bf5160e11b62000959565b62000ad663152a902d60e11b62000959565b62000ae863c69dbd8f60e01b62000959565b62000afa63656cb66560e11b62000959565b604080518082019091526001600160a01b038316815261ffff82166020820152620002938162000c53565b600054610100900460ff1662000b4f5760405162461bcd60e51b815260040162000329906200112d565b62000b61638d29851f60e01b62000959565b602180546001600160a01b039384166001600160a01b03199182161790915560228054929093169116179055565b600054610100900460ff1662000bb95760405162461bcd60e51b815260040162000329906200112d565b602380546001600160a01b0319166001600160a01b0392909216919091179055565b600054610100900460ff1662000c055760405162461bcd60e51b815260040162000329906200112d565b6200046c6354f548d760e11b62000959565b600054610100900460ff1662000c415760405162461bcd60e51b815260040162000329906200112d565b6200046c632a7c3e4960e01b62000959565b612710816020015161ffff161062000c9c5760405162461bcd60e51b815260206004820152600b60248201526a496e76616c69642062707360a81b604482015260640162000329565b60408051808201825282516001600160a01b03168082526020808501805161ffff1691909301819052601d8054600160a01b9092026001600160b01b03199092169092171790558251905191517f2c5ea6e4103e78cb101e796fb2dace540362fc542cbff5145eaa24af7dd8fe419262000d2e92916001600160a01b0392909216825261ffff16602082015260400190565b60405180910390a150565b82805462000d479062001178565b90600052602060002090601f01602090048101928262000d6b576000855562000db6565b82601f1062000d8657805160ff191683800117855562000db6565b8280016001018555821562000db6579182015b8281111562000db657825182559160200191906001019062000d99565b5062000dc492915062000dc8565b5090565b5b8082111562000dc4576000815560010162000dc9565b634e487b7160e01b600052604160045260246000fd5b60405161020081016001600160401b038111828210171562000e1b5762000e1b62000ddf565b60405290565b604051601f8201601f191681016001600160401b038111828210171562000e4c5762000e4c62000ddf565b604052919050565b600082601f83011262000e6657600080fd5b81516001600160401b0381111562000e825762000e8262000ddf565b602062000e98601f8301601f1916820162000e21565b828152858284870101111562000ead57600080fd5b60005b8381101562000ecd57858101830151828201840152820162000eb0565b8381111562000edf5760008385840101525b5095945050505050565b80516001600160a01b03811681146200037e57600080fd5b805161ffff811681146200037e57600080fd5b60006020828403121562000f2757600080fd5b81516001600160401b038082111562000f3f57600080fd5b90830190610200828603121562000f5557600080fd5b62000f5f62000df5565b82518281111562000f6f57600080fd5b62000f7d8782860162000e54565b82525060208301518281111562000f9357600080fd5b62000fa18782860162000e54565b60208301525060408301518281111562000fba57600080fd5b62000fc88782860162000e54565b60408301525060608301518281111562000fe157600080fd5b62000fef8782860162000e54565b6060830152506080830151828111156200100857600080fd5b620010168782860162000e54565b60808301525060a0838101519082015260c0808401519082015260e080840151908201526101008084015190820152610120808401519082015261014091506200106282840162000ee9565b8282015261016091506200107882840162000f01565b8282015261018091506200108e82840162000ee9565b828201526101a09150620010a482840162000ee9565b828201526101c09150620010ba82840162000ee9565b828201526101e09150620010d082840162000ee9565b91810191909152949350505050565b6020808252602e908201527f496e697469616c697a61626c653a20636f6e747261637420697320616c72656160408201526d191e481a5b9a5d1a585b1a5e995960921b606082015260800190565b6020808252602b908201527f496e697469616c697a61626c653a20636f6e7472616374206973206e6f74206960408201526a6e697469616c697a696e6760a81b606082015260800190565b600181811c908216806200118d57607f821691505b60208210811415620011af57634e487b7160e01b600052602260045260246000fd5b50919050565b61563780620011c56000396000f3fe6080604052600436106103a45760003560e01c806301ffc9a7146103a9578063059fb6f7146103de5780630653aca51461040057806306fdde031461044f578063081812fc1461047157806308abf0261461049e578063095ea7b3146104be57806316744607146104de57806318160ddd146104f35780631a056e711461051257806323b872dd14610532578063248a9ca3146105525780632a55205a146105725780632d8e85b0146105b15780632f2ff15d146105d15780632fe388be146105f157806331db3832146106115780633542aee2146106265780633574a2dd1461064657806336568abe146106665780633acf404d146106865780633c0e8f2c1461069c5780633ccfd60b146106bc57806342842e0e146106d1578063464bd640146106f15780634972471c1461070b5780634f972f5f1461072c5780635136dcc71461074c57806356c022bb1461076c578063572b6c051461078c5780635a9b0b89146107ac5780635d36598f1461080f5780636352211e1461082f5780636c079cfc1461084f5780636f8b44b01461086f57806370a082311461088f578063714ad8e7146108af578063715018a6146108c35780637313cba9146108d85780637885fdc7146108ed578063791a2519146109285780637d7eee42146109485780637e98034214610968578063859610c61461097d5780638a4278ab1461099d5780638da5cb5b146109bd57806391d14854146109d2578063938e3d7b146109f257806395d89b4114610a1257806399e0dd7c14610a275780639b6860c814610a475780639e6b2c5b14610a5d578063a217fddf14610a70578063a22cb46514610a85578063a304ee7614610aa5578063a9852bfb14610aca578063aaeaca4814610aea578063b27c6f2d14610b00578063b45a3c0e14610b16578063b6c693e514610b36578063b88d4fde14610b50578063ba4695fd14610b70578063c0ac998314610b85578063c29de63014610b9a578063c87b56dd14610bb4578063cad96cca14610bd4578063d539139314610c01578063d547741f14610c23578063d5abeb0114610c43578063d79ff99d14610c59578063da74222814610c6c578063dbbc853b14610c8c578063e3b9a7e514610ca1578063e757c17d14610cc1578063e8a3d48514610cd7578063e985e9c514610cec578063ef60ceaf14610d0c578063efa7f90c14610d2c578063f2fde38b14610d4c578063f362136714610d6c578063f384702f14610d8e578063f74bbf5914610da8578063f95df41414610dc8575b600080fd5b3480156103b557600080fd5b506103c96103c43660046145b2565b610de8565b60405190151581526020015b60405180910390f35b3480156103ea57600080fd5b506103fe6103f93660046146ec565b610e08565b005b34801561040c57600080fd5b5061042061041b36600461474d565b610ea8565b60408051825181526020808401516001600160a01b0316908201529181015161ffff16908201526060016103d5565b34801561045b57600080fd5b50610464610f2d565b6040516103d591906147be565b34801561047d57600080fd5b5061049161048c36600461474d565b610f3c565b6040516103d591906147d1565b3480156104aa57600080fd5b506103fe6104b93660046147e5565b610fc9565b3480156104ca57600080fd5b506103fe6104d9366004614802565b61102a565b3480156104ea57600080fd5b506103fe61114d565b3480156104ff57600080fd5b506011545b6040519081526020016103d5565b34801561051e57600080fd5b506103fe61052d366004614802565b61119b565b34801561053e57600080fd5b506103fe61054d36600461482e565b611201565b34801561055e57600080fd5b5061050461056d36600461474d565b611239565b34801561057e57600080fd5b5061059261058d36600461486f565b61124e565b604080516001600160a01b0390931683526020830191909152016103d5565b3480156105bd57600080fd5b506103fe6105cc3660046148a1565b611313565b3480156105dd57600080fd5b506103fe6105ec3660046148bc565b611365565b3480156105fd57600080fd5b506103fe61060c366004614950565b611381565b34801561061d57600080fd5b506103fe6114e6565b34801561063257600080fd5b506103fe610641366004614802565b611564565b34801561065257600080fd5b506103fe610661366004614a44565b6115a3565b34801561067257600080fd5b506103fe6106813660046148bc565b6115f5565b34801561069257600080fd5b5061050460155481565b3480156106a857600080fd5b506103fe6106b736600461474d565b61167f565b3480156106c857600080fd5b506103fe6116c3565b3480156106dd57600080fd5b506103fe6106ec36600461482e565b611755565b3480156106fd57600080fd5b506016546103c99060ff1681565b34801561071757600080fd5b50601a546103c990600160a81b900460ff1681565b34801561073857600080fd5b506103fe6107473660046148a1565b611770565b34801561075857600080fd5b506103fe610767366004614a78565b6117c2565b34801561077857600080fd5b50602354610491906001600160a01b031681565b34801561079857600080fd5b506103c96107a73660046147e5565b61185c565b3480156107b857600080fd5b506107c1611870565b604080519a8b5260208b0199909952978901969096526060880194909452608087019290925260a0860152151560c085015260e08401526101008301521515610120820152610140016103d5565b34801561081b57600080fd5b506103fe61082a366004614b30565b6119ff565b34801561083b57600080fd5b5061049161084a36600461474d565b611aa3565b34801561085b57600080fd5b506103fe61086a3660046147e5565b611b1a565b34801561087b57600080fd5b506103fe61088a36600461474d565b611b7b565b34801561089b57600080fd5b506105046108aa3660046147e5565b611c04565b3480156108bb57600080fd5b5060016103c9565b3480156108cf57600080fd5b506103fe611c8b565b3480156108e457600080fd5b50610464611cd6565b3480156108f957600080fd5b50601d5461091a906001600160a01b03811690600160a01b900461ffff1682565b6040516103d5929190614b71565b34801561093457600080fd5b506103fe61094336600461474d565b611d68565b34801561095457600080fd5b506103fe61096336600461474d565b611dac565b34801561097457600080fd5b50610504611df0565b34801561098957600080fd5b506103fe610998366004614b30565b611dfc565b3480156109a957600080fd5b506103fe6109b8366004614ba0565b611e96565b3480156109c957600080fd5b50610491611fd9565b3480156109de57600080fd5b506103c96109ed3660046148bc565b611fee565b3480156109fe57600080fd5b506103fe610a0d366004614a44565b612019565b348015610a1e57600080fd5b5061046461206b565b348015610a3357600080fd5b506103fe610a42366004614a44565b612075565b348015610a5357600080fd5b5061050460185481565b6103fe610a6b366004614d5c565b6120ea565b348015610a7c57600080fd5b50610504600081565b348015610a9157600080fd5b506103fe610aa0366004614da7565b6122c8565b348015610ab157600080fd5b50601a546104919061010090046001600160a01b031681565b348015610ad657600080fd5b506103fe610ae5366004614a44565b6122da565b348015610af657600080fd5b5061050460145481565b348015610b0c57600080fd5b5061050460195481565b348015610b2257600080fd5b506103c9610b3136600461474d565b61234f565b348015610b4257600080fd5b50601a546103c99060ff1681565b348015610b5c57600080fd5b506103fe610b6b366004614dd3565b61235c565b348015610b7c57600080fd5b506103fe612395565b348015610b9157600080fd5b506104646123e3565b348015610ba657600080fd5b50600b546103c99060ff1681565b348015610bc057600080fd5b50610464610bcf36600461474d565b6123f2565b348015610be057600080fd5b50610bf4610bef36600461474d565b6123fd565b6040516103d59190614e52565b348015610c0d57600080fd5b506105046000805160206155a283398151915281565b348015610c2f57600080fd5b506103fe610c3e3660046148bc565b6124b8565b348015610c4f57600080fd5b50610504600f5481565b6103fe610c67366004614802565b6124d4565b348015610c7857600080fd5b506103fe610c873660046147e5565b6125cd565b348015610c9857600080fd5b5061046461262e565b348015610cad57600080fd5b506103c9610cbc366004614eb3565b61263d565b348015610ccd57600080fd5b5061050460135481565b348015610ce357600080fd5b5061046461268b565b348015610cf857600080fd5b506103c9610d07366004614eee565b61269a565b348015610d1857600080fd5b506103fe610d27366004614f1c565b6126bd565b348015610d3857600080fd5b506103fe610d473660046147e5565b612716565b348015610d5857600080fd5b506103fe610d673660046147e5565b6127a7565b348015610d7857600080fd5b506105046000805160206155e283398151915281565b348015610d9a57600080fd5b506010546103c99060ff1681565b348015610db457600080fd5b506103fe610dc336600461474d565b612854565b348015610dd457600080fd5b506103fe610de336600461474d565b612898565b6000610df382612911565b80610e025750610e028261294c565b92915050565b60005b8151811015610ea257306001600160a01b03166323b872dd8585858581518110610e3757610e37614f34565b60200260200101516040518463ffffffff1660e01b8152600401610e5d93929190614f4a565b600060405180830381600087803b158015610e7757600080fd5b505af1158015610e8b573d6000803e3d6000fd5b505050508080610e9a90614f84565b915050610e0b565b50505050565b6040805160608101825260008082526020820181905291810182905290610ed0601f84612988565b6000818152601e60209081526040918290208251808401845290546001600160a01b03808216835261ffff600160a01b90920482168385019081528551606081018752968752925116928501929092525116908201529392505050565b6060610f37612994565b905090565b6000610f478261299e565b610fad5760405162461bcd60e51b815260206004820152602c60248201527f4552433732313a20617070726f76656420717565727920666f72206e6f6e657860448201526b34b9ba32b73a103a37b5b2b760a11b60648201526084015b60405180910390fd5b506000908152600660205260409020546001600160a01b031690565b610fd16129bb565b6001600160a01b0316610fe2611fd9565b6001600160a01b0316146110085760405162461bcd60e51b8152600401610fa490614f9f565b602180546001600160a01b0319166001600160a01b0392909216919091179055565b600061103582611aa3565b9050806001600160a01b0316836001600160a01b031614156110a35760405162461bcd60e51b815260206004820152602160248201527f4552433732313a20617070726f76616c20746f2063757272656e74206f776e656044820152603960f91b6064820152608401610fa4565b806001600160a01b03166110b56129bb565b6001600160a01b031614806110d157506110d181610d076129bb565b61113e5760405162461bcd60e51b815260206004820152603860248201527f4552433732313a20617070726f76652063616c6c6572206973206e6f74206f776044820152771b995c881b9bdc88185c1c1c9bdd995908199bdc88185b1b60421b6064820152608401610fa4565b61114883836129c5565b505050565b6111556129bb565b6001600160a01b0316611166611fd9565b6001600160a01b03161461118c5760405162461bcd60e51b8152600401610fa490614f9f565b6010805460ff19166001179055565b6111b56000805160206155a28339815191526109ed6129bb565b6111f35760405162461bcd60e51b815260206004820152600f60248201526e4e4f545f4d494e5445525f524f4c4560881b6044820152606401610fa4565b6111fd8282612a33565b5050565b61121261120c6129bb565b82612ac0565b61122e5760405162461bcd60e51b8152600401610fa490614fd4565b611148838383612b89565b6000908152601c602052604090206001015490565b6000828152601e602052604081205481906001600160a01b0316156112b3576000848152601e60205260409020546001600160a01b03811690612710906112a090600160a01b900461ffff1686615025565b6112aa919061505a565b9150915061130c565b601d546001600160a01b0316158015906112d95750601d54600160a01b900461ffff1615155b1561130557601d546001600160a01b03811690612710906112a090600160a01b900461ffff1686615025565b5060009050805b9250929050565b61131b6129bb565b6001600160a01b031661132c611fd9565b6001600160a01b0316146113525760405162461bcd60e51b8152600401610fa490614f9f565b601a805460ff1916911515919091179055565b61136e82611239565b61137781612d1e565b6111488383612d2f565b81518351146113cc5760405162461bcd60e51b815260206004820152601760248201527608ca49e9abea89ebe988a9c8ea890be9a92a69a82a8869604b1b6044820152606401610fa4565b805183511461141a5760405162461bcd60e51b815260206004820152601a60248201527908ca49e9abea89e968a9cbe988a9c8ea890be9a92a69a82a886960331b6044820152606401610fa4565b60005b8151811015610ea257306001600160a01b03166323b872dd85838151811061144757611447614f34565b602002602001015185848151811061146157611461614f34565b602002602001015185858151811061147b5761147b614f34565b60200260200101516040518463ffffffff1660e01b81526004016114a193929190614f4a565b600060405180830381600087803b1580156114bb57600080fd5b505af11580156114cf573d6000803e3d6000fd5b5050505080806114de90614f84565b91505061141d565b6114ee6129bb565b6001600160a01b03166114ff611fd9565b6001600160a01b0316146115255760405162461bcd60e51b8152600401610fa490614f9f565b601a54600160a81b900460ff161561154f5760405162461bcd60e51b8152600401610fa49061506e565b601a805460ff60a81b1916600160a81b179055565b61156c6129bb565b6001600160a01b031661157d611fd9565b6001600160a01b0316146111f35760405162461bcd60e51b8152600401610fa490614f9f565b6115ab6129bb565b6001600160a01b03166115bc611fd9565b6001600160a01b0316146115e25760405162461bcd60e51b8152600401610fa490614f9f565b80516111fd906008906020840190614503565b6115fd6129bb565b6001600160a01b0316816001600160a01b0316146116755760405162461bcd60e51b815260206004820152602f60248201527f416363657373436f6e74726f6c3a2063616e206f6e6c792072656e6f756e636560448201526e103937b632b9903337b91039b2b63360891b6064820152608401610fa4565b6111fd8282612db6565b6116876129bb565b6001600160a01b0316611698611fd9565b6001600160a01b0316146116be5760405162461bcd60e51b8152600401610fa490614f9f565b601955565b601a5461010090046001600160a01b03166117165760405162461bcd60e51b8152602060048201526013602482015272115490cdcc8c4bd393d7d49150d25412515395606a1b6044820152606401610fa4565b601a54604051479161010090046001600160a01b0316906108fc8315029083906000818181858888f193505050501580156111fd573d6000803e3d6000fd5b6111488383836040518060200160405280600081525061235c565b6117786129bb565b6001600160a01b0316611789611fd9565b6001600160a01b0316146117af5760405162461bcd60e51b8152600401610fa490614f9f565b6016805460ff1916911515919091179055565b6117ca6129bb565b6001600160a01b03166117db611fd9565b6001600160a01b0316146118015760405162461bcd60e51b8152600401610fa490614f9f565b6111fd8282808060200260200160405190810160405280939291908181526020016000905b82821015611852576118436060830286013681900381019061509f565b81526020019060010190611826565b5050505050612e3b565b6023546001600160a01b0391821691161490565b600080808080808080808080806118856129bb565b6001600160a01b03161461191057306370a082316118a16129bb565b6040518263ffffffff1660e01b81526004016118bd91906147d1565b60206040518083038186803b1580156118d557600080fd5b505afa1580156118e9573d6000803e3d6000fd5b505050506040513d601f19601f8201168201806040525081019061190d9190615105565b90505b600f54306001600160a01b03166318160ddd6040518163ffffffff1660e01b815260040160206040518083038186803b15801561194c57600080fd5b505afa158015611960573d6000803e3d6000fd5b505050506040513d601f19601f820116820180604052508101906119849190615105565b82601354601454601760006119976129bb565b6001600160a01b03166001600160a01b0316815260200190815260200160002054601660009054906101000a900460ff16601854601954601a60009054906101000a900460ff169a509a509a509a509a509a509a509a509a509a505090919293949596979899565b60026012541415611a225760405162461bcd60e51b8152600401610fa49061511e565b6002601255611a3f6000805160206155e283398151915233611fee565b611a5b5760405162461bcd60e51b8152600401610fa490615155565b60005b81811015611a9957611a87838383818110611a7b57611a7b614f34565b90506020020135612fe2565b80611a9181614f84565b915050611a5e565b5050600160125550565b6000818152600460205260408120546001600160a01b031680610e025760405162461bcd60e51b815260206004820152602960248201527f4552433732313a206f776e657220717565727920666f72206e6f6e657869737460448201526832b73a103a37b5b2b760b91b6064820152608401610fa4565b611b226129bb565b6001600160a01b0316611b33611fd9565b6001600160a01b031614611b595760405162461bcd60e51b8152600401610fa490614f9f565b602280546001600160a01b0319166001600160a01b0392909216919091179055565b611b836129bb565b6001600160a01b0316611b94611fd9565b6001600160a01b031614611bba5760405162461bcd60e51b8152600401610fa490614f9f565b60105460ff1615611bff5760405162461bcd60e51b815260206004820152600f60248201526e2120a9a2afaaa924afa32927ad22a760891b6044820152606401610fa4565b600f55565b60006001600160a01b038216611c6f5760405162461bcd60e51b815260206004820152602a60248201527f4552433732313a2062616c616e636520717565727920666f7220746865207a65604482015269726f206164647265737360b01b6064820152608401610fa4565b506001600160a01b031660009081526005602052604090205490565b611c936129bb565b6001600160a01b0316611ca4611fd9565b6001600160a01b031614611cca5760405162461bcd60e51b8152600401610fa490614f9f565b611cd46000613050565b565b606060088054611ce590615185565b80601f0160208091040260200160405190810160405280929190818152602001828054611d1190615185565b8015611d5e5780601f10611d3357610100808354040283529160200191611d5e565b820191906000526020600020905b815481529060010190602001808311611d4157829003601f168201915b5050505050905090565b611d706129bb565b6001600160a01b0316611d81611fd9565b6001600160a01b031614611da75760405162461bcd60e51b8152600401610fa490614f9f565b601855565b611db46129bb565b6001600160a01b0316611dc5611fd9565b6001600160a01b031614611deb5760405162461bcd60e51b8152600401610fa490614f9f565b601355565b6000610f37601f6130ab565b60026012541415611e1f5760405162461bcd60e51b8152600401610fa49061511e565b6002601255611e3c6000805160206155e283398151915233611fee565b611e585760405162461bcd60e51b8152600401610fa490615155565b60005b81811015611a9957611e84838383818110611e7857611e78614f34565b905060200201356130b5565b80611e8e81614f84565b915050611e5b565b6000611ea26001613127565b90508015611eba576000805461ff0019166101001790555b611ec56000836131bb565b611ece82613050565b611ee58360000151846020015185604001516131c5565b611ef7836060015184608001516131f7565b611f048360a00151613228565b611f0c613258565b611f1582613287565b611f278360c001518460e001516132b7565b611f3b8361010001518461012001516132f9565b611f4983610180015161332a565b611f5d83610140015184610160015161335a565b611f71836101a00151846101c0015161338b565b611f7f836101e001516133bc565b611f876133ec565b611f8f61341b565b8015611148576000805461ff0019169055604051600181527f7f26b83ff96e1f2b6a682f133852f6798a09c465da95921460cefb38474024989060200160405180910390a1505050565b6000546201000090046001600160a01b031690565b6000918252601c602090815260408084206001600160a01b0393909316845291905290205460ff1690565b6120216129bb565b6001600160a01b0316612032611fd9565b6001600160a01b0316146120585760405162461bcd60e51b8152600401610fa490614f9f565b80516111fd90600e906020840190614503565b6060610f3761344a565b61207d6129bb565b6001600160a01b031661208e611fd9565b6001600160a01b0316146120b45760405162461bcd60e51b8152600401610fa490614f9f565b600b5460ff16156120d75760405162461bcd60e51b8152600401610fa4906151ba565b80516111fd906009906020840190614503565b6002601254141561210d5760405162461bcd60e51b8152600401610fa49061511e565b600260125560165460ff1661215a5760405162461bcd60e51b81526020600482015260136024820152725052455f53414c455f4e4f545f41435449564560681b6044820152606401610fa4565b60006121646129bb565b90506121af8383808060200260200160405190810160405280939291908181526020018383602002808284376000920191909152505060155491506121aa905084613454565b61348e565b6121f25760405162461bcd60e51b8152602060048201526014602482015273282922afa9a0a622afaba927a723afa82927a7a360611b6044820152606401610fa4565b6014546001600160a01b0382166000908152601760205260409020546122199086906151e5565b11156122585760405162461bcd60e51b815260206004820152600e60248201526d14149157d4d0531157d31253525560921b6044820152606401610fa4565b34846013546122679190615025565b11156122855760405162461bcd60e51b8152600401610fa4906151fd565b6001600160a01b038116600090815260176020526040812080548692906122ad9084906151e5565b909155506122bd90508185612a33565b505060016012555050565b6111fd6122d36129bb565b83836134a4565b6122e26129bb565b6001600160a01b03166122f3611fd9565b6001600160a01b0316146123195760405162461bcd60e51b8152600401610fa490614f9f565b600b5460ff161561233c5760405162461bcd60e51b8152600401610fa4906151ba565b80516111fd90600a906020840190614503565b6000610e02601b8361356f565b61236d6123676129bb565b83612ac0565b6123895760405162461bcd60e51b8152600401610fa490614fd4565b610ea284848484613593565b61239d6129bb565b6001600160a01b03166123ae611fd9565b6001600160a01b0316146123d45760405162461bcd60e51b8152600401610fa490614f9f565b600b805460ff19166001179055565b606060098054611ce590615185565b6060610e02826135c6565b604080516001808252818301909252606091816020015b6040805180820190915260008082526020820152815260200190600190039081612414575050601d5481519192506001600160a01b031690829060009061245d5761245d614f34565b60209081029190910101516001600160a01b03919091169052601d548151600160a01b90910461ffff1690829060009061249957612499614f34565b6020908102919091018101516001600160601b03909216910152919050565b6124c182611239565b6124ca81612d1e565b6111488383612db6565b600260125414156124f75760405162461bcd60e51b8152600401610fa49061511e565b6002601255601a5460ff166125475760405162461bcd60e51b81526020600482015260166024820152755055424c49435f53414c455f4e4f545f41435449564560501b6044820152606401610fa4565b60195481111561258d5760405162461bcd60e51b8152602060048201526011602482015270141550931250d7d4d0531157d312535255607a1b6044820152606401610fa4565b348160185461259c9190615025565b11156125ba5760405162461bcd60e51b8152600401610fa4906151fd565b6125c48282612a33565b50506001601255565b6125d56129bb565b6001600160a01b03166125e6611fd9565b6001600160a01b03161461260c5760405162461bcd60e51b8152600401610fa490614f9f565b602380546001600160a01b0319166001600160a01b0392909216919091179055565b6060600a8054611ce590615185565b60006126838383808060200260200160405190810160405280939291908181526020018383602002808284376000920191909152505060155491506121aa905087613454565b949350505050565b6060600e8054611ce590615185565b60006126a683836136a2565b806126b657506126b683836136d0565b9392505050565b6126c56129bb565b6001600160a01b03166126d6611fd9565b6001600160a01b0316146126fc5760405162461bcd60e51b8152600401610fa490614f9f565b61271361270e3683900383018361522a565b6137bd565b50565b61271e6129bb565b6001600160a01b031661272f611fd9565b6001600160a01b0316146127555760405162461bcd60e51b8152600401610fa490614f9f565b601a54600160a81b900460ff161561277f5760405162461bcd60e51b8152600401610fa49061506e565b601a80546001600160a01b0390921661010002610100600160a81b0319909216919091179055565b6127af6129bb565b6001600160a01b03166127c0611fd9565b6001600160a01b0316146127e65760405162461bcd60e51b8152600401610fa490614f9f565b6001600160a01b03811661284b5760405162461bcd60e51b815260206004820152602660248201527f4f776e61626c653a206e6577206f776e657220697320746865207a65726f206160448201526564647265737360d01b6064820152608401610fa4565b61271381613050565b61285c6129bb565b6001600160a01b031661286d611fd9565b6001600160a01b0316146128935760405162461bcd60e51b8152600401610fa490614f9f565b601455565b6128a06129bb565b6001600160a01b03166128b1611fd9565b6001600160a01b0316146128d75760405162461bcd60e51b8152600401610fa490614f9f565b601555565b60006128e73361185c565b156128f9575060131936013560601c90565b503390565b3390565b6001600160a01b03163b151590565b60006001600160e01b031982166380ac58cd60e01b1480610df357506001600160e01b03198216635b5e139f60e01b1480610e025750610e02825b60006301ffc9a760e01b6001600160e01b031983161480610e025750506001600160e01b03191660009081526001602052604090205460ff1690565b60006126b68383613868565b6060610f37613892565b6000908152600460205260409020546001600160a01b0316151590565b6000610f376128dc565b600081815260066020526040902080546001600160a01b0319166001600160a01b03841690811790915581906129fa82611aa3565b6001600160a01b03167f8c5be1e5ebec7d5bd14f71427d1e84f3dd0314c0f7b2291e5b200ac8c7c3b92560405160405180910390a45050565b600f5481612a4060115490565b612a4a91906151e5565b1115612a8d5760405162461bcd60e51b8152602060048201526012602482015271455843454544535f4d41585f535550504c5960701b6044820152606401610fa4565b60005b8181101561114857601154612aa584826138a1565b612aad6138bb565b5080612ab881614f84565b915050612a90565b6000612acb8261299e565b612b2c5760405162461bcd60e51b815260206004820152602c60248201527f4552433732313a206f70657261746f7220717565727920666f72206e6f6e657860448201526b34b9ba32b73a103a37b5b2b760a11b6064820152608401610fa4565b6000612b3783611aa3565b9050806001600160a01b0316846001600160a01b03161480612b5e5750612b5e818561269a565b806126835750836001600160a01b0316612b7784610f3c565b6001600160a01b031614949350505050565b826001600160a01b0316612b9c82611aa3565b6001600160a01b031614612c005760405162461bcd60e51b815260206004820152602560248201527f4552433732313a207472616e736665722066726f6d20696e636f72726563742060448201526437bbb732b960d91b6064820152608401610fa4565b6001600160a01b038216612c625760405162461bcd60e51b8152602060048201526024808201527f4552433732313a207472616e7366657220746f20746865207a65726f206164646044820152637265737360e01b6064820152608401610fa4565b612c6d8383836138d2565b612c786000826129c5565b6001600160a01b0383166000908152600560205260408120805460019290612ca1908490615286565b90915550506001600160a01b0382166000908152600560205260408120805460019290612ccf9084906151e5565b909155505060008181526004602052604080822080546001600160a01b0319166001600160a01b0386811691821790925591518493918716916000805160206155c283398151915291a4505050565b61271381612d2a6129bb565b6138dd565b612d398282611fee565b6111fd576000828152601c602090815260408083206001600160a01b03851684529091529020805460ff19166001179055612d726129bb565b6001600160a01b0316816001600160a01b0316837f2f8788117e7eff1d82e926ec794901d17c78024a50270940304540a733656f0d60405160405180910390a45050565b612dc08282611fee565b156111fd576000828152601c602090815260408083206001600160a01b03851684529091529020805460ff19169055612df76129bb565b6001600160a01b0316816001600160a01b0316837ff6391f5c32d9c69d2a47ea670b442974b53935d1edc7fd64eb21e047a839171b60405160405180910390a45050565b60005b81518110156111fd576000828281518110612e5b57612e5b614f34565b60200260200101519050612710816040015161ffff1610612e8e5760405162461bcd60e51b8152600401610fa49061529d565b60208101516001600160a01b0316612f075780516000908152601e6020526040902080546001600160b01b03191690558051612ecc90601f90613941565b5080516040519081527fa2870857763bd9ae76c957f869f16b31c18dd3bb4c7b4d3a4496dc5c57c657f99060200160405180910390a1612fcf565b6040805180820182526020808401516001600160a01b0390811683528484015161ffff90811683850190815286516000908152601e90945294909220925183549451909216600160a01b026001600160b01b03199094169116179190911790558051612f7590601f9061394d565b50805160208083015160408085015181519485526001600160a01b039092169284019290925261ffff1682820152517f389b70fb0887f01e83784eb1c4c589f740eca53b00ed0f45e41db5d079719abb9181900360600190a15b5080612fda81614f84565b915050612e3e565b612fed601b8261356f565b61302d5760405162461bcd60e51b8152602060048201526011602482015270115490cdcc8c4bd393d517d313d0d2d151607a1b6044820152606401610fa4565b600881901c6000908152601b602052604090208054600160ff84161b1916905550565b600080546001600160a01b038381166201000081810262010000600160b01b0319851617855560405193049190911692909183917f8be0079c531659141344cd1fd0a4f28419497f9722a3daafe3b4186f6b6457e091a35050565b6000610e02825490565b6130c0601b8261356f565b156131055760405162461bcd60e51b8152602060048201526015602482015274115490cdcc8c4bd053149150511657d313d0d2d151605a1b6044820152606401610fa4565b600881901c6000908152601b602052604090208054600160ff84161b17905550565b60008054610100900460ff1615613175578160ff166001148015613151575061314f30612902565b155b61316d5760405162461bcd60e51b8152600401610fa4906152c2565b506000919050565b60005460ff80841691161061319c5760405162461bcd60e51b8152600401610fa4906152c2565b506000805460ff191660ff92909216919091179055600190565b919050565b6111fd8282612d2f565b600054610100900460ff166131ec5760405162461bcd60e51b8152600401610fa490615310565b611148838383613959565b600054610100900460ff1661321e5760405162461bcd60e51b8152600401610fa490615310565b6111fd82826139ec565b600054610100900460ff1661324f5760405162461bcd60e51b8152600401610fa490615310565b61271381613a88565b600054610100900460ff1661327f5760405162461bcd60e51b8152600401610fa490615310565b611cd4613ad4565b600054610100900460ff166132ae5760405162461bcd60e51b8152600401610fa490615310565b61271381613b0b565b600054610100900460ff166132de5760405162461bcd60e51b8152600401610fa490615310565b6132ee63209680f760e11b613b5a565b601391909155601455565b600054610100900460ff166133205760405162461bcd60e51b8152600401610fa490615310565b6111fd8282613bdb565b600054610100900460ff166133515760405162461bcd60e51b8152600401610fa490615310565b61271381613c1d565b600054610100900460ff166133815760405162461bcd60e51b8152600401610fa490615310565b6111fd8282613c54565b600054610100900460ff166133b25760405162461bcd60e51b8152600401610fa490615310565b6111fd8282613ce4565b600054610100900460ff166133e35760405162461bcd60e51b8152600401610fa490615310565b61271381613d49565b600054610100900460ff166134135760405162461bcd60e51b8152600401610fa490615310565b611cd4613d70565b600054610100900460ff166134425760405162461bcd60e51b8152600401610fa490615310565b611cd4613da7565b6060610f37613dde565b6040516001600160601b0319606083901b166020820152600090603401604051602081830303815290604052805190602001209050919050565b60008261349b8584613ded565b14949350505050565b816001600160a01b0316836001600160a01b031614156135025760405162461bcd60e51b815260206004820152601960248201527822a9219b99189d1030b8383937bb32903a379031b0b63632b960391b6044820152606401610fa4565b6001600160a01b03838116600081815260076020908152604080832094871680845294825291829020805460ff191686151590811790915591519182527f17307eab39ab6107e8899845ad3d59bd9653f200f220920489ca2b5937696c31910160405180910390a3505050565b600881901c600090815260208390526040902054600160ff83161b16151592915050565b61359e848484612b89565b6135aa84848484613e61565b610ea25760405162461bcd60e51b8152600401610fa49061535b565b60606000600980546135d790615185565b90501161366e57600880546135eb90615185565b80601f016020809104026020016040519081016040528092919081815260200182805461361790615185565b80156136645780601f1061363957610100808354040283529160200191613664565b820191906000526020600020905b81548152906001019060200180831161364757829003601f168201915b5050505050610e02565b600961367983613f7c565b600a60405160200161368d93929190615447565b60405160208183030381529060405292915050565b6001600160a01b03918216600090815260076020908152604080832093909416825291909152205460ff1690565b6021546000906001600160a01b0316156137845760215460405163c455279160e01b81526001600160a01b0391821691841690829063c4552791906137199088906004016147d1565b60206040518083038186803b15801561373157600080fd5b505afa158015613745573d6000803e3d6000fd5b505050506040513d601f19601f82011682018060405250810190613769919061547a565b6001600160a01b03161415613782576001915050610e02565b505b6022546001600160a01b0316156137b3576022546001600160a01b03838116911614156137b357506001610e02565b6126b683836136a2565b612710816020015161ffff16106137e65760405162461bcd60e51b8152600401610fa49061529d565b60408051808201825282516001600160a01b03168082526020808501805161ffff1691909301819052601d80546001600160b01b031916909217600160a01b9091021790558251905191517f2c5ea6e4103e78cb101e796fb2dace540362fc542cbff5145eaa24af7dd8fe419261385d9291614b71565b60405180910390a150565b600082600001828154811061387f5761387f614f34565b9060005260206000200154905092915050565b6060600c8054611ce590615185565b6111fd828260405180602001604052806000815250614079565b601180549060006138cb83614f84565b9190505550565b6111488383836140ac565b6138e78282611fee565b6111fd576138ff816001600160a01b031660146140fa565b61390a8360206140fa565b60405160200161391b929190615497565b60408051601f198184030181529082905262461bcd60e51b8252610fa4916004016147be565b60006126b68383614295565b60006126b68383614388565b600054610100900460ff166139805760405162461bcd60e51b8152600401610fa490615310565b825161399390600c906020860190614503565b5081516139a790600d906020850190614503565b5080516139bb90600e906020840190614503565b506139cc633d96f4ff60e11b613b5a565b6139dc6380ac58cd60e01b613b5a565b611148635b5e139f60e01b613b5a565b600054610100900460ff16613a135760405162461bcd60e51b8152600401610fa490615310565b8151613a26906008906020850190614503565b508051613a3a906009906020840190614503565b5060408051808201909152600580825264173539b7b760d91b6020909201918252613a6791600a91614503565b50613a78631f2f406b60e01b613b5a565b6111fd635b5e139f60e01b613b5a565b600054610100900460ff16613aaf5760405162461bcd60e51b8152600401610fa490615310565b600f819055613ac46330f487b560e11b613b5a565b6127136380ac58cd60e01b613b5a565b600054610100900460ff16613afb5760405162461bcd60e51b8152600401610fa490615310565b611cd4631aa1577160e11b613b5a565b600054610100900460ff16613b325760405162461bcd60e51b8152600401610fa490615310565b613b42631a056e7160e01b613b5a565b6127136000805160206155a2833981519152826131bb565b6001600160e01b03198082161415613bb35760405162461bcd60e51b815260206004820152601c60248201527b115490cc4d8d4e881a5b9d985b1a59081a5b9d195c999858d9481a5960221b6044820152606401610fa4565b6001600160e01b0319166000908152600160208190526040909120805460ff19169091179055565b600054610100900460ff16613c025760405162461bcd60e51b8152600401610fa490615310565b613c126317e0bac360e31b613b5a565b601891909155601955565b600054610100900460ff16613c445760405162461bcd60e51b8152600401610fa490615310565b61277f63e2b3173560e01b613b5a565b600054610100900460ff16613c7b5760405162461bcd60e51b8152600401610fa490615310565b613c8b633a47bf5160e11b613b5a565b613c9b63152a902d60e11b613b5a565b613cab63c69dbd8f60e01b613b5a565b613cbb63656cb66560e11b613b5a565b604080518082019091526001600160a01b038316815261ffff82166020820152611148816137bd565b600054610100900460ff16613d0b5760405162461bcd60e51b8152600401610fa490615310565b613d1b638d29851f60e01b613b5a565b602180546001600160a01b039384166001600160a01b03199182161790915560228054929093169116179055565b600054610100900460ff1661260c5760405162461bcd60e51b8152600401610fa490615310565b600054610100900460ff16613d975760405162461bcd60e51b8152600401610fa490615310565b611cd46354f548d760e11b613b5a565b600054610100900460ff16613dce5760405162461bcd60e51b8152600401610fa490615310565b611cd4632a7c3e4960e01b613b5a565b6060600d8054611ce590615185565b600081815b8451811015613e59576000858281518110613e0f57613e0f614f34565b60200260200101519050808311613e355760008381526020829052604090209250613e46565b600081815260208490526040902092505b5080613e5181614f84565b915050613df2565b509392505050565b6000613e75846001600160a01b0316612902565b15613f7157836001600160a01b031663150b7a02613e916129bb565b8786866040518563ffffffff1660e01b8152600401613eb39493929190615506565b602060405180830381600087803b158015613ecd57600080fd5b505af1925050508015613efd575060408051601f3d908101601f19168201909252613efa91810190615543565b60015b613f57573d808015613f2b576040519150601f19603f3d011682016040523d82523d6000602084013e613f30565b606091505b508051613f4f5760405162461bcd60e51b8152600401610fa49061535b565b805181602001fd5b6001600160e01b031916630a85bd0160e11b149050612683565b506001949350505050565b606081613fa05750506040805180820190915260018152600360fc1b602082015290565b8160005b8115613fca5780613fb481614f84565b9150613fc39050600a8361505a565b9150613fa4565b6000816001600160401b03811115613fe457613fe46145ef565b6040519080825280601f01601f19166020018201604052801561400e576020820181803683370190505b5090505b841561268357614023600183615286565b9150614030600a86615560565b61403b9060306151e5565b60f81b81838151811061405057614050614f34565b60200101906001600160f81b031916908160001a905350614072600a8661505a565b9450614012565b61408383836143d7565b6140906000848484613e61565b6111485760405162461bcd60e51b8152600401610fa49061535b565b6140b7601b8261356f565b156111485760405162461bcd60e51b8152602060048201526013602482015272115490cdcc8c4bd513d2d15397d313d0d2d151606a1b6044820152606401610fa4565b60606000614109836002615025565b6141149060026151e5565b6001600160401b0381111561412b5761412b6145ef565b6040519080825280601f01601f191660200182016040528015614155576020820181803683370190505b509050600360fc1b8160008151811061417057614170614f34565b60200101906001600160f81b031916908160001a905350600f60fb1b8160018151811061419f5761419f614f34565b60200101906001600160f81b031916908160001a90535060006141c3846002615025565b6141ce9060016151e5565b90505b6001811115614246576f181899199a1a9b1b9c1cb0b131b232b360811b85600f166010811061420257614202614f34565b1a60f81b82828151811061421857614218614f34565b60200101906001600160f81b031916908160001a90535060049490941c9361423f81615574565b90506141d1565b5083156126b65760405162461bcd60e51b815260206004820181905260248201527f537472696e67733a20686578206c656e67746820696e73756666696369656e746044820152606401610fa4565b6000818152600183016020526040812054801561437e5760006142b9600183615286565b85549091506000906142cd90600190615286565b90508181146143325760008660000182815481106142ed576142ed614f34565b906000526020600020015490508087600001848154811061431057614310614f34565b6000918252602080832090910192909255918252600188019052604090208390555b85548690806143435761434361558b565b600190038181906000526020600020016000905590558560010160008681526020019081526020016000206000905560019350505050610e02565b6000915050610e02565b60008181526001830160205260408120546143cf57508154600181810184556000848152602080822090930184905584548482528286019093526040902091909155610e02565b506000610e02565b6001600160a01b03821661442d5760405162461bcd60e51b815260206004820181905260248201527f4552433732313a206d696e7420746f20746865207a65726f20616464726573736044820152606401610fa4565b6144368161299e565b156144825760405162461bcd60e51b815260206004820152601c60248201527b115490cdcc8c4e881d1bdad95b88185b1c9958591e481b5a5b9d195960221b6044820152606401610fa4565b61448e600083836138d2565b6001600160a01b03821660009081526005602052604081208054600192906144b79084906151e5565b909155505060008181526004602052604080822080546001600160a01b0319166001600160a01b03861690811790915590518392906000805160206155c2833981519152908290a45050565b82805461450f90615185565b90600052602060002090601f0160209004810192826145315760008555614577565b82601f1061454a57805160ff1916838001178555614577565b82800160010185558215614577579182015b8281111561457757825182559160200191906001019061455c565b50614583929150614587565b5090565b5b808211156145835760008155600101614588565b6001600160e01b03198116811461271357600080fd5b6000602082840312156145c457600080fd5b81356126b68161459c565b6001600160a01b038116811461271357600080fd5b80356131b6816145cf565b634e487b7160e01b600052604160045260246000fd5b60405161020081016001600160401b0381118282101715614628576146286145ef565b60405290565b604051601f8201601f191681016001600160401b0381118282101715614656576146566145ef565b604052919050565b60006001600160401b03821115614677576146776145ef565b5060051b60200190565b600082601f83011261469257600080fd5b813560206146a76146a28361465e565b61462e565b82815260059290921b840181019181810190868411156146c657600080fd5b8286015b848110156146e157803583529183019183016146ca565b509695505050505050565b60008060006060848603121561470157600080fd5b833561470c816145cf565b9250602084013561471c816145cf565b915060408401356001600160401b0381111561473757600080fd5b61474386828701614681565b9150509250925092565b60006020828403121561475f57600080fd5b5035919050565b60005b83811015614781578181015183820152602001614769565b83811115610ea25750506000910152565b600081518084526147aa816020860160208601614766565b601f01601f19169290920160200192915050565b6020815260006126b66020830184614792565b6001600160a01b0391909116815260200190565b6000602082840312156147f757600080fd5b81356126b6816145cf565b6000806040838503121561481557600080fd5b8235614820816145cf565b946020939093013593505050565b60008060006060848603121561484357600080fd5b833561484e816145cf565b9250602084013561485e816145cf565b929592945050506040919091013590565b6000806040838503121561488257600080fd5b50508035926020909101359150565b803580151581146131b657600080fd5b6000602082840312156148b357600080fd5b6126b682614891565b600080604083850312156148cf57600080fd5b8235915060208301356148e1816145cf565b809150509250929050565b600082601f8301126148fd57600080fd5b8135602061490d6146a28361465e565b82815260059290921b8401810191818101908684111561492c57600080fd5b8286015b848110156146e1578035614943816145cf565b8352918301918301614930565b60008060006060848603121561496557600080fd5b83356001600160401b038082111561497c57600080fd5b614988878388016148ec565b9450602086013591508082111561499e57600080fd5b6149aa878388016148ec565b935060408601359150808211156149c057600080fd5b5061474386828701614681565b60006001600160401b038311156149e6576149e66145ef565b6149f9601f8401601f191660200161462e565b9050828152838383011115614a0d57600080fd5b828260208301376000602084830101529392505050565b600082601f830112614a3557600080fd5b6126b6838335602085016149cd565b600060208284031215614a5657600080fd5b81356001600160401b03811115614a6c57600080fd5b61268384828501614a24565b60008060208385031215614a8b57600080fd5b82356001600160401b0380821115614aa257600080fd5b818501915085601f830112614ab657600080fd5b813581811115614ac557600080fd5b866020606083028501011115614ada57600080fd5b60209290920196919550909350505050565b60008083601f840112614afe57600080fd5b5081356001600160401b03811115614b1557600080fd5b6020830191508360208260051b850101111561130c57600080fd5b60008060208385031215614b4357600080fd5b82356001600160401b03811115614b5957600080fd5b614b6585828601614aec565b90969095509350505050565b6001600160a01b0392909216825261ffff16602082015260400190565b803561ffff811681146131b657600080fd5b60008060408385031215614bb357600080fd5b82356001600160401b0380821115614bca57600080fd5b908401906102008287031215614bdf57600080fd5b614be7614605565b823582811115614bf657600080fd5b614c0288828601614a24565b825250602083013582811115614c1757600080fd5b614c2388828601614a24565b602083015250604083013582811115614c3b57600080fd5b614c4788828601614a24565b604083015250606083013582811115614c5f57600080fd5b614c6b88828601614a24565b606083015250608083013582811115614c8357600080fd5b614c8f88828601614a24565b60808301525060a0838101359082015260c0808401359082015260e08084013590820152610100808401359082015261012080840135908201526101409150614cd98284016145e4565b828201526101609150614ced828401614b8e565b828201526101809150614d018284016145e4565b828201526101a09150614d158284016145e4565b828201526101c09150614d298284016145e4565b828201526101e09150614d3d8284016145e4565b82820152809450505050614d53602084016145e4565b90509250929050565b600080600060408486031215614d7157600080fd5b8335925060208401356001600160401b03811115614d8e57600080fd5b614d9a86828701614aec565b9497909650939450505050565b60008060408385031215614dba57600080fd5b8235614dc5816145cf565b9150614d5360208401614891565b60008060008060808587031215614de957600080fd5b8435614df4816145cf565b93506020850135614e04816145cf565b92506040850135915060608501356001600160401b03811115614e2657600080fd5b8501601f81018713614e3757600080fd5b614e46878235602084016149cd565b91505092959194509250565b602080825282518282018190526000919060409081850190868401855b82811015614ea657815180516001600160a01b031685528601516001600160601b0316868501529284019290850190600101614e6f565b5091979650505050505050565b600080600060408486031215614ec857600080fd5b8335614ed3816145cf565b925060208401356001600160401b03811115614d8e57600080fd5b60008060408385031215614f0157600080fd5b8235614f0c816145cf565b915060208301356148e1816145cf565b600060408284031215614f2e57600080fd5b50919050565b634e487b7160e01b600052603260045260246000fd5b6001600160a01b039384168152919092166020820152604081019190915260600190565b634e487b7160e01b600052601160045260246000fd5b6000600019821415614f9857614f98614f6e565b5060010190565b6020808252818101527f4f776e61626c653a2063616c6c6572206973206e6f7420746865206f776e6572604082015260600190565b60208082526031908201527f4552433732313a207472616e736665722063616c6c6572206973206e6f74206f6040820152701ddb995c881b9bdc88185c1c1c9bdd9959607a1b606082015260800190565b600081600019048311821515161561503f5761503f614f6e565b500290565b634e487b7160e01b600052601260045260246000fd5b60008261506957615069615044565b500490565b602080825260179082015276115490cdcc8c4bd49150d2541251539517d313d0d2d151604a1b604082015260600190565b6000606082840312156150b157600080fd5b604051606081016001600160401b03811182821017156150d3576150d36145ef565b6040528235815260208301356150e8816145cf565b60208201526150f960408401614b8e565b60408201529392505050565b60006020828403121561511757600080fd5b5051919050565b6020808252601f908201527f5265656e7472616e637947756172643a207265656e7472616e742063616c6c00604082015260600190565b6020808252601690820152754552433732312f4e4f545f4c4f434b45525f524f4c4560501b604082015260600190565b600181811c9082168061519957607f821691505b60208210811415614f2e57634e487b7160e01b600052602260045260246000fd5b6020808252601190820152702a27a5a2a729afaaa924afa32927ad22a760791b604082015260600190565b600082198211156151f8576151f8614f6e565b500190565b602080825260139082015272125394d551919250d251539517d05353d55395606a1b604082015260600190565b60006040828403121561523c57600080fd5b604080519081016001600160401b038111828210171561525e5761525e6145ef565b604052823561526c816145cf565b815261527a60208401614b8e565b60208201529392505050565b60008282101561529857615298614f6e565b500390565b6020808252600b908201526a496e76616c69642062707360a81b604082015260600190565b6020808252602e908201527f496e697469616c697a61626c653a20636f6e747261637420697320616c72656160408201526d191e481a5b9a5d1a585b1a5e995960921b606082015260800190565b6020808252602b908201527f496e697469616c697a61626c653a20636f6e7472616374206973206e6f74206960408201526a6e697469616c697a696e6760a81b606082015260800190565b60208082526032908201527f4552433732313a207472616e7366657220746f206e6f6e20455243373231526560408201527131b2b4bb32b91034b6b83632b6b2b73a32b960711b606082015260800190565b8054600090600181811c90808316806153c757607f831692505b60208084108214156153e957634e487b7160e01b600052602260045260246000fd5b8180156153fd576001811461540e5761543b565b60ff1986168952848901965061543b565b60008881526020902060005b868110156154335781548b82015290850190830161541a565b505084890196505b50505050505092915050565b600061545382866153ad565b8451615463818360208901614766565b61546f818301866153ad565b979650505050505050565b60006020828403121561548c57600080fd5b81516126b6816145cf565b76020b1b1b2b9b9a1b7b73a3937b61d1030b1b1b7bab73a1604d1b8152600083516154c9816017850160208801614766565b7001034b99036b4b9b9b4b733903937b6329607d1b60179184019182015283516154fa816028840160208801614766565b01602801949350505050565b6001600160a01b038581168252841660208201526040810183905260806060820181905260009061553990830184614792565b9695505050505050565b60006020828403121561555557600080fd5b81516126b68161459c565b60008261556f5761556f615044565b500690565b60008161558357615583614f6e565b506000190190565b634e487b7160e01b600052603160045260246000fdfe9f2df0fed2c77648de5860a4cc508cd0818c85b8b8a1ab4ceeef8d981c8956a6ddf252ad1be2c89b69c2b068fc378daa952ba7f163c4a11628f55a4df523b3efaf9a8bb3cbd6b84fbccefa71ff73e26e798553c6914585a84886212a46a90279a264697066735822122010b45072858e1e58366aca8949a72bccdcc2426592b0a5ac9dc5ed7cc2013f5d64736f6c63430008090033",
  "devdoc": {
    "kind": "dev",
    "methods": {
      "approve(address,uint256)": {
        "details": "See {IERC721-approve}."
      },
      "balanceOf(address)": {
        "details": "See {IERC721-balanceOf}."
      },
      "getApproved(uint256)": {
        "details": "See {IERC721-getApproved}."
      },
      "getRoleAdmin(bytes32)": {
        "details": "Returns the admin role that controls `role`. See {grantRole} and {revokeRole}. To change a role's admin, use {_setRoleAdmin}."
      },
      "getTokenRoyaltiesCount()": {
        "details": "See {IEIP2981RoyaltyOverride-getTokenRoyaltiesCount}."
      },
      "getTokenRoyaltyByIndex(uint256)": {
        "details": "See {IEIP2981RoyaltyOverride-getTokenRoyaltyByIndex}."
      },
      "grantRole(bytes32,address)": {
        "details": "Grants `role` to `account`. If `account` had not been already granted `role`, emits a {RoleGranted} event. Requirements: - the caller must have ``role``'s admin role."
      },
      "hasRole(bytes32,address)": {
        "details": "Returns `true` if `account` has been granted `role`."
      },
      "owner()": {
        "details": "Returns the address of the current owner."
      },
      "ownerOf(uint256)": {
        "details": "See {IERC721-ownerOf}."
      },
      "renounceOwnership()": {
        "details": "Leaves the contract without owner. It will not be possible to call `onlyOwner` functions anymore. Can only be called by the current owner. NOTE: Renouncing ownership will leave the contract without an owner, thereby removing any functionality that is only available to the owner."
      },
      "renounceRole(bytes32,address)": {
        "details": "Revokes `role` from the calling account. Roles are often managed via {grantRole} and {revokeRole}: this function's purpose is to provide a mechanism for accounts to lose their privileges if they are compromised (such as when a trusted device is misplaced). If the calling account had been revoked `role`, emits a {RoleRevoked} event. Requirements: - the caller must be `account`."
      },
      "revokeRole(bytes32,address)": {
        "details": "Revokes `role` from `account`. If `account` had been granted `role`, emits a {RoleRevoked} event. Requirements: - the caller must have ``role``'s admin role."
      },
      "royaltyInfo(uint256,uint256)": {
        "details": "See {IEIP2981RoyaltyOverride-royaltyInfo}."
      },
      "safeTransferFrom(address,address,uint256)": {
        "details": "See {IERC721-safeTransferFrom}."
      },
      "safeTransferFrom(address,address,uint256,bytes)": {
        "details": "See {IERC721-safeTransferFrom}."
      },
      "setApprovalForAll(address,bool)": {
        "details": "See {IERC721-setApprovalForAll}."
      },
      "transferFrom(address,address,uint256)": {
        "details": "See {IERC721-transferFrom}."
      },
      "transferOwnership(address)": {
        "details": "Transfers ownership of the contract to a new account (`newOwner`). Can only be called by the current owner."
      }
    },
    "version": 1
  },
  "userdoc": {
    "kind": "user",
    "methods": {
      "isApprovedForAll(address,address)": {
        "notice": "Override isApprovedForAll to whitelist user's OpenSea proxy accounts to enable gas-less listings."
      },
      "lock(uint256[])": {
        "notice": "Locks token(s) to effectively lock them, while keeping in the same wallet. This mechanism prevents them from being transferred, yet still will show correct owner."
      },
      "locked(uint256)": {
        "notice": "Returns if a token is locked or not."
      },
      "transferFromBulk(address,address,uint256[])": {
        "notice": "Useful for when user wants to return tokens to get a refund, or when they want to transfer lots of tokens by paying gas fee only once."
      },
      "transferFromBulk(address[],address[],uint256[])": {
        "notice": "Useful for transferring multiple tokens from/to multiple addresses."
      },
      "unlock(uint256[])": {
        "notice": "Unlocks locked token(s) to be able to transfer."
      }
    },
    "version": 1
  },
  "storageLayout": {
    "storage": [
      {
        "astId": 886,
        "contract": "contracts/collections/ERC721/presets/ERC721FullFeaturedCollection.sol:ERC721FullFeaturedCollection",
        "label": "_initialized",
        "offset": 0,
        "slot": "0",
        "type": "t_uint8"
      },
      {
        "astId": 889,
        "contract": "contracts/collections/ERC721/presets/ERC721FullFeaturedCollection.sol:ERC721FullFeaturedCollection",
        "label": "_initializing",
        "offset": 1,
        "slot": "0",
        "type": "t_bool"
      },
      {
        "astId": 782,
        "contract": "contracts/collections/ERC721/presets/ERC721FullFeaturedCollection.sol:ERC721FullFeaturedCollection",
        "label": "_owner",
        "offset": 2,
        "slot": "0",
        "type": "t_address"
      },
      {
        "astId": 4693,
        "contract": "contracts/collections/ERC721/presets/ERC721FullFeaturedCollection.sol:ERC721FullFeaturedCollection",
        "label": "_supportedInterfaces",
        "offset": 0,
        "slot": "1",
        "type": "t_mapping(t_bytes4,t_bool)"
      },
      {
        "astId": 1912,
        "contract": "contracts/collections/ERC721/presets/ERC721FullFeaturedCollection.sol:ERC721FullFeaturedCollection",
        "label": "_name",
        "offset": 0,
        "slot": "2",
        "type": "t_string_storage"
      },
      {
        "astId": 1914,
        "contract": "contracts/collections/ERC721/presets/ERC721FullFeaturedCollection.sol:ERC721FullFeaturedCollection",
        "label": "_symbol",
        "offset": 0,
        "slot": "3",
        "type": "t_string_storage"
      },
      {
        "astId": 1918,
        "contract": "contracts/collections/ERC721/presets/ERC721FullFeaturedCollection.sol:ERC721FullFeaturedCollection",
        "label": "_owners",
        "offset": 0,
        "slot": "4",
        "type": "t_mapping(t_uint256,t_address)"
      },
      {
        "astId": 1922,
        "contract": "contracts/collections/ERC721/presets/ERC721FullFeaturedCollection.sol:ERC721FullFeaturedCollection",
        "label": "_balances",
        "offset": 0,
        "slot": "5",
        "type": "t_mapping(t_address,t_uint256)"
      },
      {
        "astId": 1926,
        "contract": "contracts/collections/ERC721/presets/ERC721FullFeaturedCollection.sol:ERC721FullFeaturedCollection",
        "label": "_tokenApprovals",
        "offset": 0,
        "slot": "6",
        "type": "t_mapping(t_uint256,t_address)"
      },
      {
        "astId": 1932,
        "contract": "contracts/collections/ERC721/presets/ERC721FullFeaturedCollection.sol:ERC721FullFeaturedCollection",
        "label": "_operatorApprovals",
        "offset": 0,
        "slot": "7",
        "type": "t_mapping(t_address,t_mapping(t_address,t_bool))"
      },
      {
        "astId": 7638,
        "contract": "contracts/collections/ERC721/presets/ERC721FullFeaturedCollection.sol:ERC721FullFeaturedCollection",
        "label": "_placeholderURI",
        "offset": 0,
        "slot": "8",
        "type": "t_string_storage"
      },
      {
        "astId": 7640,
        "contract": "contracts/collections/ERC721/presets/ERC721FullFeaturedCollection.sol:ERC721FullFeaturedCollection",
        "label": "_tokenURIPrefix",
        "offset": 0,
        "slot": "9",
        "type": "t_string_storage"
      },
      {
        "astId": 7642,
        "contract": "contracts/collections/ERC721/presets/ERC721FullFeaturedCollection.sol:ERC721FullFeaturedCollection",
        "label": "_tokenURISuffix",
        "offset": 0,
        "slot": "10",
        "type": "t_string_storage"
      },
      {
        "astId": 7644,
        "contract": "contracts/collections/ERC721/presets/ERC721FullFeaturedCollection.sol:ERC721FullFeaturedCollection",
        "label": "tokenURIFrozen",
        "offset": 0,
        "slot": "11",
        "type": "t_bool"
      },
      {
        "astId": 6216,
        "contract": "contracts/collections/ERC721/presets/ERC721FullFeaturedCollection.sol:ERC721FullFeaturedCollection",
        "label": "_name",
        "offset": 0,
        "slot": "12",
        "type": "t_string_storage"
      },
      {
        "astId": 6218,
        "contract": "contracts/collections/ERC721/presets/ERC721FullFeaturedCollection.sol:ERC721FullFeaturedCollection",
        "label": "_symbol",
        "offset": 0,
        "slot": "13",
        "type": "t_string_storage"
      },
      {
        "astId": 6220,
        "contract": "contracts/collections/ERC721/presets/ERC721FullFeaturedCollection.sol:ERC721FullFeaturedCollection",
        "label": "_contractURI",
        "offset": 0,
        "slot": "14",
        "type": "t_string_storage"
      },
      {
        "astId": 5834,
        "contract": "contracts/collections/ERC721/presets/ERC721FullFeaturedCollection.sol:ERC721FullFeaturedCollection",
        "label": "maxSupply",
        "offset": 0,
        "slot": "15",
        "type": "t_uint256"
      },
      {
        "astId": 5836,
        "contract": "contracts/collections/ERC721/presets/ERC721FullFeaturedCollection.sol:ERC721FullFeaturedCollection",
        "label": "maxSupplyFrozen",
        "offset": 0,
        "slot": "16",
        "type": "t_bool"
      },
      {
        "astId": 5839,
        "contract": "contracts/collections/ERC721/presets/ERC721FullFeaturedCollection.sol:ERC721FullFeaturedCollection",
        "label": "_currentTokenId",
        "offset": 0,
        "slot": "17",
        "type": "t_uint256"
      },
      {
        "astId": 1124,
        "contract": "contracts/collections/ERC721/presets/ERC721FullFeaturedCollection.sol:ERC721FullFeaturedCollection",
        "label": "_status",
        "offset": 0,
        "slot": "18",
        "type": "t_uint256"
      },
      {
        "astId": 7361,
        "contract": "contracts/collections/ERC721/presets/ERC721FullFeaturedCollection.sol:ERC721FullFeaturedCollection",
        "label": "preSalePrice",
        "offset": 0,
        "slot": "19",
        "type": "t_uint256"
      },
      {
        "astId": 7363,
        "contract": "contracts/collections/ERC721/presets/ERC721FullFeaturedCollection.sol:ERC721FullFeaturedCollection",
        "label": "preSaleMaxMintPerWallet",
        "offset": 0,
        "slot": "20",
        "type": "t_uint256"
      },
      {
        "astId": 7365,
        "contract": "contracts/collections/ERC721/presets/ERC721FullFeaturedCollection.sol:ERC721FullFeaturedCollection",
        "label": "preSaleAllowlistMerkleRoot",
        "offset": 0,
        "slot": "21",
        "type": "t_bytes32"
      },
      {
        "astId": 7367,
        "contract": "contracts/collections/ERC721/presets/ERC721FullFeaturedCollection.sol:ERC721FullFeaturedCollection",
        "label": "preSaleStatus",
        "offset": 0,
        "slot": "22",
        "type": "t_bool"
      },
      {
        "astId": 7371,
        "contract": "contracts/collections/ERC721/presets/ERC721FullFeaturedCollection.sol:ERC721FullFeaturedCollection",
        "label": "preSaleAllowlistClaimed",
        "offset": 0,
        "slot": "23",
        "type": "t_mapping(t_address,t_uint256)"
      },
      {
        "astId": 7872,
        "contract": "contracts/collections/ERC721/presets/ERC721FullFeaturedCollection.sol:ERC721FullFeaturedCollection",
        "label": "publicSalePrice",
        "offset": 0,
        "slot": "24",
        "type": "t_uint256"
      },
      {
        "astId": 7874,
        "contract": "contracts/collections/ERC721/presets/ERC721FullFeaturedCollection.sol:ERC721FullFeaturedCollection",
        "label": "publicSaleMaxMintPerTx",
        "offset": 0,
        "slot": "25",
        "type": "t_uint256"
      },
      {
        "astId": 7876,
        "contract": "contracts/collections/ERC721/presets/ERC721FullFeaturedCollection.sol:ERC721FullFeaturedCollection",
        "label": "publicSaleStatus",
        "offset": 0,
        "slot": "26",
        "type": "t_bool"
      },
      {
        "astId": 8499,
        "contract": "contracts/collections/ERC721/presets/ERC721FullFeaturedCollection.sol:ERC721FullFeaturedCollection",
        "label": "proceedsRecipient",
        "offset": 1,
        "slot": "26",
        "type": "t_address"
      },
      {
        "astId": 8501,
        "contract": "contracts/collections/ERC721/presets/ERC721FullFeaturedCollection.sol:ERC721FullFeaturedCollection",
        "label": "proceedsRecipientLocked",
        "offset": 21,
        "slot": "26",
        "type": "t_bool"
      },
      {
        "astId": 6446,
        "contract": "contracts/collections/ERC721/presets/ERC721FullFeaturedCollection.sol:ERC721FullFeaturedCollection",
        "label": "lockedTokens",
        "offset": 0,
        "slot": "27",
        "type": "t_struct(BitMap)5065_storage"
      },
      {
        "astId": 406,
        "contract": "contracts/collections/ERC721/presets/ERC721FullFeaturedCollection.sol:ERC721FullFeaturedCollection",
        "label": "_roles",
        "offset": 0,
        "slot": "28",
        "type": "t_mapping(t_bytes32,t_struct(RoleData)401_storage)"
      },
      {
        "astId": 86,
        "contract": "contracts/collections/ERC721/presets/ERC721FullFeaturedCollection.sol:ERC721FullFeaturedCollection",
        "label": "defaultRoyalty",
        "offset": 0,
        "slot": "29",
        "type": "t_struct(TokenRoyalty)28_storage"
      },
      {
        "astId": 91,
        "contract": "contracts/collections/ERC721/presets/ERC721FullFeaturedCollection.sol:ERC721FullFeaturedCollection",
        "label": "_tokenRoyalties",
        "offset": 0,
        "slot": "30",
        "type": "t_mapping(t_uint256,t_struct(TokenRoyalty)28_storage)"
      },
      {
        "astId": 94,
        "contract": "contracts/collections/ERC721/presets/ERC721FullFeaturedCollection.sol:ERC721FullFeaturedCollection",
        "label": "_tokensWithRoyalties",
        "offset": 0,
        "slot": "31",
        "type": "t_struct(UintSet)5664_storage"
      },
      {
        "astId": 6857,
        "contract": "contracts/collections/ERC721/presets/ERC721FullFeaturedCollection.sol:ERC721FullFeaturedCollection",
        "label": "_openSeaProxyRegistryAddress",
        "offset": 0,
        "slot": "33",
        "type": "t_address"
      },
      {
        "astId": 6859,
        "contract": "contracts/collections/ERC721/presets/ERC721FullFeaturedCollection.sol:ERC721FullFeaturedCollection",
        "label": "_openSeaExchangeAddress",
        "offset": 0,
        "slot": "34",
        "type": "t_address"
      },
      {
        "astId": 12629,
        "contract": "contracts/collections/ERC721/presets/ERC721FullFeaturedCollection.sol:ERC721FullFeaturedCollection",
        "label": "_trustedForwarder",
        "offset": 0,
        "slot": "35",
        "type": "t_address"
      }
    ],
    "types": {
      "t_address": {
        "encoding": "inplace",
        "label": "address",
        "numberOfBytes": "20"
      },
      "t_array(t_bytes32)dyn_storage": {
        "base": "t_bytes32",
        "encoding": "dynamic_array",
        "label": "bytes32[]",
        "numberOfBytes": "32"
      },
      "t_bool": {
        "encoding": "inplace",
        "label": "bool",
        "numberOfBytes": "1"
      },
      "t_bytes32": {
        "encoding": "inplace",
        "label": "bytes32",
        "numberOfBytes": "32"
      },
      "t_bytes4": {
        "encoding": "inplace",
        "label": "bytes4",
        "numberOfBytes": "4"
      },
      "t_mapping(t_address,t_bool)": {
        "encoding": "mapping",
        "key": "t_address",
        "label": "mapping(address => bool)",
        "numberOfBytes": "32",
        "value": "t_bool"
      },
      "t_mapping(t_address,t_mapping(t_address,t_bool))": {
        "encoding": "mapping",
        "key": "t_address",
        "label": "mapping(address => mapping(address => bool))",
        "numberOfBytes": "32",
        "value": "t_mapping(t_address,t_bool)"
      },
      "t_mapping(t_address,t_uint256)": {
        "encoding": "mapping",
        "key": "t_address",
        "label": "mapping(address => uint256)",
        "numberOfBytes": "32",
        "value": "t_uint256"
      },
      "t_mapping(t_bytes32,t_struct(RoleData)401_storage)": {
        "encoding": "mapping",
        "key": "t_bytes32",
        "label": "mapping(bytes32 => struct AccessControl.RoleData)",
        "numberOfBytes": "32",
        "value": "t_struct(RoleData)401_storage"
      },
      "t_mapping(t_bytes32,t_uint256)": {
        "encoding": "mapping",
        "key": "t_bytes32",
        "label": "mapping(bytes32 => uint256)",
        "numberOfBytes": "32",
        "value": "t_uint256"
      },
      "t_mapping(t_bytes4,t_bool)": {
        "encoding": "mapping",
        "key": "t_bytes4",
        "label": "mapping(bytes4 => bool)",
        "numberOfBytes": "32",
        "value": "t_bool"
      },
      "t_mapping(t_uint256,t_address)": {
        "encoding": "mapping",
        "key": "t_uint256",
        "label": "mapping(uint256 => address)",
        "numberOfBytes": "32",
        "value": "t_address"
      },
      "t_mapping(t_uint256,t_struct(TokenRoyalty)28_storage)": {
        "encoding": "mapping",
        "key": "t_uint256",
        "label": "mapping(uint256 => struct IEIP2981RoyaltyOverride.TokenRoyalty)",
        "numberOfBytes": "32",
        "value": "t_struct(TokenRoyalty)28_storage"
      },
      "t_mapping(t_uint256,t_uint256)": {
        "encoding": "mapping",
        "key": "t_uint256",
        "label": "mapping(uint256 => uint256)",
        "numberOfBytes": "32",
        "value": "t_uint256"
      },
      "t_string_storage": {
        "encoding": "bytes",
        "label": "string",
        "numberOfBytes": "32"
      },
      "t_struct(BitMap)5065_storage": {
        "encoding": "inplace",
        "label": "struct BitMaps.BitMap",
        "members": [
          {
            "astId": 5064,
            "contract": "contracts/collections/ERC721/presets/ERC721FullFeaturedCollection.sol:ERC721FullFeaturedCollection",
            "label": "_data",
            "offset": 0,
            "slot": "0",
            "type": "t_mapping(t_uint256,t_uint256)"
          }
        ],
        "numberOfBytes": "32"
      },
      "t_struct(RoleData)401_storage": {
        "encoding": "inplace",
        "label": "struct AccessControl.RoleData",
        "members": [
          {
            "astId": 398,
            "contract": "contracts/collections/ERC721/presets/ERC721FullFeaturedCollection.sol:ERC721FullFeaturedCollection",
            "label": "members",
            "offset": 0,
            "slot": "0",
            "type": "t_mapping(t_address,t_bool)"
          },
          {
            "astId": 400,
            "contract": "contracts/collections/ERC721/presets/ERC721FullFeaturedCollection.sol:ERC721FullFeaturedCollection",
            "label": "adminRole",
            "offset": 0,
            "slot": "1",
            "type": "t_bytes32"
          }
        ],
        "numberOfBytes": "64"
      },
      "t_struct(Set)5206_storage": {
        "encoding": "inplace",
        "label": "struct EnumerableSet.Set",
        "members": [
          {
            "astId": 5201,
            "contract": "contracts/collections/ERC721/presets/ERC721FullFeaturedCollection.sol:ERC721FullFeaturedCollection",
            "label": "_values",
            "offset": 0,
            "slot": "0",
            "type": "t_array(t_bytes32)dyn_storage"
          },
          {
            "astId": 5205,
            "contract": "contracts/collections/ERC721/presets/ERC721FullFeaturedCollection.sol:ERC721FullFeaturedCollection",
            "label": "_indexes",
            "offset": 0,
            "slot": "1",
            "type": "t_mapping(t_bytes32,t_uint256)"
          }
        ],
        "numberOfBytes": "64"
      },
      "t_struct(TokenRoyalty)28_storage": {
        "encoding": "inplace",
        "label": "struct IEIP2981RoyaltyOverride.TokenRoyalty",
        "members": [
          {
            "astId": 25,
            "contract": "contracts/collections/ERC721/presets/ERC721FullFeaturedCollection.sol:ERC721FullFeaturedCollection",
            "label": "recipient",
            "offset": 0,
            "slot": "0",
            "type": "t_address"
          },
          {
            "astId": 27,
            "contract": "contracts/collections/ERC721/presets/ERC721FullFeaturedCollection.sol:ERC721FullFeaturedCollection",
            "label": "bps",
            "offset": 20,
            "slot": "0",
            "type": "t_uint16"
          }
        ],
        "numberOfBytes": "32"
      },
      "t_struct(UintSet)5664_storage": {
        "encoding": "inplace",
        "label": "struct EnumerableSet.UintSet",
        "members": [
          {
            "astId": 5663,
            "contract": "contracts/collections/ERC721/presets/ERC721FullFeaturedCollection.sol:ERC721FullFeaturedCollection",
            "label": "_inner",
            "offset": 0,
            "slot": "0",
            "type": "t_struct(Set)5206_storage"
          }
        ],
        "numberOfBytes": "64"
      },
      "t_uint16": {
        "encoding": "inplace",
        "label": "uint16",
        "numberOfBytes": "2"
      },
      "t_uint256": {
        "encoding": "inplace",
        "label": "uint256",
        "numberOfBytes": "32"
      },
      "t_uint8": {
        "encoding": "inplace",
        "label": "uint8",
        "numberOfBytes": "1"
      }
    }
  }
}