{
  "address": "0x80A6DAD6aB4F986Dd71ED2f5597846663a431976",
  "abi": [
    {
      "inputs": [
        {
          "components": [
            {
              "internalType": "string",
              "name": "name",
              "type": "string"
            },
            {
              "internalType": "string",
              "name": "symbol",
              "type": "string"
            },
            {
              "internalType": "string",
              "name": "contractURI",
              "type": "string"
            },
            {
              "internalType": "string",
              "name": "placeholderURI",
              "type": "string"
            },
            {
              "internalType": "string",
              "name": "tokenURIPrefix",
              "type": "string"
            },
            {
              "internalType": "uint256",
              "name": "maxSupply",
              "type": "uint256"
            },
            {
              "internalType": "uint256",
              "name": "preSalePrice",
              "type": "uint256"
            },
            {
              "internalType": "uint256",
              "name": "preSaleMaxMintPerWallet",
              "type": "uint256"
            },
            {
              "internalType": "uint256",
              "name": "publicSalePrice",
              "type": "uint256"
            },
            {
              "internalType": "uint256",
              "name": "publicSaleMaxMintPerTx",
              "type": "uint256"
            },
            {
              "internalType": "address",
              "name": "defaultRoyaltyAddress",
              "type": "address"
            },
            {
              "internalType": "uint16",
              "name": "defaultRoyaltyBps",
              "type": "uint16"
            },
            {
              "internalType": "address",
              "name": "proceedsRecipient",
              "type": "address"
            },
            {
              "internalType": "address",
              "name": "trustedForwarder",
              "type": "address"
            }
          ],
          "internalType": "struct ERC721SimpleSalesCollection.Config",
          "name": "config",
          "type": "tuple"
        }
      ],
      "stateMutability": "nonpayable",
      "type": "constructor"
    },
    {
      "anonymous": false,
      "inputs": [
        {
          "indexed": true,
          "internalType": "address",
          "name": "owner",
          "type": "address"
        },
        {
          "indexed": true,
          "internalType": "address",
          "name": "approved",
          "type": "address"
        },
        {
          "indexed": true,
          "internalType": "uint256",
          "name": "tokenId",
          "type": "uint256"
        }
      ],
      "name": "Approval",
      "type": "event"
    },
    {
      "anonymous": false,
      "inputs": [
        {
          "indexed": true,
          "internalType": "address",
          "name": "owner",
          "type": "address"
        },
        {
          "indexed": true,
          "internalType": "address",
          "name": "operator",
          "type": "address"
        },
        {
          "indexed": false,
          "internalType": "bool",
          "name": "approved",
          "type": "bool"
        }
      ],
      "name": "ApprovalForAll",
      "type": "event"
    },
    {
      "anonymous": false,
      "inputs": [
        {
          "indexed": false,
          "internalType": "address",
          "name": "recipient",
          "type": "address"
        },
        {
          "indexed": false,
          "internalType": "uint16",
          "name": "bps",
          "type": "uint16"
        }
      ],
      "name": "DefaultRoyaltySet",
      "type": "event"
    },
    {
      "anonymous": false,
      "inputs": [
        {
          "indexed": false,
          "internalType": "uint8",
          "name": "version",
          "type": "uint8"
        }
      ],
      "name": "Initialized",
      "type": "event"
    },
    {
      "anonymous": false,
      "inputs": [
        {
          "indexed": true,
          "internalType": "address",
          "name": "previousOwner",
          "type": "address"
        },
        {
          "indexed": true,
          "internalType": "address",
          "name": "newOwner",
          "type": "address"
        }
      ],
      "name": "OwnershipTransferred",
      "type": "event"
    },
    {
      "anonymous": false,
      "inputs": [
        {
          "indexed": true,
          "internalType": "bytes32",
          "name": "role",
          "type": "bytes32"
        },
        {
          "indexed": true,
          "internalType": "bytes32",
          "name": "previousAdminRole",
          "type": "bytes32"
        },
        {
          "indexed": true,
          "internalType": "bytes32",
          "name": "newAdminRole",
          "type": "bytes32"
        }
      ],
      "name": "RoleAdminChanged",
      "type": "event"
    },
    {
      "anonymous": false,
      "inputs": [
        {
          "indexed": true,
          "internalType": "bytes32",
          "name": "role",
          "type": "bytes32"
        },
        {
          "indexed": true,
          "internalType": "address",
          "name": "account",
          "type": "address"
        },
        {
          "indexed": true,
          "internalType": "address",
          "name": "sender",
          "type": "address"
        }
      ],
      "name": "RoleGranted",
      "type": "event"
    },
    {
      "anonymous": false,
      "inputs": [
        {
          "indexed": true,
          "internalType": "bytes32",
          "name": "role",
          "type": "bytes32"
        },
        {
          "indexed": true,
          "internalType": "address",
          "name": "account",
          "type": "address"
        },
        {
          "indexed": true,
          "internalType": "address",
          "name": "sender",
          "type": "address"
        }
      ],
      "name": "RoleRevoked",
      "type": "event"
    },
    {
      "anonymous": false,
      "inputs": [
        {
          "indexed": false,
          "internalType": "uint256",
          "name": "tokenId",
          "type": "uint256"
        }
      ],
      "name": "TokenRoyaltyRemoved",
      "type": "event"
    },
    {
      "anonymous": false,
      "inputs": [
        {
          "indexed": false,
          "internalType": "uint256",
          "name": "tokenId",
          "type": "uint256"
        },
        {
          "indexed": false,
          "internalType": "address",
          "name": "recipient",
          "type": "address"
        },
        {
          "indexed": false,
          "internalType": "uint16",
          "name": "bps",
          "type": "uint16"
        }
      ],
      "name": "TokenRoyaltySet",
      "type": "event"
    },
    {
      "anonymous": false,
      "inputs": [
        {
          "indexed": true,
          "internalType": "address",
          "name": "from",
          "type": "address"
        },
        {
          "indexed": true,
          "internalType": "address",
          "name": "to",
          "type": "address"
        },
        {
          "indexed": true,
          "internalType": "uint256",
          "name": "tokenId",
          "type": "uint256"
        }
      ],
      "name": "Transfer",
      "type": "event"
    },
    {
      "anonymous": false,
      "inputs": [],
      "name": "WithdrawPowerRevoked",
      "type": "event"
    },
    {
      "anonymous": false,
      "inputs": [
        {
          "indexed": false,
          "internalType": "address[]",
          "name": "claimTokens",
          "type": "address[]"
        },
        {
          "indexed": false,
          "internalType": "uint256[]",
          "name": "amounts",
          "type": "uint256[]"
        }
      ],
      "name": "Withdrawn",
      "type": "event"
    },
    {
      "inputs": [],
      "name": "DEFAULT_ADMIN_ROLE",
      "outputs": [
        {
          "internalType": "bytes32",
          "name": "",
          "type": "bytes32"
        }
      ],
      "stateMutability": "view",
      "type": "function"
    },
    {
      "inputs": [],
      "name": "LOCKER_ROLE",
      "outputs": [
        {
          "internalType": "bytes32",
          "name": "",
          "type": "bytes32"
        }
      ],
      "stateMutability": "view",
      "type": "function"
    },
    {
      "inputs": [],
      "name": "MINTER_ROLE",
      "outputs": [
        {
          "internalType": "bytes32",
          "name": "",
          "type": "bytes32"
        }
      ],
      "stateMutability": "view",
      "type": "function"
    },
    {
      "inputs": [],
      "name": "_trustedForwarder",
      "outputs": [
        {
          "internalType": "address",
          "name": "",
          "type": "address"
        }
      ],
      "stateMutability": "view",
      "type": "function"
    },
    {
      "inputs": [
        {
          "internalType": "address",
          "name": "to",
          "type": "address"
        },
        {
          "internalType": "uint256",
          "name": "tokenId",
          "type": "uint256"
        }
      ],
      "name": "approve",
      "outputs": [],
      "stateMutability": "nonpayable",
      "type": "function"
    },
    {
      "inputs": [
        {
          "internalType": "address",
          "name": "owner",
          "type": "address"
        }
      ],
      "name": "balanceOf",
      "outputs": [
        {
          "internalType": "uint256",
          "name": "",
          "type": "uint256"
        }
      ],
      "stateMutability": "view",
      "type": "function"
    },
    {
      "inputs": [],
      "name": "contractURI",
      "outputs": [
        {
          "internalType": "string",
          "name": "",
          "type": "string"
        }
      ],
      "stateMutability": "view",
      "type": "function"
    },
    {
      "inputs": [],
      "name": "defaultRoyalty",
      "outputs": [
        {
          "internalType": "address",
          "name": "recipient",
          "type": "address"
        },
        {
          "internalType": "uint16",
          "name": "bps",
          "type": "uint16"
        }
      ],
      "stateMutability": "view",
      "type": "function"
    },
    {
      "inputs": [
        {
          "internalType": "uint256[]",
          "name": "ticketTokenIds",
          "type": "uint256[]"
        }
      ],
      "name": "filterUnlocked",
      "outputs": [
        {
          "internalType": "uint256[]",
          "name": "",
          "type": "uint256[]"
        }
      ],
      "stateMutability": "view",
      "type": "function"
    },
    {
      "inputs": [],
      "name": "freezeMaxSupply",
      "outputs": [],
      "stateMutability": "nonpayable",
      "type": "function"
    },
    {
      "inputs": [],
      "name": "freezeTokenURI",
      "outputs": [],
      "stateMutability": "nonpayable",
      "type": "function"
    },
    {
      "inputs": [
        {
          "internalType": "uint256",
          "name": "tokenId",
          "type": "uint256"
        }
      ],
      "name": "getApproved",
      "outputs": [
        {
          "internalType": "address",
          "name": "",
          "type": "address"
        }
      ],
      "stateMutability": "view",
      "type": "function"
    },
    {
      "inputs": [],
      "name": "getInfo",
      "outputs": [
        {
          "internalType": "uint256",
          "name": "_maxSupply",
          "type": "uint256"
        },
        {
          "internalType": "uint256",
          "name": "_totalSupply",
          "type": "uint256"
        },
        {
          "internalType": "uint256",
          "name": "_senderBalance",
          "type": "uint256"
        },
        {
          "internalType": "uint256",
          "name": "_preSalePrice",
          "type": "uint256"
        },
        {
          "internalType": "uint256",
          "name": "_preSaleMaxMintPerWallet",
          "type": "uint256"
        },
        {
          "internalType": "uint256",
          "name": "_preSaleAlreadyClaimed",
          "type": "uint256"
        },
        {
          "internalType": "bool",
          "name": "_preSaleActive",
          "type": "bool"
        },
        {
          "internalType": "uint256",
          "name": "_publicSalePrice",
          "type": "uint256"
        },
        {
          "internalType": "uint256",
          "name": "_publicSaleMaxMintPerTx",
          "type": "uint256"
        },
        {
          "internalType": "bool",
          "name": "_publicSaleActive",
          "type": "bool"
        }
      ],
      "stateMutability": "view",
      "type": "function"
    },
    {
      "inputs": [
        {
          "internalType": "uint256",
          "name": "id",
          "type": "uint256"
        }
      ],
      "name": "getRaribleV2Royalties",
      "outputs": [
        {
          "components": [
            {
              "internalType": "address payable",
              "name": "account",
              "type": "address"
            },
            {
              "internalType": "uint96",
              "name": "value",
              "type": "uint96"
            }
          ],
          "internalType": "struct LibPart.Part[]",
          "name": "result",
          "type": "tuple[]"
        }
      ],
      "stateMutability": "view",
      "type": "function"
    },
    {
      "inputs": [
        {
          "internalType": "bytes32",
          "name": "role",
          "type": "bytes32"
        }
      ],
      "name": "getRoleAdmin",
      "outputs": [
        {
          "internalType": "bytes32",
          "name": "",
          "type": "bytes32"
        }
      ],
      "stateMutability": "view",
      "type": "function"
    },
    {
      "inputs": [],
      "name": "getTokenRoyaltiesCount",
      "outputs": [
        {
          "internalType": "uint256",
          "name": "",
          "type": "uint256"
        }
      ],
      "stateMutability": "view",
      "type": "function"
    },
    {
      "inputs": [
        {
          "internalType": "uint256",
          "name": "index",
          "type": "uint256"
        }
      ],
      "name": "getTokenRoyaltyByIndex",
      "outputs": [
        {
          "components": [
            {
              "internalType": "uint256",
              "name": "tokenId",
              "type": "uint256"
            },
            {
              "internalType": "address",
              "name": "recipient",
              "type": "address"
            },
            {
              "internalType": "uint16",
              "name": "bps",
              "type": "uint16"
            }
          ],
          "internalType": "struct IEIP2981RoyaltyOverride.TokenRoyaltyConfig",
          "name": "",
          "type": "tuple"
        }
      ],
      "stateMutability": "view",
      "type": "function"
    },
    {
      "inputs": [
        {
          "internalType": "bytes32",
          "name": "role",
          "type": "bytes32"
        },
        {
          "internalType": "address",
          "name": "account",
          "type": "address"
        }
      ],
      "name": "grantRole",
      "outputs": [],
      "stateMutability": "nonpayable",
      "type": "function"
    },
    {
      "inputs": [
        {
          "internalType": "bytes32",
          "name": "role",
          "type": "bytes32"
        },
        {
          "internalType": "address",
          "name": "account",
          "type": "address"
        }
      ],
      "name": "hasRole",
      "outputs": [
        {
          "internalType": "bool",
          "name": "",
          "type": "bool"
        }
      ],
      "stateMutability": "view",
      "type": "function"
    },
    {
      "inputs": [],
      "name": "hasRoleBasedLockableExtension",
      "outputs": [
        {
          "internalType": "bool",
          "name": "",
          "type": "bool"
        }
      ],
      "stateMutability": "view",
      "type": "function"
    },
    {
      "inputs": [
        {
          "components": [
            {
              "internalType": "string",
              "name": "name",
              "type": "string"
            },
            {
              "internalType": "string",
              "name": "symbol",
              "type": "string"
            },
            {
              "internalType": "string",
              "name": "contractURI",
              "type": "string"
            },
            {
              "internalType": "string",
              "name": "placeholderURI",
              "type": "string"
            },
            {
              "internalType": "string",
              "name": "tokenURIPrefix",
              "type": "string"
            },
            {
              "internalType": "uint256",
              "name": "maxSupply",
              "type": "uint256"
            },
            {
              "internalType": "uint256",
              "name": "preSalePrice",
              "type": "uint256"
            },
            {
              "internalType": "uint256",
              "name": "preSaleMaxMintPerWallet",
              "type": "uint256"
            },
            {
              "internalType": "uint256",
              "name": "publicSalePrice",
              "type": "uint256"
            },
            {
              "internalType": "uint256",
              "name": "publicSaleMaxMintPerTx",
              "type": "uint256"
            },
            {
              "internalType": "address",
              "name": "defaultRoyaltyAddress",
              "type": "address"
            },
            {
              "internalType": "uint16",
              "name": "defaultRoyaltyBps",
              "type": "uint16"
            },
            {
              "internalType": "address",
              "name": "proceedsRecipient",
              "type": "address"
            },
            {
              "internalType": "address",
              "name": "trustedForwarder",
              "type": "address"
            }
          ],
          "internalType": "struct ERC721SimpleSalesCollection.Config",
          "name": "config",
          "type": "tuple"
        },
        {
          "internalType": "address",
          "name": "deployer",
          "type": "address"
        }
      ],
      "name": "initialize",
      "outputs": [],
      "stateMutability": "nonpayable",
      "type": "function"
    },
    {
      "inputs": [
        {
          "internalType": "address",
          "name": "owner",
          "type": "address"
        },
        {
          "internalType": "address",
          "name": "operator",
          "type": "address"
        }
      ],
      "name": "isApprovedForAll",
      "outputs": [
        {
          "internalType": "bool",
          "name": "",
          "type": "bool"
        }
      ],
      "stateMutability": "view",
      "type": "function"
    },
    {
      "inputs": [
        {
          "internalType": "address",
          "name": "forwarder",
          "type": "address"
        }
      ],
      "name": "isTrustedForwarder",
      "outputs": [
        {
          "internalType": "bool",
          "name": "",
          "type": "bool"
        }
      ],
      "stateMutability": "view",
      "type": "function"
    },
    {
      "inputs": [
        {
          "internalType": "uint256[]",
          "name": "tokenIds",
          "type": "uint256[]"
        }
      ],
      "name": "lock",
      "outputs": [],
      "stateMutability": "nonpayable",
      "type": "function"
    },
    {
      "inputs": [
        {
          "internalType": "uint256",
          "name": "tokenId",
          "type": "uint256"
        }
      ],
      "name": "lock",
      "outputs": [],
      "stateMutability": "nonpayable",
      "type": "function"
    },
    {
      "inputs": [],
      "name": "lockWithdrawMode",
      "outputs": [],
      "stateMutability": "nonpayable",
      "type": "function"
    },
    {
      "inputs": [],
      "name": "lockWithdrawRecipient",
      "outputs": [],
      "stateMutability": "nonpayable",
      "type": "function"
    },
    {
      "inputs": [
        {
          "internalType": "uint256",
          "name": "tokenId",
          "type": "uint256"
        }
      ],
      "name": "locked",
      "outputs": [
        {
          "internalType": "bool",
          "name": "",
          "type": "bool"
        }
      ],
      "stateMutability": "view",
      "type": "function"
    },
    {
      "inputs": [],
      "name": "maxSupply",
      "outputs": [
        {
          "internalType": "uint256",
          "name": "",
          "type": "uint256"
        }
      ],
      "stateMutability": "view",
      "type": "function"
    },
    {
      "inputs": [],
      "name": "maxSupplyFrozen",
      "outputs": [
        {
          "internalType": "bool",
          "name": "",
          "type": "bool"
        }
      ],
      "stateMutability": "view",
      "type": "function"
    },
    {
      "inputs": [
        {
          "internalType": "address",
          "name": "to",
          "type": "address"
        },
        {
          "internalType": "uint256",
          "name": "count",
          "type": "uint256"
        }
      ],
      "name": "mintByOwner",
      "outputs": [],
      "stateMutability": "nonpayable",
      "type": "function"
    },
    {
      "inputs": [
        {
          "internalType": "address",
          "name": "to",
          "type": "address"
        },
        {
          "internalType": "uint256",
          "name": "count",
          "type": "uint256"
        }
      ],
      "name": "mintByRole",
      "outputs": [],
      "stateMutability": "nonpayable",
      "type": "function"
    },
    {
      "inputs": [
        {
          "internalType": "uint256",
          "name": "count",
          "type": "uint256"
        },
        {
          "internalType": "bytes32[]",
          "name": "proof",
          "type": "bytes32[]"
        }
      ],
      "name": "mintPreSale",
      "outputs": [],
      "stateMutability": "payable",
      "type": "function"
    },
    {
      "inputs": [
        {
          "internalType": "address",
          "name": "to",
          "type": "address"
        },
        {
          "internalType": "uint256",
          "name": "count",
          "type": "uint256"
        }
      ],
      "name": "mintPublicSale",
      "outputs": [],
      "stateMutability": "payable",
      "type": "function"
    },
    {
      "inputs": [],
      "name": "name",
      "outputs": [
        {
          "internalType": "string",
          "name": "",
          "type": "string"
        }
      ],
      "stateMutability": "view",
      "type": "function"
    },
    {
      "inputs": [
        {
          "internalType": "address",
          "name": "minter",
          "type": "address"
        },
        {
          "internalType": "bytes32[]",
          "name": "proof",
          "type": "bytes32[]"
        }
      ],
      "name": "onPreSaleAllowList",
      "outputs": [
        {
          "internalType": "bool",
          "name": "",
          "type": "bool"
        }
      ],
      "stateMutability": "view",
      "type": "function"
    },
    {
      "inputs": [],
      "name": "owner",
      "outputs": [
        {
          "internalType": "address",
          "name": "",
          "type": "address"
        }
      ],
      "stateMutability": "view",
      "type": "function"
    },
    {
      "inputs": [
        {
          "internalType": "uint256",
          "name": "tokenId",
          "type": "uint256"
        }
      ],
      "name": "ownerOf",
      "outputs": [
        {
          "internalType": "address",
          "name": "",
          "type": "address"
        }
      ],
      "stateMutability": "view",
      "type": "function"
    },
    {
      "inputs": [],
      "name": "placeholderURI",
      "outputs": [
        {
          "internalType": "string",
          "name": "",
          "type": "string"
        }
      ],
      "stateMutability": "view",
      "type": "function"
    },
    {
      "inputs": [],
      "name": "preSaleAllowlistMerkleRoot",
      "outputs": [
        {
          "internalType": "bytes32",
          "name": "",
          "type": "bytes32"
        }
      ],
      "stateMutability": "view",
      "type": "function"
    },
    {
      "inputs": [],
      "name": "preSaleMaxMintPerWallet",
      "outputs": [
        {
          "internalType": "uint256",
          "name": "",
          "type": "uint256"
        }
      ],
      "stateMutability": "view",
      "type": "function"
    },
    {
      "inputs": [],
      "name": "preSalePrice",
      "outputs": [
        {
          "internalType": "uint256",
          "name": "",
          "type": "uint256"
        }
      ],
      "stateMutability": "view",
      "type": "function"
    },
    {
      "inputs": [],
      "name": "preSaleStatus",
      "outputs": [
        {
          "internalType": "bool",
          "name": "",
          "type": "bool"
        }
      ],
      "stateMutability": "view",
      "type": "function"
    },
    {
      "inputs": [],
      "name": "publicSaleMaxMintPerTx",
      "outputs": [
        {
          "internalType": "uint256",
          "name": "",
          "type": "uint256"
        }
      ],
      "stateMutability": "view",
      "type": "function"
    },
    {
      "inputs": [],
      "name": "publicSalePrice",
      "outputs": [
        {
          "internalType": "uint256",
          "name": "",
          "type": "uint256"
        }
      ],
      "stateMutability": "view",
      "type": "function"
    },
    {
      "inputs": [],
      "name": "publicSaleStatus",
      "outputs": [
        {
          "internalType": "bool",
          "name": "",
          "type": "bool"
        }
      ],
      "stateMutability": "view",
      "type": "function"
    },
    {
      "inputs": [],
      "name": "renounceOwnership",
      "outputs": [],
      "stateMutability": "nonpayable",
      "type": "function"
    },
    {
      "inputs": [
        {
          "internalType": "bytes32",
          "name": "role",
          "type": "bytes32"
        },
        {
          "internalType": "address",
          "name": "account",
          "type": "address"
        }
      ],
      "name": "renounceRole",
      "outputs": [],
      "stateMutability": "nonpayable",
      "type": "function"
    },
    {
      "inputs": [
        {
          "internalType": "bytes32",
          "name": "role",
          "type": "bytes32"
        },
        {
          "internalType": "address",
          "name": "account",
          "type": "address"
        }
      ],
      "name": "revokeRole",
      "outputs": [],
      "stateMutability": "nonpayable",
      "type": "function"
    },
    {
      "inputs": [],
      "name": "revokeWithdrawPower",
      "outputs": [],
      "stateMutability": "nonpayable",
      "type": "function"
    },
    {
      "inputs": [
        {
          "internalType": "uint256",
          "name": "tokenId",
          "type": "uint256"
        },
        {
          "internalType": "uint256",
          "name": "value",
          "type": "uint256"
        }
      ],
      "name": "royaltyInfo",
      "outputs": [
        {
          "internalType": "address",
          "name": "",
          "type": "address"
        },
        {
          "internalType": "uint256",
          "name": "",
          "type": "uint256"
        }
      ],
      "stateMutability": "view",
      "type": "function"
    },
    {
      "inputs": [
        {
          "internalType": "address",
          "name": "from",
          "type": "address"
        },
        {
          "internalType": "address",
          "name": "to",
          "type": "address"
        },
        {
          "internalType": "uint256",
          "name": "tokenId",
          "type": "uint256"
        }
      ],
      "name": "safeTransferFrom",
      "outputs": [],
      "stateMutability": "nonpayable",
      "type": "function"
    },
    {
      "inputs": [
        {
          "internalType": "address",
          "name": "from",
          "type": "address"
        },
        {
          "internalType": "address",
          "name": "to",
          "type": "address"
        },
        {
          "internalType": "uint256",
          "name": "tokenId",
          "type": "uint256"
        },
        {
          "internalType": "bytes",
          "name": "data",
          "type": "bytes"
        }
      ],
      "name": "safeTransferFrom",
      "outputs": [],
      "stateMutability": "nonpayable",
      "type": "function"
    },
    {
      "inputs": [
        {
          "internalType": "bytes32",
          "name": "newRoot",
          "type": "bytes32"
        }
      ],
      "name": "setAllowlistMerkleRoot",
      "outputs": [],
      "stateMutability": "nonpayable",
      "type": "function"
    },
    {
      "inputs": [
        {
          "internalType": "address",
          "name": "operator",
          "type": "address"
        },
        {
          "internalType": "bool",
          "name": "approved",
          "type": "bool"
        }
      ],
      "name": "setApprovalForAll",
      "outputs": [],
      "stateMutability": "nonpayable",
      "type": "function"
    },
    {
      "inputs": [
        {
          "internalType": "string",
          "name": "newValue",
          "type": "string"
        }
      ],
      "name": "setContractURI",
      "outputs": [],
      "stateMutability": "nonpayable",
      "type": "function"
    },
    {
      "inputs": [
        {
          "components": [
            {
              "internalType": "address",
              "name": "recipient",
              "type": "address"
            },
            {
              "internalType": "uint16",
              "name": "bps",
              "type": "uint16"
            }
          ],
          "internalType": "struct IEIP2981RoyaltyOverride.TokenRoyalty",
          "name": "royalty",
          "type": "tuple"
        }
      ],
      "name": "setDefaultRoyalty",
      "outputs": [],
      "stateMutability": "nonpayable",
      "type": "function"
    },
    {
      "inputs": [
        {
          "internalType": "uint256",
          "name": "newValue",
          "type": "uint256"
        }
      ],
      "name": "setMaxSupply",
      "outputs": [],
      "stateMutability": "nonpayable",
      "type": "function"
    },
    {
      "inputs": [
        {
          "internalType": "string",
          "name": "newValue",
          "type": "string"
        }
      ],
      "name": "setPlaceholderURI",
      "outputs": [],
      "stateMutability": "nonpayable",
      "type": "function"
    },
    {
      "inputs": [
        {
          "internalType": "uint256",
          "name": "newValue",
          "type": "uint256"
        }
      ],
      "name": "setPreSaleMaxMintPerWallet",
      "outputs": [],
      "stateMutability": "nonpayable",
      "type": "function"
    },
    {
      "inputs": [
        {
          "internalType": "uint256",
          "name": "newValue",
          "type": "uint256"
        }
      ],
      "name": "setPreSalePrice",
      "outputs": [],
      "stateMutability": "nonpayable",
      "type": "function"
    },
    {
      "inputs": [
        {
          "internalType": "uint256",
          "name": "newValue",
          "type": "uint256"
        }
      ],
      "name": "setPublicSaleMaxMintPerTx",
      "outputs": [],
      "stateMutability": "nonpayable",
      "type": "function"
    },
    {
      "inputs": [
        {
          "internalType": "uint256",
          "name": "newValue",
          "type": "uint256"
        }
      ],
      "name": "setPublicSalePrice",
      "outputs": [],
      "stateMutability": "nonpayable",
      "type": "function"
    },
    {
      "inputs": [
        {
          "components": [
            {
              "internalType": "uint256",
              "name": "tokenId",
              "type": "uint256"
            },
            {
              "internalType": "address",
              "name": "recipient",
              "type": "address"
            },
            {
              "internalType": "uint16",
              "name": "bps",
              "type": "uint16"
            }
          ],
          "internalType": "struct IEIP2981RoyaltyOverride.TokenRoyaltyConfig[]",
          "name": "royaltyConfigs",
          "type": "tuple[]"
        }
      ],
      "name": "setTokenRoyalties",
      "outputs": [],
      "stateMutability": "nonpayable",
      "type": "function"
    },
    {
      "inputs": [
        {
          "internalType": "string",
          "name": "newValue",
          "type": "string"
        }
      ],
      "name": "setTokenURIPrefix",
      "outputs": [],
      "stateMutability": "nonpayable",
      "type": "function"
    },
    {
      "inputs": [
        {
          "internalType": "string",
          "name": "newValue",
          "type": "string"
        }
      ],
      "name": "setTokenURISuffix",
      "outputs": [],
      "stateMutability": "nonpayable",
      "type": "function"
    },
    {
      "inputs": [
        {
          "internalType": "address",
          "name": "trustedForwarder",
          "type": "address"
        }
      ],
      "name": "setTrustedForwarder",
      "outputs": [],
      "stateMutability": "nonpayable",
      "type": "function"
    },
    {
      "inputs": [
        {
          "internalType": "enum WithdrawMode",
          "name": "_withdrawMode",
          "type": "uint8"
        }
      ],
      "name": "setWithdrawMode",
      "outputs": [],
      "stateMutability": "nonpayable",
      "type": "function"
    },
    {
      "inputs": [
        {
          "internalType": "address",
          "name": "_withdrawRecipient",
          "type": "address"
        }
      ],
      "name": "setWithdrawRecipient",
      "outputs": [],
      "stateMutability": "nonpayable",
      "type": "function"
    },
    {
      "inputs": [
        {
          "internalType": "bytes4",
          "name": "interfaceId",
          "type": "bytes4"
        }
      ],
      "name": "supportsInterface",
      "outputs": [
        {
          "internalType": "bool",
          "name": "",
          "type": "bool"
        }
      ],
      "stateMutability": "view",
      "type": "function"
    },
    {
      "inputs": [],
      "name": "symbol",
      "outputs": [
        {
          "internalType": "string",
          "name": "",
          "type": "string"
        }
      ],
      "stateMutability": "view",
      "type": "function"
    },
    {
      "inputs": [
        {
          "internalType": "bool",
          "name": "isActive",
          "type": "bool"
        }
      ],
      "name": "togglePreSaleStatus",
      "outputs": [],
      "stateMutability": "nonpayable",
      "type": "function"
    },
    {
      "inputs": [
        {
          "internalType": "bool",
          "name": "isActive",
          "type": "bool"
        }
      ],
      "name": "togglePublicSaleStatus",
      "outputs": [],
      "stateMutability": "nonpayable",
      "type": "function"
    },
    {
      "inputs": [
        {
          "internalType": "uint256",
          "name": "_tokenId",
          "type": "uint256"
        }
      ],
      "name": "tokenURI",
      "outputs": [
        {
          "internalType": "string",
          "name": "",
          "type": "string"
        }
      ],
      "stateMutability": "view",
      "type": "function"
    },
    {
      "inputs": [],
      "name": "tokenURIFrozen",
      "outputs": [
        {
          "internalType": "bool",
          "name": "",
          "type": "bool"
        }
      ],
      "stateMutability": "view",
      "type": "function"
    },
    {
      "inputs": [],
      "name": "tokenURIPrefix",
      "outputs": [
        {
          "internalType": "string",
          "name": "",
          "type": "string"
        }
      ],
      "stateMutability": "view",
      "type": "function"
    },
    {
      "inputs": [],
      "name": "tokenURISuffix",
      "outputs": [
        {
          "internalType": "string",
          "name": "",
          "type": "string"
        }
      ],
      "stateMutability": "view",
      "type": "function"
    },
    {
      "inputs": [],
      "name": "totalSupply",
      "outputs": [
        {
          "internalType": "uint256",
          "name": "",
          "type": "uint256"
        }
      ],
      "stateMutability": "view",
      "type": "function"
    },
    {
      "inputs": [
        {
          "internalType": "address",
          "name": "from",
          "type": "address"
        },
        {
          "internalType": "address",
          "name": "to",
          "type": "address"
        },
        {
          "internalType": "uint256",
          "name": "tokenId",
          "type": "uint256"
        }
      ],
      "name": "transferFrom",
      "outputs": [],
      "stateMutability": "nonpayable",
      "type": "function"
    },
    {
      "inputs": [
        {
          "internalType": "address",
          "name": "from",
          "type": "address"
        },
        {
          "internalType": "address",
          "name": "to",
          "type": "address"
        },
        {
          "internalType": "uint256[]",
          "name": "tokenIds",
          "type": "uint256[]"
        }
      ],
      "name": "transferFromBulk",
      "outputs": [],
      "stateMutability": "nonpayable",
      "type": "function"
    },
    {
      "inputs": [
        {
          "internalType": "address[]",
          "name": "from",
          "type": "address[]"
        },
        {
          "internalType": "address[]",
          "name": "to",
          "type": "address[]"
        },
        {
          "internalType": "uint256[]",
          "name": "tokenIds",
          "type": "uint256[]"
        }
      ],
      "name": "transferFromBulk",
      "outputs": [],
      "stateMutability": "nonpayable",
      "type": "function"
    },
    {
      "inputs": [
        {
          "internalType": "address",
          "name": "newOwner",
          "type": "address"
        }
      ],
      "name": "transferOwnership",
      "outputs": [],
      "stateMutability": "nonpayable",
      "type": "function"
    },
    {
      "inputs": [
        {
          "internalType": "uint256[]",
          "name": "tokenIds",
          "type": "uint256[]"
        }
      ],
      "name": "unlock",
      "outputs": [],
      "stateMutability": "nonpayable",
      "type": "function"
    },
    {
      "inputs": [
        {
          "internalType": "uint256",
          "name": "tokenId",
          "type": "uint256"
        }
      ],
      "name": "unlock",
      "outputs": [],
      "stateMutability": "nonpayable",
      "type": "function"
    },
    {
      "inputs": [
        {
          "internalType": "address[]",
          "name": "claimTokens",
          "type": "address[]"
        },
        {
          "internalType": "uint256[]",
          "name": "amounts",
          "type": "uint256[]"
        }
      ],
      "name": "withdraw",
      "outputs": [],
      "stateMutability": "nonpayable",
      "type": "function"
    },
    {
      "inputs": [],
      "name": "withdrawMode",
      "outputs": [
        {
          "internalType": "enum WithdrawMode",
          "name": "",
          "type": "uint8"
        }
      ],
      "stateMutability": "view",
      "type": "function"
    },
    {
      "inputs": [],
      "name": "withdrawModeLocked",
      "outputs": [
        {
          "internalType": "bool",
          "name": "",
          "type": "bool"
        }
      ],
      "stateMutability": "view",
      "type": "function"
    },
    {
      "inputs": [],
      "name": "withdrawPowerRevoked",
      "outputs": [
        {
          "internalType": "bool",
          "name": "",
          "type": "bool"
        }
      ],
      "stateMutability": "view",
      "type": "function"
    },
    {
      "inputs": [],
      "name": "withdrawRecipient",
      "outputs": [
        {
          "internalType": "address",
          "name": "",
          "type": "address"
        }
      ],
      "stateMutability": "view",
      "type": "function"
    },
    {
      "inputs": [],
      "name": "withdrawRecipientLocked",
      "outputs": [
        {
          "internalType": "bool",
          "name": "",
          "type": "bool"
        }
      ],
      "stateMutability": "view",
      "type": "function"
    }
  ],
  "transactionHash": "0x5e4ec3626d78c898ef291932ac567baccd4fbdbb174a40016296c6693eed7a0e",
  "args": [
    {
      "name": "Collection",
      "symbol": "COL",
      "contractURI": "ipfs://contractURI",
      "placeholderURI": "ipfs://placeholderURI",
      "tokenURIPrefix": "ipfs://tokenURIPrefix/",
      "maxSupply": 0,
      "preSalePrice": 0,
      "preSaleMaxMintPerWallet": 0,
      "publicSalePrice": 0,
      "publicSaleMaxMintPerTx": 10,
      "defaultRoyaltyAddress": "0x0000000000000000000000000000000000000000",
      "defaultRoyaltyBps": 0,
      "proceedsRecipient": "0x0000000000000000000000000000000000000000",
      "trustedForwarder": "0x0000000000000000000000000000000000000000"
    }
  ],
  "numDeployments": 4,
  "solcInputHash": "7e8d96f5b19322abdd3676f90e4578c3",
  "bytecode": "0x608060405260006012553480156200001657600080fd5b506040516200683838038062006838833981016040819052620000399162000da5565b80516020820151620000546200004e6200008c565b620000a8565b600362000062838262000fd2565b50600462000071828262000fd2565b505060016013555062000085813362000103565b50620010ff565b6000620000a36200032760201b620028ba1760201c565b905090565b600080546001600160a01b038381166201000081810262010000600160b01b0319851617855560405193049190911692909183917f8be0079c531659141344cd1fd0a4f28419497f9722a3daafe3b4186f6b6457e091a35050565b600054610100900460ff1615808015620001245750600054600160ff909116105b8062000154575062000141306200035f60201b620028dc1760201c565b15801562000154575060005460ff166001145b620001bd5760405162461bcd60e51b815260206004820152602e60248201527f496e697469616c697a61626c653a20636f6e747261637420697320616c72656160448201526d191e481a5b9a5d1a585b1a5e995960921b60648201526084015b60405180910390fd5b6000805460ff191660011790558015620001e1576000805461ff0019166101001790555b620001ee6000836200036e565b620001f982620000a8565b6101808301516200020c9060026200037e565b82516020840151604085015162000225929190620003b4565b6200023f83606001518460800151620003eb60201b60201c565b60a08301516200024f9062000421565b6200025962000459565b62000264826200048f565b6200026e620004c4565b620002888360c001518460e00151620004f860201b60201c565b620002a48361010001518461012001516200053f60201b60201c565b620002c08361014001518461016001516200057560201b60201c565b6101a0830151620002d190620005ab565b620002db620005e0565b801562000322576000805461ff0019169055604051600181527f7f26b83ff96e1f2b6a682f133852f6798a09c465da95921460cefb38474024989060200160405180910390a15b505050565b6022546000906001600160a01b031633036200034a575060131936013560601c90565b620000a36200061460201b620028eb1760201c565b6001600160a01b03163b151590565b6200037a828262000618565b5050565b600054610100900460ff16620003a85760405162461bcd60e51b8152600401620001b4906200109e565b6200037a8282620006be565b600054610100900460ff16620003de5760405162461bcd60e51b8152600401620001b4906200109e565b620003228383836200074a565b600054610100900460ff16620004155760405162461bcd60e51b8152600401620001b4906200109e565b6200037a8282620007d7565b600054610100900460ff166200044b5760405162461bcd60e51b8152600401620001b4906200109e565b62000456816200086f565b50565b600054610100900460ff16620004835760405162461bcd60e51b8152600401620001b4906200109e565b6200048d620008c2565b565b600054610100900460ff16620004b95760405162461bcd60e51b8152600401620001b4906200109e565b6200045681620008fe565b600054610100900460ff16620004ee5760405162461bcd60e51b8152600401620001b4906200109e565b6200048d62000966565b600054610100900460ff16620005225760405162461bcd60e51b8152600401620001b4906200109e565b6200053463209680f760e11b6200099d565b601491909155601555565b600054610100900460ff16620005695760405162461bcd60e51b8152600401620001b4906200109e565b6200037a828262000a21565b600054610100900460ff166200059f5760405162461bcd60e51b8152600401620001b4906200109e565b6200037a828262000a68565b600054610100900460ff16620005d55760405162461bcd60e51b8152600401620001b4906200109e565b620004568162000b05565b600054610100900460ff166200060a5760405162461bcd60e51b8152600401620001b4906200109e565b6200048d62000b51565b3390565b6000828152601d602090815260408083206001600160a01b038516845290915290205460ff166200037a576000828152601d602090815260408083206001600160a01b03851684529091529020805460ff191660011790556200067a6200008c565b6001600160a01b0316816001600160a01b0316837f2f8788117e7eff1d82e926ec794901d17c78024a50270940304540a733656f0d60405160405180910390a45050565b600054610100900460ff16620006e85760405162461bcd60e51b8152600401620001b4906200109e565b620006fa63ac2ba33360e01b6200099d565b600280546001600160a01b0384166001600160a01b0319821681178355839291600162ff000160a01b03191617600160b01b836003811115620007415762000741620010e9565b02179055505050565b600054610100900460ff16620007745760405162461bcd60e51b8152600401620001b4906200109e565b600d62000782848262000fd2565b50600e62000791838262000fd2565b50600f620007a0828262000fd2565b50620007b3633d96f4ff60e11b6200099d565b620007c56380ac58cd60e01b6200099d565b62000322635b5e139f60e01b6200099d565b600054610100900460ff16620008015760405162461bcd60e51b8152600401620001b4906200109e565b60096200080f838262000fd2565b50600a6200081e828262000fd2565b50604080518082019091526005815264173539b7b760d91b6020820152600b906200084a908262000fd2565b506200085d631f2f406b60e01b6200099d565b6200037a635b5e139f60e01b6200099d565b600054610100900460ff16620008995760405162461bcd60e51b8152600401620001b4906200109e565b6010819055620008b06330f487b560e11b6200099d565b620004566380ac58cd60e01b6200099d565b600054610100900460ff16620008ec5760405162461bcd60e51b8152600401620001b4906200109e565b6200048d631aa1577160e11b6200099d565b600054610100900460ff16620009285760405162461bcd60e51b8152600401620001b4906200109e565b6200093a631a056e7160e01b6200099d565b620004567f9f2df0fed2c77648de5860a4cc508cd0818c85b8b8a1ab4ceeef8d981c8956a6826200036e565b600054610100900460ff16620009905760405162461bcd60e51b8152600401620001b4906200109e565b6200048d63714ad8e760e01b5b6001600160e01b03198082169003620009f95760405162461bcd60e51b815260206004820152601c60248201527f4552433136353a20696e76616c696420696e74657266616365206964000000006044820152606401620001b4565b6001600160e01b0319166000908152600160208190526040909120805460ff19169091179055565b600054610100900460ff1662000a4b5760405162461bcd60e51b8152600401620001b4906200109e565b62000a5d6317e0bac360e31b6200099d565b601991909155601a55565b600054610100900460ff1662000a925760405162461bcd60e51b8152600401620001b4906200109e565b62000aa4633a47bf5160e11b6200099d565b62000ab663152a902d60e11b6200099d565b62000ac863c69dbd8f60e01b6200099d565b62000ada63656cb66560e11b6200099d565b604080518082019091526001600160a01b038316815261ffff82166020820152620003228162000b8d565b600054610100900460ff1662000b2f5760405162461bcd60e51b8152600401620001b4906200109e565b602280546001600160a01b0319166001600160a01b0392909216919091179055565b600054610100900460ff1662000b7b5760405162461bcd60e51b8152600401620001b4906200109e565b6200048d632a7c3e4960e01b6200099d565b612710816020015161ffff161062000bd65760405162461bcd60e51b815260206004820152600b60248201526a496e76616c69642062707360a81b6044820152606401620001b4565b60408051808201825282516001600160a01b03168082526020808501805161ffff1691909301819052601e8054600160a01b9092026001600160b01b03199092169092171790558251905191517f2c5ea6e4103e78cb101e796fb2dace540362fc542cbff5145eaa24af7dd8fe419262000c6892916001600160a01b0392909216825261ffff16602082015260400190565b60405180910390a150565b634e487b7160e01b600052604160045260246000fd5b6040516101c081016001600160401b038111828210171562000caf5762000caf62000c73565b60405290565b604051601f8201601f191681016001600160401b038111828210171562000ce05762000ce062000c73565b604052919050565b600082601f83011262000cfa57600080fd5b81516001600160401b0381111562000d165762000d1662000c73565b602062000d2c601f8301601f1916820162000cb5565b828152858284870101111562000d4157600080fd5b60005b8381101562000d6157858101830151828201840152820162000d44565b506000928101909101919091529392505050565b80516001600160a01b038116811462000d8d57600080fd5b919050565b805161ffff8116811462000d8d57600080fd5b60006020828403121562000db857600080fd5b81516001600160401b038082111562000dd057600080fd5b908301906101c0828603121562000de657600080fd5b62000df062000c89565b82518281111562000e0057600080fd5b62000e0e8782860162000ce8565b82525060208301518281111562000e2457600080fd5b62000e328782860162000ce8565b60208301525060408301518281111562000e4b57600080fd5b62000e598782860162000ce8565b60408301525060608301518281111562000e7257600080fd5b62000e808782860162000ce8565b60608301525060808301518281111562000e9957600080fd5b62000ea78782860162000ce8565b60808301525060a0838101519082015260c0808401519082015260e0808401519082015261010080840151908201526101208084015190820152610140915062000ef382840162000d75565b82820152610160915062000f0982840162000d92565b82820152610180915062000f1f82840162000d75565b828201526101a0915062000f3582840162000d75565b91810191909152949350505050565b600181811c9082168062000f5957607f821691505b60208210810362000f7a57634e487b7160e01b600052602260045260246000fd5b50919050565b601f8211156200032257600081815260208120601f850160051c8101602086101562000fa95750805b601f850160051c820191505b8181101562000fca5782815560010162000fb5565b505050505050565b81516001600160401b0381111562000fee5762000fee62000c73565b620010068162000fff845462000f44565b8462000f80565b602080601f8311600181146200103e5760008415620010255750858301515b600019600386901b1c1916600185901b17855562000fca565b600085815260208120601f198616915b828110156200106f578886015182559484019460019091019084016200104e565b50858210156200108e5787850151600019600388901b60f8161c191681555b5050505050600190811b01905550565b6020808252602b908201527f496e697469616c697a61626c653a20636f6e7472616374206973206e6f74206960408201526a6e697469616c697a696e6760a81b606082015260800190565b634e487b7160e01b600052602160045260246000fd5b615729806200110f6000396000f3fe6080604052600436106104215760003560e01c8063837fe14011610221578063c723955a1161012a578063c723955a14610ca3578063c87b56dd14610cb8578063cad96cca14610cd8578063d539139314610d05578063d547741f14610d27578063d5abeb0114610d47578063d79ff99d14610d5d578063da74222814610d70578063da82b22714610d90578063dbbc853b14610da5578063dcbe353f14610dba578063dd46706414610dda578063de6d6d9614610dfa578063e3b9a7e514610e1a578063e757c17d14610e3a578063e8a3d48514610e50578063e985e9c514610e65578063ef60ceaf14610e85578063f2fde38b14610ea5578063f362136714610ec5578063f384702f14610ee7578063f74bbf5914610f01578063f95df41414610f2157600080fd5b8063837fe14014610a5b578063859610c614610a705780638da5cb5b14610a9057806391d1485414610aa5578063938e3d7b14610ac557806395d89b4114610ae557806399e0dd7c14610afa5780639b6860c814610b1a5780639e6b2c5b14610b30578063a217fddf14610b43578063a22cb46514610b58578063a9852bfb14610b78578063aaeaca4814610b98578063af121f5414610bae578063b27c6f2d14610bcf578063b45a3c0e14610be5578063b6c693e514610c05578063b88d4fde14610c1f578063ba4695fd14610c3f578063c0ac998314610c54578063c0bb38ff14610c69578063c29de63014610c8957600080fd5b80633c0e8f2c1161032e5780633c0e8f2c1461074e57806342842e0e1461076e578063464bd6401461078e57806349561cb9146107a85780634f972f5f146107c95780635136dcc7146107e957806356c022bb14610809578063572b6c05146108295780635a9b0b89146108495780635d36598f146108ac5780636057e0ec146108cc5780636198e339146108ed5780636352211e1461090d5780636ba572fc1461092d5780636f8b44b01461094d57806370a082311461096d578063714ad8e71461098d578063715018a6146109a15780637313cba9146109b65780637885fdc7146109cb578063791a251914610a065780637d7eee4214610a265780637e98034214610a4657600080fd5b806301ffc9a714610426578063059fb6f71461045b5780630653aca51461047d57806306fdde03146104cc578063081812fc146104ee578063095ea7b31461051b578063167446071461053b57806318160ddd146105505780631a056e711461056f57806323b872dd1461058f578063248a9ca3146105af5780632a55205a146105cf5780632bb684ad146105fd5780632c2330671461062a5780632d00b5871461064a5780632d8e85b0146106785780632f2ff15d146106985780632fe388be146106b85780633542aee2146106d85780633574a2dd146106f857806336568abe146107185780633acf404d14610738575b600080fd5b34801561043257600080fd5b50610446610441366004614511565b610f41565b60405190151581526020015b60405180910390f35b34801561046757600080fd5b5061047b610476366004614647565b610f52565b005b34801561048957600080fd5b5061049d6104983660046146a4565b610ff2565b60408051825181526020808401516001600160a01b0316908201529181015161ffff1690820152606001610452565b3480156104d857600080fd5b506104e1611079565b604051610452919061470d565b3480156104fa57600080fd5b5061050e6105093660046146a4565b611088565b6040516104529190614720565b34801561052757600080fd5b5061047b610536366004614734565b6110af565b34801561054757600080fd5b5061047b6111db565b34801561055c57600080fd5b506012545b604051908152602001610452565b34801561057b57600080fd5b5061047b61058a366004614734565b6111f2565b34801561059b57600080fd5b5061047b6105aa36600461475e565b611258565b3480156105bb57600080fd5b506105616105ca3660046146a4565b611290565b3480156105db57600080fd5b506105ef6105ea36600461479a565b6112a5565b6040516104529291906147bc565b34801561060957600080fd5b5061061d610618366004614819565b61136a565b604051610452919061485a565b34801561063657600080fd5b5061047b61064536600461489e565b611434565b34801561065657600080fd5b5060025461066b90600160b01b900460ff1681565b60405161045291906148d5565b34801561068457600080fd5b5061047b61069336600461490b565b611493565b3480156106a457600080fd5b5061047b6106b3366004614928565b6114ae565b3480156106c457600080fd5b5061047b6106d33660046149b6565b6114ca565b3480156106e457600080fd5b5061047b6106f3366004614734565b61162f565b34801561070457600080fd5b5061047b610713366004614aaa565b611637565b34801561072457600080fd5b5061047b610733366004614928565b61164b565b34801561074457600080fd5b5061056160165481565b34801561075a57600080fd5b5061047b6107693660046146a4565b6116d5565b34801561077a57600080fd5b5061047b61078936600461475e565b6116e2565b34801561079a57600080fd5b506017546104469060ff1681565b3480156107b457600080fd5b5060025461044690600160b81b900460ff1681565b3480156107d557600080fd5b5061047b6107e436600461490b565b6116fd565b3480156107f557600080fd5b5061047b610804366004614ade565b611718565b34801561081557600080fd5b5060225461050e906001600160a01b031681565b34801561083557600080fd5b50610446610844366004614b52565b61177b565b34801561085557600080fd5b5061085e61178f565b604080519a8b5260208b0199909952978901969096526060880194909452608087019290925260a0860152151560c085015260e0840152610100830152151561012082015261014001610452565b3480156108b857600080fd5b5061047b6108c7366004614819565b611900565b3480156108d857600080fd5b5060025461044690600160a01b900460ff1681565b3480156108f957600080fd5b5061047b6109083660046146a4565b6119a3565b34801561091957600080fd5b5061050e6109283660046146a4565b611a0f565b34801561093957600080fd5b5061047b610948366004614b7f565b611a44565b34801561095957600080fd5b5061047b6109683660046146a4565b611c18565b34801561097957600080fd5b50610561610988366004614b52565b611c8e565b34801561099957600080fd5b506001610446565b3480156109ad57600080fd5b5061047b611d14565b3480156109c257600080fd5b506104e1611d28565b3480156109d757600080fd5b50601e546109f8906001600160a01b03811690600160a01b900461ffff1682565b604051610452929190614d0a565b348015610a1257600080fd5b5061047b610a213660046146a4565b611dba565b348015610a3257600080fd5b5061047b610a413660046146a4565b611dc7565b348015610a5257600080fd5b50610561611dd4565b348015610a6757600080fd5b5061047b611de0565b348015610a7c57600080fd5b5061047b610a8b366004614819565b611e27565b348015610a9c57600080fd5b5061050e611ec0565b348015610ab157600080fd5b50610446610ac0366004614928565b611ed5565b348015610ad157600080fd5b5061047b610ae0366004614aaa565b611f00565b348015610af157600080fd5b506104e1611f14565b348015610b0657600080fd5b5061047b610b15366004614aaa565b611f1e565b348015610b2657600080fd5b5061056160195481565b61047b610b3e366004614d27565b611f55565b348015610b4f57600080fd5b50610561600081565b348015610b6457600080fd5b5061047b610b73366004614d72565b612120565b348015610b8457600080fd5b5061047b610b93366004614aaa565b612132565b348015610ba457600080fd5b5061056160155481565b348015610bba57600080fd5b5060025461044690600160a81b900460ff1681565b348015610bdb57600080fd5b50610561601a5481565b348015610bf157600080fd5b50610446610c003660046146a4565b612169565b348015610c1157600080fd5b50601b546104469060ff1681565b348015610c2b57600080fd5b5061047b610c3a366004614da9565b612176565b348015610c4b57600080fd5b5061047b6121af565b348015610c6057600080fd5b506104e16121c6565b348015610c7557600080fd5b5061047b610c84366004614b52565b6121d5565b348015610c9557600080fd5b50600c546104469060ff1681565b348015610caf57600080fd5b5061047b612229565b348015610cc457600080fd5b506104e1610cd33660046146a4565b612288565b348015610ce457600080fd5b50610cf8610cf33660046146a4565b612293565b6040516104529190614e24565b348015610d1157600080fd5b506105616000805160206156b483398151915281565b348015610d3357600080fd5b5061047b610d42366004614928565b61234e565b348015610d5357600080fd5b5061056160105481565b61047b610d6b366004614734565b61236a565b348015610d7c57600080fd5b5061047b610d8b366004614b52565b612462565b348015610d9c57600080fd5b5061047b61248c565b348015610db157600080fd5b506104e16124d2565b348015610dc657600080fd5b5060025461050e906001600160a01b031681565b348015610de657600080fd5b5061047b610df53660046146a4565b6124e1565b348015610e0657600080fd5b5061047b610e15366004614e85565b612545565b348015610e2657600080fd5b50610446610e35366004614ef0565b61277d565b348015610e4657600080fd5b5061056160145481565b348015610e5c57600080fd5b506104e16127cb565b348015610e7157600080fd5b50610446610e80366004614f29565b6127da565b348015610e9157600080fd5b5061047b610ea0366004614f53565b612808565b348015610eb157600080fd5b5061047b610ec0366004614b52565b61282a565b348015610ed157600080fd5b506105616000805160206156d483398151915281565b348015610ef357600080fd5b506011546104469060ff1681565b348015610f0d57600080fd5b5061047b610f1c3660046146a4565b6128a0565b348015610f2d57600080fd5b5061047b610f3c3660046146a4565b6128ad565b6000610f4c826128ef565b92915050565b60005b8151811015610fec57306001600160a01b03166323b872dd8585858581518110610f8157610f81614f6b565b60200260200101516040518463ffffffff1660e01b8152600401610fa793929190614f81565b600060405180830381600087803b158015610fc157600080fd5b505af1158015610fd5573d6000803e3d6000fd5b505050508080610fe490614fbb565b915050610f55565b50505050565b6040805160608101825260008082526020820181905291810191909152600061101c60208461292b565b6000818152601f60209081526040918290208251808401845290546001600160a01b03808216835261ffff600160a01b90920482168385019081528551606081018752968752925116928501929092525116908201529392505050565b606061108361293e565b905090565b60006110938261294d565b506000908152600760205260409020546001600160a01b031690565b60006110ba82611a0f565b9050806001600160a01b0316836001600160a01b03160361112c5760405162461bcd60e51b815260206004820152602160248201527f4552433732313a20617070726f76616c20746f2063757272656e74206f776e656044820152603960f91b60648201526084015b60405180910390fd5b806001600160a01b031661113e612972565b6001600160a01b0316148061115a575061115a81610e80612972565b6111cc5760405162461bcd60e51b815260206004820152603e60248201527f4552433732313a20617070726f76652063616c6c6572206973206e6f7420746f60448201527f6b656e206f776e6572206e6f7220617070726f76656420666f7220616c6c00006064820152608401611123565b6111d6838361297c565b505050565b6111e36129ea565b6011805460ff19166001179055565b61120c6000805160206156b4833981519152610ac0612972565b61124a5760405162461bcd60e51b815260206004820152600f60248201526e4e4f545f4d494e5445525f524f4c4560881b6044820152606401611123565b6112548282612a59565b5050565b611269611263612972565b82612ae2565b6112855760405162461bcd60e51b815260040161112390614fd4565b6111d6838383612b40565b6000908152601d602052604090206001015490565b6000828152601f602052604081205481906001600160a01b03161561130a576000848152601f60205260409020546001600160a01b03811690612710906112f790600160a01b900461ffff1686615022565b6113019190615057565b91509150611363565b601e546001600160a01b0316158015906113305750601e54600160a01b900461ffff1615155b1561135c57601e546001600160a01b03811690612710906112f790600160a01b900461ffff1686615022565b5060009050805b9250929050565b60606000826001600160401b038111156113865761138661454a565b6040519080825280602002602001820160405280156113af578160200160208202803683370190505b50905060005b8381101561142c576113de8585838181106113d2576113d2614f6b565b90506020020135612169565b61141a578484828181106113f4576113f4614f6b565b9050602002013582828151811061140d5761140d614f6b565b6020026020010181815250505b8061142481614fbb565b9150506113b5565b509392505050565b61143c6129ea565b600254600160b81b900460ff16156114665760405162461bcd60e51b81526004016111239061506b565b6002805482919060ff60b01b1916600160b01b83600381111561148b5761148b6148bf565b021790555050565b61149b6129ea565b601b805460ff1916911515919091179055565b6114b782611290565b6114c081612ce7565b6111d68383612cf8565b81518351146115155760405162461bcd60e51b815260206004820152601760248201527608ca49e9abea89ebe988a9c8ea890be9a92a69a82a8869604b1b6044820152606401611123565b80518351146115635760405162461bcd60e51b815260206004820152601a60248201527908ca49e9abea89e968a9cbe988a9c8ea890be9a92a69a82a886960331b6044820152606401611123565b60005b8151811015610fec57306001600160a01b03166323b872dd85838151811061159057611590614f6b565b60200260200101518584815181106115aa576115aa614f6b565b60200260200101518585815181106115c4576115c4614f6b565b60200260200101516040518463ffffffff1660e01b81526004016115ea93929190614f81565b600060405180830381600087803b15801561160457600080fd5b505af1158015611618573d6000803e3d6000fd5b50505050808061162790614fbb565b915050611566565b61124a6129ea565b61163f6129ea565b6009611254828261510d565b611653612972565b6001600160a01b0316816001600160a01b0316146116cb5760405162461bcd60e51b815260206004820152602f60248201527f416363657373436f6e74726f6c3a2063616e206f6e6c792072656e6f756e636560448201526e103937b632b9903337b91039b2b63360891b6064820152608401611123565b6112548282612d7f565b6116dd6129ea565b601a55565b6111d683838360405180602001604052806000815250612176565b6117056129ea565b6017805460ff1916911515919091179055565b6117206129ea565b6112548282808060200260200160405190810160405280939291908181526020016000905b8282101561177157611762606083028601368190038101906151cc565b81526020019060010190611745565b5050505050612e04565b6022546001600160a01b0391821691161490565b600080808080808080808080806117a4612972565b6001600160a01b03161461182057306370a082316117c0612972565b6040518263ffffffff1660e01b81526004016117dc9190614720565b602060405180830381865afa1580156117f9573d6000803e3d6000fd5b505050506040513d601f19601f8201168201806040525081019061181d9190615230565b90505b601054306001600160a01b03166318160ddd6040518163ffffffff1660e01b8152600401602060405180830381865afa158015611861573d6000803e3d6000fd5b505050506040513d601f19601f820116820180604052508101906118859190615230565b8260145460155460186000611898612972565b6001600160a01b03166001600160a01b0316815260200190815260200160002054601760009054906101000a900460ff16601954601a54601b60009054906101000a900460ff169a509a509a509a509a509a509a509a509a509a505090919293949596979899565b6002601354036119225760405162461bcd60e51b815260040161112390615249565b600260135561193f6000805160206156d483398151915233611ed5565b61195b5760405162461bcd60e51b815260040161112390615280565b60005b818110156119995761198783838381811061197b5761197b614f6b565b90506020020135612fa9565b8061199181614fbb565b91505061195e565b5050600160135550565b6002601354036119c55760405162461bcd60e51b815260040161112390615249565b60026013556119e26000805160206156d483398151915233611ed5565b6119fe5760405162461bcd60e51b815260040161112390615280565b611a0781612fa9565b506001601355565b6000818152600560205260408120546001600160a01b031680610f4c5760405162461bcd60e51b8152600401611123906152a9565b600054610100900460ff1615808015611a645750600054600160ff909116105b80611a855750611a73306128dc565b158015611a85575060005460ff166001145b611ae85760405162461bcd60e51b815260206004820152602e60248201527f496e697469616c697a61626c653a20636f6e747261637420697320616c72656160448201526d191e481a5b9a5d1a585b1a5e995960921b6064820152608401611123565b6000805460ff191660011790558015611b0b576000805461ff0019166101001790555b611b16600083613010565b611b1f8261301a565b611b2f8361018001516002613075565b611b468360000151846020015185604001516130a6565b611b58836060015184608001516130d8565b611b658360a00151613109565b611b6d613139565b611b7682613168565b611b7e613198565b611b908360c001518460e001516131c7565b611ba4836101000151846101200151613209565b611bb883610140015184610160015161323a565b611bc6836101a0015161326b565b611bce61329b565b80156111d6576000805461ff0019169055604051600181527f7f26b83ff96e1f2b6a682f133852f6798a09c465da95921460cefb38474024989060200160405180910390a1505050565b611c206129ea565b60115460ff1615611c435760405162461bcd60e51b8152600401611123906152db565b601254811015611c895760405162461bcd60e51b81526020600482015260116024820152704c4f5745525f5448414e5f535550504c5960781b6044820152606401611123565b601055565b60006001600160a01b038216611cf85760405162461bcd60e51b815260206004820152602960248201527f4552433732313a2061646472657373207a65726f206973206e6f7420612076616044820152683634b21037bbb732b960b91b6064820152608401611123565b506001600160a01b031660009081526006602052604090205490565b611d1c6129ea565b611d26600061301a565b565b606060098054611d379061508b565b80601f0160208091040260200160405190810160405280929190818152602001828054611d639061508b565b8015611db05780601f10611d8557610100808354040283529160200191611db0565b820191906000526020600020905b815481529060010190602001808311611d9357829003601f168201915b5050505050905090565b611dc26129ea565b601955565b611dcf6129ea565b601455565b600061108360206132ca565b611de86129ea565b600254600160a01b900460ff1615611e125760405162461bcd60e51b81526004016111239061506b565b6002805460ff60a01b1916600160a01b179055565b600260135403611e495760405162461bcd60e51b815260040161112390615249565b6002601355611e666000805160206156d483398151915233611ed5565b611e825760405162461bcd60e51b815260040161112390615280565b60005b8181101561199957611eae838383818110611ea257611ea2614f6b565b905060200201356132d4565b80611eb881614fbb565b915050611e85565b6000546201000090046001600160a01b031690565b6000918252601d602090815260408084206001600160a01b0393909316845291905290205460ff1690565b611f086129ea565b600f611254828261510d565b606061108361331e565b611f266129ea565b600c5460ff1615611f495760405162461bcd60e51b8152600401611123906152db565b600a611254828261510d565b600260135403611f775760405162461bcd60e51b815260040161112390615249565b600260135560175460ff16611fbb5760405162461bcd60e51b815260206004820152600a6024820152694e4f545f41435449564560b01b6044820152606401611123565b6000611fc5612972565b905061201083838080602002602001604051908101604052809392919081815260200183836020028082843760009201919091525050601654915061200b90508461332d565b613367565b61204a5760405162461bcd60e51b815260206004820152600b60248201526a2ba927a723afa82927a7a360a91b6044820152606401611123565b6015546001600160a01b0382166000908152601860205260409020546120719086906152fb565b11156120b05760405162461bcd60e51b815260206004820152600e60248201526d14149157d4d0531157d31253525560921b6044820152606401611123565b34846014546120bf9190615022565b11156120dd5760405162461bcd60e51b81526004016111239061530e565b6001600160a01b038116600090815260186020526040812080548692906121059084906152fb565b9091555061211590508185612a59565b505060016013555050565b61125461212b612972565b838361337d565b61213a6129ea565b600c5460ff161561215d5760405162461bcd60e51b8152600401611123906152db565b600b611254828261510d565b6000610f4c601c83613447565b612187612181612972565b83612ae2565b6121a35760405162461bcd60e51b815260040161112390614fd4565b610fec8484848461346b565b6121b76129ea565b600c805460ff19166001179055565b6060600a8054611d379061508b565b6121dd6129ea565b600254600160a01b900460ff16156122075760405162461bcd60e51b81526004016111239061506b565b600280546001600160a01b0319166001600160a01b0392909216919091179055565b6122316129ea565b600254600160b81b900460ff16156122735760405162461bcd60e51b815260206004820152600560248201526413d0d2d15160da1b6044820152606401611123565b6002805460ff60b81b1916600160b81b179055565b6060610f4c8261349e565b604080516001808252818301909252606091816020015b60408051808201909152600080825260208201528152602001906001900390816122aa575050601e5481519192506001600160a01b03169082906000906122f3576122f3614f6b565b60209081029190910101516001600160a01b03919091169052601e548151600160a01b90910461ffff1690829060009061232f5761232f614f6b565b6020908102919091018101516001600160601b03909216910152919050565b61235782611290565b61236081612ce7565b6111d68383612d7f565b60026013540361238c5760405162461bcd60e51b815260040161112390615249565b6002601355601b5460ff166123dc5760405162461bcd60e51b81526020600482015260166024820152755055424c49435f53414c455f4e4f545f41435449564560501b6044820152606401611123565b601a548111156124225760405162461bcd60e51b8152602060048201526011602482015270141550931250d7d4d0531157d312535255607a1b6044820152606401611123565b34816019546124319190615022565b111561244f5760405162461bcd60e51b81526004016111239061530e565b6124598282612a59565b50506001601355565b61246a6129ea565b602280546001600160a01b0319166001600160a01b0392909216919091179055565b6124946129ea565b6002805460ff60a81b1916600160a81b1790556040517fa24423a69b45c25c0479663125e48b482e71d85eae416f589545243bafaf3c9590600090a1565b6060600b8054611d379061508b565b6002601354036125035760405162461bcd60e51b815260040161112390615249565b60026013556125206000805160206156d483398151915233611ed5565b61253c5760405162461bcd60e51b815260040161112390615280565b611a07816132d4565b61254e3361357a565b6002546001600160a01b031661259e5760405162461bcd60e51b815260206004820152601560248201527415d2551211149055cbd393d7d49150d25412515395605a1b6044820152606401611123565b600254600160a81b900460ff16156125f85760405162461bcd60e51b815260206004820181905260248201527f57495448445241572f454d455247454e43595f504f5745525f5245564f4b45446044820152606401611123565b60005b8381101561273957600085858381811061261757612617614f6b565b905060200201602081019061262c9190614b52565b6001600160a01b03160361266f5761266a83838381811061264f5761264f614f6b565b6002546001600160a01b0316926020909102013590506136ff565b612727565b84848281811061268157612681614f6b565b90506020020160208101906126969190614b52565b6002546001600160a01b039182169163a9059cbb91168585858181106126be576126be614f6b565b905060200201356040518363ffffffff1660e01b81526004016126e29291906147bc565b6020604051808303816000875af1158015612701573d6000803e3d6000fd5b505050506040513d601f19601f82011682018060405250810190612725919061533b565b505b8061273181614fbb565b9150506125fb565b507fd40c399a83caf67d15628b821aa7c7bd940e563c57a047e2bd3b8c602bcaf5a58484848460405161276f9493929190615358565b60405180910390a150505050565b60006127c383838080602002602001604051908101604052809392919081815260200183836020028082843760009201919091525050601654915061200b90508761332d565b949350505050565b6060600f8054611d379061508b565b6001600160a01b03918216600090815260086020908152604080832093909416825291909152205460ff1690565b6128106129ea565b612827612822368390038301836153d4565b613815565b50565b6128326129ea565b6001600160a01b0381166128975760405162461bcd60e51b815260206004820152602660248201527f4f776e61626c653a206e6577206f776e657220697320746865207a65726f206160448201526564647265737360d01b6064820152608401611123565b6128278161301a565b6128a86129ea565b601555565b6128b56129ea565b601655565b60006128c53361177b565b156128d7575060131936013560601c90565b503390565b6001600160a01b03163b151590565b3390565b60006301ffc9a760e01b6001600160e01b031983161480610f4c5750506001600160e01b03191660009081526001602052604090205460ff1690565b600061293783836138c0565b9392505050565b6060600d8054611d379061508b565b612956816138ea565b6128275760405162461bcd60e51b8152600401611123906152a9565b60006110836128ba565b600081815260076020526040902080546001600160a01b0319166001600160a01b03841690811790915581906129b182611a0f565b6001600160a01b03167f8c5be1e5ebec7d5bd14f71427d1e84f3dd0314c0f7b2291e5b200ac8c7c3b92560405160405180910390a45050565b6129f2612972565b6001600160a01b0316612a03611ec0565b6001600160a01b031614611d265760405162461bcd60e51b815260206004820181905260248201527f4f776e61626c653a2063616c6c6572206973206e6f7420746865206f776e65726044820152606401611123565b60105481612a6660125490565b612a7091906152fb565b1115612aaf5760405162461bcd60e51b815260206004820152600e60248201526d455843454544535f535550504c5960901b6044820152606401611123565b60005b818110156111d657601254612ac78482613907565b612acf613921565b5080612ada81614fbb565b915050612ab2565b600080612aee83611a0f565b9050806001600160a01b0316846001600160a01b03161480612b155750612b1581856127da565b806127c35750836001600160a01b0316612b2e84611088565b6001600160a01b031614949350505050565b826001600160a01b0316612b5382611a0f565b6001600160a01b031614612bb75760405162461bcd60e51b815260206004820152602560248201527f4552433732313a207472616e736665722066726f6d20696e636f72726563742060448201526437bbb732b960d91b6064820152608401611123565b6001600160a01b038216612c195760405162461bcd60e51b8152602060048201526024808201527f4552433732313a207472616e7366657220746f20746865207a65726f206164646044820152637265737360e01b6064820152608401611123565b612c24838383613938565b612c2f60008261297c565b6001600160a01b0383166000908152600660205260408120805460019290612c5890849061542e565b90915550506001600160a01b0382166000908152600660205260408120805460019290612c869084906152fb565b909155505060008181526005602052604080822080546001600160a01b0319166001600160a01b0386811691821790925591518493918716917fddf252ad1be2c89b69c2b068fc378daa952ba7f163c4a11628f55a4df523b3ef91a4505050565b61282781612cf3612972565b613943565b612d028282611ed5565b611254576000828152601d602090815260408083206001600160a01b03851684529091529020805460ff19166001179055612d3b612972565b6001600160a01b0316816001600160a01b0316837f2f8788117e7eff1d82e926ec794901d17c78024a50270940304540a733656f0d60405160405180910390a45050565b612d898282611ed5565b15611254576000828152601d602090815260408083206001600160a01b03851684529091529020805460ff19169055612dc0612972565b6001600160a01b0316816001600160a01b0316837ff6391f5c32d9c69d2a47ea670b442974b53935d1edc7fd64eb21e047a839171b60405160405180910390a45050565b60005b8151811015611254576000828281518110612e2457612e24614f6b565b60200260200101519050612710816040015161ffff1610612e575760405162461bcd60e51b815260040161112390615441565b60208101516001600160a01b0316612ed15780516000908152601f6020908152604090912080546001600160b01b03191690558151612e9691906139a7565b5080516040519081527fa2870857763bd9ae76c957f869f16b31c18dd3bb4c7b4d3a4496dc5c57c657f99060200160405180910390a1612f96565b6040805180820182526020808401516001600160a01b0390811683528484015161ffff90811683850190815286516000908152601f855295909520935184549551909116600160a01b026001600160b01b03199095169116179290921790558151612f3c91906139b3565b50805160208083015160408085015181519485526001600160a01b039092169284019290925261ffff1682820152517f389b70fb0887f01e83784eb1c4c589f740eca53b00ed0f45e41db5d079719abb9181900360600190a15b5080612fa181614fbb565b915050612e07565b612fb4601c82613447565b612fed5760405162461bcd60e51b815260206004820152600a6024820152691393d517d313d0d2d15160b21b6044820152606401611123565b600881901c6000908152601c602052604090208054600160ff84161b1916905550565b6112548282612cf8565b600080546001600160a01b038381166201000081810262010000600160b01b0319851617855560405193049190911692909183917f8be0079c531659141344cd1fd0a4f28419497f9722a3daafe3b4186f6b6457e091a35050565b600054610100900460ff1661309c5760405162461bcd60e51b815260040161112390615466565b61125482826139bf565b600054610100900460ff166130cd5760405162461bcd60e51b815260040161112390615466565b6111d6838383613a43565b600054610100900460ff166130ff5760405162461bcd60e51b815260040161112390615466565b6112548282613ac1565b600054610100900460ff166131305760405162461bcd60e51b815260040161112390615466565b61282781613b4c565b600054610100900460ff166131605760405162461bcd60e51b815260040161112390615466565b611d26613b98565b600054610100900460ff1661318f5760405162461bcd60e51b815260040161112390615466565b61282781613bcf565b600054610100900460ff166131bf5760405162461bcd60e51b815260040161112390615466565b611d26613c1e565b600054610100900460ff166131ee5760405162461bcd60e51b815260040161112390615466565b6131fe63209680f760e11b613c51565b601491909155601555565b600054610100900460ff166132305760405162461bcd60e51b815260040161112390615466565b6112548282613cd2565b600054610100900460ff166132615760405162461bcd60e51b815260040161112390615466565b6112548282613d14565b600054610100900460ff166132925760405162461bcd60e51b815260040161112390615466565b61282781613da4565b600054610100900460ff166132c25760405162461bcd60e51b815260040161112390615466565b611d26613dcb565b6000610f4c825490565b6132df601c82613447565b156132fc5760405162461bcd60e51b81526004016111239061506b565b600881901c6000908152601c602052604090208054600160ff84161b17905550565b6060600e8054611d379061508b565b6040516001600160601b0319606083901b166020820152600090603401604051602081830303815290604052805190602001209050919050565b6000826133748584613e02565b14949350505050565b816001600160a01b0316836001600160a01b0316036133da5760405162461bcd60e51b815260206004820152601960248201527822a9219b99189d1030b8383937bb32903a379031b0b63632b960391b6044820152606401611123565b6001600160a01b03838116600081815260086020908152604080832094871680845294825291829020805460ff191686151590811790915591519182527f17307eab39ab6107e8899845ad3d59bd9653f200f220920489ca2b5937696c31910160405180910390a3505050565b600881901c600090815260208390526040902054600160ff83161b16151592915050565b613476848484612b40565b61348284848484613e47565b610fec5760405162461bcd60e51b8152600401611123906154b1565b60606000600a80546134af9061508b565b90501161354657600980546134c39061508b565b80601f01602080910402602001604051908101604052809291908181526020018280546134ef9061508b565b801561353c5780601f106135115761010080835404028352916020019161353c565b820191906000526020600020905b81548152906001019060200180831161351f57829003601f168201915b5050505050610f4c565b600a61355183613f56565b600b60405160200161356593929190615576565b60405160208183030381529060405292915050565b6003600254600160b01b900460ff16600381111561359a5761359a6148bf565b036135d95760405162461bcd60e51b815260206004820152600f60248201526e15d2551211149055cbd313d0d2d151608a1b6044820152606401611123565b60028054600160b01b900460ff1660038111156135f8576135f86148bf565b036136005750565b6001600254600160b01b900460ff166003811115613620576136206148bf565b0361367c576002546001600160a01b038281169116146128275760405162461bcd60e51b815260206004820152601760248201527615d2551211149055cbd3d3931657d49150d25412515395604a1b6044820152606401611123565b6000600254600160b01b900460ff16600381111561369c5761369c6148bf565b0361282757806001600160a01b03166136b3611ec0565b6001600160a01b0316146128275760405162461bcd60e51b81526020600482015260136024820152722ba4aa24222920ab97a7a7262cafa7aba722a960691b6044820152606401611123565b8047101561374f5760405162461bcd60e51b815260206004820152601d60248201527f416464726573733a20696e73756666696369656e742062616c616e63650000006044820152606401611123565b6000826001600160a01b03168260405160006040518083038185875af1925050503d806000811461379c576040519150601f19603f3d011682016040523d82523d6000602084013e6137a1565b606091505b50509050806111d65760405162461bcd60e51b815260206004820152603a60248201527f416464726573733a20756e61626c6520746f2073656e642076616c75652c20726044820152791958da5c1a595b9d081b585e481a185d99481c995d995c9d195960321b6064820152608401611123565b612710816020015161ffff161061383e5760405162461bcd60e51b815260040161112390615441565b60408051808201825282516001600160a01b03168082526020808501805161ffff1691909301819052601e80546001600160b01b031916909217600160a01b9091021790558251905191517f2c5ea6e4103e78cb101e796fb2dace540362fc542cbff5145eaa24af7dd8fe41926138b59291614d0a565b60405180910390a150565b60008260000182815481106138d7576138d7614f6b565b9060005260206000200154905092915050565b6000908152600560205260409020546001600160a01b0316151590565b611254828260405180602001604052806000815250614056565b6012805490600061393183614fbb565b9190505550565b6111d6838383614089565b61394d8282611ed5565b61125457613965816001600160a01b031660146140b1565b6139708360206140b1565b6040516020016139819291906155a9565b60408051601f198184030181529082905262461bcd60e51b82526111239160040161470d565b6000612937838361424c565b6000612937838361433f565b600054610100900460ff166139e65760405162461bcd60e51b815260040161112390615466565b6139f663ac2ba33360e01b613c51565b600280546001600160a01b0384166001600160a01b0319821681178355839291600162ff000160a01b03191617600160b01b836003811115613a3a57613a3a6148bf565b02179055505050565b600054610100900460ff16613a6a5760405162461bcd60e51b815260040161112390615466565b600d613a76848261510d565b50600e613a83838261510d565b50600f613a90828261510d565b50613aa1633d96f4ff60e11b613c51565b613ab16380ac58cd60e01b613c51565b6111d6635b5e139f60e01b613c51565b600054610100900460ff16613ae85760405162461bcd60e51b815260040161112390615466565b6009613af4838261510d565b50600a613b01828261510d565b50604080518082019091526005815264173539b7b760d91b6020820152600b90613b2b908261510d565b50613b3c631f2f406b60e01b613c51565b611254635b5e139f60e01b613c51565b600054610100900460ff16613b735760405162461bcd60e51b815260040161112390615466565b6010819055613b886330f487b560e11b613c51565b6128276380ac58cd60e01b613c51565b600054610100900460ff16613bbf5760405162461bcd60e51b815260040161112390615466565b611d26631aa1577160e11b613c51565b600054610100900460ff16613bf65760405162461bcd60e51b815260040161112390615466565b613c06631a056e7160e01b613c51565b6128276000805160206156b483398151915282613010565b600054610100900460ff16613c455760405162461bcd60e51b815260040161112390615466565b611d2663714ad8e760e01b5b6001600160e01b03198082169003613caa5760405162461bcd60e51b815260206004820152601c60248201527b115490cc4d8d4e881a5b9d985b1a59081a5b9d195c999858d9481a5960221b6044820152606401611123565b6001600160e01b0319166000908152600160208190526040909120805460ff19169091179055565b600054610100900460ff16613cf95760405162461bcd60e51b815260040161112390615466565b613d096317e0bac360e31b613c51565b601991909155601a55565b600054610100900460ff16613d3b5760405162461bcd60e51b815260040161112390615466565b613d4b633a47bf5160e11b613c51565b613d5b63152a902d60e11b613c51565b613d6b63c69dbd8f60e01b613c51565b613d7b63656cb66560e11b613c51565b604080518082019091526001600160a01b038316815261ffff821660208201526111d681613815565b600054610100900460ff1661246a5760405162461bcd60e51b815260040161112390615466565b600054610100900460ff16613df25760405162461bcd60e51b815260040161112390615466565b611d26632a7c3e4960e01b613c51565b600081815b845181101561142c57613e3382868381518110613e2657613e26614f6b565b602002602001015161438e565b915080613e3f81614fbb565b915050613e07565b6000613e5b846001600160a01b03166128dc565b15613f4b57836001600160a01b031663150b7a02613e77612972565b8786866040518563ffffffff1660e01b8152600401613e999493929190615618565b6020604051808303816000875af1925050508015613ed4575060408051601f3d908101601f19168201909252613ed191810190615655565b60015b613f31573d808015613f02576040519150601f19603f3d011682016040523d82523d6000602084013e613f07565b606091505b508051600003613f295760405162461bcd60e51b8152600401611123906154b1565b805181602001fd5b6001600160e01b031916630a85bd0160e11b1490506127c3565b506001949350505050565b606081600003613f7d5750506040805180820190915260018152600360fc1b602082015290565b8160005b8115613fa75780613f9181614fbb565b9150613fa09050600a83615057565b9150613f81565b6000816001600160401b03811115613fc157613fc161454a565b6040519080825280601f01601f191660200182016040528015613feb576020820181803683370190505b5090505b84156127c35761400060018361542e565b915061400d600a86615672565b6140189060306152fb565b60f81b81838151811061402d5761402d614f6b565b60200101906001600160f81b031916908160001a90535061404f600a86615057565b9450613fef565b61406083836143bd565b61406d6000848484613e47565b6111d65760405162461bcd60e51b8152600401611123906154b1565b614094601c82613447565b156111d65760405162461bcd60e51b81526004016111239061506b565b606060006140c0836002615022565b6140cb9060026152fb565b6001600160401b038111156140e2576140e261454a565b6040519080825280601f01601f19166020018201604052801561410c576020820181803683370190505b509050600360fc1b8160008151811061412757614127614f6b565b60200101906001600160f81b031916908160001a905350600f60fb1b8160018151811061415657614156614f6b565b60200101906001600160f81b031916908160001a905350600061417a846002615022565b6141859060016152fb565b90505b60018111156141fd576f181899199a1a9b1b9c1cb0b131b232b360811b85600f16601081106141b9576141b9614f6b565b1a60f81b8282815181106141cf576141cf614f6b565b60200101906001600160f81b031916908160001a90535060049490941c936141f681615686565b9050614188565b5083156129375760405162461bcd60e51b815260206004820181905260248201527f537472696e67733a20686578206c656e67746820696e73756666696369656e746044820152606401611123565b6000818152600183016020526040812054801561433557600061427060018361542e565b85549091506000906142849060019061542e565b90508181146142e95760008660000182815481106142a4576142a4614f6b565b90600052602060002001549050808760000184815481106142c7576142c7614f6b565b6000918252602080832090910192909255918252600188019052604090208390555b85548690806142fa576142fa61569d565b600190038181906000526020600020016000905590558560010160008681526020019081526020016000206000905560019350505050610f4c565b6000915050610f4c565b600081815260018301602052604081205461438657508154600181810184556000848152602080822090930184905584548482528286019093526040902091909155610f4c565b506000610f4c565b60008183106143aa576000828152602084905260409020612937565b6000838152602083905260409020612937565b6001600160a01b0382166144135760405162461bcd60e51b815260206004820181905260248201527f4552433732313a206d696e7420746f20746865207a65726f20616464726573736044820152606401611123565b61441c816138ea565b156144685760405162461bcd60e51b815260206004820152601c60248201527b115490cdcc8c4e881d1bdad95b88185b1c9958591e481b5a5b9d195960221b6044820152606401611123565b61447460008383613938565b6001600160a01b038216600090815260066020526040812080546001929061449d9084906152fb565b909155505060008181526005602052604080822080546001600160a01b0319166001600160a01b03861690811790915590518392907fddf252ad1be2c89b69c2b068fc378daa952ba7f163c4a11628f55a4df523b3ef908290a45050565b6001600160e01b03198116811461282757600080fd5b60006020828403121561452357600080fd5b8135612937816144fb565b80356001600160a01b038116811461454557600080fd5b919050565b634e487b7160e01b600052604160045260246000fd5b6040516101c081016001600160401b03811182821017156145835761458361454a565b60405290565b604051601f8201601f191681016001600160401b03811182821017156145b1576145b161454a565b604052919050565b60006001600160401b038211156145d2576145d261454a565b5060051b60200190565b600082601f8301126145ed57600080fd5b813560206146026145fd836145b9565b614589565b82815260059290921b8401810191818101908684111561462157600080fd5b8286015b8481101561463c5780358352918301918301614625565b509695505050505050565b60008060006060848603121561465c57600080fd5b6146658461452e565b92506146736020850161452e565b915060408401356001600160401b0381111561468e57600080fd5b61469a868287016145dc565b9150509250925092565b6000602082840312156146b657600080fd5b5035919050565b60005b838110156146d85781810151838201526020016146c0565b50506000910152565b600081518084526146f98160208601602086016146bd565b601f01601f19169290920160200192915050565b60208152600061293760208301846146e1565b6001600160a01b0391909116815260200190565b6000806040838503121561474757600080fd5b6147508361452e565b946020939093013593505050565b60008060006060848603121561477357600080fd5b61477c8461452e565b925061478a6020850161452e565b9150604084013590509250925092565b600080604083850312156147ad57600080fd5b50508035926020909101359150565b6001600160a01b03929092168252602082015260400190565b60008083601f8401126147e757600080fd5b5081356001600160401b038111156147fe57600080fd5b6020830191508360208260051b850101111561136357600080fd5b6000806020838503121561482c57600080fd5b82356001600160401b0381111561484257600080fd5b61484e858286016147d5565b90969095509350505050565b6020808252825182820181905260009190848201906040850190845b8181101561489257835183529284019291840191600101614876565b50909695505050505050565b6000602082840312156148b057600080fd5b81356004811061293757600080fd5b634e487b7160e01b600052602160045260246000fd5b60208101600483106148f757634e487b7160e01b600052602160045260246000fd5b91905290565b801515811461282757600080fd5b60006020828403121561491d57600080fd5b8135612937816148fd565b6000806040838503121561493b57600080fd5b8235915061494b6020840161452e565b90509250929050565b600082601f83011261496557600080fd5b813560206149756145fd836145b9565b82815260059290921b8401810191818101908684111561499457600080fd5b8286015b8481101561463c576149a98161452e565b8352918301918301614998565b6000806000606084860312156149cb57600080fd5b83356001600160401b03808211156149e257600080fd5b6149ee87838801614954565b94506020860135915080821115614a0457600080fd5b614a1087838801614954565b93506040860135915080821115614a2657600080fd5b5061469a868287016145dc565b60006001600160401b03831115614a4c57614a4c61454a565b614a5f601f8401601f1916602001614589565b9050828152838383011115614a7357600080fd5b828260208301376000602084830101529392505050565b600082601f830112614a9b57600080fd5b61293783833560208501614a33565b600060208284031215614abc57600080fd5b81356001600160401b03811115614ad257600080fd5b6127c384828501614a8a565b60008060208385031215614af157600080fd5b82356001600160401b0380821115614b0857600080fd5b818501915085601f830112614b1c57600080fd5b813581811115614b2b57600080fd5b866020606083028501011115614b4057600080fd5b60209290920196919550909350505050565b600060208284031215614b6457600080fd5b6129378261452e565b803561ffff8116811461454557600080fd5b60008060408385031215614b9257600080fd5b82356001600160401b0380821115614ba957600080fd5b908401906101c08287031215614bbe57600080fd5b614bc6614560565b823582811115614bd557600080fd5b614be188828601614a8a565b825250602083013582811115614bf657600080fd5b614c0288828601614a8a565b602083015250604083013582811115614c1a57600080fd5b614c2688828601614a8a565b604083015250606083013582811115614c3e57600080fd5b614c4a88828601614a8a565b606083015250608083013582811115614c6257600080fd5b614c6e88828601614a8a565b60808301525060a0838101359082015260c0808401359082015260e08084013590820152610100808401359082015261012080840135908201526101409150614cb882840161452e565b828201526101609150614ccc828401614b6d565b828201526101809150614ce082840161452e565b828201526101a09150614cf482840161452e565b8282015280945050505061494b6020840161452e565b6001600160a01b0392909216825261ffff16602082015260400190565b600080600060408486031215614d3c57600080fd5b8335925060208401356001600160401b03811115614d5957600080fd5b614d65868287016147d5565b9497909650939450505050565b60008060408385031215614d8557600080fd5b614d8e8361452e565b91506020830135614d9e816148fd565b809150509250929050565b60008060008060808587031215614dbf57600080fd5b614dc88561452e565b9350614dd66020860161452e565b92506040850135915060608501356001600160401b03811115614df857600080fd5b8501601f81018713614e0957600080fd5b614e1887823560208401614a33565b91505092959194509250565b602080825282518282018190526000919060409081850190868401855b82811015614e7857815180516001600160a01b031685528601516001600160601b0316868501529284019290850190600101614e41565b5091979650505050505050565b60008060008060408587031215614e9b57600080fd5b84356001600160401b0380821115614eb257600080fd5b614ebe888389016147d5565b90965094506020870135915080821115614ed757600080fd5b50614ee4878288016147d5565b95989497509550505050565b600080600060408486031215614f0557600080fd5b614f0e8461452e565b925060208401356001600160401b03811115614d5957600080fd5b60008060408385031215614f3c57600080fd5b614f458361452e565b915061494b6020840161452e565b600060408284031215614f6557600080fd5b50919050565b634e487b7160e01b600052603260045260246000fd5b6001600160a01b039384168152919092166020820152604081019190915260600190565b634e487b7160e01b600052601160045260246000fd5b600060018201614fcd57614fcd614fa5565b5060010190565b6020808252602e908201527f4552433732313a2063616c6c6572206973206e6f7420746f6b656e206f776e6560408201526d1c881b9bdc88185c1c1c9bdd995960921b606082015260800190565b600081600019048311821515161561503c5761503c614fa5565b500290565b634e487b7160e01b600052601260045260246000fd5b60008261506657615066615041565b500490565b6020808252600690820152651313d0d2d15160d21b604082015260600190565b600181811c9082168061509f57607f821691505b602082108103614f6557634e487b7160e01b600052602260045260246000fd5b601f8211156111d657600081815260208120601f850160051c810160208610156150e65750805b601f850160051c820191505b81811015615105578281556001016150f2565b505050505050565b81516001600160401b038111156151265761512661454a565b61513a81615134845461508b565b846150bf565b602080601f83116001811461516f57600084156151575750858301515b600019600386901b1c1916600185901b178555615105565b600085815260208120601f198616915b8281101561519e5788860151825594840194600190910190840161517f565b50858210156151bc5787850151600019600388901b60f8161c191681555b5050505050600190811b01905550565b6000606082840312156151de57600080fd5b604051606081018181106001600160401b03821117156152005761520061454a565b604052823581526152136020840161452e565b602082015261522460408401614b6d565b60408201529392505050565b60006020828403121561524257600080fd5b5051919050565b6020808252601f908201527f5265656e7472616e637947756172643a207265656e7472616e742063616c6c00604082015260600190565b6020808252600f908201526e4e4f545f4c4f434b45525f524f4c4560881b604082015260600190565b602080825260189082015277115490cdcc8c4e881a5b9d985b1a59081d1bdad95b88125160421b604082015260600190565b602080825260069082015265232927ad22a760d11b604082015260600190565b80820180821115610f4c57610f4c614fa5565b602080825260139082015272125394d551919250d251539517d05353d55395606a1b604082015260600190565b60006020828403121561534d57600080fd5b8151612937816148fd565b6040808252810184905260008560608301825b87811015615399576001600160a01b036153848461452e565b1682526020928301929091019060010161536b565b5083810360208501528481526001600160fb1b038511156153b957600080fd5b8460051b915081866020830137016020019695505050505050565b6000604082840312156153e657600080fd5b604051604081018181106001600160401b03821117156154085761540861454a565b6040526154148361452e565b815261542260208401614b6d565b60208201529392505050565b81810381811115610f4c57610f4c614fa5565b6020808252600b908201526a496e76616c69642062707360a81b604082015260600190565b6020808252602b908201527f496e697469616c697a61626c653a20636f6e7472616374206973206e6f74206960408201526a6e697469616c697a696e6760a81b606082015260800190565b60208082526032908201527f4552433732313a207472616e7366657220746f206e6f6e20455243373231526560408201527131b2b4bb32b91034b6b83632b6b2b73a32b960711b606082015260800190565b600081546155108161508b565b60018281168015615528576001811461553d5761556c565b60ff198416875282151583028701945061556c565b8560005260208060002060005b858110156155635781548a82015290840190820161554a565b50505082870194505b5050505092915050565b60006155828286615503565b84516155928183602089016146bd565b61559e81830186615503565b979650505050505050565b76020b1b1b2b9b9a1b7b73a3937b61d1030b1b1b7bab73a1604d1b8152600083516155db8160178501602088016146bd565b7001034b99036b4b9b9b4b733903937b6329607d1b601791840191820152835161560c8160288401602088016146bd565b01602801949350505050565b6001600160a01b038581168252841660208201526040810183905260806060820181905260009061564b908301846146e1565b9695505050505050565b60006020828403121561566757600080fd5b8151612937816144fb565b60008261568157615681615041565b500690565b60008161569557615695614fa5565b506000190190565b634e487b7160e01b600052603160045260246000fdfe9f2df0fed2c77648de5860a4cc508cd0818c85b8b8a1ab4ceeef8d981c8956a6af9a8bb3cbd6b84fbccefa71ff73e26e798553c6914585a84886212a46a90279a2646970667358221220766dfdb75a7e14a26274cbdd67d4e8cf1177e9537c2574d5ddd36d3ab0a7502864736f6c63430008100033",
  "devdoc": {
    "kind": "dev",
    "methods": {
      "approve(address,uint256)": {
        "details": "See {IERC721-approve}."
      },
      "balanceOf(address)": {
        "details": "See {IERC721-balanceOf}."
      },
      "getApproved(uint256)": {
        "details": "See {IERC721-getApproved}."
      },
      "getRoleAdmin(bytes32)": {
        "details": "Returns the admin role that controls `role`. See {grantRole} and {revokeRole}. To change a role's admin, use {_setRoleAdmin}."
      },
      "getTokenRoyaltiesCount()": {
        "details": "See {IEIP2981RoyaltyOverride-getTokenRoyaltiesCount}."
      },
      "getTokenRoyaltyByIndex(uint256)": {
        "details": "See {IEIP2981RoyaltyOverride-getTokenRoyaltyByIndex}."
      },
      "grantRole(bytes32,address)": {
        "details": "Grants `role` to `account`. If `account` had not been already granted `role`, emits a {RoleGranted} event. Requirements: - the caller must have ``role``'s admin role. May emit a {RoleGranted} event."
      },
      "hasRole(bytes32,address)": {
        "details": "Returns `true` if `account` has been granted `role`."
      },
      "isApprovedForAll(address,address)": {
        "details": "See {IERC721-isApprovedForAll}."
      },
      "owner()": {
        "details": "Returns the address of the current owner."
      },
      "ownerOf(uint256)": {
        "details": "See {IERC721-ownerOf}."
      },
      "renounceOwnership()": {
        "details": "Leaves the contract without owner. It will not be possible to call `onlyOwner` functions anymore. Can only be called by the current owner. NOTE: Renouncing ownership will leave the contract without an owner, thereby removing any functionality that is only available to the owner."
      },
      "renounceRole(bytes32,address)": {
        "details": "Revokes `role` from the calling account. Roles are often managed via {grantRole} and {revokeRole}: this function's purpose is to provide a mechanism for accounts to lose their privileges if they are compromised (such as when a trusted device is misplaced). If the calling account had been revoked `role`, emits a {RoleRevoked} event. Requirements: - the caller must be `account`. May emit a {RoleRevoked} event."
      },
      "revokeRole(bytes32,address)": {
        "details": "Revokes `role` from `account`. If `account` had been granted `role`, emits a {RoleRevoked} event. Requirements: - the caller must have ``role``'s admin role. May emit a {RoleRevoked} event."
      },
      "royaltyInfo(uint256,uint256)": {
        "details": "See {IEIP2981RoyaltyOverride-royaltyInfo}."
      },
      "safeTransferFrom(address,address,uint256)": {
        "details": "See {IERC721-safeTransferFrom}."
      },
      "safeTransferFrom(address,address,uint256,bytes)": {
        "details": "See {IERC721-safeTransferFrom}."
      },
      "setApprovalForAll(address,bool)": {
        "details": "See {IERC721-setApprovalForAll}."
      },
      "transferFrom(address,address,uint256)": {
        "details": "See {IERC721-transferFrom}."
      },
      "transferOwnership(address)": {
        "details": "Transfers ownership of the contract to a new account (`newOwner`). Can only be called by the current owner."
      }
    },
    "version": 1
  },
  "userdoc": {
    "kind": "user",
    "methods": {
      "lock(uint256)": {
        "notice": "Locks token(s) to effectively lock them, while keeping in the same wallet. This mechanism prevents them from being transferred, yet still will show correct owner."
      },
      "locked(uint256)": {
        "notice": "Returns if a token is locked or not."
      },
      "transferFromBulk(address,address,uint256[])": {
        "notice": "Useful for when user wants to return tokens to get a refund, or when they want to transfer lots of tokens by paying gas fee only once."
      },
      "transferFromBulk(address[],address[],uint256[])": {
        "notice": "Useful for transferring multiple tokens from/to multiple addresses."
      },
      "unlock(uint256)": {
        "notice": "Unlocks locked token(s) to be able to transfer."
      }
    },
    "version": 1
  },
  "storageLayout": {
    "storage": [
      {
        "astId": 974,
        "contract": "contracts/collections/ERC721/presets/ERC721SimpleSalesCollection.sol:ERC721SimpleSalesCollection",
        "label": "_initialized",
        "offset": 0,
        "slot": "0",
        "type": "t_uint8"
      },
      {
        "astId": 977,
        "contract": "contracts/collections/ERC721/presets/ERC721SimpleSalesCollection.sol:ERC721SimpleSalesCollection",
        "label": "_initializing",
        "offset": 1,
        "slot": "0",
        "type": "t_bool"
      },
      {
        "astId": 782,
        "contract": "contracts/collections/ERC721/presets/ERC721SimpleSalesCollection.sol:ERC721SimpleSalesCollection",
        "label": "_owner",
        "offset": 2,
        "slot": "0",
        "type": "t_address"
      },
      {
        "astId": 5217,
        "contract": "contracts/collections/ERC721/presets/ERC721SimpleSalesCollection.sol:ERC721SimpleSalesCollection",
        "label": "_supportedInterfaces",
        "offset": 0,
        "slot": "1",
        "type": "t_mapping(t_bytes4,t_bool)"
      },
      {
        "astId": 14335,
        "contract": "contracts/collections/ERC721/presets/ERC721SimpleSalesCollection.sol:ERC721SimpleSalesCollection",
        "label": "withdrawRecipient",
        "offset": 0,
        "slot": "2",
        "type": "t_address"
      },
      {
        "astId": 14337,
        "contract": "contracts/collections/ERC721/presets/ERC721SimpleSalesCollection.sol:ERC721SimpleSalesCollection",
        "label": "withdrawRecipientLocked",
        "offset": 20,
        "slot": "2",
        "type": "t_bool"
      },
      {
        "astId": 14339,
        "contract": "contracts/collections/ERC721/presets/ERC721SimpleSalesCollection.sol:ERC721SimpleSalesCollection",
        "label": "withdrawPowerRevoked",
        "offset": 21,
        "slot": "2",
        "type": "t_bool"
      },
      {
        "astId": 14342,
        "contract": "contracts/collections/ERC721/presets/ERC721SimpleSalesCollection.sol:ERC721SimpleSalesCollection",
        "label": "withdrawMode",
        "offset": 22,
        "slot": "2",
        "type": "t_enum(WithdrawMode)14279"
      },
      {
        "astId": 14344,
        "contract": "contracts/collections/ERC721/presets/ERC721SimpleSalesCollection.sol:ERC721SimpleSalesCollection",
        "label": "withdrawModeLocked",
        "offset": 23,
        "slot": "2",
        "type": "t_bool"
      },
      {
        "astId": 2025,
        "contract": "contracts/collections/ERC721/presets/ERC721SimpleSalesCollection.sol:ERC721SimpleSalesCollection",
        "label": "_name",
        "offset": 0,
        "slot": "3",
        "type": "t_string_storage"
      },
      {
        "astId": 2027,
        "contract": "contracts/collections/ERC721/presets/ERC721SimpleSalesCollection.sol:ERC721SimpleSalesCollection",
        "label": "_symbol",
        "offset": 0,
        "slot": "4",
        "type": "t_string_storage"
      },
      {
        "astId": 2031,
        "contract": "contracts/collections/ERC721/presets/ERC721SimpleSalesCollection.sol:ERC721SimpleSalesCollection",
        "label": "_owners",
        "offset": 0,
        "slot": "5",
        "type": "t_mapping(t_uint256,t_address)"
      },
      {
        "astId": 2035,
        "contract": "contracts/collections/ERC721/presets/ERC721SimpleSalesCollection.sol:ERC721SimpleSalesCollection",
        "label": "_balances",
        "offset": 0,
        "slot": "6",
        "type": "t_mapping(t_address,t_uint256)"
      },
      {
        "astId": 2039,
        "contract": "contracts/collections/ERC721/presets/ERC721SimpleSalesCollection.sol:ERC721SimpleSalesCollection",
        "label": "_tokenApprovals",
        "offset": 0,
        "slot": "7",
        "type": "t_mapping(t_uint256,t_address)"
      },
      {
        "astId": 2045,
        "contract": "contracts/collections/ERC721/presets/ERC721SimpleSalesCollection.sol:ERC721SimpleSalesCollection",
        "label": "_operatorApprovals",
        "offset": 0,
        "slot": "8",
        "type": "t_mapping(t_address,t_mapping(t_address,t_bool))"
      },
      {
        "astId": 8002,
        "contract": "contracts/collections/ERC721/presets/ERC721SimpleSalesCollection.sol:ERC721SimpleSalesCollection",
        "label": "_placeholderURI",
        "offset": 0,
        "slot": "9",
        "type": "t_string_storage"
      },
      {
        "astId": 8004,
        "contract": "contracts/collections/ERC721/presets/ERC721SimpleSalesCollection.sol:ERC721SimpleSalesCollection",
        "label": "_tokenURIPrefix",
        "offset": 0,
        "slot": "10",
        "type": "t_string_storage"
      },
      {
        "astId": 8006,
        "contract": "contracts/collections/ERC721/presets/ERC721SimpleSalesCollection.sol:ERC721SimpleSalesCollection",
        "label": "_tokenURISuffix",
        "offset": 0,
        "slot": "11",
        "type": "t_string_storage"
      },
      {
        "astId": 8008,
        "contract": "contracts/collections/ERC721/presets/ERC721SimpleSalesCollection.sol:ERC721SimpleSalesCollection",
        "label": "tokenURIFrozen",
        "offset": 0,
        "slot": "12",
        "type": "t_bool"
      },
      {
        "astId": 6694,
        "contract": "contracts/collections/ERC721/presets/ERC721SimpleSalesCollection.sol:ERC721SimpleSalesCollection",
        "label": "_name",
        "offset": 0,
        "slot": "13",
        "type": "t_string_storage"
      },
      {
        "astId": 6696,
        "contract": "contracts/collections/ERC721/presets/ERC721SimpleSalesCollection.sol:ERC721SimpleSalesCollection",
        "label": "_symbol",
        "offset": 0,
        "slot": "14",
        "type": "t_string_storage"
      },
      {
        "astId": 6698,
        "contract": "contracts/collections/ERC721/presets/ERC721SimpleSalesCollection.sol:ERC721SimpleSalesCollection",
        "label": "_contractURI",
        "offset": 0,
        "slot": "15",
        "type": "t_string_storage"
      },
      {
        "astId": 6350,
        "contract": "contracts/collections/ERC721/presets/ERC721SimpleSalesCollection.sol:ERC721SimpleSalesCollection",
        "label": "maxSupply",
        "offset": 0,
        "slot": "16",
        "type": "t_uint256"
      },
      {
        "astId": 6352,
        "contract": "contracts/collections/ERC721/presets/ERC721SimpleSalesCollection.sol:ERC721SimpleSalesCollection",
        "label": "maxSupplyFrozen",
        "offset": 0,
        "slot": "17",
        "type": "t_bool"
      },
      {
        "astId": 6355,
        "contract": "contracts/collections/ERC721/presets/ERC721SimpleSalesCollection.sol:ERC721SimpleSalesCollection",
        "label": "_currentTokenId",
        "offset": 0,
        "slot": "18",
        "type": "t_uint256"
      },
      {
        "astId": 1237,
        "contract": "contracts/collections/ERC721/presets/ERC721SimpleSalesCollection.sol:ERC721SimpleSalesCollection",
        "label": "_status",
        "offset": 0,
        "slot": "19",
        "type": "t_uint256"
      },
      {
        "astId": 7725,
        "contract": "contracts/collections/ERC721/presets/ERC721SimpleSalesCollection.sol:ERC721SimpleSalesCollection",
        "label": "preSalePrice",
        "offset": 0,
        "slot": "20",
        "type": "t_uint256"
      },
      {
        "astId": 7727,
        "contract": "contracts/collections/ERC721/presets/ERC721SimpleSalesCollection.sol:ERC721SimpleSalesCollection",
        "label": "preSaleMaxMintPerWallet",
        "offset": 0,
        "slot": "21",
        "type": "t_uint256"
      },
      {
        "astId": 7729,
        "contract": "contracts/collections/ERC721/presets/ERC721SimpleSalesCollection.sol:ERC721SimpleSalesCollection",
        "label": "preSaleAllowlistMerkleRoot",
        "offset": 0,
        "slot": "22",
        "type": "t_bytes32"
      },
      {
        "astId": 7731,
        "contract": "contracts/collections/ERC721/presets/ERC721SimpleSalesCollection.sol:ERC721SimpleSalesCollection",
        "label": "preSaleStatus",
        "offset": 0,
        "slot": "23",
        "type": "t_bool"
      },
      {
        "astId": 7735,
        "contract": "contracts/collections/ERC721/presets/ERC721SimpleSalesCollection.sol:ERC721SimpleSalesCollection",
        "label": "preSaleAllowlistClaimed",
        "offset": 0,
        "slot": "24",
        "type": "t_mapping(t_address,t_uint256)"
      },
      {
        "astId": 8236,
        "contract": "contracts/collections/ERC721/presets/ERC721SimpleSalesCollection.sol:ERC721SimpleSalesCollection",
        "label": "publicSalePrice",
        "offset": 0,
        "slot": "25",
        "type": "t_uint256"
      },
      {
        "astId": 8238,
        "contract": "contracts/collections/ERC721/presets/ERC721SimpleSalesCollection.sol:ERC721SimpleSalesCollection",
        "label": "publicSaleMaxMintPerTx",
        "offset": 0,
        "slot": "26",
        "type": "t_uint256"
      },
      {
        "astId": 8240,
        "contract": "contracts/collections/ERC721/presets/ERC721SimpleSalesCollection.sol:ERC721SimpleSalesCollection",
        "label": "publicSaleStatus",
        "offset": 0,
        "slot": "27",
        "type": "t_bool"
      },
      {
        "astId": 6946,
        "contract": "contracts/collections/ERC721/presets/ERC721SimpleSalesCollection.sol:ERC721SimpleSalesCollection",
        "label": "lockedTokens",
        "offset": 0,
        "slot": "28",
        "type": "t_struct(BitMap)5589_storage"
      },
      {
        "astId": 406,
        "contract": "contracts/collections/ERC721/presets/ERC721SimpleSalesCollection.sol:ERC721SimpleSalesCollection",
        "label": "_roles",
        "offset": 0,
        "slot": "29",
        "type": "t_mapping(t_bytes32,t_struct(RoleData)401_storage)"
      },
      {
        "astId": 86,
        "contract": "contracts/collections/ERC721/presets/ERC721SimpleSalesCollection.sol:ERC721SimpleSalesCollection",
        "label": "defaultRoyalty",
        "offset": 0,
        "slot": "30",
        "type": "t_struct(TokenRoyalty)28_storage"
      },
      {
        "astId": 91,
        "contract": "contracts/collections/ERC721/presets/ERC721SimpleSalesCollection.sol:ERC721SimpleSalesCollection",
        "label": "_tokenRoyalties",
        "offset": 0,
        "slot": "31",
        "type": "t_mapping(t_uint256,t_struct(TokenRoyalty)28_storage)"
      },
      {
        "astId": 94,
        "contract": "contracts/collections/ERC721/presets/ERC721SimpleSalesCollection.sol:ERC721SimpleSalesCollection",
        "label": "_tokensWithRoyalties",
        "offset": 0,
        "slot": "32",
        "type": "t_struct(UintSet)6188_storage"
      },
      {
        "astId": 14615,
        "contract": "contracts/collections/ERC721/presets/ERC721SimpleSalesCollection.sol:ERC721SimpleSalesCollection",
        "label": "_trustedForwarder",
        "offset": 0,
        "slot": "34",
        "type": "t_address"
      }
    ],
    "types": {
      "t_address": {
        "encoding": "inplace",
        "label": "address",
        "numberOfBytes": "20"
      },
      "t_array(t_bytes32)dyn_storage": {
        "base": "t_bytes32",
        "encoding": "dynamic_array",
        "label": "bytes32[]",
        "numberOfBytes": "32"
      },
      "t_bool": {
        "encoding": "inplace",
        "label": "bool",
        "numberOfBytes": "1"
      },
      "t_bytes32": {
        "encoding": "inplace",
        "label": "bytes32",
        "numberOfBytes": "32"
      },
      "t_bytes4": {
        "encoding": "inplace",
        "label": "bytes4",
        "numberOfBytes": "4"
      },
      "t_enum(WithdrawMode)14279": {
        "encoding": "inplace",
        "label": "enum WithdrawMode",
        "numberOfBytes": "1"
      },
      "t_mapping(t_address,t_bool)": {
        "encoding": "mapping",
        "key": "t_address",
        "label": "mapping(address => bool)",
        "numberOfBytes": "32",
        "value": "t_bool"
      },
      "t_mapping(t_address,t_mapping(t_address,t_bool))": {
        "encoding": "mapping",
        "key": "t_address",
        "label": "mapping(address => mapping(address => bool))",
        "numberOfBytes": "32",
        "value": "t_mapping(t_address,t_bool)"
      },
      "t_mapping(t_address,t_uint256)": {
        "encoding": "mapping",
        "key": "t_address",
        "label": "mapping(address => uint256)",
        "numberOfBytes": "32",
        "value": "t_uint256"
      },
      "t_mapping(t_bytes32,t_struct(RoleData)401_storage)": {
        "encoding": "mapping",
        "key": "t_bytes32",
        "label": "mapping(bytes32 => struct AccessControl.RoleData)",
        "numberOfBytes": "32",
        "value": "t_struct(RoleData)401_storage"
      },
      "t_mapping(t_bytes32,t_uint256)": {
        "encoding": "mapping",
        "key": "t_bytes32",
        "label": "mapping(bytes32 => uint256)",
        "numberOfBytes": "32",
        "value": "t_uint256"
      },
      "t_mapping(t_bytes4,t_bool)": {
        "encoding": "mapping",
        "key": "t_bytes4",
        "label": "mapping(bytes4 => bool)",
        "numberOfBytes": "32",
        "value": "t_bool"
      },
      "t_mapping(t_uint256,t_address)": {
        "encoding": "mapping",
        "key": "t_uint256",
        "label": "mapping(uint256 => address)",
        "numberOfBytes": "32",
        "value": "t_address"
      },
      "t_mapping(t_uint256,t_struct(TokenRoyalty)28_storage)": {
        "encoding": "mapping",
        "key": "t_uint256",
        "label": "mapping(uint256 => struct IEIP2981RoyaltyOverride.TokenRoyalty)",
        "numberOfBytes": "32",
        "value": "t_struct(TokenRoyalty)28_storage"
      },
      "t_mapping(t_uint256,t_uint256)": {
        "encoding": "mapping",
        "key": "t_uint256",
        "label": "mapping(uint256 => uint256)",
        "numberOfBytes": "32",
        "value": "t_uint256"
      },
      "t_string_storage": {
        "encoding": "bytes",
        "label": "string",
        "numberOfBytes": "32"
      },
      "t_struct(BitMap)5589_storage": {
        "encoding": "inplace",
        "label": "struct BitMaps.BitMap",
        "members": [
          {
            "astId": 5588,
            "contract": "contracts/collections/ERC721/presets/ERC721SimpleSalesCollection.sol:ERC721SimpleSalesCollection",
            "label": "_data",
            "offset": 0,
            "slot": "0",
            "type": "t_mapping(t_uint256,t_uint256)"
          }
        ],
        "numberOfBytes": "32"
      },
      "t_struct(RoleData)401_storage": {
        "encoding": "inplace",
        "label": "struct AccessControl.RoleData",
        "members": [
          {
            "astId": 398,
            "contract": "contracts/collections/ERC721/presets/ERC721SimpleSalesCollection.sol:ERC721SimpleSalesCollection",
            "label": "members",
            "offset": 0,
            "slot": "0",
            "type": "t_mapping(t_address,t_bool)"
          },
          {
            "astId": 400,
            "contract": "contracts/collections/ERC721/presets/ERC721SimpleSalesCollection.sol:ERC721SimpleSalesCollection",
            "label": "adminRole",
            "offset": 0,
            "slot": "1",
            "type": "t_bytes32"
          }
        ],
        "numberOfBytes": "64"
      },
      "t_struct(Set)5730_storage": {
        "encoding": "inplace",
        "label": "struct EnumerableSet.Set",
        "members": [
          {
            "astId": 5725,
            "contract": "contracts/collections/ERC721/presets/ERC721SimpleSalesCollection.sol:ERC721SimpleSalesCollection",
            "label": "_values",
            "offset": 0,
            "slot": "0",
            "type": "t_array(t_bytes32)dyn_storage"
          },
          {
            "astId": 5729,
            "contract": "contracts/collections/ERC721/presets/ERC721SimpleSalesCollection.sol:ERC721SimpleSalesCollection",
            "label": "_indexes",
            "offset": 0,
            "slot": "1",
            "type": "t_mapping(t_bytes32,t_uint256)"
          }
        ],
        "numberOfBytes": "64"
      },
      "t_struct(TokenRoyalty)28_storage": {
        "encoding": "inplace",
        "label": "struct IEIP2981RoyaltyOverride.TokenRoyalty",
        "members": [
          {
            "astId": 25,
            "contract": "contracts/collections/ERC721/presets/ERC721SimpleSalesCollection.sol:ERC721SimpleSalesCollection",
            "label": "recipient",
            "offset": 0,
            "slot": "0",
            "type": "t_address"
          },
          {
            "astId": 27,
            "contract": "contracts/collections/ERC721/presets/ERC721SimpleSalesCollection.sol:ERC721SimpleSalesCollection",
            "label": "bps",
            "offset": 20,
            "slot": "0",
            "type": "t_uint16"
          }
        ],
        "numberOfBytes": "32"
      },
      "t_struct(UintSet)6188_storage": {
        "encoding": "inplace",
        "label": "struct EnumerableSet.UintSet",
        "members": [
          {
            "astId": 6187,
            "contract": "contracts/collections/ERC721/presets/ERC721SimpleSalesCollection.sol:ERC721SimpleSalesCollection",
            "label": "_inner",
            "offset": 0,
            "slot": "0",
            "type": "t_struct(Set)5730_storage"
          }
        ],
        "numberOfBytes": "64"
      },
      "t_uint16": {
        "encoding": "inplace",
        "label": "uint16",
        "numberOfBytes": "2"
      },
      "t_uint256": {
        "encoding": "inplace",
        "label": "uint256",
        "numberOfBytes": "32"
      },
      "t_uint8": {
        "encoding": "inplace",
        "label": "uint8",
        "numberOfBytes": "1"
      }
    }
  }
}