{
  "address": "0x7473F6C1A7bD11a164Ffea82Ac02FcEfC0833cdD",
  "abi": [
    {
      "inputs": [
        {
          "components": [
            {
              "internalType": "address",
              "name": "ticketToken",
              "type": "address"
            },
            {
              "internalType": "uint64",
              "name": "lockedUntilTimestamp",
              "type": "uint64"
            },
            {
              "internalType": "uint256",
              "name": "totalTickets",
              "type": "uint256"
            },
            {
              "internalType": "uint256",
              "name": "emissionRate",
              "type": "uint256"
            },
            {
              "internalType": "uint64",
              "name": "emissionTimeUnit",
              "type": "uint64"
            },
            {
              "internalType": "uint64",
              "name": "emissionStart",
              "type": "uint64"
            },
            {
              "internalType": "uint64",
              "name": "emissionEnd",
              "type": "uint64"
            }
          ],
          "internalType": "struct ERC721EqualEmissionStream.Config",
          "name": "config",
          "type": "tuple"
        }
      ],
      "stateMutability": "nonpayable",
      "type": "constructor"
    },
    {
      "anonymous": false,
      "inputs": [
        {
          "indexed": false,
          "internalType": "address",
          "name": "operator",
          "type": "address"
        },
        {
          "indexed": false,
          "internalType": "address",
          "name": "beneficiary",
          "type": "address"
        },
        {
          "indexed": false,
          "internalType": "uint256",
          "name": "ticketTokenId",
          "type": "uint256"
        },
        {
          "indexed": false,
          "internalType": "address",
          "name": "claimToken",
          "type": "address"
        },
        {
          "indexed": false,
          "internalType": "uint256",
          "name": "releasedAmount",
          "type": "uint256"
        }
      ],
      "name": "Claim",
      "type": "event"
    },
    {
      "anonymous": false,
      "inputs": [
        {
          "indexed": false,
          "internalType": "address",
          "name": "operator",
          "type": "address"
        },
        {
          "indexed": false,
          "internalType": "address",
          "name": "beneficiary",
          "type": "address"
        },
        {
          "indexed": false,
          "internalType": "uint256[]",
          "name": "ticketTokenIds",
          "type": "uint256[]"
        },
        {
          "indexed": false,
          "internalType": "address",
          "name": "claimToken",
          "type": "address"
        },
        {
          "indexed": false,
          "internalType": "uint256",
          "name": "releasedAmount",
          "type": "uint256"
        }
      ],
      "name": "ClaimMany",
      "type": "event"
    },
    {
      "anonymous": false,
      "inputs": [
        {
          "indexed": false,
          "internalType": "uint8",
          "name": "version",
          "type": "uint8"
        }
      ],
      "name": "Initialized",
      "type": "event"
    },
    {
      "anonymous": false,
      "inputs": [
        {
          "indexed": true,
          "internalType": "address",
          "name": "previousOwner",
          "type": "address"
        },
        {
          "indexed": true,
          "internalType": "address",
          "name": "newOwner",
          "type": "address"
        }
      ],
      "name": "OwnershipTransferred",
      "type": "event"
    },
    {
      "inputs": [
        {
          "internalType": "uint256",
          "name": "ticketTokenId",
          "type": "uint256"
        }
      ],
      "name": "claim",
      "outputs": [],
      "stateMutability": "nonpayable",
      "type": "function"
    },
    {
      "inputs": [
        {
          "internalType": "uint256[]",
          "name": "ticketTokenIds",
          "type": "uint256[]"
        }
      ],
      "name": "claim",
      "outputs": [],
      "stateMutability": "nonpayable",
      "type": "function"
    },
    {
      "inputs": [
        {
          "internalType": "uint256",
          "name": "ticketTokenId",
          "type": "uint256"
        },
        {
          "internalType": "address",
          "name": "claimToken",
          "type": "address"
        }
      ],
      "name": "claim",
      "outputs": [],
      "stateMutability": "nonpayable",
      "type": "function"
    },
    {
      "inputs": [
        {
          "internalType": "uint256[]",
          "name": "ticketTokenIds",
          "type": "uint256[]"
        },
        {
          "internalType": "address",
          "name": "claimToken",
          "type": "address"
        },
        {
          "internalType": "address",
          "name": "owner",
          "type": "address"
        }
      ],
      "name": "claim",
      "outputs": [],
      "stateMutability": "nonpayable",
      "type": "function"
    },
    {
      "inputs": [
        {
          "internalType": "uint64",
          "name": "calcUntil",
          "type": "uint64"
        }
      ],
      "name": "emissionAmountUntil",
      "outputs": [
        {
          "internalType": "uint256",
          "name": "",
          "type": "uint256"
        }
      ],
      "stateMutability": "view",
      "type": "function"
    },
    {
      "inputs": [],
      "name": "emissionEnd",
      "outputs": [
        {
          "internalType": "uint64",
          "name": "",
          "type": "uint64"
        }
      ],
      "stateMutability": "view",
      "type": "function"
    },
    {
      "inputs": [],
      "name": "emissionRate",
      "outputs": [
        {
          "internalType": "uint256",
          "name": "",
          "type": "uint256"
        }
      ],
      "stateMutability": "view",
      "type": "function"
    },
    {
      "inputs": [],
      "name": "emissionStart",
      "outputs": [
        {
          "internalType": "uint64",
          "name": "",
          "type": "uint64"
        }
      ],
      "stateMutability": "view",
      "type": "function"
    },
    {
      "inputs": [],
      "name": "emissionTimeUnit",
      "outputs": [
        {
          "internalType": "uint64",
          "name": "",
          "type": "uint64"
        }
      ],
      "stateMutability": "view",
      "type": "function"
    },
    {
      "inputs": [
        {
          "internalType": "uint256",
          "name": "",
          "type": "uint256"
        },
        {
          "internalType": "address",
          "name": "",
          "type": "address"
        }
      ],
      "name": "entitlements",
      "outputs": [
        {
          "internalType": "uint256",
          "name": "totalClaimed",
          "type": "uint256"
        },
        {
          "internalType": "uint256",
          "name": "lastClaimedAt",
          "type": "uint256"
        }
      ],
      "stateMutability": "view",
      "type": "function"
    },
    {
      "inputs": [],
      "name": "hasERC721EmissionReleaseExtension",
      "outputs": [
        {
          "internalType": "bool",
          "name": "",
          "type": "bool"
        }
      ],
      "stateMutability": "pure",
      "type": "function"
    },
    {
      "inputs": [],
      "name": "hasERC721EqualSplitExtension",
      "outputs": [
        {
          "internalType": "bool",
          "name": "",
          "type": "bool"
        }
      ],
      "stateMutability": "pure",
      "type": "function"
    },
    {
      "inputs": [
        {
          "components": [
            {
              "internalType": "address",
              "name": "ticketToken",
              "type": "address"
            },
            {
              "internalType": "uint64",
              "name": "lockedUntilTimestamp",
              "type": "uint64"
            },
            {
              "internalType": "uint256",
              "name": "totalTickets",
              "type": "uint256"
            },
            {
              "internalType": "uint256",
              "name": "emissionRate",
              "type": "uint256"
            },
            {
              "internalType": "uint64",
              "name": "emissionTimeUnit",
              "type": "uint64"
            },
            {
              "internalType": "uint64",
              "name": "emissionStart",
              "type": "uint64"
            },
            {
              "internalType": "uint64",
              "name": "emissionEnd",
              "type": "uint64"
            }
          ],
          "internalType": "struct ERC721EqualEmissionStream.Config",
          "name": "config",
          "type": "tuple"
        },
        {
          "internalType": "address",
          "name": "deployer",
          "type": "address"
        }
      ],
      "name": "initialize",
      "outputs": [],
      "stateMutability": "nonpayable",
      "type": "function"
    },
    {
      "inputs": [
        {
          "internalType": "uint64",
          "name": "newValue",
          "type": "uint64"
        }
      ],
      "name": "lockUntil",
      "outputs": [],
      "stateMutability": "nonpayable",
      "type": "function"
    },
    {
      "inputs": [],
      "name": "lockedUntilTimestamp",
      "outputs": [
        {
          "internalType": "uint64",
          "name": "",
          "type": "uint64"
        }
      ],
      "stateMutability": "view",
      "type": "function"
    },
    {
      "inputs": [],
      "name": "name",
      "outputs": [
        {
          "internalType": "string",
          "name": "",
          "type": "string"
        }
      ],
      "stateMutability": "view",
      "type": "function"
    },
    {
      "inputs": [],
      "name": "owner",
      "outputs": [
        {
          "internalType": "address",
          "name": "",
          "type": "address"
        }
      ],
      "stateMutability": "view",
      "type": "function"
    },
    {
      "inputs": [
        {
          "internalType": "uint64",
          "name": "calcUntil",
          "type": "uint64"
        }
      ],
      "name": "releasedAmountUntil",
      "outputs": [
        {
          "internalType": "uint256",
          "name": "",
          "type": "uint256"
        }
      ],
      "stateMutability": "view",
      "type": "function"
    },
    {
      "inputs": [],
      "name": "renounceOwnership",
      "outputs": [],
      "stateMutability": "nonpayable",
      "type": "function"
    },
    {
      "inputs": [
        {
          "internalType": "uint64",
          "name": "newValue",
          "type": "uint64"
        }
      ],
      "name": "setEmissionEnd",
      "outputs": [],
      "stateMutability": "nonpayable",
      "type": "function"
    },
    {
      "inputs": [
        {
          "internalType": "uint256",
          "name": "newValue",
          "type": "uint256"
        }
      ],
      "name": "setEmissionRate",
      "outputs": [],
      "stateMutability": "nonpayable",
      "type": "function"
    },
    {
      "inputs": [
        {
          "internalType": "uint64",
          "name": "newValue",
          "type": "uint64"
        }
      ],
      "name": "setEmissionStart",
      "outputs": [],
      "stateMutability": "nonpayable",
      "type": "function"
    },
    {
      "inputs": [
        {
          "internalType": "uint64",
          "name": "newValue",
          "type": "uint64"
        }
      ],
      "name": "setEmissionTimeUnit",
      "outputs": [],
      "stateMutability": "nonpayable",
      "type": "function"
    },
    {
      "inputs": [
        {
          "internalType": "uint256",
          "name": "newValue",
          "type": "uint256"
        }
      ],
      "name": "setTotalTickets",
      "outputs": [],
      "stateMutability": "nonpayable",
      "type": "function"
    },
    {
      "inputs": [
        {
          "internalType": "uint256[]",
          "name": "ticketTokenIds",
          "type": "uint256[]"
        },
        {
          "internalType": "address",
          "name": "claimToken",
          "type": "address"
        }
      ],
      "name": "streamClaimableAmount",
      "outputs": [
        {
          "internalType": "uint256",
          "name": "",
          "type": "uint256"
        }
      ],
      "stateMutability": "view",
      "type": "function"
    },
    {
      "inputs": [
        {
          "internalType": "uint256",
          "name": "ticketTokenId",
          "type": "uint256"
        }
      ],
      "name": "streamClaimableAmount",
      "outputs": [
        {
          "internalType": "uint256",
          "name": "",
          "type": "uint256"
        }
      ],
      "stateMutability": "view",
      "type": "function"
    },
    {
      "inputs": [
        {
          "internalType": "uint256",
          "name": "ticketTokenId",
          "type": "uint256"
        },
        {
          "internalType": "address",
          "name": "claimToken",
          "type": "address"
        }
      ],
      "name": "streamClaimableAmount",
      "outputs": [
        {
          "internalType": "uint256",
          "name": "",
          "type": "uint256"
        }
      ],
      "stateMutability": "view",
      "type": "function"
    },
    {
      "inputs": [
        {
          "internalType": "uint256[]",
          "name": "ticketTokenIds",
          "type": "uint256[]"
        },
        {
          "internalType": "address",
          "name": "claimToken",
          "type": "address"
        }
      ],
      "name": "streamTotalClaimed",
      "outputs": [
        {
          "internalType": "uint256",
          "name": "",
          "type": "uint256"
        }
      ],
      "stateMutability": "view",
      "type": "function"
    },
    {
      "inputs": [],
      "name": "streamTotalClaimed",
      "outputs": [
        {
          "internalType": "uint256",
          "name": "",
          "type": "uint256"
        }
      ],
      "stateMutability": "view",
      "type": "function"
    },
    {
      "inputs": [
        {
          "internalType": "uint256[]",
          "name": "ticketTokenIds",
          "type": "uint256[]"
        }
      ],
      "name": "streamTotalClaimed",
      "outputs": [
        {
          "internalType": "uint256",
          "name": "",
          "type": "uint256"
        }
      ],
      "stateMutability": "view",
      "type": "function"
    },
    {
      "inputs": [
        {
          "internalType": "uint256",
          "name": "ticketTokenId",
          "type": "uint256"
        },
        {
          "internalType": "address",
          "name": "claimToken",
          "type": "address"
        }
      ],
      "name": "streamTotalClaimed",
      "outputs": [
        {
          "internalType": "uint256",
          "name": "",
          "type": "uint256"
        }
      ],
      "stateMutability": "view",
      "type": "function"
    },
    {
      "inputs": [
        {
          "internalType": "address",
          "name": "claimToken",
          "type": "address"
        }
      ],
      "name": "streamTotalClaimed",
      "outputs": [
        {
          "internalType": "uint256",
          "name": "",
          "type": "uint256"
        }
      ],
      "stateMutability": "view",
      "type": "function"
    },
    {
      "inputs": [
        {
          "internalType": "uint256",
          "name": "ticketTokenId",
          "type": "uint256"
        }
      ],
      "name": "streamTotalClaimed",
      "outputs": [
        {
          "internalType": "uint256",
          "name": "",
          "type": "uint256"
        }
      ],
      "stateMutability": "view",
      "type": "function"
    },
    {
      "inputs": [],
      "name": "streamTotalSupply",
      "outputs": [
        {
          "internalType": "uint256",
          "name": "",
          "type": "uint256"
        }
      ],
      "stateMutability": "view",
      "type": "function"
    },
    {
      "inputs": [
        {
          "internalType": "address",
          "name": "claimToken",
          "type": "address"
        }
      ],
      "name": "streamTotalSupply",
      "outputs": [
        {
          "internalType": "uint256",
          "name": "",
          "type": "uint256"
        }
      ],
      "stateMutability": "view",
      "type": "function"
    },
    {
      "inputs": [
        {
          "internalType": "bytes4",
          "name": "interfaceId",
          "type": "bytes4"
        }
      ],
      "name": "supportsInterface",
      "outputs": [
        {
          "internalType": "bool",
          "name": "",
          "type": "bool"
        }
      ],
      "stateMutability": "view",
      "type": "function"
    },
    {
      "inputs": [],
      "name": "ticketToken",
      "outputs": [
        {
          "internalType": "address",
          "name": "",
          "type": "address"
        }
      ],
      "stateMutability": "view",
      "type": "function"
    },
    {
      "inputs": [],
      "name": "totalTickets",
      "outputs": [
        {
          "internalType": "uint256",
          "name": "",
          "type": "uint256"
        }
      ],
      "stateMutability": "view",
      "type": "function"
    },
    {
      "inputs": [
        {
          "internalType": "address",
          "name": "newOwner",
          "type": "address"
        }
      ],
      "name": "transferOwnership",
      "outputs": [],
      "stateMutability": "nonpayable",
      "type": "function"
    },
    {
      "inputs": [],
      "name": "version",
      "outputs": [
        {
          "internalType": "string",
          "name": "",
          "type": "string"
        }
      ],
      "stateMutability": "view",
      "type": "function"
    },
    {
      "stateMutability": "payable",
      "type": "receive"
    }
  ],
  "transactionHash": "0x1c6670ce0d67494e1d788ff60d48366211629b33370fec195808c091a7f504c6",
  "args": [
    {
      "ticketToken": "0x0000000000000000000000000000000000000000",
      "lockedUntilTimestamp": 0,
      "totalTickets": 0,
      "emissionRate": 0,
      "emissionTimeUnit": 0,
      "emissionStart": 0,
      "emissionEnd": 0
    }
  ],
  "numDeployments": 1,
  "solcInputHash": "b4e41c71547365416a59b3966c49faa3",
  "bytecode": "0x60806040523480156200001157600080fd5b5060405162002830380380620028308339810160408190526200003491620004c4565b6200003f3362000057565b6001600355620000508133620000a9565b5062000618565b600280546001600160a01b038381166001600160a01b0319831681179093556040519116919082907f8be0079c531659141344cd1fd0a4f28419497f9722a3daafe3b4186f6b6457e090600090a35050565b6000620000b760016200016e565b90508015620000d0576000805461ff0019166101001790555b620000db8262000057565b82516020840151620000ee919062000220565b62000112836060015184608001518560a001518660c001516200025a60201b60201c565b6040830151620001229062000298565b801562000169576000805461ff0019169055604051600181527f7f26b83ff96e1f2b6a682f133852f6798a09c465da95921460cefb38474024989060200160405180910390a15b505050565b60008054610100900460ff1615620001d7578160ff166001148015620001a75750620001a530620002d060201b6200156d1760201c565b155b620001cf5760405162461bcd60e51b8152600401620001c6906200057f565b60405180910390fd5b506000919050565b60005460ff808416911610620002015760405162461bcd60e51b8152600401620001c6906200057f565b506000805460ff191660ff92909216919091179055600190565b919050565b600054610100900460ff166200024a5760405162461bcd60e51b8152600401620001c690620005cd565b620002568282620002df565b5050565b600054610100900460ff16620002845760405162461bcd60e51b8152600401620001c690620005cd565b620002928484848462000349565b50505050565b600054610100900460ff16620002c25760405162461bcd60e51b8152600401620001c690620005cd565b620002cd81620003d4565b50565b6001600160a01b03163b151590565b600054610100900460ff16620003095760405162461bcd60e51b8152600401620001c690620005cd565b600480546001600160401b038316600160a01b026001600160e01b03199091166001600160a01b0385161717905562000256631ba050e960e21b62000410565b600054610100900460ff16620003735760405162461bcd60e51b8152600401620001c690620005cd565b6007849055600880546001600160401b03838116600160801b02600160801b600160c01b031986831668010000000000000000026001600160801b031990941692881692909217929092171617905562000292634d0b5a4960e01b62000410565b600054610100900460ff16620003fe5760405162461bcd60e51b8152600401620001c690620005cd565b6009819055620002cd632d5305cb60e21b5b6001600160e01b031980821614156200046c5760405162461bcd60e51b815260206004820152601c60248201527f4552433136353a20696e76616c696420696e74657266616365206964000000006044820152606401620001c6565b6001600160e01b0319166000908152600160208190526040909120805460ff19169091179055565b80516001600160a01b03811681146200021b57600080fd5b80516001600160401b03811681146200021b57600080fd5b600060e08284031215620004d757600080fd5b60405160e081016001600160401b03811182821017156200050857634e487b7160e01b600052604160045260246000fd5b604052620005168362000494565b81526200052660208401620004ac565b602082015260408301516040820152606083015160608201526200054d60808401620004ac565b60808201526200056060a08401620004ac565b60a08201526200057360c08401620004ac565b60c08201529392505050565b6020808252602e908201527f496e697469616c697a61626c653a20636f6e747261637420697320616c72656160408201526d191e481a5b9a5d1a585b1a5e995960921b606082015260800190565b6020808252602b908201527f496e697469616c697a61626c653a20636f6e7472616374206973206e6f74206960408201526a6e697469616c697a696e6760a81b606082015260800190565b61220880620006286000396000f3fe6080604052600436106101cf5760003560e01c80630191c0af146101e857806301ffc9a71461021b57806306fdde031461024b5780631bc51b26146102a05780631c725fdc146102b457806325289bad146102d45780632890d03314610313578063379607f5146103285780633b3f12e2146103485780633d2dded514610368578063513da948146103a557806354fd4d50146103cc57806357dc48c8146103fb578063619496361461044f5780636ba4c1381461046f578063715018a61461048f57806378b094ca146104a4578063790c0c73146104c45780638368909c146104e457806389c6b8151461050b5780638da5cb5b1461052b578063968d9b2c1461054d57806396afc4501461056d5780639edfe83014610583578063a1bdb15e146105a3578063a1cf6493146105c3578063a86b21e814610606578063aa02a74b14610626578063aaf2f99914610646578063ae890c0a14610666578063c088184914610686578063d1335b69146102a0578063d5ed4d5a146106bc578063d97314f5146106dc578063dd11247e146106fc578063ddd5e1b214610712578063f2fde38b14610732578063f389b6e414610752578063f4415ad614610772578063f66e38c2146107aa57600080fd5b366101e357600034116101e157600080fd5b005b600080fd5b3480156101f457600080fd5b50610208610203366004611b95565b6107ca565b6040519081526020015b60405180910390f35b34801561022757600080fd5b5061023b610236366004611beb565b610822565b6040519015158152602001610212565b34801561025757600080fd5b506102936040518060400160405280601c81526020017b45524337323120457175616c20456d697373696f6e2053747265616d60201b81525081565b6040516102129190611c15565b3480156102ac57600080fd5b50600161023b565b3480156102c057600080fd5b506101e16102cf366004611c81565b610862565b3480156102e057600080fd5b506004546102fb90600160a01b90046001600160401b031681565b6040516001600160401b039091168152602001610212565b34801561031f57600080fd5b506102086108fb565b34801561033457600080fd5b506101e1610343366004611c9c565b61090c565b34801561035457600080fd5b50610208610363366004611b95565b61091a565b34801561037457600080fd5b506000805260066020527f54cdd369e4e8a8515e52ca72ec816c2101831ad1f18bf44102ed171459c9b4f854610208565b3480156103b157600080fd5b506008546102fb90600160401b90046001600160401b031681565b3480156103d857600080fd5b5061029360405180604001604052806003815260200162302e3160e81b81525081565b34801561040757600080fd5b5061043a610416366004611cb5565b60056020908152600092835260408084209091529082529020805460019091015482565b60408051928352602083019190915201610212565b34801561045b57600080fd5b506008546102fb906001600160401b031681565b34801561047b57600080fd5b506101e161048a366004611ce5565b610998565b34801561049b57600080fd5b506101e16109a9565b3480156104b057600080fd5b506101e16104bf366004611c81565b6109e4565b3480156104d057600080fd5b506102086104df366004611d26565b610a71565b3480156104f057600080fd5b506008546102fb90600160801b90046001600160401b031681565b34801561051757600080fd5b50610208610526366004611ce5565b610b44565b34801561053757600080fd5b50610540610b52565b6040516102129190611d43565b34801561055957600080fd5b50610208610568366004611c9c565b610b61565b34801561057957600080fd5b5061020860075481565b34801561058f57600080fd5b5061020861059e366004611c81565b610b6e565b3480156105af57600080fd5b506101e16105be366004611c9c565b610bb3565b3480156105cf57600080fd5b506102086105de366004611cb5565b60009182526005602090815260408084206001600160a01b0393909316845291905290205490565b34801561061257600080fd5b50610208610621366004611c81565b610c19565b34801561063257600080fd5b506101e1610641366004611d57565b610c5f565b34801561065257600080fd5b506101e1610661366004611c81565b610d12565b34801561067257600080fd5b506101e1610681366004611c9c565b610d9f565b34801561069257600080fd5b506102086106a1366004611d26565b6001600160a01b031660009081526006602052604090205490565b3480156106c857600080fd5b50600454610540906001600160a01b031681565b3480156106e857600080fd5b506101e16106f7366004611c81565b610e05565b34801561070857600080fd5b5061020860095481565b34801561071e57600080fd5b506101e161072d366004611cb5565b610e88565b34801561073e57600080fd5b506101e161074d366004611d26565b611119565b34801561075e57600080fd5b506101e161076d366004611e28565b6111b6565b34801561077e57600080fd5b5061020861078d366004611c9c565b600090815260056020908152604080832083805290915290205490565b3480156107b657600080fd5b506102086107c5366004611cb5565b611515565b600080805b84811015610817576107f98686838181106107ec576107ec611e8f565b9050602002013585611515565b6108039083611ebb565b91508061080f81611ed3565b9150506107cf565b5090505b9392505050565b60006301ffc9a760e01b6001600160e01b03198316148061085c57506001600160e01b0319821660009081526001602052604090205460ff165b92915050565b3361086b610b52565b6001600160a01b03161461089a5760405162461bcd60e51b815260040161089190611eee565b60405180910390fd5b6004546001600160401b03600160a01b9091048116908216116108cf5760405162461bcd60e51b815260040161089190611f23565b600480546001600160401b03909216600160a01b02600160a01b600160e01b0319909216919091179055565b60006109076000610a71565b905090565b610917816000610e88565b50565b600080805b84811015610817576005600087878481811061093d5761093d611e8f565b9050602002013581526020019081526020016000206000856001600160a01b03166001600160a01b0316815260200190815260200160002060000154826109849190611ebb565b91508061099081611ed3565b91505061091f565b6109a582826000336111b6565b5050565b336109b2610b52565b6001600160a01b0316146109d85760405162461bcd60e51b815260040161089190611eee565b6109e2600061157c565b565b336109ed610b52565b6001600160a01b031614610a135760405162461bcd60e51b815260040161089190611eee565b60045442600160a01b9091046001600160401b031610610a455760405162461bcd60e51b815260040161089190611f51565b600880546001600160401b03909216600160801b02600160801b600160c01b0319909216919091179055565b60006001600160a01b038216610aa5576001600160a01b03821660009081526006602052604090205461085c904790611ebb565b6040516370a0823160e01b81526001600160a01b038316906370a0823190610ad1903090600401611d43565b60206040518083038186803b158015610ae957600080fd5b505afa158015610afd573d6000803e3d6000fd5b505050506040513d601f19601f82011682018060405250810190610b219190611f7f565b6001600160a01b03831660009081526006602052604090205461085c9190611ebb565b600061081b8383600061091a565b6002546001600160a01b031690565b600061085c826000611515565b6008546000906001600160401b0380821691610b9391600160401b9091041684611f98565b610b9d9190611fd6565b6001600160401b031660075461085c9190611ffc565b33610bbc610b52565b6001600160a01b031614610be25760405162461bcd60e51b815260040161089190611eee565b60045442600160a01b9091046001600160401b031610610c145760405162461bcd60e51b815260040161089190611f51565b600755565b6008546007546000916001600160401b038082169291610c4291600160401b9091041685611f98565b6001600160401b0316610c559190611ffc565b61085c919061201b565b6000610c6b60016115ce565b90508015610c83576000805461ff0019166101001790555b610c8c8261157c565b610c9e83600001518460200151611662565b610cba836060015184608001518560a001518660c00151611693565b610cc783604001516116cc565b8015610d0d576000805461ff0019169055604051600181527f7f26b83ff96e1f2b6a682f133852f6798a09c465da95921460cefb38474024989060200160405180910390a15b505050565b33610d1b610b52565b6001600160a01b031614610d415760405162461bcd60e51b815260040161089190611eee565b60045442600160a01b9091046001600160401b031610610d735760405162461bcd60e51b815260040161089190611f51565b600880546001600160401b03909216600160401b02600160401b600160801b0319909216919091179055565b33610da8610b52565b6001600160a01b031614610dce5760405162461bcd60e51b815260040161089190611eee565b60045442600160a01b9091046001600160401b031610610e005760405162461bcd60e51b815260040161089190611f23565b600955565b33610e0e610b52565b6001600160a01b031614610e345760405162461bcd60e51b815260040161089190611eee565b60045442600160a01b9091046001600160401b031610610e665760405162461bcd60e51b815260040161089190611f51565b600880546001600160401b0319166001600160401b0392909216919091179055565b60026003541415610eab5760405162461bcd60e51b81526004016108919061202f565b6002600355610eba82826116fc565b600480546040516331a9108f60e11b81529182018490526000916001600160a01b0390911690636352211e9060240160206040518083038186803b158015610f0157600080fd5b505afa158015610f15573d6000803e3d6000fd5b505050506040513d601f19601f82011682018060405250810190610f399190612066565b90506000610f478484611515565b905060008111610f935760405162461bcd60e51b815260206004820152601760248201527653545245414d2f4e4f5448494e475f544f5f434c41494d60481b6044820152606401610891565b60008481526005602090815260408083206001600160a01b038716845290915281208054839290610fc5908490611ebb565b909155505060008481526005602090815260408083206001600160a01b038716845282528083204260019091015560069091528120805483929061100a908490611ebb565b90915550506001600160a01b038316611035576110306001600160a01b03831682611706565b6110b7565b60405163a9059cbb60e01b81526001600160a01b0384169063a9059cbb906110639085908590600401612083565b602060405180830381600087803b15801561107d57600080fd5b505af1158015611091573d6000803e3d6000fd5b505050506040513d601f19601f820116820180604052508101906110b5919061209c565b505b604080513381526001600160a01b038481166020830152818301879052851660608201526080810183905290517fa2d3c4c1fc934d6d2d8f9e862df90c01ae4eb0e920cd8957d242ba26b8dc40789181900360a00190a1505060016003555050565b33611122610b52565b6001600160a01b0316146111485760405162461bcd60e51b815260040161089190611eee565b6001600160a01b0381166111ad5760405162461bcd60e51b815260206004820152602660248201527f4f776e61626c653a206e6577206f776e657220697320746865207a65726f206160448201526564647265737360d01b6064820152608401610891565b6109178161157c565b600260035414156111d95760405162461bcd60e51b81526004016108919061202f565b60026003556000805b848110156113f25761120c8686838181106111ff576111ff611e8f565b90506020020135856116fc565b6004546001600160a01b038085169116636352211e88888581811061123357611233611e8f565b905060200201356040518263ffffffff1660e01b815260040161125891815260200190565b60206040518083038186803b15801561127057600080fd5b505afa158015611284573d6000803e3d6000fd5b505050506040513d601f19601f820116820180604052508101906112a89190612066565b6001600160a01b0316146112f55760405162461bcd60e51b815260206004820152601460248201527329aa2922a0a697a727aa2fa7232a2fa7aba722a960611b6044820152606401610891565b600061131987878481811061130c5761130c611e8f565b9050602002013586611515565b905080156113df57806005600089898681811061133857611338611e8f565b9050602002013581526020019081526020016000206000876001600160a01b03166001600160a01b0316815260200190815260200160002060000160008282546113829190611ebb565b909155504290506005600089898681811061139f5761139f611e8f565b6020908102929092013583525081810192909252604090810160009081206001600160a01b038a1682529092529020600101556113dc8184611ebb565b92505b50806113ea81611ed3565b9150506111e2565b506001600160a01b0383166000908152600660205260408120805483929061141b908490611ebb565b90915550506001600160a01b038316611446576114416001600160a01b03831682611706565b6114c8565b60405163a9059cbb60e01b81526001600160a01b0384169063a9059cbb906114749085908590600401612083565b602060405180830381600087803b15801561148e57600080fd5b505af11580156114a2573d6000803e3d6000fd5b505050506040513d601f19601f820116820180604052508101906114c6919061209c565b505b7fd84a5c424a4f777bcf4f645712b8e5ebfc550f42bde444fa822fe98ee1b132b1338387878786604051611501969594939291906120be565b60405180910390a150506001600355505050565b60008061153561152e61152785610a71565b868661181c565b85856118a4565b60008581526005602090815260408083206001600160a01b03881684529091529020549091506115659082612122565b949350505050565b6001600160a01b03163b151590565b600280546001600160a01b038381166001600160a01b0319831681179093556040519116919082907f8be0079c531659141344cd1fd0a4f28419497f9722a3daafe3b4186f6b6457e090600090a35050565b60008054610100900460ff161561161c578160ff1660011480156115f857506115f63061156d565b155b6116145760405162461bcd60e51b815260040161089190612139565b506000919050565b60005460ff8084169116106116435760405162461bcd60e51b815260040161089190612139565b506000805460ff191660ff92909216919091179055600190565b919050565b600054610100900460ff166116895760405162461bcd60e51b815260040161089190612187565b6109a582826118b4565b600054610100900460ff166116ba5760405162461bcd60e51b815260040161089190612187565b6116c684848484611919565b50505050565b600054610100900460ff166116f35760405162461bcd60e51b815260040161089190612187565b6109178161199a565b6109a582826119d6565b804710156117565760405162461bcd60e51b815260206004820152601d60248201527f416464726573733a20696e73756666696369656e742062616c616e63650000006044820152606401610891565b6000826001600160a01b03168260405160006040518083038185875af1925050503d80600081146117a3576040519150601f19603f3d011682016040523d82523d6000602084013e6117a8565b606091505b5050905080610d0d5760405162461bcd60e51b815260206004820152603a60248201527f416464726573733a20756e61626c6520746f2073656e642076616c75652c20726044820152791958da5c1a595b9d081b585e481a185d99481c995d995c9d195960321b6064820152608401610891565b600854600090600160401b90046001600160401b03164210156118415750600061081b565b600854600160801b90046001600160401b0316158015906118735750600854600160801b90046001600160401b031642115b1561189b5760085461189490600160801b90046001600160401b0316610b6e565b905061081b565b61189442610b6e565b600060095484611565919061201b565b600054610100900460ff166118db5760405162461bcd60e51b815260040161089190612187565b600480546001600160401b038316600160a01b026001600160e01b03199091166001600160a01b038516171790556109a5631ba050e960e21b611aa9565b600054610100900460ff166119405760405162461bcd60e51b815260040161089190612187565b6007849055600880546001600160401b03838116600160801b02600160801b600160c01b0319868316600160401b026001600160801b03199094169288169290921792909217161790556116c6634d0b5a4960e01b611aa9565b600054610100900460ff166119c15760405162461bcd60e51b815260040161089190612187565b6009819055610917632d5305cb60e21b611aa9565b60085442600160401b9091046001600160401b031610611a2d5760405162461bcd60e51b815260206004820152601260248201527114d5149150534bd393d517d4d5105495115160721b6044820152606401610891565b600854611a43906001600160401b031642612122565b60008381526005602090815260408083206001600160a01b0386168452909152902060010154106109a55760405162461bcd60e51b815260206004820152601060248201526f53545245414d2f544f4f5f4541524c5960801b6044820152606401610891565b6001600160e01b03198082161415611b025760405162461bcd60e51b815260206004820152601c60248201527b115490cc4d8d4e881a5b9d985b1a59081a5b9d195c999858d9481a5960221b6044820152606401610891565b6001600160e01b0319166000908152600160208190526040909120805460ff19169091179055565b60008083601f840112611b3c57600080fd5b5081356001600160401b03811115611b5357600080fd5b6020830191508360208260051b8501011115611b6e57600080fd5b9250929050565b6001600160a01b038116811461091757600080fd5b803561165d81611b75565b600080600060408486031215611baa57600080fd5b83356001600160401b03811115611bc057600080fd5b611bcc86828701611b2a565b9094509250506020840135611be081611b75565b809150509250925092565b600060208284031215611bfd57600080fd5b81356001600160e01b03198116811461081b57600080fd5b600060208083528351808285015260005b81811015611c4257858101830151858201604001528201611c26565b81811115611c54576000604083870101525b50601f01601f1916929092016040019392505050565b80356001600160401b038116811461165d57600080fd5b600060208284031215611c9357600080fd5b61081b82611c6a565b600060208284031215611cae57600080fd5b5035919050565b60008060408385031215611cc857600080fd5b823591506020830135611cda81611b75565b809150509250929050565b60008060208385031215611cf857600080fd5b82356001600160401b03811115611d0e57600080fd5b611d1a85828601611b2a565b90969095509350505050565b600060208284031215611d3857600080fd5b813561081b81611b75565b6001600160a01b0391909116815260200190565b600080828403610100811215611d6c57600080fd5b60e0811215611d7a57600080fd5b5060405160e081016001600160401b0381118282101715611dab57634e487b7160e01b600052604160045260246000fd5b604052611db784611b8a565b8152611dc560208501611c6a565b60208201526040840135604082015260608401356060820152611dea60808501611c6a565b6080820152611dfb60a08501611c6a565b60a0820152611e0c60c08501611c6a565b60c08201529150611e1f60e08401611b8a565b90509250929050565b60008060008060608587031215611e3e57600080fd5b84356001600160401b03811115611e5457600080fd5b611e6087828801611b2a565b9095509350506020850135611e7481611b75565b91506040850135611e8481611b75565b939692955090935050565b634e487b7160e01b600052603260045260246000fd5b634e487b7160e01b600052601160045260246000fd5b60008219821115611ece57611ece611ea5565b500190565b6000600019821415611ee757611ee7611ea5565b5060010190565b6020808252818101527f4f776e61626c653a2063616c6c6572206973206e6f7420746865206f776e6572604082015260600190565b60208082526014908201527314d5149150534bd0d0539393d517d49155d2539160621b604082015260600190565b60208082526014908201527314d5149150534bd0d3d3919251d7d313d0d2d15160621b604082015260600190565b600060208284031215611f9157600080fd5b5051919050565b60006001600160401b0383811690831681811015611fb857611fb8611ea5565b039392505050565b634e487b7160e01b600052601260045260246000fd5b60006001600160401b0383811680611ff057611ff0611fc0565b92169190910492915050565b600081600019048311821515161561201657612016611ea5565b500290565b60008261202a5761202a611fc0565b500490565b6020808252601f908201527f5265656e7472616e637947756172643a207265656e7472616e742063616c6c00604082015260600190565b60006020828403121561207857600080fd5b815161081b81611b75565b6001600160a01b03929092168252602082015260400190565b6000602082840312156120ae57600080fd5b8151801515811461081b57600080fd5b6001600160a01b038781168252868116602083015260a06040830181905282018590526000906001600160fb1b038611156120f857600080fd5b8560051b808860c0860137600090840160c001908152941660608301525060800152949350505050565b60008282101561213457612134611ea5565b500390565b6020808252602e908201527f496e697469616c697a61626c653a20636f6e747261637420697320616c72656160408201526d191e481a5b9a5d1a585b1a5e995960921b606082015260800190565b6020808252602b908201527f496e697469616c697a61626c653a20636f6e7472616374206973206e6f74206960408201526a6e697469616c697a696e6760a81b60608201526080019056fea2646970667358221220763049d110666c57e6751f6d6eaf611a39bf295d60b2f9a9768368c8c638789564736f6c63430008090033",
  "devdoc": {
    "kind": "dev",
    "methods": {
      "owner()": {
        "details": "Returns the address of the current owner."
      },
      "renounceOwnership()": {
        "details": "Leaves the contract without owner. It will not be possible to call `onlyOwner` functions anymore. Can only be called by the current owner. NOTE: Renouncing ownership will leave the contract without an owner, thereby removing any functionality that is only available to the owner."
      },
      "supportsInterface(bytes4)": {
        "details": "See {IERC165-supportsInterface}."
      },
      "transferOwnership(address)": {
        "details": "Transfers ownership of the contract to a new account (`newOwner`). Can only be called by the current owner."
      }
    },
    "version": 1
  },
  "userdoc": {
    "kind": "user",
    "methods": {},
    "version": 1
  },
  "storageLayout": {
    "storage": [
      {
        "astId": 886,
        "contract": "contracts/streams/ERC721/presets/ERC721EqualEmissionStream.sol:ERC721EqualEmissionStream",
        "label": "_initialized",
        "offset": 0,
        "slot": "0",
        "type": "t_uint8"
      },
      {
        "astId": 889,
        "contract": "contracts/streams/ERC721/presets/ERC721EqualEmissionStream.sol:ERC721EqualEmissionStream",
        "label": "_initializing",
        "offset": 1,
        "slot": "0",
        "type": "t_bool"
      },
      {
        "astId": 4693,
        "contract": "contracts/streams/ERC721/presets/ERC721EqualEmissionStream.sol:ERC721EqualEmissionStream",
        "label": "_supportedInterfaces",
        "offset": 0,
        "slot": "1",
        "type": "t_mapping(t_bytes4,t_bool)"
      },
      {
        "astId": 782,
        "contract": "contracts/streams/ERC721/presets/ERC721EqualEmissionStream.sol:ERC721EqualEmissionStream",
        "label": "_owner",
        "offset": 0,
        "slot": "2",
        "type": "t_address"
      },
      {
        "astId": 1124,
        "contract": "contracts/streams/ERC721/presets/ERC721EqualEmissionStream.sol:ERC721EqualEmissionStream",
        "label": "_status",
        "offset": 0,
        "slot": "3",
        "type": "t_uint256"
      },
      {
        "astId": 11590,
        "contract": "contracts/streams/ERC721/presets/ERC721EqualEmissionStream.sol:ERC721EqualEmissionStream",
        "label": "ticketToken",
        "offset": 0,
        "slot": "4",
        "type": "t_address"
      },
      {
        "astId": 11592,
        "contract": "contracts/streams/ERC721/presets/ERC721EqualEmissionStream.sol:ERC721EqualEmissionStream",
        "label": "lockedUntilTimestamp",
        "offset": 20,
        "slot": "4",
        "type": "t_uint64"
      },
      {
        "astId": 11599,
        "contract": "contracts/streams/ERC721/presets/ERC721EqualEmissionStream.sol:ERC721EqualEmissionStream",
        "label": "entitlements",
        "offset": 0,
        "slot": "5",
        "type": "t_mapping(t_uint256,t_mapping(t_address,t_struct(Entitlement)11588_storage))"
      },
      {
        "astId": 11603,
        "contract": "contracts/streams/ERC721/presets/ERC721EqualEmissionStream.sol:ERC721EqualEmissionStream",
        "label": "_streamTotalClaimed",
        "offset": 0,
        "slot": "6",
        "type": "t_mapping(t_address,t_uint256)"
      },
      {
        "astId": 13241,
        "contract": "contracts/streams/ERC721/presets/ERC721EqualEmissionStream.sol:ERC721EqualEmissionStream",
        "label": "emissionRate",
        "offset": 0,
        "slot": "7",
        "type": "t_uint256"
      },
      {
        "astId": 13243,
        "contract": "contracts/streams/ERC721/presets/ERC721EqualEmissionStream.sol:ERC721EqualEmissionStream",
        "label": "emissionTimeUnit",
        "offset": 0,
        "slot": "8",
        "type": "t_uint64"
      },
      {
        "astId": 13245,
        "contract": "contracts/streams/ERC721/presets/ERC721EqualEmissionStream.sol:ERC721EqualEmissionStream",
        "label": "emissionStart",
        "offset": 8,
        "slot": "8",
        "type": "t_uint64"
      },
      {
        "astId": 13247,
        "contract": "contracts/streams/ERC721/presets/ERC721EqualEmissionStream.sol:ERC721EqualEmissionStream",
        "label": "emissionEnd",
        "offset": 16,
        "slot": "8",
        "type": "t_uint64"
      },
      {
        "astId": 13546,
        "contract": "contracts/streams/ERC721/presets/ERC721EqualEmissionStream.sol:ERC721EqualEmissionStream",
        "label": "totalTickets",
        "offset": 0,
        "slot": "9",
        "type": "t_uint256"
      }
    ],
    "types": {
      "t_address": {
        "encoding": "inplace",
        "label": "address",
        "numberOfBytes": "20"
      },
      "t_bool": {
        "encoding": "inplace",
        "label": "bool",
        "numberOfBytes": "1"
      },
      "t_bytes4": {
        "encoding": "inplace",
        "label": "bytes4",
        "numberOfBytes": "4"
      },
      "t_mapping(t_address,t_struct(Entitlement)11588_storage)": {
        "encoding": "mapping",
        "key": "t_address",
        "label": "mapping(address => struct ERC721MultiTokenStream.Entitlement)",
        "numberOfBytes": "32",
        "value": "t_struct(Entitlement)11588_storage"
      },
      "t_mapping(t_address,t_uint256)": {
        "encoding": "mapping",
        "key": "t_address",
        "label": "mapping(address => uint256)",
        "numberOfBytes": "32",
        "value": "t_uint256"
      },
      "t_mapping(t_bytes4,t_bool)": {
        "encoding": "mapping",
        "key": "t_bytes4",
        "label": "mapping(bytes4 => bool)",
        "numberOfBytes": "32",
        "value": "t_bool"
      },
      "t_mapping(t_uint256,t_mapping(t_address,t_struct(Entitlement)11588_storage))": {
        "encoding": "mapping",
        "key": "t_uint256",
        "label": "mapping(uint256 => mapping(address => struct ERC721MultiTokenStream.Entitlement))",
        "numberOfBytes": "32",
        "value": "t_mapping(t_address,t_struct(Entitlement)11588_storage)"
      },
      "t_struct(Entitlement)11588_storage": {
        "encoding": "inplace",
        "label": "struct ERC721MultiTokenStream.Entitlement",
        "members": [
          {
            "astId": 11585,
            "contract": "contracts/streams/ERC721/presets/ERC721EqualEmissionStream.sol:ERC721EqualEmissionStream",
            "label": "totalClaimed",
            "offset": 0,
            "slot": "0",
            "type": "t_uint256"
          },
          {
            "astId": 11587,
            "contract": "contracts/streams/ERC721/presets/ERC721EqualEmissionStream.sol:ERC721EqualEmissionStream",
            "label": "lastClaimedAt",
            "offset": 0,
            "slot": "1",
            "type": "t_uint256"
          }
        ],
        "numberOfBytes": "64"
      },
      "t_uint256": {
        "encoding": "inplace",
        "label": "uint256",
        "numberOfBytes": "32"
      },
      "t_uint64": {
        "encoding": "inplace",
        "label": "uint64",
        "numberOfBytes": "8"
      },
      "t_uint8": {
        "encoding": "inplace",
        "label": "uint8",
        "numberOfBytes": "1"
      }
    }
  }
}