{
  "address": "0x3c7Be420A8CD742eFC2AB3F6d99e3C1fb0A6fa7D",
  "abi": [
    {
      "inputs": [
        {
          "components": [
            {
              "internalType": "string",
              "name": "name",
              "type": "string"
            },
            {
              "internalType": "string",
              "name": "symbol",
              "type": "string"
            },
            {
              "internalType": "string",
              "name": "contractURI",
              "type": "string"
            },
            {
              "internalType": "string",
              "name": "placeholderURI",
              "type": "string"
            },
            {
              "internalType": "string",
              "name": "tokenURIPrefix",
              "type": "string"
            },
            {
              "internalType": "uint256",
              "name": "maxSupply",
              "type": "uint256"
            },
            {
              "components": [
                {
                  "internalType": "uint256",
                  "name": "start",
                  "type": "uint256"
                },
                {
                  "internalType": "uint256",
                  "name": "end",
                  "type": "uint256"
                },
                {
                  "internalType": "address",
                  "name": "currency",
                  "type": "address"
                },
                {
                  "internalType": "uint256",
                  "name": "price",
                  "type": "uint256"
                },
                {
                  "internalType": "uint256",
                  "name": "maxPerWallet",
                  "type": "uint256"
                },
                {
                  "internalType": "bytes32",
                  "name": "merkleRoot",
                  "type": "bytes32"
                },
                {
                  "internalType": "uint256",
                  "name": "reserved",
                  "type": "uint256"
                },
                {
                  "internalType": "uint256",
                  "name": "maxAllocation",
                  "type": "uint256"
                }
              ],
              "internalType": "struct IERC721TieringExtension.Tier[]",
              "name": "tiers",
              "type": "tuple[]"
            },
            {
              "internalType": "address",
              "name": "defaultRoyaltyAddress",
              "type": "address"
            },
            {
              "internalType": "uint16",
              "name": "defaultRoyaltyBps",
              "type": "uint16"
            },
            {
              "internalType": "address",
              "name": "proceedsRecipient",
              "type": "address"
            },
            {
              "internalType": "address",
              "name": "trustedForwarder",
              "type": "address"
            }
          ],
          "internalType": "struct ERC721ATieredSalesCollection.Config",
          "name": "config",
          "type": "tuple"
        }
      ],
      "stateMutability": "nonpayable",
      "type": "constructor"
    },
    {
      "inputs": [],
      "name": "ApprovalCallerNotOwnerNorApproved",
      "type": "error"
    },
    {
      "inputs": [],
      "name": "ApprovalQueryForNonexistentToken",
      "type": "error"
    },
    {
      "inputs": [],
      "name": "ApproveToCaller",
      "type": "error"
    },
    {
      "inputs": [],
      "name": "BalanceQueryForZeroAddress",
      "type": "error"
    },
    {
      "inputs": [],
      "name": "MintERC2309QuantityExceedsLimit",
      "type": "error"
    },
    {
      "inputs": [],
      "name": "MintToZeroAddress",
      "type": "error"
    },
    {
      "inputs": [],
      "name": "MintZeroQuantity",
      "type": "error"
    },
    {
      "inputs": [],
      "name": "OwnerQueryForNonexistentToken",
      "type": "error"
    },
    {
      "inputs": [],
      "name": "OwnershipNotInitializedForExtraData",
      "type": "error"
    },
    {
      "inputs": [],
      "name": "TransferCallerNotOwnerNorApproved",
      "type": "error"
    },
    {
      "inputs": [],
      "name": "TransferFromIncorrectOwner",
      "type": "error"
    },
    {
      "inputs": [],
      "name": "TransferToNonERC721ReceiverImplementer",
      "type": "error"
    },
    {
      "inputs": [],
      "name": "TransferToZeroAddress",
      "type": "error"
    },
    {
      "inputs": [],
      "name": "URIQueryForNonexistentToken",
      "type": "error"
    },
    {
      "anonymous": false,
      "inputs": [
        {
          "indexed": true,
          "internalType": "address",
          "name": "owner",
          "type": "address"
        },
        {
          "indexed": true,
          "internalType": "address",
          "name": "approved",
          "type": "address"
        },
        {
          "indexed": true,
          "internalType": "uint256",
          "name": "tokenId",
          "type": "uint256"
        }
      ],
      "name": "Approval",
      "type": "event"
    },
    {
      "anonymous": false,
      "inputs": [
        {
          "indexed": true,
          "internalType": "address",
          "name": "owner",
          "type": "address"
        },
        {
          "indexed": true,
          "internalType": "address",
          "name": "operator",
          "type": "address"
        },
        {
          "indexed": false,
          "internalType": "bool",
          "name": "approved",
          "type": "bool"
        }
      ],
      "name": "ApprovalForAll",
      "type": "event"
    },
    {
      "anonymous": false,
      "inputs": [
        {
          "indexed": true,
          "internalType": "uint256",
          "name": "fromTokenId",
          "type": "uint256"
        },
        {
          "indexed": false,
          "internalType": "uint256",
          "name": "toTokenId",
          "type": "uint256"
        },
        {
          "indexed": true,
          "internalType": "address",
          "name": "from",
          "type": "address"
        },
        {
          "indexed": true,
          "internalType": "address",
          "name": "to",
          "type": "address"
        }
      ],
      "name": "ConsecutiveTransfer",
      "type": "event"
    },
    {
      "anonymous": false,
      "inputs": [
        {
          "indexed": false,
          "internalType": "address",
          "name": "recipient",
          "type": "address"
        },
        {
          "indexed": false,
          "internalType": "uint16",
          "name": "bps",
          "type": "uint16"
        }
      ],
      "name": "DefaultRoyaltySet",
      "type": "event"
    },
    {
      "anonymous": false,
      "inputs": [
        {
          "indexed": false,
          "internalType": "uint8",
          "name": "version",
          "type": "uint8"
        }
      ],
      "name": "Initialized",
      "type": "event"
    },
    {
      "anonymous": false,
      "inputs": [
        {
          "indexed": true,
          "internalType": "address",
          "name": "previousOwner",
          "type": "address"
        },
        {
          "indexed": true,
          "internalType": "address",
          "name": "newOwner",
          "type": "address"
        }
      ],
      "name": "OwnershipTransferred",
      "type": "event"
    },
    {
      "anonymous": false,
      "inputs": [
        {
          "indexed": true,
          "internalType": "bytes32",
          "name": "role",
          "type": "bytes32"
        },
        {
          "indexed": true,
          "internalType": "bytes32",
          "name": "previousAdminRole",
          "type": "bytes32"
        },
        {
          "indexed": true,
          "internalType": "bytes32",
          "name": "newAdminRole",
          "type": "bytes32"
        }
      ],
      "name": "RoleAdminChanged",
      "type": "event"
    },
    {
      "anonymous": false,
      "inputs": [
        {
          "indexed": true,
          "internalType": "bytes32",
          "name": "role",
          "type": "bytes32"
        },
        {
          "indexed": true,
          "internalType": "address",
          "name": "account",
          "type": "address"
        },
        {
          "indexed": true,
          "internalType": "address",
          "name": "sender",
          "type": "address"
        }
      ],
      "name": "RoleGranted",
      "type": "event"
    },
    {
      "anonymous": false,
      "inputs": [
        {
          "indexed": true,
          "internalType": "bytes32",
          "name": "role",
          "type": "bytes32"
        },
        {
          "indexed": true,
          "internalType": "address",
          "name": "account",
          "type": "address"
        },
        {
          "indexed": true,
          "internalType": "address",
          "name": "sender",
          "type": "address"
        }
      ],
      "name": "RoleRevoked",
      "type": "event"
    },
    {
      "anonymous": false,
      "inputs": [
        {
          "indexed": false,
          "internalType": "uint256",
          "name": "tokenId",
          "type": "uint256"
        }
      ],
      "name": "TokenRoyaltyRemoved",
      "type": "event"
    },
    {
      "anonymous": false,
      "inputs": [
        {
          "indexed": false,
          "internalType": "uint256",
          "name": "tokenId",
          "type": "uint256"
        },
        {
          "indexed": false,
          "internalType": "address",
          "name": "recipient",
          "type": "address"
        },
        {
          "indexed": false,
          "internalType": "uint16",
          "name": "bps",
          "type": "uint16"
        }
      ],
      "name": "TokenRoyaltySet",
      "type": "event"
    },
    {
      "anonymous": false,
      "inputs": [
        {
          "indexed": true,
          "internalType": "address",
          "name": "from",
          "type": "address"
        },
        {
          "indexed": true,
          "internalType": "address",
          "name": "to",
          "type": "address"
        },
        {
          "indexed": true,
          "internalType": "uint256",
          "name": "tokenId",
          "type": "uint256"
        }
      ],
      "name": "Transfer",
      "type": "event"
    },
    {
      "anonymous": false,
      "inputs": [],
      "name": "WithdrawPowerRevoked",
      "type": "event"
    },
    {
      "anonymous": false,
      "inputs": [
        {
          "indexed": false,
          "internalType": "address[]",
          "name": "claimTokens",
          "type": "address[]"
        },
        {
          "indexed": false,
          "internalType": "uint256[]",
          "name": "amounts",
          "type": "uint256[]"
        }
      ],
      "name": "Withdrawn",
      "type": "event"
    },
    {
      "inputs": [],
      "name": "DEFAULT_ADMIN_ROLE",
      "outputs": [
        {
          "internalType": "bytes32",
          "name": "",
          "type": "bytes32"
        }
      ],
      "stateMutability": "view",
      "type": "function"
    },
    {
      "inputs": [],
      "name": "LOCKER_ROLE",
      "outputs": [
        {
          "internalType": "bytes32",
          "name": "",
          "type": "bytes32"
        }
      ],
      "stateMutability": "view",
      "type": "function"
    },
    {
      "inputs": [],
      "name": "MINTER_ROLE",
      "outputs": [
        {
          "internalType": "bytes32",
          "name": "",
          "type": "bytes32"
        }
      ],
      "stateMutability": "view",
      "type": "function"
    },
    {
      "inputs": [],
      "name": "_trustedForwarder",
      "outputs": [
        {
          "internalType": "address",
          "name": "",
          "type": "address"
        }
      ],
      "stateMutability": "view",
      "type": "function"
    },
    {
      "inputs": [
        {
          "internalType": "address",
          "name": "to",
          "type": "address"
        },
        {
          "internalType": "uint256",
          "name": "tokenId",
          "type": "uint256"
        }
      ],
      "name": "approve",
      "outputs": [],
      "stateMutability": "nonpayable",
      "type": "function"
    },
    {
      "inputs": [
        {
          "internalType": "address",
          "name": "owner",
          "type": "address"
        }
      ],
      "name": "balanceOf",
      "outputs": [
        {
          "internalType": "uint256",
          "name": "",
          "type": "uint256"
        }
      ],
      "stateMutability": "view",
      "type": "function"
    },
    {
      "inputs": [
        {
          "internalType": "uint256",
          "name": "tierId",
          "type": "uint256"
        },
        {
          "components": [
            {
              "internalType": "uint256",
              "name": "start",
              "type": "uint256"
            },
            {
              "internalType": "uint256",
              "name": "end",
              "type": "uint256"
            },
            {
              "internalType": "address",
              "name": "currency",
              "type": "address"
            },
            {
              "internalType": "uint256",
              "name": "price",
              "type": "uint256"
            },
            {
              "internalType": "uint256",
              "name": "maxPerWallet",
              "type": "uint256"
            },
            {
              "internalType": "bytes32",
              "name": "merkleRoot",
              "type": "bytes32"
            },
            {
              "internalType": "uint256",
              "name": "reserved",
              "type": "uint256"
            },
            {
              "internalType": "uint256",
              "name": "maxAllocation",
              "type": "uint256"
            }
          ],
          "internalType": "struct IERC721TieringExtension.Tier",
          "name": "tier",
          "type": "tuple"
        }
      ],
      "name": "configureTiering",
      "outputs": [],
      "stateMutability": "nonpayable",
      "type": "function"
    },
    {
      "inputs": [
        {
          "internalType": "uint256[]",
          "name": "_tierIds",
          "type": "uint256[]"
        },
        {
          "components": [
            {
              "internalType": "uint256",
              "name": "start",
              "type": "uint256"
            },
            {
              "internalType": "uint256",
              "name": "end",
              "type": "uint256"
            },
            {
              "internalType": "address",
              "name": "currency",
              "type": "address"
            },
            {
              "internalType": "uint256",
              "name": "price",
              "type": "uint256"
            },
            {
              "internalType": "uint256",
              "name": "maxPerWallet",
              "type": "uint256"
            },
            {
              "internalType": "bytes32",
              "name": "merkleRoot",
              "type": "bytes32"
            },
            {
              "internalType": "uint256",
              "name": "reserved",
              "type": "uint256"
            },
            {
              "internalType": "uint256",
              "name": "maxAllocation",
              "type": "uint256"
            }
          ],
          "internalType": "struct IERC721TieringExtension.Tier[]",
          "name": "_tiers",
          "type": "tuple[]"
        }
      ],
      "name": "configureTiering",
      "outputs": [],
      "stateMutability": "nonpayable",
      "type": "function"
    },
    {
      "inputs": [],
      "name": "contractURI",
      "outputs": [
        {
          "internalType": "string",
          "name": "",
          "type": "string"
        }
      ],
      "stateMutability": "view",
      "type": "function"
    },
    {
      "inputs": [],
      "name": "defaultRoyalty",
      "outputs": [
        {
          "internalType": "address",
          "name": "recipient",
          "type": "address"
        },
        {
          "internalType": "uint16",
          "name": "bps",
          "type": "uint16"
        }
      ],
      "stateMutability": "view",
      "type": "function"
    },
    {
      "inputs": [
        {
          "internalType": "uint256",
          "name": "tierId",
          "type": "uint256"
        },
        {
          "internalType": "address",
          "name": "minter",
          "type": "address"
        },
        {
          "internalType": "uint256",
          "name": "maxAllowance",
          "type": "uint256"
        },
        {
          "internalType": "bytes32[]",
          "name": "proof",
          "type": "bytes32[]"
        }
      ],
      "name": "eligibleForTier",
      "outputs": [
        {
          "internalType": "uint256",
          "name": "maxMintable",
          "type": "uint256"
        }
      ],
      "stateMutability": "view",
      "type": "function"
    },
    {
      "inputs": [
        {
          "internalType": "uint256[]",
          "name": "ticketTokenIds",
          "type": "uint256[]"
        }
      ],
      "name": "filterUnlocked",
      "outputs": [
        {
          "internalType": "uint256[]",
          "name": "",
          "type": "uint256[]"
        }
      ],
      "stateMutability": "view",
      "type": "function"
    },
    {
      "inputs": [],
      "name": "freezeMaxSupply",
      "outputs": [],
      "stateMutability": "nonpayable",
      "type": "function"
    },
    {
      "inputs": [],
      "name": "freezeTokenURI",
      "outputs": [],
      "stateMutability": "nonpayable",
      "type": "function"
    },
    {
      "inputs": [
        {
          "internalType": "uint256",
          "name": "tokenId",
          "type": "uint256"
        }
      ],
      "name": "getApproved",
      "outputs": [
        {
          "internalType": "address",
          "name": "",
          "type": "address"
        }
      ],
      "stateMutability": "view",
      "type": "function"
    },
    {
      "inputs": [
        {
          "internalType": "uint256",
          "name": "id",
          "type": "uint256"
        }
      ],
      "name": "getRaribleV2Royalties",
      "outputs": [
        {
          "components": [
            {
              "internalType": "address payable",
              "name": "account",
              "type": "address"
            },
            {
              "internalType": "uint96",
              "name": "value",
              "type": "uint96"
            }
          ],
          "internalType": "struct LibPart.Part[]",
          "name": "result",
          "type": "tuple[]"
        }
      ],
      "stateMutability": "view",
      "type": "function"
    },
    {
      "inputs": [
        {
          "internalType": "bytes32",
          "name": "role",
          "type": "bytes32"
        }
      ],
      "name": "getRoleAdmin",
      "outputs": [
        {
          "internalType": "bytes32",
          "name": "",
          "type": "bytes32"
        }
      ],
      "stateMutability": "view",
      "type": "function"
    },
    {
      "inputs": [],
      "name": "getTokenRoyaltiesCount",
      "outputs": [
        {
          "internalType": "uint256",
          "name": "",
          "type": "uint256"
        }
      ],
      "stateMutability": "view",
      "type": "function"
    },
    {
      "inputs": [
        {
          "internalType": "uint256",
          "name": "index",
          "type": "uint256"
        }
      ],
      "name": "getTokenRoyaltyByIndex",
      "outputs": [
        {
          "components": [
            {
              "internalType": "uint256",
              "name": "tokenId",
              "type": "uint256"
            },
            {
              "internalType": "address",
              "name": "recipient",
              "type": "address"
            },
            {
              "internalType": "uint16",
              "name": "bps",
              "type": "uint16"
            }
          ],
          "internalType": "struct IEIP2981RoyaltyOverride.TokenRoyaltyConfig",
          "name": "",
          "type": "tuple"
        }
      ],
      "stateMutability": "view",
      "type": "function"
    },
    {
      "inputs": [
        {
          "internalType": "bytes32",
          "name": "role",
          "type": "bytes32"
        },
        {
          "internalType": "address",
          "name": "account",
          "type": "address"
        }
      ],
      "name": "grantRole",
      "outputs": [],
      "stateMutability": "nonpayable",
      "type": "function"
    },
    {
      "inputs": [
        {
          "internalType": "bytes32",
          "name": "role",
          "type": "bytes32"
        },
        {
          "internalType": "address",
          "name": "account",
          "type": "address"
        }
      ],
      "name": "hasRole",
      "outputs": [
        {
          "internalType": "bool",
          "name": "",
          "type": "bool"
        }
      ],
      "stateMutability": "view",
      "type": "function"
    },
    {
      "inputs": [],
      "name": "hasRoleBasedLockableExtension",
      "outputs": [
        {
          "internalType": "bool",
          "name": "",
          "type": "bool"
        }
      ],
      "stateMutability": "view",
      "type": "function"
    },
    {
      "inputs": [
        {
          "components": [
            {
              "internalType": "string",
              "name": "name",
              "type": "string"
            },
            {
              "internalType": "string",
              "name": "symbol",
              "type": "string"
            },
            {
              "internalType": "string",
              "name": "contractURI",
              "type": "string"
            },
            {
              "internalType": "string",
              "name": "placeholderURI",
              "type": "string"
            },
            {
              "internalType": "string",
              "name": "tokenURIPrefix",
              "type": "string"
            },
            {
              "internalType": "uint256",
              "name": "maxSupply",
              "type": "uint256"
            },
            {
              "components": [
                {
                  "internalType": "uint256",
                  "name": "start",
                  "type": "uint256"
                },
                {
                  "internalType": "uint256",
                  "name": "end",
                  "type": "uint256"
                },
                {
                  "internalType": "address",
                  "name": "currency",
                  "type": "address"
                },
                {
                  "internalType": "uint256",
                  "name": "price",
                  "type": "uint256"
                },
                {
                  "internalType": "uint256",
                  "name": "maxPerWallet",
                  "type": "uint256"
                },
                {
                  "internalType": "bytes32",
                  "name": "merkleRoot",
                  "type": "bytes32"
                },
                {
                  "internalType": "uint256",
                  "name": "reserved",
                  "type": "uint256"
                },
                {
                  "internalType": "uint256",
                  "name": "maxAllocation",
                  "type": "uint256"
                }
              ],
              "internalType": "struct IERC721TieringExtension.Tier[]",
              "name": "tiers",
              "type": "tuple[]"
            },
            {
              "internalType": "address",
              "name": "defaultRoyaltyAddress",
              "type": "address"
            },
            {
              "internalType": "uint16",
              "name": "defaultRoyaltyBps",
              "type": "uint16"
            },
            {
              "internalType": "address",
              "name": "proceedsRecipient",
              "type": "address"
            },
            {
              "internalType": "address",
              "name": "trustedForwarder",
              "type": "address"
            }
          ],
          "internalType": "struct ERC721ATieredSalesCollection.Config",
          "name": "config",
          "type": "tuple"
        },
        {
          "internalType": "address",
          "name": "deployer",
          "type": "address"
        }
      ],
      "name": "initialize",
      "outputs": [],
      "stateMutability": "nonpayable",
      "type": "function"
    },
    {
      "inputs": [
        {
          "internalType": "address",
          "name": "owner",
          "type": "address"
        },
        {
          "internalType": "address",
          "name": "operator",
          "type": "address"
        }
      ],
      "name": "isApprovedForAll",
      "outputs": [
        {
          "internalType": "bool",
          "name": "",
          "type": "bool"
        }
      ],
      "stateMutability": "view",
      "type": "function"
    },
    {
      "inputs": [
        {
          "internalType": "address",
          "name": "forwarder",
          "type": "address"
        }
      ],
      "name": "isTrustedForwarder",
      "outputs": [
        {
          "internalType": "bool",
          "name": "",
          "type": "bool"
        }
      ],
      "stateMutability": "view",
      "type": "function"
    },
    {
      "inputs": [
        {
          "internalType": "uint256[]",
          "name": "tokenIds",
          "type": "uint256[]"
        }
      ],
      "name": "lock",
      "outputs": [],
      "stateMutability": "nonpayable",
      "type": "function"
    },
    {
      "inputs": [
        {
          "internalType": "uint256",
          "name": "tokenId",
          "type": "uint256"
        }
      ],
      "name": "lock",
      "outputs": [],
      "stateMutability": "nonpayable",
      "type": "function"
    },
    {
      "inputs": [],
      "name": "lockWithdrawMode",
      "outputs": [],
      "stateMutability": "nonpayable",
      "type": "function"
    },
    {
      "inputs": [],
      "name": "lockWithdrawRecipient",
      "outputs": [],
      "stateMutability": "nonpayable",
      "type": "function"
    },
    {
      "inputs": [
        {
          "internalType": "uint256",
          "name": "tokenId",
          "type": "uint256"
        }
      ],
      "name": "locked",
      "outputs": [
        {
          "internalType": "bool",
          "name": "",
          "type": "bool"
        }
      ],
      "stateMutability": "view",
      "type": "function"
    },
    {
      "inputs": [],
      "name": "maxSupply",
      "outputs": [
        {
          "internalType": "uint256",
          "name": "",
          "type": "uint256"
        }
      ],
      "stateMutability": "view",
      "type": "function"
    },
    {
      "inputs": [],
      "name": "maxSupplyFrozen",
      "outputs": [
        {
          "internalType": "bool",
          "name": "",
          "type": "bool"
        }
      ],
      "stateMutability": "view",
      "type": "function"
    },
    {
      "inputs": [
        {
          "internalType": "address",
          "name": "to",
          "type": "address"
        },
        {
          "internalType": "uint256",
          "name": "count",
          "type": "uint256"
        }
      ],
      "name": "mintByOwner",
      "outputs": [],
      "stateMutability": "nonpayable",
      "type": "function"
    },
    {
      "inputs": [
        {
          "internalType": "address",
          "name": "to",
          "type": "address"
        },
        {
          "internalType": "uint256",
          "name": "count",
          "type": "uint256"
        }
      ],
      "name": "mintByRole",
      "outputs": [],
      "stateMutability": "nonpayable",
      "type": "function"
    },
    {
      "inputs": [
        {
          "internalType": "uint256",
          "name": "tierId",
          "type": "uint256"
        },
        {
          "internalType": "uint256",
          "name": "count",
          "type": "uint256"
        },
        {
          "internalType": "uint256",
          "name": "maxAllowance",
          "type": "uint256"
        },
        {
          "internalType": "bytes32[]",
          "name": "proof",
          "type": "bytes32[]"
        }
      ],
      "name": "mintByTier",
      "outputs": [],
      "stateMutability": "payable",
      "type": "function"
    },
    {
      "inputs": [],
      "name": "name",
      "outputs": [
        {
          "internalType": "string",
          "name": "",
          "type": "string"
        }
      ],
      "stateMutability": "view",
      "type": "function"
    },
    {
      "inputs": [
        {
          "internalType": "uint256",
          "name": "tierId",
          "type": "uint256"
        },
        {
          "internalType": "address",
          "name": "minter",
          "type": "address"
        },
        {
          "internalType": "uint256",
          "name": "maxAllowance",
          "type": "uint256"
        },
        {
          "internalType": "bytes32[]",
          "name": "proof",
          "type": "bytes32[]"
        }
      ],
      "name": "onTierAllowlist",
      "outputs": [
        {
          "internalType": "bool",
          "name": "",
          "type": "bool"
        }
      ],
      "stateMutability": "view",
      "type": "function"
    },
    {
      "inputs": [],
      "name": "owner",
      "outputs": [
        {
          "internalType": "address",
          "name": "",
          "type": "address"
        }
      ],
      "stateMutability": "view",
      "type": "function"
    },
    {
      "inputs": [
        {
          "internalType": "uint256",
          "name": "tokenId",
          "type": "uint256"
        }
      ],
      "name": "ownerOf",
      "outputs": [
        {
          "internalType": "address",
          "name": "",
          "type": "address"
        }
      ],
      "stateMutability": "view",
      "type": "function"
    },
    {
      "inputs": [],
      "name": "placeholderURI",
      "outputs": [
        {
          "internalType": "string",
          "name": "",
          "type": "string"
        }
      ],
      "stateMutability": "view",
      "type": "function"
    },
    {
      "inputs": [
        {
          "internalType": "uint256",
          "name": "tierId",
          "type": "uint256"
        }
      ],
      "name": "remainingForTier",
      "outputs": [
        {
          "internalType": "uint256",
          "name": "tierRemaining",
          "type": "uint256"
        }
      ],
      "stateMutability": "view",
      "type": "function"
    },
    {
      "inputs": [],
      "name": "renounceOwnership",
      "outputs": [],
      "stateMutability": "nonpayable",
      "type": "function"
    },
    {
      "inputs": [
        {
          "internalType": "bytes32",
          "name": "role",
          "type": "bytes32"
        },
        {
          "internalType": "address",
          "name": "account",
          "type": "address"
        }
      ],
      "name": "renounceRole",
      "outputs": [],
      "stateMutability": "nonpayable",
      "type": "function"
    },
    {
      "inputs": [
        {
          "internalType": "bytes32",
          "name": "role",
          "type": "bytes32"
        },
        {
          "internalType": "address",
          "name": "account",
          "type": "address"
        }
      ],
      "name": "revokeRole",
      "outputs": [],
      "stateMutability": "nonpayable",
      "type": "function"
    },
    {
      "inputs": [],
      "name": "revokeWithdrawPower",
      "outputs": [],
      "stateMutability": "nonpayable",
      "type": "function"
    },
    {
      "inputs": [
        {
          "internalType": "uint256",
          "name": "tokenId",
          "type": "uint256"
        },
        {
          "internalType": "uint256",
          "name": "value",
          "type": "uint256"
        }
      ],
      "name": "royaltyInfo",
      "outputs": [
        {
          "internalType": "address",
          "name": "",
          "type": "address"
        },
        {
          "internalType": "uint256",
          "name": "",
          "type": "uint256"
        }
      ],
      "stateMutability": "view",
      "type": "function"
    },
    {
      "inputs": [
        {
          "internalType": "address",
          "name": "from",
          "type": "address"
        },
        {
          "internalType": "address",
          "name": "to",
          "type": "address"
        },
        {
          "internalType": "uint256",
          "name": "tokenId",
          "type": "uint256"
        }
      ],
      "name": "safeTransferFrom",
      "outputs": [],
      "stateMutability": "nonpayable",
      "type": "function"
    },
    {
      "inputs": [
        {
          "internalType": "address",
          "name": "from",
          "type": "address"
        },
        {
          "internalType": "address",
          "name": "to",
          "type": "address"
        },
        {
          "internalType": "uint256",
          "name": "tokenId",
          "type": "uint256"
        },
        {
          "internalType": "bytes",
          "name": "_data",
          "type": "bytes"
        }
      ],
      "name": "safeTransferFrom",
      "outputs": [],
      "stateMutability": "nonpayable",
      "type": "function"
    },
    {
      "inputs": [
        {
          "internalType": "address",
          "name": "operator",
          "type": "address"
        },
        {
          "internalType": "bool",
          "name": "approved",
          "type": "bool"
        }
      ],
      "name": "setApprovalForAll",
      "outputs": [],
      "stateMutability": "nonpayable",
      "type": "function"
    },
    {
      "inputs": [
        {
          "internalType": "string",
          "name": "newValue",
          "type": "string"
        }
      ],
      "name": "setContractURI",
      "outputs": [],
      "stateMutability": "nonpayable",
      "type": "function"
    },
    {
      "inputs": [
        {
          "components": [
            {
              "internalType": "address",
              "name": "recipient",
              "type": "address"
            },
            {
              "internalType": "uint16",
              "name": "bps",
              "type": "uint16"
            }
          ],
          "internalType": "struct IEIP2981RoyaltyOverride.TokenRoyalty",
          "name": "royalty",
          "type": "tuple"
        }
      ],
      "name": "setDefaultRoyalty",
      "outputs": [],
      "stateMutability": "nonpayable",
      "type": "function"
    },
    {
      "inputs": [
        {
          "internalType": "uint256",
          "name": "newValue",
          "type": "uint256"
        }
      ],
      "name": "setMaxSupply",
      "outputs": [],
      "stateMutability": "nonpayable",
      "type": "function"
    },
    {
      "inputs": [
        {
          "internalType": "string",
          "name": "newValue",
          "type": "string"
        }
      ],
      "name": "setPlaceholderURI",
      "outputs": [],
      "stateMutability": "nonpayable",
      "type": "function"
    },
    {
      "inputs": [
        {
          "components": [
            {
              "internalType": "uint256",
              "name": "tokenId",
              "type": "uint256"
            },
            {
              "internalType": "address",
              "name": "recipient",
              "type": "address"
            },
            {
              "internalType": "uint16",
              "name": "bps",
              "type": "uint16"
            }
          ],
          "internalType": "struct IEIP2981RoyaltyOverride.TokenRoyaltyConfig[]",
          "name": "royaltyConfigs",
          "type": "tuple[]"
        }
      ],
      "name": "setTokenRoyalties",
      "outputs": [],
      "stateMutability": "nonpayable",
      "type": "function"
    },
    {
      "inputs": [
        {
          "internalType": "string",
          "name": "newValue",
          "type": "string"
        }
      ],
      "name": "setTokenURIPrefix",
      "outputs": [],
      "stateMutability": "nonpayable",
      "type": "function"
    },
    {
      "inputs": [
        {
          "internalType": "string",
          "name": "newValue",
          "type": "string"
        }
      ],
      "name": "setTokenURISuffix",
      "outputs": [],
      "stateMutability": "nonpayable",
      "type": "function"
    },
    {
      "inputs": [
        {
          "internalType": "address",
          "name": "trustedForwarder",
          "type": "address"
        }
      ],
      "name": "setTrustedForwarder",
      "outputs": [],
      "stateMutability": "nonpayable",
      "type": "function"
    },
    {
      "inputs": [
        {
          "internalType": "enum WithdrawMode",
          "name": "_withdrawMode",
          "type": "uint8"
        }
      ],
      "name": "setWithdrawMode",
      "outputs": [],
      "stateMutability": "nonpayable",
      "type": "function"
    },
    {
      "inputs": [
        {
          "internalType": "address",
          "name": "_withdrawRecipient",
          "type": "address"
        }
      ],
      "name": "setWithdrawRecipient",
      "outputs": [],
      "stateMutability": "nonpayable",
      "type": "function"
    },
    {
      "inputs": [
        {
          "internalType": "bytes4",
          "name": "interfaceId",
          "type": "bytes4"
        }
      ],
      "name": "supportsInterface",
      "outputs": [
        {
          "internalType": "bool",
          "name": "",
          "type": "bool"
        }
      ],
      "stateMutability": "view",
      "type": "function"
    },
    {
      "inputs": [],
      "name": "symbol",
      "outputs": [
        {
          "internalType": "string",
          "name": "",
          "type": "string"
        }
      ],
      "stateMutability": "view",
      "type": "function"
    },
    {
      "inputs": [
        {
          "internalType": "uint256",
          "name": "",
          "type": "uint256"
        }
      ],
      "name": "tierMints",
      "outputs": [
        {
          "internalType": "uint256",
          "name": "",
          "type": "uint256"
        }
      ],
      "stateMutability": "view",
      "type": "function"
    },
    {
      "inputs": [
        {
          "internalType": "uint256",
          "name": "",
          "type": "uint256"
        }
      ],
      "name": "tiers",
      "outputs": [
        {
          "internalType": "uint256",
          "name": "start",
          "type": "uint256"
        },
        {
          "internalType": "uint256",
          "name": "end",
          "type": "uint256"
        },
        {
          "internalType": "address",
          "name": "currency",
          "type": "address"
        },
        {
          "internalType": "uint256",
          "name": "price",
          "type": "uint256"
        },
        {
          "internalType": "uint256",
          "name": "maxPerWallet",
          "type": "uint256"
        },
        {
          "internalType": "bytes32",
          "name": "merkleRoot",
          "type": "bytes32"
        },
        {
          "internalType": "uint256",
          "name": "reserved",
          "type": "uint256"
        },
        {
          "internalType": "uint256",
          "name": "maxAllocation",
          "type": "uint256"
        }
      ],
      "stateMutability": "view",
      "type": "function"
    },
    {
      "inputs": [
        {
          "internalType": "uint256",
          "name": "_tokenId",
          "type": "uint256"
        }
      ],
      "name": "tokenURI",
      "outputs": [
        {
          "internalType": "string",
          "name": "",
          "type": "string"
        }
      ],
      "stateMutability": "view",
      "type": "function"
    },
    {
      "inputs": [],
      "name": "tokenURIFrozen",
      "outputs": [
        {
          "internalType": "bool",
          "name": "",
          "type": "bool"
        }
      ],
      "stateMutability": "view",
      "type": "function"
    },
    {
      "inputs": [],
      "name": "tokenURIPrefix",
      "outputs": [
        {
          "internalType": "string",
          "name": "",
          "type": "string"
        }
      ],
      "stateMutability": "view",
      "type": "function"
    },
    {
      "inputs": [],
      "name": "tokenURISuffix",
      "outputs": [
        {
          "internalType": "string",
          "name": "",
          "type": "string"
        }
      ],
      "stateMutability": "view",
      "type": "function"
    },
    {
      "inputs": [],
      "name": "totalReserved",
      "outputs": [
        {
          "internalType": "uint256",
          "name": "",
          "type": "uint256"
        }
      ],
      "stateMutability": "view",
      "type": "function"
    },
    {
      "inputs": [],
      "name": "totalSupply",
      "outputs": [
        {
          "internalType": "uint256",
          "name": "",
          "type": "uint256"
        }
      ],
      "stateMutability": "view",
      "type": "function"
    },
    {
      "inputs": [
        {
          "internalType": "address",
          "name": "from",
          "type": "address"
        },
        {
          "internalType": "address",
          "name": "to",
          "type": "address"
        },
        {
          "internalType": "uint256",
          "name": "tokenId",
          "type": "uint256"
        }
      ],
      "name": "transferFrom",
      "outputs": [],
      "stateMutability": "nonpayable",
      "type": "function"
    },
    {
      "inputs": [
        {
          "internalType": "address",
          "name": "newOwner",
          "type": "address"
        }
      ],
      "name": "transferOwnership",
      "outputs": [],
      "stateMutability": "nonpayable",
      "type": "function"
    },
    {
      "inputs": [
        {
          "internalType": "uint256[]",
          "name": "tokenIds",
          "type": "uint256[]"
        }
      ],
      "name": "unlock",
      "outputs": [],
      "stateMutability": "nonpayable",
      "type": "function"
    },
    {
      "inputs": [
        {
          "internalType": "uint256",
          "name": "tokenId",
          "type": "uint256"
        }
      ],
      "name": "unlock",
      "outputs": [],
      "stateMutability": "nonpayable",
      "type": "function"
    },
    {
      "inputs": [
        {
          "internalType": "address[]",
          "name": "claimTokens",
          "type": "address[]"
        },
        {
          "internalType": "uint256[]",
          "name": "amounts",
          "type": "uint256[]"
        }
      ],
      "name": "withdraw",
      "outputs": [],
      "stateMutability": "nonpayable",
      "type": "function"
    },
    {
      "inputs": [],
      "name": "withdrawMode",
      "outputs": [
        {
          "internalType": "enum WithdrawMode",
          "name": "",
          "type": "uint8"
        }
      ],
      "stateMutability": "view",
      "type": "function"
    },
    {
      "inputs": [],
      "name": "withdrawModeLocked",
      "outputs": [
        {
          "internalType": "bool",
          "name": "",
          "type": "bool"
        }
      ],
      "stateMutability": "view",
      "type": "function"
    },
    {
      "inputs": [],
      "name": "withdrawPowerRevoked",
      "outputs": [
        {
          "internalType": "bool",
          "name": "",
          "type": "bool"
        }
      ],
      "stateMutability": "view",
      "type": "function"
    },
    {
      "inputs": [],
      "name": "withdrawRecipient",
      "outputs": [
        {
          "internalType": "address",
          "name": "",
          "type": "address"
        }
      ],
      "stateMutability": "view",
      "type": "function"
    },
    {
      "inputs": [],
      "name": "withdrawRecipientLocked",
      "outputs": [
        {
          "internalType": "bool",
          "name": "",
          "type": "bool"
        }
      ],
      "stateMutability": "view",
      "type": "function"
    }
  ],
  "transactionHash": "0x41c49749d089a9e4145d0ed6c41d2904ffa0aa79a163653c3a14b602c80727a4",
  "args": [
    {
      "name": "Collection",
      "symbol": "COL",
      "contractURI": "ipfs://contractURI",
      "placeholderURI": "ipfs://placeholderURI",
      "tokenURIPrefix": "ipfs://tokenURIPrefix/",
      "maxSupply": 0,
      "tiers": [],
      "defaultRoyaltyAddress": "0x0000000000000000000000000000000000000000",
      "defaultRoyaltyBps": 0,
      "proceedsRecipient": "0x0000000000000000000000000000000000000000",
      "trustedForwarder": "0x0000000000000000000000000000000000000000"
    }
  ],
  "numDeployments": 1,
  "solcInputHash": "0840fbb3ca279a9002b28a401248e439",
  "bytecode": "0x60806040523480156200001157600080fd5b5060405162006cd938038062006cd9833981016040819052620000349162000fc0565b805160208201516200004f620000496200009a565b620000b6565b81516200006490600590602085019062000cc9565b5080516200007a90600690602084019062000cc9565b5060006003555050600160145562000093813362000111565b50620012aa565b6000620000b16200024d60201b62002d4b1760201c565b905090565b600080546001600160a01b038381166201000081810262010000600160b01b0319851617855560405193049190911692909183917f8be0079c531659141344cd1fd0a4f28419497f9722a3daafe3b4186f6b6457e091a35050565b60006200011f600162000286565b9050801562000138576000805461ff0019166101001790555b6200014560008362000338565b6200015082620000b6565b6101208301516200016390600262000348565b8251602084015160408501516200017c9291906200037e565b6200019683606001518460800151620003b560201b60201c565b60a0830151620001a690620003eb565b620001b062000423565b620001bb8262000459565b620001c56200048e565b60c0830151620001d590620004c2565b620001f08360e00151846101000151620004f760201b60201c565b61014083015162000201906200052d565b801562000248576000805461ff0019169055604051600181527f7f26b83ff96e1f2b6a682f133852f6798a09c465da95921460cefb38474024989060200160405180910390a15b505050565b6020546000906001600160a01b031633141562000271575060131936013560601c90565b620000b16200056260201b62002d6d1760201c565b60008054610100900460ff1615620002ef578160ff166001148015620002bf5750620002bd306200056660201b62002d711760201c565b155b620002e75760405162461bcd60e51b8152600401620002de9062001159565b60405180910390fd5b506000919050565b60005460ff808416911610620003195760405162461bcd60e51b8152600401620002de9062001159565b506000805460ff191660ff92909216919091179055600190565b919050565b62000344828262000575565b5050565b600054610100900460ff16620003725760405162461bcd60e51b8152600401620002de90620011a7565b6200034482826200061b565b600054610100900460ff16620003a85760405162461bcd60e51b8152600401620002de90620011a7565b62000248838383620006a7565b600054610100900460ff16620003df5760405162461bcd60e51b8152600401620002de90620011a7565b6200034482826200075b565b600054610100900460ff16620004155760405162461bcd60e51b8152600401620002de90620011a7565b620004208162000804565b50565b600054610100900460ff166200044d5760405162461bcd60e51b8152600401620002de90620011a7565b6200045762000869565b565b600054610100900460ff16620004835760405162461bcd60e51b8152600401620002de90620011a7565b6200042081620008a5565b600054610100900460ff16620004b85760405162461bcd60e51b8152600401620002de90620011a7565b620004576200090d565b600054610100900460ff16620004ec5760405162461bcd60e51b8152600401620002de90620011a7565b620004208162000949565b600054610100900460ff16620005215760405162461bcd60e51b8152600401620002de90620011a7565b62000344828262000a76565b600054610100900460ff16620005575760405162461bcd60e51b8152600401620002de90620011a7565b620004208162000b13565b3390565b6001600160a01b03163b151590565b6000828152601b602090815260408083206001600160a01b038516845290915290205460ff1662000344576000828152601b602090815260408083206001600160a01b03851684529091529020805460ff19166001179055620005d76200009a565b6001600160a01b0316816001600160a01b0316837f2f8788117e7eff1d82e926ec794901d17c78024a50270940304540a733656f0d60405160405180910390a45050565b600054610100900460ff16620006455760405162461bcd60e51b8152600401620002de90620011a7565b6200065763ac2ba33360e01b62000b5f565b600280546001600160a01b0384166001600160a01b0319821681178355839291600162ff000160a01b03191617600160b01b8360038111156200069e576200069e620011f2565b02179055505050565b600054610100900460ff16620006d15760405162461bcd60e51b8152600401620002de90620011a7565b8251620006e690600b90602086019062000cc9565b508151620006fc90600c90602085019062000cc9565b5080516200071290600d90602084019062000cc9565b5062000725633d96f4ff60e11b62000b5f565b620007376380ac58cd60e01b62000b5f565b6200074963184371e560e31b62000b5f565b62000248635b5e139f60e01b62000b5f565b600054610100900460ff16620007855760405162461bcd60e51b8152600401620002de90620011a7565b81516200079a90600e90602085019062000cc9565b508051620007b090600f90602084019062000cc9565b5060408051808201909152600580825264173539b7b760d91b6020909201918252620007df9160109162000cc9565b50620007f2631f2f406b60e01b62000b5f565b62000344635b5e139f60e01b62000b5f565b600054610100900460ff166200082e5760405162461bcd60e51b8152600401620002de90620011a7565b6012819055620008456330f487b560e11b62000b5f565b620008576380ac58cd60e01b62000b5f565b6200042063184371e560e31b62000b5f565b600054610100900460ff16620008935760405162461bcd60e51b8152600401620002de90620011a7565b62000457631aa1577160e11b62000b5f565b600054610100900460ff16620008cf5760405162461bcd60e51b8152600401620002de90620011a7565b620008e1631a056e7160e01b62000b5f565b620004207f9f2df0fed2c77648de5860a4cc508cd0818c85b8b8a1ab4ceeef8d981c8956a68262000338565b600054610100900460ff16620009375760405162461bcd60e51b8152600401620002de90620011a7565b6200045763714ad8e760e01b62000b5f565b600054610100900460ff16620009735760405162461bcd60e51b8152600401620002de90620011a7565b620009856308b4902960e41b62000b5f565b60005b81518110156200034457818181518110620009a757620009a762001208565b602090810291909101810151600083815260158352604090819020825181559282015160018401558101516002830180546001600160a01b0319166001600160a01b03909216919091179055606081015160038301556080810151600483015560a0810151600583015560c0810151600683015560e00151600790910155815182908290811062000a3c5762000a3c62001208565b602002602001015160c001516016600082825462000a5b919062001234565b9091555081905062000a6d816200124f565b91505062000988565b600054610100900460ff1662000aa05760405162461bcd60e51b8152600401620002de90620011a7565b62000ab2633a47bf5160e11b62000b5f565b62000ac463152a902d60e11b62000b5f565b62000ad663c69dbd8f60e01b62000b5f565b62000ae863656cb66560e11b62000b5f565b604080518082019091526001600160a01b038316815261ffff82166020820152620002488162000be3565b600054610100900460ff1662000b3d5760405162461bcd60e51b8152600401620002de90620011a7565b602080546001600160a01b0319166001600160a01b0392909216919091179055565b6001600160e01b0319808216141562000bbb5760405162461bcd60e51b815260206004820152601c60248201527f4552433136353a20696e76616c696420696e74657266616365206964000000006044820152606401620002de565b6001600160e01b0319166000908152600160208190526040909120805460ff19169091179055565b612710816020015161ffff161062000c2c5760405162461bcd60e51b815260206004820152600b60248201526a496e76616c69642062707360a81b6044820152606401620002de565b60408051808201825282516001600160a01b03168082526020808501805161ffff1691909301819052601c8054600160a01b9092026001600160b01b03199092169092171790558251905191517f2c5ea6e4103e78cb101e796fb2dace540362fc542cbff5145eaa24af7dd8fe419262000cbe92916001600160a01b0392909216825261ffff16602082015260400190565b60405180910390a150565b82805462000cd7906200126d565b90600052602060002090601f01602090048101928262000cfb576000855562000d46565b82601f1062000d1657805160ff191683800117855562000d46565b8280016001018555821562000d46579182015b8281111562000d4657825182559160200191906001019062000d29565b5062000d5492915062000d58565b5090565b5b8082111562000d54576000815560010162000d59565b634e487b7160e01b600052604160045260246000fd5b60405161010081016001600160401b038111828210171562000dab5762000dab62000d6f565b60405290565b60405161016081016001600160401b038111828210171562000dab5762000dab62000d6f565b604051601f8201601f191681016001600160401b038111828210171562000e025762000e0262000d6f565b604052919050565b600082601f83011262000e1c57600080fd5b81516001600160401b0381111562000e385762000e3862000d6f565b602062000e4e601f8301601f1916820162000dd7565b828152858284870101111562000e6357600080fd5b60005b8381101562000e8357858101830151828201840152820162000e66565b8381111562000e955760008385840101525b5095945050505050565b80516001600160a01b03811681146200033357600080fd5b600082601f83011262000ec957600080fd5b815160206001600160401b0382111562000ee75762000ee762000d6f565b62000ef7818360051b0162000dd7565b82815260089290921b8401810191818101908684111562000f1757600080fd5b8286015b8481101562000fa257610100818903121562000f375760008081fd5b62000f4162000d85565b815181528482015185820152604062000f5c81840162000e9f565b90820152606082810151908201526080808301519082015260a0808301519082015260c0808301519082015260e080830151908201528352918301916101000162000f1b565b509695505050505050565b805161ffff811681146200033357600080fd5b60006020828403121562000fd357600080fd5b81516001600160401b038082111562000feb57600080fd5b9083019061016082860312156200100157600080fd5b6200100b62000db1565b8251828111156200101b57600080fd5b620010298782860162000e0a565b8252506020830151828111156200103f57600080fd5b6200104d8782860162000e0a565b6020830152506040830151828111156200106657600080fd5b620010748782860162000e0a565b6040830152506060830151828111156200108d57600080fd5b6200109b8782860162000e0a565b606083015250608083015182811115620010b457600080fd5b620010c28782860162000e0a565b60808301525060a083015160a082015260c083015182811115620010e557600080fd5b620010f38782860162000eb7565b60c0830152506200110760e0840162000e9f565b60e082015261010091506200111e82840162000fad565b8282015261012091506200113482840162000e9f565b8282015261014091506200114a82840162000e9f565b91810191909152949350505050565b6020808252602e908201527f496e697469616c697a61626c653a20636f6e747261637420697320616c72656160408201526d191e481a5b9a5d1a585b1a5e995960921b606082015260800190565b6020808252602b908201527f496e697469616c697a61626c653a20636f6e7472616374206973206e6f74206960408201526a6e697469616c697a696e6760a81b606082015260800190565b634e487b7160e01b600052602160045260246000fd5b634e487b7160e01b600052603260045260246000fd5b634e487b7160e01b600052601160045260246000fd5b600082198211156200124a576200124a6200121e565b500190565b60006000198214156200126657620012666200121e565b5060010190565b600181811c908216806200128257607f821691505b60208210811415620012a457634e487b7160e01b600052602260045260246000fd5b50919050565b615a1f80620012ba6000396000f3fe6080604052600436106103785760003560e01c806301ffc9a71461037d578063039af9eb146103b25780630653aca51461046357806306fdde03146104b2578063081812fc146104d4578063095ea7b31461050c578063167446071461052e57806318160ddd146105435780631a056e711461056657806320f1bb301461058657806323b872dd146105a6578063248a9ca3146105c65780632a55205a146105e65780632bb684ad146106145780632c233067146106415780632d00b587146106615780632f2ff15d1461068f5780633542aee2146106af5780633574a2dd146106cf57806336568abe146106ef57806342842e0e1461070f57806349561cb91461072f5780635136dcc71461075057806353367f081461077057806356c022bb1461079d578063572b6c05146107bd5780635897f878146107dd5780635d36598f146107fd5780635ea2c91b1461081d5780636057e0ec146108305780636198e339146108515780636352211e1461087157806368c7d37c146108915780636ef03047146108b15780636f8b44b0146108d157806370a08231146108f1578063714ad8e714610911578063715018a6146109255780637313cba91461093a5780637885fdc71461094f5780637e9803421461098a578063837fe1401461099f578063859610c6146109b45780638da5cb5b146109d457806391d14854146109e9578063938e3d7b14610a0957806395d89b4114610a2957806399e0dd7c14610a3e578063a217fddf14610a5e578063a22cb46514610a73578063a9852bfb14610a93578063af121f5414610ab3578063b45a3c0e14610ad4578063b88d4fde14610af4578063ba4695fd14610b14578063bd2c18f714610b29578063c0ac998314610b49578063c0bb38ff14610b5e578063c29de63014610b7e578063c71b0e1c14610b98578063c723955a14610bae578063c87b56dd14610bc3578063cad96cca14610be3578063d539139314610c10578063d547741f14610c32578063d5abeb0114610c52578063d8b436fd14610c68578063da74222814610c88578063da82b22714610ca8578063dbbc853b14610cbd578063dcbe353f14610cd2578063dd46706414610cf2578063de6d6d9614610d12578063e8a3d48514610d32578063e985e9c514610d47578063ef60ceaf14610d90578063f2fde38b14610db0578063f362136714610dd0578063f384702f14610df2575b600080fd5b34801561038957600080fd5b5061039d610398366004614884565b610e0c565b60405190151581526020015b60405180910390f35b3480156103be57600080fd5b5061041a6103cd3660046148a1565b60156020526000908152604090208054600182015460028301546003840154600485015460058601546006870154600790970154959694956001600160a01b039094169492939192909188565b6040805198895260208901979097526001600160a01b03909516958701959095526060860192909252608085015260a084015260c083019190915260e0820152610100016103a9565b34801561046f57600080fd5b5061048361047e3660046148a1565b610e1d565b60408051825181526020808401516001600160a01b0316908201529181015161ffff16908201526060016103a9565b3480156104be57600080fd5b506104c7610ea2565b6040516103a99190614912565b3480156104e057600080fd5b506104f46104ef3660046148a1565b610eb1565b6040516001600160a01b0390911681526020016103a9565b34801561051857600080fd5b5061052c610527366004614945565b610ef5565b005b34801561053a57600080fd5b5061052c610f95565b34801561054f57600080fd5b50600454600354035b6040519081526020016103a9565b34801561057257600080fd5b5061052c610581366004614945565b610fec565b34801561059257600080fd5b5061052c6105a1366004614971565b611052565b3480156105b257600080fd5b5061052c6105c13660046149ab565b61126f565b3480156105d257600080fd5b506105586105e13660046148a1565b6113fb565b3480156105f257600080fd5b506106066106013660046149ec565b611410565b6040516103a9929190614a0e565b34801561062057600080fd5b5061063461062f366004614a6b565b6114d5565b6040516103a99190614aac565b34801561064d57600080fd5b5061052c61065c366004614af0565b61159f565b34801561066d57600080fd5b5060025461068290600160b01b900460ff1681565b6040516103a99190614b27565b34801561069b57600080fd5b5061052c6106aa366004614b4f565b611635565b3480156106bb57600080fd5b5061052c6106ca366004614945565b611656565b3480156106db57600080fd5b5061052c6106ea366004614c88565b611695565b3480156106fb57600080fd5b5061052c61070a366004614b4f565b6116e7565b34801561071b57600080fd5b5061052c61072a3660046149ab565b611771565b34801561073b57600080fd5b5060025461039d90600160b81b900460ff1681565b34801561075c57600080fd5b5061052c61076b366004614cbc565b61178c565b34801561077c57600080fd5b5061055861078b3660046148a1565b60176020526000908152604090205481565b3480156107a957600080fd5b506020546104f4906001600160a01b031681565b3480156107c957600080fd5b5061039d6107d8366004614d30565b611826565b3480156107e957600080fd5b506105586107f83660046148a1565b61183a565b34801561080957600080fd5b5061052c610818366004614a6b565b6118bb565b61052c61082b366004614d4d565b61195f565b34801561083c57600080fd5b5060025461039d90600160a01b900460ff1681565b34801561085d57600080fd5b5061052c61086c3660046148a1565b611c3b565b34801561087d57600080fd5b506104f461088c3660046148a1565b611ca8565b34801561089d57600080fd5b5061039d6108ac366004614dad565b611cb3565b3480156108bd57600080fd5b5061052c6108cc366004614ef5565b611d55565b3480156108dd57600080fd5b5061052c6108ec3660046148a1565b611e64565b3480156108fd57600080fd5b5061055861090c366004614d30565b611eaf565b34801561091d57600080fd5b50600161039d565b34801561093157600080fd5b5061052c611efd565b34801561094657600080fd5b506104c7611f48565b34801561095b57600080fd5b50601c5461097c906001600160a01b03811690600160a01b900461ffff1682565b6040516103a9929190615080565b34801561099657600080fd5b50610558611fda565b3480156109ab57600080fd5b5061052c611fe6565b3480156109c057600080fd5b5061052c6109cf366004614a6b565b612064565b3480156109e057600080fd5b506104f46120fe565b3480156109f557600080fd5b5061039d610a04366004614b4f565b612113565b348015610a1557600080fd5b5061052c610a24366004614c88565b61213e565b348015610a3557600080fd5b506104c7612190565b348015610a4a57600080fd5b5061052c610a59366004614c88565b61219a565b348015610a6a57600080fd5b50610558600081565b348015610a7f57600080fd5b5061052c610a8e3660046150ab565b61220f565b348015610a9f57600080fd5b5061052c610aae366004614c88565b6122a5565b348015610abf57600080fd5b5060025461039d90600160a81b900460ff1681565b348015610ae057600080fd5b5061039d610aef3660046148a1565b61231a565b348015610b0057600080fd5b5061052c610b0f3660046150d9565b612327565b348015610b2057600080fd5b5061052c612371565b348015610b3557600080fd5b50610558610b44366004614dad565b6123bf565b348015610b5557600080fd5b506104c76125f0565b348015610b6a57600080fd5b5061052c610b79366004614d30565b6125ff565b348015610b8a57600080fd5b5060115461039d9060ff1681565b348015610ba457600080fd5b5061055860165481565b348015610bba57600080fd5b5061052c61268a565b348015610bcf57600080fd5b506104c7610bde3660046148a1565b612720565b348015610bef57600080fd5b50610c03610bfe3660046148a1565b61272b565b6040516103a99190615158565b348015610c1c57600080fd5b5061055860008051602061598a83398151915281565b348015610c3e57600080fd5b5061052c610c4d366004614b4f565b6127e6565b348015610c5e57600080fd5b5061055860125481565b348015610c7457600080fd5b5061052c610c833660046151b9565b612802565b348015610c9457600080fd5b5061052c610ca3366004614d30565b61289f565b348015610cb457600080fd5b5061052c612900565b348015610cc957600080fd5b506104c761297d565b348015610cde57600080fd5b506002546104f4906001600160a01b031681565b348015610cfe57600080fd5b5061052c610d0d3660046148a1565b61298c565b348015610d1e57600080fd5b5061052c610d2d366004615252565b6129f1565b348015610d3e57600080fd5b506104c7612c39565b348015610d5357600080fd5b5061039d610d623660046152bd565b6001600160a01b039182166000908152600a6020908152604080832093909416825291909152205460ff1690565b348015610d9c57600080fd5b5061052c610dab3660046152eb565b612c48565b348015610dbc57600080fd5b5061052c610dcb366004614d30565b612c9e565b348015610ddc57600080fd5b506105586000805160206159ca83398151915281565b348015610dfe57600080fd5b5060135461039d9060ff1681565b6000610e1782612d80565b92915050565b6040805160608101825260008082526020820181905291810182905290610e45601e84612dbc565b6000818152601d60209081526040918290208251808401845290546001600160a01b03808216835261ffff600160a01b90920482168385019081528551606081018752968752925116928501929092525116908201529392505050565b6060610eac612dcf565b905090565b6000610ebc82612dde565b610ed9576040516333d1c03960e21b815260040160405180910390fd5b506000908152600960205260409020546001600160a01b031690565b6000610f0082611ca8565b9050336001600160a01b03821614610f3957610f1c8133610d62565b610f39576040516367d9dca160e11b815260040160405180910390fd5b60008281526009602052604080822080546001600160a01b0319166001600160a01b0387811691821790925591518593918516917f8c5be1e5ebec7d5bd14f71427d1e84f3dd0314c0f7b2291e5b200ac8c7c3b92591a4505050565b610f9d612e06565b6001600160a01b0316610fae6120fe565b6001600160a01b031614610fdd5760405162461bcd60e51b8152600401610fd490615303565b60405180910390fd5b6013805460ff19166001179055565b61100660008051602061598a833981519152610a04612e06565b6110445760405162461bcd60e51b815260206004820152600f60248201526e4e4f545f4d494e5445525f524f4c4560881b6044820152606401610fd4565b61104e8282612e10565b5050565b61105a612e06565b6001600160a01b031661106b6120fe565b6001600160a01b0316146110915760405162461bcd60e51b8152600401610fd490615303565b60008281526017602052604090205460e082013510156110e75760405162461bcd60e51b81526020600482015260116024820152701313d5d15497d512105397d35253951151607a1b6044820152606401610fd4565b600082815260156020526040902060060154156111555760008281526017602052604090205460c082013510156111555760405162461bcd60e51b81526020600482015260126024820152711313d5d7d49154d154959157d05353d5539560721b6044820152606401610fd4565b600082815260176020526040902054156111c357600082815260156020526040902060040154608082013510156111c35760405162461bcd60e51b81526020600482015260126024820152711313d5d7d3505617d4115497d5d05313115560721b6044820152606401610fd4565b60008281526015602052604081206006015460168054919290916111e890849061534e565b9091555050600082815260156020526040902081906112078282615365565b9050508060c001356016600082825461122091906153d6565b9091555050601254601654111561104e5760405162461bcd60e51b815260206004820152601360248201527213505617d4d55414131657d15610d151511151606a1b6044820152606401610fd4565b600061127a82612e74565b9050836001600160a01b0316816001600160a01b0316146112ad5760405162a1148160e81b815260040160405180910390fd5b60008281526009602052604090208054338082146001600160a01b038816909114176112fa576112dd8633610d62565b6112fa57604051632ce44b5f60e11b815260040160405180910390fd5b6001600160a01b03851661132157604051633a954ecd60e21b815260040160405180910390fd5b61132e8686866001612ed5565b801561133957600082555b6001600160a01b0386811660009081526008602052604080822080546000190190559187168152208054600101905561137685600160e11b612ee1565b600085815260076020526040902055600160e11b83166113c457600184016000818152600760205260409020546113c25760035481146113c25760008181526007602052604090208490555b505b83856001600160a01b0316876001600160a01b03166000805160206159aa83398151915260405160405180910390a4505050505050565b6000908152601b602052604090206001015490565b6000828152601d602052604081205481906001600160a01b031615611475576000848152601d60205260409020546001600160a01b038116906127109061146290600160a01b900461ffff16866153ee565b61146c9190615423565b915091506114ce565b601c546001600160a01b03161580159061149b5750601c54600160a01b900461ffff1615155b156114c757601c546001600160a01b038116906127109061146290600160a01b900461ffff16866153ee565b5060009050805b9250929050565b60606000826001600160401b038111156114f1576114f1614b7f565b60405190808252806020026020018201604052801561151a578160200160208202803683370190505b50905060005b838110156115975761154985858381811061153d5761153d615437565b9050602002013561231a565b6115855784848281811061155f5761155f615437565b9050602002013582828151811061157857611578615437565b6020026020010181815250505b8061158f8161544d565b915050611520565b509392505050565b6115a7612e06565b6001600160a01b03166115b86120fe565b6001600160a01b0316146115de5760405162461bcd60e51b8152600401610fd490615303565b600254600160b81b900460ff16156116085760405162461bcd60e51b8152600401610fd490615468565b6002805482919060ff60b01b1916600160b01b83600381111561162d5761162d614b11565b021790555050565b61163e826113fb565b61164781612ef6565b6116518383612f07565b505050565b61165e612e06565b6001600160a01b031661166f6120fe565b6001600160a01b0316146110445760405162461bcd60e51b8152600401610fd490615303565b61169d612e06565b6001600160a01b03166116ae6120fe565b6001600160a01b0316146116d45760405162461bcd60e51b8152600401610fd490615303565b805161104e90600e9060208401906147d5565b6116ef612e06565b6001600160a01b0316816001600160a01b0316146117675760405162461bcd60e51b815260206004820152602f60248201527f416363657373436f6e74726f6c3a2063616e206f6e6c792072656e6f756e636560448201526e103937b632b9903337b91039b2b63360891b6064820152608401610fd4565b61104e8282612f8e565b61165183838360405180602001604052806000815250612327565b611794612e06565b6001600160a01b03166117a56120fe565b6001600160a01b0316146117cb5760405162461bcd60e51b8152600401610fd490615303565b61104e8282808060200260200160405190810160405280939291908181526020016000905b8282101561181c5761180d60608302860136819003810190615488565b815260200190600101906117f0565b5050505050613013565b6020546001600160a01b0391821691161490565b600060195460165461184c919061534e565b60045460035403601254611860919061534e565b61186a919061534e565b600083815260156020526040902060060154909150156118b6576000828152601760209081526040808320546015909252909120600601546118ac919061534e565b610e1790826153d6565b919050565b600260145414156118de5760405162461bcd60e51b8152600401610fd4906154ee565b60026014556118fb6000805160206159ca83398151915233612113565b6119175760405162461bcd60e51b8152600401610fd490615525565b60005b818110156119555761194383838381811061193757611937615437565b905060200201356131ba565b8061194d8161544d565b91505061191a565b5050600160145550565b600260145414156119825760405162461bcd60e51b8152600401610fd4906154ee565b60026014556000611991612e06565b905060006119a287838787876123bf565b9050808611156119e25760405162461bcd60e51b815260206004820152600b60248201526a08ab0868a8a88a6be9a82b60ab1b6044820152606401610fd4565b6119eb8761183a565b861115611a0a5760405162461bcd60e51b8152600401610fd490615557565b600087815260156020908152604080832060070154601790925290912054611a3290886153d6565b1115611a505760405162461bcd60e51b8152600401610fd490615557565b6000878152601560205260409020600201546001600160a01b0316611ad7576000878152601560205260409020600301543490611a8e9088906153ee565b1115611ad25760405162461bcd60e51b8152602060048201526013602482015272125394d551919250d251539517d05353d55395606a1b6044820152606401610fd4565b611b9a565b600087815260156020526040902060028101546003909101546001600160a01b03909116906323b872dd9084903090611b11908b906153ee565b6040516001600160e01b031960e086901b1681526001600160a01b0393841660048201529290911660248301526044820152606401602060405180830381600087803b158015611b6057600080fd5b505af1158015611b74573d6000803e3d6000fd5b505050506040513d601f19601f82011682018060405250810190611b989190615583565b505b60008781526018602090815260408083206001600160a01b038616845290915281208054889290611bcc9084906153d6565b909155505060008781526017602052604081208054889290611bef9084906153d6565b909155505060008781526015602052604090206006015415611c23578560196000828254611c1d91906153d6565b90915550505b611c2d8287612e10565b505060016014555050505050565b60026014541415611c5e5760405162461bcd60e51b8152600401610fd4906154ee565b6002601455611c7b6000805160206159ca83398151915233612113565b611c975760405162461bcd60e51b8152600401610fd4906155a0565b611ca0816131ba565b506001601455565b6000610e1782612e74565b6000611d4983838080602002602001604051908101604052809392919081815260200183836020028082843760009201829052508b8152601560205260409020600501549250611d449150899050886040516001600160601b0319606084901b1660208201526034810182905260009060540160405160208183030381529060405280519060200120905092915050565b613221565b90505b95945050505050565b6000611d616001613237565b90508015611d79576000805461ff0019166101001790555b611d846000836132c6565b611d8d826132d0565b611d9d836101200151600261332b565b611db483600001518460200151856040015161335c565b611dc68360600151846080015161338e565b611dd38360a001516133bf565b611ddb6133ef565b611de48261341e565b611dec61344e565b611df98360c0015161347d565b611e0c8360e001518461010001516134ad565b611e1a8361014001516134de565b8015611651576000805461ff0019169055604051600181527f7f26b83ff96e1f2b6a682f133852f6798a09c465da95921460cefb38474024989060200160405180910390a1505050565b611e6c612e06565b6001600160a01b0316611e7d6120fe565b6001600160a01b031614611ea35760405162461bcd60e51b8152600401610fd490615303565b611eac8161350e565b50565b60006001600160a01b038216611ed8576040516323d3ad8160e21b815260040160405180910390fd5b506001600160a01b03166000908152600860205260409020546001600160401b031690565b611f05612e06565b6001600160a01b0316611f166120fe565b6001600160a01b031614611f3c5760405162461bcd60e51b8152600401610fd490615303565b611f4660006132d0565b565b6060600e8054611f57906155c9565b80601f0160208091040260200160405190810160405280929190818152602001828054611f83906155c9565b8015611fd05780601f10611fa557610100808354040283529160200191611fd0565b820191906000526020600020905b815481529060010190602001808311611fb357829003601f168201915b5050505050905090565b6000610eac601e6135bb565b611fee612e06565b6001600160a01b0316611fff6120fe565b6001600160a01b0316146120255760405162461bcd60e51b8152600401610fd490615303565b600254600160a01b900460ff161561204f5760405162461bcd60e51b8152600401610fd490615468565b6002805460ff60a01b1916600160a01b179055565b600260145414156120875760405162461bcd60e51b8152600401610fd4906154ee565b60026014556120a46000805160206159ca83398151915233612113565b6120c05760405162461bcd60e51b8152600401610fd490615525565b60005b81811015611955576120ec8383838181106120e0576120e0615437565b905060200201356135c5565b806120f68161544d565b9150506120c3565b6000546201000090046001600160a01b031690565b6000918252601b602090815260408084206001600160a01b0393909316845291905290205460ff1690565b612146612e06565b6001600160a01b03166121576120fe565b6001600160a01b03161461217d5760405162461bcd60e51b8152600401610fd490615303565b805161104e90600d9060208401906147d5565b6060610eac61360f565b6121a2612e06565b6001600160a01b03166121b36120fe565b6001600160a01b0316146121d95760405162461bcd60e51b8152600401610fd490615303565b60115460ff16156121fc5760405162461bcd60e51b8152600401610fd4906155fe565b805161104e90600f9060208401906147d5565b6001600160a01b0382163314156122395760405163b06307db60e01b815260040160405180910390fd5b336000818152600a602090815260408083206001600160a01b03871680855290835292819020805460ff191686151590811790915590519081529192917f17307eab39ab6107e8899845ad3d59bd9653f200f220920489ca2b5937696c31910160405180910390a35050565b6122ad612e06565b6001600160a01b03166122be6120fe565b6001600160a01b0316146122e45760405162461bcd60e51b8152600401610fd490615303565b60115460ff16156123075760405162461bcd60e51b8152600401610fd4906155fe565b805161104e9060109060208401906147d5565b6000610e17601a8361361e565b61233284848461126f565b6001600160a01b0383163b1561236b5761234e84848484613642565b61236b576040516368d2bf6b60e11b815260040160405180910390fd5b50505050565b612379612e06565b6001600160a01b031661238a6120fe565b6001600160a01b0316146123b05760405162461bcd60e51b8152600401610fd490615303565b6011805460ff19166001179055565b60008581526015602052604081206004015461240a5760405162461bcd60e51b815260206004820152600a6024820152694e4f545f45584953545360b01b6044820152606401610fd4565b6000868152601560205260409020544210156124565760405162461bcd60e51b815260206004820152600b60248201526a1393d517d4d5105495115160aa1b6044820152606401610fd4565b6000868152601560205260409020600101544211156124a75760405162461bcd60e51b815260206004820152600d60248201526c1053149150511657d153911151609a1b6044820152606401610fd4565b60008681526018602090815260408083206001600160a01b03891684528252808320548984526015909252909120600401546124e3919061534e565b60008781526015602052604090206005015490915015611d4c5760008681526018602090815260408083206001600160a01b038916845290915290205484116125605760405162461bcd60e51b815260206004820152600f60248201526e4d415845445f414c4c4f57414e434560881b6044820152606401610fd4565b61256d8686868686611cb3565b6125ab5760405162461bcd60e51b815260206004820152600f60248201526e1393d517d0531313d5d31254d51151608a1b6044820152606401610fd4565b60008681526018602090815260408083206001600160a01b03891684529091528120546125d8908661534e565b9050808211156125e6578091505b5095945050505050565b6060600f8054611f57906155c9565b612607612e06565b6001600160a01b03166126186120fe565b6001600160a01b03161461263e5760405162461bcd60e51b8152600401610fd490615303565b600254600160a01b900460ff16156126685760405162461bcd60e51b8152600401610fd490615468565b600280546001600160a01b0319166001600160a01b0392909216919091179055565b612692612e06565b6001600160a01b03166126a36120fe565b6001600160a01b0316146126c95760405162461bcd60e51b8152600401610fd490615303565b600254600160b81b900460ff161561270b5760405162461bcd60e51b815260206004820152600560248201526413d0d2d15160da1b6044820152606401610fd4565b6002805460ff60b81b1916600160b81b179055565b6060610e178261373a565b604080516001808252818301909252606091816020015b6040805180820190915260008082526020820152815260200190600190039081612742575050601c5481519192506001600160a01b031690829060009061278b5761278b615437565b60209081029190910101516001600160a01b03919091169052601c548151600160a01b90910461ffff169082906000906127c7576127c7615437565b6020908102919091018101516001600160601b03909216910152919050565b6127ef826113fb565b6127f881612ef6565b6116518383612f8e565b61280a612e06565b6001600160a01b031661281b6120fe565b6001600160a01b0316146128415760405162461bcd60e51b8152600401610fd490615303565b60005b838110156128985761288685858381811061286157612861615437565b9050602002013584848481811061287a5761287a615437565b90506101000201611052565b806128908161544d565b915050612844565b5050505050565b6128a7612e06565b6001600160a01b03166128b86120fe565b6001600160a01b0316146128de5760405162461bcd60e51b8152600401610fd490615303565b602080546001600160a01b0319166001600160a01b0392909216919091179055565b612908612e06565b6001600160a01b03166129196120fe565b6001600160a01b03161461293f5760405162461bcd60e51b8152600401610fd490615303565b6002805460ff60a81b1916600160a81b1790556040517fa24423a69b45c25c0479663125e48b482e71d85eae416f589545243bafaf3c9590600090a1565b606060108054611f57906155c9565b600260145414156129af5760405162461bcd60e51b8152600401610fd4906154ee565b60026014556129cc6000805160206159ca83398151915233612113565b6129e85760405162461bcd60e51b8152600401610fd4906155a0565b611ca0816135c5565b6129fa33613816565b6002546001600160a01b0316612a4a5760405162461bcd60e51b815260206004820152601560248201527415d2551211149055cbd393d7d49150d25412515395605a1b6044820152606401610fd4565b600254600160a81b900460ff1615612aa45760405162461bcd60e51b815260206004820181905260248201527f57495448445241572f454d455247454e43595f504f5745525f5245564f4b45446044820152606401610fd4565b60005b83811015612bf5576000858583818110612ac357612ac3615437565b9050602002016020810190612ad89190614d30565b6001600160a01b03161415612b1c57612b17838383818110612afc57612afc615437565b6002546001600160a01b03169260209091020135905061399f565b612be3565b848482818110612b2e57612b2e615437565b9050602002016020810190612b439190614d30565b6002546001600160a01b039182169163a9059cbb9116858585818110612b6b57612b6b615437565b905060200201356040518363ffffffff1660e01b8152600401612b8f929190614a0e565b602060405180830381600087803b158015612ba957600080fd5b505af1158015612bbd573d6000803e3d6000fd5b505050506040513d601f19601f82011682018060405250810190612be19190615583565b505b80612bed8161544d565b915050612aa7565b507fd40c399a83caf67d15628b821aa7c7bd940e563c57a047e2bd3b8c602bcaf5a584848484604051612c2b949392919061561e565b60405180910390a150505050565b6060600d8054611f57906155c9565b612c50612e06565b6001600160a01b0316612c616120fe565b6001600160a01b031614612c875760405162461bcd60e51b8152600401610fd490615303565b611eac612c99368390038301836156a2565b613ab5565b612ca6612e06565b6001600160a01b0316612cb76120fe565b6001600160a01b031614612cdd5760405162461bcd60e51b8152600401610fd490615303565b6001600160a01b038116612d425760405162461bcd60e51b815260206004820152602660248201527f4f776e61626c653a206e6577206f776e657220697320746865207a65726f206160448201526564647265737360d01b6064820152608401610fd4565b611eac816132d0565b6000612d5633611826565b15612d68575060131936013560601c90565b503390565b3390565b6001600160a01b03163b151590565b60006301ffc9a760e01b6001600160e01b031983161480610e175750506001600160e01b03191660009081526001602052604090205460ff1690565b6000612dc88383613b60565b9392505050565b6060600b8054611f57906155c9565b600060035482108015610e17575050600090815260076020526040902054600160e01b161590565b6000610eac612d4b565b60125481612e216004546003540390565b612e2b91906153d6565b1115612e6a5760405162461bcd60e51b815260206004820152600e60248201526d455843454544535f535550504c5960901b6044820152606401610fd4565b61104e8282613b8a565b600081600354811015612ebc57600081815260076020526040902054600160e01b8116612eba575b80612dc8575060001901600081815260076020526040902054612e9c565b505b604051636f96cda160e11b815260040160405180910390fd5b61236b84848484613ba4565b4260a01b176001600160a01b03919091161790565b611eac81612f02612e06565b613bd1565b612f118282612113565b61104e576000828152601b602090815260408083206001600160a01b03851684529091529020805460ff19166001179055612f4a612e06565b6001600160a01b0316816001600160a01b0316837f2f8788117e7eff1d82e926ec794901d17c78024a50270940304540a733656f0d60405160405180910390a45050565b612f988282612113565b1561104e576000828152601b602090815260408083206001600160a01b03851684529091529020805460ff19169055612fcf612e06565b6001600160a01b0316816001600160a01b0316837ff6391f5c32d9c69d2a47ea670b442974b53935d1edc7fd64eb21e047a839171b60405160405180910390a45050565b60005b815181101561104e57600082828151811061303357613033615437565b60200260200101519050612710816040015161ffff16106130665760405162461bcd60e51b8152600401610fd4906156fe565b60208101516001600160a01b03166130df5780516000908152601d6020526040902080546001600160b01b031916905580516130a490601e90613c35565b5080516040519081527fa2870857763bd9ae76c957f869f16b31c18dd3bb4c7b4d3a4496dc5c57c657f99060200160405180910390a16131a7565b6040805180820182526020808401516001600160a01b0390811683528484015161ffff90811683850190815286516000908152601d90945294909220925183549451909216600160a01b026001600160b01b0319909416911617919091179055805161314d90601e90613c41565b50805160208083015160408085015181519485526001600160a01b039092169284019290925261ffff1682820152517f389b70fb0887f01e83784eb1c4c589f740eca53b00ed0f45e41db5d079719abb9181900360600190a15b50806131b28161544d565b915050613016565b6131c5601a8261361e565b6131fe5760405162461bcd60e51b815260206004820152600a6024820152691393d517d313d0d2d15160b21b6044820152606401610fd4565b600881901c6000908152601a602052604090208054600160ff84161b1916905550565b60008261322e8584613c4d565b14949350505050565b60008054610100900460ff1615613285578160ff166001148015613261575061325f30612d71565b155b61327d5760405162461bcd60e51b8152600401610fd490615723565b506000919050565b60005460ff8084169116106132ac5760405162461bcd60e51b8152600401610fd490615723565b506000805460ff191660ff92909216919091179055600190565b61104e8282612f07565b600080546001600160a01b038381166201000081810262010000600160b01b0319851617855560405193049190911692909183917f8be0079c531659141344cd1fd0a4f28419497f9722a3daafe3b4186f6b6457e091a35050565b600054610100900460ff166133525760405162461bcd60e51b8152600401610fd490615771565b61104e8282613cb9565b600054610100900460ff166133835760405162461bcd60e51b8152600401610fd490615771565b611651838383613d3d565b600054610100900460ff166133b55760405162461bcd60e51b8152600401610fd490615771565b61104e8282613de0565b600054610100900460ff166133e65760405162461bcd60e51b8152600401610fd490615771565b611eac81613e7c565b600054610100900460ff166134165760405162461bcd60e51b8152600401610fd490615771565b611f46613ed8565b600054610100900460ff166134455760405162461bcd60e51b8152600401610fd490615771565b611eac81613f0f565b600054610100900460ff166134755760405162461bcd60e51b8152600401610fd490615771565b611f46613f5e565b600054610100900460ff166134a45760405162461bcd60e51b8152600401610fd490615771565b611eac81613f95565b600054610100900460ff166134d45760405162461bcd60e51b8152600401610fd490615771565b61104e82826140b1565b600054610100900460ff166135055760405162461bcd60e51b8152600401610fd490615771565b611eac81614141565b613516612e06565b6001600160a01b03166135276120fe565b6001600160a01b03161461354d5760405162461bcd60e51b8152600401610fd490615303565b61355681614168565b601954601654613566919061534e565b60045460035403613577908361534e565b1015611eac5760405162461bcd60e51b81526020600482015260136024820152721313d5d15497d512105397d49154d154959151606a1b6044820152606401610fd4565b6000610e17825490565b6135d0601a8261361e565b156135ed5760405162461bcd60e51b8152600401610fd490615468565b600881901c6000908152601a602052604090208054600160ff84161b17905550565b6060600c8054611f57906155c9565b600881901c600090815260208390526040902054600160ff83161b16151592915050565b604051630a85bd0160e11b81526000906001600160a01b0385169063150b7a02906136779033908990889088906004016157bc565b602060405180830381600087803b15801561369157600080fd5b505af19250505080156136c1575060408051601f3d908101601f191682019092526136be918101906157ef565b60015b61371c573d8080156136ef576040519150601f19603f3d011682016040523d82523d6000602084013e6136f4565b606091505b508051613714576040516368d2bf6b60e11b815260040160405180910390fd5b805181602001fd5b6001600160e01b031916630a85bd0160e11b1490505b949350505050565b60606000600f805461374b906155c9565b9050116137e257600e805461375f906155c9565b80601f016020809104026020016040519081016040528092919081815260200182805461378b906155c9565b80156137d85780601f106137ad576101008083540402835291602001916137d8565b820191906000526020600020905b8154815290600101906020018083116137bb57829003601f168201915b5050505050610e17565b600f6137ed8361423b565b6010604051602001613801939291906158a6565b60405160208183030381529060405292915050565b6003600254600160b01b900460ff16600381111561383657613836614b11565b14156138765760405162461bcd60e51b815260206004820152600f60248201526e15d2551211149055cbd313d0d2d151608a1b6044820152606401610fd4565b60028054600160b01b900460ff16600381111561389557613895614b11565b141561389e5750565b6001600254600160b01b900460ff1660038111156138be576138be614b11565b141561391b576002546001600160a01b03828116911614611eac5760405162461bcd60e51b815260206004820152601760248201527615d2551211149055cbd3d3931657d49150d25412515395604a1b6044820152606401610fd4565b6000600254600160b01b900460ff16600381111561393b5761393b614b11565b1415611eac57806001600160a01b03166139536120fe565b6001600160a01b031614611eac5760405162461bcd60e51b81526020600482015260136024820152722ba4aa24222920ab97a7a7262cafa7aba722a960691b6044820152606401610fd4565b804710156139ef5760405162461bcd60e51b815260206004820152601d60248201527f416464726573733a20696e73756666696369656e742062616c616e63650000006044820152606401610fd4565b6000826001600160a01b03168260405160006040518083038185875af1925050503d8060008114613a3c576040519150601f19603f3d011682016040523d82523d6000602084013e613a41565b606091505b50509050806116515760405162461bcd60e51b815260206004820152603a60248201527f416464726573733a20756e61626c6520746f2073656e642076616c75652c20726044820152791958da5c1a595b9d081b585e481a185d99481c995d995c9d195960321b6064820152608401610fd4565b612710816020015161ffff1610613ade5760405162461bcd60e51b8152600401610fd4906156fe565b60408051808201825282516001600160a01b03168082526020808501805161ffff1691909301819052601c80546001600160b01b031916909217600160a01b9091021790558251905191517f2c5ea6e4103e78cb101e796fb2dace540362fc542cbff5145eaa24af7dd8fe4192613b559291615080565b60405180910390a150565b6000826000018281548110613b7757613b77615437565b9060005260206000200154905092915050565b61104e828260405180602001604052806000815250614338565b613baf601a8361361e565b15613bcc5760405162461bcd60e51b8152600401610fd490615468565b61236b565b613bdb8282612113565b61104e57613bf3816001600160a01b0316601461439e565b613bfe83602061439e565b604051602001613c0f9291906158d9565b60408051601f198184030181529082905262461bcd60e51b8252610fd491600401614912565b6000612dc88383614539565b6000612dc8838361462c565b600081815b8451811015611597576000858281518110613c6f57613c6f615437565b60200260200101519050808311613c955760008381526020829052604090209250613ca6565b600081815260208490526040902092505b5080613cb18161544d565b915050613c52565b600054610100900460ff16613ce05760405162461bcd60e51b8152600401610fd490615771565b613cf063ac2ba33360e01b61467b565b600280546001600160a01b0384166001600160a01b0319821681178355839291600162ff000160a01b03191617600160b01b836003811115613d3457613d34614b11565b02179055505050565b600054610100900460ff16613d645760405162461bcd60e51b8152600401610fd490615771565b8251613d7790600b9060208601906147d5565b508151613d8b90600c9060208501906147d5565b508051613d9f90600d9060208401906147d5565b50613db0633d96f4ff60e11b61467b565b613dc06380ac58cd60e01b61467b565b613dd063184371e560e31b61467b565b611651635b5e139f60e01b61467b565b600054610100900460ff16613e075760405162461bcd60e51b8152600401610fd490615771565b8151613e1a90600e9060208501906147d5565b508051613e2e90600f9060208401906147d5565b5060408051808201909152600580825264173539b7b760d91b6020909201918252613e5b916010916147d5565b50613e6c631f2f406b60e01b61467b565b61104e635b5e139f60e01b61467b565b600054610100900460ff16613ea35760405162461bcd60e51b8152600401610fd490615771565b6012819055613eb86330f487b560e11b61467b565b613ec86380ac58cd60e01b61467b565b611eac63184371e560e31b61467b565b600054610100900460ff16613eff5760405162461bcd60e51b8152600401610fd490615771565b611f46631aa1577160e11b61467b565b600054610100900460ff16613f365760405162461bcd60e51b8152600401610fd490615771565b613f46631a056e7160e01b61467b565b611eac60008051602061598a833981519152826132c6565b600054610100900460ff16613f855760405162461bcd60e51b8152600401610fd490615771565b611f4663714ad8e760e01b61467b565b600054610100900460ff16613fbc5760405162461bcd60e51b8152600401610fd490615771565b613fcc6308b4902960e41b61467b565b60005b815181101561104e57818181518110613fea57613fea615437565b602090810291909101810151600083815260158352604090819020825181559282015160018401558101516002830180546001600160a01b0319166001600160a01b03909216919091179055606081015160038301556080810151600483015560a0810151600583015560c0810151600683015560e00151600790910155815182908290811061407c5761407c615437565b602002602001015160c001516016600082825461409991906153d6565b909155508190506140a98161544d565b915050613fcf565b600054610100900460ff166140d85760405162461bcd60e51b8152600401610fd490615771565b6140e8633a47bf5160e11b61467b565b6140f863152a902d60e11b61467b565b61410863c69dbd8f60e01b61467b565b61411863656cb66560e11b61467b565b604080518082019091526001600160a01b038316815261ffff8216602082015261165181613ab5565b600054610100900460ff166128de5760405162461bcd60e51b8152600401610fd490615771565b614170612e06565b6001600160a01b03166141816120fe565b6001600160a01b0316146141a75760405162461bcd60e51b8152600401610fd490615303565b60135460ff16156141ec5760405162461bcd60e51b815260206004820152600f60248201526e2120a9a2afaaa924afa32927ad22a760891b6044820152606401610fd4565b600454600354038110156142365760405162461bcd60e51b81526020600482015260116024820152704c4f5745525f5448414e5f535550504c5960781b6044820152606401610fd4565b601255565b60608161425f5750506040805180820190915260018152600360fc1b602082015290565b8160005b811561428957806142738161544d565b91506142829050600a83615423565b9150614263565b6000816001600160401b038111156142a3576142a3614b7f565b6040519080825280601f01601f1916602001820160405280156142cd576020820181803683370190505b5090505b8415613732576142e260018361534e565b91506142ef600a86615948565b6142fa9060306153d6565b60f81b81838151811061430f5761430f615437565b60200101906001600160f81b031916908160001a905350614331600a86615423565b94506142d1565b61434283836146fc565b6001600160a01b0383163b15611651576003548281035b61436c6000868380600101945086613642565b614389576040516368d2bf6b60e11b815260040160405180910390fd5b81811061435957816003541461289857600080fd5b606060006143ad8360026153ee565b6143b89060026153d6565b6001600160401b038111156143cf576143cf614b7f565b6040519080825280601f01601f1916602001820160405280156143f9576020820181803683370190505b509050600360fc1b8160008151811061441457614414615437565b60200101906001600160f81b031916908160001a905350600f60fb1b8160018151811061444357614443615437565b60200101906001600160f81b031916908160001a90535060006144678460026153ee565b6144729060016153d6565b90505b60018111156144ea576f181899199a1a9b1b9c1cb0b131b232b360811b85600f16601081106144a6576144a6615437565b1a60f81b8282815181106144bc576144bc615437565b60200101906001600160f81b031916908160001a90535060049490941c936144e38161595c565b9050614475565b508315612dc85760405162461bcd60e51b815260206004820181905260248201527f537472696e67733a20686578206c656e67746820696e73756666696369656e746044820152606401610fd4565b6000818152600183016020526040812054801561462257600061455d60018361534e565b85549091506000906145719060019061534e565b90508181146145d657600086600001828154811061459157614591615437565b90600052602060002001549050808760000184815481106145b4576145b4615437565b6000918252602080832090910192909255918252600188019052604090208390555b85548690806145e7576145e7615973565b600190038181906000526020600020016000905590558560010160008681526020019081526020016000206000905560019350505050610e17565b6000915050610e17565b600081815260018301602052604081205461467357508154600181810184556000848152602080822090930184905584548482528286019093526040902091909155610e17565b506000610e17565b6001600160e01b031980821614156146d45760405162461bcd60e51b815260206004820152601c60248201527b115490cc4d8d4e881a5b9d985b1a59081a5b9d195c999858d9481a5960221b6044820152606401610fd4565b6001600160e01b0319166000908152600160208190526040909120805460ff19169091179055565b6003546001600160a01b03831661472557604051622e076360e81b815260040160405180910390fd5b816147435760405163b562e8dd60e01b815260040160405180910390fd5b6147506000848385612ed5565b6001600160a01b038316600090815260086020526040902080546001600160401b018402019055614787836001841460e11b612ee1565b600082815260076020526040902055808281015b6040516001830192906001600160a01b038716906000906000805160206159aa833981519152908290a480821061479b5760035550505050565b8280546147e1906155c9565b90600052602060002090601f0160209004810192826148035760008555614849565b82601f1061481c57805160ff1916838001178555614849565b82800160010185558215614849579182015b8281111561484957825182559160200191906001019061482e565b50614855929150614859565b5090565b5b80821115614855576000815560010161485a565b6001600160e01b031981168114611eac57600080fd5b60006020828403121561489657600080fd5b8135612dc88161486e565b6000602082840312156148b357600080fd5b5035919050565b60005b838110156148d55781810151838201526020016148bd565b8381111561236b5750506000910152565b600081518084526148fe8160208601602086016148ba565b601f01601f19169290920160200192915050565b602081526000612dc860208301846148e6565b6001600160a01b0381168114611eac57600080fd5b80356118b681614925565b6000806040838503121561495857600080fd5b823561496381614925565b946020939093013593505050565b60008082840361012081121561498657600080fd5b83359250610100601f198201121561499d57600080fd5b506020830190509250929050565b6000806000606084860312156149c057600080fd5b83356149cb81614925565b925060208401356149db81614925565b929592945050506040919091013590565b600080604083850312156149ff57600080fd5b50508035926020909101359150565b6001600160a01b03929092168252602082015260400190565b60008083601f840112614a3957600080fd5b5081356001600160401b03811115614a5057600080fd5b6020830191508360208260051b85010111156114ce57600080fd5b60008060208385031215614a7e57600080fd5b82356001600160401b03811115614a9457600080fd5b614aa085828601614a27565b90969095509350505050565b6020808252825182820181905260009190848201906040850190845b81811015614ae457835183529284019291840191600101614ac8565b50909695505050505050565b600060208284031215614b0257600080fd5b813560048110612dc857600080fd5b634e487b7160e01b600052602160045260246000fd5b6020810160048310614b4957634e487b7160e01b600052602160045260246000fd5b91905290565b60008060408385031215614b6257600080fd5b823591506020830135614b7481614925565b809150509250929050565b634e487b7160e01b600052604160045260246000fd5b60405161010081016001600160401b0381118282101715614bb857614bb8614b7f565b60405290565b60405161016081016001600160401b0381118282101715614bb857614bb8614b7f565b604051601f8201601f191681016001600160401b0381118282101715614c0957614c09614b7f565b604052919050565b60006001600160401b03831115614c2a57614c2a614b7f565b614c3d601f8401601f1916602001614be1565b9050828152838383011115614c5157600080fd5b828260208301376000602084830101529392505050565b600082601f830112614c7957600080fd5b612dc883833560208501614c11565b600060208284031215614c9a57600080fd5b81356001600160401b03811115614cb057600080fd5b61373284828501614c68565b60008060208385031215614ccf57600080fd5b82356001600160401b0380821115614ce657600080fd5b818501915085601f830112614cfa57600080fd5b813581811115614d0957600080fd5b866020606083028501011115614d1e57600080fd5b60209290920196919550909350505050565b600060208284031215614d4257600080fd5b8135612dc881614925565b600080600080600060808688031215614d6557600080fd5b85359450602086013593506040860135925060608601356001600160401b03811115614d9057600080fd5b614d9c88828901614a27565b969995985093965092949392505050565b600080600080600060808688031215614dc557600080fd5b853594506020860135614dd781614925565b93506040860135925060608601356001600160401b03811115614d9057600080fd5b600082601f830112614e0a57600080fd5b813560206001600160401b03821115614e2557614e25614b7f565b614e33818360051b01614be1565b82815260089290921b84018101918181019086841115614e5257600080fd5b8286015b84811015614ed8576101008189031215614e705760008081fd5b614e78614b95565b813581528482013585820152604080830135614e9381614925565b90820152606082810135908201526080808301359082015260a0808301359082015260c0808301359082015260e0808301359082015283529183019161010001614e56565b509695505050505050565b803561ffff811681146118b657600080fd5b60008060408385031215614f0857600080fd5b82356001600160401b0380821115614f1f57600080fd5b908401906101608287031215614f3457600080fd5b614f3c614bbe565b823582811115614f4b57600080fd5b614f5788828601614c68565b825250602083013582811115614f6c57600080fd5b614f7888828601614c68565b602083015250604083013582811115614f9057600080fd5b614f9c88828601614c68565b604083015250606083013582811115614fb457600080fd5b614fc088828601614c68565b606083015250608083013582811115614fd857600080fd5b614fe488828601614c68565b60808301525060a083013560a082015260c08301358281111561500657600080fd5b61501288828601614df9565b60c08301525061502460e0840161493a565b60e08201526101009150615039828401614ee3565b82820152610120915061504d82840161493a565b82820152610140915061506182840161493a565b828201528094505050506150776020840161493a565b90509250929050565b6001600160a01b0392909216825261ffff16602082015260400190565b8015158114611eac57600080fd5b600080604083850312156150be57600080fd5b82356150c981614925565b91506020830135614b748161509d565b600080600080608085870312156150ef57600080fd5b84356150fa81614925565b9350602085013561510a81614925565b92506040850135915060608501356001600160401b0381111561512c57600080fd5b8501601f8101871361513d57600080fd5b61514c87823560208401614c11565b91505092959194509250565b602080825282518282018190526000919060409081850190868401855b828110156151ac57815180516001600160a01b031685528601516001600160601b0316868501529284019290850190600101615175565b5091979650505050505050565b600080600080604085870312156151cf57600080fd5b84356001600160401b03808211156151e657600080fd5b6151f288838901614a27565b9096509450602087013591508082111561520b57600080fd5b818701915087601f83011261521f57600080fd5b81358181111561522e57600080fd5b8860208260081b850101111561524357600080fd5b95989497505060200194505050565b6000806000806040858703121561526857600080fd5b84356001600160401b038082111561527f57600080fd5b61528b88838901614a27565b909650945060208701359150808211156152a457600080fd5b506152b187828801614a27565b95989497509550505050565b600080604083850312156152d057600080fd5b82356152db81614925565b91506020830135614b7481614925565b6000604082840312156152fd57600080fd5b50919050565b6020808252818101527f4f776e61626c653a2063616c6c6572206973206e6f7420746865206f776e6572604082015260600190565b634e487b7160e01b600052601160045260246000fd5b60008282101561536057615360615338565b500390565b813581556020820135600182015560028101604083013561538581614925565b81546001600160a01b0319166001600160a01b0391909116179055606082013560038201556080820135600482015560a0820135600582015560c0820135600682015560e090910135600790910155565b600082198211156153e9576153e9615338565b500190565b600081600019048311821515161561540857615408615338565b500290565b634e487b7160e01b600052601260045260246000fd5b6000826154325761543261540d565b500490565b634e487b7160e01b600052603260045260246000fd5b600060001982141561546157615461615338565b5060010190565b6020808252600690820152651313d0d2d15160d21b604082015260600190565b60006060828403121561549a57600080fd5b604051606081016001600160401b03811182821017156154bc576154bc614b7f565b6040528235815260208301356154d181614925565b60208201526154e260408401614ee3565b60408201529392505050565b6020808252601f908201527f5265656e7472616e637947756172643a207265656e7472616e742063616c6c00604082015260600190565b6020808252601890820152775354414b41424c455f4e4f545f4c4f434b45525f524f4c4560401b604082015260600190565b60208082526012908201527122ac21a2a2a229afa0a62627a1a0aa24a7a760711b604082015260600190565b60006020828403121561559557600080fd5b8151612dc88161509d565b6020808252600f908201526e4e4f545f4c4f434b45525f524f4c4560881b604082015260600190565b600181811c908216806155dd57607f821691505b602082108114156152fd57634e487b7160e01b600052602260045260246000fd5b602080825260069082015265232927ad22a760d11b604082015260600190565b6040808252810184905260008560608301825b8781101561566157823561564481614925565b6001600160a01b0316825260209283019290910190600101615631565b5083810360208501528481526001600160fb1b0385111561568157600080fd5b8460051b915081866020830137600091016020019081529695505050505050565b6000604082840312156156b457600080fd5b604080519081016001600160401b03811182821017156156d6576156d6614b7f565b60405282356156e481614925565b81526156f260208401614ee3565b60208201529392505050565b6020808252600b908201526a496e76616c69642062707360a81b604082015260600190565b6020808252602e908201527f496e697469616c697a61626c653a20636f6e747261637420697320616c72656160408201526d191e481a5b9a5d1a585b1a5e995960921b606082015260800190565b6020808252602b908201527f496e697469616c697a61626c653a20636f6e7472616374206973206e6f74206960408201526a6e697469616c697a696e6760a81b606082015260800190565b6001600160a01b0385811682528416602082015260408101839052608060608201819052600090611d49908301846148e6565b60006020828403121561580157600080fd5b8151612dc88161486e565b8054600090600181811c908083168061582657607f831692505b602080841082141561584857634e487b7160e01b600052602260045260246000fd5b81801561585c576001811461586d5761589a565b60ff1986168952848901965061589a565b60008881526020902060005b868110156158925781548b820152908501908301615879565b505084890196505b50505050505092915050565b60006158b2828661580c565b84516158c28183602089016148ba565b6158ce8183018661580c565b979650505050505050565b76020b1b1b2b9b9a1b7b73a3937b61d1030b1b1b7bab73a1604d1b81526000835161590b8160178501602088016148ba565b7001034b99036b4b9b9b4b733903937b6329607d1b601791840191820152835161593c8160288401602088016148ba565b01602801949350505050565b6000826159575761595761540d565b500690565b60008161596b5761596b615338565b506000190190565b634e487b7160e01b600052603160045260246000fdfe9f2df0fed2c77648de5860a4cc508cd0818c85b8b8a1ab4ceeef8d981c8956a6ddf252ad1be2c89b69c2b068fc378daa952ba7f163c4a11628f55a4df523b3efaf9a8bb3cbd6b84fbccefa71ff73e26e798553c6914585a84886212a46a90279a26469706673582212206dfde5165ba724fca01b87ef65241612b07904ece23ae6505a1acfcf17fc030364736f6c63430008090033",
  "devdoc": {
    "kind": "dev",
    "methods": {
      "approve(address,uint256)": {
        "details": "See {IERC721-approve}."
      },
      "balanceOf(address)": {
        "details": "See {IERC721-balanceOf}."
      },
      "getApproved(uint256)": {
        "details": "See {IERC721-getApproved}."
      },
      "getRoleAdmin(bytes32)": {
        "details": "Returns the admin role that controls `role`. See {grantRole} and {revokeRole}. To change a role's admin, use {_setRoleAdmin}."
      },
      "getTokenRoyaltiesCount()": {
        "details": "See {IEIP2981RoyaltyOverride-getTokenRoyaltiesCount}."
      },
      "getTokenRoyaltyByIndex(uint256)": {
        "details": "See {IEIP2981RoyaltyOverride-getTokenRoyaltyByIndex}."
      },
      "grantRole(bytes32,address)": {
        "details": "Grants `role` to `account`. If `account` had not been already granted `role`, emits a {RoleGranted} event. Requirements: - the caller must have ``role``'s admin role."
      },
      "hasRole(bytes32,address)": {
        "details": "Returns `true` if `account` has been granted `role`."
      },
      "isApprovedForAll(address,address)": {
        "details": "See {IERC721-isApprovedForAll}."
      },
      "owner()": {
        "details": "Returns the address of the current owner."
      },
      "ownerOf(uint256)": {
        "details": "See {IERC721-ownerOf}."
      },
      "renounceOwnership()": {
        "details": "Leaves the contract without owner. It will not be possible to call `onlyOwner` functions anymore. Can only be called by the current owner. NOTE: Renouncing ownership will leave the contract without an owner, thereby removing any functionality that is only available to the owner."
      },
      "renounceRole(bytes32,address)": {
        "details": "Revokes `role` from the calling account. Roles are often managed via {grantRole} and {revokeRole}: this function's purpose is to provide a mechanism for accounts to lose their privileges if they are compromised (such as when a trusted device is misplaced). If the calling account had been revoked `role`, emits a {RoleRevoked} event. Requirements: - the caller must be `account`."
      },
      "revokeRole(bytes32,address)": {
        "details": "Revokes `role` from `account`. If `account` had been granted `role`, emits a {RoleRevoked} event. Requirements: - the caller must have ``role``'s admin role."
      },
      "royaltyInfo(uint256,uint256)": {
        "details": "See {IEIP2981RoyaltyOverride-royaltyInfo}."
      },
      "safeTransferFrom(address,address,uint256)": {
        "details": "See {IERC721-safeTransferFrom}."
      },
      "safeTransferFrom(address,address,uint256,bytes)": {
        "details": "See {IERC721-safeTransferFrom}."
      },
      "setApprovalForAll(address,bool)": {
        "details": "See {IERC721-setApprovalForAll}."
      },
      "totalSupply()": {
        "details": "Returns the total number of tokens in existence. Burned tokens will reduce the count. To get the total number of tokens minted, please see `_totalMinted`."
      },
      "transferFrom(address,address,uint256)": {
        "details": "Transfers `tokenId` from `from` to `to`. Requirements: - `to` cannot be the zero address. - `tokenId` token must be owned by `from`. Emits a {Transfer} event."
      },
      "transferOwnership(address)": {
        "details": "Transfers ownership of the contract to a new account (`newOwner`). Can only be called by the current owner."
      }
    },
    "version": 1
  },
  "userdoc": {
    "errors": {
      "ApprovalCallerNotOwnerNorApproved()": [
        {
          "notice": "The caller must own the token or be an approved operator."
        }
      ],
      "ApprovalQueryForNonexistentToken()": [
        {
          "notice": "The token does not exist."
        }
      ],
      "ApproveToCaller()": [
        {
          "notice": "The caller cannot approve to their own address."
        }
      ],
      "BalanceQueryForZeroAddress()": [
        {
          "notice": "Cannot query the balance for the zero address."
        }
      ],
      "MintERC2309QuantityExceedsLimit()": [
        {
          "notice": "The `quantity` minted with ERC2309 exceeds the safety limit."
        }
      ],
      "MintToZeroAddress()": [
        {
          "notice": "Cannot mint to the zero address."
        }
      ],
      "MintZeroQuantity()": [
        {
          "notice": "The quantity of tokens minted must be more than zero."
        }
      ],
      "OwnerQueryForNonexistentToken()": [
        {
          "notice": "The token does not exist."
        }
      ],
      "OwnershipNotInitializedForExtraData()": [
        {
          "notice": "The `extraData` cannot be set on an unintialized ownership slot."
        }
      ],
      "TransferCallerNotOwnerNorApproved()": [
        {
          "notice": "The caller must own the token or be an approved operator."
        }
      ],
      "TransferFromIncorrectOwner()": [
        {
          "notice": "The token must be owned by `from`."
        }
      ],
      "TransferToNonERC721ReceiverImplementer()": [
        {
          "notice": "Cannot safely transfer to a contract that does not implement the ERC721Receiver interface."
        }
      ],
      "TransferToZeroAddress()": [
        {
          "notice": "Cannot transfer to the zero address."
        }
      ],
      "URIQueryForNonexistentToken()": [
        {
          "notice": "The token does not exist."
        }
      ]
    },
    "kind": "user",
    "methods": {
      "lock(uint256)": {
        "notice": "Locks token(s) to effectively lock them, while keeping in the same wallet. This mechanism prevents them from being transferred, yet still will show correct owner."
      },
      "locked(uint256)": {
        "notice": "Returns if a token is locked or not."
      },
      "unlock(uint256)": {
        "notice": "Unlocks locked token(s) to be able to transfer."
      }
    },
    "version": 1
  },
  "storageLayout": {
    "storage": [
      {
        "astId": 886,
        "contract": "contracts/collections/ERC721A/presets/ERC721ATieredSalesCollection.sol:ERC721ATieredSalesCollection",
        "label": "_initialized",
        "offset": 0,
        "slot": "0",
        "type": "t_uint8"
      },
      {
        "astId": 889,
        "contract": "contracts/collections/ERC721A/presets/ERC721ATieredSalesCollection.sol:ERC721ATieredSalesCollection",
        "label": "_initializing",
        "offset": 1,
        "slot": "0",
        "type": "t_bool"
      },
      {
        "astId": 782,
        "contract": "contracts/collections/ERC721A/presets/ERC721ATieredSalesCollection.sol:ERC721ATieredSalesCollection",
        "label": "_owner",
        "offset": 2,
        "slot": "0",
        "type": "t_address"
      },
      {
        "astId": 4693,
        "contract": "contracts/collections/ERC721A/presets/ERC721ATieredSalesCollection.sol:ERC721ATieredSalesCollection",
        "label": "_supportedInterfaces",
        "offset": 0,
        "slot": "1",
        "type": "t_mapping(t_bytes4,t_bool)"
      },
      {
        "astId": 13776,
        "contract": "contracts/collections/ERC721A/presets/ERC721ATieredSalesCollection.sol:ERC721ATieredSalesCollection",
        "label": "withdrawRecipient",
        "offset": 0,
        "slot": "2",
        "type": "t_address"
      },
      {
        "astId": 13778,
        "contract": "contracts/collections/ERC721A/presets/ERC721ATieredSalesCollection.sol:ERC721ATieredSalesCollection",
        "label": "withdrawRecipientLocked",
        "offset": 20,
        "slot": "2",
        "type": "t_bool"
      },
      {
        "astId": 13780,
        "contract": "contracts/collections/ERC721A/presets/ERC721ATieredSalesCollection.sol:ERC721ATieredSalesCollection",
        "label": "withdrawPowerRevoked",
        "offset": 21,
        "slot": "2",
        "type": "t_bool"
      },
      {
        "astId": 13783,
        "contract": "contracts/collections/ERC721A/presets/ERC721ATieredSalesCollection.sol:ERC721ATieredSalesCollection",
        "label": "withdrawMode",
        "offset": 22,
        "slot": "2",
        "type": "t_enum(WithdrawMode)13720"
      },
      {
        "astId": 13785,
        "contract": "contracts/collections/ERC721A/presets/ERC721ATieredSalesCollection.sol:ERC721ATieredSalesCollection",
        "label": "withdrawModeLocked",
        "offset": 23,
        "slot": "2",
        "type": "t_bool"
      },
      {
        "astId": 19556,
        "contract": "contracts/collections/ERC721A/presets/ERC721ATieredSalesCollection.sol:ERC721ATieredSalesCollection",
        "label": "_currentIndex",
        "offset": 0,
        "slot": "3",
        "type": "t_uint256"
      },
      {
        "astId": 19558,
        "contract": "contracts/collections/ERC721A/presets/ERC721ATieredSalesCollection.sol:ERC721ATieredSalesCollection",
        "label": "_burnCounter",
        "offset": 0,
        "slot": "4",
        "type": "t_uint256"
      },
      {
        "astId": 19560,
        "contract": "contracts/collections/ERC721A/presets/ERC721ATieredSalesCollection.sol:ERC721ATieredSalesCollection",
        "label": "_name",
        "offset": 0,
        "slot": "5",
        "type": "t_string_storage"
      },
      {
        "astId": 19562,
        "contract": "contracts/collections/ERC721A/presets/ERC721ATieredSalesCollection.sol:ERC721ATieredSalesCollection",
        "label": "_symbol",
        "offset": 0,
        "slot": "6",
        "type": "t_string_storage"
      },
      {
        "astId": 19566,
        "contract": "contracts/collections/ERC721A/presets/ERC721ATieredSalesCollection.sol:ERC721ATieredSalesCollection",
        "label": "_packedOwnerships",
        "offset": 0,
        "slot": "7",
        "type": "t_mapping(t_uint256,t_uint256)"
      },
      {
        "astId": 19570,
        "contract": "contracts/collections/ERC721A/presets/ERC721ATieredSalesCollection.sol:ERC721ATieredSalesCollection",
        "label": "_packedAddressData",
        "offset": 0,
        "slot": "8",
        "type": "t_mapping(t_address,t_uint256)"
      },
      {
        "astId": 19574,
        "contract": "contracts/collections/ERC721A/presets/ERC721ATieredSalesCollection.sol:ERC721ATieredSalesCollection",
        "label": "_tokenApprovals",
        "offset": 0,
        "slot": "9",
        "type": "t_mapping(t_uint256,t_address)"
      },
      {
        "astId": 19580,
        "contract": "contracts/collections/ERC721A/presets/ERC721ATieredSalesCollection.sol:ERC721ATieredSalesCollection",
        "label": "_operatorApprovals",
        "offset": 0,
        "slot": "10",
        "type": "t_mapping(t_address,t_mapping(t_address,t_bool))"
      },
      {
        "astId": 10220,
        "contract": "contracts/collections/ERC721A/presets/ERC721ATieredSalesCollection.sol:ERC721ATieredSalesCollection",
        "label": "_name",
        "offset": 0,
        "slot": "11",
        "type": "t_string_storage"
      },
      {
        "astId": 10222,
        "contract": "contracts/collections/ERC721A/presets/ERC721ATieredSalesCollection.sol:ERC721ATieredSalesCollection",
        "label": "_symbol",
        "offset": 0,
        "slot": "12",
        "type": "t_string_storage"
      },
      {
        "astId": 10224,
        "contract": "contracts/collections/ERC721A/presets/ERC721ATieredSalesCollection.sol:ERC721ATieredSalesCollection",
        "label": "_contractURI",
        "offset": 0,
        "slot": "13",
        "type": "t_string_storage"
      },
      {
        "astId": 11656,
        "contract": "contracts/collections/ERC721A/presets/ERC721ATieredSalesCollection.sol:ERC721ATieredSalesCollection",
        "label": "_placeholderURI",
        "offset": 0,
        "slot": "14",
        "type": "t_string_storage"
      },
      {
        "astId": 11658,
        "contract": "contracts/collections/ERC721A/presets/ERC721ATieredSalesCollection.sol:ERC721ATieredSalesCollection",
        "label": "_tokenURIPrefix",
        "offset": 0,
        "slot": "15",
        "type": "t_string_storage"
      },
      {
        "astId": 11660,
        "contract": "contracts/collections/ERC721A/presets/ERC721ATieredSalesCollection.sol:ERC721ATieredSalesCollection",
        "label": "_tokenURISuffix",
        "offset": 0,
        "slot": "16",
        "type": "t_string_storage"
      },
      {
        "astId": 11662,
        "contract": "contracts/collections/ERC721A/presets/ERC721ATieredSalesCollection.sol:ERC721ATieredSalesCollection",
        "label": "tokenURIFrozen",
        "offset": 0,
        "slot": "17",
        "type": "t_bool"
      },
      {
        "astId": 10672,
        "contract": "contracts/collections/ERC721A/presets/ERC721ATieredSalesCollection.sol:ERC721ATieredSalesCollection",
        "label": "maxSupply",
        "offset": 0,
        "slot": "18",
        "type": "t_uint256"
      },
      {
        "astId": 10674,
        "contract": "contracts/collections/ERC721A/presets/ERC721ATieredSalesCollection.sol:ERC721ATieredSalesCollection",
        "label": "maxSupplyFrozen",
        "offset": 0,
        "slot": "19",
        "type": "t_bool"
      },
      {
        "astId": 1124,
        "contract": "contracts/collections/ERC721A/presets/ERC721ATieredSalesCollection.sol:ERC721ATieredSalesCollection",
        "label": "_status",
        "offset": 0,
        "slot": "20",
        "type": "t_uint256"
      },
      {
        "astId": 12317,
        "contract": "contracts/collections/ERC721A/presets/ERC721ATieredSalesCollection.sol:ERC721ATieredSalesCollection",
        "label": "tiers",
        "offset": 0,
        "slot": "21",
        "type": "t_mapping(t_uint256,t_struct(Tier)8368_storage)"
      },
      {
        "astId": 12319,
        "contract": "contracts/collections/ERC721A/presets/ERC721ATieredSalesCollection.sol:ERC721ATieredSalesCollection",
        "label": "totalReserved",
        "offset": 0,
        "slot": "22",
        "type": "t_uint256"
      },
      {
        "astId": 12323,
        "contract": "contracts/collections/ERC721A/presets/ERC721ATieredSalesCollection.sol:ERC721ATieredSalesCollection",
        "label": "tierMints",
        "offset": 0,
        "slot": "23",
        "type": "t_mapping(t_uint256,t_uint256)"
      },
      {
        "astId": 12329,
        "contract": "contracts/collections/ERC721A/presets/ERC721ATieredSalesCollection.sol:ERC721ATieredSalesCollection",
        "label": "walletMinted",
        "offset": 0,
        "slot": "24",
        "type": "t_mapping(t_uint256,t_mapping(t_address,t_uint256))"
      },
      {
        "astId": 12331,
        "contract": "contracts/collections/ERC721A/presets/ERC721ATieredSalesCollection.sol:ERC721ATieredSalesCollection",
        "label": "reservedMints",
        "offset": 0,
        "slot": "25",
        "type": "t_uint256"
      },
      {
        "astId": 10473,
        "contract": "contracts/collections/ERC721A/presets/ERC721ATieredSalesCollection.sol:ERC721ATieredSalesCollection",
        "label": "lockedTokens",
        "offset": 0,
        "slot": "26",
        "type": "t_struct(BitMap)5065_storage"
      },
      {
        "astId": 406,
        "contract": "contracts/collections/ERC721A/presets/ERC721ATieredSalesCollection.sol:ERC721ATieredSalesCollection",
        "label": "_roles",
        "offset": 0,
        "slot": "27",
        "type": "t_mapping(t_bytes32,t_struct(RoleData)401_storage)"
      },
      {
        "astId": 86,
        "contract": "contracts/collections/ERC721A/presets/ERC721ATieredSalesCollection.sol:ERC721ATieredSalesCollection",
        "label": "defaultRoyalty",
        "offset": 0,
        "slot": "28",
        "type": "t_struct(TokenRoyalty)28_storage"
      },
      {
        "astId": 91,
        "contract": "contracts/collections/ERC721A/presets/ERC721ATieredSalesCollection.sol:ERC721ATieredSalesCollection",
        "label": "_tokenRoyalties",
        "offset": 0,
        "slot": "29",
        "type": "t_mapping(t_uint256,t_struct(TokenRoyalty)28_storage)"
      },
      {
        "astId": 94,
        "contract": "contracts/collections/ERC721A/presets/ERC721ATieredSalesCollection.sol:ERC721ATieredSalesCollection",
        "label": "_tokensWithRoyalties",
        "offset": 0,
        "slot": "30",
        "type": "t_struct(UintSet)5664_storage"
      },
      {
        "astId": 14056,
        "contract": "contracts/collections/ERC721A/presets/ERC721ATieredSalesCollection.sol:ERC721ATieredSalesCollection",
        "label": "_trustedForwarder",
        "offset": 0,
        "slot": "32",
        "type": "t_address"
      }
    ],
    "types": {
      "t_address": {
        "encoding": "inplace",
        "label": "address",
        "numberOfBytes": "20"
      },
      "t_array(t_bytes32)dyn_storage": {
        "base": "t_bytes32",
        "encoding": "dynamic_array",
        "label": "bytes32[]",
        "numberOfBytes": "32"
      },
      "t_bool": {
        "encoding": "inplace",
        "label": "bool",
        "numberOfBytes": "1"
      },
      "t_bytes32": {
        "encoding": "inplace",
        "label": "bytes32",
        "numberOfBytes": "32"
      },
      "t_bytes4": {
        "encoding": "inplace",
        "label": "bytes4",
        "numberOfBytes": "4"
      },
      "t_enum(WithdrawMode)13720": {
        "encoding": "inplace",
        "label": "enum WithdrawMode",
        "numberOfBytes": "1"
      },
      "t_mapping(t_address,t_bool)": {
        "encoding": "mapping",
        "key": "t_address",
        "label": "mapping(address => bool)",
        "numberOfBytes": "32",
        "value": "t_bool"
      },
      "t_mapping(t_address,t_mapping(t_address,t_bool))": {
        "encoding": "mapping",
        "key": "t_address",
        "label": "mapping(address => mapping(address => bool))",
        "numberOfBytes": "32",
        "value": "t_mapping(t_address,t_bool)"
      },
      "t_mapping(t_address,t_uint256)": {
        "encoding": "mapping",
        "key": "t_address",
        "label": "mapping(address => uint256)",
        "numberOfBytes": "32",
        "value": "t_uint256"
      },
      "t_mapping(t_bytes32,t_struct(RoleData)401_storage)": {
        "encoding": "mapping",
        "key": "t_bytes32",
        "label": "mapping(bytes32 => struct AccessControl.RoleData)",
        "numberOfBytes": "32",
        "value": "t_struct(RoleData)401_storage"
      },
      "t_mapping(t_bytes32,t_uint256)": {
        "encoding": "mapping",
        "key": "t_bytes32",
        "label": "mapping(bytes32 => uint256)",
        "numberOfBytes": "32",
        "value": "t_uint256"
      },
      "t_mapping(t_bytes4,t_bool)": {
        "encoding": "mapping",
        "key": "t_bytes4",
        "label": "mapping(bytes4 => bool)",
        "numberOfBytes": "32",
        "value": "t_bool"
      },
      "t_mapping(t_uint256,t_address)": {
        "encoding": "mapping",
        "key": "t_uint256",
        "label": "mapping(uint256 => address)",
        "numberOfBytes": "32",
        "value": "t_address"
      },
      "t_mapping(t_uint256,t_mapping(t_address,t_uint256))": {
        "encoding": "mapping",
        "key": "t_uint256",
        "label": "mapping(uint256 => mapping(address => uint256))",
        "numberOfBytes": "32",
        "value": "t_mapping(t_address,t_uint256)"
      },
      "t_mapping(t_uint256,t_struct(Tier)8368_storage)": {
        "encoding": "mapping",
        "key": "t_uint256",
        "label": "mapping(uint256 => struct IERC721TieringExtension.Tier)",
        "numberOfBytes": "32",
        "value": "t_struct(Tier)8368_storage"
      },
      "t_mapping(t_uint256,t_struct(TokenRoyalty)28_storage)": {
        "encoding": "mapping",
        "key": "t_uint256",
        "label": "mapping(uint256 => struct IEIP2981RoyaltyOverride.TokenRoyalty)",
        "numberOfBytes": "32",
        "value": "t_struct(TokenRoyalty)28_storage"
      },
      "t_mapping(t_uint256,t_uint256)": {
        "encoding": "mapping",
        "key": "t_uint256",
        "label": "mapping(uint256 => uint256)",
        "numberOfBytes": "32",
        "value": "t_uint256"
      },
      "t_string_storage": {
        "encoding": "bytes",
        "label": "string",
        "numberOfBytes": "32"
      },
      "t_struct(BitMap)5065_storage": {
        "encoding": "inplace",
        "label": "struct BitMaps.BitMap",
        "members": [
          {
            "astId": 5064,
            "contract": "contracts/collections/ERC721A/presets/ERC721ATieredSalesCollection.sol:ERC721ATieredSalesCollection",
            "label": "_data",
            "offset": 0,
            "slot": "0",
            "type": "t_mapping(t_uint256,t_uint256)"
          }
        ],
        "numberOfBytes": "32"
      },
      "t_struct(RoleData)401_storage": {
        "encoding": "inplace",
        "label": "struct AccessControl.RoleData",
        "members": [
          {
            "astId": 398,
            "contract": "contracts/collections/ERC721A/presets/ERC721ATieredSalesCollection.sol:ERC721ATieredSalesCollection",
            "label": "members",
            "offset": 0,
            "slot": "0",
            "type": "t_mapping(t_address,t_bool)"
          },
          {
            "astId": 400,
            "contract": "contracts/collections/ERC721A/presets/ERC721ATieredSalesCollection.sol:ERC721ATieredSalesCollection",
            "label": "adminRole",
            "offset": 0,
            "slot": "1",
            "type": "t_bytes32"
          }
        ],
        "numberOfBytes": "64"
      },
      "t_struct(Set)5206_storage": {
        "encoding": "inplace",
        "label": "struct EnumerableSet.Set",
        "members": [
          {
            "astId": 5201,
            "contract": "contracts/collections/ERC721A/presets/ERC721ATieredSalesCollection.sol:ERC721ATieredSalesCollection",
            "label": "_values",
            "offset": 0,
            "slot": "0",
            "type": "t_array(t_bytes32)dyn_storage"
          },
          {
            "astId": 5205,
            "contract": "contracts/collections/ERC721A/presets/ERC721ATieredSalesCollection.sol:ERC721ATieredSalesCollection",
            "label": "_indexes",
            "offset": 0,
            "slot": "1",
            "type": "t_mapping(t_bytes32,t_uint256)"
          }
        ],
        "numberOfBytes": "64"
      },
      "t_struct(Tier)8368_storage": {
        "encoding": "inplace",
        "label": "struct IERC721TieringExtension.Tier",
        "members": [
          {
            "astId": 8353,
            "contract": "contracts/collections/ERC721A/presets/ERC721ATieredSalesCollection.sol:ERC721ATieredSalesCollection",
            "label": "start",
            "offset": 0,
            "slot": "0",
            "type": "t_uint256"
          },
          {
            "astId": 8355,
            "contract": "contracts/collections/ERC721A/presets/ERC721ATieredSalesCollection.sol:ERC721ATieredSalesCollection",
            "label": "end",
            "offset": 0,
            "slot": "1",
            "type": "t_uint256"
          },
          {
            "astId": 8357,
            "contract": "contracts/collections/ERC721A/presets/ERC721ATieredSalesCollection.sol:ERC721ATieredSalesCollection",
            "label": "currency",
            "offset": 0,
            "slot": "2",
            "type": "t_address"
          },
          {
            "astId": 8359,
            "contract": "contracts/collections/ERC721A/presets/ERC721ATieredSalesCollection.sol:ERC721ATieredSalesCollection",
            "label": "price",
            "offset": 0,
            "slot": "3",
            "type": "t_uint256"
          },
          {
            "astId": 8361,
            "contract": "contracts/collections/ERC721A/presets/ERC721ATieredSalesCollection.sol:ERC721ATieredSalesCollection",
            "label": "maxPerWallet",
            "offset": 0,
            "slot": "4",
            "type": "t_uint256"
          },
          {
            "astId": 8363,
            "contract": "contracts/collections/ERC721A/presets/ERC721ATieredSalesCollection.sol:ERC721ATieredSalesCollection",
            "label": "merkleRoot",
            "offset": 0,
            "slot": "5",
            "type": "t_bytes32"
          },
          {
            "astId": 8365,
            "contract": "contracts/collections/ERC721A/presets/ERC721ATieredSalesCollection.sol:ERC721ATieredSalesCollection",
            "label": "reserved",
            "offset": 0,
            "slot": "6",
            "type": "t_uint256"
          },
          {
            "astId": 8367,
            "contract": "contracts/collections/ERC721A/presets/ERC721ATieredSalesCollection.sol:ERC721ATieredSalesCollection",
            "label": "maxAllocation",
            "offset": 0,
            "slot": "7",
            "type": "t_uint256"
          }
        ],
        "numberOfBytes": "256"
      },
      "t_struct(TokenRoyalty)28_storage": {
        "encoding": "inplace",
        "label": "struct IEIP2981RoyaltyOverride.TokenRoyalty",
        "members": [
          {
            "astId": 25,
            "contract": "contracts/collections/ERC721A/presets/ERC721ATieredSalesCollection.sol:ERC721ATieredSalesCollection",
            "label": "recipient",
            "offset": 0,
            "slot": "0",
            "type": "t_address"
          },
          {
            "astId": 27,
            "contract": "contracts/collections/ERC721A/presets/ERC721ATieredSalesCollection.sol:ERC721ATieredSalesCollection",
            "label": "bps",
            "offset": 20,
            "slot": "0",
            "type": "t_uint16"
          }
        ],
        "numberOfBytes": "32"
      },
      "t_struct(UintSet)5664_storage": {
        "encoding": "inplace",
        "label": "struct EnumerableSet.UintSet",
        "members": [
          {
            "astId": 5663,
            "contract": "contracts/collections/ERC721A/presets/ERC721ATieredSalesCollection.sol:ERC721ATieredSalesCollection",
            "label": "_inner",
            "offset": 0,
            "slot": "0",
            "type": "t_struct(Set)5206_storage"
          }
        ],
        "numberOfBytes": "64"
      },
      "t_uint16": {
        "encoding": "inplace",
        "label": "uint16",
        "numberOfBytes": "2"
      },
      "t_uint256": {
        "encoding": "inplace",
        "label": "uint256",
        "numberOfBytes": "32"
      },
      "t_uint8": {
        "encoding": "inplace",
        "label": "uint8",
        "numberOfBytes": "1"
      }
    }
  }
}