{
  "address": "0x8F4A527A24C025717681153FD86205aA6319093C",
  "abi": [
    {
      "inputs": [
        {
          "components": [
            {
              "internalType": "address",
              "name": "ticketToken",
              "type": "address"
            },
            {
              "internalType": "uint64",
              "name": "lockedUntilTimestamp",
              "type": "uint64"
            },
            {
              "internalType": "uint256",
              "name": "totalTickets",
              "type": "uint256"
            },
            {
              "internalType": "uint64",
              "name": "claimLockedUntil",
              "type": "uint64"
            }
          ],
          "internalType": "struct ERC721EqualInstantStream.Config",
          "name": "config",
          "type": "tuple"
        }
      ],
      "stateMutability": "nonpayable",
      "type": "constructor"
    },
    {
      "anonymous": false,
      "inputs": [
        {
          "indexed": false,
          "internalType": "address",
          "name": "operator",
          "type": "address"
        },
        {
          "indexed": false,
          "internalType": "address",
          "name": "beneficiary",
          "type": "address"
        },
        {
          "indexed": false,
          "internalType": "uint256",
          "name": "ticketTokenId",
          "type": "uint256"
        },
        {
          "indexed": false,
          "internalType": "address",
          "name": "claimToken",
          "type": "address"
        },
        {
          "indexed": false,
          "internalType": "uint256",
          "name": "releasedAmount",
          "type": "uint256"
        }
      ],
      "name": "Claim",
      "type": "event"
    },
    {
      "anonymous": false,
      "inputs": [
        {
          "indexed": false,
          "internalType": "address",
          "name": "operator",
          "type": "address"
        },
        {
          "indexed": false,
          "internalType": "address",
          "name": "beneficiary",
          "type": "address"
        },
        {
          "indexed": false,
          "internalType": "uint256[]",
          "name": "ticketTokenIds",
          "type": "uint256[]"
        },
        {
          "indexed": false,
          "internalType": "address",
          "name": "claimToken",
          "type": "address"
        },
        {
          "indexed": false,
          "internalType": "uint256",
          "name": "releasedAmount",
          "type": "uint256"
        }
      ],
      "name": "ClaimMany",
      "type": "event"
    },
    {
      "anonymous": false,
      "inputs": [
        {
          "indexed": false,
          "internalType": "uint8",
          "name": "version",
          "type": "uint8"
        }
      ],
      "name": "Initialized",
      "type": "event"
    },
    {
      "anonymous": false,
      "inputs": [
        {
          "indexed": true,
          "internalType": "address",
          "name": "previousOwner",
          "type": "address"
        },
        {
          "indexed": true,
          "internalType": "address",
          "name": "newOwner",
          "type": "address"
        }
      ],
      "name": "OwnershipTransferred",
      "type": "event"
    },
    {
      "anonymous": false,
      "inputs": [],
      "name": "WithdrawPowerRevoked",
      "type": "event"
    },
    {
      "anonymous": false,
      "inputs": [
        {
          "indexed": false,
          "internalType": "address[]",
          "name": "claimTokens",
          "type": "address[]"
        },
        {
          "indexed": false,
          "internalType": "uint256[]",
          "name": "amounts",
          "type": "uint256[]"
        }
      ],
      "name": "Withdrawn",
      "type": "event"
    },
    {
      "inputs": [
        {
          "internalType": "uint256",
          "name": "ticketTokenId",
          "type": "uint256"
        }
      ],
      "name": "claim",
      "outputs": [],
      "stateMutability": "nonpayable",
      "type": "function"
    },
    {
      "inputs": [
        {
          "internalType": "uint256[]",
          "name": "ticketTokenIds",
          "type": "uint256[]"
        }
      ],
      "name": "claim",
      "outputs": [],
      "stateMutability": "nonpayable",
      "type": "function"
    },
    {
      "inputs": [
        {
          "internalType": "uint256",
          "name": "ticketTokenId",
          "type": "uint256"
        },
        {
          "internalType": "address",
          "name": "claimToken",
          "type": "address"
        }
      ],
      "name": "claim",
      "outputs": [],
      "stateMutability": "nonpayable",
      "type": "function"
    },
    {
      "inputs": [
        {
          "internalType": "uint256[]",
          "name": "ticketTokenIds",
          "type": "uint256[]"
        },
        {
          "internalType": "address",
          "name": "claimToken",
          "type": "address"
        },
        {
          "internalType": "address",
          "name": "beneficiary",
          "type": "address"
        }
      ],
      "name": "claim",
      "outputs": [],
      "stateMutability": "nonpayable",
      "type": "function"
    },
    {
      "inputs": [],
      "name": "claimLockedUntil",
      "outputs": [
        {
          "internalType": "uint64",
          "name": "",
          "type": "uint64"
        }
      ],
      "stateMutability": "view",
      "type": "function"
    },
    {
      "inputs": [
        {
          "internalType": "uint256",
          "name": "",
          "type": "uint256"
        },
        {
          "internalType": "address",
          "name": "",
          "type": "address"
        }
      ],
      "name": "entitlements",
      "outputs": [
        {
          "internalType": "uint256",
          "name": "totalClaimed",
          "type": "uint256"
        },
        {
          "internalType": "uint256",
          "name": "lastClaimedAt",
          "type": "uint256"
        }
      ],
      "stateMutability": "view",
      "type": "function"
    },
    {
      "inputs": [],
      "name": "hasERC721EqualSplitExtension",
      "outputs": [
        {
          "internalType": "bool",
          "name": "",
          "type": "bool"
        }
      ],
      "stateMutability": "pure",
      "type": "function"
    },
    {
      "inputs": [],
      "name": "hasERC721InstantReleaseExtension",
      "outputs": [
        {
          "internalType": "bool",
          "name": "",
          "type": "bool"
        }
      ],
      "stateMutability": "pure",
      "type": "function"
    },
    {
      "inputs": [],
      "name": "hasERC721LockableClaimExtension",
      "outputs": [
        {
          "internalType": "bool",
          "name": "",
          "type": "bool"
        }
      ],
      "stateMutability": "pure",
      "type": "function"
    },
    {
      "inputs": [
        {
          "components": [
            {
              "internalType": "address",
              "name": "ticketToken",
              "type": "address"
            },
            {
              "internalType": "uint64",
              "name": "lockedUntilTimestamp",
              "type": "uint64"
            },
            {
              "internalType": "uint256",
              "name": "totalTickets",
              "type": "uint256"
            },
            {
              "internalType": "uint64",
              "name": "claimLockedUntil",
              "type": "uint64"
            }
          ],
          "internalType": "struct ERC721EqualInstantStream.Config",
          "name": "config",
          "type": "tuple"
        },
        {
          "internalType": "address",
          "name": "deployer",
          "type": "address"
        }
      ],
      "name": "initialize",
      "outputs": [],
      "stateMutability": "nonpayable",
      "type": "function"
    },
    {
      "inputs": [
        {
          "internalType": "uint64",
          "name": "newValue",
          "type": "uint64"
        }
      ],
      "name": "lockUntil",
      "outputs": [],
      "stateMutability": "nonpayable",
      "type": "function"
    },
    {
      "inputs": [],
      "name": "lockWithdrawMode",
      "outputs": [],
      "stateMutability": "nonpayable",
      "type": "function"
    },
    {
      "inputs": [],
      "name": "lockWithdrawRecipient",
      "outputs": [],
      "stateMutability": "nonpayable",
      "type": "function"
    },
    {
      "inputs": [],
      "name": "lockedUntilTimestamp",
      "outputs": [
        {
          "internalType": "uint64",
          "name": "",
          "type": "uint64"
        }
      ],
      "stateMutability": "view",
      "type": "function"
    },
    {
      "inputs": [],
      "name": "name",
      "outputs": [
        {
          "internalType": "string",
          "name": "",
          "type": "string"
        }
      ],
      "stateMutability": "view",
      "type": "function"
    },
    {
      "inputs": [
        {
          "internalType": "address",
          "name": "",
          "type": "address"
        },
        {
          "internalType": "address",
          "name": "",
          "type": "address"
        },
        {
          "internalType": "uint256",
          "name": "",
          "type": "uint256"
        },
        {
          "internalType": "bytes",
          "name": "",
          "type": "bytes"
        }
      ],
      "name": "onERC721Received",
      "outputs": [
        {
          "internalType": "bytes4",
          "name": "",
          "type": "bytes4"
        }
      ],
      "stateMutability": "nonpayable",
      "type": "function"
    },
    {
      "inputs": [],
      "name": "owner",
      "outputs": [
        {
          "internalType": "address",
          "name": "",
          "type": "address"
        }
      ],
      "stateMutability": "view",
      "type": "function"
    },
    {
      "inputs": [],
      "name": "renounceOwnership",
      "outputs": [],
      "stateMutability": "nonpayable",
      "type": "function"
    },
    {
      "inputs": [],
      "name": "revokeWithdrawPower",
      "outputs": [],
      "stateMutability": "nonpayable",
      "type": "function"
    },
    {
      "inputs": [
        {
          "internalType": "uint64",
          "name": "newValue",
          "type": "uint64"
        }
      ],
      "name": "setClaimLockedUntil",
      "outputs": [],
      "stateMutability": "nonpayable",
      "type": "function"
    },
    {
      "inputs": [
        {
          "internalType": "uint256",
          "name": "newValue",
          "type": "uint256"
        }
      ],
      "name": "setTotalTickets",
      "outputs": [],
      "stateMutability": "nonpayable",
      "type": "function"
    },
    {
      "inputs": [
        {
          "internalType": "enum WithdrawMode",
          "name": "_withdrawMode",
          "type": "uint8"
        }
      ],
      "name": "setWithdrawMode",
      "outputs": [],
      "stateMutability": "nonpayable",
      "type": "function"
    },
    {
      "inputs": [
        {
          "internalType": "address",
          "name": "_withdrawRecipient",
          "type": "address"
        }
      ],
      "name": "setWithdrawRecipient",
      "outputs": [],
      "stateMutability": "nonpayable",
      "type": "function"
    },
    {
      "inputs": [
        {
          "internalType": "uint256[]",
          "name": "ticketTokenIds",
          "type": "uint256[]"
        },
        {
          "internalType": "address",
          "name": "claimToken",
          "type": "address"
        }
      ],
      "name": "streamClaimableAmount",
      "outputs": [
        {
          "internalType": "uint256",
          "name": "",
          "type": "uint256"
        }
      ],
      "stateMutability": "view",
      "type": "function"
    },
    {
      "inputs": [
        {
          "internalType": "uint256",
          "name": "ticketTokenId",
          "type": "uint256"
        }
      ],
      "name": "streamClaimableAmount",
      "outputs": [
        {
          "internalType": "uint256",
          "name": "",
          "type": "uint256"
        }
      ],
      "stateMutability": "view",
      "type": "function"
    },
    {
      "inputs": [
        {
          "internalType": "uint256",
          "name": "ticketTokenId",
          "type": "uint256"
        },
        {
          "internalType": "address",
          "name": "claimToken",
          "type": "address"
        }
      ],
      "name": "streamClaimableAmount",
      "outputs": [
        {
          "internalType": "uint256",
          "name": "",
          "type": "uint256"
        }
      ],
      "stateMutability": "view",
      "type": "function"
    },
    {
      "inputs": [
        {
          "internalType": "uint256[]",
          "name": "ticketTokenIds",
          "type": "uint256[]"
        },
        {
          "internalType": "address",
          "name": "claimToken",
          "type": "address"
        }
      ],
      "name": "streamTotalClaimed",
      "outputs": [
        {
          "internalType": "uint256",
          "name": "",
          "type": "uint256"
        }
      ],
      "stateMutability": "view",
      "type": "function"
    },
    {
      "inputs": [],
      "name": "streamTotalClaimed",
      "outputs": [
        {
          "internalType": "uint256",
          "name": "",
          "type": "uint256"
        }
      ],
      "stateMutability": "view",
      "type": "function"
    },
    {
      "inputs": [
        {
          "internalType": "uint256[]",
          "name": "ticketTokenIds",
          "type": "uint256[]"
        }
      ],
      "name": "streamTotalClaimed",
      "outputs": [
        {
          "internalType": "uint256",
          "name": "",
          "type": "uint256"
        }
      ],
      "stateMutability": "view",
      "type": "function"
    },
    {
      "inputs": [
        {
          "internalType": "uint256",
          "name": "ticketTokenId",
          "type": "uint256"
        },
        {
          "internalType": "address",
          "name": "claimToken",
          "type": "address"
        }
      ],
      "name": "streamTotalClaimed",
      "outputs": [
        {
          "internalType": "uint256",
          "name": "",
          "type": "uint256"
        }
      ],
      "stateMutability": "view",
      "type": "function"
    },
    {
      "inputs": [
        {
          "internalType": "address",
          "name": "claimToken",
          "type": "address"
        }
      ],
      "name": "streamTotalClaimed",
      "outputs": [
        {
          "internalType": "uint256",
          "name": "",
          "type": "uint256"
        }
      ],
      "stateMutability": "view",
      "type": "function"
    },
    {
      "inputs": [
        {
          "internalType": "uint256",
          "name": "ticketTokenId",
          "type": "uint256"
        }
      ],
      "name": "streamTotalClaimed",
      "outputs": [
        {
          "internalType": "uint256",
          "name": "",
          "type": "uint256"
        }
      ],
      "stateMutability": "view",
      "type": "function"
    },
    {
      "inputs": [],
      "name": "streamTotalSupply",
      "outputs": [
        {
          "internalType": "uint256",
          "name": "",
          "type": "uint256"
        }
      ],
      "stateMutability": "view",
      "type": "function"
    },
    {
      "inputs": [
        {
          "internalType": "address",
          "name": "claimToken",
          "type": "address"
        }
      ],
      "name": "streamTotalSupply",
      "outputs": [
        {
          "internalType": "uint256",
          "name": "",
          "type": "uint256"
        }
      ],
      "stateMutability": "view",
      "type": "function"
    },
    {
      "inputs": [
        {
          "internalType": "bytes4",
          "name": "interfaceId",
          "type": "bytes4"
        }
      ],
      "name": "supportsInterface",
      "outputs": [
        {
          "internalType": "bool",
          "name": "",
          "type": "bool"
        }
      ],
      "stateMutability": "view",
      "type": "function"
    },
    {
      "inputs": [],
      "name": "ticketToken",
      "outputs": [
        {
          "internalType": "address",
          "name": "",
          "type": "address"
        }
      ],
      "stateMutability": "view",
      "type": "function"
    },
    {
      "inputs": [],
      "name": "totalTickets",
      "outputs": [
        {
          "internalType": "uint256",
          "name": "",
          "type": "uint256"
        }
      ],
      "stateMutability": "view",
      "type": "function"
    },
    {
      "inputs": [
        {
          "internalType": "address",
          "name": "newOwner",
          "type": "address"
        }
      ],
      "name": "transferOwnership",
      "outputs": [],
      "stateMutability": "nonpayable",
      "type": "function"
    },
    {
      "inputs": [],
      "name": "version",
      "outputs": [
        {
          "internalType": "string",
          "name": "",
          "type": "string"
        }
      ],
      "stateMutability": "view",
      "type": "function"
    },
    {
      "inputs": [
        {
          "internalType": "address[]",
          "name": "claimTokens",
          "type": "address[]"
        },
        {
          "internalType": "uint256[]",
          "name": "amounts",
          "type": "uint256[]"
        }
      ],
      "name": "withdraw",
      "outputs": [],
      "stateMutability": "nonpayable",
      "type": "function"
    },
    {
      "inputs": [],
      "name": "withdrawMode",
      "outputs": [
        {
          "internalType": "enum WithdrawMode",
          "name": "",
          "type": "uint8"
        }
      ],
      "stateMutability": "view",
      "type": "function"
    },
    {
      "inputs": [],
      "name": "withdrawModeLocked",
      "outputs": [
        {
          "internalType": "bool",
          "name": "",
          "type": "bool"
        }
      ],
      "stateMutability": "view",
      "type": "function"
    },
    {
      "inputs": [],
      "name": "withdrawPowerRevoked",
      "outputs": [
        {
          "internalType": "bool",
          "name": "",
          "type": "bool"
        }
      ],
      "stateMutability": "view",
      "type": "function"
    },
    {
      "inputs": [],
      "name": "withdrawRecipient",
      "outputs": [
        {
          "internalType": "address",
          "name": "",
          "type": "address"
        }
      ],
      "stateMutability": "view",
      "type": "function"
    },
    {
      "inputs": [],
      "name": "withdrawRecipientLocked",
      "outputs": [
        {
          "internalType": "bool",
          "name": "",
          "type": "bool"
        }
      ],
      "stateMutability": "view",
      "type": "function"
    },
    {
      "stateMutability": "payable",
      "type": "receive"
    }
  ],
  "transactionHash": "0x1360128d504900f3e75e9802d6c275e58b76dcbc9ed88334892a60576f8b4671",
  "args": [
    {
      "ticketToken": "0x0000000000000000000000000000000000000000",
      "lockedUntilTimestamp": 0,
      "totalTickets": 0,
      "claimLockedUntil": 0
    }
  ],
  "numDeployments": 2,
  "solcInputHash": "7e8d96f5b19322abdd3676f90e4578c3",
  "bytecode": "0x60806040523480156200001157600080fd5b5060405162002c1638038062002c16833981016040819052620000349162000558565b6200003f3362000057565b6001600255620000508133620000b2565b5062000651565b600080546001600160a01b038381166201000081810262010000600160b01b0319851617855560405193049190911692909183917f8be0079c531659141344cd1fd0a4f28419497f9722a3daafe3b4186f6b6457e091a35050565b600054610100900460ff1615808015620000d35750600054600160ff909116105b80620001035750620000f0306200022760201b620016971760201c565b15801562000103575060005460ff166001145b6200016c5760405162461bcd60e51b815260206004820152602e60248201527f496e697469616c697a61626c653a20636f6e747261637420697320616c72656160448201526d191e481a5b9a5d1a585b1a5e995960921b60648201526084015b60405180910390fd5b6000805460ff19166001179055801562000190576000805461ff0019166101001790555b6200019b8262000057565b620001a882600062000236565b82516020840151620001bb919062000270565b6040830151620001cb90620002a6565b6060830151620001db90620002de565b801562000222576000805461ff0019169055604051600181527f7f26b83ff96e1f2b6a682f133852f6798a09c465da95921460cefb38474024989060200160405180910390a15b505050565b6001600160a01b03163b151590565b600054610100900460ff16620002605760405162461bcd60e51b81526004016200016390620005f0565b6200026c828262000313565b5050565b600054610100900460ff166200029a5760405162461bcd60e51b81526004016200016390620005f0565b6200026c8282620003ba565b600054610100900460ff16620002d05760405162461bcd60e51b81526004016200016390620005f0565b620002db8162000424565b50565b600054610100900460ff16620003085760405162461bcd60e51b81526004016200016390620005f0565b620002db8162000465565b600054610100900460ff166200033d5760405162461bcd60e51b81526004016200016390620005f0565b6200034f63ac2ba33360e01b620004b7565b60078054600160401b600160e01b03198116680100000000000000006001600160a01b038616029081178355839291600160401b62ff000160e01b03191660ff60f01b1990911617600160f01b836003811115620003b157620003b16200063b565b02179055505050565b600054610100900460ff16620003e45760405162461bcd60e51b81526004016200016390620005f0565b600380546001600160401b038316600160a01b026001600160e01b03199091166001600160a01b038516171790556200026c631ba050e960e21b620004b7565b600054610100900460ff166200044e5760405162461bcd60e51b81526004016200016390620005f0565b6006819055620002db632d5305cb60e21b620004b7565b600054610100900460ff166200048f5760405162461bcd60e51b81526004016200016390620005f0565b600780546001600160401b0319166001600160401b038316179055620002db6317b2ef4360e31b5b6001600160e01b03198082169003620005135760405162461bcd60e51b815260206004820152601c60248201527f4552433136353a20696e76616c696420696e7465726661636520696400000000604482015260640162000163565b6001600160e01b0319166000908152600160208190526040909120805460ff19169091179055565b80516001600160401b03811681146200055357600080fd5b919050565b6000608082840312156200056b57600080fd5b604051608081016001600160401b03811182821017156200059c57634e487b7160e01b600052604160045260246000fd5b60405282516001600160a01b0381168114620005b757600080fd5b8152620005c7602084016200053b565b602082015260408301516040820152620005e4606084016200053b565b60608201529392505050565b6020808252602b908201527f496e697469616c697a61626c653a20636f6e7472616374206973206e6f74206960408201526a6e697469616c697a696e6760a81b606082015260800190565b634e487b7160e01b600052602160045260246000fd5b6125b580620006616000396000f3fe6080604052600436106102165760003560e01c8063790c0c731161011f578063790c0c73146105b7578063837fe140146105d757806389c6b815146105ec5780638da5cb5b1461060c5780639199690b146102e6578063968d9b2c1461062e5780639f1a2f061461064e578063a1cf64931461066e578063ae890c0a146106b1578063af121f54146106d1578063c0881849146106f2578063c0bb38ff14610728578063c723955a14610748578063d5ed4d5a1461075d578063da82b2271461077d578063dcbe353f14610792578063dd11247e146107b9578063ddd5e1b2146107cf578063de6d6d96146107ef578063f2fde38b1461080f578063f389b6e41461082f578063f4415ad61461084f578063f66e38c21461088757600080fd5b80630191c0af1461022f57806301ffc9a71461026257806306fdde031461029257806312599909146102e657806314427a96146102fa578063150b7a02146103325780631bc51b26146102e65780631c725fdc1461037657806325289bad146103965780632890d033146103bd5780632c0e1313146103d25780632c233067146103f25780632d00b58714610412578063379607f5146104405780633b3f12e2146104605780633d2dded51461048057806349561cb9146104bd57806354fd4d50146104de57806357dc48c81461050d5780636057e0ec146105615780636ba4c13814610582578063715018a6146105a257600080fd5b3661022a576000341161022857600080fd5b005b600080fd5b34801561023b57600080fd5b5061024f61024a366004611e59565b6108a7565b6040519081526020015b60405180910390f35b34801561026e57600080fd5b5061028261027d366004611eaf565b6108fd565b6040519015158152602001610259565b34801561029e57600080fd5b506102d96040518060400160405280601b81526020017a45524337323120457175616c20496e7374616e742053747265616d60281b81525081565b6040516102599190611ed9565b3480156102f257600080fd5b506001610282565b34801561030657600080fd5b5060075461031a906001600160401b031681565b6040516001600160401b039091168152602001610259565b34801561033e57600080fd5b5061035d61034d366004611f6d565b630a85bd0160e11b949350505050565b6040516001600160e01b03199091168152602001610259565b34801561038257600080fd5b5061022861039136600461204c565b61093d565b3480156103a257600080fd5b5060035461031a90600160a01b90046001600160401b031681565b3480156103c957600080fd5b5061024f6109cc565b3480156103de57600080fd5b506102286103ed36600461204c565b6109dd565b3480156103fe57600080fd5b5061022861040d366004612067565b610a39565b34801561041e57600080fd5b5060075461043390600160f01b900460ff1681565b604051610259919061209e565b34801561044c57600080fd5b5061022861045b3660046120c6565b610a98565b34801561046c57600080fd5b5061024f61047b366004611e59565b610aa6565b34801561048c57600080fd5b506000805260056020527f05b8ccbb9d4d8fb16ea74ce3c29a41f1b461fbdaff4714a0d9a8eb05499746bc5461024f565b3480156104c957600080fd5b5060075461028290600160f81b900460ff1681565b3480156104ea57600080fd5b506102d960405180604001604052806003815260200162302e3160e81b81525081565b34801561051957600080fd5b5061054c6105283660046120df565b60046020908152600092835260408084209091529082529020805460019091015482565b60408051928352602083019190915201610259565b34801561056d57600080fd5b5060075461028290600160e01b900460ff1681565b34801561058e57600080fd5b5061022861059d36600461210f565b610b24565b3480156105ae57600080fd5b50610228610b35565b3480156105c357600080fd5b5061024f6105d2366004612150565b610b49565b3480156105e357600080fd5b50610228610c0d565b3480156105f857600080fd5b5061024f61060736600461210f565b610c54565b34801561061857600080fd5b50610621610c69565b604051610259919061216d565b34801561063a57600080fd5b5061024f6106493660046120c6565b610c7e565b34801561065a57600080fd5b50610228610669366004612181565b610c8b565b34801561067a57600080fd5b5061024f6106893660046120df565b60009182526004602090815260408084206001600160a01b0393909316845291905290205490565b3480156106bd57600080fd5b506102286106cc3660046120c6565b610ddd565b3480156106dd57600080fd5b5060075461028290600160e81b900460ff1681565b3480156106fe57600080fd5b5061024f61070d366004612150565b6001600160a01b031660009081526005602052604090205490565b34801561073457600080fd5b50610228610743366004612150565b610e1c565b34801561075457600080fd5b50610228610e7a565b34801561076957600080fd5b50600354610621906001600160a01b031681565b34801561078957600080fd5b50610228610edb565b34801561079e57600080fd5b5060075461062190600160401b90046001600160a01b031681565b3480156107c557600080fd5b5061024f60065481565b3480156107db57600080fd5b506102286107ea3660046120df565b610f21565b3480156107fb57600080fd5b5061022861080a366004612212565b61111a565b34801561081b57600080fd5b5061022861082a366004612150565b611368565b34801561083b57600080fd5b5061022861084a36600461227d565b6113de565b34801561085b57600080fd5b5061024f61086a3660046120c6565b600090815260046020908152604080832083805290915290205490565b34801561089357600080fd5b5061024f6108a23660046120df565b611643565b600080805b848110156108f4576108d68686838181106108c9576108c96122e4565b9050602002013585611643565b6108e09083612310565b9150806108ec81612323565b9150506108ac565b50949350505050565b60006301ffc9a760e01b6001600160e01b03198316148061093757506001600160e01b0319821660009081526001602052604090205460ff165b92915050565b6109456116a6565b6003546001600160401b03600160a01b90910481169082161161099f5760405162461bcd60e51b815260206004820152600d60248201526c10d0539393d517d49155d25391609a1b60448201526064015b60405180910390fd5b600380546001600160401b03909216600160a01b0267ffffffffffffffff60a01b19909216919091179055565b60006109d86000610b49565b905090565b6109e56116a6565b60035442600160a01b9091046001600160401b031610610a175760405162461bcd60e51b81526004016109969061233c565b600780546001600160401b0319166001600160401b0392909216919091179055565b610a416116a6565b600754600160f81b900460ff1615610a6b5760405162461bcd60e51b815260040161099690612363565b6007805482919060ff60f01b1916600160f01b836003811115610a9057610a90612088565b021790555050565b610aa3816000610f21565b50565b600080805b848110156108f45760046000878784818110610ac957610ac96122e4565b9050602002013581526020019081526020016000206000856001600160a01b03166001600160a01b031681526020019081526020016000206000015482610b109190612310565b915080610b1c81612323565b915050610aab565b610b3182826000336113de565b5050565b610b3d6116a6565b610b476000611705565b565b60006001600160a01b038216610b7d576001600160a01b038216600090815260056020526040902054610937904790612310565b6040516370a0823160e01b81526001600160a01b038316906370a0823190610ba990309060040161216d565b602060405180830381865afa158015610bc6573d6000803e3d6000fd5b505050506040513d601f19601f82011682018060405250810190610bea9190612383565b6001600160a01b0383166000908152600560205260409020546109379190612310565b610c156116a6565b600754600160e01b900460ff1615610c3f5760405162461bcd60e51b815260040161099690612363565b6007805460ff60e01b1916600160e01b179055565b6000610c6283836000610aa6565b9392505050565b6000546201000090046001600160a01b031690565b6000610937826000611643565b600054610100900460ff1615808015610cab5750600054600160ff909116105b80610ccc5750610cba30611697565b158015610ccc575060005460ff166001145b610d2f5760405162461bcd60e51b815260206004820152602e60248201527f496e697469616c697a61626c653a20636f6e747261637420697320616c72656160448201526d191e481a5b9a5d1a585b1a5e995960921b6064820152608401610996565b6000805460ff191660011790558015610d52576000805461ff0019166101001790555b610d5b82611705565b610d66826000611760565b610d7883600001518460200151611791565b610d8583604001516117c2565b610d9283606001516117f2565b8015610dd8576000805461ff0019169055604051600181527f7f26b83ff96e1f2b6a682f133852f6798a09c465da95921460cefb38474024989060200160405180910390a15b505050565b610de56116a6565b60035442600160a01b9091046001600160401b031610610e175760405162461bcd60e51b81526004016109969061233c565b600655565b610e246116a6565b600754600160e01b900460ff1615610e4e5760405162461bcd60e51b815260040161099690612363565b600780546001600160a01b03909216600160401b02600160401b600160e01b0319909216919091179055565b610e826116a6565b600754600160f81b900460ff1615610ec45760405162461bcd60e51b815260206004820152600560248201526413d0d2d15160da1b6044820152606401610996565b600780546001600160f81b0316600160f81b179055565b610ee36116a6565b6007805460ff60e81b1916600160e81b1790556040517fa24423a69b45c25c0479663125e48b482e71d85eae416f589545243bafaf3c9590600090a1565b6002805403610f425760405162461bcd60e51b81526004016109969061239c565b6002805533610f52838383611822565b6000610f5e8484611643565b905060008111610fa35760405162461bcd60e51b815260206004820152601060248201526f4e4f5448494e475f544f5f434c41494d60801b6044820152606401610996565b60008481526004602090815260408083206001600160a01b038716845290915281208054839290610fd5908490612310565b909155505060008481526004602090815260408083206001600160a01b038716845282528083204260019091015560059091528120805483929061101a908490612310565b90915550506001600160a01b038316611045576110406001600160a01b03831682611838565b6110b8565b60405163a9059cbb60e01b81526001600160a01b0384169063a9059cbb9061107390859085906004016123d3565b6020604051808303816000875af1158015611092573d6000803e3d6000fd5b505050506040513d601f19601f820116820180604052508101906110b691906123ec565b505b604080513381526001600160a01b038481166020830152818301879052851660608201526080810183905290517fa2d3c4c1fc934d6d2d8f9e862df90c01ae4eb0e920cd8957d242ba26b8dc40789181900360a00190a1505060016002555050565b6111233361194e565b600754600160401b90046001600160a01b031661117a5760405162461bcd60e51b815260206004820152601560248201527415d2551211149055cbd393d7d49150d25412515395605a1b6044820152606401610996565b600754600160e81b900460ff16156111d45760405162461bcd60e51b815260206004820181905260248201527f57495448445241572f454d455247454e43595f504f5745525f5245564f4b45446044820152606401610996565b60005b838110156113245760008585838181106111f3576111f36122e4565b90506020020160208101906112089190612150565b6001600160a01b0316036112535761124e83838381811061122b5761122b6122e4565b6007546001600160a01b03600160401b9091041692602090910201359050611838565b611312565b848482818110611265576112656122e4565b905060200201602081019061127a9190612150565b6007546001600160a01b039182169163a9059cbb91600160401b9004168585858181106112a9576112a96122e4565b905060200201356040518363ffffffff1660e01b81526004016112cd9291906123d3565b6020604051808303816000875af11580156112ec573d6000803e3d6000fd5b505050506040513d601f19601f8201168201806040525081019061131091906123ec565b505b8061131c81612323565b9150506111d7565b507fd40c399a83caf67d15628b821aa7c7bd940e563c57a047e2bd3b8c602bcaf5a58484848460405161135a9493929190612440565b60405180910390a150505050565b6113706116a6565b6001600160a01b0381166113d55760405162461bcd60e51b815260206004820152602660248201527f4f776e61626c653a206e6577206f776e657220697320746865207a65726f206160448201526564647265737360d01b6064820152608401610996565b610aa381611705565b60028054036113ff5760405162461bcd60e51b81526004016109969061239c565b600280556000805b8481101561152f57611432868683818110611424576114246122e4565b905060200201358585611822565b6000611456878784818110611449576114496122e4565b9050602002013586611643565b9050801561151c578060046000898986818110611475576114756122e4565b9050602002013581526020019081526020016000206000876001600160a01b03166001600160a01b0316815260200190815260200160002060000160008282546114bf9190612310565b90915550429050600460008989868181106114dc576114dc6122e4565b6020908102929092013583525081810192909252604090810160009081206001600160a01b038a1682529092529020600101556115198184612310565b92505b508061152781612323565b915050611407565b506001600160a01b03831660009081526005602052604081208054839290611558908490612310565b90915550506001600160a01b0383166115835761157e6001600160a01b03831682611838565b6115f6565b60405163a9059cbb60e01b81526001600160a01b0384169063a9059cbb906115b190859085906004016123d3565b6020604051808303816000875af11580156115d0573d6000803e3d6000fd5b505050506040513d601f19601f820116820180604052508101906115f491906123ec565b505b7fd84a5c424a4f777bcf4f645712b8e5ebfc550f42bde444fa822fe98ee1b132b133838787878660405161162f969594939291906124a3565b60405180910390a150506001600255505050565b60008061165f61165861165585610b49565b90565b8585611adb565b60008581526004602090815260408083206001600160a01b038816845290915290205490915061168f90826124e2565b949350505050565b6001600160a01b03163b151590565b336116af610c69565b6001600160a01b031614610b475760405162461bcd60e51b815260206004820181905260248201527f4f776e61626c653a2063616c6c6572206973206e6f7420746865206f776e65726044820152606401610996565b600080546001600160a01b038381166201000081810262010000600160b01b0319851617855560405193049190911692909183917f8be0079c531659141344cd1fd0a4f28419497f9722a3daafe3b4186f6b6457e091a35050565b600054610100900460ff166117875760405162461bcd60e51b8152600401610996906124f5565b610b318282611aeb565b600054610100900460ff166117b85760405162461bcd60e51b8152600401610996906124f5565b610b318282611b85565b600054610100900460ff166117e95760405162461bcd60e51b8152600401610996906124f5565b610aa381611bea565b600054610100900460ff166118195760405162461bcd60e51b8152600401610996906124f5565b610aa381611c26565b61182d838383611c78565b610dd8838383611d2d565b804710156118885760405162461bcd60e51b815260206004820152601d60248201527f416464726573733a20696e73756666696369656e742062616c616e63650000006044820152606401610996565b6000826001600160a01b03168260405160006040518083038185875af1925050503d80600081146118d5576040519150601f19603f3d011682016040523d82523d6000602084013e6118da565b606091505b5050905080610dd85760405162461bcd60e51b815260206004820152603a60248201527f416464726573733a20756e61626c6520746f2073656e642076616c75652c20726044820152791958da5c1a595b9d081b585e481a185d99481c995d995c9d195960321b6064820152608401610996565b6003600754600160f01b900460ff16600381111561196e5761196e612088565b036119ad5760405162461bcd60e51b815260206004820152600f60248201526e15d2551211149055cbd313d0d2d151608a1b6044820152606401610996565b6002600754600160f01b900460ff1660038111156119cd576119cd612088565b036119d55750565b6001600754600160f01b900460ff1660038111156119f5576119f5612088565b03611a58576007546001600160a01b03828116600160401b9092041614610aa35760405162461bcd60e51b815260206004820152601760248201527615d2551211149055cbd3d3931657d49150d25412515395604a1b6044820152606401610996565b6000600754600160f01b900460ff166003811115611a7857611a78612088565b03610aa357806001600160a01b0316611a8f610c69565b6001600160a01b031614610aa35760405162461bcd60e51b81526020600482015260136024820152722ba4aa24222920ab97a7a7262cafa7aba722a960691b6044820152606401610996565b60006006548461168f9190612540565b600054610100900460ff16611b125760405162461bcd60e51b8152600401610996906124f5565b611b2263ac2ba33360e01b611d78565b60078054600160401b600160e01b03198116600160401b6001600160a01b038616029081178355839291600160401b62ff000160e01b03191660ff60f01b1990911617600160f01b836003811115611b7c57611b7c612088565b02179055505050565b600054610100900460ff16611bac5760405162461bcd60e51b8152600401610996906124f5565b600380546001600160401b038316600160a01b026001600160e01b03199091166001600160a01b03851617179055610b31631ba050e960e21b611d78565b600054610100900460ff16611c115760405162461bcd60e51b8152600401610996906124f5565b6006819055610aa3632d5305cb60e21b611d78565b600054610100900460ff16611c4d5760405162461bcd60e51b8152600401610996906124f5565b600780546001600160401b0319166001600160401b038316179055610aa36317b2ef4360e31b611d78565b6003546040516331a9108f60e11b8152600481018590526001600160a01b03838116921690636352211e90602401602060405180830381865afa158015611cc3573d6000803e3d6000fd5b505050506040513d601f19601f82011682018060405250810190611ce79190612562565b6001600160a01b031614610dd85760405162461bcd60e51b815260206004820152600d60248201526c2727aa2fa7232a2fa7aba722a960991b6044820152606401610996565b600754426001600160401b0390911610610dd85760405162461bcd60e51b815260206004820152600c60248201526b10d310525357d313d0d2d15160a21b6044820152606401610996565b6001600160e01b03198082169003611dd15760405162461bcd60e51b815260206004820152601c60248201527b115490cc4d8d4e881a5b9d985b1a59081a5b9d195c999858d9481a5960221b6044820152606401610996565b6001600160e01b0319166000908152600160208190526040909120805460ff19169091179055565b60008083601f840112611e0b57600080fd5b5081356001600160401b03811115611e2257600080fd5b6020830191508360208260051b8501011115611e3d57600080fd5b9250929050565b6001600160a01b0381168114610aa357600080fd5b600080600060408486031215611e6e57600080fd5b83356001600160401b03811115611e8457600080fd5b611e9086828701611df9565b9094509250506020840135611ea481611e44565b809150509250925092565b600060208284031215611ec157600080fd5b81356001600160e01b031981168114610c6257600080fd5b600060208083528351808285015260005b81811015611f0657858101830151858201604001528201611eea565b506000604082860101526040601f19601f8301168501019250505092915050565b634e487b7160e01b600052604160045260246000fd5b604051601f8201601f191681016001600160401b0381118282101715611f6557611f65611f27565b604052919050565b60008060008060808587031215611f8357600080fd5b8435611f8e81611e44565b9350602085810135611f9f81611e44565b93506040860135925060608601356001600160401b0380821115611fc257600080fd5b818801915088601f830112611fd657600080fd5b813581811115611fe857611fe8611f27565b611ffa601f8201601f19168501611f3d565b9150808252898482850101111561201057600080fd5b808484018584013760008482840101525080935050505092959194509250565b80356001600160401b038116811461204757600080fd5b919050565b60006020828403121561205e57600080fd5b610c6282612030565b60006020828403121561207957600080fd5b813560048110610c6257600080fd5b634e487b7160e01b600052602160045260246000fd5b60208101600483106120c057634e487b7160e01b600052602160045260246000fd5b91905290565b6000602082840312156120d857600080fd5b5035919050565b600080604083850312156120f257600080fd5b82359150602083013561210481611e44565b809150509250929050565b6000806020838503121561212257600080fd5b82356001600160401b0381111561213857600080fd5b61214485828601611df9565b90969095509350505050565b60006020828403121561216257600080fd5b8135610c6281611e44565b6001600160a01b0391909116815260200190565b60008082840360a081121561219557600080fd5b60808112156121a357600080fd5b50604051608081018181106001600160401b03821117156121c6576121c6611f27565b60405283356121d481611e44565b81526121e260208501612030565b6020820152604084013560408201526121fd60608501612030565b60608201529150608083013561210481611e44565b6000806000806040858703121561222857600080fd5b84356001600160401b038082111561223f57600080fd5b61224b88838901611df9565b9096509450602087013591508082111561226457600080fd5b5061227187828801611df9565b95989497509550505050565b6000806000806060858703121561229357600080fd5b84356001600160401b038111156122a957600080fd5b6122b587828801611df9565b90955093505060208501356122c981611e44565b915060408501356122d981611e44565b939692955090935050565b634e487b7160e01b600052603260045260246000fd5b634e487b7160e01b600052601160045260246000fd5b80820180821115610937576109376122fa565b600060018201612335576123356122fa565b5060010190565b6020808252600d908201526c10d3d3919251d7d313d0d2d151609a1b604082015260600190565b6020808252600690820152651313d0d2d15160d21b604082015260600190565b60006020828403121561239557600080fd5b5051919050565b6020808252601f908201527f5265656e7472616e637947756172643a207265656e7472616e742063616c6c00604082015260600190565b6001600160a01b03929092168252602082015260400190565b6000602082840312156123fe57600080fd5b81518015158114610c6257600080fd5b81835260006001600160fb1b0383111561242757600080fd5b8260051b80836020870137939093016020019392505050565b6040808252810184905260008560608301825b8781101561248357823561246681611e44565b6001600160a01b0316825260209283019290910190600101612453565b50838103602085015261249781868861240e565b98975050505050505050565b600060018060a01b038089168352808816602084015260a060408401526124ce60a08401878961240e565b941660608301525060800152949350505050565b81810381811115610937576109376122fa565b6020808252602b908201527f496e697469616c697a61626c653a20636f6e7472616374206973206e6f74206960408201526a6e697469616c697a696e6760a81b606082015260800190565b60008261255d57634e487b7160e01b600052601260045260246000fd5b500490565b60006020828403121561257457600080fd5b8151610c6281611e4456fea264697066735822122028f8869c51ec8d561d78526a4b4b4aabc5cf2aafd57ed710f4fc0f37e9b2c36264736f6c63430008100033",
  "devdoc": {
    "kind": "dev",
    "methods": {
      "owner()": {
        "details": "Returns the address of the current owner."
      },
      "renounceOwnership()": {
        "details": "Leaves the contract without owner. It will not be possible to call `onlyOwner` functions anymore. Can only be called by the current owner. NOTE: Renouncing ownership will leave the contract without an owner, thereby removing any functionality that is only available to the owner."
      },
      "supportsInterface(bytes4)": {
        "details": "See {IERC165-supportsInterface}."
      },
      "transferOwnership(address)": {
        "details": "Transfers ownership of the contract to a new account (`newOwner`). Can only be called by the current owner."
      }
    },
    "version": 1
  },
  "userdoc": {
    "kind": "user",
    "methods": {},
    "version": 1
  },
  "storageLayout": {
    "storage": [
      {
        "astId": 974,
        "contract": "contracts/streams/ERC721/presets/ERC721EqualInstantStream.sol:ERC721EqualInstantStream",
        "label": "_initialized",
        "offset": 0,
        "slot": "0",
        "type": "t_uint8"
      },
      {
        "astId": 977,
        "contract": "contracts/streams/ERC721/presets/ERC721EqualInstantStream.sol:ERC721EqualInstantStream",
        "label": "_initializing",
        "offset": 1,
        "slot": "0",
        "type": "t_bool"
      },
      {
        "astId": 782,
        "contract": "contracts/streams/ERC721/presets/ERC721EqualInstantStream.sol:ERC721EqualInstantStream",
        "label": "_owner",
        "offset": 2,
        "slot": "0",
        "type": "t_address"
      },
      {
        "astId": 5217,
        "contract": "contracts/streams/ERC721/presets/ERC721EqualInstantStream.sol:ERC721EqualInstantStream",
        "label": "_supportedInterfaces",
        "offset": 0,
        "slot": "1",
        "type": "t_mapping(t_bytes4,t_bool)"
      },
      {
        "astId": 1237,
        "contract": "contracts/streams/ERC721/presets/ERC721EqualInstantStream.sol:ERC721EqualInstantStream",
        "label": "_status",
        "offset": 0,
        "slot": "2",
        "type": "t_uint256"
      },
      {
        "astId": 15707,
        "contract": "contracts/streams/ERC721/presets/ERC721EqualInstantStream.sol:ERC721EqualInstantStream",
        "label": "ticketToken",
        "offset": 0,
        "slot": "3",
        "type": "t_address"
      },
      {
        "astId": 15709,
        "contract": "contracts/streams/ERC721/presets/ERC721EqualInstantStream.sol:ERC721EqualInstantStream",
        "label": "lockedUntilTimestamp",
        "offset": 20,
        "slot": "3",
        "type": "t_uint64"
      },
      {
        "astId": 15716,
        "contract": "contracts/streams/ERC721/presets/ERC721EqualInstantStream.sol:ERC721EqualInstantStream",
        "label": "entitlements",
        "offset": 0,
        "slot": "4",
        "type": "t_mapping(t_uint256,t_mapping(t_address,t_struct(Entitlement)15705_storage))"
      },
      {
        "astId": 15720,
        "contract": "contracts/streams/ERC721/presets/ERC721EqualInstantStream.sol:ERC721EqualInstantStream",
        "label": "_streamTotalClaimed",
        "offset": 0,
        "slot": "5",
        "type": "t_mapping(t_address,t_uint256)"
      },
      {
        "astId": 17038,
        "contract": "contracts/streams/ERC721/presets/ERC721EqualInstantStream.sol:ERC721EqualInstantStream",
        "label": "totalTickets",
        "offset": 0,
        "slot": "6",
        "type": "t_uint256"
      },
      {
        "astId": 17230,
        "contract": "contracts/streams/ERC721/presets/ERC721EqualInstantStream.sol:ERC721EqualInstantStream",
        "label": "claimLockedUntil",
        "offset": 0,
        "slot": "7",
        "type": "t_uint64"
      },
      {
        "astId": 14335,
        "contract": "contracts/streams/ERC721/presets/ERC721EqualInstantStream.sol:ERC721EqualInstantStream",
        "label": "withdrawRecipient",
        "offset": 8,
        "slot": "7",
        "type": "t_address"
      },
      {
        "astId": 14337,
        "contract": "contracts/streams/ERC721/presets/ERC721EqualInstantStream.sol:ERC721EqualInstantStream",
        "label": "withdrawRecipientLocked",
        "offset": 28,
        "slot": "7",
        "type": "t_bool"
      },
      {
        "astId": 14339,
        "contract": "contracts/streams/ERC721/presets/ERC721EqualInstantStream.sol:ERC721EqualInstantStream",
        "label": "withdrawPowerRevoked",
        "offset": 29,
        "slot": "7",
        "type": "t_bool"
      },
      {
        "astId": 14342,
        "contract": "contracts/streams/ERC721/presets/ERC721EqualInstantStream.sol:ERC721EqualInstantStream",
        "label": "withdrawMode",
        "offset": 30,
        "slot": "7",
        "type": "t_enum(WithdrawMode)14279"
      },
      {
        "astId": 14344,
        "contract": "contracts/streams/ERC721/presets/ERC721EqualInstantStream.sol:ERC721EqualInstantStream",
        "label": "withdrawModeLocked",
        "offset": 31,
        "slot": "7",
        "type": "t_bool"
      }
    ],
    "types": {
      "t_address": {
        "encoding": "inplace",
        "label": "address",
        "numberOfBytes": "20"
      },
      "t_bool": {
        "encoding": "inplace",
        "label": "bool",
        "numberOfBytes": "1"
      },
      "t_bytes4": {
        "encoding": "inplace",
        "label": "bytes4",
        "numberOfBytes": "4"
      },
      "t_enum(WithdrawMode)14279": {
        "encoding": "inplace",
        "label": "enum WithdrawMode",
        "numberOfBytes": "1"
      },
      "t_mapping(t_address,t_struct(Entitlement)15705_storage)": {
        "encoding": "mapping",
        "key": "t_address",
        "label": "mapping(address => struct ERC721MultiTokenStream.Entitlement)",
        "numberOfBytes": "32",
        "value": "t_struct(Entitlement)15705_storage"
      },
      "t_mapping(t_address,t_uint256)": {
        "encoding": "mapping",
        "key": "t_address",
        "label": "mapping(address => uint256)",
        "numberOfBytes": "32",
        "value": "t_uint256"
      },
      "t_mapping(t_bytes4,t_bool)": {
        "encoding": "mapping",
        "key": "t_bytes4",
        "label": "mapping(bytes4 => bool)",
        "numberOfBytes": "32",
        "value": "t_bool"
      },
      "t_mapping(t_uint256,t_mapping(t_address,t_struct(Entitlement)15705_storage))": {
        "encoding": "mapping",
        "key": "t_uint256",
        "label": "mapping(uint256 => mapping(address => struct ERC721MultiTokenStream.Entitlement))",
        "numberOfBytes": "32",
        "value": "t_mapping(t_address,t_struct(Entitlement)15705_storage)"
      },
      "t_struct(Entitlement)15705_storage": {
        "encoding": "inplace",
        "label": "struct ERC721MultiTokenStream.Entitlement",
        "members": [
          {
            "astId": 15702,
            "contract": "contracts/streams/ERC721/presets/ERC721EqualInstantStream.sol:ERC721EqualInstantStream",
            "label": "totalClaimed",
            "offset": 0,
            "slot": "0",
            "type": "t_uint256"
          },
          {
            "astId": 15704,
            "contract": "contracts/streams/ERC721/presets/ERC721EqualInstantStream.sol:ERC721EqualInstantStream",
            "label": "lastClaimedAt",
            "offset": 0,
            "slot": "1",
            "type": "t_uint256"
          }
        ],
        "numberOfBytes": "64"
      },
      "t_uint256": {
        "encoding": "inplace",
        "label": "uint256",
        "numberOfBytes": "32"
      },
      "t_uint64": {
        "encoding": "inplace",
        "label": "uint64",
        "numberOfBytes": "8"
      },
      "t_uint8": {
        "encoding": "inplace",
        "label": "uint8",
        "numberOfBytes": "1"
      }
    }
  }
}