{
  "address": "0x9aB2DfDd0F2eD73Fb8505b78deC792f7E2937884",
  "abi": [
    {
      "inputs": [
        {
          "components": [
            {
              "internalType": "string",
              "name": "name",
              "type": "string"
            },
            {
              "internalType": "string",
              "name": "symbol",
              "type": "string"
            },
            {
              "internalType": "string",
              "name": "contractURI",
              "type": "string"
            },
            {
              "internalType": "string",
              "name": "placeholderURI",
              "type": "string"
            },
            {
              "internalType": "string",
              "name": "tokenURIPrefix",
              "type": "string"
            },
            {
              "internalType": "uint256",
              "name": "maxSupply",
              "type": "uint256"
            },
            {
              "components": [
                {
                  "internalType": "uint256",
                  "name": "start",
                  "type": "uint256"
                },
                {
                  "internalType": "uint256",
                  "name": "end",
                  "type": "uint256"
                },
                {
                  "internalType": "address",
                  "name": "currency",
                  "type": "address"
                },
                {
                  "internalType": "uint256",
                  "name": "price",
                  "type": "uint256"
                },
                {
                  "internalType": "uint256",
                  "name": "maxPerWallet",
                  "type": "uint256"
                },
                {
                  "internalType": "bytes32",
                  "name": "merkleRoot",
                  "type": "bytes32"
                },
                {
                  "internalType": "uint256",
                  "name": "reserved",
                  "type": "uint256"
                },
                {
                  "internalType": "uint256",
                  "name": "maxAllocation",
                  "type": "uint256"
                }
              ],
              "internalType": "struct IERC721TieringExtension.Tier[]",
              "name": "tiers",
              "type": "tuple[]"
            },
            {
              "internalType": "address",
              "name": "defaultRoyaltyAddress",
              "type": "address"
            },
            {
              "internalType": "uint16",
              "name": "defaultRoyaltyBps",
              "type": "uint16"
            },
            {
              "internalType": "address",
              "name": "proceedsRecipient",
              "type": "address"
            },
            {
              "internalType": "address",
              "name": "trustedForwarder",
              "type": "address"
            }
          ],
          "internalType": "struct ERC721TieredSalesCollection.Config",
          "name": "config",
          "type": "tuple"
        }
      ],
      "stateMutability": "nonpayable",
      "type": "constructor"
    },
    {
      "anonymous": false,
      "inputs": [
        {
          "indexed": true,
          "internalType": "address",
          "name": "owner",
          "type": "address"
        },
        {
          "indexed": true,
          "internalType": "address",
          "name": "approved",
          "type": "address"
        },
        {
          "indexed": true,
          "internalType": "uint256",
          "name": "tokenId",
          "type": "uint256"
        }
      ],
      "name": "Approval",
      "type": "event"
    },
    {
      "anonymous": false,
      "inputs": [
        {
          "indexed": true,
          "internalType": "address",
          "name": "owner",
          "type": "address"
        },
        {
          "indexed": true,
          "internalType": "address",
          "name": "operator",
          "type": "address"
        },
        {
          "indexed": false,
          "internalType": "bool",
          "name": "approved",
          "type": "bool"
        }
      ],
      "name": "ApprovalForAll",
      "type": "event"
    },
    {
      "anonymous": false,
      "inputs": [
        {
          "indexed": false,
          "internalType": "address",
          "name": "recipient",
          "type": "address"
        },
        {
          "indexed": false,
          "internalType": "uint16",
          "name": "bps",
          "type": "uint16"
        }
      ],
      "name": "DefaultRoyaltySet",
      "type": "event"
    },
    {
      "anonymous": false,
      "inputs": [
        {
          "indexed": false,
          "internalType": "uint8",
          "name": "version",
          "type": "uint8"
        }
      ],
      "name": "Initialized",
      "type": "event"
    },
    {
      "anonymous": false,
      "inputs": [
        {
          "indexed": true,
          "internalType": "address",
          "name": "previousOwner",
          "type": "address"
        },
        {
          "indexed": true,
          "internalType": "address",
          "name": "newOwner",
          "type": "address"
        }
      ],
      "name": "OwnershipTransferred",
      "type": "event"
    },
    {
      "anonymous": false,
      "inputs": [
        {
          "indexed": true,
          "internalType": "bytes32",
          "name": "role",
          "type": "bytes32"
        },
        {
          "indexed": true,
          "internalType": "bytes32",
          "name": "previousAdminRole",
          "type": "bytes32"
        },
        {
          "indexed": true,
          "internalType": "bytes32",
          "name": "newAdminRole",
          "type": "bytes32"
        }
      ],
      "name": "RoleAdminChanged",
      "type": "event"
    },
    {
      "anonymous": false,
      "inputs": [
        {
          "indexed": true,
          "internalType": "bytes32",
          "name": "role",
          "type": "bytes32"
        },
        {
          "indexed": true,
          "internalType": "address",
          "name": "account",
          "type": "address"
        },
        {
          "indexed": true,
          "internalType": "address",
          "name": "sender",
          "type": "address"
        }
      ],
      "name": "RoleGranted",
      "type": "event"
    },
    {
      "anonymous": false,
      "inputs": [
        {
          "indexed": true,
          "internalType": "bytes32",
          "name": "role",
          "type": "bytes32"
        },
        {
          "indexed": true,
          "internalType": "address",
          "name": "account",
          "type": "address"
        },
        {
          "indexed": true,
          "internalType": "address",
          "name": "sender",
          "type": "address"
        }
      ],
      "name": "RoleRevoked",
      "type": "event"
    },
    {
      "anonymous": false,
      "inputs": [
        {
          "indexed": false,
          "internalType": "uint256",
          "name": "tokenId",
          "type": "uint256"
        }
      ],
      "name": "TokenRoyaltyRemoved",
      "type": "event"
    },
    {
      "anonymous": false,
      "inputs": [
        {
          "indexed": false,
          "internalType": "uint256",
          "name": "tokenId",
          "type": "uint256"
        },
        {
          "indexed": false,
          "internalType": "address",
          "name": "recipient",
          "type": "address"
        },
        {
          "indexed": false,
          "internalType": "uint16",
          "name": "bps",
          "type": "uint16"
        }
      ],
      "name": "TokenRoyaltySet",
      "type": "event"
    },
    {
      "anonymous": false,
      "inputs": [
        {
          "indexed": true,
          "internalType": "address",
          "name": "from",
          "type": "address"
        },
        {
          "indexed": true,
          "internalType": "address",
          "name": "to",
          "type": "address"
        },
        {
          "indexed": true,
          "internalType": "uint256",
          "name": "tokenId",
          "type": "uint256"
        }
      ],
      "name": "Transfer",
      "type": "event"
    },
    {
      "anonymous": false,
      "inputs": [],
      "name": "WithdrawPowerRevoked",
      "type": "event"
    },
    {
      "anonymous": false,
      "inputs": [
        {
          "indexed": false,
          "internalType": "address[]",
          "name": "claimTokens",
          "type": "address[]"
        },
        {
          "indexed": false,
          "internalType": "uint256[]",
          "name": "amounts",
          "type": "uint256[]"
        }
      ],
      "name": "Withdrawn",
      "type": "event"
    },
    {
      "inputs": [],
      "name": "DEFAULT_ADMIN_ROLE",
      "outputs": [
        {
          "internalType": "bytes32",
          "name": "",
          "type": "bytes32"
        }
      ],
      "stateMutability": "view",
      "type": "function"
    },
    {
      "inputs": [],
      "name": "LOCKER_ROLE",
      "outputs": [
        {
          "internalType": "bytes32",
          "name": "",
          "type": "bytes32"
        }
      ],
      "stateMutability": "view",
      "type": "function"
    },
    {
      "inputs": [],
      "name": "MINTER_ROLE",
      "outputs": [
        {
          "internalType": "bytes32",
          "name": "",
          "type": "bytes32"
        }
      ],
      "stateMutability": "view",
      "type": "function"
    },
    {
      "inputs": [],
      "name": "_trustedForwarder",
      "outputs": [
        {
          "internalType": "address",
          "name": "",
          "type": "address"
        }
      ],
      "stateMutability": "view",
      "type": "function"
    },
    {
      "inputs": [
        {
          "internalType": "address",
          "name": "to",
          "type": "address"
        },
        {
          "internalType": "uint256",
          "name": "tokenId",
          "type": "uint256"
        }
      ],
      "name": "approve",
      "outputs": [],
      "stateMutability": "nonpayable",
      "type": "function"
    },
    {
      "inputs": [
        {
          "internalType": "address",
          "name": "owner",
          "type": "address"
        }
      ],
      "name": "balanceOf",
      "outputs": [
        {
          "internalType": "uint256",
          "name": "",
          "type": "uint256"
        }
      ],
      "stateMutability": "view",
      "type": "function"
    },
    {
      "inputs": [
        {
          "internalType": "uint256",
          "name": "tierId",
          "type": "uint256"
        },
        {
          "components": [
            {
              "internalType": "uint256",
              "name": "start",
              "type": "uint256"
            },
            {
              "internalType": "uint256",
              "name": "end",
              "type": "uint256"
            },
            {
              "internalType": "address",
              "name": "currency",
              "type": "address"
            },
            {
              "internalType": "uint256",
              "name": "price",
              "type": "uint256"
            },
            {
              "internalType": "uint256",
              "name": "maxPerWallet",
              "type": "uint256"
            },
            {
              "internalType": "bytes32",
              "name": "merkleRoot",
              "type": "bytes32"
            },
            {
              "internalType": "uint256",
              "name": "reserved",
              "type": "uint256"
            },
            {
              "internalType": "uint256",
              "name": "maxAllocation",
              "type": "uint256"
            }
          ],
          "internalType": "struct IERC721TieringExtension.Tier",
          "name": "tier",
          "type": "tuple"
        }
      ],
      "name": "configureTiering",
      "outputs": [],
      "stateMutability": "nonpayable",
      "type": "function"
    },
    {
      "inputs": [
        {
          "internalType": "uint256[]",
          "name": "_tierIds",
          "type": "uint256[]"
        },
        {
          "components": [
            {
              "internalType": "uint256",
              "name": "start",
              "type": "uint256"
            },
            {
              "internalType": "uint256",
              "name": "end",
              "type": "uint256"
            },
            {
              "internalType": "address",
              "name": "currency",
              "type": "address"
            },
            {
              "internalType": "uint256",
              "name": "price",
              "type": "uint256"
            },
            {
              "internalType": "uint256",
              "name": "maxPerWallet",
              "type": "uint256"
            },
            {
              "internalType": "bytes32",
              "name": "merkleRoot",
              "type": "bytes32"
            },
            {
              "internalType": "uint256",
              "name": "reserved",
              "type": "uint256"
            },
            {
              "internalType": "uint256",
              "name": "maxAllocation",
              "type": "uint256"
            }
          ],
          "internalType": "struct IERC721TieringExtension.Tier[]",
          "name": "_tiers",
          "type": "tuple[]"
        }
      ],
      "name": "configureTiering",
      "outputs": [],
      "stateMutability": "nonpayable",
      "type": "function"
    },
    {
      "inputs": [],
      "name": "contractURI",
      "outputs": [
        {
          "internalType": "string",
          "name": "",
          "type": "string"
        }
      ],
      "stateMutability": "view",
      "type": "function"
    },
    {
      "inputs": [],
      "name": "defaultRoyalty",
      "outputs": [
        {
          "internalType": "address",
          "name": "recipient",
          "type": "address"
        },
        {
          "internalType": "uint16",
          "name": "bps",
          "type": "uint16"
        }
      ],
      "stateMutability": "view",
      "type": "function"
    },
    {
      "inputs": [
        {
          "internalType": "uint256",
          "name": "tierId",
          "type": "uint256"
        },
        {
          "internalType": "address",
          "name": "minter",
          "type": "address"
        },
        {
          "internalType": "uint256",
          "name": "maxAllowance",
          "type": "uint256"
        },
        {
          "internalType": "bytes32[]",
          "name": "proof",
          "type": "bytes32[]"
        }
      ],
      "name": "eligibleForTier",
      "outputs": [
        {
          "internalType": "uint256",
          "name": "maxMintable",
          "type": "uint256"
        }
      ],
      "stateMutability": "view",
      "type": "function"
    },
    {
      "inputs": [
        {
          "internalType": "uint256[]",
          "name": "ticketTokenIds",
          "type": "uint256[]"
        }
      ],
      "name": "filterUnlocked",
      "outputs": [
        {
          "internalType": "uint256[]",
          "name": "",
          "type": "uint256[]"
        }
      ],
      "stateMutability": "view",
      "type": "function"
    },
    {
      "inputs": [],
      "name": "freezeMaxSupply",
      "outputs": [],
      "stateMutability": "nonpayable",
      "type": "function"
    },
    {
      "inputs": [],
      "name": "freezeTokenURI",
      "outputs": [],
      "stateMutability": "nonpayable",
      "type": "function"
    },
    {
      "inputs": [
        {
          "internalType": "uint256",
          "name": "tokenId",
          "type": "uint256"
        }
      ],
      "name": "getApproved",
      "outputs": [
        {
          "internalType": "address",
          "name": "",
          "type": "address"
        }
      ],
      "stateMutability": "view",
      "type": "function"
    },
    {
      "inputs": [
        {
          "internalType": "uint256",
          "name": "id",
          "type": "uint256"
        }
      ],
      "name": "getRaribleV2Royalties",
      "outputs": [
        {
          "components": [
            {
              "internalType": "address payable",
              "name": "account",
              "type": "address"
            },
            {
              "internalType": "uint96",
              "name": "value",
              "type": "uint96"
            }
          ],
          "internalType": "struct LibPart.Part[]",
          "name": "result",
          "type": "tuple[]"
        }
      ],
      "stateMutability": "view",
      "type": "function"
    },
    {
      "inputs": [
        {
          "internalType": "bytes32",
          "name": "role",
          "type": "bytes32"
        }
      ],
      "name": "getRoleAdmin",
      "outputs": [
        {
          "internalType": "bytes32",
          "name": "",
          "type": "bytes32"
        }
      ],
      "stateMutability": "view",
      "type": "function"
    },
    {
      "inputs": [],
      "name": "getTokenRoyaltiesCount",
      "outputs": [
        {
          "internalType": "uint256",
          "name": "",
          "type": "uint256"
        }
      ],
      "stateMutability": "view",
      "type": "function"
    },
    {
      "inputs": [
        {
          "internalType": "uint256",
          "name": "index",
          "type": "uint256"
        }
      ],
      "name": "getTokenRoyaltyByIndex",
      "outputs": [
        {
          "components": [
            {
              "internalType": "uint256",
              "name": "tokenId",
              "type": "uint256"
            },
            {
              "internalType": "address",
              "name": "recipient",
              "type": "address"
            },
            {
              "internalType": "uint16",
              "name": "bps",
              "type": "uint16"
            }
          ],
          "internalType": "struct IEIP2981RoyaltyOverride.TokenRoyaltyConfig",
          "name": "",
          "type": "tuple"
        }
      ],
      "stateMutability": "view",
      "type": "function"
    },
    {
      "inputs": [
        {
          "internalType": "bytes32",
          "name": "role",
          "type": "bytes32"
        },
        {
          "internalType": "address",
          "name": "account",
          "type": "address"
        }
      ],
      "name": "grantRole",
      "outputs": [],
      "stateMutability": "nonpayable",
      "type": "function"
    },
    {
      "inputs": [
        {
          "internalType": "bytes32",
          "name": "role",
          "type": "bytes32"
        },
        {
          "internalType": "address",
          "name": "account",
          "type": "address"
        }
      ],
      "name": "hasRole",
      "outputs": [
        {
          "internalType": "bool",
          "name": "",
          "type": "bool"
        }
      ],
      "stateMutability": "view",
      "type": "function"
    },
    {
      "inputs": [],
      "name": "hasRoleBasedLockableExtension",
      "outputs": [
        {
          "internalType": "bool",
          "name": "",
          "type": "bool"
        }
      ],
      "stateMutability": "view",
      "type": "function"
    },
    {
      "inputs": [
        {
          "components": [
            {
              "internalType": "string",
              "name": "name",
              "type": "string"
            },
            {
              "internalType": "string",
              "name": "symbol",
              "type": "string"
            },
            {
              "internalType": "string",
              "name": "contractURI",
              "type": "string"
            },
            {
              "internalType": "string",
              "name": "placeholderURI",
              "type": "string"
            },
            {
              "internalType": "string",
              "name": "tokenURIPrefix",
              "type": "string"
            },
            {
              "internalType": "uint256",
              "name": "maxSupply",
              "type": "uint256"
            },
            {
              "components": [
                {
                  "internalType": "uint256",
                  "name": "start",
                  "type": "uint256"
                },
                {
                  "internalType": "uint256",
                  "name": "end",
                  "type": "uint256"
                },
                {
                  "internalType": "address",
                  "name": "currency",
                  "type": "address"
                },
                {
                  "internalType": "uint256",
                  "name": "price",
                  "type": "uint256"
                },
                {
                  "internalType": "uint256",
                  "name": "maxPerWallet",
                  "type": "uint256"
                },
                {
                  "internalType": "bytes32",
                  "name": "merkleRoot",
                  "type": "bytes32"
                },
                {
                  "internalType": "uint256",
                  "name": "reserved",
                  "type": "uint256"
                },
                {
                  "internalType": "uint256",
                  "name": "maxAllocation",
                  "type": "uint256"
                }
              ],
              "internalType": "struct IERC721TieringExtension.Tier[]",
              "name": "tiers",
              "type": "tuple[]"
            },
            {
              "internalType": "address",
              "name": "defaultRoyaltyAddress",
              "type": "address"
            },
            {
              "internalType": "uint16",
              "name": "defaultRoyaltyBps",
              "type": "uint16"
            },
            {
              "internalType": "address",
              "name": "proceedsRecipient",
              "type": "address"
            },
            {
              "internalType": "address",
              "name": "trustedForwarder",
              "type": "address"
            }
          ],
          "internalType": "struct ERC721TieredSalesCollection.Config",
          "name": "config",
          "type": "tuple"
        },
        {
          "internalType": "address",
          "name": "deployer",
          "type": "address"
        }
      ],
      "name": "initialize",
      "outputs": [],
      "stateMutability": "nonpayable",
      "type": "function"
    },
    {
      "inputs": [
        {
          "internalType": "address",
          "name": "owner",
          "type": "address"
        },
        {
          "internalType": "address",
          "name": "operator",
          "type": "address"
        }
      ],
      "name": "isApprovedForAll",
      "outputs": [
        {
          "internalType": "bool",
          "name": "",
          "type": "bool"
        }
      ],
      "stateMutability": "view",
      "type": "function"
    },
    {
      "inputs": [
        {
          "internalType": "address",
          "name": "forwarder",
          "type": "address"
        }
      ],
      "name": "isTrustedForwarder",
      "outputs": [
        {
          "internalType": "bool",
          "name": "",
          "type": "bool"
        }
      ],
      "stateMutability": "view",
      "type": "function"
    },
    {
      "inputs": [
        {
          "internalType": "uint256[]",
          "name": "tokenIds",
          "type": "uint256[]"
        }
      ],
      "name": "lock",
      "outputs": [],
      "stateMutability": "nonpayable",
      "type": "function"
    },
    {
      "inputs": [
        {
          "internalType": "uint256",
          "name": "tokenId",
          "type": "uint256"
        }
      ],
      "name": "lock",
      "outputs": [],
      "stateMutability": "nonpayable",
      "type": "function"
    },
    {
      "inputs": [],
      "name": "lockWithdrawMode",
      "outputs": [],
      "stateMutability": "nonpayable",
      "type": "function"
    },
    {
      "inputs": [],
      "name": "lockWithdrawRecipient",
      "outputs": [],
      "stateMutability": "nonpayable",
      "type": "function"
    },
    {
      "inputs": [
        {
          "internalType": "uint256",
          "name": "tokenId",
          "type": "uint256"
        }
      ],
      "name": "locked",
      "outputs": [
        {
          "internalType": "bool",
          "name": "",
          "type": "bool"
        }
      ],
      "stateMutability": "view",
      "type": "function"
    },
    {
      "inputs": [],
      "name": "maxSupply",
      "outputs": [
        {
          "internalType": "uint256",
          "name": "",
          "type": "uint256"
        }
      ],
      "stateMutability": "view",
      "type": "function"
    },
    {
      "inputs": [],
      "name": "maxSupplyFrozen",
      "outputs": [
        {
          "internalType": "bool",
          "name": "",
          "type": "bool"
        }
      ],
      "stateMutability": "view",
      "type": "function"
    },
    {
      "inputs": [
        {
          "internalType": "address",
          "name": "to",
          "type": "address"
        },
        {
          "internalType": "uint256",
          "name": "count",
          "type": "uint256"
        }
      ],
      "name": "mintByOwner",
      "outputs": [],
      "stateMutability": "nonpayable",
      "type": "function"
    },
    {
      "inputs": [
        {
          "internalType": "address",
          "name": "to",
          "type": "address"
        },
        {
          "internalType": "uint256",
          "name": "count",
          "type": "uint256"
        }
      ],
      "name": "mintByRole",
      "outputs": [],
      "stateMutability": "nonpayable",
      "type": "function"
    },
    {
      "inputs": [
        {
          "internalType": "uint256",
          "name": "tierId",
          "type": "uint256"
        },
        {
          "internalType": "uint256",
          "name": "count",
          "type": "uint256"
        },
        {
          "internalType": "uint256",
          "name": "maxAllowance",
          "type": "uint256"
        },
        {
          "internalType": "bytes32[]",
          "name": "proof",
          "type": "bytes32[]"
        }
      ],
      "name": "mintByTier",
      "outputs": [],
      "stateMutability": "payable",
      "type": "function"
    },
    {
      "inputs": [],
      "name": "name",
      "outputs": [
        {
          "internalType": "string",
          "name": "",
          "type": "string"
        }
      ],
      "stateMutability": "view",
      "type": "function"
    },
    {
      "inputs": [
        {
          "internalType": "uint256",
          "name": "tierId",
          "type": "uint256"
        },
        {
          "internalType": "address",
          "name": "minter",
          "type": "address"
        },
        {
          "internalType": "uint256",
          "name": "maxAllowance",
          "type": "uint256"
        },
        {
          "internalType": "bytes32[]",
          "name": "proof",
          "type": "bytes32[]"
        }
      ],
      "name": "onTierAllowlist",
      "outputs": [
        {
          "internalType": "bool",
          "name": "",
          "type": "bool"
        }
      ],
      "stateMutability": "view",
      "type": "function"
    },
    {
      "inputs": [],
      "name": "owner",
      "outputs": [
        {
          "internalType": "address",
          "name": "",
          "type": "address"
        }
      ],
      "stateMutability": "view",
      "type": "function"
    },
    {
      "inputs": [
        {
          "internalType": "uint256",
          "name": "tokenId",
          "type": "uint256"
        }
      ],
      "name": "ownerOf",
      "outputs": [
        {
          "internalType": "address",
          "name": "",
          "type": "address"
        }
      ],
      "stateMutability": "view",
      "type": "function"
    },
    {
      "inputs": [],
      "name": "placeholderURI",
      "outputs": [
        {
          "internalType": "string",
          "name": "",
          "type": "string"
        }
      ],
      "stateMutability": "view",
      "type": "function"
    },
    {
      "inputs": [
        {
          "internalType": "uint256",
          "name": "tierId",
          "type": "uint256"
        }
      ],
      "name": "remainingForTier",
      "outputs": [
        {
          "internalType": "uint256",
          "name": "tierRemaining",
          "type": "uint256"
        }
      ],
      "stateMutability": "view",
      "type": "function"
    },
    {
      "inputs": [],
      "name": "renounceOwnership",
      "outputs": [],
      "stateMutability": "nonpayable",
      "type": "function"
    },
    {
      "inputs": [
        {
          "internalType": "bytes32",
          "name": "role",
          "type": "bytes32"
        },
        {
          "internalType": "address",
          "name": "account",
          "type": "address"
        }
      ],
      "name": "renounceRole",
      "outputs": [],
      "stateMutability": "nonpayable",
      "type": "function"
    },
    {
      "inputs": [],
      "name": "reservedMints",
      "outputs": [
        {
          "internalType": "uint256",
          "name": "",
          "type": "uint256"
        }
      ],
      "stateMutability": "view",
      "type": "function"
    },
    {
      "inputs": [
        {
          "internalType": "bytes32",
          "name": "role",
          "type": "bytes32"
        },
        {
          "internalType": "address",
          "name": "account",
          "type": "address"
        }
      ],
      "name": "revokeRole",
      "outputs": [],
      "stateMutability": "nonpayable",
      "type": "function"
    },
    {
      "inputs": [],
      "name": "revokeWithdrawPower",
      "outputs": [],
      "stateMutability": "nonpayable",
      "type": "function"
    },
    {
      "inputs": [
        {
          "internalType": "uint256",
          "name": "tokenId",
          "type": "uint256"
        },
        {
          "internalType": "uint256",
          "name": "value",
          "type": "uint256"
        }
      ],
      "name": "royaltyInfo",
      "outputs": [
        {
          "internalType": "address",
          "name": "",
          "type": "address"
        },
        {
          "internalType": "uint256",
          "name": "",
          "type": "uint256"
        }
      ],
      "stateMutability": "view",
      "type": "function"
    },
    {
      "inputs": [
        {
          "internalType": "address",
          "name": "from",
          "type": "address"
        },
        {
          "internalType": "address",
          "name": "to",
          "type": "address"
        },
        {
          "internalType": "uint256",
          "name": "tokenId",
          "type": "uint256"
        }
      ],
      "name": "safeTransferFrom",
      "outputs": [],
      "stateMutability": "nonpayable",
      "type": "function"
    },
    {
      "inputs": [
        {
          "internalType": "address",
          "name": "from",
          "type": "address"
        },
        {
          "internalType": "address",
          "name": "to",
          "type": "address"
        },
        {
          "internalType": "uint256",
          "name": "tokenId",
          "type": "uint256"
        },
        {
          "internalType": "bytes",
          "name": "data",
          "type": "bytes"
        }
      ],
      "name": "safeTransferFrom",
      "outputs": [],
      "stateMutability": "nonpayable",
      "type": "function"
    },
    {
      "inputs": [
        {
          "internalType": "address",
          "name": "operator",
          "type": "address"
        },
        {
          "internalType": "bool",
          "name": "approved",
          "type": "bool"
        }
      ],
      "name": "setApprovalForAll",
      "outputs": [],
      "stateMutability": "nonpayable",
      "type": "function"
    },
    {
      "inputs": [
        {
          "internalType": "string",
          "name": "newValue",
          "type": "string"
        }
      ],
      "name": "setContractURI",
      "outputs": [],
      "stateMutability": "nonpayable",
      "type": "function"
    },
    {
      "inputs": [
        {
          "components": [
            {
              "internalType": "address",
              "name": "recipient",
              "type": "address"
            },
            {
              "internalType": "uint16",
              "name": "bps",
              "type": "uint16"
            }
          ],
          "internalType": "struct IEIP2981RoyaltyOverride.TokenRoyalty",
          "name": "royalty",
          "type": "tuple"
        }
      ],
      "name": "setDefaultRoyalty",
      "outputs": [],
      "stateMutability": "nonpayable",
      "type": "function"
    },
    {
      "inputs": [
        {
          "internalType": "uint256",
          "name": "newValue",
          "type": "uint256"
        }
      ],
      "name": "setMaxSupply",
      "outputs": [],
      "stateMutability": "nonpayable",
      "type": "function"
    },
    {
      "inputs": [
        {
          "internalType": "string",
          "name": "newValue",
          "type": "string"
        }
      ],
      "name": "setPlaceholderURI",
      "outputs": [],
      "stateMutability": "nonpayable",
      "type": "function"
    },
    {
      "inputs": [
        {
          "components": [
            {
              "internalType": "uint256",
              "name": "tokenId",
              "type": "uint256"
            },
            {
              "internalType": "address",
              "name": "recipient",
              "type": "address"
            },
            {
              "internalType": "uint16",
              "name": "bps",
              "type": "uint16"
            }
          ],
          "internalType": "struct IEIP2981RoyaltyOverride.TokenRoyaltyConfig[]",
          "name": "royaltyConfigs",
          "type": "tuple[]"
        }
      ],
      "name": "setTokenRoyalties",
      "outputs": [],
      "stateMutability": "nonpayable",
      "type": "function"
    },
    {
      "inputs": [
        {
          "internalType": "string",
          "name": "newValue",
          "type": "string"
        }
      ],
      "name": "setTokenURIPrefix",
      "outputs": [],
      "stateMutability": "nonpayable",
      "type": "function"
    },
    {
      "inputs": [
        {
          "internalType": "string",
          "name": "newValue",
          "type": "string"
        }
      ],
      "name": "setTokenURISuffix",
      "outputs": [],
      "stateMutability": "nonpayable",
      "type": "function"
    },
    {
      "inputs": [
        {
          "internalType": "address",
          "name": "trustedForwarder",
          "type": "address"
        }
      ],
      "name": "setTrustedForwarder",
      "outputs": [],
      "stateMutability": "nonpayable",
      "type": "function"
    },
    {
      "inputs": [
        {
          "internalType": "enum WithdrawMode",
          "name": "_withdrawMode",
          "type": "uint8"
        }
      ],
      "name": "setWithdrawMode",
      "outputs": [],
      "stateMutability": "nonpayable",
      "type": "function"
    },
    {
      "inputs": [
        {
          "internalType": "address",
          "name": "_withdrawRecipient",
          "type": "address"
        }
      ],
      "name": "setWithdrawRecipient",
      "outputs": [],
      "stateMutability": "nonpayable",
      "type": "function"
    },
    {
      "inputs": [
        {
          "internalType": "bytes4",
          "name": "interfaceId",
          "type": "bytes4"
        }
      ],
      "name": "supportsInterface",
      "outputs": [
        {
          "internalType": "bool",
          "name": "",
          "type": "bool"
        }
      ],
      "stateMutability": "view",
      "type": "function"
    },
    {
      "inputs": [],
      "name": "symbol",
      "outputs": [
        {
          "internalType": "string",
          "name": "",
          "type": "string"
        }
      ],
      "stateMutability": "view",
      "type": "function"
    },
    {
      "inputs": [
        {
          "internalType": "uint256",
          "name": "",
          "type": "uint256"
        }
      ],
      "name": "tierMints",
      "outputs": [
        {
          "internalType": "uint256",
          "name": "",
          "type": "uint256"
        }
      ],
      "stateMutability": "view",
      "type": "function"
    },
    {
      "inputs": [
        {
          "internalType": "uint256",
          "name": "",
          "type": "uint256"
        }
      ],
      "name": "tiers",
      "outputs": [
        {
          "internalType": "uint256",
          "name": "start",
          "type": "uint256"
        },
        {
          "internalType": "uint256",
          "name": "end",
          "type": "uint256"
        },
        {
          "internalType": "address",
          "name": "currency",
          "type": "address"
        },
        {
          "internalType": "uint256",
          "name": "price",
          "type": "uint256"
        },
        {
          "internalType": "uint256",
          "name": "maxPerWallet",
          "type": "uint256"
        },
        {
          "internalType": "bytes32",
          "name": "merkleRoot",
          "type": "bytes32"
        },
        {
          "internalType": "uint256",
          "name": "reserved",
          "type": "uint256"
        },
        {
          "internalType": "uint256",
          "name": "maxAllocation",
          "type": "uint256"
        }
      ],
      "stateMutability": "view",
      "type": "function"
    },
    {
      "inputs": [
        {
          "internalType": "uint256",
          "name": "_tokenId",
          "type": "uint256"
        }
      ],
      "name": "tokenURI",
      "outputs": [
        {
          "internalType": "string",
          "name": "",
          "type": "string"
        }
      ],
      "stateMutability": "view",
      "type": "function"
    },
    {
      "inputs": [],
      "name": "tokenURIFrozen",
      "outputs": [
        {
          "internalType": "bool",
          "name": "",
          "type": "bool"
        }
      ],
      "stateMutability": "view",
      "type": "function"
    },
    {
      "inputs": [],
      "name": "tokenURIPrefix",
      "outputs": [
        {
          "internalType": "string",
          "name": "",
          "type": "string"
        }
      ],
      "stateMutability": "view",
      "type": "function"
    },
    {
      "inputs": [],
      "name": "tokenURISuffix",
      "outputs": [
        {
          "internalType": "string",
          "name": "",
          "type": "string"
        }
      ],
      "stateMutability": "view",
      "type": "function"
    },
    {
      "inputs": [],
      "name": "totalReserved",
      "outputs": [
        {
          "internalType": "uint256",
          "name": "",
          "type": "uint256"
        }
      ],
      "stateMutability": "view",
      "type": "function"
    },
    {
      "inputs": [],
      "name": "totalSupply",
      "outputs": [
        {
          "internalType": "uint256",
          "name": "",
          "type": "uint256"
        }
      ],
      "stateMutability": "view",
      "type": "function"
    },
    {
      "inputs": [
        {
          "internalType": "address",
          "name": "from",
          "type": "address"
        },
        {
          "internalType": "address",
          "name": "to",
          "type": "address"
        },
        {
          "internalType": "uint256",
          "name": "tokenId",
          "type": "uint256"
        }
      ],
      "name": "transferFrom",
      "outputs": [],
      "stateMutability": "nonpayable",
      "type": "function"
    },
    {
      "inputs": [
        {
          "internalType": "address",
          "name": "newOwner",
          "type": "address"
        }
      ],
      "name": "transferOwnership",
      "outputs": [],
      "stateMutability": "nonpayable",
      "type": "function"
    },
    {
      "inputs": [
        {
          "internalType": "uint256[]",
          "name": "tokenIds",
          "type": "uint256[]"
        }
      ],
      "name": "unlock",
      "outputs": [],
      "stateMutability": "nonpayable",
      "type": "function"
    },
    {
      "inputs": [
        {
          "internalType": "uint256",
          "name": "tokenId",
          "type": "uint256"
        }
      ],
      "name": "unlock",
      "outputs": [],
      "stateMutability": "nonpayable",
      "type": "function"
    },
    {
      "inputs": [
        {
          "internalType": "uint256",
          "name": "",
          "type": "uint256"
        },
        {
          "internalType": "address",
          "name": "",
          "type": "address"
        }
      ],
      "name": "walletMinted",
      "outputs": [
        {
          "internalType": "uint256",
          "name": "",
          "type": "uint256"
        }
      ],
      "stateMutability": "view",
      "type": "function"
    },
    {
      "inputs": [
        {
          "internalType": "uint256",
          "name": "tierId",
          "type": "uint256"
        },
        {
          "internalType": "address",
          "name": "wallet",
          "type": "address"
        }
      ],
      "name": "walletMintedByTier",
      "outputs": [
        {
          "internalType": "uint256",
          "name": "",
          "type": "uint256"
        }
      ],
      "stateMutability": "view",
      "type": "function"
    },
    {
      "inputs": [
        {
          "internalType": "address[]",
          "name": "claimTokens",
          "type": "address[]"
        },
        {
          "internalType": "uint256[]",
          "name": "amounts",
          "type": "uint256[]"
        }
      ],
      "name": "withdraw",
      "outputs": [],
      "stateMutability": "nonpayable",
      "type": "function"
    },
    {
      "inputs": [],
      "name": "withdrawMode",
      "outputs": [
        {
          "internalType": "enum WithdrawMode",
          "name": "",
          "type": "uint8"
        }
      ],
      "stateMutability": "view",
      "type": "function"
    },
    {
      "inputs": [],
      "name": "withdrawModeLocked",
      "outputs": [
        {
          "internalType": "bool",
          "name": "",
          "type": "bool"
        }
      ],
      "stateMutability": "view",
      "type": "function"
    },
    {
      "inputs": [],
      "name": "withdrawPowerRevoked",
      "outputs": [
        {
          "internalType": "bool",
          "name": "",
          "type": "bool"
        }
      ],
      "stateMutability": "view",
      "type": "function"
    },
    {
      "inputs": [],
      "name": "withdrawRecipient",
      "outputs": [
        {
          "internalType": "address",
          "name": "",
          "type": "address"
        }
      ],
      "stateMutability": "view",
      "type": "function"
    },
    {
      "inputs": [],
      "name": "withdrawRecipientLocked",
      "outputs": [
        {
          "internalType": "bool",
          "name": "",
          "type": "bool"
        }
      ],
      "stateMutability": "view",
      "type": "function"
    }
  ],
  "transactionHash": "0x47ee7bab560e3312231b3f9a58577ac2e1a6b61c7ee97752893215c4d7412934",
  "args": [
    {
      "name": "Collection",
      "symbol": "COL",
      "contractURI": "ipfs://contractURI",
      "placeholderURI": "ipfs://placeholderURI",
      "tokenURIPrefix": "ipfs://tokenURIPrefix/",
      "maxSupply": 0,
      "tiers": [],
      "defaultRoyaltyAddress": "0x0000000000000000000000000000000000000000",
      "defaultRoyaltyBps": 0,
      "proceedsRecipient": "0x0000000000000000000000000000000000000000",
      "trustedForwarder": "0x0000000000000000000000000000000000000000"
    }
  ],
  "numDeployments": 6,
  "solcInputHash": "7e8d96f5b19322abdd3676f90e4578c3",
  "bytecode": "0x608060405260006012553480156200001657600080fd5b5060405162006b5e38038062006b5e833981016040819052620000399162000ed6565b80516020820151620000546200004e6200008c565b620000a8565b6003620000628382620010fd565b506004620000718282620010fd565b505060016013555062000085813362000103565b5062001288565b6000620000a3620002f660201b620029251760201c565b905090565b600080546001600160a01b038381166201000081810262010000600160b01b0319851617855560405193049190911692909183917f8be0079c531659141344cd1fd0a4f28419497f9722a3daafe3b4186f6b6457e091a35050565b600054610100900460ff1615808015620001245750600054600160ff909116105b8062000154575062000141306200032e60201b620029471760201c565b15801562000154575060005460ff166001145b620001bd5760405162461bcd60e51b815260206004820152602e60248201527f496e697469616c697a61626c653a20636f6e747261637420697320616c72656160448201526d191e481a5b9a5d1a585b1a5e995960921b60648201526084015b60405180910390fd5b6000805460ff191660011790558015620001e1576000805461ff0019166101001790555b620001ee6000836200033d565b620001f982620000a8565b6101208301516200020c9060026200034d565b8251602084015160408501516200022592919062000383565b6200023f83606001518460800151620003ba60201b60201c565b60a08301516200024f90620003f0565b6200025962000428565b62000264826200045e565b6200026e62000493565b60c08301516200027e90620004c7565b620002998360e00151846101000151620004fc60201b60201c565b610140830151620002aa9062000532565b8015620002f1576000805461ff0019169055604051600181527f7f26b83ff96e1f2b6a682f133852f6798a09c465da95921460cefb38474024989060200160405180910390a15b505050565b601f546000906001600160a01b0316330362000319575060131936013560601c90565b620000a36200056760201b620029561760201c565b6001600160a01b03163b151590565b6200034982826200056b565b5050565b600054610100900460ff16620003775760405162461bcd60e51b8152600401620001b490620011c9565b620003498282620005f7565b600054610100900460ff16620003ad5760405162461bcd60e51b8152600401620001b490620011c9565b620002f183838362000683565b600054610100900460ff16620003e45760405162461bcd60e51b8152600401620001b490620011c9565b62000349828262000710565b600054610100900460ff166200041a5760405162461bcd60e51b8152600401620001b490620011c9565b6200042581620007a8565b50565b600054610100900460ff16620004525760405162461bcd60e51b8152600401620001b490620011c9565b6200045c620007fb565b565b600054610100900460ff16620004885760405162461bcd60e51b8152600401620001b490620011c9565b620004258162000837565b600054610100900460ff16620004bd5760405162461bcd60e51b8152600401620001b490620011c9565b6200045c6200089f565b600054610100900460ff16620004f15760405162461bcd60e51b8152600401620001b490620011c9565b6200042581620008db565b600054610100900460ff16620005265760405162461bcd60e51b8152600401620001b490620011c9565b62000349828262000a08565b600054610100900460ff166200055c5760405162461bcd60e51b8152600401620001b490620011c9565b620004258162000aa5565b3390565b62000577828262000af1565b62000349576000828152601a602090815260408083206001600160a01b03851684529091529020805460ff19166001179055620005b36200008c565b6001600160a01b0316816001600160a01b0316837f2f8788117e7eff1d82e926ec794901d17c78024a50270940304540a733656f0d60405160405180910390a45050565b600054610100900460ff16620006215760405162461bcd60e51b8152600401620001b490620011c9565b6200063363ac2ba33360e01b62000b1e565b600280546001600160a01b0384166001600160a01b0319821681178355839291600162ff000160a01b03191617600160b01b8360038111156200067a576200067a62001214565b02179055505050565b600054610100900460ff16620006ad5760405162461bcd60e51b8152600401620001b490620011c9565b600d620006bb8482620010fd565b50600e620006ca8382620010fd565b50600f620006d98282620010fd565b50620006ec633d96f4ff60e11b62000b1e565b620006fe6380ac58cd60e01b62000b1e565b620002f1635b5e139f60e01b62000b1e565b600054610100900460ff166200073a5760405162461bcd60e51b8152600401620001b490620011c9565b6009620007488382620010fd565b50600a620007578282620010fd565b50604080518082019091526005815264173539b7b760d91b6020820152600b90620007839082620010fd565b5062000796631f2f406b60e01b62000b1e565b62000349635b5e139f60e01b62000b1e565b600054610100900460ff16620007d25760405162461bcd60e51b8152600401620001b490620011c9565b6010819055620007e96330f487b560e11b62000b1e565b620004256380ac58cd60e01b62000b1e565b600054610100900460ff16620008255760405162461bcd60e51b8152600401620001b490620011c9565b6200045c631aa1577160e11b62000b1e565b600054610100900460ff16620008615760405162461bcd60e51b8152600401620001b490620011c9565b62000873631a056e7160e01b62000b1e565b620004257f9f2df0fed2c77648de5860a4cc508cd0818c85b8b8a1ab4ceeef8d981c8956a6826200033d565b600054610100900460ff16620008c95760405162461bcd60e51b8152600401620001b490620011c9565b6200045c63714ad8e760e01b62000b1e565b600054610100900460ff16620009055760405162461bcd60e51b8152600401620001b490620011c9565b620009176308b4902960e41b62000b1e565b60005b815181101562000349578181815181106200093957620009396200122a565b602090810291909101810151600083815260148352604090819020825181559282015160018401558101516002830180546001600160a01b0319166001600160a01b03909216919091179055606081015160038301556080810151600483015560a0810151600583015560c0810151600683015560e001516007909101558151829082908110620009ce57620009ce6200122a565b602002602001015160c0015160156000828254620009ed919062001256565b90915550819050620009ff816200126c565b9150506200091a565b600054610100900460ff1662000a325760405162461bcd60e51b8152600401620001b490620011c9565b62000a44633a47bf5160e11b62000b1e565b62000a5663152a902d60e11b62000b1e565b62000a6863c69dbd8f60e01b62000b1e565b62000a7a63656cb66560e11b62000b1e565b604080518082019091526001600160a01b038316815261ffff82166020820152620002f18162000ba2565b600054610100900460ff1662000acf5760405162461bcd60e51b8152600401620001b490620011c9565b601f80546001600160a01b0319166001600160a01b0392909216919091179055565b6000828152601a602090815260408083206001600160a01b038516845290915290205460ff165b92915050565b6001600160e01b0319808216900362000b7a5760405162461bcd60e51b815260206004820152601c60248201527f4552433136353a20696e76616c696420696e74657266616365206964000000006044820152606401620001b4565b6001600160e01b0319166000908152600160208190526040909120805460ff19169091179055565b612710816020015161ffff161062000beb5760405162461bcd60e51b815260206004820152600b60248201526a496e76616c69642062707360a81b6044820152606401620001b4565b60408051808201825282516001600160a01b03168082526020808501805161ffff1691909301819052601b8054600160a01b9092026001600160b01b03199092169092171790558251905191517f2c5ea6e4103e78cb101e796fb2dace540362fc542cbff5145eaa24af7dd8fe419262000c7d92916001600160a01b0392909216825261ffff16602082015260400190565b60405180910390a150565b634e487b7160e01b600052604160045260246000fd5b60405161010081016001600160401b038111828210171562000cc45762000cc462000c88565b60405290565b60405161016081016001600160401b038111828210171562000cc45762000cc462000c88565b604051601f8201601f191681016001600160401b038111828210171562000d1b5762000d1b62000c88565b604052919050565b600082601f83011262000d3557600080fd5b81516001600160401b0381111562000d515762000d5162000c88565b602062000d67601f8301601f1916820162000cf0565b828152858284870101111562000d7c57600080fd5b60005b8381101562000d9c57858101830151828201840152820162000d7f565b506000928101909101919091529392505050565b80516001600160a01b038116811462000dc857600080fd5b919050565b600082601f83011262000ddf57600080fd5b815160206001600160401b0382111562000dfd5762000dfd62000c88565b62000e0d818360051b0162000cf0565b82815260089290921b8401810191818101908684111562000e2d57600080fd5b8286015b8481101562000eb857610100818903121562000e4d5760008081fd5b62000e5762000c9e565b815181528482015185820152604062000e7281840162000db0565b90820152606082810151908201526080808301519082015260a0808301519082015260c0808301519082015260e080830151908201528352918301916101000162000e31565b509695505050505050565b805161ffff8116811462000dc857600080fd5b60006020828403121562000ee957600080fd5b81516001600160401b038082111562000f0157600080fd5b90830190610160828603121562000f1757600080fd5b62000f2162000cca565b82518281111562000f3157600080fd5b62000f3f8782860162000d23565b82525060208301518281111562000f5557600080fd5b62000f638782860162000d23565b60208301525060408301518281111562000f7c57600080fd5b62000f8a8782860162000d23565b60408301525060608301518281111562000fa357600080fd5b62000fb18782860162000d23565b60608301525060808301518281111562000fca57600080fd5b62000fd88782860162000d23565b60808301525060a083015160a082015260c08301518281111562000ffb57600080fd5b620010098782860162000dcd565b60c0830152506200101d60e0840162000db0565b60e082015261010091506200103482840162000ec3565b8282015261012091506200104a82840162000db0565b8282015261014091506200106082840162000db0565b91810191909152949350505050565b600181811c908216806200108457607f821691505b602082108103620010a557634e487b7160e01b600052602260045260246000fd5b50919050565b601f821115620002f157600081815260208120601f850160051c81016020861015620010d45750805b601f850160051c820191505b81811015620010f557828155600101620010e0565b505050505050565b81516001600160401b0381111562001119576200111962000c88565b62001131816200112a84546200106f565b84620010ab565b602080601f831160018114620011695760008415620011505750858301515b600019600386901b1c1916600185901b178555620010f5565b600085815260208120601f198616915b828110156200119a5788860151825594840194600190910190840162001179565b5085821015620011b95787850151600019600388901b60f8161c191681555b5050505050600190811b01905550565b6020808252602b908201527f496e697469616c697a61626c653a20636f6e7472616374206973206e6f74206960408201526a6e697469616c697a696e6760a81b606082015260800190565b634e487b7160e01b600052602160045260246000fd5b634e487b7160e01b600052603260045260246000fd5b634e487b7160e01b600052601160045260246000fd5b8082018082111562000b185762000b1862001240565b60006001820162001281576200128162001240565b5060010190565b6158c680620012986000396000f3fe6080604052600436106103c95760003560e01c80637885fdc7116101f5578063c29de63011610114578063c29de63014610c60578063c71b0e1c14610c7a578063c723955a14610c90578063c87b56dd14610ca5578063cad96cca14610cc5578063d539139314610cf2578063d547741f14610d14578063d5abeb0114610d34578063d8b436fd14610d4a578063da74222814610d6a578063da82b22714610d8a578063dbbc853b14610d9f578063dcbe353f14610db4578063dd46706414610dd4578063de6d6d9614610df4578063e8a3d48514610e14578063e985e9c514610e29578063ef60ceaf14610e49578063f2fde38b14610e69578063f362136714610e89578063f384702f14610eab57600080fd5b80637885fdc7146109f95780637e98034214610a34578063837fe14014610a49578063859610c614610a5e5780638da5cb5b14610a7e57806391d1485414610a93578063938e3d7b14610ab35780639598144a14610ad357806395d89b4114610b0b57806399e0dd7c14610b20578063a217fddf14610b40578063a22cb46514610b55578063a9852bfb14610b75578063af121f5414610b95578063b45a3c0e14610bb6578063b88d4fde14610bd6578063ba4695fd14610bf6578063bd2c18f714610c0b578063c0ac998314610c2b578063c0bb38ff14610c4057600080fd5b80633574a2dd116102ec5780633574a2dd1461077957806336568abe1461079957806342842e0e146107b957806349561cb9146107d95780635136dcc7146107fa57806353367f081461081a57806356c022bb14610847578063572b6c05146108675780635897f878146108875780635d36598f146108a75780635ea2c91b146108c75780636057e0ec146108da5780636198e339146108fb5780636352211e1461091b57806368c7d37c1461093b5780636ef030471461095b5780636f8b44b01461097b57806370a082311461099b578063714ad8e7146109bb578063715018a6146109cf5780637313cba9146109e457600080fd5b806301ffc9a7146103ce578063039af9eb146104035780630653aca5146104b457806306fdde0314610503578063081812fc14610525578063095ea7b31461055d5780631123f2ef1461057f57806316744607146105d057806318160ddd146105e55780631a056e71146105fa57806320f1bb301461061a57806323b872dd1461063a578063248a9ca31461065a5780632a55205a1461067a5780632bb684ad146106a85780632c233067146106d55780632cb9b2ac146106f55780632d00b5871461070b5780632f2ff15d146107395780633542aee214610759575b600080fd5b3480156103da57600080fd5b506103ee6103e9366004614662565b610ec5565b60405190151581526020015b60405180910390f35b34801561040f57600080fd5b5061046b61041e36600461467f565b60146020526000908152604090208054600182015460028301546003840154600485015460058601546006870154600790970154959694956001600160a01b039094169492939192909188565b6040805198895260208901979097526001600160a01b03909516958701959095526060860192909252608085015260a084015260c083019190915260e0820152610100016103fa565b3480156104c057600080fd5b506104d46104cf36600461467f565b610ed6565b60408051825181526020808401516001600160a01b0316908201529181015161ffff16908201526060016103fa565b34801561050f57600080fd5b50610518610f5b565b6040516103fa91906146e8565b34801561053157600080fd5b5061054561054036600461467f565b610f6a565b6040516001600160a01b0390911681526020016103fa565b34801561056957600080fd5b5061057d61057836600461471b565b610f91565b005b34801561058b57600080fd5b506105c261059a366004614747565b60009182526017602090815260408084206001600160a01b0393909316845291905290205490565b6040519081526020016103fa565b3480156105dc57600080fd5b5061057d6110bd565b3480156105f157600080fd5b506012546105c2565b34801561060657600080fd5b5061057d61061536600461471b565b6110d4565b34801561062657600080fd5b5061057d610635366004614777565b61113a565b34801561064657600080fd5b5061057d6106553660046147b1565b611320565b34801561066657600080fd5b506105c261067536600461467f565b611358565b34801561068657600080fd5b5061069a6106953660046147f2565b61136d565b6040516103fa929190614814565b3480156106b457600080fd5b506106c86106c3366004614871565b611432565b6040516103fa91906148b2565b3480156106e157600080fd5b5061057d6106f03660046148f6565b6114fc565b34801561070157600080fd5b506105c260185481565b34801561071757600080fd5b5060025461072c90600160b01b900460ff1681565b6040516103fa919061492d565b34801561074557600080fd5b5061057d610754366004614747565b61155b565b34801561076557600080fd5b5061057d61077436600461471b565b611577565b34801561078557600080fd5b5061057d610794366004614a5e565b61157f565b3480156107a557600080fd5b5061057d6107b4366004614747565b611593565b3480156107c557600080fd5b5061057d6107d43660046147b1565b61161d565b3480156107e557600080fd5b506002546103ee90600160b81b900460ff1681565b34801561080657600080fd5b5061057d610815366004614a92565b611638565b34801561082657600080fd5b506105c261083536600461467f565b60166020526000908152604090205481565b34801561085357600080fd5b50601f54610545906001600160a01b031681565b34801561087357600080fd5b506103ee610882366004614b06565b61169b565b34801561089357600080fd5b506105c26108a236600461467f565b6116af565b3480156108b357600080fd5b5061057d6108c2366004614871565b61172c565b61057d6108d5366004614b23565b6117cf565b3480156108e657600080fd5b506002546103ee90600160a01b900460ff1681565b34801561090757600080fd5b5061057d61091636600461467f565b611a9b565b34801561092757600080fd5b5061054561093636600461467f565b611b07565b34801561094757600080fd5b506103ee610956366004614b83565b611b3c565b34801561096757600080fd5b5061057d610976366004614ccb565b611bde565b34801561098757600080fd5b5061057d61099636600461467f565b611d90565b3480156109a757600080fd5b506105c26109b6366004614b06565b611da4565b3480156109c757600080fd5b5060016103ee565b3480156109db57600080fd5b5061057d611e2a565b3480156109f057600080fd5b50610518611e3e565b348015610a0557600080fd5b50601b54610a26906001600160a01b03811690600160a01b900461ffff1682565b6040516103fa929190614e56565b348015610a4057600080fd5b506105c2611ed0565b348015610a5557600080fd5b5061057d611edc565b348015610a6a57600080fd5b5061057d610a79366004614871565b611f23565b348015610a8a57600080fd5b50610545611fbc565b348015610a9f57600080fd5b506103ee610aae366004614747565b611fd1565b348015610abf57600080fd5b5061057d610ace366004614a5e565b611ffc565b348015610adf57600080fd5b506105c2610aee366004614747565b601760209081526000928352604080842090915290825290205481565b348015610b1757600080fd5b50610518612010565b348015610b2c57600080fd5b5061057d610b3b366004614a5e565b61201a565b348015610b4c57600080fd5b506105c2600081565b348015610b6157600080fd5b5061057d610b70366004614e81565b612051565b348015610b8157600080fd5b5061057d610b90366004614a5e565b612063565b348015610ba157600080fd5b506002546103ee90600160a81b900460ff1681565b348015610bc257600080fd5b506103ee610bd136600461467f565b61209a565b348015610be257600080fd5b5061057d610bf1366004614eaf565b6120a7565b348015610c0257600080fd5b5061057d6120e6565b348015610c1757600080fd5b506105c2610c26366004614b83565b6120fd565b348015610c3757600080fd5b5061051861232e565b348015610c4c57600080fd5b5061057d610c5b366004614b06565b61233d565b348015610c6c57600080fd5b50600c546103ee9060ff1681565b348015610c8657600080fd5b506105c260155481565b348015610c9c57600080fd5b5061057d612391565b348015610cb157600080fd5b50610518610cc036600461467f565b6123f0565b348015610cd157600080fd5b50610ce5610ce036600461467f565b6123fb565b6040516103fa9190614f2e565b348015610cfe57600080fd5b506105c260008051602061585183398151915281565b348015610d2057600080fd5b5061057d610d2f366004614747565b6124b6565b348015610d4057600080fd5b506105c260105481565b348015610d5657600080fd5b5061057d610d65366004614f8f565b6124d2565b348015610d7657600080fd5b5061057d610d85366004614b06565b612538565b348015610d9657600080fd5b5061057d612562565b348015610dab57600080fd5b506105186125a8565b348015610dc057600080fd5b50600254610545906001600160a01b031681565b348015610de057600080fd5b5061057d610def36600461467f565b6125b7565b348015610e0057600080fd5b5061057d610e0f366004615028565b61261b565b348015610e2057600080fd5b50610518612853565b348015610e3557600080fd5b506103ee610e44366004615093565b612862565b348015610e5557600080fd5b5061057d610e643660046150c1565b612890565b348015610e7557600080fd5b5061057d610e84366004614b06565b6128af565b348015610e9557600080fd5b506105c260008051602061587183398151915281565b348015610eb757600080fd5b506011546103ee9060ff1681565b6000610ed08261295a565b92915050565b6040805160608101825260008082526020820181905291810182905290610efe601d84612996565b6000818152601c60209081526040918290208251808401845290546001600160a01b03808216835261ffff600160a01b90920482168385019081528551606081018752968752925116928501929092525116908201529392505050565b6060610f656129a9565b905090565b6000610f75826129b8565b506000908152600760205260409020546001600160a01b031690565b6000610f9c82611b07565b9050806001600160a01b0316836001600160a01b03160361100e5760405162461bcd60e51b815260206004820152602160248201527f4552433732313a20617070726f76616c20746f2063757272656e74206f776e656044820152603960f91b60648201526084015b60405180910390fd5b806001600160a01b03166110206129dd565b6001600160a01b0316148061103c575061103c81610e446129dd565b6110ae5760405162461bcd60e51b815260206004820152603e60248201527f4552433732313a20617070726f76652063616c6c6572206973206e6f7420746f60448201527f6b656e206f776e6572206e6f7220617070726f76656420666f7220616c6c00006064820152608401611005565b6110b883836129e7565b505050565b6110c5612a55565b6011805460ff19166001179055565b6110ee600080516020615851833981519152610aae6129dd565b61112c5760405162461bcd60e51b815260206004820152600f60248201526e4e4f545f4d494e5445525f524f4c4560881b6044820152606401611005565b6111368282612ac4565b5050565b611142612a55565b60008281526016602052604090205460e082013510156111985760405162461bcd60e51b81526020600482015260116024820152701313d5d15497d512105397d35253951151607a1b6044820152606401611005565b600082815260146020526040902060060154156112065760008281526016602052604090205460c082013510156112065760405162461bcd60e51b81526020600482015260126024820152711313d5d7d49154d154959157d05353d5539560721b6044820152606401611005565b6000828152601660205260409020541561127457600082815260146020526040902060040154608082013510156112745760405162461bcd60e51b81526020600482015260126024820152711313d5d7d3505617d4115497d5d05313115560721b6044820152606401611005565b60008281526014602052604081206006015460158054919290916112999084906150ef565b9091555050600082815260146020526040902081906112b88282615102565b9050508060c00135601560008282546112d19190615173565b909155505060105460155411156111365760405162461bcd60e51b815260206004820152601360248201527213505617d4d55414131657d15610d151511151606a1b6044820152606401611005565b61133161132b6129dd565b82612b4d565b61134d5760405162461bcd60e51b815260040161100590615186565b6110b8838383612bac565b6000908152601a602052604090206001015490565b6000828152601c602052604081205481906001600160a01b0316156113d2576000848152601c60205260409020546001600160a01b03811690612710906113bf90600160a01b900461ffff16866151d4565b6113c99190615209565b9150915061142b565b601b546001600160a01b0316158015906113f85750601b54600160a01b900461ffff1615155b1561142457601b546001600160a01b03811690612710906113bf90600160a01b900461ffff16866151d4565b5060009050805b9250929050565b60606000826001600160401b0381111561144e5761144e614955565b604051908082528060200260200182016040528015611477578160200160208202803683370190505b50905060005b838110156114f4576114a685858381811061149a5761149a61521d565b9050602002013561209a565b6114e2578484828181106114bc576114bc61521d565b905060200201358282815181106114d5576114d561521d565b6020026020010181815250505b806114ec81615233565b91505061147d565b509392505050565b611504612a55565b600254600160b81b900460ff161561152e5760405162461bcd60e51b81526004016110059061524c565b6002805482919060ff60b01b1916600160b01b83600381111561155357611553614917565b021790555050565b61156482611358565b61156d81612d53565b6110b88383612d64565b61112c612a55565b611587612a55565b600961113682826152ee565b61159b6129dd565b6001600160a01b0316816001600160a01b0316146116135760405162461bcd60e51b815260206004820152602f60248201527f416363657373436f6e74726f6c3a2063616e206f6e6c792072656e6f756e636560448201526e103937b632b9903337b91039b2b63360891b6064820152608401611005565b6111368282612deb565b6110b8838383604051806020016040528060008152506120a7565b611640612a55565b6111368282808060200260200160405190810160405280939291908181526020016000905b8282101561169157611682606083028601368190038101906153ad565b81526020019060010190611665565b5050505050612e70565b601f546001600160a01b0391821691161490565b60006018546015546116c191906150ef565b6012546010546116d191906150ef565b6116db91906150ef565b600083815260146020526040902060060154909150156117275760008281526016602090815260408083205460149092529091206006015461171d91906150ef565b610ed09082615173565b919050565b60026013540361174e5760405162461bcd60e51b815260040161100590615413565b600260135561176b60008051602061587183398151915233611fd1565b6117875760405162461bcd60e51b81526004016110059061544a565b60005b818110156117c5576117b38383838181106117a7576117a761521d565b90506020020135613017565b806117bd81615233565b91505061178a565b5050600160135550565b6002601354036117f15760405162461bcd60e51b815260040161100590615413565b600260135560006118006129dd565b9050600061181187838787876120fd565b9050808611156118515760405162461bcd60e51b815260206004820152600b60248201526a08ab0868a8a88a6be9a82b60ab1b6044820152606401611005565b61185a876116af565b8611156118795760405162461bcd60e51b815260040161100590615473565b6000878152601460209081526040808320600701546016909252909120546118a19088615173565b11156118bf5760405162461bcd60e51b815260040161100590615473565b6000878152601460205260409020600201546001600160a01b03166119465760008781526014602052604090206003015434906118fd9088906151d4565b11156119415760405162461bcd60e51b8152602060048201526013602482015272125394d551919250d251539517d05353d55395606a1b6044820152606401611005565b6119fa565b600087815260146020526040902060028101546003909101546001600160a01b03909116906323b872dd9084903090611980908b906151d4565b6040516001600160e01b031960e086901b1681526001600160a01b03938416600482015292909116602483015260448201526064016020604051808303816000875af11580156119d4573d6000803e3d6000fd5b505050506040513d601f19601f820116820180604052508101906119f8919061549f565b505b60008781526017602090815260408083206001600160a01b038616845290915281208054889290611a2c908490615173565b909155505060008781526016602052604081208054889290611a4f908490615173565b909155505060008781526014602052604090206006015415611a83578560186000828254611a7d9190615173565b90915550505b611a8d8287612ac4565b505060016013555050505050565b600260135403611abd5760405162461bcd60e51b815260040161100590615413565b6002601355611ada60008051602061587183398151915233611fd1565b611af65760405162461bcd60e51b81526004016110059061544a565b611aff81613017565b506001601355565b6000818152600560205260408120546001600160a01b031680610ed05760405162461bcd60e51b8152600401611005906154bc565b6000611bd283838080602002602001604051908101604052809392919081815260200183836020028082843760009201829052508b8152601460205260409020600501549250611bcd9150899050886040516001600160601b0319606084901b1660208201526034810182905260009060540160405160208183030381529060405280519060200120905092915050565b61307e565b90505b95945050505050565b600054610100900460ff1615808015611bfe5750600054600160ff909116105b80611c1f5750611c0d30612947565b158015611c1f575060005460ff166001145b611c825760405162461bcd60e51b815260206004820152602e60248201527f496e697469616c697a61626c653a20636f6e747261637420697320616c72656160448201526d191e481a5b9a5d1a585b1a5e995960921b6064820152608401611005565b6000805460ff191660011790558015611ca5576000805461ff0019166101001790555b611cb0600083613094565b611cb98261309e565b611cc983610120015160026130f9565b611ce083600001518460200151856040015161312a565b611cf28360600151846080015161315c565b611cff8360a0015161318d565b611d076131bd565b611d10826131ec565b611d1861321c565b611d258360c0015161324b565b611d388360e0015184610100015161327b565b611d468361014001516132ac565b80156110b8576000805461ff0019169055604051600181527f7f26b83ff96e1f2b6a682f133852f6798a09c465da95921460cefb38474024989060200160405180910390a1505050565b611d98612a55565b611da1816132dc565b50565b60006001600160a01b038216611e0e5760405162461bcd60e51b815260206004820152602960248201527f4552433732313a2061646472657373207a65726f206973206e6f7420612076616044820152683634b21037bbb732b960b91b6064820152608401611005565b506001600160a01b031660009081526006602052604090205490565b611e32612a55565b611e3c600061309e565b565b606060098054611e4d9061526c565b80601f0160208091040260200160405190810160405280929190818152602001828054611e799061526c565b8015611ec65780601f10611e9b57610100808354040283529160200191611ec6565b820191906000526020600020905b815481529060010190602001808311611ea957829003601f168201915b5050505050905090565b6000610f65601d61334e565b611ee4612a55565b600254600160a01b900460ff1615611f0e5760405162461bcd60e51b81526004016110059061524c565b6002805460ff60a01b1916600160a01b179055565b600260135403611f455760405162461bcd60e51b815260040161100590615413565b6002601355611f6260008051602061587183398151915233611fd1565b611f7e5760405162461bcd60e51b81526004016110059061544a565b60005b818110156117c557611faa838383818110611f9e57611f9e61521d565b90506020020135613358565b80611fb481615233565b915050611f81565b6000546201000090046001600160a01b031690565b6000918252601a602090815260408084206001600160a01b0393909316845291905290205460ff1690565b612004612a55565b600f61113682826152ee565b6060610f656133a2565b612022612a55565b600c5460ff16156120455760405162461bcd60e51b8152600401611005906154ee565b600a61113682826152ee565b61113661205c6129dd565b83836133b1565b61206b612a55565b600c5460ff161561208e5760405162461bcd60e51b8152600401611005906154ee565b600b61113682826152ee565b6000610ed060198361347b565b6120b86120b26129dd565b83612b4d565b6120d45760405162461bcd60e51b815260040161100590615186565b6120e08484848461349f565b50505050565b6120ee612a55565b600c805460ff19166001179055565b6000858152601460205260408120600401546121485760405162461bcd60e51b815260206004820152600a6024820152694e4f545f45584953545360b01b6044820152606401611005565b6000868152601460205260409020544210156121945760405162461bcd60e51b815260206004820152600b60248201526a1393d517d4d5105495115160aa1b6044820152606401611005565b6000868152601460205260409020600101544211156121e55760405162461bcd60e51b815260206004820152600d60248201526c1053149150511657d153911151609a1b6044820152606401611005565b60008681526017602090815260408083206001600160a01b038916845282528083205489845260149092529091206004015461222191906150ef565b60008781526014602052604090206005015490915015611bd55760008681526017602090815260408083206001600160a01b0389168452909152902054841161229e5760405162461bcd60e51b815260206004820152600f60248201526e4d415845445f414c4c4f57414e434560881b6044820152606401611005565b6122ab8686868686611b3c565b6122e95760405162461bcd60e51b815260206004820152600f60248201526e1393d517d0531313d5d31254d51151608a1b6044820152606401611005565b60008681526017602090815260408083206001600160a01b038916845290915281205461231690866150ef565b905080821115612324578091505b5095945050505050565b6060600a8054611e4d9061526c565b612345612a55565b600254600160a01b900460ff161561236f5760405162461bcd60e51b81526004016110059061524c565b600280546001600160a01b0319166001600160a01b0392909216919091179055565b612399612a55565b600254600160b81b900460ff16156123db5760405162461bcd60e51b815260206004820152600560248201526413d0d2d15160da1b6044820152606401611005565b6002805460ff60b81b1916600160b81b179055565b6060610ed0826134d2565b604080516001808252818301909252606091816020015b6040805180820190915260008082526020820152815260200190600190039081612412575050601b5481519192506001600160a01b031690829060009061245b5761245b61521d565b60209081029190910101516001600160a01b03919091169052601b548151600160a01b90910461ffff169082906000906124975761249761521d565b6020908102919091018101516001600160601b03909216910152919050565b6124bf82611358565b6124c881612d53565b6110b88383612deb565b6124da612a55565b60005b838110156125315761251f8585838181106124fa576124fa61521d565b905060200201358484848181106125135761251361521d565b9050610100020161113a565b8061252981615233565b9150506124dd565b5050505050565b612540612a55565b601f80546001600160a01b0319166001600160a01b0392909216919091179055565b61256a612a55565b6002805460ff60a81b1916600160a81b1790556040517fa24423a69b45c25c0479663125e48b482e71d85eae416f589545243bafaf3c9590600090a1565b6060600b8054611e4d9061526c565b6002601354036125d95760405162461bcd60e51b815260040161100590615413565b60026013556125f660008051602061587183398151915233611fd1565b6126125760405162461bcd60e51b81526004016110059061544a565b611aff81613358565b612624336135ae565b6002546001600160a01b03166126745760405162461bcd60e51b815260206004820152601560248201527415d2551211149055cbd393d7d49150d25412515395605a1b6044820152606401611005565b600254600160a81b900460ff16156126ce5760405162461bcd60e51b815260206004820181905260248201527f57495448445241572f454d455247454e43595f504f5745525f5245564f4b45446044820152606401611005565b60005b8381101561280f5760008585838181106126ed576126ed61521d565b90506020020160208101906127029190614b06565b6001600160a01b031603612745576127408383838181106127255761272561521d565b6002546001600160a01b031692602090910201359050613733565b6127fd565b8484828181106127575761275761521d565b905060200201602081019061276c9190614b06565b6002546001600160a01b039182169163a9059cbb91168585858181106127945761279461521d565b905060200201356040518363ffffffff1660e01b81526004016127b8929190614814565b6020604051808303816000875af11580156127d7573d6000803e3d6000fd5b505050506040513d601f19601f820116820180604052508101906127fb919061549f565b505b8061280781615233565b9150506126d1565b507fd40c399a83caf67d15628b821aa7c7bd940e563c57a047e2bd3b8c602bcaf5a584848484604051612845949392919061550e565b60405180910390a150505050565b6060600f8054611e4d9061526c565b6001600160a01b03918216600090815260086020908152604080832093909416825291909152205460ff1690565b612898612a55565b611da16128aa3683900383018361558c565b613849565b6128b7612a55565b6001600160a01b03811661291c5760405162461bcd60e51b815260206004820152602660248201527f4f776e61626c653a206e6577206f776e657220697320746865207a65726f206160448201526564647265737360d01b6064820152608401611005565b611da18161309e565b60006129303361169b565b15612942575060131936013560601c90565b503390565b6001600160a01b03163b151590565b3390565b60006301ffc9a760e01b6001600160e01b031983161480610ed05750506001600160e01b03191660009081526001602052604090205460ff1690565b60006129a283836138f4565b9392505050565b6060600d8054611e4d9061526c565b6129c18161391e565b611da15760405162461bcd60e51b8152600401611005906154bc565b6000610f65612925565b600081815260076020526040902080546001600160a01b0319166001600160a01b0384169081179091558190612a1c82611b07565b6001600160a01b03167f8c5be1e5ebec7d5bd14f71427d1e84f3dd0314c0f7b2291e5b200ac8c7c3b92560405160405180910390a45050565b612a5d6129dd565b6001600160a01b0316612a6e611fbc565b6001600160a01b031614611e3c5760405162461bcd60e51b815260206004820181905260248201527f4f776e61626c653a2063616c6c6572206973206e6f7420746865206f776e65726044820152606401611005565b60105481612ad160125490565b612adb9190615173565b1115612b1a5760405162461bcd60e51b815260206004820152600e60248201526d455843454544535f535550504c5960901b6044820152606401611005565b60005b818110156110b857601254612b32848261393b565b612b3a613955565b5080612b4581615233565b915050612b1d565b600080612b5983611b07565b9050806001600160a01b0316846001600160a01b03161480612b805750612b808185612862565b80612ba45750836001600160a01b0316612b9984610f6a565b6001600160a01b0316145b949350505050565b826001600160a01b0316612bbf82611b07565b6001600160a01b031614612c235760405162461bcd60e51b815260206004820152602560248201527f4552433732313a207472616e736665722066726f6d20696e636f72726563742060448201526437bbb732b960d91b6064820152608401611005565b6001600160a01b038216612c855760405162461bcd60e51b8152602060048201526024808201527f4552433732313a207472616e7366657220746f20746865207a65726f206164646044820152637265737360e01b6064820152608401611005565b612c9083838361396c565b612c9b6000826129e7565b6001600160a01b0383166000908152600660205260408120805460019290612cc49084906150ef565b90915550506001600160a01b0382166000908152600660205260408120805460019290612cf2908490615173565b909155505060008181526005602052604080822080546001600160a01b0319166001600160a01b0386811691821790925591518493918716917fddf252ad1be2c89b69c2b068fc378daa952ba7f163c4a11628f55a4df523b3ef91a4505050565b611da181612d5f6129dd565b613977565b612d6e8282611fd1565b611136576000828152601a602090815260408083206001600160a01b03851684529091529020805460ff19166001179055612da76129dd565b6001600160a01b0316816001600160a01b0316837f2f8788117e7eff1d82e926ec794901d17c78024a50270940304540a733656f0d60405160405180910390a45050565b612df58282611fd1565b15611136576000828152601a602090815260408083206001600160a01b03851684529091529020805460ff19169055612e2c6129dd565b6001600160a01b0316816001600160a01b0316837ff6391f5c32d9c69d2a47ea670b442974b53935d1edc7fd64eb21e047a839171b60405160405180910390a45050565b60005b8151811015611136576000828281518110612e9057612e9061521d565b60200260200101519050612710816040015161ffff1610612ec35760405162461bcd60e51b8152600401611005906155e8565b60208101516001600160a01b0316612f3c5780516000908152601c6020526040902080546001600160b01b03191690558051612f0190601d906139db565b5080516040519081527fa2870857763bd9ae76c957f869f16b31c18dd3bb4c7b4d3a4496dc5c57c657f99060200160405180910390a1613004565b6040805180820182526020808401516001600160a01b0390811683528484015161ffff90811683850190815286516000908152601c90945294909220925183549451909216600160a01b026001600160b01b03199094169116179190911790558051612faa90601d906139e7565b50805160208083015160408085015181519485526001600160a01b039092169284019290925261ffff1682820152517f389b70fb0887f01e83784eb1c4c589f740eca53b00ed0f45e41db5d079719abb9181900360600190a15b508061300f81615233565b915050612e73565b61302260198261347b565b61305b5760405162461bcd60e51b815260206004820152600a6024820152691393d517d313d0d2d15160b21b6044820152606401611005565b600881901c60009081526019602052604090208054600160ff84161b1916905550565b60008261308b85846139f3565b14949350505050565b6111368282612d64565b600080546001600160a01b038381166201000081810262010000600160b01b0319851617855560405193049190911692909183917f8be0079c531659141344cd1fd0a4f28419497f9722a3daafe3b4186f6b6457e091a35050565b600054610100900460ff166131205760405162461bcd60e51b81526004016110059061560d565b6111368282613a38565b600054610100900460ff166131515760405162461bcd60e51b81526004016110059061560d565b6110b8838383613abc565b600054610100900460ff166131835760405162461bcd60e51b81526004016110059061560d565b6111368282613b3a565b600054610100900460ff166131b45760405162461bcd60e51b81526004016110059061560d565b611da181613bc5565b600054610100900460ff166131e45760405162461bcd60e51b81526004016110059061560d565b611e3c613c11565b600054610100900460ff166132135760405162461bcd60e51b81526004016110059061560d565b611da181613c48565b600054610100900460ff166132435760405162461bcd60e51b81526004016110059061560d565b611e3c613c97565b600054610100900460ff166132725760405162461bcd60e51b81526004016110059061560d565b611da181613cce565b600054610100900460ff166132a25760405162461bcd60e51b81526004016110059061560d565b6111368282613dea565b600054610100900460ff166132d35760405162461bcd60e51b81526004016110059061560d565b611da181613e7a565b6132e4612a55565b6132ed81613ea1565b6018546015546132fd91906150ef565b60125461330a90836150ef565b1015611da15760405162461bcd60e51b81526020600482015260136024820152721313d5d15497d512105397d49154d154959151606a1b6044820152606401611005565b6000610ed0825490565b61336360198261347b565b156133805760405162461bcd60e51b81526004016110059061524c565b600881901c60009081526019602052604090208054600160ff84161b17905550565b6060600e8054611e4d9061526c565b816001600160a01b0316836001600160a01b03160361340e5760405162461bcd60e51b815260206004820152601960248201527822a9219b99189d1030b8383937bb32903a379031b0b63632b960391b6044820152606401611005565b6001600160a01b03838116600081815260086020908152604080832094871680845294825291829020805460ff191686151590811790915591519182527f17307eab39ab6107e8899845ad3d59bd9653f200f220920489ca2b5937696c31910160405180910390a3505050565b600881901c600090815260208390526040902054600160ff83161b16151592915050565b6134aa848484612bac565b6134b684848484613f17565b6120e05760405162461bcd60e51b815260040161100590615658565b60606000600a80546134e39061526c565b90501161357a57600980546134f79061526c565b80601f01602080910402602001604051908101604052809291908181526020018280546135239061526c565b80156135705780601f1061354557610100808354040283529160200191613570565b820191906000526020600020905b81548152906001019060200180831161355357829003601f168201915b5050505050610ed0565b600a61358583614026565b600b6040516020016135999392919061571d565b60405160208183030381529060405292915050565b6003600254600160b01b900460ff1660038111156135ce576135ce614917565b0361360d5760405162461bcd60e51b815260206004820152600f60248201526e15d2551211149055cbd313d0d2d151608a1b6044820152606401611005565b60028054600160b01b900460ff16600381111561362c5761362c614917565b036136345750565b6001600254600160b01b900460ff16600381111561365457613654614917565b036136b0576002546001600160a01b03828116911614611da15760405162461bcd60e51b815260206004820152601760248201527615d2551211149055cbd3d3931657d49150d25412515395604a1b6044820152606401611005565b6000600254600160b01b900460ff1660038111156136d0576136d0614917565b03611da157806001600160a01b03166136e7611fbc565b6001600160a01b031614611da15760405162461bcd60e51b81526020600482015260136024820152722ba4aa24222920ab97a7a7262cafa7aba722a960691b6044820152606401611005565b804710156137835760405162461bcd60e51b815260206004820152601d60248201527f416464726573733a20696e73756666696369656e742062616c616e63650000006044820152606401611005565b6000826001600160a01b03168260405160006040518083038185875af1925050503d80600081146137d0576040519150601f19603f3d011682016040523d82523d6000602084013e6137d5565b606091505b50509050806110b85760405162461bcd60e51b815260206004820152603a60248201527f416464726573733a20756e61626c6520746f2073656e642076616c75652c20726044820152791958da5c1a595b9d081b585e481a185d99481c995d995c9d195960321b6064820152608401611005565b612710816020015161ffff16106138725760405162461bcd60e51b8152600401611005906155e8565b60408051808201825282516001600160a01b03168082526020808501805161ffff1691909301819052601b80546001600160b01b031916909217600160a01b9091021790558251905191517f2c5ea6e4103e78cb101e796fb2dace540362fc542cbff5145eaa24af7dd8fe41926138e99291614e56565b60405180910390a150565b600082600001828154811061390b5761390b61521d565b9060005260206000200154905092915050565b6000908152600560205260409020546001600160a01b0316151590565b611136828260405180602001604052806000815250614126565b6012805490600061396583615233565b9190505550565b6110b8838383614159565b6139818282611fd1565b61113657613999816001600160a01b03166014614181565b6139a4836020614181565b6040516020016139b5929190615750565b60408051601f198184030181529082905262461bcd60e51b8252611005916004016146e8565b60006129a2838361431c565b60006129a2838361440f565b600081815b84518110156114f457613a2482868381518110613a1757613a1761521d565b602002602001015161445e565b915080613a3081615233565b9150506139f8565b600054610100900460ff16613a5f5760405162461bcd60e51b81526004016110059061560d565b613a6f63ac2ba33360e01b61448d565b600280546001600160a01b0384166001600160a01b0319821681178355839291600162ff000160a01b03191617600160b01b836003811115613ab357613ab3614917565b02179055505050565b600054610100900460ff16613ae35760405162461bcd60e51b81526004016110059061560d565b600d613aef84826152ee565b50600e613afc83826152ee565b50600f613b0982826152ee565b50613b1a633d96f4ff60e11b61448d565b613b2a6380ac58cd60e01b61448d565b6110b8635b5e139f60e01b61448d565b600054610100900460ff16613b615760405162461bcd60e51b81526004016110059061560d565b6009613b6d83826152ee565b50600a613b7a82826152ee565b50604080518082019091526005815264173539b7b760d91b6020820152600b90613ba490826152ee565b50613bb5631f2f406b60e01b61448d565b611136635b5e139f60e01b61448d565b600054610100900460ff16613bec5760405162461bcd60e51b81526004016110059061560d565b6010819055613c016330f487b560e11b61448d565b611da16380ac58cd60e01b61448d565b600054610100900460ff16613c385760405162461bcd60e51b81526004016110059061560d565b611e3c631aa1577160e11b61448d565b600054610100900460ff16613c6f5760405162461bcd60e51b81526004016110059061560d565b613c7f631a056e7160e01b61448d565b611da160008051602061585183398151915282613094565b600054610100900460ff16613cbe5760405162461bcd60e51b81526004016110059061560d565b611e3c63714ad8e760e01b61448d565b600054610100900460ff16613cf55760405162461bcd60e51b81526004016110059061560d565b613d056308b4902960e41b61448d565b60005b815181101561113657818181518110613d2357613d2361521d565b602090810291909101810151600083815260148352604090819020825181559282015160018401558101516002830180546001600160a01b0319166001600160a01b03909216919091179055606081015160038301556080810151600483015560a0810151600583015560c0810151600683015560e001516007909101558151829082908110613db557613db561521d565b602002602001015160c0015160156000828254613dd29190615173565b90915550819050613de281615233565b915050613d08565b600054610100900460ff16613e115760405162461bcd60e51b81526004016110059061560d565b613e21633a47bf5160e11b61448d565b613e3163152a902d60e11b61448d565b613e4163c69dbd8f60e01b61448d565b613e5163656cb66560e11b61448d565b604080518082019091526001600160a01b038316815261ffff821660208201526110b881613849565b600054610100900460ff166125405760405162461bcd60e51b81526004016110059061560d565b613ea9612a55565b60115460ff1615613ecc5760405162461bcd60e51b8152600401611005906154ee565b601254811015613f125760405162461bcd60e51b81526020600482015260116024820152704c4f5745525f5448414e5f535550504c5960781b6044820152606401611005565b601055565b6000613f2b846001600160a01b0316612947565b1561401b57836001600160a01b031663150b7a02613f476129dd565b8786866040518563ffffffff1660e01b8152600401613f6994939291906157bf565b6020604051808303816000875af1925050508015613fa4575060408051601f3d908101601f19168201909252613fa1918101906157f2565b60015b614001573d808015613fd2576040519150601f19603f3d011682016040523d82523d6000602084013e613fd7565b606091505b508051600003613ff95760405162461bcd60e51b815260040161100590615658565b805181602001fd5b6001600160e01b031916630a85bd0160e11b149050612ba4565b506001949350505050565b60608160000361404d5750506040805180820190915260018152600360fc1b602082015290565b8160005b8115614077578061406181615233565b91506140709050600a83615209565b9150614051565b6000816001600160401b0381111561409157614091614955565b6040519080825280601f01601f1916602001820160405280156140bb576020820181803683370190505b5090505b8415612ba4576140d06001836150ef565b91506140dd600a8661580f565b6140e8906030615173565b60f81b8183815181106140fd576140fd61521d565b60200101906001600160f81b031916908160001a90535061411f600a86615209565b94506140bf565b614130838361450e565b61413d6000848484613f17565b6110b85760405162461bcd60e51b815260040161100590615658565b61416460198261347b565b156110b85760405162461bcd60e51b81526004016110059061524c565b606060006141908360026151d4565b61419b906002615173565b6001600160401b038111156141b2576141b2614955565b6040519080825280601f01601f1916602001820160405280156141dc576020820181803683370190505b509050600360fc1b816000815181106141f7576141f761521d565b60200101906001600160f81b031916908160001a905350600f60fb1b816001815181106142265761422661521d565b60200101906001600160f81b031916908160001a905350600061424a8460026151d4565b614255906001615173565b90505b60018111156142cd576f181899199a1a9b1b9c1cb0b131b232b360811b85600f16601081106142895761428961521d565b1a60f81b82828151811061429f5761429f61521d565b60200101906001600160f81b031916908160001a90535060049490941c936142c681615823565b9050614258565b5083156129a25760405162461bcd60e51b815260206004820181905260248201527f537472696e67733a20686578206c656e67746820696e73756666696369656e746044820152606401611005565b600081815260018301602052604081205480156144055760006143406001836150ef565b8554909150600090614354906001906150ef565b90508181146143b95760008660000182815481106143745761437461521d565b90600052602060002001549050808760000184815481106143975761439761521d565b6000918252602080832090910192909255918252600188019052604090208390555b85548690806143ca576143ca61583a565b600190038181906000526020600020016000905590558560010160008681526020019081526020016000206000905560019350505050610ed0565b6000915050610ed0565b600081815260018301602052604081205461445657508154600181810184556000848152602080822090930184905584548482528286019093526040902091909155610ed0565b506000610ed0565b600081831061447a5760008281526020849052604090206129a2565b60008381526020839052604090206129a2565b6001600160e01b031980821690036144e65760405162461bcd60e51b815260206004820152601c60248201527b115490cc4d8d4e881a5b9d985b1a59081a5b9d195c999858d9481a5960221b6044820152606401611005565b6001600160e01b0319166000908152600160208190526040909120805460ff19169091179055565b6001600160a01b0382166145645760405162461bcd60e51b815260206004820181905260248201527f4552433732313a206d696e7420746f20746865207a65726f20616464726573736044820152606401611005565b61456d8161391e565b156145b95760405162461bcd60e51b815260206004820152601c60248201527b115490cdcc8c4e881d1bdad95b88185b1c9958591e481b5a5b9d195960221b6044820152606401611005565b6145c56000838361396c565b6001600160a01b03821660009081526006602052604081208054600192906145ee908490615173565b909155505060008181526005602052604080822080546001600160a01b0319166001600160a01b03861690811790915590518392907fddf252ad1be2c89b69c2b068fc378daa952ba7f163c4a11628f55a4df523b3ef908290a45050565b6001600160e01b031981168114611da157600080fd5b60006020828403121561467457600080fd5b81356129a28161464c565b60006020828403121561469157600080fd5b5035919050565b60005b838110156146b357818101518382015260200161469b565b50506000910152565b600081518084526146d4816020860160208601614698565b601f01601f19169290920160200192915050565b6020815260006129a260208301846146bc565b6001600160a01b0381168114611da157600080fd5b8035611727816146fb565b6000806040838503121561472e57600080fd5b8235614739816146fb565b946020939093013593505050565b6000806040838503121561475a57600080fd5b82359150602083013561476c816146fb565b809150509250929050565b60008082840361012081121561478c57600080fd5b83359250610100601f19820112156147a357600080fd5b506020830190509250929050565b6000806000606084860312156147c657600080fd5b83356147d1816146fb565b925060208401356147e1816146fb565b929592945050506040919091013590565b6000806040838503121561480557600080fd5b50508035926020909101359150565b6001600160a01b03929092168252602082015260400190565b60008083601f84011261483f57600080fd5b5081356001600160401b0381111561485657600080fd5b6020830191508360208260051b850101111561142b57600080fd5b6000806020838503121561488457600080fd5b82356001600160401b0381111561489a57600080fd5b6148a68582860161482d565b90969095509350505050565b6020808252825182820181905260009190848201906040850190845b818110156148ea578351835292840192918401916001016148ce565b50909695505050505050565b60006020828403121561490857600080fd5b8135600481106129a257600080fd5b634e487b7160e01b600052602160045260246000fd5b602081016004831061494f57634e487b7160e01b600052602160045260246000fd5b91905290565b634e487b7160e01b600052604160045260246000fd5b60405161010081016001600160401b038111828210171561498e5761498e614955565b60405290565b60405161016081016001600160401b038111828210171561498e5761498e614955565b604051601f8201601f191681016001600160401b03811182821017156149df576149df614955565b604052919050565b60006001600160401b03831115614a0057614a00614955565b614a13601f8401601f19166020016149b7565b9050828152838383011115614a2757600080fd5b828260208301376000602084830101529392505050565b600082601f830112614a4f57600080fd5b6129a2838335602085016149e7565b600060208284031215614a7057600080fd5b81356001600160401b03811115614a8657600080fd5b612ba484828501614a3e565b60008060208385031215614aa557600080fd5b82356001600160401b0380821115614abc57600080fd5b818501915085601f830112614ad057600080fd5b813581811115614adf57600080fd5b866020606083028501011115614af457600080fd5b60209290920196919550909350505050565b600060208284031215614b1857600080fd5b81356129a2816146fb565b600080600080600060808688031215614b3b57600080fd5b85359450602086013593506040860135925060608601356001600160401b03811115614b6657600080fd5b614b728882890161482d565b969995985093965092949392505050565b600080600080600060808688031215614b9b57600080fd5b853594506020860135614bad816146fb565b93506040860135925060608601356001600160401b03811115614b6657600080fd5b600082601f830112614be057600080fd5b813560206001600160401b03821115614bfb57614bfb614955565b614c09818360051b016149b7565b82815260089290921b84018101918181019086841115614c2857600080fd5b8286015b84811015614cae576101008189031215614c465760008081fd5b614c4e61496b565b813581528482013585820152604080830135614c69816146fb565b90820152606082810135908201526080808301359082015260a0808301359082015260c0808301359082015260e0808301359082015283529183019161010001614c2c565b509695505050505050565b803561ffff8116811461172757600080fd5b60008060408385031215614cde57600080fd5b82356001600160401b0380821115614cf557600080fd5b908401906101608287031215614d0a57600080fd5b614d12614994565b823582811115614d2157600080fd5b614d2d88828601614a3e565b825250602083013582811115614d4257600080fd5b614d4e88828601614a3e565b602083015250604083013582811115614d6657600080fd5b614d7288828601614a3e565b604083015250606083013582811115614d8a57600080fd5b614d9688828601614a3e565b606083015250608083013582811115614dae57600080fd5b614dba88828601614a3e565b60808301525060a083013560a082015260c083013582811115614ddc57600080fd5b614de888828601614bcf565b60c083015250614dfa60e08401614710565b60e08201526101009150614e0f828401614cb9565b828201526101209150614e23828401614710565b828201526101409150614e37828401614710565b82820152809450505050614e4d60208401614710565b90509250929050565b6001600160a01b0392909216825261ffff16602082015260400190565b8015158114611da157600080fd5b60008060408385031215614e9457600080fd5b8235614e9f816146fb565b9150602083013561476c81614e73565b60008060008060808587031215614ec557600080fd5b8435614ed0816146fb565b93506020850135614ee0816146fb565b92506040850135915060608501356001600160401b03811115614f0257600080fd5b8501601f81018713614f1357600080fd5b614f22878235602084016149e7565b91505092959194509250565b602080825282518282018190526000919060409081850190868401855b82811015614f8257815180516001600160a01b031685528601516001600160601b0316868501529284019290850190600101614f4b565b5091979650505050505050565b60008060008060408587031215614fa557600080fd5b84356001600160401b0380821115614fbc57600080fd5b614fc88883890161482d565b90965094506020870135915080821115614fe157600080fd5b818701915087601f830112614ff557600080fd5b81358181111561500457600080fd5b8860208260081b850101111561501957600080fd5b95989497505060200194505050565b6000806000806040858703121561503e57600080fd5b84356001600160401b038082111561505557600080fd5b6150618883890161482d565b9096509450602087013591508082111561507a57600080fd5b506150878782880161482d565b95989497509550505050565b600080604083850312156150a657600080fd5b82356150b1816146fb565b9150602083013561476c816146fb565b6000604082840312156150d357600080fd5b50919050565b634e487b7160e01b600052601160045260246000fd5b81810381811115610ed057610ed06150d9565b8135815560208201356001820155600281016040830135615122816146fb565b81546001600160a01b0319166001600160a01b0391909116179055606082013560038201556080820135600482015560a0820135600582015560c0820135600682015560e090910135600790910155565b80820180821115610ed057610ed06150d9565b6020808252602e908201527f4552433732313a2063616c6c6572206973206e6f7420746f6b656e206f776e6560408201526d1c881b9bdc88185c1c1c9bdd995960921b606082015260800190565b60008160001904831182151516156151ee576151ee6150d9565b500290565b634e487b7160e01b600052601260045260246000fd5b600082615218576152186151f3565b500490565b634e487b7160e01b600052603260045260246000fd5b600060018201615245576152456150d9565b5060010190565b6020808252600690820152651313d0d2d15160d21b604082015260600190565b600181811c9082168061528057607f821691505b6020821081036150d357634e487b7160e01b600052602260045260246000fd5b601f8211156110b857600081815260208120601f850160051c810160208610156152c75750805b601f850160051c820191505b818110156152e6578281556001016152d3565b505050505050565b81516001600160401b0381111561530757615307614955565b61531b81615315845461526c565b846152a0565b602080601f83116001811461535057600084156153385750858301515b600019600386901b1c1916600185901b1785556152e6565b600085815260208120601f198616915b8281101561537f57888601518255948401946001909101908401615360565b508582101561539d5787850151600019600388901b60f8161c191681555b5050505050600190811b01905550565b6000606082840312156153bf57600080fd5b604051606081018181106001600160401b03821117156153e1576153e1614955565b6040528235815260208301356153f6816146fb565b602082015261540760408401614cb9565b60408201529392505050565b6020808252601f908201527f5265656e7472616e637947756172643a207265656e7472616e742063616c6c00604082015260600190565b6020808252600f908201526e4e4f545f4c4f434b45525f524f4c4560881b604082015260600190565b60208082526012908201527122ac21a2a2a229afa0a62627a1a0aa24a7a760711b604082015260600190565b6000602082840312156154b157600080fd5b81516129a281614e73565b602080825260189082015277115490cdcc8c4e881a5b9d985b1a59081d1bdad95b88125160421b604082015260600190565b602080825260069082015265232927ad22a760d11b604082015260600190565b6040808252810184905260008560608301825b87811015615551578235615534816146fb565b6001600160a01b0316825260209283019290910190600101615521565b5083810360208501528481526001600160fb1b0385111561557157600080fd5b8460051b915081866020830137016020019695505050505050565b60006040828403121561559e57600080fd5b604051604081018181106001600160401b03821117156155c0576155c0614955565b60405282356155ce816146fb565b81526155dc60208401614cb9565b60208201529392505050565b6020808252600b908201526a496e76616c69642062707360a81b604082015260600190565b6020808252602b908201527f496e697469616c697a61626c653a20636f6e7472616374206973206e6f74206960408201526a6e697469616c697a696e6760a81b606082015260800190565b60208082526032908201527f4552433732313a207472616e7366657220746f206e6f6e20455243373231526560408201527131b2b4bb32b91034b6b83632b6b2b73a32b960711b606082015260800190565b600081546156b78161526c565b600182811680156156cf57600181146156e457615713565b60ff1984168752821515830287019450615713565b8560005260208060002060005b8581101561570a5781548a8201529084019082016156f1565b50505082870194505b5050505092915050565b600061572982866156aa565b8451615739818360208901614698565b615745818301866156aa565b979650505050505050565b76020b1b1b2b9b9a1b7b73a3937b61d1030b1b1b7bab73a1604d1b815260008351615782816017850160208801614698565b7001034b99036b4b9b9b4b733903937b6329607d1b60179184019182015283516157b3816028840160208801614698565b01602801949350505050565b6001600160a01b0385811682528416602082015260408101839052608060608201819052600090611bd2908301846146bc565b60006020828403121561580457600080fd5b81516129a28161464c565b60008261581e5761581e6151f3565b500690565b600081615832576158326150d9565b506000190190565b634e487b7160e01b600052603160045260246000fdfe9f2df0fed2c77648de5860a4cc508cd0818c85b8b8a1ab4ceeef8d981c8956a6af9a8bb3cbd6b84fbccefa71ff73e26e798553c6914585a84886212a46a90279a26469706673582212208ddd1f0319d43e381238bdd4d3faa32b34e47d051b9eb233c2c3dc0c34a2645264736f6c63430008100033",
  "devdoc": {
    "kind": "dev",
    "methods": {
      "approve(address,uint256)": {
        "details": "See {IERC721-approve}."
      },
      "balanceOf(address)": {
        "details": "See {IERC721-balanceOf}."
      },
      "getApproved(uint256)": {
        "details": "See {IERC721-getApproved}."
      },
      "getRoleAdmin(bytes32)": {
        "details": "Returns the admin role that controls `role`. See {grantRole} and {revokeRole}. To change a role's admin, use {_setRoleAdmin}."
      },
      "getTokenRoyaltiesCount()": {
        "details": "See {IEIP2981RoyaltyOverride-getTokenRoyaltiesCount}."
      },
      "getTokenRoyaltyByIndex(uint256)": {
        "details": "See {IEIP2981RoyaltyOverride-getTokenRoyaltyByIndex}."
      },
      "grantRole(bytes32,address)": {
        "details": "Grants `role` to `account`. If `account` had not been already granted `role`, emits a {RoleGranted} event. Requirements: - the caller must have ``role``'s admin role. May emit a {RoleGranted} event."
      },
      "hasRole(bytes32,address)": {
        "details": "Returns `true` if `account` has been granted `role`."
      },
      "isApprovedForAll(address,address)": {
        "details": "See {IERC721-isApprovedForAll}."
      },
      "owner()": {
        "details": "Returns the address of the current owner."
      },
      "ownerOf(uint256)": {
        "details": "See {IERC721-ownerOf}."
      },
      "renounceOwnership()": {
        "details": "Leaves the contract without owner. It will not be possible to call `onlyOwner` functions anymore. Can only be called by the current owner. NOTE: Renouncing ownership will leave the contract without an owner, thereby removing any functionality that is only available to the owner."
      },
      "renounceRole(bytes32,address)": {
        "details": "Revokes `role` from the calling account. Roles are often managed via {grantRole} and {revokeRole}: this function's purpose is to provide a mechanism for accounts to lose their privileges if they are compromised (such as when a trusted device is misplaced). If the calling account had been revoked `role`, emits a {RoleRevoked} event. Requirements: - the caller must be `account`. May emit a {RoleRevoked} event."
      },
      "revokeRole(bytes32,address)": {
        "details": "Revokes `role` from `account`. If `account` had been granted `role`, emits a {RoleRevoked} event. Requirements: - the caller must have ``role``'s admin role. May emit a {RoleRevoked} event."
      },
      "royaltyInfo(uint256,uint256)": {
        "details": "See {IEIP2981RoyaltyOverride-royaltyInfo}."
      },
      "safeTransferFrom(address,address,uint256)": {
        "details": "See {IERC721-safeTransferFrom}."
      },
      "safeTransferFrom(address,address,uint256,bytes)": {
        "details": "See {IERC721-safeTransferFrom}."
      },
      "setApprovalForAll(address,bool)": {
        "details": "See {IERC721-setApprovalForAll}."
      },
      "transferFrom(address,address,uint256)": {
        "details": "See {IERC721-transferFrom}."
      },
      "transferOwnership(address)": {
        "details": "Transfers ownership of the contract to a new account (`newOwner`). Can only be called by the current owner."
      }
    },
    "version": 1
  },
  "userdoc": {
    "kind": "user",
    "methods": {
      "lock(uint256)": {
        "notice": "Locks token(s) to effectively lock them, while keeping in the same wallet. This mechanism prevents them from being transferred, yet still will show correct owner."
      },
      "locked(uint256)": {
        "notice": "Returns if a token is locked or not."
      },
      "unlock(uint256)": {
        "notice": "Unlocks locked token(s) to be able to transfer."
      }
    },
    "version": 1
  },
  "storageLayout": {
    "storage": [
      {
        "astId": 974,
        "contract": "contracts/collections/ERC721/presets/ERC721TieredSalesCollection.sol:ERC721TieredSalesCollection",
        "label": "_initialized",
        "offset": 0,
        "slot": "0",
        "type": "t_uint8"
      },
      {
        "astId": 977,
        "contract": "contracts/collections/ERC721/presets/ERC721TieredSalesCollection.sol:ERC721TieredSalesCollection",
        "label": "_initializing",
        "offset": 1,
        "slot": "0",
        "type": "t_bool"
      },
      {
        "astId": 782,
        "contract": "contracts/collections/ERC721/presets/ERC721TieredSalesCollection.sol:ERC721TieredSalesCollection",
        "label": "_owner",
        "offset": 2,
        "slot": "0",
        "type": "t_address"
      },
      {
        "astId": 5217,
        "contract": "contracts/collections/ERC721/presets/ERC721TieredSalesCollection.sol:ERC721TieredSalesCollection",
        "label": "_supportedInterfaces",
        "offset": 0,
        "slot": "1",
        "type": "t_mapping(t_bytes4,t_bool)"
      },
      {
        "astId": 14335,
        "contract": "contracts/collections/ERC721/presets/ERC721TieredSalesCollection.sol:ERC721TieredSalesCollection",
        "label": "withdrawRecipient",
        "offset": 0,
        "slot": "2",
        "type": "t_address"
      },
      {
        "astId": 14337,
        "contract": "contracts/collections/ERC721/presets/ERC721TieredSalesCollection.sol:ERC721TieredSalesCollection",
        "label": "withdrawRecipientLocked",
        "offset": 20,
        "slot": "2",
        "type": "t_bool"
      },
      {
        "astId": 14339,
        "contract": "contracts/collections/ERC721/presets/ERC721TieredSalesCollection.sol:ERC721TieredSalesCollection",
        "label": "withdrawPowerRevoked",
        "offset": 21,
        "slot": "2",
        "type": "t_bool"
      },
      {
        "astId": 14342,
        "contract": "contracts/collections/ERC721/presets/ERC721TieredSalesCollection.sol:ERC721TieredSalesCollection",
        "label": "withdrawMode",
        "offset": 22,
        "slot": "2",
        "type": "t_enum(WithdrawMode)14279"
      },
      {
        "astId": 14344,
        "contract": "contracts/collections/ERC721/presets/ERC721TieredSalesCollection.sol:ERC721TieredSalesCollection",
        "label": "withdrawModeLocked",
        "offset": 23,
        "slot": "2",
        "type": "t_bool"
      },
      {
        "astId": 2025,
        "contract": "contracts/collections/ERC721/presets/ERC721TieredSalesCollection.sol:ERC721TieredSalesCollection",
        "label": "_name",
        "offset": 0,
        "slot": "3",
        "type": "t_string_storage"
      },
      {
        "astId": 2027,
        "contract": "contracts/collections/ERC721/presets/ERC721TieredSalesCollection.sol:ERC721TieredSalesCollection",
        "label": "_symbol",
        "offset": 0,
        "slot": "4",
        "type": "t_string_storage"
      },
      {
        "astId": 2031,
        "contract": "contracts/collections/ERC721/presets/ERC721TieredSalesCollection.sol:ERC721TieredSalesCollection",
        "label": "_owners",
        "offset": 0,
        "slot": "5",
        "type": "t_mapping(t_uint256,t_address)"
      },
      {
        "astId": 2035,
        "contract": "contracts/collections/ERC721/presets/ERC721TieredSalesCollection.sol:ERC721TieredSalesCollection",
        "label": "_balances",
        "offset": 0,
        "slot": "6",
        "type": "t_mapping(t_address,t_uint256)"
      },
      {
        "astId": 2039,
        "contract": "contracts/collections/ERC721/presets/ERC721TieredSalesCollection.sol:ERC721TieredSalesCollection",
        "label": "_tokenApprovals",
        "offset": 0,
        "slot": "7",
        "type": "t_mapping(t_uint256,t_address)"
      },
      {
        "astId": 2045,
        "contract": "contracts/collections/ERC721/presets/ERC721TieredSalesCollection.sol:ERC721TieredSalesCollection",
        "label": "_operatorApprovals",
        "offset": 0,
        "slot": "8",
        "type": "t_mapping(t_address,t_mapping(t_address,t_bool))"
      },
      {
        "astId": 8002,
        "contract": "contracts/collections/ERC721/presets/ERC721TieredSalesCollection.sol:ERC721TieredSalesCollection",
        "label": "_placeholderURI",
        "offset": 0,
        "slot": "9",
        "type": "t_string_storage"
      },
      {
        "astId": 8004,
        "contract": "contracts/collections/ERC721/presets/ERC721TieredSalesCollection.sol:ERC721TieredSalesCollection",
        "label": "_tokenURIPrefix",
        "offset": 0,
        "slot": "10",
        "type": "t_string_storage"
      },
      {
        "astId": 8006,
        "contract": "contracts/collections/ERC721/presets/ERC721TieredSalesCollection.sol:ERC721TieredSalesCollection",
        "label": "_tokenURISuffix",
        "offset": 0,
        "slot": "11",
        "type": "t_string_storage"
      },
      {
        "astId": 8008,
        "contract": "contracts/collections/ERC721/presets/ERC721TieredSalesCollection.sol:ERC721TieredSalesCollection",
        "label": "tokenURIFrozen",
        "offset": 0,
        "slot": "12",
        "type": "t_bool"
      },
      {
        "astId": 6694,
        "contract": "contracts/collections/ERC721/presets/ERC721TieredSalesCollection.sol:ERC721TieredSalesCollection",
        "label": "_name",
        "offset": 0,
        "slot": "13",
        "type": "t_string_storage"
      },
      {
        "astId": 6696,
        "contract": "contracts/collections/ERC721/presets/ERC721TieredSalesCollection.sol:ERC721TieredSalesCollection",
        "label": "_symbol",
        "offset": 0,
        "slot": "14",
        "type": "t_string_storage"
      },
      {
        "astId": 6698,
        "contract": "contracts/collections/ERC721/presets/ERC721TieredSalesCollection.sol:ERC721TieredSalesCollection",
        "label": "_contractURI",
        "offset": 0,
        "slot": "15",
        "type": "t_string_storage"
      },
      {
        "astId": 6350,
        "contract": "contracts/collections/ERC721/presets/ERC721TieredSalesCollection.sol:ERC721TieredSalesCollection",
        "label": "maxSupply",
        "offset": 0,
        "slot": "16",
        "type": "t_uint256"
      },
      {
        "astId": 6352,
        "contract": "contracts/collections/ERC721/presets/ERC721TieredSalesCollection.sol:ERC721TieredSalesCollection",
        "label": "maxSupplyFrozen",
        "offset": 0,
        "slot": "17",
        "type": "t_bool"
      },
      {
        "astId": 6355,
        "contract": "contracts/collections/ERC721/presets/ERC721TieredSalesCollection.sol:ERC721TieredSalesCollection",
        "label": "_currentTokenId",
        "offset": 0,
        "slot": "18",
        "type": "t_uint256"
      },
      {
        "astId": 1237,
        "contract": "contracts/collections/ERC721/presets/ERC721TieredSalesCollection.sol:ERC721TieredSalesCollection",
        "label": "_status",
        "offset": 0,
        "slot": "19",
        "type": "t_uint256"
      },
      {
        "astId": 8949,
        "contract": "contracts/collections/ERC721/presets/ERC721TieredSalesCollection.sol:ERC721TieredSalesCollection",
        "label": "tiers",
        "offset": 0,
        "slot": "20",
        "type": "t_mapping(t_uint256,t_struct(Tier)8892_storage)"
      },
      {
        "astId": 8951,
        "contract": "contracts/collections/ERC721/presets/ERC721TieredSalesCollection.sol:ERC721TieredSalesCollection",
        "label": "totalReserved",
        "offset": 0,
        "slot": "21",
        "type": "t_uint256"
      },
      {
        "astId": 8955,
        "contract": "contracts/collections/ERC721/presets/ERC721TieredSalesCollection.sol:ERC721TieredSalesCollection",
        "label": "tierMints",
        "offset": 0,
        "slot": "22",
        "type": "t_mapping(t_uint256,t_uint256)"
      },
      {
        "astId": 8961,
        "contract": "contracts/collections/ERC721/presets/ERC721TieredSalesCollection.sol:ERC721TieredSalesCollection",
        "label": "walletMinted",
        "offset": 0,
        "slot": "23",
        "type": "t_mapping(t_uint256,t_mapping(t_address,t_uint256))"
      },
      {
        "astId": 8963,
        "contract": "contracts/collections/ERC721/presets/ERC721TieredSalesCollection.sol:ERC721TieredSalesCollection",
        "label": "reservedMints",
        "offset": 0,
        "slot": "24",
        "type": "t_uint256"
      },
      {
        "astId": 6946,
        "contract": "contracts/collections/ERC721/presets/ERC721TieredSalesCollection.sol:ERC721TieredSalesCollection",
        "label": "lockedTokens",
        "offset": 0,
        "slot": "25",
        "type": "t_struct(BitMap)5589_storage"
      },
      {
        "astId": 406,
        "contract": "contracts/collections/ERC721/presets/ERC721TieredSalesCollection.sol:ERC721TieredSalesCollection",
        "label": "_roles",
        "offset": 0,
        "slot": "26",
        "type": "t_mapping(t_bytes32,t_struct(RoleData)401_storage)"
      },
      {
        "astId": 86,
        "contract": "contracts/collections/ERC721/presets/ERC721TieredSalesCollection.sol:ERC721TieredSalesCollection",
        "label": "defaultRoyalty",
        "offset": 0,
        "slot": "27",
        "type": "t_struct(TokenRoyalty)28_storage"
      },
      {
        "astId": 91,
        "contract": "contracts/collections/ERC721/presets/ERC721TieredSalesCollection.sol:ERC721TieredSalesCollection",
        "label": "_tokenRoyalties",
        "offset": 0,
        "slot": "28",
        "type": "t_mapping(t_uint256,t_struct(TokenRoyalty)28_storage)"
      },
      {
        "astId": 94,
        "contract": "contracts/collections/ERC721/presets/ERC721TieredSalesCollection.sol:ERC721TieredSalesCollection",
        "label": "_tokensWithRoyalties",
        "offset": 0,
        "slot": "29",
        "type": "t_struct(UintSet)6188_storage"
      },
      {
        "astId": 14615,
        "contract": "contracts/collections/ERC721/presets/ERC721TieredSalesCollection.sol:ERC721TieredSalesCollection",
        "label": "_trustedForwarder",
        "offset": 0,
        "slot": "31",
        "type": "t_address"
      }
    ],
    "types": {
      "t_address": {
        "encoding": "inplace",
        "label": "address",
        "numberOfBytes": "20"
      },
      "t_array(t_bytes32)dyn_storage": {
        "base": "t_bytes32",
        "encoding": "dynamic_array",
        "label": "bytes32[]",
        "numberOfBytes": "32"
      },
      "t_bool": {
        "encoding": "inplace",
        "label": "bool",
        "numberOfBytes": "1"
      },
      "t_bytes32": {
        "encoding": "inplace",
        "label": "bytes32",
        "numberOfBytes": "32"
      },
      "t_bytes4": {
        "encoding": "inplace",
        "label": "bytes4",
        "numberOfBytes": "4"
      },
      "t_enum(WithdrawMode)14279": {
        "encoding": "inplace",
        "label": "enum WithdrawMode",
        "numberOfBytes": "1"
      },
      "t_mapping(t_address,t_bool)": {
        "encoding": "mapping",
        "key": "t_address",
        "label": "mapping(address => bool)",
        "numberOfBytes": "32",
        "value": "t_bool"
      },
      "t_mapping(t_address,t_mapping(t_address,t_bool))": {
        "encoding": "mapping",
        "key": "t_address",
        "label": "mapping(address => mapping(address => bool))",
        "numberOfBytes": "32",
        "value": "t_mapping(t_address,t_bool)"
      },
      "t_mapping(t_address,t_uint256)": {
        "encoding": "mapping",
        "key": "t_address",
        "label": "mapping(address => uint256)",
        "numberOfBytes": "32",
        "value": "t_uint256"
      },
      "t_mapping(t_bytes32,t_struct(RoleData)401_storage)": {
        "encoding": "mapping",
        "key": "t_bytes32",
        "label": "mapping(bytes32 => struct AccessControl.RoleData)",
        "numberOfBytes": "32",
        "value": "t_struct(RoleData)401_storage"
      },
      "t_mapping(t_bytes32,t_uint256)": {
        "encoding": "mapping",
        "key": "t_bytes32",
        "label": "mapping(bytes32 => uint256)",
        "numberOfBytes": "32",
        "value": "t_uint256"
      },
      "t_mapping(t_bytes4,t_bool)": {
        "encoding": "mapping",
        "key": "t_bytes4",
        "label": "mapping(bytes4 => bool)",
        "numberOfBytes": "32",
        "value": "t_bool"
      },
      "t_mapping(t_uint256,t_address)": {
        "encoding": "mapping",
        "key": "t_uint256",
        "label": "mapping(uint256 => address)",
        "numberOfBytes": "32",
        "value": "t_address"
      },
      "t_mapping(t_uint256,t_mapping(t_address,t_uint256))": {
        "encoding": "mapping",
        "key": "t_uint256",
        "label": "mapping(uint256 => mapping(address => uint256))",
        "numberOfBytes": "32",
        "value": "t_mapping(t_address,t_uint256)"
      },
      "t_mapping(t_uint256,t_struct(Tier)8892_storage)": {
        "encoding": "mapping",
        "key": "t_uint256",
        "label": "mapping(uint256 => struct IERC721TieringExtension.Tier)",
        "numberOfBytes": "32",
        "value": "t_struct(Tier)8892_storage"
      },
      "t_mapping(t_uint256,t_struct(TokenRoyalty)28_storage)": {
        "encoding": "mapping",
        "key": "t_uint256",
        "label": "mapping(uint256 => struct IEIP2981RoyaltyOverride.TokenRoyalty)",
        "numberOfBytes": "32",
        "value": "t_struct(TokenRoyalty)28_storage"
      },
      "t_mapping(t_uint256,t_uint256)": {
        "encoding": "mapping",
        "key": "t_uint256",
        "label": "mapping(uint256 => uint256)",
        "numberOfBytes": "32",
        "value": "t_uint256"
      },
      "t_string_storage": {
        "encoding": "bytes",
        "label": "string",
        "numberOfBytes": "32"
      },
      "t_struct(BitMap)5589_storage": {
        "encoding": "inplace",
        "label": "struct BitMaps.BitMap",
        "members": [
          {
            "astId": 5588,
            "contract": "contracts/collections/ERC721/presets/ERC721TieredSalesCollection.sol:ERC721TieredSalesCollection",
            "label": "_data",
            "offset": 0,
            "slot": "0",
            "type": "t_mapping(t_uint256,t_uint256)"
          }
        ],
        "numberOfBytes": "32"
      },
      "t_struct(RoleData)401_storage": {
        "encoding": "inplace",
        "label": "struct AccessControl.RoleData",
        "members": [
          {
            "astId": 398,
            "contract": "contracts/collections/ERC721/presets/ERC721TieredSalesCollection.sol:ERC721TieredSalesCollection",
            "label": "members",
            "offset": 0,
            "slot": "0",
            "type": "t_mapping(t_address,t_bool)"
          },
          {
            "astId": 400,
            "contract": "contracts/collections/ERC721/presets/ERC721TieredSalesCollection.sol:ERC721TieredSalesCollection",
            "label": "adminRole",
            "offset": 0,
            "slot": "1",
            "type": "t_bytes32"
          }
        ],
        "numberOfBytes": "64"
      },
      "t_struct(Set)5730_storage": {
        "encoding": "inplace",
        "label": "struct EnumerableSet.Set",
        "members": [
          {
            "astId": 5725,
            "contract": "contracts/collections/ERC721/presets/ERC721TieredSalesCollection.sol:ERC721TieredSalesCollection",
            "label": "_values",
            "offset": 0,
            "slot": "0",
            "type": "t_array(t_bytes32)dyn_storage"
          },
          {
            "astId": 5729,
            "contract": "contracts/collections/ERC721/presets/ERC721TieredSalesCollection.sol:ERC721TieredSalesCollection",
            "label": "_indexes",
            "offset": 0,
            "slot": "1",
            "type": "t_mapping(t_bytes32,t_uint256)"
          }
        ],
        "numberOfBytes": "64"
      },
      "t_struct(Tier)8892_storage": {
        "encoding": "inplace",
        "label": "struct IERC721TieringExtension.Tier",
        "members": [
          {
            "astId": 8877,
            "contract": "contracts/collections/ERC721/presets/ERC721TieredSalesCollection.sol:ERC721TieredSalesCollection",
            "label": "start",
            "offset": 0,
            "slot": "0",
            "type": "t_uint256"
          },
          {
            "astId": 8879,
            "contract": "contracts/collections/ERC721/presets/ERC721TieredSalesCollection.sol:ERC721TieredSalesCollection",
            "label": "end",
            "offset": 0,
            "slot": "1",
            "type": "t_uint256"
          },
          {
            "astId": 8881,
            "contract": "contracts/collections/ERC721/presets/ERC721TieredSalesCollection.sol:ERC721TieredSalesCollection",
            "label": "currency",
            "offset": 0,
            "slot": "2",
            "type": "t_address"
          },
          {
            "astId": 8883,
            "contract": "contracts/collections/ERC721/presets/ERC721TieredSalesCollection.sol:ERC721TieredSalesCollection",
            "label": "price",
            "offset": 0,
            "slot": "3",
            "type": "t_uint256"
          },
          {
            "astId": 8885,
            "contract": "contracts/collections/ERC721/presets/ERC721TieredSalesCollection.sol:ERC721TieredSalesCollection",
            "label": "maxPerWallet",
            "offset": 0,
            "slot": "4",
            "type": "t_uint256"
          },
          {
            "astId": 8887,
            "contract": "contracts/collections/ERC721/presets/ERC721TieredSalesCollection.sol:ERC721TieredSalesCollection",
            "label": "merkleRoot",
            "offset": 0,
            "slot": "5",
            "type": "t_bytes32"
          },
          {
            "astId": 8889,
            "contract": "contracts/collections/ERC721/presets/ERC721TieredSalesCollection.sol:ERC721TieredSalesCollection",
            "label": "reserved",
            "offset": 0,
            "slot": "6",
            "type": "t_uint256"
          },
          {
            "astId": 8891,
            "contract": "contracts/collections/ERC721/presets/ERC721TieredSalesCollection.sol:ERC721TieredSalesCollection",
            "label": "maxAllocation",
            "offset": 0,
            "slot": "7",
            "type": "t_uint256"
          }
        ],
        "numberOfBytes": "256"
      },
      "t_struct(TokenRoyalty)28_storage": {
        "encoding": "inplace",
        "label": "struct IEIP2981RoyaltyOverride.TokenRoyalty",
        "members": [
          {
            "astId": 25,
            "contract": "contracts/collections/ERC721/presets/ERC721TieredSalesCollection.sol:ERC721TieredSalesCollection",
            "label": "recipient",
            "offset": 0,
            "slot": "0",
            "type": "t_address"
          },
          {
            "astId": 27,
            "contract": "contracts/collections/ERC721/presets/ERC721TieredSalesCollection.sol:ERC721TieredSalesCollection",
            "label": "bps",
            "offset": 20,
            "slot": "0",
            "type": "t_uint16"
          }
        ],
        "numberOfBytes": "32"
      },
      "t_struct(UintSet)6188_storage": {
        "encoding": "inplace",
        "label": "struct EnumerableSet.UintSet",
        "members": [
          {
            "astId": 6187,
            "contract": "contracts/collections/ERC721/presets/ERC721TieredSalesCollection.sol:ERC721TieredSalesCollection",
            "label": "_inner",
            "offset": 0,
            "slot": "0",
            "type": "t_struct(Set)5730_storage"
          }
        ],
        "numberOfBytes": "64"
      },
      "t_uint16": {
        "encoding": "inplace",
        "label": "uint16",
        "numberOfBytes": "2"
      },
      "t_uint256": {
        "encoding": "inplace",
        "label": "uint256",
        "numberOfBytes": "32"
      },
      "t_uint8": {
        "encoding": "inplace",
        "label": "uint8",
        "numberOfBytes": "1"
      }
    }
  }
}