{
  "address": "0x154C7Bd78bD92df481636D872e4A66e18b18a0e9",
  "abi": [
    {
      "inputs": [
        {
          "components": [
            {
              "internalType": "string",
              "name": "name",
              "type": "string"
            },
            {
              "internalType": "string",
              "name": "symbol",
              "type": "string"
            },
            {
              "internalType": "string",
              "name": "contractURI",
              "type": "string"
            },
            {
              "internalType": "uint256",
              "name": "maxSupply",
              "type": "uint256"
            },
            {
              "internalType": "address",
              "name": "defaultRoyaltyAddress",
              "type": "address"
            },
            {
              "internalType": "uint16",
              "name": "defaultRoyaltyBps",
              "type": "uint16"
            },
            {
              "internalType": "address",
              "name": "trustedForwarder",
              "type": "address"
            }
          ],
          "internalType": "struct ERC721OneOfOneCollection.Config",
          "name": "config",
          "type": "tuple"
        }
      ],
      "stateMutability": "nonpayable",
      "type": "constructor"
    },
    {
      "anonymous": false,
      "inputs": [
        {
          "indexed": true,
          "internalType": "address",
          "name": "owner",
          "type": "address"
        },
        {
          "indexed": true,
          "internalType": "address",
          "name": "approved",
          "type": "address"
        },
        {
          "indexed": true,
          "internalType": "uint256",
          "name": "tokenId",
          "type": "uint256"
        }
      ],
      "name": "Approval",
      "type": "event"
    },
    {
      "anonymous": false,
      "inputs": [
        {
          "indexed": true,
          "internalType": "address",
          "name": "owner",
          "type": "address"
        },
        {
          "indexed": true,
          "internalType": "address",
          "name": "operator",
          "type": "address"
        },
        {
          "indexed": false,
          "internalType": "bool",
          "name": "approved",
          "type": "bool"
        }
      ],
      "name": "ApprovalForAll",
      "type": "event"
    },
    {
      "anonymous": false,
      "inputs": [
        {
          "indexed": false,
          "internalType": "address",
          "name": "recipient",
          "type": "address"
        },
        {
          "indexed": false,
          "internalType": "uint16",
          "name": "bps",
          "type": "uint16"
        }
      ],
      "name": "DefaultRoyaltySet",
      "type": "event"
    },
    {
      "anonymous": false,
      "inputs": [
        {
          "indexed": false,
          "internalType": "uint8",
          "name": "version",
          "type": "uint8"
        }
      ],
      "name": "Initialized",
      "type": "event"
    },
    {
      "anonymous": false,
      "inputs": [
        {
          "indexed": true,
          "internalType": "address",
          "name": "previousOwner",
          "type": "address"
        },
        {
          "indexed": true,
          "internalType": "address",
          "name": "newOwner",
          "type": "address"
        }
      ],
      "name": "OwnershipTransferred",
      "type": "event"
    },
    {
      "anonymous": false,
      "inputs": [
        {
          "indexed": true,
          "internalType": "bytes32",
          "name": "role",
          "type": "bytes32"
        },
        {
          "indexed": true,
          "internalType": "bytes32",
          "name": "previousAdminRole",
          "type": "bytes32"
        },
        {
          "indexed": true,
          "internalType": "bytes32",
          "name": "newAdminRole",
          "type": "bytes32"
        }
      ],
      "name": "RoleAdminChanged",
      "type": "event"
    },
    {
      "anonymous": false,
      "inputs": [
        {
          "indexed": true,
          "internalType": "bytes32",
          "name": "role",
          "type": "bytes32"
        },
        {
          "indexed": true,
          "internalType": "address",
          "name": "account",
          "type": "address"
        },
        {
          "indexed": true,
          "internalType": "address",
          "name": "sender",
          "type": "address"
        }
      ],
      "name": "RoleGranted",
      "type": "event"
    },
    {
      "anonymous": false,
      "inputs": [
        {
          "indexed": true,
          "internalType": "bytes32",
          "name": "role",
          "type": "bytes32"
        },
        {
          "indexed": true,
          "internalType": "address",
          "name": "account",
          "type": "address"
        },
        {
          "indexed": true,
          "internalType": "address",
          "name": "sender",
          "type": "address"
        }
      ],
      "name": "RoleRevoked",
      "type": "event"
    },
    {
      "anonymous": false,
      "inputs": [
        {
          "indexed": false,
          "internalType": "uint256",
          "name": "tokenId",
          "type": "uint256"
        }
      ],
      "name": "TokenRoyaltyRemoved",
      "type": "event"
    },
    {
      "anonymous": false,
      "inputs": [
        {
          "indexed": false,
          "internalType": "uint256",
          "name": "tokenId",
          "type": "uint256"
        },
        {
          "indexed": false,
          "internalType": "address",
          "name": "recipient",
          "type": "address"
        },
        {
          "indexed": false,
          "internalType": "uint16",
          "name": "bps",
          "type": "uint16"
        }
      ],
      "name": "TokenRoyaltySet",
      "type": "event"
    },
    {
      "anonymous": false,
      "inputs": [
        {
          "indexed": true,
          "internalType": "address",
          "name": "from",
          "type": "address"
        },
        {
          "indexed": true,
          "internalType": "address",
          "name": "to",
          "type": "address"
        },
        {
          "indexed": true,
          "internalType": "uint256",
          "name": "tokenId",
          "type": "uint256"
        }
      ],
      "name": "Transfer",
      "type": "event"
    },
    {
      "inputs": [],
      "name": "DEFAULT_ADMIN_ROLE",
      "outputs": [
        {
          "internalType": "bytes32",
          "name": "",
          "type": "bytes32"
        }
      ],
      "stateMutability": "view",
      "type": "function"
    },
    {
      "inputs": [],
      "name": "MINTER_ROLE",
      "outputs": [
        {
          "internalType": "bytes32",
          "name": "",
          "type": "bytes32"
        }
      ],
      "stateMutability": "view",
      "type": "function"
    },
    {
      "inputs": [],
      "name": "_trustedForwarder",
      "outputs": [
        {
          "internalType": "address",
          "name": "",
          "type": "address"
        }
      ],
      "stateMutability": "view",
      "type": "function"
    },
    {
      "inputs": [
        {
          "internalType": "address",
          "name": "to",
          "type": "address"
        },
        {
          "internalType": "uint256",
          "name": "tokenId",
          "type": "uint256"
        }
      ],
      "name": "approve",
      "outputs": [],
      "stateMutability": "nonpayable",
      "type": "function"
    },
    {
      "inputs": [
        {
          "internalType": "address",
          "name": "owner",
          "type": "address"
        }
      ],
      "name": "balanceOf",
      "outputs": [
        {
          "internalType": "uint256",
          "name": "",
          "type": "uint256"
        }
      ],
      "stateMutability": "view",
      "type": "function"
    },
    {
      "inputs": [],
      "name": "contractURI",
      "outputs": [
        {
          "internalType": "string",
          "name": "",
          "type": "string"
        }
      ],
      "stateMutability": "view",
      "type": "function"
    },
    {
      "inputs": [],
      "name": "defaultRoyalty",
      "outputs": [
        {
          "internalType": "address",
          "name": "recipient",
          "type": "address"
        },
        {
          "internalType": "uint16",
          "name": "bps",
          "type": "uint16"
        }
      ],
      "stateMutability": "view",
      "type": "function"
    },
    {
      "inputs": [],
      "name": "freezeMaxSupply",
      "outputs": [],
      "stateMutability": "nonpayable",
      "type": "function"
    },
    {
      "inputs": [
        {
          "internalType": "uint256",
          "name": "_lastFrozenTokenId",
          "type": "uint256"
        }
      ],
      "name": "freezeTokenURIs",
      "outputs": [],
      "stateMutability": "nonpayable",
      "type": "function"
    },
    {
      "inputs": [
        {
          "internalType": "uint256",
          "name": "tokenId",
          "type": "uint256"
        }
      ],
      "name": "getApproved",
      "outputs": [
        {
          "internalType": "address",
          "name": "",
          "type": "address"
        }
      ],
      "stateMutability": "view",
      "type": "function"
    },
    {
      "inputs": [],
      "name": "getInfo",
      "outputs": [
        {
          "internalType": "uint256",
          "name": "_maxSupply",
          "type": "uint256"
        },
        {
          "internalType": "uint256",
          "name": "_totalSupply",
          "type": "uint256"
        },
        {
          "internalType": "uint256",
          "name": "_senderBalance",
          "type": "uint256"
        }
      ],
      "stateMutability": "view",
      "type": "function"
    },
    {
      "inputs": [
        {
          "internalType": "uint256",
          "name": "id",
          "type": "uint256"
        }
      ],
      "name": "getRaribleV2Royalties",
      "outputs": [
        {
          "components": [
            {
              "internalType": "address payable",
              "name": "account",
              "type": "address"
            },
            {
              "internalType": "uint96",
              "name": "value",
              "type": "uint96"
            }
          ],
          "internalType": "struct LibPart.Part[]",
          "name": "result",
          "type": "tuple[]"
        }
      ],
      "stateMutability": "view",
      "type": "function"
    },
    {
      "inputs": [
        {
          "internalType": "bytes32",
          "name": "role",
          "type": "bytes32"
        }
      ],
      "name": "getRoleAdmin",
      "outputs": [
        {
          "internalType": "bytes32",
          "name": "",
          "type": "bytes32"
        }
      ],
      "stateMutability": "view",
      "type": "function"
    },
    {
      "inputs": [],
      "name": "getTokenRoyaltiesCount",
      "outputs": [
        {
          "internalType": "uint256",
          "name": "",
          "type": "uint256"
        }
      ],
      "stateMutability": "view",
      "type": "function"
    },
    {
      "inputs": [
        {
          "internalType": "uint256",
          "name": "index",
          "type": "uint256"
        }
      ],
      "name": "getTokenRoyaltyByIndex",
      "outputs": [
        {
          "components": [
            {
              "internalType": "uint256",
              "name": "tokenId",
              "type": "uint256"
            },
            {
              "internalType": "address",
              "name": "recipient",
              "type": "address"
            },
            {
              "internalType": "uint16",
              "name": "bps",
              "type": "uint16"
            }
          ],
          "internalType": "struct IEIP2981RoyaltyOverride.TokenRoyaltyConfig",
          "name": "",
          "type": "tuple"
        }
      ],
      "stateMutability": "view",
      "type": "function"
    },
    {
      "inputs": [
        {
          "internalType": "bytes32",
          "name": "role",
          "type": "bytes32"
        },
        {
          "internalType": "address",
          "name": "account",
          "type": "address"
        }
      ],
      "name": "grantRole",
      "outputs": [],
      "stateMutability": "nonpayable",
      "type": "function"
    },
    {
      "inputs": [
        {
          "internalType": "bytes32",
          "name": "role",
          "type": "bytes32"
        },
        {
          "internalType": "address",
          "name": "account",
          "type": "address"
        }
      ],
      "name": "hasRole",
      "outputs": [
        {
          "internalType": "bool",
          "name": "",
          "type": "bool"
        }
      ],
      "stateMutability": "view",
      "type": "function"
    },
    {
      "inputs": [
        {
          "components": [
            {
              "internalType": "string",
              "name": "name",
              "type": "string"
            },
            {
              "internalType": "string",
              "name": "symbol",
              "type": "string"
            },
            {
              "internalType": "string",
              "name": "contractURI",
              "type": "string"
            },
            {
              "internalType": "uint256",
              "name": "maxSupply",
              "type": "uint256"
            },
            {
              "internalType": "address",
              "name": "defaultRoyaltyAddress",
              "type": "address"
            },
            {
              "internalType": "uint16",
              "name": "defaultRoyaltyBps",
              "type": "uint16"
            },
            {
              "internalType": "address",
              "name": "trustedForwarder",
              "type": "address"
            }
          ],
          "internalType": "struct ERC721OneOfOneCollection.Config",
          "name": "config",
          "type": "tuple"
        },
        {
          "internalType": "address",
          "name": "deployer",
          "type": "address"
        }
      ],
      "name": "initialize",
      "outputs": [],
      "stateMutability": "nonpayable",
      "type": "function"
    },
    {
      "inputs": [
        {
          "internalType": "address",
          "name": "owner",
          "type": "address"
        },
        {
          "internalType": "address",
          "name": "operator",
          "type": "address"
        }
      ],
      "name": "isApprovedForAll",
      "outputs": [
        {
          "internalType": "bool",
          "name": "",
          "type": "bool"
        }
      ],
      "stateMutability": "view",
      "type": "function"
    },
    {
      "inputs": [
        {
          "internalType": "address",
          "name": "forwarder",
          "type": "address"
        }
      ],
      "name": "isTrustedForwarder",
      "outputs": [
        {
          "internalType": "bool",
          "name": "",
          "type": "bool"
        }
      ],
      "stateMutability": "view",
      "type": "function"
    },
    {
      "inputs": [],
      "name": "lastFrozenTokenId",
      "outputs": [
        {
          "internalType": "uint256",
          "name": "",
          "type": "uint256"
        }
      ],
      "stateMutability": "view",
      "type": "function"
    },
    {
      "inputs": [],
      "name": "maxSupply",
      "outputs": [
        {
          "internalType": "uint256",
          "name": "",
          "type": "uint256"
        }
      ],
      "stateMutability": "view",
      "type": "function"
    },
    {
      "inputs": [],
      "name": "maxSupplyFrozen",
      "outputs": [
        {
          "internalType": "bool",
          "name": "",
          "type": "bool"
        }
      ],
      "stateMutability": "view",
      "type": "function"
    },
    {
      "inputs": [
        {
          "internalType": "address",
          "name": "to",
          "type": "address"
        },
        {
          "internalType": "uint256",
          "name": "count",
          "type": "uint256"
        }
      ],
      "name": "mintByOwner",
      "outputs": [],
      "stateMutability": "nonpayable",
      "type": "function"
    },
    {
      "inputs": [
        {
          "internalType": "address",
          "name": "to",
          "type": "address"
        },
        {
          "internalType": "uint256",
          "name": "count",
          "type": "uint256"
        },
        {
          "internalType": "string[]",
          "name": "tokenURIs",
          "type": "string[]"
        }
      ],
      "name": "mintWithTokenURIsByOwner",
      "outputs": [],
      "stateMutability": "nonpayable",
      "type": "function"
    },
    {
      "inputs": [
        {
          "internalType": "address",
          "name": "to",
          "type": "address"
        },
        {
          "internalType": "uint256",
          "name": "count",
          "type": "uint256"
        },
        {
          "internalType": "string[]",
          "name": "tokenURIs",
          "type": "string[]"
        }
      ],
      "name": "mintWithTokenURIsByRole",
      "outputs": [],
      "stateMutability": "nonpayable",
      "type": "function"
    },
    {
      "inputs": [],
      "name": "name",
      "outputs": [
        {
          "internalType": "string",
          "name": "",
          "type": "string"
        }
      ],
      "stateMutability": "view",
      "type": "function"
    },
    {
      "inputs": [],
      "name": "owner",
      "outputs": [
        {
          "internalType": "address",
          "name": "",
          "type": "address"
        }
      ],
      "stateMutability": "view",
      "type": "function"
    },
    {
      "inputs": [
        {
          "internalType": "uint256",
          "name": "tokenId",
          "type": "uint256"
        }
      ],
      "name": "ownerOf",
      "outputs": [
        {
          "internalType": "address",
          "name": "",
          "type": "address"
        }
      ],
      "stateMutability": "view",
      "type": "function"
    },
    {
      "inputs": [],
      "name": "renounceOwnership",
      "outputs": [],
      "stateMutability": "nonpayable",
      "type": "function"
    },
    {
      "inputs": [
        {
          "internalType": "bytes32",
          "name": "role",
          "type": "bytes32"
        },
        {
          "internalType": "address",
          "name": "account",
          "type": "address"
        }
      ],
      "name": "renounceRole",
      "outputs": [],
      "stateMutability": "nonpayable",
      "type": "function"
    },
    {
      "inputs": [
        {
          "internalType": "bytes32",
          "name": "role",
          "type": "bytes32"
        },
        {
          "internalType": "address",
          "name": "account",
          "type": "address"
        }
      ],
      "name": "revokeRole",
      "outputs": [],
      "stateMutability": "nonpayable",
      "type": "function"
    },
    {
      "inputs": [
        {
          "internalType": "uint256",
          "name": "tokenId",
          "type": "uint256"
        },
        {
          "internalType": "uint256",
          "name": "value",
          "type": "uint256"
        }
      ],
      "name": "royaltyInfo",
      "outputs": [
        {
          "internalType": "address",
          "name": "",
          "type": "address"
        },
        {
          "internalType": "uint256",
          "name": "",
          "type": "uint256"
        }
      ],
      "stateMutability": "view",
      "type": "function"
    },
    {
      "inputs": [
        {
          "internalType": "address",
          "name": "from",
          "type": "address"
        },
        {
          "internalType": "address",
          "name": "to",
          "type": "address"
        },
        {
          "internalType": "uint256",
          "name": "tokenId",
          "type": "uint256"
        }
      ],
      "name": "safeTransferFrom",
      "outputs": [],
      "stateMutability": "nonpayable",
      "type": "function"
    },
    {
      "inputs": [
        {
          "internalType": "address",
          "name": "from",
          "type": "address"
        },
        {
          "internalType": "address",
          "name": "to",
          "type": "address"
        },
        {
          "internalType": "uint256",
          "name": "tokenId",
          "type": "uint256"
        },
        {
          "internalType": "bytes",
          "name": "data",
          "type": "bytes"
        }
      ],
      "name": "safeTransferFrom",
      "outputs": [],
      "stateMutability": "nonpayable",
      "type": "function"
    },
    {
      "inputs": [
        {
          "internalType": "address",
          "name": "operator",
          "type": "address"
        },
        {
          "internalType": "bool",
          "name": "approved",
          "type": "bool"
        }
      ],
      "name": "setApprovalForAll",
      "outputs": [],
      "stateMutability": "nonpayable",
      "type": "function"
    },
    {
      "inputs": [
        {
          "internalType": "string",
          "name": "newValue",
          "type": "string"
        }
      ],
      "name": "setContractURI",
      "outputs": [],
      "stateMutability": "nonpayable",
      "type": "function"
    },
    {
      "inputs": [
        {
          "components": [
            {
              "internalType": "address",
              "name": "recipient",
              "type": "address"
            },
            {
              "internalType": "uint16",
              "name": "bps",
              "type": "uint16"
            }
          ],
          "internalType": "struct IEIP2981RoyaltyOverride.TokenRoyalty",
          "name": "royalty",
          "type": "tuple"
        }
      ],
      "name": "setDefaultRoyalty",
      "outputs": [],
      "stateMutability": "nonpayable",
      "type": "function"
    },
    {
      "inputs": [
        {
          "internalType": "uint256",
          "name": "newValue",
          "type": "uint256"
        }
      ],
      "name": "setMaxSupply",
      "outputs": [],
      "stateMutability": "nonpayable",
      "type": "function"
    },
    {
      "inputs": [
        {
          "components": [
            {
              "internalType": "uint256",
              "name": "tokenId",
              "type": "uint256"
            },
            {
              "internalType": "address",
              "name": "recipient",
              "type": "address"
            },
            {
              "internalType": "uint16",
              "name": "bps",
              "type": "uint16"
            }
          ],
          "internalType": "struct IEIP2981RoyaltyOverride.TokenRoyaltyConfig[]",
          "name": "royaltyConfigs",
          "type": "tuple[]"
        }
      ],
      "name": "setTokenRoyalties",
      "outputs": [],
      "stateMutability": "nonpayable",
      "type": "function"
    },
    {
      "inputs": [
        {
          "internalType": "uint256",
          "name": "tokenId",
          "type": "uint256"
        },
        {
          "internalType": "string",
          "name": "tokenURI",
          "type": "string"
        }
      ],
      "name": "setTokenURI",
      "outputs": [],
      "stateMutability": "nonpayable",
      "type": "function"
    },
    {
      "inputs": [
        {
          "internalType": "address",
          "name": "trustedForwarder",
          "type": "address"
        }
      ],
      "name": "setTrustedForwarder",
      "outputs": [],
      "stateMutability": "nonpayable",
      "type": "function"
    },
    {
      "inputs": [
        {
          "internalType": "bytes4",
          "name": "interfaceId",
          "type": "bytes4"
        }
      ],
      "name": "supportsInterface",
      "outputs": [
        {
          "internalType": "bool",
          "name": "",
          "type": "bool"
        }
      ],
      "stateMutability": "view",
      "type": "function"
    },
    {
      "inputs": [],
      "name": "symbol",
      "outputs": [
        {
          "internalType": "string",
          "name": "",
          "type": "string"
        }
      ],
      "stateMutability": "view",
      "type": "function"
    },
    {
      "inputs": [
        {
          "internalType": "uint256",
          "name": "_tokenId",
          "type": "uint256"
        }
      ],
      "name": "tokenURI",
      "outputs": [
        {
          "internalType": "string",
          "name": "",
          "type": "string"
        }
      ],
      "stateMutability": "view",
      "type": "function"
    },
    {
      "inputs": [],
      "name": "totalSupply",
      "outputs": [
        {
          "internalType": "uint256",
          "name": "",
          "type": "uint256"
        }
      ],
      "stateMutability": "view",
      "type": "function"
    },
    {
      "inputs": [
        {
          "internalType": "address",
          "name": "from",
          "type": "address"
        },
        {
          "internalType": "address",
          "name": "to",
          "type": "address"
        },
        {
          "internalType": "uint256",
          "name": "tokenId",
          "type": "uint256"
        }
      ],
      "name": "transferFrom",
      "outputs": [],
      "stateMutability": "nonpayable",
      "type": "function"
    },
    {
      "inputs": [
        {
          "internalType": "address",
          "name": "newOwner",
          "type": "address"
        }
      ],
      "name": "transferOwnership",
      "outputs": [],
      "stateMutability": "nonpayable",
      "type": "function"
    }
  ],
  "transactionHash": "0xd3a9254280c0b5a077c02505534fc457f612e633441e6c4801a08766a190e639",
  "args": [
    {
      "name": "Collection",
      "symbol": "COL",
      "contractURI": "ipfs://contractURI",
      "maxSupply": 0,
      "defaultRoyaltyAddress": "0x0000000000000000000000000000000000000000",
      "defaultRoyaltyBps": 0,
      "trustedForwarder": "0x0000000000000000000000000000000000000000"
    }
  ],
  "numDeployments": 9,
  "solcInputHash": "7e8d96f5b19322abdd3676f90e4578c3",
  "bytecode": "0x60806040526000600e553480156200001657600080fd5b506040516200431838038062004318833981016040819052620000399162000a74565b80516020820151620000546200004e6200008d565b620000a9565b600362000062838262000c07565b50600462000071828262000c07565b5050506200008681336200010460201b60201c565b5062000d1e565b6000620000a4620002e360201b620012f81760201c565b905090565b600080546001600160a01b038381166201000081810262010000600160b01b0319851617855560405193049190911692909183917f8be0079c531659141344cd1fd0a4f28419497f9722a3daafe3b4186f6b6457e091a35050565b600054610100900460ff1615808015620001255750600054600160ff909116105b8062000155575062000142306200031b60201b6200131a1760201c565b15801562000155575060005460ff166001145b620001be5760405162461bcd60e51b815260206004820152602e60248201527f496e697469616c697a61626c653a20636f6e747261637420697320616c72656160448201526d191e481a5b9a5d1a585b1a5e995960921b60648201526084015b60405180910390fd5b6000805460ff191660011790558015620001e2576000805461ff0019166101001790555b620001ef6000836200032a565b6200021b7f9f2df0fed2c77648de5860a4cc508cd0818c85b8b8a1ab4ceeef8d981c8956a6836200032a565b6200022682620000a9565b8251602084015160408501516200023f9291906200033a565b6200024962000371565b62000253620003a7565b6200025d620003db565b60608301516200026d906200040f565b6200028783608001518460a001516200044760201b60201c565b60c083015162000297906200047d565b8015620002de576000805461ff0019169055604051600181527f7f26b83ff96e1f2b6a682f133852f6798a09c465da95921460cefb38474024989060200160405180910390a15b505050565b6015546000906001600160a01b0316330362000306575060131936013560601c90565b620000a4620004b260201b620013291760201c565b6001600160a01b03163b151590565b620003368282620004b6565b5050565b600054610100900460ff16620003645760405162461bcd60e51b8152600401620001b59062000cd3565b620002de8383836200055c565b600054610100900460ff166200039b5760405162461bcd60e51b8152600401620001b59062000cd3565b620003a5620005e9565b565b600054610100900460ff16620003d15760405162461bcd60e51b8152600401620001b59062000cd3565b620003a562000625565b600054610100900460ff16620004055760405162461bcd60e51b8152600401620001b59062000cd3565b620003a562000661565b600054610100900460ff16620004395760405162461bcd60e51b8152600401620001b59062000cd3565b62000444816200069d565b50565b600054610100900460ff16620004715760405162461bcd60e51b8152600401620001b59062000cd3565b620003368282620006f0565b600054610100900460ff16620004a75760405162461bcd60e51b8152600401620001b59062000cd3565b62000444816200078d565b3390565b60008281526002602090815260408083206001600160a01b038516845290915290205460ff16620003365760008281526002602090815260408083206001600160a01b03851684529091529020805460ff19166001179055620005186200008d565b6001600160a01b0316816001600160a01b0316837f2f8788117e7eff1d82e926ec794901d17c78024a50270940304540a733656f0d60405160405180910390a45050565b600054610100900460ff16620005865760405162461bcd60e51b8152600401620001b59062000cd3565b600962000594848262000c07565b50600a620005a3838262000c07565b50600b620005b2828262000c07565b50620005c5633d96f4ff60e11b620007d9565b620005d76380ac58cd60e01b620007d9565b620002de635b5e139f60e01b620007d9565b600054610100900460ff16620006135760405162461bcd60e51b8152600401620001b59062000cd3565b620003a5632929b36760e11b620007d9565b600054610100900460ff166200064f5760405162461bcd60e51b8152600401620001b59062000cd3565b620003a5631aa1577160e11b620007d9565b600054610100900460ff166200068b5760405162461bcd60e51b8152600401620001b59062000cd3565b620003a5630d169dbf60e31b620007d9565b600054610100900460ff16620006c75760405162461bcd60e51b8152600401620001b59062000cd3565b600c819055620006de6330f487b560e11b620007d9565b620004446380ac58cd60e01b620007d9565b600054610100900460ff166200071a5760405162461bcd60e51b8152600401620001b59062000cd3565b6200072c633a47bf5160e11b620007d9565b6200073e63152a902d60e11b620007d9565b6200075063c69dbd8f60e01b620007d9565b6200076263656cb66560e11b620007d9565b604080518082019091526001600160a01b038316815261ffff82166020820152620002de816200085d565b600054610100900460ff16620007b75760405162461bcd60e51b8152600401620001b59062000cd3565b601580546001600160a01b0319166001600160a01b0392909216919091179055565b6001600160e01b03198082169003620008355760405162461bcd60e51b815260206004820152601c60248201527f4552433136353a20696e76616c696420696e74657266616365206964000000006044820152606401620001b5565b6001600160e01b0319166000908152600160208190526040909120805460ff19169091179055565b612710816020015161ffff1610620008a65760405162461bcd60e51b815260206004820152600b60248201526a496e76616c69642062707360a81b6044820152606401620001b5565b60408051808201825282516001600160a01b03168082526020808501805161ffff169190930181905260118054600160a01b9092026001600160b01b03199092169092171790558251905191517f2c5ea6e4103e78cb101e796fb2dace540362fc542cbff5145eaa24af7dd8fe41926200093892916001600160a01b0392909216825261ffff16602082015260400190565b60405180910390a150565b634e487b7160e01b600052604160045260246000fd5b60405160e081016001600160401b03811182821017156200097e576200097e62000943565b60405290565b604051601f8201601f191681016001600160401b0381118282101715620009af57620009af62000943565b604052919050565b600082601f830112620009c957600080fd5b81516001600160401b03811115620009e557620009e562000943565b6020620009fb601f8301601f1916820162000984565b828152858284870101111562000a1057600080fd5b60005b8381101562000a3057858101830151828201840152820162000a13565b506000928101909101919091529392505050565b80516001600160a01b038116811462000a5c57600080fd5b919050565b805161ffff8116811462000a5c57600080fd5b60006020828403121562000a8757600080fd5b81516001600160401b038082111562000a9f57600080fd5b9083019060e0828603121562000ab457600080fd5b62000abe62000959565b82518281111562000ace57600080fd5b62000adc87828601620009b7565b82525060208301518281111562000af257600080fd5b62000b0087828601620009b7565b60208301525060408301518281111562000b1957600080fd5b62000b2787828601620009b7565b6040830152506060830151606082015262000b456080840162000a44565b608082015262000b5860a0840162000a61565b60a082015262000b6b60c0840162000a44565b60c082015295945050505050565b600181811c9082168062000b8e57607f821691505b60208210810362000baf57634e487b7160e01b600052602260045260246000fd5b50919050565b601f821115620002de57600081815260208120601f850160051c8101602086101562000bde5750805b601f850160051c820191505b8181101562000bff5782815560010162000bea565b505050505050565b81516001600160401b0381111562000c235762000c2362000943565b62000c3b8162000c34845462000b79565b8462000bb5565b602080601f83116001811462000c73576000841562000c5a5750858301515b600019600386901b1c1916600185901b17855562000bff565b600085815260208120601f198616915b8281101562000ca45788860151825594840194600190910190840162000c83565b508582101562000cc35787850151600019600388901b60f8161c191681555b5050505050600190811b01905550565b6020808252602b908201527f496e697469616c697a61626c653a20636f6e7472616374206973206e6f74206960408201526a6e697469616c697a696e6760a81b606082015260800190565b6135ea8062000d2e6000396000f3fe608060405234801561001057600080fd5b50600436106102405760003560e01c806370a082311161013757806370a0823114610485578063715018a6146104985780637885fdc7146104a05780637e980342146104ce5780638da5cb5b146104d65780638e28cf98146104de57806391d14854146104f1578063938e3d7b1461050457806395d89b4114610517578063a217fddf1461051f578063a22cb46514610527578063b88d4fde1461053a578063b89df8e81461054d578063c87b56dd14610556578063cad96cca14610569578063d539139314610589578063d547741f1461059e578063d5abeb01146105b1578063da742228146105ba578063e8a3d485146105cd578063e985e9c5146105d5578063ef60ceaf146105e8578063f2fde38b146105fb578063f384702f1461060e57600080fd5b806301ffc9a7146102455780630653aca51461026d57806306fdde03146102af578063081812fc146102c4578063095ea7b3146102e4578063162094c4146102f9578063167446071461030c57806318160ddd1461031457806323b872dd14610326578063248a9ca3146103395780632a55205a1461034c5780632ee774bd1461037e5780632f2ff15d146103915780633542aee2146103a457806336568abe146103b757806342842e0e146103ca5780634473f20a146103dd5780635136dcc7146103f057806353166de21461040357806356c022bb14610416578063572b6c05146104295780635a9b0b891461043c5780636352211e1461045f5780636f8b44b014610472575b600080fd5b610258610253366004612961565b61061b565b60405190151581526020015b60405180910390f35b61028061027b36600461297e565b61062c565b60408051825181526020808401516001600160a01b0316908201529181015161ffff1690820152606001610264565b6102b76106b1565b60405161026491906129e7565b6102d76102d236600461297e565b6106c0565b60405161026491906129fa565b6102f76102f2366004612a2a565b6106e7565b005b6102f7610307366004612b39565b610813565b6102f761084a565b600e545b604051908152602001610264565b6102f7610334366004612b7f565b610861565b61031861034736600461297e565b610899565b61035f61035a366004612bbb565b6108ae565b604080516001600160a01b039093168352602083019190915201610264565b6102f761038c366004612bdd565b610973565b6102f761039f366004612cbb565b6109d8565b6102f76103b2366004612a2a565b6109f4565b6102f76103c5366004612cbb565b610a06565b6102f76103d8366004612b7f565b610a90565b6102f76103eb36600461297e565b610aab565b6102f76103fe366004612ce7565b610afb565b6102f7610411366004612d6d565b610b5e565b6015546102d7906001600160a01b031681565b610258610437366004612e67565b610cf6565b610444610d0a565b60408051938452602084019290925290820152606001610264565b6102d761046d36600461297e565b610e05565b6102f761048036600461297e565b610e3a565b610318610493366004612e67565b610eb0565b6102f7610f36565b6011546104c0906001600160a01b03811690600160a01b900461ffff1682565b604051610264929190612e82565b610318610f4a565b6102d7610f56565b6102f76104ec366004612bdd565b610f6b565b6102586104ff366004612cbb565b610ffa565b6102f7610512366004612e9f565b611025565b6102b7611039565b610318600081565b6102f7610535366004612ed3565b611043565b6102f7610548366004612f0f565b611055565b61031860105481565b6102b761056436600461297e565b611094565b61057c61057736600461297e565b61109f565b6040516102649190612f8a565b61031860008051602061359583398151915281565b6102f76105ac366004612cbb565b61115a565b610318600c5481565b6102f76105c8366004612e67565b611176565b6102b76111a0565b6102586105e3366004612feb565b611232565b6102f76105f6366004613015565b611260565b6102f7610609366004612e67565b611282565b600d546102589060ff1681565b60006106268261132d565b92915050565b6040805160608101825260008082526020820181905291810182905290610654601384611369565b6000818152601260209081526040918290208251808401845290546001600160a01b03808216835261ffff600160a01b90920482168385019081528551606081018752968752925116928501929092525116908201529392505050565b60606106bb61137c565b905090565b60006106cb8261138b565b506000908152600760205260409020546001600160a01b031690565b60006106f282610e05565b9050806001600160a01b0316836001600160a01b0316036107645760405162461bcd60e51b815260206004820152602160248201527f4552433732313a20617070726f76616c20746f2063757272656e74206f776e656044820152603960f91b60648201526084015b60405180910390fd5b806001600160a01b03166107766113b0565b6001600160a01b031614806107925750610792816105e36113b0565b6108045760405162461bcd60e51b815260206004820152603e60248201527f4552433732313a20617070726f76652063616c6c6572206973206e6f7420746f60448201527f6b656e206f776e6572206e6f7220617070726f76656420666f7220616c6c0000606482015260840161075b565b61080e83836113ba565b505050565b61081b611428565b601054821161083c5760405162461bcd60e51b815260040161075b9061302d565b6108468282611497565b5050565b610852611428565b600d805460ff19166001179055565b61087261086c6113b0565b8261151b565b61088e5760405162461bcd60e51b815260040161075b9061304d565b61080e83838361157a565b60009081526002602052604090206001015490565b60008281526012602052604081205481906001600160a01b031615610913576000848152601260205260409020546001600160a01b038116906127109061090090600160a01b900461ffff16866130b1565b61090a91906130e6565b9150915061096c565b6011546001600160a01b0316158015906109395750601154600160a01b900461ffff1615155b15610965576011546001600160a01b038116906127109061090090600160a01b900461ffff16866130b1565b5060009050805b9250929050565b61097b611428565b600e546109888484611716565b60005b838110156109d1576109bf6109a082846130fa565b8483815181106109b2576109b261310d565b6020026020010151611497565b806109c981613123565b91505061098b565b5050505050565b6109e182610899565b6109ea8161179f565b61080e83836117b0565b6109fc611428565b6108468282611716565b610a0e6113b0565b6001600160a01b0316816001600160a01b031614610a865760405162461bcd60e51b815260206004820152602f60248201527f416363657373436f6e74726f6c3a2063616e206f6e6c792072656e6f756e636560448201526e103937b632b9903337b91039b2b63360891b606482015260840161075b565b6108468282611837565b61080e83838360405180602001604052806000815250611055565b610ab3611428565b6010548111610af65760405162461bcd60e51b815260206004820152600f60248201526e43414e4e4f545f554e465245455a4560881b604482015260640161075b565b601055565b610b03611428565b6108468282808060200260200160405190810160405280939291908181526020016000905b82821015610b5457610b456060830286013681900381019061313c565b81526020019060010190610b28565b50505050506118bc565b600054610100900460ff1615808015610b7e5750600054600160ff909116105b80610b9f5750610b8d3061131a565b158015610b9f575060005460ff166001145b610c025760405162461bcd60e51b815260206004820152602e60248201527f496e697469616c697a61626c653a20636f6e747261637420697320616c72656160448201526d191e481a5b9a5d1a585b1a5e995960921b606482015260840161075b565b6000805460ff191660011790558015610c25576000805461ff0019166101001790555b610c30600083611a63565b610c4860008051602061359583398151915283611a63565b610c5182611a6d565b610c68836000015184602001518560400151611ac8565b610c70611afa565b610c78611b29565b610c80611b58565b610c8d8360600151611b87565b610c9f83608001518460a00151611bb7565b610cac8360c00151611be8565b801561080e576000805461ff0019169055604051600181527f7f26b83ff96e1f2b6a682f133852f6798a09c465da95921460cefb38474024989060200160405180910390a1505050565b6015546001600160a01b0391821691161490565b600080808080610d186113b0565b6001600160a01b031614610d9457306370a08231610d346113b0565b6040518263ffffffff1660e01b8152600401610d5091906129fa565b602060405180830381865afa158015610d6d573d6000803e3d6000fd5b505050506040513d601f19601f82011682018060405250810190610d9191906131a0565b90505b600c54306001600160a01b03166318160ddd6040518163ffffffff1660e01b8152600401602060405180830381865afa158015610dd5573d6000803e3d6000fd5b505050506040513d601f19601f82011682018060405250810190610df991906131a0565b90959094509092509050565b6000818152600560205260408120546001600160a01b0316806106265760405162461bcd60e51b815260040161075b906131b9565b610e42611428565b600d5460ff1615610e655760405162461bcd60e51b815260040161075b9061302d565b600e54811015610eab5760405162461bcd60e51b81526020600482015260116024820152704c4f5745525f5448414e5f535550504c5960781b604482015260640161075b565b600c55565b60006001600160a01b038216610f1a5760405162461bcd60e51b815260206004820152602960248201527f4552433732313a2061646472657373207a65726f206973206e6f7420612076616044820152683634b21037bbb732b960b91b606482015260840161075b565b506001600160a01b031660009081526006602052604090205490565b610f3e611428565b610f486000611a6d565b565b60006106bb6013611c18565b6000546201000090046001600160a01b031690565b610f856000805160206135958339815191526104ff6113b0565b610fc35760405162461bcd60e51b815260206004820152600f60248201526e4e4f545f4d494e5445525f524f4c4560881b604482015260640161075b565b600e54610fd08484611716565b60005b838110156109d157610fe86109a082846130fa565b80610ff281613123565b915050610fd3565b60009182526002602090815260408084206001600160a01b0393909316845291905290205460ff1690565b61102d611428565b600b610846828261326d565b60606106bb611c22565b61084661104e6113b0565b8383611c31565b6110666110606113b0565b8361151b565b6110825760405162461bcd60e51b815260040161075b9061304d565b61108e84848484611cfb565b50505050565b606061062682611d2e565b604080516001808252818301909252606091816020015b60408051808201909152600080825260208201528152602001906001900390816110b657505060115481519192506001600160a01b03169082906000906110ff576110ff61310d565b60209081029190910101516001600160a01b039190911690526011548151600160a01b90910461ffff1690829060009061113b5761113b61310d565b6020908102919091018101516001600160601b03909216910152919050565b61116382610899565b61116c8161179f565b61080e8383611837565b61117e611428565b601580546001600160a01b0319166001600160a01b0392909216919091179055565b6060600b80546111af906131eb565b80601f01602080910402602001604051908101604052809291908181526020018280546111db906131eb565b80156112285780601f106111fd57610100808354040283529160200191611228565b820191906000526020600020905b81548152906001019060200180831161120b57829003601f168201915b5050505050905090565b6001600160a01b03918216600090815260086020908152604080832093909416825291909152205460ff1690565b611268611428565b61127f61127a3683900383018361332c565b611d39565b50565b61128a611428565b6001600160a01b0381166112ef5760405162461bcd60e51b815260206004820152602660248201527f4f776e61626c653a206e6577206f776e657220697320746865207a65726f206160448201526564647265737360d01b606482015260840161075b565b61127f81611a6d565b600061130333610cf6565b15611315575060131936013560601c90565b503390565b6001600160a01b03163b151590565b3390565b60006301ffc9a760e01b6001600160e01b0319831614806106265750506001600160e01b03191660009081526001602052604090205460ff1690565b60006113758383611de4565b9392505050565b6060600980546111af906131eb565b61139481611e0e565b61127f5760405162461bcd60e51b815260040161075b906131b9565b60006106bb6112f8565b600081815260076020526040902080546001600160a01b0319166001600160a01b03841690811790915581906113ef82610e05565b6001600160a01b03167f8c5be1e5ebec7d5bd14f71427d1e84f3dd0314c0f7b2291e5b200ac8c7c3b92560405160405180910390a45050565b6114306113b0565b6001600160a01b0316611441610f56565b6001600160a01b031614610f485760405162461bcd60e51b815260206004820181905260248201527f4f776e61626c653a2063616c6c6572206973206e6f7420746865206f776e6572604482015260640161075b565b6114a082611e0e565b6115035760405162461bcd60e51b815260206004820152602e60248201527f45524337323155524953746f726167653a2055524920736574206f66206e6f6e60448201526d32bc34b9ba32b73a103a37b5b2b760911b606482015260840161075b565b6000828152600f6020526040902061080e828261326d565b60008061152783610e05565b9050806001600160a01b0316846001600160a01b0316148061154e575061154e8185611232565b806115725750836001600160a01b0316611567846106c0565b6001600160a01b0316145b949350505050565b826001600160a01b031661158d82610e05565b6001600160a01b0316146115f15760405162461bcd60e51b815260206004820152602560248201527f4552433732313a207472616e736665722066726f6d20696e636f72726563742060448201526437bbb732b960d91b606482015260840161075b565b6001600160a01b0382166116535760405162461bcd60e51b8152602060048201526024808201527f4552433732313a207472616e7366657220746f20746865207a65726f206164646044820152637265737360e01b606482015260840161075b565b61165e6000826113ba565b6001600160a01b0383166000908152600660205260408120805460019290611687908490613386565b90915550506001600160a01b03821660009081526006602052604081208054600192906116b59084906130fa565b909155505060008181526005602052604080822080546001600160a01b0319166001600160a01b0386811691821790925591518493918716917fddf252ad1be2c89b69c2b068fc378daa952ba7f163c4a11628f55a4df523b3ef91a4505050565b600c5481611723600e5490565b61172d91906130fa565b111561176c5760405162461bcd60e51b815260206004820152600e60248201526d455843454544535f535550504c5960901b604482015260640161075b565b60005b8181101561080e57600e546117848482611e2b565b61178c611e45565b508061179781613123565b91505061176f565b61127f816117ab6113b0565b611e5c565b6117ba8282610ffa565b6108465760008281526002602090815260408083206001600160a01b03851684529091529020805460ff191660011790556117f36113b0565b6001600160a01b0316816001600160a01b0316837f2f8788117e7eff1d82e926ec794901d17c78024a50270940304540a733656f0d60405160405180910390a45050565b6118418282610ffa565b156108465760008281526002602090815260408083206001600160a01b03851684529091529020805460ff191690556118786113b0565b6001600160a01b0316816001600160a01b0316837ff6391f5c32d9c69d2a47ea670b442974b53935d1edc7fd64eb21e047a839171b60405160405180910390a45050565b60005b81518110156108465760008282815181106118dc576118dc61310d565b60200260200101519050612710816040015161ffff161061190f5760405162461bcd60e51b815260040161075b90613399565b60208101516001600160a01b0316611988578051600090815260126020526040902080546001600160b01b0319169055805161194d90601390611ec0565b5080516040519081527fa2870857763bd9ae76c957f869f16b31c18dd3bb4c7b4d3a4496dc5c57c657f99060200160405180910390a1611a50565b6040805180820182526020808401516001600160a01b0390811683528484015161ffff90811683850190815286516000908152601290945294909220925183549451909216600160a01b026001600160b01b031990941691161791909117905580516119f690601390611ecc565b50805160208083015160408085015181519485526001600160a01b039092169284019290925261ffff1682820152517f389b70fb0887f01e83784eb1c4c589f740eca53b00ed0f45e41db5d079719abb9181900360600190a15b5080611a5b81613123565b9150506118bf565b61084682826117b0565b600080546001600160a01b038381166201000081810262010000600160b01b0319851617855560405193049190911692909183917f8be0079c531659141344cd1fd0a4f28419497f9722a3daafe3b4186f6b6457e091a35050565b600054610100900460ff16611aef5760405162461bcd60e51b815260040161075b906133be565b61080e838383611ed8565b600054610100900460ff16611b215760405162461bcd60e51b815260040161075b906133be565b610f48611f56565b600054610100900460ff16611b505760405162461bcd60e51b815260040161075b906133be565b610f48611f8d565b600054610100900460ff16611b7f5760405162461bcd60e51b815260040161075b906133be565b610f48611fc4565b600054610100900460ff16611bae5760405162461bcd60e51b815260040161075b906133be565b61127f81611ffb565b600054610100900460ff16611bde5760405162461bcd60e51b815260040161075b906133be565b6108468282612047565b600054610100900460ff16611c0f5760405162461bcd60e51b815260040161075b906133be565b61127f816120d7565b6000610626825490565b6060600a80546111af906131eb565b816001600160a01b0316836001600160a01b031603611c8e5760405162461bcd60e51b815260206004820152601960248201527822a9219b99189d1030b8383937bb32903a379031b0b63632b960391b604482015260640161075b565b6001600160a01b03838116600081815260086020908152604080832094871680845294825291829020805460ff191686151590811790915591519182527f17307eab39ab6107e8899845ad3d59bd9653f200f220920489ca2b5937696c31910160405180910390a3505050565b611d0684848461157a565b611d12848484846120fe565b61108e5760405162461bcd60e51b815260040161075b90613409565b60606106268261220d565b612710816020015161ffff1610611d625760405162461bcd60e51b815260040161075b90613399565b60408051808201825282516001600160a01b03168082526020808501805161ffff1691909301819052601180546001600160b01b031916909217600160a01b9091021790558251905191517f2c5ea6e4103e78cb101e796fb2dace540362fc542cbff5145eaa24af7dd8fe4192611dd99291612e82565b60405180910390a150565b6000826000018281548110611dfb57611dfb61310d565b9060005260206000200154905092915050565b6000908152600560205260409020546001600160a01b0316151590565b610846828260405180602001604052806000815250612315565b600e8054906000611e5583613123565b9190505550565b611e668282610ffa565b61084657611e7e816001600160a01b03166014612348565b611e89836020612348565b604051602001611e9a92919061345b565b60408051601f198184030181529082905262461bcd60e51b825261075b916004016129e7565b600061137583836124e3565b600061137583836125d6565b600054610100900460ff16611eff5760405162461bcd60e51b815260040161075b906133be565b6009611f0b848261326d565b50600a611f18838261326d565b50600b611f25828261326d565b50611f36633d96f4ff60e11b612625565b611f466380ac58cd60e01b612625565b61080e635b5e139f60e01b612625565b600054610100900460ff16611f7d5760405162461bcd60e51b815260040161075b906133be565b610f48632929b36760e11b612625565b600054610100900460ff16611fb45760405162461bcd60e51b815260040161075b906133be565b610f48631aa1577160e11b612625565b600054610100900460ff16611feb5760405162461bcd60e51b815260040161075b906133be565b610f48630d169dbf60e31b612625565b600054610100900460ff166120225760405162461bcd60e51b815260040161075b906133be565b600c8190556120376330f487b560e11b612625565b61127f6380ac58cd60e01b612625565b600054610100900460ff1661206e5760405162461bcd60e51b815260040161075b906133be565b61207e633a47bf5160e11b612625565b61208e63152a902d60e11b612625565b61209e63c69dbd8f60e01b612625565b6120ae63656cb66560e11b612625565b604080518082019091526001600160a01b038316815261ffff8216602082015261080e81611d39565b600054610100900460ff1661117e5760405162461bcd60e51b815260040161075b906133be565b6000612112846001600160a01b031661131a565b1561220257836001600160a01b031663150b7a0261212e6113b0565b8786866040518563ffffffff1660e01b815260040161215094939291906134ca565b6020604051808303816000875af192505050801561218b575060408051601f3d908101601f1916820190925261218891810190613507565b60015b6121e8573d8080156121b9576040519150601f19603f3d011682016040523d82523d6000602084013e6121be565b606091505b5080516000036121e05760405162461bcd60e51b815260040161075b90613409565b805181602001fd5b6001600160e01b031916630a85bd0160e11b149050611572565b506001949350505050565b60606122188261138b565b6000828152600f602052604081208054612231906131eb565b80601f016020809104026020016040519081016040528092919081815260200182805461225d906131eb565b80156122aa5780601f1061227f576101008083540402835291602001916122aa565b820191906000526020600020905b81548152906001019060200180831161228d57829003601f168201915b5050505050905060006122c860408051602081019091526000815290565b905080516000036122da575092915050565b81511561230c5780826040516020016122f4929190613524565b60405160208183030381529060405292505050919050565b611572846126a6565b61231f8383612719565b61232c60008484846120fe565b61080e5760405162461bcd60e51b815260040161075b90613409565b606060006123578360026130b1565b6123629060026130fa565b6001600160401b0381111561237957612379612a54565b6040519080825280601f01601f1916602001820160405280156123a3576020820181803683370190505b509050600360fc1b816000815181106123be576123be61310d565b60200101906001600160f81b031916908160001a905350600f60fb1b816001815181106123ed576123ed61310d565b60200101906001600160f81b031916908160001a90535060006124118460026130b1565b61241c9060016130fa565b90505b6001811115612494576f181899199a1a9b1b9c1cb0b131b232b360811b85600f16601081106124505761245061310d565b1a60f81b8282815181106124665761246661310d565b60200101906001600160f81b031916908160001a90535060049490941c9361248d81613553565b905061241f565b5083156113755760405162461bcd60e51b815260206004820181905260248201527f537472696e67733a20686578206c656e67746820696e73756666696369656e74604482015260640161075b565b600081815260018301602052604081205480156125cc576000612507600183613386565b855490915060009061251b90600190613386565b905081811461258057600086600001828154811061253b5761253b61310d565b906000526020600020015490508087600001848154811061255e5761255e61310d565b6000918252602080832090910192909255918252600188019052604090208390555b85548690806125915761259161356a565b600190038181906000526020600020016000905590558560010160008681526020019081526020016000206000905560019350505050610626565b6000915050610626565b600081815260018301602052604081205461261d57508154600181810184556000848152602080822090930184905584548482528286019093526040902091909155610626565b506000610626565b6001600160e01b0319808216900361267e5760405162461bcd60e51b815260206004820152601c60248201527b115490cc4d8d4e881a5b9d985b1a59081a5b9d195c999858d9481a5960221b604482015260640161075b565b6001600160e01b0319166000908152600160208190526040909120805460ff19169091179055565b60606126b18261138b565b60006126c860408051602081019091526000815290565b905060008151116126e85760405180602001604052806000815250611375565b806126f28461284b565b604051602001612703929190613524565b6040516020818303038152906040529392505050565b6001600160a01b03821661276f5760405162461bcd60e51b815260206004820181905260248201527f4552433732313a206d696e7420746f20746865207a65726f2061646472657373604482015260640161075b565b61277881611e0e565b156127c45760405162461bcd60e51b815260206004820152601c60248201527b115490cdcc8c4e881d1bdad95b88185b1c9958591e481b5a5b9d195960221b604482015260640161075b565b6001600160a01b03821660009081526006602052604081208054600192906127ed9084906130fa565b909155505060008181526005602052604080822080546001600160a01b0319166001600160a01b03861690811790915590518392907fddf252ad1be2c89b69c2b068fc378daa952ba7f163c4a11628f55a4df523b3ef908290a45050565b6060816000036128725750506040805180820190915260018152600360fc1b602082015290565b8160005b811561289c578061288681613123565b91506128959050600a836130e6565b9150612876565b6000816001600160401b038111156128b6576128b6612a54565b6040519080825280601f01601f1916602001820160405280156128e0576020820181803683370190505b5090505b8415611572576128f5600183613386565b9150612902600a86613580565b61290d9060306130fa565b60f81b8183815181106129225761292261310d565b60200101906001600160f81b031916908160001a905350612944600a866130e6565b94506128e4565b6001600160e01b03198116811461127f57600080fd5b60006020828403121561297357600080fd5b81356113758161294b565b60006020828403121561299057600080fd5b5035919050565b60005b838110156129b257818101518382015260200161299a565b50506000910152565b600081518084526129d3816020860160208601612997565b601f01601f19169290920160200192915050565b60208152600061137560208301846129bb565b6001600160a01b0391909116815260200190565b80356001600160a01b0381168114612a2557600080fd5b919050565b60008060408385031215612a3d57600080fd5b612a4683612a0e565b946020939093013593505050565b634e487b7160e01b600052604160045260246000fd5b60405160e081016001600160401b0381118282101715612a8c57612a8c612a54565b60405290565b604051601f8201601f191681016001600160401b0381118282101715612aba57612aba612a54565b604052919050565b60006001600160401b03831115612adb57612adb612a54565b612aee601f8401601f1916602001612a92565b9050828152838383011115612b0257600080fd5b828260208301376000602084830101529392505050565b600082601f830112612b2a57600080fd5b61137583833560208501612ac2565b60008060408385031215612b4c57600080fd5b8235915060208301356001600160401b03811115612b6957600080fd5b612b7585828601612b19565b9150509250929050565b600080600060608486031215612b9457600080fd5b612b9d84612a0e565b9250612bab60208501612a0e565b9150604084013590509250925092565b60008060408385031215612bce57600080fd5b50508035926020909101359150565b600080600060608486031215612bf257600080fd5b612bfb84612a0e565b9250602080850135925060408501356001600160401b0380821115612c1f57600080fd5b818701915087601f830112612c3357600080fd5b813581811115612c4557612c45612a54565b8060051b612c54858201612a92565b918252838101850191858101908b841115612c6e57600080fd5b86860192505b83831015612caa57823585811115612c8c5760008081fd5b612c9a8d89838a0101612b19565b8352509186019190860190612c74565b809750505050505050509250925092565b60008060408385031215612cce57600080fd5b82359150612cde60208401612a0e565b90509250929050565b60008060208385031215612cfa57600080fd5b82356001600160401b0380821115612d1157600080fd5b818501915085601f830112612d2557600080fd5b813581811115612d3457600080fd5b866020606083028501011115612d4957600080fd5b60209290920196919550909350505050565b803561ffff81168114612a2557600080fd5b60008060408385031215612d8057600080fd5b82356001600160401b0380821115612d9757600080fd5b9084019060e08287031215612dab57600080fd5b612db3612a6a565b823582811115612dc257600080fd5b612dce88828601612b19565b825250602083013582811115612de357600080fd5b612def88828601612b19565b602083015250604083013582811115612e0757600080fd5b612e1388828601612b19565b60408301525060608301356060820152612e2f60808401612a0e565b6080820152612e4060a08401612d5b565b60a0820152612e5160c08401612a0e565b60c08201529350612cde91505060208401612a0e565b600060208284031215612e7957600080fd5b61137582612a0e565b6001600160a01b0392909216825261ffff16602082015260400190565b600060208284031215612eb157600080fd5b81356001600160401b03811115612ec757600080fd5b61157284828501612b19565b60008060408385031215612ee657600080fd5b612eef83612a0e565b915060208301358015158114612f0457600080fd5b809150509250929050565b60008060008060808587031215612f2557600080fd5b612f2e85612a0e565b9350612f3c60208601612a0e565b92506040850135915060608501356001600160401b03811115612f5e57600080fd5b8501601f81018713612f6f57600080fd5b612f7e87823560208401612ac2565b91505092959194509250565b602080825282518282018190526000919060409081850190868401855b82811015612fde57815180516001600160a01b031685528601516001600160601b0316868501529284019290850190600101612fa7565b5091979650505050505050565b60008060408385031215612ffe57600080fd5b61300783612a0e565b9150612cde60208401612a0e565b60006040828403121561302757600080fd5b50919050565b602080825260069082015265232927ad22a760d11b604082015260600190565b6020808252602e908201527f4552433732313a2063616c6c6572206973206e6f7420746f6b656e206f776e6560408201526d1c881b9bdc88185c1c1c9bdd995960921b606082015260800190565b634e487b7160e01b600052601160045260246000fd5b60008160001904831182151516156130cb576130cb61309b565b500290565b634e487b7160e01b600052601260045260246000fd5b6000826130f5576130f56130d0565b500490565b808201808211156106265761062661309b565b634e487b7160e01b600052603260045260246000fd5b6000600182016131355761313561309b565b5060010190565b60006060828403121561314e57600080fd5b604051606081018181106001600160401b038211171561317057613170612a54565b6040528235815261318360208401612a0e565b602082015261319460408401612d5b565b60408201529392505050565b6000602082840312156131b257600080fd5b5051919050565b602080825260189082015277115490cdcc8c4e881a5b9d985b1a59081d1bdad95b88125160421b604082015260600190565b600181811c908216806131ff57607f821691505b60208210810361302757634e487b7160e01b600052602260045260246000fd5b601f82111561080e57600081815260208120601f850160051c810160208610156132465750805b601f850160051c820191505b8181101561326557828155600101613252565b505050505050565b81516001600160401b0381111561328657613286612a54565b61329a8161329484546131eb565b8461321f565b602080601f8311600181146132cf57600084156132b75750858301515b600019600386901b1c1916600185901b178555613265565b600085815260208120601f198616915b828110156132fe578886015182559484019460019091019084016132df565b508582101561331c5787850151600019600388901b60f8161c191681555b5050505050600190811b01905550565b60006040828403121561333e57600080fd5b604051604081018181106001600160401b038211171561336057613360612a54565b60405261336c83612a0e565b815261337a60208401612d5b565b60208201529392505050565b818103818111156106265761062661309b565b6020808252600b908201526a496e76616c69642062707360a81b604082015260600190565b6020808252602b908201527f496e697469616c697a61626c653a20636f6e7472616374206973206e6f74206960408201526a6e697469616c697a696e6760a81b606082015260800190565b60208082526032908201527f4552433732313a207472616e7366657220746f206e6f6e20455243373231526560408201527131b2b4bb32b91034b6b83632b6b2b73a32b960711b606082015260800190565b76020b1b1b2b9b9a1b7b73a3937b61d1030b1b1b7bab73a1604d1b81526000835161348d816017850160208801612997565b7001034b99036b4b9b9b4b733903937b6329607d1b60179184019182015283516134be816028840160208801612997565b01602801949350505050565b6001600160a01b03858116825284166020820152604081018390526080606082018190526000906134fd908301846129bb565b9695505050505050565b60006020828403121561351957600080fd5b81516113758161294b565b60008351613536818460208801612997565b83519083019061354a818360208801612997565b01949350505050565b6000816135625761356261309b565b506000190190565b634e487b7160e01b600052603160045260246000fd5b60008261358f5761358f6130d0565b50069056fe9f2df0fed2c77648de5860a4cc508cd0818c85b8b8a1ab4ceeef8d981c8956a6a2646970667358221220d8fb1cc1a9dee46cc60e20d89efbe37964592fb5025fb89e3d8da2966e288d1364736f6c63430008100033",
  "devdoc": {
    "kind": "dev",
    "methods": {
      "approve(address,uint256)": {
        "details": "See {IERC721-approve}."
      },
      "balanceOf(address)": {
        "details": "See {IERC721-balanceOf}."
      },
      "getApproved(uint256)": {
        "details": "See {IERC721-getApproved}."
      },
      "getRoleAdmin(bytes32)": {
        "details": "Returns the admin role that controls `role`. See {grantRole} and {revokeRole}. To change a role's admin, use {_setRoleAdmin}."
      },
      "getTokenRoyaltiesCount()": {
        "details": "See {IEIP2981RoyaltyOverride-getTokenRoyaltiesCount}."
      },
      "getTokenRoyaltyByIndex(uint256)": {
        "details": "See {IEIP2981RoyaltyOverride-getTokenRoyaltyByIndex}."
      },
      "grantRole(bytes32,address)": {
        "details": "Grants `role` to `account`. If `account` had not been already granted `role`, emits a {RoleGranted} event. Requirements: - the caller must have ``role``'s admin role. May emit a {RoleGranted} event."
      },
      "hasRole(bytes32,address)": {
        "details": "Returns `true` if `account` has been granted `role`."
      },
      "isApprovedForAll(address,address)": {
        "details": "See {IERC721-isApprovedForAll}."
      },
      "owner()": {
        "details": "Returns the address of the current owner."
      },
      "ownerOf(uint256)": {
        "details": "See {IERC721-ownerOf}."
      },
      "renounceOwnership()": {
        "details": "Leaves the contract without owner. It will not be possible to call `onlyOwner` functions anymore. Can only be called by the current owner. NOTE: Renouncing ownership will leave the contract without an owner, thereby removing any functionality that is only available to the owner."
      },
      "renounceRole(bytes32,address)": {
        "details": "Revokes `role` from the calling account. Roles are often managed via {grantRole} and {revokeRole}: this function's purpose is to provide a mechanism for accounts to lose their privileges if they are compromised (such as when a trusted device is misplaced). If the calling account had been revoked `role`, emits a {RoleRevoked} event. Requirements: - the caller must be `account`. May emit a {RoleRevoked} event."
      },
      "revokeRole(bytes32,address)": {
        "details": "Revokes `role` from `account`. If `account` had been granted `role`, emits a {RoleRevoked} event. Requirements: - the caller must have ``role``'s admin role. May emit a {RoleRevoked} event."
      },
      "royaltyInfo(uint256,uint256)": {
        "details": "See {IEIP2981RoyaltyOverride-royaltyInfo}."
      },
      "safeTransferFrom(address,address,uint256)": {
        "details": "See {IERC721-safeTransferFrom}."
      },
      "safeTransferFrom(address,address,uint256,bytes)": {
        "details": "See {IERC721-safeTransferFrom}."
      },
      "setApprovalForAll(address,bool)": {
        "details": "See {IERC721-setApprovalForAll}."
      },
      "transferFrom(address,address,uint256)": {
        "details": "See {IERC721-transferFrom}."
      },
      "transferOwnership(address)": {
        "details": "Transfers ownership of the contract to a new account (`newOwner`). Can only be called by the current owner."
      }
    },
    "version": 1
  },
  "userdoc": {
    "kind": "user",
    "methods": {},
    "version": 1
  },
  "storageLayout": {
    "storage": [
      {
        "astId": 974,
        "contract": "contracts/collections/ERC721/presets/ERC721OneOfOneCollection.sol:ERC721OneOfOneCollection",
        "label": "_initialized",
        "offset": 0,
        "slot": "0",
        "type": "t_uint8"
      },
      {
        "astId": 977,
        "contract": "contracts/collections/ERC721/presets/ERC721OneOfOneCollection.sol:ERC721OneOfOneCollection",
        "label": "_initializing",
        "offset": 1,
        "slot": "0",
        "type": "t_bool"
      },
      {
        "astId": 782,
        "contract": "contracts/collections/ERC721/presets/ERC721OneOfOneCollection.sol:ERC721OneOfOneCollection",
        "label": "_owner",
        "offset": 2,
        "slot": "0",
        "type": "t_address"
      },
      {
        "astId": 5217,
        "contract": "contracts/collections/ERC721/presets/ERC721OneOfOneCollection.sol:ERC721OneOfOneCollection",
        "label": "_supportedInterfaces",
        "offset": 0,
        "slot": "1",
        "type": "t_mapping(t_bytes4,t_bool)"
      },
      {
        "astId": 406,
        "contract": "contracts/collections/ERC721/presets/ERC721OneOfOneCollection.sol:ERC721OneOfOneCollection",
        "label": "_roles",
        "offset": 0,
        "slot": "2",
        "type": "t_mapping(t_bytes32,t_struct(RoleData)401_storage)"
      },
      {
        "astId": 2025,
        "contract": "contracts/collections/ERC721/presets/ERC721OneOfOneCollection.sol:ERC721OneOfOneCollection",
        "label": "_name",
        "offset": 0,
        "slot": "3",
        "type": "t_string_storage"
      },
      {
        "astId": 2027,
        "contract": "contracts/collections/ERC721/presets/ERC721OneOfOneCollection.sol:ERC721OneOfOneCollection",
        "label": "_symbol",
        "offset": 0,
        "slot": "4",
        "type": "t_string_storage"
      },
      {
        "astId": 2031,
        "contract": "contracts/collections/ERC721/presets/ERC721OneOfOneCollection.sol:ERC721OneOfOneCollection",
        "label": "_owners",
        "offset": 0,
        "slot": "5",
        "type": "t_mapping(t_uint256,t_address)"
      },
      {
        "astId": 2035,
        "contract": "contracts/collections/ERC721/presets/ERC721OneOfOneCollection.sol:ERC721OneOfOneCollection",
        "label": "_balances",
        "offset": 0,
        "slot": "6",
        "type": "t_mapping(t_address,t_uint256)"
      },
      {
        "astId": 2039,
        "contract": "contracts/collections/ERC721/presets/ERC721OneOfOneCollection.sol:ERC721OneOfOneCollection",
        "label": "_tokenApprovals",
        "offset": 0,
        "slot": "7",
        "type": "t_mapping(t_uint256,t_address)"
      },
      {
        "astId": 2045,
        "contract": "contracts/collections/ERC721/presets/ERC721OneOfOneCollection.sol:ERC721OneOfOneCollection",
        "label": "_operatorApprovals",
        "offset": 0,
        "slot": "8",
        "type": "t_mapping(t_address,t_mapping(t_address,t_bool))"
      },
      {
        "astId": 6694,
        "contract": "contracts/collections/ERC721/presets/ERC721OneOfOneCollection.sol:ERC721OneOfOneCollection",
        "label": "_name",
        "offset": 0,
        "slot": "9",
        "type": "t_string_storage"
      },
      {
        "astId": 6696,
        "contract": "contracts/collections/ERC721/presets/ERC721OneOfOneCollection.sol:ERC721OneOfOneCollection",
        "label": "_symbol",
        "offset": 0,
        "slot": "10",
        "type": "t_string_storage"
      },
      {
        "astId": 6698,
        "contract": "contracts/collections/ERC721/presets/ERC721OneOfOneCollection.sol:ERC721OneOfOneCollection",
        "label": "_contractURI",
        "offset": 0,
        "slot": "11",
        "type": "t_string_storage"
      },
      {
        "astId": 6350,
        "contract": "contracts/collections/ERC721/presets/ERC721OneOfOneCollection.sol:ERC721OneOfOneCollection",
        "label": "maxSupply",
        "offset": 0,
        "slot": "12",
        "type": "t_uint256"
      },
      {
        "astId": 6352,
        "contract": "contracts/collections/ERC721/presets/ERC721OneOfOneCollection.sol:ERC721OneOfOneCollection",
        "label": "maxSupplyFrozen",
        "offset": 0,
        "slot": "13",
        "type": "t_bool"
      },
      {
        "astId": 6355,
        "contract": "contracts/collections/ERC721/presets/ERC721OneOfOneCollection.sol:ERC721OneOfOneCollection",
        "label": "_currentTokenId",
        "offset": 0,
        "slot": "14",
        "type": "t_uint256"
      },
      {
        "astId": 3351,
        "contract": "contracts/collections/ERC721/presets/ERC721OneOfOneCollection.sol:ERC721OneOfOneCollection",
        "label": "_tokenURIs",
        "offset": 0,
        "slot": "15",
        "type": "t_mapping(t_uint256,t_string_storage)"
      },
      {
        "astId": 7586,
        "contract": "contracts/collections/ERC721/presets/ERC721OneOfOneCollection.sol:ERC721OneOfOneCollection",
        "label": "lastFrozenTokenId",
        "offset": 0,
        "slot": "16",
        "type": "t_uint256"
      },
      {
        "astId": 86,
        "contract": "contracts/collections/ERC721/presets/ERC721OneOfOneCollection.sol:ERC721OneOfOneCollection",
        "label": "defaultRoyalty",
        "offset": 0,
        "slot": "17",
        "type": "t_struct(TokenRoyalty)28_storage"
      },
      {
        "astId": 91,
        "contract": "contracts/collections/ERC721/presets/ERC721OneOfOneCollection.sol:ERC721OneOfOneCollection",
        "label": "_tokenRoyalties",
        "offset": 0,
        "slot": "18",
        "type": "t_mapping(t_uint256,t_struct(TokenRoyalty)28_storage)"
      },
      {
        "astId": 94,
        "contract": "contracts/collections/ERC721/presets/ERC721OneOfOneCollection.sol:ERC721OneOfOneCollection",
        "label": "_tokensWithRoyalties",
        "offset": 0,
        "slot": "19",
        "type": "t_struct(UintSet)6188_storage"
      },
      {
        "astId": 14615,
        "contract": "contracts/collections/ERC721/presets/ERC721OneOfOneCollection.sol:ERC721OneOfOneCollection",
        "label": "_trustedForwarder",
        "offset": 0,
        "slot": "21",
        "type": "t_address"
      }
    ],
    "types": {
      "t_address": {
        "encoding": "inplace",
        "label": "address",
        "numberOfBytes": "20"
      },
      "t_array(t_bytes32)dyn_storage": {
        "base": "t_bytes32",
        "encoding": "dynamic_array",
        "label": "bytes32[]",
        "numberOfBytes": "32"
      },
      "t_bool": {
        "encoding": "inplace",
        "label": "bool",
        "numberOfBytes": "1"
      },
      "t_bytes32": {
        "encoding": "inplace",
        "label": "bytes32",
        "numberOfBytes": "32"
      },
      "t_bytes4": {
        "encoding": "inplace",
        "label": "bytes4",
        "numberOfBytes": "4"
      },
      "t_mapping(t_address,t_bool)": {
        "encoding": "mapping",
        "key": "t_address",
        "label": "mapping(address => bool)",
        "numberOfBytes": "32",
        "value": "t_bool"
      },
      "t_mapping(t_address,t_mapping(t_address,t_bool))": {
        "encoding": "mapping",
        "key": "t_address",
        "label": "mapping(address => mapping(address => bool))",
        "numberOfBytes": "32",
        "value": "t_mapping(t_address,t_bool)"
      },
      "t_mapping(t_address,t_uint256)": {
        "encoding": "mapping",
        "key": "t_address",
        "label": "mapping(address => uint256)",
        "numberOfBytes": "32",
        "value": "t_uint256"
      },
      "t_mapping(t_bytes32,t_struct(RoleData)401_storage)": {
        "encoding": "mapping",
        "key": "t_bytes32",
        "label": "mapping(bytes32 => struct AccessControl.RoleData)",
        "numberOfBytes": "32",
        "value": "t_struct(RoleData)401_storage"
      },
      "t_mapping(t_bytes32,t_uint256)": {
        "encoding": "mapping",
        "key": "t_bytes32",
        "label": "mapping(bytes32 => uint256)",
        "numberOfBytes": "32",
        "value": "t_uint256"
      },
      "t_mapping(t_bytes4,t_bool)": {
        "encoding": "mapping",
        "key": "t_bytes4",
        "label": "mapping(bytes4 => bool)",
        "numberOfBytes": "32",
        "value": "t_bool"
      },
      "t_mapping(t_uint256,t_address)": {
        "encoding": "mapping",
        "key": "t_uint256",
        "label": "mapping(uint256 => address)",
        "numberOfBytes": "32",
        "value": "t_address"
      },
      "t_mapping(t_uint256,t_string_storage)": {
        "encoding": "mapping",
        "key": "t_uint256",
        "label": "mapping(uint256 => string)",
        "numberOfBytes": "32",
        "value": "t_string_storage"
      },
      "t_mapping(t_uint256,t_struct(TokenRoyalty)28_storage)": {
        "encoding": "mapping",
        "key": "t_uint256",
        "label": "mapping(uint256 => struct IEIP2981RoyaltyOverride.TokenRoyalty)",
        "numberOfBytes": "32",
        "value": "t_struct(TokenRoyalty)28_storage"
      },
      "t_string_storage": {
        "encoding": "bytes",
        "label": "string",
        "numberOfBytes": "32"
      },
      "t_struct(RoleData)401_storage": {
        "encoding": "inplace",
        "label": "struct AccessControl.RoleData",
        "members": [
          {
            "astId": 398,
            "contract": "contracts/collections/ERC721/presets/ERC721OneOfOneCollection.sol:ERC721OneOfOneCollection",
            "label": "members",
            "offset": 0,
            "slot": "0",
            "type": "t_mapping(t_address,t_bool)"
          },
          {
            "astId": 400,
            "contract": "contracts/collections/ERC721/presets/ERC721OneOfOneCollection.sol:ERC721OneOfOneCollection",
            "label": "adminRole",
            "offset": 0,
            "slot": "1",
            "type": "t_bytes32"
          }
        ],
        "numberOfBytes": "64"
      },
      "t_struct(Set)5730_storage": {
        "encoding": "inplace",
        "label": "struct EnumerableSet.Set",
        "members": [
          {
            "astId": 5725,
            "contract": "contracts/collections/ERC721/presets/ERC721OneOfOneCollection.sol:ERC721OneOfOneCollection",
            "label": "_values",
            "offset": 0,
            "slot": "0",
            "type": "t_array(t_bytes32)dyn_storage"
          },
          {
            "astId": 5729,
            "contract": "contracts/collections/ERC721/presets/ERC721OneOfOneCollection.sol:ERC721OneOfOneCollection",
            "label": "_indexes",
            "offset": 0,
            "slot": "1",
            "type": "t_mapping(t_bytes32,t_uint256)"
          }
        ],
        "numberOfBytes": "64"
      },
      "t_struct(TokenRoyalty)28_storage": {
        "encoding": "inplace",
        "label": "struct IEIP2981RoyaltyOverride.TokenRoyalty",
        "members": [
          {
            "astId": 25,
            "contract": "contracts/collections/ERC721/presets/ERC721OneOfOneCollection.sol:ERC721OneOfOneCollection",
            "label": "recipient",
            "offset": 0,
            "slot": "0",
            "type": "t_address"
          },
          {
            "astId": 27,
            "contract": "contracts/collections/ERC721/presets/ERC721OneOfOneCollection.sol:ERC721OneOfOneCollection",
            "label": "bps",
            "offset": 20,
            "slot": "0",
            "type": "t_uint16"
          }
        ],
        "numberOfBytes": "32"
      },
      "t_struct(UintSet)6188_storage": {
        "encoding": "inplace",
        "label": "struct EnumerableSet.UintSet",
        "members": [
          {
            "astId": 6187,
            "contract": "contracts/collections/ERC721/presets/ERC721OneOfOneCollection.sol:ERC721OneOfOneCollection",
            "label": "_inner",
            "offset": 0,
            "slot": "0",
            "type": "t_struct(Set)5730_storage"
          }
        ],
        "numberOfBytes": "64"
      },
      "t_uint16": {
        "encoding": "inplace",
        "label": "uint16",
        "numberOfBytes": "2"
      },
      "t_uint256": {
        "encoding": "inplace",
        "label": "uint256",
        "numberOfBytes": "32"
      },
      "t_uint8": {
        "encoding": "inplace",
        "label": "uint8",
        "numberOfBytes": "1"
      }
    }
  }
}