{
  "address": "0xE47C6dC8ccA497a2a9E3baa6A8aE56d24Bd5A168",
  "abi": [
    {
      "inputs": [
        {
          "components": [
            {
              "internalType": "string",
              "name": "name",
              "type": "string"
            },
            {
              "internalType": "string",
              "name": "symbol",
              "type": "string"
            },
            {
              "internalType": "string",
              "name": "contractURI",
              "type": "string"
            },
            {
              "internalType": "string",
              "name": "placeholderURI",
              "type": "string"
            },
            {
              "internalType": "string",
              "name": "tokenURIPrefix",
              "type": "string"
            },
            {
              "internalType": "address[]",
              "name": "initialHolders",
              "type": "address[]"
            },
            {
              "internalType": "uint256[]",
              "name": "initialAmounts",
              "type": "uint256[]"
            },
            {
              "internalType": "uint256",
              "name": "maxSupply",
              "type": "uint256"
            },
            {
              "internalType": "address",
              "name": "defaultRoyaltyAddress",
              "type": "address"
            },
            {
              "internalType": "uint16",
              "name": "defaultRoyaltyBps",
              "type": "uint16"
            },
            {
              "internalType": "address",
              "name": "trustedForwarder",
              "type": "address"
            }
          ],
          "internalType": "struct ERC721ManagedPrefixedCollection.Config",
          "name": "config",
          "type": "tuple"
        }
      ],
      "stateMutability": "nonpayable",
      "type": "constructor"
    },
    {
      "anonymous": false,
      "inputs": [
        {
          "indexed": true,
          "internalType": "address",
          "name": "owner",
          "type": "address"
        },
        {
          "indexed": true,
          "internalType": "address",
          "name": "approved",
          "type": "address"
        },
        {
          "indexed": true,
          "internalType": "uint256",
          "name": "tokenId",
          "type": "uint256"
        }
      ],
      "name": "Approval",
      "type": "event"
    },
    {
      "anonymous": false,
      "inputs": [
        {
          "indexed": true,
          "internalType": "address",
          "name": "owner",
          "type": "address"
        },
        {
          "indexed": true,
          "internalType": "address",
          "name": "operator",
          "type": "address"
        },
        {
          "indexed": false,
          "internalType": "bool",
          "name": "approved",
          "type": "bool"
        }
      ],
      "name": "ApprovalForAll",
      "type": "event"
    },
    {
      "anonymous": false,
      "inputs": [
        {
          "indexed": false,
          "internalType": "address",
          "name": "recipient",
          "type": "address"
        },
        {
          "indexed": false,
          "internalType": "uint16",
          "name": "bps",
          "type": "uint16"
        }
      ],
      "name": "DefaultRoyaltySet",
      "type": "event"
    },
    {
      "anonymous": false,
      "inputs": [
        {
          "indexed": false,
          "internalType": "uint8",
          "name": "version",
          "type": "uint8"
        }
      ],
      "name": "Initialized",
      "type": "event"
    },
    {
      "anonymous": false,
      "inputs": [
        {
          "indexed": true,
          "internalType": "address",
          "name": "previousOwner",
          "type": "address"
        },
        {
          "indexed": true,
          "internalType": "address",
          "name": "newOwner",
          "type": "address"
        }
      ],
      "name": "OwnershipTransferred",
      "type": "event"
    },
    {
      "anonymous": false,
      "inputs": [
        {
          "indexed": false,
          "internalType": "uint256",
          "name": "tokenId",
          "type": "uint256"
        }
      ],
      "name": "TokenRoyaltyRemoved",
      "type": "event"
    },
    {
      "anonymous": false,
      "inputs": [
        {
          "indexed": false,
          "internalType": "uint256",
          "name": "tokenId",
          "type": "uint256"
        },
        {
          "indexed": false,
          "internalType": "address",
          "name": "recipient",
          "type": "address"
        },
        {
          "indexed": false,
          "internalType": "uint16",
          "name": "bps",
          "type": "uint16"
        }
      ],
      "name": "TokenRoyaltySet",
      "type": "event"
    },
    {
      "anonymous": false,
      "inputs": [
        {
          "indexed": true,
          "internalType": "address",
          "name": "from",
          "type": "address"
        },
        {
          "indexed": true,
          "internalType": "address",
          "name": "to",
          "type": "address"
        },
        {
          "indexed": true,
          "internalType": "uint256",
          "name": "tokenId",
          "type": "uint256"
        }
      ],
      "name": "Transfer",
      "type": "event"
    },
    {
      "inputs": [],
      "name": "_trustedForwarder",
      "outputs": [
        {
          "internalType": "address",
          "name": "",
          "type": "address"
        }
      ],
      "stateMutability": "view",
      "type": "function"
    },
    {
      "inputs": [
        {
          "internalType": "address",
          "name": "to",
          "type": "address"
        },
        {
          "internalType": "uint256",
          "name": "tokenId",
          "type": "uint256"
        }
      ],
      "name": "approve",
      "outputs": [],
      "stateMutability": "nonpayable",
      "type": "function"
    },
    {
      "inputs": [
        {
          "internalType": "address",
          "name": "owner",
          "type": "address"
        }
      ],
      "name": "balanceOf",
      "outputs": [
        {
          "internalType": "uint256",
          "name": "",
          "type": "uint256"
        }
      ],
      "stateMutability": "view",
      "type": "function"
    },
    {
      "inputs": [],
      "name": "contractURI",
      "outputs": [
        {
          "internalType": "string",
          "name": "",
          "type": "string"
        }
      ],
      "stateMutability": "view",
      "type": "function"
    },
    {
      "inputs": [],
      "name": "defaultRoyalty",
      "outputs": [
        {
          "internalType": "address",
          "name": "recipient",
          "type": "address"
        },
        {
          "internalType": "uint16",
          "name": "bps",
          "type": "uint16"
        }
      ],
      "stateMutability": "view",
      "type": "function"
    },
    {
      "inputs": [],
      "name": "freezeMaxSupply",
      "outputs": [],
      "stateMutability": "nonpayable",
      "type": "function"
    },
    {
      "inputs": [],
      "name": "freezeTokenURI",
      "outputs": [],
      "stateMutability": "nonpayable",
      "type": "function"
    },
    {
      "inputs": [
        {
          "internalType": "uint256",
          "name": "tokenId",
          "type": "uint256"
        }
      ],
      "name": "getApproved",
      "outputs": [
        {
          "internalType": "address",
          "name": "",
          "type": "address"
        }
      ],
      "stateMutability": "view",
      "type": "function"
    },
    {
      "inputs": [],
      "name": "getInfo",
      "outputs": [
        {
          "internalType": "uint256",
          "name": "_maxSupply",
          "type": "uint256"
        },
        {
          "internalType": "uint256",
          "name": "_totalSupply",
          "type": "uint256"
        },
        {
          "internalType": "uint256",
          "name": "_senderBalance",
          "type": "uint256"
        }
      ],
      "stateMutability": "view",
      "type": "function"
    },
    {
      "inputs": [
        {
          "internalType": "uint256",
          "name": "id",
          "type": "uint256"
        }
      ],
      "name": "getRaribleV2Royalties",
      "outputs": [
        {
          "components": [
            {
              "internalType": "address payable",
              "name": "account",
              "type": "address"
            },
            {
              "internalType": "uint96",
              "name": "value",
              "type": "uint96"
            }
          ],
          "internalType": "struct LibPart.Part[]",
          "name": "result",
          "type": "tuple[]"
        }
      ],
      "stateMutability": "view",
      "type": "function"
    },
    {
      "inputs": [],
      "name": "getTokenRoyaltiesCount",
      "outputs": [
        {
          "internalType": "uint256",
          "name": "",
          "type": "uint256"
        }
      ],
      "stateMutability": "view",
      "type": "function"
    },
    {
      "inputs": [
        {
          "internalType": "uint256",
          "name": "index",
          "type": "uint256"
        }
      ],
      "name": "getTokenRoyaltyByIndex",
      "outputs": [
        {
          "components": [
            {
              "internalType": "uint256",
              "name": "tokenId",
              "type": "uint256"
            },
            {
              "internalType": "address",
              "name": "recipient",
              "type": "address"
            },
            {
              "internalType": "uint16",
              "name": "bps",
              "type": "uint16"
            }
          ],
          "internalType": "struct IEIP2981RoyaltyOverride.TokenRoyaltyConfig",
          "name": "",
          "type": "tuple"
        }
      ],
      "stateMutability": "view",
      "type": "function"
    },
    {
      "inputs": [
        {
          "components": [
            {
              "internalType": "string",
              "name": "name",
              "type": "string"
            },
            {
              "internalType": "string",
              "name": "symbol",
              "type": "string"
            },
            {
              "internalType": "string",
              "name": "contractURI",
              "type": "string"
            },
            {
              "internalType": "string",
              "name": "placeholderURI",
              "type": "string"
            },
            {
              "internalType": "string",
              "name": "tokenURIPrefix",
              "type": "string"
            },
            {
              "internalType": "address[]",
              "name": "initialHolders",
              "type": "address[]"
            },
            {
              "internalType": "uint256[]",
              "name": "initialAmounts",
              "type": "uint256[]"
            },
            {
              "internalType": "uint256",
              "name": "maxSupply",
              "type": "uint256"
            },
            {
              "internalType": "address",
              "name": "defaultRoyaltyAddress",
              "type": "address"
            },
            {
              "internalType": "uint16",
              "name": "defaultRoyaltyBps",
              "type": "uint16"
            },
            {
              "internalType": "address",
              "name": "trustedForwarder",
              "type": "address"
            }
          ],
          "internalType": "struct ERC721ManagedPrefixedCollection.Config",
          "name": "config",
          "type": "tuple"
        },
        {
          "internalType": "address",
          "name": "deployer",
          "type": "address"
        }
      ],
      "name": "initialize",
      "outputs": [],
      "stateMutability": "nonpayable",
      "type": "function"
    },
    {
      "inputs": [
        {
          "internalType": "address",
          "name": "owner",
          "type": "address"
        },
        {
          "internalType": "address",
          "name": "operator",
          "type": "address"
        }
      ],
      "name": "isApprovedForAll",
      "outputs": [
        {
          "internalType": "bool",
          "name": "",
          "type": "bool"
        }
      ],
      "stateMutability": "view",
      "type": "function"
    },
    {
      "inputs": [
        {
          "internalType": "address",
          "name": "forwarder",
          "type": "address"
        }
      ],
      "name": "isTrustedForwarder",
      "outputs": [
        {
          "internalType": "bool",
          "name": "",
          "type": "bool"
        }
      ],
      "stateMutability": "view",
      "type": "function"
    },
    {
      "inputs": [],
      "name": "managementPowerRevoked",
      "outputs": [
        {
          "internalType": "bool",
          "name": "",
          "type": "bool"
        }
      ],
      "stateMutability": "view",
      "type": "function"
    },
    {
      "inputs": [],
      "name": "maxSupply",
      "outputs": [
        {
          "internalType": "uint256",
          "name": "",
          "type": "uint256"
        }
      ],
      "stateMutability": "view",
      "type": "function"
    },
    {
      "inputs": [],
      "name": "maxSupplyFrozen",
      "outputs": [
        {
          "internalType": "bool",
          "name": "",
          "type": "bool"
        }
      ],
      "stateMutability": "view",
      "type": "function"
    },
    {
      "inputs": [
        {
          "internalType": "address",
          "name": "to",
          "type": "address"
        },
        {
          "internalType": "uint256",
          "name": "count",
          "type": "uint256"
        }
      ],
      "name": "mintByOwner",
      "outputs": [],
      "stateMutability": "nonpayable",
      "type": "function"
    },
    {
      "inputs": [],
      "name": "name",
      "outputs": [
        {
          "internalType": "string",
          "name": "",
          "type": "string"
        }
      ],
      "stateMutability": "view",
      "type": "function"
    },
    {
      "inputs": [],
      "name": "owner",
      "outputs": [
        {
          "internalType": "address",
          "name": "",
          "type": "address"
        }
      ],
      "stateMutability": "view",
      "type": "function"
    },
    {
      "inputs": [
        {
          "internalType": "uint256",
          "name": "tokenId",
          "type": "uint256"
        }
      ],
      "name": "ownerOf",
      "outputs": [
        {
          "internalType": "address",
          "name": "",
          "type": "address"
        }
      ],
      "stateMutability": "view",
      "type": "function"
    },
    {
      "inputs": [],
      "name": "placeholderURI",
      "outputs": [
        {
          "internalType": "string",
          "name": "",
          "type": "string"
        }
      ],
      "stateMutability": "view",
      "type": "function"
    },
    {
      "inputs": [],
      "name": "renounceOwnership",
      "outputs": [],
      "stateMutability": "nonpayable",
      "type": "function"
    },
    {
      "inputs": [],
      "name": "revokeManagementPower",
      "outputs": [],
      "stateMutability": "nonpayable",
      "type": "function"
    },
    {
      "inputs": [
        {
          "internalType": "uint256",
          "name": "tokenId",
          "type": "uint256"
        },
        {
          "internalType": "uint256",
          "name": "value",
          "type": "uint256"
        }
      ],
      "name": "royaltyInfo",
      "outputs": [
        {
          "internalType": "address",
          "name": "",
          "type": "address"
        },
        {
          "internalType": "uint256",
          "name": "",
          "type": "uint256"
        }
      ],
      "stateMutability": "view",
      "type": "function"
    },
    {
      "inputs": [
        {
          "internalType": "address",
          "name": "from",
          "type": "address"
        },
        {
          "internalType": "address",
          "name": "to",
          "type": "address"
        },
        {
          "internalType": "uint256",
          "name": "tokenId",
          "type": "uint256"
        }
      ],
      "name": "safeTransferFrom",
      "outputs": [],
      "stateMutability": "nonpayable",
      "type": "function"
    },
    {
      "inputs": [
        {
          "internalType": "address",
          "name": "from",
          "type": "address"
        },
        {
          "internalType": "address",
          "name": "to",
          "type": "address"
        },
        {
          "internalType": "uint256",
          "name": "tokenId",
          "type": "uint256"
        },
        {
          "internalType": "bytes",
          "name": "data",
          "type": "bytes"
        }
      ],
      "name": "safeTransferFrom",
      "outputs": [],
      "stateMutability": "nonpayable",
      "type": "function"
    },
    {
      "inputs": [
        {
          "internalType": "address",
          "name": "operator",
          "type": "address"
        },
        {
          "internalType": "bool",
          "name": "approved",
          "type": "bool"
        }
      ],
      "name": "setApprovalForAll",
      "outputs": [],
      "stateMutability": "nonpayable",
      "type": "function"
    },
    {
      "inputs": [
        {
          "internalType": "string",
          "name": "newValue",
          "type": "string"
        }
      ],
      "name": "setContractURI",
      "outputs": [],
      "stateMutability": "nonpayable",
      "type": "function"
    },
    {
      "inputs": [
        {
          "components": [
            {
              "internalType": "address",
              "name": "recipient",
              "type": "address"
            },
            {
              "internalType": "uint16",
              "name": "bps",
              "type": "uint16"
            }
          ],
          "internalType": "struct IEIP2981RoyaltyOverride.TokenRoyalty",
          "name": "royalty",
          "type": "tuple"
        }
      ],
      "name": "setDefaultRoyalty",
      "outputs": [],
      "stateMutability": "nonpayable",
      "type": "function"
    },
    {
      "inputs": [
        {
          "internalType": "uint256",
          "name": "newValue",
          "type": "uint256"
        }
      ],
      "name": "setMaxSupply",
      "outputs": [],
      "stateMutability": "nonpayable",
      "type": "function"
    },
    {
      "inputs": [
        {
          "internalType": "string",
          "name": "newValue",
          "type": "string"
        }
      ],
      "name": "setPlaceholderURI",
      "outputs": [],
      "stateMutability": "nonpayable",
      "type": "function"
    },
    {
      "inputs": [
        {
          "components": [
            {
              "internalType": "uint256",
              "name": "tokenId",
              "type": "uint256"
            },
            {
              "internalType": "address",
              "name": "recipient",
              "type": "address"
            },
            {
              "internalType": "uint16",
              "name": "bps",
              "type": "uint16"
            }
          ],
          "internalType": "struct IEIP2981RoyaltyOverride.TokenRoyaltyConfig[]",
          "name": "royaltyConfigs",
          "type": "tuple[]"
        }
      ],
      "name": "setTokenRoyalties",
      "outputs": [],
      "stateMutability": "nonpayable",
      "type": "function"
    },
    {
      "inputs": [
        {
          "internalType": "string",
          "name": "newValue",
          "type": "string"
        }
      ],
      "name": "setTokenURIPrefix",
      "outputs": [],
      "stateMutability": "nonpayable",
      "type": "function"
    },
    {
      "inputs": [
        {
          "internalType": "string",
          "name": "newValue",
          "type": "string"
        }
      ],
      "name": "setTokenURISuffix",
      "outputs": [],
      "stateMutability": "nonpayable",
      "type": "function"
    },
    {
      "inputs": [
        {
          "internalType": "address",
          "name": "trustedForwarder",
          "type": "address"
        }
      ],
      "name": "setTrustedForwarder",
      "outputs": [],
      "stateMutability": "nonpayable",
      "type": "function"
    },
    {
      "inputs": [
        {
          "internalType": "bytes4",
          "name": "interfaceId",
          "type": "bytes4"
        }
      ],
      "name": "supportsInterface",
      "outputs": [
        {
          "internalType": "bool",
          "name": "",
          "type": "bool"
        }
      ],
      "stateMutability": "view",
      "type": "function"
    },
    {
      "inputs": [],
      "name": "symbol",
      "outputs": [
        {
          "internalType": "string",
          "name": "",
          "type": "string"
        }
      ],
      "stateMutability": "view",
      "type": "function"
    },
    {
      "inputs": [
        {
          "internalType": "uint256",
          "name": "_tokenId",
          "type": "uint256"
        }
      ],
      "name": "tokenURI",
      "outputs": [
        {
          "internalType": "string",
          "name": "",
          "type": "string"
        }
      ],
      "stateMutability": "view",
      "type": "function"
    },
    {
      "inputs": [],
      "name": "tokenURIFrozen",
      "outputs": [
        {
          "internalType": "bool",
          "name": "",
          "type": "bool"
        }
      ],
      "stateMutability": "view",
      "type": "function"
    },
    {
      "inputs": [],
      "name": "tokenURIPrefix",
      "outputs": [
        {
          "internalType": "string",
          "name": "",
          "type": "string"
        }
      ],
      "stateMutability": "view",
      "type": "function"
    },
    {
      "inputs": [],
      "name": "tokenURISuffix",
      "outputs": [
        {
          "internalType": "string",
          "name": "",
          "type": "string"
        }
      ],
      "stateMutability": "view",
      "type": "function"
    },
    {
      "inputs": [],
      "name": "totalSupply",
      "outputs": [
        {
          "internalType": "uint256",
          "name": "",
          "type": "uint256"
        }
      ],
      "stateMutability": "view",
      "type": "function"
    },
    {
      "inputs": [
        {
          "internalType": "address",
          "name": "from",
          "type": "address"
        },
        {
          "internalType": "address",
          "name": "to",
          "type": "address"
        },
        {
          "internalType": "uint256",
          "name": "tokenId",
          "type": "uint256"
        }
      ],
      "name": "transferFrom",
      "outputs": [],
      "stateMutability": "nonpayable",
      "type": "function"
    },
    {
      "inputs": [
        {
          "internalType": "address",
          "name": "from",
          "type": "address"
        },
        {
          "internalType": "address",
          "name": "to",
          "type": "address"
        },
        {
          "internalType": "uint256[]",
          "name": "tokenIds",
          "type": "uint256[]"
        }
      ],
      "name": "transferFromBulk",
      "outputs": [],
      "stateMutability": "nonpayable",
      "type": "function"
    },
    {
      "inputs": [
        {
          "internalType": "address[]",
          "name": "from",
          "type": "address[]"
        },
        {
          "internalType": "address[]",
          "name": "to",
          "type": "address[]"
        },
        {
          "internalType": "uint256[]",
          "name": "tokenIds",
          "type": "uint256[]"
        }
      ],
      "name": "transferFromBulk",
      "outputs": [],
      "stateMutability": "nonpayable",
      "type": "function"
    },
    {
      "inputs": [
        {
          "internalType": "address",
          "name": "newOwner",
          "type": "address"
        }
      ],
      "name": "transferOwnership",
      "outputs": [],
      "stateMutability": "nonpayable",
      "type": "function"
    }
  ],
  "transactionHash": "0x8b6c9e99b592cb418a04ec0313473e8f76b3ec878ee05e53819d35e7a54075e0",
  "args": [
    {
      "name": "Collection",
      "symbol": "COL",
      "contractURI": "ipfs://contractURI",
      "placeholderURI": "ipfs://placeholderURI",
      "tokenURIPrefix": "ipfs://tokenURIPrefix/",
      "maxSupply": 0,
      "defaultRoyaltyAddress": "0x0000000000000000000000000000000000000000",
      "defaultRoyaltyBps": 0,
      "trustedForwarder": "0x0000000000000000000000000000000000000000",
      "initialHolders": [],
      "initialAmounts": []
    }
  ],
  "numDeployments": 12,
  "solcInputHash": "7e8d96f5b19322abdd3676f90e4578c3",
  "bytecode": "0x608060405260006012553480156200001657600080fd5b506040516200490c3803806200490c833981016040819052620000399162000fd9565b80516020820151620000546200004e6200008d565b620000a9565b600362000062838262001214565b50600462000071828262001214565b5050506200008681336200010460201b60201c565b506200146a565b6000620000a4620003a360201b620013c81760201c565b905090565b600080546001600160a01b038381166201000081810262010000600160b01b0319851617855560405193049190911692909183917f8be0079c531659141344cd1fd0a4f28419497f9722a3daafe3b4186f6b6457e091a35050565b600054610100900460ff1615808015620001255750600054600160ff909116105b806200015557506200014230620003db60201b620013ea1760201c565b15801562000155575060005460ff166001145b620001be5760405162461bcd60e51b815260206004820152602e60248201527f496e697469616c697a61626c653a20636f6e747261637420697320616c72656160448201526d191e481a5b9a5d1a585b1a5e995960921b60648201526084015b60405180910390fd5b6000805460ff191660011790558015620001e2576000805461ff0019166101001790555b8260c00151518360a0015151146200023d5760405162461bcd60e51b815260206004820152601b60248201527f4552433732312f494e56414c49445f494e495449414c5f4152475300000000006044820152606401620001b5565b6200024882620000a9565b82516020840151604085015162000261929190620003ea565b6200027b836060015184608001516200042160201b60201c565b60e08301516200028b906200045b565b6200029562000493565b6200029f620004c9565b620002bb836101000151846101200151620004fd60201b60201c565b610140830151620002cc9062000533565b620002d662000568565b60e083015160105560005b8360a00151518110156200035657620003418460a0015182815181106200030c576200030c620012e0565b60200260200101518560c0015183815181106200032d576200032d620012e0565b60200260200101516200059c60201b60201c565b806200034d816200130c565b915050620002e1565b5080156200039e576000805461ff0019169055604051600181527f7f26b83ff96e1f2b6a682f133852f6798a09c465da95921460cefb38474024989060200160405180910390a15b505050565b6002546000906001600160a01b03163303620003c6575060131936013560601c90565b620000a46200063260201b620013f91760201c565b6001600160a01b03163b151590565b600054610100900460ff16620004145760405162461bcd60e51b8152600401620001b59062001328565b6200039e83838362000636565b600054610100900460ff166200044b5760405162461bcd60e51b8152600401620001b59062001328565b620004578282620006c3565b5050565b600054610100900460ff16620004855760405162461bcd60e51b8152600401620001b59062001328565b62000490816200075b565b50565b600054610100900460ff16620004bd5760405162461bcd60e51b8152600401620001b59062001328565b620004c7620007ae565b565b600054610100900460ff16620004f35760405162461bcd60e51b8152600401620001b59062001328565b620004c7620007ea565b600054610100900460ff16620005275760405162461bcd60e51b8152600401620001b59062001328565b62000457828262000826565b600054610100900460ff166200055d5760405162461bcd60e51b8152600401620001b59062001328565b6200049081620008c3565b600054610100900460ff16620005925760405162461bcd60e51b8152600401620001b59062001328565b620004c76200090f565b60105481620005aa60125490565b620005b6919062001373565b1115620005f75760405162461bcd60e51b815260206004820152600e60248201526d455843454544535f535550504c5960901b6044820152606401620001b5565b60005b818110156200039e576012546200061284826200094b565b6200061c6200096d565b508062000629816200130c565b915050620005fa565b3390565b600054610100900460ff16620006605760405162461bcd60e51b8152600401620001b59062001328565b60096200066e848262001214565b50600a6200067d838262001214565b50600b6200068c828262001214565b506200069f633d96f4ff60e11b62000986565b620006b16380ac58cd60e01b62000986565b6200039e635b5e139f60e01b62000986565b600054610100900460ff16620006ed5760405162461bcd60e51b8152600401620001b59062001328565b600c620006fb838262001214565b50600d6200070a828262001214565b50604080518082019091526005815264173539b7b760d91b6020820152600e9062000736908262001214565b5062000749631f2f406b60e01b62000986565b62000457635b5e139f60e01b62000986565b600054610100900460ff16620007855760405162461bcd60e51b8152600401620001b59062001328565b60108190556200079c6330f487b560e11b62000986565b620004906380ac58cd60e01b62000986565b600054610100900460ff16620007d85760405162461bcd60e51b8152600401620001b59062001328565b620004c7631aa1577160e11b62000986565b600054610100900460ff16620008145760405162461bcd60e51b8152600401620001b59062001328565b620004c763948e2d5360e01b62000986565b600054610100900460ff16620008505760405162461bcd60e51b8152600401620001b59062001328565b62000862633a47bf5160e11b62000986565b6200087463152a902d60e11b62000986565b6200088663c69dbd8f60e01b62000986565b6200089863656cb66560e11b62000986565b604080518082019091526001600160a01b038316815261ffff821660208201526200039e8162000a0a565b600054610100900460ff16620008ed5760405162461bcd60e51b8152600401620001b59062001328565b600280546001600160a01b0319166001600160a01b0392909216919091179055565b600054610100900460ff16620009395760405162461bcd60e51b8152600401620001b59062001328565b620004c7632a7c3e4960e01b62000986565b6200045782826040518060200160405280600081525062000af060201b60201c565b601280549060006200097f836200130c565b9190505550565b6001600160e01b03198082169003620009e25760405162461bcd60e51b815260206004820152601c60248201527f4552433136353a20696e76616c696420696e74657266616365206964000000006044820152606401620001b5565b6001600160e01b0319166000908152600160208190526040909120805460ff19169091179055565b612710816020015161ffff161062000a535760405162461bcd60e51b815260206004820152600b60248201526a496e76616c69642062707360a81b6044820152606401620001b5565b60408051808201825282516001600160a01b03168082526020808501805161ffff169190930181905260148054600160a01b9092026001600160b01b03199092169092171790558251905191517f2c5ea6e4103e78cb101e796fb2dace540362fc542cbff5145eaa24af7dd8fe419262000ae592916001600160a01b0392909216825261ffff16602082015260400190565b60405180910390a150565b62000afc838362000b2a565b62000b0b600084848462000c72565b6200039e5760405162461bcd60e51b8152600401620001b5906200138f565b6001600160a01b03821662000b825760405162461bcd60e51b815260206004820181905260248201527f4552433732313a206d696e7420746f20746865207a65726f20616464726573736044820152606401620001b5565b6000818152600560205260409020546001600160a01b03161562000be95760405162461bcd60e51b815260206004820152601c60248201527f4552433732313a20746f6b656e20616c7265616479206d696e746564000000006044820152606401620001b5565b6001600160a01b038216600090815260066020526040812080546001929062000c1490849062001373565b909155505060008181526005602052604080822080546001600160a01b0319166001600160a01b03861690811790915590518392907fddf252ad1be2c89b69c2b068fc378daa952ba7f163c4a11628f55a4df523b3ef908290a45050565b600062000c93846001600160a01b0316620003db60201b620013ea1760201c565b1562000d92576001600160a01b03841663150b7a0262000cb26200008d565b8786866040518563ffffffff1660e01b815260040162000cd69493929190620013e1565b6020604051808303816000875af192505050801562000d14575060408051601f3d908101601f1916820190925262000d119181019062001437565b60015b62000d77573d80801562000d45576040519150601f19603f3d011682016040523d82523d6000602084013e62000d4a565b606091505b50805160000362000d6f5760405162461bcd60e51b8152600401620001b5906200138f565b805181602001fd5b6001600160e01b031916630a85bd0160e11b14905062000d96565b5060015b949350505050565b634e487b7160e01b600052604160045260246000fd5b60405161016081016001600160401b038111828210171562000dda5762000dda62000d9e565b60405290565b604051601f8201601f191681016001600160401b038111828210171562000e0b5762000e0b62000d9e565b604052919050565b60005b8381101562000e3057818101518382015260200162000e16565b50506000910152565b600082601f83011262000e4b57600080fd5b81516001600160401b0381111562000e675762000e6762000d9e565b62000e7c601f8201601f191660200162000de0565b81815284602083860101111562000e9257600080fd5b62000d9682602083016020870162000e13565b60006001600160401b0382111562000ec15762000ec162000d9e565b5060051b60200190565b80516001600160a01b038116811462000ee357600080fd5b919050565b600082601f83011262000efa57600080fd5b8151602062000f1362000f0d8362000ea5565b62000de0565b82815260059290921b8401810191818101908684111562000f3357600080fd5b8286015b8481101562000f595762000f4b8162000ecb565b835291830191830162000f37565b509695505050505050565b600082601f83011262000f7657600080fd5b8151602062000f8962000f0d8362000ea5565b82815260059290921b8401810191818101908684111562000fa957600080fd5b8286015b8481101562000f59578051835291830191830162000fad565b805161ffff8116811462000ee357600080fd5b60006020828403121562000fec57600080fd5b81516001600160401b03808211156200100457600080fd5b9083019061016082860312156200101a57600080fd5b6200102462000db4565b8251828111156200103457600080fd5b620010428782860162000e39565b8252506020830151828111156200105857600080fd5b620010668782860162000e39565b6020830152506040830151828111156200107f57600080fd5b6200108d8782860162000e39565b604083015250606083015182811115620010a657600080fd5b620010b48782860162000e39565b606083015250608083015182811115620010cd57600080fd5b620010db8782860162000e39565b60808301525060a083015182811115620010f457600080fd5b620011028782860162000ee8565b60a08301525060c0830151828111156200111b57600080fd5b620011298782860162000f64565b60c08301525060e083015160e082015261010091506200114b82840162000ecb565b8282015261012091506200116182840162000fc6565b8282015261014091506200117782840162000ecb565b91810191909152949350505050565b600181811c908216806200119b57607f821691505b602082108103620011bc57634e487b7160e01b600052602260045260246000fd5b50919050565b601f8211156200039e57600081815260208120601f850160051c81016020861015620011eb5750805b601f850160051c820191505b818110156200120c57828155600101620011f7565b505050505050565b81516001600160401b0381111562001230576200123062000d9e565b620012488162001241845462001186565b84620011c2565b602080601f831160018114620012805760008415620012675750858301515b600019600386901b1c1916600185901b1785556200120c565b600085815260208120601f198616915b82811015620012b15788860151825594840194600190910190840162001290565b5085821015620012d05787850151600019600388901b60f8161c191681555b5050505050600190811b01905550565b634e487b7160e01b600052603260045260246000fd5b634e487b7160e01b600052601160045260246000fd5b600060018201620013215762001321620012f6565b5060010190565b6020808252602b908201527f496e697469616c697a61626c653a20636f6e7472616374206973206e6f74206960408201526a6e697469616c697a696e6760a81b606082015260800190565b80820180821115620013895762001389620012f6565b92915050565b60208082526032908201527f4552433732313a207472616e7366657220746f206e6f6e20455243373231526560408201527131b2b4bb32b91034b6b83632b6b2b73a32b960711b606082015260800190565b600060018060a01b038087168352808616602084015250836040830152608060608301528251806080840152620014208160a085016020870162000e13565b601f01601f19169190910160a00195945050505050565b6000602082840312156200144a57600080fd5b81516001600160e01b0319811681146200146357600080fd5b9392505050565b613492806200147a6000396000f3fe608060405234801561001057600080fd5b50600436106102405760003560e01c80637885fdc7116101375780637885fdc71461046f5780637e9803421461049d5780638da5cb5b146104a5578063938e3d7b146104ad578063948e2d53146104c057806395d89b41146104c857806399e0dd7c146104d0578063a22cb465146104e3578063a821d908146104f6578063a9852bfb14610503578063b88d4fde14610516578063ba4695fd14610529578063c0ac998314610531578063c29de63014610539578063c87b56dd14610546578063cad96cca14610559578063d5abeb0114610579578063da74222814610582578063dbbc853b14610595578063e8a3d4851461059d578063e985e9c5146105a5578063ef60ceaf146105b8578063f2fde38b146105cb578063f384702f146105de57600080fd5b806301ffc9a714610245578063059fb6f71461026d5780630653aca51461028257806306fdde03146102c4578063081812fc146102d9578063095ea7b3146102f9578063167446071461030c57806318160ddd1461031457806323b872dd146103265780632a55205a146103395780632fe388be1461036b5780633542aee21461037e5780633574a2dd1461039157806340c1d8a1146103a457806342842e0e146103b75780635136dcc7146103ca57806356c022bb146103dd578063572b6c05146103f05780635a9b0b89146104035780636352211e146104265780636f8b44b01461043957806370a082311461044c578063715018a61461045f5780637313cba914610467575b600080fd5b6102586102533660046126f5565b6105eb565b60405190151581526020015b60405180910390f35b61028061027b36600461282b565b6105fc565b005b610295610290366004612888565b61069c565b60408051825181526020808401516001600160a01b0316908201529181015161ffff1690820152606001610264565b6102cc610721565b60405161026491906128f1565b6102ec6102e7366004612888565b610730565b6040516102649190612904565b610280610307366004612918565b610757565b610280610883565b6012545b604051908152602001610264565b610280610334366004612942565b61089a565b61034c61034736600461297e565b6108d2565b604080516001600160a01b039093168352602083019190915201610264565b610280610379366004612a02565b610997565b61028061038c366004612918565b610afc565b61028061039f366004612af6565b610b12565b6102806103b2366004612b3c565b610b26565b6102806103c5366004612942565b610d76565b6102806103d8366004612cda565b610d91565b6002546102ec906001600160a01b031681565b6102586103fe366004612d4e565b610df4565b61040b610e08565b60408051938452602084019290925290820152606001610264565b6102ec610434366004612888565b610f03565b610280610447366004612888565b610f38565b61031861045a366004612d4e565b610fae565b610280611034565b6102cc611048565b60145461048f906001600160a01b03811690600160a01b900461ffff1682565b604051610264929190612d69565b6103186110da565b6102ec6110e6565b6102806104bb366004612af6565b6110fb565b61028061110f565b6102cc611126565b6102806104de366004612af6565b611130565b6102806104f1366004612d86565b611167565b6013546102589060ff1681565b610280610511366004612af6565b611179565b610280610524366004612dc2565b6111b0565b6102806111e9565b6102cc611200565b600f546102589060ff1681565b6102cc610554366004612888565b61120f565b61056c610567366004612888565b61121a565b6040516102649190612e3d565b61031860105481565b610280610590366004612d4e565b6112d5565b6102cc6112ff565b6102cc61130e565b6102586105b3366004612e9e565b61131d565b6102806105c6366004612ec8565b611330565b6102806105d9366004612d4e565b611352565b6011546102589060ff1681565b60006105f6826113fd565b92915050565b60005b815181101561069657306001600160a01b03166323b872dd858585858151811061062b5761062b612ee0565b60200260200101516040518463ffffffff1660e01b815260040161065193929190612ef6565b600060405180830381600087803b15801561066b57600080fd5b505af115801561067f573d6000803e3d6000fd5b50505050808061068e90612f30565b9150506105ff565b50505050565b60408051606081018252600080825260208201819052918101829052906106c4601684611439565b6000818152601560209081526040918290208251808401845290546001600160a01b03808216835261ffff600160a01b90920482168385019081528551606081018752968752925116928501929092525116908201529392505050565b606061072b611445565b905090565b600061073b82611454565b506000908152600760205260409020546001600160a01b031690565b600061076282610f03565b9050806001600160a01b0316836001600160a01b0316036107d45760405162461bcd60e51b815260206004820152602160248201527f4552433732313a20617070726f76616c20746f2063757272656e74206f776e656044820152603960f91b60648201526084015b60405180910390fd5b806001600160a01b03166107e6611479565b6001600160a01b031614806108025750610802816105b3611479565b6108745760405162461bcd60e51b815260206004820152603e60248201527f4552433732313a20617070726f76652063616c6c6572206973206e6f7420746f60448201527f6b656e206f776e6572206e6f7220617070726f76656420666f7220616c6c000060648201526084016107cb565b61087e8383611483565b505050565b61088b6114f1565b6011805460ff19166001179055565b6108ab6108a5611479565b82611560565b6108c75760405162461bcd60e51b81526004016107cb90612f49565b61087e8383836115bf565b60008281526015602052604081205481906001600160a01b031615610937576000848152601560205260409020546001600160a01b038116906127109061092490600160a01b900461ffff1686612f97565b61092e9190612fcc565b91509150610990565b6014546001600160a01b03161580159061095d5750601454600160a01b900461ffff1615155b15610989576014546001600160a01b038116906127109061092490600160a01b900461ffff1686612f97565b5060009050805b9250929050565b81518351146109e25760405162461bcd60e51b815260206004820152601760248201527608ca49e9abea89ebe988a9c8ea890be9a92a69a82a8869604b1b60448201526064016107cb565b8051835114610a305760405162461bcd60e51b815260206004820152601a60248201527908ca49e9abea89e968a9cbe988a9c8ea890be9a92a69a82a886960331b60448201526064016107cb565b60005b815181101561069657306001600160a01b03166323b872dd858381518110610a5d57610a5d612ee0565b6020026020010151858481518110610a7757610a77612ee0565b6020026020010151858581518110610a9157610a91612ee0565b60200260200101516040518463ffffffff1660e01b8152600401610ab793929190612ef6565b600060405180830381600087803b158015610ad157600080fd5b505af1158015610ae5573d6000803e3d6000fd5b505050508080610af490612f30565b915050610a33565b610b046114f1565b610b0e828261175b565b5050565b610b1a6114f1565b600c610b0e8282613062565b600054610100900460ff1615808015610b465750600054600160ff909116105b80610b675750610b55306113ea565b158015610b67575060005460ff166001145b610bca5760405162461bcd60e51b815260206004820152602e60248201527f496e697469616c697a61626c653a20636f6e747261637420697320616c72656160448201526d191e481a5b9a5d1a585b1a5e995960921b60648201526084016107cb565b6000805460ff191660011790558015610bed576000805461ff0019166101001790555b8260c00151518360a001515114610c445760405162461bcd60e51b815260206004820152601b60248201527a4552433732312f494e56414c49445f494e495449414c5f4152475360281b60448201526064016107cb565b610c4d826117e4565b610c6483600001518460200151856040015161183f565b610c7683606001518460800151611871565b610c838360e001516118a2565b610c8b6118d2565b610c93611901565b610ca7836101000151846101200151611930565b610cb5836101400151611961565b610cbd611991565b60e083015160105560005b8360a0015151811015610d2b57610d198460a001518281518110610cee57610cee612ee0565b60200260200101518560c001518381518110610d0c57610d0c612ee0565b602002602001015161175b565b80610d2381612f30565b915050610cc8565b50801561087e576000805461ff0019169055604051600181527f7f26b83ff96e1f2b6a682f133852f6798a09c465da95921460cefb38474024989060200160405180910390a1505050565b61087e838383604051806020016040528060008152506111b0565b610d996114f1565b610b0e8282808060200260200160405190810160405280939291908181526020016000905b82821015610dea57610ddb60608302860136819003810190613121565b81526020019060010190610dbe565b50505050506119c0565b6002546001600160a01b0391821691161490565b600080808080610e16611479565b6001600160a01b031614610e9257306370a08231610e32611479565b6040518263ffffffff1660e01b8152600401610e4e9190612904565b602060405180830381865afa158015610e6b573d6000803e3d6000fd5b505050506040513d601f19601f82011682018060405250810190610e8f9190613185565b90505b601054306001600160a01b03166318160ddd6040518163ffffffff1660e01b8152600401602060405180830381865afa158015610ed3573d6000803e3d6000fd5b505050506040513d601f19601f82011682018060405250810190610ef79190613185565b90959094509092509050565b6000818152600560205260408120546001600160a01b0316806105f65760405162461bcd60e51b81526004016107cb9061319e565b610f406114f1565b60115460ff1615610f635760405162461bcd60e51b81526004016107cb906131d0565b601254811015610fa95760405162461bcd60e51b81526020600482015260116024820152704c4f5745525f5448414e5f535550504c5960781b60448201526064016107cb565b601055565b60006001600160a01b0382166110185760405162461bcd60e51b815260206004820152602960248201527f4552433732313a2061646472657373207a65726f206973206e6f7420612076616044820152683634b21037bbb732b960b91b60648201526084016107cb565b506001600160a01b031660009081526006602052604090205490565b61103c6114f1565b61104660006117e4565b565b6060600c805461105790612fe0565b80601f016020809104026020016040519081016040528092919081815260200182805461108390612fe0565b80156110d05780601f106110a5576101008083540402835291602001916110d0565b820191906000526020600020905b8154815290600101906020018083116110b357829003601f168201915b5050505050905090565b600061072b6016611b67565b6000546201000090046001600160a01b031690565b6111036114f1565b600b610b0e8282613062565b6111176114f1565b6013805460ff19166001179055565b606061072b611b71565b6111386114f1565b600f5460ff161561115b5760405162461bcd60e51b81526004016107cb906131d0565b600d610b0e8282613062565b610b0e611172611479565b8383611b80565b6111816114f1565b600f5460ff16156111a45760405162461bcd60e51b81526004016107cb906131d0565b600e610b0e8282613062565b6111c16111bb611479565b83611560565b6111dd5760405162461bcd60e51b81526004016107cb90612f49565b61069684848484611c4a565b6111f16114f1565b600f805460ff19166001179055565b6060600d805461105790612fe0565b60606105f682611c7d565b604080516001808252818301909252606091816020015b604080518082019091526000808252602082015281526020019060019003908161123157505060145481519192506001600160a01b031690829060009061127a5761127a612ee0565b60209081029190910101516001600160a01b039190911690526014548151600160a01b90910461ffff169082906000906112b6576112b6612ee0565b6020908102919091018101516001600160601b03909216910152919050565b6112dd6114f1565b600280546001600160a01b0319166001600160a01b0392909216919091179055565b6060600e805461105790612fe0565b6060600b805461105790612fe0565b60006113298383611d59565b9392505050565b6113386114f1565b61134f61134a368390038301836131f0565b611dbc565b50565b61135a6114f1565b6001600160a01b0381166113bf5760405162461bcd60e51b815260206004820152602660248201527f4f776e61626c653a206e6577206f776e657220697320746865207a65726f206160448201526564647265737360d01b60648201526084016107cb565b61134f816117e4565b60006113d333610df4565b156113e5575060131936013560601c90565b503390565b6001600160a01b03163b151590565b3390565b60006301ffc9a760e01b6001600160e01b0319831614806105f65750506001600160e01b03191660009081526001602052604090205460ff1690565b60006113298383611e67565b60606009805461105790612fe0565b61145d81611e91565b61134f5760405162461bcd60e51b81526004016107cb9061319e565b600061072b6113c8565b600081815260076020526040902080546001600160a01b0319166001600160a01b03841690811790915581906114b882610f03565b6001600160a01b03167f8c5be1e5ebec7d5bd14f71427d1e84f3dd0314c0f7b2291e5b200ac8c7c3b92560405160405180910390a45050565b6114f9611479565b6001600160a01b031661150a6110e6565b6001600160a01b0316146110465760405162461bcd60e51b815260206004820181905260248201527f4f776e61626c653a2063616c6c6572206973206e6f7420746865206f776e657260448201526064016107cb565b60008061156c83610f03565b9050806001600160a01b0316846001600160a01b031614806115935750611593818561131d565b806115b75750836001600160a01b03166115ac84610730565b6001600160a01b0316145b949350505050565b826001600160a01b03166115d282610f03565b6001600160a01b0316146116365760405162461bcd60e51b815260206004820152602560248201527f4552433732313a207472616e736665722066726f6d20696e636f72726563742060448201526437bbb732b960d91b60648201526084016107cb565b6001600160a01b0382166116985760405162461bcd60e51b8152602060048201526024808201527f4552433732313a207472616e7366657220746f20746865207a65726f206164646044820152637265737360e01b60648201526084016107cb565b6116a3600082611483565b6001600160a01b03831660009081526006602052604081208054600192906116cc90849061324a565b90915550506001600160a01b03821660009081526006602052604081208054600192906116fa90849061325d565b909155505060008181526005602052604080822080546001600160a01b0319166001600160a01b0386811691821790925591518493918716917fddf252ad1be2c89b69c2b068fc378daa952ba7f163c4a11628f55a4df523b3ef91a4505050565b6010548161176860125490565b611772919061325d565b11156117b15760405162461bcd60e51b815260206004820152600e60248201526d455843454544535f535550504c5960901b60448201526064016107cb565b60005b8181101561087e576012546117c98482611eae565b6117d1611ec8565b50806117dc81612f30565b9150506117b4565b600080546001600160a01b038381166201000081810262010000600160b01b0319851617855560405193049190911692909183917f8be0079c531659141344cd1fd0a4f28419497f9722a3daafe3b4186f6b6457e091a35050565b600054610100900460ff166118665760405162461bcd60e51b81526004016107cb90613270565b61087e838383611edf565b600054610100900460ff166118985760405162461bcd60e51b81526004016107cb90613270565b610b0e8282611f5d565b600054610100900460ff166118c95760405162461bcd60e51b81526004016107cb90613270565b61134f81611fe8565b600054610100900460ff166118f95760405162461bcd60e51b81526004016107cb90613270565b611046612034565b600054610100900460ff166119285760405162461bcd60e51b81526004016107cb90613270565b61104661206b565b600054610100900460ff166119575760405162461bcd60e51b81526004016107cb90613270565b610b0e82826120a2565b600054610100900460ff166119885760405162461bcd60e51b81526004016107cb90613270565b61134f81612132565b600054610100900460ff166119b85760405162461bcd60e51b81526004016107cb90613270565b611046612159565b60005b8151811015610b0e5760008282815181106119e0576119e0612ee0565b60200260200101519050612710816040015161ffff1610611a135760405162461bcd60e51b81526004016107cb906132bb565b60208101516001600160a01b0316611a8c578051600090815260156020526040902080546001600160b01b03191690558051611a5190601690612190565b5080516040519081527fa2870857763bd9ae76c957f869f16b31c18dd3bb4c7b4d3a4496dc5c57c657f99060200160405180910390a1611b54565b6040805180820182526020808401516001600160a01b0390811683528484015161ffff90811683850190815286516000908152601590945294909220925183549451909216600160a01b026001600160b01b03199094169116179190911790558051611afa9060169061219c565b50805160208083015160408085015181519485526001600160a01b039092169284019290925261ffff1682820152517f389b70fb0887f01e83784eb1c4c589f740eca53b00ed0f45e41db5d079719abb9181900360600190a15b5080611b5f81612f30565b9150506119c3565b60006105f6825490565b6060600a805461105790612fe0565b816001600160a01b0316836001600160a01b031603611bdd5760405162461bcd60e51b815260206004820152601960248201527822a9219b99189d1030b8383937bb32903a379031b0b63632b960391b60448201526064016107cb565b6001600160a01b03838116600081815260086020908152604080832094871680845294825291829020805460ff191686151590811790915591519182527f17307eab39ab6107e8899845ad3d59bd9653f200f220920489ca2b5937696c31910160405180910390a3505050565b611c558484846115bf565b611c61848484846121a8565b6106965760405162461bcd60e51b81526004016107cb906132e0565b60606000600d8054611c8e90612fe0565b905011611d2557600c8054611ca290612fe0565b80601f0160208091040260200160405190810160405280929190818152602001828054611cce90612fe0565b8015611d1b5780601f10611cf057610100808354040283529160200191611d1b565b820191906000526020600020905b815481529060010190602001808311611cfe57829003601f168201915b50505050506105f6565b600d611d30836122b7565b600e604051602001611d44939291906133a5565b60405160208183030381529060405292915050565b60135460009060ff16611d8e57611d6e6110e6565b6001600160a01b0316826001600160a01b031603611d8e575060016105f6565b6001600160a01b0380841660009081526008602090815260408083209386168352929052205460ff16611329565b612710816020015161ffff1610611de55760405162461bcd60e51b81526004016107cb906132bb565b60408051808201825282516001600160a01b03168082526020808501805161ffff1691909301819052601480546001600160b01b031916909217600160a01b9091021790558251905191517f2c5ea6e4103e78cb101e796fb2dace540362fc542cbff5145eaa24af7dd8fe4192611e5c9291612d69565b60405180910390a150565b6000826000018281548110611e7e57611e7e612ee0565b9060005260206000200154905092915050565b6000908152600560205260409020546001600160a01b0316151590565b610b0e8282604051806020016040528060008152506123b7565b60128054906000611ed883612f30565b9190505550565b600054610100900460ff16611f065760405162461bcd60e51b81526004016107cb90613270565b6009611f128482613062565b50600a611f1f8382613062565b50600b611f2c8282613062565b50611f3d633d96f4ff60e11b6123ea565b611f4d6380ac58cd60e01b6123ea565b61087e635b5e139f60e01b6123ea565b600054610100900460ff16611f845760405162461bcd60e51b81526004016107cb90613270565b600c611f908382613062565b50600d611f9d8282613062565b50604080518082019091526005815264173539b7b760d91b6020820152600e90611fc79082613062565b50611fd8631f2f406b60e01b6123ea565b610b0e635b5e139f60e01b6123ea565b600054610100900460ff1661200f5760405162461bcd60e51b81526004016107cb90613270565b60108190556120246330f487b560e11b6123ea565b61134f6380ac58cd60e01b6123ea565b600054610100900460ff1661205b5760405162461bcd60e51b81526004016107cb90613270565b611046631aa1577160e11b6123ea565b600054610100900460ff166120925760405162461bcd60e51b81526004016107cb90613270565b61104663948e2d5360e01b6123ea565b600054610100900460ff166120c95760405162461bcd60e51b81526004016107cb90613270565b6120d9633a47bf5160e11b6123ea565b6120e963152a902d60e11b6123ea565b6120f963c69dbd8f60e01b6123ea565b61210963656cb66560e11b6123ea565b604080518082019091526001600160a01b038316815261ffff8216602082015261087e81611dbc565b600054610100900460ff166112dd5760405162461bcd60e51b81526004016107cb90613270565b600054610100900460ff166121805760405162461bcd60e51b81526004016107cb90613270565b611046632a7c3e4960e01b6123ea565b6000611329838361246b565b6000611329838361255e565b60006121bc846001600160a01b03166113ea565b156122ac57836001600160a01b031663150b7a026121d8611479565b8786866040518563ffffffff1660e01b81526004016121fa94939291906133d8565b6020604051808303816000875af1925050508015612235575060408051601f3d908101601f1916820190925261223291810190613415565b60015b612292573d808015612263576040519150601f19603f3d011682016040523d82523d6000602084013e612268565b606091505b50805160000361228a5760405162461bcd60e51b81526004016107cb906132e0565b805181602001fd5b6001600160e01b031916630a85bd0160e11b1490506115b7565b506001949350505050565b6060816000036122de5750506040805180820190915260018152600360fc1b602082015290565b8160005b811561230857806122f281612f30565b91506123019050600a83612fcc565b91506122e2565b6000816001600160401b038111156123225761232261272e565b6040519080825280601f01601f19166020018201604052801561234c576020820181803683370190505b5090505b84156115b75761236160018361324a565b915061236e600a86613432565b61237990603061325d565b60f81b81838151811061238e5761238e612ee0565b60200101906001600160f81b031916908160001a9053506123b0600a86612fcc565b9450612350565b6123c183836125ad565b6123ce60008484846121a8565b61087e5760405162461bcd60e51b81526004016107cb906132e0565b6001600160e01b031980821690036124435760405162461bcd60e51b815260206004820152601c60248201527b115490cc4d8d4e881a5b9d985b1a59081a5b9d195c999858d9481a5960221b60448201526064016107cb565b6001600160e01b0319166000908152600160208190526040909120805460ff19169091179055565b6000818152600183016020526040812054801561255457600061248f60018361324a565b85549091506000906124a39060019061324a565b90508181146125085760008660000182815481106124c3576124c3612ee0565b90600052602060002001549050808760000184815481106124e6576124e6612ee0565b6000918252602080832090910192909255918252600188019052604090208390555b855486908061251957612519613446565b6001900381819060005260206000200160009055905585600101600086815260200190815260200160002060009055600193505050506105f6565b60009150506105f6565b60008181526001830160205260408120546125a5575081546001818101845560008481526020808220909301849055845484825282860190935260409020919091556105f6565b5060006105f6565b6001600160a01b0382166126035760405162461bcd60e51b815260206004820181905260248201527f4552433732313a206d696e7420746f20746865207a65726f206164647265737360448201526064016107cb565b61260c81611e91565b156126585760405162461bcd60e51b815260206004820152601c60248201527b115490cdcc8c4e881d1bdad95b88185b1c9958591e481b5a5b9d195960221b60448201526064016107cb565b6001600160a01b038216600090815260066020526040812080546001929061268190849061325d565b909155505060008181526005602052604080822080546001600160a01b0319166001600160a01b03861690811790915590518392907fddf252ad1be2c89b69c2b068fc378daa952ba7f163c4a11628f55a4df523b3ef908290a45050565b6001600160e01b03198116811461134f57600080fd5b60006020828403121561270757600080fd5b8135611329816126df565b80356001600160a01b038116811461272957600080fd5b919050565b634e487b7160e01b600052604160045260246000fd5b60405161016081016001600160401b03811182821017156127675761276761272e565b60405290565b604051601f8201601f191681016001600160401b03811182821017156127955761279561272e565b604052919050565b60006001600160401b038211156127b6576127b661272e565b5060051b60200190565b600082601f8301126127d157600080fd5b813560206127e66127e18361279d565b61276d565b82815260059290921b8401810191818101908684111561280557600080fd5b8286015b848110156128205780358352918301918301612809565b509695505050505050565b60008060006060848603121561284057600080fd5b61284984612712565b925061285760208501612712565b915060408401356001600160401b0381111561287257600080fd5b61287e868287016127c0565b9150509250925092565b60006020828403121561289a57600080fd5b5035919050565b60005b838110156128bc5781810151838201526020016128a4565b50506000910152565b600081518084526128dd8160208601602086016128a1565b601f01601f19169290920160200192915050565b60208152600061132960208301846128c5565b6001600160a01b0391909116815260200190565b6000806040838503121561292b57600080fd5b61293483612712565b946020939093013593505050565b60008060006060848603121561295757600080fd5b61296084612712565b925061296e60208501612712565b9150604084013590509250925092565b6000806040838503121561299157600080fd5b50508035926020909101359150565b600082601f8301126129b157600080fd5b813560206129c16127e18361279d565b82815260059290921b840181019181810190868411156129e057600080fd5b8286015b84811015612820576129f581612712565b83529183019183016129e4565b600080600060608486031215612a1757600080fd5b83356001600160401b0380821115612a2e57600080fd5b612a3a878388016129a0565b94506020860135915080821115612a5057600080fd5b612a5c878388016129a0565b93506040860135915080821115612a7257600080fd5b5061287e868287016127c0565b60006001600160401b03831115612a9857612a9861272e565b612aab601f8401601f191660200161276d565b9050828152838383011115612abf57600080fd5b828260208301376000602084830101529392505050565b600082601f830112612ae757600080fd5b61132983833560208501612a7f565b600060208284031215612b0857600080fd5b81356001600160401b03811115612b1e57600080fd5b6115b784828501612ad6565b803561ffff8116811461272957600080fd5b60008060408385031215612b4f57600080fd5b82356001600160401b0380821115612b6657600080fd5b908401906101608287031215612b7b57600080fd5b612b83612744565b823582811115612b9257600080fd5b612b9e88828601612ad6565b825250602083013582811115612bb357600080fd5b612bbf88828601612ad6565b602083015250604083013582811115612bd757600080fd5b612be388828601612ad6565b604083015250606083013582811115612bfb57600080fd5b612c0788828601612ad6565b606083015250608083013582811115612c1f57600080fd5b612c2b88828601612ad6565b60808301525060a083013582811115612c4357600080fd5b612c4f888286016129a0565b60a08301525060c083013582811115612c6757600080fd5b612c73888286016127c0565b60c08301525060e083013560e08201526101009150612c93828401612712565b828201526101209150612ca7828401612b2a565b828201526101409150612cbb828401612712565b82820152809450505050612cd160208401612712565b90509250929050565b60008060208385031215612ced57600080fd5b82356001600160401b0380821115612d0457600080fd5b818501915085601f830112612d1857600080fd5b813581811115612d2757600080fd5b866020606083028501011115612d3c57600080fd5b60209290920196919550909350505050565b600060208284031215612d6057600080fd5b61132982612712565b6001600160a01b0392909216825261ffff16602082015260400190565b60008060408385031215612d9957600080fd5b612da283612712565b915060208301358015158114612db757600080fd5b809150509250929050565b60008060008060808587031215612dd857600080fd5b612de185612712565b9350612def60208601612712565b92506040850135915060608501356001600160401b03811115612e1157600080fd5b8501601f81018713612e2257600080fd5b612e3187823560208401612a7f565b91505092959194509250565b602080825282518282018190526000919060409081850190868401855b82811015612e9157815180516001600160a01b031685528601516001600160601b0316868501529284019290850190600101612e5a565b5091979650505050505050565b60008060408385031215612eb157600080fd5b612eba83612712565b9150612cd160208401612712565b600060408284031215612eda57600080fd5b50919050565b634e487b7160e01b600052603260045260246000fd5b6001600160a01b039384168152919092166020820152604081019190915260600190565b634e487b7160e01b600052601160045260246000fd5b600060018201612f4257612f42612f1a565b5060010190565b6020808252602e908201527f4552433732313a2063616c6c6572206973206e6f7420746f6b656e206f776e6560408201526d1c881b9bdc88185c1c1c9bdd995960921b606082015260800190565b6000816000190483118215151615612fb157612fb1612f1a565b500290565b634e487b7160e01b600052601260045260246000fd5b600082612fdb57612fdb612fb6565b500490565b600181811c90821680612ff457607f821691505b602082108103612eda57634e487b7160e01b600052602260045260246000fd5b601f82111561087e57600081815260208120601f850160051c8101602086101561303b5750805b601f850160051c820191505b8181101561305a57828155600101613047565b505050505050565b81516001600160401b0381111561307b5761307b61272e565b61308f816130898454612fe0565b84613014565b602080601f8311600181146130c457600084156130ac5750858301515b600019600386901b1c1916600185901b17855561305a565b600085815260208120601f198616915b828110156130f3578886015182559484019460019091019084016130d4565b50858210156131115787850151600019600388901b60f8161c191681555b5050505050600190811b01905550565b60006060828403121561313357600080fd5b604051606081018181106001600160401b03821117156131555761315561272e565b6040528235815261316860208401612712565b602082015261317960408401612b2a565b60408201529392505050565b60006020828403121561319757600080fd5b5051919050565b602080825260189082015277115490cdcc8c4e881a5b9d985b1a59081d1bdad95b88125160421b604082015260600190565b602080825260069082015265232927ad22a760d11b604082015260600190565b60006040828403121561320257600080fd5b604051604081018181106001600160401b03821117156132245761322461272e565b60405261323083612712565b815261323e60208401612b2a565b60208201529392505050565b818103818111156105f6576105f6612f1a565b808201808211156105f6576105f6612f1a565b6020808252602b908201527f496e697469616c697a61626c653a20636f6e7472616374206973206e6f74206960408201526a6e697469616c697a696e6760a81b606082015260800190565b6020808252600b908201526a496e76616c69642062707360a81b604082015260600190565b60208082526032908201527f4552433732313a207472616e7366657220746f206e6f6e20455243373231526560408201527131b2b4bb32b91034b6b83632b6b2b73a32b960711b606082015260800190565b6000815461333f81612fe0565b60018281168015613357576001811461336c5761339b565b60ff198416875282151583028701945061339b565b8560005260208060002060005b858110156133925781548a820152908401908201613379565b50505082870194505b5050505092915050565b60006133b18286613332565b84516133c18183602089016128a1565b6133cd81830186613332565b979650505050505050565b6001600160a01b038581168252841660208201526040810183905260806060820181905260009061340b908301846128c5565b9695505050505050565b60006020828403121561342757600080fd5b8151611329816126df565b60008261344157613441612fb6565b500690565b634e487b7160e01b600052603160045260246000fdfea264697066735822122072ad70a6aa55ad6f57624cc6dec56f8c5ee5a79c71332ffee04c6d287225191464736f6c63430008100033",
  "devdoc": {
    "kind": "dev",
    "methods": {
      "approve(address,uint256)": {
        "details": "See {IERC721-approve}."
      },
      "balanceOf(address)": {
        "details": "See {IERC721-balanceOf}."
      },
      "getApproved(uint256)": {
        "details": "See {IERC721-getApproved}."
      },
      "getTokenRoyaltiesCount()": {
        "details": "See {IEIP2981RoyaltyOverride-getTokenRoyaltiesCount}."
      },
      "getTokenRoyaltyByIndex(uint256)": {
        "details": "See {IEIP2981RoyaltyOverride-getTokenRoyaltyByIndex}."
      },
      "owner()": {
        "details": "Returns the address of the current owner."
      },
      "ownerOf(uint256)": {
        "details": "See {IERC721-ownerOf}."
      },
      "renounceOwnership()": {
        "details": "Leaves the contract without owner. It will not be possible to call `onlyOwner` functions anymore. Can only be called by the current owner. NOTE: Renouncing ownership will leave the contract without an owner, thereby removing any functionality that is only available to the owner."
      },
      "royaltyInfo(uint256,uint256)": {
        "details": "See {IEIP2981RoyaltyOverride-royaltyInfo}."
      },
      "safeTransferFrom(address,address,uint256)": {
        "details": "See {IERC721-safeTransferFrom}."
      },
      "safeTransferFrom(address,address,uint256,bytes)": {
        "details": "See {IERC721-safeTransferFrom}."
      },
      "setApprovalForAll(address,bool)": {
        "details": "See {IERC721-setApprovalForAll}."
      },
      "transferFrom(address,address,uint256)": {
        "details": "See {IERC721-transferFrom}."
      },
      "transferOwnership(address)": {
        "details": "Transfers ownership of the contract to a new account (`newOwner`). Can only be called by the current owner."
      }
    },
    "version": 1
  },
  "userdoc": {
    "kind": "user",
    "methods": {
      "transferFromBulk(address,address,uint256[])": {
        "notice": "Useful for when user wants to return tokens to get a refund, or when they want to transfer lots of tokens by paying gas fee only once."
      },
      "transferFromBulk(address[],address[],uint256[])": {
        "notice": "Useful for transferring multiple tokens from/to multiple addresses."
      }
    },
    "version": 1
  },
  "storageLayout": {
    "storage": [
      {
        "astId": 974,
        "contract": "contracts/collections/ERC721/presets/ERC721ManagedPrefixedCollection.sol:ERC721ManagedPrefixedCollection",
        "label": "_initialized",
        "offset": 0,
        "slot": "0",
        "type": "t_uint8"
      },
      {
        "astId": 977,
        "contract": "contracts/collections/ERC721/presets/ERC721ManagedPrefixedCollection.sol:ERC721ManagedPrefixedCollection",
        "label": "_initializing",
        "offset": 1,
        "slot": "0",
        "type": "t_bool"
      },
      {
        "astId": 782,
        "contract": "contracts/collections/ERC721/presets/ERC721ManagedPrefixedCollection.sol:ERC721ManagedPrefixedCollection",
        "label": "_owner",
        "offset": 2,
        "slot": "0",
        "type": "t_address"
      },
      {
        "astId": 5217,
        "contract": "contracts/collections/ERC721/presets/ERC721ManagedPrefixedCollection.sol:ERC721ManagedPrefixedCollection",
        "label": "_supportedInterfaces",
        "offset": 0,
        "slot": "1",
        "type": "t_mapping(t_bytes4,t_bool)"
      },
      {
        "astId": 14615,
        "contract": "contracts/collections/ERC721/presets/ERC721ManagedPrefixedCollection.sol:ERC721ManagedPrefixedCollection",
        "label": "_trustedForwarder",
        "offset": 0,
        "slot": "2",
        "type": "t_address"
      },
      {
        "astId": 2025,
        "contract": "contracts/collections/ERC721/presets/ERC721ManagedPrefixedCollection.sol:ERC721ManagedPrefixedCollection",
        "label": "_name",
        "offset": 0,
        "slot": "3",
        "type": "t_string_storage"
      },
      {
        "astId": 2027,
        "contract": "contracts/collections/ERC721/presets/ERC721ManagedPrefixedCollection.sol:ERC721ManagedPrefixedCollection",
        "label": "_symbol",
        "offset": 0,
        "slot": "4",
        "type": "t_string_storage"
      },
      {
        "astId": 2031,
        "contract": "contracts/collections/ERC721/presets/ERC721ManagedPrefixedCollection.sol:ERC721ManagedPrefixedCollection",
        "label": "_owners",
        "offset": 0,
        "slot": "5",
        "type": "t_mapping(t_uint256,t_address)"
      },
      {
        "astId": 2035,
        "contract": "contracts/collections/ERC721/presets/ERC721ManagedPrefixedCollection.sol:ERC721ManagedPrefixedCollection",
        "label": "_balances",
        "offset": 0,
        "slot": "6",
        "type": "t_mapping(t_address,t_uint256)"
      },
      {
        "astId": 2039,
        "contract": "contracts/collections/ERC721/presets/ERC721ManagedPrefixedCollection.sol:ERC721ManagedPrefixedCollection",
        "label": "_tokenApprovals",
        "offset": 0,
        "slot": "7",
        "type": "t_mapping(t_uint256,t_address)"
      },
      {
        "astId": 2045,
        "contract": "contracts/collections/ERC721/presets/ERC721ManagedPrefixedCollection.sol:ERC721ManagedPrefixedCollection",
        "label": "_operatorApprovals",
        "offset": 0,
        "slot": "8",
        "type": "t_mapping(t_address,t_mapping(t_address,t_bool))"
      },
      {
        "astId": 6694,
        "contract": "contracts/collections/ERC721/presets/ERC721ManagedPrefixedCollection.sol:ERC721ManagedPrefixedCollection",
        "label": "_name",
        "offset": 0,
        "slot": "9",
        "type": "t_string_storage"
      },
      {
        "astId": 6696,
        "contract": "contracts/collections/ERC721/presets/ERC721ManagedPrefixedCollection.sol:ERC721ManagedPrefixedCollection",
        "label": "_symbol",
        "offset": 0,
        "slot": "10",
        "type": "t_string_storage"
      },
      {
        "astId": 6698,
        "contract": "contracts/collections/ERC721/presets/ERC721ManagedPrefixedCollection.sol:ERC721ManagedPrefixedCollection",
        "label": "_contractURI",
        "offset": 0,
        "slot": "11",
        "type": "t_string_storage"
      },
      {
        "astId": 8002,
        "contract": "contracts/collections/ERC721/presets/ERC721ManagedPrefixedCollection.sol:ERC721ManagedPrefixedCollection",
        "label": "_placeholderURI",
        "offset": 0,
        "slot": "12",
        "type": "t_string_storage"
      },
      {
        "astId": 8004,
        "contract": "contracts/collections/ERC721/presets/ERC721ManagedPrefixedCollection.sol:ERC721ManagedPrefixedCollection",
        "label": "_tokenURIPrefix",
        "offset": 0,
        "slot": "13",
        "type": "t_string_storage"
      },
      {
        "astId": 8006,
        "contract": "contracts/collections/ERC721/presets/ERC721ManagedPrefixedCollection.sol:ERC721ManagedPrefixedCollection",
        "label": "_tokenURISuffix",
        "offset": 0,
        "slot": "14",
        "type": "t_string_storage"
      },
      {
        "astId": 8008,
        "contract": "contracts/collections/ERC721/presets/ERC721ManagedPrefixedCollection.sol:ERC721ManagedPrefixedCollection",
        "label": "tokenURIFrozen",
        "offset": 0,
        "slot": "15",
        "type": "t_bool"
      },
      {
        "astId": 6350,
        "contract": "contracts/collections/ERC721/presets/ERC721ManagedPrefixedCollection.sol:ERC721ManagedPrefixedCollection",
        "label": "maxSupply",
        "offset": 0,
        "slot": "16",
        "type": "t_uint256"
      },
      {
        "astId": 6352,
        "contract": "contracts/collections/ERC721/presets/ERC721ManagedPrefixedCollection.sol:ERC721ManagedPrefixedCollection",
        "label": "maxSupplyFrozen",
        "offset": 0,
        "slot": "17",
        "type": "t_bool"
      },
      {
        "astId": 6355,
        "contract": "contracts/collections/ERC721/presets/ERC721ManagedPrefixedCollection.sol:ERC721ManagedPrefixedCollection",
        "label": "_currentTokenId",
        "offset": 0,
        "slot": "18",
        "type": "t_uint256"
      },
      {
        "astId": 7393,
        "contract": "contracts/collections/ERC721/presets/ERC721ManagedPrefixedCollection.sol:ERC721ManagedPrefixedCollection",
        "label": "managementPowerRevoked",
        "offset": 0,
        "slot": "19",
        "type": "t_bool"
      },
      {
        "astId": 86,
        "contract": "contracts/collections/ERC721/presets/ERC721ManagedPrefixedCollection.sol:ERC721ManagedPrefixedCollection",
        "label": "defaultRoyalty",
        "offset": 0,
        "slot": "20",
        "type": "t_struct(TokenRoyalty)28_storage"
      },
      {
        "astId": 91,
        "contract": "contracts/collections/ERC721/presets/ERC721ManagedPrefixedCollection.sol:ERC721ManagedPrefixedCollection",
        "label": "_tokenRoyalties",
        "offset": 0,
        "slot": "21",
        "type": "t_mapping(t_uint256,t_struct(TokenRoyalty)28_storage)"
      },
      {
        "astId": 94,
        "contract": "contracts/collections/ERC721/presets/ERC721ManagedPrefixedCollection.sol:ERC721ManagedPrefixedCollection",
        "label": "_tokensWithRoyalties",
        "offset": 0,
        "slot": "22",
        "type": "t_struct(UintSet)6188_storage"
      }
    ],
    "types": {
      "t_address": {
        "encoding": "inplace",
        "label": "address",
        "numberOfBytes": "20"
      },
      "t_array(t_bytes32)dyn_storage": {
        "base": "t_bytes32",
        "encoding": "dynamic_array",
        "label": "bytes32[]",
        "numberOfBytes": "32"
      },
      "t_bool": {
        "encoding": "inplace",
        "label": "bool",
        "numberOfBytes": "1"
      },
      "t_bytes32": {
        "encoding": "inplace",
        "label": "bytes32",
        "numberOfBytes": "32"
      },
      "t_bytes4": {
        "encoding": "inplace",
        "label": "bytes4",
        "numberOfBytes": "4"
      },
      "t_mapping(t_address,t_bool)": {
        "encoding": "mapping",
        "key": "t_address",
        "label": "mapping(address => bool)",
        "numberOfBytes": "32",
        "value": "t_bool"
      },
      "t_mapping(t_address,t_mapping(t_address,t_bool))": {
        "encoding": "mapping",
        "key": "t_address",
        "label": "mapping(address => mapping(address => bool))",
        "numberOfBytes": "32",
        "value": "t_mapping(t_address,t_bool)"
      },
      "t_mapping(t_address,t_uint256)": {
        "encoding": "mapping",
        "key": "t_address",
        "label": "mapping(address => uint256)",
        "numberOfBytes": "32",
        "value": "t_uint256"
      },
      "t_mapping(t_bytes32,t_uint256)": {
        "encoding": "mapping",
        "key": "t_bytes32",
        "label": "mapping(bytes32 => uint256)",
        "numberOfBytes": "32",
        "value": "t_uint256"
      },
      "t_mapping(t_bytes4,t_bool)": {
        "encoding": "mapping",
        "key": "t_bytes4",
        "label": "mapping(bytes4 => bool)",
        "numberOfBytes": "32",
        "value": "t_bool"
      },
      "t_mapping(t_uint256,t_address)": {
        "encoding": "mapping",
        "key": "t_uint256",
        "label": "mapping(uint256 => address)",
        "numberOfBytes": "32",
        "value": "t_address"
      },
      "t_mapping(t_uint256,t_struct(TokenRoyalty)28_storage)": {
        "encoding": "mapping",
        "key": "t_uint256",
        "label": "mapping(uint256 => struct IEIP2981RoyaltyOverride.TokenRoyalty)",
        "numberOfBytes": "32",
        "value": "t_struct(TokenRoyalty)28_storage"
      },
      "t_string_storage": {
        "encoding": "bytes",
        "label": "string",
        "numberOfBytes": "32"
      },
      "t_struct(Set)5730_storage": {
        "encoding": "inplace",
        "label": "struct EnumerableSet.Set",
        "members": [
          {
            "astId": 5725,
            "contract": "contracts/collections/ERC721/presets/ERC721ManagedPrefixedCollection.sol:ERC721ManagedPrefixedCollection",
            "label": "_values",
            "offset": 0,
            "slot": "0",
            "type": "t_array(t_bytes32)dyn_storage"
          },
          {
            "astId": 5729,
            "contract": "contracts/collections/ERC721/presets/ERC721ManagedPrefixedCollection.sol:ERC721ManagedPrefixedCollection",
            "label": "_indexes",
            "offset": 0,
            "slot": "1",
            "type": "t_mapping(t_bytes32,t_uint256)"
          }
        ],
        "numberOfBytes": "64"
      },
      "t_struct(TokenRoyalty)28_storage": {
        "encoding": "inplace",
        "label": "struct IEIP2981RoyaltyOverride.TokenRoyalty",
        "members": [
          {
            "astId": 25,
            "contract": "contracts/collections/ERC721/presets/ERC721ManagedPrefixedCollection.sol:ERC721ManagedPrefixedCollection",
            "label": "recipient",
            "offset": 0,
            "slot": "0",
            "type": "t_address"
          },
          {
            "astId": 27,
            "contract": "contracts/collections/ERC721/presets/ERC721ManagedPrefixedCollection.sol:ERC721ManagedPrefixedCollection",
            "label": "bps",
            "offset": 20,
            "slot": "0",
            "type": "t_uint16"
          }
        ],
        "numberOfBytes": "32"
      },
      "t_struct(UintSet)6188_storage": {
        "encoding": "inplace",
        "label": "struct EnumerableSet.UintSet",
        "members": [
          {
            "astId": 6187,
            "contract": "contracts/collections/ERC721/presets/ERC721ManagedPrefixedCollection.sol:ERC721ManagedPrefixedCollection",
            "label": "_inner",
            "offset": 0,
            "slot": "0",
            "type": "t_struct(Set)5730_storage"
          }
        ],
        "numberOfBytes": "64"
      },
      "t_uint16": {
        "encoding": "inplace",
        "label": "uint16",
        "numberOfBytes": "2"
      },
      "t_uint256": {
        "encoding": "inplace",
        "label": "uint256",
        "numberOfBytes": "32"
      },
      "t_uint8": {
        "encoding": "inplace",
        "label": "uint8",
        "numberOfBytes": "1"
      }
    }
  }
}