{
  "address": "0x82282b7c01C36FD7aE461d4FD3d9854E909FE832",
  "abi": [
    {
      "inputs": [
        {
          "components": [
            {
              "internalType": "address",
              "name": "ticketToken",
              "type": "address"
            },
            {
              "internalType": "uint64",
              "name": "lockedUntilTimestamp",
              "type": "uint64"
            },
            {
              "internalType": "uint64",
              "name": "minStakingLockTime",
              "type": "uint64"
            },
            {
              "internalType": "uint64",
              "name": "maxStakingTotalDurations",
              "type": "uint64"
            },
            {
              "internalType": "uint256",
              "name": "emissionRate",
              "type": "uint256"
            },
            {
              "internalType": "uint64",
              "name": "emissionTimeUnit",
              "type": "uint64"
            },
            {
              "internalType": "uint64",
              "name": "emissionStart",
              "type": "uint64"
            },
            {
              "internalType": "uint64",
              "name": "emissionEnd",
              "type": "uint64"
            },
            {
              "internalType": "uint64",
              "name": "claimLockedUntil",
              "type": "uint64"
            }
          ],
          "internalType": "struct ERC721StakingEmissionStream.Config",
          "name": "config",
          "type": "tuple"
        }
      ],
      "stateMutability": "nonpayable",
      "type": "constructor"
    },
    {
      "anonymous": false,
      "inputs": [
        {
          "indexed": false,
          "internalType": "address",
          "name": "operator",
          "type": "address"
        },
        {
          "indexed": false,
          "internalType": "address",
          "name": "beneficiary",
          "type": "address"
        },
        {
          "indexed": false,
          "internalType": "uint256",
          "name": "ticketTokenId",
          "type": "uint256"
        },
        {
          "indexed": false,
          "internalType": "address",
          "name": "claimToken",
          "type": "address"
        },
        {
          "indexed": false,
          "internalType": "uint256",
          "name": "releasedAmount",
          "type": "uint256"
        }
      ],
      "name": "Claim",
      "type": "event"
    },
    {
      "anonymous": false,
      "inputs": [
        {
          "indexed": false,
          "internalType": "address",
          "name": "operator",
          "type": "address"
        },
        {
          "indexed": false,
          "internalType": "address",
          "name": "beneficiary",
          "type": "address"
        },
        {
          "indexed": false,
          "internalType": "uint256[]",
          "name": "ticketTokenIds",
          "type": "uint256[]"
        },
        {
          "indexed": false,
          "internalType": "address",
          "name": "claimToken",
          "type": "address"
        },
        {
          "indexed": false,
          "internalType": "uint256",
          "name": "releasedAmount",
          "type": "uint256"
        }
      ],
      "name": "ClaimMany",
      "type": "event"
    },
    {
      "anonymous": false,
      "inputs": [],
      "name": "EmergencyPowerRevoked",
      "type": "event"
    },
    {
      "anonymous": false,
      "inputs": [
        {
          "indexed": false,
          "internalType": "address[]",
          "name": "claimTokens",
          "type": "address[]"
        }
      ],
      "name": "EmergencyWithdrawn",
      "type": "event"
    },
    {
      "anonymous": false,
      "inputs": [
        {
          "indexed": false,
          "internalType": "uint8",
          "name": "version",
          "type": "uint8"
        }
      ],
      "name": "Initialized",
      "type": "event"
    },
    {
      "anonymous": false,
      "inputs": [
        {
          "indexed": true,
          "internalType": "address",
          "name": "previousOwner",
          "type": "address"
        },
        {
          "indexed": true,
          "internalType": "address",
          "name": "newOwner",
          "type": "address"
        }
      ],
      "name": "OwnershipTransferred",
      "type": "event"
    },
    {
      "inputs": [
        {
          "internalType": "uint256",
          "name": "ticketTokenId",
          "type": "uint256"
        }
      ],
      "name": "claim",
      "outputs": [],
      "stateMutability": "nonpayable",
      "type": "function"
    },
    {
      "inputs": [
        {
          "internalType": "uint256[]",
          "name": "ticketTokenIds",
          "type": "uint256[]"
        }
      ],
      "name": "claim",
      "outputs": [],
      "stateMutability": "nonpayable",
      "type": "function"
    },
    {
      "inputs": [
        {
          "internalType": "uint256",
          "name": "ticketTokenId",
          "type": "uint256"
        },
        {
          "internalType": "address",
          "name": "claimToken",
          "type": "address"
        }
      ],
      "name": "claim",
      "outputs": [],
      "stateMutability": "nonpayable",
      "type": "function"
    },
    {
      "inputs": [
        {
          "internalType": "uint256[]",
          "name": "ticketTokenIds",
          "type": "uint256[]"
        },
        {
          "internalType": "address",
          "name": "claimToken",
          "type": "address"
        },
        {
          "internalType": "address",
          "name": "owner",
          "type": "address"
        }
      ],
      "name": "claim",
      "outputs": [],
      "stateMutability": "nonpayable",
      "type": "function"
    },
    {
      "inputs": [],
      "name": "claimLockedUntil",
      "outputs": [
        {
          "internalType": "uint64",
          "name": "",
          "type": "uint64"
        }
      ],
      "stateMutability": "view",
      "type": "function"
    },
    {
      "inputs": [],
      "name": "emergencyPowerRevoked",
      "outputs": [
        {
          "internalType": "bool",
          "name": "",
          "type": "bool"
        }
      ],
      "stateMutability": "view",
      "type": "function"
    },
    {
      "inputs": [
        {
          "internalType": "address[]",
          "name": "claimTokens",
          "type": "address[]"
        }
      ],
      "name": "emergencyWithdraw",
      "outputs": [],
      "stateMutability": "nonpayable",
      "type": "function"
    },
    {
      "inputs": [
        {
          "internalType": "uint64",
          "name": "calcUntil",
          "type": "uint64"
        }
      ],
      "name": "emissionAmountUntil",
      "outputs": [
        {
          "internalType": "uint256",
          "name": "",
          "type": "uint256"
        }
      ],
      "stateMutability": "view",
      "type": "function"
    },
    {
      "inputs": [],
      "name": "emissionEnd",
      "outputs": [
        {
          "internalType": "uint64",
          "name": "",
          "type": "uint64"
        }
      ],
      "stateMutability": "view",
      "type": "function"
    },
    {
      "inputs": [],
      "name": "emissionRate",
      "outputs": [
        {
          "internalType": "uint256",
          "name": "",
          "type": "uint256"
        }
      ],
      "stateMutability": "view",
      "type": "function"
    },
    {
      "inputs": [],
      "name": "emissionStart",
      "outputs": [
        {
          "internalType": "uint64",
          "name": "",
          "type": "uint64"
        }
      ],
      "stateMutability": "view",
      "type": "function"
    },
    {
      "inputs": [],
      "name": "emissionTimeUnit",
      "outputs": [
        {
          "internalType": "uint64",
          "name": "",
          "type": "uint64"
        }
      ],
      "stateMutability": "view",
      "type": "function"
    },
    {
      "inputs": [
        {
          "internalType": "uint256",
          "name": "",
          "type": "uint256"
        },
        {
          "internalType": "address",
          "name": "",
          "type": "address"
        }
      ],
      "name": "entitlements",
      "outputs": [
        {
          "internalType": "uint256",
          "name": "totalClaimed",
          "type": "uint256"
        },
        {
          "internalType": "uint256",
          "name": "lastClaimedAt",
          "type": "uint256"
        }
      ],
      "stateMutability": "view",
      "type": "function"
    },
    {
      "inputs": [],
      "name": "hasERC721EmissionReleaseExtension",
      "outputs": [
        {
          "internalType": "bool",
          "name": "",
          "type": "bool"
        }
      ],
      "stateMutability": "pure",
      "type": "function"
    },
    {
      "inputs": [],
      "name": "hasERC721LockableClaimExtension",
      "outputs": [
        {
          "internalType": "bool",
          "name": "",
          "type": "bool"
        }
      ],
      "stateMutability": "pure",
      "type": "function"
    },
    {
      "inputs": [],
      "name": "hasERC721LockedStakingExtension",
      "outputs": [
        {
          "internalType": "bool",
          "name": "",
          "type": "bool"
        }
      ],
      "stateMutability": "pure",
      "type": "function"
    },
    {
      "inputs": [
        {
          "components": [
            {
              "internalType": "address",
              "name": "ticketToken",
              "type": "address"
            },
            {
              "internalType": "uint64",
              "name": "lockedUntilTimestamp",
              "type": "uint64"
            },
            {
              "internalType": "uint64",
              "name": "minStakingLockTime",
              "type": "uint64"
            },
            {
              "internalType": "uint64",
              "name": "maxStakingTotalDurations",
              "type": "uint64"
            },
            {
              "internalType": "uint256",
              "name": "emissionRate",
              "type": "uint256"
            },
            {
              "internalType": "uint64",
              "name": "emissionTimeUnit",
              "type": "uint64"
            },
            {
              "internalType": "uint64",
              "name": "emissionStart",
              "type": "uint64"
            },
            {
              "internalType": "uint64",
              "name": "emissionEnd",
              "type": "uint64"
            },
            {
              "internalType": "uint64",
              "name": "claimLockedUntil",
              "type": "uint64"
            }
          ],
          "internalType": "struct ERC721StakingEmissionStream.Config",
          "name": "config",
          "type": "tuple"
        },
        {
          "internalType": "address",
          "name": "deployer",
          "type": "address"
        }
      ],
      "name": "initialize",
      "outputs": [],
      "stateMutability": "nonpayable",
      "type": "function"
    },
    {
      "inputs": [
        {
          "internalType": "uint256",
          "name": "",
          "type": "uint256"
        }
      ],
      "name": "lastStakingTime",
      "outputs": [
        {
          "internalType": "uint64",
          "name": "",
          "type": "uint64"
        }
      ],
      "stateMutability": "view",
      "type": "function"
    },
    {
      "inputs": [
        {
          "internalType": "uint64",
          "name": "newValue",
          "type": "uint64"
        }
      ],
      "name": "lockUntil",
      "outputs": [],
      "stateMutability": "nonpayable",
      "type": "function"
    },
    {
      "inputs": [],
      "name": "lockedUntilTimestamp",
      "outputs": [
        {
          "internalType": "uint64",
          "name": "",
          "type": "uint64"
        }
      ],
      "stateMutability": "view",
      "type": "function"
    },
    {
      "inputs": [],
      "name": "maxStakingTotalDurations",
      "outputs": [
        {
          "internalType": "uint64",
          "name": "",
          "type": "uint64"
        }
      ],
      "stateMutability": "view",
      "type": "function"
    },
    {
      "inputs": [],
      "name": "minStakingLockTime",
      "outputs": [
        {
          "internalType": "uint64",
          "name": "",
          "type": "uint64"
        }
      ],
      "stateMutability": "view",
      "type": "function"
    },
    {
      "inputs": [],
      "name": "name",
      "outputs": [
        {
          "internalType": "string",
          "name": "",
          "type": "string"
        }
      ],
      "stateMutability": "view",
      "type": "function"
    },
    {
      "inputs": [],
      "name": "owner",
      "outputs": [
        {
          "internalType": "address",
          "name": "",
          "type": "address"
        }
      ],
      "stateMutability": "view",
      "type": "function"
    },
    {
      "inputs": [
        {
          "internalType": "uint64",
          "name": "calcUntil",
          "type": "uint64"
        }
      ],
      "name": "releasedAmountUntil",
      "outputs": [
        {
          "internalType": "uint256",
          "name": "",
          "type": "uint256"
        }
      ],
      "stateMutability": "view",
      "type": "function"
    },
    {
      "inputs": [],
      "name": "renounceOwnership",
      "outputs": [],
      "stateMutability": "nonpayable",
      "type": "function"
    },
    {
      "inputs": [],
      "name": "revokeEmergencyPower",
      "outputs": [],
      "stateMutability": "nonpayable",
      "type": "function"
    },
    {
      "inputs": [
        {
          "internalType": "uint256",
          "name": "",
          "type": "uint256"
        }
      ],
      "name": "savedStakedDurations",
      "outputs": [
        {
          "internalType": "uint64",
          "name": "",
          "type": "uint64"
        }
      ],
      "stateMutability": "view",
      "type": "function"
    },
    {
      "inputs": [
        {
          "internalType": "uint64",
          "name": "newValue",
          "type": "uint64"
        }
      ],
      "name": "setClaimLockedUntil",
      "outputs": [],
      "stateMutability": "nonpayable",
      "type": "function"
    },
    {
      "inputs": [
        {
          "internalType": "uint64",
          "name": "newValue",
          "type": "uint64"
        }
      ],
      "name": "setEmissionEnd",
      "outputs": [],
      "stateMutability": "nonpayable",
      "type": "function"
    },
    {
      "inputs": [
        {
          "internalType": "uint256",
          "name": "newValue",
          "type": "uint256"
        }
      ],
      "name": "setEmissionRate",
      "outputs": [],
      "stateMutability": "nonpayable",
      "type": "function"
    },
    {
      "inputs": [
        {
          "internalType": "uint64",
          "name": "newValue",
          "type": "uint64"
        }
      ],
      "name": "setEmissionStart",
      "outputs": [],
      "stateMutability": "nonpayable",
      "type": "function"
    },
    {
      "inputs": [
        {
          "internalType": "uint64",
          "name": "newValue",
          "type": "uint64"
        }
      ],
      "name": "setEmissionTimeUnit",
      "outputs": [],
      "stateMutability": "nonpayable",
      "type": "function"
    },
    {
      "inputs": [
        {
          "internalType": "uint64",
          "name": "newValue",
          "type": "uint64"
        }
      ],
      "name": "setMaxStakingTotalDurations",
      "outputs": [],
      "stateMutability": "nonpayable",
      "type": "function"
    },
    {
      "inputs": [
        {
          "internalType": "uint64",
          "name": "newValue",
          "type": "uint64"
        }
      ],
      "name": "setMinStakingLockTime",
      "outputs": [],
      "stateMutability": "nonpayable",
      "type": "function"
    },
    {
      "inputs": [
        {
          "internalType": "uint256[]",
          "name": "tokenIds",
          "type": "uint256[]"
        }
      ],
      "name": "stake",
      "outputs": [],
      "stateMutability": "nonpayable",
      "type": "function"
    },
    {
      "inputs": [
        {
          "internalType": "uint256",
          "name": "tokenId",
          "type": "uint256"
        }
      ],
      "name": "stake",
      "outputs": [],
      "stateMutability": "nonpayable",
      "type": "function"
    },
    {
      "inputs": [
        {
          "internalType": "uint256[]",
          "name": "ticketTokenIds",
          "type": "uint256[]"
        },
        {
          "internalType": "address",
          "name": "claimToken",
          "type": "address"
        }
      ],
      "name": "streamClaimableAmount",
      "outputs": [
        {
          "internalType": "uint256",
          "name": "",
          "type": "uint256"
        }
      ],
      "stateMutability": "view",
      "type": "function"
    },
    {
      "inputs": [
        {
          "internalType": "uint256",
          "name": "ticketTokenId",
          "type": "uint256"
        }
      ],
      "name": "streamClaimableAmount",
      "outputs": [
        {
          "internalType": "uint256",
          "name": "",
          "type": "uint256"
        }
      ],
      "stateMutability": "view",
      "type": "function"
    },
    {
      "inputs": [
        {
          "internalType": "uint256",
          "name": "ticketTokenId",
          "type": "uint256"
        },
        {
          "internalType": "address",
          "name": "claimToken",
          "type": "address"
        }
      ],
      "name": "streamClaimableAmount",
      "outputs": [
        {
          "internalType": "uint256",
          "name": "",
          "type": "uint256"
        }
      ],
      "stateMutability": "view",
      "type": "function"
    },
    {
      "inputs": [
        {
          "internalType": "uint256[]",
          "name": "ticketTokenIds",
          "type": "uint256[]"
        },
        {
          "internalType": "address",
          "name": "claimToken",
          "type": "address"
        }
      ],
      "name": "streamTotalClaimed",
      "outputs": [
        {
          "internalType": "uint256",
          "name": "",
          "type": "uint256"
        }
      ],
      "stateMutability": "view",
      "type": "function"
    },
    {
      "inputs": [],
      "name": "streamTotalClaimed",
      "outputs": [
        {
          "internalType": "uint256",
          "name": "",
          "type": "uint256"
        }
      ],
      "stateMutability": "view",
      "type": "function"
    },
    {
      "inputs": [
        {
          "internalType": "uint256[]",
          "name": "ticketTokenIds",
          "type": "uint256[]"
        }
      ],
      "name": "streamTotalClaimed",
      "outputs": [
        {
          "internalType": "uint256",
          "name": "",
          "type": "uint256"
        }
      ],
      "stateMutability": "view",
      "type": "function"
    },
    {
      "inputs": [
        {
          "internalType": "uint256",
          "name": "ticketTokenId",
          "type": "uint256"
        },
        {
          "internalType": "address",
          "name": "claimToken",
          "type": "address"
        }
      ],
      "name": "streamTotalClaimed",
      "outputs": [
        {
          "internalType": "uint256",
          "name": "",
          "type": "uint256"
        }
      ],
      "stateMutability": "view",
      "type": "function"
    },
    {
      "inputs": [
        {
          "internalType": "address",
          "name": "claimToken",
          "type": "address"
        }
      ],
      "name": "streamTotalClaimed",
      "outputs": [
        {
          "internalType": "uint256",
          "name": "",
          "type": "uint256"
        }
      ],
      "stateMutability": "view",
      "type": "function"
    },
    {
      "inputs": [
        {
          "internalType": "uint256",
          "name": "ticketTokenId",
          "type": "uint256"
        }
      ],
      "name": "streamTotalClaimed",
      "outputs": [
        {
          "internalType": "uint256",
          "name": "",
          "type": "uint256"
        }
      ],
      "stateMutability": "view",
      "type": "function"
    },
    {
      "inputs": [],
      "name": "streamTotalSupply",
      "outputs": [
        {
          "internalType": "uint256",
          "name": "",
          "type": "uint256"
        }
      ],
      "stateMutability": "view",
      "type": "function"
    },
    {
      "inputs": [
        {
          "internalType": "address",
          "name": "claimToken",
          "type": "address"
        }
      ],
      "name": "streamTotalSupply",
      "outputs": [
        {
          "internalType": "uint256",
          "name": "",
          "type": "uint256"
        }
      ],
      "stateMutability": "view",
      "type": "function"
    },
    {
      "inputs": [
        {
          "internalType": "bytes4",
          "name": "interfaceId",
          "type": "bytes4"
        }
      ],
      "name": "supportsInterface",
      "outputs": [
        {
          "internalType": "bool",
          "name": "",
          "type": "bool"
        }
      ],
      "stateMutability": "view",
      "type": "function"
    },
    {
      "inputs": [],
      "name": "ticketToken",
      "outputs": [
        {
          "internalType": "address",
          "name": "",
          "type": "address"
        }
      ],
      "stateMutability": "view",
      "type": "function"
    },
    {
      "inputs": [
        {
          "internalType": "uint256",
          "name": "ticketTokenId",
          "type": "uint256"
        }
      ],
      "name": "totalStakedDuration",
      "outputs": [
        {
          "internalType": "uint64",
          "name": "",
          "type": "uint64"
        }
      ],
      "stateMutability": "view",
      "type": "function"
    },
    {
      "inputs": [
        {
          "internalType": "uint256[]",
          "name": "ticketTokenIds",
          "type": "uint256[]"
        }
      ],
      "name": "totalStakedDuration",
      "outputs": [
        {
          "internalType": "uint64",
          "name": "",
          "type": "uint64"
        }
      ],
      "stateMutability": "view",
      "type": "function"
    },
    {
      "inputs": [
        {
          "internalType": "address",
          "name": "newOwner",
          "type": "address"
        }
      ],
      "name": "transferOwnership",
      "outputs": [],
      "stateMutability": "nonpayable",
      "type": "function"
    },
    {
      "inputs": [
        {
          "internalType": "uint256[]",
          "name": "ticketTokenIds",
          "type": "uint256[]"
        }
      ],
      "name": "unlockingTime",
      "outputs": [
        {
          "internalType": "uint256[]",
          "name": "",
          "type": "uint256[]"
        }
      ],
      "stateMutability": "view",
      "type": "function"
    },
    {
      "inputs": [
        {
          "internalType": "uint256",
          "name": "ticketTokenId",
          "type": "uint256"
        }
      ],
      "name": "unlockingTime",
      "outputs": [
        {
          "internalType": "uint256",
          "name": "",
          "type": "uint256"
        }
      ],
      "stateMutability": "view",
      "type": "function"
    },
    {
      "inputs": [
        {
          "internalType": "uint256",
          "name": "tokenId",
          "type": "uint256"
        }
      ],
      "name": "unstake",
      "outputs": [],
      "stateMutability": "nonpayable",
      "type": "function"
    },
    {
      "inputs": [
        {
          "internalType": "uint256[]",
          "name": "tokenIds",
          "type": "uint256[]"
        }
      ],
      "name": "unstake",
      "outputs": [],
      "stateMutability": "nonpayable",
      "type": "function"
    },
    {
      "inputs": [],
      "name": "version",
      "outputs": [
        {
          "internalType": "string",
          "name": "",
          "type": "string"
        }
      ],
      "stateMutability": "view",
      "type": "function"
    },
    {
      "stateMutability": "payable",
      "type": "receive"
    }
  ],
  "transactionHash": "0xdc30bb13023c8237bed4400dfb0848ef028432cb3243e4fe5a4b851451bf3703",
  "args": [
    {
      "ticketToken": "0x0000000000000000000000000000000000000000",
      "lockedUntilTimestamp": 0,
      "minStakingLockTime": 0,
      "maxStakingTotalDurations": 0,
      "emissionRate": 0,
      "emissionTimeUnit": 0,
      "emissionStart": 0,
      "emissionEnd": 0,
      "claimLockedUntil": 0
    }
  ],
  "numDeployments": 1,
  "solcInputHash": "3223f5fd7f0e19e9f93d0d54288f152e",
  "bytecode": "0x60806040523480156200001157600080fd5b5060405162003c4838038062003c4883398101604081905262000034916200065a565b6200003f3362000057565b6001600355620000508133620000a9565b50620007b5565b600280546001600160a01b038381166001600160a01b0319831681179093556040519116919082907f8be0079c531659141344cd1fd0a4f28419497f9722a3daafe3b4186f6b6457e090600090a35050565b6000620000b7600162000193565b90508015620000d0576000805461ff0019166101001790555b620000db8262000057565b620000e562000245565b82516020840151620000f891906200027b565b6200011283604001518460600151620002b560201b60201c565b6200013683608001518460a001518560c001518660e00151620002eb60201b60201c565b610100830151620001479062000329565b80156200018e576000805461ff0019169055604051600181527f7f26b83ff96e1f2b6a682f133852f6798a09c465da95921460cefb38474024989060200160405180910390a15b505050565b60008054610100900460ff1615620001fc578160ff166001148015620001cc5750620001ca306200036160201b620020ad1760201c565b155b620001f45760405162461bcd60e51b8152600401620001eb906200071c565b60405180910390fd5b506000919050565b60005460ff808416911610620002265760405162461bcd60e51b8152600401620001eb906200071c565b506000805460ff191660ff92909216919091179055600190565b919050565b600054610100900460ff166200026f5760405162461bcd60e51b8152600401620001eb906200076a565b6200027962000370565b565b600054610100900460ff16620002a55760405162461bcd60e51b8152600401620001eb906200076a565b620002b18282620003ac565b5050565b600054610100900460ff16620002df5760405162461bcd60e51b8152600401620001eb906200076a565b620002b1828262000416565b600054610100900460ff16620003155760405162461bcd60e51b8152600401620001eb906200076a565b620003238484848462000491565b50505050565b600054610100900460ff16620003535760405162461bcd60e51b8152600401620001eb906200076a565b6200035e816200051c565b50565b6001600160a01b03163b151590565b600054610100900460ff166200039a5760405162461bcd60e51b8152600401620001eb906200076a565b620002796326bcdb3160e01b6200056e565b600054610100900460ff16620003d65760405162461bcd60e51b8152600401620001eb906200076a565b600480546001600160401b038316600160a01b026001600160e01b03199091166001600160a01b03851617179055620002b1631ba050e960e21b6200056e565b600054610100900460ff16620004405760405162461bcd60e51b8152600401620001eb906200076a565b600880546001600160c01b0316600160c01b6001600160401b038581169190910291909117909155600980546001600160401b031916918316919091179055620002b1630fe9fbd560e31b6200056e565b600054610100900460ff16620004bb5760405162461bcd60e51b8152600401620001eb906200076a565b6007849055600880546001600160401b03838116600160801b02600160801b600160c01b031986831668010000000000000000026001600160801b031990941692881692909217929092171617905562000323634d0b5a4960e01b6200056e565b600054610100900460ff16620005465760405162461bcd60e51b8152600401620001eb906200076a565b600c80546001600160401b0319166001600160401b0383161790556200035e6317b2ef4360e31b5b6001600160e01b03198082161415620005ca5760405162461bcd60e51b815260206004820152601c60248201527f4552433136353a20696e76616c696420696e74657266616365206964000000006044820152606401620001eb565b6001600160e01b0319166000908152600160208190526040909120805460ff19169091179055565b60405161012081016001600160401b03811182821017156200062457634e487b7160e01b600052604160045260246000fd5b60405290565b80516001600160a01b03811681146200024057600080fd5b80516001600160401b03811681146200024057600080fd5b600061012082840312156200066e57600080fd5b62000678620005f2565b62000683836200062a565b8152620006936020840162000642565b6020820152620006a66040840162000642565b6040820152620006b96060840162000642565b606082015260808301516080820152620006d660a0840162000642565b60a0820152620006e960c0840162000642565b60c0820152620006fc60e0840162000642565b60e08201526101006200071181850162000642565b908201529392505050565b6020808252602e908201527f496e697469616c697a61626c653a20636f6e747261637420697320616c72656160408201526d191e481a5b9a5d1a585b1a5e995960921b606082015260800190565b6020808252602b908201527f496e697469616c697a61626c653a20636f6e7472616374206973206e6f74206960408201526a6e697469616c697a696e6760a81b606082015260800190565b61348380620007c56000396000f3fe6080604052600436106102955760003560e01c80630191c0af146102ae57806301c1dfba146102e157806301ffc9a71461030157806306fdde031461033157806308289dbe146103875780630c805a44146103d55780630fbf0a931461040b57806314427a961461042b5780631c725fdc1461044b57806325289bad1461046b578063277d048b146104925780632890d033146104a75780632c0e1313146104bc5780632e17de78146104dc57806333abcdbd146104fc578063379607f51461051c5780633b3f12e21461053c5780633d2dded51461055c5780634abb4c49146105995780634e631783146105c6578063513da948146105e757806354fd4d501461060e57806357dc48c81461063d57806361949636146106915780636b10939c146106b15780636ba4c138146106d1578063715018a6146106f157806378b094ca14610706578063790c0c73146107265780638368909c1461074657806389c6b8151461076d5780638da5cb5b1461078d5780639199690b146107af578063968d9b2c146107c357806396afc450146107e35780639edfe830146107f9578063a1bdb15e14610819578063a1cf649314610839578063a694fc3a1461087c578063a86b21e81461089c578063a8d2d338146108bc578063aaf2f999146108dc578063c0881849146108fc578063d0d6641d14610932578063d1335b69146107af578063d4244f2414610952578063d5ed4d5a14610972578063d6642801146107af578063d870a15114610992578063d97314f5146109b9578063ddd5e1b2146109d9578063de76a676146109f9578063e449f34114610a19578063f2fde38b14610a39578063f389b6e414610a59578063f4415ad614610a79578063f593dfc814610ab1578063f66e38c214610ad157600080fd5b366102a957600034116102a757600080fd5b005b600080fd5b3480156102ba57600080fd5b506102ce6102c9366004612cb6565b610af1565b6040519081526020015b60405180910390f35b3480156102ed57600080fd5b506102a76102fc366004612d0c565b610b47565b34801561030d57600080fd5b5061032161031c366004612d4d565b610d9b565b60405190151581526020016102d8565b34801561033d57600080fd5b5061037a6040518060400160405280601e81526020017f455243373231205374616b696e6720456d697373696f6e2053747265616d000081525081565b6040516102d89190612d77565b34801561039357600080fd5b506103bd6103a2366004612dcc565b600b602052600090815260409020546001600160401b031681565b6040516001600160401b0390911681526020016102d8565b3480156103e157600080fd5b506103bd6103f0366004612dcc565b600a602052600090815260409020546001600160401b031681565b34801561041757600080fd5b506102a7610426366004612d0c565b610ddb565b34801561043757600080fd5b50600c546103bd906001600160401b031681565b34801561045757600080fd5b506102a7610466366004612dfc565b610e20565b34801561047757600080fd5b506004546103bd90600160a01b90046001600160401b031681565b34801561049e57600080fd5b506102a7610ed7565b3480156104b357600080fd5b506102ce610f44565b3480156104c857600080fd5b506102a76104d7366004612dfc565b610f55565b3480156104e857600080fd5b506102a76104f7366004612dcc565b610fd8565b34801561050857600080fd5b506103bd610517366004612dcc565b611043565b34801561052857600080fd5b506102a7610537366004612dcc565b611128565b34801561054857600080fd5b506102ce610557366004612cb6565b611136565b34801561056857600080fd5b506000805260066020527f54cdd369e4e8a8515e52ca72ec816c2101831ad1f18bf44102ed171459c9b4f8546102ce565b3480156105a557600080fd5b506105b96105b4366004612d0c565b6111b4565b6040516102d89190612e17565b3480156105d257600080fd5b5060025461032190600160a01b900460ff1681565b3480156105f357600080fd5b506008546103bd90600160401b90046001600160401b031681565b34801561061a57600080fd5b5061037a60405180604001604052806003815260200162302e3160e81b81525081565b34801561064957600080fd5b5061067c610658366004612e5b565b60056020908152600092835260408084209091529082529020805460019091015482565b604080519283526020830191909152016102d8565b34801561069d57600080fd5b506008546103bd906001600160401b031681565b3480156106bd57600080fd5b506102a76106cc366004612dfc565b61125f565b3480156106dd57600080fd5b506102a76106ec366004612d0c565b6112e8565b3480156106fd57600080fd5b506102a76112f5565b34801561071257600080fd5b506102a7610721366004612dfc565b611330565b34801561073257600080fd5b506102ce610741366004612e8b565b6113bd565b34801561075257600080fd5b506008546103bd90600160801b90046001600160401b031681565b34801561077957600080fd5b506102ce610788366004612d0c565b611490565b34801561079957600080fd5b506107a26114a5565b6040516102d89190612ea8565b3480156107bb57600080fd5b506001610321565b3480156107cf57600080fd5b506102ce6107de366004612dcc565b6114b4565b3480156107ef57600080fd5b506102ce60075481565b34801561080557600080fd5b506102ce610814366004612dfc565b6114c1565b34801561082557600080fd5b506102a7610834366004612dcc565b611506565b34801561084557600080fd5b506102ce610854366004612e5b565b60009182526005602090815260408084206001600160a01b0393909316845291905290205490565b34801561088857600080fd5b506102a7610897366004612dcc565b61156c565b3480156108a857600080fd5b506102ce6108b7366004612dfc565b6115ac565b3480156108c857600080fd5b506102a76108d7366004612f09565b6115f2565b3480156108e857600080fd5b506102a76108f7366004612dfc565b6116c0565b34801561090857600080fd5b506102ce610917366004612e8b565b6001600160a01b031660009081526006602052604090205490565b34801561093e57600080fd5b506102ce61094d366004612dcc565b61174d565b34801561095e57600080fd5b506009546103bd906001600160401b031681565b34801561097e57600080fd5b506004546107a2906001600160a01b031681565b34801561099e57600080fd5b506008546103bd90600160c01b90046001600160401b031681565b3480156109c557600080fd5b506102a76109d4366004612dfc565b6117ae565b3480156109e557600080fd5b506102a76109f4366004612e5b565b611831565b348015610a0557600080fd5b506103bd610a14366004612d0c565b611ac9565b348015610a2557600080fd5b506102a7610a34366004612d0c565b611b15565b348015610a4557600080fd5b506102a7610a54366004612e8b565b611bc1565b348015610a6557600080fd5b506102a7610a74366004612fdf565b611c5e565b348015610a8557600080fd5b506102ce610a94366004612dcc565b600090815260056020908152604080832083805290915290205490565b348015610abd57600080fd5b506102a7610acc366004612dfc565b611fd3565b348015610add57600080fd5b506102ce610aec366004612e5b565b612056565b600080805b84811015610b3e57610b20868683818110610b1357610b13613046565b9050602002013585612056565b610b2a9083613072565b915080610b368161308a565b915050610af6565b50949350505050565b33610b506114a5565b6001600160a01b031614610b7f5760405162461bcd60e51b8152600401610b76906130a5565b60405180910390fd5b600254600160a01b900460ff1615610bd35760405162461bcd60e51b81526020600482015260176024820152761153515491d15390d657d413d5d15497d4915593d2d151604a1b6044820152606401610b76565b6000610bdd6114a5565b905060005b82811015610d95576000848483818110610bfe57610bfe613046565b9050602002016020810190610c139190612e8b565b6001600160a01b03161415610c3a57610c356001600160a01b038316476120bc565b610d83565b838382818110610c4c57610c4c613046565b9050602002016020810190610c619190612e8b565b6001600160a01b031663a9059cbb83868685818110610c8257610c82613046565b9050602002016020810190610c979190612e8b565b6001600160a01b03166370a08231306040518263ffffffff1660e01b8152600401610cc29190612ea8565b60206040518083038186803b158015610cda57600080fd5b505afa158015610cee573d6000803e3d6000fd5b505050506040513d601f19601f82011682018060405250810190610d1291906130da565b6040518363ffffffff1660e01b8152600401610d2f9291906130f3565b602060405180830381600087803b158015610d4957600080fd5b505af1158015610d5d573d6000803e3d6000fd5b505050506040513d601f19601f82011682018060405250810190610d81919061310c565b505b80610d8d8161308a565b915050610be2565b50505050565b60006301ffc9a760e01b6001600160e01b031983161480610dd557506001600160e01b0319821660009081526001602052604090205460ff165b92915050565b6008546001600160401b03600160401b9091048116429091161015610e125760405162461bcd60e51b8152600401610b769061312e565b610e1c82826121d2565b5050565b33610e296114a5565b6001600160a01b031614610e4f5760405162461bcd60e51b8152600401610b76906130a5565b6004546001600160401b03600160a01b909104811690821611610eab5760405162461bcd60e51b815260206004820152601460248201527314d5149150534bd0d0539393d517d49155d2539160621b6044820152606401610b76565b600480546001600160401b03909216600160a01b02600160a01b600160e01b0319909216919091179055565b33610ee06114a5565b6001600160a01b031614610f065760405162461bcd60e51b8152600401610b76906130a5565b6002805460ff60a01b1916600160a01b1790556040517f21fadcdbe90fc4e8062dd78003616bbe56d48e0f1bfc58eacd10b11bba16b79690600090a1565b6000610f5060006113bd565b905090565b33610f5e6114a5565b6001600160a01b031614610f845760405162461bcd60e51b8152600401610b76906130a5565b60045442600160a01b9091046001600160401b031610610fb65760405162461bcd60e51b8152600401610b769061315e565b600c80546001600160401b0319166001600160401b0392909216919091179055565b610fe3334283612383565b60048054604051636198e33960e01b81529182018390526001600160a01b031690636198e339906024015b600060405180830381600087803b15801561102857600080fd5b505af115801561103c573d6000803e3d6000fd5b5050505050565b6000818152600b6020908152604080832054600a9092528220546001600160401b039182169116156110fe57600854600160801b90046001600160401b03164281111561108d5750425b6000848152600a60205260409020546001600160401b0316156110fc576000848152600a60205260409020546001600160401b0390811690821611156110fc576000848152600a60205260409020546110ef906001600160401b03168261318c565b6110f990836131b4565b91505b505b6009546001600160401b039081169082161115610dd557506009546001600160401b031692915050565b611133816000611831565b50565b600080805b84811015610b3e576005600087878481811061115957611159613046565b9050602002013581526020019081526020016000206000856001600160a01b03166001600160a01b0316815260200190815260200160002060000154826111a09190613072565b9150806111ac8161308a565b91505061113b565b60606000826001600160401b038111156111d0576111d0612ebc565b6040519080825280602002602001820160405280156111f9578160200160208202803683370190505b50905060005b838110156112575761122885858381811061121c5761121c613046565b9050602002013561174d565b82828151811061123a5761123a613046565b60209081029190910101528061124f8161308a565b9150506111ff565b509392505050565b336112686114a5565b6001600160a01b03161461128e5760405162461bcd60e51b8152600401610b76906130a5565b60045442600160a01b9091046001600160401b0316106112c05760405162461bcd60e51b8152600401610b769061315e565b600880546001600160401b03909216600160c01b026001600160c01b03909216919091179055565b610e1c8282600033611c5e565b336112fe6114a5565b6001600160a01b0316146113245760405162461bcd60e51b8152600401610b76906130a5565b61132e600061255a565b565b336113396114a5565b6001600160a01b03161461135f5760405162461bcd60e51b8152600401610b76906130a5565b60045442600160a01b9091046001600160401b0316106113915760405162461bcd60e51b8152600401610b769061315e565b600880546001600160401b03909216600160801b02600160801b600160c01b0319909216919091179055565b60006001600160a01b0382166113f1576001600160a01b038216600090815260066020526040902054610dd5904790613072565b6040516370a0823160e01b81526001600160a01b038316906370a082319061141d903090600401612ea8565b60206040518083038186803b15801561143557600080fd5b505afa158015611449573d6000803e3d6000fd5b505050506040513d601f19601f8201168201806040525081019061146d91906130da565b6001600160a01b038316600090815260066020526040902054610dd59190613072565b600061149e83836000611136565b9392505050565b6002546001600160a01b031690565b6000610dd5826000612056565b6008546000906001600160401b03808216916114e691600160401b909104168461318c565b6114f091906131f5565b6001600160401b0316600754610dd5919061321b565b3361150f6114a5565b6001600160a01b0316146115355760405162461bcd60e51b8152600401610b76906130a5565b60045442600160a01b9091046001600160401b0316106115675760405162461bcd60e51b8152600401610b769061315e565b600755565b6008546001600160401b03600160401b90910481164290911610156115a35760405162461bcd60e51b8152600401610b769061312e565b611133816125ac565b6008546007546000916001600160401b0380821692916115d591600160401b909104168561318c565b6001600160401b03166115e8919061321b565b610dd5919061323a565b60006115fe60016126ea565b90508015611616576000805461ff0019166101001790555b61161f8261255a565b61162761277e565b611639836000015184602001516127ad565b61164b836040015184606001516127de565b61166783608001518460a001518560c001518660e0015161280f565b611675836101000151612842565b80156116bb576000805461ff0019169055604051600181527f7f26b83ff96e1f2b6a682f133852f6798a09c465da95921460cefb38474024989060200160405180910390a15b505050565b336116c96114a5565b6001600160a01b0316146116ef5760405162461bcd60e51b8152600401610b76906130a5565b60045442600160a01b9091046001600160401b0316106117215760405162461bcd60e51b8152600401610b769061315e565b600880546001600160401b03909216600160401b02600160401b600160801b0319909216919091179055565b6000818152600a60205260408120546001600160401b031661177057600061179f565b6008546000838152600a602052604090205461179f916001600160401b03600160c01b909104811691166131b4565b6001600160401b031692915050565b336117b76114a5565b6001600160a01b0316146117dd5760405162461bcd60e51b8152600401610b76906130a5565b60045442600160a01b9091046001600160401b03161061180f5760405162461bcd60e51b8152600401610b769061315e565b600880546001600160401b0319166001600160401b0392909216919091179055565b600260035414156118545760405162461bcd60e51b8152600401610b769061324e565b6002600355600480546040516331a9108f60e11b81529182018490526000916001600160a01b0390911690636352211e9060240160206040518083038186803b1580156118a057600080fd5b505afa1580156118b4573d6000803e3d6000fd5b505050506040513d601f19601f820116820180604052508101906118d89190613285565b90506118e5838383612872565b60006118f18484612056565b90506000811161193d5760405162461bcd60e51b815260206004820152601760248201527653545245414d2f4e4f5448494e475f544f5f434c41494d60481b6044820152606401610b76565b60008481526005602090815260408083206001600160a01b03871684529091528120805483929061196f908490613072565b909155505060008481526005602090815260408083206001600160a01b03871684528252808320426001909101556006909152812080548392906119b4908490613072565b909155506119bf9050565b6001600160a01b0383166119e5576119e06001600160a01b038316826120bc565b611a67565b60405163a9059cbb60e01b81526001600160a01b0384169063a9059cbb90611a1390859085906004016130f3565b602060405180830381600087803b158015611a2d57600080fd5b505af1158015611a41573d6000803e3d6000fd5b505050506040513d601f19601f82011682018060405250810190611a65919061310c565b505b604080513381526001600160a01b038481166020830152818301879052851660608201526080810183905290517fa2d3c4c1fc934d6d2d8f9e862df90c01ae4eb0e920cd8957d242ba26b8dc40789181900360a00190a1505060016003555050565b600080805b8381101561125757611af7858583818110611aeb57611aeb613046565b90506020020135611043565b611b0190836131b4565b915080611b0d8161308a565b915050611ace565b334260005b83811015611b5757611b458383878785818110611b3957611b39613046565b90506020020135612383565b80611b4f8161308a565b915050611b1a565b5060048054604051635d36598f60e01b81526001600160a01b0390911691635d36598f91611b899188918891016132d8565b600060405180830381600087803b158015611ba357600080fd5b505af1158015611bb7573d6000803e3d6000fd5b5050505050505050565b33611bca6114a5565b6001600160a01b031614611bf05760405162461bcd60e51b8152600401610b76906130a5565b6001600160a01b038116611c555760405162461bcd60e51b815260206004820152602660248201527f4f776e61626c653a206e6577206f776e657220697320746865207a65726f206160448201526564647265737360d01b6064820152608401610b76565b6111338161255a565b60026003541415611c815760405162461bcd60e51b8152600401610b769061324e565b60026003556000805b84811015611eb057611cb5868683818110611ca757611ca7613046565b905060200201358585612872565b6004546001600160a01b038085169116636352211e888885818110611cdc57611cdc613046565b905060200201356040518263ffffffff1660e01b8152600401611d0191815260200190565b60206040518083038186803b158015611d1957600080fd5b505afa158015611d2d573d6000803e3d6000fd5b505050506040513d601f19601f82011682018060405250810190611d519190613285565b6001600160a01b031614611d9e5760405162461bcd60e51b815260206004820152601460248201527329aa2922a0a697a727aa2fa7232a2fa7aba722a960611b6044820152606401610b76565b6000611dc2878784818110611db557611db5613046565b9050602002013586612056565b90508015611e88578060056000898986818110611de157611de1613046565b9050602002013581526020019081526020016000206000876001600160a01b03166001600160a01b031681526020019081526020016000206000016000828254611e2b9190613072565b9091555042905060056000898986818110611e4857611e48613046565b6020908102929092013583525081810192909252604090810160009081206001600160a01b038a168252909252902060010155611e858184613072565b92505b611e9d8787848181106116bb576116bb613046565b5080611ea88161308a565b915050611c8a565b506001600160a01b03831660009081526006602052604081208054839290611ed9908490613072565b90915550506001600160a01b038316611f0457611eff6001600160a01b038316826120bc565b611f86565b60405163a9059cbb60e01b81526001600160a01b0384169063a9059cbb90611f3290859085906004016130f3565b602060405180830381600087803b158015611f4c57600080fd5b505af1158015611f60573d6000803e3d6000fd5b505050506040513d601f19601f82011682018060405250810190611f84919061310c565b505b7fd84a5c424a4f777bcf4f645712b8e5ebfc550f42bde444fa822fe98ee1b132b1338387878786604051611fbf969594939291906132ec565b60405180910390a150506001600355505050565b33611fdc6114a5565b6001600160a01b0316146120025760405162461bcd60e51b8152600401610b76906130a5565b60045442600160a01b9091046001600160401b0316106120345760405162461bcd60e51b8152600401610b769061315e565b600980546001600160401b0319166001600160401b0392909216919091179055565b60008061207561206e612068856113bd565b50600090565b8585612888565b60008581526005602090815260408083206001600160a01b03881684529091529020549091506120a5908261332b565b949350505050565b6001600160a01b03163b151590565b8047101561210c5760405162461bcd60e51b815260206004820152601d60248201527f416464726573733a20696e73756666696369656e742062616c616e63650000006044820152606401610b76565b6000826001600160a01b03168260405160006040518083038185875af1925050503d8060008114612159576040519150601f19603f3d011682016040523d82523d6000602084013e61215e565b606091505b50509050806116bb5760405162461bcd60e51b815260206004820152603a60248201527f416464726573733a20756e61626c6520746f2073656e642076616c75652c20726044820152791958da5c1a595b9d081b585e481a185d99481c995d995c9d195960321b6064820152608401610b76565b334260005b83811015612351576004546001600160a01b0316636352211e86868481811061220257612202613046565b905060200201356040518263ffffffff1660e01b815260040161222791815260200190565b60206040518083038186803b15801561223f57600080fd5b505afa158015612253573d6000803e3d6000fd5b505050506040513d601f19601f820116820180604052508101906122779190613285565b6001600160a01b0316836001600160a01b0316146122a75760405162461bcd60e51b8152600401610b7690613342565b6009546001600160401b03166122c8868684818110611aeb57611aeb613046565b6001600160401b0316106122ee5760405162461bcd60e51b8152600401610b7690613372565b81600a600087878581811061230557612305613046565b90506020020135815260200190815260200160002060006101000a8154816001600160401b0302191690836001600160401b0316021790555080806123499061308a565b9150506121d7565b50600480546040516342cb086360e11b81526001600160a01b039091169163859610c691611b899188918891016132d8565b6000818152600a60205260409020546001600160401b03166123db5760405162461bcd60e51b815260206004820152601160248201527014d5149150534bd393d517d4d51052d151607a1b6044820152606401610b76565b6008546000828152600a602052604090205461240a916001600160401b03600160c01b909104811691166131b4565b6001600160401b0316826001600160401b031610156124665760405162461bcd60e51b81526020600482015260186024820152770a6a8a48a829a5e9c9ea8be989e86968a88be8a9c9eaa8e960431b6044820152606401610b76565b600480546040516331a9108f60e11b81529182018390526001600160a01b031690636352211e9060240160206040518083038186803b1580156124a857600080fd5b505afa1580156124bc573d6000803e3d6000fd5b505050506040513d601f19601f820116820180604052508101906124e09190613285565b6001600160a01b0316836001600160a01b0316146125105760405162461bcd60e51b8152600401610b7690613342565b61251981611043565b6000918252600b6020908152604080842080546001600160401b03949094166001600160401b0319948516179055600a909152909120805490911690555050565b600280546001600160a01b038381166001600160a01b0319831681179093556040519116919082907f8be0079c531659141344cd1fd0a4f28419497f9722a3daafe3b4186f6b6457e090600090a35050565b600480546040516331a9108f60e11b81529182018390526001600160a01b031690636352211e9060240160206040518083038186803b1580156125ee57600080fd5b505afa158015612602573d6000803e3d6000fd5b505050506040513d601f19601f820116820180604052508101906126269190613285565b6001600160a01b0316336001600160a01b0316146126565760405162461bcd60e51b8152600401610b7690613342565b6009546001600160401b031661266b82611043565b6001600160401b0316106126915760405162461bcd60e51b8152600401610b7690613372565b6000818152600a60205260409081902080546001600160401b031916426001600160401b03161790556004805491516337519c1960e21b81529081018390526001600160a01b039091169063dd4670649060240161100e565b60008054610100900460ff1615612738578160ff1660011480156127145750612712306120ad565b155b6127305760405162461bcd60e51b8152600401610b76906133b4565b506000919050565b60005460ff80841691161061275f5760405162461bcd60e51b8152600401610b76906133b4565b506000805460ff191660ff92909216919091179055600190565b919050565b600054610100900460ff166127a55760405162461bcd60e51b8152600401610b7690613402565b61132e6128c0565b600054610100900460ff166127d45760405162461bcd60e51b8152600401610b7690613402565b610e1c82826128f7565b600054610100900460ff166128055760405162461bcd60e51b8152600401610b7690613402565b610e1c828261295c565b600054610100900460ff166128365760405162461bcd60e51b8152600401610b7690613402565b610d95848484846129d2565b600054610100900460ff166128695760405162461bcd60e51b8152600401610b7690613402565b61113381612a53565b61287d838383612aa5565b6116bb838383612af7565b6008546000906001600160401b03166128a084611043565b6128aa91906131f5565b6001600160401b03166007546120a5919061321b565b600054610100900460ff166128e75760405162461bcd60e51b8152600401610b7690613402565b61132e6326bcdb3160e01b612bca565b600054610100900460ff1661291e5760405162461bcd60e51b8152600401610b7690613402565b600480546001600160401b038316600160a01b026001600160e01b03199091166001600160a01b03851617179055610e1c631ba050e960e21b612bca565b600054610100900460ff166129835760405162461bcd60e51b8152600401610b7690613402565b600880546001600160c01b0316600160c01b6001600160401b038581169190910291909117909155600980546001600160401b031916918316919091179055610e1c630fe9fbd560e31b612bca565b600054610100900460ff166129f95760405162461bcd60e51b8152600401610b7690613402565b6007849055600880546001600160401b03838116600160801b02600160801b600160c01b0319868316600160401b026001600160801b0319909416928816929092179290921716179055610d95634d0b5a4960e01b612bca565b600054610100900460ff16612a7a5760405162461bcd60e51b8152600401610b7690613402565b600c80546001600160401b0319166001600160401b0383161790556111336317b2ef4360e31b612bca565b600c54426001600160401b03909116106116bb5760405162461bcd60e51b815260206004820152601360248201527214d5149150534bd0d310525357d313d0d2d151606a1b6044820152606401610b76565b60085442600160401b9091046001600160401b031610612b4e5760405162461bcd60e51b815260206004820152601260248201527114d5149150534bd393d517d4d5105495115160721b6044820152606401610b76565b600854612b64906001600160401b03164261332b565b60008481526005602090815260408083206001600160a01b0387168452909152902060010154106116bb5760405162461bcd60e51b815260206004820152601060248201526f53545245414d2f544f4f5f4541524c5960801b6044820152606401610b76565b6001600160e01b03198082161415612c235760405162461bcd60e51b815260206004820152601c60248201527b115490cc4d8d4e881a5b9d985b1a59081a5b9d195c999858d9481a5960221b6044820152606401610b76565b6001600160e01b0319166000908152600160208190526040909120805460ff19169091179055565b60008083601f840112612c5d57600080fd5b5081356001600160401b03811115612c7457600080fd5b6020830191508360208260051b8501011115612c8f57600080fd5b9250929050565b6001600160a01b038116811461113357600080fd5b803561277981612c96565b600080600060408486031215612ccb57600080fd5b83356001600160401b03811115612ce157600080fd5b612ced86828701612c4b565b9094509250506020840135612d0181612c96565b809150509250925092565b60008060208385031215612d1f57600080fd5b82356001600160401b03811115612d3557600080fd5b612d4185828601612c4b565b90969095509350505050565b600060208284031215612d5f57600080fd5b81356001600160e01b03198116811461149e57600080fd5b600060208083528351808285015260005b81811015612da457858101830151858201604001528201612d88565b81811115612db6576000604083870101525b50601f01601f1916929092016040019392505050565b600060208284031215612dde57600080fd5b5035919050565b80356001600160401b038116811461277957600080fd5b600060208284031215612e0e57600080fd5b61149e82612de5565b6020808252825182820181905260009190848201906040850190845b81811015612e4f57835183529284019291840191600101612e33565b50909695505050505050565b60008060408385031215612e6e57600080fd5b823591506020830135612e8081612c96565b809150509250929050565b600060208284031215612e9d57600080fd5b813561149e81612c96565b6001600160a01b0391909116815260200190565b634e487b7160e01b600052604160045260246000fd5b60405161012081016001600160401b0381118282101715612f0357634e487b7160e01b600052604160045260246000fd5b60405290565b600080828403610140811215612f1e57600080fd5b61012080821215612f2e57600080fd5b612f36612ed2565b9150612f4185612cab565b8252612f4f60208601612de5565b6020830152612f6060408601612de5565b6040830152612f7160608601612de5565b606083015260808501356080830152612f8c60a08601612de5565b60a0830152612f9d60c08601612de5565b60c0830152612fae60e08601612de5565b60e0830152610100612fc1818701612de5565b8184015250819350612fd4818601612cab565b925050509250929050565b60008060008060608587031215612ff557600080fd5b84356001600160401b0381111561300b57600080fd5b61301787828801612c4b565b909550935050602085013561302b81612c96565b9150604085013561303b81612c96565b939692955090935050565b634e487b7160e01b600052603260045260246000fd5b634e487b7160e01b600052601160045260246000fd5b600082198211156130855761308561305c565b500190565b600060001982141561309e5761309e61305c565b5060010190565b6020808252818101527f4f776e61626c653a2063616c6c6572206973206e6f7420746865206f776e6572604082015260600190565b6000602082840312156130ec57600080fd5b5051919050565b6001600160a01b03929092168252602082015260400190565b60006020828403121561311e57600080fd5b8151801515811461149e57600080fd5b60208082526016908201527514d5149150534bd393d517d4d5105495115117d6515560521b604082015260600190565b60208082526014908201527314d5149150534bd0d3d3919251d7d313d0d2d15160621b604082015260600190565b60006001600160401b03838116908316818110156131ac576131ac61305c565b039392505050565b60006001600160401b038281168482168083038211156131d6576131d661305c565b01949350505050565b634e487b7160e01b600052601260045260246000fd5b60006001600160401b038381168061320f5761320f6131df565b92169190910492915050565b60008160001904831182151516156132355761323561305c565b500290565b600082613249576132496131df565b500490565b6020808252601f908201527f5265656e7472616e637947756172643a207265656e7472616e742063616c6c00604082015260600190565b60006020828403121561329757600080fd5b815161149e81612c96565b81835260006001600160fb1b038311156132bb57600080fd5b8260051b8083602087013760009401602001938452509192915050565b6020815260006120a56020830184866132a2565b600060018060a01b038089168352808816602084015260a0604084015261331760a0840187896132a2565b941660608301525060800152949350505050565b60008282101561333d5761333d61305c565b500390565b60208082526016908201527529aa2922a0a697a727aa2faa27a5a2a72fa7aba722a960511b604082015260600190565b60208082526022908201527f53545245414d2f4d41585f5354414b455f4455524154494f4e5f455843454544604082015261115160f21b606082015260800190565b6020808252602e908201527f496e697469616c697a61626c653a20636f6e747261637420697320616c72656160408201526d191e481a5b9a5d1a585b1a5e995960921b606082015260800190565b6020808252602b908201527f496e697469616c697a61626c653a20636f6e7472616374206973206e6f74206960408201526a6e697469616c697a696e6760a81b60608201526080019056fea2646970667358221220e234216ec5759a9469922b9efaaf24b1dc979e0d88dd0f89fd12bdf674d4260964736f6c63430008090033",
  "devdoc": {
    "author": "Flair (https://flair.finance)",
    "kind": "dev",
    "methods": {
      "owner()": {
        "details": "Returns the address of the current owner."
      },
      "renounceOwnership()": {
        "details": "Leaves the contract without owner. It will not be possible to call `onlyOwner` functions anymore. Can only be called by the current owner. NOTE: Renouncing ownership will leave the contract without an owner, thereby removing any functionality that is only available to the owner."
      },
      "supportsInterface(bytes4)": {
        "details": "See {IERC165-supportsInterface}."
      },
      "transferOwnership(address)": {
        "details": "Transfers ownership of the contract to a new account (`newOwner`). Can only be called by the current owner."
      }
    },
    "version": 1
  },
  "userdoc": {
    "kind": "user",
    "methods": {},
    "version": 1
  },
  "storageLayout": {
    "storage": [
      {
        "astId": 886,
        "contract": "contracts/streams/ERC721/presets/ERC721StakingEmissionStream.sol:ERC721StakingEmissionStream",
        "label": "_initialized",
        "offset": 0,
        "slot": "0",
        "type": "t_uint8"
      },
      {
        "astId": 889,
        "contract": "contracts/streams/ERC721/presets/ERC721StakingEmissionStream.sol:ERC721StakingEmissionStream",
        "label": "_initializing",
        "offset": 1,
        "slot": "0",
        "type": "t_bool"
      },
      {
        "astId": 4693,
        "contract": "contracts/streams/ERC721/presets/ERC721StakingEmissionStream.sol:ERC721StakingEmissionStream",
        "label": "_supportedInterfaces",
        "offset": 0,
        "slot": "1",
        "type": "t_mapping(t_bytes4,t_bool)"
      },
      {
        "astId": 782,
        "contract": "contracts/streams/ERC721/presets/ERC721StakingEmissionStream.sol:ERC721StakingEmissionStream",
        "label": "_owner",
        "offset": 0,
        "slot": "2",
        "type": "t_address"
      },
      {
        "astId": 12716,
        "contract": "contracts/streams/ERC721/presets/ERC721StakingEmissionStream.sol:ERC721StakingEmissionStream",
        "label": "emergencyPowerRevoked",
        "offset": 20,
        "slot": "2",
        "type": "t_bool"
      },
      {
        "astId": 1124,
        "contract": "contracts/streams/ERC721/presets/ERC721StakingEmissionStream.sol:ERC721StakingEmissionStream",
        "label": "_status",
        "offset": 0,
        "slot": "3",
        "type": "t_uint256"
      },
      {
        "astId": 13891,
        "contract": "contracts/streams/ERC721/presets/ERC721StakingEmissionStream.sol:ERC721StakingEmissionStream",
        "label": "ticketToken",
        "offset": 0,
        "slot": "4",
        "type": "t_address"
      },
      {
        "astId": 13893,
        "contract": "contracts/streams/ERC721/presets/ERC721StakingEmissionStream.sol:ERC721StakingEmissionStream",
        "label": "lockedUntilTimestamp",
        "offset": 20,
        "slot": "4",
        "type": "t_uint64"
      },
      {
        "astId": 13900,
        "contract": "contracts/streams/ERC721/presets/ERC721StakingEmissionStream.sol:ERC721StakingEmissionStream",
        "label": "entitlements",
        "offset": 0,
        "slot": "5",
        "type": "t_mapping(t_uint256,t_mapping(t_address,t_struct(Entitlement)13889_storage))"
      },
      {
        "astId": 13904,
        "contract": "contracts/streams/ERC721/presets/ERC721StakingEmissionStream.sol:ERC721StakingEmissionStream",
        "label": "_streamTotalClaimed",
        "offset": 0,
        "slot": "6",
        "type": "t_mapping(t_address,t_uint256)"
      },
      {
        "astId": 14646,
        "contract": "contracts/streams/ERC721/presets/ERC721StakingEmissionStream.sol:ERC721StakingEmissionStream",
        "label": "emissionRate",
        "offset": 0,
        "slot": "7",
        "type": "t_uint256"
      },
      {
        "astId": 14648,
        "contract": "contracts/streams/ERC721/presets/ERC721StakingEmissionStream.sol:ERC721StakingEmissionStream",
        "label": "emissionTimeUnit",
        "offset": 0,
        "slot": "8",
        "type": "t_uint64"
      },
      {
        "astId": 14650,
        "contract": "contracts/streams/ERC721/presets/ERC721StakingEmissionStream.sol:ERC721StakingEmissionStream",
        "label": "emissionStart",
        "offset": 8,
        "slot": "8",
        "type": "t_uint64"
      },
      {
        "astId": 14652,
        "contract": "contracts/streams/ERC721/presets/ERC721StakingEmissionStream.sol:ERC721StakingEmissionStream",
        "label": "emissionEnd",
        "offset": 16,
        "slot": "8",
        "type": "t_uint64"
      },
      {
        "astId": 15275,
        "contract": "contracts/streams/ERC721/presets/ERC721StakingEmissionStream.sol:ERC721StakingEmissionStream",
        "label": "minStakingLockTime",
        "offset": 24,
        "slot": "8",
        "type": "t_uint64"
      },
      {
        "astId": 15277,
        "contract": "contracts/streams/ERC721/presets/ERC721StakingEmissionStream.sol:ERC721StakingEmissionStream",
        "label": "maxStakingTotalDurations",
        "offset": 0,
        "slot": "9",
        "type": "t_uint64"
      },
      {
        "astId": 15281,
        "contract": "contracts/streams/ERC721/presets/ERC721StakingEmissionStream.sol:ERC721StakingEmissionStream",
        "label": "lastStakingTime",
        "offset": 0,
        "slot": "10",
        "type": "t_mapping(t_uint256,t_uint64)"
      },
      {
        "astId": 15285,
        "contract": "contracts/streams/ERC721/presets/ERC721StakingEmissionStream.sol:ERC721StakingEmissionStream",
        "label": "savedStakedDurations",
        "offset": 0,
        "slot": "11",
        "type": "t_mapping(t_uint256,t_uint64)"
      },
      {
        "astId": 15147,
        "contract": "contracts/streams/ERC721/presets/ERC721StakingEmissionStream.sol:ERC721StakingEmissionStream",
        "label": "claimLockedUntil",
        "offset": 0,
        "slot": "12",
        "type": "t_uint64"
      }
    ],
    "types": {
      "t_address": {
        "encoding": "inplace",
        "label": "address",
        "numberOfBytes": "20"
      },
      "t_bool": {
        "encoding": "inplace",
        "label": "bool",
        "numberOfBytes": "1"
      },
      "t_bytes4": {
        "encoding": "inplace",
        "label": "bytes4",
        "numberOfBytes": "4"
      },
      "t_mapping(t_address,t_struct(Entitlement)13889_storage)": {
        "encoding": "mapping",
        "key": "t_address",
        "label": "mapping(address => struct ERC721MultiTokenStream.Entitlement)",
        "numberOfBytes": "32",
        "value": "t_struct(Entitlement)13889_storage"
      },
      "t_mapping(t_address,t_uint256)": {
        "encoding": "mapping",
        "key": "t_address",
        "label": "mapping(address => uint256)",
        "numberOfBytes": "32",
        "value": "t_uint256"
      },
      "t_mapping(t_bytes4,t_bool)": {
        "encoding": "mapping",
        "key": "t_bytes4",
        "label": "mapping(bytes4 => bool)",
        "numberOfBytes": "32",
        "value": "t_bool"
      },
      "t_mapping(t_uint256,t_mapping(t_address,t_struct(Entitlement)13889_storage))": {
        "encoding": "mapping",
        "key": "t_uint256",
        "label": "mapping(uint256 => mapping(address => struct ERC721MultiTokenStream.Entitlement))",
        "numberOfBytes": "32",
        "value": "t_mapping(t_address,t_struct(Entitlement)13889_storage)"
      },
      "t_mapping(t_uint256,t_uint64)": {
        "encoding": "mapping",
        "key": "t_uint256",
        "label": "mapping(uint256 => uint64)",
        "numberOfBytes": "32",
        "value": "t_uint64"
      },
      "t_struct(Entitlement)13889_storage": {
        "encoding": "inplace",
        "label": "struct ERC721MultiTokenStream.Entitlement",
        "members": [
          {
            "astId": 13886,
            "contract": "contracts/streams/ERC721/presets/ERC721StakingEmissionStream.sol:ERC721StakingEmissionStream",
            "label": "totalClaimed",
            "offset": 0,
            "slot": "0",
            "type": "t_uint256"
          },
          {
            "astId": 13888,
            "contract": "contracts/streams/ERC721/presets/ERC721StakingEmissionStream.sol:ERC721StakingEmissionStream",
            "label": "lastClaimedAt",
            "offset": 0,
            "slot": "1",
            "type": "t_uint256"
          }
        ],
        "numberOfBytes": "64"
      },
      "t_uint256": {
        "encoding": "inplace",
        "label": "uint256",
        "numberOfBytes": "32"
      },
      "t_uint64": {
        "encoding": "inplace",
        "label": "uint64",
        "numberOfBytes": "8"
      },
      "t_uint8": {
        "encoding": "inplace",
        "label": "uint8",
        "numberOfBytes": "1"
      }
    }
  }
}