{
  "address": "0xAC9F15BAfd4FED150aE68C2527B292628eab7cf3",
  "abi": [
    {
      "inputs": [
        {
          "components": [
            {
              "internalType": "string",
              "name": "name",
              "type": "string"
            },
            {
              "internalType": "string",
              "name": "symbol",
              "type": "string"
            },
            {
              "internalType": "string",
              "name": "contractURI",
              "type": "string"
            },
            {
              "internalType": "string",
              "name": "placeholderURI",
              "type": "string"
            },
            {
              "internalType": "string",
              "name": "tokenURIPrefix",
              "type": "string"
            },
            {
              "internalType": "uint256",
              "name": "maxSupply",
              "type": "uint256"
            },
            {
              "internalType": "uint256",
              "name": "preSalePrice",
              "type": "uint256"
            },
            {
              "internalType": "uint256",
              "name": "preSaleMaxMintPerWallet",
              "type": "uint256"
            },
            {
              "internalType": "uint256",
              "name": "publicSalePrice",
              "type": "uint256"
            },
            {
              "internalType": "uint256",
              "name": "publicSaleMaxMintPerTx",
              "type": "uint256"
            },
            {
              "internalType": "address",
              "name": "defaultRoyaltyAddress",
              "type": "address"
            },
            {
              "internalType": "uint16",
              "name": "defaultRoyaltyBps",
              "type": "uint16"
            },
            {
              "internalType": "address",
              "name": "proceedsRecipient",
              "type": "address"
            },
            {
              "internalType": "address",
              "name": "openSeaProxyRegistryAddress",
              "type": "address"
            },
            {
              "internalType": "address",
              "name": "openSeaExchangeAddress",
              "type": "address"
            },
            {
              "internalType": "address",
              "name": "trustedForwarder",
              "type": "address"
            }
          ],
          "internalType": "struct ERC721FullFeaturedCollection.Config",
          "name": "config",
          "type": "tuple"
        }
      ],
      "stateMutability": "nonpayable",
      "type": "constructor"
    },
    {
      "anonymous": false,
      "inputs": [
        {
          "indexed": true,
          "internalType": "address",
          "name": "owner",
          "type": "address"
        },
        {
          "indexed": true,
          "internalType": "address",
          "name": "approved",
          "type": "address"
        },
        {
          "indexed": true,
          "internalType": "uint256",
          "name": "tokenId",
          "type": "uint256"
        }
      ],
      "name": "Approval",
      "type": "event"
    },
    {
      "anonymous": false,
      "inputs": [
        {
          "indexed": true,
          "internalType": "address",
          "name": "owner",
          "type": "address"
        },
        {
          "indexed": true,
          "internalType": "address",
          "name": "operator",
          "type": "address"
        },
        {
          "indexed": false,
          "internalType": "bool",
          "name": "approved",
          "type": "bool"
        }
      ],
      "name": "ApprovalForAll",
      "type": "event"
    },
    {
      "anonymous": false,
      "inputs": [
        {
          "indexed": false,
          "internalType": "address",
          "name": "recipient",
          "type": "address"
        },
        {
          "indexed": false,
          "internalType": "uint16",
          "name": "bps",
          "type": "uint16"
        }
      ],
      "name": "DefaultRoyaltySet",
      "type": "event"
    },
    {
      "anonymous": false,
      "inputs": [
        {
          "indexed": false,
          "internalType": "uint8",
          "name": "version",
          "type": "uint8"
        }
      ],
      "name": "Initialized",
      "type": "event"
    },
    {
      "anonymous": false,
      "inputs": [
        {
          "indexed": true,
          "internalType": "address",
          "name": "previousOwner",
          "type": "address"
        },
        {
          "indexed": true,
          "internalType": "address",
          "name": "newOwner",
          "type": "address"
        }
      ],
      "name": "OwnershipTransferred",
      "type": "event"
    },
    {
      "anonymous": false,
      "inputs": [
        {
          "indexed": true,
          "internalType": "bytes32",
          "name": "role",
          "type": "bytes32"
        },
        {
          "indexed": true,
          "internalType": "bytes32",
          "name": "previousAdminRole",
          "type": "bytes32"
        },
        {
          "indexed": true,
          "internalType": "bytes32",
          "name": "newAdminRole",
          "type": "bytes32"
        }
      ],
      "name": "RoleAdminChanged",
      "type": "event"
    },
    {
      "anonymous": false,
      "inputs": [
        {
          "indexed": true,
          "internalType": "bytes32",
          "name": "role",
          "type": "bytes32"
        },
        {
          "indexed": true,
          "internalType": "address",
          "name": "account",
          "type": "address"
        },
        {
          "indexed": true,
          "internalType": "address",
          "name": "sender",
          "type": "address"
        }
      ],
      "name": "RoleGranted",
      "type": "event"
    },
    {
      "anonymous": false,
      "inputs": [
        {
          "indexed": true,
          "internalType": "bytes32",
          "name": "role",
          "type": "bytes32"
        },
        {
          "indexed": true,
          "internalType": "address",
          "name": "account",
          "type": "address"
        },
        {
          "indexed": true,
          "internalType": "address",
          "name": "sender",
          "type": "address"
        }
      ],
      "name": "RoleRevoked",
      "type": "event"
    },
    {
      "anonymous": false,
      "inputs": [
        {
          "indexed": false,
          "internalType": "uint256",
          "name": "tokenId",
          "type": "uint256"
        }
      ],
      "name": "TokenRoyaltyRemoved",
      "type": "event"
    },
    {
      "anonymous": false,
      "inputs": [
        {
          "indexed": false,
          "internalType": "uint256",
          "name": "tokenId",
          "type": "uint256"
        },
        {
          "indexed": false,
          "internalType": "address",
          "name": "recipient",
          "type": "address"
        },
        {
          "indexed": false,
          "internalType": "uint16",
          "name": "bps",
          "type": "uint16"
        }
      ],
      "name": "TokenRoyaltySet",
      "type": "event"
    },
    {
      "anonymous": false,
      "inputs": [
        {
          "indexed": true,
          "internalType": "address",
          "name": "from",
          "type": "address"
        },
        {
          "indexed": true,
          "internalType": "address",
          "name": "to",
          "type": "address"
        },
        {
          "indexed": true,
          "internalType": "uint256",
          "name": "tokenId",
          "type": "uint256"
        }
      ],
      "name": "Transfer",
      "type": "event"
    },
    {
      "inputs": [],
      "name": "DEFAULT_ADMIN_ROLE",
      "outputs": [
        {
          "internalType": "bytes32",
          "name": "",
          "type": "bytes32"
        }
      ],
      "stateMutability": "view",
      "type": "function"
    },
    {
      "inputs": [],
      "name": "MINTER_ROLE",
      "outputs": [
        {
          "internalType": "bytes32",
          "name": "",
          "type": "bytes32"
        }
      ],
      "stateMutability": "view",
      "type": "function"
    },
    {
      "inputs": [],
      "name": "_trustedForwarder",
      "outputs": [
        {
          "internalType": "address",
          "name": "",
          "type": "address"
        }
      ],
      "stateMutability": "view",
      "type": "function"
    },
    {
      "inputs": [
        {
          "internalType": "address",
          "name": "to",
          "type": "address"
        },
        {
          "internalType": "uint256",
          "name": "tokenId",
          "type": "uint256"
        }
      ],
      "name": "approve",
      "outputs": [],
      "stateMutability": "nonpayable",
      "type": "function"
    },
    {
      "inputs": [
        {
          "internalType": "address",
          "name": "owner",
          "type": "address"
        }
      ],
      "name": "balanceOf",
      "outputs": [
        {
          "internalType": "uint256",
          "name": "",
          "type": "uint256"
        }
      ],
      "stateMutability": "view",
      "type": "function"
    },
    {
      "inputs": [],
      "name": "contractURI",
      "outputs": [
        {
          "internalType": "string",
          "name": "",
          "type": "string"
        }
      ],
      "stateMutability": "view",
      "type": "function"
    },
    {
      "inputs": [],
      "name": "defaultRoyalty",
      "outputs": [
        {
          "internalType": "address",
          "name": "recipient",
          "type": "address"
        },
        {
          "internalType": "uint16",
          "name": "bps",
          "type": "uint16"
        }
      ],
      "stateMutability": "view",
      "type": "function"
    },
    {
      "inputs": [],
      "name": "freezeMaxSupply",
      "outputs": [],
      "stateMutability": "nonpayable",
      "type": "function"
    },
    {
      "inputs": [],
      "name": "freezeTokensURI",
      "outputs": [],
      "stateMutability": "nonpayable",
      "type": "function"
    },
    {
      "inputs": [
        {
          "internalType": "uint256",
          "name": "tokenId",
          "type": "uint256"
        }
      ],
      "name": "getApproved",
      "outputs": [
        {
          "internalType": "address",
          "name": "",
          "type": "address"
        }
      ],
      "stateMutability": "view",
      "type": "function"
    },
    {
      "inputs": [],
      "name": "getInfo",
      "outputs": [
        {
          "internalType": "uint256",
          "name": "_maxSupply",
          "type": "uint256"
        },
        {
          "internalType": "uint256",
          "name": "_totalSupply",
          "type": "uint256"
        },
        {
          "internalType": "uint256",
          "name": "_senderBalance",
          "type": "uint256"
        },
        {
          "internalType": "uint256",
          "name": "_preSalePrice",
          "type": "uint256"
        },
        {
          "internalType": "uint256",
          "name": "_preSaleMaxMintPerWallet",
          "type": "uint256"
        },
        {
          "internalType": "uint256",
          "name": "_preSaleAlreadyClaimed",
          "type": "uint256"
        },
        {
          "internalType": "bool",
          "name": "_preSaleActive",
          "type": "bool"
        },
        {
          "internalType": "uint256",
          "name": "_publicSalePrice",
          "type": "uint256"
        },
        {
          "internalType": "uint256",
          "name": "_publicSaleMaxMintPerTx",
          "type": "uint256"
        },
        {
          "internalType": "bool",
          "name": "_publicSaleActive",
          "type": "bool"
        }
      ],
      "stateMutability": "view",
      "type": "function"
    },
    {
      "inputs": [
        {
          "internalType": "uint256",
          "name": "id",
          "type": "uint256"
        }
      ],
      "name": "getRaribleV2Royalties",
      "outputs": [
        {
          "components": [
            {
              "internalType": "address payable",
              "name": "account",
              "type": "address"
            },
            {
              "internalType": "uint96",
              "name": "value",
              "type": "uint96"
            }
          ],
          "internalType": "struct LibPart.Part[]",
          "name": "result",
          "type": "tuple[]"
        }
      ],
      "stateMutability": "view",
      "type": "function"
    },
    {
      "inputs": [
        {
          "internalType": "bytes32",
          "name": "role",
          "type": "bytes32"
        }
      ],
      "name": "getRoleAdmin",
      "outputs": [
        {
          "internalType": "bytes32",
          "name": "",
          "type": "bytes32"
        }
      ],
      "stateMutability": "view",
      "type": "function"
    },
    {
      "inputs": [],
      "name": "getTokenRoyaltiesCount",
      "outputs": [
        {
          "internalType": "uint256",
          "name": "",
          "type": "uint256"
        }
      ],
      "stateMutability": "view",
      "type": "function"
    },
    {
      "inputs": [
        {
          "internalType": "uint256",
          "name": "index",
          "type": "uint256"
        }
      ],
      "name": "getTokenRoyaltyByIndex",
      "outputs": [
        {
          "components": [
            {
              "internalType": "uint256",
              "name": "tokenId",
              "type": "uint256"
            },
            {
              "internalType": "address",
              "name": "recipient",
              "type": "address"
            },
            {
              "internalType": "uint16",
              "name": "bps",
              "type": "uint16"
            }
          ],
          "internalType": "struct IEIP2981RoyaltyOverride.TokenRoyaltyConfig",
          "name": "",
          "type": "tuple"
        }
      ],
      "stateMutability": "view",
      "type": "function"
    },
    {
      "inputs": [
        {
          "internalType": "bytes32",
          "name": "role",
          "type": "bytes32"
        },
        {
          "internalType": "address",
          "name": "account",
          "type": "address"
        }
      ],
      "name": "grantRole",
      "outputs": [],
      "stateMutability": "nonpayable",
      "type": "function"
    },
    {
      "inputs": [
        {
          "internalType": "bytes32",
          "name": "role",
          "type": "bytes32"
        },
        {
          "internalType": "address",
          "name": "account",
          "type": "address"
        }
      ],
      "name": "hasRole",
      "outputs": [
        {
          "internalType": "bool",
          "name": "",
          "type": "bool"
        }
      ],
      "stateMutability": "view",
      "type": "function"
    },
    {
      "inputs": [
        {
          "components": [
            {
              "internalType": "string",
              "name": "name",
              "type": "string"
            },
            {
              "internalType": "string",
              "name": "symbol",
              "type": "string"
            },
            {
              "internalType": "string",
              "name": "contractURI",
              "type": "string"
            },
            {
              "internalType": "string",
              "name": "placeholderURI",
              "type": "string"
            },
            {
              "internalType": "string",
              "name": "tokenURIPrefix",
              "type": "string"
            },
            {
              "internalType": "uint256",
              "name": "maxSupply",
              "type": "uint256"
            },
            {
              "internalType": "uint256",
              "name": "preSalePrice",
              "type": "uint256"
            },
            {
              "internalType": "uint256",
              "name": "preSaleMaxMintPerWallet",
              "type": "uint256"
            },
            {
              "internalType": "uint256",
              "name": "publicSalePrice",
              "type": "uint256"
            },
            {
              "internalType": "uint256",
              "name": "publicSaleMaxMintPerTx",
              "type": "uint256"
            },
            {
              "internalType": "address",
              "name": "defaultRoyaltyAddress",
              "type": "address"
            },
            {
              "internalType": "uint16",
              "name": "defaultRoyaltyBps",
              "type": "uint16"
            },
            {
              "internalType": "address",
              "name": "proceedsRecipient",
              "type": "address"
            },
            {
              "internalType": "address",
              "name": "openSeaProxyRegistryAddress",
              "type": "address"
            },
            {
              "internalType": "address",
              "name": "openSeaExchangeAddress",
              "type": "address"
            },
            {
              "internalType": "address",
              "name": "trustedForwarder",
              "type": "address"
            }
          ],
          "internalType": "struct ERC721FullFeaturedCollection.Config",
          "name": "config",
          "type": "tuple"
        },
        {
          "internalType": "address",
          "name": "deployer",
          "type": "address"
        }
      ],
      "name": "initialize",
      "outputs": [],
      "stateMutability": "nonpayable",
      "type": "function"
    },
    {
      "inputs": [
        {
          "internalType": "address",
          "name": "owner",
          "type": "address"
        },
        {
          "internalType": "address",
          "name": "operator",
          "type": "address"
        }
      ],
      "name": "isApprovedForAll",
      "outputs": [
        {
          "internalType": "bool",
          "name": "",
          "type": "bool"
        }
      ],
      "stateMutability": "view",
      "type": "function"
    },
    {
      "inputs": [
        {
          "internalType": "address",
          "name": "forwarder",
          "type": "address"
        }
      ],
      "name": "isTrustedForwarder",
      "outputs": [
        {
          "internalType": "bool",
          "name": "",
          "type": "bool"
        }
      ],
      "stateMutability": "view",
      "type": "function"
    },
    {
      "inputs": [],
      "name": "lockProceedsRecipient",
      "outputs": [],
      "stateMutability": "nonpayable",
      "type": "function"
    },
    {
      "inputs": [],
      "name": "maxSupply",
      "outputs": [
        {
          "internalType": "uint256",
          "name": "",
          "type": "uint256"
        }
      ],
      "stateMutability": "view",
      "type": "function"
    },
    {
      "inputs": [],
      "name": "maxSupplyFrozen",
      "outputs": [
        {
          "internalType": "bool",
          "name": "",
          "type": "bool"
        }
      ],
      "stateMutability": "view",
      "type": "function"
    },
    {
      "inputs": [
        {
          "internalType": "address",
          "name": "to",
          "type": "address"
        },
        {
          "internalType": "uint256",
          "name": "count",
          "type": "uint256"
        }
      ],
      "name": "mintByOwner",
      "outputs": [],
      "stateMutability": "nonpayable",
      "type": "function"
    },
    {
      "inputs": [
        {
          "internalType": "address",
          "name": "to",
          "type": "address"
        },
        {
          "internalType": "uint256",
          "name": "count",
          "type": "uint256"
        }
      ],
      "name": "mintByRole",
      "outputs": [],
      "stateMutability": "nonpayable",
      "type": "function"
    },
    {
      "inputs": [
        {
          "internalType": "uint256",
          "name": "count",
          "type": "uint256"
        },
        {
          "internalType": "bytes32[]",
          "name": "proof",
          "type": "bytes32[]"
        }
      ],
      "name": "mintPreSale",
      "outputs": [],
      "stateMutability": "payable",
      "type": "function"
    },
    {
      "inputs": [
        {
          "internalType": "address",
          "name": "to",
          "type": "address"
        },
        {
          "internalType": "uint256",
          "name": "count",
          "type": "uint256"
        }
      ],
      "name": "mintPublicSale",
      "outputs": [],
      "stateMutability": "payable",
      "type": "function"
    },
    {
      "inputs": [],
      "name": "name",
      "outputs": [
        {
          "internalType": "string",
          "name": "",
          "type": "string"
        }
      ],
      "stateMutability": "view",
      "type": "function"
    },
    {
      "inputs": [
        {
          "internalType": "address",
          "name": "minter",
          "type": "address"
        },
        {
          "internalType": "bytes32[]",
          "name": "proof",
          "type": "bytes32[]"
        }
      ],
      "name": "onPreSaleAllowList",
      "outputs": [
        {
          "internalType": "bool",
          "name": "",
          "type": "bool"
        }
      ],
      "stateMutability": "view",
      "type": "function"
    },
    {
      "inputs": [],
      "name": "owner",
      "outputs": [
        {
          "internalType": "address",
          "name": "",
          "type": "address"
        }
      ],
      "stateMutability": "view",
      "type": "function"
    },
    {
      "inputs": [
        {
          "internalType": "uint256",
          "name": "tokenId",
          "type": "uint256"
        }
      ],
      "name": "ownerOf",
      "outputs": [
        {
          "internalType": "address",
          "name": "",
          "type": "address"
        }
      ],
      "stateMutability": "view",
      "type": "function"
    },
    {
      "inputs": [],
      "name": "placeholderURI",
      "outputs": [
        {
          "internalType": "string",
          "name": "",
          "type": "string"
        }
      ],
      "stateMutability": "view",
      "type": "function"
    },
    {
      "inputs": [],
      "name": "preSaleAllowlistMerkleRoot",
      "outputs": [
        {
          "internalType": "bytes32",
          "name": "",
          "type": "bytes32"
        }
      ],
      "stateMutability": "view",
      "type": "function"
    },
    {
      "inputs": [],
      "name": "preSaleMaxMintPerWallet",
      "outputs": [
        {
          "internalType": "uint256",
          "name": "",
          "type": "uint256"
        }
      ],
      "stateMutability": "view",
      "type": "function"
    },
    {
      "inputs": [],
      "name": "preSalePrice",
      "outputs": [
        {
          "internalType": "uint256",
          "name": "",
          "type": "uint256"
        }
      ],
      "stateMutability": "view",
      "type": "function"
    },
    {
      "inputs": [],
      "name": "preSaleStatus",
      "outputs": [
        {
          "internalType": "bool",
          "name": "",
          "type": "bool"
        }
      ],
      "stateMutability": "view",
      "type": "function"
    },
    {
      "inputs": [],
      "name": "proceedsRecipient",
      "outputs": [
        {
          "internalType": "address",
          "name": "",
          "type": "address"
        }
      ],
      "stateMutability": "view",
      "type": "function"
    },
    {
      "inputs": [],
      "name": "proceedsRecipientLocked",
      "outputs": [
        {
          "internalType": "bool",
          "name": "",
          "type": "bool"
        }
      ],
      "stateMutability": "view",
      "type": "function"
    },
    {
      "inputs": [],
      "name": "publicSaleMaxMintPerTx",
      "outputs": [
        {
          "internalType": "uint256",
          "name": "",
          "type": "uint256"
        }
      ],
      "stateMutability": "view",
      "type": "function"
    },
    {
      "inputs": [],
      "name": "publicSalePrice",
      "outputs": [
        {
          "internalType": "uint256",
          "name": "",
          "type": "uint256"
        }
      ],
      "stateMutability": "view",
      "type": "function"
    },
    {
      "inputs": [],
      "name": "publicSaleStatus",
      "outputs": [
        {
          "internalType": "bool",
          "name": "",
          "type": "bool"
        }
      ],
      "stateMutability": "view",
      "type": "function"
    },
    {
      "inputs": [],
      "name": "renounceOwnership",
      "outputs": [],
      "stateMutability": "nonpayable",
      "type": "function"
    },
    {
      "inputs": [
        {
          "internalType": "bytes32",
          "name": "role",
          "type": "bytes32"
        },
        {
          "internalType": "address",
          "name": "account",
          "type": "address"
        }
      ],
      "name": "renounceRole",
      "outputs": [],
      "stateMutability": "nonpayable",
      "type": "function"
    },
    {
      "inputs": [
        {
          "internalType": "bytes32",
          "name": "role",
          "type": "bytes32"
        },
        {
          "internalType": "address",
          "name": "account",
          "type": "address"
        }
      ],
      "name": "revokeRole",
      "outputs": [],
      "stateMutability": "nonpayable",
      "type": "function"
    },
    {
      "inputs": [
        {
          "internalType": "uint256",
          "name": "tokenId",
          "type": "uint256"
        },
        {
          "internalType": "uint256",
          "name": "value",
          "type": "uint256"
        }
      ],
      "name": "royaltyInfo",
      "outputs": [
        {
          "internalType": "address",
          "name": "",
          "type": "address"
        },
        {
          "internalType": "uint256",
          "name": "",
          "type": "uint256"
        }
      ],
      "stateMutability": "view",
      "type": "function"
    },
    {
      "inputs": [
        {
          "internalType": "address",
          "name": "from",
          "type": "address"
        },
        {
          "internalType": "address",
          "name": "to",
          "type": "address"
        },
        {
          "internalType": "uint256",
          "name": "tokenId",
          "type": "uint256"
        }
      ],
      "name": "safeTransferFrom",
      "outputs": [],
      "stateMutability": "nonpayable",
      "type": "function"
    },
    {
      "inputs": [
        {
          "internalType": "address",
          "name": "from",
          "type": "address"
        },
        {
          "internalType": "address",
          "name": "to",
          "type": "address"
        },
        {
          "internalType": "uint256",
          "name": "tokenId",
          "type": "uint256"
        },
        {
          "internalType": "bytes",
          "name": "_data",
          "type": "bytes"
        }
      ],
      "name": "safeTransferFrom",
      "outputs": [],
      "stateMutability": "nonpayable",
      "type": "function"
    },
    {
      "inputs": [
        {
          "internalType": "bytes32",
          "name": "newRoot",
          "type": "bytes32"
        }
      ],
      "name": "setAllowlistMerkleRoot",
      "outputs": [],
      "stateMutability": "nonpayable",
      "type": "function"
    },
    {
      "inputs": [
        {
          "internalType": "address",
          "name": "operator",
          "type": "address"
        },
        {
          "internalType": "bool",
          "name": "approved",
          "type": "bool"
        }
      ],
      "name": "setApprovalForAll",
      "outputs": [],
      "stateMutability": "nonpayable",
      "type": "function"
    },
    {
      "inputs": [
        {
          "internalType": "string",
          "name": "newValue",
          "type": "string"
        }
      ],
      "name": "setContractURI",
      "outputs": [],
      "stateMutability": "nonpayable",
      "type": "function"
    },
    {
      "inputs": [
        {
          "components": [
            {
              "internalType": "address",
              "name": "recipient",
              "type": "address"
            },
            {
              "internalType": "uint16",
              "name": "bps",
              "type": "uint16"
            }
          ],
          "internalType": "struct IEIP2981RoyaltyOverride.TokenRoyalty",
          "name": "royalty",
          "type": "tuple"
        }
      ],
      "name": "setDefaultRoyalty",
      "outputs": [],
      "stateMutability": "nonpayable",
      "type": "function"
    },
    {
      "inputs": [
        {
          "internalType": "uint256",
          "name": "newValue",
          "type": "uint256"
        }
      ],
      "name": "setMaxSupply",
      "outputs": [],
      "stateMutability": "nonpayable",
      "type": "function"
    },
    {
      "inputs": [
        {
          "internalType": "address",
          "name": "addr",
          "type": "address"
        }
      ],
      "name": "setOpenSeaExchangeAddress",
      "outputs": [],
      "stateMutability": "nonpayable",
      "type": "function"
    },
    {
      "inputs": [
        {
          "internalType": "address",
          "name": "addr",
          "type": "address"
        }
      ],
      "name": "setOpenSeaProxyRegistryAddress",
      "outputs": [],
      "stateMutability": "nonpayable",
      "type": "function"
    },
    {
      "inputs": [
        {
          "internalType": "string",
          "name": "newValue",
          "type": "string"
        }
      ],
      "name": "setPlaceholderURI",
      "outputs": [],
      "stateMutability": "nonpayable",
      "type": "function"
    },
    {
      "inputs": [
        {
          "internalType": "uint256",
          "name": "newValue",
          "type": "uint256"
        }
      ],
      "name": "setPreSaleMaxMintPerWallet",
      "outputs": [],
      "stateMutability": "nonpayable",
      "type": "function"
    },
    {
      "inputs": [
        {
          "internalType": "uint256",
          "name": "newValue",
          "type": "uint256"
        }
      ],
      "name": "setPreSalePrice",
      "outputs": [],
      "stateMutability": "nonpayable",
      "type": "function"
    },
    {
      "inputs": [
        {
          "internalType": "address",
          "name": "_proceedsRecipient",
          "type": "address"
        }
      ],
      "name": "setProceedsRecipient",
      "outputs": [],
      "stateMutability": "nonpayable",
      "type": "function"
    },
    {
      "inputs": [
        {
          "internalType": "uint256",
          "name": "newValue",
          "type": "uint256"
        }
      ],
      "name": "setPublicSaleMaxMintPerTx",
      "outputs": [],
      "stateMutability": "nonpayable",
      "type": "function"
    },
    {
      "inputs": [
        {
          "internalType": "uint256",
          "name": "newValue",
          "type": "uint256"
        }
      ],
      "name": "setPublicSalePrice",
      "outputs": [],
      "stateMutability": "nonpayable",
      "type": "function"
    },
    {
      "inputs": [
        {
          "components": [
            {
              "internalType": "uint256",
              "name": "tokenId",
              "type": "uint256"
            },
            {
              "internalType": "address",
              "name": "recipient",
              "type": "address"
            },
            {
              "internalType": "uint16",
              "name": "bps",
              "type": "uint16"
            }
          ],
          "internalType": "struct IEIP2981RoyaltyOverride.TokenRoyaltyConfig[]",
          "name": "royaltyConfigs",
          "type": "tuple[]"
        }
      ],
      "name": "setTokenRoyalties",
      "outputs": [],
      "stateMutability": "nonpayable",
      "type": "function"
    },
    {
      "inputs": [
        {
          "internalType": "string",
          "name": "newValue",
          "type": "string"
        }
      ],
      "name": "setTokenURIPrefix",
      "outputs": [],
      "stateMutability": "nonpayable",
      "type": "function"
    },
    {
      "inputs": [
        {
          "internalType": "string",
          "name": "newValue",
          "type": "string"
        }
      ],
      "name": "setTokenURISuffix",
      "outputs": [],
      "stateMutability": "nonpayable",
      "type": "function"
    },
    {
      "inputs": [
        {
          "internalType": "address",
          "name": "trustedForwarder",
          "type": "address"
        }
      ],
      "name": "setTrustedForwarder",
      "outputs": [],
      "stateMutability": "nonpayable",
      "type": "function"
    },
    {
      "inputs": [
        {
          "internalType": "bytes4",
          "name": "interfaceId",
          "type": "bytes4"
        }
      ],
      "name": "supportsInterface",
      "outputs": [
        {
          "internalType": "bool",
          "name": "",
          "type": "bool"
        }
      ],
      "stateMutability": "view",
      "type": "function"
    },
    {
      "inputs": [],
      "name": "symbol",
      "outputs": [
        {
          "internalType": "string",
          "name": "",
          "type": "string"
        }
      ],
      "stateMutability": "view",
      "type": "function"
    },
    {
      "inputs": [
        {
          "internalType": "bool",
          "name": "isActive",
          "type": "bool"
        }
      ],
      "name": "togglePreSaleStatus",
      "outputs": [],
      "stateMutability": "nonpayable",
      "type": "function"
    },
    {
      "inputs": [
        {
          "internalType": "bool",
          "name": "isActive",
          "type": "bool"
        }
      ],
      "name": "togglePublicSaleStatus",
      "outputs": [],
      "stateMutability": "nonpayable",
      "type": "function"
    },
    {
      "inputs": [
        {
          "internalType": "uint256",
          "name": "_tokenId",
          "type": "uint256"
        }
      ],
      "name": "tokenURI",
      "outputs": [
        {
          "internalType": "string",
          "name": "",
          "type": "string"
        }
      ],
      "stateMutability": "view",
      "type": "function"
    },
    {
      "inputs": [],
      "name": "tokenURIPrefix",
      "outputs": [
        {
          "internalType": "string",
          "name": "",
          "type": "string"
        }
      ],
      "stateMutability": "view",
      "type": "function"
    },
    {
      "inputs": [],
      "name": "tokenURISuffix",
      "outputs": [
        {
          "internalType": "string",
          "name": "",
          "type": "string"
        }
      ],
      "stateMutability": "view",
      "type": "function"
    },
    {
      "inputs": [],
      "name": "tokensURIFrozen",
      "outputs": [
        {
          "internalType": "bool",
          "name": "",
          "type": "bool"
        }
      ],
      "stateMutability": "view",
      "type": "function"
    },
    {
      "inputs": [],
      "name": "totalSupply",
      "outputs": [
        {
          "internalType": "uint256",
          "name": "",
          "type": "uint256"
        }
      ],
      "stateMutability": "view",
      "type": "function"
    },
    {
      "inputs": [
        {
          "internalType": "address",
          "name": "from",
          "type": "address"
        },
        {
          "internalType": "address",
          "name": "to",
          "type": "address"
        },
        {
          "internalType": "uint256",
          "name": "tokenId",
          "type": "uint256"
        }
      ],
      "name": "transferFrom",
      "outputs": [],
      "stateMutability": "nonpayable",
      "type": "function"
    },
    {
      "inputs": [
        {
          "internalType": "address",
          "name": "from",
          "type": "address"
        },
        {
          "internalType": "address",
          "name": "to",
          "type": "address"
        },
        {
          "internalType": "uint256[]",
          "name": "tokenIds",
          "type": "uint256[]"
        }
      ],
      "name": "transferFromBulk",
      "outputs": [],
      "stateMutability": "nonpayable",
      "type": "function"
    },
    {
      "inputs": [
        {
          "internalType": "address[]",
          "name": "from",
          "type": "address[]"
        },
        {
          "internalType": "address[]",
          "name": "to",
          "type": "address[]"
        },
        {
          "internalType": "uint256[]",
          "name": "tokenIds",
          "type": "uint256[]"
        }
      ],
      "name": "transferFromBulk",
      "outputs": [],
      "stateMutability": "nonpayable",
      "type": "function"
    },
    {
      "inputs": [
        {
          "internalType": "address",
          "name": "newOwner",
          "type": "address"
        }
      ],
      "name": "transferOwnership",
      "outputs": [],
      "stateMutability": "nonpayable",
      "type": "function"
    },
    {
      "inputs": [],
      "name": "withdraw",
      "outputs": [],
      "stateMutability": "nonpayable",
      "type": "function"
    }
  ],
  "transactionHash": "0x3a62307b3526a72c85e60c9bdba343c2546514ad8e4fa2f96919a553f04dd422",
  "args": [
    {
      "name": "Collection",
      "symbol": "COL",
      "contractURI": "ipfs://contractURI",
      "placeholderURI": "ipfs://placeholderURI",
      "tokenURIPrefix": "ipfs://tokenURIPrefix/",
      "maxSupply": 0,
      "preSalePrice": 0,
      "preSaleMaxMintPerWallet": 0,
      "publicSalePrice": 0,
      "publicSaleMaxMintPerTx": 10,
      "defaultRoyaltyAddress": "0x0000000000000000000000000000000000000000",
      "defaultRoyaltyBps": 0,
      "proceedsRecipient": "0x0000000000000000000000000000000000000000",
      "openSeaProxyRegistryAddress": "0x0000000000000000000000000000000000000000",
      "openSeaExchangeAddress": "0x0000000000000000000000000000000000000000",
      "trustedForwarder": "0x0000000000000000000000000000000000000000"
    }
  ],
  "numDeployments": 4,
  "solcInputHash": "470302a5814053ecb62284701b8f3231",
  "bytecode": "0x60c06040526005608081905264173539b7b760d91b60a09081526200002891600a919062000cb5565b5060006011553480156200003b57600080fd5b50604051620062e6380380620062e68339810160408190526200005e9162000e90565b805160208201516200007962000073620000bf565b620000db565b81516200008e90600290602085019062000cb5565b508051620000a490600390602084019062000cb5565b5050600160125550620000b8813362000136565b5062001131565b6000620000d6620002b360201b620026bc1760201c565b905090565b600080546001600160a01b038381166201000081810262010000600160b01b0319851617855560405193049190911692909183917f8be0079c531659141344cd1fd0a4f28419497f9722a3daafe3b4186f6b6457e091a35050565b6000620001446001620002ec565b905080156200015d576000805461ff0019166101001790555b6200016a6000836200039e565b6200017582620000db565b8251602084015160408501516200018e929190620003ae565b620001a883606001518460800151620003e560201b60201c565b60a0830151620001b8906200041b565b620001c262000453565b620001cd8262000489565b620001e78360c001518460e00151620004be60201b60201c565b620002038361010001518461012001516200050560201b60201c565b61018083015162000214906200053b565b620002308361014001518461016001516200057060201b60201c565b6200024c836101a00151846101c00151620005a660201b60201c565b6101e08301516200025d90620005dc565b6200026762000611565b8015620002ae576000805461ff0019169055604051600181527f7f26b83ff96e1f2b6a682f133852f6798a09c465da95921460cefb38474024989060200160405180910390a15b505050565b6022546000906001600160a01b0316331415620002d7575060131936013560601c90565b620000d66200064560201b620026de1760201c565b60008054610100900460ff161562000355578160ff16600114801562000325575062000323306200064960201b620026e21760201c565b155b6200034d5760405162461bcd60e51b815260040162000344906200105b565b60405180910390fd5b506000919050565b60005460ff8084169116106200037f5760405162461bcd60e51b815260040162000344906200105b565b506000805460ff191660ff92909216919091179055600190565b919050565b620003aa828262000658565b5050565b600054610100900460ff16620003d85760405162461bcd60e51b81526004016200034490620010a9565b620002ae838383620006fe565b600054610100900460ff166200040f5760405162461bcd60e51b81526004016200034490620010a9565b620003aa8282620007a0565b600054610100900460ff16620004455760405162461bcd60e51b81526004016200034490620010a9565b62000450816200081a565b50565b600054610100900460ff166200047d5760405162461bcd60e51b81526004016200034490620010a9565b620004876200086d565b565b600054610100900460ff16620004b35760405162461bcd60e51b81526004016200034490620010a9565b6200045081620008a9565b600054610100900460ff16620004e85760405162461bcd60e51b81526004016200034490620010a9565b620004fa63209680f760e11b62000911565b601391909155601455565b600054610100900460ff166200052f5760405162461bcd60e51b81526004016200034490620010a9565b620003aa828262000995565b600054610100900460ff16620005655760405162461bcd60e51b81526004016200034490620010a9565b6200045081620009dc565b600054610100900460ff166200059a5760405162461bcd60e51b81526004016200034490620010a9565b620003aa828262000a40565b600054610100900460ff16620005d05760405162461bcd60e51b81526004016200034490620010a9565b620003aa828262000add565b600054610100900460ff16620006065760405162461bcd60e51b81526004016200034490620010a9565b620004508162000b47565b600054610100900460ff166200063b5760405162461bcd60e51b81526004016200034490620010a9565b6200048762000b93565b3390565b6001600160a01b03163b151590565b6000828152601b602090815260408083206001600160a01b038516845290915290205460ff16620003aa576000828152601b602090815260408083206001600160a01b03851684529091529020805460ff19166001179055620006ba620000bf565b6001600160a01b0316816001600160a01b0316837f2f8788117e7eff1d82e926ec794901d17c78024a50270940304540a733656f0d60405160405180910390a45050565b600054610100900460ff16620007285760405162461bcd60e51b81526004016200034490620010a9565b82516200073d90600c90602086019062000cb5565b5081516200075390600d90602085019062000cb5565b5080516200076990600e90602084019062000cb5565b506200077c633d96f4ff60e11b62000911565b6200078e6380ac58cd60e01b62000911565b620002ae635b5e139f60e01b62000911565b600054610100900460ff16620007ca5760405162461bcd60e51b81526004016200034490620010a9565b8151620007df90600890602085019062000cb5565b508051620007f590600990602084019062000cb5565b5062000808638c0790b160e01b62000911565b620003aa635b5e139f60e01b62000911565b600054610100900460ff16620008445760405162461bcd60e51b81526004016200034490620010a9565b600f8190556200085b6330f487b560e11b62000911565b620004506380ac58cd60e01b62000911565b600054610100900460ff16620008975760405162461bcd60e51b81526004016200034490620010a9565b62000487631aa1577160e11b62000911565b600054610100900460ff16620008d35760405162461bcd60e51b81526004016200034490620010a9565b620008e5631a056e7160e01b62000911565b620004507f9f2df0fed2c77648de5860a4cc508cd0818c85b8b8a1ab4ceeef8d981c8956a6826200039e565b6001600160e01b031980821614156200096d5760405162461bcd60e51b815260206004820152601c60248201527f4552433136353a20696e76616c696420696e7465726661636520696400000000604482015260640162000344565b6001600160e01b0319166000908152600160208190526040909120805460ff19169091179055565b600054610100900460ff16620009bf5760405162461bcd60e51b81526004016200034490620010a9565b620009d16317e0bac360e31b62000911565b601891909155601955565b600054610100900460ff1662000a065760405162461bcd60e51b81526004016200034490620010a9565b62000a1863e2b3173560e01b62000911565b601a80546001600160a01b0390921661010002610100600160a81b0319909216919091179055565b600054610100900460ff1662000a6a5760405162461bcd60e51b81526004016200034490620010a9565b62000a7c633a47bf5160e11b62000911565b62000a8e63152a902d60e11b62000911565b62000aa063c69dbd8f60e01b62000911565b62000ab263656cb66560e11b62000911565b604080518082019091526001600160a01b038316815261ffff82166020820152620002ae8162000bcf565b600054610100900460ff1662000b075760405162461bcd60e51b81526004016200034490620010a9565b62000b19638d29851f60e01b62000911565b602080546001600160a01b039384166001600160a01b03199182161790915560218054929093169116179055565b600054610100900460ff1662000b715760405162461bcd60e51b81526004016200034490620010a9565b602280546001600160a01b0319166001600160a01b0392909216919091179055565b600054610100900460ff1662000bbd5760405162461bcd60e51b81526004016200034490620010a9565b62000487632a7c3e4960e01b62000911565b612710816020015161ffff161062000c185760405162461bcd60e51b815260206004820152600b60248201526a496e76616c69642062707360a81b604482015260640162000344565b60408051808201825282516001600160a01b03168082526020808501805161ffff1691909301819052601c8054600160a01b9092026001600160b01b03199092169092171790558251905191517f2c5ea6e4103e78cb101e796fb2dace540362fc542cbff5145eaa24af7dd8fe419262000caa92916001600160a01b0392909216825261ffff16602082015260400190565b60405180910390a150565b82805462000cc390620010f4565b90600052602060002090601f01602090048101928262000ce7576000855562000d32565b82601f1062000d0257805160ff191683800117855562000d32565b8280016001018555821562000d32579182015b8281111562000d3257825182559160200191906001019062000d15565b5062000d4092915062000d44565b5090565b5b8082111562000d40576000815560010162000d45565b634e487b7160e01b600052604160045260246000fd5b60405161020081016001600160401b038111828210171562000d975762000d9762000d5b565b60405290565b604051601f8201601f191681016001600160401b038111828210171562000dc85762000dc862000d5b565b604052919050565b600082601f83011262000de257600080fd5b81516001600160401b0381111562000dfe5762000dfe62000d5b565b602062000e14601f8301601f1916820162000d9d565b828152858284870101111562000e2957600080fd5b60005b8381101562000e4957858101830151828201840152820162000e2c565b8381111562000e5b5760008385840101525b5095945050505050565b80516001600160a01b03811681146200039957600080fd5b805161ffff811681146200039957600080fd5b60006020828403121562000ea357600080fd5b81516001600160401b038082111562000ebb57600080fd5b90830190610200828603121562000ed157600080fd5b62000edb62000d71565b82518281111562000eeb57600080fd5b62000ef98782860162000dd0565b82525060208301518281111562000f0f57600080fd5b62000f1d8782860162000dd0565b60208301525060408301518281111562000f3657600080fd5b62000f448782860162000dd0565b60408301525060608301518281111562000f5d57600080fd5b62000f6b8782860162000dd0565b60608301525060808301518281111562000f8457600080fd5b62000f928782860162000dd0565b60808301525060a0838101519082015260c0808401519082015260e0808401519082015261010080840151908201526101208084015190820152610140915062000fde82840162000e65565b82820152610160915062000ff482840162000e7d565b8282015261018091506200100a82840162000e65565b828201526101a091506200102082840162000e65565b828201526101c091506200103682840162000e65565b828201526101e091506200104c82840162000e65565b91810191909152949350505050565b6020808252602e908201527f496e697469616c697a61626c653a20636f6e747261637420697320616c72656160408201526d191e481a5b9a5d1a585b1a5e995960921b606082015260800190565b6020808252602b908201527f496e697469616c697a61626c653a20636f6e7472616374206973206e6f74206960408201526a6e697469616c697a696e6760a81b606082015260800190565b600181811c908216806200110957607f821691505b602082108114156200112b57634e487b7160e01b600052602260045260246000fd5b50919050565b6151a580620011416000396000f3fe60806040526004361061036d5760003560e01c806301ffc9a714610372578063059fb6f7146103a75780630653aca5146103c957806306fdde0314610418578063081812fc1461043a57806308abf02614610467578063095ea7b31461048757806316744607146104a757806318160ddd146104bc5780631a056e71146104db57806323b872dd146104fb578063248a9ca31461051b578063296e45271461053b5780632a55205a146105505780632d8e85b01461058f5780632f2ff15d146105af5780632fe388be146105cf57806331db3832146105ef5780633542aee2146106045780633574a2dd1461062457806336568abe146106445780633acf404d146106645780633c0e8f2c1461067a5780633ccfd60b1461069a57806342842e0e146106af578063464bd640146106cf5780634972471c146106e95780634f972f5f1461070a5780635136dcc71461072a57806356c022bb1461074a578063572b6c051461076a5780635a9b0b891461078a5780636352211e146107ed57806365e4c5d21461080d5780636c079cfc146108275780636f8b44b01461084757806370a0823114610867578063715018a6146108875780637313cba91461089c5780637885fdc7146108b1578063791a2519146108ec5780637d7eee421461090c5780637e9803421461092c5780638a4278ab146109415780638da5cb5b1461096157806391d1485414610976578063938e3d7b1461099657806395d89b41146109b657806399e0dd7c146109cb5780639b6860c8146109eb5780639e6b2c5b14610a01578063a217fddf14610a14578063a22cb46514610a29578063a304ee7614610a49578063a9852bfb14610a6e578063aaeaca4814610a8e578063b27c6f2d14610aa4578063b6c693e514610aba578063b88d4fde14610ad4578063c0ac998314610af4578063c87b56dd14610b09578063cad96cca14610b29578063d539139314610b56578063d547741f14610b78578063d5abeb0114610b98578063d79ff99d14610bae578063da74222814610bc1578063dbbc853b14610be1578063e3b9a7e514610bf6578063e757c17d14610c16578063e8a3d48514610c2c578063e985e9c514610c41578063ef60ceaf14610c61578063efa7f90c14610c81578063f2fde38b14610ca1578063f384702f14610cc1578063f74bbf5914610cdb578063f95df41414610cfb575b600080fd5b34801561037e57600080fd5b5061039261038d3660046141b1565b610d1b565b60405190151581526020015b60405180910390f35b3480156103b357600080fd5b506103c76103c23660046142eb565b610d3b565b005b3480156103d557600080fd5b506103e96103e436600461434c565b610ddb565b60408051825181526020808401516001600160a01b0316908201529181015161ffff169082015260600161039e565b34801561042457600080fd5b5061042d610e60565b60405161039e91906143bd565b34801561044657600080fd5b5061045a61045536600461434c565b610e6f565b60405161039e91906143d0565b34801561047357600080fd5b506103c76104823660046143e4565b610efc565b34801561049357600080fd5b506103c76104a2366004614401565b610f5d565b3480156104b357600080fd5b506103c7611080565b3480156104c857600080fd5b506011545b60405190815260200161039e565b3480156104e757600080fd5b506103c76104f6366004614401565b6110ce565b34801561050757600080fd5b506103c761051636600461442d565b611134565b34801561052757600080fd5b506104cd61053636600461434c565b61116c565b34801561054757600080fd5b506103c7611181565b34801561055c57600080fd5b5061057061056b36600461446e565b6111cf565b604080516001600160a01b03909316835260208301919091520161039e565b34801561059b57600080fd5b506103c76105aa3660046144a0565b611294565b3480156105bb57600080fd5b506103c76105ca3660046144bb565b6112e6565b3480156105db57600080fd5b506103c76105ea36600461454f565b611302565b3480156105fb57600080fd5b506103c7611467565b34801561061057600080fd5b506103c761061f366004614401565b6114e5565b34801561063057600080fd5b506103c761063f366004614643565b611524565b34801561065057600080fd5b506103c761065f3660046144bb565b611576565b34801561067057600080fd5b506104cd60155481565b34801561068657600080fd5b506103c761069536600461434c565b611600565b3480156106a657600080fd5b506103c7611644565b3480156106bb57600080fd5b506103c76106ca36600461442d565b6116d6565b3480156106db57600080fd5b506016546103929060ff1681565b3480156106f557600080fd5b50601a5461039290600160a81b900460ff1681565b34801561071657600080fd5b506103c76107253660046144a0565b6116f1565b34801561073657600080fd5b506103c7610745366004614677565b611743565b34801561075657600080fd5b5060225461045a906001600160a01b031681565b34801561077657600080fd5b506103926107853660046143e4565b6117dd565b34801561079657600080fd5b5061079f6117f1565b604080519a8b5260208b0199909952978901969096526060880194909452608087019290925260a0860152151560c085015260e084015261010083015215156101208201526101400161039e565b3480156107f957600080fd5b5061045a61080836600461434c565b611980565b34801561081957600080fd5b50600b546103929060ff1681565b34801561083357600080fd5b506103c76108423660046143e4565b6119f7565b34801561085357600080fd5b506103c761086236600461434c565b611a58565b34801561087357600080fd5b506104cd6108823660046143e4565b611ae1565b34801561089357600080fd5b506103c7611b68565b3480156108a857600080fd5b5061042d611bb3565b3480156108bd57600080fd5b50601c546108de906001600160a01b03811690600160a01b900461ffff1682565b60405161039e9291906146eb565b3480156108f857600080fd5b506103c761090736600461434c565b611c45565b34801561091857600080fd5b506103c761092736600461434c565b611c89565b34801561093857600080fd5b506104cd611ccd565b34801561094d57600080fd5b506103c761095c36600461471a565b611cd9565b34801561096d57600080fd5b5061045a611e14565b34801561098257600080fd5b506103926109913660046144bb565b611e29565b3480156109a257600080fd5b506103c76109b1366004614643565b611e54565b3480156109c257600080fd5b5061042d611ea6565b3480156109d757600080fd5b506103c76109e6366004614643565b611eb0565b3480156109f757600080fd5b506104cd60185481565b6103c7610a0f36600461491a565b611f25565b348015610a2057600080fd5b506104cd600081565b348015610a3557600080fd5b506103c7610a44366004614965565b612103565b348015610a5557600080fd5b50601a5461045a9061010090046001600160a01b031681565b348015610a7a57600080fd5b506103c7610a89366004614643565b612115565b348015610a9a57600080fd5b506104cd60145481565b348015610ab057600080fd5b506104cd60195481565b348015610ac657600080fd5b50601a546103929060ff1681565b348015610ae057600080fd5b506103c7610aef366004614991565b61218a565b348015610b0057600080fd5b5061042d6121c3565b348015610b1557600080fd5b5061042d610b2436600461434c565b6121d2565b348015610b3557600080fd5b50610b49610b4436600461434c565b6121dd565b60405161039e9190614a10565b348015610b6257600080fd5b506104cd60008051602061513083398151915281565b348015610b8457600080fd5b506103c7610b933660046144bb565b612298565b348015610ba457600080fd5b506104cd600f5481565b6103c7610bbc366004614401565b6122b4565b348015610bcd57600080fd5b506103c7610bdc3660046143e4565b6123ad565b348015610bed57600080fd5b5061042d61240e565b348015610c0257600080fd5b50610392610c11366004614a71565b61241d565b348015610c2257600080fd5b506104cd60135481565b348015610c3857600080fd5b5061042d61246b565b348015610c4d57600080fd5b50610392610c5c366004614aac565b61247a565b348015610c6d57600080fd5b506103c7610c7c366004614ada565b61249d565b348015610c8d57600080fd5b506103c7610c9c3660046143e4565b6124f6565b348015610cad57600080fd5b506103c7610cbc3660046143e4565b612587565b348015610ccd57600080fd5b506010546103929060ff1681565b348015610ce757600080fd5b506103c7610cf636600461434c565b612634565b348015610d0757600080fd5b506103c7610d1636600461434c565b612678565b6000610d26826126f1565b80610d355750610d358261272c565b92915050565b60005b8151811015610dd557306001600160a01b03166323b872dd8585858581518110610d6a57610d6a614af2565b60200260200101516040518463ffffffff1660e01b8152600401610d9093929190614b08565b600060405180830381600087803b158015610daa57600080fd5b505af1158015610dbe573d6000803e3d6000fd5b505050508080610dcd90614b42565b915050610d3e565b50505050565b6040805160608101825260008082526020820181905291810182905290610e03601e84612768565b6000818152601d60209081526040918290208251808401845290546001600160a01b03808216835261ffff600160a01b90920482168385019081528551606081018752968752925116928501929092525116908201529392505050565b6060610e6a612774565b905090565b6000610e7a8261277e565b610ee05760405162461bcd60e51b815260206004820152602c60248201527f4552433732313a20617070726f76656420717565727920666f72206e6f6e657860448201526b34b9ba32b73a103a37b5b2b760a11b60648201526084015b60405180910390fd5b506000908152600660205260409020546001600160a01b031690565b610f0461279b565b6001600160a01b0316610f15611e14565b6001600160a01b031614610f3b5760405162461bcd60e51b8152600401610ed790614b5d565b602080546001600160a01b0319166001600160a01b0392909216919091179055565b6000610f6882611980565b9050806001600160a01b0316836001600160a01b03161415610fd65760405162461bcd60e51b815260206004820152602160248201527f4552433732313a20617070726f76616c20746f2063757272656e74206f776e656044820152603960f91b6064820152608401610ed7565b806001600160a01b0316610fe861279b565b6001600160a01b03161480611004575061100481610c5c61279b565b6110715760405162461bcd60e51b815260206004820152603860248201527f4552433732313a20617070726f76652063616c6c6572206973206e6f74206f776044820152771b995c881b9bdc88185c1c1c9bdd995908199bdc88185b1b60421b6064820152608401610ed7565b61107b83836127a5565b505050565b61108861279b565b6001600160a01b0316611099611e14565b6001600160a01b0316146110bf5760405162461bcd60e51b8152600401610ed790614b5d565b6010805460ff19166001179055565b6110e860008051602061513083398151915261099161279b565b6111265760405162461bcd60e51b815260206004820152600f60248201526e4e4f545f4d494e5445525f524f4c4560881b6044820152606401610ed7565b6111308282612813565b5050565b61114561113f61279b565b826128a9565b6111615760405162461bcd60e51b8152600401610ed790614b92565b61107b838383612972565b6000908152601b602052604090206001015490565b61118961279b565b6001600160a01b031661119a611e14565b6001600160a01b0316146111c05760405162461bcd60e51b8152600401610ed790614b5d565b600b805460ff19166001179055565b6000828152601d602052604081205481906001600160a01b031615611234576000848152601d60205260409020546001600160a01b038116906127109061122190600160a01b900461ffff1686614be3565b61122b9190614c18565b9150915061128d565b601c546001600160a01b03161580159061125a5750601c54600160a01b900461ffff1615155b1561128657601c546001600160a01b038116906127109061122190600160a01b900461ffff1686614be3565b5060009050805b9250929050565b61129c61279b565b6001600160a01b03166112ad611e14565b6001600160a01b0316146112d35760405162461bcd60e51b8152600401610ed790614b5d565b601a805460ff1916911515919091179055565b6112ef8261116c565b6112f881612afc565b61107b8383612b0d565b815183511461134d5760405162461bcd60e51b815260206004820152601760248201527608ca49e9abea89ebe988a9c8ea890be9a92a69a82a8869604b1b6044820152606401610ed7565b805183511461139b5760405162461bcd60e51b815260206004820152601a60248201527908ca49e9abea89e968a9cbe988a9c8ea890be9a92a69a82a886960331b6044820152606401610ed7565b60005b8151811015610dd557306001600160a01b03166323b872dd8583815181106113c8576113c8614af2565b60200260200101518584815181106113e2576113e2614af2565b60200260200101518585815181106113fc576113fc614af2565b60200260200101516040518463ffffffff1660e01b815260040161142293929190614b08565b600060405180830381600087803b15801561143c57600080fd5b505af1158015611450573d6000803e3d6000fd5b50505050808061145f90614b42565b91505061139e565b61146f61279b565b6001600160a01b0316611480611e14565b6001600160a01b0316146114a65760405162461bcd60e51b8152600401610ed790614b5d565b601a54600160a81b900460ff16156114d05760405162461bcd60e51b8152600401610ed790614c2c565b601a805460ff60a81b1916600160a81b179055565b6114ed61279b565b6001600160a01b03166114fe611e14565b6001600160a01b0316146111265760405162461bcd60e51b8152600401610ed790614b5d565b61152c61279b565b6001600160a01b031661153d611e14565b6001600160a01b0316146115635760405162461bcd60e51b8152600401610ed790614b5d565b8051611130906008906020840190614102565b61157e61279b565b6001600160a01b0316816001600160a01b0316146115f65760405162461bcd60e51b815260206004820152602f60248201527f416363657373436f6e74726f6c3a2063616e206f6e6c792072656e6f756e636560448201526e103937b632b9903337b91039b2b63360891b6064820152608401610ed7565b6111308282612b94565b61160861279b565b6001600160a01b0316611619611e14565b6001600160a01b03161461163f5760405162461bcd60e51b8152600401610ed790614b5d565b601955565b601a5461010090046001600160a01b03166116975760405162461bcd60e51b8152602060048201526013602482015272115490cdcc8c4bd393d7d49150d25412515395606a1b6044820152606401610ed7565b601a54604051479161010090046001600160a01b0316906108fc8315029083906000818181858888f19350505050158015611130573d6000803e3d6000fd5b61107b8383836040518060200160405280600081525061218a565b6116f961279b565b6001600160a01b031661170a611e14565b6001600160a01b0316146117305760405162461bcd60e51b8152600401610ed790614b5d565b6016805460ff1916911515919091179055565b61174b61279b565b6001600160a01b031661175c611e14565b6001600160a01b0316146117825760405162461bcd60e51b8152600401610ed790614b5d565b6111308282808060200260200160405190810160405280939291908181526020016000905b828210156117d3576117c460608302860136819003810190614c5d565b815260200190600101906117a7565b5050505050612c19565b6022546001600160a01b0391821691161490565b6000808080808080808080808061180661279b565b6001600160a01b03161461189157306370a0823161182261279b565b6040518263ffffffff1660e01b815260040161183e91906143d0565b60206040518083038186803b15801561185657600080fd5b505afa15801561186a573d6000803e3d6000fd5b505050506040513d601f19601f8201168201806040525081019061188e9190614cc3565b90505b600f54306001600160a01b03166318160ddd6040518163ffffffff1660e01b815260040160206040518083038186803b1580156118cd57600080fd5b505afa1580156118e1573d6000803e3d6000fd5b505050506040513d601f19601f820116820180604052508101906119059190614cc3565b826013546014546017600061191861279b565b6001600160a01b03166001600160a01b0316815260200190815260200160002054601660009054906101000a900460ff16601854601954601a60009054906101000a900460ff169a509a509a509a509a509a509a509a509a509a505090919293949596979899565b6000818152600460205260408120546001600160a01b031680610d355760405162461bcd60e51b815260206004820152602960248201527f4552433732313a206f776e657220717565727920666f72206e6f6e657869737460448201526832b73a103a37b5b2b760b91b6064820152608401610ed7565b6119ff61279b565b6001600160a01b0316611a10611e14565b6001600160a01b031614611a365760405162461bcd60e51b8152600401610ed790614b5d565b602180546001600160a01b0319166001600160a01b0392909216919091179055565b611a6061279b565b6001600160a01b0316611a71611e14565b6001600160a01b031614611a975760405162461bcd60e51b8152600401610ed790614b5d565b60105460ff1615611adc5760405162461bcd60e51b815260206004820152600f60248201526e2120a9a2afaaa924afa32927ad22a760891b6044820152606401610ed7565b600f55565b60006001600160a01b038216611b4c5760405162461bcd60e51b815260206004820152602a60248201527f4552433732313a2062616c616e636520717565727920666f7220746865207a65604482015269726f206164647265737360b01b6064820152608401610ed7565b506001600160a01b031660009081526005602052604090205490565b611b7061279b565b6001600160a01b0316611b81611e14565b6001600160a01b031614611ba75760405162461bcd60e51b8152600401610ed790614b5d565b611bb16000612dc0565b565b606060088054611bc290614cdc565b80601f0160208091040260200160405190810160405280929190818152602001828054611bee90614cdc565b8015611c3b5780601f10611c1057610100808354040283529160200191611c3b565b820191906000526020600020905b815481529060010190602001808311611c1e57829003601f168201915b5050505050905090565b611c4d61279b565b6001600160a01b0316611c5e611e14565b6001600160a01b031614611c845760405162461bcd60e51b8152600401610ed790614b5d565b601855565b611c9161279b565b6001600160a01b0316611ca2611e14565b6001600160a01b031614611cc85760405162461bcd60e51b8152600401610ed790614b5d565b601355565b6000610e6a601e612e1b565b6000611ce56001612e25565b90508015611cfd576000805461ff0019166101001790555b611d08600083612eb9565b611d1182612dc0565b611d28836000015184602001518560400151612ec3565b611d3a83606001518460800151612ef5565b611d478360a00151612f26565b611d4f612f56565b611d5882612f85565b611d6a8360c001518460e00151612fb5565b611d7e836101000151846101200151612ff7565b611d8c836101800151613028565b611da0836101400151846101600151613058565b611db4836101a00151846101c00151613089565b611dc2836101e001516130ba565b611dca6130ea565b801561107b576000805461ff0019169055604051600181527f7f26b83ff96e1f2b6a682f133852f6798a09c465da95921460cefb38474024989060200160405180910390a1505050565b6000546201000090046001600160a01b031690565b6000918252601b602090815260408084206001600160a01b0393909316845291905290205460ff1690565b611e5c61279b565b6001600160a01b0316611e6d611e14565b6001600160a01b031614611e935760405162461bcd60e51b8152600401610ed790614b5d565b805161113090600e906020840190614102565b6060610e6a613119565b611eb861279b565b6001600160a01b0316611ec9611e14565b6001600160a01b031614611eef5760405162461bcd60e51b8152600401610ed790614b5d565b600b5460ff1615611f125760405162461bcd60e51b8152600401610ed790614d11565b8051611130906009906020840190614102565b60026012541415611f485760405162461bcd60e51b8152600401610ed790614d3c565b600260125560165460ff16611f955760405162461bcd60e51b81526020600482015260136024820152725052455f53414c455f4e4f545f41435449564560681b6044820152606401610ed7565b6000611f9f61279b565b9050611fea838380806020026020016040519081016040528093929190818152602001838360200280828437600092019190915250506015549150611fe5905084613123565b61315d565b61202d5760405162461bcd60e51b8152602060048201526014602482015273282922afa9a0a622afaba927a723afa82927a7a360611b6044820152606401610ed7565b6014546001600160a01b038216600090815260176020526040902054612054908690614d73565b11156120935760405162461bcd60e51b815260206004820152600e60248201526d14149157d4d0531157d31253525560921b6044820152606401610ed7565b34846013546120a29190614be3565b11156120c05760405162461bcd60e51b8152600401610ed790614d8b565b6001600160a01b038116600090815260176020526040812080548692906120e8908490614d73565b909155506120f890508185612813565b505060016012555050565b61113061210e61279b565b8383613173565b61211d61279b565b6001600160a01b031661212e611e14565b6001600160a01b0316146121545760405162461bcd60e51b8152600401610ed790614b5d565b600b5460ff16156121775760405162461bcd60e51b8152600401610ed790614d11565b805161113090600a906020840190614102565b61219b61219561279b565b836128a9565b6121b75760405162461bcd60e51b8152600401610ed790614b92565b610dd58484848461323e565b606060098054611bc290614cdc565b6060610d3582613271565b604080516001808252818301909252606091816020015b60408051808201909152600080825260208201528152602001906001900390816121f4575050601c5481519192506001600160a01b031690829060009061223d5761223d614af2565b60209081029190910101516001600160a01b03919091169052601c548151600160a01b90910461ffff1690829060009061227957612279614af2565b6020908102919091018101516001600160601b03909216910152919050565b6122a18261116c565b6122aa81612afc565b61107b8383612b94565b600260125414156122d75760405162461bcd60e51b8152600401610ed790614d3c565b6002601255601a5460ff166123275760405162461bcd60e51b81526020600482015260166024820152755055424c49435f53414c455f4e4f545f41435449564560501b6044820152606401610ed7565b60195481111561236d5760405162461bcd60e51b8152602060048201526011602482015270141550931250d7d4d0531157d312535255607a1b6044820152606401610ed7565b348160185461237c9190614be3565b111561239a5760405162461bcd60e51b8152600401610ed790614d8b565b6123a48282612813565b50506001601255565b6123b561279b565b6001600160a01b03166123c6611e14565b6001600160a01b0316146123ec5760405162461bcd60e51b8152600401610ed790614b5d565b602280546001600160a01b0319166001600160a01b0392909216919091179055565b6060600a8054611bc290614cdc565b6000612463838380806020026020016040519081016040528093929190818152602001838360200280828437600092019190915250506015549150611fe5905087613123565b949350505050565b6060600e8054611bc290614cdc565b6000612486838361334d565b806124965750612496838361337b565b9392505050565b6124a561279b565b6001600160a01b03166124b6611e14565b6001600160a01b0316146124dc5760405162461bcd60e51b8152600401610ed790614b5d565b6124f36124ee36839003830183614db8565b613468565b50565b6124fe61279b565b6001600160a01b031661250f611e14565b6001600160a01b0316146125355760405162461bcd60e51b8152600401610ed790614b5d565b601a54600160a81b900460ff161561255f5760405162461bcd60e51b8152600401610ed790614c2c565b601a80546001600160a01b0390921661010002610100600160a81b0319909216919091179055565b61258f61279b565b6001600160a01b03166125a0611e14565b6001600160a01b0316146125c65760405162461bcd60e51b8152600401610ed790614b5d565b6001600160a01b03811661262b5760405162461bcd60e51b815260206004820152602660248201527f4f776e61626c653a206e6577206f776e657220697320746865207a65726f206160448201526564647265737360d01b6064820152608401610ed7565b6124f381612dc0565b61263c61279b565b6001600160a01b031661264d611e14565b6001600160a01b0316146126735760405162461bcd60e51b8152600401610ed790614b5d565b601455565b61268061279b565b6001600160a01b0316612691611e14565b6001600160a01b0316146126b75760405162461bcd60e51b8152600401610ed790614b5d565b601555565b60006126c7336117dd565b156126d9575060131936013560601c90565b503390565b3390565b6001600160a01b03163b151590565b60006001600160e01b031982166380ac58cd60e01b1480610d2657506001600160e01b03198216635b5e139f60e01b1480610d355750610d35825b60006301ffc9a760e01b6001600160e01b031983161480610d355750506001600160e01b03191660009081526001602052604090205460ff1690565b60006124968383613513565b6060610e6a61353d565b6000908152600460205260409020546001600160a01b0316151590565b6000610e6a6126bc565b600081815260066020526040902080546001600160a01b0319166001600160a01b03841690811790915581906127da82611980565b6001600160a01b03167f8c5be1e5ebec7d5bd14f71427d1e84f3dd0314c0f7b2291e5b200ac8c7c3b92560405160405180910390a45050565b600f548161282060115490565b61282a9190614d73565b111561286d5760405162461bcd60e51b8152602060048201526012602482015271455843454544535f4d41585f535550504c5960701b6044820152606401610ed7565b60005b8181101561107b57600061288261354c565b905061288e848261355d565b612896613577565b50806128a181614b42565b915050612870565b60006128b48261277e565b6129155760405162461bcd60e51b815260206004820152602c60248201527f4552433732313a206f70657261746f7220717565727920666f72206e6f6e657860448201526b34b9ba32b73a103a37b5b2b760a11b6064820152608401610ed7565b600061292083611980565b9050806001600160a01b0316846001600160a01b031614806129475750612947818561247a565b806124635750836001600160a01b031661296084610e6f565b6001600160a01b031614949350505050565b826001600160a01b031661298582611980565b6001600160a01b0316146129e95760405162461bcd60e51b815260206004820152602560248201527f4552433732313a207472616e736665722066726f6d20696e636f72726563742060448201526437bbb732b960d91b6064820152608401610ed7565b6001600160a01b038216612a4b5760405162461bcd60e51b8152602060048201526024808201527f4552433732313a207472616e7366657220746f20746865207a65726f206164646044820152637265737360e01b6064820152608401610ed7565b612a566000826127a5565b6001600160a01b0383166000908152600560205260408120805460019290612a7f908490614e14565b90915550506001600160a01b0382166000908152600560205260408120805460019290612aad908490614d73565b909155505060008181526004602052604080822080546001600160a01b0319166001600160a01b03868116918217909255915184939187169160008051602061515083398151915291a4505050565b6124f381612b0861279b565b61358e565b612b178282611e29565b611130576000828152601b602090815260408083206001600160a01b03851684529091529020805460ff19166001179055612b5061279b565b6001600160a01b0316816001600160a01b0316837f2f8788117e7eff1d82e926ec794901d17c78024a50270940304540a733656f0d60405160405180910390a45050565b612b9e8282611e29565b15611130576000828152601b602090815260408083206001600160a01b03851684529091529020805460ff19169055612bd561279b565b6001600160a01b0316816001600160a01b0316837ff6391f5c32d9c69d2a47ea670b442974b53935d1edc7fd64eb21e047a839171b60405160405180910390a45050565b60005b8151811015611130576000828281518110612c3957612c39614af2565b60200260200101519050612710816040015161ffff1610612c6c5760405162461bcd60e51b8152600401610ed790614e2b565b60208101516001600160a01b0316612ce55780516000908152601d6020526040902080546001600160b01b03191690558051612caa90601e906135f2565b5080516040519081527fa2870857763bd9ae76c957f869f16b31c18dd3bb4c7b4d3a4496dc5c57c657f99060200160405180910390a1612dad565b6040805180820182526020808401516001600160a01b0390811683528484015161ffff90811683850190815286516000908152601d90945294909220925183549451909216600160a01b026001600160b01b03199094169116179190911790558051612d5390601e906135fe565b50805160208083015160408085015181519485526001600160a01b039092169284019290925261ffff1682820152517f389b70fb0887f01e83784eb1c4c589f740eca53b00ed0f45e41db5d079719abb9181900360600190a15b5080612db881614b42565b915050612c1c565b600080546001600160a01b038381166201000081810262010000600160b01b0319851617855560405193049190911692909183917f8be0079c531659141344cd1fd0a4f28419497f9722a3daafe3b4186f6b6457e091a35050565b6000610d35825490565b60008054610100900460ff1615612e73578160ff166001148015612e4f5750612e4d306126e2565b155b612e6b5760405162461bcd60e51b8152600401610ed790614e50565b506000919050565b60005460ff808416911610612e9a5760405162461bcd60e51b8152600401610ed790614e50565b506000805460ff191660ff92909216919091179055600190565b919050565b6111308282612b0d565b600054610100900460ff16612eea5760405162461bcd60e51b8152600401610ed790614e9e565b61107b83838361360a565b600054610100900460ff16612f1c5760405162461bcd60e51b8152600401610ed790614e9e565b611130828261369d565b600054610100900460ff16612f4d5760405162461bcd60e51b8152600401610ed790614e9e565b6124f38161370c565b600054610100900460ff16612f7d5760405162461bcd60e51b8152600401610ed790614e9e565b611bb1613758565b600054610100900460ff16612fac5760405162461bcd60e51b8152600401610ed790614e9e565b6124f38161378f565b600054610100900460ff16612fdc5760405162461bcd60e51b8152600401610ed790614e9e565b612fec63209680f760e11b6137de565b601391909155601455565b600054610100900460ff1661301e5760405162461bcd60e51b8152600401610ed790614e9e565b611130828261385f565b600054610100900460ff1661304f5760405162461bcd60e51b8152600401610ed790614e9e565b6124f3816138a1565b600054610100900460ff1661307f5760405162461bcd60e51b8152600401610ed790614e9e565b61113082826138d8565b600054610100900460ff166130b05760405162461bcd60e51b8152600401610ed790614e9e565b6111308282613968565b600054610100900460ff166130e15760405162461bcd60e51b8152600401610ed790614e9e565b6124f3816139cd565b600054610100900460ff166131115760405162461bcd60e51b8152600401610ed790614e9e565b611bb16139f4565b6060610e6a613a2b565b6040516001600160601b0319606083901b166020820152600090603401604051602081830303815290604052805190602001209050919050565b60008261316a8584613a3a565b14949350505050565b816001600160a01b0316836001600160a01b031614156131d15760405162461bcd60e51b815260206004820152601960248201527822a9219b99189d1030b8383937bb32903a379031b0b63632b960391b6044820152606401610ed7565b6001600160a01b03838116600081815260076020908152604080832094871680845294825291829020805460ff191686151590811790915591519182527f17307eab39ab6107e8899845ad3d59bd9653f200f220920489ca2b5937696c31910160405180910390a3505050565b613249848484612972565b61325584848484613aae565b610dd55760405162461bcd60e51b8152600401610ed790614ee9565b606060006009805461328290614cdc565b905011613319576008805461329690614cdc565b80601f01602080910402602001604051908101604052809291908181526020018280546132c290614cdc565b801561330f5780601f106132e45761010080835404028352916020019161330f565b820191906000526020600020905b8154815290600101906020018083116132f257829003601f168201915b5050505050610d35565b600961332483613bc9565b600a60405160200161333893929190614fd5565b60405160208183030381529060405292915050565b6001600160a01b03918216600090815260076020908152604080832093909416825291909152205460ff1690565b6020546000906001600160a01b03161561342f5760205460405163c455279160e01b81526001600160a01b0391821691841690829063c4552791906133c49088906004016143d0565b60206040518083038186803b1580156133dc57600080fd5b505afa1580156133f0573d6000803e3d6000fd5b505050506040513d601f19601f820116820180604052508101906134149190615008565b6001600160a01b0316141561342d576001915050610d35565b505b6021546001600160a01b03161561345e576021546001600160a01b038381169116141561345e57506001610d35565b612496838361334d565b612710816020015161ffff16106134915760405162461bcd60e51b8152600401610ed790614e2b565b60408051808201825282516001600160a01b03168082526020808501805161ffff1691909301819052601c80546001600160b01b031916909217600160a01b9091021790558251905191517f2c5ea6e4103e78cb101e796fb2dace540362fc542cbff5145eaa24af7dd8fe419261350892916146eb565b60405180910390a150565b600082600001828154811061352a5761352a614af2565b9060005260206000200154905092915050565b6060600c8054611bc290614cdc565b601154600090610e6a906001613cc6565b611130828260405180602001604052806000815250613cd2565b6011805490600061358783614b42565b9190505550565b6135988282611e29565b611130576135b0816001600160a01b03166014613d05565b6135bb836020613d05565b6040516020016135cc929190615025565b60408051601f198184030181529082905262461bcd60e51b8252610ed7916004016143bd565b60006124968383613ea0565b60006124968383613f93565b600054610100900460ff166136315760405162461bcd60e51b8152600401610ed790614e9e565b825161364490600c906020860190614102565b50815161365890600d906020850190614102565b50805161366c90600e906020840190614102565b5061367d633d96f4ff60e11b6137de565b61368d6380ac58cd60e01b6137de565b61107b635b5e139f60e01b6137de565b600054610100900460ff166136c45760405162461bcd60e51b8152600401610ed790614e9e565b81516136d7906008906020850190614102565b5080516136eb906009906020840190614102565b506136fc638c0790b160e01b6137de565b611130635b5e139f60e01b6137de565b600054610100900460ff166137335760405162461bcd60e51b8152600401610ed790614e9e565b600f8190556137486330f487b560e11b6137de565b6124f36380ac58cd60e01b6137de565b600054610100900460ff1661377f5760405162461bcd60e51b8152600401610ed790614e9e565b611bb1631aa1577160e11b6137de565b600054610100900460ff166137b65760405162461bcd60e51b8152600401610ed790614e9e565b6137c6631a056e7160e01b6137de565b6124f360008051602061513083398151915282612eb9565b6001600160e01b031980821614156138375760405162461bcd60e51b815260206004820152601c60248201527b115490cc4d8d4e881a5b9d985b1a59081a5b9d195c999858d9481a5960221b6044820152606401610ed7565b6001600160e01b0319166000908152600160208190526040909120805460ff19169091179055565b600054610100900460ff166138865760405162461bcd60e51b8152600401610ed790614e9e565b6138966317e0bac360e31b6137de565b601891909155601955565b600054610100900460ff166138c85760405162461bcd60e51b8152600401610ed790614e9e565b61255f63e2b3173560e01b6137de565b600054610100900460ff166138ff5760405162461bcd60e51b8152600401610ed790614e9e565b61390f633a47bf5160e11b6137de565b61391f63152a902d60e11b6137de565b61392f63c69dbd8f60e01b6137de565b61393f63656cb66560e11b6137de565b604080518082019091526001600160a01b038316815261ffff8216602082015261107b81613468565b600054610100900460ff1661398f5760405162461bcd60e51b8152600401610ed790614e9e565b61399f638d29851f60e01b6137de565b602080546001600160a01b039384166001600160a01b03199182161790915560218054929093169116179055565b600054610100900460ff166123ec5760405162461bcd60e51b8152600401610ed790614e9e565b600054610100900460ff16613a1b5760405162461bcd60e51b8152600401610ed790614e9e565b611bb1632a7c3e4960e01b6137de565b6060600d8054611bc290614cdc565b600081815b8451811015613aa6576000858281518110613a5c57613a5c614af2565b60200260200101519050808311613a825760008381526020829052604090209250613a93565b600081815260208490526040902092505b5080613a9e81614b42565b915050613a3f565b509392505050565b6000613ac2846001600160a01b03166126e2565b15613bbe57836001600160a01b031663150b7a02613ade61279b565b8786866040518563ffffffff1660e01b8152600401613b009493929190615094565b602060405180830381600087803b158015613b1a57600080fd5b505af1925050508015613b4a575060408051601f3d908101601f19168201909252613b47918101906150d1565b60015b613ba4573d808015613b78576040519150601f19603f3d011682016040523d82523d6000602084013e613b7d565b606091505b508051613b9c5760405162461bcd60e51b8152600401610ed790614ee9565b805181602001fd5b6001600160e01b031916630a85bd0160e11b149050612463565b506001949350505050565b606081613bed5750506040805180820190915260018152600360fc1b602082015290565b8160005b8115613c175780613c0181614b42565b9150613c109050600a83614c18565b9150613bf1565b6000816001600160401b03811115613c3157613c316141ee565b6040519080825280601f01601f191660200182016040528015613c5b576020820181803683370190505b5090505b841561246357613c70600183614e14565b9150613c7d600a866150ee565b613c88906030614d73565b60f81b818381518110613c9d57613c9d614af2565b60200101906001600160f81b031916908160001a905350613cbf600a86614c18565b9450613c5f565b60006124968284614d73565b613cdc8383613fe2565b613ce96000848484613aae565b61107b5760405162461bcd60e51b8152600401610ed790614ee9565b60606000613d14836002614be3565b613d1f906002614d73565b6001600160401b03811115613d3657613d366141ee565b6040519080825280601f01601f191660200182016040528015613d60576020820181803683370190505b509050600360fc1b81600081518110613d7b57613d7b614af2565b60200101906001600160f81b031916908160001a905350600f60fb1b81600181518110613daa57613daa614af2565b60200101906001600160f81b031916908160001a9053506000613dce846002614be3565b613dd9906001614d73565b90505b6001811115613e51576f181899199a1a9b1b9c1cb0b131b232b360811b85600f1660108110613e0d57613e0d614af2565b1a60f81b828281518110613e2357613e23614af2565b60200101906001600160f81b031916908160001a90535060049490941c93613e4a81615102565b9050613ddc565b5083156124965760405162461bcd60e51b815260206004820181905260248201527f537472696e67733a20686578206c656e67746820696e73756666696369656e746044820152606401610ed7565b60008181526001830160205260408120548015613f89576000613ec4600183614e14565b8554909150600090613ed890600190614e14565b9050818114613f3d576000866000018281548110613ef857613ef8614af2565b9060005260206000200154905080876000018481548110613f1b57613f1b614af2565b6000918252602080832090910192909255918252600188019052604090208390555b8554869080613f4e57613f4e615119565b600190038181906000526020600020016000905590558560010160008681526020019081526020016000206000905560019350505050610d35565b6000915050610d35565b6000818152600183016020526040812054613fda57508154600181810184556000848152602080822090930184905584548482528286019093526040902091909155610d35565b506000610d35565b6001600160a01b0382166140385760405162461bcd60e51b815260206004820181905260248201527f4552433732313a206d696e7420746f20746865207a65726f20616464726573736044820152606401610ed7565b6140418161277e565b1561408d5760405162461bcd60e51b815260206004820152601c60248201527b115490cdcc8c4e881d1bdad95b88185b1c9958591e481b5a5b9d195960221b6044820152606401610ed7565b6001600160a01b03821660009081526005602052604081208054600192906140b6908490614d73565b909155505060008181526004602052604080822080546001600160a01b0319166001600160a01b0386169081179091559051839290600080516020615150833981519152908290a45050565b82805461410e90614cdc565b90600052602060002090601f0160209004810192826141305760008555614176565b82601f1061414957805160ff1916838001178555614176565b82800160010185558215614176579182015b8281111561417657825182559160200191906001019061415b565b50614182929150614186565b5090565b5b808211156141825760008155600101614187565b6001600160e01b0319811681146124f357600080fd5b6000602082840312156141c357600080fd5b81356124968161419b565b6001600160a01b03811681146124f357600080fd5b8035612eb4816141ce565b634e487b7160e01b600052604160045260246000fd5b60405161020081016001600160401b0381118282101715614227576142276141ee565b60405290565b604051601f8201601f191681016001600160401b0381118282101715614255576142556141ee565b604052919050565b60006001600160401b03821115614276576142766141ee565b5060051b60200190565b600082601f83011261429157600080fd5b813560206142a66142a18361425d565b61422d565b82815260059290921b840181019181810190868411156142c557600080fd5b8286015b848110156142e057803583529183019183016142c9565b509695505050505050565b60008060006060848603121561430057600080fd5b833561430b816141ce565b9250602084013561431b816141ce565b915060408401356001600160401b0381111561433657600080fd5b61434286828701614280565b9150509250925092565b60006020828403121561435e57600080fd5b5035919050565b60005b83811015614380578181015183820152602001614368565b83811115610dd55750506000910152565b600081518084526143a9816020860160208601614365565b601f01601f19169290920160200192915050565b6020815260006124966020830184614391565b6001600160a01b0391909116815260200190565b6000602082840312156143f657600080fd5b8135612496816141ce565b6000806040838503121561441457600080fd5b823561441f816141ce565b946020939093013593505050565b60008060006060848603121561444257600080fd5b833561444d816141ce565b9250602084013561445d816141ce565b929592945050506040919091013590565b6000806040838503121561448157600080fd5b50508035926020909101359150565b80358015158114612eb457600080fd5b6000602082840312156144b257600080fd5b61249682614490565b600080604083850312156144ce57600080fd5b8235915060208301356144e0816141ce565b809150509250929050565b600082601f8301126144fc57600080fd5b8135602061450c6142a18361425d565b82815260059290921b8401810191818101908684111561452b57600080fd5b8286015b848110156142e0578035614542816141ce565b835291830191830161452f565b60008060006060848603121561456457600080fd5b83356001600160401b038082111561457b57600080fd5b614587878388016144eb565b9450602086013591508082111561459d57600080fd5b6145a9878388016144eb565b935060408601359150808211156145bf57600080fd5b5061434286828701614280565b60006001600160401b038311156145e5576145e56141ee565b6145f8601f8401601f191660200161422d565b905082815283838301111561460c57600080fd5b828260208301376000602084830101529392505050565b600082601f83011261463457600080fd5b612496838335602085016145cc565b60006020828403121561465557600080fd5b81356001600160401b0381111561466b57600080fd5b61246384828501614623565b6000806020838503121561468a57600080fd5b82356001600160401b03808211156146a157600080fd5b818501915085601f8301126146b557600080fd5b8135818111156146c457600080fd5b8660206060830285010111156146d957600080fd5b60209290920196919550909350505050565b6001600160a01b0392909216825261ffff16602082015260400190565b803561ffff81168114612eb457600080fd5b6000806040838503121561472d57600080fd5b82356001600160401b038082111561474457600080fd5b90840190610200828703121561475957600080fd5b614761614204565b82358281111561477057600080fd5b61477c88828601614623565b82525060208301358281111561479157600080fd5b61479d88828601614623565b6020830152506040830135828111156147b557600080fd5b6147c188828601614623565b6040830152506060830135828111156147d957600080fd5b6147e588828601614623565b6060830152506080830135828111156147fd57600080fd5b61480988828601614623565b60808301525060a0838101359082015260c0808401359082015260e080840135908201526101008084013590820152610120808401359082015261014091506148538284016141e3565b828201526101609150614867828401614708565b82820152610180915061487b8284016141e3565b828201526101a0915061488f8284016141e3565b828201526101c091506148a38284016141e3565b828201526101e091506148b78284016141e3565b828201528094505050506148cd602084016141e3565b90509250929050565b60008083601f8401126148e857600080fd5b5081356001600160401b038111156148ff57600080fd5b6020830191508360208260051b850101111561128d57600080fd5b60008060006040848603121561492f57600080fd5b8335925060208401356001600160401b0381111561494c57600080fd5b614958868287016148d6565b9497909650939450505050565b6000806040838503121561497857600080fd5b8235614983816141ce565b91506148cd60208401614490565b600080600080608085870312156149a757600080fd5b84356149b2816141ce565b935060208501356149c2816141ce565b92506040850135915060608501356001600160401b038111156149e457600080fd5b8501601f810187136149f557600080fd5b614a04878235602084016145cc565b91505092959194509250565b602080825282518282018190526000919060409081850190868401855b82811015614a6457815180516001600160a01b031685528601516001600160601b0316868501529284019290850190600101614a2d565b5091979650505050505050565b600080600060408486031215614a8657600080fd5b8335614a91816141ce565b925060208401356001600160401b0381111561494c57600080fd5b60008060408385031215614abf57600080fd5b8235614aca816141ce565b915060208301356144e0816141ce565b600060408284031215614aec57600080fd5b50919050565b634e487b7160e01b600052603260045260246000fd5b6001600160a01b039384168152919092166020820152604081019190915260600190565b634e487b7160e01b600052601160045260246000fd5b6000600019821415614b5657614b56614b2c565b5060010190565b6020808252818101527f4f776e61626c653a2063616c6c6572206973206e6f7420746865206f776e6572604082015260600190565b60208082526031908201527f4552433732313a207472616e736665722063616c6c6572206973206e6f74206f6040820152701ddb995c881b9bdc88185c1c1c9bdd9959607a1b606082015260800190565b6000816000190483118215151615614bfd57614bfd614b2c565b500290565b634e487b7160e01b600052601260045260246000fd5b600082614c2757614c27614c02565b500490565b602080825260179082015276115490cdcc8c4bd49150d2541251539517d313d0d2d151604a1b604082015260600190565b600060608284031215614c6f57600080fd5b604051606081016001600160401b0381118282101715614c9157614c916141ee565b604052823581526020830135614ca6816141ce565b6020820152614cb760408401614708565b60408201529392505050565b600060208284031215614cd557600080fd5b5051919050565b600181811c90821680614cf057607f821691505b60208210811415614aec57634e487b7160e01b600052602260045260246000fd5b6020808252601190820152702a27a5a2a729afaaa924afa32927ad22a760791b604082015260600190565b6020808252601f908201527f5265656e7472616e637947756172643a207265656e7472616e742063616c6c00604082015260600190565b60008219821115614d8657614d86614b2c565b500190565b602080825260139082015272125394d551919250d251539517d05353d55395606a1b604082015260600190565b600060408284031215614dca57600080fd5b604080519081016001600160401b0381118282101715614dec57614dec6141ee565b6040528235614dfa816141ce565b8152614e0860208401614708565b60208201529392505050565b600082821015614e2657614e26614b2c565b500390565b6020808252600b908201526a496e76616c69642062707360a81b604082015260600190565b6020808252602e908201527f496e697469616c697a61626c653a20636f6e747261637420697320616c72656160408201526d191e481a5b9a5d1a585b1a5e995960921b606082015260800190565b6020808252602b908201527f496e697469616c697a61626c653a20636f6e7472616374206973206e6f74206960408201526a6e697469616c697a696e6760a81b606082015260800190565b60208082526032908201527f4552433732313a207472616e7366657220746f206e6f6e20455243373231526560408201527131b2b4bb32b91034b6b83632b6b2b73a32b960711b606082015260800190565b8054600090600181811c9080831680614f5557607f831692505b6020808410821415614f7757634e487b7160e01b600052602260045260246000fd5b818015614f8b5760018114614f9c57614fc9565b60ff19861689528489019650614fc9565b60008881526020902060005b86811015614fc15781548b820152908501908301614fa8565b505084890196505b50505050505092915050565b6000614fe18286614f3b565b8451614ff1818360208901614365565b614ffd81830186614f3b565b979650505050505050565b60006020828403121561501a57600080fd5b8151612496816141ce565b76020b1b1b2b9b9a1b7b73a3937b61d1030b1b1b7bab73a1604d1b815260008351615057816017850160208801614365565b7001034b99036b4b9b9b4b733903937b6329607d1b6017918401918201528351615088816028840160208801614365565b01602801949350505050565b6001600160a01b03858116825284166020820152604081018390526080606082018190526000906150c790830184614391565b9695505050505050565b6000602082840312156150e357600080fd5b81516124968161419b565b6000826150fd576150fd614c02565b500690565b60008161511157615111614b2c565b506000190190565b634e487b7160e01b600052603160045260246000fdfe9f2df0fed2c77648de5860a4cc508cd0818c85b8b8a1ab4ceeef8d981c8956a6ddf252ad1be2c89b69c2b068fc378daa952ba7f163c4a11628f55a4df523b3efa2646970667358221220e3e0a816c237310d43c558974eeb7ddde70252e58ed1c018a6d6b846052cc2a464736f6c63430008090033",
  "devdoc": {
    "kind": "dev",
    "methods": {
      "approve(address,uint256)": {
        "details": "See {IERC721-approve}."
      },
      "balanceOf(address)": {
        "details": "See {IERC721-balanceOf}."
      },
      "getApproved(uint256)": {
        "details": "See {IERC721-getApproved}."
      },
      "getRoleAdmin(bytes32)": {
        "details": "Returns the admin role that controls `role`. See {grantRole} and {revokeRole}. To change a role's admin, use {_setRoleAdmin}."
      },
      "getTokenRoyaltiesCount()": {
        "details": "See {IEIP2981RoyaltyOverride-getTokenRoyaltiesCount}."
      },
      "getTokenRoyaltyByIndex(uint256)": {
        "details": "See {IEIP2981RoyaltyOverride-getTokenRoyaltyByIndex}."
      },
      "grantRole(bytes32,address)": {
        "details": "Grants `role` to `account`. If `account` had not been already granted `role`, emits a {RoleGranted} event. Requirements: - the caller must have ``role``'s admin role."
      },
      "hasRole(bytes32,address)": {
        "details": "Returns `true` if `account` has been granted `role`."
      },
      "owner()": {
        "details": "Returns the address of the current owner."
      },
      "ownerOf(uint256)": {
        "details": "See {IERC721-ownerOf}."
      },
      "renounceOwnership()": {
        "details": "Leaves the contract without owner. It will not be possible to call `onlyOwner` functions anymore. Can only be called by the current owner. NOTE: Renouncing ownership will leave the contract without an owner, thereby removing any functionality that is only available to the owner."
      },
      "renounceRole(bytes32,address)": {
        "details": "Revokes `role` from the calling account. Roles are often managed via {grantRole} and {revokeRole}: this function's purpose is to provide a mechanism for accounts to lose their privileges if they are compromised (such as when a trusted device is misplaced). If the calling account had been revoked `role`, emits a {RoleRevoked} event. Requirements: - the caller must be `account`."
      },
      "revokeRole(bytes32,address)": {
        "details": "Revokes `role` from `account`. If `account` had been granted `role`, emits a {RoleRevoked} event. Requirements: - the caller must have ``role``'s admin role."
      },
      "royaltyInfo(uint256,uint256)": {
        "details": "See {IEIP2981RoyaltyOverride-royaltyInfo}."
      },
      "safeTransferFrom(address,address,uint256)": {
        "details": "See {IERC721-safeTransferFrom}."
      },
      "safeTransferFrom(address,address,uint256,bytes)": {
        "details": "See {IERC721-safeTransferFrom}."
      },
      "setApprovalForAll(address,bool)": {
        "details": "See {IERC721-setApprovalForAll}."
      },
      "transferFrom(address,address,uint256)": {
        "details": "See {IERC721-transferFrom}."
      },
      "transferOwnership(address)": {
        "details": "Transfers ownership of the contract to a new account (`newOwner`). Can only be called by the current owner."
      }
    },
    "version": 1
  },
  "userdoc": {
    "kind": "user",
    "methods": {
      "isApprovedForAll(address,address)": {
        "notice": "Override isApprovedForAll to whitelist user's OpenSea proxy accounts to enable gas-less listings."
      },
      "transferFromBulk(address,address,uint256[])": {
        "notice": "Useful for when user wants to return tokens to get a refund, or when they want to transfer lots of tokens by paying gas fee only once."
      },
      "transferFromBulk(address[],address[],uint256[])": {
        "notice": "Useful for transferring multiple tokens from/to multiple addresses."
      }
    },
    "version": 1
  },
  "storageLayout": {
    "storage": [
      {
        "astId": 886,
        "contract": "contracts/collections/ERC721/presets/ERC721FullFeaturedCollection.sol:ERC721FullFeaturedCollection",
        "label": "_initialized",
        "offset": 0,
        "slot": "0",
        "type": "t_uint8"
      },
      {
        "astId": 889,
        "contract": "contracts/collections/ERC721/presets/ERC721FullFeaturedCollection.sol:ERC721FullFeaturedCollection",
        "label": "_initializing",
        "offset": 1,
        "slot": "0",
        "type": "t_bool"
      },
      {
        "astId": 782,
        "contract": "contracts/collections/ERC721/presets/ERC721FullFeaturedCollection.sol:ERC721FullFeaturedCollection",
        "label": "_owner",
        "offset": 2,
        "slot": "0",
        "type": "t_address"
      },
      {
        "astId": 4693,
        "contract": "contracts/collections/ERC721/presets/ERC721FullFeaturedCollection.sol:ERC721FullFeaturedCollection",
        "label": "_supportedInterfaces",
        "offset": 0,
        "slot": "1",
        "type": "t_mapping(t_bytes4,t_bool)"
      },
      {
        "astId": 1912,
        "contract": "contracts/collections/ERC721/presets/ERC721FullFeaturedCollection.sol:ERC721FullFeaturedCollection",
        "label": "_name",
        "offset": 0,
        "slot": "2",
        "type": "t_string_storage"
      },
      {
        "astId": 1914,
        "contract": "contracts/collections/ERC721/presets/ERC721FullFeaturedCollection.sol:ERC721FullFeaturedCollection",
        "label": "_symbol",
        "offset": 0,
        "slot": "3",
        "type": "t_string_storage"
      },
      {
        "astId": 1918,
        "contract": "contracts/collections/ERC721/presets/ERC721FullFeaturedCollection.sol:ERC721FullFeaturedCollection",
        "label": "_owners",
        "offset": 0,
        "slot": "4",
        "type": "t_mapping(t_uint256,t_address)"
      },
      {
        "astId": 1922,
        "contract": "contracts/collections/ERC721/presets/ERC721FullFeaturedCollection.sol:ERC721FullFeaturedCollection",
        "label": "_balances",
        "offset": 0,
        "slot": "5",
        "type": "t_mapping(t_address,t_uint256)"
      },
      {
        "astId": 1926,
        "contract": "contracts/collections/ERC721/presets/ERC721FullFeaturedCollection.sol:ERC721FullFeaturedCollection",
        "label": "_tokenApprovals",
        "offset": 0,
        "slot": "6",
        "type": "t_mapping(t_uint256,t_address)"
      },
      {
        "astId": 1932,
        "contract": "contracts/collections/ERC721/presets/ERC721FullFeaturedCollection.sol:ERC721FullFeaturedCollection",
        "label": "_operatorApprovals",
        "offset": 0,
        "slot": "7",
        "type": "t_mapping(t_address,t_mapping(t_address,t_bool))"
      },
      {
        "astId": 7358,
        "contract": "contracts/collections/ERC721/presets/ERC721FullFeaturedCollection.sol:ERC721FullFeaturedCollection",
        "label": "_placeholderURI",
        "offset": 0,
        "slot": "8",
        "type": "t_string_storage"
      },
      {
        "astId": 7360,
        "contract": "contracts/collections/ERC721/presets/ERC721FullFeaturedCollection.sol:ERC721FullFeaturedCollection",
        "label": "_tokenURIPrefix",
        "offset": 0,
        "slot": "9",
        "type": "t_string_storage"
      },
      {
        "astId": 7363,
        "contract": "contracts/collections/ERC721/presets/ERC721FullFeaturedCollection.sol:ERC721FullFeaturedCollection",
        "label": "_tokenURISuffix",
        "offset": 0,
        "slot": "10",
        "type": "t_string_storage"
      },
      {
        "astId": 7365,
        "contract": "contracts/collections/ERC721/presets/ERC721FullFeaturedCollection.sol:ERC721FullFeaturedCollection",
        "label": "tokensURIFrozen",
        "offset": 0,
        "slot": "11",
        "type": "t_bool"
      },
      {
        "astId": 6091,
        "contract": "contracts/collections/ERC721/presets/ERC721FullFeaturedCollection.sol:ERC721FullFeaturedCollection",
        "label": "_name",
        "offset": 0,
        "slot": "12",
        "type": "t_string_storage"
      },
      {
        "astId": 6093,
        "contract": "contracts/collections/ERC721/presets/ERC721FullFeaturedCollection.sol:ERC721FullFeaturedCollection",
        "label": "_symbol",
        "offset": 0,
        "slot": "13",
        "type": "t_string_storage"
      },
      {
        "astId": 6095,
        "contract": "contracts/collections/ERC721/presets/ERC721FullFeaturedCollection.sol:ERC721FullFeaturedCollection",
        "label": "_contractURI",
        "offset": 0,
        "slot": "14",
        "type": "t_string_storage"
      },
      {
        "astId": 5696,
        "contract": "contracts/collections/ERC721/presets/ERC721FullFeaturedCollection.sol:ERC721FullFeaturedCollection",
        "label": "maxSupply",
        "offset": 0,
        "slot": "15",
        "type": "t_uint256"
      },
      {
        "astId": 5698,
        "contract": "contracts/collections/ERC721/presets/ERC721FullFeaturedCollection.sol:ERC721FullFeaturedCollection",
        "label": "maxSupplyFrozen",
        "offset": 0,
        "slot": "16",
        "type": "t_bool"
      },
      {
        "astId": 5701,
        "contract": "contracts/collections/ERC721/presets/ERC721FullFeaturedCollection.sol:ERC721FullFeaturedCollection",
        "label": "_currentTokenId",
        "offset": 0,
        "slot": "17",
        "type": "t_uint256"
      },
      {
        "astId": 1124,
        "contract": "contracts/collections/ERC721/presets/ERC721FullFeaturedCollection.sol:ERC721FullFeaturedCollection",
        "label": "_status",
        "offset": 0,
        "slot": "18",
        "type": "t_uint256"
      },
      {
        "astId": 7081,
        "contract": "contracts/collections/ERC721/presets/ERC721FullFeaturedCollection.sol:ERC721FullFeaturedCollection",
        "label": "preSalePrice",
        "offset": 0,
        "slot": "19",
        "type": "t_uint256"
      },
      {
        "astId": 7083,
        "contract": "contracts/collections/ERC721/presets/ERC721FullFeaturedCollection.sol:ERC721FullFeaturedCollection",
        "label": "preSaleMaxMintPerWallet",
        "offset": 0,
        "slot": "20",
        "type": "t_uint256"
      },
      {
        "astId": 7085,
        "contract": "contracts/collections/ERC721/presets/ERC721FullFeaturedCollection.sol:ERC721FullFeaturedCollection",
        "label": "preSaleAllowlistMerkleRoot",
        "offset": 0,
        "slot": "21",
        "type": "t_bytes32"
      },
      {
        "astId": 7087,
        "contract": "contracts/collections/ERC721/presets/ERC721FullFeaturedCollection.sol:ERC721FullFeaturedCollection",
        "label": "preSaleStatus",
        "offset": 0,
        "slot": "22",
        "type": "t_bool"
      },
      {
        "astId": 7091,
        "contract": "contracts/collections/ERC721/presets/ERC721FullFeaturedCollection.sol:ERC721FullFeaturedCollection",
        "label": "preSaleAllowlistClaimed",
        "offset": 0,
        "slot": "23",
        "type": "t_mapping(t_address,t_uint256)"
      },
      {
        "astId": 7589,
        "contract": "contracts/collections/ERC721/presets/ERC721FullFeaturedCollection.sol:ERC721FullFeaturedCollection",
        "label": "publicSalePrice",
        "offset": 0,
        "slot": "24",
        "type": "t_uint256"
      },
      {
        "astId": 7591,
        "contract": "contracts/collections/ERC721/presets/ERC721FullFeaturedCollection.sol:ERC721FullFeaturedCollection",
        "label": "publicSaleMaxMintPerTx",
        "offset": 0,
        "slot": "25",
        "type": "t_uint256"
      },
      {
        "astId": 7593,
        "contract": "contracts/collections/ERC721/presets/ERC721FullFeaturedCollection.sol:ERC721FullFeaturedCollection",
        "label": "publicSaleStatus",
        "offset": 0,
        "slot": "26",
        "type": "t_bool"
      },
      {
        "astId": 8052,
        "contract": "contracts/collections/ERC721/presets/ERC721FullFeaturedCollection.sol:ERC721FullFeaturedCollection",
        "label": "proceedsRecipient",
        "offset": 1,
        "slot": "26",
        "type": "t_address"
      },
      {
        "astId": 8054,
        "contract": "contracts/collections/ERC721/presets/ERC721FullFeaturedCollection.sol:ERC721FullFeaturedCollection",
        "label": "proceedsRecipientLocked",
        "offset": 21,
        "slot": "26",
        "type": "t_bool"
      },
      {
        "astId": 406,
        "contract": "contracts/collections/ERC721/presets/ERC721FullFeaturedCollection.sol:ERC721FullFeaturedCollection",
        "label": "_roles",
        "offset": 0,
        "slot": "27",
        "type": "t_mapping(t_bytes32,t_struct(RoleData)401_storage)"
      },
      {
        "astId": 86,
        "contract": "contracts/collections/ERC721/presets/ERC721FullFeaturedCollection.sol:ERC721FullFeaturedCollection",
        "label": "defaultRoyalty",
        "offset": 0,
        "slot": "28",
        "type": "t_struct(TokenRoyalty)28_storage"
      },
      {
        "astId": 91,
        "contract": "contracts/collections/ERC721/presets/ERC721FullFeaturedCollection.sol:ERC721FullFeaturedCollection",
        "label": "_tokenRoyalties",
        "offset": 0,
        "slot": "29",
        "type": "t_mapping(t_uint256,t_struct(TokenRoyalty)28_storage)"
      },
      {
        "astId": 94,
        "contract": "contracts/collections/ERC721/presets/ERC721FullFeaturedCollection.sol:ERC721FullFeaturedCollection",
        "label": "_tokensWithRoyalties",
        "offset": 0,
        "slot": "30",
        "type": "t_struct(UintSet)5526_storage"
      },
      {
        "astId": 6577,
        "contract": "contracts/collections/ERC721/presets/ERC721FullFeaturedCollection.sol:ERC721FullFeaturedCollection",
        "label": "_openSeaProxyRegistryAddress",
        "offset": 0,
        "slot": "32",
        "type": "t_address"
      },
      {
        "astId": 6579,
        "contract": "contracts/collections/ERC721/presets/ERC721FullFeaturedCollection.sol:ERC721FullFeaturedCollection",
        "label": "_openSeaExchangeAddress",
        "offset": 0,
        "slot": "33",
        "type": "t_address"
      },
      {
        "astId": 11645,
        "contract": "contracts/collections/ERC721/presets/ERC721FullFeaturedCollection.sol:ERC721FullFeaturedCollection",
        "label": "_trustedForwarder",
        "offset": 0,
        "slot": "34",
        "type": "t_address"
      }
    ],
    "types": {
      "t_address": {
        "encoding": "inplace",
        "label": "address",
        "numberOfBytes": "20"
      },
      "t_array(t_bytes32)dyn_storage": {
        "base": "t_bytes32",
        "encoding": "dynamic_array",
        "label": "bytes32[]",
        "numberOfBytes": "32"
      },
      "t_bool": {
        "encoding": "inplace",
        "label": "bool",
        "numberOfBytes": "1"
      },
      "t_bytes32": {
        "encoding": "inplace",
        "label": "bytes32",
        "numberOfBytes": "32"
      },
      "t_bytes4": {
        "encoding": "inplace",
        "label": "bytes4",
        "numberOfBytes": "4"
      },
      "t_mapping(t_address,t_bool)": {
        "encoding": "mapping",
        "key": "t_address",
        "label": "mapping(address => bool)",
        "numberOfBytes": "32",
        "value": "t_bool"
      },
      "t_mapping(t_address,t_mapping(t_address,t_bool))": {
        "encoding": "mapping",
        "key": "t_address",
        "label": "mapping(address => mapping(address => bool))",
        "numberOfBytes": "32",
        "value": "t_mapping(t_address,t_bool)"
      },
      "t_mapping(t_address,t_uint256)": {
        "encoding": "mapping",
        "key": "t_address",
        "label": "mapping(address => uint256)",
        "numberOfBytes": "32",
        "value": "t_uint256"
      },
      "t_mapping(t_bytes32,t_struct(RoleData)401_storage)": {
        "encoding": "mapping",
        "key": "t_bytes32",
        "label": "mapping(bytes32 => struct AccessControl.RoleData)",
        "numberOfBytes": "32",
        "value": "t_struct(RoleData)401_storage"
      },
      "t_mapping(t_bytes32,t_uint256)": {
        "encoding": "mapping",
        "key": "t_bytes32",
        "label": "mapping(bytes32 => uint256)",
        "numberOfBytes": "32",
        "value": "t_uint256"
      },
      "t_mapping(t_bytes4,t_bool)": {
        "encoding": "mapping",
        "key": "t_bytes4",
        "label": "mapping(bytes4 => bool)",
        "numberOfBytes": "32",
        "value": "t_bool"
      },
      "t_mapping(t_uint256,t_address)": {
        "encoding": "mapping",
        "key": "t_uint256",
        "label": "mapping(uint256 => address)",
        "numberOfBytes": "32",
        "value": "t_address"
      },
      "t_mapping(t_uint256,t_struct(TokenRoyalty)28_storage)": {
        "encoding": "mapping",
        "key": "t_uint256",
        "label": "mapping(uint256 => struct IEIP2981RoyaltyOverride.TokenRoyalty)",
        "numberOfBytes": "32",
        "value": "t_struct(TokenRoyalty)28_storage"
      },
      "t_string_storage": {
        "encoding": "bytes",
        "label": "string",
        "numberOfBytes": "32"
      },
      "t_struct(RoleData)401_storage": {
        "encoding": "inplace",
        "label": "struct AccessControl.RoleData",
        "members": [
          {
            "astId": 398,
            "contract": "contracts/collections/ERC721/presets/ERC721FullFeaturedCollection.sol:ERC721FullFeaturedCollection",
            "label": "members",
            "offset": 0,
            "slot": "0",
            "type": "t_mapping(t_address,t_bool)"
          },
          {
            "astId": 400,
            "contract": "contracts/collections/ERC721/presets/ERC721FullFeaturedCollection.sol:ERC721FullFeaturedCollection",
            "label": "adminRole",
            "offset": 0,
            "slot": "1",
            "type": "t_bytes32"
          }
        ],
        "numberOfBytes": "64"
      },
      "t_struct(Set)5068_storage": {
        "encoding": "inplace",
        "label": "struct EnumerableSet.Set",
        "members": [
          {
            "astId": 5063,
            "contract": "contracts/collections/ERC721/presets/ERC721FullFeaturedCollection.sol:ERC721FullFeaturedCollection",
            "label": "_values",
            "offset": 0,
            "slot": "0",
            "type": "t_array(t_bytes32)dyn_storage"
          },
          {
            "astId": 5067,
            "contract": "contracts/collections/ERC721/presets/ERC721FullFeaturedCollection.sol:ERC721FullFeaturedCollection",
            "label": "_indexes",
            "offset": 0,
            "slot": "1",
            "type": "t_mapping(t_bytes32,t_uint256)"
          }
        ],
        "numberOfBytes": "64"
      },
      "t_struct(TokenRoyalty)28_storage": {
        "encoding": "inplace",
        "label": "struct IEIP2981RoyaltyOverride.TokenRoyalty",
        "members": [
          {
            "astId": 25,
            "contract": "contracts/collections/ERC721/presets/ERC721FullFeaturedCollection.sol:ERC721FullFeaturedCollection",
            "label": "recipient",
            "offset": 0,
            "slot": "0",
            "type": "t_address"
          },
          {
            "astId": 27,
            "contract": "contracts/collections/ERC721/presets/ERC721FullFeaturedCollection.sol:ERC721FullFeaturedCollection",
            "label": "bps",
            "offset": 20,
            "slot": "0",
            "type": "t_uint16"
          }
        ],
        "numberOfBytes": "32"
      },
      "t_struct(UintSet)5526_storage": {
        "encoding": "inplace",
        "label": "struct EnumerableSet.UintSet",
        "members": [
          {
            "astId": 5525,
            "contract": "contracts/collections/ERC721/presets/ERC721FullFeaturedCollection.sol:ERC721FullFeaturedCollection",
            "label": "_inner",
            "offset": 0,
            "slot": "0",
            "type": "t_struct(Set)5068_storage"
          }
        ],
        "numberOfBytes": "64"
      },
      "t_uint16": {
        "encoding": "inplace",
        "label": "uint16",
        "numberOfBytes": "2"
      },
      "t_uint256": {
        "encoding": "inplace",
        "label": "uint256",
        "numberOfBytes": "32"
      },
      "t_uint8": {
        "encoding": "inplace",
        "label": "uint8",
        "numberOfBytes": "1"
      }
    }
  }
}