{
  "address": "0x9416d6ddD6BeD6e1ffbc64a7B44D455e6fD40a6A",
  "abi": [
    {
      "inputs": [
        {
          "components": [
            {
              "internalType": "string",
              "name": "name",
              "type": "string"
            },
            {
              "internalType": "string",
              "name": "symbol",
              "type": "string"
            },
            {
              "internalType": "string",
              "name": "contractURI",
              "type": "string"
            },
            {
              "internalType": "string",
              "name": "baseURI",
              "type": "string"
            },
            {
              "internalType": "string",
              "name": "placeholderURI",
              "type": "string"
            },
            {
              "internalType": "address[]",
              "name": "initialHolders",
              "type": "address[]"
            },
            {
              "internalType": "uint256[]",
              "name": "initialAmounts",
              "type": "uint256[]"
            },
            {
              "internalType": "uint256",
              "name": "maxSupply",
              "type": "uint256"
            },
            {
              "internalType": "address",
              "name": "defaultRoyaltyAddress",
              "type": "address"
            },
            {
              "internalType": "uint16",
              "name": "defaultRoyaltyBps",
              "type": "uint16"
            },
            {
              "internalType": "address",
              "name": "trustedForwarder",
              "type": "address"
            }
          ],
          "internalType": "struct ERC721ManagedPrefixedCollection.Config",
          "name": "config",
          "type": "tuple"
        }
      ],
      "stateMutability": "nonpayable",
      "type": "constructor"
    },
    {
      "anonymous": false,
      "inputs": [
        {
          "indexed": true,
          "internalType": "address",
          "name": "owner",
          "type": "address"
        },
        {
          "indexed": true,
          "internalType": "address",
          "name": "approved",
          "type": "address"
        },
        {
          "indexed": true,
          "internalType": "uint256",
          "name": "tokenId",
          "type": "uint256"
        }
      ],
      "name": "Approval",
      "type": "event"
    },
    {
      "anonymous": false,
      "inputs": [
        {
          "indexed": true,
          "internalType": "address",
          "name": "owner",
          "type": "address"
        },
        {
          "indexed": true,
          "internalType": "address",
          "name": "operator",
          "type": "address"
        },
        {
          "indexed": false,
          "internalType": "bool",
          "name": "approved",
          "type": "bool"
        }
      ],
      "name": "ApprovalForAll",
      "type": "event"
    },
    {
      "anonymous": false,
      "inputs": [
        {
          "indexed": false,
          "internalType": "address",
          "name": "recipient",
          "type": "address"
        },
        {
          "indexed": false,
          "internalType": "uint16",
          "name": "bps",
          "type": "uint16"
        }
      ],
      "name": "DefaultRoyaltySet",
      "type": "event"
    },
    {
      "anonymous": false,
      "inputs": [
        {
          "indexed": false,
          "internalType": "uint8",
          "name": "version",
          "type": "uint8"
        }
      ],
      "name": "Initialized",
      "type": "event"
    },
    {
      "anonymous": false,
      "inputs": [
        {
          "indexed": true,
          "internalType": "address",
          "name": "previousOwner",
          "type": "address"
        },
        {
          "indexed": true,
          "internalType": "address",
          "name": "newOwner",
          "type": "address"
        }
      ],
      "name": "OwnershipTransferred",
      "type": "event"
    },
    {
      "anonymous": false,
      "inputs": [
        {
          "indexed": false,
          "internalType": "uint256",
          "name": "tokenId",
          "type": "uint256"
        }
      ],
      "name": "TokenRoyaltyRemoved",
      "type": "event"
    },
    {
      "anonymous": false,
      "inputs": [
        {
          "indexed": false,
          "internalType": "uint256",
          "name": "tokenId",
          "type": "uint256"
        },
        {
          "indexed": false,
          "internalType": "address",
          "name": "recipient",
          "type": "address"
        },
        {
          "indexed": false,
          "internalType": "uint16",
          "name": "bps",
          "type": "uint16"
        }
      ],
      "name": "TokenRoyaltySet",
      "type": "event"
    },
    {
      "anonymous": false,
      "inputs": [
        {
          "indexed": true,
          "internalType": "address",
          "name": "from",
          "type": "address"
        },
        {
          "indexed": true,
          "internalType": "address",
          "name": "to",
          "type": "address"
        },
        {
          "indexed": true,
          "internalType": "uint256",
          "name": "tokenId",
          "type": "uint256"
        }
      ],
      "name": "Transfer",
      "type": "event"
    },
    {
      "inputs": [],
      "name": "_trustedForwarder",
      "outputs": [
        {
          "internalType": "address",
          "name": "",
          "type": "address"
        }
      ],
      "stateMutability": "view",
      "type": "function"
    },
    {
      "inputs": [
        {
          "internalType": "address",
          "name": "to",
          "type": "address"
        },
        {
          "internalType": "uint256",
          "name": "tokenId",
          "type": "uint256"
        }
      ],
      "name": "approve",
      "outputs": [],
      "stateMutability": "nonpayable",
      "type": "function"
    },
    {
      "inputs": [
        {
          "internalType": "address",
          "name": "owner",
          "type": "address"
        }
      ],
      "name": "balanceOf",
      "outputs": [
        {
          "internalType": "uint256",
          "name": "",
          "type": "uint256"
        }
      ],
      "stateMutability": "view",
      "type": "function"
    },
    {
      "inputs": [],
      "name": "baseTokenURI",
      "outputs": [
        {
          "internalType": "string",
          "name": "",
          "type": "string"
        }
      ],
      "stateMutability": "view",
      "type": "function"
    },
    {
      "inputs": [],
      "name": "baseURIFrozen",
      "outputs": [
        {
          "internalType": "bool",
          "name": "",
          "type": "bool"
        }
      ],
      "stateMutability": "view",
      "type": "function"
    },
    {
      "inputs": [],
      "name": "contractURI",
      "outputs": [
        {
          "internalType": "string",
          "name": "",
          "type": "string"
        }
      ],
      "stateMutability": "view",
      "type": "function"
    },
    {
      "inputs": [],
      "name": "defaultRoyalty",
      "outputs": [
        {
          "internalType": "address",
          "name": "recipient",
          "type": "address"
        },
        {
          "internalType": "uint16",
          "name": "bps",
          "type": "uint16"
        }
      ],
      "stateMutability": "view",
      "type": "function"
    },
    {
      "inputs": [],
      "name": "freezeBaseURI",
      "outputs": [],
      "stateMutability": "nonpayable",
      "type": "function"
    },
    {
      "inputs": [],
      "name": "freezeMaxSupply",
      "outputs": [],
      "stateMutability": "nonpayable",
      "type": "function"
    },
    {
      "inputs": [
        {
          "internalType": "uint256",
          "name": "tokenId",
          "type": "uint256"
        }
      ],
      "name": "getApproved",
      "outputs": [
        {
          "internalType": "address",
          "name": "",
          "type": "address"
        }
      ],
      "stateMutability": "view",
      "type": "function"
    },
    {
      "inputs": [],
      "name": "getInfo",
      "outputs": [
        {
          "internalType": "uint256",
          "name": "_maxSupply",
          "type": "uint256"
        },
        {
          "internalType": "uint256",
          "name": "_totalSupply",
          "type": "uint256"
        },
        {
          "internalType": "uint256",
          "name": "_senderBalance",
          "type": "uint256"
        }
      ],
      "stateMutability": "view",
      "type": "function"
    },
    {
      "inputs": [
        {
          "internalType": "uint256",
          "name": "id",
          "type": "uint256"
        }
      ],
      "name": "getRaribleV2Royalties",
      "outputs": [
        {
          "components": [
            {
              "internalType": "address payable",
              "name": "account",
              "type": "address"
            },
            {
              "internalType": "uint96",
              "name": "value",
              "type": "uint96"
            }
          ],
          "internalType": "struct LibPart.Part[]",
          "name": "result",
          "type": "tuple[]"
        }
      ],
      "stateMutability": "view",
      "type": "function"
    },
    {
      "inputs": [],
      "name": "getTokenRoyaltiesCount",
      "outputs": [
        {
          "internalType": "uint256",
          "name": "",
          "type": "uint256"
        }
      ],
      "stateMutability": "view",
      "type": "function"
    },
    {
      "inputs": [
        {
          "internalType": "uint256",
          "name": "index",
          "type": "uint256"
        }
      ],
      "name": "getTokenRoyaltyByIndex",
      "outputs": [
        {
          "components": [
            {
              "internalType": "uint256",
              "name": "tokenId",
              "type": "uint256"
            },
            {
              "internalType": "address",
              "name": "recipient",
              "type": "address"
            },
            {
              "internalType": "uint16",
              "name": "bps",
              "type": "uint16"
            }
          ],
          "internalType": "struct IEIP2981RoyaltyOverride.TokenRoyaltyConfig",
          "name": "",
          "type": "tuple"
        }
      ],
      "stateMutability": "view",
      "type": "function"
    },
    {
      "inputs": [
        {
          "components": [
            {
              "internalType": "string",
              "name": "name",
              "type": "string"
            },
            {
              "internalType": "string",
              "name": "symbol",
              "type": "string"
            },
            {
              "internalType": "string",
              "name": "contractURI",
              "type": "string"
            },
            {
              "internalType": "string",
              "name": "baseURI",
              "type": "string"
            },
            {
              "internalType": "string",
              "name": "placeholderURI",
              "type": "string"
            },
            {
              "internalType": "address[]",
              "name": "initialHolders",
              "type": "address[]"
            },
            {
              "internalType": "uint256[]",
              "name": "initialAmounts",
              "type": "uint256[]"
            },
            {
              "internalType": "uint256",
              "name": "maxSupply",
              "type": "uint256"
            },
            {
              "internalType": "address",
              "name": "defaultRoyaltyAddress",
              "type": "address"
            },
            {
              "internalType": "uint16",
              "name": "defaultRoyaltyBps",
              "type": "uint16"
            },
            {
              "internalType": "address",
              "name": "trustedForwarder",
              "type": "address"
            }
          ],
          "internalType": "struct ERC721ManagedPrefixedCollection.Config",
          "name": "config",
          "type": "tuple"
        },
        {
          "internalType": "address",
          "name": "deployer",
          "type": "address"
        }
      ],
      "name": "initialize",
      "outputs": [],
      "stateMutability": "nonpayable",
      "type": "function"
    },
    {
      "inputs": [
        {
          "internalType": "address",
          "name": "owner",
          "type": "address"
        },
        {
          "internalType": "address",
          "name": "operator",
          "type": "address"
        }
      ],
      "name": "isApprovedForAll",
      "outputs": [
        {
          "internalType": "bool",
          "name": "",
          "type": "bool"
        }
      ],
      "stateMutability": "view",
      "type": "function"
    },
    {
      "inputs": [
        {
          "internalType": "address",
          "name": "forwarder",
          "type": "address"
        }
      ],
      "name": "isTrustedForwarder",
      "outputs": [
        {
          "internalType": "bool",
          "name": "",
          "type": "bool"
        }
      ],
      "stateMutability": "view",
      "type": "function"
    },
    {
      "inputs": [],
      "name": "managementPowerRevoked",
      "outputs": [
        {
          "internalType": "bool",
          "name": "",
          "type": "bool"
        }
      ],
      "stateMutability": "view",
      "type": "function"
    },
    {
      "inputs": [],
      "name": "maxSupply",
      "outputs": [
        {
          "internalType": "uint256",
          "name": "",
          "type": "uint256"
        }
      ],
      "stateMutability": "view",
      "type": "function"
    },
    {
      "inputs": [],
      "name": "maxSupplyFrozen",
      "outputs": [
        {
          "internalType": "bool",
          "name": "",
          "type": "bool"
        }
      ],
      "stateMutability": "view",
      "type": "function"
    },
    {
      "inputs": [
        {
          "internalType": "address",
          "name": "to",
          "type": "address"
        },
        {
          "internalType": "uint256",
          "name": "count",
          "type": "uint256"
        }
      ],
      "name": "mintByOwner",
      "outputs": [],
      "stateMutability": "nonpayable",
      "type": "function"
    },
    {
      "inputs": [],
      "name": "name",
      "outputs": [
        {
          "internalType": "string",
          "name": "",
          "type": "string"
        }
      ],
      "stateMutability": "view",
      "type": "function"
    },
    {
      "inputs": [],
      "name": "owner",
      "outputs": [
        {
          "internalType": "address",
          "name": "",
          "type": "address"
        }
      ],
      "stateMutability": "view",
      "type": "function"
    },
    {
      "inputs": [
        {
          "internalType": "uint256",
          "name": "tokenId",
          "type": "uint256"
        }
      ],
      "name": "ownerOf",
      "outputs": [
        {
          "internalType": "address",
          "name": "",
          "type": "address"
        }
      ],
      "stateMutability": "view",
      "type": "function"
    },
    {
      "inputs": [],
      "name": "placeholderURI",
      "outputs": [
        {
          "internalType": "string",
          "name": "",
          "type": "string"
        }
      ],
      "stateMutability": "view",
      "type": "function"
    },
    {
      "inputs": [],
      "name": "renounceOwnership",
      "outputs": [],
      "stateMutability": "nonpayable",
      "type": "function"
    },
    {
      "inputs": [],
      "name": "revokeManagementPower",
      "outputs": [],
      "stateMutability": "nonpayable",
      "type": "function"
    },
    {
      "inputs": [
        {
          "internalType": "uint256",
          "name": "tokenId",
          "type": "uint256"
        },
        {
          "internalType": "uint256",
          "name": "value",
          "type": "uint256"
        }
      ],
      "name": "royaltyInfo",
      "outputs": [
        {
          "internalType": "address",
          "name": "",
          "type": "address"
        },
        {
          "internalType": "uint256",
          "name": "",
          "type": "uint256"
        }
      ],
      "stateMutability": "view",
      "type": "function"
    },
    {
      "inputs": [
        {
          "internalType": "address",
          "name": "from",
          "type": "address"
        },
        {
          "internalType": "address",
          "name": "to",
          "type": "address"
        },
        {
          "internalType": "uint256",
          "name": "tokenId",
          "type": "uint256"
        }
      ],
      "name": "safeTransferFrom",
      "outputs": [],
      "stateMutability": "nonpayable",
      "type": "function"
    },
    {
      "inputs": [
        {
          "internalType": "address",
          "name": "from",
          "type": "address"
        },
        {
          "internalType": "address",
          "name": "to",
          "type": "address"
        },
        {
          "internalType": "uint256",
          "name": "tokenId",
          "type": "uint256"
        },
        {
          "internalType": "bytes",
          "name": "_data",
          "type": "bytes"
        }
      ],
      "name": "safeTransferFrom",
      "outputs": [],
      "stateMutability": "nonpayable",
      "type": "function"
    },
    {
      "inputs": [
        {
          "internalType": "address",
          "name": "operator",
          "type": "address"
        },
        {
          "internalType": "bool",
          "name": "approved",
          "type": "bool"
        }
      ],
      "name": "setApprovalForAll",
      "outputs": [],
      "stateMutability": "nonpayable",
      "type": "function"
    },
    {
      "inputs": [
        {
          "internalType": "string",
          "name": "newValue",
          "type": "string"
        }
      ],
      "name": "setBaseURI",
      "outputs": [],
      "stateMutability": "nonpayable",
      "type": "function"
    },
    {
      "inputs": [
        {
          "internalType": "string",
          "name": "newValue",
          "type": "string"
        }
      ],
      "name": "setContractURI",
      "outputs": [],
      "stateMutability": "nonpayable",
      "type": "function"
    },
    {
      "inputs": [
        {
          "components": [
            {
              "internalType": "address",
              "name": "recipient",
              "type": "address"
            },
            {
              "internalType": "uint16",
              "name": "bps",
              "type": "uint16"
            }
          ],
          "internalType": "struct IEIP2981RoyaltyOverride.TokenRoyalty",
          "name": "royalty",
          "type": "tuple"
        }
      ],
      "name": "setDefaultRoyalty",
      "outputs": [],
      "stateMutability": "nonpayable",
      "type": "function"
    },
    {
      "inputs": [
        {
          "internalType": "uint256",
          "name": "newValue",
          "type": "uint256"
        }
      ],
      "name": "setMaxSupply",
      "outputs": [],
      "stateMutability": "nonpayable",
      "type": "function"
    },
    {
      "inputs": [
        {
          "internalType": "string",
          "name": "newValue",
          "type": "string"
        }
      ],
      "name": "setPlaceholderURI",
      "outputs": [],
      "stateMutability": "nonpayable",
      "type": "function"
    },
    {
      "inputs": [
        {
          "components": [
            {
              "internalType": "uint256",
              "name": "tokenId",
              "type": "uint256"
            },
            {
              "internalType": "address",
              "name": "recipient",
              "type": "address"
            },
            {
              "internalType": "uint16",
              "name": "bps",
              "type": "uint16"
            }
          ],
          "internalType": "struct IEIP2981RoyaltyOverride.TokenRoyaltyConfig[]",
          "name": "royaltyConfigs",
          "type": "tuple[]"
        }
      ],
      "name": "setTokenRoyalties",
      "outputs": [],
      "stateMutability": "nonpayable",
      "type": "function"
    },
    {
      "inputs": [
        {
          "internalType": "address",
          "name": "trustedForwarder",
          "type": "address"
        }
      ],
      "name": "setTrustedForwarder",
      "outputs": [],
      "stateMutability": "nonpayable",
      "type": "function"
    },
    {
      "inputs": [
        {
          "internalType": "bytes4",
          "name": "interfaceId",
          "type": "bytes4"
        }
      ],
      "name": "supportsInterface",
      "outputs": [
        {
          "internalType": "bool",
          "name": "",
          "type": "bool"
        }
      ],
      "stateMutability": "view",
      "type": "function"
    },
    {
      "inputs": [],
      "name": "symbol",
      "outputs": [
        {
          "internalType": "string",
          "name": "",
          "type": "string"
        }
      ],
      "stateMutability": "view",
      "type": "function"
    },
    {
      "inputs": [
        {
          "internalType": "uint256",
          "name": "_tokenId",
          "type": "uint256"
        }
      ],
      "name": "tokenURI",
      "outputs": [
        {
          "internalType": "string",
          "name": "",
          "type": "string"
        }
      ],
      "stateMutability": "view",
      "type": "function"
    },
    {
      "inputs": [],
      "name": "totalSupply",
      "outputs": [
        {
          "internalType": "uint256",
          "name": "",
          "type": "uint256"
        }
      ],
      "stateMutability": "view",
      "type": "function"
    },
    {
      "inputs": [
        {
          "internalType": "address",
          "name": "from",
          "type": "address"
        },
        {
          "internalType": "address",
          "name": "to",
          "type": "address"
        },
        {
          "internalType": "uint256",
          "name": "tokenId",
          "type": "uint256"
        }
      ],
      "name": "transferFrom",
      "outputs": [],
      "stateMutability": "nonpayable",
      "type": "function"
    },
    {
      "inputs": [
        {
          "internalType": "address",
          "name": "from",
          "type": "address"
        },
        {
          "internalType": "address",
          "name": "to",
          "type": "address"
        },
        {
          "internalType": "uint256[]",
          "name": "tokenIds",
          "type": "uint256[]"
        }
      ],
      "name": "transferFromBulk",
      "outputs": [],
      "stateMutability": "nonpayable",
      "type": "function"
    },
    {
      "inputs": [
        {
          "internalType": "address[]",
          "name": "from",
          "type": "address[]"
        },
        {
          "internalType": "address[]",
          "name": "to",
          "type": "address[]"
        },
        {
          "internalType": "uint256[]",
          "name": "tokenIds",
          "type": "uint256[]"
        }
      ],
      "name": "transferFromBulk",
      "outputs": [],
      "stateMutability": "nonpayable",
      "type": "function"
    },
    {
      "inputs": [
        {
          "internalType": "address",
          "name": "newOwner",
          "type": "address"
        }
      ],
      "name": "transferOwnership",
      "outputs": [],
      "stateMutability": "nonpayable",
      "type": "function"
    }
  ],
  "transactionHash": "0x5033dc0e8be34f2a9ff245e8c989362b6edeaf0d925cf27f5db7f5907e4bbbca",
  "args": [
    {
      "name": "Collection",
      "symbol": "COL",
      "baseURI": "ipfs://baseURI/",
      "placeholderURI": "ipfs://placeholderURI",
      "contractURI": "ipfs://contractURI",
      "maxSupply": 0,
      "defaultRoyaltyAddress": "0x0000000000000000000000000000000000000000",
      "defaultRoyaltyBps": 0,
      "trustedForwarder": "0x0000000000000000000000000000000000000000",
      "initialHolders": [],
      "initialAmounts": []
    }
  ],
  "numDeployments": 3,
  "solcInputHash": "75b6f3caca0ee30cab66da7e8668151e",
  "bytecode": "0x608060405260006011553480156200001657600080fd5b5060405162004c1538038062004c158339810160408190526200003991620010ce565b80516020820151620000546200004e6200009b565b620000b7565b81516200006990600390602085019062000de5565b5080516200007f90600490602084019062000de5565b5050506200009481336200011260201b60201c565b506200148a565b6000620000b26200031060201b6200160b1760201c565b905090565b600080546001600160a01b038381166201000081810262010000600160b01b0319851617855560405193049190911692909183917f8be0079c531659141344cd1fd0a4f28419497f9722a3daafe3b4186f6b6457e091a35050565b600062000120600162000349565b9050801562000139576000805461ff0019166101001790555b8260c00151518360a001515114620001985760405162461bcd60e51b815260206004820152601b60248201527f4552433732312f494e56414c49445f494e495449414c5f41524753000000000060448201526064015b60405180910390fd5b620001a382620000b7565b825160208401516040850151620001bc929190620003f2565b6080830151620001cc9062000429565b60e0830151620001dc9062000461565b620001e662000496565b620001f0620004cc565b6200020c8361010001518461012001516200050060201b60201c565b6101408301516200021d906200053a565b620002276200056f565b60e0830151600f5560005b8360a0015151811015620002a757620002928460a0015182815181106200025d576200025d6200127b565b60200260200101518560c0015183815181106200027e576200027e6200127b565b6020026020010151620005a360201b60201c565b806200029e81620012a7565b91505062000232565b5060608301518051620002c391600d9160209091019062000de5565b5080156200030b576000805461ff0019169055604051600181527f7f26b83ff96e1f2b6a682f133852f6798a09c465da95921460cefb38474024989060200160405180910390a15b505050565b6002546000906001600160a01b031633141562000334575060131936013560601c90565b620000b26200064860201b6200162d1760201c565b60008054610100900460ff1615620003a9578160ff16600114801562000382575062000380306200064c60201b620016311760201c565b155b620003a15760405162461bcd60e51b81526004016200018f90620012c5565b506000919050565b60005460ff808416911610620003d35760405162461bcd60e51b81526004016200018f90620012c5565b506000805460ff191660ff92909216919091179055600190565b919050565b600054610100900460ff166200041c5760405162461bcd60e51b81526004016200018f9062001313565b6200030b8383836200065b565b600054610100900460ff16620004535760405162461bcd60e51b81526004016200018f9062001313565b6200045e81620006fd565b50565b600054610100900460ff166200048b5760405162461bcd60e51b81526004016200018f9062001313565b6200045e8162000761565b600054610100900460ff16620004c05760405162461bcd60e51b81526004016200018f9062001313565b620004ca620007b4565b565b600054610100900460ff16620004f65760405162461bcd60e51b81526004016200018f9062001313565b620004ca620007f0565b600054610100900460ff166200052a5760405162461bcd60e51b81526004016200018f9062001313565b6200053682826200082c565b5050565b600054610100900460ff16620005645760405162461bcd60e51b81526004016200018f9062001313565b6200045e81620008c9565b600054610100900460ff16620005995760405162461bcd60e51b81526004016200018f9062001313565b620004ca62000915565b600f5481620005b160115490565b620005bd91906200135e565b1115620006025760405162461bcd60e51b8152602060048201526012602482015271455843454544535f4d41585f535550504c5960701b60448201526064016200018f565b60005b818110156200030b5760006200061a62000951565b905062000628848262000970565b6200063262000992565b50806200063f81620012a7565b91505062000605565b3390565b6001600160a01b03163b151590565b600054610100900460ff16620006855760405162461bcd60e51b81526004016200018f9062001313565b82516200069a90600990602086019062000de5565b508151620006b090600a90602085019062000de5565b508051620006c690600b90602084019062000de5565b50620006d9633d96f4ff60e11b620009ab565b620006eb6380ac58cd60e01b620009ab565b6200030b635b5e139f60e01b620009ab565b600054610100900460ff16620007275760405162461bcd60e51b81526004016200018f9062001313565b80516200073c90600c90602084019062000de5565b506200074f63e91f76a560e01b620009ab565b6200045e635b5e139f60e01b620009ab565b600054610100900460ff166200078b5760405162461bcd60e51b81526004016200018f9062001313565b600f819055620007a26330f487b560e11b620009ab565b6200045e6380ac58cd60e01b620009ab565b600054610100900460ff16620007de5760405162461bcd60e51b81526004016200018f9062001313565b620004ca631aa1577160e11b620009ab565b600054610100900460ff166200081a5760405162461bcd60e51b81526004016200018f9062001313565b620004ca63948e2d5360e01b620009ab565b600054610100900460ff16620008565760405162461bcd60e51b81526004016200018f9062001313565b62000868633a47bf5160e11b620009ab565b6200087a63152a902d60e11b620009ab565b6200088c63c69dbd8f60e01b620009ab565b6200089e63656cb66560e11b620009ab565b604080518082019091526001600160a01b038316815261ffff821660208201526200030b8162000a2f565b600054610100900460ff16620008f35760405162461bcd60e51b81526004016200018f9062001313565b600280546001600160a01b0319166001600160a01b0392909216919091179055565b600054610100900460ff166200093f5760405162461bcd60e51b81526004016200018f9062001313565b620004ca632a7c3e4960e01b620009ab565b6000620000b2600160115462000b1560201b620016401790919060201c565b6200053682826040518060200160405280600081525062000b2a60201b60201c565b60118054906000620009a483620012a7565b9190505550565b6001600160e01b0319808216141562000a075760405162461bcd60e51b815260206004820152601c60248201527f4552433136353a20696e76616c696420696e746572666163652069640000000060448201526064016200018f565b6001600160e01b0319166000908152600160208190526040909120805460ff19169091179055565b612710816020015161ffff161062000a785760405162461bcd60e51b815260206004820152600b60248201526a496e76616c69642062707360a81b60448201526064016200018f565b60408051808201825282516001600160a01b03168082526020808501805161ffff169190930181905260138054600160a01b9092026001600160b01b03199092169092171790558251905191517f2c5ea6e4103e78cb101e796fb2dace540362fc542cbff5145eaa24af7dd8fe419262000b0a92916001600160a01b0392909216825261ffff16602082015260400190565b60405180910390a150565b600062000b2382846200135e565b9392505050565b62000b36838362000b64565b62000b45600084848462000cac565b6200030b5760405162461bcd60e51b81526004016200018f9062001379565b6001600160a01b03821662000bbc5760405162461bcd60e51b815260206004820181905260248201527f4552433732313a206d696e7420746f20746865207a65726f206164647265737360448201526064016200018f565b6000818152600560205260409020546001600160a01b03161562000c235760405162461bcd60e51b815260206004820152601c60248201527f4552433732313a20746f6b656e20616c7265616479206d696e7465640000000060448201526064016200018f565b6001600160a01b038216600090815260066020526040812080546001929062000c4e9084906200135e565b909155505060008181526005602052604080822080546001600160a01b0319166001600160a01b03861690811790915590518392907fddf252ad1be2c89b69c2b068fc378daa952ba7f163c4a11628f55a4df523b3ef908290a45050565b600062000ccd846001600160a01b03166200064c60201b620016311760201c565b1562000dd9576001600160a01b03841663150b7a0262000cec6200009b565b8786866040518563ffffffff1660e01b815260040162000d109493929190620013cb565b602060405180830381600087803b15801562000d2b57600080fd5b505af192505050801562000d5e575060408051601f3d908101601f1916820190925262000d5b9181019062001421565b60015b62000dbe573d80801562000d8f576040519150601f19603f3d011682016040523d82523d6000602084013e62000d94565b606091505b50805162000db65760405162461bcd60e51b81526004016200018f9062001379565b805181602001fd5b6001600160e01b031916630a85bd0160e11b14905062000ddd565b5060015b949350505050565b82805462000df3906200144d565b90600052602060002090601f01602090048101928262000e17576000855562000e62565b82601f1062000e3257805160ff191683800117855562000e62565b8280016001018555821562000e62579182015b8281111562000e6257825182559160200191906001019062000e45565b5062000e7092915062000e74565b5090565b5b8082111562000e70576000815560010162000e75565b634e487b7160e01b600052604160045260246000fd5b60405161016081016001600160401b038111828210171562000ec75762000ec762000e8b565b60405290565b604051601f8201601f191681016001600160401b038111828210171562000ef85762000ef862000e8b565b604052919050565b60005b8381101562000f1d57818101518382015260200162000f03565b8381111562000f2d576000848401525b50505050565b600082601f83011262000f4557600080fd5b81516001600160401b0381111562000f615762000f6162000e8b565b62000f76601f8201601f191660200162000ecd565b81815284602083860101111562000f8c57600080fd5b62000ddd82602083016020870162000f00565b60006001600160401b0382111562000fbb5762000fbb62000e8b565b5060051b60200190565b80516001600160a01b0381168114620003ed57600080fd5b600082601f83011262000fef57600080fd5b8151602062001008620010028362000f9f565b62000ecd565b82815260059290921b840181019181810190868411156200102857600080fd5b8286015b848110156200104e57620010408162000fc5565b83529183019183016200102c565b509695505050505050565b600082601f8301126200106b57600080fd5b815160206200107e620010028362000f9f565b82815260059290921b840181019181810190868411156200109e57600080fd5b8286015b848110156200104e5780518352918301918301620010a2565b805161ffff81168114620003ed57600080fd5b600060208284031215620010e157600080fd5b81516001600160401b0380821115620010f957600080fd5b9083019061016082860312156200110f57600080fd5b6200111962000ea1565b8251828111156200112957600080fd5b620011378782860162000f33565b8252506020830151828111156200114d57600080fd5b6200115b8782860162000f33565b6020830152506040830151828111156200117457600080fd5b620011828782860162000f33565b6040830152506060830151828111156200119b57600080fd5b620011a98782860162000f33565b606083015250608083015182811115620011c257600080fd5b620011d08782860162000f33565b60808301525060a083015182811115620011e957600080fd5b620011f78782860162000fdd565b60a08301525060c0830151828111156200121057600080fd5b6200121e8782860162001059565b60c08301525060e083015160e082015261010091506200124082840162000fc5565b82820152610120915062001256828401620010bb565b8282015261014091506200126c82840162000fc5565b91810191909152949350505050565b634e487b7160e01b600052603260045260246000fd5b634e487b7160e01b600052601160045260246000fd5b6000600019821415620012be57620012be62001291565b5060010190565b6020808252602e908201527f496e697469616c697a61626c653a20636f6e747261637420697320616c72656160408201526d191e481a5b9a5d1a585b1a5e995960921b606082015260800190565b6020808252602b908201527f496e697469616c697a61626c653a20636f6e7472616374206973206e6f74206960408201526a6e697469616c697a696e6760a81b606082015260800190565b6000821982111562001374576200137462001291565b500190565b60208082526032908201527f4552433732313a207472616e7366657220746f206e6f6e20455243373231526560408201527131b2b4bb32b91034b6b83632b6b2b73a32b960711b606082015260800190565b600060018060a01b0380871683528086166020840152508360408301526080606083015282518060808401526200140a8160a085016020870162000f00565b601f01601f19169190910160a00195945050505050565b6000602082840312156200143457600080fd5b81516001600160e01b03198116811462000b2357600080fd5b600181811c908216806200146257607f821691505b602082108114156200148457634e487b7160e01b600052602260045260246000fd5b50919050565b61377b806200149a6000396000f3fe608060405234801561001057600080fd5b506004361061021a5760003560e01c806301ffc9a71461021f578063059fb6f7146102475780630653aca51461025c57806306fdde031461029e578063081812fc146102b3578063095ea7b3146102d357806316744607146102e657806318160ddd146102ee57806323b872dd146103005780632a55205a146103135780632fe388be146103455780633542aee2146103585780633574a2dd1461036b57806340c1d8a11461037e57806342842e0e146103915780635136dcc7146103a457806355f804b3146103b757806356c022bb146103ca578063572b6c05146103dd5780635a9b0b89146103f05780636352211e146104135780636f8b44b01461042657806370a0823114610439578063715018a61461044c5780637313cba9146104545780637885fdc71461045c5780637e9803421461048a5780638da5cb5b14610492578063938e3d7b1461049a578063948e2d53146104ad57806395d89b41146104b5578063a22cb465146104bd578063a821d908146104d0578063b88d4fde146104dd578063c87b56dd146104f0578063cad96cca14610503578063d547cfb714610523578063d5abeb011461052b578063da74222814610534578063e7bc820814610547578063e8a3d4851461054f578063e985e9c514610557578063ef60ceaf1461056a578063f2fde38b1461057d578063f384702f14610590578063fb565bfd1461059d575b600080fd5b61023261022d366004612a42565b6105aa565b60405190151581526020015b60405180910390f35b61025a610255366004612b73565b6105bb565b005b61026f61026a366004612bd0565b61065b565b60408051825181526020808401516001600160a01b0316908201529181015161ffff169082015260600161023e565b6102a66106e0565b60405161023e9190612c41565b6102c66102c1366004612bd0565b6106ef565b60405161023e9190612c54565b61025a6102e1366004612c68565b61077c565b61025a61089f565b6011545b60405190815260200161023e565b61025a61030e366004612c92565b6108ed565b610326610321366004612cce565b610925565b604080516001600160a01b03909316835260208301919091520161023e565b61025a610353366004612d52565b6109ea565b61025a610366366004612c68565b610b4f565b61025a610379366004612e46565b610b9c565b61025a61038c366004612e8c565b610bee565b61025a61039f366004612c92565b610db0565b61025a6103b236600461302a565b610dcb565b61025a6103c5366004612e46565b610e65565b6002546102c6906001600160a01b031681565b6102326103eb36600461309e565b610eda565b6103f8610eee565b6040805193845260208401929092529082015260600161023e565b6102c6610421366004612bd0565b611007565b61025a610434366004612bd0565b61107e565b6102f261044736600461309e565b6110e5565b61025a61116c565b6102a66111b7565b60135461047c906001600160a01b03811690600160a01b900461ffff1682565b60405161023e9291906130b9565b6102f2611249565b6102c6611255565b61025a6104a8366004612e46565b61126a565b61025a6112bc565b6102a661130a565b61025a6104cb3660046130d6565b611314565b6012546102329060ff1681565b61025a6104eb366004613112565b611326565b6102a66104fe366004612bd0565b61135f565b610516610511366004612bd0565b61136a565b60405161023e919061318d565b6102a6611425565b6102f2600f5481565b61025a61054236600461309e565b611434565b61025a611495565b6102a66114e3565b6102326105653660046131ee565b6114f2565b61025a610578366004613218565b611505565b61025a61058b36600461309e565b61155e565b6010546102329060ff1681565b600e546102329060ff1681565b60006105b58261164c565b92915050565b60005b815181101561065557306001600160a01b03166323b872dd85858585815181106105ea576105ea613230565b60200260200101516040518463ffffffff1660e01b815260040161061093929190613246565b600060405180830381600087803b15801561062a57600080fd5b505af115801561063e573d6000803e3d6000fd5b50505050808061064d90613280565b9150506105be565b50505050565b6040805160608101825260008082526020820181905291810182905290610683601584611688565b6000818152601460209081526040918290208251808401845290546001600160a01b03808216835261ffff600160a01b90920482168385019081528551606081018752968752925116928501929092525116908201529392505050565b60606106ea611694565b905090565b60006106fa8261169e565b6107605760405162461bcd60e51b815260206004820152602c60248201527f4552433732313a20617070726f76656420717565727920666f72206e6f6e657860448201526b34b9ba32b73a103a37b5b2b760a11b60648201526084015b60405180910390fd5b506000908152600760205260409020546001600160a01b031690565b600061078782611007565b9050806001600160a01b0316836001600160a01b031614156107f55760405162461bcd60e51b815260206004820152602160248201527f4552433732313a20617070726f76616c20746f2063757272656e74206f776e656044820152603960f91b6064820152608401610757565b806001600160a01b03166108076116bb565b6001600160a01b031614806108235750610823816105656116bb565b6108905760405162461bcd60e51b815260206004820152603860248201527f4552433732313a20617070726f76652063616c6c6572206973206e6f74206f776044820152771b995c881b9bdc88185c1c1c9bdd995908199bdc88185b1b60421b6064820152608401610757565b61089a83836116c5565b505050565b6108a76116bb565b6001600160a01b03166108b8611255565b6001600160a01b0316146108de5760405162461bcd60e51b81526004016107579061329b565b6010805460ff19166001179055565b6108fe6108f86116bb565b82611733565b61091a5760405162461bcd60e51b8152600401610757906132d0565b61089a8383836117fd565b60008281526014602052604081205481906001600160a01b03161561098a576000848152601460205260409020546001600160a01b038116906127109061097790600160a01b900461ffff1686613321565b6109819190613356565b915091506109e3565b6013546001600160a01b0316158015906109b05750601354600160a01b900461ffff1615155b156109dc576013546001600160a01b038116906127109061097790600160a01b900461ffff1686613321565b5060009050805b9250929050565b8151835114610a355760405162461bcd60e51b815260206004820152601760248201527608ca49e9abea89ebe988a9c8ea890be9a92a69a82a8869604b1b6044820152606401610757565b8051835114610a835760405162461bcd60e51b815260206004820152601a60248201527908ca49e9abea89e968a9cbe988a9c8ea890be9a92a69a82a886960331b6044820152606401610757565b60005b815181101561065557306001600160a01b03166323b872dd858381518110610ab057610ab0613230565b6020026020010151858481518110610aca57610aca613230565b6020026020010151858581518110610ae457610ae4613230565b60200260200101516040518463ffffffff1660e01b8152600401610b0a93929190613246565b600060405180830381600087803b158015610b2457600080fd5b505af1158015610b38573d6000803e3d6000fd5b505050508080610b4790613280565b915050610a86565b610b576116bb565b6001600160a01b0316610b68611255565b6001600160a01b031614610b8e5760405162461bcd60e51b81526004016107579061329b565b610b988282611987565b5050565b610ba46116bb565b6001600160a01b0316610bb5611255565b6001600160a01b031614610bdb5760405162461bcd60e51b81526004016107579061329b565b8051610b9890600c906020840190612993565b6000610bfa6001611a1d565b90508015610c12576000805461ff0019166101001790555b8260c00151518360a001515114610c695760405162461bcd60e51b815260206004820152601b60248201527a4552433732312f494e56414c49445f494e495449414c5f4152475360281b6044820152606401610757565b610c7282611ab1565b610c89836000015184602001518560400151611b0c565b610c968360800151611b3e565b610ca38360e00151611b6e565b610cab611b9e565b610cb3611bcd565b610cc7836101000151846101200151611bfc565b610cd5836101400151611c2d565b610cdd611c5d565b60e0830151600f5560005b8360a0015151811015610d4b57610d398460a001518281518110610d0e57610d0e613230565b60200260200101518560c001518381518110610d2c57610d2c613230565b6020026020010151611987565b80610d4381613280565b915050610ce8565b5060608301518051610d6591600d91602090910190612993565b50801561089a576000805461ff0019169055604051600181527f7f26b83ff96e1f2b6a682f133852f6798a09c465da95921460cefb38474024989060200160405180910390a1505050565b61089a83838360405180602001604052806000815250611326565b610dd36116bb565b6001600160a01b0316610de4611255565b6001600160a01b031614610e0a5760405162461bcd60e51b81526004016107579061329b565b610b988282808060200260200160405190810160405280939291908181526020016000905b82821015610e5b57610e4c6060830286013681900381019061336a565b81526020019060010190610e2f565b5050505050611c8c565b610e6d6116bb565b6001600160a01b0316610e7e611255565b6001600160a01b031614610ea45760405162461bcd60e51b81526004016107579061329b565b600e5460ff1615610ec75760405162461bcd60e51b8152600401610757906133ce565b8051610b9890600d906020840190612993565b6002546001600160a01b0391821691161490565b600080808080610efc6116bb565b6001600160a01b031614610f8757306370a08231610f186116bb565b6040518263ffffffff1660e01b8152600401610f349190612c54565b60206040518083038186803b158015610f4c57600080fd5b505afa158015610f60573d6000803e3d6000fd5b505050506040513d601f19601f82011682018060405250810190610f8491906133f7565b90505b600f54306001600160a01b03166318160ddd6040518163ffffffff1660e01b815260040160206040518083038186803b158015610fc357600080fd5b505afa158015610fd7573d6000803e3d6000fd5b505050506040513d601f19601f82011682018060405250810190610ffb91906133f7565b90959094509092509050565b6000818152600560205260408120546001600160a01b0316806105b55760405162461bcd60e51b815260206004820152602960248201527f4552433732313a206f776e657220717565727920666f72206e6f6e657869737460448201526832b73a103a37b5b2b760b91b6064820152608401610757565b6110866116bb565b6001600160a01b0316611097611255565b6001600160a01b0316146110bd5760405162461bcd60e51b81526004016107579061329b565b60105460ff16156110e05760405162461bcd60e51b8152600401610757906133ce565b600f55565b60006001600160a01b0382166111505760405162461bcd60e51b815260206004820152602a60248201527f4552433732313a2062616c616e636520717565727920666f7220746865207a65604482015269726f206164647265737360b01b6064820152608401610757565b506001600160a01b031660009081526006602052604090205490565b6111746116bb565b6001600160a01b0316611185611255565b6001600160a01b0316146111ab5760405162461bcd60e51b81526004016107579061329b565b6111b56000611ab1565b565b6060600c80546111c690613410565b80601f01602080910402602001604051908101604052809291908181526020018280546111f290613410565b801561123f5780601f106112145761010080835404028352916020019161123f565b820191906000526020600020905b81548152906001019060200180831161122257829003601f168201915b5050505050905090565b60006106ea6015611e33565b6000546201000090046001600160a01b031690565b6112726116bb565b6001600160a01b0316611283611255565b6001600160a01b0316146112a95760405162461bcd60e51b81526004016107579061329b565b8051610b9890600b906020840190612993565b6112c46116bb565b6001600160a01b03166112d5611255565b6001600160a01b0316146112fb5760405162461bcd60e51b81526004016107579061329b565b6012805460ff19166001179055565b60606106ea611e3d565b610b9861131f6116bb565b8383611e47565b6113376113316116bb565b83611733565b6113535760405162461bcd60e51b8152600401610757906132d0565b61065584848484611f12565b60606105b582611f45565b604080516001808252818301909252606091816020015b604080518082019091526000808252602082015281526020019060019003908161138157505060135481519192506001600160a01b03169082906000906113ca576113ca613230565b60209081029190910101516001600160a01b039190911690526013548151600160a01b90910461ffff1690829060009061140657611406613230565b6020908102919091018101516001600160601b03909216910152919050565b6060600d80546111c690613410565b61143c6116bb565b6001600160a01b031661144d611255565b6001600160a01b0316146114735760405162461bcd60e51b81526004016107579061329b565b600280546001600160a01b0319166001600160a01b0392909216919091179055565b61149d6116bb565b6001600160a01b03166114ae611255565b6001600160a01b0316146114d45760405162461bcd60e51b81526004016107579061329b565b600e805460ff19166001179055565b6060600b80546111c690613410565b60006114fe838361201e565b9392505050565b61150d6116bb565b6001600160a01b031661151e611255565b6001600160a01b0316146115445760405162461bcd60e51b81526004016107579061329b565b61155b61155636839003830183613445565b612082565b50565b6115666116bb565b6001600160a01b0316611577611255565b6001600160a01b03161461159d5760405162461bcd60e51b81526004016107579061329b565b6001600160a01b0381166116025760405162461bcd60e51b815260206004820152602660248201527f4f776e61626c653a206e6577206f776e657220697320746865207a65726f206160448201526564647265737360d01b6064820152608401610757565b61155b81611ab1565b600061161633610eda565b15611628575060131936013560601c90565b503390565b3390565b6001600160a01b03163b151590565b60006114fe828461349f565b60006301ffc9a760e01b6001600160e01b0319831614806105b55750506001600160e01b03191660009081526001602052604090205460ff1690565b60006114fe838361212d565b60606106ea612157565b6000908152600560205260409020546001600160a01b0316151590565b60006106ea61160b565b600081815260076020526040902080546001600160a01b0319166001600160a01b03841690811790915581906116fa82611007565b6001600160a01b03167f8c5be1e5ebec7d5bd14f71427d1e84f3dd0314c0f7b2291e5b200ac8c7c3b92560405160405180910390a45050565b600061173e8261169e565b61179f5760405162461bcd60e51b815260206004820152602c60248201527f4552433732313a206f70657261746f7220717565727920666f72206e6f6e657860448201526b34b9ba32b73a103a37b5b2b760a11b6064820152608401610757565b60006117aa83611007565b9050806001600160a01b0316846001600160a01b031614806117d157506117d181856114f2565b806117f55750836001600160a01b03166117ea846106ef565b6001600160a01b0316145b949350505050565b826001600160a01b031661181082611007565b6001600160a01b0316146118745760405162461bcd60e51b815260206004820152602560248201527f4552433732313a207472616e736665722066726f6d20696e636f72726563742060448201526437bbb732b960d91b6064820152608401610757565b6001600160a01b0382166118d65760405162461bcd60e51b8152602060048201526024808201527f4552433732313a207472616e7366657220746f20746865207a65726f206164646044820152637265737360e01b6064820152608401610757565b6118e16000826116c5565b6001600160a01b038316600090815260066020526040812080546001929061190a9084906134b7565b90915550506001600160a01b038216600090815260066020526040812080546001929061193890849061349f565b909155505060008181526005602052604080822080546001600160a01b0319166001600160a01b03868116918217909255915184939187169160008051602061372683398151915291a4505050565b600f548161199460115490565b61199e919061349f565b11156119e15760405162461bcd60e51b8152602060048201526012602482015271455843454544535f4d41585f535550504c5960701b6044820152606401610757565b60005b8181101561089a5760006119f6612166565b9050611a028482612177565b611a0a612191565b5080611a1581613280565b9150506119e4565b60008054610100900460ff1615611a6b578160ff166001148015611a475750611a4530611631565b155b611a635760405162461bcd60e51b8152600401610757906134ce565b506000919050565b60005460ff808416911610611a925760405162461bcd60e51b8152600401610757906134ce565b506000805460ff191660ff92909216919091179055600190565b919050565b600080546001600160a01b038381166201000081810262010000600160b01b0319851617855560405193049190911692909183917f8be0079c531659141344cd1fd0a4f28419497f9722a3daafe3b4186f6b6457e091a35050565b600054610100900460ff16611b335760405162461bcd60e51b81526004016107579061351c565b61089a8383836121a8565b600054610100900460ff16611b655760405162461bcd60e51b81526004016107579061351c565b61155b8161223b565b600054610100900460ff16611b955760405162461bcd60e51b81526004016107579061351c565b61155b81612296565b600054610100900460ff16611bc55760405162461bcd60e51b81526004016107579061351c565b6111b56122e2565b600054610100900460ff16611bf45760405162461bcd60e51b81526004016107579061351c565b6111b5612319565b600054610100900460ff16611c235760405162461bcd60e51b81526004016107579061351c565b610b988282612350565b600054610100900460ff16611c545760405162461bcd60e51b81526004016107579061351c565b61155b816123e0565b600054610100900460ff16611c845760405162461bcd60e51b81526004016107579061351c565b6111b5612407565b60005b8151811015610b98576000828281518110611cac57611cac613230565b60200260200101519050612710816040015161ffff1610611cdf5760405162461bcd60e51b815260040161075790613567565b60208101516001600160a01b0316611d58578051600090815260146020526040902080546001600160b01b03191690558051611d1d9060159061243e565b5080516040519081527fa2870857763bd9ae76c957f869f16b31c18dd3bb4c7b4d3a4496dc5c57c657f99060200160405180910390a1611e20565b6040805180820182526020808401516001600160a01b0390811683528484015161ffff90811683850190815286516000908152601490945294909220925183549451909216600160a01b026001600160b01b03199094169116179190911790558051611dc69060159061244a565b50805160208083015160408085015181519485526001600160a01b039092169284019290925261ffff1682820152517f389b70fb0887f01e83784eb1c4c589f740eca53b00ed0f45e41db5d079719abb9181900360600190a15b5080611e2b81613280565b915050611c8f565b60006105b5825490565b60606106ea612456565b816001600160a01b0316836001600160a01b03161415611ea55760405162461bcd60e51b815260206004820152601960248201527822a9219b99189d1030b8383937bb32903a379031b0b63632b960391b6044820152606401610757565b6001600160a01b03838116600081815260086020908152604080832094871680845294825291829020805460ff191686151590811790915591519182527f17307eab39ab6107e8899845ad3d59bd9653f200f220920489ca2b5937696c31910160405180910390a3505050565b611f1d8484846117fd565b611f2984848484612465565b6106555760405162461bcd60e51b81526004016107579061358c565b60606000600d8054611f5690613410565b905011611fed57600c8054611f6a90613410565b80601f0160208091040260200160405190810160405280929190818152602001828054611f9690613410565b8015611fe35780601f10611fb857610100808354040283529160200191611fe3565b820191906000526020600020905b815481529060010190602001808311611fc657829003601f168201915b50505050506105b5565b600d611ff883612580565b6040516020016120099291906135fa565b60405160208183030381529060405292915050565b60125460009060ff1661205457612033611255565b6001600160a01b0316826001600160a01b03161415612054575060016105b5565b6001600160a01b0380841660009081526008602090815260408083209386168352929052205460ff166114fe565b612710816020015161ffff16106120ab5760405162461bcd60e51b815260040161075790613567565b60408051808201825282516001600160a01b03168082526020808501805161ffff1691909301819052601380546001600160b01b031916909217600160a01b9091021790558251905191517f2c5ea6e4103e78cb101e796fb2dace540362fc542cbff5145eaa24af7dd8fe419261212292916130b9565b60405180910390a150565b600082600001828154811061214457612144613230565b9060005260206000200154905092915050565b6060600980546111c690613410565b6011546000906106ea906001611640565b610b9882826040518060200160405280600081525061267d565b601180549060006121a183613280565b9190505550565b600054610100900460ff166121cf5760405162461bcd60e51b81526004016107579061351c565b82516121e2906009906020860190612993565b5081516121f690600a906020850190612993565b50805161220a90600b906020840190612993565b5061221b633d96f4ff60e11b6126b0565b61222b6380ac58cd60e01b6126b0565b61089a635b5e139f60e01b6126b0565b600054610100900460ff166122625760405162461bcd60e51b81526004016107579061351c565b805161227590600c906020840190612993565b5061228663e91f76a560e01b6126b0565b61155b635b5e139f60e01b6126b0565b600054610100900460ff166122bd5760405162461bcd60e51b81526004016107579061351c565b600f8190556122d26330f487b560e11b6126b0565b61155b6380ac58cd60e01b6126b0565b600054610100900460ff166123095760405162461bcd60e51b81526004016107579061351c565b6111b5631aa1577160e11b6126b0565b600054610100900460ff166123405760405162461bcd60e51b81526004016107579061351c565b6111b563948e2d5360e01b6126b0565b600054610100900460ff166123775760405162461bcd60e51b81526004016107579061351c565b612387633a47bf5160e11b6126b0565b61239763152a902d60e11b6126b0565b6123a763c69dbd8f60e01b6126b0565b6123b763656cb66560e11b6126b0565b604080518082019091526001600160a01b038316815261ffff8216602082015261089a81612082565b600054610100900460ff166114735760405162461bcd60e51b81526004016107579061351c565b600054610100900460ff1661242e5760405162461bcd60e51b81526004016107579061351c565b6111b5632a7c3e4960e01b6126b0565b60006114fe8383612731565b60006114fe8383612824565b6060600a80546111c690613410565b6000612479846001600160a01b0316611631565b1561257557836001600160a01b031663150b7a026124956116bb565b8786866040518563ffffffff1660e01b81526004016124b794939291906136a1565b602060405180830381600087803b1580156124d157600080fd5b505af1925050508015612501575060408051601f3d908101601f191682019092526124fe918101906136de565b60015b61255b573d80801561252f576040519150601f19603f3d011682016040523d82523d6000602084013e612534565b606091505b5080516125535760405162461bcd60e51b81526004016107579061358c565b805181602001fd5b6001600160e01b031916630a85bd0160e11b1490506117f5565b506001949350505050565b6060816125a45750506040805180820190915260018152600360fc1b602082015290565b8160005b81156125ce57806125b881613280565b91506125c79050600a83613356565b91506125a8565b6000816001600160401b038111156125e8576125e8612a76565b6040519080825280601f01601f191660200182016040528015612612576020820181803683370190505b5090505b84156117f5576126276001836134b7565b9150612634600a866136fb565b61263f90603061349f565b60f81b81838151811061265457612654613230565b60200101906001600160f81b031916908160001a905350612676600a86613356565b9450612616565b6126878383612873565b6126946000848484612465565b61089a5760405162461bcd60e51b81526004016107579061358c565b6001600160e01b031980821614156127095760405162461bcd60e51b815260206004820152601c60248201527b115490cc4d8d4e881a5b9d985b1a59081a5b9d195c999858d9481a5960221b6044820152606401610757565b6001600160e01b0319166000908152600160208190526040909120805460ff19169091179055565b6000818152600183016020526040812054801561281a5760006127556001836134b7565b8554909150600090612769906001906134b7565b90508181146127ce57600086600001828154811061278957612789613230565b90600052602060002001549050808760000184815481106127ac576127ac613230565b6000918252602080832090910192909255918252600188019052604090208390555b85548690806127df576127df61370f565b6001900381819060005260206000200160009055905585600101600086815260200190815260200160002060009055600193505050506105b5565b60009150506105b5565b600081815260018301602052604081205461286b575081546001818101845560008481526020808220909301849055845484825282860190935260409020919091556105b5565b5060006105b5565b6001600160a01b0382166128c95760405162461bcd60e51b815260206004820181905260248201527f4552433732313a206d696e7420746f20746865207a65726f20616464726573736044820152606401610757565b6128d28161169e565b1561291e5760405162461bcd60e51b815260206004820152601c60248201527b115490cdcc8c4e881d1bdad95b88185b1c9958591e481b5a5b9d195960221b6044820152606401610757565b6001600160a01b038216600090815260066020526040812080546001929061294790849061349f565b909155505060008181526005602052604080822080546001600160a01b0319166001600160a01b0386169081179091559051839290600080516020613726833981519152908290a45050565b82805461299f90613410565b90600052602060002090601f0160209004810192826129c15760008555612a07565b82601f106129da57805160ff1916838001178555612a07565b82800160010185558215612a07579182015b82811115612a075782518255916020019190600101906129ec565b50612a13929150612a17565b5090565b5b80821115612a135760008155600101612a18565b6001600160e01b03198116811461155b57600080fd5b600060208284031215612a5457600080fd5b81356114fe81612a2c565b80356001600160a01b0381168114611aac57600080fd5b634e487b7160e01b600052604160045260246000fd5b60405161016081016001600160401b0381118282101715612aaf57612aaf612a76565b60405290565b604051601f8201601f191681016001600160401b0381118282101715612add57612add612a76565b604052919050565b60006001600160401b03821115612afe57612afe612a76565b5060051b60200190565b600082601f830112612b1957600080fd5b81356020612b2e612b2983612ae5565b612ab5565b82815260059290921b84018101918181019086841115612b4d57600080fd5b8286015b84811015612b685780358352918301918301612b51565b509695505050505050565b600080600060608486031215612b8857600080fd5b612b9184612a5f565b9250612b9f60208501612a5f565b915060408401356001600160401b03811115612bba57600080fd5b612bc686828701612b08565b9150509250925092565b600060208284031215612be257600080fd5b5035919050565b60005b83811015612c04578181015183820152602001612bec565b838111156106555750506000910152565b60008151808452612c2d816020860160208601612be9565b601f01601f19169290920160200192915050565b6020815260006114fe6020830184612c15565b6001600160a01b0391909116815260200190565b60008060408385031215612c7b57600080fd5b612c8483612a5f565b946020939093013593505050565b600080600060608486031215612ca757600080fd5b612cb084612a5f565b9250612cbe60208501612a5f565b9150604084013590509250925092565b60008060408385031215612ce157600080fd5b50508035926020909101359150565b600082601f830112612d0157600080fd5b81356020612d11612b2983612ae5565b82815260059290921b84018101918181019086841115612d3057600080fd5b8286015b84811015612b6857612d4581612a5f565b8352918301918301612d34565b600080600060608486031215612d6757600080fd5b83356001600160401b0380821115612d7e57600080fd5b612d8a87838801612cf0565b94506020860135915080821115612da057600080fd5b612dac87838801612cf0565b93506040860135915080821115612dc257600080fd5b50612bc686828701612b08565b60006001600160401b03831115612de857612de8612a76565b612dfb601f8401601f1916602001612ab5565b9050828152838383011115612e0f57600080fd5b828260208301376000602084830101529392505050565b600082601f830112612e3757600080fd5b6114fe83833560208501612dcf565b600060208284031215612e5857600080fd5b81356001600160401b03811115612e6e57600080fd5b6117f584828501612e26565b803561ffff81168114611aac57600080fd5b60008060408385031215612e9f57600080fd5b82356001600160401b0380821115612eb657600080fd5b908401906101608287031215612ecb57600080fd5b612ed3612a8c565b823582811115612ee257600080fd5b612eee88828601612e26565b825250602083013582811115612f0357600080fd5b612f0f88828601612e26565b602083015250604083013582811115612f2757600080fd5b612f3388828601612e26565b604083015250606083013582811115612f4b57600080fd5b612f5788828601612e26565b606083015250608083013582811115612f6f57600080fd5b612f7b88828601612e26565b60808301525060a083013582811115612f9357600080fd5b612f9f88828601612cf0565b60a08301525060c083013582811115612fb757600080fd5b612fc388828601612b08565b60c08301525060e083013560e08201526101009150612fe3828401612a5f565b828201526101209150612ff7828401612e7a565b82820152610140915061300b828401612a5f565b8282015280945050505061302160208401612a5f565b90509250929050565b6000806020838503121561303d57600080fd5b82356001600160401b038082111561305457600080fd5b818501915085601f83011261306857600080fd5b81358181111561307757600080fd5b86602060608302850101111561308c57600080fd5b60209290920196919550909350505050565b6000602082840312156130b057600080fd5b6114fe82612a5f565b6001600160a01b0392909216825261ffff16602082015260400190565b600080604083850312156130e957600080fd5b6130f283612a5f565b91506020830135801515811461310757600080fd5b809150509250929050565b6000806000806080858703121561312857600080fd5b61313185612a5f565b935061313f60208601612a5f565b92506040850135915060608501356001600160401b0381111561316157600080fd5b8501601f8101871361317257600080fd5b61318187823560208401612dcf565b91505092959194509250565b602080825282518282018190526000919060409081850190868401855b828110156131e157815180516001600160a01b031685528601516001600160601b03168685015292840192908501906001016131aa565b5091979650505050505050565b6000806040838503121561320157600080fd5b61320a83612a5f565b915061302160208401612a5f565b60006040828403121561322a57600080fd5b50919050565b634e487b7160e01b600052603260045260246000fd5b6001600160a01b039384168152919092166020820152604081019190915260600190565b634e487b7160e01b600052601160045260246000fd5b60006000198214156132945761329461326a565b5060010190565b6020808252818101527f4f776e61626c653a2063616c6c6572206973206e6f7420746865206f776e6572604082015260600190565b60208082526031908201527f4552433732313a207472616e736665722063616c6c6572206973206e6f74206f6040820152701ddb995c881b9bdc88185c1c1c9bdd9959607a1b606082015260800190565b600081600019048311821515161561333b5761333b61326a565b500290565b634e487b7160e01b600052601260045260246000fd5b60008261336557613365613340565b500490565b60006060828403121561337c57600080fd5b604051606081016001600160401b038111828210171561339e5761339e612a76565b604052823581526133b160208401612a5f565b60208201526133c260408401612e7a565b60408201529392505050565b6020808252600f908201526e2120a9a2afaaa924afa32927ad22a760891b604082015260600190565b60006020828403121561340957600080fd5b5051919050565b600181811c9082168061342457607f821691505b6020821081141561322a57634e487b7160e01b600052602260045260246000fd5b60006040828403121561345757600080fd5b604080519081016001600160401b038111828210171561347957613479612a76565b60405261348583612a5f565b815261349360208401612e7a565b60208201529392505050565b600082198211156134b2576134b261326a565b500190565b6000828210156134c9576134c961326a565b500390565b6020808252602e908201527f496e697469616c697a61626c653a20636f6e747261637420697320616c72656160408201526d191e481a5b9a5d1a585b1a5e995960921b606082015260800190565b6020808252602b908201527f496e697469616c697a61626c653a20636f6e7472616374206973206e6f74206960408201526a6e697469616c697a696e6760a81b606082015260800190565b6020808252600b908201526a496e76616c69642062707360a81b604082015260600190565b60208082526032908201527f4552433732313a207472616e7366657220746f206e6f6e20455243373231526560408201527131b2b4bb32b91034b6b83632b6b2b73a32b960711b606082015260800190565b600081516135f0818560208601612be9565b9290920192915050565b600080845481600182811c91508083168061361657607f831692505b602080841082141561363657634e487b7160e01b86526022600452602486fd5b81801561364a576001811461365b57613688565b60ff19861689528489019650613688565b60008b81526020902060005b868110156136805781548b820152908501908301613667565b505084890196505b50505050505061369881856135de565b95945050505050565b6001600160a01b03858116825284166020820152604081018390526080606082018190526000906136d490830184612c15565b9695505050505050565b6000602082840312156136f057600080fd5b81516114fe81612a2c565b60008261370a5761370a613340565b500690565b634e487b7160e01b600052603160045260246000fdfeddf252ad1be2c89b69c2b068fc378daa952ba7f163c4a11628f55a4df523b3efa26469706673582212207ce2897717e1f2ca0705e9065d9036b964046bdd32006c19547c047adcacea4064736f6c63430008090033",
  "devdoc": {
    "kind": "dev",
    "methods": {
      "approve(address,uint256)": {
        "details": "See {IERC721-approve}."
      },
      "balanceOf(address)": {
        "details": "See {IERC721-balanceOf}."
      },
      "getApproved(uint256)": {
        "details": "See {IERC721-getApproved}."
      },
      "getTokenRoyaltiesCount()": {
        "details": "See {IEIP2981RoyaltyOverride-getTokenRoyaltiesCount}."
      },
      "getTokenRoyaltyByIndex(uint256)": {
        "details": "See {IEIP2981RoyaltyOverride-getTokenRoyaltyByIndex}."
      },
      "owner()": {
        "details": "Returns the address of the current owner."
      },
      "ownerOf(uint256)": {
        "details": "See {IERC721-ownerOf}."
      },
      "renounceOwnership()": {
        "details": "Leaves the contract without owner. It will not be possible to call `onlyOwner` functions anymore. Can only be called by the current owner. NOTE: Renouncing ownership will leave the contract without an owner, thereby removing any functionality that is only available to the owner."
      },
      "royaltyInfo(uint256,uint256)": {
        "details": "See {IEIP2981RoyaltyOverride-royaltyInfo}."
      },
      "safeTransferFrom(address,address,uint256)": {
        "details": "See {IERC721-safeTransferFrom}."
      },
      "safeTransferFrom(address,address,uint256,bytes)": {
        "details": "See {IERC721-safeTransferFrom}."
      },
      "setApprovalForAll(address,bool)": {
        "details": "See {IERC721-setApprovalForAll}."
      },
      "transferFrom(address,address,uint256)": {
        "details": "See {IERC721-transferFrom}."
      },
      "transferOwnership(address)": {
        "details": "Transfers ownership of the contract to a new account (`newOwner`). Can only be called by the current owner."
      }
    },
    "version": 1
  },
  "userdoc": {
    "kind": "user",
    "methods": {
      "transferFromBulk(address,address,uint256[])": {
        "notice": "Useful for when user wants to return tokens to get a refund, or when they want to transfer lots of tokens by paying gas fee only once."
      },
      "transferFromBulk(address[],address[],uint256[])": {
        "notice": "Useful for transferring multiple tokens from/to multiple addresses."
      }
    },
    "version": 1
  },
  "storageLayout": {
    "storage": [
      {
        "astId": 886,
        "contract": "contracts/collections/ERC721/presets/ERC721ManagedPrefixedCollection.sol:ERC721ManagedPrefixedCollection",
        "label": "_initialized",
        "offset": 0,
        "slot": "0",
        "type": "t_uint8"
      },
      {
        "astId": 889,
        "contract": "contracts/collections/ERC721/presets/ERC721ManagedPrefixedCollection.sol:ERC721ManagedPrefixedCollection",
        "label": "_initializing",
        "offset": 1,
        "slot": "0",
        "type": "t_bool"
      },
      {
        "astId": 782,
        "contract": "contracts/collections/ERC721/presets/ERC721ManagedPrefixedCollection.sol:ERC721ManagedPrefixedCollection",
        "label": "_owner",
        "offset": 2,
        "slot": "0",
        "type": "t_address"
      },
      {
        "astId": 4693,
        "contract": "contracts/collections/ERC721/presets/ERC721ManagedPrefixedCollection.sol:ERC721ManagedPrefixedCollection",
        "label": "_supportedInterfaces",
        "offset": 0,
        "slot": "1",
        "type": "t_mapping(t_bytes4,t_bool)"
      },
      {
        "astId": 11552,
        "contract": "contracts/collections/ERC721/presets/ERC721ManagedPrefixedCollection.sol:ERC721ManagedPrefixedCollection",
        "label": "_trustedForwarder",
        "offset": 0,
        "slot": "2",
        "type": "t_address"
      },
      {
        "astId": 1912,
        "contract": "contracts/collections/ERC721/presets/ERC721ManagedPrefixedCollection.sol:ERC721ManagedPrefixedCollection",
        "label": "_name",
        "offset": 0,
        "slot": "3",
        "type": "t_string_storage"
      },
      {
        "astId": 1914,
        "contract": "contracts/collections/ERC721/presets/ERC721ManagedPrefixedCollection.sol:ERC721ManagedPrefixedCollection",
        "label": "_symbol",
        "offset": 0,
        "slot": "4",
        "type": "t_string_storage"
      },
      {
        "astId": 1918,
        "contract": "contracts/collections/ERC721/presets/ERC721ManagedPrefixedCollection.sol:ERC721ManagedPrefixedCollection",
        "label": "_owners",
        "offset": 0,
        "slot": "5",
        "type": "t_mapping(t_uint256,t_address)"
      },
      {
        "astId": 1922,
        "contract": "contracts/collections/ERC721/presets/ERC721ManagedPrefixedCollection.sol:ERC721ManagedPrefixedCollection",
        "label": "_balances",
        "offset": 0,
        "slot": "6",
        "type": "t_mapping(t_address,t_uint256)"
      },
      {
        "astId": 1926,
        "contract": "contracts/collections/ERC721/presets/ERC721ManagedPrefixedCollection.sol:ERC721ManagedPrefixedCollection",
        "label": "_tokenApprovals",
        "offset": 0,
        "slot": "7",
        "type": "t_mapping(t_uint256,t_address)"
      },
      {
        "astId": 1932,
        "contract": "contracts/collections/ERC721/presets/ERC721ManagedPrefixedCollection.sol:ERC721ManagedPrefixedCollection",
        "label": "_operatorApprovals",
        "offset": 0,
        "slot": "8",
        "type": "t_mapping(t_address,t_mapping(t_address,t_bool))"
      },
      {
        "astId": 6091,
        "contract": "contracts/collections/ERC721/presets/ERC721ManagedPrefixedCollection.sol:ERC721ManagedPrefixedCollection",
        "label": "_name",
        "offset": 0,
        "slot": "9",
        "type": "t_string_storage"
      },
      {
        "astId": 6093,
        "contract": "contracts/collections/ERC721/presets/ERC721ManagedPrefixedCollection.sol:ERC721ManagedPrefixedCollection",
        "label": "_symbol",
        "offset": 0,
        "slot": "10",
        "type": "t_string_storage"
      },
      {
        "astId": 6095,
        "contract": "contracts/collections/ERC721/presets/ERC721ManagedPrefixedCollection.sol:ERC721ManagedPrefixedCollection",
        "label": "_contractURI",
        "offset": 0,
        "slot": "11",
        "type": "t_string_storage"
      },
      {
        "astId": 7348,
        "contract": "contracts/collections/ERC721/presets/ERC721ManagedPrefixedCollection.sol:ERC721ManagedPrefixedCollection",
        "label": "_placeholderURI",
        "offset": 0,
        "slot": "12",
        "type": "t_string_storage"
      },
      {
        "astId": 7350,
        "contract": "contracts/collections/ERC721/presets/ERC721ManagedPrefixedCollection.sol:ERC721ManagedPrefixedCollection",
        "label": "_baseTokenURI",
        "offset": 0,
        "slot": "13",
        "type": "t_string_storage"
      },
      {
        "astId": 7352,
        "contract": "contracts/collections/ERC721/presets/ERC721ManagedPrefixedCollection.sol:ERC721ManagedPrefixedCollection",
        "label": "baseURIFrozen",
        "offset": 0,
        "slot": "14",
        "type": "t_bool"
      },
      {
        "astId": 5696,
        "contract": "contracts/collections/ERC721/presets/ERC721ManagedPrefixedCollection.sol:ERC721ManagedPrefixedCollection",
        "label": "maxSupply",
        "offset": 0,
        "slot": "15",
        "type": "t_uint256"
      },
      {
        "astId": 5698,
        "contract": "contracts/collections/ERC721/presets/ERC721ManagedPrefixedCollection.sol:ERC721ManagedPrefixedCollection",
        "label": "maxSupplyFrozen",
        "offset": 0,
        "slot": "16",
        "type": "t_bool"
      },
      {
        "astId": 5701,
        "contract": "contracts/collections/ERC721/presets/ERC721ManagedPrefixedCollection.sol:ERC721ManagedPrefixedCollection",
        "label": "_currentTokenId",
        "offset": 0,
        "slot": "17",
        "type": "t_uint256"
      },
      {
        "astId": 6749,
        "contract": "contracts/collections/ERC721/presets/ERC721ManagedPrefixedCollection.sol:ERC721ManagedPrefixedCollection",
        "label": "managementPowerRevoked",
        "offset": 0,
        "slot": "18",
        "type": "t_bool"
      },
      {
        "astId": 86,
        "contract": "contracts/collections/ERC721/presets/ERC721ManagedPrefixedCollection.sol:ERC721ManagedPrefixedCollection",
        "label": "defaultRoyalty",
        "offset": 0,
        "slot": "19",
        "type": "t_struct(TokenRoyalty)28_storage"
      },
      {
        "astId": 91,
        "contract": "contracts/collections/ERC721/presets/ERC721ManagedPrefixedCollection.sol:ERC721ManagedPrefixedCollection",
        "label": "_tokenRoyalties",
        "offset": 0,
        "slot": "20",
        "type": "t_mapping(t_uint256,t_struct(TokenRoyalty)28_storage)"
      },
      {
        "astId": 94,
        "contract": "contracts/collections/ERC721/presets/ERC721ManagedPrefixedCollection.sol:ERC721ManagedPrefixedCollection",
        "label": "_tokensWithRoyalties",
        "offset": 0,
        "slot": "21",
        "type": "t_struct(UintSet)5526_storage"
      }
    ],
    "types": {
      "t_address": {
        "encoding": "inplace",
        "label": "address",
        "numberOfBytes": "20"
      },
      "t_array(t_bytes32)dyn_storage": {
        "base": "t_bytes32",
        "encoding": "dynamic_array",
        "label": "bytes32[]",
        "numberOfBytes": "32"
      },
      "t_bool": {
        "encoding": "inplace",
        "label": "bool",
        "numberOfBytes": "1"
      },
      "t_bytes32": {
        "encoding": "inplace",
        "label": "bytes32",
        "numberOfBytes": "32"
      },
      "t_bytes4": {
        "encoding": "inplace",
        "label": "bytes4",
        "numberOfBytes": "4"
      },
      "t_mapping(t_address,t_bool)": {
        "encoding": "mapping",
        "key": "t_address",
        "label": "mapping(address => bool)",
        "numberOfBytes": "32",
        "value": "t_bool"
      },
      "t_mapping(t_address,t_mapping(t_address,t_bool))": {
        "encoding": "mapping",
        "key": "t_address",
        "label": "mapping(address => mapping(address => bool))",
        "numberOfBytes": "32",
        "value": "t_mapping(t_address,t_bool)"
      },
      "t_mapping(t_address,t_uint256)": {
        "encoding": "mapping",
        "key": "t_address",
        "label": "mapping(address => uint256)",
        "numberOfBytes": "32",
        "value": "t_uint256"
      },
      "t_mapping(t_bytes32,t_uint256)": {
        "encoding": "mapping",
        "key": "t_bytes32",
        "label": "mapping(bytes32 => uint256)",
        "numberOfBytes": "32",
        "value": "t_uint256"
      },
      "t_mapping(t_bytes4,t_bool)": {
        "encoding": "mapping",
        "key": "t_bytes4",
        "label": "mapping(bytes4 => bool)",
        "numberOfBytes": "32",
        "value": "t_bool"
      },
      "t_mapping(t_uint256,t_address)": {
        "encoding": "mapping",
        "key": "t_uint256",
        "label": "mapping(uint256 => address)",
        "numberOfBytes": "32",
        "value": "t_address"
      },
      "t_mapping(t_uint256,t_struct(TokenRoyalty)28_storage)": {
        "encoding": "mapping",
        "key": "t_uint256",
        "label": "mapping(uint256 => struct IEIP2981RoyaltyOverride.TokenRoyalty)",
        "numberOfBytes": "32",
        "value": "t_struct(TokenRoyalty)28_storage"
      },
      "t_string_storage": {
        "encoding": "bytes",
        "label": "string",
        "numberOfBytes": "32"
      },
      "t_struct(Set)5068_storage": {
        "encoding": "inplace",
        "label": "struct EnumerableSet.Set",
        "members": [
          {
            "astId": 5063,
            "contract": "contracts/collections/ERC721/presets/ERC721ManagedPrefixedCollection.sol:ERC721ManagedPrefixedCollection",
            "label": "_values",
            "offset": 0,
            "slot": "0",
            "type": "t_array(t_bytes32)dyn_storage"
          },
          {
            "astId": 5067,
            "contract": "contracts/collections/ERC721/presets/ERC721ManagedPrefixedCollection.sol:ERC721ManagedPrefixedCollection",
            "label": "_indexes",
            "offset": 0,
            "slot": "1",
            "type": "t_mapping(t_bytes32,t_uint256)"
          }
        ],
        "numberOfBytes": "64"
      },
      "t_struct(TokenRoyalty)28_storage": {
        "encoding": "inplace",
        "label": "struct IEIP2981RoyaltyOverride.TokenRoyalty",
        "members": [
          {
            "astId": 25,
            "contract": "contracts/collections/ERC721/presets/ERC721ManagedPrefixedCollection.sol:ERC721ManagedPrefixedCollection",
            "label": "recipient",
            "offset": 0,
            "slot": "0",
            "type": "t_address"
          },
          {
            "astId": 27,
            "contract": "contracts/collections/ERC721/presets/ERC721ManagedPrefixedCollection.sol:ERC721ManagedPrefixedCollection",
            "label": "bps",
            "offset": 20,
            "slot": "0",
            "type": "t_uint16"
          }
        ],
        "numberOfBytes": "32"
      },
      "t_struct(UintSet)5526_storage": {
        "encoding": "inplace",
        "label": "struct EnumerableSet.UintSet",
        "members": [
          {
            "astId": 5525,
            "contract": "contracts/collections/ERC721/presets/ERC721ManagedPrefixedCollection.sol:ERC721ManagedPrefixedCollection",
            "label": "_inner",
            "offset": 0,
            "slot": "0",
            "type": "t_struct(Set)5068_storage"
          }
        ],
        "numberOfBytes": "64"
      },
      "t_uint16": {
        "encoding": "inplace",
        "label": "uint16",
        "numberOfBytes": "2"
      },
      "t_uint256": {
        "encoding": "inplace",
        "label": "uint256",
        "numberOfBytes": "32"
      },
      "t_uint8": {
        "encoding": "inplace",
        "label": "uint8",
        "numberOfBytes": "1"
      }
    }
  }
}