{
  "address": "0x5f6d4A179D0f36029d5E314Bde9FDd50b5F77cf0",
  "abi": [
    {
      "anonymous": false,
      "inputs": [
        {
          "indexed": true,
          "internalType": "address",
          "name": "previousOwner",
          "type": "address"
        },
        {
          "indexed": true,
          "internalType": "address",
          "name": "newOwner",
          "type": "address"
        }
      ],
      "name": "OwnershipTransferred",
      "type": "event"
    },
    {
      "inputs": [],
      "name": "owner",
      "outputs": [
        {
          "internalType": "address",
          "name": "",
          "type": "address"
        }
      ],
      "stateMutability": "view",
      "type": "function"
    },
    {
      "inputs": [],
      "name": "renounceOwnership",
      "outputs": [],
      "stateMutability": "nonpayable",
      "type": "function"
    },
    {
      "inputs": [
        {
          "internalType": "address",
          "name": "account",
          "type": "address"
        }
      ],
      "name": "transferOwnership",
      "outputs": [],
      "stateMutability": "nonpayable",
      "type": "function"
    }
  ],
  "transactionHash": "0xd6cce4840c64c3aeb74a558bca1dc71f994542d4ad1680d76eb2701eab00f2db",
  "args": [],
  "numDeployments": 3,
  "solcInputHash": "ffc6e07a79fa964cefe1c357bb110a4e",
  "bytecode": "0x608060405234801561001057600080fd5b50610264806100206000396000f3fe608060405234801561001057600080fd5b50600436106100415760003560e01c8063715018a6146100465780638da5cb5b14610050578063f2fde38b14610074575b600080fd5b61004e610087565b005b6100586100d4565b6040516001600160a01b03909116815260200160405180910390f35b61004e6100823660046101c7565b6100e3565b61008f610127565b6001600160a01b0316336001600160a01b0316146100c85760405162461bcd60e51b81526004016100bf906101f7565b60405180910390fd5b6100d26000610140565b565b60006100de610127565b905090565b6100eb610127565b6001600160a01b0316336001600160a01b03161461011b5760405162461bcd60e51b81526004016100bf906101f7565b61012481610140565b50565b60006101316101a3565b546001600160a01b0316919050565b61016a8161014c6101a3565b9081546001600160a01b0319166001600160a01b0391909116179055565b6040516001600160a01b0382169033907f8be0079c531659141344cd1fd0a4f28419497f9722a3daafe3b4186f6b6457e090600090a350565b7fc0ea367cb0174dd5521cd2372c76f8c13e6c1f832c71f1d6e0cbc185c9cc8ed490565b6000602082840312156101d957600080fd5b81356001600160a01b03811681146101f057600080fd5b9392505050565b6020808252601d908201527f4f776e61626c653a2073656e646572206d757374206265206f776e657200000060408201526060019056fea264697066735822122069e5f3e934132664ba1ef9659cb8f940f654b83ce6ee73bbd02089fed839d95264736f6c634300080f0033",
  "devdoc": {
    "kind": "dev",
    "methods": {
      "owner()": {
        "returns": {
          "_0": "conrtact owner"
        }
      },
      "renounceOwnership()": {
        "details": "Leaves the contract without owner. It will not be possible to call `onlyOwner` functions anymore. Can only be called by the current owner. NOTE: Renouncing ownership will leave the contract without an owner, thereby removing any functionality that is only available to the owner."
      },
      "transferOwnership(address)": {
        "params": {
          "account": "address of new owner"
        }
      }
    },
    "title": "Ownership access control based on ERC173",
    "version": 1
  },
  "userdoc": {
    "kind": "user",
    "methods": {
      "owner()": {
        "notice": "get the ERC173 contract owner"
      },
      "transferOwnership(address)": {
        "notice": "transfer contract ownership to new account"
      }
    },
    "version": 1
  },
  "storageLayout": {
    "storage": [],
    "types": null
  }
}