{
  "address": "0x9D5a2a4c8Eb919c110AdFf8Caa7F900c1E6E5079",
  "abi": [
    {
      "inputs": [],
      "stateMutability": "nonpayable",
      "type": "constructor"
    },
    {
      "inputs": [
        {
          "components": [
            {
              "internalType": "address",
              "name": "from",
              "type": "address"
            },
            {
              "internalType": "address",
              "name": "to",
              "type": "address"
            },
            {
              "internalType": "uint256",
              "name": "value",
              "type": "uint256"
            },
            {
              "internalType": "uint256",
              "name": "minGasPrice",
              "type": "uint256"
            },
            {
              "internalType": "uint256",
              "name": "maxGasPrice",
              "type": "uint256"
            },
            {
              "internalType": "uint256",
              "name": "expiresAt",
              "type": "uint256"
            },
            {
              "internalType": "uint256",
              "name": "nonce",
              "type": "uint256"
            },
            {
              "internalType": "bytes",
              "name": "data",
              "type": "bytes"
            }
          ],
          "internalType": "struct UnorderedForwarder.MetaTransaction[]",
          "name": "mtxs",
          "type": "tuple[]"
        },
        {
          "internalType": "bytes[]",
          "name": "signatures",
          "type": "bytes[]"
        }
      ],
      "name": "batchExecute",
      "outputs": [
        {
          "internalType": "bytes[]",
          "name": "returnResults",
          "type": "bytes[]"
        }
      ],
      "stateMutability": "payable",
      "type": "function"
    },
    {
      "inputs": [
        {
          "components": [
            {
              "internalType": "address",
              "name": "from",
              "type": "address"
            },
            {
              "internalType": "address",
              "name": "to",
              "type": "address"
            },
            {
              "internalType": "uint256",
              "name": "value",
              "type": "uint256"
            },
            {
              "internalType": "uint256",
              "name": "minGasPrice",
              "type": "uint256"
            },
            {
              "internalType": "uint256",
              "name": "maxGasPrice",
              "type": "uint256"
            },
            {
              "internalType": "uint256",
              "name": "expiresAt",
              "type": "uint256"
            },
            {
              "internalType": "uint256",
              "name": "nonce",
              "type": "uint256"
            },
            {
              "internalType": "bytes",
              "name": "data",
              "type": "bytes"
            }
          ],
          "internalType": "struct UnorderedForwarder.MetaTransaction",
          "name": "mtx",
          "type": "tuple"
        },
        {
          "internalType": "bytes",
          "name": "signature",
          "type": "bytes"
        }
      ],
      "name": "execute",
      "outputs": [
        {
          "internalType": "bytes",
          "name": "",
          "type": "bytes"
        }
      ],
      "stateMutability": "payable",
      "type": "function"
    },
    {
      "inputs": [
        {
          "components": [
            {
              "internalType": "address",
              "name": "from",
              "type": "address"
            },
            {
              "internalType": "address",
              "name": "to",
              "type": "address"
            },
            {
              "internalType": "uint256",
              "name": "value",
              "type": "uint256"
            },
            {
              "internalType": "uint256",
              "name": "minGasPrice",
              "type": "uint256"
            },
            {
              "internalType": "uint256",
              "name": "maxGasPrice",
              "type": "uint256"
            },
            {
              "internalType": "uint256",
              "name": "expiresAt",
              "type": "uint256"
            },
            {
              "internalType": "uint256",
              "name": "nonce",
              "type": "uint256"
            },
            {
              "internalType": "bytes",
              "name": "data",
              "type": "bytes"
            }
          ],
          "internalType": "struct UnorderedForwarder.MetaTransaction",
          "name": "mtx",
          "type": "tuple"
        },
        {
          "internalType": "bytes",
          "name": "signature",
          "type": "bytes"
        }
      ],
      "name": "verify",
      "outputs": [
        {
          "internalType": "bytes32",
          "name": "mtxHash",
          "type": "bytes32"
        }
      ],
      "stateMutability": "view",
      "type": "function"
    }
  ],
  "transactionHash": "0x72d4f7d798349ea39993257b097e24b8d520fbd0a409de1b456e593250a52132",
  "args": [],
  "numDeployments": 3,
  "solcInputHash": "16641f389397861c69e217d1c93a49db",
  "bytecode": "0x61014060405234801561001157600080fd5b5060408051808201825260128152712ab737b93232b932b22337b93bb0b93232b960711b602080830191825283518085019094526005845264302e302e3160d81b908401528151902060e08190527fae209a0b48f21c054280f2455d32cf309387644879d9acbd8ffc1991638118856101008190524660a0529192917f8b73c3c69bb8fe3d512ecc4cf759cc79239f7b179b0ffacaa9a75d522b39400f6100fd8184846040805160208101859052908101839052606081018290524660808201523060a082015260009060c0016040516020818303038152906040528051906020012090509392505050565b6080523060c0526101205250506001600055506101179050565b60805160a05160c05160e0516101005161012051611024610166600039600061081c0152600061086b015260006108460152600061079f015260006107c9015260006107f301526110246000f3fe6080604052600436106100345760003560e01c8063b0565b2714610039578063b122ea941461006c578063cd74662f1461008c575b600080fd5b34801561004557600080fd5b50610059610054366004610bfe565b6100ac565b6040519081526020015b60405180910390f35b61007f61007a366004610ce1565b6102d5565b6040516100639190610da8565b61009f61009a366004610bfe565b6104a5565b6040516100639190610e0a565b60006101957f2bbaa6c701d9ecd9e324adef5727bb11883e2c24df1dd4c8f19e4e038b3734666100df6020870187610e1d565b6100ef6040880160208901610e1d565b6040880135606089013560808a013560a08b013560c08c013561011560e08e018e610e46565b604051610123929190610e8c565b60408051918290038220602083019a909a526001600160a01b0398891690820152969095166060870152608086019390935260a085019190915260c084015260e08301526101008201526101208101919091526101400160405160208183030381529060405280519060200120610560565b9050428460a00135116101dd5760405162461bcd60e51b815260206004820152600b60248201526a1195d117d156141254915160aa1b60448201526064015b60405180910390fd5b6101ea6020850185610e1d565b6001600160a01b031661023584848080601f01602080910402602001604051908101604052809392919081815260200183838082843760009201919091525086939250506105b49050565b6001600160a01b0316146102835760405162461bcd60e51b81526020600482015260156024820152744657445f494e56414c49445f5349474e415455524560581b60448201526064016101d4565b600081815260016020526040902054156102ce5760405162461bcd60e51b815260206004820152600c60248201526b1195d117d49154131056515160a21b60448201526064016101d4565b9392505050565b6060600260005414156102fa5760405162461bcd60e51b81526004016101d490610e9c565b6002600090815561030b3447610ee9565b90508483146103565760405162461bcd60e51b81526020600482015260176024820152764657445f4d49534d415443485f5349474e41545552455360481b60448201526064016101d4565b846001600160401b0381111561036e5761036e610f00565b6040519080825280602002602001820160405280156103a157816020015b606081526020019060019003908161038c5790505b50915060005b8581101561042d576103ff8787838181106103c4576103c4610f16565b90506020028101906103d69190610f2c565b8686848181106103e8576103e8610f16565b90506020028101906103fa9190610e46565b6105d8565b83828151811061041157610411610f16565b60200260200101819052508061042690610f4c565b90506103a7565b50600047341161043d573461043f565b475b9050801561047657604051339082156108fc029083906000818181858888f19350505050158015610474573d6000803e3d6000fd5b505b50478111156104975760405162461bcd60e51b81526004016101d490610f67565b506001600055949350505050565b6060600260005414156104ca5760405162461bcd60e51b81526004016101d490610e9c565b600260009081556104db3447610ee9565b90506104e88585856105d8565b915060004734116104f957346104fb565b475b9050801561053257604051339082156108fc029083906000818181858888f19350505050158015610530573d6000803e3d6000fd5b505b50478111156105535760405162461bcd60e51b81526004016101d490610f67565b5060016000559392505050565b60006105ae61056d610792565b8360405161190160f01b6020820152602281018390526042810182905260009060620160405160208183030381529060405280519060200120905092915050565b92915050565b60008060006105c385856108b9565b915091506105d081610929565b509392505050565b60603a8460600135111580156105f2575083608001353a11155b6106305760405162461bcd60e51b815260206004820152600f60248201526e4657445f494e56414c49445f47415360881b60448201526064016101d4565b47846040013511156106785760405162461bcd60e51b81526020600482015260116024820152704657445f494e56414c49445f56414c554560781b60448201526064016101d4565b60006106858585856100ac565b6000818152600160209081526040808320439055929350909182916106ae918901908901610e1d565b6001600160a01b031660408801356106c960e08a018a610e46565b6106d660208c018c610e1d565b6040516020016106e893929190610f8d565b60408051601f198184030181529082905261070291610fae565b60006040518083038185875af1925050503d806000811461073f576040519150601f19603f3d011682016040523d82523d6000602084013e610744565b606091505b5091509150816107885760405162461bcd60e51b815260206004820152600f60248201526e1195d117d0d0531317d19052531151608a1b60448201526064016101d4565b9695505050505050565b6000306001600160a01b037f0000000000000000000000000000000000000000000000000000000000000000161480156107eb57507f000000000000000000000000000000000000000000000000000000000000000046145b1561081557507f000000000000000000000000000000000000000000000000000000000000000090565b50604080517f00000000000000000000000000000000000000000000000000000000000000006020808301919091527f0000000000000000000000000000000000000000000000000000000000000000828401527f000000000000000000000000000000000000000000000000000000000000000060608301524660808301523060a0808401919091528351808403909101815260c0909201909252805191012090565b6000808251604114156108f05760208301516040840151606085015160001a6108e487828585610ae2565b94509450505050610922565b82516040141561091a576020830151604084015161090f868383610bc5565b935093505050610922565b506000905060025b9250929050565b600081600481111561093d5761093d610fc0565b14156109465750565b600181600481111561095a5761095a610fc0565b14156109a35760405162461bcd60e51b815260206004820152601860248201527745434453413a20696e76616c6964207369676e617475726560401b60448201526064016101d4565b60028160048111156109b7576109b7610fc0565b1415610a055760405162461bcd60e51b815260206004820152601f60248201527f45434453413a20696e76616c6964207369676e6174757265206c656e6774680060448201526064016101d4565b6003816004811115610a1957610a19610fc0565b1415610a725760405162461bcd60e51b815260206004820152602260248201527f45434453413a20696e76616c6964207369676e6174757265202773272076616c604482015261756560f01b60648201526084016101d4565b6004816004811115610a8657610a86610fc0565b1415610adf5760405162461bcd60e51b815260206004820152602260248201527f45434453413a20696e76616c6964207369676e6174757265202776272076616c604482015261756560f01b60648201526084016101d4565b50565b6000806fa2a8918ca85bafe22016d0b997e4df60600160ff1b03831115610b0f5750600090506003610bbc565b8460ff16601b14158015610b2757508460ff16601c14155b15610b385750600090506004610bbc565b6040805160008082526020820180845289905260ff881692820192909252606081018690526080810185905260019060a0016020604051602081039080840390855afa158015610b8c573d6000803e3d6000fd5b5050604051601f1901519150506001600160a01b038116610bb557600060019250925050610bbc565b9150600090505b94509492505050565b6000806001600160ff1b03831681610be260ff86901c601b610fd6565b9050610bf087828885610ae2565b935093505050935093915050565b600080600060408486031215610c1357600080fd5b83356001600160401b0380821115610c2a57600080fd5b908501906101008288031215610c3f57600080fd5b90935060208501359080821115610c5557600080fd5b818601915086601f830112610c6957600080fd5b813581811115610c7857600080fd5b876020828501011115610c8a57600080fd5b6020830194508093505050509250925092565b60008083601f840112610caf57600080fd5b5081356001600160401b03811115610cc657600080fd5b6020830191508360208260051b850101111561092257600080fd5b60008060008060408587031215610cf757600080fd5b84356001600160401b0380821115610d0e57600080fd5b610d1a88838901610c9d565b90965094506020870135915080821115610d3357600080fd5b50610d4087828801610c9d565b95989497509550505050565b60005b83811015610d67578181015183820152602001610d4f565b83811115610d76576000848401525b50505050565b60008151808452610d94816020860160208601610d4c565b601f01601f19169290920160200192915050565b6000602080830181845280855180835260408601915060408160051b870101925083870160005b82811015610dfd57603f19888603018452610deb858351610d7c565b94509285019290850190600101610dcf565b5092979650505050505050565b6020815260006102ce6020830184610d7c565b600060208284031215610e2f57600080fd5b81356001600160a01b03811681146102ce57600080fd5b6000808335601e19843603018112610e5d57600080fd5b8301803591506001600160401b03821115610e7757600080fd5b60200191503681900382131561092257600080fd5b8183823760009101908152919050565b6020808252601f908201527f5265656e7472616e637947756172643a207265656e7472616e742063616c6c00604082015260600190565b634e487b7160e01b600052601160045260246000fd5b600082821015610efb57610efb610ed3565b500390565b634e487b7160e01b600052604160045260246000fd5b634e487b7160e01b600052603260045260246000fd5b6000823560fe19833603018112610f4257600080fd5b9190910192915050565b6000600019821415610f6057610f60610ed3565b5060010190565b6020808252600c908201526b4657445f4554485f4c45414b60a01b604082015260600190565b8284823760609190911b6001600160601b0319169101908152601401919050565b60008251610f42818460208701610d4c565b634e487b7160e01b600052602160045260246000fd5b60008219821115610fe957610fe9610ed3565b50019056fea2646970667358221220f06fc125b57de6b0a300e5a69ff6590d3ab4f657d840cfd6f2cf384709937c2d64736f6c63430008090033",
  "devdoc": {
    "kind": "dev",
    "methods": {},
    "version": 1
  },
  "userdoc": {
    "kind": "user",
    "methods": {},
    "version": 1
  },
  "storageLayout": {
    "storage": [
      {
        "astId": 969,
        "contract": "contracts/common/meta-transactions/UnorderedForwarder.sol:UnorderedForwarder",
        "label": "_status",
        "offset": 0,
        "slot": "0",
        "type": "t_uint256"
      },
      {
        "astId": 6172,
        "contract": "contracts/common/meta-transactions/UnorderedForwarder.sol:UnorderedForwarder",
        "label": "mtxHashToExecutedBlockNumber",
        "offset": 0,
        "slot": "1",
        "type": "t_mapping(t_bytes32,t_uint256)"
      }
    ],
    "types": {
      "t_bytes32": {
        "encoding": "inplace",
        "label": "bytes32",
        "numberOfBytes": "32"
      },
      "t_mapping(t_bytes32,t_uint256)": {
        "encoding": "mapping",
        "key": "t_bytes32",
        "label": "mapping(bytes32 => uint256)",
        "numberOfBytes": "32",
        "value": "t_uint256"
      },
      "t_uint256": {
        "encoding": "inplace",
        "label": "uint256",
        "numberOfBytes": "32"
      }
    }
  }
}