{
  "address": "0x91a90c18b6829688973dD1a14CD4a2824b2CD6Ff",
  "abi": [
    {
      "anonymous": false,
      "inputs": [
        {
          "indexed": true,
          "internalType": "address",
          "name": "previousOwner",
          "type": "address"
        },
        {
          "indexed": true,
          "internalType": "address",
          "name": "newOwner",
          "type": "address"
        }
      ],
      "name": "OwnershipTransferred",
      "type": "event"
    },
    {
      "inputs": [],
      "name": "lockDecimals",
      "outputs": [],
      "stateMutability": "nonpayable",
      "type": "function"
    },
    {
      "inputs": [
        {
          "internalType": "uint8",
          "name": "newDecimals",
          "type": "uint8"
        }
      ],
      "name": "setDecimals",
      "outputs": [],
      "stateMutability": "nonpayable",
      "type": "function"
    }
  ],
  "transactionHash": "0x74981d77478868ad369baea93783abb6faa40610c8b970bb61a602a32c8733f4",
  "args": [],
  "numDeployments": 1,
  "solcInputHash": "ecd38ea833cab447c99e4d76d7385bbf",
  "bytecode": "0x608060405234801561001057600080fd5b506102ae806100206000396000f3fe608060405234801561001057600080fd5b50600436106100365760003560e01c80637a1395aa1461003b578063ef0fbdd714610050575b600080fd5b61004e61004936600461024e565b610058565b005b61004e610195565b7fc0ea367cb0174dd5521cd2372c76f8c13e6c1f832c71f1d6e0cbc185c9cc8ed45473ffffffffffffffffffffffffffffffffffffffff1633146100e35760405162461bcd60e51b815260206004820152601d60248201527f4f776e61626c653a2073656e646572206d757374206265206f776e657200000060448201526064015b60405180910390fd5b7f3b67c745df1d17403ada58f538de4780e4768549f9387f877a18fb6c6b3a7b4b8054610100900460ff16156101815760405162461bcd60e51b815260206004820152602560248201527f45524332304d657461646174614f776e61626c653a20646563696d616c73206c60448201527f6f636b656400000000000000000000000000000000000000000000000000000060648201526084016100da565b805460ff191660ff92909216919091179055565b7fc0ea367cb0174dd5521cd2372c76f8c13e6c1f832c71f1d6e0cbc185c9cc8ed45473ffffffffffffffffffffffffffffffffffffffff16331461021b5760405162461bcd60e51b815260206004820152601d60248201527f4f776e61626c653a2073656e646572206d757374206265206f776e657200000060448201526064016100da565b60007f3b67c745df1d17403ada58f538de4780e4768549f9387f877a18fb6c6b3a7b4b805461ff00191661010017905550565b60006020828403121561026057600080fd5b813560ff8116811461027157600080fd5b939250505056fea2646970667358221220ff34bcf151af3bf7bc757f1bad0a75c98c6e843dbeceaa96816864fdcb3ca21164736f6c634300080f0033",
  "devdoc": {
    "custom:category": "Tokens",
    "custom:peer-dependencies": "IERC20Metadata",
    "custom:provides-interfaces": "IERC20MetadataAdmin",
    "custom:type": "eip-2535-facet",
    "kind": "dev",
    "methods": {},
    "title": "ERC20 - Metadata - Admin - Ownable",
    "version": 1
  },
  "userdoc": {
    "kind": "user",
    "methods": {},
    "notice": "Allows diamond owner to change decimals config or freeze it forever.",
    "version": 1
  },
  "storageLayout": {
    "storage": [],
    "types": null
  }
}