{
  "address": "0xeAE43cFE24194F531A4Dc06d4bb93C39F2C6c665",
  "abi": [
    {
      "anonymous": false,
      "inputs": [
        {
          "indexed": true,
          "internalType": "address",
          "name": "previousOwner",
          "type": "address"
        },
        {
          "indexed": true,
          "internalType": "address",
          "name": "newOwner",
          "type": "address"
        }
      ],
      "name": "OwnershipTransferred",
      "type": "event"
    },
    {
      "anonymous": false,
      "inputs": [
        {
          "indexed": false,
          "internalType": "string",
          "name": "value",
          "type": "string"
        },
        {
          "indexed": true,
          "internalType": "uint256",
          "name": "tokenId",
          "type": "uint256"
        }
      ],
      "name": "URI",
      "type": "event"
    },
    {
      "inputs": [
        {
          "internalType": "address[]",
          "name": "tos",
          "type": "address[]"
        },
        {
          "internalType": "uint256[]",
          "name": "amounts",
          "type": "uint256[]"
        }
      ],
      "name": "mintByOwner",
      "outputs": [],
      "stateMutability": "nonpayable",
      "type": "function"
    },
    {
      "inputs": [
        {
          "internalType": "address",
          "name": "to",
          "type": "address"
        },
        {
          "internalType": "uint256",
          "name": "amount",
          "type": "uint256"
        }
      ],
      "name": "mintByOwner",
      "outputs": [],
      "stateMutability": "nonpayable",
      "type": "function"
    },
    {
      "inputs": [
        {
          "internalType": "address",
          "name": "to",
          "type": "address"
        },
        {
          "internalType": "uint256",
          "name": "amount",
          "type": "uint256"
        },
        {
          "internalType": "string[]",
          "name": "tokenURIs",
          "type": "string[]"
        }
      ],
      "name": "mintByOwner",
      "outputs": [],
      "stateMutability": "nonpayable",
      "type": "function"
    },
    {
      "inputs": [
        {
          "internalType": "address[]",
          "name": "tos",
          "type": "address[]"
        },
        {
          "internalType": "string[]",
          "name": "tokenURIs",
          "type": "string[]"
        }
      ],
      "name": "mintByOwner",
      "outputs": [],
      "stateMutability": "nonpayable",
      "type": "function"
    },
    {
      "inputs": [
        {
          "internalType": "address[]",
          "name": "tos",
          "type": "address[]"
        },
        {
          "internalType": "uint256",
          "name": "amount",
          "type": "uint256"
        }
      ],
      "name": "mintByOwner",
      "outputs": [],
      "stateMutability": "nonpayable",
      "type": "function"
    }
  ],
  "transactionHash": "0x28f6fbd58b5bc0fbf4f038c93c72536f497d66cdb06cf54e100b923fc91b1201",
  "args": [],
  "numDeployments": 2,
  "solcInputHash": "41373eaf12b52d564cbc495cd15332a7",
  "bytecode": "0x608060405234801561001057600080fd5b50610c11806100206000396000f3fe608060405234801561001057600080fd5b50600436106100675760003560e01c80635393b00d116100505780635393b00d14610094578063914cc31b146100a7578063cb05f4ef146100ba57600080fd5b80632c3d8acb1461006c5780633542aee214610081575b600080fd5b61007f61007a366004610765565b6100cd565b005b61007f61008f3660046107ed565b6101c5565b61007f6100a2366004610817565b6102a2565b61007f6100b5366004610765565b61042a565b61007f6100c8366004610865565b610566565b7fc0ea367cb0174dd5521cd2372c76f8c13e6c1f832c71f1d6e0cbc185c9cc8ed4546001600160a01b0316331461014b5760405162461bcd60e51b815260206004820152601d60248201527f4f776e61626c653a2073656e646572206d757374206265206f776e657200000060448201526064015b60405180910390fd5b6040517f49142a1400000000000000000000000000000000000000000000000000000000815230906349142a149061018d9087908790879087906004016108f8565b600060405180830381600087803b1580156101a757600080fd5b505af11580156101bb573d6000803e3d6000fd5b5050505050505050565b7fc0ea367cb0174dd5521cd2372c76f8c13e6c1f832c71f1d6e0cbc185c9cc8ed4546001600160a01b0316331461023e5760405162461bcd60e51b815260206004820152601d60248201527f4f776e61626c653a2073656e646572206d757374206265206f776e65720000006044820152606401610142565b604051632d4f475f60e01b81526001600160a01b0383166004820152602481018290523090632d4f475f90604401600060405180830381600087803b15801561028657600080fd5b505af115801561029a573d6000803e3d6000fd5b505050505050565b7fc0ea367cb0174dd5521cd2372c76f8c13e6c1f832c71f1d6e0cbc185c9cc8ed4546001600160a01b0316331461031b5760405162461bcd60e51b815260206004820152601d60248201527f4f776e61626c653a2073656e646572206d757374206265206f776e65720000006044820152606401610142565b60007faa3a0910ce5fb062d392dc5a532ff9d50bb9d0f614a8eda1a3ec786de0b761f354604051632d4f475f60e01b81526001600160a01b0387166004820152602481018690529091503090632d4f475f90604401600060405180830381600087803b15801561038a57600080fd5b505af115801561039e573d6000803e3d6000fd5b5050505060005b8481101561029a576104186103ba8284610979565b8585848181106103cc576103cc610991565b90506020028101906103de91906109a7565b8080601f01602080910402602001604051908101604052809392919081815260200183838082843760009201919091525061063492505050565b80610422816109ee565b9150506103a5565b7fc0ea367cb0174dd5521cd2372c76f8c13e6c1f832c71f1d6e0cbc185c9cc8ed4546001600160a01b031633146104a35760405162461bcd60e51b815260206004820152601d60248201527f4f776e61626c653a2073656e646572206d757374206265206f776e65720000006044820152606401610142565b7faa3a0910ce5fb062d392dc5a532ff9d50bb9d0f614a8eda1a3ec786de0b761f3546040516392c56e2d60e01b8152849030906392c56e2d906104ef9089908590600190600401610a07565b600060405180830381600087803b15801561050957600080fd5b505af115801561051d573d6000803e3d6000fd5b5050505060005b8181101561055d5761054b6105398285610979565b8686848181106103cc576103cc610991565b80610555816109ee565b915050610524565b50505050505050565b7fc0ea367cb0174dd5521cd2372c76f8c13e6c1f832c71f1d6e0cbc185c9cc8ed4546001600160a01b031633146105df5760405162461bcd60e51b815260206004820152601d60248201527f4f776e61626c653a2073656e646572206d757374206265206f776e65720000006044820152606401610142565b6040516392c56e2d60e01b815230906392c56e2d9061060690869086908690600401610a07565b600060405180830381600087803b15801561062057600080fd5b505af115801561055d573d6000803e3d6000fd5b7f021fe373f7e014154d4f551c37c047b9ed9093c774291911030896b9b2dfef65548210156106a55760405162461bcd60e51b815260206004820152601960248201527f4d657461646174613a20746f6b656e555249206c6f636b6564000000000000006044820152606401610142565b60008281527f021fe373f7e014154d4f551c37c047b9ed9093c774291911030896b9b2dfef66602052604090206106dc8282610ac6565b50817f6bb7ff708619ba0610cba295a58592e0451dee2622938c8755667688daf3529b8260405161070d9190610b86565b60405180910390a25050565b60008083601f84011261072b57600080fd5b50813567ffffffffffffffff81111561074357600080fd5b6020830191508360208260051b850101111561075e57600080fd5b9250929050565b6000806000806040858703121561077b57600080fd5b843567ffffffffffffffff8082111561079357600080fd5b61079f88838901610719565b909650945060208701359150808211156107b857600080fd5b506107c587828801610719565b95989497509550505050565b80356001600160a01b03811681146107e857600080fd5b919050565b6000806040838503121561080057600080fd5b610809836107d1565b946020939093013593505050565b6000806000806060858703121561082d57600080fd5b610836856107d1565b935060208501359250604085013567ffffffffffffffff81111561085957600080fd5b6107c587828801610719565b60008060006040848603121561087a57600080fd5b833567ffffffffffffffff81111561089157600080fd5b61089d86828701610719565b909790965060209590950135949350505050565b8183526000602080850194508260005b858110156108ed576001600160a01b036108da836107d1565b16875295820195908201906001016108c1565b509495945050505050565b60408152600061090c6040830186886108b1565b82810360208401528381527f07ffffffffffffffffffffffffffffffffffffffffffffffffffffffffffffff84111561094457600080fd5b8360051b80866020840137600091016020019081529695505050505050565b634e487b7160e01b600052601160045260246000fd5b6000821982111561098c5761098c610963565b500190565b634e487b7160e01b600052603260045260246000fd5b6000808335601e198436030181126109be57600080fd5b83018035915067ffffffffffffffff8211156109d957600080fd5b60200191503681900382131561075e57600080fd5b600060018201610a0057610a00610963565b5060010190565b604081526000610a1b6040830185876108b1565b9050826020830152949350505050565b634e487b7160e01b600052604160045260246000fd5b600181811c90821680610a5557607f821691505b602082108103610a7557634e487b7160e01b600052602260045260246000fd5b50919050565b601f821115610ac157600081815260208120601f850160051c81016020861015610aa25750805b601f850160051c820191505b8181101561029a57828155600101610aae565b505050565b815167ffffffffffffffff811115610ae057610ae0610a2b565b610af481610aee8454610a41565b84610a7b565b602080601f831160018114610b295760008415610b115750858301515b600019600386901b1c1916600185901b17855561029a565b600085815260208120601f198616915b82811015610b5857888601518255948401946001909101908401610b39565b5085821015610b765787850151600019600388901b60f8161c191681555b5050505050600190811b01905550565b600060208083528351808285015260005b81811015610bb357858101830151858201604001528201610b97565b81811115610bc5576000604083870101525b50601f01601f191692909201604001939250505056fea2646970667358221220c19253b3ca2d115f6040e2e679a2fd3f9780fe30b2b68dc50b1709c6ad6a061164736f6c634300080f0033",
  "devdoc": {
    "custom:category": "NFTs",
    "custom:provides-interfaces": "IERC721MintableOwnable",
    "custom:required-dependencies": "IERC721MintableExtension",
    "custom:type": "eip-2535-facet",
    "kind": "dev",
    "methods": {
      "mintByOwner(address,uint256)": {
        "details": "Creates `amount` new tokens for `to`, of token type `id`. See {ERC721-_mint}. Requirements: - the caller must be diamond owner."
      },
      "mintByOwner(address,uint256,string[])": {
        "details": "Mint new tokens for single address with dedicated tokenURIs."
      },
      "mintByOwner(address[],string[])": {
        "details": "Mint new tokens for multiple addresses with dedicated tokenURIs."
      },
      "mintByOwner(address[],uint256)": {
        "details": "Mint constant amount of new tokens for multiple addresses (e.g. 1 nft for each address)."
      },
      "mintByOwner(address[],uint256[])": {
        "details": "Mint new tokens for multiple addresses with dedicated tokenURIs."
      }
    },
    "title": "ERC721 - Mint as owner",
    "version": 1
  },
  "userdoc": {
    "kind": "user",
    "methods": {},
    "notice": "Allow minting as contract owner with no restrictions (supports ERC721A).",
    "version": 1
  },
  "storageLayout": {
    "storage": [],
    "types": null
  }
}