{
  "address": "0x3E368e34Ae2CD9F2617F397cE6B6310fE1cAEaed",
  "abi": [
    {
      "inputs": [],
      "name": "ErrLicenseLocked",
      "type": "error"
    },
    {
      "anonymous": false,
      "inputs": [
        {
          "indexed": false,
          "internalType": "string",
          "name": "customLicenseURI",
          "type": "string"
        },
        {
          "indexed": false,
          "internalType": "string",
          "name": "customLicenseName",
          "type": "string"
        }
      ],
      "name": "CustomLicenseSet",
      "type": "event"
    },
    {
      "anonymous": false,
      "inputs": [],
      "name": "LicenseLocked",
      "type": "event"
    },
    {
      "anonymous": false,
      "inputs": [
        {
          "indexed": false,
          "internalType": "enum ILicenseInternal.LicenseVersion",
          "name": "licenseVersion",
          "type": "uint8"
        }
      ],
      "name": "LicenseVersionSet",
      "type": "event"
    },
    {
      "inputs": [],
      "name": "customLicenseName",
      "outputs": [
        {
          "internalType": "string",
          "name": "",
          "type": "string"
        }
      ],
      "stateMutability": "view",
      "type": "function"
    },
    {
      "inputs": [],
      "name": "customLicenseURI",
      "outputs": [
        {
          "internalType": "string",
          "name": "",
          "type": "string"
        }
      ],
      "stateMutability": "view",
      "type": "function"
    },
    {
      "inputs": [],
      "name": "getLicenseName",
      "outputs": [
        {
          "internalType": "string",
          "name": "",
          "type": "string"
        }
      ],
      "stateMutability": "view",
      "type": "function"
    },
    {
      "inputs": [],
      "name": "getLicenseURI",
      "outputs": [
        {
          "internalType": "string",
          "name": "",
          "type": "string"
        }
      ],
      "stateMutability": "view",
      "type": "function"
    },
    {
      "inputs": [],
      "name": "licenseVersion",
      "outputs": [
        {
          "internalType": "enum ILicenseInternal.LicenseVersion",
          "name": "",
          "type": "uint8"
        }
      ],
      "stateMutability": "view",
      "type": "function"
    }
  ],
  "transactionHash": "0x19c32f233e97545e7b78e46ca5af7409f13cd5f8331fecf308f60e7ca7d19a1c",
  "args": [],
  "numDeployments": 2,
  "solcInputHash": "41373eaf12b52d564cbc495cd15332a7",
  "bytecode": "0x608060405234801561001057600080fd5b50610929806100206000396000f3fe608060405234801561001057600080fd5b50600436106100675760003560e01c8063a341793b11610050578063a341793b1461009f578063c7db2893146100a7578063d41a6f5f146100af57600080fd5b806350a5292f1461006c5780636884ff2b1461008a575b600080fd5b6100746100b7565b6040516100819190610706565b60405180910390f35b6100926100e9565b604051610081919061075e565b61009261019d565b6100926101a7565b6100926101b1565b60006100e47f686fbd75ec6671870c2ca65eac65ee184d2285f055fb69de73ba3ce5549e15f65460ff1690565b905090565b60607f686fbd75ec6671870c2ca65eac65ee184d2285f055fb69de73ba3ce5549e15f6600101805461011a90610791565b80601f016020809104026020016040519081016040528092919081815260200182805461014690610791565b80156101935780601f1061016857610100808354040283529160200191610193565b820191906000526020600020905b81548152906001019060200180831161017657829003601f168201915b5050505050905090565b60606100e46101e2565b60606100e46104d1565b60607f686fbd75ec6671870c2ca65eac65ee184d2285f055fb69de73ba3ce5549e15f6600201805461011a90610791565b606060007f686fbd75ec6671870c2ca65eac65ee184d2285f055fb69de73ba3ce5549e15f690506006815460ff166007811115610221576102216106f0565b036102b95780600201805461023590610791565b80601f016020809104026020016040519081016040528092919081815260200182805461026190610791565b80156102ae5780601f10610283576101008083540402835291602001916102ae565b820191906000526020600020905b81548152906001019060200180831161029157829003601f168201915b505050505091505090565b6007815460ff1660078111156102d1576102d16106f0565b036102ea57505060408051602081019091526000815290565b805460ff166007811115610300576103006106f0565b60000361034057505060408051808201909152600781527f4342455f43433000000000000000000000000000000000000000000000000000602082015290565b805460ff166007811115610356576103566106f0565b60010361039657505060408051808201909152600781527f4342455f45435200000000000000000000000000000000000000000000000000602082015290565b805460ff1660078111156103ac576103ac6106f0565b6002036103ec57505060408051808201909152600881527f4342455f4e454352000000000000000000000000000000000000000000000000602082015290565b805460ff166007811115610402576104026106f0565b60030361044257505060408051808201909152600b81527f4342455f4e4543525f4853000000000000000000000000000000000000000000602082015290565b805460ff166007811115610458576104586106f0565b60040361049857505060408051808201909152600681527f4342455f50520000000000000000000000000000000000000000000000000000602082015290565b505060408051808201909152600981527f4342455f50525f48530000000000000000000000000000000000000000000000602082015290565b606060007f686fbd75ec6671870c2ca65eac65ee184d2285f055fb69de73ba3ce5549e15f690506006815460ff166007811115610510576105106106f0565b036105245780600101805461023590610791565b6007815460ff16600781111561053c5761053c6106f0565b0361055557505060408051602081019091526000815290565b6040518060600160405280603181526020016108c360319139815461058d9060ff166007811115610588576105886106f0565b6105b3565b60405160200161059e9291906107cb565b60405160208183030381529060405291505090565b6060816000036105f657505060408051808201909152600181527f3000000000000000000000000000000000000000000000000000000000000000602082015290565b8160005b8115610620578061060a81610810565b91506106199050600a8361083f565b91506105fa565b60008167ffffffffffffffff81111561063b5761063b610853565b6040519080825280601f01601f191660200182016040528015610665576020820181803683370190505b5090505b84156106e85761067a600183610869565b9150610687600a86610880565b610692906030610894565b60f81b8183815181106106a7576106a76108ac565b60200101907effffffffffffffffffffffffffffffffffffffffffffffffffffffffffffff1916908160001a9053506106e1600a8661083f565b9450610669565b949350505050565b634e487b7160e01b600052602160045260246000fd5b602081016008831061072857634e487b7160e01b600052602160045260246000fd5b91905290565b60005b83811015610749578181015183820152602001610731565b83811115610758576000848401525b50505050565b602081526000825180602084015261077d81604085016020870161072e565b601f01601f19169190910160400192915050565b600181811c908216806107a557607f821691505b6020821081036107c557634e487b7160e01b600052602260045260246000fd5b50919050565b600083516107dd81846020880161072e565b8351908301906107f181836020880161072e565b01949350505050565b634e487b7160e01b600052601160045260246000fd5b600060018201610822576108226107fa565b5060010190565b634e487b7160e01b600052601260045260246000fd5b60008261084e5761084e610829565b500490565b634e487b7160e01b600052604160045260246000fd5b60008282101561087b5761087b6107fa565b500390565b60008261088f5761088f610829565b500690565b600082198211156108a7576108a76107fa565b500190565b634e487b7160e01b600052603260045260246000fdfe61723a2f2f5f44396b4e3157724e576243713535425341475262544234625333763851415054596d42546853625833412fa2646970667358221220881407902d1e554ed3f965bea3f48a1d7e0e043d8728ca9eff5c7d6d24d4f5b664736f6c634300080f0033",
  "devdoc": {
    "custom:category": "Legal",
    "custom:provides-interfaces": "ILicense ICantBeEvil",
    "custom:type": "eip-2535-facet",
    "kind": "dev",
    "methods": {},
    "title": "License",
    "version": 1
  },
  "userdoc": {
    "kind": "user",
    "methods": {},
    "notice": "Add license name and content URI for interacting or holding assets of this contract. Based on a16z's \"Can't Be Evil\".",
    "version": 1
  },
  "storageLayout": {
    "storage": [],
    "types": null
  }
}