{
  "address": "0xeeFF78D0184C338E5379F7B16EFbc9Ba3Ae0B42E",
  "abi": [
    {
      "inputs": [],
      "name": "ApprovalCallerNotOwnerNorApproved",
      "type": "error"
    },
    {
      "inputs": [],
      "name": "ApprovalQueryForNonexistentToken",
      "type": "error"
    },
    {
      "inputs": [],
      "name": "ApproveToCaller",
      "type": "error"
    },
    {
      "inputs": [],
      "name": "BalanceQueryForZeroAddress",
      "type": "error"
    },
    {
      "inputs": [],
      "name": "ErrMaxSupplyExceeded",
      "type": "error"
    },
    {
      "inputs": [],
      "name": "ErrSenderIsNotSelf",
      "type": "error"
    },
    {
      "inputs": [
        {
          "internalType": "uint256",
          "name": "tokenId",
          "type": "uint256"
        }
      ],
      "name": "ErrTokenLocked",
      "type": "error"
    },
    {
      "inputs": [],
      "name": "MintERC2309QuantityExceedsLimit",
      "type": "error"
    },
    {
      "inputs": [],
      "name": "MintToZeroAddress",
      "type": "error"
    },
    {
      "inputs": [],
      "name": "MintZeroQuantity",
      "type": "error"
    },
    {
      "inputs": [],
      "name": "OwnerQueryForNonexistentToken",
      "type": "error"
    },
    {
      "inputs": [],
      "name": "OwnershipNotInitializedForExtraData",
      "type": "error"
    },
    {
      "inputs": [],
      "name": "TransferCallerNotOwnerNorApproved",
      "type": "error"
    },
    {
      "inputs": [],
      "name": "TransferFromIncorrectOwner",
      "type": "error"
    },
    {
      "inputs": [],
      "name": "TransferToNonERC721ReceiverImplementer",
      "type": "error"
    },
    {
      "inputs": [],
      "name": "TransferToZeroAddress",
      "type": "error"
    },
    {
      "inputs": [],
      "name": "URIQueryForNonexistentToken",
      "type": "error"
    },
    {
      "anonymous": false,
      "inputs": [
        {
          "indexed": true,
          "internalType": "address",
          "name": "owner",
          "type": "address"
        },
        {
          "indexed": true,
          "internalType": "address",
          "name": "approved",
          "type": "address"
        },
        {
          "indexed": true,
          "internalType": "uint256",
          "name": "tokenId",
          "type": "uint256"
        }
      ],
      "name": "Approval",
      "type": "event"
    },
    {
      "anonymous": false,
      "inputs": [
        {
          "indexed": true,
          "internalType": "address",
          "name": "owner",
          "type": "address"
        },
        {
          "indexed": true,
          "internalType": "address",
          "name": "operator",
          "type": "address"
        },
        {
          "indexed": false,
          "internalType": "bool",
          "name": "approved",
          "type": "bool"
        }
      ],
      "name": "ApprovalForAll",
      "type": "event"
    },
    {
      "anonymous": false,
      "inputs": [
        {
          "indexed": true,
          "internalType": "uint256",
          "name": "fromTokenId",
          "type": "uint256"
        },
        {
          "indexed": false,
          "internalType": "uint256",
          "name": "toTokenId",
          "type": "uint256"
        },
        {
          "indexed": true,
          "internalType": "address",
          "name": "from",
          "type": "address"
        },
        {
          "indexed": true,
          "internalType": "address",
          "name": "to",
          "type": "address"
        }
      ],
      "name": "ConsecutiveTransfer",
      "type": "event"
    },
    {
      "anonymous": false,
      "inputs": [
        {
          "indexed": false,
          "internalType": "uint256",
          "name": "tokenId",
          "type": "uint256"
        }
      ],
      "name": "Locked",
      "type": "event"
    },
    {
      "anonymous": false,
      "inputs": [
        {
          "indexed": true,
          "internalType": "address",
          "name": "from",
          "type": "address"
        },
        {
          "indexed": true,
          "internalType": "address",
          "name": "to",
          "type": "address"
        },
        {
          "indexed": true,
          "internalType": "uint256",
          "name": "tokenId",
          "type": "uint256"
        }
      ],
      "name": "Transfer",
      "type": "event"
    },
    {
      "anonymous": false,
      "inputs": [
        {
          "indexed": false,
          "internalType": "uint256",
          "name": "tokenId",
          "type": "uint256"
        }
      ],
      "name": "Unlocked",
      "type": "event"
    },
    {
      "inputs": [
        {
          "internalType": "address",
          "name": "to",
          "type": "address"
        },
        {
          "internalType": "uint256",
          "name": "tokenId",
          "type": "uint256"
        }
      ],
      "name": "approve",
      "outputs": [],
      "stateMutability": "nonpayable",
      "type": "function"
    },
    {
      "inputs": [
        {
          "internalType": "address",
          "name": "owner",
          "type": "address"
        }
      ],
      "name": "balanceOf",
      "outputs": [
        {
          "internalType": "uint256",
          "name": "",
          "type": "uint256"
        }
      ],
      "stateMutability": "view",
      "type": "function"
    },
    {
      "inputs": [
        {
          "internalType": "uint256",
          "name": "id",
          "type": "uint256"
        }
      ],
      "name": "burn",
      "outputs": [],
      "stateMutability": "nonpayable",
      "type": "function"
    },
    {
      "inputs": [
        {
          "internalType": "uint256[]",
          "name": "ids",
          "type": "uint256[]"
        }
      ],
      "name": "burnBatch",
      "outputs": [],
      "stateMutability": "nonpayable",
      "type": "function"
    },
    {
      "inputs": [
        {
          "internalType": "uint256[]",
          "name": "ids",
          "type": "uint256[]"
        }
      ],
      "name": "burnBatchByFacet",
      "outputs": [],
      "stateMutability": "nonpayable",
      "type": "function"
    },
    {
      "inputs": [
        {
          "internalType": "uint256",
          "name": "id",
          "type": "uint256"
        }
      ],
      "name": "burnByFacet",
      "outputs": [],
      "stateMutability": "nonpayable",
      "type": "function"
    },
    {
      "inputs": [
        {
          "internalType": "uint256",
          "name": "tokenId",
          "type": "uint256"
        }
      ],
      "name": "getApproved",
      "outputs": [
        {
          "internalType": "address",
          "name": "",
          "type": "address"
        }
      ],
      "stateMutability": "view",
      "type": "function"
    },
    {
      "inputs": [
        {
          "internalType": "address",
          "name": "owner",
          "type": "address"
        },
        {
          "internalType": "address",
          "name": "operator",
          "type": "address"
        }
      ],
      "name": "isApprovedForAll",
      "outputs": [
        {
          "internalType": "bool",
          "name": "",
          "type": "bool"
        }
      ],
      "stateMutability": "view",
      "type": "function"
    },
    {
      "inputs": [
        {
          "internalType": "uint256",
          "name": "id",
          "type": "uint256"
        }
      ],
      "name": "lockByFacet",
      "outputs": [],
      "stateMutability": "nonpayable",
      "type": "function"
    },
    {
      "inputs": [
        {
          "internalType": "uint256[]",
          "name": "ids",
          "type": "uint256[]"
        }
      ],
      "name": "lockByFacet",
      "outputs": [],
      "stateMutability": "nonpayable",
      "type": "function"
    },
    {
      "inputs": [
        {
          "internalType": "uint256[]",
          "name": "ticketTokenIds",
          "type": "uint256[]"
        }
      ],
      "name": "locked",
      "outputs": [
        {
          "internalType": "bool[]",
          "name": "states",
          "type": "bool[]"
        }
      ],
      "stateMutability": "view",
      "type": "function"
    },
    {
      "inputs": [
        {
          "internalType": "uint256",
          "name": "tokenId",
          "type": "uint256"
        }
      ],
      "name": "locked",
      "outputs": [
        {
          "internalType": "bool",
          "name": "",
          "type": "bool"
        }
      ],
      "stateMutability": "view",
      "type": "function"
    },
    {
      "inputs": [],
      "name": "maxSupply",
      "outputs": [
        {
          "internalType": "uint256",
          "name": "",
          "type": "uint256"
        }
      ],
      "stateMutability": "view",
      "type": "function"
    },
    {
      "inputs": [
        {
          "internalType": "address",
          "name": "to",
          "type": "address"
        },
        {
          "internalType": "uint256",
          "name": "amount",
          "type": "uint256"
        }
      ],
      "name": "mintByFacet",
      "outputs": [],
      "stateMutability": "nonpayable",
      "type": "function"
    },
    {
      "inputs": [
        {
          "internalType": "address[]",
          "name": "tos",
          "type": "address[]"
        },
        {
          "internalType": "uint256[]",
          "name": "amounts",
          "type": "uint256[]"
        }
      ],
      "name": "mintByFacet",
      "outputs": [],
      "stateMutability": "nonpayable",
      "type": "function"
    },
    {
      "inputs": [
        {
          "internalType": "uint256",
          "name": "tokenId",
          "type": "uint256"
        }
      ],
      "name": "ownerOf",
      "outputs": [
        {
          "internalType": "address",
          "name": "",
          "type": "address"
        }
      ],
      "stateMutability": "view",
      "type": "function"
    },
    {
      "inputs": [
        {
          "internalType": "address",
          "name": "from",
          "type": "address"
        },
        {
          "internalType": "address",
          "name": "to",
          "type": "address"
        },
        {
          "internalType": "uint256",
          "name": "tokenId",
          "type": "uint256"
        }
      ],
      "name": "safeTransferFrom",
      "outputs": [],
      "stateMutability": "nonpayable",
      "type": "function"
    },
    {
      "inputs": [
        {
          "internalType": "address",
          "name": "from",
          "type": "address"
        },
        {
          "internalType": "address",
          "name": "to",
          "type": "address"
        },
        {
          "internalType": "uint256",
          "name": "tokenId",
          "type": "uint256"
        },
        {
          "internalType": "bytes",
          "name": "_data",
          "type": "bytes"
        }
      ],
      "name": "safeTransferFrom",
      "outputs": [],
      "stateMutability": "nonpayable",
      "type": "function"
    },
    {
      "inputs": [
        {
          "internalType": "address",
          "name": "operator",
          "type": "address"
        },
        {
          "internalType": "bool",
          "name": "approved",
          "type": "bool"
        }
      ],
      "name": "setApprovalForAll",
      "outputs": [],
      "stateMutability": "nonpayable",
      "type": "function"
    },
    {
      "inputs": [],
      "name": "totalSupply",
      "outputs": [
        {
          "internalType": "uint256",
          "name": "",
          "type": "uint256"
        }
      ],
      "stateMutability": "view",
      "type": "function"
    },
    {
      "inputs": [
        {
          "internalType": "address",
          "name": "from",
          "type": "address"
        },
        {
          "internalType": "address",
          "name": "to",
          "type": "address"
        },
        {
          "internalType": "uint256",
          "name": "tokenId",
          "type": "uint256"
        }
      ],
      "name": "transferFrom",
      "outputs": [],
      "stateMutability": "nonpayable",
      "type": "function"
    },
    {
      "inputs": [
        {
          "internalType": "uint256[]",
          "name": "ids",
          "type": "uint256[]"
        }
      ],
      "name": "unlockByFacet",
      "outputs": [],
      "stateMutability": "nonpayable",
      "type": "function"
    },
    {
      "inputs": [
        {
          "internalType": "uint256",
          "name": "id",
          "type": "uint256"
        }
      ],
      "name": "unlockByFacet",
      "outputs": [],
      "stateMutability": "nonpayable",
      "type": "function"
    }
  ],
  "transactionHash": "0x607f90d3fc63500f3ac130aad01b71f97c1938a80f425996381b4f007e9b97ed",
  "args": [],
  "numDeployments": 1,
  "solcInputHash": "92b10a87a798c3ac32d6f62bce2409de",
  "bytecode": "0x608060405234801561001057600080fd5b50611cfe806100206000396000f3fe608060405234801561001057600080fd5b506004361061018d5760003560e01c806352f50967116100e3578063b88d4fde1161008c578063e4623c1b11610066578063e4623c1b14610342578063e985e9c514610355578063f9497f341461036857600080fd5b8063b88d4fde14610314578063c7d1bc8314610327578063d5abeb011461033a57600080fd5b8063856e31c1116100bd578063856e31c1146102cb578063a22cb465146102de578063b45a3c0e146102f157600080fd5b806352f50967146102925780636352211e146102a557806370a08231146102b857600080fd5b80633c2a04591161014557806342966c681161011f57806342966c681461025957806349142a141461026c5780634a371f641461027f57600080fd5b80633c2a0459146102135780633d64bec01461022657806342842e0e1461024657600080fd5b806318160ddd1161017657806318160ddd146101d757806323b872dd146101ed5780632d4f475f1461020057600080fd5b8063081812fc14610192578063095ea7b3146101c2575b600080fd5b6101a56101a03660046117e0565b61037b565b6040516001600160a01b0390911681526020015b60405180910390f35b6101d56101d0366004611815565b61038c565b005b6101df61039a565b6040519081526020016101b9565b6101d56101fb36600461183f565b6103ec565b6101d561020e366004611815565b6103fc565b6101d56102213660046117e0565b610426565b6102396102343660046118c2565b610452565b6040516101b99190611968565b6101d561025436600461183f565b610502565b6101d56102673660046117e0565b61051d565b6101d561027a3660046119fa565b610528565b6101d561028d3660046118c2565b6105b4565b6101d56102a03660046118c2565b610614565b6101a56102b33660046117e0565b610674565b6101df6102c6366004611a66565b61067f565b6101d56102d93660046117e0565b61068a565b6101d56102ec366004611a81565b6106b3565b6103046102ff3660046117e0565b6106bd565b60405190151581526020016101b9565b6101d5610322366004611abd565b6106c8565b6101d56103353660046117e0565b6106da565b6101df610703565b6101d56103503660046118c2565b61072d565b610304610363366004611b7d565b61076f565b6101d56103763660046118c2565b6107c1565b600061038682610821565b92915050565b610396828261089d565b5050565b60006103e77faa3a0910ce5fb062d392dc5a532ff9d50bb9d0f614a8eda1a3ec786de0b761f4547faa3a0910ce5fb062d392dc5a532ff9d50bb9d0f614a8eda1a3ec786de0b761f3540390565b905090565b6103f78383836109ec565b505050565b30331461041c5760405163fd570b5160e01b815260040160405180910390fd5b6103968282610c90565b3033146104465760405163fd570b5160e01b815260040160405180910390fd5b61044f81610e4a565b50565b6060815167ffffffffffffffff81111561046e5761046e61187b565b604051908082528060200260200182016040528015610497578160200160208202803683370190505b50905060005b82518110156104fc576104c88382815181106104bb576104bb611bb0565b6020026020010151610e55565b8282815181106104da576104da611bb0565b91151560209283029190910190910152806104f481611bdc565b91505061049d565b50919050565b6103f783838360405180602001604052806000815250610e97565b61044f816001610edb565b3033146105485760405163fd570b5160e01b815260040160405180910390fd5b60005b838110156105ad5761059b85858381811061056857610568611bb0565b905060200201602081019061057d9190611a66565b84848481811061058f5761058f611bb0565b90506020020135610c90565b806105a581611bdc565b91505061054b565b5050505050565b3033146105d45760405163fd570b5160e01b815260040160405180910390fd5b60005b8151811015610396576106028282815181106105f5576105f5611bb0565b602002602001015161112a565b8061060c81611bdc565b9150506105d7565b3033146106345760405163fd570b5160e01b815260040160405180910390fd5b60005b81518110156103965761066282828151811061065557610655611bb0565b6020026020010151610e4a565b8061066c81611bdc565b915050610637565b6000610386826111a0565b6000610386826111ab565b3033146106aa5760405163fd570b5160e01b815260040160405180910390fd5b61044f81611232565b61039682826112a0565b600061038682610e55565b6106d484848484610e97565b50505050565b3033146106fa5760405163fd570b5160e01b815260040160405180910390fd5b61044f8161112a565b60006103e77faa3a0910ce5fb062d392dc5a532ff9d50bb9d0f614a8eda1a3ec786de0b761f55490565b60005b81518110156103965761075d82828151811061074e5761074e611bb0565b60200260200101516001610edb565b8061076781611bdc565b915050610730565b6001600160a01b0380831660009081527f2569078dfb4b0305704d3008e7403993ae9601b85f7ae5e742de3de8f8011c476020908152604080832093851683529290529081205460ff165b9392505050565b3033146107e15760405163fd570b5160e01b815260040160405180910390fd5b60005b81518110156103965761080f82828151811061080257610802611bb0565b6020026020010151611232565b8061081981611bdc565b9150506107e4565b600061082c826113aa565b610862576040517fcf4700e400000000000000000000000000000000000000000000000000000000815260040160405180910390fd5b5060009081527f2569078dfb4b0305704d3008e7403993ae9601b85f7ae5e742de3de8f8011c4660205260409020546001600160a01b031690565b60006108a8826111a0565b9050806001600160a01b03166108bc611410565b6001600160a01b03161461095957610923816108d6611410565b6001600160a01b0391821660009081527f2569078dfb4b0305704d3008e7403993ae9601b85f7ae5e742de3de8f8011c476020908152604080832093909416825291909152205460ff1690565b610959576040517fcfb3b94200000000000000000000000000000000000000000000000000000000815260040160405180910390fd5b60008281527f2569078dfb4b0305704d3008e7403993ae9601b85f7ae5e742de3de8f8011c46602052604080822080547fffffffffffffffffffffffff0000000000000000000000000000000000000000166001600160a01b0387811691821790925591518593918516917f8c5be1e5ebec7d5bd14f71427d1e84f3dd0314c0f7b2291e5b200ac8c7c3b92591a4505050565b60006109f78261141a565b9050836001600160a01b0316816001600160a01b031614610a44576040517fa114810000000000000000000000000000000000000000000000000000000000815260040160405180910390fd5b60008281527f2569078dfb4b0305704d3008e7403993ae9601b85f7ae5e742de3de8f8011c46602052604090208054610a958187610a80611410565b6001600160a01b039081169116811491141790565b610ac257610aa5866108d6611410565b610ac257604051632ce44b5f60e11b815260040160405180910390fd5b6001600160a01b038516610b02576040517fea553b3400000000000000000000000000000000000000000000000000000000815260040160405180910390fd5b610b0f86868660016114f7565b8015610b1a57600082555b6001600160a01b0386811660009081527f2569078dfb4b0305704d3008e7403993ae9601b85f7ae5e742de3de8f8011c4560205260408082208054600019019055918716808252919020805460010190554260a01b17600160e11b1760008581527f2569078dfb4b0305704d3008e7403993ae9601b85f7ae5e742de3de8f8011c446020526040812091909155600160e11b84169003610c47576001840160008181527f2569078dfb4b0305704d3008e7403993ae9601b85f7ae5e742de3de8f8011c4460205260408120549003610c45577faa3a0910ce5fb062d392dc5a532ff9d50bb9d0f614a8eda1a3ec786de0b761f3548114610c455760008181527f2569078dfb4b0305704d3008e7403993ae9601b85f7ae5e742de3de8f8011c44602052604090208490555b505b83856001600160a01b0316876001600160a01b03167fddf252ad1be2c89b69c2b068fc378daa952ba7f163c4a11628f55a4df523b3ef60405160405180910390a4505050505050565b7faa3a0910ce5fb062d392dc5a532ff9d50bb9d0f614a8eda1a3ec786de0b761f3546000829003610ced576040517fb562e8dd00000000000000000000000000000000000000000000000000000000815260040160405180910390fd5b610cfa60008483856114f7565b6001600160a01b03831660008181527f2569078dfb4b0305704d3008e7403993ae9601b85f7ae5e742de3de8f8011c456020908152604080832080546801000000000000000188020190558483527f2569078dfb4b0305704d3008e7403993ae9601b85f7ae5e742de3de8f8011c4490915281206001851460e11b4260a01b178317905582840190839083907fddf252ad1be2c89b69c2b068fc378daa952ba7f163c4a11628f55a4df523b3ef8180a4600183015b818114610de757808360007fddf252ad1be2c89b69c2b068fc378daa952ba7f163c4a11628f55a4df523b3ef600080a4600101610daf565b5081600003610e22576040517f2e07630000000000000000000000000000000000000000000000000000000000815260040160405180910390fd5b7faa3a0910ce5fb062d392dc5a532ff9d50bb9d0f614a8eda1a3ec786de0b761f35550505050565b61044f816000610edb565b600881901c60009081527f939803063e013e06d8dc3e649f5637d6c85e7cdf5a06a1acfb7ec0a27fc9114b6020526040812054600160ff84161b161515610386565b610ea28484846109ec565b6001600160a01b0383163b156106d457610ebe84848484611503565b6106d4576040516368d2bf6b60e11b815260040160405180910390fd5b6000610ee68361141a565b905080600080610f238660009081527f2569078dfb4b0305704d3008e7403993ae9601b85f7ae5e742de3de8f8011c466020526040902080549091565b915091508415610f6757610f3a8184610a80611410565b610f6757610f4a836108d6611410565b610f6757604051632ce44b5f60e11b815260040160405180910390fd5b610f758360008860016114f7565b8015610f8057600082555b6001600160a01b03831660008181527f2569078dfb4b0305704d3008e7403993ae9601b85f7ae5e742de3de8f8011c456020526040902080546fffffffffffffffffffffffffffffffff0190554260a01b177c03000000000000000000000000000000000000000000000000000000001760008781527f2569078dfb4b0305704d3008e7403993ae9601b85f7ae5e742de3de8f8011c446020526040812091909155600160e11b851690036110c2576001860160008181527f2569078dfb4b0305704d3008e7403993ae9601b85f7ae5e742de3de8f8011c44602052604081205490036110c0577faa3a0910ce5fb062d392dc5a532ff9d50bb9d0f614a8eda1a3ec786de0b761f35481146110c05760008181527f2569078dfb4b0305704d3008e7403993ae9601b85f7ae5e742de3de8f8011c44602052604090208590555b505b60405186906000906001600160a01b038616907fddf252ad1be2c89b69c2b068fc378daa952ba7f163c4a11628f55a4df523b3ef908390a450507faa3a0910ce5fb062d392dc5a532ff9d50bb9d0f614a8eda1a3ec786de0b761f48054600101905550505050565b600881901c60009081527f939803063e013e06d8dc3e649f5637d6c85e7cdf5a06a1acfb7ec0a27fc9114b602052604090208054600160ff84161b191690556040518181527ff27b6ce5b2f5e68ddb2fd95a8a909d4ecf1daaac270935fff052feacb24f1842906020015b60405180910390a150565b60006103868261141a565b60006001600160a01b0382166111ed576040517f8f4eb60400000000000000000000000000000000000000000000000000000000815260040160405180910390fd5b506001600160a01b031660009081527f2569078dfb4b0305704d3008e7403993ae9601b85f7ae5e742de3de8f8011c45602052604090205467ffffffffffffffff1690565b600881901c60009081527f939803063e013e06d8dc3e649f5637d6c85e7cdf5a06a1acfb7ec0a27fc9114b602052604090208054600160ff84161b1790556040518181527f032bc66be43dbccb7487781d168eb7bda224628a3b2c3388bdf69b532a3a161190602001611195565b6112a8611410565b6001600160a01b0316826001600160a01b0316036112f2576040517fb06307db00000000000000000000000000000000000000000000000000000000815260040160405180910390fd5b807f2569078dfb4b0305704d3008e7403993ae9601b85f7ae5e742de3de8f8011c47600061131e611410565b6001600160a01b03908116825260208083019390935260409182016000908120918716808252919093529120805460ff191692151592909217909155611362611410565b6001600160a01b03167f17307eab39ab6107e8899845ad3d59bd9653f200f220920489ca2b5937696c318360405161139e911515815260200190565b60405180910390a35050565b60007faa3a0910ce5fb062d392dc5a532ff9d50bb9d0f614a8eda1a3ec786de0b761f3548210801561038657505060009081527f2569078dfb4b0305704d3008e7403993ae9601b85f7ae5e742de3de8f8011c446020526040902054600160e01b161590565b60006103e7611625565b6000817faa3a0910ce5fb062d392dc5a532ff9d50bb9d0f614a8eda1a3ec786de0b761f3548110156114c55760008181527f2569078dfb4b0305704d3008e7403993ae9601b85f7ae5e742de3de8f8011c44602052604081205490600160e01b821690036114c3575b806000036107ba57506000190160008181527f2569078dfb4b0305704d3008e7403993ae9601b85f7ae5e742de3de8f8011c446020526040902054611483565b505b6040517fdf2d9b4200000000000000000000000000000000000000000000000000000000815260040160405180910390fd5b6106d48484848461162f565b6000836001600160a01b031663150b7a0261151c611410565b8786866040518563ffffffff1660e01b815260040161153e9493929190611bf5565b6020604051808303816000875af1925050508015611579575060408051601f3d908101601f1916820190925261157691810190611c6e565b60015b6115d7573d8080156115a7576040519150601f19603f3d011682016040523d82523d6000602084013e6115ac565b606091505b5080516000036115cf576040516368d2bf6b60e11b815260040160405180910390fd5b805181602001fd5b7fffffffff00000000000000000000000000000000000000000000000000000000167f150b7a0200000000000000000000000000000000000000000000000000000000149050949350505050565b60006103e76116c8565b6001600160a01b038416156116bc5760005b818110156116ba5761165b6116568285611cb0565b610e55565b156116a85761166a8184611cb0565b6040517f731b8ece00000000000000000000000000000000000000000000000000000000815260040161169f91815260200190565b60405180910390fd5b806116b281611bdc565b915050611641565b505b6106d48484848461170e565b7fdb1d5e345c4903e9a32b6674ecc8b1deaddbbb2551474fb34c9d34becbe7f420546000906001600160a01b03163303611709575060131936013560601c90565b503390565b6001600160a01b0384166117db576001600160a01b038316156117db577faa3a0910ce5fb062d392dc5a532ff9d50bb9d0f614a8eda1a3ec786de0b761f554816117997faa3a0910ce5fb062d392dc5a532ff9d50bb9d0f614a8eda1a3ec786de0b761f4547faa3a0910ce5fb062d392dc5a532ff9d50bb9d0f614a8eda1a3ec786de0b761f3540390565b6117a39190611cb0565b11156117db576040517fb746b1c900000000000000000000000000000000000000000000000000000000815260040160405180910390fd5b6106d4565b6000602082840312156117f257600080fd5b5035919050565b80356001600160a01b038116811461181057600080fd5b919050565b6000806040838503121561182857600080fd5b611831836117f9565b946020939093013593505050565b60008060006060848603121561185457600080fd5b61185d846117f9565b925061186b602085016117f9565b9150604084013590509250925092565b634e487b7160e01b600052604160045260246000fd5b604051601f8201601f1916810167ffffffffffffffff811182821017156118ba576118ba61187b565b604052919050565b600060208083850312156118d557600080fd5b823567ffffffffffffffff808211156118ed57600080fd5b818501915085601f83011261190157600080fd5b8135818111156119135761191361187b565b8060051b9150611924848301611891565b818152918301840191848101908884111561193e57600080fd5b938501935b8385101561195c57843582529385019390850190611943565b98975050505050505050565b6020808252825182820181905260009190848201906040850190845b818110156119a2578351151583529284019291840191600101611984565b50909695505050505050565b60008083601f8401126119c057600080fd5b50813567ffffffffffffffff8111156119d857600080fd5b6020830191508360208260051b85010111156119f357600080fd5b9250929050565b60008060008060408587031215611a1057600080fd5b843567ffffffffffffffff80821115611a2857600080fd5b611a34888389016119ae565b90965094506020870135915080821115611a4d57600080fd5b50611a5a878288016119ae565b95989497509550505050565b600060208284031215611a7857600080fd5b6107ba826117f9565b60008060408385031215611a9457600080fd5b611a9d836117f9565b915060208301358015158114611ab257600080fd5b809150509250929050565b60008060008060808587031215611ad357600080fd5b611adc856117f9565b93506020611aeb8187016117f9565b935060408601359250606086013567ffffffffffffffff80821115611b0f57600080fd5b818801915088601f830112611b2357600080fd5b813581811115611b3557611b3561187b565b611b47601f8201601f19168501611891565b91508082528984828501011115611b5d57600080fd5b808484018584013760008482840101525080935050505092959194509250565b60008060408385031215611b9057600080fd5b611b99836117f9565b9150611ba7602084016117f9565b90509250929050565b634e487b7160e01b600052603260045260246000fd5b634e487b7160e01b600052601160045260246000fd5b600060018201611bee57611bee611bc6565b5060010190565b60006001600160a01b038087168352602081871681850152856040850152608060608501528451915081608085015260005b82811015611c435785810182015185820160a001528101611c27565b82811115611c5557600060a084870101525b5050601f01601f19169190910160a00195945050505050565b600060208284031215611c8057600080fd5b81517fffffffff00000000000000000000000000000000000000000000000000000000811681146107ba57600080fd5b60008219821115611cc357611cc3611bc6565b50019056fea2646970667358221220604e4cd213d24deb200616294795fd10cf370602e1d5c650e9aeb9b9e53522c664736f6c634300080f0033",
  "devdoc": {
    "custom:category": "NFTs",
    "custom:provides-interfaces": "IERC721 IERC721ABase IERC721SupplyExtension IERC721MintableExtension IERC721LockableExtension IERC721BurnableExtension",
    "custom:type": "eip-2535-facet",
    "kind": "dev",
    "methods": {
      "approve(address,uint256)": {
        "details": "Gives permission to `to` to transfer `tokenId` token to another account. The approval is cleared when the token is transferred. Only a single account can be approved at a time, so approving the zero address clears previous approvals. Requirements: - The caller must own the token or be an approved operator. - `tokenId` must exist. Emits an {Approval} event."
      },
      "balanceOf(address)": {
        "details": "Returns the number of tokens in `owner`'s account."
      },
      "burnBatchByFacet(uint256[])": {
        "details": "Burn from another facet, allow skipping of ownership check as facets are trusted."
      },
      "burnByFacet(uint256)": {
        "details": "Burn from another facet, allow skipping of ownership check as facets are trusted."
      },
      "getApproved(uint256)": {
        "details": "Returns the account approved for `tokenId` token. Requirements: - `tokenId` must exist."
      },
      "isApprovedForAll(address,address)": {
        "details": "Returns if the `operator` is allowed to manage all of the assets of `owner`. See {setApprovalForAll}."
      },
      "lockByFacet(uint256)": {
        "details": "Locks `amount` of tokens of `account`, of token type `id`. Requirements: - the caller must be diamond itself (other facets)."
      },
      "locked(uint256)": {
        "details": "SBTs assigned to zero address are considered invalid, and queries about them do throw.",
        "params": {
          "tokenId": "The identifier for an SBT."
        }
      },
      "maxSupply()": {
        "details": "Maximum amount of tokens possible to exist."
      },
      "mintByFacet(address,uint256)": {
        "details": "Creates `amount` new tokens for `to`, of token type `id`. See {ERC721A-_mint}. Requirements: - the caller must be diamond itself (other facets)."
      },
      "ownerOf(uint256)": {
        "details": "Returns the owner of the `tokenId` token. Requirements: - `tokenId` must exist."
      },
      "safeTransferFrom(address,address,uint256)": {
        "details": "Equivalent to `safeTransferFrom(from, to, tokenId, '')`."
      },
      "safeTransferFrom(address,address,uint256,bytes)": {
        "details": "Safely transfers `tokenId` token from `from` to `to`, checking first that contract recipients are aware of the ERC721 protocol to prevent tokens from being forever locked. Requirements: - `from` cannot be the zero address. - `to` cannot be the zero address. - `tokenId` token must exist and be owned by `from`. - If the caller is not `from`, it must be have been allowed to move this token by either {approve} or {setApprovalForAll}. - If `to` refers to a smart contract, it must implement {IERC721Receiver-onERC721Received}, which is called upon a safe transfer. Emits a {Transfer} event."
      },
      "setApprovalForAll(address,bool)": {
        "details": "Approve or remove `operator` as an operator for the caller. Operators can call {transferFrom} or {safeTransferFrom} for any token owned by the caller. Requirements: - The `operator` cannot be the caller. Emits an {ApprovalForAll} event."
      },
      "totalSupply()": {
        "details": "Total amount of tokens that exist in the collection."
      },
      "transferFrom(address,address,uint256)": {
        "details": "Transfers `tokenId` from `from` to `to`. WARNING: Usage of this method is discouraged, use {safeTransferFrom} whenever possible. Requirements: - `from` cannot be the zero address. - `to` cannot be the zero address. - `tokenId` token must be owned by `from`. - If the caller is not `from`, it must be approved to move this token by either {approve} or {setApprovalForAll}. Emits a {Transfer} event."
      },
      "unlockByFacet(uint256)": {
        "details": "Un-locks `amount` of tokens of `account`, of token type `id`. Requirements: - the caller must be diamond itself (other facets)."
      }
    },
    "title": "ERC721 (A) - with meta-transactions",
    "version": 1
  },
  "userdoc": {
    "errors": {
      "ApprovalCallerNotOwnerNorApproved()": [
        {
          "notice": "The caller must own the token or be an approved operator."
        }
      ],
      "ApprovalQueryForNonexistentToken()": [
        {
          "notice": "The token does not exist."
        }
      ],
      "ApproveToCaller()": [
        {
          "notice": "The caller cannot approve to their own address."
        }
      ],
      "BalanceQueryForZeroAddress()": [
        {
          "notice": "Cannot query the balance for the zero address."
        }
      ],
      "ErrSenderIsNotSelf()": [
        {
          "notice": "The caller must be the current contract itself."
        }
      ],
      "MintERC2309QuantityExceedsLimit()": [
        {
          "notice": "The `quantity` minted with ERC2309 exceeds the safety limit."
        }
      ],
      "MintToZeroAddress()": [
        {
          "notice": "Cannot mint to the zero address."
        }
      ],
      "MintZeroQuantity()": [
        {
          "notice": "The quantity of tokens minted must be more than zero."
        }
      ],
      "OwnerQueryForNonexistentToken()": [
        {
          "notice": "The token does not exist."
        }
      ],
      "OwnershipNotInitializedForExtraData()": [
        {
          "notice": "The `extraData` cannot be set on an unintialized ownership slot."
        }
      ],
      "TransferCallerNotOwnerNorApproved()": [
        {
          "notice": "The caller must own the token or be an approved operator."
        }
      ],
      "TransferFromIncorrectOwner()": [
        {
          "notice": "The token must be owned by `from`."
        }
      ],
      "TransferToNonERC721ReceiverImplementer()": [
        {
          "notice": "Cannot safely transfer to a contract that does not implement the ERC721Receiver interface."
        }
      ],
      "TransferToZeroAddress()": [
        {
          "notice": "Cannot transfer to the zero address."
        }
      ],
      "URIQueryForNonexistentToken()": [
        {
          "notice": "The token does not exist."
        }
      ]
    },
    "events": {
      "Locked(uint256)": {
        "notice": "Emitted when the locking status is changed to locked."
      },
      "Unlocked(uint256)": {
        "notice": "Emitted when the locking status is changed to unlocked."
      }
    },
    "kind": "user",
    "methods": {
      "locked(uint256)": {
        "notice": "Returns the locking status of an Soulbound Token"
      }
    },
    "notice": "Azuki's implemntation of standard EIP-721 with ability to accept meta transactions (mainly transfer or burn methods).",
    "version": 1
  },
  "storageLayout": {
    "storage": [],
    "types": null
  }
}