{
  "address": "0xF8ABF0b720378bb25b3f73c01BDBd1A7EC558FB6",
  "abi": [
    {
      "anonymous": false,
      "inputs": [
        {
          "indexed": true,
          "internalType": "address",
          "name": "previousOwner",
          "type": "address"
        },
        {
          "indexed": true,
          "internalType": "address",
          "name": "newOwner",
          "type": "address"
        }
      ],
      "name": "OwnershipTransferred",
      "type": "event"
    },
    {
      "inputs": [],
      "name": "lockNameAndSymbol",
      "outputs": [],
      "stateMutability": "nonpayable",
      "type": "function"
    },
    {
      "inputs": [
        {
          "internalType": "string",
          "name": "name",
          "type": "string"
        }
      ],
      "name": "setName",
      "outputs": [],
      "stateMutability": "nonpayable",
      "type": "function"
    },
    {
      "inputs": [
        {
          "internalType": "string",
          "name": "symbol",
          "type": "string"
        }
      ],
      "name": "setSymbol",
      "outputs": [],
      "stateMutability": "nonpayable",
      "type": "function"
    }
  ],
  "transactionHash": "0x95c62b628d5b9e8d981e2df7b49e7db47fac4580b5c7691c8cb0edde37fa7bd4",
  "args": [],
  "numDeployments": 2,
  "solcInputHash": "0caef732459256ed443151237936b3f9",
  "bytecode": "0x608060405234801561001057600080fd5b506105d9806100206000396000f3fe608060405234801561001057600080fd5b50600436106100415760003560e01c80636338cb8a14610046578063b84c824614610050578063c47f002714610063575b600080fd5b61004e610076565b005b61004e61005e3660046103a9565b610134565b61004e6100713660046103a9565b6101c6565b7fc0ea367cb0174dd5521cd2372c76f8c13e6c1f832c71f1d6e0cbc185c9cc8ed45473ffffffffffffffffffffffffffffffffffffffff1633146101015760405162461bcd60e51b815260206004820152601d60248201527f4f776e61626c653a2073656e646572206d757374206265206f776e657200000060448201526064015b60405180910390fd5b6101327f70612f47e27b43eb7f87867b7b8f899a5e08503dcccf1bf322c9eef06483a1fe805460ff19166001179055565b565b7fc0ea367cb0174dd5521cd2372c76f8c13e6c1f832c71f1d6e0cbc185c9cc8ed45473ffffffffffffffffffffffffffffffffffffffff1633146101ba5760405162461bcd60e51b815260206004820152601d60248201527f4f776e61626c653a2073656e646572206d757374206265206f776e657200000060448201526064016100f8565b6101c381610255565b50565b7fc0ea367cb0174dd5521cd2372c76f8c13e6c1f832c71f1d6e0cbc185c9cc8ed45473ffffffffffffffffffffffffffffffffffffffff16331461024c5760405162461bcd60e51b815260206004820152601d60248201527f4f776e61626c653a2073656e646572206d757374206265206f776e657200000060448201526064016100f8565b6101c3816102f6565b7f70612f47e27b43eb7f87867b7b8f899a5e08503dcccf1bf322c9eef06483a1fe5460ff16156102c75760405162461bcd60e51b815260206004820152601a60248201527f4d657461646174613a2073796d626f6c206973206c6f636b656400000000000060448201526064016100f8565b7f70612f47e27b43eb7f87867b7b8f899a5e08503dcccf1bf322c9eef06483a1fd6102f282826104e3565b5050565b7f70612f47e27b43eb7f87867b7b8f899a5e08503dcccf1bf322c9eef06483a1fe5460ff16156103685760405162461bcd60e51b815260206004820152601860248201527f4d657461646174613a206e616d65206973206c6f636b6564000000000000000060448201526064016100f8565b7f70612f47e27b43eb7f87867b7b8f899a5e08503dcccf1bf322c9eef06483a1fc6102f282826104e3565b634e487b7160e01b600052604160045260246000fd5b6000602082840312156103bb57600080fd5b813567ffffffffffffffff808211156103d357600080fd5b818401915084601f8301126103e757600080fd5b8135818111156103f9576103f9610393565b604051601f8201601f19908116603f0116810190838211818310171561042157610421610393565b8160405282815287602084870101111561043a57600080fd5b826020860160208301376000928101602001929092525095945050505050565b600181811c9082168061046e57607f821691505b60208210810361048e57634e487b7160e01b600052602260045260246000fd5b50919050565b601f8211156104de57600081815260208120601f850160051c810160208610156104bb5750805b601f850160051c820191505b818110156104da578281556001016104c7565b5050505b505050565b815167ffffffffffffffff8111156104fd576104fd610393565b6105118161050b845461045a565b84610494565b602080601f831160018114610546576000841561052e5750858301515b600019600386901b1c1916600185901b1785556104da565b600085815260208120601f198616915b8281101561057557888601518255948401946001909101908401610556565b50858210156105935787850151600019600388901b60f8161c191681555b5050505050600190811b0190555056fea264697066735822122006b72727965fa4bb380cadcb1c33a4e828f6e17bda1eb1b8077478db2d4d457f64736f6c634300080f0033",
  "devdoc": {
    "custom:category": "Tokens",
    "custom:peer-dependencies": "IMetadata",
    "custom:provides-interfaces": "IMetadataAdmin",
    "custom:type": "eip-2535-facet",
    "kind": "dev",
    "methods": {},
    "title": "Metadata - Admin - Ownable",
    "version": 1
  },
  "userdoc": {
    "kind": "user",
    "methods": {},
    "notice": "Allows diamond owner to change name and symbol, or freeze them forever.",
    "version": 1
  },
  "storageLayout": {
    "storage": [],
    "types": null
  }
}