{
  "address": "0x6569cadd4b5EF142d4798Ef91aF60E2B5becB52b",
  "abi": [
    {
      "anonymous": false,
      "inputs": [
        {
          "indexed": true,
          "internalType": "bytes32",
          "name": "role",
          "type": "bytes32"
        },
        {
          "indexed": true,
          "internalType": "bytes32",
          "name": "previousAdminRole",
          "type": "bytes32"
        },
        {
          "indexed": true,
          "internalType": "bytes32",
          "name": "newAdminRole",
          "type": "bytes32"
        }
      ],
      "name": "RoleAdminChanged",
      "type": "event"
    },
    {
      "anonymous": false,
      "inputs": [
        {
          "indexed": true,
          "internalType": "bytes32",
          "name": "role",
          "type": "bytes32"
        },
        {
          "indexed": true,
          "internalType": "address",
          "name": "account",
          "type": "address"
        },
        {
          "indexed": true,
          "internalType": "address",
          "name": "sender",
          "type": "address"
        }
      ],
      "name": "RoleGranted",
      "type": "event"
    },
    {
      "anonymous": false,
      "inputs": [
        {
          "indexed": true,
          "internalType": "bytes32",
          "name": "role",
          "type": "bytes32"
        },
        {
          "indexed": true,
          "internalType": "address",
          "name": "account",
          "type": "address"
        },
        {
          "indexed": true,
          "internalType": "address",
          "name": "sender",
          "type": "address"
        }
      ],
      "name": "RoleRevoked",
      "type": "event"
    },
    {
      "inputs": [],
      "name": "DEFAULT_ADMIN_ROLE",
      "outputs": [
        {
          "internalType": "bytes32",
          "name": "",
          "type": "bytes32"
        }
      ],
      "stateMutability": "view",
      "type": "function"
    },
    {
      "inputs": [
        {
          "internalType": "bytes32",
          "name": "role",
          "type": "bytes32"
        }
      ],
      "name": "getRoleAdmin",
      "outputs": [
        {
          "internalType": "bytes32",
          "name": "",
          "type": "bytes32"
        }
      ],
      "stateMutability": "view",
      "type": "function"
    },
    {
      "inputs": [
        {
          "internalType": "bytes32",
          "name": "role",
          "type": "bytes32"
        },
        {
          "internalType": "address",
          "name": "account",
          "type": "address"
        }
      ],
      "name": "grantRole",
      "outputs": [],
      "stateMutability": "nonpayable",
      "type": "function"
    },
    {
      "inputs": [
        {
          "internalType": "bytes32",
          "name": "role",
          "type": "bytes32"
        },
        {
          "internalType": "address",
          "name": "account",
          "type": "address"
        }
      ],
      "name": "hasRole",
      "outputs": [
        {
          "internalType": "bool",
          "name": "",
          "type": "bool"
        }
      ],
      "stateMutability": "view",
      "type": "function"
    },
    {
      "inputs": [
        {
          "internalType": "bytes32",
          "name": "role",
          "type": "bytes32"
        },
        {
          "internalType": "address",
          "name": "account",
          "type": "address"
        }
      ],
      "name": "renounceRole",
      "outputs": [],
      "stateMutability": "nonpayable",
      "type": "function"
    },
    {
      "inputs": [
        {
          "internalType": "bytes32",
          "name": "role",
          "type": "bytes32"
        },
        {
          "internalType": "address",
          "name": "account",
          "type": "address"
        }
      ],
      "name": "revokeRole",
      "outputs": [],
      "stateMutability": "nonpayable",
      "type": "function"
    }
  ],
  "transactionHash": "0xa53325a6882f9d791e4f12612a89578f7d8ec671d18df715d44eb8a3441a9dd5",
  "args": [],
  "numDeployments": 1,
  "solcInputHash": "c4fe8eff10d3ecb34ecf7b1b5bda5a68",
  "bytecode": "0x608060405234801561001057600080fd5b5061090b806100206000396000f3fe608060405234801561001057600080fd5b50600436106100725760003560e01c806391d148541161005057806391d14854146100c5578063a217fddf146100e8578063d547741f146100f057600080fd5b8063248a9ca3146100775780632f2ff15d1461009d57806336568abe146100b2575b600080fd5b61008a61008536600461070c565b610103565b6040519081526020015b60405180910390f35b6100b06100ab366004610725565b61013b565b005b6100b06100c0366004610725565b610184565b6100d86100d3366004610725565b610192565b6040519015158152602001610094565b61008a600081565b6100b06100fe366004610725565b6101df565b60008181527f2e59e4c2e927cdddbb64e181e0668d9a0fa70dd88f94d999cd87d5496a20da6260205260408120600101545b92915050565b60008281527f2e59e4c2e927cdddbb64e181e0668d9a0fa70dd88f94d999cd87d5496a20da62602052604090206001015461017581610223565b61017f8383610230565b505050565b61018e82826102f3565b5050565b60008281527f2e59e4c2e927cdddbb64e181e0668d9a0fa70dd88f94d999cd87d5496a20da62602090815260408083206001600160a01b038516845290915281205460ff165b9392505050565b60008281527f2e59e4c2e927cdddbb64e181e0668d9a0fa70dd88f94d999cd87d5496a20da62602052604090206001015461021981610223565b61017f838361037c565b61022d813361043d565b50565b60008281527f2e59e4c2e927cdddbb64e181e0668d9a0fa70dd88f94d999cd87d5496a20da62602090815260408083206001600160a01b038516845290915290205460ff1661018e5760008281527f2e59e4c2e927cdddbb64e181e0668d9a0fa70dd88f94d999cd87d5496a20da62602090815260408083206001600160a01b0385168085529252808320805460ff1916600117905551339285917f2f8788117e7eff1d82e926ec794901d17c78024a50270940304540a733656f0d9190a45050565b6001600160a01b03811633146103765760405162461bcd60e51b815260206004820152602f60248201527f416363657373436f6e74726f6c3a2063616e206f6e6c792072656e6f756e636560448201527f20726f6c657320666f722073656c66000000000000000000000000000000000060648201526084015b60405180910390fd5b61018e82825b60008281527f2e59e4c2e927cdddbb64e181e0668d9a0fa70dd88f94d999cd87d5496a20da62602090815260408083206001600160a01b038516845290915290205460ff161561018e5760008281527f2e59e4c2e927cdddbb64e181e0668d9a0fa70dd88f94d999cd87d5496a20da62602090815260408083206001600160a01b0385168085529252808320805460ff1916905551339285917ff6391f5c32d9c69d2a47ea670b442974b53935d1edc7fd64eb21e047a839171b9190a45050565b60008281527f2e59e4c2e927cdddbb64e181e0668d9a0fa70dd88f94d999cd87d5496a20da62602090815260408083206001600160a01b038516845290915290205460ff1661018e5761048f816104d1565b61049a8360206104e3565b6040516020016104ab929190610791565b60408051601f198184030181529082905262461bcd60e51b825261036d91600401610812565b60606101356001600160a01b03831660145b606060006104f283600261085b565b6104fd90600261087a565b67ffffffffffffffff81111561051557610515610892565b6040519080825280601f01601f19166020018201604052801561053f576020820181803683370190505b5090507f300000000000000000000000000000000000000000000000000000000000000081600081518110610576576105766108a8565b60200101907effffffffffffffffffffffffffffffffffffffffffffffffffffffffffffff1916908160001a9053507f7800000000000000000000000000000000000000000000000000000000000000816001815181106105d9576105d96108a8565b60200101907effffffffffffffffffffffffffffffffffffffffffffffffffffffffffffff1916908160001a905350600061061584600261085b565b61062090600161087a565b90505b60018111156106bd577f303132333435363738396162636465660000000000000000000000000000000085600f1660108110610661576106616108a8565b1a60f81b828281518110610677576106776108a8565b60200101907effffffffffffffffffffffffffffffffffffffffffffffffffffffffffffff1916908160001a90535060049490941c936106b6816108be565b9050610623565b5083156101d85760405162461bcd60e51b815260206004820181905260248201527f537472696e67733a20686578206c656e67746820696e73756666696369656e74604482015260640161036d565b60006020828403121561071e57600080fd5b5035919050565b6000806040838503121561073857600080fd5b8235915060208301356001600160a01b038116811461075657600080fd5b809150509250929050565b60005b8381101561077c578181015183820152602001610764565b8381111561078b576000848401525b50505050565b7f416363657373436f6e74726f6c3a206163636f756e74200000000000000000008152600083516107c9816017850160208801610761565b7f206973206d697373696e6720726f6c65200000000000000000000000000000006017918401918201528351610806816028840160208801610761565b01602801949350505050565b6020815260008251806020840152610831816040850160208701610761565b601f01601f19169190910160400192915050565b634e487b7160e01b600052601160045260246000fd5b600081600019048311821515161561087557610875610845565b500290565b6000821982111561088d5761088d610845565b500190565b634e487b7160e01b600052604160045260246000fd5b634e487b7160e01b600052603260045260246000fd5b6000816108cd576108cd610845565b50600019019056fea264697066735822122016e6e15b24d45366fe792a080233b539878d07e29cd42f4beb06a5455dd8830164736f6c634300080f0033",
  "devdoc": {
    "custom:category": "Access",
    "custom:provides-interfaces": "IAccessControl",
    "custom:type": "eip-2535-facet",
    "kind": "dev",
    "methods": {
      "getRoleAdmin(bytes32)": {
        "details": "Returns the admin role that controls `role`. See {grantRole} and {revokeRole}. To change a role's admin, use {AccessControl-_setRoleAdmin}."
      },
      "grantRole(bytes32,address)": {
        "details": "Grants `role` to `account`. If `account` had not been already granted `role`, emits a {RoleGranted} event. Requirements: - the caller must have ``role``'s admin role."
      },
      "hasRole(bytes32,address)": {
        "details": "Returns `true` if `account` has been granted `role`."
      },
      "renounceRole(bytes32,address)": {
        "details": "Revokes `role` from the calling account. Roles are often managed via {grantRole} and {revokeRole}: this function's purpose is to provide a mechanism for accounts to lose their privileges if they are compromised (such as when a trusted device is misplaced). If the calling account had been granted `role`, emits a {RoleRevoked} event. Requirements: - the caller must be `account`."
      },
      "revokeRole(bytes32,address)": {
        "details": "Revokes `role` from `account`. If `account` had been granted `role`, emits a {RoleRevoked} event. Requirements: - the caller must have ``role``'s admin role."
      }
    },
    "title": "Roles",
    "version": 1
  },
  "userdoc": {
    "kind": "user",
    "methods": {},
    "notice": "Role-based access control for write functions based on OpenZeppelin's AccessControl",
    "version": 1
  },
  "storageLayout": {
    "storage": [],
    "types": null
  }
}