{
  "address": "0xE2cb3B6Ff2bcffCDDdDeca9FAff4d393f25ab5da",
  "abi": [
    {
      "inputs": [
        {
          "components": [
            {
              "internalType": "string",
              "name": "name",
              "type": "string"
            },
            {
              "internalType": "string",
              "name": "symbol",
              "type": "string"
            },
            {
              "internalType": "string",
              "name": "contractURI",
              "type": "string"
            },
            {
              "internalType": "string",
              "name": "placeholderURI",
              "type": "string"
            },
            {
              "internalType": "string",
              "name": "tokenURIPrefix",
              "type": "string"
            },
            {
              "internalType": "uint256",
              "name": "maxSupply",
              "type": "uint256"
            },
            {
              "internalType": "uint256",
              "name": "preSalePrice",
              "type": "uint256"
            },
            {
              "internalType": "uint256",
              "name": "preSaleMaxMintPerWallet",
              "type": "uint256"
            },
            {
              "internalType": "uint256",
              "name": "publicSalePrice",
              "type": "uint256"
            },
            {
              "internalType": "uint256",
              "name": "publicSaleMaxMintPerTx",
              "type": "uint256"
            },
            {
              "internalType": "address",
              "name": "defaultRoyaltyAddress",
              "type": "address"
            },
            {
              "internalType": "uint16",
              "name": "defaultRoyaltyBps",
              "type": "uint16"
            },
            {
              "internalType": "address",
              "name": "proceedsRecipient",
              "type": "address"
            },
            {
              "internalType": "address",
              "name": "trustedForwarder",
              "type": "address"
            }
          ],
          "internalType": "struct ERC721SimpleSalesCollection.Config",
          "name": "config",
          "type": "tuple"
        }
      ],
      "stateMutability": "nonpayable",
      "type": "constructor"
    },
    {
      "anonymous": false,
      "inputs": [
        {
          "indexed": true,
          "internalType": "address",
          "name": "owner",
          "type": "address"
        },
        {
          "indexed": true,
          "internalType": "address",
          "name": "approved",
          "type": "address"
        },
        {
          "indexed": true,
          "internalType": "uint256",
          "name": "tokenId",
          "type": "uint256"
        }
      ],
      "name": "Approval",
      "type": "event"
    },
    {
      "anonymous": false,
      "inputs": [
        {
          "indexed": true,
          "internalType": "address",
          "name": "owner",
          "type": "address"
        },
        {
          "indexed": true,
          "internalType": "address",
          "name": "operator",
          "type": "address"
        },
        {
          "indexed": false,
          "internalType": "bool",
          "name": "approved",
          "type": "bool"
        }
      ],
      "name": "ApprovalForAll",
      "type": "event"
    },
    {
      "anonymous": false,
      "inputs": [
        {
          "indexed": false,
          "internalType": "address",
          "name": "recipient",
          "type": "address"
        },
        {
          "indexed": false,
          "internalType": "uint16",
          "name": "bps",
          "type": "uint16"
        }
      ],
      "name": "DefaultRoyaltySet",
      "type": "event"
    },
    {
      "anonymous": false,
      "inputs": [
        {
          "indexed": false,
          "internalType": "uint8",
          "name": "version",
          "type": "uint8"
        }
      ],
      "name": "Initialized",
      "type": "event"
    },
    {
      "anonymous": false,
      "inputs": [
        {
          "indexed": true,
          "internalType": "address",
          "name": "previousOwner",
          "type": "address"
        },
        {
          "indexed": true,
          "internalType": "address",
          "name": "newOwner",
          "type": "address"
        }
      ],
      "name": "OwnershipTransferred",
      "type": "event"
    },
    {
      "anonymous": false,
      "inputs": [
        {
          "indexed": true,
          "internalType": "bytes32",
          "name": "role",
          "type": "bytes32"
        },
        {
          "indexed": true,
          "internalType": "bytes32",
          "name": "previousAdminRole",
          "type": "bytes32"
        },
        {
          "indexed": true,
          "internalType": "bytes32",
          "name": "newAdminRole",
          "type": "bytes32"
        }
      ],
      "name": "RoleAdminChanged",
      "type": "event"
    },
    {
      "anonymous": false,
      "inputs": [
        {
          "indexed": true,
          "internalType": "bytes32",
          "name": "role",
          "type": "bytes32"
        },
        {
          "indexed": true,
          "internalType": "address",
          "name": "account",
          "type": "address"
        },
        {
          "indexed": true,
          "internalType": "address",
          "name": "sender",
          "type": "address"
        }
      ],
      "name": "RoleGranted",
      "type": "event"
    },
    {
      "anonymous": false,
      "inputs": [
        {
          "indexed": true,
          "internalType": "bytes32",
          "name": "role",
          "type": "bytes32"
        },
        {
          "indexed": true,
          "internalType": "address",
          "name": "account",
          "type": "address"
        },
        {
          "indexed": true,
          "internalType": "address",
          "name": "sender",
          "type": "address"
        }
      ],
      "name": "RoleRevoked",
      "type": "event"
    },
    {
      "anonymous": false,
      "inputs": [
        {
          "indexed": false,
          "internalType": "uint256",
          "name": "tokenId",
          "type": "uint256"
        }
      ],
      "name": "TokenRoyaltyRemoved",
      "type": "event"
    },
    {
      "anonymous": false,
      "inputs": [
        {
          "indexed": false,
          "internalType": "uint256",
          "name": "tokenId",
          "type": "uint256"
        },
        {
          "indexed": false,
          "internalType": "address",
          "name": "recipient",
          "type": "address"
        },
        {
          "indexed": false,
          "internalType": "uint16",
          "name": "bps",
          "type": "uint16"
        }
      ],
      "name": "TokenRoyaltySet",
      "type": "event"
    },
    {
      "anonymous": false,
      "inputs": [
        {
          "indexed": true,
          "internalType": "address",
          "name": "from",
          "type": "address"
        },
        {
          "indexed": true,
          "internalType": "address",
          "name": "to",
          "type": "address"
        },
        {
          "indexed": true,
          "internalType": "uint256",
          "name": "tokenId",
          "type": "uint256"
        }
      ],
      "name": "Transfer",
      "type": "event"
    },
    {
      "anonymous": false,
      "inputs": [],
      "name": "WithdrawPowerRevoked",
      "type": "event"
    },
    {
      "anonymous": false,
      "inputs": [
        {
          "indexed": false,
          "internalType": "address[]",
          "name": "claimTokens",
          "type": "address[]"
        },
        {
          "indexed": false,
          "internalType": "uint256[]",
          "name": "amounts",
          "type": "uint256[]"
        }
      ],
      "name": "Withdrawn",
      "type": "event"
    },
    {
      "inputs": [],
      "name": "DEFAULT_ADMIN_ROLE",
      "outputs": [
        {
          "internalType": "bytes32",
          "name": "",
          "type": "bytes32"
        }
      ],
      "stateMutability": "view",
      "type": "function"
    },
    {
      "inputs": [],
      "name": "LOCKER_ROLE",
      "outputs": [
        {
          "internalType": "bytes32",
          "name": "",
          "type": "bytes32"
        }
      ],
      "stateMutability": "view",
      "type": "function"
    },
    {
      "inputs": [],
      "name": "MINTER_ROLE",
      "outputs": [
        {
          "internalType": "bytes32",
          "name": "",
          "type": "bytes32"
        }
      ],
      "stateMutability": "view",
      "type": "function"
    },
    {
      "inputs": [],
      "name": "_trustedForwarder",
      "outputs": [
        {
          "internalType": "address",
          "name": "",
          "type": "address"
        }
      ],
      "stateMutability": "view",
      "type": "function"
    },
    {
      "inputs": [
        {
          "internalType": "address",
          "name": "to",
          "type": "address"
        },
        {
          "internalType": "uint256",
          "name": "tokenId",
          "type": "uint256"
        }
      ],
      "name": "approve",
      "outputs": [],
      "stateMutability": "nonpayable",
      "type": "function"
    },
    {
      "inputs": [
        {
          "internalType": "address",
          "name": "owner",
          "type": "address"
        }
      ],
      "name": "balanceOf",
      "outputs": [
        {
          "internalType": "uint256",
          "name": "",
          "type": "uint256"
        }
      ],
      "stateMutability": "view",
      "type": "function"
    },
    {
      "inputs": [],
      "name": "contractURI",
      "outputs": [
        {
          "internalType": "string",
          "name": "",
          "type": "string"
        }
      ],
      "stateMutability": "view",
      "type": "function"
    },
    {
      "inputs": [],
      "name": "defaultRoyalty",
      "outputs": [
        {
          "internalType": "address",
          "name": "recipient",
          "type": "address"
        },
        {
          "internalType": "uint16",
          "name": "bps",
          "type": "uint16"
        }
      ],
      "stateMutability": "view",
      "type": "function"
    },
    {
      "inputs": [
        {
          "internalType": "uint256[]",
          "name": "ticketTokenIds",
          "type": "uint256[]"
        }
      ],
      "name": "filterUnlocked",
      "outputs": [
        {
          "internalType": "uint256[]",
          "name": "",
          "type": "uint256[]"
        }
      ],
      "stateMutability": "view",
      "type": "function"
    },
    {
      "inputs": [],
      "name": "freezeMaxSupply",
      "outputs": [],
      "stateMutability": "nonpayable",
      "type": "function"
    },
    {
      "inputs": [],
      "name": "freezeTokenURI",
      "outputs": [],
      "stateMutability": "nonpayable",
      "type": "function"
    },
    {
      "inputs": [
        {
          "internalType": "uint256",
          "name": "tokenId",
          "type": "uint256"
        }
      ],
      "name": "getApproved",
      "outputs": [
        {
          "internalType": "address",
          "name": "",
          "type": "address"
        }
      ],
      "stateMutability": "view",
      "type": "function"
    },
    {
      "inputs": [],
      "name": "getInfo",
      "outputs": [
        {
          "internalType": "uint256",
          "name": "_maxSupply",
          "type": "uint256"
        },
        {
          "internalType": "uint256",
          "name": "_totalSupply",
          "type": "uint256"
        },
        {
          "internalType": "uint256",
          "name": "_senderBalance",
          "type": "uint256"
        },
        {
          "internalType": "uint256",
          "name": "_preSalePrice",
          "type": "uint256"
        },
        {
          "internalType": "uint256",
          "name": "_preSaleMaxMintPerWallet",
          "type": "uint256"
        },
        {
          "internalType": "uint256",
          "name": "_preSaleAlreadyClaimed",
          "type": "uint256"
        },
        {
          "internalType": "bool",
          "name": "_preSaleActive",
          "type": "bool"
        },
        {
          "internalType": "uint256",
          "name": "_publicSalePrice",
          "type": "uint256"
        },
        {
          "internalType": "uint256",
          "name": "_publicSaleMaxMintPerTx",
          "type": "uint256"
        },
        {
          "internalType": "bool",
          "name": "_publicSaleActive",
          "type": "bool"
        }
      ],
      "stateMutability": "view",
      "type": "function"
    },
    {
      "inputs": [
        {
          "internalType": "uint256",
          "name": "id",
          "type": "uint256"
        }
      ],
      "name": "getRaribleV2Royalties",
      "outputs": [
        {
          "components": [
            {
              "internalType": "address payable",
              "name": "account",
              "type": "address"
            },
            {
              "internalType": "uint96",
              "name": "value",
              "type": "uint96"
            }
          ],
          "internalType": "struct LibPart.Part[]",
          "name": "result",
          "type": "tuple[]"
        }
      ],
      "stateMutability": "view",
      "type": "function"
    },
    {
      "inputs": [
        {
          "internalType": "bytes32",
          "name": "role",
          "type": "bytes32"
        }
      ],
      "name": "getRoleAdmin",
      "outputs": [
        {
          "internalType": "bytes32",
          "name": "",
          "type": "bytes32"
        }
      ],
      "stateMutability": "view",
      "type": "function"
    },
    {
      "inputs": [],
      "name": "getTokenRoyaltiesCount",
      "outputs": [
        {
          "internalType": "uint256",
          "name": "",
          "type": "uint256"
        }
      ],
      "stateMutability": "view",
      "type": "function"
    },
    {
      "inputs": [
        {
          "internalType": "uint256",
          "name": "index",
          "type": "uint256"
        }
      ],
      "name": "getTokenRoyaltyByIndex",
      "outputs": [
        {
          "components": [
            {
              "internalType": "uint256",
              "name": "tokenId",
              "type": "uint256"
            },
            {
              "internalType": "address",
              "name": "recipient",
              "type": "address"
            },
            {
              "internalType": "uint16",
              "name": "bps",
              "type": "uint16"
            }
          ],
          "internalType": "struct IEIP2981RoyaltyOverride.TokenRoyaltyConfig",
          "name": "",
          "type": "tuple"
        }
      ],
      "stateMutability": "view",
      "type": "function"
    },
    {
      "inputs": [
        {
          "internalType": "bytes32",
          "name": "role",
          "type": "bytes32"
        },
        {
          "internalType": "address",
          "name": "account",
          "type": "address"
        }
      ],
      "name": "grantRole",
      "outputs": [],
      "stateMutability": "nonpayable",
      "type": "function"
    },
    {
      "inputs": [
        {
          "internalType": "bytes32",
          "name": "role",
          "type": "bytes32"
        },
        {
          "internalType": "address",
          "name": "account",
          "type": "address"
        }
      ],
      "name": "hasRole",
      "outputs": [
        {
          "internalType": "bool",
          "name": "",
          "type": "bool"
        }
      ],
      "stateMutability": "view",
      "type": "function"
    },
    {
      "inputs": [],
      "name": "hasRoleBasedLockableExtension",
      "outputs": [
        {
          "internalType": "bool",
          "name": "",
          "type": "bool"
        }
      ],
      "stateMutability": "view",
      "type": "function"
    },
    {
      "inputs": [
        {
          "components": [
            {
              "internalType": "string",
              "name": "name",
              "type": "string"
            },
            {
              "internalType": "string",
              "name": "symbol",
              "type": "string"
            },
            {
              "internalType": "string",
              "name": "contractURI",
              "type": "string"
            },
            {
              "internalType": "string",
              "name": "placeholderURI",
              "type": "string"
            },
            {
              "internalType": "string",
              "name": "tokenURIPrefix",
              "type": "string"
            },
            {
              "internalType": "uint256",
              "name": "maxSupply",
              "type": "uint256"
            },
            {
              "internalType": "uint256",
              "name": "preSalePrice",
              "type": "uint256"
            },
            {
              "internalType": "uint256",
              "name": "preSaleMaxMintPerWallet",
              "type": "uint256"
            },
            {
              "internalType": "uint256",
              "name": "publicSalePrice",
              "type": "uint256"
            },
            {
              "internalType": "uint256",
              "name": "publicSaleMaxMintPerTx",
              "type": "uint256"
            },
            {
              "internalType": "address",
              "name": "defaultRoyaltyAddress",
              "type": "address"
            },
            {
              "internalType": "uint16",
              "name": "defaultRoyaltyBps",
              "type": "uint16"
            },
            {
              "internalType": "address",
              "name": "proceedsRecipient",
              "type": "address"
            },
            {
              "internalType": "address",
              "name": "trustedForwarder",
              "type": "address"
            }
          ],
          "internalType": "struct ERC721SimpleSalesCollection.Config",
          "name": "config",
          "type": "tuple"
        },
        {
          "internalType": "address",
          "name": "deployer",
          "type": "address"
        }
      ],
      "name": "initialize",
      "outputs": [],
      "stateMutability": "nonpayable",
      "type": "function"
    },
    {
      "inputs": [
        {
          "internalType": "address",
          "name": "owner",
          "type": "address"
        },
        {
          "internalType": "address",
          "name": "operator",
          "type": "address"
        }
      ],
      "name": "isApprovedForAll",
      "outputs": [
        {
          "internalType": "bool",
          "name": "",
          "type": "bool"
        }
      ],
      "stateMutability": "view",
      "type": "function"
    },
    {
      "inputs": [
        {
          "internalType": "address",
          "name": "forwarder",
          "type": "address"
        }
      ],
      "name": "isTrustedForwarder",
      "outputs": [
        {
          "internalType": "bool",
          "name": "",
          "type": "bool"
        }
      ],
      "stateMutability": "view",
      "type": "function"
    },
    {
      "inputs": [
        {
          "internalType": "uint256[]",
          "name": "tokenIds",
          "type": "uint256[]"
        }
      ],
      "name": "lock",
      "outputs": [],
      "stateMutability": "nonpayable",
      "type": "function"
    },
    {
      "inputs": [
        {
          "internalType": "uint256",
          "name": "tokenId",
          "type": "uint256"
        }
      ],
      "name": "lock",
      "outputs": [],
      "stateMutability": "nonpayable",
      "type": "function"
    },
    {
      "inputs": [],
      "name": "lockWithdrawMode",
      "outputs": [],
      "stateMutability": "nonpayable",
      "type": "function"
    },
    {
      "inputs": [],
      "name": "lockWithdrawRecipient",
      "outputs": [],
      "stateMutability": "nonpayable",
      "type": "function"
    },
    {
      "inputs": [
        {
          "internalType": "uint256",
          "name": "tokenId",
          "type": "uint256"
        }
      ],
      "name": "locked",
      "outputs": [
        {
          "internalType": "bool",
          "name": "",
          "type": "bool"
        }
      ],
      "stateMutability": "view",
      "type": "function"
    },
    {
      "inputs": [],
      "name": "maxSupply",
      "outputs": [
        {
          "internalType": "uint256",
          "name": "",
          "type": "uint256"
        }
      ],
      "stateMutability": "view",
      "type": "function"
    },
    {
      "inputs": [],
      "name": "maxSupplyFrozen",
      "outputs": [
        {
          "internalType": "bool",
          "name": "",
          "type": "bool"
        }
      ],
      "stateMutability": "view",
      "type": "function"
    },
    {
      "inputs": [
        {
          "internalType": "address",
          "name": "to",
          "type": "address"
        },
        {
          "internalType": "uint256",
          "name": "count",
          "type": "uint256"
        }
      ],
      "name": "mintByOwner",
      "outputs": [],
      "stateMutability": "nonpayable",
      "type": "function"
    },
    {
      "inputs": [
        {
          "internalType": "address",
          "name": "to",
          "type": "address"
        },
        {
          "internalType": "uint256",
          "name": "count",
          "type": "uint256"
        }
      ],
      "name": "mintByRole",
      "outputs": [],
      "stateMutability": "nonpayable",
      "type": "function"
    },
    {
      "inputs": [
        {
          "internalType": "uint256",
          "name": "count",
          "type": "uint256"
        },
        {
          "internalType": "bytes32[]",
          "name": "proof",
          "type": "bytes32[]"
        }
      ],
      "name": "mintPreSale",
      "outputs": [],
      "stateMutability": "payable",
      "type": "function"
    },
    {
      "inputs": [
        {
          "internalType": "address",
          "name": "to",
          "type": "address"
        },
        {
          "internalType": "uint256",
          "name": "count",
          "type": "uint256"
        }
      ],
      "name": "mintPublicSale",
      "outputs": [],
      "stateMutability": "payable",
      "type": "function"
    },
    {
      "inputs": [],
      "name": "name",
      "outputs": [
        {
          "internalType": "string",
          "name": "",
          "type": "string"
        }
      ],
      "stateMutability": "view",
      "type": "function"
    },
    {
      "inputs": [
        {
          "internalType": "address",
          "name": "minter",
          "type": "address"
        },
        {
          "internalType": "bytes32[]",
          "name": "proof",
          "type": "bytes32[]"
        }
      ],
      "name": "onPreSaleAllowList",
      "outputs": [
        {
          "internalType": "bool",
          "name": "",
          "type": "bool"
        }
      ],
      "stateMutability": "view",
      "type": "function"
    },
    {
      "inputs": [],
      "name": "owner",
      "outputs": [
        {
          "internalType": "address",
          "name": "",
          "type": "address"
        }
      ],
      "stateMutability": "view",
      "type": "function"
    },
    {
      "inputs": [
        {
          "internalType": "uint256",
          "name": "tokenId",
          "type": "uint256"
        }
      ],
      "name": "ownerOf",
      "outputs": [
        {
          "internalType": "address",
          "name": "",
          "type": "address"
        }
      ],
      "stateMutability": "view",
      "type": "function"
    },
    {
      "inputs": [],
      "name": "placeholderURI",
      "outputs": [
        {
          "internalType": "string",
          "name": "",
          "type": "string"
        }
      ],
      "stateMutability": "view",
      "type": "function"
    },
    {
      "inputs": [],
      "name": "preSaleAllowlistMerkleRoot",
      "outputs": [
        {
          "internalType": "bytes32",
          "name": "",
          "type": "bytes32"
        }
      ],
      "stateMutability": "view",
      "type": "function"
    },
    {
      "inputs": [],
      "name": "preSaleMaxMintPerWallet",
      "outputs": [
        {
          "internalType": "uint256",
          "name": "",
          "type": "uint256"
        }
      ],
      "stateMutability": "view",
      "type": "function"
    },
    {
      "inputs": [],
      "name": "preSalePrice",
      "outputs": [
        {
          "internalType": "uint256",
          "name": "",
          "type": "uint256"
        }
      ],
      "stateMutability": "view",
      "type": "function"
    },
    {
      "inputs": [],
      "name": "preSaleStatus",
      "outputs": [
        {
          "internalType": "bool",
          "name": "",
          "type": "bool"
        }
      ],
      "stateMutability": "view",
      "type": "function"
    },
    {
      "inputs": [],
      "name": "publicSaleMaxMintPerTx",
      "outputs": [
        {
          "internalType": "uint256",
          "name": "",
          "type": "uint256"
        }
      ],
      "stateMutability": "view",
      "type": "function"
    },
    {
      "inputs": [],
      "name": "publicSalePrice",
      "outputs": [
        {
          "internalType": "uint256",
          "name": "",
          "type": "uint256"
        }
      ],
      "stateMutability": "view",
      "type": "function"
    },
    {
      "inputs": [],
      "name": "publicSaleStatus",
      "outputs": [
        {
          "internalType": "bool",
          "name": "",
          "type": "bool"
        }
      ],
      "stateMutability": "view",
      "type": "function"
    },
    {
      "inputs": [],
      "name": "renounceOwnership",
      "outputs": [],
      "stateMutability": "nonpayable",
      "type": "function"
    },
    {
      "inputs": [
        {
          "internalType": "bytes32",
          "name": "role",
          "type": "bytes32"
        },
        {
          "internalType": "address",
          "name": "account",
          "type": "address"
        }
      ],
      "name": "renounceRole",
      "outputs": [],
      "stateMutability": "nonpayable",
      "type": "function"
    },
    {
      "inputs": [
        {
          "internalType": "bytes32",
          "name": "role",
          "type": "bytes32"
        },
        {
          "internalType": "address",
          "name": "account",
          "type": "address"
        }
      ],
      "name": "revokeRole",
      "outputs": [],
      "stateMutability": "nonpayable",
      "type": "function"
    },
    {
      "inputs": [],
      "name": "revokeWithdrawPower",
      "outputs": [],
      "stateMutability": "nonpayable",
      "type": "function"
    },
    {
      "inputs": [
        {
          "internalType": "uint256",
          "name": "tokenId",
          "type": "uint256"
        },
        {
          "internalType": "uint256",
          "name": "value",
          "type": "uint256"
        }
      ],
      "name": "royaltyInfo",
      "outputs": [
        {
          "internalType": "address",
          "name": "",
          "type": "address"
        },
        {
          "internalType": "uint256",
          "name": "",
          "type": "uint256"
        }
      ],
      "stateMutability": "view",
      "type": "function"
    },
    {
      "inputs": [
        {
          "internalType": "address",
          "name": "from",
          "type": "address"
        },
        {
          "internalType": "address",
          "name": "to",
          "type": "address"
        },
        {
          "internalType": "uint256",
          "name": "tokenId",
          "type": "uint256"
        }
      ],
      "name": "safeTransferFrom",
      "outputs": [],
      "stateMutability": "nonpayable",
      "type": "function"
    },
    {
      "inputs": [
        {
          "internalType": "address",
          "name": "from",
          "type": "address"
        },
        {
          "internalType": "address",
          "name": "to",
          "type": "address"
        },
        {
          "internalType": "uint256",
          "name": "tokenId",
          "type": "uint256"
        },
        {
          "internalType": "bytes",
          "name": "_data",
          "type": "bytes"
        }
      ],
      "name": "safeTransferFrom",
      "outputs": [],
      "stateMutability": "nonpayable",
      "type": "function"
    },
    {
      "inputs": [
        {
          "internalType": "bytes32",
          "name": "newRoot",
          "type": "bytes32"
        }
      ],
      "name": "setAllowlistMerkleRoot",
      "outputs": [],
      "stateMutability": "nonpayable",
      "type": "function"
    },
    {
      "inputs": [
        {
          "internalType": "address",
          "name": "operator",
          "type": "address"
        },
        {
          "internalType": "bool",
          "name": "approved",
          "type": "bool"
        }
      ],
      "name": "setApprovalForAll",
      "outputs": [],
      "stateMutability": "nonpayable",
      "type": "function"
    },
    {
      "inputs": [
        {
          "internalType": "string",
          "name": "newValue",
          "type": "string"
        }
      ],
      "name": "setContractURI",
      "outputs": [],
      "stateMutability": "nonpayable",
      "type": "function"
    },
    {
      "inputs": [
        {
          "components": [
            {
              "internalType": "address",
              "name": "recipient",
              "type": "address"
            },
            {
              "internalType": "uint16",
              "name": "bps",
              "type": "uint16"
            }
          ],
          "internalType": "struct IEIP2981RoyaltyOverride.TokenRoyalty",
          "name": "royalty",
          "type": "tuple"
        }
      ],
      "name": "setDefaultRoyalty",
      "outputs": [],
      "stateMutability": "nonpayable",
      "type": "function"
    },
    {
      "inputs": [
        {
          "internalType": "uint256",
          "name": "newValue",
          "type": "uint256"
        }
      ],
      "name": "setMaxSupply",
      "outputs": [],
      "stateMutability": "nonpayable",
      "type": "function"
    },
    {
      "inputs": [
        {
          "internalType": "string",
          "name": "newValue",
          "type": "string"
        }
      ],
      "name": "setPlaceholderURI",
      "outputs": [],
      "stateMutability": "nonpayable",
      "type": "function"
    },
    {
      "inputs": [
        {
          "internalType": "uint256",
          "name": "newValue",
          "type": "uint256"
        }
      ],
      "name": "setPreSaleMaxMintPerWallet",
      "outputs": [],
      "stateMutability": "nonpayable",
      "type": "function"
    },
    {
      "inputs": [
        {
          "internalType": "uint256",
          "name": "newValue",
          "type": "uint256"
        }
      ],
      "name": "setPreSalePrice",
      "outputs": [],
      "stateMutability": "nonpayable",
      "type": "function"
    },
    {
      "inputs": [
        {
          "internalType": "uint256",
          "name": "newValue",
          "type": "uint256"
        }
      ],
      "name": "setPublicSaleMaxMintPerTx",
      "outputs": [],
      "stateMutability": "nonpayable",
      "type": "function"
    },
    {
      "inputs": [
        {
          "internalType": "uint256",
          "name": "newValue",
          "type": "uint256"
        }
      ],
      "name": "setPublicSalePrice",
      "outputs": [],
      "stateMutability": "nonpayable",
      "type": "function"
    },
    {
      "inputs": [
        {
          "components": [
            {
              "internalType": "uint256",
              "name": "tokenId",
              "type": "uint256"
            },
            {
              "internalType": "address",
              "name": "recipient",
              "type": "address"
            },
            {
              "internalType": "uint16",
              "name": "bps",
              "type": "uint16"
            }
          ],
          "internalType": "struct IEIP2981RoyaltyOverride.TokenRoyaltyConfig[]",
          "name": "royaltyConfigs",
          "type": "tuple[]"
        }
      ],
      "name": "setTokenRoyalties",
      "outputs": [],
      "stateMutability": "nonpayable",
      "type": "function"
    },
    {
      "inputs": [
        {
          "internalType": "string",
          "name": "newValue",
          "type": "string"
        }
      ],
      "name": "setTokenURIPrefix",
      "outputs": [],
      "stateMutability": "nonpayable",
      "type": "function"
    },
    {
      "inputs": [
        {
          "internalType": "string",
          "name": "newValue",
          "type": "string"
        }
      ],
      "name": "setTokenURISuffix",
      "outputs": [],
      "stateMutability": "nonpayable",
      "type": "function"
    },
    {
      "inputs": [
        {
          "internalType": "address",
          "name": "trustedForwarder",
          "type": "address"
        }
      ],
      "name": "setTrustedForwarder",
      "outputs": [],
      "stateMutability": "nonpayable",
      "type": "function"
    },
    {
      "inputs": [
        {
          "internalType": "enum WithdrawMode",
          "name": "_withdrawMode",
          "type": "uint8"
        }
      ],
      "name": "setWithdrawMode",
      "outputs": [],
      "stateMutability": "nonpayable",
      "type": "function"
    },
    {
      "inputs": [
        {
          "internalType": "address",
          "name": "_withdrawRecipient",
          "type": "address"
        }
      ],
      "name": "setWithdrawRecipient",
      "outputs": [],
      "stateMutability": "nonpayable",
      "type": "function"
    },
    {
      "inputs": [
        {
          "internalType": "bytes4",
          "name": "interfaceId",
          "type": "bytes4"
        }
      ],
      "name": "supportsInterface",
      "outputs": [
        {
          "internalType": "bool",
          "name": "",
          "type": "bool"
        }
      ],
      "stateMutability": "view",
      "type": "function"
    },
    {
      "inputs": [],
      "name": "symbol",
      "outputs": [
        {
          "internalType": "string",
          "name": "",
          "type": "string"
        }
      ],
      "stateMutability": "view",
      "type": "function"
    },
    {
      "inputs": [
        {
          "internalType": "bool",
          "name": "isActive",
          "type": "bool"
        }
      ],
      "name": "togglePreSaleStatus",
      "outputs": [],
      "stateMutability": "nonpayable",
      "type": "function"
    },
    {
      "inputs": [
        {
          "internalType": "bool",
          "name": "isActive",
          "type": "bool"
        }
      ],
      "name": "togglePublicSaleStatus",
      "outputs": [],
      "stateMutability": "nonpayable",
      "type": "function"
    },
    {
      "inputs": [
        {
          "internalType": "uint256",
          "name": "_tokenId",
          "type": "uint256"
        }
      ],
      "name": "tokenURI",
      "outputs": [
        {
          "internalType": "string",
          "name": "",
          "type": "string"
        }
      ],
      "stateMutability": "view",
      "type": "function"
    },
    {
      "inputs": [],
      "name": "tokenURIFrozen",
      "outputs": [
        {
          "internalType": "bool",
          "name": "",
          "type": "bool"
        }
      ],
      "stateMutability": "view",
      "type": "function"
    },
    {
      "inputs": [],
      "name": "tokenURIPrefix",
      "outputs": [
        {
          "internalType": "string",
          "name": "",
          "type": "string"
        }
      ],
      "stateMutability": "view",
      "type": "function"
    },
    {
      "inputs": [],
      "name": "tokenURISuffix",
      "outputs": [
        {
          "internalType": "string",
          "name": "",
          "type": "string"
        }
      ],
      "stateMutability": "view",
      "type": "function"
    },
    {
      "inputs": [],
      "name": "totalSupply",
      "outputs": [
        {
          "internalType": "uint256",
          "name": "",
          "type": "uint256"
        }
      ],
      "stateMutability": "view",
      "type": "function"
    },
    {
      "inputs": [
        {
          "internalType": "address",
          "name": "from",
          "type": "address"
        },
        {
          "internalType": "address",
          "name": "to",
          "type": "address"
        },
        {
          "internalType": "uint256",
          "name": "tokenId",
          "type": "uint256"
        }
      ],
      "name": "transferFrom",
      "outputs": [],
      "stateMutability": "nonpayable",
      "type": "function"
    },
    {
      "inputs": [
        {
          "internalType": "address",
          "name": "from",
          "type": "address"
        },
        {
          "internalType": "address",
          "name": "to",
          "type": "address"
        },
        {
          "internalType": "uint256[]",
          "name": "tokenIds",
          "type": "uint256[]"
        }
      ],
      "name": "transferFromBulk",
      "outputs": [],
      "stateMutability": "nonpayable",
      "type": "function"
    },
    {
      "inputs": [
        {
          "internalType": "address[]",
          "name": "from",
          "type": "address[]"
        },
        {
          "internalType": "address[]",
          "name": "to",
          "type": "address[]"
        },
        {
          "internalType": "uint256[]",
          "name": "tokenIds",
          "type": "uint256[]"
        }
      ],
      "name": "transferFromBulk",
      "outputs": [],
      "stateMutability": "nonpayable",
      "type": "function"
    },
    {
      "inputs": [
        {
          "internalType": "address",
          "name": "newOwner",
          "type": "address"
        }
      ],
      "name": "transferOwnership",
      "outputs": [],
      "stateMutability": "nonpayable",
      "type": "function"
    },
    {
      "inputs": [
        {
          "internalType": "uint256[]",
          "name": "tokenIds",
          "type": "uint256[]"
        }
      ],
      "name": "unlock",
      "outputs": [],
      "stateMutability": "nonpayable",
      "type": "function"
    },
    {
      "inputs": [
        {
          "internalType": "uint256",
          "name": "tokenId",
          "type": "uint256"
        }
      ],
      "name": "unlock",
      "outputs": [],
      "stateMutability": "nonpayable",
      "type": "function"
    },
    {
      "inputs": [
        {
          "internalType": "address[]",
          "name": "claimTokens",
          "type": "address[]"
        },
        {
          "internalType": "uint256[]",
          "name": "amounts",
          "type": "uint256[]"
        }
      ],
      "name": "withdraw",
      "outputs": [],
      "stateMutability": "nonpayable",
      "type": "function"
    },
    {
      "inputs": [],
      "name": "withdrawMode",
      "outputs": [
        {
          "internalType": "enum WithdrawMode",
          "name": "",
          "type": "uint8"
        }
      ],
      "stateMutability": "view",
      "type": "function"
    },
    {
      "inputs": [],
      "name": "withdrawModeLocked",
      "outputs": [
        {
          "internalType": "bool",
          "name": "",
          "type": "bool"
        }
      ],
      "stateMutability": "view",
      "type": "function"
    },
    {
      "inputs": [],
      "name": "withdrawPowerRevoked",
      "outputs": [
        {
          "internalType": "bool",
          "name": "",
          "type": "bool"
        }
      ],
      "stateMutability": "view",
      "type": "function"
    },
    {
      "inputs": [],
      "name": "withdrawRecipient",
      "outputs": [
        {
          "internalType": "address",
          "name": "",
          "type": "address"
        }
      ],
      "stateMutability": "view",
      "type": "function"
    },
    {
      "inputs": [],
      "name": "withdrawRecipientLocked",
      "outputs": [
        {
          "internalType": "bool",
          "name": "",
          "type": "bool"
        }
      ],
      "stateMutability": "view",
      "type": "function"
    }
  ],
  "transactionHash": "0x4c95b838cad8fa25c4e502d45648e63f1649712547e1d0e03c601b746bc2a819",
  "args": [
    {
      "name": "Collection",
      "symbol": "COL",
      "contractURI": "ipfs://contractURI",
      "placeholderURI": "ipfs://placeholderURI",
      "tokenURIPrefix": "ipfs://tokenURIPrefix/",
      "maxSupply": 0,
      "preSalePrice": 0,
      "preSaleMaxMintPerWallet": 0,
      "publicSalePrice": 0,
      "publicSaleMaxMintPerTx": 10,
      "defaultRoyaltyAddress": "0x0000000000000000000000000000000000000000",
      "defaultRoyaltyBps": 0,
      "proceedsRecipient": "0x0000000000000000000000000000000000000000",
      "trustedForwarder": "0x0000000000000000000000000000000000000000"
    }
  ],
  "numDeployments": 2,
  "solcInputHash": "0840fbb3ca279a9002b28a401248e439",
  "bytecode": "0x608060405260006012553480156200001657600080fd5b5060405162006e6d38038062006e6d833981016040819052620000399162000e7e565b80516020820151620000546200004e6200009a565b620000b6565b81516200006990600390602085019062000ca3565b5080516200007f90600490602084019062000ca3565b505060016013555062000093813362000111565b5062001109565b6000620000b16200027e60201b62002e361760201c565b905090565b600080546001600160a01b038381166201000081810262010000600160b01b0319851617855560405193049190911692909183917f8be0079c531659141344cd1fd0a4f28419497f9722a3daafe3b4186f6b6457e091a35050565b60006200011f6001620002b7565b9050801562000138576000805461ff0019166101001790555b6200014560008362000369565b6200015082620000b6565b6101808301516200016390600262000379565b8251602084015160408501516200017c929190620003af565b6200019683606001518460800151620003e660201b60201c565b60a0830151620001a6906200041c565b620001b062000454565b620001bb826200048a565b620001c5620004bf565b620001df8360c001518460e00151620004f360201b60201c565b620001fb8361010001518461012001516200053a60201b60201c565b620002178361014001518461016001516200057060201b60201c565b6101a08301516200022890620005a6565b62000232620005db565b801562000279576000805461ff0019169055604051600181527f7f26b83ff96e1f2b6a682f133852f6798a09c465da95921460cefb38474024989060200160405180910390a15b505050565b6022546000906001600160a01b0316331415620002a2575060131936013560601c90565b620000b16200060f60201b62002e581760201c565b60008054610100900460ff161562000320578160ff166001148015620002f05750620002ee306200061360201b62002e5c1760201c565b155b620003185760405162461bcd60e51b81526004016200030f906200101d565b60405180910390fd5b506000919050565b60005460ff8084169116106200034a5760405162461bcd60e51b81526004016200030f906200101d565b506000805460ff191660ff92909216919091179055600190565b919050565b62000375828262000622565b5050565b600054610100900460ff16620003a35760405162461bcd60e51b81526004016200030f906200106b565b620003758282620006c8565b600054610100900460ff16620003d95760405162461bcd60e51b81526004016200030f906200106b565b6200027983838362000754565b600054610100900460ff16620004105760405162461bcd60e51b81526004016200030f906200106b565b620003758282620007f6565b600054610100900460ff16620004465760405162461bcd60e51b81526004016200030f906200106b565b62000451816200089f565b50565b600054610100900460ff166200047e5760405162461bcd60e51b81526004016200030f906200106b565b62000488620008f2565b565b600054610100900460ff16620004b45760405162461bcd60e51b81526004016200030f906200106b565b62000451816200092e565b600054610100900460ff16620004e95760405162461bcd60e51b81526004016200030f906200106b565b6200048862000996565b600054610100900460ff166200051d5760405162461bcd60e51b81526004016200030f906200106b565b6200052f63209680f760e11b620009cd565b601491909155601555565b600054610100900460ff16620005645760405162461bcd60e51b81526004016200030f906200106b565b62000375828262000a51565b600054610100900460ff166200059a5760405162461bcd60e51b81526004016200030f906200106b565b62000375828262000a98565b600054610100900460ff16620005d05760405162461bcd60e51b81526004016200030f906200106b565b620004518162000b35565b600054610100900460ff16620006055760405162461bcd60e51b81526004016200030f906200106b565b6200048862000b81565b3390565b6001600160a01b03163b151590565b6000828152601d602090815260408083206001600160a01b038516845290915290205460ff1662000375576000828152601d602090815260408083206001600160a01b03851684529091529020805460ff19166001179055620006846200009a565b6001600160a01b0316816001600160a01b0316837f2f8788117e7eff1d82e926ec794901d17c78024a50270940304540a733656f0d60405160405180910390a45050565b600054610100900460ff16620006f25760405162461bcd60e51b81526004016200030f906200106b565b6200070463ac2ba33360e01b620009cd565b600280546001600160a01b0384166001600160a01b0319821681178355839291600162ff000160a01b03191617600160b01b8360038111156200074b576200074b620010b6565b02179055505050565b600054610100900460ff166200077e5760405162461bcd60e51b81526004016200030f906200106b565b82516200079390600d90602086019062000ca3565b508151620007a990600e90602085019062000ca3565b508051620007bf90600f90602084019062000ca3565b50620007d2633d96f4ff60e11b620009cd565b620007e46380ac58cd60e01b620009cd565b62000279635b5e139f60e01b620009cd565b600054610100900460ff16620008205760405162461bcd60e51b81526004016200030f906200106b565b81516200083590600990602085019062000ca3565b5080516200084b90600a90602084019062000ca3565b5060408051808201909152600580825264173539b7b760d91b60209092019182526200087a91600b9162000ca3565b506200088d631f2f406b60e01b620009cd565b62000375635b5e139f60e01b620009cd565b600054610100900460ff16620008c95760405162461bcd60e51b81526004016200030f906200106b565b6010819055620008e06330f487b560e11b620009cd565b620004516380ac58cd60e01b620009cd565b600054610100900460ff166200091c5760405162461bcd60e51b81526004016200030f906200106b565b62000488631aa1577160e11b620009cd565b600054610100900460ff16620009585760405162461bcd60e51b81526004016200030f906200106b565b6200096a631a056e7160e01b620009cd565b620004517f9f2df0fed2c77648de5860a4cc508cd0818c85b8b8a1ab4ceeef8d981c8956a68262000369565b600054610100900460ff16620009c05760405162461bcd60e51b81526004016200030f906200106b565b6200048863714ad8e760e01b5b6001600160e01b0319808216141562000a295760405162461bcd60e51b815260206004820152601c60248201527f4552433136353a20696e76616c696420696e746572666163652069640000000060448201526064016200030f565b6001600160e01b0319166000908152600160208190526040909120805460ff19169091179055565b600054610100900460ff1662000a7b5760405162461bcd60e51b81526004016200030f906200106b565b62000a8d6317e0bac360e31b620009cd565b601991909155601a55565b600054610100900460ff1662000ac25760405162461bcd60e51b81526004016200030f906200106b565b62000ad4633a47bf5160e11b620009cd565b62000ae663152a902d60e11b620009cd565b62000af863c69dbd8f60e01b620009cd565b62000b0a63656cb66560e11b620009cd565b604080518082019091526001600160a01b038316815261ffff82166020820152620002798162000bbd565b600054610100900460ff1662000b5f5760405162461bcd60e51b81526004016200030f906200106b565b602280546001600160a01b0319166001600160a01b0392909216919091179055565b600054610100900460ff1662000bab5760405162461bcd60e51b81526004016200030f906200106b565b62000488632a7c3e4960e01b620009cd565b612710816020015161ffff161062000c065760405162461bcd60e51b815260206004820152600b60248201526a496e76616c69642062707360a81b60448201526064016200030f565b60408051808201825282516001600160a01b03168082526020808501805161ffff1691909301819052601e8054600160a01b9092026001600160b01b03199092169092171790558251905191517f2c5ea6e4103e78cb101e796fb2dace540362fc542cbff5145eaa24af7dd8fe419262000c9892916001600160a01b0392909216825261ffff16602082015260400190565b60405180910390a150565b82805462000cb190620010cc565b90600052602060002090601f01602090048101928262000cd5576000855562000d20565b82601f1062000cf057805160ff191683800117855562000d20565b8280016001018555821562000d20579182015b8281111562000d2057825182559160200191906001019062000d03565b5062000d2e92915062000d32565b5090565b5b8082111562000d2e576000815560010162000d33565b634e487b7160e01b600052604160045260246000fd5b6040516101c081016001600160401b038111828210171562000d855762000d8562000d49565b60405290565b604051601f8201601f191681016001600160401b038111828210171562000db65762000db662000d49565b604052919050565b600082601f83011262000dd057600080fd5b81516001600160401b0381111562000dec5762000dec62000d49565b602062000e02601f8301601f1916820162000d8b565b828152858284870101111562000e1757600080fd5b60005b8381101562000e3757858101830151828201840152820162000e1a565b8381111562000e495760008385840101525b5095945050505050565b80516001600160a01b03811681146200036457600080fd5b805161ffff811681146200036457600080fd5b60006020828403121562000e9157600080fd5b81516001600160401b038082111562000ea957600080fd5b908301906101c0828603121562000ebf57600080fd5b62000ec962000d5f565b82518281111562000ed957600080fd5b62000ee78782860162000dbe565b82525060208301518281111562000efd57600080fd5b62000f0b8782860162000dbe565b60208301525060408301518281111562000f2457600080fd5b62000f328782860162000dbe565b60408301525060608301518281111562000f4b57600080fd5b62000f598782860162000dbe565b60608301525060808301518281111562000f7257600080fd5b62000f808782860162000dbe565b60808301525060a0838101519082015260c0808401519082015260e0808401519082015261010080840151908201526101208084015190820152610140915062000fcc82840162000e53565b82820152610160915062000fe282840162000e6b565b82820152610180915062000ff882840162000e53565b828201526101a091506200100e82840162000e53565b91810191909152949350505050565b6020808252602e908201527f496e697469616c697a61626c653a20636f6e747261637420697320616c72656160408201526d191e481a5b9a5d1a585b1a5e995960921b606082015260800190565b6020808252602b908201527f496e697469616c697a61626c653a20636f6e7472616374206973206e6f74206960408201526a6e697469616c697a696e6760a81b606082015260800190565b634e487b7160e01b600052602160045260246000fd5b600181811c90821680620010e157607f821691505b602082108114156200110357634e487b7160e01b600052602260045260246000fd5b50919050565b615d5480620011196000396000f3fe6080604052600436106103f15760003560e01c806301ffc9a7146103f6578063059fb6f71461042b5780630653aca51461044d57806306fdde031461049c578063081812fc146104be578063095ea7b3146104eb578063167446071461050b57806318160ddd146105205780631a056e711461053f57806323b872dd1461055f578063248a9ca31461057f5780632a55205a1461059f5780632bb684ad146105cd5780632c233067146105fa5780632d00b5871461061a5780632d8e85b0146106485780632f2ff15d146106685780632fe388be146106885780633542aee2146106a85780633574a2dd146106c857806336568abe146106e85780633acf404d146107085780633c0e8f2c1461071e57806342842e0e1461073e578063464bd6401461075e57806349561cb9146107785780634f972f5f146107995780635136dcc7146107b957806356c022bb146107d9578063572b6c05146107f95780635a9b0b89146108195780635d36598f1461087c5780636057e0ec1461089c5780636198e339146108bd5780636352211e146108dd5780636ba572fc146108fd5780636f8b44b01461091d57806370a082311461093d578063714ad8e71461095d578063715018a6146109715780637313cba9146109865780637885fdc71461099b578063791a2519146109d65780637d7eee42146109f65780637e98034214610a16578063837fe14014610a2b578063859610c614610a405780638da5cb5b14610a6057806391d1485414610a75578063938e3d7b14610a9557806395d89b4114610ab557806399e0dd7c14610aca5780639b6860c814610aea5780639e6b2c5b14610b00578063a217fddf14610b13578063a22cb46514610b28578063a9852bfb14610b48578063aaeaca4814610b68578063af121f5414610b7e578063b27c6f2d14610b9f578063b45a3c0e14610bb5578063b6c693e514610bd5578063b88d4fde14610bef578063ba4695fd14610c0f578063c0ac998314610c24578063c0bb38ff14610c39578063c29de63014610c59578063c723955a14610c73578063c87b56dd14610c88578063cad96cca14610ca8578063d539139314610cd5578063d547741f14610cf7578063d5abeb0114610d17578063d79ff99d14610d2d578063da74222814610d40578063da82b22714610d60578063dbbc853b14610d75578063dcbe353f14610d8a578063dd46706414610daa578063de6d6d9614610dca578063e3b9a7e514610dea578063e757c17d14610e0a578063e8a3d48514610e20578063e985e9c514610e35578063ef60ceaf14610e55578063f2fde38b14610e75578063f362136714610e95578063f384702f14610eb7578063f74bbf5914610ed1578063f95df41414610ef1575b600080fd5b34801561040257600080fd5b50610416610411366004614b99565b610f11565b60405190151581526020015b60405180910390f35b34801561043757600080fd5b5061044b610446366004614cca565b610f22565b005b34801561045957600080fd5b5061046d610468366004614d27565b610fc2565b60408051825181526020808401516001600160a01b0316908201529181015161ffff1690820152606001610422565b3480156104a857600080fd5b506104b1611049565b6040516104229190614d98565b3480156104ca57600080fd5b506104de6104d9366004614d27565b611058565b6040516104229190614dab565b3480156104f757600080fd5b5061044b610506366004614dbf565b6110e5565b34801561051757600080fd5b5061044b611208565b34801561052c57600080fd5b506012545b604051908152602001610422565b34801561054b57600080fd5b5061044b61055a366004614dbf565b611256565b34801561056b57600080fd5b5061044b61057a366004614de9565b6112bc565b34801561058b57600080fd5b5061053161059a366004614d27565b6112f4565b3480156105ab57600080fd5b506105bf6105ba366004614e25565b611309565b604051610422929190614e47565b3480156105d957600080fd5b506105ed6105e8366004614ea4565b6113ce565b6040516104229190614ee5565b34801561060657600080fd5b5061044b610615366004614f29565b611498565b34801561062657600080fd5b5060025461063b90600160b01b900460ff1681565b6040516104229190614f60565b34801561065457600080fd5b5061044b610663366004614f96565b61152e565b34801561067457600080fd5b5061044b610683366004614fb3565b611580565b34801561069457600080fd5b5061044b6106a3366004615041565b61159c565b3480156106b457600080fd5b5061044b6106c3366004614dbf565b611701565b3480156106d457600080fd5b5061044b6106e3366004615135565b611740565b3480156106f457600080fd5b5061044b610703366004614fb3565b611792565b34801561071457600080fd5b5061053160165481565b34801561072a57600080fd5b5061044b610739366004614d27565b61181c565b34801561074a57600080fd5b5061044b610759366004614de9565b611860565b34801561076a57600080fd5b506017546104169060ff1681565b34801561078457600080fd5b5060025461041690600160b81b900460ff1681565b3480156107a557600080fd5b5061044b6107b4366004614f96565b61187b565b3480156107c557600080fd5b5061044b6107d4366004615169565b6118cd565b3480156107e557600080fd5b506022546104de906001600160a01b031681565b34801561080557600080fd5b506104166108143660046151dd565b611967565b34801561082557600080fd5b5061082e61197b565b604080519a8b5260208b0199909952978901969096526060880194909452608087019290925260a0860152151560c085015260e0840152610100830152151561012082015261014001610422565b34801561088857600080fd5b5061044b610897366004614ea4565b611b0a565b3480156108a857600080fd5b5060025461041690600160a01b900460ff1681565b3480156108c957600080fd5b5061044b6108d8366004614d27565b611bae565b3480156108e957600080fd5b506104de6108f8366004614d27565b611c1b565b34801561090957600080fd5b5061044b61091836600461520a565b611c92565b34801561092957600080fd5b5061044b610938366004614d27565b611dc3565b34801561094957600080fd5b506105316109583660046151dd565b611e70565b34801561096957600080fd5b506001610416565b34801561097d57600080fd5b5061044b611ef7565b34801561099257600080fd5b506104b1611f42565b3480156109a757600080fd5b50601e546109c8906001600160a01b03811690600160a01b900461ffff1682565b604051610422929190615395565b3480156109e257600080fd5b5061044b6109f1366004614d27565b611fd4565b348015610a0257600080fd5b5061044b610a11366004614d27565b612018565b348015610a2257600080fd5b5061053161205c565b348015610a3757600080fd5b5061044b612068565b348015610a4c57600080fd5b5061044b610a5b366004614ea4565b6120e6565b348015610a6c57600080fd5b506104de612180565b348015610a8157600080fd5b50610416610a90366004614fb3565b612195565b348015610aa157600080fd5b5061044b610ab0366004615135565b6121c0565b348015610ac157600080fd5b506104b1612212565b348015610ad657600080fd5b5061044b610ae5366004615135565b61221c565b348015610af657600080fd5b5061053160195481565b61044b610b0e3660046153b2565b612291565b348015610b1f57600080fd5b50610531600081565b348015610b3457600080fd5b5061044b610b433660046153fd565b61245d565b348015610b5457600080fd5b5061044b610b63366004615135565b61246f565b348015610b7457600080fd5b5061053160155481565b348015610b8a57600080fd5b5060025461041690600160a81b900460ff1681565b348015610bab57600080fd5b50610531601a5481565b348015610bc157600080fd5b50610416610bd0366004614d27565b6124e4565b348015610be157600080fd5b50601b546104169060ff1681565b348015610bfb57600080fd5b5061044b610c0a366004615434565b6124f1565b348015610c1b57600080fd5b5061044b61252a565b348015610c3057600080fd5b506104b1612578565b348015610c4557600080fd5b5061044b610c543660046151dd565b612587565b348015610c6557600080fd5b50600c546104169060ff1681565b348015610c7f57600080fd5b5061044b612612565b348015610c9457600080fd5b506104b1610ca3366004614d27565b6126a8565b348015610cb457600080fd5b50610cc8610cc3366004614d27565b6126b3565b60405161042291906154af565b348015610ce157600080fd5b50610531600080516020615cbf83398151915281565b348015610d0357600080fd5b5061044b610d12366004614fb3565b61276e565b348015610d2357600080fd5b5061053160105481565b61044b610d3b366004614dbf565b61278a565b348015610d4c57600080fd5b5061044b610d5b3660046151dd565b612883565b348015610d6c57600080fd5b5061044b6128e4565b348015610d8157600080fd5b506104b1612961565b348015610d9657600080fd5b506002546104de906001600160a01b031681565b348015610db657600080fd5b5061044b610dc5366004614d27565b612970565b348015610dd657600080fd5b5061044b610de5366004615510565b6129d5565b348015610df657600080fd5b50610416610e0536600461557b565b612c1d565b348015610e1657600080fd5b5061053160145481565b348015610e2c57600080fd5b506104b1612c6b565b348015610e4157600080fd5b50610416610e503660046155b4565b612c7a565b348015610e6157600080fd5b5061044b610e703660046155de565b612ca8565b348015610e8157600080fd5b5061044b610e903660046151dd565b612d01565b348015610ea157600080fd5b50610531600080516020615cff83398151915281565b348015610ec357600080fd5b506011546104169060ff1681565b348015610edd57600080fd5b5061044b610eec366004614d27565b612dae565b348015610efd57600080fd5b5061044b610f0c366004614d27565b612df2565b6000610f1c82612e6b565b92915050565b60005b8151811015610fbc57306001600160a01b03166323b872dd8585858581518110610f5157610f516155f6565b60200260200101516040518463ffffffff1660e01b8152600401610f779392919061560c565b600060405180830381600087803b158015610f9157600080fd5b505af1158015610fa5573d6000803e3d6000fd5b505050508080610fb490615646565b915050610f25565b50505050565b60408051606081018252600080825260208201819052918101919091526000610fec602084612ea7565b6000818152601f60209081526040918290208251808401845290546001600160a01b03808216835261ffff600160a01b90920482168385019081528551606081018752968752925116928501929092525116908201529392505050565b6060611053612eba565b905090565b600061106382612ec9565b6110c95760405162461bcd60e51b815260206004820152602c60248201527f4552433732313a20617070726f76656420717565727920666f72206e6f6e657860448201526b34b9ba32b73a103a37b5b2b760a11b60648201526084015b60405180910390fd5b506000908152600760205260409020546001600160a01b031690565b60006110f082611c1b565b9050806001600160a01b0316836001600160a01b0316141561115e5760405162461bcd60e51b815260206004820152602160248201527f4552433732313a20617070726f76616c20746f2063757272656e74206f776e656044820152603960f91b60648201526084016110c0565b806001600160a01b0316611170612ee6565b6001600160a01b0316148061118c575061118c81610e50612ee6565b6111f95760405162461bcd60e51b815260206004820152603860248201527f4552433732313a20617070726f76652063616c6c6572206973206e6f74206f776044820152771b995c881b9bdc88185c1c1c9bdd995908199bdc88185b1b60421b60648201526084016110c0565b6112038383612ef0565b505050565b611210612ee6565b6001600160a01b0316611221612180565b6001600160a01b0316146112475760405162461bcd60e51b81526004016110c090615661565b6011805460ff19166001179055565b611270600080516020615cbf833981519152610a90612ee6565b6112ae5760405162461bcd60e51b815260206004820152600f60248201526e4e4f545f4d494e5445525f524f4c4560881b60448201526064016110c0565b6112b88282612f5e565b5050565b6112cd6112c7612ee6565b82612fe7565b6112e95760405162461bcd60e51b81526004016110c090615696565b6112038383836130b0565b6000908152601d602052604090206001015490565b6000828152601f602052604081205481906001600160a01b03161561136e576000848152601f60205260409020546001600160a01b038116906127109061135b90600160a01b900461ffff16866156e7565b611365919061571c565b915091506113c7565b601e546001600160a01b0316158015906113945750601e54600160a01b900461ffff1615155b156113c057601e546001600160a01b038116906127109061135b90600160a01b900461ffff16866156e7565b5060009050805b9250929050565b60606000826001600160401b038111156113ea576113ea614bcd565b604051908082528060200260200182016040528015611413578160200160208202803683370190505b50905060005b8381101561149057611442858583818110611436576114366155f6565b905060200201356124e4565b61147e57848482818110611458576114586155f6565b90506020020135828281518110611471576114716155f6565b6020026020010181815250505b8061148881615646565b915050611419565b509392505050565b6114a0612ee6565b6001600160a01b03166114b1612180565b6001600160a01b0316146114d75760405162461bcd60e51b81526004016110c090615661565b600254600160b81b900460ff16156115015760405162461bcd60e51b81526004016110c090615730565b6002805482919060ff60b01b1916600160b01b83600381111561152657611526614f4a565b021790555050565b611536612ee6565b6001600160a01b0316611547612180565b6001600160a01b03161461156d5760405162461bcd60e51b81526004016110c090615661565b601b805460ff1916911515919091179055565b611589826112f4565b61159281613245565b6112038383613256565b81518351146115e75760405162461bcd60e51b815260206004820152601760248201527608ca49e9abea89ebe988a9c8ea890be9a92a69a82a8869604b1b60448201526064016110c0565b80518351146116355760405162461bcd60e51b815260206004820152601a60248201527908ca49e9abea89e968a9cbe988a9c8ea890be9a92a69a82a886960331b60448201526064016110c0565b60005b8151811015610fbc57306001600160a01b03166323b872dd858381518110611662576116626155f6565b602002602001015185848151811061167c5761167c6155f6565b6020026020010151858581518110611696576116966155f6565b60200260200101516040518463ffffffff1660e01b81526004016116bc9392919061560c565b600060405180830381600087803b1580156116d657600080fd5b505af11580156116ea573d6000803e3d6000fd5b5050505080806116f990615646565b915050611638565b611709612ee6565b6001600160a01b031661171a612180565b6001600160a01b0316146112ae5760405162461bcd60e51b81526004016110c090615661565b611748612ee6565b6001600160a01b0316611759612180565b6001600160a01b03161461177f5760405162461bcd60e51b81526004016110c090615661565b80516112b8906009906020840190614aea565b61179a612ee6565b6001600160a01b0316816001600160a01b0316146118125760405162461bcd60e51b815260206004820152602f60248201527f416363657373436f6e74726f6c3a2063616e206f6e6c792072656e6f756e636560448201526e103937b632b9903337b91039b2b63360891b60648201526084016110c0565b6112b882826132dd565b611824612ee6565b6001600160a01b0316611835612180565b6001600160a01b03161461185b5760405162461bcd60e51b81526004016110c090615661565b601a55565b611203838383604051806020016040528060008152506124f1565b611883612ee6565b6001600160a01b0316611894612180565b6001600160a01b0316146118ba5760405162461bcd60e51b81526004016110c090615661565b6017805460ff1916911515919091179055565b6118d5612ee6565b6001600160a01b03166118e6612180565b6001600160a01b03161461190c5760405162461bcd60e51b81526004016110c090615661565b6112b88282808060200260200160405190810160405280939291908181526020016000905b8282101561195d5761194e60608302860136819003810190615750565b81526020019060010190611931565b5050505050613362565b6022546001600160a01b0391821691161490565b60008080808080808080808080611990612ee6565b6001600160a01b031614611a1b57306370a082316119ac612ee6565b6040518263ffffffff1660e01b81526004016119c89190614dab565b60206040518083038186803b1580156119e057600080fd5b505afa1580156119f4573d6000803e3d6000fd5b505050506040513d601f19601f82011682018060405250810190611a1891906157b4565b90505b601054306001600160a01b03166318160ddd6040518163ffffffff1660e01b815260040160206040518083038186803b158015611a5757600080fd5b505afa158015611a6b573d6000803e3d6000fd5b505050506040513d601f19601f82011682018060405250810190611a8f91906157b4565b8260145460155460186000611aa2612ee6565b6001600160a01b03166001600160a01b0316815260200190815260200160002054601760009054906101000a900460ff16601954601a54601b60009054906101000a900460ff169a509a509a509a509a509a509a509a509a509a505090919293949596979899565b60026013541415611b2d5760405162461bcd60e51b81526004016110c0906157cd565b6002601355611b4a600080516020615cff83398151915233612195565b611b665760405162461bcd60e51b81526004016110c090615804565b60005b81811015611ba457611b92838383818110611b8657611b866155f6565b90506020020135613507565b80611b9c81615646565b915050611b69565b5050600160135550565b60026013541415611bd15760405162461bcd60e51b81526004016110c0906157cd565b6002601355611bee600080516020615cff83398151915233612195565b611c0a5760405162461bcd60e51b81526004016110c090615804565b611c1381613507565b506001601355565b6000818152600560205260408120546001600160a01b031680610f1c5760405162461bcd60e51b815260206004820152602960248201527f4552433732313a206f776e657220717565727920666f72206e6f6e657869737460448201526832b73a103a37b5b2b760b91b60648201526084016110c0565b6000611c9e600161356e565b90508015611cb6576000805461ff0019166101001790555b611cc1600083613602565b611cca8261360c565b611cda8361018001516002613667565b611cf1836000015184602001518560400151613698565b611d03836060015184608001516136ca565b611d108360a001516136fb565b611d1861372b565b611d218261375a565b611d2961378a565b611d3b8360c001518460e001516137b9565b611d4f8361010001518461012001516137fb565b611d6383610140015184610160015161382c565b611d71836101a0015161385d565b611d7961388d565b8015611203576000805461ff0019169055604051600181527f7f26b83ff96e1f2b6a682f133852f6798a09c465da95921460cefb38474024989060200160405180910390a1505050565b611dcb612ee6565b6001600160a01b0316611ddc612180565b6001600160a01b031614611e025760405162461bcd60e51b81526004016110c090615661565b60115460ff1615611e255760405162461bcd60e51b81526004016110c09061582d565b601254811015611e6b5760405162461bcd60e51b81526020600482015260116024820152704c4f5745525f5448414e5f535550504c5960781b60448201526064016110c0565b601055565b60006001600160a01b038216611edb5760405162461bcd60e51b815260206004820152602a60248201527f4552433732313a2062616c616e636520717565727920666f7220746865207a65604482015269726f206164647265737360b01b60648201526084016110c0565b506001600160a01b031660009081526006602052604090205490565b611eff612ee6565b6001600160a01b0316611f10612180565b6001600160a01b031614611f365760405162461bcd60e51b81526004016110c090615661565b611f40600061360c565b565b606060098054611f519061584d565b80601f0160208091040260200160405190810160405280929190818152602001828054611f7d9061584d565b8015611fca5780601f10611f9f57610100808354040283529160200191611fca565b820191906000526020600020905b815481529060010190602001808311611fad57829003601f168201915b5050505050905090565b611fdc612ee6565b6001600160a01b0316611fed612180565b6001600160a01b0316146120135760405162461bcd60e51b81526004016110c090615661565b601955565b612020612ee6565b6001600160a01b0316612031612180565b6001600160a01b0316146120575760405162461bcd60e51b81526004016110c090615661565b601455565b600061105360206138bc565b612070612ee6565b6001600160a01b0316612081612180565b6001600160a01b0316146120a75760405162461bcd60e51b81526004016110c090615661565b600254600160a01b900460ff16156120d15760405162461bcd60e51b81526004016110c090615730565b6002805460ff60a01b1916600160a01b179055565b600260135414156121095760405162461bcd60e51b81526004016110c0906157cd565b6002601355612126600080516020615cff83398151915233612195565b6121425760405162461bcd60e51b81526004016110c090615804565b60005b81811015611ba45761216e838383818110612162576121626155f6565b905060200201356138c6565b8061217881615646565b915050612145565b6000546201000090046001600160a01b031690565b6000918252601d602090815260408084206001600160a01b0393909316845291905290205460ff1690565b6121c8612ee6565b6001600160a01b03166121d9612180565b6001600160a01b0316146121ff5760405162461bcd60e51b81526004016110c090615661565b80516112b890600f906020840190614aea565b6060611053613910565b612224612ee6565b6001600160a01b0316612235612180565b6001600160a01b03161461225b5760405162461bcd60e51b81526004016110c090615661565b600c5460ff161561227e5760405162461bcd60e51b81526004016110c09061582d565b80516112b890600a906020840190614aea565b600260135414156122b45760405162461bcd60e51b81526004016110c0906157cd565b600260135560175460ff166122f85760405162461bcd60e51b815260206004820152600a6024820152694e4f545f41435449564560b01b60448201526064016110c0565b6000612302612ee6565b905061234d83838080602002602001604051908101604052809392919081815260200183836020028082843760009201919091525050601654915061234890508461391f565b613959565b6123875760405162461bcd60e51b815260206004820152600b60248201526a2ba927a723afa82927a7a360a91b60448201526064016110c0565b6015546001600160a01b0382166000908152601860205260409020546123ae908690615882565b11156123ed5760405162461bcd60e51b815260206004820152600e60248201526d14149157d4d0531157d31253525560921b60448201526064016110c0565b34846014546123fc91906156e7565b111561241a5760405162461bcd60e51b81526004016110c09061589a565b6001600160a01b03811660009081526018602052604081208054869290612442908490615882565b9091555061245290508185612f5e565b505060016013555050565b6112b8612468612ee6565b838361396f565b612477612ee6565b6001600160a01b0316612488612180565b6001600160a01b0316146124ae5760405162461bcd60e51b81526004016110c090615661565b600c5460ff16156124d15760405162461bcd60e51b81526004016110c09061582d565b80516112b890600b906020840190614aea565b6000610f1c601c83613a3a565b6125026124fc612ee6565b83612fe7565b61251e5760405162461bcd60e51b81526004016110c090615696565b610fbc84848484613a5e565b612532612ee6565b6001600160a01b0316612543612180565b6001600160a01b0316146125695760405162461bcd60e51b81526004016110c090615661565b600c805460ff19166001179055565b6060600a8054611f519061584d565b61258f612ee6565b6001600160a01b03166125a0612180565b6001600160a01b0316146125c65760405162461bcd60e51b81526004016110c090615661565b600254600160a01b900460ff16156125f05760405162461bcd60e51b81526004016110c090615730565b600280546001600160a01b0319166001600160a01b0392909216919091179055565b61261a612ee6565b6001600160a01b031661262b612180565b6001600160a01b0316146126515760405162461bcd60e51b81526004016110c090615661565b600254600160b81b900460ff16156126935760405162461bcd60e51b815260206004820152600560248201526413d0d2d15160da1b60448201526064016110c0565b6002805460ff60b81b1916600160b81b179055565b6060610f1c82613a91565b604080516001808252818301909252606091816020015b60408051808201909152600080825260208201528152602001906001900390816126ca575050601e5481519192506001600160a01b0316908290600090612713576127136155f6565b60209081029190910101516001600160a01b03919091169052601e548151600160a01b90910461ffff1690829060009061274f5761274f6155f6565b6020908102919091018101516001600160601b03909216910152919050565b612777826112f4565b61278081613245565b61120383836132dd565b600260135414156127ad5760405162461bcd60e51b81526004016110c0906157cd565b6002601355601b5460ff166127fd5760405162461bcd60e51b81526020600482015260166024820152755055424c49435f53414c455f4e4f545f41435449564560501b60448201526064016110c0565b601a548111156128435760405162461bcd60e51b8152602060048201526011602482015270141550931250d7d4d0531157d312535255607a1b60448201526064016110c0565b348160195461285291906156e7565b11156128705760405162461bcd60e51b81526004016110c09061589a565b61287a8282612f5e565b50506001601355565b61288b612ee6565b6001600160a01b031661289c612180565b6001600160a01b0316146128c25760405162461bcd60e51b81526004016110c090615661565b602280546001600160a01b0319166001600160a01b0392909216919091179055565b6128ec612ee6565b6001600160a01b03166128fd612180565b6001600160a01b0316146129235760405162461bcd60e51b81526004016110c090615661565b6002805460ff60a81b1916600160a81b1790556040517fa24423a69b45c25c0479663125e48b482e71d85eae416f589545243bafaf3c9590600090a1565b6060600b8054611f519061584d565b600260135414156129935760405162461bcd60e51b81526004016110c0906157cd565b60026013556129b0600080516020615cff83398151915233612195565b6129cc5760405162461bcd60e51b81526004016110c090615804565b611c13816138c6565b6129de33613b6d565b6002546001600160a01b0316612a2e5760405162461bcd60e51b815260206004820152601560248201527415d2551211149055cbd393d7d49150d25412515395605a1b60448201526064016110c0565b600254600160a81b900460ff1615612a885760405162461bcd60e51b815260206004820181905260248201527f57495448445241572f454d455247454e43595f504f5745525f5245564f4b454460448201526064016110c0565b60005b83811015612bd9576000858583818110612aa757612aa76155f6565b9050602002016020810190612abc91906151dd565b6001600160a01b03161415612b0057612afb838383818110612ae057612ae06155f6565b6002546001600160a01b031692602090910201359050613cf6565b612bc7565b848482818110612b1257612b126155f6565b9050602002016020810190612b2791906151dd565b6002546001600160a01b039182169163a9059cbb9116858585818110612b4f57612b4f6155f6565b905060200201356040518363ffffffff1660e01b8152600401612b73929190614e47565b602060405180830381600087803b158015612b8d57600080fd5b505af1158015612ba1573d6000803e3d6000fd5b505050506040513d601f19601f82011682018060405250810190612bc591906158c7565b505b80612bd181615646565b915050612a8b565b507fd40c399a83caf67d15628b821aa7c7bd940e563c57a047e2bd3b8c602bcaf5a584848484604051612c0f94939291906158e4565b60405180910390a150505050565b6000612c6383838080602002602001604051908101604052809392919081815260200183836020028082843760009201919091525050601654915061234890508761391f565b949350505050565b6060600f8054611f519061584d565b6001600160a01b03918216600090815260086020908152604080832093909416825291909152205460ff1690565b612cb0612ee6565b6001600160a01b0316612cc1612180565b6001600160a01b031614612ce75760405162461bcd60e51b81526004016110c090615661565b612cfe612cf936839003830183615966565b613e0c565b50565b612d09612ee6565b6001600160a01b0316612d1a612180565b6001600160a01b031614612d405760405162461bcd60e51b81526004016110c090615661565b6001600160a01b038116612da55760405162461bcd60e51b815260206004820152602660248201527f4f776e61626c653a206e6577206f776e657220697320746865207a65726f206160448201526564647265737360d01b60648201526084016110c0565b612cfe8161360c565b612db6612ee6565b6001600160a01b0316612dc7612180565b6001600160a01b031614612ded5760405162461bcd60e51b81526004016110c090615661565b601555565b612dfa612ee6565b6001600160a01b0316612e0b612180565b6001600160a01b031614612e315760405162461bcd60e51b81526004016110c090615661565b601655565b6000612e4133611967565b15612e53575060131936013560601c90565b503390565b3390565b6001600160a01b03163b151590565b60006301ffc9a760e01b6001600160e01b031983161480610f1c5750506001600160e01b03191660009081526001602052604090205460ff1690565b6000612eb38383613eb7565b9392505050565b6060600d8054611f519061584d565b6000908152600560205260409020546001600160a01b0316151590565b6000611053612e36565b600081815260076020526040902080546001600160a01b0319166001600160a01b0384169081179091558190612f2582611c1b565b6001600160a01b03167f8c5be1e5ebec7d5bd14f71427d1e84f3dd0314c0f7b2291e5b200ac8c7c3b92560405160405180910390a45050565b60105481612f6b60125490565b612f759190615882565b1115612fb45760405162461bcd60e51b815260206004820152600e60248201526d455843454544535f535550504c5960901b60448201526064016110c0565b60005b8181101561120357601254612fcc8482613ee1565b612fd4613efb565b5080612fdf81615646565b915050612fb7565b6000612ff282612ec9565b6130535760405162461bcd60e51b815260206004820152602c60248201527f4552433732313a206f70657261746f7220717565727920666f72206e6f6e657860448201526b34b9ba32b73a103a37b5b2b760a11b60648201526084016110c0565b600061305e83611c1b565b9050806001600160a01b0316846001600160a01b0316148061308557506130858185612c7a565b80612c635750836001600160a01b031661309e84611058565b6001600160a01b031614949350505050565b826001600160a01b03166130c382611c1b565b6001600160a01b0316146131275760405162461bcd60e51b815260206004820152602560248201527f4552433732313a207472616e736665722066726f6d20696e636f72726563742060448201526437bbb732b960d91b60648201526084016110c0565b6001600160a01b0382166131895760405162461bcd60e51b8152602060048201526024808201527f4552433732313a207472616e7366657220746f20746865207a65726f206164646044820152637265737360e01b60648201526084016110c0565b613194838383613f12565b61319f600082612ef0565b6001600160a01b03831660009081526006602052604081208054600192906131c89084906159c0565b90915550506001600160a01b03821660009081526006602052604081208054600192906131f6908490615882565b909155505060008181526005602052604080822080546001600160a01b0319166001600160a01b038681169182179092559151849391871691600080516020615cdf83398151915291a4505050565b612cfe81613251612ee6565b613f1d565b6132608282612195565b6112b8576000828152601d602090815260408083206001600160a01b03851684529091529020805460ff19166001179055613299612ee6565b6001600160a01b0316816001600160a01b0316837f2f8788117e7eff1d82e926ec794901d17c78024a50270940304540a733656f0d60405160405180910390a45050565b6132e78282612195565b156112b8576000828152601d602090815260408083206001600160a01b03851684529091529020805460ff1916905561331e612ee6565b6001600160a01b0316816001600160a01b0316837ff6391f5c32d9c69d2a47ea670b442974b53935d1edc7fd64eb21e047a839171b60405160405180910390a45050565b60005b81518110156112b8576000828281518110613382576133826155f6565b60200260200101519050612710816040015161ffff16106133b55760405162461bcd60e51b81526004016110c0906159d7565b60208101516001600160a01b031661342f5780516000908152601f6020908152604090912080546001600160b01b031916905581516133f49190613f81565b5080516040519081527fa2870857763bd9ae76c957f869f16b31c18dd3bb4c7b4d3a4496dc5c57c657f99060200160405180910390a16134f4565b6040805180820182526020808401516001600160a01b0390811683528484015161ffff90811683850190815286516000908152601f855295909520935184549551909116600160a01b026001600160b01b0319909516911617929092179055815161349a9190613f8d565b50805160208083015160408085015181519485526001600160a01b039092169284019290925261ffff1682820152517f389b70fb0887f01e83784eb1c4c589f740eca53b00ed0f45e41db5d079719abb9181900360600190a15b50806134ff81615646565b915050613365565b613512601c82613a3a565b61354b5760405162461bcd60e51b815260206004820152600a6024820152691393d517d313d0d2d15160b21b60448201526064016110c0565b600881901c6000908152601c602052604090208054600160ff84161b1916905550565b60008054610100900460ff16156135bc578160ff166001148015613598575061359630612e5c565b155b6135b45760405162461bcd60e51b81526004016110c0906159fc565b506000919050565b60005460ff8084169116106135e35760405162461bcd60e51b81526004016110c0906159fc565b506000805460ff191660ff92909216919091179055600190565b919050565b6112b88282613256565b600080546001600160a01b038381166201000081810262010000600160b01b0319851617855560405193049190911692909183917f8be0079c531659141344cd1fd0a4f28419497f9722a3daafe3b4186f6b6457e091a35050565b600054610100900460ff1661368e5760405162461bcd60e51b81526004016110c090615a4a565b6112b88282613f99565b600054610100900460ff166136bf5760405162461bcd60e51b81526004016110c090615a4a565b61120383838361401d565b600054610100900460ff166136f15760405162461bcd60e51b81526004016110c090615a4a565b6112b882826140b0565b600054610100900460ff166137225760405162461bcd60e51b81526004016110c090615a4a565b612cfe8161414c565b600054610100900460ff166137525760405162461bcd60e51b81526004016110c090615a4a565b611f40614198565b600054610100900460ff166137815760405162461bcd60e51b81526004016110c090615a4a565b612cfe816141cf565b600054610100900460ff166137b15760405162461bcd60e51b81526004016110c090615a4a565b611f4061421e565b600054610100900460ff166137e05760405162461bcd60e51b81526004016110c090615a4a565b6137f063209680f760e11b614251565b601491909155601555565b600054610100900460ff166138225760405162461bcd60e51b81526004016110c090615a4a565b6112b882826142d2565b600054610100900460ff166138535760405162461bcd60e51b81526004016110c090615a4a565b6112b88282614314565b600054610100900460ff166138845760405162461bcd60e51b81526004016110c090615a4a565b612cfe816143a4565b600054610100900460ff166138b45760405162461bcd60e51b81526004016110c090615a4a565b611f406143cb565b6000610f1c825490565b6138d1601c82613a3a565b156138ee5760405162461bcd60e51b81526004016110c090615730565b600881901c6000908152601c602052604090208054600160ff84161b17905550565b6060600e8054611f519061584d565b6040516001600160601b0319606083901b166020820152600090603401604051602081830303815290604052805190602001209050919050565b6000826139668584614402565b14949350505050565b816001600160a01b0316836001600160a01b031614156139cd5760405162461bcd60e51b815260206004820152601960248201527822a9219b99189d1030b8383937bb32903a379031b0b63632b960391b60448201526064016110c0565b6001600160a01b03838116600081815260086020908152604080832094871680845294825291829020805460ff191686151590811790915591519182527f17307eab39ab6107e8899845ad3d59bd9653f200f220920489ca2b5937696c31910160405180910390a3505050565b600881901c600090815260208390526040902054600160ff83161b16151592915050565b613a698484846130b0565b613a758484848461446e565b610fbc5760405162461bcd60e51b81526004016110c090615a95565b60606000600a8054613aa29061584d565b905011613b395760098054613ab69061584d565b80601f0160208091040260200160405190810160405280929190818152602001828054613ae29061584d565b8015613b2f5780601f10613b0457610100808354040283529160200191613b2f565b820191906000526020600020905b815481529060010190602001808311613b1257829003601f168201915b5050505050610f1c565b600a613b4483614589565b600b604051602001613b5893929190615b81565b60405160208183030381529060405292915050565b6003600254600160b01b900460ff166003811115613b8d57613b8d614f4a565b1415613bcd5760405162461bcd60e51b815260206004820152600f60248201526e15d2551211149055cbd313d0d2d151608a1b60448201526064016110c0565b60028054600160b01b900460ff166003811115613bec57613bec614f4a565b1415613bf55750565b6001600254600160b01b900460ff166003811115613c1557613c15614f4a565b1415613c72576002546001600160a01b03828116911614612cfe5760405162461bcd60e51b815260206004820152601760248201527615d2551211149055cbd3d3931657d49150d25412515395604a1b60448201526064016110c0565b6000600254600160b01b900460ff166003811115613c9257613c92614f4a565b1415612cfe57806001600160a01b0316613caa612180565b6001600160a01b031614612cfe5760405162461bcd60e51b81526020600482015260136024820152722ba4aa24222920ab97a7a7262cafa7aba722a960691b60448201526064016110c0565b80471015613d465760405162461bcd60e51b815260206004820152601d60248201527f416464726573733a20696e73756666696369656e742062616c616e636500000060448201526064016110c0565b6000826001600160a01b03168260405160006040518083038185875af1925050503d8060008114613d93576040519150601f19603f3d011682016040523d82523d6000602084013e613d98565b606091505b50509050806112035760405162461bcd60e51b815260206004820152603a60248201527f416464726573733a20756e61626c6520746f2073656e642076616c75652c20726044820152791958da5c1a595b9d081b585e481a185d99481c995d995c9d195960321b60648201526084016110c0565b612710816020015161ffff1610613e355760405162461bcd60e51b81526004016110c0906159d7565b60408051808201825282516001600160a01b03168082526020808501805161ffff1691909301819052601e80546001600160b01b031916909217600160a01b9091021790558251905191517f2c5ea6e4103e78cb101e796fb2dace540362fc542cbff5145eaa24af7dd8fe4192613eac9291615395565b60405180910390a150565b6000826000018281548110613ece57613ece6155f6565b9060005260206000200154905092915050565b6112b8828260405180602001604052806000815250614686565b60128054906000613f0b83615646565b9190505550565b6112038383836146b9565b613f278282612195565b6112b857613f3f816001600160a01b031660146146e1565b613f4a8360206146e1565b604051602001613f5b929190615bb4565b60408051601f198184030181529082905262461bcd60e51b82526110c091600401614d98565b6000612eb3838361487c565b6000612eb3838361496f565b600054610100900460ff16613fc05760405162461bcd60e51b81526004016110c090615a4a565b613fd063ac2ba33360e01b614251565b600280546001600160a01b0384166001600160a01b0319821681178355839291600162ff000160a01b03191617600160b01b83600381111561401457614014614f4a565b02179055505050565b600054610100900460ff166140445760405162461bcd60e51b81526004016110c090615a4a565b825161405790600d906020860190614aea565b50815161406b90600e906020850190614aea565b50805161407f90600f906020840190614aea565b50614090633d96f4ff60e11b614251565b6140a06380ac58cd60e01b614251565b611203635b5e139f60e01b614251565b600054610100900460ff166140d75760405162461bcd60e51b81526004016110c090615a4a565b81516140ea906009906020850190614aea565b5080516140fe90600a906020840190614aea565b5060408051808201909152600580825264173539b7b760d91b602090920191825261412b91600b91614aea565b5061413c631f2f406b60e01b614251565b6112b8635b5e139f60e01b614251565b600054610100900460ff166141735760405162461bcd60e51b81526004016110c090615a4a565b60108190556141886330f487b560e11b614251565b612cfe6380ac58cd60e01b614251565b600054610100900460ff166141bf5760405162461bcd60e51b81526004016110c090615a4a565b611f40631aa1577160e11b614251565b600054610100900460ff166141f65760405162461bcd60e51b81526004016110c090615a4a565b614206631a056e7160e01b614251565b612cfe600080516020615cbf83398151915282613602565b600054610100900460ff166142455760405162461bcd60e51b81526004016110c090615a4a565b611f4063714ad8e760e01b5b6001600160e01b031980821614156142aa5760405162461bcd60e51b815260206004820152601c60248201527b115490cc4d8d4e881a5b9d985b1a59081a5b9d195c999858d9481a5960221b60448201526064016110c0565b6001600160e01b0319166000908152600160208190526040909120805460ff19169091179055565b600054610100900460ff166142f95760405162461bcd60e51b81526004016110c090615a4a565b6143096317e0bac360e31b614251565b601991909155601a55565b600054610100900460ff1661433b5760405162461bcd60e51b81526004016110c090615a4a565b61434b633a47bf5160e11b614251565b61435b63152a902d60e11b614251565b61436b63c69dbd8f60e01b614251565b61437b63656cb66560e11b614251565b604080518082019091526001600160a01b038316815261ffff8216602082015261120381613e0c565b600054610100900460ff166128c25760405162461bcd60e51b81526004016110c090615a4a565b600054610100900460ff166143f25760405162461bcd60e51b81526004016110c090615a4a565b611f40632a7c3e4960e01b614251565b600081815b8451811015611490576000858281518110614424576144246155f6565b6020026020010151905080831161444a576000838152602082905260409020925061445b565b600081815260208490526040902092505b508061446681615646565b915050614407565b6000614482846001600160a01b0316612e5c565b1561457e57836001600160a01b031663150b7a0261449e612ee6565b8786866040518563ffffffff1660e01b81526004016144c09493929190615c23565b602060405180830381600087803b1580156144da57600080fd5b505af192505050801561450a575060408051601f3d908101601f1916820190925261450791810190615c60565b60015b614564573d808015614538576040519150601f19603f3d011682016040523d82523d6000602084013e61453d565b606091505b50805161455c5760405162461bcd60e51b81526004016110c090615a95565b805181602001fd5b6001600160e01b031916630a85bd0160e11b149050612c63565b506001949350505050565b6060816145ad5750506040805180820190915260018152600360fc1b602082015290565b8160005b81156145d757806145c181615646565b91506145d09050600a8361571c565b91506145b1565b6000816001600160401b038111156145f1576145f1614bcd565b6040519080825280601f01601f19166020018201604052801561461b576020820181803683370190505b5090505b8415612c63576146306001836159c0565b915061463d600a86615c7d565b614648906030615882565b60f81b81838151811061465d5761465d6155f6565b60200101906001600160f81b031916908160001a90535061467f600a8661571c565b945061461f565b61469083836149be565b61469d600084848461446e565b6112035760405162461bcd60e51b81526004016110c090615a95565b6146c4601c82613a3a565b156112035760405162461bcd60e51b81526004016110c090615730565b606060006146f08360026156e7565b6146fb906002615882565b6001600160401b0381111561471257614712614bcd565b6040519080825280601f01601f19166020018201604052801561473c576020820181803683370190505b509050600360fc1b81600081518110614757576147576155f6565b60200101906001600160f81b031916908160001a905350600f60fb1b81600181518110614786576147866155f6565b60200101906001600160f81b031916908160001a90535060006147aa8460026156e7565b6147b5906001615882565b90505b600181111561482d576f181899199a1a9b1b9c1cb0b131b232b360811b85600f16601081106147e9576147e96155f6565b1a60f81b8282815181106147ff576147ff6155f6565b60200101906001600160f81b031916908160001a90535060049490941c9361482681615c91565b90506147b8565b508315612eb35760405162461bcd60e51b815260206004820181905260248201527f537472696e67733a20686578206c656e67746820696e73756666696369656e7460448201526064016110c0565b600081815260018301602052604081205480156149655760006148a06001836159c0565b85549091506000906148b4906001906159c0565b90508181146149195760008660000182815481106148d4576148d46155f6565b90600052602060002001549050808760000184815481106148f7576148f76155f6565b6000918252602080832090910192909255918252600188019052604090208390555b855486908061492a5761492a615ca8565b600190038181906000526020600020016000905590558560010160008681526020019081526020016000206000905560019350505050610f1c565b6000915050610f1c565b60008181526001830160205260408120546149b657508154600181810184556000848152602080822090930184905584548482528286019093526040902091909155610f1c565b506000610f1c565b6001600160a01b038216614a145760405162461bcd60e51b815260206004820181905260248201527f4552433732313a206d696e7420746f20746865207a65726f206164647265737360448201526064016110c0565b614a1d81612ec9565b15614a695760405162461bcd60e51b815260206004820152601c60248201527b115490cdcc8c4e881d1bdad95b88185b1c9958591e481b5a5b9d195960221b60448201526064016110c0565b614a7560008383613f12565b6001600160a01b0382166000908152600660205260408120805460019290614a9e908490615882565b909155505060008181526005602052604080822080546001600160a01b0319166001600160a01b0386169081179091559051839290600080516020615cdf833981519152908290a45050565b828054614af69061584d565b90600052602060002090601f016020900481019282614b185760008555614b5e565b82601f10614b3157805160ff1916838001178555614b5e565b82800160010185558215614b5e579182015b82811115614b5e578251825591602001919060010190614b43565b50614b6a929150614b6e565b5090565b5b80821115614b6a5760008155600101614b6f565b6001600160e01b031981168114612cfe57600080fd5b600060208284031215614bab57600080fd5b8135612eb381614b83565b80356001600160a01b03811681146135fd57600080fd5b634e487b7160e01b600052604160045260246000fd5b6040516101c081016001600160401b0381118282101715614c0657614c06614bcd565b60405290565b604051601f8201601f191681016001600160401b0381118282101715614c3457614c34614bcd565b604052919050565b60006001600160401b03821115614c5557614c55614bcd565b5060051b60200190565b600082601f830112614c7057600080fd5b81356020614c85614c8083614c3c565b614c0c565b82815260059290921b84018101918181019086841115614ca457600080fd5b8286015b84811015614cbf5780358352918301918301614ca8565b509695505050505050565b600080600060608486031215614cdf57600080fd5b614ce884614bb6565b9250614cf660208501614bb6565b915060408401356001600160401b03811115614d1157600080fd5b614d1d86828701614c5f565b9150509250925092565b600060208284031215614d3957600080fd5b5035919050565b60005b83811015614d5b578181015183820152602001614d43565b83811115610fbc5750506000910152565b60008151808452614d84816020860160208601614d40565b601f01601f19169290920160200192915050565b602081526000612eb36020830184614d6c565b6001600160a01b0391909116815260200190565b60008060408385031215614dd257600080fd5b614ddb83614bb6565b946020939093013593505050565b600080600060608486031215614dfe57600080fd5b614e0784614bb6565b9250614e1560208501614bb6565b9150604084013590509250925092565b60008060408385031215614e3857600080fd5b50508035926020909101359150565b6001600160a01b03929092168252602082015260400190565b60008083601f840112614e7257600080fd5b5081356001600160401b03811115614e8957600080fd5b6020830191508360208260051b85010111156113c757600080fd5b60008060208385031215614eb757600080fd5b82356001600160401b03811115614ecd57600080fd5b614ed985828601614e60565b90969095509350505050565b6020808252825182820181905260009190848201906040850190845b81811015614f1d57835183529284019291840191600101614f01565b50909695505050505050565b600060208284031215614f3b57600080fd5b813560048110612eb357600080fd5b634e487b7160e01b600052602160045260246000fd5b6020810160048310614f8257634e487b7160e01b600052602160045260246000fd5b91905290565b8015158114612cfe57600080fd5b600060208284031215614fa857600080fd5b8135612eb381614f88565b60008060408385031215614fc657600080fd5b82359150614fd660208401614bb6565b90509250929050565b600082601f830112614ff057600080fd5b81356020615000614c8083614c3c565b82815260059290921b8401810191818101908684111561501f57600080fd5b8286015b84811015614cbf5761503481614bb6565b8352918301918301615023565b60008060006060848603121561505657600080fd5b83356001600160401b038082111561506d57600080fd5b61507987838801614fdf565b9450602086013591508082111561508f57600080fd5b61509b87838801614fdf565b935060408601359150808211156150b157600080fd5b50614d1d86828701614c5f565b60006001600160401b038311156150d7576150d7614bcd565b6150ea601f8401601f1916602001614c0c565b90508281528383830111156150fe57600080fd5b828260208301376000602084830101529392505050565b600082601f83011261512657600080fd5b612eb3838335602085016150be565b60006020828403121561514757600080fd5b81356001600160401b0381111561515d57600080fd5b612c6384828501615115565b6000806020838503121561517c57600080fd5b82356001600160401b038082111561519357600080fd5b818501915085601f8301126151a757600080fd5b8135818111156151b657600080fd5b8660206060830285010111156151cb57600080fd5b60209290920196919550909350505050565b6000602082840312156151ef57600080fd5b612eb382614bb6565b803561ffff811681146135fd57600080fd5b6000806040838503121561521d57600080fd5b82356001600160401b038082111561523457600080fd5b908401906101c0828703121561524957600080fd5b615251614be3565b82358281111561526057600080fd5b61526c88828601615115565b82525060208301358281111561528157600080fd5b61528d88828601615115565b6020830152506040830135828111156152a557600080fd5b6152b188828601615115565b6040830152506060830135828111156152c957600080fd5b6152d588828601615115565b6060830152506080830135828111156152ed57600080fd5b6152f988828601615115565b60808301525060a0838101359082015260c0808401359082015260e08084013590820152610100808401359082015261012080840135908201526101409150615343828401614bb6565b8282015261016091506153578284016151f8565b82820152610180915061536b828401614bb6565b828201526101a0915061537f828401614bb6565b82820152809450505050614fd660208401614bb6565b6001600160a01b0392909216825261ffff16602082015260400190565b6000806000604084860312156153c757600080fd5b8335925060208401356001600160401b038111156153e457600080fd5b6153f086828701614e60565b9497909650939450505050565b6000806040838503121561541057600080fd5b61541983614bb6565b9150602083013561542981614f88565b809150509250929050565b6000806000806080858703121561544a57600080fd5b61545385614bb6565b935061546160208601614bb6565b92506040850135915060608501356001600160401b0381111561548357600080fd5b8501601f8101871361549457600080fd5b6154a3878235602084016150be565b91505092959194509250565b602080825282518282018190526000919060409081850190868401855b8281101561550357815180516001600160a01b031685528601516001600160601b03168685015292840192908501906001016154cc565b5091979650505050505050565b6000806000806040858703121561552657600080fd5b84356001600160401b038082111561553d57600080fd5b61554988838901614e60565b9096509450602087013591508082111561556257600080fd5b5061556f87828801614e60565b95989497509550505050565b60008060006040848603121561559057600080fd5b61559984614bb6565b925060208401356001600160401b038111156153e457600080fd5b600080604083850312156155c757600080fd5b6155d083614bb6565b9150614fd660208401614bb6565b6000604082840312156155f057600080fd5b50919050565b634e487b7160e01b600052603260045260246000fd5b6001600160a01b039384168152919092166020820152604081019190915260600190565b634e487b7160e01b600052601160045260246000fd5b600060001982141561565a5761565a615630565b5060010190565b6020808252818101527f4f776e61626c653a2063616c6c6572206973206e6f7420746865206f776e6572604082015260600190565b60208082526031908201527f4552433732313a207472616e736665722063616c6c6572206973206e6f74206f6040820152701ddb995c881b9bdc88185c1c1c9bdd9959607a1b606082015260800190565b600081600019048311821515161561570157615701615630565b500290565b634e487b7160e01b600052601260045260246000fd5b60008261572b5761572b615706565b500490565b6020808252600690820152651313d0d2d15160d21b604082015260600190565b60006060828403121561576257600080fd5b604051606081016001600160401b038111828210171561578457615784614bcd565b6040528235815261579760208401614bb6565b60208201526157a8604084016151f8565b60408201529392505050565b6000602082840312156157c657600080fd5b5051919050565b6020808252601f908201527f5265656e7472616e637947756172643a207265656e7472616e742063616c6c00604082015260600190565b6020808252600f908201526e4e4f545f4c4f434b45525f524f4c4560881b604082015260600190565b602080825260069082015265232927ad22a760d11b604082015260600190565b600181811c9082168061586157607f821691505b602082108114156155f057634e487b7160e01b600052602260045260246000fd5b6000821982111561589557615895615630565b500190565b602080825260139082015272125394d551919250d251539517d05353d55395606a1b604082015260600190565b6000602082840312156158d957600080fd5b8151612eb381614f88565b6040808252810184905260008560608301825b87811015615925576001600160a01b0361591084614bb6565b168252602092830192909101906001016158f7565b5083810360208501528481526001600160fb1b0385111561594557600080fd5b8460051b915081866020830137600091016020019081529695505050505050565b60006040828403121561597857600080fd5b604080519081016001600160401b038111828210171561599a5761599a614bcd565b6040526159a683614bb6565b81526159b4602084016151f8565b60208201529392505050565b6000828210156159d2576159d2615630565b500390565b6020808252600b908201526a496e76616c69642062707360a81b604082015260600190565b6020808252602e908201527f496e697469616c697a61626c653a20636f6e747261637420697320616c72656160408201526d191e481a5b9a5d1a585b1a5e995960921b606082015260800190565b6020808252602b908201527f496e697469616c697a61626c653a20636f6e7472616374206973206e6f74206960408201526a6e697469616c697a696e6760a81b606082015260800190565b60208082526032908201527f4552433732313a207472616e7366657220746f206e6f6e20455243373231526560408201527131b2b4bb32b91034b6b83632b6b2b73a32b960711b606082015260800190565b8054600090600181811c9080831680615b0157607f831692505b6020808410821415615b2357634e487b7160e01b600052602260045260246000fd5b818015615b375760018114615b4857615b75565b60ff19861689528489019650615b75565b60008881526020902060005b86811015615b6d5781548b820152908501908301615b54565b505084890196505b50505050505092915050565b6000615b8d8286615ae7565b8451615b9d818360208901614d40565b615ba981830186615ae7565b979650505050505050565b76020b1b1b2b9b9a1b7b73a3937b61d1030b1b1b7bab73a1604d1b815260008351615be6816017850160208801614d40565b7001034b99036b4b9b9b4b733903937b6329607d1b6017918401918201528351615c17816028840160208801614d40565b01602801949350505050565b6001600160a01b0385811682528416602082015260408101839052608060608201819052600090615c5690830184614d6c565b9695505050505050565b600060208284031215615c7257600080fd5b8151612eb381614b83565b600082615c8c57615c8c615706565b500690565b600081615ca057615ca0615630565b506000190190565b634e487b7160e01b600052603160045260246000fdfe9f2df0fed2c77648de5860a4cc508cd0818c85b8b8a1ab4ceeef8d981c8956a6ddf252ad1be2c89b69c2b068fc378daa952ba7f163c4a11628f55a4df523b3efaf9a8bb3cbd6b84fbccefa71ff73e26e798553c6914585a84886212a46a90279a264697066735822122029b952cc84209d5a2db1bdadd4de806f4a8da46e7d1e5995022c4a7f9c54fb5f64736f6c63430008090033",
  "devdoc": {
    "kind": "dev",
    "methods": {
      "approve(address,uint256)": {
        "details": "See {IERC721-approve}."
      },
      "balanceOf(address)": {
        "details": "See {IERC721-balanceOf}."
      },
      "getApproved(uint256)": {
        "details": "See {IERC721-getApproved}."
      },
      "getRoleAdmin(bytes32)": {
        "details": "Returns the admin role that controls `role`. See {grantRole} and {revokeRole}. To change a role's admin, use {_setRoleAdmin}."
      },
      "getTokenRoyaltiesCount()": {
        "details": "See {IEIP2981RoyaltyOverride-getTokenRoyaltiesCount}."
      },
      "getTokenRoyaltyByIndex(uint256)": {
        "details": "See {IEIP2981RoyaltyOverride-getTokenRoyaltyByIndex}."
      },
      "grantRole(bytes32,address)": {
        "details": "Grants `role` to `account`. If `account` had not been already granted `role`, emits a {RoleGranted} event. Requirements: - the caller must have ``role``'s admin role."
      },
      "hasRole(bytes32,address)": {
        "details": "Returns `true` if `account` has been granted `role`."
      },
      "isApprovedForAll(address,address)": {
        "details": "See {IERC721-isApprovedForAll}."
      },
      "owner()": {
        "details": "Returns the address of the current owner."
      },
      "ownerOf(uint256)": {
        "details": "See {IERC721-ownerOf}."
      },
      "renounceOwnership()": {
        "details": "Leaves the contract without owner. It will not be possible to call `onlyOwner` functions anymore. Can only be called by the current owner. NOTE: Renouncing ownership will leave the contract without an owner, thereby removing any functionality that is only available to the owner."
      },
      "renounceRole(bytes32,address)": {
        "details": "Revokes `role` from the calling account. Roles are often managed via {grantRole} and {revokeRole}: this function's purpose is to provide a mechanism for accounts to lose their privileges if they are compromised (such as when a trusted device is misplaced). If the calling account had been revoked `role`, emits a {RoleRevoked} event. Requirements: - the caller must be `account`."
      },
      "revokeRole(bytes32,address)": {
        "details": "Revokes `role` from `account`. If `account` had been granted `role`, emits a {RoleRevoked} event. Requirements: - the caller must have ``role``'s admin role."
      },
      "royaltyInfo(uint256,uint256)": {
        "details": "See {IEIP2981RoyaltyOverride-royaltyInfo}."
      },
      "safeTransferFrom(address,address,uint256)": {
        "details": "See {IERC721-safeTransferFrom}."
      },
      "safeTransferFrom(address,address,uint256,bytes)": {
        "details": "See {IERC721-safeTransferFrom}."
      },
      "setApprovalForAll(address,bool)": {
        "details": "See {IERC721-setApprovalForAll}."
      },
      "transferFrom(address,address,uint256)": {
        "details": "See {IERC721-transferFrom}."
      },
      "transferOwnership(address)": {
        "details": "Transfers ownership of the contract to a new account (`newOwner`). Can only be called by the current owner."
      }
    },
    "version": 1
  },
  "userdoc": {
    "kind": "user",
    "methods": {
      "lock(uint256)": {
        "notice": "Locks token(s) to effectively lock them, while keeping in the same wallet. This mechanism prevents them from being transferred, yet still will show correct owner."
      },
      "locked(uint256)": {
        "notice": "Returns if a token is locked or not."
      },
      "transferFromBulk(address,address,uint256[])": {
        "notice": "Useful for when user wants to return tokens to get a refund, or when they want to transfer lots of tokens by paying gas fee only once."
      },
      "transferFromBulk(address[],address[],uint256[])": {
        "notice": "Useful for transferring multiple tokens from/to multiple addresses."
      },
      "unlock(uint256)": {
        "notice": "Unlocks locked token(s) to be able to transfer."
      }
    },
    "version": 1
  },
  "storageLayout": {
    "storage": [
      {
        "astId": 886,
        "contract": "contracts/collections/ERC721/presets/ERC721SimpleSalesCollection.sol:ERC721SimpleSalesCollection",
        "label": "_initialized",
        "offset": 0,
        "slot": "0",
        "type": "t_uint8"
      },
      {
        "astId": 889,
        "contract": "contracts/collections/ERC721/presets/ERC721SimpleSalesCollection.sol:ERC721SimpleSalesCollection",
        "label": "_initializing",
        "offset": 1,
        "slot": "0",
        "type": "t_bool"
      },
      {
        "astId": 782,
        "contract": "contracts/collections/ERC721/presets/ERC721SimpleSalesCollection.sol:ERC721SimpleSalesCollection",
        "label": "_owner",
        "offset": 2,
        "slot": "0",
        "type": "t_address"
      },
      {
        "astId": 4693,
        "contract": "contracts/collections/ERC721/presets/ERC721SimpleSalesCollection.sol:ERC721SimpleSalesCollection",
        "label": "_supportedInterfaces",
        "offset": 0,
        "slot": "1",
        "type": "t_mapping(t_bytes4,t_bool)"
      },
      {
        "astId": 13776,
        "contract": "contracts/collections/ERC721/presets/ERC721SimpleSalesCollection.sol:ERC721SimpleSalesCollection",
        "label": "withdrawRecipient",
        "offset": 0,
        "slot": "2",
        "type": "t_address"
      },
      {
        "astId": 13778,
        "contract": "contracts/collections/ERC721/presets/ERC721SimpleSalesCollection.sol:ERC721SimpleSalesCollection",
        "label": "withdrawRecipientLocked",
        "offset": 20,
        "slot": "2",
        "type": "t_bool"
      },
      {
        "astId": 13780,
        "contract": "contracts/collections/ERC721/presets/ERC721SimpleSalesCollection.sol:ERC721SimpleSalesCollection",
        "label": "withdrawPowerRevoked",
        "offset": 21,
        "slot": "2",
        "type": "t_bool"
      },
      {
        "astId": 13783,
        "contract": "contracts/collections/ERC721/presets/ERC721SimpleSalesCollection.sol:ERC721SimpleSalesCollection",
        "label": "withdrawMode",
        "offset": 22,
        "slot": "2",
        "type": "t_enum(WithdrawMode)13720"
      },
      {
        "astId": 13785,
        "contract": "contracts/collections/ERC721/presets/ERC721SimpleSalesCollection.sol:ERC721SimpleSalesCollection",
        "label": "withdrawModeLocked",
        "offset": 23,
        "slot": "2",
        "type": "t_bool"
      },
      {
        "astId": 1912,
        "contract": "contracts/collections/ERC721/presets/ERC721SimpleSalesCollection.sol:ERC721SimpleSalesCollection",
        "label": "_name",
        "offset": 0,
        "slot": "3",
        "type": "t_string_storage"
      },
      {
        "astId": 1914,
        "contract": "contracts/collections/ERC721/presets/ERC721SimpleSalesCollection.sol:ERC721SimpleSalesCollection",
        "label": "_symbol",
        "offset": 0,
        "slot": "4",
        "type": "t_string_storage"
      },
      {
        "astId": 1918,
        "contract": "contracts/collections/ERC721/presets/ERC721SimpleSalesCollection.sol:ERC721SimpleSalesCollection",
        "label": "_owners",
        "offset": 0,
        "slot": "5",
        "type": "t_mapping(t_uint256,t_address)"
      },
      {
        "astId": 1922,
        "contract": "contracts/collections/ERC721/presets/ERC721SimpleSalesCollection.sol:ERC721SimpleSalesCollection",
        "label": "_balances",
        "offset": 0,
        "slot": "6",
        "type": "t_mapping(t_address,t_uint256)"
      },
      {
        "astId": 1926,
        "contract": "contracts/collections/ERC721/presets/ERC721SimpleSalesCollection.sol:ERC721SimpleSalesCollection",
        "label": "_tokenApprovals",
        "offset": 0,
        "slot": "7",
        "type": "t_mapping(t_uint256,t_address)"
      },
      {
        "astId": 1932,
        "contract": "contracts/collections/ERC721/presets/ERC721SimpleSalesCollection.sol:ERC721SimpleSalesCollection",
        "label": "_operatorApprovals",
        "offset": 0,
        "slot": "8",
        "type": "t_mapping(t_address,t_mapping(t_address,t_bool))"
      },
      {
        "astId": 7478,
        "contract": "contracts/collections/ERC721/presets/ERC721SimpleSalesCollection.sol:ERC721SimpleSalesCollection",
        "label": "_placeholderURI",
        "offset": 0,
        "slot": "9",
        "type": "t_string_storage"
      },
      {
        "astId": 7480,
        "contract": "contracts/collections/ERC721/presets/ERC721SimpleSalesCollection.sol:ERC721SimpleSalesCollection",
        "label": "_tokenURIPrefix",
        "offset": 0,
        "slot": "10",
        "type": "t_string_storage"
      },
      {
        "astId": 7482,
        "contract": "contracts/collections/ERC721/presets/ERC721SimpleSalesCollection.sol:ERC721SimpleSalesCollection",
        "label": "_tokenURISuffix",
        "offset": 0,
        "slot": "11",
        "type": "t_string_storage"
      },
      {
        "astId": 7484,
        "contract": "contracts/collections/ERC721/presets/ERC721SimpleSalesCollection.sol:ERC721SimpleSalesCollection",
        "label": "tokenURIFrozen",
        "offset": 0,
        "slot": "12",
        "type": "t_bool"
      },
      {
        "astId": 6170,
        "contract": "contracts/collections/ERC721/presets/ERC721SimpleSalesCollection.sol:ERC721SimpleSalesCollection",
        "label": "_name",
        "offset": 0,
        "slot": "13",
        "type": "t_string_storage"
      },
      {
        "astId": 6172,
        "contract": "contracts/collections/ERC721/presets/ERC721SimpleSalesCollection.sol:ERC721SimpleSalesCollection",
        "label": "_symbol",
        "offset": 0,
        "slot": "14",
        "type": "t_string_storage"
      },
      {
        "astId": 6174,
        "contract": "contracts/collections/ERC721/presets/ERC721SimpleSalesCollection.sol:ERC721SimpleSalesCollection",
        "label": "_contractURI",
        "offset": 0,
        "slot": "15",
        "type": "t_string_storage"
      },
      {
        "astId": 5826,
        "contract": "contracts/collections/ERC721/presets/ERC721SimpleSalesCollection.sol:ERC721SimpleSalesCollection",
        "label": "maxSupply",
        "offset": 0,
        "slot": "16",
        "type": "t_uint256"
      },
      {
        "astId": 5828,
        "contract": "contracts/collections/ERC721/presets/ERC721SimpleSalesCollection.sol:ERC721SimpleSalesCollection",
        "label": "maxSupplyFrozen",
        "offset": 0,
        "slot": "17",
        "type": "t_bool"
      },
      {
        "astId": 5831,
        "contract": "contracts/collections/ERC721/presets/ERC721SimpleSalesCollection.sol:ERC721SimpleSalesCollection",
        "label": "_currentTokenId",
        "offset": 0,
        "slot": "18",
        "type": "t_uint256"
      },
      {
        "astId": 1124,
        "contract": "contracts/collections/ERC721/presets/ERC721SimpleSalesCollection.sol:ERC721SimpleSalesCollection",
        "label": "_status",
        "offset": 0,
        "slot": "19",
        "type": "t_uint256"
      },
      {
        "astId": 7201,
        "contract": "contracts/collections/ERC721/presets/ERC721SimpleSalesCollection.sol:ERC721SimpleSalesCollection",
        "label": "preSalePrice",
        "offset": 0,
        "slot": "20",
        "type": "t_uint256"
      },
      {
        "astId": 7203,
        "contract": "contracts/collections/ERC721/presets/ERC721SimpleSalesCollection.sol:ERC721SimpleSalesCollection",
        "label": "preSaleMaxMintPerWallet",
        "offset": 0,
        "slot": "21",
        "type": "t_uint256"
      },
      {
        "astId": 7205,
        "contract": "contracts/collections/ERC721/presets/ERC721SimpleSalesCollection.sol:ERC721SimpleSalesCollection",
        "label": "preSaleAllowlistMerkleRoot",
        "offset": 0,
        "slot": "22",
        "type": "t_bytes32"
      },
      {
        "astId": 7207,
        "contract": "contracts/collections/ERC721/presets/ERC721SimpleSalesCollection.sol:ERC721SimpleSalesCollection",
        "label": "preSaleStatus",
        "offset": 0,
        "slot": "23",
        "type": "t_bool"
      },
      {
        "astId": 7211,
        "contract": "contracts/collections/ERC721/presets/ERC721SimpleSalesCollection.sol:ERC721SimpleSalesCollection",
        "label": "preSaleAllowlistClaimed",
        "offset": 0,
        "slot": "24",
        "type": "t_mapping(t_address,t_uint256)"
      },
      {
        "astId": 7712,
        "contract": "contracts/collections/ERC721/presets/ERC721SimpleSalesCollection.sol:ERC721SimpleSalesCollection",
        "label": "publicSalePrice",
        "offset": 0,
        "slot": "25",
        "type": "t_uint256"
      },
      {
        "astId": 7714,
        "contract": "contracts/collections/ERC721/presets/ERC721SimpleSalesCollection.sol:ERC721SimpleSalesCollection",
        "label": "publicSaleMaxMintPerTx",
        "offset": 0,
        "slot": "26",
        "type": "t_uint256"
      },
      {
        "astId": 7716,
        "contract": "contracts/collections/ERC721/presets/ERC721SimpleSalesCollection.sol:ERC721SimpleSalesCollection",
        "label": "publicSaleStatus",
        "offset": 0,
        "slot": "27",
        "type": "t_bool"
      },
      {
        "astId": 6422,
        "contract": "contracts/collections/ERC721/presets/ERC721SimpleSalesCollection.sol:ERC721SimpleSalesCollection",
        "label": "lockedTokens",
        "offset": 0,
        "slot": "28",
        "type": "t_struct(BitMap)5065_storage"
      },
      {
        "astId": 406,
        "contract": "contracts/collections/ERC721/presets/ERC721SimpleSalesCollection.sol:ERC721SimpleSalesCollection",
        "label": "_roles",
        "offset": 0,
        "slot": "29",
        "type": "t_mapping(t_bytes32,t_struct(RoleData)401_storage)"
      },
      {
        "astId": 86,
        "contract": "contracts/collections/ERC721/presets/ERC721SimpleSalesCollection.sol:ERC721SimpleSalesCollection",
        "label": "defaultRoyalty",
        "offset": 0,
        "slot": "30",
        "type": "t_struct(TokenRoyalty)28_storage"
      },
      {
        "astId": 91,
        "contract": "contracts/collections/ERC721/presets/ERC721SimpleSalesCollection.sol:ERC721SimpleSalesCollection",
        "label": "_tokenRoyalties",
        "offset": 0,
        "slot": "31",
        "type": "t_mapping(t_uint256,t_struct(TokenRoyalty)28_storage)"
      },
      {
        "astId": 94,
        "contract": "contracts/collections/ERC721/presets/ERC721SimpleSalesCollection.sol:ERC721SimpleSalesCollection",
        "label": "_tokensWithRoyalties",
        "offset": 0,
        "slot": "32",
        "type": "t_struct(UintSet)5664_storage"
      },
      {
        "astId": 14056,
        "contract": "contracts/collections/ERC721/presets/ERC721SimpleSalesCollection.sol:ERC721SimpleSalesCollection",
        "label": "_trustedForwarder",
        "offset": 0,
        "slot": "34",
        "type": "t_address"
      }
    ],
    "types": {
      "t_address": {
        "encoding": "inplace",
        "label": "address",
        "numberOfBytes": "20"
      },
      "t_array(t_bytes32)dyn_storage": {
        "base": "t_bytes32",
        "encoding": "dynamic_array",
        "label": "bytes32[]",
        "numberOfBytes": "32"
      },
      "t_bool": {
        "encoding": "inplace",
        "label": "bool",
        "numberOfBytes": "1"
      },
      "t_bytes32": {
        "encoding": "inplace",
        "label": "bytes32",
        "numberOfBytes": "32"
      },
      "t_bytes4": {
        "encoding": "inplace",
        "label": "bytes4",
        "numberOfBytes": "4"
      },
      "t_enum(WithdrawMode)13720": {
        "encoding": "inplace",
        "label": "enum WithdrawMode",
        "numberOfBytes": "1"
      },
      "t_mapping(t_address,t_bool)": {
        "encoding": "mapping",
        "key": "t_address",
        "label": "mapping(address => bool)",
        "numberOfBytes": "32",
        "value": "t_bool"
      },
      "t_mapping(t_address,t_mapping(t_address,t_bool))": {
        "encoding": "mapping",
        "key": "t_address",
        "label": "mapping(address => mapping(address => bool))",
        "numberOfBytes": "32",
        "value": "t_mapping(t_address,t_bool)"
      },
      "t_mapping(t_address,t_uint256)": {
        "encoding": "mapping",
        "key": "t_address",
        "label": "mapping(address => uint256)",
        "numberOfBytes": "32",
        "value": "t_uint256"
      },
      "t_mapping(t_bytes32,t_struct(RoleData)401_storage)": {
        "encoding": "mapping",
        "key": "t_bytes32",
        "label": "mapping(bytes32 => struct AccessControl.RoleData)",
        "numberOfBytes": "32",
        "value": "t_struct(RoleData)401_storage"
      },
      "t_mapping(t_bytes32,t_uint256)": {
        "encoding": "mapping",
        "key": "t_bytes32",
        "label": "mapping(bytes32 => uint256)",
        "numberOfBytes": "32",
        "value": "t_uint256"
      },
      "t_mapping(t_bytes4,t_bool)": {
        "encoding": "mapping",
        "key": "t_bytes4",
        "label": "mapping(bytes4 => bool)",
        "numberOfBytes": "32",
        "value": "t_bool"
      },
      "t_mapping(t_uint256,t_address)": {
        "encoding": "mapping",
        "key": "t_uint256",
        "label": "mapping(uint256 => address)",
        "numberOfBytes": "32",
        "value": "t_address"
      },
      "t_mapping(t_uint256,t_struct(TokenRoyalty)28_storage)": {
        "encoding": "mapping",
        "key": "t_uint256",
        "label": "mapping(uint256 => struct IEIP2981RoyaltyOverride.TokenRoyalty)",
        "numberOfBytes": "32",
        "value": "t_struct(TokenRoyalty)28_storage"
      },
      "t_mapping(t_uint256,t_uint256)": {
        "encoding": "mapping",
        "key": "t_uint256",
        "label": "mapping(uint256 => uint256)",
        "numberOfBytes": "32",
        "value": "t_uint256"
      },
      "t_string_storage": {
        "encoding": "bytes",
        "label": "string",
        "numberOfBytes": "32"
      },
      "t_struct(BitMap)5065_storage": {
        "encoding": "inplace",
        "label": "struct BitMaps.BitMap",
        "members": [
          {
            "astId": 5064,
            "contract": "contracts/collections/ERC721/presets/ERC721SimpleSalesCollection.sol:ERC721SimpleSalesCollection",
            "label": "_data",
            "offset": 0,
            "slot": "0",
            "type": "t_mapping(t_uint256,t_uint256)"
          }
        ],
        "numberOfBytes": "32"
      },
      "t_struct(RoleData)401_storage": {
        "encoding": "inplace",
        "label": "struct AccessControl.RoleData",
        "members": [
          {
            "astId": 398,
            "contract": "contracts/collections/ERC721/presets/ERC721SimpleSalesCollection.sol:ERC721SimpleSalesCollection",
            "label": "members",
            "offset": 0,
            "slot": "0",
            "type": "t_mapping(t_address,t_bool)"
          },
          {
            "astId": 400,
            "contract": "contracts/collections/ERC721/presets/ERC721SimpleSalesCollection.sol:ERC721SimpleSalesCollection",
            "label": "adminRole",
            "offset": 0,
            "slot": "1",
            "type": "t_bytes32"
          }
        ],
        "numberOfBytes": "64"
      },
      "t_struct(Set)5206_storage": {
        "encoding": "inplace",
        "label": "struct EnumerableSet.Set",
        "members": [
          {
            "astId": 5201,
            "contract": "contracts/collections/ERC721/presets/ERC721SimpleSalesCollection.sol:ERC721SimpleSalesCollection",
            "label": "_values",
            "offset": 0,
            "slot": "0",
            "type": "t_array(t_bytes32)dyn_storage"
          },
          {
            "astId": 5205,
            "contract": "contracts/collections/ERC721/presets/ERC721SimpleSalesCollection.sol:ERC721SimpleSalesCollection",
            "label": "_indexes",
            "offset": 0,
            "slot": "1",
            "type": "t_mapping(t_bytes32,t_uint256)"
          }
        ],
        "numberOfBytes": "64"
      },
      "t_struct(TokenRoyalty)28_storage": {
        "encoding": "inplace",
        "label": "struct IEIP2981RoyaltyOverride.TokenRoyalty",
        "members": [
          {
            "astId": 25,
            "contract": "contracts/collections/ERC721/presets/ERC721SimpleSalesCollection.sol:ERC721SimpleSalesCollection",
            "label": "recipient",
            "offset": 0,
            "slot": "0",
            "type": "t_address"
          },
          {
            "astId": 27,
            "contract": "contracts/collections/ERC721/presets/ERC721SimpleSalesCollection.sol:ERC721SimpleSalesCollection",
            "label": "bps",
            "offset": 20,
            "slot": "0",
            "type": "t_uint16"
          }
        ],
        "numberOfBytes": "32"
      },
      "t_struct(UintSet)5664_storage": {
        "encoding": "inplace",
        "label": "struct EnumerableSet.UintSet",
        "members": [
          {
            "astId": 5663,
            "contract": "contracts/collections/ERC721/presets/ERC721SimpleSalesCollection.sol:ERC721SimpleSalesCollection",
            "label": "_inner",
            "offset": 0,
            "slot": "0",
            "type": "t_struct(Set)5206_storage"
          }
        ],
        "numberOfBytes": "64"
      },
      "t_uint16": {
        "encoding": "inplace",
        "label": "uint16",
        "numberOfBytes": "2"
      },
      "t_uint256": {
        "encoding": "inplace",
        "label": "uint256",
        "numberOfBytes": "32"
      },
      "t_uint8": {
        "encoding": "inplace",
        "label": "uint8",
        "numberOfBytes": "1"
      }
    }
  }
}