{
  "address": "0x5dd91C4418e15fcca4DB1D01b5C6f875Ca405055",
  "abi": [
    {
      "inputs": [
        {
          "internalType": "address",
          "name": "operator",
          "type": "address"
        }
      ],
      "name": "OperatorNotAllowed",
      "type": "error"
    },
    {
      "inputs": [],
      "name": "hasRoyaltyEnforcement",
      "outputs": [
        {
          "internalType": "bool",
          "name": "",
          "type": "bool"
        }
      ],
      "stateMutability": "view",
      "type": "function"
    }
  ],
  "transactionHash": "0xc11282158403e59e75859cdf4ec1568b50b9670664099313b242ccfc9bec3317",
  "args": [],
  "numDeployments": 1,
  "solcInputHash": "9443ad2a3db5100723a0d9ac17d7e908",
  "bytecode": "0x608060405234801561001057600080fd5b5060ae8061001f6000396000f3fe6080604052348015600f57600080fd5b506004361060285760003560e01c8063ffa6b6b814602d575b600080fd5b60336047565b604051901515815260200160405180910390f35b600060737f9c1f08fc16fa10f59a3ac18a8c5596ea456f2d66793744df41c7c3e4eb2197905460ff1690565b90509056fea2646970667358221220ac06342d2167c97da28dd0056b98f1be18b497964d0da2a7e869e44248e4a53764736f6c634300080f0033",
  "devdoc": {
    "custom:category": "Tokens",
    "custom:provides-interfaces": "IRoyaltyEnforcement",
    "custom:type": "eip-2535-facet",
    "kind": "dev",
    "methods": {},
    "title": "Royalty Enforcement",
    "version": 1
  },
  "userdoc": {
    "kind": "user",
    "methods": {},
    "notice": "Shows current state of on-chain royalties enforcement on blocklisting marketplaces.",
    "version": 1
  },
  "storageLayout": {
    "storage": [],
    "types": null
  }
}