{
  "address": "0x4A065AD386D7E9e51bD1DeeBED3A95F77c6bB2b7",
  "abi": [
    {
      "anonymous": false,
      "inputs": [
        {
          "indexed": true,
          "internalType": "address",
          "name": "previousOwner",
          "type": "address"
        },
        {
          "indexed": true,
          "internalType": "address",
          "name": "newOwner",
          "type": "address"
        }
      ],
      "name": "OwnershipTransferred",
      "type": "event"
    },
    {
      "inputs": [
        {
          "internalType": "uint256",
          "name": "newTimestamp",
          "type": "uint256"
        }
      ],
      "name": "setBurnablePausedUntil",
      "outputs": [],
      "stateMutability": "nonpayable",
      "type": "function"
    }
  ],
  "transactionHash": "0x58da1cb37da2a5504d2af5298a9674c06bcf36f9fd22272b89a4fabf000d2300",
  "args": [],
  "numDeployments": 1,
  "solcInputHash": "8b83fe4f1427b754fb84de0423d4761a",
  "bytecode": "0x608060405234801561001057600080fd5b5061015c806100206000396000f3fe608060405234801561001057600080fd5b506004361061002b5760003560e01c8063710fb57714610030575b600080fd5b61004361003e36600461010d565b610045565b005b7fc0ea367cb0174dd5521cd2372c76f8c13e6c1f832c71f1d6e0cbc185c9cc8ed45473ffffffffffffffffffffffffffffffffffffffff1633146100e9576040517f08c379a000000000000000000000000000000000000000000000000000000000815260206004820152601d60248201527f4f776e61626c653a2073656e646572206d757374206265206f776e6572000000604482015260640160405180910390fd5b7f7b600420de2644e01d67749445036686fe1148fa35ed898145088a4de1e0640655565b60006020828403121561011f57600080fd5b503591905056fea264697066735822122022480e4572801545ae67d1708c22152bd606e1163d2326d3c7e8ee39a76f19d164736f6c634300080f0033",
  "devdoc": {
    "custom:category": "NFTs",
    "custom:peer-dependencies": "0xdc290004",
    "custom:provides-interfaces": "0x710fb577",
    "custom:type": "eip-2535-facet",
    "kind": "dev",
    "methods": {},
    "title": "Burnable - Admin - Ownable",
    "version": 1
  },
  "userdoc": {
    "kind": "user",
    "methods": {},
    "notice": "Allow contract owner to manage burning mechanism.",
    "version": 1
  },
  "storageLayout": {
    "storage": [],
    "types": null
  }
}