{
  "address": "0x659E1Ad8368CCFD53702cCc1F8cb059F164B2861",
  "abi": [
    {
      "inputs": [],
      "stateMutability": "nonpayable",
      "type": "constructor"
    },
    {
      "inputs": [],
      "name": "ErrWithdrawImpossible",
      "type": "error"
    },
    {
      "inputs": [],
      "name": "ErrWithdrawModeLocked",
      "type": "error"
    },
    {
      "inputs": [],
      "name": "ErrWithdrawOnlyOwner",
      "type": "error"
    },
    {
      "inputs": [],
      "name": "ErrWithdrawOnlyRecipient",
      "type": "error"
    },
    {
      "inputs": [],
      "name": "ErrWithdrawRecipientLocked",
      "type": "error"
    },
    {
      "anonymous": false,
      "inputs": [
        {
          "indexed": true,
          "internalType": "address",
          "name": "previousOwner",
          "type": "address"
        },
        {
          "indexed": true,
          "internalType": "address",
          "name": "newOwner",
          "type": "address"
        }
      ],
      "name": "OwnershipTransferred",
      "type": "event"
    },
    {
      "anonymous": false,
      "inputs": [
        {
          "indexed": true,
          "internalType": "bytes32",
          "name": "role",
          "type": "bytes32"
        },
        {
          "indexed": true,
          "internalType": "bytes32",
          "name": "previousAdminRole",
          "type": "bytes32"
        },
        {
          "indexed": true,
          "internalType": "bytes32",
          "name": "newAdminRole",
          "type": "bytes32"
        }
      ],
      "name": "RoleAdminChanged",
      "type": "event"
    },
    {
      "anonymous": false,
      "inputs": [
        {
          "indexed": true,
          "internalType": "bytes32",
          "name": "role",
          "type": "bytes32"
        },
        {
          "indexed": true,
          "internalType": "address",
          "name": "account",
          "type": "address"
        },
        {
          "indexed": true,
          "internalType": "address",
          "name": "sender",
          "type": "address"
        }
      ],
      "name": "RoleGranted",
      "type": "event"
    },
    {
      "anonymous": false,
      "inputs": [
        {
          "indexed": true,
          "internalType": "bytes32",
          "name": "role",
          "type": "bytes32"
        },
        {
          "indexed": true,
          "internalType": "address",
          "name": "account",
          "type": "address"
        },
        {
          "indexed": true,
          "internalType": "address",
          "name": "sender",
          "type": "address"
        }
      ],
      "name": "RoleRevoked",
      "type": "event"
    },
    {
      "anonymous": false,
      "inputs": [
        {
          "indexed": false,
          "internalType": "enum IWithdrawableInternal.Mode",
          "name": "_mode",
          "type": "uint8"
        }
      ],
      "name": "WithdrawModeChanged",
      "type": "event"
    },
    {
      "anonymous": false,
      "inputs": [],
      "name": "WithdrawModeLocked",
      "type": "event"
    },
    {
      "anonymous": false,
      "inputs": [],
      "name": "WithdrawPowerRevoked",
      "type": "event"
    },
    {
      "anonymous": false,
      "inputs": [
        {
          "indexed": true,
          "internalType": "address",
          "name": "recipient",
          "type": "address"
        }
      ],
      "name": "WithdrawRecipientChanged",
      "type": "event"
    },
    {
      "anonymous": false,
      "inputs": [],
      "name": "WithdrawRecipientLocked",
      "type": "event"
    },
    {
      "anonymous": false,
      "inputs": [
        {
          "indexed": false,
          "internalType": "address[]",
          "name": "claimTokens",
          "type": "address[]"
        },
        {
          "indexed": false,
          "internalType": "uint256[]",
          "name": "amounts",
          "type": "uint256[]"
        }
      ],
      "name": "Withdrawn",
      "type": "event"
    },
    {
      "inputs": [],
      "name": "DEFAULT_ADMIN_ROLE",
      "outputs": [
        {
          "internalType": "bytes32",
          "name": "",
          "type": "bytes32"
        }
      ],
      "stateMutability": "view",
      "type": "function"
    },
    {
      "inputs": [],
      "name": "DEPOSITOR_ROLE",
      "outputs": [
        {
          "internalType": "bytes32",
          "name": "",
          "type": "bytes32"
        }
      ],
      "stateMutability": "view",
      "type": "function"
    },
    {
      "inputs": [
        {
          "internalType": "address",
          "name": "token",
          "type": "address"
        },
        {
          "internalType": "address",
          "name": "wallet",
          "type": "address"
        },
        {
          "internalType": "uint256",
          "name": "amount",
          "type": "uint256"
        }
      ],
      "name": "depositERC20",
      "outputs": [],
      "stateMutability": "payable",
      "type": "function"
    },
    {
      "inputs": [
        {
          "internalType": "address[]",
          "name": "tokens",
          "type": "address[]"
        },
        {
          "internalType": "address[]",
          "name": "wallets",
          "type": "address[]"
        },
        {
          "internalType": "uint256[]",
          "name": "amounts",
          "type": "uint256[]"
        }
      ],
      "name": "depositERC20",
      "outputs": [],
      "stateMutability": "payable",
      "type": "function"
    },
    {
      "inputs": [
        {
          "internalType": "address",
          "name": "wallet",
          "type": "address"
        },
        {
          "internalType": "uint256",
          "name": "amount",
          "type": "uint256"
        }
      ],
      "name": "depositNative",
      "outputs": [],
      "stateMutability": "payable",
      "type": "function"
    },
    {
      "inputs": [
        {
          "internalType": "address[]",
          "name": "wallets",
          "type": "address[]"
        },
        {
          "internalType": "uint256[]",
          "name": "amounts",
          "type": "uint256[]"
        }
      ],
      "name": "depositNative",
      "outputs": [],
      "stateMutability": "payable",
      "type": "function"
    },
    {
      "inputs": [
        {
          "internalType": "bytes32",
          "name": "role",
          "type": "bytes32"
        }
      ],
      "name": "getRoleAdmin",
      "outputs": [
        {
          "internalType": "bytes32",
          "name": "",
          "type": "bytes32"
        }
      ],
      "stateMutability": "view",
      "type": "function"
    },
    {
      "inputs": [
        {
          "internalType": "bytes32",
          "name": "role",
          "type": "bytes32"
        },
        {
          "internalType": "address",
          "name": "account",
          "type": "address"
        }
      ],
      "name": "grantRole",
      "outputs": [],
      "stateMutability": "nonpayable",
      "type": "function"
    },
    {
      "inputs": [
        {
          "internalType": "bytes32",
          "name": "role",
          "type": "bytes32"
        },
        {
          "internalType": "address",
          "name": "account",
          "type": "address"
        }
      ],
      "name": "hasRole",
      "outputs": [
        {
          "internalType": "bool",
          "name": "",
          "type": "bool"
        }
      ],
      "stateMutability": "view",
      "type": "function"
    },
    {
      "inputs": [],
      "name": "owner",
      "outputs": [
        {
          "internalType": "address",
          "name": "",
          "type": "address"
        }
      ],
      "stateMutability": "view",
      "type": "function"
    },
    {
      "inputs": [],
      "name": "renounceOwnership",
      "outputs": [],
      "stateMutability": "nonpayable",
      "type": "function"
    },
    {
      "inputs": [
        {
          "internalType": "bytes32",
          "name": "role",
          "type": "bytes32"
        },
        {
          "internalType": "address",
          "name": "account",
          "type": "address"
        }
      ],
      "name": "renounceRole",
      "outputs": [],
      "stateMutability": "nonpayable",
      "type": "function"
    },
    {
      "inputs": [
        {
          "internalType": "bytes32",
          "name": "role",
          "type": "bytes32"
        },
        {
          "internalType": "address",
          "name": "account",
          "type": "address"
        }
      ],
      "name": "revokeRole",
      "outputs": [],
      "stateMutability": "nonpayable",
      "type": "function"
    },
    {
      "inputs": [
        {
          "internalType": "address",
          "name": "account",
          "type": "address"
        }
      ],
      "name": "transferOwnership",
      "outputs": [],
      "stateMutability": "nonpayable",
      "type": "function"
    },
    {
      "inputs": [
        {
          "internalType": "address[]",
          "name": "claimTokens",
          "type": "address[]"
        },
        {
          "internalType": "uint256[]",
          "name": "amounts",
          "type": "uint256[]"
        }
      ],
      "name": "withdraw",
      "outputs": [],
      "stateMutability": "nonpayable",
      "type": "function"
    },
    {
      "inputs": [],
      "name": "withdrawMode",
      "outputs": [
        {
          "internalType": "enum IWithdrawableInternal.Mode",
          "name": "",
          "type": "uint8"
        }
      ],
      "stateMutability": "view",
      "type": "function"
    },
    {
      "inputs": [],
      "name": "withdrawModeLocked",
      "outputs": [
        {
          "internalType": "bool",
          "name": "",
          "type": "bool"
        }
      ],
      "stateMutability": "view",
      "type": "function"
    },
    {
      "inputs": [],
      "name": "withdrawPowerRevoked",
      "outputs": [
        {
          "internalType": "bool",
          "name": "",
          "type": "bool"
        }
      ],
      "stateMutability": "view",
      "type": "function"
    },
    {
      "inputs": [],
      "name": "withdrawRecipient",
      "outputs": [
        {
          "internalType": "address",
          "name": "",
          "type": "address"
        }
      ],
      "stateMutability": "view",
      "type": "function"
    },
    {
      "inputs": [],
      "name": "withdrawRecipientLocked",
      "outputs": [
        {
          "internalType": "bool",
          "name": "",
          "type": "bool"
        }
      ],
      "stateMutability": "view",
      "type": "function"
    }
  ],
  "transactionHash": "0xd97babf8a3814709d5118b069e82d30c89a6cdf571a9b42a996fd282c59bff46",
  "args": [],
  "numDeployments": 2,
  "solcInputHash": "551ff8bfb2a9b9b6a319e806f10305cd",
  "bytecode": "0x60806040523480156200001157600080fd5b506001600055620000223362000061565b6200002f600033620000c8565b6200005b7f8f4f2da22e8ac8f11e15f9fc141cddbb5deea8800186560abb6e68c5496619a933620000c8565b62000220565b6200008f816200007b620000d860201b62000c0f1760201c565b620000fc60201b62000c331790919060201c565b6040516001600160a01b0382169033907f8be0079c531659141344cd1fd0a4f28419497f9722a3daafe3b4186f6b6457e090600090a350565b620000d4828262000119565b5050565b7fc0ea367cb0174dd5521cd2372c76f8c13e6c1f832c71f1d6e0cbc185c9cc8ed490565b81546001600160a01b0319166001600160a01b0391909116179055565b620001258282620001bb565b620000d457600162000141620001fc60201b62000c5d1760201c565b6000848152602091825260408082206001600160a01b038616835290925220805460ff1916911515919091179055620001773390565b6001600160a01b0316816001600160a01b0316837f2f8788117e7eff1d82e926ec794901d17c78024a50270940304540a733656f0d60405160405180910390a45050565b6000620001d2620001fc60201b62000c5d1760201c565b6000938452602090815260408085206001600160a01b039490941685529290525090205460ff1690565b7f2e59e4c2e927cdddbb64e181e0668d9a0fa70dd88f94d999cd87d5496a20da6290565b611b6780620002306000396000f3fe60806040526004361061015f5760003560e01c80638da5cb5b116100c0578063d547741f11610074578063dcbe353f11610059578063dcbe353f14610435578063de6d6d961461044a578063f2fde38b1461046a57600080fd5b8063d547741f14610402578063da163d651461042257600080fd5b8063a217fddf116100a5578063a217fddf14610369578063a3b0b5a31461037e578063af121f54146103b257600080fd5b80638da5cb5b1461031c57806391d148541461034957600080fd5b806336568abe1161011757806349561cb9116100fc57806349561cb9146102585780636057e0ec146102b6578063715018a61461030757600080fd5b806336568abe1461022557806343d7560c1461024557600080fd5b8063248a9ca311610148578063248a9ca31461018c5780632d00b587146101bf5780632f2ff15d1461020557600080fd5b806302279b4a146101645780631cad5a4014610179575b600080fd5b610177610172366004611695565b61048a565b005b6101776101873660046116bf565b61052d565b34801561019857600080fd5b506101ac6101a73660046116fb565b610646565b6040519081526020015b60405180910390f35b3480156101cb57600080fd5b507f90911dd6b04582315fdcc835c92eb07b11f82eb9def7c511af0f2f9de3ddcfe354600160a01b900460ff166040516101b6919061172a565b34801561021157600080fd5b50610177610220366004611752565b610683565b34801561023157600080fd5b50610177610240366004611752565b6106cc565b6101776102533660046117ca565b6106da565b34801561026457600080fd5b507f90911dd6b04582315fdcc835c92eb07b11f82eb9def7c511af0f2f9de3ddcfe35477010000000000000000000000000000000000000000000000900460ff165b60405190151581526020016101b6565b3480156102c257600080fd5b507f90911dd6b04582315fdcc835c92eb07b11f82eb9def7c511af0f2f9de3ddcfe354760100000000000000000000000000000000000000000000900460ff166102a6565b34801561031357600080fd5b50610177610924565b34801561032857600080fd5b50610331610998565b6040516001600160a01b0390911681526020016101b6565b34801561035557600080fd5b506102a6610364366004611752565b6109a2565b34801561037557600080fd5b506101ac600081565b34801561038a57600080fd5b506101ac7f8f4f2da22e8ac8f11e15f9fc141cddbb5deea8800186560abb6e68c5496619a981565b3480156103be57600080fd5b507f90911dd6b04582315fdcc835c92eb07b11f82eb9def7c511af0f2f9de3ddcfe3547501000000000000000000000000000000000000000000900460ff166102a6565b34801561040e57600080fd5b5061017761041d366004611752565b6109ef565b610177610430366004611864565b610a33565b34801561044157600080fd5b50610331610b7f565b34801561045657600080fd5b50610177610465366004611864565b610b89565b34801561047657600080fd5b506101776104853660046118d0565b610b9b565b7f8f4f2da22e8ac8f11e15f9fc141cddbb5deea8800186560abb6e68c5496619a96104b481610c81565b60026000540361050b5760405162461bcd60e51b815260206004820152601f60248201527f5265656e7472616e637947756172643a207265656e7472616e742063616c6c0060448201526064015b60405180910390fd5b60026000556105236001600160a01b03841683610c8b565b5050600160005550565b7f8f4f2da22e8ac8f11e15f9fc141cddbb5deea8800186560abb6e68c5496619a961055781610c81565b6002600054036105a95760405162461bcd60e51b815260206004820152601f60248201527f5265656e7472616e637947756172643a207265656e7472616e742063616c6c006044820152606401610502565b60026000556040517fa9059cbb0000000000000000000000000000000000000000000000000000000081526001600160a01b0384811660048301526024820184905285169063a9059cbb906044016020604051808303816000875af1158015610616573d6000803e3d6000fd5b505050506040513d601f19601f8201168201806040525081019061063a91906118eb565b50506001600055505050565b60008181527f2e59e4c2e927cdddbb64e181e0668d9a0fa70dd88f94d999cd87d5496a20da6260205260408120600101545b92915050565b905090565b60008281527f2e59e4c2e927cdddbb64e181e0668d9a0fa70dd88f94d999cd87d5496a20da6260205260409020600101546106bd81610c81565b6106c78383610da4565b505050565b6106d68282610e67565b5050565b7f8f4f2da22e8ac8f11e15f9fc141cddbb5deea8800186560abb6e68c5496619a961070481610c81565b6002600054036107565760405162461bcd60e51b815260206004820152601f60248201527f5265656e7472616e637947756172643a207265656e7472616e742063616c6c006044820152606401610502565b60026000558382146107aa5760405162461bcd60e51b815260206004820152601a60248201527f4465706f7369746f72793a20696e76616c6964206c656e6774680000000000006044820152606401610502565b8386146107f95760405162461bcd60e51b815260206004820152601a60248201527f4465706f7369746f72793a20696e76616c6964206c656e6774680000000000006044820152606401610502565b60005b84811015610915578787828181106108165761081661190d565b905060200201602081019061082b91906118d0565b6001600160a01b031663a9059cbb87878481811061084b5761084b61190d565b905060200201602081019061086091906118d0565b8686858181106108725761087261190d565b6040517fffffffff0000000000000000000000000000000000000000000000000000000060e087901b1681526001600160a01b03909416600485015260200291909101356024830152506044016020604051808303816000875af11580156108de573d6000803e3d6000fd5b505050506040513d601f19601f8201168201806040525081019061090291906118eb565b508061090d81611939565b9150506107fc565b50506001600055505050505050565b61092c610eef565b6001600160a01b0316336001600160a01b03161461098c5760405162461bcd60e51b815260206004820152601d60248201527f4f776e61626c653a2073656e646572206d757374206265206f776e65720000006044820152606401610502565b6109966000610f22565b565b600061067e610eef565b60008281527f2e59e4c2e927cdddbb64e181e0668d9a0fa70dd88f94d999cd87d5496a20da62602090815260408083206001600160a01b038516845290915281205460ff165b9392505050565b60008281527f2e59e4c2e927cdddbb64e181e0668d9a0fa70dd88f94d999cd87d5496a20da626020526040902060010154610a2981610c81565b6106c78383610fa2565b7f8f4f2da22e8ac8f11e15f9fc141cddbb5deea8800186560abb6e68c5496619a9610a5d81610c81565b600260005403610aaf5760405162461bcd60e51b815260206004820152601f60248201527f5265656e7472616e637947756172643a207265656e7472616e742063616c6c006044820152606401610502565b6002600055838214610b035760405162461bcd60e51b815260206004820152601a60248201527f4465706f7369746f72793a20696e76616c6964206c656e6774680000000000006044820152606401610502565b60005b84811015610b7257610b60848483818110610b2357610b2361190d565b90506020020135878784818110610b3c57610b3c61190d565b9050602002016020810190610b5191906118d0565b6001600160a01b031690610c8b565b80610b6a81611939565b915050610b06565b5050600160005550505050565b600061067e611063565b610b958484848461108b565b50505050565b610ba3610eef565b6001600160a01b0316336001600160a01b031614610c035760405162461bcd60e51b815260206004820152601d60248201527f4f776e61626c653a2073656e646572206d757374206265206f776e65720000006044820152606401610502565b610c0c81610f22565b50565b7fc0ea367cb0174dd5521cd2372c76f8c13e6c1f832c71f1d6e0cbc185c9cc8ed490565b815473ffffffffffffffffffffffffffffffffffffffff19166001600160a01b0391909116179055565b7f2e59e4c2e927cdddbb64e181e0668d9a0fa70dd88f94d999cd87d5496a20da6290565b610c0c81336113aa565b80471015610cdb5760405162461bcd60e51b815260206004820152601d60248201527f416464726573733a20696e73756666696369656e742062616c616e63650000006044820152606401610502565b6000826001600160a01b03168260405160006040518083038185875af1925050503d8060008114610d28576040519150601f19603f3d011682016040523d82523d6000602084013e610d2d565b606091505b50509050806106c75760405162461bcd60e51b815260206004820152603a60248201527f416464726573733a20756e61626c6520746f2073656e642076616c75652c207260448201527f6563697069656e74206d617920686176652072657665727465640000000000006064820152608401610502565b60008281527f2e59e4c2e927cdddbb64e181e0668d9a0fa70dd88f94d999cd87d5496a20da62602090815260408083206001600160a01b038516845290915290205460ff166106d65760008281527f2e59e4c2e927cdddbb64e181e0668d9a0fa70dd88f94d999cd87d5496a20da62602090815260408083206001600160a01b0385168085529252808320805460ff1916600117905551339285917f2f8788117e7eff1d82e926ec794901d17c78024a50270940304540a733656f0d9190a45050565b6001600160a01b0381163314610ee55760405162461bcd60e51b815260206004820152602f60248201527f416363657373436f6e74726f6c3a2063616e206f6e6c792072656e6f756e636560448201527f20726f6c657320666f722073656c6600000000000000000000000000000000006064820152608401610502565b6106d68282610fa2565b60007fc0ea367cb0174dd5521cd2372c76f8c13e6c1f832c71f1d6e0cbc185c9cc8ed45b546001600160a01b0316919050565b7fc0ea367cb0174dd5521cd2372c76f8c13e6c1f832c71f1d6e0cbc185c9cc8ed4805473ffffffffffffffffffffffffffffffffffffffff19166001600160a01b0383161790556040516001600160a01b0382169033907f8be0079c531659141344cd1fd0a4f28419497f9722a3daafe3b4186f6b6457e090600090a350565b60008281527f2e59e4c2e927cdddbb64e181e0668d9a0fa70dd88f94d999cd87d5496a20da62602090815260408083206001600160a01b038516845290915290205460ff16156106d65760008281527f2e59e4c2e927cdddbb64e181e0668d9a0fa70dd88f94d999cd87d5496a20da62602090815260408083206001600160a01b0385168085529252808320805460ff1916905551339285917ff6391f5c32d9c69d2a47ea670b442974b53935d1edc7fd64eb21e047a839171b9190a45050565b60007f90911dd6b04582315fdcc835c92eb07b11f82eb9def7c511af0f2f9de3ddcfe3610f13565b7f90911dd6b04582315fdcc835c92eb07b11f82eb9def7c511af0f2f9de3ddcfe38054600390600160a01b900460ff16818111156110cb576110cb611714565b036110e95760405163d4f0dd9760e01b815260040160405180910390fd5b60018154600160a01b900460ff16600381111561110857611108611714565b036111545780546001600160a01b0316331461114f576040517e2311a600000000000000000000000000000000000000000000000000000000815260040160405180910390fd5b6111c1565b60008154600160a01b900460ff16600381111561117357611173611714565b036111c15733611181610eef565b6001600160a01b0316146111c1576040517fe3c30fea00000000000000000000000000000000000000000000000000000000815260040160405180910390fd5b80547501000000000000000000000000000000000000000000900460ff16156111fd5760405163d4f0dd9760e01b815260040160405180910390fd5b60005b8481101561136557600086868381811061121c5761121c61190d565b905060200201602081019061123191906118d0565b6001600160a01b0316036112735761126e8484838181106112545761125461190d565b85546001600160a01b031692602090910201359050610c8b565b611353565b8585828181106112855761128561190d565b905060200201602081019061129a91906118d0565b82546001600160a01b039182169163a9059cbb91168686858181106112c1576112c161190d565b6040517fffffffff0000000000000000000000000000000000000000000000000000000060e087901b1681526001600160a01b03909416600485015260200291909101356024830152506044016020604051808303816000875af115801561132d573d6000803e3d6000fd5b505050506040513d601f19601f8201168201806040525081019061135191906118eb565b505b8061135d81611939565b915050611200565b507fd40c399a83caf67d15628b821aa7c7bd940e563c57a047e2bd3b8c602bcaf5a58585858560405161139b9493929190611952565b60405180910390a15050505050565b60008281527f2e59e4c2e927cdddbb64e181e0668d9a0fa70dd88f94d999cd87d5496a20da62602090815260408083206001600160a01b038516845290915290205460ff166106d6576113fc8161143e565b611407836020611450565b604051602001611418929190611a19565b60408051601f198184030181529082905262461bcd60e51b825261050291600401611a9a565b60606106786001600160a01b03831660145b6060600061145f836002611acd565b61146a906002611aec565b67ffffffffffffffff81111561148257611482611b04565b6040519080825280601f01601f1916602001820160405280156114ac576020820181803683370190505b5090507f3000000000000000000000000000000000000000000000000000000000000000816000815181106114e3576114e361190d565b60200101907effffffffffffffffffffffffffffffffffffffffffffffffffffffffffffff1916908160001a9053507f7800000000000000000000000000000000000000000000000000000000000000816001815181106115465761154661190d565b60200101907effffffffffffffffffffffffffffffffffffffffffffffffffffffffffffff1916908160001a9053506000611582846002611acd565b61158d906001611aec565b90505b600181111561162a577f303132333435363738396162636465660000000000000000000000000000000085600f16601081106115ce576115ce61190d565b1a60f81b8282815181106115e4576115e461190d565b60200101907effffffffffffffffffffffffffffffffffffffffffffffffffffffffffffff1916908160001a90535060049490941c9361162381611b1a565b9050611590565b5083156109e85760405162461bcd60e51b815260206004820181905260248201527f537472696e67733a20686578206c656e67746820696e73756666696369656e746044820152606401610502565b80356001600160a01b038116811461169057600080fd5b919050565b600080604083850312156116a857600080fd5b6116b183611679565b946020939093013593505050565b6000806000606084860312156116d457600080fd5b6116dd84611679565b92506116eb60208501611679565b9150604084013590509250925092565b60006020828403121561170d57600080fd5b5035919050565b634e487b7160e01b600052602160045260246000fd5b602081016004831061174c57634e487b7160e01b600052602160045260246000fd5b91905290565b6000806040838503121561176557600080fd5b8235915061177560208401611679565b90509250929050565b60008083601f84011261179057600080fd5b50813567ffffffffffffffff8111156117a857600080fd5b6020830191508360208260051b85010111156117c357600080fd5b9250929050565b600080600080600080606087890312156117e357600080fd5b863567ffffffffffffffff808211156117fb57600080fd5b6118078a838b0161177e565b9098509650602089013591508082111561182057600080fd5b61182c8a838b0161177e565b9096509450604089013591508082111561184557600080fd5b5061185289828a0161177e565b979a9699509497509295939492505050565b6000806000806040858703121561187a57600080fd5b843567ffffffffffffffff8082111561189257600080fd5b61189e8883890161177e565b909650945060208701359150808211156118b757600080fd5b506118c48782880161177e565b95989497509550505050565b6000602082840312156118e257600080fd5b6109e882611679565b6000602082840312156118fd57600080fd5b815180151581146109e857600080fd5b634e487b7160e01b600052603260045260246000fd5b634e487b7160e01b600052601160045260246000fd5b60006001820161194b5761194b611923565b5060010190565b6040808252810184905260008560608301825b87811015611993576001600160a01b0361197e84611679565b16825260209283019290910190600101611965565b5083810360208501528481527f07ffffffffffffffffffffffffffffffffffffffffffffffffffffffffffffff8511156119cc57600080fd5b8460051b915081866020830137600091016020019081529695505050505050565b60005b83811015611a085781810151838201526020016119f0565b83811115610b955750506000910152565b7f416363657373436f6e74726f6c3a206163636f756e7420000000000000000000815260008351611a518160178501602088016119ed565b7f206973206d697373696e6720726f6c65200000000000000000000000000000006017918401918201528351611a8e8160288401602088016119ed565b01602801949350505050565b6020815260008251806020840152611ab98160408501602087016119ed565b601f01601f19169190910160400192915050565b6000816000190483118215151615611ae757611ae7611923565b500290565b60008219821115611aff57611aff611923565b500190565b634e487b7160e01b600052604160045260246000fd5b600081611b2957611b29611923565b50600019019056fea2646970667358221220793b714e430b029fad255983eecc3bb3decc43ae1c91ec11d1e8cc80e5e3f1cd64736f6c634300080f0033",
  "devdoc": {
    "kind": "dev",
    "methods": {
      "getRoleAdmin(bytes32)": {
        "details": "Returns the admin role that controls `role`. See {grantRole} and {revokeRole}. To change a role's admin, use {AccessControl-_setRoleAdmin}."
      },
      "grantRole(bytes32,address)": {
        "details": "Grants `role` to `account`. If `account` had not been already granted `role`, emits a {RoleGranted} event. Requirements: - the caller must have ``role``'s admin role."
      },
      "hasRole(bytes32,address)": {
        "details": "Returns `true` if `account` has been granted `role`."
      },
      "owner()": {
        "returns": {
          "_0": "conrtact owner"
        }
      },
      "renounceOwnership()": {
        "details": "Leaves the contract without owner. It will not be possible to call `onlyOwner` functions anymore. Can only be called by the current owner. NOTE: Renouncing ownership will leave the contract without an owner, thereby removing any functionality that is only available to the owner."
      },
      "renounceRole(bytes32,address)": {
        "details": "Revokes `role` from the calling account. Roles are often managed via {grantRole} and {revokeRole}: this function's purpose is to provide a mechanism for accounts to lose their privileges if they are compromised (such as when a trusted device is misplaced). If the calling account had been granted `role`, emits a {RoleRevoked} event. Requirements: - the caller must be `account`."
      },
      "revokeRole(bytes32,address)": {
        "details": "Revokes `role` from `account`. If `account` had been granted `role`, emits a {RoleRevoked} event. Requirements: - the caller must have ``role``'s admin role."
      },
      "transferOwnership(address)": {
        "params": {
          "account": "address of new owner"
        }
      }
    },
    "version": 1
  },
  "userdoc": {
    "kind": "user",
    "methods": {
      "owner()": {
        "notice": "get the ERC173 contract owner"
      },
      "transferOwnership(address)": {
        "notice": "transfer contract ownership to new account"
      }
    },
    "version": 1
  },
  "storageLayout": {
    "storage": [
      {
        "astId": 471,
        "contract": "src/common/Depository.sol:Depository",
        "label": "_status",
        "offset": 0,
        "slot": "0",
        "type": "t_uint256"
      }
    ],
    "types": {
      "t_uint256": {
        "encoding": "inplace",
        "label": "uint256",
        "numberOfBytes": "32"
      }
    }
  }
}