{
  "address": "0x8EeE7196CD5a4643CdB49CeeaAA381c507620033",
  "abi": [
    {
      "inputs": [
        {
          "internalType": "address",
          "name": "facet",
          "type": "address"
        },
        {
          "internalType": "bytes4",
          "name": "selector",
          "type": "bytes4"
        }
      ],
      "name": "ErrDiamondFacetAlreadyExists",
      "type": "error"
    },
    {
      "inputs": [
        {
          "internalType": "address",
          "name": "facet",
          "type": "address"
        },
        {
          "internalType": "bytes4",
          "name": "selector",
          "type": "bytes4"
        }
      ],
      "name": "ErrDiamondFacetSameFunction",
      "type": "error"
    },
    {
      "anonymous": false,
      "inputs": [
        {
          "components": [
            {
              "internalType": "address",
              "name": "facetAddress",
              "type": "address"
            },
            {
              "internalType": "enum IDiamondCut.FacetCutAction",
              "name": "action",
              "type": "uint8"
            },
            {
              "internalType": "bytes4[]",
              "name": "functionSelectors",
              "type": "bytes4[]"
            }
          ],
          "indexed": false,
          "internalType": "struct IDiamondCut.FacetCut[]",
          "name": "_diamondCut",
          "type": "tuple[]"
        },
        {
          "indexed": false,
          "internalType": "address",
          "name": "_init",
          "type": "address"
        },
        {
          "indexed": false,
          "internalType": "bytes",
          "name": "_calldata",
          "type": "bytes"
        }
      ],
      "name": "DiamondCut",
      "type": "event"
    },
    {
      "anonymous": false,
      "inputs": [
        {
          "indexed": true,
          "internalType": "address",
          "name": "previousOwner",
          "type": "address"
        },
        {
          "indexed": true,
          "internalType": "address",
          "name": "newOwner",
          "type": "address"
        }
      ],
      "name": "OwnershipTransferred",
      "type": "event"
    },
    {
      "inputs": [
        {
          "components": [
            {
              "internalType": "address",
              "name": "facetAddress",
              "type": "address"
            },
            {
              "internalType": "enum IDiamondCut.FacetCutAction",
              "name": "action",
              "type": "uint8"
            },
            {
              "internalType": "bytes4[]",
              "name": "functionSelectors",
              "type": "bytes4[]"
            }
          ],
          "internalType": "struct IDiamondCut.FacetCut[]",
          "name": "_diamondCut",
          "type": "tuple[]"
        },
        {
          "internalType": "address",
          "name": "_init",
          "type": "address"
        },
        {
          "internalType": "bytes",
          "name": "_calldata",
          "type": "bytes"
        }
      ],
      "name": "diamondCut",
      "outputs": [],
      "stateMutability": "nonpayable",
      "type": "function"
    },
    {
      "inputs": [],
      "name": "versionIDiamondCut",
      "outputs": [
        {
          "internalType": "string",
          "name": "",
          "type": "string"
        }
      ],
      "stateMutability": "pure",
      "type": "function"
    }
  ],
  "transactionHash": "0xb772ada16b9fca5cd0df65ede4302fd995ef15f691af7f92bd1871c6cd9d94da",
  "args": [],
  "numDeployments": 4,
  "solcInputHash": "c55c02555ed2787a9a3699470ac3d317",
  "bytecode": "0x608060405234801561001057600080fd5b50611600806100206000396000f3fe608060405234801561001057600080fd5b50600436106100365760003560e01c80631f931c1c1461003b57806373db1f5514610050575b600080fd5b61004e610049366004610f93565b610098565b005b604080518082018252600381527f322e7800000000000000000000000000000000000000000000000000000000006020820152905161008f91906110bb565b60405180910390f35b7fc0ea367cb0174dd5521cd2372c76f8c13e6c1f832c71f1d6e0cbc185c9cc8ed4546001600160a01b031633146101165760405162461bcd60e51b815260206004820152601d60248201527f4f776e61626c653a2073656e646572206d757374206265206f776e657200000060448201526064015b60405180910390fd5b61016061012385876111a0565b8484848080601f01602080910402602001604051908101604052809392919081815260200183838082843760009201919091525061016792505050565b5050505050565b60005b8351811015610343576000848281518110610187576101876112fc565b6020026020010151602001519050600060028111156101a8576101a861132b565b8160028111156101ba576101ba61132b565b03610208576102038583815181106101d4576101d46112fc565b6020026020010151600001518684815181106101f2576101f26112fc565b60200260200101516040015161038e565b610330565b600181600281111561021c5761021c61132b565b0361026557610203858381518110610236576102366112fc565b602002602001015160000151868481518110610254576102546112fc565b6020026020010151604001516105dc565b60028160028111156102795761027961132b565b036102c257610203858381518110610293576102936112fc565b6020026020010151600001518684815181106102b1576102b16112fc565b60200260200101516040015161083a565b60405162461bcd60e51b815260206004820152602760248201527f4c69624469616d6f6e644375743a20496e636f7272656374204661636574437560448201527f74416374696f6e00000000000000000000000000000000000000000000000000606482015260840161010d565b508061033b81611389565b91505061016a565b507f8faa70878671ccd212d20771b795c50af8fd3ff6cf27f4bde57e5d4de0aeb673838383604051610377939291906113a3565b60405180910390a161038982826108eb565b505050565b6001600160a01b03821660009081527fc8fcad8db84d3cc18b4c41d551ea0ee66dd599cde068d998e57d5e09332c131d60205260408120547fc8fcad8db84d3cc18b4c41d551ea0ee66dd599cde068d998e57d5e09332c131c916bffffffffffffffffffffffff82169003610407576104078285610b0f565b60005b8351811015610160576000848281518110610427576104276112fc565b6020908102919091018101517fffffffff0000000000000000000000000000000000000000000000000000000081166000908152918690526040909120549091506001600160a01b031680156104dc576040517f345e19060000000000000000000000000000000000000000000000000000000081526001600160a01b03821660048201527fffffffff000000000000000000000000000000000000000000000000000000008316602482015260440161010d565b7fffffffff00000000000000000000000000000000000000000000000000000000821660008181526020878152604080832080546001600160a01b03908116740100000000000000000000000000000000000000006bffffffffffffffffffffffff8c16021782558c168085526001808c0185529285208054938401815585528385206008840401805463ffffffff60079095166004026101000a948502191660e08a901c94909402939093179092559390925287905281547fffffffffffffffffffffffff000000000000000000000000000000000000000016179055836105c4816114f1565b945050505080806105d490611389565b91505061040a565b6001600160a01b03821660009081527fc8fcad8db84d3cc18b4c41d551ea0ee66dd599cde068d998e57d5e09332c131d60205260408120547fc8fcad8db84d3cc18b4c41d551ea0ee66dd599cde068d998e57d5e09332c131c916bffffffffffffffffffffffff82169003610655576106558285610b0f565b60005b8351811015610160576000848281518110610675576106756112fc565b6020908102919091018101517fffffffff0000000000000000000000000000000000000000000000000000000081166000908152918690526040909120549091506001600160a01b03908116908716810361072f576040517f5938caf10000000000000000000000000000000000000000000000000000000081526001600160a01b03821660048201527fffffffff000000000000000000000000000000000000000000000000000000008316602482015260440161010d565b61073a858284610b91565b7fffffffff00000000000000000000000000000000000000000000000000000000821660008181526020878152604080832080546001600160a01b03908116740100000000000000000000000000000000000000006bffffffffffffffffffffffff8c16021782558c168085526001808c0185529285208054938401815585528385206008840401805463ffffffff60079095166004026101000a948502191660e08a901c94909402939093179092559390925287905281547fffffffffffffffffffffffff00000000000000000000000000000000000000001617905583610822816114f1565b9450505050808061083290611389565b915050610658565b7fc8fcad8db84d3cc18b4c41d551ea0ee66dd599cde068d998e57d5e09332c131c60005b82518110156108e557600083828151811061087b5761087b6112fc565b6020908102919091018101517fffffffff0000000000000000000000000000000000000000000000000000000081166000908152918590526040909120549091506001600160a01b03166108d0848284610b91565b505080806108dd90611389565b91505061085e565b50505050565b6001600160a01b0382166109725780511561096e5760405162461bcd60e51b815260206004820152603c60248201527f4c69624469616d6f6e644375743a205f696e697420697320616464726573732860448201527f3029206275745f63616c6c64617461206973206e6f7420656d70747900000000606482015260840161010d565b5050565b60008151116109e95760405162461bcd60e51b815260206004820152603d60248201527f4c69624469616d6f6e644375743a205f63616c6c6461746120697320656d707460448201527f7920627574205f696e6974206973206e6f742061646472657373283029000000606482015260840161010d565b6001600160a01b0382163014610a1b57610a1b8260405180606001604052806028815260200161157f60289139610f0d565b600080836001600160a01b031683604051610a36919061151c565b600060405180830381855af49150503d8060008114610a71576040519150601f19603f3d011682016040523d82523d6000602084013e610a76565b606091505b5091509150816108e557805115610aa1578060405162461bcd60e51b815260040161010d91906110bb565b60405162461bcd60e51b815260206004820152602660248201527f4c69624469616d6f6e644375743a205f696e69742066756e6374696f6e20726560448201527f7665727465640000000000000000000000000000000000000000000000000000606482015260840161010d565b610b31816040518060600160405280602481526020016115a760249139610f0d565b6002820180546001600160a01b0390921660008181526001948501602090815260408220860185905594840183559182529290200180547fffffffffffffffffffffffff0000000000000000000000000000000000000000169091179055565b7fffffffff000000000000000000000000000000000000000000000000000000008116600090815260208481526040808320546001600160a01b0386168452600180880190935290832054740100000000000000000000000000000000000000009091046bffffffffffffffffffffffff169291610c0e91611538565b9050808214610d2e576001600160a01b03841660009081526001860160205260408120805483908110610c4357610c436112fc565b600091825260208083206008830401546001600160a01b038916845260018a019091526040909220805460079092166004026101000a90920460e01b925082919085908110610c9457610c946112fc565b600091825260208083206008830401805463ffffffff60079094166004026101000a938402191660e09590951c929092029390931790557fffffffff000000000000000000000000000000000000000000000000000000009290921682528690526040902080546001600160a01b0316740100000000000000000000000000000000000000006bffffffffffffffffffffffff8516021790555b6001600160a01b03841660009081526001860160205260409020805480610d5757610d5761154f565b60008281526020808220600860001990940193840401805463ffffffff600460078716026101000a0219169055919092557fffffffff000000000000000000000000000000000000000000000000000000008516825286905260408120819055819003610160576002850154600090610dd290600190611538565b6001600160a01b0386166000908152600180890160205260409091200154909150808214610e99576000876002018381548110610e1157610e116112fc565b6000918252602090912001546002890180546001600160a01b039092169250829184908110610e4257610e426112fc565b600091825260208083209190910180547fffffffffffffffffffffffff0000000000000000000000000000000000000000166001600160a01b03948516179055929091168152600189810190925260409020018190555b86600201805480610eac57610eac61154f565b60008281526020808220830160001990810180547fffffffffffffffffffffffff00000000000000000000000000000000000000001690559092019092556001600160a01b0388168252600189810190915260408220015550505050505050565b813b81816108e55760405162461bcd60e51b815260040161010d91906110bb565b80356001600160a01b0381168114610f4557600080fd5b919050565b60008083601f840112610f5c57600080fd5b50813567ffffffffffffffff811115610f7457600080fd5b602083019150836020828501011115610f8c57600080fd5b9250929050565b600080600080600060608688031215610fab57600080fd5b853567ffffffffffffffff80821115610fc357600080fd5b818801915088601f830112610fd757600080fd5b813581811115610fe657600080fd5b8960208260051b8501011115610ffb57600080fd5b6020830197508096505061101160208901610f2e565b9450604088013591508082111561102757600080fd5b5061103488828901610f4a565b969995985093965092949392505050565b60005b83811015611060578181015183820152602001611048565b838111156108e55750506000910152565b60008151808452611089816020860160208601611045565b601f017fffffffffffffffffffffffffffffffffffffffffffffffffffffffffffffffe0169290920160200192915050565b6020815260006110ce6020830184611071565b9392505050565b7f4e487b7100000000000000000000000000000000000000000000000000000000600052604160045260246000fd5b6040516060810167ffffffffffffffff81118282101715611127576111276110d5565b60405290565b604051601f82017fffffffffffffffffffffffffffffffffffffffffffffffffffffffffffffffe016810167ffffffffffffffff81118282101715611174576111746110d5565b604052919050565b600067ffffffffffffffff821115611196576111966110d5565b5060051b60200190565b60006111b36111ae8461117c565b61112d565b83815260208082019190600586811b8601368111156111d157600080fd5b865b818110156112ef57803567ffffffffffffffff808211156111f45760008081fd5b818a0191506060823603121561120a5760008081fd5b611212611104565b61121b83610f2e565b8152868301356003811061122f5760008081fd5b81880152604083810135838111156112475760008081fd5b939093019236601f85011261125e57600092508283fd5b8335925061126e6111ae8461117c565b83815292871b8401880192888101903685111561128b5760008081fd5b948901945b848610156112d85785357fffffffff00000000000000000000000000000000000000000000000000000000811681146112c95760008081fd5b82529489019490890190611290565b9183019190915250885250509483019483016111d3565b5092979650505050505050565b7f4e487b7100000000000000000000000000000000000000000000000000000000600052603260045260246000fd5b7f4e487b7100000000000000000000000000000000000000000000000000000000600052602160045260246000fd5b7f4e487b7100000000000000000000000000000000000000000000000000000000600052601160045260246000fd5b6000600019820361139c5761139c61135a565b5060010190565b60006060808301818452808751808352608092508286019150828160051b8701016020808b0160005b848110156114c1577fffffffffffffffffffffffffffffffffffffffffffffffffffffffffffffff808a850301865281518885016001600160a01b0382511686528482015160038110611448577f4e487b7100000000000000000000000000000000000000000000000000000000600052602160045260246000fd5b868601526040918201519186018a905281519081905290840190600090898701905b808310156114ac5783517fffffffff0000000000000000000000000000000000000000000000000000000016825292860192600192909201919086019061146a565b509785019795505050908201906001016113cc565b50506001600160a01b038a169088015286810360408801526114e38189611071565b9a9950505050505050505050565b60006bffffffffffffffffffffffff8083168181036115125761151261135a565b6001019392505050565b6000825161152e818460208701611045565b9190910192915050565b60008282101561154a5761154a61135a565b500390565b7f4e487b7100000000000000000000000000000000000000000000000000000000600052603160045260246000fdfe4c69624469616d6f6e644375743a205f696e6974206164647265737320686173206e6f20636f64654c69624469616d6f6e644375743a204e657720666163657420686173206e6f20636f6465a26469706673582212208c2ac9879768884960eafa42d100d905fe8c9a328b510f49b0400dd892ed7e8664736f6c634300080f0033",
  "devdoc": {
    "custom:category": "Diamonds",
    "custom:provides-interfaces": "IDiamondCut",
    "custom:type": "eip-2535-facet",
    "kind": "dev",
    "methods": {
      "diamondCut((address,uint8,bytes4[])[],address,bytes)": {
        "params": {
          "_calldata": "A function call, including function selector and arguments                  _calldata is executed with delegatecall on _init",
          "_diamondCut": "Contains the facet addresses and function selectors",
          "_init": "The address of the contract or facet to execute _calldata"
        }
      }
    },
    "title": "Diamond - Cut",
    "version": 1
  },
  "userdoc": {
    "kind": "user",
    "methods": {
      "diamondCut((address,uint8,bytes4[])[],address,bytes)": {
        "notice": "Add/replace/remove any number of functions and optionally execute         a function with delegatecall"
      }
    },
    "notice": "Standard EIP-2535 cut functionality to add, replace and remove facets from a diamond.",
    "version": 1
  },
  "storageLayout": {
    "storage": [],
    "types": null
  }
}