{
  "address": "0x3dE9781e5E984F45819E0F4891d1EA1db2dF7917",
  "abi": [
    {
      "inputs": [
        {
          "internalType": "bytes4",
          "name": "_functionSelector",
          "type": "bytes4"
        }
      ],
      "name": "facetAddress",
      "outputs": [
        {
          "internalType": "address",
          "name": "facetAddress_",
          "type": "address"
        }
      ],
      "stateMutability": "view",
      "type": "function"
    },
    {
      "inputs": [],
      "name": "facetAddresses",
      "outputs": [
        {
          "internalType": "address[]",
          "name": "facetAddresses_",
          "type": "address[]"
        }
      ],
      "stateMutability": "view",
      "type": "function"
    },
    {
      "inputs": [
        {
          "internalType": "address",
          "name": "_facet",
          "type": "address"
        }
      ],
      "name": "facetFunctionSelectors",
      "outputs": [
        {
          "internalType": "bytes4[]",
          "name": "facetFunctionSelectors_",
          "type": "bytes4[]"
        }
      ],
      "stateMutability": "view",
      "type": "function"
    },
    {
      "inputs": [],
      "name": "facets",
      "outputs": [
        {
          "components": [
            {
              "internalType": "address",
              "name": "facetAddress",
              "type": "address"
            },
            {
              "internalType": "bytes4[]",
              "name": "functionSelectors",
              "type": "bytes4[]"
            }
          ],
          "internalType": "struct IDiamondLoupe.Facet[]",
          "name": "facets_",
          "type": "tuple[]"
        }
      ],
      "stateMutability": "view",
      "type": "function"
    },
    {
      "inputs": [],
      "name": "versionIDiamondLoupe",
      "outputs": [
        {
          "internalType": "string",
          "name": "",
          "type": "string"
        }
      ],
      "stateMutability": "pure",
      "type": "function"
    }
  ],
  "transactionHash": "0x02060a138ff7c943eacad10b2ea20597d6619074fec6dc1a42b0651c1b005fc9",
  "args": [],
  "numDeployments": 4,
  "solcInputHash": "c55c02555ed2787a9a3699470ac3d317",
  "bytecode": "0x608060405234801561001057600080fd5b5061088f806100206000396000f3fe608060405234801561001057600080fd5b50600436106100675760003560e01c8063adfca15e11610050578063adfca15e1461009f578063cdffacc6146100bf578063ce124def1461015b57600080fd5b806352ef6b2c1461006c5780637a0ed6271461008a575b600080fd5b61007461019a565b6040516100819190610538565b60405180910390f35b61009261022c565b60405161008191906105ef565b6100b26100ad366004610697565b610438565b60405161008191906106d4565b6101366100cd3660046106e7565b7fffffffff000000000000000000000000000000000000000000000000000000001660009081527fc8fcad8db84d3cc18b4c41d551ea0ee66dd599cde068d998e57d5e09332c131c602052604090205473ffffffffffffffffffffffffffffffffffffffff1690565b60405173ffffffffffffffffffffffffffffffffffffffff9091168152602001610081565b604080518082018252600381527f322e780000000000000000000000000000000000000000000000000000000000602082015290516100819190610729565b606060007fc8fcad8db84d3cc18b4c41d551ea0ee66dd599cde068d998e57d5e09332c131c6002810180546040805160208084028201810190925282815293945083018282801561022157602002820191906000526020600020905b815473ffffffffffffffffffffffffffffffffffffffff1681526001909101906020018083116101f6575b505050505091505090565b7fc8fcad8db84d3cc18b4c41d551ea0ee66dd599cde068d998e57d5e09332c131e546060907fc8fcad8db84d3cc18b4c41d551ea0ee66dd599cde068d998e57d5e09332c131c908067ffffffffffffffff81111561028c5761028c61079c565b6040519080825280602002602001820160405280156102d257816020015b6040805180820190915260008152606060208201528152602001906001900390816102aa5790505b50925060005b818110156104325760008360020182815481106102f7576102f76107cb565b9060005260206000200160009054906101000a900473ffffffffffffffffffffffffffffffffffffffff16905080858381518110610337576103376107cb565b60209081029190910181015173ffffffffffffffffffffffffffffffffffffffff92831690529082166000908152600186018252604090819020805482518185028101850190935280835291929091908301828280156103f857602002820191906000526020600020906000905b82829054906101000a900460e01b7bffffffffffffffffffffffffffffffffffffffffffffffffffffffff1916815260200190600401906020826003010492830192600103820291508084116103a55790505b505050505085838151811061040f5761040f6107cb565b60200260200101516020018190525050808061042a906107fa565b9150506102d8565b50505090565b73ffffffffffffffffffffffffffffffffffffffff811660009081527fc8fcad8db84d3cc18b4c41d551ea0ee66dd599cde068d998e57d5e09332c131d602090815260409182902080548351818402810184019094528084526060937fc8fcad8db84d3cc18b4c41d551ea0ee66dd599cde068d998e57d5e09332c131c939092919083018282801561052b57602002820191906000526020600020906000905b82829054906101000a900460e01b7bffffffffffffffffffffffffffffffffffffffffffffffffffffffff1916815260200190600401906020826003010492830192600103820291508084116104d85790505b5050505050915050919050565b6020808252825182820181905260009190848201906040850190845b8181101561058657835173ffffffffffffffffffffffffffffffffffffffff1683529284019291840191600101610554565b50909695505050505050565b600081518084526020808501945080840160005b838110156105e45781517fffffffff0000000000000000000000000000000000000000000000000000000016875295820195908201906001016105a6565b509495945050505050565b60006020808301818452808551808352604092508286019150828160051b87010184880160005b83811015610689578883037fffffffffffffffffffffffffffffffffffffffffffffffffffffffffffffffc00185528151805173ffffffffffffffffffffffffffffffffffffffff16845287015187840187905261067687850182610592565b9588019593505090860190600101610616565b509098975050505050505050565b6000602082840312156106a957600080fd5b813573ffffffffffffffffffffffffffffffffffffffff811681146106cd57600080fd5b9392505050565b6020815260006106cd6020830184610592565b6000602082840312156106f957600080fd5b81357fffffffff00000000000000000000000000000000000000000000000000000000811681146106cd57600080fd5b600060208083528351808285015260005b818110156107565785810183015185820160400152820161073a565b81811115610768576000604083870101525b50601f017fffffffffffffffffffffffffffffffffffffffffffffffffffffffffffffffe016929092016040019392505050565b7f4e487b7100000000000000000000000000000000000000000000000000000000600052604160045260246000fd5b7f4e487b7100000000000000000000000000000000000000000000000000000000600052603260045260246000fd5b60007fffffffffffffffffffffffffffffffffffffffffffffffffffffffffffffffff8203610852577f4e487b7100000000000000000000000000000000000000000000000000000000600052601160045260246000fd5b506001019056fea2646970667358221220fc377ce35e5167528777b0c04b472409c2b087a31b08bc523dd5ae7d823f222064736f6c634300080f0033",
  "devdoc": {
    "custom:category": "Diamonds",
    "custom:provides-interfaces": "IDiamondLoupe",
    "custom:type": "eip-2535-facet",
    "kind": "dev",
    "methods": {
      "facetAddress(bytes4)": {
        "details": "If facet is not found return address(0).",
        "params": {
          "_functionSelector": "The function selector."
        },
        "returns": {
          "facetAddress_": "The facet address."
        }
      },
      "facetAddresses()": {
        "returns": {
          "facetAddresses_": "facetAddresses_"
        }
      },
      "facetFunctionSelectors(address)": {
        "params": {
          "_facet": "The facet address."
        },
        "returns": {
          "facetFunctionSelectors_": "facetFunctionSelectors_"
        }
      },
      "facets()": {
        "returns": {
          "facets_": "Facet"
        }
      }
    },
    "title": "Diamond - Loupe",
    "version": 1
  },
  "userdoc": {
    "kind": "user",
    "methods": {
      "facetAddress(bytes4)": {
        "notice": "Gets the facet that supports the given selector."
      },
      "facetAddresses()": {
        "notice": "Get all the facet addresses used by a diamond."
      },
      "facetFunctionSelectors(address)": {
        "notice": "Gets all the function selectors provided by a facet."
      },
      "facets()": {
        "notice": "Gets all facets and their selectors."
      }
    },
    "notice": "Standard EIP-2535 loupe functions to allow inspecting a diamond for explorers.",
    "version": 1
  },
  "storageLayout": {
    "storage": [],
    "types": null
  }
}