{
  "address": "0x3A42Efee31272C910d11EbA0e028Cc857fc5bb5c",
  "abi": [
    {
      "inputs": [
        {
          "internalType": "bytes4",
          "name": "interfaceId",
          "type": "bytes4"
        }
      ],
      "name": "supportsInterface",
      "outputs": [
        {
          "internalType": "bool",
          "name": "",
          "type": "bool"
        }
      ],
      "stateMutability": "view",
      "type": "function"
    }
  ],
  "transactionHash": "0x36b0f81e75142659c87db4f8ecfc3e8637086d933578b8b5bc05bc6d6886dd29",
  "args": [],
  "numDeployments": 1,
  "solcInputHash": "8b83fe4f1427b754fb84de0423d4761a",
  "bytecode": "0x608060405234801561001057600080fd5b5061011f806100206000396000f3fe6080604052348015600f57600080fd5b506004361060285760003560e01c806301ffc9a714602d575b600080fd5b608e603836600460a2565b7fffffffff000000000000000000000000000000000000000000000000000000001660009081527fff923f4a67695a9cdd5da4b8580a5a20edf2183c42aa111dd7fc15dc7bed2640602052604090205460ff1690565b604051901515815260200160405180910390f35b60006020828403121560b357600080fd5b81357fffffffff000000000000000000000000000000000000000000000000000000008116811460e257600080fd5b939250505056fea26469706673582212203499b0726ec5ff922570ce3389cddcb4bee736dfc3c0de07fd4d587724c8d73864736f6c634300080f0033",
  "devdoc": {
    "custom:category": "Introspection",
    "custom:provides-interfaces": "0x01ffc9a7",
    "custom:type": "eip-2535-facet",
    "kind": "dev",
    "methods": {
      "supportsInterface(bytes4)": {
        "params": {
          "interfaceId": "interface id"
        },
        "returns": {
          "_0": "bool whether interface is supported"
        }
      }
    },
    "title": "ERC165",
    "version": 1
  },
  "userdoc": {
    "kind": "user",
    "methods": {
      "supportsInterface(bytes4)": {
        "notice": "query whether contract has registered support for given interface"
      }
    },
    "notice": "Standard EIP-165 facet which would be already included as a core facet in Flair's Diamond contract.",
    "version": 1
  },
  "storageLayout": {
    "storage": [],
    "types": null
  }
}