{
  "address": "0x70E31A8D80AC3fc7e02588894C7659B091A034e6",
  "abi": [
    {
      "anonymous": false,
      "inputs": [
        {
          "indexed": true,
          "internalType": "address",
          "name": "previousOwner",
          "type": "address"
        },
        {
          "indexed": true,
          "internalType": "address",
          "name": "newOwner",
          "type": "address"
        }
      ],
      "name": "OwnershipTransferred",
      "type": "event"
    },
    {
      "inputs": [
        {
          "internalType": "uint256",
          "name": "tierId",
          "type": "uint256"
        },
        {
          "internalType": "address",
          "name": "minter",
          "type": "address"
        },
        {
          "internalType": "uint256",
          "name": "maxAllowance",
          "type": "uint256"
        }
      ],
      "name": "maxMintableForTier",
      "outputs": [
        {
          "internalType": "uint256",
          "name": "maxMintable",
          "type": "uint256"
        }
      ],
      "stateMutability": "view",
      "type": "function"
    },
    {
      "inputs": [
        {
          "internalType": "uint256",
          "name": "tierId",
          "type": "uint256"
        },
        {
          "internalType": "uint256",
          "name": "count",
          "type": "uint256"
        },
        {
          "internalType": "uint256",
          "name": "maxAllowance",
          "type": "uint256"
        },
        {
          "internalType": "bytes32[]",
          "name": "allowlistProof",
          "type": "bytes32[]"
        },
        {
          "internalType": "bytes",
          "name": "signature",
          "type": "bytes"
        },
        {
          "internalType": "uint256",
          "name": "validUntil",
          "type": "uint256"
        }
      ],
      "name": "mintByTier",
      "outputs": [],
      "stateMutability": "payable",
      "type": "function"
    },
    {
      "inputs": [
        {
          "internalType": "uint256",
          "name": "tierId",
          "type": "uint256"
        },
        {
          "internalType": "address",
          "name": "minter",
          "type": "address"
        },
        {
          "internalType": "uint256",
          "name": "maxAllowance",
          "type": "uint256"
        },
        {
          "internalType": "bytes32[]",
          "name": "allowlistProof",
          "type": "bytes32[]"
        }
      ],
      "name": "onTierAllowlist",
      "outputs": [
        {
          "internalType": "bool",
          "name": "",
          "type": "bool"
        }
      ],
      "stateMutability": "view",
      "type": "function"
    },
    {
      "inputs": [
        {
          "internalType": "uint256",
          "name": "tierId",
          "type": "uint256"
        }
      ],
      "name": "remainingForTier",
      "outputs": [
        {
          "internalType": "uint256",
          "name": "",
          "type": "uint256"
        }
      ],
      "stateMutability": "view",
      "type": "function"
    },
    {
      "inputs": [],
      "name": "reservedMints",
      "outputs": [
        {
          "internalType": "uint256",
          "name": "",
          "type": "uint256"
        }
      ],
      "stateMutability": "view",
      "type": "function"
    },
    {
      "inputs": [
        {
          "internalType": "uint256",
          "name": "tierId",
          "type": "uint256"
        }
      ],
      "name": "tierMints",
      "outputs": [
        {
          "internalType": "uint256",
          "name": "",
          "type": "uint256"
        }
      ],
      "stateMutability": "view",
      "type": "function"
    },
    {
      "inputs": [
        {
          "internalType": "uint256",
          "name": "tierId",
          "type": "uint256"
        }
      ],
      "name": "tierToTokenId",
      "outputs": [
        {
          "internalType": "uint256",
          "name": "",
          "type": "uint256"
        }
      ],
      "stateMutability": "view",
      "type": "function"
    },
    {
      "inputs": [
        {
          "internalType": "uint256[]",
          "name": "tierIds",
          "type": "uint256[]"
        }
      ],
      "name": "tierToTokenId",
      "outputs": [
        {
          "internalType": "uint256[]",
          "name": "",
          "type": "uint256[]"
        }
      ],
      "stateMutability": "view",
      "type": "function"
    },
    {
      "inputs": [
        {
          "internalType": "uint256",
          "name": "tierId",
          "type": "uint256"
        }
      ],
      "name": "tiers",
      "outputs": [
        {
          "components": [
            {
              "internalType": "uint256",
              "name": "start",
              "type": "uint256"
            },
            {
              "internalType": "uint256",
              "name": "end",
              "type": "uint256"
            },
            {
              "internalType": "address",
              "name": "currency",
              "type": "address"
            },
            {
              "internalType": "uint256",
              "name": "price",
              "type": "uint256"
            },
            {
              "internalType": "uint256",
              "name": "maxPerWallet",
              "type": "uint256"
            },
            {
              "internalType": "bytes32",
              "name": "merkleRoot",
              "type": "bytes32"
            },
            {
              "internalType": "uint256",
              "name": "reserved",
              "type": "uint256"
            },
            {
              "internalType": "uint256",
              "name": "maxAllocation",
              "type": "uint256"
            },
            {
              "internalType": "address",
              "name": "signer",
              "type": "address"
            }
          ],
          "internalType": "struct ITieredSalesInternal.Tier",
          "name": "",
          "type": "tuple"
        }
      ],
      "stateMutability": "view",
      "type": "function"
    },
    {
      "inputs": [],
      "name": "totalReserved",
      "outputs": [
        {
          "internalType": "uint256",
          "name": "",
          "type": "uint256"
        }
      ],
      "stateMutability": "view",
      "type": "function"
    },
    {
      "inputs": [
        {
          "internalType": "uint256",
          "name": "tierId",
          "type": "uint256"
        },
        {
          "internalType": "address",
          "name": "minter",
          "type": "address"
        },
        {
          "internalType": "uint256",
          "name": "maxAllowance",
          "type": "uint256"
        },
        {
          "internalType": "bytes",
          "name": "signature",
          "type": "bytes"
        },
        {
          "internalType": "uint256",
          "name": "validUntil",
          "type": "uint256"
        }
      ],
      "name": "verifySignature",
      "outputs": [
        {
          "internalType": "bool",
          "name": "",
          "type": "bool"
        }
      ],
      "stateMutability": "view",
      "type": "function"
    },
    {
      "inputs": [
        {
          "internalType": "uint256",
          "name": "tierId",
          "type": "uint256"
        },
        {
          "internalType": "address",
          "name": "wallet",
          "type": "address"
        }
      ],
      "name": "walletMintedByTier",
      "outputs": [
        {
          "internalType": "uint256",
          "name": "",
          "type": "uint256"
        }
      ],
      "stateMutability": "view",
      "type": "function"
    }
  ],
  "transactionHash": "0x8185c190ceff7d679eae22884af2edb8c7c81a41b02393d4b4229f77aa10e40b",
  "args": [],
  "numDeployments": 6,
  "solcInputHash": "896ea6a9bba83527e96ae85b8ea9790f",
  "bytecode": "0x608060405234801561001057600080fd5b50611ebb806100206000396000f3fe6080604052600436106100c75760003560e01c806353367f0811610074578063ba09e6321161004e578063ba09e63214610365578063c71b0e1c14610385578063d36ed2f3146103b957600080fd5b806353367f08146102d95780635897f8781461032557806368c7d37c1461034557600080fd5b8063200cd62a116100a5578063200cd62a146102485780632cb9b2ac1461027857806351607bf4146102ac57600080fd5b8063039af9eb146100cc5780630b81f1801461017f5780631123f2ef146101d9575b600080fd5b3480156100d857600080fd5b506100ec6100e7366004611a23565b6103ce565b60405161017691906000610120820190508251825260208301516020830152604083015173ffffffffffffffffffffffffffffffffffffffff8082166040850152606085015160608501526080850151608085015260a085015160a085015260c085015160c085015260e085015160e0850152610100915080828601511682850152505092915050565b60405180910390f35b34801561018b57600080fd5b506101cb61019a366004611a23565b60009081527f46f908971db3fbea57e8a21b2e54575e0e567ff2f950ead3c0dc83f15ec67154602052604090205490565b604051908152602001610176565b3480156101e557600080fd5b506101cb6101f4366004611a65565b60009182527fb7471df0c7246ed3d4a380504edfbb03f5845b709c7716243791636e4ba46cc06020908152604080842073ffffffffffffffffffffffffffffffffffffffff93909316845291905290205490565b34801561025457600080fd5b50610268610263366004611ad3565b6104fd565b6040519015158152602001610176565b34801561028457600080fd5b507fb7471df0c7246ed3d4a380504edfbb03f5845b709c7716243791636e4ba46cbd546101cb565b3480156102b857600080fd5b506102cc6102c7366004611b88565b61055e565b6040516101769190611bca565b3480156102e557600080fd5b506101cb6102f4366004611a23565b60009081527fb7471df0c7246ed3d4a380504edfbb03f5845b709c7716243791636e4ba46cbf602052604090205490565b34801561033157600080fd5b506101cb610340366004611a23565b610634565b34801561035157600080fd5b50610268610360366004611c0e565b6106ab565b34801561037157600080fd5b506101cb610380366004611c76565b6106c4565b34801561039157600080fd5b507fb7471df0c7246ed3d4a380504edfbb03f5845b709c7716243791636e4ba46cbc546101cb565b6103cc6103c7366004611cab565b6106d1565b005b61044c6040518061012001604052806000815260200160008152602001600073ffffffffffffffffffffffffffffffffffffffff1681526020016000815260200160008152602001600080191681526020016000815260200160008152602001600073ffffffffffffffffffffffffffffffffffffffff1681525090565b5060009081527fb7471df0c7246ed3d4a380504edfbb03f5845b709c7716243791636e4ba46cbe602090815260409182902082516101208101845281548152600182015492810192909252600281015473ffffffffffffffffffffffffffffffffffffffff908116938301939093526003810154606083015260048101546080830152600581015460a0830152600681015460c0830152600781015460e08301526008015490911661010082015290565b60008681527fb7471df0c7246ed3d4a380504edfbb03f5845b709c7716243791636e4ba46cbe60205260408120600801546105539073ffffffffffffffffffffffffffffffffffffffff168888888888886108a8565b979650505050505050565b606060008267ffffffffffffffff81111561057b5761057b611d3f565b6040519080825280602002602001820160405280156105a4578160200160208202803683370190505b50905060005b8381101561062c577f46f908971db3fbea57e8a21b2e54575e0e567ff2f950ead3c0dc83f15ec6715460008686848181106105e7576105e7611d6e565b9050602002013581526020019081526020016000205482828151811061060f5761060f611d6e565b60209081029190910101528061062481611dcc565b9150506105aa565b509392505050565b60007fb7471df0c7246ed3d4a380504edfbb03f5845b709c7716243791636e4ba46cbb8161066184610933565b60008581526004840160209081526040808320546003870190925282206007015492935090916106919190611de6565b9050808210156106a357509392505050565b949350505050565b60006106ba8686868686610a14565b9695505050505050565b60006106a3848484610a7b565b60027f3d9e0cf98d8ac76a756d900415e06fbccac0f9e61251a384452695e2330be6e054036107475760405162461bcd60e51b815260206004820152601f60248201527f5265656e7472616e637947756172643a207265656e7472616e742063616c6c0060448201526064015b60405180910390fd5b60027f3d9e0cf98d8ac76a756d900415e06fbccac0f9e61251a384452695e2330be6e05561077b8888888888888888610d00565b3063b164884b610789610fbb565b7f46f908971db3fbea57e8a21b2e54575e0e567ff2f950ead3c0dc83f15ec6715460008c815260209190915260408082205490517fffffffff0000000000000000000000000000000000000000000000000000000060e086901b16815273ffffffffffffffffffffffffffffffffffffffff90931660048401526024830152604482018b905260806064830152608482015260a401600060405180830381600087803b15801561083857600080fd5b505af115801561084c573d6000803e3d6000fd5b5050505060016108797f3d9e0cf98d8ac76a756d900415e06fbccac0f9e61251a384452695e2330be6e090565b555050505050505050565b7fb7471df0c7246ed3d4a380504edfbb03f5845b709c7716243791636e4ba46cbb90565b6000428210156108ba57506000610553565b600061090a85858080601f01602080910402602001604051908101604052809392919081815260200183838082843760009201919091525061090492508c91508b90508a88610fca565b90611055565b73ffffffffffffffffffffffffffffffffffffffff8a8116911614915050979650505050505050565b7fb7471df0c7246ed3d4a380504edfbb03f5845b709c7716243791636e4ba46cbd547fb7471df0c7246ed3d4a380504edfbb03f5845b709c7716243791636e4ba46cbc546000917fb7471df0c7246ed3d4a380504edfbb03f5845b709c7716243791636e4ba46cbb916109a69190611de6565b6109af84611071565b6109b99190611de6565b600084815260038301602052604090206006015490925015610a0e5760008381526004820160209081526040808320546003850190925290912060060154610a019190611de6565b610a0b9083611dfd565b91505b50919050565b60006106ba838380806020026020016040519081016040528093929190818152602001838360200280828437600092019190915250610a569250610884915050565b60008981526003919091016020526040902060050154610a76888861117c565b6111d7565b60008381527fb7471df0c7246ed3d4a380504edfbb03f5845b709c7716243791636e4ba46cbe60205260408120600401547fb7471df0c7246ed3d4a380504edfbb03f5845b709c7716243791636e4ba46cbb90610b1a5760405162461bcd60e51b815260206004820152600a60248201527f4e4f545f45584953545300000000000000000000000000000000000000000000604482015260640161073e565b6000858152600382016020526040902054421015610b7a5760405162461bcd60e51b815260206004820152600b60248201527f4e4f545f53544152544544000000000000000000000000000000000000000000604482015260640161073e565b6000858152600382016020526040902060010154421115610bdd5760405162461bcd60e51b815260206004820152600d60248201527f414c52454144595f454e44454400000000000000000000000000000000000000604482015260640161073e565b6000858152600582016020908152604080832073ffffffffffffffffffffffffffffffffffffffff881684528252808320548884526003850190925290912060040154610c2a9190611de6565b6000868152600583016020908152604080832073ffffffffffffffffffffffffffffffffffffffff891684529091529020549092508311610cad5760405162461bcd60e51b815260206004820152600f60248201527f4d415845445f414c4c4f57414e43450000000000000000000000000000000000604482015260640161073e565b6000858152600582016020908152604080832073ffffffffffffffffffffffffffffffffffffffff88168452909152812054610ce99085611de6565b905080831115610cf7578092505b50509392505050565b610d1888610d0c610fbb565b898989898989896111ed565b60008881527fb7471df0c7246ed3d4a380504edfbb03f5845b709c7716243791636e4ba46cbe60205260409020600201547fb7471df0c7246ed3d4a380504edfbb03f5845b709c7716243791636e4ba46cbb9073ffffffffffffffffffffffffffffffffffffffff16610df95760008981526003808301602052604090912001543490610da6908a90611e15565b1115610df45760405162461bcd60e51b815260206004820152601360248201527f494e53554646494349454e545f414d4f554e5400000000000000000000000000604482015260640161073e565b610ef0565b600089815260038201602052604090206002015473ffffffffffffffffffffffffffffffffffffffff166323b872dd610e30610fbb565b60008c81526003808601602052604090912001543090610e51908d90611e15565b6040517fffffffff0000000000000000000000000000000000000000000000000000000060e086901b16815273ffffffffffffffffffffffffffffffffffffffff938416600482015292909116602483015260448201526064016020604051808303816000875af1158015610eca573d6000803e3d6000fd5b505050506040513d601f19601f82011682018060405250810190610eee9190611e34565b505b600089815260058201602052604081208991610f0a610fbb565b73ffffffffffffffffffffffffffffffffffffffff1673ffffffffffffffffffffffffffffffffffffffff1681526020019081526020016000206000828254610f539190611dfd565b90915550506000898152600482016020526040812080548a9290610f78908490611dfd565b9091555050600089815260038201602052604090206006015415610fb05787816002016000828254610faa9190611dfd565b90915550505b505050505050505050565b6000610fc5611472565b905090565b604080517f9e1fb3640a418bdeb2ea9d1423d656894db5c96e895e93867d5bb7862df246ac602082015290810185905273ffffffffffffffffffffffffffffffffffffffff841660608201526080810183905260a08101829052600090819060c0016040516020818303038152906040528051906020012090506106ba61104f6114e6565b8261161e565b60008060006110648585611660565b9150915061062c816116a5565b7f744f4bd40000000000000000000000000000000000000000000000000000000060009081527fff923f4a67695a9cdd5da4b8580a5a20edf2183c42aa111dd7fc15dc7bed26406020527f35d3cc196fdbb37c639d9ccf02c0ac54b3a84c388495dbf9ab724144133fc6255460ff166110ed5750600019919050565b60008281527f46f908971db3fbea57e8a21b2e54575e0e567ff2f950ead3c0dc83f15ec6715460209081526040808320548084527f7056dcda885936c7a9d7c6385902b4ab5fb09024caea98652b7189a5f7a28ea58352818420547f7056dcda885936c7a9d7c6385902b4ab5fb09024caea98652b7189a5f7a28ea6909352908320549092916106a391611de6565b6040517fffffffffffffffffffffffffffffffffffffffff000000000000000000000000606084901b166020820152603481018290526000906054015b60405160208183030381529060405280519060200120905092915050565b6000826111e48584611894565b14949350505050565b7fb7471df0c7246ed3d4a380504edfbb03f5845b709c7716243791636e4ba46cbb600061121b8b8b8a610a7b565b90508089111561126d5760405162461bcd60e51b815260206004820152600b60248201527f455843454544535f4d4158000000000000000000000000000000000000000000604482015260640161073e565b6112768b610933565b8911156112c55760405162461bcd60e51b815260206004820152600e60248201527f455843454544535f535550504c59000000000000000000000000000000000000604482015260640161073e565b60008b815260038301602090815260408083206007015460048601909252909120546112f1908b611dfd565b111561133f5760405162461bcd60e51b815260206004820152601260248201527f455843454544535f414c4c4f434154494f4e0000000000000000000000000000604482015260640161073e565b60008b8152600383016020526040902060050154156113b1576113658b8b8a8a8a610a14565b6113b15760405162461bcd60e51b815260206004820152600f60248201527f4e4f545f414c4c4f574c49535445440000000000000000000000000000000000604482015260640161073e565b60008b815260038301602052604090206008015473ffffffffffffffffffffffffffffffffffffffff16156114655760008b81526003830160205260409020600801546114199073ffffffffffffffffffffffffffffffffffffffff168c8c8b8989896108a8565b6114655760405162461bcd60e51b815260206004820152601160248201527f494e56414c49445f5349474e4154555245000000000000000000000000000000604482015260640161073e565b5050505050505050505050565b7fdb1d5e345c4903e9a32b6674ecc8b1deaddbbb2551474fb34c9d34becbe7f4205460009073ffffffffffffffffffffffffffffffffffffffff1633036114de57507fffffffffffffffffffffffffffffffffffffffffffffffffffffffffffffffec36013560601c90565b503390565b90565b4660009081527fb7471df0c7246ed3d4a380504edfbb03f5845b709c7716243791636e4ba46cbb6020526040812054908190036114e35750604080518082018252600b81527f54696572656453616c657300000000000000000000000000000000000000000060209182015281518083018352600381527f322e7800000000000000000000000000000000000000000000000000000000009082015281517f8b73c3c69bb8fe3d512ecc4cf759cc79239f7b179b0ffacaa9a75d522b39400f818301527f0a8f5cd262c609ce448522f0993fd8cd7e4c5487b979cac486662358ea244890818401527ff5f84182131be97a41a3d4efb82d0a0d5698d76e6ec4dc9589738f1341d900c960608201524660808201523060a0808301919091528351808303909101815260c0909101909252815191012090565b6040517f1901000000000000000000000000000000000000000000000000000000000000602082015260228101839052604281018290526000906062016111b9565b60008082516041036116965760208301516040840151606085015160001a61168a878285856118d9565b9450945050505061169e565b506000905060025b9250929050565b60008160048111156116b9576116b9611e56565b036116c15750565b60018160048111156116d5576116d5611e56565b036117225760405162461bcd60e51b815260206004820152601860248201527f45434453413a20696e76616c6964207369676e61747572650000000000000000604482015260640161073e565b600281600481111561173657611736611e56565b036117835760405162461bcd60e51b815260206004820152601f60248201527f45434453413a20696e76616c6964207369676e6174757265206c656e67746800604482015260640161073e565b600381600481111561179757611797611e56565b0361180a5760405162461bcd60e51b815260206004820152602260248201527f45434453413a20696e76616c6964207369676e6174757265202773272076616c60448201527f7565000000000000000000000000000000000000000000000000000000000000606482015260840161073e565b600481600481111561181e5761181e611e56565b036118915760405162461bcd60e51b815260206004820152602260248201527f45434453413a20696e76616c6964207369676e6174757265202776272076616c60448201527f7565000000000000000000000000000000000000000000000000000000000000606482015260840161073e565b50565b600081815b845181101561062c576118c5828683815181106118b8576118b8611d6e565b60200260200101516119f1565b9150806118d181611dcc565b915050611899565b6000807f7fffffffffffffffffffffffffffffff5d576e7357a4501ddfe92f46681b20a083111561191057506000905060036119e8565b8460ff16601b1415801561192857508460ff16601c14155b1561193957506000905060046119e8565b6040805160008082526020820180845289905260ff881692820192909252606081018690526080810185905260019060a0016020604051602081039080840390855afa15801561198d573d6000803e3d6000fd5b50506040517fffffffffffffffffffffffffffffffffffffffffffffffffffffffffffffffe0015191505073ffffffffffffffffffffffffffffffffffffffff81166119e1576000600192509250506119e8565b9150600090505b94509492505050565b6000818310611a0d576000828152602084905260409020611a1c565b60008381526020839052604090205b9392505050565b600060208284031215611a3557600080fd5b5035919050565b803573ffffffffffffffffffffffffffffffffffffffff81168114611a6057600080fd5b919050565b60008060408385031215611a7857600080fd5b82359150611a8860208401611a3c565b90509250929050565b60008083601f840112611aa357600080fd5b50813567ffffffffffffffff811115611abb57600080fd5b60208301915083602082850101111561169e57600080fd5b60008060008060008060a08789031215611aec57600080fd5b86359550611afc60208801611a3c565b945060408701359350606087013567ffffffffffffffff811115611b1f57600080fd5b611b2b89828a01611a91565b979a9699509497949695608090950135949350505050565b60008083601f840112611b5557600080fd5b50813567ffffffffffffffff811115611b6d57600080fd5b6020830191508360208260051b850101111561169e57600080fd5b60008060208385031215611b9b57600080fd5b823567ffffffffffffffff811115611bb257600080fd5b611bbe85828601611b43565b90969095509350505050565b6020808252825182820181905260009190848201906040850190845b81811015611c0257835183529284019291840191600101611be6565b50909695505050505050565b600080600080600060808688031215611c2657600080fd5b85359450611c3660208701611a3c565b935060408601359250606086013567ffffffffffffffff811115611c5957600080fd5b611c6588828901611b43565b969995985093965092949392505050565b600080600060608486031215611c8b57600080fd5b83359250611c9b60208501611a3c565b9150604084013590509250925092565b60008060008060008060008060c0898b031215611cc757600080fd5b883597506020890135965060408901359550606089013567ffffffffffffffff80821115611cf457600080fd5b611d008c838d01611b43565b909750955060808b0135915080821115611d1957600080fd5b50611d268b828c01611a91565b999c989b50969995989497949560a00135949350505050565b7f4e487b7100000000000000000000000000000000000000000000000000000000600052604160045260246000fd5b7f4e487b7100000000000000000000000000000000000000000000000000000000600052603260045260246000fd5b7f4e487b7100000000000000000000000000000000000000000000000000000000600052601160045260246000fd5b60006000198203611ddf57611ddf611d9d565b5060010190565b600082821015611df857611df8611d9d565b500390565b60008219821115611e1057611e10611d9d565b500190565b6000816000190483118215151615611e2f57611e2f611d9d565b500290565b600060208284031215611e4657600080fd5b81518015158114611a1c57600080fd5b7f4e487b7100000000000000000000000000000000000000000000000000000000600052602160045260246000fdfea26469706673582212203b98d4ac3cc8cba9f4216d3f2cc805c8fe746541371975aa9fba927480a62b6164736f6c634300080f0033",
  "devdoc": {
    "details": "Tiered Sales facet for ERC1155 with meta-transactions support via ERC2771",
    "kind": "dev",
    "methods": {},
    "version": 1
  },
  "userdoc": {
    "kind": "user",
    "methods": {},
    "version": 1
  },
  "storageLayout": {
    "storage": [],
    "types": null
  }
}