{
  "address": "0x1F5C4eA5d90ec0d05375Bac76482e293d861E2d4",
  "abi": [
    {
      "anonymous": false,
      "inputs": [
        {
          "indexed": true,
          "internalType": "address",
          "name": "previousOwner",
          "type": "address"
        },
        {
          "indexed": true,
          "internalType": "address",
          "name": "newOwner",
          "type": "address"
        }
      ],
      "name": "OwnershipTransferred",
      "type": "event"
    },
    {
      "inputs": [
        {
          "internalType": "address",
          "name": "account",
          "type": "address"
        },
        {
          "internalType": "uint256",
          "name": "id",
          "type": "uint256"
        },
        {
          "internalType": "uint256",
          "name": "amount",
          "type": "uint256"
        }
      ],
      "name": "lockByOwner",
      "outputs": [],
      "stateMutability": "nonpayable",
      "type": "function"
    },
    {
      "inputs": [
        {
          "internalType": "address[]",
          "name": "accounts",
          "type": "address[]"
        },
        {
          "internalType": "uint256[]",
          "name": "ids",
          "type": "uint256[]"
        },
        {
          "internalType": "uint256[]",
          "name": "amounts",
          "type": "uint256[]"
        }
      ],
      "name": "lockByOwner",
      "outputs": [],
      "stateMutability": "nonpayable",
      "type": "function"
    }
  ],
  "transactionHash": "0x699d60d1b3c10b50ac2f29ba884d9de2860d5e1ef56b076de95477a202859cfd",
  "args": [],
  "numDeployments": 2,
  "solcInputHash": "dcc13364c0c97b454a11e6179cd9ef6c",
  "bytecode": "0x608060405234801561001057600080fd5b50610569806100206000396000f3fe608060405234801561001057600080fd5b50600436106100365760003560e01c8063c48d63361461003b578063e785790414610050575b600080fd5b61004e610049366004610270565b610063565b005b61004e61005e366004610392565b610181565b7fc0ea367cb0174dd5521cd2372c76f8c13e6c1f832c71f1d6e0cbc185c9cc8ed45473ffffffffffffffffffffffffffffffffffffffff1633146100ee5760405162461bcd60e51b815260206004820152601d60248201527f4f776e61626c653a2073656e646572206d757374206265206f776e657200000060448201526064015b60405180910390fd5b6040517f983da15600000000000000000000000000000000000000000000000000000000815273ffffffffffffffffffffffffffffffffffffffff841660048201526024810183905260448101829052309063983da156906064015b600060405180830381600087803b15801561016457600080fd5b505af1158015610178573d6000803e3d6000fd5b50505050505050565b7fc0ea367cb0174dd5521cd2372c76f8c13e6c1f832c71f1d6e0cbc185c9cc8ed45473ffffffffffffffffffffffffffffffffffffffff1633146102075760405162461bcd60e51b815260206004820152601d60248201527f4f776e61626c653a2073656e646572206d757374206265206f776e657200000060448201526064016100e5565b6040517ff7794bae000000000000000000000000000000000000000000000000000000008152309063f7794bae9061014a908690869086906004016104b1565b803573ffffffffffffffffffffffffffffffffffffffff8116811461026b57600080fd5b919050565b60008060006060848603121561028557600080fd5b61028e84610247565b95602085013595506040909401359392505050565b7f4e487b7100000000000000000000000000000000000000000000000000000000600052604160045260246000fd5b604051601f8201601f1916810167ffffffffffffffff811182821017156102fb576102fb6102a3565b604052919050565b600067ffffffffffffffff82111561031d5761031d6102a3565b5060051b60200190565b600082601f83011261033857600080fd5b8135602061034d61034883610303565b6102d2565b82815260059290921b8401810191818101908684111561036c57600080fd5b8286015b848110156103875780358352918301918301610370565b509695505050505050565b6000806000606084860312156103a757600080fd5b833567ffffffffffffffff808211156103bf57600080fd5b818601915086601f8301126103d357600080fd5b813560206103e361034883610303565b82815260059290921b8401810191818101908a84111561040257600080fd5b948201945b838610156104275761041886610247565b82529482019490820190610407565b9750508701359250508082111561043d57600080fd5b61044987838801610327565b9350604086013591508082111561045f57600080fd5b5061046c86828701610327565b9150509250925092565b600081518084526020808501945080840160005b838110156104a65781518752958201959082019060010161048a565b509495945050505050565b606080825284519082018190526000906020906080840190828801845b8281101561050057815173ffffffffffffffffffffffffffffffffffffffff16845292840192908401906001016104ce565b505050838103828501526105148187610476565b91505082810360408401526105298185610476565b969550505050505056fea26469706673582212208d848ff7d5e39f37621f79425f177c52ac0cf206c1ae6643518f5b89bfc404ca64736f6c634300080f0033",
  "devdoc": {
    "custom:category": "NFTs",
    "custom:provides-interfaces": "IERC1155LockByOwner",
    "custom:required-dependencies": "IERC1155Lockable",
    "custom:type": "eip-2535-facet",
    "kind": "dev",
    "methods": {},
    "title": "ERC1155 - Lock as Owner",
    "version": 1
  },
  "userdoc": {
    "kind": "user",
    "methods": {},
    "notice": "Allow locking tokens as the contract owner.",
    "version": 1
  },
  "storageLayout": {
    "storage": [],
    "types": null
  }
}