{
  "address": "0x2146A2e0d639F5F3024c43b9222BC85b1Ca47cca",
  "abi": [
    {
      "inputs": [
        {
          "internalType": "bytes4",
          "name": "interfaceId",
          "type": "bytes4"
        }
      ],
      "name": "supportsInterface",
      "outputs": [
        {
          "internalType": "bool",
          "name": "",
          "type": "bool"
        }
      ],
      "stateMutability": "view",
      "type": "function"
    }
  ],
  "transactionHash": "0xae325e5275f5486fa4d66a1dca9acbea3adc28a46e0cc454e70f17f178c31b01",
  "args": [],
  "numDeployments": 5,
  "solcInputHash": "00aa33fa3dda43d1e7155583081a00ea",
  "bytecode": "0x608060405234801561001057600080fd5b5061011f806100206000396000f3fe6080604052348015600f57600080fd5b506004361060285760003560e01c806301ffc9a714602d575b600080fd5b608e603836600460a2565b7fffffffff000000000000000000000000000000000000000000000000000000001660009081527fff923f4a67695a9cdd5da4b8580a5a20edf2183c42aa111dd7fc15dc7bed2640602052604090205460ff1690565b604051901515815260200160405180910390f35b60006020828403121560b357600080fd5b81357fffffffff000000000000000000000000000000000000000000000000000000008116811460e257600080fd5b939250505056fea264697066735822122047efc14f2751d797e0ea208c2da85e5b6aa32b6f1d28bc3710180eb0b678aecb64736f6c634300080f0033",
  "devdoc": {
    "custom:category": "Introspection",
    "custom:provides-interfaces": "IERC165",
    "custom:type": "eip-2535-facet",
    "kind": "dev",
    "methods": {
      "supportsInterface(bytes4)": {
        "details": "Returns true if this contract implements the interface defined by `interfaceId`. See the corresponding https://eips.ethereum.org/EIPS/eip-165#how-interfaces-are-identified[EIP section] to learn more about how these ids are created. This function call must use less than 30 000 gas."
      }
    },
    "title": "ERC165",
    "version": 1
  },
  "userdoc": {
    "kind": "user",
    "methods": {},
    "notice": "Standard EIP-165 facet which would be already included as a core facet in Flair's Diamond contract.",
    "version": 1
  },
  "storageLayout": {
    "storage": [],
    "types": null
  }
}