{
  "address": "0x863c364beB0E60D003c000467Fc8C1744356FD71",
  "abi": [
    {
      "inputs": [],
      "name": "ErrSenderIsNotSelf",
      "type": "error"
    },
    {
      "inputs": [
        {
          "internalType": "address",
          "name": "operator",
          "type": "address"
        }
      ],
      "name": "OperatorNotAllowed",
      "type": "error"
    },
    {
      "anonymous": false,
      "inputs": [
        {
          "indexed": true,
          "internalType": "address",
          "name": "account",
          "type": "address"
        },
        {
          "indexed": true,
          "internalType": "address",
          "name": "operator",
          "type": "address"
        },
        {
          "indexed": false,
          "internalType": "bool",
          "name": "approved",
          "type": "bool"
        }
      ],
      "name": "ApprovalForAll",
      "type": "event"
    },
    {
      "anonymous": false,
      "inputs": [
        {
          "indexed": true,
          "internalType": "address",
          "name": "previousOwner",
          "type": "address"
        },
        {
          "indexed": true,
          "internalType": "address",
          "name": "newOwner",
          "type": "address"
        }
      ],
      "name": "OwnershipTransferred",
      "type": "event"
    },
    {
      "anonymous": false,
      "inputs": [
        {
          "indexed": true,
          "internalType": "address",
          "name": "operator",
          "type": "address"
        },
        {
          "indexed": true,
          "internalType": "address",
          "name": "from",
          "type": "address"
        },
        {
          "indexed": true,
          "internalType": "address",
          "name": "to",
          "type": "address"
        },
        {
          "indexed": false,
          "internalType": "uint256[]",
          "name": "ids",
          "type": "uint256[]"
        },
        {
          "indexed": false,
          "internalType": "uint256[]",
          "name": "values",
          "type": "uint256[]"
        }
      ],
      "name": "TransferBatch",
      "type": "event"
    },
    {
      "anonymous": false,
      "inputs": [
        {
          "indexed": true,
          "internalType": "address",
          "name": "operator",
          "type": "address"
        },
        {
          "indexed": true,
          "internalType": "address",
          "name": "from",
          "type": "address"
        },
        {
          "indexed": true,
          "internalType": "address",
          "name": "to",
          "type": "address"
        },
        {
          "indexed": false,
          "internalType": "uint256",
          "name": "id",
          "type": "uint256"
        },
        {
          "indexed": false,
          "internalType": "uint256",
          "name": "value",
          "type": "uint256"
        }
      ],
      "name": "TransferSingle",
      "type": "event"
    },
    {
      "inputs": [],
      "name": "OPERATOR_FILTER_REGISTRY",
      "outputs": [
        {
          "internalType": "contract IOperatorFilterRegistry",
          "name": "",
          "type": "address"
        }
      ],
      "stateMutability": "view",
      "type": "function"
    },
    {
      "inputs": [
        {
          "internalType": "address",
          "name": "account",
          "type": "address"
        },
        {
          "internalType": "uint256",
          "name": "id",
          "type": "uint256"
        }
      ],
      "name": "balanceOf",
      "outputs": [
        {
          "internalType": "uint256",
          "name": "",
          "type": "uint256"
        }
      ],
      "stateMutability": "view",
      "type": "function"
    },
    {
      "inputs": [
        {
          "internalType": "address[]",
          "name": "accounts",
          "type": "address[]"
        },
        {
          "internalType": "uint256[]",
          "name": "ids",
          "type": "uint256[]"
        }
      ],
      "name": "balanceOfBatch",
      "outputs": [
        {
          "internalType": "uint256[]",
          "name": "",
          "type": "uint256[]"
        }
      ],
      "stateMutability": "view",
      "type": "function"
    },
    {
      "inputs": [
        {
          "internalType": "address",
          "name": "account",
          "type": "address"
        },
        {
          "internalType": "uint256",
          "name": "id",
          "type": "uint256"
        },
        {
          "internalType": "uint256",
          "name": "value",
          "type": "uint256"
        }
      ],
      "name": "burn",
      "outputs": [],
      "stateMutability": "nonpayable",
      "type": "function"
    },
    {
      "inputs": [
        {
          "internalType": "address",
          "name": "account",
          "type": "address"
        },
        {
          "internalType": "uint256[]",
          "name": "ids",
          "type": "uint256[]"
        },
        {
          "internalType": "uint256[]",
          "name": "values",
          "type": "uint256[]"
        }
      ],
      "name": "burnBatch",
      "outputs": [],
      "stateMutability": "nonpayable",
      "type": "function"
    },
    {
      "inputs": [
        {
          "internalType": "address",
          "name": "account",
          "type": "address"
        },
        {
          "internalType": "uint256[]",
          "name": "ids",
          "type": "uint256[]"
        },
        {
          "internalType": "uint256[]",
          "name": "values",
          "type": "uint256[]"
        }
      ],
      "name": "burnBatchByFacet",
      "outputs": [],
      "stateMutability": "nonpayable",
      "type": "function"
    },
    {
      "inputs": [
        {
          "internalType": "address",
          "name": "account",
          "type": "address"
        },
        {
          "internalType": "uint256",
          "name": "id",
          "type": "uint256"
        },
        {
          "internalType": "uint256",
          "name": "amount",
          "type": "uint256"
        }
      ],
      "name": "burnByFacet",
      "outputs": [],
      "stateMutability": "nonpayable",
      "type": "function"
    },
    {
      "inputs": [
        {
          "internalType": "uint256",
          "name": "id",
          "type": "uint256"
        }
      ],
      "name": "exists",
      "outputs": [
        {
          "internalType": "bool",
          "name": "",
          "type": "bool"
        }
      ],
      "stateMutability": "view",
      "type": "function"
    },
    {
      "inputs": [
        {
          "internalType": "address",
          "name": "account",
          "type": "address"
        },
        {
          "internalType": "address",
          "name": "operator",
          "type": "address"
        }
      ],
      "name": "isApprovedForAll",
      "outputs": [
        {
          "internalType": "bool",
          "name": "",
          "type": "bool"
        }
      ],
      "stateMutability": "view",
      "type": "function"
    },
    {
      "inputs": [
        {
          "internalType": "address",
          "name": "account",
          "type": "address"
        },
        {
          "internalType": "uint256",
          "name": "id",
          "type": "uint256"
        },
        {
          "internalType": "uint256",
          "name": "amount",
          "type": "uint256"
        }
      ],
      "name": "lockByFacet",
      "outputs": [],
      "stateMutability": "nonpayable",
      "type": "function"
    },
    {
      "inputs": [
        {
          "internalType": "address[]",
          "name": "accounts",
          "type": "address[]"
        },
        {
          "internalType": "uint256[]",
          "name": "ids",
          "type": "uint256[]"
        },
        {
          "internalType": "uint256[]",
          "name": "amounts",
          "type": "uint256[]"
        }
      ],
      "name": "lockByFacet",
      "outputs": [],
      "stateMutability": "nonpayable",
      "type": "function"
    },
    {
      "inputs": [
        {
          "internalType": "address",
          "name": "account",
          "type": "address"
        },
        {
          "internalType": "uint256[]",
          "name": "ticketTokenIds",
          "type": "uint256[]"
        }
      ],
      "name": "locked",
      "outputs": [
        {
          "internalType": "uint256[]",
          "name": "",
          "type": "uint256[]"
        }
      ],
      "stateMutability": "view",
      "type": "function"
    },
    {
      "inputs": [
        {
          "internalType": "address",
          "name": "account",
          "type": "address"
        },
        {
          "internalType": "uint256",
          "name": "tokenId",
          "type": "uint256"
        }
      ],
      "name": "locked",
      "outputs": [
        {
          "internalType": "uint256",
          "name": "",
          "type": "uint256"
        }
      ],
      "stateMutability": "view",
      "type": "function"
    },
    {
      "inputs": [
        {
          "internalType": "uint256",
          "name": "id",
          "type": "uint256"
        }
      ],
      "name": "maxSupply",
      "outputs": [
        {
          "internalType": "uint256",
          "name": "",
          "type": "uint256"
        }
      ],
      "stateMutability": "view",
      "type": "function"
    },
    {
      "inputs": [
        {
          "internalType": "address[]",
          "name": "tos",
          "type": "address[]"
        },
        {
          "internalType": "uint256[]",
          "name": "ids",
          "type": "uint256[]"
        },
        {
          "internalType": "uint256[]",
          "name": "amounts",
          "type": "uint256[]"
        },
        {
          "internalType": "bytes[]",
          "name": "datas",
          "type": "bytes[]"
        }
      ],
      "name": "mintByFacet",
      "outputs": [],
      "stateMutability": "nonpayable",
      "type": "function"
    },
    {
      "inputs": [
        {
          "internalType": "address",
          "name": "to",
          "type": "address"
        },
        {
          "internalType": "uint256",
          "name": "id",
          "type": "uint256"
        },
        {
          "internalType": "uint256",
          "name": "amount",
          "type": "uint256"
        },
        {
          "internalType": "bytes",
          "name": "data",
          "type": "bytes"
        }
      ],
      "name": "mintByFacet",
      "outputs": [],
      "stateMutability": "nonpayable",
      "type": "function"
    },
    {
      "inputs": [],
      "name": "royaltiesEnforced",
      "outputs": [
        {
          "internalType": "bool",
          "name": "",
          "type": "bool"
        }
      ],
      "stateMutability": "view",
      "type": "function"
    },
    {
      "inputs": [
        {
          "internalType": "address",
          "name": "from",
          "type": "address"
        },
        {
          "internalType": "address",
          "name": "to",
          "type": "address"
        },
        {
          "internalType": "uint256[]",
          "name": "ids",
          "type": "uint256[]"
        },
        {
          "internalType": "uint256[]",
          "name": "amounts",
          "type": "uint256[]"
        },
        {
          "internalType": "bytes",
          "name": "data",
          "type": "bytes"
        }
      ],
      "name": "safeBatchTransferFrom",
      "outputs": [],
      "stateMutability": "nonpayable",
      "type": "function"
    },
    {
      "inputs": [
        {
          "internalType": "address",
          "name": "from",
          "type": "address"
        },
        {
          "internalType": "address",
          "name": "to",
          "type": "address"
        },
        {
          "internalType": "uint256",
          "name": "id",
          "type": "uint256"
        },
        {
          "internalType": "uint256",
          "name": "amount",
          "type": "uint256"
        },
        {
          "internalType": "bytes",
          "name": "data",
          "type": "bytes"
        }
      ],
      "name": "safeTransferFrom",
      "outputs": [],
      "stateMutability": "nonpayable",
      "type": "function"
    },
    {
      "inputs": [
        {
          "internalType": "address",
          "name": "operator",
          "type": "address"
        },
        {
          "internalType": "bool",
          "name": "status",
          "type": "bool"
        }
      ],
      "name": "setApprovalForAll",
      "outputs": [],
      "stateMutability": "nonpayable",
      "type": "function"
    },
    {
      "inputs": [
        {
          "internalType": "uint256",
          "name": "id",
          "type": "uint256"
        }
      ],
      "name": "totalSupply",
      "outputs": [
        {
          "internalType": "uint256",
          "name": "",
          "type": "uint256"
        }
      ],
      "stateMutability": "view",
      "type": "function"
    },
    {
      "inputs": [
        {
          "internalType": "address[]",
          "name": "accounts",
          "type": "address[]"
        },
        {
          "internalType": "uint256[]",
          "name": "ids",
          "type": "uint256[]"
        },
        {
          "internalType": "uint256[]",
          "name": "amounts",
          "type": "uint256[]"
        }
      ],
      "name": "unlockByFacet",
      "outputs": [],
      "stateMutability": "nonpayable",
      "type": "function"
    },
    {
      "inputs": [
        {
          "internalType": "address",
          "name": "account",
          "type": "address"
        },
        {
          "internalType": "uint256",
          "name": "id",
          "type": "uint256"
        },
        {
          "internalType": "uint256",
          "name": "amount",
          "type": "uint256"
        }
      ],
      "name": "unlockByFacet",
      "outputs": [],
      "stateMutability": "nonpayable",
      "type": "function"
    }
  ],
  "transactionHash": "0x669df3da8ebc978452a41ee2675792888970e9df494de0144e61ece13af46592",
  "args": [],
  "numDeployments": 7,
  "solcInputHash": "c66422a00980c178379ef3c81269d6c7",
  "bytecode": "0x60806040523480156200001157600080fd5b50733cc6cdda760b79bafa08df41ecfa224f810dceb660016daaeb6d7670e522a718067333cd4e3b156200016e578015620000bc57604051633e9f1edf60e11b81523060048201526001600160a01b03831660248201526daaeb6d7670e522a718067333cd4e90637d3e3dbe906044015b600060405180830381600087803b1580156200009d57600080fd5b505af1158015620000b2573d6000803e3d6000fd5b505050506200016e565b6001600160a01b038216156200010d5760405163a0af290360e01b81523060048201526001600160a01b03831660248201526daaeb6d7670e522a718067333cd4e9063a0af29039060440162000082565b604051632210724360e11b81523060048201526daaeb6d7670e522a718067333cd4e90634420e48690602401600060405180830381600087803b1580156200015457600080fd5b505af115801562000169573d6000803e3d6000fd5b505050505b50506130c780620001806000396000f3fe608060405234801561001057600080fd5b506004361061018c5760003560e01c80637d151549116100e3578063bd85b0391161008c578063f242432a11610066578063f242432a146103b8578063f5298aca146103cb578063f7794bae146103de57600080fd5b8063bd85b03914610337578063bf7bab731461034a578063e985e9c51461035d57600080fd5b8063a22cb465116100bd578063a22cb465146102fe578063a91a988a14610311578063b164884b1461032457600080fd5b80637d151549146102ae578063869f7594146102d8578063983da156146102eb57600080fd5b806341f43434116101455780634f558e791161011f5780634f558e79146102655780636708a990146102885780636b20c4541461029b57600080fd5b806341f434341461020557806348f2f536146102325780634e1273f41461024557600080fd5b80630ad2bbac116101765780630ad2bbac146101cc5780632eb2c2d6146101df5780633f3b797e146101f257600080fd5b8062fdd58e146101915780630a13c503146101b7575b600080fd5b6101a461019f3660046125c4565b6103f1565b6040519081526020015b60405180910390f35b6101ca6101c536600461263a565b610404565b005b6101ca6101da3660046126fe565b61043e565b6101ca6101ed366004612857565b610472565b6101ca6102003660046129c8565b61055b565b61021a6daaeb6d7670e522a718067333cd4e81565b6040516001600160a01b0390911681526020016101ae565b6101ca610240366004612a50565b610653565b610258610253366004612a83565b610683565b6040516101ae9190612b22565b610278610273366004612b35565b6108aa565b60405190151581526020016101ae565b6101ca610296366004612a50565b6108e1565b6101ca6102a93660046126fe565b61090c565b7f9c1f08fc16fa10f59a3ac18a8c5596ea456f2d66793744df41c7c3e4eb2197905460ff16610278565b6101a46102e6366004612b35565b610a0a565b6101ca6102f9366004612a50565b610a3d565b6101ca61030c366004612b5c565b610a68565b61025861031f366004612b93565b610a76565b6101ca610332366004612c28565b610b5d565b6101a4610345366004612b35565b610b8a565b6101a46103583660046125c4565b610bbd565b61027861036b366004612c7f565b6001600160a01b0391821660009081527ff9ecf3cb86ac553c70621e3e662b4036163ca34fffb329385fafa0e130cfc1a86020908152604080832093909416825291909152205460ff1690565b6101ca6103c6366004612cb2565b610c05565b6101ca6103d9366004612a50565b610ceb565b6101ca6103ec3660046129c8565b610de9565b60006103fd8383610edb565b9392505050565b3033146104245760405163fd570b5160e01b815260040160405180910390fd5b6104348888888888888888610fa0565b5050505050505050565b30331461045e5760405163fd570b5160e01b815260040160405180910390fd5b61046b85858585856112db565b5050505050565b600061047c6115cb565b9050806001600160a01b0316866001600160a01b031614806104e257506001600160a01b0380871660009081527ff9ecf3cb86ac553c70621e3e662b4036163ca34fffb329385fafa0e130cfc1a8602090815260408083209385168352929052205460ff165b6105455760405162461bcd60e51b815260206004820152602960248201527f455243313135353a2063616c6c6572206973206e6f74206f776e6572206e6f7260448201526808185c1c1c9bdd995960ba1b60648201526084015b60405180910390fd5b6105538187878787876115da565b505050505050565b30331461057b5760405163fd570b5160e01b815260040160405180910390fd5b8151835114801561058d575080518351145b6105d95760405162461bcd60e51b815260206004820152601460248201527f494e56414c49445f41525241595f4c454e475448000000000000000000000000604482015260640161053c565b60005b835181101561064d5761063b8482815181106105fa576105fa612d2a565b602002602001015184838151811061061457610614612d2a565b602002602001015184848151811061062e5761062e612d2a565b60200260200101516115e8565b8061064581612d56565b9150506105dc565b50505050565b3033146106735760405163fd570b5160e01b815260040160405180910390fd5b61067e8383836116a5565b505050565b606081518351146106fc5760405162461bcd60e51b815260206004820152602960248201527f455243313135353a206163636f756e747320616e6420696473206c656e67746860448201527f206d69736d617463680000000000000000000000000000000000000000000000606482015260840161053c565b82517ff9ecf3cb86ac553c70621e3e662b4036163ca34fffb329385fafa0e130cfc1a79060009067ffffffffffffffff81111561073b5761073b61277f565b604051908082528060200260200182016040528015610764578160200160208202803683370190505b50905060005b85518110156108a15760006001600160a01b031686828151811061079057610790612d2a565b60200260200101516001600160a01b0316036108145760405162461bcd60e51b815260206004820152603160248201527f455243313135353a2062617463682062616c616e636520717565727920666f7260448201527f20746865207a65726f2061646472657373000000000000000000000000000000606482015260840161053c565b82600086838151811061082957610829612d2a565b60200260200101518152602001908152602001600020600087838151811061085357610853612d2a565b60200260200101516001600160a01b03166001600160a01b031681526020019081526020016000205482828151811061088e5761088e612d2a565b602090810291909101015260010161076a565b50949350505050565b60008181527f7056dcda885936c7a9d7c6385902b4ab5fb09024caea98652b7189a5f7a28ea5602052604081205415155b92915050565b3033146109015760405163fd570b5160e01b815260040160405180910390fd5b61067e8383836115e8565b6109146115cb565b6001600160a01b0316856001600160a01b031614806109ac57503063e985e9c58661093d6115cb565b6040516001600160e01b031960e085901b1681526001600160a01b03928316600482015291166024820152604401602060405180830381865afa158015610988573d6000803e3d6000fd5b505050506040513d601f19601f820116820180604052508101906109ac9190612d6f565b61045e5760405162461bcd60e51b815260206004820152602960248201527f455243313135353a2063616c6c6572206973206e6f74206f776e6572206e6f7260448201526808185c1c1c9bdd995960ba1b606482015260840161053c565b60008181527f7056dcda885936c7a9d7c6385902b4ab5fb09024caea98652b7189a5f7a28ea660205260408120546108db565b303314610a5d5760405163fd570b5160e01b815260040160405180910390fd5b61067e838383611843565b610a72828261190a565b5050565b606060008267ffffffffffffffff811115610a9357610a9361277f565b604051908082528060200260200182016040528015610abc578160200160208202803683370190505b50905060005b838110156108a157610b2e86868684818110610ae057610ae0612d2a565b905060200201356001600160a01b039190911660009081527f349768cb3869818ef8452552d8520ac7355b35c10a0ff9320e2975b28752782060209081526040808320938352929052205490565b828281518110610b4057610b40612d2a565b602090810291909101015280610b5581612d56565b915050610ac2565b303314610b7d5760405163fd570b5160e01b815260040160405180910390fd5b61046b8585858585611a2a565b60008181527f7056dcda885936c7a9d7c6385902b4ab5fb09024caea98652b7189a5f7a28ea560205260408120546108db565b6001600160a01b03821660009081527f349768cb3869818ef8452552d8520ac7355b35c10a0ff9320e2975b287527820602090815260408083208484529091528120546103fd565b6000610c0f6115cb565b9050806001600160a01b0316876001600160a01b03161480610c7557506001600160a01b0380881660009081527ff9ecf3cb86ac553c70621e3e662b4036163ca34fffb329385fafa0e130cfc1a8602090815260408083209385168352929052205460ff165b610cd35760405162461bcd60e51b815260206004820152602960248201527f455243313135353a2063616c6c6572206973206e6f74206f776e6572206e6f7260448201526808185c1c1c9bdd995960ba1b606482015260840161053c565b610ce281888888888888611bb1565b50505050505050565b610cf36115cb565b6001600160a01b0316836001600160a01b03161480610d8b57503063e985e9c584610d1c6115cb565b6040516001600160e01b031960e085901b1681526001600160a01b03928316600482015291166024820152604401602060405180830381865afa158015610d67573d6000803e3d6000fd5b505050506040513d601f19601f82011682018060405250810190610d8b9190612d6f565b6106735760405162461bcd60e51b815260206004820152602960248201527f455243313135353a2063616c6c6572206973206e6f74206f776e6572206e6f7260448201526808185c1c1c9bdd995960ba1b606482015260840161053c565b303314610e095760405163fd570b5160e01b815260040160405180910390fd5b81518351148015610e1b575080518351145b610e675760405162461bcd60e51b815260206004820152601460248201527f494e56414c49445f41525241595f4c454e475448000000000000000000000000604482015260640161053c565b60005b835181101561064d57610ec9848281518110610e8857610e88612d2a565b6020026020010151848381518110610ea257610ea2612d2a565b6020026020010151848481518110610ebc57610ebc612d2a565b6020026020010151611843565b80610ed381612d56565b915050610e6a565b60006001600160a01b038316610f595760405162461bcd60e51b815260206004820152602b60248201527f455243313135353a2062616c616e636520717565727920666f7220746865207a60448201527f65726f2061646472657373000000000000000000000000000000000000000000606482015260840161053c565b7ff9ecf3cb86ac553c70621e3e662b4036163ca34fffb329385fafa0e130cfc1a76000928352602090815260408084206001600160a01b0395909516845293905250205490565b8483146110005760405162461bcd60e51b815260206004820152602860248201527f455243313135353a2069647320616e6420616d6f756e7473206c656e677468206044820152670dad2e6dac2e8c6d60c31b606482015260840161053c565b8683146110755760405162461bcd60e51b815260206004820152602d60248201527f455243313135353a206163636f756e747320616e6420616d6f756e7473206c6560448201527f6e677468206d69736d6174636800000000000000000000000000000000000000606482015260840161053c565b600061107f6115cb565b90507ff9ecf3cb86ac553c70621e3e662b4036163ca34fffb329385fafa0e130cfc1a760005b878110156112ce5761116e8360008d8d858181106110c5576110c5612d2a565b90506020020160208101906110da9190612d8c565b6110fb8d8d878181106110ef576110ef612d2a565b90506020020135611bc0565b6111108c8c888181106110ef576110ef612d2a565b8a8a8881811061112257611122612d2a565b90506020028101906111349190612da7565b8080601f016020809104026020016040519081016040528093929190818152602001838380828437600092019190915250611c0b92505050565b86868281811061118057611180612d2a565b905060200201358260008b8b8581811061119c5761119c612d2a565b90506020020135815260200190815260200160002060008d8d858181106111c5576111c5612d2a565b90506020020160208101906111da9190612d8c565b6001600160a01b03166001600160a01b0316815260200190815260200160002060008282546112099190612dee565b909155508b90508a8281811061122157611221612d2a565b90506020020160208101906112369190612d8c565b6001600160a01b031660006001600160a01b0316846001600160a01b03167fc3d58168c5ae7397731d063d5bbf3d657854427343f4c083240f7aacaa2d0f628c8c8681811061128757611287612d2a565b905060200201358b8b878181106112a0576112a0612d2a565b905060200201356040516112be929190918252602082015260400190565b60405180910390a46001016110a5565b5050505050505050505050565b6001600160a01b03851661133d5760405162461bcd60e51b815260206004820152602360248201527f455243313135353a206275726e2066726f6d20746865207a65726f206164647260448201526265737360e81b606482015260840161053c565b82811461139d5760405162461bcd60e51b815260206004820152602860248201527f455243313135353a2069647320616e6420616d6f756e7473206c656e677468206044820152670dad2e6dac2e8c6d60c31b606482015260840161053c565b60006113a76115cb565b90506114288187600088888080602002602001604051908101604052809392919081815260200183836020028082843760009201919091525050604080516020808c0282810182019093528b82529093508b92508a918291850190849080828437600092018290525060408051602081019091529081529250611c0b915050565b7ff9ecf3cb86ac553c70621e3e662b4036163ca34fffb329385fafa0e130cfc1a760005b8581101561156557600087878381811061146857611468612d2a565b90506020020135905085858381811061148357611483612d2a565b9050602002013583600083815260200190815260200160002060008b6001600160a01b03166001600160a01b0316815260200190815260200160002054101561151a5760405162461bcd60e51b8152602060048201526024808201527f455243313135353a206275726e20616d6f756e7420657863656564732062616c604482015263616e636560e01b606482015260840161053c565b85858381811061152c5761152c612d2a565b6000938452602086815260408086206001600160a01b038f1687528252909420805494909102929092013590920390555060010161144c565b5060006001600160a01b0316876001600160a01b0316836001600160a01b03167f4a39dc06d4c0dbc64b70af90fd698a233a518aa5d07e595d983b8c0526c8f7fb898989896040516115ba9493929190612e55565b60405180910390a450505050505050565b60006115d5611c10565b905090565b610553868686868686611c1a565b6001600160a01b03831660009081527f349768cb3869818ef8452552d8520ac7355b35c10a0ff9320e2975b28752782060209081526040808320858452918290529091205482111561167c5760405162461bcd60e51b815260206004820152601160248201527f4e4f545f454e4f5547485f4c4f434b4544000000000000000000000000000000604482015260640161053c565b6000838152602082905260408120805484929061169a908490612e87565b909155505050505050565b6001600160a01b0383166117075760405162461bcd60e51b815260206004820152602360248201527f455243313135353a206275726e2066726f6d20746865207a65726f206164647260448201526265737360e81b606482015260840161053c565b60006117116115cb565b90506117418185600061172387611bc0565b61172c87611bc0565b60405180602001604052806000815250611c0b565b60008381527ff9ecf3cb86ac553c70621e3e662b4036163ca34fffb329385fafa0e130cfc1a7602090815260408083206001600160a01b038816845291829052909120548311156117e05760405162461bcd60e51b8152602060048201526024808201527f455243313135353a206275726e20616d6f756e7420657863656564732062616c604482015263616e636560e01b606482015260840161053c565b6001600160a01b0385811660008181526020848152604080832080548990039055805189815291820188905291938616917fc3d58168c5ae7397731d063d5bbf3d657854427343f4c083240f7aacaa2d0f62910160405180910390a45050505050565b6001600160a01b03831660009081527f349768cb3869818ef8452552d8520ac7355b35c10a0ff9320e2975b28752782060209081526040808320858452918290529091205482906118948686610edb565b61189e9190612e87565b10156118ec5760405162461bcd60e51b815260206004820152601260248201527f4e4f545f454e4f5547485f42414c414e43450000000000000000000000000000604482015260640161053c565b6000838152602082905260408120805484929061169a908490612dee565b60006119146115cb565b9050826001600160a01b0316816001600160a01b03160361199d5760405162461bcd60e51b815260206004820152602960248201527f455243313135353a2073657474696e6720617070726f76616c2073746174757360448201527f20666f722073656c660000000000000000000000000000000000000000000000606482015260840161053c565b6001600160a01b0381811660008181527ff9ecf3cb86ac553c70621e3e662b4036163ca34fffb329385fafa0e130cfc1a86020908152604080832094881680845294825291829020805460ff1916871515908117909155825190815291517f17307eab39ab6107e8899845ad3d59bd9653f200f220920489ca2b5937696c319281900390910190a3505050565b6000611a346115cb565b90506001600160a01b038616611ab25760405162461bcd60e51b815260206004820152602160248201527f455243313135353a206d696e7420746f20746865207a65726f2061646472657360448201527f7300000000000000000000000000000000000000000000000000000000000000606482015260840161053c565b611b0781600088611ac289611bc0565b611acb89611bc0565b88888080601f016020809104026020016040519081016040528093929190818152602001838380828437600092019190915250611c0b92505050565b60008581527ff9ecf3cb86ac553c70621e3e662b4036163ca34fffb329385fafa0e130cfc1a7602090815260408083206001600160a01b038a16845290915281208054869290611b58908490612dee565b909155505060408051868152602081018690526001600160a01b0380891692600092918516917fc3d58168c5ae7397731d063d5bbf3d657854427343f4c083240f7aacaa2d0f62910160405180910390a4505050505050565b610ce287878787878787611c42565b60408051600180825281830190925260609160009190602080830190803683370190505090508281600081518110611bfa57611bfa612d2a565b602090810291909101015292915050565b610553565b60006115d5611c6b565b856001600160a01b0381163314611c3457611c3433611cb4565b610ce2878787878787611da2565b866001600160a01b0381163314611c5c57611c5c33611cb4565b61043488888888888888611dbe565b7fdb1d5e345c4903e9a32b6674ecc8b1deaddbbb2551474fb34c9d34becbe7f420546000906001600160a01b03163303611cac575060131936013560601c90565b503390565b90565b6daaeb6d7670e522a718067333cd4e3b15611d9f576040517fc61711340000000000000000000000000000000000000000000000000000000081523060048201526001600160a01b03821660248201526daaeb6d7670e522a718067333cd4e9063c617113490604401602060405180830381865afa158015611d3a573d6000803e3d6000fd5b505050506040513d601f19601f82011682018060405250810190611d5e9190612d6f565b611d9f576040517fede71dcc0000000000000000000000000000000000000000000000000000000081526001600160a01b038216600482015260240161053c565b50565b611db0868686868686611e11565b610553868686868686611e1f565b611dcd87878787878787611fc4565b610ce2878787878787878080601f016020809104026020016040519081016040528093929190818152602001838380828437600092019190915250611fd392505050565b6105538686868686866120cf565b6001600160a01b0384163b156105535760405163bc197c8160e01b81526001600160a01b0385169063bc197c8190611e639089908990889088908890600401612eeb565b6020604051808303816000875af1925050508015611e9e575060408051601f3d908101601f19168201909252611e9b91810190612f49565b60015b611f5357611eaa612f73565b806308c379a003611ee35750611ebe612f8e565b80611ec95750611ee5565b8060405162461bcd60e51b815260040161053c9190613018565b505b60405162461bcd60e51b815260206004820152603460248201527f455243313135353a207472616e7366657220746f206e6f6e204552433131353560448201527f526563656976657220696d706c656d656e746572000000000000000000000000606482015260840161053c565b6001600160e01b0319811663bc197c8160e01b14610ce25760405162461bcd60e51b815260206004820152602860248201527f455243313135353a204552433131353552656365697665722072656a656374656044820152676420746f6b656e7360c01b606482015260840161053c565b610ce2878787878787876120f7565b6001600160a01b0384163b156105535760405163f23a6e6160e01b81526001600160a01b0385169063f23a6e6190612017908990899088908890889060040161302b565b6020604051808303816000875af1925050508015612052575060408051601f3d908101601f1916820190925261204f91810190612f49565b60015b61205e57611eaa612f73565b6001600160e01b0319811663f23a6e6160e01b14610ce25760405162461bcd60e51b815260206004820152602860248201527f455243313135353a204552433131353552656365697665722072656a656374656044820152676420746f6b656e7360c01b606482015260840161053c565b856001600160a01b03811633146120e9576120e933611cb4565b610ce2878787878787612120565b866001600160a01b03811633146121115761211133611cb4565b6104348888888888888861239c565b6001600160a01b0384166121845760405162461bcd60e51b815260206004820152602560248201527f455243313135353a207472616e7366657220746f20746865207a65726f206164604482015264647265737360d81b606482015260840161053c565b81518351146121e65760405162461bcd60e51b815260206004820152602860248201527f455243313135353a2069647320616e6420616d6f756e7473206c656e677468206044820152670dad2e6dac2e8c6d60c31b606482015260840161053c565b6121f4868686868686611c0b565b7ff9ecf3cb86ac553c70621e3e662b4036163ca34fffb329385fafa0e130cfc1a760005b845181101561234c57600085828151811061223557612235612d2a565b60200260200101519050600085838151811061225357612253612d2a565b602090810291909101810151600084815286835260408082206001600160a01b038e1683529093529190912054909150818110156122f95760405162461bcd60e51b815260206004820152602b60248201527f455243313135353a20696e73756666696369656e742062616c616e636573206660448201527f6f72207472616e73666572000000000000000000000000000000000000000000606482015260840161053c565b6000838152602086815260408083206001600160a01b038e811685529252808320938590039093558a16815290812080546001959095019483929061233f908490612dee565b9091555061221892505050565b50846001600160a01b0316866001600160a01b0316886001600160a01b03167f4a39dc06d4c0dbc64b70af90fd698a233a518aa5d07e595d983b8c0526c8f7fb87876040516115ba929190613063565b6001600160a01b0385166124005760405162461bcd60e51b815260206004820152602560248201527f455243313135353a207472616e7366657220746f20746865207a65726f206164604482015264647265737360d81b606482015260840161053c565b61245487878761240f88611bc0565b61241888611bc0565b87878080601f016020809104026020016040519081016040528093929190818152602001838380828437600092019190915250611c0b92505050565b60008481527ff9ecf3cb86ac553c70621e3e662b4036163ca34fffb329385fafa0e130cfc1a7602081815260408084206001600160a01b038b168552909152909120548481101561250d5760405162461bcd60e51b815260206004820152602b60248201527f455243313135353a20696e73756666696369656e742062616c616e636573206660448201527f6f72207472616e73666572000000000000000000000000000000000000000000606482015260840161053c565b6000868152602083815260408083206001600160a01b038c8116855292528083209388900390935588168152908120805486929061254c908490612dee565b909155505060408051868152602081018690526001600160a01b03808916928a821692918c16917fc3d58168c5ae7397731d063d5bbf3d657854427343f4c083240f7aacaa2d0f62910160405180910390a45050505050505050565b80356001600160a01b03811681146125bf57600080fd5b919050565b600080604083850312156125d757600080fd5b6125e0836125a8565b946020939093013593505050565b60008083601f84011261260057600080fd5b50813567ffffffffffffffff81111561261857600080fd5b6020830191508360208260051b850101111561263357600080fd5b9250929050565b6000806000806000806000806080898b03121561265657600080fd5b883567ffffffffffffffff8082111561266e57600080fd5b61267a8c838d016125ee565b909a50985060208b013591508082111561269357600080fd5b61269f8c838d016125ee565b909850965060408b01359150808211156126b857600080fd5b6126c48c838d016125ee565b909650945060608b01359150808211156126dd57600080fd5b506126ea8b828c016125ee565b999c989b5096995094979396929594505050565b60008060008060006060868803121561271657600080fd5b61271f866125a8565b9450602086013567ffffffffffffffff8082111561273c57600080fd5b61274889838a016125ee565b9096509450604088013591508082111561276157600080fd5b5061276e888289016125ee565b969995985093965092949392505050565b634e487b7160e01b600052604160045260246000fd5b601f8201601f1916810167ffffffffffffffff811182821017156127bb576127bb61277f565b6040525050565b600067ffffffffffffffff8211156127dc576127dc61277f565b5060051b60200190565b600082601f8301126127f757600080fd5b81356020612804826127c2565b6040516128118282612795565b83815260059390931b850182019282810191508684111561283157600080fd5b8286015b8481101561284c5780358352918301918301612835565b509695505050505050565b600080600080600060a0868803121561286f57600080fd5b612878866125a8565b945060206128878188016125a8565b9450604087013567ffffffffffffffff808211156128a457600080fd5b6128b08a838b016127e6565b955060608901359150808211156128c657600080fd5b6128d28a838b016127e6565b945060808901359150808211156128e857600080fd5b818901915089601f8301126128fc57600080fd5b81358181111561290e5761290e61277f565b6040519150612926601f8201601f1916850183612795565b8082528a8482850101111561293a57600080fd5b80848401858401376000848284010152508093505050509295509295909350565b600082601f83011261296c57600080fd5b81356020612979826127c2565b6040516129868282612795565b83815260059390931b85018201928281019150868411156129a657600080fd5b8286015b8481101561284c576129bb816125a8565b83529183019183016129aa565b6000806000606084860312156129dd57600080fd5b833567ffffffffffffffff808211156129f557600080fd5b612a018783880161295b565b94506020860135915080821115612a1757600080fd5b612a23878388016127e6565b93506040860135915080821115612a3957600080fd5b50612a46868287016127e6565b9150509250925092565b600080600060608486031215612a6557600080fd5b612a6e846125a8565b95602085013595506040909401359392505050565b60008060408385031215612a9657600080fd5b823567ffffffffffffffff80821115612aae57600080fd5b612aba8683870161295b565b93506020850135915080821115612ad057600080fd5b50612add858286016127e6565b9150509250929050565b600081518084526020808501945080840160005b83811015612b1757815187529582019590820190600101612afb565b509495945050505050565b6020815260006103fd6020830184612ae7565b600060208284031215612b4757600080fd5b5035919050565b8015158114611d9f57600080fd5b60008060408385031215612b6f57600080fd5b612b78836125a8565b91506020830135612b8881612b4e565b809150509250929050565b600080600060408486031215612ba857600080fd5b612bb1846125a8565b9250602084013567ffffffffffffffff811115612bcd57600080fd5b612bd9868287016125ee565b9497909650939450505050565b60008083601f840112612bf857600080fd5b50813567ffffffffffffffff811115612c1057600080fd5b60208301915083602082850101111561263357600080fd5b600080600080600060808688031215612c4057600080fd5b612c49866125a8565b94506020860135935060408601359250606086013567ffffffffffffffff811115612c7357600080fd5b61276e88828901612be6565b60008060408385031215612c9257600080fd5b612c9b836125a8565b9150612ca9602084016125a8565b90509250929050565b60008060008060008060a08789031215612ccb57600080fd5b612cd4876125a8565b9550612ce2602088016125a8565b94506040870135935060608701359250608087013567ffffffffffffffff811115612d0c57600080fd5b612d1889828a01612be6565b979a9699509497509295939492505050565b634e487b7160e01b600052603260045260246000fd5b634e487b7160e01b600052601160045260246000fd5b600060018201612d6857612d68612d40565b5060010190565b600060208284031215612d8157600080fd5b81516103fd81612b4e565b600060208284031215612d9e57600080fd5b6103fd826125a8565b6000808335601e19843603018112612dbe57600080fd5b83018035915067ffffffffffffffff821115612dd957600080fd5b60200191503681900382131561263357600080fd5b60008219821115612e0157612e01612d40565b500190565b81835260007f07ffffffffffffffffffffffffffffffffffffffffffffffffffffffffffffff831115612e3857600080fd5b8260051b8083602087013760009401602001938452509192915050565b604081526000612e69604083018688612e06565b8281036020840152612e7c818587612e06565b979650505050505050565b600082821015612e9957612e99612d40565b500390565b6000815180845260005b81811015612ec457602081850181015186830182015201612ea8565b81811115612ed6576000602083870101525b50601f01601f19169290920160200192915050565b60006001600160a01b03808816835280871660208401525060a06040830152612f1760a0830186612ae7565b8281036060840152612f298186612ae7565b90508281036080840152612f3d8185612e9e565b98975050505050505050565b600060208284031215612f5b57600080fd5b81516001600160e01b0319811681146103fd57600080fd5b600060033d1115611cb15760046000803e5060005160e01c90565b600060443d1015612f9c5790565b6040516003193d81016004833e81513d67ffffffffffffffff8160248401118184111715612fcc57505050505090565b8285019150815181811115612fe45750505050505090565b843d8701016020828501011115612ffe5750505050505090565b61300d60208286010187612795565b509095945050505050565b6020815260006103fd6020830184612e9e565b60006001600160a01b03808816835280871660208401525084604083015283606083015260a06080830152612e7c60a0830184612e9e565b6040815260006130766040830185612ae7565b82810360208401526130888185612ae7565b9594505050505056fea26469706673582212202db765a9d6962823aaeae109afa1eaf74f044eac81b24fb7d1becae0fa58069264736f6c634300080f0033",
  "devdoc": {
    "custom:category": "NFTs",
    "custom:provides-interfaces": "IERC1155 IERC1155SupplyExtension IERC1155MintableExtension IERC1155BurnableExtension IERC1155LockableExtension IRoyaltyEnforcement",
    "custom:type": "eip-2535-facet",
    "kind": "dev",
    "methods": {
      "balanceOf(address,uint256)": {
        "params": {
          "account": "address to query",
          "id": "token to query"
        },
        "returns": {
          "_0": "token balance"
        }
      },
      "balanceOfBatch(address[],uint256[])": {
        "params": {
          "accounts": "addresss to query",
          "ids": "tokens to query"
        },
        "returns": {
          "_0": "token balances"
        }
      },
      "exists(uint256)": {
        "details": "Indicates whether any token exist with a given id, or not."
      },
      "isApprovedForAll(address,address)": {
        "params": {
          "account": "address to query for approval granted",
          "operator": "address to query for approval received"
        },
        "returns": {
          "_0": "whether operator is approved to spend tokens held by account"
        }
      },
      "lockByFacet(address,uint256,uint256)": {
        "details": "Locks `amount` of tokens of `account`, of token type `id`. Requirements: - the caller must be diamond itself (other facets)."
      },
      "maxSupply(uint256)": {
        "details": "Maximum amount of tokens possible to exist for a given id."
      },
      "mintByFacet(address,uint256,uint256,bytes)": {
        "details": "Creates `amount` new tokens for `to`, of token type `id`. See {ERC1155-_mint}. Requirements: - the caller must be diamond itself (other facets)."
      },
      "safeBatchTransferFrom(address,address,uint256[],uint256[],bytes)": {
        "params": {
          "amounts": "list of quantities of tokens to transfer",
          "data": "data payload",
          "from": "sender of tokens",
          "ids": "list of token IDs",
          "to": "receiver of tokens"
        }
      },
      "safeTransferFrom(address,address,uint256,uint256,bytes)": {
        "params": {
          "amount": "quantity of tokens to transfer",
          "data": "data payload",
          "from": "sender of tokens",
          "id": "token ID",
          "to": "receiver of tokens"
        }
      },
      "setApprovalForAll(address,bool)": {
        "params": {
          "operator": "address whose approval status to update",
          "status": "whether operator should be considered approved"
        }
      },
      "totalSupply(uint256)": {
        "details": "Total amount of tokens in with a given id."
      },
      "unlockByFacet(address,uint256,uint256)": {
        "details": "Un-locks `amount` of tokens of `account`, of token type `id`. Requirements: - the caller must be diamond itself (other facets)."
      }
    },
    "title": "ERC1155 - with meta-transactions",
    "version": 1
  },
  "userdoc": {
    "errors": {
      "ErrSenderIsNotSelf()": [
        {
          "notice": "The caller must be the current contract itself."
        }
      ]
    },
    "kind": "user",
    "methods": {
      "balanceOf(address,uint256)": {
        "notice": "query the balance of given token held by given address"
      },
      "balanceOfBatch(address[],uint256[])": {
        "notice": "query the balances of given tokens held by given addresses"
      },
      "isApprovedForAll(address,address)": {
        "notice": "query approval status of given operator with respect to given address"
      },
      "safeBatchTransferFrom(address,address,uint256[],uint256[],bytes)": {
        "notice": "transfer batch of tokens between given addresses, checking for ERC1155Receiver implementation if applicable"
      },
      "safeTransferFrom(address,address,uint256,uint256,bytes)": {
        "notice": "transfer tokens between given addresses, checking for ERC1155Receiver implementation if applicable"
      },
      "setApprovalForAll(address,bool)": {
        "notice": "grant approval to or revoke approval from given operator to spend held tokens"
      }
    },
    "notice": "Standard EIP-1155 with ability to accept meta transactions (mainly transfer or burn methods).",
    "version": 1
  },
  "storageLayout": {
    "storage": [],
    "types": null
  }
}