{
  "address": "0x3C3FD4F5794DC0AEaC2387DAdc4F336a0993866a",
  "abi": [
    {
      "inputs": [],
      "name": "ErrSenderIsNotSelf",
      "type": "error"
    },
    {
      "anonymous": false,
      "inputs": [
        {
          "indexed": true,
          "internalType": "address",
          "name": "account",
          "type": "address"
        },
        {
          "indexed": true,
          "internalType": "address",
          "name": "operator",
          "type": "address"
        },
        {
          "indexed": false,
          "internalType": "bool",
          "name": "approved",
          "type": "bool"
        }
      ],
      "name": "ApprovalForAll",
      "type": "event"
    },
    {
      "anonymous": false,
      "inputs": [
        {
          "indexed": true,
          "internalType": "address",
          "name": "operator",
          "type": "address"
        },
        {
          "indexed": true,
          "internalType": "address",
          "name": "from",
          "type": "address"
        },
        {
          "indexed": true,
          "internalType": "address",
          "name": "to",
          "type": "address"
        },
        {
          "indexed": false,
          "internalType": "uint256[]",
          "name": "ids",
          "type": "uint256[]"
        },
        {
          "indexed": false,
          "internalType": "uint256[]",
          "name": "values",
          "type": "uint256[]"
        }
      ],
      "name": "TransferBatch",
      "type": "event"
    },
    {
      "anonymous": false,
      "inputs": [
        {
          "indexed": true,
          "internalType": "address",
          "name": "operator",
          "type": "address"
        },
        {
          "indexed": true,
          "internalType": "address",
          "name": "from",
          "type": "address"
        },
        {
          "indexed": true,
          "internalType": "address",
          "name": "to",
          "type": "address"
        },
        {
          "indexed": false,
          "internalType": "uint256",
          "name": "id",
          "type": "uint256"
        },
        {
          "indexed": false,
          "internalType": "uint256",
          "name": "value",
          "type": "uint256"
        }
      ],
      "name": "TransferSingle",
      "type": "event"
    },
    {
      "inputs": [
        {
          "internalType": "address",
          "name": "account",
          "type": "address"
        },
        {
          "internalType": "uint256",
          "name": "id",
          "type": "uint256"
        }
      ],
      "name": "balanceOf",
      "outputs": [
        {
          "internalType": "uint256",
          "name": "",
          "type": "uint256"
        }
      ],
      "stateMutability": "view",
      "type": "function"
    },
    {
      "inputs": [
        {
          "internalType": "address[]",
          "name": "accounts",
          "type": "address[]"
        },
        {
          "internalType": "uint256[]",
          "name": "ids",
          "type": "uint256[]"
        }
      ],
      "name": "balanceOfBatch",
      "outputs": [
        {
          "internalType": "uint256[]",
          "name": "",
          "type": "uint256[]"
        }
      ],
      "stateMutability": "view",
      "type": "function"
    },
    {
      "inputs": [
        {
          "internalType": "address",
          "name": "account",
          "type": "address"
        },
        {
          "internalType": "uint256",
          "name": "id",
          "type": "uint256"
        },
        {
          "internalType": "uint256",
          "name": "value",
          "type": "uint256"
        }
      ],
      "name": "burn",
      "outputs": [],
      "stateMutability": "nonpayable",
      "type": "function"
    },
    {
      "inputs": [
        {
          "internalType": "address",
          "name": "account",
          "type": "address"
        },
        {
          "internalType": "uint256[]",
          "name": "ids",
          "type": "uint256[]"
        },
        {
          "internalType": "uint256[]",
          "name": "values",
          "type": "uint256[]"
        }
      ],
      "name": "burnBatch",
      "outputs": [],
      "stateMutability": "nonpayable",
      "type": "function"
    },
    {
      "inputs": [
        {
          "internalType": "address",
          "name": "account",
          "type": "address"
        },
        {
          "internalType": "uint256[]",
          "name": "ids",
          "type": "uint256[]"
        },
        {
          "internalType": "uint256[]",
          "name": "values",
          "type": "uint256[]"
        }
      ],
      "name": "burnBatchByFacet",
      "outputs": [],
      "stateMutability": "nonpayable",
      "type": "function"
    },
    {
      "inputs": [
        {
          "internalType": "address",
          "name": "account",
          "type": "address"
        },
        {
          "internalType": "uint256",
          "name": "id",
          "type": "uint256"
        },
        {
          "internalType": "uint256",
          "name": "amount",
          "type": "uint256"
        }
      ],
      "name": "burnByFacet",
      "outputs": [],
      "stateMutability": "nonpayable",
      "type": "function"
    },
    {
      "inputs": [
        {
          "internalType": "uint256",
          "name": "id",
          "type": "uint256"
        }
      ],
      "name": "exists",
      "outputs": [
        {
          "internalType": "bool",
          "name": "",
          "type": "bool"
        }
      ],
      "stateMutability": "view",
      "type": "function"
    },
    {
      "inputs": [
        {
          "internalType": "uint256[]",
          "name": "ids",
          "type": "uint256[]"
        }
      ],
      "name": "existsBatch",
      "outputs": [
        {
          "internalType": "bool[]",
          "name": "",
          "type": "bool[]"
        }
      ],
      "stateMutability": "view",
      "type": "function"
    },
    {
      "inputs": [
        {
          "internalType": "address",
          "name": "account",
          "type": "address"
        },
        {
          "internalType": "address",
          "name": "operator",
          "type": "address"
        }
      ],
      "name": "isApprovedForAll",
      "outputs": [
        {
          "internalType": "bool",
          "name": "",
          "type": "bool"
        }
      ],
      "stateMutability": "view",
      "type": "function"
    },
    {
      "inputs": [
        {
          "internalType": "address",
          "name": "account",
          "type": "address"
        },
        {
          "internalType": "uint256",
          "name": "id",
          "type": "uint256"
        },
        {
          "internalType": "uint256",
          "name": "amount",
          "type": "uint256"
        }
      ],
      "name": "lockByFacet",
      "outputs": [],
      "stateMutability": "nonpayable",
      "type": "function"
    },
    {
      "inputs": [
        {
          "internalType": "address[]",
          "name": "accounts",
          "type": "address[]"
        },
        {
          "internalType": "uint256[]",
          "name": "ids",
          "type": "uint256[]"
        },
        {
          "internalType": "uint256[]",
          "name": "amounts",
          "type": "uint256[]"
        }
      ],
      "name": "lockByFacet",
      "outputs": [],
      "stateMutability": "nonpayable",
      "type": "function"
    },
    {
      "inputs": [
        {
          "internalType": "address",
          "name": "account",
          "type": "address"
        },
        {
          "internalType": "uint256[]",
          "name": "ticketTokenIds",
          "type": "uint256[]"
        }
      ],
      "name": "locked",
      "outputs": [
        {
          "internalType": "uint256[]",
          "name": "",
          "type": "uint256[]"
        }
      ],
      "stateMutability": "view",
      "type": "function"
    },
    {
      "inputs": [
        {
          "internalType": "address",
          "name": "account",
          "type": "address"
        },
        {
          "internalType": "uint256",
          "name": "tokenId",
          "type": "uint256"
        }
      ],
      "name": "locked",
      "outputs": [
        {
          "internalType": "uint256",
          "name": "",
          "type": "uint256"
        }
      ],
      "stateMutability": "view",
      "type": "function"
    },
    {
      "inputs": [
        {
          "internalType": "uint256",
          "name": "id",
          "type": "uint256"
        }
      ],
      "name": "maxSupply",
      "outputs": [
        {
          "internalType": "uint256",
          "name": "",
          "type": "uint256"
        }
      ],
      "stateMutability": "view",
      "type": "function"
    },
    {
      "inputs": [
        {
          "internalType": "uint256[]",
          "name": "ids",
          "type": "uint256[]"
        }
      ],
      "name": "maxSupplyBatch",
      "outputs": [
        {
          "internalType": "uint256[]",
          "name": "",
          "type": "uint256[]"
        }
      ],
      "stateMutability": "view",
      "type": "function"
    },
    {
      "inputs": [
        {
          "internalType": "address[]",
          "name": "tos",
          "type": "address[]"
        },
        {
          "internalType": "uint256[]",
          "name": "ids",
          "type": "uint256[]"
        },
        {
          "internalType": "uint256[]",
          "name": "amounts",
          "type": "uint256[]"
        },
        {
          "internalType": "bytes[]",
          "name": "datas",
          "type": "bytes[]"
        }
      ],
      "name": "mintByFacet",
      "outputs": [],
      "stateMutability": "nonpayable",
      "type": "function"
    },
    {
      "inputs": [
        {
          "internalType": "address",
          "name": "to",
          "type": "address"
        },
        {
          "internalType": "uint256",
          "name": "id",
          "type": "uint256"
        },
        {
          "internalType": "uint256",
          "name": "amount",
          "type": "uint256"
        },
        {
          "internalType": "bytes",
          "name": "data",
          "type": "bytes"
        }
      ],
      "name": "mintByFacet",
      "outputs": [],
      "stateMutability": "nonpayable",
      "type": "function"
    },
    {
      "inputs": [
        {
          "internalType": "address",
          "name": "from",
          "type": "address"
        },
        {
          "internalType": "address",
          "name": "to",
          "type": "address"
        },
        {
          "internalType": "uint256[]",
          "name": "ids",
          "type": "uint256[]"
        },
        {
          "internalType": "uint256[]",
          "name": "amounts",
          "type": "uint256[]"
        },
        {
          "internalType": "bytes",
          "name": "data",
          "type": "bytes"
        }
      ],
      "name": "safeBatchTransferFrom",
      "outputs": [],
      "stateMutability": "nonpayable",
      "type": "function"
    },
    {
      "inputs": [
        {
          "internalType": "address",
          "name": "from",
          "type": "address"
        },
        {
          "internalType": "address",
          "name": "to",
          "type": "address"
        },
        {
          "internalType": "uint256",
          "name": "id",
          "type": "uint256"
        },
        {
          "internalType": "uint256",
          "name": "amount",
          "type": "uint256"
        },
        {
          "internalType": "bytes",
          "name": "data",
          "type": "bytes"
        }
      ],
      "name": "safeTransferFrom",
      "outputs": [],
      "stateMutability": "nonpayable",
      "type": "function"
    },
    {
      "inputs": [
        {
          "internalType": "address",
          "name": "operator",
          "type": "address"
        },
        {
          "internalType": "bool",
          "name": "status",
          "type": "bool"
        }
      ],
      "name": "setApprovalForAll",
      "outputs": [],
      "stateMutability": "nonpayable",
      "type": "function"
    },
    {
      "inputs": [
        {
          "internalType": "uint256",
          "name": "id",
          "type": "uint256"
        }
      ],
      "name": "totalSupply",
      "outputs": [
        {
          "internalType": "uint256",
          "name": "",
          "type": "uint256"
        }
      ],
      "stateMutability": "view",
      "type": "function"
    },
    {
      "inputs": [
        {
          "internalType": "uint256[]",
          "name": "ids",
          "type": "uint256[]"
        }
      ],
      "name": "totalSupplyBatch",
      "outputs": [
        {
          "internalType": "uint256[]",
          "name": "",
          "type": "uint256[]"
        }
      ],
      "stateMutability": "view",
      "type": "function"
    },
    {
      "inputs": [
        {
          "internalType": "address[]",
          "name": "accounts",
          "type": "address[]"
        },
        {
          "internalType": "uint256[]",
          "name": "ids",
          "type": "uint256[]"
        },
        {
          "internalType": "uint256[]",
          "name": "amounts",
          "type": "uint256[]"
        }
      ],
      "name": "unlockByFacet",
      "outputs": [],
      "stateMutability": "nonpayable",
      "type": "function"
    },
    {
      "inputs": [
        {
          "internalType": "address",
          "name": "account",
          "type": "address"
        },
        {
          "internalType": "uint256",
          "name": "id",
          "type": "uint256"
        },
        {
          "internalType": "uint256",
          "name": "amount",
          "type": "uint256"
        }
      ],
      "name": "unlockByFacet",
      "outputs": [],
      "stateMutability": "nonpayable",
      "type": "function"
    }
  ],
  "transactionHash": "0x243822e7d9a8359f7f2dd297d95eb9450297cc33394c2f6f4182a4fee55b5bfa",
  "args": [],
  "numDeployments": 10,
  "solcInputHash": "9df40449402cd55a229e1ccf961ce181",
  "bytecode": "0x608060405234801561001057600080fd5b506134e6806100206000396000f3fe608060405234801561001057600080fd5b50600436106101975760003560e01c8063869f7594116100e3578063bd85b0391161008c578063f242432a11610066578063f242432a146103b2578063f5298aca146103c5578063f7794bae146103d857600080fd5b8063bd85b03914610331578063bf7bab7314610344578063e985e9c51461035757600080fd5b8063a47fe40f116100bd578063a47fe40f146102f8578063a91a988a1461030b578063b164884b1461031e57600080fd5b8063869f7594146102bf578063983da156146102d2578063a22cb465146102e557600080fd5b80634e1273f4116101455780636708a9901161011f5780636708a990146102865780636b20c4541461029957806377954ac2146102ac57600080fd5b80634e1273f4146102235780634f558e791461024357806352d0a6bb1461026657600080fd5b80632eb2c2d6116101765780632eb2c2d6146101ea5780633f3b797e146101fd57806348f2f5361461021057600080fd5b8062fdd58e1461019c5780630a13c503146101c25780630ad2bbac146101d7575b600080fd5b6101af6101aa366004612957565b6103eb565b6040519081526020015b60405180910390f35b6101d56101d03660046129cd565b6103fe565b005b6101d56101e5366004612a91565b610438565b6101d56101f8366004612bea565b61046c565b6101d561020b366004612d5b565b610541565b6101d561021e366004612de3565b610639565b610236610231366004612e16565b610669565b6040516101b99190612eb5565b610256610251366004612ec8565b610890565b60405190151581526020016101b9565b610279610274366004612ee1565b6108c7565b6040516101b99190612f23565b6101d5610294366004612de3565b6109a6565b6101d56102a7366004612a91565b6109d1565b6102366102ba366004612ee1565b610ab8565b6101af6102cd366004612ec8565b610b88565b6101d56102e0366004612de3565b610bbb565b6101d56102f3366004612f7a565b610be6565b610236610306366004612ee1565b610cf2565b610236610319366004612fb1565b610dc2565b6101d561032c366004613046565b610ea9565b6101af61033f366004612ec8565b610ed6565b6101af610352366004612957565b610f09565b61025661036536600461309d565b6001600160a01b0391821660009081527ff9ecf3cb86ac553c70621e3e662b4036163ca34fffb329385fafa0e130cfc1a86020908152604080832093909416825291909152205460ff1690565b6101d56103c03660046130d0565b610f51565b6101d56103d3366004612de3565b611023565b6101d56103e6366004612d5b565b61110a565b60006103f783836111fc565b9392505050565b30331461041e5760405163fd570b5160e01b815260040160405180910390fd5b61042e88888888888888886112c1565b5050505050505050565b3033146104585760405163fd570b5160e01b815260040160405180910390fd5b61046585858585856115f1565b5050505050565b336001600160a01b0386168114806104c857506001600160a01b0380871660009081527ff9ecf3cb86ac553c70621e3e662b4036163ca34fffb329385fafa0e130cfc1a8602090815260408083209385168352929052205460ff165b61052b5760405162461bcd60e51b815260206004820152602960248201527f455243313135353a2063616c6c6572206973206e6f74206f776e6572206e6f7260448201526808185c1c1c9bdd995960ba1b60648201526084015b60405180910390fd5b6105398187878787876118da565b505050505050565b3033146105615760405163fd570b5160e01b815260040160405180910390fd5b81518351148015610573575080518351145b6105bf5760405162461bcd60e51b815260206004820152601460248201527f494e56414c49445f41525241595f4c454e4754480000000000000000000000006044820152606401610522565b60005b8351811015610633576106218482815181106105e0576105e0613148565b60200260200101518483815181106105fa576105fa613148565b602002602001015184848151811061061457610614613148565b60200260200101516118f6565b8061062b81613174565b9150506105c2565b50505050565b3033146106595760405163fd570b5160e01b815260040160405180910390fd5b6106648383836119b3565b505050565b606081518351146106e25760405162461bcd60e51b815260206004820152602960248201527f455243313135353a206163636f756e747320616e6420696473206c656e67746860448201527f206d69736d6174636800000000000000000000000000000000000000000000006064820152608401610522565b82517ff9ecf3cb86ac553c70621e3e662b4036163ca34fffb329385fafa0e130cfc1a79060009067ffffffffffffffff81111561072157610721612b12565b60405190808252806020026020018201604052801561074a578160200160208202803683370190505b50905060005b85518110156108875760006001600160a01b031686828151811061077657610776613148565b60200260200101516001600160a01b0316036107fa5760405162461bcd60e51b815260206004820152603160248201527f455243313135353a2062617463682062616c616e636520717565727920666f7260448201527f20746865207a65726f20616464726573730000000000000000000000000000006064820152608401610522565b82600086838151811061080f5761080f613148565b60200260200101518152602001908152602001600020600087838151811061083957610839613148565b60200260200101516001600160a01b03166001600160a01b031681526020019081526020016000205482828151811061087457610874613148565b6020908102919091010152600101610750565b50949350505050565b60008181527f7056dcda885936c7a9d7c6385902b4ab5fb09024caea98652b7189a5f7a28ea5602052604081205415155b92915050565b606060008267ffffffffffffffff8111156108e4576108e4612b12565b60405190808252806020026020018201604052801561090d578160200160208202803683370190505b50905060005b8381101561099e5761096a85858381811061093057610930613148565b9050602002013560009081527f7056dcda885936c7a9d7c6385902b4ab5fb09024caea98652b7189a5f7a28ea56020526040902054151590565b82828151811061097c5761097c613148565b911515602092830291909101909101528061099681613174565b915050610913565b509392505050565b3033146109c65760405163fd570b5160e01b815260040160405180910390fd5b6106648383836118f6565b6001600160a01b038516331480610a5a57503063e985e9c586336040516001600160e01b031960e085901b1681526001600160a01b03928316600482015291166024820152604401602060405180830381865afa158015610a36573d6000803e3d6000fd5b505050506040513d601f19601f82011682018060405250810190610a5a919061318d565b6104585760405162461bcd60e51b815260206004820152602960248201527f455243313135353a2063616c6c6572206973206e6f74206f776e6572206e6f7260448201526808185c1c1c9bdd995960ba1b6064820152608401610522565b606060008267ffffffffffffffff811115610ad557610ad5612b12565b604051908082528060200260200182016040528015610afe578160200160208202803683370190505b50905060005b8381101561099e57610b59858583818110610b2157610b21613148565b9050602002013560009081527f7056dcda885936c7a9d7c6385902b4ab5fb09024caea98652b7189a5f7a28ea5602052604090205490565b828281518110610b6b57610b6b613148565b602090810291909101015280610b8081613174565b915050610b04565b60008181527f7056dcda885936c7a9d7c6385902b4ab5fb09024caea98652b7189a5f7a28ea660205260408120546108c1565b303314610bdb5760405163fd570b5160e01b815260040160405180910390fd5b610664838383611b46565b336001600160a01b0383168103610c655760405162461bcd60e51b815260206004820152602960248201527f455243313135353a2073657474696e6720617070726f76616c2073746174757360448201527f20666f722073656c6600000000000000000000000000000000000000000000006064820152608401610522565b6001600160a01b0381811660008181527ff9ecf3cb86ac553c70621e3e662b4036163ca34fffb329385fafa0e130cfc1a86020908152604080832094881680845294825291829020805460ff1916871515908117909155825190815291517f17307eab39ab6107e8899845ad3d59bd9653f200f220920489ca2b5937696c319281900390910190a3505050565b606060008267ffffffffffffffff811115610d0f57610d0f612b12565b604051908082528060200260200182016040528015610d38578160200160208202803683370190505b50905060005b8381101561099e57610d93858583818110610d5b57610d5b613148565b9050602002013560009081527f7056dcda885936c7a9d7c6385902b4ab5fb09024caea98652b7189a5f7a28ea6602052604090205490565b828281518110610da557610da5613148565b602090810291909101015280610dba81613174565b915050610d3e565b606060008267ffffffffffffffff811115610ddf57610ddf612b12565b604051908082528060200260200182016040528015610e08578160200160208202803683370190505b50905060005b8381101561088757610e7a86868684818110610e2c57610e2c613148565b905060200201356001600160a01b039190911660009081527f349768cb3869818ef8452552d8520ac7355b35c10a0ff9320e2975b28752782060209081526040808320938352929052205490565b828281518110610e8c57610e8c613148565b602090810291909101015280610ea181613174565b915050610e0e565b303314610ec95760405163fd570b5160e01b815260040160405180910390fd5b6104658585858585611c0d565b60008181527f7056dcda885936c7a9d7c6385902b4ab5fb09024caea98652b7189a5f7a28ea560205260408120546108c1565b6001600160a01b03821660009081527f349768cb3869818ef8452552d8520ac7355b35c10a0ff9320e2975b287527820602090815260408083208484529091528120546103f7565b336001600160a01b038716811480610fad57506001600160a01b0380881660009081527ff9ecf3cb86ac553c70621e3e662b4036163ca34fffb329385fafa0e130cfc1a8602090815260408083209385168352929052205460ff165b61100b5760405162461bcd60e51b815260206004820152602960248201527f455243313135353a2063616c6c6572206973206e6f74206f776e6572206e6f7260448201526808185c1c1c9bdd995960ba1b6064820152608401610522565b61101a81888888888888611d89565b50505050505050565b6001600160a01b0383163314806110ac57503063e985e9c584336040516001600160e01b031960e085901b1681526001600160a01b03928316600482015291166024820152604401602060405180830381865afa158015611088573d6000803e3d6000fd5b505050506040513d601f19601f820116820180604052508101906110ac919061318d565b6106595760405162461bcd60e51b815260206004820152602960248201527f455243313135353a2063616c6c6572206973206e6f74206f776e6572206e6f7260448201526808185c1c1c9bdd995960ba1b6064820152608401610522565b30331461112a5760405163fd570b5160e01b815260040160405180910390fd5b8151835114801561113c575080518351145b6111885760405162461bcd60e51b815260206004820152601460248201527f494e56414c49445f41525241595f4c454e4754480000000000000000000000006044820152606401610522565b60005b8351811015610633576111ea8482815181106111a9576111a9613148565b60200260200101518483815181106111c3576111c3613148565b60200260200101518484815181106111dd576111dd613148565b6020026020010151611b46565b806111f481613174565b91505061118b565b60006001600160a01b03831661127a5760405162461bcd60e51b815260206004820152602b60248201527f455243313135353a2062616c616e636520717565727920666f7220746865207a60448201527f65726f20616464726573730000000000000000000000000000000000000000006064820152608401610522565b7ff9ecf3cb86ac553c70621e3e662b4036163ca34fffb329385fafa0e130cfc1a76000928352602090815260408084206001600160a01b0395909516845293905250205490565b8483146113215760405162461bcd60e51b815260206004820152602860248201527f455243313135353a2069647320616e6420616d6f756e7473206c656e677468206044820152670dad2e6dac2e8c6d60c31b6064820152608401610522565b8683146113965760405162461bcd60e51b815260206004820152602d60248201527f455243313135353a206163636f756e747320616e6420616d6f756e7473206c6560448201527f6e677468206d69736d61746368000000000000000000000000000000000000006064820152608401610522565b337ff9ecf3cb86ac553c70621e3e662b4036163ca34fffb329385fafa0e130cfc1a760005b878110156115e4576114848360008d8d858181106113db576113db613148565b90506020020160208101906113f091906131aa565b6114118d8d8781811061140557611405613148565b90506020020135611ddc565b6114268c8c8881811061140557611405613148565b8a8a8881811061143857611438613148565b905060200281019061144a91906131c5565b8080601f016020809104026020016040519081016040528093929190818152602001838380828437600092019190915250611e2792505050565b86868281811061149657611496613148565b905060200201358260008b8b858181106114b2576114b2613148565b90506020020135815260200190815260200160002060008d8d858181106114db576114db613148565b90506020020160208101906114f091906131aa565b6001600160a01b03166001600160a01b03168152602001908152602001600020600082825461151f919061320c565b909155508b90508a8281811061153757611537613148565b905060200201602081019061154c91906131aa565b6001600160a01b031660006001600160a01b0316846001600160a01b03167fc3d58168c5ae7397731d063d5bbf3d657854427343f4c083240f7aacaa2d0f628c8c8681811061159d5761159d613148565b905060200201358b8b878181106115b6576115b6613148565b905060200201356040516115d4929190918252602082015260400190565b60405180910390a46001016113bb565b5050505050505050505050565b6001600160a01b0385166116535760405162461bcd60e51b815260206004820152602360248201527f455243313135353a206275726e2066726f6d20746865207a65726f206164647260448201526265737360e81b6064820152608401610522565b8281146116b35760405162461bcd60e51b815260206004820152602860248201527f455243313135353a2069647320616e6420616d6f756e7473206c656e677468206044820152670dad2e6dac2e8c6d60c31b6064820152608401610522565b60003390506117378187600088888080602002602001604051908101604052809392919081815260200183836020028082843760009201919091525050604080516020808c0282810182019093528b82529093508b92508a918291850190849080828437600092018290525060408051602081019091529081529250611e27915050565b7ff9ecf3cb86ac553c70621e3e662b4036163ca34fffb329385fafa0e130cfc1a760005b8581101561187457600087878381811061177757611777613148565b90506020020135905085858381811061179257611792613148565b9050602002013583600083815260200190815260200160002060008b6001600160a01b03166001600160a01b031681526020019081526020016000205410156118295760405162461bcd60e51b8152602060048201526024808201527f455243313135353a206275726e20616d6f756e7420657863656564732062616c604482015263616e636560e01b6064820152608401610522565b85858381811061183b5761183b613148565b6000938452602086815260408086206001600160a01b038f1687528252909420805494909102929092013590920390555060010161175b565b5060006001600160a01b0316876001600160a01b0316836001600160a01b03167f4a39dc06d4c0dbc64b70af90fd698a233a518aa5d07e595d983b8c0526c8f7fb898989896040516118c99493929190613273565b60405180910390a450505050505050565b6118e8868686868686611e35565b6105398686868686866120b1565b6001600160a01b03831660009081527f349768cb3869818ef8452552d8520ac7355b35c10a0ff9320e2975b28752782060209081526040808320858452918290529091205482111561198a5760405162461bcd60e51b815260206004820152601160248201527f4e4f545f454e4f5547485f4c4f434b45440000000000000000000000000000006044820152606401610522565b600083815260208290526040812080548492906119a89084906132a5565b909155505050505050565b6001600160a01b038316611a155760405162461bcd60e51b815260206004820152602360248201527f455243313135353a206275726e2066726f6d20746865207a65726f206164647260448201526265737360e81b6064820152608401610522565b33611a4481856000611a2687611ddc565b611a2f87611ddc565b60405180602001604052806000815250611e27565b60008381527ff9ecf3cb86ac553c70621e3e662b4036163ca34fffb329385fafa0e130cfc1a7602090815260408083206001600160a01b03881684529182905290912054831115611ae35760405162461bcd60e51b8152602060048201526024808201527f455243313135353a206275726e20616d6f756e7420657863656564732062616c604482015263616e636560e01b6064820152608401610522565b6001600160a01b0385811660008181526020848152604080832080548990039055805189815291820188905291938616917fc3d58168c5ae7397731d063d5bbf3d657854427343f4c083240f7aacaa2d0f62910160405180910390a45050505050565b6001600160a01b03831660009081527f349768cb3869818ef8452552d8520ac7355b35c10a0ff9320e2975b2875278206020908152604080832085845291829052909120548290611b9786866111fc565b611ba191906132a5565b1015611bef5760405162461bcd60e51b815260206004820152601260248201527f4e4f545f454e4f5547485f42414c414e434500000000000000000000000000006044820152606401610522565b600083815260208290526040812080548492906119a890849061320c565b336001600160a01b038616611c8a5760405162461bcd60e51b815260206004820152602160248201527f455243313135353a206d696e7420746f20746865207a65726f2061646472657360448201527f73000000000000000000000000000000000000000000000000000000000000006064820152608401610522565b611cdf81600088611c9a89611ddc565b611ca389611ddc565b88888080601f016020809104026020016040519081016040528093929190818152602001838380828437600092019190915250611e2792505050565b60008581527ff9ecf3cb86ac553c70621e3e662b4036163ca34fffb329385fafa0e130cfc1a7602090815260408083206001600160a01b038a16845290915281208054869290611d3090849061320c565b909155505060408051868152602081018690526001600160a01b0380891692600092918516917fc3d58168c5ae7397731d063d5bbf3d657854427343f4c083240f7aacaa2d0f62910160405180910390a4505050505050565b611d9887878787878787612256565b61101a878787878787878080601f01602080910402602001604051908101604052809392919081815260200183838082843760009201919091525061246292505050565b60408051600180825281830190925260609160009190602080830190803683370190505090508281600081518110611e1657611e16613148565b602090810291909101015292915050565b61053986868686868661255e565b6001600160a01b038416611e995760405162461bcd60e51b815260206004820152602560248201527f455243313135353a207472616e7366657220746f20746865207a65726f206164604482015264647265737360d81b6064820152608401610522565b8151835114611efb5760405162461bcd60e51b815260206004820152602860248201527f455243313135353a2069647320616e6420616d6f756e7473206c656e677468206044820152670dad2e6dac2e8c6d60c31b6064820152608401610522565b611f09868686868686611e27565b7ff9ecf3cb86ac553c70621e3e662b4036163ca34fffb329385fafa0e130cfc1a760005b8451811015612061576000858281518110611f4a57611f4a613148565b602002602001015190506000858381518110611f6857611f68613148565b602090810291909101810151600084815286835260408082206001600160a01b038e16835290935291909120549091508181101561200e5760405162461bcd60e51b815260206004820152602b60248201527f455243313135353a20696e73756666696369656e742062616c616e636573206660448201527f6f72207472616e736665720000000000000000000000000000000000000000006064820152608401610522565b6000838152602086815260408083206001600160a01b038e811685529252808320938590039093558a16815290812080546001959095019483929061205490849061320c565b90915550611f2d92505050565b50846001600160a01b0316866001600160a01b0316886001600160a01b03167f4a39dc06d4c0dbc64b70af90fd698a233a518aa5d07e595d983b8c0526c8f7fb87876040516118c99291906132bc565b6001600160a01b0384163b156105395760405163bc197c8160e01b81526001600160a01b0385169063bc197c81906120f59089908990889088908890600401613337565b6020604051808303816000875af1925050508015612130575060408051601f3d908101601f1916820190925261212d91810190613395565b60015b6121e55761213c6133bf565b806308c379a00361217557506121506133db565b8061215b5750612177565b8060405162461bcd60e51b81526004016105229190613465565b505b60405162461bcd60e51b815260206004820152603460248201527f455243313135353a207472616e7366657220746f206e6f6e204552433131353560448201527f526563656976657220696d706c656d656e7465720000000000000000000000006064820152608401610522565b6001600160e01b0319811663bc197c8160e01b1461101a5760405162461bcd60e51b815260206004820152602860248201527f455243313135353a204552433131353552656365697665722072656a656374656044820152676420746f6b656e7360c01b6064820152608401610522565b6001600160a01b0385166122ba5760405162461bcd60e51b815260206004820152602560248201527f455243313135353a207472616e7366657220746f20746865207a65726f206164604482015264647265737360d81b6064820152608401610522565b61230e8787876122c988611ddc565b6122d288611ddc565b87878080601f016020809104026020016040519081016040528093929190818152602001838380828437600092019190915250611e2792505050565b60008481527ff9ecf3cb86ac553c70621e3e662b4036163ca34fffb329385fafa0e130cfc1a7602081815260408084206001600160a01b038b16855290915290912054848110156123c75760405162461bcd60e51b815260206004820152602b60248201527f455243313135353a20696e73756666696369656e742062616c616e636573206660448201527f6f72207472616e736665720000000000000000000000000000000000000000006064820152608401610522565b6000868152602083815260408083206001600160a01b038c8116855292528083209388900390935588168152908120805486929061240690849061320c565b909155505060408051868152602081018690526001600160a01b03808916928a821692918c16917fc3d58168c5ae7397731d063d5bbf3d657854427343f4c083240f7aacaa2d0f62910160405180910390a45050505050505050565b6001600160a01b0384163b156105395760405163f23a6e6160e01b81526001600160a01b0385169063f23a6e61906124a69089908990889088908890600401613478565b6020604051808303816000875af19250505080156124e1575060408051601f3d908101601f191682019092526124de91810190613395565b60015b6124ed5761213c6133bf565b6001600160e01b0319811663f23a6e6160e01b1461101a5760405162461bcd60e51b815260206004820152602860248201527f455243313135353a204552433131353552656365697665722072656a656374656044820152676420746f6b656e7360c01b6064820152608401610522565b6001600160a01b0385161561269a5760005b83518110156126985782818151811061258b5761258b613148565b60200260200101516125ba7f349768cb3869818ef8452552d8520ac7355b35c10a0ff9320e2975b28752782090565b6000016000886001600160a01b03166001600160a01b0316815260200190815260200160002060008684815181106125f4576125f4613148565b602002602001015181526020019081526020016000205461262e8887858151811061262157612621613148565b60200260200101516111fc565b61263891906132a5565b10156126865760405162461bcd60e51b815260206004820152600660248201527f4c4f434b454400000000000000000000000000000000000000000000000000006044820152606401610522565b8061269081613174565b915050612570565b505b6105398686868686866001600160a01b038516612814577f7056dcda885936c7a9d7c6385902b4ab5fb09024caea98652b7189a5f7a28ea57f7056dcda885936c7a9d7c6385902b4ab5fb09024caea98652b7189a5f7a28ea660005b85518110156128105784818151811061271157612711613148565b602002602001015183600088848151811061272e5761272e613148565b602002602001015181526020019081526020016000206000828254612753919061320c565b9250508190555081600087838151811061276f5761276f613148565b602002602001015181526020019081526020016000205483600088848151811061279b5761279b613148565b602002602001015181526020019081526020016000205411156128005760405162461bcd60e51b815260206004820152601160248201527f535550504c595f4558434545445f4d41580000000000000000000000000000006044820152606401610522565b61280981613174565b90506126f6565b5050505b6001600160a01b038416610539577f7056dcda885936c7a9d7c6385902b4ab5fb09024caea98652b7189a5f7a28ea560005b845181101561042e57600085828151811061286357612863613148565b60200260200101519050600085838151811061288157612881613148565b602002602001015190506000846000848152602001908152602001600020549050818110156129185760405162461bcd60e51b815260206004820152602860248201527f455243313135353a206275726e20616d6f756e74206578636565647320746f7460448201527f616c537570706c790000000000000000000000000000000000000000000000006064820152608401610522565b6000928352602085905260409092209103905561293481613174565b9050612846565b80356001600160a01b038116811461295257600080fd5b919050565b6000806040838503121561296a57600080fd5b6129738361293b565b946020939093013593505050565b60008083601f84011261299357600080fd5b50813567ffffffffffffffff8111156129ab57600080fd5b6020830191508360208260051b85010111156129c657600080fd5b9250929050565b6000806000806000806000806080898b0312156129e957600080fd5b883567ffffffffffffffff80821115612a0157600080fd5b612a0d8c838d01612981565b909a50985060208b0135915080821115612a2657600080fd5b612a328c838d01612981565b909850965060408b0135915080821115612a4b57600080fd5b612a578c838d01612981565b909650945060608b0135915080821115612a7057600080fd5b50612a7d8b828c01612981565b999c989b5096995094979396929594505050565b600080600080600060608688031215612aa957600080fd5b612ab28661293b565b9450602086013567ffffffffffffffff80821115612acf57600080fd5b612adb89838a01612981565b90965094506040880135915080821115612af457600080fd5b50612b0188828901612981565b969995985093965092949392505050565b634e487b7160e01b600052604160045260246000fd5b601f8201601f1916810167ffffffffffffffff81118282101715612b4e57612b4e612b12565b6040525050565b600067ffffffffffffffff821115612b6f57612b6f612b12565b5060051b60200190565b600082601f830112612b8a57600080fd5b81356020612b9782612b55565b604051612ba48282612b28565b83815260059390931b8501820192828101915086841115612bc457600080fd5b8286015b84811015612bdf5780358352918301918301612bc8565b509695505050505050565b600080600080600060a08688031215612c0257600080fd5b612c0b8661293b565b94506020612c1a81880161293b565b9450604087013567ffffffffffffffff80821115612c3757600080fd5b612c438a838b01612b79565b95506060890135915080821115612c5957600080fd5b612c658a838b01612b79565b94506080890135915080821115612c7b57600080fd5b818901915089601f830112612c8f57600080fd5b813581811115612ca157612ca1612b12565b6040519150612cb9601f8201601f1916850183612b28565b8082528a84828501011115612ccd57600080fd5b80848401858401376000848284010152508093505050509295509295909350565b600082601f830112612cff57600080fd5b81356020612d0c82612b55565b604051612d198282612b28565b83815260059390931b8501820192828101915086841115612d3957600080fd5b8286015b84811015612bdf57612d4e8161293b565b8352918301918301612d3d565b600080600060608486031215612d7057600080fd5b833567ffffffffffffffff80821115612d8857600080fd5b612d9487838801612cee565b94506020860135915080821115612daa57600080fd5b612db687838801612b79565b93506040860135915080821115612dcc57600080fd5b50612dd986828701612b79565b9150509250925092565b600080600060608486031215612df857600080fd5b612e018461293b565b95602085013595506040909401359392505050565b60008060408385031215612e2957600080fd5b823567ffffffffffffffff80821115612e4157600080fd5b612e4d86838701612cee565b93506020850135915080821115612e6357600080fd5b50612e7085828601612b79565b9150509250929050565b600081518084526020808501945080840160005b83811015612eaa57815187529582019590820190600101612e8e565b509495945050505050565b6020815260006103f76020830184612e7a565b600060208284031215612eda57600080fd5b5035919050565b60008060208385031215612ef457600080fd5b823567ffffffffffffffff811115612f0b57600080fd5b612f1785828601612981565b90969095509350505050565b6020808252825182820181905260009190848201906040850190845b81811015612f5d578351151583529284019291840191600101612f3f565b50909695505050505050565b8015158114612f7757600080fd5b50565b60008060408385031215612f8d57600080fd5b612f968361293b565b91506020830135612fa681612f69565b809150509250929050565b600080600060408486031215612fc657600080fd5b612fcf8461293b565b9250602084013567ffffffffffffffff811115612feb57600080fd5b612ff786828701612981565b9497909650939450505050565b60008083601f84011261301657600080fd5b50813567ffffffffffffffff81111561302e57600080fd5b6020830191508360208285010111156129c657600080fd5b60008060008060006080868803121561305e57600080fd5b6130678661293b565b94506020860135935060408601359250606086013567ffffffffffffffff81111561309157600080fd5b612b0188828901613004565b600080604083850312156130b057600080fd5b6130b98361293b565b91506130c76020840161293b565b90509250929050565b60008060008060008060a087890312156130e957600080fd5b6130f28761293b565b95506131006020880161293b565b94506040870135935060608701359250608087013567ffffffffffffffff81111561312a57600080fd5b61313689828a01613004565b979a9699509497509295939492505050565b634e487b7160e01b600052603260045260246000fd5b634e487b7160e01b600052601160045260246000fd5b6000600182016131865761318661315e565b5060010190565b60006020828403121561319f57600080fd5b81516103f781612f69565b6000602082840312156131bc57600080fd5b6103f78261293b565b6000808335601e198436030181126131dc57600080fd5b83018035915067ffffffffffffffff8211156131f757600080fd5b6020019150368190038213156129c657600080fd5b6000821982111561321f5761321f61315e565b500190565b81835260007f07ffffffffffffffffffffffffffffffffffffffffffffffffffffffffffffff83111561325657600080fd5b8260051b8083602087013760009401602001938452509192915050565b604081526000613287604083018688613224565b828103602084015261329a818587613224565b979650505050505050565b6000828210156132b7576132b761315e565b500390565b6040815260006132cf6040830185612e7a565b82810360208401526132e18185612e7a565b95945050505050565b6000815180845260005b81811015613310576020818501810151868301820152016132f4565b81811115613322576000602083870101525b50601f01601f19169290920160200192915050565b60006001600160a01b03808816835280871660208401525060a0604083015261336360a0830186612e7a565b82810360608401526133758186612e7a565b9050828103608084015261338981856132ea565b98975050505050505050565b6000602082840312156133a757600080fd5b81516001600160e01b0319811681146103f757600080fd5b600060033d11156133d85760046000803e5060005160e01c5b90565b600060443d10156133e95790565b6040516003193d81016004833e81513d67ffffffffffffffff816024840111818411171561341957505050505090565b82850191508151818111156134315750505050505090565b843d870101602082850101111561344b5750505050505090565b61345a60208286010187612b28565b509095945050505050565b6020815260006103f760208301846132ea565b60006001600160a01b03808816835280871660208401525084604083015283606083015260a0608083015261329a60a08301846132ea56fea2646970667358221220ce4f79f2b3dab13c9aa385f23aacd7ac40f182a8b4cb1982e7003aae8b62a87d64736f6c634300080f0033",
  "devdoc": {
    "custom:category": "NFTs",
    "custom:provides-interfaces": "IERC1155 IERC1155Burnable IERC1155Lockable IERC1155Mintable IERC1155Supply IERC1155SupplyExtra",
    "custom:type": "eip-2535-facet",
    "kind": "dev",
    "methods": {
      "balanceOf(address,uint256)": {
        "params": {
          "account": "address to query",
          "id": "token to query"
        },
        "returns": {
          "_0": "token balance"
        }
      },
      "balanceOfBatch(address[],uint256[])": {
        "params": {
          "accounts": "addresss to query",
          "ids": "tokens to query"
        },
        "returns": {
          "_0": "token balances"
        }
      },
      "exists(uint256)": {
        "details": "Indicates whether any token exist with a given id, or not."
      },
      "existsBatch(uint256[])": {
        "details": "Indicates whether tokens exist given a list of IDs."
      },
      "isApprovedForAll(address,address)": {
        "params": {
          "account": "address to query for approval granted",
          "operator": "address to query for approval received"
        },
        "returns": {
          "_0": "whether operator is approved to spend tokens held by account"
        }
      },
      "lockByFacet(address,uint256,uint256)": {
        "details": "Locks `amount` of tokens of `account`, of token type `id`. Requirements: - the caller must be diamond itself (other facets)."
      },
      "maxSupply(uint256)": {
        "details": "Maximum amount of tokens possible to exist for a given id."
      },
      "maxSupplyBatch(uint256[])": {
        "details": "Maximum amount of tokens possible to exist for a list of IDs."
      },
      "mintByFacet(address,uint256,uint256,bytes)": {
        "details": "Creates `amount` new tokens for `to`, of token type `id`. See {ERC1155-_mint}. Requirements: - the caller must be diamond itself (other facets)."
      },
      "safeBatchTransferFrom(address,address,uint256[],uint256[],bytes)": {
        "params": {
          "amounts": "list of quantities of tokens to transfer",
          "data": "data payload",
          "from": "sender of tokens",
          "ids": "list of token IDs",
          "to": "receiver of tokens"
        }
      },
      "safeTransferFrom(address,address,uint256,uint256,bytes)": {
        "params": {
          "amount": "quantity of tokens to transfer",
          "data": "data payload",
          "from": "sender of tokens",
          "id": "token ID",
          "to": "receiver of tokens"
        }
      },
      "setApprovalForAll(address,bool)": {
        "params": {
          "operator": "address whose approval status to update",
          "status": "whether operator should be considered approved"
        }
      },
      "totalSupply(uint256)": {
        "details": "Total amount of tokens in with a given id."
      },
      "totalSupplyBatch(uint256[])": {
        "details": "Total amount of tokens for a list of IDs."
      },
      "unlockByFacet(address,uint256,uint256)": {
        "details": "Un-locks `amount` of tokens of `account`, of token type `id`. Requirements: - the caller must be diamond itself (other facets)."
      }
    },
    "title": "ERC1155 - Standard",
    "version": 1
  },
  "userdoc": {
    "errors": {
      "ErrSenderIsNotSelf()": [
        {
          "notice": "The caller must be the current contract itself."
        }
      ]
    },
    "kind": "user",
    "methods": {
      "balanceOf(address,uint256)": {
        "notice": "query the balance of given token held by given address"
      },
      "balanceOfBatch(address[],uint256[])": {
        "notice": "query the balances of given tokens held by given addresses"
      },
      "isApprovedForAll(address,address)": {
        "notice": "query approval status of given operator with respect to given address"
      },
      "safeBatchTransferFrom(address,address,uint256[],uint256[],bytes)": {
        "notice": "transfer batch of tokens between given addresses, checking for ERC1155Receiver implementation if applicable"
      },
      "safeTransferFrom(address,address,uint256,uint256,bytes)": {
        "notice": "transfer tokens between given addresses, checking for ERC1155Receiver implementation if applicable"
      },
      "setApprovalForAll(address,bool)": {
        "notice": "grant approval to or revoke approval from given operator to spend held tokens"
      }
    },
    "notice": "Standard EIP-1155 NFTs with core capabilities of Mintable, Burnable and Lockable.",
    "version": 1
  },
  "storageLayout": {
    "storage": [],
    "types": null
  }
}