{
  "address": "0x599D1b5B9C74a3Eb8cAfb21AdEF63f97CE232871",
  "abi": [
    {
      "anonymous": false,
      "inputs": [
        {
          "indexed": true,
          "internalType": "address",
          "name": "previousOwner",
          "type": "address"
        },
        {
          "indexed": true,
          "internalType": "address",
          "name": "newOwner",
          "type": "address"
        }
      ],
      "name": "OwnershipTransferred",
      "type": "event"
    },
    {
      "inputs": [
        {
          "internalType": "uint256",
          "name": "newTimestamp",
          "type": "uint256"
        }
      ],
      "name": "setBurnablePausedUntil",
      "outputs": [],
      "stateMutability": "nonpayable",
      "type": "function"
    }
  ],
  "transactionHash": "0xf5d700236b3848e92c58fb18ccbea13116aa60ec5b8a46031c762f486873599f",
  "args": [],
  "numDeployments": 2,
  "solcInputHash": "9932f08b76ff3c8d25eae92113779e3f",
  "bytecode": "0x608060405234801561001057600080fd5b5061015c806100206000396000f3fe608060405234801561001057600080fd5b506004361061002b5760003560e01c8063710fb57714610030575b600080fd5b61004361003e36600461010d565b610045565b005b7fc0ea367cb0174dd5521cd2372c76f8c13e6c1f832c71f1d6e0cbc185c9cc8ed45473ffffffffffffffffffffffffffffffffffffffff1633146100e9576040517f08c379a000000000000000000000000000000000000000000000000000000000815260206004820152601d60248201527f4f776e61626c653a2073656e646572206d757374206265206f776e6572000000604482015260640160405180910390fd5b7f20cb9ad5a22f74f90c7fecbece6b6ab3beb2a63812efb8693c5ff39f2b73ee0f55565b60006020828403121561011f57600080fd5b503591905056fea26469706673582212206c99731766a7fd553b9cb87936ddc69a04183755a6d5583aefe99304397e2e3664736f6c634300080f0033",
  "devdoc": {
    "custom:category": "NFTs",
    "custom:peer-dependencies": "0xdc290004",
    "custom:provides-interfaces": "0x710fb577",
    "custom:type": "eip-2535-facet",
    "kind": "dev",
    "methods": {},
    "title": "ERC1155 - Burnable - Admin - Ownable",
    "version": 1
  },
  "userdoc": {
    "kind": "user",
    "methods": {},
    "notice": "Extension of ERC1155 to allow owner to manage burning mechanism.",
    "version": 1
  },
  "storageLayout": {
    "storage": [],
    "types": null
  }
}