{
  "address": "0xae7Bf9Cd0b3B5198c447c35A94eB284F11d777dB",
  "abi": [
    {
      "anonymous": false,
      "inputs": [
        {
          "indexed": true,
          "internalType": "address",
          "name": "previousOwner",
          "type": "address"
        },
        {
          "indexed": true,
          "internalType": "address",
          "name": "newOwner",
          "type": "address"
        }
      ],
      "name": "OwnershipTransferred",
      "type": "event"
    },
    {
      "inputs": [
        {
          "internalType": "uint256",
          "name": "tierId",
          "type": "uint256"
        },
        {
          "internalType": "address",
          "name": "minter",
          "type": "address"
        },
        {
          "internalType": "uint256",
          "name": "maxAllowance",
          "type": "uint256"
        }
      ],
      "name": "maxMintableForTier",
      "outputs": [
        {
          "internalType": "uint256",
          "name": "maxMintable",
          "type": "uint256"
        }
      ],
      "stateMutability": "view",
      "type": "function"
    },
    {
      "inputs": [
        {
          "internalType": "uint256",
          "name": "tierId",
          "type": "uint256"
        },
        {
          "internalType": "uint256",
          "name": "count",
          "type": "uint256"
        },
        {
          "internalType": "uint256",
          "name": "maxAllowance",
          "type": "uint256"
        },
        {
          "internalType": "bytes32[]",
          "name": "allowlistProof",
          "type": "bytes32[]"
        },
        {
          "internalType": "bytes",
          "name": "signature",
          "type": "bytes"
        }
      ],
      "name": "mintByTier",
      "outputs": [],
      "stateMutability": "payable",
      "type": "function"
    },
    {
      "inputs": [
        {
          "internalType": "uint256",
          "name": "tierId",
          "type": "uint256"
        },
        {
          "internalType": "address",
          "name": "minter",
          "type": "address"
        },
        {
          "internalType": "uint256",
          "name": "maxAllowance",
          "type": "uint256"
        },
        {
          "internalType": "bytes32[]",
          "name": "allowlistProof",
          "type": "bytes32[]"
        }
      ],
      "name": "onTierAllowlist",
      "outputs": [
        {
          "internalType": "bool",
          "name": "",
          "type": "bool"
        }
      ],
      "stateMutability": "view",
      "type": "function"
    },
    {
      "inputs": [
        {
          "internalType": "uint256",
          "name": "tierId",
          "type": "uint256"
        }
      ],
      "name": "remainingForTier",
      "outputs": [
        {
          "internalType": "uint256",
          "name": "",
          "type": "uint256"
        }
      ],
      "stateMutability": "view",
      "type": "function"
    },
    {
      "inputs": [],
      "name": "reservedMints",
      "outputs": [
        {
          "internalType": "uint256",
          "name": "",
          "type": "uint256"
        }
      ],
      "stateMutability": "view",
      "type": "function"
    },
    {
      "inputs": [
        {
          "internalType": "uint256",
          "name": "tierId",
          "type": "uint256"
        }
      ],
      "name": "tierMints",
      "outputs": [
        {
          "internalType": "uint256",
          "name": "",
          "type": "uint256"
        }
      ],
      "stateMutability": "view",
      "type": "function"
    },
    {
      "inputs": [
        {
          "internalType": "uint256",
          "name": "tierId",
          "type": "uint256"
        }
      ],
      "name": "tierToTokenId",
      "outputs": [
        {
          "internalType": "uint256",
          "name": "",
          "type": "uint256"
        }
      ],
      "stateMutability": "view",
      "type": "function"
    },
    {
      "inputs": [
        {
          "internalType": "uint256[]",
          "name": "tierIds",
          "type": "uint256[]"
        }
      ],
      "name": "tierToTokenId",
      "outputs": [
        {
          "internalType": "uint256[]",
          "name": "",
          "type": "uint256[]"
        }
      ],
      "stateMutability": "view",
      "type": "function"
    },
    {
      "inputs": [
        {
          "internalType": "uint256",
          "name": "tierId",
          "type": "uint256"
        }
      ],
      "name": "tiers",
      "outputs": [
        {
          "components": [
            {
              "internalType": "uint256",
              "name": "start",
              "type": "uint256"
            },
            {
              "internalType": "uint256",
              "name": "end",
              "type": "uint256"
            },
            {
              "internalType": "address",
              "name": "currency",
              "type": "address"
            },
            {
              "internalType": "uint256",
              "name": "price",
              "type": "uint256"
            },
            {
              "internalType": "uint256",
              "name": "maxPerWallet",
              "type": "uint256"
            },
            {
              "internalType": "bytes32",
              "name": "merkleRoot",
              "type": "bytes32"
            },
            {
              "internalType": "uint256",
              "name": "reserved",
              "type": "uint256"
            },
            {
              "internalType": "uint256",
              "name": "maxAllocation",
              "type": "uint256"
            },
            {
              "internalType": "address",
              "name": "signer",
              "type": "address"
            }
          ],
          "internalType": "struct ITieredSalesInternal.Tier",
          "name": "",
          "type": "tuple"
        }
      ],
      "stateMutability": "view",
      "type": "function"
    },
    {
      "inputs": [],
      "name": "totalReserved",
      "outputs": [
        {
          "internalType": "uint256",
          "name": "",
          "type": "uint256"
        }
      ],
      "stateMutability": "view",
      "type": "function"
    },
    {
      "inputs": [
        {
          "internalType": "uint256",
          "name": "tierId",
          "type": "uint256"
        },
        {
          "internalType": "address",
          "name": "minter",
          "type": "address"
        },
        {
          "internalType": "uint256",
          "name": "maxAllowance",
          "type": "uint256"
        },
        {
          "internalType": "bytes",
          "name": "signature",
          "type": "bytes"
        }
      ],
      "name": "verifySignature",
      "outputs": [
        {
          "internalType": "bool",
          "name": "",
          "type": "bool"
        }
      ],
      "stateMutability": "view",
      "type": "function"
    },
    {
      "inputs": [
        {
          "internalType": "uint256",
          "name": "tierId",
          "type": "uint256"
        },
        {
          "internalType": "address",
          "name": "wallet",
          "type": "address"
        }
      ],
      "name": "walletMintedByTier",
      "outputs": [
        {
          "internalType": "uint256",
          "name": "",
          "type": "uint256"
        }
      ],
      "stateMutability": "view",
      "type": "function"
    }
  ],
  "transactionHash": "0x001cb84b2d05e784c1c66d43eadf0cf96b31207a4ab4c15249ade11df0278ddf",
  "args": [],
  "numDeployments": 6,
  "solcInputHash": "c55c02555ed2787a9a3699470ac3d317",
  "bytecode": "0x608060405234801561001057600080fd5b50611d46806100206000396000f3fe6080604052600436106100c75760003560e01c80635897f87811610074578063a7268b851161004e578063a7268b8514610365578063ba09e6321461037a578063c71b0e1c1461039a57600080fd5b80635897f878146102f557806368c7d37c146103155780639e5177951461034557600080fd5b80632cb9b2ac116100a55780632cb9b2ac1461024857806351607bf41461027c57806353367f08146102a957600080fd5b8063039af9eb146100cc5780630b81f1801461017f5780631123f2ef146101d9575b600080fd5b3480156100d857600080fd5b506100ec6100e73660046118ce565b6103ce565b60405161017691906000610120820190508251825260208301516020830152604083015173ffffffffffffffffffffffffffffffffffffffff8082166040850152606085015160608501526080850151608085015260a085015160a085015260c085015160c085015260e085015160e0850152610100915080828601511682850152505092915050565b60405180910390f35b34801561018b57600080fd5b506101cb61019a3660046118ce565b60009081527f46f908971db3fbea57e8a21b2e54575e0e567ff2f950ead3c0dc83f15ec67154602052604090205490565b604051908152602001610176565b3480156101e557600080fd5b506101cb6101f4366004611910565b60009182527fb7471df0c7246ed3d4a380504edfbb03f5845b709c7716243791636e4ba46cc06020908152604080842073ffffffffffffffffffffffffffffffffffffffff93909316845291905290205490565b34801561025457600080fd5b507fb7471df0c7246ed3d4a380504edfbb03f5845b709c7716243791636e4ba46cbd546101cb565b34801561028857600080fd5b5061029c610297366004611981565b6104fd565b60405161017691906119c3565b3480156102b557600080fd5b506101cb6102c43660046118ce565b60009081527fb7471df0c7246ed3d4a380504edfbb03f5845b709c7716243791636e4ba46cbf602052604090205490565b34801561030157600080fd5b506101cb6103103660046118ce565b6105d3565b34801561032157600080fd5b50610335610330366004611a07565b61064a565b6040519015158152602001610176565b34801561035157600080fd5b50610335610360366004611ab1565b610663565b610378610373366004611b08565b6106b8565b005b34801561038657600080fd5b506101cb610395366004611b95565b610849565b3480156103a657600080fd5b507fb7471df0c7246ed3d4a380504edfbb03f5845b709c7716243791636e4ba46cbc546101cb565b61044c6040518061012001604052806000815260200160008152602001600073ffffffffffffffffffffffffffffffffffffffff1681526020016000815260200160008152602001600080191681526020016000815260200160008152602001600073ffffffffffffffffffffffffffffffffffffffff1681525090565b5060009081527fb7471df0c7246ed3d4a380504edfbb03f5845b709c7716243791636e4ba46cbe602090815260409182902082516101208101845281548152600182015492810192909252600281015473ffffffffffffffffffffffffffffffffffffffff908116938301939093526003810154606083015260048101546080830152600581015460a0830152600681015460c0830152600781015460e08301526008015490911661010082015290565b606060008267ffffffffffffffff81111561051a5761051a611bca565b604051908082528060200260200182016040528015610543578160200160208202803683370190505b50905060005b838110156105cb577f46f908971db3fbea57e8a21b2e54575e0e567ff2f950ead3c0dc83f15ec67154600086868481811061058657610586611bf9565b905060200201358152602001908152602001600020548282815181106105ae576105ae611bf9565b6020908102919091010152806105c381611c57565b915050610549565b509392505050565b60007fb7471df0c7246ed3d4a380504edfbb03f5845b709c7716243791636e4ba46cbb816106008461087a565b60008581526004840160209081526040808320546003870190925282206007015492935090916106309190611c71565b90508082101561064257509392505050565b949350505050565b6000610659868686868661095b565b9695505050505050565b60008581527fb7471df0c7246ed3d4a380504edfbb03f5845b709c7716243791636e4ba46cbe60205260408120600801546106599073ffffffffffffffffffffffffffffffffffffffff1687878787876109c2565b60027f3d9e0cf98d8ac76a756d900415e06fbccac0f9e61251a384452695e2330be6e0540361072e5760405162461bcd60e51b815260206004820152601f60248201527f5265656e7472616e637947756172643a207265656e7472616e742063616c6c0060448201526064015b60405180910390fd5b60027f3d9e0cf98d8ac76a756d900415e06fbccac0f9e61251a384452695e2330be6e05561076187878787878787610a3b565b60008781527f46f908971db3fbea57e8a21b2e54575e0e567ff2f950ead3c0dc83f15ec6715460205260408082205481517fb164884b00000000000000000000000000000000000000000000000000000000815233600482015260248101919091526044810189905260806064820152608481018390529051309263b164884b9260a4808201939182900301818387803b1580156107fe57600080fd5b505af1158015610812573d6000803e3d6000fd5b50505050600161083f7f3d9e0cf98d8ac76a756d900415e06fbccac0f9e61251a384452695e2330be6e090565b5550505050505050565b6000610642848484610ee6565b7fb7471df0c7246ed3d4a380504edfbb03f5845b709c7716243791636e4ba46cbb90565b7fb7471df0c7246ed3d4a380504edfbb03f5845b709c7716243791636e4ba46cbd547fb7471df0c7246ed3d4a380504edfbb03f5845b709c7716243791636e4ba46cbc546000917fb7471df0c7246ed3d4a380504edfbb03f5845b709c7716243791636e4ba46cbb916108ed9190611c71565b6108f68461116b565b6109009190611c71565b60008481526003830160205260409020600601549092501561095557600083815260048201602090815260408083205460038501909252909120600601546109489190611c71565b6109529083611c88565b91505b50919050565b600061065983838080602002602001604051908101604052809392919081815260200183836020028082843760009201919091525061099d9250610856915050565b600089815260039190910160205260409020600501546109bd8888611276565b6112d1565b600080610a1284848080601f016020809104026020016040519081016040528093929190818152602001838380828437600092019190915250610a0c92508b91508a9050896112e7565b90611374565b73ffffffffffffffffffffffffffffffffffffffff908116908916149150509695505050505050565b7fb7471df0c7246ed3d4a380504edfbb03f5845b709c7716243791636e4ba46cbb336000610a6a8a838a610ee6565b905080891115610abc5760405162461bcd60e51b815260206004820152600b60248201527f455843454544535f4d41580000000000000000000000000000000000000000006044820152606401610725565b610ac58a61087a565b891115610b145760405162461bcd60e51b815260206004820152600e60248201527f455843454544535f535550504c590000000000000000000000000000000000006044820152606401610725565b60008a81526003840160209081526040808320600701546004870190925290912054610b40908b611c88565b1115610b8e5760405162461bcd60e51b815260206004820152601260248201527f455843454544535f414c4c4f434154494f4e00000000000000000000000000006044820152606401610725565b60008a815260038401602052604090206005015415610c0057610bb48a838a8a8a61095b565b610c005760405162461bcd60e51b815260206004820152600f60248201527f4e4f545f414c4c4f574c495354454400000000000000000000000000000000006044820152606401610725565b60008a815260038401602052604090206008015473ffffffffffffffffffffffffffffffffffffffff1615610cb35760008a8152600384016020526040902060080154610c679073ffffffffffffffffffffffffffffffffffffffff168b848b89896109c2565b610cb35760405162461bcd60e51b815260206004820152601160248201527f494e56414c49445f5349474e41545552450000000000000000000000000000006044820152606401610725565b50600089815260038301602052604090206002015473ffffffffffffffffffffffffffffffffffffffff16610d565760008981526003808401602052604090912001543490610d03908a90611ca0565b1115610d515760405162461bcd60e51b815260206004820152601360248201527f494e53554646494349454e545f414d4f554e54000000000000000000000000006044820152606401610725565b610e3d565b600089815260038084016020526040909120600281015491015473ffffffffffffffffffffffffffffffffffffffff909116906323b872dd9083903090610d9e908d90611ca0565b6040517fffffffff0000000000000000000000000000000000000000000000000000000060e086901b16815273ffffffffffffffffffffffffffffffffffffffff938416600482015292909116602483015260448201526064016020604051808303816000875af1158015610e17573d6000803e3d6000fd5b505050506040513d601f19601f82011682018060405250810190610e3b9190611cbf565b505b6000898152600583016020908152604080832073ffffffffffffffffffffffffffffffffffffffff85168452909152812080548a9290610e7e908490611c88565b90915550506000898152600483016020526040812080548a9290610ea3908490611c88565b9091555050600089815260038301602052604090206006015415610edb5787826002016000828254610ed59190611c88565b90915550505b505050505050505050565b60008381527fb7471df0c7246ed3d4a380504edfbb03f5845b709c7716243791636e4ba46cbe60205260408120600401547fb7471df0c7246ed3d4a380504edfbb03f5845b709c7716243791636e4ba46cbb90610f855760405162461bcd60e51b815260206004820152600a60248201527f4e4f545f455849535453000000000000000000000000000000000000000000006044820152606401610725565b6000858152600382016020526040902054421015610fe55760405162461bcd60e51b815260206004820152600b60248201527f4e4f545f535441525445440000000000000000000000000000000000000000006044820152606401610725565b60008581526003820160205260409020600101544211156110485760405162461bcd60e51b815260206004820152600d60248201527f414c52454144595f454e444544000000000000000000000000000000000000006044820152606401610725565b6000858152600582016020908152604080832073ffffffffffffffffffffffffffffffffffffffff8816845282528083205488845260038501909252909120600401546110959190611c71565b6000868152600583016020908152604080832073ffffffffffffffffffffffffffffffffffffffff8916845290915290205490925083116111185760405162461bcd60e51b815260206004820152600f60248201527f4d415845445f414c4c4f57414e434500000000000000000000000000000000006044820152606401610725565b6000858152600582016020908152604080832073ffffffffffffffffffffffffffffffffffffffff881684529091528120546111549085611c71565b905080831115611162578092505b50509392505050565b7f744f4bd40000000000000000000000000000000000000000000000000000000060009081527fff923f4a67695a9cdd5da4b8580a5a20edf2183c42aa111dd7fc15dc7bed26406020527f35d3cc196fdbb37c639d9ccf02c0ac54b3a84c388495dbf9ab724144133fc6255460ff166111e75750600019919050565b60008281527f46f908971db3fbea57e8a21b2e54575e0e567ff2f950ead3c0dc83f15ec6715460209081526040808320548084527f7056dcda885936c7a9d7c6385902b4ab5fb09024caea98652b7189a5f7a28ea58352818420547f7056dcda885936c7a9d7c6385902b4ab5fb09024caea98652b7189a5f7a28ea69093529083205490929161064291611c71565b6040517fffffffffffffffffffffffffffffffffffffffff000000000000000000000000606084901b166020820152603481018290526000906054015b60405160208183030381529060405280519060200120905092915050565b6000826112de8584611390565b14949350505050565b604080517f9f23751fb533d9025a36e9b630533d87af20421d8c8b005f4bda04e23ce057e3602082015290810184905273ffffffffffffffffffffffffffffffffffffffff8316606082015260808101829052600090819060a00160405160208183030381529060405280519060200120905061136b6113656113d5565b8261150e565b95945050505050565b60008060006113838585611550565b915091506105cb81611595565b600081815b84518110156105cb576113c1828683815181106113b4576113b4611bf9565b6020026020010151611784565b9150806113cd81611c57565b915050611395565b4660009081527fb7471df0c7246ed3d4a380504edfbb03f5845b709c7716243791636e4ba46cbb60205260408120549081900361150b5750604080518082018252600b81527f54696572656453616c657300000000000000000000000000000000000000000060209182015281518083018352600381527f322e7800000000000000000000000000000000000000000000000000000000009082015281517f8b73c3c69bb8fe3d512ecc4cf759cc79239f7b179b0ffacaa9a75d522b39400f818301527f0a8f5cd262c609ce448522f0993fd8cd7e4c5487b979cac486662358ea244890818401527ff5f84182131be97a41a3d4efb82d0a0d5698d76e6ec4dc9589738f1341d900c960608201524660808201523060a0808301919091528351808303909101815260c090910190925281519101205b90565b6040517f1901000000000000000000000000000000000000000000000000000000000000602082015260228101839052604281018290526000906062016112b3565b60008082516041036115865760208301516040840151606085015160001a61157a878285856117b6565b9450945050505061158e565b506000905060025b9250929050565b60008160048111156115a9576115a9611ce1565b036115b15750565b60018160048111156115c5576115c5611ce1565b036116125760405162461bcd60e51b815260206004820152601860248201527f45434453413a20696e76616c6964207369676e617475726500000000000000006044820152606401610725565b600281600481111561162657611626611ce1565b036116735760405162461bcd60e51b815260206004820152601f60248201527f45434453413a20696e76616c6964207369676e6174757265206c656e677468006044820152606401610725565b600381600481111561168757611687611ce1565b036116fa5760405162461bcd60e51b815260206004820152602260248201527f45434453413a20696e76616c6964207369676e6174757265202773272076616c60448201527f75650000000000000000000000000000000000000000000000000000000000006064820152608401610725565b600481600481111561170e5761170e611ce1565b036117815760405162461bcd60e51b815260206004820152602260248201527f45434453413a20696e76616c6964207369676e6174757265202776272076616c60448201527f75650000000000000000000000000000000000000000000000000000000000006064820152608401610725565b50565b60008183106117a05760008281526020849052604090206117af565b60008381526020839052604090205b9392505050565b6000807f7fffffffffffffffffffffffffffffff5d576e7357a4501ddfe92f46681b20a08311156117ed57506000905060036118c5565b8460ff16601b1415801561180557508460ff16601c14155b1561181657506000905060046118c5565b6040805160008082526020820180845289905260ff881692820192909252606081018690526080810185905260019060a0016020604051602081039080840390855afa15801561186a573d6000803e3d6000fd5b50506040517fffffffffffffffffffffffffffffffffffffffffffffffffffffffffffffffe0015191505073ffffffffffffffffffffffffffffffffffffffff81166118be576000600192509250506118c5565b9150600090505b94509492505050565b6000602082840312156118e057600080fd5b5035919050565b803573ffffffffffffffffffffffffffffffffffffffff8116811461190b57600080fd5b919050565b6000806040838503121561192357600080fd5b82359150611933602084016118e7565b90509250929050565b60008083601f84011261194e57600080fd5b50813567ffffffffffffffff81111561196657600080fd5b6020830191508360208260051b850101111561158e57600080fd5b6000806020838503121561199457600080fd5b823567ffffffffffffffff8111156119ab57600080fd5b6119b78582860161193c565b90969095509350505050565b6020808252825182820181905260009190848201906040850190845b818110156119fb578351835292840192918401916001016119df565b50909695505050505050565b600080600080600060808688031215611a1f57600080fd5b85359450611a2f602087016118e7565b935060408601359250606086013567ffffffffffffffff811115611a5257600080fd5b611a5e8882890161193c565b969995985093965092949392505050565b60008083601f840112611a8157600080fd5b50813567ffffffffffffffff811115611a9957600080fd5b60208301915083602082850101111561158e57600080fd5b600080600080600060808688031215611ac957600080fd5b85359450611ad9602087016118e7565b935060408601359250606086013567ffffffffffffffff811115611afc57600080fd5b611a5e88828901611a6f565b600080600080600080600060a0888a031215611b2357600080fd5b873596506020880135955060408801359450606088013567ffffffffffffffff80821115611b5057600080fd5b611b5c8b838c0161193c565b909650945060808a0135915080821115611b7557600080fd5b50611b828a828b01611a6f565b989b979a50959850939692959293505050565b600080600060608486031215611baa57600080fd5b83359250611bba602085016118e7565b9150604084013590509250925092565b7f4e487b7100000000000000000000000000000000000000000000000000000000600052604160045260246000fd5b7f4e487b7100000000000000000000000000000000000000000000000000000000600052603260045260246000fd5b7f4e487b7100000000000000000000000000000000000000000000000000000000600052601160045260246000fd5b60006000198203611c6a57611c6a611c28565b5060010190565b600082821015611c8357611c83611c28565b500390565b60008219821115611c9b57611c9b611c28565b500190565b6000816000190483118215151615611cba57611cba611c28565b500290565b600060208284031215611cd157600080fd5b815180151581146117af57600080fd5b7f4e487b7100000000000000000000000000000000000000000000000000000000600052602160045260246000fdfea2646970667358221220eabbc722eccbc34db4d801fa5fad26baebfac9fa5b22bff2a28fb91d93c86cd964736f6c634300080f0033",
  "devdoc": {
    "custom:category": "NFTs",
    "custom:provides-interfaces": "ITieredSales IERC1155TieredSales",
    "custom:required-dependencies": "IERC1155MintableExtension",
    "custom:type": "eip-2535-facet",
    "kind": "dev",
    "methods": {},
    "title": "ERC1155 - Tiered Sales",
    "version": 1
  },
  "userdoc": {
    "kind": "user",
    "methods": {},
    "notice": "Sales mechanism for ERC1155 NFTs with multiple tiered pricing, allowlist and allocation plans.",
    "version": 1
  },
  "storageLayout": {
    "storage": [],
    "types": null
  }
}