{
  "address": "0x0918555b34dBa7C9f4984234597DCD7a3A26Af0a",
  "abi": [
    {
      "inputs": [],
      "name": "SenderIsNotSelf",
      "type": "error"
    },
    {
      "anonymous": false,
      "inputs": [
        {
          "indexed": true,
          "internalType": "address",
          "name": "account",
          "type": "address"
        },
        {
          "indexed": true,
          "internalType": "address",
          "name": "operator",
          "type": "address"
        },
        {
          "indexed": false,
          "internalType": "bool",
          "name": "approved",
          "type": "bool"
        }
      ],
      "name": "ApprovalForAll",
      "type": "event"
    },
    {
      "anonymous": false,
      "inputs": [
        {
          "indexed": true,
          "internalType": "address",
          "name": "operator",
          "type": "address"
        },
        {
          "indexed": true,
          "internalType": "address",
          "name": "from",
          "type": "address"
        },
        {
          "indexed": true,
          "internalType": "address",
          "name": "to",
          "type": "address"
        },
        {
          "indexed": false,
          "internalType": "uint256[]",
          "name": "ids",
          "type": "uint256[]"
        },
        {
          "indexed": false,
          "internalType": "uint256[]",
          "name": "values",
          "type": "uint256[]"
        }
      ],
      "name": "TransferBatch",
      "type": "event"
    },
    {
      "anonymous": false,
      "inputs": [
        {
          "indexed": true,
          "internalType": "address",
          "name": "operator",
          "type": "address"
        },
        {
          "indexed": true,
          "internalType": "address",
          "name": "from",
          "type": "address"
        },
        {
          "indexed": true,
          "internalType": "address",
          "name": "to",
          "type": "address"
        },
        {
          "indexed": false,
          "internalType": "uint256",
          "name": "id",
          "type": "uint256"
        },
        {
          "indexed": false,
          "internalType": "uint256",
          "name": "value",
          "type": "uint256"
        }
      ],
      "name": "TransferSingle",
      "type": "event"
    },
    {
      "inputs": [
        {
          "internalType": "address",
          "name": "account",
          "type": "address"
        },
        {
          "internalType": "uint256",
          "name": "id",
          "type": "uint256"
        }
      ],
      "name": "balanceOf",
      "outputs": [
        {
          "internalType": "uint256",
          "name": "",
          "type": "uint256"
        }
      ],
      "stateMutability": "view",
      "type": "function"
    },
    {
      "inputs": [
        {
          "internalType": "address[]",
          "name": "accounts",
          "type": "address[]"
        },
        {
          "internalType": "uint256[]",
          "name": "ids",
          "type": "uint256[]"
        }
      ],
      "name": "balanceOfBatch",
      "outputs": [
        {
          "internalType": "uint256[]",
          "name": "",
          "type": "uint256[]"
        }
      ],
      "stateMutability": "view",
      "type": "function"
    },
    {
      "inputs": [
        {
          "internalType": "address",
          "name": "account",
          "type": "address"
        },
        {
          "internalType": "uint256",
          "name": "id",
          "type": "uint256"
        },
        {
          "internalType": "uint256",
          "name": "value",
          "type": "uint256"
        }
      ],
      "name": "burn",
      "outputs": [],
      "stateMutability": "nonpayable",
      "type": "function"
    },
    {
      "inputs": [
        {
          "internalType": "address",
          "name": "account",
          "type": "address"
        },
        {
          "internalType": "uint256[]",
          "name": "ids",
          "type": "uint256[]"
        },
        {
          "internalType": "uint256[]",
          "name": "values",
          "type": "uint256[]"
        }
      ],
      "name": "burnBatch",
      "outputs": [],
      "stateMutability": "nonpayable",
      "type": "function"
    },
    {
      "inputs": [
        {
          "internalType": "address",
          "name": "account",
          "type": "address"
        },
        {
          "internalType": "uint256[]",
          "name": "ids",
          "type": "uint256[]"
        },
        {
          "internalType": "uint256[]",
          "name": "values",
          "type": "uint256[]"
        }
      ],
      "name": "burnBatchByFacet",
      "outputs": [],
      "stateMutability": "nonpayable",
      "type": "function"
    },
    {
      "inputs": [
        {
          "internalType": "address",
          "name": "account",
          "type": "address"
        },
        {
          "internalType": "uint256",
          "name": "id",
          "type": "uint256"
        },
        {
          "internalType": "uint256",
          "name": "amount",
          "type": "uint256"
        }
      ],
      "name": "burnByFacet",
      "outputs": [],
      "stateMutability": "nonpayable",
      "type": "function"
    },
    {
      "inputs": [],
      "name": "burnablePausedUntil",
      "outputs": [
        {
          "internalType": "uint256",
          "name": "",
          "type": "uint256"
        }
      ],
      "stateMutability": "view",
      "type": "function"
    },
    {
      "inputs": [
        {
          "internalType": "uint256",
          "name": "id",
          "type": "uint256"
        }
      ],
      "name": "exists",
      "outputs": [
        {
          "internalType": "bool",
          "name": "",
          "type": "bool"
        }
      ],
      "stateMutability": "view",
      "type": "function"
    },
    {
      "inputs": [
        {
          "internalType": "address",
          "name": "account",
          "type": "address"
        },
        {
          "internalType": "address",
          "name": "operator",
          "type": "address"
        }
      ],
      "name": "isApprovedForAll",
      "outputs": [
        {
          "internalType": "bool",
          "name": "",
          "type": "bool"
        }
      ],
      "stateMutability": "view",
      "type": "function"
    },
    {
      "inputs": [
        {
          "internalType": "address",
          "name": "account",
          "type": "address"
        },
        {
          "internalType": "uint256",
          "name": "id",
          "type": "uint256"
        },
        {
          "internalType": "uint256",
          "name": "amount",
          "type": "uint256"
        }
      ],
      "name": "lockByFacet",
      "outputs": [],
      "stateMutability": "nonpayable",
      "type": "function"
    },
    {
      "inputs": [
        {
          "internalType": "address",
          "name": "account",
          "type": "address"
        },
        {
          "internalType": "uint256[]",
          "name": "ticketTokenIds",
          "type": "uint256[]"
        }
      ],
      "name": "locked",
      "outputs": [
        {
          "internalType": "uint256[]",
          "name": "",
          "type": "uint256[]"
        }
      ],
      "stateMutability": "view",
      "type": "function"
    },
    {
      "inputs": [
        {
          "internalType": "address",
          "name": "account",
          "type": "address"
        },
        {
          "internalType": "uint256",
          "name": "tokenId",
          "type": "uint256"
        }
      ],
      "name": "locked",
      "outputs": [
        {
          "internalType": "uint256",
          "name": "",
          "type": "uint256"
        }
      ],
      "stateMutability": "view",
      "type": "function"
    },
    {
      "inputs": [
        {
          "internalType": "uint256",
          "name": "id",
          "type": "uint256"
        }
      ],
      "name": "maxSupply",
      "outputs": [
        {
          "internalType": "uint256",
          "name": "",
          "type": "uint256"
        }
      ],
      "stateMutability": "view",
      "type": "function"
    },
    {
      "inputs": [
        {
          "internalType": "address",
          "name": "to",
          "type": "address"
        },
        {
          "internalType": "uint256",
          "name": "id",
          "type": "uint256"
        },
        {
          "internalType": "uint256",
          "name": "amount",
          "type": "uint256"
        },
        {
          "internalType": "bytes",
          "name": "data",
          "type": "bytes"
        }
      ],
      "name": "mintByFacet",
      "outputs": [],
      "stateMutability": "nonpayable",
      "type": "function"
    },
    {
      "inputs": [
        {
          "internalType": "address",
          "name": "from",
          "type": "address"
        },
        {
          "internalType": "address",
          "name": "to",
          "type": "address"
        },
        {
          "internalType": "uint256[]",
          "name": "ids",
          "type": "uint256[]"
        },
        {
          "internalType": "uint256[]",
          "name": "amounts",
          "type": "uint256[]"
        },
        {
          "internalType": "bytes",
          "name": "data",
          "type": "bytes"
        }
      ],
      "name": "safeBatchTransferFrom",
      "outputs": [],
      "stateMutability": "nonpayable",
      "type": "function"
    },
    {
      "inputs": [
        {
          "internalType": "address",
          "name": "from",
          "type": "address"
        },
        {
          "internalType": "address",
          "name": "to",
          "type": "address"
        },
        {
          "internalType": "uint256",
          "name": "id",
          "type": "uint256"
        },
        {
          "internalType": "uint256",
          "name": "amount",
          "type": "uint256"
        },
        {
          "internalType": "bytes",
          "name": "data",
          "type": "bytes"
        }
      ],
      "name": "safeTransferFrom",
      "outputs": [],
      "stateMutability": "nonpayable",
      "type": "function"
    },
    {
      "inputs": [
        {
          "internalType": "address",
          "name": "operator",
          "type": "address"
        },
        {
          "internalType": "bool",
          "name": "status",
          "type": "bool"
        }
      ],
      "name": "setApprovalForAll",
      "outputs": [],
      "stateMutability": "nonpayable",
      "type": "function"
    },
    {
      "inputs": [
        {
          "internalType": "uint256",
          "name": "id",
          "type": "uint256"
        }
      ],
      "name": "totalSupply",
      "outputs": [
        {
          "internalType": "uint256",
          "name": "",
          "type": "uint256"
        }
      ],
      "stateMutability": "view",
      "type": "function"
    },
    {
      "inputs": [
        {
          "internalType": "address",
          "name": "account",
          "type": "address"
        },
        {
          "internalType": "uint256",
          "name": "id",
          "type": "uint256"
        },
        {
          "internalType": "uint256",
          "name": "amount",
          "type": "uint256"
        }
      ],
      "name": "unlockByFacet",
      "outputs": [],
      "stateMutability": "nonpayable",
      "type": "function"
    }
  ],
  "transactionHash": "0xaf8798f2bb51adf751a6fb94c78eb30ad6e593765224f95c089db89e91fcaa1d",
  "args": [],
  "numDeployments": 1,
  "solcInputHash": "203d1016fd15d99d2bcb54f167e7a882",
  "bytecode": "0x608060405234801561001057600080fd5b5061284a806100206000396000f3fe608060405234801561001057600080fd5b50600436106101505760003560e01c8063869f7594116100cd578063bd85b03911610081578063e985e9c511610066578063e985e9c5146102cb578063f242432a14610326578063f5298aca1461033957600080fd5b8063bd85b039146102a5578063bf7bab73146102b857600080fd5b8063a22cb465116100b2578063a22cb4651461026c578063a91a988a1461027f578063b164884b1461029257600080fd5b8063869f759414610246578063983da1561461025957600080fd5b806348f2f536116101245780634f558e79116101095780634f558e79146101fd5780636708a990146102205780636b20c4541461023357600080fd5b806348f2f536146101ca5780634e1273f4146101dd57600080fd5b8062fdd58e146101555780630ad2bbac1461017b57806314e35aa4146101905780632eb2c2d6146101b7575b600080fd5b610168610163366004611fc4565b61034c565b6040519081526020015b60405180910390f35b61018e6101893660046120c6565b61035f565b005b7f20cb9ad5a22f74f90c7fecbece6b6ab3beb2a63812efb8693c5ff39f2b73ee0f54610168565b61018e6101c53660046121ae565b61038f565b61018e6101d8366004612258565b610464565b6101f06101eb36600461228b565b61048f565b6040516101729190612391565b61021061020b3660046123a4565b6106b6565b6040519015158152602001610172565b61018e61022e366004612258565b6106ed565b61018e6102413660046120c6565b610718565b6101686102543660046123a4565b6107ff565b61018e610267366004612258565b610832565b61018e61027a3660046123ce565b61085d565b6101f061028d366004612405565b610969565b61018e6102a036600461248b565b610a50565b6101686102b33660046123a4565b610a82565b6101686102c6366004611fc4565b610ab5565b6102106102d93660046124ec565b6001600160a01b0391821660009081527ff9ecf3cb86ac553c70621e3e662b4036163ca34fffb329385fafa0e130cfc1a86020908152604080832093909416825291909152205460ff1690565b61018e61033436600461251f565b610afd565b61018e610347366004612258565b610bc5565b60006103588383610cac565b9392505050565b30331461037f576040516328be0e2160e21b815260040160405180910390fd5b61038a838383610d71565b505050565b336001600160a01b0386168114806103eb57506001600160a01b0380871660009081527ff9ecf3cb86ac553c70621e3e662b4036163ca34fffb329385fafa0e130cfc1a8602090815260408083209385168352929052205460ff165b61044e5760405162461bcd60e51b815260206004820152602960248201527f455243313135353a2063616c6c6572206973206e6f74206f776e6572206e6f7260448201526808185c1c1c9bdd995960ba1b60648201526084015b60405180910390fd5b61045c818787878787610fe8565b505050505050565b303314610484576040516328be0e2160e21b815260040160405180910390fd5b61038a838383611004565b606081518351146105085760405162461bcd60e51b815260206004820152602960248201527f455243313135353a206163636f756e747320616e6420696473206c656e67746860448201527f206d69736d6174636800000000000000000000000000000000000000000000006064820152608401610445565b82517ff9ecf3cb86ac553c70621e3e662b4036163ca34fffb329385fafa0e130cfc1a79060009067ffffffffffffffff81111561054757610547611fee565b604051908082528060200260200182016040528015610570578160200160208202803683370190505b50905060005b85518110156106ad5760006001600160a01b031686828151811061059c5761059c612584565b60200260200101516001600160a01b0316036106205760405162461bcd60e51b815260206004820152603160248201527f455243313135353a2062617463682062616c616e636520717565727920666f7260448201527f20746865207a65726f20616464726573730000000000000000000000000000006064820152608401610445565b82600086838151811061063557610635612584565b60200260200101518152602001908152602001600020600087838151811061065f5761065f612584565b60200260200101516001600160a01b03166001600160a01b031681526020019081526020016000205482828151811061069a5761069a612584565b6020908102919091010152600101610576565b50949350505050565b60008181527f7056dcda885936c7a9d7c6385902b4ab5fb09024caea98652b7189a5f7a28ea5602052604081205415155b92915050565b30331461070d576040516328be0e2160e21b815260040160405180910390fd5b61038a83838361118d565b6001600160a01b0383163314806107a157503063e985e9c584336040516001600160e01b031960e085901b1681526001600160a01b03928316600482015291166024820152604401602060405180830381865afa15801561077d573d6000803e3d6000fd5b505050506040513d601f19601f820116820180604052508101906107a1919061259a565b61037f5760405162461bcd60e51b815260206004820152602960248201527f455243313135353a2063616c6c6572206973206e6f74206f776e6572206e6f7260448201526808185c1c1c9bdd995960ba1b6064820152608401610445565b60008181527f7056dcda885936c7a9d7c6385902b4ab5fb09024caea98652b7189a5f7a28ea660205260408120546106e7565b303314610852576040516328be0e2160e21b815260040160405180910390fd5b61038a83838361124a565b336001600160a01b03831681036108dc5760405162461bcd60e51b815260206004820152602960248201527f455243313135353a2073657474696e6720617070726f76616c2073746174757360448201527f20666f722073656c6600000000000000000000000000000000000000000000006064820152608401610445565b6001600160a01b0381811660008181527ff9ecf3cb86ac553c70621e3e662b4036163ca34fffb329385fafa0e130cfc1a86020908152604080832094881680845294825291829020805460ff1916871515908117909155825190815291517f17307eab39ab6107e8899845ad3d59bd9653f200f220920489ca2b5937696c319281900390910190a3505050565b606060008267ffffffffffffffff81111561098657610986611fee565b6040519080825280602002602001820160405280156109af578160200160208202803683370190505b50905060005b838110156106ad57610a21868686848181106109d3576109d3612584565b905060200201356001600160a01b039190911660009081527f349768cb3869818ef8452552d8520ac7355b35c10a0ff9320e2975b28752782060209081526040808320938352929052205490565b828281518110610a3357610a33612584565b602090810291909101015280610a48816125cd565b9150506109b5565b303314610a70576040516328be0e2160e21b815260040160405180910390fd5b610a7c84848484611311565b50505050565b60008181527f7056dcda885936c7a9d7c6385902b4ab5fb09024caea98652b7189a5f7a28ea560205260408120546106e7565b6001600160a01b03821660009081527f349768cb3869818ef8452552d8520ac7355b35c10a0ff9320e2975b28752782060209081526040808320848452909152812054610358565b336001600160a01b038616811480610b5957506001600160a01b0380871660009081527ff9ecf3cb86ac553c70621e3e662b4036163ca34fffb329385fafa0e130cfc1a8602090815260408083209385168352929052205460ff165b610bb75760405162461bcd60e51b815260206004820152602960248201527f455243313135353a2063616c6c6572206973206e6f74206f776e6572206e6f7260448201526808185c1c1c9bdd995960ba1b6064820152608401610445565b61045c81878787878761144c565b6001600160a01b038316331480610c4e57503063e985e9c584336040516001600160e01b031960e085901b1681526001600160a01b03928316600482015291166024820152604401602060405180830381865afa158015610c2a573d6000803e3d6000fd5b505050506040513d601f19601f82011682018060405250810190610c4e919061259a565b6104845760405162461bcd60e51b815260206004820152602960248201527f455243313135353a2063616c6c6572206973206e6f74206f776e6572206e6f7260448201526808185c1c1c9bdd995960ba1b6064820152608401610445565b60006001600160a01b038316610d2a5760405162461bcd60e51b815260206004820152602b60248201527f455243313135353a2062616c616e636520717565727920666f7220746865207a60448201527f65726f20616464726573730000000000000000000000000000000000000000006064820152608401610445565b7ff9ecf3cb86ac553c70621e3e662b4036163ca34fffb329385fafa0e130cfc1a76000928352602090815260408084206001600160a01b0395909516845293905250205490565b6001600160a01b038316610dd35760405162461bcd60e51b815260206004820152602360248201527f455243313135353a206275726e2066726f6d20746865207a65726f206164647260448201526265737360e81b6064820152608401610445565b8051825114610e355760405162461bcd60e51b815260206004820152602860248201527f455243313135353a2069647320616e6420616d6f756e7473206c656e677468206044820152670dad2e6dac2e8c6d60c31b6064820152608401610445565b6000339050610e5881856000868660405180602001604052806000815250611468565b7ff9ecf3cb86ac553c70621e3e662b4036163ca34fffb329385fafa0e130cfc1a760005b8451811015610f88576000858281518110610e9957610e99612584565b60200260200101519050848281518110610eb557610eb5612584565b602090810291909101810151600083815285835260408082206001600160a01b038c16835290935291909120541015610f3c5760405162461bcd60e51b8152602060048201526024808201527f455243313135353a206275726e20616d6f756e7420657863656564732062616c604482015263616e636560e01b6064820152608401610445565b848281518110610f4e57610f4e612584565b602090810291909101810151600092835284825260408084206001600160a01b038b16855290925291208054919091039055600101610e7c565b5060006001600160a01b0316856001600160a01b0316836001600160a01b03167f4a39dc06d4c0dbc64b70af90fd698a233a518aa5d07e595d983b8c0526c8f7fb8787604051610fd99291906125e6565b60405180910390a45050505050565b610ff6868686868686611476565b61045c868686868686611703565b6001600160a01b0383166110665760405162461bcd60e51b815260206004820152602360248201527f455243313135353a206275726e2066726f6d20746865207a65726f206164647260448201526265737360e81b6064820152608401610445565b3361109581856000611077876118b1565b611080876118b1565b60405180602001604052806000815250611468565b60008381527ff9ecf3cb86ac553c70621e3e662b4036163ca34fffb329385fafa0e130cfc1a7602090815260408083206001600160a01b038816845291829052909120548311156111345760405162461bcd60e51b8152602060048201526024808201527f455243313135353a206275726e20616d6f756e7420657863656564732062616c604482015263616e636560e01b6064820152608401610445565b6001600160a01b0385811660008181526020848152604080832080548990039055805189815291820188905291938616917fc3d58168c5ae7397731d063d5bbf3d657854427343f4c083240f7aacaa2d0f629101610fd9565b6001600160a01b03831660009081527f349768cb3869818ef8452552d8520ac7355b35c10a0ff9320e2975b2875278206020908152604080832085845291829052909120548211156112215760405162461bcd60e51b815260206004820152601160248201527f4e4f545f454e4f5547485f4c4f434b45440000000000000000000000000000006044820152606401610445565b6000838152602082905260408120805484929061123f908490612614565b909155505050505050565b6001600160a01b03831660009081527f349768cb3869818ef8452552d8520ac7355b35c10a0ff9320e2975b287527820602090815260408083208584529182905290912054829061129b8686610cac565b6112a59190612614565b10156112f35760405162461bcd60e51b815260206004820152601260248201527f4e4f545f454e4f5547485f42414c414e434500000000000000000000000000006044820152606401610445565b6000838152602082905260408120805484929061123f90849061262b565b336001600160a01b03851661138e5760405162461bcd60e51b815260206004820152602160248201527f455243313135353a206d696e7420746f20746865207a65726f2061646472657360448201527f73000000000000000000000000000000000000000000000000000000000000006064820152608401610445565b6113ad8160008761139e886118b1565b6113a7886118b1565b87611468565b60008481527ff9ecf3cb86ac553c70621e3e662b4036163ca34fffb329385fafa0e130cfc1a7602090815260408083206001600160a01b0389168452909152812080548592906113fe90849061262b565b909155505060408051858152602081018590526001600160a01b0380881692600092918516917fc3d58168c5ae7397731d063d5bbf3d657854427343f4c083240f7aacaa2d0f629101610fd9565b61145a8686868686866118fc565b61045c868686868686611ac5565b61045c868686868686611bc1565b6001600160a01b0384166114da5760405162461bcd60e51b815260206004820152602560248201527f455243313135353a207472616e7366657220746f20746865207a65726f206164604482015264647265737360d81b6064820152608401610445565b815183511461153c5760405162461bcd60e51b815260206004820152602860248201527f455243313135353a2069647320616e6420616d6f756e7473206c656e677468206044820152670dad2e6dac2e8c6d60c31b6064820152608401610445565b61154a868686868686611468565b7ff9ecf3cb86ac553c70621e3e662b4036163ca34fffb329385fafa0e130cfc1a760005b84518110156116a257600085828151811061158b5761158b612584565b6020026020010151905060008583815181106115a9576115a9612584565b602090810291909101810151600084815286835260408082206001600160a01b038e16835290935291909120549091508181101561164f5760405162461bcd60e51b815260206004820152602b60248201527f455243313135353a20696e73756666696369656e742062616c616e636573206660448201527f6f72207472616e736665720000000000000000000000000000000000000000006064820152608401610445565b6000838152602086815260408083206001600160a01b038e811685529252808320938590039093558a16815290812080546001959095019483929061169590849061262b565b9091555061156e92505050565b50846001600160a01b0316866001600160a01b0316886001600160a01b03167f4a39dc06d4c0dbc64b70af90fd698a233a518aa5d07e595d983b8c0526c8f7fb87876040516116f29291906125e6565b60405180910390a450505050505050565b6001600160a01b0384163b1561045c5760405163bc197c8160e01b81526001600160a01b0385169063bc197c81906117479089908990889088908890600401612690565b6020604051808303816000875af1925050508015611782575060408051601f3d908101601f1916820190925261177f918101906126ee565b60015b6118375761178e612718565b806308c379a0036117c757506117a2612734565b806117ad57506117c9565b8060405162461bcd60e51b815260040161044591906127be565b505b60405162461bcd60e51b815260206004820152603460248201527f455243313135353a207472616e7366657220746f206e6f6e204552433131353560448201527f526563656976657220696d706c656d656e7465720000000000000000000000006064820152608401610445565b6001600160e01b0319811663bc197c8160e01b146118a85760405162461bcd60e51b815260206004820152602860248201527f455243313135353a204552433131353552656365697665722072656a656374656044820152676420746f6b656e7360c01b6064820152608401610445565b50505050505050565b604080516001808252818301909252606091600091906020808301908036833701905050905082816000815181106118eb576118eb612584565b602090810291909101015292915050565b6001600160a01b0384166119605760405162461bcd60e51b815260206004820152602560248201527f455243313135353a207472616e7366657220746f20746865207a65726f206164604482015264647265737360d81b6064820152608401610445565b61197e86868661196f876118b1565b611978876118b1565b86611468565b60008381527ff9ecf3cb86ac553c70621e3e662b4036163ca34fffb329385fafa0e130cfc1a7602081815260408084206001600160a01b038a1685529091529091205483811015611a375760405162461bcd60e51b815260206004820152602b60248201527f455243313135353a20696e73756666696369656e742062616c616e636573206660448201527f6f72207472616e736665720000000000000000000000000000000000000000006064820152608401610445565b6000858152602083815260408083206001600160a01b038b81168552925280832093879003909355871681529081208054859290611a7690849061262b565b909155505060408051858152602081018590526001600160a01b038088169289821692918b16917fc3d58168c5ae7397731d063d5bbf3d657854427343f4c083240f7aacaa2d0f6291016116f2565b6001600160a01b0384163b1561045c5760405163f23a6e6160e01b81526001600160a01b0385169063f23a6e6190611b0990899089908890889088906004016127d1565b6020604051808303816000875af1925050508015611b44575060408051601f3d908101601f19168201909252611b41918101906126ee565b60015b611b505761178e612718565b6001600160e01b0319811663f23a6e6160e01b146118a85760405162461bcd60e51b815260206004820152602860248201527f455243313135353a204552433131353552656365697665722072656a656374656044820152676420746f6b656e7360c01b6064820152608401610445565b6001600160a01b03851615611cfd5760005b8351811015611cfb57828181518110611bee57611bee612584565b6020026020010151611c1d7f349768cb3869818ef8452552d8520ac7355b35c10a0ff9320e2975b28752782090565b6000016000886001600160a01b03166001600160a01b031681526020019081526020016000206000868481518110611c5757611c57612584565b6020026020010151815260200190815260200160002054611c9188878581518110611c8457611c84612584565b6020026020010151610cac565b611c9b9190612614565b1015611ce95760405162461bcd60e51b815260206004820152600660248201527f4c4f434b454400000000000000000000000000000000000000000000000000006044820152606401610445565b80611cf3816125cd565b915050611bd3565b505b61045c8686868686866001600160a01b038516611e77577f7056dcda885936c7a9d7c6385902b4ab5fb09024caea98652b7189a5f7a28ea57f7056dcda885936c7a9d7c6385902b4ab5fb09024caea98652b7189a5f7a28ea660005b8551811015611e7357848181518110611d7457611d74612584565b6020026020010151836000888481518110611d9157611d91612584565b602002602001015181526020019081526020016000206000828254611db6919061262b565b92505081905550816000878381518110611dd257611dd2612584565b6020026020010151815260200190815260200160002054836000888481518110611dfe57611dfe612584565b60200260200101518152602001908152602001600020541115611e635760405162461bcd60e51b815260206004820152601160248201527f535550504c595f4558434545445f4d41580000000000000000000000000000006044820152606401610445565b611e6c816125cd565b9050611d59565b5050505b6001600160a01b03841661045c577f7056dcda885936c7a9d7c6385902b4ab5fb09024caea98652b7189a5f7a28ea560005b8451811015611f9e576000858281518110611ec657611ec6612584565b602002602001015190506000858381518110611ee457611ee4612584565b60200260200101519050600084600084815260200190815260200160002054905081811015611f7b5760405162461bcd60e51b815260206004820152602860248201527f455243313135353a206275726e20616d6f756e74206578636565647320746f7460448201527f616c537570706c790000000000000000000000000000000000000000000000006064820152608401610445565b60009283526020859052604090922091039055611f97816125cd565b9050611ea9565b5050505050505050565b80356001600160a01b0381168114611fbf57600080fd5b919050565b60008060408385031215611fd757600080fd5b611fe083611fa8565b946020939093013593505050565b634e487b7160e01b600052604160045260246000fd5b601f8201601f1916810167ffffffffffffffff8111828210171561202a5761202a611fee565b6040525050565b600067ffffffffffffffff82111561204b5761204b611fee565b5060051b60200190565b600082601f83011261206657600080fd5b8135602061207382612031565b6040516120808282612004565b83815260059390931b85018201928281019150868411156120a057600080fd5b8286015b848110156120bb57803583529183019183016120a4565b509695505050505050565b6000806000606084860312156120db57600080fd5b6120e484611fa8565b9250602084013567ffffffffffffffff8082111561210157600080fd5b61210d87838801612055565b9350604086013591508082111561212357600080fd5b5061213086828701612055565b9150509250925092565b600082601f83011261214b57600080fd5b813567ffffffffffffffff81111561216557612165611fee565b60405161217c601f8301601f191660200182612004565b81815284602083860101111561219157600080fd5b816020850160208301376000918101602001919091529392505050565b600080600080600060a086880312156121c657600080fd5b6121cf86611fa8565b94506121dd60208701611fa8565b9350604086013567ffffffffffffffff808211156121fa57600080fd5b61220689838a01612055565b9450606088013591508082111561221c57600080fd5b61222889838a01612055565b9350608088013591508082111561223e57600080fd5b5061224b8882890161213a565b9150509295509295909350565b60008060006060848603121561226d57600080fd5b61227684611fa8565b95602085013595506040909401359392505050565b6000806040838503121561229e57600080fd5b823567ffffffffffffffff808211156122b657600080fd5b818501915085601f8301126122ca57600080fd5b813560206122d782612031565b6040516122e48282612004565b83815260059390931b850182019282810191508984111561230457600080fd5b948201945b838610156123295761231a86611fa8565b82529482019490820190612309565b9650508601359250508082111561233f57600080fd5b5061234c85828601612055565b9150509250929050565b600081518084526020808501945080840160005b838110156123865781518752958201959082019060010161236a565b509495945050505050565b6020815260006103586020830184612356565b6000602082840312156123b657600080fd5b5035919050565b80151581146123cb57600080fd5b50565b600080604083850312156123e157600080fd5b6123ea83611fa8565b915060208301356123fa816123bd565b809150509250929050565b60008060006040848603121561241a57600080fd5b61242384611fa8565b9250602084013567ffffffffffffffff8082111561244057600080fd5b818601915086601f83011261245457600080fd5b81358181111561246357600080fd5b8760208260051b850101111561247857600080fd5b6020830194508093505050509250925092565b600080600080608085870312156124a157600080fd5b6124aa85611fa8565b93506020850135925060408501359150606085013567ffffffffffffffff8111156124d457600080fd5b6124e08782880161213a565b91505092959194509250565b600080604083850312156124ff57600080fd5b61250883611fa8565b915061251660208401611fa8565b90509250929050565b600080600080600060a0868803121561253757600080fd5b61254086611fa8565b945061254e60208701611fa8565b93506040860135925060608601359150608086013567ffffffffffffffff81111561257857600080fd5b61224b8882890161213a565b634e487b7160e01b600052603260045260246000fd5b6000602082840312156125ac57600080fd5b8151610358816123bd565b634e487b7160e01b600052601160045260246000fd5b6000600182016125df576125df6125b7565b5060010190565b6040815260006125f96040830185612356565b828103602084015261260b8185612356565b95945050505050565b600082821015612626576126266125b7565b500390565b6000821982111561263e5761263e6125b7565b500190565b6000815180845260005b818110156126695760208185018101518683018201520161264d565b8181111561267b576000602083870101525b50601f01601f19169290920160200192915050565b60006001600160a01b03808816835280871660208401525060a060408301526126bc60a0830186612356565b82810360608401526126ce8186612356565b905082810360808401526126e28185612643565b98975050505050505050565b60006020828403121561270057600080fd5b81516001600160e01b03198116811461035857600080fd5b600060033d11156127315760046000803e5060005160e01c5b90565b600060443d10156127425790565b6040516003193d81016004833e81513d67ffffffffffffffff816024840111818411171561277257505050505090565b828501915081518181111561278a5750505050505090565b843d87010160208285010111156127a45750505050505090565b6127b360208286010187612004565b509095945050505050565b6020815260006103586020830184612643565b60006001600160a01b03808816835280871660208401525084604083015283606083015260a0608083015261280960a0830184612643565b97965050505050505056fea26469706673582212207983b28828c0e1640ce0b6bb49d9ac007fa3d4e53a9e2336dc6287fe55a2dddb64736f6c634300080f0033",
  "devdoc": {
    "custom:category": "NFTs",
    "custom:provides-interfaces": "0xd9b67a26 0x744f4bd4 0xdc290004 0xff3508c6 0xb164884b",
    "custom:type": "eip-2535-facet",
    "kind": "dev",
    "methods": {
      "balanceOf(address,uint256)": {
        "params": {
          "account": "address to query",
          "id": "token to query"
        },
        "returns": {
          "_0": "token balance"
        }
      },
      "balanceOfBatch(address[],uint256[])": {
        "params": {
          "accounts": "addresss to query",
          "ids": "tokens to query"
        },
        "returns": {
          "_0": "token balances"
        }
      },
      "exists(uint256)": {
        "details": "Indicates whether any token exist with a given id, or not."
      },
      "isApprovedForAll(address,address)": {
        "params": {
          "account": "address to query for approval granted",
          "operator": "address to query for approval received"
        },
        "returns": {
          "_0": "whether operator is approved to spend tokens held by account"
        }
      },
      "lockByFacet(address,uint256,uint256)": {
        "details": "Locks `amount` of tokens of `account`, of token type `id`. Requirements: - the caller must be diamond itself (other facets)."
      },
      "maxSupply(uint256)": {
        "details": "Maximum amount of tokens possible to exist for a given id."
      },
      "mintByFacet(address,uint256,uint256,bytes)": {
        "details": "Creates `amount` new tokens for `to`, of token type `id`. See {ERC1155-_mint}. Requirements: - the caller must be diamond itself (other facets)."
      },
      "safeBatchTransferFrom(address,address,uint256[],uint256[],bytes)": {
        "params": {
          "amounts": "list of quantities of tokens to transfer",
          "data": "data payload",
          "from": "sender of tokens",
          "ids": "list of token IDs",
          "to": "receiver of tokens"
        }
      },
      "safeTransferFrom(address,address,uint256,uint256,bytes)": {
        "params": {
          "amount": "quantity of tokens to transfer",
          "data": "data payload",
          "from": "sender of tokens",
          "id": "token ID",
          "to": "receiver of tokens"
        }
      },
      "setApprovalForAll(address,bool)": {
        "params": {
          "operator": "address whose approval status to update",
          "status": "whether operator should be considered approved"
        }
      },
      "totalSupply(uint256)": {
        "details": "Total amount of tokens in with a given id."
      },
      "unlockByFacet(address,uint256,uint256)": {
        "details": "Un-locks `amount` of tokens of `account`, of token type `id`. Requirements: - the caller must be diamond itself (other facets)."
      }
    },
    "title": "ERC1155 - Standard",
    "version": 1
  },
  "userdoc": {
    "errors": {
      "SenderIsNotSelf()": [
        {
          "notice": "The caller must be the current contract itself."
        }
      ]
    },
    "kind": "user",
    "methods": {
      "balanceOf(address,uint256)": {
        "notice": "query the balance of given token held by given address"
      },
      "balanceOfBatch(address[],uint256[])": {
        "notice": "query the balances of given tokens held by given addresses"
      },
      "isApprovedForAll(address,address)": {
        "notice": "query approval status of given operator with respect to given address"
      },
      "safeBatchTransferFrom(address,address,uint256[],uint256[],bytes)": {
        "notice": "transfer batch of tokens between given addresses, checking for ERC1155Receiver implementation if applicable"
      },
      "safeTransferFrom(address,address,uint256,uint256,bytes)": {
        "notice": "transfer tokens between given addresses, checking for ERC1155Receiver implementation if applicable"
      },
      "setApprovalForAll(address,bool)": {
        "notice": "grant approval to or revoke approval from given operator to spend held tokens"
      }
    },
    "notice": "Standard EIP-1155 NFTs with core capabilities of Mintable, Burnable and Lockable.",
    "version": 1
  },
  "storageLayout": {
    "storage": [],
    "types": null
  }
}