{
  "address": "0x0a67c162dbe57878EFda7E6ab39883BBD431Dc29",
  "abi": [
    {
      "anonymous": false,
      "inputs": [
        {
          "indexed": true,
          "internalType": "address",
          "name": "previousOwner",
          "type": "address"
        },
        {
          "indexed": true,
          "internalType": "address",
          "name": "newOwner",
          "type": "address"
        }
      ],
      "name": "OwnershipTransferred",
      "type": "event"
    },
    {
      "inputs": [
        {
          "internalType": "address",
          "name": "account",
          "type": "address"
        },
        {
          "internalType": "uint256",
          "name": "id",
          "type": "uint256"
        },
        {
          "internalType": "uint256",
          "name": "amount",
          "type": "uint256"
        }
      ],
      "name": "lockByOwner",
      "outputs": [],
      "stateMutability": "nonpayable",
      "type": "function"
    },
    {
      "inputs": [
        {
          "internalType": "address[]",
          "name": "accounts",
          "type": "address[]"
        },
        {
          "internalType": "uint256[]",
          "name": "ids",
          "type": "uint256[]"
        },
        {
          "internalType": "uint256[]",
          "name": "amounts",
          "type": "uint256[]"
        }
      ],
      "name": "lockByOwner",
      "outputs": [],
      "stateMutability": "nonpayable",
      "type": "function"
    },
    {
      "inputs": [
        {
          "internalType": "address[]",
          "name": "accounts",
          "type": "address[]"
        },
        {
          "internalType": "uint256[]",
          "name": "ids",
          "type": "uint256[]"
        },
        {
          "internalType": "uint256[]",
          "name": "amounts",
          "type": "uint256[]"
        }
      ],
      "name": "unlockByOwner",
      "outputs": [],
      "stateMutability": "nonpayable",
      "type": "function"
    },
    {
      "inputs": [
        {
          "internalType": "address",
          "name": "account",
          "type": "address"
        },
        {
          "internalType": "uint256",
          "name": "id",
          "type": "uint256"
        },
        {
          "internalType": "uint256",
          "name": "amount",
          "type": "uint256"
        }
      ],
      "name": "unlockByOwner",
      "outputs": [],
      "stateMutability": "nonpayable",
      "type": "function"
    }
  ],
  "transactionHash": "0x97fee037cc92e78aea5475877946529ede43a3ca99d352598c399cc9876c06ec",
  "args": [],
  "numDeployments": 3,
  "solcInputHash": "00aa33fa3dda43d1e7155583081a00ea",
  "bytecode": "0x608060405234801561001057600080fd5b506106ed806100206000396000f3fe608060405234801561001057600080fd5b506004361061004c5760003560e01c80639d3a9f5f14610051578063c48d633614610066578063c561da7114610079578063e78579041461008c575b600080fd5b61006461005f3660046104f0565b61009f565b005b6100646100743660046105d4565b610194565b6100646100873660046105d4565b610260565b61006461009a3660046104f0565b61032c565b7fc0ea367cb0174dd5521cd2372c76f8c13e6c1f832c71f1d6e0cbc185c9cc8ed4546001600160a01b0316331461011d5760405162461bcd60e51b815260206004820152601d60248201527f4f776e61626c653a2073656e646572206d757374206265206f776e657200000060448201526064015b60405180910390fd5b6040517f3f3b797e0000000000000000000000000000000000000000000000000000000081523090633f3b797e9061015d90869086908690600401610642565b600060405180830381600087803b15801561017757600080fd5b505af115801561018b573d6000803e3d6000fd5b50505050505050565b7fc0ea367cb0174dd5521cd2372c76f8c13e6c1f832c71f1d6e0cbc185c9cc8ed4546001600160a01b0316331461020d5760405162461bcd60e51b815260206004820152601d60248201527f4f776e61626c653a2073656e646572206d757374206265206f776e65720000006044820152606401610114565b6040517f983da1560000000000000000000000000000000000000000000000000000000081526001600160a01b03841660048201526024810183905260448101829052309063983da1569060640161015d565b7fc0ea367cb0174dd5521cd2372c76f8c13e6c1f832c71f1d6e0cbc185c9cc8ed4546001600160a01b031633146102d95760405162461bcd60e51b815260206004820152601d60248201527f4f776e61626c653a2073656e646572206d757374206265206f776e65720000006044820152606401610114565b6040517f6708a9900000000000000000000000000000000000000000000000000000000081526001600160a01b038416600482015260248101839052604481018290523090636708a9909060640161015d565b7fc0ea367cb0174dd5521cd2372c76f8c13e6c1f832c71f1d6e0cbc185c9cc8ed4546001600160a01b031633146103a55760405162461bcd60e51b815260206004820152601d60248201527f4f776e61626c653a2073656e646572206d757374206265206f776e65720000006044820152606401610114565b6040517ff7794bae000000000000000000000000000000000000000000000000000000008152309063f7794bae9061015d90869086908690600401610642565b7f4e487b7100000000000000000000000000000000000000000000000000000000600052604160045260246000fd5b604051601f8201601f1916810167ffffffffffffffff8111828210171561043d5761043d6103e5565b604052919050565b600067ffffffffffffffff82111561045f5761045f6103e5565b5060051b60200190565b80356001600160a01b038116811461048057600080fd5b919050565b600082601f83011261049657600080fd5b813560206104ab6104a683610445565b610414565b82815260059290921b840181019181810190868411156104ca57600080fd5b8286015b848110156104e557803583529183019183016104ce565b509695505050505050565b60008060006060848603121561050557600080fd5b833567ffffffffffffffff8082111561051d57600080fd5b818601915086601f83011261053157600080fd5b813560206105416104a683610445565b82815260059290921b8401810191818101908a84111561056057600080fd5b948201945b838610156105855761057686610469565b82529482019490820190610565565b9750508701359250508082111561059b57600080fd5b6105a787838801610485565b935060408601359150808211156105bd57600080fd5b506105ca86828701610485565b9150509250925092565b6000806000606084860312156105e957600080fd5b6105f284610469565b95602085013595506040909401359392505050565b600081518084526020808501945080840160005b838110156106375781518752958201959082019060010161061b565b509495945050505050565b606080825284519082018190526000906020906080840190828801845b828110156106845781516001600160a01b03168452928401929084019060010161065f565b505050838103828501526106988187610607565b91505082810360408401526106ad8185610607565b969550505050505056fea264697066735822122078de94b58fcbb39c4be2a6ecdf64c4414b030c279c5919216c45d7dcbb26d72364736f6c634300080f0033",
  "devdoc": {
    "custom:category": "NFTs",
    "custom:provides-interfaces": "IERC1155LockableOwnable",
    "custom:required-dependencies": "IERC1155LockableExtension",
    "custom:type": "eip-2535-facet",
    "kind": "dev",
    "methods": {},
    "title": "ERC1155 - Lock as owner",
    "version": 1
  },
  "userdoc": {
    "kind": "user",
    "methods": {},
    "notice": "Allow locking tokens as the contract owner.",
    "version": 1
  },
  "storageLayout": {
    "storage": [],
    "types": null
  }
}