{
  "address": "0x109BAbB9B9E35354b7343E5dCac19E0A0aae9e49",
  "abi": [
    {
      "anonymous": false,
      "inputs": [
        {
          "indexed": false,
          "internalType": "string",
          "name": "value",
          "type": "string"
        },
        {
          "indexed": true,
          "internalType": "uint256",
          "name": "tokenId",
          "type": "uint256"
        }
      ],
      "name": "URI",
      "type": "event"
    },
    {
      "inputs": [],
      "name": "baseURI",
      "outputs": [
        {
          "internalType": "string",
          "name": "",
          "type": "string"
        }
      ],
      "stateMutability": "view",
      "type": "function"
    },
    {
      "inputs": [],
      "name": "baseURILocked",
      "outputs": [
        {
          "internalType": "bool",
          "name": "",
          "type": "bool"
        }
      ],
      "stateMutability": "view",
      "type": "function"
    },
    {
      "inputs": [],
      "name": "fallbackURI",
      "outputs": [
        {
          "internalType": "string",
          "name": "",
          "type": "string"
        }
      ],
      "stateMutability": "view",
      "type": "function"
    },
    {
      "inputs": [],
      "name": "fallbackURILocked",
      "outputs": [
        {
          "internalType": "bool",
          "name": "",
          "type": "bool"
        }
      ],
      "stateMutability": "view",
      "type": "function"
    },
    {
      "inputs": [],
      "name": "lastLockedTokenId",
      "outputs": [
        {
          "internalType": "uint256",
          "name": "",
          "type": "uint256"
        }
      ],
      "stateMutability": "view",
      "type": "function"
    },
    {
      "inputs": [
        {
          "internalType": "uint256",
          "name": "tokenId",
          "type": "uint256"
        }
      ],
      "name": "uri",
      "outputs": [
        {
          "internalType": "string",
          "name": "",
          "type": "string"
        }
      ],
      "stateMutability": "view",
      "type": "function"
    },
    {
      "inputs": [
        {
          "internalType": "uint256[]",
          "name": "tokenIds",
          "type": "uint256[]"
        }
      ],
      "name": "uriBatch",
      "outputs": [
        {
          "internalType": "string[]",
          "name": "",
          "type": "string[]"
        }
      ],
      "stateMutability": "view",
      "type": "function"
    },
    {
      "inputs": [],
      "name": "uriSuffix",
      "outputs": [
        {
          "internalType": "string",
          "name": "",
          "type": "string"
        }
      ],
      "stateMutability": "view",
      "type": "function"
    },
    {
      "inputs": [],
      "name": "uriSuffixLocked",
      "outputs": [
        {
          "internalType": "bool",
          "name": "",
          "type": "bool"
        }
      ],
      "stateMutability": "view",
      "type": "function"
    }
  ],
  "transactionHash": "0x39f245714d9ae2dec767f322e2c4d9bf2eb6f348adbf5321f970d859a1fb3bef",
  "args": [],
  "numDeployments": 4,
  "solcInputHash": "5b3030410ef10b748136e331e96ddd7c",
  "bytecode": "0x608060405234801561001057600080fd5b50610ab5806100206000396000f3fe608060405234801561001057600080fd5b50600436106100a35760003560e01c80635d148e5c116100765780636c0360eb1161005b5780636c0360eb1461016d57806396d7e22914610175578063c4ef3e051461019557600080fd5b80635d148e5c146101135780636b95c5041461013d57600080fd5b8063067f0848146100a85780630c7d9752146100e35780630e89341c146100f85780635503a0e81461010b575b600080fd5b7f7df186493127afbe76aac5b5b4ed702314d47975d114f419dbfeec69750bceee5460ff165b60405190151581526020015b60405180910390f35b6100eb6101bf565b6040516100da91906107ac565b6100eb6101063660046107c6565b610273565b6100eb6104fd565b7f7df186493127afbe76aac5b5b4ed702314d47975d114f419dbfeec69750bceec5460ff166100ce565b7f7df186493127afbe76aac5b5b4ed702314d47975d114f419dbfeec69750bcef1546040519081526020016100da565b6100eb61052e565b6101886101833660046107df565b61055c565b6040516100da9190610854565b7f7df186493127afbe76aac5b5b4ed702314d47975d114f419dbfeec69750bcef05460ff166100ce565b60607f7df186493127afbe76aac5b5b4ed702314d47975d114f419dbfeec69750bceeb60020180546101f0906108b6565b80601f016020809104026020016040519081016040528092919081815260200182805461021c906108b6565b80156102695780601f1061023e57610100808354040283529160200191610269565b820191906000526020600020905b81548152906001019060200180831161024c57829003601f168201915b5050505050905090565b60008181527f7df186493127afbe76aac5b5b4ed702314d47975d114f419dbfeec69750bcef26020526040812080546060927f7df186493127afbe76aac5b5b4ed702314d47975d114f419dbfeec69750bceeb9290916102d2906108b6565b80601f01602080910402602001604051908101604052809291908181526020018280546102fe906108b6565b801561034b5780601f106103205761010080835404028352916020019161034b565b820191906000526020600020905b81548152906001019060200180831161032e57829003601f168201915b505050505090506000826000018054610363906108b6565b80601f016020809104026020016040519081016040528092919081815260200182805461038f906108b6565b80156103dc5780601f106103b1576101008083540402835291602001916103dc565b820191906000526020600020905b8154815290600101906020018083116103bf57829003601f168201915b505050505090506000825111156103f557509392505050565b6000836002018054610406906108b6565b905011156104a55782600201805461041d906108b6565b80601f0160208091040260200160405190810160405280929190818152602001828054610449906108b6565b80156104965780601f1061046b57610100808354040283529160200191610496565b820191906000526020600020905b81548152906001019060200180831161047957829003601f168201915b50505050509350505050919050565b8051156104e557806104b686610613565b846004016040516020016104cc939291906108f0565b6040516020818303038152906040529350505050919050565b50506040805160208101909152600081529392505050565b60607f7df186493127afbe76aac5b5b4ed702314d47975d114f419dbfeec69750bceeb60040180546101f0906108b6565b60607f7df186493127afbe76aac5b5b4ed702314d47975d114f419dbfeec69750bceeb80546101f0906108b6565b606060008267ffffffffffffffff811115610579576105796109b7565b6040519080825280602002602001820160405280156105ac57816020015b60608152602001906001900390816105975790505b50905060005b8381101561060b576105db8585838181106105cf576105cf6109cd565b90506020020135610273565b8282815181106105ed576105ed6109cd565b60200260200101819052508080610603906109f9565b9150506105b2565b509392505050565b60608160000361065657505060408051808201909152600181527f3000000000000000000000000000000000000000000000000000000000000000602082015290565b8160005b8115610680578061066a816109f9565b91506106799050600a83610a28565b915061065a565b60008167ffffffffffffffff81111561069b5761069b6109b7565b6040519080825280601f01601f1916602001820160405280156106c5576020820181803683370190505b5090505b8415610748576106da600183610a3c565b91506106e7600a86610a53565b6106f2906030610a67565b60f81b818381518110610707576107076109cd565b60200101907effffffffffffffffffffffffffffffffffffffffffffffffffffffffffffff1916908160001a905350610741600a86610a28565b94506106c9565b949350505050565b60005b8381101561076b578181015183820152602001610753565b8381111561077a576000848401525b50505050565b60008151808452610798816020860160208601610750565b601f01601f19169290920160200192915050565b6020815260006107bf6020830184610780565b9392505050565b6000602082840312156107d857600080fd5b5035919050565b600080602083850312156107f257600080fd5b823567ffffffffffffffff8082111561080a57600080fd5b818501915085601f83011261081e57600080fd5b81358181111561082d57600080fd5b8660208260051b850101111561084257600080fd5b60209290920196919550909350505050565b6000602080830181845280855180835260408601915060408160051b870101925083870160005b828110156108a957603f19888603018452610897858351610780565b9450928501929085019060010161087b565b5092979650505050505050565b600181811c908216806108ca57607f821691505b6020821081036108ea57634e487b7160e01b600052602260045260246000fd5b50919050565b6000845160206109038285838a01610750565b8551918401916109168184848a01610750565b8554920191600090600181811c908083168061093357607f831692505b858310810361095057634e487b7160e01b85526022600452602485fd5b8080156109645760018114610979576109a6565b60ff19851688528315158402880195506109a6565b60008b81526020902060005b8581101561099e5781548a820152908401908801610985565b505083880195505b50939b9a5050505050505050505050565b634e487b7160e01b600052604160045260246000fd5b634e487b7160e01b600052603260045260246000fd5b634e487b7160e01b600052601160045260246000fd5b600060018201610a0b57610a0b6109e3565b5060010190565b634e487b7160e01b600052601260045260246000fd5b600082610a3757610a37610a12565b500490565b600082821015610a4e57610a4e6109e3565b500390565b600082610a6257610a62610a12565b500690565b60008219821115610a7a57610a7a6109e3565b50019056fea26469706673582212203f7fa90d3772daca2ab6cfb8c60197b5d05cfafc8c7defe3326d63d7e5ca69bc64736f6c634300080f0033",
  "devdoc": {
    "custom:category": "NFTs",
    "custom:peer-dependencies": "0xd9b67a26",
    "custom:provides-interfaces": "0x0e89341c 0x57bbc86d",
    "custom:type": "eip-2535-facet",
    "details": "See https://eips.ethereum.org/EIPS/eip-1155#metadata-extensions",
    "kind": "dev",
    "methods": {},
    "title": "ERC1155 - Metadata",
    "version": 1
  },
  "userdoc": {
    "kind": "user",
    "methods": {
      "uri(uint256)": {
        "notice": "inheritdoc IERC1155Metadata"
      }
    },
    "notice": "Provides metadata for ERC1155 tokens according to standard. This extension supports base URI, per-token URI, and a fallback URI. You can also freeze URIs until a certain token ID.",
    "version": 1
  },
  "storageLayout": {
    "storage": [],
    "types": null
  }
}