{
  "address": "0xc03Aa0BA1F1e43B783f6C598d7A9f5F234D1f274",
  "abi": [
    {
      "inputs": [],
      "name": "ErrSenderIsNotSelf",
      "type": "error"
    },
    {
      "anonymous": false,
      "inputs": [
        {
          "indexed": true,
          "internalType": "address",
          "name": "account",
          "type": "address"
        },
        {
          "indexed": true,
          "internalType": "address",
          "name": "operator",
          "type": "address"
        },
        {
          "indexed": false,
          "internalType": "bool",
          "name": "approved",
          "type": "bool"
        }
      ],
      "name": "ApprovalForAll",
      "type": "event"
    },
    {
      "anonymous": false,
      "inputs": [
        {
          "indexed": true,
          "internalType": "address",
          "name": "operator",
          "type": "address"
        },
        {
          "indexed": true,
          "internalType": "address",
          "name": "from",
          "type": "address"
        },
        {
          "indexed": true,
          "internalType": "address",
          "name": "to",
          "type": "address"
        },
        {
          "indexed": false,
          "internalType": "uint256[]",
          "name": "ids",
          "type": "uint256[]"
        },
        {
          "indexed": false,
          "internalType": "uint256[]",
          "name": "values",
          "type": "uint256[]"
        }
      ],
      "name": "TransferBatch",
      "type": "event"
    },
    {
      "anonymous": false,
      "inputs": [
        {
          "indexed": true,
          "internalType": "address",
          "name": "operator",
          "type": "address"
        },
        {
          "indexed": true,
          "internalType": "address",
          "name": "from",
          "type": "address"
        },
        {
          "indexed": true,
          "internalType": "address",
          "name": "to",
          "type": "address"
        },
        {
          "indexed": false,
          "internalType": "uint256",
          "name": "id",
          "type": "uint256"
        },
        {
          "indexed": false,
          "internalType": "uint256",
          "name": "value",
          "type": "uint256"
        }
      ],
      "name": "TransferSingle",
      "type": "event"
    },
    {
      "inputs": [
        {
          "internalType": "address",
          "name": "account",
          "type": "address"
        },
        {
          "internalType": "uint256",
          "name": "id",
          "type": "uint256"
        }
      ],
      "name": "balanceOf",
      "outputs": [
        {
          "internalType": "uint256",
          "name": "",
          "type": "uint256"
        }
      ],
      "stateMutability": "view",
      "type": "function"
    },
    {
      "inputs": [
        {
          "internalType": "address[]",
          "name": "accounts",
          "type": "address[]"
        },
        {
          "internalType": "uint256[]",
          "name": "ids",
          "type": "uint256[]"
        }
      ],
      "name": "balanceOfBatch",
      "outputs": [
        {
          "internalType": "uint256[]",
          "name": "",
          "type": "uint256[]"
        }
      ],
      "stateMutability": "view",
      "type": "function"
    },
    {
      "inputs": [
        {
          "internalType": "address",
          "name": "account",
          "type": "address"
        },
        {
          "internalType": "uint256",
          "name": "id",
          "type": "uint256"
        },
        {
          "internalType": "uint256",
          "name": "value",
          "type": "uint256"
        }
      ],
      "name": "burn",
      "outputs": [],
      "stateMutability": "nonpayable",
      "type": "function"
    },
    {
      "inputs": [
        {
          "internalType": "address",
          "name": "account",
          "type": "address"
        },
        {
          "internalType": "uint256[]",
          "name": "ids",
          "type": "uint256[]"
        },
        {
          "internalType": "uint256[]",
          "name": "values",
          "type": "uint256[]"
        }
      ],
      "name": "burnBatch",
      "outputs": [],
      "stateMutability": "nonpayable",
      "type": "function"
    },
    {
      "inputs": [
        {
          "internalType": "address",
          "name": "account",
          "type": "address"
        },
        {
          "internalType": "uint256[]",
          "name": "ids",
          "type": "uint256[]"
        },
        {
          "internalType": "uint256[]",
          "name": "values",
          "type": "uint256[]"
        }
      ],
      "name": "burnBatchByFacet",
      "outputs": [],
      "stateMutability": "nonpayable",
      "type": "function"
    },
    {
      "inputs": [
        {
          "internalType": "address",
          "name": "account",
          "type": "address"
        },
        {
          "internalType": "uint256",
          "name": "id",
          "type": "uint256"
        },
        {
          "internalType": "uint256",
          "name": "amount",
          "type": "uint256"
        }
      ],
      "name": "burnByFacet",
      "outputs": [],
      "stateMutability": "nonpayable",
      "type": "function"
    },
    {
      "inputs": [
        {
          "internalType": "uint256",
          "name": "id",
          "type": "uint256"
        }
      ],
      "name": "exists",
      "outputs": [
        {
          "internalType": "bool",
          "name": "",
          "type": "bool"
        }
      ],
      "stateMutability": "view",
      "type": "function"
    },
    {
      "inputs": [
        {
          "internalType": "uint256[]",
          "name": "ids",
          "type": "uint256[]"
        }
      ],
      "name": "existsBatch",
      "outputs": [
        {
          "internalType": "bool[]",
          "name": "",
          "type": "bool[]"
        }
      ],
      "stateMutability": "view",
      "type": "function"
    },
    {
      "inputs": [
        {
          "internalType": "address",
          "name": "account",
          "type": "address"
        },
        {
          "internalType": "address",
          "name": "operator",
          "type": "address"
        }
      ],
      "name": "isApprovedForAll",
      "outputs": [
        {
          "internalType": "bool",
          "name": "",
          "type": "bool"
        }
      ],
      "stateMutability": "view",
      "type": "function"
    },
    {
      "inputs": [
        {
          "internalType": "address",
          "name": "account",
          "type": "address"
        },
        {
          "internalType": "uint256",
          "name": "id",
          "type": "uint256"
        },
        {
          "internalType": "uint256",
          "name": "amount",
          "type": "uint256"
        }
      ],
      "name": "lockByFacet",
      "outputs": [],
      "stateMutability": "nonpayable",
      "type": "function"
    },
    {
      "inputs": [
        {
          "internalType": "address[]",
          "name": "accounts",
          "type": "address[]"
        },
        {
          "internalType": "uint256[]",
          "name": "ids",
          "type": "uint256[]"
        },
        {
          "internalType": "uint256[]",
          "name": "amounts",
          "type": "uint256[]"
        }
      ],
      "name": "lockByFacet",
      "outputs": [],
      "stateMutability": "nonpayable",
      "type": "function"
    },
    {
      "inputs": [
        {
          "internalType": "address",
          "name": "account",
          "type": "address"
        },
        {
          "internalType": "uint256[]",
          "name": "ticketTokenIds",
          "type": "uint256[]"
        }
      ],
      "name": "locked",
      "outputs": [
        {
          "internalType": "uint256[]",
          "name": "",
          "type": "uint256[]"
        }
      ],
      "stateMutability": "view",
      "type": "function"
    },
    {
      "inputs": [
        {
          "internalType": "address",
          "name": "account",
          "type": "address"
        },
        {
          "internalType": "uint256",
          "name": "tokenId",
          "type": "uint256"
        }
      ],
      "name": "locked",
      "outputs": [
        {
          "internalType": "uint256",
          "name": "",
          "type": "uint256"
        }
      ],
      "stateMutability": "view",
      "type": "function"
    },
    {
      "inputs": [
        {
          "internalType": "uint256",
          "name": "id",
          "type": "uint256"
        }
      ],
      "name": "maxSupply",
      "outputs": [
        {
          "internalType": "uint256",
          "name": "",
          "type": "uint256"
        }
      ],
      "stateMutability": "view",
      "type": "function"
    },
    {
      "inputs": [
        {
          "internalType": "uint256[]",
          "name": "ids",
          "type": "uint256[]"
        }
      ],
      "name": "maxSupplyBatch",
      "outputs": [
        {
          "internalType": "uint256[]",
          "name": "",
          "type": "uint256[]"
        }
      ],
      "stateMutability": "view",
      "type": "function"
    },
    {
      "inputs": [
        {
          "internalType": "address[]",
          "name": "tos",
          "type": "address[]"
        },
        {
          "internalType": "uint256[]",
          "name": "ids",
          "type": "uint256[]"
        },
        {
          "internalType": "uint256[]",
          "name": "amounts",
          "type": "uint256[]"
        },
        {
          "internalType": "bytes[]",
          "name": "datas",
          "type": "bytes[]"
        }
      ],
      "name": "mintByFacet",
      "outputs": [],
      "stateMutability": "nonpayable",
      "type": "function"
    },
    {
      "inputs": [
        {
          "internalType": "address",
          "name": "to",
          "type": "address"
        },
        {
          "internalType": "uint256",
          "name": "id",
          "type": "uint256"
        },
        {
          "internalType": "uint256",
          "name": "amount",
          "type": "uint256"
        },
        {
          "internalType": "bytes",
          "name": "data",
          "type": "bytes"
        }
      ],
      "name": "mintByFacet",
      "outputs": [],
      "stateMutability": "nonpayable",
      "type": "function"
    },
    {
      "inputs": [
        {
          "internalType": "address",
          "name": "from",
          "type": "address"
        },
        {
          "internalType": "address",
          "name": "to",
          "type": "address"
        },
        {
          "internalType": "uint256[]",
          "name": "ids",
          "type": "uint256[]"
        },
        {
          "internalType": "uint256[]",
          "name": "amounts",
          "type": "uint256[]"
        },
        {
          "internalType": "bytes",
          "name": "data",
          "type": "bytes"
        }
      ],
      "name": "safeBatchTransferFrom",
      "outputs": [],
      "stateMutability": "nonpayable",
      "type": "function"
    },
    {
      "inputs": [
        {
          "internalType": "address",
          "name": "from",
          "type": "address"
        },
        {
          "internalType": "address",
          "name": "to",
          "type": "address"
        },
        {
          "internalType": "uint256",
          "name": "id",
          "type": "uint256"
        },
        {
          "internalType": "uint256",
          "name": "amount",
          "type": "uint256"
        },
        {
          "internalType": "bytes",
          "name": "data",
          "type": "bytes"
        }
      ],
      "name": "safeTransferFrom",
      "outputs": [],
      "stateMutability": "nonpayable",
      "type": "function"
    },
    {
      "inputs": [
        {
          "internalType": "address",
          "name": "operator",
          "type": "address"
        },
        {
          "internalType": "bool",
          "name": "status",
          "type": "bool"
        }
      ],
      "name": "setApprovalForAll",
      "outputs": [],
      "stateMutability": "nonpayable",
      "type": "function"
    },
    {
      "inputs": [
        {
          "internalType": "uint256",
          "name": "id",
          "type": "uint256"
        }
      ],
      "name": "totalSupply",
      "outputs": [
        {
          "internalType": "uint256",
          "name": "",
          "type": "uint256"
        }
      ],
      "stateMutability": "view",
      "type": "function"
    },
    {
      "inputs": [
        {
          "internalType": "uint256[]",
          "name": "ids",
          "type": "uint256[]"
        }
      ],
      "name": "totalSupplyBatch",
      "outputs": [
        {
          "internalType": "uint256[]",
          "name": "",
          "type": "uint256[]"
        }
      ],
      "stateMutability": "view",
      "type": "function"
    },
    {
      "inputs": [
        {
          "internalType": "address[]",
          "name": "accounts",
          "type": "address[]"
        },
        {
          "internalType": "uint256[]",
          "name": "ids",
          "type": "uint256[]"
        },
        {
          "internalType": "uint256[]",
          "name": "amounts",
          "type": "uint256[]"
        }
      ],
      "name": "unlockByFacet",
      "outputs": [],
      "stateMutability": "nonpayable",
      "type": "function"
    },
    {
      "inputs": [
        {
          "internalType": "address",
          "name": "account",
          "type": "address"
        },
        {
          "internalType": "uint256",
          "name": "id",
          "type": "uint256"
        },
        {
          "internalType": "uint256",
          "name": "amount",
          "type": "uint256"
        }
      ],
      "name": "unlockByFacet",
      "outputs": [],
      "stateMutability": "nonpayable",
      "type": "function"
    }
  ],
  "transactionHash": "0x3423d0e70bcd193f946afc664e5f5e51d4e5485651338e3029f4fd6b32c41ff9",
  "args": [],
  "numDeployments": 9,
  "solcInputHash": "9965075347651163104e5b33dfcec9f0",
  "bytecode": "0x608060405234801561001057600080fd5b506131f3806100206000396000f3fe608060405234801561001057600080fd5b50600436106101975760003560e01c8063869f7594116100e3578063bd85b0391161008c578063f242432a11610066578063f242432a146103b2578063f5298aca146103c5578063f7794bae146103d857600080fd5b8063bd85b03914610331578063bf7bab7314610344578063e985e9c51461035757600080fd5b8063a47fe40f116100bd578063a47fe40f146102f8578063a91a988a1461030b578063b164884b1461031e57600080fd5b8063869f7594146102bf578063983da156146102d2578063a22cb465146102e557600080fd5b80634e1273f4116101455780636708a9901161011f5780636708a990146102865780636b20c4541461029957806377954ac2146102ac57600080fd5b80634e1273f4146102235780634f558e791461024357806352d0a6bb1461026657600080fd5b80632eb2c2d6116101765780632eb2c2d6146101ea5780633f3b797e146101fd57806348f2f5361461021057600080fd5b8062fdd58e1461019c5780630a13c503146101c25780630ad2bbac146101d7575b600080fd5b6101af6101aa366004612665565b6103eb565b6040519081526020015b60405180910390f35b6101d56101d03660046126db565b6103fe565b005b6101d56101e536600461279f565b610438565b6101d56101f83660046128f8565b61046c565b6101d561020b366004612a69565b610555565b6101d561021e366004612af1565b61064d565b610236610231366004612b24565b61067d565b6040516101b99190612bc3565b610256610251366004612bd6565b6108a4565b60405190151581526020016101b9565b610279610274366004612bef565b6108db565b6040516101b99190612c31565b6101d5610294366004612af1565b6109ba565b6101d56102a736600461279f565b6109e5565b6102366102ba366004612bef565b610ae3565b6101af6102cd366004612bd6565b610bb3565b6101d56102e0366004612af1565b610be6565b6101d56102f3366004612c88565b610c11565b610236610306366004612bef565b610d31565b610236610319366004612cbf565b610e01565b6101d561032c366004612d54565b610ee8565b6101af61033f366004612bd6565b610f15565b6101af610352366004612665565b610f48565b610256610365366004612dab565b6001600160a01b0391821660009081527ff9ecf3cb86ac553c70621e3e662b4036163ca34fffb329385fafa0e130cfc1a86020908152604080832093909416825291909152205460ff1690565b6101d56103c0366004612dde565b610f90565b6101d56103d3366004612af1565b611076565b6101d56103e6366004612a69565b611174565b60006103f78383611266565b9392505050565b30331461041e5760405163fd570b5160e01b815260040160405180910390fd5b61042e888888888888888861132b565b5050505050505050565b3033146104585760405163fd570b5160e01b815260040160405180910390fd5b6104658585858585611666565b5050505050565b6000610476611956565b9050806001600160a01b0316866001600160a01b031614806104dc57506001600160a01b0380871660009081527ff9ecf3cb86ac553c70621e3e662b4036163ca34fffb329385fafa0e130cfc1a8602090815260408083209385168352929052205460ff165b61053f5760405162461bcd60e51b815260206004820152602960248201527f455243313135353a2063616c6c6572206973206e6f74206f776e6572206e6f7260448201526808185c1c1c9bdd995960ba1b60648201526084015b60405180910390fd5b61054d818787878787611965565b505050505050565b3033146105755760405163fd570b5160e01b815260040160405180910390fd5b81518351148015610587575080518351145b6105d35760405162461bcd60e51b815260206004820152601460248201527f494e56414c49445f41525241595f4c454e4754480000000000000000000000006044820152606401610536565b60005b8351811015610647576106358482815181106105f4576105f4612e56565b602002602001015184838151811061060e5761060e612e56565b602002602001015184848151811061062857610628612e56565b6020026020010151611981565b8061063f81612e82565b9150506105d6565b50505050565b30331461066d5760405163fd570b5160e01b815260040160405180910390fd5b610678838383611a3e565b505050565b606081518351146106f65760405162461bcd60e51b815260206004820152602960248201527f455243313135353a206163636f756e747320616e6420696473206c656e67746860448201527f206d69736d6174636800000000000000000000000000000000000000000000006064820152608401610536565b82517ff9ecf3cb86ac553c70621e3e662b4036163ca34fffb329385fafa0e130cfc1a79060009067ffffffffffffffff81111561073557610735612820565b60405190808252806020026020018201604052801561075e578160200160208202803683370190505b50905060005b855181101561089b5760006001600160a01b031686828151811061078a5761078a612e56565b60200260200101516001600160a01b03160361080e5760405162461bcd60e51b815260206004820152603160248201527f455243313135353a2062617463682062616c616e636520717565727920666f7260448201527f20746865207a65726f20616464726573730000000000000000000000000000006064820152608401610536565b82600086838151811061082357610823612e56565b60200260200101518152602001908152602001600020600087838151811061084d5761084d612e56565b60200260200101516001600160a01b03166001600160a01b031681526020019081526020016000205482828151811061088857610888612e56565b6020908102919091010152600101610764565b50949350505050565b60008181527f7056dcda885936c7a9d7c6385902b4ab5fb09024caea98652b7189a5f7a28ea5602052604081205415155b92915050565b606060008267ffffffffffffffff8111156108f8576108f8612820565b604051908082528060200260200182016040528015610921578160200160208202803683370190505b50905060005b838110156109b25761097e85858381811061094457610944612e56565b9050602002013560009081527f7056dcda885936c7a9d7c6385902b4ab5fb09024caea98652b7189a5f7a28ea56020526040902054151590565b82828151811061099057610990612e56565b91151560209283029190910190910152806109aa81612e82565b915050610927565b509392505050565b3033146109da5760405163fd570b5160e01b815260040160405180910390fd5b610678838383611981565b6109ed611956565b6001600160a01b0316856001600160a01b03161480610a8557503063e985e9c586610a16611956565b6040516001600160e01b031960e085901b1681526001600160a01b03928316600482015291166024820152604401602060405180830381865afa158015610a61573d6000803e3d6000fd5b505050506040513d601f19601f82011682018060405250810190610a859190612e9b565b6104585760405162461bcd60e51b815260206004820152602960248201527f455243313135353a2063616c6c6572206973206e6f74206f776e6572206e6f7260448201526808185c1c1c9bdd995960ba1b6064820152608401610536565b606060008267ffffffffffffffff811115610b0057610b00612820565b604051908082528060200260200182016040528015610b29578160200160208202803683370190505b50905060005b838110156109b257610b84858583818110610b4c57610b4c612e56565b9050602002013560009081527f7056dcda885936c7a9d7c6385902b4ab5fb09024caea98652b7189a5f7a28ea5602052604090205490565b828281518110610b9657610b96612e56565b602090810291909101015280610bab81612e82565b915050610b2f565b60008181527f7056dcda885936c7a9d7c6385902b4ab5fb09024caea98652b7189a5f7a28ea660205260408120546108d5565b303314610c065760405163fd570b5160e01b815260040160405180910390fd5b610678838383611bdc565b6000610c1b611956565b9050826001600160a01b0316816001600160a01b031603610ca45760405162461bcd60e51b815260206004820152602960248201527f455243313135353a2073657474696e6720617070726f76616c2073746174757360448201527f20666f722073656c6600000000000000000000000000000000000000000000006064820152608401610536565b6001600160a01b0381811660008181527ff9ecf3cb86ac553c70621e3e662b4036163ca34fffb329385fafa0e130cfc1a86020908152604080832094881680845294825291829020805460ff1916871515908117909155825190815291517f17307eab39ab6107e8899845ad3d59bd9653f200f220920489ca2b5937696c319281900390910190a3505050565b606060008267ffffffffffffffff811115610d4e57610d4e612820565b604051908082528060200260200182016040528015610d77578160200160208202803683370190505b50905060005b838110156109b257610dd2858583818110610d9a57610d9a612e56565b9050602002013560009081527f7056dcda885936c7a9d7c6385902b4ab5fb09024caea98652b7189a5f7a28ea6602052604090205490565b828281518110610de457610de4612e56565b602090810291909101015280610df981612e82565b915050610d7d565b606060008267ffffffffffffffff811115610e1e57610e1e612820565b604051908082528060200260200182016040528015610e47578160200160208202803683370190505b50905060005b8381101561089b57610eb986868684818110610e6b57610e6b612e56565b905060200201356001600160a01b039190911660009081527f349768cb3869818ef8452552d8520ac7355b35c10a0ff9320e2975b28752782060209081526040808320938352929052205490565b828281518110610ecb57610ecb612e56565b602090810291909101015280610ee081612e82565b915050610e4d565b303314610f085760405163fd570b5160e01b815260040160405180910390fd5b6104658585858585611ca3565b60008181527f7056dcda885936c7a9d7c6385902b4ab5fb09024caea98652b7189a5f7a28ea560205260408120546108d5565b6001600160a01b03821660009081527f349768cb3869818ef8452552d8520ac7355b35c10a0ff9320e2975b287527820602090815260408083208484529091528120546103f7565b6000610f9a611956565b9050806001600160a01b0316876001600160a01b0316148061100057506001600160a01b0380881660009081527ff9ecf3cb86ac553c70621e3e662b4036163ca34fffb329385fafa0e130cfc1a8602090815260408083209385168352929052205460ff165b61105e5760405162461bcd60e51b815260206004820152602960248201527f455243313135353a2063616c6c6572206973206e6f74206f776e6572206e6f7260448201526808185c1c1c9bdd995960ba1b6064820152608401610536565b61106d81888888888888611e2a565b50505050505050565b61107e611956565b6001600160a01b0316836001600160a01b0316148061111657503063e985e9c5846110a7611956565b6040516001600160e01b031960e085901b1681526001600160a01b03928316600482015291166024820152604401602060405180830381865afa1580156110f2573d6000803e3d6000fd5b505050506040513d601f19601f820116820180604052508101906111169190612e9b565b61066d5760405162461bcd60e51b815260206004820152602960248201527f455243313135353a2063616c6c6572206973206e6f74206f776e6572206e6f7260448201526808185c1c1c9bdd995960ba1b6064820152608401610536565b3033146111945760405163fd570b5160e01b815260040160405180910390fd5b815183511480156111a6575080518351145b6111f25760405162461bcd60e51b815260206004820152601460248201527f494e56414c49445f41525241595f4c454e4754480000000000000000000000006044820152606401610536565b60005b83518110156106475761125484828151811061121357611213612e56565b602002602001015184838151811061122d5761122d612e56565b602002602001015184848151811061124757611247612e56565b6020026020010151611bdc565b8061125e81612e82565b9150506111f5565b60006001600160a01b0383166112e45760405162461bcd60e51b815260206004820152602b60248201527f455243313135353a2062616c616e636520717565727920666f7220746865207a60448201527f65726f20616464726573730000000000000000000000000000000000000000006064820152608401610536565b7ff9ecf3cb86ac553c70621e3e662b4036163ca34fffb329385fafa0e130cfc1a76000928352602090815260408084206001600160a01b0395909516845293905250205490565b84831461138b5760405162461bcd60e51b815260206004820152602860248201527f455243313135353a2069647320616e6420616d6f756e7473206c656e677468206044820152670dad2e6dac2e8c6d60c31b6064820152608401610536565b8683146114005760405162461bcd60e51b815260206004820152602d60248201527f455243313135353a206163636f756e747320616e6420616d6f756e7473206c6560448201527f6e677468206d69736d61746368000000000000000000000000000000000000006064820152608401610536565b600061140a611956565b90507ff9ecf3cb86ac553c70621e3e662b4036163ca34fffb329385fafa0e130cfc1a760005b87811015611659576114f98360008d8d8581811061145057611450612e56565b90506020020160208101906114659190612eb8565b6114868d8d8781811061147a5761147a612e56565b90506020020135611e7d565b61149b8c8c8881811061147a5761147a612e56565b8a8a888181106114ad576114ad612e56565b90506020028101906114bf9190612ed3565b8080601f016020809104026020016040519081016040528093929190818152602001838380828437600092019190915250611ec892505050565b86868281811061150b5761150b612e56565b905060200201358260008b8b8581811061152757611527612e56565b90506020020135815260200190815260200160002060008d8d8581811061155057611550612e56565b90506020020160208101906115659190612eb8565b6001600160a01b03166001600160a01b0316815260200190815260200160002060008282546115949190612f1a565b909155508b90508a828181106115ac576115ac612e56565b90506020020160208101906115c19190612eb8565b6001600160a01b031660006001600160a01b0316846001600160a01b03167fc3d58168c5ae7397731d063d5bbf3d657854427343f4c083240f7aacaa2d0f628c8c8681811061161257611612612e56565b905060200201358b8b8781811061162b5761162b612e56565b90506020020135604051611649929190918252602082015260400190565b60405180910390a4600101611430565b5050505050505050505050565b6001600160a01b0385166116c85760405162461bcd60e51b815260206004820152602360248201527f455243313135353a206275726e2066726f6d20746865207a65726f206164647260448201526265737360e81b6064820152608401610536565b8281146117285760405162461bcd60e51b815260206004820152602860248201527f455243313135353a2069647320616e6420616d6f756e7473206c656e677468206044820152670dad2e6dac2e8c6d60c31b6064820152608401610536565b6000611732611956565b90506117b38187600088888080602002602001604051908101604052809392919081815260200183836020028082843760009201919091525050604080516020808c0282810182019093528b82529093508b92508a918291850190849080828437600092018290525060408051602081019091529081529250611ec8915050565b7ff9ecf3cb86ac553c70621e3e662b4036163ca34fffb329385fafa0e130cfc1a760005b858110156118f05760008787838181106117f3576117f3612e56565b90506020020135905085858381811061180e5761180e612e56565b9050602002013583600083815260200190815260200160002060008b6001600160a01b03166001600160a01b031681526020019081526020016000205410156118a55760405162461bcd60e51b8152602060048201526024808201527f455243313135353a206275726e20616d6f756e7420657863656564732062616c604482015263616e636560e01b6064820152608401610536565b8585838181106118b7576118b7612e56565b6000938452602086815260408086206001600160a01b038f168752825290942080549490910292909201359092039055506001016117d7565b5060006001600160a01b0316876001600160a01b0316836001600160a01b03167f4a39dc06d4c0dbc64b70af90fd698a233a518aa5d07e595d983b8c0526c8f7fb898989896040516119459493929190612f81565b60405180910390a450505050505050565b6000611960611ecd565b905090565b611973868686868686611ed7565b61054d868686868686612153565b6001600160a01b03831660009081527f349768cb3869818ef8452552d8520ac7355b35c10a0ff9320e2975b287527820602090815260408083208584529182905290912054821115611a155760405162461bcd60e51b815260206004820152601160248201527f4e4f545f454e4f5547485f4c4f434b45440000000000000000000000000000006044820152606401610536565b60008381526020829052604081208054849290611a33908490612fb3565b909155505050505050565b6001600160a01b038316611aa05760405162461bcd60e51b815260206004820152602360248201527f455243313135353a206275726e2066726f6d20746865207a65726f206164647260448201526265737360e81b6064820152608401610536565b6000611aaa611956565b9050611ada81856000611abc87611e7d565b611ac587611e7d565b60405180602001604052806000815250611ec8565b60008381527ff9ecf3cb86ac553c70621e3e662b4036163ca34fffb329385fafa0e130cfc1a7602090815260408083206001600160a01b03881684529182905290912054831115611b795760405162461bcd60e51b8152602060048201526024808201527f455243313135353a206275726e20616d6f756e7420657863656564732062616c604482015263616e636560e01b6064820152608401610536565b6001600160a01b0385811660008181526020848152604080832080548990039055805189815291820188905291938616917fc3d58168c5ae7397731d063d5bbf3d657854427343f4c083240f7aacaa2d0f62910160405180910390a45050505050565b6001600160a01b03831660009081527f349768cb3869818ef8452552d8520ac7355b35c10a0ff9320e2975b2875278206020908152604080832085845291829052909120548290611c2d8686611266565b611c379190612fb3565b1015611c855760405162461bcd60e51b815260206004820152601260248201527f4e4f545f454e4f5547485f42414c414e434500000000000000000000000000006044820152606401610536565b60008381526020829052604081208054849290611a33908490612f1a565b6000611cad611956565b90506001600160a01b038616611d2b5760405162461bcd60e51b815260206004820152602160248201527f455243313135353a206d696e7420746f20746865207a65726f2061646472657360448201527f73000000000000000000000000000000000000000000000000000000000000006064820152608401610536565b611d8081600088611d3b89611e7d565b611d4489611e7d565b88888080601f016020809104026020016040519081016040528093929190818152602001838380828437600092019190915250611ec892505050565b60008581527ff9ecf3cb86ac553c70621e3e662b4036163ca34fffb329385fafa0e130cfc1a7602090815260408083206001600160a01b038a16845290915281208054869290611dd1908490612f1a565b909155505060408051868152602081018690526001600160a01b0380891692600092918516917fc3d58168c5ae7397731d063d5bbf3d657854427343f4c083240f7aacaa2d0f62910160405180910390a4505050505050565b611e39878787878787876122f8565b61106d878787878787878080601f01602080910402602001604051908101604052809392919081815260200183838082843760009201919091525061250492505050565b60408051600180825281830190925260609160009190602080830190803683370190505090508281600081518110611eb757611eb7612e56565b602090810291909101015292915050565b61054d565b6000611960612600565b6001600160a01b038416611f3b5760405162461bcd60e51b815260206004820152602560248201527f455243313135353a207472616e7366657220746f20746865207a65726f206164604482015264647265737360d81b6064820152608401610536565b8151835114611f9d5760405162461bcd60e51b815260206004820152602860248201527f455243313135353a2069647320616e6420616d6f756e7473206c656e677468206044820152670dad2e6dac2e8c6d60c31b6064820152608401610536565b611fab868686868686611ec8565b7ff9ecf3cb86ac553c70621e3e662b4036163ca34fffb329385fafa0e130cfc1a760005b8451811015612103576000858281518110611fec57611fec612e56565b60200260200101519050600085838151811061200a5761200a612e56565b602090810291909101810151600084815286835260408082206001600160a01b038e1683529093529190912054909150818110156120b05760405162461bcd60e51b815260206004820152602b60248201527f455243313135353a20696e73756666696369656e742062616c616e636573206660448201527f6f72207472616e736665720000000000000000000000000000000000000000006064820152608401610536565b6000838152602086815260408083206001600160a01b038e811685529252808320938590039093558a1681529081208054600195909501948392906120f6908490612f1a565b90915550611fcf92505050565b50846001600160a01b0316866001600160a01b0316886001600160a01b03167f4a39dc06d4c0dbc64b70af90fd698a233a518aa5d07e595d983b8c0526c8f7fb8787604051611945929190612fca565b6001600160a01b0384163b1561054d5760405163bc197c8160e01b81526001600160a01b0385169063bc197c81906121979089908990889088908890600401613045565b6020604051808303816000875af19250505080156121d2575060408051601f3d908101601f191682019092526121cf918101906130a3565b60015b612287576121de6130cd565b806308c379a00361221757506121f26130e8565b806121fd5750612219565b8060405162461bcd60e51b81526004016105369190613172565b505b60405162461bcd60e51b815260206004820152603460248201527f455243313135353a207472616e7366657220746f206e6f6e204552433131353560448201527f526563656976657220696d706c656d656e7465720000000000000000000000006064820152608401610536565b6001600160e01b0319811663bc197c8160e01b1461106d5760405162461bcd60e51b815260206004820152602860248201527f455243313135353a204552433131353552656365697665722072656a656374656044820152676420746f6b656e7360c01b6064820152608401610536565b6001600160a01b03851661235c5760405162461bcd60e51b815260206004820152602560248201527f455243313135353a207472616e7366657220746f20746865207a65726f206164604482015264647265737360d81b6064820152608401610536565b6123b087878761236b88611e7d565b61237488611e7d565b87878080601f016020809104026020016040519081016040528093929190818152602001838380828437600092019190915250611ec892505050565b60008481527ff9ecf3cb86ac553c70621e3e662b4036163ca34fffb329385fafa0e130cfc1a7602081815260408084206001600160a01b038b16855290915290912054848110156124695760405162461bcd60e51b815260206004820152602b60248201527f455243313135353a20696e73756666696369656e742062616c616e636573206660448201527f6f72207472616e736665720000000000000000000000000000000000000000006064820152608401610536565b6000868152602083815260408083206001600160a01b038c811685529252808320938890039093558816815290812080548692906124a8908490612f1a565b909155505060408051868152602081018690526001600160a01b03808916928a821692918c16917fc3d58168c5ae7397731d063d5bbf3d657854427343f4c083240f7aacaa2d0f62910160405180910390a45050505050505050565b6001600160a01b0384163b1561054d5760405163f23a6e6160e01b81526001600160a01b0385169063f23a6e61906125489089908990889088908890600401613185565b6020604051808303816000875af1925050508015612583575060408051601f3d908101601f19168201909252612580918101906130a3565b60015b61258f576121de6130cd565b6001600160e01b0319811663f23a6e6160e01b1461106d5760405162461bcd60e51b815260206004820152602860248201527f455243313135353a204552433131353552656365697665722072656a656374656044820152676420746f6b656e7360c01b6064820152608401610536565b7fdb1d5e345c4903e9a32b6674ecc8b1deaddbbb2551474fb34c9d34becbe7f420546000906001600160a01b03163303612641575060131936013560601c90565b503390565b90565b80356001600160a01b038116811461266057600080fd5b919050565b6000806040838503121561267857600080fd5b61268183612649565b946020939093013593505050565b60008083601f8401126126a157600080fd5b50813567ffffffffffffffff8111156126b957600080fd5b6020830191508360208260051b85010111156126d457600080fd5b9250929050565b6000806000806000806000806080898b0312156126f757600080fd5b883567ffffffffffffffff8082111561270f57600080fd5b61271b8c838d0161268f565b909a50985060208b013591508082111561273457600080fd5b6127408c838d0161268f565b909850965060408b013591508082111561275957600080fd5b6127658c838d0161268f565b909650945060608b013591508082111561277e57600080fd5b5061278b8b828c0161268f565b999c989b5096995094979396929594505050565b6000806000806000606086880312156127b757600080fd5b6127c086612649565b9450602086013567ffffffffffffffff808211156127dd57600080fd5b6127e989838a0161268f565b9096509450604088013591508082111561280257600080fd5b5061280f8882890161268f565b969995985093965092949392505050565b634e487b7160e01b600052604160045260246000fd5b601f8201601f1916810167ffffffffffffffff8111828210171561285c5761285c612820565b6040525050565b600067ffffffffffffffff82111561287d5761287d612820565b5060051b60200190565b600082601f83011261289857600080fd5b813560206128a582612863565b6040516128b28282612836565b83815260059390931b85018201928281019150868411156128d257600080fd5b8286015b848110156128ed57803583529183019183016128d6565b509695505050505050565b600080600080600060a0868803121561291057600080fd5b61291986612649565b94506020612928818801612649565b9450604087013567ffffffffffffffff8082111561294557600080fd5b6129518a838b01612887565b9550606089013591508082111561296757600080fd5b6129738a838b01612887565b9450608089013591508082111561298957600080fd5b818901915089601f83011261299d57600080fd5b8135818111156129af576129af612820565b60405191506129c7601f8201601f1916850183612836565b8082528a848285010111156129db57600080fd5b80848401858401376000848284010152508093505050509295509295909350565b600082601f830112612a0d57600080fd5b81356020612a1a82612863565b604051612a278282612836565b83815260059390931b8501820192828101915086841115612a4757600080fd5b8286015b848110156128ed57612a5c81612649565b8352918301918301612a4b565b600080600060608486031215612a7e57600080fd5b833567ffffffffffffffff80821115612a9657600080fd5b612aa2878388016129fc565b94506020860135915080821115612ab857600080fd5b612ac487838801612887565b93506040860135915080821115612ada57600080fd5b50612ae786828701612887565b9150509250925092565b600080600060608486031215612b0657600080fd5b612b0f84612649565b95602085013595506040909401359392505050565b60008060408385031215612b3757600080fd5b823567ffffffffffffffff80821115612b4f57600080fd5b612b5b868387016129fc565b93506020850135915080821115612b7157600080fd5b50612b7e85828601612887565b9150509250929050565b600081518084526020808501945080840160005b83811015612bb857815187529582019590820190600101612b9c565b509495945050505050565b6020815260006103f76020830184612b88565b600060208284031215612be857600080fd5b5035919050565b60008060208385031215612c0257600080fd5b823567ffffffffffffffff811115612c1957600080fd5b612c258582860161268f565b90969095509350505050565b6020808252825182820181905260009190848201906040850190845b81811015612c6b578351151583529284019291840191600101612c4d565b50909695505050505050565b8015158114612c8557600080fd5b50565b60008060408385031215612c9b57600080fd5b612ca483612649565b91506020830135612cb481612c77565b809150509250929050565b600080600060408486031215612cd457600080fd5b612cdd84612649565b9250602084013567ffffffffffffffff811115612cf957600080fd5b612d058682870161268f565b9497909650939450505050565b60008083601f840112612d2457600080fd5b50813567ffffffffffffffff811115612d3c57600080fd5b6020830191508360208285010111156126d457600080fd5b600080600080600060808688031215612d6c57600080fd5b612d7586612649565b94506020860135935060408601359250606086013567ffffffffffffffff811115612d9f57600080fd5b61280f88828901612d12565b60008060408385031215612dbe57600080fd5b612dc783612649565b9150612dd560208401612649565b90509250929050565b60008060008060008060a08789031215612df757600080fd5b612e0087612649565b9550612e0e60208801612649565b94506040870135935060608701359250608087013567ffffffffffffffff811115612e3857600080fd5b612e4489828a01612d12565b979a9699509497509295939492505050565b634e487b7160e01b600052603260045260246000fd5b634e487b7160e01b600052601160045260246000fd5b600060018201612e9457612e94612e6c565b5060010190565b600060208284031215612ead57600080fd5b81516103f781612c77565b600060208284031215612eca57600080fd5b6103f782612649565b6000808335601e19843603018112612eea57600080fd5b83018035915067ffffffffffffffff821115612f0557600080fd5b6020019150368190038213156126d457600080fd5b60008219821115612f2d57612f2d612e6c565b500190565b81835260007f07ffffffffffffffffffffffffffffffffffffffffffffffffffffffffffffff831115612f6457600080fd5b8260051b8083602087013760009401602001938452509192915050565b604081526000612f95604083018688612f32565b8281036020840152612fa8818587612f32565b979650505050505050565b600082821015612fc557612fc5612e6c565b500390565b604081526000612fdd6040830185612b88565b8281036020840152612fef8185612b88565b95945050505050565b6000815180845260005b8181101561301e57602081850181015186830182015201613002565b81811115613030576000602083870101525b50601f01601f19169290920160200192915050565b60006001600160a01b03808816835280871660208401525060a0604083015261307160a0830186612b88565b82810360608401526130838186612b88565b905082810360808401526130978185612ff8565b98975050505050505050565b6000602082840312156130b557600080fd5b81516001600160e01b0319811681146103f757600080fd5b600060033d11156126465760046000803e5060005160e01c90565b600060443d10156130f65790565b6040516003193d81016004833e81513d67ffffffffffffffff816024840111818411171561312657505050505090565b828501915081518181111561313e5750505050505090565b843d87010160208285010111156131585750505050505090565b61316760208286010187612836565b509095945050505050565b6020815260006103f76020830184612ff8565b60006001600160a01b03808816835280871660208401525084604083015283606083015260a06080830152612fa860a0830184612ff856fea2646970667358221220bf62c36a163b132bc83d12eae3814f27db299c6741250fdd8f645e210361afc264736f6c634300080f0033",
  "devdoc": {
    "custom:category": "NFTs",
    "custom:provides-interfaces": "IERC1155 IERC1155Burnable IERC1155Lockable IERC1155Mintable IERC1155Supply IERC1155SupplyExtra",
    "custom:type": "eip-2535-facet",
    "kind": "dev",
    "methods": {
      "balanceOf(address,uint256)": {
        "params": {
          "account": "address to query",
          "id": "token to query"
        },
        "returns": {
          "_0": "token balance"
        }
      },
      "balanceOfBatch(address[],uint256[])": {
        "params": {
          "accounts": "addresss to query",
          "ids": "tokens to query"
        },
        "returns": {
          "_0": "token balances"
        }
      },
      "exists(uint256)": {
        "details": "Indicates whether any token exist with a given id, or not."
      },
      "existsBatch(uint256[])": {
        "details": "Indicates whether tokens exist given a list of IDs."
      },
      "isApprovedForAll(address,address)": {
        "params": {
          "account": "address to query for approval granted",
          "operator": "address to query for approval received"
        },
        "returns": {
          "_0": "whether operator is approved to spend tokens held by account"
        }
      },
      "lockByFacet(address,uint256,uint256)": {
        "details": "Locks `amount` of tokens of `account`, of token type `id`. Requirements: - the caller must be diamond itself (other facets)."
      },
      "maxSupply(uint256)": {
        "details": "Maximum amount of tokens possible to exist for a given id."
      },
      "maxSupplyBatch(uint256[])": {
        "details": "Maximum amount of tokens possible to exist for a list of IDs."
      },
      "mintByFacet(address,uint256,uint256,bytes)": {
        "details": "Creates `amount` new tokens for `to`, of token type `id`. See {ERC1155-_mint}. Requirements: - the caller must be diamond itself (other facets)."
      },
      "safeBatchTransferFrom(address,address,uint256[],uint256[],bytes)": {
        "params": {
          "amounts": "list of quantities of tokens to transfer",
          "data": "data payload",
          "from": "sender of tokens",
          "ids": "list of token IDs",
          "to": "receiver of tokens"
        }
      },
      "safeTransferFrom(address,address,uint256,uint256,bytes)": {
        "params": {
          "amount": "quantity of tokens to transfer",
          "data": "data payload",
          "from": "sender of tokens",
          "id": "token ID",
          "to": "receiver of tokens"
        }
      },
      "setApprovalForAll(address,bool)": {
        "params": {
          "operator": "address whose approval status to update",
          "status": "whether operator should be considered approved"
        }
      },
      "totalSupply(uint256)": {
        "details": "Total amount of tokens in with a given id."
      },
      "totalSupplyBatch(uint256[])": {
        "details": "Total amount of tokens for a list of IDs."
      },
      "unlockByFacet(address,uint256,uint256)": {
        "details": "Un-locks `amount` of tokens of `account`, of token type `id`. Requirements: - the caller must be diamond itself (other facets)."
      }
    },
    "title": "ERC1155 - With ERC2771 Context",
    "version": 1
  },
  "userdoc": {
    "errors": {
      "ErrSenderIsNotSelf()": [
        {
          "notice": "The caller must be the current contract itself."
        }
      ]
    },
    "kind": "user",
    "methods": {
      "balanceOf(address,uint256)": {
        "notice": "query the balance of given token held by given address"
      },
      "balanceOfBatch(address[],uint256[])": {
        "notice": "query the balances of given tokens held by given addresses"
      },
      "isApprovedForAll(address,address)": {
        "notice": "query approval status of given operator with respect to given address"
      },
      "safeBatchTransferFrom(address,address,uint256[],uint256[],bytes)": {
        "notice": "transfer batch of tokens between given addresses, checking for ERC1155Receiver implementation if applicable"
      },
      "safeTransferFrom(address,address,uint256,uint256,bytes)": {
        "notice": "transfer tokens between given addresses, checking for ERC1155Receiver implementation if applicable"
      },
      "setApprovalForAll(address,bool)": {
        "notice": "grant approval to or revoke approval from given operator to spend held tokens"
      }
    },
    "notice": "Standard EIP-1155 with ability to accept meta transactions (mainly transfer or burn methods).",
    "version": 1
  },
  "storageLayout": {
    "storage": [],
    "types": null
  }
}