{
  "address": "0x55D0128aFF929229c309198811c93F94183D7315",
  "abi": [
    {
      "inputs": [],
      "name": "ErrSenderIsNotSelf",
      "type": "error"
    },
    {
      "inputs": [
        {
          "internalType": "address",
          "name": "operator",
          "type": "address"
        }
      ],
      "name": "OperatorNotAllowed",
      "type": "error"
    },
    {
      "anonymous": false,
      "inputs": [
        {
          "indexed": true,
          "internalType": "address",
          "name": "account",
          "type": "address"
        },
        {
          "indexed": true,
          "internalType": "address",
          "name": "operator",
          "type": "address"
        },
        {
          "indexed": false,
          "internalType": "bool",
          "name": "approved",
          "type": "bool"
        }
      ],
      "name": "ApprovalForAll",
      "type": "event"
    },
    {
      "anonymous": false,
      "inputs": [
        {
          "indexed": true,
          "internalType": "address",
          "name": "previousOwner",
          "type": "address"
        },
        {
          "indexed": true,
          "internalType": "address",
          "name": "newOwner",
          "type": "address"
        }
      ],
      "name": "OwnershipTransferred",
      "type": "event"
    },
    {
      "anonymous": false,
      "inputs": [
        {
          "indexed": true,
          "internalType": "address",
          "name": "operator",
          "type": "address"
        },
        {
          "indexed": true,
          "internalType": "address",
          "name": "from",
          "type": "address"
        },
        {
          "indexed": true,
          "internalType": "address",
          "name": "to",
          "type": "address"
        },
        {
          "indexed": false,
          "internalType": "uint256[]",
          "name": "ids",
          "type": "uint256[]"
        },
        {
          "indexed": false,
          "internalType": "uint256[]",
          "name": "values",
          "type": "uint256[]"
        }
      ],
      "name": "TransferBatch",
      "type": "event"
    },
    {
      "anonymous": false,
      "inputs": [
        {
          "indexed": true,
          "internalType": "address",
          "name": "operator",
          "type": "address"
        },
        {
          "indexed": true,
          "internalType": "address",
          "name": "from",
          "type": "address"
        },
        {
          "indexed": true,
          "internalType": "address",
          "name": "to",
          "type": "address"
        },
        {
          "indexed": false,
          "internalType": "uint256",
          "name": "id",
          "type": "uint256"
        },
        {
          "indexed": false,
          "internalType": "uint256",
          "name": "value",
          "type": "uint256"
        }
      ],
      "name": "TransferSingle",
      "type": "event"
    },
    {
      "inputs": [],
      "name": "OPERATOR_FILTER_REGISTRY",
      "outputs": [
        {
          "internalType": "contract IOperatorFilterRegistry",
          "name": "",
          "type": "address"
        }
      ],
      "stateMutability": "view",
      "type": "function"
    },
    {
      "inputs": [
        {
          "internalType": "address",
          "name": "account",
          "type": "address"
        },
        {
          "internalType": "uint256",
          "name": "id",
          "type": "uint256"
        }
      ],
      "name": "balanceOf",
      "outputs": [
        {
          "internalType": "uint256",
          "name": "",
          "type": "uint256"
        }
      ],
      "stateMutability": "view",
      "type": "function"
    },
    {
      "inputs": [
        {
          "internalType": "address[]",
          "name": "accounts",
          "type": "address[]"
        },
        {
          "internalType": "uint256[]",
          "name": "ids",
          "type": "uint256[]"
        }
      ],
      "name": "balanceOfBatch",
      "outputs": [
        {
          "internalType": "uint256[]",
          "name": "",
          "type": "uint256[]"
        }
      ],
      "stateMutability": "view",
      "type": "function"
    },
    {
      "inputs": [
        {
          "internalType": "address",
          "name": "account",
          "type": "address"
        },
        {
          "internalType": "uint256",
          "name": "id",
          "type": "uint256"
        },
        {
          "internalType": "uint256",
          "name": "value",
          "type": "uint256"
        }
      ],
      "name": "burn",
      "outputs": [],
      "stateMutability": "nonpayable",
      "type": "function"
    },
    {
      "inputs": [
        {
          "internalType": "address",
          "name": "account",
          "type": "address"
        },
        {
          "internalType": "uint256[]",
          "name": "ids",
          "type": "uint256[]"
        },
        {
          "internalType": "uint256[]",
          "name": "values",
          "type": "uint256[]"
        }
      ],
      "name": "burnBatch",
      "outputs": [],
      "stateMutability": "nonpayable",
      "type": "function"
    },
    {
      "inputs": [
        {
          "internalType": "address",
          "name": "account",
          "type": "address"
        },
        {
          "internalType": "uint256[]",
          "name": "ids",
          "type": "uint256[]"
        },
        {
          "internalType": "uint256[]",
          "name": "values",
          "type": "uint256[]"
        }
      ],
      "name": "burnBatchByFacet",
      "outputs": [],
      "stateMutability": "nonpayable",
      "type": "function"
    },
    {
      "inputs": [
        {
          "internalType": "address",
          "name": "account",
          "type": "address"
        },
        {
          "internalType": "uint256",
          "name": "id",
          "type": "uint256"
        },
        {
          "internalType": "uint256",
          "name": "amount",
          "type": "uint256"
        }
      ],
      "name": "burnByFacet",
      "outputs": [],
      "stateMutability": "nonpayable",
      "type": "function"
    },
    {
      "inputs": [
        {
          "internalType": "uint256",
          "name": "id",
          "type": "uint256"
        }
      ],
      "name": "exists",
      "outputs": [
        {
          "internalType": "bool",
          "name": "",
          "type": "bool"
        }
      ],
      "stateMutability": "view",
      "type": "function"
    },
    {
      "inputs": [
        {
          "internalType": "address",
          "name": "account",
          "type": "address"
        },
        {
          "internalType": "address",
          "name": "operator",
          "type": "address"
        }
      ],
      "name": "isApprovedForAll",
      "outputs": [
        {
          "internalType": "bool",
          "name": "",
          "type": "bool"
        }
      ],
      "stateMutability": "view",
      "type": "function"
    },
    {
      "inputs": [
        {
          "internalType": "address",
          "name": "account",
          "type": "address"
        },
        {
          "internalType": "uint256",
          "name": "id",
          "type": "uint256"
        },
        {
          "internalType": "uint256",
          "name": "amount",
          "type": "uint256"
        }
      ],
      "name": "lockByFacet",
      "outputs": [],
      "stateMutability": "nonpayable",
      "type": "function"
    },
    {
      "inputs": [
        {
          "internalType": "address[]",
          "name": "accounts",
          "type": "address[]"
        },
        {
          "internalType": "uint256[]",
          "name": "ids",
          "type": "uint256[]"
        },
        {
          "internalType": "uint256[]",
          "name": "amounts",
          "type": "uint256[]"
        }
      ],
      "name": "lockByFacet",
      "outputs": [],
      "stateMutability": "nonpayable",
      "type": "function"
    },
    {
      "inputs": [
        {
          "internalType": "address",
          "name": "account",
          "type": "address"
        },
        {
          "internalType": "uint256[]",
          "name": "ticketTokenIds",
          "type": "uint256[]"
        }
      ],
      "name": "locked",
      "outputs": [
        {
          "internalType": "uint256[]",
          "name": "",
          "type": "uint256[]"
        }
      ],
      "stateMutability": "view",
      "type": "function"
    },
    {
      "inputs": [
        {
          "internalType": "address",
          "name": "account",
          "type": "address"
        },
        {
          "internalType": "uint256",
          "name": "tokenId",
          "type": "uint256"
        }
      ],
      "name": "locked",
      "outputs": [
        {
          "internalType": "uint256",
          "name": "",
          "type": "uint256"
        }
      ],
      "stateMutability": "view",
      "type": "function"
    },
    {
      "inputs": [
        {
          "internalType": "uint256",
          "name": "id",
          "type": "uint256"
        }
      ],
      "name": "maxSupply",
      "outputs": [
        {
          "internalType": "uint256",
          "name": "",
          "type": "uint256"
        }
      ],
      "stateMutability": "view",
      "type": "function"
    },
    {
      "inputs": [
        {
          "internalType": "address[]",
          "name": "tos",
          "type": "address[]"
        },
        {
          "internalType": "uint256[]",
          "name": "ids",
          "type": "uint256[]"
        },
        {
          "internalType": "uint256[]",
          "name": "amounts",
          "type": "uint256[]"
        },
        {
          "internalType": "bytes[]",
          "name": "datas",
          "type": "bytes[]"
        }
      ],
      "name": "mintByFacet",
      "outputs": [],
      "stateMutability": "nonpayable",
      "type": "function"
    },
    {
      "inputs": [
        {
          "internalType": "address",
          "name": "to",
          "type": "address"
        },
        {
          "internalType": "uint256",
          "name": "id",
          "type": "uint256"
        },
        {
          "internalType": "uint256",
          "name": "amount",
          "type": "uint256"
        },
        {
          "internalType": "bytes",
          "name": "data",
          "type": "bytes"
        }
      ],
      "name": "mintByFacet",
      "outputs": [],
      "stateMutability": "nonpayable",
      "type": "function"
    },
    {
      "inputs": [],
      "name": "royaltiesEnforced",
      "outputs": [
        {
          "internalType": "bool",
          "name": "",
          "type": "bool"
        }
      ],
      "stateMutability": "view",
      "type": "function"
    },
    {
      "inputs": [
        {
          "internalType": "address",
          "name": "from",
          "type": "address"
        },
        {
          "internalType": "address",
          "name": "to",
          "type": "address"
        },
        {
          "internalType": "uint256[]",
          "name": "ids",
          "type": "uint256[]"
        },
        {
          "internalType": "uint256[]",
          "name": "amounts",
          "type": "uint256[]"
        },
        {
          "internalType": "bytes",
          "name": "data",
          "type": "bytes"
        }
      ],
      "name": "safeBatchTransferFrom",
      "outputs": [],
      "stateMutability": "nonpayable",
      "type": "function"
    },
    {
      "inputs": [
        {
          "internalType": "address",
          "name": "from",
          "type": "address"
        },
        {
          "internalType": "address",
          "name": "to",
          "type": "address"
        },
        {
          "internalType": "uint256",
          "name": "id",
          "type": "uint256"
        },
        {
          "internalType": "uint256",
          "name": "amount",
          "type": "uint256"
        },
        {
          "internalType": "bytes",
          "name": "data",
          "type": "bytes"
        }
      ],
      "name": "safeTransferFrom",
      "outputs": [],
      "stateMutability": "nonpayable",
      "type": "function"
    },
    {
      "inputs": [
        {
          "internalType": "address",
          "name": "operator",
          "type": "address"
        },
        {
          "internalType": "bool",
          "name": "status",
          "type": "bool"
        }
      ],
      "name": "setApprovalForAll",
      "outputs": [],
      "stateMutability": "nonpayable",
      "type": "function"
    },
    {
      "inputs": [
        {
          "internalType": "uint256",
          "name": "id",
          "type": "uint256"
        }
      ],
      "name": "totalSupply",
      "outputs": [
        {
          "internalType": "uint256",
          "name": "",
          "type": "uint256"
        }
      ],
      "stateMutability": "view",
      "type": "function"
    },
    {
      "inputs": [
        {
          "internalType": "address[]",
          "name": "accounts",
          "type": "address[]"
        },
        {
          "internalType": "uint256[]",
          "name": "ids",
          "type": "uint256[]"
        },
        {
          "internalType": "uint256[]",
          "name": "amounts",
          "type": "uint256[]"
        }
      ],
      "name": "unlockByFacet",
      "outputs": [],
      "stateMutability": "nonpayable",
      "type": "function"
    },
    {
      "inputs": [
        {
          "internalType": "address",
          "name": "account",
          "type": "address"
        },
        {
          "internalType": "uint256",
          "name": "id",
          "type": "uint256"
        },
        {
          "internalType": "uint256",
          "name": "amount",
          "type": "uint256"
        }
      ],
      "name": "unlockByFacet",
      "outputs": [],
      "stateMutability": "nonpayable",
      "type": "function"
    }
  ],
  "transactionHash": "0xd8667c05ea0b619f12a80caf6b0293dffd00d7359d5497c9dbed54bbf46d8fe1",
  "args": [],
  "numDeployments": 6,
  "solcInputHash": "c66422a00980c178379ef3c81269d6c7",
  "bytecode": "0x60806040523480156200001157600080fd5b50733cc6cdda760b79bafa08df41ecfa224f810dceb660016daaeb6d7670e522a718067333cd4e3b156200016e578015620000bc57604051633e9f1edf60e11b81523060048201526001600160a01b03831660248201526daaeb6d7670e522a718067333cd4e90637d3e3dbe906044015b600060405180830381600087803b1580156200009d57600080fd5b505af1158015620000b2573d6000803e3d6000fd5b505050506200016e565b6001600160a01b038216156200010d5760405163a0af290360e01b81523060048201526001600160a01b03831660248201526daaeb6d7670e522a718067333cd4e9063a0af29039060440162000082565b604051632210724360e11b81523060048201526daaeb6d7670e522a718067333cd4e90634420e48690602401600060405180830381600087803b1580156200015457600080fd5b505af115801562000169573d6000803e3d6000fd5b505050505b50506133bf80620001806000396000f3fe608060405234801561001057600080fd5b506004361061018c5760003560e01c80637d151549116100e3578063bd85b0391161008c578063f242432a11610066578063f242432a146103b8578063f5298aca146103cb578063f7794bae146103de57600080fd5b8063bd85b03914610337578063bf7bab731461034a578063e985e9c51461035d57600080fd5b8063a22cb465116100bd578063a22cb465146102fe578063a91a988a14610311578063b164884b1461032457600080fd5b80637d151549146102ae578063869f7594146102d8578063983da156146102eb57600080fd5b806341f43434116101455780634f558e791161011f5780634f558e79146102655780636708a990146102885780636b20c4541461029b57600080fd5b806341f434341461020557806348f2f536146102325780634e1273f41461024557600080fd5b80630ad2bbac116101765780630ad2bbac146101cc5780632eb2c2d6146101df5780633f3b797e146101f257600080fd5b8062fdd58e146101915780630a13c503146101b7575b600080fd5b6101a461019f3660046128bb565b6103f1565b6040519081526020015b60405180910390f35b6101ca6101c5366004612931565b610404565b005b6101ca6101da3660046129f5565b61043e565b6101ca6101ed366004612b4e565b610472565b6101ca610200366004612cbf565b610547565b61021a6daaeb6d7670e522a718067333cd4e81565b6040516001600160a01b0390911681526020016101ae565b6101ca610240366004612d47565b61063f565b610258610253366004612d7a565b61066f565b6040516101ae9190612e19565b610278610273366004612e2c565b610896565b60405190151581526020016101ae565b6101ca610296366004612d47565b6108cd565b6101ca6102a93660046129f5565b6108f8565b7f9c1f08fc16fa10f59a3ac18a8c5596ea456f2d66793744df41c7c3e4eb2197905460ff16610278565b6101a46102e6366004612e2c565b6109df565b6101ca6102f9366004612d47565b610a12565b6101ca61030c366004612e53565b610a3d565b61025861031f366004612e8a565b610a4b565b6101ca610332366004612f1f565b610b32565b6101a4610345366004612e2c565b610b5f565b6101a46103583660046128bb565b610b92565b61027861036b366004612f76565b6001600160a01b0391821660009081527ff9ecf3cb86ac553c70621e3e662b4036163ca34fffb329385fafa0e130cfc1a86020908152604080832093909416825291909152205460ff1690565b6101ca6103c6366004612fa9565b610bda565b6101ca6103d9366004612d47565b610cac565b6101ca6103ec366004612cbf565b610d93565b60006103fd8383610e85565b9392505050565b3033146104245760405163fd570b5160e01b815260040160405180910390fd5b6104348888888888888888610f4a565b5050505050505050565b30331461045e5760405163fd570b5160e01b815260040160405180910390fd5b61046b858585858561127a565b5050505050565b336001600160a01b0386168114806104ce57506001600160a01b0380871660009081527ff9ecf3cb86ac553c70621e3e662b4036163ca34fffb329385fafa0e130cfc1a8602090815260408083209385168352929052205460ff165b6105315760405162461bcd60e51b815260206004820152602960248201527f455243313135353a2063616c6c6572206973206e6f74206f776e6572206e6f7260448201526808185c1c1c9bdd995960ba1b60648201526084015b60405180910390fd5b61053f818787878787611563565b505050505050565b3033146105675760405163fd570b5160e01b815260040160405180910390fd5b81518351148015610579575080518351145b6105c55760405162461bcd60e51b815260206004820152601460248201527f494e56414c49445f41525241595f4c454e4754480000000000000000000000006044820152606401610528565b60005b8351811015610639576106278482815181106105e6576105e6613021565b602002602001015184838151811061060057610600613021565b602002602001015184848151811061061a5761061a613021565b6020026020010151611571565b806106318161304d565b9150506105c8565b50505050565b30331461065f5760405163fd570b5160e01b815260040160405180910390fd5b61066a83838361162e565b505050565b606081518351146106e85760405162461bcd60e51b815260206004820152602960248201527f455243313135353a206163636f756e747320616e6420696473206c656e67746860448201527f206d69736d6174636800000000000000000000000000000000000000000000006064820152608401610528565b82517ff9ecf3cb86ac553c70621e3e662b4036163ca34fffb329385fafa0e130cfc1a79060009067ffffffffffffffff81111561072757610727612a76565b604051908082528060200260200182016040528015610750578160200160208202803683370190505b50905060005b855181101561088d5760006001600160a01b031686828151811061077c5761077c613021565b60200260200101516001600160a01b0316036108005760405162461bcd60e51b815260206004820152603160248201527f455243313135353a2062617463682062616c616e636520717565727920666f7260448201527f20746865207a65726f20616464726573730000000000000000000000000000006064820152608401610528565b82600086838151811061081557610815613021565b60200260200101518152602001908152602001600020600087838151811061083f5761083f613021565b60200260200101516001600160a01b03166001600160a01b031681526020019081526020016000205482828151811061087a5761087a613021565b6020908102919091010152600101610756565b50949350505050565b60008181527f7056dcda885936c7a9d7c6385902b4ab5fb09024caea98652b7189a5f7a28ea5602052604081205415155b92915050565b3033146108ed5760405163fd570b5160e01b815260040160405180910390fd5b61066a838383611571565b6001600160a01b03851633148061098157503063e985e9c586336040516001600160e01b031960e085901b1681526001600160a01b03928316600482015291166024820152604401602060405180830381865afa15801561095d573d6000803e3d6000fd5b505050506040513d601f19601f820116820180604052508101906109819190613066565b61045e5760405162461bcd60e51b815260206004820152602960248201527f455243313135353a2063616c6c6572206973206e6f74206f776e6572206e6f7260448201526808185c1c1c9bdd995960ba1b6064820152608401610528565b60008181527f7056dcda885936c7a9d7c6385902b4ab5fb09024caea98652b7189a5f7a28ea660205260408120546108c7565b303314610a325760405163fd570b5160e01b815260040160405180910390fd5b61066a8383836117c1565b610a478282611888565b5050565b606060008267ffffffffffffffff811115610a6857610a68612a76565b604051908082528060200260200182016040528015610a91578160200160208202803683370190505b50905060005b8381101561088d57610b0386868684818110610ab557610ab5613021565b905060200201356001600160a01b039190911660009081527f349768cb3869818ef8452552d8520ac7355b35c10a0ff9320e2975b28752782060209081526040808320938352929052205490565b828281518110610b1557610b15613021565b602090810291909101015280610b2a8161304d565b915050610a97565b303314610b525760405163fd570b5160e01b815260040160405180910390fd5b61046b8585858585611994565b60008181527f7056dcda885936c7a9d7c6385902b4ab5fb09024caea98652b7189a5f7a28ea560205260408120546108c7565b6001600160a01b03821660009081527f349768cb3869818ef8452552d8520ac7355b35c10a0ff9320e2975b287527820602090815260408083208484529091528120546103fd565b336001600160a01b038716811480610c3657506001600160a01b0380881660009081527ff9ecf3cb86ac553c70621e3e662b4036163ca34fffb329385fafa0e130cfc1a8602090815260408083209385168352929052205460ff165b610c945760405162461bcd60e51b815260206004820152602960248201527f455243313135353a2063616c6c6572206973206e6f74206f776e6572206e6f7260448201526808185c1c1c9bdd995960ba1b6064820152608401610528565b610ca381888888888888611b10565b50505050505050565b6001600160a01b038316331480610d3557503063e985e9c584336040516001600160e01b031960e085901b1681526001600160a01b03928316600482015291166024820152604401602060405180830381865afa158015610d11573d6000803e3d6000fd5b505050506040513d601f19601f82011682018060405250810190610d359190613066565b61065f5760405162461bcd60e51b815260206004820152602960248201527f455243313135353a2063616c6c6572206973206e6f74206f776e6572206e6f7260448201526808185c1c1c9bdd995960ba1b6064820152608401610528565b303314610db35760405163fd570b5160e01b815260040160405180910390fd5b81518351148015610dc5575080518351145b610e115760405162461bcd60e51b815260206004820152601460248201527f494e56414c49445f41525241595f4c454e4754480000000000000000000000006044820152606401610528565b60005b835181101561063957610e73848281518110610e3257610e32613021565b6020026020010151848381518110610e4c57610e4c613021565b6020026020010151848481518110610e6657610e66613021565b60200260200101516117c1565b80610e7d8161304d565b915050610e14565b60006001600160a01b038316610f035760405162461bcd60e51b815260206004820152602b60248201527f455243313135353a2062616c616e636520717565727920666f7220746865207a60448201527f65726f20616464726573730000000000000000000000000000000000000000006064820152608401610528565b7ff9ecf3cb86ac553c70621e3e662b4036163ca34fffb329385fafa0e130cfc1a76000928352602090815260408084206001600160a01b0395909516845293905250205490565b848314610faa5760405162461bcd60e51b815260206004820152602860248201527f455243313135353a2069647320616e6420616d6f756e7473206c656e677468206044820152670dad2e6dac2e8c6d60c31b6064820152608401610528565b86831461101f5760405162461bcd60e51b815260206004820152602d60248201527f455243313135353a206163636f756e747320616e6420616d6f756e7473206c6560448201527f6e677468206d69736d61746368000000000000000000000000000000000000006064820152608401610528565b337ff9ecf3cb86ac553c70621e3e662b4036163ca34fffb329385fafa0e130cfc1a760005b8781101561126d5761110d8360008d8d8581811061106457611064613021565b90506020020160208101906110799190613083565b61109a8d8d8781811061108e5761108e613021565b90506020020135611b1f565b6110af8c8c8881811061108e5761108e613021565b8a8a888181106110c1576110c1613021565b90506020028101906110d3919061309e565b8080601f016020809104026020016040519081016040528093929190818152602001838380828437600092019190915250611b6a92505050565b86868281811061111f5761111f613021565b905060200201358260008b8b8581811061113b5761113b613021565b90506020020135815260200190815260200160002060008d8d8581811061116457611164613021565b90506020020160208101906111799190613083565b6001600160a01b03166001600160a01b0316815260200190815260200160002060008282546111a891906130e5565b909155508b90508a828181106111c0576111c0613021565b90506020020160208101906111d59190613083565b6001600160a01b031660006001600160a01b0316846001600160a01b03167fc3d58168c5ae7397731d063d5bbf3d657854427343f4c083240f7aacaa2d0f628c8c8681811061122657611226613021565b905060200201358b8b8781811061123f5761123f613021565b9050602002013560405161125d929190918252602082015260400190565b60405180910390a4600101611044565b5050505050505050505050565b6001600160a01b0385166112dc5760405162461bcd60e51b815260206004820152602360248201527f455243313135353a206275726e2066726f6d20746865207a65726f206164647260448201526265737360e81b6064820152608401610528565b82811461133c5760405162461bcd60e51b815260206004820152602860248201527f455243313135353a2069647320616e6420616d6f756e7473206c656e677468206044820152670dad2e6dac2e8c6d60c31b6064820152608401610528565b60003390506113c08187600088888080602002602001604051908101604052809392919081815260200183836020028082843760009201919091525050604080516020808c0282810182019093528b82529093508b92508a918291850190849080828437600092018290525060408051602081019091529081529250611b6a915050565b7ff9ecf3cb86ac553c70621e3e662b4036163ca34fffb329385fafa0e130cfc1a760005b858110156114fd57600087878381811061140057611400613021565b90506020020135905085858381811061141b5761141b613021565b9050602002013583600083815260200190815260200160002060008b6001600160a01b03166001600160a01b031681526020019081526020016000205410156114b25760405162461bcd60e51b8152602060048201526024808201527f455243313135353a206275726e20616d6f756e7420657863656564732062616c604482015263616e636560e01b6064820152608401610528565b8585838181106114c4576114c4613021565b6000938452602086815260408086206001600160a01b038f168752825290942080549490910292909201359092039055506001016113e4565b5060006001600160a01b0316876001600160a01b0316836001600160a01b03167f4a39dc06d4c0dbc64b70af90fd698a233a518aa5d07e595d983b8c0526c8f7fb89898989604051611552949392919061314c565b60405180910390a450505050505050565b61053f868686868686611b78565b6001600160a01b03831660009081527f349768cb3869818ef8452552d8520ac7355b35c10a0ff9320e2975b2875278206020908152604080832085845291829052909120548211156116055760405162461bcd60e51b815260206004820152601160248201527f4e4f545f454e4f5547485f4c4f434b45440000000000000000000000000000006044820152606401610528565b6000838152602082905260408120805484929061162390849061317e565b909155505050505050565b6001600160a01b0383166116905760405162461bcd60e51b815260206004820152602360248201527f455243313135353a206275726e2066726f6d20746865207a65726f206164647260448201526265737360e81b6064820152608401610528565b336116bf818560006116a187611b1f565b6116aa87611b1f565b60405180602001604052806000815250611b6a565b60008381527ff9ecf3cb86ac553c70621e3e662b4036163ca34fffb329385fafa0e130cfc1a7602090815260408083206001600160a01b0388168452918290529091205483111561175e5760405162461bcd60e51b8152602060048201526024808201527f455243313135353a206275726e20616d6f756e7420657863656564732062616c604482015263616e636560e01b6064820152608401610528565b6001600160a01b0385811660008181526020848152604080832080548990039055805189815291820188905291938616917fc3d58168c5ae7397731d063d5bbf3d657854427343f4c083240f7aacaa2d0f62910160405180910390a45050505050565b6001600160a01b03831660009081527f349768cb3869818ef8452552d8520ac7355b35c10a0ff9320e2975b28752782060209081526040808320858452918290529091205482906118128686610e85565b61181c919061317e565b101561186a5760405162461bcd60e51b815260206004820152601260248201527f4e4f545f454e4f5547485f42414c414e434500000000000000000000000000006044820152606401610528565b600083815260208290526040812080548492906116239084906130e5565b336001600160a01b03831681036119075760405162461bcd60e51b815260206004820152602960248201527f455243313135353a2073657474696e6720617070726f76616c2073746174757360448201527f20666f722073656c6600000000000000000000000000000000000000000000006064820152608401610528565b6001600160a01b0381811660008181527ff9ecf3cb86ac553c70621e3e662b4036163ca34fffb329385fafa0e130cfc1a86020908152604080832094881680845294825291829020805460ff1916871515908117909155825190815291517f17307eab39ab6107e8899845ad3d59bd9653f200f220920489ca2b5937696c319281900390910190a3505050565b336001600160a01b038616611a115760405162461bcd60e51b815260206004820152602160248201527f455243313135353a206d696e7420746f20746865207a65726f2061646472657360448201527f73000000000000000000000000000000000000000000000000000000000000006064820152608401610528565b611a6681600088611a2189611b1f565b611a2a89611b1f565b88888080601f016020809104026020016040519081016040528093929190818152602001838380828437600092019190915250611b6a92505050565b60008581527ff9ecf3cb86ac553c70621e3e662b4036163ca34fffb329385fafa0e130cfc1a7602090815260408083206001600160a01b038a16845290915281208054869290611ab79084906130e5565b909155505060408051868152602081018690526001600160a01b0380891692600092918516917fc3d58168c5ae7397731d063d5bbf3d657854427343f4c083240f7aacaa2d0f62910160405180910390a4505050505050565b610ca387878787878787611ba0565b60408051600180825281830190925260609160009190602080830190803683370190505090508281600081518110611b5957611b59613021565b602090810291909101015292915050565b61053f868686868686611bc9565b856001600160a01b0381163314611b9257611b9233611d13565b610ca3878787878787611e01565b866001600160a01b0381163314611bba57611bba33611d13565b61043488888888888888611e1d565b6001600160a01b03851615611d055760005b8351811015611d0357828181518110611bf657611bf6613021565b6020026020010151611c257f349768cb3869818ef8452552d8520ac7355b35c10a0ff9320e2975b28752782090565b6000016000886001600160a01b03166001600160a01b031681526020019081526020016000206000868481518110611c5f57611c5f613021565b6020026020010151815260200190815260200160002054611c9988878581518110611c8c57611c8c613021565b6020026020010151610e85565b611ca3919061317e565b1015611cf15760405162461bcd60e51b815260206004820152600660248201527f4c4f434b454400000000000000000000000000000000000000000000000000006044820152606401610528565b80611cfb8161304d565b915050611bdb565b505b61053f868686868686611e70565b6daaeb6d7670e522a718067333cd4e3b15611dfe576040517fc61711340000000000000000000000000000000000000000000000000000000081523060048201526001600160a01b03821660248201526daaeb6d7670e522a718067333cd4e9063c617113490604401602060405180830381865afa158015611d99573d6000803e3d6000fd5b505050506040513d601f19601f82011682018060405250810190611dbd9190613066565b611dfe576040517fede71dcc0000000000000000000000000000000000000000000000000000000081526001600160a01b0382166004820152602401610528565b50565b611e0f868686868686612108565b61053f868686868686612116565b611e2c878787878787876122bb565b610ca3878787878787878080601f0160208091040260200160405190810160405280939291908181526020018383808284376000920191909152506122ca92505050565b6001600160a01b038516611fe1577f7056dcda885936c7a9d7c6385902b4ab5fb09024caea98652b7189a5f7a28ea57f7056dcda885936c7a9d7c6385902b4ab5fb09024caea98652b7189a5f7a28ea660005b8551811015611fdd57848181518110611ede57611ede613021565b6020026020010151836000888481518110611efb57611efb613021565b602002602001015181526020019081526020016000206000828254611f2091906130e5565b92505081905550816000878381518110611f3c57611f3c613021565b6020026020010151815260200190815260200160002054836000888481518110611f6857611f68613021565b60200260200101518152602001908152602001600020541115611fcd5760405162461bcd60e51b815260206004820152601160248201527f535550504c595f4558434545445f4d41580000000000000000000000000000006044820152606401610528565b611fd68161304d565b9050611ec3565b5050505b6001600160a01b03841661053f577f7056dcda885936c7a9d7c6385902b4ab5fb09024caea98652b7189a5f7a28ea560005b845181101561043457600085828151811061203057612030613021565b60200260200101519050600085838151811061204e5761204e613021565b602002602001015190506000846000848152602001908152602001600020549050818110156120e55760405162461bcd60e51b815260206004820152602860248201527f455243313135353a206275726e20616d6f756e74206578636565647320746f7460448201527f616c537570706c790000000000000000000000000000000000000000000000006064820152608401610528565b600092835260208590526040909220910390556121018161304d565b9050612013565b61053f8686868686866123c6565b6001600160a01b0384163b1561053f5760405163bc197c8160e01b81526001600160a01b0385169063bc197c819061215a90899089908890889088906004016131e2565b6020604051808303816000875af1925050508015612195575060408051601f3d908101601f1916820190925261219291810190613240565b60015b61224a576121a161326a565b806308c379a0036121da57506121b5613286565b806121c057506121dc565b8060405162461bcd60e51b81526004016105289190613310565b505b60405162461bcd60e51b815260206004820152603460248201527f455243313135353a207472616e7366657220746f206e6f6e204552433131353560448201527f526563656976657220696d706c656d656e7465720000000000000000000000006064820152608401610528565b6001600160e01b0319811663bc197c8160e01b14610ca35760405162461bcd60e51b815260206004820152602860248201527f455243313135353a204552433131353552656365697665722072656a656374656044820152676420746f6b656e7360c01b6064820152608401610528565b610ca3878787878787876123ee565b6001600160a01b0384163b1561053f5760405163f23a6e6160e01b81526001600160a01b0385169063f23a6e619061230e9089908990889088908890600401613323565b6020604051808303816000875af1925050508015612349575060408051601f3d908101601f1916820190925261234691810190613240565b60015b612355576121a161326a565b6001600160e01b0319811663f23a6e6160e01b14610ca35760405162461bcd60e51b815260206004820152602860248201527f455243313135353a204552433131353552656365697665722072656a656374656044820152676420746f6b656e7360c01b6064820152608401610528565b856001600160a01b03811633146123e0576123e033611d13565b610ca3878787878787612417565b866001600160a01b03811633146124085761240833611d13565b61043488888888888888612693565b6001600160a01b03841661247b5760405162461bcd60e51b815260206004820152602560248201527f455243313135353a207472616e7366657220746f20746865207a65726f206164604482015264647265737360d81b6064820152608401610528565b81518351146124dd5760405162461bcd60e51b815260206004820152602860248201527f455243313135353a2069647320616e6420616d6f756e7473206c656e677468206044820152670dad2e6dac2e8c6d60c31b6064820152608401610528565b6124eb868686868686611b6a565b7ff9ecf3cb86ac553c70621e3e662b4036163ca34fffb329385fafa0e130cfc1a760005b845181101561264357600085828151811061252c5761252c613021565b60200260200101519050600085838151811061254a5761254a613021565b602090810291909101810151600084815286835260408082206001600160a01b038e1683529093529190912054909150818110156125f05760405162461bcd60e51b815260206004820152602b60248201527f455243313135353a20696e73756666696369656e742062616c616e636573206660448201527f6f72207472616e736665720000000000000000000000000000000000000000006064820152608401610528565b6000838152602086815260408083206001600160a01b038e811685529252808320938590039093558a1681529081208054600195909501948392906126369084906130e5565b9091555061250f92505050565b50846001600160a01b0316866001600160a01b0316886001600160a01b03167f4a39dc06d4c0dbc64b70af90fd698a233a518aa5d07e595d983b8c0526c8f7fb878760405161155292919061335b565b6001600160a01b0385166126f75760405162461bcd60e51b815260206004820152602560248201527f455243313135353a207472616e7366657220746f20746865207a65726f206164604482015264647265737360d81b6064820152608401610528565b61274b87878761270688611b1f565b61270f88611b1f565b87878080601f016020809104026020016040519081016040528093929190818152602001838380828437600092019190915250611b6a92505050565b60008481527ff9ecf3cb86ac553c70621e3e662b4036163ca34fffb329385fafa0e130cfc1a7602081815260408084206001600160a01b038b16855290915290912054848110156128045760405162461bcd60e51b815260206004820152602b60248201527f455243313135353a20696e73756666696369656e742062616c616e636573206660448201527f6f72207472616e736665720000000000000000000000000000000000000000006064820152608401610528565b6000868152602083815260408083206001600160a01b038c811685529252808320938890039093558816815290812080548692906128439084906130e5565b909155505060408051868152602081018690526001600160a01b03808916928a821692918c16917fc3d58168c5ae7397731d063d5bbf3d657854427343f4c083240f7aacaa2d0f62910160405180910390a45050505050505050565b80356001600160a01b03811681146128b657600080fd5b919050565b600080604083850312156128ce57600080fd5b6128d78361289f565b946020939093013593505050565b60008083601f8401126128f757600080fd5b50813567ffffffffffffffff81111561290f57600080fd5b6020830191508360208260051b850101111561292a57600080fd5b9250929050565b6000806000806000806000806080898b03121561294d57600080fd5b883567ffffffffffffffff8082111561296557600080fd5b6129718c838d016128e5565b909a50985060208b013591508082111561298a57600080fd5b6129968c838d016128e5565b909850965060408b01359150808211156129af57600080fd5b6129bb8c838d016128e5565b909650945060608b01359150808211156129d457600080fd5b506129e18b828c016128e5565b999c989b5096995094979396929594505050565b600080600080600060608688031215612a0d57600080fd5b612a168661289f565b9450602086013567ffffffffffffffff80821115612a3357600080fd5b612a3f89838a016128e5565b90965094506040880135915080821115612a5857600080fd5b50612a65888289016128e5565b969995985093965092949392505050565b634e487b7160e01b600052604160045260246000fd5b601f8201601f1916810167ffffffffffffffff81118282101715612ab257612ab2612a76565b6040525050565b600067ffffffffffffffff821115612ad357612ad3612a76565b5060051b60200190565b600082601f830112612aee57600080fd5b81356020612afb82612ab9565b604051612b088282612a8c565b83815260059390931b8501820192828101915086841115612b2857600080fd5b8286015b84811015612b435780358352918301918301612b2c565b509695505050505050565b600080600080600060a08688031215612b6657600080fd5b612b6f8661289f565b94506020612b7e81880161289f565b9450604087013567ffffffffffffffff80821115612b9b57600080fd5b612ba78a838b01612add565b95506060890135915080821115612bbd57600080fd5b612bc98a838b01612add565b94506080890135915080821115612bdf57600080fd5b818901915089601f830112612bf357600080fd5b813581811115612c0557612c05612a76565b6040519150612c1d601f8201601f1916850183612a8c565b8082528a84828501011115612c3157600080fd5b80848401858401376000848284010152508093505050509295509295909350565b600082601f830112612c6357600080fd5b81356020612c7082612ab9565b604051612c7d8282612a8c565b83815260059390931b8501820192828101915086841115612c9d57600080fd5b8286015b84811015612b4357612cb28161289f565b8352918301918301612ca1565b600080600060608486031215612cd457600080fd5b833567ffffffffffffffff80821115612cec57600080fd5b612cf887838801612c52565b94506020860135915080821115612d0e57600080fd5b612d1a87838801612add565b93506040860135915080821115612d3057600080fd5b50612d3d86828701612add565b9150509250925092565b600080600060608486031215612d5c57600080fd5b612d658461289f565b95602085013595506040909401359392505050565b60008060408385031215612d8d57600080fd5b823567ffffffffffffffff80821115612da557600080fd5b612db186838701612c52565b93506020850135915080821115612dc757600080fd5b50612dd485828601612add565b9150509250929050565b600081518084526020808501945080840160005b83811015612e0e57815187529582019590820190600101612df2565b509495945050505050565b6020815260006103fd6020830184612dde565b600060208284031215612e3e57600080fd5b5035919050565b8015158114611dfe57600080fd5b60008060408385031215612e6657600080fd5b612e6f8361289f565b91506020830135612e7f81612e45565b809150509250929050565b600080600060408486031215612e9f57600080fd5b612ea88461289f565b9250602084013567ffffffffffffffff811115612ec457600080fd5b612ed0868287016128e5565b9497909650939450505050565b60008083601f840112612eef57600080fd5b50813567ffffffffffffffff811115612f0757600080fd5b60208301915083602082850101111561292a57600080fd5b600080600080600060808688031215612f3757600080fd5b612f408661289f565b94506020860135935060408601359250606086013567ffffffffffffffff811115612f6a57600080fd5b612a6588828901612edd565b60008060408385031215612f8957600080fd5b612f928361289f565b9150612fa06020840161289f565b90509250929050565b60008060008060008060a08789031215612fc257600080fd5b612fcb8761289f565b9550612fd96020880161289f565b94506040870135935060608701359250608087013567ffffffffffffffff81111561300357600080fd5b61300f89828a01612edd565b979a9699509497509295939492505050565b634e487b7160e01b600052603260045260246000fd5b634e487b7160e01b600052601160045260246000fd5b60006001820161305f5761305f613037565b5060010190565b60006020828403121561307857600080fd5b81516103fd81612e45565b60006020828403121561309557600080fd5b6103fd8261289f565b6000808335601e198436030181126130b557600080fd5b83018035915067ffffffffffffffff8211156130d057600080fd5b60200191503681900382131561292a57600080fd5b600082198211156130f8576130f8613037565b500190565b81835260007f07ffffffffffffffffffffffffffffffffffffffffffffffffffffffffffffff83111561312f57600080fd5b8260051b8083602087013760009401602001938452509192915050565b6040815260006131606040830186886130fd565b82810360208401526131738185876130fd565b979650505050505050565b60008282101561319057613190613037565b500390565b6000815180845260005b818110156131bb5760208185018101518683018201520161319f565b818111156131cd576000602083870101525b50601f01601f19169290920160200192915050565b60006001600160a01b03808816835280871660208401525060a0604083015261320e60a0830186612dde565b82810360608401526132208186612dde565b905082810360808401526132348185613195565b98975050505050505050565b60006020828403121561325257600080fd5b81516001600160e01b0319811681146103fd57600080fd5b600060033d11156132835760046000803e5060005160e01c5b90565b600060443d10156132945790565b6040516003193d81016004833e81513d67ffffffffffffffff81602484011181841117156132c457505050505090565b82850191508151818111156132dc5750505050505090565b843d87010160208285010111156132f65750505050505090565b61330560208286010187612a8c565b509095945050505050565b6020815260006103fd6020830184613195565b60006001600160a01b03808816835280871660208401525084604083015283606083015260a0608083015261317360a0830184613195565b60408152600061336e6040830185612dde565b82810360208401526133808185612dde565b9594505050505056fea2646970667358221220a969b9a1b74c8ad267f7a17525ba6323dc6aca6b9738de49f3c6d937b28768a164736f6c634300080f0033",
  "devdoc": {
    "custom:category": "NFTs",
    "custom:provides-interfaces": "IERC1155 IERC1155SupplyExtension IERC1155MintableExtension IERC1155BurnableExtension IERC1155LockableExtension IRoyaltyEnforcement",
    "custom:type": "eip-2535-facet",
    "kind": "dev",
    "methods": {
      "balanceOf(address,uint256)": {
        "params": {
          "account": "address to query",
          "id": "token to query"
        },
        "returns": {
          "_0": "token balance"
        }
      },
      "balanceOfBatch(address[],uint256[])": {
        "params": {
          "accounts": "addresss to query",
          "ids": "tokens to query"
        },
        "returns": {
          "_0": "token balances"
        }
      },
      "exists(uint256)": {
        "details": "Indicates whether any token exist with a given id, or not."
      },
      "isApprovedForAll(address,address)": {
        "params": {
          "account": "address to query for approval granted",
          "operator": "address to query for approval received"
        },
        "returns": {
          "_0": "whether operator is approved to spend tokens held by account"
        }
      },
      "lockByFacet(address,uint256,uint256)": {
        "details": "Locks `amount` of tokens of `account`, of token type `id`. Requirements: - the caller must be diamond itself (other facets)."
      },
      "maxSupply(uint256)": {
        "details": "Maximum amount of tokens possible to exist for a given id."
      },
      "mintByFacet(address,uint256,uint256,bytes)": {
        "details": "Creates `amount` new tokens for `to`, of token type `id`. See {ERC1155-_mint}. Requirements: - the caller must be diamond itself (other facets)."
      },
      "safeBatchTransferFrom(address,address,uint256[],uint256[],bytes)": {
        "params": {
          "amounts": "list of quantities of tokens to transfer",
          "data": "data payload",
          "from": "sender of tokens",
          "ids": "list of token IDs",
          "to": "receiver of tokens"
        }
      },
      "safeTransferFrom(address,address,uint256,uint256,bytes)": {
        "params": {
          "amount": "quantity of tokens to transfer",
          "data": "data payload",
          "from": "sender of tokens",
          "id": "token ID",
          "to": "receiver of tokens"
        }
      },
      "setApprovalForAll(address,bool)": {
        "params": {
          "operator": "address whose approval status to update",
          "status": "whether operator should be considered approved"
        }
      },
      "totalSupply(uint256)": {
        "details": "Total amount of tokens in with a given id."
      },
      "unlockByFacet(address,uint256,uint256)": {
        "details": "Un-locks `amount` of tokens of `account`, of token type `id`. Requirements: - the caller must be diamond itself (other facets)."
      }
    },
    "title": "ERC1155 - Standard",
    "version": 1
  },
  "userdoc": {
    "errors": {
      "ErrSenderIsNotSelf()": [
        {
          "notice": "The caller must be the current contract itself."
        }
      ]
    },
    "kind": "user",
    "methods": {
      "balanceOf(address,uint256)": {
        "notice": "query the balance of given token held by given address"
      },
      "balanceOfBatch(address[],uint256[])": {
        "notice": "query the balances of given tokens held by given addresses"
      },
      "isApprovedForAll(address,address)": {
        "notice": "query approval status of given operator with respect to given address"
      },
      "safeBatchTransferFrom(address,address,uint256[],uint256[],bytes)": {
        "notice": "transfer batch of tokens between given addresses, checking for ERC1155Receiver implementation if applicable"
      },
      "safeTransferFrom(address,address,uint256,uint256,bytes)": {
        "notice": "transfer tokens between given addresses, checking for ERC1155Receiver implementation if applicable"
      },
      "setApprovalForAll(address,bool)": {
        "notice": "grant approval to or revoke approval from given operator to spend held tokens"
      }
    },
    "notice": "Standard EIP-1155 NFTs with core capabilities of Mintable, Burnable and Lockable.",
    "version": 1
  },
  "storageLayout": {
    "storage": [],
    "types": null
  }
}