{
  "address": "0x79455bD8DB7152f9084eAd01328F498124D3eE3b",
  "abi": [
    {
      "anonymous": false,
      "inputs": [
        {
          "indexed": true,
          "internalType": "address",
          "name": "previousOwner",
          "type": "address"
        },
        {
          "indexed": true,
          "internalType": "address",
          "name": "newOwner",
          "type": "address"
        }
      ],
      "name": "OwnershipTransferred",
      "type": "event"
    },
    {
      "inputs": [
        {
          "internalType": "bytes4[]",
          "name": "interfaceIds",
          "type": "bytes4[]"
        },
        {
          "internalType": "bytes4[]",
          "name": "interfaceIdsToRemove",
          "type": "bytes4[]"
        }
      ],
      "name": "setERC165",
      "outputs": [],
      "stateMutability": "nonpayable",
      "type": "function"
    }
  ],
  "transactionHash": "0x4bb57f343b09ca20dd15f2a7f4901c22e4b8ade1e0c4e9526cb72d4612a7a32c",
  "args": [],
  "numDeployments": 4,
  "solcInputHash": "00aa33fa3dda43d1e7155583081a00ea",
  "bytecode": "0x608060405234801561001057600080fd5b506103f0806100206000396000f3fe608060405234801561001057600080fd5b506004361061002b5760003560e01c80632a84809114610030575b600080fd5b61004361003e3660046102c8565b610045565b005b7fc0ea367cb0174dd5521cd2372c76f8c13e6c1f832c71f1d6e0cbc185c9cc8ed45473ffffffffffffffffffffffffffffffffffffffff1633146100e9576040517f08c379a000000000000000000000000000000000000000000000000000000000815260206004820152601d60248201527f4f776e61626c653a2073656e646572206d757374206265206f776e6572000000604482015260640160405180910390fd5b7f01ffc9a70000000000000000000000000000000000000000000000000000000060009081527fff923f4a67695a9cdd5da4b8580a5a20edf2183c42aa111dd7fc15dc7bed264060208190527fe1cd5a39bd0bb11debfd51073019ab01630b5cba823095c51b2463cd8445abf8805460ff19166001179055905b848110156101ea57600182600088888581811061018257610182610334565b9050602002016020810190610197919061034a565b7fffffffff000000000000000000000000000000000000000000000000000000001681526020810191909152604001600020805460ff1916911515919091179055806101e281610393565b915050610163565b5060005b82811015610274576000828186868581811061020c5761020c610334565b9050602002016020810190610221919061034a565b7fffffffff000000000000000000000000000000000000000000000000000000001681526020810191909152604001600020805460ff19169115159190911790558061026c81610393565b9150506101ee565b505050505050565b60008083601f84011261028e57600080fd5b50813567ffffffffffffffff8111156102a657600080fd5b6020830191508360208260051b85010111156102c157600080fd5b9250929050565b600080600080604085870312156102de57600080fd5b843567ffffffffffffffff808211156102f657600080fd5b6103028883890161027c565b9096509450602087013591508082111561031b57600080fd5b506103288782880161027c565b95989497509550505050565b634e487b7160e01b600052603260045260246000fd5b60006020828403121561035c57600080fd5b81357fffffffff000000000000000000000000000000000000000000000000000000008116811461038c57600080fd5b9392505050565b6000600182016103b357634e487b7160e01b600052601160045260246000fd5b506001019056fea264697066735822122031e8bd25546ae0e2491fa9b47ab7f51a3b1de8ea9cb3b25267275b3b53d969cf64736f6c634300080f0033",
  "devdoc": {
    "custom:category": "Diamonds",
    "custom:peer-dependencies": "IERC165",
    "custom:provides-interfaces": "IERC165Admin",
    "custom:type": "eip-2535-facet",
    "kind": "dev",
    "methods": {
      "setERC165(bytes4[],bytes4[])": {
        "params": {
          "interfaceIds": "list of interface id to set as supported",
          "interfaceIdsToRemove": "list of interface id to unset as supported"
        }
      }
    },
    "title": "ERC165 - Admin - Ownable",
    "version": 1
  },
  "userdoc": {
    "kind": "user",
    "methods": {},
    "notice": "Standard EIP-165 management facet using Ownable extension for access control.",
    "version": 1
  },
  "storageLayout": {
    "storage": [],
    "types": null
  }
}