{
  "address": "0xAD76ED05E47825BA2788a1F7EE9e0A776Ee42D85",
  "abi": [
    {
      "anonymous": false,
      "inputs": [
        {
          "indexed": true,
          "internalType": "address",
          "name": "previousOwner",
          "type": "address"
        },
        {
          "indexed": true,
          "internalType": "address",
          "name": "newOwner",
          "type": "address"
        }
      ],
      "name": "OwnershipTransferred",
      "type": "event"
    },
    {
      "inputs": [
        {
          "internalType": "address",
          "name": "trustedForwarder",
          "type": "address"
        }
      ],
      "name": "setTrustedForwarder",
      "outputs": [],
      "stateMutability": "nonpayable",
      "type": "function"
    }
  ],
  "transactionHash": "0xd3d8a629c7330b07ed2c0805aa7c349cd521d699018315c768efa41a2f02c83b",
  "args": [],
  "numDeployments": 4,
  "solcInputHash": "c55c02555ed2787a9a3699470ac3d317",
  "bytecode": "0x608060405234801561001057600080fd5b506101c2806100206000396000f3fe608060405234801561001057600080fd5b506004361061002b5760003560e01c8063da74222814610030575b600080fd5b61004361003e36600461014f565b610045565b005b7fc0ea367cb0174dd5521cd2372c76f8c13e6c1f832c71f1d6e0cbc185c9cc8ed45473ffffffffffffffffffffffffffffffffffffffff1633146100e9576040517f08c379a000000000000000000000000000000000000000000000000000000000815260206004820152601d60248201527f4f776e61626c653a2073656e646572206d757374206265206f776e6572000000604482015260640160405180910390fd5b7fdb1d5e345c4903e9a32b6674ecc8b1deaddbbb2551474fb34c9d34becbe7f42080547fffffffffffffffffffffffff00000000000000000000000000000000000000001673ffffffffffffffffffffffffffffffffffffffff92909216919091179055565b60006020828403121561016157600080fd5b813573ffffffffffffffffffffffffffffffffffffffff8116811461018557600080fd5b939250505056fea2646970667358221220f1f62e78164753ecfc021cc0125c077d840a8e831ac079eb32e345baa1b07d2264736f6c634300080f0033",
  "devdoc": {
    "kind": "dev",
    "methods": {},
    "version": 1
  },
  "userdoc": {
    "kind": "user",
    "methods": {},
    "version": 1
  },
  "storageLayout": {
    "storage": [],
    "types": null
  }
}