{
  "address": "0x4393fEe416BaAcbBCB3cC0039f77C2A448dD9054",
  "abi": [
    {
      "inputs": [],
      "name": "ErrMaxSupplyExceeded",
      "type": "error"
    },
    {
      "inputs": [],
      "name": "ErrSenderIsNotSelf",
      "type": "error"
    },
    {
      "anonymous": false,
      "inputs": [
        {
          "indexed": true,
          "internalType": "address",
          "name": "owner",
          "type": "address"
        },
        {
          "indexed": true,
          "internalType": "address",
          "name": "spender",
          "type": "address"
        },
        {
          "indexed": false,
          "internalType": "uint256",
          "name": "value",
          "type": "uint256"
        }
      ],
      "name": "Approval",
      "type": "event"
    },
    {
      "anonymous": false,
      "inputs": [
        {
          "indexed": true,
          "internalType": "address",
          "name": "from",
          "type": "address"
        },
        {
          "indexed": true,
          "internalType": "address",
          "name": "to",
          "type": "address"
        },
        {
          "indexed": false,
          "internalType": "uint256",
          "name": "value",
          "type": "uint256"
        }
      ],
      "name": "Transfer",
      "type": "event"
    },
    {
      "inputs": [
        {
          "internalType": "address",
          "name": "holder",
          "type": "address"
        },
        {
          "internalType": "address",
          "name": "spender",
          "type": "address"
        }
      ],
      "name": "allowance",
      "outputs": [
        {
          "internalType": "uint256",
          "name": "",
          "type": "uint256"
        }
      ],
      "stateMutability": "view",
      "type": "function"
    },
    {
      "inputs": [
        {
          "internalType": "address",
          "name": "spender",
          "type": "address"
        },
        {
          "internalType": "uint256",
          "name": "amount",
          "type": "uint256"
        }
      ],
      "name": "approve",
      "outputs": [
        {
          "internalType": "bool",
          "name": "",
          "type": "bool"
        }
      ],
      "stateMutability": "nonpayable",
      "type": "function"
    },
    {
      "inputs": [
        {
          "internalType": "address",
          "name": "account",
          "type": "address"
        }
      ],
      "name": "balanceOf",
      "outputs": [
        {
          "internalType": "uint256",
          "name": "",
          "type": "uint256"
        }
      ],
      "stateMutability": "view",
      "type": "function"
    },
    {
      "inputs": [],
      "name": "maxSupply",
      "outputs": [
        {
          "internalType": "uint256",
          "name": "",
          "type": "uint256"
        }
      ],
      "stateMutability": "view",
      "type": "function"
    },
    {
      "inputs": [
        {
          "internalType": "address",
          "name": "to",
          "type": "address"
        },
        {
          "internalType": "uint256",
          "name": "amount",
          "type": "uint256"
        }
      ],
      "name": "mintByFacet",
      "outputs": [],
      "stateMutability": "nonpayable",
      "type": "function"
    },
    {
      "inputs": [
        {
          "internalType": "address[]",
          "name": "tos",
          "type": "address[]"
        },
        {
          "internalType": "uint256[]",
          "name": "amounts",
          "type": "uint256[]"
        }
      ],
      "name": "mintByFacet",
      "outputs": [],
      "stateMutability": "nonpayable",
      "type": "function"
    },
    {
      "inputs": [],
      "name": "totalSupply",
      "outputs": [
        {
          "internalType": "uint256",
          "name": "",
          "type": "uint256"
        }
      ],
      "stateMutability": "view",
      "type": "function"
    },
    {
      "inputs": [
        {
          "internalType": "address",
          "name": "recipient",
          "type": "address"
        },
        {
          "internalType": "uint256",
          "name": "amount",
          "type": "uint256"
        }
      ],
      "name": "transfer",
      "outputs": [
        {
          "internalType": "bool",
          "name": "",
          "type": "bool"
        }
      ],
      "stateMutability": "nonpayable",
      "type": "function"
    },
    {
      "inputs": [
        {
          "internalType": "address",
          "name": "holder",
          "type": "address"
        },
        {
          "internalType": "address",
          "name": "recipient",
          "type": "address"
        },
        {
          "internalType": "uint256",
          "name": "amount",
          "type": "uint256"
        }
      ],
      "name": "transferFrom",
      "outputs": [
        {
          "internalType": "bool",
          "name": "",
          "type": "bool"
        }
      ],
      "stateMutability": "nonpayable",
      "type": "function"
    }
  ],
  "transactionHash": "0xf2c96b89cd3c9c5ea4463fedbc7cf7aebbf2b4215e94f3bc1a55765735efb886",
  "args": [],
  "numDeployments": 1,
  "solcInputHash": "57edd0cd4923c138b9de1d77ec5eb062",
  "bytecode": "0x608060405234801561001057600080fd5b50610c66806100206000396000f3fe608060405234801561001057600080fd5b50600436106100a35760003560e01c806349142a1411610076578063a9059cbb1161005b578063a9059cbb14610169578063d5abeb011461017c578063dd62ed3e1461018457600080fd5b806349142a141461010e57806370a082311461012157600080fd5b8063095ea7b3146100a857806318160ddd146100d057806323b872dd146100e65780632d4f475f146100f9575b600080fd5b6100bb6100b6366004610a67565b610197565b60405190151581526020015b60405180910390f35b6100d86101b2565b6040519081526020016100c7565b6100bb6100f4366004610a91565b6101e1565b61010c610107366004610a67565b6101f6565b005b61010c61011c366004610b19565b610224565b6100d861012f366004610b85565b6001600160a01b031660009081527fe2463c7b61902c74336138227f8649cf55ec352748fb1d5f5a2a227dbcc19e05602052604090205490565b6100bb610177366004610a67565b6102b0565b6100d86102c4565b6100d8610192366004610ba0565b6102ee565b60006101ab6101a461033a565b8484610344565b9392505050565b60006101dc7fe2463c7b61902c74336138227f8649cf55ec352748fb1d5f5a2a227dbcc19e075490565b905090565b60006101ee8484846104c8565b949350505050565b3033146102165760405163fd570b5160e01b815260040160405180910390fd5b61022082826105c5565b5050565b3033146102445760405163fd570b5160e01b815260040160405180910390fd5b60005b838110156102a95761029785858381811061026457610264610bd3565b90506020020160208101906102799190610b85565b84848481811061028b5761028b610bd3565b905060200201356105c5565b806102a181610bff565b915050610247565b5050505050565b60006101ab6102bd61033a565b84846106f4565b60006101dc7f992082eab08422324340bd25ada2736d6cd62f0b0f29a637f182303af822d56e5490565b6001600160a01b0380831660009081527fe2463c7b61902c74336138227f8649cf55ec352748fb1d5f5a2a227dbcc19e06602090815260408083209385168352929052908120546101ab565b60006101dc610941565b60006001600160a01b0384166103c65760405162461bcd60e51b8152602060048201526024808201527f45524332303a20617070726f76652066726f6d20746865207a65726f2061646460448201527f726573730000000000000000000000000000000000000000000000000000000060648201526084015b60405180910390fd5b6001600160a01b0383166104425760405162461bcd60e51b815260206004820152602260248201527f45524332303a20617070726f766520746f20746865207a65726f20616464726560448201527f737300000000000000000000000000000000000000000000000000000000000060648201526084016103bd565b6001600160a01b0384811660008181527fe2463c7b61902c74336138227f8649cf55ec352748fb1d5f5a2a227dbcc19e066020908152604080832094881680845294825291829020869055815186815291517f8c5be1e5ebec7d5bd14f71427d1e84f3dd0314c0f7b2291e5b200ac8c7c3b9259281900390910190a35060019392505050565b600080610521856104d761033a565b6001600160a01b0391821660009081527fe2463c7b61902c74336138227f8649cf55ec352748fb1d5f5a2a227dbcc19e066020908152604080832093909416825291909152205490565b9050828110156105995760405162461bcd60e51b815260206004820152602860248201527f45524332303a207472616e7366657220616d6f756e742065786365656473206160448201527f6c6c6f77616e636500000000000000000000000000000000000000000000000060648201526084016103bd565b6105ad856105a561033a565b858403610344565b506105b98585856106f4565b50600195945050505050565b6001600160a01b03821661061b5760405162461bcd60e51b815260206004820152601f60248201527f45524332303a206d696e7420746f20746865207a65726f20616464726573730060448201526064016103bd565b6106276000838361094b565b7fe2463c7b61902c74336138227f8649cf55ec352748fb1d5f5a2a227dbcc19e0780547fe2463c7b61902c74336138227f8649cf55ec352748fb1d5f5a2a227dbcc19e0591839160009061067c908490610c18565b90915550506001600160a01b038316600090815260208290526040812080548492906106a9908490610c18565b90915550506040518281526001600160a01b038416906000907fddf252ad1be2c89b69c2b068fc378daa952ba7f163c4a11628f55a4df523b3ef9060200160405180910390a3505050565b60006001600160a01b0384166107725760405162461bcd60e51b815260206004820152602560248201527f45524332303a207472616e736665722066726f6d20746865207a65726f20616460448201527f647265737300000000000000000000000000000000000000000000000000000060648201526084016103bd565b6001600160a01b0383166107ee5760405162461bcd60e51b815260206004820152602360248201527f45524332303a207472616e7366657220746f20746865207a65726f206164647260448201527f657373000000000000000000000000000000000000000000000000000000000060648201526084016103bd565b6107f984848461094b565b6001600160a01b03841660009081527fe2463c7b61902c74336138227f8649cf55ec352748fb1d5f5a2a227dbcc19e056020819052604090912054838110156108aa5760405162461bcd60e51b815260206004820152602660248201527f45524332303a207472616e7366657220616d6f756e742065786365656473206260448201527f616c616e6365000000000000000000000000000000000000000000000000000060648201526084016103bd565b6001600160a01b038087166000908152602084905260408082208785039055918716815290812080548692906108e1908490610c18565b92505081905550846001600160a01b0316866001600160a01b03167fddf252ad1be2c89b69c2b068fc378daa952ba7f163c4a11628f55a4df523b3ef8660405161092d91815260200190565b60405180910390a350600195945050505050565b60006101dc61095b565b6109568383836109a1565b505050565b7fdb1d5e345c4903e9a32b6674ecc8b1deaddbbb2551474fb34c9d34becbe7f420546000906001600160a01b0316330361099c575060131936013560601c90565b503390565b6001600160a01b038316610956576001600160a01b03821615610956577f992082eab08422324340bd25ada2736d6cd62f0b0f29a637f182303af822d56e5481610a097fe2463c7b61902c74336138227f8649cf55ec352748fb1d5f5a2a227dbcc19e075490565b610a139190610c18565b1115610956576040517fb746b1c900000000000000000000000000000000000000000000000000000000815260040160405180910390fd5b80356001600160a01b0381168114610a6257600080fd5b919050565b60008060408385031215610a7a57600080fd5b610a8383610a4b565b946020939093013593505050565b600080600060608486031215610aa657600080fd5b610aaf84610a4b565b9250610abd60208501610a4b565b9150604084013590509250925092565b60008083601f840112610adf57600080fd5b50813567ffffffffffffffff811115610af757600080fd5b6020830191508360208260051b8501011115610b1257600080fd5b9250929050565b60008060008060408587031215610b2f57600080fd5b843567ffffffffffffffff80821115610b4757600080fd5b610b5388838901610acd565b90965094506020870135915080821115610b6c57600080fd5b50610b7987828801610acd565b95989497509550505050565b600060208284031215610b9757600080fd5b6101ab82610a4b565b60008060408385031215610bb357600080fd5b610bbc83610a4b565b9150610bca60208401610a4b565b90509250929050565b634e487b7160e01b600052603260045260246000fd5b634e487b7160e01b600052601160045260246000fd5b600060018201610c1157610c11610be9565b5060010190565b60008219821115610c2b57610c2b610be9565b50019056fea264697066735822122061bfe9b8d44458586d8cfa1ec39ae77c514dbb72b44ffd9e387b08807d03fcf064736f6c634300080f0033",
  "devdoc": {
    "custom:category": "Tokens",
    "custom:provides-interfaces": "IERC20 IERC20Base IERC20SupplyExtension IERC20MintableExtension",
    "custom:type": "eip-2535-facet",
    "kind": "dev",
    "methods": {
      "allowance(address,address)": {
        "params": {
          "holder": "approver of allowance",
          "spender": "recipient of allowance"
        },
        "returns": {
          "_0": "token allowance"
        }
      },
      "approve(address,uint256)": {
        "details": "prefer ERC20Extended functions to avoid transaction-ordering vulnerability (see https://github.com/ethereum/EIPs/issues/20#issuecomment-263524729)",
        "params": {
          "amount": "quantity of tokens approved for spending",
          "spender": "recipient of allowance"
        },
        "returns": {
          "_0": "success status (always true; otherwise function should revert)"
        }
      },
      "balanceOf(address)": {
        "params": {
          "account": "address to query"
        },
        "returns": {
          "_0": "token balance"
        }
      },
      "maxSupply()": {
        "details": "Maximum amount of tokens possible to exist."
      },
      "mintByFacet(address,uint256)": {
        "details": "Creates `amount` new tokens for `to`, of token type `id`. See {ERC20-_mint}. Requirements: - the caller must be diamond itself (other facets)."
      },
      "totalSupply()": {
        "returns": {
          "_0": "token supply"
        }
      },
      "transfer(address,uint256)": {
        "params": {
          "amount": "quantity of tokens to transfer",
          "recipient": "beneficiary of token transfer"
        },
        "returns": {
          "_0": "success status (always true; otherwise function should revert)"
        }
      },
      "transferFrom(address,address,uint256)": {
        "params": {
          "amount": "quantity of tokens to transfer",
          "holder": "holder of tokens prior to transfer",
          "recipient": "beneficiary of token transfer"
        },
        "returns": {
          "_0": "success status (always true; otherwise function should revert)"
        }
      }
    },
    "title": "ERC20 - with meta-transactions",
    "version": 1
  },
  "userdoc": {
    "errors": {
      "ErrSenderIsNotSelf()": [
        {
          "notice": "The caller must be the current contract itself."
        }
      ]
    },
    "kind": "user",
    "methods": {
      "allowance(address,address)": {
        "notice": "query the allowance granted from given holder to given spender"
      },
      "approve(address,uint256)": {
        "notice": "grant approval to spender to spend tokens"
      },
      "balanceOf(address)": {
        "notice": "query the token balance of given account"
      },
      "totalSupply()": {
        "notice": "query the total minted token supply"
      },
      "transfer(address,uint256)": {
        "notice": "transfer tokens to given recipient"
      },
      "transferFrom(address,address,uint256)": {
        "notice": "transfer tokens to given recipient on behalf of given holder"
      }
    },
    "notice": "Standard EIP-20 with ability to accept meta transactions (mainly transfer and approve methods).",
    "version": 1
  },
  "storageLayout": {
    "storage": [],
    "types": null
  }
}