{
  "address": "0x208Fc6bcB67CC184162e18Ba53b11cFD568B53d5",
  "abi": [
    {
      "inputs": [
        {
          "internalType": "address",
          "name": "forwarder",
          "type": "address"
        }
      ],
      "name": "isTrustedForwarder",
      "outputs": [
        {
          "internalType": "bool",
          "name": "",
          "type": "bool"
        }
      ],
      "stateMutability": "view",
      "type": "function"
    }
  ],
  "transactionHash": "0x3fbd3e4ecc709cc58448cffbd2daca35f5a1ab245949ee8254a10d19780d0489",
  "args": [],
  "numDeployments": 1,
  "solcInputHash": "203d1016fd15d99d2bcb54f167e7a882",
  "bytecode": "0x608060405234801561001057600080fd5b5060fd8061001f6000396000f3fe6080604052348015600f57600080fd5b506004361060285760003560e01c8063572b6c0514602d575b600080fd5b60786038366004608c565b7fdb1d5e345c4903e9a32b6674ecc8b1deaddbbb2551474fb34c9d34becbe7f4205473ffffffffffffffffffffffffffffffffffffffff90811691161490565b604051901515815260200160405180910390f35b600060208284031215609d57600080fd5b813573ffffffffffffffffffffffffffffffffffffffff8116811460c057600080fd5b939250505056fea264697066735822122036045f6946f82eb62e22b239246a916163dfa7bda5f809f73e73ac0438e1ffa564736f6c634300080f0033",
  "devdoc": {
    "kind": "dev",
    "methods": {},
    "version": 1
  },
  "userdoc": {
    "kind": "user",
    "methods": {},
    "version": 1
  },
  "storageLayout": {
    "storage": [],
    "types": null
  }
}