{
  "address": "0x3A5eF0Ab2b65b773dB8ecA2053604f4FB27c66d0",
  "abi": [
    {
      "inputs": [
        {
          "internalType": "address",
          "name": "forwarder",
          "type": "address"
        }
      ],
      "name": "isTrustedForwarder",
      "outputs": [
        {
          "internalType": "bool",
          "name": "",
          "type": "bool"
        }
      ],
      "stateMutability": "view",
      "type": "function"
    },
    {
      "inputs": [],
      "name": "versionIERC2771Context",
      "outputs": [
        {
          "internalType": "string",
          "name": "",
          "type": "string"
        }
      ],
      "stateMutability": "pure",
      "type": "function"
    }
  ],
  "transactionHash": "0xcc6df7054a65bb34a27e4173980507cb7df2586b77e82a43f63cabda66bff840",
  "args": [],
  "numDeployments": 4,
  "solcInputHash": "c55c02555ed2787a9a3699470ac3d317",
  "bytecode": "0x608060405234801561001057600080fd5b506101c7806100206000396000f3fe608060405234801561001057600080fd5b50600436106100365760003560e01c806336364ced1461003b578063572b6c0514610083575b600080fd5b604080518082018252600381527f322e7800000000000000000000000000000000000000000000000000000000006020820152905161007a91906100e1565b60405180910390f35b6100d1610091366004610154565b7fdb1d5e345c4903e9a32b6674ecc8b1deaddbbb2551474fb34c9d34becbe7f4205473ffffffffffffffffffffffffffffffffffffffff90811691161490565b604051901515815260200161007a565b600060208083528351808285015260005b8181101561010e578581018301518582016040015282016100f2565b81811115610120576000604083870101525b50601f017fffffffffffffffffffffffffffffffffffffffffffffffffffffffffffffffe016929092016040019392505050565b60006020828403121561016657600080fd5b813573ffffffffffffffffffffffffffffffffffffffff8116811461018a57600080fd5b939250505056fea26469706673582212207e67a2c9f6b4a15c3f8d5a5738700f20365863aa0257f7ebba91993d4f42d4ba64736f6c634300080f0033",
  "devdoc": {
    "kind": "dev",
    "methods": {},
    "version": 1
  },
  "userdoc": {
    "kind": "user",
    "methods": {},
    "version": 1
  },
  "storageLayout": {
    "storage": [],
    "types": null
  }
}