{
  "address": "0x5c9b67c22bF21F3247854e563dfe46A5E941CDB7",
  "abi": [
    {
      "anonymous": false,
      "inputs": [
        {
          "indexed": true,
          "internalType": "bytes32",
          "name": "role",
          "type": "bytes32"
        },
        {
          "indexed": true,
          "internalType": "bytes32",
          "name": "previousAdminRole",
          "type": "bytes32"
        },
        {
          "indexed": true,
          "internalType": "bytes32",
          "name": "newAdminRole",
          "type": "bytes32"
        }
      ],
      "name": "RoleAdminChanged",
      "type": "event"
    },
    {
      "anonymous": false,
      "inputs": [
        {
          "indexed": true,
          "internalType": "bytes32",
          "name": "role",
          "type": "bytes32"
        },
        {
          "indexed": true,
          "internalType": "address",
          "name": "account",
          "type": "address"
        },
        {
          "indexed": true,
          "internalType": "address",
          "name": "sender",
          "type": "address"
        }
      ],
      "name": "RoleGranted",
      "type": "event"
    },
    {
      "anonymous": false,
      "inputs": [
        {
          "indexed": true,
          "internalType": "bytes32",
          "name": "role",
          "type": "bytes32"
        },
        {
          "indexed": true,
          "internalType": "address",
          "name": "account",
          "type": "address"
        },
        {
          "indexed": true,
          "internalType": "address",
          "name": "sender",
          "type": "address"
        }
      ],
      "name": "RoleRevoked",
      "type": "event"
    },
    {
      "inputs": [],
      "name": "DEFAULT_ADMIN_ROLE",
      "outputs": [
        {
          "internalType": "bytes32",
          "name": "",
          "type": "bytes32"
        }
      ],
      "stateMutability": "view",
      "type": "function"
    },
    {
      "inputs": [],
      "name": "LOCKER_ROLE",
      "outputs": [
        {
          "internalType": "bytes32",
          "name": "",
          "type": "bytes32"
        }
      ],
      "stateMutability": "view",
      "type": "function"
    },
    {
      "inputs": [
        {
          "internalType": "uint256",
          "name": "id",
          "type": "uint256"
        }
      ],
      "name": "lockByRole",
      "outputs": [],
      "stateMutability": "nonpayable",
      "type": "function"
    },
    {
      "inputs": [
        {
          "internalType": "uint256[]",
          "name": "ids",
          "type": "uint256[]"
        }
      ],
      "name": "lockByRole",
      "outputs": [],
      "stateMutability": "nonpayable",
      "type": "function"
    }
  ],
  "transactionHash": "0x9f7eabc6e8ea397df4fe6ba2f91f60047eccbd3b7758873a63f6d58ffc0ae937",
  "args": [],
  "numDeployments": 1,
  "solcInputHash": "4fa7436fc771ef2df8c49bb501b88d58",
  "bytecode": "0x608060405234801561001057600080fd5b50610792806100206000396000f3fe608060405234801561001057600080fd5b506004361061004c5760003560e01c80631893a98f146100515780635b5cc73514610066578063a217fddf14610079578063f362136714610093575b600080fd5b61006461005f3660046104cd565b6100ba565b005b6100646100743660046104fc565b610153565b610081600081565b60405190815260200160405180910390f35b6100817faf9a8bb3cbd6b84fbccefa71ff73e26e798553c6914585a84886212a46a9027981565b7faf9a8bb3cbd6b84fbccefa71ff73e26e798553c6914585a84886212a46a902796100e4816101b9565b6040517f856e31c100000000000000000000000000000000000000000000000000000000815260048101839052309063856e31c1906024015b600060405180830381600087803b15801561013757600080fd5b505af115801561014b573d6000803e3d6000fd5b505050505050565b7faf9a8bb3cbd6b84fbccefa71ff73e26e798553c6914585a84886212a46a9027961017d816101b9565b6040517ff9497f34000000000000000000000000000000000000000000000000000000008152309063f9497f349061011d9085906004016105ba565b6101c381336101c6565b50565b60008281527f2e59e4c2e927cdddbb64e181e0668d9a0fa70dd88f94d999cd87d5496a20da626020908152604080832073ffffffffffffffffffffffffffffffffffffffff8516845290915290205460ff166102705761022581610274565b61023083602061029d565b60405160200161024192919061062e565b60408051601f198184030181529082905262461bcd60e51b8252610267916004016106af565b60405180910390fd5b5050565b606061029773ffffffffffffffffffffffffffffffffffffffff8316601461029d565b92915050565b606060006102ac8360026106f8565b6102b7906002610717565b67ffffffffffffffff8111156102cf576102cf6104e6565b6040519080825280601f01601f1916602001820160405280156102f9576020820181803683370190505b5090507f3000000000000000000000000000000000000000000000000000000000000000816000815181106103305761033061072f565b60200101907effffffffffffffffffffffffffffffffffffffffffffffffffffffffffffff1916908160001a9053507f7800000000000000000000000000000000000000000000000000000000000000816001815181106103935761039361072f565b60200101907effffffffffffffffffffffffffffffffffffffffffffffffffffffffffffff1916908160001a90535060006103cf8460026106f8565b6103da906001610717565b90505b6001811115610477577f303132333435363738396162636465660000000000000000000000000000000085600f166010811061041b5761041b61072f565b1a60f81b8282815181106104315761043161072f565b60200101907effffffffffffffffffffffffffffffffffffffffffffffffffffffffffffff1916908160001a90535060049490941c9361047081610745565b90506103dd565b5083156104c65760405162461bcd60e51b815260206004820181905260248201527f537472696e67733a20686578206c656e67746820696e73756666696369656e746044820152606401610267565b9392505050565b6000602082840312156104df57600080fd5b5035919050565b634e487b7160e01b600052604160045260246000fd5b6000602080838503121561050f57600080fd5b823567ffffffffffffffff8082111561052757600080fd5b818501915085601f83011261053b57600080fd5b81358181111561054d5761054d6104e6565b8060051b604051601f19603f83011681018181108582111715610572576105726104e6565b60405291825284820192508381018501918883111561059057600080fd5b938501935b828510156105ae57843584529385019392850192610595565b98975050505050505050565b6020808252825182820181905260009190848201906040850190845b818110156105f2578351835292840192918401916001016105d6565b50909695505050505050565b60005b83811015610619578181015183820152602001610601565b83811115610628576000848401525b50505050565b7f416363657373436f6e74726f6c3a206163636f756e74200000000000000000008152600083516106668160178501602088016105fe565b7f206973206d697373696e6720726f6c652000000000000000000000000000000060179184019182015283516106a38160288401602088016105fe565b01602801949350505050565b60208152600082518060208401526106ce8160408501602087016105fe565b601f01601f19169190910160400192915050565b634e487b7160e01b600052601160045260246000fd5b6000816000190483118215151615610712576107126106e2565b500290565b6000821982111561072a5761072a6106e2565b500190565b634e487b7160e01b600052603260045260246000fd5b600081610754576107546106e2565b50600019019056fea26469706673582212203363d52cdf70f631b4bfb99ebf0e25a88f5ccd11d419173ab22ae027d064aabf64736f6c634300080f0033",
  "devdoc": {
    "custom:category": "NFTs",
    "custom:provides-interfaces": "IERC721LockByRole",
    "custom:required-dependencies": "IERC721Lockable",
    "custom:type": "eip-2535-facet",
    "kind": "dev",
    "methods": {},
    "title": "ERC721 - Lock as Role",
    "version": 1
  },
  "userdoc": {
    "kind": "user",
    "methods": {},
    "notice": "Allow locking tokens by any sender who has the LOCKER_ROLE.",
    "version": 1
  },
  "storageLayout": {
    "storage": [],
    "types": null
  }
}