{
  "address": "0xB6FDCd916a2A903DB4f941be2beCa8725fdA7635",
  "abi": [
    {
      "inputs": [],
      "name": "ApprovalCallerNotOwnerNorApproved",
      "type": "error"
    },
    {
      "inputs": [],
      "name": "ApprovalQueryForNonexistentToken",
      "type": "error"
    },
    {
      "inputs": [],
      "name": "ApproveToCaller",
      "type": "error"
    },
    {
      "inputs": [],
      "name": "BalanceQueryForZeroAddress",
      "type": "error"
    },
    {
      "inputs": [],
      "name": "ErrMaxSupplyExceeded",
      "type": "error"
    },
    {
      "inputs": [],
      "name": "ErrSenderIsNotSelf",
      "type": "error"
    },
    {
      "inputs": [
        {
          "internalType": "uint256",
          "name": "tokenId",
          "type": "uint256"
        }
      ],
      "name": "ErrTokenLocked",
      "type": "error"
    },
    {
      "inputs": [],
      "name": "MintERC2309QuantityExceedsLimit",
      "type": "error"
    },
    {
      "inputs": [],
      "name": "MintToZeroAddress",
      "type": "error"
    },
    {
      "inputs": [],
      "name": "MintZeroQuantity",
      "type": "error"
    },
    {
      "inputs": [
        {
          "internalType": "address",
          "name": "operator",
          "type": "address"
        }
      ],
      "name": "OperatorNotAllowed",
      "type": "error"
    },
    {
      "inputs": [],
      "name": "OwnerQueryForNonexistentToken",
      "type": "error"
    },
    {
      "inputs": [],
      "name": "OwnershipNotInitializedForExtraData",
      "type": "error"
    },
    {
      "inputs": [],
      "name": "TransferCallerNotOwnerNorApproved",
      "type": "error"
    },
    {
      "inputs": [],
      "name": "TransferFromIncorrectOwner",
      "type": "error"
    },
    {
      "inputs": [],
      "name": "TransferToNonERC721ReceiverImplementer",
      "type": "error"
    },
    {
      "inputs": [],
      "name": "TransferToZeroAddress",
      "type": "error"
    },
    {
      "inputs": [],
      "name": "URIQueryForNonexistentToken",
      "type": "error"
    },
    {
      "anonymous": false,
      "inputs": [
        {
          "indexed": true,
          "internalType": "address",
          "name": "owner",
          "type": "address"
        },
        {
          "indexed": true,
          "internalType": "address",
          "name": "approved",
          "type": "address"
        },
        {
          "indexed": true,
          "internalType": "uint256",
          "name": "tokenId",
          "type": "uint256"
        }
      ],
      "name": "Approval",
      "type": "event"
    },
    {
      "anonymous": false,
      "inputs": [
        {
          "indexed": true,
          "internalType": "address",
          "name": "owner",
          "type": "address"
        },
        {
          "indexed": true,
          "internalType": "address",
          "name": "operator",
          "type": "address"
        },
        {
          "indexed": false,
          "internalType": "bool",
          "name": "approved",
          "type": "bool"
        }
      ],
      "name": "ApprovalForAll",
      "type": "event"
    },
    {
      "anonymous": false,
      "inputs": [
        {
          "indexed": true,
          "internalType": "uint256",
          "name": "fromTokenId",
          "type": "uint256"
        },
        {
          "indexed": false,
          "internalType": "uint256",
          "name": "toTokenId",
          "type": "uint256"
        },
        {
          "indexed": true,
          "internalType": "address",
          "name": "from",
          "type": "address"
        },
        {
          "indexed": true,
          "internalType": "address",
          "name": "to",
          "type": "address"
        }
      ],
      "name": "ConsecutiveTransfer",
      "type": "event"
    },
    {
      "anonymous": false,
      "inputs": [
        {
          "indexed": false,
          "internalType": "uint256",
          "name": "tokenId",
          "type": "uint256"
        }
      ],
      "name": "Locked",
      "type": "event"
    },
    {
      "anonymous": false,
      "inputs": [
        {
          "indexed": true,
          "internalType": "address",
          "name": "previousOwner",
          "type": "address"
        },
        {
          "indexed": true,
          "internalType": "address",
          "name": "newOwner",
          "type": "address"
        }
      ],
      "name": "OwnershipTransferred",
      "type": "event"
    },
    {
      "anonymous": false,
      "inputs": [
        {
          "indexed": true,
          "internalType": "address",
          "name": "from",
          "type": "address"
        },
        {
          "indexed": true,
          "internalType": "address",
          "name": "to",
          "type": "address"
        },
        {
          "indexed": true,
          "internalType": "uint256",
          "name": "tokenId",
          "type": "uint256"
        }
      ],
      "name": "Transfer",
      "type": "event"
    },
    {
      "anonymous": false,
      "inputs": [
        {
          "indexed": false,
          "internalType": "uint256",
          "name": "tokenId",
          "type": "uint256"
        }
      ],
      "name": "Unlocked",
      "type": "event"
    },
    {
      "inputs": [],
      "name": "OPERATOR_FILTER_REGISTRY",
      "outputs": [
        {
          "internalType": "contract IOperatorFilterRegistry",
          "name": "",
          "type": "address"
        }
      ],
      "stateMutability": "view",
      "type": "function"
    },
    {
      "inputs": [
        {
          "internalType": "address",
          "name": "to",
          "type": "address"
        },
        {
          "internalType": "uint256",
          "name": "tokenId",
          "type": "uint256"
        }
      ],
      "name": "approve",
      "outputs": [],
      "stateMutability": "nonpayable",
      "type": "function"
    },
    {
      "inputs": [
        {
          "internalType": "address",
          "name": "owner",
          "type": "address"
        }
      ],
      "name": "balanceOf",
      "outputs": [
        {
          "internalType": "uint256",
          "name": "",
          "type": "uint256"
        }
      ],
      "stateMutability": "view",
      "type": "function"
    },
    {
      "inputs": [
        {
          "internalType": "uint256",
          "name": "id",
          "type": "uint256"
        }
      ],
      "name": "burn",
      "outputs": [],
      "stateMutability": "nonpayable",
      "type": "function"
    },
    {
      "inputs": [
        {
          "internalType": "uint256[]",
          "name": "ids",
          "type": "uint256[]"
        }
      ],
      "name": "burnBatch",
      "outputs": [],
      "stateMutability": "nonpayable",
      "type": "function"
    },
    {
      "inputs": [
        {
          "internalType": "uint256[]",
          "name": "ids",
          "type": "uint256[]"
        }
      ],
      "name": "burnBatchByFacet",
      "outputs": [],
      "stateMutability": "nonpayable",
      "type": "function"
    },
    {
      "inputs": [
        {
          "internalType": "uint256",
          "name": "id",
          "type": "uint256"
        }
      ],
      "name": "burnByFacet",
      "outputs": [],
      "stateMutability": "nonpayable",
      "type": "function"
    },
    {
      "inputs": [
        {
          "internalType": "uint256",
          "name": "tokenId",
          "type": "uint256"
        }
      ],
      "name": "getApproved",
      "outputs": [
        {
          "internalType": "address",
          "name": "",
          "type": "address"
        }
      ],
      "stateMutability": "view",
      "type": "function"
    },
    {
      "inputs": [
        {
          "internalType": "address",
          "name": "owner",
          "type": "address"
        },
        {
          "internalType": "address",
          "name": "operator",
          "type": "address"
        }
      ],
      "name": "isApprovedForAll",
      "outputs": [
        {
          "internalType": "bool",
          "name": "",
          "type": "bool"
        }
      ],
      "stateMutability": "view",
      "type": "function"
    },
    {
      "inputs": [
        {
          "internalType": "uint256",
          "name": "id",
          "type": "uint256"
        }
      ],
      "name": "lockByFacet",
      "outputs": [],
      "stateMutability": "nonpayable",
      "type": "function"
    },
    {
      "inputs": [
        {
          "internalType": "uint256[]",
          "name": "ids",
          "type": "uint256[]"
        }
      ],
      "name": "lockByFacet",
      "outputs": [],
      "stateMutability": "nonpayable",
      "type": "function"
    },
    {
      "inputs": [
        {
          "internalType": "uint256[]",
          "name": "ticketTokenIds",
          "type": "uint256[]"
        }
      ],
      "name": "locked",
      "outputs": [
        {
          "internalType": "bool[]",
          "name": "states",
          "type": "bool[]"
        }
      ],
      "stateMutability": "view",
      "type": "function"
    },
    {
      "inputs": [
        {
          "internalType": "uint256",
          "name": "tokenId",
          "type": "uint256"
        }
      ],
      "name": "locked",
      "outputs": [
        {
          "internalType": "bool",
          "name": "",
          "type": "bool"
        }
      ],
      "stateMutability": "view",
      "type": "function"
    },
    {
      "inputs": [],
      "name": "maxSupply",
      "outputs": [
        {
          "internalType": "uint256",
          "name": "",
          "type": "uint256"
        }
      ],
      "stateMutability": "view",
      "type": "function"
    },
    {
      "inputs": [
        {
          "internalType": "address",
          "name": "to",
          "type": "address"
        },
        {
          "internalType": "uint256",
          "name": "amount",
          "type": "uint256"
        }
      ],
      "name": "mintByFacet",
      "outputs": [],
      "stateMutability": "nonpayable",
      "type": "function"
    },
    {
      "inputs": [
        {
          "internalType": "address[]",
          "name": "tos",
          "type": "address[]"
        },
        {
          "internalType": "uint256[]",
          "name": "amounts",
          "type": "uint256[]"
        }
      ],
      "name": "mintByFacet",
      "outputs": [],
      "stateMutability": "nonpayable",
      "type": "function"
    },
    {
      "inputs": [
        {
          "internalType": "uint256",
          "name": "tokenId",
          "type": "uint256"
        }
      ],
      "name": "ownerOf",
      "outputs": [
        {
          "internalType": "address",
          "name": "",
          "type": "address"
        }
      ],
      "stateMutability": "view",
      "type": "function"
    },
    {
      "inputs": [],
      "name": "royaltiesEnforced",
      "outputs": [
        {
          "internalType": "bool",
          "name": "",
          "type": "bool"
        }
      ],
      "stateMutability": "view",
      "type": "function"
    },
    {
      "inputs": [
        {
          "internalType": "address",
          "name": "from",
          "type": "address"
        },
        {
          "internalType": "address",
          "name": "to",
          "type": "address"
        },
        {
          "internalType": "uint256",
          "name": "tokenId",
          "type": "uint256"
        }
      ],
      "name": "safeTransferFrom",
      "outputs": [],
      "stateMutability": "nonpayable",
      "type": "function"
    },
    {
      "inputs": [
        {
          "internalType": "address",
          "name": "from",
          "type": "address"
        },
        {
          "internalType": "address",
          "name": "to",
          "type": "address"
        },
        {
          "internalType": "uint256",
          "name": "tokenId",
          "type": "uint256"
        },
        {
          "internalType": "bytes",
          "name": "_data",
          "type": "bytes"
        }
      ],
      "name": "safeTransferFrom",
      "outputs": [],
      "stateMutability": "nonpayable",
      "type": "function"
    },
    {
      "inputs": [
        {
          "internalType": "address",
          "name": "operator",
          "type": "address"
        },
        {
          "internalType": "bool",
          "name": "approved",
          "type": "bool"
        }
      ],
      "name": "setApprovalForAll",
      "outputs": [],
      "stateMutability": "nonpayable",
      "type": "function"
    },
    {
      "inputs": [],
      "name": "totalSupply",
      "outputs": [
        {
          "internalType": "uint256",
          "name": "",
          "type": "uint256"
        }
      ],
      "stateMutability": "view",
      "type": "function"
    },
    {
      "inputs": [
        {
          "internalType": "address",
          "name": "from",
          "type": "address"
        },
        {
          "internalType": "address",
          "name": "to",
          "type": "address"
        },
        {
          "internalType": "uint256",
          "name": "tokenId",
          "type": "uint256"
        }
      ],
      "name": "transferFrom",
      "outputs": [],
      "stateMutability": "nonpayable",
      "type": "function"
    },
    {
      "inputs": [
        {
          "internalType": "uint256[]",
          "name": "ids",
          "type": "uint256[]"
        }
      ],
      "name": "unlockByFacet",
      "outputs": [],
      "stateMutability": "nonpayable",
      "type": "function"
    },
    {
      "inputs": [
        {
          "internalType": "uint256",
          "name": "id",
          "type": "uint256"
        }
      ],
      "name": "unlockByFacet",
      "outputs": [],
      "stateMutability": "nonpayable",
      "type": "function"
    }
  ],
  "transactionHash": "0x78f4024a06bba8784fc087893042bd188f20c9d20401e2e4d21f3475170e56db",
  "args": [],
  "numDeployments": 4,
  "solcInputHash": "73fee24f599107b4a131a9eab0bacbc1",
  "bytecode": "0x60806040523480156200001157600080fd5b50733cc6cdda760b79bafa08df41ecfa224f810dceb660016daaeb6d7670e522a718067333cd4e3b156200016e578015620000bc57604051633e9f1edf60e11b81523060048201526001600160a01b03831660248201526daaeb6d7670e522a718067333cd4e90637d3e3dbe906044015b600060405180830381600087803b1580156200009d57600080fd5b505af1158015620000b2573d6000803e3d6000fd5b505050506200016e565b6001600160a01b038216156200010d5760405163a0af290360e01b81523060048201526001600160a01b03831660248201526daaeb6d7670e522a718067333cd4e9063a0af29039060440162000082565b604051632210724360e11b81523060048201526daaeb6d7670e522a718067333cd4e90634420e48690602401600060405180830381600087803b1580156200015457600080fd5b505af115801562000169573d6000803e3d6000fd5b505050505b5050611efa80620001806000396000f3fe608060405234801561001057600080fd5b50600436106101a35760003560e01c806352f50967116100ee578063b45a3c0e11610097578063d5abeb0111610071578063d5abeb011461038b578063e4623c1b14610393578063e985e9c5146103a6578063f9497f34146103b957600080fd5b8063b45a3c0e14610352578063b88d4fde14610365578063c7d1bc831461037857600080fd5b80637d151549116100c85780637d151549146102f6578063856e31c11461032c578063a22cb4651461033f57600080fd5b806352f50967146102bd5780636352211e146102d057806370a08231146102e357600080fd5b80633d64bec01161015057806342966c681161012a57806342966c681461028457806349142a14146102975780634a371f64146102aa57600080fd5b80633d64bec01461023c57806341f434341461025c57806342842e0e1461027157600080fd5b806323b872dd1161018157806323b872dd146102035780632d4f475f146102165780633c2a04591461022957600080fd5b8063081812fc146101a8578063095ea7b3146101d857806318160ddd146101ed575b600080fd5b6101bb6101b63660046119b6565b6103cc565b6040516001600160a01b0390911681526020015b60405180910390f35b6101eb6101e63660046119eb565b6103dd565b005b6101f56103eb565b6040519081526020016101cf565b6101eb610211366004611a15565b61043d565b6101eb6102243660046119eb565b61044d565b6101eb6102373660046119b6565b610477565b61024f61024a366004611a98565b6104a3565b6040516101cf9190611b3e565b6101bb6daaeb6d7670e522a718067333cd4e81565b6101eb61027f366004611a15565b610553565b6101eb6102923660046119b6565b61056e565b6101eb6102a5366004611bd0565b610579565b6101eb6102b8366004611a98565b610605565b6101eb6102cb366004611a98565b610665565b6101bb6102de3660046119b6565b6106c5565b6101f56102f1366004611c3c565b6106d0565b7f9c1f08fc16fa10f59a3ac18a8c5596ea456f2d66793744df41c7c3e4eb2197905460ff165b60405190151581526020016101cf565b6101eb61033a3660046119b6565b6106db565b6101eb61034d366004611c65565b610704565b61031c6103603660046119b6565b61070e565b6101eb610373366004611c9c565b610719565b6101eb6103863660046119b6565b61072b565b6101f5610754565b6101eb6103a1366004611a98565b61077e565b61031c6103b4366004611d5c565b6107c0565b6101eb6103c7366004611a98565b610812565b60006103d782610872565b92915050565b6103e782826108ee565b5050565b60006104387faa3a0910ce5fb062d392dc5a532ff9d50bb9d0f614a8eda1a3ec786de0b761f4547faa3a0910ce5fb062d392dc5a532ff9d50bb9d0f614a8eda1a3ec786de0b761f3540390565b905090565b6104488383836108f8565b505050565b30331461046d5760405163fd570b5160e01b815260040160405180910390fd5b6103e78282610903565b3033146104975760405163fd570b5160e01b815260040160405180910390fd5b6104a081610abd565b50565b6060815167ffffffffffffffff8111156104bf576104bf611a51565b6040519080825280602002602001820160405280156104e8578160200160208202803683370190505b50905060005b825181101561054d5761051983828151811061050c5761050c611d8f565b6020026020010151610ac8565b82828151811061052b5761052b611d8f565b911515602092830291909101909101528061054581611dbb565b9150506104ee565b50919050565b61044883838360405180602001604052806000815250610b0a565b6104a0816001610b16565b3033146105995760405163fd570b5160e01b815260040160405180910390fd5b60005b838110156105fe576105ec8585838181106105b9576105b9611d8f565b90506020020160208101906105ce9190611c3c565b8484848181106105e0576105e0611d8f565b90506020020135610903565b806105f681611dbb565b91505061059c565b5050505050565b3033146106255760405163fd570b5160e01b815260040160405180910390fd5b60005b81518110156103e75761065382828151811061064657610646611d8f565b6020026020010151610dc7565b8061065d81611dbb565b915050610628565b3033146106855760405163fd570b5160e01b815260040160405180910390fd5b60005b81518110156103e7576106b38282815181106106a6576106a6611d8f565b6020026020010151610abd565b806106bd81611dbb565b915050610688565b60006103d782610e3d565b60006103d782610e48565b3033146106fb5760405163fd570b5160e01b815260040160405180910390fd5b6104a081610ecf565b6103e78282610f3d565b60006103d782610ac8565b61072584848484610b0a565b50505050565b30331461074b5760405163fd570b5160e01b815260040160405180910390fd5b6104a081610dc7565b60006104387faa3a0910ce5fb062d392dc5a532ff9d50bb9d0f614a8eda1a3ec786de0b761f55490565b60005b81518110156103e7576107ae82828151811061079f5761079f611d8f565b60200260200101516001610b16565b806107b881611dbb565b915050610781565b6001600160a01b0380831660009081527f2569078dfb4b0305704d3008e7403993ae9601b85f7ae5e742de3de8f8011c476020908152604080832093851683529290529081205460ff165b9392505050565b3033146108325760405163fd570b5160e01b815260040160405180910390fd5b60005b81518110156103e75761086082828151811061085357610853611d8f565b6020026020010151610ecf565b8061086a81611dbb565b915050610835565b600061087d82610f47565b6108b3576040517fcf4700e400000000000000000000000000000000000000000000000000000000815260040160405180910390fd5b5060009081527f2569078dfb4b0305704d3008e7403993ae9601b85f7ae5e742de3de8f8011c4660205260409020546001600160a01b031690565b6103e78282610fad565b610448838383610fc1565b7faa3a0910ce5fb062d392dc5a532ff9d50bb9d0f614a8eda1a3ec786de0b761f3546000829003610960576040517fb562e8dd00000000000000000000000000000000000000000000000000000000815260040160405180910390fd5b61096d6000848385610fe6565b6001600160a01b03831660008181527f2569078dfb4b0305704d3008e7403993ae9601b85f7ae5e742de3de8f8011c456020908152604080832080546801000000000000000188020190558483527f2569078dfb4b0305704d3008e7403993ae9601b85f7ae5e742de3de8f8011c4490915281206001851460e11b4260a01b178317905582840190839083907fddf252ad1be2c89b69c2b068fc378daa952ba7f163c4a11628f55a4df523b3ef8180a4600183015b818114610a5a57808360007fddf252ad1be2c89b69c2b068fc378daa952ba7f163c4a11628f55a4df523b3ef600080a4600101610a22565b5081600003610a95576040517f2e07630000000000000000000000000000000000000000000000000000000000815260040160405180910390fd5b7faa3a0910ce5fb062d392dc5a532ff9d50bb9d0f614a8eda1a3ec786de0b761f35550505050565b6104a0816000610b16565b600881901c60009081527f939803063e013e06d8dc3e649f5637d6c85e7cdf5a06a1acfb7ec0a27fc9114b6020526040812054600160ff84161b1615156103d7565b61072584848484610ff2565b6000610b2183611018565b905080600080610b5e8660009081527f2569078dfb4b0305704d3008e7403993ae9601b85f7ae5e742de3de8f8011c466020526040902080549091565b915091508415610c0457610b8a8184610b756110f5565b6001600160a01b039081169116811491141790565b610c0457610be783610b9a6110f5565b6001600160a01b0391821660009081527f2569078dfb4b0305704d3008e7403993ae9601b85f7ae5e742de3de8f8011c476020908152604080832093909416825291909152205460ff1690565b610c0457604051632ce44b5f60e11b815260040160405180910390fd5b610c12836000886001610fe6565b8015610c1d57600082555b6001600160a01b03831660008181527f2569078dfb4b0305704d3008e7403993ae9601b85f7ae5e742de3de8f8011c456020526040902080546fffffffffffffffffffffffffffffffff0190554260a01b177c03000000000000000000000000000000000000000000000000000000001760008781527f2569078dfb4b0305704d3008e7403993ae9601b85f7ae5e742de3de8f8011c446020526040812091909155600160e11b85169003610d5f576001860160008181527f2569078dfb4b0305704d3008e7403993ae9601b85f7ae5e742de3de8f8011c4460205260408120549003610d5d577faa3a0910ce5fb062d392dc5a532ff9d50bb9d0f614a8eda1a3ec786de0b761f3548114610d5d5760008181527f2569078dfb4b0305704d3008e7403993ae9601b85f7ae5e742de3de8f8011c44602052604090208590555b505b60405186906000906001600160a01b038616907fddf252ad1be2c89b69c2b068fc378daa952ba7f163c4a11628f55a4df523b3ef908390a450507faa3a0910ce5fb062d392dc5a532ff9d50bb9d0f614a8eda1a3ec786de0b761f48054600101905550505050565b600881901c60009081527f939803063e013e06d8dc3e649f5637d6c85e7cdf5a06a1acfb7ec0a27fc9114b602052604090208054600160ff84161b191690556040518181527ff27b6ce5b2f5e68ddb2fd95a8a909d4ecf1daaac270935fff052feacb24f1842906020015b60405180910390a150565b60006103d782611018565b60006001600160a01b038216610e8a576040517f8f4eb60400000000000000000000000000000000000000000000000000000000815260040160405180910390fd5b506001600160a01b031660009081527f2569078dfb4b0305704d3008e7403993ae9601b85f7ae5e742de3de8f8011c45602052604090205467ffffffffffffffff1690565b600881901c60009081527f939803063e013e06d8dc3e649f5637d6c85e7cdf5a06a1acfb7ec0a27fc9114b602052604090208054600160ff84161b1790556040518181527f032bc66be43dbccb7487781d168eb7bda224628a3b2c3388bdf69b532a3a161190602001610e32565b6103e782826110ff565b60007faa3a0910ce5fb062d392dc5a532ff9d50bb9d0f614a8eda1a3ec786de0b761f354821080156103d757505060009081527f2569078dfb4b0305704d3008e7403993ae9601b85f7ae5e742de3de8f8011c446020526040902054600160e01b161590565b81610fb781611113565b6104488383611203565b826001600160a01b0381163314610fdb57610fdb33611113565b610725848484611305565b61072584848484611594565b836001600160a01b038116331461100c5761100c33611113565b6105fe85858585611624565b6000817faa3a0910ce5fb062d392dc5a532ff9d50bb9d0f614a8eda1a3ec786de0b761f3548110156110c35760008181527f2569078dfb4b0305704d3008e7403993ae9601b85f7ae5e742de3de8f8011c44602052604081205490600160e01b821690036110c1575b8060000361080b57506000190160008181527f2569078dfb4b0305704d3008e7403993ae9601b85f7ae5e742de3de8f8011c446020526040902054611081565b505b6040517fdf2d9b4200000000000000000000000000000000000000000000000000000000815260040160405180910390fd5b6000610438611668565b8161110981611113565b6104488383611672565b6daaeb6d7670e522a718067333cd4e3b156104a0576040517fc61711340000000000000000000000000000000000000000000000000000000081523060048201526001600160a01b03821660248201526daaeb6d7670e522a718067333cd4e9063c617113490604401602060405180830381865afa158015611199573d6000803e3d6000fd5b505050506040513d601f19601f820116820180604052508101906111bd9190611dd4565b6104a0576040517fede71dcc0000000000000000000000000000000000000000000000000000000081526001600160a01b03821660048201526024015b60405180910390fd5b600061120e82610e3d565b9050806001600160a01b03166112226110f5565b6001600160a01b0316146112725761123c81610b9a6110f5565b611272576040517fcfb3b94200000000000000000000000000000000000000000000000000000000815260040160405180910390fd5b60008281527f2569078dfb4b0305704d3008e7403993ae9601b85f7ae5e742de3de8f8011c46602052604080822080547fffffffffffffffffffffffff0000000000000000000000000000000000000000166001600160a01b0387811691821790925591518593918516917f8c5be1e5ebec7d5bd14f71427d1e84f3dd0314c0f7b2291e5b200ac8c7c3b92591a4505050565b600061131082611018565b9050836001600160a01b0316816001600160a01b03161461135d576040517fa114810000000000000000000000000000000000000000000000000000000000815260040160405180910390fd5b60008281527f2569078dfb4b0305704d3008e7403993ae9601b85f7ae5e742de3de8f8011c466020526040902080546113998187610b756110f5565b6113c6576113a986610b9a6110f5565b6113c657604051632ce44b5f60e11b815260040160405180910390fd5b6001600160a01b038516611406576040517fea553b3400000000000000000000000000000000000000000000000000000000815260040160405180910390fd5b6114138686866001610fe6565b801561141e57600082555b6001600160a01b0386811660009081527f2569078dfb4b0305704d3008e7403993ae9601b85f7ae5e742de3de8f8011c4560205260408082208054600019019055918716808252919020805460010190554260a01b17600160e11b1760008581527f2569078dfb4b0305704d3008e7403993ae9601b85f7ae5e742de3de8f8011c446020526040812091909155600160e11b8416900361154b576001840160008181527f2569078dfb4b0305704d3008e7403993ae9601b85f7ae5e742de3de8f8011c4460205260408120549003611549577faa3a0910ce5fb062d392dc5a532ff9d50bb9d0f614a8eda1a3ec786de0b761f35481146115495760008181527f2569078dfb4b0305704d3008e7403993ae9601b85f7ae5e742de3de8f8011c44602052604090208490555b505b83856001600160a01b0316876001600160a01b03167fddf252ad1be2c89b69c2b068fc378daa952ba7f163c4a11628f55a4df523b3ef60405160405180910390a4505050505050565b6001600160a01b038416156116185760005b81811015611616576115c06115bb8285611df1565b610ac8565b15611604576115cf8184611df1565b6040517f731b8ece0000000000000000000000000000000000000000000000000000000081526004016111fa91815260200190565b8061160e81611dbb565b9150506115a6565b505b6107258484848461177c565b61162f8484846108f8565b6001600160a01b0383163b156107255761164b8484848461184e565b610725576040516368d2bf6b60e11b815260040160405180910390fd5b6000610438611970565b61167a6110f5565b6001600160a01b0316826001600160a01b0316036116c4576040517fb06307db00000000000000000000000000000000000000000000000000000000815260040160405180910390fd5b807f2569078dfb4b0305704d3008e7403993ae9601b85f7ae5e742de3de8f8011c4760006116f06110f5565b6001600160a01b03908116825260208083019390935260409182016000908120918716808252919093529120805460ff1916921515929092179091556117346110f5565b6001600160a01b03167f17307eab39ab6107e8899845ad3d59bd9653f200f220920489ca2b5937696c3183604051611770911515815260200190565b60405180910390a35050565b6001600160a01b038416611849576001600160a01b03831615611849577faa3a0910ce5fb062d392dc5a532ff9d50bb9d0f614a8eda1a3ec786de0b761f554816118077faa3a0910ce5fb062d392dc5a532ff9d50bb9d0f614a8eda1a3ec786de0b761f4547faa3a0910ce5fb062d392dc5a532ff9d50bb9d0f614a8eda1a3ec786de0b761f3540390565b6118119190611df1565b1115611849576040517fb746b1c900000000000000000000000000000000000000000000000000000000815260040160405180910390fd5b610725565b6000836001600160a01b031663150b7a026118676110f5565b8786866040518563ffffffff1660e01b81526004016118899493929190611e09565b6020604051808303816000875af19250505080156118c4575060408051601f3d908101601f191682019092526118c191810190611e82565b60015b611922573d8080156118f2576040519150601f19603f3d011682016040523d82523d6000602084013e6118f7565b606091505b50805160000361191a576040516368d2bf6b60e11b815260040160405180910390fd5b805181602001fd5b7fffffffff00000000000000000000000000000000000000000000000000000000167f150b7a0200000000000000000000000000000000000000000000000000000000149050949350505050565b7fdb1d5e345c4903e9a32b6674ecc8b1deaddbbb2551474fb34c9d34becbe7f420546000906001600160a01b031633036119b1575060131936013560601c90565b503390565b6000602082840312156119c857600080fd5b5035919050565b80356001600160a01b03811681146119e657600080fd5b919050565b600080604083850312156119fe57600080fd5b611a07836119cf565b946020939093013593505050565b600080600060608486031215611a2a57600080fd5b611a33846119cf565b9250611a41602085016119cf565b9150604084013590509250925092565b634e487b7160e01b600052604160045260246000fd5b604051601f8201601f1916810167ffffffffffffffff81118282101715611a9057611a90611a51565b604052919050565b60006020808385031215611aab57600080fd5b823567ffffffffffffffff80821115611ac357600080fd5b818501915085601f830112611ad757600080fd5b813581811115611ae957611ae9611a51565b8060051b9150611afa848301611a67565b8181529183018401918481019088841115611b1457600080fd5b938501935b83851015611b3257843582529385019390850190611b19565b98975050505050505050565b6020808252825182820181905260009190848201906040850190845b81811015611b78578351151583529284019291840191600101611b5a565b50909695505050505050565b60008083601f840112611b9657600080fd5b50813567ffffffffffffffff811115611bae57600080fd5b6020830191508360208260051b8501011115611bc957600080fd5b9250929050565b60008060008060408587031215611be657600080fd5b843567ffffffffffffffff80821115611bfe57600080fd5b611c0a88838901611b84565b90965094506020870135915080821115611c2357600080fd5b50611c3087828801611b84565b95989497509550505050565b600060208284031215611c4e57600080fd5b61080b826119cf565b80151581146104a057600080fd5b60008060408385031215611c7857600080fd5b611c81836119cf565b91506020830135611c9181611c57565b809150509250929050565b60008060008060808587031215611cb257600080fd5b611cbb856119cf565b93506020611cca8187016119cf565b935060408601359250606086013567ffffffffffffffff80821115611cee57600080fd5b818801915088601f830112611d0257600080fd5b813581811115611d1457611d14611a51565b611d26601f8201601f19168501611a67565b91508082528984828501011115611d3c57600080fd5b808484018584013760008482840101525080935050505092959194509250565b60008060408385031215611d6f57600080fd5b611d78836119cf565b9150611d86602084016119cf565b90509250929050565b634e487b7160e01b600052603260045260246000fd5b634e487b7160e01b600052601160045260246000fd5b600060018201611dcd57611dcd611da5565b5060010190565b600060208284031215611de657600080fd5b815161080b81611c57565b60008219821115611e0457611e04611da5565b500190565b60006001600160a01b038087168352602081871681850152856040850152608060608501528451915081608085015260005b82811015611e575785810182015185820160a001528101611e3b565b82811115611e6957600060a084870101525b5050601f01601f19169190910160a00195945050505050565b600060208284031215611e9457600080fd5b81517fffffffff000000000000000000000000000000000000000000000000000000008116811461080b57600080fdfea26469706673582212206fa0877e11d0f07d83f168a9266d951e2a92b5db2bdd5cb16991d589f917813764736f6c634300080f0033",
  "devdoc": {
    "custom:category": "NFTs",
    "custom:provides-interfaces": "IERC721 IERC5192 IERC721ABase IERC721SupplyExtension IERC721MintableExtension IERC721LockableExtension IERC721BurnableExtension IRoyaltyEnforcement",
    "custom:type": "eip-2535-facet",
    "kind": "dev",
    "methods": {
      "approve(address,uint256)": {
        "details": "Gives permission to `to` to transfer `tokenId` token to another account. The approval is cleared when the token is transferred. Only a single account can be approved at a time, so approving the zero address clears previous approvals. Requirements: - The caller must own the token or be an approved operator. - `tokenId` must exist. Emits an {Approval} event."
      },
      "balanceOf(address)": {
        "details": "Returns the number of tokens in `owner`'s account."
      },
      "burnBatchByFacet(uint256[])": {
        "details": "Burn from another facet, allow skipping of ownership check as facets are trusted."
      },
      "burnByFacet(uint256)": {
        "details": "Burn from another facet, allow skipping of ownership check as facets are trusted."
      },
      "getApproved(uint256)": {
        "details": "Returns the account approved for `tokenId` token. Requirements: - `tokenId` must exist."
      },
      "isApprovedForAll(address,address)": {
        "details": "Returns if the `operator` is allowed to manage all of the assets of `owner`. See {setApprovalForAll}."
      },
      "lockByFacet(uint256)": {
        "details": "Locks `amount` of tokens of `account`, of token type `id`. Requirements: - the caller must be diamond itself (other facets)."
      },
      "locked(uint256)": {
        "details": "SBTs assigned to zero address are considered invalid, and queries about them do throw.",
        "params": {
          "tokenId": "The identifier for an SBT."
        }
      },
      "maxSupply()": {
        "details": "Maximum amount of tokens possible to exist."
      },
      "mintByFacet(address,uint256)": {
        "details": "Creates `amount` new tokens for `to`, of token type `id`. See {ERC721A-_mint}. Requirements: - the caller must be diamond itself (other facets)."
      },
      "ownerOf(uint256)": {
        "details": "Returns the owner of the `tokenId` token. Requirements: - `tokenId` must exist."
      },
      "safeTransferFrom(address,address,uint256)": {
        "details": "Equivalent to `safeTransferFrom(from, to, tokenId, '')`."
      },
      "safeTransferFrom(address,address,uint256,bytes)": {
        "details": "Safely transfers `tokenId` token from `from` to `to`, checking first that contract recipients are aware of the ERC721 protocol to prevent tokens from being forever locked. Requirements: - `from` cannot be the zero address. - `to` cannot be the zero address. - `tokenId` token must exist and be owned by `from`. - If the caller is not `from`, it must be have been allowed to move this token by either {approve} or {setApprovalForAll}. - If `to` refers to a smart contract, it must implement {IERC721Receiver-onERC721Received}, which is called upon a safe transfer. Emits a {Transfer} event."
      },
      "setApprovalForAll(address,bool)": {
        "details": "Approve or remove `operator` as an operator for the caller. Operators can call {transferFrom} or {safeTransferFrom} for any token owned by the caller. Requirements: - The `operator` cannot be the caller. Emits an {ApprovalForAll} event."
      },
      "totalSupply()": {
        "details": "Total amount of tokens that exist in the collection."
      },
      "transferFrom(address,address,uint256)": {
        "details": "Transfers `tokenId` from `from` to `to`. WARNING: Usage of this method is discouraged, use {safeTransferFrom} whenever possible. Requirements: - `from` cannot be the zero address. - `to` cannot be the zero address. - `tokenId` token must be owned by `from`. - If the caller is not `from`, it must be approved to move this token by either {approve} or {setApprovalForAll}. Emits a {Transfer} event."
      },
      "unlockByFacet(uint256)": {
        "details": "Un-locks `amount` of tokens of `account`, of token type `id`. Requirements: - the caller must be diamond itself (other facets)."
      }
    },
    "title": "ERC721 (A) - with meta-transactions",
    "version": 1
  },
  "userdoc": {
    "errors": {
      "ApprovalCallerNotOwnerNorApproved()": [
        {
          "notice": "The caller must own the token or be an approved operator."
        }
      ],
      "ApprovalQueryForNonexistentToken()": [
        {
          "notice": "The token does not exist."
        }
      ],
      "ApproveToCaller()": [
        {
          "notice": "The caller cannot approve to their own address."
        }
      ],
      "BalanceQueryForZeroAddress()": [
        {
          "notice": "Cannot query the balance for the zero address."
        }
      ],
      "ErrSenderIsNotSelf()": [
        {
          "notice": "The caller must be the current contract itself."
        }
      ],
      "MintERC2309QuantityExceedsLimit()": [
        {
          "notice": "The `quantity` minted with ERC2309 exceeds the safety limit."
        }
      ],
      "MintToZeroAddress()": [
        {
          "notice": "Cannot mint to the zero address."
        }
      ],
      "MintZeroQuantity()": [
        {
          "notice": "The quantity of tokens minted must be more than zero."
        }
      ],
      "OwnerQueryForNonexistentToken()": [
        {
          "notice": "The token does not exist."
        }
      ],
      "OwnershipNotInitializedForExtraData()": [
        {
          "notice": "The `extraData` cannot be set on an unintialized ownership slot."
        }
      ],
      "TransferCallerNotOwnerNorApproved()": [
        {
          "notice": "The caller must own the token or be an approved operator."
        }
      ],
      "TransferFromIncorrectOwner()": [
        {
          "notice": "The token must be owned by `from`."
        }
      ],
      "TransferToNonERC721ReceiverImplementer()": [
        {
          "notice": "Cannot safely transfer to a contract that does not implement the ERC721Receiver interface."
        }
      ],
      "TransferToZeroAddress()": [
        {
          "notice": "Cannot transfer to the zero address."
        }
      ],
      "URIQueryForNonexistentToken()": [
        {
          "notice": "The token does not exist."
        }
      ]
    },
    "events": {
      "Locked(uint256)": {
        "notice": "Emitted when the locking status is changed to locked."
      },
      "Unlocked(uint256)": {
        "notice": "Emitted when the locking status is changed to unlocked."
      }
    },
    "kind": "user",
    "methods": {
      "locked(uint256)": {
        "notice": "Returns the locking status of an Soulbound Token"
      }
    },
    "notice": "Azuki's implemntation of standard EIP-721 with ability to accept meta transactions (mainly transfer or burn methods).",
    "version": 1
  },
  "storageLayout": {
    "storage": [],
    "types": null
  }
}