{
  "address": "0xc75ceE5892DA721D1E0b710cd22e6bC83dA3f329",
  "abi": [
    {
      "anonymous": false,
      "inputs": [
        {
          "indexed": true,
          "internalType": "address",
          "name": "previousOwner",
          "type": "address"
        },
        {
          "indexed": true,
          "internalType": "address",
          "name": "newOwner",
          "type": "address"
        }
      ],
      "name": "OwnershipTransferred",
      "type": "event"
    },
    {
      "inputs": [
        {
          "internalType": "address[]",
          "name": "tos",
          "type": "address[]"
        },
        {
          "internalType": "uint256[]",
          "name": "amounts",
          "type": "uint256[]"
        }
      ],
      "name": "mintByOwner",
      "outputs": [],
      "stateMutability": "nonpayable",
      "type": "function"
    },
    {
      "inputs": [
        {
          "internalType": "address",
          "name": "to",
          "type": "address"
        },
        {
          "internalType": "uint256",
          "name": "amount",
          "type": "uint256"
        }
      ],
      "name": "mintByOwner",
      "outputs": [],
      "stateMutability": "nonpayable",
      "type": "function"
    }
  ],
  "transactionHash": "0x793055baab9aa0fc18a5a7e821364e089603372f890d04d4e7dd92441bf048d8",
  "args": [],
  "numDeployments": 1,
  "solcInputHash": "a7e4e7518f7d9e0ad0d003b1c1146623",
  "bytecode": "0x608060405234801561001057600080fd5b50610495806100206000396000f3fe608060405234801561001057600080fd5b50600436106100365760003560e01c80632c3d8acb1461003b5780633542aee214610050575b600080fd5b61004e610049366004610312565b610063565b005b61004e61005e36600461039a565b61016b565b7fc0ea367cb0174dd5521cd2372c76f8c13e6c1f832c71f1d6e0cbc185c9cc8ed4546001600160a01b0316610096610271565b6001600160a01b0316146100f15760405162461bcd60e51b815260206004820152601d60248201527f4f776e61626c653a2073656e646572206d757374206265206f776e657200000060448201526064015b60405180910390fd5b6040517f49142a1400000000000000000000000000000000000000000000000000000000815230906349142a14906101339087908790879087906004016103c4565b600060405180830381600087803b15801561014d57600080fd5b505af1158015610161573d6000803e3d6000fd5b5050505050505050565b7fc0ea367cb0174dd5521cd2372c76f8c13e6c1f832c71f1d6e0cbc185c9cc8ed4546001600160a01b031661019e610271565b6001600160a01b0316146101f45760405162461bcd60e51b815260206004820152601d60248201527f4f776e61626c653a2073656e646572206d757374206265206f776e657200000060448201526064016100e8565b6040517f2d4f475f0000000000000000000000000000000000000000000000000000000081526001600160a01b0383166004820152602481018290523090632d4f475f90604401600060405180830381600087803b15801561025557600080fd5b505af1158015610269573d6000803e3d6000fd5b505050505050565b600061027b610280565b905090565b7fdb1d5e345c4903e9a32b6674ecc8b1deaddbbb2551474fb34c9d34becbe7f420546000906001600160a01b031633036102c1575060131936013560601c90565b503390565b60008083601f8401126102d857600080fd5b50813567ffffffffffffffff8111156102f057600080fd5b6020830191508360208260051b850101111561030b57600080fd5b9250929050565b6000806000806040858703121561032857600080fd5b843567ffffffffffffffff8082111561034057600080fd5b61034c888389016102c6565b9096509450602087013591508082111561036557600080fd5b50610372878288016102c6565b95989497509550505050565b80356001600160a01b038116811461039557600080fd5b919050565b600080604083850312156103ad57600080fd5b6103b68361037e565b946020939093013593505050565b6040808252810184905260008560608301825b87811015610405576001600160a01b036103f08461037e565b168252602092830192909101906001016103d7565b5083810360208501528481527f07ffffffffffffffffffffffffffffffffffffffffffffffffffffffffffffff85111561043e57600080fd5b8460051b91508186602083013760009101602001908152969550505050505056fea264697066735822122080ed117f685436e754f3d5dfcc7573bc725ebd2eb0e5fb519690fe57c0f7c08c64736f6c634300080f0033",
  "devdoc": {
    "custom:category": "NFTs",
    "custom:provides-interfaces": "IERC721MintableOwnable",
    "custom:required-dependencies": "IERC721MintableExtension",
    "custom:type": "eip-2535-facet",
    "kind": "dev",
    "methods": {
      "mintByOwner(address,uint256)": {
        "details": "Creates `amount` new tokens for `to`, of token type `id`. See {ERC721-_mint}. Requirements: - the caller must be diamond owner."
      }
    },
    "title": "ERC721 - Mint as Owner - With ERC2771 Context",
    "version": 1
  },
  "userdoc": {
    "kind": "user",
    "methods": {},
    "notice": "Allow minting as owner via meta transactions, signed by the owner private key. (supports ERC721A)",
    "version": 1
  },
  "storageLayout": {
    "storage": [],
    "types": null
  }
}