{
  "address": "0xaAb0d0C6Bc85720c16049B6b3725F0C98AAEcd68",
  "abi": [
    {
      "inputs": [],
      "name": "ErrMaxSupplyExceeded",
      "type": "error"
    },
    {
      "anonymous": false,
      "inputs": [
        {
          "indexed": true,
          "internalType": "address",
          "name": "previousOwner",
          "type": "address"
        },
        {
          "indexed": true,
          "internalType": "address",
          "name": "newOwner",
          "type": "address"
        }
      ],
      "name": "OwnershipTransferred",
      "type": "event"
    },
    {
      "inputs": [
        {
          "internalType": "uint256",
          "name": "tierId",
          "type": "uint256"
        },
        {
          "internalType": "address",
          "name": "minter",
          "type": "address"
        },
        {
          "internalType": "uint256",
          "name": "maxAllowance",
          "type": "uint256"
        }
      ],
      "name": "maxMintableForTier",
      "outputs": [
        {
          "internalType": "uint256",
          "name": "maxMintable",
          "type": "uint256"
        }
      ],
      "stateMutability": "view",
      "type": "function"
    },
    {
      "inputs": [
        {
          "internalType": "uint256",
          "name": "tierId",
          "type": "uint256"
        },
        {
          "internalType": "uint256",
          "name": "count",
          "type": "uint256"
        },
        {
          "internalType": "uint256",
          "name": "maxAllowance",
          "type": "uint256"
        },
        {
          "internalType": "bytes32[]",
          "name": "allowlistProof",
          "type": "bytes32[]"
        },
        {
          "internalType": "bytes",
          "name": "signature",
          "type": "bytes"
        },
        {
          "internalType": "uint256",
          "name": "validUntil",
          "type": "uint256"
        }
      ],
      "name": "mintByTier",
      "outputs": [],
      "stateMutability": "payable",
      "type": "function"
    },
    {
      "inputs": [
        {
          "internalType": "uint256",
          "name": "tierId",
          "type": "uint256"
        },
        {
          "internalType": "address",
          "name": "minter",
          "type": "address"
        },
        {
          "internalType": "uint256",
          "name": "maxAllowance",
          "type": "uint256"
        },
        {
          "internalType": "bytes32[]",
          "name": "allowlistProof",
          "type": "bytes32[]"
        }
      ],
      "name": "onTierAllowlist",
      "outputs": [
        {
          "internalType": "bool",
          "name": "",
          "type": "bool"
        }
      ],
      "stateMutability": "view",
      "type": "function"
    },
    {
      "inputs": [
        {
          "internalType": "uint256",
          "name": "tierId",
          "type": "uint256"
        }
      ],
      "name": "remainingForTier",
      "outputs": [
        {
          "internalType": "uint256",
          "name": "",
          "type": "uint256"
        }
      ],
      "stateMutability": "view",
      "type": "function"
    },
    {
      "inputs": [],
      "name": "reservedMints",
      "outputs": [
        {
          "internalType": "uint256",
          "name": "",
          "type": "uint256"
        }
      ],
      "stateMutability": "view",
      "type": "function"
    },
    {
      "inputs": [
        {
          "internalType": "uint256",
          "name": "tierId",
          "type": "uint256"
        }
      ],
      "name": "tierMints",
      "outputs": [
        {
          "internalType": "uint256",
          "name": "",
          "type": "uint256"
        }
      ],
      "stateMutability": "view",
      "type": "function"
    },
    {
      "inputs": [
        {
          "internalType": "uint256",
          "name": "tierId",
          "type": "uint256"
        }
      ],
      "name": "tiers",
      "outputs": [
        {
          "components": [
            {
              "internalType": "uint256",
              "name": "start",
              "type": "uint256"
            },
            {
              "internalType": "uint256",
              "name": "end",
              "type": "uint256"
            },
            {
              "internalType": "address",
              "name": "currency",
              "type": "address"
            },
            {
              "internalType": "uint256",
              "name": "price",
              "type": "uint256"
            },
            {
              "internalType": "uint256",
              "name": "maxPerWallet",
              "type": "uint256"
            },
            {
              "internalType": "bytes32",
              "name": "merkleRoot",
              "type": "bytes32"
            },
            {
              "internalType": "uint256",
              "name": "reserved",
              "type": "uint256"
            },
            {
              "internalType": "uint256",
              "name": "maxAllocation",
              "type": "uint256"
            },
            {
              "internalType": "address",
              "name": "signer",
              "type": "address"
            }
          ],
          "internalType": "struct ITieredSalesInternal.Tier",
          "name": "",
          "type": "tuple"
        }
      ],
      "stateMutability": "view",
      "type": "function"
    },
    {
      "inputs": [],
      "name": "totalReserved",
      "outputs": [
        {
          "internalType": "uint256",
          "name": "",
          "type": "uint256"
        }
      ],
      "stateMutability": "view",
      "type": "function"
    },
    {
      "inputs": [
        {
          "internalType": "uint256",
          "name": "tierId",
          "type": "uint256"
        },
        {
          "internalType": "address",
          "name": "minter",
          "type": "address"
        },
        {
          "internalType": "uint256",
          "name": "maxAllowance",
          "type": "uint256"
        },
        {
          "internalType": "bytes",
          "name": "signature",
          "type": "bytes"
        },
        {
          "internalType": "uint256",
          "name": "validUntil",
          "type": "uint256"
        }
      ],
      "name": "verifySignature",
      "outputs": [
        {
          "internalType": "bool",
          "name": "",
          "type": "bool"
        }
      ],
      "stateMutability": "view",
      "type": "function"
    },
    {
      "inputs": [
        {
          "internalType": "uint256",
          "name": "tierId",
          "type": "uint256"
        },
        {
          "internalType": "address",
          "name": "wallet",
          "type": "address"
        }
      ],
      "name": "walletMintedByTier",
      "outputs": [
        {
          "internalType": "uint256",
          "name": "",
          "type": "uint256"
        }
      ],
      "stateMutability": "view",
      "type": "function"
    }
  ],
  "transactionHash": "0x4b166ac309f1c84ba6a3d0a271665636f68f8816871dde0a63848fb90f178a9a",
  "args": [],
  "numDeployments": 7,
  "solcInputHash": "896ea6a9bba83527e96ae85b8ea9790f",
  "bytecode": "0x608060405234801561001057600080fd5b50611b3b806100206000396000f3fe6080604052600436106100b15760003560e01c80635897f87811610069578063ba09e6321161004e578063ba09e632146102d6578063c71b0e1c146102f6578063d36ed2f31461032a57600080fd5b80635897f8781461029657806368c7d37c146102b657600080fd5b8063200cd62a1161009a578063200cd62a146101e65780632cb9b2ac1461021657806353367f081461024a57600080fd5b8063039af9eb146100b65780631123f2ef14610169575b600080fd5b3480156100c257600080fd5b506100d66100d136600461171c565b61033f565b60405161016091906000610120820190508251825260208301516020830152604083015173ffffffffffffffffffffffffffffffffffffffff8082166040850152606085015160608501526080850151608085015260a085015160a085015260c085015160c085015260e085015160e0850152610100915080828601511682850152505092915050565b60405180910390f35b34801561017557600080fd5b506101d861018436600461175e565b60009182527fb7471df0c7246ed3d4a380504edfbb03f5845b709c7716243791636e4ba46cc06020908152604080842073ffffffffffffffffffffffffffffffffffffffff93909316845291905290205490565b604051908152602001610160565b3480156101f257600080fd5b506102066102013660046117cc565b61046e565b6040519015158152602001610160565b34801561022257600080fd5b507fb7471df0c7246ed3d4a380504edfbb03f5845b709c7716243791636e4ba46cbd546101d8565b34801561025657600080fd5b506101d861026536600461171c565b60009081527fb7471df0c7246ed3d4a380504edfbb03f5845b709c7716243791636e4ba46cbf602052604090205490565b3480156102a257600080fd5b506101d86102b136600461171c565b6104cf565b3480156102c257600080fd5b506102066102d1366004611881565b610546565b3480156102e257600080fd5b506101d86102f13660046118e9565b61055f565b34801561030257600080fd5b507fb7471df0c7246ed3d4a380504edfbb03f5845b709c7716243791636e4ba46cbc546101d8565b61033d61033836600461191e565b61056c565b005b6103bd6040518061012001604052806000815260200160008152602001600073ffffffffffffffffffffffffffffffffffffffff1681526020016000815260200160008152602001600080191681526020016000815260200160008152602001600073ffffffffffffffffffffffffffffffffffffffff1681525090565b5060009081527fb7471df0c7246ed3d4a380504edfbb03f5845b709c7716243791636e4ba46cbe602090815260409182902082516101208101845281548152600182015492810192909252600281015473ffffffffffffffffffffffffffffffffffffffff908116938301939093526003810154606083015260048101546080830152600581015460a0830152600681015460c0830152600781015460e08301526008015490911661010082015290565b60008681527fb7471df0c7246ed3d4a380504edfbb03f5845b709c7716243791636e4ba46cbe60205260408120600801546104c49073ffffffffffffffffffffffffffffffffffffffff168888888888886106fa565b979650505050505050565b60007fb7471df0c7246ed3d4a380504edfbb03f5845b709c7716243791636e4ba46cbb816104fc84610785565b600085815260048401602090815260408083205460038701909252822060070154929350909161052c91906119e1565b90508082101561053e57509392505050565b949350505050565b60006105558686868686610866565b9695505050505050565b600061053e8484846108cd565b60027f3d9e0cf98d8ac76a756d900415e06fbccac0f9e61251a384452695e2330be6e054036105e25760405162461bcd60e51b815260206004820152601f60248201527f5265656e7472616e637947756172643a207265656e7472616e742063616c6c0060448201526064015b60405180910390fd5b60027f3d9e0cf98d8ac76a756d900415e06fbccac0f9e61251a384452695e2330be6e0556106168888888888888888610b52565b30632d4f475f336040517fffffffff0000000000000000000000000000000000000000000000000000000060e084901b16815273ffffffffffffffffffffffffffffffffffffffff9091166004820152602481018a9052604401600060405180830381600087803b15801561068a57600080fd5b505af115801561069e573d6000803e3d6000fd5b5050505060016106cb7f3d9e0cf98d8ac76a756d900415e06fbccac0f9e61251a384452695e2330be6e090565b555050505050505050565b7fb7471df0c7246ed3d4a380504edfbb03f5845b709c7716243791636e4ba46cbb90565b60004282101561070c575060006104c4565b600061075c85858080601f01602080910402602001604051908101604052809392919081815260200183838082843760009201919091525061075692508c91508b90508a88610dbe565b90610e49565b73ffffffffffffffffffffffffffffffffffffffff8a8116911614915050979650505050505050565b7fb7471df0c7246ed3d4a380504edfbb03f5845b709c7716243791636e4ba46cbd547fb7471df0c7246ed3d4a380504edfbb03f5845b709c7716243791636e4ba46cbc546000917fb7471df0c7246ed3d4a380504edfbb03f5845b709c7716243791636e4ba46cbb916107f891906119e1565b61080184610e6d565b61080b91906119e1565b600084815260038301602052604090206006015490925015610860576000838152600482016020908152604080832054600385019092529091206006015461085391906119e1565b61085d90836119f8565b91505b50919050565b60006105558383808060200260200160405190810160405280939291908181526020018383602002808284376000920191909152506108a892506106d6915050565b600089815260039190910160205260409020600501546108c88888610eee565b610f49565b60008381527fb7471df0c7246ed3d4a380504edfbb03f5845b709c7716243791636e4ba46cbe60205260408120600401547fb7471df0c7246ed3d4a380504edfbb03f5845b709c7716243791636e4ba46cbb9061096c5760405162461bcd60e51b815260206004820152600a60248201527f4e4f545f4558495354530000000000000000000000000000000000000000000060448201526064016105d9565b60008581526003820160205260409020544210156109cc5760405162461bcd60e51b815260206004820152600b60248201527f4e4f545f5354415254454400000000000000000000000000000000000000000060448201526064016105d9565b6000858152600382016020526040902060010154421115610a2f5760405162461bcd60e51b815260206004820152600d60248201527f414c52454144595f454e4445440000000000000000000000000000000000000060448201526064016105d9565b6000858152600582016020908152604080832073ffffffffffffffffffffffffffffffffffffffff881684528252808320548884526003850190925290912060040154610a7c91906119e1565b6000868152600583016020908152604080832073ffffffffffffffffffffffffffffffffffffffff891684529091529020549092508311610aff5760405162461bcd60e51b815260206004820152600f60248201527f4d415845445f414c4c4f57414e4345000000000000000000000000000000000060448201526064016105d9565b6000858152600582016020908152604080832073ffffffffffffffffffffffffffffffffffffffff88168452909152812054610b3b90856119e1565b905080831115610b49578092505b50509392505050565b610b63883389898989898989610f5f565b60008881527fb7471df0c7246ed3d4a380504edfbb03f5845b709c7716243791636e4ba46cbe60205260409020600201547fb7471df0c7246ed3d4a380504edfbb03f5845b709c7716243791636e4ba46cbb9073ffffffffffffffffffffffffffffffffffffffff16610c445760008981526003808301602052604090912001543490610bf1908a90611a10565b1115610c3f5760405162461bcd60e51b815260206004820152601360248201527f494e53554646494349454e545f414d4f554e540000000000000000000000000060448201526064016105d9565b610d2b565b600089815260038281016020526040909120600281015491015473ffffffffffffffffffffffffffffffffffffffff909116906323b872dd9033903090610c8c908d90611a10565b6040517fffffffff0000000000000000000000000000000000000000000000000000000060e086901b16815273ffffffffffffffffffffffffffffffffffffffff938416600482015292909116602483015260448201526064016020604051808303816000875af1158015610d05573d6000803e3d6000fd5b505050506040513d601f19601f82011682018060405250810190610d299190611a4d565b505b60008981526005820160209081526040808320338452909152812080548a9290610d569084906119f8565b90915550506000898152600482016020526040812080548a9290610d7b9084906119f8565b9091555050600089815260038201602052604090206006015415610db35787816002016000828254610dad91906119f8565b90915550505b505050505050505050565b604080517f9e1fb3640a418bdeb2ea9d1423d656894db5c96e895e93867d5bb7862df246ac602082015290810185905273ffffffffffffffffffffffffffffffffffffffff841660608201526080810183905260a08101829052600090819060c001604051602081830303815290604052805190602001209050610555610e436111e4565b8261131d565b6000806000610e58858561135f565b91509150610e65816113a4565b509392505050565b600080610ebb7faa3a0910ce5fb062d392dc5a532ff9d50bb9d0f614a8eda1a3ec786de0b761f4547faa3a0910ce5fb062d392dc5a532ff9d50bb9d0f614a8eda1a3ec786de0b761f3540390565b7faa3a0910ce5fb062d392dc5a532ff9d50bb9d0f614a8eda1a3ec786de0b761f554610ee791906119e1565b9392505050565b6040517fffffffffffffffffffffffffffffffffffffffff000000000000000000000000606084901b166020820152603481018290526000906054015b60405160208183030381529060405280519060200120905092915050565b600082610f568584611593565b14949350505050565b7fb7471df0c7246ed3d4a380504edfbb03f5845b709c7716243791636e4ba46cbb6000610f8d8b8b8a6108cd565b905080891115610fdf5760405162461bcd60e51b815260206004820152600b60248201527f455843454544535f4d415800000000000000000000000000000000000000000060448201526064016105d9565b610fe88b610785565b8911156110375760405162461bcd60e51b815260206004820152600e60248201527f455843454544535f535550504c5900000000000000000000000000000000000060448201526064016105d9565b60008b81526003830160209081526040808320600701546004860190925290912054611063908b6119f8565b11156110b15760405162461bcd60e51b815260206004820152601260248201527f455843454544535f414c4c4f434154494f4e000000000000000000000000000060448201526064016105d9565b60008b815260038301602052604090206005015415611123576110d78b8b8a8a8a610866565b6111235760405162461bcd60e51b815260206004820152600f60248201527f4e4f545f414c4c4f574c4953544544000000000000000000000000000000000060448201526064016105d9565b60008b815260038301602052604090206008015473ffffffffffffffffffffffffffffffffffffffff16156111d75760008b815260038301602052604090206008015461118b9073ffffffffffffffffffffffffffffffffffffffff168c8c8b8989896106fa565b6111d75760405162461bcd60e51b815260206004820152601160248201527f494e56414c49445f5349474e415455524500000000000000000000000000000060448201526064016105d9565b5050505050505050505050565b4660009081527fb7471df0c7246ed3d4a380504edfbb03f5845b709c7716243791636e4ba46cbb60205260408120549081900361131a5750604080518082018252600b81527f54696572656453616c657300000000000000000000000000000000000000000060209182015281518083018352600381527f322e7800000000000000000000000000000000000000000000000000000000009082015281517f8b73c3c69bb8fe3d512ecc4cf759cc79239f7b179b0ffacaa9a75d522b39400f818301527f0a8f5cd262c609ce448522f0993fd8cd7e4c5487b979cac486662358ea244890818401527ff5f84182131be97a41a3d4efb82d0a0d5698d76e6ec4dc9589738f1341d900c960608201524660808201523060a0808301919091528351808303909101815260c090910190925281519101205b90565b6040517f190100000000000000000000000000000000000000000000000000000000000060208201526022810183905260428101829052600090606201610f2b565b60008082516041036113955760208301516040840151606085015160001a611389878285856115d8565b9450945050505061139d565b506000905060025b9250929050565b60008160048111156113b8576113b8611a6f565b036113c05750565b60018160048111156113d4576113d4611a6f565b036114215760405162461bcd60e51b815260206004820152601860248201527f45434453413a20696e76616c6964207369676e6174757265000000000000000060448201526064016105d9565b600281600481111561143557611435611a6f565b036114825760405162461bcd60e51b815260206004820152601f60248201527f45434453413a20696e76616c6964207369676e6174757265206c656e6774680060448201526064016105d9565b600381600481111561149657611496611a6f565b036115095760405162461bcd60e51b815260206004820152602260248201527f45434453413a20696e76616c6964207369676e6174757265202773272076616c60448201527f756500000000000000000000000000000000000000000000000000000000000060648201526084016105d9565b600481600481111561151d5761151d611a6f565b036115905760405162461bcd60e51b815260206004820152602260248201527f45434453413a20696e76616c6964207369676e6174757265202776272076616c60448201527f756500000000000000000000000000000000000000000000000000000000000060648201526084016105d9565b50565b600081815b8451811015610e65576115c4828683815181106115b7576115b7611a9e565b60200260200101516116f0565b9150806115d081611acd565b915050611598565b6000807f7fffffffffffffffffffffffffffffff5d576e7357a4501ddfe92f46681b20a083111561160f57506000905060036116e7565b8460ff16601b1415801561162757508460ff16601c14155b1561163857506000905060046116e7565b6040805160008082526020820180845289905260ff881692820192909252606081018690526080810185905260019060a0016020604051602081039080840390855afa15801561168c573d6000803e3d6000fd5b50506040517fffffffffffffffffffffffffffffffffffffffffffffffffffffffffffffffe0015191505073ffffffffffffffffffffffffffffffffffffffff81166116e0576000600192509250506116e7565b9150600090505b94509492505050565b600081831061170c576000828152602084905260409020610ee7565b5060009182526020526040902090565b60006020828403121561172e57600080fd5b5035919050565b803573ffffffffffffffffffffffffffffffffffffffff8116811461175957600080fd5b919050565b6000806040838503121561177157600080fd5b8235915061178160208401611735565b90509250929050565b60008083601f84011261179c57600080fd5b50813567ffffffffffffffff8111156117b457600080fd5b60208301915083602082850101111561139d57600080fd5b60008060008060008060a087890312156117e557600080fd5b863595506117f560208801611735565b945060408701359350606087013567ffffffffffffffff81111561181857600080fd5b61182489828a0161178a565b979a9699509497949695608090950135949350505050565b60008083601f84011261184e57600080fd5b50813567ffffffffffffffff81111561186657600080fd5b6020830191508360208260051b850101111561139d57600080fd5b60008060008060006080868803121561189957600080fd5b853594506118a960208701611735565b935060408601359250606086013567ffffffffffffffff8111156118cc57600080fd5b6118d88882890161183c565b969995985093965092949392505050565b6000806000606084860312156118fe57600080fd5b8335925061190e60208501611735565b9150604084013590509250925092565b60008060008060008060008060c0898b03121561193a57600080fd5b883597506020890135965060408901359550606089013567ffffffffffffffff8082111561196757600080fd5b6119738c838d0161183c565b909750955060808b013591508082111561198c57600080fd5b506119998b828c0161178a565b999c989b50969995989497949560a00135949350505050565b7f4e487b7100000000000000000000000000000000000000000000000000000000600052601160045260246000fd5b6000828210156119f3576119f36119b2565b500390565b60008219821115611a0b57611a0b6119b2565b500190565b6000817fffffffffffffffffffffffffffffffffffffffffffffffffffffffffffffffff0483118215151615611a4857611a486119b2565b500290565b600060208284031215611a5f57600080fd5b81518015158114610ee757600080fd5b7f4e487b7100000000000000000000000000000000000000000000000000000000600052602160045260246000fd5b7f4e487b7100000000000000000000000000000000000000000000000000000000600052603260045260246000fd5b60007fffffffffffffffffffffffffffffffffffffffffffffffffffffffffffffffff8203611afe57611afe6119b2565b506001019056fea26469706673582212203d823ebd4baaf247a6a1fbcaa976db225f2fd0c4bfd47369ce5989093983d9db64736f6c634300080f0033",
  "devdoc": {
    "custom:category": "NFTs",
    "custom:provides-interfaces": "ITieredSales",
    "custom:required-dependencies": "IERC721MintableExtension IERC721SupplyExtension",
    "custom:type": "eip-2535-facet",
    "kind": "dev",
    "methods": {},
    "title": "ERC721 - Tiered Sales",
    "version": 1
  },
  "userdoc": {
    "kind": "user",
    "methods": {},
    "notice": "Sales mechanism for ERC721 NFTs with multiple tiered pricing, allowlist and allocation plans.",
    "version": 1
  },
  "storageLayout": {
    "storage": [],
    "types": null
  }
}