{
  "address": "0x6Fc037427E2EDd7F83a57819Ef594F8603B7Bb3D",
  "abi": [
    {
      "inputs": [],
      "name": "name",
      "outputs": [
        {
          "internalType": "string",
          "name": "",
          "type": "string"
        }
      ],
      "stateMutability": "view",
      "type": "function"
    },
    {
      "inputs": [],
      "name": "symbol",
      "outputs": [
        {
          "internalType": "string",
          "name": "",
          "type": "string"
        }
      ],
      "stateMutability": "view",
      "type": "function"
    },
    {
      "inputs": [
        {
          "internalType": "uint256",
          "name": "tokenId",
          "type": "uint256"
        }
      ],
      "name": "tokenURI",
      "outputs": [
        {
          "internalType": "string",
          "name": "",
          "type": "string"
        }
      ],
      "stateMutability": "view",
      "type": "function"
    }
  ],
  "transactionHash": "0x4840b83ebe20d7758dce78ab028dd2f175fdbb2ac39b5edf3be2eee825b56022",
  "args": [],
  "numDeployments": 3,
  "solcInputHash": "c55c02555ed2787a9a3699470ac3d317",
  "bytecode": "0x608060405234801561001057600080fd5b50610894806100206000396000f3fe608060405234801561001057600080fd5b50600436106100415760003560e01c806306fdde031461004657806395d89b4114610064578063c87b56dd1461006c575b600080fd5b61004e61007f565b60405161005b9190610558565b60405180910390f35b61004e610130565b61004e61007a3660046105a9565b610161565b60607f70612f47e27b43eb7f87867b7b8f899a5e08503dcccf1bf322c9eef06483a1fc80546100ad906105c2565b80601f01602080910402602001604051908101604052809291908181526020018280546100d9906105c2565b80156101265780601f106100fb57610100808354040283529160200191610126565b820191906000526020600020905b81548152906001019060200180831161010957829003601f168201915b5050505050905090565b60607f70612f47e27b43eb7f87867b7b8f899a5e08503dcccf1bf322c9eef06483a1fc60010180546100ad906105c2565b60008181527f70612f47e27b43eb7f87867b7b8f899a5e08503dcccf1bf322c9eef06483a2066020526040812080546060927f70612f47e27b43eb7f87867b7b8f899a5e08503dcccf1bf322c9eef06483a1fc9290916101c0906105c2565b80601f01602080910402602001604051908101604052809291908181526020018280546101ec906105c2565b80156102395780601f1061020e57610100808354040283529160200191610239565b820191906000526020600020905b81548152906001019060200180831161021c57829003601f168201915b505050505090506000826003018054610251906105c2565b80601f016020809104026020016040519081016040528092919081815260200182805461027d906105c2565b80156102ca5780601f1061029f576101008083540402835291602001916102ca565b820191906000526020600020905b8154815290600101906020018083116102ad57829003601f168201915b505050505090506000825111156102e357509392505050565b60008360050180546102f4906105c2565b905011156103935782600501805461030b906105c2565b80601f0160208091040260200160405190810160405280929190818152602001828054610337906105c2565b80156103845780601f1061035957610100808354040283529160200191610384565b820191906000526020600020905b81548152906001019060200180831161036757829003601f168201915b50505050509350505050919050565b8051156103d357806103a4866103eb565b846007016040516020016103ba93929190610615565b6040516020818303038152906040529350505050919050565b50506040805160208101909152600081529392505050565b60608160000361042e57505060408051808201909152600181527f3000000000000000000000000000000000000000000000000000000000000000602082015290565b8160005b8115610458578061044281610742565b91506104519050600a836107a9565b9150610432565b60008167ffffffffffffffff811115610473576104736107bd565b6040519080825280601f01601f19166020018201604052801561049d576020820181803683370190505b5090505b8415610520576104b26001836107ec565b91506104bf600a86610803565b6104ca906030610817565b60f81b8183815181106104df576104df61082f565b60200101907effffffffffffffffffffffffffffffffffffffffffffffffffffffffffffff1916908160001a905350610519600a866107a9565b94506104a1565b949350505050565b60005b8381101561054357818101518382015260200161052b565b83811115610552576000848401525b50505050565b6020815260008251806020840152610577816040850160208701610528565b601f017fffffffffffffffffffffffffffffffffffffffffffffffffffffffffffffffe0169190910160400192915050565b6000602082840312156105bb57600080fd5b5035919050565b600181811c908216806105d657607f821691505b60208210810361060f577f4e487b7100000000000000000000000000000000000000000000000000000000600052602260045260246000fd5b50919050565b6000845160206106288285838a01610528565b85519184019161063b8184848a01610528565b8554920191600090600181811c908083168061065857607f831692505b858310810361068e577f4e487b710000000000000000000000000000000000000000000000000000000085526022600452602485fd5b8080156106a257600181146106d557610702565b7fffffffffffffffffffffffffffffffffffffffffffffffffffffffffffffff0085168852831515840288019550610702565b60008b81526020902060005b858110156106fa5781548a8201529084019088016106e1565b505083880195505b50939b9a5050505050505050505050565b7f4e487b7100000000000000000000000000000000000000000000000000000000600052601160045260246000fd5b60007fffffffffffffffffffffffffffffffffffffffffffffffffffffffffffffffff820361077357610773610713565b5060010190565b7f4e487b7100000000000000000000000000000000000000000000000000000000600052601260045260246000fd5b6000826107b8576107b861077a565b500490565b7f4e487b7100000000000000000000000000000000000000000000000000000000600052604160045260246000fd5b6000828210156107fe576107fe610713565b500390565b6000826108125761081261077a565b500690565b6000821982111561082a5761082a610713565b500190565b7f4e487b7100000000000000000000000000000000000000000000000000000000600052603260045260246000fdfea26469706673582212202a66bf7d7a8b0935a27daf21ae236bf2c4db62b17f3a9e5d0c4a94d6579d21c964736f6c634300080f0033",
  "devdoc": {
    "custom:category": "NFTs",
    "custom:peer-dependencies": "IERC721",
    "custom:provides-interfaces": "IERC721Metadata",
    "custom:type": "eip-2535-facet",
    "details": "See https://eips.ethereum.org/EIPS/eip-721",
    "kind": "dev",
    "methods": {},
    "title": "ERC721 - Metadata",
    "version": 1
  },
  "userdoc": {
    "kind": "user",
    "methods": {
      "name()": {
        "notice": "A descriptive name for a collection of NFTs in this contract"
      },
      "symbol()": {
        "notice": "An abbreviated name for NFTs in this contract"
      },
      "tokenURI(uint256)": {
        "notice": "inheritdoc IERC721Metadata"
      }
    },
    "notice": "Provides metadata for ERC721 tokens according to standard.",
    "version": 1
  },
  "storageLayout": {
    "storage": [],
    "types": null
  }
}