{
  "address": "0x8C59422229D9fD731B34B3586cAC46ce5Bbf384E",
  "abi": [
    {
      "inputs": [],
      "name": "ErrMaxSupplyFrozen",
      "type": "error"
    },
    {
      "anonymous": false,
      "inputs": [
        {
          "indexed": true,
          "internalType": "address",
          "name": "previousOwner",
          "type": "address"
        },
        {
          "indexed": true,
          "internalType": "address",
          "name": "newOwner",
          "type": "address"
        }
      ],
      "name": "OwnershipTransferred",
      "type": "event"
    },
    {
      "inputs": [],
      "name": "freezeMaxSupply",
      "outputs": [],
      "stateMutability": "nonpayable",
      "type": "function"
    },
    {
      "inputs": [],
      "name": "maxSupplyFrozen",
      "outputs": [
        {
          "internalType": "bool",
          "name": "",
          "type": "bool"
        }
      ],
      "stateMutability": "view",
      "type": "function"
    },
    {
      "inputs": [
        {
          "internalType": "uint256",
          "name": "newValue",
          "type": "uint256"
        }
      ],
      "name": "setMaxSupply",
      "outputs": [],
      "stateMutability": "nonpayable",
      "type": "function"
    }
  ],
  "transactionHash": "0x089efd5fa4e3f367c728728b29915e191c9210a1b87d8575ab9face5a2609a4c",
  "args": [],
  "numDeployments": 3,
  "solcInputHash": "5fd944b563aa49befd7044f85616fde8",
  "bytecode": "0x608060405234801561001057600080fd5b506102aa806100206000396000f3fe608060405234801561001057600080fd5b50600436106100415760003560e01c806316744607146100465780636f8b44b014610050578063f384702f14610063575b600080fd5b61004e61009c565b005b61004e61005e36600461025b565b610155565b7fbcb5379325aa7bbb39c6e8a7078c057698e285f8d4d4341334ae2b0ada7411435460ff16604051901515815260200160405180910390f35b7fc0ea367cb0174dd5521cd2372c76f8c13e6c1f832c71f1d6e0cbc185c9cc8ed45473ffffffffffffffffffffffffffffffffffffffff1633146101275760405162461bcd60e51b815260206004820152601d60248201527f4f776e61626c653a2073656e646572206d757374206265206f776e657200000060448201526064015b60405180910390fd5b7fbcb5379325aa7bbb39c6e8a7078c057698e285f8d4d4341334ae2b0ada741143805460ff19166001179055565b7fc0ea367cb0174dd5521cd2372c76f8c13e6c1f832c71f1d6e0cbc185c9cc8ed45473ffffffffffffffffffffffffffffffffffffffff1633146101db5760405162461bcd60e51b815260206004820152601d60248201527f4f776e61626c653a2073656e646572206d757374206265206f776e6572000000604482015260640161011e565b7fbcb5379325aa7bbb39c6e8a7078c057698e285f8d4d4341334ae2b0ada7411435460ff1615610237576040517f600d428700000000000000000000000000000000000000000000000000000000815260040160405180910390fd5b7faa3a0910ce5fb062d392dc5a532ff9d50bb9d0f614a8eda1a3ec786de0b761f555565b60006020828403121561026d57600080fd5b503591905056fea26469706673582212208ac981c8110719c47471415111f23a58c5978a729c1e48f3a52c5d7f822e554964736f6c634300080f0033",
  "devdoc": {
    "custom:category": "NFTs",
    "custom:peer-dependencies": "IERC721SupplyExtension",
    "custom:provides-interfaces": "IERC721SupplyAdmin",
    "custom:type": "eip-2535-facet",
    "kind": "dev",
    "methods": {},
    "title": "ERC721 - Supply - Admin - Ownable",
    "version": 1
  },
  "userdoc": {
    "kind": "user",
    "methods": {},
    "notice": "Allows owner of a EIP-721 contract to change max supply of tokens.",
    "version": 1
  },
  "storageLayout": {
    "storage": [],
    "types": null
  }
}