{
  "address": "0x6f77faCbfcBd6734BE95228DE7D748b9aFC53735",
  "abi": [
    {
      "anonymous": false,
      "inputs": [
        {
          "indexed": true,
          "internalType": "address",
          "name": "previousOwner",
          "type": "address"
        },
        {
          "indexed": true,
          "internalType": "address",
          "name": "newOwner",
          "type": "address"
        }
      ],
      "name": "OwnershipTransferred",
      "type": "event"
    },
    {
      "inputs": [
        {
          "internalType": "uint256",
          "name": "id",
          "type": "uint256"
        }
      ],
      "name": "lockByOwner",
      "outputs": [],
      "stateMutability": "nonpayable",
      "type": "function"
    },
    {
      "inputs": [
        {
          "internalType": "uint256[]",
          "name": "ids",
          "type": "uint256[]"
        }
      ],
      "name": "lockByOwner",
      "outputs": [],
      "stateMutability": "nonpayable",
      "type": "function"
    },
    {
      "inputs": [
        {
          "internalType": "uint256[]",
          "name": "ids",
          "type": "uint256[]"
        }
      ],
      "name": "unlockByOwner",
      "outputs": [],
      "stateMutability": "nonpayable",
      "type": "function"
    },
    {
      "inputs": [
        {
          "internalType": "uint256",
          "name": "id",
          "type": "uint256"
        }
      ],
      "name": "unlockByOwner",
      "outputs": [],
      "stateMutability": "nonpayable",
      "type": "function"
    }
  ],
  "transactionHash": "0xf0886160c4ca92bf6deb1d9d26f067758331be27ef0153c6bd6684bf36d99193",
  "args": [],
  "numDeployments": 4,
  "solcInputHash": "c55c02555ed2787a9a3699470ac3d317",
  "bytecode": "0x608060405234801561001057600080fd5b506105e5806100206000396000f3fe608060405234801561001057600080fd5b506004361061004c5760003560e01c80637181011614610051578063a3dddafa14610066578063b95440dc14610079578063e923a2a21461008c575b600080fd5b61006461005f366004610447565b61009f565b005b61006461007436600461048f565b6101b2565b610064610087366004610447565b61028e565b61006461009a36600461048f565b61036b565b7fc0ea367cb0174dd5521cd2372c76f8c13e6c1f832c71f1d6e0cbc185c9cc8ed45473ffffffffffffffffffffffffffffffffffffffff163314610144576040517f08c379a000000000000000000000000000000000000000000000000000000000815260206004820152601d60248201527f4f776e61626c653a2073656e646572206d757374206265206f776e657200000060448201526064015b60405180910390fd5b6040517f856e31c100000000000000000000000000000000000000000000000000000000815260048101829052309063856e31c1906024015b600060405180830381600087803b15801561019757600080fd5b505af11580156101ab573d6000803e3d6000fd5b5050505050565b7fc0ea367cb0174dd5521cd2372c76f8c13e6c1f832c71f1d6e0cbc185c9cc8ed45473ffffffffffffffffffffffffffffffffffffffff163314610252576040517f08c379a000000000000000000000000000000000000000000000000000000000815260206004820152601d60248201527f4f776e61626c653a2073656e646572206d757374206265206f776e6572000000604482015260640161013b565b6040517f4a371f640000000000000000000000000000000000000000000000000000000081523090634a371f649061017d90849060040161056b565b7fc0ea367cb0174dd5521cd2372c76f8c13e6c1f832c71f1d6e0cbc185c9cc8ed45473ffffffffffffffffffffffffffffffffffffffff16331461032e576040517f08c379a000000000000000000000000000000000000000000000000000000000815260206004820152601d60248201527f4f776e61626c653a2073656e646572206d757374206265206f776e6572000000604482015260640161013b565b6040517fc7d1bc8300000000000000000000000000000000000000000000000000000000815260048101829052309063c7d1bc839060240161017d565b7fc0ea367cb0174dd5521cd2372c76f8c13e6c1f832c71f1d6e0cbc185c9cc8ed45473ffffffffffffffffffffffffffffffffffffffff16331461040b576040517f08c379a000000000000000000000000000000000000000000000000000000000815260206004820152601d60248201527f4f776e61626c653a2073656e646572206d757374206265206f776e6572000000604482015260640161013b565b6040517ff9497f34000000000000000000000000000000000000000000000000000000008152309063f9497f349061017d90849060040161056b565b60006020828403121561045957600080fd5b5035919050565b7f4e487b7100000000000000000000000000000000000000000000000000000000600052604160045260246000fd5b600060208083850312156104a257600080fd5b823567ffffffffffffffff808211156104ba57600080fd5b818501915085601f8301126104ce57600080fd5b8135818111156104e0576104e0610460565b8060051b6040517fffffffffffffffffffffffffffffffffffffffffffffffffffffffffffffffe0603f8301168101818110858211171561052357610523610460565b60405291825284820192508381018501918883111561054157600080fd5b938501935b8285101561055f57843584529385019392850192610546565b98975050505050505050565b6020808252825182820181905260009190848201906040850190845b818110156105a357835183529284019291840191600101610587565b5090969550505050505056fea26469706673582212207936b9753ebb5e90f3d18ee64b33765f85e7ae1ac1cc867b16830a40266c583c64736f6c634300080f0033",
  "devdoc": {
    "custom:category": "NFTs",
    "custom:provides-interfaces": "IERC721LockableOwnable",
    "custom:required-dependencies": "IERC721LockableExtension",
    "custom:type": "eip-2535-facet",
    "kind": "dev",
    "methods": {},
    "title": "ERC721 - Lock as owner",
    "version": 1
  },
  "userdoc": {
    "kind": "user",
    "methods": {},
    "notice": "Allow locking tokens as the contract owner.",
    "version": 1
  },
  "storageLayout": {
    "storage": [],
    "types": null
  }
}