{
  "address": "0xc19D021B27f2c170E3ebb1BF9B60Dd2F93d2aef3",
  "abi": [
    {
      "inputs": [
        {
          "components": [
            {
              "internalType": "string",
              "name": "name",
              "type": "string"
            },
            {
              "internalType": "string",
              "name": "symbol",
              "type": "string"
            },
            {
              "internalType": "string",
              "name": "contractURI",
              "type": "string"
            },
            {
              "internalType": "uint256",
              "name": "maxSupply",
              "type": "uint256"
            },
            {
              "internalType": "address",
              "name": "defaultRoyaltyAddress",
              "type": "address"
            },
            {
              "internalType": "uint16",
              "name": "defaultRoyaltyBps",
              "type": "uint16"
            },
            {
              "internalType": "address",
              "name": "openSeaProxyRegistryAddress",
              "type": "address"
            },
            {
              "internalType": "address",
              "name": "openSeaExchangeAddress",
              "type": "address"
            },
            {
              "internalType": "address",
              "name": "trustedForwarder",
              "type": "address"
            }
          ],
          "internalType": "struct ERC721OneOfOneCollection.Config",
          "name": "config",
          "type": "tuple"
        }
      ],
      "stateMutability": "nonpayable",
      "type": "constructor"
    },
    {
      "anonymous": false,
      "inputs": [
        {
          "indexed": true,
          "internalType": "address",
          "name": "owner",
          "type": "address"
        },
        {
          "indexed": true,
          "internalType": "address",
          "name": "approved",
          "type": "address"
        },
        {
          "indexed": true,
          "internalType": "uint256",
          "name": "tokenId",
          "type": "uint256"
        }
      ],
      "name": "Approval",
      "type": "event"
    },
    {
      "anonymous": false,
      "inputs": [
        {
          "indexed": true,
          "internalType": "address",
          "name": "owner",
          "type": "address"
        },
        {
          "indexed": true,
          "internalType": "address",
          "name": "operator",
          "type": "address"
        },
        {
          "indexed": false,
          "internalType": "bool",
          "name": "approved",
          "type": "bool"
        }
      ],
      "name": "ApprovalForAll",
      "type": "event"
    },
    {
      "anonymous": false,
      "inputs": [
        {
          "indexed": false,
          "internalType": "address",
          "name": "recipient",
          "type": "address"
        },
        {
          "indexed": false,
          "internalType": "uint16",
          "name": "bps",
          "type": "uint16"
        }
      ],
      "name": "DefaultRoyaltySet",
      "type": "event"
    },
    {
      "anonymous": false,
      "inputs": [
        {
          "indexed": false,
          "internalType": "uint8",
          "name": "version",
          "type": "uint8"
        }
      ],
      "name": "Initialized",
      "type": "event"
    },
    {
      "anonymous": false,
      "inputs": [
        {
          "indexed": true,
          "internalType": "address",
          "name": "previousOwner",
          "type": "address"
        },
        {
          "indexed": true,
          "internalType": "address",
          "name": "newOwner",
          "type": "address"
        }
      ],
      "name": "OwnershipTransferred",
      "type": "event"
    },
    {
      "anonymous": false,
      "inputs": [
        {
          "indexed": true,
          "internalType": "bytes32",
          "name": "role",
          "type": "bytes32"
        },
        {
          "indexed": true,
          "internalType": "bytes32",
          "name": "previousAdminRole",
          "type": "bytes32"
        },
        {
          "indexed": true,
          "internalType": "bytes32",
          "name": "newAdminRole",
          "type": "bytes32"
        }
      ],
      "name": "RoleAdminChanged",
      "type": "event"
    },
    {
      "anonymous": false,
      "inputs": [
        {
          "indexed": true,
          "internalType": "bytes32",
          "name": "role",
          "type": "bytes32"
        },
        {
          "indexed": true,
          "internalType": "address",
          "name": "account",
          "type": "address"
        },
        {
          "indexed": true,
          "internalType": "address",
          "name": "sender",
          "type": "address"
        }
      ],
      "name": "RoleGranted",
      "type": "event"
    },
    {
      "anonymous": false,
      "inputs": [
        {
          "indexed": true,
          "internalType": "bytes32",
          "name": "role",
          "type": "bytes32"
        },
        {
          "indexed": true,
          "internalType": "address",
          "name": "account",
          "type": "address"
        },
        {
          "indexed": true,
          "internalType": "address",
          "name": "sender",
          "type": "address"
        }
      ],
      "name": "RoleRevoked",
      "type": "event"
    },
    {
      "anonymous": false,
      "inputs": [
        {
          "indexed": false,
          "internalType": "uint256",
          "name": "tokenId",
          "type": "uint256"
        }
      ],
      "name": "TokenRoyaltyRemoved",
      "type": "event"
    },
    {
      "anonymous": false,
      "inputs": [
        {
          "indexed": false,
          "internalType": "uint256",
          "name": "tokenId",
          "type": "uint256"
        },
        {
          "indexed": false,
          "internalType": "address",
          "name": "recipient",
          "type": "address"
        },
        {
          "indexed": false,
          "internalType": "uint16",
          "name": "bps",
          "type": "uint16"
        }
      ],
      "name": "TokenRoyaltySet",
      "type": "event"
    },
    {
      "anonymous": false,
      "inputs": [
        {
          "indexed": true,
          "internalType": "address",
          "name": "from",
          "type": "address"
        },
        {
          "indexed": true,
          "internalType": "address",
          "name": "to",
          "type": "address"
        },
        {
          "indexed": true,
          "internalType": "uint256",
          "name": "tokenId",
          "type": "uint256"
        }
      ],
      "name": "Transfer",
      "type": "event"
    },
    {
      "inputs": [],
      "name": "DEFAULT_ADMIN_ROLE",
      "outputs": [
        {
          "internalType": "bytes32",
          "name": "",
          "type": "bytes32"
        }
      ],
      "stateMutability": "view",
      "type": "function"
    },
    {
      "inputs": [],
      "name": "MINTER_ROLE",
      "outputs": [
        {
          "internalType": "bytes32",
          "name": "",
          "type": "bytes32"
        }
      ],
      "stateMutability": "view",
      "type": "function"
    },
    {
      "inputs": [],
      "name": "_trustedForwarder",
      "outputs": [
        {
          "internalType": "address",
          "name": "",
          "type": "address"
        }
      ],
      "stateMutability": "view",
      "type": "function"
    },
    {
      "inputs": [
        {
          "internalType": "address",
          "name": "to",
          "type": "address"
        },
        {
          "internalType": "uint256",
          "name": "tokenId",
          "type": "uint256"
        }
      ],
      "name": "approve",
      "outputs": [],
      "stateMutability": "nonpayable",
      "type": "function"
    },
    {
      "inputs": [
        {
          "internalType": "address",
          "name": "owner",
          "type": "address"
        }
      ],
      "name": "balanceOf",
      "outputs": [
        {
          "internalType": "uint256",
          "name": "",
          "type": "uint256"
        }
      ],
      "stateMutability": "view",
      "type": "function"
    },
    {
      "inputs": [],
      "name": "contractURI",
      "outputs": [
        {
          "internalType": "string",
          "name": "",
          "type": "string"
        }
      ],
      "stateMutability": "view",
      "type": "function"
    },
    {
      "inputs": [],
      "name": "defaultRoyalty",
      "outputs": [
        {
          "internalType": "address",
          "name": "recipient",
          "type": "address"
        },
        {
          "internalType": "uint16",
          "name": "bps",
          "type": "uint16"
        }
      ],
      "stateMutability": "view",
      "type": "function"
    },
    {
      "inputs": [],
      "name": "freezeMaxSupply",
      "outputs": [],
      "stateMutability": "nonpayable",
      "type": "function"
    },
    {
      "inputs": [
        {
          "internalType": "uint256",
          "name": "_lastFrozenTokenId",
          "type": "uint256"
        }
      ],
      "name": "freezeTokenURIs",
      "outputs": [],
      "stateMutability": "nonpayable",
      "type": "function"
    },
    {
      "inputs": [
        {
          "internalType": "uint256",
          "name": "tokenId",
          "type": "uint256"
        }
      ],
      "name": "getApproved",
      "outputs": [
        {
          "internalType": "address",
          "name": "",
          "type": "address"
        }
      ],
      "stateMutability": "view",
      "type": "function"
    },
    {
      "inputs": [],
      "name": "getInfo",
      "outputs": [
        {
          "internalType": "uint256",
          "name": "_maxSupply",
          "type": "uint256"
        },
        {
          "internalType": "uint256",
          "name": "_totalSupply",
          "type": "uint256"
        },
        {
          "internalType": "uint256",
          "name": "_senderBalance",
          "type": "uint256"
        }
      ],
      "stateMutability": "view",
      "type": "function"
    },
    {
      "inputs": [
        {
          "internalType": "uint256",
          "name": "id",
          "type": "uint256"
        }
      ],
      "name": "getRaribleV2Royalties",
      "outputs": [
        {
          "components": [
            {
              "internalType": "address payable",
              "name": "account",
              "type": "address"
            },
            {
              "internalType": "uint96",
              "name": "value",
              "type": "uint96"
            }
          ],
          "internalType": "struct LibPart.Part[]",
          "name": "result",
          "type": "tuple[]"
        }
      ],
      "stateMutability": "view",
      "type": "function"
    },
    {
      "inputs": [
        {
          "internalType": "bytes32",
          "name": "role",
          "type": "bytes32"
        }
      ],
      "name": "getRoleAdmin",
      "outputs": [
        {
          "internalType": "bytes32",
          "name": "",
          "type": "bytes32"
        }
      ],
      "stateMutability": "view",
      "type": "function"
    },
    {
      "inputs": [],
      "name": "getTokenRoyaltiesCount",
      "outputs": [
        {
          "internalType": "uint256",
          "name": "",
          "type": "uint256"
        }
      ],
      "stateMutability": "view",
      "type": "function"
    },
    {
      "inputs": [
        {
          "internalType": "uint256",
          "name": "index",
          "type": "uint256"
        }
      ],
      "name": "getTokenRoyaltyByIndex",
      "outputs": [
        {
          "components": [
            {
              "internalType": "uint256",
              "name": "tokenId",
              "type": "uint256"
            },
            {
              "internalType": "address",
              "name": "recipient",
              "type": "address"
            },
            {
              "internalType": "uint16",
              "name": "bps",
              "type": "uint16"
            }
          ],
          "internalType": "struct IEIP2981RoyaltyOverride.TokenRoyaltyConfig",
          "name": "",
          "type": "tuple"
        }
      ],
      "stateMutability": "view",
      "type": "function"
    },
    {
      "inputs": [
        {
          "internalType": "bytes32",
          "name": "role",
          "type": "bytes32"
        },
        {
          "internalType": "address",
          "name": "account",
          "type": "address"
        }
      ],
      "name": "grantRole",
      "outputs": [],
      "stateMutability": "nonpayable",
      "type": "function"
    },
    {
      "inputs": [
        {
          "internalType": "bytes32",
          "name": "role",
          "type": "bytes32"
        },
        {
          "internalType": "address",
          "name": "account",
          "type": "address"
        }
      ],
      "name": "hasRole",
      "outputs": [
        {
          "internalType": "bool",
          "name": "",
          "type": "bool"
        }
      ],
      "stateMutability": "view",
      "type": "function"
    },
    {
      "inputs": [
        {
          "components": [
            {
              "internalType": "string",
              "name": "name",
              "type": "string"
            },
            {
              "internalType": "string",
              "name": "symbol",
              "type": "string"
            },
            {
              "internalType": "string",
              "name": "contractURI",
              "type": "string"
            },
            {
              "internalType": "uint256",
              "name": "maxSupply",
              "type": "uint256"
            },
            {
              "internalType": "address",
              "name": "defaultRoyaltyAddress",
              "type": "address"
            },
            {
              "internalType": "uint16",
              "name": "defaultRoyaltyBps",
              "type": "uint16"
            },
            {
              "internalType": "address",
              "name": "openSeaProxyRegistryAddress",
              "type": "address"
            },
            {
              "internalType": "address",
              "name": "openSeaExchangeAddress",
              "type": "address"
            },
            {
              "internalType": "address",
              "name": "trustedForwarder",
              "type": "address"
            }
          ],
          "internalType": "struct ERC721OneOfOneCollection.Config",
          "name": "config",
          "type": "tuple"
        },
        {
          "internalType": "address",
          "name": "deployer",
          "type": "address"
        }
      ],
      "name": "initialize",
      "outputs": [],
      "stateMutability": "nonpayable",
      "type": "function"
    },
    {
      "inputs": [
        {
          "internalType": "address",
          "name": "owner",
          "type": "address"
        },
        {
          "internalType": "address",
          "name": "operator",
          "type": "address"
        }
      ],
      "name": "isApprovedForAll",
      "outputs": [
        {
          "internalType": "bool",
          "name": "",
          "type": "bool"
        }
      ],
      "stateMutability": "view",
      "type": "function"
    },
    {
      "inputs": [
        {
          "internalType": "address",
          "name": "forwarder",
          "type": "address"
        }
      ],
      "name": "isTrustedForwarder",
      "outputs": [
        {
          "internalType": "bool",
          "name": "",
          "type": "bool"
        }
      ],
      "stateMutability": "view",
      "type": "function"
    },
    {
      "inputs": [],
      "name": "lastFrozenTokenId",
      "outputs": [
        {
          "internalType": "uint256",
          "name": "",
          "type": "uint256"
        }
      ],
      "stateMutability": "view",
      "type": "function"
    },
    {
      "inputs": [],
      "name": "maxSupply",
      "outputs": [
        {
          "internalType": "uint256",
          "name": "",
          "type": "uint256"
        }
      ],
      "stateMutability": "view",
      "type": "function"
    },
    {
      "inputs": [],
      "name": "maxSupplyFrozen",
      "outputs": [
        {
          "internalType": "bool",
          "name": "",
          "type": "bool"
        }
      ],
      "stateMutability": "view",
      "type": "function"
    },
    {
      "inputs": [
        {
          "internalType": "address",
          "name": "to",
          "type": "address"
        },
        {
          "internalType": "uint256",
          "name": "count",
          "type": "uint256"
        }
      ],
      "name": "mintByOwner",
      "outputs": [],
      "stateMutability": "nonpayable",
      "type": "function"
    },
    {
      "inputs": [
        {
          "internalType": "address",
          "name": "to",
          "type": "address"
        },
        {
          "internalType": "uint256",
          "name": "count",
          "type": "uint256"
        },
        {
          "internalType": "string[]",
          "name": "tokenURIs",
          "type": "string[]"
        }
      ],
      "name": "mintWithTokenURIsByOwner",
      "outputs": [],
      "stateMutability": "nonpayable",
      "type": "function"
    },
    {
      "inputs": [
        {
          "internalType": "address",
          "name": "to",
          "type": "address"
        },
        {
          "internalType": "uint256",
          "name": "count",
          "type": "uint256"
        },
        {
          "internalType": "string[]",
          "name": "tokenURIs",
          "type": "string[]"
        }
      ],
      "name": "mintWithTokenURIsByRole",
      "outputs": [],
      "stateMutability": "nonpayable",
      "type": "function"
    },
    {
      "inputs": [],
      "name": "name",
      "outputs": [
        {
          "internalType": "string",
          "name": "",
          "type": "string"
        }
      ],
      "stateMutability": "view",
      "type": "function"
    },
    {
      "inputs": [],
      "name": "owner",
      "outputs": [
        {
          "internalType": "address",
          "name": "",
          "type": "address"
        }
      ],
      "stateMutability": "view",
      "type": "function"
    },
    {
      "inputs": [
        {
          "internalType": "uint256",
          "name": "tokenId",
          "type": "uint256"
        }
      ],
      "name": "ownerOf",
      "outputs": [
        {
          "internalType": "address",
          "name": "",
          "type": "address"
        }
      ],
      "stateMutability": "view",
      "type": "function"
    },
    {
      "inputs": [],
      "name": "renounceOwnership",
      "outputs": [],
      "stateMutability": "nonpayable",
      "type": "function"
    },
    {
      "inputs": [
        {
          "internalType": "bytes32",
          "name": "role",
          "type": "bytes32"
        },
        {
          "internalType": "address",
          "name": "account",
          "type": "address"
        }
      ],
      "name": "renounceRole",
      "outputs": [],
      "stateMutability": "nonpayable",
      "type": "function"
    },
    {
      "inputs": [
        {
          "internalType": "bytes32",
          "name": "role",
          "type": "bytes32"
        },
        {
          "internalType": "address",
          "name": "account",
          "type": "address"
        }
      ],
      "name": "revokeRole",
      "outputs": [],
      "stateMutability": "nonpayable",
      "type": "function"
    },
    {
      "inputs": [
        {
          "internalType": "uint256",
          "name": "tokenId",
          "type": "uint256"
        },
        {
          "internalType": "uint256",
          "name": "value",
          "type": "uint256"
        }
      ],
      "name": "royaltyInfo",
      "outputs": [
        {
          "internalType": "address",
          "name": "",
          "type": "address"
        },
        {
          "internalType": "uint256",
          "name": "",
          "type": "uint256"
        }
      ],
      "stateMutability": "view",
      "type": "function"
    },
    {
      "inputs": [
        {
          "internalType": "address",
          "name": "from",
          "type": "address"
        },
        {
          "internalType": "address",
          "name": "to",
          "type": "address"
        },
        {
          "internalType": "uint256",
          "name": "tokenId",
          "type": "uint256"
        }
      ],
      "name": "safeTransferFrom",
      "outputs": [],
      "stateMutability": "nonpayable",
      "type": "function"
    },
    {
      "inputs": [
        {
          "internalType": "address",
          "name": "from",
          "type": "address"
        },
        {
          "internalType": "address",
          "name": "to",
          "type": "address"
        },
        {
          "internalType": "uint256",
          "name": "tokenId",
          "type": "uint256"
        },
        {
          "internalType": "bytes",
          "name": "_data",
          "type": "bytes"
        }
      ],
      "name": "safeTransferFrom",
      "outputs": [],
      "stateMutability": "nonpayable",
      "type": "function"
    },
    {
      "inputs": [
        {
          "internalType": "address",
          "name": "operator",
          "type": "address"
        },
        {
          "internalType": "bool",
          "name": "approved",
          "type": "bool"
        }
      ],
      "name": "setApprovalForAll",
      "outputs": [],
      "stateMutability": "nonpayable",
      "type": "function"
    },
    {
      "inputs": [
        {
          "internalType": "string",
          "name": "newValue",
          "type": "string"
        }
      ],
      "name": "setContractURI",
      "outputs": [],
      "stateMutability": "nonpayable",
      "type": "function"
    },
    {
      "inputs": [
        {
          "components": [
            {
              "internalType": "address",
              "name": "recipient",
              "type": "address"
            },
            {
              "internalType": "uint16",
              "name": "bps",
              "type": "uint16"
            }
          ],
          "internalType": "struct IEIP2981RoyaltyOverride.TokenRoyalty",
          "name": "royalty",
          "type": "tuple"
        }
      ],
      "name": "setDefaultRoyalty",
      "outputs": [],
      "stateMutability": "nonpayable",
      "type": "function"
    },
    {
      "inputs": [
        {
          "internalType": "uint256",
          "name": "newValue",
          "type": "uint256"
        }
      ],
      "name": "setMaxSupply",
      "outputs": [],
      "stateMutability": "nonpayable",
      "type": "function"
    },
    {
      "inputs": [
        {
          "internalType": "address",
          "name": "addr",
          "type": "address"
        }
      ],
      "name": "setOpenSeaExchangeAddress",
      "outputs": [],
      "stateMutability": "nonpayable",
      "type": "function"
    },
    {
      "inputs": [
        {
          "internalType": "address",
          "name": "addr",
          "type": "address"
        }
      ],
      "name": "setOpenSeaProxyRegistryAddress",
      "outputs": [],
      "stateMutability": "nonpayable",
      "type": "function"
    },
    {
      "inputs": [
        {
          "components": [
            {
              "internalType": "uint256",
              "name": "tokenId",
              "type": "uint256"
            },
            {
              "internalType": "address",
              "name": "recipient",
              "type": "address"
            },
            {
              "internalType": "uint16",
              "name": "bps",
              "type": "uint16"
            }
          ],
          "internalType": "struct IEIP2981RoyaltyOverride.TokenRoyaltyConfig[]",
          "name": "royaltyConfigs",
          "type": "tuple[]"
        }
      ],
      "name": "setTokenRoyalties",
      "outputs": [],
      "stateMutability": "nonpayable",
      "type": "function"
    },
    {
      "inputs": [
        {
          "internalType": "uint256",
          "name": "tokenId",
          "type": "uint256"
        },
        {
          "internalType": "string",
          "name": "tokenURI",
          "type": "string"
        }
      ],
      "name": "setTokenURI",
      "outputs": [],
      "stateMutability": "nonpayable",
      "type": "function"
    },
    {
      "inputs": [
        {
          "internalType": "address",
          "name": "trustedForwarder",
          "type": "address"
        }
      ],
      "name": "setTrustedForwarder",
      "outputs": [],
      "stateMutability": "nonpayable",
      "type": "function"
    },
    {
      "inputs": [
        {
          "internalType": "bytes4",
          "name": "interfaceId",
          "type": "bytes4"
        }
      ],
      "name": "supportsInterface",
      "outputs": [
        {
          "internalType": "bool",
          "name": "",
          "type": "bool"
        }
      ],
      "stateMutability": "view",
      "type": "function"
    },
    {
      "inputs": [],
      "name": "symbol",
      "outputs": [
        {
          "internalType": "string",
          "name": "",
          "type": "string"
        }
      ],
      "stateMutability": "view",
      "type": "function"
    },
    {
      "inputs": [
        {
          "internalType": "uint256",
          "name": "_tokenId",
          "type": "uint256"
        }
      ],
      "name": "tokenURI",
      "outputs": [
        {
          "internalType": "string",
          "name": "",
          "type": "string"
        }
      ],
      "stateMutability": "view",
      "type": "function"
    },
    {
      "inputs": [],
      "name": "totalSupply",
      "outputs": [
        {
          "internalType": "uint256",
          "name": "",
          "type": "uint256"
        }
      ],
      "stateMutability": "view",
      "type": "function"
    },
    {
      "inputs": [
        {
          "internalType": "address",
          "name": "from",
          "type": "address"
        },
        {
          "internalType": "address",
          "name": "to",
          "type": "address"
        },
        {
          "internalType": "uint256",
          "name": "tokenId",
          "type": "uint256"
        }
      ],
      "name": "transferFrom",
      "outputs": [],
      "stateMutability": "nonpayable",
      "type": "function"
    },
    {
      "inputs": [
        {
          "internalType": "address",
          "name": "newOwner",
          "type": "address"
        }
      ],
      "name": "transferOwnership",
      "outputs": [],
      "stateMutability": "nonpayable",
      "type": "function"
    }
  ],
  "transactionHash": "0x9f623e65761141f464cae19cb3a6666efc01d16fc01369204ea7663e590d4eb5",
  "args": [
    {
      "name": "Collection",
      "symbol": "COL",
      "contractURI": "ipfs://contractURI",
      "maxSupply": 0,
      "defaultRoyaltyAddress": "0x0000000000000000000000000000000000000000",
      "defaultRoyaltyBps": 0,
      "openSeaProxyRegistryAddress": "0x0000000000000000000000000000000000000000",
      "openSeaExchangeAddress": "0x0000000000000000000000000000000000000000",
      "trustedForwarder": "0x0000000000000000000000000000000000000000"
    }
  ],
  "numDeployments": 1,
  "solcInputHash": "480de59fd9fbe4a2a71b208cab04ba55",
  "bytecode": "0x60806040526000600e553480156200001657600080fd5b5060405162004b8438038062004b84833981016040819052620000399162000bf8565b80516020820151620000546200004e6200009b565b620000b7565b81516200006990600390602085019062000a1d565b5080516200007f90600490602084019062000a1d565b5050506200009481336200011260201b60201c565b5062000dff565b6000620000b26200025560201b620016b01760201c565b905090565b600080546001600160a01b038381166201000081810262010000600160b01b0319851617855560405193049190911692909183917f8be0079c531659141344cd1fd0a4f28419497f9722a3daafe3b4186f6b6457e091a35050565b60006200012060016200028e565b9050801562000139576000805461ff0019166101001790555b6200014660008362000340565b620001727f9f2df0fed2c77648de5860a4cc508cd0818c85b8b8a1ab4ceeef8d981c8956a68362000340565b6200017d82620000b7565b8251602084015160408501516200019692919062000350565b620001a062000387565b620001aa620003bd565b620001b4620003f1565b6060830151620001c49062000425565b620001de83608001518460a001516200045d60201b60201c565b620001f88360c001518460e001516200049360201b60201c565b6101008301516200020990620004c9565b801562000250576000805461ff0019169055604051600181527f7f26b83ff96e1f2b6a682f133852f6798a09c465da95921460cefb38474024989060200160405180910390a15b505050565b6017546000906001600160a01b031633141562000279575060131936013560601c90565b620000b2620004fe60201b620016d21760201c565b60008054610100900460ff1615620002f7578160ff166001148015620002c75750620002c5306200050260201b620016d61760201c565b155b620002ef5760405162461bcd60e51b8152600401620002e69062000d29565b60405180910390fd5b506000919050565b60005460ff808416911610620003215760405162461bcd60e51b8152600401620002e69062000d29565b506000805460ff191660ff92909216919091179055600190565b919050565b6200034c828262000511565b5050565b600054610100900460ff166200037a5760405162461bcd60e51b8152600401620002e69062000d77565b62000250838383620005b7565b600054610100900460ff16620003b15760405162461bcd60e51b8152600401620002e69062000d77565b620003bb62000659565b565b600054610100900460ff16620003e75760405162461bcd60e51b8152600401620002e69062000d77565b620003bb62000695565b600054610100900460ff166200041b5760405162461bcd60e51b8152600401620002e69062000d77565b620003bb620006d1565b600054610100900460ff166200044f5760405162461bcd60e51b8152600401620002e69062000d77565b6200045a816200070d565b50565b600054610100900460ff16620004875760405162461bcd60e51b8152600401620002e69062000d77565b6200034c828262000760565b600054610100900460ff16620004bd5760405162461bcd60e51b8152600401620002e69062000d77565b6200034c8282620007fd565b600054610100900460ff16620004f35760405162461bcd60e51b8152600401620002e69062000d77565b6200045a8162000867565b3390565b6001600160a01b03163b151590565b60008281526002602090815260408083206001600160a01b038516845290915290205460ff166200034c5760008281526002602090815260408083206001600160a01b03851684529091529020805460ff19166001179055620005736200009b565b6001600160a01b0316816001600160a01b0316837f2f8788117e7eff1d82e926ec794901d17c78024a50270940304540a733656f0d60405160405180910390a45050565b600054610100900460ff16620005e15760405162461bcd60e51b8152600401620002e69062000d77565b8251620005f690600990602086019062000a1d565b5081516200060c90600a90602085019062000a1d565b5080516200062290600b90602084019062000a1d565b5062000635633d96f4ff60e11b620008b3565b620006476380ac58cd60e01b620008b3565b62000250635b5e139f60e01b620008b3565b600054610100900460ff16620006835760405162461bcd60e51b8152600401620002e69062000d77565b620003bb632929b36760e11b620008b3565b600054610100900460ff16620006bf5760405162461bcd60e51b8152600401620002e69062000d77565b620003bb631aa1577160e11b620008b3565b600054610100900460ff16620006fb5760405162461bcd60e51b8152600401620002e69062000d77565b620003bb630d169dbf60e31b620008b3565b600054610100900460ff16620007375760405162461bcd60e51b8152600401620002e69062000d77565b600c8190556200074e6330f487b560e11b620008b3565b6200045a6380ac58cd60e01b620008b3565b600054610100900460ff166200078a5760405162461bcd60e51b8152600401620002e69062000d77565b6200079c633a47bf5160e11b620008b3565b620007ae63152a902d60e11b620008b3565b620007c063c69dbd8f60e01b620008b3565b620007d263656cb66560e11b620008b3565b604080518082019091526001600160a01b038316815261ffff82166020820152620002508162000937565b600054610100900460ff16620008275760405162461bcd60e51b8152600401620002e69062000d77565b62000839638d29851f60e01b620008b3565b601580546001600160a01b039384166001600160a01b03199182161790915560168054929093169116179055565b600054610100900460ff16620008915760405162461bcd60e51b8152600401620002e69062000d77565b601780546001600160a01b0319166001600160a01b0392909216919091179055565b6001600160e01b031980821614156200090f5760405162461bcd60e51b815260206004820152601c60248201527f4552433136353a20696e76616c696420696e74657266616365206964000000006044820152606401620002e6565b6001600160e01b0319166000908152600160208190526040909120805460ff19169091179055565b612710816020015161ffff1610620009805760405162461bcd60e51b815260206004820152600b60248201526a496e76616c69642062707360a81b6044820152606401620002e6565b60408051808201825282516001600160a01b03168082526020808501805161ffff169190930181905260118054600160a01b9092026001600160b01b03199092169092171790558251905191517f2c5ea6e4103e78cb101e796fb2dace540362fc542cbff5145eaa24af7dd8fe419262000a1292916001600160a01b0392909216825261ffff16602082015260400190565b60405180910390a150565b82805462000a2b9062000dc2565b90600052602060002090601f01602090048101928262000a4f576000855562000a9a565b82601f1062000a6a57805160ff191683800117855562000a9a565b8280016001018555821562000a9a579182015b8281111562000a9a57825182559160200191906001019062000a7d565b5062000aa892915062000aac565b5090565b5b8082111562000aa8576000815560010162000aad565b634e487b7160e01b600052604160045260246000fd5b60405161012081016001600160401b038111828210171562000aff5762000aff62000ac3565b60405290565b604051601f8201601f191681016001600160401b038111828210171562000b305762000b3062000ac3565b604052919050565b600082601f83011262000b4a57600080fd5b81516001600160401b0381111562000b665762000b6662000ac3565b602062000b7c601f8301601f1916820162000b05565b828152858284870101111562000b9157600080fd5b60005b8381101562000bb157858101830151828201840152820162000b94565b8381111562000bc35760008385840101525b5095945050505050565b80516001600160a01b03811681146200033b57600080fd5b805161ffff811681146200033b57600080fd5b60006020828403121562000c0b57600080fd5b81516001600160401b038082111562000c2357600080fd5b90830190610120828603121562000c3957600080fd5b62000c4362000ad9565b82518281111562000c5357600080fd5b62000c618782860162000b38565b82525060208301518281111562000c7757600080fd5b62000c858782860162000b38565b60208301525060408301518281111562000c9e57600080fd5b62000cac8782860162000b38565b6040830152506060830151606082015262000cca6080840162000bcd565b608082015262000cdd60a0840162000be5565b60a082015262000cf060c0840162000bcd565b60c082015262000d0360e0840162000bcd565b60e0820152610100915062000d1a82840162000bcd565b91810191909152949350505050565b6020808252602e908201527f496e697469616c697a61626c653a20636f6e747261637420697320616c72656160408201526d191e481a5b9a5d1a585b1a5e995960921b606082015260800190565b6020808252602b908201527f496e697469616c697a61626c653a20636f6e7472616374206973206e6f74206960408201526a6e697469616c697a696e6760a81b606082015260800190565b600181811c9082168062000dd757607f821691505b6020821081141562000df957634e487b7160e01b600052602260045260246000fd5b50919050565b613d758062000e0f6000396000f3fe608060405234801561001057600080fd5b50600436106102465760003560e01c806301ffc9a71461024b5780630653aca51461027357806306fdde03146102b5578063081812fc146102ca57806308abf026146102ea578063095ea7b3146102ff578063162094c414610312578063167446071461032557806318160ddd1461032d57806323b872dd1461033f578063248a9ca3146103525780632a55205a146103655780632ee774bd146103975780632f2ff15d146103aa5780633542aee2146103bd578063357802d1146103d057806336568abe146103e357806342842e0e146103f65780634473f20a146104095780635136dcc71461041c57806356c022bb1461042f578063572b6c05146104425780635a9b0b89146104555780636352211e146104785780636c079cfc1461048b5780636f8b44b01461049e57806370a08231146104b1578063715018a6146104c45780637885fdc7146104cc5780637e980342146104fa5780638da5cb5b146105025780638e28cf981461050a57806391d148541461051d578063938e3d7b1461053057806395d89b4114610543578063a217fddf1461054b578063a22cb46514610553578063b88d4fde14610566578063b89df8e814610579578063c87b56dd14610582578063cad96cca14610595578063d5391393146105b5578063d547741f146105ca578063d5abeb01146105dd578063da742228146105e6578063e8a3d485146105f9578063e985e9c514610601578063ef60ceaf14610614578063f2fde38b14610627578063f384702f1461063a575b600080fd5b61025e61025936600461312d565b610647565b60405190151581526020015b60405180910390f35b61028661028136600461314a565b610667565b60408051825181526020808401516001600160a01b0316908201529181015161ffff169082015260600161026a565b6102bd6106ec565b60405161026a91906131bb565b6102dd6102d836600461314a565b6106fb565b60405161026a91906131ce565b6102fd6102f8366004613202565b610788565b005b6102fd61030d36600461321f565b6107e9565b6102fd610320366004613331565b61090c565b6102fd610999565b600e545b60405190815260200161026a565b6102fd61034d366004613377565b6109e7565b61033161036036600461314a565b610a1f565b6103786103733660046133b8565b610a34565b604080516001600160a01b03909316835260208301919091520161026a565b6102fd6103a53660046133da565b610af9565b6102fd6103b83660046134ba565b610b9e565b6102fd6103cb36600461321f565b610bba565b6102fd6103de3660046134fc565b610c03565b6102fd6103f13660046134ba565b610d0b565b6102fd610404366004613377565b610d95565b6102fd61041736600461314a565b610db0565b6102fd61042a366004613626565b610e37565b6017546102dd906001600160a01b031681565b61025e610450366004613202565b610ed1565b61045d610ee5565b6040805193845260208401929092529082015260600161026a565b6102dd61048636600461314a565b610ffe565b6102fd610499366004613202565b611075565b6102fd6104ac36600461314a565b6110d6565b6103316104bf366004613202565b61115f565b6102fd6111e6565b6011546104ec906001600160a01b03811690600160a01b900461ffff1682565b60405161026a92919061369a565b610331611231565b6102dd61123d565b6102fd6105183660046133da565b611252565b61025e61052b3660046134ba565b6112ea565b6102fd61053e3660046136b7565b611315565b6102bd611367565b610331600081565b6102fd6105613660046136eb565b611371565b6102fd61057436600461371e565b611383565b61033160105481565b6102bd61059036600461314a565b6113c2565b6105a86105a336600461314a565b6113cd565b60405161026a919061379d565b610331600080516020613d0083398151915281565b6102fd6105d83660046134ba565b611488565b610331600c5481565b6102fd6105f4366004613202565b6114a4565b6102bd611505565b61025e61060f3660046137fe565b611597565b6102fd61062236600461382c565b6115aa565b6102fd610635366004613202565b611603565b600d5461025e9060ff1681565b6000610652826116e5565b80610661575061066182611725565b92915050565b604080516060810182526000808252602082018190529181018290529061068f601384611761565b6000818152601260209081526040918290208251808401845290546001600160a01b03808216835261ffff600160a01b90920482168385019081528551606081018752968752925116928501929092525116908201529392505050565b60606106f661176d565b905090565b600061070682611777565b61076c5760405162461bcd60e51b815260206004820152602c60248201527f4552433732313a20617070726f76656420717565727920666f72206e6f6e657860448201526b34b9ba32b73a103a37b5b2b760a11b60648201526084015b60405180910390fd5b506000908152600760205260409020546001600160a01b031690565b610790611794565b6001600160a01b03166107a161123d565b6001600160a01b0316146107c75760405162461bcd60e51b815260040161076390613844565b601580546001600160a01b0319166001600160a01b0392909216919091179055565b60006107f482610ffe565b9050806001600160a01b0316836001600160a01b031614156108625760405162461bcd60e51b815260206004820152602160248201527f4552433732313a20617070726f76616c20746f2063757272656e74206f776e656044820152603960f91b6064820152608401610763565b806001600160a01b0316610874611794565b6001600160a01b0316148061089057506108908161060f611794565b6108fd5760405162461bcd60e51b815260206004820152603860248201527f4552433732313a20617070726f76652063616c6c6572206973206e6f74206f776044820152771b995c881b9bdc88185c1c1c9bdd995908199bdc88185b1b60421b6064820152608401610763565b610907838361179e565b505050565b610914611794565b6001600160a01b031661092561123d565b6001600160a01b03161461094b5760405162461bcd60e51b815260040161076390613844565b601054821161098b5760405162461bcd60e51b815260206004820152600c60248201526b232927ad22a72faa27a5a2a760a11b6044820152606401610763565b610995828261180c565b5050565b6109a1611794565b6001600160a01b03166109b261123d565b6001600160a01b0316146109d85760405162461bcd60e51b815260040161076390613844565b600d805460ff19166001179055565b6109f86109f2611794565b82611897565b610a145760405162461bcd60e51b815260040161076390613879565b610907838383611961565b60009081526002602052604090206001015490565b60008281526012602052604081205481906001600160a01b031615610a99576000848152601260205260409020546001600160a01b0381169061271090610a8690600160a01b900461ffff16866138e0565b610a909190613915565b91509150610af2565b6011546001600160a01b031615801590610abf5750601154600160a01b900461ffff1615155b15610aeb576011546001600160a01b0381169061271090610a8690600160a01b900461ffff16866138e0565b5060009050805b9250929050565b610b01611794565b6001600160a01b0316610b1261123d565b6001600160a01b031614610b385760405162461bcd60e51b815260040161076390613844565b6000610b42611aeb565b9050610b4e8484611afc565b60005b83811015610b9757610b85610b668284613929565b848381518110610b7857610b78613941565b602002602001015161180c565b80610b8f81613957565b915050610b51565b5050505050565b610ba782610a1f565b610bb081611b92565b6109078383611ba3565b610bc2611794565b6001600160a01b0316610bd361123d565b6001600160a01b031614610bf95760405162461bcd60e51b815260040161076390613844565b6109958282611afc565b6000610c0f6001611c2a565b90508015610c27576000805461ff0019166101001790555b610c32600083611cbe565b610c4a600080516020613d0083398151915283611cbe565b610c5382611cc8565b610c6a836000015184602001518560400151611d23565b610c72611d55565b610c7a611d84565b610c82611db3565b610c8f8360600151611de2565b610ca183608001518460a00151611e12565b610cb38360c001518460e00151611e43565b610cc1836101000151611e74565b8015610907576000805461ff0019169055604051600181527f7f26b83ff96e1f2b6a682f133852f6798a09c465da95921460cefb38474024989060200160405180910390a1505050565b610d13611794565b6001600160a01b0316816001600160a01b031614610d8b5760405162461bcd60e51b815260206004820152602f60248201527f416363657373436f6e74726f6c3a2063616e206f6e6c792072656e6f756e636560448201526e103937b632b9903337b91039b2b63360891b6064820152608401610763565b6109958282611ea4565b61090783838360405180602001604052806000815250611383565b610db8611794565b6001600160a01b0316610dc961123d565b6001600160a01b031614610def5760405162461bcd60e51b815260040161076390613844565b6010548111610e325760405162461bcd60e51b815260206004820152600f60248201526e43414e4e4f545f554e465245455a4560881b6044820152606401610763565b601055565b610e3f611794565b6001600160a01b0316610e5061123d565b6001600160a01b031614610e765760405162461bcd60e51b815260040161076390613844565b6109958282808060200260200160405190810160405280939291908181526020016000905b82821015610ec757610eb860608302860136819003810190613972565b81526020019060010190610e9b565b5050505050611f29565b6017546001600160a01b0391821691161490565b600080808080610ef3611794565b6001600160a01b031614610f7e57306370a08231610f0f611794565b6040518263ffffffff1660e01b8152600401610f2b91906131ce565b60206040518083038186803b158015610f4357600080fd5b505afa158015610f57573d6000803e3d6000fd5b505050506040513d601f19601f82011682018060405250810190610f7b91906139d8565b90505b600c54306001600160a01b03166318160ddd6040518163ffffffff1660e01b815260040160206040518083038186803b158015610fba57600080fd5b505afa158015610fce573d6000803e3d6000fd5b505050506040513d601f19601f82011682018060405250810190610ff291906139d8565b90959094509092509050565b6000818152600560205260408120546001600160a01b0316806106615760405162461bcd60e51b815260206004820152602960248201527f4552433732313a206f776e657220717565727920666f72206e6f6e657869737460448201526832b73a103a37b5b2b760b91b6064820152608401610763565b61107d611794565b6001600160a01b031661108e61123d565b6001600160a01b0316146110b45760405162461bcd60e51b815260040161076390613844565b601680546001600160a01b0319166001600160a01b0392909216919091179055565b6110de611794565b6001600160a01b03166110ef61123d565b6001600160a01b0316146111155760405162461bcd60e51b815260040161076390613844565b600d5460ff161561115a5760405162461bcd60e51b815260206004820152600f60248201526e2120a9a2afaaa924afa32927ad22a760891b6044820152606401610763565b600c55565b60006001600160a01b0382166111ca5760405162461bcd60e51b815260206004820152602a60248201527f4552433732313a2062616c616e636520717565727920666f7220746865207a65604482015269726f206164647265737360b01b6064820152608401610763565b506001600160a01b031660009081526006602052604090205490565b6111ee611794565b6001600160a01b03166111ff61123d565b6001600160a01b0316146112255760405162461bcd60e51b815260040161076390613844565b61122f6000611cc8565b565b60006106f660136120d0565b6000546201000090046001600160a01b031690565b61126c600080516020613d0083398151915261052b611794565b6112aa5760405162461bcd60e51b815260206004820152600f60248201526e4e4f545f4d494e5445525f524f4c4560881b6044820152606401610763565b60006112b4611aeb565b90506112c08484611afc565b60005b83811015610b97576112d8610b668284613929565b806112e281613957565b9150506112c3565b60009182526002602090815260408084206001600160a01b0393909316845291905290205460ff1690565b61131d611794565b6001600160a01b031661132e61123d565b6001600160a01b0316146113545760405162461bcd60e51b815260040161076390613844565b805161099590600b90602084019061307e565b60606106f66120da565b61099561137c611794565b83836120e4565b61139461138e611794565b83611897565b6113b05760405162461bcd60e51b815260040161076390613879565b6113bc848484846121af565b50505050565b6060610661826121e2565b604080516001808252818301909252606091816020015b60408051808201909152600080825260208201528152602001906001900390816113e457505060115481519192506001600160a01b031690829060009061142d5761142d613941565b60209081029190910101516001600160a01b039190911690526011548151600160a01b90910461ffff1690829060009061146957611469613941565b6020908102919091018101516001600160601b03909216910152919050565b61149182610a1f565b61149a81611b92565b6109078383611ea4565b6114ac611794565b6001600160a01b03166114bd61123d565b6001600160a01b0316146114e35760405162461bcd60e51b815260040161076390613844565b601780546001600160a01b0319166001600160a01b0392909216919091179055565b6060600b8054611514906139f1565b80601f0160208091040260200160405190810160405280929190818152602001828054611540906139f1565b801561158d5780601f106115625761010080835404028352916020019161158d565b820191906000526020600020905b81548152906001019060200180831161157057829003601f168201915b5050505050905090565b60006115a383836121ed565b9392505050565b6115b2611794565b6001600160a01b03166115c361123d565b6001600160a01b0316146115e95760405162461bcd60e51b815260040161076390613844565b6116006115fb36839003830183613a26565b6122fe565b50565b61160b611794565b6001600160a01b031661161c61123d565b6001600160a01b0316146116425760405162461bcd60e51b815260040161076390613844565b6001600160a01b0381166116a75760405162461bcd60e51b815260206004820152602660248201527f4f776e61626c653a206e6577206f776e657220697320746865207a65726f206160448201526564647265737360d01b6064820152608401610763565b61160081611cc8565b60006116bb33610ed1565b156116cd575060131936013560601c90565b503390565b3390565b6001600160a01b03163b151590565b60006001600160e01b031982166380ac58cd60e01b148061171657506001600160e01b03198216635b5e139f60e01b145b806106615750610661826123a9565b60006301ffc9a760e01b6001600160e01b0319831614806106615750506001600160e01b03191660009081526001602052604090205460ff1690565b60006115a383836123ce565b60606106f66123f8565b6000908152600560205260409020546001600160a01b0316151590565b60006106f66116b0565b600081815260076020526040902080546001600160a01b0319166001600160a01b03841690811790915581906117d382610ffe565b6001600160a01b03167f8c5be1e5ebec7d5bd14f71427d1e84f3dd0314c0f7b2291e5b200ac8c7c3b92560405160405180910390a45050565b61181582611777565b6118785760405162461bcd60e51b815260206004820152602e60248201527f45524337323155524953746f726167653a2055524920736574206f66206e6f6e60448201526d32bc34b9ba32b73a103a37b5b2b760911b6064820152608401610763565b6000828152600f6020908152604090912082516109079284019061307e565b60006118a282611777565b6119035760405162461bcd60e51b815260206004820152602c60248201527f4552433732313a206f70657261746f7220717565727920666f72206e6f6e657860448201526b34b9ba32b73a103a37b5b2b760a11b6064820152608401610763565b600061190e83610ffe565b9050806001600160a01b0316846001600160a01b0316148061193557506119358185611597565b806119595750836001600160a01b031661194e846106fb565b6001600160a01b0316145b949350505050565b826001600160a01b031661197482610ffe565b6001600160a01b0316146119d85760405162461bcd60e51b815260206004820152602560248201527f4552433732313a207472616e736665722066726f6d20696e636f72726563742060448201526437bbb732b960d91b6064820152608401610763565b6001600160a01b038216611a3a5760405162461bcd60e51b8152602060048201526024808201527f4552433732313a207472616e7366657220746f20746865207a65726f206164646044820152637265737360e01b6064820152608401610763565b611a4560008261179e565b6001600160a01b0383166000908152600660205260408120805460019290611a6e908490613a82565b90915550506001600160a01b0382166000908152600660205260408120805460019290611a9c908490613929565b909155505060008181526005602052604080822080546001600160a01b0319166001600160a01b038681169182179092559151849391871691600080516020613d2083398151915291a4505050565b600e546000906106f6906001612407565b600c5481611b09600e5490565b611b139190613929565b1115611b565760405162461bcd60e51b8152602060048201526012602482015271455843454544535f4d41585f535550504c5960701b6044820152606401610763565b60005b81811015610907576000611b6b611aeb565b9050611b778482612413565b611b7f61242d565b5080611b8a81613957565b915050611b59565b61160081611b9e611794565b612444565b611bad82826112ea565b6109955760008281526002602090815260408083206001600160a01b03851684529091529020805460ff19166001179055611be6611794565b6001600160a01b0316816001600160a01b0316837f2f8788117e7eff1d82e926ec794901d17c78024a50270940304540a733656f0d60405160405180910390a45050565b60008054610100900460ff1615611c78578160ff166001148015611c545750611c52306116d6565b155b611c705760405162461bcd60e51b815260040161076390613a99565b506000919050565b60005460ff808416911610611c9f5760405162461bcd60e51b815260040161076390613a99565b506000805460ff191660ff92909216919091179055600190565b919050565b6109958282611ba3565b600080546001600160a01b038381166201000081810262010000600160b01b0319851617855560405193049190911692909183917f8be0079c531659141344cd1fd0a4f28419497f9722a3daafe3b4186f6b6457e091a35050565b600054610100900460ff16611d4a5760405162461bcd60e51b815260040161076390613ae7565b6109078383836124a8565b600054610100900460ff16611d7c5760405162461bcd60e51b815260040161076390613ae7565b61122f61253b565b600054610100900460ff16611dab5760405162461bcd60e51b815260040161076390613ae7565b61122f612572565b600054610100900460ff16611dda5760405162461bcd60e51b815260040161076390613ae7565b61122f6125a9565b600054610100900460ff16611e095760405162461bcd60e51b815260040161076390613ae7565b611600816125e0565b600054610100900460ff16611e395760405162461bcd60e51b815260040161076390613ae7565b610995828261262c565b600054610100900460ff16611e6a5760405162461bcd60e51b815260040161076390613ae7565b61099582826126bc565b600054610100900460ff16611e9b5760405162461bcd60e51b815260040161076390613ae7565b61160081612721565b611eae82826112ea565b156109955760008281526002602090815260408083206001600160a01b03851684529091529020805460ff19169055611ee5611794565b6001600160a01b0316816001600160a01b0316837ff6391f5c32d9c69d2a47ea670b442974b53935d1edc7fd64eb21e047a839171b60405160405180910390a45050565b60005b8151811015610995576000828281518110611f4957611f49613941565b60200260200101519050612710816040015161ffff1610611f7c5760405162461bcd60e51b815260040161076390613b32565b60208101516001600160a01b0316611ff5578051600090815260126020526040902080546001600160b01b03191690558051611fba90601390612748565b5080516040519081527fa2870857763bd9ae76c957f869f16b31c18dd3bb4c7b4d3a4496dc5c57c657f99060200160405180910390a16120bd565b6040805180820182526020808401516001600160a01b0390811683528484015161ffff90811683850190815286516000908152601290945294909220925183549451909216600160a01b026001600160b01b0319909416911617919091179055805161206390601390612754565b50805160208083015160408085015181519485526001600160a01b039092169284019290925261ffff1682820152517f389b70fb0887f01e83784eb1c4c589f740eca53b00ed0f45e41db5d079719abb9181900360600190a15b50806120c881613957565b915050611f2c565b6000610661825490565b60606106f6612760565b816001600160a01b0316836001600160a01b031614156121425760405162461bcd60e51b815260206004820152601960248201527822a9219b99189d1030b8383937bb32903a379031b0b63632b960391b6044820152606401610763565b6001600160a01b03838116600081815260086020908152604080832094871680845294825291829020805460ff191686151590811790915591519182527f17307eab39ab6107e8899845ad3d59bd9653f200f220920489ca2b5937696c31910160405180910390a3505050565b6121ba848484611961565b6121c68484848461276f565b6113bc5760405162461bcd60e51b815260040161076390613b57565b60606106618261288a565b6015546000906001600160a01b0316156122a15760155460405163c455279160e01b81526001600160a01b0391821691841690829063c4552791906122369088906004016131ce565b60206040518083038186803b15801561224e57600080fd5b505afa158015612262573d6000803e3d6000fd5b505050506040513d601f19601f820116820180604052508101906122869190613ba9565b6001600160a01b0316141561229f576001915050610661565b505b6016546001600160a01b0316156122d0576016546001600160a01b03838116911614156122d057506001610661565b6001600160a01b0380841660009081526008602090815260408083209386168352929052205460ff166115a3565b612710816020015161ffff16106123275760405162461bcd60e51b815260040161076390613b32565b60408051808201825282516001600160a01b03168082526020808501805161ffff1691909301819052601180546001600160b01b031916909217600160a01b9091021790558251905191517f2c5ea6e4103e78cb101e796fb2dace540362fc542cbff5145eaa24af7dd8fe419261239e929161369a565b60405180910390a150565b60006001600160e01b03198216637965db0b60e01b1480610661575061066182611725565b60008260000182815481106123e5576123e5613941565b9060005260206000200154905092915050565b606060098054611514906139f1565b60006115a38284613929565b6109958282604051806020016040528060008152506129f9565b600e805490600061243d83613957565b9190505550565b61244e82826112ea565b61099557612466816001600160a01b03166014612a2c565b612471836020612a2c565b604051602001612482929190613bc6565b60408051601f198184030181529082905262461bcd60e51b8252610763916004016131bb565b600054610100900460ff166124cf5760405162461bcd60e51b815260040161076390613ae7565b82516124e290600990602086019061307e565b5081516124f690600a90602085019061307e565b50805161250a90600b90602084019061307e565b5061251b633d96f4ff60e11b612bc7565b61252b6380ac58cd60e01b612bc7565b610907635b5e139f60e01b612bc7565b600054610100900460ff166125625760405162461bcd60e51b815260040161076390613ae7565b61122f632929b36760e11b612bc7565b600054610100900460ff166125995760405162461bcd60e51b815260040161076390613ae7565b61122f631aa1577160e11b612bc7565b600054610100900460ff166125d05760405162461bcd60e51b815260040161076390613ae7565b61122f630d169dbf60e31b612bc7565b600054610100900460ff166126075760405162461bcd60e51b815260040161076390613ae7565b600c81905561261c6330f487b560e11b612bc7565b6116006380ac58cd60e01b612bc7565b600054610100900460ff166126535760405162461bcd60e51b815260040161076390613ae7565b612663633a47bf5160e11b612bc7565b61267363152a902d60e11b612bc7565b61268363c69dbd8f60e01b612bc7565b61269363656cb66560e11b612bc7565b604080518082019091526001600160a01b038316815261ffff82166020820152610907816122fe565b600054610100900460ff166126e35760405162461bcd60e51b815260040161076390613ae7565b6126f3638d29851f60e01b612bc7565b601580546001600160a01b039384166001600160a01b03199182161790915560168054929093169116179055565b600054610100900460ff166114e35760405162461bcd60e51b815260040161076390613ae7565b60006115a38383612c48565b60006115a38383612d3b565b6060600a8054611514906139f1565b6000612783846001600160a01b03166116d6565b1561287f57836001600160a01b031663150b7a0261279f611794565b8786866040518563ffffffff1660e01b81526004016127c19493929190613c35565b602060405180830381600087803b1580156127db57600080fd5b505af192505050801561280b575060408051601f3d908101601f1916820190925261280891810190613c72565b60015b612865573d808015612839576040519150601f19603f3d011682016040523d82523d6000602084013e61283e565b606091505b50805161285d5760405162461bcd60e51b815260040161076390613b57565b805181602001fd5b6001600160e01b031916630a85bd0160e11b149050611959565b506001949350505050565b606061289582611777565b6128fb5760405162461bcd60e51b815260206004820152603160248201527f45524337323155524953746f726167653a2055524920717565727920666f72206044820152703737b732bc34b9ba32b73a103a37b5b2b760791b6064820152608401610763565b6000828152600f602052604081208054612914906139f1565b80601f0160208091040260200160405190810160405280929190818152602001828054612940906139f1565b801561298d5780601f106129625761010080835404028352916020019161298d565b820191906000526020600020905b81548152906001019060200180831161297057829003601f168201915b5050505050905060006129ab60408051602081019091526000815290565b90508051600014156129be575092915050565b8151156129f05780826040516020016129d8929190613c8f565b60405160208183030381529060405292505050919050565b61195984612d8a565b612a038383612e61565b612a10600084848461276f565b6109075760405162461bcd60e51b815260040161076390613b57565b60606000612a3b8360026138e0565b612a46906002613929565b6001600160401b03811115612a5d57612a5d61324b565b6040519080825280601f01601f191660200182016040528015612a87576020820181803683370190505b509050600360fc1b81600081518110612aa257612aa2613941565b60200101906001600160f81b031916908160001a905350600f60fb1b81600181518110612ad157612ad1613941565b60200101906001600160f81b031916908160001a9053506000612af58460026138e0565b612b00906001613929565b90505b6001811115612b78576f181899199a1a9b1b9c1cb0b131b232b360811b85600f1660108110612b3457612b34613941565b1a60f81b828281518110612b4a57612b4a613941565b60200101906001600160f81b031916908160001a90535060049490941c93612b7181613cbe565b9050612b03565b5083156115a35760405162461bcd60e51b815260206004820181905260248201527f537472696e67733a20686578206c656e67746820696e73756666696369656e746044820152606401610763565b6001600160e01b03198082161415612c205760405162461bcd60e51b815260206004820152601c60248201527b115490cc4d8d4e881a5b9d985b1a59081a5b9d195c999858d9481a5960221b6044820152606401610763565b6001600160e01b0319166000908152600160208190526040909120805460ff19169091179055565b60008181526001830160205260408120548015612d31576000612c6c600183613a82565b8554909150600090612c8090600190613a82565b9050818114612ce5576000866000018281548110612ca057612ca0613941565b9060005260206000200154905080876000018481548110612cc357612cc3613941565b6000918252602080832090910192909255918252600188019052604090208390555b8554869080612cf657612cf6613cd5565b600190038181906000526020600020016000905590558560010160008681526020019081526020016000206000905560019350505050610661565b6000915050610661565b6000818152600183016020526040812054612d8257508154600181810184556000848152602080822090930184905584548482528286019093526040902091909155610661565b506000610661565b6060612d9582611777565b612df95760405162461bcd60e51b815260206004820152602f60248201527f4552433732314d657461646174613a2055524920717565727920666f72206e6f60448201526e3732bc34b9ba32b73a103a37b5b2b760891b6064820152608401610763565b6000612e1060408051602081019091526000815290565b90506000815111612e3057604051806020016040528060008152506115a3565b80612e3a84612f81565b604051602001612e4b929190613c8f565b6040516020818303038152906040529392505050565b6001600160a01b038216612eb75760405162461bcd60e51b815260206004820181905260248201527f4552433732313a206d696e7420746f20746865207a65726f20616464726573736044820152606401610763565b612ec081611777565b15612f0c5760405162461bcd60e51b815260206004820152601c60248201527b115490cdcc8c4e881d1bdad95b88185b1c9958591e481b5a5b9d195960221b6044820152606401610763565b6001600160a01b0382166000908152600660205260408120805460019290612f35908490613929565b909155505060008181526005602052604080822080546001600160a01b0319166001600160a01b0386169081179091559051839290600080516020613d20833981519152908290a45050565b606081612fa55750506040805180820190915260018152600360fc1b602082015290565b8160005b8115612fcf5780612fb981613957565b9150612fc89050600a83613915565b9150612fa9565b6000816001600160401b03811115612fe957612fe961324b565b6040519080825280601f01601f191660200182016040528015613013576020820181803683370190505b5090505b841561195957613028600183613a82565b9150613035600a86613ceb565b613040906030613929565b60f81b81838151811061305557613055613941565b60200101906001600160f81b031916908160001a905350613077600a86613915565b9450613017565b82805461308a906139f1565b90600052602060002090601f0160209004810192826130ac57600085556130f2565b82601f106130c557805160ff19168380011785556130f2565b828001600101855582156130f2579182015b828111156130f25782518255916020019190600101906130d7565b506130fe929150613102565b5090565b5b808211156130fe5760008155600101613103565b6001600160e01b03198116811461160057600080fd5b60006020828403121561313f57600080fd5b81356115a381613117565b60006020828403121561315c57600080fd5b5035919050565b60005b8381101561317e578181015183820152602001613166565b838111156113bc5750506000910152565b600081518084526131a7816020860160208601613163565b601f01601f19169290920160200192915050565b6020815260006115a3602083018461318f565b6001600160a01b0391909116815260200190565b6001600160a01b038116811461160057600080fd5b8035611cb9816131e2565b60006020828403121561321457600080fd5b81356115a3816131e2565b6000806040838503121561323257600080fd5b823561323d816131e2565b946020939093013593505050565b634e487b7160e01b600052604160045260246000fd5b60405161012081016001600160401b03811182821017156132845761328461324b565b60405290565b604051601f8201601f191681016001600160401b03811182821017156132b2576132b261324b565b604052919050565b60006001600160401b038311156132d3576132d361324b565b6132e6601f8401601f191660200161328a565b90508281528383830111156132fa57600080fd5b828260208301376000602084830101529392505050565b600082601f83011261332257600080fd5b6115a3838335602085016132ba565b6000806040838503121561334457600080fd5b8235915060208301356001600160401b0381111561336157600080fd5b61336d85828601613311565b9150509250929050565b60008060006060848603121561338c57600080fd5b8335613397816131e2565b925060208401356133a7816131e2565b929592945050506040919091013590565b600080604083850312156133cb57600080fd5b50508035926020909101359150565b6000806000606084860312156133ef57600080fd5b83356133fa816131e2565b9250602084810135925060408501356001600160401b038082111561341e57600080fd5b818701915087601f83011261343257600080fd5b8135818111156134445761344461324b565b8060051b61345385820161328a565b918252838101850191858101908b84111561346d57600080fd5b86860192505b838310156134a95782358581111561348b5760008081fd5b6134998d89838a0101613311565b8352509186019190860190613473565b809750505050505050509250925092565b600080604083850312156134cd57600080fd5b8235915060208301356134df816131e2565b809150509250929050565b803561ffff81168114611cb957600080fd5b6000806040838503121561350f57600080fd5b82356001600160401b038082111561352657600080fd5b90840190610120828703121561353b57600080fd5b613543613261565b82358281111561355257600080fd5b61355e88828601613311565b82525060208301358281111561357357600080fd5b61357f88828601613311565b60208301525060408301358281111561359757600080fd5b6135a388828601613311565b604083015250606083013560608201526135bf608084016131f7565b60808201526135d060a084016134ea565b60a08201526135e160c084016131f7565b60c08201526135f260e084016131f7565b60e082015261010091506136078284016131f7565b8282015280945050505061361d602084016131f7565b90509250929050565b6000806020838503121561363957600080fd5b82356001600160401b038082111561365057600080fd5b818501915085601f83011261366457600080fd5b81358181111561367357600080fd5b86602060608302850101111561368857600080fd5b60209290920196919550909350505050565b6001600160a01b0392909216825261ffff16602082015260400190565b6000602082840312156136c957600080fd5b81356001600160401b038111156136df57600080fd5b61195984828501613311565b600080604083850312156136fe57600080fd5b8235613709816131e2565b9150602083013580151581146134df57600080fd5b6000806000806080858703121561373457600080fd5b843561373f816131e2565b9350602085013561374f816131e2565b92506040850135915060608501356001600160401b0381111561377157600080fd5b8501601f8101871361378257600080fd5b613791878235602084016132ba565b91505092959194509250565b602080825282518282018190526000919060409081850190868401855b828110156137f157815180516001600160a01b031685528601516001600160601b03168685015292840192908501906001016137ba565b5091979650505050505050565b6000806040838503121561381157600080fd5b823561381c816131e2565b915060208301356134df816131e2565b60006040828403121561383e57600080fd5b50919050565b6020808252818101527f4f776e61626c653a2063616c6c6572206973206e6f7420746865206f776e6572604082015260600190565b60208082526031908201527f4552433732313a207472616e736665722063616c6c6572206973206e6f74206f6040820152701ddb995c881b9bdc88185c1c1c9bdd9959607a1b606082015260800190565b634e487b7160e01b600052601160045260246000fd5b60008160001904831182151516156138fa576138fa6138ca565b500290565b634e487b7160e01b600052601260045260246000fd5b600082613924576139246138ff565b500490565b6000821982111561393c5761393c6138ca565b500190565b634e487b7160e01b600052603260045260246000fd5b600060001982141561396b5761396b6138ca565b5060010190565b60006060828403121561398457600080fd5b604051606081016001600160401b03811182821017156139a6576139a661324b565b6040528235815260208301356139bb816131e2565b60208201526139cc604084016134ea565b60408201529392505050565b6000602082840312156139ea57600080fd5b5051919050565b600181811c90821680613a0557607f821691505b6020821081141561383e57634e487b7160e01b600052602260045260246000fd5b600060408284031215613a3857600080fd5b604080519081016001600160401b0381118282101715613a5a57613a5a61324b565b6040528235613a68816131e2565b8152613a76602084016134ea565b60208201529392505050565b600082821015613a9457613a946138ca565b500390565b6020808252602e908201527f496e697469616c697a61626c653a20636f6e747261637420697320616c72656160408201526d191e481a5b9a5d1a585b1a5e995960921b606082015260800190565b6020808252602b908201527f496e697469616c697a61626c653a20636f6e7472616374206973206e6f74206960408201526a6e697469616c697a696e6760a81b606082015260800190565b6020808252600b908201526a496e76616c69642062707360a81b604082015260600190565b60208082526032908201527f4552433732313a207472616e7366657220746f206e6f6e20455243373231526560408201527131b2b4bb32b91034b6b83632b6b2b73a32b960711b606082015260800190565b600060208284031215613bbb57600080fd5b81516115a3816131e2565b76020b1b1b2b9b9a1b7b73a3937b61d1030b1b1b7bab73a1604d1b815260008351613bf8816017850160208801613163565b7001034b99036b4b9b9b4b733903937b6329607d1b6017918401918201528351613c29816028840160208801613163565b01602801949350505050565b6001600160a01b0385811682528416602082015260408101839052608060608201819052600090613c689083018461318f565b9695505050505050565b600060208284031215613c8457600080fd5b81516115a381613117565b60008351613ca1818460208801613163565b835190830190613cb5818360208801613163565b01949350505050565b600081613ccd57613ccd6138ca565b506000190190565b634e487b7160e01b600052603160045260246000fd5b600082613cfa57613cfa6138ff565b50069056fe9f2df0fed2c77648de5860a4cc508cd0818c85b8b8a1ab4ceeef8d981c8956a6ddf252ad1be2c89b69c2b068fc378daa952ba7f163c4a11628f55a4df523b3efa264697066735822122010bbdd65413484fdb36cc483ca546514a4b93ebd83ac7fdba22b0d852049e0ef64736f6c63430008090033",
  "devdoc": {
    "kind": "dev",
    "methods": {
      "approve(address,uint256)": {
        "details": "See {IERC721-approve}."
      },
      "balanceOf(address)": {
        "details": "See {IERC721-balanceOf}."
      },
      "getApproved(uint256)": {
        "details": "See {IERC721-getApproved}."
      },
      "getRoleAdmin(bytes32)": {
        "details": "Returns the admin role that controls `role`. See {grantRole} and {revokeRole}. To change a role's admin, use {_setRoleAdmin}."
      },
      "getTokenRoyaltiesCount()": {
        "details": "See {IEIP2981RoyaltyOverride-getTokenRoyaltiesCount}."
      },
      "getTokenRoyaltyByIndex(uint256)": {
        "details": "See {IEIP2981RoyaltyOverride-getTokenRoyaltyByIndex}."
      },
      "grantRole(bytes32,address)": {
        "details": "Grants `role` to `account`. If `account` had not been already granted `role`, emits a {RoleGranted} event. Requirements: - the caller must have ``role``'s admin role."
      },
      "hasRole(bytes32,address)": {
        "details": "Returns `true` if `account` has been granted `role`."
      },
      "owner()": {
        "details": "Returns the address of the current owner."
      },
      "ownerOf(uint256)": {
        "details": "See {IERC721-ownerOf}."
      },
      "renounceOwnership()": {
        "details": "Leaves the contract without owner. It will not be possible to call `onlyOwner` functions anymore. Can only be called by the current owner. NOTE: Renouncing ownership will leave the contract without an owner, thereby removing any functionality that is only available to the owner."
      },
      "renounceRole(bytes32,address)": {
        "details": "Revokes `role` from the calling account. Roles are often managed via {grantRole} and {revokeRole}: this function's purpose is to provide a mechanism for accounts to lose their privileges if they are compromised (such as when a trusted device is misplaced). If the calling account had been revoked `role`, emits a {RoleRevoked} event. Requirements: - the caller must be `account`."
      },
      "revokeRole(bytes32,address)": {
        "details": "Revokes `role` from `account`. If `account` had been granted `role`, emits a {RoleRevoked} event. Requirements: - the caller must have ``role``'s admin role."
      },
      "royaltyInfo(uint256,uint256)": {
        "details": "See {IEIP2981RoyaltyOverride-royaltyInfo}."
      },
      "safeTransferFrom(address,address,uint256)": {
        "details": "See {IERC721-safeTransferFrom}."
      },
      "safeTransferFrom(address,address,uint256,bytes)": {
        "details": "See {IERC721-safeTransferFrom}."
      },
      "setApprovalForAll(address,bool)": {
        "details": "See {IERC721-setApprovalForAll}."
      },
      "transferFrom(address,address,uint256)": {
        "details": "See {IERC721-transferFrom}."
      },
      "transferOwnership(address)": {
        "details": "Transfers ownership of the contract to a new account (`newOwner`). Can only be called by the current owner."
      }
    },
    "version": 1
  },
  "userdoc": {
    "kind": "user",
    "methods": {
      "isApprovedForAll(address,address)": {
        "notice": "Override isApprovedForAll to whitelist user's OpenSea proxy accounts to enable gas-less listings."
      }
    },
    "version": 1
  },
  "storageLayout": {
    "storage": [
      {
        "astId": 886,
        "contract": "contracts/collections/ERC721/presets/ERC721OneOfOneCollection.sol:ERC721OneOfOneCollection",
        "label": "_initialized",
        "offset": 0,
        "slot": "0",
        "type": "t_uint8"
      },
      {
        "astId": 889,
        "contract": "contracts/collections/ERC721/presets/ERC721OneOfOneCollection.sol:ERC721OneOfOneCollection",
        "label": "_initializing",
        "offset": 1,
        "slot": "0",
        "type": "t_bool"
      },
      {
        "astId": 782,
        "contract": "contracts/collections/ERC721/presets/ERC721OneOfOneCollection.sol:ERC721OneOfOneCollection",
        "label": "_owner",
        "offset": 2,
        "slot": "0",
        "type": "t_address"
      },
      {
        "astId": 4693,
        "contract": "contracts/collections/ERC721/presets/ERC721OneOfOneCollection.sol:ERC721OneOfOneCollection",
        "label": "_supportedInterfaces",
        "offset": 0,
        "slot": "1",
        "type": "t_mapping(t_bytes4,t_bool)"
      },
      {
        "astId": 406,
        "contract": "contracts/collections/ERC721/presets/ERC721OneOfOneCollection.sol:ERC721OneOfOneCollection",
        "label": "_roles",
        "offset": 0,
        "slot": "2",
        "type": "t_mapping(t_bytes32,t_struct(RoleData)401_storage)"
      },
      {
        "astId": 1912,
        "contract": "contracts/collections/ERC721/presets/ERC721OneOfOneCollection.sol:ERC721OneOfOneCollection",
        "label": "_name",
        "offset": 0,
        "slot": "3",
        "type": "t_string_storage"
      },
      {
        "astId": 1914,
        "contract": "contracts/collections/ERC721/presets/ERC721OneOfOneCollection.sol:ERC721OneOfOneCollection",
        "label": "_symbol",
        "offset": 0,
        "slot": "4",
        "type": "t_string_storage"
      },
      {
        "astId": 1918,
        "contract": "contracts/collections/ERC721/presets/ERC721OneOfOneCollection.sol:ERC721OneOfOneCollection",
        "label": "_owners",
        "offset": 0,
        "slot": "5",
        "type": "t_mapping(t_uint256,t_address)"
      },
      {
        "astId": 1922,
        "contract": "contracts/collections/ERC721/presets/ERC721OneOfOneCollection.sol:ERC721OneOfOneCollection",
        "label": "_balances",
        "offset": 0,
        "slot": "6",
        "type": "t_mapping(t_address,t_uint256)"
      },
      {
        "astId": 1926,
        "contract": "contracts/collections/ERC721/presets/ERC721OneOfOneCollection.sol:ERC721OneOfOneCollection",
        "label": "_tokenApprovals",
        "offset": 0,
        "slot": "7",
        "type": "t_mapping(t_uint256,t_address)"
      },
      {
        "astId": 1932,
        "contract": "contracts/collections/ERC721/presets/ERC721OneOfOneCollection.sol:ERC721OneOfOneCollection",
        "label": "_operatorApprovals",
        "offset": 0,
        "slot": "8",
        "type": "t_mapping(t_address,t_mapping(t_address,t_bool))"
      },
      {
        "astId": 6089,
        "contract": "contracts/collections/ERC721/presets/ERC721OneOfOneCollection.sol:ERC721OneOfOneCollection",
        "label": "_name",
        "offset": 0,
        "slot": "9",
        "type": "t_string_storage"
      },
      {
        "astId": 6091,
        "contract": "contracts/collections/ERC721/presets/ERC721OneOfOneCollection.sol:ERC721OneOfOneCollection",
        "label": "_symbol",
        "offset": 0,
        "slot": "10",
        "type": "t_string_storage"
      },
      {
        "astId": 6093,
        "contract": "contracts/collections/ERC721/presets/ERC721OneOfOneCollection.sol:ERC721OneOfOneCollection",
        "label": "_contractURI",
        "offset": 0,
        "slot": "11",
        "type": "t_string_storage"
      },
      {
        "astId": 5694,
        "contract": "contracts/collections/ERC721/presets/ERC721OneOfOneCollection.sol:ERC721OneOfOneCollection",
        "label": "maxSupply",
        "offset": 0,
        "slot": "12",
        "type": "t_uint256"
      },
      {
        "astId": 5696,
        "contract": "contracts/collections/ERC721/presets/ERC721OneOfOneCollection.sol:ERC721OneOfOneCollection",
        "label": "maxSupplyFrozen",
        "offset": 0,
        "slot": "13",
        "type": "t_bool"
      },
      {
        "astId": 5699,
        "contract": "contracts/collections/ERC721/presets/ERC721OneOfOneCollection.sol:ERC721OneOfOneCollection",
        "label": "_currentTokenId",
        "offset": 0,
        "slot": "14",
        "type": "t_uint256"
      },
      {
        "astId": 3237,
        "contract": "contracts/collections/ERC721/presets/ERC721OneOfOneCollection.sol:ERC721OneOfOneCollection",
        "label": "_tokenURIs",
        "offset": 0,
        "slot": "15",
        "type": "t_mapping(t_uint256,t_string_storage)"
      },
      {
        "astId": 6940,
        "contract": "contracts/collections/ERC721/presets/ERC721OneOfOneCollection.sol:ERC721OneOfOneCollection",
        "label": "lastFrozenTokenId",
        "offset": 0,
        "slot": "16",
        "type": "t_uint256"
      },
      {
        "astId": 86,
        "contract": "contracts/collections/ERC721/presets/ERC721OneOfOneCollection.sol:ERC721OneOfOneCollection",
        "label": "defaultRoyalty",
        "offset": 0,
        "slot": "17",
        "type": "t_struct(TokenRoyalty)28_storage"
      },
      {
        "astId": 91,
        "contract": "contracts/collections/ERC721/presets/ERC721OneOfOneCollection.sol:ERC721OneOfOneCollection",
        "label": "_tokenRoyalties",
        "offset": 0,
        "slot": "18",
        "type": "t_mapping(t_uint256,t_struct(TokenRoyalty)28_storage)"
      },
      {
        "astId": 94,
        "contract": "contracts/collections/ERC721/presets/ERC721OneOfOneCollection.sol:ERC721OneOfOneCollection",
        "label": "_tokensWithRoyalties",
        "offset": 0,
        "slot": "19",
        "type": "t_struct(UintSet)5526_storage"
      },
      {
        "astId": 6575,
        "contract": "contracts/collections/ERC721/presets/ERC721OneOfOneCollection.sol:ERC721OneOfOneCollection",
        "label": "_openSeaProxyRegistryAddress",
        "offset": 0,
        "slot": "21",
        "type": "t_address"
      },
      {
        "astId": 6577,
        "contract": "contracts/collections/ERC721/presets/ERC721OneOfOneCollection.sol:ERC721OneOfOneCollection",
        "label": "_openSeaExchangeAddress",
        "offset": 0,
        "slot": "22",
        "type": "t_address"
      },
      {
        "astId": 10566,
        "contract": "contracts/collections/ERC721/presets/ERC721OneOfOneCollection.sol:ERC721OneOfOneCollection",
        "label": "_trustedForwarder",
        "offset": 0,
        "slot": "23",
        "type": "t_address"
      }
    ],
    "types": {
      "t_address": {
        "encoding": "inplace",
        "label": "address",
        "numberOfBytes": "20"
      },
      "t_array(t_bytes32)dyn_storage": {
        "base": "t_bytes32",
        "encoding": "dynamic_array",
        "label": "bytes32[]",
        "numberOfBytes": "32"
      },
      "t_bool": {
        "encoding": "inplace",
        "label": "bool",
        "numberOfBytes": "1"
      },
      "t_bytes32": {
        "encoding": "inplace",
        "label": "bytes32",
        "numberOfBytes": "32"
      },
      "t_bytes4": {
        "encoding": "inplace",
        "label": "bytes4",
        "numberOfBytes": "4"
      },
      "t_mapping(t_address,t_bool)": {
        "encoding": "mapping",
        "key": "t_address",
        "label": "mapping(address => bool)",
        "numberOfBytes": "32",
        "value": "t_bool"
      },
      "t_mapping(t_address,t_mapping(t_address,t_bool))": {
        "encoding": "mapping",
        "key": "t_address",
        "label": "mapping(address => mapping(address => bool))",
        "numberOfBytes": "32",
        "value": "t_mapping(t_address,t_bool)"
      },
      "t_mapping(t_address,t_uint256)": {
        "encoding": "mapping",
        "key": "t_address",
        "label": "mapping(address => uint256)",
        "numberOfBytes": "32",
        "value": "t_uint256"
      },
      "t_mapping(t_bytes32,t_struct(RoleData)401_storage)": {
        "encoding": "mapping",
        "key": "t_bytes32",
        "label": "mapping(bytes32 => struct AccessControl.RoleData)",
        "numberOfBytes": "32",
        "value": "t_struct(RoleData)401_storage"
      },
      "t_mapping(t_bytes32,t_uint256)": {
        "encoding": "mapping",
        "key": "t_bytes32",
        "label": "mapping(bytes32 => uint256)",
        "numberOfBytes": "32",
        "value": "t_uint256"
      },
      "t_mapping(t_bytes4,t_bool)": {
        "encoding": "mapping",
        "key": "t_bytes4",
        "label": "mapping(bytes4 => bool)",
        "numberOfBytes": "32",
        "value": "t_bool"
      },
      "t_mapping(t_uint256,t_address)": {
        "encoding": "mapping",
        "key": "t_uint256",
        "label": "mapping(uint256 => address)",
        "numberOfBytes": "32",
        "value": "t_address"
      },
      "t_mapping(t_uint256,t_string_storage)": {
        "encoding": "mapping",
        "key": "t_uint256",
        "label": "mapping(uint256 => string)",
        "numberOfBytes": "32",
        "value": "t_string_storage"
      },
      "t_mapping(t_uint256,t_struct(TokenRoyalty)28_storage)": {
        "encoding": "mapping",
        "key": "t_uint256",
        "label": "mapping(uint256 => struct IEIP2981RoyaltyOverride.TokenRoyalty)",
        "numberOfBytes": "32",
        "value": "t_struct(TokenRoyalty)28_storage"
      },
      "t_string_storage": {
        "encoding": "bytes",
        "label": "string",
        "numberOfBytes": "32"
      },
      "t_struct(RoleData)401_storage": {
        "encoding": "inplace",
        "label": "struct AccessControl.RoleData",
        "members": [
          {
            "astId": 398,
            "contract": "contracts/collections/ERC721/presets/ERC721OneOfOneCollection.sol:ERC721OneOfOneCollection",
            "label": "members",
            "offset": 0,
            "slot": "0",
            "type": "t_mapping(t_address,t_bool)"
          },
          {
            "astId": 400,
            "contract": "contracts/collections/ERC721/presets/ERC721OneOfOneCollection.sol:ERC721OneOfOneCollection",
            "label": "adminRole",
            "offset": 0,
            "slot": "1",
            "type": "t_bytes32"
          }
        ],
        "numberOfBytes": "64"
      },
      "t_struct(Set)5068_storage": {
        "encoding": "inplace",
        "label": "struct EnumerableSet.Set",
        "members": [
          {
            "astId": 5063,
            "contract": "contracts/collections/ERC721/presets/ERC721OneOfOneCollection.sol:ERC721OneOfOneCollection",
            "label": "_values",
            "offset": 0,
            "slot": "0",
            "type": "t_array(t_bytes32)dyn_storage"
          },
          {
            "astId": 5067,
            "contract": "contracts/collections/ERC721/presets/ERC721OneOfOneCollection.sol:ERC721OneOfOneCollection",
            "label": "_indexes",
            "offset": 0,
            "slot": "1",
            "type": "t_mapping(t_bytes32,t_uint256)"
          }
        ],
        "numberOfBytes": "64"
      },
      "t_struct(TokenRoyalty)28_storage": {
        "encoding": "inplace",
        "label": "struct IEIP2981RoyaltyOverride.TokenRoyalty",
        "members": [
          {
            "astId": 25,
            "contract": "contracts/collections/ERC721/presets/ERC721OneOfOneCollection.sol:ERC721OneOfOneCollection",
            "label": "recipient",
            "offset": 0,
            "slot": "0",
            "type": "t_address"
          },
          {
            "astId": 27,
            "contract": "contracts/collections/ERC721/presets/ERC721OneOfOneCollection.sol:ERC721OneOfOneCollection",
            "label": "bps",
            "offset": 20,
            "slot": "0",
            "type": "t_uint16"
          }
        ],
        "numberOfBytes": "32"
      },
      "t_struct(UintSet)5526_storage": {
        "encoding": "inplace",
        "label": "struct EnumerableSet.UintSet",
        "members": [
          {
            "astId": 5525,
            "contract": "contracts/collections/ERC721/presets/ERC721OneOfOneCollection.sol:ERC721OneOfOneCollection",
            "label": "_inner",
            "offset": 0,
            "slot": "0",
            "type": "t_struct(Set)5068_storage"
          }
        ],
        "numberOfBytes": "64"
      },
      "t_uint16": {
        "encoding": "inplace",
        "label": "uint16",
        "numberOfBytes": "2"
      },
      "t_uint256": {
        "encoding": "inplace",
        "label": "uint256",
        "numberOfBytes": "32"
      },
      "t_uint8": {
        "encoding": "inplace",
        "label": "uint8",
        "numberOfBytes": "1"
      }
    }
  }
}