{
  "address": "0x74c654a0e916bbd1083C4E5409169c2595F64A32",
  "abi": [
    {
      "inputs": [
        {
          "components": [
            {
              "internalType": "string",
              "name": "name",
              "type": "string"
            },
            {
              "internalType": "string",
              "name": "symbol",
              "type": "string"
            },
            {
              "internalType": "string",
              "name": "contractURI",
              "type": "string"
            },
            {
              "internalType": "string",
              "name": "placeholderURI",
              "type": "string"
            },
            {
              "internalType": "string",
              "name": "tokenURIPrefix",
              "type": "string"
            },
            {
              "internalType": "uint256",
              "name": "maxSupply",
              "type": "uint256"
            },
            {
              "components": [
                {
                  "internalType": "uint256",
                  "name": "start",
                  "type": "uint256"
                },
                {
                  "internalType": "uint256",
                  "name": "end",
                  "type": "uint256"
                },
                {
                  "internalType": "address",
                  "name": "currency",
                  "type": "address"
                },
                {
                  "internalType": "uint256",
                  "name": "price",
                  "type": "uint256"
                },
                {
                  "internalType": "uint256",
                  "name": "maxPerWallet",
                  "type": "uint256"
                },
                {
                  "internalType": "bytes32",
                  "name": "merkleRoot",
                  "type": "bytes32"
                },
                {
                  "internalType": "uint256",
                  "name": "reserved",
                  "type": "uint256"
                },
                {
                  "internalType": "uint256",
                  "name": "maxAllocation",
                  "type": "uint256"
                }
              ],
              "internalType": "struct IERC721TieringExtension.Tier[]",
              "name": "tiers",
              "type": "tuple[]"
            },
            {
              "internalType": "address",
              "name": "defaultRoyaltyAddress",
              "type": "address"
            },
            {
              "internalType": "uint16",
              "name": "defaultRoyaltyBps",
              "type": "uint16"
            },
            {
              "internalType": "address",
              "name": "proceedsRecipient",
              "type": "address"
            },
            {
              "internalType": "address",
              "name": "trustedForwarder",
              "type": "address"
            }
          ],
          "internalType": "struct ERC721TieredSalesCollection.Config",
          "name": "config",
          "type": "tuple"
        }
      ],
      "stateMutability": "nonpayable",
      "type": "constructor"
    },
    {
      "anonymous": false,
      "inputs": [
        {
          "indexed": true,
          "internalType": "address",
          "name": "owner",
          "type": "address"
        },
        {
          "indexed": true,
          "internalType": "address",
          "name": "approved",
          "type": "address"
        },
        {
          "indexed": true,
          "internalType": "uint256",
          "name": "tokenId",
          "type": "uint256"
        }
      ],
      "name": "Approval",
      "type": "event"
    },
    {
      "anonymous": false,
      "inputs": [
        {
          "indexed": true,
          "internalType": "address",
          "name": "owner",
          "type": "address"
        },
        {
          "indexed": true,
          "internalType": "address",
          "name": "operator",
          "type": "address"
        },
        {
          "indexed": false,
          "internalType": "bool",
          "name": "approved",
          "type": "bool"
        }
      ],
      "name": "ApprovalForAll",
      "type": "event"
    },
    {
      "anonymous": false,
      "inputs": [
        {
          "indexed": false,
          "internalType": "address",
          "name": "recipient",
          "type": "address"
        },
        {
          "indexed": false,
          "internalType": "uint16",
          "name": "bps",
          "type": "uint16"
        }
      ],
      "name": "DefaultRoyaltySet",
      "type": "event"
    },
    {
      "anonymous": false,
      "inputs": [
        {
          "indexed": false,
          "internalType": "uint8",
          "name": "version",
          "type": "uint8"
        }
      ],
      "name": "Initialized",
      "type": "event"
    },
    {
      "anonymous": false,
      "inputs": [
        {
          "indexed": true,
          "internalType": "address",
          "name": "previousOwner",
          "type": "address"
        },
        {
          "indexed": true,
          "internalType": "address",
          "name": "newOwner",
          "type": "address"
        }
      ],
      "name": "OwnershipTransferred",
      "type": "event"
    },
    {
      "anonymous": false,
      "inputs": [
        {
          "indexed": true,
          "internalType": "bytes32",
          "name": "role",
          "type": "bytes32"
        },
        {
          "indexed": true,
          "internalType": "bytes32",
          "name": "previousAdminRole",
          "type": "bytes32"
        },
        {
          "indexed": true,
          "internalType": "bytes32",
          "name": "newAdminRole",
          "type": "bytes32"
        }
      ],
      "name": "RoleAdminChanged",
      "type": "event"
    },
    {
      "anonymous": false,
      "inputs": [
        {
          "indexed": true,
          "internalType": "bytes32",
          "name": "role",
          "type": "bytes32"
        },
        {
          "indexed": true,
          "internalType": "address",
          "name": "account",
          "type": "address"
        },
        {
          "indexed": true,
          "internalType": "address",
          "name": "sender",
          "type": "address"
        }
      ],
      "name": "RoleGranted",
      "type": "event"
    },
    {
      "anonymous": false,
      "inputs": [
        {
          "indexed": true,
          "internalType": "bytes32",
          "name": "role",
          "type": "bytes32"
        },
        {
          "indexed": true,
          "internalType": "address",
          "name": "account",
          "type": "address"
        },
        {
          "indexed": true,
          "internalType": "address",
          "name": "sender",
          "type": "address"
        }
      ],
      "name": "RoleRevoked",
      "type": "event"
    },
    {
      "anonymous": false,
      "inputs": [
        {
          "indexed": false,
          "internalType": "uint256",
          "name": "tokenId",
          "type": "uint256"
        }
      ],
      "name": "TokenRoyaltyRemoved",
      "type": "event"
    },
    {
      "anonymous": false,
      "inputs": [
        {
          "indexed": false,
          "internalType": "uint256",
          "name": "tokenId",
          "type": "uint256"
        },
        {
          "indexed": false,
          "internalType": "address",
          "name": "recipient",
          "type": "address"
        },
        {
          "indexed": false,
          "internalType": "uint16",
          "name": "bps",
          "type": "uint16"
        }
      ],
      "name": "TokenRoyaltySet",
      "type": "event"
    },
    {
      "anonymous": false,
      "inputs": [
        {
          "indexed": true,
          "internalType": "address",
          "name": "from",
          "type": "address"
        },
        {
          "indexed": true,
          "internalType": "address",
          "name": "to",
          "type": "address"
        },
        {
          "indexed": true,
          "internalType": "uint256",
          "name": "tokenId",
          "type": "uint256"
        }
      ],
      "name": "Transfer",
      "type": "event"
    },
    {
      "anonymous": false,
      "inputs": [],
      "name": "WithdrawPowerRevoked",
      "type": "event"
    },
    {
      "anonymous": false,
      "inputs": [
        {
          "indexed": false,
          "internalType": "address[]",
          "name": "claimTokens",
          "type": "address[]"
        },
        {
          "indexed": false,
          "internalType": "uint256[]",
          "name": "amounts",
          "type": "uint256[]"
        }
      ],
      "name": "Withdrawn",
      "type": "event"
    },
    {
      "inputs": [],
      "name": "DEFAULT_ADMIN_ROLE",
      "outputs": [
        {
          "internalType": "bytes32",
          "name": "",
          "type": "bytes32"
        }
      ],
      "stateMutability": "view",
      "type": "function"
    },
    {
      "inputs": [],
      "name": "LOCKER_ROLE",
      "outputs": [
        {
          "internalType": "bytes32",
          "name": "",
          "type": "bytes32"
        }
      ],
      "stateMutability": "view",
      "type": "function"
    },
    {
      "inputs": [],
      "name": "MINTER_ROLE",
      "outputs": [
        {
          "internalType": "bytes32",
          "name": "",
          "type": "bytes32"
        }
      ],
      "stateMutability": "view",
      "type": "function"
    },
    {
      "inputs": [],
      "name": "_trustedForwarder",
      "outputs": [
        {
          "internalType": "address",
          "name": "",
          "type": "address"
        }
      ],
      "stateMutability": "view",
      "type": "function"
    },
    {
      "inputs": [
        {
          "internalType": "address",
          "name": "to",
          "type": "address"
        },
        {
          "internalType": "uint256",
          "name": "tokenId",
          "type": "uint256"
        }
      ],
      "name": "approve",
      "outputs": [],
      "stateMutability": "nonpayable",
      "type": "function"
    },
    {
      "inputs": [
        {
          "internalType": "address",
          "name": "owner",
          "type": "address"
        }
      ],
      "name": "balanceOf",
      "outputs": [
        {
          "internalType": "uint256",
          "name": "",
          "type": "uint256"
        }
      ],
      "stateMutability": "view",
      "type": "function"
    },
    {
      "inputs": [
        {
          "internalType": "uint256",
          "name": "tierId",
          "type": "uint256"
        },
        {
          "components": [
            {
              "internalType": "uint256",
              "name": "start",
              "type": "uint256"
            },
            {
              "internalType": "uint256",
              "name": "end",
              "type": "uint256"
            },
            {
              "internalType": "address",
              "name": "currency",
              "type": "address"
            },
            {
              "internalType": "uint256",
              "name": "price",
              "type": "uint256"
            },
            {
              "internalType": "uint256",
              "name": "maxPerWallet",
              "type": "uint256"
            },
            {
              "internalType": "bytes32",
              "name": "merkleRoot",
              "type": "bytes32"
            },
            {
              "internalType": "uint256",
              "name": "reserved",
              "type": "uint256"
            },
            {
              "internalType": "uint256",
              "name": "maxAllocation",
              "type": "uint256"
            }
          ],
          "internalType": "struct IERC721TieringExtension.Tier",
          "name": "tier",
          "type": "tuple"
        }
      ],
      "name": "configureTiering",
      "outputs": [],
      "stateMutability": "nonpayable",
      "type": "function"
    },
    {
      "inputs": [
        {
          "internalType": "uint256[]",
          "name": "_tierIds",
          "type": "uint256[]"
        },
        {
          "components": [
            {
              "internalType": "uint256",
              "name": "start",
              "type": "uint256"
            },
            {
              "internalType": "uint256",
              "name": "end",
              "type": "uint256"
            },
            {
              "internalType": "address",
              "name": "currency",
              "type": "address"
            },
            {
              "internalType": "uint256",
              "name": "price",
              "type": "uint256"
            },
            {
              "internalType": "uint256",
              "name": "maxPerWallet",
              "type": "uint256"
            },
            {
              "internalType": "bytes32",
              "name": "merkleRoot",
              "type": "bytes32"
            },
            {
              "internalType": "uint256",
              "name": "reserved",
              "type": "uint256"
            },
            {
              "internalType": "uint256",
              "name": "maxAllocation",
              "type": "uint256"
            }
          ],
          "internalType": "struct IERC721TieringExtension.Tier[]",
          "name": "_tiers",
          "type": "tuple[]"
        }
      ],
      "name": "configureTiering",
      "outputs": [],
      "stateMutability": "nonpayable",
      "type": "function"
    },
    {
      "inputs": [],
      "name": "contractURI",
      "outputs": [
        {
          "internalType": "string",
          "name": "",
          "type": "string"
        }
      ],
      "stateMutability": "view",
      "type": "function"
    },
    {
      "inputs": [],
      "name": "defaultRoyalty",
      "outputs": [
        {
          "internalType": "address",
          "name": "recipient",
          "type": "address"
        },
        {
          "internalType": "uint16",
          "name": "bps",
          "type": "uint16"
        }
      ],
      "stateMutability": "view",
      "type": "function"
    },
    {
      "inputs": [
        {
          "internalType": "uint256",
          "name": "tierId",
          "type": "uint256"
        },
        {
          "internalType": "address",
          "name": "minter",
          "type": "address"
        },
        {
          "internalType": "uint256",
          "name": "maxAllowance",
          "type": "uint256"
        },
        {
          "internalType": "bytes32[]",
          "name": "proof",
          "type": "bytes32[]"
        }
      ],
      "name": "eligibleForTier",
      "outputs": [
        {
          "internalType": "uint256",
          "name": "maxMintable",
          "type": "uint256"
        }
      ],
      "stateMutability": "view",
      "type": "function"
    },
    {
      "inputs": [
        {
          "internalType": "uint256[]",
          "name": "ticketTokenIds",
          "type": "uint256[]"
        }
      ],
      "name": "filterUnlocked",
      "outputs": [
        {
          "internalType": "uint256[]",
          "name": "",
          "type": "uint256[]"
        }
      ],
      "stateMutability": "view",
      "type": "function"
    },
    {
      "inputs": [],
      "name": "freezeMaxSupply",
      "outputs": [],
      "stateMutability": "nonpayable",
      "type": "function"
    },
    {
      "inputs": [],
      "name": "freezeTokenURI",
      "outputs": [],
      "stateMutability": "nonpayable",
      "type": "function"
    },
    {
      "inputs": [
        {
          "internalType": "uint256",
          "name": "tokenId",
          "type": "uint256"
        }
      ],
      "name": "getApproved",
      "outputs": [
        {
          "internalType": "address",
          "name": "",
          "type": "address"
        }
      ],
      "stateMutability": "view",
      "type": "function"
    },
    {
      "inputs": [
        {
          "internalType": "uint256",
          "name": "id",
          "type": "uint256"
        }
      ],
      "name": "getRaribleV2Royalties",
      "outputs": [
        {
          "components": [
            {
              "internalType": "address payable",
              "name": "account",
              "type": "address"
            },
            {
              "internalType": "uint96",
              "name": "value",
              "type": "uint96"
            }
          ],
          "internalType": "struct LibPart.Part[]",
          "name": "result",
          "type": "tuple[]"
        }
      ],
      "stateMutability": "view",
      "type": "function"
    },
    {
      "inputs": [
        {
          "internalType": "bytes32",
          "name": "role",
          "type": "bytes32"
        }
      ],
      "name": "getRoleAdmin",
      "outputs": [
        {
          "internalType": "bytes32",
          "name": "",
          "type": "bytes32"
        }
      ],
      "stateMutability": "view",
      "type": "function"
    },
    {
      "inputs": [],
      "name": "getTokenRoyaltiesCount",
      "outputs": [
        {
          "internalType": "uint256",
          "name": "",
          "type": "uint256"
        }
      ],
      "stateMutability": "view",
      "type": "function"
    },
    {
      "inputs": [
        {
          "internalType": "uint256",
          "name": "index",
          "type": "uint256"
        }
      ],
      "name": "getTokenRoyaltyByIndex",
      "outputs": [
        {
          "components": [
            {
              "internalType": "uint256",
              "name": "tokenId",
              "type": "uint256"
            },
            {
              "internalType": "address",
              "name": "recipient",
              "type": "address"
            },
            {
              "internalType": "uint16",
              "name": "bps",
              "type": "uint16"
            }
          ],
          "internalType": "struct IEIP2981RoyaltyOverride.TokenRoyaltyConfig",
          "name": "",
          "type": "tuple"
        }
      ],
      "stateMutability": "view",
      "type": "function"
    },
    {
      "inputs": [
        {
          "internalType": "bytes32",
          "name": "role",
          "type": "bytes32"
        },
        {
          "internalType": "address",
          "name": "account",
          "type": "address"
        }
      ],
      "name": "grantRole",
      "outputs": [],
      "stateMutability": "nonpayable",
      "type": "function"
    },
    {
      "inputs": [
        {
          "internalType": "bytes32",
          "name": "role",
          "type": "bytes32"
        },
        {
          "internalType": "address",
          "name": "account",
          "type": "address"
        }
      ],
      "name": "hasRole",
      "outputs": [
        {
          "internalType": "bool",
          "name": "",
          "type": "bool"
        }
      ],
      "stateMutability": "view",
      "type": "function"
    },
    {
      "inputs": [],
      "name": "hasRoleBasedLockableExtension",
      "outputs": [
        {
          "internalType": "bool",
          "name": "",
          "type": "bool"
        }
      ],
      "stateMutability": "view",
      "type": "function"
    },
    {
      "inputs": [
        {
          "components": [
            {
              "internalType": "string",
              "name": "name",
              "type": "string"
            },
            {
              "internalType": "string",
              "name": "symbol",
              "type": "string"
            },
            {
              "internalType": "string",
              "name": "contractURI",
              "type": "string"
            },
            {
              "internalType": "string",
              "name": "placeholderURI",
              "type": "string"
            },
            {
              "internalType": "string",
              "name": "tokenURIPrefix",
              "type": "string"
            },
            {
              "internalType": "uint256",
              "name": "maxSupply",
              "type": "uint256"
            },
            {
              "components": [
                {
                  "internalType": "uint256",
                  "name": "start",
                  "type": "uint256"
                },
                {
                  "internalType": "uint256",
                  "name": "end",
                  "type": "uint256"
                },
                {
                  "internalType": "address",
                  "name": "currency",
                  "type": "address"
                },
                {
                  "internalType": "uint256",
                  "name": "price",
                  "type": "uint256"
                },
                {
                  "internalType": "uint256",
                  "name": "maxPerWallet",
                  "type": "uint256"
                },
                {
                  "internalType": "bytes32",
                  "name": "merkleRoot",
                  "type": "bytes32"
                },
                {
                  "internalType": "uint256",
                  "name": "reserved",
                  "type": "uint256"
                },
                {
                  "internalType": "uint256",
                  "name": "maxAllocation",
                  "type": "uint256"
                }
              ],
              "internalType": "struct IERC721TieringExtension.Tier[]",
              "name": "tiers",
              "type": "tuple[]"
            },
            {
              "internalType": "address",
              "name": "defaultRoyaltyAddress",
              "type": "address"
            },
            {
              "internalType": "uint16",
              "name": "defaultRoyaltyBps",
              "type": "uint16"
            },
            {
              "internalType": "address",
              "name": "proceedsRecipient",
              "type": "address"
            },
            {
              "internalType": "address",
              "name": "trustedForwarder",
              "type": "address"
            }
          ],
          "internalType": "struct ERC721TieredSalesCollection.Config",
          "name": "config",
          "type": "tuple"
        },
        {
          "internalType": "address",
          "name": "deployer",
          "type": "address"
        }
      ],
      "name": "initialize",
      "outputs": [],
      "stateMutability": "nonpayable",
      "type": "function"
    },
    {
      "inputs": [
        {
          "internalType": "address",
          "name": "owner",
          "type": "address"
        },
        {
          "internalType": "address",
          "name": "operator",
          "type": "address"
        }
      ],
      "name": "isApprovedForAll",
      "outputs": [
        {
          "internalType": "bool",
          "name": "",
          "type": "bool"
        }
      ],
      "stateMutability": "view",
      "type": "function"
    },
    {
      "inputs": [
        {
          "internalType": "address",
          "name": "forwarder",
          "type": "address"
        }
      ],
      "name": "isTrustedForwarder",
      "outputs": [
        {
          "internalType": "bool",
          "name": "",
          "type": "bool"
        }
      ],
      "stateMutability": "view",
      "type": "function"
    },
    {
      "inputs": [
        {
          "internalType": "uint256[]",
          "name": "tokenIds",
          "type": "uint256[]"
        }
      ],
      "name": "lock",
      "outputs": [],
      "stateMutability": "nonpayable",
      "type": "function"
    },
    {
      "inputs": [
        {
          "internalType": "uint256",
          "name": "tokenId",
          "type": "uint256"
        }
      ],
      "name": "lock",
      "outputs": [],
      "stateMutability": "nonpayable",
      "type": "function"
    },
    {
      "inputs": [],
      "name": "lockWithdrawMode",
      "outputs": [],
      "stateMutability": "nonpayable",
      "type": "function"
    },
    {
      "inputs": [],
      "name": "lockWithdrawRecipient",
      "outputs": [],
      "stateMutability": "nonpayable",
      "type": "function"
    },
    {
      "inputs": [
        {
          "internalType": "uint256",
          "name": "tokenId",
          "type": "uint256"
        }
      ],
      "name": "locked",
      "outputs": [
        {
          "internalType": "bool",
          "name": "",
          "type": "bool"
        }
      ],
      "stateMutability": "view",
      "type": "function"
    },
    {
      "inputs": [],
      "name": "maxSupply",
      "outputs": [
        {
          "internalType": "uint256",
          "name": "",
          "type": "uint256"
        }
      ],
      "stateMutability": "view",
      "type": "function"
    },
    {
      "inputs": [],
      "name": "maxSupplyFrozen",
      "outputs": [
        {
          "internalType": "bool",
          "name": "",
          "type": "bool"
        }
      ],
      "stateMutability": "view",
      "type": "function"
    },
    {
      "inputs": [
        {
          "internalType": "address",
          "name": "to",
          "type": "address"
        },
        {
          "internalType": "uint256",
          "name": "count",
          "type": "uint256"
        }
      ],
      "name": "mintByOwner",
      "outputs": [],
      "stateMutability": "nonpayable",
      "type": "function"
    },
    {
      "inputs": [
        {
          "internalType": "address",
          "name": "to",
          "type": "address"
        },
        {
          "internalType": "uint256",
          "name": "count",
          "type": "uint256"
        }
      ],
      "name": "mintByRole",
      "outputs": [],
      "stateMutability": "nonpayable",
      "type": "function"
    },
    {
      "inputs": [
        {
          "internalType": "uint256",
          "name": "tierId",
          "type": "uint256"
        },
        {
          "internalType": "uint256",
          "name": "count",
          "type": "uint256"
        },
        {
          "internalType": "uint256",
          "name": "maxAllowance",
          "type": "uint256"
        },
        {
          "internalType": "bytes32[]",
          "name": "proof",
          "type": "bytes32[]"
        }
      ],
      "name": "mintByTier",
      "outputs": [],
      "stateMutability": "payable",
      "type": "function"
    },
    {
      "inputs": [],
      "name": "name",
      "outputs": [
        {
          "internalType": "string",
          "name": "",
          "type": "string"
        }
      ],
      "stateMutability": "view",
      "type": "function"
    },
    {
      "inputs": [
        {
          "internalType": "uint256",
          "name": "tierId",
          "type": "uint256"
        },
        {
          "internalType": "address",
          "name": "minter",
          "type": "address"
        },
        {
          "internalType": "uint256",
          "name": "maxAllowance",
          "type": "uint256"
        },
        {
          "internalType": "bytes32[]",
          "name": "proof",
          "type": "bytes32[]"
        }
      ],
      "name": "onTierAllowlist",
      "outputs": [
        {
          "internalType": "bool",
          "name": "",
          "type": "bool"
        }
      ],
      "stateMutability": "view",
      "type": "function"
    },
    {
      "inputs": [],
      "name": "owner",
      "outputs": [
        {
          "internalType": "address",
          "name": "",
          "type": "address"
        }
      ],
      "stateMutability": "view",
      "type": "function"
    },
    {
      "inputs": [
        {
          "internalType": "uint256",
          "name": "tokenId",
          "type": "uint256"
        }
      ],
      "name": "ownerOf",
      "outputs": [
        {
          "internalType": "address",
          "name": "",
          "type": "address"
        }
      ],
      "stateMutability": "view",
      "type": "function"
    },
    {
      "inputs": [],
      "name": "placeholderURI",
      "outputs": [
        {
          "internalType": "string",
          "name": "",
          "type": "string"
        }
      ],
      "stateMutability": "view",
      "type": "function"
    },
    {
      "inputs": [
        {
          "internalType": "uint256",
          "name": "tierId",
          "type": "uint256"
        }
      ],
      "name": "remainingForTier",
      "outputs": [
        {
          "internalType": "uint256",
          "name": "tierRemaining",
          "type": "uint256"
        }
      ],
      "stateMutability": "view",
      "type": "function"
    },
    {
      "inputs": [],
      "name": "renounceOwnership",
      "outputs": [],
      "stateMutability": "nonpayable",
      "type": "function"
    },
    {
      "inputs": [
        {
          "internalType": "bytes32",
          "name": "role",
          "type": "bytes32"
        },
        {
          "internalType": "address",
          "name": "account",
          "type": "address"
        }
      ],
      "name": "renounceRole",
      "outputs": [],
      "stateMutability": "nonpayable",
      "type": "function"
    },
    {
      "inputs": [
        {
          "internalType": "bytes32",
          "name": "role",
          "type": "bytes32"
        },
        {
          "internalType": "address",
          "name": "account",
          "type": "address"
        }
      ],
      "name": "revokeRole",
      "outputs": [],
      "stateMutability": "nonpayable",
      "type": "function"
    },
    {
      "inputs": [],
      "name": "revokeWithdrawPower",
      "outputs": [],
      "stateMutability": "nonpayable",
      "type": "function"
    },
    {
      "inputs": [
        {
          "internalType": "uint256",
          "name": "tokenId",
          "type": "uint256"
        },
        {
          "internalType": "uint256",
          "name": "value",
          "type": "uint256"
        }
      ],
      "name": "royaltyInfo",
      "outputs": [
        {
          "internalType": "address",
          "name": "",
          "type": "address"
        },
        {
          "internalType": "uint256",
          "name": "",
          "type": "uint256"
        }
      ],
      "stateMutability": "view",
      "type": "function"
    },
    {
      "inputs": [
        {
          "internalType": "address",
          "name": "from",
          "type": "address"
        },
        {
          "internalType": "address",
          "name": "to",
          "type": "address"
        },
        {
          "internalType": "uint256",
          "name": "tokenId",
          "type": "uint256"
        }
      ],
      "name": "safeTransferFrom",
      "outputs": [],
      "stateMutability": "nonpayable",
      "type": "function"
    },
    {
      "inputs": [
        {
          "internalType": "address",
          "name": "from",
          "type": "address"
        },
        {
          "internalType": "address",
          "name": "to",
          "type": "address"
        },
        {
          "internalType": "uint256",
          "name": "tokenId",
          "type": "uint256"
        },
        {
          "internalType": "bytes",
          "name": "_data",
          "type": "bytes"
        }
      ],
      "name": "safeTransferFrom",
      "outputs": [],
      "stateMutability": "nonpayable",
      "type": "function"
    },
    {
      "inputs": [
        {
          "internalType": "address",
          "name": "operator",
          "type": "address"
        },
        {
          "internalType": "bool",
          "name": "approved",
          "type": "bool"
        }
      ],
      "name": "setApprovalForAll",
      "outputs": [],
      "stateMutability": "nonpayable",
      "type": "function"
    },
    {
      "inputs": [
        {
          "internalType": "string",
          "name": "newValue",
          "type": "string"
        }
      ],
      "name": "setContractURI",
      "outputs": [],
      "stateMutability": "nonpayable",
      "type": "function"
    },
    {
      "inputs": [
        {
          "components": [
            {
              "internalType": "address",
              "name": "recipient",
              "type": "address"
            },
            {
              "internalType": "uint16",
              "name": "bps",
              "type": "uint16"
            }
          ],
          "internalType": "struct IEIP2981RoyaltyOverride.TokenRoyalty",
          "name": "royalty",
          "type": "tuple"
        }
      ],
      "name": "setDefaultRoyalty",
      "outputs": [],
      "stateMutability": "nonpayable",
      "type": "function"
    },
    {
      "inputs": [
        {
          "internalType": "uint256",
          "name": "newValue",
          "type": "uint256"
        }
      ],
      "name": "setMaxSupply",
      "outputs": [],
      "stateMutability": "nonpayable",
      "type": "function"
    },
    {
      "inputs": [
        {
          "internalType": "string",
          "name": "newValue",
          "type": "string"
        }
      ],
      "name": "setPlaceholderURI",
      "outputs": [],
      "stateMutability": "nonpayable",
      "type": "function"
    },
    {
      "inputs": [
        {
          "components": [
            {
              "internalType": "uint256",
              "name": "tokenId",
              "type": "uint256"
            },
            {
              "internalType": "address",
              "name": "recipient",
              "type": "address"
            },
            {
              "internalType": "uint16",
              "name": "bps",
              "type": "uint16"
            }
          ],
          "internalType": "struct IEIP2981RoyaltyOverride.TokenRoyaltyConfig[]",
          "name": "royaltyConfigs",
          "type": "tuple[]"
        }
      ],
      "name": "setTokenRoyalties",
      "outputs": [],
      "stateMutability": "nonpayable",
      "type": "function"
    },
    {
      "inputs": [
        {
          "internalType": "string",
          "name": "newValue",
          "type": "string"
        }
      ],
      "name": "setTokenURIPrefix",
      "outputs": [],
      "stateMutability": "nonpayable",
      "type": "function"
    },
    {
      "inputs": [
        {
          "internalType": "string",
          "name": "newValue",
          "type": "string"
        }
      ],
      "name": "setTokenURISuffix",
      "outputs": [],
      "stateMutability": "nonpayable",
      "type": "function"
    },
    {
      "inputs": [
        {
          "internalType": "address",
          "name": "trustedForwarder",
          "type": "address"
        }
      ],
      "name": "setTrustedForwarder",
      "outputs": [],
      "stateMutability": "nonpayable",
      "type": "function"
    },
    {
      "inputs": [
        {
          "internalType": "enum WithdrawMode",
          "name": "_withdrawMode",
          "type": "uint8"
        }
      ],
      "name": "setWithdrawMode",
      "outputs": [],
      "stateMutability": "nonpayable",
      "type": "function"
    },
    {
      "inputs": [
        {
          "internalType": "address",
          "name": "_withdrawRecipient",
          "type": "address"
        }
      ],
      "name": "setWithdrawRecipient",
      "outputs": [],
      "stateMutability": "nonpayable",
      "type": "function"
    },
    {
      "inputs": [
        {
          "internalType": "bytes4",
          "name": "interfaceId",
          "type": "bytes4"
        }
      ],
      "name": "supportsInterface",
      "outputs": [
        {
          "internalType": "bool",
          "name": "",
          "type": "bool"
        }
      ],
      "stateMutability": "view",
      "type": "function"
    },
    {
      "inputs": [],
      "name": "symbol",
      "outputs": [
        {
          "internalType": "string",
          "name": "",
          "type": "string"
        }
      ],
      "stateMutability": "view",
      "type": "function"
    },
    {
      "inputs": [
        {
          "internalType": "uint256",
          "name": "",
          "type": "uint256"
        }
      ],
      "name": "tierMints",
      "outputs": [
        {
          "internalType": "uint256",
          "name": "",
          "type": "uint256"
        }
      ],
      "stateMutability": "view",
      "type": "function"
    },
    {
      "inputs": [
        {
          "internalType": "uint256",
          "name": "",
          "type": "uint256"
        }
      ],
      "name": "tiers",
      "outputs": [
        {
          "internalType": "uint256",
          "name": "start",
          "type": "uint256"
        },
        {
          "internalType": "uint256",
          "name": "end",
          "type": "uint256"
        },
        {
          "internalType": "address",
          "name": "currency",
          "type": "address"
        },
        {
          "internalType": "uint256",
          "name": "price",
          "type": "uint256"
        },
        {
          "internalType": "uint256",
          "name": "maxPerWallet",
          "type": "uint256"
        },
        {
          "internalType": "bytes32",
          "name": "merkleRoot",
          "type": "bytes32"
        },
        {
          "internalType": "uint256",
          "name": "reserved",
          "type": "uint256"
        },
        {
          "internalType": "uint256",
          "name": "maxAllocation",
          "type": "uint256"
        }
      ],
      "stateMutability": "view",
      "type": "function"
    },
    {
      "inputs": [
        {
          "internalType": "uint256",
          "name": "_tokenId",
          "type": "uint256"
        }
      ],
      "name": "tokenURI",
      "outputs": [
        {
          "internalType": "string",
          "name": "",
          "type": "string"
        }
      ],
      "stateMutability": "view",
      "type": "function"
    },
    {
      "inputs": [],
      "name": "tokenURIFrozen",
      "outputs": [
        {
          "internalType": "bool",
          "name": "",
          "type": "bool"
        }
      ],
      "stateMutability": "view",
      "type": "function"
    },
    {
      "inputs": [],
      "name": "tokenURIPrefix",
      "outputs": [
        {
          "internalType": "string",
          "name": "",
          "type": "string"
        }
      ],
      "stateMutability": "view",
      "type": "function"
    },
    {
      "inputs": [],
      "name": "tokenURISuffix",
      "outputs": [
        {
          "internalType": "string",
          "name": "",
          "type": "string"
        }
      ],
      "stateMutability": "view",
      "type": "function"
    },
    {
      "inputs": [],
      "name": "totalReserved",
      "outputs": [
        {
          "internalType": "uint256",
          "name": "",
          "type": "uint256"
        }
      ],
      "stateMutability": "view",
      "type": "function"
    },
    {
      "inputs": [],
      "name": "totalSupply",
      "outputs": [
        {
          "internalType": "uint256",
          "name": "",
          "type": "uint256"
        }
      ],
      "stateMutability": "view",
      "type": "function"
    },
    {
      "inputs": [
        {
          "internalType": "address",
          "name": "from",
          "type": "address"
        },
        {
          "internalType": "address",
          "name": "to",
          "type": "address"
        },
        {
          "internalType": "uint256",
          "name": "tokenId",
          "type": "uint256"
        }
      ],
      "name": "transferFrom",
      "outputs": [],
      "stateMutability": "nonpayable",
      "type": "function"
    },
    {
      "inputs": [
        {
          "internalType": "address",
          "name": "newOwner",
          "type": "address"
        }
      ],
      "name": "transferOwnership",
      "outputs": [],
      "stateMutability": "nonpayable",
      "type": "function"
    },
    {
      "inputs": [
        {
          "internalType": "uint256[]",
          "name": "tokenIds",
          "type": "uint256[]"
        }
      ],
      "name": "unlock",
      "outputs": [],
      "stateMutability": "nonpayable",
      "type": "function"
    },
    {
      "inputs": [
        {
          "internalType": "uint256",
          "name": "tokenId",
          "type": "uint256"
        }
      ],
      "name": "unlock",
      "outputs": [],
      "stateMutability": "nonpayable",
      "type": "function"
    },
    {
      "inputs": [
        {
          "internalType": "address[]",
          "name": "claimTokens",
          "type": "address[]"
        },
        {
          "internalType": "uint256[]",
          "name": "amounts",
          "type": "uint256[]"
        }
      ],
      "name": "withdraw",
      "outputs": [],
      "stateMutability": "nonpayable",
      "type": "function"
    },
    {
      "inputs": [],
      "name": "withdrawMode",
      "outputs": [
        {
          "internalType": "enum WithdrawMode",
          "name": "",
          "type": "uint8"
        }
      ],
      "stateMutability": "view",
      "type": "function"
    },
    {
      "inputs": [],
      "name": "withdrawModeLocked",
      "outputs": [
        {
          "internalType": "bool",
          "name": "",
          "type": "bool"
        }
      ],
      "stateMutability": "view",
      "type": "function"
    },
    {
      "inputs": [],
      "name": "withdrawPowerRevoked",
      "outputs": [
        {
          "internalType": "bool",
          "name": "",
          "type": "bool"
        }
      ],
      "stateMutability": "view",
      "type": "function"
    },
    {
      "inputs": [],
      "name": "withdrawRecipient",
      "outputs": [
        {
          "internalType": "address",
          "name": "",
          "type": "address"
        }
      ],
      "stateMutability": "view",
      "type": "function"
    },
    {
      "inputs": [],
      "name": "withdrawRecipientLocked",
      "outputs": [
        {
          "internalType": "bool",
          "name": "",
          "type": "bool"
        }
      ],
      "stateMutability": "view",
      "type": "function"
    }
  ],
  "transactionHash": "0xca49b4aaad787acb8a8b9d0a8a778fa0b3a783494ebf1e759461af39a429ed69",
  "args": [
    {
      "name": "Collection",
      "symbol": "COL",
      "contractURI": "ipfs://contractURI",
      "placeholderURI": "ipfs://placeholderURI",
      "tokenURIPrefix": "ipfs://tokenURIPrefix/",
      "maxSupply": 0,
      "tiers": [],
      "defaultRoyaltyAddress": "0x0000000000000000000000000000000000000000",
      "defaultRoyaltyBps": 0,
      "proceedsRecipient": "0x0000000000000000000000000000000000000000",
      "trustedForwarder": "0x0000000000000000000000000000000000000000"
    }
  ],
  "numDeployments": 1,
  "solcInputHash": "0840fbb3ca279a9002b28a401248e439",
  "bytecode": "0x608060405260006012553480156200001657600080fd5b506040516200701c3803806200701c833981016040819052620000399162000f9c565b80516020820151620000546200004e6200009a565b620000b6565b81516200006990600390602085019062000ca5565b5080516200007f90600490602084019062000ca5565b505060016013555062000093813362000111565b5062001286565b6000620000b16200024d60201b62002cc81760201c565b905090565b600080546001600160a01b038381166201000081810262010000600160b01b0319851617855560405193049190911692909183917f8be0079c531659141344cd1fd0a4f28419497f9722a3daafe3b4186f6b6457e091a35050565b60006200011f600162000286565b9050801562000138576000805461ff0019166101001790555b6200014560008362000338565b6200015082620000b6565b6101208301516200016390600262000348565b8251602084015160408501516200017c9291906200037e565b6200019683606001518460800151620003b560201b60201c565b60a0830151620001a690620003eb565b620001b062000423565b620001bb8262000459565b620001c56200048e565b60c0830151620001d590620004c2565b620001f08360e00151846101000151620004f760201b60201c565b61014083015162000201906200052d565b801562000248576000805461ff0019169055604051600181527f7f26b83ff96e1f2b6a682f133852f6798a09c465da95921460cefb38474024989060200160405180910390a15b505050565b601f546000906001600160a01b031633141562000271575060131936013560601c90565b620000b16200056260201b62002cea1760201c565b60008054610100900460ff1615620002ef578160ff166001148015620002bf5750620002bd306200056660201b62002cee1760201c565b155b620002e75760405162461bcd60e51b8152600401620002de9062001135565b60405180910390fd5b506000919050565b60005460ff808416911610620003195760405162461bcd60e51b8152600401620002de9062001135565b506000805460ff191660ff92909216919091179055600190565b919050565b62000344828262000575565b5050565b600054610100900460ff16620003725760405162461bcd60e51b8152600401620002de9062001183565b6200034482826200061b565b600054610100900460ff16620003a85760405162461bcd60e51b8152600401620002de9062001183565b62000248838383620006a7565b600054610100900460ff16620003df5760405162461bcd60e51b8152600401620002de9062001183565b62000344828262000749565b600054610100900460ff16620004155760405162461bcd60e51b8152600401620002de9062001183565b6200042081620007f2565b50565b600054610100900460ff166200044d5760405162461bcd60e51b8152600401620002de9062001183565b6200045762000845565b565b600054610100900460ff16620004835760405162461bcd60e51b8152600401620002de9062001183565b620004208162000881565b600054610100900460ff16620004b85760405162461bcd60e51b8152600401620002de9062001183565b62000457620008e9565b600054610100900460ff16620004ec5760405162461bcd60e51b8152600401620002de9062001183565b620004208162000925565b600054610100900460ff16620005215760405162461bcd60e51b8152600401620002de9062001183565b62000344828262000a52565b600054610100900460ff16620005575760405162461bcd60e51b8152600401620002de9062001183565b620004208162000aef565b3390565b6001600160a01b03163b151590565b6000828152601a602090815260408083206001600160a01b038516845290915290205460ff1662000344576000828152601a602090815260408083206001600160a01b03851684529091529020805460ff19166001179055620005d76200009a565b6001600160a01b0316816001600160a01b0316837f2f8788117e7eff1d82e926ec794901d17c78024a50270940304540a733656f0d60405160405180910390a45050565b600054610100900460ff16620006455760405162461bcd60e51b8152600401620002de9062001183565b6200065763ac2ba33360e01b62000b3b565b600280546001600160a01b0384166001600160a01b0319821681178355839291600162ff000160a01b03191617600160b01b8360038111156200069e576200069e620011ce565b02179055505050565b600054610100900460ff16620006d15760405162461bcd60e51b8152600401620002de9062001183565b8251620006e690600d90602086019062000ca5565b508151620006fc90600e90602085019062000ca5565b5080516200071290600f90602084019062000ca5565b5062000725633d96f4ff60e11b62000b3b565b620007376380ac58cd60e01b62000b3b565b62000248635b5e139f60e01b62000b3b565b600054610100900460ff16620007735760405162461bcd60e51b8152600401620002de9062001183565b81516200078890600990602085019062000ca5565b5080516200079e90600a90602084019062000ca5565b5060408051808201909152600580825264173539b7b760d91b6020909201918252620007cd91600b9162000ca5565b50620007e0631f2f406b60e01b62000b3b565b62000344635b5e139f60e01b62000b3b565b600054610100900460ff166200081c5760405162461bcd60e51b8152600401620002de9062001183565b6010819055620008336330f487b560e11b62000b3b565b620004206380ac58cd60e01b62000b3b565b600054610100900460ff166200086f5760405162461bcd60e51b8152600401620002de9062001183565b62000457631aa1577160e11b62000b3b565b600054610100900460ff16620008ab5760405162461bcd60e51b8152600401620002de9062001183565b620008bd631a056e7160e01b62000b3b565b620004207f9f2df0fed2c77648de5860a4cc508cd0818c85b8b8a1ab4ceeef8d981c8956a68262000338565b600054610100900460ff16620009135760405162461bcd60e51b8152600401620002de9062001183565b6200045763714ad8e760e01b62000b3b565b600054610100900460ff166200094f5760405162461bcd60e51b8152600401620002de9062001183565b620009616308b4902960e41b62000b3b565b60005b81518110156200034457818181518110620009835762000983620011e4565b602090810291909101810151600083815260148352604090819020825181559282015160018401558101516002830180546001600160a01b0319166001600160a01b03909216919091179055606081015160038301556080810151600483015560a0810151600583015560c0810151600683015560e00151600790910155815182908290811062000a185762000a18620011e4565b602002602001015160c001516015600082825462000a37919062001210565b9091555081905062000a49816200122b565b91505062000964565b600054610100900460ff1662000a7c5760405162461bcd60e51b8152600401620002de9062001183565b62000a8e633a47bf5160e11b62000b3b565b62000aa063152a902d60e11b62000b3b565b62000ab263c69dbd8f60e01b62000b3b565b62000ac463656cb66560e11b62000b3b565b604080518082019091526001600160a01b038316815261ffff82166020820152620002488162000bbf565b600054610100900460ff1662000b195760405162461bcd60e51b8152600401620002de9062001183565b601f80546001600160a01b0319166001600160a01b0392909216919091179055565b6001600160e01b0319808216141562000b975760405162461bcd60e51b815260206004820152601c60248201527f4552433136353a20696e76616c696420696e74657266616365206964000000006044820152606401620002de565b6001600160e01b0319166000908152600160208190526040909120805460ff19169091179055565b612710816020015161ffff161062000c085760405162461bcd60e51b815260206004820152600b60248201526a496e76616c69642062707360a81b6044820152606401620002de565b60408051808201825282516001600160a01b03168082526020808501805161ffff1691909301819052601b8054600160a01b9092026001600160b01b03199092169092171790558251905191517f2c5ea6e4103e78cb101e796fb2dace540362fc542cbff5145eaa24af7dd8fe419262000c9a92916001600160a01b0392909216825261ffff16602082015260400190565b60405180910390a150565b82805462000cb39062001249565b90600052602060002090601f01602090048101928262000cd7576000855562000d22565b82601f1062000cf257805160ff191683800117855562000d22565b8280016001018555821562000d22579182015b8281111562000d2257825182559160200191906001019062000d05565b5062000d3092915062000d34565b5090565b5b8082111562000d30576000815560010162000d35565b634e487b7160e01b600052604160045260246000fd5b60405161010081016001600160401b038111828210171562000d875762000d8762000d4b565b60405290565b60405161016081016001600160401b038111828210171562000d875762000d8762000d4b565b604051601f8201601f191681016001600160401b038111828210171562000dde5762000dde62000d4b565b604052919050565b600082601f83011262000df857600080fd5b81516001600160401b0381111562000e145762000e1462000d4b565b602062000e2a601f8301601f1916820162000db3565b828152858284870101111562000e3f57600080fd5b60005b8381101562000e5f57858101830151828201840152820162000e42565b8381111562000e715760008385840101525b5095945050505050565b80516001600160a01b03811681146200033357600080fd5b600082601f83011262000ea557600080fd5b815160206001600160401b0382111562000ec35762000ec362000d4b565b62000ed3818360051b0162000db3565b82815260089290921b8401810191818101908684111562000ef357600080fd5b8286015b8481101562000f7e57610100818903121562000f135760008081fd5b62000f1d62000d61565b815181528482015185820152604062000f3881840162000e7b565b90820152606082810151908201526080808301519082015260a0808301519082015260c0808301519082015260e080830151908201528352918301916101000162000ef7565b509695505050505050565b805161ffff811681146200033357600080fd5b60006020828403121562000faf57600080fd5b81516001600160401b038082111562000fc757600080fd5b90830190610160828603121562000fdd57600080fd5b62000fe762000d8d565b82518281111562000ff757600080fd5b620010058782860162000de6565b8252506020830151828111156200101b57600080fd5b620010298782860162000de6565b6020830152506040830151828111156200104257600080fd5b620010508782860162000de6565b6040830152506060830151828111156200106957600080fd5b620010778782860162000de6565b6060830152506080830151828111156200109057600080fd5b6200109e8782860162000de6565b60808301525060a083015160a082015260c083015182811115620010c157600080fd5b620010cf8782860162000e93565b60c083015250620010e360e0840162000e7b565b60e08201526101009150620010fa82840162000f89565b8282015261012091506200111082840162000e7b565b8282015261014091506200112682840162000e7b565b91810191909152949350505050565b6020808252602e908201527f496e697469616c697a61626c653a20636f6e747261637420697320616c72656160408201526d191e481a5b9a5d1a585b1a5e995960921b606082015260800190565b6020808252602b908201527f496e697469616c697a61626c653a20636f6e7472616374206973206e6f74206960408201526a6e697469616c697a696e6760a81b606082015260800190565b634e487b7160e01b600052602160045260246000fd5b634e487b7160e01b600052603260045260246000fd5b634e487b7160e01b600052601160045260246000fd5b60008219821115620012265762001226620011fa565b500190565b6000600019821415620012425762001242620011fa565b5060010190565b600181811c908216806200125e57607f821691505b602082108114156200128057634e487b7160e01b600052602260045260246000fd5b50919050565b615d8680620012966000396000f3fe6080604052600436106103785760003560e01c806301ffc9a71461037d578063039af9eb146103b25780630653aca51461046357806306fdde03146104b2578063081812fc146104d4578063095ea7b31461050c578063167446071461052e57806318160ddd146105435780631a056e711461056257806320f1bb301461058257806323b872dd146105a2578063248a9ca3146105c25780632a55205a146105e25780632bb684ad146106105780632c2330671461063d5780632d00b5871461065d5780632f2ff15d1461068b5780633542aee2146106ab5780633574a2dd146106cb57806336568abe146106eb57806342842e0e1461070b57806349561cb91461072b5780635136dcc71461074c57806353367f081461076c57806356c022bb14610799578063572b6c05146107b95780635897f878146107d95780635d36598f146107f95780635ea2c91b146108195780636057e0ec1461082c5780636198e3391461084d5780636352211e1461086d57806368c7d37c1461088d5780636ef03047146108ad5780636f8b44b0146108cd57806370a08231146108ed578063714ad8e71461090d578063715018a6146109215780637313cba9146109365780637885fdc71461094b5780637e98034214610986578063837fe1401461099b578063859610c6146109b05780638da5cb5b146109d057806391d14854146109e5578063938e3d7b14610a0557806395d89b4114610a2557806399e0dd7c14610a3a578063a217fddf14610a5a578063a22cb46514610a6f578063a9852bfb14610a8f578063af121f5414610aaf578063b45a3c0e14610ad0578063b88d4fde14610af0578063ba4695fd14610b10578063bd2c18f714610b25578063c0ac998314610b45578063c0bb38ff14610b5a578063c29de63014610b7a578063c71b0e1c14610b94578063c723955a14610baa578063c87b56dd14610bbf578063cad96cca14610bdf578063d539139314610c0c578063d547741f14610c2e578063d5abeb0114610c4e578063d8b436fd14610c64578063da74222814610c84578063da82b22714610ca4578063dbbc853b14610cb9578063dcbe353f14610cce578063dd46706414610cee578063de6d6d9614610d0e578063e8a3d48514610d2e578063e985e9c514610d43578063ef60ceaf14610d63578063f2fde38b14610d83578063f362136714610da3578063f384702f14610dc5575b600080fd5b34801561038957600080fd5b5061039d610398366004614b7a565b610ddf565b60405190151581526020015b60405180910390f35b3480156103be57600080fd5b5061041a6103cd366004614b97565b60146020526000908152604090208054600182015460028301546003840154600485015460058601546006870154600790970154959694956001600160a01b039094169492939192909188565b6040805198895260208901979097526001600160a01b03909516958701959095526060860192909252608085015260a084015260c083019190915260e0820152610100016103a9565b34801561046f57600080fd5b5061048361047e366004614b97565b610df0565b60408051825181526020808401516001600160a01b0316908201529181015161ffff16908201526060016103a9565b3480156104be57600080fd5b506104c7610e75565b6040516103a99190614c08565b3480156104e057600080fd5b506104f46104ef366004614b97565b610e84565b6040516001600160a01b0390911681526020016103a9565b34801561051857600080fd5b5061052c610527366004614c3b565b610f11565b005b34801561053a57600080fd5b5061052c611034565b34801561054f57600080fd5b506012545b6040519081526020016103a9565b34801561056e57600080fd5b5061052c61057d366004614c3b565b611082565b34801561058e57600080fd5b5061052c61059d366004614c67565b6110e8565b3480156105ae57600080fd5b5061052c6105bd366004614ca1565b611305565b3480156105ce57600080fd5b506105546105dd366004614b97565b61133d565b3480156105ee57600080fd5b506106026105fd366004614ce2565b611352565b6040516103a9929190614d04565b34801561061c57600080fd5b5061063061062b366004614d61565b611417565b6040516103a99190614da2565b34801561064957600080fd5b5061052c610658366004614de6565b6114e1565b34801561066957600080fd5b5060025461067e90600160b01b900460ff1681565b6040516103a99190614e1d565b34801561069757600080fd5b5061052c6106a6366004614e45565b611577565b3480156106b757600080fd5b5061052c6106c6366004614c3b565b611593565b3480156106d757600080fd5b5061052c6106e6366004614f7e565b6115d2565b3480156106f757600080fd5b5061052c610706366004614e45565b611624565b34801561071757600080fd5b5061052c610726366004614ca1565b6116ae565b34801561073757600080fd5b5060025461039d90600160b81b900460ff1681565b34801561075857600080fd5b5061052c610767366004614fb2565b6116c9565b34801561077857600080fd5b50610554610787366004614b97565b60166020526000908152604090205481565b3480156107a557600080fd5b50601f546104f4906001600160a01b031681565b3480156107c557600080fd5b5061039d6107d4366004615026565b611763565b3480156107e557600080fd5b506105546107f4366004614b97565b611777565b34801561080557600080fd5b5061052c610814366004614d61565b6117f4565b61052c610827366004615043565b611898565b34801561083857600080fd5b5060025461039d90600160a01b900460ff1681565b34801561085957600080fd5b5061052c610868366004614b97565b611b74565b34801561087957600080fd5b506104f4610888366004614b97565b611be1565b34801561089957600080fd5b5061039d6108a83660046150a3565b611c58565b3480156108b957600080fd5b5061052c6108c83660046151eb565b611cfa565b3480156108d957600080fd5b5061052c6108e8366004614b97565b611e09565b3480156108f957600080fd5b50610554610908366004615026565b611e54565b34801561091957600080fd5b50600161039d565b34801561092d57600080fd5b5061052c611edb565b34801561094257600080fd5b506104c7611f26565b34801561095757600080fd5b50601b54610978906001600160a01b03811690600160a01b900461ffff1682565b6040516103a9929190615376565b34801561099257600080fd5b50610554611fb8565b3480156109a757600080fd5b5061052c611fc4565b3480156109bc57600080fd5b5061052c6109cb366004614d61565b612042565b3480156109dc57600080fd5b506104f46120dc565b3480156109f157600080fd5b5061039d610a00366004614e45565b6120f1565b348015610a1157600080fd5b5061052c610a20366004614f7e565b61211c565b348015610a3157600080fd5b506104c761216e565b348015610a4657600080fd5b5061052c610a55366004614f7e565b612178565b348015610a6657600080fd5b50610554600081565b348015610a7b57600080fd5b5061052c610a8a3660046153a1565b6121ed565b348015610a9b57600080fd5b5061052c610aaa366004614f7e565b6121ff565b348015610abb57600080fd5b5060025461039d90600160a81b900460ff1681565b348015610adc57600080fd5b5061039d610aeb366004614b97565b612274565b348015610afc57600080fd5b5061052c610b0b3660046153cf565b612281565b348015610b1c57600080fd5b5061052c6122c0565b348015610b3157600080fd5b50610554610b403660046150a3565b61230e565b348015610b5157600080fd5b506104c761253f565b348015610b6657600080fd5b5061052c610b75366004615026565b61254e565b348015610b8657600080fd5b50600c5461039d9060ff1681565b348015610ba057600080fd5b5061055460155481565b348015610bb657600080fd5b5061052c6125d9565b348015610bcb57600080fd5b506104c7610bda366004614b97565b61266f565b348015610beb57600080fd5b50610bff610bfa366004614b97565b61267a565b6040516103a9919061544e565b348015610c1857600080fd5b50610554600080516020615cf183398151915281565b348015610c3a57600080fd5b5061052c610c49366004614e45565b612735565b348015610c5a57600080fd5b5061055460105481565b348015610c7057600080fd5b5061052c610c7f3660046154af565b612751565b348015610c9057600080fd5b5061052c610c9f366004615026565b6127ee565b348015610cb057600080fd5b5061052c61284f565b348015610cc557600080fd5b506104c76128cc565b348015610cda57600080fd5b506002546104f4906001600160a01b031681565b348015610cfa57600080fd5b5061052c610d09366004614b97565b6128db565b348015610d1a57600080fd5b5061052c610d29366004615548565b612940565b348015610d3a57600080fd5b506104c7612b88565b348015610d4f57600080fd5b5061039d610d5e3660046155b3565b612b97565b348015610d6f57600080fd5b5061052c610d7e3660046155e1565b612bc5565b348015610d8f57600080fd5b5061052c610d9e366004615026565b612c1b565b348015610daf57600080fd5b50610554600080516020615d3183398151915281565b348015610dd157600080fd5b5060115461039d9060ff1681565b6000610dea82612cfd565b92915050565b6040805160608101825260008082526020820181905291810182905290610e18601d84612d39565b6000818152601c60209081526040918290208251808401845290546001600160a01b03808216835261ffff600160a01b90920482168385019081528551606081018752968752925116928501929092525116908201529392505050565b6060610e7f612d4c565b905090565b6000610e8f82612d5b565b610ef55760405162461bcd60e51b815260206004820152602c60248201527f4552433732313a20617070726f76656420717565727920666f72206e6f6e657860448201526b34b9ba32b73a103a37b5b2b760a11b60648201526084015b60405180910390fd5b506000908152600760205260409020546001600160a01b031690565b6000610f1c82611be1565b9050806001600160a01b0316836001600160a01b03161415610f8a5760405162461bcd60e51b815260206004820152602160248201527f4552433732313a20617070726f76616c20746f2063757272656e74206f776e656044820152603960f91b6064820152608401610eec565b806001600160a01b0316610f9c612d78565b6001600160a01b03161480610fb85750610fb881610d5e612d78565b6110255760405162461bcd60e51b815260206004820152603860248201527f4552433732313a20617070726f76652063616c6c6572206973206e6f74206f776044820152771b995c881b9bdc88185c1c1c9bdd995908199bdc88185b1b60421b6064820152608401610eec565b61102f8383612d82565b505050565b61103c612d78565b6001600160a01b031661104d6120dc565b6001600160a01b0316146110735760405162461bcd60e51b8152600401610eec906155f9565b6011805460ff19166001179055565b61109c600080516020615cf1833981519152610a00612d78565b6110da5760405162461bcd60e51b815260206004820152600f60248201526e4e4f545f4d494e5445525f524f4c4560881b6044820152606401610eec565b6110e48282612df0565b5050565b6110f0612d78565b6001600160a01b03166111016120dc565b6001600160a01b0316146111275760405162461bcd60e51b8152600401610eec906155f9565b60008281526016602052604090205460e0820135101561117d5760405162461bcd60e51b81526020600482015260116024820152701313d5d15497d512105397d35253951151607a1b6044820152606401610eec565b600082815260146020526040902060060154156111eb5760008281526016602052604090205460c082013510156111eb5760405162461bcd60e51b81526020600482015260126024820152711313d5d7d49154d154959157d05353d5539560721b6044820152606401610eec565b6000828152601660205260409020541561125957600082815260146020526040902060040154608082013510156112595760405162461bcd60e51b81526020600482015260126024820152711313d5d7d3505617d4115497d5d05313115560721b6044820152606401610eec565b600082815260146020526040812060060154601580549192909161127e908490615644565b90915550506000828152601460205260409020819061129d828261565b565b9050508060c00135601560008282546112b691906156cc565b909155505060105460155411156110e45760405162461bcd60e51b815260206004820152601360248201527213505617d4d55414131657d15610d151511151606a1b6044820152606401610eec565b611316611310612d78565b82612e79565b6113325760405162461bcd60e51b8152600401610eec906156e4565b61102f838383612f43565b6000908152601a602052604090206001015490565b6000828152601c602052604081205481906001600160a01b0316156113b7576000848152601c60205260409020546001600160a01b03811690612710906113a490600160a01b900461ffff1686615735565b6113ae919061576a565b91509150611410565b601b546001600160a01b0316158015906113dd5750601b54600160a01b900461ffff1615155b1561140957601b546001600160a01b03811690612710906113a490600160a01b900461ffff1686615735565b5060009050805b9250929050565b60606000826001600160401b0381111561143357611433614e75565b60405190808252806020026020018201604052801561145c578160200160208202803683370190505b50905060005b838110156114d95761148b85858381811061147f5761147f61577e565b90506020020135612274565b6114c7578484828181106114a1576114a161577e565b905060200201358282815181106114ba576114ba61577e565b6020026020010181815250505b806114d181615794565b915050611462565b509392505050565b6114e9612d78565b6001600160a01b03166114fa6120dc565b6001600160a01b0316146115205760405162461bcd60e51b8152600401610eec906155f9565b600254600160b81b900460ff161561154a5760405162461bcd60e51b8152600401610eec906157af565b6002805482919060ff60b01b1916600160b01b83600381111561156f5761156f614e07565b021790555050565b6115808261133d565b611589816130d8565b61102f83836130e9565b61159b612d78565b6001600160a01b03166115ac6120dc565b6001600160a01b0316146110da5760405162461bcd60e51b8152600401610eec906155f9565b6115da612d78565b6001600160a01b03166115eb6120dc565b6001600160a01b0316146116115760405162461bcd60e51b8152600401610eec906155f9565b80516110e4906009906020840190614acb565b61162c612d78565b6001600160a01b0316816001600160a01b0316146116a45760405162461bcd60e51b815260206004820152602f60248201527f416363657373436f6e74726f6c3a2063616e206f6e6c792072656e6f756e636560448201526e103937b632b9903337b91039b2b63360891b6064820152608401610eec565b6110e48282613170565b61102f83838360405180602001604052806000815250612281565b6116d1612d78565b6001600160a01b03166116e26120dc565b6001600160a01b0316146117085760405162461bcd60e51b8152600401610eec906155f9565b6110e48282808060200260200160405190810160405280939291908181526020016000905b828210156117595761174a606083028601368190038101906157cf565b8152602001906001019061172d565b50505050506131f5565b601f546001600160a01b0391821691161490565b60006018546015546117899190615644565b6012546010546117999190615644565b6117a39190615644565b600083815260146020526040902060060154909150156117ef576000828152601660209081526040808320546014909252909120600601546117e59190615644565b610dea90826156cc565b919050565b600260135414156118175760405162461bcd60e51b8152600401610eec90615835565b6002601355611834600080516020615d31833981519152336120f1565b6118505760405162461bcd60e51b8152600401610eec9061586c565b60005b8181101561188e5761187c8383838181106118705761187061577e565b9050602002013561339c565b8061188681615794565b915050611853565b5050600160135550565b600260135414156118bb5760405162461bcd60e51b8152600401610eec90615835565b600260135560006118ca612d78565b905060006118db878387878761230e565b90508086111561191b5760405162461bcd60e51b815260206004820152600b60248201526a08ab0868a8a88a6be9a82b60ab1b6044820152606401610eec565b61192487611777565b8611156119435760405162461bcd60e51b8152600401610eec90615895565b60008781526014602090815260408083206007015460169092529091205461196b90886156cc565b11156119895760405162461bcd60e51b8152600401610eec90615895565b6000878152601460205260409020600201546001600160a01b0316611a105760008781526014602052604090206003015434906119c7908890615735565b1115611a0b5760405162461bcd60e51b8152602060048201526013602482015272125394d551919250d251539517d05353d55395606a1b6044820152606401610eec565b611ad3565b600087815260146020526040902060028101546003909101546001600160a01b03909116906323b872dd9084903090611a4a908b90615735565b6040516001600160e01b031960e086901b1681526001600160a01b0393841660048201529290911660248301526044820152606401602060405180830381600087803b158015611a9957600080fd5b505af1158015611aad573d6000803e3d6000fd5b505050506040513d601f19601f82011682018060405250810190611ad191906158c1565b505b60008781526017602090815260408083206001600160a01b038616845290915281208054889290611b059084906156cc565b909155505060008781526016602052604081208054889290611b289084906156cc565b909155505060008781526014602052604090206006015415611b5c578560186000828254611b5691906156cc565b90915550505b611b668287612df0565b505060016013555050505050565b60026013541415611b975760405162461bcd60e51b8152600401610eec90615835565b6002601355611bb4600080516020615d31833981519152336120f1565b611bd05760405162461bcd60e51b8152600401610eec9061586c565b611bd98161339c565b506001601355565b6000818152600560205260408120546001600160a01b031680610dea5760405162461bcd60e51b815260206004820152602960248201527f4552433732313a206f776e657220717565727920666f72206e6f6e657869737460448201526832b73a103a37b5b2b760b91b6064820152608401610eec565b6000611cee83838080602002602001604051908101604052809392919081815260200183836020028082843760009201829052508b8152601460205260409020600501549250611ce99150899050886040516001600160601b0319606084901b1660208201526034810182905260009060540160405160208183030381529060405280519060200120905092915050565b613403565b90505b95945050505050565b6000611d066001613419565b90508015611d1e576000805461ff0019166101001790555b611d296000836134a8565b611d32826134b2565b611d42836101200151600261350d565b611d5983600001518460200151856040015161353e565b611d6b83606001518460800151613570565b611d788360a001516135a1565b611d806135d1565b611d8982613600565b611d91613630565b611d9e8360c0015161365f565b611db18360e0015184610100015161368f565b611dbf8361014001516136c0565b801561102f576000805461ff0019169055604051600181527f7f26b83ff96e1f2b6a682f133852f6798a09c465da95921460cefb38474024989060200160405180910390a1505050565b611e11612d78565b6001600160a01b0316611e226120dc565b6001600160a01b031614611e485760405162461bcd60e51b8152600401610eec906155f9565b611e51816136f0565b50565b60006001600160a01b038216611ebf5760405162461bcd60e51b815260206004820152602a60248201527f4552433732313a2062616c616e636520717565727920666f7220746865207a65604482015269726f206164647265737360b01b6064820152608401610eec565b506001600160a01b031660009081526006602052604090205490565b611ee3612d78565b6001600160a01b0316611ef46120dc565b6001600160a01b031614611f1a5760405162461bcd60e51b8152600401610eec906155f9565b611f2460006134b2565b565b606060098054611f35906158de565b80601f0160208091040260200160405190810160405280929190818152602001828054611f61906158de565b8015611fae5780601f10611f8357610100808354040283529160200191611fae565b820191906000526020600020905b815481529060010190602001808311611f9157829003601f168201915b5050505050905090565b6000610e7f601d613799565b611fcc612d78565b6001600160a01b0316611fdd6120dc565b6001600160a01b0316146120035760405162461bcd60e51b8152600401610eec906155f9565b600254600160a01b900460ff161561202d5760405162461bcd60e51b8152600401610eec906157af565b6002805460ff60a01b1916600160a01b179055565b600260135414156120655760405162461bcd60e51b8152600401610eec90615835565b6002601355612082600080516020615d31833981519152336120f1565b61209e5760405162461bcd60e51b8152600401610eec9061586c565b60005b8181101561188e576120ca8383838181106120be576120be61577e565b905060200201356137a3565b806120d481615794565b9150506120a1565b6000546201000090046001600160a01b031690565b6000918252601a602090815260408084206001600160a01b0393909316845291905290205460ff1690565b612124612d78565b6001600160a01b03166121356120dc565b6001600160a01b03161461215b5760405162461bcd60e51b8152600401610eec906155f9565b80516110e490600f906020840190614acb565b6060610e7f6137ed565b612180612d78565b6001600160a01b03166121916120dc565b6001600160a01b0316146121b75760405162461bcd60e51b8152600401610eec906155f9565b600c5460ff16156121da5760405162461bcd60e51b8152600401610eec90615913565b80516110e490600a906020840190614acb565b6110e46121f8612d78565b83836137fc565b612207612d78565b6001600160a01b03166122186120dc565b6001600160a01b03161461223e5760405162461bcd60e51b8152600401610eec906155f9565b600c5460ff16156122615760405162461bcd60e51b8152600401610eec90615913565b80516110e490600b906020840190614acb565b6000610dea6019836138c7565b61229261228c612d78565b83612e79565b6122ae5760405162461bcd60e51b8152600401610eec906156e4565b6122ba848484846138eb565b50505050565b6122c8612d78565b6001600160a01b03166122d96120dc565b6001600160a01b0316146122ff5760405162461bcd60e51b8152600401610eec906155f9565b600c805460ff19166001179055565b6000858152601460205260408120600401546123595760405162461bcd60e51b815260206004820152600a6024820152694e4f545f45584953545360b01b6044820152606401610eec565b6000868152601460205260409020544210156123a55760405162461bcd60e51b815260206004820152600b60248201526a1393d517d4d5105495115160aa1b6044820152606401610eec565b6000868152601460205260409020600101544211156123f65760405162461bcd60e51b815260206004820152600d60248201526c1053149150511657d153911151609a1b6044820152606401610eec565b60008681526017602090815260408083206001600160a01b03891684528252808320548984526014909252909120600401546124329190615644565b60008781526014602052604090206005015490915015611cf15760008681526017602090815260408083206001600160a01b038916845290915290205484116124af5760405162461bcd60e51b815260206004820152600f60248201526e4d415845445f414c4c4f57414e434560881b6044820152606401610eec565b6124bc8686868686611c58565b6124fa5760405162461bcd60e51b815260206004820152600f60248201526e1393d517d0531313d5d31254d51151608a1b6044820152606401610eec565b60008681526017602090815260408083206001600160a01b03891684529091528120546125279086615644565b905080821115612535578091505b5095945050505050565b6060600a8054611f35906158de565b612556612d78565b6001600160a01b03166125676120dc565b6001600160a01b03161461258d5760405162461bcd60e51b8152600401610eec906155f9565b600254600160a01b900460ff16156125b75760405162461bcd60e51b8152600401610eec906157af565b600280546001600160a01b0319166001600160a01b0392909216919091179055565b6125e1612d78565b6001600160a01b03166125f26120dc565b6001600160a01b0316146126185760405162461bcd60e51b8152600401610eec906155f9565b600254600160b81b900460ff161561265a5760405162461bcd60e51b815260206004820152600560248201526413d0d2d15160da1b6044820152606401610eec565b6002805460ff60b81b1916600160b81b179055565b6060610dea8261391e565b604080516001808252818301909252606091816020015b6040805180820190915260008082526020820152815260200190600190039081612691575050601b5481519192506001600160a01b03169082906000906126da576126da61577e565b60209081029190910101516001600160a01b03919091169052601b548151600160a01b90910461ffff169082906000906127165761271661577e565b6020908102919091018101516001600160601b03909216910152919050565b61273e8261133d565b612747816130d8565b61102f8383613170565b612759612d78565b6001600160a01b031661276a6120dc565b6001600160a01b0316146127905760405162461bcd60e51b8152600401610eec906155f9565b60005b838110156127e7576127d58585838181106127b0576127b061577e565b905060200201358484848181106127c9576127c961577e565b905061010002016110e8565b806127df81615794565b915050612793565b5050505050565b6127f6612d78565b6001600160a01b03166128076120dc565b6001600160a01b03161461282d5760405162461bcd60e51b8152600401610eec906155f9565b601f80546001600160a01b0319166001600160a01b0392909216919091179055565b612857612d78565b6001600160a01b03166128686120dc565b6001600160a01b03161461288e5760405162461bcd60e51b8152600401610eec906155f9565b6002805460ff60a81b1916600160a81b1790556040517fa24423a69b45c25c0479663125e48b482e71d85eae416f589545243bafaf3c9590600090a1565b6060600b8054611f35906158de565b600260135414156128fe5760405162461bcd60e51b8152600401610eec90615835565b600260135561291b600080516020615d31833981519152336120f1565b6129375760405162461bcd60e51b8152600401610eec9061586c565b611bd9816137a3565b612949336139fa565b6002546001600160a01b03166129995760405162461bcd60e51b815260206004820152601560248201527415d2551211149055cbd393d7d49150d25412515395605a1b6044820152606401610eec565b600254600160a81b900460ff16156129f35760405162461bcd60e51b815260206004820181905260248201527f57495448445241572f454d455247454e43595f504f5745525f5245564f4b45446044820152606401610eec565b60005b83811015612b44576000858583818110612a1257612a1261577e565b9050602002016020810190612a279190615026565b6001600160a01b03161415612a6b57612a66838383818110612a4b57612a4b61577e565b6002546001600160a01b031692602090910201359050613b83565b612b32565b848482818110612a7d57612a7d61577e565b9050602002016020810190612a929190615026565b6002546001600160a01b039182169163a9059cbb9116858585818110612aba57612aba61577e565b905060200201356040518363ffffffff1660e01b8152600401612ade929190614d04565b602060405180830381600087803b158015612af857600080fd5b505af1158015612b0c573d6000803e3d6000fd5b505050506040513d601f19601f82011682018060405250810190612b3091906158c1565b505b80612b3c81615794565b9150506129f6565b507fd40c399a83caf67d15628b821aa7c7bd940e563c57a047e2bd3b8c602bcaf5a584848484604051612b7a9493929190615933565b60405180910390a150505050565b6060600f8054611f35906158de565b6001600160a01b03918216600090815260086020908152604080832093909416825291909152205460ff1690565b612bcd612d78565b6001600160a01b0316612bde6120dc565b6001600160a01b031614612c045760405162461bcd60e51b8152600401610eec906155f9565b611e51612c16368390038301836159b7565b613c99565b612c23612d78565b6001600160a01b0316612c346120dc565b6001600160a01b031614612c5a5760405162461bcd60e51b8152600401610eec906155f9565b6001600160a01b038116612cbf5760405162461bcd60e51b815260206004820152602660248201527f4f776e61626c653a206e6577206f776e657220697320746865207a65726f206160448201526564647265737360d01b6064820152608401610eec565b611e51816134b2565b6000612cd333611763565b15612ce5575060131936013560601c90565b503390565b3390565b6001600160a01b03163b151590565b60006301ffc9a760e01b6001600160e01b031983161480610dea5750506001600160e01b03191660009081526001602052604090205460ff1690565b6000612d458383613d44565b9392505050565b6060600d8054611f35906158de565b6000908152600560205260409020546001600160a01b0316151590565b6000610e7f612cc8565b600081815260076020526040902080546001600160a01b0319166001600160a01b0384169081179091558190612db782611be1565b6001600160a01b03167f8c5be1e5ebec7d5bd14f71427d1e84f3dd0314c0f7b2291e5b200ac8c7c3b92560405160405180910390a45050565b60105481612dfd60125490565b612e0791906156cc565b1115612e465760405162461bcd60e51b815260206004820152600e60248201526d455843454544535f535550504c5960901b6044820152606401610eec565b60005b8181101561102f57601254612e5e8482613d6e565b612e66613d88565b5080612e7181615794565b915050612e49565b6000612e8482612d5b565b612ee55760405162461bcd60e51b815260206004820152602c60248201527f4552433732313a206f70657261746f7220717565727920666f72206e6f6e657860448201526b34b9ba32b73a103a37b5b2b760a11b6064820152608401610eec565b6000612ef083611be1565b9050806001600160a01b0316846001600160a01b03161480612f175750612f178185612b97565b80612f3b5750836001600160a01b0316612f3084610e84565b6001600160a01b0316145b949350505050565b826001600160a01b0316612f5682611be1565b6001600160a01b031614612fba5760405162461bcd60e51b815260206004820152602560248201527f4552433732313a207472616e736665722066726f6d20696e636f72726563742060448201526437bbb732b960d91b6064820152608401610eec565b6001600160a01b03821661301c5760405162461bcd60e51b8152602060048201526024808201527f4552433732313a207472616e7366657220746f20746865207a65726f206164646044820152637265737360e01b6064820152608401610eec565b613027838383613d9f565b613032600082612d82565b6001600160a01b038316600090815260066020526040812080546001929061305b908490615644565b90915550506001600160a01b03821660009081526006602052604081208054600192906130899084906156cc565b909155505060008181526005602052604080822080546001600160a01b0319166001600160a01b038681169182179092559151849391871691600080516020615d1183398151915291a4505050565b611e51816130e4612d78565b613daa565b6130f382826120f1565b6110e4576000828152601a602090815260408083206001600160a01b03851684529091529020805460ff1916600117905561312c612d78565b6001600160a01b0316816001600160a01b0316837f2f8788117e7eff1d82e926ec794901d17c78024a50270940304540a733656f0d60405160405180910390a45050565b61317a82826120f1565b156110e4576000828152601a602090815260408083206001600160a01b03851684529091529020805460ff191690556131b1612d78565b6001600160a01b0316816001600160a01b0316837ff6391f5c32d9c69d2a47ea670b442974b53935d1edc7fd64eb21e047a839171b60405160405180910390a45050565b60005b81518110156110e45760008282815181106132155761321561577e565b60200260200101519050612710816040015161ffff16106132485760405162461bcd60e51b8152600401610eec90615a13565b60208101516001600160a01b03166132c15780516000908152601c6020526040902080546001600160b01b0319169055805161328690601d90613e0e565b5080516040519081527fa2870857763bd9ae76c957f869f16b31c18dd3bb4c7b4d3a4496dc5c57c657f99060200160405180910390a1613389565b6040805180820182526020808401516001600160a01b0390811683528484015161ffff90811683850190815286516000908152601c90945294909220925183549451909216600160a01b026001600160b01b0319909416911617919091179055805161332f90601d90613e1a565b50805160208083015160408085015181519485526001600160a01b039092169284019290925261ffff1682820152517f389b70fb0887f01e83784eb1c4c589f740eca53b00ed0f45e41db5d079719abb9181900360600190a15b508061339481615794565b9150506131f8565b6133a76019826138c7565b6133e05760405162461bcd60e51b815260206004820152600a6024820152691393d517d313d0d2d15160b21b6044820152606401610eec565b600881901c60009081526019602052604090208054600160ff84161b1916905550565b6000826134108584613e26565b14949350505050565b60008054610100900460ff1615613467578160ff166001148015613443575061344130612cee565b155b61345f5760405162461bcd60e51b8152600401610eec90615a38565b506000919050565b60005460ff80841691161061348e5760405162461bcd60e51b8152600401610eec90615a38565b506000805460ff191660ff92909216919091179055600190565b6110e482826130e9565b600080546001600160a01b038381166201000081810262010000600160b01b0319851617855560405193049190911692909183917f8be0079c531659141344cd1fd0a4f28419497f9722a3daafe3b4186f6b6457e091a35050565b600054610100900460ff166135345760405162461bcd60e51b8152600401610eec90615a86565b6110e48282613e92565b600054610100900460ff166135655760405162461bcd60e51b8152600401610eec90615a86565b61102f838383613f16565b600054610100900460ff166135975760405162461bcd60e51b8152600401610eec90615a86565b6110e48282613fa9565b600054610100900460ff166135c85760405162461bcd60e51b8152600401610eec90615a86565b611e5181614045565b600054610100900460ff166135f85760405162461bcd60e51b8152600401610eec90615a86565b611f24614091565b600054610100900460ff166136275760405162461bcd60e51b8152600401610eec90615a86565b611e51816140c8565b600054610100900460ff166136575760405162461bcd60e51b8152600401610eec90615a86565b611f24614117565b600054610100900460ff166136865760405162461bcd60e51b8152600401610eec90615a86565b611e518161414e565b600054610100900460ff166136b65760405162461bcd60e51b8152600401610eec90615a86565b6110e4828261426a565b600054610100900460ff166136e75760405162461bcd60e51b8152600401610eec90615a86565b611e51816142fa565b6136f8612d78565b6001600160a01b03166137096120dc565b6001600160a01b03161461372f5760405162461bcd60e51b8152600401610eec906155f9565b61373881614321565b6018546015546137489190615644565b6012546137559083615644565b1015611e515760405162461bcd60e51b81526020600482015260136024820152721313d5d15497d512105397d49154d154959151606a1b6044820152606401610eec565b6000610dea825490565b6137ae6019826138c7565b156137cb5760405162461bcd60e51b8152600401610eec906157af565b600881901c60009081526019602052604090208054600160ff84161b17905550565b6060600e8054611f35906158de565b816001600160a01b0316836001600160a01b0316141561385a5760405162461bcd60e51b815260206004820152601960248201527822a9219b99189d1030b8383937bb32903a379031b0b63632b960391b6044820152606401610eec565b6001600160a01b03838116600081815260086020908152604080832094871680845294825291829020805460ff191686151590811790915591519182527f17307eab39ab6107e8899845ad3d59bd9653f200f220920489ca2b5937696c31910160405180910390a3505050565b600881901c600090815260208390526040902054600160ff83161b16151592915050565b6138f6848484612f43565b613902848484846143ce565b6122ba5760405162461bcd60e51b8152600401610eec90615ad1565b60606000600a805461392f906158de565b9050116139c65760098054613943906158de565b80601f016020809104026020016040519081016040528092919081815260200182805461396f906158de565b80156139bc5780601f10613991576101008083540402835291602001916139bc565b820191906000526020600020905b81548152906001019060200180831161399f57829003601f168201915b5050505050610dea565b600a6139d1836144e9565b600b6040516020016139e593929190615bbd565b60405160208183030381529060405292915050565b6003600254600160b01b900460ff166003811115613a1a57613a1a614e07565b1415613a5a5760405162461bcd60e51b815260206004820152600f60248201526e15d2551211149055cbd313d0d2d151608a1b6044820152606401610eec565b60028054600160b01b900460ff166003811115613a7957613a79614e07565b1415613a825750565b6001600254600160b01b900460ff166003811115613aa257613aa2614e07565b1415613aff576002546001600160a01b03828116911614611e515760405162461bcd60e51b815260206004820152601760248201527615d2551211149055cbd3d3931657d49150d25412515395604a1b6044820152606401610eec565b6000600254600160b01b900460ff166003811115613b1f57613b1f614e07565b1415611e5157806001600160a01b0316613b376120dc565b6001600160a01b031614611e515760405162461bcd60e51b81526020600482015260136024820152722ba4aa24222920ab97a7a7262cafa7aba722a960691b6044820152606401610eec565b80471015613bd35760405162461bcd60e51b815260206004820152601d60248201527f416464726573733a20696e73756666696369656e742062616c616e63650000006044820152606401610eec565b6000826001600160a01b03168260405160006040518083038185875af1925050503d8060008114613c20576040519150601f19603f3d011682016040523d82523d6000602084013e613c25565b606091505b505090508061102f5760405162461bcd60e51b815260206004820152603a60248201527f416464726573733a20756e61626c6520746f2073656e642076616c75652c20726044820152791958da5c1a595b9d081b585e481a185d99481c995d995c9d195960321b6064820152608401610eec565b612710816020015161ffff1610613cc25760405162461bcd60e51b8152600401610eec90615a13565b60408051808201825282516001600160a01b03168082526020808501805161ffff1691909301819052601b80546001600160b01b031916909217600160a01b9091021790558251905191517f2c5ea6e4103e78cb101e796fb2dace540362fc542cbff5145eaa24af7dd8fe4192613d399291615376565b60405180910390a150565b6000826000018281548110613d5b57613d5b61577e565b9060005260206000200154905092915050565b6110e48282604051806020016040528060008152506145e6565b60128054906000613d9883615794565b9190505550565b61102f838383614619565b613db482826120f1565b6110e457613dcc816001600160a01b03166014614641565b613dd7836020614641565b604051602001613de8929190615bf0565b60408051601f198184030181529082905262461bcd60e51b8252610eec91600401614c08565b6000612d4583836147dc565b6000612d4583836148cf565b600081815b84518110156114d9576000858281518110613e4857613e4861577e565b60200260200101519050808311613e6e5760008381526020829052604090209250613e7f565b600081815260208490526040902092505b5080613e8a81615794565b915050613e2b565b600054610100900460ff16613eb95760405162461bcd60e51b8152600401610eec90615a86565b613ec963ac2ba33360e01b61491e565b600280546001600160a01b0384166001600160a01b0319821681178355839291600162ff000160a01b03191617600160b01b836003811115613f0d57613f0d614e07565b02179055505050565b600054610100900460ff16613f3d5760405162461bcd60e51b8152600401610eec90615a86565b8251613f5090600d906020860190614acb565b508151613f6490600e906020850190614acb565b508051613f7890600f906020840190614acb565b50613f89633d96f4ff60e11b61491e565b613f996380ac58cd60e01b61491e565b61102f635b5e139f60e01b61491e565b600054610100900460ff16613fd05760405162461bcd60e51b8152600401610eec90615a86565b8151613fe3906009906020850190614acb565b508051613ff790600a906020840190614acb565b5060408051808201909152600580825264173539b7b760d91b602090920191825261402491600b91614acb565b50614035631f2f406b60e01b61491e565b6110e4635b5e139f60e01b61491e565b600054610100900460ff1661406c5760405162461bcd60e51b8152600401610eec90615a86565b60108190556140816330f487b560e11b61491e565b611e516380ac58cd60e01b61491e565b600054610100900460ff166140b85760405162461bcd60e51b8152600401610eec90615a86565b611f24631aa1577160e11b61491e565b600054610100900460ff166140ef5760405162461bcd60e51b8152600401610eec90615a86565b6140ff631a056e7160e01b61491e565b611e51600080516020615cf1833981519152826134a8565b600054610100900460ff1661413e5760405162461bcd60e51b8152600401610eec90615a86565b611f2463714ad8e760e01b61491e565b600054610100900460ff166141755760405162461bcd60e51b8152600401610eec90615a86565b6141856308b4902960e41b61491e565b60005b81518110156110e4578181815181106141a3576141a361577e565b602090810291909101810151600083815260148352604090819020825181559282015160018401558101516002830180546001600160a01b0319166001600160a01b03909216919091179055606081015160038301556080810151600483015560a0810151600583015560c0810151600683015560e0015160079091015581518290829081106142355761423561577e565b602002602001015160c001516015600082825461425291906156cc565b9091555081905061426281615794565b915050614188565b600054610100900460ff166142915760405162461bcd60e51b8152600401610eec90615a86565b6142a1633a47bf5160e11b61491e565b6142b163152a902d60e11b61491e565b6142c163c69dbd8f60e01b61491e565b6142d163656cb66560e11b61491e565b604080518082019091526001600160a01b038316815261ffff8216602082015261102f81613c99565b600054610100900460ff1661282d5760405162461bcd60e51b8152600401610eec90615a86565b614329612d78565b6001600160a01b031661433a6120dc565b6001600160a01b0316146143605760405162461bcd60e51b8152600401610eec906155f9565b60115460ff16156143835760405162461bcd60e51b8152600401610eec90615913565b6012548110156143c95760405162461bcd60e51b81526020600482015260116024820152704c4f5745525f5448414e5f535550504c5960781b6044820152606401610eec565b601055565b60006143e2846001600160a01b0316612cee565b156144de57836001600160a01b031663150b7a026143fe612d78565b8786866040518563ffffffff1660e01b81526004016144209493929190615c5f565b602060405180830381600087803b15801561443a57600080fd5b505af192505050801561446a575060408051601f3d908101601f1916820190925261446791810190615c92565b60015b6144c4573d808015614498576040519150601f19603f3d011682016040523d82523d6000602084013e61449d565b606091505b5080516144bc5760405162461bcd60e51b8152600401610eec90615ad1565b805181602001fd5b6001600160e01b031916630a85bd0160e11b149050612f3b565b506001949350505050565b60608161450d5750506040805180820190915260018152600360fc1b602082015290565b8160005b8115614537578061452181615794565b91506145309050600a8361576a565b9150614511565b6000816001600160401b0381111561455157614551614e75565b6040519080825280601f01601f19166020018201604052801561457b576020820181803683370190505b5090505b8415612f3b57614590600183615644565b915061459d600a86615caf565b6145a89060306156cc565b60f81b8183815181106145bd576145bd61577e565b60200101906001600160f81b031916908160001a9053506145df600a8661576a565b945061457f565b6145f0838361499f565b6145fd60008484846143ce565b61102f5760405162461bcd60e51b8152600401610eec90615ad1565b6146246019826138c7565b1561102f5760405162461bcd60e51b8152600401610eec906157af565b60606000614650836002615735565b61465b9060026156cc565b6001600160401b0381111561467257614672614e75565b6040519080825280601f01601f19166020018201604052801561469c576020820181803683370190505b509050600360fc1b816000815181106146b7576146b761577e565b60200101906001600160f81b031916908160001a905350600f60fb1b816001815181106146e6576146e661577e565b60200101906001600160f81b031916908160001a905350600061470a846002615735565b6147159060016156cc565b90505b600181111561478d576f181899199a1a9b1b9c1cb0b131b232b360811b85600f16601081106147495761474961577e565b1a60f81b82828151811061475f5761475f61577e565b60200101906001600160f81b031916908160001a90535060049490941c9361478681615cc3565b9050614718565b508315612d455760405162461bcd60e51b815260206004820181905260248201527f537472696e67733a20686578206c656e67746820696e73756666696369656e746044820152606401610eec565b600081815260018301602052604081205480156148c5576000614800600183615644565b855490915060009061481490600190615644565b90508181146148795760008660000182815481106148345761483461577e565b90600052602060002001549050808760000184815481106148575761485761577e565b6000918252602080832090910192909255918252600188019052604090208390555b855486908061488a5761488a615cda565b600190038181906000526020600020016000905590558560010160008681526020019081526020016000206000905560019350505050610dea565b6000915050610dea565b600081815260018301602052604081205461491657508154600181810184556000848152602080822090930184905584548482528286019093526040902091909155610dea565b506000610dea565b6001600160e01b031980821614156149775760405162461bcd60e51b815260206004820152601c60248201527b115490cc4d8d4e881a5b9d985b1a59081a5b9d195c999858d9481a5960221b6044820152606401610eec565b6001600160e01b0319166000908152600160208190526040909120805460ff19169091179055565b6001600160a01b0382166149f55760405162461bcd60e51b815260206004820181905260248201527f4552433732313a206d696e7420746f20746865207a65726f20616464726573736044820152606401610eec565b6149fe81612d5b565b15614a4a5760405162461bcd60e51b815260206004820152601c60248201527b115490cdcc8c4e881d1bdad95b88185b1c9958591e481b5a5b9d195960221b6044820152606401610eec565b614a5660008383613d9f565b6001600160a01b0382166000908152600660205260408120805460019290614a7f9084906156cc565b909155505060008181526005602052604080822080546001600160a01b0319166001600160a01b0386169081179091559051839290600080516020615d11833981519152908290a45050565b828054614ad7906158de565b90600052602060002090601f016020900481019282614af95760008555614b3f565b82601f10614b1257805160ff1916838001178555614b3f565b82800160010185558215614b3f579182015b82811115614b3f578251825591602001919060010190614b24565b50614b4b929150614b4f565b5090565b5b80821115614b4b5760008155600101614b50565b6001600160e01b031981168114611e5157600080fd5b600060208284031215614b8c57600080fd5b8135612d4581614b64565b600060208284031215614ba957600080fd5b5035919050565b60005b83811015614bcb578181015183820152602001614bb3565b838111156122ba5750506000910152565b60008151808452614bf4816020860160208601614bb0565b601f01601f19169290920160200192915050565b602081526000612d456020830184614bdc565b6001600160a01b0381168114611e5157600080fd5b80356117ef81614c1b565b60008060408385031215614c4e57600080fd5b8235614c5981614c1b565b946020939093013593505050565b600080828403610120811215614c7c57600080fd5b83359250610100601f1982011215614c9357600080fd5b506020830190509250929050565b600080600060608486031215614cb657600080fd5b8335614cc181614c1b565b92506020840135614cd181614c1b565b929592945050506040919091013590565b60008060408385031215614cf557600080fd5b50508035926020909101359150565b6001600160a01b03929092168252602082015260400190565b60008083601f840112614d2f57600080fd5b5081356001600160401b03811115614d4657600080fd5b6020830191508360208260051b850101111561141057600080fd5b60008060208385031215614d7457600080fd5b82356001600160401b03811115614d8a57600080fd5b614d9685828601614d1d565b90969095509350505050565b6020808252825182820181905260009190848201906040850190845b81811015614dda57835183529284019291840191600101614dbe565b50909695505050505050565b600060208284031215614df857600080fd5b813560048110612d4557600080fd5b634e487b7160e01b600052602160045260246000fd5b6020810160048310614e3f57634e487b7160e01b600052602160045260246000fd5b91905290565b60008060408385031215614e5857600080fd5b823591506020830135614e6a81614c1b565b809150509250929050565b634e487b7160e01b600052604160045260246000fd5b60405161010081016001600160401b0381118282101715614eae57614eae614e75565b60405290565b60405161016081016001600160401b0381118282101715614eae57614eae614e75565b604051601f8201601f191681016001600160401b0381118282101715614eff57614eff614e75565b604052919050565b60006001600160401b03831115614f2057614f20614e75565b614f33601f8401601f1916602001614ed7565b9050828152838383011115614f4757600080fd5b828260208301376000602084830101529392505050565b600082601f830112614f6f57600080fd5b612d4583833560208501614f07565b600060208284031215614f9057600080fd5b81356001600160401b03811115614fa657600080fd5b612f3b84828501614f5e565b60008060208385031215614fc557600080fd5b82356001600160401b0380821115614fdc57600080fd5b818501915085601f830112614ff057600080fd5b813581811115614fff57600080fd5b86602060608302850101111561501457600080fd5b60209290920196919550909350505050565b60006020828403121561503857600080fd5b8135612d4581614c1b565b60008060008060006080868803121561505b57600080fd5b85359450602086013593506040860135925060608601356001600160401b0381111561508657600080fd5b61509288828901614d1d565b969995985093965092949392505050565b6000806000806000608086880312156150bb57600080fd5b8535945060208601356150cd81614c1b565b93506040860135925060608601356001600160401b0381111561508657600080fd5b600082601f83011261510057600080fd5b813560206001600160401b0382111561511b5761511b614e75565b615129818360051b01614ed7565b82815260089290921b8401810191818101908684111561514857600080fd5b8286015b848110156151ce5761010081890312156151665760008081fd5b61516e614e8b565b81358152848201358582015260408083013561518981614c1b565b90820152606082810135908201526080808301359082015260a0808301359082015260c0808301359082015260e080830135908201528352918301916101000161514c565b509695505050505050565b803561ffff811681146117ef57600080fd5b600080604083850312156151fe57600080fd5b82356001600160401b038082111561521557600080fd5b90840190610160828703121561522a57600080fd5b615232614eb4565b82358281111561524157600080fd5b61524d88828601614f5e565b82525060208301358281111561526257600080fd5b61526e88828601614f5e565b60208301525060408301358281111561528657600080fd5b61529288828601614f5e565b6040830152506060830135828111156152aa57600080fd5b6152b688828601614f5e565b6060830152506080830135828111156152ce57600080fd5b6152da88828601614f5e565b60808301525060a083013560a082015260c0830135828111156152fc57600080fd5b615308888286016150ef565b60c08301525061531a60e08401614c30565b60e0820152610100915061532f8284016151d9565b828201526101209150615343828401614c30565b828201526101409150615357828401614c30565b8282015280945050505061536d60208401614c30565b90509250929050565b6001600160a01b0392909216825261ffff16602082015260400190565b8015158114611e5157600080fd5b600080604083850312156153b457600080fd5b82356153bf81614c1b565b91506020830135614e6a81615393565b600080600080608085870312156153e557600080fd5b84356153f081614c1b565b9350602085013561540081614c1b565b92506040850135915060608501356001600160401b0381111561542257600080fd5b8501601f8101871361543357600080fd5b61544287823560208401614f07565b91505092959194509250565b602080825282518282018190526000919060409081850190868401855b828110156154a257815180516001600160a01b031685528601516001600160601b031686850152928401929085019060010161546b565b5091979650505050505050565b600080600080604085870312156154c557600080fd5b84356001600160401b03808211156154dc57600080fd5b6154e888838901614d1d565b9096509450602087013591508082111561550157600080fd5b818701915087601f83011261551557600080fd5b81358181111561552457600080fd5b8860208260081b850101111561553957600080fd5b95989497505060200194505050565b6000806000806040858703121561555e57600080fd5b84356001600160401b038082111561557557600080fd5b61558188838901614d1d565b9096509450602087013591508082111561559a57600080fd5b506155a787828801614d1d565b95989497509550505050565b600080604083850312156155c657600080fd5b82356155d181614c1b565b91506020830135614e6a81614c1b565b6000604082840312156155f357600080fd5b50919050565b6020808252818101527f4f776e61626c653a2063616c6c6572206973206e6f7420746865206f776e6572604082015260600190565b634e487b7160e01b600052601160045260246000fd5b6000828210156156565761565661562e565b500390565b813581556020820135600182015560028101604083013561567b81614c1b565b81546001600160a01b0319166001600160a01b0391909116179055606082013560038201556080820135600482015560a0820135600582015560c0820135600682015560e090910135600790910155565b600082198211156156df576156df61562e565b500190565b60208082526031908201527f4552433732313a207472616e736665722063616c6c6572206973206e6f74206f6040820152701ddb995c881b9bdc88185c1c1c9bdd9959607a1b606082015260800190565b600081600019048311821515161561574f5761574f61562e565b500290565b634e487b7160e01b600052601260045260246000fd5b60008261577957615779615754565b500490565b634e487b7160e01b600052603260045260246000fd5b60006000198214156157a8576157a861562e565b5060010190565b6020808252600690820152651313d0d2d15160d21b604082015260600190565b6000606082840312156157e157600080fd5b604051606081016001600160401b038111828210171561580357615803614e75565b60405282358152602083013561581881614c1b565b6020820152615829604084016151d9565b60408201529392505050565b6020808252601f908201527f5265656e7472616e637947756172643a207265656e7472616e742063616c6c00604082015260600190565b6020808252600f908201526e4e4f545f4c4f434b45525f524f4c4560881b604082015260600190565b60208082526012908201527122ac21a2a2a229afa0a62627a1a0aa24a7a760711b604082015260600190565b6000602082840312156158d357600080fd5b8151612d4581615393565b600181811c908216806158f257607f821691505b602082108114156155f357634e487b7160e01b600052602260045260246000fd5b602080825260069082015265232927ad22a760d11b604082015260600190565b6040808252810184905260008560608301825b8781101561597657823561595981614c1b565b6001600160a01b0316825260209283019290910190600101615946565b5083810360208501528481526001600160fb1b0385111561599657600080fd5b8460051b915081866020830137600091016020019081529695505050505050565b6000604082840312156159c957600080fd5b604080519081016001600160401b03811182821017156159eb576159eb614e75565b60405282356159f981614c1b565b8152615a07602084016151d9565b60208201529392505050565b6020808252600b908201526a496e76616c69642062707360a81b604082015260600190565b6020808252602e908201527f496e697469616c697a61626c653a20636f6e747261637420697320616c72656160408201526d191e481a5b9a5d1a585b1a5e995960921b606082015260800190565b6020808252602b908201527f496e697469616c697a61626c653a20636f6e7472616374206973206e6f74206960408201526a6e697469616c697a696e6760a81b606082015260800190565b60208082526032908201527f4552433732313a207472616e7366657220746f206e6f6e20455243373231526560408201527131b2b4bb32b91034b6b83632b6b2b73a32b960711b606082015260800190565b8054600090600181811c9080831680615b3d57607f831692505b6020808410821415615b5f57634e487b7160e01b600052602260045260246000fd5b818015615b735760018114615b8457615bb1565b60ff19861689528489019650615bb1565b60008881526020902060005b86811015615ba95781548b820152908501908301615b90565b505084890196505b50505050505092915050565b6000615bc98286615b23565b8451615bd9818360208901614bb0565b615be581830186615b23565b979650505050505050565b76020b1b1b2b9b9a1b7b73a3937b61d1030b1b1b7bab73a1604d1b815260008351615c22816017850160208801614bb0565b7001034b99036b4b9b9b4b733903937b6329607d1b6017918401918201528351615c53816028840160208801614bb0565b01602801949350505050565b6001600160a01b0385811682528416602082015260408101839052608060608201819052600090611cee90830184614bdc565b600060208284031215615ca457600080fd5b8151612d4581614b64565b600082615cbe57615cbe615754565b500690565b600081615cd257615cd261562e565b506000190190565b634e487b7160e01b600052603160045260246000fdfe9f2df0fed2c77648de5860a4cc508cd0818c85b8b8a1ab4ceeef8d981c8956a6ddf252ad1be2c89b69c2b068fc378daa952ba7f163c4a11628f55a4df523b3efaf9a8bb3cbd6b84fbccefa71ff73e26e798553c6914585a84886212a46a90279a2646970667358221220831a50e61535a86aa61a8b2eebd36f15d53aaa1e08ca735b65cde457340fdeb664736f6c63430008090033",
  "devdoc": {
    "kind": "dev",
    "methods": {
      "approve(address,uint256)": {
        "details": "See {IERC721-approve}."
      },
      "balanceOf(address)": {
        "details": "See {IERC721-balanceOf}."
      },
      "getApproved(uint256)": {
        "details": "See {IERC721-getApproved}."
      },
      "getRoleAdmin(bytes32)": {
        "details": "Returns the admin role that controls `role`. See {grantRole} and {revokeRole}. To change a role's admin, use {_setRoleAdmin}."
      },
      "getTokenRoyaltiesCount()": {
        "details": "See {IEIP2981RoyaltyOverride-getTokenRoyaltiesCount}."
      },
      "getTokenRoyaltyByIndex(uint256)": {
        "details": "See {IEIP2981RoyaltyOverride-getTokenRoyaltyByIndex}."
      },
      "grantRole(bytes32,address)": {
        "details": "Grants `role` to `account`. If `account` had not been already granted `role`, emits a {RoleGranted} event. Requirements: - the caller must have ``role``'s admin role."
      },
      "hasRole(bytes32,address)": {
        "details": "Returns `true` if `account` has been granted `role`."
      },
      "isApprovedForAll(address,address)": {
        "details": "See {IERC721-isApprovedForAll}."
      },
      "owner()": {
        "details": "Returns the address of the current owner."
      },
      "ownerOf(uint256)": {
        "details": "See {IERC721-ownerOf}."
      },
      "renounceOwnership()": {
        "details": "Leaves the contract without owner. It will not be possible to call `onlyOwner` functions anymore. Can only be called by the current owner. NOTE: Renouncing ownership will leave the contract without an owner, thereby removing any functionality that is only available to the owner."
      },
      "renounceRole(bytes32,address)": {
        "details": "Revokes `role` from the calling account. Roles are often managed via {grantRole} and {revokeRole}: this function's purpose is to provide a mechanism for accounts to lose their privileges if they are compromised (such as when a trusted device is misplaced). If the calling account had been revoked `role`, emits a {RoleRevoked} event. Requirements: - the caller must be `account`."
      },
      "revokeRole(bytes32,address)": {
        "details": "Revokes `role` from `account`. If `account` had been granted `role`, emits a {RoleRevoked} event. Requirements: - the caller must have ``role``'s admin role."
      },
      "royaltyInfo(uint256,uint256)": {
        "details": "See {IEIP2981RoyaltyOverride-royaltyInfo}."
      },
      "safeTransferFrom(address,address,uint256)": {
        "details": "See {IERC721-safeTransferFrom}."
      },
      "safeTransferFrom(address,address,uint256,bytes)": {
        "details": "See {IERC721-safeTransferFrom}."
      },
      "setApprovalForAll(address,bool)": {
        "details": "See {IERC721-setApprovalForAll}."
      },
      "transferFrom(address,address,uint256)": {
        "details": "See {IERC721-transferFrom}."
      },
      "transferOwnership(address)": {
        "details": "Transfers ownership of the contract to a new account (`newOwner`). Can only be called by the current owner."
      }
    },
    "version": 1
  },
  "userdoc": {
    "kind": "user",
    "methods": {
      "lock(uint256)": {
        "notice": "Locks token(s) to effectively lock them, while keeping in the same wallet. This mechanism prevents them from being transferred, yet still will show correct owner."
      },
      "locked(uint256)": {
        "notice": "Returns if a token is locked or not."
      },
      "unlock(uint256)": {
        "notice": "Unlocks locked token(s) to be able to transfer."
      }
    },
    "version": 1
  },
  "storageLayout": {
    "storage": [
      {
        "astId": 886,
        "contract": "contracts/collections/ERC721/presets/ERC721TieredSalesCollection.sol:ERC721TieredSalesCollection",
        "label": "_initialized",
        "offset": 0,
        "slot": "0",
        "type": "t_uint8"
      },
      {
        "astId": 889,
        "contract": "contracts/collections/ERC721/presets/ERC721TieredSalesCollection.sol:ERC721TieredSalesCollection",
        "label": "_initializing",
        "offset": 1,
        "slot": "0",
        "type": "t_bool"
      },
      {
        "astId": 782,
        "contract": "contracts/collections/ERC721/presets/ERC721TieredSalesCollection.sol:ERC721TieredSalesCollection",
        "label": "_owner",
        "offset": 2,
        "slot": "0",
        "type": "t_address"
      },
      {
        "astId": 4693,
        "contract": "contracts/collections/ERC721/presets/ERC721TieredSalesCollection.sol:ERC721TieredSalesCollection",
        "label": "_supportedInterfaces",
        "offset": 0,
        "slot": "1",
        "type": "t_mapping(t_bytes4,t_bool)"
      },
      {
        "astId": 13776,
        "contract": "contracts/collections/ERC721/presets/ERC721TieredSalesCollection.sol:ERC721TieredSalesCollection",
        "label": "withdrawRecipient",
        "offset": 0,
        "slot": "2",
        "type": "t_address"
      },
      {
        "astId": 13778,
        "contract": "contracts/collections/ERC721/presets/ERC721TieredSalesCollection.sol:ERC721TieredSalesCollection",
        "label": "withdrawRecipientLocked",
        "offset": 20,
        "slot": "2",
        "type": "t_bool"
      },
      {
        "astId": 13780,
        "contract": "contracts/collections/ERC721/presets/ERC721TieredSalesCollection.sol:ERC721TieredSalesCollection",
        "label": "withdrawPowerRevoked",
        "offset": 21,
        "slot": "2",
        "type": "t_bool"
      },
      {
        "astId": 13783,
        "contract": "contracts/collections/ERC721/presets/ERC721TieredSalesCollection.sol:ERC721TieredSalesCollection",
        "label": "withdrawMode",
        "offset": 22,
        "slot": "2",
        "type": "t_enum(WithdrawMode)13720"
      },
      {
        "astId": 13785,
        "contract": "contracts/collections/ERC721/presets/ERC721TieredSalesCollection.sol:ERC721TieredSalesCollection",
        "label": "withdrawModeLocked",
        "offset": 23,
        "slot": "2",
        "type": "t_bool"
      },
      {
        "astId": 1912,
        "contract": "contracts/collections/ERC721/presets/ERC721TieredSalesCollection.sol:ERC721TieredSalesCollection",
        "label": "_name",
        "offset": 0,
        "slot": "3",
        "type": "t_string_storage"
      },
      {
        "astId": 1914,
        "contract": "contracts/collections/ERC721/presets/ERC721TieredSalesCollection.sol:ERC721TieredSalesCollection",
        "label": "_symbol",
        "offset": 0,
        "slot": "4",
        "type": "t_string_storage"
      },
      {
        "astId": 1918,
        "contract": "contracts/collections/ERC721/presets/ERC721TieredSalesCollection.sol:ERC721TieredSalesCollection",
        "label": "_owners",
        "offset": 0,
        "slot": "5",
        "type": "t_mapping(t_uint256,t_address)"
      },
      {
        "astId": 1922,
        "contract": "contracts/collections/ERC721/presets/ERC721TieredSalesCollection.sol:ERC721TieredSalesCollection",
        "label": "_balances",
        "offset": 0,
        "slot": "6",
        "type": "t_mapping(t_address,t_uint256)"
      },
      {
        "astId": 1926,
        "contract": "contracts/collections/ERC721/presets/ERC721TieredSalesCollection.sol:ERC721TieredSalesCollection",
        "label": "_tokenApprovals",
        "offset": 0,
        "slot": "7",
        "type": "t_mapping(t_uint256,t_address)"
      },
      {
        "astId": 1932,
        "contract": "contracts/collections/ERC721/presets/ERC721TieredSalesCollection.sol:ERC721TieredSalesCollection",
        "label": "_operatorApprovals",
        "offset": 0,
        "slot": "8",
        "type": "t_mapping(t_address,t_mapping(t_address,t_bool))"
      },
      {
        "astId": 7478,
        "contract": "contracts/collections/ERC721/presets/ERC721TieredSalesCollection.sol:ERC721TieredSalesCollection",
        "label": "_placeholderURI",
        "offset": 0,
        "slot": "9",
        "type": "t_string_storage"
      },
      {
        "astId": 7480,
        "contract": "contracts/collections/ERC721/presets/ERC721TieredSalesCollection.sol:ERC721TieredSalesCollection",
        "label": "_tokenURIPrefix",
        "offset": 0,
        "slot": "10",
        "type": "t_string_storage"
      },
      {
        "astId": 7482,
        "contract": "contracts/collections/ERC721/presets/ERC721TieredSalesCollection.sol:ERC721TieredSalesCollection",
        "label": "_tokenURISuffix",
        "offset": 0,
        "slot": "11",
        "type": "t_string_storage"
      },
      {
        "astId": 7484,
        "contract": "contracts/collections/ERC721/presets/ERC721TieredSalesCollection.sol:ERC721TieredSalesCollection",
        "label": "tokenURIFrozen",
        "offset": 0,
        "slot": "12",
        "type": "t_bool"
      },
      {
        "astId": 6170,
        "contract": "contracts/collections/ERC721/presets/ERC721TieredSalesCollection.sol:ERC721TieredSalesCollection",
        "label": "_name",
        "offset": 0,
        "slot": "13",
        "type": "t_string_storage"
      },
      {
        "astId": 6172,
        "contract": "contracts/collections/ERC721/presets/ERC721TieredSalesCollection.sol:ERC721TieredSalesCollection",
        "label": "_symbol",
        "offset": 0,
        "slot": "14",
        "type": "t_string_storage"
      },
      {
        "astId": 6174,
        "contract": "contracts/collections/ERC721/presets/ERC721TieredSalesCollection.sol:ERC721TieredSalesCollection",
        "label": "_contractURI",
        "offset": 0,
        "slot": "15",
        "type": "t_string_storage"
      },
      {
        "astId": 5826,
        "contract": "contracts/collections/ERC721/presets/ERC721TieredSalesCollection.sol:ERC721TieredSalesCollection",
        "label": "maxSupply",
        "offset": 0,
        "slot": "16",
        "type": "t_uint256"
      },
      {
        "astId": 5828,
        "contract": "contracts/collections/ERC721/presets/ERC721TieredSalesCollection.sol:ERC721TieredSalesCollection",
        "label": "maxSupplyFrozen",
        "offset": 0,
        "slot": "17",
        "type": "t_bool"
      },
      {
        "astId": 5831,
        "contract": "contracts/collections/ERC721/presets/ERC721TieredSalesCollection.sol:ERC721TieredSalesCollection",
        "label": "_currentTokenId",
        "offset": 0,
        "slot": "18",
        "type": "t_uint256"
      },
      {
        "astId": 1124,
        "contract": "contracts/collections/ERC721/presets/ERC721TieredSalesCollection.sol:ERC721TieredSalesCollection",
        "label": "_status",
        "offset": 0,
        "slot": "19",
        "type": "t_uint256"
      },
      {
        "astId": 8425,
        "contract": "contracts/collections/ERC721/presets/ERC721TieredSalesCollection.sol:ERC721TieredSalesCollection",
        "label": "tiers",
        "offset": 0,
        "slot": "20",
        "type": "t_mapping(t_uint256,t_struct(Tier)8368_storage)"
      },
      {
        "astId": 8427,
        "contract": "contracts/collections/ERC721/presets/ERC721TieredSalesCollection.sol:ERC721TieredSalesCollection",
        "label": "totalReserved",
        "offset": 0,
        "slot": "21",
        "type": "t_uint256"
      },
      {
        "astId": 8431,
        "contract": "contracts/collections/ERC721/presets/ERC721TieredSalesCollection.sol:ERC721TieredSalesCollection",
        "label": "tierMints",
        "offset": 0,
        "slot": "22",
        "type": "t_mapping(t_uint256,t_uint256)"
      },
      {
        "astId": 8437,
        "contract": "contracts/collections/ERC721/presets/ERC721TieredSalesCollection.sol:ERC721TieredSalesCollection",
        "label": "walletMinted",
        "offset": 0,
        "slot": "23",
        "type": "t_mapping(t_uint256,t_mapping(t_address,t_uint256))"
      },
      {
        "astId": 8439,
        "contract": "contracts/collections/ERC721/presets/ERC721TieredSalesCollection.sol:ERC721TieredSalesCollection",
        "label": "reservedMints",
        "offset": 0,
        "slot": "24",
        "type": "t_uint256"
      },
      {
        "astId": 6422,
        "contract": "contracts/collections/ERC721/presets/ERC721TieredSalesCollection.sol:ERC721TieredSalesCollection",
        "label": "lockedTokens",
        "offset": 0,
        "slot": "25",
        "type": "t_struct(BitMap)5065_storage"
      },
      {
        "astId": 406,
        "contract": "contracts/collections/ERC721/presets/ERC721TieredSalesCollection.sol:ERC721TieredSalesCollection",
        "label": "_roles",
        "offset": 0,
        "slot": "26",
        "type": "t_mapping(t_bytes32,t_struct(RoleData)401_storage)"
      },
      {
        "astId": 86,
        "contract": "contracts/collections/ERC721/presets/ERC721TieredSalesCollection.sol:ERC721TieredSalesCollection",
        "label": "defaultRoyalty",
        "offset": 0,
        "slot": "27",
        "type": "t_struct(TokenRoyalty)28_storage"
      },
      {
        "astId": 91,
        "contract": "contracts/collections/ERC721/presets/ERC721TieredSalesCollection.sol:ERC721TieredSalesCollection",
        "label": "_tokenRoyalties",
        "offset": 0,
        "slot": "28",
        "type": "t_mapping(t_uint256,t_struct(TokenRoyalty)28_storage)"
      },
      {
        "astId": 94,
        "contract": "contracts/collections/ERC721/presets/ERC721TieredSalesCollection.sol:ERC721TieredSalesCollection",
        "label": "_tokensWithRoyalties",
        "offset": 0,
        "slot": "29",
        "type": "t_struct(UintSet)5664_storage"
      },
      {
        "astId": 14056,
        "contract": "contracts/collections/ERC721/presets/ERC721TieredSalesCollection.sol:ERC721TieredSalesCollection",
        "label": "_trustedForwarder",
        "offset": 0,
        "slot": "31",
        "type": "t_address"
      }
    ],
    "types": {
      "t_address": {
        "encoding": "inplace",
        "label": "address",
        "numberOfBytes": "20"
      },
      "t_array(t_bytes32)dyn_storage": {
        "base": "t_bytes32",
        "encoding": "dynamic_array",
        "label": "bytes32[]",
        "numberOfBytes": "32"
      },
      "t_bool": {
        "encoding": "inplace",
        "label": "bool",
        "numberOfBytes": "1"
      },
      "t_bytes32": {
        "encoding": "inplace",
        "label": "bytes32",
        "numberOfBytes": "32"
      },
      "t_bytes4": {
        "encoding": "inplace",
        "label": "bytes4",
        "numberOfBytes": "4"
      },
      "t_enum(WithdrawMode)13720": {
        "encoding": "inplace",
        "label": "enum WithdrawMode",
        "numberOfBytes": "1"
      },
      "t_mapping(t_address,t_bool)": {
        "encoding": "mapping",
        "key": "t_address",
        "label": "mapping(address => bool)",
        "numberOfBytes": "32",
        "value": "t_bool"
      },
      "t_mapping(t_address,t_mapping(t_address,t_bool))": {
        "encoding": "mapping",
        "key": "t_address",
        "label": "mapping(address => mapping(address => bool))",
        "numberOfBytes": "32",
        "value": "t_mapping(t_address,t_bool)"
      },
      "t_mapping(t_address,t_uint256)": {
        "encoding": "mapping",
        "key": "t_address",
        "label": "mapping(address => uint256)",
        "numberOfBytes": "32",
        "value": "t_uint256"
      },
      "t_mapping(t_bytes32,t_struct(RoleData)401_storage)": {
        "encoding": "mapping",
        "key": "t_bytes32",
        "label": "mapping(bytes32 => struct AccessControl.RoleData)",
        "numberOfBytes": "32",
        "value": "t_struct(RoleData)401_storage"
      },
      "t_mapping(t_bytes32,t_uint256)": {
        "encoding": "mapping",
        "key": "t_bytes32",
        "label": "mapping(bytes32 => uint256)",
        "numberOfBytes": "32",
        "value": "t_uint256"
      },
      "t_mapping(t_bytes4,t_bool)": {
        "encoding": "mapping",
        "key": "t_bytes4",
        "label": "mapping(bytes4 => bool)",
        "numberOfBytes": "32",
        "value": "t_bool"
      },
      "t_mapping(t_uint256,t_address)": {
        "encoding": "mapping",
        "key": "t_uint256",
        "label": "mapping(uint256 => address)",
        "numberOfBytes": "32",
        "value": "t_address"
      },
      "t_mapping(t_uint256,t_mapping(t_address,t_uint256))": {
        "encoding": "mapping",
        "key": "t_uint256",
        "label": "mapping(uint256 => mapping(address => uint256))",
        "numberOfBytes": "32",
        "value": "t_mapping(t_address,t_uint256)"
      },
      "t_mapping(t_uint256,t_struct(Tier)8368_storage)": {
        "encoding": "mapping",
        "key": "t_uint256",
        "label": "mapping(uint256 => struct IERC721TieringExtension.Tier)",
        "numberOfBytes": "32",
        "value": "t_struct(Tier)8368_storage"
      },
      "t_mapping(t_uint256,t_struct(TokenRoyalty)28_storage)": {
        "encoding": "mapping",
        "key": "t_uint256",
        "label": "mapping(uint256 => struct IEIP2981RoyaltyOverride.TokenRoyalty)",
        "numberOfBytes": "32",
        "value": "t_struct(TokenRoyalty)28_storage"
      },
      "t_mapping(t_uint256,t_uint256)": {
        "encoding": "mapping",
        "key": "t_uint256",
        "label": "mapping(uint256 => uint256)",
        "numberOfBytes": "32",
        "value": "t_uint256"
      },
      "t_string_storage": {
        "encoding": "bytes",
        "label": "string",
        "numberOfBytes": "32"
      },
      "t_struct(BitMap)5065_storage": {
        "encoding": "inplace",
        "label": "struct BitMaps.BitMap",
        "members": [
          {
            "astId": 5064,
            "contract": "contracts/collections/ERC721/presets/ERC721TieredSalesCollection.sol:ERC721TieredSalesCollection",
            "label": "_data",
            "offset": 0,
            "slot": "0",
            "type": "t_mapping(t_uint256,t_uint256)"
          }
        ],
        "numberOfBytes": "32"
      },
      "t_struct(RoleData)401_storage": {
        "encoding": "inplace",
        "label": "struct AccessControl.RoleData",
        "members": [
          {
            "astId": 398,
            "contract": "contracts/collections/ERC721/presets/ERC721TieredSalesCollection.sol:ERC721TieredSalesCollection",
            "label": "members",
            "offset": 0,
            "slot": "0",
            "type": "t_mapping(t_address,t_bool)"
          },
          {
            "astId": 400,
            "contract": "contracts/collections/ERC721/presets/ERC721TieredSalesCollection.sol:ERC721TieredSalesCollection",
            "label": "adminRole",
            "offset": 0,
            "slot": "1",
            "type": "t_bytes32"
          }
        ],
        "numberOfBytes": "64"
      },
      "t_struct(Set)5206_storage": {
        "encoding": "inplace",
        "label": "struct EnumerableSet.Set",
        "members": [
          {
            "astId": 5201,
            "contract": "contracts/collections/ERC721/presets/ERC721TieredSalesCollection.sol:ERC721TieredSalesCollection",
            "label": "_values",
            "offset": 0,
            "slot": "0",
            "type": "t_array(t_bytes32)dyn_storage"
          },
          {
            "astId": 5205,
            "contract": "contracts/collections/ERC721/presets/ERC721TieredSalesCollection.sol:ERC721TieredSalesCollection",
            "label": "_indexes",
            "offset": 0,
            "slot": "1",
            "type": "t_mapping(t_bytes32,t_uint256)"
          }
        ],
        "numberOfBytes": "64"
      },
      "t_struct(Tier)8368_storage": {
        "encoding": "inplace",
        "label": "struct IERC721TieringExtension.Tier",
        "members": [
          {
            "astId": 8353,
            "contract": "contracts/collections/ERC721/presets/ERC721TieredSalesCollection.sol:ERC721TieredSalesCollection",
            "label": "start",
            "offset": 0,
            "slot": "0",
            "type": "t_uint256"
          },
          {
            "astId": 8355,
            "contract": "contracts/collections/ERC721/presets/ERC721TieredSalesCollection.sol:ERC721TieredSalesCollection",
            "label": "end",
            "offset": 0,
            "slot": "1",
            "type": "t_uint256"
          },
          {
            "astId": 8357,
            "contract": "contracts/collections/ERC721/presets/ERC721TieredSalesCollection.sol:ERC721TieredSalesCollection",
            "label": "currency",
            "offset": 0,
            "slot": "2",
            "type": "t_address"
          },
          {
            "astId": 8359,
            "contract": "contracts/collections/ERC721/presets/ERC721TieredSalesCollection.sol:ERC721TieredSalesCollection",
            "label": "price",
            "offset": 0,
            "slot": "3",
            "type": "t_uint256"
          },
          {
            "astId": 8361,
            "contract": "contracts/collections/ERC721/presets/ERC721TieredSalesCollection.sol:ERC721TieredSalesCollection",
            "label": "maxPerWallet",
            "offset": 0,
            "slot": "4",
            "type": "t_uint256"
          },
          {
            "astId": 8363,
            "contract": "contracts/collections/ERC721/presets/ERC721TieredSalesCollection.sol:ERC721TieredSalesCollection",
            "label": "merkleRoot",
            "offset": 0,
            "slot": "5",
            "type": "t_bytes32"
          },
          {
            "astId": 8365,
            "contract": "contracts/collections/ERC721/presets/ERC721TieredSalesCollection.sol:ERC721TieredSalesCollection",
            "label": "reserved",
            "offset": 0,
            "slot": "6",
            "type": "t_uint256"
          },
          {
            "astId": 8367,
            "contract": "contracts/collections/ERC721/presets/ERC721TieredSalesCollection.sol:ERC721TieredSalesCollection",
            "label": "maxAllocation",
            "offset": 0,
            "slot": "7",
            "type": "t_uint256"
          }
        ],
        "numberOfBytes": "256"
      },
      "t_struct(TokenRoyalty)28_storage": {
        "encoding": "inplace",
        "label": "struct IEIP2981RoyaltyOverride.TokenRoyalty",
        "members": [
          {
            "astId": 25,
            "contract": "contracts/collections/ERC721/presets/ERC721TieredSalesCollection.sol:ERC721TieredSalesCollection",
            "label": "recipient",
            "offset": 0,
            "slot": "0",
            "type": "t_address"
          },
          {
            "astId": 27,
            "contract": "contracts/collections/ERC721/presets/ERC721TieredSalesCollection.sol:ERC721TieredSalesCollection",
            "label": "bps",
            "offset": 20,
            "slot": "0",
            "type": "t_uint16"
          }
        ],
        "numberOfBytes": "32"
      },
      "t_struct(UintSet)5664_storage": {
        "encoding": "inplace",
        "label": "struct EnumerableSet.UintSet",
        "members": [
          {
            "astId": 5663,
            "contract": "contracts/collections/ERC721/presets/ERC721TieredSalesCollection.sol:ERC721TieredSalesCollection",
            "label": "_inner",
            "offset": 0,
            "slot": "0",
            "type": "t_struct(Set)5206_storage"
          }
        ],
        "numberOfBytes": "64"
      },
      "t_uint16": {
        "encoding": "inplace",
        "label": "uint16",
        "numberOfBytes": "2"
      },
      "t_uint256": {
        "encoding": "inplace",
        "label": "uint256",
        "numberOfBytes": "32"
      },
      "t_uint8": {
        "encoding": "inplace",
        "label": "uint8",
        "numberOfBytes": "1"
      }
    }
  }
}