{
  "address": "0xE07116Ab6e1599eF4991986D68E0377d705Ab455",
  "abi": [
    {
      "inputs": [
        {
          "components": [
            {
              "internalType": "address",
              "name": "ticketToken",
              "type": "address"
            },
            {
              "internalType": "uint64",
              "name": "lockedUntilTimestamp",
              "type": "uint64"
            },
            {
              "internalType": "uint256",
              "name": "totalTickets",
              "type": "uint256"
            },
            {
              "internalType": "uint256",
              "name": "emissionRate",
              "type": "uint256"
            },
            {
              "internalType": "uint64",
              "name": "emissionTimeUnit",
              "type": "uint64"
            },
            {
              "internalType": "uint64",
              "name": "emissionStart",
              "type": "uint64"
            },
            {
              "internalType": "uint64",
              "name": "emissionEnd",
              "type": "uint64"
            }
          ],
          "internalType": "struct ERC721EqualEmissionStream.Config",
          "name": "config",
          "type": "tuple"
        }
      ],
      "stateMutability": "nonpayable",
      "type": "constructor"
    },
    {
      "anonymous": false,
      "inputs": [
        {
          "indexed": false,
          "internalType": "address",
          "name": "operator",
          "type": "address"
        },
        {
          "indexed": false,
          "internalType": "address",
          "name": "beneficiary",
          "type": "address"
        },
        {
          "indexed": false,
          "internalType": "uint256",
          "name": "ticketTokenId",
          "type": "uint256"
        },
        {
          "indexed": false,
          "internalType": "address",
          "name": "claimToken",
          "type": "address"
        },
        {
          "indexed": false,
          "internalType": "uint256",
          "name": "releasedAmount",
          "type": "uint256"
        }
      ],
      "name": "Claim",
      "type": "event"
    },
    {
      "anonymous": false,
      "inputs": [
        {
          "indexed": false,
          "internalType": "address",
          "name": "operator",
          "type": "address"
        },
        {
          "indexed": false,
          "internalType": "address",
          "name": "beneficiary",
          "type": "address"
        },
        {
          "indexed": false,
          "internalType": "uint256[]",
          "name": "ticketTokenIds",
          "type": "uint256[]"
        },
        {
          "indexed": false,
          "internalType": "address",
          "name": "claimToken",
          "type": "address"
        },
        {
          "indexed": false,
          "internalType": "uint256",
          "name": "releasedAmount",
          "type": "uint256"
        }
      ],
      "name": "ClaimMany",
      "type": "event"
    },
    {
      "anonymous": false,
      "inputs": [
        {
          "indexed": false,
          "internalType": "uint8",
          "name": "version",
          "type": "uint8"
        }
      ],
      "name": "Initialized",
      "type": "event"
    },
    {
      "anonymous": false,
      "inputs": [
        {
          "indexed": true,
          "internalType": "address",
          "name": "previousOwner",
          "type": "address"
        },
        {
          "indexed": true,
          "internalType": "address",
          "name": "newOwner",
          "type": "address"
        }
      ],
      "name": "OwnershipTransferred",
      "type": "event"
    },
    {
      "anonymous": false,
      "inputs": [],
      "name": "WithdrawPowerRevoked",
      "type": "event"
    },
    {
      "anonymous": false,
      "inputs": [
        {
          "indexed": false,
          "internalType": "address[]",
          "name": "claimTokens",
          "type": "address[]"
        },
        {
          "indexed": false,
          "internalType": "uint256[]",
          "name": "amounts",
          "type": "uint256[]"
        }
      ],
      "name": "Withdrawn",
      "type": "event"
    },
    {
      "inputs": [
        {
          "internalType": "uint256",
          "name": "ticketTokenId",
          "type": "uint256"
        }
      ],
      "name": "claim",
      "outputs": [],
      "stateMutability": "nonpayable",
      "type": "function"
    },
    {
      "inputs": [
        {
          "internalType": "uint256[]",
          "name": "ticketTokenIds",
          "type": "uint256[]"
        }
      ],
      "name": "claim",
      "outputs": [],
      "stateMutability": "nonpayable",
      "type": "function"
    },
    {
      "inputs": [
        {
          "internalType": "uint256",
          "name": "ticketTokenId",
          "type": "uint256"
        },
        {
          "internalType": "address",
          "name": "claimToken",
          "type": "address"
        }
      ],
      "name": "claim",
      "outputs": [],
      "stateMutability": "nonpayable",
      "type": "function"
    },
    {
      "inputs": [
        {
          "internalType": "uint256[]",
          "name": "ticketTokenIds",
          "type": "uint256[]"
        },
        {
          "internalType": "address",
          "name": "claimToken",
          "type": "address"
        },
        {
          "internalType": "address",
          "name": "beneficiary",
          "type": "address"
        }
      ],
      "name": "claim",
      "outputs": [],
      "stateMutability": "nonpayable",
      "type": "function"
    },
    {
      "inputs": [],
      "name": "claimLockedUntil",
      "outputs": [
        {
          "internalType": "uint64",
          "name": "",
          "type": "uint64"
        }
      ],
      "stateMutability": "view",
      "type": "function"
    },
    {
      "inputs": [
        {
          "internalType": "uint64",
          "name": "calcUntil",
          "type": "uint64"
        }
      ],
      "name": "emissionAmountUntil",
      "outputs": [
        {
          "internalType": "uint256",
          "name": "",
          "type": "uint256"
        }
      ],
      "stateMutability": "view",
      "type": "function"
    },
    {
      "inputs": [],
      "name": "emissionEnd",
      "outputs": [
        {
          "internalType": "uint64",
          "name": "",
          "type": "uint64"
        }
      ],
      "stateMutability": "view",
      "type": "function"
    },
    {
      "inputs": [],
      "name": "emissionRate",
      "outputs": [
        {
          "internalType": "uint256",
          "name": "",
          "type": "uint256"
        }
      ],
      "stateMutability": "view",
      "type": "function"
    },
    {
      "inputs": [],
      "name": "emissionStart",
      "outputs": [
        {
          "internalType": "uint64",
          "name": "",
          "type": "uint64"
        }
      ],
      "stateMutability": "view",
      "type": "function"
    },
    {
      "inputs": [],
      "name": "emissionTimeUnit",
      "outputs": [
        {
          "internalType": "uint64",
          "name": "",
          "type": "uint64"
        }
      ],
      "stateMutability": "view",
      "type": "function"
    },
    {
      "inputs": [
        {
          "internalType": "uint256",
          "name": "",
          "type": "uint256"
        },
        {
          "internalType": "address",
          "name": "",
          "type": "address"
        }
      ],
      "name": "entitlements",
      "outputs": [
        {
          "internalType": "uint256",
          "name": "totalClaimed",
          "type": "uint256"
        },
        {
          "internalType": "uint256",
          "name": "lastClaimedAt",
          "type": "uint256"
        }
      ],
      "stateMutability": "view",
      "type": "function"
    },
    {
      "inputs": [],
      "name": "hasERC721EmissionReleaseExtension",
      "outputs": [
        {
          "internalType": "bool",
          "name": "",
          "type": "bool"
        }
      ],
      "stateMutability": "pure",
      "type": "function"
    },
    {
      "inputs": [],
      "name": "hasERC721EqualSplitExtension",
      "outputs": [
        {
          "internalType": "bool",
          "name": "",
          "type": "bool"
        }
      ],
      "stateMutability": "pure",
      "type": "function"
    },
    {
      "inputs": [],
      "name": "hasERC721LockableClaimExtension",
      "outputs": [
        {
          "internalType": "bool",
          "name": "",
          "type": "bool"
        }
      ],
      "stateMutability": "pure",
      "type": "function"
    },
    {
      "inputs": [
        {
          "components": [
            {
              "internalType": "address",
              "name": "ticketToken",
              "type": "address"
            },
            {
              "internalType": "uint64",
              "name": "lockedUntilTimestamp",
              "type": "uint64"
            },
            {
              "internalType": "uint256",
              "name": "totalTickets",
              "type": "uint256"
            },
            {
              "internalType": "uint256",
              "name": "emissionRate",
              "type": "uint256"
            },
            {
              "internalType": "uint64",
              "name": "emissionTimeUnit",
              "type": "uint64"
            },
            {
              "internalType": "uint64",
              "name": "emissionStart",
              "type": "uint64"
            },
            {
              "internalType": "uint64",
              "name": "emissionEnd",
              "type": "uint64"
            }
          ],
          "internalType": "struct ERC721EqualEmissionStream.Config",
          "name": "config",
          "type": "tuple"
        },
        {
          "internalType": "address",
          "name": "deployer",
          "type": "address"
        }
      ],
      "name": "initialize",
      "outputs": [],
      "stateMutability": "nonpayable",
      "type": "function"
    },
    {
      "inputs": [
        {
          "internalType": "uint64",
          "name": "newValue",
          "type": "uint64"
        }
      ],
      "name": "lockUntil",
      "outputs": [],
      "stateMutability": "nonpayable",
      "type": "function"
    },
    {
      "inputs": [],
      "name": "lockWithdrawMode",
      "outputs": [],
      "stateMutability": "nonpayable",
      "type": "function"
    },
    {
      "inputs": [],
      "name": "lockWithdrawRecipient",
      "outputs": [],
      "stateMutability": "nonpayable",
      "type": "function"
    },
    {
      "inputs": [],
      "name": "lockedUntilTimestamp",
      "outputs": [
        {
          "internalType": "uint64",
          "name": "",
          "type": "uint64"
        }
      ],
      "stateMutability": "view",
      "type": "function"
    },
    {
      "inputs": [],
      "name": "name",
      "outputs": [
        {
          "internalType": "string",
          "name": "",
          "type": "string"
        }
      ],
      "stateMutability": "view",
      "type": "function"
    },
    {
      "inputs": [
        {
          "internalType": "address",
          "name": "",
          "type": "address"
        },
        {
          "internalType": "address",
          "name": "",
          "type": "address"
        },
        {
          "internalType": "uint256",
          "name": "",
          "type": "uint256"
        },
        {
          "internalType": "bytes",
          "name": "",
          "type": "bytes"
        }
      ],
      "name": "onERC721Received",
      "outputs": [
        {
          "internalType": "bytes4",
          "name": "",
          "type": "bytes4"
        }
      ],
      "stateMutability": "nonpayable",
      "type": "function"
    },
    {
      "inputs": [],
      "name": "owner",
      "outputs": [
        {
          "internalType": "address",
          "name": "",
          "type": "address"
        }
      ],
      "stateMutability": "view",
      "type": "function"
    },
    {
      "inputs": [
        {
          "internalType": "uint256[]",
          "name": "tokenIds",
          "type": "uint256[]"
        }
      ],
      "name": "rateByToken",
      "outputs": [
        {
          "internalType": "uint256",
          "name": "",
          "type": "uint256"
        }
      ],
      "stateMutability": "view",
      "type": "function"
    },
    {
      "inputs": [
        {
          "internalType": "uint64",
          "name": "calcUntil",
          "type": "uint64"
        }
      ],
      "name": "releasedAmountUntil",
      "outputs": [
        {
          "internalType": "uint256",
          "name": "",
          "type": "uint256"
        }
      ],
      "stateMutability": "view",
      "type": "function"
    },
    {
      "inputs": [],
      "name": "renounceOwnership",
      "outputs": [],
      "stateMutability": "nonpayable",
      "type": "function"
    },
    {
      "inputs": [],
      "name": "revokeWithdrawPower",
      "outputs": [],
      "stateMutability": "nonpayable",
      "type": "function"
    },
    {
      "inputs": [
        {
          "internalType": "uint64",
          "name": "newValue",
          "type": "uint64"
        }
      ],
      "name": "setClaimLockedUntil",
      "outputs": [],
      "stateMutability": "nonpayable",
      "type": "function"
    },
    {
      "inputs": [
        {
          "internalType": "uint64",
          "name": "newValue",
          "type": "uint64"
        }
      ],
      "name": "setEmissionEnd",
      "outputs": [],
      "stateMutability": "nonpayable",
      "type": "function"
    },
    {
      "inputs": [
        {
          "internalType": "uint256",
          "name": "newValue",
          "type": "uint256"
        }
      ],
      "name": "setEmissionRate",
      "outputs": [],
      "stateMutability": "nonpayable",
      "type": "function"
    },
    {
      "inputs": [
        {
          "internalType": "uint64",
          "name": "newValue",
          "type": "uint64"
        }
      ],
      "name": "setEmissionStart",
      "outputs": [],
      "stateMutability": "nonpayable",
      "type": "function"
    },
    {
      "inputs": [
        {
          "internalType": "uint64",
          "name": "newValue",
          "type": "uint64"
        }
      ],
      "name": "setEmissionTimeUnit",
      "outputs": [],
      "stateMutability": "nonpayable",
      "type": "function"
    },
    {
      "inputs": [
        {
          "internalType": "uint256",
          "name": "newValue",
          "type": "uint256"
        }
      ],
      "name": "setTotalTickets",
      "outputs": [],
      "stateMutability": "nonpayable",
      "type": "function"
    },
    {
      "inputs": [
        {
          "internalType": "enum WithdrawMode",
          "name": "_withdrawMode",
          "type": "uint8"
        }
      ],
      "name": "setWithdrawMode",
      "outputs": [],
      "stateMutability": "nonpayable",
      "type": "function"
    },
    {
      "inputs": [
        {
          "internalType": "address",
          "name": "_withdrawRecipient",
          "type": "address"
        }
      ],
      "name": "setWithdrawRecipient",
      "outputs": [],
      "stateMutability": "nonpayable",
      "type": "function"
    },
    {
      "inputs": [
        {
          "internalType": "uint256[]",
          "name": "ticketTokenIds",
          "type": "uint256[]"
        },
        {
          "internalType": "address",
          "name": "claimToken",
          "type": "address"
        }
      ],
      "name": "streamClaimableAmount",
      "outputs": [
        {
          "internalType": "uint256",
          "name": "",
          "type": "uint256"
        }
      ],
      "stateMutability": "view",
      "type": "function"
    },
    {
      "inputs": [
        {
          "internalType": "uint256",
          "name": "ticketTokenId",
          "type": "uint256"
        }
      ],
      "name": "streamClaimableAmount",
      "outputs": [
        {
          "internalType": "uint256",
          "name": "",
          "type": "uint256"
        }
      ],
      "stateMutability": "view",
      "type": "function"
    },
    {
      "inputs": [
        {
          "internalType": "uint256",
          "name": "ticketTokenId",
          "type": "uint256"
        },
        {
          "internalType": "address",
          "name": "claimToken",
          "type": "address"
        }
      ],
      "name": "streamClaimableAmount",
      "outputs": [
        {
          "internalType": "uint256",
          "name": "",
          "type": "uint256"
        }
      ],
      "stateMutability": "view",
      "type": "function"
    },
    {
      "inputs": [
        {
          "internalType": "uint256[]",
          "name": "ticketTokenIds",
          "type": "uint256[]"
        },
        {
          "internalType": "address",
          "name": "claimToken",
          "type": "address"
        }
      ],
      "name": "streamTotalClaimed",
      "outputs": [
        {
          "internalType": "uint256",
          "name": "",
          "type": "uint256"
        }
      ],
      "stateMutability": "view",
      "type": "function"
    },
    {
      "inputs": [],
      "name": "streamTotalClaimed",
      "outputs": [
        {
          "internalType": "uint256",
          "name": "",
          "type": "uint256"
        }
      ],
      "stateMutability": "view",
      "type": "function"
    },
    {
      "inputs": [
        {
          "internalType": "uint256[]",
          "name": "ticketTokenIds",
          "type": "uint256[]"
        }
      ],
      "name": "streamTotalClaimed",
      "outputs": [
        {
          "internalType": "uint256",
          "name": "",
          "type": "uint256"
        }
      ],
      "stateMutability": "view",
      "type": "function"
    },
    {
      "inputs": [
        {
          "internalType": "uint256",
          "name": "ticketTokenId",
          "type": "uint256"
        },
        {
          "internalType": "address",
          "name": "claimToken",
          "type": "address"
        }
      ],
      "name": "streamTotalClaimed",
      "outputs": [
        {
          "internalType": "uint256",
          "name": "",
          "type": "uint256"
        }
      ],
      "stateMutability": "view",
      "type": "function"
    },
    {
      "inputs": [
        {
          "internalType": "address",
          "name": "claimToken",
          "type": "address"
        }
      ],
      "name": "streamTotalClaimed",
      "outputs": [
        {
          "internalType": "uint256",
          "name": "",
          "type": "uint256"
        }
      ],
      "stateMutability": "view",
      "type": "function"
    },
    {
      "inputs": [
        {
          "internalType": "uint256",
          "name": "ticketTokenId",
          "type": "uint256"
        }
      ],
      "name": "streamTotalClaimed",
      "outputs": [
        {
          "internalType": "uint256",
          "name": "",
          "type": "uint256"
        }
      ],
      "stateMutability": "view",
      "type": "function"
    },
    {
      "inputs": [],
      "name": "streamTotalSupply",
      "outputs": [
        {
          "internalType": "uint256",
          "name": "",
          "type": "uint256"
        }
      ],
      "stateMutability": "view",
      "type": "function"
    },
    {
      "inputs": [
        {
          "internalType": "address",
          "name": "claimToken",
          "type": "address"
        }
      ],
      "name": "streamTotalSupply",
      "outputs": [
        {
          "internalType": "uint256",
          "name": "",
          "type": "uint256"
        }
      ],
      "stateMutability": "view",
      "type": "function"
    },
    {
      "inputs": [
        {
          "internalType": "bytes4",
          "name": "interfaceId",
          "type": "bytes4"
        }
      ],
      "name": "supportsInterface",
      "outputs": [
        {
          "internalType": "bool",
          "name": "",
          "type": "bool"
        }
      ],
      "stateMutability": "view",
      "type": "function"
    },
    {
      "inputs": [],
      "name": "ticketToken",
      "outputs": [
        {
          "internalType": "address",
          "name": "",
          "type": "address"
        }
      ],
      "stateMutability": "view",
      "type": "function"
    },
    {
      "inputs": [],
      "name": "totalTickets",
      "outputs": [
        {
          "internalType": "uint256",
          "name": "",
          "type": "uint256"
        }
      ],
      "stateMutability": "view",
      "type": "function"
    },
    {
      "inputs": [
        {
          "internalType": "address",
          "name": "newOwner",
          "type": "address"
        }
      ],
      "name": "transferOwnership",
      "outputs": [],
      "stateMutability": "nonpayable",
      "type": "function"
    },
    {
      "inputs": [],
      "name": "version",
      "outputs": [
        {
          "internalType": "string",
          "name": "",
          "type": "string"
        }
      ],
      "stateMutability": "view",
      "type": "function"
    },
    {
      "inputs": [
        {
          "internalType": "address[]",
          "name": "claimTokens",
          "type": "address[]"
        },
        {
          "internalType": "uint256[]",
          "name": "amounts",
          "type": "uint256[]"
        }
      ],
      "name": "withdraw",
      "outputs": [],
      "stateMutability": "nonpayable",
      "type": "function"
    },
    {
      "inputs": [],
      "name": "withdrawMode",
      "outputs": [
        {
          "internalType": "enum WithdrawMode",
          "name": "",
          "type": "uint8"
        }
      ],
      "stateMutability": "view",
      "type": "function"
    },
    {
      "inputs": [],
      "name": "withdrawModeLocked",
      "outputs": [
        {
          "internalType": "bool",
          "name": "",
          "type": "bool"
        }
      ],
      "stateMutability": "view",
      "type": "function"
    },
    {
      "inputs": [],
      "name": "withdrawPowerRevoked",
      "outputs": [
        {
          "internalType": "bool",
          "name": "",
          "type": "bool"
        }
      ],
      "stateMutability": "view",
      "type": "function"
    },
    {
      "inputs": [],
      "name": "withdrawRecipient",
      "outputs": [
        {
          "internalType": "address",
          "name": "",
          "type": "address"
        }
      ],
      "stateMutability": "view",
      "type": "function"
    },
    {
      "inputs": [],
      "name": "withdrawRecipientLocked",
      "outputs": [
        {
          "internalType": "bool",
          "name": "",
          "type": "bool"
        }
      ],
      "stateMutability": "view",
      "type": "function"
    },
    {
      "stateMutability": "payable",
      "type": "receive"
    }
  ],
  "transactionHash": "0xb0ce98b6c36f73203523c8b7141af42c23b477380c71d3c36bd11f94cdd7460b",
  "args": [
    {
      "ticketToken": "0x0000000000000000000000000000000000000000",
      "lockedUntilTimestamp": 0,
      "totalTickets": 0,
      "emissionRate": 0,
      "emissionTimeUnit": 0,
      "emissionStart": 0,
      "emissionEnd": 0,
      "claimLockedUntil": 0
    }
  ],
  "numDeployments": 8,
  "solcInputHash": "609f5d93770564b2f6d7785cde7b8867",
  "bytecode": "0x60806040523480156200001157600080fd5b5060405162003303380380620033038339810160408190526200003491620005c1565b6200003f3362000057565b6001600255620000508133620000b2565b50620006dd565b600080546001600160a01b038381166201000081810262010000600160b01b0319851617855560405193049190911692909183917f8be0079c531659141344cd1fd0a4f28419497f9722a3daafe3b4186f6b6457e091a35050565b600054610100900460ff1615808015620000d35750600054600160ff909116105b80620001035750620000f0306200023b60201b62001a951760201c565b15801562000103575060005460ff166001145b6200016c5760405162461bcd60e51b815260206004820152602e60248201527f496e697469616c697a61626c653a20636f6e747261637420697320616c72656160448201526d191e481a5b9a5d1a585b1a5e995960921b60648201526084015b60405180910390fd5b6000805460ff19166001179055801562000190576000805461ff0019166101001790555b6200019b8262000057565b620001a88260006200024a565b82516020840151620001bb919062000284565b620001df836060015184608001518560a001518660c00151620002ba60201b60201c565b6040830151620001ef90620002f8565b801562000236576000805461ff0019169055604051600181527f7f26b83ff96e1f2b6a682f133852f6798a09c465da95921460cefb38474024989060200160405180910390a15b505050565b6001600160a01b03163b151590565b600054610100900460ff16620002745760405162461bcd60e51b815260040162000163906200067c565b62000280828262000330565b5050565b600054610100900460ff16620002ae5760405162461bcd60e51b815260040162000163906200067c565b620002808282620003d7565b600054610100900460ff16620002e45760405162461bcd60e51b815260040162000163906200067c565b620002f28484848462000441565b50505050565b600054610100900460ff16620003225760405162461bcd60e51b815260040162000163906200067c565b6200032d81620004cc565b50565b600054610100900460ff166200035a5760405162461bcd60e51b815260040162000163906200067c565b6200036c63ac2ba33360e01b62000508565b60098054600160401b600160e01b03198116680100000000000000006001600160a01b038616029081178355839291600160401b62ff000160e01b03191660ff60f01b1990911617600160f01b836003811115620003ce57620003ce620006c7565b02179055505050565b600054610100900460ff16620004015760405162461bcd60e51b815260040162000163906200067c565b600380546001600160401b038316600160a01b026001600160e01b03199091166001600160a01b0385161717905562000280631ba050e960e21b62000508565b600054610100900460ff166200046b5760405162461bcd60e51b815260040162000163906200067c565b6006849055600780546001600160401b03838116600160801b02600160801b600160c01b031986831668010000000000000000026001600160801b0319909416928816929092179290921716179055620002f263c9f600a960e01b62000508565b600054610100900460ff16620004f65760405162461bcd60e51b815260040162000163906200067c565b60088190556200032d632d5305cb60e21b5b6001600160e01b03198082169003620005645760405162461bcd60e51b815260206004820152601c60248201527f4552433136353a20696e76616c696420696e7465726661636520696400000000604482015260640162000163565b6001600160e01b0319166000908152600160208190526040909120805460ff19169091179055565b80516001600160a01b0381168114620005a457600080fd5b919050565b80516001600160401b0381168114620005a457600080fd5b600060e08284031215620005d457600080fd5b60405160e081016001600160401b03811182821017156200060557634e487b7160e01b600052604160045260246000fd5b60405262000613836200058c565b81526200062360208401620005a9565b602082015260408301516040820152606083015160608201526200064a60808401620005a9565b60808201526200065d60a08401620005a9565b60a08201526200067060c08401620005a9565b60c08201529392505050565b6020808252602b908201527f496e697469616c697a61626c653a20636f6e7472616374206973206e6f74206960408201526a6e697469616c697a696e6760a81b606082015260800190565b634e487b7160e01b600052602160045260246000fd5b612c1680620006ed6000396000f3fe60806040526004361061028f5760003560e01c806389c6b8151161015657806389c6b815146107145780638da5cb5b146107345780639199690b146103dc578063968d9b2c1461075657806396afc450146107765780639edfe8301461078c578063a1bdb15e146107ac578063a1cf6493146107cc578063a86b21e81461080f578063aa02a74b1461082f578063aaf2f9991461084f578063ae890c0a1461086f578063af121f541461088f578063c0881849146108b0578063c0bb38ff146108e6578063c723955a14610906578063d1335b69146103dc578063d5ed4d5a1461091b578063d97314f51461093b578063da82b2271461095b578063dcbe353f14610970578063dd11247e14610997578063ddd5e1b2146109ad578063de6d6d96146109cd578063f2fde38b146109ed578063f389b6e414610a0d578063f4415ad614610a2d578063f66e38c214610a6557600080fd5b80630191c0af146102a857806301ffc9a7146102db57806306fdde031461030b57806314427a9614610360578063150b7a02146103985780631bc51b26146103dc5780631c725fdc146103f057806325289bad146104105780632890d033146104375780632c0e13131461044c5780632c2330671461046c5780632d00b5871461048c578063379607f5146104ba5780633b3f12e2146104da5780633d2dded5146104fa57806349561cb914610537578063513da9481461055857806354fd4d501461057f57806357dc48c8146105ae5780636057e0ec1461060257806361949636146106235780636ba4c13814610643578063715018a61461066357806378b094ca14610678578063790c0c73146106985780638368909c146106b8578063837fe140146106df57806384fd5ae0146106f457600080fd5b366102a357600034116102a157600080fd5b005b600080fd5b3480156102b457600080fd5b506102c86102c33660046123f7565b610a85565b6040519081526020015b60405180910390f35b3480156102e757600080fd5b506102fb6102f636600461244d565b610add565b60405190151581526020016102d2565b34801561031757600080fd5b506103536040518060400160405280601c81526020017b45524337323120457175616c20456d697373696f6e2053747265616d60201b81525081565b6040516102d29190612477565b34801561036c57600080fd5b50600954610380906001600160401b031681565b6040516001600160401b0390911681526020016102d2565b3480156103a457600080fd5b506103c36103b336600461253a565b630a85bd0160e11b949350505050565b6040516001600160e01b031990911681526020016102d2565b3480156103e857600080fd5b5060016102fb565b3480156103fc57600080fd5b506102a161040b366004612614565b610b1d565b34801561041c57600080fd5b5060035461038090600160a01b90046001600160401b031681565b34801561044357600080fd5b506102c8610bac565b34801561045857600080fd5b506102a1610467366004612614565b610bbd565b34801561047857600080fd5b506102a161048736600461262f565b610c19565b34801561049857600080fd5b506009546104ad90600160f01b900460ff1681565b6040516102d29190612666565b3480156104c657600080fd5b506102a16104d536600461268e565b610c78565b3480156104e657600080fd5b506102c86104f53660046123f7565b610c86565b34801561050657600080fd5b506000805260056020527f05b8ccbb9d4d8fb16ea74ce3c29a41f1b461fbdaff4714a0d9a8eb05499746bc546102c8565b34801561054357600080fd5b506009546102fb90600160f81b900460ff1681565b34801561056457600080fd5b5060075461038090600160401b90046001600160401b031681565b34801561058b57600080fd5b5061035360405180604001604052806003815260200162302e3160e81b81525081565b3480156105ba57600080fd5b506105ed6105c93660046126a7565b60046020908152600092835260408084209091529082529020805460019091015482565b604080519283526020830191909152016102d2565b34801561060e57600080fd5b506009546102fb90600160e01b900460ff1681565b34801561062f57600080fd5b50600754610380906001600160401b031681565b34801561064f57600080fd5b506102a161065e3660046126d7565b610d04565b34801561066f57600080fd5b506102a1610d15565b34801561068457600080fd5b506102a1610693366004612614565b610d29565b3480156106a457600080fd5b506102c86106b3366004612718565b610d8f565b3480156106c457600080fd5b5060075461038090600160801b90046001600160401b031681565b3480156106eb57600080fd5b506102a1610e53565b34801561070057600080fd5b506102c861070f3660046126d7565b610e9a565b34801561072057600080fd5b506102c861072f3660046126d7565b610eb9565b34801561074057600080fd5b50610749610ec7565b6040516102d29190612735565b34801561076257600080fd5b506102c861077136600461268e565b610edc565b34801561078257600080fd5b506102c860065481565b34801561079857600080fd5b506102c86107a7366004612614565b610ee9565b3480156107b857600080fd5b506102a16107c736600461268e565b610f2e565b3480156107d857600080fd5b506102c86107e73660046126a7565b60009182526004602090815260408084206001600160a01b0393909316845291905290205490565b34801561081b57600080fd5b506102c861082a366004612614565b610f6d565b34801561083b57600080fd5b506102a161084a366004612749565b610fb3565b34801561085b57600080fd5b506102a161086a366004612614565b611114565b34801561087b57600080fd5b506102a161088a36600461268e565b61117b565b34801561089b57600080fd5b506009546102fb90600160e81b900460ff1681565b3480156108bc57600080fd5b506102c86108cb366004612718565b6001600160a01b031660009081526005602052604090205490565b3480156108f257600080fd5b506102a1610901366004612718565b6111ba565b34801561091257600080fd5b506102a1611218565b34801561092757600080fd5b50600354610749906001600160a01b031681565b34801561094757600080fd5b506102a1610956366004612614565b611279565b34801561096757600080fd5b506102a16112d5565b34801561097c57600080fd5b5060095461074990600160401b90046001600160a01b031681565b3480156109a357600080fd5b506102c860085481565b3480156109b957600080fd5b506102a16109c83660046126a7565b61131b565b3480156109d957600080fd5b506102a16109e83660046127f1565b611514565b3480156109f957600080fd5b506102a1610a08366004612718565b611762565b348015610a1957600080fd5b506102a1610a2836600461285c565b6117d8565b348015610a3957600080fd5b506102c8610a4836600461268e565b600090815260046020908152604080832083805290915290205490565b348015610a7157600080fd5b506102c8610a803660046126a7565b611a3d565b600080805b84811015610ad257610ab4868683818110610aa757610aa76128c3565b9050602002013585611a3d565b610abe90836128ef565b915080610aca81612907565b915050610a8a565b5090505b9392505050565b60006301ffc9a760e01b6001600160e01b031983161480610b1757506001600160e01b0319821660009081526001602052604090205460ff165b92915050565b610b25611aa4565b6003546001600160401b03600160a01b909104811690821611610b7f5760405162461bcd60e51b815260206004820152600d60248201526c10d0539393d517d49155d25391609a1b60448201526064015b60405180910390fd5b600380546001600160401b03909216600160a01b0267ffffffffffffffff60a01b19909216919091179055565b6000610bb86000610d8f565b905090565b610bc5611aa4565b60035442600160a01b9091046001600160401b031610610bf75760405162461bcd60e51b8152600401610b7690612920565b600980546001600160401b0319166001600160401b0392909216919091179055565b610c21611aa4565b600954600160f81b900460ff1615610c4b5760405162461bcd60e51b8152600401610b7690612947565b6009805482919060ff60f01b1916600160f01b836003811115610c7057610c70612650565b021790555050565b610c8381600061131b565b50565b600080805b84811015610ad25760046000878784818110610ca957610ca96128c3565b9050602002013581526020019081526020016000206000856001600160a01b03166001600160a01b031681526020019081526020016000206000015482610cf091906128ef565b915080610cfc81612907565b915050610c8b565b610d1182826000336117d8565b5050565b610d1d611aa4565b610d276000611b03565b565b610d31611aa4565b60035442600160a01b9091046001600160401b031610610d635760405162461bcd60e51b8152600401610b7690612920565b600780546001600160401b03909216600160801b02600160801b600160c01b0319909216919091179055565b60006001600160a01b038216610dc3576001600160a01b038216600090815260056020526040902054610b179047906128ef565b6040516370a0823160e01b81526001600160a01b038316906370a0823190610def903090600401612735565b602060405180830381865afa158015610e0c573d6000803e3d6000fd5b505050506040513d601f19601f82011682018060405250810190610e309190612967565b6001600160a01b038316600090815260056020526040902054610b1791906128ef565b610e5b611aa4565b600954600160e01b900460ff1615610e855760405162461bcd60e51b8152600401610b7690612947565b6009805460ff60e01b1916600160e01b179055565b60085460065460009190610eaf908490612980565b610ad691906129b5565b6000610ad683836000610c86565b6000546201000090046001600160a01b031690565b6000610b17826000611a3d565b6007546000906001600160401b0380821691610f0e91600160401b90910416846129c9565b610f1891906129f1565b6001600160401b0316600654610b179190612980565b610f36611aa4565b60035442600160a01b9091046001600160401b031610610f685760405162461bcd60e51b8152600401610b7690612920565b600655565b6007546006546000916001600160401b038082169291610f9691600160401b90910416856129c9565b6001600160401b0316610fa99190612980565b610b1791906129b5565b600054610100900460ff1615808015610fd35750600054600160ff909116105b80610ff45750610fe230611a95565b158015610ff4575060005460ff166001145b6110575760405162461bcd60e51b815260206004820152602e60248201527f496e697469616c697a61626c653a20636f6e747261637420697320616c72656160448201526d191e481a5b9a5d1a585b1a5e995960921b6064820152608401610b76565b6000805460ff19166001179055801561107a576000805461ff0019166101001790555b61108382611b03565b61108e826000611b5e565b6110a083600001518460200151611b8f565b6110bc836060015184608001518560a001518660c00151611bc0565b6110c98360400151611bf9565b801561110f576000805461ff0019169055604051600181527f7f26b83ff96e1f2b6a682f133852f6798a09c465da95921460cefb38474024989060200160405180910390a15b505050565b61111c611aa4565b60035442600160a01b9091046001600160401b03161061114e5760405162461bcd60e51b8152600401610b7690612920565b600780546001600160401b03909216600160401b0267ffffffffffffffff60401b19909216919091179055565b611183611aa4565b60035442600160a01b9091046001600160401b0316106111b55760405162461bcd60e51b8152600401610b7690612920565b600855565b6111c2611aa4565b600954600160e01b900460ff16156111ec5760405162461bcd60e51b8152600401610b7690612947565b600980546001600160a01b03909216600160401b02600160401b600160e01b0319909216919091179055565b611220611aa4565b600954600160f81b900460ff16156112625760405162461bcd60e51b815260206004820152600560248201526413d0d2d15160da1b6044820152606401610b76565b600980546001600160f81b0316600160f81b179055565b611281611aa4565b60035442600160a01b9091046001600160401b0316106112b35760405162461bcd60e51b8152600401610b7690612920565b600780546001600160401b0319166001600160401b0392909216919091179055565b6112dd611aa4565b6009805460ff60e81b1916600160e81b1790556040517fa24423a69b45c25c0479663125e48b482e71d85eae416f589545243bafaf3c9590600090a1565b600280540361133c5760405162461bcd60e51b8152600401610b7690612a17565b600280553361134c838383611c29565b60006113588484611a3d565b90506000811161139d5760405162461bcd60e51b815260206004820152601060248201526f4e4f5448494e475f544f5f434c41494d60801b6044820152606401610b76565b60008481526004602090815260408083206001600160a01b0387168452909152812080548392906113cf9084906128ef565b909155505060008481526004602090815260408083206001600160a01b03871684528252808320426001909101556005909152812080548392906114149084906128ef565b90915550506001600160a01b03831661143f5761143a6001600160a01b03831682611c4a565b6114b2565b60405163a9059cbb60e01b81526001600160a01b0384169063a9059cbb9061146d9085908590600401612a4e565b6020604051808303816000875af115801561148c573d6000803e3d6000fd5b505050506040513d601f19601f820116820180604052508101906114b09190612a67565b505b604080513381526001600160a01b038481166020830152818301879052851660608201526080810183905290517fa2d3c4c1fc934d6d2d8f9e862df90c01ae4eb0e920cd8957d242ba26b8dc40789181900360a00190a1505060016002555050565b61151d33611d60565b600954600160401b90046001600160a01b03166115745760405162461bcd60e51b815260206004820152601560248201527415d2551211149055cbd393d7d49150d25412515395605a1b6044820152606401610b76565b600954600160e81b900460ff16156115ce5760405162461bcd60e51b815260206004820181905260248201527f57495448445241572f454d455247454e43595f504f5745525f5245564f4b45446044820152606401610b76565b60005b8381101561171e5760008585838181106115ed576115ed6128c3565b90506020020160208101906116029190612718565b6001600160a01b03160361164d57611648838383818110611625576116256128c3565b6009546001600160a01b03600160401b9091041692602090910201359050611c4a565b61170c565b84848281811061165f5761165f6128c3565b90506020020160208101906116749190612718565b6009546001600160a01b039182169163a9059cbb91600160401b9004168585858181106116a3576116a36128c3565b905060200201356040518363ffffffff1660e01b81526004016116c7929190612a4e565b6020604051808303816000875af11580156116e6573d6000803e3d6000fd5b505050506040513d601f19601f8201168201806040525081019061170a9190612a67565b505b8061171681612907565b9150506115d1565b507fd40c399a83caf67d15628b821aa7c7bd940e563c57a047e2bd3b8c602bcaf5a5848484846040516117549493929190612abf565b60405180910390a150505050565b61176a611aa4565b6001600160a01b0381166117cf5760405162461bcd60e51b815260206004820152602660248201527f4f776e61626c653a206e6577206f776e657220697320746865207a65726f206160448201526564647265737360d01b6064820152608401610b76565b610c8381611b03565b60028054036117f95760405162461bcd60e51b8152600401610b7690612a17565b600280556000805b848110156119295761182c86868381811061181e5761181e6128c3565b905060200201358585611c29565b6000611850878784818110611843576118436128c3565b9050602002013586611a3d565b9050801561191657806004600089898681811061186f5761186f6128c3565b9050602002013581526020019081526020016000206000876001600160a01b03166001600160a01b0316815260200190815260200160002060000160008282546118b991906128ef565b90915550429050600460008989868181106118d6576118d66128c3565b6020908102929092013583525081810192909252604090810160009081206001600160a01b038a16825290925290206001015561191381846128ef565b92505b508061192181612907565b915050611801565b506001600160a01b038316600090815260056020526040812080548392906119529084906128ef565b90915550506001600160a01b03831661197d576119786001600160a01b03831682611c4a565b6119f0565b60405163a9059cbb60e01b81526001600160a01b0384169063a9059cbb906119ab9085908590600401612a4e565b6020604051808303816000875af11580156119ca573d6000803e3d6000fd5b505050506040513d601f19601f820116820180604052508101906119ee9190612a67565b505b7fd84a5c424a4f777bcf4f645712b8e5ebfc550f42bde444fa822fe98ee1b132b1338387878786604051611a2996959493929190612b22565b60405180910390a150506001600255505050565b600080611a5d611a56611a4f85610d8f565b8686611eed565b8585611f75565b60008581526004602090815260408083206001600160a01b0388168452909152902054909150611a8d9082612b61565b949350505050565b6001600160a01b03163b151590565b33611aad610ec7565b6001600160a01b031614610d275760405162461bcd60e51b815260206004820181905260248201527f4f776e61626c653a2063616c6c6572206973206e6f7420746865206f776e65726044820152606401610b76565b600080546001600160a01b038381166201000081810262010000600160b01b0319851617855560405193049190911692909183917f8be0079c531659141344cd1fd0a4f28419497f9722a3daafe3b4186f6b6457e091a35050565b600054610100900460ff16611b855760405162461bcd60e51b8152600401610b7690612b78565b610d118282611f85565b600054610100900460ff16611bb65760405162461bcd60e51b8152600401610b7690612b78565b610d11828261201f565b600054610100900460ff16611be75760405162461bcd60e51b8152600401610b7690612b78565b611bf384848484612084565b50505050565b600054610100900460ff16611c205760405162461bcd60e51b8152600401610b7690612b78565b610c8381612105565b611c34838383612141565b611c3f8383836121f6565b61110f838383612241565b80471015611c9a5760405162461bcd60e51b815260206004820152601d60248201527f416464726573733a20696e73756666696369656e742062616c616e63650000006044820152606401610b76565b6000826001600160a01b03168260405160006040518083038185875af1925050503d8060008114611ce7576040519150601f19603f3d011682016040523d82523d6000602084013e611cec565b606091505b505090508061110f5760405162461bcd60e51b815260206004820152603a60248201527f416464726573733a20756e61626c6520746f2073656e642076616c75652c20726044820152791958da5c1a595b9d081b585e481a185d99481c995d995c9d195960321b6064820152608401610b76565b6003600954600160f01b900460ff166003811115611d8057611d80612650565b03611dbf5760405162461bcd60e51b815260206004820152600f60248201526e15d2551211149055cbd313d0d2d151608a1b6044820152606401610b76565b6002600954600160f01b900460ff166003811115611ddf57611ddf612650565b03611de75750565b6001600954600160f01b900460ff166003811115611e0757611e07612650565b03611e6a576009546001600160a01b03828116600160401b9092041614610c835760405162461bcd60e51b815260206004820152601760248201527615d2551211149055cbd3d3931657d49150d25412515395604a1b6044820152606401610b76565b6000600954600160f01b900460ff166003811115611e8a57611e8a612650565b03610c8357806001600160a01b0316611ea1610ec7565b6001600160a01b031614610c835760405162461bcd60e51b81526020600482015260136024820152722ba4aa24222920ab97a7a7262cafa7aba722a960691b6044820152606401610b76565b600754600090600160401b90046001600160401b0316421015611f1257506000610ad6565b600754600160801b90046001600160401b031615801590611f445750600754600160801b90046001600160401b031642115b15611f6c57600754611f6590600160801b90046001600160401b0316610ee9565b9050610ad6565b611f6542610ee9565b600060085484611a8d91906129b5565b600054610100900460ff16611fac5760405162461bcd60e51b8152600401610b7690612b78565b611fbc63ac2ba33360e01b612306565b60098054600160401b600160e01b03198116600160401b6001600160a01b038616029081178355839291600160401b62ff000160e01b03191660ff60f01b1990911617600160f01b83600381111561201657612016612650565b02179055505050565b600054610100900460ff166120465760405162461bcd60e51b8152600401610b7690612b78565b600380546001600160401b038316600160a01b026001600160e01b03199091166001600160a01b03851617179055610d11631ba050e960e21b612306565b600054610100900460ff166120ab5760405162461bcd60e51b8152600401610b7690612b78565b6006849055600780546001600160401b03838116600160801b02600160801b600160c01b0319868316600160401b026001600160801b0319909416928816929092179290921716179055611bf363c9f600a960e01b612306565b600054610100900460ff1661212c5760405162461bcd60e51b8152600401610b7690612b78565b6008819055610c83632d5305cb60e21b612306565b6003546040516331a9108f60e11b8152600481018590526001600160a01b03838116921690636352211e90602401602060405180830381865afa15801561218c573d6000803e3d6000fd5b505050506040513d601f19601f820116820180604052508101906121b09190612bc3565b6001600160a01b03161461110f5760405162461bcd60e51b815260206004820152600d60248201526c2727aa2fa7232a2fa7aba722a960991b6044820152606401610b76565b600954426001600160401b039091161061110f5760405162461bcd60e51b815260206004820152600c60248201526b10d310525357d313d0d2d15160a21b6044820152606401610b76565b60075442600160401b9091046001600160401b0316106122915760405162461bcd60e51b815260206004820152600b60248201526a1393d517d4d5105495115160aa1b6044820152606401610b76565b6007546122a7906001600160401b031642612b61565b60008481526004602090815260408083206001600160a01b03871684529091529020600101541061110f5760405162461bcd60e51b8152602060048201526009602482015268544f4f5f4541524c5960b81b6044820152606401610b76565b6001600160e01b0319808216900361235f5760405162461bcd60e51b815260206004820152601c60248201527b115490cc4d8d4e881a5b9d985b1a59081a5b9d195c999858d9481a5960221b6044820152606401610b76565b6001600160e01b0319166000908152600160208190526040909120805460ff19169091179055565b60008083601f84011261239957600080fd5b5081356001600160401b038111156123b057600080fd5b6020830191508360208260051b85010111156123cb57600080fd5b9250929050565b6001600160a01b0381168114610c8357600080fd5b80356123f2816123d2565b919050565b60008060006040848603121561240c57600080fd5b83356001600160401b0381111561242257600080fd5b61242e86828701612387565b9094509250506020840135612442816123d2565b809150509250925092565b60006020828403121561245f57600080fd5b81356001600160e01b031981168114610ad657600080fd5b600060208083528351808285015260005b818110156124a457858101830151858201604001528201612488565b818111156124b6576000604083870101525b50601f01601f1916929092016040019392505050565b634e487b7160e01b600052604160045260246000fd5b60405160e081016001600160401b0381118282101715612504576125046124cc565b60405290565b604051601f8201601f191681016001600160401b0381118282101715612532576125326124cc565b604052919050565b6000806000806080858703121561255057600080fd5b843561255b816123d2565b935060208581013561256c816123d2565b93506040860135925060608601356001600160401b038082111561258f57600080fd5b818801915088601f8301126125a357600080fd5b8135818111156125b5576125b56124cc565b6125c7601f8201601f1916850161250a565b915080825289848285010111156125dd57600080fd5b808484018584013760008482840101525080935050505092959194509250565b80356001600160401b03811681146123f257600080fd5b60006020828403121561262657600080fd5b610ad6826125fd565b60006020828403121561264157600080fd5b813560048110610ad657600080fd5b634e487b7160e01b600052602160045260246000fd5b602081016004831061268857634e487b7160e01b600052602160045260246000fd5b91905290565b6000602082840312156126a057600080fd5b5035919050565b600080604083850312156126ba57600080fd5b8235915060208301356126cc816123d2565b809150509250929050565b600080602083850312156126ea57600080fd5b82356001600160401b0381111561270057600080fd5b61270c85828601612387565b90969095509350505050565b60006020828403121561272a57600080fd5b8135610ad6816123d2565b6001600160a01b0391909116815260200190565b60008082840361010081121561275e57600080fd5b60e081121561276c57600080fd5b506127756124e2565b8335612780816123d2565b815261278e602085016125fd565b602082015260408401356040820152606084013560608201526127b3608085016125fd565b60808201526127c460a085016125fd565b60a08201526127d560c085016125fd565b60c082015291506127e860e084016123e7565b90509250929050565b6000806000806040858703121561280757600080fd5b84356001600160401b038082111561281e57600080fd5b61282a88838901612387565b9096509450602087013591508082111561284357600080fd5b5061285087828801612387565b95989497509550505050565b6000806000806060858703121561287257600080fd5b84356001600160401b0381111561288857600080fd5b61289487828801612387565b90955093505060208501356128a8816123d2565b915060408501356128b8816123d2565b939692955090935050565b634e487b7160e01b600052603260045260246000fd5b634e487b7160e01b600052601160045260246000fd5b60008219821115612902576129026128d9565b500190565b600060018201612919576129196128d9565b5060010190565b6020808252600d908201526c10d3d3919251d7d313d0d2d151609a1b604082015260600190565b6020808252600690820152651313d0d2d15160d21b604082015260600190565b60006020828403121561297957600080fd5b5051919050565b600081600019048311821515161561299a5761299a6128d9565b500290565b634e487b7160e01b600052601260045260246000fd5b6000826129c4576129c461299f565b500490565b60006001600160401b03838116908316818110156129e9576129e96128d9565b039392505050565b60006001600160401b0380841680612a0b57612a0b61299f565b92169190910492915050565b6020808252601f908201527f5265656e7472616e637947756172643a207265656e7472616e742063616c6c00604082015260600190565b6001600160a01b03929092168252602082015260400190565b600060208284031215612a7957600080fd5b81518015158114610ad657600080fd5b81835260006001600160fb1b03831115612aa257600080fd5b8260051b8083602087013760009401602001938452509192915050565b6040808252810184905260008560608301825b87811015612b02578235612ae5816123d2565b6001600160a01b0316825260209283019290910190600101612ad2565b508381036020850152612b16818688612a89565b98975050505050505050565b600060018060a01b038089168352808816602084015260a06040840152612b4d60a084018789612a89565b941660608301525060800152949350505050565b600082821015612b7357612b736128d9565b500390565b6020808252602b908201527f496e697469616c697a61626c653a20636f6e7472616374206973206e6f74206960408201526a6e697469616c697a696e6760a81b606082015260800190565b600060208284031215612bd557600080fd5b8151610ad6816123d256fea2646970667358221220ee5538a130d54b989a5f058ed321f050781ac93d328b4fdb93740f18f2425dc164736f6c634300080f0033",
  "devdoc": {
    "kind": "dev",
    "methods": {
      "owner()": {
        "details": "Returns the address of the current owner."
      },
      "renounceOwnership()": {
        "details": "Leaves the contract without owner. It will not be possible to call `onlyOwner` functions anymore. Can only be called by the current owner. NOTE: Renouncing ownership will leave the contract without an owner, thereby removing any functionality that is only available to the owner."
      },
      "supportsInterface(bytes4)": {
        "details": "See {IERC165-supportsInterface}."
      },
      "transferOwnership(address)": {
        "details": "Transfers ownership of the contract to a new account (`newOwner`). Can only be called by the current owner."
      }
    },
    "version": 1
  },
  "userdoc": {
    "kind": "user",
    "methods": {},
    "version": 1
  },
  "storageLayout": {
    "storage": [
      {
        "astId": 1101,
        "contract": "contracts/streams/ERC721/presets/ERC721EqualEmissionStream.sol:ERC721EqualEmissionStream",
        "label": "_initialized",
        "offset": 0,
        "slot": "0",
        "type": "t_uint8"
      },
      {
        "astId": 1104,
        "contract": "contracts/streams/ERC721/presets/ERC721EqualEmissionStream.sol:ERC721EqualEmissionStream",
        "label": "_initializing",
        "offset": 1,
        "slot": "0",
        "type": "t_bool"
      },
      {
        "astId": 937,
        "contract": "contracts/streams/ERC721/presets/ERC721EqualEmissionStream.sol:ERC721EqualEmissionStream",
        "label": "_owner",
        "offset": 2,
        "slot": "0",
        "type": "t_address"
      },
      {
        "astId": 5404,
        "contract": "contracts/streams/ERC721/presets/ERC721EqualEmissionStream.sol:ERC721EqualEmissionStream",
        "label": "_supportedInterfaces",
        "offset": 0,
        "slot": "1",
        "type": "t_mapping(t_bytes4,t_bool)"
      },
      {
        "astId": 1364,
        "contract": "contracts/streams/ERC721/presets/ERC721EqualEmissionStream.sol:ERC721EqualEmissionStream",
        "label": "_status",
        "offset": 0,
        "slot": "2",
        "type": "t_uint256"
      },
      {
        "astId": 16201,
        "contract": "contracts/streams/ERC721/presets/ERC721EqualEmissionStream.sol:ERC721EqualEmissionStream",
        "label": "ticketToken",
        "offset": 0,
        "slot": "3",
        "type": "t_address"
      },
      {
        "astId": 16203,
        "contract": "contracts/streams/ERC721/presets/ERC721EqualEmissionStream.sol:ERC721EqualEmissionStream",
        "label": "lockedUntilTimestamp",
        "offset": 20,
        "slot": "3",
        "type": "t_uint64"
      },
      {
        "astId": 16210,
        "contract": "contracts/streams/ERC721/presets/ERC721EqualEmissionStream.sol:ERC721EqualEmissionStream",
        "label": "entitlements",
        "offset": 0,
        "slot": "4",
        "type": "t_mapping(t_uint256,t_mapping(t_address,t_struct(Entitlement)16199_storage))"
      },
      {
        "astId": 16214,
        "contract": "contracts/streams/ERC721/presets/ERC721EqualEmissionStream.sol:ERC721EqualEmissionStream",
        "label": "_streamTotalClaimed",
        "offset": 0,
        "slot": "5",
        "type": "t_mapping(t_address,t_uint256)"
      },
      {
        "astId": 17215,
        "contract": "contracts/streams/ERC721/presets/ERC721EqualEmissionStream.sol:ERC721EqualEmissionStream",
        "label": "emissionRate",
        "offset": 0,
        "slot": "6",
        "type": "t_uint256"
      },
      {
        "astId": 17217,
        "contract": "contracts/streams/ERC721/presets/ERC721EqualEmissionStream.sol:ERC721EqualEmissionStream",
        "label": "emissionTimeUnit",
        "offset": 0,
        "slot": "7",
        "type": "t_uint64"
      },
      {
        "astId": 17219,
        "contract": "contracts/streams/ERC721/presets/ERC721EqualEmissionStream.sol:ERC721EqualEmissionStream",
        "label": "emissionStart",
        "offset": 8,
        "slot": "7",
        "type": "t_uint64"
      },
      {
        "astId": 17221,
        "contract": "contracts/streams/ERC721/presets/ERC721EqualEmissionStream.sol:ERC721EqualEmissionStream",
        "label": "emissionEnd",
        "offset": 16,
        "slot": "7",
        "type": "t_uint64"
      },
      {
        "astId": 17532,
        "contract": "contracts/streams/ERC721/presets/ERC721EqualEmissionStream.sol:ERC721EqualEmissionStream",
        "label": "totalTickets",
        "offset": 0,
        "slot": "8",
        "type": "t_uint256"
      },
      {
        "astId": 17724,
        "contract": "contracts/streams/ERC721/presets/ERC721EqualEmissionStream.sol:ERC721EqualEmissionStream",
        "label": "claimLockedUntil",
        "offset": 0,
        "slot": "9",
        "type": "t_uint64"
      },
      {
        "astId": 14679,
        "contract": "contracts/streams/ERC721/presets/ERC721EqualEmissionStream.sol:ERC721EqualEmissionStream",
        "label": "withdrawRecipient",
        "offset": 8,
        "slot": "9",
        "type": "t_address"
      },
      {
        "astId": 14681,
        "contract": "contracts/streams/ERC721/presets/ERC721EqualEmissionStream.sol:ERC721EqualEmissionStream",
        "label": "withdrawRecipientLocked",
        "offset": 28,
        "slot": "9",
        "type": "t_bool"
      },
      {
        "astId": 14683,
        "contract": "contracts/streams/ERC721/presets/ERC721EqualEmissionStream.sol:ERC721EqualEmissionStream",
        "label": "withdrawPowerRevoked",
        "offset": 29,
        "slot": "9",
        "type": "t_bool"
      },
      {
        "astId": 14686,
        "contract": "contracts/streams/ERC721/presets/ERC721EqualEmissionStream.sol:ERC721EqualEmissionStream",
        "label": "withdrawMode",
        "offset": 30,
        "slot": "9",
        "type": "t_enum(WithdrawMode)14623"
      },
      {
        "astId": 14688,
        "contract": "contracts/streams/ERC721/presets/ERC721EqualEmissionStream.sol:ERC721EqualEmissionStream",
        "label": "withdrawModeLocked",
        "offset": 31,
        "slot": "9",
        "type": "t_bool"
      }
    ],
    "types": {
      "t_address": {
        "encoding": "inplace",
        "label": "address",
        "numberOfBytes": "20"
      },
      "t_bool": {
        "encoding": "inplace",
        "label": "bool",
        "numberOfBytes": "1"
      },
      "t_bytes4": {
        "encoding": "inplace",
        "label": "bytes4",
        "numberOfBytes": "4"
      },
      "t_enum(WithdrawMode)14623": {
        "encoding": "inplace",
        "label": "enum WithdrawMode",
        "numberOfBytes": "1"
      },
      "t_mapping(t_address,t_struct(Entitlement)16199_storage)": {
        "encoding": "mapping",
        "key": "t_address",
        "label": "mapping(address => struct ERC721MultiTokenStream.Entitlement)",
        "numberOfBytes": "32",
        "value": "t_struct(Entitlement)16199_storage"
      },
      "t_mapping(t_address,t_uint256)": {
        "encoding": "mapping",
        "key": "t_address",
        "label": "mapping(address => uint256)",
        "numberOfBytes": "32",
        "value": "t_uint256"
      },
      "t_mapping(t_bytes4,t_bool)": {
        "encoding": "mapping",
        "key": "t_bytes4",
        "label": "mapping(bytes4 => bool)",
        "numberOfBytes": "32",
        "value": "t_bool"
      },
      "t_mapping(t_uint256,t_mapping(t_address,t_struct(Entitlement)16199_storage))": {
        "encoding": "mapping",
        "key": "t_uint256",
        "label": "mapping(uint256 => mapping(address => struct ERC721MultiTokenStream.Entitlement))",
        "numberOfBytes": "32",
        "value": "t_mapping(t_address,t_struct(Entitlement)16199_storage)"
      },
      "t_struct(Entitlement)16199_storage": {
        "encoding": "inplace",
        "label": "struct ERC721MultiTokenStream.Entitlement",
        "members": [
          {
            "astId": 16196,
            "contract": "contracts/streams/ERC721/presets/ERC721EqualEmissionStream.sol:ERC721EqualEmissionStream",
            "label": "totalClaimed",
            "offset": 0,
            "slot": "0",
            "type": "t_uint256"
          },
          {
            "astId": 16198,
            "contract": "contracts/streams/ERC721/presets/ERC721EqualEmissionStream.sol:ERC721EqualEmissionStream",
            "label": "lastClaimedAt",
            "offset": 0,
            "slot": "1",
            "type": "t_uint256"
          }
        ],
        "numberOfBytes": "64"
      },
      "t_uint256": {
        "encoding": "inplace",
        "label": "uint256",
        "numberOfBytes": "32"
      },
      "t_uint64": {
        "encoding": "inplace",
        "label": "uint64",
        "numberOfBytes": "8"
      },
      "t_uint8": {
        "encoding": "inplace",
        "label": "uint8",
        "numberOfBytes": "1"
      }
    }
  }
}