{
  "address": "0xe91387C652e5eFf2e3dE03904545A11aA6CF4904",
  "abi": [
    {
      "anonymous": false,
      "inputs": [
        {
          "indexed": true,
          "internalType": "address",
          "name": "previousOwner",
          "type": "address"
        },
        {
          "indexed": true,
          "internalType": "address",
          "name": "newOwner",
          "type": "address"
        }
      ],
      "name": "OwnershipTransferred",
      "type": "event"
    },
    {
      "inputs": [
        {
          "internalType": "uint256",
          "name": "id",
          "type": "uint256"
        }
      ],
      "name": "lockByOwner",
      "outputs": [],
      "stateMutability": "nonpayable",
      "type": "function"
    },
    {
      "inputs": [
        {
          "internalType": "uint256[]",
          "name": "ids",
          "type": "uint256[]"
        }
      ],
      "name": "lockByOwner",
      "outputs": [],
      "stateMutability": "nonpayable",
      "type": "function"
    }
  ],
  "transactionHash": "0x86dff8264fcf2138c2ac11d56c8339bb61a852969d62937a368e10b3c98409b0",
  "args": [],
  "numDeployments": 1,
  "solcInputHash": "49d1f356714b17d19c728df447e00986",
  "bytecode": "0x608060405234801561001057600080fd5b5061039e806100206000396000f3fe608060405234801561001057600080fd5b50600436106100365760003560e01c8063718101161461003b578063e923a2a214610050575b600080fd5b61004e61004936600461021e565b610063565b005b61004e61005e366004610266565b61015c565b7fc0ea367cb0174dd5521cd2372c76f8c13e6c1f832c71f1d6e0cbc185c9cc8ed45473ffffffffffffffffffffffffffffffffffffffff1633146100ee5760405162461bcd60e51b815260206004820152601d60248201527f4f776e61626c653a2073656e646572206d757374206265206f776e657200000060448201526064015b60405180910390fd5b6040517f856e31c100000000000000000000000000000000000000000000000000000000815260048101829052309063856e31c1906024015b600060405180830381600087803b15801561014157600080fd5b505af1158015610155573d6000803e3d6000fd5b5050505050565b7fc0ea367cb0174dd5521cd2372c76f8c13e6c1f832c71f1d6e0cbc185c9cc8ed45473ffffffffffffffffffffffffffffffffffffffff1633146101e25760405162461bcd60e51b815260206004820152601d60248201527f4f776e61626c653a2073656e646572206d757374206265206f776e657200000060448201526064016100e5565b6040517ff9497f34000000000000000000000000000000000000000000000000000000008152309063f9497f3490610127908490600401610324565b60006020828403121561023057600080fd5b5035919050565b7f4e487b7100000000000000000000000000000000000000000000000000000000600052604160045260246000fd5b6000602080838503121561027957600080fd5b823567ffffffffffffffff8082111561029157600080fd5b818501915085601f8301126102a557600080fd5b8135818111156102b7576102b7610237565b8060051b604051601f19603f830116810181811085821117156102dc576102dc610237565b6040529182528482019250838101850191888311156102fa57600080fd5b938501935b82851015610318578435845293850193928501926102ff565b98975050505050505050565b6020808252825182820181905260009190848201906040850190845b8181101561035c57835183529284019291840191600101610340565b5090969550505050505056fea26469706673582212202b5638cc5c7e76b5999f2c68397629d296d080a85dbf59c5b74554d1a6d3ec2b64736f6c634300080f0033",
  "devdoc": {
    "custom:category": "NFTs",
    "custom:provides-interfaces": "IERC721LockByOwner",
    "custom:required-dependencies": "IERC721Lockable",
    "custom:type": "eip-2535-facet",
    "kind": "dev",
    "methods": {},
    "title": "ERC721 - Lock as Owner",
    "version": 1
  },
  "userdoc": {
    "kind": "user",
    "methods": {},
    "notice": "Allow locking tokens as the contract owner.",
    "version": 1
  },
  "storageLayout": {
    "storage": [],
    "types": null
  }
}