{
  "address": "0x9d938a88094296ff207966671bBCAF14Bf28286f",
  "abi": [
    {
      "inputs": [
        {
          "components": [
            {
              "internalType": "address",
              "name": "ticketToken",
              "type": "address"
            },
            {
              "internalType": "uint64",
              "name": "lockedUntilTimestamp",
              "type": "uint64"
            },
            {
              "internalType": "uint64",
              "name": "minStakingDuration",
              "type": "uint64"
            },
            {
              "internalType": "uint64",
              "name": "maxStakingTotalDurations",
              "type": "uint64"
            },
            {
              "internalType": "uint256",
              "name": "emissionRate",
              "type": "uint256"
            },
            {
              "internalType": "uint64",
              "name": "emissionTimeUnit",
              "type": "uint64"
            },
            {
              "internalType": "uint64",
              "name": "emissionStart",
              "type": "uint64"
            },
            {
              "internalType": "uint64",
              "name": "emissionEnd",
              "type": "uint64"
            },
            {
              "internalType": "uint256",
              "name": "totalTickets",
              "type": "uint256"
            },
            {
              "internalType": "uint64",
              "name": "claimLockedUntil",
              "type": "uint64"
            }
          ],
          "internalType": "struct ERC721LockedStakingEmissionStream.Config",
          "name": "config",
          "type": "tuple"
        }
      ],
      "stateMutability": "nonpayable",
      "type": "constructor"
    },
    {
      "anonymous": false,
      "inputs": [
        {
          "indexed": false,
          "internalType": "address",
          "name": "operator",
          "type": "address"
        },
        {
          "indexed": false,
          "internalType": "address",
          "name": "beneficiary",
          "type": "address"
        },
        {
          "indexed": false,
          "internalType": "uint256",
          "name": "ticketTokenId",
          "type": "uint256"
        },
        {
          "indexed": false,
          "internalType": "address",
          "name": "claimToken",
          "type": "address"
        },
        {
          "indexed": false,
          "internalType": "uint256",
          "name": "releasedAmount",
          "type": "uint256"
        }
      ],
      "name": "Claim",
      "type": "event"
    },
    {
      "anonymous": false,
      "inputs": [
        {
          "indexed": false,
          "internalType": "address",
          "name": "operator",
          "type": "address"
        },
        {
          "indexed": false,
          "internalType": "address",
          "name": "beneficiary",
          "type": "address"
        },
        {
          "indexed": false,
          "internalType": "uint256[]",
          "name": "ticketTokenIds",
          "type": "uint256[]"
        },
        {
          "indexed": false,
          "internalType": "address",
          "name": "claimToken",
          "type": "address"
        },
        {
          "indexed": false,
          "internalType": "uint256",
          "name": "releasedAmount",
          "type": "uint256"
        }
      ],
      "name": "ClaimMany",
      "type": "event"
    },
    {
      "anonymous": false,
      "inputs": [
        {
          "indexed": false,
          "internalType": "uint8",
          "name": "version",
          "type": "uint8"
        }
      ],
      "name": "Initialized",
      "type": "event"
    },
    {
      "anonymous": false,
      "inputs": [
        {
          "indexed": true,
          "internalType": "address",
          "name": "previousOwner",
          "type": "address"
        },
        {
          "indexed": true,
          "internalType": "address",
          "name": "newOwner",
          "type": "address"
        }
      ],
      "name": "OwnershipTransferred",
      "type": "event"
    },
    {
      "anonymous": false,
      "inputs": [],
      "name": "WithdrawPowerRevoked",
      "type": "event"
    },
    {
      "anonymous": false,
      "inputs": [
        {
          "indexed": false,
          "internalType": "address[]",
          "name": "claimTokens",
          "type": "address[]"
        },
        {
          "indexed": false,
          "internalType": "uint256[]",
          "name": "amounts",
          "type": "uint256[]"
        }
      ],
      "name": "Withdrawn",
      "type": "event"
    },
    {
      "inputs": [
        {
          "internalType": "uint256",
          "name": "ticketTokenId",
          "type": "uint256"
        }
      ],
      "name": "claim",
      "outputs": [],
      "stateMutability": "nonpayable",
      "type": "function"
    },
    {
      "inputs": [
        {
          "internalType": "uint256[]",
          "name": "ticketTokenIds",
          "type": "uint256[]"
        }
      ],
      "name": "claim",
      "outputs": [],
      "stateMutability": "nonpayable",
      "type": "function"
    },
    {
      "inputs": [
        {
          "internalType": "uint256",
          "name": "ticketTokenId",
          "type": "uint256"
        },
        {
          "internalType": "address",
          "name": "claimToken",
          "type": "address"
        }
      ],
      "name": "claim",
      "outputs": [],
      "stateMutability": "nonpayable",
      "type": "function"
    },
    {
      "inputs": [
        {
          "internalType": "uint256[]",
          "name": "ticketTokenIds",
          "type": "uint256[]"
        },
        {
          "internalType": "address",
          "name": "claimToken",
          "type": "address"
        },
        {
          "internalType": "address",
          "name": "beneficiary",
          "type": "address"
        }
      ],
      "name": "claim",
      "outputs": [],
      "stateMutability": "nonpayable",
      "type": "function"
    },
    {
      "inputs": [],
      "name": "claimLockedUntil",
      "outputs": [
        {
          "internalType": "uint64",
          "name": "",
          "type": "uint64"
        }
      ],
      "stateMutability": "view",
      "type": "function"
    },
    {
      "inputs": [
        {
          "internalType": "uint64",
          "name": "calcUntil",
          "type": "uint64"
        }
      ],
      "name": "emissionAmountUntil",
      "outputs": [
        {
          "internalType": "uint256",
          "name": "",
          "type": "uint256"
        }
      ],
      "stateMutability": "view",
      "type": "function"
    },
    {
      "inputs": [],
      "name": "emissionEnd",
      "outputs": [
        {
          "internalType": "uint64",
          "name": "",
          "type": "uint64"
        }
      ],
      "stateMutability": "view",
      "type": "function"
    },
    {
      "inputs": [],
      "name": "emissionRate",
      "outputs": [
        {
          "internalType": "uint256",
          "name": "",
          "type": "uint256"
        }
      ],
      "stateMutability": "view",
      "type": "function"
    },
    {
      "inputs": [],
      "name": "emissionStart",
      "outputs": [
        {
          "internalType": "uint64",
          "name": "",
          "type": "uint64"
        }
      ],
      "stateMutability": "view",
      "type": "function"
    },
    {
      "inputs": [],
      "name": "emissionTimeUnit",
      "outputs": [
        {
          "internalType": "uint64",
          "name": "",
          "type": "uint64"
        }
      ],
      "stateMutability": "view",
      "type": "function"
    },
    {
      "inputs": [
        {
          "internalType": "uint256",
          "name": "",
          "type": "uint256"
        },
        {
          "internalType": "address",
          "name": "",
          "type": "address"
        }
      ],
      "name": "entitlements",
      "outputs": [
        {
          "internalType": "uint256",
          "name": "totalClaimed",
          "type": "uint256"
        },
        {
          "internalType": "uint256",
          "name": "lastClaimedAt",
          "type": "uint256"
        }
      ],
      "stateMutability": "view",
      "type": "function"
    },
    {
      "inputs": [],
      "name": "hasERC721EmissionReleaseExtension",
      "outputs": [
        {
          "internalType": "bool",
          "name": "",
          "type": "bool"
        }
      ],
      "stateMutability": "pure",
      "type": "function"
    },
    {
      "inputs": [],
      "name": "hasERC721EqualSplitExtension",
      "outputs": [
        {
          "internalType": "bool",
          "name": "",
          "type": "bool"
        }
      ],
      "stateMutability": "pure",
      "type": "function"
    },
    {
      "inputs": [],
      "name": "hasERC721LockableClaimExtension",
      "outputs": [
        {
          "internalType": "bool",
          "name": "",
          "type": "bool"
        }
      ],
      "stateMutability": "pure",
      "type": "function"
    },
    {
      "inputs": [],
      "name": "hasERC721LockedStakingExtension",
      "outputs": [
        {
          "internalType": "bool",
          "name": "",
          "type": "bool"
        }
      ],
      "stateMutability": "pure",
      "type": "function"
    },
    {
      "inputs": [],
      "name": "hasERC721StakingExtension",
      "outputs": [
        {
          "internalType": "bool",
          "name": "",
          "type": "bool"
        }
      ],
      "stateMutability": "pure",
      "type": "function"
    },
    {
      "inputs": [
        {
          "components": [
            {
              "internalType": "address",
              "name": "ticketToken",
              "type": "address"
            },
            {
              "internalType": "uint64",
              "name": "lockedUntilTimestamp",
              "type": "uint64"
            },
            {
              "internalType": "uint64",
              "name": "minStakingDuration",
              "type": "uint64"
            },
            {
              "internalType": "uint64",
              "name": "maxStakingTotalDurations",
              "type": "uint64"
            },
            {
              "internalType": "uint256",
              "name": "emissionRate",
              "type": "uint256"
            },
            {
              "internalType": "uint64",
              "name": "emissionTimeUnit",
              "type": "uint64"
            },
            {
              "internalType": "uint64",
              "name": "emissionStart",
              "type": "uint64"
            },
            {
              "internalType": "uint64",
              "name": "emissionEnd",
              "type": "uint64"
            },
            {
              "internalType": "uint256",
              "name": "totalTickets",
              "type": "uint256"
            },
            {
              "internalType": "uint64",
              "name": "claimLockedUntil",
              "type": "uint64"
            }
          ],
          "internalType": "struct ERC721LockedStakingEmissionStream.Config",
          "name": "config",
          "type": "tuple"
        },
        {
          "internalType": "address",
          "name": "deployer",
          "type": "address"
        }
      ],
      "name": "initialize",
      "outputs": [],
      "stateMutability": "nonpayable",
      "type": "function"
    },
    {
      "inputs": [
        {
          "internalType": "uint256",
          "name": "",
          "type": "uint256"
        }
      ],
      "name": "lastStakingTime",
      "outputs": [
        {
          "internalType": "uint64",
          "name": "",
          "type": "uint64"
        }
      ],
      "stateMutability": "view",
      "type": "function"
    },
    {
      "inputs": [
        {
          "internalType": "uint64",
          "name": "newValue",
          "type": "uint64"
        }
      ],
      "name": "lockUntil",
      "outputs": [],
      "stateMutability": "nonpayable",
      "type": "function"
    },
    {
      "inputs": [],
      "name": "lockWithdrawMode",
      "outputs": [],
      "stateMutability": "nonpayable",
      "type": "function"
    },
    {
      "inputs": [],
      "name": "lockWithdrawRecipient",
      "outputs": [],
      "stateMutability": "nonpayable",
      "type": "function"
    },
    {
      "inputs": [],
      "name": "lockedUntilTimestamp",
      "outputs": [
        {
          "internalType": "uint64",
          "name": "",
          "type": "uint64"
        }
      ],
      "stateMutability": "view",
      "type": "function"
    },
    {
      "inputs": [],
      "name": "maxStakingTotalDurations",
      "outputs": [
        {
          "internalType": "uint64",
          "name": "",
          "type": "uint64"
        }
      ],
      "stateMutability": "view",
      "type": "function"
    },
    {
      "inputs": [],
      "name": "minStakingDuration",
      "outputs": [
        {
          "internalType": "uint64",
          "name": "",
          "type": "uint64"
        }
      ],
      "stateMutability": "view",
      "type": "function"
    },
    {
      "inputs": [],
      "name": "name",
      "outputs": [
        {
          "internalType": "string",
          "name": "",
          "type": "string"
        }
      ],
      "stateMutability": "view",
      "type": "function"
    },
    {
      "inputs": [
        {
          "internalType": "address",
          "name": "",
          "type": "address"
        },
        {
          "internalType": "address",
          "name": "",
          "type": "address"
        },
        {
          "internalType": "uint256",
          "name": "",
          "type": "uint256"
        },
        {
          "internalType": "bytes",
          "name": "",
          "type": "bytes"
        }
      ],
      "name": "onERC721Received",
      "outputs": [
        {
          "internalType": "bytes4",
          "name": "",
          "type": "bytes4"
        }
      ],
      "stateMutability": "nonpayable",
      "type": "function"
    },
    {
      "inputs": [],
      "name": "owner",
      "outputs": [
        {
          "internalType": "address",
          "name": "",
          "type": "address"
        }
      ],
      "stateMutability": "view",
      "type": "function"
    },
    {
      "inputs": [
        {
          "internalType": "uint256[]",
          "name": "tokenIds",
          "type": "uint256[]"
        }
      ],
      "name": "rateByToken",
      "outputs": [
        {
          "internalType": "uint256",
          "name": "",
          "type": "uint256"
        }
      ],
      "stateMutability": "view",
      "type": "function"
    },
    {
      "inputs": [
        {
          "internalType": "uint64",
          "name": "calcUntil",
          "type": "uint64"
        }
      ],
      "name": "releasedAmountUntil",
      "outputs": [
        {
          "internalType": "uint256",
          "name": "",
          "type": "uint256"
        }
      ],
      "stateMutability": "view",
      "type": "function"
    },
    {
      "inputs": [],
      "name": "renounceOwnership",
      "outputs": [],
      "stateMutability": "nonpayable",
      "type": "function"
    },
    {
      "inputs": [],
      "name": "revokeWithdrawPower",
      "outputs": [],
      "stateMutability": "nonpayable",
      "type": "function"
    },
    {
      "inputs": [
        {
          "internalType": "uint256[]",
          "name": "ticketTokenIds",
          "type": "uint256[]"
        }
      ],
      "name": "rewardAmountByToken",
      "outputs": [
        {
          "internalType": "uint256",
          "name": "total",
          "type": "uint256"
        }
      ],
      "stateMutability": "view",
      "type": "function"
    },
    {
      "inputs": [
        {
          "internalType": "uint256",
          "name": "ticketTokenId",
          "type": "uint256"
        }
      ],
      "name": "rewardAmountByToken",
      "outputs": [
        {
          "internalType": "uint256",
          "name": "",
          "type": "uint256"
        }
      ],
      "stateMutability": "view",
      "type": "function"
    },
    {
      "inputs": [
        {
          "internalType": "uint256",
          "name": "",
          "type": "uint256"
        }
      ],
      "name": "savedStakedDurations",
      "outputs": [
        {
          "internalType": "uint64",
          "name": "",
          "type": "uint64"
        }
      ],
      "stateMutability": "view",
      "type": "function"
    },
    {
      "inputs": [
        {
          "internalType": "uint64",
          "name": "newValue",
          "type": "uint64"
        }
      ],
      "name": "setClaimLockedUntil",
      "outputs": [],
      "stateMutability": "nonpayable",
      "type": "function"
    },
    {
      "inputs": [
        {
          "internalType": "uint64",
          "name": "newValue",
          "type": "uint64"
        }
      ],
      "name": "setEmissionEnd",
      "outputs": [],
      "stateMutability": "nonpayable",
      "type": "function"
    },
    {
      "inputs": [
        {
          "internalType": "uint256",
          "name": "newValue",
          "type": "uint256"
        }
      ],
      "name": "setEmissionRate",
      "outputs": [],
      "stateMutability": "nonpayable",
      "type": "function"
    },
    {
      "inputs": [
        {
          "internalType": "uint64",
          "name": "newValue",
          "type": "uint64"
        }
      ],
      "name": "setEmissionStart",
      "outputs": [],
      "stateMutability": "nonpayable",
      "type": "function"
    },
    {
      "inputs": [
        {
          "internalType": "uint64",
          "name": "newValue",
          "type": "uint64"
        }
      ],
      "name": "setEmissionTimeUnit",
      "outputs": [],
      "stateMutability": "nonpayable",
      "type": "function"
    },
    {
      "inputs": [
        {
          "internalType": "uint64",
          "name": "newValue",
          "type": "uint64"
        }
      ],
      "name": "setMaxStakingTotalDurations",
      "outputs": [],
      "stateMutability": "nonpayable",
      "type": "function"
    },
    {
      "inputs": [
        {
          "internalType": "uint64",
          "name": "newValue",
          "type": "uint64"
        }
      ],
      "name": "setMinStakingDuration",
      "outputs": [],
      "stateMutability": "nonpayable",
      "type": "function"
    },
    {
      "inputs": [
        {
          "internalType": "uint256",
          "name": "newValue",
          "type": "uint256"
        }
      ],
      "name": "setTotalTickets",
      "outputs": [],
      "stateMutability": "nonpayable",
      "type": "function"
    },
    {
      "inputs": [
        {
          "internalType": "enum WithdrawMode",
          "name": "_withdrawMode",
          "type": "uint8"
        }
      ],
      "name": "setWithdrawMode",
      "outputs": [],
      "stateMutability": "nonpayable",
      "type": "function"
    },
    {
      "inputs": [
        {
          "internalType": "address",
          "name": "_withdrawRecipient",
          "type": "address"
        }
      ],
      "name": "setWithdrawRecipient",
      "outputs": [],
      "stateMutability": "nonpayable",
      "type": "function"
    },
    {
      "inputs": [
        {
          "internalType": "uint256[]",
          "name": "tokenIds",
          "type": "uint256[]"
        }
      ],
      "name": "stake",
      "outputs": [],
      "stateMutability": "nonpayable",
      "type": "function"
    },
    {
      "inputs": [
        {
          "internalType": "uint256",
          "name": "tokenId",
          "type": "uint256"
        }
      ],
      "name": "stake",
      "outputs": [],
      "stateMutability": "nonpayable",
      "type": "function"
    },
    {
      "inputs": [
        {
          "internalType": "uint256[]",
          "name": "ticketTokenIds",
          "type": "uint256[]"
        },
        {
          "internalType": "address",
          "name": "claimToken",
          "type": "address"
        }
      ],
      "name": "streamClaimableAmount",
      "outputs": [
        {
          "internalType": "uint256",
          "name": "",
          "type": "uint256"
        }
      ],
      "stateMutability": "view",
      "type": "function"
    },
    {
      "inputs": [
        {
          "internalType": "uint256",
          "name": "ticketTokenId",
          "type": "uint256"
        }
      ],
      "name": "streamClaimableAmount",
      "outputs": [
        {
          "internalType": "uint256",
          "name": "",
          "type": "uint256"
        }
      ],
      "stateMutability": "view",
      "type": "function"
    },
    {
      "inputs": [
        {
          "internalType": "uint256",
          "name": "ticketTokenId",
          "type": "uint256"
        },
        {
          "internalType": "address",
          "name": "claimToken",
          "type": "address"
        }
      ],
      "name": "streamClaimableAmount",
      "outputs": [
        {
          "internalType": "uint256",
          "name": "",
          "type": "uint256"
        }
      ],
      "stateMutability": "view",
      "type": "function"
    },
    {
      "inputs": [
        {
          "internalType": "uint256[]",
          "name": "ticketTokenIds",
          "type": "uint256[]"
        },
        {
          "internalType": "address",
          "name": "claimToken",
          "type": "address"
        }
      ],
      "name": "streamTotalClaimed",
      "outputs": [
        {
          "internalType": "uint256",
          "name": "",
          "type": "uint256"
        }
      ],
      "stateMutability": "view",
      "type": "function"
    },
    {
      "inputs": [],
      "name": "streamTotalClaimed",
      "outputs": [
        {
          "internalType": "uint256",
          "name": "",
          "type": "uint256"
        }
      ],
      "stateMutability": "view",
      "type": "function"
    },
    {
      "inputs": [
        {
          "internalType": "uint256[]",
          "name": "ticketTokenIds",
          "type": "uint256[]"
        }
      ],
      "name": "streamTotalClaimed",
      "outputs": [
        {
          "internalType": "uint256",
          "name": "",
          "type": "uint256"
        }
      ],
      "stateMutability": "view",
      "type": "function"
    },
    {
      "inputs": [
        {
          "internalType": "uint256",
          "name": "ticketTokenId",
          "type": "uint256"
        },
        {
          "internalType": "address",
          "name": "claimToken",
          "type": "address"
        }
      ],
      "name": "streamTotalClaimed",
      "outputs": [
        {
          "internalType": "uint256",
          "name": "",
          "type": "uint256"
        }
      ],
      "stateMutability": "view",
      "type": "function"
    },
    {
      "inputs": [
        {
          "internalType": "address",
          "name": "claimToken",
          "type": "address"
        }
      ],
      "name": "streamTotalClaimed",
      "outputs": [
        {
          "internalType": "uint256",
          "name": "",
          "type": "uint256"
        }
      ],
      "stateMutability": "view",
      "type": "function"
    },
    {
      "inputs": [
        {
          "internalType": "uint256",
          "name": "ticketTokenId",
          "type": "uint256"
        }
      ],
      "name": "streamTotalClaimed",
      "outputs": [
        {
          "internalType": "uint256",
          "name": "",
          "type": "uint256"
        }
      ],
      "stateMutability": "view",
      "type": "function"
    },
    {
      "inputs": [],
      "name": "streamTotalSupply",
      "outputs": [
        {
          "internalType": "uint256",
          "name": "",
          "type": "uint256"
        }
      ],
      "stateMutability": "view",
      "type": "function"
    },
    {
      "inputs": [
        {
          "internalType": "address",
          "name": "claimToken",
          "type": "address"
        }
      ],
      "name": "streamTotalSupply",
      "outputs": [
        {
          "internalType": "uint256",
          "name": "",
          "type": "uint256"
        }
      ],
      "stateMutability": "view",
      "type": "function"
    },
    {
      "inputs": [
        {
          "internalType": "bytes4",
          "name": "interfaceId",
          "type": "bytes4"
        }
      ],
      "name": "supportsInterface",
      "outputs": [
        {
          "internalType": "bool",
          "name": "",
          "type": "bool"
        }
      ],
      "stateMutability": "view",
      "type": "function"
    },
    {
      "inputs": [],
      "name": "ticketToken",
      "outputs": [
        {
          "internalType": "address",
          "name": "",
          "type": "address"
        }
      ],
      "stateMutability": "view",
      "type": "function"
    },
    {
      "inputs": [
        {
          "internalType": "uint256",
          "name": "ticketTokenId",
          "type": "uint256"
        }
      ],
      "name": "totalStakedDuration",
      "outputs": [
        {
          "internalType": "uint64",
          "name": "",
          "type": "uint64"
        }
      ],
      "stateMutability": "view",
      "type": "function"
    },
    {
      "inputs": [
        {
          "internalType": "uint256[]",
          "name": "ticketTokenIds",
          "type": "uint256[]"
        }
      ],
      "name": "totalStakedDuration",
      "outputs": [
        {
          "internalType": "uint64",
          "name": "",
          "type": "uint64"
        }
      ],
      "stateMutability": "view",
      "type": "function"
    },
    {
      "inputs": [],
      "name": "totalTickets",
      "outputs": [
        {
          "internalType": "uint256",
          "name": "",
          "type": "uint256"
        }
      ],
      "stateMutability": "view",
      "type": "function"
    },
    {
      "inputs": [
        {
          "internalType": "address",
          "name": "newOwner",
          "type": "address"
        }
      ],
      "name": "transferOwnership",
      "outputs": [],
      "stateMutability": "nonpayable",
      "type": "function"
    },
    {
      "inputs": [
        {
          "internalType": "uint256[]",
          "name": "ticketTokenIds",
          "type": "uint256[]"
        }
      ],
      "name": "unlockingTime",
      "outputs": [
        {
          "internalType": "uint256[]",
          "name": "",
          "type": "uint256[]"
        }
      ],
      "stateMutability": "view",
      "type": "function"
    },
    {
      "inputs": [
        {
          "internalType": "uint256",
          "name": "ticketTokenId",
          "type": "uint256"
        }
      ],
      "name": "unlockingTime",
      "outputs": [
        {
          "internalType": "uint256",
          "name": "",
          "type": "uint256"
        }
      ],
      "stateMutability": "view",
      "type": "function"
    },
    {
      "inputs": [
        {
          "internalType": "uint256",
          "name": "tokenId",
          "type": "uint256"
        }
      ],
      "name": "unstake",
      "outputs": [],
      "stateMutability": "nonpayable",
      "type": "function"
    },
    {
      "inputs": [
        {
          "internalType": "uint256[]",
          "name": "tokenIds",
          "type": "uint256[]"
        }
      ],
      "name": "unstake",
      "outputs": [],
      "stateMutability": "nonpayable",
      "type": "function"
    },
    {
      "inputs": [],
      "name": "version",
      "outputs": [
        {
          "internalType": "string",
          "name": "",
          "type": "string"
        }
      ],
      "stateMutability": "view",
      "type": "function"
    },
    {
      "inputs": [
        {
          "internalType": "address[]",
          "name": "claimTokens",
          "type": "address[]"
        },
        {
          "internalType": "uint256[]",
          "name": "amounts",
          "type": "uint256[]"
        }
      ],
      "name": "withdraw",
      "outputs": [],
      "stateMutability": "nonpayable",
      "type": "function"
    },
    {
      "inputs": [],
      "name": "withdrawMode",
      "outputs": [
        {
          "internalType": "enum WithdrawMode",
          "name": "",
          "type": "uint8"
        }
      ],
      "stateMutability": "view",
      "type": "function"
    },
    {
      "inputs": [],
      "name": "withdrawModeLocked",
      "outputs": [
        {
          "internalType": "bool",
          "name": "",
          "type": "bool"
        }
      ],
      "stateMutability": "view",
      "type": "function"
    },
    {
      "inputs": [],
      "name": "withdrawPowerRevoked",
      "outputs": [
        {
          "internalType": "bool",
          "name": "",
          "type": "bool"
        }
      ],
      "stateMutability": "view",
      "type": "function"
    },
    {
      "inputs": [],
      "name": "withdrawRecipient",
      "outputs": [
        {
          "internalType": "address",
          "name": "",
          "type": "address"
        }
      ],
      "stateMutability": "view",
      "type": "function"
    },
    {
      "inputs": [],
      "name": "withdrawRecipientLocked",
      "outputs": [
        {
          "internalType": "bool",
          "name": "",
          "type": "bool"
        }
      ],
      "stateMutability": "view",
      "type": "function"
    },
    {
      "stateMutability": "payable",
      "type": "receive"
    }
  ],
  "transactionHash": "0x328e487697697e8a1972a7f41203844bc862133b36f93d7735b64c3680e5e661",
  "args": [
    {
      "ticketToken": "0x0000000000000000000000000000000000000000",
      "lockedUntilTimestamp": 0,
      "minStakingDuration": 0,
      "maxStakingTotalDurations": 0,
      "emissionRate": 0,
      "emissionTimeUnit": 0,
      "emissionStart": 0,
      "emissionEnd": 0,
      "totalTickets": 0,
      "claimLockedUntil": 0
    }
  ],
  "numDeployments": 7,
  "solcInputHash": "609f5d93770564b2f6d7785cde7b8867",
  "bytecode": "0x60806040523480156200001157600080fd5b50604051620044c1380380620044c1833981016040819052620000349162000798565b6200003f3362000057565b6001600255620000508133620000b2565b50620008c6565b600080546001600160a01b038381166201000081810262010000600160b01b0319851617855560405193049190911692909183917f8be0079c531659141344cd1fd0a4f28419497f9722a3daafe3b4186f6b6457e091a35050565b600054610100900460ff1615808015620000d35750600054600160ff909116105b80620001035750620000f0306200026760201b620023071760201c565b15801562000103575060005460ff166001145b6200016c5760405162461bcd60e51b815260206004820152602e60248201527f496e697469616c697a61626c653a20636f6e747261637420697320616c72656160448201526d191e481a5b9a5d1a585b1a5e995960921b60648201526084015b60405180910390fd5b6000805460ff19166001179055801562000190576000805461ff0019166101001790555b6200019b8262000057565b620001a882600062000276565b82516020840151620001bb9190620002b0565b620001d583604001518460600151620002e660201b60201c565b620001f983608001518460a001518560c001518660e001516200032660201b60201c565b6101008301516200020a9062000364565b6101208301516200021b906200039c565b801562000262576000805461ff0019169055604051600181527f7f26b83ff96e1f2b6a682f133852f6798a09c465da95921460cefb38474024989060200160405180910390a15b505050565b6001600160a01b03163b151590565b600054610100900460ff16620002a05760405162461bcd60e51b8152600401620001639062000865565b620002ac8282620003d1565b5050565b600054610100900460ff16620002da5760405162461bcd60e51b8152600401620001639062000865565b620002ac828262000478565b600054610100900460ff16620003105760405162461bcd60e51b8152600401620001639062000865565b6200031a620004e2565b620002ac828262000520565b600054610100900460ff16620003505760405162461bcd60e51b8152600401620001639062000865565b6200035e8484848462000589565b50505050565b600054610100900460ff166200038e5760405162461bcd60e51b8152600401620001639062000865565b620003998162000614565b50565b600054610100900460ff16620003c65760405162461bcd60e51b8152600401620001639062000865565b620003998162000655565b600054610100900460ff16620003fb5760405162461bcd60e51b8152600401620001639062000865565b6200040d63ac2ba33360e01b620006a7565b600c8054600160401b600160e01b03198116680100000000000000006001600160a01b038616029081178355839291600160401b62ff000160e01b03191660ff60f01b1990911617600160f01b8360038111156200046f576200046f620008b0565b02179055505050565b600054610100900460ff16620004a25760405162461bcd60e51b8152600401620001639062000865565b600380546001600160401b038316600160a01b026001600160e01b03199091166001600160a01b03851617179055620002ac631ba050e960e21b620006a7565b600054610100900460ff166200050c5760405162461bcd60e51b8152600401620001639062000865565b6200051e63d664280160e01b620006a7565b565b600054610100900460ff166200054a5760405162461bcd60e51b8152600401620001639062000865565b600980546001600160401b0383811668010000000000000000026001600160801b031990921690851617179055620002ac633a41ba5360e11b620006a7565b600054610100900460ff16620005b35760405162461bcd60e51b8152600401620001639062000865565b6006849055600780546001600160401b03838116600160801b02600160801b600160c01b031986831668010000000000000000026001600160801b03199094169288169290921792909217161790556200035e63c9f600a960e01b620006a7565b600054610100900460ff166200063e5760405162461bcd60e51b8152600401620001639062000865565b600881905562000399632d5305cb60e21b620006a7565b600054610100900460ff166200067f5760405162461bcd60e51b8152600401620001639062000865565b600c80546001600160401b0319166001600160401b038316179055620003996317b2ef4360e31b5b6001600160e01b03198082169003620007035760405162461bcd60e51b815260206004820152601c60248201527f4552433136353a20696e76616c696420696e7465726661636520696400000000604482015260640162000163565b6001600160e01b0319166000908152600160208190526040909120805460ff19169091179055565b60405161014081016001600160401b03811182821017156200075d57634e487b7160e01b600052604160045260246000fd5b60405290565b80516001600160a01b03811681146200077b57600080fd5b919050565b80516001600160401b03811681146200077b57600080fd5b60006101408284031215620007ac57600080fd5b620007b66200072b565b620007c18362000763565b8152620007d16020840162000780565b6020820152620007e46040840162000780565b6040820152620007f76060840162000780565b6060820152608083015160808201526200081460a0840162000780565b60a08201526200082760c0840162000780565b60c08201526200083a60e0840162000780565b60e082015261010083810151908201526101206200085a81850162000780565b908201529392505050565b6020808252602b908201527f496e697469616c697a61626c653a20636f6e7472616374206973206e6f74206960408201526a6e697469616c697a696e6760a81b606082015260800190565b634e487b7160e01b600052602160045260246000fd5b613beb80620008d66000396000f3fe6080604052600436106103755760003560e01c80638da5cb5b116101c9578063d0d6641d116100fe578063d0d6641d14610b67578063d1335b691461053b578063d4244f2414610b87578063d5ed4d5a14610bae578063d66428011461053b578063d97314f514610bce578063da82b22714610bee578063dcbe353f14610c03578063dd11247e14610c2a578063dda8820f1461053b578063ddd5e1b214610c40578063de6d6d9614610c60578063de76a67614610c80578063e449f34114610ca0578063f2fde38b14610cc0578063f389b6e414610ce0578063f4415ad614610d00578063f593dfc814610d38578063f66e38c214610d5857600080fd5b80638da5cb5b146109205780639199690b1461053b578063968d9b2c1461094257806396afc450146109625780639edfe83014610978578063a1bdb15e14610998578063a1cf6493146109b8578063a5549bc6146109fb578063a5b23be714610a1b578063a694fc3a14610a3b578063a86b21e814610a5b578063a8a67c8c14610a7b578063aaf2f99914610a9b578063ae890c0a14610abb578063af121f5414610adb578063c088184914610afc578063c0bb38ff14610b32578063c723955a14610b5257600080fd5b8063379607f5116102aa578063379607f5146106595780633a73f7d6146106795780633b3f12e2146106995780633d2dded5146106b957806349561cb9146106f65780634abb4c4914610717578063513da9481461074457806354fd4d501461076b57806357dc48c81461079a5780636057e0ec146107ee578063619496361461080f5780636ba4c1381461082f578063715018a61461084f57806378b094ca14610864578063790c0c73146108845780638368909c146108a4578063837fe140146108cb57806384fd5ae0146108e057806389c6b8151461090057600080fd5b80630191c0af1461038e57806301ffc9a7146103c157806306fdde03146103f157806308289dbe1461041357806308ae7e54146104615780630c805a44146104815780630fbf0a93146104b757806314427a96146104d7578063150b7a02146104f75780631bc51b261461053b5780631c725fdc1461054f57806325289bad1461056f5780632890d033146105965780632c0e1313146105ab5780632c233067146105cb5780632d00b587146105eb5780632e17de781461061957806333abcdbd1461063957600080fd5b36610389576000341161038757600080fd5b005b600080fd5b34801561039a57600080fd5b506103ae6103a9366004613298565b610d78565b6040519081526020015b60405180910390f35b3480156103cd57600080fd5b506103e16103dc3660046132ee565b610dce565b60405190151581526020016103b8565b3480156103fd57600080fd5b50610406610e0e565b6040516103b89190613318565b34801561041f57600080fd5b5061044961042e36600461336d565b600b602052600090815260409020546001600160401b031681565b6040516001600160401b0390911681526020016103b8565b34801561046d57600080fd5b50600954610449906001600160401b031681565b34801561048d57600080fd5b5061044961049c36600461336d565b600a602052600090815260409020546001600160401b031681565b3480156104c357600080fd5b506103876104d2366004613386565b610e2a565b3480156104e357600080fd5b50600c54610449906001600160401b031681565b34801561050357600080fd5b50610522610512366004613436565b630a85bd0160e11b949350505050565b6040516001600160e01b031990911681526020016103b8565b34801561054757600080fd5b5060016103e1565b34801561055b57600080fd5b5061038761056a366004613510565b610ea2565b34801561057b57600080fd5b5060035461044990600160a01b90046001600160401b031681565b3480156105a257600080fd5b506103ae610f2c565b3480156105b757600080fd5b506103876105c6366004613510565b610f3d565b3480156105d757600080fd5b506103876105e636600461352b565b610f99565b3480156105f757600080fd5b50600c5461060c90600160f01b900460ff1681565b6040516103b89190613562565b34801561062557600080fd5b5061038761063436600461336d565b610ff8565b34801561064557600080fd5b5061044961065436600461336d565b61102e565b34801561066557600080fd5b5061038761067436600461336d565b611123565b34801561068557600080fd5b506103ae610694366004613386565b611131565b3480156106a557600080fd5b506103ae6106b4366004613298565b611183565b3480156106c557600080fd5b506000805260056020527f05b8ccbb9d4d8fb16ea74ce3c29a41f1b461fbdaff4714a0d9a8eb05499746bc546103ae565b34801561070257600080fd5b50600c546103e190600160f81b900460ff1681565b34801561072357600080fd5b50610737610732366004613386565b611201565b6040516103b8919061358a565b34801561075057600080fd5b5060075461044990600160401b90046001600160401b031681565b34801561077757600080fd5b5061040660405180604001604052806003815260200162302e3160e81b81525081565b3480156107a657600080fd5b506107d96107b53660046135ce565b60046020908152600092835260408084209091529082529020805460019091015482565b604080519283526020830191909152016103b8565b3480156107fa57600080fd5b50600c546103e190600160e01b900460ff1681565b34801561081b57600080fd5b50600754610449906001600160401b031681565b34801561083b57600080fd5b5061038761084a366004613386565b6112ac565b34801561085b57600080fd5b506103876112bd565b34801561087057600080fd5b5061038761087f366004613510565b6112d1565b34801561089057600080fd5b506103ae61089f3660046135fe565b611337565b3480156108b057600080fd5b5060075461044990600160801b90046001600160401b031681565b3480156108d757600080fd5b506103876113fb565b3480156108ec57600080fd5b506103ae6108fb366004613386565b611442565b34801561090c57600080fd5b506103ae61091b366004613386565b6114d5565b34801561092c57600080fd5b506109356114ea565b6040516103b8919061361b565b34801561094e57600080fd5b506103ae61095d36600461336d565b6114ff565b34801561096e57600080fd5b506103ae60065481565b34801561098457600080fd5b506103ae610993366004613510565b61150c565b3480156109a457600080fd5b506103876109b336600461336d565b611551565b3480156109c457600080fd5b506103ae6109d33660046135ce565b60009182526004602090815260408084206001600160a01b0393909316845291905290205490565b348015610a0757600080fd5b50610387610a16366004613510565b611590565b348015610a2757600080fd5b506103ae610a3636600461336d565b6115ec565b348015610a4757600080fd5b50610387610a5636600461336d565b611632565b348015610a6757600080fd5b506103ae610a76366004613510565b611697565b348015610a8757600080fd5b50610387610a9636600461362f565b6116d3565b348015610aa757600080fd5b50610387610ab6366004613510565b611855565b348015610ac757600080fd5b50610387610ad636600461336d565b6118bb565b348015610ae757600080fd5b50600c546103e190600160e81b900460ff1681565b348015610b0857600080fd5b506103ae610b173660046135fe565b6001600160a01b031660009081526005602052604090205490565b348015610b3e57600080fd5b50610387610b4d3660046135fe565b6118fa565b348015610b5e57600080fd5b50610387611958565b348015610b7357600080fd5b506103ae610b8236600461336d565b6119b9565b348015610b9357600080fd5b5060095461044990600160401b90046001600160401b031681565b348015610bba57600080fd5b50600354610935906001600160a01b031681565b348015610bda57600080fd5b50610387610be9366004613510565b611a13565b348015610bfa57600080fd5b50610387611a6f565b348015610c0f57600080fd5b50600c5461093590600160401b90046001600160a01b031681565b348015610c3657600080fd5b506103ae60085481565b348015610c4c57600080fd5b50610387610c5b3660046135ce565b611ab5565b348015610c6c57600080fd5b50610387610c7b366004613710565b611cae565b348015610c8c57600080fd5b50610449610c9b366004613386565b611efc565b348015610cac57600080fd5b50610387610cbb366004613386565b611f48565b348015610ccc57600080fd5b50610387610cdb3660046135fe565b611f77565b348015610cec57600080fd5b50610387610cfb36600461377b565b611fed565b348015610d0c57600080fd5b506103ae610d1b36600461336d565b600090815260046020908152604080832083805290915290205490565b348015610d4457600080fd5b50610387610d53366004613510565b612252565b348015610d6457600080fd5b506103ae610d733660046135ce565b6122b8565b600080805b84811015610dc557610da7868683818110610d9a57610d9a6137e2565b90506020020135856122b8565b610db1908361380e565b915080610dbd81613826565b915050610d7d565b50949350505050565b60006301ffc9a760e01b6001600160e01b031983161480610e0857506001600160e01b0319821660009081526001602052604090205460ff165b92915050565b604051806060016040528060258152602001613b916025913981565b6002805403610e545760405162461bcd60e51b8152600401610e4b9061383f565b60405180910390fd5b600280556007546001600160401b03600160401b9091048116429091161015610e8f5760405162461bcd60e51b8152600401610e4b90613876565b610e998282612316565b50506001600255565b610eaa612388565b6003546001600160401b03600160a01b909104811690821611610eff5760405162461bcd60e51b815260206004820152600d60248201526c10d0539393d517d49155d25391609a1b6044820152606401610e4b565b600380546001600160401b03909216600160a01b0267ffffffffffffffff60a01b19909216919091179055565b6000610f386000611337565b905090565b610f45612388565b60035442600160a01b9091046001600160401b031610610f775760405162461bcd60e51b8152600401610e4b9061389f565b600c80546001600160401b0319166001600160401b0392909216919091179055565b610fa1612388565b600c54600160f81b900460ff1615610fcb5760405162461bcd60e51b8152600401610e4b906138c6565b600c805482919060ff60f01b1916600160f01b836003811115610ff057610ff061354c565b021790555050565b60028054036110195760405162461bcd60e51b8152600401610e4b9061383f565b60028055611026816123e7565b506001600255565b6000818152600b6020908152604080832054600a9092528220546001600160401b039182169116156110eb576000611064612452565b905042816001600160401b0316111561107a5750425b6000848152600a60205260409020546001600160401b0316156110e9576000848152600a60205260409020546001600160401b0390811690821611156110e9576000848152600a60205260409020546110dc906001600160401b0316826138e6565b6110e6908361390e565b91505b505b6009546001600160401b03600160401b90910481169082161115610e085750600954600160401b90046001600160401b031692915050565b61112e816000611ab5565b50565b6000805b8281101561117c5761115e848483818110611152576111526137e2565b905060200201356115ec565b611168908361380e565b91508061117481613826565b915050611135565b5092915050565b600080805b84811015610dc557600460008787848181106111a6576111a66137e2565b9050602002013581526020019081526020016000206000856001600160a01b03166001600160a01b0316815260200190815260200160002060000154826111ed919061380e565b9150806111f981613826565b915050611188565b60606000826001600160401b0381111561121d5761121d6133c7565b604051908082528060200260200182016040528015611246578160200160208202803683370190505b50905060005b838110156112a457611275858583818110611269576112696137e2565b905060200201356119b9565b828281518110611287576112876137e2565b60209081029190910101528061129c81613826565b91505061124c565b509392505050565b6112b98282600033611fed565b5050565b6112c5612388565b6112cf6000612490565b565b6112d9612388565b60035442600160a01b9091046001600160401b03161061130b5760405162461bcd60e51b8152600401610e4b9061389f565b600780546001600160401b03909216600160801b02600160801b600160c01b0319909216919091179055565b60006001600160a01b03821661136b576001600160a01b038216600090815260056020526040902054610e0890479061380e565b6040516370a0823160e01b81526001600160a01b038316906370a082319061139790309060040161361b565b602060405180830381865afa1580156113b4573d6000803e3d6000fd5b505050506040513d601f19601f820116820180604052508101906113d89190613939565b6001600160a01b038316600090815260056020526040902054610e08919061380e565b611403612388565b600c54600160e01b900460ff161561142d5760405162461bcd60e51b8152600401610e4b906138c6565b600c805460ff60e01b1916600160e01b179055565b60008060005b838110156114b1576000600a6000878785818110611468576114686137e2565b60209081029290920135835250810191909152604001600020546001600160401b0316111561149f578161149b81613826565b9250505b806114a981613826565b915050611448565b50600854816006546114c39190613952565b6114cd9190613987565b949350505050565b60006114e383836000611183565b9392505050565b6000546201000090046001600160a01b031690565b6000610e088260006122b8565b6007546000906001600160401b038082169161153191600160401b90910416846138e6565b61153b919061399b565b6001600160401b0316600654610e089190613952565b611559612388565b60035442600160a01b9091046001600160401b03161061158b5760405162461bcd60e51b8152600401610e4b9061389f565b600655565b611598612388565b60035442600160a01b9091046001600160401b0316106115ca5760405162461bcd60e51b8152600401610e4b9061389f565b600980546001600160401b0319166001600160401b0392909216919091179055565b6007546008546000916001600160401b0316906116088461102e565b6001600160401b031660065461161e9190613952565b6116289190613987565b610e089190613987565b60028054036116535760405162461bcd60e51b8152600401610e4b9061383f565b600280556007546001600160401b03600160401b909104811642909116101561168e5760405162461bcd60e51b8152600401610e4b90613876565b611026816124eb565b6007546006546000916001600160401b0380821692916116c091600160401b90910416856138e6565b6001600160401b03166116289190613952565b600054610100900460ff16158080156116f35750600054600160ff909116105b80611714575061170230612307565b158015611714575060005460ff166001145b6117775760405162461bcd60e51b815260206004820152602e60248201527f496e697469616c697a61626c653a20636f6e747261637420697320616c72656160448201526d191e481a5b9a5d1a585b1a5e995960921b6064820152608401610e4b565b6000805460ff19166001179055801561179a576000805461ff0019166101001790555b6117a382612490565b6117ae826000612525565b6117c083600001518460200151612556565b6117d283604001518460600151612587565b6117ee83608001518460a001518560c001518660e001516125c0565b6117fc8361010001516125f9565b61180a836101200151612629565b8015611850576000805461ff0019169055604051600181527f7f26b83ff96e1f2b6a682f133852f6798a09c465da95921460cefb38474024989060200160405180910390a15b505050565b61185d612388565b60035442600160a01b9091046001600160401b03161061188f5760405162461bcd60e51b8152600401610e4b9061389f565b600780546001600160401b03909216600160401b02600160401b600160801b0319909216919091179055565b6118c3612388565b60035442600160a01b9091046001600160401b0316106118f55760405162461bcd60e51b8152600401610e4b9061389f565b600855565b611902612388565b600c54600160e01b900460ff161561192c5760405162461bcd60e51b8152600401610e4b906138c6565b600c80546001600160a01b03909216600160401b02600160401b600160e01b0319909216919091179055565b611960612388565b600c54600160f81b900460ff16156119a25760405162461bcd60e51b815260206004820152600560248201526413d0d2d15160da1b6044820152606401610e4b565b600c80546001600160f81b0316600160f81b179055565b6000818152600a60205260408120546001600160401b03166119dc576000611a04565b6009546000838152600a6020526040902054611a04916001600160401b03908116911661390e565b6001600160401b031692915050565b611a1b612388565b60035442600160a01b9091046001600160401b031610611a4d5760405162461bcd60e51b8152600401610e4b9061389f565b600780546001600160401b0319166001600160401b0392909216919091179055565b611a77612388565b600c805460ff60e81b1916600160e81b1790556040517fa24423a69b45c25c0479663125e48b482e71d85eae416f589545243bafaf3c9590600090a1565b6002805403611ad65760405162461bcd60e51b8152600401610e4b9061383f565b6002805533611ae6838383612659565b6000611af284846122b8565b905060008111611b375760405162461bcd60e51b815260206004820152601060248201526f4e4f5448494e475f544f5f434c41494d60801b6044820152606401610e4b565b60008481526004602090815260408083206001600160a01b038716845290915281208054839290611b6990849061380e565b909155505060008481526004602090815260408083206001600160a01b0387168452825280832042600190910155600590915281208054839290611bae90849061380e565b90915550506001600160a01b038316611bd957611bd46001600160a01b0383168261267a565b611c4c565b60405163a9059cbb60e01b81526001600160a01b0384169063a9059cbb90611c0790859085906004016139c1565b6020604051808303816000875af1158015611c26573d6000803e3d6000fd5b505050506040513d601f19601f82011682018060405250810190611c4a91906139da565b505b604080513381526001600160a01b038481166020830152818301879052851660608201526080810183905290517fa2d3c4c1fc934d6d2d8f9e862df90c01ae4eb0e920cd8957d242ba26b8dc40789181900360a00190a1505060016002555050565b611cb733612790565b600c54600160401b90046001600160a01b0316611d0e5760405162461bcd60e51b815260206004820152601560248201527415d2551211149055cbd393d7d49150d25412515395605a1b6044820152606401610e4b565b600c54600160e81b900460ff1615611d685760405162461bcd60e51b815260206004820181905260248201527f57495448445241572f454d455247454e43595f504f5745525f5245564f4b45446044820152606401610e4b565b60005b83811015611eb8576000858583818110611d8757611d876137e2565b9050602002016020810190611d9c91906135fe565b6001600160a01b031603611de757611de2838383818110611dbf57611dbf6137e2565b600c546001600160a01b03600160401b909104169260209091020135905061267a565b611ea6565b848482818110611df957611df96137e2565b9050602002016020810190611e0e91906135fe565b600c546001600160a01b039182169163a9059cbb91600160401b900416858585818110611e3d57611e3d6137e2565b905060200201356040518363ffffffff1660e01b8152600401611e619291906139c1565b6020604051808303816000875af1158015611e80573d6000803e3d6000fd5b505050506040513d601f19601f82011682018060405250810190611ea491906139da565b505b80611eb081613826565b915050611d6b565b507fd40c399a83caf67d15628b821aa7c7bd940e563c57a047e2bd3b8c602bcaf5a584848484604051611eee9493929190613a32565b60405180910390a150505050565b600080805b838110156112a457611f2a858583818110611f1e57611f1e6137e2565b9050602002013561102e565b611f34908361390e565b915080611f4081613826565b915050611f01565b6002805403611f695760405162461bcd60e51b8152600401610e4b9061383f565b60028055610e99828261291d565b611f7f612388565b6001600160a01b038116611fe45760405162461bcd60e51b815260206004820152602660248201527f4f776e61626c653a206e6577206f776e657220697320746865207a65726f206160448201526564647265737360d01b6064820152608401610e4b565b61112e81612490565b600280540361200e5760405162461bcd60e51b8152600401610e4b9061383f565b600280556000805b8481101561213e57612041868683818110612033576120336137e2565b905060200201358585612659565b6000612065878784818110612058576120586137e2565b90506020020135866122b8565b9050801561212b578060046000898986818110612084576120846137e2565b9050602002013581526020019081526020016000206000876001600160a01b03166001600160a01b0316815260200190815260200160002060000160008282546120ce919061380e565b90915550429050600460008989868181106120eb576120eb6137e2565b6020908102929092013583525081810192909252604090810160009081206001600160a01b038a168252909252902060010155612128818461380e565b92505b508061213681613826565b915050612016565b506001600160a01b0383166000908152600560205260408120805483929061216790849061380e565b90915550506001600160a01b0383166121925761218d6001600160a01b0383168261267a565b612205565b60405163a9059cbb60e01b81526001600160a01b0384169063a9059cbb906121c090859085906004016139c1565b6020604051808303816000875af11580156121df573d6000803e3d6000fd5b505050506040513d601f19601f8201168201806040525081019061220391906139da565b505b7fd84a5c424a4f777bcf4f645712b8e5ebfc550f42bde444fa822fe98ee1b132b133838787878660405161223e96959493929190613a95565b60405180910390a150506001600255505050565b61225a612388565b60035442600160a01b9091046001600160401b03161061228c5760405162461bcd60e51b8152600401610e4b9061389f565b600980546001600160401b03909216600160401b02600160401b600160801b0319909216919091179055565b6000806122d76122d06122ca85611337565b50600090565b8585612959565b60008581526004602090815260408083206001600160a01b03881684529091529020549091506114cd9082613ad4565b6001600160a01b03163b151590565b612320828261299e565b6003546040516342cb086360e11b81526001600160a01b039091169063859610c6906123529085908590600401613aeb565b600060405180830381600087803b15801561236c57600080fd5b505af1158015612380573d6000803e3d6000fd5b505050505050565b336123916114ea565b6001600160a01b0316146112cf5760405162461bcd60e51b815260206004820181905260248201527f4f776e61626c653a2063616c6c6572206973206e6f7420746865206f776e65726044820152606401610e4b565b6123f0816129e0565b600354604051636198e33960e01b8152600481018390526001600160a01b0390911690636198e339906024015b600060405180830381600087803b15801561243757600080fd5b505af115801561244b573d6000803e3d6000fd5b5050505050565b600754600090600160801b90046001600160401b0316156124845750600754600160801b90046001600160401b031690565b506001600160401b0390565b600080546001600160a01b038381166201000081810262010000600160b01b0319851617855560405193049190911692909183917f8be0079c531659141344cd1fd0a4f28419497f9722a3daafe3b4186f6b6457e091a35050565b6124f4816129eb565b6003546040516337519c1960e21b8152600481018390526001600160a01b039091169063dd4670649060240161241d565b600054610100900460ff1661254c5760405162461bcd60e51b8152600401610e4b90613aff565b6112b982826129f6565b600054610100900460ff1661257d5760405162461bcd60e51b8152600401610e4b90613aff565b6112b98282612a90565b600054610100900460ff166125ae5760405162461bcd60e51b8152600401610e4b90613aff565b6125b6612af5565b6112b98282612b2c565b600054610100900460ff166125e75760405162461bcd60e51b8152600401610e4b90613aff565b6125f384848484612b8b565b50505050565b600054610100900460ff166126205760405162461bcd60e51b8152600401610e4b90613aff565b61112e81612c0c565b600054610100900460ff166126505760405162461bcd60e51b8152600401610e4b90613aff565b61112e81612c48565b612664838383612c9a565b61266f838383612d4f565b611850838383612d9a565b804710156126ca5760405162461bcd60e51b815260206004820152601d60248201527f416464726573733a20696e73756666696369656e742062616c616e63650000006044820152606401610e4b565b6000826001600160a01b03168260405160006040518083038185875af1925050503d8060008114612717576040519150601f19603f3d011682016040523d82523d6000602084013e61271c565b606091505b50509050806118505760405162461bcd60e51b815260206004820152603a60248201527f416464726573733a20756e61626c6520746f2073656e642076616c75652c20726044820152791958da5c1a595b9d081b585e481a185d99481c995d995c9d195960321b6064820152608401610e4b565b6003600c54600160f01b900460ff1660038111156127b0576127b061354c565b036127ef5760405162461bcd60e51b815260206004820152600f60248201526e15d2551211149055cbd313d0d2d151608a1b6044820152606401610e4b565b6002600c54600160f01b900460ff16600381111561280f5761280f61354c565b036128175750565b6001600c54600160f01b900460ff1660038111156128375761283761354c565b0361289a57600c546001600160a01b03828116600160401b909204161461112e5760405162461bcd60e51b815260206004820152601760248201527615d2551211149055cbd3d3931657d49150d25412515395604a1b6044820152606401610e4b565b6000600c54600160f01b900460ff1660038111156128ba576128ba61354c565b0361112e57806001600160a01b03166128d16114ea565b6001600160a01b03161461112e5760405162461bcd60e51b81526020600482015260136024820152722ba4aa24222920ab97a7a7262cafa7aba722a960691b6044820152606401610e4b565b6129278282612e5f565b600354604051635d36598f60e01b81526001600160a01b0390911690635d36598f906123529085908590600401613aeb565b6007546000906001600160401b03166129718461102e565b61297b919061399b565b6001600160401b03166008546006546129949190613987565b6114cd9190613952565b334260005b8381101561244b576129ce83838787858181106129c2576129c26137e2565b90506020020135612ea1565b806129d881613826565b9150506129a3565b61112e334283612f49565b61112e334283612ea1565b600054610100900460ff16612a1d5760405162461bcd60e51b8152600401610e4b90613aff565b612a2d63ac2ba33360e01b612ff1565b600c8054600160401b600160e01b03198116600160401b6001600160a01b038616029081178355839291600160401b62ff000160e01b03191660ff60f01b1990911617600160f01b836003811115612a8757612a8761354c565b02179055505050565b600054610100900460ff16612ab75760405162461bcd60e51b8152600401610e4b90613aff565b600380546001600160401b038316600160a01b026001600160e01b03199091166001600160a01b038516171790556112b9631ba050e960e21b612ff1565b600054610100900460ff16612b1c5760405162461bcd60e51b8152600401610e4b90613aff565b6112cf63d664280160e01b612ff1565b600054610100900460ff16612b535760405162461bcd60e51b8152600401610e4b90613aff565b600980546001600160401b03838116600160401b026001600160801b0319909216908516171790556112b9633a41ba5360e11b612ff1565b600054610100900460ff16612bb25760405162461bcd60e51b8152600401610e4b90613aff565b6006849055600780546001600160401b03838116600160801b02600160801b600160c01b0319868316600160401b026001600160801b03199094169288169290921792909217161790556125f363c9f600a960e01b612ff1565b600054610100900460ff16612c335760405162461bcd60e51b8152600401610e4b90613aff565b600881905561112e632d5305cb60e21b612ff1565b600054610100900460ff16612c6f5760405162461bcd60e51b8152600401610e4b90613aff565b600c80546001600160401b0319166001600160401b03831617905561112e6317b2ef4360e31b612ff1565b6003546040516331a9108f60e11b8152600481018590526001600160a01b03838116921690636352211e90602401602060405180830381865afa158015612ce5573d6000803e3d6000fd5b505050506040513d601f19601f82011682018060405250810190612d099190613b4a565b6001600160a01b0316146118505760405162461bcd60e51b815260206004820152600d60248201526c2727aa2fa7232a2fa7aba722a960991b6044820152606401610e4b565b600c54426001600160401b03909116106118505760405162461bcd60e51b815260206004820152600c60248201526b10d310525357d313d0d2d15160a21b6044820152606401610e4b565b60075442600160401b9091046001600160401b031610612dea5760405162461bcd60e51b815260206004820152600b60248201526a1393d517d4d5105495115160aa1b6044820152606401610e4b565b600754612e00906001600160401b031642613ad4565b60008481526004602090815260408083206001600160a01b0387168452909152902060010154106118505760405162461bcd60e51b8152602060048201526009602482015268544f4f5f4541524c5960b81b6044820152606401610e4b565b334260005b8381101561244b57612e8f8383878785818110612e8357612e836137e2565b90506020020135612f49565b80612e9981613826565b915050612e64565b6003546040516331a9108f60e11b8152600481018390526001600160a01b0390911690636352211e90602401602060405180830381865afa158015612eea573d6000803e3d6000fd5b505050506040513d601f19601f82011682018060405250810190612f0e9190613b4a565b6001600160a01b0316836001600160a01b031614612f3e5760405162461bcd60e51b8152600401610e4b90613b67565b611850838383613072565b6003546040516331a9108f60e11b8152600481018390526001600160a01b0390911690636352211e90602401602060405180830381865afa158015612f92573d6000803e3d6000fd5b505050506040513d601f19601f82011682018060405250810190612fb69190613b4a565b6001600160a01b0316836001600160a01b031614612fe65760405162461bcd60e51b8152600401610e4b90613b67565b61185083838361310b565b6001600160e01b0319808216900361304a5760405162461bcd60e51b815260206004820152601c60248201527b115490cc4d8d4e881a5b9d985b1a59081a5b9d195c999858d9481a5960221b6044820152606401610e4b565b6001600160e01b0319166000908152600160208190526040909120805460ff19169091179055565b600954600160401b90046001600160401b031661308e8261102e565b6001600160401b0316106130dc5760405162461bcd60e51b815260206004820152601560248201527413505617d1155490551253d397d15610d151511151605a1b6044820152606401610e4b565b6000908152600a6020526040902080546001600160401b0319166001600160401b039290921691909117905550565b6000818152600a60205260409020546001600160401b031661315c5760405162461bcd60e51b815260206004820152600a6024820152691393d517d4d51052d15160b21b6044820152606401610e4b565b6009546000828152600a6020526040902054613184916001600160401b03908116911661390e565b6001600160401b0316826001600160401b031610156131de5760405162461bcd60e51b815260206004820152601660248201527509c9ea8bea6a882968a88be989e9c8ebe8a9c9eaa8e960531b6044820152606401610e4b565b6131e78161102e565b6000918252600b6020908152604080842080546001600160401b03949094166001600160401b0319948516179055600a909152909120805490911690555050565b60008083601f84011261323a57600080fd5b5081356001600160401b0381111561325157600080fd5b6020830191508360208260051b850101111561326c57600080fd5b9250929050565b6001600160a01b038116811461112e57600080fd5b803561329381613273565b919050565b6000806000604084860312156132ad57600080fd5b83356001600160401b038111156132c357600080fd5b6132cf86828701613228565b90945092505060208401356132e381613273565b809150509250925092565b60006020828403121561330057600080fd5b81356001600160e01b0319811681146114e357600080fd5b600060208083528351808285015260005b8181101561334557858101830151858201604001528201613329565b81811115613357576000604083870101525b50601f01601f1916929092016040019392505050565b60006020828403121561337f57600080fd5b5035919050565b6000806020838503121561339957600080fd5b82356001600160401b038111156133af57600080fd5b6133bb85828601613228565b90969095509350505050565b634e487b7160e01b600052604160045260246000fd5b60405161014081016001600160401b0381118282101715613400576134006133c7565b60405290565b604051601f8201601f191681016001600160401b038111828210171561342e5761342e6133c7565b604052919050565b6000806000806080858703121561344c57600080fd5b843561345781613273565b935060208581013561346881613273565b93506040860135925060608601356001600160401b038082111561348b57600080fd5b818801915088601f83011261349f57600080fd5b8135818111156134b1576134b16133c7565b6134c3601f8201601f19168501613406565b915080825289848285010111156134d957600080fd5b808484018584013760008482840101525080935050505092959194509250565b80356001600160401b038116811461329357600080fd5b60006020828403121561352257600080fd5b6114e3826134f9565b60006020828403121561353d57600080fd5b8135600481106114e357600080fd5b634e487b7160e01b600052602160045260246000fd5b602081016004831061358457634e487b7160e01b600052602160045260246000fd5b91905290565b6020808252825182820181905260009190848201906040850190845b818110156135c2578351835292840192918401916001016135a6565b50909695505050505050565b600080604083850312156135e157600080fd5b8235915060208301356135f381613273565b809150509250929050565b60006020828403121561361057600080fd5b81356114e381613273565b6001600160a01b0391909116815260200190565b60008082840361016081121561364457600080fd5b6101408082121561365457600080fd5b61365c6133dd565b915061366785613288565b8252613675602086016134f9565b6020830152613686604086016134f9565b6040830152613697606086016134f9565b6060830152608085013560808301526136b260a086016134f9565b60a08301526136c360c086016134f9565b60c08301526136d460e086016134f9565b60e083015261010085810135908301526101206136f28187016134f9565b8184015250819350613705818601613288565b925050509250929050565b6000806000806040858703121561372657600080fd5b84356001600160401b038082111561373d57600080fd5b61374988838901613228565b9096509450602087013591508082111561376257600080fd5b5061376f87828801613228565b95989497509550505050565b6000806000806060858703121561379157600080fd5b84356001600160401b038111156137a757600080fd5b6137b387828801613228565b90955093505060208501356137c781613273565b915060408501356137d781613273565b939692955090935050565b634e487b7160e01b600052603260045260246000fd5b634e487b7160e01b600052601160045260246000fd5b60008219821115613821576138216137f8565b500190565b600060018201613838576138386137f8565b5060010190565b6020808252601f908201527f5265656e7472616e637947756172643a207265656e7472616e742063616c6c00604082015260600190565b6020808252600f908201526e1393d517d4d5105495115117d65155608a1b604082015260600190565b6020808252600d908201526c10d3d3919251d7d313d0d2d151609a1b604082015260600190565b6020808252600690820152651313d0d2d15160d21b604082015260600190565b60006001600160401b0383811690831681811015613906576139066137f8565b039392505050565b60006001600160401b03808316818516808303821115613930576139306137f8565b01949350505050565b60006020828403121561394b57600080fd5b5051919050565b600081600019048311821515161561396c5761396c6137f8565b500290565b634e487b7160e01b600052601260045260246000fd5b60008261399657613996613971565b500490565b60006001600160401b03808416806139b5576139b5613971565b92169190910492915050565b6001600160a01b03929092168252602082015260400190565b6000602082840312156139ec57600080fd5b815180151581146114e357600080fd5b81835260006001600160fb1b03831115613a1557600080fd5b8260051b8083602087013760009401602001938452509192915050565b6040808252810184905260008560608301825b87811015613a75578235613a5881613273565b6001600160a01b0316825260209283019290910190600101613a45565b508381036020850152613a898186886139fc565b98975050505050505050565b600060018060a01b038089168352808816602084015260a06040840152613ac060a0840187896139fc565b941660608301525060800152949350505050565b600082821015613ae657613ae66137f8565b500390565b6020815260006114cd6020830184866139fc565b6020808252602b908201527f496e697469616c697a61626c653a20636f6e7472616374206973206e6f74206960408201526a6e697469616c697a696e6760a81b606082015260800190565b600060208284031215613b5c57600080fd5b81516114e381613273565b6020808252600f908201526e2727aa2faa27a5a2a72fa7aba722a960891b60408201526060019056fe455243373231204c6f636b6564205374616b696e6720456d697373696f6e2053747265616da26469706673582212208f25add58955fb37bf1a2c1165d774e3f40c6cebc48664da09c1cd40c8cce2a364736f6c634300080f0033",
  "devdoc": {
    "author": "Flair (https://flair.finance)",
    "kind": "dev",
    "methods": {
      "owner()": {
        "details": "Returns the address of the current owner."
      },
      "renounceOwnership()": {
        "details": "Leaves the contract without owner. It will not be possible to call `onlyOwner` functions anymore. Can only be called by the current owner. NOTE: Renouncing ownership will leave the contract without an owner, thereby removing any functionality that is only available to the owner."
      },
      "supportsInterface(bytes4)": {
        "details": "See {IERC165-supportsInterface}."
      },
      "transferOwnership(address)": {
        "details": "Transfers ownership of the contract to a new account (`newOwner`). Can only be called by the current owner."
      }
    },
    "version": 1
  },
  "userdoc": {
    "kind": "user",
    "methods": {},
    "version": 1
  },
  "storageLayout": {
    "storage": [
      {
        "astId": 1101,
        "contract": "contracts/streams/ERC721/presets/ERC721LockedStakingEmissionStream.sol:ERC721LockedStakingEmissionStream",
        "label": "_initialized",
        "offset": 0,
        "slot": "0",
        "type": "t_uint8"
      },
      {
        "astId": 1104,
        "contract": "contracts/streams/ERC721/presets/ERC721LockedStakingEmissionStream.sol:ERC721LockedStakingEmissionStream",
        "label": "_initializing",
        "offset": 1,
        "slot": "0",
        "type": "t_bool"
      },
      {
        "astId": 937,
        "contract": "contracts/streams/ERC721/presets/ERC721LockedStakingEmissionStream.sol:ERC721LockedStakingEmissionStream",
        "label": "_owner",
        "offset": 2,
        "slot": "0",
        "type": "t_address"
      },
      {
        "astId": 5404,
        "contract": "contracts/streams/ERC721/presets/ERC721LockedStakingEmissionStream.sol:ERC721LockedStakingEmissionStream",
        "label": "_supportedInterfaces",
        "offset": 0,
        "slot": "1",
        "type": "t_mapping(t_bytes4,t_bool)"
      },
      {
        "astId": 1364,
        "contract": "contracts/streams/ERC721/presets/ERC721LockedStakingEmissionStream.sol:ERC721LockedStakingEmissionStream",
        "label": "_status",
        "offset": 0,
        "slot": "2",
        "type": "t_uint256"
      },
      {
        "astId": 16201,
        "contract": "contracts/streams/ERC721/presets/ERC721LockedStakingEmissionStream.sol:ERC721LockedStakingEmissionStream",
        "label": "ticketToken",
        "offset": 0,
        "slot": "3",
        "type": "t_address"
      },
      {
        "astId": 16203,
        "contract": "contracts/streams/ERC721/presets/ERC721LockedStakingEmissionStream.sol:ERC721LockedStakingEmissionStream",
        "label": "lockedUntilTimestamp",
        "offset": 20,
        "slot": "3",
        "type": "t_uint64"
      },
      {
        "astId": 16210,
        "contract": "contracts/streams/ERC721/presets/ERC721LockedStakingEmissionStream.sol:ERC721LockedStakingEmissionStream",
        "label": "entitlements",
        "offset": 0,
        "slot": "4",
        "type": "t_mapping(t_uint256,t_mapping(t_address,t_struct(Entitlement)16199_storage))"
      },
      {
        "astId": 16214,
        "contract": "contracts/streams/ERC721/presets/ERC721LockedStakingEmissionStream.sol:ERC721LockedStakingEmissionStream",
        "label": "_streamTotalClaimed",
        "offset": 0,
        "slot": "5",
        "type": "t_mapping(t_address,t_uint256)"
      },
      {
        "astId": 17215,
        "contract": "contracts/streams/ERC721/presets/ERC721LockedStakingEmissionStream.sol:ERC721LockedStakingEmissionStream",
        "label": "emissionRate",
        "offset": 0,
        "slot": "6",
        "type": "t_uint256"
      },
      {
        "astId": 17217,
        "contract": "contracts/streams/ERC721/presets/ERC721LockedStakingEmissionStream.sol:ERC721LockedStakingEmissionStream",
        "label": "emissionTimeUnit",
        "offset": 0,
        "slot": "7",
        "type": "t_uint64"
      },
      {
        "astId": 17219,
        "contract": "contracts/streams/ERC721/presets/ERC721LockedStakingEmissionStream.sol:ERC721LockedStakingEmissionStream",
        "label": "emissionStart",
        "offset": 8,
        "slot": "7",
        "type": "t_uint64"
      },
      {
        "astId": 17221,
        "contract": "contracts/streams/ERC721/presets/ERC721LockedStakingEmissionStream.sol:ERC721LockedStakingEmissionStream",
        "label": "emissionEnd",
        "offset": 16,
        "slot": "7",
        "type": "t_uint64"
      },
      {
        "astId": 17532,
        "contract": "contracts/streams/ERC721/presets/ERC721LockedStakingEmissionStream.sol:ERC721LockedStakingEmissionStream",
        "label": "totalTickets",
        "offset": 0,
        "slot": "8",
        "type": "t_uint256"
      },
      {
        "astId": 18356,
        "contract": "contracts/streams/ERC721/presets/ERC721LockedStakingEmissionStream.sol:ERC721LockedStakingEmissionStream",
        "label": "minStakingDuration",
        "offset": 0,
        "slot": "9",
        "type": "t_uint64"
      },
      {
        "astId": 18358,
        "contract": "contracts/streams/ERC721/presets/ERC721LockedStakingEmissionStream.sol:ERC721LockedStakingEmissionStream",
        "label": "maxStakingTotalDurations",
        "offset": 8,
        "slot": "9",
        "type": "t_uint64"
      },
      {
        "astId": 18362,
        "contract": "contracts/streams/ERC721/presets/ERC721LockedStakingEmissionStream.sol:ERC721LockedStakingEmissionStream",
        "label": "lastStakingTime",
        "offset": 0,
        "slot": "10",
        "type": "t_mapping(t_uint256,t_uint64)"
      },
      {
        "astId": 18366,
        "contract": "contracts/streams/ERC721/presets/ERC721LockedStakingEmissionStream.sol:ERC721LockedStakingEmissionStream",
        "label": "savedStakedDurations",
        "offset": 0,
        "slot": "11",
        "type": "t_mapping(t_uint256,t_uint64)"
      },
      {
        "astId": 17724,
        "contract": "contracts/streams/ERC721/presets/ERC721LockedStakingEmissionStream.sol:ERC721LockedStakingEmissionStream",
        "label": "claimLockedUntil",
        "offset": 0,
        "slot": "12",
        "type": "t_uint64"
      },
      {
        "astId": 14679,
        "contract": "contracts/streams/ERC721/presets/ERC721LockedStakingEmissionStream.sol:ERC721LockedStakingEmissionStream",
        "label": "withdrawRecipient",
        "offset": 8,
        "slot": "12",
        "type": "t_address"
      },
      {
        "astId": 14681,
        "contract": "contracts/streams/ERC721/presets/ERC721LockedStakingEmissionStream.sol:ERC721LockedStakingEmissionStream",
        "label": "withdrawRecipientLocked",
        "offset": 28,
        "slot": "12",
        "type": "t_bool"
      },
      {
        "astId": 14683,
        "contract": "contracts/streams/ERC721/presets/ERC721LockedStakingEmissionStream.sol:ERC721LockedStakingEmissionStream",
        "label": "withdrawPowerRevoked",
        "offset": 29,
        "slot": "12",
        "type": "t_bool"
      },
      {
        "astId": 14686,
        "contract": "contracts/streams/ERC721/presets/ERC721LockedStakingEmissionStream.sol:ERC721LockedStakingEmissionStream",
        "label": "withdrawMode",
        "offset": 30,
        "slot": "12",
        "type": "t_enum(WithdrawMode)14623"
      },
      {
        "astId": 14688,
        "contract": "contracts/streams/ERC721/presets/ERC721LockedStakingEmissionStream.sol:ERC721LockedStakingEmissionStream",
        "label": "withdrawModeLocked",
        "offset": 31,
        "slot": "12",
        "type": "t_bool"
      }
    ],
    "types": {
      "t_address": {
        "encoding": "inplace",
        "label": "address",
        "numberOfBytes": "20"
      },
      "t_bool": {
        "encoding": "inplace",
        "label": "bool",
        "numberOfBytes": "1"
      },
      "t_bytes4": {
        "encoding": "inplace",
        "label": "bytes4",
        "numberOfBytes": "4"
      },
      "t_enum(WithdrawMode)14623": {
        "encoding": "inplace",
        "label": "enum WithdrawMode",
        "numberOfBytes": "1"
      },
      "t_mapping(t_address,t_struct(Entitlement)16199_storage)": {
        "encoding": "mapping",
        "key": "t_address",
        "label": "mapping(address => struct ERC721MultiTokenStream.Entitlement)",
        "numberOfBytes": "32",
        "value": "t_struct(Entitlement)16199_storage"
      },
      "t_mapping(t_address,t_uint256)": {
        "encoding": "mapping",
        "key": "t_address",
        "label": "mapping(address => uint256)",
        "numberOfBytes": "32",
        "value": "t_uint256"
      },
      "t_mapping(t_bytes4,t_bool)": {
        "encoding": "mapping",
        "key": "t_bytes4",
        "label": "mapping(bytes4 => bool)",
        "numberOfBytes": "32",
        "value": "t_bool"
      },
      "t_mapping(t_uint256,t_mapping(t_address,t_struct(Entitlement)16199_storage))": {
        "encoding": "mapping",
        "key": "t_uint256",
        "label": "mapping(uint256 => mapping(address => struct ERC721MultiTokenStream.Entitlement))",
        "numberOfBytes": "32",
        "value": "t_mapping(t_address,t_struct(Entitlement)16199_storage)"
      },
      "t_mapping(t_uint256,t_uint64)": {
        "encoding": "mapping",
        "key": "t_uint256",
        "label": "mapping(uint256 => uint64)",
        "numberOfBytes": "32",
        "value": "t_uint64"
      },
      "t_struct(Entitlement)16199_storage": {
        "encoding": "inplace",
        "label": "struct ERC721MultiTokenStream.Entitlement",
        "members": [
          {
            "astId": 16196,
            "contract": "contracts/streams/ERC721/presets/ERC721LockedStakingEmissionStream.sol:ERC721LockedStakingEmissionStream",
            "label": "totalClaimed",
            "offset": 0,
            "slot": "0",
            "type": "t_uint256"
          },
          {
            "astId": 16198,
            "contract": "contracts/streams/ERC721/presets/ERC721LockedStakingEmissionStream.sol:ERC721LockedStakingEmissionStream",
            "label": "lastClaimedAt",
            "offset": 0,
            "slot": "1",
            "type": "t_uint256"
          }
        ],
        "numberOfBytes": "64"
      },
      "t_uint256": {
        "encoding": "inplace",
        "label": "uint256",
        "numberOfBytes": "32"
      },
      "t_uint64": {
        "encoding": "inplace",
        "label": "uint64",
        "numberOfBytes": "8"
      },
      "t_uint8": {
        "encoding": "inplace",
        "label": "uint8",
        "numberOfBytes": "1"
      }
    }
  }
}