{
  "address": "0x89645f545df21de76B31399E74DdEd5Edf00145c",
  "abi": [
    {
      "inputs": [
        {
          "components": [
            {
              "internalType": "address",
              "name": "ticketToken",
              "type": "address"
            },
            {
              "internalType": "uint64",
              "name": "lockedUntilTimestamp",
              "type": "uint64"
            },
            {
              "internalType": "uint256[]",
              "name": "tokenIds",
              "type": "uint256[]"
            },
            {
              "internalType": "uint256[]",
              "name": "shares",
              "type": "uint256[]"
            },
            {
              "internalType": "uint64",
              "name": "claimLockedUntil",
              "type": "uint64"
            }
          ],
          "internalType": "struct ERC721ShareInstantStream.Config",
          "name": "config",
          "type": "tuple"
        }
      ],
      "stateMutability": "nonpayable",
      "type": "constructor"
    },
    {
      "anonymous": false,
      "inputs": [
        {
          "indexed": false,
          "internalType": "address",
          "name": "operator",
          "type": "address"
        },
        {
          "indexed": false,
          "internalType": "address",
          "name": "beneficiary",
          "type": "address"
        },
        {
          "indexed": false,
          "internalType": "uint256",
          "name": "ticketTokenId",
          "type": "uint256"
        },
        {
          "indexed": false,
          "internalType": "address",
          "name": "claimToken",
          "type": "address"
        },
        {
          "indexed": false,
          "internalType": "uint256",
          "name": "releasedAmount",
          "type": "uint256"
        }
      ],
      "name": "Claim",
      "type": "event"
    },
    {
      "anonymous": false,
      "inputs": [
        {
          "indexed": false,
          "internalType": "address",
          "name": "operator",
          "type": "address"
        },
        {
          "indexed": false,
          "internalType": "address",
          "name": "beneficiary",
          "type": "address"
        },
        {
          "indexed": false,
          "internalType": "uint256[]",
          "name": "ticketTokenIds",
          "type": "uint256[]"
        },
        {
          "indexed": false,
          "internalType": "address",
          "name": "claimToken",
          "type": "address"
        },
        {
          "indexed": false,
          "internalType": "uint256",
          "name": "releasedAmount",
          "type": "uint256"
        }
      ],
      "name": "ClaimMany",
      "type": "event"
    },
    {
      "anonymous": false,
      "inputs": [
        {
          "indexed": false,
          "internalType": "uint8",
          "name": "version",
          "type": "uint8"
        }
      ],
      "name": "Initialized",
      "type": "event"
    },
    {
      "anonymous": false,
      "inputs": [
        {
          "indexed": true,
          "internalType": "address",
          "name": "previousOwner",
          "type": "address"
        },
        {
          "indexed": true,
          "internalType": "address",
          "name": "newOwner",
          "type": "address"
        }
      ],
      "name": "OwnershipTransferred",
      "type": "event"
    },
    {
      "anonymous": false,
      "inputs": [
        {
          "indexed": false,
          "internalType": "uint256",
          "name": "tokenId",
          "type": "uint256"
        },
        {
          "indexed": false,
          "internalType": "uint256",
          "name": "prevShares",
          "type": "uint256"
        },
        {
          "indexed": false,
          "internalType": "uint256",
          "name": "newShares",
          "type": "uint256"
        }
      ],
      "name": "SharesUpdated",
      "type": "event"
    },
    {
      "anonymous": false,
      "inputs": [],
      "name": "WithdrawPowerRevoked",
      "type": "event"
    },
    {
      "anonymous": false,
      "inputs": [
        {
          "indexed": false,
          "internalType": "address[]",
          "name": "claimTokens",
          "type": "address[]"
        },
        {
          "indexed": false,
          "internalType": "uint256[]",
          "name": "amounts",
          "type": "uint256[]"
        }
      ],
      "name": "Withdrawn",
      "type": "event"
    },
    {
      "inputs": [
        {
          "internalType": "uint256",
          "name": "ticketTokenId",
          "type": "uint256"
        }
      ],
      "name": "claim",
      "outputs": [],
      "stateMutability": "nonpayable",
      "type": "function"
    },
    {
      "inputs": [
        {
          "internalType": "uint256[]",
          "name": "ticketTokenIds",
          "type": "uint256[]"
        }
      ],
      "name": "claim",
      "outputs": [],
      "stateMutability": "nonpayable",
      "type": "function"
    },
    {
      "inputs": [
        {
          "internalType": "uint256",
          "name": "ticketTokenId",
          "type": "uint256"
        },
        {
          "internalType": "address",
          "name": "claimToken",
          "type": "address"
        }
      ],
      "name": "claim",
      "outputs": [],
      "stateMutability": "nonpayable",
      "type": "function"
    },
    {
      "inputs": [
        {
          "internalType": "uint256[]",
          "name": "ticketTokenIds",
          "type": "uint256[]"
        },
        {
          "internalType": "address",
          "name": "claimToken",
          "type": "address"
        },
        {
          "internalType": "address",
          "name": "beneficiary",
          "type": "address"
        }
      ],
      "name": "claim",
      "outputs": [],
      "stateMutability": "nonpayable",
      "type": "function"
    },
    {
      "inputs": [],
      "name": "claimLockedUntil",
      "outputs": [
        {
          "internalType": "uint64",
          "name": "",
          "type": "uint64"
        }
      ],
      "stateMutability": "view",
      "type": "function"
    },
    {
      "inputs": [
        {
          "internalType": "uint256",
          "name": "",
          "type": "uint256"
        },
        {
          "internalType": "address",
          "name": "",
          "type": "address"
        }
      ],
      "name": "entitlements",
      "outputs": [
        {
          "internalType": "uint256",
          "name": "totalClaimed",
          "type": "uint256"
        },
        {
          "internalType": "uint256",
          "name": "lastClaimedAt",
          "type": "uint256"
        }
      ],
      "stateMutability": "view",
      "type": "function"
    },
    {
      "inputs": [
        {
          "internalType": "uint256[]",
          "name": "_tokenIds",
          "type": "uint256[]"
        }
      ],
      "name": "getSharesByTokens",
      "outputs": [
        {
          "internalType": "uint256[]",
          "name": "",
          "type": "uint256[]"
        }
      ],
      "stateMutability": "view",
      "type": "function"
    },
    {
      "inputs": [],
      "name": "hasERC721InstantReleaseExtension",
      "outputs": [
        {
          "internalType": "bool",
          "name": "",
          "type": "bool"
        }
      ],
      "stateMutability": "pure",
      "type": "function"
    },
    {
      "inputs": [],
      "name": "hasERC721LockableClaimExtension",
      "outputs": [
        {
          "internalType": "bool",
          "name": "",
          "type": "bool"
        }
      ],
      "stateMutability": "pure",
      "type": "function"
    },
    {
      "inputs": [],
      "name": "hasERC721ShareSplitExtension",
      "outputs": [
        {
          "internalType": "bool",
          "name": "",
          "type": "bool"
        }
      ],
      "stateMutability": "pure",
      "type": "function"
    },
    {
      "inputs": [
        {
          "components": [
            {
              "internalType": "address",
              "name": "ticketToken",
              "type": "address"
            },
            {
              "internalType": "uint64",
              "name": "lockedUntilTimestamp",
              "type": "uint64"
            },
            {
              "internalType": "uint256[]",
              "name": "tokenIds",
              "type": "uint256[]"
            },
            {
              "internalType": "uint256[]",
              "name": "shares",
              "type": "uint256[]"
            },
            {
              "internalType": "uint64",
              "name": "claimLockedUntil",
              "type": "uint64"
            }
          ],
          "internalType": "struct ERC721ShareInstantStream.Config",
          "name": "config",
          "type": "tuple"
        },
        {
          "internalType": "address",
          "name": "deployer",
          "type": "address"
        }
      ],
      "name": "initialize",
      "outputs": [],
      "stateMutability": "nonpayable",
      "type": "function"
    },
    {
      "inputs": [
        {
          "internalType": "uint64",
          "name": "newValue",
          "type": "uint64"
        }
      ],
      "name": "lockUntil",
      "outputs": [],
      "stateMutability": "nonpayable",
      "type": "function"
    },
    {
      "inputs": [],
      "name": "lockWithdrawMode",
      "outputs": [],
      "stateMutability": "nonpayable",
      "type": "function"
    },
    {
      "inputs": [],
      "name": "lockWithdrawRecipient",
      "outputs": [],
      "stateMutability": "nonpayable",
      "type": "function"
    },
    {
      "inputs": [],
      "name": "lockedUntilTimestamp",
      "outputs": [
        {
          "internalType": "uint64",
          "name": "",
          "type": "uint64"
        }
      ],
      "stateMutability": "view",
      "type": "function"
    },
    {
      "inputs": [],
      "name": "name",
      "outputs": [
        {
          "internalType": "string",
          "name": "",
          "type": "string"
        }
      ],
      "stateMutability": "view",
      "type": "function"
    },
    {
      "inputs": [
        {
          "internalType": "address",
          "name": "",
          "type": "address"
        },
        {
          "internalType": "address",
          "name": "",
          "type": "address"
        },
        {
          "internalType": "uint256",
          "name": "",
          "type": "uint256"
        },
        {
          "internalType": "bytes",
          "name": "",
          "type": "bytes"
        }
      ],
      "name": "onERC721Received",
      "outputs": [
        {
          "internalType": "bytes4",
          "name": "",
          "type": "bytes4"
        }
      ],
      "stateMutability": "nonpayable",
      "type": "function"
    },
    {
      "inputs": [],
      "name": "owner",
      "outputs": [
        {
          "internalType": "address",
          "name": "",
          "type": "address"
        }
      ],
      "stateMutability": "view",
      "type": "function"
    },
    {
      "inputs": [],
      "name": "renounceOwnership",
      "outputs": [],
      "stateMutability": "nonpayable",
      "type": "function"
    },
    {
      "inputs": [],
      "name": "revokeWithdrawPower",
      "outputs": [],
      "stateMutability": "nonpayable",
      "type": "function"
    },
    {
      "inputs": [
        {
          "internalType": "uint64",
          "name": "newValue",
          "type": "uint64"
        }
      ],
      "name": "setClaimLockedUntil",
      "outputs": [],
      "stateMutability": "nonpayable",
      "type": "function"
    },
    {
      "inputs": [
        {
          "internalType": "uint256[]",
          "name": "_tokenIds",
          "type": "uint256[]"
        },
        {
          "internalType": "uint256[]",
          "name": "_shares",
          "type": "uint256[]"
        }
      ],
      "name": "setSharesForTokens",
      "outputs": [],
      "stateMutability": "nonpayable",
      "type": "function"
    },
    {
      "inputs": [
        {
          "internalType": "enum WithdrawMode",
          "name": "_withdrawMode",
          "type": "uint8"
        }
      ],
      "name": "setWithdrawMode",
      "outputs": [],
      "stateMutability": "nonpayable",
      "type": "function"
    },
    {
      "inputs": [
        {
          "internalType": "address",
          "name": "_withdrawRecipient",
          "type": "address"
        }
      ],
      "name": "setWithdrawRecipient",
      "outputs": [],
      "stateMutability": "nonpayable",
      "type": "function"
    },
    {
      "inputs": [
        {
          "internalType": "uint256",
          "name": "",
          "type": "uint256"
        }
      ],
      "name": "shares",
      "outputs": [
        {
          "internalType": "uint256",
          "name": "",
          "type": "uint256"
        }
      ],
      "stateMutability": "view",
      "type": "function"
    },
    {
      "inputs": [
        {
          "internalType": "uint256[]",
          "name": "ticketTokenIds",
          "type": "uint256[]"
        },
        {
          "internalType": "address",
          "name": "claimToken",
          "type": "address"
        }
      ],
      "name": "streamClaimableAmount",
      "outputs": [
        {
          "internalType": "uint256",
          "name": "",
          "type": "uint256"
        }
      ],
      "stateMutability": "view",
      "type": "function"
    },
    {
      "inputs": [
        {
          "internalType": "uint256",
          "name": "ticketTokenId",
          "type": "uint256"
        }
      ],
      "name": "streamClaimableAmount",
      "outputs": [
        {
          "internalType": "uint256",
          "name": "",
          "type": "uint256"
        }
      ],
      "stateMutability": "view",
      "type": "function"
    },
    {
      "inputs": [
        {
          "internalType": "uint256",
          "name": "ticketTokenId",
          "type": "uint256"
        },
        {
          "internalType": "address",
          "name": "claimToken",
          "type": "address"
        }
      ],
      "name": "streamClaimableAmount",
      "outputs": [
        {
          "internalType": "uint256",
          "name": "",
          "type": "uint256"
        }
      ],
      "stateMutability": "view",
      "type": "function"
    },
    {
      "inputs": [
        {
          "internalType": "uint256[]",
          "name": "ticketTokenIds",
          "type": "uint256[]"
        },
        {
          "internalType": "address",
          "name": "claimToken",
          "type": "address"
        }
      ],
      "name": "streamTotalClaimed",
      "outputs": [
        {
          "internalType": "uint256",
          "name": "",
          "type": "uint256"
        }
      ],
      "stateMutability": "view",
      "type": "function"
    },
    {
      "inputs": [],
      "name": "streamTotalClaimed",
      "outputs": [
        {
          "internalType": "uint256",
          "name": "",
          "type": "uint256"
        }
      ],
      "stateMutability": "view",
      "type": "function"
    },
    {
      "inputs": [
        {
          "internalType": "uint256[]",
          "name": "ticketTokenIds",
          "type": "uint256[]"
        }
      ],
      "name": "streamTotalClaimed",
      "outputs": [
        {
          "internalType": "uint256",
          "name": "",
          "type": "uint256"
        }
      ],
      "stateMutability": "view",
      "type": "function"
    },
    {
      "inputs": [
        {
          "internalType": "uint256",
          "name": "ticketTokenId",
          "type": "uint256"
        },
        {
          "internalType": "address",
          "name": "claimToken",
          "type": "address"
        }
      ],
      "name": "streamTotalClaimed",
      "outputs": [
        {
          "internalType": "uint256",
          "name": "",
          "type": "uint256"
        }
      ],
      "stateMutability": "view",
      "type": "function"
    },
    {
      "inputs": [
        {
          "internalType": "address",
          "name": "claimToken",
          "type": "address"
        }
      ],
      "name": "streamTotalClaimed",
      "outputs": [
        {
          "internalType": "uint256",
          "name": "",
          "type": "uint256"
        }
      ],
      "stateMutability": "view",
      "type": "function"
    },
    {
      "inputs": [
        {
          "internalType": "uint256",
          "name": "ticketTokenId",
          "type": "uint256"
        }
      ],
      "name": "streamTotalClaimed",
      "outputs": [
        {
          "internalType": "uint256",
          "name": "",
          "type": "uint256"
        }
      ],
      "stateMutability": "view",
      "type": "function"
    },
    {
      "inputs": [],
      "name": "streamTotalSupply",
      "outputs": [
        {
          "internalType": "uint256",
          "name": "",
          "type": "uint256"
        }
      ],
      "stateMutability": "view",
      "type": "function"
    },
    {
      "inputs": [
        {
          "internalType": "address",
          "name": "claimToken",
          "type": "address"
        }
      ],
      "name": "streamTotalSupply",
      "outputs": [
        {
          "internalType": "uint256",
          "name": "",
          "type": "uint256"
        }
      ],
      "stateMutability": "view",
      "type": "function"
    },
    {
      "inputs": [
        {
          "internalType": "bytes4",
          "name": "interfaceId",
          "type": "bytes4"
        }
      ],
      "name": "supportsInterface",
      "outputs": [
        {
          "internalType": "bool",
          "name": "",
          "type": "bool"
        }
      ],
      "stateMutability": "view",
      "type": "function"
    },
    {
      "inputs": [],
      "name": "ticketToken",
      "outputs": [
        {
          "internalType": "address",
          "name": "",
          "type": "address"
        }
      ],
      "stateMutability": "view",
      "type": "function"
    },
    {
      "inputs": [],
      "name": "totalShares",
      "outputs": [
        {
          "internalType": "uint256",
          "name": "",
          "type": "uint256"
        }
      ],
      "stateMutability": "view",
      "type": "function"
    },
    {
      "inputs": [
        {
          "internalType": "address",
          "name": "newOwner",
          "type": "address"
        }
      ],
      "name": "transferOwnership",
      "outputs": [],
      "stateMutability": "nonpayable",
      "type": "function"
    },
    {
      "inputs": [],
      "name": "version",
      "outputs": [
        {
          "internalType": "string",
          "name": "",
          "type": "string"
        }
      ],
      "stateMutability": "view",
      "type": "function"
    },
    {
      "inputs": [
        {
          "internalType": "address[]",
          "name": "claimTokens",
          "type": "address[]"
        },
        {
          "internalType": "uint256[]",
          "name": "amounts",
          "type": "uint256[]"
        }
      ],
      "name": "withdraw",
      "outputs": [],
      "stateMutability": "nonpayable",
      "type": "function"
    },
    {
      "inputs": [],
      "name": "withdrawMode",
      "outputs": [
        {
          "internalType": "enum WithdrawMode",
          "name": "",
          "type": "uint8"
        }
      ],
      "stateMutability": "view",
      "type": "function"
    },
    {
      "inputs": [],
      "name": "withdrawModeLocked",
      "outputs": [
        {
          "internalType": "bool",
          "name": "",
          "type": "bool"
        }
      ],
      "stateMutability": "view",
      "type": "function"
    },
    {
      "inputs": [],
      "name": "withdrawPowerRevoked",
      "outputs": [
        {
          "internalType": "bool",
          "name": "",
          "type": "bool"
        }
      ],
      "stateMutability": "view",
      "type": "function"
    },
    {
      "inputs": [],
      "name": "withdrawRecipient",
      "outputs": [
        {
          "internalType": "address",
          "name": "",
          "type": "address"
        }
      ],
      "stateMutability": "view",
      "type": "function"
    },
    {
      "inputs": [],
      "name": "withdrawRecipientLocked",
      "outputs": [
        {
          "internalType": "bool",
          "name": "",
          "type": "bool"
        }
      ],
      "stateMutability": "view",
      "type": "function"
    },
    {
      "stateMutability": "payable",
      "type": "receive"
    }
  ],
  "transactionHash": "0x62e376ba7529384a09c5de216c521d1402172e1ff7373d7d4f07db06d097f5ae",
  "args": [
    {
      "ticketToken": "0x0000000000000000000000000000000000000000",
      "lockedUntilTimestamp": 0,
      "tokenIds": [],
      "shares": [],
      "claimLockedUntil": 0
    }
  ],
  "numDeployments": 7,
  "solcInputHash": "db704ba0987a61a5a207234a2424761a",
  "bytecode": "0x60806040523480156200001157600080fd5b506040516200366f3803806200366f8339810160408190526200003491620007e5565b6200003f3362000057565b6001600255620000508133620000b2565b50620009f4565b600080546001600160a01b038381166201000081810262010000600160b01b0319851617855560405193049190911692909183917f8be0079c531659141344cd1fd0a4f28419497f9722a3daafe3b4186f6b6457e091a35050565b6000620000c0600162000185565b90508015620000d9576000805461ff0019166101001790555b620000e48262000057565b620000f182600062000237565b8251602084015162000104919062000271565b6200010e620002a7565b6200012883604001518460600151620002dd60201b60201c565b6080830151620001389062000313565b801562000180576000805461ff0019169055604051600181527f7f26b83ff96e1f2b6a682f133852f6798a09c465da95921460cefb3847402498906020015b60405180910390a15b505050565b60008054610100900460ff1615620001ee578160ff166001148015620001be5750620001bc306200034b60201b6200191d1760201c565b155b620001e65760405162461bcd60e51b8152600401620001dd90620008c6565b60405180910390fd5b506000919050565b60005460ff808416911610620002185760405162461bcd60e51b8152600401620001dd90620008c6565b506000805460ff191660ff92909216919091179055600190565b919050565b600054610100900460ff16620002615760405162461bcd60e51b8152600401620001dd9062000914565b6200026d82826200035a565b5050565b600054610100900460ff166200029b5760405162461bcd60e51b8152600401620001dd9062000914565b6200026d828262000401565b600054610100900460ff16620002d15760405162461bcd60e51b8152600401620001dd9062000914565b620002db6200046b565b565b600054610100900460ff16620003075760405162461bcd60e51b8152600401620001dd9062000914565b6200026d8282620004a7565b600054610100900460ff166200033d5760405162461bcd60e51b8152600401620001dd9062000914565b620003488162000532565b50565b6001600160a01b03163b151590565b600054610100900460ff16620003845760405162461bcd60e51b8152600401620001dd9062000914565b6200039663ac2ba33360e01b62000584565b60088054600160401b600160e01b03198116680100000000000000006001600160a01b038616029081178355839291600160401b62ff000160e01b03191660ff60f01b1990911617600160f01b836003811115620003f857620003f86200095f565b02179055505050565b600054610100900460ff166200042b5760405162461bcd60e51b8152600401620001dd9062000914565b600380546001600160401b038316600160a01b026001600160e01b03199091166001600160a01b038516171790556200026d631ba050e960e21b62000584565b600054610100900460ff16620004955760405162461bcd60e51b8152600401620001dd9062000914565b620002db631259990960e01b62000584565b600054610100900460ff16620004d15760405162461bcd60e51b8152600401620001dd9062000914565b8151815114620005145760405162461bcd60e51b815260206004820152600d60248201526c082a48ea6be9a92a69a82a8869609b1b6044820152606401620001dd565b62000520828262000608565b6200026d6333c7a33f60e11b62000584565b600054610100900460ff166200055c5760405162461bcd60e51b8152600401620001dd9062000914565b600880546001600160401b0319166001600160401b038316179055620003486317b2ef4360e31b5b6001600160e01b03198082161415620005e05760405162461bcd60e51b815260206004820152601c60248201527f4552433136353a20696e76616c696420696e74657266616365206964000000006044820152606401620001dd565b6001600160e01b0319166000908152600160208190526040909120805460ff19169091179055565b60005b815181101562000180576200065f8382815181106200062e576200062e62000975565b60200260200101518383815181106200064b576200064b62000975565b60200260200101516200067460201b60201c565b806200066b81620009a1565b9150506200060b565b600082815260076020526040902080549082905560065481906200069a908490620009bf565b620006a69190620009da565b60065560408051848152602081018390529081018390527ff81b1f9d8b5d36a5a67d13006a8b091a9b63e2a38b331d315d99c6daefd2ddcc9060600162000177565b634e487b7160e01b600052604160045260246000fd5b60405160a081016001600160401b0381118282101715620007235762000723620006e8565b60405290565b80516001600160401b03811681146200023257600080fd5b600082601f8301126200075357600080fd5b815160206001600160401b0380831115620007725762000772620006e8565b8260051b604051601f19603f830116810181811084821117156200079a576200079a620006e8565b604052938452858101830193838101925087851115620007b957600080fd5b83870191505b84821015620007da57815183529183019190830190620007bf565b979650505050505050565b600060208284031215620007f857600080fd5b81516001600160401b03808211156200081057600080fd5b9083019060a082860312156200082557600080fd5b6200082f620006fe565b82516001600160a01b03811681146200084757600080fd5b8152620008576020840162000729565b60208201526040830151828111156200086f57600080fd5b6200087d8782860162000741565b6040830152506060830151828111156200089657600080fd5b620008a48782860162000741565b606083015250620008b86080840162000729565b608082015295945050505050565b6020808252602e908201527f496e697469616c697a61626c653a20636f6e747261637420697320616c72656160408201526d191e481a5b9a5d1a585b1a5e995960921b606082015260800190565b6020808252602b908201527f496e697469616c697a61626c653a20636f6e7472616374206973206e6f74206960408201526a6e697469616c697a696e6760a81b606082015260800190565b634e487b7160e01b600052602160045260246000fd5b634e487b7160e01b600052603260045260246000fd5b634e487b7160e01b600052601160045260246000fd5b6000600019821415620009b857620009b86200098b565b5060010190565b60008219821115620009d557620009d56200098b565b500190565b600082821015620009ef57620009ef6200098b565b500390565b612c6b8062000a046000396000f3fe60806040526004361061022c5760003560e01c80636ba4c1381161012a5780636ba4c13814610628578063715018a614610648578063790c0c731461065d578063837fe1401461067d57806389c6b815146106925780638da5cb5b146106b25780638fc852b1146106d45780639199690b1461031c578063968d9b2c146106f4578063a1cf649314610714578063a8b46d871461031c578063af121f5414610757578063c088184914610778578063c0bb38ff146107ae578063c723955a146107ce578063d5ed4d5a146107e3578063da82b22714610803578063dcbe353f14610818578063ddd5e1b21461083f578063de6d6d961461085f578063f2fde38b1461087f578063f389b6e41461089f578063f4415ad6146108bf578063f66e38c2146108f757600080fd5b8063016b2798146102455780630191c0af1461026557806301ffc9a71461029857806306fdde03146102c8578063125999091461031c57806314427a9614610330578063150b7a02146103685780631c725fdc146103ac57806325289bad146103cc5780632890d033146103f35780632c0e1313146104085780632c233067146104285780632d00b58714610448578063379607f5146104765780633a98ef39146104965780633b3f12e2146104ac5780633d2dded5146104cc57806340f379481461050957806349561cb91461053657806354fd4d501461055757806357a858fc1461058657806357dc48c8146105b35780636057e0ec1461060757600080fd5b36610240576000341161023e57600080fd5b005b600080fd5b34801561025157600080fd5b5061023e61026036600461235a565b610917565b34801561027157600080fd5b5061028561028036600461247c565b6109d4565b6040519081526020015b60405180910390f35b3480156102a457600080fd5b506102b86102b33660046124d2565b610a2a565b604051901515815260200161028f565b3480156102d457600080fd5b5061030f6040518060400160405280601b81526020017a45524337323120536861726520496e7374616e742053747265616d60281b81525081565b60405161028f91906124fc565b34801561032857600080fd5b5060016102b8565b34801561033c57600080fd5b50600854610350906001600160401b031681565b6040516001600160401b03909116815260200161028f565b34801561037457600080fd5b50610393610383366004612551565b630a85bd0160e11b949350505050565b6040516001600160e01b0319909116815260200161028f565b3480156103b857600080fd5b5061023e6103c7366004612614565b610a6a565b3480156103d857600080fd5b5060035461035090600160a01b90046001600160401b031681565b3480156103ff57600080fd5b50610285610b24565b34801561041457600080fd5b5061023e610423366004612614565b610b35565b34801561043457600080fd5b5061023e61044336600461262f565b610bb8565b34801561045457600080fd5b5060085461046990600160f01b900460ff1681565b60405161028f9190612666565b34801561048257600080fd5b5061023e61049136600461268e565b610c3e565b3480156104a257600080fd5b5061028560065481565b3480156104b857600080fd5b506102856104c736600461247c565b610c4c565b3480156104d857600080fd5b506000805260056020527f05b8ccbb9d4d8fb16ea74ce3c29a41f1b461fbdaff4714a0d9a8eb05499746bc54610285565b34801561051557600080fd5b506105296105243660046126a7565b610cca565b60405161028f91906126e8565b34801561054257600080fd5b506008546102b890600160f81b900460ff1681565b34801561056357600080fd5b5061030f60405180604001604052806003815260200162302e3160e81b81525081565b34801561059257600080fd5b506102856105a136600461268e565b60076020526000908152604090205481565b3480156105bf57600080fd5b506105f26105ce36600461272c565b60046020908152600092835260408084209091529082529020805460019091015482565b6040805192835260208301919091520161028f565b34801561061357600080fd5b506008546102b890600160e01b900460ff1681565b34801561063457600080fd5b5061023e6106433660046126a7565b610d81565b34801561065457600080fd5b5061023e610d92565b34801561066957600080fd5b5061028561067836600461275c565b610dcd565b34801561068957600080fd5b5061023e610ea0565b34801561069e57600080fd5b506102856106ad3660046126a7565b610f0e565b3480156106be57600080fd5b506106c7610f23565b60405161028f9190612779565b3480156106e057600080fd5b5061023e6106ef36600461278d565b610f38565b34801561070057600080fd5b5061028561070f36600461268e565b610fc4565b34801561072057600080fd5b5061028561072f36600461272c565b60009182526004602090815260408084206001600160a01b0393909316845291905290205490565b34801561076357600080fd5b506008546102b890600160e81b900460ff1681565b34801561078457600080fd5b5061028561079336600461275c565b6001600160a01b031660009081526005602052604090205490565b3480156107ba57600080fd5b5061023e6107c936600461275c565b610fd1565b3480156107da57600080fd5b5061023e611056565b3480156107ef57600080fd5b506003546106c7906001600160a01b031681565b34801561080f57600080fd5b5061023e6110de565b34801561082457600080fd5b506008546106c790600160401b90046001600160a01b031681565b34801561084b57600080fd5b5061023e61085a36600461272c565b61114b565b34801561086b57600080fd5b5061023e61087a3660046127f0565b611354565b34801561088b57600080fd5b5061023e61089a36600461275c565b6115b7565b3480156108ab57600080fd5b5061023e6108ba36600461285b565b611654565b3480156108cb57600080fd5b506102856108da36600461268e565b600090815260046020908152604080832083805290915290205490565b34801561090357600080fd5b5061028561091236600461272c565b6118c9565b6000610923600161192c565b9050801561093b576000805461ff0019166101001790555b610944826119c0565b61094f826000611a1b565b61096183600001518460200151611a4c565b610969611a7d565b61097b83604001518460600151611aac565b6109888360800151611add565b80156109cf576000805461ff0019169055604051600181527f7f26b83ff96e1f2b6a682f133852f6798a09c465da95921460cefb3847402498906020015b60405180910390a15b505050565b600080805b84811015610a2157610a038686838181106109f6576109f66128c2565b90506020020135856118c9565b610a0d90836128ee565b915080610a1981612906565b9150506109d9565b50949350505050565b60006301ffc9a760e01b6001600160e01b031983161480610a6457506001600160e01b0319821660009081526001602052604090205460ff165b92915050565b33610a73610f23565b6001600160a01b031614610aa25760405162461bcd60e51b8152600401610a9990612921565b60405180910390fd5b6003546001600160401b03600160a01b909104811690821611610af75760405162461bcd60e51b815260206004820152600d60248201526c10d0539393d517d49155d25391609a1b6044820152606401610a99565b600380546001600160401b03909216600160a01b0267ffffffffffffffff60a01b19909216919091179055565b6000610b306000610dcd565b905090565b33610b3e610f23565b6001600160a01b031614610b645760405162461bcd60e51b8152600401610a9990612921565b60035442600160a01b9091046001600160401b031610610b965760405162461bcd60e51b8152600401610a9990612956565b600880546001600160401b0319166001600160401b0392909216919091179055565b33610bc1610f23565b6001600160a01b031614610be75760405162461bcd60e51b8152600401610a9990612921565b600854600160f81b900460ff1615610c115760405162461bcd60e51b8152600401610a999061297d565b6008805482919060ff60f01b1916600160f01b836003811115610c3657610c36612650565b021790555050565b610c4981600061114b565b50565b600080805b84811015610a215760046000878784818110610c6f57610c6f6128c2565b9050602002013581526020019081526020016000206000856001600160a01b03166001600160a01b031681526020019081526020016000206000015482610cb691906128ee565b915080610cc281612906565b915050610c51565b60606000826001600160401b03811115610ce657610ce6612236565b604051908082528060200260200182016040528015610d0f578160200160208202803683370190505b50905060005b8151811015610d795760076000868684818110610d3457610d346128c2565b90506020020135815260200190815260200160002054828281518110610d5c57610d5c6128c2565b602090810291909101015280610d7181612906565b915050610d15565b509392505050565b610d8e8282600033611654565b5050565b33610d9b610f23565b6001600160a01b031614610dc15760405162461bcd60e51b8152600401610a9990612921565b610dcb60006119c0565b565b60006001600160a01b038216610e01576001600160a01b038216600090815260056020526040902054610a649047906128ee565b6040516370a0823160e01b81526001600160a01b038316906370a0823190610e2d903090600401612779565b60206040518083038186803b158015610e4557600080fd5b505afa158015610e59573d6000803e3d6000fd5b505050506040513d601f19601f82011682018060405250810190610e7d919061299d565b6001600160a01b038316600090815260056020526040902054610a6491906128ee565b33610ea9610f23565b6001600160a01b031614610ecf5760405162461bcd60e51b8152600401610a9990612921565b600854600160e01b900460ff1615610ef95760405162461bcd60e51b8152600401610a999061297d565b6008805460ff60e01b1916600160e01b179055565b6000610f1c83836000610c4c565b9392505050565b6000546201000090046001600160a01b031690565b33610f41610f23565b6001600160a01b031614610f675760405162461bcd60e51b8152600401610a9990612921565b8151815114610f885760405162461bcd60e51b8152600401610a99906129b6565b60035442600160a01b9091046001600160401b031610610fba5760405162461bcd60e51b8152600401610a9990612956565b610d8e8282611b0d565b6000610a648260006118c9565b33610fda610f23565b6001600160a01b0316146110005760405162461bcd60e51b8152600401610a9990612921565b600854600160e01b900460ff161561102a5760405162461bcd60e51b8152600401610a999061297d565b600880546001600160a01b03909216600160401b02600160401b600160e01b0319909216919091179055565b3361105f610f23565b6001600160a01b0316146110855760405162461bcd60e51b8152600401610a9990612921565b600854600160f81b900460ff16156110c75760405162461bcd60e51b815260206004820152600560248201526413d0d2d15160da1b6044820152606401610a99565b600880546001600160f81b0316600160f81b179055565b336110e7610f23565b6001600160a01b03161461110d5760405162461bcd60e51b8152600401610a9990612921565b6008805460ff60e81b1916600160e81b1790556040517fa24423a69b45c25c0479663125e48b482e71d85eae416f589545243bafaf3c9590600090a1565b60028054141561116d5760405162461bcd60e51b8152600401610a99906129dd565b600280553361117d838383611b67565b600061118984846118c9565b9050600081116111ce5760405162461bcd60e51b815260206004820152601060248201526f4e4f5448494e475f544f5f434c41494d60801b6044820152606401610a99565b60008481526004602090815260408083206001600160a01b0387168452909152812080548392906112009084906128ee565b909155505060008481526004602090815260408083206001600160a01b03871684528252808320426001909101556005909152812080548392906112459084906128ee565b90915550506001600160a01b0383166112705761126b6001600160a01b03831682611b7d565b6112f2565b60405163a9059cbb60e01b81526001600160a01b0384169063a9059cbb9061129e9085908590600401612a14565b602060405180830381600087803b1580156112b857600080fd5b505af11580156112cc573d6000803e3d6000fd5b505050506040513d601f19601f820116820180604052508101906112f09190612a2d565b505b604080513381526001600160a01b038481166020830152818301879052851660608201526080810183905290517fa2d3c4c1fc934d6d2d8f9e862df90c01ae4eb0e920cd8957d242ba26b8dc40789181900360a00190a1505060016002555050565b61135d33611c93565b600854600160401b90046001600160a01b03166113b45760405162461bcd60e51b815260206004820152601560248201527415d2551211149055cbd393d7d49150d25412515395605a1b6044820152606401610a99565b600854600160e81b900460ff161561140e5760405162461bcd60e51b815260206004820181905260248201527f57495448445241572f454d455247454e43595f504f5745525f5245564f4b45446044820152606401610a99565b60005b8381101561157357600085858381811061142d5761142d6128c2565b9050602002016020810190611442919061275c565b6001600160a01b0316141561148e57611489838383818110611466576114666128c2565b6008546001600160a01b03600160401b9091041692602090910201359050611b7d565b611561565b8484828181106114a0576114a06128c2565b90506020020160208101906114b5919061275c565b6001600160a01b031663a9059cbb60088054906101000a90046001600160a01b03168585858181106114e9576114e96128c2565b905060200201356040518363ffffffff1660e01b815260040161150d929190612a14565b602060405180830381600087803b15801561152757600080fd5b505af115801561153b573d6000803e3d6000fd5b505050506040513d601f19601f8201168201806040525081019061155f9190612a2d565b505b8061156b81612906565b915050611411565b507fd40c399a83caf67d15628b821aa7c7bd940e563c57a047e2bd3b8c602bcaf5a5848484846040516115a99493929190612a85565b60405180910390a150505050565b336115c0610f23565b6001600160a01b0316146115e65760405162461bcd60e51b8152600401610a9990612921565b6001600160a01b03811661164b5760405162461bcd60e51b815260206004820152602660248201527f4f776e61626c653a206e6577206f776e657220697320746865207a65726f206160448201526564647265737360d01b6064820152608401610a99565b610c49816119c0565b6002805414156116765760405162461bcd60e51b8152600401610a99906129dd565b600280556000805b848110156117a6576116a986868381811061169b5761169b6128c2565b905060200201358585611b67565b60006116cd8787848181106116c0576116c06128c2565b90506020020135866118c9565b905080156117935780600460008989868181106116ec576116ec6128c2565b9050602002013581526020019081526020016000206000876001600160a01b03166001600160a01b03168152602001908152602001600020600001600082825461173691906128ee565b9091555042905060046000898986818110611753576117536128c2565b6020908102929092013583525081810192909252604090810160009081206001600160a01b038a16825290925290206001015561179081846128ee565b92505b508061179e81612906565b91505061167e565b506001600160a01b038316600090815260056020526040812080548392906117cf9084906128ee565b90915550506001600160a01b0383166117fa576117f56001600160a01b03831682611b7d565b61187c565b60405163a9059cbb60e01b81526001600160a01b0384169063a9059cbb906118289085908590600401612a14565b602060405180830381600087803b15801561184257600080fd5b505af1158015611856573d6000803e3d6000fd5b505050506040513d601f19601f8201168201806040525081019061187a9190612a2d565b505b7fd84a5c424a4f777bcf4f645712b8e5ebfc550f42bde444fa822fe98ee1b132b13383878787866040516118b596959493929190612ae8565b60405180910390a150506001600255505050565b6000806118e56118de6118db85610dcd565b90565b8585611e24565b60008581526004602090815260408083206001600160a01b03881684529091529020549091506119159082612b27565b949350505050565b6001600160a01b03163b151590565b60008054610100900460ff161561197a578160ff16600114801561195657506119543061191d565b155b6119725760405162461bcd60e51b8152600401610a9990612b3e565b506000919050565b60005460ff8084169116106119a15760405162461bcd60e51b8152600401610a9990612b3e565b506000805460ff191660ff92909216919091179055600190565b919050565b600080546001600160a01b038381166201000081810262010000600160b01b0319851617855560405193049190911692909183917f8be0079c531659141344cd1fd0a4f28419497f9722a3daafe3b4186f6b6457e091a35050565b600054610100900460ff16611a425760405162461bcd60e51b8152600401610a9990612b8c565b610d8e8282611e4d565b600054610100900460ff16611a735760405162461bcd60e51b8152600401610a9990612b8c565b610d8e8282611ee7565b600054610100900460ff16611aa45760405162461bcd60e51b8152600401610a9990612b8c565b610dcb611f4c565b600054610100900460ff16611ad35760405162461bcd60e51b8152600401610a9990612b8c565b610d8e8282611f83565b600054610100900460ff16611b045760405162461bcd60e51b8152600401610a9990612b8c565b610c4981611fe5565b60005b81518110156109cf57611b55838281518110611b2e57611b2e6128c2565b6020026020010151838381518110611b4857611b486128c2565b6020026020010151612037565b80611b5f81612906565b915050611b10565b611b728383836120a6565b6109cf83838361216a565b80471015611bcd5760405162461bcd60e51b815260206004820152601d60248201527f416464726573733a20696e73756666696369656e742062616c616e63650000006044820152606401610a99565b6000826001600160a01b03168260405160006040518083038185875af1925050503d8060008114611c1a576040519150601f19603f3d011682016040523d82523d6000602084013e611c1f565b606091505b50509050806109cf5760405162461bcd60e51b815260206004820152603a60248201527f416464726573733a20756e61626c6520746f2073656e642076616c75652c20726044820152791958da5c1a595b9d081b585e481a185d99481c995d995c9d195960321b6064820152608401610a99565b6003600854600160f01b900460ff166003811115611cb357611cb3612650565b1415611cf35760405162461bcd60e51b815260206004820152600f60248201526e15d2551211149055cbd313d0d2d151608a1b6044820152606401610a99565b6002600854600160f01b900460ff166003811115611d1357611d13612650565b1415611d1c5750565b6001600854600160f01b900460ff166003811115611d3c57611d3c612650565b1415611da0576008546001600160a01b03828116600160401b9092041614610c495760405162461bcd60e51b815260206004820152601760248201527615d2551211149055cbd3d3931657d49150d25412515395604a1b6044820152606401610a99565b6000600854600160f01b900460ff166003811115611dc057611dc0612650565b1415610c4957806001600160a01b0316611dd8610f23565b6001600160a01b031614610c495760405162461bcd60e51b81526020600482015260136024820152722ba4aa24222920ab97a7a7262cafa7aba722a960691b6044820152606401610a99565b600654600083815260076020526040812054909190611e439086612bd7565b6119159190612bf6565b600054610100900460ff16611e745760405162461bcd60e51b8152600401610a9990612b8c565b611e8463ac2ba33360e01b6121b5565b60088054600160401b600160e01b03198116600160401b6001600160a01b038616029081178355839291600160401b62ff000160e01b03191660ff60f01b1990911617600160f01b836003811115611ede57611ede612650565b02179055505050565b600054610100900460ff16611f0e5760405162461bcd60e51b8152600401610a9990612b8c565b600380546001600160401b038316600160a01b026001600160e01b03199091166001600160a01b03851617179055610d8e631ba050e960e21b6121b5565b600054610100900460ff16611f735760405162461bcd60e51b8152600401610a9990612b8c565b610dcb631259990960e01b6121b5565b600054610100900460ff16611faa5760405162461bcd60e51b8152600401610a9990612b8c565b8151815114611fcb5760405162461bcd60e51b8152600401610a99906129b6565b611fd58282611b0d565b610d8e6333c7a33f60e11b6121b5565b600054610100900460ff1661200c5760405162461bcd60e51b8152600401610a9990612b8c565b600880546001600160401b0319166001600160401b038316179055610c496317b2ef4360e31b6121b5565b6000828152600760205260409020805490829055600654819061205b9084906128ee565b6120659190612b27565b60065560408051848152602081018390529081018390527ff81b1f9d8b5d36a5a67d13006a8b091a9b63e2a38b331d315d99c6daefd2ddcc906060016109c6565b6003546040516331a9108f60e11b8152600481018590526001600160a01b03838116921690636352211e9060240160206040518083038186803b1580156120ec57600080fd5b505afa158015612100573d6000803e3d6000fd5b505050506040513d601f19601f820116820180604052508101906121249190612c18565b6001600160a01b0316146109cf5760405162461bcd60e51b815260206004820152600d60248201526c2727aa2fa7232a2fa7aba722a960991b6044820152606401610a99565b600854426001600160401b03909116106109cf5760405162461bcd60e51b815260206004820152600c60248201526b10d310525357d313d0d2d15160a21b6044820152606401610a99565b6001600160e01b0319808216141561220e5760405162461bcd60e51b815260206004820152601c60248201527b115490cc4d8d4e881a5b9d985b1a59081a5b9d195c999858d9481a5960221b6044820152606401610a99565b6001600160e01b0319166000908152600160208190526040909120805460ff19169091179055565b634e487b7160e01b600052604160045260246000fd5b60405160a081016001600160401b038111828210171561226e5761226e612236565b60405290565b604051601f8201601f191681016001600160401b038111828210171561229c5761229c612236565b604052919050565b6001600160a01b0381168114610c4957600080fd5b80356119bb816122a4565b80356001600160401b03811681146119bb57600080fd5b600082601f8301126122ec57600080fd5b813560206001600160401b0382111561230757612307612236565b8160051b612316828201612274565b928352848101820192828101908785111561233057600080fd5b83870192505b8483101561234f57823582529183019190830190612336565b979650505050505050565b6000806040838503121561236d57600080fd5b82356001600160401b038082111561238457600080fd5b9084019060a0828703121561239857600080fd5b6123a061224c565b82356123ab816122a4565b81526123b9602084016122c4565b60208201526040830135828111156123d057600080fd5b6123dc888286016122db565b6040830152506060830135828111156123f457600080fd5b612400888286016122db565b606083015250612412608084016122c4565b60808201529350612428915050602084016122b9565b90509250929050565b60008083601f84011261244357600080fd5b5081356001600160401b0381111561245a57600080fd5b6020830191508360208260051b850101111561247557600080fd5b9250929050565b60008060006040848603121561249157600080fd5b83356001600160401b038111156124a757600080fd5b6124b386828701612431565b90945092505060208401356124c7816122a4565b809150509250925092565b6000602082840312156124e457600080fd5b81356001600160e01b031981168114610f1c57600080fd5b600060208083528351808285015260005b818110156125295785810183015185820160400152820161250d565b8181111561253b576000604083870101525b50601f01601f1916929092016040019392505050565b6000806000806080858703121561256757600080fd5b8435612572816122a4565b9350602085810135612583816122a4565b93506040860135925060608601356001600160401b03808211156125a657600080fd5b818801915088601f8301126125ba57600080fd5b8135818111156125cc576125cc612236565b6125de601f8201601f19168501612274565b915080825289848285010111156125f457600080fd5b808484018584013760008482840101525080935050505092959194509250565b60006020828403121561262657600080fd5b610f1c826122c4565b60006020828403121561264157600080fd5b813560048110610f1c57600080fd5b634e487b7160e01b600052602160045260246000fd5b602081016004831061268857634e487b7160e01b600052602160045260246000fd5b91905290565b6000602082840312156126a057600080fd5b5035919050565b600080602083850312156126ba57600080fd5b82356001600160401b038111156126d057600080fd5b6126dc85828601612431565b90969095509350505050565b6020808252825182820181905260009190848201906040850190845b8181101561272057835183529284019291840191600101612704565b50909695505050505050565b6000806040838503121561273f57600080fd5b823591506020830135612751816122a4565b809150509250929050565b60006020828403121561276e57600080fd5b8135610f1c816122a4565b6001600160a01b0391909116815260200190565b600080604083850312156127a057600080fd5b82356001600160401b03808211156127b757600080fd5b6127c3868387016122db565b935060208501359150808211156127d957600080fd5b506127e6858286016122db565b9150509250929050565b6000806000806040858703121561280657600080fd5b84356001600160401b038082111561281d57600080fd5b61282988838901612431565b9096509450602087013591508082111561284257600080fd5b5061284f87828801612431565b95989497509550505050565b6000806000806060858703121561287157600080fd5b84356001600160401b0381111561288757600080fd5b61289387828801612431565b90955093505060208501356128a7816122a4565b915060408501356128b7816122a4565b939692955090935050565b634e487b7160e01b600052603260045260246000fd5b634e487b7160e01b600052601160045260246000fd5b60008219821115612901576129016128d8565b500190565b600060001982141561291a5761291a6128d8565b5060010190565b6020808252818101527f4f776e61626c653a2063616c6c6572206973206e6f7420746865206f776e6572604082015260600190565b6020808252600d908201526c10d3d3919251d7d313d0d2d151609a1b604082015260600190565b6020808252600690820152651313d0d2d15160d21b604082015260600190565b6000602082840312156129af57600080fd5b5051919050565b6020808252600d908201526c082a48ea6be9a92a69a82a8869609b1b604082015260600190565b6020808252601f908201527f5265656e7472616e637947756172643a207265656e7472616e742063616c6c00604082015260600190565b6001600160a01b03929092168252602082015260400190565b600060208284031215612a3f57600080fd5b81518015158114610f1c57600080fd5b81835260006001600160fb1b03831115612a6857600080fd5b8260051b8083602087013760009401602001938452509192915050565b6040808252810184905260008560608301825b87811015612ac8578235612aab816122a4565b6001600160a01b0316825260209283019290910190600101612a98565b508381036020850152612adc818688612a4f565b98975050505050505050565b600060018060a01b038089168352808816602084015260a06040840152612b1360a084018789612a4f565b941660608301525060800152949350505050565b600082821015612b3957612b396128d8565b500390565b6020808252602e908201527f496e697469616c697a61626c653a20636f6e747261637420697320616c72656160408201526d191e481a5b9a5d1a585b1a5e995960921b606082015260800190565b6020808252602b908201527f496e697469616c697a61626c653a20636f6e7472616374206973206e6f74206960408201526a6e697469616c697a696e6760a81b606082015260800190565b6000816000190483118215151615612bf157612bf16128d8565b500290565b600082612c1357634e487b7160e01b600052601260045260246000fd5b500490565b600060208284031215612c2a57600080fd5b8151610f1c816122a456fea264697066735822122055c18149a2e90573a815cdca1430904909d09c5ca294e4038f00726bec4fec5864736f6c63430008090033",
  "devdoc": {
    "kind": "dev",
    "methods": {
      "owner()": {
        "details": "Returns the address of the current owner."
      },
      "renounceOwnership()": {
        "details": "Leaves the contract without owner. It will not be possible to call `onlyOwner` functions anymore. Can only be called by the current owner. NOTE: Renouncing ownership will leave the contract without an owner, thereby removing any functionality that is only available to the owner."
      },
      "supportsInterface(bytes4)": {
        "details": "See {IERC165-supportsInterface}."
      },
      "transferOwnership(address)": {
        "details": "Transfers ownership of the contract to a new account (`newOwner`). Can only be called by the current owner."
      }
    },
    "version": 1
  },
  "userdoc": {
    "kind": "user",
    "methods": {},
    "version": 1
  },
  "storageLayout": {
    "storage": [
      {
        "astId": 886,
        "contract": "contracts/streams/ERC721/presets/ERC721ShareInstantStream.sol:ERC721ShareInstantStream",
        "label": "_initialized",
        "offset": 0,
        "slot": "0",
        "type": "t_uint8"
      },
      {
        "astId": 889,
        "contract": "contracts/streams/ERC721/presets/ERC721ShareInstantStream.sol:ERC721ShareInstantStream",
        "label": "_initializing",
        "offset": 1,
        "slot": "0",
        "type": "t_bool"
      },
      {
        "astId": 782,
        "contract": "contracts/streams/ERC721/presets/ERC721ShareInstantStream.sol:ERC721ShareInstantStream",
        "label": "_owner",
        "offset": 2,
        "slot": "0",
        "type": "t_address"
      },
      {
        "astId": 4693,
        "contract": "contracts/streams/ERC721/presets/ERC721ShareInstantStream.sol:ERC721ShareInstantStream",
        "label": "_supportedInterfaces",
        "offset": 0,
        "slot": "1",
        "type": "t_mapping(t_bytes4,t_bool)"
      },
      {
        "astId": 1124,
        "contract": "contracts/streams/ERC721/presets/ERC721ShareInstantStream.sol:ERC721ShareInstantStream",
        "label": "_status",
        "offset": 0,
        "slot": "2",
        "type": "t_uint256"
      },
      {
        "astId": 15170,
        "contract": "contracts/streams/ERC721/presets/ERC721ShareInstantStream.sol:ERC721ShareInstantStream",
        "label": "ticketToken",
        "offset": 0,
        "slot": "3",
        "type": "t_address"
      },
      {
        "astId": 15172,
        "contract": "contracts/streams/ERC721/presets/ERC721ShareInstantStream.sol:ERC721ShareInstantStream",
        "label": "lockedUntilTimestamp",
        "offset": 20,
        "slot": "3",
        "type": "t_uint64"
      },
      {
        "astId": 15179,
        "contract": "contracts/streams/ERC721/presets/ERC721ShareInstantStream.sol:ERC721ShareInstantStream",
        "label": "entitlements",
        "offset": 0,
        "slot": "4",
        "type": "t_mapping(t_uint256,t_mapping(t_address,t_struct(Entitlement)15168_storage))"
      },
      {
        "astId": 15183,
        "contract": "contracts/streams/ERC721/presets/ERC721ShareInstantStream.sol:ERC721ShareInstantStream",
        "label": "_streamTotalClaimed",
        "offset": 0,
        "slot": "5",
        "type": "t_mapping(t_address,t_uint256)"
      },
      {
        "astId": 17042,
        "contract": "contracts/streams/ERC721/presets/ERC721ShareInstantStream.sol:ERC721ShareInstantStream",
        "label": "totalShares",
        "offset": 0,
        "slot": "6",
        "type": "t_uint256"
      },
      {
        "astId": 17046,
        "contract": "contracts/streams/ERC721/presets/ERC721ShareInstantStream.sol:ERC721ShareInstantStream",
        "label": "shares",
        "offset": 0,
        "slot": "7",
        "type": "t_mapping(t_uint256,t_uint256)"
      },
      {
        "astId": 16693,
        "contract": "contracts/streams/ERC721/presets/ERC721ShareInstantStream.sol:ERC721ShareInstantStream",
        "label": "claimLockedUntil",
        "offset": 0,
        "slot": "8",
        "type": "t_uint64"
      },
      {
        "astId": 13807,
        "contract": "contracts/streams/ERC721/presets/ERC721ShareInstantStream.sol:ERC721ShareInstantStream",
        "label": "withdrawRecipient",
        "offset": 8,
        "slot": "8",
        "type": "t_address"
      },
      {
        "astId": 13809,
        "contract": "contracts/streams/ERC721/presets/ERC721ShareInstantStream.sol:ERC721ShareInstantStream",
        "label": "withdrawRecipientLocked",
        "offset": 28,
        "slot": "8",
        "type": "t_bool"
      },
      {
        "astId": 13811,
        "contract": "contracts/streams/ERC721/presets/ERC721ShareInstantStream.sol:ERC721ShareInstantStream",
        "label": "withdrawPowerRevoked",
        "offset": 29,
        "slot": "8",
        "type": "t_bool"
      },
      {
        "astId": 13814,
        "contract": "contracts/streams/ERC721/presets/ERC721ShareInstantStream.sol:ERC721ShareInstantStream",
        "label": "withdrawMode",
        "offset": 30,
        "slot": "8",
        "type": "t_enum(WithdrawMode)13751"
      },
      {
        "astId": 13816,
        "contract": "contracts/streams/ERC721/presets/ERC721ShareInstantStream.sol:ERC721ShareInstantStream",
        "label": "withdrawModeLocked",
        "offset": 31,
        "slot": "8",
        "type": "t_bool"
      }
    ],
    "types": {
      "t_address": {
        "encoding": "inplace",
        "label": "address",
        "numberOfBytes": "20"
      },
      "t_bool": {
        "encoding": "inplace",
        "label": "bool",
        "numberOfBytes": "1"
      },
      "t_bytes4": {
        "encoding": "inplace",
        "label": "bytes4",
        "numberOfBytes": "4"
      },
      "t_enum(WithdrawMode)13751": {
        "encoding": "inplace",
        "label": "enum WithdrawMode",
        "numberOfBytes": "1"
      },
      "t_mapping(t_address,t_struct(Entitlement)15168_storage)": {
        "encoding": "mapping",
        "key": "t_address",
        "label": "mapping(address => struct ERC721MultiTokenStream.Entitlement)",
        "numberOfBytes": "32",
        "value": "t_struct(Entitlement)15168_storage"
      },
      "t_mapping(t_address,t_uint256)": {
        "encoding": "mapping",
        "key": "t_address",
        "label": "mapping(address => uint256)",
        "numberOfBytes": "32",
        "value": "t_uint256"
      },
      "t_mapping(t_bytes4,t_bool)": {
        "encoding": "mapping",
        "key": "t_bytes4",
        "label": "mapping(bytes4 => bool)",
        "numberOfBytes": "32",
        "value": "t_bool"
      },
      "t_mapping(t_uint256,t_mapping(t_address,t_struct(Entitlement)15168_storage))": {
        "encoding": "mapping",
        "key": "t_uint256",
        "label": "mapping(uint256 => mapping(address => struct ERC721MultiTokenStream.Entitlement))",
        "numberOfBytes": "32",
        "value": "t_mapping(t_address,t_struct(Entitlement)15168_storage)"
      },
      "t_mapping(t_uint256,t_uint256)": {
        "encoding": "mapping",
        "key": "t_uint256",
        "label": "mapping(uint256 => uint256)",
        "numberOfBytes": "32",
        "value": "t_uint256"
      },
      "t_struct(Entitlement)15168_storage": {
        "encoding": "inplace",
        "label": "struct ERC721MultiTokenStream.Entitlement",
        "members": [
          {
            "astId": 15165,
            "contract": "contracts/streams/ERC721/presets/ERC721ShareInstantStream.sol:ERC721ShareInstantStream",
            "label": "totalClaimed",
            "offset": 0,
            "slot": "0",
            "type": "t_uint256"
          },
          {
            "astId": 15167,
            "contract": "contracts/streams/ERC721/presets/ERC721ShareInstantStream.sol:ERC721ShareInstantStream",
            "label": "lastClaimedAt",
            "offset": 0,
            "slot": "1",
            "type": "t_uint256"
          }
        ],
        "numberOfBytes": "64"
      },
      "t_uint256": {
        "encoding": "inplace",
        "label": "uint256",
        "numberOfBytes": "32"
      },
      "t_uint64": {
        "encoding": "inplace",
        "label": "uint64",
        "numberOfBytes": "8"
      },
      "t_uint8": {
        "encoding": "inplace",
        "label": "uint8",
        "numberOfBytes": "1"
      }
    }
  }
}