{
  "address": "0xa90d84C7A87a52C79d66B0bFC4792bB80348E971",
  "abi": [
    {
      "inputs": [],
      "name": "ErrMaxSupplyFrozen",
      "type": "error"
    },
    {
      "anonymous": false,
      "inputs": [
        {
          "indexed": true,
          "internalType": "address",
          "name": "previousOwner",
          "type": "address"
        },
        {
          "indexed": true,
          "internalType": "address",
          "name": "newOwner",
          "type": "address"
        }
      ],
      "name": "OwnershipTransferred",
      "type": "event"
    },
    {
      "inputs": [],
      "name": "freezeMaxSupply",
      "outputs": [],
      "stateMutability": "nonpayable",
      "type": "function"
    },
    {
      "inputs": [
        {
          "internalType": "uint256",
          "name": "newValue",
          "type": "uint256"
        }
      ],
      "name": "setMaxSupply",
      "outputs": [],
      "stateMutability": "nonpayable",
      "type": "function"
    }
  ],
  "transactionHash": "0xb41aa26d09b9e744d09e71ff274ff431f44f6b03e76a74ce4cdd566035f7098c",
  "args": [],
  "numDeployments": 1,
  "solcInputHash": "15b2d8695916373a5a63b8cefdb76ee1",
  "bytecode": "0x608060405234801561001057600080fd5b50610266806100206000396000f3fe608060405234801561001057600080fd5b50600436106100365760003560e01c8063167446071461003b5780636f8b44b014610045575b600080fd5b610043610058565b005b610043610053366004610217565b610111565b7fc0ea367cb0174dd5521cd2372c76f8c13e6c1f832c71f1d6e0cbc185c9cc8ed45473ffffffffffffffffffffffffffffffffffffffff1633146100e35760405162461bcd60e51b815260206004820152601d60248201527f4f776e61626c653a2073656e646572206d757374206265206f776e657200000060448201526064015b60405180910390fd5b7fbcb5379325aa7bbb39c6e8a7078c057698e285f8d4d4341334ae2b0ada741143805460ff19166001179055565b7fc0ea367cb0174dd5521cd2372c76f8c13e6c1f832c71f1d6e0cbc185c9cc8ed45473ffffffffffffffffffffffffffffffffffffffff1633146101975760405162461bcd60e51b815260206004820152601d60248201527f4f776e61626c653a2073656e646572206d757374206265206f776e657200000060448201526064016100da565b7fbcb5379325aa7bbb39c6e8a7078c057698e285f8d4d4341334ae2b0ada7411435460ff16156101f3576040517f600d428700000000000000000000000000000000000000000000000000000000815260040160405180910390fd5b7faa3a0910ce5fb062d392dc5a532ff9d50bb9d0f614a8eda1a3ec786de0b761f355565b60006020828403121561022957600080fd5b503591905056fea2646970667358221220b80dabd3dbcbae646736b17907f2eab8917fc6a30ab7ae5ab6440989f3f1ab8e64736f6c634300080f0033",
  "devdoc": {
    "custom:category": "NFTs",
    "custom:peer-dependencies": "IERC721Supply",
    "custom:provides-interfaces": "IERC721SupplyAdmin",
    "custom:type": "eip-2535-facet",
    "kind": "dev",
    "methods": {},
    "title": "ERC721 - Supply - Admin - Ownable",
    "version": 1
  },
  "userdoc": {
    "kind": "user",
    "methods": {},
    "notice": "Allows owner of a EIP-721 contract to change max supply of tokens.",
    "version": 1
  },
  "storageLayout": {
    "storage": [],
    "types": null
  }
}