{
  "address": "0x12F970659844A8b5CBb52BD677f3338BB9bABd94",
  "abi": [
    {
      "anonymous": false,
      "inputs": [
        {
          "indexed": true,
          "internalType": "address",
          "name": "previousOwner",
          "type": "address"
        },
        {
          "indexed": true,
          "internalType": "address",
          "name": "newOwner",
          "type": "address"
        }
      ],
      "name": "OwnershipTransferred",
      "type": "event"
    },
    {
      "inputs": [
        {
          "internalType": "uint256",
          "name": "tierId",
          "type": "uint256"
        },
        {
          "internalType": "address",
          "name": "minter",
          "type": "address"
        },
        {
          "internalType": "uint256",
          "name": "maxAllowance",
          "type": "uint256"
        },
        {
          "internalType": "bytes32[]",
          "name": "proof",
          "type": "bytes32[]"
        }
      ],
      "name": "eligibleForTier",
      "outputs": [
        {
          "internalType": "uint256",
          "name": "maxMintable",
          "type": "uint256"
        }
      ],
      "stateMutability": "view",
      "type": "function"
    },
    {
      "inputs": [
        {
          "internalType": "uint256",
          "name": "tierId",
          "type": "uint256"
        },
        {
          "internalType": "uint256",
          "name": "count",
          "type": "uint256"
        },
        {
          "internalType": "uint256",
          "name": "maxAllowance",
          "type": "uint256"
        },
        {
          "internalType": "bytes32[]",
          "name": "proof",
          "type": "bytes32[]"
        }
      ],
      "name": "mintByTier",
      "outputs": [],
      "stateMutability": "payable",
      "type": "function"
    },
    {
      "inputs": [
        {
          "internalType": "uint256",
          "name": "tierId",
          "type": "uint256"
        },
        {
          "internalType": "address",
          "name": "minter",
          "type": "address"
        },
        {
          "internalType": "uint256",
          "name": "maxAllowance",
          "type": "uint256"
        },
        {
          "internalType": "bytes32[]",
          "name": "proof",
          "type": "bytes32[]"
        }
      ],
      "name": "onTierAllowlist",
      "outputs": [
        {
          "internalType": "bool",
          "name": "",
          "type": "bool"
        }
      ],
      "stateMutability": "view",
      "type": "function"
    },
    {
      "inputs": [
        {
          "internalType": "uint256",
          "name": "tierId",
          "type": "uint256"
        }
      ],
      "name": "remainingForTier",
      "outputs": [
        {
          "internalType": "uint256",
          "name": "",
          "type": "uint256"
        }
      ],
      "stateMutability": "view",
      "type": "function"
    },
    {
      "inputs": [],
      "name": "reservedMints",
      "outputs": [
        {
          "internalType": "uint256",
          "name": "",
          "type": "uint256"
        }
      ],
      "stateMutability": "view",
      "type": "function"
    },
    {
      "inputs": [
        {
          "internalType": "uint256",
          "name": "tierId",
          "type": "uint256"
        }
      ],
      "name": "tierMints",
      "outputs": [
        {
          "internalType": "uint256",
          "name": "",
          "type": "uint256"
        }
      ],
      "stateMutability": "view",
      "type": "function"
    },
    {
      "inputs": [
        {
          "internalType": "uint256",
          "name": "tierId",
          "type": "uint256"
        }
      ],
      "name": "tiers",
      "outputs": [
        {
          "components": [
            {
              "internalType": "uint256",
              "name": "start",
              "type": "uint256"
            },
            {
              "internalType": "uint256",
              "name": "end",
              "type": "uint256"
            },
            {
              "internalType": "address",
              "name": "currency",
              "type": "address"
            },
            {
              "internalType": "uint256",
              "name": "price",
              "type": "uint256"
            },
            {
              "internalType": "uint256",
              "name": "maxPerWallet",
              "type": "uint256"
            },
            {
              "internalType": "bytes32",
              "name": "merkleRoot",
              "type": "bytes32"
            },
            {
              "internalType": "uint256",
              "name": "reserved",
              "type": "uint256"
            },
            {
              "internalType": "uint256",
              "name": "maxAllocation",
              "type": "uint256"
            }
          ],
          "internalType": "struct ITieredSalesInternal.Tier",
          "name": "",
          "type": "tuple"
        }
      ],
      "stateMutability": "view",
      "type": "function"
    },
    {
      "inputs": [],
      "name": "totalReserved",
      "outputs": [
        {
          "internalType": "uint256",
          "name": "",
          "type": "uint256"
        }
      ],
      "stateMutability": "view",
      "type": "function"
    },
    {
      "inputs": [
        {
          "internalType": "uint256",
          "name": "tierId",
          "type": "uint256"
        },
        {
          "internalType": "address",
          "name": "wallet",
          "type": "address"
        }
      ],
      "name": "walletMintedByTier",
      "outputs": [
        {
          "internalType": "uint256",
          "name": "",
          "type": "uint256"
        }
      ],
      "stateMutability": "view",
      "type": "function"
    }
  ],
  "transactionHash": "0x22b8a505ffe3271056647f35d3eb459c6f173069c6fcccad1321deca34e0442e",
  "args": [],
  "numDeployments": 1,
  "solcInputHash": "342733d52a8c0a80464cb61009012365",
  "bytecode": "0x608060405234801561001057600080fd5b506001600055610feb806100256000396000f3fe6080604052600436106100965760003560e01c80635897f8781161006957806368c7d37c1161004e57806368c7d37c14610253578063bd2c18f714610283578063c71b0e1c146102a357600080fd5b80635897f8781461021e5780635ea2c91b1461023e57600080fd5b8063039af9eb1461009b5780631123f2ef1461012e5780632cb9b2ac1461019e57806353367f08146101d2575b600080fd5b3480156100a757600080fd5b506100bb6100b6366004610da7565b6102d7565b604051610125919060006101008201905082518252602083015160208301526001600160a01b036040840151166040830152606083015160608301526080830151608083015260a083015160a083015260c083015160c083015260e083015160e083015292915050565b60405180910390f35b34801561013a57600080fd5b50610190610149366004610ddc565b60009182527fb7471df0c7246ed3d4a380504edfbb03f5845b709c7716243791636e4ba46cbf602090815260408084206001600160a01b0393909316845291905290205490565b604051908152602001610125565b3480156101aa57600080fd5b507fb7471df0c7246ed3d4a380504edfbb03f5845b709c7716243791636e4ba46cbc54610190565b3480156101de57600080fd5b506101906101ed366004610da7565b60009081527fb7471df0c7246ed3d4a380504edfbb03f5845b709c7716243791636e4ba46cbe602052604090205490565b34801561022a57600080fd5b50610190610239366004610da7565b6103c1565b61025161024c366004610e54565b610438565b005b34801561025f57600080fd5b5061027361026e366004610eb5565b61052c565b6040519015158152602001610125565b34801561028f57600080fd5b5061019061029e366004610eb5565b610545565b3480156102af57600080fd5b507fb7471df0c7246ed3d4a380504edfbb03f5845b709c7716243791636e4ba46cbb54610190565b61032b604051806101000160405280600081526020016000815260200160006001600160a01b0316815260200160008152602001600081526020016000801916815260200160008152602001600081525090565b5060009081527fb7471df0c7246ed3d4a380504edfbb03f5845b709c7716243791636e4ba46cbd60209081526040918290208251610100810184528154815260018201549281019290925260028101546001600160a01b0316928201929092526003820154606082015260048201546080820152600582015460a0820152600682015460c082015260079091015460e082015290565b60007fb7471df0c7246ed3d4a380504edfbb03f5845b709c7716243791636e4ba46cbb816103ee84610578565b600085815260038401602090815260408083205460028701909252822060070154929350909161041e9190610f16565b90508082101561043057509392505050565b949350505050565b60026000540361048f5760405162461bcd60e51b815260206004820152601f60248201527f5265656e7472616e637947756172643a207265656e7472616e742063616c6c0060448201526064015b60405180910390fd5b60026000556104a18585858585610630565b30632d4f475f336040517fffffffff0000000000000000000000000000000000000000000000000000000060e084901b1681526001600160a01b03909116600482015260248101879052604401600060405180830381600087803b15801561050857600080fd5b505af115801561051c573d6000803e3d6000fd5b5050600160005550505050505050565b600061053b8686868686610984565b9695505050505050565b600061053b8686868686610a40565b7fb7471df0c7246ed3d4a380504edfbb03f5845b709c7716243791636e4ba46cbb90565b7fb7471df0c7246ed3d4a380504edfbb03f5845b709c7716243791636e4ba46cbc547fb7471df0c7246ed3d4a380504edfbb03f5845b709c7716243791636e4ba46cbb80546000926105c991610f16565b6105d590600019610f16565b60008481526002830160205260409020600601549092501561062a576000838152600382016020908152604080832054600285019092529091206006015461061d9190610f16565b6106279083610f2d565b91505b50919050565b3360006106408783878787610a40565b90507fb7471df0c7246ed3d4a380504edfbb03f5845b709c7716243791636e4ba46cbb818711156106b35760405162461bcd60e51b815260206004820152600b60248201527f455843454544535f4d41580000000000000000000000000000000000000000006044820152606401610486565b6106bc88610578565b87111561070b5760405162461bcd60e51b815260206004820152601260248201527f455843454544535f414c4c4f434154494f4e00000000000000000000000000006044820152606401610486565b600088815260028201602090815260408083206007015460038501909252909120546107379089610f2d565b11156107855760405162461bcd60e51b815260206004820152601260248201527f455843454544535f414c4c4f434154494f4e00000000000000000000000000006044820152606401610486565b60008881526002808301602052604090912001546001600160a01b031661081a57600088815260028201602052604090206003015434906107c7908990610f45565b11156108155760405162461bcd60e51b815260206004820152601360248201527f494e53554646494349454e545f414d4f554e54000000000000000000000000006044820152606401610486565b6108e9565b600088815260028083016020526040909120908101546003909101546001600160a01b03909116906323b872dd9085903090610857908c90610f45565b6040517fffffffff0000000000000000000000000000000000000000000000000000000060e086901b1681526001600160a01b03938416600482015292909116602483015260448201526064016020604051808303816000875af11580156108c3573d6000803e3d6000fd5b505050506040513d601f19601f820116820180604052508101906108e79190610f64565b505b600088815260048201602090815260408083206001600160a01b03871684529091528120805489929061091d908490610f2d565b9091555050600088815260038201602052604081208054899290610942908490610f2d565b909155505060008881526002820160205260409020600601541561097a57868160010160008282546109749190610f2d565b90915550505b5050505050505050565b600061053b8383808060200260200160405190810160405280939291908181526020018383602002808284376000920191909152506109c69250610554915050565b60008981526002919091016020526040902060050154610a3b88886040517fffffffffffffffffffffffffffffffffffffffff000000000000000000000000606084901b1660208201526034810182905260009060540160405160208183030381529060405280519060200120905092915050565b610d12565b60008581527fb7471df0c7246ed3d4a380504edfbb03f5845b709c7716243791636e4ba46cbd60205260408120600401547fb7471df0c7246ed3d4a380504edfbb03f5845b709c7716243791636e4ba46cbb90610adf5760405162461bcd60e51b815260206004820152600a60248201527f4e4f545f455849535453000000000000000000000000000000000000000000006044820152606401610486565b6000878152600282016020526040902054421015610b3f5760405162461bcd60e51b815260206004820152600b60248201527f4e4f545f535441525445440000000000000000000000000000000000000000006044820152606401610486565b6000878152600282016020526040902060010154421115610ba25760405162461bcd60e51b815260206004820152600d60248201527f414c52454144595f454e444544000000000000000000000000000000000000006044820152606401610486565b60008781526004808301602090815260408084206001600160a01b038b1685528252808420548b8552600286019092529092200154610be19190610f16565b600088815260028301602052604090206005015490925015610d0857600087815260048201602090815260408083206001600160a01b038a1684529091529020548511610c705760405162461bcd60e51b815260206004820152600f60248201527f4d415845445f414c4c4f57414e434500000000000000000000000000000000006044820152606401610486565b610c7d8787878787610984565b610cc95760405162461bcd60e51b815260206004820152600f60248201527f4e4f545f414c4c4f574c495354454400000000000000000000000000000000006044820152606401610486565b600087815260048201602090815260408083206001600160a01b038a168452909152812054610cf89087610f16565b905080831115610d06578092505b505b5095945050505050565b600082610d1f8584610d28565b14949350505050565b600081815b8451811015610d6d57610d5982868381518110610d4c57610d4c610f86565b6020026020010151610d75565b915080610d6581610f9c565b915050610d2d565b509392505050565b6000818310610d91576000828152602084905260409020610da0565b60008381526020839052604090205b9392505050565b600060208284031215610db957600080fd5b5035919050565b80356001600160a01b0381168114610dd757600080fd5b919050565b60008060408385031215610def57600080fd5b82359150610dff60208401610dc0565b90509250929050565b60008083601f840112610e1a57600080fd5b50813567ffffffffffffffff811115610e3257600080fd5b6020830191508360208260051b8501011115610e4d57600080fd5b9250929050565b600080600080600060808688031215610e6c57600080fd5b853594506020860135935060408601359250606086013567ffffffffffffffff811115610e9857600080fd5b610ea488828901610e08565b969995985093965092949392505050565b600080600080600060808688031215610ecd57600080fd5b85359450610edd60208701610dc0565b935060408601359250606086013567ffffffffffffffff811115610e9857600080fd5b634e487b7160e01b600052601160045260246000fd5b600082821015610f2857610f28610f00565b500390565b60008219821115610f4057610f40610f00565b500190565b6000816000190483118215151615610f5f57610f5f610f00565b500290565b600060208284031215610f7657600080fd5b81518015158114610da057600080fd5b634e487b7160e01b600052603260045260246000fd5b600060018201610fae57610fae610f00565b506001019056fea2646970667358221220d4ba90fc49328f524625f6e8b5084aec5edbb603feed2491af979250f194ebc564736f6c634300080f0033",
  "devdoc": {
    "custom:category": "NFTs",
    "custom:provides-interfaces": "ITieredSales",
    "custom:required-dependencies": "IERC721Mintable",
    "custom:type": "eip-2535-facet",
    "kind": "dev",
    "methods": {},
    "title": "ERC721 - Tiered Sales",
    "version": 1
  },
  "userdoc": {
    "kind": "user",
    "methods": {},
    "notice": "Sales mechanism for ERC721 NFTs with multiple tiered pricing, allowlist and allocation plans.",
    "version": 1
  },
  "storageLayout": {
    "storage": [
      {
        "astId": 393,
        "contract": "src/token/ERC721/facets/sales/ERC721TieredSales.sol:ERC721TieredSales",
        "label": "_status",
        "offset": 0,
        "slot": "0",
        "type": "t_uint256"
      }
    ],
    "types": {
      "t_uint256": {
        "encoding": "inplace",
        "label": "uint256",
        "numberOfBytes": "32"
      }
    }
  }
}