{
  "address": "0x37a855a8BcAb76cFd000D13DDaA299AA2e6d6704",
  "abi": [
    {
      "inputs": [],
      "name": "ErrLicenseLocked",
      "type": "error"
    },
    {
      "anonymous": false,
      "inputs": [
        {
          "indexed": false,
          "internalType": "string",
          "name": "customLicenseURI",
          "type": "string"
        },
        {
          "indexed": false,
          "internalType": "string",
          "name": "customLicenseName",
          "type": "string"
        }
      ],
      "name": "CustomLicenseSet",
      "type": "event"
    },
    {
      "anonymous": false,
      "inputs": [],
      "name": "LicenseLocked",
      "type": "event"
    },
    {
      "anonymous": false,
      "inputs": [
        {
          "indexed": false,
          "internalType": "enum ILicenseInternal.LicenseVersion",
          "name": "licenseVersion",
          "type": "uint8"
        }
      ],
      "name": "LicenseVersionSet",
      "type": "event"
    },
    {
      "anonymous": false,
      "inputs": [
        {
          "indexed": true,
          "internalType": "address",
          "name": "previousOwner",
          "type": "address"
        },
        {
          "indexed": true,
          "internalType": "address",
          "name": "newOwner",
          "type": "address"
        }
      ],
      "name": "OwnershipTransferred",
      "type": "event"
    },
    {
      "inputs": [],
      "name": "licenseVersionLocked",
      "outputs": [
        {
          "internalType": "bool",
          "name": "",
          "type": "bool"
        }
      ],
      "stateMutability": "view",
      "type": "function"
    },
    {
      "inputs": [],
      "name": "lockLicenseVersion",
      "outputs": [],
      "stateMutability": "nonpayable",
      "type": "function"
    },
    {
      "inputs": [
        {
          "internalType": "enum ILicenseInternal.LicenseVersion",
          "name": "licenseVersion",
          "type": "uint8"
        }
      ],
      "name": "setLicenseVersion",
      "outputs": [],
      "stateMutability": "nonpayable",
      "type": "function"
    }
  ],
  "transactionHash": "0x0da95e97ecd400c71e141dbe9ca7c45d05ab8ededca31feedd965c45f3f27b48",
  "args": [],
  "numDeployments": 1,
  "solcInputHash": "3658236a21462c4569b756c91b400284",
  "bytecode": "0x608060405234801561001057600080fd5b50610392806100206000396000f3fe608060405234801561001057600080fd5b50600436106100415760003560e01c806364ed291314610046578063bf9b7a571461005b578063dd89c6fa14610094575b600080fd5b6100596100543660046102f6565b61009c565b005b7f686fbd75ec6671870c2ca65eac65ee184d2285f055fb69de73ba3ce5549e15f95460ff16604051901515815260200160405180910390f35b610059610133565b7fc0ea367cb0174dd5521cd2372c76f8c13e6c1f832c71f1d6e0cbc185c9cc8ed45473ffffffffffffffffffffffffffffffffffffffff1633146101275760405162461bcd60e51b815260206004820152601d60248201527f4f776e61626c653a2073656e646572206d757374206265206f776e657200000060448201526064015b60405180910390fd5b610130816101c3565b50565b7fc0ea367cb0174dd5521cd2372c76f8c13e6c1f832c71f1d6e0cbc185c9cc8ed45473ffffffffffffffffffffffffffffffffffffffff1633146101b95760405162461bcd60e51b815260206004820152601d60248201527f4f776e61626c653a2073656e646572206d757374206265206f776e6572000000604482015260640161011e565b6101c161029f565b565b7f686fbd75ec6671870c2ca65eac65ee184d2285f055fb69de73ba3ce5549e15f9547f686fbd75ec6671870c2ca65eac65ee184d2285f055fb69de73ba3ce5549e15f69060ff1615610241576040517ff48a7fea00000000000000000000000000000000000000000000000000000000815260040160405180910390fd5b80548290829060ff1916600183600781111561025f5761025f61031e565b02179055507f43151bff1cc6df3c0eb4f611859a071e6e4d636b029326ea9298ca84819df167826040516102939190610334565b60405180910390a15050565b7f686fbd75ec6671870c2ca65eac65ee184d2285f055fb69de73ba3ce5549e15f9805460ff191660011790556040517fe8dbcfb731deb2db7b5ed93a3d4dc3676d4e5b8bd51aef007a734a98697ec78d90600090a1565b60006020828403121561030857600080fd5b81356008811061031757600080fd5b9392505050565b634e487b7160e01b600052602160045260246000fd5b602081016008831061035657634e487b7160e01b600052602160045260246000fd5b9190529056fea26469706673582212202063d5487f00e1f837848638d54ac5c6035b0f5f1b2c15787e0076eb635948cb64736f6c634300080f0033",
  "devdoc": {
    "custom:category": "Legal",
    "custom:peer-dependencies": "0xec3bb95b 0x649a51a8",
    "custom:provides-interfaces": "0x06ff95be",
    "custom:type": "eip-2535-facet",
    "kind": "dev",
    "methods": {},
    "title": "License - Admin - Ownable",
    "version": 1
  },
  "userdoc": {
    "kind": "user",
    "methods": {},
    "notice": "Allow contract owner to manage license version, name and URI.",
    "version": 1
  },
  "storageLayout": {
    "storage": [],
    "types": null
  }
}