{
  "address": "0xC6b094d0b63E396eb745b607b981aa6cF747f2F6",
  "abi": [
    {
      "anonymous": false,
      "inputs": [
        {
          "indexed": false,
          "internalType": "string",
          "name": "value",
          "type": "string"
        },
        {
          "indexed": true,
          "internalType": "uint256",
          "name": "tokenId",
          "type": "uint256"
        }
      ],
      "name": "URI",
      "type": "event"
    },
    {
      "inputs": [],
      "name": "baseURI",
      "outputs": [
        {
          "internalType": "string",
          "name": "",
          "type": "string"
        }
      ],
      "stateMutability": "view",
      "type": "function"
    },
    {
      "inputs": [],
      "name": "baseURILocked",
      "outputs": [
        {
          "internalType": "bool",
          "name": "",
          "type": "bool"
        }
      ],
      "stateMutability": "view",
      "type": "function"
    },
    {
      "inputs": [],
      "name": "fallbackURI",
      "outputs": [
        {
          "internalType": "string",
          "name": "",
          "type": "string"
        }
      ],
      "stateMutability": "view",
      "type": "function"
    },
    {
      "inputs": [],
      "name": "fallbackURILocked",
      "outputs": [
        {
          "internalType": "bool",
          "name": "",
          "type": "bool"
        }
      ],
      "stateMutability": "view",
      "type": "function"
    },
    {
      "inputs": [],
      "name": "lastLockedTokenId",
      "outputs": [
        {
          "internalType": "uint256",
          "name": "",
          "type": "uint256"
        }
      ],
      "stateMutability": "view",
      "type": "function"
    },
    {
      "inputs": [],
      "name": "uriSuffix",
      "outputs": [
        {
          "internalType": "string",
          "name": "",
          "type": "string"
        }
      ],
      "stateMutability": "view",
      "type": "function"
    },
    {
      "inputs": [],
      "name": "uriSuffixLocked",
      "outputs": [
        {
          "internalType": "bool",
          "name": "",
          "type": "bool"
        }
      ],
      "stateMutability": "view",
      "type": "function"
    }
  ],
  "transactionHash": "0x33b6ead722e2288654bee047883c786e71ad735f86291b07491b67eada38e2a5",
  "args": [],
  "numDeployments": 1,
  "solcInputHash": "4e9900f3555052f5b462a7e4b5e060a6",
  "bytecode": "0x608060405234801561001057600080fd5b50610357806100206000396000f3fe608060405234801561001057600080fd5b506004361061007d5760003560e01c80635d148e5c1161005b5780635d148e5c146100da5780636b95c504146101045780636c0360eb14610134578063c4ef3e051461013c57600080fd5b8063067f0848146100825780630c7d9752146100bd5780635503a0e8146100d2575b600080fd5b7f70612f47e27b43eb7f87867b7b8f899a5e08503dcccf1bf322c9eef06483a1ff5460ff165b60405190151581526020015b60405180910390f35b6100c5610166565b6040516100b49190610279565b6100c561021a565b7f70612f47e27b43eb7f87867b7b8f899a5e08503dcccf1bf322c9eef06483a1fd5460ff166100a8565b7f70612f47e27b43eb7f87867b7b8f899a5e08503dcccf1bf322c9eef06483a202546040519081526020016100b4565b6100c561024b565b7f70612f47e27b43eb7f87867b7b8f899a5e08503dcccf1bf322c9eef06483a2015460ff166100a8565b60607f70612f47e27b43eb7f87867b7b8f899a5e08503dcccf1bf322c9eef06483a1fc6002018054610197906102ce565b80601f01602080910402602001604051908101604052809291908181526020018280546101c3906102ce565b80156102105780601f106101e557610100808354040283529160200191610210565b820191906000526020600020905b8154815290600101906020018083116101f357829003601f168201915b5050505050905090565b60607f70612f47e27b43eb7f87867b7b8f899a5e08503dcccf1bf322c9eef06483a1fc6004018054610197906102ce565b60607f70612f47e27b43eb7f87867b7b8f899a5e08503dcccf1bf322c9eef06483a1fc8054610197906102ce565b600060208083528351808285015260005b818110156102a65785810183015185820160400152820161028a565b818111156102b8576000604083870101525b50601f01601f1916929092016040019392505050565b600181811c908216806102e257607f821691505b60208210810361031b577f4e487b7100000000000000000000000000000000000000000000000000000000600052602260045260246000fd5b5091905056fea2646970667358221220281bcd8c29807abdd4e306955b3314134d03418b0f18fd3a0d3f1b686d39d02764736f6c634300080f0033",
  "devdoc": {
    "custom:category": "NFTs",
    "custom:provides-interfaces": "0xc16c2a44",
    "custom:type": "eip-2535-facet",
    "kind": "dev",
    "methods": {},
    "title": "Metadata",
    "version": 1
  },
  "userdoc": {
    "kind": "user",
    "methods": {},
    "notice": "Provides common functions for various token metadata standards. This extension supports base URI, per-token URI, and a fallback URI. You can also freeze URIs until a certain token ID.",
    "version": 1
  },
  "storageLayout": {
    "storage": [],
    "types": null
  }
}