{
  "address": "0xb26b863C4eA83b091038c7B767960c7BE06eC063",
  "abi": [
    {
      "anonymous": false,
      "inputs": [
        {
          "indexed": true,
          "internalType": "address",
          "name": "previousOwner",
          "type": "address"
        },
        {
          "indexed": true,
          "internalType": "address",
          "name": "newOwner",
          "type": "address"
        }
      ],
      "name": "OwnershipTransferred",
      "type": "event"
    },
    {
      "anonymous": false,
      "inputs": [
        {
          "indexed": false,
          "internalType": "string",
          "name": "value",
          "type": "string"
        },
        {
          "indexed": true,
          "internalType": "uint256",
          "name": "tokenId",
          "type": "uint256"
        }
      ],
      "name": "URI",
      "type": "event"
    },
    {
      "inputs": [],
      "name": "lockBaseURI",
      "outputs": [],
      "stateMutability": "nonpayable",
      "type": "function"
    },
    {
      "inputs": [],
      "name": "lockFallbackURI",
      "outputs": [],
      "stateMutability": "nonpayable",
      "type": "function"
    },
    {
      "inputs": [],
      "name": "lockNameAndSymbol",
      "outputs": [],
      "stateMutability": "nonpayable",
      "type": "function"
    },
    {
      "inputs": [],
      "name": "lockURISuffix",
      "outputs": [],
      "stateMutability": "nonpayable",
      "type": "function"
    },
    {
      "inputs": [
        {
          "internalType": "uint256",
          "name": "tokenId",
          "type": "uint256"
        }
      ],
      "name": "lockURIUntil",
      "outputs": [],
      "stateMutability": "nonpayable",
      "type": "function"
    },
    {
      "inputs": [
        {
          "internalType": "string",
          "name": "newBaseURI",
          "type": "string"
        }
      ],
      "name": "setBaseURI",
      "outputs": [],
      "stateMutability": "nonpayable",
      "type": "function"
    },
    {
      "inputs": [
        {
          "internalType": "string",
          "name": "newFallbackURI",
          "type": "string"
        }
      ],
      "name": "setFallbackURI",
      "outputs": [],
      "stateMutability": "nonpayable",
      "type": "function"
    },
    {
      "inputs": [
        {
          "internalType": "string",
          "name": "name",
          "type": "string"
        }
      ],
      "name": "setName",
      "outputs": [],
      "stateMutability": "nonpayable",
      "type": "function"
    },
    {
      "inputs": [
        {
          "internalType": "string",
          "name": "symbol",
          "type": "string"
        }
      ],
      "name": "setSymbol",
      "outputs": [],
      "stateMutability": "nonpayable",
      "type": "function"
    },
    {
      "inputs": [
        {
          "internalType": "uint256",
          "name": "tokenId",
          "type": "uint256"
        },
        {
          "internalType": "string",
          "name": "newTokenURI",
          "type": "string"
        }
      ],
      "name": "setURI",
      "outputs": [],
      "stateMutability": "nonpayable",
      "type": "function"
    },
    {
      "inputs": [
        {
          "internalType": "uint256[]",
          "name": "tokenIds",
          "type": "uint256[]"
        },
        {
          "internalType": "string[]",
          "name": "newTokenURIs",
          "type": "string[]"
        }
      ],
      "name": "setURIBatch",
      "outputs": [],
      "stateMutability": "nonpayable",
      "type": "function"
    },
    {
      "inputs": [
        {
          "internalType": "string",
          "name": "newURISuffix",
          "type": "string"
        }
      ],
      "name": "setURISuffix",
      "outputs": [],
      "stateMutability": "nonpayable",
      "type": "function"
    }
  ],
  "transactionHash": "0x733e3bd4c5090c291c0571ff0583d17030da00d2a6773df79d120e92519a050f",
  "args": [],
  "numDeployments": 1,
  "solcInputHash": "3658236a21462c4569b756c91b400284",
  "bytecode": "0x608060405234801561001057600080fd5b50611287806100206000396000f3fe608060405234801561001057600080fd5b50600436106100d45760003560e01c806381b3e57511610081578063b3dbdcde1161005b578063b3dbdcde14610165578063b84c82461461016d578063c47f00271461018057600080fd5b806381b3e5751461012c578063862440e21461013f578063989143ee1461015257600080fd5b806353df5c7c116100b257806353df5c7c1461010957806355f804b3146101115780636338cb8a1461012457600080fd5b806301b98ea0146100d95780630cf14c40146100ee57806318249af7146100f6575b600080fd5b6100ec6100e7366004610e05565b610193565b005b6100ec6102af565b6100ec610104366004610eb3565b61035b565b6100ec610417565b6100ec61011f366004610eb3565b6104c1565b6100ec610579565b6100ec61013a366004610eb3565b610623565b6100ec61014d366004610ef5565b6106db565b6100ec610160366004610f41565b610799565b6100ec61083d565b6100ec61017b366004610eb3565b6108e7565b6100ec61018e366004610eb3565b61096a565b7fc0ea367cb0174dd5521cd2372c76f8c13e6c1f832c71f1d6e0cbc185c9cc8ed4546001600160a01b031633146102115760405162461bcd60e51b815260206004820152601d60248201527f4f776e61626c653a2073656e646572206d757374206265206f776e657200000060448201526064015b60405180910390fd5b60005b838110156102a85761029685858381811061023157610231610f5a565b9050602002013584848481811061024a5761024a610f5a565b905060200281019061025c9190610f70565b8080601f0160208091040260200160405190810160405280939291908181526020018383808284376000920191909152506109ed92505050565b806102a081610fb7565b915050610214565b5050505050565b7fc0ea367cb0174dd5521cd2372c76f8c13e6c1f832c71f1d6e0cbc185c9cc8ed4546001600160a01b031633146103285760405162461bcd60e51b815260206004820152601d60248201527f4f776e61626c653a2073656e646572206d757374206265206f776e65720000006044820152606401610208565b6103597f70612f47e27b43eb7f87867b7b8f899a5e08503dcccf1bf322c9eef06483a202805460ff19166001179055565b565b7fc0ea367cb0174dd5521cd2372c76f8c13e6c1f832c71f1d6e0cbc185c9cc8ed4546001600160a01b031633146103d45760405162461bcd60e51b815260206004820152601d60248201527f4f776e61626c653a2073656e646572206d757374206265206f776e65720000006044820152606401610208565b61041382828080601f016020809104026020016040519081016040528093929190818152602001838380828437600092019190915250610ad192505050565b5050565b7fc0ea367cb0174dd5521cd2372c76f8c13e6c1f832c71f1d6e0cbc185c9cc8ed4546001600160a01b031633146104905760405162461bcd60e51b815260206004820152601d60248201527f4f776e61626c653a2073656e646572206d757374206265206f776e65720000006044820152606401610208565b6103597f70612f47e27b43eb7f87867b7b8f899a5e08503dcccf1bf322c9eef06483a200805460ff19166001179055565b7fc0ea367cb0174dd5521cd2372c76f8c13e6c1f832c71f1d6e0cbc185c9cc8ed4546001600160a01b0316331461053a5760405162461bcd60e51b815260206004820152601d60248201527f4f776e61626c653a2073656e646572206d757374206265206f776e65720000006044820152606401610208565b61041382828080601f016020809104026020016040519081016040528093929190818152602001838380828437600092019190915250610b6e92505050565b7fc0ea367cb0174dd5521cd2372c76f8c13e6c1f832c71f1d6e0cbc185c9cc8ed4546001600160a01b031633146105f25760405162461bcd60e51b815260206004820152601d60248201527f4f776e61626c653a2073656e646572206d757374206265206f776e65720000006044820152606401610208565b6103597f70612f47e27b43eb7f87867b7b8f899a5e08503dcccf1bf322c9eef06483a1fe805460ff19166001179055565b7fc0ea367cb0174dd5521cd2372c76f8c13e6c1f832c71f1d6e0cbc185c9cc8ed4546001600160a01b0316331461069c5760405162461bcd60e51b815260206004820152601d60248201527f4f776e61626c653a2073656e646572206d757374206265206f776e65720000006044820152606401610208565b61041382828080601f016020809104026020016040519081016040528093929190818152602001838380828437600092019190915250610be092505050565b7fc0ea367cb0174dd5521cd2372c76f8c13e6c1f832c71f1d6e0cbc185c9cc8ed4546001600160a01b031633146107545760405162461bcd60e51b815260206004820152601d60248201527f4f776e61626c653a2073656e646572206d757374206265206f776e65720000006044820152606401610208565b6107948383838080601f0160208091040260200160405190810160405280939291908181526020018383808284376000920191909152506109ed92505050565b505050565b7fc0ea367cb0174dd5521cd2372c76f8c13e6c1f832c71f1d6e0cbc185c9cc8ed4546001600160a01b031633146108125760405162461bcd60e51b815260206004820152601d60248201527f4f776e61626c653a2073656e646572206d757374206265206f776e65720000006044820152606401610208565b61083a817f70612f47e27b43eb7f87867b7b8f899a5e08503dcccf1bf322c9eef06483a20555565b50565b7fc0ea367cb0174dd5521cd2372c76f8c13e6c1f832c71f1d6e0cbc185c9cc8ed4546001600160a01b031633146108b65760405162461bcd60e51b815260206004820152601d60248201527f4f776e61626c653a2073656e646572206d757374206265206f776e65720000006044820152606401610208565b6103597f70612f47e27b43eb7f87867b7b8f899a5e08503dcccf1bf322c9eef06483a204805460ff19166001179055565b7fc0ea367cb0174dd5521cd2372c76f8c13e6c1f832c71f1d6e0cbc185c9cc8ed4546001600160a01b031633146109605760405162461bcd60e51b815260206004820152601d60248201527f4f776e61626c653a2073656e646572206d757374206265206f776e65720000006044820152606401610208565b6104138282610c7d565b7fc0ea367cb0174dd5521cd2372c76f8c13e6c1f832c71f1d6e0cbc185c9cc8ed4546001600160a01b031633146109e35760405162461bcd60e51b815260206004820152601d60248201527f4f776e61626c653a2073656e646572206d757374206265206f776e65720000006044820152606401610208565b6104138282610d1b565b7f70612f47e27b43eb7f87867b7b8f899a5e08503dcccf1bf322c9eef06483a205548211610a5d5760405162461bcd60e51b815260206004820152601960248201527f4d657461646174613a20746f6b656e555249206c6f636b6564000000000000006044820152606401610208565b60008281527f70612f47e27b43eb7f87867b7b8f899a5e08503dcccf1bf322c9eef06483a20660205260409020610a94828261107c565b50817f6bb7ff708619ba0610cba295a58592e0451dee2622938c8755667688daf3529b82604051610ac5919061113c565b60405180910390a25050565b7f70612f47e27b43eb7f87867b7b8f899a5e08503dcccf1bf322c9eef06483a2025460ff1615610b435760405162461bcd60e51b815260206004820152601c60248201527f4d657461646174613a2066616c6c6261636b555249206c6f636b6564000000006044820152606401610208565b7f70612f47e27b43eb7f87867b7b8f899a5e08503dcccf1bf322c9eef06483a1ff610413828261107c565b7f70612f47e27b43eb7f87867b7b8f899a5e08503dcccf1bf322c9eef06483a2005460ff1615610b435760405162461bcd60e51b815260206004820152601860248201527f4d657461646174613a2062617365555249206c6f636b656400000000000000006044820152606401610208565b7f70612f47e27b43eb7f87867b7b8f899a5e08503dcccf1bf322c9eef06483a2045460ff1615610c525760405162461bcd60e51b815260206004820152601a60248201527f4d657461646174613a20757269537566666978206c6f636b65640000000000006044820152606401610208565b7f70612f47e27b43eb7f87867b7b8f899a5e08503dcccf1bf322c9eef06483a203610413828261107c565b7f70612f47e27b43eb7f87867b7b8f899a5e08503dcccf1bf322c9eef06483a1fe5460ff1615610cef5760405162461bcd60e51b815260206004820152601a60248201527f4d657461646174613a2073796d626f6c206973206c6f636b65640000000000006044820152606401610208565b7f70612f47e27b43eb7f87867b7b8f899a5e08503dcccf1bf322c9eef06483a1fd610794828483611191565b7f70612f47e27b43eb7f87867b7b8f899a5e08503dcccf1bf322c9eef06483a1fe5460ff1615610d8d5760405162461bcd60e51b815260206004820152601860248201527f4d657461646174613a206e616d65206973206c6f636b656400000000000000006044820152606401610208565b7f70612f47e27b43eb7f87867b7b8f899a5e08503dcccf1bf322c9eef06483a1fc610794828483611191565b60008083601f840112610dcb57600080fd5b50813567ffffffffffffffff811115610de357600080fd5b6020830191508360208260051b8501011115610dfe57600080fd5b9250929050565b60008060008060408587031215610e1b57600080fd5b843567ffffffffffffffff80821115610e3357600080fd5b610e3f88838901610db9565b90965094506020870135915080821115610e5857600080fd5b50610e6587828801610db9565b95989497509550505050565b60008083601f840112610e8357600080fd5b50813567ffffffffffffffff811115610e9b57600080fd5b602083019150836020828501011115610dfe57600080fd5b60008060208385031215610ec657600080fd5b823567ffffffffffffffff811115610edd57600080fd5b610ee985828601610e71565b90969095509350505050565b600080600060408486031215610f0a57600080fd5b83359250602084013567ffffffffffffffff811115610f2857600080fd5b610f3486828701610e71565b9497909650939450505050565b600060208284031215610f5357600080fd5b5035919050565b634e487b7160e01b600052603260045260246000fd5b6000808335601e19843603018112610f8757600080fd5b83018035915067ffffffffffffffff821115610fa257600080fd5b602001915036819003821315610dfe57600080fd5b600060018201610fd757634e487b7160e01b600052601160045260246000fd5b5060010190565b634e487b7160e01b600052604160045260246000fd5b600181811c9082168061100857607f821691505b60208210810361102857634e487b7160e01b600052602260045260246000fd5b50919050565b601f82111561079457600081815260208120601f850160051c810160208610156110555750805b601f850160051c820191505b8181101561107457828155600101611061565b505050505050565b815167ffffffffffffffff81111561109657611096610fde565b6110aa816110a48454610ff4565b8461102e565b602080601f8311600181146110df57600084156110c75750858301515b600019600386901b1c1916600185901b178555611074565b600085815260208120601f198616915b8281101561110e578886015182559484019460019091019084016110ef565b508582101561112c5787850151600019600388901b60f8161c191681555b5050505050600190811b01905550565b600060208083528351808285015260005b818110156111695785810183015185820160400152820161114d565b8181111561117b576000604083870101525b50601f01601f1916929092016040019392505050565b67ffffffffffffffff8311156111a9576111a9610fde565b6111bd836111b78354610ff4565b8361102e565b6000601f8411600181146111f157600085156111d95750838201355b600019600387901b1c1916600186901b1783556102a8565b600083815260209020601f19861690835b828110156112225786850135825560209485019460019092019101611202565b508682101561123f5760001960f88860031b161c19848701351681555b505060018560011b018355505050505056fea26469706673582212208531403d7e9869328b8be76249ad458d17d6bb1570c28ae79898d62657d6497e64736f6c634300080f0033",
  "devdoc": {
    "custom:category": "NFTs",
    "custom:peer-dependencies": "IMetadata",
    "custom:provides-interfaces": "IMetadataAdmin",
    "custom:type": "eip-2535-facet",
    "kind": "dev",
    "methods": {},
    "title": "Metadata - Admin - Ownable",
    "version": 1
  },
  "userdoc": {
    "kind": "user",
    "methods": {},
    "notice": "Allows diamond owner to change base, per-token, and fallback URIs, as wel as freezing URIs.",
    "version": 1
  },
  "storageLayout": {
    "storage": [],
    "types": null
  }
}