{
  "address": "0xc89E1364c377731893CE0250dfF6d2E94A3516E3",
  "abi": [
    {
      "inputs": [],
      "name": "baseURI",
      "outputs": [
        {
          "internalType": "string",
          "name": "",
          "type": "string"
        }
      ],
      "stateMutability": "view",
      "type": "function"
    },
    {
      "inputs": [],
      "name": "baseURILocked",
      "outputs": [
        {
          "internalType": "bool",
          "name": "",
          "type": "bool"
        }
      ],
      "stateMutability": "view",
      "type": "function"
    },
    {
      "inputs": [],
      "name": "fallbackURI",
      "outputs": [
        {
          "internalType": "string",
          "name": "",
          "type": "string"
        }
      ],
      "stateMutability": "view",
      "type": "function"
    },
    {
      "inputs": [],
      "name": "fallbackURILocked",
      "outputs": [
        {
          "internalType": "bool",
          "name": "",
          "type": "bool"
        }
      ],
      "stateMutability": "view",
      "type": "function"
    },
    {
      "inputs": [],
      "name": "lastLockedTokenId",
      "outputs": [
        {
          "internalType": "uint256",
          "name": "",
          "type": "uint256"
        }
      ],
      "stateMutability": "view",
      "type": "function"
    },
    {
      "inputs": [],
      "name": "name",
      "outputs": [
        {
          "internalType": "string",
          "name": "",
          "type": "string"
        }
      ],
      "stateMutability": "view",
      "type": "function"
    },
    {
      "inputs": [],
      "name": "nameAndSymbolLocked",
      "outputs": [
        {
          "internalType": "bool",
          "name": "",
          "type": "bool"
        }
      ],
      "stateMutability": "view",
      "type": "function"
    },
    {
      "inputs": [],
      "name": "symbol",
      "outputs": [
        {
          "internalType": "string",
          "name": "",
          "type": "string"
        }
      ],
      "stateMutability": "view",
      "type": "function"
    },
    {
      "inputs": [],
      "name": "uriSuffix",
      "outputs": [
        {
          "internalType": "string",
          "name": "",
          "type": "string"
        }
      ],
      "stateMutability": "view",
      "type": "function"
    },
    {
      "inputs": [],
      "name": "uriSuffixLocked",
      "outputs": [
        {
          "internalType": "bool",
          "name": "",
          "type": "bool"
        }
      ],
      "stateMutability": "view",
      "type": "function"
    }
  ],
  "transactionHash": "0x171c5cc12d486c62505a4fc2c05a7d808b609d3c4be618939d6fc26f5832d986",
  "args": [],
  "numDeployments": 3,
  "solcInputHash": "0641915fa934d5b3ad6ce6da16c954c8",
  "bytecode": "0x608060405234801561001057600080fd5b50610434806100206000396000f3fe608060405234801561001057600080fd5b50600436106100be5760003560e01c80635d148e5c116100765780636c0360eb1161005b5780636c0360eb146101a757806395d89b41146101af578063c4ef3e05146101b757600080fd5b80635d148e5c1461014d5780636b95c5041461017757600080fd5b80630c7d9752116100a75780630c7d975214610113578063180434a31461011b5780635503a0e81461014557600080fd5b8063067f0848146100c357806306fdde03146100fe575b600080fd5b7f70612f47e27b43eb7f87867b7b8f899a5e08503dcccf1bf322c9eef06483a2025460ff165b60405190151581526020015b60405180910390f35b6101066101e1565b6040516100f59190610356565b610106610292565b7f70612f47e27b43eb7f87867b7b8f899a5e08503dcccf1bf322c9eef06483a1fe5460ff166100e9565b6101066102c3565b7f70612f47e27b43eb7f87867b7b8f899a5e08503dcccf1bf322c9eef06483a2005460ff166100e9565b7f70612f47e27b43eb7f87867b7b8f899a5e08503dcccf1bf322c9eef06483a205546040519081526020016100f5565b6101066102f4565b610106610325565b7f70612f47e27b43eb7f87867b7b8f899a5e08503dcccf1bf322c9eef06483a2045460ff166100e9565b60607f70612f47e27b43eb7f87867b7b8f899a5e08503dcccf1bf322c9eef06483a1fc805461020f906103ab565b80601f016020809104026020016040519081016040528092919081815260200182805461023b906103ab565b80156102885780601f1061025d57610100808354040283529160200191610288565b820191906000526020600020905b81548152906001019060200180831161026b57829003601f168201915b5050505050905090565b60607f70612f47e27b43eb7f87867b7b8f899a5e08503dcccf1bf322c9eef06483a1fc600501805461020f906103ab565b60607f70612f47e27b43eb7f87867b7b8f899a5e08503dcccf1bf322c9eef06483a1fc600701805461020f906103ab565b60607f70612f47e27b43eb7f87867b7b8f899a5e08503dcccf1bf322c9eef06483a1fc600301805461020f906103ab565b60607f70612f47e27b43eb7f87867b7b8f899a5e08503dcccf1bf322c9eef06483a1fc600101805461020f906103ab565b600060208083528351808285015260005b8181101561038357858101830151858201604001528201610367565b81811115610395576000604083870101525b50601f01601f1916929092016040019392505050565b600181811c908216806103bf57607f821691505b6020821081036103f8577f4e487b7100000000000000000000000000000000000000000000000000000000600052602260045260246000fd5b5091905056fea264697066735822122078bc14180e6e42c03fa5de9c036aa77081f4ea42e94a1245b04e9b391dfe266564736f6c634300080f0033",
  "devdoc": {
    "custom:category": "NFTs",
    "custom:provides-interfaces": "IMetadata",
    "custom:type": "eip-2535-facet",
    "kind": "dev",
    "methods": {},
    "title": "Metadata",
    "version": 1
  },
  "userdoc": {
    "kind": "user",
    "methods": {},
    "notice": "Provides common functions for various token metadata standards. This extension supports base URI, per-token URI, and a fallback URI. You can also freeze URIs until a certain token ID.",
    "version": 1
  },
  "storageLayout": {
    "storage": [],
    "types": null
  }
}