{
  "address": "0xd9718C4796ca66a17313B7954634229b161c15dF",
  "abi": [
    {
      "anonymous": false,
      "inputs": [
        {
          "indexed": true,
          "internalType": "address",
          "name": "previousOwner",
          "type": "address"
        },
        {
          "indexed": true,
          "internalType": "address",
          "name": "newOwner",
          "type": "address"
        }
      ],
      "name": "OwnershipTransferred",
      "type": "event"
    },
    {
      "inputs": [],
      "name": "owner",
      "outputs": [
        {
          "internalType": "address",
          "name": "",
          "type": "address"
        }
      ],
      "stateMutability": "view",
      "type": "function"
    },
    {
      "inputs": [],
      "name": "renounceOwnership",
      "outputs": [],
      "stateMutability": "nonpayable",
      "type": "function"
    },
    {
      "inputs": [
        {
          "internalType": "address",
          "name": "account",
          "type": "address"
        }
      ],
      "name": "transferOwnership",
      "outputs": [],
      "stateMutability": "nonpayable",
      "type": "function"
    },
    {
      "inputs": [],
      "name": "versionIERC173",
      "outputs": [
        {
          "internalType": "string",
          "name": "",
          "type": "string"
        }
      ],
      "stateMutability": "pure",
      "type": "function"
    }
  ],
  "transactionHash": "0xb11dfba4b2adaae04e44c15872c76eae9385a654efe20d3594e46b4b17a94471",
  "args": [],
  "numDeployments": 4,
  "solcInputHash": "c55c02555ed2787a9a3699470ac3d317",
  "bytecode": "0x608060405234801561001057600080fd5b50610410806100206000396000f3fe608060405234801561001057600080fd5b506004361061004c5760003560e01c80632b03414414610051578063715018a6146100995780638da5cb5b146100a3578063f2fde38b146100d0575b600080fd5b604080518082018252600381527f322e78000000000000000000000000000000000000000000000000000000000060208201529051610090919061032a565b60405180910390f35b6100a16100e3565b005b6100ab610194565b60405173ffffffffffffffffffffffffffffffffffffffff9091168152602001610090565b6100a16100de36600461039d565b6101d9565b7fc0ea367cb0174dd5521cd2372c76f8c13e6c1f832c71f1d6e0cbc185c9cc8ed45473ffffffffffffffffffffffffffffffffffffffff163314610188576040517f08c379a000000000000000000000000000000000000000000000000000000000815260206004820152601d60248201527f4f776e61626c653a2073656e646572206d757374206265206f776e657200000060448201526064015b60405180910390fd5b6101926000610285565b565b60006101d47fc0ea367cb0174dd5521cd2372c76f8c13e6c1f832c71f1d6e0cbc185c9cc8ed45473ffffffffffffffffffffffffffffffffffffffff1690565b905090565b7fc0ea367cb0174dd5521cd2372c76f8c13e6c1f832c71f1d6e0cbc185c9cc8ed45473ffffffffffffffffffffffffffffffffffffffff163314610279576040517f08c379a000000000000000000000000000000000000000000000000000000000815260206004820152601d60248201527f4f776e61626c653a2073656e646572206d757374206265206f776e6572000000604482015260640161017f565b61028281610285565b50565b7fc0ea367cb0174dd5521cd2372c76f8c13e6c1f832c71f1d6e0cbc185c9cc8ed480547fffffffffffffffffffffffff00000000000000000000000000000000000000001673ffffffffffffffffffffffffffffffffffffffff831617905560405173ffffffffffffffffffffffffffffffffffffffff82169033907f8be0079c531659141344cd1fd0a4f28419497f9722a3daafe3b4186f6b6457e090600090a350565b600060208083528351808285015260005b818110156103575785810183015185820160400152820161033b565b81811115610369576000604083870101525b50601f017fffffffffffffffffffffffffffffffffffffffffffffffffffffffffffffffe016929092016040019392505050565b6000602082840312156103af57600080fd5b813573ffffffffffffffffffffffffffffffffffffffff811681146103d357600080fd5b939250505056fea2646970667358221220d077eec837dc072bf17adfcca40e53d8e105be5a76628bd8dbd1c6c16f06fbc164736f6c634300080f0033",
  "devdoc": {
    "custom:category": "Access",
    "custom:provides-interfaces": "IERC173",
    "custom:type": "eip-2535-facet",
    "kind": "dev",
    "methods": {
      "owner()": {
        "returns": {
          "_0": "conrtact owner"
        }
      },
      "renounceOwnership()": {
        "details": "Leaves the contract without owner. It will not be possible to call `onlyOwner` functions anymore. Can only be called by the current owner. NOTE: Renouncing ownership will leave the contract without an owner, thereby removing any functionality that is only available to the owner."
      },
      "transferOwnership(address)": {
        "params": {
          "account": "address of new owner"
        }
      }
    },
    "title": "ERC173 - Ownable",
    "version": 1
  },
  "userdoc": {
    "kind": "user",
    "methods": {
      "owner()": {
        "notice": "get the ERC173 contract owner"
      },
      "transferOwnership(address)": {
        "notice": "transfer contract ownership to new account"
      }
    },
    "notice": "Ownership access control facet based on EIP-173 which would be already included as a core facet in Flair's Diamond contract.",
    "version": 1
  },
  "storageLayout": {
    "storage": [],
    "types": null
  }
}