{
  "address": "0x43fBdE69FE2f48C58e6C5837d7D34530E8062488",
  "abi": [
    {
      "anonymous": false,
      "inputs": [
        {
          "indexed": true,
          "internalType": "address",
          "name": "previousOwner",
          "type": "address"
        },
        {
          "indexed": true,
          "internalType": "address",
          "name": "newOwner",
          "type": "address"
        }
      ],
      "name": "OwnershipTransferred",
      "type": "event"
    },
    {
      "inputs": [
        {
          "internalType": "bool",
          "name": "enforce",
          "type": "bool"
        }
      ],
      "name": "toggleRoyaltyEnforcement",
      "outputs": [],
      "stateMutability": "nonpayable",
      "type": "function"
    }
  ],
  "transactionHash": "0xc172101f3b174b77dc3ec1e88ba28a1f57179cd15016fc900cc34d1c46ef37bd",
  "args": [],
  "numDeployments": 1,
  "solcInputHash": "b12c9533e24a6fe2af3d3c12017206c0",
  "bytecode": "0x608060405234801561001057600080fd5b5061017a806100206000396000f3fe608060405234801561001057600080fd5b506004361061002b5760003560e01c80631012248814610030575b600080fd5b61004361003e36600461011b565b610045565b005b7fc0ea367cb0174dd5521cd2372c76f8c13e6c1f832c71f1d6e0cbc185c9cc8ed45473ffffffffffffffffffffffffffffffffffffffff1633146100e9576040517f08c379a000000000000000000000000000000000000000000000000000000000815260206004820152601d60248201527f4f776e61626c653a2073656e646572206d757374206265206f776e6572000000604482015260640160405180910390fd5b7f9c1f08fc16fa10f59a3ac18a8c5596ea456f2d66793744df41c7c3e4eb219790805482151560ff1990911617905550565b60006020828403121561012d57600080fd5b8135801515811461013d57600080fd5b939250505056fea264697066735822122028d337c0e51a5fee9cd61446f8edfe9efe4a70cea3984f2de1e36bc1bb82c3f064736f6c634300080f0033",
  "devdoc": {
    "custom:category": "Tokens",
    "custom:peer-dependencies": "IRoyaltyEnforcement",
    "custom:provides-interfaces": "IRoyaltyEnforcementAdmin",
    "custom:type": "eip-2535-facet",
    "kind": "dev",
    "methods": {},
    "title": "Royalty Enforcement - Admin - Ownable",
    "version": 1
  },
  "userdoc": {
    "kind": "user",
    "methods": {},
    "notice": "Controls where on-chain royalties must be enforced by blocklisting marketplaces.",
    "version": 1
  },
  "storageLayout": {
    "storage": [],
    "types": null
  }
}