{
  "address": "0xC9DFaCC52F42d6a5A2C8221434DB48273A78960b",
  "abi": [
    {
      "anonymous": false,
      "inputs": [
        {
          "indexed": false,
          "internalType": "address",
          "name": "recipient",
          "type": "address"
        },
        {
          "indexed": false,
          "internalType": "uint16",
          "name": "bps",
          "type": "uint16"
        }
      ],
      "name": "DefaultRoyaltySet",
      "type": "event"
    },
    {
      "anonymous": false,
      "inputs": [
        {
          "indexed": true,
          "internalType": "address",
          "name": "previousOwner",
          "type": "address"
        },
        {
          "indexed": true,
          "internalType": "address",
          "name": "newOwner",
          "type": "address"
        }
      ],
      "name": "OwnershipTransferred",
      "type": "event"
    },
    {
      "anonymous": false,
      "inputs": [
        {
          "indexed": false,
          "internalType": "uint256",
          "name": "tokenId",
          "type": "uint256"
        }
      ],
      "name": "TokenRoyaltyRemoved",
      "type": "event"
    },
    {
      "anonymous": false,
      "inputs": [
        {
          "indexed": false,
          "internalType": "uint256",
          "name": "tokenId",
          "type": "uint256"
        },
        {
          "indexed": false,
          "internalType": "address",
          "name": "recipient",
          "type": "address"
        },
        {
          "indexed": false,
          "internalType": "uint16",
          "name": "bps",
          "type": "uint16"
        }
      ],
      "name": "TokenRoyaltySet",
      "type": "event"
    },
    {
      "inputs": [
        {
          "components": [
            {
              "internalType": "address",
              "name": "recipient",
              "type": "address"
            },
            {
              "internalType": "uint16",
              "name": "bps",
              "type": "uint16"
            }
          ],
          "internalType": "struct IRoyaltyInternal.TokenRoyalty",
          "name": "royalty",
          "type": "tuple"
        }
      ],
      "name": "setDefaultRoyalty",
      "outputs": [],
      "stateMutability": "nonpayable",
      "type": "function"
    },
    {
      "inputs": [
        {
          "components": [
            {
              "internalType": "uint256",
              "name": "tokenId",
              "type": "uint256"
            },
            {
              "internalType": "address",
              "name": "recipient",
              "type": "address"
            },
            {
              "internalType": "uint16",
              "name": "bps",
              "type": "uint16"
            }
          ],
          "internalType": "struct IRoyaltyInternal.TokenRoyaltyConfig[]",
          "name": "royalties",
          "type": "tuple[]"
        }
      ],
      "name": "setTokenRoyalties",
      "outputs": [],
      "stateMutability": "nonpayable",
      "type": "function"
    }
  ],
  "transactionHash": "0x3fd21f46fc1245970429bf01b3ccb2ccf285bf10254ae8f8ab0bfb6717cb7518",
  "args": [],
  "numDeployments": 3,
  "solcInputHash": "c858a448819080c90ca5e76e616d60ab",
  "bytecode": "0x608060405234801561001057600080fd5b506108cf806100206000396000f3fe608060405234801561001057600080fd5b50600436106100365760003560e01c80635136dcc71461003b578063ef60ceaf14610050575b600080fd5b61004e610049366004610690565b610063565b005b61004e61005e366004610705565b610140565b7fc0ea367cb0174dd5521cd2372c76f8c13e6c1f832c71f1d6e0cbc185c9cc8ed4546001600160a01b031633146100e15760405162461bcd60e51b815260206004820152601d60248201527f4f776e61626c653a2073656e646572206d757374206265206f776e657200000060448201526064015b60405180910390fd5b61013c8282808060200260200160405190810160405280939291908181526020016000905b82821015610132576101236060830286013681900381019061074b565b81526020019060010190610106565b50505050506101d3565b5050565b7fc0ea367cb0174dd5521cd2372c76f8c13e6c1f832c71f1d6e0cbc185c9cc8ed4546001600160a01b031633146101b95760405162461bcd60e51b815260206004820152601d60248201527f4f776e61626c653a2073656e646572206d757374206265206f776e657200000060448201526064016100d8565b6101d06101cb368390038301836107be565b610407565b50565b7fad41a88d044cfe4c318a78970a1f122259b5b1a56fdee398e17d1e83109ea07560005b825181101561040257600083828151811061021457610214610827565b60200260200101519050612710816040015161ffff16106102775760405162461bcd60e51b815260206004820152600b60248201527f496e76616c69642062707300000000000000000000000000000000000000000060448201526064016100d8565b60208101516001600160a01b031661030357805160009081526001840160205260409020805475ffffffffffffffffffffffffffffffffffffffffffff1916905580516102c890600285019061052d565b5080516040519081527fa2870857763bd9ae76c957f869f16b31c18dd3bb4c7b4d3a4496dc5c57c657f99060200160405180910390a16103ef565b6040805180820182526020808401516001600160a01b0390811683528484015161ffff9081168385019081528651600090815260018a0190945294909220925183549451909216740100000000000000000000000000000000000000000275ffffffffffffffffffffffffffffffffffffffffffff199094169116179190911790558051610395906002850190610542565b50805160208083015160408085015181519485526001600160a01b039092169284019290925261ffff1682820152517f389b70fb0887f01e83784eb1c4c589f740eca53b00ed0f45e41db5d079719abb9181900360600190a15b50806103fa81610853565b9150506101f7565b505050565b612710816020015161ffff16106104605760405162461bcd60e51b815260206004820152600b60248201527f496e76616c69642062707300000000000000000000000000000000000000000060448201526064016100d8565b60408051808201825282516001600160a01b039081168083526020808601805161ffff9081169583018690527fad41a88d044cfe4c318a78970a1f122259b5b1a56fdee398e17d1e83109ea075805475ffffffffffffffffffffffffffffffffffffffffffff1916909417740100000000000000000000000000000000000000009096029590951790925585519151855192909316825291909216908201527f2c5ea6e4103e78cb101e796fb2dace540362fc542cbff5145eaa24af7dd8fe41910160405180910390a150565b6000610539838361054e565b90505b92915050565b60006105398383610641565b6000818152600183016020526040812054801561063757600061057260018361086c565b85549091506000906105869060019061086c565b90508181146105eb5760008660000182815481106105a6576105a6610827565b90600052602060002001549050808760000184815481106105c9576105c9610827565b6000918252602080832090910192909255918252600188019052604090208390555b85548690806105fc576105fc610883565b60019003818190600052602060002001600090559055856001016000868152602001908152602001600020600090556001935050505061053c565b600091505061053c565b60008181526001830160205260408120546106885750815460018181018455600084815260208082209093018490558454848252828601909352604090209190915561053c565b50600061053c565b600080602083850312156106a357600080fd5b823567ffffffffffffffff808211156106bb57600080fd5b818501915085601f8301126106cf57600080fd5b8135818111156106de57600080fd5b8660206060830285010111156106f357600080fd5b60209290920196919550909350505050565b60006040828403121561071757600080fd5b50919050565b80356001600160a01b038116811461073457600080fd5b919050565b803561ffff8116811461073457600080fd5b60006060828403121561075d57600080fd5b6040516060810181811067ffffffffffffffff8211171561078e57634e487b7160e01b600052604160045260246000fd5b604052823581526107a16020840161071d565b60208201526107b260408401610739565b60408201529392505050565b6000604082840312156107d057600080fd5b6040516040810181811067ffffffffffffffff8211171561080157634e487b7160e01b600052604160045260246000fd5b60405261080d8361071d565b815261081b60208401610739565b60208201529392505050565b634e487b7160e01b600052603260045260246000fd5b634e487b7160e01b600052601160045260246000fd5b6000600182016108655761086561083d565b5060010190565b60008282101561087e5761087e61083d565b500390565b634e487b7160e01b600052603160045260246000fdfea264697066735822122075b8833a1265dc406be4be3a2805309d3a1df256786a7816b1bc94b47161b86c64736f6c634300080f0033",
  "devdoc": {
    "custom:category": "Finance",
    "custom:peer-dependencies": "IRoyalty IEIP2981",
    "custom:provides-interfaces": "IRoyaltyAdmin",
    "custom:type": "eip-2535-facet",
    "kind": "dev",
    "methods": {
      "setDefaultRoyalty((address,uint16))": {
        "details": "Set a default royalty configuration.  Will be used if no token specific configuration is set"
      },
      "setTokenRoyalties((uint256,address,uint16)[])": {
        "details": "Set per token royalties.  Passing a recipient of address(0) will delete any existing configuration"
      }
    },
    "title": "ERC2981 - Royalty - Admin - Ownable",
    "version": 1
  },
  "userdoc": {
    "kind": "user",
    "methods": {},
    "notice": "Allow contract owner to manage token royalties based on EIP-2981 standard.",
    "version": 1
  },
  "storageLayout": {
    "storage": [],
    "types": null
  }
}