{
  "address": "0x310aC50d2be97C3DB184B21F10F5ADb1c6b1fcD2",
  "abi": [
    {
      "anonymous": false,
      "inputs": [
        {
          "indexed": false,
          "internalType": "address",
          "name": "recipient",
          "type": "address"
        },
        {
          "indexed": false,
          "internalType": "uint16",
          "name": "bps",
          "type": "uint16"
        }
      ],
      "name": "DefaultRoyaltySet",
      "type": "event"
    },
    {
      "anonymous": false,
      "inputs": [
        {
          "indexed": false,
          "internalType": "uint256",
          "name": "tokenId",
          "type": "uint256"
        }
      ],
      "name": "TokenRoyaltyRemoved",
      "type": "event"
    },
    {
      "anonymous": false,
      "inputs": [
        {
          "indexed": false,
          "internalType": "uint256",
          "name": "tokenId",
          "type": "uint256"
        },
        {
          "indexed": false,
          "internalType": "address",
          "name": "recipient",
          "type": "address"
        },
        {
          "indexed": false,
          "internalType": "uint16",
          "name": "bps",
          "type": "uint16"
        }
      ],
      "name": "TokenRoyaltySet",
      "type": "event"
    },
    {
      "inputs": [
        {
          "internalType": "uint256",
          "name": "tokenId",
          "type": "uint256"
        }
      ],
      "name": "getFeeBps",
      "outputs": [
        {
          "internalType": "uint256[]",
          "name": "",
          "type": "uint256[]"
        }
      ],
      "stateMutability": "view",
      "type": "function"
    },
    {
      "inputs": [
        {
          "internalType": "uint256",
          "name": "tokenId",
          "type": "uint256"
        }
      ],
      "name": "getFeeRecipients",
      "outputs": [
        {
          "internalType": "address payable[]",
          "name": "",
          "type": "address[]"
        }
      ],
      "stateMutability": "view",
      "type": "function"
    },
    {
      "inputs": [
        {
          "internalType": "uint256",
          "name": "tokenId",
          "type": "uint256"
        }
      ],
      "name": "getFees",
      "outputs": [
        {
          "internalType": "address payable[]",
          "name": "",
          "type": "address[]"
        },
        {
          "internalType": "uint256[]",
          "name": "",
          "type": "uint256[]"
        }
      ],
      "stateMutability": "view",
      "type": "function"
    },
    {
      "inputs": [
        {
          "internalType": "uint256",
          "name": "tokenId",
          "type": "uint256"
        }
      ],
      "name": "getRaribleV2Royalties",
      "outputs": [
        {
          "components": [
            {
              "internalType": "address payable",
              "name": "account",
              "type": "address"
            },
            {
              "internalType": "uint96",
              "name": "value",
              "type": "uint96"
            }
          ],
          "internalType": "struct LibPart.Part[]",
          "name": "result",
          "type": "tuple[]"
        }
      ],
      "stateMutability": "view",
      "type": "function"
    },
    {
      "inputs": [],
      "name": "getTokenRoyaltiesCount",
      "outputs": [
        {
          "internalType": "uint256",
          "name": "",
          "type": "uint256"
        }
      ],
      "stateMutability": "view",
      "type": "function"
    },
    {
      "inputs": [
        {
          "internalType": "uint256",
          "name": "index",
          "type": "uint256"
        }
      ],
      "name": "getTokenRoyaltyByIndex",
      "outputs": [
        {
          "components": [
            {
              "internalType": "uint256",
              "name": "tokenId",
              "type": "uint256"
            },
            {
              "internalType": "address",
              "name": "recipient",
              "type": "address"
            },
            {
              "internalType": "uint16",
              "name": "bps",
              "type": "uint16"
            }
          ],
          "internalType": "struct IRoyaltyInternal.TokenRoyaltyConfig",
          "name": "",
          "type": "tuple"
        }
      ],
      "stateMutability": "view",
      "type": "function"
    },
    {
      "inputs": [
        {
          "internalType": "uint256",
          "name": "tokenId",
          "type": "uint256"
        },
        {
          "internalType": "uint256",
          "name": "value",
          "type": "uint256"
        }
      ],
      "name": "royaltyInfo",
      "outputs": [
        {
          "internalType": "address",
          "name": "",
          "type": "address"
        },
        {
          "internalType": "uint256",
          "name": "",
          "type": "uint256"
        }
      ],
      "stateMutability": "view",
      "type": "function"
    }
  ],
  "transactionHash": "0x5f347fc753020dbea287488f45970909e4fe945503a610bfe82061c0d4761fec",
  "args": [],
  "numDeployments": 2,
  "solcInputHash": "363731581ff015b2055daf0e9e0f8bde",
  "bytecode": "0x608060405234801561001057600080fd5b50610884806100206000396000f3fe608060405234801561001057600080fd5b506004361061007d5760003560e01c80637e9803421161005b5780637e9803421461011b578063b9c4d9fb14610131578063cad96cca14610151578063d5a06d4c1461017157600080fd5b80630653aca5146100825780630ebd4c7f146100c95780632a55205a146100e9575b600080fd5b610095610090366004610680565b610192565b60408051825181526020808401516001600160a01b0316908201529181015161ffff16908201526060015b60405180910390f35b6100dc6100d7366004610680565b6101be565b6040516100c091906106d4565b6100fc6100f73660046106e7565b61021b565b604080516001600160a01b0390931683526020830191909152016100c0565b610123610234565b6040519081526020016100c0565b61014461013f366004610680565b610243565b6040516100c09190610742565b61016461015f366004610680565b6102ad565b6040516100c09190610755565b61018461017f366004610680565b610381565b6040516100c09291906107bb565b60408051606081018252600080825260208201819052918101919091526101b88261043d565b92915050565b604080516001808252818301909252606091600091906020808301908036833701905050905060006101f284612710610509565b9150508082600081518110610209576102096107e9565b60209081029190910101525092915050565b6000806102288484610509565b915091505b9250929050565b600061023e61060e565b905090565b6040805160018082528183019092526060916000919060208083019080368337019050509050600061027784612710610509565b509050808260008151811061028e5761028e6107e9565b6001600160a01b03909216602092830291909101909101525092915050565b604080516001808252818301909252606091816020015b60408051808201909152600080825260208201528152602001906001900390816102c45790505090506000806102fc84612710610509565b915091508183600081518110610314576103146107e9565b6020026020010151600001906001600160a01b031690816001600160a01b031681525050808360008151811061034c5761034c6107e9565b6020026020010151602001906bffffffffffffffffffffffff1690816bffffffffffffffffffffffff16815250505050919050565b60408051600180825281830190925260609182916000916020808301908036833750506040805160018082528183019092529293506000929150602080830190803683370190505090506000806103da87612710610509565b9150915081846000815181106103f2576103f26107e9565b60200260200101906001600160a01b031690816001600160a01b0316815250508083600081518110610426576104266107e9565b602090810291909101015250919590945092505050565b60408051606081018252600080825260208201819052918101829052907fad41a88d044cfe4c318a78970a1f122259b5b1a56fdee398e17d1e83109ea075906104a67fad41a88d044cfe4c318a78970a1f122259b5b1a56fdee398e17d1e83109ea07785610639565b6000818152600190930160209081526040938490208451808601865290546001600160a01b03808216835261ffff600160a01b90920482168385019081528751606081018952958652925116928401929092525116928101929092525092915050565b60008281527fad41a88d044cfe4c318a78970a1f122259b5b1a56fdee398e17d1e83109ea076602052604081205481907fad41a88d044cfe4c318a78970a1f122259b5b1a56fdee398e17d1e83109ea075906001600160a01b0316156105b25760008581526001820160205260409020546001600160a01b038116906127109061059e90600160a01b900461ffff16876107ff565b6105a8919061082c565b925092505061022d565b80546001600160a01b0316158015906105d657508054600160a01b900461ffff1615155b156106015780546001600160a01b038116906127109061059e90600160a01b900461ffff16876107ff565b5060009485945092505050565b600061023e7fad41a88d044cfe4c318a78970a1f122259b5b1a56fdee398e17d1e83109ea07761064c565b60006106458383610656565b9392505050565b60006101b8825490565b600082600001828154811061066d5761066d6107e9565b9060005260206000200154905092915050565b60006020828403121561069257600080fd5b5035919050565b600081518084526020808501945080840160005b838110156106c9578151875295820195908201906001016106ad565b509495945050505050565b6020815260006106456020830184610699565b600080604083850312156106fa57600080fd5b50508035926020909101359150565b600081518084526020808501945080840160005b838110156106c95781516001600160a01b03168752958201959082019060010161071d565b6020815260006106456020830184610709565b602080825282518282018190526000919060409081850190868401855b828110156107ae57815180516001600160a01b031685528601516bffffffffffffffffffffffff16868501529284019290850190600101610772565b5091979650505050505050565b6040815260006107ce6040830185610709565b82810360208401526107e08185610699565b95945050505050565b634e487b7160e01b600052603260045260246000fd5b600081600019048311821515161561082757634e487b7160e01b600052601160045260246000fd5b500290565b60008261084957634e487b7160e01b600052601260045260246000fd5b50049056fea2646970667358221220787aa8423d384ab5619fbd0b58e78bce010ce4eb60e3181ab3989c4787cebf6d64736f6c634300080f0033",
  "devdoc": {
    "custom:category": "Finance",
    "custom:provides-interfaces": "0xcad96cca 0xc69dbd8f",
    "custom:type": "eip-2535-facet",
    "kind": "dev",
    "methods": {
      "getFeeRecipients(uint256)": {
        "details": "IRaribleV1"
      },
      "getFees(uint256)": {
        "details": "IFoundation"
      },
      "getRaribleV2Royalties(uint256)": {
        "details": "IRaribleV2"
      },
      "getTokenRoyaltiesCount()": {
        "details": "IEIP2981RoyaltyOverride (Manifold)"
      },
      "getTokenRoyaltyByIndex(uint256)": {
        "details": "Get a token royalty configuration by index.  Use in conjunction with getTokenRoyaltiesCount to get all per token configurations"
      },
      "royaltyInfo(uint256,uint256)": {
        "details": "EIP-2981"
      }
    },
    "title": "ERC2981 - Royalty",
    "version": 1
  },
  "userdoc": {
    "kind": "user",
    "methods": {},
    "notice": "Provide standard on-chain EIP-2981 royalty support for ERC721 or ERC1155 tokens, and additional functions for Rarible and Foundation.",
    "version": 1
  },
  "storageLayout": {
    "storage": [],
    "types": null
  }
}