{
  "address": "0x4080e4062818B15902706751269b9527984b8E8D",
  "abi": [
    {
      "anonymous": false,
      "inputs": [
        {
          "indexed": true,
          "internalType": "address",
          "name": "previousOwner",
          "type": "address"
        },
        {
          "indexed": true,
          "internalType": "address",
          "name": "newOwner",
          "type": "address"
        }
      ],
      "name": "OwnershipTransferred",
      "type": "event"
    },
    {
      "inputs": [
        {
          "internalType": "uint256",
          "name": "tierId",
          "type": "uint256"
        },
        {
          "components": [
            {
              "internalType": "uint256",
              "name": "start",
              "type": "uint256"
            },
            {
              "internalType": "uint256",
              "name": "end",
              "type": "uint256"
            },
            {
              "internalType": "address",
              "name": "currency",
              "type": "address"
            },
            {
              "internalType": "uint256",
              "name": "price",
              "type": "uint256"
            },
            {
              "internalType": "uint256",
              "name": "maxPerWallet",
              "type": "uint256"
            },
            {
              "internalType": "bytes32",
              "name": "merkleRoot",
              "type": "bytes32"
            },
            {
              "internalType": "uint256",
              "name": "reserved",
              "type": "uint256"
            },
            {
              "internalType": "uint256",
              "name": "maxAllocation",
              "type": "uint256"
            },
            {
              "internalType": "address",
              "name": "signer",
              "type": "address"
            }
          ],
          "internalType": "struct ITieredSalesInternal.Tier",
          "name": "tier",
          "type": "tuple"
        }
      ],
      "name": "configureTiering",
      "outputs": [],
      "stateMutability": "nonpayable",
      "type": "function"
    },
    {
      "inputs": [
        {
          "internalType": "uint256[]",
          "name": "tierIds",
          "type": "uint256[]"
        },
        {
          "components": [
            {
              "internalType": "uint256",
              "name": "start",
              "type": "uint256"
            },
            {
              "internalType": "uint256",
              "name": "end",
              "type": "uint256"
            },
            {
              "internalType": "address",
              "name": "currency",
              "type": "address"
            },
            {
              "internalType": "uint256",
              "name": "price",
              "type": "uint256"
            },
            {
              "internalType": "uint256",
              "name": "maxPerWallet",
              "type": "uint256"
            },
            {
              "internalType": "bytes32",
              "name": "merkleRoot",
              "type": "bytes32"
            },
            {
              "internalType": "uint256",
              "name": "reserved",
              "type": "uint256"
            },
            {
              "internalType": "uint256",
              "name": "maxAllocation",
              "type": "uint256"
            },
            {
              "internalType": "address",
              "name": "signer",
              "type": "address"
            }
          ],
          "internalType": "struct ITieredSalesInternal.Tier[]",
          "name": "tiers",
          "type": "tuple[]"
        }
      ],
      "name": "configureTiering",
      "outputs": [],
      "stateMutability": "nonpayable",
      "type": "function"
    }
  ],
  "transactionHash": "0xa821a8565d92424720501a2b5112f1382006bfb818ff2c5865e7245d3a7fa783",
  "args": [],
  "numDeployments": 6,
  "solcInputHash": "c55c02555ed2787a9a3699470ac3d317",
  "bytecode": "0x608060405234801561001057600080fd5b506107b3806100206000396000f3fe608060405234801561001057600080fd5b50600436106100365760003560e01c80631ba8e5d61461003b578063bb24041214610050575b600080fd5b61004e610049366004610480565b610063565b005b61004e61005e3660046104d8565b610116565b7fc0ea367cb0174dd5521cd2372c76f8c13e6c1f832c71f1d6e0cbc185c9cc8ed45473ffffffffffffffffffffffffffffffffffffffff163314610108576040517f08c379a000000000000000000000000000000000000000000000000000000000815260206004820152601d60248201527f4f776e61626c653a2073656e646572206d757374206265206f776e657200000060448201526064015b60405180910390fd5b61011282826101c8565b5050565b7fc0ea367cb0174dd5521cd2372c76f8c13e6c1f832c71f1d6e0cbc185c9cc8ed45473ffffffffffffffffffffffffffffffffffffffff1633146101b6576040517f08c379a000000000000000000000000000000000000000000000000000000000815260206004820152601d60248201527f4f776e61626c653a2073656e646572206d757374206265206f776e657200000060448201526064016100ff565b6101c284848484610422565b50505050565b60008281527fb7471df0c7246ed3d4a380504edfbb03f5845b709c7716243791636e4ba46cbf60205260409020547fb7471df0c7246ed3d4a380504edfbb03f5845b709c7716243791636e4ba46cbb9060e08301351015610285576040517f08c379a000000000000000000000000000000000000000000000000000000000815260206004820152601160248201527f4c4f5745525f5448414e5f4d494e54454400000000000000000000000000000060448201526064016100ff565b60008381526003820160205260409020600601541561031c57600083815260048201602052604090205460c0830135101561031c576040517f08c379a000000000000000000000000000000000000000000000000000000000815260206004820152601260248201527f4c4f575f524553455256455f414d4f554e54000000000000000000000000000060448201526064016100ff565b6000838152600482016020526040902054156103b3576000838152600382016020526040902060040154608083013510156103b3576040517f08c379a000000000000000000000000000000000000000000000000000000000815260206004820152601260248201527f4c4f575f4d41585f5045525f57414c4c4554000000000000000000000000000060448201526064016100ff565b6000838152600382016020526040812060060154600183018054919290916103dc9084906105d0565b90915550506000838152600382016020526040902082906103fd8282610613565b9050508160c0013581600101600082825461041891906106fe565b9091555050505050565b60005b838110156104795761046785858381811061044257610442610716565b9050602002013584848481811061045b5761045b610716565b905061012002016101c8565b8061047181610745565b915050610425565b5050505050565b60008082840361014081121561049557600080fd5b833592506101207fffffffffffffffffffffffffffffffffffffffffffffffffffffffffffffffe0820112156104ca57600080fd5b506020830190509250929050565b600080600080604085870312156104ee57600080fd5b843567ffffffffffffffff8082111561050657600080fd5b818701915087601f83011261051a57600080fd5b81358181111561052957600080fd5b8860208260051b850101111561053e57600080fd5b60209283019650945090860135908082111561055957600080fd5b818701915087601f83011261056d57600080fd5b81358181111561057c57600080fd5b8860206101208302850101111561059257600080fd5b95989497505060200194505050565b7f4e487b7100000000000000000000000000000000000000000000000000000000600052601160045260246000fd5b6000828210156105e2576105e26105a1565b500390565b6000813573ffffffffffffffffffffffffffffffffffffffff8116811461060d57600080fd5b92915050565b8135815560208201356001820155610676610630604084016105e7565b6002830173ffffffffffffffffffffffffffffffffffffffff82167fffffffffffffffffffffffff00000000000000000000000000000000000000008254161781555050565b606082013560038201556080820135600482015560a0820135600582015560c0820135600682015560e082013560078201556101126106b861010084016105e7565b6008830173ffffffffffffffffffffffffffffffffffffffff82167fffffffffffffffffffffffff00000000000000000000000000000000000000008254161781555050565b60008219821115610711576107116105a1565b500190565b7f4e487b7100000000000000000000000000000000000000000000000000000000600052603260045260246000fd5b60007fffffffffffffffffffffffffffffffffffffffffffffffffffffffffffffffff8203610776576107766105a1565b506001019056fea26469706673582212203f915f17245ec0f2dcb58797c40b4873faa60b17ebcb1265041553a2150412ab64736f6c634300080f0033",
  "devdoc": {
    "custom:category": "NFTs",
    "custom:peer-dependencies": "ITieredSales",
    "custom:provides-interfaces": "ITieredSalesAdmin",
    "custom:type": "eip-2535-facet",
    "kind": "dev",
    "methods": {},
    "title": "Tiered Sales - Admin - Ownable",
    "version": 1
  },
  "userdoc": {
    "kind": "user",
    "methods": {},
    "notice": "Allow contract owner to manage sale tiers.",
    "version": 1
  },
  "storageLayout": {
    "storage": [],
    "types": null
  }
}