{
  "address": "0xFCAEa9fE85Dc6d537165d804c26373fe9a56916A",
  "abi": [
    {
      "inputs": [],
      "name": "WithdrawImpossible",
      "type": "error"
    },
    {
      "inputs": [],
      "name": "WithdrawOnlyOwner",
      "type": "error"
    },
    {
      "inputs": [],
      "name": "WithdrawOnlyRecipient",
      "type": "error"
    },
    {
      "anonymous": false,
      "inputs": [
        {
          "indexed": true,
          "internalType": "address",
          "name": "previousOwner",
          "type": "address"
        },
        {
          "indexed": true,
          "internalType": "address",
          "name": "newOwner",
          "type": "address"
        }
      ],
      "name": "OwnershipTransferred",
      "type": "event"
    },
    {
      "anonymous": false,
      "inputs": [
        {
          "indexed": false,
          "internalType": "address[]",
          "name": "claimTokens",
          "type": "address[]"
        },
        {
          "indexed": false,
          "internalType": "uint256[]",
          "name": "amounts",
          "type": "uint256[]"
        }
      ],
      "name": "Withdrawn",
      "type": "event"
    },
    {
      "inputs": [
        {
          "internalType": "address[]",
          "name": "claimTokens",
          "type": "address[]"
        },
        {
          "internalType": "uint256[]",
          "name": "amounts",
          "type": "uint256[]"
        }
      ],
      "name": "withdraw",
      "outputs": [],
      "stateMutability": "nonpayable",
      "type": "function"
    }
  ],
  "transactionHash": "0x4671abcccacfa96ee241fbc2d4bb204824cb5c67d14270473daf4c99c95e3317",
  "args": [],
  "numDeployments": 1,
  "solcInputHash": "9932f08b76ff3c8d25eae92113779e3f",
  "bytecode": "0x608060405234801561001057600080fd5b506106ed806100206000396000f3fe608060405234801561001057600080fd5b506004361061002b5760003560e01c8063de6d6d9614610030575b600080fd5b61004361003e3660046104fd565b610045565b005b7f90911dd6b04582315fdcc835c92eb07b11f82eb9def7c511af0f2f9de3ddcfe38054600390600160b01b900460ff168181111561008557610085610569565b036100a3576040516341d0304760e01b815260040160405180910390fd5b60018154600160b01b900460ff1660038111156100c2576100c2610569565b0361010f5780546001600160a01b0316331461010a576040517f1643985300000000000000000000000000000000000000000000000000000000815260040160405180910390fd5b6101a5565b60008154600160b01b900460ff16600381111561012e5761012e610569565b036101a557336101657fc0ea367cb0174dd5521cd2372c76f8c13e6c1f832c71f1d6e0cbc185c9cc8ed4546001600160a01b031690565b6001600160a01b0316146101a5576040517f94db469900000000000000000000000000000000000000000000000000000000815260040160405180910390fd5b80547501000000000000000000000000000000000000000000900460ff16156101e1576040516341d0304760e01b815260040160405180910390fd5b60005b848110156103495760008686838181106102005761020061057f565b905060200201602081019061021591906105b1565b6001600160a01b031603610257576102528484838181106102385761023861057f565b85546001600160a01b03169260209091020135905061038e565b610337565b8585828181106102695761026961057f565b905060200201602081019061027e91906105b1565b82546001600160a01b039182169163a9059cbb91168686858181106102a5576102a561057f565b6040517fffffffff0000000000000000000000000000000000000000000000000000000060e087901b1681526001600160a01b03909416600485015260200291909101356024830152506044016020604051808303816000875af1158015610311573d6000803e3d6000fd5b505050506040513d601f19601f8201168201806040525081019061033591906105d3565b505b80610341816105f5565b9150506101e4565b507fd40c399a83caf67d15628b821aa7c7bd940e563c57a047e2bd3b8c602bcaf5a58585858560405161037f949392919061061c565b60405180910390a15050505050565b804710156103e35760405162461bcd60e51b815260206004820152601d60248201527f416464726573733a20696e73756666696369656e742062616c616e636500000060448201526064015b60405180910390fd5b6000826001600160a01b03168260405160006040518083038185875af1925050503d8060008114610430576040519150601f19603f3d011682016040523d82523d6000602084013e610435565b606091505b50509050806104ac5760405162461bcd60e51b815260206004820152603a60248201527f416464726573733a20756e61626c6520746f2073656e642076616c75652c207260448201527f6563697069656e74206d6179206861766520726576657274656400000000000060648201526084016103da565b505050565b60008083601f8401126104c357600080fd5b50813567ffffffffffffffff8111156104db57600080fd5b6020830191508360208260051b85010111156104f657600080fd5b9250929050565b6000806000806040858703121561051357600080fd5b843567ffffffffffffffff8082111561052b57600080fd5b610537888389016104b1565b9096509450602087013591508082111561055057600080fd5b5061055d878288016104b1565b95989497509550505050565b634e487b7160e01b600052602160045260246000fd5b634e487b7160e01b600052603260045260246000fd5b80356001600160a01b03811681146105ac57600080fd5b919050565b6000602082840312156105c357600080fd5b6105cc82610595565b9392505050565b6000602082840312156105e557600080fd5b815180151581146105cc57600080fd5b60006001820161061557634e487b7160e01b600052601160045260246000fd5b5060010190565b6040808252810184905260008560608301825b8781101561065d576001600160a01b0361064884610595565b1682526020928301929091019060010161062f565b5083810360208501528481527f07ffffffffffffffffffffffffffffffffffffffffffffffffffffffffffffff85111561069657600080fd5b8460051b91508186602083013760009101602001908152969550505050505056fea2646970667358221220645c951e510ac89cbea6535db806a2d6b0f590f225b97fa11615eb32a5b14c8c64736f6c634300080f0033",
  "devdoc": {
    "custom:category": "Finance",
    "custom:provides-interfaces": "0xde6d6d96",
    "custom:type": "eip-2535-facet",
    "kind": "dev",
    "methods": {},
    "title": "Withdrawable",
    "version": 1
  },
  "userdoc": {
    "kind": "user",
    "methods": {},
    "notice": "Allow withdrwaing any ERC20 or native tokens from the contract.",
    "version": 1
  },
  "storageLayout": {
    "storage": [],
    "types": null
  }
}