{
  "address": "0xdb2730fBef4d69d28Bb16d0C071Fca42ED59bE00",
  "abi": [
    {
      "inputs": [],
      "name": "ErrMaxSupplyFrozen",
      "type": "error"
    },
    {
      "anonymous": false,
      "inputs": [
        {
          "indexed": true,
          "internalType": "address",
          "name": "previousOwner",
          "type": "address"
        },
        {
          "indexed": true,
          "internalType": "address",
          "name": "newOwner",
          "type": "address"
        }
      ],
      "name": "OwnershipTransferred",
      "type": "event"
    },
    {
      "inputs": [],
      "name": "freezeMaxSupply",
      "outputs": [],
      "stateMutability": "nonpayable",
      "type": "function"
    },
    {
      "inputs": [],
      "name": "maxSupplyFrozen",
      "outputs": [
        {
          "internalType": "bool",
          "name": "",
          "type": "bool"
        }
      ],
      "stateMutability": "view",
      "type": "function"
    },
    {
      "inputs": [
        {
          "internalType": "uint256",
          "name": "newValue",
          "type": "uint256"
        }
      ],
      "name": "setMaxSupply",
      "outputs": [],
      "stateMutability": "nonpayable",
      "type": "function"
    }
  ],
  "transactionHash": "0x29fd2abe733f71e73157310fb5dd06a3727bf7cfbe6a017b4ad78e2a5d085106",
  "args": [],
  "numDeployments": 1,
  "solcInputHash": "354ee2622d904f4fbaf6db8e49b9ba36",
  "bytecode": "0x608060405234801561001057600080fd5b506102d0806100206000396000f3fe608060405234801561001057600080fd5b50600436106100415760003560e01c806316744607146100465780636f8b44b014610050578063f384702f14610063575b600080fd5b61004e61007f565b005b61004e61005e366004610281565b61013d565b61006b6101cf565b604051901515815260200160405180910390f35b7fc0ea367cb0174dd5521cd2372c76f8c13e6c1f832c71f1d6e0cbc185c9cc8ed45473ffffffffffffffffffffffffffffffffffffffff16331461010a5760405162461bcd60e51b815260206004820152601d60248201527f4f776e61626c653a2073656e646572206d757374206265206f776e657200000060448201526064015b60405180910390fd5b61013b7fd0832515f11f667b4d59e1c68f49df2dada478773101548b4c3734f8821cd554805460ff19166001179055565b565b7fc0ea367cb0174dd5521cd2372c76f8c13e6c1f832c71f1d6e0cbc185c9cc8ed45473ffffffffffffffffffffffffffffffffffffffff1633146101c35760405162461bcd60e51b815260206004820152601d60248201527f4f776e61626c653a2073656e646572206d757374206265206f776e65720000006044820152606401610101565b6101cc81610201565b50565b60006101fc7fd0832515f11f667b4d59e1c68f49df2dada478773101548b4c3734f8821cd5545460ff1690565b905090565b7fd0832515f11f667b4d59e1c68f49df2dada478773101548b4c3734f8821cd5545460ff161561025d576040517f600d428700000000000000000000000000000000000000000000000000000000815260040160405180910390fd5b7f992082eab08422324340bd25ada2736d6cd62f0b0f29a637f182303af822d56e55565b60006020828403121561029357600080fd5b503591905056fea2646970667358221220c0043ae62034a4db557abea491524f9e1793acc21f5b63c430b078a16fa59f2b64736f6c634300080f0033",
  "devdoc": {
    "custom:category": "Tokens",
    "custom:peer-dependencies": "IERC20SupplyExtension",
    "custom:provides-interfaces": "IERC20SupplyAdmin",
    "custom:type": "eip-2535-facet",
    "kind": "dev",
    "methods": {},
    "title": "ERC20 - Supply - Admin - Ownable",
    "version": 1
  },
  "userdoc": {
    "kind": "user",
    "methods": {},
    "notice": "Allows owner of a EIP-721 contract to change max supply of tokens.",
    "version": 1
  },
  "storageLayout": {
    "storage": [],
    "types": null
  }
}