{
  "address": "0x8043d592263311ccCaAeeC871Df6ad1e127A52E1",
  "abi": [
    {
      "anonymous": false,
      "inputs": [
        {
          "indexed": true,
          "internalType": "address",
          "name": "previousOwner",
          "type": "address"
        },
        {
          "indexed": true,
          "internalType": "address",
          "name": "newOwner",
          "type": "address"
        }
      ],
      "name": "OwnershipTransferred",
      "type": "event"
    },
    {
      "anonymous": false,
      "inputs": [
        {
          "indexed": true,
          "internalType": "uint256",
          "name": "tierId",
          "type": "uint256"
        },
        {
          "indexed": true,
          "internalType": "address",
          "name": "operator",
          "type": "address"
        },
        {
          "indexed": true,
          "internalType": "address",
          "name": "minter",
          "type": "address"
        },
        {
          "indexed": false,
          "internalType": "uint256",
          "name": "count",
          "type": "uint256"
        }
      ],
      "name": "TierSale",
      "type": "event"
    },
    {
      "inputs": [
        {
          "internalType": "uint256",
          "name": "tierId",
          "type": "uint256"
        },
        {
          "components": [
            {
              "internalType": "uint256",
              "name": "start",
              "type": "uint256"
            },
            {
              "internalType": "uint256",
              "name": "end",
              "type": "uint256"
            },
            {
              "internalType": "address",
              "name": "currency",
              "type": "address"
            },
            {
              "internalType": "uint256",
              "name": "price",
              "type": "uint256"
            },
            {
              "internalType": "uint256",
              "name": "maxPerWallet",
              "type": "uint256"
            },
            {
              "internalType": "bytes32",
              "name": "merkleRoot",
              "type": "bytes32"
            },
            {
              "internalType": "uint256",
              "name": "reserved",
              "type": "uint256"
            },
            {
              "internalType": "uint256",
              "name": "maxAllocation",
              "type": "uint256"
            }
          ],
          "internalType": "struct ITieredSalesInternal.Tier",
          "name": "tier",
          "type": "tuple"
        }
      ],
      "name": "configureTiering",
      "outputs": [],
      "stateMutability": "nonpayable",
      "type": "function"
    },
    {
      "inputs": [
        {
          "internalType": "uint256[]",
          "name": "tierIds",
          "type": "uint256[]"
        },
        {
          "components": [
            {
              "internalType": "uint256",
              "name": "start",
              "type": "uint256"
            },
            {
              "internalType": "uint256",
              "name": "end",
              "type": "uint256"
            },
            {
              "internalType": "address",
              "name": "currency",
              "type": "address"
            },
            {
              "internalType": "uint256",
              "name": "price",
              "type": "uint256"
            },
            {
              "internalType": "uint256",
              "name": "maxPerWallet",
              "type": "uint256"
            },
            {
              "internalType": "bytes32",
              "name": "merkleRoot",
              "type": "bytes32"
            },
            {
              "internalType": "uint256",
              "name": "reserved",
              "type": "uint256"
            },
            {
              "internalType": "uint256",
              "name": "maxAllocation",
              "type": "uint256"
            }
          ],
          "internalType": "struct ITieredSalesInternal.Tier[]",
          "name": "tiers",
          "type": "tuple[]"
        }
      ],
      "name": "configureTiering",
      "outputs": [],
      "stateMutability": "nonpayable",
      "type": "function"
    }
  ],
  "transactionHash": "0x9d37b7ed450ef9dafd38a60f7de4ab68b71258fbd12aee7fb31a4d14322e1d93",
  "args": [],
  "numDeployments": 3,
  "solcInputHash": "24f964636901b23f343eb88b8f5f82cb",
  "bytecode": "0x608060405234801561001057600080fd5b506105d7806100206000396000f3fe608060405234801561001057600080fd5b50600436106100365760003560e01c806320f1bb301461003b578063d8b436fd14610050575b600080fd5b61004e61004936600461037d565b610063565b005b61004e61005e3660046103b7565b6100fc565b7fc0ea367cb0174dd5521cd2372c76f8c13e6c1f832c71f1d6e0cbc185c9cc8ed45473ffffffffffffffffffffffffffffffffffffffff1633146100ee5760405162461bcd60e51b815260206004820152601d60248201527f4f776e61626c653a2073656e646572206d757374206265206f776e657200000060448201526064015b60405180910390fd5b6100f88282610194565b5050565b7fc0ea367cb0174dd5521cd2372c76f8c13e6c1f832c71f1d6e0cbc185c9cc8ed45473ffffffffffffffffffffffffffffffffffffffff1633146101825760405162461bcd60e51b815260206004820152601d60248201527f4f776e61626c653a2073656e646572206d757374206265206f776e657200000060448201526064016100e5565b61018e8484848461031f565b50505050565b60008281527fb7471df0c7246ed3d4a380504edfbb03f5845b709c7716243791636e4ba46cbe60205260409020547fb7471df0c7246ed3d4a380504edfbb03f5845b709c7716243791636e4ba46cbb9060e083013510156102375760405162461bcd60e51b815260206004820152601160248201527f4c4f5745525f5448414e5f4d494e54454400000000000000000000000000000060448201526064016100e5565b6000838152600282016020526040902060060154156102b457600083815260038201602052604090205460c083013510156102b45760405162461bcd60e51b815260206004820152601260248201527f4c4f575f524553455256455f414d4f554e54000000000000000000000000000060448201526064016100e5565b60008381526002820160205260408120600601548254909183916102d9908490610495565b90915550506000838152600282016020526040902082906102fa82826104ac565b9050508160c00135816000016000828254610315919061055a565b9091555050505050565b60005b838110156103765761036485858381811061033f5761033f610572565b9050602002013584848481811061035857610358610572565b90506101000201610194565b8061036e81610588565b915050610322565b5050505050565b60008082840361012081121561039257600080fd5b83359250610100601f19820112156103a957600080fd5b506020830190509250929050565b600080600080604085870312156103cd57600080fd5b843567ffffffffffffffff808211156103e557600080fd5b818701915087601f8301126103f957600080fd5b81358181111561040857600080fd5b8860208260051b850101111561041d57600080fd5b60209283019650945090860135908082111561043857600080fd5b818701915087601f83011261044c57600080fd5b81358181111561045b57600080fd5b8860208260081b850101111561047057600080fd5b95989497505060200194505050565b634e487b7160e01b600052601160045260246000fd5b6000828210156104a7576104a761047f565b500390565b8135815560208201356001820155604082013573ffffffffffffffffffffffffffffffffffffffff811681146104e157600080fd5b6002820180547fffffffffffffffffffffffff00000000000000000000000000000000000000001673ffffffffffffffffffffffffffffffffffffffff831617905550606082013560038201556080820135600482015560a0820135600582015560c0820135600682015560e082013560078201555050565b6000821982111561056d5761056d61047f565b500190565b634e487b7160e01b600052603260045260246000fd5b60006001820161059a5761059a61047f565b506001019056fea2646970667358221220d3248af559da1b6755b39265729bb2f328042d08cae566390e61c21f155b5f9864736f6c634300080f0033",
  "devdoc": {
    "custom:category": "NFTs",
    "custom:peer-dependencies": "ITieredSales",
    "custom:provides-interfaces": "ITieredSalesAdmin",
    "custom:type": "eip-2535-facet",
    "kind": "dev",
    "methods": {},
    "title": "Tiered Sales - Admin - Ownable",
    "version": 1
  },
  "userdoc": {
    "kind": "user",
    "methods": {},
    "notice": "Allow contract owner to manage sale tiers.",
    "version": 1
  },
  "storageLayout": {
    "storage": [],
    "types": null
  }
}