{
  "address": "0xae19F12838b3513246769Ed8636D565F75Dcb1c7",
  "abi": [
    {
      "anonymous": false,
      "inputs": [
        {
          "indexed": true,
          "internalType": "bytes32",
          "name": "role",
          "type": "bytes32"
        },
        {
          "indexed": true,
          "internalType": "bytes32",
          "name": "previousAdminRole",
          "type": "bytes32"
        },
        {
          "indexed": true,
          "internalType": "bytes32",
          "name": "newAdminRole",
          "type": "bytes32"
        }
      ],
      "name": "RoleAdminChanged",
      "type": "event"
    },
    {
      "anonymous": false,
      "inputs": [
        {
          "indexed": true,
          "internalType": "bytes32",
          "name": "role",
          "type": "bytes32"
        },
        {
          "indexed": true,
          "internalType": "address",
          "name": "account",
          "type": "address"
        },
        {
          "indexed": true,
          "internalType": "address",
          "name": "sender",
          "type": "address"
        }
      ],
      "name": "RoleGranted",
      "type": "event"
    },
    {
      "anonymous": false,
      "inputs": [
        {
          "indexed": true,
          "internalType": "bytes32",
          "name": "role",
          "type": "bytes32"
        },
        {
          "indexed": true,
          "internalType": "address",
          "name": "account",
          "type": "address"
        },
        {
          "indexed": true,
          "internalType": "address",
          "name": "sender",
          "type": "address"
        }
      ],
      "name": "RoleRevoked",
      "type": "event"
    },
    {
      "inputs": [],
      "name": "DEFAULT_ADMIN_ROLE",
      "outputs": [
        {
          "internalType": "bytes32",
          "name": "",
          "type": "bytes32"
        }
      ],
      "stateMutability": "view",
      "type": "function"
    },
    {
      "inputs": [
        {
          "internalType": "bytes32",
          "name": "role",
          "type": "bytes32"
        }
      ],
      "name": "getRoleAdmin",
      "outputs": [
        {
          "internalType": "bytes32",
          "name": "",
          "type": "bytes32"
        }
      ],
      "stateMutability": "view",
      "type": "function"
    },
    {
      "inputs": [
        {
          "internalType": "bytes32",
          "name": "role",
          "type": "bytes32"
        },
        {
          "internalType": "address",
          "name": "account",
          "type": "address"
        }
      ],
      "name": "grantRole",
      "outputs": [],
      "stateMutability": "nonpayable",
      "type": "function"
    },
    {
      "inputs": [
        {
          "internalType": "bytes32",
          "name": "role",
          "type": "bytes32"
        },
        {
          "internalType": "address",
          "name": "account",
          "type": "address"
        }
      ],
      "name": "hasRole",
      "outputs": [
        {
          "internalType": "bool",
          "name": "",
          "type": "bool"
        }
      ],
      "stateMutability": "view",
      "type": "function"
    },
    {
      "inputs": [
        {
          "internalType": "bytes32",
          "name": "role",
          "type": "bytes32"
        },
        {
          "internalType": "address",
          "name": "account",
          "type": "address"
        }
      ],
      "name": "renounceRole",
      "outputs": [],
      "stateMutability": "nonpayable",
      "type": "function"
    },
    {
      "inputs": [
        {
          "internalType": "bytes32",
          "name": "role",
          "type": "bytes32"
        },
        {
          "internalType": "address",
          "name": "account",
          "type": "address"
        }
      ],
      "name": "revokeRole",
      "outputs": [],
      "stateMutability": "nonpayable",
      "type": "function"
    }
  ],
  "transactionHash": "0x9fa31798be5f4ec40d83014b19e3013d93e09d2e107c5306c473f22256fcfb84",
  "args": [],
  "numDeployments": 1,
  "solcInputHash": "cddfad32843a41b7d6d44e36836781e6",
  "bytecode": "0x608060405234801561001057600080fd5b506109b3806100206000396000f3fe608060405234801561001057600080fd5b50600436106100725760003560e01c806391d148541161005057806391d14854146100c5578063a217fddf146100e8578063d547741f146100f057600080fd5b8063248a9ca3146100775780632f2ff15d1461009d57806336568abe146100b2575b600080fd5b61008a6100853660046107b4565b610103565b6040519081526020015b60405180910390f35b6100b06100ab3660046107cd565b61013b565b005b6100b06100c03660046107cd565b610184565b6100d86100d33660046107cd565b610192565b6040519015158152602001610094565b61008a600081565b6100b06100fe3660046107cd565b6101df565b60008181527f2e59e4c2e927cdddbb64e181e0668d9a0fa70dd88f94d999cd87d5496a20da6260205260408120600101545b92915050565b60008281527f2e59e4c2e927cdddbb64e181e0668d9a0fa70dd88f94d999cd87d5496a20da62602052604090206001015461017581610223565b61017f8383610237565b505050565b61018e8282610318565b5050565b60008281527f2e59e4c2e927cdddbb64e181e0668d9a0fa70dd88f94d999cd87d5496a20da62602090815260408083206001600160a01b038516845290915281205460ff165b9392505050565b60008281527f2e59e4c2e927cdddbb64e181e0668d9a0fa70dd88f94d999cd87d5496a20da62602052604090206001015461021981610223565b61017f83836103b1565b6102348161022f610490565b61049f565b50565b60008281527f2e59e4c2e927cdddbb64e181e0668d9a0fa70dd88f94d999cd87d5496a20da62602090815260408083206001600160a01b038516845290915290205460ff1661018e5760008281527f2e59e4c2e927cdddbb64e181e0668d9a0fa70dd88f94d999cd87d5496a20da62602090815260408083206001600160a01b03851684529091529020805460ff191660011790556102d4610490565b6001600160a01b0316816001600160a01b0316837f2f8788117e7eff1d82e926ec794901d17c78024a50270940304540a733656f0d60405160405180910390a45050565b610320610490565b6001600160a01b0316816001600160a01b0316146103ab5760405162461bcd60e51b815260206004820152602f60248201527f416363657373436f6e74726f6c3a2063616e206f6e6c792072656e6f756e636560448201527f20726f6c657320666f722073656c66000000000000000000000000000000000060648201526084015b60405180910390fd5b61018e82825b60008281527f2e59e4c2e927cdddbb64e181e0668d9a0fa70dd88f94d999cd87d5496a20da62602090815260408083206001600160a01b038516845290915290205460ff161561018e5760008281527f2e59e4c2e927cdddbb64e181e0668d9a0fa70dd88f94d999cd87d5496a20da62602090815260408083206001600160a01b03851684529091529020805460ff1916905561044c610490565b6001600160a01b0316816001600160a01b0316837ff6391f5c32d9c69d2a47ea670b442974b53935d1edc7fd64eb21e047a839171b60405160405180910390a45050565b600061049a610533565b905090565b60008281527f2e59e4c2e927cdddbb64e181e0668d9a0fa70dd88f94d999cd87d5496a20da62602090815260408083206001600160a01b038516845290915290205460ff1661018e576104f181610579565b6104fc83602061058b565b60405160200161050d929190610839565b60408051601f198184030181529082905262461bcd60e51b82526103a2916004016108ba565b7fdb1d5e345c4903e9a32b6674ecc8b1deaddbbb2551474fb34c9d34becbe7f420546000906001600160a01b03163303610574575060131936013560601c90565b503390565b60606101356001600160a01b03831660145b6060600061059a836002610903565b6105a5906002610922565b67ffffffffffffffff8111156105bd576105bd61093a565b6040519080825280601f01601f1916602001820160405280156105e7576020820181803683370190505b5090507f30000000000000000000000000000000000000000000000000000000000000008160008151811061061e5761061e610950565b60200101907effffffffffffffffffffffffffffffffffffffffffffffffffffffffffffff1916908160001a9053507f78000000000000000000000000000000000000000000000000000000000000008160018151811061068157610681610950565b60200101907effffffffffffffffffffffffffffffffffffffffffffffffffffffffffffff1916908160001a90535060006106bd846002610903565b6106c8906001610922565b90505b6001811115610765577f303132333435363738396162636465660000000000000000000000000000000085600f166010811061070957610709610950565b1a60f81b82828151811061071f5761071f610950565b60200101907effffffffffffffffffffffffffffffffffffffffffffffffffffffffffffff1916908160001a90535060049490941c9361075e81610966565b90506106cb565b5083156101d85760405162461bcd60e51b815260206004820181905260248201527f537472696e67733a20686578206c656e67746820696e73756666696369656e7460448201526064016103a2565b6000602082840312156107c657600080fd5b5035919050565b600080604083850312156107e057600080fd5b8235915060208301356001600160a01b03811681146107fe57600080fd5b809150509250929050565b60005b8381101561082457818101518382015260200161080c565b83811115610833576000848401525b50505050565b7f416363657373436f6e74726f6c3a206163636f756e7420000000000000000000815260008351610871816017850160208801610809565b7f206973206d697373696e6720726f6c652000000000000000000000000000000060179184019182015283516108ae816028840160208801610809565b01602801949350505050565b60208152600082518060208401526108d9816040850160208701610809565b601f01601f19169190910160400192915050565b634e487b7160e01b600052601160045260246000fd5b600081600019048311821515161561091d5761091d6108ed565b500290565b60008219821115610935576109356108ed565b500190565b634e487b7160e01b600052604160045260246000fd5b634e487b7160e01b600052603260045260246000fd5b600081610975576109756108ed565b50600019019056fea26469706673582212201899fbd02d731ac65f8f4e33643fb0b388da3ce16ae04f99e599f2c7790c06cf64736f6c634300080f0033",
  "devdoc": {
    "custom:category": "Access",
    "custom:provides-interfaces": "IAccessControl",
    "custom:type": "eip-2535-facet",
    "kind": "dev",
    "methods": {
      "getRoleAdmin(bytes32)": {
        "details": "Returns the admin role that controls `role`. See {grantRole} and {revokeRole}. To change a role's admin, use {AccessControl-_setRoleAdmin}."
      },
      "grantRole(bytes32,address)": {
        "details": "Grants `role` to `account`. If `account` had not been already granted `role`, emits a {RoleGranted} event. Requirements: - the caller must have ``role``'s admin role."
      },
      "hasRole(bytes32,address)": {
        "details": "Returns `true` if `account` has been granted `role`."
      },
      "renounceRole(bytes32,address)": {
        "details": "Revokes `role` from the calling account. Roles are often managed via {grantRole} and {revokeRole}: this function's purpose is to provide a mechanism for accounts to lose their privileges if they are compromised (such as when a trusted device is misplaced). If the calling account had been granted `role`, emits a {RoleRevoked} event. Requirements: - the caller must be `account`."
      },
      "revokeRole(bytes32,address)": {
        "details": "Revokes `role` from `account`. If `account` had been granted `role`, emits a {RoleRevoked} event. Requirements: - the caller must have ``role``'s admin role."
      }
    },
    "title": "Roles - with meta-transactions",
    "version": 1
  },
  "userdoc": {
    "kind": "user",
    "methods": {},
    "notice": "Role-based access control with meta-transactions enabled (mainly for grantRole, revokeRole, renounceRole)",
    "version": 1
  },
  "storageLayout": {
    "storage": [],
    "types": null
  }
}